{
    "balance_change": {
        "balanceChanges": []
    },
    "profile": {
        "basic_info": {
            "baseFee": "",
            "blockNumber": 4865482,
            "callData": "0x0a19b14a0000000000000000000000002fa32a39fc1c399e0cc7b2935868f5165de7ce97000000000000000000000000000000000000000000000000000000028fa6ae000000000000000000000000000000000000000000000000000000000000000000000000000000000000000000000000000000000000000000006983fe1dd4400000000000000000000000000000000000000000000000000000000000004a649b000000000000000000000000000000000000000000000000000000003fc048f3000000000000000000000000be48af1030c219a36452ad087359197f8f85099b000000000000000000000000000000000000000000000000000000000000001b17acbc5e7eca9b2f6a7568d9e8257d806a34ebaaf96e95daa060dfd7c87d01667377390422e2ccc20050563b1c7f58b77817e9e5e06c0faacc1f9fbcf3c95742000000000000000000000000000000000000000000000000000000028fa6ae00",
            "debugEnable": true,
            "errorInfo": "",
            "eventCount": 1,
            "feeRecipient": "0x6a7a43be33ba930fe58f34e07d0ad6ba7adb9b1f",
            "formatValue": "0",
            "gasLimit": 250000,
            "gasPrice": "55",
            "gasUsed": 107666,
            "intTxnCount": 2,
            "internalRevert": false,
            "internalRevertMessage": "",
            "isContractCreation": false,
            "isFlashloan": false,
            "maxFee": "",
            "nonce": 10,
            "overwritedBlockNumber": -1,
            "priorityFee": "",
            "receiver": "0x8d12a197cb00d4747a1fe03395095ce2a5cc6819",
            "revertMessage": "",
            "sender": "0xdf3274f78c1d92a8874fe71456b9632854d84bed",
            "simulationEnable": true,
            "sourceTxnHash": "0x4f55e378eb56d84705de686e73e0a376bf5d7149729ac94fefd8fc6184cd2479",
            "status": true,
            "timestamp": "2018-01-06T21:17:19Z",
            "transactionFee": "0.00592163",
            "txnHash": "0x4f55e378eb56d84705de686e73e0a376bf5d7149729ac94fefd8fc6184cd2479",
            "txnIndex": 43,
            "type": 0,
            "value": "0"
        },
        "fund_flow": [],
        "token_infos": [
            {
                "address": "0xc02aaa39b223fe8d0a0e5c4f27ead9083c756cc2",
                "decimals": 18
            },
            {
                "address": "0xeeeeeeeeeeeeeeeeeeeeeeeeeeeeeeeeeeeeeeee",
                "decimals": 18
            }
        ]
    },
    "address_label": {
        "labels": [
            {
                "address": "0x0000000000000000000000000000000000000000",
                "label": "Null Address"
            },
            {
                "address": "0x0000000000000000000000000000000000000001",
                "label": "Precompiled"
            },
            {
                "address": "0x0000000000000000000000000000000000000003",
                "label": "Precompiled"
            },
            {
                "address": "0x0000000000000000000000000000000000000004",
                "label": "Precompiled"
            },
            {
                "address": "0xeeeeeeeeeeeeeeeeeeeeeeeeeeeeeeeeeeeeeeee",
                "label": "Ether"
            },
            {
                "address": "0x8d12a197cb00d4747a1fe03395095ce2a5cc6819",
                "label": "EtherDelta"
            },
            {
                "address": "0x2fa32a39fc1c399e0cc7b2935868f5165de7ce97",
                "label": "PayFair: Old Token"
            },
            {
                "address": "0x0000000000000000000000000000000000000002",
                "label": "Precompiled"
            }
        ]
    },
    "trace": {
        "accountLabels": null,
        "dataMap": {
            "-1": {
                "invocation": {
                    "address": "0xdf3274f78c1d92a8874fe71456b9632854d84bed",
                    "callData": "",
                    "decodedMethod": null,
                    "errorInfo": "",
                    "fromAddress": "",
                    "gasUsed": 0,
                    "id": -1,
                    "methodDecoded": false,
                    "operation": "",
                    "output": "",
                    "revert": false,
                    "revertMessage": "",
                    "selector": "",
                    "status": false,
                    "value": ""
                },
                "nodeType": 0
            },
            "0": {
                "invocation": {
                    "address": "0x8d12a197cb00d4747a1fe03395095ce2a5cc6819",
                    "callData": "0x0000000000000000000000002fa32a39fc1c399e0cc7b2935868f5165de7ce97000000000000000000000000000000000000000000000000000000028fa6ae000000000000000000000000000000000000000000000000000000000000000000000000000000000000000000000000000000000000000000006983fe1dd4400000000000000000000000000000000000000000000000000000000000004a649b000000000000000000000000000000000000000000000000000000003fc048f3000000000000000000000000be48af1030c219a36452ad087359197f8f85099b000000000000000000000000000000000000000000000000000000000000001b17acbc5e7eca9b2f6a7568d9e8257d806a34ebaaf96e95daa060dfd7c87d01667377390422e2ccc20050563b1c7f58b77817e9e5e06c0faacc1f9fbcf3c95742000000000000000000000000000000000000000000000000000000028fa6ae00",
                    "decodedMethod": {
                        "callParams": [
                            {
                                "name": "tokenGet",
                                "type": "address",
                                "value": "0x2fa32a39fc1c399e0cc7b2935868f5165de7ce97"
                            },
                            {
                                "name": "amountGet",
                                "type": "uint256",
                                "value": "11,000,000,000"
                            },
                            {
                                "name": "tokenGive",
                                "type": "address",
                                "value": "0x0000000000000000000000000000000000000000"
                            },
                            {
                                "name": "amountGive",
                                "type": "uint256",
                                "value": "29,700,000,000,000,000"
                            },
                            {
                                "name": "expires",
                                "type": "uint256",
                                "value": "4,875,419"
                            },
                            {
                                "name": "nonce",
                                "type": "uint256",
                                "value": "1,069,566,195"
                            },
                            {
                                "name": "user",
                                "type": "address",
                                "value": "0xbe48af1030c219a36452ad087359197f8f85099b"
                            },
                            {
                                "name": "v",
                                "type": "uint8",
                                "value": "27"
                            },
                            {
                                "name": "r",
                                "type": "bytes32",
                                "value": "0x17acbc5e7eca9b2f6a7568d9e8257d806a34ebaaf96e95daa060dfd7c87d0166"
                            },
                            {
                                "name": "s",
                                "type": "bytes32",
                                "value": "0x7377390422e2ccc20050563b1c7f58b77817e9e5e06c0faacc1f9fbcf3c95742"
                            },
                            {
                                "name": "amount",
                                "type": "uint256",
                                "value": "11,000,000,000"
                            }
                        ],
                        "constructorArguments": "",
                        "name": "trade",
                        "returnParams": [],
                        "signature": "trade(address,uint256,address,uint256,uint256,uint256,address,uint8,bytes32,bytes32,uint256)"
                    },
                    "errorInfo": "",
                    "fromAddress": "0xdf3274f78c1d92a8874fe71456b9632854d84bed",
                    "gasUsed": 107666,
                    "id": 0,
                    "methodDecoded": true,
                    "operation": "CALL",
                    "output": "",
                    "revert": false,
                    "revertMessage": "",
                    "selector": "0x0a19b14a",
                    "status": true,
                    "value": "0"
                },
                "nodeType": 0
            },
            "1": {
                "invocation": {
                    "address": "0x0000000000000000000000000000000000000002",
                    "callData": "0xcb00d4747a1fe03395095ce2a5cc68192fa32a39fc1c399e0cc7b2935868f5165de7ce97000000000000000000000000000000000000000000000000000000028fa6ae000000000000000000000000000000000000000000000000000000000000000000000000000000000000000000006983fe1dd4400000000000000000000000000000000000000000000000000000000000004a649b000000000000000000000000000000000000000000000000000000003fc048f3",
                    "decodedMethod": {
                        "callParams": [
                            {
                                "name": "data",
                                "type": "bytes",
                                "value": "0x8d12a197cb00d4747a1fe03395095ce2a5cc68192fa32a39fc1c399e0cc7b2935868f5165de7ce97000000000000000000000000000000000000000000000000000000028fa6ae000000000000000000000000000000000000000000000000000000000000000000000000000000000000000000006983fe1dd4400000000000000000000000000000000000000000000000000000000000004a649b000000000000000000000000000000000000000000000000000000003fc048f3"
                            }
                        ],
                        "constructorArguments": "",
                        "name": "sha256hash",
                        "returnParams": [
                            {
                                "name": "hash",
                                "type": "bytes32",
                                "value": "0x63b23e2fff98afa0103a77e12b3de8091a28f4ba091f3a2a55730b050df11e7a"
                            }
                        ],
                        "signature": "sha256hash(bytes)"
                    },
                    "errorInfo": "",
                    "fromAddress": "0x8d12a197cb00d4747a1fe03395095ce2a5cc6819",
                    "gasUsed": 132,
                    "id": 1,
                    "methodDecoded": true,
                    "operation": "CALL",
                    "output": "0x63b23e2fff98afa0103a77e12b3de8091a28f4ba091f3a2a55730b050df11e7a",
                    "revert": false,
                    "revertMessage": "",
                    "selector": "0x8d12a197",
                    "status": true,
                    "value": "0"
                },
                "nodeType": 0
            },
            "2": {
                "invocation": {
                    "address": "0x0000000000000000000000000000000000000001",
                    "callData": "0xe0c50d69858a4ea0941c0f0291d61a1cd637687536698ac684aeeb4c000000000000000000000000000000000000000000000000000000000000001b17acbc5e7eca9b2f6a7568d9e8257d806a34ebaaf96e95daa060dfd7c87d01667377390422e2ccc20050563b1c7f58b77817e9e5e06c0faacc1f9fbcf3c95742",
                    "decodedMethod": {
                        "callParams": [
                            {
                                "name": "hash",
                                "type": "bytes32",
                                "value": "0x4a9c9d6ae0c50d69858a4ea0941c0f0291d61a1cd637687536698ac684aeeb4c"
                            },
                            {
                                "name": "v",
                                "type": "uint256",
                                "value": "27"
                            },
                            {
                                "name": "r",
                                "type": "bytes32",
                                "value": "0x17acbc5e7eca9b2f6a7568d9e8257d806a34ebaaf96e95daa060dfd7c87d0166"
                            },
                            {
                                "name": "s",
                                "type": "bytes32",
                                "value": "0x7377390422e2ccc20050563b1c7f58b77817e9e5e06c0faacc1f9fbcf3c95742"
                            }
                        ],
                        "constructorArguments": "",
                        "name": "ecrecover",
                        "returnParams": [
                            {
                                "name": "",
                                "type": "address",
                                "value": "0xbe48af1030c219a36452ad087359197f8f85099b"
                            }
                        ],
                        "signature": "ecrecover(bytes32,uint256,bytes32,bytes32)"
                    },
                    "errorInfo": "",
                    "fromAddress": "0x8d12a197cb00d4747a1fe03395095ce2a5cc6819",
                    "gasUsed": 3000,
                    "id": 2,
                    "methodDecoded": true,
                    "operation": "CALL",
                    "output": "0x000000000000000000000000be48af1030c219a36452ad087359197f8f85099b",
                    "revert": false,
                    "revertMessage": "",
                    "selector": "0x4a9c9d6a",
                    "status": true,
                    "value": "0"
                },
                "nodeType": 0
            },
            "3": {
                "event": {
                    "contract": "0x8d12a197cb00d4747a1fe03395095ce2a5cc6819",
                    "decodedLog": {
                        "name": "Trade",
                        "params": [
                            {
                                "name": "tokenGet",
                                "type": "address",
                                "value": "0x2fa32a39fc1c399e0cc7b2935868f5165de7ce97"
                            },
                            {
                                "name": "amountGet",
                                "type": "uint256",
                                "value": "11,000,000,000"
                            },
                            {
                                "name": "tokenGive",
                                "type": "address",
                                "value": "0x0000000000000000000000000000000000000000"
                            },
                            {
                                "name": "amountGive",
                                "type": "uint256",
                                "value": "29,700,000,000,000,000"
                            },
                            {
                                "name": "get",
                                "type": "address",
                                "value": "0xbe48af1030c219a36452ad087359197f8f85099b"
                            },
                            {
                                "name": "give",
                                "type": "address",
                                "value": "0xdf3274f78c1d92a8874fe71456b9632854d84bed"
                            }
                        ],
                        "signature": "Trade(address,uint256,address,uint256,address,address)"
                    },
                    "id": 3,
                    "logData": "0x0000000000000000000000002fa32a39fc1c399e0cc7b2935868f5165de7ce97000000000000000000000000000000000000000000000000000000028fa6ae000000000000000000000000000000000000000000000000000000000000000000000000000000000000000000000000000000000000000000006983fe1dd44000000000000000000000000000be48af1030c219a36452ad087359197f8f85099b000000000000000000000000df3274f78c1d92a8874fe71456b9632854d84bed",
                    "logDecoded": true,
                    "operation": "EVENT",
                    "revert": false,
                    "status": true,
                    "topics": [
                        "0x6effdda786735d5033bfad5f53e5131abcced9e52be6c507b62d639685fbed6d"
                    ]
                },
                "nodeType": 1
            }
        },
        "gasFlame": [
            {
                "children": [
                    {
                        "children": [
                            {
                                "children": [],
                                "depth": 0,
                                "name": "Initial Gas",
                                "value": 30680
                            },
                            {
                                "children": [
                                    {
                                        "children": [],
                                        "depth": 1,
                                        "name": "sha256hash",
                                        "value": 132
                                    },
                                    {
                                        "children": [],
                                        "depth": 1,
                                        "name": "ecrecover",
                                        "value": 3000
                                    }
                                ],
                                "depth": 0,
                                "name": "Executed Gas",
                                "value": 76986
                            }
                        ],
                        "depth": -1,
                        "name": "Actual Gas Used",
                        "value": 107666
                    },
                    {
                        "children": [],
                        "depth": -1,
                        "name": "Refunded Gas",
                        "value": 0
                    }
                ],
                "depth": -2,
                "name": "Total Gas",
                "value": 107666
            }
        ],
        "isConfirmed": true,
        "mainTrace": [
            {
                "children": [
                    {
                        "children": [
                            {
                                "children": [],
                                "depth": 1,
                                "id": 1,
                                "order": 1
                            },
                            {
                                "children": [],
                                "depth": 1,
                                "id": 2,
                                "order": 2
                            },
                            {
                                "children": [],
                                "depth": 1,
                                "id": 3,
                                "order": 3
                            }
                        ],
                        "depth": 0,
                        "id": 0,
                        "order": 0
                    }
                ],
                "depth": -1,
                "id": -1,
                "order": -1
            }
        ],
        "mainTraceNodeCount": 4,
        "parentIdMap": {
            "0": -1,
            "1": 0,
            "2": 0,
            "3": 0
        },
        "tidyTrace": [
            {
                "children": [
                    {
                        "children": [
                            {
                                "children": [],
                                "depth": 1,
                                "id": 1,
                                "order": 1
                            },
                            {
                                "children": [],
                                "depth": 1,
                                "id": 2,
                                "order": 2
                            },
                            {
                                "children": [],
                                "depth": 1,
                                "id": 3,
                                "order": 3
                            }
                        ],
                        "depth": 0,
                        "id": 0,
                        "order": 0
                    }
                ],
                "depth": -1,
                "id": -1,
                "order": -1
            }
        ],
        "tidyTraceNodeCount": 4
    },
    "state_change": {
        "stateChanges": [
            {
                "address": "0x8d12a197cb00d4747a1fe03395095ce2a5cc6819",
                "erc": "",
                "slots": [
                    {
                        "current": "0x0000000000000000000000000000000000000000000000000e1b82da6a4b9b00",
                        "key": "0x7795c306d5fdc6c054799e18cadce5d1b959941eaa88b2d9da2d2f6feec3a4de",
                        "prev": "0x0000000000000000000000000000000000000000000000000db1fedc4c775b00"
                    },
                    {
                        "current": "0x000000000000000000000000000000000000000000000000000000028fa6ae00",
                        "key": "0x1bdac16fe0859441af9c114e5855a346758a29747a1a2aeafc644c1cc7cad322",
                        "prev": "0x0000000000000000000000000000000000000000000000000000000000000000"
                    },
                    {
                        "current": "0x000000000000000000000000000000000000000000000000000000a783c898a0",
                        "key": "0xefa9de9a977ac7bdc892bfea057e1af136ed3e65d084a50536799bdbe1bd602c",
                        "prev": "0x000000000000000000000000000000000000000000000000000000aa1566d0e0"
                    },
                    {
                        "current": "0x000000000000000000000000000000000000000000000000000000028fa6ae00",
                        "key": "0x2ebbe2f1242e9dcd79d0b572b0949ce85817e42a9c8980d84aa02c1d40307f6c",
                        "prev": "0x0000000000000000000000000000000000000000000000000000000000000000"
                    },
                    {
                        "current": "0x00000000000000000000000000000000000000000000000000000294b57d75e3",
                        "key": "0x880617ce21a927aece116d33a033f61c095eb7ec48523367a9bce536bd061d76",
                        "prev": "0x00000000000000000000000000000000000000000000000000000294b385eba3"
                    },
                    {
                        "current": "0x00000000000000000000000000000000000000000000000000084b025a425680",
                        "key": "0x513fd592d63a854a9025c8eb236588335fc2896fc95df7fa38b4c3866487935c",
                        "prev": "0x0000000000000000000000000000000000000000000000000071cf0078169680"
                    }
                ],
                "storageVariables": []
            }
        ]
    }
}