{
    "balance_change": {
        "balanceChanges": [
            {
                "account": "0x6182547f41c192afaed4462746b290fd84e43f25",
                "assets": [
                    {
                        "address": "0xcad3ed04b33e32e4d9970d2d9e1a17b1e7a632d3",
                        "amount": "128.0023",
                        "iconUrl": "",
                        "isERC1155": false,
                        "isERC721": false,
                        "sign": false,
                        "value": ""
                    }
                ]
            },
            {
                "account": "0xcedfe10971e765e69cb59d0b72a641eb16bc1830",
                "assets": [
                    {
                        "address": "0xcad3ed04b33e32e4d9970d2d9e1a17b1e7a632d3",
                        "amount": "128.0023",
                        "iconUrl": "",
                        "isERC1155": false,
                        "isERC721": false,
                        "sign": true,
                        "value": ""
                    }
                ]
            }
        ]
    },
    "profile": {
        "basic_info": {
            "baseFee": "",
            "blockNumber": 11237360,
            "callData": "0xa9059cbb000000000000000000000000cedfe10971e765e69cb59d0b72a641eb16bc1830000000000000000000000000000000000000000000000006f06385aa2cfbc000",
            "debugEnable": true,
            "errorInfo": "",
            "eventCount": 1,
            "feeRecipient": "0xea674fdde714fd979de3edf0f56aa9716b898ec8",
            "formatValue": "0",
            "gasLimit": 120000,
            "gasPrice": "61",
            "gasUsed": 37000,
            "intTxnCount": 0,
            "internalRevert": false,
            "internalRevertMessage": "",
            "isContractCreation": false,
            "isFlashloan": false,
            "maxFee": "",
            "nonce": 2206,
            "overwritedBlockNumber": -1,
            "priorityFee": "",
            "receiver": "0xcad3ed04b33e32e4d9970d2d9e1a17b1e7a632d3",
            "revertMessage": "",
            "sender": "0x6182547f41c192afaed4462746b290fd84e43f25",
            "simulationEnable": true,
            "sourceTxnHash": "0x4fb4c2b5c7cd82fd78c8b395419989908d4adf4311dbb6f0fa1acf7b4b0d0b1f",
            "status": true,
            "timestamp": "2020-11-11T16:17:55Z",
            "transactionFee": "0.002257",
            "txnHash": "0x4fb4c2b5c7cd82fd78c8b395419989908d4adf4311dbb6f0fa1acf7b4b0d0b1f",
            "txnIndex": 142,
            "type": 0,
            "value": "0"
        },
        "fund_flow": [
            {
                "amount": "128.0023",
                "from": "0x6182547f41c192afaed4462746b290fd84e43f25",
                "id": 1,
                "isERC1155": false,
                "isERC721": false,
                "isReverted": false,
                "order": 1,
                "to": "0xcedfe10971e765e69cb59d0b72a641eb16bc1830",
                "token": "0xcad3ed04b33e32e4d9970d2d9e1a17b1e7a632d3"
            }
        ],
        "token_infos": [
            {
                "address": "0xc02aaa39b223fe8d0a0e5c4f27ead9083c756cc2",
                "decimals": 18
            },
            {
                "address": "0xcad3ed04b33e32e4d9970d2d9e1a17b1e7a632d3",
                "decimals": 18
            },
            {
                "address": "0xeeeeeeeeeeeeeeeeeeeeeeeeeeeeeeeeeeeeeeee",
                "decimals": 18
            }
        ]
    },
    "address_label": {
        "labels": [
            {
                "address": "0xcad3ed04b33e32e4d9970d2d9e1a17b1e7a632d3",
                "label": "BCETF (BCETF)"
            },
            {
                "address": "0x0000000000000000000000000000000000000001",
                "label": "Precompiled"
            },
            {
                "address": "0x0000000000000000000000000000000000000002",
                "label": "Precompiled"
            },
            {
                "address": "0x0000000000000000000000000000000000000003",
                "label": "Precompiled"
            },
            {
                "address": "0x0000000000000000000000000000000000000004",
                "label": "Precompiled"
            },
            {
                "address": "0xeeeeeeeeeeeeeeeeeeeeeeeeeeeeeeeeeeeeeeee",
                "label": "Ether"
            }
        ]
    },
    "trace": {
        "accountLabels": null,
        "dataMap": {
            "-1": {
                "invocation": {
                    "address": "0x6182547f41c192afaed4462746b290fd84e43f25",
                    "callData": "",
                    "decodedMethod": null,
                    "errorInfo": "",
                    "fromAddress": "",
                    "gasUsed": 0,
                    "id": -1,
                    "methodDecoded": false,
                    "operation": "",
                    "output": "",
                    "revert": false,
                    "revertMessage": "",
                    "selector": "",
                    "status": false,
                    "value": ""
                },
                "nodeType": 0
            },
            "0": {
                "invocation": {
                    "address": "0xcad3ed04b33e32e4d9970d2d9e1a17b1e7a632d3",
                    "callData": "0x000000000000000000000000cedfe10971e765e69cb59d0b72a641eb16bc1830000000000000000000000000000000000000000000000006f06385aa2cfbc000",
                    "decodedMethod": {
                        "callParams": [
                            {
                                "name": "_to",
                                "type": "address",
                                "value": "0xcedfe10971e765e69cb59d0b72a641eb16bc1830"
                            },
                            {
                                "decimalAvailable": true,
                                "name": "_value",
                                "type": "uint256",
                                "value": "128,002,300,000,000,000,000"
                            }
                        ],
                        "constructorArguments": "",
                        "name": "transfer",
                        "returnParams": [],
                        "signature": "transfer(address,uint256)"
                    },
                    "errorInfo": "",
                    "fromAddress": "0x6182547f41c192afaed4462746b290fd84e43f25",
                    "gasUsed": 37000,
                    "id": 0,
                    "methodDecoded": true,
                    "operation": "CALL",
                    "output": "",
                    "revert": false,
                    "revertMessage": "",
                    "selector": "0xa9059cbb",
                    "status": true,
                    "value": "0"
                },
                "nodeType": 0
            },
            "1": {
                "event": {
                    "contract": "0xcad3ed04b33e32e4d9970d2d9e1a17b1e7a632d3",
                    "decodedLog": {
                        "name": "Transfer",
                        "params": [
                            {
                                "name": "from",
                                "type": "address",
                                "value": "0x6182547f41c192afaed4462746b290fd84e43f25"
                            },
                            {
                                "name": "to",
                                "type": "address",
                                "value": "0xcedfe10971e765e69cb59d0b72a641eb16bc1830"
                            },
                            {
                                "decimalAvailable": true,
                                "name": "value",
                                "type": "uint256",
                                "value": "128,002,300,000,000,000,000"
                            }
                        ],
                        "signature": "Transfer(address,address,uint256)"
                    },
                    "id": 1,
                    "logData": "0x000000000000000000000000000000000000000000000006f06385aa2cfbc000",
                    "logDecoded": true,
                    "operation": "EVENT",
                    "revert": false,
                    "status": true,
                    "topics": [
                        "0xddf252ad1be2c89b69c2b068fc378daa952ba7f163c4a11628f55a4df523b3ef",
                        "0x0000000000000000000000006182547f41c192afaed4462746b290fd84e43f25",
                        "0x000000000000000000000000cedfe10971e765e69cb59d0b72a641eb16bc1830"
                    ]
                },
                "nodeType": 1
            }
        },
        "gasFlame": [
            {
                "children": [
                    {
                        "children": [
                            {
                                "children": [],
                                "depth": 0,
                                "name": "Initial Gas",
                                "value": 21656
                            },
                            {
                                "children": [],
                                "depth": 0,
                                "name": "Executed Gas",
                                "value": 15344
                            }
                        ],
                        "depth": -1,
                        "name": "Actual Gas Used",
                        "value": 37000
                    },
                    {
                        "children": [],
                        "depth": -1,
                        "name": "Refunded Gas",
                        "value": 0
                    }
                ],
                "depth": -2,
                "name": "Total Gas",
                "value": 37000
            }
        ],
        "isConfirmed": true,
        "mainTrace": [
            {
                "children": [
                    {
                        "children": [
                            {
                                "children": [],
                                "depth": 1,
                                "id": 1,
                                "order": 1
                            }
                        ],
                        "depth": 0,
                        "id": 0,
                        "order": 0
                    }
                ],
                "depth": -1,
                "id": -1,
                "order": -1
            }
        ],
        "mainTraceNodeCount": 2,
        "parentIdMap": {
            "0": -1,
            "1": 0
        },
        "tidyTrace": [
            {
                "children": [
                    {
                        "children": [
                            {
                                "children": [],
                                "depth": 1,
                                "id": 1,
                                "order": 1
                            }
                        ],
                        "depth": 0,
                        "id": 0,
                        "order": 0
                    }
                ],
                "depth": -1,
                "id": -1,
                "order": -1
            }
        ],
        "tidyTraceNodeCount": 2
    },
    "state_change": {
        "stateChanges": [
            {
                "address": "0xcad3ed04b33e32e4d9970d2d9e1a17b1e7a632d3",
                "erc": "ERC-20",
                "slots": [
                    {
                        "current": "0x000000000000000000000000000000000000000000009c6c336621e135eff800",
                        "key": "0xf9b1a1108f94217a7dddf92ebc17a2374da444e03e79111b9ff975ac915ebc36",
                        "prev": "0x000000000000000000000000000000000000000000009c7323c9a78b62ebb800"
                    },
                    {
                        "current": "0x00000000000000000000000000000000000000000000036dee7bc6c5f75dc000",
                        "key": "0x902e8b56eb4f1252aa7e15b3bba656a26beea620e406ed69d10d7a3496031f4a",
                        "prev": "0x000000000000000000000000000000000000000000000366fe18411bca620000"
                    }
                ],
                "storageVariables": [
                    {
                        "name": "balances",
                        "type": "mapping(address => uint256)",
                        "value": {
                            "pairs": [
                                {
                                    "key": "0x6182547f41c192afaed4462746b290fd84e43f25",
                                    "value": {
                                        "current": "738685123372620000000000",
                                        "prev": "738813125672620000000000",
                                        "typeTag": 1
                                    }
                                },
                                {
                                    "key": "0xcedfe10971e765e69cb59d0b72a641eb16bc1830",
                                    "value": {
                                        "current": "16194979100000000000000",
                                        "prev": "16066976800000000000000",
                                        "typeTag": 1
                                    }
                                }
                            ],
                            "typeTag": 4
                        }
                    }
                ]
            }
        ]
    }
}