{
    "balance_change": {
        "balanceChanges": []
    },
    "profile": {
        "basic_info": {
            "baseFee": "",
            "blockNumber": 6034505,
            "callData": "0xb52c64c741462e313237322e31353333383539323030303030000000000000000000000000000000000000000000000000000000000000000000000000000165242c2ec0000000000000000000000000000000000000000000000000000000000000000300000000000000000000000000000000000000000000000000000000000000643536373063663537633536313464333839663262363936353032663266623632",
            "debugEnable": true,
            "errorInfo": "",
            "eventCount": 1,
            "feeRecipient": "0xea674fdde714fd979de3edf0f56aa9716b898ec8",
            "formatValue": "0",
            "gasLimit": 132061,
            "gasPrice": "5",
            "gasUsed": 120055,
            "intTxnCount": 0,
            "internalRevert": false,
            "internalRevertMessage": "",
            "isContractCreation": false,
            "isFlashloan": false,
            "maxFee": "",
            "nonce": 5064,
            "overwritedBlockNumber": -1,
            "priorityFee": "",
            "receiver": "0xe083515d1541f2a9fd0ca03f189f5d321c73b872",
            "revertMessage": "",
            "sender": "0x50e00de2c5cc4e456cf234fcb1a0efa367ed016e",
            "simulationEnable": true,
            "sourceTxnHash": "0x4f78771b2fe45e7fe374940e5500f981362c8b3da07ad0fb4ea74af62b8ab2fd",
            "status": true,
            "timestamp": "2018-07-26T17:07:24Z",
            "transactionFee": "0.000600275",
            "txnHash": "0x4f78771b2fe45e7fe374940e5500f981362c8b3da07ad0fb4ea74af62b8ab2fd",
            "txnIndex": 74,
            "type": 0,
            "value": "0"
        },
        "fund_flow": [],
        "token_infos": [
            {
                "address": "0xc02aaa39b223fe8d0a0e5c4f27ead9083c756cc2",
                "decimals": 18
            },
            {
                "address": "0xeeeeeeeeeeeeeeeeeeeeeeeeeeeeeeeeeeeeeeee",
                "decimals": 18
            }
        ]
    },
    "address_label": {
        "labels": [
            {
                "address": "0x0000000000000000000000000000000000000003",
                "label": "Precompiled"
            },
            {
                "address": "0x0000000000000000000000000000000000000004",
                "label": "Precompiled"
            },
            {
                "address": "0xeeeeeeeeeeeeeeeeeeeeeeeeeeeeeeeeeeeeeeee",
                "label": "Ether"
            },
            {
                "address": "0xe083515d1541f2a9fd0ca03f189f5d321c73b872",
                "label": "Fizzy"
            },
            {
                "address": "0x0000000000000000000000000000000000000001",
                "label": "Precompiled"
            },
            {
                "address": "0x0000000000000000000000000000000000000002",
                "label": "Precompiled"
            }
        ]
    },
    "trace": {
        "accountLabels": null,
        "dataMap": {
            "-1": {
                "invocation": {
                    "address": "0x50e00de2c5cc4e456cf234fcb1a0efa367ed016e",
                    "callData": "",
                    "decodedMethod": null,
                    "errorInfo": "",
                    "fromAddress": "",
                    "gasUsed": 0,
                    "id": -1,
                    "methodDecoded": false,
                    "operation": "",
                    "output": "",
                    "revert": false,
                    "revertMessage": "",
                    "selector": "",
                    "status": false,
                    "value": ""
                },
                "nodeType": 0
            },
            "0": {
                "invocation": {
                    "address": "0xe083515d1541f2a9fd0ca03f189f5d321c73b872",
                    "callData": "0x41462e313237322e31353333383539323030303030000000000000000000000000000000000000000000000000000000000000000000000000000165242c2ec0000000000000000000000000000000000000000000000000000000000000000300000000000000000000000000000000000000000000000000000000000000643536373063663537633536313464333839663262363936353032663266623632",
                    "decodedMethod": {
                        "callParams": [
                            {
                                "name": "flightId",
                                "type": "bytes32",
                                "value": "0x41462e313237322e313533333835393230303030300000000000000000000000"
                            },
                            {
                                "name": "limitArrivalTime",
                                "type": "uint256",
                                "value": "1,533,910,200,000"
                            },
                            {
                                "name": "premium",
                                "type": "uint32",
                                "value": "3"
                            },
                            {
                                "name": "indemnity",
                                "type": "uint32",
                                "value": "100"
                            },
                            {
                                "name": "productId",
                                "type": "bytes32",
                                "value": "0x3536373063663537633536313464333839663262363936353032663266623632"
                            }
                        ],
                        "constructorArguments": "",
                        "name": "addNewInsurance",
                        "returnParams": [],
                        "signature": "addNewInsurance(bytes32,uint256,uint32,uint32,bytes32)"
                    },
                    "errorInfo": "",
                    "fromAddress": "0x50e00de2c5cc4e456cf234fcb1a0efa367ed016e",
                    "gasUsed": 120055,
                    "id": 0,
                    "methodDecoded": true,
                    "operation": "CALL",
                    "output": "",
                    "revert": false,
                    "revertMessage": "",
                    "selector": "0xb52c64c7",
                    "status": true,
                    "value": "0"
                },
                "nodeType": 0
            },
            "1": {
                "event": {
                    "contract": "0xe083515d1541f2a9fd0ca03f189f5d321c73b872",
                    "decodedLog": {
                        "name": "InsuranceCreation",
                        "params": [
                            {
                                "name": "flightId",
                                "type": "bytes32",
                                "value": "0x41462e313237322e313533333835393230303030300000000000000000000000"
                            },
                            {
                                "name": "premium",
                                "type": "uint32",
                                "value": "3"
                            },
                            {
                                "name": "indemnity",
                                "type": "uint32",
                                "value": "100"
                            },
                            {
                                "name": "productId",
                                "type": "bytes32",
                                "value": "0x3536373063663537633536313464333839663262363936353032663266623632"
                            }
                        ],
                        "signature": "InsuranceCreation(bytes32,uint32,uint32,bytes32)"
                    },
                    "id": 1,
                    "logData": "0x41462e313237322e313533333835393230303030300000000000000000000000000000000000000000000000000000000000000000000000000000000000000300000000000000000000000000000000000000000000000000000000000000643536373063663537633536313464333839663262363936353032663266623632",
                    "logDecoded": true,
                    "operation": "EVENT",
                    "revert": false,
                    "status": true,
                    "topics": [
                        "0x740610c472095940dbb97134b5a7c4f27fb03c69bd892fea239850fa66dc5480"
                    ]
                },
                "nodeType": 1
            }
        },
        "gasFlame": [
            {
                "children": [
                    {
                        "children": [
                            {
                                "children": [],
                                "depth": 0,
                                "name": "Initial Gas",
                                "value": 25816
                            },
                            {
                                "children": [],
                                "depth": 0,
                                "name": "Executed Gas",
                                "value": 94239
                            }
                        ],
                        "depth": -1,
                        "name": "Actual Gas Used",
                        "value": 120055
                    },
                    {
                        "children": [],
                        "depth": -1,
                        "name": "Refunded Gas",
                        "value": 0
                    }
                ],
                "depth": -2,
                "name": "Total Gas",
                "value": 120055
            }
        ],
        "isConfirmed": true,
        "mainTrace": [
            {
                "children": [
                    {
                        "children": [
                            {
                                "children": [],
                                "depth": 1,
                                "id": 1,
                                "order": 1
                            }
                        ],
                        "depth": 0,
                        "id": 0,
                        "order": 0
                    }
                ],
                "depth": -1,
                "id": -1,
                "order": -1
            }
        ],
        "mainTraceNodeCount": 2,
        "parentIdMap": {
            "0": -1,
            "1": 0
        },
        "tidyTrace": [
            {
                "children": [
                    {
                        "children": [
                            {
                                "children": [],
                                "depth": 1,
                                "id": 1,
                                "order": 1
                            }
                        ],
                        "depth": 0,
                        "id": 0,
                        "order": 0
                    }
                ],
                "depth": -1,
                "id": -1,
                "order": -1
            }
        ],
        "tidyTraceNodeCount": 2
    },
    "state_change": {
        "stateChanges": [
            {
                "address": "0xe083515d1541f2a9fd0ca03f189f5d321c73b872",
                "erc": "",
                "slots": [
                    {
                        "current": "0x00000000000000000000000000000000000000000000000000000165242c2ec0",
                        "key": "0x40772894e5106eef6460e6ecf737102f81654e67f20f6ef615f2c444f3313499",
                        "prev": "0x0000000000000000000000000000000000000000000000000000000000000000"
                    },
                    {
                        "current": "0x0000000000000000000000000000000000000000000000000000006400000003",
                        "key": "0x40772894e5106eef6460e6ecf737102f81654e67f20f6ef615f2c444f331349a",
                        "prev": "0x0000000000000000000000000000000000000000000000000000000000000000"
                    },
                    {
                        "current": "0x0000000000000000000000000000000000000000000000000000000000000001",
                        "key": "0x1a790376c1c00d9f44520ce5d1e95641851fa0e76c7671fb6c3d8114244430e9",
                        "prev": "0x0000000000000000000000000000000000000000000000000000000000000000"
                    },
                    {
                        "current": "0x3536373063663537633536313464333839663262363936353032663266623632",
                        "key": "0x40772894e5106eef6460e6ecf737102f81654e67f20f6ef615f2c444f3313498",
                        "prev": "0x0000000000000000000000000000000000000000000000000000000000000000"
                    }
                ],
                "storageVariables": [
                    {
                        "name": "insuranceList",
                        "type": "mapping(bytes32 => struct Fizzy.Insurance[])",
                        "value": {
                            "pairs": [
                                {
                                    "key": "0x41462e313237322e313533333835393230303030300000000000000000000000",
                                    "value": {
                                        "elemType": "struct Fizzy.Insurance",
                                        "elems": [
                                            {
                                                "index": 0,
                                                "value": {
                                                    "fields": [
                                                        {
                                                            "name": "productId",
                                                            "type": "bytes32",
                                                            "value": {
                                                                "current": "0x3536373063663537633536313464333839663262363936353032663266623632",
                                                                "prev": "0x0000000000000000000000000000000000000000000000000000000000000000",
                                                                "typeTag": 1
                                                            }
                                                        },
                                                        {
                                                            "name": "limitArrivalTime",
                                                            "type": "uint256",
                                                            "value": {
                                                                "current": "1533910200000",
                                                                "prev": "0",
                                                                "typeTag": 1
                                                            }
                                                        },
                                                        {
                                                            "name": "premium",
                                                            "type": "uint32",
                                                            "value": {
                                                                "current": "3",
                                                                "prev": "0",
                                                                "typeTag": 1
                                                            }
                                                        },
                                                        {
                                                            "name": "indemnity",
                                                            "type": "uint32",
                                                            "value": {
                                                                "current": "100",
                                                                "prev": "0",
                                                                "typeTag": 1
                                                            }
                                                        },
                                                        {
                                                            "name": "status",
                                                            "type": "uint8",
                                                            "value": {
                                                                "current": "0",
                                                                "prev": "0",
                                                                "typeTag": 1
                                                            }
                                                        }
                                                    ],
                                                    "typeTag": 3
                                                }
                                            }
                                        ],
                                        "typeTag": 2
                                    }
                                }
                            ],
                            "typeTag": 4
                        }
                    }
                ]
            }
        ]
    }
}