{
    "balance_change": {
        "balanceChanges": [
            {
                "account": "0x8400e79eab84cb2aa100f3ba4fa11f374c707e95",
                "assets": [
                    {
                        "address": "0x174bfa6600bf90c885c7c01c7031389ed1461ab9",
                        "amount": "88.64315695",
                        "iconUrl": "",
                        "isERC1155": false,
                        "isERC721": false,
                        "sign": false,
                        "value": ""
                    }
                ]
            },
            {
                "account": "0xe5d2aa5712344bbab1979cc496ba33deb1bcc279",
                "assets": [
                    {
                        "address": "0x174bfa6600bf90c885c7c01c7031389ed1461ab9",
                        "amount": "88.64315695",
                        "iconUrl": "",
                        "isERC1155": false,
                        "isERC721": false,
                        "sign": true,
                        "value": ""
                    }
                ]
            }
        ]
    },
    "profile": {
        "basic_info": {
            "baseFee": "",
            "blockNumber": 7709685,
            "callData": "0xa9059cbb000000000000000000000000e5d2aa5712344bbab1979cc496ba33deb1bcc279000000000000000000000000000000000000000000000004ce2bc1982df2dc00",
            "debugEnable": true,
            "errorInfo": "",
            "eventCount": 1,
            "feeRecipient": "0x6a7a43be33ba930fe58f34e07d0ad6ba7adb9b1f",
            "formatValue": "0",
            "gasLimit": 116600,
            "gasPrice": "5",
            "gasUsed": 38187,
            "intTxnCount": 0,
            "internalRevert": false,
            "internalRevertMessage": "",
            "isContractCreation": false,
            "isFlashloan": false,
            "maxFee": "",
            "nonce": 11974,
            "overwritedBlockNumber": -1,
            "priorityFee": "",
            "receiver": "0x174bfa6600bf90c885c7c01c7031389ed1461ab9",
            "revertMessage": "",
            "sender": "0x8400e79eab84cb2aa100f3ba4fa11f374c707e95",
            "simulationEnable": true,
            "sourceTxnHash": "0x50ca75da6ad4e6c0f3a876f1bf9cfb52a2e0724be46de15d3db8ba7ee5ed3e60",
            "status": true,
            "timestamp": "2019-05-06T21:23:07Z",
            "transactionFee": "0.000190935",
            "txnHash": "0x50ca75da6ad4e6c0f3a876f1bf9cfb52a2e0724be46de15d3db8ba7ee5ed3e60",
            "txnIndex": 48,
            "type": 0,
            "value": "0"
        },
        "fund_flow": [
            {
                "amount": "88.64315695",
                "from": "0x8400e79eab84cb2aa100f3ba4fa11f374c707e95",
                "id": 1,
                "isERC1155": false,
                "isERC721": false,
                "isReverted": false,
                "order": 1,
                "to": "0xe5d2aa5712344bbab1979cc496ba33deb1bcc279",
                "token": "0x174bfa6600bf90c885c7c01c7031389ed1461ab9"
            }
        ],
        "token_infos": [
            {
                "address": "0x174bfa6600bf90c885c7c01c7031389ed1461ab9",
                "decimals": 18
            },
            {
                "address": "0xc02aaa39b223fe8d0a0e5c4f27ead9083c756cc2",
                "decimals": 18
            },
            {
                "address": "0xeeeeeeeeeeeeeeeeeeeeeeeeeeeeeeeeeeeeeeee",
                "decimals": 18
            }
        ]
    },
    "address_label": {
        "labels": [
            {
                "address": "0x0000000000000000000000000000000000000004",
                "label": "Precompiled"
            },
            {
                "address": "0xeeeeeeeeeeeeeeeeeeeeeeeeeeeeeeeeeeeeeeee",
                "label": "Ether"
            },
            {
                "address": "0x174bfa6600bf90c885c7c01c7031389ed1461ab9",
                "label": "More Gold: MGC Token"
            },
            {
                "address": "0x0000000000000000000000000000000000000001",
                "label": "Precompiled"
            },
            {
                "address": "0x0000000000000000000000000000000000000002",
                "label": "Precompiled"
            },
            {
                "address": "0x0000000000000000000000000000000000000003",
                "label": "Precompiled"
            }
        ]
    },
    "trace": {
        "accountLabels": null,
        "dataMap": {
            "-1": {
                "invocation": {
                    "address": "0x8400e79eab84cb2aa100f3ba4fa11f374c707e95",
                    "callData": "",
                    "decodedMethod": null,
                    "errorInfo": "",
                    "fromAddress": "",
                    "gasUsed": 0,
                    "id": -1,
                    "methodDecoded": false,
                    "operation": "",
                    "output": "",
                    "revert": false,
                    "revertMessage": "",
                    "selector": "",
                    "status": false,
                    "value": ""
                },
                "nodeType": 0
            },
            "0": {
                "invocation": {
                    "address": "0x174bfa6600bf90c885c7c01c7031389ed1461ab9",
                    "callData": "0x000000000000000000000000e5d2aa5712344bbab1979cc496ba33deb1bcc279000000000000000000000000000000000000000000000004ce2bc1982df2dc00",
                    "decodedMethod": {
                        "callParams": [
                            {
                                "name": "_to",
                                "type": "address",
                                "value": "0xe5d2aa5712344bbab1979cc496ba33deb1bcc279"
                            },
                            {
                                "decimalAvailable": true,
                                "name": "_value",
                                "type": "uint256",
                                "value": "88,643,156,950,000,000,000"
                            }
                        ],
                        "constructorArguments": "",
                        "name": "transfer",
                        "returnParams": [
                            {
                                "name": "success",
                                "type": "bool",
                                "value": true
                            }
                        ],
                        "signature": "transfer(address,uint256)"
                    },
                    "errorInfo": "",
                    "fromAddress": "0x8400e79eab84cb2aa100f3ba4fa11f374c707e95",
                    "gasUsed": 38187,
                    "id": 0,
                    "methodDecoded": true,
                    "operation": "CALL",
                    "output": "0x0000000000000000000000000000000000000000000000000000000000000001",
                    "revert": false,
                    "revertMessage": "",
                    "selector": "0xa9059cbb",
                    "status": true,
                    "value": "0"
                },
                "nodeType": 0
            },
            "1": {
                "event": {
                    "contract": "0x174bfa6600bf90c885c7c01c7031389ed1461ab9",
                    "decodedLog": {
                        "name": "Transfer",
                        "params": [
                            {
                                "name": "from",
                                "type": "address",
                                "value": "0x8400e79eab84cb2aa100f3ba4fa11f374c707e95"
                            },
                            {
                                "name": "to",
                                "type": "address",
                                "value": "0xe5d2aa5712344bbab1979cc496ba33deb1bcc279"
                            },
                            {
                                "decimalAvailable": true,
                                "name": "value",
                                "type": "uint256",
                                "value": "88,643,156,950,000,000,000"
                            }
                        ],
                        "signature": "Transfer(address,address,uint256)"
                    },
                    "id": 1,
                    "logData": "0x000000000000000000000000000000000000000000000004ce2bc1982df2dc00",
                    "logDecoded": true,
                    "operation": "EVENT",
                    "revert": false,
                    "status": true,
                    "topics": [
                        "0xddf252ad1be2c89b69c2b068fc378daa952ba7f163c4a11628f55a4df523b3ef",
                        "0x0000000000000000000000008400e79eab84cb2aa100f3ba4fa11f374c707e95",
                        "0x000000000000000000000000e5d2aa5712344bbab1979cc496ba33deb1bcc279"
                    ]
                },
                "nodeType": 1
            }
        },
        "gasFlame": [
            {
                "children": [
                    {
                        "children": [
                            {
                                "children": [],
                                "depth": 0,
                                "name": "Initial Gas",
                                "value": 23320
                            },
                            {
                                "children": [],
                                "depth": 0,
                                "name": "Executed Gas",
                                "value": 14867
                            }
                        ],
                        "depth": -1,
                        "name": "Actual Gas Used",
                        "value": 38187
                    },
                    {
                        "children": [],
                        "depth": -1,
                        "name": "Refunded Gas",
                        "value": 0
                    }
                ],
                "depth": -2,
                "name": "Total Gas",
                "value": 38187
            }
        ],
        "isConfirmed": true,
        "mainTrace": [
            {
                "children": [
                    {
                        "children": [
                            {
                                "children": [],
                                "depth": 1,
                                "id": 1,
                                "order": 1
                            }
                        ],
                        "depth": 0,
                        "id": 0,
                        "order": 0
                    }
                ],
                "depth": -1,
                "id": -1,
                "order": -1
            }
        ],
        "mainTraceNodeCount": 2,
        "parentIdMap": {
            "0": -1,
            "1": 0
        },
        "tidyTrace": [
            {
                "children": [
                    {
                        "children": [
                            {
                                "children": [],
                                "depth": 1,
                                "id": 1,
                                "order": 1
                            }
                        ],
                        "depth": 0,
                        "id": 0,
                        "order": 0
                    }
                ],
                "depth": -1,
                "id": -1,
                "order": -1
            }
        ],
        "tidyTraceNodeCount": 2
    },
    "state_change": {
        "stateChanges": [
            {
                "address": "0x174bfa6600bf90c885c7c01c7031389ed1461ab9",
                "erc": "ERC-20",
                "slots": [
                    {
                        "current": "0x00000000000000000000000000000000000000000000199c650b977266b2e800",
                        "key": "0xc8db9680485eb88fca96ffac233c8e544078afaa3b212821d2398d93cb233d60",
                        "prev": "0x0000000000000000000000000000000000000000000019a13337590a94a5c400"
                    },
                    {
                        "current": "0x0000000000000000000000000000000000000000000000137fd391b75677a000",
                        "key": "0x4f024405d246e424c71649e6b9e4ec0dd3384029f7e05f5a3e9bb95e2c980c41",
                        "prev": "0x00000000000000000000000000000000000000000000000eb1a7d01f2884c400"
                    }
                ],
                "storageVariables": [
                    {
                        "name": "balanceOf",
                        "type": "mapping(address => uint256)",
                        "value": {
                            "pairs": [
                                {
                                    "key": "0x8400e79eab84cb2aa100f3ba4fa11f374c707e95",
                                    "value": {
                                        "current": "120944135226980000000000",
                                        "prev": "121032778383930000000000",
                                        "typeTag": 1
                                    }
                                },
                                {
                                    "key": "0xe5d2aa5712344bbab1979cc496ba33deb1bcc279",
                                    "value": {
                                        "current": "359699003280000000000",
                                        "prev": "271055846330000000000",
                                        "typeTag": 1
                                    }
                                }
                            ],
                            "typeTag": 4
                        }
                    }
                ]
            }
        ]
    }
}