{
    "balance_change": {
        "balanceChanges": [
            {
                "account": "0x86904e32b0d7a8e1ab4dc4a02bae7ff93e9a2d33",
                "assets": [
                    {
                        "address": "0x967da4048cd07ab37855c090aaf366e4ce1b9f48",
                        "amount": "12,260",
                        "iconUrl": "https://assets.blocksec.com/icon/d04f3c1fedb0e68f6cad4aa54211b27acced2b1974dd8e4a30988d3bae166079.png",
                        "isERC1155": false,
                        "isERC721": false,
                        "sign": false,
                        "value": "16160.82484"
                    }
                ]
            },
            {
                "account": "0x3f5ce5fbfe3e9af3971dd833d26ba9b5c936f0be",
                "assets": [
                    {
                        "address": "0x967da4048cd07ab37855c090aaf366e4ce1b9f48",
                        "amount": "12,260",
                        "iconUrl": "https://assets.blocksec.com/icon/d04f3c1fedb0e68f6cad4aa54211b27acced2b1974dd8e4a30988d3bae166079.png",
                        "isERC1155": false,
                        "isERC721": false,
                        "sign": true,
                        "value": "16160.82484"
                    }
                ]
            }
        ]
    },
    "profile": {
        "basic_info": {
            "baseFee": "",
            "blockNumber": 12328887,
            "callData": "0xa9059cbb0000000000000000000000003f5ce5fbfe3e9af3971dd833d26ba9b5c936f0be0000000000000000000000000000000000000000000002989dadb3bc71100000",
            "debugEnable": true,
            "errorInfo": "",
            "eventCount": 1,
            "feeRecipient": "0x1ad91ee08f21be3de0ba2ba6918e714da6b45836",
            "formatValue": "0",
            "gasLimit": 207128,
            "gasPrice": "88",
            "gasUsed": 41698,
            "intTxnCount": 0,
            "internalRevert": false,
            "internalRevertMessage": "",
            "isContractCreation": false,
            "isFlashloan": false,
            "maxFee": "",
            "nonce": 18606,
            "overwritedBlockNumber": -1,
            "priorityFee": "",
            "receiver": "0x967da4048cd07ab37855c090aaf366e4ce1b9f48",
            "revertMessage": "",
            "sender": "0x86904e32b0d7a8e1ab4dc4a02bae7ff93e9a2d33",
            "simulationEnable": true,
            "sourceTxnHash": "0x507fd6aa595479b67307e64c53a0b7f4481d0fe4fbc6e0edf1cd257ae73219d7",
            "status": true,
            "timestamp": "2021-04-28T12:16:57Z",
            "transactionFee": "0.003669424",
            "txnHash": "0x507fd6aa595479b67307e64c53a0b7f4481d0fe4fbc6e0edf1cd257ae73219d7",
            "txnIndex": 164,
            "type": 0,
            "value": "0"
        },
        "fund_flow": [
            {
                "amount": "12,260",
                "from": "0x86904e32b0d7a8e1ab4dc4a02bae7ff93e9a2d33",
                "id": 1,
                "isERC1155": false,
                "isERC721": false,
                "isReverted": false,
                "order": 1,
                "to": "0x3f5ce5fbfe3e9af3971dd833d26ba9b5c936f0be",
                "token": "0x967da4048cd07ab37855c090aaf366e4ce1b9f48"
            }
        ],
        "token_infos": [
            {
                "address": "0xeeeeeeeeeeeeeeeeeeeeeeeeeeeeeeeeeeeeeeee",
                "decimals": 18
            },
            {
                "address": "0x967da4048cd07ab37855c090aaf366e4ce1b9f48",
                "decimals": 18
            },
            {
                "address": "0xc02aaa39b223fe8d0a0e5c4f27ead9083c756cc2",
                "decimals": 18
            }
        ]
    },
    "address_label": {
        "labels": [
            {
                "address": "0x0000000000000000000000000000000000000004",
                "label": "Precompiled"
            },
            {
                "address": "0xeeeeeeeeeeeeeeeeeeeeeeeeeeeeeeeeeeeeeeee",
                "label": "Ether"
            },
            {
                "address": "0x86904e32b0d7a8e1ab4dc4a02bae7ff93e9a2d33",
                "label": "BINANCE"
            },
            {
                "address": "0x3f5ce5fbfe3e9af3971dd833d26ba9b5c936f0be",
                "label": "Binance"
            },
            {
                "address": "0x967da4048cd07ab37855c090aaf366e4ce1b9f48",
                "label": "Ocean Protocol: OCEAN Token"
            },
            {
                "address": "0x0000000000000000000000000000000000000001",
                "label": "Precompiled"
            },
            {
                "address": "0x0000000000000000000000000000000000000002",
                "label": "Precompiled"
            },
            {
                "address": "0x0000000000000000000000000000000000000003",
                "label": "Precompiled"
            }
        ]
    },
    "trace": {
        "accountLabels": null,
        "dataMap": {
            "-1": {
                "invocation": {
                    "address": "0x86904e32b0d7a8e1ab4dc4a02bae7ff93e9a2d33",
                    "callData": "",
                    "decodedMethod": null,
                    "errorInfo": "",
                    "fromAddress": "",
                    "gasUsed": 0,
                    "id": -1,
                    "methodDecoded": false,
                    "operation": "",
                    "output": "",
                    "revert": false,
                    "revertMessage": "",
                    "selector": "",
                    "status": false,
                    "value": ""
                },
                "nodeType": 0
            },
            "0": {
                "invocation": {
                    "address": "0x967da4048cd07ab37855c090aaf366e4ce1b9f48",
                    "callData": "0x0000000000000000000000003f5ce5fbfe3e9af3971dd833d26ba9b5c936f0be0000000000000000000000000000000000000000000002989dadb3bc71100000",
                    "decodedMethod": {
                        "callParams": [
                            {
                                "name": "_to",
                                "type": "address",
                                "value": "0x3f5ce5fbfe3e9af3971dd833d26ba9b5c936f0be"
                            },
                            {
                                "decimalAvailable": true,
                                "name": "_value",
                                "type": "uint256",
                                "value": "12,260,000,000,000,000,000,000"
                            }
                        ],
                        "constructorArguments": "",
                        "name": "transfer",
                        "returnParams": [
                            {
                                "name": "",
                                "type": "bool",
                                "value": true
                            }
                        ],
                        "signature": "transfer(address,uint256)"
                    },
                    "errorInfo": "",
                    "fromAddress": "0x86904e32b0d7a8e1ab4dc4a02bae7ff93e9a2d33",
                    "gasUsed": 41698,
                    "id": 0,
                    "methodDecoded": true,
                    "operation": "CALL",
                    "output": "0x0000000000000000000000000000000000000000000000000000000000000001",
                    "revert": false,
                    "revertMessage": "",
                    "selector": "0xa9059cbb",
                    "status": true,
                    "value": "0"
                },
                "nodeType": 0
            },
            "1": {
                "event": {
                    "contract": "0x967da4048cd07ab37855c090aaf366e4ce1b9f48",
                    "decodedLog": {
                        "name": "Transfer",
                        "params": [
                            {
                                "name": "from",
                                "type": "address",
                                "value": "0x86904e32b0d7a8e1ab4dc4a02bae7ff93e9a2d33"
                            },
                            {
                                "name": "to",
                                "type": "address",
                                "value": "0x3f5ce5fbfe3e9af3971dd833d26ba9b5c936f0be"
                            },
                            {
                                "decimalAvailable": true,
                                "name": "value",
                                "type": "uint256",
                                "value": "12,260,000,000,000,000,000,000"
                            }
                        ],
                        "signature": "Transfer(address,address,uint256)"
                    },
                    "id": 1,
                    "logData": "0x0000000000000000000000000000000000000000000002989dadb3bc71100000",
                    "logDecoded": true,
                    "operation": "EVENT",
                    "revert": false,
                    "status": true,
                    "topics": [
                        "0xddf252ad1be2c89b69c2b068fc378daa952ba7f163c4a11628f55a4df523b3ef",
                        "0x00000000000000000000000086904e32b0d7a8e1ab4dc4a02bae7ff93e9a2d33",
                        "0x0000000000000000000000003f5ce5fbfe3e9af3971dd833d26ba9b5c936f0be"
                    ]
                },
                "nodeType": 1
            }
        },
        "gasFlame": [
            {
                "children": [
                    {
                        "children": [
                            {
                                "children": [],
                                "depth": 0,
                                "name": "Initial Gas",
                                "value": 21656
                            },
                            {
                                "children": [],
                                "depth": 0,
                                "name": "Executed Gas",
                                "value": 20042
                            }
                        ],
                        "depth": -1,
                        "name": "Actual Gas Used",
                        "value": 41698
                    },
                    {
                        "children": [],
                        "depth": -1,
                        "name": "Refunded Gas",
                        "value": 0
                    }
                ],
                "depth": -2,
                "name": "Total Gas",
                "value": 41698
            }
        ],
        "isConfirmed": true,
        "mainTrace": [
            {
                "children": [
                    {
                        "children": [
                            {
                                "children": [],
                                "depth": 1,
                                "id": 1,
                                "order": 1
                            }
                        ],
                        "depth": 0,
                        "id": 0,
                        "order": 0
                    }
                ],
                "depth": -1,
                "id": -1,
                "order": -1
            }
        ],
        "mainTraceNodeCount": 2,
        "parentIdMap": {
            "0": -1,
            "1": 0
        },
        "tidyTrace": [
            {
                "children": [
                    {
                        "children": [
                            {
                                "children": [],
                                "depth": 1,
                                "id": 1,
                                "order": 1
                            }
                        ],
                        "depth": 0,
                        "id": 0,
                        "order": 0
                    }
                ],
                "depth": -1,
                "id": -1,
                "order": -1
            }
        ],
        "tidyTraceNodeCount": 2
    },
    "state_change": {
        "stateChanges": [
            {
                "address": "0x967da4048cd07ab37855c090aaf366e4ce1b9f48",
                "erc": "ERC-20",
                "slots": [
                    {
                        "current": "0x000000000000000000000000000000000000000000001560ba30bac8c1280000",
                        "key": "0x4cd69ac5a93863b6d2dac47297e79356e9e3f420689f8b5242323bc0317b1e50",
                        "prev": "0x0000000000000000000000000000000000000000000017f957de6e8532380000"
                    },
                    {
                        "current": "0x000000000000000000000000000000000000000000066b95f1823c0960f10e4d",
                        "key": "0x70571e0937d308e48dbe6a59e67c45883ee934fe35a8749f1652cd54e334aac8",
                        "prev": "0x0000000000000000000000000000000000000000000668fd53d4884cefe10e4d"
                    }
                ],
                "storageVariables": [
                    {
                        "name": "_balances",
                        "type": "mapping(address => uint256)",
                        "value": {
                            "pairs": [
                                {
                                    "key": "0x3f5ce5fbfe3e9af3971dd833d26ba9b5c936f0be",
                                    "value": {
                                        "current": "7761614098759730901093965",
                                        "prev": "7749354098759730901093965",
                                        "typeTag": 1
                                    }
                                },
                                {
                                    "key": "0x86904e32b0d7a8e1ab4dc4a02bae7ff93e9a2d33",
                                    "value": {
                                        "current": "100954000000000000000000",
                                        "prev": "113214000000000000000000",
                                        "typeTag": 1
                                    }
                                }
                            ],
                            "typeTag": 4
                        }
                    }
                ]
            }
        ]
    }
}