{
    "balance_change": {
        "balanceChanges": [
            {
                "account": "0xe9581fb58eb6fdcbd45fcba793149bab6b0e0c4b",
                "assets": [
                    {
                        "address": "0xeeeeeeeeeeeeeeeeeeeeeeeeeeeeeeeeeeeeeeee",
                        "amount": "3.49",
                        "iconUrl": "https://assets.blocksec.com/image/1663669189317-3.png",
                        "isERC1155": false,
                        "isERC721": false,
                        "sign": false,
                        "value": ""
                    },
                    {
                        "address": "0xeb834ae72b30866af20a6ce5440fa598bfad3a42",
                        "amount": "1",
                        "iconUrl": "",
                        "isERC1155": false,
                        "isERC721": true,
                        "sign": true,
                        "tokenID": "6408",
                        "value": ""
                    }
                ]
            },
            {
                "account": "0x5b3256965e7c3cf26e11fcaf296dfc8807c01073",
                "assets": [
                    {
                        "address": "0xeeeeeeeeeeeeeeeeeeeeeeeeeeeeeeeeeeeeeeee",
                        "amount": "0.32806",
                        "iconUrl": "https://assets.blocksec.com/image/1663669189317-3.png",
                        "isERC1155": false,
                        "isERC721": false,
                        "sign": true,
                        "value": ""
                    }
                ]
            },
            {
                "account": "0x8e1311bee91e4ce25f4f2ea2e998f946e57ff094",
                "assets": [
                    {
                        "address": "0xeeeeeeeeeeeeeeeeeeeeeeeeeeeeeeeeeeeeeeee",
                        "amount": "3.16194",
                        "iconUrl": "https://assets.blocksec.com/image/1663669189317-3.png",
                        "isERC1155": false,
                        "isERC721": false,
                        "sign": true,
                        "value": ""
                    },
                    {
                        "address": "0xeb834ae72b30866af20a6ce5440fa598bfad3a42",
                        "amount": "1",
                        "iconUrl": "",
                        "isERC1155": false,
                        "isERC721": true,
                        "sign": false,
                        "tokenID": "6408",
                        "value": ""
                    }
                ]
            }
        ]
    },
    "profile": {
        "basic_info": {
            "baseFee": "118.503108021",
            "blockNumber": 13659584,
            "callData": "0xab834bab0000000000000000000000007be8076f4ea4a4ad08075c2508e481d6c946d12b000000000000000000000000e9581fb58eb6fdcbd45fcba793149bab6b0e0c4b0000000000000000000000008e1311bee91e4ce25f4f2ea2e998f946e57ff0940000000000000000000000000000000000000000000000000000000000000000000000000000000000000000eb834ae72b30866af20a6ce5440fa598bfad3a42000000000000000000000000000000000000000000000000000000000000000000000000000000000000000000000000000000000000000000000000000000000000000000000000000000007be8076f4ea4a4ad08075c2508e481d6c946d12b0000000000000000000000008e1311bee91e4ce25f4f2ea2e998f946e57ff09400000000000000000000000000000000000000000000000000000000000000000000000000000000000000005b3256965e7c3cf26e11fcaf296dfc8807c01073000000000000000000000000eb834ae72b30866af20a6ce5440fa598bfad3a420000000000000000000000000000000000000000000000000000000000000000000000000000000000000000000000000000000000000000000000000000000000000000000000000000000000000000000000000000000000000000000003ac000000000000000000000000000000000000000000000000000000000000000000000000000000000000000000000000000000000000000000000000000000000000000000000000000000000000000000000000000000000000000000000000000000000000000000000000000000000000000000000000306ef8825a1d0000000000000000000000000000000000000000000000000000000000000000000000000000000000000000000000000000000000000000000000000000619a83c000000000000000000000000000000000000000000000000000000000000000007236bdd1ea13ff69b3c4ad6fb0e5fbf5e1ff236417eb5d167a3f60c02057b2bb00000000000000000000000000000000000000000000000000000000000003ac000000000000000000000000000000000000000000000000000000000000000000000000000000000000000000000000000000000000000000000000000000000000000000000000000000000000000000000000000000000000000000000000000000000000000000000000000000000000000000000000306ef8825a1d0000000000000000000000000000000000000000000000000000000000000000000000000000000000000000000000000000000000000000000000000000619a1ed2000000000000000000000000000000000000000000000000000000006288b0980eda21b0e48ccac37f9e22919e199f81247f74a444e3d8a305537eaed684134e0000000000000000000000000000000000000000000000000000000000000001000000000000000000000000000000000000000000000000000000000000000000000000000000000000000000000000000000000000000000000000000000000000000000000000000000000000000000000000000000000000000000000000000000000000000000000000000000000000000000000000000000000000000100000000000000000000000000000000000000000000000000000000000000010000000000000000000000000000000000000000000000000000000000000000000000000000000000000000000000000000000000000000000000000000000000000000000000000000000000000000000000000000000000000000000006a0000000000000000000000000000000000000000000000000000000000000074000000000000000000000000000000000000000000000000000000000000007e0000000000000000000000000000000000000000000000000000000000000088000000000000000000000000000000000000000000000000000000000000009200000000000000000000000000000000000000000000000000000000000000940000000000000000000000000000000000000000000000000000000000000001b000000000000000000000000000000000000000000000000000000000000001b1294fed5a5f09b14f4fa4e1af36c83f91c22d9d791d2210bb3a51be436fe1da447edd694e470a553575a462d9818cefd3c0a5cc58dcc4d21476a4bcdc703a27d1294fed5a5f09b14f4fa4e1af36c83f91c22d9d791d2210bb3a51be436fe1da447edd694e470a553575a462d9818cefd3c0a5cc58dcc4d21476a4bcdc703a27d0000000000000000000000000000000000000000000000000000000000000000000000000000000000000000000000000000000000000000000000000000006423b872dd0000000000000000000000000000000000000000000000000000000000000000000000000000000000000000e9581fb58eb6fdcbd45fcba793149bab6b0e0c4b000000000000000000000000000000000000000000000000000000000000190800000000000000000000000000000000000000000000000000000000000000000000000000000000000000000000000000000000000000000000006423b872dd0000000000000000000000008e1311bee91e4ce25f4f2ea2e998f946e57ff0940000000000000000000000000000000000000000000000000000000000000000000000000000000000000000000000000000000000000000000000000000190800000000000000000000000000000000000000000000000000000000000000000000000000000000000000000000000000000000000000000000006400000000ffffffffffffffffffffffffffffffffffffffffffffffffffffffffffffffff00000000000000000000000000000000000000000000000000000000000000000000000000000000000000000000000000000000000000000000000000000000000000000000000000000000000000000000000000000000000000000000000000000000000000000000000000000000000000000000000000000064000000000000000000000000000000000000000000000000000000000000000000000000ffffffffffffffffffffffffffffffffffffffffffffffffffffffffffffffff00000000000000000000000000000000000000000000000000000000000000000000000000000000000000000000000000000000000000000000000000000000000000000000000000000000000000000000000000000000000000000000000000000000000000000000000000000000000000000000000000000000",
            "debugEnable": true,
            "errorInfo": "",
            "eventCount": 3,
            "feeRecipient": "0xea674fdde714fd979de3edf0f56aa9716b898ec8",
            "formatValue": "3.49",
            "gasLimit": 300524,
            "gasPrice": "120.003108021",
            "gasUsed": 216631,
            "intTxnCount": 10,
            "internalRevert": false,
            "internalRevertMessage": "",
            "isContractCreation": false,
            "isFlashloan": false,
            "maxFee": "133.911251843",
            "nonce": 178,
            "overwritedBlockNumber": -1,
            "priorityFee": "1.5",
            "receiver": "0x7be8076f4ea4a4ad08075c2508e481d6c946d12b",
            "revertMessage": "",
            "sender": "0xe9581fb58eb6fdcbd45fcba793149bab6b0e0c4b",
            "simulationEnable": true,
            "sourceTxnHash": "0x50ccaab989574b67a3bf5725da1ef903637c790a4eaeab539d05aa388c48cf73",
            "status": true,
            "timestamp": "2021-11-21T17:39:03Z",
            "transactionFee": "0.025996393293697251",
            "txnHash": "0x50ccaab989574b67a3bf5725da1ef903637c790a4eaeab539d05aa388c48cf73",
            "txnIndex": 50,
            "type": 2,
            "value": "3490000000000000000"
        },
        "fund_flow": [
            {
                "amount": "3.49",
                "from": "0xe9581fb58eb6fdcbd45fcba793149bab6b0e0c4b",
                "id": 1,
                "isERC1155": false,
                "isERC721": false,
                "isReverted": false,
                "order": 1,
                "to": "0x7be8076f4ea4a4ad08075c2508e481d6c946d12b",
                "token": "0xeeeeeeeeeeeeeeeeeeeeeeeeeeeeeeeeeeeeeeee"
            },
            {
                "amount": "0.32806",
                "from": "0x7be8076f4ea4a4ad08075c2508e481d6c946d12b",
                "id": 2,
                "isERC1155": false,
                "isERC721": false,
                "isReverted": false,
                "order": 2,
                "to": "0x5b3256965e7c3cf26e11fcaf296dfc8807c01073",
                "token": "0xeeeeeeeeeeeeeeeeeeeeeeeeeeeeeeeeeeeeeeee"
            },
            {
                "amount": "3.16194",
                "from": "0x7be8076f4ea4a4ad08075c2508e481d6c946d12b",
                "id": 3,
                "isERC1155": false,
                "isERC721": false,
                "isReverted": false,
                "order": 3,
                "to": "0x8e1311bee91e4ce25f4f2ea2e998f946e57ff094",
                "token": "0xeeeeeeeeeeeeeeeeeeeeeeeeeeeeeeeeeeeeeeee"
            },
            {
                "amount": "1",
                "from": "0x8e1311bee91e4ce25f4f2ea2e998f946e57ff094",
                "id": 4,
                "isERC1155": false,
                "isERC721": true,
                "isReverted": false,
                "order": 4,
                "to": "0xe9581fb58eb6fdcbd45fcba793149bab6b0e0c4b",
                "token": "0xeb834ae72b30866af20a6ce5440fa598bfad3a42",
                "tokenID": "6408"
            }
        ],
        "token_infos": [
            {
                "address": "0xc02aaa39b223fe8d0a0e5c4f27ead9083c756cc2",
                "decimals": 18
            },
            {
                "address": "0xeeeeeeeeeeeeeeeeeeeeeeeeeeeeeeeeeeeeeeee",
                "decimals": 18
            }
        ]
    },
    "address_label": {
        "labels": [
            {
                "address": "0xa5409ec958c83c3f309868babaca7c86dcb077c1",
                "label": "OpenSea: Registry"
            },
            {
                "address": "0xeb834ae72b30866af20a6ce5440fa598bfad3a42",
                "label": "Wolf Game: WGAME Token"
            },
            {
                "address": "0xf9e266af4bca5890e2781812cc6a6e89495a79f2",
                "label": "AuthenticatedProxy"
            },
            {
                "address": "0x0000000000000000000000000000000000000000",
                "label": "Null Address"
            },
            {
                "address": "0x0000000000000000000000000000000000000004",
                "label": "Precompiled"
            },
            {
                "address": "0xeeeeeeeeeeeeeeeeeeeeeeeeeeeeeeeeeeeeeeee",
                "label": "Ether"
            },
            {
                "address": "0x5b3256965e7c3cf26e11fcaf296dfc8807c01073",
                "label": "OpenSea: Wallet"
            },
            {
                "address": "0x7be8076f4ea4a4ad08075c2508e481d6c946d12b",
                "label": "OpenSea: Wyvern Exchange v1"
            },
            {
                "address": "0x9851cf23df4269379c8d164f970278a55c1d67d5",
                "label": "OwnableDelegateProxy"
            },
            {
                "address": "0x0000000000000000000000000000000000000001",
                "label": "Precompiled"
            },
            {
                "address": "0x0000000000000000000000000000000000000002",
                "label": "Precompiled"
            },
            {
                "address": "0x0000000000000000000000000000000000000003",
                "label": "Precompiled"
            }
        ]
    },
    "trace": {
        "accountLabels": null,
        "dataMap": {
            "-1": {
                "invocation": {
                    "address": "0xe9581fb58eb6fdcbd45fcba793149bab6b0e0c4b",
                    "callData": "",
                    "decodedMethod": null,
                    "errorInfo": "",
                    "fromAddress": "",
                    "gasUsed": 0,
                    "id": -1,
                    "methodDecoded": false,
                    "operation": "",
                    "output": "",
                    "revert": false,
                    "revertMessage": "",
                    "selector": "",
                    "status": false,
                    "value": ""
                },
                "nodeType": 0
            },
            "0": {
                "invocation": {
                    "address": "0x7be8076f4ea4a4ad08075c2508e481d6c946d12b",
                    "callData": "0x0000000000000000000000007be8076f4ea4a4ad08075c2508e481d6c946d12b000000000000000000000000e9581fb58eb6fdcbd45fcba793149bab6b0e0c4b0000000000000000000000008e1311bee91e4ce25f4f2ea2e998f946e57ff0940000000000000000000000000000000000000000000000000000000000000000000000000000000000000000eb834ae72b30866af20a6ce5440fa598bfad3a42000000000000000000000000000000000000000000000000000000000000000000000000000000000000000000000000000000000000000000000000000000000000000000000000000000007be8076f4ea4a4ad08075c2508e481d6c946d12b0000000000000000000000008e1311bee91e4ce25f4f2ea2e998f946e57ff09400000000000000000000000000000000000000000000000000000000000000000000000000000000000000005b3256965e7c3cf26e11fcaf296dfc8807c01073000000000000000000000000eb834ae72b30866af20a6ce5440fa598bfad3a420000000000000000000000000000000000000000000000000000000000000000000000000000000000000000000000000000000000000000000000000000000000000000000000000000000000000000000000000000000000000000000003ac000000000000000000000000000000000000000000000000000000000000000000000000000000000000000000000000000000000000000000000000000000000000000000000000000000000000000000000000000000000000000000000000000000000000000000000000000000000000000000000000306ef8825a1d0000000000000000000000000000000000000000000000000000000000000000000000000000000000000000000000000000000000000000000000000000619a83c000000000000000000000000000000000000000000000000000000000000000007236bdd1ea13ff69b3c4ad6fb0e5fbf5e1ff236417eb5d167a3f60c02057b2bb00000000000000000000000000000000000000000000000000000000000003ac000000000000000000000000000000000000000000000000000000000000000000000000000000000000000000000000000000000000000000000000000000000000000000000000000000000000000000000000000000000000000000000000000000000000000000000000000000000000000000000000306ef8825a1d0000000000000000000000000000000000000000000000000000000000000000000000000000000000000000000000000000000000000000000000000000619a1ed2000000000000000000000000000000000000000000000000000000006288b0980eda21b0e48ccac37f9e22919e199f81247f74a444e3d8a305537eaed684134e0000000000000000000000000000000000000000000000000000000000000001000000000000000000000000000000000000000000000000000000000000000000000000000000000000000000000000000000000000000000000000000000000000000000000000000000000000000000000000000000000000000000000000000000000000000000000000000000000000000000000000000000000000000100000000000000000000000000000000000000000000000000000000000000010000000000000000000000000000000000000000000000000000000000000000000000000000000000000000000000000000000000000000000000000000000000000000000000000000000000000000000000000000000000000000000006a0000000000000000000000000000000000000000000000000000000000000074000000000000000000000000000000000000000000000000000000000000007e0000000000000000000000000000000000000000000000000000000000000088000000000000000000000000000000000000000000000000000000000000009200000000000000000000000000000000000000000000000000000000000000940000000000000000000000000000000000000000000000000000000000000001b000000000000000000000000000000000000000000000000000000000000001b1294fed5a5f09b14f4fa4e1af36c83f91c22d9d791d2210bb3a51be436fe1da447edd694e470a553575a462d9818cefd3c0a5cc58dcc4d21476a4bcdc703a27d1294fed5a5f09b14f4fa4e1af36c83f91c22d9d791d2210bb3a51be436fe1da447edd694e470a553575a462d9818cefd3c0a5cc58dcc4d21476a4bcdc703a27d0000000000000000000000000000000000000000000000000000000000000000000000000000000000000000000000000000000000000000000000000000006423b872dd0000000000000000000000000000000000000000000000000000000000000000000000000000000000000000e9581fb58eb6fdcbd45fcba793149bab6b0e0c4b000000000000000000000000000000000000000000000000000000000000190800000000000000000000000000000000000000000000000000000000000000000000000000000000000000000000000000000000000000000000006423b872dd0000000000000000000000008e1311bee91e4ce25f4f2ea2e998f946e57ff0940000000000000000000000000000000000000000000000000000000000000000000000000000000000000000000000000000000000000000000000000000190800000000000000000000000000000000000000000000000000000000000000000000000000000000000000000000000000000000000000000000006400000000ffffffffffffffffffffffffffffffffffffffffffffffffffffffffffffffff00000000000000000000000000000000000000000000000000000000000000000000000000000000000000000000000000000000000000000000000000000000000000000000000000000000000000000000000000000000000000000000000000000000000000000000000000000000000000000000000000000064000000000000000000000000000000000000000000000000000000000000000000000000ffffffffffffffffffffffffffffffffffffffffffffffffffffffffffffffff00000000000000000000000000000000000000000000000000000000000000000000000000000000000000000000000000000000000000000000000000000000000000000000000000000000000000000000000000000000000000000000000000000000000000000000000000000000000000000000000000000000",
                    "decodedMethod": {
                        "callParams": [
                            {
                                "name": "addrs",
                                "type": "address[14]",
                                "value": [
                                    "0x7be8076f4ea4a4ad08075c2508e481d6c946d12b",
                                    "0xe9581fb58eb6fdcbd45fcba793149bab6b0e0c4b",
                                    "0x8e1311bee91e4ce25f4f2ea2e998f946e57ff094",
                                    "0x0000000000000000000000000000000000000000",
                                    "0xeb834ae72b30866af20a6ce5440fa598bfad3a42",
                                    "0x0000000000000000000000000000000000000000",
                                    "0x0000000000000000000000000000000000000000",
                                    "0x7be8076f4ea4a4ad08075c2508e481d6c946d12b",
                                    "0x8e1311bee91e4ce25f4f2ea2e998f946e57ff094",
                                    "0x0000000000000000000000000000000000000000",
                                    "0x5b3256965e7c3cf26e11fcaf296dfc8807c01073",
                                    "0xeb834ae72b30866af20a6ce5440fa598bfad3a42",
                                    "0x0000000000000000000000000000000000000000",
                                    "0x0000000000000000000000000000000000000000"
                                ]
                            },
                            {
                                "name": "uints",
                                "type": "uint256[18]",
                                "value": [
                                    "940",
                                    "0",
                                    "0",
                                    "0",
                                    "3,490,000,000,000,000,000",
                                    "0",
                                    "1,637,516,224",
                                    "0",
                                    "51,660,384,569,330,100,709,190,525,444,756,992,974,145,433,288,622,337,720,006,458,290,437,061,325,499",
                                    "940",
                                    "0",
                                    "0",
                                    "0",
                                    "3,490,000,000,000,000,000",
                                    "0",
                                    "1,637,490,386",
                                    "1,653,125,272",
                                    "6,717,785,066,936,595,716,779,523,067,437,946,821,097,884,908,258,561,396,909,796,877,230,405,849,934"
                                ]
                            },
                            {
                                "name": "feeMethodsSidesKindsHowToCalls",
                                "type": "uint8[8]",
                                "value": [
                                    "1",
                                    "0",
                                    "0",
                                    "0",
                                    "1",
                                    "1",
                                    "0",
                                    "0"
                                ]
                            },
                            {
                                "name": "calldataBuy",
                                "type": "bytes",
                                "value": "0x23b872dd0000000000000000000000000000000000000000000000000000000000000000000000000000000000000000e9581fb58eb6fdcbd45fcba793149bab6b0e0c4b0000000000000000000000000000000000000000000000000000000000001908"
                            },
                            {
                                "name": "calldataSell",
                                "type": "bytes",
                                "value": "0x23b872dd0000000000000000000000008e1311bee91e4ce25f4f2ea2e998f946e57ff09400000000000000000000000000000000000000000000000000000000000000000000000000000000000000000000000000000000000000000000000000001908"
                            },
                            {
                                "name": "replacementPatternBuy",
                                "type": "bytes",
                                "value": "0x00000000ffffffffffffffffffffffffffffffffffffffffffffffffffffffffffffffff00000000000000000000000000000000000000000000000000000000000000000000000000000000000000000000000000000000000000000000000000000000"
                            },
                            {
                                "name": "replacementPatternSell",
                                "type": "bytes",
                                "value": "0x000000000000000000000000000000000000000000000000000000000000000000000000ffffffffffffffffffffffffffffffffffffffffffffffffffffffffffffffff0000000000000000000000000000000000000000000000000000000000000000"
                            },
                            {
                                "name": "staticExtradataBuy",
                                "type": "bytes",
                                "value": "0x"
                            },
                            {
                                "name": "staticExtradataSell",
                                "type": "bytes",
                                "value": "0x"
                            },
                            {
                                "name": "vs",
                                "type": "uint8[2]",
                                "value": [
                                    "27",
                                    "27"
                                ]
                            },
                            {
                                "name": "rssMetadata",
                                "type": "bytes32[5]",
                                "value": [
                                    "0x1294fed5a5f09b14f4fa4e1af36c83f91c22d9d791d2210bb3a51be436fe1da4",
                                    "0x47edd694e470a553575a462d9818cefd3c0a5cc58dcc4d21476a4bcdc703a27d",
                                    "0x1294fed5a5f09b14f4fa4e1af36c83f91c22d9d791d2210bb3a51be436fe1da4",
                                    "0x47edd694e470a553575a462d9818cefd3c0a5cc58dcc4d21476a4bcdc703a27d",
                                    "0x0000000000000000000000000000000000000000000000000000000000000000"
                                ]
                            }
                        ],
                        "constructorArguments": "",
                        "name": "atomicMatch_",
                        "returnParams": [],
                        "signature": "atomicMatch_(address[14],uint256[18],uint8[8],bytes,bytes,bytes,bytes,bytes,bytes,uint8[2],bytes32[5])"
                    },
                    "errorInfo": "",
                    "fromAddress": "0xe9581fb58eb6fdcbd45fcba793149bab6b0e0c4b",
                    "gasUsed": 216631,
                    "id": 0,
                    "methodDecoded": true,
                    "operation": "CALL",
                    "output": "",
                    "revert": false,
                    "revertMessage": "",
                    "selector": "0xab834bab",
                    "status": true,
                    "value": "3.49"
                },
                "nodeType": 0
            },
            "1": {
                "invocation": {
                    "address": "0x0000000000000000000000000000000000000001",
                    "callData": "0xf1adebada1aa8409ebfa79f92f81b3a362639ec8539c62ff0f0ab323000000000000000000000000000000000000000000000000000000000000001b1294fed5a5f09b14f4fa4e1af36c83f91c22d9d791d2210bb3a51be436fe1da447edd694e470a553575a462d9818cefd3c0a5cc58dcc4d21476a4bcdc703a27d",
                    "decodedMethod": {
                        "callParams": [
                            {
                                "name": "hash",
                                "type": "bytes32",
                                "value": "0x6cf690c4f1adebada1aa8409ebfa79f92f81b3a362639ec8539c62ff0f0ab323"
                            },
                            {
                                "name": "v",
                                "type": "uint256",
                                "value": "27"
                            },
                            {
                                "name": "r",
                                "type": "bytes32",
                                "value": "0x1294fed5a5f09b14f4fa4e1af36c83f91c22d9d791d2210bb3a51be436fe1da4"
                            },
                            {
                                "name": "s",
                                "type": "bytes32",
                                "value": "0x47edd694e470a553575a462d9818cefd3c0a5cc58dcc4d21476a4bcdc703a27d"
                            }
                        ],
                        "constructorArguments": "",
                        "name": "ecrecover",
                        "returnParams": [
                            {
                                "name": "",
                                "type": "address",
                                "value": "0x8e1311bee91e4ce25f4f2ea2e998f946e57ff094"
                            }
                        ],
                        "signature": "ecrecover(bytes32,uint256,bytes32,bytes32)"
                    },
                    "errorInfo": "",
                    "fromAddress": "0x7be8076f4ea4a4ad08075c2508e481d6c946d12b",
                    "gasUsed": 3000,
                    "id": 1,
                    "methodDecoded": true,
                    "operation": "CALL",
                    "output": "0x0000000000000000000000008e1311bee91e4ce25f4f2ea2e998f946e57ff094",
                    "revert": false,
                    "revertMessage": "",
                    "selector": "0x6cf690c4",
                    "status": true,
                    "value": "0"
                },
                "nodeType": 0
            },
            "10": {
                "invocation": {
                    "address": "0xeb834ae72b30866af20a6ce5440fa598bfad3a42",
                    "callData": "0x0000000000000000000000008e1311bee91e4ce25f4f2ea2e998f946e57ff094000000000000000000000000e9581fb58eb6fdcbd45fcba793149bab6b0e0c4b000000000000000000000000000000000000000000000000000000000000190800000000000000000000000000000000000000000000000000000000",
                    "decodedMethod": {
                        "callParams": [
                            {
                                "name": "from",
                                "type": "address",
                                "value": "0x8e1311bee91e4ce25f4f2ea2e998f946e57ff094"
                            },
                            {
                                "name": "to",
                                "type": "address",
                                "value": "0xe9581fb58eb6fdcbd45fcba793149bab6b0e0c4b"
                            },
                            {
                                "decimalAvailable": true,
                                "name": "tokenId",
                                "type": "uint256",
                                "value": "6,408"
                            }
                        ],
                        "constructorArguments": "",
                        "name": "transferFrom",
                        "returnParams": [],
                        "signature": "transferFrom(address,address,uint256)"
                    },
                    "errorInfo": "",
                    "fromAddress": "0x9851cf23df4269379c8d164f970278a55c1d67d5",
                    "gasUsed": 76284,
                    "id": 10,
                    "methodDecoded": true,
                    "operation": "CALL",
                    "output": "",
                    "revert": false,
                    "revertMessage": "",
                    "selector": "0x23b872dd",
                    "status": true,
                    "value": "0"
                },
                "nodeType": 0
            },
            "11": {
                "event": {
                    "contract": "0xeb834ae72b30866af20a6ce5440fa598bfad3a42",
                    "decodedLog": {
                        "name": "Approval",
                        "params": [
                            {
                                "name": "owner",
                                "type": "address",
                                "value": "0x8e1311bee91e4ce25f4f2ea2e998f946e57ff094"
                            },
                            {
                                "name": "approved",
                                "type": "address",
                                "value": "0x0000000000000000000000000000000000000000"
                            },
                            {
                                "decimalAvailable": true,
                                "name": "tokenId",
                                "type": "uint256",
                                "value": "6,408"
                            }
                        ],
                        "signature": "Approval(address,address,uint256)"
                    },
                    "id": 11,
                    "logData": "0x",
                    "logDecoded": true,
                    "operation": "EVENT",
                    "revert": false,
                    "status": true,
                    "topics": [
                        "0x8c5be1e5ebec7d5bd14f71427d1e84f3dd0314c0f7b2291e5b200ac8c7c3b925",
                        "0x0000000000000000000000008e1311bee91e4ce25f4f2ea2e998f946e57ff094",
                        "0x0000000000000000000000000000000000000000000000000000000000000000",
                        "0x0000000000000000000000000000000000000000000000000000000000001908"
                    ]
                },
                "nodeType": 1
            },
            "12": {
                "event": {
                    "contract": "0xeb834ae72b30866af20a6ce5440fa598bfad3a42",
                    "decodedLog": {
                        "name": "Transfer",
                        "params": [
                            {
                                "name": "from",
                                "type": "address",
                                "value": "0x8e1311bee91e4ce25f4f2ea2e998f946e57ff094"
                            },
                            {
                                "name": "to",
                                "type": "address",
                                "value": "0xe9581fb58eb6fdcbd45fcba793149bab6b0e0c4b"
                            },
                            {
                                "decimalAvailable": true,
                                "name": "tokenId",
                                "type": "uint256",
                                "value": "6,408"
                            }
                        ],
                        "signature": "Transfer(address,address,uint256)"
                    },
                    "id": 12,
                    "logData": "0x",
                    "logDecoded": true,
                    "operation": "EVENT",
                    "revert": false,
                    "status": true,
                    "topics": [
                        "0xddf252ad1be2c89b69c2b068fc378daa952ba7f163c4a11628f55a4df523b3ef",
                        "0x0000000000000000000000008e1311bee91e4ce25f4f2ea2e998f946e57ff094",
                        "0x000000000000000000000000e9581fb58eb6fdcbd45fcba793149bab6b0e0c4b",
                        "0x0000000000000000000000000000000000000000000000000000000000001908"
                    ]
                },
                "nodeType": 1
            },
            "13": {
                "event": {
                    "contract": "0x7be8076f4ea4a4ad08075c2508e481d6c946d12b",
                    "decodedLog": {
                        "name": "OrdersMatched",
                        "params": [
                            {
                                "name": "maker",
                                "type": "address",
                                "value": "0x8e1311bee91e4ce25f4f2ea2e998f946e57ff094"
                            },
                            {
                                "name": "taker",
                                "type": "address",
                                "value": "0xe9581fb58eb6fdcbd45fcba793149bab6b0e0c4b"
                            },
                            {
                                "name": "metadata",
                                "type": "bytes32",
                                "value": "0x0000000000000000000000000000000000000000000000000000000000000000"
                            },
                            {
                                "name": "buyHash",
                                "type": "bytes32",
                                "value": "0x0000000000000000000000000000000000000000000000000000000000000000"
                            },
                            {
                                "name": "sellHash",
                                "type": "bytes32",
                                "value": "0x6cf690c4f1adebada1aa8409ebfa79f92f81b3a362639ec8539c62ff0f0ab323"
                            },
                            {
                                "name": "price",
                                "type": "uint256",
                                "value": "3,490,000,000,000,000,000"
                            }
                        ],
                        "signature": "OrdersMatched(bytes32,bytes32,address,address,uint256,bytes32)"
                    },
                    "id": 13,
                    "logData": "0x00000000000000000000000000000000000000000000000000000000000000006cf690c4f1adebada1aa8409ebfa79f92f81b3a362639ec8539c62ff0f0ab323000000000000000000000000000000000000000000000000306ef8825a1d0000",
                    "logDecoded": true,
                    "operation": "EVENT",
                    "revert": false,
                    "status": true,
                    "topics": [
                        "0xc4109843e0b7d514e4c093114b863f8e7d8d9a458c372cd51bfe526b588006c9",
                        "0x0000000000000000000000008e1311bee91e4ce25f4f2ea2e998f946e57ff094",
                        "0x000000000000000000000000e9581fb58eb6fdcbd45fcba793149bab6b0e0c4b",
                        "0x0000000000000000000000000000000000000000000000000000000000000000"
                    ]
                },
                "nodeType": 1
            },
            "2": {
                "invocation": {
                    "address": "0xa5409ec958c83c3f309868babaca7c86dcb077c1",
                    "callData": "0x0000000000000000000000008e1311bee91e4ce25f4f2ea2e998f946e57ff094",
                    "decodedMethod": {
                        "callParams": [
                            {
                                "name": "",
                                "type": "address",
                                "value": "0x8e1311bee91e4ce25f4f2ea2e998f946e57ff094"
                            }
                        ],
                        "constructorArguments": "",
                        "name": "proxies",
                        "returnParams": [
                            {
                                "name": "",
                                "type": "address",
                                "value": "0x9851cf23df4269379c8d164f970278a55c1d67d5"
                            }
                        ],
                        "signature": "proxies(address)"
                    },
                    "errorInfo": "",
                    "fromAddress": "0x7be8076f4ea4a4ad08075c2508e481d6c946d12b",
                    "gasUsed": 2782,
                    "id": 2,
                    "methodDecoded": true,
                    "operation": "CALL",
                    "output": "0x0000000000000000000000009851cf23df4269379c8d164f970278a55c1d67d5",
                    "revert": false,
                    "revertMessage": "",
                    "selector": "0xc4552791",
                    "status": true,
                    "value": "0"
                },
                "nodeType": 0
            },
            "3": {
                "invocation": {
                    "address": "0xa5409ec958c83c3f309868babaca7c86dcb077c1",
                    "callData": "0x",
                    "decodedMethod": {
                        "callParams": [],
                        "constructorArguments": "",
                        "name": "delegateProxyImplementation",
                        "returnParams": [
                            {
                                "name": "",
                                "type": "address",
                                "value": "0xf9e266af4bca5890e2781812cc6a6e89495a79f2"
                            }
                        ],
                        "signature": "delegateProxyImplementation()"
                    },
                    "errorInfo": "",
                    "fromAddress": "0x7be8076f4ea4a4ad08075c2508e481d6c946d12b",
                    "gasUsed": 2613,
                    "id": 3,
                    "methodDecoded": true,
                    "operation": "CALL",
                    "output": "0x000000000000000000000000f9e266af4bca5890e2781812cc6a6e89495a79f2",
                    "revert": false,
                    "revertMessage": "",
                    "selector": "0x97204d8e",
                    "status": true,
                    "value": "0"
                },
                "nodeType": 0
            },
            "4": {
                "invocation": {
                    "address": "0x9851cf23df4269379c8d164f970278a55c1d67d5",
                    "callData": "0x",
                    "decodedMethod": {
                        "callParams": [],
                        "constructorArguments": "",
                        "name": "implementation",
                        "returnParams": [
                            {
                                "name": "",
                                "type": "address",
                                "value": "0xf9e266af4bca5890e2781812cc6a6e89495a79f2"
                            }
                        ],
                        "signature": "implementation()"
                    },
                    "errorInfo": "",
                    "fromAddress": "0x7be8076f4ea4a4ad08075c2508e481d6c946d12b",
                    "gasUsed": 2525,
                    "id": 4,
                    "methodDecoded": true,
                    "operation": "CALL",
                    "output": "0x000000000000000000000000f9e266af4bca5890e2781812cc6a6e89495a79f2",
                    "revert": false,
                    "revertMessage": "",
                    "selector": "0x5c60da1b",
                    "status": true,
                    "value": "0"
                },
                "nodeType": 0
            },
            "5": {
                "invocation": {
                    "address": "0x5b3256965e7c3cf26e11fcaf296dfc8807c01073",
                    "callData": "0x",
                    "decodedMethod": null,
                    "errorInfo": "",
                    "fromAddress": "0x7be8076f4ea4a4ad08075c2508e481d6c946d12b",
                    "gasUsed": 0,
                    "id": 5,
                    "methodDecoded": false,
                    "operation": "CALL",
                    "output": "",
                    "revert": false,
                    "revertMessage": "",
                    "selector": "fallback",
                    "status": true,
                    "value": "0.32806"
                },
                "nodeType": 0
            },
            "6": {
                "invocation": {
                    "address": "0x8e1311bee91e4ce25f4f2ea2e998f946e57ff094",
                    "callData": "0x",
                    "decodedMethod": null,
                    "errorInfo": "",
                    "fromAddress": "0x7be8076f4ea4a4ad08075c2508e481d6c946d12b",
                    "gasUsed": 0,
                    "id": 6,
                    "methodDecoded": false,
                    "operation": "CALL",
                    "output": "",
                    "revert": false,
                    "revertMessage": "",
                    "selector": "fallback",
                    "status": true,
                    "value": "3.16194"
                },
                "nodeType": 0
            },
            "7": {
                "invocation": {
                    "address": "0x9851cf23df4269379c8d164f970278a55c1d67d5",
                    "callData": "0x000000000000000000000000eb834ae72b30866af20a6ce5440fa598bfad3a4200000000000000000000000000000000000000000000000000000000000000000000000000000000000000000000000000000000000000000000000000000060000000000000000000000000000000000000000000000000000000000000006423b872dd0000000000000000000000008e1311bee91e4ce25f4f2ea2e998f946e57ff094000000000000000000000000e9581fb58eb6fdcbd45fcba793149bab6b0e0c4b000000000000000000000000000000000000000000000000000000000000190800000000000000000000000000000000000000000000000000000000",
                    "decodedMethod": {
                        "callParams": [
                            {
                                "name": "dest",
                                "type": "address",
                                "value": "0xeb834ae72b30866af20a6ce5440fa598bfad3a42"
                            },
                            {
                                "name": "howToCall",
                                "type": "uint8",
                                "value": "0"
                            },
                            {
                                "name": "calldata",
                                "type": "bytes",
                                "value": "0x23b872dd0000000000000000000000008e1311bee91e4ce25f4f2ea2e998f946e57ff094000000000000000000000000e9581fb58eb6fdcbd45fcba793149bab6b0e0c4b0000000000000000000000000000000000000000000000000000000000001908"
                            }
                        ],
                        "constructorArguments": "",
                        "name": "proxy",
                        "returnParams": [
                            {
                                "name": "result",
                                "type": "bool",
                                "value": true
                            }
                        ],
                        "signature": "proxy(address,uint8,bytes)"
                    },
                    "errorInfo": "",
                    "fromAddress": "0x7be8076f4ea4a4ad08075c2508e481d6c946d12b",
                    "gasUsed": 88441,
                    "id": 7,
                    "methodDecoded": true,
                    "operation": "CALL",
                    "output": "0x0000000000000000000000000000000000000000000000000000000000000001",
                    "revert": false,
                    "revertMessage": "",
                    "selector": "0x1b0f7ba9",
                    "status": true,
                    "value": "0"
                },
                "nodeType": 0
            },
            "8": {
                "invocation": {
                    "address": "0xf9e266af4bca5890e2781812cc6a6e89495a79f2",
                    "callData": "0x000000000000000000000000eb834ae72b30866af20a6ce5440fa598bfad3a4200000000000000000000000000000000000000000000000000000000000000000000000000000000000000000000000000000000000000000000000000000060000000000000000000000000000000000000000000000000000000000000006423b872dd0000000000000000000000008e1311bee91e4ce25f4f2ea2e998f946e57ff094000000000000000000000000e9581fb58eb6fdcbd45fcba793149bab6b0e0c4b000000000000000000000000000000000000000000000000000000000000190800000000000000000000000000000000000000000000000000000000",
                    "decodedMethod": {
                        "callParams": [
                            {
                                "name": "dest",
                                "type": "address",
                                "value": "0xeb834ae72b30866af20a6ce5440fa598bfad3a42"
                            },
                            {
                                "name": "howToCall",
                                "type": "uint8",
                                "value": "0"
                            },
                            {
                                "name": "calldata",
                                "type": "bytes",
                                "value": "0x23b872dd0000000000000000000000008e1311bee91e4ce25f4f2ea2e998f946e57ff094000000000000000000000000e9581fb58eb6fdcbd45fcba793149bab6b0e0c4b0000000000000000000000000000000000000000000000000000000000001908"
                            }
                        ],
                        "constructorArguments": "",
                        "name": "proxy",
                        "returnParams": [
                            {
                                "name": "result",
                                "type": "bool",
                                "value": true
                            }
                        ],
                        "signature": "proxy(address,uint8,bytes)"
                    },
                    "errorInfo": "",
                    "fromAddress": "0x9851cf23df4269379c8d164f970278a55c1d67d5",
                    "gasUsed": 85181,
                    "id": 8,
                    "methodDecoded": true,
                    "operation": "DELEGATECALL",
                    "output": "0x0000000000000000000000000000000000000000000000000000000000000001",
                    "revert": false,
                    "revertMessage": "",
                    "selector": "0x1b0f7ba9",
                    "status": true,
                    "value": "0"
                },
                "nodeType": 0
            },
            "9": {
                "invocation": {
                    "address": "0xa5409ec958c83c3f309868babaca7c86dcb077c1",
                    "callData": "0x0000000000000000000000007be8076f4ea4a4ad08075c2508e481d6c946d12b",
                    "decodedMethod": {
                        "callParams": [
                            {
                                "name": "",
                                "type": "address",
                                "value": "0x7be8076f4ea4a4ad08075c2508e481d6c946d12b"
                            }
                        ],
                        "constructorArguments": "",
                        "name": "contracts",
                        "returnParams": [
                            {
                                "name": "",
                                "type": "bool",
                                "value": true
                            }
                        ],
                        "signature": "contracts(address)"
                    },
                    "errorInfo": "",
                    "fromAddress": "0x9851cf23df4269379c8d164f970278a55c1d67d5",
                    "gasUsed": 2553,
                    "id": 9,
                    "methodDecoded": true,
                    "operation": "CALL",
                    "output": "0x0000000000000000000000000000000000000000000000000000000000000001",
                    "revert": false,
                    "revertMessage": "",
                    "selector": "0x69dc9ff3",
                    "status": true,
                    "value": "0"
                },
                "nodeType": 0
            }
        },
        "gasFlame": [
            {
                "children": [
                    {
                        "children": [
                            {
                                "children": [],
                                "depth": 0,
                                "name": "Initial Gas",
                                "value": 36868
                            },
                            {
                                "children": [
                                    {
                                        "children": [],
                                        "depth": 1,
                                        "name": "ecrecover",
                                        "value": 3000
                                    },
                                    {
                                        "children": [],
                                        "depth": 1,
                                        "name": "proxies",
                                        "value": 2782
                                    },
                                    {
                                        "children": [],
                                        "depth": 1,
                                        "name": "delegateProxyImplementation",
                                        "value": 2613
                                    },
                                    {
                                        "children": [],
                                        "depth": 1,
                                        "name": "implementation",
                                        "value": 2525
                                    },
                                    {
                                        "children": [],
                                        "depth": 1,
                                        "name": "fallback",
                                        "value": 0
                                    },
                                    {
                                        "children": [],
                                        "depth": 1,
                                        "name": "fallback",
                                        "value": 0
                                    },
                                    {
                                        "children": [
                                            {
                                                "children": [
                                                    {
                                                        "children": [],
                                                        "depth": 3,
                                                        "name": "contracts",
                                                        "value": 2553
                                                    },
                                                    {
                                                        "children": [],
                                                        "depth": 3,
                                                        "name": "transferFrom",
                                                        "value": 76284
                                                    }
                                                ],
                                                "depth": 2,
                                                "name": "proxy",
                                                "value": 85181
                                            }
                                        ],
                                        "depth": 1,
                                        "name": "proxy",
                                        "value": 88441
                                    }
                                ],
                                "depth": 0,
                                "name": "Executed Gas",
                                "value": 192163
                            }
                        ],
                        "depth": -1,
                        "name": "Actual Gas Used",
                        "value": 216631
                    },
                    {
                        "children": [],
                        "depth": -1,
                        "name": "Refunded Gas",
                        "value": 12400
                    }
                ],
                "depth": -2,
                "name": "Total Gas",
                "value": 229031
            }
        ],
        "isConfirmed": true,
        "mainTrace": [
            {
                "children": [
                    {
                        "children": [
                            {
                                "children": [],
                                "depth": 1,
                                "id": 1,
                                "order": 1
                            },
                            {
                                "children": [],
                                "depth": 1,
                                "id": 2,
                                "order": 2
                            },
                            {
                                "children": [],
                                "depth": 1,
                                "id": 3,
                                "order": 3
                            },
                            {
                                "children": [],
                                "depth": 1,
                                "id": 4,
                                "order": 4
                            },
                            {
                                "children": [],
                                "depth": 1,
                                "id": 5,
                                "order": 5
                            },
                            {
                                "children": [],
                                "depth": 1,
                                "id": 6,
                                "order": 6
                            },
                            {
                                "children": [
                                    {
                                        "children": [
                                            {
                                                "children": [],
                                                "depth": 3,
                                                "id": 9,
                                                "order": 9
                                            },
                                            {
                                                "children": [
                                                    {
                                                        "children": [],
                                                        "depth": 4,
                                                        "id": 11,
                                                        "order": 11
                                                    },
                                                    {
                                                        "children": [],
                                                        "depth": 4,
                                                        "id": 12,
                                                        "order": 12
                                                    }
                                                ],
                                                "depth": 3,
                                                "id": 10,
                                                "order": 10
                                            }
                                        ],
                                        "depth": 2,
                                        "id": 8,
                                        "order": 8
                                    }
                                ],
                                "depth": 1,
                                "id": 7,
                                "order": 7
                            },
                            {
                                "children": [],
                                "depth": 1,
                                "id": 13,
                                "order": 13
                            }
                        ],
                        "depth": 0,
                        "id": 0,
                        "order": 0
                    }
                ],
                "depth": -1,
                "id": -1,
                "order": -1
            }
        ],
        "mainTraceNodeCount": 14,
        "parentIdMap": {
            "0": -1,
            "1": 0,
            "10": 8,
            "11": 10,
            "12": 10,
            "13": 0,
            "2": 0,
            "3": 0,
            "4": 0,
            "5": 0,
            "6": 0,
            "7": 0,
            "8": 7,
            "9": 8
        },
        "tidyTrace": [
            {
                "children": [
                    {
                        "children": [
                            {
                                "children": [],
                                "depth": 1,
                                "id": 1,
                                "order": 1
                            },
                            {
                                "children": [],
                                "depth": 1,
                                "id": 2,
                                "order": 2
                            },
                            {
                                "children": [],
                                "depth": 1,
                                "id": 3,
                                "order": 3
                            },
                            {
                                "children": [],
                                "depth": 1,
                                "id": 4,
                                "order": 4
                            },
                            {
                                "children": [],
                                "depth": 1,
                                "id": 5,
                                "order": 5
                            },
                            {
                                "children": [],
                                "depth": 1,
                                "id": 6,
                                "order": 6
                            },
                            {
                                "children": [
                                    {
                                        "children": [
                                            {
                                                "children": [],
                                                "depth": 3,
                                                "id": 9,
                                                "order": 9
                                            },
                                            {
                                                "children": [
                                                    {
                                                        "children": [],
                                                        "depth": 4,
                                                        "id": 11,
                                                        "order": 11
                                                    },
                                                    {
                                                        "children": [],
                                                        "depth": 4,
                                                        "id": 12,
                                                        "order": 12
                                                    }
                                                ],
                                                "depth": 3,
                                                "id": 10,
                                                "order": 10
                                            }
                                        ],
                                        "depth": 2,
                                        "id": 8,
                                        "order": 8
                                    }
                                ],
                                "depth": 1,
                                "id": 7,
                                "order": 7
                            },
                            {
                                "children": [],
                                "depth": 1,
                                "id": 13,
                                "order": 13
                            }
                        ],
                        "depth": 0,
                        "id": 0,
                        "order": 0
                    }
                ],
                "depth": -1,
                "id": -1,
                "order": -1
            }
        ],
        "tidyTraceNodeCount": 14
    },
    "state_change": {
        "stateChanges": [
            {
                "address": "0x7be8076f4ea4a4ad08075c2508e481d6c946d12b",
                "erc": "",
                "slots": [
                    {
                        "current": "0x0000000000000000000000000000000000000000000000000000000000000001",
                        "key": "0x4ac73b844751d6b62d9b08af6c0cc0927a70104d3af6c1ec133ec7c15cd40825",
                        "prev": "0x0000000000000000000000000000000000000000000000000000000000000000"
                    }
                ],
                "storageVariables": [
                    {
                        "name": "cancelledOrFinalized",
                        "type": "mapping(bytes32 => bool)",
                        "value": {
                            "pairs": [
                                {
                                    "key": "0x6cf690c4f1adebada1aa8409ebfa79f92f81b3a362639ec8539c62ff0f0ab323",
                                    "value": {
                                        "current": "true",
                                        "prev": "false",
                                        "typeTag": 1
                                    }
                                }
                            ],
                            "typeTag": 4
                        }
                    }
                ]
            },
            {
                "address": "0xeb834ae72b30866af20a6ce5440fa598bfad3a42",
                "erc": "ERC-721",
                "slots": [
                    {
                        "current": "0x0000000000000000000000000000000000000000000000000000000000000001",
                        "key": "0xce3ab4ed673abd0c9a427384cd31761571dae4d992307997862dd7c63ec9b8db",
                        "prev": "0x0000000000000000000000000000000000000000000000000000000000000000"
                    },
                    {
                        "current": "0x000000000000000000000000e9581fb58eb6fdcbd45fcba793149bab6b0e0c4b",
                        "key": "0x878b5062a1087838aa60264e13144d5c474bf33d10064c5afaad7d5ec3a5f156",
                        "prev": "0x0000000000000000000000008e1311bee91e4ce25f4f2ea2e998f946e57ff094"
                    },
                    {
                        "current": "0x0000000000000000000000000000000000000000000000000000000000000000",
                        "key": "0x3ae5624d36107bcb2da50d14f0979f7611d7466dd9ade23b4e9aae7f52765d88",
                        "prev": "0x0000000000000000000000000000000000000000000000000000000000001908"
                    },
                    {
                        "current": "0x0000000000000000000000000000000000000000000000000000000000001908",
                        "key": "0x0702e82f4b5ee1b9631640343946d3655fe8f6894f70ecfa1a3bf2828f42ec1c",
                        "prev": "0x0000000000000000000000000000000000000000000000000000000000000000"
                    },
                    {
                        "current": "0x0000000000000000000000000000000000000000000000000000000000000000",
                        "key": "0x80a6ad7ebf7b41300e03e9e2bb2496557a7a209d86e1567bb2f28e60be8c5576",
                        "prev": "0x0000000000000000000000000000000000000000000000000000000000000001"
                    }
                ],
                "storageVariables": [
                    {
                        "name": "_balances",
                        "type": "mapping(address => uint256)",
                        "value": {
                            "pairs": [
                                {
                                    "key": "0x8e1311bee91e4ce25f4f2ea2e998f946e57ff094",
                                    "value": {
                                        "current": "0",
                                        "prev": "1",
                                        "typeTag": 1
                                    }
                                },
                                {
                                    "key": "0xe9581fb58eb6fdcbd45fcba793149bab6b0e0c4b",
                                    "value": {
                                        "current": "1",
                                        "prev": "0",
                                        "typeTag": 1
                                    }
                                }
                            ],
                            "typeTag": 4
                        }
                    },
                    {
                        "name": "_owners",
                        "type": "mapping(uint256 => address)",
                        "value": {
                            "pairs": [
                                {
                                    "key": "6408",
                                    "value": {
                                        "current": "0xe9581fb58eb6fdcbd45fcba793149bab6b0e0c4b",
                                        "prev": "0x8e1311bee91e4ce25f4f2ea2e998f946e57ff094",
                                        "typeTag": 1
                                    }
                                }
                            ],
                            "typeTag": 4
                        }
                    },
                    {
                        "name": "_ownedTokens",
                        "type": "mapping(address => mapping(uint256 => uint256))",
                        "value": {
                            "pairs": [
                                {
                                    "key": "0x8e1311bee91e4ce25f4f2ea2e998f946e57ff094",
                                    "value": {
                                        "pairs": [
                                            {
                                                "key": "0",
                                                "value": {
                                                    "current": "0",
                                                    "prev": "6408",
                                                    "typeTag": 1
                                                }
                                            }
                                        ],
                                        "typeTag": 4
                                    }
                                },
                                {
                                    "key": "0xe9581fb58eb6fdcbd45fcba793149bab6b0e0c4b",
                                    "value": {
                                        "pairs": [
                                            {
                                                "key": "0",
                                                "value": {
                                                    "current": "6408",
                                                    "prev": "0",
                                                    "typeTag": 1
                                                }
                                            }
                                        ],
                                        "typeTag": 4
                                    }
                                }
                            ],
                            "typeTag": 4
                        }
                    }
                ]
            }
        ]
    }
}