{
    "balance_change": {
        "balanceChanges": [
            {
                "account": "0xbb43985d37b94a7f50fc1c41f8b929699e1baa97",
                "assets": [
                    {
                        "address": "0xbe428c3867f05dea2a89fc76a102b544eac7f772",
                        "amount": "300,000",
                        "iconUrl": "",
                        "isERC1155": false,
                        "isERC721": false,
                        "sign": false,
                        "value": ""
                    }
                ]
            },
            {
                "account": "0x0211f3cedbef3143223d3acf0e589747933e8527",
                "assets": [
                    {
                        "address": "0xbe428c3867f05dea2a89fc76a102b544eac7f772",
                        "amount": "300,000",
                        "iconUrl": "",
                        "isERC1155": false,
                        "isERC721": false,
                        "sign": true,
                        "value": ""
                    }
                ]
            }
        ]
    },
    "profile": {
        "basic_info": {
            "baseFee": "",
            "blockNumber": 12146705,
            "callData": "0xa9059cbb0000000000000000000000000211f3cedbef3143223d3acf0e589747933e8527000000000000000000000000000000000000000000003f870857a3e0e3800000",
            "debugEnable": true,
            "errorInfo": "",
            "eventCount": 1,
            "feeRecipient": "0x5a0b54d5dc17e0aadc383d2db43b0a0d3e029c4c",
            "formatValue": "0",
            "gasLimit": 37203,
            "gasPrice": "246",
            "gasUsed": 22191,
            "intTxnCount": 0,
            "internalRevert": false,
            "internalRevertMessage": "",
            "isContractCreation": false,
            "isFlashloan": false,
            "maxFee": "",
            "nonce": 128,
            "overwritedBlockNumber": -1,
            "priorityFee": "",
            "receiver": "0xbe428c3867f05dea2a89fc76a102b544eac7f772",
            "revertMessage": "",
            "sender": "0xbb43985d37b94a7f50fc1c41f8b929699e1baa97",
            "simulationEnable": true,
            "sourceTxnHash": "0x51924b96ab7e857bb8a2d74bd7a8d58885d5c1b3adaa4fa1dbe1ce6d41196346",
            "status": true,
            "timestamp": "2021-03-31T11:01:52Z",
            "transactionFee": "0.005458986",
            "txnHash": "0x51924b96ab7e857bb8a2d74bd7a8d58885d5c1b3adaa4fa1dbe1ce6d41196346",
            "txnIndex": 18,
            "type": 0,
            "value": "0"
        },
        "fund_flow": [
            {
                "amount": "300,000",
                "from": "0xbb43985d37b94a7f50fc1c41f8b929699e1baa97",
                "id": 1,
                "isERC1155": false,
                "isERC721": false,
                "isReverted": false,
                "order": 1,
                "to": "0x0211f3cedbef3143223d3acf0e589747933e8527",
                "token": "0xbe428c3867f05dea2a89fc76a102b544eac7f772"
            }
        ],
        "token_infos": [
            {
                "address": "0xbe428c3867f05dea2a89fc76a102b544eac7f772",
                "decimals": 18
            },
            {
                "address": "0xc02aaa39b223fe8d0a0e5c4f27ead9083c756cc2",
                "decimals": 18
            },
            {
                "address": "0xeeeeeeeeeeeeeeeeeeeeeeeeeeeeeeeeeeeeeeee",
                "decimals": 18
            }
        ]
    },
    "address_label": {
        "labels": [
            {
                "address": "0xbb43985d37b94a7f50fc1c41f8b929699e1baa97",
                "label": "MEXC"
            },
            {
                "address": "0xbe428c3867f05dea2a89fc76a102b544eac7f772",
                "label": "CyberVein: CVT Token"
            },
            {
                "address": "0x0211f3cedbef3143223d3acf0e589747933e8527",
                "label": "MEXC: Mexc.com 2"
            },
            {
                "address": "0x0000000000000000000000000000000000000001",
                "label": "Precompiled"
            },
            {
                "address": "0x0000000000000000000000000000000000000002",
                "label": "Precompiled"
            },
            {
                "address": "0x0000000000000000000000000000000000000003",
                "label": "Precompiled"
            },
            {
                "address": "0x0000000000000000000000000000000000000004",
                "label": "Precompiled"
            },
            {
                "address": "0xeeeeeeeeeeeeeeeeeeeeeeeeeeeeeeeeeeeeeeee",
                "label": "Ether"
            }
        ]
    },
    "trace": {
        "accountLabels": null,
        "dataMap": {
            "-1": {
                "invocation": {
                    "address": "0xbb43985d37b94a7f50fc1c41f8b929699e1baa97",
                    "callData": "",
                    "decodedMethod": null,
                    "errorInfo": "",
                    "fromAddress": "",
                    "gasUsed": 0,
                    "id": -1,
                    "methodDecoded": false,
                    "operation": "",
                    "output": "",
                    "revert": false,
                    "revertMessage": "",
                    "selector": "",
                    "status": false,
                    "value": ""
                },
                "nodeType": 0
            },
            "0": {
                "invocation": {
                    "address": "0xbe428c3867f05dea2a89fc76a102b544eac7f772",
                    "callData": "0x0000000000000000000000000211f3cedbef3143223d3acf0e589747933e8527000000000000000000000000000000000000000000003f870857a3e0e3800000",
                    "decodedMethod": {
                        "callParams": [
                            {
                                "name": "_to",
                                "type": "address",
                                "value": "0x0211f3cedbef3143223d3acf0e589747933e8527"
                            },
                            {
                                "decimalAvailable": true,
                                "name": "_value",
                                "type": "uint256",
                                "value": "300,000,000,000,000,000,000,000"
                            }
                        ],
                        "constructorArguments": "",
                        "name": "transfer",
                        "returnParams": [
                            {
                                "name": "",
                                "type": "bool",
                                "value": true
                            }
                        ],
                        "signature": "transfer(address,uint256)"
                    },
                    "errorInfo": "",
                    "fromAddress": "0xbb43985d37b94a7f50fc1c41f8b929699e1baa97",
                    "gasUsed": 22191,
                    "id": 0,
                    "methodDecoded": true,
                    "operation": "CALL",
                    "output": "0x0000000000000000000000000000000000000000000000000000000000000001",
                    "revert": false,
                    "revertMessage": "",
                    "selector": "0xa9059cbb",
                    "status": true,
                    "value": "0"
                },
                "nodeType": 0
            },
            "1": {
                "event": {
                    "contract": "0xbe428c3867f05dea2a89fc76a102b544eac7f772",
                    "decodedLog": {
                        "name": "Transfer",
                        "params": [
                            {
                                "name": "from",
                                "type": "address",
                                "value": "0xbb43985d37b94a7f50fc1c41f8b929699e1baa97"
                            },
                            {
                                "name": "to",
                                "type": "address",
                                "value": "0x0211f3cedbef3143223d3acf0e589747933e8527"
                            },
                            {
                                "decimalAvailable": true,
                                "name": "value",
                                "type": "uint256",
                                "value": "300,000,000,000,000,000,000,000"
                            }
                        ],
                        "signature": "Transfer(address,address,uint256)"
                    },
                    "id": 1,
                    "logData": "0x000000000000000000000000000000000000000000003f870857a3e0e3800000",
                    "logDecoded": true,
                    "operation": "EVENT",
                    "revert": false,
                    "status": true,
                    "topics": [
                        "0xddf252ad1be2c89b69c2b068fc378daa952ba7f163c4a11628f55a4df523b3ef",
                        "0x000000000000000000000000bb43985d37b94a7f50fc1c41f8b929699e1baa97",
                        "0x0000000000000000000000000211f3cedbef3143223d3acf0e589747933e8527"
                    ]
                },
                "nodeType": 1
            }
        },
        "gasFlame": [
            {
                "children": [
                    {
                        "children": [
                            {
                                "children": [],
                                "depth": 0,
                                "name": "Initial Gas",
                                "value": 21656
                            },
                            {
                                "children": [],
                                "depth": 0,
                                "name": "Executed Gas",
                                "value": 15535
                            }
                        ],
                        "depth": -1,
                        "name": "Actual Gas Used",
                        "value": 22191
                    },
                    {
                        "children": [],
                        "depth": -1,
                        "name": "Refunded Gas",
                        "value": 15000
                    }
                ],
                "depth": -2,
                "name": "Total Gas",
                "value": 37191
            }
        ],
        "isConfirmed": true,
        "mainTrace": [
            {
                "children": [
                    {
                        "children": [
                            {
                                "children": [],
                                "depth": 1,
                                "id": 1,
                                "order": 1
                            }
                        ],
                        "depth": 0,
                        "id": 0,
                        "order": 0
                    }
                ],
                "depth": -1,
                "id": -1,
                "order": -1
            }
        ],
        "mainTraceNodeCount": 2,
        "parentIdMap": {
            "0": -1,
            "1": 0
        },
        "tidyTrace": [
            {
                "children": [
                    {
                        "children": [
                            {
                                "children": [],
                                "depth": 1,
                                "id": 1,
                                "order": 1
                            }
                        ],
                        "depth": 0,
                        "id": 0,
                        "order": 0
                    }
                ],
                "depth": -1,
                "id": -1,
                "order": -1
            }
        ],
        "tidyTraceNodeCount": 2
    },
    "state_change": {
        "stateChanges": [
            {
                "address": "0xbe428c3867f05dea2a89fc76a102b544eac7f772",
                "erc": "ERC-20",
                "slots": [
                    {
                        "current": "0x00000000000000000000000000000000000000000067b27d8bedb5b86d360000",
                        "key": "0xf119b5bce953922c17f1bd0977b388480bd5de70397378d14ed431af7da309d3",
                        "prev": "0x0000000000000000000000000000000000000000006772f6839611d789b60000"
                    },
                    {
                        "current": "0x0000000000000000000000000000000000000000000000000000000000000000",
                        "key": "0xdcfa1a83bf4dd8140c4056bd1c4c8668f0d4f2158e24788c2683419afc46bca8",
                        "prev": "0x000000000000000000000000000000000000000000003f870857a3e0e3800000"
                    }
                ],
                "storageVariables": [
                    {
                        "name": "balances",
                        "type": "mapping(address => uint256)",
                        "value": {
                            "pairs": [
                                {
                                    "key": "0x0211f3cedbef3143223d3acf0e589747933e8527",
                                    "value": {
                                        "current": "125362256580181760000000000",
                                        "prev": "125062256580181760000000000",
                                        "typeTag": 1
                                    }
                                },
                                {
                                    "key": "0xbb43985d37b94a7f50fc1c41f8b929699e1baa97",
                                    "value": {
                                        "current": "0",
                                        "prev": "300000000000000000000000",
                                        "typeTag": 1
                                    }
                                }
                            ],
                            "typeTag": 4
                        }
                    }
                ]
            }
        ]
    }
}