{
    "balance_change": {
        "balanceChanges": []
    },
    "profile": {
        "basic_info": {
            "baseFee": "",
            "blockNumber": 7799758,
            "callData": "0x0184a116000000000000000000000000f410f1cb2e68c1f5752a7b49f66c53e667c3e1f2",
            "debugEnable": true,
            "errorInfo": "execution reverted",
            "eventCount": 0,
            "feeRecipient": "0x5a0b54d5dc17e0aadc383d2db43b0a0d3e029c4c",
            "formatValue": "0",
            "gasLimit": 300000,
            "gasPrice": "58.961240347",
            "gasUsed": 37476,
            "intTxnCount": 5,
            "internalRevert": true,
            "internalRevertMessage": "",
            "isContractCreation": false,
            "isFlashloan": false,
            "maxFee": "",
            "nonce": 12,
            "overwritedBlockNumber": -1,
            "priorityFee": "",
            "receiver": "0x3bbb696894be223341b808406cf10f6c23b42ecd",
            "revertMessage": "",
            "sender": "0x30bf464ffdfdd66991adb92817d9e4f3422bec98",
            "simulationEnable": true,
            "sourceTxnHash": "0x5179110693e410661d66b573aecb8d315d60e3b7e56c6174fae4b75455b7f7a8",
            "status": false,
            "timestamp": "2019-05-20T23:13:04Z",
            "transactionFee": "0.002209631443244172",
            "txnHash": "0x5179110693e410661d66b573aecb8d315d60e3b7e56c6174fae4b75455b7f7a8",
            "txnIndex": 0,
            "type": 0,
            "value": "0"
        },
        "fund_flow": [],
        "token_infos": [
            {
                "address": "0xc02aaa39b223fe8d0a0e5c4f27ead9083c756cc2",
                "decimals": 18
            },
            {
                "address": "0xeeeeeeeeeeeeeeeeeeeeeeeeeeeeeeeeeeeeeeee",
                "decimals": 18
            }
        ]
    },
    "address_label": {
        "labels": [
            {
                "address": "0x39ec39f6573247efb3954974d8618217f980e3a0",
                "label": "ODS (ODS)"
            },
            {
                "address": "0x0000000000000000000000000000000000000001",
                "label": "Precompiled"
            },
            {
                "address": "0x0000000000000000000000000000000000000002",
                "label": "Precompiled"
            },
            {
                "address": "0x0000000000000000000000000000000000000003",
                "label": "Precompiled"
            },
            {
                "address": "0x0000000000000000000000000000000000000004",
                "label": "Precompiled"
            },
            {
                "address": "0xeeeeeeeeeeeeeeeeeeeeeeeeeeeeeeeeeeeeeeee",
                "label": "Ether"
            }
        ]
    },
    "trace": {
        "accountLabels": null,
        "dataMap": {
            "-1": {
                "invocation": {
                    "address": "0x30bf464ffdfdd66991adb92817d9e4f3422bec98",
                    "callData": "",
                    "decodedMethod": null,
                    "errorInfo": "",
                    "fromAddress": "",
                    "gasUsed": 0,
                    "id": -1,
                    "methodDecoded": false,
                    "operation": "",
                    "output": "",
                    "revert": false,
                    "revertMessage": "",
                    "selector": "",
                    "status": false,
                    "value": ""
                },
                "nodeType": 0
            },
            "0": {
                "invocation": {
                    "address": "0x3bbb696894be223341b808406cf10f6c23b42ecd",
                    "callData": "0x000000000000000000000000f410f1cb2e68c1f5752a7b49f66c53e667c3e1f2",
                    "decodedMethod": null,
                    "errorInfo": "execution reverted",
                    "fromAddress": "0x30bf464ffdfdd66991adb92817d9e4f3422bec98",
                    "gasUsed": 37476,
                    "id": 0,
                    "methodDecoded": false,
                    "operation": "CALL",
                    "output": "",
                    "revert": true,
                    "revertMessage": "",
                    "selector": "0x0184a116",
                    "status": false,
                    "value": "0"
                },
                "nodeType": 0
            },
            "1": {
                "invocation": {
                    "address": "0xb0a2d7a8b884bab50216be8a39f3e2c1144647a9",
                    "callData": "0x00000000000000000000000030bf464ffdfdd66991adb92817d9e4f3422bec98",
                    "decodedMethod": null,
                    "errorInfo": "",
                    "fromAddress": "0x3bbb696894be223341b808406cf10f6c23b42ecd",
                    "gasUsed": 650,
                    "id": 1,
                    "methodDecoded": false,
                    "operation": "CALL",
                    "output": "0x000000000000000000000000000000000000000000000008e3f50b173c100000",
                    "revert": true,
                    "revertMessage": "",
                    "selector": "0x0a0a970b",
                    "status": true,
                    "value": "0"
                },
                "nodeType": 0
            },
            "2": {
                "invocation": {
                    "address": "0xb0a2d7a8b884bab50216be8a39f3e2c1144647a9",
                    "callData": "0x00000000000000000000000030bf464ffdfdd66991adb92817d9e4f3422bec98",
                    "decodedMethod": null,
                    "errorInfo": "",
                    "fromAddress": "0x3bbb696894be223341b808406cf10f6c23b42ecd",
                    "gasUsed": 706,
                    "id": 2,
                    "methodDecoded": false,
                    "operation": "CALL",
                    "output": "0x0000000000000000000000000000000000000000000000000000000000000000",
                    "revert": true,
                    "revertMessage": "",
                    "selector": "0x18866b14",
                    "status": true,
                    "value": "0"
                },
                "nodeType": 0
            },
            "3": {
                "invocation": {
                    "address": "0x39ec39f6573247efb3954974d8618217f980e3a0",
                    "callData": "0x00000000000000000000000030bf464ffdfdd66991adb92817d9e4f3422bec980000000000000000000000003bbb696894be223341b808406cf10f6c23b42ecd",
                    "decodedMethod": {
                        "callParams": [
                            {
                                "name": "owner",
                                "type": "address",
                                "value": "0x30bf464ffdfdd66991adb92817d9e4f3422bec98"
                            },
                            {
                                "name": "spender",
                                "type": "address",
                                "value": "0x3bbb696894be223341b808406cf10f6c23b42ecd"
                            }
                        ],
                        "constructorArguments": "",
                        "name": "allowance",
                        "returnParams": [
                            {
                                "decimalAvailable": true,
                                "name": "",
                                "type": "uint256",
                                "value": "100,000,000,000,000,000,000"
                            }
                        ],
                        "signature": "allowance(address,address)"
                    },
                    "errorInfo": "",
                    "fromAddress": "0x3bbb696894be223341b808406cf10f6c23b42ecd",
                    "gasUsed": 994,
                    "id": 3,
                    "methodDecoded": true,
                    "operation": "CALL",
                    "output": "0x0000000000000000000000000000000000000000000000056bc75e2d63100000",
                    "revert": true,
                    "revertMessage": "",
                    "selector": "0xdd62ed3e",
                    "status": true,
                    "value": "0"
                },
                "nodeType": 0
            },
            "4": {
                "invocation": {
                    "address": "0x39ec39f6573247efb3954974d8618217f980e3a0",
                    "callData": "0x00000000000000000000000030bf464ffdfdd66991adb92817d9e4f3422bec98",
                    "decodedMethod": {
                        "callParams": [
                            {
                                "name": "account",
                                "type": "address",
                                "value": "0x30bf464ffdfdd66991adb92817d9e4f3422bec98"
                            }
                        ],
                        "constructorArguments": "",
                        "name": "balanceOf",
                        "returnParams": [
                            {
                                "decimalAvailable": true,
                                "name": "",
                                "type": "uint256",
                                "value": "5,593,403,100,775,186,782,400"
                            }
                        ],
                        "signature": "balanceOf(address)"
                    },
                    "errorInfo": "",
                    "fromAddress": "0x3bbb696894be223341b808406cf10f6c23b42ecd",
                    "gasUsed": 782,
                    "id": 4,
                    "methodDecoded": true,
                    "operation": "CALL",
                    "output": "0x00000000000000000000000000000000000000000000012f380fb509097558c0",
                    "revert": true,
                    "revertMessage": "",
                    "selector": "0x70a08231",
                    "status": true,
                    "value": "0"
                },
                "nodeType": 0
            },
            "5": {
                "invocation": {
                    "address": "0xb0a2d7a8b884bab50216be8a39f3e2c1144647a9",
                    "callData": "0x000000000000000000000000f410f1cb2e68c1f5752a7b49f66c53e667c3e1f2",
                    "decodedMethod": null,
                    "errorInfo": "",
                    "fromAddress": "0x3bbb696894be223341b808406cf10f6c23b42ecd",
                    "gasUsed": 650,
                    "id": 5,
                    "methodDecoded": false,
                    "operation": "CALL",
                    "output": "0x0000000000000000000000000000000000000000000000000000000000000000",
                    "revert": true,
                    "revertMessage": "",
                    "selector": "0x0a0a970b",
                    "status": true,
                    "value": "0"
                },
                "nodeType": 0
            }
        },
        "gasFlame": [
            {
                "children": [
                    {
                        "children": [
                            {
                                "children": [],
                                "depth": 0,
                                "name": "Initial Gas",
                                "value": 22680
                            },
                            {
                                "children": [
                                    {
                                        "children": [],
                                        "depth": 1,
                                        "name": "0x0a0a970b",
                                        "value": 650
                                    },
                                    {
                                        "children": [],
                                        "depth": 1,
                                        "name": "0x18866b14",
                                        "value": 706
                                    },
                                    {
                                        "children": [],
                                        "depth": 1,
                                        "name": "allowance",
                                        "value": 994
                                    },
                                    {
                                        "children": [],
                                        "depth": 1,
                                        "name": "balanceOf",
                                        "value": 782
                                    },
                                    {
                                        "children": [],
                                        "depth": 1,
                                        "name": "0x0a0a970b",
                                        "value": 650
                                    }
                                ],
                                "depth": 0,
                                "name": "Executed Gas",
                                "value": 14796
                            }
                        ],
                        "depth": -1,
                        "name": "Actual Gas Used",
                        "value": 37476
                    },
                    {
                        "children": [],
                        "depth": -1,
                        "name": "Refunded Gas",
                        "value": 0
                    }
                ],
                "depth": -2,
                "name": "Total Gas",
                "value": 37476
            }
        ],
        "isConfirmed": true,
        "mainTrace": [
            {
                "children": [
                    {
                        "children": [
                            {
                                "children": [],
                                "depth": 1,
                                "id": 1,
                                "order": 1
                            },
                            {
                                "children": [],
                                "depth": 1,
                                "id": 2,
                                "order": 2
                            },
                            {
                                "children": [],
                                "depth": 1,
                                "id": 3,
                                "order": 3
                            },
                            {
                                "children": [],
                                "depth": 1,
                                "id": 4,
                                "order": 4
                            },
                            {
                                "children": [],
                                "depth": 1,
                                "id": 5,
                                "order": 5
                            }
                        ],
                        "depth": 0,
                        "id": 0,
                        "order": 0
                    }
                ],
                "depth": -1,
                "id": -1,
                "order": -1
            }
        ],
        "mainTraceNodeCount": 6,
        "parentIdMap": {
            "0": -1,
            "1": 0,
            "2": 0,
            "3": 0,
            "4": 0,
            "5": 0
        },
        "tidyTrace": [
            {
                "children": [
                    {
                        "children": [
                            {
                                "children": [],
                                "depth": 1,
                                "id": 1,
                                "order": 1
                            },
                            {
                                "children": [],
                                "depth": 1,
                                "id": 2,
                                "order": 2
                            },
                            {
                                "children": [],
                                "depth": 1,
                                "id": 3,
                                "order": 3
                            },
                            {
                                "children": [],
                                "depth": 1,
                                "id": 4,
                                "order": 4
                            },
                            {
                                "children": [],
                                "depth": 1,
                                "id": 5,
                                "order": 5
                            }
                        ],
                        "depth": 0,
                        "id": 0,
                        "order": 0
                    }
                ],
                "depth": -1,
                "id": -1,
                "order": -1
            }
        ],
        "tidyTraceNodeCount": 6
    },
    "state_change": {
        "stateChanges": []
    }
}