{
    "balance_change": {
        "balanceChanges": []
    },
    "profile": {
        "basic_info": {
            "baseFee": "10.371838776",
            "blockNumber": 19868285,
            "callData": "0x095ea7b3000000000000000000000000cb5c447567631b187eea240512ba2fbbc875ce1d0000000000000000000000000000000000000000000000bf8d2e87ab91d337b7",
            "debugEnable": true,
            "errorInfo": "",
            "eventCount": 1,
            "feeRecipient": "0x1f9090aae28b8a3dceadf281b0f12828e676c326",
            "formatValue": "0",
            "gasLimit": 46719,
            "gasPrice": "12.371838776",
            "gasUsed": 46336,
            "intTxnCount": 0,
            "internalRevert": false,
            "internalRevertMessage": "",
            "isContractCreation": false,
            "isFlashloan": false,
            "maxFee": "12.970256302",
            "nonce": 34,
            "overwritedBlockNumber": -1,
            "priorityFee": "2",
            "receiver": "0x9028c2a7f8c8530450549915c5338841db2a5fea",
            "revertMessage": "",
            "sender": "0xf527fadcddb28429184e55f1a807afbe1cbc0088",
            "simulationEnable": true,
            "sourceTxnHash": "0x51cd5767d1f94866099024a133ec3dbeebd214178332f8ed125f0542a8395864",
            "status": true,
            "timestamp": "2024-05-14T12:36:59Z",
            "transactionFee": "0.000573261521524736",
            "txnHash": "0x51cd5767d1f94866099024a133ec3dbeebd214178332f8ed125f0542a8395864",
            "txnIndex": 40,
            "type": 2,
            "value": "0"
        },
        "fund_flow": [],
        "token_infos": [
            {
                "address": "0xc02aaa39b223fe8d0a0e5c4f27ead9083c756cc2",
                "decimals": 18
            },
            {
                "address": "0xeeeeeeeeeeeeeeeeeeeeeeeeeeeeeeeeeeeeeeee",
                "decimals": 18
            }
        ]
    },
    "address_label": {
        "labels": [
            {
                "address": "0x0000000000000000000000000000000000000004",
                "label": "Precompiled"
            },
            {
                "address": "0xeeeeeeeeeeeeeeeeeeeeeeeeeeeeeeeeeeeeeeee",
                "label": "Ether"
            },
            {
                "address": "0x9028c2a7f8c8530450549915c5338841db2a5fea",
                "label": "FOMO Network: FOMO Token"
            },
            {
                "address": "0xcb5c447567631b187eea240512ba2fbbc875ce1d",
                "label": "sFOMO"
            },
            {
                "address": "0x0000000000000000000000000000000000000001",
                "label": "Precompiled"
            },
            {
                "address": "0x0000000000000000000000000000000000000002",
                "label": "Precompiled"
            },
            {
                "address": "0x0000000000000000000000000000000000000003",
                "label": "Precompiled"
            }
        ]
    },
    "trace": {
        "accountLabels": null,
        "dataMap": {
            "-1": {
                "invocation": {
                    "address": "0xf527fadcddb28429184e55f1a807afbe1cbc0088",
                    "callData": "",
                    "decodedMethod": null,
                    "errorInfo": "",
                    "fromAddress": "",
                    "gasUsed": 0,
                    "id": -1,
                    "methodDecoded": false,
                    "operation": "",
                    "output": "",
                    "revert": false,
                    "revertMessage": "",
                    "selector": "",
                    "status": false,
                    "value": ""
                },
                "nodeType": 0
            },
            "0": {
                "invocation": {
                    "address": "0x9028c2a7f8c8530450549915c5338841db2a5fea",
                    "callData": "0x000000000000000000000000cb5c447567631b187eea240512ba2fbbc875ce1d0000000000000000000000000000000000000000000000bf8d2e87ab91d337b7",
                    "decodedMethod": {
                        "callParams": [
                            {
                                "name": "spender",
                                "type": "address",
                                "value": "0xcb5c447567631b187eea240512ba2fbbc875ce1d"
                            },
                            {
                                "decimalAvailable": true,
                                "name": "amount",
                                "type": "uint256",
                                "value": "3,533,501,335,857,756,583,863"
                            }
                        ],
                        "constructorArguments": "",
                        "name": "approve",
                        "returnParams": [
                            {
                                "name": "",
                                "type": "bool",
                                "value": true
                            }
                        ],
                        "signature": "approve(address,uint256)"
                    },
                    "errorInfo": "",
                    "fromAddress": "0xf527fadcddb28429184e55f1a807afbe1cbc0088",
                    "gasUsed": 46336,
                    "id": 0,
                    "methodDecoded": true,
                    "operation": "CALL",
                    "output": "0x0000000000000000000000000000000000000000000000000000000000000001",
                    "revert": false,
                    "revertMessage": "",
                    "selector": "0x095ea7b3",
                    "status": true,
                    "value": "0"
                },
                "nodeType": 0
            },
            "1": {
                "event": {
                    "contract": "0x9028c2a7f8c8530450549915c5338841db2a5fea",
                    "decodedLog": {
                        "name": "Approval",
                        "params": [
                            {
                                "name": "owner",
                                "type": "address",
                                "value": "0xf527fadcddb28429184e55f1a807afbe1cbc0088"
                            },
                            {
                                "name": "spender",
                                "type": "address",
                                "value": "0xcb5c447567631b187eea240512ba2fbbc875ce1d"
                            },
                            {
                                "decimalAvailable": true,
                                "name": "value",
                                "type": "uint256",
                                "value": "3,533,501,335,857,756,583,863"
                            }
                        ],
                        "signature": "Approval(address,address,uint256)"
                    },
                    "id": 1,
                    "logData": "0x0000000000000000000000000000000000000000000000bf8d2e87ab91d337b7",
                    "logDecoded": true,
                    "operation": "EVENT",
                    "revert": false,
                    "status": true,
                    "topics": [
                        "0x8c5be1e5ebec7d5bd14f71427d1e84f3dd0314c0f7b2291e5b200ac8c7c3b925",
                        "0x000000000000000000000000f527fadcddb28429184e55f1a807afbe1cbc0088",
                        "0x000000000000000000000000cb5c447567631b187eea240512ba2fbbc875ce1d"
                    ]
                },
                "nodeType": 1
            }
        },
        "gasFlame": [
            {
                "children": [
                    {
                        "children": [
                            {
                                "children": [],
                                "depth": 0,
                                "name": "Initial Gas",
                                "value": 21668
                            },
                            {
                                "children": [],
                                "depth": 0,
                                "name": "Executed Gas",
                                "value": 24668
                            }
                        ],
                        "depth": -1,
                        "name": "Actual Gas Used",
                        "value": 46336
                    },
                    {
                        "children": [],
                        "depth": -1,
                        "name": "Refunded Gas",
                        "value": 0
                    }
                ],
                "depth": -2,
                "name": "Total Gas",
                "value": 46336
            }
        ],
        "isConfirmed": true,
        "mainTrace": [
            {
                "children": [
                    {
                        "children": [
                            {
                                "children": [],
                                "depth": 1,
                                "id": 1,
                                "order": 1
                            }
                        ],
                        "depth": 0,
                        "id": 0,
                        "order": 0
                    }
                ],
                "depth": -1,
                "id": -1,
                "order": -1
            }
        ],
        "mainTraceNodeCount": 2,
        "parentIdMap": {
            "0": -1,
            "1": 0
        },
        "tidyTrace": [
            {
                "children": [
                    {
                        "children": [
                            {
                                "children": [],
                                "depth": 1,
                                "id": 1,
                                "order": 1
                            }
                        ],
                        "depth": 0,
                        "id": 0,
                        "order": 0
                    }
                ],
                "depth": -1,
                "id": -1,
                "order": -1
            }
        ],
        "tidyTraceNodeCount": 2
    },
    "state_change": {
        "stateChanges": [
            {
                "address": "0x9028c2a7f8c8530450549915c5338841db2a5fea",
                "erc": "ERC-20",
                "slots": [
                    {
                        "current": "0x0000000000000000000000000000000000000000000000bf8d2e87ab91d337b7",
                        "key": "0x8ff48eb39ca7f49a07966dbea74750aa70522d8fe6da6d9643b3b424746658fe",
                        "prev": "0x0000000000000000000000000000000000000000000000000000000000000000"
                    }
                ],
                "storageVariables": [
                    {
                        "name": "_allowances",
                        "type": "mapping(address => mapping(address => uint256))",
                        "value": {
                            "pairs": [
                                {
                                    "key": "0xf527fadcddb28429184e55f1a807afbe1cbc0088",
                                    "value": {
                                        "pairs": [
                                            {
                                                "key": "0xcb5c447567631b187eea240512ba2fbbc875ce1d",
                                                "value": {
                                                    "current": "3533501335857756583863",
                                                    "prev": "0",
                                                    "typeTag": 1
                                                }
                                            }
                                        ],
                                        "typeTag": 4
                                    }
                                }
                            ],
                            "typeTag": 4
                        }
                    }
                ]
            }
        ]
    }
}