{
    "balance_change": {
        "balanceChanges": [
            {
                "account": "0x8a02ca5a49bf432452b5b5772f57ffc136dcca12",
                "assets": [
                    {
                        "address": "0xdd16ec0f66e54d453e6756713e533355989040e4",
                        "amount": "10",
                        "iconUrl": "https://assets.blocksec.com/icon/c5ed7ec6f5d1b9aad62407c2c4159a2b7e33eac5e08d594867ae47c0c6c6ed6f.png",
                        "isERC1155": false,
                        "isERC721": false,
                        "sign": false,
                        "value": ""
                    }
                ]
            },
            {
                "account": "0x93f60718735e6a6ae339bba3a1cdc0cad125f02f",
                "assets": [
                    {
                        "address": "0xdd16ec0f66e54d453e6756713e533355989040e4",
                        "amount": "10",
                        "iconUrl": "https://assets.blocksec.com/icon/c5ed7ec6f5d1b9aad62407c2c4159a2b7e33eac5e08d594867ae47c0c6c6ed6f.png",
                        "isERC1155": false,
                        "isERC721": false,
                        "sign": true,
                        "value": ""
                    }
                ]
            }
        ]
    },
    "profile": {
        "basic_info": {
            "baseFee": "",
            "blockNumber": 7614541,
            "callData": "0xa9059cbb00000000000000000000000093f60718735e6a6ae339bba3a1cdc0cad125f02f0000000000000000000000000000000000000000000000008ac7230489e80000",
            "debugEnable": true,
            "errorInfo": "",
            "eventCount": 1,
            "feeRecipient": "0xea674fdde714fd979de3edf0f56aa9716b898ec8",
            "formatValue": "0",
            "gasLimit": 53000,
            "gasPrice": "10",
            "gasUsed": 51912,
            "intTxnCount": 0,
            "internalRevert": false,
            "internalRevertMessage": "",
            "isContractCreation": false,
            "isFlashloan": false,
            "maxFee": "",
            "nonce": 22886,
            "overwritedBlockNumber": -1,
            "priorityFee": "",
            "receiver": "0xdd16ec0f66e54d453e6756713e533355989040e4",
            "revertMessage": "",
            "sender": "0x8a02ca5a49bf432452b5b5772f57ffc136dcca12",
            "simulationEnable": true,
            "sourceTxnHash": "0x510013a6e808373645fe3f9bcb2b833a668bee60a76e7b3e698306f4d6f1c63f",
            "status": true,
            "timestamp": "2019-04-22T01:49:51Z",
            "transactionFee": "0.00051912",
            "txnHash": "0x510013a6e808373645fe3f9bcb2b833a668bee60a76e7b3e698306f4d6f1c63f",
            "txnIndex": 50,
            "type": 0,
            "value": "0"
        },
        "fund_flow": [
            {
                "amount": "10",
                "from": "0x8a02ca5a49bf432452b5b5772f57ffc136dcca12",
                "id": 1,
                "isERC1155": false,
                "isERC721": false,
                "isReverted": false,
                "order": 1,
                "to": "0x93f60718735e6a6ae339bba3a1cdc0cad125f02f",
                "token": "0xdd16ec0f66e54d453e6756713e533355989040e4"
            }
        ],
        "token_infos": [
            {
                "address": "0xeeeeeeeeeeeeeeeeeeeeeeeeeeeeeeeeeeeeeeee",
                "decimals": 18
            },
            {
                "address": "0xc02aaa39b223fe8d0a0e5c4f27ead9083c756cc2",
                "decimals": 18
            },
            {
                "address": "0xdd16ec0f66e54d453e6756713e533355989040e4",
                "decimals": 18
            }
        ]
    },
    "address_label": {
        "labels": [
            {
                "address": "0x0000000000000000000000000000000000000003",
                "label": "Precompiled"
            },
            {
                "address": "0x0000000000000000000000000000000000000004",
                "label": "Precompiled"
            },
            {
                "address": "0xeeeeeeeeeeeeeeeeeeeeeeeeeeeeeeeeeeeeeeee",
                "label": "Ether"
            },
            {
                "address": "0xdd16ec0f66e54d453e6756713e533355989040e4",
                "label": "Tokenomy (TEN)"
            },
            {
                "address": "0x0000000000000000000000000000000000000001",
                "label": "Precompiled"
            },
            {
                "address": "0x0000000000000000000000000000000000000002",
                "label": "Precompiled"
            }
        ]
    },
    "trace": {
        "accountLabels": null,
        "dataMap": {
            "-1": {
                "invocation": {
                    "address": "0x8a02ca5a49bf432452b5b5772f57ffc136dcca12",
                    "callData": "",
                    "decodedMethod": null,
                    "errorInfo": "",
                    "fromAddress": "",
                    "gasUsed": 0,
                    "id": -1,
                    "methodDecoded": false,
                    "operation": "",
                    "output": "",
                    "revert": false,
                    "revertMessage": "",
                    "selector": "",
                    "status": false,
                    "value": ""
                },
                "nodeType": 0
            },
            "0": {
                "invocation": {
                    "address": "0xdd16ec0f66e54d453e6756713e533355989040e4",
                    "callData": "0x00000000000000000000000093f60718735e6a6ae339bba3a1cdc0cad125f02f0000000000000000000000000000000000000000000000008ac7230489e80000",
                    "decodedMethod": {
                        "callParams": [
                            {
                                "name": "_to",
                                "type": "address",
                                "value": "0x93f60718735e6a6ae339bba3a1cdc0cad125f02f"
                            },
                            {
                                "decimalAvailable": true,
                                "name": "_value",
                                "type": "uint256",
                                "value": "10,000,000,000,000,000,000"
                            }
                        ],
                        "constructorArguments": "",
                        "name": "transfer",
                        "returnParams": [
                            {
                                "name": "",
                                "type": "bool",
                                "value": true
                            }
                        ],
                        "signature": "transfer(address,uint256)"
                    },
                    "errorInfo": "",
                    "fromAddress": "0x8a02ca5a49bf432452b5b5772f57ffc136dcca12",
                    "gasUsed": 51912,
                    "id": 0,
                    "methodDecoded": true,
                    "operation": "CALL",
                    "output": "0x0000000000000000000000000000000000000000000000000000000000000001",
                    "revert": false,
                    "revertMessage": "",
                    "selector": "0xa9059cbb",
                    "status": true,
                    "value": "0"
                },
                "nodeType": 0
            },
            "1": {
                "event": {
                    "contract": "0xdd16ec0f66e54d453e6756713e533355989040e4",
                    "decodedLog": {
                        "name": "Transfer",
                        "params": [
                            {
                                "name": "from",
                                "type": "address",
                                "value": "0x8a02ca5a49bf432452b5b5772f57ffc136dcca12"
                            },
                            {
                                "name": "to",
                                "type": "address",
                                "value": "0x93f60718735e6a6ae339bba3a1cdc0cad125f02f"
                            },
                            {
                                "decimalAvailable": true,
                                "name": "value",
                                "type": "uint256",
                                "value": "10,000,000,000,000,000,000"
                            }
                        ],
                        "signature": "Transfer(address,address,uint256)"
                    },
                    "id": 1,
                    "logData": "0x0000000000000000000000000000000000000000000000008ac7230489e80000",
                    "logDecoded": true,
                    "operation": "EVENT",
                    "revert": false,
                    "status": true,
                    "topics": [
                        "0xddf252ad1be2c89b69c2b068fc378daa952ba7f163c4a11628f55a4df523b3ef",
                        "0x0000000000000000000000008a02ca5a49bf432452b5b5772f57ffc136dcca12",
                        "0x00000000000000000000000093f60718735e6a6ae339bba3a1cdc0cad125f02f"
                    ]
                },
                "nodeType": 1
            }
        },
        "gasFlame": [
            {
                "children": [
                    {
                        "children": [
                            {
                                "children": [],
                                "depth": 0,
                                "name": "Initial Gas",
                                "value": 23192
                            },
                            {
                                "children": [],
                                "depth": 0,
                                "name": "Executed Gas",
                                "value": 28720
                            }
                        ],
                        "depth": -1,
                        "name": "Actual Gas Used",
                        "value": 51912
                    },
                    {
                        "children": [],
                        "depth": -1,
                        "name": "Refunded Gas",
                        "value": 0
                    }
                ],
                "depth": -2,
                "name": "Total Gas",
                "value": 51912
            }
        ],
        "isConfirmed": true,
        "mainTrace": [
            {
                "children": [
                    {
                        "children": [
                            {
                                "children": [],
                                "depth": 1,
                                "id": 1,
                                "order": 1
                            }
                        ],
                        "depth": 0,
                        "id": 0,
                        "order": 0
                    }
                ],
                "depth": -1,
                "id": -1,
                "order": -1
            }
        ],
        "mainTraceNodeCount": 2,
        "parentIdMap": {
            "0": -1,
            "1": 0
        },
        "tidyTrace": [
            {
                "children": [
                    {
                        "children": [
                            {
                                "children": [],
                                "depth": 1,
                                "id": 1,
                                "order": 1
                            }
                        ],
                        "depth": 0,
                        "id": 0,
                        "order": 0
                    }
                ],
                "depth": -1,
                "id": -1,
                "order": -1
            }
        ],
        "tidyTraceNodeCount": 2
    },
    "state_change": {
        "stateChanges": [
            {
                "address": "0xdd16ec0f66e54d453e6756713e533355989040e4",
                "erc": "ERC-20",
                "slots": [
                    {
                        "current": "0x000000000000000000000000000000000000000000021b0b6d8acad20c83e40f",
                        "key": "0xdd3dac74ad07f65640d117cb293307de5f8160b8695af3f0771d26be2066f751",
                        "prev": "0x000000000000000000000000000000000000000000021b0bf851edd6966be40f"
                    },
                    {
                        "current": "0x0000000000000000000000000000000000000000000000008ac7230489e80000",
                        "key": "0x77e82fd8aba6356968905a710791f0c00b9e435a059c87352d8ab622cd011f3c",
                        "prev": "0x0000000000000000000000000000000000000000000000000000000000000000"
                    }
                ],
                "storageVariables": [
                    {
                        "name": "balances",
                        "type": "mapping(address => uint256)",
                        "value": {
                            "pairs": [
                                {
                                    "key": "0x8a02ca5a49bf432452b5b5772f57ffc136dcca12",
                                    "value": {
                                        "current": "2545566341795849997378575",
                                        "prev": "2545576341795849997378575",
                                        "typeTag": 1
                                    }
                                },
                                {
                                    "key": "0x93f60718735e6a6ae339bba3a1cdc0cad125f02f",
                                    "value": {
                                        "current": "10000000000000000000",
                                        "prev": "0",
                                        "typeTag": 1
                                    }
                                }
                            ],
                            "typeTag": 4
                        }
                    }
                ]
            }
        ]
    }
}