{
    "balance_change": {
        "balanceChanges": [
            {
                "account": "0x2b5634c42055806a59e9107ed44d43c426e58258",
                "assets": [
                    {
                        "address": "0x467bccd9d29f223bce8043b84e8c8b282827790f",
                        "amount": "10,000",
                        "iconUrl": "https://assets.blocksec.com/icon/a6c85d035fadb4b958ad46b03886b58cdfb73b86720c08bbc9316c23a5cc9074.png",
                        "isERC1155": false,
                        "isERC721": false,
                        "sign": false,
                        "value": ""
                    }
                ]
            },
            {
                "account": "0x55a8219ba0a9a23f72c8ec231141770dee691ab5",
                "assets": [
                    {
                        "address": "0x467bccd9d29f223bce8043b84e8c8b282827790f",
                        "amount": "10,000",
                        "iconUrl": "https://assets.blocksec.com/icon/a6c85d035fadb4b958ad46b03886b58cdfb73b86720c08bbc9316c23a5cc9074.png",
                        "isERC1155": false,
                        "isERC721": false,
                        "sign": true,
                        "value": ""
                    }
                ]
            }
        ]
    },
    "profile": {
        "basic_info": {
            "baseFee": "",
            "blockNumber": 10496130,
            "callData": "0xa9059cbb00000000000000000000000055a8219ba0a9a23f72c8ec231141770dee691ab500000000000000000000000000000000000000000000000000000000000f4240",
            "debugEnable": true,
            "errorInfo": "",
            "eventCount": 1,
            "feeRecipient": "0x5a0b54d5dc17e0aadc383d2db43b0a0d3e029c4c",
            "formatValue": "0",
            "gasLimit": 128064,
            "gasPrice": "80",
            "gasUsed": 52043,
            "intTxnCount": 0,
            "internalRevert": false,
            "internalRevertMessage": "",
            "isContractCreation": false,
            "isFlashloan": false,
            "maxFee": "",
            "nonce": 2047489,
            "overwritedBlockNumber": -1,
            "priorityFee": "",
            "receiver": "0x467bccd9d29f223bce8043b84e8c8b282827790f",
            "revertMessage": "",
            "sender": "0x2b5634c42055806a59e9107ed44d43c426e58258",
            "simulationEnable": true,
            "sourceTxnHash": "0x518132bca3710f70bde01df9db18295e35f802ce547c1545de4e4c86444b0908",
            "status": true,
            "timestamp": "2020-07-20T11:29:42Z",
            "transactionFee": "0.00416344",
            "txnHash": "0x518132bca3710f70bde01df9db18295e35f802ce547c1545de4e4c86444b0908",
            "txnIndex": 83,
            "type": 0,
            "value": "0"
        },
        "fund_flow": [
            {
                "amount": "10,000",
                "from": "0x2b5634c42055806a59e9107ed44d43c426e58258",
                "id": 1,
                "isERC1155": false,
                "isERC721": false,
                "isReverted": false,
                "order": 1,
                "to": "0x55a8219ba0a9a23f72c8ec231141770dee691ab5",
                "token": "0x467bccd9d29f223bce8043b84e8c8b282827790f"
            }
        ],
        "token_infos": [
            {
                "address": "0x467bccd9d29f223bce8043b84e8c8b282827790f",
                "decimals": 2
            },
            {
                "address": "0xc02aaa39b223fe8d0a0e5c4f27ead9083c756cc2",
                "decimals": 18
            },
            {
                "address": "0xeeeeeeeeeeeeeeeeeeeeeeeeeeeeeeeeeeeeeeee",
                "decimals": 18
            }
        ]
    },
    "address_label": {
        "labels": [
            {
                "address": "0x0000000000000000000000000000000000000002",
                "label": "Precompiled"
            },
            {
                "address": "0x0000000000000000000000000000000000000003",
                "label": "Precompiled"
            },
            {
                "address": "0x0000000000000000000000000000000000000004",
                "label": "Precompiled"
            },
            {
                "address": "0xeeeeeeeeeeeeeeeeeeeeeeeeeeeeeeeeeeeeeeee",
                "label": "Ether"
            },
            {
                "address": "0x2b5634c42055806a59e9107ed44d43c426e58258",
                "label": "KuCoin"
            },
            {
                "address": "0x467bccd9d29f223bce8043b84e8c8b282827790f",
                "label": "Telcoin: TEL Token"
            },
            {
                "address": "0x0000000000000000000000000000000000000001",
                "label": "Precompiled"
            }
        ]
    },
    "trace": {
        "accountLabels": null,
        "dataMap": {
            "-1": {
                "invocation": {
                    "address": "0x2b5634c42055806a59e9107ed44d43c426e58258",
                    "callData": "",
                    "decodedMethod": null,
                    "errorInfo": "",
                    "fromAddress": "",
                    "gasUsed": 0,
                    "id": -1,
                    "methodDecoded": false,
                    "operation": "",
                    "output": "",
                    "revert": false,
                    "revertMessage": "",
                    "selector": "",
                    "status": false,
                    "value": ""
                },
                "nodeType": 0
            },
            "0": {
                "invocation": {
                    "address": "0x467bccd9d29f223bce8043b84e8c8b282827790f",
                    "callData": "0x00000000000000000000000055a8219ba0a9a23f72c8ec231141770dee691ab500000000000000000000000000000000000000000000000000000000000f4240",
                    "decodedMethod": {
                        "callParams": [
                            {
                                "name": "_to",
                                "type": "address",
                                "value": "0x55a8219ba0a9a23f72c8ec231141770dee691ab5"
                            },
                            {
                                "decimalAvailable": true,
                                "name": "_value",
                                "type": "uint256",
                                "value": "1,000,000"
                            }
                        ],
                        "constructorArguments": "",
                        "name": "transfer",
                        "returnParams": [
                            {
                                "name": "",
                                "type": "bool",
                                "value": true
                            }
                        ],
                        "signature": "transfer(address,uint256)"
                    },
                    "errorInfo": "",
                    "fromAddress": "0x2b5634c42055806a59e9107ed44d43c426e58258",
                    "gasUsed": 52043,
                    "id": 0,
                    "methodDecoded": true,
                    "operation": "CALL",
                    "output": "0x0000000000000000000000000000000000000000000000000000000000000001",
                    "revert": false,
                    "revertMessage": "",
                    "selector": "0xa9059cbb",
                    "status": true,
                    "value": "0"
                },
                "nodeType": 0
            },
            "1": {
                "event": {
                    "contract": "0x467bccd9d29f223bce8043b84e8c8b282827790f",
                    "decodedLog": {
                        "name": "Transfer",
                        "params": [
                            {
                                "name": "_from",
                                "type": "address",
                                "value": "0x2b5634c42055806a59e9107ed44d43c426e58258"
                            },
                            {
                                "name": "_to",
                                "type": "address",
                                "value": "0x55a8219ba0a9a23f72c8ec231141770dee691ab5"
                            },
                            {
                                "decimalAvailable": true,
                                "name": "_value",
                                "type": "uint256",
                                "value": "1,000,000"
                            }
                        ],
                        "signature": "Transfer(address,address,uint256)"
                    },
                    "id": 1,
                    "logData": "0x00000000000000000000000000000000000000000000000000000000000f4240",
                    "logDecoded": true,
                    "operation": "EVENT",
                    "revert": false,
                    "status": true,
                    "topics": [
                        "0xddf252ad1be2c89b69c2b068fc378daa952ba7f163c4a11628f55a4df523b3ef",
                        "0x0000000000000000000000002b5634c42055806a59e9107ed44d43c426e58258",
                        "0x00000000000000000000000055a8219ba0a9a23f72c8ec231141770dee691ab5"
                    ]
                },
                "nodeType": 1
            }
        },
        "gasFlame": [
            {
                "children": [
                    {
                        "children": [
                            {
                                "children": [],
                                "depth": 0,
                                "name": "Initial Gas",
                                "value": 21596
                            },
                            {
                                "children": [],
                                "depth": 0,
                                "name": "Executed Gas",
                                "value": 30447
                            }
                        ],
                        "depth": -1,
                        "name": "Actual Gas Used",
                        "value": 52043
                    },
                    {
                        "children": [],
                        "depth": -1,
                        "name": "Refunded Gas",
                        "value": 0
                    }
                ],
                "depth": -2,
                "name": "Total Gas",
                "value": 52043
            }
        ],
        "isConfirmed": true,
        "mainTrace": [
            {
                "children": [
                    {
                        "children": [
                            {
                                "children": [],
                                "depth": 1,
                                "id": 1,
                                "order": 1
                            }
                        ],
                        "depth": 0,
                        "id": 0,
                        "order": 0
                    }
                ],
                "depth": -1,
                "id": -1,
                "order": -1
            }
        ],
        "mainTraceNodeCount": 2,
        "parentIdMap": {
            "0": -1,
            "1": 0
        },
        "tidyTrace": [
            {
                "children": [
                    {
                        "children": [
                            {
                                "children": [],
                                "depth": 1,
                                "id": 1,
                                "order": 1
                            }
                        ],
                        "depth": 0,
                        "id": 0,
                        "order": 0
                    }
                ],
                "depth": -1,
                "id": -1,
                "order": -1
            }
        ],
        "tidyTraceNodeCount": 2
    },
    "state_change": {
        "stateChanges": [
            {
                "address": "0x467bccd9d29f223bce8043b84e8c8b282827790f",
                "erc": "ERC-20",
                "slots": [
                    {
                        "current": "0x00000000000000000000000000000000000000000000000000000005ada3eb34",
                        "key": "0xd375720fa3711e53ee093c73175728eda5b1adff07b261a9c2f6b97c057f4678",
                        "prev": "0x00000000000000000000000000000000000000000000000000000005adb32d74"
                    },
                    {
                        "current": "0x00000000000000000000000000000000000000000000000000000000000f4240",
                        "key": "0xf5d525313da2c90a9c97aced5f484b39bb98ba6bc113e4e94c87d26a15758db5",
                        "prev": "0x0000000000000000000000000000000000000000000000000000000000000000"
                    }
                ],
                "storageVariables": [
                    {
                        "name": "balances",
                        "type": "mapping(address => uint256)",
                        "value": {
                            "pairs": [
                                {
                                    "key": "0x2b5634c42055806a59e9107ed44d43c426e58258",
                                    "value": {
                                        "current": "24388037428",
                                        "prev": "24389037428",
                                        "typeTag": 1
                                    }
                                },
                                {
                                    "key": "0x55a8219ba0a9a23f72c8ec231141770dee691ab5",
                                    "value": {
                                        "current": "1000000",
                                        "prev": "0",
                                        "typeTag": 1
                                    }
                                }
                            ],
                            "typeTag": 4
                        }
                    }
                ]
            }
        ]
    }
}