{
    "balance_change": {
        "balanceChanges": []
    },
    "profile": {
        "basic_info": {
            "baseFee": "",
            "blockNumber": 4625768,
            "callData": "0x0a19b14a0000000000000000000000000000000000000000000000000000000000000000000000000000000000000000000000000000000000000000243bb586e72c0000000000000000000000000000540449e4d172cd9491c76320440cd74933d5691a0000000000000000000000000000000000000000000001ba4cdee7c3ec1c0000000000000000000000000000000000000000000000000000000000000046b6a1000000000000000000000000000000000000000000000000000000004ccae131000000000000000000000000c74b7f19398367109dc72c9eb48fdb5299d50fcb000000000000000000000000000000000000000000000000000000000000001b20ffd1a814b46dcd2d34b1f9357f84fc304f6586aa18f9999f53ef1082ffe6b476193cbf9c27e242503556bbdefa71f2927449302e864f77abed0bbfaa9f504d0000000000000000000000000000000000000000000000000012cf3a8f4c8000",
            "debugEnable": true,
            "errorInfo": "",
            "eventCount": 1,
            "feeRecipient": "0x829bd824b016326a401d083b33d092293333a830",
            "formatValue": "0",
            "gasLimit": 250000,
            "gasPrice": "4",
            "gasUsed": 78114,
            "intTxnCount": 2,
            "internalRevert": false,
            "internalRevertMessage": "",
            "isContractCreation": false,
            "isFlashloan": false,
            "maxFee": "",
            "nonce": 11,
            "overwritedBlockNumber": -1,
            "priorityFee": "",
            "receiver": "0x8d12a197cb00d4747a1fe03395095ce2a5cc6819",
            "revertMessage": "",
            "sender": "0x9b1c598add44223fa95072bd7e4acec10501d191",
            "simulationEnable": true,
            "sourceTxnHash": "0x51ba4d1e3b85717385fa8f94ae5656e375646519b84fe33640f4daaf8a1aaa47",
            "status": true,
            "timestamp": "2017-11-26T13:19:46Z",
            "transactionFee": "0.000312456",
            "txnHash": "0x51ba4d1e3b85717385fa8f94ae5656e375646519b84fe33640f4daaf8a1aaa47",
            "txnIndex": 75,
            "type": 0,
            "value": "0"
        },
        "fund_flow": [],
        "token_infos": [
            {
                "address": "0xc02aaa39b223fe8d0a0e5c4f27ead9083c756cc2",
                "decimals": 18
            },
            {
                "address": "0xeeeeeeeeeeeeeeeeeeeeeeeeeeeeeeeeeeeeeeee",
                "decimals": 18
            }
        ]
    },
    "address_label": {
        "labels": [
            {
                "address": "0x0000000000000000000000000000000000000003",
                "label": "Precompiled"
            },
            {
                "address": "0x0000000000000000000000000000000000000004",
                "label": "Precompiled"
            },
            {
                "address": "0xeeeeeeeeeeeeeeeeeeeeeeeeeeeeeeeeeeeeeeee",
                "label": "Ether"
            },
            {
                "address": "0x8d12a197cb00d4747a1fe03395095ce2a5cc6819",
                "label": "EtherDelta"
            },
            {
                "address": "0x0000000000000000000000000000000000000002",
                "label": "Precompiled"
            },
            {
                "address": "0x0000000000000000000000000000000000000000",
                "label": "Null Address"
            },
            {
                "address": "0x540449e4d172cd9491c76320440cd74933d5691a",
                "label": "Decent.Bet Token v1"
            },
            {
                "address": "0x0000000000000000000000000000000000000001",
                "label": "Precompiled"
            }
        ]
    },
    "trace": {
        "accountLabels": null,
        "dataMap": {
            "-1": {
                "invocation": {
                    "address": "0x9b1c598add44223fa95072bd7e4acec10501d191",
                    "callData": "",
                    "decodedMethod": null,
                    "errorInfo": "",
                    "fromAddress": "",
                    "gasUsed": 0,
                    "id": -1,
                    "methodDecoded": false,
                    "operation": "",
                    "output": "",
                    "revert": false,
                    "revertMessage": "",
                    "selector": "",
                    "status": false,
                    "value": ""
                },
                "nodeType": 0
            },
            "0": {
                "invocation": {
                    "address": "0x8d12a197cb00d4747a1fe03395095ce2a5cc6819",
                    "callData": "0x0000000000000000000000000000000000000000000000000000000000000000000000000000000000000000000000000000000000000000243bb586e72c0000000000000000000000000000540449e4d172cd9491c76320440cd74933d5691a0000000000000000000000000000000000000000000001ba4cdee7c3ec1c0000000000000000000000000000000000000000000000000000000000000046b6a1000000000000000000000000000000000000000000000000000000004ccae131000000000000000000000000c74b7f19398367109dc72c9eb48fdb5299d50fcb000000000000000000000000000000000000000000000000000000000000001b20ffd1a814b46dcd2d34b1f9357f84fc304f6586aa18f9999f53ef1082ffe6b476193cbf9c27e242503556bbdefa71f2927449302e864f77abed0bbfaa9f504d0000000000000000000000000000000000000000000000000012cf3a8f4c8000",
                    "decodedMethod": {
                        "callParams": [
                            {
                                "name": "tokenGet",
                                "type": "address",
                                "value": "0x0000000000000000000000000000000000000000"
                            },
                            {
                                "name": "amountGet",
                                "type": "uint256",
                                "value": "2,610,880,000,000,000,000"
                            },
                            {
                                "name": "tokenGive",
                                "type": "address",
                                "value": "0x540449e4d172cd9491c76320440cd74933d5691a"
                            },
                            {
                                "name": "amountGive",
                                "type": "uint256",
                                "value": "8,159,000,000,000,000,000,000"
                            },
                            {
                                "name": "expires",
                                "type": "uint256",
                                "value": "4,634,273"
                            },
                            {
                                "name": "nonce",
                                "type": "uint256",
                                "value": "1,288,364,337"
                            },
                            {
                                "name": "user",
                                "type": "address",
                                "value": "0xc74b7f19398367109dc72c9eb48fdb5299d50fcb"
                            },
                            {
                                "name": "v",
                                "type": "uint8",
                                "value": "27"
                            },
                            {
                                "name": "r",
                                "type": "bytes32",
                                "value": "0x20ffd1a814b46dcd2d34b1f9357f84fc304f6586aa18f9999f53ef1082ffe6b4"
                            },
                            {
                                "name": "s",
                                "type": "bytes32",
                                "value": "0x76193cbf9c27e242503556bbdefa71f2927449302e864f77abed0bbfaa9f504d"
                            },
                            {
                                "name": "amount",
                                "type": "uint256",
                                "value": "5,294,400,000,000,000"
                            }
                        ],
                        "constructorArguments": "",
                        "name": "trade",
                        "returnParams": [],
                        "signature": "trade(address,uint256,address,uint256,uint256,uint256,address,uint8,bytes32,bytes32,uint256)"
                    },
                    "errorInfo": "",
                    "fromAddress": "0x9b1c598add44223fa95072bd7e4acec10501d191",
                    "gasUsed": 78114,
                    "id": 0,
                    "methodDecoded": true,
                    "operation": "CALL",
                    "output": "",
                    "revert": false,
                    "revertMessage": "",
                    "selector": "0x0a19b14a",
                    "status": true,
                    "value": "0"
                },
                "nodeType": 0
            },
            "1": {
                "invocation": {
                    "address": "0x0000000000000000000000000000000000000002",
                    "callData": "0xcb00d4747a1fe03395095ce2a5cc68190000000000000000000000000000000000000000000000000000000000000000000000000000000000000000243bb586e72c0000540449e4d172cd9491c76320440cd74933d5691a0000000000000000000000000000000000000000000001ba4cdee7c3ec1c0000000000000000000000000000000000000000000000000000000000000046b6a1000000000000000000000000000000000000000000000000000000004ccae131",
                    "decodedMethod": {
                        "callParams": [
                            {
                                "name": "data",
                                "type": "bytes",
                                "value": "0x8d12a197cb00d4747a1fe03395095ce2a5cc68190000000000000000000000000000000000000000000000000000000000000000000000000000000000000000243bb586e72c0000540449e4d172cd9491c76320440cd74933d5691a0000000000000000000000000000000000000000000001ba4cdee7c3ec1c0000000000000000000000000000000000000000000000000000000000000046b6a1000000000000000000000000000000000000000000000000000000004ccae131"
                            }
                        ],
                        "constructorArguments": "",
                        "name": "sha256hash",
                        "returnParams": [
                            {
                                "name": "hash",
                                "type": "bytes32",
                                "value": "0x72ae270f5a9235abc94514313b6f1bd264e4955300a136cbf634ea248ffbd807"
                            }
                        ],
                        "signature": "sha256hash(bytes)"
                    },
                    "errorInfo": "",
                    "fromAddress": "0x8d12a197cb00d4747a1fe03395095ce2a5cc6819",
                    "gasUsed": 132,
                    "id": 1,
                    "methodDecoded": true,
                    "operation": "CALL",
                    "output": "0x72ae270f5a9235abc94514313b6f1bd264e4955300a136cbf634ea248ffbd807",
                    "revert": false,
                    "revertMessage": "",
                    "selector": "0x8d12a197",
                    "status": true,
                    "value": "0"
                },
                "nodeType": 0
            },
            "2": {
                "invocation": {
                    "address": "0x0000000000000000000000000000000000000001",
                    "callData": "0xd6b2ae43c3c1fc543c37840f9ae4432dfaf9c1c761c5750c676b0705000000000000000000000000000000000000000000000000000000000000001b20ffd1a814b46dcd2d34b1f9357f84fc304f6586aa18f9999f53ef1082ffe6b476193cbf9c27e242503556bbdefa71f2927449302e864f77abed0bbfaa9f504d",
                    "decodedMethod": {
                        "callParams": [
                            {
                                "name": "hash",
                                "type": "bytes32",
                                "value": "0xdd5d10ffd6b2ae43c3c1fc543c37840f9ae4432dfaf9c1c761c5750c676b0705"
                            },
                            {
                                "name": "v",
                                "type": "uint256",
                                "value": "27"
                            },
                            {
                                "name": "r",
                                "type": "bytes32",
                                "value": "0x20ffd1a814b46dcd2d34b1f9357f84fc304f6586aa18f9999f53ef1082ffe6b4"
                            },
                            {
                                "name": "s",
                                "type": "bytes32",
                                "value": "0x76193cbf9c27e242503556bbdefa71f2927449302e864f77abed0bbfaa9f504d"
                            }
                        ],
                        "constructorArguments": "",
                        "name": "ecrecover",
                        "returnParams": [
                            {
                                "name": "",
                                "type": "address",
                                "value": "0xc74b7f19398367109dc72c9eb48fdb5299d50fcb"
                            }
                        ],
                        "signature": "ecrecover(bytes32,uint256,bytes32,bytes32)"
                    },
                    "errorInfo": "",
                    "fromAddress": "0x8d12a197cb00d4747a1fe03395095ce2a5cc6819",
                    "gasUsed": 3000,
                    "id": 2,
                    "methodDecoded": true,
                    "operation": "CALL",
                    "output": "0x000000000000000000000000c74b7f19398367109dc72c9eb48fdb5299d50fcb",
                    "revert": false,
                    "revertMessage": "",
                    "selector": "0xdd5d10ff",
                    "status": true,
                    "value": "0"
                },
                "nodeType": 0
            },
            "3": {
                "event": {
                    "contract": "0x8d12a197cb00d4747a1fe03395095ce2a5cc6819",
                    "decodedLog": {
                        "name": "Trade",
                        "params": [
                            {
                                "name": "tokenGet",
                                "type": "address",
                                "value": "0x0000000000000000000000000000000000000000"
                            },
                            {
                                "name": "amountGet",
                                "type": "uint256",
                                "value": "5,294,400,000,000,000"
                            },
                            {
                                "name": "tokenGive",
                                "type": "address",
                                "value": "0x540449e4d172cd9491c76320440cd74933d5691a"
                            },
                            {
                                "name": "amountGive",
                                "type": "uint256",
                                "value": "16,545,000,000,000,000,000"
                            },
                            {
                                "name": "get",
                                "type": "address",
                                "value": "0xc74b7f19398367109dc72c9eb48fdb5299d50fcb"
                            },
                            {
                                "name": "give",
                                "type": "address",
                                "value": "0x9b1c598add44223fa95072bd7e4acec10501d191"
                            }
                        ],
                        "signature": "Trade(address,uint256,address,uint256,address,address)"
                    },
                    "id": 3,
                    "logData": "0x00000000000000000000000000000000000000000000000000000000000000000000000000000000000000000000000000000000000000000012cf3a8f4c8000000000000000000000000000540449e4d172cd9491c76320440cd74933d5691a000000000000000000000000000000000000000000000000e59ba5d740d68000000000000000000000000000c74b7f19398367109dc72c9eb48fdb5299d50fcb0000000000000000000000009b1c598add44223fa95072bd7e4acec10501d191",
                    "logDecoded": true,
                    "operation": "EVENT",
                    "revert": false,
                    "status": true,
                    "topics": [
                        "0x6effdda786735d5033bfad5f53e5131abcced9e52be6c507b62d639685fbed6d"
                    ]
                },
                "nodeType": 1
            }
        },
        "gasFlame": [
            {
                "children": [
                    {
                        "children": [
                            {
                                "children": [],
                                "depth": 0,
                                "name": "Initial Gas",
                                "value": 31128
                            },
                            {
                                "children": [
                                    {
                                        "children": [],
                                        "depth": 1,
                                        "name": "sha256hash",
                                        "value": 132
                                    },
                                    {
                                        "children": [],
                                        "depth": 1,
                                        "name": "ecrecover",
                                        "value": 3000
                                    }
                                ],
                                "depth": 0,
                                "name": "Executed Gas",
                                "value": 46986
                            }
                        ],
                        "depth": -1,
                        "name": "Actual Gas Used",
                        "value": 78114
                    },
                    {
                        "children": [],
                        "depth": -1,
                        "name": "Refunded Gas",
                        "value": 0
                    }
                ],
                "depth": -2,
                "name": "Total Gas",
                "value": 78114
            }
        ],
        "isConfirmed": true,
        "mainTrace": [
            {
                "children": [
                    {
                        "children": [
                            {
                                "children": [],
                                "depth": 1,
                                "id": 1,
                                "order": 1
                            },
                            {
                                "children": [],
                                "depth": 1,
                                "id": 2,
                                "order": 2
                            },
                            {
                                "children": [],
                                "depth": 1,
                                "id": 3,
                                "order": 3
                            }
                        ],
                        "depth": 0,
                        "id": 0,
                        "order": 0
                    }
                ],
                "depth": -1,
                "id": -1,
                "order": -1
            }
        ],
        "mainTraceNodeCount": 4,
        "parentIdMap": {
            "0": -1,
            "1": 0,
            "2": 0,
            "3": 0
        },
        "tidyTrace": [
            {
                "children": [
                    {
                        "children": [
                            {
                                "children": [],
                                "depth": 1,
                                "id": 1,
                                "order": 1
                            },
                            {
                                "children": [],
                                "depth": 1,
                                "id": 2,
                                "order": 2
                            },
                            {
                                "children": [],
                                "depth": 1,
                                "id": 3,
                                "order": 3
                            }
                        ],
                        "depth": 0,
                        "id": 0,
                        "order": 0
                    }
                ],
                "depth": -1,
                "id": -1,
                "order": -1
            }
        ],
        "tidyTraceNodeCount": 4
    },
    "state_change": {
        "stateChanges": [
            {
                "address": "0x8d12a197cb00d4747a1fe03395095ce2a5cc6819",
                "erc": "",
                "slots": [
                    {
                        "current": "0x00000000000000000000000000000000000000000000000cbfd96e1570b405bd",
                        "key": "0x9db71ea29ae27159ae6b0bc7608a91ca5e83d8e7e559f64559591e0344fb950e",
                        "prev": "0x00000000000000000000000000000000000000000000000cbfd95fa3583595bd"
                    },
                    {
                        "current": "0x00000000000000000000000000000000000000000000000000017673bdbc5cd9",
                        "key": "0xc58ba63aed39da576239605b8a1c6dc80f33315bf0b0138ec06b9ab2ad7f81d7",
                        "prev": "0x000000000000000000000000000000000000000000000000e59d1c4afe92dcd9"
                    },
                    {
                        "current": "0x0000000000000000000000000000000000000000000000023cb5635a4ed20000",
                        "key": "0x49fb65e7979ec535dea21459c8045325db653878b127fea2b51b85008bab6da8",
                        "prev": "0x0000000000000000000000000000000000000000000000015719bd830dfb8000"
                    },
                    {
                        "current": "0x000000000000000000000000000000000000000000000000243bb5683a57856b",
                        "key": "0xb984b3eca7cc3750ab8ca52d5d1e0453f6a04f194d893d42a88647cd22551aca",
                        "prev": "0x0000000000000000000000000000000000000000000000002428e62dab0b056b"
                    },
                    {
                        "current": "0x0000000000000000000000000000000000000000000000000acc85278b759bcd",
                        "key": "0x01ec52fafb7b09b8967081d522de27490d83d74e47c653bcd45b16ec78429384",
                        "prev": "0x0000000000000000000000000000000000000000000000000adf62d433408bcd"
                    },
                    {
                        "current": "0x000000000000000000000000000000000000000000000000243bf7fea9a3b02a",
                        "key": "0x27fa1c4d45af44a5175e41069f855b8723192935d618f9301d375dbc6726b0d0",
                        "prev": "0x000000000000000000000000000000000000000000000000242928c41a57302a"
                    }
                ],
                "storageVariables": []
            }
        ]
    }
}