{
    "balance_change": {
        "balanceChanges": [
            {
                "account": "0x2956bfb645520bbfec3fdb3a95877cd45635d818",
                "assets": [
                    {
                        "address": "0xbf2179859fc6d5bee9bf9158632dc51678a4100e",
                        "amount": "0.02017",
                        "iconUrl": "https://assets.blocksec.com/icon/e06cfc226becfcbb2c2d25dc6e028dc10b89f10fe9f1a23070d5cb6aa75abf54.png",
                        "isERC1155": false,
                        "isERC721": false,
                        "sign": true,
                        "value": ""
                    }
                ]
            },
            {
                "account": "0x3b76060020c35c96410e1058597760b263e68805",
                "assets": [
                    {
                        "address": "0xbf2179859fc6d5bee9bf9158632dc51678a4100e",
                        "amount": "0.02017",
                        "iconUrl": "https://assets.blocksec.com/icon/e06cfc226becfcbb2c2d25dc6e028dc10b89f10fe9f1a23070d5cb6aa75abf54.png",
                        "isERC1155": false,
                        "isERC721": false,
                        "sign": false,
                        "value": ""
                    }
                ]
            }
        ]
    },
    "profile": {
        "basic_info": {
            "baseFee": "",
            "blockNumber": 6182304,
            "callData": "0x3ef13367000000000000000000000000bf2179859fc6d5bee9bf9158632dc51678a4100e",
            "debugEnable": true,
            "errorInfo": "",
            "eventCount": 1,
            "feeRecipient": "0x4a071eee72bc8664c81b62836932ed0d246da82b",
            "formatValue": "0",
            "gasLimit": 300000,
            "gasPrice": "1.6",
            "gasUsed": 27078,
            "intTxnCount": 2,
            "internalRevert": false,
            "internalRevertMessage": "",
            "isContractCreation": false,
            "isFlashloan": false,
            "maxFee": "",
            "nonce": 226,
            "overwritedBlockNumber": -1,
            "priorityFee": "",
            "receiver": "0x3b76060020c35c96410e1058597760b263e68805",
            "revertMessage": "",
            "sender": "0x2956bfb645520bbfec3fdb3a95877cd45635d818",
            "simulationEnable": true,
            "sourceTxnHash": "0x51fc4432ed55334cdbaf598473f6b3e1ce1a6a1a215f149369e4a3b77e4d83f7",
            "status": true,
            "timestamp": "2018-08-20T16:23:24Z",
            "transactionFee": "0.0000433248",
            "txnHash": "0x51fc4432ed55334cdbaf598473f6b3e1ce1a6a1a215f149369e4a3b77e4d83f7",
            "txnIndex": 165,
            "type": 0,
            "value": "0"
        },
        "fund_flow": [
            {
                "amount": "0.02017",
                "from": "0x3b76060020c35c96410e1058597760b263e68805",
                "id": 1,
                "isERC1155": false,
                "isERC721": false,
                "isReverted": false,
                "order": 1,
                "to": "0x2956bfb645520bbfec3fdb3a95877cd45635d818",
                "token": "0xbf2179859fc6d5bee9bf9158632dc51678a4100e"
            }
        ],
        "token_infos": [
            {
                "address": "0xbf2179859fc6d5bee9bf9158632dc51678a4100e",
                "decimals": 18
            },
            {
                "address": "0xc02aaa39b223fe8d0a0e5c4f27ead9083c756cc2",
                "decimals": 18
            },
            {
                "address": "0xeeeeeeeeeeeeeeeeeeeeeeeeeeeeeeeeeeeeeeee",
                "decimals": 18
            }
        ]
    },
    "address_label": {
        "labels": [
            {
                "address": "0x0000000000000000000000000000000000000002",
                "label": "Precompiled"
            },
            {
                "address": "0x0000000000000000000000000000000000000003",
                "label": "Precompiled"
            },
            {
                "address": "0x0000000000000000000000000000000000000004",
                "label": "Precompiled"
            },
            {
                "address": "0xeeeeeeeeeeeeeeeeeeeeeeeeeeeeeeeeeeeeeeee",
                "label": "Ether"
            },
            {
                "address": "0xbf2179859fc6d5bee9bf9158632dc51678a4100e",
                "label": "Aelf: ELF Token"
            },
            {
                "address": "0x0000000000000000000000000000000000000001",
                "label": "Precompiled"
            }
        ]
    },
    "trace": {
        "accountLabels": null,
        "dataMap": {
            "-1": {
                "invocation": {
                    "address": "0x2956bfb645520bbfec3fdb3a95877cd45635d818",
                    "callData": "",
                    "decodedMethod": null,
                    "errorInfo": "",
                    "fromAddress": "",
                    "gasUsed": 0,
                    "id": -1,
                    "methodDecoded": false,
                    "operation": "",
                    "output": "",
                    "revert": false,
                    "revertMessage": "",
                    "selector": "",
                    "status": false,
                    "value": ""
                },
                "nodeType": 0
            },
            "0": {
                "invocation": {
                    "address": "0x3b76060020c35c96410e1058597760b263e68805",
                    "callData": "0x000000000000000000000000bf2179859fc6d5bee9bf9158632dc51678a4100e",
                    "decodedMethod": {
                        "callParams": [
                            {
                                "name": "tokenContractAddress",
                                "type": "address",
                                "value": "0xbf2179859fc6d5bee9bf9158632dc51678a4100e"
                            }
                        ],
                        "constructorArguments": "",
                        "name": "flushTokens",
                        "returnParams": [],
                        "signature": "flushTokens(address)"
                    },
                    "errorInfo": "",
                    "fromAddress": "0x2956bfb645520bbfec3fdb3a95877cd45635d818",
                    "gasUsed": 27078,
                    "id": 0,
                    "methodDecoded": true,
                    "operation": "CALL",
                    "output": "",
                    "revert": false,
                    "revertMessage": "",
                    "selector": "0x3ef13367",
                    "status": true,
                    "value": "0"
                },
                "nodeType": 0
            },
            "1": {
                "invocation": {
                    "address": "0xbf2179859fc6d5bee9bf9158632dc51678a4100e",
                    "callData": "0x0000000000000000000000003b76060020c35c96410e1058597760b263e68805",
                    "decodedMethod": {
                        "callParams": [
                            {
                                "name": "_owner",
                                "type": "address",
                                "value": "0x3b76060020c35c96410e1058597760b263e68805"
                            }
                        ],
                        "constructorArguments": "",
                        "name": "balanceOf",
                        "returnParams": [
                            {
                                "decimalAvailable": true,
                                "name": "balance",
                                "type": "uint256",
                                "value": "20,170,000,000,000,000"
                            }
                        ],
                        "signature": "balanceOf(address)"
                    },
                    "errorInfo": "",
                    "fromAddress": "0x3b76060020c35c96410e1058597760b263e68805",
                    "gasUsed": 925,
                    "id": 1,
                    "methodDecoded": true,
                    "operation": "CALL",
                    "output": "0x0000000000000000000000000000000000000000000000000047a882151ea000",
                    "revert": false,
                    "revertMessage": "",
                    "selector": "0x70a08231",
                    "status": true,
                    "value": "0"
                },
                "nodeType": 0
            },
            "2": {
                "invocation": {
                    "address": "0xbf2179859fc6d5bee9bf9158632dc51678a4100e",
                    "callData": "0x0000000000000000000000002956bfb645520bbfec3fdb3a95877cd45635d8180000000000000000000000000000000000000000000000000047a882151ea000",
                    "decodedMethod": {
                        "callParams": [
                            {
                                "name": "_to",
                                "type": "address",
                                "value": "0x2956bfb645520bbfec3fdb3a95877cd45635d818"
                            },
                            {
                                "decimalAvailable": true,
                                "name": "_value",
                                "type": "uint256",
                                "value": "20,170,000,000,000,000"
                            }
                        ],
                        "constructorArguments": "",
                        "name": "transfer",
                        "returnParams": [
                            {
                                "name": "",
                                "type": "bool",
                                "value": true
                            }
                        ],
                        "signature": "transfer(address,uint256)"
                    },
                    "errorInfo": "",
                    "fromAddress": "0x3b76060020c35c96410e1058597760b263e68805",
                    "gasUsed": 14320,
                    "id": 2,
                    "methodDecoded": true,
                    "operation": "CALL",
                    "output": "0x0000000000000000000000000000000000000000000000000000000000000001",
                    "revert": false,
                    "revertMessage": "",
                    "selector": "0xa9059cbb",
                    "status": true,
                    "value": "0"
                },
                "nodeType": 0
            },
            "3": {
                "event": {
                    "contract": "0xbf2179859fc6d5bee9bf9158632dc51678a4100e",
                    "decodedLog": {
                        "name": "Transfer",
                        "params": [
                            {
                                "name": "from",
                                "type": "address",
                                "value": "0x3b76060020c35c96410e1058597760b263e68805"
                            },
                            {
                                "name": "to",
                                "type": "address",
                                "value": "0x2956bfb645520bbfec3fdb3a95877cd45635d818"
                            },
                            {
                                "decimalAvailable": true,
                                "name": "value",
                                "type": "uint256",
                                "value": "20,170,000,000,000,000"
                            }
                        ],
                        "signature": "Transfer(address,address,uint256)"
                    },
                    "id": 3,
                    "logData": "0x0000000000000000000000000000000000000000000000000047a882151ea000",
                    "logDecoded": true,
                    "operation": "EVENT",
                    "revert": false,
                    "status": true,
                    "topics": [
                        "0xddf252ad1be2c89b69c2b068fc378daa952ba7f163c4a11628f55a4df523b3ef",
                        "0x0000000000000000000000003b76060020c35c96410e1058597760b263e68805",
                        "0x0000000000000000000000002956bfb645520bbfec3fdb3a95877cd45635d818"
                    ]
                },
                "nodeType": 1
            }
        },
        "gasFlame": [
            {
                "children": [
                    {
                        "children": [
                            {
                                "children": [],
                                "depth": 0,
                                "name": "Initial Gas",
                                "value": 22680
                            },
                            {
                                "children": [
                                    {
                                        "children": [],
                                        "depth": 1,
                                        "name": "balanceOf",
                                        "value": 925
                                    },
                                    {
                                        "children": [],
                                        "depth": 1,
                                        "name": "transfer",
                                        "value": 14320
                                    }
                                ],
                                "depth": 0,
                                "name": "Executed Gas",
                                "value": 19398
                            }
                        ],
                        "depth": -1,
                        "name": "Actual Gas Used",
                        "value": 27078
                    },
                    {
                        "children": [],
                        "depth": -1,
                        "name": "Refunded Gas",
                        "value": 15000
                    }
                ],
                "depth": -2,
                "name": "Total Gas",
                "value": 42078
            }
        ],
        "isConfirmed": true,
        "mainTrace": [
            {
                "children": [
                    {
                        "children": [
                            {
                                "children": [],
                                "depth": 1,
                                "id": 1,
                                "order": 1
                            },
                            {
                                "children": [
                                    {
                                        "children": [],
                                        "depth": 2,
                                        "id": 3,
                                        "order": 3
                                    }
                                ],
                                "depth": 1,
                                "id": 2,
                                "order": 2
                            }
                        ],
                        "depth": 0,
                        "id": 0,
                        "order": 0
                    }
                ],
                "depth": -1,
                "id": -1,
                "order": -1
            }
        ],
        "mainTraceNodeCount": 4,
        "parentIdMap": {
            "0": -1,
            "1": 0,
            "2": 0,
            "3": 2
        },
        "tidyTrace": [
            {
                "children": [
                    {
                        "children": [
                            {
                                "children": [],
                                "depth": 1,
                                "id": 1,
                                "order": 1
                            },
                            {
                                "children": [
                                    {
                                        "children": [],
                                        "depth": 2,
                                        "id": 3,
                                        "order": 3
                                    }
                                ],
                                "depth": 1,
                                "id": 2,
                                "order": 2
                            }
                        ],
                        "depth": 0,
                        "id": 0,
                        "order": 0
                    }
                ],
                "depth": -1,
                "id": -1,
                "order": -1
            }
        ],
        "tidyTraceNodeCount": 4
    },
    "state_change": {
        "stateChanges": [
            {
                "address": "0xbf2179859fc6d5bee9bf9158632dc51678a4100e",
                "erc": "ERC-20",
                "slots": [
                    {
                        "current": "0x0000000000000000000000000000000000000000000000000000000000000000",
                        "key": "0x3ec0c4fbe00b0bec2fe1626bd30b6024fdc755dc83ce35d07ebbd7c50ca4c3c5",
                        "prev": "0x0000000000000000000000000000000000000000000000000047a882151ea000"
                    },
                    {
                        "current": "0x0000000000000000000000000000000000000000000000000dd9257a6204e000",
                        "key": "0x4e02ba837d6fc8f0652936cbd79edbc2778bcb8ed1048bd62e6b2a8888ed9e64",
                        "prev": "0x0000000000000000000000000000000000000000000000000d917cf84ce64000"
                    }
                ],
                "storageVariables": [
                    {
                        "name": "balances",
                        "type": "mapping(address => uint256)",
                        "value": {
                            "pairs": [
                                {
                                    "key": "0x2956bfb645520bbfec3fdb3a95877cd45635d818",
                                    "value": {
                                        "current": "997870000000000000",
                                        "prev": "977700000000000000",
                                        "typeTag": 1
                                    }
                                },
                                {
                                    "key": "0x3b76060020c35c96410e1058597760b263e68805",
                                    "value": {
                                        "current": "0",
                                        "prev": "20170000000000000",
                                        "typeTag": 1
                                    }
                                }
                            ],
                            "typeTag": 4
                        }
                    }
                ]
            }
        ]
    }
}