{
    "balance_change": {
        "balanceChanges": []
    },
    "profile": {
        "basic_info": {
            "baseFee": "105.8608712",
            "blockNumber": 13116849,
            "callData": "0xc6caa959000000000000000000000000000000000000000000000000000000000000005100000000000000000000000000000000000000000000001ad5814560aa5c0000",
            "debugEnable": true,
            "errorInfo": "",
            "eventCount": 0,
            "feeRecipient": "0xea674fdde714fd979de3edf0f56aa9716b898ec8",
            "formatValue": "0",
            "gasLimit": 32389,
            "gasPrice": "107.3608712",
            "gasUsed": 32389,
            "intTxnCount": 0,
            "internalRevert": false,
            "internalRevertMessage": "",
            "isContractCreation": false,
            "isFlashloan": false,
            "maxFee": "137.508503448",
            "nonce": 294,
            "overwritedBlockNumber": -1,
            "priorityFee": "1.5",
            "receiver": "0x37504ae0282f5f334ed29b4548646f887977b7cc",
            "revertMessage": "",
            "sender": "0x07cc65ec4de72fdf7d2b6c39fd80c4ea4706215b",
            "simulationEnable": true,
            "sourceTxnHash": "0x517002aad36724b5c6daa1ee9e3c6ed6f1c72cebdd7995923da43dc5e421cc1c",
            "status": true,
            "timestamp": "2021-08-28T23:23:52Z",
            "transactionFee": "0.0034773112572968",
            "txnHash": "0x517002aad36724b5c6daa1ee9e3c6ed6f1c72cebdd7995923da43dc5e421cc1c",
            "txnIndex": 272,
            "type": 2,
            "value": "0"
        },
        "fund_flow": [],
        "token_infos": [
            {
                "address": "0xc02aaa39b223fe8d0a0e5c4f27ead9083c756cc2",
                "decimals": 18
            },
            {
                "address": "0xeeeeeeeeeeeeeeeeeeeeeeeeeeeeeeeeeeeeeeee",
                "decimals": 18
            }
        ]
    },
    "address_label": {
        "labels": [
            {
                "address": "0x0000000000000000000000000000000000000003",
                "label": "Precompiled"
            },
            {
                "address": "0x0000000000000000000000000000000000000004",
                "label": "Precompiled"
            },
            {
                "address": "0xeeeeeeeeeeeeeeeeeeeeeeeeeeeeeeeeeeeeeeee",
                "label": "Ether"
            },
            {
                "address": "0x37504ae0282f5f334ed29b4548646f887977b7cc",
                "label": "Genesis Rocks"
            },
            {
                "address": "0x0000000000000000000000000000000000000001",
                "label": "Precompiled"
            },
            {
                "address": "0x0000000000000000000000000000000000000002",
                "label": "Precompiled"
            }
        ]
    },
    "trace": {
        "accountLabels": null,
        "dataMap": {
            "-1": {
                "invocation": {
                    "address": "0x07cc65ec4de72fdf7d2b6c39fd80c4ea4706215b",
                    "callData": "",
                    "decodedMethod": null,
                    "errorInfo": "",
                    "fromAddress": "",
                    "gasUsed": 0,
                    "id": -1,
                    "methodDecoded": false,
                    "operation": "",
                    "output": "",
                    "revert": false,
                    "revertMessage": "",
                    "selector": "",
                    "status": false,
                    "value": ""
                },
                "nodeType": 0
            },
            "0": {
                "invocation": {
                    "address": "0x37504ae0282f5f334ed29b4548646f887977b7cc",
                    "callData": "0x000000000000000000000000000000000000000000000000000000000000005100000000000000000000000000000000000000000000001ad5814560aa5c0000",
                    "decodedMethod": {
                        "callParams": [
                            {
                                "name": "rockNumber",
                                "type": "uint256",
                                "value": "81"
                            },
                            {
                                "name": "price",
                                "type": "uint256",
                                "value": "495,000,000,000,000,000,000"
                            }
                        ],
                        "constructorArguments": "",
                        "name": "sellRock",
                        "returnParams": [],
                        "signature": "sellRock(uint256,uint256)"
                    },
                    "errorInfo": "",
                    "fromAddress": "0x07cc65ec4de72fdf7d2b6c39fd80c4ea4706215b",
                    "gasUsed": 32389,
                    "id": 0,
                    "methodDecoded": true,
                    "operation": "CALL",
                    "output": "",
                    "revert": false,
                    "revertMessage": "",
                    "selector": "0xc6caa959",
                    "status": true,
                    "value": "0"
                },
                "nodeType": 0
            }
        },
        "gasFlame": [
            {
                "children": [
                    {
                        "children": [
                            {
                                "children": [],
                                "depth": 0,
                                "name": "Initial Gas",
                                "value": 21416
                            },
                            {
                                "children": [],
                                "depth": 0,
                                "name": "Executed Gas",
                                "value": 10973
                            }
                        ],
                        "depth": -1,
                        "name": "Actual Gas Used",
                        "value": 32389
                    },
                    {
                        "children": [],
                        "depth": -1,
                        "name": "Refunded Gas",
                        "value": 0
                    }
                ],
                "depth": -2,
                "name": "Total Gas",
                "value": 32389
            }
        ],
        "isConfirmed": true,
        "mainTrace": [
            {
                "children": [
                    {
                        "children": [],
                        "depth": 0,
                        "id": 0,
                        "order": 0
                    }
                ],
                "depth": -1,
                "id": -1,
                "order": -1
            }
        ],
        "mainTraceNodeCount": 1,
        "parentIdMap": {
            "0": -1
        },
        "tidyTrace": [
            {
                "children": [
                    {
                        "children": [],
                        "depth": 0,
                        "id": 0,
                        "order": 0
                    }
                ],
                "depth": -1,
                "id": -1,
                "order": -1
            }
        ],
        "tidyTraceNodeCount": 1
    },
    "state_change": {
        "stateChanges": [
            {
                "address": "0x37504ae0282f5f334ed29b4548646f887977b7cc",
                "erc": "",
                "slots": [
                    {
                        "current": "0x00000000000000000000000107cc65ec4de72fdf7d2b6c39fd80c4ea4706215b",
                        "key": "0xecf130467c3ca6d7c047f2161ca24c032bbc3d4b2a77446d9e0dac48aff2d09a",
                        "prev": "0x00000000000000000000000007cc65ec4de72fdf7d2b6c39fd80c4ea4706215b"
                    },
                    {
                        "current": "0x00000000000000000000000000000000000000000000001ad5814560aa5c0000",
                        "key": "0xecf130467c3ca6d7c047f2161ca24c032bbc3d4b2a77446d9e0dac48aff2d09b",
                        "prev": "0x00000000000000000000000000000000000000000000000448586170a7dc0000"
                    }
                ],
                "storageVariables": [
                    {
                        "name": "rocks",
                        "type": "mapping(uint256 => struct EtherRock.Rock)",
                        "value": {
                            "pairs": [
                                {
                                    "key": "81",
                                    "value": {
                                        "fields": [
                                            {
                                                "name": "owner",
                                                "type": "address",
                                                "value": {
                                                    "current": "0x07cc65ec4de72fdf7d2b6c39fd80c4ea4706215b",
                                                    "prev": "0x07cc65ec4de72fdf7d2b6c39fd80c4ea4706215b",
                                                    "typeTag": 1
                                                }
                                            },
                                            {
                                                "name": "currentlyForSale",
                                                "type": "bool",
                                                "value": {
                                                    "current": "true",
                                                    "prev": "false",
                                                    "typeTag": 1
                                                }
                                            },
                                            {
                                                "name": "price",
                                                "type": "uint256",
                                                "value": {
                                                    "current": "495000000000000000000",
                                                    "prev": "79000000000000000000",
                                                    "typeTag": 1
                                                }
                                            }
                                        ],
                                        "typeTag": 3
                                    }
                                }
                            ],
                            "typeTag": 4
                        }
                    }
                ]
            }
        ]
    }
}