{
    "balance_change": {
        "balanceChanges": [
            {
                "account": "0xfc489f9b97f361d3494f0b1e062649c7526b87d6",
                "assets": [
                    {
                        "address": "0xeeeeeeeeeeeeeeeeeeeeeeeeeeeeeeeeeeeeeeee",
                        "amount": "0.040652180682840463",
                        "iconUrl": "https://assets.blocksec.com/image/1663669189317-3.png",
                        "isERC1155": false,
                        "isERC721": false,
                        "sign": false,
                        "value": "74.16543191078520406"
                    }
                ]
            },
            {
                "account": "0x32400084c286cf3e17e7b677ea9583e60a000324",
                "assets": [
                    {
                        "address": "0xeeeeeeeeeeeeeeeeeeeeeeeeeeeeeeeeeeeeeeee",
                        "amount": "0.040652180682840463",
                        "iconUrl": "https://assets.blocksec.com/image/1663669189317-3.png",
                        "isERC1155": false,
                        "isERC721": false,
                        "sign": true,
                        "value": "74.16543191078520406"
                    }
                ]
            }
        ]
    },
    "profile": {
        "basic_info": {
            "baseFee": "28.900868637",
            "blockNumber": 17351191,
            "callData": "0xeb672419000000000000000000000000fc489f9b97f361d3494f0b1e062649c7526b87d6000000000000000000000000000000000000000000000000008e1bc9bf04000000000000000000000000000000000000000000000000000000000000000000e000000000000000000000000000000000000000000000000000000000000b54a300000000000000000000000000000000000000000000000000000000000003200000000000000000000000000000000000000000000000000000000000000100000000000000000000000000fc489f9b97f361d3494f0b1e062649c7526b87d600000000000000000000000000000000000000000000000000000000000000000000000000000000000000000000000000000000000000000000000000000000",
            "debugEnable": true,
            "errorInfo": "",
            "eventCount": 1,
            "feeRecipient": "0xdafea492d9c6733ae3d56b7ed1adb60692c98bc5",
            "formatValue": "0.040652180682840463",
            "gasLimit": 149210,
            "gasPrice": "28.994868637",
            "gasUsed": 118064,
            "intTxnCount": 3,
            "internalRevert": false,
            "internalRevertMessage": "",
            "isContractCreation": false,
            "isFlashloan": false,
            "maxFee": "30.803210133",
            "nonce": 0,
            "overwritedBlockNumber": -1,
            "priorityFee": "0.094",
            "receiver": "0x32400084c286cf3e17e7b677ea9583e60a000324",
            "revertMessage": "",
            "sender": "0xfc489f9b97f361d3494f0b1e062649c7526b87d6",
            "simulationEnable": true,
            "sourceTxnHash": "0x515db28ceda05e4c64f52e25d109b7e868ecb661186831065b21b94b10f52fb2",
            "status": true,
            "timestamp": "2023-05-27T15:09:35Z",
            "transactionFee": "0.003423250170758768",
            "txnHash": "0x515db28ceda05e4c64f52e25d109b7e868ecb661186831065b21b94b10f52fb2",
            "txnIndex": 171,
            "type": 2,
            "value": "40652180682840463"
        },
        "fund_flow": [
            {
                "amount": "0.040652180682840463",
                "from": "0xfc489f9b97f361d3494f0b1e062649c7526b87d6",
                "id": 1,
                "isERC1155": false,
                "isERC721": false,
                "isReverted": false,
                "order": 1,
                "to": "0x32400084c286cf3e17e7b677ea9583e60a000324",
                "token": "0xeeeeeeeeeeeeeeeeeeeeeeeeeeeeeeeeeeeeeeee"
            }
        ],
        "token_infos": [
            {
                "address": "0xeeeeeeeeeeeeeeeeeeeeeeeeeeeeeeeeeeeeeeee",
                "decimals": 18
            },
            {
                "address": "0xc02aaa39b223fe8d0a0e5c4f27ead9083c756cc2",
                "decimals": 18
            }
        ]
    },
    "address_label": {
        "labels": [
            {
                "address": "0xeeeeeeeeeeeeeeeeeeeeeeeeeeeeeeeeeeeeeeee",
                "label": "Ether"
            },
            {
                "address": "0x32400084c286cf3e17e7b677ea9583e60a000324",
                "label": "zkSync Era: Diamond Proxy"
            },
            {
                "address": "0x8ffd57a9b2dcc10327768b601468fa192adc5c86",
                "label": "AllowList"
            },
            {
                "address": "0x0000000000000000000000000000000000000002",
                "label": "Precompiled"
            },
            {
                "address": "0x0000000000000000000000000000000000000003",
                "label": "Precompiled"
            },
            {
                "address": "0x0000000000000000000000000000000000000004",
                "label": "Precompiled"
            },
            {
                "address": "0xb2097dbe4410b538a45574b1fcd767e2303c7867",
                "label": "MailboxFacet"
            },
            {
                "address": "0x0000000000000000000000000000000000000000",
                "label": "Null Address"
            },
            {
                "address": "0x0000000000000000000000000000000000000001",
                "label": "Precompiled"
            }
        ]
    },
    "trace": {
        "accountLabels": null,
        "dataMap": {
            "-1": {
                "invocation": {
                    "address": "0xfc489f9b97f361d3494f0b1e062649c7526b87d6",
                    "callData": "",
                    "decodedMethod": null,
                    "errorInfo": "",
                    "fromAddress": "",
                    "gasUsed": 0,
                    "id": -1,
                    "methodDecoded": false,
                    "operation": "",
                    "output": "",
                    "revert": false,
                    "revertMessage": "",
                    "selector": "",
                    "status": false,
                    "value": ""
                },
                "nodeType": 0
            },
            "0": {
                "invocation": {
                    "address": "0x32400084c286cf3e17e7b677ea9583e60a000324",
                    "callData": "0x000000000000000000000000fc489f9b97f361d3494f0b1e062649c7526b87d6000000000000000000000000000000000000000000000000008e1bc9bf04000000000000000000000000000000000000000000000000000000000000000000e000000000000000000000000000000000000000000000000000000000000b54a300000000000000000000000000000000000000000000000000000000000003200000000000000000000000000000000000000000000000000000000000000100000000000000000000000000fc489f9b97f361d3494f0b1e062649c7526b87d600000000000000000000000000000000000000000000000000000000000000000000000000000000000000000000000000000000000000000000000000000000",
                    "decodedMethod": {
                        "callParams": [
                            {
                                "name": "_contractL2",
                                "type": "address",
                                "value": "0xfc489f9b97f361d3494f0b1e062649c7526b87d6"
                            },
                            {
                                "name": "_l2Value",
                                "type": "uint256",
                                "value": "40,000,000,000,000,000"
                            },
                            {
                                "name": "_calldata",
                                "type": "bytes",
                                "value": "0x"
                            },
                            {
                                "name": "_l2GasLimit",
                                "type": "uint256",
                                "value": "742,563"
                            },
                            {
                                "name": "_l2GasPerPubdataByteLimit",
                                "type": "uint256",
                                "value": "800"
                            },
                            {
                                "name": "_factoryDeps",
                                "type": "bytes[]",
                                "value": []
                            },
                            {
                                "name": "_refundRecipient",
                                "type": "address",
                                "value": "0xfc489f9b97f361d3494f0b1e062649c7526b87d6"
                            }
                        ],
                        "constructorArguments": "",
                        "name": "requestL2Transaction",
                        "returnParams": [
                            {
                                "name": "canonicalTxHash",
                                "type": "bytes32",
                                "value": "0x5f03ddadd3aef2667b80588fb1587c7f34e44fdd83456b9810bdea8897ee90eb"
                            }
                        ],
                        "signature": "requestL2Transaction(address,uint256,bytes,uint256,uint256,bytes[],address)"
                    },
                    "errorInfo": "",
                    "fromAddress": "0xfc489f9b97f361d3494f0b1e062649c7526b87d6",
                    "gasUsed": 118064,
                    "id": 0,
                    "methodDecoded": true,
                    "operation": "CALL",
                    "output": "0x5f03ddadd3aef2667b80588fb1587c7f34e44fdd83456b9810bdea8897ee90eb",
                    "revert": false,
                    "revertMessage": "",
                    "selector": "0xeb672419",
                    "status": true,
                    "value": "0.040652180682840463"
                },
                "nodeType": 0
            },
            "1": {
                "invocation": {
                    "address": "0xb2097dbe4410b538a45574b1fcd767e2303c7867",
                    "callData": "0x000000000000000000000000fc489f9b97f361d3494f0b1e062649c7526b87d6000000000000000000000000000000000000000000000000008e1bc9bf04000000000000000000000000000000000000000000000000000000000000000000e000000000000000000000000000000000000000000000000000000000000b54a300000000000000000000000000000000000000000000000000000000000003200000000000000000000000000000000000000000000000000000000000000100000000000000000000000000fc489f9b97f361d3494f0b1e062649c7526b87d600000000000000000000000000000000000000000000000000000000000000000000000000000000000000000000000000000000000000000000000000000000",
                    "decodedMethod": {
                        "callParams": [
                            {
                                "name": "_contractL2",
                                "type": "address",
                                "value": "0xfc489f9b97f361d3494f0b1e062649c7526b87d6"
                            },
                            {
                                "name": "_l2Value",
                                "type": "uint256",
                                "value": "40,000,000,000,000,000"
                            },
                            {
                                "name": "_calldata",
                                "type": "bytes",
                                "value": "0x"
                            },
                            {
                                "name": "_l2GasLimit",
                                "type": "uint256",
                                "value": "742,563"
                            },
                            {
                                "name": "_l2GasPerPubdataByteLimit",
                                "type": "uint256",
                                "value": "800"
                            },
                            {
                                "name": "_factoryDeps",
                                "type": "bytes[]",
                                "value": []
                            },
                            {
                                "name": "_refundRecipient",
                                "type": "address",
                                "value": "0xfc489f9b97f361d3494f0b1e062649c7526b87d6"
                            }
                        ],
                        "constructorArguments": "",
                        "name": "requestL2Transaction",
                        "returnParams": [
                            {
                                "name": "canonicalTxHash",
                                "type": "bytes32",
                                "value": "0x5f03ddadd3aef2667b80588fb1587c7f34e44fdd83456b9810bdea8897ee90eb"
                            }
                        ],
                        "signature": "requestL2Transaction(address,uint256,bytes,uint256,uint256,bytes[],address)"
                    },
                    "errorInfo": "",
                    "fromAddress": "0x32400084c286cf3e17e7b677ea9583e60a000324",
                    "gasUsed": 90662,
                    "id": 1,
                    "methodDecoded": true,
                    "operation": "DELEGATECALL",
                    "output": "0x5f03ddadd3aef2667b80588fb1587c7f34e44fdd83456b9810bdea8897ee90eb",
                    "revert": false,
                    "revertMessage": "",
                    "selector": "0xeb672419",
                    "status": true,
                    "value": "0.040652180682840463"
                },
                "nodeType": 0
            },
            "2": {
                "invocation": {
                    "address": "0x8ffd57a9b2dcc10327768b601468fa192adc5c86",
                    "callData": "0x000000000000000000000000fc489f9b97f361d3494f0b1e062649c7526b87d600000000000000000000000032400084c286cf3e17e7b677ea9583e60a000324eb67241900000000000000000000000000000000000000000000000000000000",
                    "decodedMethod": {
                        "callParams": [
                            {
                                "name": "_caller",
                                "type": "address",
                                "value": "0xfc489f9b97f361d3494f0b1e062649c7526b87d6"
                            },
                            {
                                "name": "_target",
                                "type": "address",
                                "value": "0x32400084c286cf3e17e7b677ea9583e60a000324"
                            },
                            {
                                "name": "_functionSig",
                                "type": "bytes4",
                                "value": "0xeb672419"
                            }
                        ],
                        "constructorArguments": "",
                        "name": "canCall",
                        "returnParams": [
                            {
                                "name": "",
                                "type": "bool",
                                "value": true
                            }
                        ],
                        "signature": "canCall(address,address,bytes4)"
                    },
                    "errorInfo": "",
                    "fromAddress": "0x32400084c286cf3e17e7b677ea9583e60a000324",
                    "gasUsed": 2907,
                    "id": 2,
                    "methodDecoded": true,
                    "operation": "STATICCALL",
                    "output": "0x0000000000000000000000000000000000000000000000000000000000000001",
                    "revert": false,
                    "revertMessage": "",
                    "selector": "0xb7009613",
                    "status": true,
                    "value": "0"
                },
                "nodeType": 0
            },
            "3": {
                "invocation": {
                    "address": "0x8ffd57a9b2dcc10327768b601468fa192adc5c86",
                    "callData": "0x0000000000000000000000000000000000000000000000000000000000000000",
                    "decodedMethod": {
                        "callParams": [
                            {
                                "name": "_l1Token",
                                "type": "address",
                                "value": "0x0000000000000000000000000000000000000000"
                            }
                        ],
                        "constructorArguments": "",
                        "name": "getTokenDepositLimitData",
                        "returnParams": [
                            {
                                "name": "",
                                "type": "(bool,uint256)",
                                "value": [
                                    {
                                        "name": "depositLimitation",
                                        "type": "bool",
                                        "value": false
                                    },
                                    {
                                        "name": "depositCap",
                                        "type": "uint256",
                                        "value": "0"
                                    }
                                ]
                            }
                        ],
                        "signature": "getTokenDepositLimitData(address)"
                    },
                    "errorInfo": "",
                    "fromAddress": "0x32400084c286cf3e17e7b677ea9583e60a000324",
                    "gasUsed": 4848,
                    "id": 3,
                    "methodDecoded": true,
                    "operation": "STATICCALL",
                    "output": "0x00000000000000000000000000000000000000000000000000000000000000000000000000000000000000000000000000000000000000000000000000000000",
                    "revert": false,
                    "revertMessage": "",
                    "selector": "0x7cf14701",
                    "status": true,
                    "value": "0"
                },
                "nodeType": 0
            },
            "4": {
                "event": {
                    "contract": "0x32400084c286cf3e17e7b677ea9583e60a000324",
                    "decodedLog": {
                        "name": "NewPriorityRequest",
                        "params": [
                            {
                                "name": "txId",
                                "type": "uint256",
                                "value": "821,296"
                            },
                            {
                                "name": "txHash",
                                "type": "bytes32",
                                "value": "0x5f03ddadd3aef2667b80588fb1587c7f34e44fdd83456b9810bdea8897ee90eb"
                            },
                            {
                                "name": "expirationTimestamp",
                                "type": "uint64",
                                "value": "1,685,200,175"
                            },
                            {
                                "name": "transaction",
                                "type": "(uint256,uint256,uint256,uint256,uint256,uint256,uint256,uint256,uint256,uint256,uint256[4],bytes,bytes,uint256[],bytes,bytes)",
                                "value": [
                                    {
                                        "name": "txType",
                                        "type": "uint256",
                                        "value": "255"
                                    },
                                    {
                                        "name": "from",
                                        "type": "uint256",
                                        "value": "1,440,285,231,701,108,927,231,329,546,944,405,468,183,939,221,462"
                                    },
                                    {
                                        "name": "to",
                                        "type": "uint256",
                                        "value": "1,440,285,231,701,108,927,231,329,546,944,405,468,183,939,221,462"
                                    },
                                    {
                                        "name": "gasLimit",
                                        "type": "uint256",
                                        "value": "742,563"
                                    },
                                    {
                                        "name": "gasPerPubdataByteLimit",
                                        "type": "uint256",
                                        "value": "800"
                                    },
                                    {
                                        "name": "maxFeePerGas",
                                        "type": "uint256",
                                        "value": "616,140,959"
                                    },
                                    {
                                        "name": "maxPriorityFeePerGas",
                                        "type": "uint256",
                                        "value": "0"
                                    },
                                    {
                                        "name": "paymaster",
                                        "type": "uint256",
                                        "value": "0"
                                    },
                                    {
                                        "name": "nonce",
                                        "type": "uint256",
                                        "value": "821,296"
                                    },
                                    {
                                        "name": "value",
                                        "type": "uint256",
                                        "value": "40,000,000,000,000,000"
                                    },
                                    {
                                        "name": "reserved",
                                        "type": "uint256[4]",
                                        "value": [
                                            "40,652,180,682,840,463",
                                            "1,440,285,231,701,108,927,231,329,546,944,405,468,183,939,221,462",
                                            "0",
                                            "0"
                                        ]
                                    },
                                    {
                                        "name": "data",
                                        "type": "bytes",
                                        "value": "0x"
                                    },
                                    {
                                        "name": "signature",
                                        "type": "bytes",
                                        "value": "0x"
                                    },
                                    {
                                        "name": "factoryDeps",
                                        "type": "uint256[]",
                                        "value": []
                                    },
                                    {
                                        "name": "paymasterInput",
                                        "type": "bytes",
                                        "value": "0x"
                                    },
                                    {
                                        "name": "reservedDynamic",
                                        "type": "bytes",
                                        "value": "0x"
                                    }
                                ]
                            },
                            {
                                "name": "factoryDeps",
                                "type": "bytes[]",
                                "value": []
                            }
                        ],
                        "signature": "NewPriorityRequest(uint256,bytes32,uint64,(uint256,uint256,uint256,uint256,uint256,uint256,uint256,uint256,uint256,uint256,uint256[4],bytes,bytes,uint256[],bytes,bytes),bytes[])"
                    },
                    "id": 4,
                    "logData": "0x00000000000000000000000000000000000000000000000000000000000c88305f03ddadd3aef2667b80588fb1587c7f34e44fdd83456b9810bdea8897ee90eb0000000000000000000000000000000000000000000000000000000064721d2f00000000000000000000000000000000000000000000000000000000000000a000000000000000000000000000000000000000000000000000000000000003a000000000000000000000000000000000000000000000000000000000000000ff000000000000000000000000fc489f9b97f361d3494f0b1e062649c7526b87d6000000000000000000000000fc489f9b97f361d3494f0b1e062649c7526b87d600000000000000000000000000000000000000000000000000000000000b54a300000000000000000000000000000000000000000000000000000000000003200000000000000000000000000000000000000000000000000000000024b9909f0000000000000000000000000000000000000000000000000000000000000000000000000000000000000000000000000000000000000000000000000000000000000000000000000000000000000000000000000000000000000000000c8830000000000000000000000000000000000000000000000000008e1bc9bf04000000000000000000000000000000000000000000000000000000906cf164f2198f000000000000000000000000fc489f9b97f361d3494f0b1e062649c7526b87d6000000000000000000000000000000000000000000000000000000000000000000000000000000000000000000000000000000000000000000000000000000000000000000000000000000000000000000000000000000000000000000000260000000000000000000000000000000000000000000000000000000000000028000000000000000000000000000000000000000000000000000000000000002a000000000000000000000000000000000000000000000000000000000000002c000000000000000000000000000000000000000000000000000000000000002e0000000000000000000000000000000000000000000000000000000000000000000000000000000000000000000000000000000000000000000000000000000000000000000000000000000000000000000000000000000000000000000000000000000000000000000000000000000000000000000000000000000000000000000000000000000000000000000000000000000000000000000000000000000000000000000000000000000000000000000000000000000000000000000000000",
                    "logDecoded": true,
                    "operation": "EVENT",
                    "revert": false,
                    "status": true,
                    "topics": [
                        "0x4531cd5795773d7101c17bdeb9f5ab7f47d7056017506f937083be5d6e77a382"
                    ]
                },
                "nodeType": 1
            }
        },
        "gasFlame": [
            {
                "children": [
                    {
                        "children": [
                            {
                                "children": [],
                                "depth": 0,
                                "name": "Initial Gas",
                                "value": 22840
                            },
                            {
                                "children": [
                                    {
                                        "children": [
                                            {
                                                "children": [],
                                                "depth": 2,
                                                "name": "canCall",
                                                "value": 2907
                                            },
                                            {
                                                "children": [],
                                                "depth": 2,
                                                "name": "getTokenDepositLimitData",
                                                "value": 4848
                                            }
                                        ],
                                        "depth": 1,
                                        "name": "requestL2Transaction",
                                        "value": 90662
                                    }
                                ],
                                "depth": 0,
                                "name": "Executed Gas",
                                "value": 98024
                            }
                        ],
                        "depth": -1,
                        "name": "Actual Gas Used",
                        "value": 118064
                    },
                    {
                        "children": [],
                        "depth": -1,
                        "name": "Refunded Gas",
                        "value": 2800
                    }
                ],
                "depth": -2,
                "name": "Total Gas",
                "value": 120864
            }
        ],
        "isConfirmed": true,
        "mainTrace": [
            {
                "children": [
                    {
                        "children": [
                            {
                                "children": [
                                    {
                                        "children": [],
                                        "depth": 2,
                                        "id": 2,
                                        "order": 2
                                    },
                                    {
                                        "children": [],
                                        "depth": 2,
                                        "id": 3,
                                        "order": 3
                                    },
                                    {
                                        "children": [],
                                        "depth": 2,
                                        "id": 4,
                                        "order": 4
                                    }
                                ],
                                "depth": 1,
                                "id": 1,
                                "order": 1
                            }
                        ],
                        "depth": 0,
                        "id": 0,
                        "order": 0
                    }
                ],
                "depth": -1,
                "id": -1,
                "order": -1
            }
        ],
        "mainTraceNodeCount": 5,
        "parentIdMap": {
            "0": -1,
            "1": 0,
            "2": 1,
            "3": 1,
            "4": 1
        },
        "tidyTrace": [
            {
                "children": [
                    {
                        "children": [
                            {
                                "children": [
                                    {
                                        "children": [],
                                        "depth": 2,
                                        "id": 4,
                                        "order": 4
                                    }
                                ],
                                "depth": 1,
                                "id": 1,
                                "order": 1
                            }
                        ],
                        "depth": 0,
                        "id": 0,
                        "order": 0
                    }
                ],
                "depth": -1,
                "id": -1,
                "order": -1
            }
        ],
        "tidyTraceNodeCount": 3
    },
    "state_change": {
        "stateChanges": [
            {
                "address": "0x32400084c286cf3e17e7b677ea9583e60a000324",
                "erc": "",
                "slots": [
                    {
                        "current": "0x5f03ddadd3aef2667b80588fb1587c7f34e44fdd83456b9810bdea8897ee90eb",
                        "key": "0x8ccb08fd8e4df3f925a27d74744760e9cc56ad17419e3a5a43a3bdbc812b3399",
                        "prev": "0x0000000000000000000000000000000000000000000000000000000000000000"
                    },
                    {
                        "current": "0x0000000000000000000000000000000000000000000000000000000064721d2f",
                        "key": "0x8ccb08fd8e4df3f925a27d74744760e9cc56ad17419e3a5a43a3bdbc812b339a",
                        "prev": "0x0000000000000000000000000000000000000000000000000000000000000000"
                    },
                    {
                        "current": "0x00000000000000000000000000000000000000000000000000000000000c8831",
                        "key": "0x0000000000000000000000000000000000000000000000000000000000000011",
                        "prev": "0x00000000000000000000000000000000000000000000000000000000000c8830"
                    }
                ],
                "storageVariables": [
                    {
                        "name": "s",
                        "type": "struct AppStorage",
                        "value": {
                            "fields": [
                                {
                                    "name": "priorityQueue",
                                    "type": "struct PriorityQueue.Queue",
                                    "value": {
                                        "fields": [
                                            {
                                                "name": "data",
                                                "type": "mapping(uint256 => struct PriorityOperation)",
                                                "value": {
                                                    "pairs": [
                                                        {
                                                            "key": "821296",
                                                            "value": {
                                                                "fields": [
                                                                    {
                                                                        "name": "canonicalTxHash",
                                                                        "type": "bytes32",
                                                                        "value": {
                                                                            "current": "0x5f03ddadd3aef2667b80588fb1587c7f34e44fdd83456b9810bdea8897ee90eb",
                                                                            "prev": "0x0000000000000000000000000000000000000000000000000000000000000000",
                                                                            "typeTag": 1
                                                                        }
                                                                    },
                                                                    {
                                                                        "name": "expirationTimestamp",
                                                                        "type": "uint64",
                                                                        "value": {
                                                                            "current": "1685200175",
                                                                            "prev": "0",
                                                                            "typeTag": 1
                                                                        }
                                                                    },
                                                                    {
                                                                        "name": "layer2Tip",
                                                                        "type": "uint192",
                                                                        "value": {
                                                                            "current": "0",
                                                                            "prev": "0",
                                                                            "typeTag": 1
                                                                        }
                                                                    }
                                                                ],
                                                                "typeTag": 3
                                                            }
                                                        }
                                                    ],
                                                    "typeTag": 4
                                                }
                                            },
                                            {
                                                "name": "tail",
                                                "type": "uint256",
                                                "value": {
                                                    "current": "821297",
                                                    "prev": "821296",
                                                    "typeTag": 1
                                                }
                                            }
                                        ],
                                        "typeTag": 3
                                    }
                                }
                            ],
                            "typeTag": 3
                        }
                    }
                ]
            }
        ]
    }
}