{
    "balance_change": {
        "balanceChanges": [
            {
                "account": "0xb84a6c96f432a85af11c224f318cf21d9857c20a",
                "assets": [
                    {
                        "address": "0xdac17f958d2ee523a2206206994597c13d831ec7",
                        "amount": "1,137.576417",
                        "iconUrl": "https://assets.blocksec.com/icon/fcea71f3193ce895be44bfdf941f7e4c9381dd587f273c2d1a27f1263d84e4ea.png",
                        "isERC1155": false,
                        "isERC721": false,
                        "sign": false,
                        "value": ""
                    }
                ]
            },
            {
                "account": "0x0a98fb70939162725ae66e626fe4b52cff62c2e5",
                "assets": [
                    {
                        "address": "0xdac17f958d2ee523a2206206994597c13d831ec7",
                        "amount": "1,137.576417",
                        "iconUrl": "https://assets.blocksec.com/icon/fcea71f3193ce895be44bfdf941f7e4c9381dd587f273c2d1a27f1263d84e4ea.png",
                        "isERC1155": false,
                        "isERC721": false,
                        "sign": true,
                        "value": ""
                    }
                ]
            }
        ]
    },
    "profile": {
        "basic_info": {
            "baseFee": "",
            "blockNumber": 8989886,
            "callData": "0xa9059cbb0000000000000000000000000a98fb70939162725ae66e626fe4b52cff62c2e50000000000000000000000000000000000000000000000000000000043ce09e1",
            "debugEnable": true,
            "errorInfo": "",
            "eventCount": 1,
            "feeRecipient": "0xea674fdde714fd979de3edf0f56aa9716b898ec8",
            "formatValue": "0",
            "gasLimit": 90000,
            "gasPrice": "26",
            "gasUsed": 23465,
            "intTxnCount": 0,
            "internalRevert": false,
            "internalRevertMessage": "",
            "isContractCreation": false,
            "isFlashloan": false,
            "maxFee": "",
            "nonce": 22,
            "overwritedBlockNumber": -1,
            "priorityFee": "",
            "receiver": "0xdac17f958d2ee523a2206206994597c13d831ec7",
            "revertMessage": "",
            "sender": "0xb84a6c96f432a85af11c224f318cf21d9857c20a",
            "simulationEnable": true,
            "sourceTxnHash": "0x52042c3d2adc5ae213abeed0c473a7d84a63b65b5801c764b2fbd2cec45fef7a",
            "status": true,
            "timestamp": "2019-11-24T02:17:08Z",
            "transactionFee": "0.00061009",
            "txnHash": "0x52042c3d2adc5ae213abeed0c473a7d84a63b65b5801c764b2fbd2cec45fef7a",
            "txnIndex": 26,
            "type": 0,
            "value": "0"
        },
        "fund_flow": [
            {
                "amount": "1,137.576417",
                "from": "0xb84a6c96f432a85af11c224f318cf21d9857c20a",
                "id": 1,
                "isERC1155": false,
                "isERC721": false,
                "isReverted": false,
                "order": 1,
                "to": "0x0a98fb70939162725ae66e626fe4b52cff62c2e5",
                "token": "0xdac17f958d2ee523a2206206994597c13d831ec7"
            }
        ],
        "token_infos": [
            {
                "address": "0xdac17f958d2ee523a2206206994597c13d831ec7",
                "decimals": 6
            },
            {
                "address": "0xeeeeeeeeeeeeeeeeeeeeeeeeeeeeeeeeeeeeeeee",
                "decimals": 18
            },
            {
                "address": "0xc02aaa39b223fe8d0a0e5c4f27ead9083c756cc2",
                "decimals": 18
            }
        ]
    },
    "address_label": {
        "labels": [
            {
                "address": "0x0a98fb70939162725ae66e626fe4b52cff62c2e5",
                "label": "HTX 36"
            },
            {
                "address": "0xdac17f958d2ee523a2206206994597c13d831ec7",
                "label": "Tether: USDT Stablecoin"
            },
            {
                "address": "0x0000000000000000000000000000000000000001",
                "label": "Precompiled"
            },
            {
                "address": "0x0000000000000000000000000000000000000002",
                "label": "Precompiled"
            },
            {
                "address": "0x0000000000000000000000000000000000000003",
                "label": "Precompiled"
            },
            {
                "address": "0x0000000000000000000000000000000000000004",
                "label": "Precompiled"
            },
            {
                "address": "0xeeeeeeeeeeeeeeeeeeeeeeeeeeeeeeeeeeeeeeee",
                "label": "Ether"
            },
            {
                "address": "0xb84a6c96f432a85af11c224f318cf21d9857c20a",
                "label": "HUOBI"
            }
        ]
    },
    "trace": {
        "accountLabels": null,
        "dataMap": {
            "-1": {
                "invocation": {
                    "address": "0xb84a6c96f432a85af11c224f318cf21d9857c20a",
                    "callData": "",
                    "decodedMethod": null,
                    "errorInfo": "",
                    "fromAddress": "",
                    "gasUsed": 0,
                    "id": -1,
                    "methodDecoded": false,
                    "operation": "",
                    "output": "",
                    "revert": false,
                    "revertMessage": "",
                    "selector": "",
                    "status": false,
                    "value": ""
                },
                "nodeType": 0
            },
            "0": {
                "invocation": {
                    "address": "0xdac17f958d2ee523a2206206994597c13d831ec7",
                    "callData": "0x0000000000000000000000000a98fb70939162725ae66e626fe4b52cff62c2e50000000000000000000000000000000000000000000000000000000043ce09e1",
                    "decodedMethod": {
                        "callParams": [
                            {
                                "name": "_to",
                                "type": "address",
                                "value": "0x0a98fb70939162725ae66e626fe4b52cff62c2e5"
                            },
                            {
                                "decimalAvailable": true,
                                "name": "_value",
                                "type": "uint256",
                                "value": "1,137,576,417"
                            }
                        ],
                        "constructorArguments": "",
                        "name": "transfer",
                        "returnParams": [],
                        "signature": "transfer(address,uint256)"
                    },
                    "errorInfo": "",
                    "fromAddress": "0xb84a6c96f432a85af11c224f318cf21d9857c20a",
                    "gasUsed": 23465,
                    "id": 0,
                    "methodDecoded": true,
                    "operation": "CALL",
                    "output": "",
                    "revert": false,
                    "revertMessage": "",
                    "selector": "0xa9059cbb",
                    "status": true,
                    "value": "0"
                },
                "nodeType": 0
            },
            "1": {
                "event": {
                    "contract": "0xdac17f958d2ee523a2206206994597c13d831ec7",
                    "decodedLog": {
                        "name": "Transfer",
                        "params": [
                            {
                                "name": "from",
                                "type": "address",
                                "value": "0xb84a6c96f432a85af11c224f318cf21d9857c20a"
                            },
                            {
                                "name": "to",
                                "type": "address",
                                "value": "0x0a98fb70939162725ae66e626fe4b52cff62c2e5"
                            },
                            {
                                "decimalAvailable": true,
                                "name": "value",
                                "type": "uint256",
                                "value": "1,137,576,417"
                            }
                        ],
                        "signature": "Transfer(address,address,uint256)"
                    },
                    "id": 1,
                    "logData": "0x0000000000000000000000000000000000000000000000000000000043ce09e1",
                    "logDecoded": true,
                    "operation": "EVENT",
                    "revert": false,
                    "status": true,
                    "topics": [
                        "0xddf252ad1be2c89b69c2b068fc378daa952ba7f163c4a11628f55a4df523b3ef",
                        "0x000000000000000000000000b84a6c96f432a85af11c224f318cf21d9857c20a",
                        "0x0000000000000000000000000a98fb70939162725ae66e626fe4b52cff62c2e5"
                    ]
                },
                "nodeType": 1
            }
        },
        "gasFlame": [
            {
                "children": [
                    {
                        "children": [
                            {
                                "children": [],
                                "depth": 0,
                                "name": "Initial Gas",
                                "value": 23064
                            },
                            {
                                "children": [],
                                "depth": 0,
                                "name": "Executed Gas",
                                "value": 15401
                            }
                        ],
                        "depth": -1,
                        "name": "Actual Gas Used",
                        "value": 23465
                    },
                    {
                        "children": [],
                        "depth": -1,
                        "name": "Refunded Gas",
                        "value": 15000
                    }
                ],
                "depth": -2,
                "name": "Total Gas",
                "value": 38465
            }
        ],
        "isConfirmed": true,
        "mainTrace": [
            {
                "children": [
                    {
                        "children": [
                            {
                                "children": [],
                                "depth": 1,
                                "id": 1,
                                "order": 1
                            }
                        ],
                        "depth": 0,
                        "id": 0,
                        "order": 0
                    }
                ],
                "depth": -1,
                "id": -1,
                "order": -1
            }
        ],
        "mainTraceNodeCount": 2,
        "parentIdMap": {
            "0": -1,
            "1": 0
        },
        "tidyTrace": [
            {
                "children": [
                    {
                        "children": [
                            {
                                "children": [],
                                "depth": 1,
                                "id": 1,
                                "order": 1
                            }
                        ],
                        "depth": 0,
                        "id": 0,
                        "order": 0
                    }
                ],
                "depth": -1,
                "id": -1,
                "order": -1
            }
        ],
        "tidyTraceNodeCount": 2
    },
    "state_change": {
        "stateChanges": [
            {
                "address": "0xdac17f958d2ee523a2206206994597c13d831ec7",
                "erc": "ERC-20",
                "slots": [
                    {
                        "current": "0x0000000000000000000000000000000000000000000000000000000000000000",
                        "key": "0x37bc662f896ff758c791fcf8aa74f9bbb7de63a97301b46abff79ddfd93b64f2",
                        "prev": "0x0000000000000000000000000000000000000000000000000000000043ce09e1"
                    },
                    {
                        "current": "0x0000000000000000000000000000000000000000000000000000052942f5cbe7",
                        "key": "0x6b41b82fd80f06102a0c07661827886db3b1916fa73e1b5026c983979183ef60",
                        "prev": "0x00000000000000000000000000000000000000000000000000000528ff27c206"
                    }
                ],
                "storageVariables": [
                    {
                        "name": "balances",
                        "type": "mapping(address => uint256)",
                        "value": {
                            "pairs": [
                                {
                                    "key": "0x0a98fb70939162725ae66e626fe4b52cff62c2e5",
                                    "value": {
                                        "current": "5674775202791",
                                        "prev": "5673637626374",
                                        "typeTag": 1
                                    }
                                },
                                {
                                    "key": "0xb84a6c96f432a85af11c224f318cf21d9857c20a",
                                    "value": {
                                        "current": "0",
                                        "prev": "1137576417",
                                        "typeTag": 1
                                    }
                                }
                            ],
                            "typeTag": 4
                        }
                    }
                ]
            }
        ]
    }
}