{
    "balance_change": {
        "balanceChanges": []
    },
    "profile": {
        "basic_info": {
            "baseFee": "",
            "blockNumber": 5138582,
            "callData": "0x4ad8c93800000000000000000000000000000000000000000000000000000000000524d0000000000000000000000000000000000000000000000000002386f26fc10000000000000000000000000000000000000000000000000000001ff973cafa8000000000000000000000000000000000000000000000000000000000000002a300",
            "debugEnable": true,
            "errorInfo": "",
            "eventCount": 2,
            "feeRecipient": "0xb2930b35844a230f00e51431acae96fe543a0347",
            "formatValue": "0",
            "gasLimit": 236820,
            "gasPrice": "2",
            "gasUsed": 141215,
            "intTxnCount": 2,
            "internalRevert": false,
            "internalRevertMessage": "",
            "isContractCreation": false,
            "isFlashloan": false,
            "maxFee": "",
            "nonce": 1236,
            "overwritedBlockNumber": -1,
            "priorityFee": "",
            "receiver": "0x06012c8cf97bead5deae237070f9587f8e7a266d",
            "revertMessage": "",
            "sender": "0xf2e4f505a22ba4a3aececba2589239afcadd7223",
            "simulationEnable": true,
            "sourceTxnHash": "0x52827fcf8fd32a747b1ce15a2d3e358ef77ed242de5d898e0ce04a3cb8ef95fe",
            "status": true,
            "timestamp": "2018-02-22T22:33:43Z",
            "transactionFee": "0.00028243",
            "txnHash": "0x52827fcf8fd32a747b1ce15a2d3e358ef77ed242de5d898e0ce04a3cb8ef95fe",
            "txnIndex": 136,
            "type": 0,
            "value": "0"
        },
        "fund_flow": [],
        "token_infos": [
            {
                "address": "0xc02aaa39b223fe8d0a0e5c4f27ead9083c756cc2",
                "decimals": 18
            },
            {
                "address": "0xeeeeeeeeeeeeeeeeeeeeeeeeeeeeeeeeeeeeeeee",
                "decimals": 18
            }
        ]
    },
    "address_label": {
        "labels": [
            {
                "address": "0xc7af99fe5513eb6710e6d5f44f9989da40f27f26",
                "label": "CryptoKitties: Siring Auction"
            },
            {
                "address": "0x0000000000000000000000000000000000000001",
                "label": "Precompiled"
            },
            {
                "address": "0x0000000000000000000000000000000000000002",
                "label": "Precompiled"
            },
            {
                "address": "0x0000000000000000000000000000000000000003",
                "label": "Precompiled"
            },
            {
                "address": "0x0000000000000000000000000000000000000004",
                "label": "Precompiled"
            },
            {
                "address": "0xeeeeeeeeeeeeeeeeeeeeeeeeeeeeeeeeeeeeeeee",
                "label": "Ether"
            },
            {
                "address": "0x06012c8cf97bead5deae237070f9587f8e7a266d",
                "label": "CryptoKitties: Core"
            }
        ]
    },
    "trace": {
        "accountLabels": null,
        "dataMap": {
            "-1": {
                "invocation": {
                    "address": "0xf2e4f505a22ba4a3aececba2589239afcadd7223",
                    "callData": "",
                    "decodedMethod": null,
                    "errorInfo": "",
                    "fromAddress": "",
                    "gasUsed": 0,
                    "id": -1,
                    "methodDecoded": false,
                    "operation": "",
                    "output": "",
                    "revert": false,
                    "revertMessage": "",
                    "selector": "",
                    "status": false,
                    "value": ""
                },
                "nodeType": 0
            },
            "0": {
                "invocation": {
                    "address": "0x06012c8cf97bead5deae237070f9587f8e7a266d",
                    "callData": "0x00000000000000000000000000000000000000000000000000000000000524d0000000000000000000000000000000000000000000000000002386f26fc10000000000000000000000000000000000000000000000000000001ff973cafa8000000000000000000000000000000000000000000000000000000000000002a300",
                    "decodedMethod": {
                        "callParams": [
                            {
                                "name": "_kittyId",
                                "type": "uint256",
                                "value": "337,104"
                            },
                            {
                                "name": "_startingPrice",
                                "type": "uint256",
                                "value": "10,000,000,000,000,000"
                            },
                            {
                                "name": "_endingPrice",
                                "type": "uint256",
                                "value": "9,000,000,000,000,000"
                            },
                            {
                                "name": "_duration",
                                "type": "uint256",
                                "value": "172,800"
                            }
                        ],
                        "constructorArguments": "",
                        "name": "createSiringAuction",
                        "returnParams": [],
                        "signature": "createSiringAuction(uint256,uint256,uint256,uint256)"
                    },
                    "errorInfo": "",
                    "fromAddress": "0xf2e4f505a22ba4a3aececba2589239afcadd7223",
                    "gasUsed": 141215,
                    "id": 0,
                    "methodDecoded": true,
                    "operation": "CALL",
                    "output": "",
                    "revert": false,
                    "revertMessage": "",
                    "selector": "0x4ad8c938",
                    "status": true,
                    "value": "0"
                },
                "nodeType": 0
            },
            "1": {
                "invocation": {
                    "address": "0xc7af99fe5513eb6710e6d5f44f9989da40f27f26",
                    "callData": "0x00000000000000000000000000000000000000000000000000000000000524d0000000000000000000000000000000000000000000000000002386f26fc10000000000000000000000000000000000000000000000000000001ff973cafa8000000000000000000000000000000000000000000000000000000000000002a300000000000000000000000000f2e4f505a22ba4a3aececba2589239afcadd7223",
                    "decodedMethod": {
                        "callParams": [
                            {
                                "name": "_tokenId",
                                "type": "uint256",
                                "value": "337,104"
                            },
                            {
                                "name": "_startingPrice",
                                "type": "uint256",
                                "value": "10,000,000,000,000,000"
                            },
                            {
                                "name": "_endingPrice",
                                "type": "uint256",
                                "value": "9,000,000,000,000,000"
                            },
                            {
                                "name": "_duration",
                                "type": "uint256",
                                "value": "172,800"
                            },
                            {
                                "name": "_seller",
                                "type": "address",
                                "value": "0xf2e4f505a22ba4a3aececba2589239afcadd7223"
                            }
                        ],
                        "constructorArguments": "",
                        "name": "createAuction",
                        "returnParams": [],
                        "signature": "createAuction(uint256,uint256,uint256,uint256,address)"
                    },
                    "errorInfo": "",
                    "fromAddress": "0x06012c8cf97bead5deae237070f9587f8e7a266d",
                    "gasUsed": 107646,
                    "id": 1,
                    "methodDecoded": true,
                    "operation": "CALL",
                    "output": "",
                    "revert": false,
                    "revertMessage": "",
                    "selector": "0x27ebe40a",
                    "status": true,
                    "value": "0"
                },
                "nodeType": 0
            },
            "2": {
                "invocation": {
                    "address": "0x06012c8cf97bead5deae237070f9587f8e7a266d",
                    "callData": "0x000000000000000000000000f2e4f505a22ba4a3aececba2589239afcadd7223000000000000000000000000c7af99fe5513eb6710e6d5f44f9989da40f27f2600000000000000000000000000000000000000000000000000000000000524d0",
                    "decodedMethod": {
                        "callParams": [
                            {
                                "name": "_from",
                                "type": "address",
                                "value": "0xf2e4f505a22ba4a3aececba2589239afcadd7223"
                            },
                            {
                                "name": "_to",
                                "type": "address",
                                "value": "0xc7af99fe5513eb6710e6d5f44f9989da40f27f26"
                            },
                            {
                                "decimalAvailable": true,
                                "name": "_tokenId",
                                "type": "uint256",
                                "value": "337,104"
                            }
                        ],
                        "constructorArguments": "",
                        "name": "transferFrom",
                        "returnParams": [],
                        "signature": "transferFrom(address,address,uint256)"
                    },
                    "errorInfo": "",
                    "fromAddress": "0xc7af99fe5513eb6710e6d5f44f9989da40f27f26",
                    "gasUsed": 30507,
                    "id": 2,
                    "methodDecoded": true,
                    "operation": "CALL",
                    "output": "",
                    "revert": false,
                    "revertMessage": "",
                    "selector": "0x23b872dd",
                    "status": true,
                    "value": "0"
                },
                "nodeType": 0
            },
            "3": {
                "event": {
                    "contract": "0x06012c8cf97bead5deae237070f9587f8e7a266d",
                    "decodedLog": {
                        "name": "Transfer",
                        "params": [
                            {
                                "name": "from",
                                "type": "address",
                                "value": "0xf2e4f505a22ba4a3aececba2589239afcadd7223"
                            },
                            {
                                "name": "to",
                                "type": "address",
                                "value": "0xc7af99fe5513eb6710e6d5f44f9989da40f27f26"
                            },
                            {
                                "decimalAvailable": true,
                                "name": "tokenId",
                                "type": "uint256",
                                "value": "337,104"
                            }
                        ],
                        "signature": "Transfer(address,address,uint256)"
                    },
                    "id": 3,
                    "logData": "0x000000000000000000000000f2e4f505a22ba4a3aececba2589239afcadd7223000000000000000000000000c7af99fe5513eb6710e6d5f44f9989da40f27f2600000000000000000000000000000000000000000000000000000000000524d0",
                    "logDecoded": true,
                    "operation": "EVENT",
                    "revert": false,
                    "status": true,
                    "topics": [
                        "0xddf252ad1be2c89b69c2b068fc378daa952ba7f163c4a11628f55a4df523b3ef"
                    ]
                },
                "nodeType": 1
            },
            "4": {
                "event": {
                    "contract": "0xc7af99fe5513eb6710e6d5f44f9989da40f27f26",
                    "decodedLog": {
                        "name": "AuctionCreated",
                        "params": [
                            {
                                "name": "tokenId",
                                "type": "uint256",
                                "value": "337,104"
                            },
                            {
                                "name": "startingPrice",
                                "type": "uint256",
                                "value": "10,000,000,000,000,000"
                            },
                            {
                                "name": "endingPrice",
                                "type": "uint256",
                                "value": "9,000,000,000,000,000"
                            },
                            {
                                "name": "duration",
                                "type": "uint256",
                                "value": "172,800"
                            }
                        ],
                        "signature": "AuctionCreated(uint256,uint256,uint256,uint256)"
                    },
                    "id": 4,
                    "logData": "0x00000000000000000000000000000000000000000000000000000000000524d0000000000000000000000000000000000000000000000000002386f26fc10000000000000000000000000000000000000000000000000000001ff973cafa8000000000000000000000000000000000000000000000000000000000000002a300",
                    "logDecoded": true,
                    "operation": "EVENT",
                    "revert": false,
                    "status": true,
                    "topics": [
                        "0xa9c8dfcda5664a5a124c713e386da27de87432d5b668e79458501eb296389ba7"
                    ]
                },
                "nodeType": 1
            }
        },
        "gasFlame": [
            {
                "children": [
                    {
                        "children": [
                            {
                                "children": [],
                                "depth": 0,
                                "name": "Initial Gas",
                                "value": 22808
                            },
                            {
                                "children": [
                                    {
                                        "children": [
                                            {
                                                "children": [],
                                                "depth": 2,
                                                "name": "transferFrom",
                                                "value": 30507
                                            }
                                        ],
                                        "depth": 1,
                                        "name": "createAuction",
                                        "value": 107646
                                    }
                                ],
                                "depth": 0,
                                "name": "Executed Gas",
                                "value": 133407
                            }
                        ],
                        "depth": -1,
                        "name": "Actual Gas Used",
                        "value": 141215
                    },
                    {
                        "children": [],
                        "depth": -1,
                        "name": "Refunded Gas",
                        "value": 15000
                    }
                ],
                "depth": -2,
                "name": "Total Gas",
                "value": 156215
            }
        ],
        "isConfirmed": true,
        "mainTrace": [
            {
                "children": [
                    {
                        "children": [
                            {
                                "children": [
                                    {
                                        "children": [
                                            {
                                                "children": [],
                                                "depth": 3,
                                                "id": 3,
                                                "order": 3
                                            }
                                        ],
                                        "depth": 2,
                                        "id": 2,
                                        "order": 2
                                    },
                                    {
                                        "children": [],
                                        "depth": 2,
                                        "id": 4,
                                        "order": 4
                                    }
                                ],
                                "depth": 1,
                                "id": 1,
                                "order": 1
                            }
                        ],
                        "depth": 0,
                        "id": 0,
                        "order": 0
                    }
                ],
                "depth": -1,
                "id": -1,
                "order": -1
            }
        ],
        "mainTraceNodeCount": 5,
        "parentIdMap": {
            "0": -1,
            "1": 0,
            "2": 1,
            "3": 2,
            "4": 1
        },
        "tidyTrace": [
            {
                "children": [
                    {
                        "children": [
                            {
                                "children": [
                                    {
                                        "children": [
                                            {
                                                "children": [],
                                                "depth": 3,
                                                "id": 3,
                                                "order": 3
                                            }
                                        ],
                                        "depth": 2,
                                        "id": 2,
                                        "order": 2
                                    },
                                    {
                                        "children": [],
                                        "depth": 2,
                                        "id": 4,
                                        "order": 4
                                    }
                                ],
                                "depth": 1,
                                "id": 1,
                                "order": 1
                            }
                        ],
                        "depth": 0,
                        "id": 0,
                        "order": 0
                    }
                ],
                "depth": -1,
                "id": -1,
                "order": -1
            }
        ],
        "tidyTraceNodeCount": 5
    },
    "state_change": {
        "stateChanges": [
            {
                "address": "0x06012c8cf97bead5deae237070f9587f8e7a266d",
                "erc": "",
                "slots": [
                    {
                        "current": "0x000000000000000000000000c7af99fe5513eb6710e6d5f44f9989da40f27f26",
                        "key": "0x086444f65f6f7fb5a5a5949916244be0b7ceddc1b922e0f86e37d8f77ce52492",
                        "prev": "0x000000000000000000000000f2e4f505a22ba4a3aececba2589239afcadd7223"
                    },
                    {
                        "current": "0x0000000000000000000000000000000000000000000000000000000000000009",
                        "key": "0x36b8e20f4cfbd86e40783230caa4d99656dcb0bb194ab271ab0fc88a27b417e8",
                        "prev": "0x000000000000000000000000000000000000000000000000000000000000000a"
                    },
                    {
                        "current": "0x0000000000000000000000000000000000000000000000000000000000007fa6",
                        "key": "0xde6374a2cde2f665f585a2517c3b7d90f84d8025104dff6ba1ffbb9eebd58e62",
                        "prev": "0x0000000000000000000000000000000000000000000000000000000000007fa5"
                    }
                ],
                "storageVariables": [
                    {
                        "name": "ownershipTokenCount",
                        "type": "mapping(address => uint256)",
                        "value": {
                            "pairs": [
                                {
                                    "key": "0xc7af99fe5513eb6710e6d5f44f9989da40f27f26",
                                    "value": {
                                        "current": "32678",
                                        "prev": "32677",
                                        "typeTag": 1
                                    }
                                },
                                {
                                    "key": "0xf2e4f505a22ba4a3aececba2589239afcadd7223",
                                    "value": {
                                        "current": "9",
                                        "prev": "10",
                                        "typeTag": 1
                                    }
                                }
                            ],
                            "typeTag": 4
                        }
                    },
                    {
                        "name": "kittyIndexToOwner",
                        "type": "mapping(uint256 => address)",
                        "value": {
                            "pairs": [
                                {
                                    "key": "337104",
                                    "value": {
                                        "current": "0xc7af99fe5513eb6710e6d5f44f9989da40f27f26",
                                        "prev": "0xf2e4f505a22ba4a3aececba2589239afcadd7223",
                                        "typeTag": 1
                                    }
                                }
                            ],
                            "typeTag": 4
                        }
                    }
                ]
            },
            {
                "address": "0xc7af99fe5513eb6710e6d5f44f9989da40f27f26",
                "erc": "",
                "slots": [
                    {
                        "current": "0x00000000000000000000000000000000000000005a8f4547000000000002a300",
                        "key": "0x9542b7043267560cc8587c136f7e24ba297abdc4753116a73f20461146a0114d",
                        "prev": "0x0000000000000000000000000000000000000000000000000000000000000000"
                    },
                    {
                        "current": "0x000000000000000000000000f2e4f505a22ba4a3aececba2589239afcadd7223",
                        "key": "0x9542b7043267560cc8587c136f7e24ba297abdc4753116a73f20461146a0114b",
                        "prev": "0x0000000000000000000000000000000000000000000000000000000000000000"
                    },
                    {
                        "current": "0x0000000000000000001ff973cafa80000000000000000000002386f26fc10000",
                        "key": "0x9542b7043267560cc8587c136f7e24ba297abdc4753116a73f20461146a0114c",
                        "prev": "0x0000000000000000000000000000000000000000000000000000000000000000"
                    }
                ],
                "storageVariables": [
                    {
                        "name": "tokenIdToAuction",
                        "type": "mapping(uint256 => struct ClockAuctionBase.Auction)",
                        "value": {
                            "pairs": [
                                {
                                    "key": "337104",
                                    "value": {
                                        "fields": [
                                            {
                                                "name": "seller",
                                                "type": "address",
                                                "value": {
                                                    "current": "0xf2e4f505a22ba4a3aececba2589239afcadd7223",
                                                    "prev": "0x0000000000000000000000000000000000000000",
                                                    "typeTag": 1
                                                }
                                            },
                                            {
                                                "name": "startingPrice",
                                                "type": "uint128",
                                                "value": {
                                                    "current": "10000000000000000",
                                                    "prev": "0",
                                                    "typeTag": 1
                                                }
                                            },
                                            {
                                                "name": "endingPrice",
                                                "type": "uint128",
                                                "value": {
                                                    "current": "9000000000000000",
                                                    "prev": "0",
                                                    "typeTag": 1
                                                }
                                            },
                                            {
                                                "name": "duration",
                                                "type": "uint64",
                                                "value": {
                                                    "current": "172800",
                                                    "prev": "0",
                                                    "typeTag": 1
                                                }
                                            },
                                            {
                                                "name": "startedAt",
                                                "type": "uint64",
                                                "value": {
                                                    "current": "1519338823",
                                                    "prev": "0",
                                                    "typeTag": 1
                                                }
                                            }
                                        ],
                                        "typeTag": 3
                                    }
                                }
                            ],
                            "typeTag": 4
                        }
                    }
                ]
            }
        ]
    }
}