{
    "balance_change": {
        "balanceChanges": [
            {
                "account": "0xd11fc3b81e45fbfdf6344d550004f50af0f9b4b9",
                "assets": [
                    {
                        "address": "0x9bc695b4e58c41619307951ad6e29d9c6895558c",
                        "amount": "1",
                        "iconUrl": "",
                        "isERC1155": false,
                        "isERC721": true,
                        "sign": true,
                        "tokenID": "6479",
                        "value": ""
                    }
                ]
            },
            {
                "account": "0xa177fe58304598e5695105bb3b5c43e697a9e3c7",
                "assets": [
                    {
                        "address": "0x9bc695b4e58c41619307951ad6e29d9c6895558c",
                        "amount": "1",
                        "iconUrl": "",
                        "isERC1155": false,
                        "isERC721": true,
                        "sign": false,
                        "tokenID": "6479",
                        "value": ""
                    }
                ]
            }
        ]
    },
    "profile": {
        "basic_info": {
            "baseFee": "15.549866004",
            "blockNumber": 17866360,
            "callData": "0x680754db00000000000000000000000000000000000000000000000000000000000000a00000000000000000000000000000000000000000000000000000000000000293000000000000000000000000000000000000000000000000000000000000036000000000000000000000000000000000000000000000000000000000000000010000000000000000000000000000000000000000000000000000000000000540000000000000000000000000000000000000000000000000000000000000002000000000000000000000000000000000000000000000000000000000000000010000000000000000000000000000000000000000000000000000000000000020000000000000000000000000a177fe58304598e5695105bb3b5c43e697a9e3c70000000000000000000000000000000000000000000000000000000000000060000000000000000000000000000000000000000000000000000000000000000000000000000000000000000000000000000000000000000000000000000001c4a623a8ef000000000000000000000000000000000000000000000000000000000000004000000000000000000000000000000000000000000000000000000000000001a00000000000000000000000000000000000000000000000000000000000000020000000000000000000000000000000000000000000000000000000000000000100000000000000000000000000000000000000000000000000000000000000200000000000000000000000009bc695b4e58c41619307951ad6e29d9c6895558c00000000000000000000000000000000000000000000000000000000000000600000000000000000000000000000000000000000000000000000000000000000000000000000000000000000000000000000000000000000000000000000006442842e0e000000000000000000000000a177fe58304598e5695105bb3b5c43e697a9e3c7000000000000000000000000d11fc3b81e45fbfdf6344d550004f50af0f9b4b9000000000000000000000000000000000000000000000000000000000000194f000000000000000000000000000000000000000000000000000000000000000000000000000000000000000000000000000000000000000000000000000000000000000000000000000000000000000000000000000000000000000000000000000000000000000000000000000000000000000000000002000000000000000000000000000000000000000000000000000000000000004000000000000000000000000000000000000000000000000000000000000001000000000000000000000000000000000000000000000000000000000000000001000000000000000000000000000000000000000000000000000000000000002000000000000000000000000000000000000000000000000000000000000000411b3c2553349433e3156fd36fb04330d850beed9d62f43cb18fbd88b19da1027b3c30e427c4f305c17ab5adc436d1523c034fa497ac43c60de0a20def0c7fc0061b000000000000000000000000000000000000000000000000000000000000000000000000000000000000000000000000000000000000000000000000000001000000000000000000000000000000000000000000000000000000000000002000000000000000000000000000000000000000000000000000000000000000415ea35cf07c53156dc2fd09608712588c83e8fbf61c606ffb9d71f56b3e85d00345c801a93da0657b98b431317b78b70b710ad0f34e5e504291f644af00b7e8aa1b000000000000000000000000000000000000000000000000000000000000000000000000000000000000000000000000000000000000000000000000000000",
            "debugEnable": true,
            "errorInfo": "",
            "eventCount": 3,
            "feeRecipient": "0x1f9090aae28b8a3dceadf281b0f12828e676c326",
            "formatValue": "0",
            "gasLimit": 894780,
            "gasPrice": "15.584150839",
            "gasUsed": 290482,
            "intTxnCount": 15,
            "internalRevert": false,
            "internalRevertMessage": "",
            "isContractCreation": false,
            "isFlashloan": false,
            "maxFee": "30.647226651",
            "nonce": 263,
            "overwritedBlockNumber": -1,
            "priorityFee": "0.034284835",
            "receiver": "0xaecd4fea00199603d2cfdfb24133f060c229bc94",
            "revertMessage": "",
            "sender": "0xd2eab601db012dab1099725344d5e692728c76f1",
            "simulationEnable": true,
            "sourceTxnHash": "0x52a15ececcf2150f3214d8f65f15e28301b13522bc7aac40f52676356396a115",
            "status": true,
            "timestamp": "2023-08-07T23:34:23Z",
            "transactionFee": "0.004526915304014398",
            "txnHash": "0x52a15ececcf2150f3214d8f65f15e28301b13522bc7aac40f52676356396a115",
            "txnIndex": 157,
            "type": 2,
            "value": "0"
        },
        "fund_flow": [
            {
                "amount": "1",
                "from": "0xa177fe58304598e5695105bb3b5c43e697a9e3c7",
                "id": 1,
                "isERC1155": false,
                "isERC721": true,
                "isReverted": false,
                "order": 1,
                "to": "0xd11fc3b81e45fbfdf6344d550004f50af0f9b4b9",
                "token": "0x9bc695b4e58c41619307951ad6e29d9c6895558c",
                "tokenID": "6479"
            }
        ],
        "token_infos": [
            {
                "address": "0xeeeeeeeeeeeeeeeeeeeeeeeeeeeeeeeeeeeeeeee",
                "decimals": 18
            },
            {
                "address": "0xc02aaa39b223fe8d0a0e5c4f27ead9083c756cc2",
                "decimals": 18
            }
        ]
    },
    "address_label": {
        "labels": [
            {
                "address": "0x0000000000000000000000000000000000000004",
                "label": "Precompiled"
            },
            {
                "address": "0xeeeeeeeeeeeeeeeeeeeeeeeeeeeeeeeeeeeeeeee",
                "label": "Ether"
            },
            {
                "address": "0xaecd4fea00199603d2cfdfb24133f060c229bc94",
                "label": "Multi-signer for Operator & Se..."
            },
            {
                "address": "0xf86cf46a6a9cf508362773eb1cf1f3ebf93373ce",
                "label": "GlobalConfig"
            },
            {
                "address": "0x9bc695b4e58c41619307951ad6e29d9c6895558c",
                "label": "MicDoll"
            },
            {
                "address": "0x0000000000000000000000000000000000000001",
                "label": "Precompiled"
            },
            {
                "address": "0x0000000000000000000000000000000000000002",
                "label": "Precompiled"
            },
            {
                "address": "0x0000000000000000000000000000000000000003",
                "label": "Precompiled"
            }
        ]
    },
    "trace": {
        "accountLabels": null,
        "dataMap": {
            "-1": {
                "invocation": {
                    "address": "0xd2eab601db012dab1099725344d5e692728c76f1",
                    "callData": "",
                    "decodedMethod": null,
                    "errorInfo": "",
                    "fromAddress": "",
                    "gasUsed": 0,
                    "id": -1,
                    "methodDecoded": false,
                    "operation": "",
                    "output": "",
                    "revert": false,
                    "revertMessage": "",
                    "selector": "",
                    "status": false,
                    "value": ""
                },
                "nodeType": 0
            },
            "0": {
                "invocation": {
                    "address": "0xaecd4fea00199603d2cfdfb24133f060c229bc94",
                    "callData": "0x00000000000000000000000000000000000000000000000000000000000000a00000000000000000000000000000000000000000000000000000000000000293000000000000000000000000000000000000000000000000000000000000036000000000000000000000000000000000000000000000000000000000000000010000000000000000000000000000000000000000000000000000000000000540000000000000000000000000000000000000000000000000000000000000002000000000000000000000000000000000000000000000000000000000000000010000000000000000000000000000000000000000000000000000000000000020000000000000000000000000a177fe58304598e5695105bb3b5c43e697a9e3c70000000000000000000000000000000000000000000000000000000000000060000000000000000000000000000000000000000000000000000000000000000000000000000000000000000000000000000000000000000000000000000001c4a623a8ef000000000000000000000000000000000000000000000000000000000000004000000000000000000000000000000000000000000000000000000000000001a00000000000000000000000000000000000000000000000000000000000000020000000000000000000000000000000000000000000000000000000000000000100000000000000000000000000000000000000000000000000000000000000200000000000000000000000009bc695b4e58c41619307951ad6e29d9c6895558c00000000000000000000000000000000000000000000000000000000000000600000000000000000000000000000000000000000000000000000000000000000000000000000000000000000000000000000000000000000000000000000006442842e0e000000000000000000000000a177fe58304598e5695105bb3b5c43e697a9e3c7000000000000000000000000d11fc3b81e45fbfdf6344d550004f50af0f9b4b9000000000000000000000000000000000000000000000000000000000000194f000000000000000000000000000000000000000000000000000000000000000000000000000000000000000000000000000000000000000000000000000000000000000000000000000000000000000000000000000000000000000000000000000000000000000000000000000000000000000000000002000000000000000000000000000000000000000000000000000000000000004000000000000000000000000000000000000000000000000000000000000001000000000000000000000000000000000000000000000000000000000000000001000000000000000000000000000000000000000000000000000000000000002000000000000000000000000000000000000000000000000000000000000000411b3c2553349433e3156fd36fb04330d850beed9d62f43cb18fbd88b19da1027b3c30e427c4f305c17ab5adc436d1523c034fa497ac43c60de0a20def0c7fc0061b000000000000000000000000000000000000000000000000000000000000000000000000000000000000000000000000000000000000000000000000000001000000000000000000000000000000000000000000000000000000000000002000000000000000000000000000000000000000000000000000000000000000415ea35cf07c53156dc2fd09608712588c83e8fbf61c606ffb9d71f56b3e85d00345c801a93da0657b98b431317b78b70b710ad0f34e5e504291f644af00b7e8aa1b000000000000000000000000000000000000000000000000000000000000000000000000000000000000000000000000000000000000000000000000000000",
                    "decodedMethod": null,
                    "errorInfo": "",
                    "fromAddress": "0xd2eab601db012dab1099725344d5e692728c76f1",
                    "gasUsed": 290482,
                    "id": 0,
                    "methodDecoded": false,
                    "operation": "CALL",
                    "output": "",
                    "revert": false,
                    "revertMessage": "",
                    "selector": "0x680754db",
                    "status": true,
                    "value": "0"
                },
                "nodeType": 0
            },
            "1": {
                "invocation": {
                    "address": "0xf86cf46a6a9cf508362773eb1cf1f3ebf93373ce",
                    "callData": "0x0b7322ebc56f27a124c063802688bbc3635a2ce3f24abda3e4adaec5fce31196000000000000000000000000d2eab601db012dab1099725344d5e692728c76f1",
                    "decodedMethod": {
                        "callParams": [
                            {
                                "name": "role",
                                "type": "bytes32",
                                "value": "0x0b7322ebc56f27a124c063802688bbc3635a2ce3f24abda3e4adaec5fce31196"
                            },
                            {
                                "name": "account",
                                "type": "address",
                                "value": "0xd2eab601db012dab1099725344d5e692728c76f1"
                            }
                        ],
                        "constructorArguments": "",
                        "name": "hasRole",
                        "returnParams": [
                            {
                                "name": "has",
                                "type": "bool",
                                "value": true
                            }
                        ],
                        "signature": "hasRole(bytes32,address)"
                    },
                    "errorInfo": "",
                    "fromAddress": "0xaecd4fea00199603d2cfdfb24133f060c229bc94",
                    "gasUsed": 3308,
                    "id": 1,
                    "methodDecoded": true,
                    "operation": "STATICCALL",
                    "output": "0x0000000000000000000000000000000000000000000000000000000000000001",
                    "revert": false,
                    "revertMessage": "",
                    "selector": "0x91d14854",
                    "status": true,
                    "value": "0"
                },
                "nodeType": 0
            },
            "10": {
                "invocation": {
                    "address": "0x9bc695b4e58c41619307951ad6e29d9c6895558c",
                    "callData": "0x000000000000000000000000a177fe58304598e5695105bb3b5c43e697a9e3c7000000000000000000000000d11fc3b81e45fbfdf6344d550004f50af0f9b4b9000000000000000000000000000000000000000000000000000000000000194f",
                    "decodedMethod": {
                        "callParams": [
                            {
                                "name": "from",
                                "type": "address",
                                "value": "0xa177fe58304598e5695105bb3b5c43e697a9e3c7"
                            },
                            {
                                "name": "to",
                                "type": "address",
                                "value": "0xd11fc3b81e45fbfdf6344d550004f50af0f9b4b9"
                            },
                            {
                                "name": "tokenId",
                                "type": "uint256",
                                "value": "6,479"
                            }
                        ],
                        "constructorArguments": "",
                        "name": "safeTransferFrom",
                        "returnParams": [],
                        "signature": "safeTransferFrom(address,address,uint256)"
                    },
                    "errorInfo": "",
                    "fromAddress": "0xa177fe58304598e5695105bb3b5c43e697a9e3c7",
                    "gasUsed": 123734,
                    "id": 10,
                    "methodDecoded": true,
                    "operation": "CALL",
                    "output": "",
                    "revert": false,
                    "revertMessage": "",
                    "selector": "0x42842e0e",
                    "status": true,
                    "value": "0"
                },
                "nodeType": 0
            },
            "11": {
                "invocation": {
                    "address": "0xf86cf46a6a9cf508362773eb1cf1f3ebf93373ce",
                    "callData": "0x0000000000000000000000000000000000000000000000000000000000000000000000000000000000000000a177fe58304598e5695105bb3b5c43e697a9e3c7",
                    "decodedMethod": {
                        "callParams": [
                            {
                                "name": "role",
                                "type": "bytes32",
                                "value": "0x0000000000000000000000000000000000000000000000000000000000000000"
                            },
                            {
                                "name": "account",
                                "type": "address",
                                "value": "0xa177fe58304598e5695105bb3b5c43e697a9e3c7"
                            }
                        ],
                        "constructorArguments": "",
                        "name": "hasRole",
                        "returnParams": [
                            {
                                "name": "has",
                                "type": "bool",
                                "value": false
                            }
                        ],
                        "signature": "hasRole(bytes32,address)"
                    },
                    "errorInfo": "",
                    "fromAddress": "0x9bc695b4e58c41619307951ad6e29d9c6895558c",
                    "gasUsed": 8843,
                    "id": 11,
                    "methodDecoded": true,
                    "operation": "STATICCALL",
                    "output": "0x0000000000000000000000000000000000000000000000000000000000000000",
                    "revert": false,
                    "revertMessage": "",
                    "selector": "0x91d14854",
                    "status": true,
                    "value": "0"
                },
                "nodeType": 0
            },
            "12": {
                "invocation": {
                    "address": "0xf86cf46a6a9cf508362773eb1cf1f3ebf93373ce",
                    "callData": "0xa49807205ce4d355092ef5a8a18f56e8913cf4a201fbe287825b095693c21775000000000000000000000000a177fe58304598e5695105bb3b5c43e697a9e3c7",
                    "decodedMethod": {
                        "callParams": [
                            {
                                "name": "role",
                                "type": "bytes32",
                                "value": "0xa49807205ce4d355092ef5a8a18f56e8913cf4a201fbe287825b095693c21775"
                            },
                            {
                                "name": "account",
                                "type": "address",
                                "value": "0xa177fe58304598e5695105bb3b5c43e697a9e3c7"
                            }
                        ],
                        "constructorArguments": "",
                        "name": "hasRole",
                        "returnParams": [
                            {
                                "name": "has",
                                "type": "bool",
                                "value": false
                            }
                        ],
                        "signature": "hasRole(bytes32,address)"
                    },
                    "errorInfo": "",
                    "fromAddress": "0x9bc695b4e58c41619307951ad6e29d9c6895558c",
                    "gasUsed": 8843,
                    "id": 12,
                    "methodDecoded": true,
                    "operation": "STATICCALL",
                    "output": "0x0000000000000000000000000000000000000000000000000000000000000000",
                    "revert": false,
                    "revertMessage": "",
                    "selector": "0x91d14854",
                    "status": true,
                    "value": "0"
                },
                "nodeType": 0
            },
            "13": {
                "invocation": {
                    "address": "0xf86cf46a6a9cf508362773eb1cf1f3ebf93373ce",
                    "callData": "0xeceef7797af2e02f3081f740231d7a12b7f97400383d3ffdfa8953c62acb4708000000000000000000000000a177fe58304598e5695105bb3b5c43e697a9e3c7",
                    "decodedMethod": {
                        "callParams": [
                            {
                                "name": "role",
                                "type": "bytes32",
                                "value": "0xeceef7797af2e02f3081f740231d7a12b7f97400383d3ffdfa8953c62acb4708"
                            },
                            {
                                "name": "account",
                                "type": "address",
                                "value": "0xa177fe58304598e5695105bb3b5c43e697a9e3c7"
                            }
                        ],
                        "constructorArguments": "",
                        "name": "hasRole",
                        "returnParams": [
                            {
                                "name": "has",
                                "type": "bool",
                                "value": false
                            }
                        ],
                        "signature": "hasRole(bytes32,address)"
                    },
                    "errorInfo": "",
                    "fromAddress": "0x9bc695b4e58c41619307951ad6e29d9c6895558c",
                    "gasUsed": 8843,
                    "id": 13,
                    "methodDecoded": true,
                    "operation": "STATICCALL",
                    "output": "0x0000000000000000000000000000000000000000000000000000000000000000",
                    "revert": false,
                    "revertMessage": "",
                    "selector": "0x91d14854",
                    "status": true,
                    "value": "0"
                },
                "nodeType": 0
            },
            "14": {
                "invocation": {
                    "address": "0xf86cf46a6a9cf508362773eb1cf1f3ebf93373ce",
                    "callData": "0x0000000000000000000000000000000000000000000000000000000000000000000000000000000000000000d11fc3b81e45fbfdf6344d550004f50af0f9b4b9",
                    "decodedMethod": {
                        "callParams": [
                            {
                                "name": "role",
                                "type": "bytes32",
                                "value": "0x0000000000000000000000000000000000000000000000000000000000000000"
                            },
                            {
                                "name": "account",
                                "type": "address",
                                "value": "0xd11fc3b81e45fbfdf6344d550004f50af0f9b4b9"
                            }
                        ],
                        "constructorArguments": "",
                        "name": "hasRole",
                        "returnParams": [
                            {
                                "name": "has",
                                "type": "bool",
                                "value": false
                            }
                        ],
                        "signature": "hasRole(bytes32,address)"
                    },
                    "errorInfo": "",
                    "fromAddress": "0x9bc695b4e58c41619307951ad6e29d9c6895558c",
                    "gasUsed": 4843,
                    "id": 14,
                    "methodDecoded": true,
                    "operation": "STATICCALL",
                    "output": "0x0000000000000000000000000000000000000000000000000000000000000000",
                    "revert": false,
                    "revertMessage": "",
                    "selector": "0x91d14854",
                    "status": true,
                    "value": "0"
                },
                "nodeType": 0
            },
            "15": {
                "invocation": {
                    "address": "0xf86cf46a6a9cf508362773eb1cf1f3ebf93373ce",
                    "callData": "0xa49807205ce4d355092ef5a8a18f56e8913cf4a201fbe287825b095693c21775000000000000000000000000d11fc3b81e45fbfdf6344d550004f50af0f9b4b9",
                    "decodedMethod": {
                        "callParams": [
                            {
                                "name": "role",
                                "type": "bytes32",
                                "value": "0xa49807205ce4d355092ef5a8a18f56e8913cf4a201fbe287825b095693c21775"
                            },
                            {
                                "name": "account",
                                "type": "address",
                                "value": "0xd11fc3b81e45fbfdf6344d550004f50af0f9b4b9"
                            }
                        ],
                        "constructorArguments": "",
                        "name": "hasRole",
                        "returnParams": [
                            {
                                "name": "has",
                                "type": "bool",
                                "value": false
                            }
                        ],
                        "signature": "hasRole(bytes32,address)"
                    },
                    "errorInfo": "",
                    "fromAddress": "0x9bc695b4e58c41619307951ad6e29d9c6895558c",
                    "gasUsed": 4843,
                    "id": 15,
                    "methodDecoded": true,
                    "operation": "STATICCALL",
                    "output": "0x0000000000000000000000000000000000000000000000000000000000000000",
                    "revert": false,
                    "revertMessage": "",
                    "selector": "0x91d14854",
                    "status": true,
                    "value": "0"
                },
                "nodeType": 0
            },
            "16": {
                "invocation": {
                    "address": "0xf86cf46a6a9cf508362773eb1cf1f3ebf93373ce",
                    "callData": "0xeceef7797af2e02f3081f740231d7a12b7f97400383d3ffdfa8953c62acb4708000000000000000000000000d11fc3b81e45fbfdf6344d550004f50af0f9b4b9",
                    "decodedMethod": {
                        "callParams": [
                            {
                                "name": "role",
                                "type": "bytes32",
                                "value": "0xeceef7797af2e02f3081f740231d7a12b7f97400383d3ffdfa8953c62acb4708"
                            },
                            {
                                "name": "account",
                                "type": "address",
                                "value": "0xd11fc3b81e45fbfdf6344d550004f50af0f9b4b9"
                            }
                        ],
                        "constructorArguments": "",
                        "name": "hasRole",
                        "returnParams": [
                            {
                                "name": "has",
                                "type": "bool",
                                "value": false
                            }
                        ],
                        "signature": "hasRole(bytes32,address)"
                    },
                    "errorInfo": "",
                    "fromAddress": "0x9bc695b4e58c41619307951ad6e29d9c6895558c",
                    "gasUsed": 4843,
                    "id": 16,
                    "methodDecoded": true,
                    "operation": "STATICCALL",
                    "output": "0x0000000000000000000000000000000000000000000000000000000000000000",
                    "revert": false,
                    "revertMessage": "",
                    "selector": "0x91d14854",
                    "status": true,
                    "value": "0"
                },
                "nodeType": 0
            },
            "17": {
                "event": {
                    "contract": "0x9bc695b4e58c41619307951ad6e29d9c6895558c",
                    "decodedLog": {
                        "name": "Transfer",
                        "params": [
                            {
                                "name": "from",
                                "type": "address",
                                "value": "0xa177fe58304598e5695105bb3b5c43e697a9e3c7"
                            },
                            {
                                "name": "to",
                                "type": "address",
                                "value": "0xd11fc3b81e45fbfdf6344d550004f50af0f9b4b9"
                            },
                            {
                                "decimalAvailable": true,
                                "name": "tokenId",
                                "type": "uint256",
                                "value": "6,479"
                            }
                        ],
                        "signature": "Transfer(address,address,uint256)"
                    },
                    "id": 17,
                    "logData": "0x",
                    "logDecoded": true,
                    "operation": "EVENT",
                    "revert": false,
                    "status": true,
                    "topics": [
                        "0xddf252ad1be2c89b69c2b068fc378daa952ba7f163c4a11628f55a4df523b3ef",
                        "0x000000000000000000000000a177fe58304598e5695105bb3b5c43e697a9e3c7",
                        "0x000000000000000000000000d11fc3b81e45fbfdf6344d550004f50af0f9b4b9",
                        "0x000000000000000000000000000000000000000000000000000000000000194f"
                    ]
                },
                "nodeType": 1
            },
            "18": {
                "event": {
                    "contract": "0xaecd4fea00199603d2cfdfb24133f060c229bc94",
                    "decodedLog": null,
                    "id": 18,
                    "logData": "0x00000000000000000000000000000000000000000000000000000000000000a00000000000000000000000000000000000000000000000000000000000000001000000000000000000000000000000000000000000000000000000000000036000000000000000000000000000000000000000000000000000000000000003800000000000000000000000000000000000000000000000000000000000000001000000000000000000000000000000000000000000000000000000000000002000000000000000000000000000000000000000000000000000000000000000010000000000000000000000000000000000000000000000000000000000000020000000000000000000000000a177fe58304598e5695105bb3b5c43e697a9e3c70000000000000000000000000000000000000000000000000000000000000060000000000000000000000000000000000000000000000000000000000000000000000000000000000000000000000000000000000000000000000000000001c4a623a8ef000000000000000000000000000000000000000000000000000000000000004000000000000000000000000000000000000000000000000000000000000001a00000000000000000000000000000000000000000000000000000000000000020000000000000000000000000000000000000000000000000000000000000000100000000000000000000000000000000000000000000000000000000000000200000000000000000000000009bc695b4e58c41619307951ad6e29d9c6895558c00000000000000000000000000000000000000000000000000000000000000600000000000000000000000000000000000000000000000000000000000000000000000000000000000000000000000000000000000000000000000000000006442842e0e000000000000000000000000a177fe58304598e5695105bb3b5c43e697a9e3c7000000000000000000000000d11fc3b81e45fbfdf6344d550004f50af0f9b4b9000000000000000000000000000000000000000000000000000000000000194f0000000000000000000000000000000000000000000000000000000000000000000000000000000000000000000000000000000000000000000000000000000000000000000000000000000000000000000000000000000000000000000000000000000000000000000000000000000000000000000000000000000000000000000000000000000000000000000000000000000000000000",
                    "logDecoded": false,
                    "operation": "EVENT",
                    "revert": false,
                    "status": true,
                    "topics": [
                        "0x4071f64eaf4d348c83f2d213e607d3e91ea291d1b573eb67788813d21c1e5b6d",
                        "0x000000000000000000000000d2eab601db012dab1099725344d5e692728c76f1",
                        "0x0000000000000000000000000000000000000000000000000000000000000293",
                        "0x1d141e5ed65533b5981919e4350f4b0abd203e295032a5b6caa7c0ec047a43b9"
                    ]
                },
                "nodeType": 1
            },
            "2": {
                "invocation": {
                    "address": "0x0000000000000000000000000000000000000001",
                    "callData": "0xd65533b5981919e4350f4b0abd203e295032a5b6caa7c0ec047a43b9000000000000000000000000000000000000000000000000000000000000001b1b3c2553349433e3156fd36fb04330d850beed9d62f43cb18fbd88b19da1027b3c30e427c4f305c17ab5adc436d1523c034fa497ac43c60de0a20def0c7fc006",
                    "decodedMethod": {
                        "callParams": [
                            {
                                "name": "hash",
                                "type": "bytes32",
                                "value": "0x1d141e5ed65533b5981919e4350f4b0abd203e295032a5b6caa7c0ec047a43b9"
                            },
                            {
                                "name": "v",
                                "type": "uint256",
                                "value": "27"
                            },
                            {
                                "name": "r",
                                "type": "bytes32",
                                "value": "0x1b3c2553349433e3156fd36fb04330d850beed9d62f43cb18fbd88b19da1027b"
                            },
                            {
                                "name": "s",
                                "type": "bytes32",
                                "value": "0x3c30e427c4f305c17ab5adc436d1523c034fa497ac43c60de0a20def0c7fc006"
                            }
                        ],
                        "constructorArguments": "",
                        "name": "ecrecover",
                        "returnParams": [
                            {
                                "name": "",
                                "type": "address",
                                "value": "0x29a4b03dfa539af9e3e81a5e12a338ea60dc5db4"
                            }
                        ],
                        "signature": "ecrecover(bytes32,uint256,bytes32,bytes32)"
                    },
                    "errorInfo": "",
                    "fromAddress": "0xaecd4fea00199603d2cfdfb24133f060c229bc94",
                    "gasUsed": 3000,
                    "id": 2,
                    "methodDecoded": true,
                    "operation": "STATICCALL",
                    "output": "0x00000000000000000000000029a4b03dfa539af9e3e81a5e12a338ea60dc5db4",
                    "revert": false,
                    "revertMessage": "",
                    "selector": "0x1d141e5e",
                    "status": true,
                    "value": "0"
                },
                "nodeType": 0
            },
            "3": {
                "invocation": {
                    "address": "0xf86cf46a6a9cf508362773eb1cf1f3ebf93373ce",
                    "callData": "0x46a52cf33029de9f84853745a87af28464c80bf0346df1b32e205fc73319f62200000000000000000000000029a4b03dfa539af9e3e81a5e12a338ea60dc5db4",
                    "decodedMethod": {
                        "callParams": [
                            {
                                "name": "role",
                                "type": "bytes32",
                                "value": "0x46a52cf33029de9f84853745a87af28464c80bf0346df1b32e205fc73319f622"
                            },
                            {
                                "name": "account",
                                "type": "address",
                                "value": "0x29a4b03dfa539af9e3e81a5e12a338ea60dc5db4"
                            }
                        ],
                        "constructorArguments": "",
                        "name": "hasRole",
                        "returnParams": [
                            {
                                "name": "has",
                                "type": "bool",
                                "value": true
                            }
                        ],
                        "signature": "hasRole(bytes32,address)"
                    },
                    "errorInfo": "",
                    "fromAddress": "0xaecd4fea00199603d2cfdfb24133f060c229bc94",
                    "gasUsed": 3308,
                    "id": 3,
                    "methodDecoded": true,
                    "operation": "STATICCALL",
                    "output": "0x0000000000000000000000000000000000000000000000000000000000000001",
                    "revert": false,
                    "revertMessage": "",
                    "selector": "0x91d14854",
                    "status": true,
                    "value": "0"
                },
                "nodeType": 0
            },
            "4": {
                "invocation": {
                    "address": "0x0000000000000000000000000000000000000001",
                    "callData": "0xd65533b5981919e4350f4b0abd203e295032a5b6caa7c0ec047a43b9000000000000000000000000000000000000000000000000000000000000001b5ea35cf07c53156dc2fd09608712588c83e8fbf61c606ffb9d71f56b3e85d00345c801a93da0657b98b431317b78b70b710ad0f34e5e504291f644af00b7e8aa",
                    "decodedMethod": {
                        "callParams": [
                            {
                                "name": "hash",
                                "type": "bytes32",
                                "value": "0x1d141e5ed65533b5981919e4350f4b0abd203e295032a5b6caa7c0ec047a43b9"
                            },
                            {
                                "name": "v",
                                "type": "uint256",
                                "value": "27"
                            },
                            {
                                "name": "r",
                                "type": "bytes32",
                                "value": "0x5ea35cf07c53156dc2fd09608712588c83e8fbf61c606ffb9d71f56b3e85d003"
                            },
                            {
                                "name": "s",
                                "type": "bytes32",
                                "value": "0x45c801a93da0657b98b431317b78b70b710ad0f34e5e504291f644af00b7e8aa"
                            }
                        ],
                        "constructorArguments": "",
                        "name": "ecrecover",
                        "returnParams": [
                            {
                                "name": "",
                                "type": "address",
                                "value": "0x520a829052ed08fa5109af502be84cce638d9f7c"
                            }
                        ],
                        "signature": "ecrecover(bytes32,uint256,bytes32,bytes32)"
                    },
                    "errorInfo": "",
                    "fromAddress": "0xaecd4fea00199603d2cfdfb24133f060c229bc94",
                    "gasUsed": 3000,
                    "id": 4,
                    "methodDecoded": true,
                    "operation": "STATICCALL",
                    "output": "0x000000000000000000000000520a829052ed08fa5109af502be84cce638d9f7c",
                    "revert": false,
                    "revertMessage": "",
                    "selector": "0x1d141e5e",
                    "status": true,
                    "value": "0"
                },
                "nodeType": 0
            },
            "5": {
                "invocation": {
                    "address": "0xf86cf46a6a9cf508362773eb1cf1f3ebf93373ce",
                    "callData": "0xac02c3c644549ac65116cf5a9937aea85546e641364a9af91a36eda41a13b7e6000000000000000000000000520a829052ed08fa5109af502be84cce638d9f7c",
                    "decodedMethod": {
                        "callParams": [
                            {
                                "name": "role",
                                "type": "bytes32",
                                "value": "0xac02c3c644549ac65116cf5a9937aea85546e641364a9af91a36eda41a13b7e6"
                            },
                            {
                                "name": "account",
                                "type": "address",
                                "value": "0x520a829052ed08fa5109af502be84cce638d9f7c"
                            }
                        ],
                        "constructorArguments": "",
                        "name": "hasRole",
                        "returnParams": [
                            {
                                "name": "has",
                                "type": "bool",
                                "value": true
                            }
                        ],
                        "signature": "hasRole(bytes32,address)"
                    },
                    "errorInfo": "",
                    "fromAddress": "0xaecd4fea00199603d2cfdfb24133f060c229bc94",
                    "gasUsed": 3308,
                    "id": 5,
                    "methodDecoded": true,
                    "operation": "STATICCALL",
                    "output": "0x0000000000000000000000000000000000000000000000000000000000000001",
                    "revert": false,
                    "revertMessage": "",
                    "selector": "0x91d14854",
                    "status": true,
                    "value": "0"
                },
                "nodeType": 0
            },
            "6": {
                "invocation": {
                    "address": "0xaecd4fea00199603d2cfdfb24133f060c229bc94",
                    "callData": "0x0000000000000000000000000000000000000000000000000000000000000020000000000000000000000000000000000000000000000000000000000000002000000000000000000000000000000000000000000000000000000000000000010000000000000000000000000000000000000000000000000000000000000020000000000000000000000000a177fe58304598e5695105bb3b5c43e697a9e3c70000000000000000000000000000000000000000000000000000000000000060000000000000000000000000000000000000000000000000000000000000000000000000000000000000000000000000000000000000000000000000000001c4a623a8ef000000000000000000000000000000000000000000000000000000000000004000000000000000000000000000000000000000000000000000000000000001a00000000000000000000000000000000000000000000000000000000000000020000000000000000000000000000000000000000000000000000000000000000100000000000000000000000000000000000000000000000000000000000000200000000000000000000000009bc695b4e58c41619307951ad6e29d9c6895558c00000000000000000000000000000000000000000000000000000000000000600000000000000000000000000000000000000000000000000000000000000000000000000000000000000000000000000000000000000000000000000000006442842e0e000000000000000000000000a177fe58304598e5695105bb3b5c43e697a9e3c7000000000000000000000000d11fc3b81e45fbfdf6344d550004f50af0f9b4b9000000000000000000000000000000000000000000000000000000000000194f00000000000000000000000000000000000000000000000000000000000000000000000000000000000000000000000000000000000000000000000000000000000000000000000000000000000000000000000000000000",
                    "decodedMethod": null,
                    "errorInfo": "",
                    "fromAddress": "0xaecd4fea00199603d2cfdfb24133f060c229bc94",
                    "gasUsed": 161042,
                    "id": 6,
                    "methodDecoded": false,
                    "operation": "CALL",
                    "output": "",
                    "revert": false,
                    "revertMessage": "",
                    "selector": "0x5e060d79",
                    "status": true,
                    "value": "0"
                },
                "nodeType": 0
            },
            "7": {
                "invocation": {
                    "address": "0xa177fe58304598e5695105bb3b5c43e697a9e3c7",
                    "callData": "0x000000000000000000000000000000000000000000000000000000000000004000000000000000000000000000000000000000000000000000000000000001a00000000000000000000000000000000000000000000000000000000000000020000000000000000000000000000000000000000000000000000000000000000100000000000000000000000000000000000000000000000000000000000000200000000000000000000000009bc695b4e58c41619307951ad6e29d9c6895558c00000000000000000000000000000000000000000000000000000000000000600000000000000000000000000000000000000000000000000000000000000000000000000000000000000000000000000000000000000000000000000000006442842e0e000000000000000000000000a177fe58304598e5695105bb3b5c43e697a9e3c7000000000000000000000000d11fc3b81e45fbfdf6344d550004f50af0f9b4b9000000000000000000000000000000000000000000000000000000000000194f000000000000000000000000000000000000000000000000000000000000000000000000000000000000000000000000000000000000000000000000",
                    "decodedMethod": null,
                    "errorInfo": "",
                    "fromAddress": "0xaecd4fea00199603d2cfdfb24133f060c229bc94",
                    "gasUsed": 153534,
                    "id": 7,
                    "methodDecoded": false,
                    "operation": "CALL",
                    "output": "",
                    "revert": false,
                    "revertMessage": "",
                    "selector": "0xa623a8ef",
                    "status": true,
                    "value": "0"
                },
                "nodeType": 0
            },
            "8": {
                "invocation": {
                    "address": "0xf86cf46a6a9cf508362773eb1cf1f3ebf93373ce",
                    "callData": "0xc8d0eb786d8ede55e6a1b6cef6634ea7dd4625cdb7a2ad54ab5fe5c54b43d013000000000000000000000000aecd4fea00199603d2cfdfb24133f060c229bc94",
                    "decodedMethod": {
                        "callParams": [
                            {
                                "name": "role",
                                "type": "bytes32",
                                "value": "0xc8d0eb786d8ede55e6a1b6cef6634ea7dd4625cdb7a2ad54ab5fe5c54b43d013"
                            },
                            {
                                "name": "account",
                                "type": "address",
                                "value": "0xaecd4fea00199603d2cfdfb24133f060c229bc94"
                            }
                        ],
                        "constructorArguments": "",
                        "name": "hasRole",
                        "returnParams": [
                            {
                                "name": "has",
                                "type": "bool",
                                "value": true
                            }
                        ],
                        "signature": "hasRole(bytes32,address)"
                    },
                    "errorInfo": "",
                    "fromAddress": "0xa177fe58304598e5695105bb3b5c43e697a9e3c7",
                    "gasUsed": 3308,
                    "id": 8,
                    "methodDecoded": true,
                    "operation": "STATICCALL",
                    "output": "0x0000000000000000000000000000000000000000000000000000000000000001",
                    "revert": false,
                    "revertMessage": "",
                    "selector": "0x91d14854",
                    "status": true,
                    "value": "0"
                },
                "nodeType": 0
            },
            "9": {
                "event": {
                    "contract": "0xa177fe58304598e5695105bb3b5c43e697a9e3c7",
                    "decodedLog": null,
                    "id": 9,
                    "logData": "0x000000000000000000000000000000000000000000000000000000000000004000000000000000000000000000000000000000000000000000000000000001a00000000000000000000000000000000000000000000000000000000000000020000000000000000000000000000000000000000000000000000000000000000100000000000000000000000000000000000000000000000000000000000000200000000000000000000000009bc695b4e58c41619307951ad6e29d9c6895558c00000000000000000000000000000000000000000000000000000000000000600000000000000000000000000000000000000000000000000000000000000000000000000000000000000000000000000000000000000000000000000000006442842e0e000000000000000000000000a177fe58304598e5695105bb3b5c43e697a9e3c7000000000000000000000000d11fc3b81e45fbfdf6344d550004f50af0f9b4b9000000000000000000000000000000000000000000000000000000000000194f000000000000000000000000000000000000000000000000000000000000000000000000000000000000000000000000000000000000000000000000",
                    "logDecoded": false,
                    "operation": "EVENT",
                    "revert": false,
                    "status": true,
                    "topics": [
                        "0xf9fda95d7e1555b30593092241d171240b167c8031641b1b015ffd68d06aae63",
                        "0x000000000000000000000000aecd4fea00199603d2cfdfb24133f060c229bc94"
                    ]
                },
                "nodeType": 1
            }
        },
        "gasFlame": [
            {
                "children": [
                    {
                        "children": [
                            {
                                "children": [],
                                "depth": 0,
                                "name": "Initial Gas",
                                "value": 29556
                            },
                            {
                                "children": [
                                    {
                                        "children": [],
                                        "depth": 1,
                                        "name": "hasRole",
                                        "value": 3308
                                    },
                                    {
                                        "children": [],
                                        "depth": 1,
                                        "name": "ecrecover",
                                        "value": 3000
                                    },
                                    {
                                        "children": [],
                                        "depth": 1,
                                        "name": "hasRole",
                                        "value": 3308
                                    },
                                    {
                                        "children": [],
                                        "depth": 1,
                                        "name": "ecrecover",
                                        "value": 3000
                                    },
                                    {
                                        "children": [],
                                        "depth": 1,
                                        "name": "hasRole",
                                        "value": 3308
                                    },
                                    {
                                        "children": [
                                            {
                                                "children": [
                                                    {
                                                        "children": [],
                                                        "depth": 3,
                                                        "name": "hasRole",
                                                        "value": 3308
                                                    },
                                                    {
                                                        "children": [
                                                            {
                                                                "children": [],
                                                                "depth": 4,
                                                                "name": "hasRole",
                                                                "value": 8843
                                                            },
                                                            {
                                                                "children": [],
                                                                "depth": 4,
                                                                "name": "hasRole",
                                                                "value": 8843
                                                            },
                                                            {
                                                                "children": [],
                                                                "depth": 4,
                                                                "name": "hasRole",
                                                                "value": 8843
                                                            },
                                                            {
                                                                "children": [],
                                                                "depth": 4,
                                                                "name": "hasRole",
                                                                "value": 4843
                                                            },
                                                            {
                                                                "children": [],
                                                                "depth": 4,
                                                                "name": "hasRole",
                                                                "value": 4843
                                                            },
                                                            {
                                                                "children": [],
                                                                "depth": 4,
                                                                "name": "hasRole",
                                                                "value": 4843
                                                            }
                                                        ],
                                                        "depth": 3,
                                                        "name": "safeTransferFrom",
                                                        "value": 123734
                                                    }
                                                ],
                                                "depth": 2,
                                                "name": "0xa623a8ef",
                                                "value": 153534
                                            }
                                        ],
                                        "depth": 1,
                                        "name": "0x5e060d79",
                                        "value": 161042
                                    }
                                ],
                                "depth": 0,
                                "name": "Executed Gas",
                                "value": 266526
                            }
                        ],
                        "depth": -1,
                        "name": "Actual Gas Used",
                        "value": 290482
                    },
                    {
                        "children": [],
                        "depth": -1,
                        "name": "Refunded Gas",
                        "value": 5600
                    }
                ],
                "depth": -2,
                "name": "Total Gas",
                "value": 296082
            }
        ],
        "isConfirmed": true,
        "mainTrace": [
            {
                "children": [
                    {
                        "children": [
                            {
                                "children": [],
                                "depth": 1,
                                "id": 1,
                                "order": 1
                            },
                            {
                                "children": [],
                                "depth": 1,
                                "id": 2,
                                "order": 2
                            },
                            {
                                "children": [],
                                "depth": 1,
                                "id": 3,
                                "order": 3
                            },
                            {
                                "children": [],
                                "depth": 1,
                                "id": 4,
                                "order": 4
                            },
                            {
                                "children": [],
                                "depth": 1,
                                "id": 5,
                                "order": 5
                            },
                            {
                                "children": [
                                    {
                                        "children": [
                                            {
                                                "children": [],
                                                "depth": 3,
                                                "id": 8,
                                                "order": 8
                                            },
                                            {
                                                "children": [],
                                                "depth": 3,
                                                "id": 9,
                                                "order": 9
                                            },
                                            {
                                                "children": [
                                                    {
                                                        "children": [],
                                                        "depth": 4,
                                                        "id": 11,
                                                        "order": 11
                                                    },
                                                    {
                                                        "children": [],
                                                        "depth": 4,
                                                        "id": 12,
                                                        "order": 12
                                                    },
                                                    {
                                                        "children": [],
                                                        "depth": 4,
                                                        "id": 13,
                                                        "order": 13
                                                    },
                                                    {
                                                        "children": [],
                                                        "depth": 4,
                                                        "id": 14,
                                                        "order": 14
                                                    },
                                                    {
                                                        "children": [],
                                                        "depth": 4,
                                                        "id": 15,
                                                        "order": 15
                                                    },
                                                    {
                                                        "children": [],
                                                        "depth": 4,
                                                        "id": 16,
                                                        "order": 16
                                                    },
                                                    {
                                                        "children": [],
                                                        "depth": 4,
                                                        "id": 17,
                                                        "order": 17
                                                    }
                                                ],
                                                "depth": 3,
                                                "id": 10,
                                                "order": 10
                                            }
                                        ],
                                        "depth": 2,
                                        "id": 7,
                                        "order": 7
                                    }
                                ],
                                "depth": 1,
                                "id": 6,
                                "order": 6
                            },
                            {
                                "children": [],
                                "depth": 1,
                                "id": 18,
                                "order": 18
                            }
                        ],
                        "depth": 0,
                        "id": 0,
                        "order": 0
                    }
                ],
                "depth": -1,
                "id": -1,
                "order": -1
            }
        ],
        "mainTraceNodeCount": 19,
        "parentIdMap": {
            "0": -1,
            "1": 0,
            "10": 7,
            "11": 10,
            "12": 10,
            "13": 10,
            "14": 10,
            "15": 10,
            "16": 10,
            "17": 10,
            "18": 0,
            "2": 0,
            "3": 0,
            "4": 0,
            "5": 0,
            "6": 0,
            "7": 6,
            "8": 7,
            "9": 7
        },
        "tidyTrace": [
            {
                "children": [
                    {
                        "children": [
                            {
                                "children": [
                                    {
                                        "children": [
                                            {
                                                "children": [],
                                                "depth": 3,
                                                "id": 9,
                                                "order": 9
                                            },
                                            {
                                                "children": [
                                                    {
                                                        "children": [],
                                                        "depth": 4,
                                                        "id": 17,
                                                        "order": 17
                                                    }
                                                ],
                                                "depth": 3,
                                                "id": 10,
                                                "order": 10
                                            }
                                        ],
                                        "depth": 2,
                                        "id": 7,
                                        "order": 7
                                    }
                                ],
                                "depth": 1,
                                "id": 6,
                                "order": 6
                            },
                            {
                                "children": [],
                                "depth": 1,
                                "id": 18,
                                "order": 18
                            }
                        ],
                        "depth": 0,
                        "id": 0,
                        "order": 0
                    }
                ],
                "depth": -1,
                "id": -1,
                "order": -1
            }
        ],
        "tidyTraceNodeCount": 7
    },
    "state_change": {
        "stateChanges": [
            {
                "address": "0x9bc695b4e58c41619307951ad6e29d9c6895558c",
                "erc": "ERC-721",
                "slots": [
                    {
                        "current": "0x000000000000000000000000000000000000000000000bb80000000000000b92",
                        "key": "0x34c62d7cf70144ead0de254b0964608e32f4d2af177645911c6f2e3417012408",
                        "prev": "0x000000000000000000000000000000000000000000000bb80000000000000b93"
                    },
                    {
                        "current": "0x0000000000000000000000000000000000000000000000000000000000000003",
                        "key": "0xfbc76ef0bdfec19cef84d918651d2f2e26b53fec4f08782239690ca1a72ed4f0",
                        "prev": "0x0000000000000000000000000000000000000000000000000000000000000002"
                    },
                    {
                        "current": "0x000000020000000064d17f7fd11fc3b81e45fbfdf6344d550004f50af0f9b4b9",
                        "key": "0xad7f4232cfc757641cdc3671b86b6049f06c5fa006e1785dc08209e4a3818e50",
                        "prev": "0x0000000000000000000000000000000000000000000000000000000000000000"
                    },
                    {
                        "current": "0x000000000000000063c528e3a177fe58304598e5695105bb3b5c43e697a9e3c7",
                        "key": "0x8d31983da1810cf1b10e9280df029b3291ad5990fa787d2464310e72f3b88e03",
                        "prev": "0x0000000000000000000000000000000000000000000000000000000000000000"
                    }
                ],
                "storageVariables": [
                    {
                        "name": "_packedAddressData",
                        "type": "mapping(address => uint256)",
                        "value": {
                            "pairs": [
                                {
                                    "key": "0xa177fe58304598e5695105bb3b5c43e697a9e3c7",
                                    "value": {
                                        "current": "55340232221128654850962",
                                        "prev": "55340232221128654850963",
                                        "typeTag": 1
                                    }
                                },
                                {
                                    "key": "0xd11fc3b81e45fbfdf6344d550004f50af0f9b4b9",
                                    "value": {
                                        "current": "3",
                                        "prev": "2",
                                        "typeTag": 1
                                    }
                                }
                            ],
                            "typeTag": 4
                        }
                    },
                    {
                        "name": "_packedOwnerships",
                        "type": "mapping(uint256 => uint256)",
                        "value": {
                            "pairs": [
                                {
                                    "key": "6479",
                                    "value": {
                                        "current": "53919893336773338380867841307716559084771596079711687990164347008185",
                                        "prev": "0",
                                        "typeTag": 1
                                    }
                                },
                                {
                                    "key": "6480",
                                    "value": {
                                        "current": "2446357086537940610079906253830651623971584387526983017415",
                                        "prev": "0",
                                        "typeTag": 1
                                    }
                                }
                            ],
                            "typeTag": 4
                        }
                    }
                ]
            },
            {
                "address": "0xaecd4fea00199603d2cfdfb24133f060c229bc94",
                "erc": "",
                "slots": [
                    {
                        "current": "0x0000000000000000000000000000000000000000000000000000000000000001",
                        "key": "0xfc6bfb6dadcab33d08228aa8e1f242a09f98e8f5f1241149bd0b6d036742a269",
                        "prev": "0x0000000000000000000000000000000000000000000000000000000000000000"
                    }
                ],
                "storageVariables": []
            }
        ]
    }
}