{
    "balance_change": {
        "balanceChanges": [
            {
                "account": "0xdbcd5e2c4660b6437a5c856a9d057bff208eaef4",
                "assets": [
                    {
                        "address": "0xfa1a856cfa3409cfa145fa4e20eb270df3eb21ab",
                        "amount": "1,420",
                        "iconUrl": "https://assets.blocksec.com/icon/a84b344145d7bfb31868593aaa685216e8e0d6ef623c68e48ddce64fece7c88d.png",
                        "isERC1155": false,
                        "isERC721": false,
                        "sign": false,
                        "value": ""
                    }
                ]
            },
            {
                "account": "0x1062a747393198f70f71ec65a582423dba7e5ab3",
                "assets": [
                    {
                        "address": "0xfa1a856cfa3409cfa145fa4e20eb270df3eb21ab",
                        "amount": "1,420",
                        "iconUrl": "https://assets.blocksec.com/icon/a84b344145d7bfb31868593aaa685216e8e0d6ef623c68e48ddce64fece7c88d.png",
                        "isERC1155": false,
                        "isERC721": false,
                        "sign": true,
                        "value": ""
                    }
                ]
            }
        ]
    },
    "profile": {
        "basic_info": {
            "baseFee": "",
            "blockNumber": 7321781,
            "callData": "0xa9059cbb0000000000000000000000001062a747393198f70f71ec65a582423dba7e5ab300000000000000000000000000000000000000000000004cfa756c847eb00000",
            "debugEnable": true,
            "errorInfo": "",
            "eventCount": 1,
            "feeRecipient": "0x06b8c5883ec71bc3f4b332081519f23834c8706e",
            "formatValue": "0",
            "gasLimit": 66000,
            "gasPrice": "12.8",
            "gasUsed": 22109,
            "intTxnCount": 0,
            "internalRevert": false,
            "internalRevertMessage": "",
            "isContractCreation": false,
            "isFlashloan": false,
            "maxFee": "",
            "nonce": 1,
            "overwritedBlockNumber": -1,
            "priorityFee": "",
            "receiver": "0xfa1a856cfa3409cfa145fa4e20eb270df3eb21ab",
            "revertMessage": "",
            "sender": "0xdbcd5e2c4660b6437a5c856a9d057bff208eaef4",
            "simulationEnable": true,
            "sourceTxnHash": "0x5280566ec767341676136696f09037318b12974f1142580433c08f5caa8f7b49",
            "status": true,
            "timestamp": "2019-03-07T11:00:49Z",
            "transactionFee": "0.0002829952",
            "txnHash": "0x5280566ec767341676136696f09037318b12974f1142580433c08f5caa8f7b49",
            "txnIndex": 108,
            "type": 0,
            "value": "0"
        },
        "fund_flow": [
            {
                "amount": "1,420",
                "from": "0xdbcd5e2c4660b6437a5c856a9d057bff208eaef4",
                "id": 1,
                "isERC1155": false,
                "isERC721": false,
                "isReverted": false,
                "order": 1,
                "to": "0x1062a747393198f70f71ec65a582423dba7e5ab3",
                "token": "0xfa1a856cfa3409cfa145fa4e20eb270df3eb21ab"
            }
        ],
        "token_infos": [
            {
                "address": "0xfa1a856cfa3409cfa145fa4e20eb270df3eb21ab",
                "decimals": 18
            },
            {
                "address": "0xeeeeeeeeeeeeeeeeeeeeeeeeeeeeeeeeeeeeeeee",
                "decimals": 18
            },
            {
                "address": "0xc02aaa39b223fe8d0a0e5c4f27ead9083c756cc2",
                "decimals": 18
            }
        ]
    },
    "address_label": {
        "labels": [
            {
                "address": "0x0000000000000000000000000000000000000003",
                "label": "Precompiled"
            },
            {
                "address": "0x0000000000000000000000000000000000000004",
                "label": "Precompiled"
            },
            {
                "address": "0xeeeeeeeeeeeeeeeeeeeeeeeeeeeeeeeeeeeeeeee",
                "label": "Ether"
            },
            {
                "address": "0x1062a747393198f70f71ec65a582423dba7e5ab3",
                "label": "HTX 9"
            },
            {
                "address": "0xfa1a856cfa3409cfa145fa4e20eb270df3eb21ab",
                "label": "IOST: Old Token"
            },
            {
                "address": "0xdbcd5e2c4660b6437a5c856a9d057bff208eaef4",
                "label": "HUOBI"
            },
            {
                "address": "0x0000000000000000000000000000000000000001",
                "label": "Precompiled"
            },
            {
                "address": "0x0000000000000000000000000000000000000002",
                "label": "Precompiled"
            }
        ]
    },
    "trace": {
        "accountLabels": null,
        "dataMap": {
            "-1": {
                "invocation": {
                    "address": "0xdbcd5e2c4660b6437a5c856a9d057bff208eaef4",
                    "callData": "",
                    "decodedMethod": null,
                    "errorInfo": "",
                    "fromAddress": "",
                    "gasUsed": 0,
                    "id": -1,
                    "methodDecoded": false,
                    "operation": "",
                    "output": "",
                    "revert": false,
                    "revertMessage": "",
                    "selector": "",
                    "status": false,
                    "value": ""
                },
                "nodeType": 0
            },
            "0": {
                "invocation": {
                    "address": "0xfa1a856cfa3409cfa145fa4e20eb270df3eb21ab",
                    "callData": "0x0000000000000000000000001062a747393198f70f71ec65a582423dba7e5ab300000000000000000000000000000000000000000000004cfa756c847eb00000",
                    "decodedMethod": {
                        "callParams": [
                            {
                                "name": "_to",
                                "type": "address",
                                "value": "0x1062a747393198f70f71ec65a582423dba7e5ab3"
                            },
                            {
                                "decimalAvailable": true,
                                "name": "_value",
                                "type": "uint256",
                                "value": "1,420,000,000,000,000,000,000"
                            }
                        ],
                        "constructorArguments": "",
                        "name": "transfer",
                        "returnParams": [
                            {
                                "name": "",
                                "type": "bool",
                                "value": true
                            }
                        ],
                        "signature": "transfer(address,uint256)"
                    },
                    "errorInfo": "",
                    "fromAddress": "0xdbcd5e2c4660b6437a5c856a9d057bff208eaef4",
                    "gasUsed": 22109,
                    "id": 0,
                    "methodDecoded": true,
                    "operation": "CALL",
                    "output": "0x0000000000000000000000000000000000000000000000000000000000000001",
                    "revert": false,
                    "revertMessage": "",
                    "selector": "0xa9059cbb",
                    "status": true,
                    "value": "0"
                },
                "nodeType": 0
            },
            "1": {
                "event": {
                    "contract": "0xfa1a856cfa3409cfa145fa4e20eb270df3eb21ab",
                    "decodedLog": {
                        "name": "Transfer",
                        "params": [
                            {
                                "name": "_from",
                                "type": "address",
                                "value": "0xdbcd5e2c4660b6437a5c856a9d057bff208eaef4"
                            },
                            {
                                "name": "_to",
                                "type": "address",
                                "value": "0x1062a747393198f70f71ec65a582423dba7e5ab3"
                            },
                            {
                                "decimalAvailable": true,
                                "name": "_value",
                                "type": "uint256",
                                "value": "1,420,000,000,000,000,000,000"
                            }
                        ],
                        "signature": "Transfer(address,address,uint256)"
                    },
                    "id": 1,
                    "logData": "0x00000000000000000000000000000000000000000000004cfa756c847eb00000",
                    "logDecoded": true,
                    "operation": "EVENT",
                    "revert": false,
                    "status": true,
                    "topics": [
                        "0xddf252ad1be2c89b69c2b068fc378daa952ba7f163c4a11628f55a4df523b3ef",
                        "0x000000000000000000000000dbcd5e2c4660b6437a5c856a9d057bff208eaef4",
                        "0x0000000000000000000000001062a747393198f70f71ec65a582423dba7e5ab3"
                    ]
                },
                "nodeType": 1
            }
        },
        "gasFlame": [
            {
                "children": [
                    {
                        "children": [
                            {
                                "children": [],
                                "depth": 0,
                                "name": "Initial Gas",
                                "value": 23256
                            },
                            {
                                "children": [],
                                "depth": 0,
                                "name": "Executed Gas",
                                "value": 13853
                            }
                        ],
                        "depth": -1,
                        "name": "Actual Gas Used",
                        "value": 22109
                    },
                    {
                        "children": [],
                        "depth": -1,
                        "name": "Refunded Gas",
                        "value": 15000
                    }
                ],
                "depth": -2,
                "name": "Total Gas",
                "value": 37109
            }
        ],
        "isConfirmed": true,
        "mainTrace": [
            {
                "children": [
                    {
                        "children": [
                            {
                                "children": [],
                                "depth": 1,
                                "id": 1,
                                "order": 1
                            }
                        ],
                        "depth": 0,
                        "id": 0,
                        "order": 0
                    }
                ],
                "depth": -1,
                "id": -1,
                "order": -1
            }
        ],
        "mainTraceNodeCount": 2,
        "parentIdMap": {
            "0": -1,
            "1": 0
        },
        "tidyTrace": [
            {
                "children": [
                    {
                        "children": [
                            {
                                "children": [],
                                "depth": 1,
                                "id": 1,
                                "order": 1
                            }
                        ],
                        "depth": 0,
                        "id": 0,
                        "order": 0
                    }
                ],
                "depth": -1,
                "id": -1,
                "order": -1
            }
        ],
        "tidyTraceNodeCount": 2
    },
    "state_change": {
        "stateChanges": [
            {
                "address": "0xfa1a856cfa3409cfa145fa4e20eb270df3eb21ab",
                "erc": "ERC-20",
                "slots": [
                    {
                        "current": "0x0000000000000000000000000000000000000000000b05dcdc9b2505600cb800",
                        "key": "0x546c00b1ad77a42ac30d1d5dd16226828b8d3498a905bb18acdc02bb2c64ddd1",
                        "prev": "0x0000000000000000000000000000000000000000000b058fe225b880e15cb800"
                    },
                    {
                        "current": "0x0000000000000000000000000000000000000000000000000000000000000000",
                        "key": "0x105680263596e64f21e899220be1a280b4e384fafb8a4bace2b973db8314449d",
                        "prev": "0x00000000000000000000000000000000000000000000004cfa756c847eb00000"
                    }
                ],
                "storageVariables": [
                    {
                        "name": "balances",
                        "type": "mapping(address => uint256)",
                        "value": {
                            "pairs": [
                                {
                                    "key": "0x1062a747393198f70f71ec65a582423dba7e5ab3",
                                    "value": {
                                        "current": "13325870028211500000000000",
                                        "prev": "13324450028211500000000000",
                                        "typeTag": 1
                                    }
                                },
                                {
                                    "key": "0xdbcd5e2c4660b6437a5c856a9d057bff208eaef4",
                                    "value": {
                                        "current": "0",
                                        "prev": "1420000000000000000000",
                                        "typeTag": 1
                                    }
                                }
                            ],
                            "typeTag": 4
                        }
                    }
                ]
            }
        ]
    }
}