{
    "balance_change": {
        "balanceChanges": [
            {
                "account": "0xa1b8a5e21669a1c238a0fbae96eee326539fd000",
                "assets": [
                    {
                        "address": "0xd947b0ceab2a8885866b9a04a06ae99de852a3d4",
                        "amount": "580",
                        "iconUrl": "",
                        "isERC1155": false,
                        "isERC721": false,
                        "sign": false,
                        "value": ""
                    }
                ]
            },
            {
                "account": "0x6b51dc0a2683957600f753e8d5b339d8b1bb645d",
                "assets": [
                    {
                        "address": "0xd947b0ceab2a8885866b9a04a06ae99de852a3d4",
                        "amount": "580",
                        "iconUrl": "",
                        "isERC1155": false,
                        "isERC721": false,
                        "sign": true,
                        "value": ""
                    }
                ]
            }
        ]
    },
    "profile": {
        "basic_info": {
            "baseFee": "",
            "blockNumber": 7323213,
            "callData": "0xa9059cbb0000000000000000000000006b51dc0a2683957600f753e8d5b339d8b1bb645d00000000000000000000000000000000000000000000001f711def073e900000",
            "debugEnable": true,
            "errorInfo": "",
            "eventCount": 1,
            "feeRecipient": "0xea674fdde714fd979de3edf0f56aa9716b898ec8",
            "formatValue": "0",
            "gasLimit": 52041,
            "gasPrice": "7",
            "gasUsed": 37041,
            "intTxnCount": 0,
            "internalRevert": false,
            "internalRevertMessage": "",
            "isContractCreation": false,
            "isFlashloan": false,
            "maxFee": "",
            "nonce": 30,
            "overwritedBlockNumber": -1,
            "priorityFee": "",
            "receiver": "0xd947b0ceab2a8885866b9a04a06ae99de852a3d4",
            "revertMessage": "",
            "sender": "0xa1b8a5e21669a1c238a0fbae96eee326539fd000",
            "simulationEnable": true,
            "sourceTxnHash": "0x52a75010ee71b627826d85658cc851c48c6de8e4bacbce8824f791d69558e1a5",
            "status": true,
            "timestamp": "2019-03-07T16:23:07Z",
            "transactionFee": "0.000259287",
            "txnHash": "0x52a75010ee71b627826d85658cc851c48c6de8e4bacbce8824f791d69558e1a5",
            "txnIndex": 13,
            "type": 0,
            "value": "0"
        },
        "fund_flow": [
            {
                "amount": "580",
                "from": "0xa1b8a5e21669a1c238a0fbae96eee326539fd000",
                "id": 1,
                "isERC1155": false,
                "isERC721": false,
                "isReverted": false,
                "order": 1,
                "to": "0x6b51dc0a2683957600f753e8d5b339d8b1bb645d",
                "token": "0xd947b0ceab2a8885866b9a04a06ae99de852a3d4"
            }
        ],
        "token_infos": [
            {
                "address": "0xc02aaa39b223fe8d0a0e5c4f27ead9083c756cc2",
                "decimals": 18
            },
            {
                "address": "0xd947b0ceab2a8885866b9a04a06ae99de852a3d4",
                "decimals": 18
            },
            {
                "address": "0xeeeeeeeeeeeeeeeeeeeeeeeeeeeeeeeeeeeeeeee",
                "decimals": 18
            }
        ]
    },
    "address_label": {
        "labels": [
            {
                "address": "0x0000000000000000000000000000000000000002",
                "label": "Precompiled"
            },
            {
                "address": "0x0000000000000000000000000000000000000003",
                "label": "Precompiled"
            },
            {
                "address": "0x0000000000000000000000000000000000000004",
                "label": "Precompiled"
            },
            {
                "address": "0xeeeeeeeeeeeeeeeeeeeeeeeeeeeeeeeeeeeeeeee",
                "label": "Ether"
            },
            {
                "address": "0x6b51dc0a2683957600f753e8d5b339d8b1bb645d",
                "label": "TRADE.IO"
            },
            {
                "address": "0xd947b0ceab2a8885866b9a04a06ae99de852a3d4",
                "label": "Trade.io Token"
            },
            {
                "address": "0x0000000000000000000000000000000000000001",
                "label": "Precompiled"
            }
        ]
    },
    "trace": {
        "accountLabels": null,
        "dataMap": {
            "-1": {
                "invocation": {
                    "address": "0xa1b8a5e21669a1c238a0fbae96eee326539fd000",
                    "callData": "",
                    "decodedMethod": null,
                    "errorInfo": "",
                    "fromAddress": "",
                    "gasUsed": 0,
                    "id": -1,
                    "methodDecoded": false,
                    "operation": "",
                    "output": "",
                    "revert": false,
                    "revertMessage": "",
                    "selector": "",
                    "status": false,
                    "value": ""
                },
                "nodeType": 0
            },
            "0": {
                "invocation": {
                    "address": "0xd947b0ceab2a8885866b9a04a06ae99de852a3d4",
                    "callData": "0x0000000000000000000000006b51dc0a2683957600f753e8d5b339d8b1bb645d00000000000000000000000000000000000000000000001f711def073e900000",
                    "decodedMethod": {
                        "callParams": [
                            {
                                "name": "to",
                                "type": "address",
                                "value": "0x6b51dc0a2683957600f753e8d5b339d8b1bb645d"
                            },
                            {
                                "decimalAvailable": true,
                                "name": "value",
                                "type": "uint256",
                                "value": "580,000,000,000,000,000,000"
                            }
                        ],
                        "constructorArguments": "",
                        "name": "transfer",
                        "returnParams": [
                            {
                                "name": "",
                                "type": "bool",
                                "value": true
                            }
                        ],
                        "signature": "transfer(address,uint256)"
                    },
                    "errorInfo": "",
                    "fromAddress": "0xa1b8a5e21669a1c238a0fbae96eee326539fd000",
                    "gasUsed": 37041,
                    "id": 0,
                    "methodDecoded": true,
                    "operation": "CALL",
                    "output": "0x0000000000000000000000000000000000000000000000000000000000000001",
                    "revert": false,
                    "revertMessage": "",
                    "selector": "0xa9059cbb",
                    "status": true,
                    "value": "0"
                },
                "nodeType": 0
            },
            "1": {
                "event": {
                    "contract": "0xd947b0ceab2a8885866b9a04a06ae99de852a3d4",
                    "decodedLog": {
                        "name": "Transfer",
                        "params": [
                            {
                                "name": "from",
                                "type": "address",
                                "value": "0xa1b8a5e21669a1c238a0fbae96eee326539fd000"
                            },
                            {
                                "name": "to",
                                "type": "address",
                                "value": "0x6b51dc0a2683957600f753e8d5b339d8b1bb645d"
                            },
                            {
                                "decimalAvailable": true,
                                "name": "value",
                                "type": "uint256",
                                "value": "580,000,000,000,000,000,000"
                            }
                        ],
                        "signature": "Transfer(address,address,uint256)"
                    },
                    "id": 1,
                    "logData": "0x00000000000000000000000000000000000000000000001f711def073e900000",
                    "logDecoded": true,
                    "operation": "EVENT",
                    "revert": false,
                    "status": true,
                    "topics": [
                        "0xddf252ad1be2c89b69c2b068fc378daa952ba7f163c4a11628f55a4df523b3ef",
                        "0x000000000000000000000000a1b8a5e21669a1c238a0fbae96eee326539fd000",
                        "0x0000000000000000000000006b51dc0a2683957600f753e8d5b339d8b1bb645d"
                    ]
                },
                "nodeType": 1
            }
        },
        "gasFlame": [
            {
                "children": [
                    {
                        "children": [
                            {
                                "children": [],
                                "depth": 0,
                                "name": "Initial Gas",
                                "value": 23192
                            },
                            {
                                "children": [],
                                "depth": 0,
                                "name": "Executed Gas",
                                "value": 28849
                            }
                        ],
                        "depth": -1,
                        "name": "Actual Gas Used",
                        "value": 37041
                    },
                    {
                        "children": [],
                        "depth": -1,
                        "name": "Refunded Gas",
                        "value": 15000
                    }
                ],
                "depth": -2,
                "name": "Total Gas",
                "value": 52041
            }
        ],
        "isConfirmed": true,
        "mainTrace": [
            {
                "children": [
                    {
                        "children": [
                            {
                                "children": [],
                                "depth": 1,
                                "id": 1,
                                "order": 1
                            }
                        ],
                        "depth": 0,
                        "id": 0,
                        "order": 0
                    }
                ],
                "depth": -1,
                "id": -1,
                "order": -1
            }
        ],
        "mainTraceNodeCount": 2,
        "parentIdMap": {
            "0": -1,
            "1": 0
        },
        "tidyTrace": [
            {
                "children": [
                    {
                        "children": [
                            {
                                "children": [],
                                "depth": 1,
                                "id": 1,
                                "order": 1
                            }
                        ],
                        "depth": 0,
                        "id": 0,
                        "order": 0
                    }
                ],
                "depth": -1,
                "id": -1,
                "order": -1
            }
        ],
        "tidyTraceNodeCount": 2
    },
    "state_change": {
        "stateChanges": [
            {
                "address": "0xd947b0ceab2a8885866b9a04a06ae99de852a3d4",
                "erc": "ERC-20",
                "slots": [
                    {
                        "current": "0x0000000000000000000000000000000000000000000000000000000000000000",
                        "key": "0x70074a4a3f45ef0b6c21ac808db905aa694a1fe37a28dc749da538697e8b6fb5",
                        "prev": "0x00000000000000000000000000000000000000000000001f711def073e900000"
                    },
                    {
                        "current": "0x00000000000000000000000000000000000000000000001f711def073e900000",
                        "key": "0x9333d3103984b5059a83c9f07acb499f054fa7d4f05e43d53ed11d95c01d7277",
                        "prev": "0x0000000000000000000000000000000000000000000000000000000000000000"
                    }
                ],
                "storageVariables": [
                    {
                        "name": "_balanceOf",
                        "type": "mapping(address => uint256)",
                        "value": {
                            "pairs": [
                                {
                                    "key": "0x6b51dc0a2683957600f753e8d5b339d8b1bb645d",
                                    "value": {
                                        "current": "580000000000000000000",
                                        "prev": "0",
                                        "typeTag": 1
                                    }
                                },
                                {
                                    "key": "0xa1b8a5e21669a1c238a0fbae96eee326539fd000",
                                    "value": {
                                        "current": "0",
                                        "prev": "580000000000000000000",
                                        "typeTag": 1
                                    }
                                }
                            ],
                            "typeTag": 4
                        }
                    }
                ]
            }
        ]
    }
}