{
    "balance_change": {
        "balanceChanges": [
            {
                "account": "0xffcfa5f7b994aeb4c6931e0a6cd95d8984e038ce",
                "assets": [
                    {
                        "address": "0x514910771af9ca656af840dff83e8264ecf986ca",
                        "amount": "75.3205",
                        "iconUrl": "https://assets.blocksec.com/icon/f97453a18956674db69f16b525216d646fc76f3c7f90f0cd6147f8534d5af3e9.png",
                        "isERC1155": false,
                        "isERC721": false,
                        "sign": false,
                        "value": "1152.259713"
                    }
                ]
            },
            {
                "account": "0xc564ee9f21ed8a2d8e7e76c085740d5e4c5fafbe",
                "assets": [
                    {
                        "address": "0x514910771af9ca656af840dff83e8264ecf986ca",
                        "amount": "75.3205",
                        "iconUrl": "https://assets.blocksec.com/icon/f97453a18956674db69f16b525216d646fc76f3c7f90f0cd6147f8534d5af3e9.png",
                        "isERC1155": false,
                        "isERC721": false,
                        "sign": true,
                        "value": "1152.259713"
                    }
                ]
            }
        ]
    },
    "profile": {
        "basic_info": {
            "baseFee": "50.26471743",
            "blockNumber": 14311299,
            "callData": "0xa9059cbb000000000000000000000000c564ee9f21ed8a2d8e7e76c085740d5e4c5fafbe00000000000000000000000000000000000000000000000415482baf54cf4000",
            "debugEnable": true,
            "errorInfo": "",
            "eventCount": 1,
            "feeRecipient": "0x45a36a8e118c37e4c47ef4ab827a7c9e579e11e2",
            "formatValue": "0",
            "gasLimit": 35001,
            "gasPrice": "51.76471743",
            "gasUsed": 35001,
            "intTxnCount": 0,
            "internalRevert": false,
            "internalRevertMessage": "",
            "isContractCreation": false,
            "isFlashloan": false,
            "maxFee": "69.915013863",
            "nonce": 169,
            "overwritedBlockNumber": -1,
            "priorityFee": "1.5",
            "receiver": "0x514910771af9ca656af840dff83e8264ecf986ca",
            "revertMessage": "",
            "sender": "0xffcfa5f7b994aeb4c6931e0a6cd95d8984e038ce",
            "simulationEnable": true,
            "sourceTxnHash": "0x526f1c624392c4d3cd34cefe8908f2101d7b73e21a41c6ea0999289191a6b843",
            "status": true,
            "timestamp": "2022-03-03T02:24:52Z",
            "transactionFee": "0.00181181687476743",
            "txnHash": "0x526f1c624392c4d3cd34cefe8908f2101d7b73e21a41c6ea0999289191a6b843",
            "txnIndex": 35,
            "type": 2,
            "value": "0"
        },
        "fund_flow": [
            {
                "amount": "75.3205",
                "from": "0xffcfa5f7b994aeb4c6931e0a6cd95d8984e038ce",
                "id": 1,
                "isERC1155": false,
                "isERC721": false,
                "isReverted": false,
                "order": 1,
                "to": "0xc564ee9f21ed8a2d8e7e76c085740d5e4c5fafbe",
                "token": "0x514910771af9ca656af840dff83e8264ecf986ca"
            }
        ],
        "token_infos": [
            {
                "address": "0x514910771af9ca656af840dff83e8264ecf986ca",
                "decimals": 18
            },
            {
                "address": "0xc02aaa39b223fe8d0a0e5c4f27ead9083c756cc2",
                "decimals": 18
            },
            {
                "address": "0xeeeeeeeeeeeeeeeeeeeeeeeeeeeeeeeeeeeeeeee",
                "decimals": 18
            }
        ]
    },
    "address_label": {
        "labels": [
            {
                "address": "0x0000000000000000000000000000000000000003",
                "label": "Precompiled"
            },
            {
                "address": "0x0000000000000000000000000000000000000004",
                "label": "Precompiled"
            },
            {
                "address": "0xeeeeeeeeeeeeeeeeeeeeeeeeeeeeeeeeeeeeeeee",
                "label": "Ether"
            },
            {
                "address": "0x514910771af9ca656af840dff83e8264ecf986ca",
                "label": "Chainlink: LINK Token"
            },
            {
                "address": "0xc564ee9f21ed8a2d8e7e76c085740d5e4c5fafbe",
                "label": "Multichain: Fantom Bridge"
            },
            {
                "address": "0x0000000000000000000000000000000000000001",
                "label": "Precompiled"
            },
            {
                "address": "0x0000000000000000000000000000000000000002",
                "label": "Precompiled"
            }
        ]
    },
    "trace": {
        "accountLabels": null,
        "dataMap": {
            "-1": {
                "invocation": {
                    "address": "0xffcfa5f7b994aeb4c6931e0a6cd95d8984e038ce",
                    "callData": "",
                    "decodedMethod": null,
                    "errorInfo": "",
                    "fromAddress": "",
                    "gasUsed": 0,
                    "id": -1,
                    "methodDecoded": false,
                    "operation": "",
                    "output": "",
                    "revert": false,
                    "revertMessage": "",
                    "selector": "",
                    "status": false,
                    "value": ""
                },
                "nodeType": 0
            },
            "0": {
                "invocation": {
                    "address": "0x514910771af9ca656af840dff83e8264ecf986ca",
                    "callData": "0x000000000000000000000000c564ee9f21ed8a2d8e7e76c085740d5e4c5fafbe00000000000000000000000000000000000000000000000415482baf54cf4000",
                    "decodedMethod": {
                        "callParams": [
                            {
                                "name": "_to",
                                "type": "address",
                                "value": "0xc564ee9f21ed8a2d8e7e76c085740d5e4c5fafbe"
                            },
                            {
                                "decimalAvailable": true,
                                "name": "_value",
                                "type": "uint256",
                                "value": "75,320,500,000,000,000,000"
                            }
                        ],
                        "constructorArguments": "",
                        "name": "transfer",
                        "returnParams": [
                            {
                                "name": "success",
                                "type": "bool",
                                "value": true
                            }
                        ],
                        "signature": "transfer(address,uint256)"
                    },
                    "errorInfo": "",
                    "fromAddress": "0xffcfa5f7b994aeb4c6931e0a6cd95d8984e038ce",
                    "gasUsed": 35001,
                    "id": 0,
                    "methodDecoded": true,
                    "operation": "CALL",
                    "output": "0x0000000000000000000000000000000000000000000000000000000000000001",
                    "revert": false,
                    "revertMessage": "",
                    "selector": "0xa9059cbb",
                    "status": true,
                    "value": "0"
                },
                "nodeType": 0
            },
            "1": {
                "event": {
                    "contract": "0x514910771af9ca656af840dff83e8264ecf986ca",
                    "decodedLog": {
                        "name": "Transfer",
                        "params": [
                            {
                                "name": "from",
                                "type": "address",
                                "value": "0xffcfa5f7b994aeb4c6931e0a6cd95d8984e038ce"
                            },
                            {
                                "name": "to",
                                "type": "address",
                                "value": "0xc564ee9f21ed8a2d8e7e76c085740d5e4c5fafbe"
                            },
                            {
                                "decimalAvailable": true,
                                "name": "value",
                                "type": "uint256",
                                "value": "75,320,500,000,000,000,000"
                            }
                        ],
                        "signature": "Transfer(address,address,uint256)"
                    },
                    "id": 1,
                    "logData": "0x00000000000000000000000000000000000000000000000415482baf54cf4000",
                    "logDecoded": true,
                    "operation": "EVENT",
                    "revert": false,
                    "status": true,
                    "topics": [
                        "0xddf252ad1be2c89b69c2b068fc378daa952ba7f163c4a11628f55a4df523b3ef",
                        "0x000000000000000000000000ffcfa5f7b994aeb4c6931e0a6cd95d8984e038ce",
                        "0x000000000000000000000000c564ee9f21ed8a2d8e7e76c085740d5e4c5fafbe"
                    ]
                },
                "nodeType": 1
            }
        },
        "gasFlame": [
            {
                "children": [
                    {
                        "children": [
                            {
                                "children": [],
                                "depth": 0,
                                "name": "Initial Gas",
                                "value": 21656
                            },
                            {
                                "children": [],
                                "depth": 0,
                                "name": "Executed Gas",
                                "value": 13345
                            }
                        ],
                        "depth": -1,
                        "name": "Actual Gas Used",
                        "value": 35001
                    },
                    {
                        "children": [],
                        "depth": -1,
                        "name": "Refunded Gas",
                        "value": 0
                    }
                ],
                "depth": -2,
                "name": "Total Gas",
                "value": 35001
            }
        ],
        "isConfirmed": true,
        "mainTrace": [
            {
                "children": [
                    {
                        "children": [
                            {
                                "children": [],
                                "depth": 1,
                                "id": 1,
                                "order": 1
                            }
                        ],
                        "depth": 0,
                        "id": 0,
                        "order": 0
                    }
                ],
                "depth": -1,
                "id": -1,
                "order": -1
            }
        ],
        "mainTraceNodeCount": 2,
        "parentIdMap": {
            "0": -1,
            "1": 0
        },
        "tidyTrace": [
            {
                "children": [
                    {
                        "children": [
                            {
                                "children": [],
                                "depth": 1,
                                "id": 1,
                                "order": 1
                            }
                        ],
                        "depth": 0,
                        "id": 0,
                        "order": 0
                    }
                ],
                "depth": -1,
                "id": -1,
                "order": -1
            }
        ],
        "tidyTraceNodeCount": 2
    },
    "state_change": {
        "stateChanges": [
            {
                "address": "0x514910771af9ca656af840dff83e8264ecf986ca",
                "erc": "",
                "slots": [
                    {
                        "current": "0x0000000000000000000000000000000000000000000000000000148b09af6a2e",
                        "key": "0xa75389ed84b4c990a0557fdeccc2e9bc52d1fb90f567b13f65db585febe18de3",
                        "prev": "0x0000000000000000000000000000000000000000000000041548403a5e7eaa2e"
                    },
                    {
                        "current": "0x000000000000000000000000000000000000000000028921ce05cca5ceba3b07",
                        "key": "0xf817bb02ce7620f3c25f49ba5c4d92676324525f2e08da8b5c13fc456027df0b",
                        "prev": "0x00000000000000000000000000000000000000000002891db8bda0f679eafb07"
                    }
                ],
                "storageVariables": [
                    {
                        "name": "balances",
                        "type": "mapping(address => uint256)",
                        "value": {
                            "pairs": [
                                {
                                    "key": "0xc564ee9f21ed8a2d8e7e76c085740d5e4c5fafbe",
                                    "value": {
                                        "current": "3065439435433591365581575",
                                        "prev": "3065364114933591365581575",
                                        "typeTag": 1
                                    }
                                },
                                {
                                    "key": "0xffcfa5f7b994aeb4c6931e0a6cd95d8984e038ce",
                                    "value": {
                                        "current": "22587395500590",
                                        "prev": "75320522587395500590",
                                        "typeTag": 1
                                    }
                                }
                            ],
                            "typeTag": 4
                        }
                    }
                ]
            }
        ]
    }
}