{
    "balance_change": {
        "balanceChanges": [
            {
                "account": "0x8357efa84f91013bd6b285ef0f6b93c211cc3d9d",
                "assets": [
                    {
                        "address": "0xeeeeeeeeeeeeeeeeeeeeeeeeeeeeeeeeeeeeeeee",
                        "amount": "0.000000000020622707",
                        "iconUrl": "https://assets.blocksec.com/image/1663669189317-3.png",
                        "isERC1155": false,
                        "isERC721": false,
                        "sign": false,
                        "value": "0.000000050746627140482701997"
                    }
                ]
            },
            {
                "account": "0x68d3a973e7272eb388022a5c6518d9b2a2e66fbf",
                "assets": [
                    {
                        "address": "0xeeeeeeeeeeeeeeeeeeeeeeeeeeeeeeeeeeeeeeee",
                        "amount": "0.000000000020622707",
                        "iconUrl": "https://assets.blocksec.com/image/1663669189317-3.png",
                        "isERC1155": false,
                        "isERC721": false,
                        "sign": true,
                        "value": "0.000000050746627140482701997"
                    },
                    {
                        "address": "0xdac17f958d2ee523a2206206994597c13d831ec7",
                        "amount": "24,460.44988",
                        "iconUrl": "https://assets.blocksec.com/icon/fcea71f3193ce895be44bfdf941f7e4c9381dd587f273c2d1a27f1263d84e4ea.png",
                        "isERC1155": false,
                        "isERC721": false,
                        "sign": true,
                        "value": "24460.44988"
                    },
                    {
                        "address": "0xc02aaa39b223fe8d0a0e5c4f27ead9083c756cc2",
                        "amount": "9.675378921237776196",
                        "iconUrl": "https://assets.blocksec.com/icon/f1cb2d02c471d545bbc7722daf3277fd852d98e63d118771af7047bd8256c516.png",
                        "isERC1155": false,
                        "isERC721": false,
                        "sign": false,
                        "value": "23808.360684505329036"
                    }
                ]
            },
            {
                "account": "0x4e68ccd3e89f51c3074ca5072bbac773960dfa36",
                "assets": [
                    {
                        "address": "0xdac17f958d2ee523a2206206994597c13d831ec7",
                        "amount": "24,460.44988",
                        "iconUrl": "https://assets.blocksec.com/icon/fcea71f3193ce895be44bfdf941f7e4c9381dd587f273c2d1a27f1263d84e4ea.png",
                        "isERC1155": false,
                        "isERC721": false,
                        "sign": false,
                        "value": "24460.44988"
                    },
                    {
                        "address": "0xc02aaa39b223fe8d0a0e5c4f27ead9083c756cc2",
                        "amount": "9.675378921237776196",
                        "iconUrl": "https://assets.blocksec.com/icon/f1cb2d02c471d545bbc7722daf3277fd852d98e63d118771af7047bd8256c516.png",
                        "isERC1155": false,
                        "isERC721": false,
                        "sign": true,
                        "value": "23808.360684505329036"
                    }
                ]
            }
        ]
    },
    "profile": {
        "basic_info": {
            "baseFee": "2.053744111",
            "blockNumber": 20622707,
            "callData": "0xa00000000000000000000000000000004e68ccd3e89f51c3074ca5072bbac773960dfa3600000000000000000000000000000000000000000000000000000000000000010000000000000000000000000000000000000000000000008645d9ddd3ae074400000000000000000000000000000000000000000000000000000005b1f4d858000000000000000000000000c02aaa39b223fe8d0a0e5c4f27ead9083c756cc2",
            "debugEnable": true,
            "errorInfo": "",
            "eventCount": 3,
            "feeRecipient": "0x95222290dd7278aa3ddd389cc1e1d165cc4bafe5",
            "formatValue": "0.000000000020622707",
            "gasLimit": 242876,
            "gasPrice": "12.00045335",
            "gasUsed": 121968,
            "intTxnCount": 6,
            "internalRevert": false,
            "internalRevertMessage": "",
            "isContractCreation": false,
            "isFlashloan": false,
            "maxFee": "12.00045335",
            "nonce": 3715,
            "overwritedBlockNumber": -1,
            "priorityFee": "9.946709239",
            "receiver": "0x68d3a973e7272eb388022a5c6518d9b2a2e66fbf",
            "revertMessage": "",
            "sender": "0x8357efa84f91013bd6b285ef0f6b93c211cc3d9d",
            "simulationEnable": true,
            "sourceTxnHash": "0x533d63338db826a853b5145d3c80530404471bd05d0ed7ffa70553579afca3fd",
            "status": true,
            "timestamp": "2024-08-27T21:47:35Z",
            "transactionFee": "0.0014636712941928",
            "txnHash": "0x533d63338db826a853b5145d3c80530404471bd05d0ed7ffa70553579afca3fd",
            "txnIndex": 27,
            "type": 2,
            "value": "20622707"
        },
        "fund_flow": [
            {
                "amount": "0.000000000020622707",
                "from": "0x8357efa84f91013bd6b285ef0f6b93c211cc3d9d",
                "id": 1,
                "isERC1155": false,
                "isERC721": false,
                "isReverted": false,
                "order": 1,
                "to": "0x68d3a973e7272eb388022a5c6518d9b2a2e66fbf",
                "token": "0xeeeeeeeeeeeeeeeeeeeeeeeeeeeeeeeeeeeeeeee"
            },
            {
                "amount": "24,460.44988",
                "from": "0x4e68ccd3e89f51c3074ca5072bbac773960dfa36",
                "id": 2,
                "isERC1155": false,
                "isERC721": false,
                "isReverted": false,
                "order": 2,
                "to": "0x68d3a973e7272eb388022a5c6518d9b2a2e66fbf",
                "token": "0xdac17f958d2ee523a2206206994597c13d831ec7"
            },
            {
                "amount": "9.675378921237776196",
                "from": "0x68d3a973e7272eb388022a5c6518d9b2a2e66fbf",
                "id": 3,
                "isERC1155": false,
                "isERC721": false,
                "isReverted": false,
                "order": 3,
                "to": "0x4e68ccd3e89f51c3074ca5072bbac773960dfa36",
                "token": "0xc02aaa39b223fe8d0a0e5c4f27ead9083c756cc2"
            }
        ],
        "token_infos": [
            {
                "address": "0xc02aaa39b223fe8d0a0e5c4f27ead9083c756cc2",
                "decimals": 18
            },
            {
                "address": "0xdac17f958d2ee523a2206206994597c13d831ec7",
                "decimals": 6
            },
            {
                "address": "0xeeeeeeeeeeeeeeeeeeeeeeeeeeeeeeeeeeeeeeee",
                "decimals": 18
            }
        ]
    },
    "address_label": {
        "labels": [
            {
                "address": "0x0000000000000000000000000000000000000004",
                "label": "Precompiled"
            },
            {
                "address": "0xeeeeeeeeeeeeeeeeeeeeeeeeeeeeeeeeeeeeeeee",
                "label": "Ether"
            },
            {
                "address": "0x4e68ccd3e89f51c3074ca5072bbac773960dfa36",
                "label": "Uniswap V3: USDT"
            },
            {
                "address": "0xc02aaa39b223fe8d0a0e5c4f27ead9083c756cc2",
                "label": "Wrapped Ether (WETH)"
            },
            {
                "address": "0xdac17f958d2ee523a2206206994597c13d831ec7",
                "label": "Tether: USDT Stablecoin"
            },
            {
                "address": "0x0000000000000000000000000000000000000001",
                "label": "Precompiled"
            },
            {
                "address": "0x0000000000000000000000000000000000000002",
                "label": "Precompiled"
            },
            {
                "address": "0x0000000000000000000000000000000000000003",
                "label": "Precompiled"
            }
        ]
    },
    "trace": {
        "accountLabels": null,
        "dataMap": {
            "-1": {
                "invocation": {
                    "address": "0x8357efa84f91013bd6b285ef0f6b93c211cc3d9d",
                    "callData": "",
                    "decodedMethod": null,
                    "errorInfo": "",
                    "fromAddress": "",
                    "gasUsed": 0,
                    "id": -1,
                    "methodDecoded": false,
                    "operation": "",
                    "output": "",
                    "revert": false,
                    "revertMessage": "",
                    "selector": "",
                    "status": false,
                    "value": ""
                },
                "nodeType": 0
            },
            "0": {
                "invocation": {
                    "address": "0x68d3a973e7272eb388022a5c6518d9b2a2e66fbf",
                    "callData": "0x0000000000000000000000004e68ccd3e89f51c3074ca5072bbac773960dfa3600000000000000000000000000000000000000000000000000000000000000010000000000000000000000000000000000000000000000008645d9ddd3ae074400000000000000000000000000000000000000000000000000000005b1f4d858000000000000000000000000c02aaa39b223fe8d0a0e5c4f27ead9083c756cc2",
                    "decodedMethod": null,
                    "errorInfo": "",
                    "fromAddress": "0x8357efa84f91013bd6b285ef0f6b93c211cc3d9d",
                    "gasUsed": 121968,
                    "id": 0,
                    "methodDecoded": false,
                    "operation": "CALL",
                    "output": "",
                    "revert": false,
                    "revertMessage": "",
                    "selector": "0xa0000000",
                    "status": true,
                    "value": "0.000000000020622707"
                },
                "nodeType": 0
            },
            "1": {
                "invocation": {
                    "address": "0x4e68ccd3e89f51c3074ca5072bbac773960dfa36",
                    "callData": "0x00000000000000000000000068d3a973e7272eb388022a5c6518d9b2a2e66fbf00000000000000000000000000000000000000000000000000000000000000010000000000000000000000000000000000000000000000008645d9ddd3ae074400000000000000000000000000000000000000000000000000000001000276a400000000000000000000000000000000000000000000000000000000000000a00000000000000000000000000000000000000000000000000000000000000040000000000000000000000000c02aaa39b223fe8d0a0e5c4f27ead9083c756cc20000000000000000000000000000000000000000000000000000000000000001",
                    "decodedMethod": {
                        "callParams": [
                            {
                                "name": "recipient",
                                "type": "address",
                                "value": "0x68d3a973e7272eb388022a5c6518d9b2a2e66fbf"
                            },
                            {
                                "name": "zeroForOne",
                                "type": "bool",
                                "value": true
                            },
                            {
                                "name": "amountSpecified",
                                "type": "int256",
                                "value": "9,675,378,921,237,776,196"
                            },
                            {
                                "name": "sqrtPriceLimitX96",
                                "type": "uint160",
                                "value": "4,295,128,740"
                            },
                            {
                                "name": "data",
                                "type": "bytes",
                                "value": "0x000000000000000000000000c02aaa39b223fe8d0a0e5c4f27ead9083c756cc20000000000000000000000000000000000000000000000000000000000000001"
                            }
                        ],
                        "constructorArguments": "",
                        "name": "swap",
                        "returnParams": [
                            {
                                "name": "amount0",
                                "type": "int256",
                                "value": "9,675,378,921,237,776,196"
                            },
                            {
                                "name": "amount1",
                                "type": "int256",
                                "value": "-24,460,449,880"
                            }
                        ],
                        "signature": "swap(address,bool,int256,uint160,bytes)"
                    },
                    "errorInfo": "",
                    "fromAddress": "0x68d3a973e7272eb388022a5c6518d9b2a2e66fbf",
                    "gasUsed": 86121,
                    "id": 1,
                    "methodDecoded": true,
                    "operation": "CALL",
                    "output": "0x0000000000000000000000000000000000000000000000008645d9ddd3ae0744fffffffffffffffffffffffffffffffffffffffffffffffffffffffa4e0b27a8",
                    "revert": false,
                    "revertMessage": "",
                    "selector": "0x128acb08",
                    "status": true,
                    "value": "0"
                },
                "nodeType": 0
            },
            "2": {
                "invocation": {
                    "address": "0xdac17f958d2ee523a2206206994597c13d831ec7",
                    "callData": "0x00000000000000000000000068d3a973e7272eb388022a5c6518d9b2a2e66fbf00000000000000000000000000000000000000000000000000000005b1f4d858",
                    "decodedMethod": {
                        "callParams": [
                            {
                                "name": "_to",
                                "type": "address",
                                "value": "0x68d3a973e7272eb388022a5c6518d9b2a2e66fbf"
                            },
                            {
                                "decimalAvailable": true,
                                "name": "_value",
                                "type": "uint256",
                                "value": "24,460,449,880"
                            }
                        ],
                        "constructorArguments": "",
                        "name": "transfer",
                        "returnParams": [],
                        "signature": "transfer(address,uint256)"
                    },
                    "errorInfo": "",
                    "fromAddress": "0x4e68ccd3e89f51c3074ca5072bbac773960dfa36",
                    "gasUsed": 24501,
                    "id": 2,
                    "methodDecoded": true,
                    "operation": "CALL",
                    "output": "",
                    "revert": false,
                    "revertMessage": "",
                    "selector": "0xa9059cbb",
                    "status": true,
                    "value": "0"
                },
                "nodeType": 0
            },
            "3": {
                "event": {
                    "contract": "0xdac17f958d2ee523a2206206994597c13d831ec7",
                    "decodedLog": {
                        "name": "Transfer",
                        "params": [
                            {
                                "name": "from",
                                "type": "address",
                                "value": "0x4e68ccd3e89f51c3074ca5072bbac773960dfa36"
                            },
                            {
                                "name": "to",
                                "type": "address",
                                "value": "0x68d3a973e7272eb388022a5c6518d9b2a2e66fbf"
                            },
                            {
                                "decimalAvailable": true,
                                "name": "value",
                                "type": "uint256",
                                "value": "24,460,449,880"
                            }
                        ],
                        "signature": "Transfer(address,address,uint256)"
                    },
                    "id": 3,
                    "logData": "0x00000000000000000000000000000000000000000000000000000005b1f4d858",
                    "logDecoded": true,
                    "operation": "EVENT",
                    "revert": false,
                    "status": true,
                    "topics": [
                        "0xddf252ad1be2c89b69c2b068fc378daa952ba7f163c4a11628f55a4df523b3ef",
                        "0x0000000000000000000000004e68ccd3e89f51c3074ca5072bbac773960dfa36",
                        "0x00000000000000000000000068d3a973e7272eb388022a5c6518d9b2a2e66fbf"
                    ]
                },
                "nodeType": 1
            },
            "4": {
                "invocation": {
                    "address": "0xc02aaa39b223fe8d0a0e5c4f27ead9083c756cc2",
                    "callData": "0x0000000000000000000000004e68ccd3e89f51c3074ca5072bbac773960dfa36",
                    "decodedMethod": {
                        "callParams": [
                            {
                                "name": "",
                                "type": "address",
                                "value": "0x4e68ccd3e89f51c3074ca5072bbac773960dfa36"
                            }
                        ],
                        "constructorArguments": "",
                        "name": "balanceOf",
                        "returnParams": [
                            {
                                "decimalAvailable": true,
                                "name": "",
                                "type": "uint256",
                                "value": "25,179,194,479,009,462,533,611"
                            }
                        ],
                        "signature": "balanceOf(address)"
                    },
                    "errorInfo": "",
                    "fromAddress": "0x4e68ccd3e89f51c3074ca5072bbac773960dfa36",
                    "gasUsed": 2534,
                    "id": 4,
                    "methodDecoded": true,
                    "operation": "STATICCALL",
                    "output": "0x000000000000000000000000000000000000000000000554f784a591bbd4bdeb",
                    "revert": false,
                    "revertMessage": "",
                    "selector": "0x70a08231",
                    "status": true,
                    "value": "0"
                },
                "nodeType": 0
            },
            "5": {
                "invocation": {
                    "address": "0x68d3a973e7272eb388022a5c6518d9b2a2e66fbf",
                    "callData": "0x0000000000000000000000000000000000000000000000008645d9ddd3ae0744fffffffffffffffffffffffffffffffffffffffffffffffffffffffa4e0b27a800000000000000000000000000000000000000000000000000000000000000600000000000000000000000000000000000000000000000000000000000000040000000000000000000000000c02aaa39b223fe8d0a0e5c4f27ead9083c756cc20000000000000000000000000000000000000000000000000000000000000001",
                    "decodedMethod": {
                        "callParams": [
                            {
                                "name": "amount0Delta",
                                "type": "int256",
                                "value": "9,675,378,921,237,776,196"
                            },
                            {
                                "name": "amount1Delta",
                                "type": "int256",
                                "value": "-24,460,449,880"
                            },
                            {
                                "name": "data",
                                "type": "bytes",
                                "value": "0x000000000000000000000000c02aaa39b223fe8d0a0e5c4f27ead9083c756cc20000000000000000000000000000000000000000000000000000000000000001"
                            }
                        ],
                        "constructorArguments": "",
                        "name": "uniswapV3SwapCallback",
                        "returnParams": [],
                        "signature": "uniswapV3SwapCallback(int256,int256,bytes)"
                    },
                    "errorInfo": "",
                    "fromAddress": "0x4e68ccd3e89f51c3074ca5072bbac773960dfa36",
                    "gasUsed": 12753,
                    "id": 5,
                    "methodDecoded": true,
                    "operation": "CALL",
                    "output": "",
                    "revert": false,
                    "revertMessage": "",
                    "selector": "0xfa461e33",
                    "status": true,
                    "value": "0"
                },
                "nodeType": 0
            },
            "6": {
                "invocation": {
                    "address": "0xc02aaa39b223fe8d0a0e5c4f27ead9083c756cc2",
                    "callData": "0x0000000000000000000000004e68ccd3e89f51c3074ca5072bbac773960dfa360000000000000000000000000000000000000000000000008645d9ddd3ae0744",
                    "decodedMethod": {
                        "callParams": [
                            {
                                "name": "dst",
                                "type": "address",
                                "value": "0x4e68ccd3e89f51c3074ca5072bbac773960dfa36"
                            },
                            {
                                "decimalAvailable": true,
                                "name": "wad",
                                "type": "uint256",
                                "value": "9,675,378,921,237,776,196"
                            }
                        ],
                        "constructorArguments": "",
                        "name": "transfer",
                        "returnParams": [
                            {
                                "name": "",
                                "type": "bool",
                                "value": true
                            }
                        ],
                        "signature": "transfer(address,uint256)"
                    },
                    "errorInfo": "",
                    "fromAddress": "0x68d3a973e7272eb388022a5c6518d9b2a2e66fbf",
                    "gasUsed": 10862,
                    "id": 6,
                    "methodDecoded": true,
                    "operation": "CALL",
                    "output": "0x0000000000000000000000000000000000000000000000000000000000000001",
                    "revert": false,
                    "revertMessage": "",
                    "selector": "0xa9059cbb",
                    "status": true,
                    "value": "0"
                },
                "nodeType": 0
            },
            "7": {
                "event": {
                    "contract": "0xc02aaa39b223fe8d0a0e5c4f27ead9083c756cc2",
                    "decodedLog": {
                        "name": "Transfer",
                        "params": [
                            {
                                "name": "src",
                                "type": "address",
                                "value": "0x68d3a973e7272eb388022a5c6518d9b2a2e66fbf"
                            },
                            {
                                "name": "dst",
                                "type": "address",
                                "value": "0x4e68ccd3e89f51c3074ca5072bbac773960dfa36"
                            },
                            {
                                "decimalAvailable": true,
                                "name": "wad",
                                "type": "uint256",
                                "value": "9,675,378,921,237,776,196"
                            }
                        ],
                        "signature": "Transfer(address,address,uint256)"
                    },
                    "id": 7,
                    "logData": "0x0000000000000000000000000000000000000000000000008645d9ddd3ae0744",
                    "logDecoded": true,
                    "operation": "EVENT",
                    "revert": false,
                    "status": true,
                    "topics": [
                        "0xddf252ad1be2c89b69c2b068fc378daa952ba7f163c4a11628f55a4df523b3ef",
                        "0x00000000000000000000000068d3a973e7272eb388022a5c6518d9b2a2e66fbf",
                        "0x0000000000000000000000004e68ccd3e89f51c3074ca5072bbac773960dfa36"
                    ]
                },
                "nodeType": 1
            },
            "8": {
                "invocation": {
                    "address": "0xc02aaa39b223fe8d0a0e5c4f27ead9083c756cc2",
                    "callData": "0x0000000000000000000000004e68ccd3e89f51c3074ca5072bbac773960dfa36",
                    "decodedMethod": {
                        "callParams": [
                            {
                                "name": "",
                                "type": "address",
                                "value": "0x4e68ccd3e89f51c3074ca5072bbac773960dfa36"
                            }
                        ],
                        "constructorArguments": "",
                        "name": "balanceOf",
                        "returnParams": [
                            {
                                "decimalAvailable": true,
                                "name": "",
                                "type": "uint256",
                                "value": "25,188,869,857,930,700,309,807"
                            }
                        ],
                        "signature": "balanceOf(address)"
                    },
                    "errorInfo": "",
                    "fromAddress": "0x4e68ccd3e89f51c3074ca5072bbac773960dfa36",
                    "gasUsed": 534,
                    "id": 8,
                    "methodDecoded": true,
                    "operation": "STATICCALL",
                    "output": "0x0000000000000000000000000000000000000000000005557dca7f6f8f82c52f",
                    "revert": false,
                    "revertMessage": "",
                    "selector": "0x70a08231",
                    "status": true,
                    "value": "0"
                },
                "nodeType": 0
            },
            "9": {
                "event": {
                    "contract": "0x4e68ccd3e89f51c3074ca5072bbac773960dfa36",
                    "decodedLog": {
                        "name": "Swap",
                        "params": [
                            {
                                "name": "sender",
                                "type": "address",
                                "value": "0x68d3a973e7272eb388022a5c6518d9b2a2e66fbf"
                            },
                            {
                                "name": "recipient",
                                "type": "address",
                                "value": "0x68d3a973e7272eb388022a5c6518d9b2a2e66fbf"
                            },
                            {
                                "name": "amount0",
                                "type": "int256",
                                "value": "9,675,378,921,237,776,196"
                            },
                            {
                                "name": "amount1",
                                "type": "int256",
                                "value": "-24,460,449,880"
                            },
                            {
                                "name": "sqrtPriceX96",
                                "type": "uint160",
                                "value": "3,989,164,932,551,201,682,370,754"
                            },
                            {
                                "name": "liquidity",
                                "type": "uint128",
                                "value": "2,186,516,846,897,081,256"
                            },
                            {
                                "name": "tick",
                                "type": "int24",
                                "value": "-197,940"
                            }
                        ],
                        "signature": "Swap(address,address,int256,int256,uint160,uint128,int24)"
                    },
                    "id": 9,
                    "logData": "0x0000000000000000000000000000000000000000000000008645d9ddd3ae0744fffffffffffffffffffffffffffffffffffffffffffffffffffffffa4e0b27a8000000000000000000000000000000000000000000034cbd1076ddadb65430c20000000000000000000000000000000000000000000000001e58117cd2b52ba8fffffffffffffffffffffffffffffffffffffffffffffffffffffffffffcfacc",
                    "logDecoded": true,
                    "operation": "EVENT",
                    "revert": false,
                    "status": true,
                    "topics": [
                        "0xc42079f94a6350d7e6235f29174924f928cc2ac818eb64fed8004e115fbcca67",
                        "0x00000000000000000000000068d3a973e7272eb388022a5c6518d9b2a2e66fbf",
                        "0x00000000000000000000000068d3a973e7272eb388022a5c6518d9b2a2e66fbf"
                    ]
                },
                "nodeType": 1
            }
        },
        "gasFlame": [
            {
                "children": [
                    {
                        "children": [
                            {
                                "children": [],
                                "depth": 0,
                                "name": "Initial Gas",
                                "value": 22316
                            },
                            {
                                "children": [
                                    {
                                        "children": [
                                            {
                                                "children": [],
                                                "depth": 2,
                                                "name": "transfer",
                                                "value": 24501
                                            },
                                            {
                                                "children": [],
                                                "depth": 2,
                                                "name": "balanceOf",
                                                "value": 2534
                                            },
                                            {
                                                "children": [
                                                    {
                                                        "children": [],
                                                        "depth": 3,
                                                        "name": "transfer",
                                                        "value": 10862
                                                    }
                                                ],
                                                "depth": 2,
                                                "name": "uniswapV3SwapCallback",
                                                "value": 12753
                                            },
                                            {
                                                "children": [],
                                                "depth": 2,
                                                "name": "balanceOf",
                                                "value": 534
                                            }
                                        ],
                                        "depth": 1,
                                        "name": "swap",
                                        "value": 86121
                                    }
                                ],
                                "depth": 0,
                                "name": "Executed Gas",
                                "value": 122352
                            }
                        ],
                        "depth": -1,
                        "name": "Actual Gas Used",
                        "value": 121968
                    },
                    {
                        "children": [],
                        "depth": -1,
                        "name": "Refunded Gas",
                        "value": 22700
                    }
                ],
                "depth": -2,
                "name": "Total Gas",
                "value": 144668
            }
        ],
        "isConfirmed": true,
        "mainTrace": [
            {
                "children": [
                    {
                        "children": [
                            {
                                "children": [
                                    {
                                        "children": [
                                            {
                                                "children": [],
                                                "depth": 3,
                                                "id": 3,
                                                "order": 3
                                            }
                                        ],
                                        "depth": 2,
                                        "id": 2,
                                        "order": 2
                                    },
                                    {
                                        "children": [],
                                        "depth": 2,
                                        "id": 4,
                                        "order": 4
                                    },
                                    {
                                        "children": [
                                            {
                                                "children": [
                                                    {
                                                        "children": [],
                                                        "depth": 4,
                                                        "id": 7,
                                                        "order": 7
                                                    }
                                                ],
                                                "depth": 3,
                                                "id": 6,
                                                "order": 6
                                            }
                                        ],
                                        "depth": 2,
                                        "id": 5,
                                        "order": 5
                                    },
                                    {
                                        "children": [],
                                        "depth": 2,
                                        "id": 8,
                                        "order": 8
                                    },
                                    {
                                        "children": [],
                                        "depth": 2,
                                        "id": 9,
                                        "order": 9
                                    }
                                ],
                                "depth": 1,
                                "id": 1,
                                "order": 1
                            }
                        ],
                        "depth": 0,
                        "id": 0,
                        "order": 0
                    }
                ],
                "depth": -1,
                "id": -1,
                "order": -1
            }
        ],
        "mainTraceNodeCount": 10,
        "parentIdMap": {
            "0": -1,
            "1": 0,
            "2": 1,
            "3": 2,
            "4": 1,
            "5": 1,
            "6": 5,
            "7": 6,
            "8": 1,
            "9": 1
        },
        "tidyTrace": [
            {
                "children": [
                    {
                        "children": [
                            {
                                "children": [
                                    {
                                        "children": [
                                            {
                                                "children": [],
                                                "depth": 3,
                                                "id": 3,
                                                "order": 3
                                            }
                                        ],
                                        "depth": 2,
                                        "id": 2,
                                        "order": 2
                                    },
                                    {
                                        "children": [
                                            {
                                                "children": [
                                                    {
                                                        "children": [],
                                                        "depth": 4,
                                                        "id": 7,
                                                        "order": 7
                                                    }
                                                ],
                                                "depth": 3,
                                                "id": 6,
                                                "order": 6
                                            }
                                        ],
                                        "depth": 2,
                                        "id": 5,
                                        "order": 5
                                    },
                                    {
                                        "children": [],
                                        "depth": 2,
                                        "id": 9,
                                        "order": 9
                                    }
                                ],
                                "depth": 1,
                                "id": 1,
                                "order": 1
                            }
                        ],
                        "depth": 0,
                        "id": 0,
                        "order": 0
                    }
                ],
                "depth": -1,
                "id": -1,
                "order": -1
            }
        ],
        "tidyTraceNodeCount": 8
    },
    "state_change": {
        "stateChanges": [
            {
                "address": "0x4e68ccd3e89f51c3074ca5072bbac773960dfa36",
                "erc": "",
                "slots": [
                    {
                        "current": "0x0100000000000000001c0baa62834adfa748d2021dffed1004c3150166ce4977",
                        "key": "0x0000000000000000000000000000000000000000000000000000000000000013",
                        "prev": "0x0100000000000000001c0889c579f199124f06f66cffed1125317f5566cde9e3"
                    },
                    {
                        "current": "0x000000000000000000000000000013e842f9777162c779cd2249e3751b444fbe",
                        "key": "0x0000000000000000000000000000000000000000000000000000000000000001",
                        "prev": "0x000000000000000000000000000013e83f9378efc63662ffce0f595a13d7a968"
                    },
                    {
                        "current": "0x00010000640064000bfcfacc000000000000000000034cbd1076ddadb65430c2",
                        "key": "0x0000000000000000000000000000000000000000000000000000000000000000",
                        "prev": "0x00010000640064000afcfad0000000000000000000034ced1ca4be6d85ff5807"
                    }
                ],
                "storageVariables": [
                    {
                        "name": "slot0",
                        "type": "struct UniswapV3Pool.Slot0",
                        "value": {
                            "fields": [
                                {
                                    "name": "sqrtPriceX96",
                                    "type": "uint160",
                                    "value": {
                                        "current": "3989164932551201682370754",
                                        "prev": "3990051253871356575438855",
                                        "typeTag": 1
                                    }
                                },
                                {
                                    "name": "tick",
                                    "type": "int24",
                                    "value": {
                                        "current": "-197940",
                                        "prev": "-197936",
                                        "typeTag": 1
                                    }
                                },
                                {
                                    "name": "observationIndex",
                                    "type": "uint16",
                                    "value": {
                                        "current": "11",
                                        "prev": "10",
                                        "typeTag": 1
                                    }
                                },
                                {
                                    "name": "observationCardinality",
                                    "type": "uint16",
                                    "value": {
                                        "current": "100",
                                        "prev": "100",
                                        "typeTag": 1
                                    }
                                },
                                {
                                    "name": "observationCardinalityNext",
                                    "type": "uint16",
                                    "value": {
                                        "current": "100",
                                        "prev": "100",
                                        "typeTag": 1
                                    }
                                },
                                {
                                    "name": "feeProtocol",
                                    "type": "uint8",
                                    "value": {
                                        "current": "0",
                                        "prev": "0",
                                        "typeTag": 1
                                    }
                                },
                                {
                                    "name": "unlocked",
                                    "type": "bool",
                                    "value": {
                                        "current": "true",
                                        "prev": "true",
                                        "typeTag": 1
                                    }
                                }
                            ],
                            "typeTag": 3
                        }
                    },
                    {
                        "name": "feeGrowthGlobal0X128",
                        "type": "uint256",
                        "value": {
                            "current": "1734167966181332085310099798275889675128766",
                            "prev": "1734163448913361091189570529616920007125352",
                            "typeTag": 1
                        }
                    }
                ]
            },
            {
                "address": "0xc02aaa39b223fe8d0a0e5c4f27ead9083c756cc2",
                "erc": "ERC-20",
                "slots": [
                    {
                        "current": "0x00000000000000000000000000000000000000000000003162ef3855ae571ce8",
                        "key": "0xcef822a0de865536fc7da14b08972173e69e1407da9c8c4416130dc5a59a8197",
                        "prev": "0x000000000000000000000000000000000000000000000031e93512338205242c"
                    },
                    {
                        "current": "0x0000000000000000000000000000000000000000000005557dca7f6f8f82c52f",
                        "key": "0x217fdff7afc5cd5a4e8ef4146b5a8c30926ffa20f0ff879ffdc9ed3476cd86ee",
                        "prev": "0x000000000000000000000000000000000000000000000554f784a591bbd4bdeb"
                    }
                ],
                "storageVariables": [
                    {
                        "name": "balanceOf",
                        "type": "mapping(address => uint256)",
                        "value": {
                            "pairs": [
                                {
                                    "key": "0x4e68ccd3e89f51c3074ca5072bbac773960dfa36",
                                    "value": {
                                        "current": "25188869857930700309807",
                                        "prev": "25179194479009462533611",
                                        "typeTag": 1
                                    }
                                },
                                {
                                    "key": "0x68d3a973e7272eb388022a5c6518d9b2a2e66fbf",
                                    "value": {
                                        "current": "911019438287567133928",
                                        "prev": "920694817208804910124",
                                        "typeTag": 1
                                    }
                                }
                            ],
                            "typeTag": 4
                        }
                    }
                ]
            },
            {
                "address": "0xdac17f958d2ee523a2206206994597c13d831ec7",
                "erc": "ERC-20",
                "slots": [
                    {
                        "current": "0x00000000000000000000000000000000000000000000000000000bc50671c575",
                        "key": "0xf79325ef15d73bc873d975b0e4eedaf108f1a270300e4b40424347eae19bc685",
                        "prev": "0x00000000000000000000000000000000000000000000000000000bcab8669dcd"
                    },
                    {
                        "current": "0x000000000000000000000000000000000000000000000000000001f46ee23298",
                        "key": "0x0f9969074d4b434e64e01cfdd1bd316d786c22322b793096e01a0467dfea11cf",
                        "prev": "0x000000000000000000000000000000000000000000000000000001eebced5a40"
                    }
                ],
                "storageVariables": [
                    {
                        "name": "balances",
                        "type": "mapping(address => uint256)",
                        "value": {
                            "pairs": [
                                {
                                    "key": "0x4e68ccd3e89f51c3074ca5072bbac773960dfa36",
                                    "value": {
                                        "current": "12940844582261",
                                        "prev": "12965305032141",
                                        "typeTag": 1
                                    }
                                },
                                {
                                    "key": "0x68d3a973e7272eb388022a5c6518d9b2a2e66fbf",
                                    "value": {
                                        "current": "2149343965848",
                                        "prev": "2124883515968",
                                        "typeTag": 1
                                    }
                                }
                            ],
                            "typeTag": 4
                        }
                    }
                ]
            }
        ]
    }
}