{
    "balance_change": {
        "balanceChanges": [
            {
                "account": "0x34a253944327d0a744c90ae61fa7fc334c4e5394",
                "assets": [
                    {
                        "address": "0xf230b790e05390fc8295f4d3f60332c93bed42e2",
                        "amount": "99",
                        "iconUrl": "",
                        "isERC1155": false,
                        "isERC721": false,
                        "sign": false,
                        "value": ""
                    }
                ]
            },
            {
                "account": "0xadb2b42f6bd96f5c65920b9ac88619dce4166f94",
                "assets": [
                    {
                        "address": "0xf230b790e05390fc8295f4d3f60332c93bed42e2",
                        "amount": "99",
                        "iconUrl": "",
                        "isERC1155": false,
                        "isERC721": false,
                        "sign": true,
                        "value": ""
                    }
                ]
            }
        ]
    },
    "profile": {
        "basic_info": {
            "baseFee": "",
            "blockNumber": 6349928,
            "callData": "0xa9059cbb000000000000000000000000adb2b42f6bd96f5c65920b9ac88619dce4166f940000000000000000000000000000000000000000000000000000000005e69ec0",
            "debugEnable": true,
            "errorInfo": "",
            "eventCount": 1,
            "feeRecipient": "0x002e08000acbbae2155fab7ac01929564949070d",
            "formatValue": "0",
            "gasLimit": 65000,
            "gasPrice": "5.1",
            "gasUsed": 22091,
            "intTxnCount": 0,
            "internalRevert": false,
            "internalRevertMessage": "",
            "isContractCreation": false,
            "isFlashloan": false,
            "maxFee": "",
            "nonce": 11,
            "overwritedBlockNumber": -1,
            "priorityFee": "",
            "receiver": "0xf230b790e05390fc8295f4d3f60332c93bed42e2",
            "revertMessage": "",
            "sender": "0x34a253944327d0a744c90ae61fa7fc334c4e5394",
            "simulationEnable": true,
            "sourceTxnHash": "0x539056f7240ced5a26bc7e9489bb1e74bfd321bf4998f430f07c310f9a646d7f",
            "status": true,
            "timestamp": "2018-09-17T18:41:31Z",
            "transactionFee": "0.0001126641",
            "txnHash": "0x539056f7240ced5a26bc7e9489bb1e74bfd321bf4998f430f07c310f9a646d7f",
            "txnIndex": 25,
            "type": 0,
            "value": "0"
        },
        "fund_flow": [
            {
                "amount": "99",
                "from": "0x34a253944327d0a744c90ae61fa7fc334c4e5394",
                "id": 1,
                "isERC1155": false,
                "isERC721": false,
                "isReverted": false,
                "order": 1,
                "to": "0xadb2b42f6bd96f5c65920b9ac88619dce4166f94",
                "token": "0xf230b790e05390fc8295f4d3f60332c93bed42e2"
            }
        ],
        "token_infos": [
            {
                "address": "0xc02aaa39b223fe8d0a0e5c4f27ead9083c756cc2",
                "decimals": 18
            },
            {
                "address": "0xf230b790e05390fc8295f4d3f60332c93bed42e2",
                "decimals": 6
            },
            {
                "address": "0xeeeeeeeeeeeeeeeeeeeeeeeeeeeeeeeeeeeeeeee",
                "decimals": 18
            }
        ]
    },
    "address_label": {
        "labels": [
            {
                "address": "0x0000000000000000000000000000000000000002",
                "label": "Precompiled"
            },
            {
                "address": "0x0000000000000000000000000000000000000003",
                "label": "Precompiled"
            },
            {
                "address": "0x0000000000000000000000000000000000000004",
                "label": "Precompiled"
            },
            {
                "address": "0xeeeeeeeeeeeeeeeeeeeeeeeeeeeeeeeeeeeeeeee",
                "label": "Ether"
            },
            {
                "address": "0x34a253944327d0a744c90ae61fa7fc334c4e5394",
                "label": "HUOBI"
            },
            {
                "address": "0xadb2b42f6bd96f5c65920b9ac88619dce4166f94",
                "label": "HTX 7"
            },
            {
                "address": "0xf230b790e05390fc8295f4d3f60332c93bed42e2",
                "label": "TRON: Old TRX Token"
            },
            {
                "address": "0x0000000000000000000000000000000000000001",
                "label": "Precompiled"
            }
        ]
    },
    "trace": {
        "accountLabels": null,
        "dataMap": {
            "-1": {
                "invocation": {
                    "address": "0x34a253944327d0a744c90ae61fa7fc334c4e5394",
                    "callData": "",
                    "decodedMethod": null,
                    "errorInfo": "",
                    "fromAddress": "",
                    "gasUsed": 0,
                    "id": -1,
                    "methodDecoded": false,
                    "operation": "",
                    "output": "",
                    "revert": false,
                    "revertMessage": "",
                    "selector": "",
                    "status": false,
                    "value": ""
                },
                "nodeType": 0
            },
            "0": {
                "invocation": {
                    "address": "0xf230b790e05390fc8295f4d3f60332c93bed42e2",
                    "callData": "0x000000000000000000000000adb2b42f6bd96f5c65920b9ac88619dce4166f940000000000000000000000000000000000000000000000000000000005e69ec0",
                    "decodedMethod": {
                        "callParams": [
                            {
                                "name": "_to",
                                "type": "address",
                                "value": "0xadb2b42f6bd96f5c65920b9ac88619dce4166f94"
                            },
                            {
                                "decimalAvailable": true,
                                "name": "_value",
                                "type": "uint256",
                                "value": "99,000,000"
                            }
                        ],
                        "constructorArguments": "",
                        "name": "transfer",
                        "returnParams": [
                            {
                                "name": "success",
                                "type": "bool",
                                "value": true
                            }
                        ],
                        "signature": "transfer(address,uint256)"
                    },
                    "errorInfo": "",
                    "fromAddress": "0x34a253944327d0a744c90ae61fa7fc334c4e5394",
                    "gasUsed": 22091,
                    "id": 0,
                    "methodDecoded": true,
                    "operation": "CALL",
                    "output": "0x0000000000000000000000000000000000000000000000000000000000000001",
                    "revert": false,
                    "revertMessage": "",
                    "selector": "0xa9059cbb",
                    "status": true,
                    "value": "0"
                },
                "nodeType": 0
            },
            "1": {
                "event": {
                    "contract": "0xf230b790e05390fc8295f4d3f60332c93bed42e2",
                    "decodedLog": {
                        "name": "Transfer",
                        "params": [
                            {
                                "name": "_from",
                                "type": "address",
                                "value": "0x34a253944327d0a744c90ae61fa7fc334c4e5394"
                            },
                            {
                                "name": "_to",
                                "type": "address",
                                "value": "0xadb2b42f6bd96f5c65920b9ac88619dce4166f94"
                            },
                            {
                                "decimalAvailable": true,
                                "name": "_value",
                                "type": "uint256",
                                "value": "99,000,000"
                            }
                        ],
                        "signature": "Transfer(address,address,uint256)"
                    },
                    "id": 1,
                    "logData": "0x0000000000000000000000000000000000000000000000000000000005e69ec0",
                    "logDecoded": true,
                    "operation": "EVENT",
                    "revert": false,
                    "status": true,
                    "topics": [
                        "0xddf252ad1be2c89b69c2b068fc378daa952ba7f163c4a11628f55a4df523b3ef",
                        "0x00000000000000000000000034a253944327d0a744c90ae61fa7fc334c4e5394",
                        "0x000000000000000000000000adb2b42f6bd96f5c65920b9ac88619dce4166f94"
                    ]
                },
                "nodeType": 1
            }
        },
        "gasFlame": [
            {
                "children": [
                    {
                        "children": [
                            {
                                "children": [],
                                "depth": 0,
                                "name": "Initial Gas",
                                "value": 23064
                            },
                            {
                                "children": [],
                                "depth": 0,
                                "name": "Executed Gas",
                                "value": 14027
                            }
                        ],
                        "depth": -1,
                        "name": "Actual Gas Used",
                        "value": 22091
                    },
                    {
                        "children": [],
                        "depth": -1,
                        "name": "Refunded Gas",
                        "value": 15000
                    }
                ],
                "depth": -2,
                "name": "Total Gas",
                "value": 37091
            }
        ],
        "isConfirmed": true,
        "mainTrace": [
            {
                "children": [
                    {
                        "children": [
                            {
                                "children": [],
                                "depth": 1,
                                "id": 1,
                                "order": 1
                            }
                        ],
                        "depth": 0,
                        "id": 0,
                        "order": 0
                    }
                ],
                "depth": -1,
                "id": -1,
                "order": -1
            }
        ],
        "mainTraceNodeCount": 2,
        "parentIdMap": {
            "0": -1,
            "1": 0
        },
        "tidyTrace": [
            {
                "children": [
                    {
                        "children": [
                            {
                                "children": [],
                                "depth": 1,
                                "id": 1,
                                "order": 1
                            }
                        ],
                        "depth": 0,
                        "id": 0,
                        "order": 0
                    }
                ],
                "depth": -1,
                "id": -1,
                "order": -1
            }
        ],
        "tidyTraceNodeCount": 2
    },
    "state_change": {
        "stateChanges": [
            {
                "address": "0xf230b790e05390fc8295f4d3f60332c93bed42e2",
                "erc": "ERC-20",
                "slots": [
                    {
                        "current": "0x0000000000000000000000000000000000000000000000000000000000000000",
                        "key": "0x1409158962677c064149a3d06c95c1c9976ae142be0cbb7248ecf00c0f683c88",
                        "prev": "0x0000000000000000000000000000000000000000000000000000000005e69ec0"
                    },
                    {
                        "current": "0x0000000000000000000000000000000000000000000000000000003a1a0a5d30",
                        "key": "0xa3b8c8677beb42d7ceed4c3003ab85344720918c345cbd0b9d3257fe6b553632",
                        "prev": "0x0000000000000000000000000000000000000000000000000000003a1423be70"
                    }
                ],
                "storageVariables": [
                    {
                        "name": "balanceOf",
                        "type": "mapping(address => uint256)",
                        "value": {
                            "pairs": [
                                {
                                    "key": "0x34a253944327d0a744c90ae61fa7fc334c4e5394",
                                    "value": {
                                        "current": "0",
                                        "prev": "99000000",
                                        "typeTag": 1
                                    }
                                },
                                {
                                    "key": "0xadb2b42f6bd96f5c65920b9ac88619dce4166f94",
                                    "value": {
                                        "current": "249544990000",
                                        "prev": "249445990000",
                                        "typeTag": 1
                                    }
                                }
                            ],
                            "typeTag": 4
                        }
                    }
                ]
            }
        ]
    }
}