{
    "balance_change": {
        "balanceChanges": [
            {
                "account": "0x4daad90656c2e0b51290baaccdd46014cf5b1250",
                "assets": [
                    {
                        "address": "0xc00e94cb662c3520282e6f5717214004a7f26888",
                        "amount": "0.05497569",
                        "iconUrl": "https://assets.blocksec.com/icon/479cb2e15b0a933cedbcf12e2f7327d232e092ac568091b0e1ad6c219f06de17.png",
                        "isERC1155": false,
                        "isERC721": false,
                        "sign": false,
                        "value": ""
                    }
                ]
            },
            {
                "account": "0x1a5b87ad868b04a270ba5f4741e943e33ea6b096",
                "assets": [
                    {
                        "address": "0xc00e94cb662c3520282e6f5717214004a7f26888",
                        "amount": "0.05497569",
                        "iconUrl": "https://assets.blocksec.com/icon/479cb2e15b0a933cedbcf12e2f7327d232e092ac568091b0e1ad6c219f06de17.png",
                        "isERC1155": false,
                        "isERC721": false,
                        "sign": true,
                        "value": ""
                    }
                ]
            }
        ]
    },
    "profile": {
        "basic_info": {
            "baseFee": "",
            "blockNumber": 10923842,
            "callData": "0xa9059cbb0000000000000000000000001a5b87ad868b04a270ba5f4741e943e33ea6b09600000000000000000000000000000000000000000000000000c3501949bb6400",
            "debugEnable": true,
            "errorInfo": "",
            "eventCount": 1,
            "feeRecipient": "0x829bd824b016326a401d083b33d092293333a830",
            "formatValue": "0",
            "gasLimit": 83583,
            "gasPrice": "71",
            "gasUsed": 40722,
            "intTxnCount": 0,
            "internalRevert": false,
            "internalRevertMessage": "",
            "isContractCreation": false,
            "isFlashloan": false,
            "maxFee": "",
            "nonce": 0,
            "overwritedBlockNumber": -1,
            "priorityFee": "",
            "receiver": "0xc00e94cb662c3520282e6f5717214004a7f26888",
            "revertMessage": "",
            "sender": "0x4daad90656c2e0b51290baaccdd46014cf5b1250",
            "simulationEnable": true,
            "sourceTxnHash": "0x53553aeed3d4f00c41d167b45e736ee9c938c8ed57b810a51fd0b77f8ab9347a",
            "status": true,
            "timestamp": "2020-09-24T07:02:00Z",
            "transactionFee": "0.002891262",
            "txnHash": "0x53553aeed3d4f00c41d167b45e736ee9c938c8ed57b810a51fd0b77f8ab9347a",
            "txnIndex": 136,
            "type": 0,
            "value": "0"
        },
        "fund_flow": [
            {
                "amount": "0.05497569",
                "from": "0x4daad90656c2e0b51290baaccdd46014cf5b1250",
                "id": 1,
                "isERC1155": false,
                "isERC721": false,
                "isReverted": false,
                "order": 1,
                "to": "0x1a5b87ad868b04a270ba5f4741e943e33ea6b096",
                "token": "0xc00e94cb662c3520282e6f5717214004a7f26888"
            }
        ],
        "token_infos": [
            {
                "address": "0xc02aaa39b223fe8d0a0e5c4f27ead9083c756cc2",
                "decimals": 18
            },
            {
                "address": "0xeeeeeeeeeeeeeeeeeeeeeeeeeeeeeeeeeeeeeeee",
                "decimals": 18
            },
            {
                "address": "0xc00e94cb662c3520282e6f5717214004a7f26888",
                "decimals": 18
            }
        ]
    },
    "address_label": {
        "labels": [
            {
                "address": "0x0000000000000000000000000000000000000002",
                "label": "Precompiled"
            },
            {
                "address": "0x0000000000000000000000000000000000000003",
                "label": "Precompiled"
            },
            {
                "address": "0x0000000000000000000000000000000000000004",
                "label": "Precompiled"
            },
            {
                "address": "0xeeeeeeeeeeeeeeeeeeeeeeeeeeeeeeeeeeeeeeee",
                "label": "Ether"
            },
            {
                "address": "0xc00e94cb662c3520282e6f5717214004a7f26888",
                "label": "Compound: COMP Token"
            },
            {
                "address": "0x0000000000000000000000000000000000000001",
                "label": "Precompiled"
            }
        ]
    },
    "trace": {
        "accountLabels": null,
        "dataMap": {
            "-1": {
                "invocation": {
                    "address": "0x4daad90656c2e0b51290baaccdd46014cf5b1250",
                    "callData": "",
                    "decodedMethod": null,
                    "errorInfo": "",
                    "fromAddress": "",
                    "gasUsed": 0,
                    "id": -1,
                    "methodDecoded": false,
                    "operation": "",
                    "output": "",
                    "revert": false,
                    "revertMessage": "",
                    "selector": "",
                    "status": false,
                    "value": ""
                },
                "nodeType": 0
            },
            "0": {
                "invocation": {
                    "address": "0xc00e94cb662c3520282e6f5717214004a7f26888",
                    "callData": "0x0000000000000000000000001a5b87ad868b04a270ba5f4741e943e33ea6b09600000000000000000000000000000000000000000000000000c3501949bb6400",
                    "decodedMethod": {
                        "callParams": [
                            {
                                "name": "dst",
                                "type": "address",
                                "value": "0x1a5b87ad868b04a270ba5f4741e943e33ea6b096"
                            },
                            {
                                "decimalAvailable": true,
                                "name": "rawAmount",
                                "type": "uint256",
                                "value": "54,975,690,000,000,000"
                            }
                        ],
                        "constructorArguments": "",
                        "name": "transfer",
                        "returnParams": [
                            {
                                "name": "",
                                "type": "bool",
                                "value": true
                            }
                        ],
                        "signature": "transfer(address,uint256)"
                    },
                    "errorInfo": "",
                    "fromAddress": "0x4daad90656c2e0b51290baaccdd46014cf5b1250",
                    "gasUsed": 40722,
                    "id": 0,
                    "methodDecoded": true,
                    "operation": "CALL",
                    "output": "0x0000000000000000000000000000000000000000000000000000000000000001",
                    "revert": false,
                    "revertMessage": "",
                    "selector": "0xa9059cbb",
                    "status": true,
                    "value": "0"
                },
                "nodeType": 0
            },
            "1": {
                "event": {
                    "contract": "0xc00e94cb662c3520282e6f5717214004a7f26888",
                    "decodedLog": {
                        "name": "Transfer",
                        "params": [
                            {
                                "name": "from",
                                "type": "address",
                                "value": "0x4daad90656c2e0b51290baaccdd46014cf5b1250"
                            },
                            {
                                "name": "to",
                                "type": "address",
                                "value": "0x1a5b87ad868b04a270ba5f4741e943e33ea6b096"
                            },
                            {
                                "decimalAvailable": true,
                                "name": "amount",
                                "type": "uint256",
                                "value": "54,975,690,000,000,000"
                            }
                        ],
                        "signature": "Transfer(address,address,uint256)"
                    },
                    "id": 1,
                    "logData": "0x00000000000000000000000000000000000000000000000000c3501949bb6400",
                    "logDecoded": true,
                    "operation": "EVENT",
                    "revert": false,
                    "status": true,
                    "topics": [
                        "0xddf252ad1be2c89b69c2b068fc378daa952ba7f163c4a11628f55a4df523b3ef",
                        "0x0000000000000000000000004daad90656c2e0b51290baaccdd46014cf5b1250",
                        "0x0000000000000000000000001a5b87ad868b04a270ba5f4741e943e33ea6b096"
                    ]
                },
                "nodeType": 1
            }
        },
        "gasFlame": [
            {
                "children": [
                    {
                        "children": [
                            {
                                "children": [],
                                "depth": 0,
                                "name": "Initial Gas",
                                "value": 21632
                            },
                            {
                                "children": [],
                                "depth": 0,
                                "name": "Executed Gas",
                                "value": 34090
                            }
                        ],
                        "depth": -1,
                        "name": "Actual Gas Used",
                        "value": 40722
                    },
                    {
                        "children": [],
                        "depth": -1,
                        "name": "Refunded Gas",
                        "value": 15000
                    }
                ],
                "depth": -2,
                "name": "Total Gas",
                "value": 55722
            }
        ],
        "isConfirmed": true,
        "mainTrace": [
            {
                "children": [
                    {
                        "children": [
                            {
                                "children": [],
                                "depth": 1,
                                "id": 1,
                                "order": 1
                            }
                        ],
                        "depth": 0,
                        "id": 0,
                        "order": 0
                    }
                ],
                "depth": -1,
                "id": -1,
                "order": -1
            }
        ],
        "mainTraceNodeCount": 2,
        "parentIdMap": {
            "0": -1,
            "1": 0
        },
        "tidyTrace": [
            {
                "children": [
                    {
                        "children": [
                            {
                                "children": [],
                                "depth": 1,
                                "id": 1,
                                "order": 1
                            }
                        ],
                        "depth": 0,
                        "id": 0,
                        "order": 0
                    }
                ],
                "depth": -1,
                "id": -1,
                "order": -1
            }
        ],
        "tidyTraceNodeCount": 2
    },
    "state_change": {
        "stateChanges": [
            {
                "address": "0xc00e94cb662c3520282e6f5717214004a7f26888",
                "erc": "ERC-20",
                "slots": [
                    {
                        "current": "0x0000000000000000000000000000000000000000000000000000000000000000",
                        "key": "0x7ae9b10392ac3026dc639a942da47acf5a2806fded3c8a3d9f36542ccc6b9542",
                        "prev": "0x00000000000000000000000000000000000000000000000000c3501949bb6400"
                    },
                    {
                        "current": "0x00000000000000000000000000000000000000000000000000c3501949bb6400",
                        "key": "0x008470bf1ea0ff4ccc7d28b813ac9b27157f0499e1e801b16e1aa58654300f76",
                        "prev": "0x0000000000000000000000000000000000000000000000000000000000000000"
                    }
                ],
                "storageVariables": [
                    {
                        "name": "balances",
                        "type": "mapping(address => uint96)",
                        "value": {
                            "pairs": [
                                {
                                    "key": "0x1a5b87ad868b04a270ba5f4741e943e33ea6b096",
                                    "value": {
                                        "current": "54975690000000000",
                                        "prev": "0",
                                        "typeTag": 1
                                    }
                                },
                                {
                                    "key": "0x4daad90656c2e0b51290baaccdd46014cf5b1250",
                                    "value": {
                                        "current": "0",
                                        "prev": "54975690000000000",
                                        "typeTag": 1
                                    }
                                }
                            ],
                            "typeTag": 4
                        }
                    }
                ]
            }
        ]
    }
}