{
    "balance_change": {
        "balanceChanges": [
            {
                "account": "0x0681d8db095565fe8a346fa0277bffde9c0edbbf",
                "assets": [
                    {
                        "address": "0x86fa049857e0209aa7d9e616f7eb3b3b78ecfdb0",
                        "amount": "0.6",
                        "iconUrl": "",
                        "isERC1155": false,
                        "isERC721": false,
                        "sign": false,
                        "value": ""
                    }
                ]
            },
            {
                "account": "0xe38c733102fb7dbf536191bd09454f63001e3e40",
                "assets": [
                    {
                        "address": "0x86fa049857e0209aa7d9e616f7eb3b3b78ecfdb0",
                        "amount": "0.6",
                        "iconUrl": "",
                        "isERC1155": false,
                        "isERC721": false,
                        "sign": true,
                        "value": ""
                    }
                ]
            }
        ]
    },
    "profile": {
        "basic_info": {
            "baseFee": "",
            "blockNumber": 5439393,
            "callData": "0xa9059cbb000000000000000000000000e38c733102fb7dbf536191bd09454f63001e3e400000000000000000000000000000000000000000000000000853a0d2313c0000",
            "debugEnable": true,
            "errorInfo": "",
            "eventCount": 2,
            "feeRecipient": "0x52e44f279f4203dcf680395379e5f9990a69f13c",
            "formatValue": "0",
            "gasLimit": 81430,
            "gasPrice": "50",
            "gasUsed": 40715,
            "intTxnCount": 0,
            "internalRevert": false,
            "internalRevertMessage": "",
            "isContractCreation": false,
            "isFlashloan": false,
            "maxFee": "",
            "nonce": 537149,
            "overwritedBlockNumber": -1,
            "priorityFee": "",
            "receiver": "0x86fa049857e0209aa7d9e616f7eb3b3b78ecfdb0",
            "revertMessage": "",
            "sender": "0x0681d8db095565fe8a346fa0277bffde9c0edbbf",
            "simulationEnable": true,
            "sourceTxnHash": "0x53e7aea984902a536a0b03130e31a9c97c41f1f13b76c07fc7eaab9f0801986e",
            "status": true,
            "timestamp": "2018-04-14T13:51:31Z",
            "transactionFee": "0.00203575",
            "txnHash": "0x53e7aea984902a536a0b03130e31a9c97c41f1f13b76c07fc7eaab9f0801986e",
            "txnIndex": 62,
            "type": 0,
            "value": "0"
        },
        "fund_flow": [
            {
                "amount": "0.6",
                "from": "0x0681d8db095565fe8a346fa0277bffde9c0edbbf",
                "id": 1,
                "isERC1155": false,
                "isERC721": false,
                "isReverted": false,
                "order": 1,
                "to": "0xe38c733102fb7dbf536191bd09454f63001e3e40",
                "token": "0x86fa049857e0209aa7d9e616f7eb3b3b78ecfdb0"
            }
        ],
        "token_infos": [
            {
                "address": "0x86fa049857e0209aa7d9e616f7eb3b3b78ecfdb0",
                "decimals": 18
            },
            {
                "address": "0xc02aaa39b223fe8d0a0e5c4f27ead9083c756cc2",
                "decimals": 18
            },
            {
                "address": "0xeeeeeeeeeeeeeeeeeeeeeeeeeeeeeeeeeeeeeeee",
                "decimals": 18
            }
        ]
    },
    "address_label": {
        "labels": [
            {
                "address": "0xe38c733102fb7dbf536191bd09454f63001e3e40",
                "label": "GATE.IO"
            },
            {
                "address": "0x0000000000000000000000000000000000000001",
                "label": "Precompiled"
            },
            {
                "address": "0x0000000000000000000000000000000000000002",
                "label": "Precompiled"
            },
            {
                "address": "0x0000000000000000000000000000000000000003",
                "label": "Precompiled"
            },
            {
                "address": "0x0000000000000000000000000000000000000004",
                "label": "Precompiled"
            },
            {
                "address": "0xeeeeeeeeeeeeeeeeeeeeeeeeeeeeeeeeeeeeeeee",
                "label": "Ether"
            },
            {
                "address": "0x0681d8db095565fe8a346fa0277bffde9c0edbbf",
                "label": "Binance 4"
            },
            {
                "address": "0x86fa049857e0209aa7d9e616f7eb3b3b78ecfdb0",
                "label": "EOS: Old Token"
            }
        ]
    },
    "trace": {
        "accountLabels": null,
        "dataMap": {
            "-1": {
                "invocation": {
                    "address": "0x0681d8db095565fe8a346fa0277bffde9c0edbbf",
                    "callData": "",
                    "decodedMethod": null,
                    "errorInfo": "",
                    "fromAddress": "",
                    "gasUsed": 0,
                    "id": -1,
                    "methodDecoded": false,
                    "operation": "",
                    "output": "",
                    "revert": false,
                    "revertMessage": "",
                    "selector": "",
                    "status": false,
                    "value": ""
                },
                "nodeType": 0
            },
            "0": {
                "invocation": {
                    "address": "0x86fa049857e0209aa7d9e616f7eb3b3b78ecfdb0",
                    "callData": "0x000000000000000000000000e38c733102fb7dbf536191bd09454f63001e3e400000000000000000000000000000000000000000000000000853a0d2313c0000",
                    "decodedMethod": {
                        "callParams": [
                            {
                                "name": "dst",
                                "type": "address",
                                "value": "0xe38c733102fb7dbf536191bd09454f63001e3e40"
                            },
                            {
                                "decimalAvailable": true,
                                "name": "wad",
                                "type": "uint256",
                                "value": "600,000,000,000,000,000"
                            }
                        ],
                        "constructorArguments": "",
                        "name": "transfer",
                        "returnParams": [
                            {
                                "name": "",
                                "type": "bool",
                                "value": true
                            }
                        ],
                        "signature": "transfer(address,uint256)"
                    },
                    "errorInfo": "",
                    "fromAddress": "0x0681d8db095565fe8a346fa0277bffde9c0edbbf",
                    "gasUsed": 40715,
                    "id": 0,
                    "methodDecoded": true,
                    "operation": "CALL",
                    "output": "0x0000000000000000000000000000000000000000000000000000000000000001",
                    "revert": false,
                    "revertMessage": "",
                    "selector": "0xa9059cbb",
                    "status": true,
                    "value": "0"
                },
                "nodeType": 0
            },
            "1": {
                "event": {
                    "contract": "0x86fa049857e0209aa7d9e616f7eb3b3b78ecfdb0",
                    "decodedLog": null,
                    "id": 1,
                    "logData": "0x000000000000000000000000000000000000000000000000000000000000000000000000000000000000000000000000000000000000000000000000000000400000000000000000000000000000000000000000000000000000000000000044a9059cbb000000000000000000000000e38c733102fb7dbf536191bd09454f63001e3e400000000000000000000000000000000000000000000000000853a0d2313c0000",
                    "logDecoded": false,
                    "operation": "EVENT",
                    "revert": false,
                    "status": true,
                    "topics": [
                        "0xa9059cbb00000000000000000000000000000000000000000000000000000000",
                        "0x0000000000000000000000000681d8db095565fe8a346fa0277bffde9c0edbbf",
                        "0x000000000000000000000000e38c733102fb7dbf536191bd09454f63001e3e40",
                        "0x0000000000000000000000000000000000000000000000000853a0d2313c0000"
                    ]
                },
                "nodeType": 1
            },
            "2": {
                "event": {
                    "contract": "0x86fa049857e0209aa7d9e616f7eb3b3b78ecfdb0",
                    "decodedLog": {
                        "name": "Transfer",
                        "params": [
                            {
                                "name": "from",
                                "type": "address",
                                "value": "0x0681d8db095565fe8a346fa0277bffde9c0edbbf"
                            },
                            {
                                "name": "to",
                                "type": "address",
                                "value": "0xe38c733102fb7dbf536191bd09454f63001e3e40"
                            },
                            {
                                "decimalAvailable": true,
                                "name": "value",
                                "type": "uint256",
                                "value": "600,000,000,000,000,000"
                            }
                        ],
                        "signature": "Transfer(address,address,uint256)"
                    },
                    "id": 2,
                    "logData": "0x0000000000000000000000000000000000000000000000000853a0d2313c0000",
                    "logDecoded": true,
                    "operation": "EVENT",
                    "revert": false,
                    "status": true,
                    "topics": [
                        "0xddf252ad1be2c89b69c2b068fc378daa952ba7f163c4a11628f55a4df523b3ef",
                        "0x0000000000000000000000000681d8db095565fe8a346fa0277bffde9c0edbbf",
                        "0x000000000000000000000000e38c733102fb7dbf536191bd09454f63001e3e40"
                    ]
                },
                "nodeType": 1
            }
        },
        "gasFlame": [
            {
                "children": [
                    {
                        "children": [
                            {
                                "children": [],
                                "depth": 0,
                                "name": "Initial Gas",
                                "value": 23128
                            },
                            {
                                "children": [],
                                "depth": 0,
                                "name": "Executed Gas",
                                "value": 17587
                            }
                        ],
                        "depth": -1,
                        "name": "Actual Gas Used",
                        "value": 40715
                    },
                    {
                        "children": [],
                        "depth": -1,
                        "name": "Refunded Gas",
                        "value": 0
                    }
                ],
                "depth": -2,
                "name": "Total Gas",
                "value": 40715
            }
        ],
        "isConfirmed": true,
        "mainTrace": [
            {
                "children": [
                    {
                        "children": [
                            {
                                "children": [],
                                "depth": 1,
                                "id": 1,
                                "order": 1
                            },
                            {
                                "children": [],
                                "depth": 1,
                                "id": 2,
                                "order": 2
                            }
                        ],
                        "depth": 0,
                        "id": 0,
                        "order": 0
                    }
                ],
                "depth": -1,
                "id": -1,
                "order": -1
            }
        ],
        "mainTraceNodeCount": 3,
        "parentIdMap": {
            "0": -1,
            "1": 0,
            "2": 0
        },
        "tidyTrace": [
            {
                "children": [
                    {
                        "children": [
                            {
                                "children": [],
                                "depth": 1,
                                "id": 1,
                                "order": 1
                            },
                            {
                                "children": [],
                                "depth": 1,
                                "id": 2,
                                "order": 2
                            }
                        ],
                        "depth": 0,
                        "id": 0,
                        "order": 0
                    }
                ],
                "depth": -1,
                "id": -1,
                "order": -1
            }
        ],
        "tidyTraceNodeCount": 3
    },
    "state_change": {
        "stateChanges": [
            {
                "address": "0x86fa049857e0209aa7d9e616f7eb3b3b78ecfdb0",
                "erc": "ERC-20",
                "slots": [
                    {
                        "current": "0x00000000000000000000000000000000000000000000612ea82ab57587069400",
                        "key": "0x3ac278e99f6803d9ce8fed46cf412a32f546b1d54ba1b17613d1603377058582",
                        "prev": "0x00000000000000000000000000000000000000000000612eb07e5647b8429400"
                    },
                    {
                        "current": "0x0000000000000000000000000000000000000000000000000853a0e979b2e800",
                        "key": "0x86dc56cc1c32b029f1a33fed2dde3c1438dbd0a60b93c74e8913653e40681982",
                        "prev": "0x000000000000000000000000000000000000000000000000000000174876e800"
                    }
                ],
                "storageVariables": []
            }
        ]
    }
}