{
    "balance_change": {
        "balanceChanges": [
            {
                "account": "0x48ec5560bfd59b95859965cce48cc244cfdf6b0c",
                "assets": [
                    {
                        "address": "0xeeeeeeeeeeeeeeeeeeeeeeeeeeeeeeeeeeeeeeee",
                        "amount": "0.069",
                        "iconUrl": "https://assets.blocksec.com/image/1663669189317-3.png",
                        "isERC1155": false,
                        "isERC721": false,
                        "sign": false,
                        "value": "140.82624000000000251"
                    }
                ]
            },
            {
                "account": "0xcfc0f98f30742b6d880f90155d4ebb885e55ab33",
                "assets": [
                    {
                        "address": "0xeeeeeeeeeeeeeeeeeeeeeeeeeeeeeeeeeeeeeeee",
                        "amount": "0.069",
                        "iconUrl": "https://assets.blocksec.com/image/1663669189317-3.png",
                        "isERC1155": false,
                        "isERC721": false,
                        "sign": true,
                        "value": "140.82624000000000251"
                    }
                ]
            }
        ]
    },
    "profile": {
        "basic_info": {
            "baseFee": "45.824902524",
            "blockNumber": 18685700,
            "callData": "0x39125215000000000000000000000000a2afbedf7e5c8bf94ee7a4f7912359104c18688100000000000000000000000000000000000000000000000000f523226980800000000000000000000000000000000000000000000000000000000000000000c0000000000000000000000000000000000000000000000000000000006571f6df0000000000000000000000000000000000000000000000000000000000024a6800000000000000000000000000000000000000000000000000000000000000e0000000000000000000000000000000000000000000000000000000000000000000000000000000000000000000000000000000000000000000000000000000413d2932e022db0c7670dcafa60bf3aa9daba97599269f43829937bef1a69fa49f5d9163a82e75b5f3d3cf88c99559da8bc6ed8de76d53abca1a594e411e3261911c00000000000000000000000000000000000000000000000000000000000000",
            "debugEnable": true,
            "errorInfo": "",
            "eventCount": 2,
            "feeRecipient": "0x4838b106fce9647bdf1e7877bf73ce8b0bad5f97",
            "formatValue": "0",
            "gasLimit": 173679,
            "gasPrice": "46.974902524",
            "gasUsed": 102505,
            "intTxnCount": 5,
            "internalRevert": false,
            "internalRevertMessage": "",
            "isContractCreation": false,
            "isFlashloan": false,
            "maxFee": "98.300596896",
            "nonce": 153257,
            "overwritedBlockNumber": -1,
            "priorityFee": "1.15",
            "receiver": "0x48ec5560bfd59b95859965cce48cc244cfdf6b0c",
            "revertMessage": "",
            "sender": "0x538d72ded42a76a30f730292da939e0577f22f57",
            "simulationEnable": true,
            "sourceTxnHash": "0x531517f5685a3346df365a9ad537eadbc2e88a993bc40890adcd765fe0aa45c0",
            "status": true,
            "timestamp": "2023-11-30T16:46:47Z",
            "transactionFee": "0.00481516238322262",
            "txnHash": "0x531517f5685a3346df365a9ad537eadbc2e88a993bc40890adcd765fe0aa45c0",
            "txnIndex": 67,
            "type": 2,
            "value": "0"
        },
        "fund_flow": [
            {
                "amount": "0.069",
                "from": "0x48ec5560bfd59b95859965cce48cc244cfdf6b0c",
                "id": 1,
                "isERC1155": false,
                "isERC721": false,
                "isReverted": false,
                "order": 1,
                "to": "0xa2afbedf7e5c8bf94ee7a4f7912359104c186881",
                "token": "0xeeeeeeeeeeeeeeeeeeeeeeeeeeeeeeeeeeeeeeee"
            },
            {
                "amount": "0.069",
                "from": "0xa2afbedf7e5c8bf94ee7a4f7912359104c186881",
                "id": 2,
                "isERC1155": false,
                "isERC721": false,
                "isReverted": false,
                "order": 2,
                "to": "0xcfc0f98f30742b6d880f90155d4ebb885e55ab33",
                "token": "0xeeeeeeeeeeeeeeeeeeeeeeeeeeeeeeeeeeeeeeee"
            }
        ],
        "token_infos": [
            {
                "address": "0xc02aaa39b223fe8d0a0e5c4f27ead9083c756cc2",
                "decimals": 18
            },
            {
                "address": "0xeeeeeeeeeeeeeeeeeeeeeeeeeeeeeeeeeeeeeeee",
                "decimals": 18
            }
        ]
    },
    "address_label": {
        "labels": [
            {
                "address": "0x0000000000000000000000000000000000000003",
                "label": "Precompiled"
            },
            {
                "address": "0x0000000000000000000000000000000000000004",
                "label": "Precompiled"
            },
            {
                "address": "0xeeeeeeeeeeeeeeeeeeeeeeeeeeeeeeeeeeeeeeee",
                "label": "Ether"
            },
            {
                "address": "0x48ec5560bfd59b95859965cce48cc244cfdf6b0c",
                "label": "Bitstamp: Wallet"
            },
            {
                "address": "0xe8e847cf573fc8ed75621660a36affd18c543d7e",
                "label": "WalletSimple"
            },
            {
                "address": "0x538d72ded42a76a30f730292da939e0577f22f57",
                "label": "Bitstamp: Deployer"
            },
            {
                "address": "0x0000000000000000000000000000000000000001",
                "label": "Precompiled"
            },
            {
                "address": "0x0000000000000000000000000000000000000002",
                "label": "Precompiled"
            }
        ]
    },
    "trace": {
        "accountLabels": null,
        "dataMap": {
            "-1": {
                "invocation": {
                    "address": "0x538d72ded42a76a30f730292da939e0577f22f57",
                    "callData": "",
                    "decodedMethod": null,
                    "errorInfo": "",
                    "fromAddress": "",
                    "gasUsed": 0,
                    "id": -1,
                    "methodDecoded": false,
                    "operation": "",
                    "output": "",
                    "revert": false,
                    "revertMessage": "",
                    "selector": "",
                    "status": false,
                    "value": ""
                },
                "nodeType": 0
            },
            "0": {
                "invocation": {
                    "address": "0x48ec5560bfd59b95859965cce48cc244cfdf6b0c",
                    "callData": "0x000000000000000000000000a2afbedf7e5c8bf94ee7a4f7912359104c18688100000000000000000000000000000000000000000000000000f523226980800000000000000000000000000000000000000000000000000000000000000000c0000000000000000000000000000000000000000000000000000000006571f6df0000000000000000000000000000000000000000000000000000000000024a6800000000000000000000000000000000000000000000000000000000000000e0000000000000000000000000000000000000000000000000000000000000000000000000000000000000000000000000000000000000000000000000000000413d2932e022db0c7670dcafa60bf3aa9daba97599269f43829937bef1a69fa49f5d9163a82e75b5f3d3cf88c99559da8bc6ed8de76d53abca1a594e411e3261911c00000000000000000000000000000000000000000000000000000000000000",
                    "decodedMethod": {
                        "callParams": [
                            {
                                "name": "toAddress",
                                "type": "address",
                                "value": "0xa2afbedf7e5c8bf94ee7a4f7912359104c186881"
                            },
                            {
                                "name": "value",
                                "type": "uint256",
                                "value": "69,000,000,000,000,000"
                            },
                            {
                                "name": "data",
                                "type": "bytes",
                                "value": "0x"
                            },
                            {
                                "name": "expireTime",
                                "type": "uint256",
                                "value": "1,701,967,583"
                            },
                            {
                                "name": "sequenceId",
                                "type": "uint256",
                                "value": "150,120"
                            },
                            {
                                "name": "signature",
                                "type": "bytes",
                                "value": "0x3d2932e022db0c7670dcafa60bf3aa9daba97599269f43829937bef1a69fa49f5d9163a82e75b5f3d3cf88c99559da8bc6ed8de76d53abca1a594e411e3261911c"
                            }
                        ],
                        "constructorArguments": "",
                        "name": "sendMultiSig",
                        "returnParams": [],
                        "signature": "sendMultiSig(address,uint256,bytes,uint256,uint256,bytes)"
                    },
                    "errorInfo": "",
                    "fromAddress": "0x538d72ded42a76a30f730292da939e0577f22f57",
                    "gasUsed": 102505,
                    "id": 0,
                    "methodDecoded": true,
                    "operation": "CALL",
                    "output": "",
                    "revert": false,
                    "revertMessage": "",
                    "selector": "0x39125215",
                    "status": true,
                    "value": "0"
                },
                "nodeType": 0
            },
            "1": {
                "invocation": {
                    "address": "0xe8e847cf573fc8ed75621660a36affd18c543d7e",
                    "callData": "0x000000000000000000000000a2afbedf7e5c8bf94ee7a4f7912359104c18688100000000000000000000000000000000000000000000000000f523226980800000000000000000000000000000000000000000000000000000000000000000c0000000000000000000000000000000000000000000000000000000006571f6df0000000000000000000000000000000000000000000000000000000000024a6800000000000000000000000000000000000000000000000000000000000000e0000000000000000000000000000000000000000000000000000000000000000000000000000000000000000000000000000000000000000000000000000000413d2932e022db0c7670dcafa60bf3aa9daba97599269f43829937bef1a69fa49f5d9163a82e75b5f3d3cf88c99559da8bc6ed8de76d53abca1a594e411e3261911c00000000000000000000000000000000000000000000000000000000000000",
                    "decodedMethod": {
                        "callParams": [
                            {
                                "name": "toAddress",
                                "type": "address",
                                "value": "0xa2afbedf7e5c8bf94ee7a4f7912359104c186881"
                            },
                            {
                                "name": "value",
                                "type": "uint256",
                                "value": "69,000,000,000,000,000"
                            },
                            {
                                "name": "data",
                                "type": "bytes",
                                "value": "0x"
                            },
                            {
                                "name": "expireTime",
                                "type": "uint256",
                                "value": "1,701,967,583"
                            },
                            {
                                "name": "sequenceId",
                                "type": "uint256",
                                "value": "150,120"
                            },
                            {
                                "name": "signature",
                                "type": "bytes",
                                "value": "0x3d2932e022db0c7670dcafa60bf3aa9daba97599269f43829937bef1a69fa49f5d9163a82e75b5f3d3cf88c99559da8bc6ed8de76d53abca1a594e411e3261911c"
                            }
                        ],
                        "constructorArguments": "",
                        "name": "sendMultiSig",
                        "returnParams": [],
                        "signature": "sendMultiSig(address,uint256,bytes,uint256,uint256,bytes)"
                    },
                    "errorInfo": "",
                    "fromAddress": "0x48ec5560bfd59b95859965cce48cc244cfdf6b0c",
                    "gasUsed": 76092,
                    "id": 1,
                    "methodDecoded": true,
                    "operation": "DELEGATECALL",
                    "output": "",
                    "revert": false,
                    "revertMessage": "",
                    "selector": "0x39125215",
                    "status": true,
                    "value": "0"
                },
                "nodeType": 0
            },
            "2": {
                "invocation": {
                    "address": "0x0000000000000000000000000000000000000001",
                    "callData": "0x51ddbe54a94011e4a2f1aa1308077c4e3858781575fa5f270a711e97000000000000000000000000000000000000000000000000000000000000001c3d2932e022db0c7670dcafa60bf3aa9daba97599269f43829937bef1a69fa49f5d9163a82e75b5f3d3cf88c99559da8bc6ed8de76d53abca1a594e411e326191",
                    "decodedMethod": {
                        "callParams": [
                            {
                                "name": "hash",
                                "type": "bytes32",
                                "value": "0xf59fd5b551ddbe54a94011e4a2f1aa1308077c4e3858781575fa5f270a711e97"
                            },
                            {
                                "name": "v",
                                "type": "uint256",
                                "value": "28"
                            },
                            {
                                "name": "r",
                                "type": "bytes32",
                                "value": "0x3d2932e022db0c7670dcafa60bf3aa9daba97599269f43829937bef1a69fa49f"
                            },
                            {
                                "name": "s",
                                "type": "bytes32",
                                "value": "0x5d9163a82e75b5f3d3cf88c99559da8bc6ed8de76d53abca1a594e411e326191"
                            }
                        ],
                        "constructorArguments": "",
                        "name": "ecrecover",
                        "returnParams": [
                            {
                                "name": "",
                                "type": "address",
                                "value": "0x7e06ec2471f9fa456d30f854b45567efbb70c85e"
                            }
                        ],
                        "signature": "ecrecover(bytes32,uint256,bytes32,bytes32)"
                    },
                    "errorInfo": "",
                    "fromAddress": "0x48ec5560bfd59b95859965cce48cc244cfdf6b0c",
                    "gasUsed": 3000,
                    "id": 2,
                    "methodDecoded": true,
                    "operation": "STATICCALL",
                    "output": "0x0000000000000000000000007e06ec2471f9fa456d30f854b45567efbb70c85e",
                    "revert": false,
                    "revertMessage": "",
                    "selector": "0xf59fd5b5",
                    "status": true,
                    "value": "0"
                },
                "nodeType": 0
            },
            "3": {
                "invocation": {
                    "address": "0xa2afbedf7e5c8bf94ee7a4f7912359104c186881",
                    "callData": "0x",
                    "decodedMethod": null,
                    "errorInfo": "",
                    "fromAddress": "0x48ec5560bfd59b95859965cce48cc244cfdf6b0c",
                    "gasUsed": 24275,
                    "id": 3,
                    "methodDecoded": false,
                    "operation": "CALL",
                    "output": "",
                    "revert": false,
                    "revertMessage": "",
                    "selector": "fallback",
                    "status": true,
                    "value": "0.069"
                },
                "nodeType": 0
            },
            "4": {
                "invocation": {
                    "address": "0x8b747774fc95b5e9cc910255fca928e00583e418",
                    "callData": "0x",
                    "decodedMethod": null,
                    "errorInfo": "",
                    "fromAddress": "0xa2afbedf7e5c8bf94ee7a4f7912359104c186881",
                    "gasUsed": 19256,
                    "id": 4,
                    "methodDecoded": false,
                    "operation": "DELEGATECALL",
                    "output": "",
                    "revert": false,
                    "revertMessage": "",
                    "selector": "fallback",
                    "status": true,
                    "value": "0.069"
                },
                "nodeType": 0
            },
            "5": {
                "invocation": {
                    "address": "0xcfc0f98f30742b6d880f90155d4ebb885e55ab33",
                    "callData": "0x",
                    "decodedMethod": null,
                    "errorInfo": "",
                    "fromAddress": "0xa2afbedf7e5c8bf94ee7a4f7912359104c186881",
                    "gasUsed": 0,
                    "id": 5,
                    "methodDecoded": false,
                    "operation": "CALL",
                    "output": "",
                    "revert": false,
                    "revertMessage": "",
                    "selector": "fallback",
                    "status": true,
                    "value": "0.069"
                },
                "nodeType": 0
            },
            "6": {
                "event": {
                    "contract": "0xa2afbedf7e5c8bf94ee7a4f7912359104c186881",
                    "decodedLog": {
                        "name": "ForwarderDeposited",
                        "params": [
                            {
                                "name": "from",
                                "type": "address",
                                "value": "0x48ec5560bfd59b95859965cce48cc244cfdf6b0c"
                            },
                            {
                                "name": "value",
                                "type": "uint256",
                                "value": "69,000,000,000,000,000"
                            },
                            {
                                "name": "data",
                                "type": "bytes",
                                "value": "0x"
                            }
                        ],
                        "signature": "ForwarderDeposited(address,uint256,bytes)"
                    },
                    "id": 6,
                    "logData": "0x00000000000000000000000048ec5560bfd59b95859965cce48cc244cfdf6b0c00000000000000000000000000000000000000000000000000f523226980800000000000000000000000000000000000000000000000000000000000000000600000000000000000000000000000000000000000000000000000000000000000",
                    "logDecoded": true,
                    "operation": "EVENT",
                    "revert": false,
                    "status": true,
                    "topics": [
                        "0x69b31548dea9b3b707b4dff357d326e3e9348b24e7a6080a218a6edeeec48f9b"
                    ]
                },
                "nodeType": 1
            },
            "7": {
                "event": {
                    "contract": "0x48ec5560bfd59b95859965cce48cc244cfdf6b0c",
                    "decodedLog": {
                        "name": "Transacted",
                        "params": [
                            {
                                "name": "msgSender",
                                "type": "address",
                                "value": "0x538d72ded42a76a30f730292da939e0577f22f57"
                            },
                            {
                                "name": "otherSigner",
                                "type": "address",
                                "value": "0x7e06ec2471f9fa456d30f854b45567efbb70c85e"
                            },
                            {
                                "name": "operation",
                                "type": "bytes32",
                                "value": "0xf59fd5b551ddbe54a94011e4a2f1aa1308077c4e3858781575fa5f270a711e97"
                            },
                            {
                                "name": "toAddress",
                                "type": "address",
                                "value": "0xa2afbedf7e5c8bf94ee7a4f7912359104c186881"
                            },
                            {
                                "name": "value",
                                "type": "uint256",
                                "value": "69,000,000,000,000,000"
                            },
                            {
                                "name": "data",
                                "type": "bytes",
                                "value": "0x"
                            }
                        ],
                        "signature": "Transacted(address,address,bytes32,address,uint256,bytes)"
                    },
                    "id": 7,
                    "logData": "0x000000000000000000000000538d72ded42a76a30f730292da939e0577f22f570000000000000000000000007e06ec2471f9fa456d30f854b45567efbb70c85ef59fd5b551ddbe54a94011e4a2f1aa1308077c4e3858781575fa5f270a711e97000000000000000000000000a2afbedf7e5c8bf94ee7a4f7912359104c18688100000000000000000000000000000000000000000000000000f523226980800000000000000000000000000000000000000000000000000000000000000000c00000000000000000000000000000000000000000000000000000000000000000",
                    "logDecoded": true,
                    "operation": "EVENT",
                    "revert": false,
                    "status": true,
                    "topics": [
                        "0x59bed9ab5d78073465dd642a9e3e76dfdb7d53bcae9d09df7d0b8f5234d5a806"
                    ]
                },
                "nodeType": 1
            }
        },
        "gasFlame": [
            {
                "children": [
                    {
                        "children": [
                            {
                                "children": [],
                                "depth": 0,
                                "name": "Initial Gas",
                                "value": 23684
                            },
                            {
                                "children": [
                                    {
                                        "children": [
                                            {
                                                "children": [],
                                                "depth": 2,
                                                "name": "ecrecover",
                                                "value": 3000
                                            },
                                            {
                                                "children": [
                                                    {
                                                        "children": [
                                                            {
                                                                "children": [],
                                                                "depth": 4,
                                                                "name": "fallback",
                                                                "value": 0
                                                            }
                                                        ],
                                                        "depth": 3,
                                                        "name": "fallback",
                                                        "value": 19256
                                                    }
                                                ],
                                                "depth": 2,
                                                "name": "fallback",
                                                "value": 24275
                                            }
                                        ],
                                        "depth": 1,
                                        "name": "sendMultiSig",
                                        "value": 76092
                                    }
                                ],
                                "depth": 0,
                                "name": "Executed Gas",
                                "value": 78821
                            }
                        ],
                        "depth": -1,
                        "name": "Actual Gas Used",
                        "value": 102505
                    },
                    {
                        "children": [],
                        "depth": -1,
                        "name": "Refunded Gas",
                        "value": 0
                    }
                ],
                "depth": -2,
                "name": "Total Gas",
                "value": 102505
            }
        ],
        "isConfirmed": true,
        "mainTrace": [
            {
                "children": [
                    {
                        "children": [
                            {
                                "children": [
                                    {
                                        "children": [],
                                        "depth": 2,
                                        "id": 2,
                                        "order": 2
                                    },
                                    {
                                        "children": [
                                            {
                                                "children": [
                                                    {
                                                        "children": [],
                                                        "depth": 4,
                                                        "id": 5,
                                                        "order": 5
                                                    },
                                                    {
                                                        "children": [],
                                                        "depth": 4,
                                                        "id": 6,
                                                        "order": 6
                                                    }
                                                ],
                                                "depth": 3,
                                                "id": 4,
                                                "order": 4
                                            }
                                        ],
                                        "depth": 2,
                                        "id": 3,
                                        "order": 3
                                    },
                                    {
                                        "children": [],
                                        "depth": 2,
                                        "id": 7,
                                        "order": 7
                                    }
                                ],
                                "depth": 1,
                                "id": 1,
                                "order": 1
                            }
                        ],
                        "depth": 0,
                        "id": 0,
                        "order": 0
                    }
                ],
                "depth": -1,
                "id": -1,
                "order": -1
            }
        ],
        "mainTraceNodeCount": 8,
        "parentIdMap": {
            "0": -1,
            "1": 0,
            "2": 1,
            "3": 1,
            "4": 3,
            "5": 4,
            "6": 4,
            "7": 1
        },
        "tidyTrace": [
            {
                "children": [
                    {
                        "children": [
                            {
                                "children": [
                                    {
                                        "children": [
                                            {
                                                "children": [
                                                    {
                                                        "children": [],
                                                        "depth": 4,
                                                        "id": 5,
                                                        "order": 5
                                                    },
                                                    {
                                                        "children": [],
                                                        "depth": 4,
                                                        "id": 6,
                                                        "order": 6
                                                    }
                                                ],
                                                "depth": 3,
                                                "id": 4,
                                                "order": 4
                                            }
                                        ],
                                        "depth": 2,
                                        "id": 3,
                                        "order": 3
                                    },
                                    {
                                        "children": [],
                                        "depth": 2,
                                        "id": 7,
                                        "order": 7
                                    }
                                ],
                                "depth": 1,
                                "id": 1,
                                "order": 1
                            }
                        ],
                        "depth": 0,
                        "id": 0,
                        "order": 0
                    }
                ],
                "depth": -1,
                "id": -1,
                "order": -1
            }
        ],
        "tidyTraceNodeCount": 7
    },
    "state_change": {
        "stateChanges": [
            {
                "address": "0x48ec5560bfd59b95859965cce48cc244cfdf6b0c",
                "erc": "",
                "slots": [
                    {
                        "current": "0x0000000000000000000000000000000000000000000000000000000000024a68",
                        "key": "0x000000000000000000000000000000000000000000000000000000000000000a",
                        "prev": "0x0000000000000000000000000000000000000000000000000000000000024a5e"
                    }
                ],
                "storageVariables": []
            }
        ]
    }
}