{
    "balance_change": {
        "balanceChanges": []
    },
    "profile": {
        "basic_info": {
            "baseFee": "44.683759175",
            "blockNumber": 14314944,
            "callData": "0x7120d521000000000000000000000000000000000000000000000000000000000000000100000000000000000000000000000000000000000000000000000000000000400000000000000000000000000000000000000000000000000000000000000003000000000000000000000000000000000000000000000000000000000000000000000000000000000000000000000000000000000000000000000000000000030000000000000000000000000000000000000000000000000000000000000005",
            "debugEnable": true,
            "errorInfo": "",
            "eventCount": 5,
            "feeRecipient": "0x1ad91ee08f21be3de0ba2ba6918e714da6b45836",
            "formatValue": "0",
            "gasLimit": 281850,
            "gasPrice": "47.183759175",
            "gasUsed": 234875,
            "intTxnCount": 5,
            "internalRevert": false,
            "internalRevertMessage": "",
            "isContractCreation": false,
            "isFlashloan": false,
            "maxFee": "70",
            "nonce": 3250,
            "overwritedBlockNumber": -1,
            "priorityFee": "2.5",
            "receiver": "0x2e32bad45a1c29c1ea27cf4dd588df9e68ed376c",
            "revertMessage": "",
            "sender": "0x632a84dc35a1e43b8196b2d08630dc9e6a1f3692",
            "simulationEnable": true,
            "sourceTxnHash": "0x53585f1a34a3acd6fc69affa42ccafdad4f67cb4ee63696472d5e7e33978d8c6",
            "status": true,
            "timestamp": "2022-03-03T15:55:25Z",
            "transactionFee": "0.011082285436228125",
            "txnHash": "0x53585f1a34a3acd6fc69affa42ccafdad4f67cb4ee63696472d5e7e33978d8c6",
            "txnIndex": 88,
            "type": 2,
            "value": "0"
        },
        "fund_flow": [],
        "token_infos": [
            {
                "address": "0xc02aaa39b223fe8d0a0e5c4f27ead9083c756cc2",
                "decimals": 18
            },
            {
                "address": "0xeeeeeeeeeeeeeeeeeeeeeeeeeeeeeeeeeeeeeeee",
                "decimals": 18
            }
        ]
    },
    "address_label": {
        "labels": [
            {
                "address": "0x3adb04e127b9c0a5d36094125669d4603ac52a0c",
                "label": "Gro: GVT Token"
            },
            {
                "address": "0x3ec8798b81485a254928b70cda1cf0a2bb0b74d7",
                "label": "Gro: GRO Token"
            },
            {
                "address": "0x2e32bad45a1c29c1ea27cf4dd588df9e68ed376c",
                "label": "LPTokenStaker"
            },
            {
                "address": "0x0000000000000000000000000000000000000001",
                "label": "Precompiled"
            },
            {
                "address": "0xeeeeeeeeeeeeeeeeeeeeeeeeeeeeeeeeeeeeeeee",
                "label": "Ether"
            },
            {
                "address": "0x748218256afe0a19a88ebeb2e0c5ce86d2178360",
                "label": "0x7482_GROVesting"
            },
            {
                "address": "0x702605f43471183158938c1a3e5f5a359d7b31ba",
                "label": "Balancer 80 GRO 20 WETH (B-80BAL-2...)"
            },
            {
                "address": "0xa28693bf01dc261887b238646bb9636cb3a3730b",
                "label": "0xa286_GROVesting"
            },
            {
                "address": "0x0000000000000000000000000000000000000002",
                "label": "Precompiled"
            },
            {
                "address": "0x0000000000000000000000000000000000000003",
                "label": "Precompiled"
            },
            {
                "address": "0x0000000000000000000000000000000000000004",
                "label": "Precompiled"
            }
        ]
    },
    "trace": {
        "accountLabels": null,
        "dataMap": {
            "-1": {
                "invocation": {
                    "address": "0x632a84dc35a1e43b8196b2d08630dc9e6a1f3692",
                    "callData": "",
                    "decodedMethod": null,
                    "errorInfo": "",
                    "fromAddress": "",
                    "gasUsed": 0,
                    "id": -1,
                    "methodDecoded": false,
                    "operation": "",
                    "output": "",
                    "revert": false,
                    "revertMessage": "",
                    "selector": "",
                    "status": false,
                    "value": ""
                },
                "nodeType": 0
            },
            "0": {
                "invocation": {
                    "address": "0x2e32bad45a1c29c1ea27cf4dd588df9e68ed376c",
                    "callData": "0x000000000000000000000000000000000000000000000000000000000000000100000000000000000000000000000000000000000000000000000000000000400000000000000000000000000000000000000000000000000000000000000003000000000000000000000000000000000000000000000000000000000000000000000000000000000000000000000000000000000000000000000000000000030000000000000000000000000000000000000000000000000000000000000005",
                    "decodedMethod": {
                        "callParams": [
                            {
                                "name": "vest",
                                "type": "bool",
                                "value": true
                            },
                            {
                                "name": "pids",
                                "type": "uint256[]",
                                "value": [
                                    "0",
                                    "3",
                                    "5"
                                ]
                            }
                        ],
                        "constructorArguments": "",
                        "name": "multiClaim",
                        "returnParams": [],
                        "signature": "multiClaim(bool,uint256[])"
                    },
                    "errorInfo": "",
                    "fromAddress": "0x632a84dc35a1e43b8196b2d08630dc9e6a1f3692",
                    "gasUsed": 234875,
                    "id": 0,
                    "methodDecoded": true,
                    "operation": "CALL",
                    "output": "",
                    "revert": false,
                    "revertMessage": "",
                    "selector": "0x7120d521",
                    "status": true,
                    "value": "0"
                },
                "nodeType": 0
            },
            "1": {
                "invocation": {
                    "address": "0x3ec8798b81485a254928b70cda1cf0a2bb0b74d7",
                    "callData": "0x0000000000000000000000002e32bad45a1c29c1ea27cf4dd588df9e68ed376c",
                    "decodedMethod": {
                        "callParams": [
                            {
                                "name": "account",
                                "type": "address",
                                "value": "0x2e32bad45a1c29c1ea27cf4dd588df9e68ed376c"
                            }
                        ],
                        "constructorArguments": "",
                        "name": "balanceOf",
                        "returnParams": [
                            {
                                "decimalAvailable": true,
                                "name": "",
                                "type": "uint256",
                                "value": "791,666,770,614,286,616,332,513"
                            }
                        ],
                        "signature": "balanceOf(address)"
                    },
                    "errorInfo": "",
                    "fromAddress": "0x2e32bad45a1c29c1ea27cf4dd588df9e68ed376c",
                    "gasUsed": 2672,
                    "id": 1,
                    "methodDecoded": true,
                    "operation": "STATICCALL",
                    "output": "0x00000000000000000000000000000000000000000000a7a457750360b72388e1",
                    "revert": false,
                    "revertMessage": "",
                    "selector": "0x70a08231",
                    "status": true,
                    "value": "0"
                },
                "nodeType": 0
            },
            "10": {
                "event": {
                    "contract": "0x2e32bad45a1c29c1ea27cf4dd588df9e68ed376c",
                    "decodedLog": {
                        "name": "LogMultiClaim",
                        "params": [
                            {
                                "name": "user",
                                "type": "address",
                                "value": "0x632a84dc35a1e43b8196b2d08630dc9e6a1f3692"
                            },
                            {
                                "name": "vest",
                                "type": "bool",
                                "value": true
                            },
                            {
                                "name": "pids",
                                "type": "uint256[]",
                                "value": [
                                    "0",
                                    "3",
                                    "5"
                                ]
                            },
                            {
                                "name": "amount",
                                "type": "uint256",
                                "value": "3,001,837,563,888,675,743,763"
                            }
                        ],
                        "signature": "LogMultiClaim(address,bool,uint256[],uint256)"
                    },
                    "id": 10,
                    "logData": "0x000000000000000000000000000000000000000000000000000000000000000100000000000000000000000000000000000000000000000000000000000000600000000000000000000000000000000000000000000000a2badd5ff0907a68130000000000000000000000000000000000000000000000000000000000000003000000000000000000000000000000000000000000000000000000000000000000000000000000000000000000000000000000000000000000000000000000030000000000000000000000000000000000000000000000000000000000000005",
                    "logDecoded": true,
                    "operation": "EVENT",
                    "revert": false,
                    "status": true,
                    "topics": [
                        "0x31b47c5df8b5d578fcbc4cb58092fd5f39cc63f8de62bde2fb9c16b1f480e1b3",
                        "0x000000000000000000000000632a84dc35a1e43b8196b2d08630dc9e6a1f3692"
                    ]
                },
                "nodeType": 1
            },
            "2": {
                "event": {
                    "contract": "0x2e32bad45a1c29c1ea27cf4dd588df9e68ed376c",
                    "decodedLog": {
                        "name": "LogUpdatePool",
                        "params": [
                            {
                                "name": "pid",
                                "type": "uint256",
                                "value": "0"
                            },
                            {
                                "name": "lastRewardBlock",
                                "type": "uint256",
                                "value": "14,314,944"
                            },
                            {
                                "name": "lpSupply",
                                "type": "uint256",
                                "value": "791,666,770,614,286,616,332,513"
                            },
                            {
                                "name": "accGroPerShare",
                                "type": "uint256",
                                "value": "234,296,890,783"
                            }
                        ],
                        "signature": "LogUpdatePool(uint256,uint256,uint256,uint256)"
                    },
                    "id": 2,
                    "logData": "0x0000000000000000000000000000000000000000000000000000000000da6dc000000000000000000000000000000000000000000000a7a457750360b72388e1000000000000000000000000000000000000000000000000000000368d2ed59f",
                    "logDecoded": true,
                    "operation": "EVENT",
                    "revert": false,
                    "status": true,
                    "topics": [
                        "0xcb7325664a4a3b7c7223eefc492a97ca4fdf94d46884621e5a8fae5a04b2b9d2",
                        "0x0000000000000000000000000000000000000000000000000000000000000000"
                    ]
                },
                "nodeType": 1
            },
            "3": {
                "invocation": {
                    "address": "0x3adb04e127b9c0a5d36094125669d4603ac52a0c",
                    "callData": "0x0000000000000000000000002e32bad45a1c29c1ea27cf4dd588df9e68ed376c",
                    "decodedMethod": {
                        "callParams": [
                            {
                                "name": "account",
                                "type": "address",
                                "value": "0x2e32bad45a1c29c1ea27cf4dd588df9e68ed376c"
                            }
                        ],
                        "constructorArguments": "",
                        "name": "balanceOf",
                        "returnParams": [
                            {
                                "decimalAvailable": true,
                                "name": "",
                                "type": "uint256",
                                "value": "108,082,850,829,418,571,996,960"
                            }
                        ],
                        "signature": "balanceOf(address)"
                    },
                    "errorInfo": "",
                    "fromAddress": "0x2e32bad45a1c29c1ea27cf4dd588df9e68ed376c",
                    "gasUsed": 2561,
                    "id": 3,
                    "methodDecoded": true,
                    "operation": "STATICCALL",
                    "output": "0x0000000000000000000000000000000000000000000016e32ede95deb3f79f20",
                    "revert": false,
                    "revertMessage": "",
                    "selector": "0x70a08231",
                    "status": true,
                    "value": "0"
                },
                "nodeType": 0
            },
            "4": {
                "event": {
                    "contract": "0x2e32bad45a1c29c1ea27cf4dd588df9e68ed376c",
                    "decodedLog": {
                        "name": "LogUpdatePool",
                        "params": [
                            {
                                "name": "pid",
                                "type": "uint256",
                                "value": "3"
                            },
                            {
                                "name": "lastRewardBlock",
                                "type": "uint256",
                                "value": "14,314,944"
                            },
                            {
                                "name": "lpSupply",
                                "type": "uint256",
                                "value": "108,082,850,829,418,571,996,960"
                            },
                            {
                                "name": "accGroPerShare",
                                "type": "uint256",
                                "value": "9,478,726,882,702"
                            }
                        ],
                        "signature": "LogUpdatePool(uint256,uint256,uint256,uint256)"
                    },
                    "id": 4,
                    "logData": "0x0000000000000000000000000000000000000000000000000000000000da6dc00000000000000000000000000000000000000000000016e32ede95deb3f79f200000000000000000000000000000000000000000000000000000089ef026158e",
                    "logDecoded": true,
                    "operation": "EVENT",
                    "revert": false,
                    "status": true,
                    "topics": [
                        "0xcb7325664a4a3b7c7223eefc492a97ca4fdf94d46884621e5a8fae5a04b2b9d2",
                        "0x0000000000000000000000000000000000000000000000000000000000000003"
                    ]
                },
                "nodeType": 1
            },
            "5": {
                "invocation": {
                    "address": "0x702605f43471183158938c1a3e5f5a359d7b31ba",
                    "callData": "0x0000000000000000000000002e32bad45a1c29c1ea27cf4dd588df9e68ed376c",
                    "decodedMethod": {
                        "callParams": [
                            {
                                "name": "account",
                                "type": "address",
                                "value": "0x2e32bad45a1c29c1ea27cf4dd588df9e68ed376c"
                            }
                        ],
                        "constructorArguments": "",
                        "name": "balanceOf",
                        "returnParams": [
                            {
                                "decimalAvailable": true,
                                "name": "",
                                "type": "uint256",
                                "value": "62,734,501,201,014,518,753,975"
                            }
                        ],
                        "signature": "balanceOf(address)"
                    },
                    "errorInfo": "",
                    "fromAddress": "0x2e32bad45a1c29c1ea27cf4dd588df9e68ed376c",
                    "gasUsed": 2665,
                    "id": 5,
                    "methodDecoded": true,
                    "operation": "STATICCALL",
                    "output": "0x000000000000000000000000000000000000000000000d48d8188cb0aaecaab7",
                    "revert": false,
                    "revertMessage": "",
                    "selector": "0x70a08231",
                    "status": true,
                    "value": "0"
                },
                "nodeType": 0
            },
            "6": {
                "event": {
                    "contract": "0x2e32bad45a1c29c1ea27cf4dd588df9e68ed376c",
                    "decodedLog": {
                        "name": "LogUpdatePool",
                        "params": [
                            {
                                "name": "pid",
                                "type": "uint256",
                                "value": "5"
                            },
                            {
                                "name": "lastRewardBlock",
                                "type": "uint256",
                                "value": "14,314,944"
                            },
                            {
                                "name": "lpSupply",
                                "type": "uint256",
                                "value": "62,734,501,201,014,518,753,975"
                            },
                            {
                                "name": "accGroPerShare",
                                "type": "uint256",
                                "value": "1,778,376,991,747"
                            }
                        ],
                        "signature": "LogUpdatePool(uint256,uint256,uint256,uint256)"
                    },
                    "id": 6,
                    "logData": "0x0000000000000000000000000000000000000000000000000000000000da6dc0000000000000000000000000000000000000000000000d48d8188cb0aaecaab70000000000000000000000000000000000000000000000000000019e0f876403",
                    "logDecoded": true,
                    "operation": "EVENT",
                    "revert": false,
                    "status": true,
                    "topics": [
                        "0xcb7325664a4a3b7c7223eefc492a97ca4fdf94d46884621e5a8fae5a04b2b9d2",
                        "0x0000000000000000000000000000000000000000000000000000000000000005"
                    ]
                },
                "nodeType": 1
            },
            "7": {
                "invocation": {
                    "address": "0x748218256afe0a19a88ebeb2e0c5ce86d2178360",
                    "callData": "0x0000000000000000000000000000000000000000000000000000000000000001000000000000000000000000632a84dc35a1e43b8196b2d08630dc9e6a1f36920000000000000000000000000000000000000000000000a2badd5ff0907a6813",
                    "decodedMethod": {
                        "callParams": [
                            {
                                "name": "vest",
                                "type": "bool",
                                "value": true
                            },
                            {
                                "name": "account",
                                "type": "address",
                                "value": "0x632a84dc35a1e43b8196b2d08630dc9e6a1f3692"
                            },
                            {
                                "name": "amount",
                                "type": "uint256",
                                "value": "3,001,837,563,888,675,743,763"
                            }
                        ],
                        "constructorArguments": "",
                        "name": "vest",
                        "returnParams": [],
                        "signature": "vest(bool,address,uint256)"
                    },
                    "errorInfo": "",
                    "fromAddress": "0x2e32bad45a1c29c1ea27cf4dd588df9e68ed376c",
                    "gasUsed": 98642,
                    "id": 7,
                    "methodDecoded": true,
                    "operation": "CALL",
                    "output": "",
                    "revert": false,
                    "revertMessage": "",
                    "selector": "0x5ef09f27",
                    "status": true,
                    "value": "0"
                },
                "nodeType": 0
            },
            "8": {
                "invocation": {
                    "address": "0xa28693bf01dc261887b238646bb9636cb3a3730b",
                    "callData": "0x000000000000000000000000632a84dc35a1e43b8196b2d08630dc9e6a1f3692",
                    "decodedMethod": {
                        "callParams": [
                            {
                                "name": "",
                                "type": "address",
                                "value": "0x632a84dc35a1e43b8196b2d08630dc9e6a1f3692"
                            }
                        ],
                        "constructorArguments": "",
                        "name": "accountInfos",
                        "returnParams": [
                            {
                                "name": "total",
                                "type": "uint256",
                                "value": "11,767,276,475,359,438,966,998"
                            },
                            {
                                "name": "startTime",
                                "type": "uint256",
                                "value": "1,636,592,505"
                            }
                        ],
                        "signature": "accountInfos(address)"
                    },
                    "errorInfo": "",
                    "fromAddress": "0x748218256afe0a19a88ebeb2e0c5ce86d2178360",
                    "gasUsed": 4748,
                    "id": 8,
                    "methodDecoded": true,
                    "operation": "STATICCALL",
                    "output": "0x00000000000000000000000000000000000000000000027de7c418a2f9fe10d600000000000000000000000000000000000000000000000000000000618c6b79",
                    "revert": false,
                    "revertMessage": "",
                    "selector": "0x87cad0bf",
                    "status": true,
                    "value": "0"
                },
                "nodeType": 0
            },
            "9": {
                "event": {
                    "contract": "0x748218256afe0a19a88ebeb2e0c5ce86d2178360",
                    "decodedLog": {
                        "name": "LogVest",
                        "params": [
                            {
                                "name": "user",
                                "type": "address",
                                "value": "0x632a84dc35a1e43b8196b2d08630dc9e6a1f3692"
                            },
                            {
                                "name": "totalLockedAmount",
                                "type": "uint256",
                                "value": "4,393,611,660,779,617,149,148,122"
                            },
                            {
                                "name": "amount",
                                "type": "uint256",
                                "value": "3,001,837,563,888,675,743,763"
                            },
                            {
                                "name": "vesting",
                                "type": "(uint256,uint256)",
                                "value": [
                                    {
                                        "name": "total",
                                        "type": "uint256",
                                        "value": "14,769,114,039,248,114,710,761"
                                    },
                                    {
                                        "name": "startTime",
                                        "type": "uint256",
                                        "value": "1,638,570,222"
                                    }
                                ]
                            }
                        ],
                        "signature": "LogVest(address,uint256,uint256,(uint256,uint256))"
                    },
                    "id": 9,
                    "logData": "0x00000000000000000000000000000000000000000003a2622a5696d15e4a5bda0000000000000000000000000000000000000000000000a2badd5ff0907a6813000000000000000000000000000000000000000000000320a2a178938a7878e90000000000000000000000000000000000000000000000000000000061aa98ee",
                    "logDecoded": true,
                    "operation": "EVENT",
                    "revert": false,
                    "status": true,
                    "topics": [
                        "0x6b11c58d2eb1a4b0edf799ed7a00f78c5f6af22052efb140c6739f6fed64b1d1",
                        "0x000000000000000000000000632a84dc35a1e43b8196b2d08630dc9e6a1f3692"
                    ]
                },
                "nodeType": 1
            }
        },
        "gasFlame": [
            {
                "children": [
                    {
                        "children": [
                            {
                                "children": [],
                                "depth": 0,
                                "name": "Initial Gas",
                                "value": 21892
                            },
                            {
                                "children": [
                                    {
                                        "children": [],
                                        "depth": 1,
                                        "name": "balanceOf",
                                        "value": 2672
                                    },
                                    {
                                        "children": [],
                                        "depth": 1,
                                        "name": "balanceOf",
                                        "value": 2561
                                    },
                                    {
                                        "children": [],
                                        "depth": 1,
                                        "name": "balanceOf",
                                        "value": 2665
                                    },
                                    {
                                        "children": [
                                            {
                                                "children": [],
                                                "depth": 2,
                                                "name": "accountInfos",
                                                "value": 4748
                                            }
                                        ],
                                        "depth": 1,
                                        "name": "vest",
                                        "value": 98642
                                    }
                                ],
                                "depth": 0,
                                "name": "Executed Gas",
                                "value": 212983
                            }
                        ],
                        "depth": -1,
                        "name": "Actual Gas Used",
                        "value": 234875
                    },
                    {
                        "children": [],
                        "depth": -1,
                        "name": "Refunded Gas",
                        "value": 0
                    }
                ],
                "depth": -2,
                "name": "Total Gas",
                "value": 234875
            }
        ],
        "isConfirmed": true,
        "mainTrace": [
            {
                "children": [
                    {
                        "children": [
                            {
                                "children": [],
                                "depth": 1,
                                "id": 1,
                                "order": 1
                            },
                            {
                                "children": [],
                                "depth": 1,
                                "id": 2,
                                "order": 2
                            },
                            {
                                "children": [],
                                "depth": 1,
                                "id": 3,
                                "order": 3
                            },
                            {
                                "children": [],
                                "depth": 1,
                                "id": 4,
                                "order": 4
                            },
                            {
                                "children": [],
                                "depth": 1,
                                "id": 5,
                                "order": 5
                            },
                            {
                                "children": [],
                                "depth": 1,
                                "id": 6,
                                "order": 6
                            },
                            {
                                "children": [
                                    {
                                        "children": [],
                                        "depth": 2,
                                        "id": 8,
                                        "order": 8
                                    },
                                    {
                                        "children": [],
                                        "depth": 2,
                                        "id": 9,
                                        "order": 9
                                    }
                                ],
                                "depth": 1,
                                "id": 7,
                                "order": 7
                            },
                            {
                                "children": [],
                                "depth": 1,
                                "id": 10,
                                "order": 10
                            }
                        ],
                        "depth": 0,
                        "id": 0,
                        "order": 0
                    }
                ],
                "depth": -1,
                "id": -1,
                "order": -1
            }
        ],
        "mainTraceNodeCount": 11,
        "parentIdMap": {
            "0": -1,
            "1": 0,
            "10": 0,
            "2": 0,
            "3": 0,
            "4": 0,
            "5": 0,
            "6": 0,
            "7": 0,
            "8": 7,
            "9": 7
        },
        "tidyTrace": [
            {
                "children": [
                    {
                        "children": [
                            {
                                "children": [],
                                "depth": 1,
                                "id": 2,
                                "order": 2
                            },
                            {
                                "children": [],
                                "depth": 1,
                                "id": 4,
                                "order": 4
                            },
                            {
                                "children": [],
                                "depth": 1,
                                "id": 6,
                                "order": 6
                            },
                            {
                                "children": [
                                    {
                                        "children": [],
                                        "depth": 2,
                                        "id": 9,
                                        "order": 9
                                    }
                                ],
                                "depth": 1,
                                "id": 7,
                                "order": 7
                            },
                            {
                                "children": [],
                                "depth": 1,
                                "id": 10,
                                "order": 10
                            }
                        ],
                        "depth": 0,
                        "id": 0,
                        "order": 0
                    }
                ],
                "depth": -1,
                "id": -1,
                "order": -1
            }
        ],
        "tidyTraceNodeCount": 7
    },
    "state_change": {
        "stateChanges": [
            {
                "address": "0x2e32bad45a1c29c1ea27cf4dd588df9e68ed376c",
                "erc": "",
                "slots": [
                    {
                        "current": "0x0000000000000000000000000000000000000000000000000000000000da6dc0",
                        "key": "0x405787fa12a823e0f2b7631cc41b3ba8828b3321ca811111fa75cd3aa3bb5ad0",
                        "prev": "0x0000000000000000000000000000000000000000000000000000000000da5f1d"
                    },
                    {
                        "current": "0x000000000000000000000000000000000000000000000040c7243a1e5100d0a5",
                        "key": "0x2dbf61f2030101c44fa8958da64bfdc18036729a77ef31cc1ef1a23b90943039",
                        "prev": "0x0000000000000000000000000000000000000000000000228e3963d6f8c5af73"
                    },
                    {
                        "current": "0x0000000000000000000000000000000000000000000000000000000000da6dc0",
                        "key": "0x405787fa12a823e0f2b7631cc41b3ba8828b3321ca811111fa75cd3aa3bb5adc",
                        "prev": "0x0000000000000000000000000000000000000000000000000000000000da67ac"
                    },
                    {
                        "current": "0x000000000000000000000000000000000000000000000000000000368d2ed59f",
                        "key": "0x405787fa12a823e0f2b7631cc41b3ba8828b3321ca811111fa75cd3aa3bb5ace",
                        "prev": "0x000000000000000000000000000000000000000000000000000000367276592f"
                    },
                    {
                        "current": "0x00000000000000000000000000000000000000000000000a5a2eecdea7a10848",
                        "key": "0x8d02a1298dc777087674d8f9fac235f8a82a70cfd8043ccb8fa6dd438fe154e3",
                        "prev": "0x000000000000000000000000000000000000000000000000375357208b0f3857"
                    },
                    {
                        "current": "0x0000000000000000000000000000000000000000000001e4d6d3c33b57713280",
                        "key": "0xc2c3d5c1c5c7ffd3bf74e44290c9a4346d650c52e941a881e6b53d66848e6609",
                        "prev": "0x00000000000000000000000000000000000000000000016a77bccf503bc3bb90"
                    },
                    {
                        "current": "0x0000000000000000000000000000000000000000000000000000019e0f876403",
                        "key": "0x405787fa12a823e0f2b7631cc41b3ba8828b3321ca811111fa75cd3aa3bb5ae2",
                        "prev": "0x0000000000000000000000000000000000000000000000000000019de5fbde76"
                    },
                    {
                        "current": "0x0000000000000000000000000000000000000000000000000000000000da6dc0",
                        "key": "0x405787fa12a823e0f2b7631cc41b3ba8828b3321ca811111fa75cd3aa3bb5ae4",
                        "prev": "0x0000000000000000000000000000000000000000000000000000000000da633b"
                    },
                    {
                        "current": "0x0000000000000000000000000000000000000000000000000000089ef026158e",
                        "key": "0x405787fa12a823e0f2b7631cc41b3ba8828b3321ca811111fa75cd3aa3bb5ada",
                        "prev": "0x0000000000000000000000000000000000000000000000000000089bac2ca319"
                    }
                ],
                "storageVariables": [
                    {
                        "name": "userInfo",
                        "type": "mapping(uint256 => mapping(address => struct StakerStructs.UserInfo))",
                        "value": {
                            "pairs": [
                                {
                                    "key": "0",
                                    "value": {
                                        "pairs": [
                                            {
                                                "key": "0x632a84dc35a1e43b8196b2d08630dc9e6a1f3692",
                                                "value": {
                                                    "fields": [
                                                        {
                                                            "name": "rewardDebt",
                                                            "type": "int256",
                                                            "value": {
                                                                "current": "1194941278932002984101",
                                                                "prev": "637437630708130885491",
                                                                "typeTag": 1
                                                            }
                                                        }
                                                    ],
                                                    "typeTag": 3
                                                }
                                            }
                                        ],
                                        "typeTag": 4
                                    }
                                },
                                {
                                    "key": "3",
                                    "value": {
                                        "pairs": [
                                            {
                                                "key": "0x632a84dc35a1e43b8196b2d08630dc9e6a1f3692",
                                                "value": {
                                                    "fields": [
                                                        {
                                                            "name": "rewardDebt",
                                                            "type": "int256",
                                                            "value": {
                                                                "current": "190965832490476963912",
                                                                "prev": "3986625892436621399",
                                                                "typeTag": 1
                                                            }
                                                        }
                                                    ],
                                                    "typeTag": 3
                                                }
                                            }
                                        ],
                                        "typeTag": 4
                                    }
                                },
                                {
                                    "key": "5",
                                    "value": {
                                        "pairs": [
                                            {
                                                "key": "0x632a84dc35a1e43b8196b2d08630dc9e6a1f3692",
                                                "value": {
                                                    "fields": [
                                                        {
                                                            "name": "rewardDebt",
                                                            "type": "int256",
                                                            "value": {
                                                                "current": "8943704062679263031936",
                                                                "prev": "6686349353612499729296",
                                                                "typeTag": 1
                                                            }
                                                        }
                                                    ],
                                                    "typeTag": 3
                                                }
                                            }
                                        ],
                                        "typeTag": 4
                                    }
                                }
                            ],
                            "typeTag": 4
                        }
                    },
                    {
                        "name": "poolInfo",
                        "type": "struct StakerStructs.PoolInfo[]",
                        "value": {
                            "elemType": "struct StakerStructs.PoolInfo",
                            "elems": [
                                {
                                    "index": 0,
                                    "value": {
                                        "fields": [
                                            {
                                                "name": "accGroPerShare",
                                                "type": "uint256",
                                                "value": {
                                                    "current": "234296890783",
                                                    "prev": "233848592687",
                                                    "typeTag": 1
                                                }
                                            },
                                            {
                                                "name": "lastRewardBlock",
                                                "type": "uint256",
                                                "value": {
                                                    "current": "14314944",
                                                    "prev": "14311197",
                                                    "typeTag": 1
                                                }
                                            }
                                        ],
                                        "typeTag": 3
                                    }
                                },
                                {
                                    "index": 3,
                                    "value": {
                                        "fields": [
                                            {
                                                "name": "accGroPerShare",
                                                "type": "uint256",
                                                "value": {
                                                    "current": "9478726882702",
                                                    "prev": "9464701559577",
                                                    "typeTag": 1
                                                }
                                            },
                                            {
                                                "name": "lastRewardBlock",
                                                "type": "uint256",
                                                "value": {
                                                    "current": "14314944",
                                                    "prev": "14313388",
                                                    "typeTag": 1
                                                }
                                            }
                                        ],
                                        "typeTag": 3
                                    }
                                },
                                {
                                    "index": 5,
                                    "value": {
                                        "fields": [
                                            {
                                                "name": "accGroPerShare",
                                                "type": "uint256",
                                                "value": {
                                                    "current": "1778376991747",
                                                    "prev": "1777679982198",
                                                    "typeTag": 1
                                                }
                                            },
                                            {
                                                "name": "lastRewardBlock",
                                                "type": "uint256",
                                                "value": {
                                                    "current": "14314944",
                                                    "prev": "14312251",
                                                    "typeTag": 1
                                                }
                                            }
                                        ],
                                        "typeTag": 3
                                    }
                                }
                            ],
                            "typeTag": 2
                        }
                    }
                ]
            },
            {
                "address": "0x748218256afe0a19a88ebeb2e0c5ce86d2178360",
                "erc": "",
                "slots": [
                    {
                        "current": "0x0000000000000000000000000000000000000000000000000000000000000001",
                        "key": "0x8079e27711fb05e4cc631e76842ad6ea5e1bc2b121d16822f5acc804aadd7f49",
                        "prev": "0x0000000000000000000000000000000000000000000000000000000000000000"
                    },
                    {
                        "current": "0x00000000000000000000000000000000000000000003a2622a5696d15e4a5bda",
                        "key": "0x0000000000000000000000000000000000000000000000000000000000000006",
                        "prev": "0x00000000000000000000000000000000000000000003a1bf6f7936e0cdcff3c7"
                    },
                    {
                        "current": "0x0000000000000000000000000000000000000000000000000000000061aaa003",
                        "key": "0x000000000000000000000000000000000000000000000000000000000000000a",
                        "prev": "0x0000000000000000000000000000000000000000000000000000000061aa8b50"
                    },
                    {
                        "current": "0x000000000000000000000000000000000000000000000320a2a178938a7878e9",
                        "key": "0xb40cbe8bae3b65212b357a43f9f730e4632f0efb470e3e2910b008b0a56095d2",
                        "prev": "0x0000000000000000000000000000000000000000000000000000000000000000"
                    },
                    {
                        "current": "0x0000000000000000000000000000000000000000000000000000000061aa98ee",
                        "key": "0xb40cbe8bae3b65212b357a43f9f730e4632f0efb470e3e2910b008b0a56095d3",
                        "prev": "0x0000000000000000000000000000000000000000000000000000000000000000"
                    }
                ],
                "storageVariables": [
                    {
                        "name": "userMigrated",
                        "type": "mapping(address => bool)",
                        "value": {
                            "pairs": [
                                {
                                    "key": "0x632a84dc35a1e43b8196b2d08630dc9e6a1f3692",
                                    "value": {
                                        "current": "true",
                                        "prev": "false",
                                        "typeTag": 1
                                    }
                                }
                            ],
                            "typeTag": 4
                        }
                    },
                    {
                        "name": "totalLockedAmount",
                        "type": "uint256",
                        "value": {
                            "current": "4393611660779617149148122",
                            "prev": "4390609823215728473404359",
                            "typeTag": 1
                        }
                    },
                    {
                        "name": "globalStartTime",
                        "type": "uint256",
                        "value": {
                            "current": "1638572035",
                            "prev": "1638566736",
                            "typeTag": 1
                        }
                    },
                    {
                        "name": "accountInfos",
                        "type": "mapping(address => struct AccountInfo)",
                        "value": {
                            "pairs": [
                                {
                                    "key": "0x632a84dc35a1e43b8196b2d08630dc9e6a1f3692",
                                    "value": {
                                        "fields": [
                                            {
                                                "name": "total",
                                                "type": "uint256",
                                                "value": {
                                                    "current": "14769114039248114710761",
                                                    "prev": "0",
                                                    "typeTag": 1
                                                }
                                            },
                                            {
                                                "name": "startTime",
                                                "type": "uint256",
                                                "value": {
                                                    "current": "1638570222",
                                                    "prev": "0",
                                                    "typeTag": 1
                                                }
                                            }
                                        ],
                                        "typeTag": 3
                                    }
                                }
                            ],
                            "typeTag": 4
                        }
                    }
                ]
            }
        ]
    }
}