{
    "balance_change": {
        "balanceChanges": [
            {
                "account": "0x468b858c964f297fd8fce058032bf4b4911a8ad8",
                "assets": [
                    {
                        "address": "0x7e9e431a0b8c4d532c745b1043c7fa29a48d4fba",
                        "amount": "943.6957",
                        "iconUrl": "",
                        "isERC1155": false,
                        "isERC721": false,
                        "sign": false,
                        "value": ""
                    }
                ]
            },
            {
                "account": "0x3f1a311116a895a1f1da106472746601f863d65a",
                "assets": [
                    {
                        "address": "0x7e9e431a0b8c4d532c745b1043c7fa29a48d4fba",
                        "amount": "943.6957",
                        "iconUrl": "",
                        "isERC1155": false,
                        "isERC721": false,
                        "sign": true,
                        "value": ""
                    }
                ]
            }
        ]
    },
    "profile": {
        "basic_info": {
            "baseFee": "",
            "blockNumber": 5505476,
            "callData": "0xa9059cbb0000000000000000000000003f1a311116a895a1f1da106472746601f863d65a00000000000000000000000000000000000000000000003328689f3c63994000",
            "debugEnable": true,
            "errorInfo": "",
            "eventCount": 1,
            "feeRecipient": "0x829bd824b016326a401d083b33d092293333a830",
            "formatValue": "0",
            "gasLimit": 151754,
            "gasPrice": "6.710827008",
            "gasUsed": 51653,
            "intTxnCount": 0,
            "internalRevert": false,
            "internalRevertMessage": "",
            "isContractCreation": false,
            "isFlashloan": false,
            "maxFee": "",
            "nonce": 67147,
            "overwritedBlockNumber": -1,
            "priorityFee": "",
            "receiver": "0x7e9e431a0b8c4d532c745b1043c7fa29a48d4fba",
            "revertMessage": "",
            "sender": "0x468b858c964f297fd8fce058032bf4b4911a8ad8",
            "simulationEnable": true,
            "sourceTxnHash": "0x53f37a180dce77540aaabc7d3fe3707a76dd00190b83ddd16d7432e3f4c77cf2",
            "status": true,
            "timestamp": "2018-04-25T21:47:16Z",
            "transactionFee": "0.000346634347444224",
            "txnHash": "0x53f37a180dce77540aaabc7d3fe3707a76dd00190b83ddd16d7432e3f4c77cf2",
            "txnIndex": 105,
            "type": 0,
            "value": "0"
        },
        "fund_flow": [
            {
                "amount": "943.6957",
                "from": "0x468b858c964f297fd8fce058032bf4b4911a8ad8",
                "id": 1,
                "isERC1155": false,
                "isERC721": false,
                "isReverted": false,
                "order": 1,
                "to": "0x3f1a311116a895a1f1da106472746601f863d65a",
                "token": "0x7e9e431a0b8c4d532c745b1043c7fa29a48d4fba"
            }
        ],
        "token_infos": [
            {
                "address": "0xc02aaa39b223fe8d0a0e5c4f27ead9083c756cc2",
                "decimals": 18
            },
            {
                "address": "0xeeeeeeeeeeeeeeeeeeeeeeeeeeeeeeeeeeeeeeee",
                "decimals": 18
            },
            {
                "address": "0x7e9e431a0b8c4d532c745b1043c7fa29a48d4fba",
                "decimals": 18
            }
        ]
    },
    "address_label": {
        "labels": [
            {
                "address": "0x0000000000000000000000000000000000000003",
                "label": "Precompiled"
            },
            {
                "address": "0x0000000000000000000000000000000000000004",
                "label": "Precompiled"
            },
            {
                "address": "0xeeeeeeeeeeeeeeeeeeeeeeeeeeeeeeeeeeeeeeee",
                "label": "Ether"
            },
            {
                "address": "0x7e9e431a0b8c4d532c745b1043c7fa29a48d4fba",
                "label": "eosDAC Token"
            },
            {
                "address": "0x3f1a311116a895a1f1da106472746601f863d65a",
                "label": "BINANCE"
            },
            {
                "address": "0x0000000000000000000000000000000000000001",
                "label": "Precompiled"
            },
            {
                "address": "0x0000000000000000000000000000000000000002",
                "label": "Precompiled"
            }
        ]
    },
    "trace": {
        "accountLabels": null,
        "dataMap": {
            "-1": {
                "invocation": {
                    "address": "0x468b858c964f297fd8fce058032bf4b4911a8ad8",
                    "callData": "",
                    "decodedMethod": null,
                    "errorInfo": "",
                    "fromAddress": "",
                    "gasUsed": 0,
                    "id": -1,
                    "methodDecoded": false,
                    "operation": "",
                    "output": "",
                    "revert": false,
                    "revertMessage": "",
                    "selector": "",
                    "status": false,
                    "value": ""
                },
                "nodeType": 0
            },
            "0": {
                "invocation": {
                    "address": "0x7e9e431a0b8c4d532c745b1043c7fa29a48d4fba",
                    "callData": "0x0000000000000000000000003f1a311116a895a1f1da106472746601f863d65a00000000000000000000000000000000000000000000003328689f3c63994000",
                    "decodedMethod": {
                        "callParams": [
                            {
                                "name": "to",
                                "type": "address",
                                "value": "0x3f1a311116a895a1f1da106472746601f863d65a"
                            },
                            {
                                "decimalAvailable": true,
                                "name": "tokens",
                                "type": "uint256",
                                "value": "943,695,700,000,000,000,000"
                            }
                        ],
                        "constructorArguments": "",
                        "name": "transfer",
                        "returnParams": [
                            {
                                "name": "success",
                                "type": "bool",
                                "value": true
                            }
                        ],
                        "signature": "transfer(address,uint256)"
                    },
                    "errorInfo": "",
                    "fromAddress": "0x468b858c964f297fd8fce058032bf4b4911a8ad8",
                    "gasUsed": 51653,
                    "id": 0,
                    "methodDecoded": true,
                    "operation": "CALL",
                    "output": "0x0000000000000000000000000000000000000000000000000000000000000001",
                    "revert": false,
                    "revertMessage": "",
                    "selector": "0xa9059cbb",
                    "status": true,
                    "value": "0"
                },
                "nodeType": 0
            },
            "1": {
                "event": {
                    "contract": "0x7e9e431a0b8c4d532c745b1043c7fa29a48d4fba",
                    "decodedLog": {
                        "name": "Transfer",
                        "params": [
                            {
                                "name": "from",
                                "type": "address",
                                "value": "0x468b858c964f297fd8fce058032bf4b4911a8ad8"
                            },
                            {
                                "name": "to",
                                "type": "address",
                                "value": "0x3f1a311116a895a1f1da106472746601f863d65a"
                            },
                            {
                                "decimalAvailable": true,
                                "name": "tokens",
                                "type": "uint256",
                                "value": "943,695,700,000,000,000,000"
                            }
                        ],
                        "signature": "Transfer(address,address,uint256)"
                    },
                    "id": 1,
                    "logData": "0x00000000000000000000000000000000000000000000003328689f3c63994000",
                    "logDecoded": true,
                    "operation": "EVENT",
                    "revert": false,
                    "status": true,
                    "topics": [
                        "0xddf252ad1be2c89b69c2b068fc378daa952ba7f163c4a11628f55a4df523b3ef",
                        "0x000000000000000000000000468b858c964f297fd8fce058032bf4b4911a8ad8",
                        "0x0000000000000000000000003f1a311116a895a1f1da106472746601f863d65a"
                    ]
                },
                "nodeType": 1
            }
        },
        "gasFlame": [
            {
                "children": [
                    {
                        "children": [
                            {
                                "children": [],
                                "depth": 0,
                                "name": "Initial Gas",
                                "value": 23320
                            },
                            {
                                "children": [],
                                "depth": 0,
                                "name": "Executed Gas",
                                "value": 28333
                            }
                        ],
                        "depth": -1,
                        "name": "Actual Gas Used",
                        "value": 51653
                    },
                    {
                        "children": [],
                        "depth": -1,
                        "name": "Refunded Gas",
                        "value": 0
                    }
                ],
                "depth": -2,
                "name": "Total Gas",
                "value": 51653
            }
        ],
        "isConfirmed": true,
        "mainTrace": [
            {
                "children": [
                    {
                        "children": [
                            {
                                "children": [],
                                "depth": 1,
                                "id": 1,
                                "order": 1
                            }
                        ],
                        "depth": 0,
                        "id": 0,
                        "order": 0
                    }
                ],
                "depth": -1,
                "id": -1,
                "order": -1
            }
        ],
        "mainTraceNodeCount": 2,
        "parentIdMap": {
            "0": -1,
            "1": 0
        },
        "tidyTrace": [
            {
                "children": [
                    {
                        "children": [
                            {
                                "children": [],
                                "depth": 1,
                                "id": 1,
                                "order": 1
                            }
                        ],
                        "depth": 0,
                        "id": 0,
                        "order": 0
                    }
                ],
                "depth": -1,
                "id": -1,
                "order": -1
            }
        ],
        "tidyTraceNodeCount": 2
    },
    "state_change": {
        "stateChanges": [
            {
                "address": "0x7e9e431a0b8c4d532c745b1043c7fa29a48d4fba",
                "erc": "ERC-20",
                "slots": [
                    {
                        "current": "0x00000000000000000000000000000000000000000007df600b77ea395f3a0000",
                        "key": "0x6f9d51334d64e9e7582c6b648472270c9ab186e2118f7b5da1ceb9127ebc80b0",
                        "prev": "0x00000000000000000000000000000000000000000007df9333e08975c2d34000"
                    },
                    {
                        "current": "0x00000000000000000000000000000000000000000000003328689f3c63994000",
                        "key": "0x5387d7363e19b6ee2c9e3cb26d10577742193786115bc61427d67cc5ea921c26",
                        "prev": "0x0000000000000000000000000000000000000000000000000000000000000000"
                    }
                ],
                "storageVariables": [
                    {
                        "name": "balances",
                        "type": "mapping(address => uint256)",
                        "value": {
                            "pairs": [
                                {
                                    "key": "0x3f1a311116a895a1f1da106472746601f863d65a",
                                    "value": {
                                        "current": "943695700000000000000",
                                        "prev": "0",
                                        "typeTag": 1
                                    }
                                },
                                {
                                    "key": "0x468b858c964f297fd8fce058032bf4b4911a8ad8",
                                    "value": {
                                        "current": "9517340176800000000000000",
                                        "prev": "9518283872500000000000000",
                                        "typeTag": 1
                                    }
                                }
                            ],
                            "typeTag": 4
                        }
                    }
                ]
            }
        ]
    }
}