{
    "balance_change": {
        "balanceChanges": [
            {
                "account": "0x3825ff015a07d732afc52f381727d11eaab0032e",
                "assets": [
                    {
                        "address": "0x2c1488284e9cf2bd49de85e7ded8b82eaef63b77",
                        "amount": "99,700,000,000",
                        "iconUrl": "",
                        "isERC1155": false,
                        "isERC721": false,
                        "sign": false,
                        "value": ""
                    }
                ]
            },
            {
                "account": "0xb35895464569aad146eb3748906067cb26ce36ca",
                "assets": [
                    {
                        "address": "0x2c1488284e9cf2bd49de85e7ded8b82eaef63b77",
                        "amount": "99,700,000,000",
                        "iconUrl": "",
                        "isERC1155": false,
                        "isERC721": false,
                        "sign": true,
                        "value": ""
                    }
                ]
            }
        ]
    },
    "profile": {
        "basic_info": {
            "baseFee": "",
            "blockNumber": 5785593,
            "callData": "0xa9059cbb000000000000000000000000b35895464569aad146eb3748906067cb26ce36ca0000000000000000000000000000000000000000000000000000001736954500",
            "debugEnable": true,
            "errorInfo": "",
            "eventCount": 1,
            "feeRecipient": "0xb75d1e62b10e4ba91315c4aa3facc536f8a922f5",
            "formatValue": "0",
            "gasLimit": 90000,
            "gasPrice": "60",
            "gasUsed": 52702,
            "intTxnCount": 0,
            "internalRevert": false,
            "internalRevertMessage": "",
            "isContractCreation": false,
            "isFlashloan": false,
            "maxFee": "",
            "nonce": 306,
            "overwritedBlockNumber": -1,
            "priorityFee": "",
            "receiver": "0x2c1488284e9cf2bd49de85e7ded8b82eaef63b77",
            "revertMessage": "",
            "sender": "0x3825ff015a07d732afc52f381727d11eaab0032e",
            "simulationEnable": true,
            "sourceTxnHash": "0x530a07f2f25ceef7a2c035dd80a4c098f701c98a55110be66c473773521ad693",
            "status": true,
            "timestamp": "2018-06-14T04:54:57Z",
            "transactionFee": "0.00316212",
            "txnHash": "0x530a07f2f25ceef7a2c035dd80a4c098f701c98a55110be66c473773521ad693",
            "txnIndex": 0,
            "type": 0,
            "value": "0"
        },
        "fund_flow": [
            {
                "amount": "99,700,000,000",
                "from": "0x3825ff015a07d732afc52f381727d11eaab0032e",
                "id": 1,
                "isERC1155": false,
                "isERC721": false,
                "isReverted": false,
                "order": 1,
                "to": "0xb35895464569aad146eb3748906067cb26ce36ca",
                "token": "0x2c1488284e9cf2bd49de85e7ded8b82eaef63b77"
            }
        ],
        "token_infos": [
            {
                "address": "0xc02aaa39b223fe8d0a0e5c4f27ead9083c756cc2",
                "decimals": 18
            },
            {
                "address": "0xeeeeeeeeeeeeeeeeeeeeeeeeeeeeeeeeeeeeeeee",
                "decimals": 18
            }
        ]
    },
    "address_label": {
        "labels": [
            {
                "address": "0x0000000000000000000000000000000000000002",
                "label": "Precompiled"
            },
            {
                "address": "0x0000000000000000000000000000000000000003",
                "label": "Precompiled"
            },
            {
                "address": "0x0000000000000000000000000000000000000004",
                "label": "Precompiled"
            },
            {
                "address": "0xeeeeeeeeeeeeeeeeeeeeeeeeeeeeeeeeeeeeeeee",
                "label": "Ether"
            },
            {
                "address": "0x0000000000000000000000000000000000000001",
                "label": "Precompiled"
            }
        ]
    },
    "trace": {
        "accountLabels": null,
        "dataMap": {
            "-1": {
                "invocation": {
                    "address": "0x3825ff015a07d732afc52f381727d11eaab0032e",
                    "callData": "",
                    "decodedMethod": null,
                    "errorInfo": "",
                    "fromAddress": "",
                    "gasUsed": 0,
                    "id": -1,
                    "methodDecoded": false,
                    "operation": "",
                    "output": "",
                    "revert": false,
                    "revertMessage": "",
                    "selector": "",
                    "status": false,
                    "value": ""
                },
                "nodeType": 0
            },
            "0": {
                "invocation": {
                    "address": "0x2c1488284e9cf2bd49de85e7ded8b82eaef63b77",
                    "callData": "0x000000000000000000000000b35895464569aad146eb3748906067cb26ce36ca0000000000000000000000000000000000000000000000000000001736954500",
                    "decodedMethod": {
                        "callParams": [
                            {
                                "name": "_to",
                                "type": "address",
                                "value": "0xb35895464569aad146eb3748906067cb26ce36ca"
                            },
                            {
                                "decimalAvailable": true,
                                "name": "_value",
                                "type": "uint256",
                                "value": "99,700,000,000"
                            }
                        ],
                        "constructorArguments": "",
                        "name": "transfer",
                        "returnParams": [],
                        "signature": "transfer(address,uint256)"
                    },
                    "errorInfo": "",
                    "fromAddress": "0x3825ff015a07d732afc52f381727d11eaab0032e",
                    "gasUsed": 52702,
                    "id": 0,
                    "methodDecoded": true,
                    "operation": "CALL",
                    "output": "",
                    "revert": false,
                    "revertMessage": "",
                    "selector": "0xa9059cbb",
                    "status": true,
                    "value": "0"
                },
                "nodeType": 0
            },
            "1": {
                "event": {
                    "contract": "0x2c1488284e9cf2bd49de85e7ded8b82eaef63b77",
                    "decodedLog": {
                        "name": "Transfer",
                        "params": [
                            {
                                "name": "from",
                                "type": "address",
                                "value": "0x3825ff015a07d732afc52f381727d11eaab0032e"
                            },
                            {
                                "name": "to",
                                "type": "address",
                                "value": "0xb35895464569aad146eb3748906067cb26ce36ca"
                            },
                            {
                                "decimalAvailable": true,
                                "name": "value",
                                "type": "uint256",
                                "value": "99,700,000,000"
                            }
                        ],
                        "signature": "Transfer(address,address,uint256)"
                    },
                    "id": 1,
                    "logData": "0x0000000000000000000000000000000000000000000000000000001736954500",
                    "logDecoded": true,
                    "operation": "EVENT",
                    "revert": false,
                    "status": true,
                    "topics": [
                        "0xddf252ad1be2c89b69c2b068fc378daa952ba7f163c4a11628f55a4df523b3ef",
                        "0x0000000000000000000000003825ff015a07d732afc52f381727d11eaab0032e",
                        "0x000000000000000000000000b35895464569aad146eb3748906067cb26ce36ca"
                    ]
                },
                "nodeType": 1
            }
        },
        "gasFlame": [
            {
                "children": [
                    {
                        "children": [
                            {
                                "children": [],
                                "depth": 0,
                                "name": "Initial Gas",
                                "value": 23064
                            },
                            {
                                "children": [],
                                "depth": 0,
                                "name": "Executed Gas",
                                "value": 29638
                            }
                        ],
                        "depth": -1,
                        "name": "Actual Gas Used",
                        "value": 52702
                    },
                    {
                        "children": [],
                        "depth": -1,
                        "name": "Refunded Gas",
                        "value": 0
                    }
                ],
                "depth": -2,
                "name": "Total Gas",
                "value": 52702
            }
        ],
        "isConfirmed": true,
        "mainTrace": [
            {
                "children": [
                    {
                        "children": [
                            {
                                "children": [],
                                "depth": 1,
                                "id": 1,
                                "order": 1
                            }
                        ],
                        "depth": 0,
                        "id": 0,
                        "order": 0
                    }
                ],
                "depth": -1,
                "id": -1,
                "order": -1
            }
        ],
        "mainTraceNodeCount": 2,
        "parentIdMap": {
            "0": -1,
            "1": 0
        },
        "tidyTrace": [
            {
                "children": [
                    {
                        "children": [
                            {
                                "children": [],
                                "depth": 1,
                                "id": 1,
                                "order": 1
                            }
                        ],
                        "depth": 0,
                        "id": 0,
                        "order": 0
                    }
                ],
                "depth": -1,
                "id": -1,
                "order": -1
            }
        ],
        "tidyTraceNodeCount": 2
    },
    "state_change": {
        "stateChanges": [
            {
                "address": "0x2c1488284e9cf2bd49de85e7ded8b82eaef63b77",
                "erc": "",
                "slots": [
                    {
                        "current": "0x00000000000000000000000000000000000000000000000000000067b54cd03e",
                        "key": "0xf69f95d54093f112fde632553eb13e6290275042f3405fc3e74f26617554dd68",
                        "prev": "0x0000000000000000000000000000000000000000000000000000007eebe2153e"
                    },
                    {
                        "current": "0x0000000000000000000000000000000000000000000000000000001736954500",
                        "key": "0x8a6aaefc2f703b2fe9ffdeb658bafed0402573b3da7c300bacf0a01339ae49a1",
                        "prev": "0x0000000000000000000000000000000000000000000000000000000000000000"
                    }
                ],
                "storageVariables": []
            }
        ]
    }
}