{
    "balance_change": {
        "balanceChanges": [
            {
                "account": "0x2c65dba0b5ed7ed82b70ce086f4f206625e0fdc4",
                "assets": [
                    {
                        "address": "0x653430560be843c4a3d143d0110e896c2ab8ac0d",
                        "amount": "870.301423",
                        "iconUrl": "",
                        "isERC1155": false,
                        "isERC721": false,
                        "sign": false,
                        "value": "1551.172389"
                    }
                ]
            },
            {
                "account": "0x27b38ec68d57e54e2ae47d2d120ccb8df725d811",
                "assets": [
                    {
                        "address": "0x653430560be843c4a3d143d0110e896c2ab8ac0d",
                        "amount": "870.301423",
                        "iconUrl": "",
                        "isERC1155": false,
                        "isERC721": false,
                        "sign": true,
                        "value": "1551.172389"
                    }
                ]
            }
        ]
    },
    "profile": {
        "basic_info": {
            "baseFee": "100.456178144",
            "blockNumber": 13422299,
            "callData": "0xa9059cbb00000000000000000000000027b38ec68d57e54e2ae47d2d120ccb8df725d81100000000000000000000000000000000000000000000000078c75154e651dc00",
            "debugEnable": true,
            "errorInfo": "",
            "eventCount": 1,
            "feeRecipient": "0x829bd824b016326a401d083b33d092293333a830",
            "formatValue": "0",
            "gasLimit": 47337,
            "gasPrice": "116.149629441",
            "gasUsed": 35065,
            "intTxnCount": 0,
            "internalRevert": false,
            "internalRevertMessage": "",
            "isContractCreation": false,
            "isFlashloan": false,
            "maxFee": "",
            "nonce": 275652,
            "overwritedBlockNumber": -1,
            "priorityFee": "",
            "receiver": "0x653430560be843c4a3d143d0110e896c2ab8ac0d",
            "revertMessage": "",
            "sender": "0x2c65dba0b5ed7ed82b70ce086f4f206625e0fdc4",
            "simulationEnable": true,
            "sourceTxnHash": "0x531373961e2a593f48ccc580c340a48eece51ab17173557322163e01fcc2a2c0",
            "status": true,
            "timestamp": "2021-10-15T11:12:22Z",
            "transactionFee": "0.004072786756348665",
            "txnHash": "0x531373961e2a593f48ccc580c340a48eece51ab17173557322163e01fcc2a2c0",
            "txnIndex": 28,
            "type": 0,
            "value": "0"
        },
        "fund_flow": [
            {
                "amount": "870.301423",
                "from": "0x2c65dba0b5ed7ed82b70ce086f4f206625e0fdc4",
                "id": 1,
                "isERC1155": false,
                "isERC721": false,
                "isReverted": false,
                "order": 1,
                "to": "0x27b38ec68d57e54e2ae47d2d120ccb8df725d811",
                "token": "0x653430560be843c4a3d143d0110e896c2ab8ac0d"
            }
        ],
        "token_infos": [
            {
                "address": "0xc02aaa39b223fe8d0a0e5c4f27ead9083c756cc2",
                "decimals": 18
            },
            {
                "address": "0xeeeeeeeeeeeeeeeeeeeeeeeeeeeeeeeeeeeeeeee",
                "decimals": 18
            },
            {
                "address": "0x653430560be843c4a3d143d0110e896c2ab8ac0d",
                "decimals": 16
            }
        ]
    },
    "address_label": {
        "labels": [
            {
                "address": "0xeeeeeeeeeeeeeeeeeeeeeeeeeeeeeeeeeeeeeeee",
                "label": "Ether"
            },
            {
                "address": "0x27b38ec68d57e54e2ae47d2d120ccb8df725d811",
                "label": "OKEX"
            },
            {
                "address": "0x653430560be843c4a3d143d0110e896c2ab8ac0d",
                "label": "Molecular Future: MOF Token"
            },
            {
                "address": "0x0000000000000000000000000000000000000001",
                "label": "Precompiled"
            },
            {
                "address": "0x0000000000000000000000000000000000000002",
                "label": "Precompiled"
            },
            {
                "address": "0x0000000000000000000000000000000000000003",
                "label": "Precompiled"
            },
            {
                "address": "0x0000000000000000000000000000000000000004",
                "label": "Precompiled"
            }
        ]
    },
    "trace": {
        "accountLabels": null,
        "dataMap": {
            "-1": {
                "invocation": {
                    "address": "0x2c65dba0b5ed7ed82b70ce086f4f206625e0fdc4",
                    "callData": "",
                    "decodedMethod": null,
                    "errorInfo": "",
                    "fromAddress": "",
                    "gasUsed": 0,
                    "id": -1,
                    "methodDecoded": false,
                    "operation": "",
                    "output": "",
                    "revert": false,
                    "revertMessage": "",
                    "selector": "",
                    "status": false,
                    "value": ""
                },
                "nodeType": 0
            },
            "0": {
                "invocation": {
                    "address": "0x653430560be843c4a3d143d0110e896c2ab8ac0d",
                    "callData": "0x00000000000000000000000027b38ec68d57e54e2ae47d2d120ccb8df725d81100000000000000000000000000000000000000000000000078c75154e651dc00",
                    "decodedMethod": {
                        "callParams": [
                            {
                                "name": "_to",
                                "type": "address",
                                "value": "0x27b38ec68d57e54e2ae47d2d120ccb8df725d811"
                            },
                            {
                                "decimalAvailable": true,
                                "name": "_value",
                                "type": "uint256",
                                "value": "8,703,014,230,000,000,000"
                            }
                        ],
                        "constructorArguments": "",
                        "name": "transfer",
                        "returnParams": [
                            {
                                "name": "success",
                                "type": "bool",
                                "value": true
                            }
                        ],
                        "signature": "transfer(address,uint256)"
                    },
                    "errorInfo": "",
                    "fromAddress": "0x2c65dba0b5ed7ed82b70ce086f4f206625e0fdc4",
                    "gasUsed": 35065,
                    "id": 0,
                    "methodDecoded": true,
                    "operation": "CALL",
                    "output": "0x0000000000000000000000000000000000000000000000000000000000000001",
                    "revert": false,
                    "revertMessage": "",
                    "selector": "0xa9059cbb",
                    "status": true,
                    "value": "0"
                },
                "nodeType": 0
            },
            "1": {
                "event": {
                    "contract": "0x653430560be843c4a3d143d0110e896c2ab8ac0d",
                    "decodedLog": {
                        "name": "Transfer",
                        "params": [
                            {
                                "name": "_from",
                                "type": "address",
                                "value": "0x2c65dba0b5ed7ed82b70ce086f4f206625e0fdc4"
                            },
                            {
                                "name": "_to",
                                "type": "address",
                                "value": "0x27b38ec68d57e54e2ae47d2d120ccb8df725d811"
                            },
                            {
                                "decimalAvailable": true,
                                "name": "_value",
                                "type": "uint256",
                                "value": "8,703,014,230,000,000,000"
                            }
                        ],
                        "signature": "Transfer(address,address,uint256)"
                    },
                    "id": 1,
                    "logData": "0x00000000000000000000000000000000000000000000000078c75154e651dc00",
                    "logDecoded": true,
                    "operation": "EVENT",
                    "revert": false,
                    "status": true,
                    "topics": [
                        "0xddf252ad1be2c89b69c2b068fc378daa952ba7f163c4a11628f55a4df523b3ef",
                        "0x0000000000000000000000002c65dba0b5ed7ed82b70ce086f4f206625e0fdc4",
                        "0x00000000000000000000000027b38ec68d57e54e2ae47d2d120ccb8df725d811"
                    ]
                },
                "nodeType": 1
            }
        },
        "gasFlame": [
            {
                "children": [
                    {
                        "children": [
                            {
                                "children": [],
                                "depth": 0,
                                "name": "Initial Gas",
                                "value": 21644
                            },
                            {
                                "children": [],
                                "depth": 0,
                                "name": "Executed Gas",
                                "value": 13421
                            }
                        ],
                        "depth": -1,
                        "name": "Actual Gas Used",
                        "value": 35065
                    },
                    {
                        "children": [],
                        "depth": -1,
                        "name": "Refunded Gas",
                        "value": 0
                    }
                ],
                "depth": -2,
                "name": "Total Gas",
                "value": 35065
            }
        ],
        "isConfirmed": true,
        "mainTrace": [
            {
                "children": [
                    {
                        "children": [
                            {
                                "children": [],
                                "depth": 1,
                                "id": 1,
                                "order": 1
                            }
                        ],
                        "depth": 0,
                        "id": 0,
                        "order": 0
                    }
                ],
                "depth": -1,
                "id": -1,
                "order": -1
            }
        ],
        "mainTraceNodeCount": 2,
        "parentIdMap": {
            "0": -1,
            "1": 0
        },
        "tidyTrace": [
            {
                "children": [
                    {
                        "children": [
                            {
                                "children": [],
                                "depth": 1,
                                "id": 1,
                                "order": 1
                            }
                        ],
                        "depth": 0,
                        "id": 0,
                        "order": 0
                    }
                ],
                "depth": -1,
                "id": -1,
                "order": -1
            }
        ],
        "tidyTraceNodeCount": 2
    },
    "state_change": {
        "stateChanges": [
            {
                "address": "0x653430560be843c4a3d143d0110e896c2ab8ac0d",
                "erc": "ERC-20",
                "slots": [
                    {
                        "current": "0x00000000000000000000000000000000000000000000035f68fcc34733ee8800",
                        "key": "0xa0536cb1b355360f847926e124bb4118bd67ad81717c40747f679e4cb71e4dcb",
                        "prev": "0x00000000000000000000000000000000000000000000035fe1c4149c1a406400"
                    },
                    {
                        "current": "0x00000000000000000000000000000000000000000000000078c75154e651dc01",
                        "key": "0x7ca52749e7bdda0a7eefc4eeb553f834663040c8f7a4064d21c639224e10a5be",
                        "prev": "0x0000000000000000000000000000000000000000000000000000000000000001"
                    }
                ],
                "storageVariables": [
                    {
                        "name": "balanceOf",
                        "type": "mapping(address => uint256)",
                        "value": {
                            "pairs": [
                                {
                                    "key": "0x27b38ec68d57e54e2ae47d2d120ccb8df725d811",
                                    "value": {
                                        "current": "8703014230000000001",
                                        "prev": "1",
                                        "typeTag": 1
                                    }
                                },
                                {
                                    "key": "0x2c65dba0b5ed7ed82b70ce086f4f206625e0fdc4",
                                    "value": {
                                        "current": "15927105271796000000000",
                                        "prev": "15935808286026000000000",
                                        "typeTag": 1
                                    }
                                }
                            ],
                            "typeTag": 4
                        }
                    }
                ]
            }
        ]
    }
}