{
    "balance_change": {
        "balanceChanges": [
            {
                "account": "0x9858a2f75a291b8ff329033af572f6c47307ccaa",
                "assets": [
                    {
                        "address": "0x91d04cae7ec01de3de98e028b999a2edb129b169",
                        "amount": "141",
                        "iconUrl": "",
                        "isERC1155": false,
                        "isERC721": false,
                        "sign": false,
                        "value": ""
                    }
                ]
            },
            {
                "account": "0x24d19d933d706954b56fc1227f3d4b778a6c5d03",
                "assets": [
                    {
                        "address": "0x91d04cae7ec01de3de98e028b999a2edb129b169",
                        "amount": "141",
                        "iconUrl": "",
                        "isERC1155": false,
                        "isERC721": false,
                        "sign": true,
                        "value": ""
                    }
                ]
            }
        ]
    },
    "profile": {
        "basic_info": {
            "baseFee": "",
            "blockNumber": 6315017,
            "callData": "0xa9059cbb00000000000000000000000024d19d933d706954b56fc1227f3d4b778a6c5d03000000000000000000000000000000000000000000000007a4c4a0f332140000",
            "debugEnable": true,
            "errorInfo": "",
            "eventCount": 1,
            "feeRecipient": "0x52bc44d5378309ee2abf1539bf71de1b7d7be3b5",
            "formatValue": "0",
            "gasLimit": 60000,
            "gasPrice": "6",
            "gasUsed": 36639,
            "intTxnCount": 0,
            "internalRevert": false,
            "internalRevertMessage": "",
            "isContractCreation": false,
            "isFlashloan": false,
            "maxFee": "",
            "nonce": 0,
            "overwritedBlockNumber": -1,
            "priorityFee": "",
            "receiver": "0x91d04cae7ec01de3de98e028b999a2edb129b169",
            "revertMessage": "",
            "sender": "0x9858a2f75a291b8ff329033af572f6c47307ccaa",
            "simulationEnable": true,
            "sourceTxnHash": "0x539f1db0339df78138ef8ac1b4efbd04b9a95b04552ff3bbfbe6500e96edb463",
            "status": true,
            "timestamp": "2018-09-12T00:22:27Z",
            "transactionFee": "0.000219834",
            "txnHash": "0x539f1db0339df78138ef8ac1b4efbd04b9a95b04552ff3bbfbe6500e96edb463",
            "txnIndex": 15,
            "type": 0,
            "value": "0"
        },
        "fund_flow": [
            {
                "amount": "141",
                "from": "0x9858a2f75a291b8ff329033af572f6c47307ccaa",
                "id": 1,
                "isERC1155": false,
                "isERC721": false,
                "isReverted": false,
                "order": 1,
                "to": "0x24d19d933d706954b56fc1227f3d4b778a6c5d03",
                "token": "0x91d04cae7ec01de3de98e028b999a2edb129b169"
            }
        ],
        "token_infos": [
            {
                "address": "0x91d04cae7ec01de3de98e028b999a2edb129b169",
                "decimals": 18
            },
            {
                "address": "0xc02aaa39b223fe8d0a0e5c4f27ead9083c756cc2",
                "decimals": 18
            },
            {
                "address": "0xeeeeeeeeeeeeeeeeeeeeeeeeeeeeeeeeeeeeeeee",
                "decimals": 18
            }
        ]
    },
    "address_label": {
        "labels": [
            {
                "address": "0x0000000000000000000000000000000000000002",
                "label": "Precompiled"
            },
            {
                "address": "0x0000000000000000000000000000000000000003",
                "label": "Precompiled"
            },
            {
                "address": "0x0000000000000000000000000000000000000004",
                "label": "Precompiled"
            },
            {
                "address": "0xeeeeeeeeeeeeeeeeeeeeeeeeeeeeeeeeeeeeeeee",
                "label": "Ether"
            },
            {
                "address": "0x91d04cae7ec01de3de98e028b999a2edb129b169",
                "label": "TKCD"
            },
            {
                "address": "0x0000000000000000000000000000000000000001",
                "label": "Precompiled"
            }
        ]
    },
    "trace": {
        "accountLabels": null,
        "dataMap": {
            "-1": {
                "invocation": {
                    "address": "0x9858a2f75a291b8ff329033af572f6c47307ccaa",
                    "callData": "",
                    "decodedMethod": null,
                    "errorInfo": "",
                    "fromAddress": "",
                    "gasUsed": 0,
                    "id": -1,
                    "methodDecoded": false,
                    "operation": "",
                    "output": "",
                    "revert": false,
                    "revertMessage": "",
                    "selector": "",
                    "status": false,
                    "value": ""
                },
                "nodeType": 0
            },
            "0": {
                "invocation": {
                    "address": "0x91d04cae7ec01de3de98e028b999a2edb129b169",
                    "callData": "0x00000000000000000000000024d19d933d706954b56fc1227f3d4b778a6c5d03000000000000000000000000000000000000000000000007a4c4a0f332140000",
                    "decodedMethod": {
                        "callParams": [
                            {
                                "name": "_to",
                                "type": "address",
                                "value": "0x24d19d933d706954b56fc1227f3d4b778a6c5d03"
                            },
                            {
                                "decimalAvailable": true,
                                "name": "_value",
                                "type": "uint256",
                                "value": "141,000,000,000,000,000,000"
                            }
                        ],
                        "constructorArguments": "",
                        "name": "transfer",
                        "returnParams": [
                            {
                                "name": "success",
                                "type": "bool",
                                "value": true
                            }
                        ],
                        "signature": "transfer(address,uint256)"
                    },
                    "errorInfo": "",
                    "fromAddress": "0x9858a2f75a291b8ff329033af572f6c47307ccaa",
                    "gasUsed": 36639,
                    "id": 0,
                    "methodDecoded": true,
                    "operation": "CALL",
                    "output": "0x0000000000000000000000000000000000000000000000000000000000000001",
                    "revert": false,
                    "revertMessage": "",
                    "selector": "0xa9059cbb",
                    "status": true,
                    "value": "0"
                },
                "nodeType": 0
            },
            "1": {
                "event": {
                    "contract": "0x91d04cae7ec01de3de98e028b999a2edb129b169",
                    "decodedLog": {
                        "name": "Transfer",
                        "params": [
                            {
                                "name": "_from",
                                "type": "address",
                                "value": "0x9858a2f75a291b8ff329033af572f6c47307ccaa"
                            },
                            {
                                "name": "_to",
                                "type": "address",
                                "value": "0x24d19d933d706954b56fc1227f3d4b778a6c5d03"
                            },
                            {
                                "decimalAvailable": true,
                                "name": "_value",
                                "type": "uint256",
                                "value": "141,000,000,000,000,000,000"
                            }
                        ],
                        "signature": "Transfer(address,address,uint256)"
                    },
                    "id": 1,
                    "logData": "0x000000000000000000000000000000000000000000000007a4c4a0f332140000",
                    "logDecoded": true,
                    "operation": "EVENT",
                    "revert": false,
                    "status": true,
                    "topics": [
                        "0xddf252ad1be2c89b69c2b068fc378daa952ba7f163c4a11628f55a4df523b3ef",
                        "0x0000000000000000000000009858a2f75a291b8ff329033af572f6c47307ccaa",
                        "0x00000000000000000000000024d19d933d706954b56fc1227f3d4b778a6c5d03"
                    ]
                },
                "nodeType": 1
            }
        },
        "gasFlame": [
            {
                "children": [
                    {
                        "children": [
                            {
                                "children": [],
                                "depth": 0,
                                "name": "Initial Gas",
                                "value": 23256
                            },
                            {
                                "children": [],
                                "depth": 0,
                                "name": "Executed Gas",
                                "value": 28383
                            }
                        ],
                        "depth": -1,
                        "name": "Actual Gas Used",
                        "value": 36639
                    },
                    {
                        "children": [],
                        "depth": -1,
                        "name": "Refunded Gas",
                        "value": 15000
                    }
                ],
                "depth": -2,
                "name": "Total Gas",
                "value": 51639
            }
        ],
        "isConfirmed": true,
        "mainTrace": [
            {
                "children": [
                    {
                        "children": [
                            {
                                "children": [],
                                "depth": 1,
                                "id": 1,
                                "order": 1
                            }
                        ],
                        "depth": 0,
                        "id": 0,
                        "order": 0
                    }
                ],
                "depth": -1,
                "id": -1,
                "order": -1
            }
        ],
        "mainTraceNodeCount": 2,
        "parentIdMap": {
            "0": -1,
            "1": 0
        },
        "tidyTrace": [
            {
                "children": [
                    {
                        "children": [
                            {
                                "children": [],
                                "depth": 1,
                                "id": 1,
                                "order": 1
                            }
                        ],
                        "depth": 0,
                        "id": 0,
                        "order": 0
                    }
                ],
                "depth": -1,
                "id": -1,
                "order": -1
            }
        ],
        "tidyTraceNodeCount": 2
    },
    "state_change": {
        "stateChanges": [
            {
                "address": "0x91d04cae7ec01de3de98e028b999a2edb129b169",
                "erc": "ERC-20",
                "slots": [
                    {
                        "current": "0x0000000000000000000000000000000000000000000000000000000000000000",
                        "key": "0x429cc706963574c508aa967448eda4cf4f88295b15c4b3737e5dd413f9a63a97",
                        "prev": "0x000000000000000000000000000000000000000000000007a4c4a0f332140000"
                    },
                    {
                        "current": "0x000000000000000000000000000000000000000000000007a4c4a0f332140000",
                        "key": "0x233b854e8e8cbdf5b6bd215c7b825bc508de69f58fb5690c1c421a6b95b9af90",
                        "prev": "0x0000000000000000000000000000000000000000000000000000000000000000"
                    }
                ],
                "storageVariables": [
                    {
                        "name": "balances",
                        "type": "mapping(address => uint256)",
                        "value": {
                            "pairs": [
                                {
                                    "key": "0x24d19d933d706954b56fc1227f3d4b778a6c5d03",
                                    "value": {
                                        "current": "141000000000000000000",
                                        "prev": "0",
                                        "typeTag": 1
                                    }
                                },
                                {
                                    "key": "0x9858a2f75a291b8ff329033af572f6c47307ccaa",
                                    "value": {
                                        "current": "0",
                                        "prev": "141000000000000000000",
                                        "typeTag": 1
                                    }
                                }
                            ],
                            "typeTag": 4
                        }
                    }
                ]
            }
        ]
    }
}