{
    "balance_change": {
        "balanceChanges": [
            {
                "account": "0xf482d744b043719db0436e20f31834c79163ada1",
                "assets": [
                    {
                        "address": "0xc12d1c73ee7dc3615ba4e37e4abfdbddfa38907e",
                        "amount": "3,317,682",
                        "iconUrl": "",
                        "isERC1155": false,
                        "isERC721": false,
                        "sign": false,
                        "value": "84.54505422"
                    }
                ]
            },
            {
                "account": "0xcce8d59affdd93be338fc77fa0a298c2cb65da59",
                "assets": [
                    {
                        "address": "0xc12d1c73ee7dc3615ba4e37e4abfdbddfa38907e",
                        "amount": "3,317,682",
                        "iconUrl": "",
                        "isERC1155": false,
                        "isERC721": false,
                        "sign": true,
                        "value": "84.54505422"
                    }
                ]
            }
        ]
    },
    "profile": {
        "basic_info": {
            "baseFee": "",
            "blockNumber": 10687508,
            "callData": "0xa9059cbb000000000000000000000000cce8d59affdd93be338fc77fa0a298c2cb65da5900000000000000000000000000000000000000000000000000012dbdcdb57200",
            "debugEnable": true,
            "errorInfo": "",
            "eventCount": 1,
            "feeRecipient": "0x5a0b54d5dc17e0aadc383d2db43b0a0d3e029c4c",
            "formatValue": "0",
            "gasLimit": 60000,
            "gasPrice": "109",
            "gasUsed": 22194,
            "intTxnCount": 0,
            "internalRevert": false,
            "internalRevertMessage": "",
            "isContractCreation": false,
            "isFlashloan": false,
            "maxFee": "",
            "nonce": 9,
            "overwritedBlockNumber": -1,
            "priorityFee": "",
            "receiver": "0xc12d1c73ee7dc3615ba4e37e4abfdbddfa38907e",
            "revertMessage": "",
            "sender": "0xf482d744b043719db0436e20f31834c79163ada1",
            "simulationEnable": true,
            "sourceTxnHash": "0x536cfa4daf0447046092ca819b09a3fb1875acfafcf21dae87384c4469c822cc",
            "status": true,
            "timestamp": "2020-08-19T01:13:54Z",
            "transactionFee": "0.002419146",
            "txnHash": "0x536cfa4daf0447046092ca819b09a3fb1875acfafcf21dae87384c4469c822cc",
            "txnIndex": 214,
            "type": 0,
            "value": "0"
        },
        "fund_flow": [
            {
                "amount": "3,317,682",
                "from": "0xf482d744b043719db0436e20f31834c79163ada1",
                "id": 1,
                "isERC1155": false,
                "isERC721": false,
                "isReverted": false,
                "order": 1,
                "to": "0xcce8d59affdd93be338fc77fa0a298c2cb65da59",
                "token": "0xc12d1c73ee7dc3615ba4e37e4abfdbddfa38907e"
            }
        ],
        "token_infos": [
            {
                "address": "0xc02aaa39b223fe8d0a0e5c4f27ead9083c756cc2",
                "decimals": 18
            },
            {
                "address": "0xc12d1c73ee7dc3615ba4e37e4abfdbddfa38907e",
                "decimals": 8
            },
            {
                "address": "0xeeeeeeeeeeeeeeeeeeeeeeeeeeeeeeeeeeeeeeee",
                "decimals": 18
            }
        ]
    },
    "address_label": {
        "labels": [
            {
                "address": "0xeeeeeeeeeeeeeeeeeeeeeeeeeeeeeeeeeeeeeeee",
                "label": "Ether"
            },
            {
                "address": "0xc12d1c73ee7dc3615ba4e37e4abfdbddfa38907e",
                "label": "KickICO: Old KICK Token"
            },
            {
                "address": "0xcce8d59affdd93be338fc77fa0a298c2cb65da59",
                "label": "Bilaxy 2"
            },
            {
                "address": "0x0000000000000000000000000000000000000001",
                "label": "Precompiled"
            },
            {
                "address": "0x0000000000000000000000000000000000000002",
                "label": "Precompiled"
            },
            {
                "address": "0x0000000000000000000000000000000000000003",
                "label": "Precompiled"
            },
            {
                "address": "0x0000000000000000000000000000000000000004",
                "label": "Precompiled"
            }
        ]
    },
    "trace": {
        "accountLabels": null,
        "dataMap": {
            "-1": {
                "invocation": {
                    "address": "0xf482d744b043719db0436e20f31834c79163ada1",
                    "callData": "",
                    "decodedMethod": null,
                    "errorInfo": "",
                    "fromAddress": "",
                    "gasUsed": 0,
                    "id": -1,
                    "methodDecoded": false,
                    "operation": "",
                    "output": "",
                    "revert": false,
                    "revertMessage": "",
                    "selector": "",
                    "status": false,
                    "value": ""
                },
                "nodeType": 0
            },
            "0": {
                "invocation": {
                    "address": "0xc12d1c73ee7dc3615ba4e37e4abfdbddfa38907e",
                    "callData": "0x000000000000000000000000cce8d59affdd93be338fc77fa0a298c2cb65da5900000000000000000000000000000000000000000000000000012dbdcdb57200",
                    "decodedMethod": {
                        "callParams": [
                            {
                                "name": "recipient",
                                "type": "address",
                                "value": "0xcce8d59affdd93be338fc77fa0a298c2cb65da59"
                            },
                            {
                                "decimalAvailable": true,
                                "name": "amount",
                                "type": "uint256",
                                "value": "331,768,200,000,000"
                            }
                        ],
                        "constructorArguments": "",
                        "name": "transfer",
                        "returnParams": [
                            {
                                "name": "",
                                "type": "bool",
                                "value": true
                            }
                        ],
                        "signature": "transfer(address,uint256)"
                    },
                    "errorInfo": "",
                    "fromAddress": "0xf482d744b043719db0436e20f31834c79163ada1",
                    "gasUsed": 22194,
                    "id": 0,
                    "methodDecoded": true,
                    "operation": "CALL",
                    "output": "0x0000000000000000000000000000000000000000000000000000000000000001",
                    "revert": false,
                    "revertMessage": "",
                    "selector": "0xa9059cbb",
                    "status": true,
                    "value": "0"
                },
                "nodeType": 0
            },
            "1": {
                "event": {
                    "contract": "0xc12d1c73ee7dc3615ba4e37e4abfdbddfa38907e",
                    "decodedLog": {
                        "name": "Transfer",
                        "params": [
                            {
                                "name": "from",
                                "type": "address",
                                "value": "0xf482d744b043719db0436e20f31834c79163ada1"
                            },
                            {
                                "name": "to",
                                "type": "address",
                                "value": "0xcce8d59affdd93be338fc77fa0a298c2cb65da59"
                            },
                            {
                                "decimalAvailable": true,
                                "name": "value",
                                "type": "uint256",
                                "value": "331,768,200,000,000"
                            }
                        ],
                        "signature": "Transfer(address,address,uint256)"
                    },
                    "id": 1,
                    "logData": "0x00000000000000000000000000000000000000000000000000012dbdcdb57200",
                    "logDecoded": true,
                    "operation": "EVENT",
                    "revert": false,
                    "status": true,
                    "topics": [
                        "0xddf252ad1be2c89b69c2b068fc378daa952ba7f163c4a11628f55a4df523b3ef",
                        "0x000000000000000000000000f482d744b043719db0436e20f31834c79163ada1",
                        "0x000000000000000000000000cce8d59affdd93be338fc77fa0a298c2cb65da59"
                    ]
                },
                "nodeType": 1
            }
        },
        "gasFlame": [
            {
                "children": [
                    {
                        "children": [
                            {
                                "children": [],
                                "depth": 0,
                                "name": "Initial Gas",
                                "value": 21632
                            },
                            {
                                "children": [],
                                "depth": 0,
                                "name": "Executed Gas",
                                "value": 15562
                            }
                        ],
                        "depth": -1,
                        "name": "Actual Gas Used",
                        "value": 22194
                    },
                    {
                        "children": [],
                        "depth": -1,
                        "name": "Refunded Gas",
                        "value": 15000
                    }
                ],
                "depth": -2,
                "name": "Total Gas",
                "value": 37194
            }
        ],
        "isConfirmed": true,
        "mainTrace": [
            {
                "children": [
                    {
                        "children": [
                            {
                                "children": [],
                                "depth": 1,
                                "id": 1,
                                "order": 1
                            }
                        ],
                        "depth": 0,
                        "id": 0,
                        "order": 0
                    }
                ],
                "depth": -1,
                "id": -1,
                "order": -1
            }
        ],
        "mainTraceNodeCount": 2,
        "parentIdMap": {
            "0": -1,
            "1": 0
        },
        "tidyTrace": [
            {
                "children": [
                    {
                        "children": [
                            {
                                "children": [],
                                "depth": 1,
                                "id": 1,
                                "order": 1
                            }
                        ],
                        "depth": 0,
                        "id": 0,
                        "order": 0
                    }
                ],
                "depth": -1,
                "id": -1,
                "order": -1
            }
        ],
        "tidyTraceNodeCount": 2
    },
    "state_change": {
        "stateChanges": [
            {
                "address": "0xc12d1c73ee7dc3615ba4e37e4abfdbddfa38907e",
                "erc": "ERC-20",
                "slots": [
                    {
                        "current": "0x0000000000000000000000000000000000000000000000000000000000000000",
                        "key": "0x5e905bebb6db63976ae935ac4ffb81995aedf542661bad288551cbb77d70ad76",
                        "prev": "0x00000000000000000000000000000000000000000000000000012dbdcdb57200"
                    },
                    {
                        "current": "0x000000000000000000000000000000000000000000000000002a45dc304d3ba7",
                        "key": "0xf22978bb0935f454ace443fc6b10f07ac08c46a23183c1e04533d8e931e0eb99",
                        "prev": "0x0000000000000000000000000000000000000000000000000029181e6297c9a7"
                    }
                ],
                "storageVariables": [
                    {
                        "name": "_balances",
                        "type": "mapping(address => uint256)",
                        "value": {
                            "pairs": [
                                {
                                    "key": "0xcce8d59affdd93be338fc77fa0a298c2cb65da59",
                                    "value": {
                                        "current": "11898761027337127",
                                        "prev": "11566992827337127",
                                        "typeTag": 1
                                    }
                                },
                                {
                                    "key": "0xf482d744b043719db0436e20f31834c79163ada1",
                                    "value": {
                                        "current": "0",
                                        "prev": "331768200000000",
                                        "typeTag": 1
                                    }
                                }
                            ],
                            "typeTag": 4
                        }
                    }
                ]
            }
        ]
    }
}