{
    "balance_change": {
        "balanceChanges": [
            {
                "account": "0x7f202a4b8cdb2176cd64e55f3db3cbf5c7d2cf6f",
                "assets": [
                    {
                        "address": "0xeeeeeeeeeeeeeeeeeeeeeeeeeeeeeeeeeeeeeeee",
                        "amount": "0.073",
                        "iconUrl": "https://assets.blocksec.com/image/1663669189317-3.png",
                        "isERC1155": false,
                        "isERC721": false,
                        "sign": false,
                        "value": "97.98102063632570958"
                    },
                    {
                        "address": "0x0283d310d682284ebc24db33a41bb5a01bdd140b",
                        "amount": "19,792.43618982695235899",
                        "iconUrl": "",
                        "isERC1155": false,
                        "isERC721": false,
                        "sign": true,
                        "value": "142.3235191"
                    }
                ]
            },
            {
                "account": "0xaa1656b7d4629476fa4cf76ccfbc01a4653bac71",
                "assets": [
                    {
                        "address": "0xc02aaa39b223fe8d0a0e5c4f27ead9083c756cc2",
                        "amount": "0.073",
                        "iconUrl": "https://assets.blocksec.com/icon/f1cb2d02c471d545bbc7722daf3277fd852d98e63d118771af7047bd8256c516.png",
                        "isERC1155": false,
                        "isERC721": false,
                        "sign": true,
                        "value": "97.98102063632570958"
                    },
                    {
                        "address": "0x0283d310d682284ebc24db33a41bb5a01bdd140b",
                        "amount": "19,792.43618982695235899",
                        "iconUrl": "",
                        "isERC1155": false,
                        "isERC721": false,
                        "sign": false,
                        "value": "142.3235191"
                    }
                ]
            },
            {
                "account": "0xc02aaa39b223fe8d0a0e5c4f27ead9083c756cc2",
                "assets": [
                    {
                        "address": "0xc02aaa39b223fe8d0a0e5c4f27ead9083c756cc2",
                        "amount": "0.073",
                        "iconUrl": "https://assets.blocksec.com/icon/f1cb2d02c471d545bbc7722daf3277fd852d98e63d118771af7047bd8256c516.png",
                        "isERC1155": false,
                        "isERC721": false,
                        "sign": false,
                        "value": "97.98102063632570958"
                    },
                    {
                        "address": "0xeeeeeeeeeeeeeeeeeeeeeeeeeeeeeeeeeeeeeeee",
                        "amount": "0.073",
                        "iconUrl": "https://assets.blocksec.com/image/1663669189317-3.png",
                        "isERC1155": false,
                        "isERC721": false,
                        "sign": true,
                        "value": "97.98102063632570958"
                    }
                ]
            }
        ]
    },
    "profile": {
        "basic_info": {
            "baseFee": "19.189317244",
            "blockNumber": 16385423,
            "callData": "0x5ae401dc0000000000000000000000000000000000000000000000000000000063bf086700000000000000000000000000000000000000000000000000000000000000400000000000000000000000000000000000000000000000000000000000000001000000000000000000000000000000000000000000000000000000000000002000000000000000000000000000000000000000000000000000000000000000e4472b43f30000000000000000000000000000000000000000000000000103591cfc9a80000000000000000000000000000000000000000000000003efbb51db6c1993da3d00000000000000000000000000000000000000000000000000000000000000800000000000000000000000007f202a4b8cdb2176cd64e55f3db3cbf5c7d2cf6f0000000000000000000000000000000000000000000000000000000000000002000000000000000000000000c02aaa39b223fe8d0a0e5c4f27ead9083c756cc20000000000000000000000000283d310d682284ebc24db33a41bb5a01bdd140b00000000000000000000000000000000000000000000000000000000",
            "debugEnable": true,
            "errorInfo": "",
            "eventCount": 5,
            "feeRecipient": "0x95222290dd7278aa3ddd389cc1e1d165cc4bafe5",
            "formatValue": "0.073",
            "gasLimit": 242910,
            "gasPrice": "20.689317244",
            "gasUsed": 170208,
            "intTxnCount": 15,
            "internalRevert": false,
            "internalRevertMessage": "",
            "isContractCreation": false,
            "isFlashloan": false,
            "maxFee": "33.297418358",
            "nonce": 2099,
            "overwritedBlockNumber": -1,
            "priorityFee": "1.5",
            "receiver": "0x68b3465833fb72a70ecdf485e0e4c7bd8665fc45",
            "revertMessage": "",
            "sender": "0x7f202a4b8cdb2176cd64e55f3db3cbf5c7d2cf6f",
            "simulationEnable": true,
            "sourceTxnHash": "0x531ae2b36e8649bb38bd9b2621471b006acf0bd542097eb198fc4f04894f04df",
            "status": true,
            "timestamp": "2023-01-11T18:42:35Z",
            "transactionFee": "0.003521487309466752",
            "txnHash": "0x531ae2b36e8649bb38bd9b2621471b006acf0bd542097eb198fc4f04894f04df",
            "txnIndex": 131,
            "type": 2,
            "value": "73000000000000000"
        },
        "fund_flow": [
            {
                "amount": "0.073",
                "from": "0x7f202a4b8cdb2176cd64e55f3db3cbf5c7d2cf6f",
                "id": 1,
                "isERC1155": false,
                "isERC721": false,
                "isReverted": false,
                "order": 1,
                "to": "0x68b3465833fb72a70ecdf485e0e4c7bd8665fc45",
                "token": "0xeeeeeeeeeeeeeeeeeeeeeeeeeeeeeeeeeeeeeeee"
            },
            {
                "amount": "0.073",
                "from": "0x68b3465833fb72a70ecdf485e0e4c7bd8665fc45",
                "id": 2,
                "isERC1155": false,
                "isERC721": false,
                "isReverted": false,
                "order": 2,
                "to": "0xc02aaa39b223fe8d0a0e5c4f27ead9083c756cc2",
                "token": "0xeeeeeeeeeeeeeeeeeeeeeeeeeeeeeeeeeeeeeeee"
            },
            {
                "amount": "0.073",
                "from": "0xc02aaa39b223fe8d0a0e5c4f27ead9083c756cc2",
                "id": 3,
                "isERC1155": false,
                "isERC721": false,
                "isReverted": false,
                "order": 3,
                "to": "0x68b3465833fb72a70ecdf485e0e4c7bd8665fc45",
                "token": "0xc02aaa39b223fe8d0a0e5c4f27ead9083c756cc2"
            },
            {
                "amount": "0.073",
                "from": "0x68b3465833fb72a70ecdf485e0e4c7bd8665fc45",
                "id": 4,
                "isERC1155": false,
                "isERC721": false,
                "isReverted": false,
                "order": 4,
                "to": "0xaa1656b7d4629476fa4cf76ccfbc01a4653bac71",
                "token": "0xc02aaa39b223fe8d0a0e5c4f27ead9083c756cc2"
            },
            {
                "amount": "19,792.43618982695235899",
                "from": "0xaa1656b7d4629476fa4cf76ccfbc01a4653bac71",
                "id": 5,
                "isERC1155": false,
                "isERC721": false,
                "isReverted": false,
                "order": 5,
                "to": "0x7f202a4b8cdb2176cd64e55f3db3cbf5c7d2cf6f",
                "token": "0x0283d310d682284ebc24db33a41bb5a01bdd140b"
            }
        ],
        "token_infos": [
            {
                "address": "0x0283d310d682284ebc24db33a41bb5a01bdd140b",
                "decimals": 18
            },
            {
                "address": "0xc02aaa39b223fe8d0a0e5c4f27ead9083c756cc2",
                "decimals": 18
            },
            {
                "address": "0xeeeeeeeeeeeeeeeeeeeeeeeeeeeeeeeeeeeeeeee",
                "decimals": 18
            }
        ]
    },
    "address_label": {
        "labels": [
            {
                "address": "0x0000000000000000000000000000000000000003",
                "label": "Precompiled"
            },
            {
                "address": "0x0000000000000000000000000000000000000004",
                "label": "Precompiled"
            },
            {
                "address": "0xaa1656b7d4629476fa4cf76ccfbc01a4653bac71",
                "label": "Uniswap V2: BEEP 7"
            },
            {
                "address": "0x0283d310d682284ebc24db33a41bb5a01bdd140b",
                "label": "$BEEP - AI TOKEN OPERATING SYSTEM (BEEP)"
            },
            {
                "address": "0x68b3465833fb72a70ecdf485e0e4c7bd8665fc45",
                "label": "Uniswap V3: Router 2"
            },
            {
                "address": "0x0156ed5a74f9d271479553de71a572848d78da0b",
                "label": "DynamicTaxHandler"
            },
            {
                "address": "0x0000000000000000000000000000000000000001",
                "label": "Precompiled"
            },
            {
                "address": "0x0000000000000000000000000000000000000002",
                "label": "Precompiled"
            },
            {
                "address": "0xeeeeeeeeeeeeeeeeeeeeeeeeeeeeeeeeeeeeeeee",
                "label": "Ether"
            },
            {
                "address": "0xc02aaa39b223fe8d0a0e5c4f27ead9083c756cc2",
                "label": "Wrapped Ether (WETH)"
            },
            {
                "address": "0x33555f2008405660d04f128dc17e6ee01b77c4e7",
                "label": "TreasuryHandlerAlpha"
            }
        ]
    },
    "trace": {
        "accountLabels": null,
        "dataMap": {
            "-1": {
                "invocation": {
                    "address": "0x7f202a4b8cdb2176cd64e55f3db3cbf5c7d2cf6f",
                    "callData": "",
                    "decodedMethod": null,
                    "errorInfo": "",
                    "fromAddress": "",
                    "gasUsed": 0,
                    "id": -1,
                    "methodDecoded": false,
                    "operation": "",
                    "output": "",
                    "revert": false,
                    "revertMessage": "",
                    "selector": "",
                    "status": false,
                    "value": ""
                },
                "nodeType": 0
            },
            "0": {
                "invocation": {
                    "address": "0x68b3465833fb72a70ecdf485e0e4c7bd8665fc45",
                    "callData": "0x0000000000000000000000000000000000000000000000000000000063bf086700000000000000000000000000000000000000000000000000000000000000400000000000000000000000000000000000000000000000000000000000000001000000000000000000000000000000000000000000000000000000000000002000000000000000000000000000000000000000000000000000000000000000e4472b43f30000000000000000000000000000000000000000000000000103591cfc9a80000000000000000000000000000000000000000000000003efbb51db6c1993da3d00000000000000000000000000000000000000000000000000000000000000800000000000000000000000007f202a4b8cdb2176cd64e55f3db3cbf5c7d2cf6f0000000000000000000000000000000000000000000000000000000000000002000000000000000000000000c02aaa39b223fe8d0a0e5c4f27ead9083c756cc20000000000000000000000000283d310d682284ebc24db33a41bb5a01bdd140b00000000000000000000000000000000000000000000000000000000",
                    "decodedMethod": {
                        "callParams": [
                            {
                                "name": "deadline",
                                "type": "uint256",
                                "value": "1,673,463,911"
                            },
                            {
                                "name": "data",
                                "type": "bytes[]",
                                "value": [
                                    "0x472b43f30000000000000000000000000000000000000000000000000103591cfc9a80000000000000000000000000000000000000000000000003efbb51db6c1993da3d00000000000000000000000000000000000000000000000000000000000000800000000000000000000000007f202a4b8cdb2176cd64e55f3db3cbf5c7d2cf6f0000000000000000000000000000000000000000000000000000000000000002000000000000000000000000c02aaa39b223fe8d0a0e5c4f27ead9083c756cc20000000000000000000000000283d310d682284ebc24db33a41bb5a01bdd140b"
                                ]
                            }
                        ],
                        "constructorArguments": "",
                        "name": "multicall",
                        "returnParams": [
                            {
                                "name": "",
                                "type": "bytes[]",
                                "value": [
                                    "0x000000000000000000000000000000000000000000000430f33ac9d38d626c4e"
                                ]
                            }
                        ],
                        "signature": "multicall(uint256,bytes[])"
                    },
                    "errorInfo": "",
                    "fromAddress": "0x7f202a4b8cdb2176cd64e55f3db3cbf5c7d2cf6f",
                    "gasUsed": 170208,
                    "id": 0,
                    "methodDecoded": true,
                    "operation": "CALL",
                    "output": "0x0000000000000000000000000000000000000000000000000000000000000020000000000000000000000000000000000000000000000000000000000000000100000000000000000000000000000000000000000000000000000000000000200000000000000000000000000000000000000000000000000000000000000020000000000000000000000000000000000000000000000430f33ac9d38d626c4e",
                    "revert": false,
                    "revertMessage": "",
                    "selector": "0x5ae401dc",
                    "status": true,
                    "value": "0.073"
                },
                "nodeType": 0
            },
            "1": {
                "invocation": {
                    "address": "0x68b3465833fb72a70ecdf485e0e4c7bd8665fc45",
                    "callData": "0x0000000000000000000000000000000000000000000000000103591cfc9a80000000000000000000000000000000000000000000000003efbb51db6c1993da3d00000000000000000000000000000000000000000000000000000000000000800000000000000000000000007f202a4b8cdb2176cd64e55f3db3cbf5c7d2cf6f0000000000000000000000000000000000000000000000000000000000000002000000000000000000000000c02aaa39b223fe8d0a0e5c4f27ead9083c756cc20000000000000000000000000283d310d682284ebc24db33a41bb5a01bdd140b",
                    "decodedMethod": {
                        "callParams": [
                            {
                                "name": "amountIn",
                                "type": "uint256",
                                "value": "73,000,000,000,000,000"
                            },
                            {
                                "name": "amountOutMin",
                                "type": "uint256",
                                "value": "18,589,369,093,041,056,635,453"
                            },
                            {
                                "name": "path",
                                "type": "address[]",
                                "value": [
                                    "0xc02aaa39b223fe8d0a0e5c4f27ead9083c756cc2",
                                    "0x0283d310d682284ebc24db33a41bb5a01bdd140b"
                                ]
                            },
                            {
                                "name": "to",
                                "type": "address",
                                "value": "0x7f202a4b8cdb2176cd64e55f3db3cbf5c7d2cf6f"
                            }
                        ],
                        "constructorArguments": "",
                        "name": "swapExactTokensForTokens",
                        "returnParams": [
                            {
                                "name": "amountOut",
                                "type": "uint256",
                                "value": "19,792,436,189,826,952,358,990"
                            }
                        ],
                        "signature": "swapExactTokensForTokens(uint256,uint256,address[],address)"
                    },
                    "errorInfo": "",
                    "fromAddress": "0x68b3465833fb72a70ecdf485e0e4c7bd8665fc45",
                    "gasUsed": 172510,
                    "id": 1,
                    "methodDecoded": true,
                    "operation": "DELEGATECALL",
                    "output": "0x000000000000000000000000000000000000000000000430f33ac9d38d626c4e",
                    "revert": false,
                    "revertMessage": "",
                    "selector": "0x472b43f3",
                    "status": true,
                    "value": "0.073"
                },
                "nodeType": 0
            },
            "10": {
                "invocation": {
                    "address": "0x0283d310d682284ebc24db33a41bb5a01bdd140b",
                    "callData": "0x0000000000000000000000007f202a4b8cdb2176cd64e55f3db3cbf5c7d2cf6f000000000000000000000000000000000000000000000430f33ac9d38d626c4e",
                    "decodedMethod": {
                        "callParams": [
                            {
                                "name": "recipient",
                                "type": "address",
                                "value": "0x7f202a4b8cdb2176cd64e55f3db3cbf5c7d2cf6f"
                            },
                            {
                                "decimalAvailable": true,
                                "name": "amount",
                                "type": "uint256",
                                "value": "19,792,436,189,826,952,358,990"
                            }
                        ],
                        "constructorArguments": "",
                        "name": "transfer",
                        "returnParams": [
                            {
                                "name": "",
                                "type": "bool",
                                "value": true
                            }
                        ],
                        "signature": "transfer(address,uint256)"
                    },
                    "errorInfo": "",
                    "fromAddress": "0xaa1656b7d4629476fa4cf76ccfbc01a4653bac71",
                    "gasUsed": 77989,
                    "id": 10,
                    "methodDecoded": true,
                    "operation": "CALL",
                    "output": "0x0000000000000000000000000000000000000000000000000000000000000001",
                    "revert": false,
                    "revertMessage": "",
                    "selector": "0xa9059cbb",
                    "status": true,
                    "value": "0"
                },
                "nodeType": 0
            },
            "11": {
                "invocation": {
                    "address": "0x33555f2008405660d04f128dc17e6ee01b77c4e7",
                    "callData": "0x000000000000000000000000aa1656b7d4629476fa4cf76ccfbc01a4653bac710000000000000000000000007f202a4b8cdb2176cd64e55f3db3cbf5c7d2cf6f000000000000000000000000000000000000000000000430f33ac9d38d626c4e",
                    "decodedMethod": {
                        "callParams": [
                            {
                                "name": "benefactor",
                                "type": "address",
                                "value": "0xaa1656b7d4629476fa4cf76ccfbc01a4653bac71"
                            },
                            {
                                "name": "beneficiary",
                                "type": "address",
                                "value": "0x7f202a4b8cdb2176cd64e55f3db3cbf5c7d2cf6f"
                            },
                            {
                                "name": "amount",
                                "type": "uint256",
                                "value": "19,792,436,189,826,952,358,990"
                            }
                        ],
                        "constructorArguments": "",
                        "name": "beforeTransferHandler",
                        "returnParams": [],
                        "signature": "beforeTransferHandler(address,address,uint256)"
                    },
                    "errorInfo": "",
                    "fromAddress": "0x0283d310d682284ebc24db33a41bb5a01bdd140b",
                    "gasUsed": 8419,
                    "id": 11,
                    "methodDecoded": true,
                    "operation": "CALL",
                    "output": "",
                    "revert": false,
                    "revertMessage": "",
                    "selector": "0xc6512cc1",
                    "status": true,
                    "value": "0"
                },
                "nodeType": 0
            },
            "12": {
                "invocation": {
                    "address": "0x0156ed5a74f9d271479553de71a572848d78da0b",
                    "callData": "0x000000000000000000000000aa1656b7d4629476fa4cf76ccfbc01a4653bac710000000000000000000000007f202a4b8cdb2176cd64e55f3db3cbf5c7d2cf6f000000000000000000000000000000000000000000000430f33ac9d38d626c4e",
                    "decodedMethod": {
                        "callParams": [
                            {
                                "name": "benefactor",
                                "type": "address",
                                "value": "0xaa1656b7d4629476fa4cf76ccfbc01a4653bac71"
                            },
                            {
                                "name": "beneficiary",
                                "type": "address",
                                "value": "0x7f202a4b8cdb2176cd64e55f3db3cbf5c7d2cf6f"
                            },
                            {
                                "name": "amount",
                                "type": "uint256",
                                "value": "19,792,436,189,826,952,358,990"
                            }
                        ],
                        "constructorArguments": "",
                        "name": "getTax",
                        "returnParams": [
                            {
                                "name": "",
                                "type": "uint256",
                                "value": "0"
                            }
                        ],
                        "signature": "getTax(address,address,uint256)"
                    },
                    "errorInfo": "",
                    "fromAddress": "0x0283d310d682284ebc24db33a41bb5a01bdd140b",
                    "gasUsed": 24359,
                    "id": 12,
                    "methodDecoded": true,
                    "operation": "STATICCALL",
                    "output": "0x0000000000000000000000000000000000000000000000000000000000000000",
                    "revert": false,
                    "revertMessage": "",
                    "selector": "0xd7ad21ac",
                    "status": true,
                    "value": "0"
                },
                "nodeType": 0
            },
            "13": {
                "invocation": {
                    "address": "0x0283d310d682284ebc24db33a41bb5a01bdd140b",
                    "callData": "0x000000000000000000000000aa1656b7d4629476fa4cf76ccfbc01a4653bac71",
                    "decodedMethod": {
                        "callParams": [
                            {
                                "name": "account",
                                "type": "address",
                                "value": "0xaa1656b7d4629476fa4cf76ccfbc01a4653bac71"
                            }
                        ],
                        "constructorArguments": "",
                        "name": "balanceOf",
                        "returnParams": [
                            {
                                "decimalAvailable": true,
                                "name": "",
                                "type": "uint256",
                                "value": "13,286,790,381,646,297,945,461,393"
                            }
                        ],
                        "signature": "balanceOf(address)"
                    },
                    "errorInfo": "",
                    "fromAddress": "0x0156ed5a74f9d271479553de71a572848d78da0b",
                    "gasUsed": 886,
                    "id": 13,
                    "methodDecoded": true,
                    "operation": "STATICCALL",
                    "output": "0x0000000000000000000000000000000000000000000afd9659903acfa539d291",
                    "revert": false,
                    "revertMessage": "",
                    "selector": "0x70a08231",
                    "status": true,
                    "value": "0"
                },
                "nodeType": 0
            },
            "14": {
                "invocation": {
                    "address": "0x33555f2008405660d04f128dc17e6ee01b77c4e7",
                    "callData": "0x000000000000000000000000aa1656b7d4629476fa4cf76ccfbc01a4653bac710000000000000000000000007f202a4b8cdb2176cd64e55f3db3cbf5c7d2cf6f000000000000000000000000000000000000000000000430f33ac9d38d626c4e",
                    "decodedMethod": {
                        "callParams": [
                            {
                                "name": "benefactor",
                                "type": "address",
                                "value": "0xaa1656b7d4629476fa4cf76ccfbc01a4653bac71"
                            },
                            {
                                "name": "beneficiary",
                                "type": "address",
                                "value": "0x7f202a4b8cdb2176cd64e55f3db3cbf5c7d2cf6f"
                            },
                            {
                                "name": "amount",
                                "type": "uint256",
                                "value": "19,792,436,189,826,952,358,990"
                            }
                        ],
                        "constructorArguments": "",
                        "name": "afterTransferHandler",
                        "returnParams": [],
                        "signature": "afterTransferHandler(address,address,uint256)"
                    },
                    "errorInfo": "",
                    "fromAddress": "0x0283d310d682284ebc24db33a41bb5a01bdd140b",
                    "gasUsed": 4113,
                    "id": 14,
                    "methodDecoded": true,
                    "operation": "CALL",
                    "output": "",
                    "revert": false,
                    "revertMessage": "",
                    "selector": "0xe613b1cd",
                    "status": true,
                    "value": "0"
                },
                "nodeType": 0
            },
            "15": {
                "event": {
                    "contract": "0x0283d310d682284ebc24db33a41bb5a01bdd140b",
                    "decodedLog": {
                        "name": "Transfer",
                        "params": [
                            {
                                "name": "from",
                                "type": "address",
                                "value": "0xaa1656b7d4629476fa4cf76ccfbc01a4653bac71"
                            },
                            {
                                "name": "to",
                                "type": "address",
                                "value": "0x7f202a4b8cdb2176cd64e55f3db3cbf5c7d2cf6f"
                            },
                            {
                                "decimalAvailable": true,
                                "name": "value",
                                "type": "uint256",
                                "value": "19,792,436,189,826,952,358,990"
                            }
                        ],
                        "signature": "Transfer(address,address,uint256)"
                    },
                    "id": 15,
                    "logData": "0x000000000000000000000000000000000000000000000430f33ac9d38d626c4e",
                    "logDecoded": true,
                    "operation": "EVENT",
                    "revert": false,
                    "status": true,
                    "topics": [
                        "0xddf252ad1be2c89b69c2b068fc378daa952ba7f163c4a11628f55a4df523b3ef",
                        "0x000000000000000000000000aa1656b7d4629476fa4cf76ccfbc01a4653bac71",
                        "0x0000000000000000000000007f202a4b8cdb2176cd64e55f3db3cbf5c7d2cf6f"
                    ]
                },
                "nodeType": 1
            },
            "16": {
                "invocation": {
                    "address": "0x0283d310d682284ebc24db33a41bb5a01bdd140b",
                    "callData": "0x000000000000000000000000aa1656b7d4629476fa4cf76ccfbc01a4653bac71",
                    "decodedMethod": {
                        "callParams": [
                            {
                                "name": "account",
                                "type": "address",
                                "value": "0xaa1656b7d4629476fa4cf76ccfbc01a4653bac71"
                            }
                        ],
                        "constructorArguments": "",
                        "name": "balanceOf",
                        "returnParams": [
                            {
                                "decimalAvailable": true,
                                "name": "",
                                "type": "uint256",
                                "value": "13,266,997,945,456,470,993,102,403"
                            }
                        ],
                        "signature": "balanceOf(address)"
                    },
                    "errorInfo": "",
                    "fromAddress": "0xaa1656b7d4629476fa4cf76ccfbc01a4653bac71",
                    "gasUsed": 886,
                    "id": 16,
                    "methodDecoded": true,
                    "operation": "STATICCALL",
                    "output": "0x0000000000000000000000000000000000000000000af965665570fc17d76643",
                    "revert": false,
                    "revertMessage": "",
                    "selector": "0x70a08231",
                    "status": true,
                    "value": "0"
                },
                "nodeType": 0
            },
            "17": {
                "invocation": {
                    "address": "0xc02aaa39b223fe8d0a0e5c4f27ead9083c756cc2",
                    "callData": "0x000000000000000000000000aa1656b7d4629476fa4cf76ccfbc01a4653bac71",
                    "decodedMethod": {
                        "callParams": [
                            {
                                "name": "",
                                "type": "address",
                                "value": "0xaa1656b7d4629476fa4cf76ccfbc01a4653bac71"
                            }
                        ],
                        "constructorArguments": "",
                        "name": "balanceOf",
                        "returnParams": [
                            {
                                "decimalAvailable": true,
                                "name": "",
                                "type": "uint256",
                                "value": "48,858,574,863,420,067,138"
                            }
                        ],
                        "signature": "balanceOf(address)"
                    },
                    "errorInfo": "",
                    "fromAddress": "0xaa1656b7d4629476fa4cf76ccfbc01a4653bac71",
                    "gasUsed": 534,
                    "id": 17,
                    "methodDecoded": true,
                    "operation": "STATICCALL",
                    "output": "0x000000000000000000000000000000000000000000000002a60c86f975fb8d42",
                    "revert": false,
                    "revertMessage": "",
                    "selector": "0x70a08231",
                    "status": true,
                    "value": "0"
                },
                "nodeType": 0
            },
            "18": {
                "event": {
                    "contract": "0xaa1656b7d4629476fa4cf76ccfbc01a4653bac71",
                    "decodedLog": {
                        "name": "Sync",
                        "params": [
                            {
                                "name": "reserve0",
                                "type": "uint112",
                                "value": "13,266,997,945,456,470,993,102,403"
                            },
                            {
                                "name": "reserve1",
                                "type": "uint112",
                                "value": "48,858,574,863,420,067,138"
                            }
                        ],
                        "signature": "Sync(uint112,uint112)"
                    },
                    "id": 18,
                    "logData": "0x0000000000000000000000000000000000000000000af965665570fc17d76643000000000000000000000000000000000000000000000002a60c86f975fb8d42",
                    "logDecoded": true,
                    "operation": "EVENT",
                    "revert": false,
                    "status": true,
                    "topics": [
                        "0x1c411e9a96e071241c2f21f7726b17ae89e3cab4c78be50e062b03a9fffbbad1"
                    ]
                },
                "nodeType": 1
            },
            "19": {
                "event": {
                    "contract": "0xaa1656b7d4629476fa4cf76ccfbc01a4653bac71",
                    "decodedLog": {
                        "name": "Swap",
                        "params": [
                            {
                                "name": "sender",
                                "type": "address",
                                "value": "0x68b3465833fb72a70ecdf485e0e4c7bd8665fc45"
                            },
                            {
                                "name": "to",
                                "type": "address",
                                "value": "0x7f202a4b8cdb2176cd64e55f3db3cbf5c7d2cf6f"
                            },
                            {
                                "name": "amount0In",
                                "type": "uint256",
                                "value": "0"
                            },
                            {
                                "name": "amount1In",
                                "type": "uint256",
                                "value": "73,000,000,000,000,000"
                            },
                            {
                                "name": "amount0Out",
                                "type": "uint256",
                                "value": "19,792,436,189,826,952,358,990"
                            },
                            {
                                "name": "amount1Out",
                                "type": "uint256",
                                "value": "0"
                            }
                        ],
                        "signature": "Swap(address,uint256,uint256,uint256,uint256,address)"
                    },
                    "id": 19,
                    "logData": "0x00000000000000000000000000000000000000000000000000000000000000000000000000000000000000000000000000000000000000000103591cfc9a8000000000000000000000000000000000000000000000000430f33ac9d38d626c4e0000000000000000000000000000000000000000000000000000000000000000",
                    "logDecoded": true,
                    "operation": "EVENT",
                    "revert": false,
                    "status": true,
                    "topics": [
                        "0xd78ad95fa46c994b6551d0da85fc275fe613ce37657fb8d5e3d130840159d822",
                        "0x00000000000000000000000068b3465833fb72a70ecdf485e0e4c7bd8665fc45",
                        "0x0000000000000000000000007f202a4b8cdb2176cd64e55f3db3cbf5c7d2cf6f"
                    ]
                },
                "nodeType": 1
            },
            "2": {
                "invocation": {
                    "address": "0xc02aaa39b223fe8d0a0e5c4f27ead9083c756cc2",
                    "callData": "0x",
                    "decodedMethod": {
                        "callParams": [],
                        "constructorArguments": "",
                        "name": "deposit",
                        "returnParams": [],
                        "signature": "deposit()"
                    },
                    "errorInfo": "",
                    "fromAddress": "0x68b3465833fb72a70ecdf485e0e4c7bd8665fc45",
                    "gasUsed": 23974,
                    "id": 2,
                    "methodDecoded": true,
                    "operation": "CALL",
                    "output": "",
                    "revert": false,
                    "revertMessage": "",
                    "selector": "0xd0e30db0",
                    "status": true,
                    "value": "0.073"
                },
                "nodeType": 0
            },
            "20": {
                "invocation": {
                    "address": "0x0283d310d682284ebc24db33a41bb5a01bdd140b",
                    "callData": "0x0000000000000000000000007f202a4b8cdb2176cd64e55f3db3cbf5c7d2cf6f",
                    "decodedMethod": {
                        "callParams": [
                            {
                                "name": "account",
                                "type": "address",
                                "value": "0x7f202a4b8cdb2176cd64e55f3db3cbf5c7d2cf6f"
                            }
                        ],
                        "constructorArguments": "",
                        "name": "balanceOf",
                        "returnParams": [
                            {
                                "decimalAvailable": true,
                                "name": "",
                                "type": "uint256",
                                "value": "19,792,436,189,826,952,358,990"
                            }
                        ],
                        "signature": "balanceOf(address)"
                    },
                    "errorInfo": "",
                    "fromAddress": "0x68b3465833fb72a70ecdf485e0e4c7bd8665fc45",
                    "gasUsed": 886,
                    "id": 20,
                    "methodDecoded": true,
                    "operation": "STATICCALL",
                    "output": "0x000000000000000000000000000000000000000000000430f33ac9d38d626c4e",
                    "revert": false,
                    "revertMessage": "",
                    "selector": "0x70a08231",
                    "status": true,
                    "value": "0"
                },
                "nodeType": 0
            },
            "3": {
                "event": {
                    "contract": "0xc02aaa39b223fe8d0a0e5c4f27ead9083c756cc2",
                    "decodedLog": {
                        "name": "Deposit",
                        "params": [
                            {
                                "name": "dst",
                                "type": "address",
                                "value": "0x68b3465833fb72a70ecdf485e0e4c7bd8665fc45"
                            },
                            {
                                "name": "wad",
                                "type": "uint256",
                                "value": "73,000,000,000,000,000"
                            }
                        ],
                        "signature": "Deposit(address,uint256)"
                    },
                    "id": 3,
                    "logData": "0x0000000000000000000000000000000000000000000000000103591cfc9a8000",
                    "logDecoded": true,
                    "operation": "EVENT",
                    "revert": false,
                    "status": true,
                    "topics": [
                        "0xe1fffcc4923d04b559f4d29a8bfc6cda04eb5b0d3c460751c2402c5c5cc9109c",
                        "0x00000000000000000000000068b3465833fb72a70ecdf485e0e4c7bd8665fc45"
                    ]
                },
                "nodeType": 1
            },
            "4": {
                "invocation": {
                    "address": "0xc02aaa39b223fe8d0a0e5c4f27ead9083c756cc2",
                    "callData": "0x000000000000000000000000aa1656b7d4629476fa4cf76ccfbc01a4653bac710000000000000000000000000000000000000000000000000103591cfc9a8000",
                    "decodedMethod": {
                        "callParams": [
                            {
                                "name": "dst",
                                "type": "address",
                                "value": "0xaa1656b7d4629476fa4cf76ccfbc01a4653bac71"
                            },
                            {
                                "decimalAvailable": true,
                                "name": "wad",
                                "type": "uint256",
                                "value": "73,000,000,000,000,000"
                            }
                        ],
                        "constructorArguments": "",
                        "name": "transfer",
                        "returnParams": [
                            {
                                "name": "",
                                "type": "bool",
                                "value": true
                            }
                        ],
                        "signature": "transfer(address,uint256)"
                    },
                    "errorInfo": "",
                    "fromAddress": "0x68b3465833fb72a70ecdf485e0e4c7bd8665fc45",
                    "gasUsed": 8062,
                    "id": 4,
                    "methodDecoded": true,
                    "operation": "CALL",
                    "output": "0x0000000000000000000000000000000000000000000000000000000000000001",
                    "revert": false,
                    "revertMessage": "",
                    "selector": "0xa9059cbb",
                    "status": true,
                    "value": "0"
                },
                "nodeType": 0
            },
            "5": {
                "event": {
                    "contract": "0xc02aaa39b223fe8d0a0e5c4f27ead9083c756cc2",
                    "decodedLog": {
                        "name": "Transfer",
                        "params": [
                            {
                                "name": "src",
                                "type": "address",
                                "value": "0x68b3465833fb72a70ecdf485e0e4c7bd8665fc45"
                            },
                            {
                                "name": "dst",
                                "type": "address",
                                "value": "0xaa1656b7d4629476fa4cf76ccfbc01a4653bac71"
                            },
                            {
                                "decimalAvailable": true,
                                "name": "wad",
                                "type": "uint256",
                                "value": "73,000,000,000,000,000"
                            }
                        ],
                        "signature": "Transfer(address,address,uint256)"
                    },
                    "id": 5,
                    "logData": "0x0000000000000000000000000000000000000000000000000103591cfc9a8000",
                    "logDecoded": true,
                    "operation": "EVENT",
                    "revert": false,
                    "status": true,
                    "topics": [
                        "0xddf252ad1be2c89b69c2b068fc378daa952ba7f163c4a11628f55a4df523b3ef",
                        "0x00000000000000000000000068b3465833fb72a70ecdf485e0e4c7bd8665fc45",
                        "0x000000000000000000000000aa1656b7d4629476fa4cf76ccfbc01a4653bac71"
                    ]
                },
                "nodeType": 1
            },
            "6": {
                "invocation": {
                    "address": "0x0283d310d682284ebc24db33a41bb5a01bdd140b",
                    "callData": "0x0000000000000000000000007f202a4b8cdb2176cd64e55f3db3cbf5c7d2cf6f",
                    "decodedMethod": {
                        "callParams": [
                            {
                                "name": "account",
                                "type": "address",
                                "value": "0x7f202a4b8cdb2176cd64e55f3db3cbf5c7d2cf6f"
                            }
                        ],
                        "constructorArguments": "",
                        "name": "balanceOf",
                        "returnParams": [
                            {
                                "decimalAvailable": true,
                                "name": "",
                                "type": "uint256",
                                "value": "0"
                            }
                        ],
                        "signature": "balanceOf(address)"
                    },
                    "errorInfo": "",
                    "fromAddress": "0x68b3465833fb72a70ecdf485e0e4c7bd8665fc45",
                    "gasUsed": 2886,
                    "id": 6,
                    "methodDecoded": true,
                    "operation": "STATICCALL",
                    "output": "0x0000000000000000000000000000000000000000000000000000000000000000",
                    "revert": false,
                    "revertMessage": "",
                    "selector": "0x70a08231",
                    "status": true,
                    "value": "0"
                },
                "nodeType": 0
            },
            "7": {
                "invocation": {
                    "address": "0xaa1656b7d4629476fa4cf76ccfbc01a4653bac71",
                    "callData": "0x",
                    "decodedMethod": {
                        "callParams": [],
                        "constructorArguments": "",
                        "name": "getReserves",
                        "returnParams": [
                            {
                                "name": "_reserve0",
                                "type": "uint112",
                                "value": "13,286,790,381,646,297,945,461,393"
                            },
                            {
                                "name": "_reserve1",
                                "type": "uint112",
                                "value": "48,785,574,863,420,067,138"
                            },
                            {
                                "name": "_blockTimestampLast",
                                "type": "uint32",
                                "value": "1,673,462,375"
                            }
                        ],
                        "signature": "getReserves()"
                    },
                    "errorInfo": "",
                    "fromAddress": "0x68b3465833fb72a70ecdf485e0e4c7bd8665fc45",
                    "gasUsed": 2504,
                    "id": 7,
                    "methodDecoded": true,
                    "operation": "STATICCALL",
                    "output": "0x0000000000000000000000000000000000000000000afd9659903acfa539d291000000000000000000000000000000000000000000000002a5092ddc79610d420000000000000000000000000000000000000000000000000000000063bf0267",
                    "revert": false,
                    "revertMessage": "",
                    "selector": "0x0902f1ac",
                    "status": true,
                    "value": "0"
                },
                "nodeType": 0
            },
            "8": {
                "invocation": {
                    "address": "0xc02aaa39b223fe8d0a0e5c4f27ead9083c756cc2",
                    "callData": "0x000000000000000000000000aa1656b7d4629476fa4cf76ccfbc01a4653bac71",
                    "decodedMethod": {
                        "callParams": [
                            {
                                "name": "",
                                "type": "address",
                                "value": "0xaa1656b7d4629476fa4cf76ccfbc01a4653bac71"
                            }
                        ],
                        "constructorArguments": "",
                        "name": "balanceOf",
                        "returnParams": [
                            {
                                "decimalAvailable": true,
                                "name": "",
                                "type": "uint256",
                                "value": "48,858,574,863,420,067,138"
                            }
                        ],
                        "signature": "balanceOf(address)"
                    },
                    "errorInfo": "",
                    "fromAddress": "0x68b3465833fb72a70ecdf485e0e4c7bd8665fc45",
                    "gasUsed": 534,
                    "id": 8,
                    "methodDecoded": true,
                    "operation": "STATICCALL",
                    "output": "0x000000000000000000000000000000000000000000000002a60c86f975fb8d42",
                    "revert": false,
                    "revertMessage": "",
                    "selector": "0x70a08231",
                    "status": true,
                    "value": "0"
                },
                "nodeType": 0
            },
            "9": {
                "invocation": {
                    "address": "0xaa1656b7d4629476fa4cf76ccfbc01a4653bac71",
                    "callData": "0x000000000000000000000000000000000000000000000430f33ac9d38d626c4e00000000000000000000000000000000000000000000000000000000000000000000000000000000000000007f202a4b8cdb2176cd64e55f3db3cbf5c7d2cf6f00000000000000000000000000000000000000000000000000000000000000800000000000000000000000000000000000000000000000000000000000000000",
                    "decodedMethod": {
                        "callParams": [
                            {
                                "name": "amount0Out",
                                "type": "uint256",
                                "value": "19,792,436,189,826,952,358,990"
                            },
                            {
                                "name": "amount1Out",
                                "type": "uint256",
                                "value": "0"
                            },
                            {
                                "name": "to",
                                "type": "address",
                                "value": "0x7f202a4b8cdb2176cd64e55f3db3cbf5c7d2cf6f"
                            },
                            {
                                "name": "data",
                                "type": "bytes",
                                "value": "0x"
                            }
                        ],
                        "constructorArguments": "",
                        "name": "swap",
                        "returnParams": [],
                        "signature": "swap(uint256,uint256,address,bytes)"
                    },
                    "errorInfo": "",
                    "fromAddress": "0x68b3465833fb72a70ecdf485e0e4c7bd8665fc45",
                    "gasUsed": 110732,
                    "id": 9,
                    "methodDecoded": true,
                    "operation": "CALL",
                    "output": "",
                    "revert": false,
                    "revertMessage": "",
                    "selector": "0x022c0d9f",
                    "status": true,
                    "value": "0"
                },
                "nodeType": 0
            }
        },
        "gasFlame": [
            {
                "children": [
                    {
                        "children": [
                            {
                                "children": [],
                                "depth": 0,
                                "name": "Initial Gas",
                                "value": 23820
                            },
                            {
                                "children": [
                                    {
                                        "children": [
                                            {
                                                "children": [],
                                                "depth": 2,
                                                "name": "deposit",
                                                "value": 23974
                                            },
                                            {
                                                "children": [],
                                                "depth": 2,
                                                "name": "transfer",
                                                "value": 8062
                                            },
                                            {
                                                "children": [],
                                                "depth": 2,
                                                "name": "balanceOf",
                                                "value": 2886
                                            },
                                            {
                                                "children": [],
                                                "depth": 2,
                                                "name": "getReserves",
                                                "value": 2504
                                            },
                                            {
                                                "children": [],
                                                "depth": 2,
                                                "name": "balanceOf",
                                                "value": 534
                                            },
                                            {
                                                "children": [
                                                    {
                                                        "children": [
                                                            {
                                                                "children": [],
                                                                "depth": 4,
                                                                "name": "beforeTransferHandler",
                                                                "value": 8419
                                                            },
                                                            {
                                                                "children": [
                                                                    {
                                                                        "children": [],
                                                                        "depth": 5,
                                                                        "name": "balanceOf",
                                                                        "value": 886
                                                                    }
                                                                ],
                                                                "depth": 4,
                                                                "name": "getTax",
                                                                "value": 24359
                                                            },
                                                            {
                                                                "children": [],
                                                                "depth": 4,
                                                                "name": "afterTransferHandler",
                                                                "value": 4113
                                                            }
                                                        ],
                                                        "depth": 3,
                                                        "name": "transfer",
                                                        "value": 77989
                                                    },
                                                    {
                                                        "children": [],
                                                        "depth": 3,
                                                        "name": "balanceOf",
                                                        "value": 886
                                                    },
                                                    {
                                                        "children": [],
                                                        "depth": 3,
                                                        "name": "balanceOf",
                                                        "value": 534
                                                    }
                                                ],
                                                "depth": 2,
                                                "name": "swap",
                                                "value": 110732
                                            },
                                            {
                                                "children": [],
                                                "depth": 2,
                                                "name": "balanceOf",
                                                "value": 886
                                            }
                                        ],
                                        "depth": 1,
                                        "name": "swapExactTokensForTokens",
                                        "value": 172510
                                    }
                                ],
                                "depth": 0,
                                "name": "Executed Gas",
                                "value": 174688
                            }
                        ],
                        "depth": -1,
                        "name": "Actual Gas Used",
                        "value": 170208
                    },
                    {
                        "children": [],
                        "depth": -1,
                        "name": "Refunded Gas",
                        "value": 28300
                    }
                ],
                "depth": -2,
                "name": "Total Gas",
                "value": 198508
            }
        ],
        "isConfirmed": true,
        "mainTrace": [
            {
                "children": [
                    {
                        "children": [
                            {
                                "children": [
                                    {
                                        "children": [
                                            {
                                                "children": [],
                                                "depth": 3,
                                                "id": 3,
                                                "order": 3
                                            }
                                        ],
                                        "depth": 2,
                                        "id": 2,
                                        "order": 2
                                    },
                                    {
                                        "children": [
                                            {
                                                "children": [],
                                                "depth": 3,
                                                "id": 5,
                                                "order": 5
                                            }
                                        ],
                                        "depth": 2,
                                        "id": 4,
                                        "order": 4
                                    },
                                    {
                                        "children": [],
                                        "depth": 2,
                                        "id": 6,
                                        "order": 6
                                    },
                                    {
                                        "children": [],
                                        "depth": 2,
                                        "id": 7,
                                        "order": 7
                                    },
                                    {
                                        "children": [],
                                        "depth": 2,
                                        "id": 8,
                                        "order": 8
                                    },
                                    {
                                        "children": [
                                            {
                                                "children": [
                                                    {
                                                        "children": [],
                                                        "depth": 4,
                                                        "id": 11,
                                                        "order": 11
                                                    },
                                                    {
                                                        "children": [
                                                            {
                                                                "children": [],
                                                                "depth": 5,
                                                                "id": 13,
                                                                "order": 13
                                                            }
                                                        ],
                                                        "depth": 4,
                                                        "id": 12,
                                                        "order": 12
                                                    },
                                                    {
                                                        "children": [],
                                                        "depth": 4,
                                                        "id": 14,
                                                        "order": 14
                                                    },
                                                    {
                                                        "children": [],
                                                        "depth": 4,
                                                        "id": 15,
                                                        "order": 15
                                                    }
                                                ],
                                                "depth": 3,
                                                "id": 10,
                                                "order": 10
                                            },
                                            {
                                                "children": [],
                                                "depth": 3,
                                                "id": 16,
                                                "order": 16
                                            },
                                            {
                                                "children": [],
                                                "depth": 3,
                                                "id": 17,
                                                "order": 17
                                            },
                                            {
                                                "children": [],
                                                "depth": 3,
                                                "id": 18,
                                                "order": 18
                                            },
                                            {
                                                "children": [],
                                                "depth": 3,
                                                "id": 19,
                                                "order": 19
                                            }
                                        ],
                                        "depth": 2,
                                        "id": 9,
                                        "order": 9
                                    },
                                    {
                                        "children": [],
                                        "depth": 2,
                                        "id": 20,
                                        "order": 20
                                    }
                                ],
                                "depth": 1,
                                "id": 1,
                                "order": 1
                            }
                        ],
                        "depth": 0,
                        "id": 0,
                        "order": 0
                    }
                ],
                "depth": -1,
                "id": -1,
                "order": -1
            }
        ],
        "mainTraceNodeCount": 21,
        "parentIdMap": {
            "0": -1,
            "1": 0,
            "10": 9,
            "11": 10,
            "12": 10,
            "13": 12,
            "14": 10,
            "15": 10,
            "16": 9,
            "17": 9,
            "18": 9,
            "19": 9,
            "2": 1,
            "20": 1,
            "3": 2,
            "4": 1,
            "5": 4,
            "6": 1,
            "7": 1,
            "8": 1,
            "9": 1
        },
        "tidyTrace": [
            {
                "children": [
                    {
                        "children": [
                            {
                                "children": [
                                    {
                                        "children": [
                                            {
                                                "children": [],
                                                "depth": 3,
                                                "id": 3,
                                                "order": 3
                                            }
                                        ],
                                        "depth": 2,
                                        "id": 2,
                                        "order": 2
                                    },
                                    {
                                        "children": [
                                            {
                                                "children": [],
                                                "depth": 3,
                                                "id": 5,
                                                "order": 5
                                            }
                                        ],
                                        "depth": 2,
                                        "id": 4,
                                        "order": 4
                                    },
                                    {
                                        "children": [
                                            {
                                                "children": [
                                                    {
                                                        "children": [],
                                                        "depth": 4,
                                                        "id": 11,
                                                        "order": 11
                                                    },
                                                    {
                                                        "children": [],
                                                        "depth": 4,
                                                        "id": 14,
                                                        "order": 14
                                                    },
                                                    {
                                                        "children": [],
                                                        "depth": 4,
                                                        "id": 15,
                                                        "order": 15
                                                    }
                                                ],
                                                "depth": 3,
                                                "id": 10,
                                                "order": 10
                                            },
                                            {
                                                "children": [],
                                                "depth": 3,
                                                "id": 18,
                                                "order": 18
                                            },
                                            {
                                                "children": [],
                                                "depth": 3,
                                                "id": 19,
                                                "order": 19
                                            }
                                        ],
                                        "depth": 2,
                                        "id": 9,
                                        "order": 9
                                    }
                                ],
                                "depth": 1,
                                "id": 1,
                                "order": 1
                            }
                        ],
                        "depth": 0,
                        "id": 0,
                        "order": 0
                    }
                ],
                "depth": -1,
                "id": -1,
                "order": -1
            }
        ],
        "tidyTraceNodeCount": 13
    },
    "state_change": {
        "stateChanges": [
            {
                "address": "0x0283d310d682284ebc24db33a41bb5a01bdd140b",
                "erc": "ERC-20",
                "slots": [
                    {
                        "current": "0x0000000000000000000000000000000000000000000af965665570fc17d76643",
                        "key": "0x4130703cd6588f512a390d4d768c3b7d5d3a300717958ffa2090d757d52530c7",
                        "prev": "0x0000000000000000000000000000000000000000000afd9659903acfa539d291"
                    },
                    {
                        "current": "0x000000000000000000000000000000000000000000000430f33ac9d38d626c4e",
                        "key": "0x71ce174482671b77a67788d8ee65d068269ae88a868bec7258131abe3ce19c92",
                        "prev": "0x0000000000000000000000000000000000000000000000000000000000000000"
                    }
                ],
                "storageVariables": [
                    {
                        "name": "_balances",
                        "type": "mapping(address => uint256)",
                        "value": {
                            "pairs": [
                                {
                                    "key": "0x7f202a4b8cdb2176cd64e55f3db3cbf5c7d2cf6f",
                                    "value": {
                                        "current": "19792436189826952358990",
                                        "prev": "0",
                                        "typeTag": 1
                                    }
                                },
                                {
                                    "key": "0xaa1656b7d4629476fa4cf76ccfbc01a4653bac71",
                                    "value": {
                                        "current": "13266997945456470993102403",
                                        "prev": "13286790381646297945461393",
                                        "typeTag": 1
                                    }
                                }
                            ],
                            "typeTag": 4
                        }
                    }
                ]
            },
            {
                "address": "0xaa1656b7d4629476fa4cf76ccfbc01a4653bac71",
                "erc": "ERC-20",
                "slots": [
                    {
                        "current": "0x00000000000000000000000001bb2243d56535eccc9d1a4a79720de293c3cb04",
                        "key": "0x000000000000000000000000000000000000000000000000000000000000000a",
                        "prev": "0x00000000000000000000000001bb1f57ccbd10f61b65c5ef14e5ef795dc07be0"
                    },
                    {
                        "current": "0x63bf031b000000000002a60c86f975fb8d420000000af965665570fc17d76643",
                        "key": "0x0000000000000000000000000000000000000000000000000000000000000008",
                        "prev": "0x63bf0267000000000002a5092ddc79610d420000000afd9659903acfa539d291"
                    },
                    {
                        "current": "0x00000000000000000000000000000000000869ad473faae25124f7f3cb4f7f10",
                        "key": "0x0000000000000000000000000000000000000000000000000000000000000009",
                        "prev": "0x0000000000000000000000000000000000086981f6fadc898c58c8db0c73921c"
                    }
                ],
                "storageVariables": [
                    {
                        "name": "price1CumulativeLast",
                        "type": "uint256",
                        "value": {
                            "current": "9882215023240408416742673389946212594080795396",
                            "prev": "9881960480523072004539378768613610788627708896",
                            "typeTag": 1
                        }
                    },
                    {
                        "name": "reserve0",
                        "type": "uint112",
                        "value": {
                            "current": "13266997945456470993102403",
                            "prev": "13286790381646297945461393",
                            "typeTag": 1
                        }
                    },
                    {
                        "name": "reserve1",
                        "type": "uint112",
                        "value": {
                            "current": "48858574863420067138",
                            "prev": "48785574863420067138",
                            "typeTag": 1
                        }
                    },
                    {
                        "name": "blockTimestampLast",
                        "type": "uint32",
                        "value": {
                            "current": "1673462555",
                            "prev": "1673462375",
                            "typeTag": 1
                        }
                    },
                    {
                        "name": "price0CumulativeLast",
                        "type": "uint256",
                        "value": {
                            "current": "43681756399182015217702973326982928",
                            "prev": "43678324746211715420075425709396508",
                            "typeTag": 1
                        }
                    }
                ]
            },
            {
                "address": "0xc02aaa39b223fe8d0a0e5c4f27ead9083c756cc2",
                "erc": "ERC-20",
                "slots": [
                    {
                        "current": "0x000000000000000000000000000000000000000000000002a60c86f975fb8d42",
                        "key": "0x9e48e37e5dc51e69fd3558c90ecb7b88c0b22355432fce072089c2fb9644fea3",
                        "prev": "0x000000000000000000000000000000000000000000000002a5092ddc79610d42"
                    }
                ],
                "storageVariables": [
                    {
                        "name": "balanceOf",
                        "type": "mapping(address => uint256)",
                        "value": {
                            "pairs": [
                                {
                                    "key": "0xaa1656b7d4629476fa4cf76ccfbc01a4653bac71",
                                    "value": {
                                        "current": "48858574863420067138",
                                        "prev": "48785574863420067138",
                                        "typeTag": 1
                                    }
                                }
                            ],
                            "typeTag": 4
                        }
                    }
                ]
            }
        ]
    }
}