{
    "balance_change": {
        "balanceChanges": [
            {
                "account": "0xee37f338220479c8f652e3557f02513bdb11c160",
                "assets": [
                    {
                        "address": "0x0000000000085d4780b73119b644ae5ecd22b376",
                        "amount": "300",
                        "iconUrl": "https://assets.blocksec.com/icon/67253da83e8ec0bc4adc998fae95ccd612ecf76a66cb8dd38ca9b97c929a1250.png",
                        "isERC1155": false,
                        "isERC721": false,
                        "sign": false,
                        "value": ""
                    }
                ]
            },
            {
                "account": "0x0eee3e3828a45f7601d5f54bf49bb01d1a9df5ea",
                "assets": [
                    {
                        "address": "0x0000000000085d4780b73119b644ae5ecd22b376",
                        "amount": "300",
                        "iconUrl": "https://assets.blocksec.com/icon/67253da83e8ec0bc4adc998fae95ccd612ecf76a66cb8dd38ca9b97c929a1250.png",
                        "isERC1155": false,
                        "isERC721": false,
                        "sign": true,
                        "value": ""
                    }
                ]
            }
        ]
    },
    "profile": {
        "basic_info": {
            "baseFee": "",
            "blockNumber": 9657597,
            "callData": "0xabdb5ea80000000000000000000000000000000000085d4780b73119b644ae5ecd22b37600000000000000000000000000000000000000000000001043561a8829300000",
            "debugEnable": true,
            "errorInfo": "",
            "eventCount": 2,
            "feeRecipient": "0x5a0b54d5dc17e0aadc383d2db43b0a0d3e029c4c",
            "formatValue": "0",
            "gasLimit": 232351,
            "gasPrice": "150",
            "gasUsed": 139736,
            "intTxnCount": 17,
            "internalRevert": false,
            "internalRevertMessage": "",
            "isContractCreation": false,
            "isFlashloan": false,
            "maxFee": "",
            "nonce": 2162,
            "overwritedBlockNumber": -1,
            "priorityFee": "",
            "receiver": "0x0eee3e3828a45f7601d5f54bf49bb01d1a9df5ea",
            "revertMessage": "",
            "sender": "0xee37f338220479c8f652e3557f02513bdb11c160",
            "simulationEnable": true,
            "sourceTxnHash": "0x54ee6a62d36bfd50d27b641f6d691f9ff8f48287ebae4daf68cac3721f4cd037",
            "status": true,
            "timestamp": "2020-03-12T15:42:49Z",
            "transactionFee": "0.0209604",
            "txnHash": "0x54ee6a62d36bfd50d27b641f6d691f9ff8f48287ebae4daf68cac3721f4cd037",
            "txnIndex": 96,
            "type": 0,
            "value": "0"
        },
        "fund_flow": [
            {
                "amount": "300",
                "from": "0xee37f338220479c8f652e3557f02513bdb11c160",
                "id": 1,
                "isERC1155": false,
                "isERC721": false,
                "isReverted": false,
                "order": 1,
                "to": "0x0eee3e3828a45f7601d5f54bf49bb01d1a9df5ea",
                "token": "0x0000000000085d4780b73119b644ae5ecd22b376"
            }
        ],
        "token_infos": [
            {
                "address": "0x0000000000085d4780b73119b644ae5ecd22b376",
                "decimals": 18
            },
            {
                "address": "0xc02aaa39b223fe8d0a0e5c4f27ead9083c756cc2",
                "decimals": 18
            },
            {
                "address": "0xeeeeeeeeeeeeeeeeeeeeeeeeeeeeeeeeeeeeeeee",
                "decimals": 18
            }
        ]
    },
    "address_label": {
        "labels": [
            {
                "address": "0x0000000000000000000000000000000000000001",
                "label": "Precompiled"
            },
            {
                "address": "0x0000000000000000000000000000000000000002",
                "label": "Precompiled"
            },
            {
                "address": "0x0000000000000000000000000000000000000004",
                "label": "Precompiled"
            },
            {
                "address": "0x0000000000085d4780b73119b644ae5ecd22b376",
                "label": "TrueUSD: TUSD Token"
            },
            {
                "address": "0xcb9a11afdc6bdb92e4a6235959455f28758b34ba",
                "label": "TrueUSD (TUSD)"
            },
            {
                "address": "0x0eee3e3828a45f7601d5f54bf49bb01d1a9df5ea",
                "label": "Lendf.Me"
            },
            {
                "address": "0x0000000000000000000000000000000000000000",
                "label": "Null Address"
            },
            {
                "address": "0xeeeeeeeeeeeeeeeeeeeeeeeeeeeeeeeeeeeeeeee",
                "label": "Ether"
            },
            {
                "address": "0x0000000000000000000000000000000000000003",
                "label": "Precompiled"
            }
        ]
    },
    "trace": {
        "accountLabels": null,
        "dataMap": {
            "-1": {
                "invocation": {
                    "address": "0xee37f338220479c8f652e3557f02513bdb11c160",
                    "callData": "",
                    "decodedMethod": null,
                    "errorInfo": "",
                    "fromAddress": "",
                    "gasUsed": 0,
                    "id": -1,
                    "methodDecoded": false,
                    "operation": "",
                    "output": "",
                    "revert": false,
                    "revertMessage": "",
                    "selector": "",
                    "status": false,
                    "value": ""
                },
                "nodeType": 0
            },
            "0": {
                "invocation": {
                    "address": "0x0eee3e3828a45f7601d5f54bf49bb01d1a9df5ea",
                    "callData": "0x0000000000000000000000000000000000085d4780b73119b644ae5ecd22b37600000000000000000000000000000000000000000000001043561a8829300000",
                    "decodedMethod": {
                        "callParams": [
                            {
                                "name": "asset",
                                "type": "address",
                                "value": "0x0000000000085d4780b73119b644ae5ecd22b376"
                            },
                            {
                                "name": "amount",
                                "type": "uint256",
                                "value": "300,000,000,000,000,000,000"
                            }
                        ],
                        "constructorArguments": "",
                        "name": "repayBorrow",
                        "returnParams": [
                            {
                                "name": "",
                                "type": "uint256",
                                "value": "0"
                            }
                        ],
                        "signature": "repayBorrow(address,uint256)"
                    },
                    "errorInfo": "",
                    "fromAddress": "0xee37f338220479c8f652e3557f02513bdb11c160",
                    "gasUsed": 139736,
                    "id": 0,
                    "methodDecoded": true,
                    "operation": "CALL",
                    "output": "0x0000000000000000000000000000000000000000000000000000000000000000",
                    "revert": false,
                    "revertMessage": "",
                    "selector": "0xabdb5ea8",
                    "status": true,
                    "value": "0"
                },
                "nodeType": 0
            },
            "1": {
                "invocation": {
                    "address": "0x0000000000085d4780b73119b644ae5ecd22b376",
                    "callData": "0x000000000000000000000000ee37f338220479c8f652e3557f02513bdb11c1600000000000000000000000000eee3e3828a45f7601d5f54bf49bb01d1a9df5ea",
                    "decodedMethod": {
                        "callParams": [
                            {
                                "name": "_who",
                                "type": "address",
                                "value": "0xee37f338220479c8f652e3557f02513bdb11c160"
                            },
                            {
                                "name": "_spender",
                                "type": "address",
                                "value": "0x0eee3e3828a45f7601d5f54bf49bb01d1a9df5ea"
                            }
                        ],
                        "constructorArguments": "",
                        "name": "allowance",
                        "returnParams": [
                            {
                                "decimalAvailable": true,
                                "name": "",
                                "type": "uint256",
                                "value": "115,792,089,237,316,195,423,570,985,008,687,907,853,269,984,665,640,564,039,457,584,007,913,129,639,935"
                            }
                        ],
                        "signature": "allowance(address,address)"
                    },
                    "errorInfo": "",
                    "fromAddress": "0x0eee3e3828a45f7601d5f54bf49bb01d1a9df5ea",
                    "gasUsed": 4078,
                    "id": 1,
                    "methodDecoded": true,
                    "operation": "CALL",
                    "output": "0xffffffffffffffffffffffffffffffffffffffffffffffffffffffffffffffff",
                    "revert": false,
                    "revertMessage": "",
                    "selector": "0xdd62ed3e",
                    "status": true,
                    "value": "0"
                },
                "nodeType": 0
            },
            "10": {
                "invocation": {
                    "address": "0xcb9a11afdc6bdb92e4a6235959455f28758b34ba",
                    "callData": "0x0000000000000000000000000eee3e3828a45f7601d5f54bf49bb01d1a9df5ea",
                    "decodedMethod": {
                        "callParams": [
                            {
                                "name": "_who",
                                "type": "address",
                                "value": "0x0eee3e3828a45f7601d5f54bf49bb01d1a9df5ea"
                            }
                        ],
                        "constructorArguments": "",
                        "name": "balanceOf",
                        "returnParams": [
                            {
                                "decimalAvailable": true,
                                "name": "",
                                "type": "uint256",
                                "value": "304,775,021,316,781,105,028,191"
                            }
                        ],
                        "signature": "balanceOf(address)"
                    },
                    "errorInfo": "",
                    "fromAddress": "0x0000000000085d4780b73119b644ae5ecd22b376",
                    "gasUsed": 1636,
                    "id": 10,
                    "methodDecoded": true,
                    "operation": "DELEGATECALL",
                    "output": "0x000000000000000000000000000000000000000000004089e3133057fb411c5f",
                    "revert": false,
                    "revertMessage": "",
                    "selector": "0x70a08231",
                    "status": true,
                    "value": "0"
                },
                "nodeType": 0
            },
            "11": {
                "invocation": {
                    "address": "0x0eee3e3828a45f7601d5f54bf49bb01d1a9df5ea",
                    "callData": "0x",
                    "decodedMethod": {
                        "callParams": [],
                        "constructorArguments": "",
                        "name": "oracle",
                        "returnParams": [
                            {
                                "name": "",
                                "type": "address",
                                "value": "0xb620707637c5b2cc49843a03d90e28d9abbda149"
                            }
                        ],
                        "signature": "oracle()"
                    },
                    "errorInfo": "",
                    "fromAddress": "0x79be3be94b8d25f6628c616a99fa09094bcf3712",
                    "gasUsed": 1464,
                    "id": 11,
                    "methodDecoded": true,
                    "operation": "CALL",
                    "output": "0x000000000000000000000000b620707637c5b2cc49843a03d90e28d9abbda149",
                    "revert": false,
                    "revertMessage": "",
                    "selector": "0x7dc0d1d0",
                    "status": true,
                    "value": "0"
                },
                "nodeType": 0
            },
            "12": {
                "invocation": {
                    "address": "0xb620707637c5b2cc49843a03d90e28d9abbda149",
                    "callData": "0x",
                    "decodedMethod": {
                        "callParams": [],
                        "constructorArguments": "",
                        "name": "mostRecentCaller",
                        "returnParams": [
                            {
                                "name": "",
                                "type": "address",
                                "value": "0xee37f338220479c8f652e3557f02513bdb11c160"
                            }
                        ],
                        "signature": "mostRecentCaller()"
                    },
                    "errorInfo": "",
                    "fromAddress": "0x79be3be94b8d25f6628c616a99fa09094bcf3712",
                    "gasUsed": 1043,
                    "id": 12,
                    "methodDecoded": true,
                    "operation": "CALL",
                    "output": "0x000000000000000000000000ee37f338220479c8f652e3557f02513bdb11c160",
                    "revert": false,
                    "revertMessage": "",
                    "selector": "0xbe59b4b1",
                    "status": true,
                    "value": "0"
                },
                "nodeType": 0
            },
            "13": {
                "invocation": {
                    "address": "0xb620707637c5b2cc49843a03d90e28d9abbda149",
                    "callData": "0x",
                    "decodedMethod": {
                        "callParams": [],
                        "constructorArguments": "",
                        "name": "mostRecentBlock",
                        "returnParams": [
                            {
                                "name": "",
                                "type": "uint256",
                                "value": "9,657,594"
                            }
                        ],
                        "signature": "mostRecentBlock()"
                    },
                    "errorInfo": "",
                    "fromAddress": "0x79be3be94b8d25f6628c616a99fa09094bcf3712",
                    "gasUsed": 1006,
                    "id": 13,
                    "methodDecoded": true,
                    "operation": "CALL",
                    "output": "0x0000000000000000000000000000000000000000000000000000000000935cfa",
                    "revert": false,
                    "revertMessage": "",
                    "selector": "0x6084747f",
                    "status": true,
                    "value": "0"
                },
                "nodeType": 0
            },
            "14": {
                "invocation": {
                    "address": "0x0000000000085d4780b73119b644ae5ecd22b376",
                    "callData": "0x000000000000000000000000ee37f338220479c8f652e3557f02513bdb11c1600000000000000000000000000eee3e3828a45f7601d5f54bf49bb01d1a9df5ea00000000000000000000000000000000000000000000001043561a8829300000",
                    "decodedMethod": {
                        "callParams": [
                            {
                                "name": "_from",
                                "type": "address",
                                "value": "0xee37f338220479c8f652e3557f02513bdb11c160"
                            },
                            {
                                "name": "_to",
                                "type": "address",
                                "value": "0x0eee3e3828a45f7601d5f54bf49bb01d1a9df5ea"
                            },
                            {
                                "decimalAvailable": true,
                                "name": "_value",
                                "type": "uint256",
                                "value": "300,000,000,000,000,000,000"
                            }
                        ],
                        "constructorArguments": "",
                        "name": "transferFrom",
                        "returnParams": [
                            {
                                "name": "",
                                "type": "bool",
                                "value": true
                            }
                        ],
                        "signature": "transferFrom(address,address,uint256)"
                    },
                    "errorInfo": "",
                    "fromAddress": "0x0eee3e3828a45f7601d5f54bf49bb01d1a9df5ea",
                    "gasUsed": 44853,
                    "id": 14,
                    "methodDecoded": true,
                    "operation": "CALL",
                    "output": "0x0000000000000000000000000000000000000000000000000000000000000001",
                    "revert": false,
                    "revertMessage": "",
                    "selector": "0x23b872dd",
                    "status": true,
                    "value": "0"
                },
                "nodeType": 0
            },
            "15": {
                "invocation": {
                    "address": "0xcb9a11afdc6bdb92e4a6235959455f28758b34ba",
                    "callData": "0x000000000000000000000000ee37f338220479c8f652e3557f02513bdb11c1600000000000000000000000000eee3e3828a45f7601d5f54bf49bb01d1a9df5ea00000000000000000000000000000000000000000000001043561a8829300000",
                    "decodedMethod": {
                        "callParams": [
                            {
                                "name": "_from",
                                "type": "address",
                                "value": "0xee37f338220479c8f652e3557f02513bdb11c160"
                            },
                            {
                                "name": "_to",
                                "type": "address",
                                "value": "0x0eee3e3828a45f7601d5f54bf49bb01d1a9df5ea"
                            },
                            {
                                "decimalAvailable": true,
                                "name": "_value",
                                "type": "uint256",
                                "value": "300,000,000,000,000,000,000"
                            }
                        ],
                        "constructorArguments": "",
                        "name": "transferFrom",
                        "returnParams": [
                            {
                                "name": "",
                                "type": "bool",
                                "value": true
                            }
                        ],
                        "signature": "transferFrom(address,address,uint256)"
                    },
                    "errorInfo": "",
                    "fromAddress": "0x0000000000085d4780b73119b644ae5ecd22b376",
                    "gasUsed": 42842,
                    "id": 15,
                    "methodDecoded": true,
                    "operation": "DELEGATECALL",
                    "output": "0x0000000000000000000000000000000000000000000000000000000000000001",
                    "revert": false,
                    "revertMessage": "",
                    "selector": "0x23b872dd",
                    "status": true,
                    "value": "0"
                },
                "nodeType": 0
            },
            "16": {
                "invocation": {
                    "address": "0x95685716083003dc3af67db47561a463ec6db5a3",
                    "callData": "0x",
                    "decodedMethod": null,
                    "errorInfo": "",
                    "fromAddress": "0x0000000000085d4780b73119b644ae5ecd22b376",
                    "gasUsed": 5024,
                    "id": 16,
                    "methodDecoded": false,
                    "operation": "CALL",
                    "output": "",
                    "revert": false,
                    "revertMessage": "",
                    "selector": "fallback",
                    "status": true,
                    "value": "0"
                },
                "nodeType": 0
            },
            "17": {
                "invocation": {
                    "address": "0x0000000000000000000000000000000000000000",
                    "callData": "",
                    "decodedMethod": null,
                    "errorInfo": "",
                    "fromAddress": "0x95685716083003dc3af67db47561a463ec6db5a3",
                    "gasUsed": 0,
                    "id": 17,
                    "methodDecoded": false,
                    "operation": "SELFDESTRUCT",
                    "output": "",
                    "revert": false,
                    "revertMessage": "",
                    "selector": "",
                    "status": true,
                    "value": "0"
                },
                "nodeType": 0
            },
            "18": {
                "event": {
                    "contract": "0x0000000000085d4780b73119b644ae5ecd22b376",
                    "decodedLog": {
                        "name": "Transfer",
                        "params": [
                            {
                                "name": "from",
                                "type": "address",
                                "value": "0xee37f338220479c8f652e3557f02513bdb11c160"
                            },
                            {
                                "name": "to",
                                "type": "address",
                                "value": "0x0eee3e3828a45f7601d5f54bf49bb01d1a9df5ea"
                            },
                            {
                                "decimalAvailable": true,
                                "name": "value",
                                "type": "uint256",
                                "value": "300,000,000,000,000,000,000"
                            }
                        ],
                        "signature": "Transfer(address,address,uint256)"
                    },
                    "id": 18,
                    "logData": "0x00000000000000000000000000000000000000000000001043561a8829300000",
                    "logDecoded": true,
                    "operation": "EVENT",
                    "revert": false,
                    "status": true,
                    "topics": [
                        "0xddf252ad1be2c89b69c2b068fc378daa952ba7f163c4a11628f55a4df523b3ef",
                        "0x000000000000000000000000ee37f338220479c8f652e3557f02513bdb11c160",
                        "0x0000000000000000000000000eee3e3828a45f7601d5f54bf49bb01d1a9df5ea"
                    ]
                },
                "nodeType": 1
            },
            "19": {
                "event": {
                    "contract": "0x0eee3e3828a45f7601d5f54bf49bb01d1a9df5ea",
                    "decodedLog": {
                        "name": "BorrowRepaid",
                        "params": [
                            {
                                "name": "account",
                                "type": "address",
                                "value": "0xee37f338220479c8f652e3557f02513bdb11c160"
                            },
                            {
                                "name": "asset",
                                "type": "address",
                                "value": "0x0000000000085d4780b73119b644ae5ecd22b376"
                            },
                            {
                                "name": "amount",
                                "type": "uint256",
                                "value": "300,000,000,000,000,000,000"
                            },
                            {
                                "name": "startingBalance",
                                "type": "uint256",
                                "value": "5,270,210,540,577,133,815,465"
                            },
                            {
                                "name": "newBalance",
                                "type": "uint256",
                                "value": "4,971,634,100,874,109,506,156"
                            }
                        ],
                        "signature": "BorrowRepaid(address,address,uint256,uint256,uint256)"
                    },
                    "id": 19,
                    "logData": "0x000000000000000000000000ee37f338220479c8f652e3557f02513bdb11c1600000000000000000000000000000000000085d4780b73119b644ae5ecd22b37600000000000000000000000000000000000000000000001043561a882930000000000000000000000000000000000000000000000000011db2dd13e1fb75e6a900000000000000000000000000000000000000000000010d834879e60bdbd26c",
                    "logDecoded": true,
                    "operation": "EVENT",
                    "revert": false,
                    "status": true,
                    "topics": [
                        "0x550e7e464126359c6adc43831f011682856b177df6c49c0af6675dd2a063649d"
                    ]
                },
                "nodeType": 1
            },
            "2": {
                "invocation": {
                    "address": "0xcb9a11afdc6bdb92e4a6235959455f28758b34ba",
                    "callData": "0x000000000000000000000000ee37f338220479c8f652e3557f02513bdb11c1600000000000000000000000000eee3e3828a45f7601d5f54bf49bb01d1a9df5ea",
                    "decodedMethod": {
                        "callParams": [
                            {
                                "name": "_who",
                                "type": "address",
                                "value": "0xee37f338220479c8f652e3557f02513bdb11c160"
                            },
                            {
                                "name": "_spender",
                                "type": "address",
                                "value": "0x0eee3e3828a45f7601d5f54bf49bb01d1a9df5ea"
                            }
                        ],
                        "constructorArguments": "",
                        "name": "allowance",
                        "returnParams": [
                            {
                                "decimalAvailable": true,
                                "name": "",
                                "type": "uint256",
                                "value": "115,792,089,237,316,195,423,570,985,008,687,907,853,269,984,665,640,564,039,457,584,007,913,129,639,935"
                            }
                        ],
                        "signature": "allowance(address,address)"
                    },
                    "errorInfo": "",
                    "fromAddress": "0x0000000000085d4780b73119b644ae5ecd22b376",
                    "gasUsed": 2073,
                    "id": 2,
                    "methodDecoded": true,
                    "operation": "DELEGATECALL",
                    "output": "0xffffffffffffffffffffffffffffffffffffffffffffffffffffffffffffffff",
                    "revert": false,
                    "revertMessage": "",
                    "selector": "0xdd62ed3e",
                    "status": true,
                    "value": "0"
                },
                "nodeType": 0
            },
            "3": {
                "invocation": {
                    "address": "0x0000000000085d4780b73119b644ae5ecd22b376",
                    "callData": "0x000000000000000000000000ee37f338220479c8f652e3557f02513bdb11c160",
                    "decodedMethod": {
                        "callParams": [
                            {
                                "name": "_who",
                                "type": "address",
                                "value": "0xee37f338220479c8f652e3557f02513bdb11c160"
                            }
                        ],
                        "constructorArguments": "",
                        "name": "balanceOf",
                        "returnParams": [
                            {
                                "decimalAvailable": true,
                                "name": "",
                                "type": "uint256",
                                "value": "301,468,912,707,916,017,203"
                            }
                        ],
                        "signature": "balanceOf(address)"
                    },
                    "errorInfo": "",
                    "fromAddress": "0x0eee3e3828a45f7601d5f54bf49bb01d1a9df5ea",
                    "gasUsed": 3635,
                    "id": 3,
                    "methodDecoded": true,
                    "operation": "CALL",
                    "output": "0x00000000000000000000000000000000000000000000001057b8badb6a942e33",
                    "revert": false,
                    "revertMessage": "",
                    "selector": "0x70a08231",
                    "status": true,
                    "value": "0"
                },
                "nodeType": 0
            },
            "4": {
                "invocation": {
                    "address": "0xcb9a11afdc6bdb92e4a6235959455f28758b34ba",
                    "callData": "0x000000000000000000000000ee37f338220479c8f652e3557f02513bdb11c160",
                    "decodedMethod": {
                        "callParams": [
                            {
                                "name": "_who",
                                "type": "address",
                                "value": "0xee37f338220479c8f652e3557f02513bdb11c160"
                            }
                        ],
                        "constructorArguments": "",
                        "name": "balanceOf",
                        "returnParams": [
                            {
                                "decimalAvailable": true,
                                "name": "",
                                "type": "uint256",
                                "value": "301,468,912,707,916,017,203"
                            }
                        ],
                        "signature": "balanceOf(address)"
                    },
                    "errorInfo": "",
                    "fromAddress": "0x0000000000085d4780b73119b644ae5ecd22b376",
                    "gasUsed": 1636,
                    "id": 4,
                    "methodDecoded": true,
                    "operation": "DELEGATECALL",
                    "output": "0x00000000000000000000000000000000000000000000001057b8badb6a942e33",
                    "revert": false,
                    "revertMessage": "",
                    "selector": "0x70a08231",
                    "status": true,
                    "value": "0"
                },
                "nodeType": 0
            },
            "5": {
                "invocation": {
                    "address": "0x0000000000085d4780b73119b644ae5ecd22b376",
                    "callData": "0x0000000000000000000000000eee3e3828a45f7601d5f54bf49bb01d1a9df5ea",
                    "decodedMethod": {
                        "callParams": [
                            {
                                "name": "_who",
                                "type": "address",
                                "value": "0x0eee3e3828a45f7601d5f54bf49bb01d1a9df5ea"
                            }
                        ],
                        "constructorArguments": "",
                        "name": "balanceOf",
                        "returnParams": [
                            {
                                "decimalAvailable": true,
                                "name": "",
                                "type": "uint256",
                                "value": "304,775,021,316,781,105,028,191"
                            }
                        ],
                        "signature": "balanceOf(address)"
                    },
                    "errorInfo": "",
                    "fromAddress": "0x0eee3e3828a45f7601d5f54bf49bb01d1a9df5ea",
                    "gasUsed": 3635,
                    "id": 5,
                    "methodDecoded": true,
                    "operation": "CALL",
                    "output": "0x000000000000000000000000000000000000000000004089e3133057fb411c5f",
                    "revert": false,
                    "revertMessage": "",
                    "selector": "0x70a08231",
                    "status": true,
                    "value": "0"
                },
                "nodeType": 0
            },
            "6": {
                "invocation": {
                    "address": "0xcb9a11afdc6bdb92e4a6235959455f28758b34ba",
                    "callData": "0x0000000000000000000000000eee3e3828a45f7601d5f54bf49bb01d1a9df5ea",
                    "decodedMethod": {
                        "callParams": [
                            {
                                "name": "_who",
                                "type": "address",
                                "value": "0x0eee3e3828a45f7601d5f54bf49bb01d1a9df5ea"
                            }
                        ],
                        "constructorArguments": "",
                        "name": "balanceOf",
                        "returnParams": [
                            {
                                "decimalAvailable": true,
                                "name": "",
                                "type": "uint256",
                                "value": "304,775,021,316,781,105,028,191"
                            }
                        ],
                        "signature": "balanceOf(address)"
                    },
                    "errorInfo": "",
                    "fromAddress": "0x0000000000085d4780b73119b644ae5ecd22b376",
                    "gasUsed": 1636,
                    "id": 6,
                    "methodDecoded": true,
                    "operation": "DELEGATECALL",
                    "output": "0x000000000000000000000000000000000000000000004089e3133057fb411c5f",
                    "revert": false,
                    "revertMessage": "",
                    "selector": "0x70a08231",
                    "status": true,
                    "value": "0"
                },
                "nodeType": 0
            },
            "7": {
                "invocation": {
                    "address": "0x79be3be94b8d25f6628c616a99fa09094bcf3712",
                    "callData": "0x0000000000000000000000000000000000085d4780b73119b644ae5ecd22b37600000000000000000000000000000000000000000000409a26694ae024711c5f000000000000000000000000000000000000000000005ba7be80c69ca83ec964",
                    "decodedMethod": {
                        "callParams": [
                            {
                                "name": "_asset",
                                "type": "address",
                                "value": "0x0000000000085d4780b73119b644ae5ecd22b376"
                            },
                            {
                                "name": "cash",
                                "type": "uint256",
                                "value": "305,075,021,316,781,105,028,191"
                            },
                            {
                                "name": "borrows",
                                "type": "uint256",
                                "value": "432,829,683,391,487,574,722,916"
                            }
                        ],
                        "constructorArguments": "",
                        "name": "getSupplyRate",
                        "returnParams": [
                            {
                                "name": "",
                                "type": "uint256",
                                "value": "0"
                            },
                            {
                                "name": "",
                                "type": "uint256",
                                "value": "11,355,932,590"
                            }
                        ],
                        "signature": "getSupplyRate(address,uint256,uint256)"
                    },
                    "errorInfo": "",
                    "fromAddress": "0x0eee3e3828a45f7601d5f54bf49bb01d1a9df5ea",
                    "gasUsed": 7074,
                    "id": 7,
                    "methodDecoded": true,
                    "operation": "CALL",
                    "output": "0x000000000000000000000000000000000000000000000000000000000000000000000000000000000000000000000000000000000000000000000002a4ddc7ae",
                    "revert": false,
                    "revertMessage": "",
                    "selector": "0x517cf73e",
                    "status": true,
                    "value": "0"
                },
                "nodeType": 0
            },
            "8": {
                "invocation": {
                    "address": "0x79be3be94b8d25f6628c616a99fa09094bcf3712",
                    "callData": "0x0000000000000000000000000000000000085d4780b73119b644ae5ecd22b37600000000000000000000000000000000000000000000409a26694ae024711c5f000000000000000000000000000000000000000000005ba7be80c69ca83ec964",
                    "decodedMethod": {
                        "callParams": [
                            {
                                "name": "asset",
                                "type": "address",
                                "value": "0x0000000000085d4780b73119b644ae5ecd22b376"
                            },
                            {
                                "name": "cash",
                                "type": "uint256",
                                "value": "305,075,021,316,781,105,028,191"
                            },
                            {
                                "name": "borrows",
                                "type": "uint256",
                                "value": "432,829,683,391,487,574,722,916"
                            }
                        ],
                        "constructorArguments": "",
                        "name": "getBorrowRate",
                        "returnParams": [
                            {
                                "name": "",
                                "type": "uint256",
                                "value": "0"
                            },
                            {
                                "name": "",
                                "type": "uint256",
                                "value": "19,755,133,666"
                            }
                        ],
                        "signature": "getBorrowRate(address,uint256,uint256)"
                    },
                    "errorInfo": "",
                    "fromAddress": "0x0eee3e3828a45f7601d5f54bf49bb01d1a9df5ea",
                    "gasUsed": 22264,
                    "id": 8,
                    "methodDecoded": true,
                    "operation": "CALL",
                    "output": "0x000000000000000000000000000000000000000000000000000000000000000000000000000000000000000000000000000000000000000000000004997f6ae2",
                    "revert": false,
                    "revertMessage": "",
                    "selector": "0xed2b5a3c",
                    "status": true,
                    "value": "0"
                },
                "nodeType": 0
            },
            "9": {
                "invocation": {
                    "address": "0x0000000000085d4780b73119b644ae5ecd22b376",
                    "callData": "0x0000000000000000000000000eee3e3828a45f7601d5f54bf49bb01d1a9df5ea",
                    "decodedMethod": {
                        "callParams": [
                            {
                                "name": "_who",
                                "type": "address",
                                "value": "0x0eee3e3828a45f7601d5f54bf49bb01d1a9df5ea"
                            }
                        ],
                        "constructorArguments": "",
                        "name": "balanceOf",
                        "returnParams": [
                            {
                                "decimalAvailable": true,
                                "name": "",
                                "type": "uint256",
                                "value": "304,775,021,316,781,105,028,191"
                            }
                        ],
                        "signature": "balanceOf(address)"
                    },
                    "errorInfo": "",
                    "fromAddress": "0x79be3be94b8d25f6628c616a99fa09094bcf3712",
                    "gasUsed": 3635,
                    "id": 9,
                    "methodDecoded": true,
                    "operation": "CALL",
                    "output": "0x000000000000000000000000000000000000000000004089e3133057fb411c5f",
                    "revert": false,
                    "revertMessage": "",
                    "selector": "0x70a08231",
                    "status": true,
                    "value": "0"
                },
                "nodeType": 0
            }
        },
        "gasFlame": [
            {
                "children": [
                    {
                        "children": [
                            {
                                "children": [],
                                "depth": 0,
                                "name": "Initial Gas",
                                "value": 21584
                            },
                            {
                                "children": [
                                    {
                                        "children": [
                                            {
                                                "children": [],
                                                "depth": 2,
                                                "name": "allowance",
                                                "value": 2073
                                            }
                                        ],
                                        "depth": 1,
                                        "name": "allowance",
                                        "value": 4078
                                    },
                                    {
                                        "children": [
                                            {
                                                "children": [],
                                                "depth": 2,
                                                "name": "balanceOf",
                                                "value": 1636
                                            }
                                        ],
                                        "depth": 1,
                                        "name": "balanceOf",
                                        "value": 3635
                                    },
                                    {
                                        "children": [
                                            {
                                                "children": [],
                                                "depth": 2,
                                                "name": "balanceOf",
                                                "value": 1636
                                            }
                                        ],
                                        "depth": 1,
                                        "name": "balanceOf",
                                        "value": 3635
                                    },
                                    {
                                        "children": [],
                                        "depth": 1,
                                        "name": "getSupplyRate",
                                        "value": 7074
                                    },
                                    {
                                        "children": [
                                            {
                                                "children": [
                                                    {
                                                        "children": [],
                                                        "depth": 3,
                                                        "name": "balanceOf",
                                                        "value": 1636
                                                    }
                                                ],
                                                "depth": 2,
                                                "name": "balanceOf",
                                                "value": 3635
                                            },
                                            {
                                                "children": [],
                                                "depth": 2,
                                                "name": "oracle",
                                                "value": 1464
                                            },
                                            {
                                                "children": [],
                                                "depth": 2,
                                                "name": "mostRecentCaller",
                                                "value": 1043
                                            },
                                            {
                                                "children": [],
                                                "depth": 2,
                                                "name": "mostRecentBlock",
                                                "value": 1006
                                            }
                                        ],
                                        "depth": 1,
                                        "name": "getBorrowRate",
                                        "value": 22264
                                    },
                                    {
                                        "children": [
                                            {
                                                "children": [
                                                    {
                                                        "children": [
                                                            {
                                                                "children": [],
                                                                "depth": 4,
                                                                "name": "",
                                                                "value": 0
                                                            }
                                                        ],
                                                        "depth": 3,
                                                        "name": "fallback",
                                                        "value": 5024
                                                    }
                                                ],
                                                "depth": 2,
                                                "name": "transferFrom",
                                                "value": 42842
                                            }
                                        ],
                                        "depth": 1,
                                        "name": "transferFrom",
                                        "value": 44853
                                    }
                                ],
                                "depth": 0,
                                "name": "Executed Gas",
                                "value": 157152
                            }
                        ],
                        "depth": -1,
                        "name": "Actual Gas Used",
                        "value": 139736
                    },
                    {
                        "children": [],
                        "depth": -1,
                        "name": "Refunded Gas",
                        "value": 39000
                    }
                ],
                "depth": -2,
                "name": "Total Gas",
                "value": 178736
            }
        ],
        "isConfirmed": true,
        "mainTrace": [
            {
                "children": [
                    {
                        "children": [
                            {
                                "children": [
                                    {
                                        "children": [],
                                        "depth": 2,
                                        "id": 2,
                                        "order": 2
                                    }
                                ],
                                "depth": 1,
                                "id": 1,
                                "order": 1
                            },
                            {
                                "children": [
                                    {
                                        "children": [],
                                        "depth": 2,
                                        "id": 4,
                                        "order": 4
                                    }
                                ],
                                "depth": 1,
                                "id": 3,
                                "order": 3
                            },
                            {
                                "children": [
                                    {
                                        "children": [],
                                        "depth": 2,
                                        "id": 6,
                                        "order": 6
                                    }
                                ],
                                "depth": 1,
                                "id": 5,
                                "order": 5
                            },
                            {
                                "children": [],
                                "depth": 1,
                                "id": 7,
                                "order": 7
                            },
                            {
                                "children": [
                                    {
                                        "children": [
                                            {
                                                "children": [],
                                                "depth": 3,
                                                "id": 10,
                                                "order": 10
                                            }
                                        ],
                                        "depth": 2,
                                        "id": 9,
                                        "order": 9
                                    },
                                    {
                                        "children": [],
                                        "depth": 2,
                                        "id": 11,
                                        "order": 11
                                    },
                                    {
                                        "children": [],
                                        "depth": 2,
                                        "id": 12,
                                        "order": 12
                                    },
                                    {
                                        "children": [],
                                        "depth": 2,
                                        "id": 13,
                                        "order": 13
                                    }
                                ],
                                "depth": 1,
                                "id": 8,
                                "order": 8
                            },
                            {
                                "children": [
                                    {
                                        "children": [
                                            {
                                                "children": [
                                                    {
                                                        "children": [],
                                                        "depth": 4,
                                                        "id": 17,
                                                        "order": 17
                                                    }
                                                ],
                                                "depth": 3,
                                                "id": 16,
                                                "order": 16
                                            },
                                            {
                                                "children": [],
                                                "depth": 3,
                                                "id": 18,
                                                "order": 18
                                            }
                                        ],
                                        "depth": 2,
                                        "id": 15,
                                        "order": 15
                                    }
                                ],
                                "depth": 1,
                                "id": 14,
                                "order": 14
                            },
                            {
                                "children": [],
                                "depth": 1,
                                "id": 19,
                                "order": 19
                            }
                        ],
                        "depth": 0,
                        "id": 0,
                        "order": 0
                    }
                ],
                "depth": -1,
                "id": -1,
                "order": -1
            }
        ],
        "mainTraceNodeCount": 20,
        "parentIdMap": {
            "0": -1,
            "1": 0,
            "10": 9,
            "11": 8,
            "12": 8,
            "13": 8,
            "14": 0,
            "15": 14,
            "16": 15,
            "17": 16,
            "18": 15,
            "19": 0,
            "2": 1,
            "3": 0,
            "4": 3,
            "5": 0,
            "6": 5,
            "7": 0,
            "8": 0,
            "9": 8
        },
        "tidyTrace": [
            {
                "children": [
                    {
                        "children": [
                            {
                                "children": [
                                    {
                                        "children": [],
                                        "depth": 2,
                                        "id": 2,
                                        "order": 2
                                    }
                                ],
                                "depth": 1,
                                "id": 1,
                                "order": 1
                            },
                            {
                                "children": [
                                    {
                                        "children": [],
                                        "depth": 2,
                                        "id": 4,
                                        "order": 4
                                    }
                                ],
                                "depth": 1,
                                "id": 3,
                                "order": 3
                            },
                            {
                                "children": [
                                    {
                                        "children": [],
                                        "depth": 2,
                                        "id": 6,
                                        "order": 6
                                    }
                                ],
                                "depth": 1,
                                "id": 5,
                                "order": 5
                            },
                            {
                                "children": [],
                                "depth": 1,
                                "id": 7,
                                "order": 7
                            },
                            {
                                "children": [
                                    {
                                        "children": [
                                            {
                                                "children": [],
                                                "depth": 3,
                                                "id": 10,
                                                "order": 10
                                            }
                                        ],
                                        "depth": 2,
                                        "id": 9,
                                        "order": 9
                                    },
                                    {
                                        "children": [],
                                        "depth": 2,
                                        "id": 11,
                                        "order": 11
                                    },
                                    {
                                        "children": [],
                                        "depth": 2,
                                        "id": 12,
                                        "order": 12
                                    },
                                    {
                                        "children": [],
                                        "depth": 2,
                                        "id": 13,
                                        "order": 13
                                    }
                                ],
                                "depth": 1,
                                "id": 8,
                                "order": 8
                            },
                            {
                                "children": [
                                    {
                                        "children": [
                                            {
                                                "children": [
                                                    {
                                                        "children": [],
                                                        "depth": 4,
                                                        "id": 17,
                                                        "order": 17
                                                    }
                                                ],
                                                "depth": 3,
                                                "id": 16,
                                                "order": 16
                                            },
                                            {
                                                "children": [],
                                                "depth": 3,
                                                "id": 18,
                                                "order": 18
                                            }
                                        ],
                                        "depth": 2,
                                        "id": 15,
                                        "order": 15
                                    }
                                ],
                                "depth": 1,
                                "id": 14,
                                "order": 14
                            },
                            {
                                "children": [],
                                "depth": 1,
                                "id": 19,
                                "order": 19
                            }
                        ],
                        "depth": 0,
                        "id": 0,
                        "order": 0
                    }
                ],
                "depth": -1,
                "id": -1,
                "order": -1
            }
        ],
        "tidyTraceNodeCount": 20
    },
    "state_change": {
        "stateChanges": [
            {
                "address": "0x0000000000085d4780b73119b644ae5ecd22b376",
                "erc": "ERC-20",
                "slots": [
                    {
                        "current": "0xffffffffffffffffffffffffffffffffffffffffffffffefbca9e577d6cfffff",
                        "key": "0x7d7660e3a93d44edb2d29e3b21231471d6a0c99f2aa5378c7bbd6d4fccfbfb69",
                        "prev": "0xffffffffffffffffffffffffffffffffffffffffffffffffffffffffffffffff"
                    },
                    {
                        "current": "0x0000000000000000000000000000000000000000000000001462a05341642e33",
                        "key": "0x4887154d397524f26b234352bd749101bff8cad18a80d077c41f95f306532577",
                        "prev": "0x00000000000000000000000000000000000000000000001057b8badb6a942e33"
                    },
                    {
                        "current": "0x00000000000000000000000000000000000000000000000000000000000034a4",
                        "key": "0xffffffffffffffffffffffffffffffffffffffffffffffffffffffffffffffff",
                        "prev": "0x00000000000000000000000000000000000000000000000000000000000034a5"
                    },
                    {
                        "current": "0x00000000000000000000000000000000000000000000409a26694ae024711c5f",
                        "key": "0xdf16cac0cbc27e45365f0ea09209ad1c22312ca11eb2997eaebfa63197d85e69",
                        "prev": "0x000000000000000000000000000000000000000000004089e3133057fb411c5f"
                    },
                    {
                        "current": "0x0000000000000000000000000000000000000000000000000000000000000000",
                        "key": "0xffffffffffffffffffffffffffffffffffffffffffffffffffffffffffffcb5a",
                        "prev": "0x00000000000000000000000095685716083003dc3af67db47561a463ec6db5a3"
                    }
                ],
                "storageVariables": [
                    {
                        "name": "_balanceOf",
                        "type": "mapping(address => uint256)",
                        "value": {
                            "pairs": [
                                {
                                    "key": "0x0eee3e3828a45f7601d5f54bf49bb01d1a9df5ea",
                                    "value": {
                                        "current": "305075021316781105028191",
                                        "prev": "304775021316781105028191",
                                        "typeTag": 1
                                    }
                                },
                                {
                                    "key": "0xee37f338220479c8f652e3557f02513bdb11c160",
                                    "value": {
                                        "current": "1468912707916017203",
                                        "prev": "301468912707916017203",
                                        "typeTag": 1
                                    }
                                }
                            ],
                            "typeTag": 4
                        }
                    },
                    {
                        "name": "_allowance",
                        "type": "mapping(address => mapping(address => uint256))",
                        "value": {
                            "pairs": [
                                {
                                    "key": "0xee37f338220479c8f652e3557f02513bdb11c160",
                                    "value": {
                                        "pairs": [
                                            {
                                                "key": "0x0eee3e3828a45f7601d5f54bf49bb01d1a9df5ea",
                                                "value": {
                                                    "current": "115792089237316195423570985008687907853269984665640564039157584007913129639935",
                                                    "prev": "115792089237316195423570985008687907853269984665640564039457584007913129639935",
                                                    "typeTag": 1
                                                }
                                            }
                                        ],
                                        "typeTag": 4
                                    }
                                }
                            ],
                            "typeTag": 4
                        }
                    }
                ]
            },
            {
                "address": "0x0eee3e3828a45f7601d5f54bf49bb01d1a9df5ea",
                "erc": "",
                "slots": [
                    {
                        "current": "0x0000000000000000000000000000000000000000000000000de66cbf21af3138",
                        "key": "0xbfbc3951e8f2f841c1c69c186127b9c385b7ca59e22517e246b79a20854a35d2",
                        "prev": "0x0000000000000000000000000000000000000000000000000de576c01bf67643"
                    },
                    {
                        "current": "0x0000000000000000000000000000000000000000000000000000000000935cfd",
                        "key": "0xf7f4542d22cad9850f689b595147030708dddeaebc315a4597b1fc4696e63569",
                        "prev": "0x0000000000000000000000000000000000000000000000000000000000935abb"
                    },
                    {
                        "current": "0x000000000000000000000000000000000000000000005ba7be80c69ca83ec964",
                        "key": "0xf7f4542d22cad9850f689b595147030708dddeaebc315a4597b1fc4696e6356e",
                        "prev": "0x000000000000000000000000000000000000000000005bb7ee15609897d8dda1"
                    },
                    {
                        "current": "0x00000000000000000000000000000000000000000000000000000002a4ddc7ae",
                        "key": "0xf7f4542d22cad9850f689b595147030708dddeaebc315a4597b1fc4696e6356c",
                        "prev": "0x00000000000000000000000000000000000000000000000000000002a6097824"
                    },
                    {
                        "current": "0x0000000000000000000000000000000000000000000000000de3b2da71da9a6c",
                        "key": "0xf7f4542d22cad9850f689b595147030708dddeaebc315a4597b1fc4696e6356d",
                        "prev": "0x0000000000000000000000000000000000000000000000000de3acde49c6d0f0"
                    },
                    {
                        "current": "0x00000000000000000000000000000000000000000000000000000004997f6ae2",
                        "key": "0xf7f4542d22cad9850f689b595147030708dddeaebc315a4597b1fc4696e6356f",
                        "prev": "0x000000000000000000000000000000000000000000000000000000049ab80725"
                    },
                    {
                        "current": "0x0000000000000000000000000000000000000000000000000de66cbf21af3138",
                        "key": "0xf7f4542d22cad9850f689b595147030708dddeaebc315a4597b1fc4696e63570",
                        "prev": "0x0000000000000000000000000000000000000000000000000de662558ec54eaf"
                    },
                    {
                        "current": "0x00000000000000000000000000000000000000000000010d834879e60bdbd26c",
                        "key": "0xbfbc3951e8f2f841c1c69c186127b9c385b7ca59e22517e246b79a20854a35d1",
                        "prev": "0x00000000000000000000000000000000000000000000011db2dd13e1fb75e6a9"
                    }
                ],
                "storageVariables": [
                    {
                        "name": "markets",
                        "type": "mapping(address => struct MoneyMarket.Market)",
                        "value": {
                            "pairs": [
                                {
                                    "key": "0x0000000000085d4780b73119b644ae5ecd22b376",
                                    "value": {
                                        "fields": [
                                            {
                                                "name": "blockNumber",
                                                "type": "uint256",
                                                "value": {
                                                    "current": "9657597",
                                                    "prev": "9657019",
                                                    "typeTag": 1
                                                }
                                            },
                                            {
                                                "name": "supplyRateMantissa",
                                                "type": "uint256",
                                                "value": {
                                                    "current": "11355932590",
                                                    "prev": "11375573028",
                                                    "typeTag": 1
                                                }
                                            },
                                            {
                                                "name": "supplyIndex",
                                                "type": "uint256",
                                                "value": {
                                                    "current": "1000840193489148524",
                                                    "prev": "1000833612926865648",
                                                    "typeTag": 1
                                                }
                                            },
                                            {
                                                "name": "totalBorrows",
                                                "type": "uint256",
                                                "value": {
                                                    "current": "432829683391487574722916",
                                                    "prev": "433128259831190599032225",
                                                    "typeTag": 1
                                                }
                                            },
                                            {
                                                "name": "borrowRateMantissa",
                                                "type": "uint256",
                                                "value": {
                                                    "current": "19755133666",
                                                    "prev": "19775620901",
                                                    "typeTag": 1
                                                }
                                            },
                                            {
                                                "name": "borrowIndex",
                                                "type": "uint256",
                                                "value": {
                                                    "current": "1001607535296196920",
                                                    "prev": "1001596086743551663",
                                                    "typeTag": 1
                                                }
                                            }
                                        ],
                                        "typeTag": 3
                                    }
                                }
                            ],
                            "typeTag": 4
                        }
                    },
                    {
                        "name": "borrowBalances",
                        "type": "mapping(address => mapping(address => struct MoneyMarket.Balance))",
                        "value": {
                            "pairs": [
                                {
                                    "key": "0xee37f338220479c8f652e3557f02513bdb11c160",
                                    "value": {
                                        "pairs": [
                                            {
                                                "key": "0x0000000000085d4780b73119b644ae5ecd22b376",
                                                "value": {
                                                    "fields": [
                                                        {
                                                            "name": "principal",
                                                            "type": "uint256",
                                                            "value": {
                                                                "current": "4971634100874109506156",
                                                                "prev": "5270210540577133815465",
                                                                "typeTag": 1
                                                            }
                                                        },
                                                        {
                                                            "name": "interestIndex",
                                                            "type": "uint256",
                                                            "value": {
                                                                "current": "1001607535296196920",
                                                                "prev": "1001337059634738755",
                                                                "typeTag": 1
                                                            }
                                                        }
                                                    ],
                                                    "typeTag": 3
                                                }
                                            }
                                        ],
                                        "typeTag": 4
                                    }
                                }
                            ],
                            "typeTag": 4
                        }
                    }
                ]
            }
        ]
    }
}