{
    "balance_change": {
        "balanceChanges": []
    },
    "profile": {
        "basic_info": {
            "baseFee": "",
            "blockNumber": 1175857,
            "callData": "0x75090ebf00000000000000000000000000000000000000000000000000006d6f6e61636f00000000000000000000000000000000000000000000000000000000001e848000000000000000000000000000000000000000000000000000000000000000000000000000000000000000000000000000000000000000000000000000000000",
            "debugEnable": true,
            "errorInfo": "",
            "eventCount": 0,
            "feeRecipient": "0x2a65aca4d5fc5b5c859090a6c34d164135398226",
            "formatValue": "0",
            "gasLimit": 200000,
            "gasPrice": "50",
            "gasUsed": 23444,
            "intTxnCount": 0,
            "internalRevert": false,
            "internalRevertMessage": "",
            "isContractCreation": false,
            "isFlashloan": false,
            "maxFee": "",
            "nonce": 639,
            "overwritedBlockNumber": -1,
            "priorityFee": "",
            "receiver": "0x3589d05a1ec4af9f65b0e5554e645707775ee43c",
            "revertMessage": "",
            "sender": "0xfeb92d30bf01ff9a1901666c5573532bfa07eeec",
            "simulationEnable": true,
            "sourceTxnHash": "0x5441f991ea92f96f530a98b362f2d19c57818b1b5d0ef8790ff630fdd964cad5",
            "status": true,
            "timestamp": "2016-03-19T02:38:28Z",
            "transactionFee": "0.0011722",
            "txnHash": "0x5441f991ea92f96f530a98b362f2d19c57818b1b5d0ef8790ff630fdd964cad5",
            "txnIndex": 0,
            "type": 0,
            "value": "0"
        },
        "fund_flow": [],
        "token_infos": [
            {
                "address": "0xc02aaa39b223fe8d0a0e5c4f27ead9083c756cc2",
                "decimals": 18
            },
            {
                "address": "0xeeeeeeeeeeeeeeeeeeeeeeeeeeeeeeeeeeeeeeee",
                "decimals": 18
            }
        ]
    },
    "address_label": {
        "labels": [
            {
                "address": "0xeeeeeeeeeeeeeeeeeeeeeeeeeeeeeeeeeeeeeeee",
                "label": "Ether"
            },
            {
                "address": "0x0000000000000000000000000000000000000000",
                "label": "Null Address"
            },
            {
                "address": "0x0000000000000000000000000000000000000001",
                "label": "Precompiled"
            },
            {
                "address": "0x0000000000000000000000000000000000000002",
                "label": "Precompiled"
            },
            {
                "address": "0x0000000000000000000000000000000000000003",
                "label": "Precompiled"
            },
            {
                "address": "0x0000000000000000000000000000000000000004",
                "label": "Precompiled"
            }
        ]
    },
    "trace": {
        "accountLabels": null,
        "dataMap": {
            "-1": {
                "invocation": {
                    "address": "0xfeb92d30bf01ff9a1901666c5573532bfa07eeec",
                    "callData": "",
                    "decodedMethod": null,
                    "errorInfo": "",
                    "fromAddress": "",
                    "gasUsed": 0,
                    "id": -1,
                    "methodDecoded": false,
                    "operation": "",
                    "output": "",
                    "revert": false,
                    "revertMessage": "",
                    "selector": "",
                    "status": false,
                    "value": ""
                },
                "nodeType": 0
            },
            "0": {
                "invocation": {
                    "address": "0x3589d05a1ec4af9f65b0e5554e645707775ee43c",
                    "callData": "0x00000000000000000000000000000000000000000000000000006d6f6e61636f00000000000000000000000000000000000000000000000000000000001e848000000000000000000000000000000000000000000000000000000000000000000000000000000000000000000000000000000000000000000000000000000000",
                    "decodedMethod": {
                        "callParams": [
                            {
                                "name": "domain",
                                "type": "uint256",
                                "value": "120,325,360,673,647"
                            },
                            {
                                "name": "expires",
                                "type": "uint256",
                                "value": "2,000,000"
                            },
                            {
                                "name": "price",
                                "type": "uint256",
                                "value": "0"
                            },
                            {
                                "name": "transfer",
                                "type": "address",
                                "value": "0x0000000000000000000000000000000000000000"
                            }
                        ],
                        "constructorArguments": "",
                        "name": "changeDomain",
                        "returnParams": [],
                        "signature": "changeDomain(uint256,uint256,uint256,address)"
                    },
                    "errorInfo": "",
                    "fromAddress": "0xfeb92d30bf01ff9a1901666c5573532bfa07eeec",
                    "gasUsed": 23444,
                    "id": 0,
                    "methodDecoded": true,
                    "operation": "CALL",
                    "output": "",
                    "revert": false,
                    "revertMessage": "",
                    "selector": "0x75090ebf",
                    "status": true,
                    "value": "0"
                },
                "nodeType": 0
            }
        },
        "gasFlame": [
            {
                "children": [
                    {
                        "children": [
                            {
                                "children": [],
                                "depth": 0,
                                "name": "Initial Gas",
                                "value": 22360
                            },
                            {
                                "children": [],
                                "depth": 0,
                                "name": "Executed Gas",
                                "value": 1084
                            }
                        ],
                        "depth": -1,
                        "name": "Actual Gas Used",
                        "value": 23444
                    },
                    {
                        "children": [],
                        "depth": -1,
                        "name": "Refunded Gas",
                        "value": 0
                    }
                ],
                "depth": -2,
                "name": "Total Gas",
                "value": 23444
            }
        ],
        "isConfirmed": true,
        "mainTrace": [
            {
                "children": [
                    {
                        "children": [],
                        "depth": 0,
                        "id": 0,
                        "order": 0
                    }
                ],
                "depth": -1,
                "id": -1,
                "order": -1
            }
        ],
        "mainTraceNodeCount": 1,
        "parentIdMap": {
            "0": -1
        },
        "tidyTrace": [
            {
                "children": [
                    {
                        "children": [],
                        "depth": 0,
                        "id": 0,
                        "order": 0
                    }
                ],
                "depth": -1,
                "id": -1,
                "order": -1
            }
        ],
        "tidyTraceNodeCount": 1
    },
    "state_change": {
        "stateChanges": []
    }
}