{
    "balance_change": {
        "balanceChanges": []
    },
    "profile": {
        "basic_info": {
            "baseFee": "",
            "blockNumber": 6358258,
            "callData": "0x951a6dbd0000000000000000000000000000000000000000000000000000000000000184",
            "debugEnable": true,
            "errorInfo": "",
            "eventCount": 1,
            "feeRecipient": "0xea674fdde714fd979de3edf0f56aa9716b898ec8",
            "formatValue": "0",
            "gasLimit": 219631,
            "gasPrice": "8",
            "gasUsed": 146421,
            "intTxnCount": 5,
            "internalRevert": false,
            "internalRevertMessage": "",
            "isContractCreation": false,
            "isFlashloan": false,
            "maxFee": "",
            "nonce": 526,
            "overwritedBlockNumber": -1,
            "priorityFee": "",
            "receiver": "0xf09404cf54c48763b56f96c8080aaa72bd407cb7",
            "revertMessage": "",
            "sender": "0x7d2e6d4ef6b5ac5f562b677c3ff46b3d5affd3a1",
            "simulationEnable": true,
            "sourceTxnHash": "0x54aad597621196813a30b8fc5f233cadcc4412964c756a08f6965a8962a5a4f5",
            "status": true,
            "timestamp": "2018-09-19T03:55:27Z",
            "transactionFee": "0.001171368",
            "txnHash": "0x54aad597621196813a30b8fc5f233cadcc4412964c756a08f6965a8962a5a4f5",
            "txnIndex": 49,
            "type": 0,
            "value": "0"
        },
        "fund_flow": [],
        "token_infos": [
            {
                "address": "0xc02aaa39b223fe8d0a0e5c4f27ead9083c756cc2",
                "decimals": 18
            },
            {
                "address": "0xeeeeeeeeeeeeeeeeeeeeeeeeeeeeeeeeeeeeeeee",
                "decimals": 18
            }
        ]
    },
    "address_label": {
        "labels": [
            {
                "address": "0xeeeeeeeeeeeeeeeeeeeeeeeeeeeeeeeeeeeeeeee",
                "label": "Ether"
            },
            {
                "address": "0xd112f302969901fedd28756efe8170b80c746ccc",
                "label": "CryptoPony (CP)"
            },
            {
                "address": "0x0000000000000000000000000000000000000001",
                "label": "Precompiled"
            },
            {
                "address": "0x0000000000000000000000000000000000000002",
                "label": "Precompiled"
            },
            {
                "address": "0x0000000000000000000000000000000000000003",
                "label": "Precompiled"
            },
            {
                "address": "0x0000000000000000000000000000000000000004",
                "label": "Precompiled"
            }
        ]
    },
    "trace": {
        "accountLabels": null,
        "dataMap": {
            "-1": {
                "invocation": {
                    "address": "0x7d2e6d4ef6b5ac5f562b677c3ff46b3d5affd3a1",
                    "callData": "",
                    "decodedMethod": null,
                    "errorInfo": "",
                    "fromAddress": "",
                    "gasUsed": 0,
                    "id": -1,
                    "methodDecoded": false,
                    "operation": "",
                    "output": "",
                    "revert": false,
                    "revertMessage": "",
                    "selector": "",
                    "status": false,
                    "value": ""
                },
                "nodeType": 0
            },
            "0": {
                "invocation": {
                    "address": "0xf09404cf54c48763b56f96c8080aaa72bd407cb7",
                    "callData": "0x0000000000000000000000000000000000000000000000000000000000000184",
                    "decodedMethod": null,
                    "errorInfo": "",
                    "fromAddress": "0x7d2e6d4ef6b5ac5f562b677c3ff46b3d5affd3a1",
                    "gasUsed": 146421,
                    "id": 0,
                    "methodDecoded": false,
                    "operation": "CALL",
                    "output": "",
                    "revert": false,
                    "revertMessage": "",
                    "selector": "0x951a6dbd",
                    "status": true,
                    "value": "0"
                },
                "nodeType": 0
            },
            "1": {
                "invocation": {
                    "address": "0xd112f302969901fedd28756efe8170b80c746ccc",
                    "callData": "0x0000000000000000000000000000000000000000000000000000000000000184",
                    "decodedMethod": null,
                    "errorInfo": "",
                    "fromAddress": "0xf09404cf54c48763b56f96c8080aaa72bd407cb7",
                    "gasUsed": 7303,
                    "id": 1,
                    "methodDecoded": false,
                    "operation": "CALL",
                    "output": "0xffffaea3b17a88d4d4ffd4ff0004967500010001000a12af924c00260009001800000000000000000000000000000000000000000000000000000000000000000000000000000000000000000000000000000000000000000000000000000000000000000000000000000000000000000000000000000000000000000000000000000000000000000000000000000000000000000000000000000000000000000000000000000000000000000000000000000000000000000000000000000000000000000000000000000000000000000000000000000000000000000000000000000000000000000000000000000000000000000000000000000000000000000000000000000000000000000000000000000000000000000000000000000000000000000000000000000000000000000000000000000000000000005b75b9ce",
                    "revert": false,
                    "revertMessage": "",
                    "selector": "0xaccb4441",
                    "status": true,
                    "value": "0"
                },
                "nodeType": 0
            },
            "2": {
                "invocation": {
                    "address": "0xd112f302969901fedd28756efe8170b80c746ccc",
                    "callData": "0x0000000000000000000000000000000000000000000000000000000000000184",
                    "decodedMethod": {
                        "callParams": [
                            {
                                "name": "tokenId",
                                "type": "uint256",
                                "value": "388"
                            }
                        ],
                        "constructorArguments": "",
                        "name": "ownerOf",
                        "returnParams": [
                            {
                                "name": "",
                                "type": "address",
                                "value": "0x7d2e6d4ef6b5ac5f562b677c3ff46b3d5affd3a1"
                            }
                        ],
                        "signature": "ownerOf(uint256)"
                    },
                    "errorInfo": "",
                    "fromAddress": "0xf09404cf54c48763b56f96c8080aaa72bd407cb7",
                    "gasUsed": 1139,
                    "id": 2,
                    "methodDecoded": true,
                    "operation": "CALL",
                    "output": "0x0000000000000000000000007d2e6d4ef6b5ac5f562b677c3ff46b3d5affd3a1",
                    "revert": false,
                    "revertMessage": "",
                    "selector": "0x6352211e",
                    "status": true,
                    "value": "0"
                },
                "nodeType": 0
            },
            "3": {
                "invocation": {
                    "address": "0xd112f302969901fedd28756efe8170b80c746ccc",
                    "callData": "0x",
                    "decodedMethod": {
                        "callParams": [],
                        "constructorArguments": "",
                        "name": "geneScience",
                        "returnParams": [
                            {
                                "name": "",
                                "type": "address",
                                "value": "0x602df3be6488b9c74c1c848cd3a449eb5248cd49"
                            }
                        ],
                        "signature": "geneScience()"
                    },
                    "errorInfo": "",
                    "fromAddress": "0xf09404cf54c48763b56f96c8080aaa72bd407cb7",
                    "gasUsed": 1608,
                    "id": 3,
                    "methodDecoded": true,
                    "operation": "CALL",
                    "output": "0x000000000000000000000000602df3be6488b9c74c1c848cd3a449eb5248cd49",
                    "revert": false,
                    "revertMessage": "",
                    "selector": "0xf2b47d52",
                    "status": true,
                    "value": "0"
                },
                "nodeType": 0
            },
            "4": {
                "invocation": {
                    "address": "0x602df3be6488b9c74c1c848cd3a449eb5248cd49",
                    "callData": "0xffffaea3b17a88d4d4ffd4ff0004967500010001000a12af924c002600090018",
                    "decodedMethod": null,
                    "errorInfo": "",
                    "fromAddress": "0xf09404cf54c48763b56f96c8080aaa72bd407cb7",
                    "gasUsed": 35160,
                    "id": 4,
                    "methodDecoded": false,
                    "operation": "CALL",
                    "output": "0x00000000000000000000000000000000000000000000000000000000000003b600000000000000000000000000000000000000000000000000000000000002ac00000000000000000000000000000000000000000000000000000000000005b900000000000000000000000000000000000000000000000000000000000003f200000000000000000000000000000000000000000000000000000000000002e60000000000000000000000000000000000000000000000000000000000001c280000000000000000000000000000000000000000000000000000000000001c280000000000000000000000000000000000000000000000000000000000001ce30000000000000000000000000000000000000000000000000000000000001c280000000000000000000000000000000000000000000000000000000000001ce3",
                    "revert": false,
                    "revertMessage": "",
                    "selector": "0xcacb1795",
                    "status": true,
                    "value": "0"
                },
                "nodeType": 0
            },
            "5": {
                "invocation": {
                    "address": "0xd112f302969901fedd28756efe8170b80c746ccc",
                    "callData": "0x0000000000000000000000000000000000000000000000000000000000000184000000000000000000000000000000000000000000000000000000000000000100000000000000000000000000000000000000000000000000000000000000000000000000000000000000000000000000000000000000000000000000000000000000000000000000000000000000000000000000000000000000005ba2e504",
                    "decodedMethod": null,
                    "errorInfo": "",
                    "fromAddress": "0xf09404cf54c48763b56f96c8080aaa72bd407cb7",
                    "gasUsed": 29253,
                    "id": 5,
                    "methodDecoded": false,
                    "operation": "CALL",
                    "output": "",
                    "revert": false,
                    "revertMessage": "",
                    "selector": "0x5d92689b",
                    "status": true,
                    "value": "0"
                },
                "nodeType": 0
            },
            "6": {
                "event": {
                    "contract": "0xd112f302969901fedd28756efe8170b80c746ccc",
                    "decodedLog": null,
                    "id": 6,
                    "logData": "0x0000000000000000000000000000000000000000000000000000000000000184000000000000000000000000000000000000000000000000000000005ba2e504",
                    "logDecoded": false,
                    "operation": "EVENT",
                    "revert": false,
                    "status": true,
                    "topics": [
                        "0xd46717ff0362b2f17418cbcdd175233b5964899aca8498c3435f0fc19088a6ab",
                        "0x0000000000000000000000007d2e6d4ef6b5ac5f562b677c3ff46b3d5affd3a1"
                    ]
                },
                "nodeType": 1
            }
        },
        "gasFlame": [
            {
                "children": [
                    {
                        "children": [
                            {
                                "children": [],
                                "depth": 0,
                                "name": "Initial Gas",
                                "value": 21528
                            },
                            {
                                "children": [
                                    {
                                        "children": [],
                                        "depth": 1,
                                        "name": "0xaccb4441",
                                        "value": 7303
                                    },
                                    {
                                        "children": [],
                                        "depth": 1,
                                        "name": "ownerOf",
                                        "value": 1139
                                    },
                                    {
                                        "children": [],
                                        "depth": 1,
                                        "name": "geneScience",
                                        "value": 1608
                                    },
                                    {
                                        "children": [],
                                        "depth": 1,
                                        "name": "0xcacb1795",
                                        "value": 35160
                                    },
                                    {
                                        "children": [],
                                        "depth": 1,
                                        "name": "0x5d92689b",
                                        "value": 29253
                                    }
                                ],
                                "depth": 0,
                                "name": "Executed Gas",
                                "value": 124893
                            }
                        ],
                        "depth": -1,
                        "name": "Actual Gas Used",
                        "value": 146421
                    },
                    {
                        "children": [],
                        "depth": -1,
                        "name": "Refunded Gas",
                        "value": 0
                    }
                ],
                "depth": -2,
                "name": "Total Gas",
                "value": 146421
            }
        ],
        "isConfirmed": true,
        "mainTrace": [
            {
                "children": [
                    {
                        "children": [
                            {
                                "children": [],
                                "depth": 1,
                                "id": 1,
                                "order": 1
                            },
                            {
                                "children": [],
                                "depth": 1,
                                "id": 2,
                                "order": 2
                            },
                            {
                                "children": [],
                                "depth": 1,
                                "id": 3,
                                "order": 3
                            },
                            {
                                "children": [],
                                "depth": 1,
                                "id": 4,
                                "order": 4
                            },
                            {
                                "children": [
                                    {
                                        "children": [],
                                        "depth": 2,
                                        "id": 6,
                                        "order": 6
                                    }
                                ],
                                "depth": 1,
                                "id": 5,
                                "order": 5
                            }
                        ],
                        "depth": 0,
                        "id": 0,
                        "order": 0
                    }
                ],
                "depth": -1,
                "id": -1,
                "order": -1
            }
        ],
        "mainTraceNodeCount": 7,
        "parentIdMap": {
            "0": -1,
            "1": 0,
            "2": 0,
            "3": 0,
            "4": 0,
            "5": 0,
            "6": 5
        },
        "tidyTrace": [
            {
                "children": [
                    {
                        "children": [
                            {
                                "children": [],
                                "depth": 1,
                                "id": 1,
                                "order": 1
                            },
                            {
                                "children": [],
                                "depth": 1,
                                "id": 2,
                                "order": 2
                            },
                            {
                                "children": [],
                                "depth": 1,
                                "id": 3,
                                "order": 3
                            },
                            {
                                "children": [],
                                "depth": 1,
                                "id": 4,
                                "order": 4
                            },
                            {
                                "children": [
                                    {
                                        "children": [],
                                        "depth": 2,
                                        "id": 6,
                                        "order": 6
                                    }
                                ],
                                "depth": 1,
                                "id": 5,
                                "order": 5
                            }
                        ],
                        "depth": 0,
                        "id": 0,
                        "order": 0
                    }
                ],
                "depth": -1,
                "id": -1,
                "order": -1
            }
        ],
        "tidyTraceNodeCount": 7
    },
    "state_change": {
        "stateChanges": [
            {
                "address": "0xd112f302969901fedd28756efe8170b80c746ccc",
                "erc": "",
                "slots": [
                    {
                        "current": "0x00000000000000000000000000000000000000005ba2e504000000005b62b917",
                        "key": "0x036b6384b5eca791c62761152d0c79bb0604c104a5fb6f4eb0703f3154bb4b55",
                        "prev": "0x00000000000000000000000000000000000000005b75b9ce000000005b62b917"
                    },
                    {
                        "current": "0x0000000000000000000000000000000000000000000000000000000000000001",
                        "key": "0x036b6384b5eca791c62761152d0c79bb0604c104a5fb6f4eb0703f3154bb4b5c",
                        "prev": "0x0000000000000000000000000000000000000000000000000000000000000000"
                    }
                ],
                "storageVariables": []
            },
            {
                "address": "0xf09404cf54c48763b56f96c8080aaa72bd407cb7",
                "erc": "",
                "slots": [
                    {
                        "current": "0x000000005ba3c400000000005ba1c8af000000000000000000000000000003e6",
                        "key": "0x76e6e50041d8ee7f6cf81eb490b4c623bf952561b0814705f78e3b309cec713c",
                        "prev": "0x0000000000000000000000000000000000000000000000000000000000000000"
                    },
                    {
                        "current": "0x000000000000000000000000000000000000000000000000000000000000b7f3",
                        "key": "0x336063860e08f12b3526c0fd3e629f203835972c37bb724fa93be6ee466a8eb8",
                        "prev": "0x000000000000000000000000000000000000000000000000000000000000b40d"
                    }
                ],
                "storageVariables": []
            }
        ]
    }
}