{
    "balance_change": {
        "balanceChanges": [
            {
                "account": "0xd1669ac6044269b59fa12c5822439f609ca54f41",
                "assets": [
                    {
                        "address": "0x656c00e1bcd96f256f224ad9112ff426ef053733",
                        "amount": "269.777777777777777778",
                        "iconUrl": "",
                        "isERC1155": false,
                        "isERC721": false,
                        "sign": false,
                        "value": "266.2503561"
                    }
                ]
            },
            {
                "account": "0xfb6036e867b1ccd4246792b3cbe030818e8d01b8",
                "assets": [
                    {
                        "address": "0x656c00e1bcd96f256f224ad9112ff426ef053733",
                        "amount": "269.777777777777777778",
                        "iconUrl": "",
                        "isERC1155": false,
                        "isERC721": false,
                        "sign": true,
                        "value": "266.2503561"
                    }
                ]
            }
        ]
    },
    "profile": {
        "basic_info": {
            "baseFee": "",
            "blockNumber": 12962730,
            "callData": "0x0dcd7a6c000000000000000000000000fb6036e867b1ccd4246792b3cbe030818e8d01b800000000000000000000000000000000000000000000000e9feb338b82b71c72000000000000000000000000656c00e1bcd96f256f224ad9112ff426ef053733000000000000000000000000000000000000000000000000000000006114928b00000000000000000000000000000000000000000000000000000000000fa91800000000000000000000000000000000000000000000000000000000000000c0000000000000000000000000000000000000000000000000000000000000004149516b89cb7b3fd5d05a1e8ea9fcef92d49e8fb509a78f50dc7dac33a55d6eba5070c8f8979882f1f2e53f53180669b00c4fd2c36b9dcf6eab9112c919a43b6b1c00000000000000000000000000000000000000000000000000000000000000",
            "debugEnable": true,
            "errorInfo": "",
            "eventCount": 1,
            "feeRecipient": "0x5a0b54d5dc17e0aadc383d2db43b0a0d3e029c4c",
            "formatValue": "0",
            "gasLimit": 195263,
            "gasPrice": "45",
            "gasUsed": 94572,
            "intTxnCount": 3,
            "internalRevert": false,
            "internalRevertMessage": "",
            "isContractCreation": false,
            "isFlashloan": false,
            "maxFee": "",
            "nonce": 975359,
            "overwritedBlockNumber": -1,
            "priorityFee": "",
            "receiver": "0xd1669ac6044269b59fa12c5822439f609ca54f41",
            "revertMessage": "",
            "sender": "0xd2c82f2e5fa236e114a81173e375a73664610998",
            "simulationEnable": true,
            "sourceTxnHash": "0x54145d1f944a4b87c60c88d45880d401e4a7aa7538550a7e1930a6221a1962a3",
            "status": true,
            "timestamp": "2021-08-05T03:55:43Z",
            "transactionFee": "0.00425574",
            "txnHash": "0x54145d1f944a4b87c60c88d45880d401e4a7aa7538550a7e1930a6221a1962a3",
            "txnIndex": 74,
            "type": 0,
            "value": "0"
        },
        "fund_flow": [
            {
                "amount": "269.777777777777777778",
                "from": "0xd1669ac6044269b59fa12c5822439f609ca54f41",
                "id": 1,
                "isERC1155": false,
                "isERC721": false,
                "isReverted": false,
                "order": 1,
                "to": "0xfb6036e867b1ccd4246792b3cbe030818e8d01b8",
                "token": "0x656c00e1bcd96f256f224ad9112ff426ef053733"
            }
        ],
        "token_infos": [
            {
                "address": "0x656c00e1bcd96f256f224ad9112ff426ef053733",
                "decimals": 18
            },
            {
                "address": "0xc02aaa39b223fe8d0a0e5c4f27ead9083c756cc2",
                "decimals": 18
            },
            {
                "address": "0xeeeeeeeeeeeeeeeeeeeeeeeeeeeeeeeeeeeeeeee",
                "decimals": 18
            }
        ]
    },
    "address_label": {
        "labels": [
            {
                "address": "0xeeeeeeeeeeeeeeeeeeeeeeeeeeeeeeeeeeeeeeee",
                "label": "Ether"
            },
            {
                "address": "0x0000000000000000000000000000000000000001",
                "label": "Precompiled"
            },
            {
                "address": "0x0000000000000000000000000000000000000004",
                "label": "Precompiled"
            },
            {
                "address": "0xfb6036e867b1ccd4246792b3cbe030818e8d01b8",
                "label": "GATE.IO"
            },
            {
                "address": "0x0000000000000000000000000000000000000002",
                "label": "Precompiled"
            },
            {
                "address": "0x0000000000000000000000000000000000000003",
                "label": "Precompiled"
            },
            {
                "address": "0x656c00e1bcd96f256f224ad9112ff426ef053733",
                "label": "Efinity: EFI Token"
            },
            {
                "address": "0xd1669ac6044269b59fa12c5822439f609ca54f41",
                "label": "CoinList 1"
            },
            {
                "address": "0x4ad0cc4bfa295ecd75ce133cdda89cb09380f185",
                "label": "Efinity Token (EFI)"
            },
            {
                "address": "0xd2c82f2e5fa236e114a81173e375a73664610998",
                "label": "CoinList 3"
            }
        ]
    },
    "trace": {
        "accountLabels": null,
        "dataMap": {
            "-1": {
                "invocation": {
                    "address": "0xd2c82f2e5fa236e114a81173e375a73664610998",
                    "callData": "",
                    "decodedMethod": null,
                    "errorInfo": "",
                    "fromAddress": "",
                    "gasUsed": 0,
                    "id": -1,
                    "methodDecoded": false,
                    "operation": "",
                    "output": "",
                    "revert": false,
                    "revertMessage": "",
                    "selector": "",
                    "status": false,
                    "value": ""
                },
                "nodeType": 0
            },
            "0": {
                "invocation": {
                    "address": "0xd1669ac6044269b59fa12c5822439f609ca54f41",
                    "callData": "0x000000000000000000000000fb6036e867b1ccd4246792b3cbe030818e8d01b800000000000000000000000000000000000000000000000e9feb338b82b71c72000000000000000000000000656c00e1bcd96f256f224ad9112ff426ef053733000000000000000000000000000000000000000000000000000000006114928b00000000000000000000000000000000000000000000000000000000000fa91800000000000000000000000000000000000000000000000000000000000000c0000000000000000000000000000000000000000000000000000000000000004149516b89cb7b3fd5d05a1e8ea9fcef92d49e8fb509a78f50dc7dac33a55d6eba5070c8f8979882f1f2e53f53180669b00c4fd2c36b9dcf6eab9112c919a43b6b1c00000000000000000000000000000000000000000000000000000000000000",
                    "decodedMethod": {
                        "callParams": [
                            {
                                "name": "toAddress",
                                "type": "address",
                                "value": "0xfb6036e867b1ccd4246792b3cbe030818e8d01b8"
                            },
                            {
                                "name": "value",
                                "type": "uint256",
                                "value": "269,777,777,777,777,777,778"
                            },
                            {
                                "name": "tokenContractAddress",
                                "type": "address",
                                "value": "0x656c00e1bcd96f256f224ad9112ff426ef053733"
                            },
                            {
                                "name": "expireTime",
                                "type": "uint256",
                                "value": "1,628,738,187"
                            },
                            {
                                "name": "sequenceId",
                                "type": "uint256",
                                "value": "1,026,328"
                            },
                            {
                                "name": "signature",
                                "type": "bytes",
                                "value": "0x49516b89cb7b3fd5d05a1e8ea9fcef92d49e8fb509a78f50dc7dac33a55d6eba5070c8f8979882f1f2e53f53180669b00c4fd2c36b9dcf6eab9112c919a43b6b1c"
                            }
                        ],
                        "constructorArguments": "",
                        "name": "sendMultiSigToken",
                        "returnParams": [],
                        "signature": "sendMultiSigToken(address,uint256,address,uint256,uint256,bytes)"
                    },
                    "errorInfo": "",
                    "fromAddress": "0xd2c82f2e5fa236e114a81173e375a73664610998",
                    "gasUsed": 94572,
                    "id": 0,
                    "methodDecoded": true,
                    "operation": "CALL",
                    "output": "",
                    "revert": false,
                    "revertMessage": "",
                    "selector": "0x0dcd7a6c",
                    "status": true,
                    "value": "0"
                },
                "nodeType": 0
            },
            "1": {
                "invocation": {
                    "address": "0x0000000000000000000000000000000000000001",
                    "callData": "0x6c43c0f705bdf67a772202284e2fc03eefebf8ff4a185dfaff441d1f000000000000000000000000000000000000000000000000000000000000001c49516b89cb7b3fd5d05a1e8ea9fcef92d49e8fb509a78f50dc7dac33a55d6eba5070c8f8979882f1f2e53f53180669b00c4fd2c36b9dcf6eab9112c919a43b6b",
                    "decodedMethod": {
                        "callParams": [
                            {
                                "name": "hash",
                                "type": "bytes32",
                                "value": "0xb85e3b146c43c0f705bdf67a772202284e2fc03eefebf8ff4a185dfaff441d1f"
                            },
                            {
                                "name": "v",
                                "type": "uint256",
                                "value": "28"
                            },
                            {
                                "name": "r",
                                "type": "bytes32",
                                "value": "0x49516b89cb7b3fd5d05a1e8ea9fcef92d49e8fb509a78f50dc7dac33a55d6eba"
                            },
                            {
                                "name": "s",
                                "type": "bytes32",
                                "value": "0x5070c8f8979882f1f2e53f53180669b00c4fd2c36b9dcf6eab9112c919a43b6b"
                            }
                        ],
                        "constructorArguments": "",
                        "name": "ecrecover",
                        "returnParams": [
                            {
                                "name": "",
                                "type": "address",
                                "value": "0xb067fee58723af1d5fc03e63ae8c278717f2c83d"
                            }
                        ],
                        "signature": "ecrecover(bytes32,uint256,bytes32,bytes32)"
                    },
                    "errorInfo": "",
                    "fromAddress": "0xd1669ac6044269b59fa12c5822439f609ca54f41",
                    "gasUsed": 3000,
                    "id": 1,
                    "methodDecoded": true,
                    "operation": "CALL",
                    "output": "0x000000000000000000000000b067fee58723af1d5fc03e63ae8c278717f2c83d",
                    "revert": false,
                    "revertMessage": "",
                    "selector": "0xb85e3b14",
                    "status": true,
                    "value": "0"
                },
                "nodeType": 0
            },
            "2": {
                "invocation": {
                    "address": "0x656c00e1bcd96f256f224ad9112ff426ef053733",
                    "callData": "0x000000000000000000000000fb6036e867b1ccd4246792b3cbe030818e8d01b800000000000000000000000000000000000000000000000e9feb338b82b71c72",
                    "decodedMethod": {
                        "callParams": [
                            {
                                "name": "recipient",
                                "type": "address",
                                "value": "0xfb6036e867b1ccd4246792b3cbe030818e8d01b8"
                            },
                            {
                                "decimalAvailable": true,
                                "name": "amount",
                                "type": "uint256",
                                "value": "269,777,777,777,777,777,778"
                            }
                        ],
                        "constructorArguments": "",
                        "name": "transfer",
                        "returnParams": [
                            {
                                "name": "",
                                "type": "bool",
                                "value": true
                            }
                        ],
                        "signature": "transfer(address,uint256)"
                    },
                    "errorInfo": "",
                    "fromAddress": "0xd1669ac6044269b59fa12c5822439f609ca54f41",
                    "gasUsed": 20180,
                    "id": 2,
                    "methodDecoded": true,
                    "operation": "CALL",
                    "output": "0x0000000000000000000000000000000000000000000000000000000000000001",
                    "revert": false,
                    "revertMessage": "",
                    "selector": "0xa9059cbb",
                    "status": true,
                    "value": "0"
                },
                "nodeType": 0
            },
            "3": {
                "invocation": {
                    "address": "0x4ad0cc4bfa295ecd75ce133cdda89cb09380f185",
                    "callData": "0x000000000000000000000000fb6036e867b1ccd4246792b3cbe030818e8d01b800000000000000000000000000000000000000000000000e9feb338b82b71c72",
                    "decodedMethod": {
                        "callParams": [
                            {
                                "name": "recipient",
                                "type": "address",
                                "value": "0xfb6036e867b1ccd4246792b3cbe030818e8d01b8"
                            },
                            {
                                "decimalAvailable": true,
                                "name": "amount",
                                "type": "uint256",
                                "value": "269,777,777,777,777,777,778"
                            }
                        ],
                        "constructorArguments": "",
                        "name": "transfer",
                        "returnParams": [
                            {
                                "name": "",
                                "type": "bool",
                                "value": true
                            }
                        ],
                        "signature": "transfer(address,uint256)"
                    },
                    "errorInfo": "",
                    "fromAddress": "0x656c00e1bcd96f256f224ad9112ff426ef053733",
                    "gasUsed": 12934,
                    "id": 3,
                    "methodDecoded": true,
                    "operation": "DELEGATECALL",
                    "output": "0x0000000000000000000000000000000000000000000000000000000000000001",
                    "revert": false,
                    "revertMessage": "",
                    "selector": "0xa9059cbb",
                    "status": true,
                    "value": "0"
                },
                "nodeType": 0
            },
            "4": {
                "event": {
                    "contract": "0x656c00e1bcd96f256f224ad9112ff426ef053733",
                    "decodedLog": {
                        "name": "Transfer",
                        "params": [
                            {
                                "name": "from",
                                "type": "address",
                                "value": "0xd1669ac6044269b59fa12c5822439f609ca54f41"
                            },
                            {
                                "name": "to",
                                "type": "address",
                                "value": "0xfb6036e867b1ccd4246792b3cbe030818e8d01b8"
                            },
                            {
                                "decimalAvailable": true,
                                "name": "value",
                                "type": "uint256",
                                "value": "269,777,777,777,777,777,778"
                            }
                        ],
                        "signature": "Transfer(address,address,uint256)"
                    },
                    "id": 4,
                    "logData": "0x00000000000000000000000000000000000000000000000e9feb338b82b71c72",
                    "logDecoded": true,
                    "operation": "EVENT",
                    "revert": false,
                    "status": true,
                    "topics": [
                        "0xddf252ad1be2c89b69c2b068fc378daa952ba7f163c4a11628f55a4df523b3ef",
                        "0x000000000000000000000000d1669ac6044269b59fa12c5822439f609ca54f41",
                        "0x000000000000000000000000fb6036e867b1ccd4246792b3cbe030818e8d01b8"
                    ]
                },
                "nodeType": 1
            }
        },
        "gasFlame": [
            {
                "children": [
                    {
                        "children": [
                            {
                                "children": [],
                                "depth": 0,
                                "name": "Initial Gas",
                                "value": 23808
                            },
                            {
                                "children": [
                                    {
                                        "children": [],
                                        "depth": 1,
                                        "name": "ecrecover",
                                        "value": 3000
                                    },
                                    {
                                        "children": [
                                            {
                                                "children": [],
                                                "depth": 2,
                                                "name": "transfer",
                                                "value": 12934
                                            }
                                        ],
                                        "depth": 1,
                                        "name": "transfer",
                                        "value": 20180
                                    }
                                ],
                                "depth": 0,
                                "name": "Executed Gas",
                                "value": 70764
                            }
                        ],
                        "depth": -1,
                        "name": "Actual Gas Used",
                        "value": 94572
                    },
                    {
                        "children": [],
                        "depth": -1,
                        "name": "Refunded Gas",
                        "value": 0
                    }
                ],
                "depth": -2,
                "name": "Total Gas",
                "value": 94572
            }
        ],
        "isConfirmed": true,
        "mainTrace": [
            {
                "children": [
                    {
                        "children": [
                            {
                                "children": [],
                                "depth": 1,
                                "id": 1,
                                "order": 1
                            },
                            {
                                "children": [
                                    {
                                        "children": [
                                            {
                                                "children": [],
                                                "depth": 3,
                                                "id": 4,
                                                "order": 4
                                            }
                                        ],
                                        "depth": 2,
                                        "id": 3,
                                        "order": 3
                                    }
                                ],
                                "depth": 1,
                                "id": 2,
                                "order": 2
                            }
                        ],
                        "depth": 0,
                        "id": 0,
                        "order": 0
                    }
                ],
                "depth": -1,
                "id": -1,
                "order": -1
            }
        ],
        "mainTraceNodeCount": 5,
        "parentIdMap": {
            "0": -1,
            "1": 0,
            "2": 0,
            "3": 2,
            "4": 3
        },
        "tidyTrace": [
            {
                "children": [
                    {
                        "children": [
                            {
                                "children": [],
                                "depth": 1,
                                "id": 1,
                                "order": 1
                            },
                            {
                                "children": [
                                    {
                                        "children": [
                                            {
                                                "children": [],
                                                "depth": 3,
                                                "id": 4,
                                                "order": 4
                                            }
                                        ],
                                        "depth": 2,
                                        "id": 3,
                                        "order": 3
                                    }
                                ],
                                "depth": 1,
                                "id": 2,
                                "order": 2
                            }
                        ],
                        "depth": 0,
                        "id": 0,
                        "order": 0
                    }
                ],
                "depth": -1,
                "id": -1,
                "order": -1
            }
        ],
        "tidyTraceNodeCount": 5
    },
    "state_change": {
        "stateChanges": [
            {
                "address": "0x656c00e1bcd96f256f224ad9112ff426ef053733",
                "erc": "ERC-20",
                "slots": [
                    {
                        "current": "0x00000000000000000000000000000000000000000000017cace8f0dfad13b6f7",
                        "key": "0x32336e78db1f1e73dbf152106f80832c6d73ec1e83a9a669d02b2cf169ca6f58",
                        "prev": "0x00000000000000000000000000000000000000000000016e0cfdbd542a5c9a85"
                    },
                    {
                        "current": "0x000000000000000000000000000000000000000000074f63dd0aa0146213571c",
                        "key": "0x38f7d431ac9f49b00d48dad023101f00dd9a9cd161806fbfb0be37c411ad70f6",
                        "prev": "0x000000000000000000000000000000000000000000074f727cf5d39fe4ca738e"
                    }
                ],
                "storageVariables": [
                    {
                        "name": "_balances",
                        "type": "mapping(address => uint256)",
                        "value": {
                            "pairs": [
                                {
                                    "key": "0xd1669ac6044269b59fa12c5822439f609ca54f41",
                                    "value": {
                                        "current": "8837389844831444994840348",
                                        "prev": "8837659622609222772618126",
                                        "typeTag": 1
                                    }
                                },
                                {
                                    "key": "0xfb6036e867b1ccd4246792b3cbe030818e8d01b8",
                                    "value": {
                                        "current": "7022222221222222214903",
                                        "prev": "6752444443444444437125",
                                        "typeTag": 1
                                    }
                                }
                            ],
                            "typeTag": 4
                        }
                    }
                ]
            },
            {
                "address": "0xd1669ac6044269b59fa12c5822439f609ca54f41",
                "erc": "",
                "slots": [
                    {
                        "current": "0x00000000000000000000000000000000000000000000000000000000000fa918",
                        "key": "0x0000000000000000000000000000000000000000000000000000000000000007",
                        "prev": "0x00000000000000000000000000000000000000000000000000000000000fa90b"
                    }
                ],
                "storageVariables": []
            }
        ]
    }
}