{
    "balance_change": {
        "balanceChanges": [
            {
                "account": "0x0000000000000000000000000000000000000000",
                "assets": [
                    {
                        "address": "0x715af60ec1c3c65e294c7d8ef340f14e754c66bb",
                        "amount": "1",
                        "iconUrl": "",
                        "isERC1155": true,
                        "isERC721": false,
                        "sign": false,
                        "tokenID": "638",
                        "value": ""
                    },
                    {
                        "address": "0x715af60ec1c3c65e294c7d8ef340f14e754c66bb",
                        "amount": "1",
                        "iconUrl": "",
                        "isERC1155": true,
                        "isERC721": false,
                        "sign": false,
                        "tokenID": "639",
                        "value": ""
                    }
                ]
            },
            {
                "account": "0x5d4d50426f58e9d778d00f6d40e6fa48a0469d5f",
                "assets": [
                    {
                        "address": "0x715af60ec1c3c65e294c7d8ef340f14e754c66bb",
                        "amount": "1",
                        "iconUrl": "",
                        "isERC1155": true,
                        "isERC721": false,
                        "sign": true,
                        "tokenID": "638",
                        "value": ""
                    },
                    {
                        "address": "0x715af60ec1c3c65e294c7d8ef340f14e754c66bb",
                        "amount": "1",
                        "iconUrl": "",
                        "isERC1155": true,
                        "isERC721": false,
                        "sign": true,
                        "tokenID": "639",
                        "value": ""
                    }
                ]
            }
        ]
    },
    "profile": {
        "basic_info": {
            "baseFee": "42.071255295",
            "blockNumber": 17161763,
            "callData": "0x8c0163b70000000000000000000000005d4d50426f58e9d778d00f6d40e6fa48a0469d5f0000000000000000000000000000000000000000000000000000000000000002000000000000000000000000000000000000000000000000000000000000000000000000000000000000000000000000000000000000000000000000000000800000000000000000000000000000000000000000000000000000000000000000",
            "debugEnable": true,
            "errorInfo": "",
            "eventCount": 1,
            "feeRecipient": "0xcdcc84d30dc209e9511565ab582b5a34f02a79ef",
            "formatValue": "0",
            "gasLimit": 355725,
            "gasPrice": "42.165255295",
            "gasUsed": 237150,
            "intTxnCount": 0,
            "internalRevert": false,
            "internalRevertMessage": "",
            "isContractCreation": false,
            "isFlashloan": false,
            "maxFee": "43.096688669",
            "nonce": 58,
            "overwritedBlockNumber": -1,
            "priorityFee": "0.094",
            "receiver": "0x715af60ec1c3c65e294c7d8ef340f14e754c66bb",
            "revertMessage": "",
            "sender": "0x6d7699ab37386f76ae8a4ebd1f4165069d8310e7",
            "simulationEnable": true,
            "sourceTxnHash": "0x546f2259b8e62dd35dfc057c0d900d75fa302e2f289927128625981bbdae90be",
            "status": true,
            "timestamp": "2023-04-30T22:14:23Z",
            "transactionFee": "0.00999949029320925",
            "txnHash": "0x546f2259b8e62dd35dfc057c0d900d75fa302e2f289927128625981bbdae90be",
            "txnIndex": 105,
            "type": 2,
            "value": "0"
        },
        "fund_flow": [
            {
                "amount": "1",
                "from": "0x0000000000000000000000000000000000000000",
                "id": 1,
                "isERC1155": true,
                "isERC721": false,
                "isReverted": false,
                "order": 1,
                "to": "0x5d4d50426f58e9d778d00f6d40e6fa48a0469d5f",
                "token": "0x715af60ec1c3c65e294c7d8ef340f14e754c66bb",
                "tokenID": "638"
            },
            {
                "amount": "1",
                "from": "0x0000000000000000000000000000000000000000",
                "id": 2,
                "isERC1155": true,
                "isERC721": false,
                "isReverted": false,
                "order": 2,
                "to": "0x5d4d50426f58e9d778d00f6d40e6fa48a0469d5f",
                "token": "0x715af60ec1c3c65e294c7d8ef340f14e754c66bb",
                "tokenID": "639"
            }
        ],
        "token_infos": [
            {
                "address": "0xc02aaa39b223fe8d0a0e5c4f27ead9083c756cc2",
                "decimals": 18
            },
            {
                "address": "0xeeeeeeeeeeeeeeeeeeeeeeeeeeeeeeeeeeeeeeee",
                "decimals": 18
            }
        ]
    },
    "address_label": {
        "labels": [
            {
                "address": "0x715af60ec1c3c65e294c7d8ef340f14e754c66bb",
                "label": "The Sanctuary (TSNFT)"
            },
            {
                "address": "0x0000000000000000000000000000000000000001",
                "label": "Precompiled"
            },
            {
                "address": "0x0000000000000000000000000000000000000002",
                "label": "Precompiled"
            },
            {
                "address": "0x0000000000000000000000000000000000000003",
                "label": "Precompiled"
            },
            {
                "address": "0x0000000000000000000000000000000000000004",
                "label": "Precompiled"
            },
            {
                "address": "0xeeeeeeeeeeeeeeeeeeeeeeeeeeeeeeeeeeeeeeee",
                "label": "Ether"
            }
        ]
    },
    "trace": {
        "accountLabels": null,
        "dataMap": {
            "-1": {
                "invocation": {
                    "address": "0x6d7699ab37386f76ae8a4ebd1f4165069d8310e7",
                    "callData": "",
                    "decodedMethod": null,
                    "errorInfo": "",
                    "fromAddress": "",
                    "gasUsed": 0,
                    "id": -1,
                    "methodDecoded": false,
                    "operation": "",
                    "output": "",
                    "revert": false,
                    "revertMessage": "",
                    "selector": "",
                    "status": false,
                    "value": ""
                },
                "nodeType": 0
            },
            "0": {
                "invocation": {
                    "address": "0x715af60ec1c3c65e294c7d8ef340f14e754c66bb",
                    "callData": "0x0000000000000000000000005d4d50426f58e9d778d00f6d40e6fa48a0469d5f0000000000000000000000000000000000000000000000000000000000000002000000000000000000000000000000000000000000000000000000000000000000000000000000000000000000000000000000000000000000000000000000800000000000000000000000000000000000000000000000000000000000000000",
                    "decodedMethod": {
                        "callParams": [
                            {
                                "name": "_to",
                                "type": "address",
                                "value": "0x5d4d50426f58e9d778d00f6d40e6fa48a0469d5f"
                            },
                            {
                                "name": "_numberOfTokensToMint",
                                "type": "uint256",
                                "value": "2"
                            },
                            {
                                "name": "_fromBatch",
                                "type": "uint256",
                                "value": "0"
                            },
                            {
                                "name": "proof",
                                "type": "bytes32[]",
                                "value": []
                            }
                        ],
                        "constructorArguments": "",
                        "name": "_mintInOrder",
                        "returnParams": [],
                        "signature": "_mintInOrder(address,uint256,uint256,bytes32[])"
                    },
                    "errorInfo": "",
                    "fromAddress": "0x6d7699ab37386f76ae8a4ebd1f4165069d8310e7",
                    "gasUsed": 237150,
                    "id": 0,
                    "methodDecoded": true,
                    "operation": "CALL",
                    "output": "",
                    "revert": false,
                    "revertMessage": "",
                    "selector": "0x8c0163b7",
                    "status": true,
                    "value": "0"
                },
                "nodeType": 0
            },
            "1": {
                "event": {
                    "contract": "0x715af60ec1c3c65e294c7d8ef340f14e754c66bb",
                    "decodedLog": {
                        "name": "TransferBatch",
                        "params": [
                            {
                                "name": "operator",
                                "type": "address",
                                "value": "0x6d7699ab37386f76ae8a4ebd1f4165069d8310e7"
                            },
                            {
                                "name": "from",
                                "type": "address",
                                "value": "0x0000000000000000000000000000000000000000"
                            },
                            {
                                "name": "to",
                                "type": "address",
                                "value": "0x5d4d50426f58e9d778d00f6d40e6fa48a0469d5f"
                            },
                            {
                                "name": "ids",
                                "type": "uint256[]",
                                "value": [
                                    "638",
                                    "639"
                                ]
                            },
                            {
                                "name": "values",
                                "type": "uint256[]",
                                "value": [
                                    "1",
                                    "1"
                                ]
                            }
                        ],
                        "signature": "TransferBatch(address,address,address,uint256[],uint256[])"
                    },
                    "id": 1,
                    "logData": "0x000000000000000000000000000000000000000000000000000000000000004000000000000000000000000000000000000000000000000000000000000000a00000000000000000000000000000000000000000000000000000000000000002000000000000000000000000000000000000000000000000000000000000027e000000000000000000000000000000000000000000000000000000000000027f000000000000000000000000000000000000000000000000000000000000000200000000000000000000000000000000000000000000000000000000000000010000000000000000000000000000000000000000000000000000000000000001",
                    "logDecoded": true,
                    "operation": "EVENT",
                    "revert": false,
                    "status": true,
                    "topics": [
                        "0x4a39dc06d4c0dbc64b70af90fd698a233a518aa5d07e595d983b8c0526c8f7fb",
                        "0x0000000000000000000000006d7699ab37386f76ae8a4ebd1f4165069d8310e7",
                        "0x0000000000000000000000000000000000000000000000000000000000000000",
                        "0x0000000000000000000000005d4d50426f58e9d778d00f6d40e6fa48a0469d5f"
                    ]
                },
                "nodeType": 1
            }
        },
        "gasFlame": [
            {
                "children": [
                    {
                        "children": [
                            {
                                "children": [],
                                "depth": 0,
                                "name": "Initial Gas",
                                "value": 21968
                            },
                            {
                                "children": [],
                                "depth": 0,
                                "name": "Executed Gas",
                                "value": 215182
                            }
                        ],
                        "depth": -1,
                        "name": "Actual Gas Used",
                        "value": 237150
                    },
                    {
                        "children": [],
                        "depth": -1,
                        "name": "Refunded Gas",
                        "value": 0
                    }
                ],
                "depth": -2,
                "name": "Total Gas",
                "value": 237150
            }
        ],
        "isConfirmed": true,
        "mainTrace": [
            {
                "children": [
                    {
                        "children": [
                            {
                                "children": [],
                                "depth": 1,
                                "id": 1,
                                "order": 1
                            }
                        ],
                        "depth": 0,
                        "id": 0,
                        "order": 0
                    }
                ],
                "depth": -1,
                "id": -1,
                "order": -1
            }
        ],
        "mainTraceNodeCount": 2,
        "parentIdMap": {
            "0": -1,
            "1": 0
        },
        "tidyTrace": [
            {
                "children": [
                    {
                        "children": [
                            {
                                "children": [],
                                "depth": 1,
                                "id": 1,
                                "order": 1
                            }
                        ],
                        "depth": 0,
                        "id": 0,
                        "order": 0
                    }
                ],
                "depth": -1,
                "id": -1,
                "order": -1
            }
        ],
        "tidyTraceNodeCount": 2
    },
    "state_change": {
        "stateChanges": [
            {
                "address": "0x715af60ec1c3c65e294c7d8ef340f14e754c66bb",
                "erc": "ERC-1155",
                "slots": [
                    {
                        "current": "0x0000000000000000000000000000000000000000000000000000000000000001",
                        "key": "0x69162f2f915f7393627f0382c0060a58c18685e925678b4aaa7a4f31fb8ab02f",
                        "prev": "0x0000000000000000000000000000000000000000000000000000000000000000"
                    },
                    {
                        "current": "0x000000000000000000000000000000000000000000000000000000000000027f",
                        "key": "0x0000000000000000000000000000000000000000000000000000000000000010",
                        "prev": "0x000000000000000000000000000000000000000000000000000000000000027d"
                    },
                    {
                        "current": "0x0000000000000000000000000000000000000000000000000000000000000280",
                        "key": "0xc97bfaf2f8ee708c303a06d134f5ecd8389ae0432af62dc132a24118292866bb",
                        "prev": "0x000000000000000000000000000000000000000000000000000000000000027e"
                    },
                    {
                        "current": "0x0000000000000000000000000000000000000000000000000000000000000001",
                        "key": "0xb1ade2421749fa15df65ad314a149f768ef82ed90e8245a20dd3fa8cfc261c10",
                        "prev": "0x0000000000000000000000000000000000000000000000000000000000000000"
                    },
                    {
                        "current": "0x0000000000000000000000000000000000000000000000000000000000000001",
                        "key": "0xe12407514be2c166a44beef073839b58bd855d82deeaf6f635ce70ac92c207f8",
                        "prev": "0x0000000000000000000000000000000000000000000000000000000000000000"
                    },
                    {
                        "current": "0x0000000000000000000000000000000000000000000000000000000000000001",
                        "key": "0x190c24df097bd7f82d993686d8f74db7e80dc609471a991193b09ac56971eb79",
                        "prev": "0x0000000000000000000000000000000000000000000000000000000000000000"
                    },
                    {
                        "current": "0x0000000000000000000000000000000000000000000000000000000000000001",
                        "key": "0x8da71f968ad696806fbc464bfbf86410d0628a1b99373c9544dc227aad40bac7",
                        "prev": "0x0000000000000000000000000000000000000000000000000000000000000000"
                    },
                    {
                        "current": "0x0000000000000000000000000000000000000000000000000000000000000001",
                        "key": "0x23fa9431bb445580ae35e6a53c91273a1620d44379f821859a3b232d86b8f1ce",
                        "prev": "0x0000000000000000000000000000000000000000000000000000000000000000"
                    }
                ],
                "storageVariables": [
                    {
                        "name": "currentSupply",
                        "type": "mapping(uint256 => uint256)",
                        "value": {
                            "pairs": [
                                {
                                    "key": "638",
                                    "value": {
                                        "current": "1",
                                        "prev": "0",
                                        "typeTag": 1
                                    }
                                },
                                {
                                    "key": "639",
                                    "value": {
                                        "current": "1",
                                        "prev": "0",
                                        "typeTag": 1
                                    }
                                }
                            ],
                            "typeTag": 4
                        }
                    },
                    {
                        "name": "_balances",
                        "type": "mapping(uint256 => mapping(address => uint256))",
                        "value": {
                            "pairs": [
                                {
                                    "key": "638",
                                    "value": {
                                        "pairs": [
                                            {
                                                "key": "0x5d4d50426f58e9d778d00f6d40e6fa48a0469d5f",
                                                "value": {
                                                    "current": "1",
                                                    "prev": "0",
                                                    "typeTag": 1
                                                }
                                            }
                                        ],
                                        "typeTag": 4
                                    }
                                },
                                {
                                    "key": "639",
                                    "value": {
                                        "pairs": [
                                            {
                                                "key": "0x5d4d50426f58e9d778d00f6d40e6fa48a0469d5f",
                                                "value": {
                                                    "current": "1",
                                                    "prev": "0",
                                                    "typeTag": 1
                                                }
                                            }
                                        ],
                                        "typeTag": 4
                                    }
                                }
                            ],
                            "typeTag": 4
                        }
                    },
                    {
                        "name": "createdToken",
                        "type": "mapping(uint256 => bool)",
                        "value": {
                            "pairs": [
                                {
                                    "key": "638",
                                    "value": {
                                        "current": "true",
                                        "prev": "false",
                                        "typeTag": 1
                                    }
                                },
                                {
                                    "key": "639",
                                    "value": {
                                        "current": "true",
                                        "prev": "false",
                                        "typeTag": 1
                                    }
                                }
                            ],
                            "typeTag": 4
                        }
                    },
                    {
                        "name": "randomCounter",
                        "type": "uint256",
                        "value": {
                            "current": "639",
                            "prev": "637",
                            "typeTag": 1
                        }
                    },
                    {
                        "name": "tokenNextToMintInBatch",
                        "type": "uint256[]",
                        "value": {
                            "elemType": "uint256",
                            "elems": [
                                {
                                    "index": 0,
                                    "value": {
                                        "current": "640",
                                        "prev": "638",
                                        "typeTag": 1
                                    }
                                }
                            ],
                            "typeTag": 2
                        }
                    }
                ]
            }
        ]
    }
}