{
    "balance_change": {
        "balanceChanges": [
            {
                "account": "0xecfe1930ffe9f5828a9aba39276a44d18b2e9aa3",
                "assets": [
                    {
                        "address": "0x1c040c4ab9acce984d0d4c135576598013950e52",
                        "amount": "3",
                        "iconUrl": "",
                        "isERC1155": false,
                        "isERC721": false,
                        "sign": false,
                        "value": ""
                    }
                ]
            },
            {
                "account": "0x3afe276e7bf2c2e33b8b772828a1db2c1c731e16",
                "assets": [
                    {
                        "address": "0x1c040c4ab9acce984d0d4c135576598013950e52",
                        "amount": "3",
                        "iconUrl": "",
                        "isERC1155": false,
                        "isERC721": false,
                        "sign": true,
                        "value": ""
                    }
                ]
            }
        ]
    },
    "profile": {
        "basic_info": {
            "baseFee": "",
            "blockNumber": 9158670,
            "callData": "0xa9059cbb0000000000000000000000003afe276e7bf2c2e33b8b772828a1db2c1c731e1600000000000000000000000000000000000000000000000029a2241af62c0000",
            "debugEnable": true,
            "errorInfo": "",
            "eventCount": 1,
            "feeRecipient": "0x5a0b54d5dc17e0aadc383d2db43b0a0d3e029c4c",
            "formatValue": "0",
            "gasLimit": 42131,
            "gasPrice": "20",
            "gasUsed": 42131,
            "intTxnCount": 0,
            "internalRevert": false,
            "internalRevertMessage": "",
            "isContractCreation": false,
            "isFlashloan": false,
            "maxFee": "",
            "nonce": 65341,
            "overwritedBlockNumber": -1,
            "priorityFee": "",
            "receiver": "0x1c040c4ab9acce984d0d4c135576598013950e52",
            "revertMessage": "",
            "sender": "0xecfe1930ffe9f5828a9aba39276a44d18b2e9aa3",
            "simulationEnable": true,
            "sourceTxnHash": "0x548fb6da3222e1593f934c606f41d3a7ce2f3282e59fb54af94ac43e03662309",
            "status": true,
            "timestamp": "2019-12-25T02:25:48Z",
            "transactionFee": "0.00084262",
            "txnHash": "0x548fb6da3222e1593f934c606f41d3a7ce2f3282e59fb54af94ac43e03662309",
            "txnIndex": 60,
            "type": 0,
            "value": "0"
        },
        "fund_flow": [
            {
                "amount": "3",
                "from": "0xecfe1930ffe9f5828a9aba39276a44d18b2e9aa3",
                "id": 1,
                "isERC1155": false,
                "isERC721": false,
                "isReverted": false,
                "order": 1,
                "to": "0x3afe276e7bf2c2e33b8b772828a1db2c1c731e16",
                "token": "0x1c040c4ab9acce984d0d4c135576598013950e52"
            }
        ],
        "token_infos": [
            {
                "address": "0xeeeeeeeeeeeeeeeeeeeeeeeeeeeeeeeeeeeeeeee",
                "decimals": 18
            },
            {
                "address": "0x1c040c4ab9acce984d0d4c135576598013950e52",
                "decimals": 18
            },
            {
                "address": "0xc02aaa39b223fe8d0a0e5c4f27ead9083c756cc2",
                "decimals": 18
            }
        ]
    },
    "address_label": {
        "labels": [
            {
                "address": "0x0000000000000000000000000000000000000004",
                "label": "Precompiled"
            },
            {
                "address": "0xeeeeeeeeeeeeeeeeeeeeeeeeeeeeeeeeeeeeeeee",
                "label": "Ether"
            },
            {
                "address": "0x1c040c4ab9acce984d0d4c135576598013950e52",
                "label": "Hurricane Network (HNW)"
            },
            {
                "address": "0x0000000000000000000000000000000000000001",
                "label": "Precompiled"
            },
            {
                "address": "0x0000000000000000000000000000000000000002",
                "label": "Precompiled"
            },
            {
                "address": "0x0000000000000000000000000000000000000003",
                "label": "Precompiled"
            }
        ]
    },
    "trace": {
        "accountLabels": null,
        "dataMap": {
            "-1": {
                "invocation": {
                    "address": "0xecfe1930ffe9f5828a9aba39276a44d18b2e9aa3",
                    "callData": "",
                    "decodedMethod": null,
                    "errorInfo": "",
                    "fromAddress": "",
                    "gasUsed": 0,
                    "id": -1,
                    "methodDecoded": false,
                    "operation": "",
                    "output": "",
                    "revert": false,
                    "revertMessage": "",
                    "selector": "",
                    "status": false,
                    "value": ""
                },
                "nodeType": 0
            },
            "0": {
                "invocation": {
                    "address": "0x1c040c4ab9acce984d0d4c135576598013950e52",
                    "callData": "0x0000000000000000000000003afe276e7bf2c2e33b8b772828a1db2c1c731e1600000000000000000000000000000000000000000000000029a2241af62c0000",
                    "decodedMethod": {
                        "callParams": [
                            {
                                "name": "_to",
                                "type": "address",
                                "value": "0x3afe276e7bf2c2e33b8b772828a1db2c1c731e16"
                            },
                            {
                                "decimalAvailable": true,
                                "name": "_value",
                                "type": "uint256",
                                "value": "3,000,000,000,000,000,000"
                            }
                        ],
                        "constructorArguments": "",
                        "name": "transfer",
                        "returnParams": [],
                        "signature": "transfer(address,uint256)"
                    },
                    "errorInfo": "",
                    "fromAddress": "0xecfe1930ffe9f5828a9aba39276a44d18b2e9aa3",
                    "gasUsed": 42131,
                    "id": 0,
                    "methodDecoded": true,
                    "operation": "CALL",
                    "output": "",
                    "revert": false,
                    "revertMessage": "",
                    "selector": "0xa9059cbb",
                    "status": true,
                    "value": "0"
                },
                "nodeType": 0
            },
            "1": {
                "event": {
                    "contract": "0x1c040c4ab9acce984d0d4c135576598013950e52",
                    "decodedLog": {
                        "name": "Transfer",
                        "params": [
                            {
                                "name": "from",
                                "type": "address",
                                "value": "0xecfe1930ffe9f5828a9aba39276a44d18b2e9aa3"
                            },
                            {
                                "name": "to",
                                "type": "address",
                                "value": "0x3afe276e7bf2c2e33b8b772828a1db2c1c731e16"
                            },
                            {
                                "decimalAvailable": true,
                                "name": "value",
                                "type": "uint256",
                                "value": "3,000,000,000,000,000,000"
                            }
                        ],
                        "signature": "Transfer(address,address,uint256)"
                    },
                    "id": 1,
                    "logData": "0x00000000000000000000000000000000000000000000000029a2241af62c0000",
                    "logDecoded": true,
                    "operation": "EVENT",
                    "revert": false,
                    "status": true,
                    "topics": [
                        "0xddf252ad1be2c89b69c2b068fc378daa952ba7f163c4a11628f55a4df523b3ef",
                        "0x000000000000000000000000ecfe1930ffe9f5828a9aba39276a44d18b2e9aa3",
                        "0x0000000000000000000000003afe276e7bf2c2e33b8b772828a1db2c1c731e16"
                    ]
                },
                "nodeType": 1
            }
        },
        "gasFlame": [
            {
                "children": [
                    {
                        "children": [
                            {
                                "children": [],
                                "depth": 0,
                                "name": "Initial Gas",
                                "value": 21632
                            },
                            {
                                "children": [],
                                "depth": 0,
                                "name": "Executed Gas",
                                "value": 20499
                            }
                        ],
                        "depth": -1,
                        "name": "Actual Gas Used",
                        "value": 42131
                    },
                    {
                        "children": [],
                        "depth": -1,
                        "name": "Refunded Gas",
                        "value": 0
                    }
                ],
                "depth": -2,
                "name": "Total Gas",
                "value": 42131
            }
        ],
        "isConfirmed": true,
        "mainTrace": [
            {
                "children": [
                    {
                        "children": [
                            {
                                "children": [],
                                "depth": 1,
                                "id": 1,
                                "order": 1
                            }
                        ],
                        "depth": 0,
                        "id": 0,
                        "order": 0
                    }
                ],
                "depth": -1,
                "id": -1,
                "order": -1
            }
        ],
        "mainTraceNodeCount": 2,
        "parentIdMap": {
            "0": -1,
            "1": 0
        },
        "tidyTrace": [
            {
                "children": [
                    {
                        "children": [
                            {
                                "children": [],
                                "depth": 1,
                                "id": 1,
                                "order": 1
                            }
                        ],
                        "depth": 0,
                        "id": 0,
                        "order": 0
                    }
                ],
                "depth": -1,
                "id": -1,
                "order": -1
            }
        ],
        "tidyTraceNodeCount": 2
    },
    "state_change": {
        "stateChanges": [
            {
                "address": "0x1c040c4ab9acce984d0d4c135576598013950e52",
                "erc": "",
                "slots": [
                    {
                        "current": "0x000000000000000000000000000000000000000000002e2f9b3ab9f64951e000",
                        "key": "0x00e0061f9ce7fd657cc8d30177d1e1d2874ad2cb807649c1901076ebd2a72aaa",
                        "prev": "0x000000000000000000000000000000000000000000002e2fc4dcde113f7de000"
                    },
                    {
                        "current": "0x0000000000000000000000000000000000000000000000047fdb3c3f456c0000",
                        "key": "0xb11d3249f1e21715af83af773e2dbb1593a8142ea5627a90492b87ab18ee8a90",
                        "prev": "0x000000000000000000000000000000000000000000000004563918244f400000"
                    }
                ],
                "storageVariables": [
                    {
                        "name": "balanceOf",
                        "type": "mapping(address => uint256)",
                        "value": {
                            "pairs": [
                                {
                                    "key": "0x3afe276e7bf2c2e33b8b772828a1db2c1c731e16",
                                    "value": {
                                        "current": "83000000000000000000",
                                        "prev": "80000000000000000000",
                                        "typeTag": 1
                                    }
                                },
                                {
                                    "key": "0xecfe1930ffe9f5828a9aba39276a44d18b2e9aa3",
                                    "value": {
                                        "current": "218107040640560000000000",
                                        "prev": "218110040640560000000000",
                                        "typeTag": 1
                                    }
                                }
                            ],
                            "typeTag": 4
                        }
                    }
                ]
            }
        ]
    }
}