{
    "balance_change": {
        "balanceChanges": [
            {
                "account": "0xf007dfd3b54d00fbfe9d6a474ecafaa886e80cee",
                "assets": [
                    {
                        "address": "0x72dd4b6bd852a3aa172be4d6c5a6dbec588cf131",
                        "amount": "300",
                        "iconUrl": "https://assets.blocksec.com/icon/f6d38655bb947a2bad5861af173877fe4eb1b38efa1a62ec4726e9fc0a2af2b6.png",
                        "isERC1155": false,
                        "isERC721": false,
                        "sign": false,
                        "value": ""
                    }
                ]
            },
            {
                "account": "0xa12431d0b9db640034b0cdfceef9cce161e62be4",
                "assets": [
                    {
                        "address": "0x72dd4b6bd852a3aa172be4d6c5a6dbec588cf131",
                        "amount": "300",
                        "iconUrl": "https://assets.blocksec.com/icon/f6d38655bb947a2bad5861af173877fe4eb1b38efa1a62ec4726e9fc0a2af2b6.png",
                        "isERC1155": false,
                        "isERC721": false,
                        "sign": true,
                        "value": ""
                    }
                ]
            }
        ]
    },
    "profile": {
        "basic_info": {
            "baseFee": "",
            "blockNumber": 5183333,
            "callData": "0xa9059cbb000000000000000000000000a12431d0b9db640034b0cdfceef9cce161e62be400000000000000000000000000000000000000000000001043561a8829300000",
            "debugEnable": true,
            "errorInfo": "",
            "eventCount": 1,
            "feeRecipient": "0x829bd824b016326a401d083b33d092293333a830",
            "formatValue": "0",
            "gasLimit": 37458,
            "gasPrice": "5",
            "gasUsed": 22458,
            "intTxnCount": 0,
            "internalRevert": false,
            "internalRevertMessage": "",
            "isContractCreation": false,
            "isFlashloan": false,
            "maxFee": "",
            "nonce": 0,
            "overwritedBlockNumber": -1,
            "priorityFee": "",
            "receiver": "0x72dd4b6bd852a3aa172be4d6c5a6dbec588cf131",
            "revertMessage": "",
            "sender": "0xf007dfd3b54d00fbfe9d6a474ecafaa886e80cee",
            "simulationEnable": true,
            "sourceTxnHash": "0x5486745612bfeeb8ab1138e36ba3e2de6f8233f57ecde39131d4fd919fb649e0",
            "status": true,
            "timestamp": "2018-03-02T13:39:53Z",
            "transactionFee": "0.00011229",
            "txnHash": "0x5486745612bfeeb8ab1138e36ba3e2de6f8233f57ecde39131d4fd919fb649e0",
            "txnIndex": 137,
            "type": 0,
            "value": "0"
        },
        "fund_flow": [
            {
                "amount": "300",
                "from": "0xf007dfd3b54d00fbfe9d6a474ecafaa886e80cee",
                "id": 1,
                "isERC1155": false,
                "isERC721": false,
                "isReverted": false,
                "order": 1,
                "to": "0xa12431d0b9db640034b0cdfceef9cce161e62be4",
                "token": "0x72dd4b6bd852a3aa172be4d6c5a6dbec588cf131"
            }
        ],
        "token_infos": [
            {
                "address": "0x72dd4b6bd852a3aa172be4d6c5a6dbec588cf131",
                "decimals": 18
            },
            {
                "address": "0xc02aaa39b223fe8d0a0e5c4f27ead9083c756cc2",
                "decimals": 18
            },
            {
                "address": "0xeeeeeeeeeeeeeeeeeeeeeeeeeeeeeeeeeeeeeeee",
                "decimals": 18
            }
        ]
    },
    "address_label": {
        "labels": [
            {
                "address": "0x0000000000000000000000000000000000000004",
                "label": "Precompiled"
            },
            {
                "address": "0xeeeeeeeeeeeeeeeeeeeeeeeeeeeeeeeeeeeeeeee",
                "label": "Ether"
            },
            {
                "address": "0xa12431d0b9db640034b0cdfceef9cce161e62be4",
                "label": "HitBTC 3"
            },
            {
                "address": "0x72dd4b6bd852a3aa172be4d6c5a6dbec588cf131",
                "label": "NAGACoin"
            },
            {
                "address": "0xf007dfd3b54d00fbfe9d6a474ecafaa886e80cee",
                "label": "HITBTC"
            },
            {
                "address": "0x0000000000000000000000000000000000000001",
                "label": "Precompiled"
            },
            {
                "address": "0x0000000000000000000000000000000000000002",
                "label": "Precompiled"
            },
            {
                "address": "0x0000000000000000000000000000000000000003",
                "label": "Precompiled"
            }
        ]
    },
    "trace": {
        "accountLabels": null,
        "dataMap": {
            "-1": {
                "invocation": {
                    "address": "0xf007dfd3b54d00fbfe9d6a474ecafaa886e80cee",
                    "callData": "",
                    "decodedMethod": null,
                    "errorInfo": "",
                    "fromAddress": "",
                    "gasUsed": 0,
                    "id": -1,
                    "methodDecoded": false,
                    "operation": "",
                    "output": "",
                    "revert": false,
                    "revertMessage": "",
                    "selector": "",
                    "status": false,
                    "value": ""
                },
                "nodeType": 0
            },
            "0": {
                "invocation": {
                    "address": "0x72dd4b6bd852a3aa172be4d6c5a6dbec588cf131",
                    "callData": "0x000000000000000000000000a12431d0b9db640034b0cdfceef9cce161e62be400000000000000000000000000000000000000000000001043561a8829300000",
                    "decodedMethod": {
                        "callParams": [
                            {
                                "name": "_to",
                                "type": "address",
                                "value": "0xa12431d0b9db640034b0cdfceef9cce161e62be4"
                            },
                            {
                                "decimalAvailable": true,
                                "name": "_value",
                                "type": "uint256",
                                "value": "300,000,000,000,000,000,000"
                            }
                        ],
                        "constructorArguments": "",
                        "name": "transfer",
                        "returnParams": [
                            {
                                "name": "",
                                "type": "bool",
                                "value": true
                            }
                        ],
                        "signature": "transfer(address,uint256)"
                    },
                    "errorInfo": "",
                    "fromAddress": "0xf007dfd3b54d00fbfe9d6a474ecafaa886e80cee",
                    "gasUsed": 22458,
                    "id": 0,
                    "methodDecoded": true,
                    "operation": "CALL",
                    "output": "0x0000000000000000000000000000000000000000000000000000000000000001",
                    "revert": false,
                    "revertMessage": "",
                    "selector": "0xa9059cbb",
                    "status": true,
                    "value": "0"
                },
                "nodeType": 0
            },
            "1": {
                "event": {
                    "contract": "0x72dd4b6bd852a3aa172be4d6c5a6dbec588cf131",
                    "decodedLog": {
                        "name": "Transfer",
                        "params": [
                            {
                                "name": "from",
                                "type": "address",
                                "value": "0xf007dfd3b54d00fbfe9d6a474ecafaa886e80cee"
                            },
                            {
                                "name": "to",
                                "type": "address",
                                "value": "0xa12431d0b9db640034b0cdfceef9cce161e62be4"
                            },
                            {
                                "decimalAvailable": true,
                                "name": "value",
                                "type": "uint256",
                                "value": "300,000,000,000,000,000,000"
                            }
                        ],
                        "signature": "Transfer(address,address,uint256)"
                    },
                    "id": 1,
                    "logData": "0x00000000000000000000000000000000000000000000001043561a8829300000",
                    "logDecoded": true,
                    "operation": "EVENT",
                    "revert": false,
                    "status": true,
                    "topics": [
                        "0xddf252ad1be2c89b69c2b068fc378daa952ba7f163c4a11628f55a4df523b3ef",
                        "0x000000000000000000000000f007dfd3b54d00fbfe9d6a474ecafaa886e80cee",
                        "0x000000000000000000000000a12431d0b9db640034b0cdfceef9cce161e62be4"
                    ]
                },
                "nodeType": 1
            }
        },
        "gasFlame": [
            {
                "children": [
                    {
                        "children": [
                            {
                                "children": [],
                                "depth": 0,
                                "name": "Initial Gas",
                                "value": 23192
                            },
                            {
                                "children": [],
                                "depth": 0,
                                "name": "Executed Gas",
                                "value": 14266
                            }
                        ],
                        "depth": -1,
                        "name": "Actual Gas Used",
                        "value": 22458
                    },
                    {
                        "children": [],
                        "depth": -1,
                        "name": "Refunded Gas",
                        "value": 15000
                    }
                ],
                "depth": -2,
                "name": "Total Gas",
                "value": 37458
            }
        ],
        "isConfirmed": true,
        "mainTrace": [
            {
                "children": [
                    {
                        "children": [
                            {
                                "children": [],
                                "depth": 1,
                                "id": 1,
                                "order": 1
                            }
                        ],
                        "depth": 0,
                        "id": 0,
                        "order": 0
                    }
                ],
                "depth": -1,
                "id": -1,
                "order": -1
            }
        ],
        "mainTraceNodeCount": 2,
        "parentIdMap": {
            "0": -1,
            "1": 0
        },
        "tidyTrace": [
            {
                "children": [
                    {
                        "children": [
                            {
                                "children": [],
                                "depth": 1,
                                "id": 1,
                                "order": 1
                            }
                        ],
                        "depth": 0,
                        "id": 0,
                        "order": 0
                    }
                ],
                "depth": -1,
                "id": -1,
                "order": -1
            }
        ],
        "tidyTraceNodeCount": 2
    },
    "state_change": {
        "stateChanges": [
            {
                "address": "0x72dd4b6bd852a3aa172be4d6c5a6dbec588cf131",
                "erc": "ERC-20",
                "slots": [
                    {
                        "current": "0x0000000000000000000000000000000000000000000000000000000000000000",
                        "key": "0x95cd9439ec31264ffbadd4844e1b72ed7a7e3ce6e68a3ee77f6e3b9fa2765e5d",
                        "prev": "0x00000000000000000000000000000000000000000000001043561a8829300000"
                    },
                    {
                        "current": "0x000000000000000000000000000000000000000000058ee8156d7e8e6f7090ae",
                        "key": "0x35b76aec2364c71b95da0dd1ca1c09592e193ba19a30ef51270da7f17c7f4dbb",
                        "prev": "0x000000000000000000000000000000000000000000058ed7d2176406464090ae"
                    }
                ],
                "storageVariables": [
                    {
                        "name": "balances",
                        "type": "mapping(address => uint256)",
                        "value": {
                            "pairs": [
                                {
                                    "key": "0xa12431d0b9db640034b0cdfceef9cce161e62be4",
                                    "value": {
                                        "current": "6719486327295133587902638",
                                        "prev": "6719186327295133587902638",
                                        "typeTag": 1
                                    }
                                },
                                {
                                    "key": "0xf007dfd3b54d00fbfe9d6a474ecafaa886e80cee",
                                    "value": {
                                        "current": "0",
                                        "prev": "300000000000000000000",
                                        "typeTag": 1
                                    }
                                }
                            ],
                            "typeTag": 4
                        }
                    }
                ]
            }
        ]
    }
}