{
    "balance_change": {
        "balanceChanges": [
            {
                "account": "0xe6c3119573d1ab769b1d9e3e925711a6c09a3965",
                "assets": [
                    {
                        "address": "0xd56c90a1b12c93bb48e9a0904a2a1e1d9dcb5161",
                        "amount": "103.21",
                        "iconUrl": "",
                        "isERC1155": false,
                        "isERC721": false,
                        "sign": false,
                        "value": ""
                    }
                ]
            },
            {
                "account": "0x9467c775ee0f48ee7b9705faf44ba5e370338161",
                "assets": [
                    {
                        "address": "0xd56c90a1b12c93bb48e9a0904a2a1e1d9dcb5161",
                        "amount": "103.21",
                        "iconUrl": "",
                        "isERC1155": false,
                        "isERC721": false,
                        "sign": true,
                        "value": ""
                    }
                ]
            }
        ]
    },
    "profile": {
        "basic_info": {
            "baseFee": "",
            "blockNumber": 7182843,
            "callData": "0xa9059cbb0000000000000000000000009467c775ee0f48ee7b9705faf44ba5e3703381610000000000000000000000000000000000000000000000059853942b84110000",
            "debugEnable": true,
            "errorInfo": "",
            "eventCount": 1,
            "feeRecipient": "0xea674fdde714fd979de3edf0f56aa9716b898ec8",
            "formatValue": "0",
            "gasLimit": 60000,
            "gasPrice": "10",
            "gasUsed": 51774,
            "intTxnCount": 0,
            "internalRevert": false,
            "internalRevertMessage": "",
            "isContractCreation": false,
            "isFlashloan": false,
            "maxFee": "",
            "nonce": 73931,
            "overwritedBlockNumber": -1,
            "priorityFee": "",
            "receiver": "0xd56c90a1b12c93bb48e9a0904a2a1e1d9dcb5161",
            "revertMessage": "",
            "sender": "0xe6c3119573d1ab769b1d9e3e925711a6c09a3965",
            "simulationEnable": true,
            "sourceTxnHash": "0x55fe65bad7db321fc9125864e6d70c5da82c7e7b32c104b8ce77c39d719e2dd4",
            "status": true,
            "timestamp": "2019-02-06T10:55:07Z",
            "transactionFee": "0.00051774",
            "txnHash": "0x55fe65bad7db321fc9125864e6d70c5da82c7e7b32c104b8ce77c39d719e2dd4",
            "txnIndex": 9,
            "type": 0,
            "value": "0"
        },
        "fund_flow": [
            {
                "amount": "103.21",
                "from": "0xe6c3119573d1ab769b1d9e3e925711a6c09a3965",
                "id": 1,
                "isERC1155": false,
                "isERC721": false,
                "isReverted": false,
                "order": 1,
                "to": "0x9467c775ee0f48ee7b9705faf44ba5e370338161",
                "token": "0xd56c90a1b12c93bb48e9a0904a2a1e1d9dcb5161"
            }
        ],
        "token_infos": [
            {
                "address": "0xc02aaa39b223fe8d0a0e5c4f27ead9083c756cc2",
                "decimals": 18
            },
            {
                "address": "0xd56c90a1b12c93bb48e9a0904a2a1e1d9dcb5161",
                "decimals": 18
            },
            {
                "address": "0xeeeeeeeeeeeeeeeeeeeeeeeeeeeeeeeeeeeeeeee",
                "decimals": 18
            }
        ]
    },
    "address_label": {
        "labels": [
            {
                "address": "0xd56c90a1b12c93bb48e9a0904a2a1e1d9dcb5161",
                "label": "Five Color Stone (FCS)"
            },
            {
                "address": "0x0000000000000000000000000000000000000001",
                "label": "Precompiled"
            },
            {
                "address": "0x0000000000000000000000000000000000000002",
                "label": "Precompiled"
            },
            {
                "address": "0x0000000000000000000000000000000000000003",
                "label": "Precompiled"
            },
            {
                "address": "0x0000000000000000000000000000000000000004",
                "label": "Precompiled"
            },
            {
                "address": "0xeeeeeeeeeeeeeeeeeeeeeeeeeeeeeeeeeeeeeeee",
                "label": "Ether"
            }
        ]
    },
    "trace": {
        "accountLabels": null,
        "dataMap": {
            "-1": {
                "invocation": {
                    "address": "0xe6c3119573d1ab769b1d9e3e925711a6c09a3965",
                    "callData": "",
                    "decodedMethod": null,
                    "errorInfo": "",
                    "fromAddress": "",
                    "gasUsed": 0,
                    "id": -1,
                    "methodDecoded": false,
                    "operation": "",
                    "output": "",
                    "revert": false,
                    "revertMessage": "",
                    "selector": "",
                    "status": false,
                    "value": ""
                },
                "nodeType": 0
            },
            "0": {
                "invocation": {
                    "address": "0xd56c90a1b12c93bb48e9a0904a2a1e1d9dcb5161",
                    "callData": "0x0000000000000000000000009467c775ee0f48ee7b9705faf44ba5e3703381610000000000000000000000000000000000000000000000059853942b84110000",
                    "decodedMethod": {
                        "callParams": [
                            {
                                "name": "to",
                                "type": "address",
                                "value": "0x9467c775ee0f48ee7b9705faf44ba5e370338161"
                            },
                            {
                                "decimalAvailable": true,
                                "name": "tokens",
                                "type": "uint256",
                                "value": "103,210,000,000,000,000,000"
                            }
                        ],
                        "constructorArguments": "",
                        "name": "transfer",
                        "returnParams": [
                            {
                                "name": "success",
                                "type": "bool",
                                "value": true
                            }
                        ],
                        "signature": "transfer(address,uint256)"
                    },
                    "errorInfo": "",
                    "fromAddress": "0xe6c3119573d1ab769b1d9e3e925711a6c09a3965",
                    "gasUsed": 51774,
                    "id": 0,
                    "methodDecoded": true,
                    "operation": "CALL",
                    "output": "0x0000000000000000000000000000000000000000000000000000000000000001",
                    "revert": false,
                    "revertMessage": "",
                    "selector": "0xa9059cbb",
                    "status": true,
                    "value": "0"
                },
                "nodeType": 0
            },
            "1": {
                "event": {
                    "contract": "0xd56c90a1b12c93bb48e9a0904a2a1e1d9dcb5161",
                    "decodedLog": {
                        "name": "Transfer",
                        "params": [
                            {
                                "name": "from",
                                "type": "address",
                                "value": "0xe6c3119573d1ab769b1d9e3e925711a6c09a3965"
                            },
                            {
                                "name": "to",
                                "type": "address",
                                "value": "0x9467c775ee0f48ee7b9705faf44ba5e370338161"
                            },
                            {
                                "decimalAvailable": true,
                                "name": "tokens",
                                "type": "uint256",
                                "value": "103,210,000,000,000,000,000"
                            }
                        ],
                        "signature": "Transfer(address,address,uint256)"
                    },
                    "id": 1,
                    "logData": "0x0000000000000000000000000000000000000000000000059853942b84110000",
                    "logDecoded": true,
                    "operation": "EVENT",
                    "revert": false,
                    "status": true,
                    "topics": [
                        "0xddf252ad1be2c89b69c2b068fc378daa952ba7f163c4a11628f55a4df523b3ef",
                        "0x000000000000000000000000e6c3119573d1ab769b1d9e3e925711a6c09a3965",
                        "0x0000000000000000000000009467c775ee0f48ee7b9705faf44ba5e370338161"
                    ]
                },
                "nodeType": 1
            }
        },
        "gasFlame": [
            {
                "children": [
                    {
                        "children": [
                            {
                                "children": [],
                                "depth": 0,
                                "name": "Initial Gas",
                                "value": 23256
                            },
                            {
                                "children": [],
                                "depth": 0,
                                "name": "Executed Gas",
                                "value": 28518
                            }
                        ],
                        "depth": -1,
                        "name": "Actual Gas Used",
                        "value": 51774
                    },
                    {
                        "children": [],
                        "depth": -1,
                        "name": "Refunded Gas",
                        "value": 0
                    }
                ],
                "depth": -2,
                "name": "Total Gas",
                "value": 51774
            }
        ],
        "isConfirmed": true,
        "mainTrace": [
            {
                "children": [
                    {
                        "children": [
                            {
                                "children": [],
                                "depth": 1,
                                "id": 1,
                                "order": 1
                            }
                        ],
                        "depth": 0,
                        "id": 0,
                        "order": 0
                    }
                ],
                "depth": -1,
                "id": -1,
                "order": -1
            }
        ],
        "mainTraceNodeCount": 2,
        "parentIdMap": {
            "0": -1,
            "1": 0
        },
        "tidyTrace": [
            {
                "children": [
                    {
                        "children": [
                            {
                                "children": [],
                                "depth": 1,
                                "id": 1,
                                "order": 1
                            }
                        ],
                        "depth": 0,
                        "id": 0,
                        "order": 0
                    }
                ],
                "depth": -1,
                "id": -1,
                "order": -1
            }
        ],
        "tidyTraceNodeCount": 2
    },
    "state_change": {
        "stateChanges": [
            {
                "address": "0xd56c90a1b12c93bb48e9a0904a2a1e1d9dcb5161",
                "erc": "ERC-20",
                "slots": [
                    {
                        "current": "0x0000000000000000000000000000000000000000000adee2f1c208cdcf020000",
                        "key": "0xee957c06e1b58c7653ff7ec550474b6980e8ba9810368fa4d2b531847c5e742a",
                        "prev": "0x0000000000000000000000000000000000000000000adee88a159cf953130000"
                    },
                    {
                        "current": "0x0000000000000000000000000000000000000000000000059853942b84110000",
                        "key": "0x8b7ded78aab93112ac0b7846b680b181f4781bb2872bd4476858df3ebc34d1ba",
                        "prev": "0x0000000000000000000000000000000000000000000000000000000000000000"
                    }
                ],
                "storageVariables": [
                    {
                        "name": "balances",
                        "type": "mapping(address => uint256)",
                        "value": {
                            "pairs": [
                                {
                                    "key": "0x9467c775ee0f48ee7b9705faf44ba5e370338161",
                                    "value": {
                                        "current": "103210000000000000000",
                                        "prev": "0",
                                        "typeTag": 1
                                    }
                                },
                                {
                                    "key": "0xe6c3119573d1ab769b1d9e3e925711a6c09a3965",
                                    "value": {
                                        "current": "13141809940000000000000000",
                                        "prev": "13141913150000000000000000",
                                        "typeTag": 1
                                    }
                                }
                            ],
                            "typeTag": 4
                        }
                    }
                ]
            }
        ]
    }
}