{
    "balance_change": {
        "balanceChanges": []
    },
    "profile": {
        "basic_info": {
            "baseFee": "",
            "blockNumber": 3853340,
            "callData": "0xe1fa8e84e536568496fa199f83f9a59a1c6ee7009aba1b584f5d8991ac9feeeecade7c77",
            "debugEnable": true,
            "errorInfo": "",
            "eventCount": 1,
            "feeRecipient": "0xf3b9d2c81f2b24b0fa0acaaa865b7d9ced5fc2fb",
            "formatValue": "0",
            "gasLimit": 940000,
            "gasPrice": "21",
            "gasUsed": 65800,
            "intTxnCount": 0,
            "internalRevert": false,
            "internalRevertMessage": "",
            "isContractCreation": false,
            "isFlashloan": false,
            "maxFee": "",
            "nonce": 434915,
            "overwritedBlockNumber": -1,
            "priorityFee": "",
            "receiver": "0xcd111aa492a9c77a367c36e6d6af8e6f212e0c8e",
            "revertMessage": "",
            "sender": "0x00472c1e4275230354dbe5007a5976053f12610a",
            "simulationEnable": true,
            "sourceTxnHash": "0x554e224beba222e3ef8b0f156c4d34a79ae2ff5ab6bb9f2ccbbc9a20613204a0",
            "status": true,
            "timestamp": "2017-06-11T01:51:58Z",
            "transactionFee": "0.0013818",
            "txnHash": "0x554e224beba222e3ef8b0f156c4d34a79ae2ff5ab6bb9f2ccbbc9a20613204a0",
            "txnIndex": 10,
            "type": 0,
            "value": "0"
        },
        "fund_flow": [],
        "token_infos": [
            {
                "address": "0xc02aaa39b223fe8d0a0e5c4f27ead9083c756cc2",
                "decimals": 18
            },
            {
                "address": "0xeeeeeeeeeeeeeeeeeeeeeeeeeeeeeeeeeeeeeeee",
                "decimals": 18
            }
        ]
    },
    "address_label": {
        "labels": [
            {
                "address": "0xeeeeeeeeeeeeeeeeeeeeeeeeeeeeeeeeeeeeeeee",
                "label": "Ether"
            },
            {
                "address": "0x00472c1e4275230354dbe5007a5976053f12610a",
                "label": "Acronis"
            },
            {
                "address": "0xcd111aa492a9c77a367c36e6d6af8e6f212e0c8e",
                "label": "Acronis: Contract"
            },
            {
                "address": "0x0000000000000000000000000000000000000001",
                "label": "Precompiled"
            },
            {
                "address": "0x0000000000000000000000000000000000000002",
                "label": "Precompiled"
            },
            {
                "address": "0x0000000000000000000000000000000000000003",
                "label": "Precompiled"
            },
            {
                "address": "0x0000000000000000000000000000000000000004",
                "label": "Precompiled"
            }
        ]
    },
    "trace": {
        "accountLabels": null,
        "dataMap": {
            "-1": {
                "invocation": {
                    "address": "0x00472c1e4275230354dbe5007a5976053f12610a",
                    "callData": "",
                    "decodedMethod": null,
                    "errorInfo": "",
                    "fromAddress": "",
                    "gasUsed": 0,
                    "id": -1,
                    "methodDecoded": false,
                    "operation": "",
                    "output": "",
                    "revert": false,
                    "revertMessage": "",
                    "selector": "",
                    "status": false,
                    "value": ""
                },
                "nodeType": 0
            },
            "0": {
                "invocation": {
                    "address": "0xcd111aa492a9c77a367c36e6d6af8e6f212e0c8e",
                    "callData": "0xe536568496fa199f83f9a59a1c6ee7009aba1b584f5d8991ac9feeeecade7c77",
                    "decodedMethod": {
                        "callParams": [
                            {
                                "name": "id",
                                "type": "bytes32",
                                "value": "0xe536568496fa199f83f9a59a1c6ee7009aba1b584f5d8991ac9feeeecade7c77"
                            }
                        ],
                        "constructorArguments": "",
                        "name": "register",
                        "returnParams": [],
                        "signature": "register(bytes32)"
                    },
                    "errorInfo": "",
                    "fromAddress": "0x00472c1e4275230354dbe5007a5976053f12610a",
                    "gasUsed": 65800,
                    "id": 0,
                    "methodDecoded": true,
                    "operation": "CALL",
                    "output": "",
                    "revert": false,
                    "revertMessage": "",
                    "selector": "0xe1fa8e84",
                    "status": true,
                    "value": "0"
                },
                "nodeType": 0
            },
            "1": {
                "event": {
                    "contract": "0xcd111aa492a9c77a367c36e6d6af8e6f212e0c8e",
                    "decodedLog": null,
                    "id": 1,
                    "logData": "0xe536568496fa199f83f9a59a1c6ee7009aba1b584f5d8991ac9feeeecade7c77",
                    "logDecoded": false,
                    "operation": "EVENT",
                    "revert": false,
                    "status": true,
                    "topics": [
                        "0x78e4fc71ff7e525b3b4660a76336a2046232fd9bba9c65abb22fa3d07d6e7066"
                    ]
                },
                "nodeType": 1
            }
        },
        "gasFlame": [
            {
                "children": [
                    {
                        "children": [
                            {
                                "children": [],
                                "depth": 0,
                                "name": "Initial Gas",
                                "value": 23384
                            },
                            {
                                "children": [],
                                "depth": 0,
                                "name": "Executed Gas",
                                "value": 42416
                            }
                        ],
                        "depth": -1,
                        "name": "Actual Gas Used",
                        "value": 65800
                    },
                    {
                        "children": [],
                        "depth": -1,
                        "name": "Refunded Gas",
                        "value": 0
                    }
                ],
                "depth": -2,
                "name": "Total Gas",
                "value": 65800
            }
        ],
        "isConfirmed": true,
        "mainTrace": [
            {
                "children": [
                    {
                        "children": [
                            {
                                "children": [],
                                "depth": 1,
                                "id": 1,
                                "order": 1
                            }
                        ],
                        "depth": 0,
                        "id": 0,
                        "order": 0
                    }
                ],
                "depth": -1,
                "id": -1,
                "order": -1
            }
        ],
        "mainTraceNodeCount": 2,
        "parentIdMap": {
            "0": -1,
            "1": 0
        },
        "tidyTrace": [
            {
                "children": [
                    {
                        "children": [
                            {
                                "children": [],
                                "depth": 1,
                                "id": 1,
                                "order": 1
                            }
                        ],
                        "depth": 0,
                        "id": 0,
                        "order": 0
                    }
                ],
                "depth": -1,
                "id": -1,
                "order": -1
            }
        ],
        "tidyTraceNodeCount": 2
    },
    "state_change": {
        "stateChanges": [
            {
                "address": "0xcd111aa492a9c77a367c36e6d6af8e6f212e0c8e",
                "erc": "",
                "slots": [
                    {
                        "current": "0x00000000000000000000000000472c1e4275230354dbe5007a5976053f12610a",
                        "key": "0x029c840a61fa2c40401831e4cfa6beeb7a551c3af7e96ddb10cc1ee93904da46",
                        "prev": "0x0000000000000000000000000000000000000000000000000000000000000000"
                    },
                    {
                        "current": "0x00000000000000000000000000000000000000000000000000000000593ca23e",
                        "key": "0x029c840a61fa2c40401831e4cfa6beeb7a551c3af7e96ddb10cc1ee93904da47",
                        "prev": "0x0000000000000000000000000000000000000000000000000000000000000000"
                    }
                ],
                "storageVariables": []
            }
        ]
    }
}