{
    "balance_change": {
        "balanceChanges": [
            {
                "account": "0xece701c76bd00d1c3f96410a0c69ea8dfcf5f34e",
                "assets": [
                    {
                        "address": "0xeeeeeeeeeeeeeeeeeeeeeeeeeeeeeeeeeeeeeeee",
                        "amount": "0.000000000000000001",
                        "iconUrl": "https://assets.blocksec.com/image/1663669189317-3.png",
                        "isERC1155": false,
                        "isERC721": false,
                        "sign": false,
                        "value": ""
                    }
                ]
            },
            {
                "account": "0xcdd93e0d2461d5ddb9228fbf1b71123cecf8f3c9",
                "assets": [
                    {
                        "address": "0xeeeeeeeeeeeeeeeeeeeeeeeeeeeeeeeeeeeeeeee",
                        "amount": "0.000000000000000001",
                        "iconUrl": "https://assets.blocksec.com/image/1663669189317-3.png",
                        "isERC1155": false,
                        "isERC721": false,
                        "sign": true,
                        "value": ""
                    }
                ]
            }
        ]
    },
    "profile": {
        "basic_info": {
            "baseFee": "",
            "blockNumber": 4077857,
            "callData": "0x38bbfa50c98b2debbd15da9d1906ed4471ebb80e3d57d46e05120026747b59c28d7f931b000000000000000000000000000000000000000000000000000000000000006000000000000000000000000000000000000000000000000000000000000000a0000000000000000000000000000000000000000000000000000000000000000d5b35383434372c205b35375d5d000000000000000000000000000000000000000000000000000000000000000000000000000000000000000000000000000022122080aef133f5625f39cb703d5c31c2f880606e983a36eb7742d023dc5b5767d8d2000000000000000000000000000000000000000000000000000000000000",
            "debugEnable": true,
            "errorInfo": "",
            "eventCount": 1,
            "feeRecipient": "0x1e9939daaad6924ad004c2560e90804164900341",
            "formatValue": "0",
            "gasLimit": 235000,
            "gasPrice": "20",
            "gasUsed": 137933,
            "intTxnCount": 3,
            "internalRevert": false,
            "internalRevertMessage": "",
            "isContractCreation": false,
            "isFlashloan": false,
            "maxFee": "",
            "nonce": 169475,
            "overwritedBlockNumber": -1,
            "priorityFee": "",
            "receiver": "0xece701c76bd00d1c3f96410a0c69ea8dfcf5f34e",
            "revertMessage": "",
            "sender": "0x26588a9301b0428d95e6fc3a5024fce8bec12d51",
            "simulationEnable": true,
            "sourceTxnHash": "0x55e52dcb365c5026249f989b4f3cc8c98b849a54cec7b2652af3499d95053b24",
            "status": true,
            "timestamp": "2017-07-26T20:45:04Z",
            "transactionFee": "0.00275866",
            "txnHash": "0x55e52dcb365c5026249f989b4f3cc8c98b849a54cec7b2652af3499d95053b24",
            "txnIndex": 111,
            "type": 0,
            "value": "0"
        },
        "fund_flow": [
            {
                "amount": "0.000000000000000001",
                "from": "0xece701c76bd00d1c3f96410a0c69ea8dfcf5f34e",
                "id": 1,
                "isERC1155": false,
                "isERC721": false,
                "isReverted": false,
                "order": 1,
                "to": "0xcdd93e0d2461d5ddb9228fbf1b71123cecf8f3c9",
                "token": "0xeeeeeeeeeeeeeeeeeeeeeeeeeeeeeeeeeeeeeeee"
            }
        ],
        "token_infos": [
            {
                "address": "0xc02aaa39b223fe8d0a0e5c4f27ead9083c756cc2",
                "decimals": 18
            },
            {
                "address": "0xeeeeeeeeeeeeeeeeeeeeeeeeeeeeeeeeeeeeeeee",
                "decimals": 18
            }
        ]
    },
    "address_label": {
        "labels": [
            {
                "address": "0x0000000000000000000000000000000000000002",
                "label": "Precompiled"
            },
            {
                "address": "0x0000000000000000000000000000000000000003",
                "label": "Precompiled"
            },
            {
                "address": "0xeeeeeeeeeeeeeeeeeeeeeeeeeeeeeeeeeeeeeeee",
                "label": "Ether"
            },
            {
                "address": "0xece701c76bd00d1c3f96410a0c69ea8dfcf5f34e",
                "label": "Etheroll: Old Contract 3"
            },
            {
                "address": "0x26588a9301b0428d95e6fc3a5024fce8bec12d51",
                "label": "0x2658_Oraclize"
            },
            {
                "address": "0x0000000000000000000000000000000000000001",
                "label": "Precompiled"
            },
            {
                "address": "0x1d3b2638a7cc9f2cb3d298a3da7a90b67e5506ed",
                "label": "OraclizeAddrResolver"
            },
            {
                "address": "0x6f28b146804dba2d6f944c03528a8fdbc673df2c",
                "label": "0x6f28_Oraclize"
            },
            {
                "address": "0x0000000000000000000000000000000000000004",
                "label": "Precompiled"
            }
        ]
    },
    "trace": {
        "accountLabels": null,
        "dataMap": {
            "-1": {
                "invocation": {
                    "address": "0x26588a9301b0428d95e6fc3a5024fce8bec12d51",
                    "callData": "",
                    "decodedMethod": null,
                    "errorInfo": "",
                    "fromAddress": "",
                    "gasUsed": 0,
                    "id": -1,
                    "methodDecoded": false,
                    "operation": "",
                    "output": "",
                    "revert": false,
                    "revertMessage": "",
                    "selector": "",
                    "status": false,
                    "value": ""
                },
                "nodeType": 0
            },
            "0": {
                "invocation": {
                    "address": "0xece701c76bd00d1c3f96410a0c69ea8dfcf5f34e",
                    "callData": "0xc98b2debbd15da9d1906ed4471ebb80e3d57d46e05120026747b59c28d7f931b000000000000000000000000000000000000000000000000000000000000006000000000000000000000000000000000000000000000000000000000000000a0000000000000000000000000000000000000000000000000000000000000000d5b35383434372c205b35375d5d000000000000000000000000000000000000000000000000000000000000000000000000000000000000000000000000000022122080aef133f5625f39cb703d5c31c2f880606e983a36eb7742d023dc5b5767d8d2000000000000000000000000000000000000000000000000000000000000",
                    "decodedMethod": {
                        "callParams": [
                            {
                                "name": "myid",
                                "type": "bytes32",
                                "value": "0xc98b2debbd15da9d1906ed4471ebb80e3d57d46e05120026747b59c28d7f931b"
                            },
                            {
                                "name": "result",
                                "type": "string",
                                "value": "[58447, [57]]"
                            },
                            {
                                "name": "proof",
                                "type": "bytes",
                                "value": "0x122080aef133f5625f39cb703d5c31c2f880606e983a36eb7742d023dc5b5767d8d2"
                            }
                        ],
                        "constructorArguments": "",
                        "name": "__callback",
                        "returnParams": [],
                        "signature": "__callback(bytes32,string,bytes)"
                    },
                    "errorInfo": "",
                    "fromAddress": "0x26588a9301b0428d95e6fc3a5024fce8bec12d51",
                    "gasUsed": 137933,
                    "id": 0,
                    "methodDecoded": true,
                    "operation": "CALL",
                    "output": "",
                    "revert": false,
                    "revertMessage": "",
                    "selector": "0x38bbfa50",
                    "status": true,
                    "value": "0"
                },
                "nodeType": 0
            },
            "1": {
                "invocation": {
                    "address": "0x1d3b2638a7cc9f2cb3d298a3da7a90b67e5506ed",
                    "callData": "0x",
                    "decodedMethod": {
                        "callParams": [],
                        "constructorArguments": "",
                        "name": "getAddress",
                        "returnParams": [
                            {
                                "name": "oaddr",
                                "type": "address",
                                "value": "0x6f28b146804dba2d6f944c03528a8fdbc673df2c"
                            }
                        ],
                        "signature": "getAddress()"
                    },
                    "errorInfo": "",
                    "fromAddress": "0xece701c76bd00d1c3f96410a0c69ea8dfcf5f34e",
                    "gasUsed": 418,
                    "id": 1,
                    "methodDecoded": true,
                    "operation": "CALL",
                    "output": "0x0000000000000000000000006f28b146804dba2d6f944c03528a8fdbc673df2c",
                    "revert": false,
                    "revertMessage": "",
                    "selector": "0x38cc4831",
                    "status": true,
                    "value": "0"
                },
                "nodeType": 0
            },
            "2": {
                "invocation": {
                    "address": "0x6f28b146804dba2d6f944c03528a8fdbc673df2c",
                    "callData": "0x",
                    "decodedMethod": {
                        "callParams": [],
                        "constructorArguments": "",
                        "name": "cbAddress",
                        "returnParams": [
                            {
                                "name": "_cbAddress",
                                "type": "address",
                                "value": "0x26588a9301b0428d95e6fc3a5024fce8bec12d51"
                            }
                        ],
                        "signature": "cbAddress()"
                    },
                    "errorInfo": "",
                    "fromAddress": "0xece701c76bd00d1c3f96410a0c69ea8dfcf5f34e",
                    "gasUsed": 1403,
                    "id": 2,
                    "methodDecoded": true,
                    "operation": "CALL",
                    "output": "0x00000000000000000000000026588a9301b0428d95e6fc3a5024fce8bec12d51",
                    "revert": false,
                    "revertMessage": "",
                    "selector": "0xc281d19e",
                    "status": true,
                    "value": "0"
                },
                "nodeType": 0
            },
            "3": {
                "event": {
                    "contract": "0xece701c76bd00d1c3f96410a0c69ea8dfcf5f34e",
                    "decodedLog": {
                        "name": "LogResult",
                        "params": [
                            {
                                "name": "ResultSerialNumber",
                                "type": "uint256",
                                "value": "58,447"
                            },
                            {
                                "name": "BetID",
                                "type": "bytes32",
                                "value": "0xc98b2debbd15da9d1906ed4471ebb80e3d57d46e05120026747b59c28d7f931b"
                            },
                            {
                                "name": "PlayerAddress",
                                "type": "address",
                                "value": "0xcdd93e0d2461d5ddb9228fbf1b71123cecf8f3c9"
                            },
                            {
                                "name": "PlayerNumber",
                                "type": "uint256",
                                "value": "42"
                            },
                            {
                                "name": "DiceResult",
                                "type": "uint256",
                                "value": "57"
                            },
                            {
                                "name": "Value",
                                "type": "uint256",
                                "value": "250,000,000,000,000,000"
                            },
                            {
                                "name": "Status",
                                "type": "int256",
                                "value": "0"
                            },
                            {
                                "name": "Proof",
                                "type": "bytes",
                                "value": "0x122080aef133f5625f39cb703d5c31c2f880606e983a36eb7742d023dc5b5767d8d2"
                            }
                        ],
                        "signature": "LogResult(uint256,bytes32,address,uint256,uint256,uint256,int256,bytes)"
                    },
                    "id": 3,
                    "logData": "0x000000000000000000000000000000000000000000000000000000000000002a000000000000000000000000000000000000000000000000000000000000003900000000000000000000000000000000000000000000000003782dace9d90000000000000000000000000000000000000000000000000000000000000000000000000000000000000000000000000000000000000000000000000000000000a00000000000000000000000000000000000000000000000000000000000000022122080aef133f5625f39cb703d5c31c2f880606e983a36eb7742d023dc5b5767d8d2000000000000000000000000000000000000000000000000000000000000",
                    "logDecoded": true,
                    "operation": "EVENT",
                    "revert": false,
                    "status": true,
                    "topics": [
                        "0x8dd0b145385d04711e29558ceab40b456976a2b9a7d648cc1bcd416161bf97b9",
                        "0x000000000000000000000000000000000000000000000000000000000000e44f",
                        "0xc98b2debbd15da9d1906ed4471ebb80e3d57d46e05120026747b59c28d7f931b",
                        "0x000000000000000000000000cdd93e0d2461d5ddb9228fbf1b71123cecf8f3c9"
                    ]
                },
                "nodeType": 1
            },
            "4": {
                "invocation": {
                    "address": "0xcdd93e0d2461d5ddb9228fbf1b71123cecf8f3c9",
                    "callData": "0x",
                    "decodedMethod": null,
                    "errorInfo": "",
                    "fromAddress": "0xece701c76bd00d1c3f96410a0c69ea8dfcf5f34e",
                    "gasUsed": 0,
                    "id": 4,
                    "methodDecoded": false,
                    "operation": "CALL",
                    "output": "",
                    "revert": false,
                    "revertMessage": "",
                    "selector": "fallback",
                    "status": true,
                    "value": "0.000000000000000001"
                },
                "nodeType": 0
            }
        },
        "gasFlame": [
            {
                "children": [
                    {
                        "children": [
                            {
                                "children": [],
                                "depth": 0,
                                "name": "Initial Gas",
                                "value": 27544
                            },
                            {
                                "children": [
                                    {
                                        "children": [],
                                        "depth": 1,
                                        "name": "getAddress",
                                        "value": 418
                                    },
                                    {
                                        "children": [],
                                        "depth": 1,
                                        "name": "cbAddress",
                                        "value": 1403
                                    },
                                    {
                                        "children": [],
                                        "depth": 1,
                                        "name": "fallback",
                                        "value": 0
                                    }
                                ],
                                "depth": 0,
                                "name": "Executed Gas",
                                "value": 155389
                            }
                        ],
                        "depth": -1,
                        "name": "Actual Gas Used",
                        "value": 137933
                    },
                    {
                        "children": [],
                        "depth": -1,
                        "name": "Refunded Gas",
                        "value": 45000
                    }
                ],
                "depth": -2,
                "name": "Total Gas",
                "value": 182933
            }
        ],
        "isConfirmed": true,
        "mainTrace": [
            {
                "children": [
                    {
                        "children": [
                            {
                                "children": [],
                                "depth": 1,
                                "id": 1,
                                "order": 1
                            },
                            {
                                "children": [],
                                "depth": 1,
                                "id": 2,
                                "order": 2
                            },
                            {
                                "children": [],
                                "depth": 1,
                                "id": 3,
                                "order": 3
                            },
                            {
                                "children": [],
                                "depth": 1,
                                "id": 4,
                                "order": 4
                            }
                        ],
                        "depth": 0,
                        "id": 0,
                        "order": 0
                    }
                ],
                "depth": -1,
                "id": -1,
                "order": -1
            }
        ],
        "mainTraceNodeCount": 5,
        "parentIdMap": {
            "0": -1,
            "1": 0,
            "2": 0,
            "3": 0,
            "4": 0
        },
        "tidyTrace": [
            {
                "children": [
                    {
                        "children": [
                            {
                                "children": [],
                                "depth": 1,
                                "id": 1,
                                "order": 1
                            },
                            {
                                "children": [],
                                "depth": 1,
                                "id": 2,
                                "order": 2
                            },
                            {
                                "children": [],
                                "depth": 1,
                                "id": 3,
                                "order": 3
                            },
                            {
                                "children": [],
                                "depth": 1,
                                "id": 4,
                                "order": 4
                            }
                        ],
                        "depth": 0,
                        "id": 0,
                        "order": 0
                    }
                ],
                "depth": -1,
                "id": -1,
                "order": -1
            }
        ],
        "tidyTraceNodeCount": 5
    },
    "state_change": {
        "stateChanges": [
            {
                "address": "0xece701c76bd00d1c3f96410a0c69ea8dfcf5f34e",
                "erc": "",
                "slots": [
                    {
                        "current": "0x00000000000000000000000000000000000000000000000004e87290b4f4895c",
                        "key": "0x807cc2acd219fd8b70021f22c647614740a0f00e3bc4c145f52ed2fd3e2a2924",
                        "prev": "0x0000000000000000000000000000000000000000000000000000000000000000"
                    },
                    {
                        "current": "0x000000000000000000000000000000000000000000000000599f543ee1401b9f",
                        "key": "0x000000000000000000000000000000000000000000000000000000000000000a",
                        "prev": "0x0000000000000000000000000000000000000000000000005e87c6cf9634a4fb"
                    },
                    {
                        "current": "0x00000000000000000000000000000000000000000000000108c2aab1a11c19e9",
                        "key": "0x0000000000000000000000000000000000000000000000000000000000000006",
                        "prev": "0x00000000000000000000000000000000000000000000000108b9c8f5052bd9e9"
                    },
                    {
                        "current": "0x000000000000000000000000cdd93e0d2461d5ddb9228fbf1b71123cecf8f3c9",
                        "key": "0x9302027cb427a8539d4b114c4c0d9c715eb5af508d6fa4fee0d02d71156cbc19",
                        "prev": "0x0000000000000000000000000000000000000000000000000000000000000000"
                    },
                    {
                        "current": "0x0000000000000000000000000000000000000000000000000000000000000000",
                        "key": "0xe95dadede2c0de67d26c1382093ed390ac1e7f726d57511e1c64390354d5255e",
                        "prev": "0x000000000000000000000000cdd93e0d2461d5ddb9228fbf1b71123cecf8f3c9"
                    },
                    {
                        "current": "0x00000000000000000000000000000000000000000000000003782dace9d90000",
                        "key": "0xa562ea3cb0dd4cda261aa76e14e2b60eb3c7044408d4e4e73f7ffe6b5f55c867",
                        "prev": "0x0000000000000000000000000000000000000000000000000000000000000000"
                    },
                    {
                        "current": "0x0000000000000000000000000000000000000000000000676c0aad62eefa1f28",
                        "key": "0x0000000000000000000000000000000000000000000000000000000000000004",
                        "prev": "0x00000000000000000000000000000000000000000000006768927fb605211f29"
                    },
                    {
                        "current": "0x0000000000000000000000000000000000000000000000000000000000000000",
                        "key": "0xca67df7a5ba8afd945c53ad586018ef68f85568844fd9e86df4cad31aa07267c",
                        "prev": "0x00000000000000000000000000000000000000000000000004e87290b4f4895c"
                    },
                    {
                        "current": "0x0000000000000000000000000000000000000000000000000000000000000000",
                        "key": "0xace8a1fa54475217b3aeb4e64ca0a29d66059185681b783216e8da3b40e68ff9",
                        "prev": "0x00000000000000000000000000000000000000000000000003782dace9d90000"
                    },
                    {
                        "current": "0x0000000000000000000000000000000000000000000000000000000000000039",
                        "key": "0xc328455c08786b0810abdcd2398062b3ab14eb5850b50d55de140de6c4a511a4",
                        "prev": "0x0000000000000000000000000000000000000000000000000000000000000000"
                    }
                ],
                "storageVariables": []
            }
        ]
    }
}