{
    "balance_change": {
        "balanceChanges": [
            {
                "account": "0x00a133c53edb71773c7cd2d6b3285a442f4590c1",
                "assets": [
                    {
                        "address": "0xeeeeeeeeeeeeeeeeeeeeeeeeeeeeeeeeeeeeeeee",
                        "amount": "0.032",
                        "iconUrl": "https://assets.blocksec.com/image/1663669189317-3.png",
                        "isERC1155": false,
                        "isERC721": false,
                        "sign": false,
                        "value": ""
                    }
                ]
            },
            {
                "account": "0xabea9132b05a70803a4e85094fd0e1800777fbef",
                "assets": [
                    {
                        "address": "0xeeeeeeeeeeeeeeeeeeeeeeeeeeeeeeeeeeeeeeee",
                        "amount": "0.032",
                        "iconUrl": "https://assets.blocksec.com/image/1663669189317-3.png",
                        "isERC1155": false,
                        "isERC721": false,
                        "sign": true,
                        "value": ""
                    }
                ]
            }
        ]
    },
    "profile": {
        "basic_info": {
            "baseFee": "108.891860001",
            "blockNumber": 13674321,
            "callData": "0x2d2da80600000000000000000000000000a133c53edb71773c7cd2d6b3285a442f4590c1",
            "debugEnable": true,
            "errorInfo": "",
            "eventCount": 2,
            "feeRecipient": "0x1ad91ee08f21be3de0ba2ba6918e714da6b45836",
            "formatValue": "0.032",
            "gasLimit": 90000,
            "gasPrice": "114.115313133",
            "gasUsed": 62587,
            "intTxnCount": 1,
            "internalRevert": false,
            "internalRevertMessage": "",
            "isContractCreation": false,
            "isFlashloan": false,
            "maxFee": "114.115313133",
            "nonce": 387,
            "overwritedBlockNumber": -1,
            "priorityFee": "114.115313133",
            "receiver": "0xabea9132b05a70803a4e85094fd0e1800777fbef",
            "revertMessage": "",
            "sender": "0x00a133c53edb71773c7cd2d6b3285a442f4590c1",
            "simulationEnable": true,
            "sourceTxnHash": "0x557a1345c2139bcd726b1993d3071fcd38336e9926c0c23dd80d539d74764ad4",
            "status": true,
            "timestamp": "2021-11-24T01:32:05Z",
            "transactionFee": "0.007142135103055071",
            "txnHash": "0x557a1345c2139bcd726b1993d3071fcd38336e9926c0c23dd80d539d74764ad4",
            "txnIndex": 27,
            "type": 2,
            "value": "32000000000000000"
        },
        "fund_flow": [
            {
                "amount": "0.032",
                "from": "0x00a133c53edb71773c7cd2d6b3285a442f4590c1",
                "id": 1,
                "isERC1155": false,
                "isERC721": false,
                "isReverted": false,
                "order": 1,
                "to": "0xabea9132b05a70803a4e85094fd0e1800777fbef",
                "token": "0xeeeeeeeeeeeeeeeeeeeeeeeeeeeeeeeeeeeeeeee"
            }
        ],
        "token_infos": [
            {
                "address": "0xc02aaa39b223fe8d0a0e5c4f27ead9083c756cc2",
                "decimals": 18
            },
            {
                "address": "0xeeeeeeeeeeeeeeeeeeeeeeeeeeeeeeeeeeeeeeee",
                "decimals": 18
            }
        ]
    },
    "address_label": {
        "labels": [
            {
                "address": "0xeeeeeeeeeeeeeeeeeeeeeeeeeeeeeeeeeeeeeeee",
                "label": "Ether"
            },
            {
                "address": "0xabea9132b05a70803a4e85094fd0e1800777fbef",
                "label": "zkSync"
            },
            {
                "address": "0xd61dff4b146e8e6bdcdad5c48e72d0ba85d94dbc",
                "label": "ZkSync"
            },
            {
                "address": "0x0000000000000000000000000000000000000001",
                "label": "Precompiled"
            },
            {
                "address": "0x0000000000000000000000000000000000000002",
                "label": "Precompiled"
            },
            {
                "address": "0x0000000000000000000000000000000000000003",
                "label": "Precompiled"
            },
            {
                "address": "0x0000000000000000000000000000000000000004",
                "label": "Precompiled"
            }
        ]
    },
    "trace": {
        "accountLabels": null,
        "dataMap": {
            "-1": {
                "invocation": {
                    "address": "0x00a133c53edb71773c7cd2d6b3285a442f4590c1",
                    "callData": "",
                    "decodedMethod": null,
                    "errorInfo": "",
                    "fromAddress": "",
                    "gasUsed": 0,
                    "id": -1,
                    "methodDecoded": false,
                    "operation": "",
                    "output": "",
                    "revert": false,
                    "revertMessage": "",
                    "selector": "",
                    "status": false,
                    "value": ""
                },
                "nodeType": 0
            },
            "0": {
                "invocation": {
                    "address": "0xabea9132b05a70803a4e85094fd0e1800777fbef",
                    "callData": "0x00000000000000000000000000a133c53edb71773c7cd2d6b3285a442f4590c1",
                    "decodedMethod": {
                        "callParams": [
                            {
                                "name": "_zkSyncAddress",
                                "type": "address",
                                "value": "0x00a133c53edb71773c7cd2d6b3285a442f4590c1"
                            }
                        ],
                        "constructorArguments": "",
                        "name": "depositETH",
                        "returnParams": [],
                        "signature": "depositETH(address)"
                    },
                    "errorInfo": "",
                    "fromAddress": "0x00a133c53edb71773c7cd2d6b3285a442f4590c1",
                    "gasUsed": 62587,
                    "id": 0,
                    "methodDecoded": true,
                    "operation": "CALL",
                    "output": "",
                    "revert": false,
                    "revertMessage": "",
                    "selector": "0x2d2da806",
                    "status": true,
                    "value": "0.032"
                },
                "nodeType": 0
            },
            "1": {
                "invocation": {
                    "address": "0xd61dff4b146e8e6bdcdad5c48e72d0ba85d94dbc",
                    "callData": "0x00000000000000000000000000a133c53edb71773c7cd2d6b3285a442f4590c1",
                    "decodedMethod": {
                        "callParams": [
                            {
                                "name": "_zkSyncAddress",
                                "type": "address",
                                "value": "0x00a133c53edb71773c7cd2d6b3285a442f4590c1"
                            }
                        ],
                        "constructorArguments": "",
                        "name": "depositETH",
                        "returnParams": [],
                        "signature": "depositETH(address)"
                    },
                    "errorInfo": "",
                    "fromAddress": "0xabea9132b05a70803a4e85094fd0e1800777fbef",
                    "gasUsed": 36132,
                    "id": 1,
                    "methodDecoded": true,
                    "operation": "DELEGATECALL",
                    "output": "",
                    "revert": false,
                    "revertMessage": "",
                    "selector": "0x2d2da806",
                    "status": true,
                    "value": "0.032"
                },
                "nodeType": 0
            },
            "2": {
                "event": {
                    "contract": "0xabea9132b05a70803a4e85094fd0e1800777fbef",
                    "decodedLog": {
                        "name": "NewPriorityRequest",
                        "params": [
                            {
                                "name": "sender",
                                "type": "address",
                                "value": "0x00a133c53edb71773c7cd2d6b3285a442f4590c1"
                            },
                            {
                                "name": "serialId",
                                "type": "uint64",
                                "value": "153,621"
                            },
                            {
                                "name": "opType",
                                "type": "uint8",
                                "value": "1"
                            },
                            {
                                "name": "pubData",
                                "type": "bytes",
                                "value": "0x01000000000000000000000000000000000071afd498d0000000a133c53edb71773c7cd2d6b3285a442f4590c1"
                            },
                            {
                                "name": "expirationBlock",
                                "type": "uint256",
                                "value": "13,691,601"
                            }
                        ],
                        "signature": "NewPriorityRequest(address,uint64,uint8,bytes,uint256)"
                    },
                    "id": 2,
                    "logData": "0x00000000000000000000000000a133c53edb71773c7cd2d6b3285a442f4590c10000000000000000000000000000000000000000000000000000000000025815000000000000000000000000000000000000000000000000000000000000000100000000000000000000000000000000000000000000000000000000000000a00000000000000000000000000000000000000000000000000000000000d0ead1000000000000000000000000000000000000000000000000000000000000002d01000000000000000000000000000000000071afd498d0000000a133c53edb71773c7cd2d6b3285a442f4590c100000000000000000000000000000000000000",
                    "logDecoded": true,
                    "operation": "EVENT",
                    "revert": false,
                    "status": true,
                    "topics": [
                        "0xd0943372c08b438a88d4b39d77216901079eda9ca59d45349841c099083b6830"
                    ]
                },
                "nodeType": 1
            },
            "3": {
                "event": {
                    "contract": "0xabea9132b05a70803a4e85094fd0e1800777fbef",
                    "decodedLog": {
                        "name": "Deposit",
                        "params": [
                            {
                                "name": "tokenId",
                                "type": "uint16",
                                "value": "0"
                            },
                            {
                                "name": "amount",
                                "type": "uint128",
                                "value": "32,000,000,000,000,000"
                            }
                        ],
                        "signature": "Deposit(uint16,uint128)"
                    },
                    "id": 3,
                    "logData": "0x0000000000000000000000000000000000000000000000000071afd498d00000",
                    "logDecoded": true,
                    "operation": "EVENT",
                    "revert": false,
                    "status": true,
                    "topics": [
                        "0x8f5f51448394699ad6a3b80cdadf4ec68c5d724c8c3fea09bea55b3c2d0e2dd0",
                        "0x0000000000000000000000000000000000000000000000000000000000000000"
                    ]
                },
                "nodeType": 1
            }
        },
        "gasFlame": [
            {
                "children": [
                    {
                        "children": [
                            {
                                "children": [],
                                "depth": 0,
                                "name": "Initial Gas",
                                "value": 21420
                            },
                            {
                                "children": [
                                    {
                                        "children": [],
                                        "depth": 1,
                                        "name": "depositETH",
                                        "value": 36132
                                    }
                                ],
                                "depth": 0,
                                "name": "Executed Gas",
                                "value": 41167
                            }
                        ],
                        "depth": -1,
                        "name": "Actual Gas Used",
                        "value": 62587
                    },
                    {
                        "children": [],
                        "depth": -1,
                        "name": "Refunded Gas",
                        "value": 0
                    }
                ],
                "depth": -2,
                "name": "Total Gas",
                "value": 62587
            }
        ],
        "isConfirmed": true,
        "mainTrace": [
            {
                "children": [
                    {
                        "children": [
                            {
                                "children": [
                                    {
                                        "children": [],
                                        "depth": 2,
                                        "id": 2,
                                        "order": 2
                                    },
                                    {
                                        "children": [],
                                        "depth": 2,
                                        "id": 3,
                                        "order": 3
                                    }
                                ],
                                "depth": 1,
                                "id": 1,
                                "order": 1
                            }
                        ],
                        "depth": 0,
                        "id": 0,
                        "order": 0
                    }
                ],
                "depth": -1,
                "id": -1,
                "order": -1
            }
        ],
        "mainTraceNodeCount": 4,
        "parentIdMap": {
            "0": -1,
            "1": 0,
            "2": 1,
            "3": 1
        },
        "tidyTrace": [
            {
                "children": [
                    {
                        "children": [
                            {
                                "children": [
                                    {
                                        "children": [],
                                        "depth": 2,
                                        "id": 2,
                                        "order": 2
                                    },
                                    {
                                        "children": [],
                                        "depth": 2,
                                        "id": 3,
                                        "order": 3
                                    }
                                ],
                                "depth": 1,
                                "id": 1,
                                "order": 1
                            }
                        ],
                        "depth": 0,
                        "id": 0,
                        "order": 0
                    }
                ],
                "depth": -1,
                "id": -1,
                "order": -1
            }
        ],
        "tidyTraceNodeCount": 4
    },
    "state_change": {
        "stateChanges": [
            {
                "address": "0xabea9132b05a70803a4e85094fd0e1800777fbef",
                "erc": "",
                "slots": [
                    {
                        "current": "0x0000000000000000000000000000044d000000000000055100000000000252c5",
                        "key": "0x000000000000000000000000000000000000000000000000000000000000000c",
                        "prev": "0x0000000000000000000000000000044d000000000000055000000000000252c5"
                    },
                    {
                        "current": "0x000000010000000000d0ead19750ed24c6ff8c53a9bf9c7a643a24ccb92ff9a2",
                        "key": "0x36018f6252e935e67e6d209707bede439b19a8f5e30e8485a957d41b4b3b87b2",
                        "prev": "0x0000000000000000000000000000000000000000000000000000000000000000"
                    }
                ],
                "storageVariables": [
                    {
                        "name": "priorityRequests",
                        "type": "mapping(uint64 => struct Storage.PriorityOperation)",
                        "value": {
                            "pairs": [
                                {
                                    "key": "153621",
                                    "value": {
                                        "fields": [
                                            {
                                                "name": "hashedPubData",
                                                "type": "bytes20",
                                                "value": {
                                                    "current": "0x9750ed24c6ff8c53a9bf9c7a643a24ccb92ff9a2",
                                                    "prev": "0x0000000000000000000000000000000000000000",
                                                    "typeTag": 1
                                                }
                                            },
                                            {
                                                "name": "expirationBlock",
                                                "type": "uint64",
                                                "value": {
                                                    "current": "13691601",
                                                    "prev": "0",
                                                    "typeTag": 1
                                                }
                                            },
                                            {
                                                "name": "opType",
                                                "type": "enum Operations.OpType",
                                                "value": {
                                                    "current": "1",
                                                    "prev": "0",
                                                    "typeTag": 1
                                                }
                                            }
                                        ],
                                        "typeTag": 3
                                    }
                                }
                            ],
                            "typeTag": 4
                        }
                    },
                    {
                        "name": "firstPriorityRequestId",
                        "type": "uint64",
                        "value": {
                            "current": "152261",
                            "prev": "152261",
                            "typeTag": 1
                        }
                    },
                    {
                        "name": "totalOpenPriorityRequests",
                        "type": "uint64",
                        "value": {
                            "current": "1361",
                            "prev": "1360",
                            "typeTag": 1
                        }
                    },
                    {
                        "name": "totalCommittedPriorityRequests",
                        "type": "uint64",
                        "value": {
                            "current": "1101",
                            "prev": "1101",
                            "typeTag": 1
                        }
                    }
                ]
            }
        ]
    }
}