{
    "balance_change": {
        "balanceChanges": [
            {
                "account": "0x000037bb05b2cef17c6469f4bcdb198826ce0000",
                "assets": [
                    {
                        "address": "0xeeeeeeeeeeeeeeeeeeeeeeeeeeeeeeeeeeeeeeee",
                        "amount": "0.000744251506532129",
                        "iconUrl": "https://assets.blocksec.com/image/1663669189317-3.png",
                        "isERC1155": false,
                        "isERC721": false,
                        "sign": false,
                        "value": "1.2433614517890299188"
                    }
                ]
            },
            {
                "account": "0x99b67d21e185d9714ff60bbad03258ace71d105a",
                "assets": [
                    {
                        "address": "0xeeeeeeeeeeeeeeeeeeeeeeeeeeeeeeeeeeeeeeee",
                        "amount": "0.000744251506532129",
                        "iconUrl": "https://assets.blocksec.com/image/1663669189317-3.png",
                        "isERC1155": false,
                        "isERC721": false,
                        "sign": true,
                        "value": "1.2433614517890299188"
                    }
                ]
            }
        ]
    },
    "profile": {
        "basic_info": {
            "baseFee": "5.935826992",
            "blockNumber": 18244728,
            "callData": "0x00f714ce0000000000000000000000000000000000000000000000000002a4e48eab9f2100000000000000000000000099b67d21e185d9714ff60bbad03258ace71d105a",
            "debugEnable": true,
            "errorInfo": "",
            "eventCount": 0,
            "feeRecipient": "0xcf6715cbd7a900bbbde15e8d1dd6779815258e60",
            "formatValue": "0",
            "gasLimit": 142146,
            "gasPrice": "9.761356676",
            "gasUsed": 45171,
            "intTxnCount": 3,
            "internalRevert": false,
            "internalRevertMessage": "",
            "isContractCreation": false,
            "isFlashloan": false,
            "maxFee": "",
            "nonce": 5142,
            "overwritedBlockNumber": -1,
            "priorityFee": "",
            "receiver": "0x000037bb05b2cef17c6469f4bcdb198826ce0000",
            "revertMessage": "",
            "sender": "0x0000db5c8b030ae20308ac975898e09741e70000",
            "simulationEnable": true,
            "sourceTxnHash": "0x5592b5159e92af86ed74915ba6bcfd084b26af542a8bf48bbdc0438df46f88a3",
            "status": true,
            "timestamp": "2023-09-29T23:44:47Z",
            "transactionFee": "0.000440930242411596",
            "txnHash": "0x5592b5159e92af86ed74915ba6bcfd084b26af542a8bf48bbdc0438df46f88a3",
            "txnIndex": 11,
            "type": 0,
            "value": "0"
        },
        "fund_flow": [
            {
                "amount": "0.000744251506532129",
                "from": "0x000037bb05b2cef17c6469f4bcdb198826ce0000",
                "id": 1,
                "isERC1155": false,
                "isERC721": false,
                "isReverted": false,
                "order": 1,
                "to": "0x99b67d21e185d9714ff60bbad03258ace71d105a",
                "token": "0xeeeeeeeeeeeeeeeeeeeeeeeeeeeeeeeeeeeeeeee"
            }
        ],
        "token_infos": [
            {
                "address": "0xc02aaa39b223fe8d0a0e5c4f27ead9083c756cc2",
                "decimals": 18
            },
            {
                "address": "0xeeeeeeeeeeeeeeeeeeeeeeeeeeeeeeeeeeeeeeee",
                "decimals": 18
            }
        ]
    },
    "address_label": {
        "labels": [
            {
                "address": "0x0000db5c8b030ae20308ac975898e09741e70000",
                "label": "Fake_Phishing187019"
            },
            {
                "address": "0x0000000000000000000000000000000000000001",
                "label": "Precompiled"
            },
            {
                "address": "0x0000000000000000000000000000000000000002",
                "label": "Precompiled"
            },
            {
                "address": "0x0000000000000000000000000000000000000003",
                "label": "Precompiled"
            },
            {
                "address": "0x0000000000000000000000000000000000000004",
                "label": "Precompiled"
            },
            {
                "address": "0xeeeeeeeeeeeeeeeeeeeeeeeeeeeeeeeeeeeeeeee",
                "label": "Ether"
            },
            {
                "address": "0x0000e23abdc862a1911d77904e77fdb378d00000",
                "label": "StorageContract"
            },
            {
                "address": "0x000037bb05b2cef17c6469f4bcdb198826ce0000",
                "label": "Fake_Phishing188250"
            }
        ]
    },
    "trace": {
        "accountLabels": null,
        "dataMap": {
            "-1": {
                "invocation": {
                    "address": "0x0000db5c8b030ae20308ac975898e09741e70000",
                    "callData": "",
                    "decodedMethod": null,
                    "errorInfo": "",
                    "fromAddress": "",
                    "gasUsed": 0,
                    "id": -1,
                    "methodDecoded": false,
                    "operation": "",
                    "output": "",
                    "revert": false,
                    "revertMessage": "",
                    "selector": "",
                    "status": false,
                    "value": ""
                },
                "nodeType": 0
            },
            "0": {
                "invocation": {
                    "address": "0x000037bb05b2cef17c6469f4bcdb198826ce0000",
                    "callData": "0x0000000000000000000000000000000000000000000000000002a4e48eab9f2100000000000000000000000099b67d21e185d9714ff60bbad03258ace71d105a",
                    "decodedMethod": {
                        "callParams": [
                            {
                                "name": "amount",
                                "type": "uint256",
                                "value": "744,251,506,532,129"
                            },
                            {
                                "name": "recipient",
                                "type": "address",
                                "value": "0x99b67d21e185d9714ff60bbad03258ace71d105a"
                            }
                        ],
                        "constructorArguments": "",
                        "name": "withdraw",
                        "returnParams": [],
                        "signature": "withdraw(uint256,address)"
                    },
                    "errorInfo": "",
                    "fromAddress": "0x0000db5c8b030ae20308ac975898e09741e70000",
                    "gasUsed": 45171,
                    "id": 0,
                    "methodDecoded": true,
                    "operation": "CALL",
                    "output": "",
                    "revert": false,
                    "revertMessage": "",
                    "selector": "0x00f714ce",
                    "status": true,
                    "value": "0"
                },
                "nodeType": 0
            },
            "1": {
                "invocation": {
                    "address": "0x0000e23abdc862a1911d77904e77fdb378d00000",
                    "callData": "0x",
                    "decodedMethod": {
                        "callParams": [],
                        "constructorArguments": "",
                        "name": "getOwners",
                        "returnParams": [
                            {
                                "name": "",
                                "type": "address[]",
                                "value": [
                                    "0x0000db5c8b030ae20308ac975898e09741e70000"
                                ]
                            }
                        ],
                        "signature": "getOwners()"
                    },
                    "errorInfo": "",
                    "fromAddress": "0x000037bb05b2cef17c6469f4bcdb198826ce0000",
                    "gasUsed": 5523,
                    "id": 1,
                    "methodDecoded": true,
                    "operation": "STATICCALL",
                    "output": "0x000000000000000000000000000000000000000000000000000000000000002000000000000000000000000000000000000000000000000000000000000000010000000000000000000000000000db5c8b030ae20308ac975898e09741e70000",
                    "revert": false,
                    "revertMessage": "",
                    "selector": "0xa0e67e2b",
                    "status": true,
                    "value": "0"
                },
                "nodeType": 0
            },
            "2": {
                "invocation": {
                    "address": "0x0000e23abdc862a1911d77904e77fdb378d00000",
                    "callData": "0x0000000000000000000000000000000000000000000000000000000000000000",
                    "decodedMethod": {
                        "callParams": [
                            {
                                "name": "",
                                "type": "uint256",
                                "value": "0"
                            }
                        ],
                        "constructorArguments": "",
                        "name": "owners",
                        "returnParams": [
                            {
                                "name": "",
                                "type": "address",
                                "value": "0x0000db5c8b030ae20308ac975898e09741e70000"
                            }
                        ],
                        "signature": "owners(uint256)"
                    },
                    "errorInfo": "",
                    "fromAddress": "0x000037bb05b2cef17c6469f4bcdb198826ce0000",
                    "gasUsed": 934,
                    "id": 2,
                    "methodDecoded": true,
                    "operation": "STATICCALL",
                    "output": "0x0000000000000000000000000000db5c8b030ae20308ac975898e09741e70000",
                    "revert": false,
                    "revertMessage": "",
                    "selector": "0x025e7c27",
                    "status": true,
                    "value": "0"
                },
                "nodeType": 0
            },
            "3": {
                "invocation": {
                    "address": "0x99b67d21e185d9714ff60bbad03258ace71d105a",
                    "callData": "0x",
                    "decodedMethod": null,
                    "errorInfo": "",
                    "fromAddress": "0x000037bb05b2cef17c6469f4bcdb198826ce0000",
                    "gasUsed": 0,
                    "id": 3,
                    "methodDecoded": false,
                    "operation": "CALL",
                    "output": "",
                    "revert": false,
                    "revertMessage": "",
                    "selector": "fallback",
                    "status": true,
                    "value": "0.000744251506532129"
                },
                "nodeType": 0
            }
        },
        "gasFlame": [
            {
                "children": [
                    {
                        "children": [
                            {
                                "children": [],
                                "depth": 0,
                                "name": "Initial Gas",
                                "value": 21632
                            },
                            {
                                "children": [
                                    {
                                        "children": [],
                                        "depth": 1,
                                        "name": "getOwners",
                                        "value": 5523
                                    },
                                    {
                                        "children": [],
                                        "depth": 1,
                                        "name": "owners",
                                        "value": 934
                                    },
                                    {
                                        "children": [],
                                        "depth": 1,
                                        "name": "fallback",
                                        "value": 0
                                    }
                                ],
                                "depth": 0,
                                "name": "Executed Gas",
                                "value": 23539
                            }
                        ],
                        "depth": -1,
                        "name": "Actual Gas Used",
                        "value": 45171
                    },
                    {
                        "children": [],
                        "depth": -1,
                        "name": "Refunded Gas",
                        "value": 0
                    }
                ],
                "depth": -2,
                "name": "Total Gas",
                "value": 45171
            }
        ],
        "isConfirmed": true,
        "mainTrace": [
            {
                "children": [
                    {
                        "children": [
                            {
                                "children": [],
                                "depth": 1,
                                "id": 1,
                                "order": 1
                            },
                            {
                                "children": [],
                                "depth": 1,
                                "id": 2,
                                "order": 2
                            },
                            {
                                "children": [],
                                "depth": 1,
                                "id": 3,
                                "order": 3
                            }
                        ],
                        "depth": 0,
                        "id": 0,
                        "order": 0
                    }
                ],
                "depth": -1,
                "id": -1,
                "order": -1
            }
        ],
        "mainTraceNodeCount": 4,
        "parentIdMap": {
            "0": -1,
            "1": 0,
            "2": 0,
            "3": 0
        },
        "tidyTrace": [
            {
                "children": [
                    {
                        "children": [
                            {
                                "children": [],
                                "depth": 1,
                                "id": 3,
                                "order": 3
                            }
                        ],
                        "depth": 0,
                        "id": 0,
                        "order": 0
                    }
                ],
                "depth": -1,
                "id": -1,
                "order": -1
            }
        ],
        "tidyTraceNodeCount": 2
    },
    "state_change": {
        "stateChanges": []
    }
}