{
    "balance_change": {
        "balanceChanges": [
            {
                "account": "0xc96f5d9d106a99c27600028cb46390cc44adbca1",
                "assets": [
                    {
                        "address": "0x2d874077a83618aab75624cc1a4974510a0eb1ae",
                        "amount": "128.7",
                        "iconUrl": "",
                        "isERC1155": false,
                        "isERC721": false,
                        "sign": false,
                        "value": ""
                    }
                ]
            },
            {
                "account": "0x92eb926b542dcb17a1aae7ba7f3bf1a3a295f85e",
                "assets": [
                    {
                        "address": "0x2d874077a83618aab75624cc1a4974510a0eb1ae",
                        "amount": "128.7",
                        "iconUrl": "",
                        "isERC1155": false,
                        "isERC721": false,
                        "sign": true,
                        "value": ""
                    }
                ]
            }
        ]
    },
    "profile": {
        "basic_info": {
            "baseFee": "",
            "blockNumber": 8990026,
            "callData": "0xa9059cbb00000000000000000000000092eb926b542dcb17a1aae7ba7f3bf1a3a295f85e000000000000000000000000000000000000000000000006fa12401e40c60000",
            "debugEnable": true,
            "errorInfo": "",
            "eventCount": 1,
            "feeRecipient": "0x00192fb10df37c9fb26829eb2cc623cd1bf599e8",
            "formatValue": "0",
            "gasLimit": 36839,
            "gasPrice": "20",
            "gasUsed": 36839,
            "intTxnCount": 0,
            "internalRevert": false,
            "internalRevertMessage": "",
            "isContractCreation": false,
            "isFlashloan": false,
            "maxFee": "",
            "nonce": 3872,
            "overwritedBlockNumber": -1,
            "priorityFee": "",
            "receiver": "0x2d874077a83618aab75624cc1a4974510a0eb1ae",
            "revertMessage": "",
            "sender": "0xc96f5d9d106a99c27600028cb46390cc44adbca1",
            "simulationEnable": true,
            "sourceTxnHash": "0x5553a30579dd4d3fb60a75b7f03605dbc7a07cbf61e65af8860c9c226f657102",
            "status": true,
            "timestamp": "2019-11-24T02:50:29Z",
            "transactionFee": "0.00073678",
            "txnHash": "0x5553a30579dd4d3fb60a75b7f03605dbc7a07cbf61e65af8860c9c226f657102",
            "txnIndex": 16,
            "type": 0,
            "value": "0"
        },
        "fund_flow": [
            {
                "amount": "128.7",
                "from": "0xc96f5d9d106a99c27600028cb46390cc44adbca1",
                "id": 1,
                "isERC1155": false,
                "isERC721": false,
                "isReverted": false,
                "order": 1,
                "to": "0x92eb926b542dcb17a1aae7ba7f3bf1a3a295f85e",
                "token": "0x2d874077a83618aab75624cc1a4974510a0eb1ae"
            }
        ],
        "token_infos": [
            {
                "address": "0x2d874077a83618aab75624cc1a4974510a0eb1ae",
                "decimals": 18
            },
            {
                "address": "0xc02aaa39b223fe8d0a0e5c4f27ead9083c756cc2",
                "decimals": 18
            },
            {
                "address": "0xeeeeeeeeeeeeeeeeeeeeeeeeeeeeeeeeeeeeeeee",
                "decimals": 18
            }
        ]
    },
    "address_label": {
        "labels": [
            {
                "address": "0xeeeeeeeeeeeeeeeeeeeeeeeeeeeeeeeeeeeeeeee",
                "label": "Ether"
            },
            {
                "address": "0x2d874077a83618aab75624cc1a4974510a0eb1ae",
                "label": "New Currency Time Race (NYTR)"
            },
            {
                "address": "0x0000000000000000000000000000000000000001",
                "label": "Precompiled"
            },
            {
                "address": "0x0000000000000000000000000000000000000002",
                "label": "Precompiled"
            },
            {
                "address": "0x0000000000000000000000000000000000000003",
                "label": "Precompiled"
            },
            {
                "address": "0x0000000000000000000000000000000000000004",
                "label": "Precompiled"
            }
        ]
    },
    "trace": {
        "accountLabels": null,
        "dataMap": {
            "-1": {
                "invocation": {
                    "address": "0xc96f5d9d106a99c27600028cb46390cc44adbca1",
                    "callData": "",
                    "decodedMethod": null,
                    "errorInfo": "",
                    "fromAddress": "",
                    "gasUsed": 0,
                    "id": -1,
                    "methodDecoded": false,
                    "operation": "",
                    "output": "",
                    "revert": false,
                    "revertMessage": "",
                    "selector": "",
                    "status": false,
                    "value": ""
                },
                "nodeType": 0
            },
            "0": {
                "invocation": {
                    "address": "0x2d874077a83618aab75624cc1a4974510a0eb1ae",
                    "callData": "0x00000000000000000000000092eb926b542dcb17a1aae7ba7f3bf1a3a295f85e000000000000000000000000000000000000000000000006fa12401e40c60000",
                    "decodedMethod": {
                        "callParams": [
                            {
                                "name": "_to",
                                "type": "address",
                                "value": "0x92eb926b542dcb17a1aae7ba7f3bf1a3a295f85e"
                            },
                            {
                                "decimalAvailable": true,
                                "name": "_value",
                                "type": "uint256",
                                "value": "128,700,000,000,000,000,000"
                            }
                        ],
                        "constructorArguments": "",
                        "name": "transfer",
                        "returnParams": [
                            {
                                "name": "",
                                "type": "bool",
                                "value": true
                            }
                        ],
                        "signature": "transfer(address,uint256)"
                    },
                    "errorInfo": "",
                    "fromAddress": "0xc96f5d9d106a99c27600028cb46390cc44adbca1",
                    "gasUsed": 36839,
                    "id": 0,
                    "methodDecoded": true,
                    "operation": "CALL",
                    "output": "0x0000000000000000000000000000000000000000000000000000000000000001",
                    "revert": false,
                    "revertMessage": "",
                    "selector": "0xa9059cbb",
                    "status": true,
                    "value": "0"
                },
                "nodeType": 0
            },
            "1": {
                "event": {
                    "contract": "0x2d874077a83618aab75624cc1a4974510a0eb1ae",
                    "decodedLog": {
                        "name": "Transfer",
                        "params": [
                            {
                                "name": "from",
                                "type": "address",
                                "value": "0xc96f5d9d106a99c27600028cb46390cc44adbca1"
                            },
                            {
                                "name": "to",
                                "type": "address",
                                "value": "0x92eb926b542dcb17a1aae7ba7f3bf1a3a295f85e"
                            },
                            {
                                "decimalAvailable": true,
                                "name": "value",
                                "type": "uint256",
                                "value": "128,700,000,000,000,000,000"
                            }
                        ],
                        "signature": "Transfer(address,address,uint256)"
                    },
                    "id": 1,
                    "logData": "0x000000000000000000000000000000000000000000000006fa12401e40c60000",
                    "logDecoded": true,
                    "operation": "EVENT",
                    "revert": false,
                    "status": true,
                    "topics": [
                        "0xddf252ad1be2c89b69c2b068fc378daa952ba7f163c4a11628f55a4df523b3ef",
                        "0x000000000000000000000000c96f5d9d106a99c27600028cb46390cc44adbca1",
                        "0x00000000000000000000000092eb926b542dcb17a1aae7ba7f3bf1a3a295f85e"
                    ]
                },
                "nodeType": 1
            }
        },
        "gasFlame": [
            {
                "children": [
                    {
                        "children": [
                            {
                                "children": [],
                                "depth": 0,
                                "name": "Initial Gas",
                                "value": 23256
                            },
                            {
                                "children": [],
                                "depth": 0,
                                "name": "Executed Gas",
                                "value": 13583
                            }
                        ],
                        "depth": -1,
                        "name": "Actual Gas Used",
                        "value": 36839
                    },
                    {
                        "children": [],
                        "depth": -1,
                        "name": "Refunded Gas",
                        "value": 0
                    }
                ],
                "depth": -2,
                "name": "Total Gas",
                "value": 36839
            }
        ],
        "isConfirmed": true,
        "mainTrace": [
            {
                "children": [
                    {
                        "children": [
                            {
                                "children": [],
                                "depth": 1,
                                "id": 1,
                                "order": 1
                            }
                        ],
                        "depth": 0,
                        "id": 0,
                        "order": 0
                    }
                ],
                "depth": -1,
                "id": -1,
                "order": -1
            }
        ],
        "mainTraceNodeCount": 2,
        "parentIdMap": {
            "0": -1,
            "1": 0
        },
        "tidyTrace": [
            {
                "children": [
                    {
                        "children": [
                            {
                                "children": [],
                                "depth": 1,
                                "id": 1,
                                "order": 1
                            }
                        ],
                        "depth": 0,
                        "id": 0,
                        "order": 0
                    }
                ],
                "depth": -1,
                "id": -1,
                "order": -1
            }
        ],
        "tidyTraceNodeCount": 2
    },
    "state_change": {
        "stateChanges": [
            {
                "address": "0x2d874077a83618aab75624cc1a4974510a0eb1ae",
                "erc": "ERC-20",
                "slots": [
                    {
                        "current": "0x00000000000000000000000000000000000000000000003377b5e4cf6b9d0000",
                        "key": "0xc05209ee2f8a432a97a60f40742e1e2afca8b3187155c01f3dbe73ffb9f2c509",
                        "prev": "0x00000000000000000000000000000000000000000000002c7da3a4b12ad70000"
                    },
                    {
                        "current": "0x00000000000000000000000000000000000000000000370f240117d4fbf84000",
                        "key": "0x93aacd1de346c46e783a1bde6b298e24285046b6108f7aa8958d453fa28d5c1f",
                        "prev": "0x0000000000000000000000000000000000000000000037161e1357f33cbe4000"
                    }
                ],
                "storageVariables": [
                    {
                        "name": "balances",
                        "type": "mapping(address => uint256)",
                        "value": {
                            "pairs": [
                                {
                                    "key": "0x92eb926b542dcb17a1aae7ba7f3bf1a3a295f85e",
                                    "value": {
                                        "current": "949410000000000000000",
                                        "prev": "820710000000000000000",
                                        "typeTag": 1
                                    }
                                },
                                {
                                    "key": "0xc96f5d9d106a99c27600028cb46390cc44adbca1",
                                    "value": {
                                        "current": "260009452100000000000000",
                                        "prev": "260138152100000000000000",
                                        "typeTag": 1
                                    }
                                }
                            ],
                            "typeTag": 4
                        }
                    }
                ]
            }
        ]
    }
}