{
    "balance_change": {
        "balanceChanges": [
            {
                "account": "0xdfd5293d8e347dfe59e90efd55b2956a1343963d",
                "assets": [
                    {
                        "address": "0xdac17f958d2ee523a2206206994597c13d831ec7",
                        "amount": "6,594.74",
                        "iconUrl": "https://assets.blocksec.com/icon/fcea71f3193ce895be44bfdf941f7e4c9381dd587f273c2d1a27f1263d84e4ea.png",
                        "isERC1155": false,
                        "isERC721": false,
                        "sign": false,
                        "value": "6594.74"
                    }
                ]
            },
            {
                "account": "0xe0cab11a6935fc951ac0d37f4e6bb250f5c6d23d",
                "assets": [
                    {
                        "address": "0xdac17f958d2ee523a2206206994597c13d831ec7",
                        "amount": "6,594.74",
                        "iconUrl": "https://assets.blocksec.com/icon/fcea71f3193ce895be44bfdf941f7e4c9381dd587f273c2d1a27f1263d84e4ea.png",
                        "isERC1155": false,
                        "isERC721": false,
                        "sign": true,
                        "value": "6594.74"
                    }
                ]
            }
        ]
    },
    "profile": {
        "basic_info": {
            "baseFee": "12.095013463",
            "blockNumber": 17696109,
            "callData": "0xa9059cbb000000000000000000000000e0cab11a6935fc951ac0d37f4e6bb250f5c6d23d000000000000000000000000000000000000000000000000000000018913bf20",
            "debugEnable": true,
            "errorInfo": "",
            "eventCount": 1,
            "feeRecipient": "0x7a932621accc9e59fe28234c6833952189bae006",
            "formatValue": "0",
            "gasLimit": 220436,
            "gasPrice": "14.095013463",
            "gasUsed": 46121,
            "intTxnCount": 0,
            "internalRevert": false,
            "internalRevertMessage": "",
            "isContractCreation": false,
            "isFlashloan": false,
            "maxFee": "102",
            "nonce": 6599797,
            "overwritedBlockNumber": -1,
            "priorityFee": "2",
            "receiver": "0xdac17f958d2ee523a2206206994597c13d831ec7",
            "revertMessage": "",
            "sender": "0xdfd5293d8e347dfe59e90efd55b2956a1343963d",
            "simulationEnable": true,
            "sourceTxnHash": "0x56938050d5900dcb3025286a597c900c74f1287632e4206d58a501ec2080c3bc",
            "status": true,
            "timestamp": "2023-07-15T03:21:59Z",
            "transactionFee": "0.000650076115927023",
            "txnHash": "0x56938050d5900dcb3025286a597c900c74f1287632e4206d58a501ec2080c3bc",
            "txnIndex": 47,
            "type": 2,
            "value": "0"
        },
        "fund_flow": [
            {
                "amount": "6,594.74",
                "from": "0xdfd5293d8e347dfe59e90efd55b2956a1343963d",
                "id": 1,
                "isERC1155": false,
                "isERC721": false,
                "isReverted": false,
                "order": 1,
                "to": "0xe0cab11a6935fc951ac0d37f4e6bb250f5c6d23d",
                "token": "0xdac17f958d2ee523a2206206994597c13d831ec7"
            }
        ],
        "token_infos": [
            {
                "address": "0xeeeeeeeeeeeeeeeeeeeeeeeeeeeeeeeeeeeeeeee",
                "decimals": 18
            },
            {
                "address": "0xc02aaa39b223fe8d0a0e5c4f27ead9083c756cc2",
                "decimals": 18
            },
            {
                "address": "0xdac17f958d2ee523a2206206994597c13d831ec7",
                "decimals": 6
            }
        ]
    },
    "address_label": {
        "labels": [
            {
                "address": "0x0000000000000000000000000000000000000002",
                "label": "Precompiled"
            },
            {
                "address": "0x0000000000000000000000000000000000000003",
                "label": "Precompiled"
            },
            {
                "address": "0x0000000000000000000000000000000000000004",
                "label": "Precompiled"
            },
            {
                "address": "0xeeeeeeeeeeeeeeeeeeeeeeeeeeeeeeeeeeeeeeee",
                "label": "Ether"
            },
            {
                "address": "0xdfd5293d8e347dfe59e90efd55b2956a1343963d",
                "label": "Binance 16"
            },
            {
                "address": "0xdac17f958d2ee523a2206206994597c13d831ec7",
                "label": "Tether: USDT Stablecoin"
            },
            {
                "address": "0x0000000000000000000000000000000000000001",
                "label": "Precompiled"
            }
        ]
    },
    "trace": {
        "accountLabels": null,
        "dataMap": {
            "-1": {
                "invocation": {
                    "address": "0xdfd5293d8e347dfe59e90efd55b2956a1343963d",
                    "callData": "",
                    "decodedMethod": null,
                    "errorInfo": "",
                    "fromAddress": "",
                    "gasUsed": 0,
                    "id": -1,
                    "methodDecoded": false,
                    "operation": "",
                    "output": "",
                    "revert": false,
                    "revertMessage": "",
                    "selector": "",
                    "status": false,
                    "value": ""
                },
                "nodeType": 0
            },
            "0": {
                "invocation": {
                    "address": "0xdac17f958d2ee523a2206206994597c13d831ec7",
                    "callData": "0x000000000000000000000000e0cab11a6935fc951ac0d37f4e6bb250f5c6d23d000000000000000000000000000000000000000000000000000000018913bf20",
                    "decodedMethod": {
                        "callParams": [
                            {
                                "name": "_to",
                                "type": "address",
                                "value": "0xe0cab11a6935fc951ac0d37f4e6bb250f5c6d23d"
                            },
                            {
                                "decimalAvailable": true,
                                "name": "_value",
                                "type": "uint256",
                                "value": "6,594,740,000"
                            }
                        ],
                        "constructorArguments": "",
                        "name": "transfer",
                        "returnParams": [],
                        "signature": "transfer(address,uint256)"
                    },
                    "errorInfo": "",
                    "fromAddress": "0xdfd5293d8e347dfe59e90efd55b2956a1343963d",
                    "gasUsed": 46121,
                    "id": 0,
                    "methodDecoded": true,
                    "operation": "CALL",
                    "output": "",
                    "revert": false,
                    "revertMessage": "",
                    "selector": "0xa9059cbb",
                    "status": true,
                    "value": "0"
                },
                "nodeType": 0
            },
            "1": {
                "event": {
                    "contract": "0xdac17f958d2ee523a2206206994597c13d831ec7",
                    "decodedLog": {
                        "name": "Transfer",
                        "params": [
                            {
                                "name": "from",
                                "type": "address",
                                "value": "0xdfd5293d8e347dfe59e90efd55b2956a1343963d"
                            },
                            {
                                "name": "to",
                                "type": "address",
                                "value": "0xe0cab11a6935fc951ac0d37f4e6bb250f5c6d23d"
                            },
                            {
                                "decimalAvailable": true,
                                "name": "value",
                                "type": "uint256",
                                "value": "6,594,740,000"
                            }
                        ],
                        "signature": "Transfer(address,address,uint256)"
                    },
                    "id": 1,
                    "logData": "0x000000000000000000000000000000000000000000000000000000018913bf20",
                    "logDecoded": true,
                    "operation": "EVENT",
                    "revert": false,
                    "status": true,
                    "topics": [
                        "0xddf252ad1be2c89b69c2b068fc378daa952ba7f163c4a11628f55a4df523b3ef",
                        "0x000000000000000000000000dfd5293d8e347dfe59e90efd55b2956a1343963d",
                        "0x000000000000000000000000e0cab11a6935fc951ac0d37f4e6bb250f5c6d23d"
                    ]
                },
                "nodeType": 1
            }
        },
        "gasFlame": [
            {
                "children": [
                    {
                        "children": [
                            {
                                "children": [],
                                "depth": 0,
                                "name": "Initial Gas",
                                "value": 21620
                            },
                            {
                                "children": [],
                                "depth": 0,
                                "name": "Executed Gas",
                                "value": 24501
                            }
                        ],
                        "depth": -1,
                        "name": "Actual Gas Used",
                        "value": 46121
                    },
                    {
                        "children": [],
                        "depth": -1,
                        "name": "Refunded Gas",
                        "value": 0
                    }
                ],
                "depth": -2,
                "name": "Total Gas",
                "value": 46121
            }
        ],
        "isConfirmed": true,
        "mainTrace": [
            {
                "children": [
                    {
                        "children": [
                            {
                                "children": [],
                                "depth": 1,
                                "id": 1,
                                "order": 1
                            }
                        ],
                        "depth": 0,
                        "id": 0,
                        "order": 0
                    }
                ],
                "depth": -1,
                "id": -1,
                "order": -1
            }
        ],
        "mainTraceNodeCount": 2,
        "parentIdMap": {
            "0": -1,
            "1": 0
        },
        "tidyTrace": [
            {
                "children": [
                    {
                        "children": [
                            {
                                "children": [],
                                "depth": 1,
                                "id": 1,
                                "order": 1
                            }
                        ],
                        "depth": 0,
                        "id": 0,
                        "order": 0
                    }
                ],
                "depth": -1,
                "id": -1,
                "order": -1
            }
        ],
        "tidyTraceNodeCount": 2
    },
    "state_change": {
        "stateChanges": [
            {
                "address": "0xdac17f958d2ee523a2206206994597c13d831ec7",
                "erc": "ERC-20",
                "slots": [
                    {
                        "current": "0x000000000000000000000000000000000000000000000000000000199515b45a",
                        "key": "0x4f838d447af0b959ffd7f4f0efadd02df58cfa336efaaf20d300381c3aa6f756",
                        "prev": "0x000000000000000000000000000000000000000000000000000000180c01f53a"
                    },
                    {
                        "current": "0x00000000000000000000000000000000000000000000000000005ff46e11b0d0",
                        "key": "0xa3b88bef8df2f6096822c988ffd14e98b0513d518130e72efa1debea259cbf43",
                        "prev": "0x00000000000000000000000000000000000000000000000000005ff5f7256ff0"
                    }
                ],
                "storageVariables": [
                    {
                        "name": "balances",
                        "type": "mapping(address => uint256)",
                        "value": {
                            "pairs": [
                                {
                                    "key": "0xdfd5293d8e347dfe59e90efd55b2956a1343963d",
                                    "value": {
                                        "current": "105503423312080",
                                        "prev": "105510018052080",
                                        "typeTag": 1
                                    }
                                },
                                {
                                    "key": "0xe0cab11a6935fc951ac0d37f4e6bb250f5c6d23d",
                                    "value": {
                                        "current": "109875410010",
                                        "prev": "103280670010",
                                        "typeTag": 1
                                    }
                                }
                            ],
                            "typeTag": 4
                        }
                    }
                ]
            }
        ]
    }
}