{
    "balance_change": {
        "balanceChanges": [
            {
                "account": "0x879a128c36d6fb60d22bc8b5856c19241fd03dfd",
                "assets": [
                    {
                        "address": "0x6982508145454ce325ddbe47a25d4ec3d2311933",
                        "amount": "24,714,000",
                        "iconUrl": "https://assets.blocksec.com/icon/99f1a626358e559d9a9d6dc4254c663e595a9ebcd362efa2d4cd902a8d75ea2c.png",
                        "isERC1155": false,
                        "isERC721": false,
                        "sign": false,
                        "value": ""
                    }
                ]
            },
            {
                "account": "0x83eba1929248bd8246cadd52a72229fffc76c85d",
                "assets": [
                    {
                        "address": "0x6982508145454ce325ddbe47a25d4ec3d2311933",
                        "amount": "24,714,000",
                        "iconUrl": "https://assets.blocksec.com/icon/99f1a626358e559d9a9d6dc4254c663e595a9ebcd362efa2d4cd902a8d75ea2c.png",
                        "isERC1155": false,
                        "isERC721": false,
                        "sign": true,
                        "value": ""
                    }
                ]
            }
        ]
    },
    "profile": {
        "basic_info": {
            "baseFee": "1.440891658",
            "blockNumber": 20518649,
            "callData": "0xa9059cbb00000000000000000000000083eba1929248bd8246cadd52a72229fffc76c85d0000000000000000000000000000000000000000001471649fe1e02602400000",
            "debugEnable": true,
            "errorInfo": "",
            "eventCount": 1,
            "feeRecipient": "0x4838b106fce9647bdf1e7877bf73ce8b0bad5f97",
            "formatValue": "0",
            "gasLimit": 60474,
            "gasPrice": "2.286015267",
            "gasUsed": 60474,
            "intTxnCount": 0,
            "internalRevert": false,
            "internalRevertMessage": "",
            "isContractCreation": false,
            "isFlashloan": false,
            "maxFee": "2.791391221",
            "nonce": 39,
            "overwritedBlockNumber": -1,
            "priorityFee": "0.845123609",
            "receiver": "0x6982508145454ce325ddbe47a25d4ec3d2311933",
            "revertMessage": "",
            "sender": "0x879a128c36d6fb60d22bc8b5856c19241fd03dfd",
            "simulationEnable": true,
            "sourceTxnHash": "0x56f97cc87d2ab787046d12702a516e60eafd77d2fb8fbcb39f75f0ec67274522",
            "status": true,
            "timestamp": "2024-08-13T08:56:35Z",
            "transactionFee": "0.000138244487256558",
            "txnHash": "0x56f97cc87d2ab787046d12702a516e60eafd77d2fb8fbcb39f75f0ec67274522",
            "txnIndex": 84,
            "type": 2,
            "value": "0"
        },
        "fund_flow": [
            {
                "amount": "24,714,000",
                "from": "0x879a128c36d6fb60d22bc8b5856c19241fd03dfd",
                "id": 1,
                "isERC1155": false,
                "isERC721": false,
                "isReverted": false,
                "order": 1,
                "to": "0x83eba1929248bd8246cadd52a72229fffc76c85d",
                "token": "0x6982508145454ce325ddbe47a25d4ec3d2311933"
            }
        ],
        "token_infos": [
            {
                "address": "0xeeeeeeeeeeeeeeeeeeeeeeeeeeeeeeeeeeeeeeee",
                "decimals": 18
            },
            {
                "address": "0x6982508145454ce325ddbe47a25d4ec3d2311933",
                "decimals": 18
            },
            {
                "address": "0xc02aaa39b223fe8d0a0e5c4f27ead9083c756cc2",
                "decimals": 18
            }
        ]
    },
    "address_label": {
        "labels": [
            {
                "address": "0x6982508145454ce325ddbe47a25d4ec3d2311933",
                "label": "Pepe: PEPE Token"
            },
            {
                "address": "0x0000000000000000000000000000000000000001",
                "label": "Precompiled"
            },
            {
                "address": "0x0000000000000000000000000000000000000002",
                "label": "Precompiled"
            },
            {
                "address": "0x0000000000000000000000000000000000000003",
                "label": "Precompiled"
            },
            {
                "address": "0x0000000000000000000000000000000000000004",
                "label": "Precompiled"
            },
            {
                "address": "0xeeeeeeeeeeeeeeeeeeeeeeeeeeeeeeeeeeeeeeee",
                "label": "Ether"
            },
            {
                "address": "0x83eba1929248bd8246cadd52a72229fffc76c85d",
                "label": "CRYPTO.COM"
            }
        ]
    },
    "trace": {
        "accountLabels": null,
        "dataMap": {
            "-1": {
                "invocation": {
                    "address": "0x879a128c36d6fb60d22bc8b5856c19241fd03dfd",
                    "callData": "",
                    "decodedMethod": null,
                    "errorInfo": "",
                    "fromAddress": "",
                    "gasUsed": 0,
                    "id": -1,
                    "methodDecoded": false,
                    "operation": "",
                    "output": "",
                    "revert": false,
                    "revertMessage": "",
                    "selector": "",
                    "status": false,
                    "value": ""
                },
                "nodeType": 0
            },
            "0": {
                "invocation": {
                    "address": "0x6982508145454ce325ddbe47a25d4ec3d2311933",
                    "callData": "0x00000000000000000000000083eba1929248bd8246cadd52a72229fffc76c85d0000000000000000000000000000000000000000001471649fe1e02602400000",
                    "decodedMethod": {
                        "callParams": [
                            {
                                "name": "recipient",
                                "type": "address",
                                "value": "0x83eba1929248bd8246cadd52a72229fffc76c85d"
                            },
                            {
                                "decimalAvailable": true,
                                "name": "amount",
                                "type": "uint256",
                                "value": "24,714,000,000,000,000,000,000,000"
                            }
                        ],
                        "constructorArguments": "",
                        "name": "transfer",
                        "returnParams": [
                            {
                                "name": "",
                                "type": "bool",
                                "value": true
                            }
                        ],
                        "signature": "transfer(address,uint256)"
                    },
                    "errorInfo": "",
                    "fromAddress": "0x879a128c36d6fb60d22bc8b5856c19241fd03dfd",
                    "gasUsed": 60474,
                    "id": 0,
                    "methodDecoded": true,
                    "operation": "CALL",
                    "output": "0x0000000000000000000000000000000000000000000000000000000000000001",
                    "revert": false,
                    "revertMessage": "",
                    "selector": "0xa9059cbb",
                    "status": true,
                    "value": "0"
                },
                "nodeType": 0
            },
            "1": {
                "event": {
                    "contract": "0x6982508145454ce325ddbe47a25d4ec3d2311933",
                    "decodedLog": {
                        "name": "Transfer",
                        "params": [
                            {
                                "name": "from",
                                "type": "address",
                                "value": "0x879a128c36d6fb60d22bc8b5856c19241fd03dfd"
                            },
                            {
                                "name": "to",
                                "type": "address",
                                "value": "0x83eba1929248bd8246cadd52a72229fffc76c85d"
                            },
                            {
                                "decimalAvailable": true,
                                "name": "value",
                                "type": "uint256",
                                "value": "24,714,000,000,000,000,000,000,000"
                            }
                        ],
                        "signature": "Transfer(address,address,uint256)"
                    },
                    "id": 1,
                    "logData": "0x0000000000000000000000000000000000000000001471649fe1e02602400000",
                    "logDecoded": true,
                    "operation": "EVENT",
                    "revert": false,
                    "status": true,
                    "topics": [
                        "0xddf252ad1be2c89b69c2b068fc378daa952ba7f163c4a11628f55a4df523b3ef",
                        "0x000000000000000000000000879a128c36d6fb60d22bc8b5856c19241fd03dfd",
                        "0x00000000000000000000000083eba1929248bd8246cadd52a72229fffc76c85d"
                    ]
                },
                "nodeType": 1
            }
        },
        "gasFlame": [
            {
                "children": [
                    {
                        "children": [
                            {
                                "children": [],
                                "depth": 0,
                                "name": "Initial Gas",
                                "value": 21668
                            },
                            {
                                "children": [],
                                "depth": 0,
                                "name": "Executed Gas",
                                "value": 38806
                            }
                        ],
                        "depth": -1,
                        "name": "Actual Gas Used",
                        "value": 60474
                    },
                    {
                        "children": [],
                        "depth": -1,
                        "name": "Refunded Gas",
                        "value": 0
                    }
                ],
                "depth": -2,
                "name": "Total Gas",
                "value": 60474
            }
        ],
        "isConfirmed": true,
        "mainTrace": [
            {
                "children": [
                    {
                        "children": [
                            {
                                "children": [],
                                "depth": 1,
                                "id": 1,
                                "order": 1
                            }
                        ],
                        "depth": 0,
                        "id": 0,
                        "order": 0
                    }
                ],
                "depth": -1,
                "id": -1,
                "order": -1
            }
        ],
        "mainTraceNodeCount": 2,
        "parentIdMap": {
            "0": -1,
            "1": 0
        },
        "tidyTrace": [
            {
                "children": [
                    {
                        "children": [
                            {
                                "children": [],
                                "depth": 1,
                                "id": 1,
                                "order": 1
                            }
                        ],
                        "depth": 0,
                        "id": 0,
                        "order": 0
                    }
                ],
                "depth": -1,
                "id": -1,
                "order": -1
            }
        ],
        "tidyTraceNodeCount": 2
    },
    "state_change": {
        "stateChanges": [
            {
                "address": "0x6982508145454ce325ddbe47a25d4ec3d2311933",
                "erc": "ERC-20",
                "slots": [
                    {
                        "current": "0x0000000000000000000000000000000000000000001471649fe1e02602400000",
                        "key": "0xe51dec489921c563fcf10ed6319bdcda4c5133700098c2ba3983e9b24030e707",
                        "prev": "0x0000000000000000000000000000000000000000000000000000000000000000"
                    },
                    {
                        "current": "0x000000000000000000000000000000000000000000a56fa5bb7fb8bf069a7d79",
                        "key": "0xe5fae03b7cabdabe3b656b562022e3b610f159d639c15c169baefa2cb0f1e19a",
                        "prev": "0x000000000000000000000000000000000000000000b9e10a5b6198e508da7d79"
                    }
                ],
                "storageVariables": [
                    {
                        "name": "_balances",
                        "type": "mapping(address => uint256)",
                        "value": {
                            "pairs": [
                                {
                                    "key": "0x83eba1929248bd8246cadd52a72229fffc76c85d",
                                    "value": {
                                        "current": "24714000000000000000000000",
                                        "prev": "0",
                                        "typeTag": 1
                                    }
                                },
                                {
                                    "key": "0x879a128c36d6fb60d22bc8b5856c19241fd03dfd",
                                    "value": {
                                        "current": "200000000139505044245085561",
                                        "prev": "224714000139505044245085561",
                                        "typeTag": 1
                                    }
                                }
                            ],
                            "typeTag": 4
                        }
                    }
                ]
            }
        ]
    }
}