{
    "balance_change": {
        "balanceChanges": [
            {
                "account": "0x3fefaf4239a713e9df9c45c3f44912de70c21b2a",
                "assets": [
                    {
                        "address": "0xeeeeeeeeeeeeeeeeeeeeeeeeeeeeeeeeeeeeeeee",
                        "amount": "0.5",
                        "iconUrl": "https://assets.blocksec.com/image/1663669189317-3.png",
                        "isERC1155": false,
                        "isERC721": false,
                        "sign": false,
                        "value": "1102.2550000000001091"
                    }
                ]
            },
            {
                "account": "0xee72f1035c706478f84ab9480e45b427aa6b6682",
                "assets": [
                    {
                        "address": "0xeeeeeeeeeeeeeeeeeeeeeeeeeeeeeeeeeeeeeeee",
                        "amount": "0.5",
                        "iconUrl": "https://assets.blocksec.com/image/1663669189317-3.png",
                        "isERC1155": false,
                        "isERC721": false,
                        "sign": true,
                        "value": "1102.2550000000001091"
                    }
                ]
            }
        ]
    },
    "profile": {
        "basic_info": {
            "baseFee": "36.523665914",
            "blockNumber": 18825172,
            "callData": "0x2f366637000000000000000000000000000000000000000000000000000000000000000a",
            "debugEnable": true,
            "errorInfo": "",
            "eventCount": 1,
            "feeRecipient": "0xf15689636571dba322b48e9ec9ba6cfb3df818e1",
            "formatValue": "0.5",
            "gasLimit": 68133,
            "gasPrice": "36.623665914",
            "gasUsed": 45422,
            "intTxnCount": 0,
            "internalRevert": false,
            "internalRevertMessage": "",
            "isContractCreation": false,
            "isFlashloan": false,
            "maxFee": "48.896658491",
            "nonce": 3,
            "overwritedBlockNumber": -1,
            "priorityFee": "0.1",
            "receiver": "0xee72f1035c706478f84ab9480e45b427aa6b6682",
            "revertMessage": "",
            "sender": "0x3fefaf4239a713e9df9c45c3f44912de70c21b2a",
            "simulationEnable": true,
            "sourceTxnHash": "0x56b4722b4a6eac8fa258c97f1be5234f5a8e5750407499d07a954efec17bd97c",
            "status": true,
            "timestamp": "2023-12-20T05:54:23Z",
            "transactionFee": "0.001663520153145708",
            "txnHash": "0x56b4722b4a6eac8fa258c97f1be5234f5a8e5750407499d07a954efec17bd97c",
            "txnIndex": 81,
            "type": 2,
            "value": "500000000000000000"
        },
        "fund_flow": [
            {
                "amount": "0.5",
                "from": "0x3fefaf4239a713e9df9c45c3f44912de70c21b2a",
                "id": 1,
                "isERC1155": false,
                "isERC721": false,
                "isReverted": false,
                "order": 1,
                "to": "0xee72f1035c706478f84ab9480e45b427aa6b6682",
                "token": "0xeeeeeeeeeeeeeeeeeeeeeeeeeeeeeeeeeeeeeeee"
            }
        ],
        "token_infos": [
            {
                "address": "0xc02aaa39b223fe8d0a0e5c4f27ead9083c756cc2",
                "decimals": 18
            },
            {
                "address": "0xeeeeeeeeeeeeeeeeeeeeeeeeeeeeeeeeeeeeeeee",
                "decimals": 18
            }
        ]
    },
    "address_label": {
        "labels": [
            {
                "address": "0xeeeeeeeeeeeeeeeeeeeeeeeeeeeeeeeeeeeeeeee",
                "label": "Ether"
            },
            {
                "address": "0xee72f1035c706478f84ab9480e45b427aa6b6682",
                "label": "LaunchBlockGrapesSale"
            },
            {
                "address": "0x0000000000000000000000000000000000000001",
                "label": "Precompiled"
            },
            {
                "address": "0x0000000000000000000000000000000000000002",
                "label": "Precompiled"
            },
            {
                "address": "0x0000000000000000000000000000000000000003",
                "label": "Precompiled"
            },
            {
                "address": "0x0000000000000000000000000000000000000004",
                "label": "Precompiled"
            }
        ]
    },
    "trace": {
        "accountLabels": null,
        "dataMap": {
            "-1": {
                "invocation": {
                    "address": "0x3fefaf4239a713e9df9c45c3f44912de70c21b2a",
                    "callData": "",
                    "decodedMethod": null,
                    "errorInfo": "",
                    "fromAddress": "",
                    "gasUsed": 0,
                    "id": -1,
                    "methodDecoded": false,
                    "operation": "",
                    "output": "",
                    "revert": false,
                    "revertMessage": "",
                    "selector": "",
                    "status": false,
                    "value": ""
                },
                "nodeType": 0
            },
            "0": {
                "invocation": {
                    "address": "0xee72f1035c706478f84ab9480e45b427aa6b6682",
                    "callData": "0x000000000000000000000000000000000000000000000000000000000000000a",
                    "decodedMethod": {
                        "callParams": [
                            {
                                "name": "numberOfTickets_",
                                "type": "uint256",
                                "value": "10"
                            }
                        ],
                        "constructorArguments": "",
                        "name": "buyTickets",
                        "returnParams": [],
                        "signature": "buyTickets(uint256)"
                    },
                    "errorInfo": "",
                    "fromAddress": "0x3fefaf4239a713e9df9c45c3f44912de70c21b2a",
                    "gasUsed": 45422,
                    "id": 0,
                    "methodDecoded": true,
                    "operation": "CALL",
                    "output": "",
                    "revert": false,
                    "revertMessage": "",
                    "selector": "0x2f366637",
                    "status": true,
                    "value": "0.5"
                },
                "nodeType": 0
            },
            "1": {
                "event": {
                    "contract": "0xee72f1035c706478f84ab9480e45b427aa6b6682",
                    "decodedLog": {
                        "name": "TicketsBought",
                        "params": [
                            {
                                "name": "wallet",
                                "type": "address",
                                "value": "0x3fefaf4239a713e9df9c45c3f44912de70c21b2a"
                            },
                            {
                                "name": "count",
                                "type": "uint256",
                                "value": "10"
                            }
                        ],
                        "signature": "TicketsBought(address,uint256)"
                    },
                    "id": 1,
                    "logData": "0x000000000000000000000000000000000000000000000000000000000000000a",
                    "logDecoded": true,
                    "operation": "EVENT",
                    "revert": false,
                    "status": true,
                    "topics": [
                        "0xb24ee662b0a257d0321d324e737d2507fbe45df8af8d0da951f630f3754eb6a0",
                        "0x0000000000000000000000003fefaf4239a713e9df9c45c3f44912de70c21b2a"
                    ]
                },
                "nodeType": 1
            }
        },
        "gasFlame": [
            {
                "children": [
                    {
                        "children": [
                            {
                                "children": [],
                                "depth": 0,
                                "name": "Initial Gas",
                                "value": 21204
                            },
                            {
                                "children": [],
                                "depth": 0,
                                "name": "Executed Gas",
                                "value": 24218
                            }
                        ],
                        "depth": -1,
                        "name": "Actual Gas Used",
                        "value": 45422
                    },
                    {
                        "children": [],
                        "depth": -1,
                        "name": "Refunded Gas",
                        "value": 0
                    }
                ],
                "depth": -2,
                "name": "Total Gas",
                "value": 45422
            }
        ],
        "isConfirmed": true,
        "mainTrace": [
            {
                "children": [
                    {
                        "children": [
                            {
                                "children": [],
                                "depth": 1,
                                "id": 1,
                                "order": 1
                            }
                        ],
                        "depth": 0,
                        "id": 0,
                        "order": 0
                    }
                ],
                "depth": -1,
                "id": -1,
                "order": -1
            }
        ],
        "mainTraceNodeCount": 2,
        "parentIdMap": {
            "0": -1,
            "1": 0
        },
        "tidyTrace": [
            {
                "children": [
                    {
                        "children": [
                            {
                                "children": [],
                                "depth": 1,
                                "id": 1,
                                "order": 1
                            }
                        ],
                        "depth": 0,
                        "id": 0,
                        "order": 0
                    }
                ],
                "depth": -1,
                "id": -1,
                "order": -1
            }
        ],
        "tidyTraceNodeCount": 2
    },
    "state_change": {
        "stateChanges": [
            {
                "address": "0xee72f1035c706478f84ab9480e45b427aa6b6682",
                "erc": "",
                "slots": [
                    {
                        "current": "0x000000000000000000000000000000000000000000000000000000000000000a",
                        "key": "0x4c25a6059e073f36b331137e8d29e8265334a47c42e416cff83fe19445351579",
                        "prev": "0x0000000000000000000000000000000000000000000000000000000000000000"
                    }
                ],
                "storageVariables": [
                    {
                        "name": "balances",
                        "type": "mapping(address => uint256)",
                        "value": {
                            "pairs": [
                                {
                                    "key": "0x3fefaf4239a713e9df9c45c3f44912de70c21b2a",
                                    "value": {
                                        "current": "10",
                                        "prev": "0",
                                        "typeTag": 1
                                    }
                                }
                            ],
                            "typeTag": 4
                        }
                    }
                ]
            }
        ]
    }
}