{
    "balance_change": {
        "balanceChanges": [
            {
                "account": "0x4e0a22606a1abaa857ec4958ae9b0b38451dff4a",
                "assets": [
                    {
                        "address": "0xeeeeeeeeeeeeeeeeeeeeeeeeeeeeeeeeeeeeeeee",
                        "amount": "0.114424",
                        "iconUrl": "https://assets.blocksec.com/image/1663669189317-3.png",
                        "isERC1155": false,
                        "isERC721": false,
                        "sign": false,
                        "value": "203.45617015999999064"
                    }
                ]
            },
            {
                "account": "0x9727b8175f8b840b7ccbbe04b6cd177592c511b8",
                "assets": [
                    {
                        "address": "0xeeeeeeeeeeeeeeeeeeeeeeeeeeeeeeeeeeeeeeee",
                        "amount": "0.114424",
                        "iconUrl": "https://assets.blocksec.com/image/1663669189317-3.png",
                        "isERC1155": false,
                        "isERC721": false,
                        "sign": true,
                        "value": "203.45617015999999064"
                    }
                ]
            }
        ]
    },
    "profile": {
        "basic_info": {
            "baseFee": "16.798423094",
            "blockNumber": 16911486,
            "callData": "0x391252150000000000000000000000009727b8175f8b840b7ccbbe04b6cd177592c511b80000000000000000000000000000000000000000000000000196840591c7800000000000000000000000000000000000000000000000000000000000000000c00000000000000000000000000000000000000000000000000000000064296f540000000000000000000000000000000000000000000000000000000000019a0d00000000000000000000000000000000000000000000000000000000000000e00000000000000000000000000000000000000000000000000000000000000000000000000000000000000000000000000000000000000000000000000000004103a14f367f11c2e716f2ed170f70096b49d922316cc1bc75a7de2e1b2c4cd346296d4dc37349059f1cbf32197c4045af0c449c536faec7e7f5e43748e20d7f971c00000000000000000000000000000000000000000000000000000000000000",
            "debugEnable": true,
            "errorInfo": "",
            "eventCount": 1,
            "feeRecipient": "0x388c818ca8b9251b393131c08a736a67ccb19297",
            "formatValue": "0",
            "gasLimit": 179052,
            "gasPrice": "19.543283846",
            "gasUsed": 109052,
            "intTxnCount": 2,
            "internalRevert": false,
            "internalRevertMessage": "",
            "isContractCreation": false,
            "isFlashloan": false,
            "maxFee": "",
            "nonce": 517077,
            "overwritedBlockNumber": -1,
            "priorityFee": "",
            "receiver": "0x4e0a22606a1abaa857ec4958ae9b0b38451dff4a",
            "revertMessage": "",
            "sender": "0x8c4b7870fc7dff2cb1e854858533ceddaf3eebf4",
            "simulationEnable": true,
            "sourceTxnHash": "0x567a5567961a69b29b5e3ecbb27b6d099c74816c887d16df1ca893762cecb995",
            "status": true,
            "timestamp": "2023-03-26T12:04:59Z",
            "transactionFee": "0.002131234189973992",
            "txnHash": "0x567a5567961a69b29b5e3ecbb27b6d099c74816c887d16df1ca893762cecb995",
            "txnIndex": 13,
            "type": 0,
            "value": "0"
        },
        "fund_flow": [
            {
                "amount": "0.114424",
                "from": "0x4e0a22606a1abaa857ec4958ae9b0b38451dff4a",
                "id": 1,
                "isERC1155": false,
                "isERC721": false,
                "isReverted": false,
                "order": 1,
                "to": "0x9727b8175f8b840b7ccbbe04b6cd177592c511b8",
                "token": "0xeeeeeeeeeeeeeeeeeeeeeeeeeeeeeeeeeeeeeeee"
            }
        ],
        "token_infos": [
            {
                "address": "0xc02aaa39b223fe8d0a0e5c4f27ead9083c756cc2",
                "decimals": 18
            },
            {
                "address": "0xeeeeeeeeeeeeeeeeeeeeeeeeeeeeeeeeeeeeeeee",
                "decimals": 18
            }
        ]
    },
    "address_label": {
        "labels": [
            {
                "address": "0x0000000000000000000000000000000000000003",
                "label": "Precompiled"
            },
            {
                "address": "0x0000000000000000000000000000000000000004",
                "label": "Precompiled"
            },
            {
                "address": "0xeeeeeeeeeeeeeeeeeeeeeeeeeeeeeeeeeeeeeeee",
                "label": "Ether"
            },
            {
                "address": "0x388c818ca8b9251b393131c08a736a67ccb19297",
                "label": "LidoExecutionLayerRewardsVault"
            },
            {
                "address": "0x0000000000000000000000000000000000000001",
                "label": "Precompiled"
            },
            {
                "address": "0x0000000000000000000000000000000000000002",
                "label": "Precompiled"
            }
        ]
    },
    "trace": {
        "accountLabels": null,
        "dataMap": {
            "-1": {
                "invocation": {
                    "address": "0x8c4b7870fc7dff2cb1e854858533ceddaf3eebf4",
                    "callData": "",
                    "decodedMethod": null,
                    "errorInfo": "",
                    "fromAddress": "",
                    "gasUsed": 0,
                    "id": -1,
                    "methodDecoded": false,
                    "operation": "",
                    "output": "",
                    "revert": false,
                    "revertMessage": "",
                    "selector": "",
                    "status": false,
                    "value": ""
                },
                "nodeType": 0
            },
            "0": {
                "invocation": {
                    "address": "0x4e0a22606a1abaa857ec4958ae9b0b38451dff4a",
                    "callData": "0x0000000000000000000000009727b8175f8b840b7ccbbe04b6cd177592c511b80000000000000000000000000000000000000000000000000196840591c7800000000000000000000000000000000000000000000000000000000000000000c00000000000000000000000000000000000000000000000000000000064296f540000000000000000000000000000000000000000000000000000000000019a0d00000000000000000000000000000000000000000000000000000000000000e00000000000000000000000000000000000000000000000000000000000000000000000000000000000000000000000000000000000000000000000000000004103a14f367f11c2e716f2ed170f70096b49d922316cc1bc75a7de2e1b2c4cd346296d4dc37349059f1cbf32197c4045af0c449c536faec7e7f5e43748e20d7f971c00000000000000000000000000000000000000000000000000000000000000",
                    "decodedMethod": {
                        "callParams": [
                            {
                                "name": "toAddress",
                                "type": "address",
                                "value": "0x9727b8175f8b840b7ccbbe04b6cd177592c511b8"
                            },
                            {
                                "name": "value",
                                "type": "uint256",
                                "value": "114,424,000,000,000,000"
                            },
                            {
                                "name": "data",
                                "type": "bytes",
                                "value": "0x"
                            },
                            {
                                "name": "expireTime",
                                "type": "uint256",
                                "value": "1,680,437,076"
                            },
                            {
                                "name": "sequenceId",
                                "type": "uint256",
                                "value": "104,973"
                            },
                            {
                                "name": "signature",
                                "type": "bytes",
                                "value": "0x03a14f367f11c2e716f2ed170f70096b49d922316cc1bc75a7de2e1b2c4cd346296d4dc37349059f1cbf32197c4045af0c449c536faec7e7f5e43748e20d7f971c"
                            }
                        ],
                        "constructorArguments": "",
                        "name": "sendMultiSig",
                        "returnParams": [],
                        "signature": "sendMultiSig(address,uint256,bytes,uint256,uint256,bytes)"
                    },
                    "errorInfo": "",
                    "fromAddress": "0x8c4b7870fc7dff2cb1e854858533ceddaf3eebf4",
                    "gasUsed": 109052,
                    "id": 0,
                    "methodDecoded": true,
                    "operation": "CALL",
                    "output": "",
                    "revert": false,
                    "revertMessage": "",
                    "selector": "0x39125215",
                    "status": true,
                    "value": "0"
                },
                "nodeType": 0
            },
            "1": {
                "invocation": {
                    "address": "0x0000000000000000000000000000000000000001",
                    "callData": "0x669c1c3aac4288a52ee3cd3102d232ddb3b1a68aecf26f73f03f942f000000000000000000000000000000000000000000000000000000000000001c03a14f367f11c2e716f2ed170f70096b49d922316cc1bc75a7de2e1b2c4cd346296d4dc37349059f1cbf32197c4045af0c449c536faec7e7f5e43748e20d7f97",
                    "decodedMethod": {
                        "callParams": [
                            {
                                "name": "hash",
                                "type": "bytes32",
                                "value": "0x4a1d7a2d669c1c3aac4288a52ee3cd3102d232ddb3b1a68aecf26f73f03f942f"
                            },
                            {
                                "name": "v",
                                "type": "uint256",
                                "value": "28"
                            },
                            {
                                "name": "r",
                                "type": "bytes32",
                                "value": "0x03a14f367f11c2e716f2ed170f70096b49d922316cc1bc75a7de2e1b2c4cd346"
                            },
                            {
                                "name": "s",
                                "type": "bytes32",
                                "value": "0x296d4dc37349059f1cbf32197c4045af0c449c536faec7e7f5e43748e20d7f97"
                            }
                        ],
                        "constructorArguments": "",
                        "name": "ecrecover",
                        "returnParams": [
                            {
                                "name": "",
                                "type": "address",
                                "value": "0x7b28073a10868aadc26b6b1ebe2ca7319a5bbbb8"
                            }
                        ],
                        "signature": "ecrecover(bytes32,uint256,bytes32,bytes32)"
                    },
                    "errorInfo": "",
                    "fromAddress": "0x4e0a22606a1abaa857ec4958ae9b0b38451dff4a",
                    "gasUsed": 3000,
                    "id": 1,
                    "methodDecoded": true,
                    "operation": "CALL",
                    "output": "0x0000000000000000000000007b28073a10868aadc26b6b1ebe2ca7319a5bbbb8",
                    "revert": false,
                    "revertMessage": "",
                    "selector": "0x4a1d7a2d",
                    "status": true,
                    "value": "0"
                },
                "nodeType": 0
            },
            "2": {
                "invocation": {
                    "address": "0x9727b8175f8b840b7ccbbe04b6cd177592c511b8",
                    "callData": "0x",
                    "decodedMethod": null,
                    "errorInfo": "",
                    "fromAddress": "0x4e0a22606a1abaa857ec4958ae9b0b38451dff4a",
                    "gasUsed": 0,
                    "id": 2,
                    "methodDecoded": false,
                    "operation": "CALL",
                    "output": "",
                    "revert": false,
                    "revertMessage": "",
                    "selector": "fallback",
                    "status": true,
                    "value": "0.114424"
                },
                "nodeType": 0
            },
            "3": {
                "event": {
                    "contract": "0x4e0a22606a1abaa857ec4958ae9b0b38451dff4a",
                    "decodedLog": {
                        "name": "Transacted",
                        "params": [
                            {
                                "name": "msgSender",
                                "type": "address",
                                "value": "0x8c4b7870fc7dff2cb1e854858533ceddaf3eebf4"
                            },
                            {
                                "name": "otherSigner",
                                "type": "address",
                                "value": "0x7b28073a10868aadc26b6b1ebe2ca7319a5bbbb8"
                            },
                            {
                                "name": "operation",
                                "type": "bytes32",
                                "value": "0x4a1d7a2d669c1c3aac4288a52ee3cd3102d232ddb3b1a68aecf26f73f03f942f"
                            },
                            {
                                "name": "toAddress",
                                "type": "address",
                                "value": "0x9727b8175f8b840b7ccbbe04b6cd177592c511b8"
                            },
                            {
                                "name": "value",
                                "type": "uint256",
                                "value": "114,424,000,000,000,000"
                            },
                            {
                                "name": "data",
                                "type": "bytes",
                                "value": "0x"
                            }
                        ],
                        "signature": "Transacted(address,address,bytes32,address,uint256,bytes)"
                    },
                    "id": 3,
                    "logData": "0x0000000000000000000000008c4b7870fc7dff2cb1e854858533ceddaf3eebf40000000000000000000000007b28073a10868aadc26b6b1ebe2ca7319a5bbbb84a1d7a2d669c1c3aac4288a52ee3cd3102d232ddb3b1a68aecf26f73f03f942f0000000000000000000000009727b8175f8b840b7ccbbe04b6cd177592c511b80000000000000000000000000000000000000000000000000196840591c7800000000000000000000000000000000000000000000000000000000000000000c00000000000000000000000000000000000000000000000000000000000000000",
                    "logDecoded": true,
                    "operation": "EVENT",
                    "revert": false,
                    "status": true,
                    "topics": [
                        "0x59bed9ab5d78073465dd642a9e3e76dfdb7d53bcae9d09df7d0b8f5234d5a806"
                    ]
                },
                "nodeType": 1
            }
        },
        "gasFlame": [
            {
                "children": [
                    {
                        "children": [
                            {
                                "children": [],
                                "depth": 0,
                                "name": "Initial Gas",
                                "value": 23696
                            },
                            {
                                "children": [
                                    {
                                        "children": [],
                                        "depth": 1,
                                        "name": "ecrecover",
                                        "value": 3000
                                    },
                                    {
                                        "children": [],
                                        "depth": 1,
                                        "name": "fallback",
                                        "value": 0
                                    }
                                ],
                                "depth": 0,
                                "name": "Executed Gas",
                                "value": 85356
                            }
                        ],
                        "depth": -1,
                        "name": "Actual Gas Used",
                        "value": 109052
                    },
                    {
                        "children": [],
                        "depth": -1,
                        "name": "Refunded Gas",
                        "value": 0
                    }
                ],
                "depth": -2,
                "name": "Total Gas",
                "value": 109052
            }
        ],
        "isConfirmed": true,
        "mainTrace": [
            {
                "children": [
                    {
                        "children": [
                            {
                                "children": [],
                                "depth": 1,
                                "id": 1,
                                "order": 1
                            },
                            {
                                "children": [],
                                "depth": 1,
                                "id": 2,
                                "order": 2
                            },
                            {
                                "children": [],
                                "depth": 1,
                                "id": 3,
                                "order": 3
                            }
                        ],
                        "depth": 0,
                        "id": 0,
                        "order": 0
                    }
                ],
                "depth": -1,
                "id": -1,
                "order": -1
            }
        ],
        "mainTraceNodeCount": 4,
        "parentIdMap": {
            "0": -1,
            "1": 0,
            "2": 0,
            "3": 0
        },
        "tidyTrace": [
            {
                "children": [
                    {
                        "children": [
                            {
                                "children": [],
                                "depth": 1,
                                "id": 1,
                                "order": 1
                            },
                            {
                                "children": [],
                                "depth": 1,
                                "id": 2,
                                "order": 2
                            },
                            {
                                "children": [],
                                "depth": 1,
                                "id": 3,
                                "order": 3
                            }
                        ],
                        "depth": 0,
                        "id": 0,
                        "order": 0
                    }
                ],
                "depth": -1,
                "id": -1,
                "order": -1
            }
        ],
        "tidyTraceNodeCount": 4
    },
    "state_change": {
        "stateChanges": [
            {
                "address": "0x4e0a22606a1abaa857ec4958ae9b0b38451dff4a",
                "erc": "",
                "slots": [
                    {
                        "current": "0x0000000000000000000000000000000000000000000000000000000000019a0d",
                        "key": "0x000000000000000000000000000000000000000000000000000000000000000b",
                        "prev": "0x0000000000000000000000000000000000000000000000000000000000019a03"
                    }
                ],
                "storageVariables": []
            }
        ]
    }
}