{
    "balance_change": {
        "balanceChanges": [
            {
                "account": "0xa5a53da60bc8a4578787bc121d75fc64a776133c",
                "assets": [
                    {
                        "address": "0x3819f64f282bf135d62168c1e513280daf905e06",
                        "amount": "20,119,851.285142725",
                        "iconUrl": "",
                        "isERC1155": false,
                        "isERC721": false,
                        "sign": true,
                        "value": "31.04145784"
                    }
                ]
            },
            {
                "account": "0x0000000000000000000000000000000000000000",
                "assets": [
                    {
                        "address": "0x3819f64f282bf135d62168c1e513280daf905e06",
                        "amount": "20,119,851.285142725",
                        "iconUrl": "",
                        "isERC1155": false,
                        "isERC721": false,
                        "sign": false,
                        "value": "31.04145784"
                    }
                ]
            }
        ]
    },
    "profile": {
        "basic_info": {
            "baseFee": "14.867659272",
            "blockNumber": 16432196,
            "callData": "0xf812b9a4000000000000000000000000000000000000000000000000000000000000000000000000000000000000000000000000000000000000000000000000000b5738",
            "debugEnable": true,
            "errorInfo": "",
            "eventCount": 2,
            "feeRecipient": "0x690b9a9e9aa1c9db991c7721a92d351db4fac990",
            "formatValue": "0",
            "gasLimit": 106962,
            "gasPrice": "15.168473326",
            "gasUsed": 106962,
            "intTxnCount": 1,
            "internalRevert": false,
            "internalRevertMessage": "",
            "isContractCreation": false,
            "isFlashloan": false,
            "maxFee": "16.557193599",
            "nonce": 162,
            "overwritedBlockNumber": -1,
            "priorityFee": "0.300814054",
            "receiver": "0x3819f64f282bf135d62168c1e513280daf905e06",
            "revertMessage": "",
            "sender": "0xa5a53da60bc8a4578787bc121d75fc64a776133c",
            "simulationEnable": true,
            "sourceTxnHash": "0x568a78c4bd81efdedfee687d77a6f36983b8d330d19947f519dc4a799e87468a",
            "status": true,
            "timestamp": "2023-01-18T07:28:11Z",
            "transactionFee": "0.001622450243895612",
            "txnHash": "0x568a78c4bd81efdedfee687d77a6f36983b8d330d19947f519dc4a799e87468a",
            "txnIndex": 129,
            "type": 2,
            "value": "0"
        },
        "fund_flow": [
            {
                "amount": "20,119,851.285142725",
                "from": "0x0000000000000000000000000000000000000000",
                "id": 1,
                "isERC1155": false,
                "isERC721": false,
                "isReverted": false,
                "order": 1,
                "to": "0xa5a53da60bc8a4578787bc121d75fc64a776133c",
                "token": "0x3819f64f282bf135d62168c1e513280daf905e06"
            }
        ],
        "token_infos": [
            {
                "address": "0x3819f64f282bf135d62168c1e513280daf905e06",
                "decimals": 9
            },
            {
                "address": "0xc02aaa39b223fe8d0a0e5c4f27ead9083c756cc2",
                "decimals": 18
            },
            {
                "address": "0xeeeeeeeeeeeeeeeeeeeeeeeeeeeeeeeeeeeeeeee",
                "decimals": 18
            }
        ]
    },
    "address_label": {
        "labels": [
            {
                "address": "0x3819f64f282bf135d62168c1e513280daf905e06",
                "label": "Hedron: HDRN Token"
            },
            {
                "address": "0x0000000000000000000000000000000000000001",
                "label": "Precompiled"
            },
            {
                "address": "0x0000000000000000000000000000000000000002",
                "label": "Precompiled"
            },
            {
                "address": "0x0000000000000000000000000000000000000003",
                "label": "Precompiled"
            },
            {
                "address": "0x0000000000000000000000000000000000000004",
                "label": "Precompiled"
            },
            {
                "address": "0xeeeeeeeeeeeeeeeeeeeeeeeeeeeeeeeeeeeeeeee",
                "label": "Ether"
            },
            {
                "address": "0x2b591e99afe9f32eaa6214f7b7629768c40eeb39",
                "label": "HEX.com: HEX Token"
            }
        ]
    },
    "trace": {
        "accountLabels": null,
        "dataMap": {
            "-1": {
                "invocation": {
                    "address": "0xa5a53da60bc8a4578787bc121d75fc64a776133c",
                    "callData": "",
                    "decodedMethod": null,
                    "errorInfo": "",
                    "fromAddress": "",
                    "gasUsed": 0,
                    "id": -1,
                    "methodDecoded": false,
                    "operation": "",
                    "output": "",
                    "revert": false,
                    "revertMessage": "",
                    "selector": "",
                    "status": false,
                    "value": ""
                },
                "nodeType": 0
            },
            "0": {
                "invocation": {
                    "address": "0x3819f64f282bf135d62168c1e513280daf905e06",
                    "callData": "0x000000000000000000000000000000000000000000000000000000000000000000000000000000000000000000000000000000000000000000000000000b5738",
                    "decodedMethod": {
                        "callParams": [
                            {
                                "name": "stakeIndex",
                                "type": "uint256",
                                "value": "0"
                            },
                            {
                                "name": "stakeId",
                                "type": "uint40",
                                "value": "743,224"
                            }
                        ],
                        "constructorArguments": "",
                        "name": "mintNative",
                        "returnParams": [
                            {
                                "name": "",
                                "type": "uint256",
                                "value": "20,119,851,285,142,725"
                            }
                        ],
                        "signature": "mintNative(uint256,uint40)"
                    },
                    "errorInfo": "",
                    "fromAddress": "0xa5a53da60bc8a4578787bc121d75fc64a776133c",
                    "gasUsed": 106962,
                    "id": 0,
                    "methodDecoded": true,
                    "operation": "CALL",
                    "output": "0x00000000000000000000000000000000000000000000000000477ae5ecc8dcc5",
                    "revert": false,
                    "revertMessage": "",
                    "selector": "0xf812b9a4",
                    "status": true,
                    "value": "0"
                },
                "nodeType": 0
            },
            "1": {
                "invocation": {
                    "address": "0x2b591e99afe9f32eaa6214f7b7629768c40eeb39",
                    "callData": "0x000000000000000000000000a5a53da60bc8a4578787bc121d75fc64a776133c0000000000000000000000000000000000000000000000000000000000000000",
                    "decodedMethod": {
                        "callParams": [
                            {
                                "name": "",
                                "type": "address",
                                "value": "0xa5a53da60bc8a4578787bc121d75fc64a776133c"
                            },
                            {
                                "name": "",
                                "type": "uint256",
                                "value": "0"
                            }
                        ],
                        "constructorArguments": "",
                        "name": "stakeLists",
                        "returnParams": [
                            {
                                "name": "stakeId",
                                "type": "uint40",
                                "value": "743,224"
                            },
                            {
                                "name": "stakedHearts",
                                "type": "uint72",
                                "value": "3,310,779,601,000,000"
                            },
                            {
                                "name": "stakeShares",
                                "type": "uint72",
                                "value": "1,341,323,419,009,515"
                            },
                            {
                                "name": "lockedDay",
                                "type": "uint16",
                                "value": "1,127"
                            },
                            {
                                "name": "stakedDays",
                                "type": "uint16",
                                "value": "15"
                            },
                            {
                                "name": "unlockedDay",
                                "type": "uint16",
                                "value": "0"
                            },
                            {
                                "name": "isAutoStake",
                                "type": "bool",
                                "value": false
                            }
                        ],
                        "signature": "stakeLists(address,uint256)"
                    },
                    "errorInfo": "",
                    "fromAddress": "0x3819f64f282bf135d62168c1e513280daf905e06",
                    "gasUsed": 5020,
                    "id": 1,
                    "methodDecoded": true,
                    "operation": "STATICCALL",
                    "output": "0x00000000000000000000000000000000000000000000000000000000000b5738000000000000000000000000000000000000000000000000000bc322f20c16400000000000000000000000000000000000000000000000000004c3ed31eb41eb0000000000000000000000000000000000000000000000000000000000000467000000000000000000000000000000000000000000000000000000000000000f00000000000000000000000000000000000000000000000000000000000000000000000000000000000000000000000000000000000000000000000000000000",
                    "revert": false,
                    "revertMessage": "",
                    "selector": "0x2607443b",
                    "status": true,
                    "value": "0"
                },
                "nodeType": 0
            },
            "2": {
                "event": {
                    "contract": "0x3819f64f282bf135d62168c1e513280daf905e06",
                    "decodedLog": {
                        "name": "Transfer",
                        "params": [
                            {
                                "name": "from",
                                "type": "address",
                                "value": "0x0000000000000000000000000000000000000000"
                            },
                            {
                                "name": "to",
                                "type": "address",
                                "value": "0xa5a53da60bc8a4578787bc121d75fc64a776133c"
                            },
                            {
                                "decimalAvailable": true,
                                "name": "value",
                                "type": "uint256",
                                "value": "20,119,851,285,142,725"
                            }
                        ],
                        "signature": "Transfer(address,address,uint256)"
                    },
                    "id": 2,
                    "logData": "0x00000000000000000000000000000000000000000000000000477ae5ecc8dcc5",
                    "logDecoded": true,
                    "operation": "EVENT",
                    "revert": false,
                    "status": true,
                    "topics": [
                        "0xddf252ad1be2c89b69c2b068fc378daa952ba7f163c4a11628f55a4df523b3ef",
                        "0x0000000000000000000000000000000000000000000000000000000000000000",
                        "0x000000000000000000000000a5a53da60bc8a4578787bc121d75fc64a776133c"
                    ]
                },
                "nodeType": 1
            },
            "3": {
                "event": {
                    "contract": "0x3819f64f282bf135d62168c1e513280daf905e06",
                    "decodedLog": {
                        "name": "Mint",
                        "params": [
                            {
                                "name": "minter",
                                "type": "address",
                                "value": "0xa5a53da60bc8a4578787bc121d75fc64a776133c"
                            },
                            {
                                "name": "stakeId",
                                "type": "uint40",
                                "value": "743,224"
                            },
                            {
                                "name": "data",
                                "type": "uint256",
                                "value": "1,752,686,238,055,846,921,814,681,170,974,734,862,132,535,403,354,549,362,571"
                            }
                        ],
                        "signature": "Mint(uint256,address,uint40)"
                    },
                    "id": 3,
                    "logData": "0x0000000000000000477ae5ecc8dcc500000f000004c3ed31eb41eb0063c79f8b",
                    "logDecoded": true,
                    "operation": "EVENT",
                    "revert": false,
                    "status": true,
                    "topics": [
                        "0xce84afc26010d49051ae429b96ad50c0ef3a958a5c5bdc44c80e090dee642dbe",
                        "0x000000000000000000000000a5a53da60bc8a4578787bc121d75fc64a776133c",
                        "0x00000000000000000000000000000000000000000000000000000000000b5738"
                    ]
                },
                "nodeType": 1
            }
        },
        "gasFlame": [
            {
                "children": [
                    {
                        "children": [
                            {
                                "children": [],
                                "depth": 0,
                                "name": "Initial Gas",
                                "value": 21356
                            },
                            {
                                "children": [
                                    {
                                        "children": [],
                                        "depth": 1,
                                        "name": "stakeLists",
                                        "value": 5020
                                    }
                                ],
                                "depth": 0,
                                "name": "Executed Gas",
                                "value": 85606
                            }
                        ],
                        "depth": -1,
                        "name": "Actual Gas Used",
                        "value": 106962
                    },
                    {
                        "children": [],
                        "depth": -1,
                        "name": "Refunded Gas",
                        "value": 0
                    }
                ],
                "depth": -2,
                "name": "Total Gas",
                "value": 106962
            }
        ],
        "isConfirmed": true,
        "mainTrace": [
            {
                "children": [
                    {
                        "children": [
                            {
                                "children": [],
                                "depth": 1,
                                "id": 1,
                                "order": 1
                            },
                            {
                                "children": [],
                                "depth": 1,
                                "id": 2,
                                "order": 2
                            },
                            {
                                "children": [],
                                "depth": 1,
                                "id": 3,
                                "order": 3
                            }
                        ],
                        "depth": 0,
                        "id": 0,
                        "order": 0
                    }
                ],
                "depth": -1,
                "id": -1,
                "order": -1
            }
        ],
        "mainTraceNodeCount": 4,
        "parentIdMap": {
            "0": -1,
            "1": 0,
            "2": 0,
            "3": 0
        },
        "tidyTrace": [
            {
                "children": [
                    {
                        "children": [
                            {
                                "children": [],
                                "depth": 1,
                                "id": 2,
                                "order": 2
                            },
                            {
                                "children": [],
                                "depth": 1,
                                "id": 3,
                                "order": 3
                            }
                        ],
                        "depth": 0,
                        "id": 0,
                        "order": 0
                    }
                ],
                "depth": -1,
                "id": -1,
                "order": -1
            }
        ],
        "tidyTraceNodeCount": 3
    },
    "state_change": {
        "stateChanges": [
            {
                "address": "0x3819f64f282bf135d62168c1e513280daf905e06",
                "erc": "ERC-20",
                "slots": [
                    {
                        "current": "0x00000001f70067686ad8ad2ce1e70001f07702b11ad903007e7302c825f2b4fa",
                        "key": "0xe3e4affd89c6b7324e5c780f60134a4da8e7e04bae3941227100bce4422b61af",
                        "prev": "0x00000001f70067686ad8ad2ce1e70001f07702b11ad903007e2b87e23929d835"
                    },
                    {
                        "current": "0x0000000000000000000000000000000f0467000004c3ed31eb41eb00000b5738",
                        "key": "0x3f7bb9118604121b4c63b796c8ea83ec7ecfd714f1d17577b1791b0814153248",
                        "prev": "0x0000000000000000000000000000000000000000000000000000000000000000"
                    },
                    {
                        "current": "0x000000000000000000000000000000000000000000000000000000000000000f",
                        "key": "0x3f7bb9118604121b4c63b796c8ea83ec7ecfd714f1d17577b1791b0814153249",
                        "prev": "0x0000000000000000000000000000000000000000000000000000000000000000"
                    },
                    {
                        "current": "0x000000000000000000000000000000000000000000001829591f086b390051ad",
                        "key": "0x0000000000000000000000000000000000000000000000000000000000000002",
                        "prev": "0x00000000000000000000000000000000000000000000182958d78d854c3774e8"
                    },
                    {
                        "current": "0x00000000000000000000000000000000000000000000000000923245bbdeea35",
                        "key": "0xaf368b288a9169df2cf366d990460e3487800b3be5fddcfb18600a43166e29a5",
                        "prev": "0x000000000000000000000000000000000000000000000000004ab75fcf160d70"
                    }
                ],
                "storageVariables": [
                    {
                        "name": "_totalSupply",
                        "type": "uint256",
                        "value": {
                            "current": "114099533956743841206701",
                            "prev": "114099513836892556063976",
                            "typeTag": 1
                        }
                    },
                    {
                        "name": "_balances",
                        "type": "mapping(address => uint256)",
                        "value": {
                            "pairs": [
                                {
                                    "key": "0xa5a53da60bc8a4578787bc121d75fc64a776133c",
                                    "value": {
                                        "current": "41150621685836341",
                                        "prev": "21030770400693616",
                                        "typeTag": 1
                                    }
                                }
                            ],
                            "typeTag": 4
                        }
                    },
                    {
                        "name": "dailyDataList",
                        "type": "mapping(uint256 => struct Hedron.DailyDataStore)",
                        "value": {
                            "pairs": [
                                {
                                    "key": "326",
                                    "value": {
                                        "fields": [
                                            {
                                                "name": "dayMintedTotal",
                                                "type": "uint72",
                                                "value": {
                                                    "current": "9111629529754023162",
                                                    "prev": "9091509678468880437",
                                                    "typeTag": 1
                                                }
                                            },
                                            {
                                                "name": "dayLoanedTotal",
                                                "type": "uint72",
                                                "value": {
                                                    "current": "139742441893452035",
                                                    "prev": "139742441893452035",
                                                    "typeTag": 1
                                                }
                                            },
                                            {
                                                "name": "dayBurntTotal",
                                                "type": "uint72",
                                                "value": {
                                                    "current": "7451323062335365607",
                                                    "prev": "7451323062335365607",
                                                    "typeTag": 1
                                                }
                                            },
                                            {
                                                "name": "dayInterestRate",
                                                "type": "uint32",
                                                "value": {
                                                    "current": "503",
                                                    "prev": "503",
                                                    "typeTag": 1
                                                }
                                            },
                                            {
                                                "name": "dayMintMultiplier",
                                                "type": "uint8",
                                                "value": {
                                                    "current": "0",
                                                    "prev": "0",
                                                    "typeTag": 1
                                                }
                                            }
                                        ],
                                        "typeTag": 3
                                    }
                                }
                            ],
                            "typeTag": 4
                        }
                    },
                    {
                        "name": "shareList",
                        "type": "mapping(uint256 => struct ShareStore)",
                        "value": {
                            "pairs": [
                                {
                                    "key": "743224",
                                    "value": {
                                        "fields": [
                                            {
                                                "name": "stake",
                                                "type": "struct HEXStakeMinimal",
                                                "value": {
                                                    "fields": [
                                                        {
                                                            "name": "stakeId",
                                                            "type": "uint40",
                                                            "value": {
                                                                "current": "743224",
                                                                "prev": "0",
                                                                "typeTag": 1
                                                            }
                                                        },
                                                        {
                                                            "name": "stakeShares",
                                                            "type": "uint72",
                                                            "value": {
                                                                "current": "1341323419009515",
                                                                "prev": "0",
                                                                "typeTag": 1
                                                            }
                                                        },
                                                        {
                                                            "name": "lockedDay",
                                                            "type": "uint16",
                                                            "value": {
                                                                "current": "1127",
                                                                "prev": "0",
                                                                "typeTag": 1
                                                            }
                                                        },
                                                        {
                                                            "name": "stakedDays",
                                                            "type": "uint16",
                                                            "value": {
                                                                "current": "15",
                                                                "prev": "0",
                                                                "typeTag": 1
                                                            }
                                                        }
                                                    ],
                                                    "typeTag": 3
                                                }
                                            },
                                            {
                                                "name": "mintedDays",
                                                "type": "uint16",
                                                "value": {
                                                    "current": "15",
                                                    "prev": "0",
                                                    "typeTag": 1
                                                }
                                            },
                                            {
                                                "name": "launchBonus",
                                                "type": "uint8",
                                                "value": {
                                                    "current": "0",
                                                    "prev": "0",
                                                    "typeTag": 1
                                                }
                                            },
                                            {
                                                "name": "loanStart",
                                                "type": "uint16",
                                                "value": {
                                                    "current": "0",
                                                    "prev": "0",
                                                    "typeTag": 1
                                                }
                                            },
                                            {
                                                "name": "loanedDays",
                                                "type": "uint16",
                                                "value": {
                                                    "current": "0",
                                                    "prev": "0",
                                                    "typeTag": 1
                                                }
                                            },
                                            {
                                                "name": "interestRate",
                                                "type": "uint32",
                                                "value": {
                                                    "current": "0",
                                                    "prev": "0",
                                                    "typeTag": 1
                                                }
                                            },
                                            {
                                                "name": "paymentsMade",
                                                "type": "uint8",
                                                "value": {
                                                    "current": "0",
                                                    "prev": "0",
                                                    "typeTag": 1
                                                }
                                            },
                                            {
                                                "name": "isLoaned",
                                                "type": "bool",
                                                "value": {
                                                    "current": "false",
                                                    "prev": "false",
                                                    "typeTag": 1
                                                }
                                            }
                                        ],
                                        "typeTag": 3
                                    }
                                }
                            ],
                            "typeTag": 4
                        }
                    }
                ]
            }
        ]
    }
}