{
    "balance_change": {
        "balanceChanges": [
            {
                "account": "0xd9a5c5bde6031f84422fbe53409804c403e1b1af",
                "assets": [
                    {
                        "address": "0x221657776846890989a759ba2973e427dff5c9bb",
                        "amount": "200",
                        "iconUrl": "https://assets.blocksec.com/icon/22f2c5943200aeb3db7bff7460e7944c1c2305e66569820681f8aff481dc7dea.png",
                        "isERC1155": false,
                        "isERC721": false,
                        "sign": false,
                        "value": "3637.853382"
                    },
                    {
                        "address": "0xeeeeeeeeeeeeeeeeeeeeeeeeeeeeeeeeeeeeeeee",
                        "amount": "0.835511707161565124",
                        "iconUrl": "https://assets.blocksec.com/image/1663669189317-3.png",
                        "isERC1155": false,
                        "isERC721": false,
                        "sign": true,
                        "value": "3637.853382"
                    }
                ]
            },
            {
                "account": "0x8979a3ef9d540480342ac0f56e9d4c88807b1cba",
                "assets": [
                    {
                        "address": "0x221657776846890989a759ba2973e427dff5c9bb",
                        "amount": "200",
                        "iconUrl": "https://assets.blocksec.com/icon/22f2c5943200aeb3db7bff7460e7944c1c2305e66569820681f8aff481dc7dea.png",
                        "isERC1155": false,
                        "isERC721": false,
                        "sign": true,
                        "value": "3637.853382"
                    },
                    {
                        "address": "0xc02aaa39b223fe8d0a0e5c4f27ead9083c756cc2",
                        "amount": "0.835511707161565124",
                        "iconUrl": "https://assets.blocksec.com/icon/f1cb2d02c471d545bbc7722daf3277fd852d98e63d118771af7047bd8256c516.png",
                        "isERC1155": false,
                        "isERC721": false,
                        "sign": false,
                        "value": "3637.853382"
                    }
                ]
            },
            {
                "account": "0xc02aaa39b223fe8d0a0e5c4f27ead9083c756cc2",
                "assets": [
                    {
                        "address": "0xeeeeeeeeeeeeeeeeeeeeeeeeeeeeeeeeeeeeeeee",
                        "amount": "0.835511707161565124",
                        "iconUrl": "https://assets.blocksec.com/image/1663669189317-3.png",
                        "isERC1155": false,
                        "isERC721": false,
                        "sign": false,
                        "value": "3637.853382"
                    },
                    {
                        "address": "0xc02aaa39b223fe8d0a0e5c4f27ead9083c756cc2",
                        "amount": "0.835511707161565124",
                        "iconUrl": "https://assets.blocksec.com/icon/f1cb2d02c471d545bbc7722daf3277fd852d98e63d118771af7047bd8256c516.png",
                        "isERC1155": false,
                        "isERC721": false,
                        "sign": true,
                        "value": "3637.853382"
                    }
                ]
            }
        ]
    },
    "profile": {
        "basic_info": {
            "baseFee": "153.373533194",
            "blockNumber": 13755111,
            "callData": "0x18cbafe500000000000000000000000000000000000000000000000ad78ebc5ac62000000000000000000000000000000000000000000000000000000b509b55c14cf5e800000000000000000000000000000000000000000000000000000000000000a0000000000000000000000000d9a5c5bde6031f84422fbe53409804c403e1b1af0000000000000000000000000000000000000000000000000000000061ae9a920000000000000000000000000000000000000000000000000000000000000002000000000000000000000000221657776846890989a759ba2973e427dff5c9bb000000000000000000000000c02aaa39b223fe8d0a0e5c4f27ead9083c756cc2",
            "debugEnable": true,
            "errorInfo": "",
            "eventCount": 9,
            "feeRecipient": "0x2a20380dca5bc24d052acfbf79ba23e988ad0050",
            "formatValue": "0",
            "gasLimit": 400000,
            "gasPrice": "188.901187815",
            "gasUsed": 138449,
            "intTxnCount": 11,
            "internalRevert": false,
            "internalRevertMessage": "",
            "isContractCreation": false,
            "isFlashloan": false,
            "maxFee": "188.901187815",
            "nonce": 31821,
            "overwritedBlockNumber": -1,
            "priorityFee": "188.901187815",
            "receiver": "0x7a250d5630b4cf539739df2c5dacb4c659f2488d",
            "revertMessage": "",
            "sender": "0xd9a5c5bde6031f84422fbe53409804c403e1b1af",
            "simulationEnable": true,
            "sourceTxnHash": "0x579c967ce4c7b9989017f57f7cca0308bfb1ec8e41df7573619a99c3ab32c430",
            "status": true,
            "timestamp": "2021-12-06T23:17:48Z",
            "transactionFee": "0.026153180551798935",
            "txnHash": "0x579c967ce4c7b9989017f57f7cca0308bfb1ec8e41df7573619a99c3ab32c430",
            "txnIndex": 14,
            "type": 2,
            "value": "0"
        },
        "fund_flow": [
            {
                "amount": "200",
                "from": "0xd9a5c5bde6031f84422fbe53409804c403e1b1af",
                "id": 1,
                "isERC1155": false,
                "isERC721": false,
                "isReverted": false,
                "order": 1,
                "to": "0x8979a3ef9d540480342ac0f56e9d4c88807b1cba",
                "token": "0x221657776846890989a759ba2973e427dff5c9bb"
            },
            {
                "amount": "0.835511707161565124",
                "from": "0x8979a3ef9d540480342ac0f56e9d4c88807b1cba",
                "id": 2,
                "isERC1155": false,
                "isERC721": false,
                "isReverted": false,
                "order": 2,
                "to": "0x7a250d5630b4cf539739df2c5dacb4c659f2488d",
                "token": "0xc02aaa39b223fe8d0a0e5c4f27ead9083c756cc2"
            },
            {
                "amount": "0.835511707161565124",
                "from": "0xc02aaa39b223fe8d0a0e5c4f27ead9083c756cc2",
                "id": 3,
                "isERC1155": false,
                "isERC721": false,
                "isReverted": false,
                "order": 3,
                "to": "0x7a250d5630b4cf539739df2c5dacb4c659f2488d",
                "token": "0xeeeeeeeeeeeeeeeeeeeeeeeeeeeeeeeeeeeeeeee"
            },
            {
                "amount": "0.835511707161565124",
                "from": "0x7a250d5630b4cf539739df2c5dacb4c659f2488d",
                "id": 4,
                "isERC1155": false,
                "isERC721": false,
                "isReverted": false,
                "order": 4,
                "to": "0xc02aaa39b223fe8d0a0e5c4f27ead9083c756cc2",
                "token": "0xc02aaa39b223fe8d0a0e5c4f27ead9083c756cc2"
            },
            {
                "amount": "0.835511707161565124",
                "from": "0x7a250d5630b4cf539739df2c5dacb4c659f2488d",
                "id": 5,
                "isERC1155": false,
                "isERC721": false,
                "isReverted": false,
                "order": 5,
                "to": "0xd9a5c5bde6031f84422fbe53409804c403e1b1af",
                "token": "0xeeeeeeeeeeeeeeeeeeeeeeeeeeeeeeeeeeeeeeee"
            }
        ],
        "token_infos": [
            {
                "address": "0x221657776846890989a759ba2973e427dff5c9bb",
                "decimals": 18
            },
            {
                "address": "0xc02aaa39b223fe8d0a0e5c4f27ead9083c756cc2",
                "decimals": 18
            },
            {
                "address": "0xeeeeeeeeeeeeeeeeeeeeeeeeeeeeeeeeeeeeeeee",
                "decimals": 18
            }
        ]
    },
    "address_label": {
        "labels": [
            {
                "address": "0xeeeeeeeeeeeeeeeeeeeeeeeeeeeeeeeeeeeeeeee",
                "label": "Ether"
            },
            {
                "address": "0x8979a3ef9d540480342ac0f56e9d4c88807b1cba",
                "label": "Uniswap V2: REPv2"
            },
            {
                "address": "0xc02aaa39b223fe8d0a0e5c4f27ead9083c756cc2",
                "label": "Wrapped Ether (WETH)"
            },
            {
                "address": "0x221657776846890989a759ba2973e427dff5c9bb",
                "label": "Augur: REPv2 Token"
            },
            {
                "address": "0x0000000000000000000000000000000000000001",
                "label": "Precompiled"
            },
            {
                "address": "0x0000000000000000000000000000000000000003",
                "label": "Precompiled"
            },
            {
                "address": "0x23916a8f5c3846e3100e5f587ff14f3098722f5d",
                "label": "Augur"
            },
            {
                "address": "0x7a250d5630b4cf539739df2c5dacb4c659f2488d",
                "label": "Uniswap V2: Router 2"
            },
            {
                "address": "0x49244bd018ca9fd1f06ecc07b9e9de773246e5aa",
                "label": "Universe"
            },
            {
                "address": "0x0000000000000000000000000000000000000002",
                "label": "Precompiled"
            },
            {
                "address": "0x0000000000000000000000000000000000000004",
                "label": "Precompiled"
            }
        ]
    },
    "trace": {
        "accountLabels": null,
        "dataMap": {
            "-1": {
                "invocation": {
                    "address": "0xd9a5c5bde6031f84422fbe53409804c403e1b1af",
                    "callData": "",
                    "decodedMethod": null,
                    "errorInfo": "",
                    "fromAddress": "",
                    "gasUsed": 0,
                    "id": -1,
                    "methodDecoded": false,
                    "operation": "",
                    "output": "",
                    "revert": false,
                    "revertMessage": "",
                    "selector": "",
                    "status": false,
                    "value": ""
                },
                "nodeType": 0
            },
            "0": {
                "invocation": {
                    "address": "0x7a250d5630b4cf539739df2c5dacb4c659f2488d",
                    "callData": "0x00000000000000000000000000000000000000000000000ad78ebc5ac62000000000000000000000000000000000000000000000000000000b509b55c14cf5e800000000000000000000000000000000000000000000000000000000000000a0000000000000000000000000d9a5c5bde6031f84422fbe53409804c403e1b1af0000000000000000000000000000000000000000000000000000000061ae9a920000000000000000000000000000000000000000000000000000000000000002000000000000000000000000221657776846890989a759ba2973e427dff5c9bb000000000000000000000000c02aaa39b223fe8d0a0e5c4f27ead9083c756cc2",
                    "decodedMethod": {
                        "callParams": [
                            {
                                "name": "amountIn",
                                "type": "uint256",
                                "value": "200,000,000,000,000,000,000"
                            },
                            {
                                "name": "amountOutMin",
                                "type": "uint256",
                                "value": "815,322,325,171,631,592"
                            },
                            {
                                "name": "path",
                                "type": "address[]",
                                "value": [
                                    "0x221657776846890989a759ba2973e427dff5c9bb",
                                    "0xc02aaa39b223fe8d0a0e5c4f27ead9083c756cc2"
                                ]
                            },
                            {
                                "name": "to",
                                "type": "address",
                                "value": "0xd9a5c5bde6031f84422fbe53409804c403e1b1af"
                            },
                            {
                                "name": "deadline",
                                "type": "uint256",
                                "value": "1,638,832,786"
                            }
                        ],
                        "constructorArguments": "",
                        "name": "swapExactTokensForETH",
                        "returnParams": [
                            {
                                "name": "amounts",
                                "type": "uint256[]",
                                "value": [
                                    "200,000,000,000,000,000,000",
                                    "835,511,707,161,565,124"
                                ]
                            }
                        ],
                        "signature": "swapExactTokensForETH(uint256,uint256,address[],address,uint256)"
                    },
                    "errorInfo": "",
                    "fromAddress": "0xd9a5c5bde6031f84422fbe53409804c403e1b1af",
                    "gasUsed": 138449,
                    "id": 0,
                    "methodDecoded": true,
                    "operation": "CALL",
                    "output": "0x0000000000000000000000000000000000000000000000000000000000000020000000000000000000000000000000000000000000000000000000000000000200000000000000000000000000000000000000000000000ad78ebc5ac62000000000000000000000000000000000000000000000000000000b9855788f0b97c4",
                    "revert": false,
                    "revertMessage": "",
                    "selector": "0x18cbafe5",
                    "status": true,
                    "value": "0"
                },
                "nodeType": 0
            },
            "1": {
                "invocation": {
                    "address": "0x8979a3ef9d540480342ac0f56e9d4c88807b1cba",
                    "callData": "0x",
                    "decodedMethod": {
                        "callParams": [],
                        "constructorArguments": "",
                        "name": "getReserves",
                        "returnParams": [
                            {
                                "name": "_reserve0",
                                "type": "uint112",
                                "value": "20,161,558,386,838,129,284,021"
                            },
                            {
                                "name": "_reserve1",
                                "type": "uint112",
                                "value": "85,315,040,628,047,705,666"
                            },
                            {
                                "name": "_blockTimestampLast",
                                "type": "uint32",
                                "value": "1,638,830,231"
                            }
                        ],
                        "signature": "getReserves()"
                    },
                    "errorInfo": "",
                    "fromAddress": "0x7a250d5630b4cf539739df2c5dacb4c659f2488d",
                    "gasUsed": 2504,
                    "id": 1,
                    "methodDecoded": true,
                    "operation": "STATICCALL",
                    "output": "0x000000000000000000000000000000000000000000000444f5d44450985713b50000000000000000000000000000000000000000000000049ffbe96ec8cd76420000000000000000000000000000000000000000000000000000000061ae9097",
                    "revert": false,
                    "revertMessage": "",
                    "selector": "0x0902f1ac",
                    "status": true,
                    "value": "0"
                },
                "nodeType": 0
            },
            "10": {
                "invocation": {
                    "address": "0x8979a3ef9d540480342ac0f56e9d4c88807b1cba",
                    "callData": "0x00000000000000000000000000000000000000000000000000000000000000000000000000000000000000000000000000000000000000000b9855788f0b97c40000000000000000000000007a250d5630b4cf539739df2c5dacb4c659f2488d00000000000000000000000000000000000000000000000000000000000000800000000000000000000000000000000000000000000000000000000000000000",
                    "decodedMethod": {
                        "callParams": [
                            {
                                "name": "amount0Out",
                                "type": "uint256",
                                "value": "0"
                            },
                            {
                                "name": "amount1Out",
                                "type": "uint256",
                                "value": "835,511,707,161,565,124"
                            },
                            {
                                "name": "to",
                                "type": "address",
                                "value": "0x7a250d5630b4cf539739df2c5dacb4c659f2488d"
                            },
                            {
                                "name": "data",
                                "type": "bytes",
                                "value": "0x"
                            }
                        ],
                        "constructorArguments": "",
                        "name": "swap",
                        "returnParams": [],
                        "signature": "swap(uint256,uint256,address,bytes)"
                    },
                    "errorInfo": "",
                    "fromAddress": "0x7a250d5630b4cf539739df2c5dacb4c659f2488d",
                    "gasUsed": 64828,
                    "id": 10,
                    "methodDecoded": true,
                    "operation": "CALL",
                    "output": "",
                    "revert": false,
                    "revertMessage": "",
                    "selector": "0x022c0d9f",
                    "status": true,
                    "value": "0"
                },
                "nodeType": 0
            },
            "11": {
                "invocation": {
                    "address": "0xc02aaa39b223fe8d0a0e5c4f27ead9083c756cc2",
                    "callData": "0x0000000000000000000000007a250d5630b4cf539739df2c5dacb4c659f2488d0000000000000000000000000000000000000000000000000b9855788f0b97c4",
                    "decodedMethod": {
                        "callParams": [
                            {
                                "name": "dst",
                                "type": "address",
                                "value": "0x7a250d5630b4cf539739df2c5dacb4c659f2488d"
                            },
                            {
                                "decimalAvailable": true,
                                "name": "wad",
                                "type": "uint256",
                                "value": "835,511,707,161,565,124"
                            }
                        ],
                        "constructorArguments": "",
                        "name": "transfer",
                        "returnParams": [
                            {
                                "name": "",
                                "type": "bool",
                                "value": true
                            }
                        ],
                        "signature": "transfer(address,uint256)"
                    },
                    "errorInfo": "",
                    "fromAddress": "0x8979a3ef9d540480342ac0f56e9d4c88807b1cba",
                    "gasUsed": 29962,
                    "id": 11,
                    "methodDecoded": true,
                    "operation": "CALL",
                    "output": "0x0000000000000000000000000000000000000000000000000000000000000001",
                    "revert": false,
                    "revertMessage": "",
                    "selector": "0xa9059cbb",
                    "status": true,
                    "value": "0"
                },
                "nodeType": 0
            },
            "12": {
                "event": {
                    "contract": "0xc02aaa39b223fe8d0a0e5c4f27ead9083c756cc2",
                    "decodedLog": {
                        "name": "Transfer",
                        "params": [
                            {
                                "name": "src",
                                "type": "address",
                                "value": "0x8979a3ef9d540480342ac0f56e9d4c88807b1cba"
                            },
                            {
                                "name": "dst",
                                "type": "address",
                                "value": "0x7a250d5630b4cf539739df2c5dacb4c659f2488d"
                            },
                            {
                                "decimalAvailable": true,
                                "name": "wad",
                                "type": "uint256",
                                "value": "835,511,707,161,565,124"
                            }
                        ],
                        "signature": "Transfer(address,address,uint256)"
                    },
                    "id": 12,
                    "logData": "0x0000000000000000000000000000000000000000000000000b9855788f0b97c4",
                    "logDecoded": true,
                    "operation": "EVENT",
                    "revert": false,
                    "status": true,
                    "topics": [
                        "0xddf252ad1be2c89b69c2b068fc378daa952ba7f163c4a11628f55a4df523b3ef",
                        "0x0000000000000000000000008979a3ef9d540480342ac0f56e9d4c88807b1cba",
                        "0x0000000000000000000000007a250d5630b4cf539739df2c5dacb4c659f2488d"
                    ]
                },
                "nodeType": 1
            },
            "13": {
                "invocation": {
                    "address": "0x221657776846890989a759ba2973e427dff5c9bb",
                    "callData": "0x0000000000000000000000008979a3ef9d540480342ac0f56e9d4c88807b1cba",
                    "decodedMethod": {
                        "callParams": [
                            {
                                "name": "_account",
                                "type": "address",
                                "value": "0x8979a3ef9d540480342ac0f56e9d4c88807b1cba"
                            }
                        ],
                        "constructorArguments": "",
                        "name": "balanceOf",
                        "returnParams": [
                            {
                                "decimalAvailable": true,
                                "name": "",
                                "type": "uint256",
                                "value": "20,361,558,386,838,129,284,021"
                            }
                        ],
                        "signature": "balanceOf(address)"
                    },
                    "errorInfo": "",
                    "fromAddress": "0x8979a3ef9d540480342ac0f56e9d4c88807b1cba",
                    "gasUsed": 509,
                    "id": 13,
                    "methodDecoded": true,
                    "operation": "STATICCALL",
                    "output": "0x00000000000000000000000000000000000000000000044fcd6300ab5e7713b5",
                    "revert": false,
                    "revertMessage": "",
                    "selector": "0x70a08231",
                    "status": true,
                    "value": "0"
                },
                "nodeType": 0
            },
            "14": {
                "invocation": {
                    "address": "0xc02aaa39b223fe8d0a0e5c4f27ead9083c756cc2",
                    "callData": "0x0000000000000000000000008979a3ef9d540480342ac0f56e9d4c88807b1cba",
                    "decodedMethod": {
                        "callParams": [
                            {
                                "name": "",
                                "type": "address",
                                "value": "0x8979a3ef9d540480342ac0f56e9d4c88807b1cba"
                            }
                        ],
                        "constructorArguments": "",
                        "name": "balanceOf",
                        "returnParams": [
                            {
                                "decimalAvailable": true,
                                "name": "",
                                "type": "uint256",
                                "value": "84,479,528,920,886,140,542"
                            }
                        ],
                        "signature": "balanceOf(address)"
                    },
                    "errorInfo": "",
                    "fromAddress": "0x8979a3ef9d540480342ac0f56e9d4c88807b1cba",
                    "gasUsed": 534,
                    "id": 14,
                    "methodDecoded": true,
                    "operation": "STATICCALL",
                    "output": "0x000000000000000000000000000000000000000000000004946393f639c1de7e",
                    "revert": false,
                    "revertMessage": "",
                    "selector": "0x70a08231",
                    "status": true,
                    "value": "0"
                },
                "nodeType": 0
            },
            "15": {
                "event": {
                    "contract": "0x8979a3ef9d540480342ac0f56e9d4c88807b1cba",
                    "decodedLog": {
                        "name": "Sync",
                        "params": [
                            {
                                "name": "reserve0",
                                "type": "uint112",
                                "value": "20,361,558,386,838,129,284,021"
                            },
                            {
                                "name": "reserve1",
                                "type": "uint112",
                                "value": "84,479,528,920,886,140,542"
                            }
                        ],
                        "signature": "Sync(uint112,uint112)"
                    },
                    "id": 15,
                    "logData": "0x00000000000000000000000000000000000000000000044fcd6300ab5e7713b5000000000000000000000000000000000000000000000004946393f639c1de7e",
                    "logDecoded": true,
                    "operation": "EVENT",
                    "revert": false,
                    "status": true,
                    "topics": [
                        "0x1c411e9a96e071241c2f21f7726b17ae89e3cab4c78be50e062b03a9fffbbad1"
                    ]
                },
                "nodeType": 1
            },
            "16": {
                "event": {
                    "contract": "0x8979a3ef9d540480342ac0f56e9d4c88807b1cba",
                    "decodedLog": {
                        "name": "Swap",
                        "params": [
                            {
                                "name": "sender",
                                "type": "address",
                                "value": "0x7a250d5630b4cf539739df2c5dacb4c659f2488d"
                            },
                            {
                                "name": "to",
                                "type": "address",
                                "value": "0x7a250d5630b4cf539739df2c5dacb4c659f2488d"
                            },
                            {
                                "name": "amount0In",
                                "type": "uint256",
                                "value": "200,000,000,000,000,000,000"
                            },
                            {
                                "name": "amount1In",
                                "type": "uint256",
                                "value": "0"
                            },
                            {
                                "name": "amount0Out",
                                "type": "uint256",
                                "value": "0"
                            },
                            {
                                "name": "amount1Out",
                                "type": "uint256",
                                "value": "835,511,707,161,565,124"
                            }
                        ],
                        "signature": "Swap(address,uint256,uint256,uint256,uint256,address)"
                    },
                    "id": 16,
                    "logData": "0x00000000000000000000000000000000000000000000000ad78ebc5ac6200000000000000000000000000000000000000000000000000000000000000000000000000000000000000000000000000000000000000000000000000000000000000000000000000000000000000000000000000000000000000b9855788f0b97c4",
                    "logDecoded": true,
                    "operation": "EVENT",
                    "revert": false,
                    "status": true,
                    "topics": [
                        "0xd78ad95fa46c994b6551d0da85fc275fe613ce37657fb8d5e3d130840159d822",
                        "0x0000000000000000000000007a250d5630b4cf539739df2c5dacb4c659f2488d",
                        "0x0000000000000000000000007a250d5630b4cf539739df2c5dacb4c659f2488d"
                    ]
                },
                "nodeType": 1
            },
            "17": {
                "invocation": {
                    "address": "0xc02aaa39b223fe8d0a0e5c4f27ead9083c756cc2",
                    "callData": "0x0000000000000000000000000000000000000000000000000b9855788f0b97c4",
                    "decodedMethod": {
                        "callParams": [
                            {
                                "name": "wad",
                                "type": "uint256",
                                "value": "835,511,707,161,565,124"
                            }
                        ],
                        "constructorArguments": "",
                        "name": "withdraw",
                        "returnParams": [],
                        "signature": "withdraw(uint256)"
                    },
                    "errorInfo": "",
                    "fromAddress": "0x7a250d5630b4cf539739df2c5dacb4c659f2488d",
                    "gasUsed": 9223,
                    "id": 17,
                    "methodDecoded": true,
                    "operation": "CALL",
                    "output": "",
                    "revert": false,
                    "revertMessage": "",
                    "selector": "0x2e1a7d4d",
                    "status": true,
                    "value": "0"
                },
                "nodeType": 0
            },
            "18": {
                "invocation": {
                    "address": "0x7a250d5630b4cf539739df2c5dacb4c659f2488d",
                    "callData": "0x",
                    "decodedMethod": null,
                    "errorInfo": "",
                    "fromAddress": "0xc02aaa39b223fe8d0a0e5c4f27ead9083c756cc2",
                    "gasUsed": 83,
                    "id": 18,
                    "methodDecoded": false,
                    "operation": "CALL",
                    "output": "",
                    "revert": false,
                    "revertMessage": "",
                    "selector": "fallback",
                    "status": true,
                    "value": "0.835511707161565124"
                },
                "nodeType": 0
            },
            "19": {
                "event": {
                    "contract": "0xc02aaa39b223fe8d0a0e5c4f27ead9083c756cc2",
                    "decodedLog": {
                        "name": "Withdrawal",
                        "params": [
                            {
                                "name": "src",
                                "type": "address",
                                "value": "0x7a250d5630b4cf539739df2c5dacb4c659f2488d"
                            },
                            {
                                "name": "wad",
                                "type": "uint256",
                                "value": "835,511,707,161,565,124"
                            }
                        ],
                        "signature": "Withdrawal(address,uint256)"
                    },
                    "id": 19,
                    "logData": "0x0000000000000000000000000000000000000000000000000b9855788f0b97c4",
                    "logDecoded": true,
                    "operation": "EVENT",
                    "revert": false,
                    "status": true,
                    "topics": [
                        "0x7fcf532c15f0a6db0bd6d0e038bea71d30d808c7d98cb3bf7268a95bf5081b65",
                        "0x0000000000000000000000007a250d5630b4cf539739df2c5dacb4c659f2488d"
                    ]
                },
                "nodeType": 1
            },
            "2": {
                "invocation": {
                    "address": "0x221657776846890989a759ba2973e427dff5c9bb",
                    "callData": "0x000000000000000000000000d9a5c5bde6031f84422fbe53409804c403e1b1af0000000000000000000000008979a3ef9d540480342ac0f56e9d4c88807b1cba00000000000000000000000000000000000000000000000ad78ebc5ac6200000",
                    "decodedMethod": {
                        "callParams": [
                            {
                                "name": "_sender",
                                "type": "address",
                                "value": "0xd9a5c5bde6031f84422fbe53409804c403e1b1af"
                            },
                            {
                                "name": "_recipient",
                                "type": "address",
                                "value": "0x8979a3ef9d540480342ac0f56e9d4c88807b1cba"
                            },
                            {
                                "decimalAvailable": true,
                                "name": "_amount",
                                "type": "uint256",
                                "value": "200,000,000,000,000,000,000"
                            }
                        ],
                        "constructorArguments": "",
                        "name": "transferFrom",
                        "returnParams": [
                            {
                                "name": "",
                                "type": "bool",
                                "value": true
                            }
                        ],
                        "signature": "transferFrom(address,address,uint256)"
                    },
                    "errorInfo": "",
                    "fromAddress": "0x7a250d5630b4cf539739df2c5dacb4c659f2488d",
                    "gasUsed": 45809,
                    "id": 2,
                    "methodDecoded": true,
                    "operation": "CALL",
                    "output": "0x0000000000000000000000000000000000000000000000000000000000000001",
                    "revert": false,
                    "revertMessage": "",
                    "selector": "0x23b872dd",
                    "status": true,
                    "value": "0"
                },
                "nodeType": 0
            },
            "20": {
                "invocation": {
                    "address": "0xd9a5c5bde6031f84422fbe53409804c403e1b1af",
                    "callData": "0x",
                    "decodedMethod": null,
                    "errorInfo": "",
                    "fromAddress": "0x7a250d5630b4cf539739df2c5dacb4c659f2488d",
                    "gasUsed": 0,
                    "id": 20,
                    "methodDecoded": false,
                    "operation": "CALL",
                    "output": "",
                    "revert": false,
                    "revertMessage": "",
                    "selector": "fallback",
                    "status": true,
                    "value": "0.835511707161565124"
                },
                "nodeType": 0
            },
            "3": {
                "event": {
                    "contract": "0x221657776846890989a759ba2973e427dff5c9bb",
                    "decodedLog": {
                        "name": "Transfer",
                        "params": [
                            {
                                "name": "from",
                                "type": "address",
                                "value": "0xd9a5c5bde6031f84422fbe53409804c403e1b1af"
                            },
                            {
                                "name": "to",
                                "type": "address",
                                "value": "0x8979a3ef9d540480342ac0f56e9d4c88807b1cba"
                            },
                            {
                                "decimalAvailable": true,
                                "name": "value",
                                "type": "uint256",
                                "value": "200,000,000,000,000,000,000"
                            }
                        ],
                        "signature": "Transfer(address,address,uint256)"
                    },
                    "id": 3,
                    "logData": "0x00000000000000000000000000000000000000000000000ad78ebc5ac6200000",
                    "logDecoded": true,
                    "operation": "EVENT",
                    "revert": false,
                    "status": true,
                    "topics": [
                        "0xddf252ad1be2c89b69c2b068fc378daa952ba7f163c4a11628f55a4df523b3ef",
                        "0x000000000000000000000000d9a5c5bde6031f84422fbe53409804c403e1b1af",
                        "0x0000000000000000000000008979a3ef9d540480342ac0f56e9d4c88807b1cba"
                    ]
                },
                "nodeType": 1
            },
            "4": {
                "invocation": {
                    "address": "0x23916a8f5c3846e3100e5f587ff14f3098722f5d",
                    "callData": "0x00000000000000000000000049244bd018ca9fd1f06ecc07b9e9de773246e5aa000000000000000000000000d9a5c5bde6031f84422fbe53409804c403e1b1af0000000000000000000000008979a3ef9d540480342ac0f56e9d4c88807b1cba00000000000000000000000000000000000000000000000ad78ebc5ac6200000000000000000000000000000000000000000000000000000000000000000000000000000000000000000000000000000000000000000044fcd6300ab5e7713b5",
                    "decodedMethod": {
                        "callParams": [
                            {
                                "name": "_universe",
                                "type": "address",
                                "value": "0x49244bd018ca9fd1f06ecc07b9e9de773246e5aa"
                            },
                            {
                                "name": "_from",
                                "type": "address",
                                "value": "0xd9a5c5bde6031f84422fbe53409804c403e1b1af"
                            },
                            {
                                "name": "_to",
                                "type": "address",
                                "value": "0x8979a3ef9d540480342ac0f56e9d4c88807b1cba"
                            },
                            {
                                "name": "_value",
                                "type": "uint256",
                                "value": "200,000,000,000,000,000,000"
                            },
                            {
                                "name": "_fromBalance",
                                "type": "uint256",
                                "value": "0"
                            },
                            {
                                "name": "_toBalance",
                                "type": "uint256",
                                "value": "20,361,558,386,838,129,284,021"
                            }
                        ],
                        "constructorArguments": "",
                        "name": "logReputationTokensTransferred",
                        "returnParams": [
                            {
                                "name": "",
                                "type": "bool",
                                "value": true
                            }
                        ],
                        "signature": "logReputationTokensTransferred(address,address,address,uint256,uint256,uint256)"
                    },
                    "errorInfo": "",
                    "fromAddress": "0x221657776846890989a759ba2973e427dff5c9bb",
                    "gasUsed": 17976,
                    "id": 4,
                    "methodDecoded": true,
                    "operation": "CALL",
                    "output": "0x0000000000000000000000000000000000000000000000000000000000000001",
                    "revert": false,
                    "revertMessage": "",
                    "selector": "0xe1c678fe",
                    "status": true,
                    "value": "0"
                },
                "nodeType": 0
            },
            "5": {
                "invocation": {
                    "address": "0x49244bd018ca9fd1f06ecc07b9e9de773246e5aa",
                    "callData": "0x",
                    "decodedMethod": {
                        "callParams": [],
                        "constructorArguments": "",
                        "name": "getReputationToken",
                        "returnParams": [
                            {
                                "name": "",
                                "type": "address",
                                "value": "0x221657776846890989a759ba2973e427dff5c9bb"
                            }
                        ],
                        "signature": "getReputationToken()"
                    },
                    "errorInfo": "",
                    "fromAddress": "0x23916a8f5c3846e3100e5f587ff14f3098722f5d",
                    "gasUsed": 2426,
                    "id": 5,
                    "methodDecoded": true,
                    "operation": "STATICCALL",
                    "output": "0x000000000000000000000000221657776846890989a759ba2973e427dff5c9bb",
                    "revert": false,
                    "revertMessage": "",
                    "selector": "0xb80907f2",
                    "status": true,
                    "value": "0"
                },
                "nodeType": 0
            },
            "6": {
                "event": {
                    "contract": "0x23916a8f5c3846e3100e5f587ff14f3098722f5d",
                    "decodedLog": {
                        "name": "TokensTransferred",
                        "params": [
                            {
                                "name": "universe",
                                "type": "address",
                                "value": "0x49244bd018ca9fd1f06ecc07b9e9de773246e5aa"
                            },
                            {
                                "name": "from",
                                "type": "address",
                                "value": "0xd9a5c5bde6031f84422fbe53409804c403e1b1af"
                            },
                            {
                                "name": "to",
                                "type": "address",
                                "value": "0x8979a3ef9d540480342ac0f56e9d4c88807b1cba"
                            },
                            {
                                "name": "token",
                                "type": "address",
                                "value": "0x221657776846890989a759ba2973e427dff5c9bb"
                            },
                            {
                                "name": "value",
                                "type": "uint256",
                                "value": "200,000,000,000,000,000,000"
                            },
                            {
                                "name": "tokenType",
                                "type": "uint8",
                                "value": "0"
                            },
                            {
                                "name": "market",
                                "type": "address",
                                "value": "0x0000000000000000000000000000000000000000"
                            }
                        ],
                        "signature": "TokensTransferred(address,address,address,address,uint256,uint8,address)"
                    },
                    "id": 6,
                    "logData": "0x000000000000000000000000221657776846890989a759ba2973e427dff5c9bb00000000000000000000000000000000000000000000000ad78ebc5ac620000000000000000000000000000000000000000000000000000000000000000000000000000000000000000000000000000000000000000000000000000000000000",
                    "logDecoded": true,
                    "operation": "EVENT",
                    "revert": false,
                    "status": true,
                    "topics": [
                        "0x3c67396e9c55d2fc8ad68875fc5beca1d96ad2a2f23b210ccc1d986551ab6fdf",
                        "0x00000000000000000000000049244bd018ca9fd1f06ecc07b9e9de773246e5aa",
                        "0x000000000000000000000000d9a5c5bde6031f84422fbe53409804c403e1b1af",
                        "0x0000000000000000000000008979a3ef9d540480342ac0f56e9d4c88807b1cba"
                    ]
                },
                "nodeType": 1
            },
            "7": {
                "event": {
                    "contract": "0x23916a8f5c3846e3100e5f587ff14f3098722f5d",
                    "decodedLog": {
                        "name": "TokenBalanceChanged",
                        "params": [
                            {
                                "name": "universe",
                                "type": "address",
                                "value": "0x49244bd018ca9fd1f06ecc07b9e9de773246e5aa"
                            },
                            {
                                "name": "owner",
                                "type": "address",
                                "value": "0xd9a5c5bde6031f84422fbe53409804c403e1b1af"
                            },
                            {
                                "name": "token",
                                "type": "address",
                                "value": "0x221657776846890989a759ba2973e427dff5c9bb"
                            },
                            {
                                "name": "tokenType",
                                "type": "uint8",
                                "value": "0"
                            },
                            {
                                "name": "market",
                                "type": "address",
                                "value": "0x0000000000000000000000000000000000000000"
                            },
                            {
                                "name": "balance",
                                "type": "uint256",
                                "value": "0"
                            },
                            {
                                "name": "outcome",
                                "type": "uint256",
                                "value": "0"
                            }
                        ],
                        "signature": "TokenBalanceChanged(address,address,address,uint8,address,uint256,uint256)"
                    },
                    "id": 7,
                    "logData": "0x000000000000000000000000221657776846890989a759ba2973e427dff5c9bb0000000000000000000000000000000000000000000000000000000000000000000000000000000000000000000000000000000000000000000000000000000000000000000000000000000000000000000000000000000000000000000000000000000000000000000000000000000000000000000000000000000000000000",
                    "logDecoded": true,
                    "operation": "EVENT",
                    "revert": false,
                    "status": true,
                    "topics": [
                        "0x63fd58f559b73fc4da5511c341ec8a7b31c5c48538ef83c6077712b6edf5f7cb",
                        "0x00000000000000000000000049244bd018ca9fd1f06ecc07b9e9de773246e5aa",
                        "0x000000000000000000000000d9a5c5bde6031f84422fbe53409804c403e1b1af"
                    ]
                },
                "nodeType": 1
            },
            "8": {
                "event": {
                    "contract": "0x23916a8f5c3846e3100e5f587ff14f3098722f5d",
                    "decodedLog": {
                        "name": "TokenBalanceChanged",
                        "params": [
                            {
                                "name": "universe",
                                "type": "address",
                                "value": "0x49244bd018ca9fd1f06ecc07b9e9de773246e5aa"
                            },
                            {
                                "name": "owner",
                                "type": "address",
                                "value": "0x8979a3ef9d540480342ac0f56e9d4c88807b1cba"
                            },
                            {
                                "name": "token",
                                "type": "address",
                                "value": "0x221657776846890989a759ba2973e427dff5c9bb"
                            },
                            {
                                "name": "tokenType",
                                "type": "uint8",
                                "value": "0"
                            },
                            {
                                "name": "market",
                                "type": "address",
                                "value": "0x0000000000000000000000000000000000000000"
                            },
                            {
                                "name": "balance",
                                "type": "uint256",
                                "value": "20,361,558,386,838,129,284,021"
                            },
                            {
                                "name": "outcome",
                                "type": "uint256",
                                "value": "0"
                            }
                        ],
                        "signature": "TokenBalanceChanged(address,address,address,uint8,address,uint256,uint256)"
                    },
                    "id": 8,
                    "logData": "0x000000000000000000000000221657776846890989a759ba2973e427dff5c9bb0000000000000000000000000000000000000000000000000000000000000000000000000000000000000000000000000000000000000000000000000000000000000000000000000000000000000000000000000000044fcd6300ab5e7713b50000000000000000000000000000000000000000000000000000000000000000",
                    "logDecoded": true,
                    "operation": "EVENT",
                    "revert": false,
                    "status": true,
                    "topics": [
                        "0x63fd58f559b73fc4da5511c341ec8a7b31c5c48538ef83c6077712b6edf5f7cb",
                        "0x00000000000000000000000049244bd018ca9fd1f06ecc07b9e9de773246e5aa",
                        "0x0000000000000000000000008979a3ef9d540480342ac0f56e9d4c88807b1cba"
                    ]
                },
                "nodeType": 1
            },
            "9": {
                "event": {
                    "contract": "0x221657776846890989a759ba2973e427dff5c9bb",
                    "decodedLog": {
                        "name": "Approval",
                        "params": [
                            {
                                "name": "owner",
                                "type": "address",
                                "value": "0xd9a5c5bde6031f84422fbe53409804c403e1b1af"
                            },
                            {
                                "name": "spender",
                                "type": "address",
                                "value": "0x7a250d5630b4cf539739df2c5dacb4c659f2488d"
                            },
                            {
                                "decimalAvailable": true,
                                "name": "value",
                                "type": "uint256",
                                "value": "115,792,089,237,316,195,423,570,985,008,687,907,853,269,984,665,640,564,006,919,084,007,913,129,639,935"
                            }
                        ],
                        "signature": "Approval(address,address,uint256)"
                    },
                    "id": 9,
                    "logData": "0xfffffffffffffffffffffffffffffffffffffffffffff91c1599f65c9025ffff",
                    "logDecoded": true,
                    "operation": "EVENT",
                    "revert": false,
                    "status": true,
                    "topics": [
                        "0x8c5be1e5ebec7d5bd14f71427d1e84f3dd0314c0f7b2291e5b200ac8c7c3b925",
                        "0x000000000000000000000000d9a5c5bde6031f84422fbe53409804c403e1b1af",
                        "0x0000000000000000000000007a250d5630b4cf539739df2c5dacb4c659f2488d"
                    ]
                },
                "nodeType": 1
            }
        },
        "gasFlame": [
            {
                "children": [
                    {
                        "children": [
                            {
                                "children": [],
                                "depth": 0,
                                "name": "Initial Gas",
                                "value": 23060
                            },
                            {
                                "children": [
                                    {
                                        "children": [],
                                        "depth": 1,
                                        "name": "getReserves",
                                        "value": 2504
                                    },
                                    {
                                        "children": [
                                            {
                                                "children": [
                                                    {
                                                        "children": [],
                                                        "depth": 3,
                                                        "name": "getReputationToken",
                                                        "value": 2426
                                                    }
                                                ],
                                                "depth": 2,
                                                "name": "logReputationTokensTransferred",
                                                "value": 17976
                                            }
                                        ],
                                        "depth": 1,
                                        "name": "transferFrom",
                                        "value": 45809
                                    },
                                    {
                                        "children": [
                                            {
                                                "children": [],
                                                "depth": 2,
                                                "name": "transfer",
                                                "value": 29962
                                            },
                                            {
                                                "children": [],
                                                "depth": 2,
                                                "name": "balanceOf",
                                                "value": 509
                                            },
                                            {
                                                "children": [],
                                                "depth": 2,
                                                "name": "balanceOf",
                                                "value": 534
                                            }
                                        ],
                                        "depth": 1,
                                        "name": "swap",
                                        "value": 64828
                                    },
                                    {
                                        "children": [
                                            {
                                                "children": [],
                                                "depth": 2,
                                                "name": "fallback",
                                                "value": 83
                                            }
                                        ],
                                        "depth": 1,
                                        "name": "withdraw",
                                        "value": 9223
                                    },
                                    {
                                        "children": [],
                                        "depth": 1,
                                        "name": "fallback",
                                        "value": 0
                                    }
                                ],
                                "depth": 0,
                                "name": "Executed Gas",
                                "value": 142889
                            }
                        ],
                        "depth": -1,
                        "name": "Actual Gas Used",
                        "value": 138449
                    },
                    {
                        "children": [],
                        "depth": -1,
                        "name": "Refunded Gas",
                        "value": 27500
                    }
                ],
                "depth": -2,
                "name": "Total Gas",
                "value": 165949
            }
        ],
        "isConfirmed": true,
        "mainTrace": [
            {
                "children": [
                    {
                        "children": [
                            {
                                "children": [],
                                "depth": 1,
                                "id": 1,
                                "order": 1
                            },
                            {
                                "children": [
                                    {
                                        "children": [],
                                        "depth": 2,
                                        "id": 3,
                                        "order": 3
                                    },
                                    {
                                        "children": [
                                            {
                                                "children": [],
                                                "depth": 3,
                                                "id": 5,
                                                "order": 5
                                            },
                                            {
                                                "children": [],
                                                "depth": 3,
                                                "id": 6,
                                                "order": 6
                                            },
                                            {
                                                "children": [],
                                                "depth": 3,
                                                "id": 7,
                                                "order": 7
                                            },
                                            {
                                                "children": [],
                                                "depth": 3,
                                                "id": 8,
                                                "order": 8
                                            }
                                        ],
                                        "depth": 2,
                                        "id": 4,
                                        "order": 4
                                    },
                                    {
                                        "children": [],
                                        "depth": 2,
                                        "id": 9,
                                        "order": 9
                                    }
                                ],
                                "depth": 1,
                                "id": 2,
                                "order": 2
                            },
                            {
                                "children": [
                                    {
                                        "children": [
                                            {
                                                "children": [],
                                                "depth": 3,
                                                "id": 12,
                                                "order": 12
                                            }
                                        ],
                                        "depth": 2,
                                        "id": 11,
                                        "order": 11
                                    },
                                    {
                                        "children": [],
                                        "depth": 2,
                                        "id": 13,
                                        "order": 13
                                    },
                                    {
                                        "children": [],
                                        "depth": 2,
                                        "id": 14,
                                        "order": 14
                                    },
                                    {
                                        "children": [],
                                        "depth": 2,
                                        "id": 15,
                                        "order": 15
                                    },
                                    {
                                        "children": [],
                                        "depth": 2,
                                        "id": 16,
                                        "order": 16
                                    }
                                ],
                                "depth": 1,
                                "id": 10,
                                "order": 10
                            },
                            {
                                "children": [
                                    {
                                        "children": [],
                                        "depth": 2,
                                        "id": 18,
                                        "order": 18
                                    },
                                    {
                                        "children": [],
                                        "depth": 2,
                                        "id": 19,
                                        "order": 19
                                    }
                                ],
                                "depth": 1,
                                "id": 17,
                                "order": 17
                            },
                            {
                                "children": [],
                                "depth": 1,
                                "id": 20,
                                "order": 20
                            }
                        ],
                        "depth": 0,
                        "id": 0,
                        "order": 0
                    }
                ],
                "depth": -1,
                "id": -1,
                "order": -1
            }
        ],
        "mainTraceNodeCount": 21,
        "parentIdMap": {
            "0": -1,
            "1": 0,
            "10": 0,
            "11": 10,
            "12": 11,
            "13": 10,
            "14": 10,
            "15": 10,
            "16": 10,
            "17": 0,
            "18": 17,
            "19": 17,
            "2": 0,
            "20": 0,
            "3": 2,
            "4": 2,
            "5": 4,
            "6": 4,
            "7": 4,
            "8": 4,
            "9": 2
        },
        "tidyTrace": [
            {
                "children": [
                    {
                        "children": [
                            {
                                "children": [
                                    {
                                        "children": [],
                                        "depth": 2,
                                        "id": 3,
                                        "order": 3
                                    },
                                    {
                                        "children": [
                                            {
                                                "children": [],
                                                "depth": 3,
                                                "id": 6,
                                                "order": 6
                                            },
                                            {
                                                "children": [],
                                                "depth": 3,
                                                "id": 7,
                                                "order": 7
                                            },
                                            {
                                                "children": [],
                                                "depth": 3,
                                                "id": 8,
                                                "order": 8
                                            }
                                        ],
                                        "depth": 2,
                                        "id": 4,
                                        "order": 4
                                    },
                                    {
                                        "children": [],
                                        "depth": 2,
                                        "id": 9,
                                        "order": 9
                                    }
                                ],
                                "depth": 1,
                                "id": 2,
                                "order": 2
                            },
                            {
                                "children": [
                                    {
                                        "children": [
                                            {
                                                "children": [],
                                                "depth": 3,
                                                "id": 12,
                                                "order": 12
                                            }
                                        ],
                                        "depth": 2,
                                        "id": 11,
                                        "order": 11
                                    },
                                    {
                                        "children": [],
                                        "depth": 2,
                                        "id": 15,
                                        "order": 15
                                    },
                                    {
                                        "children": [],
                                        "depth": 2,
                                        "id": 16,
                                        "order": 16
                                    }
                                ],
                                "depth": 1,
                                "id": 10,
                                "order": 10
                            },
                            {
                                "children": [
                                    {
                                        "children": [],
                                        "depth": 2,
                                        "id": 18,
                                        "order": 18
                                    },
                                    {
                                        "children": [],
                                        "depth": 2,
                                        "id": 19,
                                        "order": 19
                                    }
                                ],
                                "depth": 1,
                                "id": 17,
                                "order": 17
                            },
                            {
                                "children": [],
                                "depth": 1,
                                "id": 20,
                                "order": 20
                            }
                        ],
                        "depth": 0,
                        "id": 0,
                        "order": 0
                    }
                ],
                "depth": -1,
                "id": -1,
                "order": -1
            }
        ],
        "tidyTraceNodeCount": 17
    },
    "state_change": {
        "stateChanges": [
            {
                "address": "0x221657776846890989a759ba2973e427dff5c9bb",
                "erc": "ERC-20",
                "slots": [
                    {
                        "current": "0xfffffffffffffffffffffffffffffffffffffffffffff91c1599f65c9025ffff",
                        "key": "0xe85a9f725d28e46a8788fd469b07554c411b5750f789d7a2a7f19497f4f1735b",
                        "prev": "0xfffffffffffffffffffffffffffffffffffffffffffff926ed28b2b75645ffff"
                    },
                    {
                        "current": "0x0000000000000000000000000000000000000000000000000000000000000000",
                        "key": "0x3ae75e018eb75b567be2a983b55ee8e690959744bd2bf10061b99ff74388080b",
                        "prev": "0x00000000000000000000000000000000000000000000000ad78ebc5ac6200000"
                    },
                    {
                        "current": "0x00000000000000000000000000000000000000000000044fcd6300ab5e7713b5",
                        "key": "0xe8f279b05ce48c2e8034ce3b1ce45d1a9ae1b39e411d90216ba47bac0e413aaf",
                        "prev": "0x000000000000000000000000000000000000000000000444f5d44450985713b5"
                    }
                ],
                "storageVariables": [
                    {
                        "name": "allowances",
                        "type": "mapping(address => mapping(address => uint256))",
                        "value": {
                            "pairs": [
                                {
                                    "key": "0xd9a5c5bde6031f84422fbe53409804c403e1b1af",
                                    "value": {
                                        "pairs": [
                                            {
                                                "key": "0x7a250d5630b4cf539739df2c5dacb4c659f2488d",
                                                "value": {
                                                    "current": "115792089237316195423570985008687907853269984665640564006919084007913129639935",
                                                    "prev": "115792089237316195423570985008687907853269984665640564007119084007913129639935",
                                                    "typeTag": 1
                                                }
                                            }
                                        ],
                                        "typeTag": 4
                                    }
                                }
                            ],
                            "typeTag": 4
                        }
                    },
                    {
                        "name": "balances",
                        "type": "mapping(address => uint256)",
                        "value": {
                            "pairs": [
                                {
                                    "key": "0x8979a3ef9d540480342ac0f56e9d4c88807b1cba",
                                    "value": {
                                        "current": "20361558386838129284021",
                                        "prev": "20161558386838129284021",
                                        "typeTag": 1
                                    }
                                },
                                {
                                    "key": "0xd9a5c5bde6031f84422fbe53409804c403e1b1af",
                                    "value": {
                                        "current": "0",
                                        "prev": "200000000000000000000",
                                        "typeTag": 1
                                    }
                                }
                            ],
                            "typeTag": 4
                        }
                    }
                ]
            },
            {
                "address": "0x8979a3ef9d540480342ac0f56e9d4c88807b1cba",
                "erc": "ERC-20",
                "slots": [
                    {
                        "current": "0x0000000000000000000000000000000cb4bdb22fb0a0d25d045381e2945acfad",
                        "key": "0x0000000000000000000000000000000000000000000000000000000000000009",
                        "prev": "0x0000000000000000000000000000000cb4b3623a78b6070bce589c2887f33a9f"
                    },
                    {
                        "current": "0x0000000000000000000000000000d466e5bb73a19ad56ff58ed3e70758b6cefd",
                        "key": "0x000000000000000000000000000000000000000000000000000000000000000a",
                        "prev": "0x0000000000000000000000000000d45e1c163d73e145265d6634ea2fdc28d163"
                    },
                    {
                        "current": "0x61ae9a1c000000000004946393f639c1de7e00000000044fcd6300ab5e7713b5",
                        "key": "0x0000000000000000000000000000000000000000000000000000000000000008",
                        "prev": "0x61ae90970000000000049ffbe96ec8cd7642000000000444f5d44450985713b5"
                    }
                ],
                "storageVariables": [
                    {
                        "name": "price0CumulativeLast",
                        "type": "uint256",
                        "value": {
                            "current": "4323634400446106372545247563198565633965",
                            "prev": "4323580855738956995471800287653535103647",
                            "typeTag": 1
                        }
                    },
                    {
                        "name": "price1CumulativeLast",
                        "type": "uint256",
                        "value": {
                            "current": "18502818785474936061411355557397856465112829",
                            "prev": "18499828493884561312296629530954717131755875",
                            "typeTag": 1
                        }
                    },
                    {
                        "name": "reserve0",
                        "type": "uint112",
                        "value": {
                            "current": "20361558386838129284021",
                            "prev": "20161558386838129284021",
                            "typeTag": 1
                        }
                    },
                    {
                        "name": "reserve1",
                        "type": "uint112",
                        "value": {
                            "current": "84479528920886140542",
                            "prev": "85315040628047705666",
                            "typeTag": 1
                        }
                    },
                    {
                        "name": "blockTimestampLast",
                        "type": "uint32",
                        "value": {
                            "current": "1638832668",
                            "prev": "1638830231",
                            "typeTag": 1
                        }
                    }
                ]
            },
            {
                "address": "0xc02aaa39b223fe8d0a0e5c4f27ead9083c756cc2",
                "erc": "ERC-20",
                "slots": [
                    {
                        "current": "0x000000000000000000000000000000000000000000000004946393f639c1de7e",
                        "key": "0xe5e1a0c3c9f47efa9491a066345066c8d4f37b8c0f9b77d6a1fee2be7de9f21e",
                        "prev": "0x0000000000000000000000000000000000000000000000049ffbe96ec8cd7642"
                    }
                ],
                "storageVariables": [
                    {
                        "name": "balanceOf",
                        "type": "mapping(address => uint256)",
                        "value": {
                            "pairs": [
                                {
                                    "key": "0x8979a3ef9d540480342ac0f56e9d4c88807b1cba",
                                    "value": {
                                        "current": "84479528920886140542",
                                        "prev": "85315040628047705666",
                                        "typeTag": 1
                                    }
                                }
                            ],
                            "typeTag": 4
                        }
                    }
                ]
            }
        ]
    }
}