{
    "balance_change": {
        "balanceChanges": [
            {
                "account": "0x37ad81d388c17c1a0e23617e513ff71ec230a70e",
                "assets": [
                    {
                        "address": "0x70447f1579ec2d6007f99753427794a466c16f4d",
                        "amount": "42.1689",
                        "iconUrl": "",
                        "isERC1155": false,
                        "isERC721": false,
                        "sign": false,
                        "value": ""
                    }
                ]
            },
            {
                "account": "0xdf41dff7024149038d9f4cb492f7ae488d276b50",
                "assets": [
                    {
                        "address": "0x70447f1579ec2d6007f99753427794a466c16f4d",
                        "amount": "42.1689",
                        "iconUrl": "",
                        "isERC1155": false,
                        "isERC721": false,
                        "sign": true,
                        "value": ""
                    }
                ]
            }
        ]
    },
    "profile": {
        "basic_info": {
            "baseFee": "",
            "blockNumber": 9679374,
            "callData": "0xa9059cbb000000000000000000000000df41dff7024149038d9f4cb492f7ae488d276b50000000000000000000000000000000000000000000000002493607212cf84000",
            "debugEnable": true,
            "errorInfo": "",
            "eventCount": 1,
            "feeRecipient": "0xea674fdde714fd979de3edf0f56aa9716b898ec8",
            "formatValue": "0",
            "gasLimit": 63000,
            "gasPrice": "10",
            "gasUsed": 36745,
            "intTxnCount": 0,
            "internalRevert": false,
            "internalRevertMessage": "",
            "isContractCreation": false,
            "isFlashloan": false,
            "maxFee": "",
            "nonce": 18,
            "overwritedBlockNumber": -1,
            "priorityFee": "",
            "receiver": "0x70447f1579ec2d6007f99753427794a466c16f4d",
            "revertMessage": "",
            "sender": "0x37ad81d388c17c1a0e23617e513ff71ec230a70e",
            "simulationEnable": true,
            "sourceTxnHash": "0x571f1736ffae6451ce07c2ac0250465bba59c9ccd145ace78be090ccf7d5fab6",
            "status": true,
            "timestamp": "2020-03-16T00:33:44Z",
            "transactionFee": "0.00036745",
            "txnHash": "0x571f1736ffae6451ce07c2ac0250465bba59c9ccd145ace78be090ccf7d5fab6",
            "txnIndex": 30,
            "type": 0,
            "value": "0"
        },
        "fund_flow": [
            {
                "amount": "42.1689",
                "from": "0x37ad81d388c17c1a0e23617e513ff71ec230a70e",
                "id": 1,
                "isERC1155": false,
                "isERC721": false,
                "isReverted": false,
                "order": 1,
                "to": "0xdf41dff7024149038d9f4cb492f7ae488d276b50",
                "token": "0x70447f1579ec2d6007f99753427794a466c16f4d"
            }
        ],
        "token_infos": [
            {
                "address": "0x70447f1579ec2d6007f99753427794a466c16f4d",
                "decimals": 18
            },
            {
                "address": "0xc02aaa39b223fe8d0a0e5c4f27ead9083c756cc2",
                "decimals": 18
            },
            {
                "address": "0xeeeeeeeeeeeeeeeeeeeeeeeeeeeeeeeeeeeeeeee",
                "decimals": 18
            }
        ]
    },
    "address_label": {
        "labels": [
            {
                "address": "0xeeeeeeeeeeeeeeeeeeeeeeeeeeeeeeeeeeeeeeee",
                "label": "Ether"
            },
            {
                "address": "0x70447f1579ec2d6007f99753427794a466c16f4d",
                "label": "PCP (PCP)"
            },
            {
                "address": "0x0000000000000000000000000000000000000001",
                "label": "Precompiled"
            },
            {
                "address": "0x0000000000000000000000000000000000000002",
                "label": "Precompiled"
            },
            {
                "address": "0x0000000000000000000000000000000000000003",
                "label": "Precompiled"
            },
            {
                "address": "0x0000000000000000000000000000000000000004",
                "label": "Precompiled"
            }
        ]
    },
    "trace": {
        "accountLabels": null,
        "dataMap": {
            "-1": {
                "invocation": {
                    "address": "0x37ad81d388c17c1a0e23617e513ff71ec230a70e",
                    "callData": "",
                    "decodedMethod": null,
                    "errorInfo": "",
                    "fromAddress": "",
                    "gasUsed": 0,
                    "id": -1,
                    "methodDecoded": false,
                    "operation": "",
                    "output": "",
                    "revert": false,
                    "revertMessage": "",
                    "selector": "",
                    "status": false,
                    "value": ""
                },
                "nodeType": 0
            },
            "0": {
                "invocation": {
                    "address": "0x70447f1579ec2d6007f99753427794a466c16f4d",
                    "callData": "0x000000000000000000000000df41dff7024149038d9f4cb492f7ae488d276b50000000000000000000000000000000000000000000000002493607212cf84000",
                    "decodedMethod": {
                        "callParams": [
                            {
                                "name": "_to",
                                "type": "address",
                                "value": "0xdf41dff7024149038d9f4cb492f7ae488d276b50"
                            },
                            {
                                "decimalAvailable": true,
                                "name": "_value",
                                "type": "uint256",
                                "value": "42,168,900,000,000,000,000"
                            }
                        ],
                        "constructorArguments": "",
                        "name": "transfer",
                        "returnParams": [
                            {
                                "name": "success",
                                "type": "bool",
                                "value": true
                            }
                        ],
                        "signature": "transfer(address,uint256)"
                    },
                    "errorInfo": "",
                    "fromAddress": "0x37ad81d388c17c1a0e23617e513ff71ec230a70e",
                    "gasUsed": 36745,
                    "id": 0,
                    "methodDecoded": true,
                    "operation": "CALL",
                    "output": "0x0000000000000000000000000000000000000000000000000000000000000001",
                    "revert": false,
                    "revertMessage": "",
                    "selector": "0xa9059cbb",
                    "status": true,
                    "value": "0"
                },
                "nodeType": 0
            },
            "1": {
                "event": {
                    "contract": "0x70447f1579ec2d6007f99753427794a466c16f4d",
                    "decodedLog": {
                        "name": "Transfer",
                        "params": [
                            {
                                "name": "_from",
                                "type": "address",
                                "value": "0x37ad81d388c17c1a0e23617e513ff71ec230a70e"
                            },
                            {
                                "name": "_to",
                                "type": "address",
                                "value": "0xdf41dff7024149038d9f4cb492f7ae488d276b50"
                            },
                            {
                                "decimalAvailable": true,
                                "name": "_value",
                                "type": "uint256",
                                "value": "42,168,900,000,000,000,000"
                            }
                        ],
                        "signature": "Transfer(address,address,uint256)"
                    },
                    "id": 1,
                    "logData": "0x000000000000000000000000000000000000000000000002493607212cf84000",
                    "logDecoded": true,
                    "operation": "EVENT",
                    "revert": false,
                    "status": true,
                    "topics": [
                        "0xddf252ad1be2c89b69c2b068fc378daa952ba7f163c4a11628f55a4df523b3ef",
                        "0x00000000000000000000000037ad81d388c17c1a0e23617e513ff71ec230a70e",
                        "0x000000000000000000000000df41dff7024149038d9f4cb492f7ae488d276b50"
                    ]
                },
                "nodeType": 1
            }
        },
        "gasFlame": [
            {
                "children": [
                    {
                        "children": [
                            {
                                "children": [],
                                "depth": 0,
                                "name": "Initial Gas",
                                "value": 21656
                            },
                            {
                                "children": [],
                                "depth": 0,
                                "name": "Executed Gas",
                                "value": 15089
                            }
                        ],
                        "depth": -1,
                        "name": "Actual Gas Used",
                        "value": 36745
                    },
                    {
                        "children": [],
                        "depth": -1,
                        "name": "Refunded Gas",
                        "value": 0
                    }
                ],
                "depth": -2,
                "name": "Total Gas",
                "value": 36745
            }
        ],
        "isConfirmed": true,
        "mainTrace": [
            {
                "children": [
                    {
                        "children": [
                            {
                                "children": [],
                                "depth": 1,
                                "id": 1,
                                "order": 1
                            }
                        ],
                        "depth": 0,
                        "id": 0,
                        "order": 0
                    }
                ],
                "depth": -1,
                "id": -1,
                "order": -1
            }
        ],
        "mainTraceNodeCount": 2,
        "parentIdMap": {
            "0": -1,
            "1": 0
        },
        "tidyTrace": [
            {
                "children": [
                    {
                        "children": [
                            {
                                "children": [],
                                "depth": 1,
                                "id": 1,
                                "order": 1
                            }
                        ],
                        "depth": 0,
                        "id": 0,
                        "order": 0
                    }
                ],
                "depth": -1,
                "id": -1,
                "order": -1
            }
        ],
        "tidyTraceNodeCount": 2
    },
    "state_change": {
        "stateChanges": [
            {
                "address": "0x70447f1579ec2d6007f99753427794a466c16f4d",
                "erc": "ERC-20",
                "slots": [
                    {
                        "current": "0x000000000000000000000000000000000000000000000000000009184e72a000",
                        "key": "0x8bcea2f8df538962f45cdd8bf71a586dcdd82b6a095fd0e632765e19087868f9",
                        "prev": "0x000000000000000000000000000000000000000000000002493610397b6ae000"
                    },
                    {
                        "current": "0x00000000000000000000000000000000000000000000008fca40944e9d10097c",
                        "key": "0x65927f19c738812e8d1d63ade96d3874e556c10141b6a92871a2913f7ec36859",
                        "prev": "0x00000000000000000000000000000000000000000000008d810a8d2d7017c97c"
                    }
                ],
                "storageVariables": []
            }
        ]
    }
}