{
    "balance_change": {
        "balanceChanges": [
            {
                "account": "0x0865ef935247eb8cd43d655e7989615d8c61f7c8",
                "assets": [
                    {
                        "address": "0x0000000000a39bb272e79075ade125fd351887ac",
                        "amount": "0.236158910241914616",
                        "iconUrl": "",
                        "isERC1155": false,
                        "isERC721": false,
                        "sign": true,
                        "value": ""
                    }
                ]
            },
            {
                "account": "0x29469395eaf6f95920e59f858042f0e28d98a20b",
                "assets": [
                    {
                        "address": "0x524cab2ec69124574082676e6f654a18df49a048",
                        "amount": "1",
                        "iconUrl": "",
                        "isERC1155": false,
                        "isERC721": true,
                        "sign": false,
                        "tokenID": "1155",
                        "value": ""
                    }
                ]
            },
            {
                "account": "0x5802e0c5e3a0d87f9de0be710add41c54b4f1eb4",
                "assets": [
                    {
                        "address": "0x524cab2ec69124574082676e6f654a18df49a048",
                        "amount": "1",
                        "iconUrl": "",
                        "isERC1155": false,
                        "isERC721": true,
                        "sign": true,
                        "tokenID": "1155",
                        "value": ""
                    },
                    {
                        "address": "0x0000000000a39bb272e79075ade125fd351887ac",
                        "amount": "0.7",
                        "iconUrl": "",
                        "isERC1155": false,
                        "isERC721": false,
                        "sign": false,
                        "value": ""
                    }
                ]
            },
            {
                "account": "0x9c731c50fb63ee893121245b58816e212f64df6e",
                "assets": [
                    {
                        "address": "0x0000000000a39bb272e79075ade125fd351887ac",
                        "amount": "0.463841089758085384",
                        "iconUrl": "",
                        "isERC1155": false,
                        "isERC721": false,
                        "sign": true,
                        "value": ""
                    }
                ]
            }
        ]
    },
    "profile": {
        "basic_info": {
            "baseFee": "7.126865377",
            "blockNumber": 20116266,
            "callData": "0x619a309f0000000000000000000000009c731c50fb63ee893121245b58816e212f64df6e0000000000000000000000000865ef935247eb8cd43d655e7989615d8c61f7c8000000000000000000000000524cab2ec69124574082676e6f654a18df49a0480000000000000000000000000000000000000000000000000000000000000483000000000000000000000000000000000000000000000000066fe5037b42c10800000000000000000000000000000000000000000000000000000000667036c700000000000000000000000000000000000000000000000000000000000000000000000000000000000000000000000000000000000000000000000000000000000000000000000000000000000000000000000000000000000000000000232800000000000000000000000000000000000000000000000000000000000490d600000000000000000000000000000000000000000000000000000000000001600000000000000000000000005802e0c5e3a0d87f9de0be710add41c54b4f1eb4000000000000000000000000524cab2ec69124574082676e6f654a18df49a048ec742f642749f4c894a93a70cbf00009a044ef933c8cdfa8d18de723630b43610000000000000000000000000000000000000000000000000000000000000001000000000000000000000000000000000000000000000000000000006852397600000000000000000000000000000000000000000000000000000000000000000000000000000000000000000000000000000000000000000000000000000000000000000000000000000000000000000000000000000000000000000000000000000000000000000000000000000000be5fd61df39c9ad551d80c5ea465199400000000000000000000000000000000000000000000000000000000000000000000000000000000000000000000000000000000000000000000000000000000000000000000000000000000000000000000000000000000000000000000000100000000000000000000000000000000000000000000000009b6e64a8ec600000000000000000000000000000000000000000000000000000000000000000200000000000000000000000000000000000000000000000000000000000000022000000000000000000000000000000000000000000000000000000000000002a0000000000000000000000000000000000000000000000000000000000000000000000000000000000000000000000000000000000000000000000000000000412905b197de7a70ef7d19adb0eda0c314c671856302445203df97033dc183b2dd5fe0da6b15863e04d4be2698cfdb76e28aa95d9ef5708506b837102398b5085f1b000000000000000000000000000000000000000000000000000000000000000000000000000000000000000000000000000000000000000000000000000059b99c10a0db0c3b91b764f3ce0dba96b37d8c2e0745cea16c276d556bd3fe97aa365ecd500d51dc5bd454c962c1333f6af87b05b8cda290d85022a9ab20f457041b0132f3286af68e5d010513ff70a3aaed9afeb8661116e6ce00000000000000",
            "debugEnable": true,
            "errorInfo": "",
            "eventCount": 8,
            "feeRecipient": "0x388c818ca8b9251b393131c08a736a67ccb19297",
            "formatValue": "0",
            "gasLimit": 243556,
            "gasPrice": "7.226865377",
            "gasUsed": 185869,
            "intTxnCount": 20,
            "internalRevert": false,
            "internalRevertMessage": "",
            "isContractCreation": false,
            "isFlashloan": false,
            "maxFee": "10.028344952",
            "nonce": 118,
            "overwritedBlockNumber": -1,
            "priorityFee": "0.1",
            "receiver": "0x29469395eaf6f95920e59f858042f0e28d98a20b",
            "revertMessage": "",
            "sender": "0x0865ef935247eb8cd43d655e7989615d8c61f7c8",
            "simulationEnable": true,
            "sourceTxnHash": "0x5726595de868b08778a150e4bfadc8255d73667b35097af75ee1fde86399a06c",
            "status": true,
            "timestamp": "2024-06-18T04:27:59Z",
            "transactionFee": "0.001343250240757613",
            "txnHash": "0x5726595de868b08778a150e4bfadc8255d73667b35097af75ee1fde86399a06c",
            "txnIndex": 67,
            "type": 2,
            "value": "0"
        },
        "fund_flow": [
            {
                "amount": "1",
                "from": "0x29469395eaf6f95920e59f858042f0e28d98a20b",
                "id": 1,
                "isERC1155": false,
                "isERC721": true,
                "isReverted": false,
                "order": 1,
                "to": "0x5802e0c5e3a0d87f9de0be710add41c54b4f1eb4",
                "token": "0x524cab2ec69124574082676e6f654a18df49a048",
                "tokenID": "1155"
            },
            {
                "amount": "0.7",
                "from": "0x5802e0c5e3a0d87f9de0be710add41c54b4f1eb4",
                "id": 2,
                "isERC1155": false,
                "isERC721": false,
                "isReverted": false,
                "order": 2,
                "to": "0x29469395eaf6f95920e59f858042f0e28d98a20b",
                "token": "0x0000000000a39bb272e79075ade125fd351887ac"
            },
            {
                "amount": "0.463841089758085384",
                "from": "0x29469395eaf6f95920e59f858042f0e28d98a20b",
                "id": 3,
                "isERC1155": false,
                "isERC721": false,
                "isReverted": false,
                "order": 3,
                "to": "0x9c731c50fb63ee893121245b58816e212f64df6e",
                "token": "0x0000000000a39bb272e79075ade125fd351887ac"
            },
            {
                "amount": "0.236158910241914616",
                "from": "0x29469395eaf6f95920e59f858042f0e28d98a20b",
                "id": 4,
                "isERC1155": false,
                "isERC721": false,
                "isReverted": false,
                "order": 4,
                "to": "0x0865ef935247eb8cd43d655e7989615d8c61f7c8",
                "token": "0x0000000000a39bb272e79075ade125fd351887ac"
            }
        ],
        "token_infos": [
            {
                "address": "0x0000000000a39bb272e79075ade125fd351887ac",
                "decimals": 18
            },
            {
                "address": "0xc02aaa39b223fe8d0a0e5c4f27ead9083c756cc2",
                "decimals": 18
            },
            {
                "address": "0xeeeeeeeeeeeeeeeeeeeeeeeeeeeeeeeeeeeeeeee",
                "decimals": 18
            }
        ]
    },
    "address_label": {
        "labels": [
            {
                "address": "0x0000000000000000000000000000000000000001",
                "label": "Precompiled"
            },
            {
                "address": "0x29469395eaf6f95920e59f858042f0e28d98a20b",
                "label": "Blur: Blend"
            },
            {
                "address": "0xb2ecfe4e4d61f8790bbb9de2d1259b9e2410cea5",
                "label": "Blur.io: Marketplace 3"
            },
            {
                "address": "0x5fa60726e62c50af45ff2f6280c468da438a7837",
                "label": "BlurExchangeV2"
            },
            {
                "address": "0x524cab2ec69124574082676e6f654a18df49a048",
                "label": "LilPudgys: LP Token"
            },
            {
                "address": "0x0000000000000000000000000000000000000000",
                "label": "Null Address"
            },
            {
                "address": "0x01a656024de4b89e2d0198bf4d468e8fd2358b17",
                "label": "Blur Pool"
            },
            {
                "address": "0x0000000000000000000000000000000000000002",
                "label": "Precompiled"
            },
            {
                "address": "0xeeeeeeeeeeeeeeeeeeeeeeeeeeeeeeeeeeeeeeee",
                "label": "Ether"
            },
            {
                "address": "0x5c55cd67a6bd0d4c315b50cb6cd589bfb080017e",
                "label": "Helpers"
            },
            {
                "address": "0xb258ca5559b11cd702f363796522b04d7722ea56",
                "label": "Blend"
            },
            {
                "address": "0x388c818ca8b9251b393131c08a736a67ccb19297",
                "label": "LidoExecutionLayerRewardsVault"
            },
            {
                "address": "0x0000000000000000000000000000000000000003",
                "label": "Precompiled"
            },
            {
                "address": "0x0000000000000000000000000000000000000004",
                "label": "Precompiled"
            },
            {
                "address": "0x0000000000a39bb272e79075ade125fd351887ac",
                "label": "Blur: Bidding"
            },
            {
                "address": "0x2f18f339620a63e43f0839eeb18d7de1e1be4dfb",
                "label": "Delegate"
            }
        ]
    },
    "trace": {
        "accountLabels": null,
        "dataMap": {
            "-1": {
                "invocation": {
                    "address": "0x0865ef935247eb8cd43d655e7989615d8c61f7c8",
                    "callData": "",
                    "decodedMethod": null,
                    "errorInfo": "",
                    "fromAddress": "",
                    "gasUsed": 0,
                    "id": -1,
                    "methodDecoded": false,
                    "operation": "",
                    "output": "",
                    "revert": false,
                    "revertMessage": "",
                    "selector": "",
                    "status": false,
                    "value": ""
                },
                "nodeType": 0
            },
            "0": {
                "invocation": {
                    "address": "0x29469395eaf6f95920e59f858042f0e28d98a20b",
                    "callData": "0x0000000000000000000000009c731c50fb63ee893121245b58816e212f64df6e0000000000000000000000000865ef935247eb8cd43d655e7989615d8c61f7c8000000000000000000000000524cab2ec69124574082676e6f654a18df49a0480000000000000000000000000000000000000000000000000000000000000483000000000000000000000000000000000000000000000000066fe5037b42c10800000000000000000000000000000000000000000000000000000000667036c700000000000000000000000000000000000000000000000000000000000000000000000000000000000000000000000000000000000000000000000000000000000000000000000000000000000000000000000000000000000000000000232800000000000000000000000000000000000000000000000000000000000490d600000000000000000000000000000000000000000000000000000000000001600000000000000000000000005802e0c5e3a0d87f9de0be710add41c54b4f1eb4000000000000000000000000524cab2ec69124574082676e6f654a18df49a048ec742f642749f4c894a93a70cbf00009a044ef933c8cdfa8d18de723630b43610000000000000000000000000000000000000000000000000000000000000001000000000000000000000000000000000000000000000000000000006852397600000000000000000000000000000000000000000000000000000000000000000000000000000000000000000000000000000000000000000000000000000000000000000000000000000000000000000000000000000000000000000000000000000000000000000000000000000000be5fd61df39c9ad551d80c5ea465199400000000000000000000000000000000000000000000000000000000000000000000000000000000000000000000000000000000000000000000000000000000000000000000000000000000000000000000000000000000000000000000000100000000000000000000000000000000000000000000000009b6e64a8ec600000000000000000000000000000000000000000000000000000000000000000200000000000000000000000000000000000000000000000000000000000000022000000000000000000000000000000000000000000000000000000000000002a0000000000000000000000000000000000000000000000000000000000000000000000000000000000000000000000000000000000000000000000000000000412905b197de7a70ef7d19adb0eda0c314c671856302445203df97033dc183b2dd5fe0da6b15863e04d4be2698cfdb76e28aa95d9ef5708506b837102398b5085f1b000000000000000000000000000000000000000000000000000000000000000000000000000000000000000000000000000000000000000000000000000059b99c10a0db0c3b91b764f3ce0dba96b37d8c2e0745cea16c276d556bd3fe97aa365ecd500d51dc5bd454c962c1333f6af87b05b8cda290d85022a9ab20f457041b0132f3286af68e5d010513ff70a3aaed9afeb8661116e6ce00000000000000",
                    "decodedMethod": {
                        "callParams": [
                            {
                                "name": "lien",
                                "type": "(address,address,address,uint256,uint256,uint256,uint256,uint256,uint256)",
                                "value": [
                                    {
                                        "name": "lender",
                                        "type": "address",
                                        "value": "0x9c731c50fb63ee893121245b58816e212f64df6e"
                                    },
                                    {
                                        "name": "borrower",
                                        "type": "address",
                                        "value": "0x0865ef935247eb8cd43d655e7989615d8c61f7c8"
                                    },
                                    {
                                        "name": "collection",
                                        "type": "address",
                                        "value": "0x524cab2ec69124574082676e6f654a18df49a048"
                                    },
                                    {
                                        "name": "tokenId",
                                        "type": "uint256",
                                        "value": "1,155"
                                    },
                                    {
                                        "name": "amount",
                                        "type": "uint256",
                                        "value": "463,841,089,758,085,384"
                                    },
                                    {
                                        "name": "startTime",
                                        "type": "uint256",
                                        "value": "1,718,630,087"
                                    },
                                    {
                                        "name": "rate",
                                        "type": "uint256",
                                        "value": "0"
                                    },
                                    {
                                        "name": "auctionStartBlock",
                                        "type": "uint256",
                                        "value": "0"
                                    },
                                    {
                                        "name": "auctionDuration",
                                        "type": "uint256",
                                        "value": "9,000"
                                    }
                                ]
                            },
                            {
                                "name": "lienId",
                                "type": "uint256",
                                "value": "299,222"
                            },
                            {
                                "name": "execution",
                                "type": "((address,address,bytes32,uint256,uint256,uint8,(address,uint16),uint256),(uint256,uint256,uint256,uint256),bytes32[],bytes,bytes)",
                                "value": [
                                    {
                                        "name": "order",
                                        "type": "(address,address,bytes32,uint256,uint256,uint8,(address,uint16),uint256)",
                                        "value": [
                                            {
                                                "name": "trader",
                                                "type": "address",
                                                "value": "0x5802e0c5e3a0d87f9de0be710add41c54b4f1eb4"
                                            },
                                            {
                                                "name": "collection",
                                                "type": "address",
                                                "value": "0x524cab2ec69124574082676e6f654a18df49a048"
                                            },
                                            {
                                                "name": "listingsRoot",
                                                "type": "bytes32",
                                                "value": "0xec742f642749f4c894a93a70cbf00009a044ef933c8cdfa8d18de723630b4361"
                                            },
                                            {
                                                "name": "numberOfListings",
                                                "type": "uint256",
                                                "value": "1"
                                            },
                                            {
                                                "name": "expirationTime",
                                                "type": "uint256",
                                                "value": "1,750,219,126"
                                            },
                                            {
                                                "name": "assetType",
                                                "type": "uint8",
                                                "value": "0"
                                            },
                                            {
                                                "name": "makerFee",
                                                "type": "(address,uint16)",
                                                "value": [
                                                    {
                                                        "name": "recipient",
                                                        "type": "address",
                                                        "value": "0x0000000000000000000000000000000000000000"
                                                    },
                                                    {
                                                        "name": "rate",
                                                        "type": "uint16",
                                                        "value": "0"
                                                    }
                                                ]
                                            },
                                            {
                                                "name": "salt",
                                                "type": "uint256",
                                                "value": "253,050,930,209,360,899,841,509,314,318,630,721,940"
                                            }
                                        ]
                                    },
                                    {
                                        "name": "listing",
                                        "type": "(uint256,uint256,uint256,uint256)",
                                        "value": [
                                            {
                                                "name": "index",
                                                "type": "uint256",
                                                "value": "0"
                                            },
                                            {
                                                "name": "tokenId",
                                                "type": "uint256",
                                                "value": "0"
                                            },
                                            {
                                                "name": "amount",
                                                "type": "uint256",
                                                "value": "1"
                                            },
                                            {
                                                "name": "price",
                                                "type": "uint256",
                                                "value": "700,000,000,000,000,000"
                                            }
                                        ]
                                    },
                                    {
                                        "name": "proof",
                                        "type": "bytes32[]",
                                        "value": []
                                    },
                                    {
                                        "name": "signature",
                                        "type": "bytes",
                                        "value": "0x2905b197de7a70ef7d19adb0eda0c314c671856302445203df97033dc183b2dd5fe0da6b15863e04d4be2698cfdb76e28aa95d9ef5708506b837102398b5085f1b"
                                    },
                                    {
                                        "name": "oracleSignature",
                                        "type": "bytes",
                                        "value": "0xb99c10a0db0c3b91b764f3ce0dba96b37d8c2e0745cea16c276d556bd3fe97aa365ecd500d51dc5bd454c962c1333f6af87b05b8cda290d85022a9ab20f457041b0132f3286af68e5d010513ff70a3aaed9afeb8661116e6ce"
                                    }
                                ]
                            }
                        ],
                        "constructorArguments": "",
                        "name": "takeBidV2",
                        "returnParams": [],
                        "signature": "takeBidV2((address,address,address,uint256,uint256,uint256,uint256,uint256,uint256),uint256,((address,address,bytes32,uint256,uint256,uint8,(address,uint16),uint256),(uint256,uint256,uint256,uint256),bytes32[],bytes,bytes))"
                    },
                    "errorInfo": "",
                    "fromAddress": "0x0865ef935247eb8cd43d655e7989615d8c61f7c8",
                    "gasUsed": 185869,
                    "id": 0,
                    "methodDecoded": true,
                    "operation": "CALL",
                    "output": "",
                    "revert": false,
                    "revertMessage": "",
                    "selector": "0x619a309f",
                    "status": true,
                    "value": "0"
                },
                "nodeType": 0
            },
            "1": {
                "invocation": {
                    "address": "0xb258ca5559b11cd702f363796522b04d7722ea56",
                    "callData": "0x0000000000000000000000009c731c50fb63ee893121245b58816e212f64df6e0000000000000000000000000865ef935247eb8cd43d655e7989615d8c61f7c8000000000000000000000000524cab2ec69124574082676e6f654a18df49a0480000000000000000000000000000000000000000000000000000000000000483000000000000000000000000000000000000000000000000066fe5037b42c10800000000000000000000000000000000000000000000000000000000667036c700000000000000000000000000000000000000000000000000000000000000000000000000000000000000000000000000000000000000000000000000000000000000000000000000000000000000000000000000000000000000000000232800000000000000000000000000000000000000000000000000000000000490d600000000000000000000000000000000000000000000000000000000000001600000000000000000000000005802e0c5e3a0d87f9de0be710add41c54b4f1eb4000000000000000000000000524cab2ec69124574082676e6f654a18df49a048ec742f642749f4c894a93a70cbf00009a044ef933c8cdfa8d18de723630b43610000000000000000000000000000000000000000000000000000000000000001000000000000000000000000000000000000000000000000000000006852397600000000000000000000000000000000000000000000000000000000000000000000000000000000000000000000000000000000000000000000000000000000000000000000000000000000000000000000000000000000000000000000000000000000000000000000000000000000be5fd61df39c9ad551d80c5ea465199400000000000000000000000000000000000000000000000000000000000000000000000000000000000000000000000000000000000000000000000000000000000000000000000000000000000000000000000000000000000000000000000100000000000000000000000000000000000000000000000009b6e64a8ec600000000000000000000000000000000000000000000000000000000000000000200000000000000000000000000000000000000000000000000000000000000022000000000000000000000000000000000000000000000000000000000000002a0000000000000000000000000000000000000000000000000000000000000000000000000000000000000000000000000000000000000000000000000000000412905b197de7a70ef7d19adb0eda0c314c671856302445203df97033dc183b2dd5fe0da6b15863e04d4be2698cfdb76e28aa95d9ef5708506b837102398b5085f1b000000000000000000000000000000000000000000000000000000000000000000000000000000000000000000000000000000000000000000000000000059b99c10a0db0c3b91b764f3ce0dba96b37d8c2e0745cea16c276d556bd3fe97aa365ecd500d51dc5bd454c962c1333f6af87b05b8cda290d85022a9ab20f457041b0132f3286af68e5d010513ff70a3aaed9afeb8661116e6ce00000000000000",
                    "decodedMethod": {
                        "callParams": [
                            {
                                "name": "lien",
                                "type": "(address,address,address,uint256,uint256,uint256,uint256,uint256,uint256)",
                                "value": [
                                    {
                                        "name": "lender",
                                        "type": "address",
                                        "value": "0x9c731c50fb63ee893121245b58816e212f64df6e"
                                    },
                                    {
                                        "name": "borrower",
                                        "type": "address",
                                        "value": "0x0865ef935247eb8cd43d655e7989615d8c61f7c8"
                                    },
                                    {
                                        "name": "collection",
                                        "type": "address",
                                        "value": "0x524cab2ec69124574082676e6f654a18df49a048"
                                    },
                                    {
                                        "name": "tokenId",
                                        "type": "uint256",
                                        "value": "1,155"
                                    },
                                    {
                                        "name": "amount",
                                        "type": "uint256",
                                        "value": "463,841,089,758,085,384"
                                    },
                                    {
                                        "name": "startTime",
                                        "type": "uint256",
                                        "value": "1,718,630,087"
                                    },
                                    {
                                        "name": "rate",
                                        "type": "uint256",
                                        "value": "0"
                                    },
                                    {
                                        "name": "auctionStartBlock",
                                        "type": "uint256",
                                        "value": "0"
                                    },
                                    {
                                        "name": "auctionDuration",
                                        "type": "uint256",
                                        "value": "9,000"
                                    }
                                ]
                            },
                            {
                                "name": "lienId",
                                "type": "uint256",
                                "value": "299,222"
                            },
                            {
                                "name": "execution",
                                "type": "((address,address,bytes32,uint256,uint256,uint8,(address,uint16),uint256),(uint256,uint256,uint256,uint256),bytes32[],bytes,bytes)",
                                "value": [
                                    {
                                        "name": "order",
                                        "type": "(address,address,bytes32,uint256,uint256,uint8,(address,uint16),uint256)",
                                        "value": [
                                            {
                                                "name": "trader",
                                                "type": "address",
                                                "value": "0x5802e0c5e3a0d87f9de0be710add41c54b4f1eb4"
                                            },
                                            {
                                                "name": "collection",
                                                "type": "address",
                                                "value": "0x524cab2ec69124574082676e6f654a18df49a048"
                                            },
                                            {
                                                "name": "listingsRoot",
                                                "type": "bytes32",
                                                "value": "0xec742f642749f4c894a93a70cbf00009a044ef933c8cdfa8d18de723630b4361"
                                            },
                                            {
                                                "name": "numberOfListings",
                                                "type": "uint256",
                                                "value": "1"
                                            },
                                            {
                                                "name": "expirationTime",
                                                "type": "uint256",
                                                "value": "1,750,219,126"
                                            },
                                            {
                                                "name": "assetType",
                                                "type": "uint8",
                                                "value": "0"
                                            },
                                            {
                                                "name": "makerFee",
                                                "type": "(address,uint16)",
                                                "value": [
                                                    {
                                                        "name": "recipient",
                                                        "type": "address",
                                                        "value": "0x0000000000000000000000000000000000000000"
                                                    },
                                                    {
                                                        "name": "rate",
                                                        "type": "uint16",
                                                        "value": "0"
                                                    }
                                                ]
                                            },
                                            {
                                                "name": "salt",
                                                "type": "uint256",
                                                "value": "253,050,930,209,360,899,841,509,314,318,630,721,940"
                                            }
                                        ]
                                    },
                                    {
                                        "name": "listing",
                                        "type": "(uint256,uint256,uint256,uint256)",
                                        "value": [
                                            {
                                                "name": "index",
                                                "type": "uint256",
                                                "value": "0"
                                            },
                                            {
                                                "name": "tokenId",
                                                "type": "uint256",
                                                "value": "0"
                                            },
                                            {
                                                "name": "amount",
                                                "type": "uint256",
                                                "value": "1"
                                            },
                                            {
                                                "name": "price",
                                                "type": "uint256",
                                                "value": "700,000,000,000,000,000"
                                            }
                                        ]
                                    },
                                    {
                                        "name": "proof",
                                        "type": "bytes32[]",
                                        "value": []
                                    },
                                    {
                                        "name": "signature",
                                        "type": "bytes",
                                        "value": "0x2905b197de7a70ef7d19adb0eda0c314c671856302445203df97033dc183b2dd5fe0da6b15863e04d4be2698cfdb76e28aa95d9ef5708506b837102398b5085f1b"
                                    },
                                    {
                                        "name": "oracleSignature",
                                        "type": "bytes",
                                        "value": "0xb99c10a0db0c3b91b764f3ce0dba96b37d8c2e0745cea16c276d556bd3fe97aa365ecd500d51dc5bd454c962c1333f6af87b05b8cda290d85022a9ab20f457041b0132f3286af68e5d010513ff70a3aaed9afeb8661116e6ce"
                                    }
                                ]
                            }
                        ],
                        "constructorArguments": "",
                        "name": "takeBidV2",
                        "returnParams": [],
                        "signature": "takeBidV2((address,address,address,uint256,uint256,uint256,uint256,uint256,uint256),uint256,((address,address,bytes32,uint256,uint256,uint8,(address,uint16),uint256),(uint256,uint256,uint256,uint256),bytes32[],bytes,bytes))"
                    },
                    "errorInfo": "",
                    "fromAddress": "0x29469395eaf6f95920e59f858042f0e28d98a20b",
                    "gasUsed": 195601,
                    "id": 1,
                    "methodDecoded": true,
                    "operation": "DELEGATECALL",
                    "output": "",
                    "revert": false,
                    "revertMessage": "",
                    "selector": "0x619a309f",
                    "status": true,
                    "value": "0"
                },
                "nodeType": 0
            },
            "10": {
                "invocation": {
                    "address": "0x5fa60726e62c50af45ff2f6280c468da438a7837",
                    "callData": "0x000000000000000000000000000000000000000000000000000000000000004000000000000000000000000000000000000000000000000000000000000003800000000000000000000000005802e0c5e3a0d87f9de0be710add41c54b4f1eb4000000000000000000000000524cab2ec69124574082676e6f654a18df49a048ec742f642749f4c894a93a70cbf00009a044ef933c8cdfa8d18de723630b43610000000000000000000000000000000000000000000000000000000000000001000000000000000000000000000000000000000000000000000000006852397600000000000000000000000000000000000000000000000000000000000000000000000000000000000000000000000000000000000000000000000000000000000000000000000000000000000000000000000000000000000000000000000000000000000000000000000000000000be5fd61df39c9ad551d80c5ea465199400000000000000000000000000000000000000000000000000000000000001a00000000000000000000000000000000000000000000000000000000000000000000000000000000000000000000000000000000000000000000000000000000000000000000000000000000000000000000000000000000000000000000002c00000000000000000000000000000000000000000000000000000000000000000000000000000000000000000000000000000000000000000000000000000010000000000000000000000000000000000000000000000000000000000000000000000000000000000000000000000000000000000000000000000000000000000000000000000000000000000000000000000000000000000000000000000000100000000000000000000000000000000000000000000000009b6e64a8ec6000000000000000000000000000000000000000000000000000000000000000004830000000000000000000000000000000000000000000000000000000000000001000000000000000000000000000000000000000000000000000000000000000000000000000000000000000000000000000000000000000000000000000000412905b197de7a70ef7d19adb0eda0c314c671856302445203df97033dc183b2dd5fe0da6b15863e04d4be2698cfdb76e28aa95d9ef5708506b837102398b5085f1b000000000000000000000000000000000000000000000000000000000000000000000000000000000000000000000000000000000000000000000000000059b99c10a0db0c3b91b764f3ce0dba96b37d8c2e0745cea16c276d556bd3fe97aa365ecd500d51dc5bd454c962c1333f6af87b05b8cda290d85022a9ab20f457041b0132f3286af68e5d010513ff70a3aaed9afeb8661116e6ce00000000000000",
                    "decodedMethod": {
                        "callParams": [
                            {
                                "name": "inputs",
                                "type": "((address,address,bytes32,uint256,uint256,uint8,(address,uint16),uint256),(uint256,bytes32[],(uint256,uint256,uint256,uint256),(uint256,uint256)),(address,uint16),bytes)",
                                "value": [
                                    {
                                        "name": "order",
                                        "type": "(address,address,bytes32,uint256,uint256,uint8,(address,uint16),uint256)",
                                        "value": [
                                            {
                                                "name": "trader",
                                                "type": "address",
                                                "value": "0x5802e0c5e3a0d87f9de0be710add41c54b4f1eb4"
                                            },
                                            {
                                                "name": "collection",
                                                "type": "address",
                                                "value": "0x524cab2ec69124574082676e6f654a18df49a048"
                                            },
                                            {
                                                "name": "listingsRoot",
                                                "type": "bytes32",
                                                "value": "0xec742f642749f4c894a93a70cbf00009a044ef933c8cdfa8d18de723630b4361"
                                            },
                                            {
                                                "name": "numberOfListings",
                                                "type": "uint256",
                                                "value": "1"
                                            },
                                            {
                                                "name": "expirationTime",
                                                "type": "uint256",
                                                "value": "1,750,219,126"
                                            },
                                            {
                                                "name": "assetType",
                                                "type": "uint8",
                                                "value": "0"
                                            },
                                            {
                                                "name": "makerFee",
                                                "type": "(address,uint16)",
                                                "value": [
                                                    {
                                                        "name": "recipient",
                                                        "type": "address",
                                                        "value": "0x0000000000000000000000000000000000000000"
                                                    },
                                                    {
                                                        "name": "rate",
                                                        "type": "uint16",
                                                        "value": "0"
                                                    }
                                                ]
                                            },
                                            {
                                                "name": "salt",
                                                "type": "uint256",
                                                "value": "253,050,930,209,360,899,841,509,314,318,630,721,940"
                                            }
                                        ]
                                    },
                                    {
                                        "name": "exchange",
                                        "type": "(uint256,bytes32[],(uint256,uint256,uint256,uint256),(uint256,uint256))",
                                        "value": [
                                            {
                                                "name": "index",
                                                "type": "uint256",
                                                "value": "0"
                                            },
                                            {
                                                "name": "proof",
                                                "type": "bytes32[]",
                                                "value": []
                                            },
                                            {
                                                "name": "listing",
                                                "type": "(uint256,uint256,uint256,uint256)",
                                                "value": [
                                                    {
                                                        "name": "index",
                                                        "type": "uint256",
                                                        "value": "0"
                                                    },
                                                    {
                                                        "name": "tokenId",
                                                        "type": "uint256",
                                                        "value": "0"
                                                    },
                                                    {
                                                        "name": "amount",
                                                        "type": "uint256",
                                                        "value": "1"
                                                    },
                                                    {
                                                        "name": "price",
                                                        "type": "uint256",
                                                        "value": "700,000,000,000,000,000"
                                                    }
                                                ]
                                            },
                                            {
                                                "name": "taker",
                                                "type": "(uint256,uint256)",
                                                "value": [
                                                    {
                                                        "name": "tokenId",
                                                        "type": "uint256",
                                                        "value": "1,155"
                                                    },
                                                    {
                                                        "name": "amount",
                                                        "type": "uint256",
                                                        "value": "1"
                                                    }
                                                ]
                                            }
                                        ]
                                    },
                                    {
                                        "name": "takerFee",
                                        "type": "(address,uint16)",
                                        "value": [
                                            {
                                                "name": "recipient",
                                                "type": "address",
                                                "value": "0x0000000000000000000000000000000000000000"
                                            },
                                            {
                                                "name": "rate",
                                                "type": "uint16",
                                                "value": "0"
                                            }
                                        ]
                                    },
                                    {
                                        "name": "signature",
                                        "type": "bytes",
                                        "value": "0x2905b197de7a70ef7d19adb0eda0c314c671856302445203df97033dc183b2dd5fe0da6b15863e04d4be2698cfdb76e28aa95d9ef5708506b837102398b5085f1b"
                                    }
                                ]
                            },
                            {
                                "name": "oracleSignature",
                                "type": "bytes",
                                "value": "0xb99c10a0db0c3b91b764f3ce0dba96b37d8c2e0745cea16c276d556bd3fe97aa365ecd500d51dc5bd454c962c1333f6af87b05b8cda290d85022a9ab20f457041b0132f3286af68e5d010513ff70a3aaed9afeb8661116e6ce"
                            }
                        ],
                        "constructorArguments": "",
                        "name": "takeBidSingle",
                        "returnParams": [],
                        "signature": "takeBidSingle(((address,address,bytes32,uint256,uint256,uint8,(address,uint16),uint256),(uint256,bytes32[],(uint256,uint256,uint256,uint256),(uint256,uint256)),(address,uint16),bytes),bytes)"
                    },
                    "errorInfo": "",
                    "fromAddress": "0xb2ecfe4e4d61f8790bbb9de2d1259b9e2410cea5",
                    "gasUsed": 105747,
                    "id": 10,
                    "methodDecoded": true,
                    "operation": "DELEGATECALL",
                    "output": "",
                    "revert": false,
                    "revertMessage": "",
                    "selector": "0xda815cb5",
                    "status": true,
                    "value": "0"
                },
                "nodeType": 0
            },
            "11": {
                "invocation": {
                    "address": "0x0000000000000000000000000000000000000001",
                    "callData": "0x2d57a1d3054bb5479439bb8351271249ed2af9426cf24ea17f476bb4000000000000000000000000000000000000000000000000000000000000001bb99c10a0db0c3b91b764f3ce0dba96b37d8c2e0745cea16c276d556bd3fe97aa365ecd500d51dc5bd454c962c1333f6af87b05b8cda290d85022a9ab20f45704",
                    "decodedMethod": {
                        "callParams": [
                            {
                                "name": "hash",
                                "type": "bytes32",
                                "value": "0xe6677a2b2d57a1d3054bb5479439bb8351271249ed2af9426cf24ea17f476bb4"
                            },
                            {
                                "name": "v",
                                "type": "uint256",
                                "value": "27"
                            },
                            {
                                "name": "r",
                                "type": "bytes32",
                                "value": "0xb99c10a0db0c3b91b764f3ce0dba96b37d8c2e0745cea16c276d556bd3fe97aa"
                            },
                            {
                                "name": "s",
                                "type": "bytes32",
                                "value": "0x365ecd500d51dc5bd454c962c1333f6af87b05b8cda290d85022a9ab20f45704"
                            }
                        ],
                        "constructorArguments": "",
                        "name": "ecrecover",
                        "returnParams": [
                            {
                                "name": "",
                                "type": "address",
                                "value": "0x6af68e5d010513ff70a3aaed9afeb8661116e6ce"
                            }
                        ],
                        "signature": "ecrecover(bytes32,uint256,bytes32,bytes32)"
                    },
                    "errorInfo": "",
                    "fromAddress": "0xb2ecfe4e4d61f8790bbb9de2d1259b9e2410cea5",
                    "gasUsed": 3000,
                    "id": 11,
                    "methodDecoded": true,
                    "operation": "STATICCALL",
                    "output": "0x0000000000000000000000006af68e5d010513ff70a3aaed9afeb8661116e6ce",
                    "revert": false,
                    "revertMessage": "",
                    "selector": "0xe6677a2b",
                    "status": true,
                    "value": "0"
                },
                "nodeType": 0
            },
            "12": {
                "invocation": {
                    "address": "0x0000000000000000000000000000000000000001",
                    "callData": "0xbc89e21a135170f7cdc2d6c6df8fa52009075ce12a420f3b635e930f000000000000000000000000000000000000000000000000000000000000001b2905b197de7a70ef7d19adb0eda0c314c671856302445203df97033dc183b2dd5fe0da6b15863e04d4be2698cfdb76e28aa95d9ef5708506b837102398b5085f",
                    "decodedMethod": {
                        "callParams": [
                            {
                                "name": "hash",
                                "type": "bytes32",
                                "value": "0x158f5ef4bc89e21a135170f7cdc2d6c6df8fa52009075ce12a420f3b635e930f"
                            },
                            {
                                "name": "v",
                                "type": "uint256",
                                "value": "27"
                            },
                            {
                                "name": "r",
                                "type": "bytes32",
                                "value": "0x2905b197de7a70ef7d19adb0eda0c314c671856302445203df97033dc183b2dd"
                            },
                            {
                                "name": "s",
                                "type": "bytes32",
                                "value": "0x5fe0da6b15863e04d4be2698cfdb76e28aa95d9ef5708506b837102398b5085f"
                            }
                        ],
                        "constructorArguments": "",
                        "name": "ecrecover",
                        "returnParams": [
                            {
                                "name": "",
                                "type": "address",
                                "value": "0x5802e0c5e3a0d87f9de0be710add41c54b4f1eb4"
                            }
                        ],
                        "signature": "ecrecover(bytes32,uint256,bytes32,bytes32)"
                    },
                    "errorInfo": "",
                    "fromAddress": "0xb2ecfe4e4d61f8790bbb9de2d1259b9e2410cea5",
                    "gasUsed": 3000,
                    "id": 12,
                    "methodDecoded": true,
                    "operation": "STATICCALL",
                    "output": "0x0000000000000000000000005802e0c5e3a0d87f9de0be710add41c54b4f1eb4",
                    "revert": false,
                    "revertMessage": "",
                    "selector": "0x158f5ef4",
                    "status": true,
                    "value": "0"
                },
                "nodeType": 0
            },
            "13": {
                "invocation": {
                    "address": "0x2f18f339620a63e43f0839eeb18d7de1e1be4dfb",
                    "callData": "0x00000000000000000000000029469395eaf6f95920e59f858042f0e28d98a20b00000000000000000000000000000000000000000000000000000000000000010000000000000000000000000000000000000000000000000000000000000080000000000000000000000000000000000000000000000000000000000000000100000000000000000000000000000000000000000000000000000000000000010000000000000000000000005802e0c5e3a0d87f9de0be710add41c54b4f1eb400000000000000000000000000000000000000000000000000000000000004830000000000000000000000000000000000000000000000000000000000000000000000000000000000000000524cab2ec69124574082676e6f654a18df49a0480000000000000000000000000000000000000000000000000000000000000000",
                    "decodedMethod": {
                        "callParams": [
                            {
                                "name": "taker",
                                "type": "address",
                                "value": "0x29469395eaf6f95920e59f858042f0e28d98a20b"
                            },
                            {
                                "name": "orderType",
                                "type": "uint8",
                                "value": "1"
                            },
                            {
                                "name": "transfers",
                                "type": "(address,uint256,uint256,address,uint8)[]",
                                "value": [
                                    [
                                        {
                                            "name": "trader",
                                            "type": "address",
                                            "value": "0x5802e0c5e3a0d87f9de0be710add41c54b4f1eb4"
                                        },
                                        {
                                            "name": "id",
                                            "type": "uint256",
                                            "value": "1,155"
                                        },
                                        {
                                            "name": "amount",
                                            "type": "uint256",
                                            "value": "0"
                                        },
                                        {
                                            "name": "collection",
                                            "type": "address",
                                            "value": "0x524cab2ec69124574082676e6f654a18df49a048"
                                        },
                                        {
                                            "name": "assetType",
                                            "type": "uint8",
                                            "value": "0"
                                        }
                                    ]
                                ]
                            },
                            {
                                "name": "length",
                                "type": "uint256",
                                "value": "1"
                            }
                        ],
                        "constructorArguments": "",
                        "name": "transfer",
                        "returnParams": [
                            {
                                "name": "successful",
                                "type": "bool[]",
                                "value": [
                                    true
                                ]
                            }
                        ],
                        "signature": "transfer(address,uint8,(address,uint256,uint256,address,uint8)[],uint256)"
                    },
                    "errorInfo": "",
                    "fromAddress": "0xb2ecfe4e4d61f8790bbb9de2d1259b9e2410cea5",
                    "gasUsed": 24129,
                    "id": 13,
                    "methodDecoded": true,
                    "operation": "CALL",
                    "output": "0x000000000000000000000000000000000000000000000000000000000000002000000000000000000000000000000000000000000000000000000000000000010000000000000000000000000000000000000000000000000000000000000001",
                    "revert": false,
                    "revertMessage": "",
                    "selector": "0xa1ccb98e",
                    "status": true,
                    "value": "0"
                },
                "nodeType": 0
            },
            "14": {
                "invocation": {
                    "address": "0x524cab2ec69124574082676e6f654a18df49a048",
                    "callData": "0x00000000000000000000000029469395eaf6f95920e59f858042f0e28d98a20b0000000000000000000000005802e0c5e3a0d87f9de0be710add41c54b4f1eb40000000000000000000000000000000000000000000000000000000000000483",
                    "decodedMethod": {
                        "callParams": [
                            {
                                "name": "from",
                                "type": "address",
                                "value": "0x29469395eaf6f95920e59f858042f0e28d98a20b"
                            },
                            {
                                "name": "to",
                                "type": "address",
                                "value": "0x5802e0c5e3a0d87f9de0be710add41c54b4f1eb4"
                            },
                            {
                                "name": "tokenId",
                                "type": "uint256",
                                "value": "1,155"
                            }
                        ],
                        "constructorArguments": "",
                        "name": "safeTransferFrom",
                        "returnParams": [],
                        "signature": "safeTransferFrom(address,address,uint256)"
                    },
                    "errorInfo": "",
                    "fromAddress": "0x2f18f339620a63e43f0839eeb18d7de1e1be4dfb",
                    "gasUsed": 22705,
                    "id": 14,
                    "methodDecoded": true,
                    "operation": "CALL",
                    "output": "",
                    "revert": false,
                    "revertMessage": "",
                    "selector": "0x42842e0e",
                    "status": true,
                    "value": "0"
                },
                "nodeType": 0
            },
            "15": {
                "event": {
                    "contract": "0x524cab2ec69124574082676e6f654a18df49a048",
                    "decodedLog": {
                        "name": "Approval",
                        "params": [
                            {
                                "name": "owner",
                                "type": "address",
                                "value": "0x29469395eaf6f95920e59f858042f0e28d98a20b"
                            },
                            {
                                "name": "approved",
                                "type": "address",
                                "value": "0x0000000000000000000000000000000000000000"
                            },
                            {
                                "decimalAvailable": true,
                                "name": "tokenId",
                                "type": "uint256",
                                "value": "1,155"
                            }
                        ],
                        "signature": "Approval(address,address,uint256)"
                    },
                    "id": 15,
                    "logData": "0x",
                    "logDecoded": true,
                    "operation": "EVENT",
                    "revert": false,
                    "status": true,
                    "topics": [
                        "0x8c5be1e5ebec7d5bd14f71427d1e84f3dd0314c0f7b2291e5b200ac8c7c3b925",
                        "0x00000000000000000000000029469395eaf6f95920e59f858042f0e28d98a20b",
                        "0x0000000000000000000000000000000000000000000000000000000000000000",
                        "0x0000000000000000000000000000000000000000000000000000000000000483"
                    ]
                },
                "nodeType": 1
            },
            "16": {
                "event": {
                    "contract": "0x524cab2ec69124574082676e6f654a18df49a048",
                    "decodedLog": {
                        "name": "Transfer",
                        "params": [
                            {
                                "name": "from",
                                "type": "address",
                                "value": "0x29469395eaf6f95920e59f858042f0e28d98a20b"
                            },
                            {
                                "name": "to",
                                "type": "address",
                                "value": "0x5802e0c5e3a0d87f9de0be710add41c54b4f1eb4"
                            },
                            {
                                "decimalAvailable": true,
                                "name": "tokenId",
                                "type": "uint256",
                                "value": "1,155"
                            }
                        ],
                        "signature": "Transfer(address,address,uint256)"
                    },
                    "id": 16,
                    "logData": "0x",
                    "logDecoded": true,
                    "operation": "EVENT",
                    "revert": false,
                    "status": true,
                    "topics": [
                        "0xddf252ad1be2c89b69c2b068fc378daa952ba7f163c4a11628f55a4df523b3ef",
                        "0x00000000000000000000000029469395eaf6f95920e59f858042f0e28d98a20b",
                        "0x0000000000000000000000005802e0c5e3a0d87f9de0be710add41c54b4f1eb4",
                        "0x0000000000000000000000000000000000000000000000000000000000000483"
                    ]
                },
                "nodeType": 1
            },
            "17": {
                "invocation": {
                    "address": "0x0000000000a39bb272e79075ade125fd351887ac",
                    "callData": "0x0000000000000000000000005802e0c5e3a0d87f9de0be710add41c54b4f1eb400000000000000000000000029469395eaf6f95920e59f858042f0e28d98a20b00000000000000000000000000000000000000000000000009b6e64a8ec60000",
                    "decodedMethod": {
                        "callParams": [
                            {
                                "name": "from",
                                "type": "address",
                                "value": "0x5802e0c5e3a0d87f9de0be710add41c54b4f1eb4"
                            },
                            {
                                "name": "to",
                                "type": "address",
                                "value": "0x29469395eaf6f95920e59f858042f0e28d98a20b"
                            },
                            {
                                "decimalAvailable": true,
                                "name": "amount",
                                "type": "uint256",
                                "value": "700,000,000,000,000,000"
                            }
                        ],
                        "constructorArguments": "",
                        "name": "transferFrom",
                        "returnParams": [
                            {
                                "name": "",
                                "type": "bool",
                                "value": true
                            }
                        ],
                        "signature": "transferFrom(address,address,uint256)"
                    },
                    "errorInfo": "",
                    "fromAddress": "0xb2ecfe4e4d61f8790bbb9de2d1259b9e2410cea5",
                    "gasUsed": 28426,
                    "id": 17,
                    "methodDecoded": true,
                    "operation": "CALL",
                    "output": "0x0000000000000000000000000000000000000000000000000000000000000001",
                    "revert": false,
                    "revertMessage": "",
                    "selector": "0x23b872dd",
                    "status": true,
                    "value": "0"
                },
                "nodeType": 0
            },
            "18": {
                "invocation": {
                    "address": "0x01a656024de4b89e2d0198bf4d468e8fd2358b17",
                    "callData": "0x0000000000000000000000005802e0c5e3a0d87f9de0be710add41c54b4f1eb400000000000000000000000029469395eaf6f95920e59f858042f0e28d98a20b00000000000000000000000000000000000000000000000009b6e64a8ec60000",
                    "decodedMethod": {
                        "callParams": [
                            {
                                "name": "from",
                                "type": "address",
                                "value": "0x5802e0c5e3a0d87f9de0be710add41c54b4f1eb4"
                            },
                            {
                                "name": "to",
                                "type": "address",
                                "value": "0x29469395eaf6f95920e59f858042f0e28d98a20b"
                            },
                            {
                                "decimalAvailable": true,
                                "name": "amount",
                                "type": "uint256",
                                "value": "700,000,000,000,000,000"
                            }
                        ],
                        "constructorArguments": "",
                        "name": "transferFrom",
                        "returnParams": [
                            {
                                "name": "",
                                "type": "bool",
                                "value": true
                            }
                        ],
                        "signature": "transferFrom(address,address,uint256)"
                    },
                    "errorInfo": "",
                    "fromAddress": "0x0000000000a39bb272e79075ade125fd351887ac",
                    "gasUsed": 28031,
                    "id": 18,
                    "methodDecoded": true,
                    "operation": "DELEGATECALL",
                    "output": "0x0000000000000000000000000000000000000000000000000000000000000001",
                    "revert": false,
                    "revertMessage": "",
                    "selector": "0x23b872dd",
                    "status": true,
                    "value": "0"
                },
                "nodeType": 0
            },
            "19": {
                "event": {
                    "contract": "0x0000000000a39bb272e79075ade125fd351887ac",
                    "decodedLog": {
                        "name": "Transfer",
                        "params": [
                            {
                                "name": "from",
                                "type": "address",
                                "value": "0x5802e0c5e3a0d87f9de0be710add41c54b4f1eb4"
                            },
                            {
                                "name": "to",
                                "type": "address",
                                "value": "0x29469395eaf6f95920e59f858042f0e28d98a20b"
                            },
                            {
                                "decimalAvailable": true,
                                "name": "value",
                                "type": "uint256",
                                "value": "700,000,000,000,000,000"
                            }
                        ],
                        "signature": "Transfer(address,address,uint256)"
                    },
                    "id": 19,
                    "logData": "0x00000000000000000000000000000000000000000000000009b6e64a8ec60000",
                    "logDecoded": true,
                    "operation": "EVENT",
                    "revert": false,
                    "status": true,
                    "topics": [
                        "0xddf252ad1be2c89b69c2b068fc378daa952ba7f163c4a11628f55a4df523b3ef",
                        "0x0000000000000000000000005802e0c5e3a0d87f9de0be710add41c54b4f1eb4",
                        "0x00000000000000000000000029469395eaf6f95920e59f858042f0e28d98a20b"
                    ]
                },
                "nodeType": 1
            },
            "2": {
                "invocation": {
                    "address": "0x5c55cd67a6bd0d4c315b50cb6cd589bfb080017e",
                    "callData": "0x000000000000000000000000000000000000000000000000066fe5037b42c108000000000000000000000000000000000000000000000000000000000000000000000000000000000000000000000000000000000000000000000000667036c7",
                    "decodedMethod": {
                        "callParams": [
                            {
                                "name": "amount",
                                "type": "uint256",
                                "value": "463,841,089,758,085,384"
                            },
                            {
                                "name": "rate",
                                "type": "uint256",
                                "value": "0"
                            },
                            {
                                "name": "startTime",
                                "type": "uint256",
                                "value": "1,718,630,087"
                            }
                        ],
                        "constructorArguments": "",
                        "name": "computeCurrentDebt",
                        "returnParams": [
                            {
                                "name": "",
                                "type": "uint256",
                                "value": "463,841,089,758,085,384"
                            }
                        ],
                        "signature": "computeCurrentDebt(uint256,uint256,uint256)"
                    },
                    "errorInfo": "",
                    "fromAddress": "0x29469395eaf6f95920e59f858042f0e28d98a20b",
                    "gasUsed": 1468,
                    "id": 2,
                    "methodDecoded": true,
                    "operation": "DELEGATECALL",
                    "output": "0x000000000000000000000000000000000000000000000000066fe5037b42c108",
                    "revert": false,
                    "revertMessage": "",
                    "selector": "0x1b70b278",
                    "status": true,
                    "value": "0"
                },
                "nodeType": 0
            },
            "20": {
                "event": {
                    "contract": "0xb2ecfe4e4d61f8790bbb9de2d1259b9e2410cea5",
                    "decodedLog": {
                        "name": "Execution721Packed",
                        "params": [
                            {
                                "name": "orderHash",
                                "type": "bytes32",
                                "value": "0xf3d83d9f25e648723807caec18fa4a8e106b7fd897a42b92d0ffed7e8f381d65"
                            },
                            {
                                "name": "tokenIdListingIndexTrader",
                                "type": "uint256",
                                "value": "432,137,306,581,371,187,994,316,282,116,778,186,858,743,833,929,129,652"
                            },
                            {
                                "name": "collectionPriceSide",
                                "type": "uint256",
                                "value": "452,312,849,606,317,534,504,956,203,402,613,534,913,701,132,359,993,090,400,789,568,582,232,678,472"
                            }
                        ],
                        "signature": "Execution721Packed(bytes32,uint256,uint256)"
                    },
                    "id": 20,
                    "logData": "0xf3d83d9f25e648723807caec18fa4a8e106b7fd897a42b92d0ffed7e8f381d650000000000000000000483005802e0c5e3a0d87f9de0be710add41c54b4f1eb40100000009b6e64a8ec60000524cab2ec69124574082676e6f654a18df49a048",
                    "logDecoded": true,
                    "operation": "EVENT",
                    "revert": false,
                    "status": true,
                    "topics": [
                        "0x1d5e12b51dee5e4d34434576c3fb99714a85f57b0fd546ada4b0bddd736d12b2"
                    ]
                },
                "nodeType": 1
            },
            "21": {
                "invocation": {
                    "address": "0x0000000000a39bb272e79075ade125fd351887ac",
                    "callData": "0x00000000000000000000000029469395eaf6f95920e59f858042f0e28d98a20b",
                    "decodedMethod": {
                        "callParams": [
                            {
                                "name": "user",
                                "type": "address",
                                "value": "0x29469395eaf6f95920e59f858042f0e28d98a20b"
                            }
                        ],
                        "constructorArguments": "",
                        "name": "balanceOf",
                        "returnParams": [
                            {
                                "decimalAvailable": true,
                                "name": "",
                                "type": "uint256",
                                "value": "700,000,000,000,000,000"
                            }
                        ],
                        "signature": "balanceOf(address)"
                    },
                    "errorInfo": "",
                    "fromAddress": "0x29469395eaf6f95920e59f858042f0e28d98a20b",
                    "gasUsed": 922,
                    "id": 21,
                    "methodDecoded": true,
                    "operation": "STATICCALL",
                    "output": "0x00000000000000000000000000000000000000000000000009b6e64a8ec60000",
                    "revert": false,
                    "revertMessage": "",
                    "selector": "0x70a08231",
                    "status": true,
                    "value": "0"
                },
                "nodeType": 0
            },
            "22": {
                "invocation": {
                    "address": "0x01a656024de4b89e2d0198bf4d468e8fd2358b17",
                    "callData": "0x00000000000000000000000029469395eaf6f95920e59f858042f0e28d98a20b",
                    "decodedMethod": {
                        "callParams": [
                            {
                                "name": "user",
                                "type": "address",
                                "value": "0x29469395eaf6f95920e59f858042f0e28d98a20b"
                            }
                        ],
                        "constructorArguments": "",
                        "name": "balanceOf",
                        "returnParams": [
                            {
                                "decimalAvailable": true,
                                "name": "",
                                "type": "uint256",
                                "value": "700,000,000,000,000,000"
                            }
                        ],
                        "signature": "balanceOf(address)"
                    },
                    "errorInfo": "",
                    "fromAddress": "0x0000000000a39bb272e79075ade125fd351887ac",
                    "gasUsed": 536,
                    "id": 22,
                    "methodDecoded": true,
                    "operation": "DELEGATECALL",
                    "output": "0x00000000000000000000000000000000000000000000000009b6e64a8ec60000",
                    "revert": false,
                    "revertMessage": "",
                    "selector": "0x70a08231",
                    "status": true,
                    "value": "0"
                },
                "nodeType": 0
            },
            "23": {
                "invocation": {
                    "address": "0x0000000000a39bb272e79075ade125fd351887ac",
                    "callData": "0x00000000000000000000000029469395eaf6f95920e59f858042f0e28d98a20b0000000000000000000000009c731c50fb63ee893121245b58816e212f64df6e000000000000000000000000000000000000000000000000066fe5037b42c108",
                    "decodedMethod": {
                        "callParams": [
                            {
                                "name": "from",
                                "type": "address",
                                "value": "0x29469395eaf6f95920e59f858042f0e28d98a20b"
                            },
                            {
                                "name": "to",
                                "type": "address",
                                "value": "0x9c731c50fb63ee893121245b58816e212f64df6e"
                            },
                            {
                                "decimalAvailable": true,
                                "name": "amount",
                                "type": "uint256",
                                "value": "463,841,089,758,085,384"
                            }
                        ],
                        "constructorArguments": "",
                        "name": "transferFrom",
                        "returnParams": [
                            {
                                "name": "",
                                "type": "bool",
                                "value": true
                            }
                        ],
                        "signature": "transferFrom(address,address,uint256)"
                    },
                    "errorInfo": "",
                    "fromAddress": "0x29469395eaf6f95920e59f858042f0e28d98a20b",
                    "gasUsed": 8564,
                    "id": 23,
                    "methodDecoded": true,
                    "operation": "CALL",
                    "output": "0x0000000000000000000000000000000000000000000000000000000000000001",
                    "revert": false,
                    "revertMessage": "",
                    "selector": "0x23b872dd",
                    "status": true,
                    "value": "0"
                },
                "nodeType": 0
            },
            "24": {
                "invocation": {
                    "address": "0x01a656024de4b89e2d0198bf4d468e8fd2358b17",
                    "callData": "0x00000000000000000000000029469395eaf6f95920e59f858042f0e28d98a20b0000000000000000000000009c731c50fb63ee893121245b58816e212f64df6e000000000000000000000000000000000000000000000000066fe5037b42c108",
                    "decodedMethod": {
                        "callParams": [
                            {
                                "name": "from",
                                "type": "address",
                                "value": "0x29469395eaf6f95920e59f858042f0e28d98a20b"
                            },
                            {
                                "name": "to",
                                "type": "address",
                                "value": "0x9c731c50fb63ee893121245b58816e212f64df6e"
                            },
                            {
                                "decimalAvailable": true,
                                "name": "amount",
                                "type": "uint256",
                                "value": "463,841,089,758,085,384"
                            }
                        ],
                        "constructorArguments": "",
                        "name": "transferFrom",
                        "returnParams": [
                            {
                                "name": "",
                                "type": "bool",
                                "value": true
                            }
                        ],
                        "signature": "transferFrom(address,address,uint256)"
                    },
                    "errorInfo": "",
                    "fromAddress": "0x0000000000a39bb272e79075ade125fd351887ac",
                    "gasUsed": 8169,
                    "id": 24,
                    "methodDecoded": true,
                    "operation": "DELEGATECALL",
                    "output": "0x0000000000000000000000000000000000000000000000000000000000000001",
                    "revert": false,
                    "revertMessage": "",
                    "selector": "0x23b872dd",
                    "status": true,
                    "value": "0"
                },
                "nodeType": 0
            },
            "25": {
                "event": {
                    "contract": "0x0000000000a39bb272e79075ade125fd351887ac",
                    "decodedLog": {
                        "name": "Transfer",
                        "params": [
                            {
                                "name": "from",
                                "type": "address",
                                "value": "0x29469395eaf6f95920e59f858042f0e28d98a20b"
                            },
                            {
                                "name": "to",
                                "type": "address",
                                "value": "0x9c731c50fb63ee893121245b58816e212f64df6e"
                            },
                            {
                                "decimalAvailable": true,
                                "name": "value",
                                "type": "uint256",
                                "value": "463,841,089,758,085,384"
                            }
                        ],
                        "signature": "Transfer(address,address,uint256)"
                    },
                    "id": 25,
                    "logData": "0x000000000000000000000000000000000000000000000000066fe5037b42c108",
                    "logDecoded": true,
                    "operation": "EVENT",
                    "revert": false,
                    "status": true,
                    "topics": [
                        "0xddf252ad1be2c89b69c2b068fc378daa952ba7f163c4a11628f55a4df523b3ef",
                        "0x00000000000000000000000029469395eaf6f95920e59f858042f0e28d98a20b",
                        "0x0000000000000000000000009c731c50fb63ee893121245b58816e212f64df6e"
                    ]
                },
                "nodeType": 1
            },
            "26": {
                "invocation": {
                    "address": "0x0000000000a39bb272e79075ade125fd351887ac",
                    "callData": "0x00000000000000000000000029469395eaf6f95920e59f858042f0e28d98a20b0000000000000000000000000865ef935247eb8cd43d655e7989615d8c61f7c80000000000000000000000000000000000000000000000000347014713833ef8",
                    "decodedMethod": {
                        "callParams": [
                            {
                                "name": "from",
                                "type": "address",
                                "value": "0x29469395eaf6f95920e59f858042f0e28d98a20b"
                            },
                            {
                                "name": "to",
                                "type": "address",
                                "value": "0x0865ef935247eb8cd43d655e7989615d8c61f7c8"
                            },
                            {
                                "decimalAvailable": true,
                                "name": "amount",
                                "type": "uint256",
                                "value": "236,158,910,241,914,616"
                            }
                        ],
                        "constructorArguments": "",
                        "name": "transferFrom",
                        "returnParams": [
                            {
                                "name": "",
                                "type": "bool",
                                "value": true
                            }
                        ],
                        "signature": "transferFrom(address,address,uint256)"
                    },
                    "errorInfo": "",
                    "fromAddress": "0x29469395eaf6f95920e59f858042f0e28d98a20b",
                    "gasUsed": 8564,
                    "id": 26,
                    "methodDecoded": true,
                    "operation": "CALL",
                    "output": "0x0000000000000000000000000000000000000000000000000000000000000001",
                    "revert": false,
                    "revertMessage": "",
                    "selector": "0x23b872dd",
                    "status": true,
                    "value": "0"
                },
                "nodeType": 0
            },
            "27": {
                "invocation": {
                    "address": "0x01a656024de4b89e2d0198bf4d468e8fd2358b17",
                    "callData": "0x00000000000000000000000029469395eaf6f95920e59f858042f0e28d98a20b0000000000000000000000000865ef935247eb8cd43d655e7989615d8c61f7c80000000000000000000000000000000000000000000000000347014713833ef8",
                    "decodedMethod": {
                        "callParams": [
                            {
                                "name": "from",
                                "type": "address",
                                "value": "0x29469395eaf6f95920e59f858042f0e28d98a20b"
                            },
                            {
                                "name": "to",
                                "type": "address",
                                "value": "0x0865ef935247eb8cd43d655e7989615d8c61f7c8"
                            },
                            {
                                "decimalAvailable": true,
                                "name": "amount",
                                "type": "uint256",
                                "value": "236,158,910,241,914,616"
                            }
                        ],
                        "constructorArguments": "",
                        "name": "transferFrom",
                        "returnParams": [
                            {
                                "name": "",
                                "type": "bool",
                                "value": true
                            }
                        ],
                        "signature": "transferFrom(address,address,uint256)"
                    },
                    "errorInfo": "",
                    "fromAddress": "0x0000000000a39bb272e79075ade125fd351887ac",
                    "gasUsed": 8169,
                    "id": 27,
                    "methodDecoded": true,
                    "operation": "DELEGATECALL",
                    "output": "0x0000000000000000000000000000000000000000000000000000000000000001",
                    "revert": false,
                    "revertMessage": "",
                    "selector": "0x23b872dd",
                    "status": true,
                    "value": "0"
                },
                "nodeType": 0
            },
            "28": {
                "event": {
                    "contract": "0x0000000000a39bb272e79075ade125fd351887ac",
                    "decodedLog": {
                        "name": "Transfer",
                        "params": [
                            {
                                "name": "from",
                                "type": "address",
                                "value": "0x29469395eaf6f95920e59f858042f0e28d98a20b"
                            },
                            {
                                "name": "to",
                                "type": "address",
                                "value": "0x0865ef935247eb8cd43d655e7989615d8c61f7c8"
                            },
                            {
                                "decimalAvailable": true,
                                "name": "value",
                                "type": "uint256",
                                "value": "236,158,910,241,914,616"
                            }
                        ],
                        "signature": "Transfer(address,address,uint256)"
                    },
                    "id": 28,
                    "logData": "0x0000000000000000000000000000000000000000000000000347014713833ef8",
                    "logDecoded": true,
                    "operation": "EVENT",
                    "revert": false,
                    "status": true,
                    "topics": [
                        "0xddf252ad1be2c89b69c2b068fc378daa952ba7f163c4a11628f55a4df523b3ef",
                        "0x00000000000000000000000029469395eaf6f95920e59f858042f0e28d98a20b",
                        "0x0000000000000000000000000865ef935247eb8cd43d655e7989615d8c61f7c8"
                    ]
                },
                "nodeType": 1
            },
            "3": {
                "event": {
                    "contract": "0x29469395eaf6f95920e59f858042f0e28d98a20b",
                    "decodedLog": {
                        "name": "Repay",
                        "params": [
                            {
                                "name": "lienId",
                                "type": "uint256",
                                "value": "299,222"
                            },
                            {
                                "name": "collection",
                                "type": "address",
                                "value": "0x524cab2ec69124574082676e6f654a18df49a048"
                            }
                        ],
                        "signature": "Repay(uint256,address)"
                    },
                    "id": 3,
                    "logData": "0x00000000000000000000000000000000000000000000000000000000000490d6000000000000000000000000524cab2ec69124574082676e6f654a18df49a048",
                    "logDecoded": true,
                    "operation": "EVENT",
                    "revert": false,
                    "status": true,
                    "topics": [
                        "0x2469cc9e12e74c63438d5b1117b318cd3a4cdaf9d659d9eac6d975d14d963254"
                    ]
                },
                "nodeType": 1
            },
            "4": {
                "invocation": {
                    "address": "0x5c55cd67a6bd0d4c315b50cb6cd589bfb080017e",
                    "callData": "0x0000000000000000000000009c731c50fb63ee893121245b58816e212f64df6e0000000000000000000000000865ef935247eb8cd43d655e7989615d8c61f7c8000000000000000000000000524cab2ec69124574082676e6f654a18df49a0480000000000000000000000000000000000000000000000000000000000000483000000000000000000000000000000000000000000000000066fe5037b42c10800000000000000000000000000000000000000000000000000000000667036c700000000000000000000000000000000000000000000000000000000000000000000000000000000000000000000000000000000000000000000000000000000000000000000000000000000000000000000000000000000000000000000232800000000000000000000000000000000000000000000000000000000000001c0000000000000000000000000000000000000000000000000066fe5037b42c1080000000000000000000000000000000000a39bb272e79075ade125fd351887ac000000000000000000000000b2ecfe4e4d61f8790bbb9de2d1259b9e2410cea50000000000000000000000002f18f339620a63e43f0839eeb18d7de1e1be4dfb0000000000000000000000005802e0c5e3a0d87f9de0be710add41c54b4f1eb4000000000000000000000000524cab2ec69124574082676e6f654a18df49a048ec742f642749f4c894a93a70cbf00009a044ef933c8cdfa8d18de723630b43610000000000000000000000000000000000000000000000000000000000000001000000000000000000000000000000000000000000000000000000006852397600000000000000000000000000000000000000000000000000000000000000000000000000000000000000000000000000000000000000000000000000000000000000000000000000000000000000000000000000000000000000000000000000000000000000000000000000000000be5fd61df39c9ad551d80c5ea465199400000000000000000000000000000000000000000000000000000000000000000000000000000000000000000000000000000000000000000000000000000000000000000000000000000000000000000000000000000000000000000000000100000000000000000000000000000000000000000000000009b6e64a8ec600000000000000000000000000000000000000000000000000000000000000000200000000000000000000000000000000000000000000000000000000000000022000000000000000000000000000000000000000000000000000000000000002a0000000000000000000000000000000000000000000000000000000000000000000000000000000000000000000000000000000000000000000000000000000412905b197de7a70ef7d19adb0eda0c314c671856302445203df97033dc183b2dd5fe0da6b15863e04d4be2698cfdb76e28aa95d9ef5708506b837102398b5085f1b000000000000000000000000000000000000000000000000000000000000000000000000000000000000000000000000000000000000000000000000000059b99c10a0db0c3b91b764f3ce0dba96b37d8c2e0745cea16c276d556bd3fe97aa365ecd500d51dc5bd454c962c1333f6af87b05b8cda290d85022a9ab20f457041b0132f3286af68e5d010513ff70a3aaed9afeb8661116e6ce00000000000000",
                    "decodedMethod": null,
                    "errorInfo": "",
                    "fromAddress": "0x29469395eaf6f95920e59f858042f0e28d98a20b",
                    "gasUsed": 179543,
                    "id": 4,
                    "methodDecoded": false,
                    "operation": "DELEGATECALL",
                    "output": "",
                    "revert": false,
                    "revertMessage": "",
                    "selector": "0xe7fbdddb",
                    "status": true,
                    "value": "0"
                },
                "nodeType": 0
            },
            "5": {
                "invocation": {
                    "address": "0x0000000000a39bb272e79075ade125fd351887ac",
                    "callData": "0x00000000000000000000000029469395eaf6f95920e59f858042f0e28d98a20b",
                    "decodedMethod": {
                        "callParams": [
                            {
                                "name": "user",
                                "type": "address",
                                "value": "0x29469395eaf6f95920e59f858042f0e28d98a20b"
                            }
                        ],
                        "constructorArguments": "",
                        "name": "balanceOf",
                        "returnParams": [
                            {
                                "decimalAvailable": true,
                                "name": "",
                                "type": "uint256",
                                "value": "0"
                            }
                        ],
                        "signature": "balanceOf(address)"
                    },
                    "errorInfo": "",
                    "fromAddress": "0x29469395eaf6f95920e59f858042f0e28d98a20b",
                    "gasUsed": 7422,
                    "id": 5,
                    "methodDecoded": true,
                    "operation": "STATICCALL",
                    "output": "0x0000000000000000000000000000000000000000000000000000000000000000",
                    "revert": false,
                    "revertMessage": "",
                    "selector": "0x70a08231",
                    "status": true,
                    "value": "0"
                },
                "nodeType": 0
            },
            "6": {
                "invocation": {
                    "address": "0x01a656024de4b89e2d0198bf4d468e8fd2358b17",
                    "callData": "0x00000000000000000000000029469395eaf6f95920e59f858042f0e28d98a20b",
                    "decodedMethod": {
                        "callParams": [
                            {
                                "name": "user",
                                "type": "address",
                                "value": "0x29469395eaf6f95920e59f858042f0e28d98a20b"
                            }
                        ],
                        "constructorArguments": "",
                        "name": "balanceOf",
                        "returnParams": [
                            {
                                "decimalAvailable": true,
                                "name": "",
                                "type": "uint256",
                                "value": "0"
                            }
                        ],
                        "signature": "balanceOf(address)"
                    },
                    "errorInfo": "",
                    "fromAddress": "0x0000000000a39bb272e79075ade125fd351887ac",
                    "gasUsed": 2536,
                    "id": 6,
                    "methodDecoded": true,
                    "operation": "DELEGATECALL",
                    "output": "0x0000000000000000000000000000000000000000000000000000000000000000",
                    "revert": false,
                    "revertMessage": "",
                    "selector": "0x70a08231",
                    "status": true,
                    "value": "0"
                },
                "nodeType": 0
            },
            "7": {
                "invocation": {
                    "address": "0x524cab2ec69124574082676e6f654a18df49a048",
                    "callData": "0x0000000000000000000000002f18f339620a63e43f0839eeb18d7de1e1be4dfb0000000000000000000000000000000000000000000000000000000000000483",
                    "decodedMethod": {
                        "callParams": [
                            {
                                "name": "to",
                                "type": "address",
                                "value": "0x2f18f339620a63e43f0839eeb18d7de1e1be4dfb"
                            },
                            {
                                "decimalAvailable": true,
                                "name": "tokenId",
                                "type": "uint256",
                                "value": "1,155"
                            }
                        ],
                        "constructorArguments": "",
                        "name": "approve",
                        "returnParams": [],
                        "signature": "approve(address,uint256)"
                    },
                    "errorInfo": "",
                    "fromAddress": "0x29469395eaf6f95920e59f858042f0e28d98a20b",
                    "gasUsed": 27200,
                    "id": 7,
                    "methodDecoded": true,
                    "operation": "CALL",
                    "output": "",
                    "revert": false,
                    "revertMessage": "",
                    "selector": "0x095ea7b3",
                    "status": true,
                    "value": "0"
                },
                "nodeType": 0
            },
            "8": {
                "event": {
                    "contract": "0x524cab2ec69124574082676e6f654a18df49a048",
                    "decodedLog": {
                        "name": "Approval",
                        "params": [
                            {
                                "name": "owner",
                                "type": "address",
                                "value": "0x29469395eaf6f95920e59f858042f0e28d98a20b"
                            },
                            {
                                "name": "approved",
                                "type": "address",
                                "value": "0x2f18f339620a63e43f0839eeb18d7de1e1be4dfb"
                            },
                            {
                                "decimalAvailable": true,
                                "name": "tokenId",
                                "type": "uint256",
                                "value": "1,155"
                            }
                        ],
                        "signature": "Approval(address,address,uint256)"
                    },
                    "id": 8,
                    "logData": "0x",
                    "logDecoded": true,
                    "operation": "EVENT",
                    "revert": false,
                    "status": true,
                    "topics": [
                        "0x8c5be1e5ebec7d5bd14f71427d1e84f3dd0314c0f7b2291e5b200ac8c7c3b925",
                        "0x00000000000000000000000029469395eaf6f95920e59f858042f0e28d98a20b",
                        "0x0000000000000000000000002f18f339620a63e43f0839eeb18d7de1e1be4dfb",
                        "0x0000000000000000000000000000000000000000000000000000000000000483"
                    ]
                },
                "nodeType": 1
            },
            "9": {
                "invocation": {
                    "address": "0xb2ecfe4e4d61f8790bbb9de2d1259b9e2410cea5",
                    "callData": "0x000000000000000000000000000000000000000000000000000000000000004000000000000000000000000000000000000000000000000000000000000003800000000000000000000000005802e0c5e3a0d87f9de0be710add41c54b4f1eb4000000000000000000000000524cab2ec69124574082676e6f654a18df49a048ec742f642749f4c894a93a70cbf00009a044ef933c8cdfa8d18de723630b43610000000000000000000000000000000000000000000000000000000000000001000000000000000000000000000000000000000000000000000000006852397600000000000000000000000000000000000000000000000000000000000000000000000000000000000000000000000000000000000000000000000000000000000000000000000000000000000000000000000000000000000000000000000000000000000000000000000000000000be5fd61df39c9ad551d80c5ea465199400000000000000000000000000000000000000000000000000000000000001a00000000000000000000000000000000000000000000000000000000000000000000000000000000000000000000000000000000000000000000000000000000000000000000000000000000000000000000000000000000000000000000002c00000000000000000000000000000000000000000000000000000000000000000000000000000000000000000000000000000000000000000000000000000010000000000000000000000000000000000000000000000000000000000000000000000000000000000000000000000000000000000000000000000000000000000000000000000000000000000000000000000000000000000000000000000000100000000000000000000000000000000000000000000000009b6e64a8ec6000000000000000000000000000000000000000000000000000000000000000004830000000000000000000000000000000000000000000000000000000000000001000000000000000000000000000000000000000000000000000000000000000000000000000000000000000000000000000000000000000000000000000000412905b197de7a70ef7d19adb0eda0c314c671856302445203df97033dc183b2dd5fe0da6b15863e04d4be2698cfdb76e28aa95d9ef5708506b837102398b5085f1b000000000000000000000000000000000000000000000000000000000000000000000000000000000000000000000000000000000000000000000000000059b99c10a0db0c3b91b764f3ce0dba96b37d8c2e0745cea16c276d556bd3fe97aa365ecd500d51dc5bd454c962c1333f6af87b05b8cda290d85022a9ab20f457041b0132f3286af68e5d010513ff70a3aaed9afeb8661116e6ce00000000000000",
                    "decodedMethod": {
                        "callParams": [
                            {
                                "name": "inputs",
                                "type": "((address,address,bytes32,uint256,uint256,uint8,(address,uint16),uint256),(uint256,bytes32[],(uint256,uint256,uint256,uint256),(uint256,uint256)),(address,uint16),bytes)",
                                "value": [
                                    {
                                        "name": "order",
                                        "type": "(address,address,bytes32,uint256,uint256,uint8,(address,uint16),uint256)",
                                        "value": [
                                            {
                                                "name": "trader",
                                                "type": "address",
                                                "value": "0x5802e0c5e3a0d87f9de0be710add41c54b4f1eb4"
                                            },
                                            {
                                                "name": "collection",
                                                "type": "address",
                                                "value": "0x524cab2ec69124574082676e6f654a18df49a048"
                                            },
                                            {
                                                "name": "listingsRoot",
                                                "type": "bytes32",
                                                "value": "0xec742f642749f4c894a93a70cbf00009a044ef933c8cdfa8d18de723630b4361"
                                            },
                                            {
                                                "name": "numberOfListings",
                                                "type": "uint256",
                                                "value": "1"
                                            },
                                            {
                                                "name": "expirationTime",
                                                "type": "uint256",
                                                "value": "1,750,219,126"
                                            },
                                            {
                                                "name": "assetType",
                                                "type": "uint8",
                                                "value": "0"
                                            },
                                            {
                                                "name": "makerFee",
                                                "type": "(address,uint16)",
                                                "value": [
                                                    {
                                                        "name": "recipient",
                                                        "type": "address",
                                                        "value": "0x0000000000000000000000000000000000000000"
                                                    },
                                                    {
                                                        "name": "rate",
                                                        "type": "uint16",
                                                        "value": "0"
                                                    }
                                                ]
                                            },
                                            {
                                                "name": "salt",
                                                "type": "uint256",
                                                "value": "253,050,930,209,360,899,841,509,314,318,630,721,940"
                                            }
                                        ]
                                    },
                                    {
                                        "name": "exchange",
                                        "type": "(uint256,bytes32[],(uint256,uint256,uint256,uint256),(uint256,uint256))",
                                        "value": [
                                            {
                                                "name": "index",
                                                "type": "uint256",
                                                "value": "0"
                                            },
                                            {
                                                "name": "proof",
                                                "type": "bytes32[]",
                                                "value": []
                                            },
                                            {
                                                "name": "listing",
                                                "type": "(uint256,uint256,uint256,uint256)",
                                                "value": [
                                                    {
                                                        "name": "index",
                                                        "type": "uint256",
                                                        "value": "0"
                                                    },
                                                    {
                                                        "name": "tokenId",
                                                        "type": "uint256",
                                                        "value": "0"
                                                    },
                                                    {
                                                        "name": "amount",
                                                        "type": "uint256",
                                                        "value": "1"
                                                    },
                                                    {
                                                        "name": "price",
                                                        "type": "uint256",
                                                        "value": "700,000,000,000,000,000"
                                                    }
                                                ]
                                            },
                                            {
                                                "name": "taker",
                                                "type": "(uint256,uint256)",
                                                "value": [
                                                    {
                                                        "name": "tokenId",
                                                        "type": "uint256",
                                                        "value": "1,155"
                                                    },
                                                    {
                                                        "name": "amount",
                                                        "type": "uint256",
                                                        "value": "1"
                                                    }
                                                ]
                                            }
                                        ]
                                    },
                                    {
                                        "name": "takerFee",
                                        "type": "(address,uint16)",
                                        "value": [
                                            {
                                                "name": "recipient",
                                                "type": "address",
                                                "value": "0x0000000000000000000000000000000000000000"
                                            },
                                            {
                                                "name": "rate",
                                                "type": "uint16",
                                                "value": "0"
                                            }
                                        ]
                                    },
                                    {
                                        "name": "signature",
                                        "type": "bytes",
                                        "value": "0x2905b197de7a70ef7d19adb0eda0c314c671856302445203df97033dc183b2dd5fe0da6b15863e04d4be2698cfdb76e28aa95d9ef5708506b837102398b5085f1b"
                                    }
                                ]
                            },
                            {
                                "name": "oracleSignature",
                                "type": "bytes",
                                "value": "0xb99c10a0db0c3b91b764f3ce0dba96b37d8c2e0745cea16c276d556bd3fe97aa365ecd500d51dc5bd454c962c1333f6af87b05b8cda290d85022a9ab20f457041b0132f3286af68e5d010513ff70a3aaed9afeb8661116e6ce"
                            }
                        ],
                        "constructorArguments": "",
                        "name": "takeBidSingle",
                        "returnParams": [],
                        "signature": "takeBidSingle(((address,address,bytes32,uint256,uint256,uint8,(address,uint16),uint256),(uint256,bytes32[],(uint256,uint256,uint256,uint256),(uint256,uint256)),(address,uint16),bytes),bytes)"
                    },
                    "errorInfo": "",
                    "fromAddress": "0x29469395eaf6f95920e59f858042f0e28d98a20b",
                    "gasUsed": 110815,
                    "id": 9,
                    "methodDecoded": true,
                    "operation": "CALL",
                    "output": "",
                    "revert": false,
                    "revertMessage": "",
                    "selector": "0xda815cb5",
                    "status": true,
                    "value": "0"
                },
                "nodeType": 0
            }
        },
        "gasFlame": [
            {
                "children": [
                    {
                        "children": [
                            {
                                "children": [],
                                "depth": 0,
                                "name": "Initial Gas",
                                "value": 29764
                            },
                            {
                                "children": [
                                    {
                                        "children": [
                                            {
                                                "children": [],
                                                "depth": 2,
                                                "name": "computeCurrentDebt",
                                                "value": 1468
                                            },
                                            {
                                                "children": [
                                                    {
                                                        "children": [
                                                            {
                                                                "children": [],
                                                                "depth": 4,
                                                                "name": "balanceOf",
                                                                "value": 2536
                                                            }
                                                        ],
                                                        "depth": 3,
                                                        "name": "balanceOf",
                                                        "value": 7422
                                                    },
                                                    {
                                                        "children": [],
                                                        "depth": 3,
                                                        "name": "approve",
                                                        "value": 27200
                                                    },
                                                    {
                                                        "children": [
                                                            {
                                                                "children": [
                                                                    {
                                                                        "children": [],
                                                                        "depth": 5,
                                                                        "name": "ecrecover",
                                                                        "value": 3000
                                                                    },
                                                                    {
                                                                        "children": [],
                                                                        "depth": 5,
                                                                        "name": "ecrecover",
                                                                        "value": 3000
                                                                    },
                                                                    {
                                                                        "children": [
                                                                            {
                                                                                "children": [],
                                                                                "depth": 6,
                                                                                "name": "safeTransferFrom",
                                                                                "value": 22705
                                                                            }
                                                                        ],
                                                                        "depth": 5,
                                                                        "name": "transfer",
                                                                        "value": 24129
                                                                    },
                                                                    {
                                                                        "children": [
                                                                            {
                                                                                "children": [],
                                                                                "depth": 6,
                                                                                "name": "transferFrom",
                                                                                "value": 28031
                                                                            }
                                                                        ],
                                                                        "depth": 5,
                                                                        "name": "transferFrom",
                                                                        "value": 28426
                                                                    }
                                                                ],
                                                                "depth": 4,
                                                                "name": "takeBidSingle",
                                                                "value": 105747
                                                            }
                                                        ],
                                                        "depth": 3,
                                                        "name": "takeBidSingle",
                                                        "value": 110815
                                                    },
                                                    {
                                                        "children": [
                                                            {
                                                                "children": [],
                                                                "depth": 4,
                                                                "name": "balanceOf",
                                                                "value": 536
                                                            }
                                                        ],
                                                        "depth": 3,
                                                        "name": "balanceOf",
                                                        "value": 922
                                                    },
                                                    {
                                                        "children": [
                                                            {
                                                                "children": [],
                                                                "depth": 4,
                                                                "name": "transferFrom",
                                                                "value": 8169
                                                            }
                                                        ],
                                                        "depth": 3,
                                                        "name": "transferFrom",
                                                        "value": 8564
                                                    },
                                                    {
                                                        "children": [
                                                            {
                                                                "children": [],
                                                                "depth": 4,
                                                                "name": "transferFrom",
                                                                "value": 8169
                                                            }
                                                        ],
                                                        "depth": 3,
                                                        "name": "transferFrom",
                                                        "value": 8564
                                                    }
                                                ],
                                                "depth": 2,
                                                "name": "0xe7fbdddb",
                                                "value": 179543
                                            }
                                        ],
                                        "depth": 1,
                                        "name": "takeBidV2",
                                        "value": 195601
                                    }
                                ],
                                "depth": 0,
                                "name": "Executed Gas",
                                "value": 200705
                            }
                        ],
                        "depth": -1,
                        "name": "Actual Gas Used",
                        "value": 185869
                    },
                    {
                        "children": [],
                        "depth": -1,
                        "name": "Refunded Gas",
                        "value": 44600
                    }
                ],
                "depth": -2,
                "name": "Total Gas",
                "value": 230469
            }
        ],
        "isConfirmed": true,
        "mainTrace": [
            {
                "children": [
                    {
                        "children": [
                            {
                                "children": [
                                    {
                                        "children": [],
                                        "depth": 2,
                                        "id": 2,
                                        "order": 2
                                    },
                                    {
                                        "children": [],
                                        "depth": 2,
                                        "id": 3,
                                        "order": 3
                                    },
                                    {
                                        "children": [
                                            {
                                                "children": [
                                                    {
                                                        "children": [],
                                                        "depth": 4,
                                                        "id": 6,
                                                        "order": 6
                                                    }
                                                ],
                                                "depth": 3,
                                                "id": 5,
                                                "order": 5
                                            },
                                            {
                                                "children": [
                                                    {
                                                        "children": [],
                                                        "depth": 4,
                                                        "id": 8,
                                                        "order": 8
                                                    }
                                                ],
                                                "depth": 3,
                                                "id": 7,
                                                "order": 7
                                            },
                                            {
                                                "children": [
                                                    {
                                                        "children": [
                                                            {
                                                                "children": [],
                                                                "depth": 5,
                                                                "id": 11,
                                                                "order": 11
                                                            },
                                                            {
                                                                "children": [],
                                                                "depth": 5,
                                                                "id": 12,
                                                                "order": 12
                                                            },
                                                            {
                                                                "children": [
                                                                    {
                                                                        "children": [
                                                                            {
                                                                                "children": [],
                                                                                "depth": 7,
                                                                                "id": 15,
                                                                                "order": 15
                                                                            },
                                                                            {
                                                                                "children": [],
                                                                                "depth": 7,
                                                                                "id": 16,
                                                                                "order": 16
                                                                            }
                                                                        ],
                                                                        "depth": 6,
                                                                        "id": 14,
                                                                        "order": 14
                                                                    }
                                                                ],
                                                                "depth": 5,
                                                                "id": 13,
                                                                "order": 13
                                                            },
                                                            {
                                                                "children": [
                                                                    {
                                                                        "children": [
                                                                            {
                                                                                "children": [],
                                                                                "depth": 7,
                                                                                "id": 19,
                                                                                "order": 19
                                                                            }
                                                                        ],
                                                                        "depth": 6,
                                                                        "id": 18,
                                                                        "order": 18
                                                                    }
                                                                ],
                                                                "depth": 5,
                                                                "id": 17,
                                                                "order": 17
                                                            },
                                                            {
                                                                "children": [],
                                                                "depth": 5,
                                                                "id": 20,
                                                                "order": 20
                                                            }
                                                        ],
                                                        "depth": 4,
                                                        "id": 10,
                                                        "order": 10
                                                    }
                                                ],
                                                "depth": 3,
                                                "id": 9,
                                                "order": 9
                                            },
                                            {
                                                "children": [
                                                    {
                                                        "children": [],
                                                        "depth": 4,
                                                        "id": 22,
                                                        "order": 22
                                                    }
                                                ],
                                                "depth": 3,
                                                "id": 21,
                                                "order": 21
                                            },
                                            {
                                                "children": [
                                                    {
                                                        "children": [
                                                            {
                                                                "children": [],
                                                                "depth": 5,
                                                                "id": 25,
                                                                "order": 25
                                                            }
                                                        ],
                                                        "depth": 4,
                                                        "id": 24,
                                                        "order": 24
                                                    }
                                                ],
                                                "depth": 3,
                                                "id": 23,
                                                "order": 23
                                            },
                                            {
                                                "children": [
                                                    {
                                                        "children": [
                                                            {
                                                                "children": [],
                                                                "depth": 5,
                                                                "id": 28,
                                                                "order": 28
                                                            }
                                                        ],
                                                        "depth": 4,
                                                        "id": 27,
                                                        "order": 27
                                                    }
                                                ],
                                                "depth": 3,
                                                "id": 26,
                                                "order": 26
                                            }
                                        ],
                                        "depth": 2,
                                        "id": 4,
                                        "order": 4
                                    }
                                ],
                                "depth": 1,
                                "id": 1,
                                "order": 1
                            }
                        ],
                        "depth": 0,
                        "id": 0,
                        "order": 0
                    }
                ],
                "depth": -1,
                "id": -1,
                "order": -1
            }
        ],
        "mainTraceNodeCount": 29,
        "parentIdMap": {
            "0": -1,
            "1": 0,
            "10": 9,
            "11": 10,
            "12": 10,
            "13": 10,
            "14": 13,
            "15": 14,
            "16": 14,
            "17": 10,
            "18": 17,
            "19": 18,
            "2": 1,
            "20": 10,
            "21": 4,
            "22": 21,
            "23": 4,
            "24": 23,
            "25": 24,
            "26": 4,
            "27": 26,
            "28": 27,
            "3": 1,
            "4": 1,
            "5": 4,
            "6": 5,
            "7": 4,
            "8": 7,
            "9": 4
        },
        "tidyTrace": [
            {
                "children": [
                    {
                        "children": [
                            {
                                "children": [
                                    {
                                        "children": [],
                                        "depth": 2,
                                        "id": 2,
                                        "order": 2
                                    },
                                    {
                                        "children": [],
                                        "depth": 2,
                                        "id": 3,
                                        "order": 3
                                    },
                                    {
                                        "children": [
                                            {
                                                "children": [
                                                    {
                                                        "children": [],
                                                        "depth": 4,
                                                        "id": 8,
                                                        "order": 8
                                                    }
                                                ],
                                                "depth": 3,
                                                "id": 7,
                                                "order": 7
                                            },
                                            {
                                                "children": [
                                                    {
                                                        "children": [
                                                            {
                                                                "children": [
                                                                    {
                                                                        "children": [
                                                                            {
                                                                                "children": [],
                                                                                "depth": 7,
                                                                                "id": 15,
                                                                                "order": 15
                                                                            },
                                                                            {
                                                                                "children": [],
                                                                                "depth": 7,
                                                                                "id": 16,
                                                                                "order": 16
                                                                            }
                                                                        ],
                                                                        "depth": 6,
                                                                        "id": 14,
                                                                        "order": 14
                                                                    }
                                                                ],
                                                                "depth": 5,
                                                                "id": 13,
                                                                "order": 13
                                                            },
                                                            {
                                                                "children": [
                                                                    {
                                                                        "children": [
                                                                            {
                                                                                "children": [],
                                                                                "depth": 7,
                                                                                "id": 19,
                                                                                "order": 19
                                                                            }
                                                                        ],
                                                                        "depth": 6,
                                                                        "id": 18,
                                                                        "order": 18
                                                                    }
                                                                ],
                                                                "depth": 5,
                                                                "id": 17,
                                                                "order": 17
                                                            },
                                                            {
                                                                "children": [],
                                                                "depth": 5,
                                                                "id": 20,
                                                                "order": 20
                                                            }
                                                        ],
                                                        "depth": 4,
                                                        "id": 10,
                                                        "order": 10
                                                    }
                                                ],
                                                "depth": 3,
                                                "id": 9,
                                                "order": 9
                                            },
                                            {
                                                "children": [
                                                    {
                                                        "children": [
                                                            {
                                                                "children": [],
                                                                "depth": 5,
                                                                "id": 25,
                                                                "order": 25
                                                            }
                                                        ],
                                                        "depth": 4,
                                                        "id": 24,
                                                        "order": 24
                                                    }
                                                ],
                                                "depth": 3,
                                                "id": 23,
                                                "order": 23
                                            },
                                            {
                                                "children": [
                                                    {
                                                        "children": [
                                                            {
                                                                "children": [],
                                                                "depth": 5,
                                                                "id": 28,
                                                                "order": 28
                                                            }
                                                        ],
                                                        "depth": 4,
                                                        "id": 27,
                                                        "order": 27
                                                    }
                                                ],
                                                "depth": 3,
                                                "id": 26,
                                                "order": 26
                                            }
                                        ],
                                        "depth": 2,
                                        "id": 4,
                                        "order": 4
                                    }
                                ],
                                "depth": 1,
                                "id": 1,
                                "order": 1
                            }
                        ],
                        "depth": 0,
                        "id": 0,
                        "order": 0
                    }
                ],
                "depth": -1,
                "id": -1,
                "order": -1
            }
        ],
        "tidyTraceNodeCount": 23
    },
    "state_change": {
        "stateChanges": [
            {
                "address": "0x0000000000a39bb272e79075ade125fd351887ac",
                "erc": "",
                "slots": [
                    {
                        "current": "0x000000000000000000000000000000000000000000000000097814761159bfaa",
                        "key": "0x5a2adf95733ed1189868615fc14b6dfd68eb4ae2fa759218e6aec506a4704af0",
                        "prev": "0x0000000000000000000000000000000000000000000000000631132efdd680b2"
                    },
                    {
                        "current": "0x000000000000000000000000000000000000000000000000794fa8b4402e0ab2",
                        "key": "0x3b69846ff2712ec18233cb654d8b517aad15b6af6cde4bf9bceb7779b8b7d008",
                        "prev": "0x00000000000000000000000000000000000000000000000083068efecef40ab2"
                    },
                    {
                        "current": "0x00000000000000000000000000000000000000000000000354b1fb8e202266f3",
                        "key": "0xa5a87764d7ae4eaa2c32e7fa784dba011229af02c7bfd28e6173ff1b6d8b5f3d",
                        "prev": "0x0000000000000000000000000000000000000000000000034e42168aa4dfa5eb"
                    }
                ],
                "storageVariables": [
                    {
                        "name": "_balances",
                        "type": "mapping(address => uint256)",
                        "value": {
                            "pairs": [
                                {
                                    "key": "0x0865ef935247eb8cd43d655e7989615d8c61f7c8",
                                    "value": {
                                        "current": "682317840876421034",
                                        "prev": "446158930634506418",
                                        "typeTag": 1
                                    }
                                },
                                {
                                    "key": "0x5802e0c5e3a0d87f9de0be710add41c54b4f1eb4",
                                    "value": {
                                        "current": "8741390893873760946",
                                        "prev": "9441390893873760946",
                                        "typeTag": 1
                                    }
                                },
                                {
                                    "key": "0x9c731c50fb63ee893121245b58816e212f64df6e",
                                    "value": {
                                        "current": "61443167779035440883",
                                        "prev": "60979326689277355499",
                                        "typeTag": 1
                                    }
                                }
                            ],
                            "typeTag": 4
                        }
                    }
                ]
            },
            {
                "address": "0x29469395eaf6f95920e59f858042f0e28d98a20b",
                "erc": "",
                "slots": [
                    {
                        "current": "0x0000000000000000000000000000000000000000000000000000000000000000",
                        "key": "0xb8f47fa7fd7a514f3f6ed0ac8184b7af70a58b27a1d08b2b4d2ad79aadbe4e9f",
                        "prev": "0xf10178631a823ac1462b73b35c0ca1fc9699c68b28097992b5ab12c5fbf01cfb"
                    }
                ],
                "storageVariables": [
                    {
                        "name": "liens",
                        "type": "mapping(uint256 => bytes32)",
                        "value": {
                            "pairs": [
                                {
                                    "key": "299222",
                                    "value": {
                                        "current": "0x0000000000000000000000000000000000000000000000000000000000000000",
                                        "prev": "0xf10178631a823ac1462b73b35c0ca1fc9699c68b28097992b5ab12c5fbf01cfb",
                                        "typeTag": 1
                                    }
                                }
                            ],
                            "typeTag": 4
                        }
                    }
                ]
            },
            {
                "address": "0x524cab2ec69124574082676e6f654a18df49a048",
                "erc": "ERC-721",
                "slots": [
                    {
                        "current": "0x0000000000000000000000000000000000000000000000000000000000000274",
                        "key": "0xbeb927c11da198cac04ec1d81f444b65cd1d20976d028ad6d4f26608250e2e66",
                        "prev": "0x0000000000000000000000000000000000000000000000000000000000000275"
                    },
                    {
                        "current": "0x0000000000000000000000000000000000000000000000000000000000000003",
                        "key": "0x6d04c98aed57913b5d868c23cb591f3f342892c44fbdbb83513c40a42759cf29",
                        "prev": "0x0000000000000000000000000000000000000000000000000000000000000002"
                    },
                    {
                        "current": "0x0000000000000000000000005802e0c5e3a0d87f9de0be710add41c54b4f1eb4",
                        "key": "0xeb0b36a3a552c2778f6a7dc72a8e5efd3c46f18fbcd58cea6c570adc8321b8d2",
                        "prev": "0x00000000000000000000000029469395eaf6f95920e59f858042f0e28d98a20b"
                    }
                ],
                "storageVariables": [
                    {
                        "name": "_balances",
                        "type": "mapping(address => uint256)",
                        "value": {
                            "pairs": [
                                {
                                    "key": "0x29469395eaf6f95920e59f858042f0e28d98a20b",
                                    "value": {
                                        "current": "628",
                                        "prev": "629",
                                        "typeTag": 1
                                    }
                                },
                                {
                                    "key": "0x5802e0c5e3a0d87f9de0be710add41c54b4f1eb4",
                                    "value": {
                                        "current": "3",
                                        "prev": "2",
                                        "typeTag": 1
                                    }
                                }
                            ],
                            "typeTag": 4
                        }
                    },
                    {
                        "name": "_owners",
                        "type": "mapping(uint256 => address)",
                        "value": {
                            "pairs": [
                                {
                                    "key": "1155",
                                    "value": {
                                        "current": "0x5802e0c5e3a0d87f9de0be710add41c54b4f1eb4",
                                        "prev": "0x29469395eaf6f95920e59f858042f0e28d98a20b",
                                        "typeTag": 1
                                    }
                                }
                            ],
                            "typeTag": 4
                        }
                    }
                ]
            },
            {
                "address": "0xb2ecfe4e4d61f8790bbb9de2d1259b9e2410cea5",
                "erc": "",
                "slots": [
                    {
                        "current": "0x0000000000000000000000000000000000000000000000000000000000000001",
                        "key": "0xbc2fd2b00727c65ba8a7c949cc6084c0e4752edec903b6c36fa959916d7ec360",
                        "prev": "0x0000000000000000000000000000000000000000000000000000000000000000"
                    }
                ],
                "storageVariables": [
                    {
                        "name": "amountTaken",
                        "type": "mapping(address => mapping(bytes32 => mapping(uint256 => uint256)))",
                        "value": {
                            "pairs": [
                                {
                                    "key": "0x5802e0c5e3a0d87f9de0be710add41c54b4f1eb4",
                                    "value": {
                                        "pairs": [
                                            {
                                                "key": "0xf3d83d9f25e648723807caec18fa4a8e106b7fd897a42b92d0ffed7e8f381d65",
                                                "value": {
                                                    "pairs": [
                                                        {
                                                            "key": "0",
                                                            "value": {
                                                                "current": "1",
                                                                "prev": "0",
                                                                "typeTag": 1
                                                            }
                                                        }
                                                    ],
                                                    "typeTag": 4
                                                }
                                            }
                                        ],
                                        "typeTag": 4
                                    }
                                }
                            ],
                            "typeTag": 4
                        }
                    }
                ]
            }
        ]
    }
}