{
    "balance_change": {
        "balanceChanges": [
            {
                "account": "0x23a98f979b2bd4bfb73d38ef806e77d1f9a50b2e",
                "assets": [
                    {
                        "address": "0x5b7533812759b45c2b44c19e320ba2cd2681b542",
                        "amount": "3,898.392",
                        "iconUrl": "https://assets.blocksec.com/icon/f44f51cd1fc83a13b27bd7681d74f1f997012607855c370a318cd98669a4bbd6.png",
                        "isERC1155": false,
                        "isERC721": false,
                        "sign": false,
                        "value": "2960.0490455999999022"
                    }
                ]
            },
            {
                "account": "0x28c6c06298d514db089934071355e5743bf21d60",
                "assets": [
                    {
                        "address": "0x5b7533812759b45c2b44c19e320ba2cd2681b542",
                        "amount": "3,898.392",
                        "iconUrl": "https://assets.blocksec.com/icon/f44f51cd1fc83a13b27bd7681d74f1f997012607855c370a318cd98669a4bbd6.png",
                        "isERC1155": false,
                        "isERC721": false,
                        "sign": true,
                        "value": "2960.0490455999999022"
                    }
                ]
            }
        ]
    },
    "profile": {
        "basic_info": {
            "baseFee": "21.760843717",
            "blockNumber": 19300884,
            "callData": "0xa9059cbb00000000000000000000000028c6c06298d514db089934071355e5743bf21d600000000000000000000000000000000000000000000000000000005ac43a1f00",
            "debugEnable": true,
            "errorInfo": "",
            "eventCount": 1,
            "feeRecipient": "0x4838b106fce9647bdf1e7877bf73ce8b0bad5f97",
            "formatValue": "0",
            "gasLimit": 73612,
            "gasPrice": "23.160843717",
            "gasUsed": 32006,
            "intTxnCount": 0,
            "internalRevert": false,
            "internalRevertMessage": "",
            "isContractCreation": false,
            "isFlashloan": false,
            "maxFee": "27",
            "nonce": 3,
            "overwritedBlockNumber": -1,
            "priorityFee": "1.4",
            "receiver": "0x5b7533812759b45c2b44c19e320ba2cd2681b542",
            "revertMessage": "",
            "sender": "0x23a98f979b2bd4bfb73d38ef806e77d1f9a50b2e",
            "simulationEnable": true,
            "sourceTxnHash": "0x57f1b3c10833ebdb3bded07981a642669b0c87108b1039e12b4ba1a72802ffe7",
            "status": true,
            "timestamp": "2024-02-25T00:00:11Z",
            "transactionFee": "0.000741285964006302",
            "txnHash": "0x57f1b3c10833ebdb3bded07981a642669b0c87108b1039e12b4ba1a72802ffe7",
            "txnIndex": 193,
            "type": 2,
            "value": "0"
        },
        "fund_flow": [
            {
                "amount": "3,898.392",
                "from": "0x23a98f979b2bd4bfb73d38ef806e77d1f9a50b2e",
                "id": 1,
                "isERC1155": false,
                "isERC721": false,
                "isReverted": false,
                "order": 1,
                "to": "0x28c6c06298d514db089934071355e5743bf21d60",
                "token": "0x5b7533812759b45c2b44c19e320ba2cd2681b542"
            }
        ],
        "token_infos": [
            {
                "address": "0xeeeeeeeeeeeeeeeeeeeeeeeeeeeeeeeeeeeeeeee",
                "decimals": 18
            },
            {
                "address": "0x5b7533812759b45c2b44c19e320ba2cd2681b542",
                "decimals": 8
            },
            {
                "address": "0xc02aaa39b223fe8d0a0e5c4f27ead9083c756cc2",
                "decimals": 18
            }
        ]
    },
    "address_label": {
        "labels": [
            {
                "address": "0x5b7533812759b45c2b44c19e320ba2cd2681b542",
                "label": "SingularityNET: AGIX Token"
            },
            {
                "address": "0x0000000000000000000000000000000000000001",
                "label": "Precompiled"
            },
            {
                "address": "0x0000000000000000000000000000000000000002",
                "label": "Precompiled"
            },
            {
                "address": "0x0000000000000000000000000000000000000003",
                "label": "Precompiled"
            },
            {
                "address": "0x0000000000000000000000000000000000000004",
                "label": "Precompiled"
            },
            {
                "address": "0xeeeeeeeeeeeeeeeeeeeeeeeeeeeeeeeeeeeeeeee",
                "label": "Ether"
            },
            {
                "address": "0x23a98f979b2bd4bfb73d38ef806e77d1f9a50b2e",
                "label": "BINANCE"
            },
            {
                "address": "0x28c6c06298d514db089934071355e5743bf21d60",
                "label": "Binance 14"
            }
        ]
    },
    "trace": {
        "accountLabels": null,
        "dataMap": {
            "-1": {
                "invocation": {
                    "address": "0x23a98f979b2bd4bfb73d38ef806e77d1f9a50b2e",
                    "callData": "",
                    "decodedMethod": null,
                    "errorInfo": "",
                    "fromAddress": "",
                    "gasUsed": 0,
                    "id": -1,
                    "methodDecoded": false,
                    "operation": "",
                    "output": "",
                    "revert": false,
                    "revertMessage": "",
                    "selector": "",
                    "status": false,
                    "value": ""
                },
                "nodeType": 0
            },
            "0": {
                "invocation": {
                    "address": "0x5b7533812759b45c2b44c19e320ba2cd2681b542",
                    "callData": "0x00000000000000000000000028c6c06298d514db089934071355e5743bf21d600000000000000000000000000000000000000000000000000000005ac43a1f00",
                    "decodedMethod": {
                        "callParams": [
                            {
                                "name": "recipient",
                                "type": "address",
                                "value": "0x28c6c06298d514db089934071355e5743bf21d60"
                            },
                            {
                                "decimalAvailable": true,
                                "name": "amount",
                                "type": "uint256",
                                "value": "389,839,200,000"
                            }
                        ],
                        "constructorArguments": "",
                        "name": "transfer",
                        "returnParams": [
                            {
                                "name": "",
                                "type": "bool",
                                "value": true
                            }
                        ],
                        "signature": "transfer(address,uint256)"
                    },
                    "errorInfo": "",
                    "fromAddress": "0x23a98f979b2bd4bfb73d38ef806e77d1f9a50b2e",
                    "gasUsed": 32006,
                    "id": 0,
                    "methodDecoded": true,
                    "operation": "CALL",
                    "output": "0x0000000000000000000000000000000000000000000000000000000000000001",
                    "revert": false,
                    "revertMessage": "",
                    "selector": "0xa9059cbb",
                    "status": true,
                    "value": "0"
                },
                "nodeType": 0
            },
            "1": {
                "event": {
                    "contract": "0x5b7533812759b45c2b44c19e320ba2cd2681b542",
                    "decodedLog": {
                        "name": "Transfer",
                        "params": [
                            {
                                "name": "from",
                                "type": "address",
                                "value": "0x23a98f979b2bd4bfb73d38ef806e77d1f9a50b2e"
                            },
                            {
                                "name": "to",
                                "type": "address",
                                "value": "0x28c6c06298d514db089934071355e5743bf21d60"
                            },
                            {
                                "decimalAvailable": true,
                                "name": "value",
                                "type": "uint256",
                                "value": "389,839,200,000"
                            }
                        ],
                        "signature": "Transfer(address,address,uint256)"
                    },
                    "id": 1,
                    "logData": "0x0000000000000000000000000000000000000000000000000000005ac43a1f00",
                    "logDecoded": true,
                    "operation": "EVENT",
                    "revert": false,
                    "status": true,
                    "topics": [
                        "0xddf252ad1be2c89b69c2b068fc378daa952ba7f163c4a11628f55a4df523b3ef",
                        "0x00000000000000000000000023a98f979b2bd4bfb73d38ef806e77d1f9a50b2e",
                        "0x00000000000000000000000028c6c06298d514db089934071355e5743bf21d60"
                    ]
                },
                "nodeType": 1
            }
        },
        "gasFlame": [
            {
                "children": [
                    {
                        "children": [
                            {
                                "children": [],
                                "depth": 0,
                                "name": "Initial Gas",
                                "value": 21608
                            },
                            {
                                "children": [],
                                "depth": 0,
                                "name": "Executed Gas",
                                "value": 15198
                            }
                        ],
                        "depth": -1,
                        "name": "Actual Gas Used",
                        "value": 32006
                    },
                    {
                        "children": [],
                        "depth": -1,
                        "name": "Refunded Gas",
                        "value": 4800
                    }
                ],
                "depth": -2,
                "name": "Total Gas",
                "value": 36806
            }
        ],
        "isConfirmed": true,
        "mainTrace": [
            {
                "children": [
                    {
                        "children": [
                            {
                                "children": [],
                                "depth": 1,
                                "id": 1,
                                "order": 1
                            }
                        ],
                        "depth": 0,
                        "id": 0,
                        "order": 0
                    }
                ],
                "depth": -1,
                "id": -1,
                "order": -1
            }
        ],
        "mainTraceNodeCount": 2,
        "parentIdMap": {
            "0": -1,
            "1": 0
        },
        "tidyTrace": [
            {
                "children": [
                    {
                        "children": [
                            {
                                "children": [],
                                "depth": 1,
                                "id": 1,
                                "order": 1
                            }
                        ],
                        "depth": 0,
                        "id": 0,
                        "order": 0
                    }
                ],
                "depth": -1,
                "id": -1,
                "order": -1
            }
        ],
        "tidyTraceNodeCount": 2
    },
    "state_change": {
        "stateChanges": [
            {
                "address": "0x5b7533812759b45c2b44c19e320ba2cd2681b542",
                "erc": "ERC-20",
                "slots": [
                    {
                        "current": "0x0000000000000000000000000000000000000000000000000000000000000000",
                        "key": "0x982d0b80176b634b8175048d005683f352f988532dcd88af11e2cce0378a1d01",
                        "prev": "0x0000000000000000000000000000000000000000000000000000005ac43a1f00"
                    },
                    {
                        "current": "0x0000000000000000000000000000000000000000000000000002e579f5c4db76",
                        "key": "0x83bdb921ef22306a5d1cd2076713b14c9c19f333dd4229674ec19884e7413404",
                        "prev": "0x0000000000000000000000000000000000000000000000000002e51f318abc76"
                    }
                ],
                "storageVariables": [
                    {
                        "name": "_balances",
                        "type": "mapping(address => uint256)",
                        "value": {
                            "pairs": [
                                {
                                    "key": "0x23a98f979b2bd4bfb73d38ef806e77d1f9a50b2e",
                                    "value": {
                                        "current": "0",
                                        "prev": "389839200000",
                                        "typeTag": 1
                                    }
                                },
                                {
                                    "key": "0x28c6c06298d514db089934071355e5743bf21d60",
                                    "value": {
                                        "current": "815261930543990",
                                        "prev": "814872091343990",
                                        "typeTag": 1
                                    }
                                }
                            ],
                            "typeTag": 4
                        }
                    }
                ]
            }
        ]
    }
}