{
    "balance_change": {
        "balanceChanges": [
            {
                "account": "0x167a9333bf582556f35bd4d16a7e80e191aa6476",
                "assets": [
                    {
                        "address": "0x10086399dd8c1e3de736724af52587a2044c9fa2",
                        "amount": "159,957.6250285",
                        "iconUrl": "",
                        "isERC1155": false,
                        "isERC721": false,
                        "sign": false,
                        "value": ""
                    }
                ]
            },
            {
                "account": "0x1f35b0e0f2e31ae55b2608f2d61b8cc0e2825a41",
                "assets": [
                    {
                        "address": "0x10086399dd8c1e3de736724af52587a2044c9fa2",
                        "amount": "159,957.6250285",
                        "iconUrl": "",
                        "isERC1155": false,
                        "isERC721": false,
                        "sign": true,
                        "value": ""
                    }
                ]
            }
        ]
    },
    "profile": {
        "basic_info": {
            "baseFee": "",
            "blockNumber": 10415716,
            "callData": "0xa9059cbb0000000000000000000000001f35b0e0f2e31ae55b2608f2d61b8cc0e2825a410000000000000000000000000000000000000000000021df51fa7799fb32c800",
            "debugEnable": true,
            "errorInfo": "",
            "eventCount": 1,
            "feeRecipient": "0x84a0d77c693adabe0ebc48f88b3ffff010577051",
            "formatValue": "0",
            "gasLimit": 150000,
            "gasPrice": "43.54",
            "gasUsed": 58396,
            "intTxnCount": 0,
            "internalRevert": false,
            "internalRevertMessage": "",
            "isContractCreation": false,
            "isFlashloan": false,
            "maxFee": "",
            "nonce": 463940,
            "overwritedBlockNumber": -1,
            "priorityFee": "",
            "receiver": "0x10086399dd8c1e3de736724af52587a2044c9fa2",
            "revertMessage": "",
            "sender": "0x167a9333bf582556f35bd4d16a7e80e191aa6476",
            "simulationEnable": true,
            "sourceTxnHash": "0x57e9052309c180508168b09d9e9b9b78be3a04c66b4f319ff6bddbaf3913c684",
            "status": true,
            "timestamp": "2020-07-08T00:55:20Z",
            "transactionFee": "0.00254256184",
            "txnHash": "0x57e9052309c180508168b09d9e9b9b78be3a04c66b4f319ff6bddbaf3913c684",
            "txnIndex": 11,
            "type": 0,
            "value": "0"
        },
        "fund_flow": [
            {
                "amount": "159,957.6250285",
                "from": "0x167a9333bf582556f35bd4d16a7e80e191aa6476",
                "id": 1,
                "isERC1155": false,
                "isERC721": false,
                "isReverted": false,
                "order": 1,
                "to": "0x1f35b0e0f2e31ae55b2608f2d61b8cc0e2825a41",
                "token": "0x10086399dd8c1e3de736724af52587a2044c9fa2"
            }
        ],
        "token_infos": [
            {
                "address": "0xeeeeeeeeeeeeeeeeeeeeeeeeeeeeeeeeeeeeeeee",
                "decimals": 18
            },
            {
                "address": "0x10086399dd8c1e3de736724af52587a2044c9fa2",
                "decimals": 18
            },
            {
                "address": "0xc02aaa39b223fe8d0a0e5c4f27ead9083c756cc2",
                "decimals": 18
            }
        ]
    },
    "address_label": {
        "labels": [
            {
                "address": "0xeeeeeeeeeeeeeeeeeeeeeeeeeeeeeeeeeeeeeeee",
                "label": "Ether"
            },
            {
                "address": "0x10086399dd8c1e3de736724af52587a2044c9fa2",
                "label": "Digital Gold Exchange: TMTG Token"
            },
            {
                "address": "0x167a9333bf582556f35bd4d16a7e80e191aa6476",
                "label": "Coinone"
            },
            {
                "address": "0x0000000000000000000000000000000000000001",
                "label": "Precompiled"
            },
            {
                "address": "0x0000000000000000000000000000000000000002",
                "label": "Precompiled"
            },
            {
                "address": "0x0000000000000000000000000000000000000003",
                "label": "Precompiled"
            },
            {
                "address": "0x0000000000000000000000000000000000000004",
                "label": "Precompiled"
            }
        ]
    },
    "trace": {
        "accountLabels": null,
        "dataMap": {
            "-1": {
                "invocation": {
                    "address": "0x167a9333bf582556f35bd4d16a7e80e191aa6476",
                    "callData": "",
                    "decodedMethod": null,
                    "errorInfo": "",
                    "fromAddress": "",
                    "gasUsed": 0,
                    "id": -1,
                    "methodDecoded": false,
                    "operation": "",
                    "output": "",
                    "revert": false,
                    "revertMessage": "",
                    "selector": "",
                    "status": false,
                    "value": ""
                },
                "nodeType": 0
            },
            "0": {
                "invocation": {
                    "address": "0x10086399dd8c1e3de736724af52587a2044c9fa2",
                    "callData": "0x0000000000000000000000001f35b0e0f2e31ae55b2608f2d61b8cc0e2825a410000000000000000000000000000000000000000000021df51fa7799fb32c800",
                    "decodedMethod": {
                        "callParams": [
                            {
                                "name": "_to",
                                "type": "address",
                                "value": "0x1f35b0e0f2e31ae55b2608f2d61b8cc0e2825a41"
                            },
                            {
                                "decimalAvailable": true,
                                "name": "_value",
                                "type": "uint256",
                                "value": "159,957,625,028,500,000,000,000"
                            }
                        ],
                        "constructorArguments": "",
                        "name": "transfer",
                        "returnParams": [
                            {
                                "name": "",
                                "type": "bool",
                                "value": true
                            }
                        ],
                        "signature": "transfer(address,uint256)"
                    },
                    "errorInfo": "",
                    "fromAddress": "0x167a9333bf582556f35bd4d16a7e80e191aa6476",
                    "gasUsed": 58396,
                    "id": 0,
                    "methodDecoded": true,
                    "operation": "CALL",
                    "output": "0x0000000000000000000000000000000000000000000000000000000000000001",
                    "revert": false,
                    "revertMessage": "",
                    "selector": "0xa9059cbb",
                    "status": true,
                    "value": "0"
                },
                "nodeType": 0
            },
            "1": {
                "event": {
                    "contract": "0x10086399dd8c1e3de736724af52587a2044c9fa2",
                    "decodedLog": {
                        "name": "Transfer",
                        "params": [
                            {
                                "name": "from",
                                "type": "address",
                                "value": "0x167a9333bf582556f35bd4d16a7e80e191aa6476"
                            },
                            {
                                "name": "to",
                                "type": "address",
                                "value": "0x1f35b0e0f2e31ae55b2608f2d61b8cc0e2825a41"
                            },
                            {
                                "decimalAvailable": true,
                                "name": "value",
                                "type": "uint256",
                                "value": "159,957,625,028,500,000,000,000"
                            }
                        ],
                        "signature": "Transfer(address,address,uint256)"
                    },
                    "id": 1,
                    "logData": "0x0000000000000000000000000000000000000000000021df51fa7799fb32c800",
                    "logDecoded": true,
                    "operation": "EVENT",
                    "revert": false,
                    "status": true,
                    "topics": [
                        "0xddf252ad1be2c89b69c2b068fc378daa952ba7f163c4a11628f55a4df523b3ef",
                        "0x000000000000000000000000167a9333bf582556f35bd4d16a7e80e191aa6476",
                        "0x0000000000000000000000001f35b0e0f2e31ae55b2608f2d61b8cc0e2825a41"
                    ]
                },
                "nodeType": 1
            }
        },
        "gasFlame": [
            {
                "children": [
                    {
                        "children": [
                            {
                                "children": [],
                                "depth": 0,
                                "name": "Initial Gas",
                                "value": 21668
                            },
                            {
                                "children": [],
                                "depth": 0,
                                "name": "Executed Gas",
                                "value": 36728
                            }
                        ],
                        "depth": -1,
                        "name": "Actual Gas Used",
                        "value": 58396
                    },
                    {
                        "children": [],
                        "depth": -1,
                        "name": "Refunded Gas",
                        "value": 0
                    }
                ],
                "depth": -2,
                "name": "Total Gas",
                "value": 58396
            }
        ],
        "isConfirmed": true,
        "mainTrace": [
            {
                "children": [
                    {
                        "children": [
                            {
                                "children": [],
                                "depth": 1,
                                "id": 1,
                                "order": 1
                            }
                        ],
                        "depth": 0,
                        "id": 0,
                        "order": 0
                    }
                ],
                "depth": -1,
                "id": -1,
                "order": -1
            }
        ],
        "mainTraceNodeCount": 2,
        "parentIdMap": {
            "0": -1,
            "1": 0
        },
        "tidyTrace": [
            {
                "children": [
                    {
                        "children": [
                            {
                                "children": [],
                                "depth": 1,
                                "id": 1,
                                "order": 1
                            }
                        ],
                        "depth": 0,
                        "id": 0,
                        "order": 0
                    }
                ],
                "depth": -1,
                "id": -1,
                "order": -1
            }
        ],
        "tidyTraceNodeCount": 2
    },
    "state_change": {
        "stateChanges": [
            {
                "address": "0x10086399dd8c1e3de736724af52587a2044c9fa2",
                "erc": "ERC-20",
                "slots": [
                    {
                        "current": "0x000000000000000000000000000000000000000000362a21d1da765e7d568800",
                        "key": "0x4d88f0a404a8d175315ab882ebd7f10f8cf65eecffd2583538324af324ac122c",
                        "prev": "0x000000000000000000000000000000000000000000364c0123d4edf878895000"
                    },
                    {
                        "current": "0x0000000000000000000000000000000000000000000021df51fa7799fb32c800",
                        "key": "0x142495d8b48b7bd8e4adad7ff280b95780472795a59d776ce64b24755085d3ec",
                        "prev": "0x0000000000000000000000000000000000000000000000000000000000000000"
                    }
                ],
                "storageVariables": [
                    {
                        "name": "balances",
                        "type": "mapping(address => uint256)",
                        "value": {
                            "pairs": [
                                {
                                    "key": "0x167a9333bf582556f35bd4d16a7e80e191aa6476",
                                    "value": {
                                        "current": "65480957515553780000000000",
                                        "prev": "65640915140582280000000000",
                                        "typeTag": 1
                                    }
                                },
                                {
                                    "key": "0x1f35b0e0f2e31ae55b2608f2d61b8cc0e2825a41",
                                    "value": {
                                        "current": "159957625028500000000000",
                                        "prev": "0",
                                        "typeTag": 1
                                    }
                                }
                            ],
                            "typeTag": 4
                        }
                    }
                ]
            }
        ]
    }
}