{
    "balance_change": {
        "balanceChanges": [
            {
                "account": "0xf0841d4fd12497395327ecc7e8b8ef34edf28374",
                "assets": [
                    {
                        "address": "0x6baf7fcea90b0968dc5ed7b8dcb76c986637ff55",
                        "amount": "150",
                        "iconUrl": "",
                        "isERC1155": false,
                        "isERC721": false,
                        "sign": false,
                        "value": ""
                    }
                ]
            },
            {
                "account": "0x6e9693b9f2b9344c7007aa13dfd022fc678177ba",
                "assets": [
                    {
                        "address": "0x6baf7fcea90b0968dc5ed7b8dcb76c986637ff55",
                        "amount": "150",
                        "iconUrl": "",
                        "isERC1155": false,
                        "isERC721": false,
                        "sign": true,
                        "value": ""
                    }
                ]
            }
        ]
    },
    "profile": {
        "basic_info": {
            "baseFee": "",
            "blockNumber": 5773847,
            "callData": "0xa9059cbb0000000000000000000000006e9693b9f2b9344c7007aa13dfd022fc678177ba00000000000000000000000000000000000000000000000821ab0d4414980000",
            "debugEnable": true,
            "errorInfo": "",
            "eventCount": 1,
            "feeRecipient": "0xf3b9d2c81f2b24b0fa0acaaa865b7d9ced5fc2fb",
            "formatValue": "0",
            "gasLimit": 38432,
            "gasPrice": "2",
            "gasUsed": 23432,
            "intTxnCount": 0,
            "internalRevert": false,
            "internalRevertMessage": "",
            "isContractCreation": false,
            "isFlashloan": false,
            "maxFee": "",
            "nonce": 13,
            "overwritedBlockNumber": -1,
            "priorityFee": "",
            "receiver": "0x6baf7fcea90b0968dc5ed7b8dcb76c986637ff55",
            "revertMessage": "",
            "sender": "0xf0841d4fd12497395327ecc7e8b8ef34edf28374",
            "simulationEnable": true,
            "sourceTxnHash": "0x5707c147a5b1c5ef892bb433c4bab44ce640cf8bcf6b9bf9de74327a09fba172",
            "status": true,
            "timestamp": "2018-06-12T03:48:34Z",
            "transactionFee": "0.000046864",
            "txnHash": "0x5707c147a5b1c5ef892bb433c4bab44ce640cf8bcf6b9bf9de74327a09fba172",
            "txnIndex": 62,
            "type": 0,
            "value": "0"
        },
        "fund_flow": [
            {
                "amount": "150",
                "from": "0xf0841d4fd12497395327ecc7e8b8ef34edf28374",
                "id": 1,
                "isERC1155": false,
                "isERC721": false,
                "isReverted": false,
                "order": 1,
                "to": "0x6e9693b9f2b9344c7007aa13dfd022fc678177ba",
                "token": "0x6baf7fcea90b0968dc5ed7b8dcb76c986637ff55"
            }
        ],
        "token_infos": [
            {
                "address": "0x6baf7fcea90b0968dc5ed7b8dcb76c986637ff55",
                "decimals": 18
            },
            {
                "address": "0xc02aaa39b223fe8d0a0e5c4f27ead9083c756cc2",
                "decimals": 18
            },
            {
                "address": "0xeeeeeeeeeeeeeeeeeeeeeeeeeeeeeeeeeeeeeeee",
                "decimals": 18
            }
        ]
    },
    "address_label": {
        "labels": [
            {
                "address": "0xeeeeeeeeeeeeeeeeeeeeeeeeeeeeeeeeeeeeeeee",
                "label": "Ether"
            },
            {
                "address": "0x6baf7fcea90b0968dc5ed7b8dcb76c986637ff55",
                "label": "Hooli Coin Blockchain (HLI)"
            },
            {
                "address": "0x0000000000000000000000000000000000000001",
                "label": "Precompiled"
            },
            {
                "address": "0x0000000000000000000000000000000000000002",
                "label": "Precompiled"
            },
            {
                "address": "0x0000000000000000000000000000000000000003",
                "label": "Precompiled"
            },
            {
                "address": "0x0000000000000000000000000000000000000004",
                "label": "Precompiled"
            }
        ]
    },
    "trace": {
        "accountLabels": null,
        "dataMap": {
            "-1": {
                "invocation": {
                    "address": "0xf0841d4fd12497395327ecc7e8b8ef34edf28374",
                    "callData": "",
                    "decodedMethod": null,
                    "errorInfo": "",
                    "fromAddress": "",
                    "gasUsed": 0,
                    "id": -1,
                    "methodDecoded": false,
                    "operation": "",
                    "output": "",
                    "revert": false,
                    "revertMessage": "",
                    "selector": "",
                    "status": false,
                    "value": ""
                },
                "nodeType": 0
            },
            "0": {
                "invocation": {
                    "address": "0x6baf7fcea90b0968dc5ed7b8dcb76c986637ff55",
                    "callData": "0x0000000000000000000000006e9693b9f2b9344c7007aa13dfd022fc678177ba00000000000000000000000000000000000000000000000821ab0d4414980000",
                    "decodedMethod": {
                        "callParams": [
                            {
                                "name": "_to",
                                "type": "address",
                                "value": "0x6e9693b9f2b9344c7007aa13dfd022fc678177ba"
                            },
                            {
                                "decimalAvailable": true,
                                "name": "_value",
                                "type": "uint256",
                                "value": "150,000,000,000,000,000,000"
                            }
                        ],
                        "constructorArguments": "",
                        "name": "transfer",
                        "returnParams": [],
                        "signature": "transfer(address,uint256)"
                    },
                    "errorInfo": "",
                    "fromAddress": "0xf0841d4fd12497395327ecc7e8b8ef34edf28374",
                    "gasUsed": 23432,
                    "id": 0,
                    "methodDecoded": true,
                    "operation": "CALL",
                    "output": "",
                    "revert": false,
                    "revertMessage": "",
                    "selector": "0xa9059cbb",
                    "status": true,
                    "value": "0"
                },
                "nodeType": 0
            },
            "1": {
                "event": {
                    "contract": "0x6baf7fcea90b0968dc5ed7b8dcb76c986637ff55",
                    "decodedLog": {
                        "name": "Transfer",
                        "params": [
                            {
                                "name": "from",
                                "type": "address",
                                "value": "0xf0841d4fd12497395327ecc7e8b8ef34edf28374"
                            },
                            {
                                "name": "to",
                                "type": "address",
                                "value": "0x6e9693b9f2b9344c7007aa13dfd022fc678177ba"
                            },
                            {
                                "decimalAvailable": true,
                                "name": "value",
                                "type": "uint256",
                                "value": "150,000,000,000,000,000,000"
                            }
                        ],
                        "signature": "Transfer(address,address,uint256)"
                    },
                    "id": 1,
                    "logData": "0x00000000000000000000000000000000000000000000000821ab0d4414980000",
                    "logDecoded": true,
                    "operation": "EVENT",
                    "revert": false,
                    "status": true,
                    "topics": [
                        "0xddf252ad1be2c89b69c2b068fc378daa952ba7f163c4a11628f55a4df523b3ef",
                        "0x000000000000000000000000f0841d4fd12497395327ecc7e8b8ef34edf28374",
                        "0x0000000000000000000000006e9693b9f2b9344c7007aa13dfd022fc678177ba"
                    ]
                },
                "nodeType": 1
            }
        },
        "gasFlame": [
            {
                "children": [
                    {
                        "children": [
                            {
                                "children": [],
                                "depth": 0,
                                "name": "Initial Gas",
                                "value": 23256
                            },
                            {
                                "children": [],
                                "depth": 0,
                                "name": "Executed Gas",
                                "value": 15176
                            }
                        ],
                        "depth": -1,
                        "name": "Actual Gas Used",
                        "value": 23432
                    },
                    {
                        "children": [],
                        "depth": -1,
                        "name": "Refunded Gas",
                        "value": 15000
                    }
                ],
                "depth": -2,
                "name": "Total Gas",
                "value": 38432
            }
        ],
        "isConfirmed": true,
        "mainTrace": [
            {
                "children": [
                    {
                        "children": [
                            {
                                "children": [],
                                "depth": 1,
                                "id": 1,
                                "order": 1
                            }
                        ],
                        "depth": 0,
                        "id": 0,
                        "order": 0
                    }
                ],
                "depth": -1,
                "id": -1,
                "order": -1
            }
        ],
        "mainTraceNodeCount": 2,
        "parentIdMap": {
            "0": -1,
            "1": 0
        },
        "tidyTrace": [
            {
                "children": [
                    {
                        "children": [
                            {
                                "children": [],
                                "depth": 1,
                                "id": 1,
                                "order": 1
                            }
                        ],
                        "depth": 0,
                        "id": 0,
                        "order": 0
                    }
                ],
                "depth": -1,
                "id": -1,
                "order": -1
            }
        ],
        "tidyTraceNodeCount": 2
    },
    "state_change": {
        "stateChanges": [
            {
                "address": "0x6baf7fcea90b0968dc5ed7b8dcb76c986637ff55",
                "erc": "",
                "slots": [
                    {
                        "current": "0x0000000000000000000000000000000000000000000000000000000000000000",
                        "key": "0x2873e2185bf0ab90cd1045cf8594f96828f8201af980dcd36a3ee01ec26ff6a7",
                        "prev": "0x00000000000000000000000000000000000000000000000821ab0d4414980000"
                    },
                    {
                        "current": "0x0000000000000000000000000000000000000000000000aac3081695b0780000",
                        "key": "0xd61f1e4eb1e54f42299679f76941e464f60bec2d5d2d375503a773e4ed511c6d",
                        "prev": "0x0000000000000000000000000000000000000000000000a2a15d09519be00000"
                    }
                ],
                "storageVariables": []
            }
        ]
    }
}