{
    "balance_change": {
        "balanceChanges": [
            {
                "account": "0x1fcbee398fa705f1b120fadb46a67ca26740a8d0",
                "assets": [
                    {
                        "address": "0x7bcec0ef877533ab557add0db19f833fdc18181c",
                        "amount": "500",
                        "iconUrl": "",
                        "isERC1155": false,
                        "isERC721": false,
                        "sign": false,
                        "value": ""
                    }
                ]
            },
            {
                "account": "0x07d160e3c4b8d6bb006ad303b3e1400939e5d5b7",
                "assets": [
                    {
                        "address": "0x7bcec0ef877533ab557add0db19f833fdc18181c",
                        "amount": "500",
                        "iconUrl": "",
                        "isERC1155": false,
                        "isERC721": false,
                        "sign": true,
                        "value": ""
                    }
                ]
            }
        ]
    },
    "profile": {
        "basic_info": {
            "baseFee": "",
            "blockNumber": 6554109,
            "callData": "0xa9059cbb00000000000000000000000007d160e3c4b8d6bb006ad303b3e1400939e5d5b70000000000000000000000000000000000000000000000000000000ba43b7400",
            "debugEnable": true,
            "errorInfo": "",
            "eventCount": 1,
            "feeRecipient": "0x41c74604182a1531534e6d553b49b1d78e6fa9a2",
            "formatValue": "0",
            "gasLimit": 49943,
            "gasPrice": "10",
            "gasUsed": 24943,
            "intTxnCount": 0,
            "internalRevert": false,
            "internalRevertMessage": "",
            "isContractCreation": false,
            "isFlashloan": false,
            "maxFee": "",
            "nonce": 7,
            "overwritedBlockNumber": -1,
            "priorityFee": "",
            "receiver": "0x7bcec0ef877533ab557add0db19f833fdc18181c",
            "revertMessage": "",
            "sender": "0x1fcbee398fa705f1b120fadb46a67ca26740a8d0",
            "simulationEnable": true,
            "sourceTxnHash": "0x57f3a785b153d253ece166e4a0ad1a28a0314776ca4c848d2e63e529c4a9f775",
            "status": true,
            "timestamp": "2018-10-21T03:35:07Z",
            "transactionFee": "0.00024943",
            "txnHash": "0x57f3a785b153d253ece166e4a0ad1a28a0314776ca4c848d2e63e529c4a9f775",
            "txnIndex": 16,
            "type": 0,
            "value": "0"
        },
        "fund_flow": [
            {
                "amount": "500",
                "from": "0x1fcbee398fa705f1b120fadb46a67ca26740a8d0",
                "id": 1,
                "isERC1155": false,
                "isERC721": false,
                "isReverted": false,
                "order": 1,
                "to": "0x07d160e3c4b8d6bb006ad303b3e1400939e5d5b7",
                "token": "0x7bcec0ef877533ab557add0db19f833fdc18181c"
            }
        ],
        "token_infos": [
            {
                "address": "0x7bcec0ef877533ab557add0db19f833fdc18181c",
                "decimals": 8
            },
            {
                "address": "0xc02aaa39b223fe8d0a0e5c4f27ead9083c756cc2",
                "decimals": 18
            },
            {
                "address": "0xeeeeeeeeeeeeeeeeeeeeeeeeeeeeeeeeeeeeeeee",
                "decimals": 18
            }
        ]
    },
    "address_label": {
        "labels": [
            {
                "address": "0x0000000000000000000000000000000000000003",
                "label": "Precompiled"
            },
            {
                "address": "0x0000000000000000000000000000000000000004",
                "label": "Precompiled"
            },
            {
                "address": "0xeeeeeeeeeeeeeeeeeeeeeeeeeeeeeeeeeeeeeeee",
                "label": "Ether"
            },
            {
                "address": "0x7bcec0ef877533ab557add0db19f833fdc18181c",
                "label": "XingYunChain Coin (XYCC)"
            },
            {
                "address": "0x0000000000000000000000000000000000000001",
                "label": "Precompiled"
            },
            {
                "address": "0x0000000000000000000000000000000000000002",
                "label": "Precompiled"
            }
        ]
    },
    "trace": {
        "accountLabels": null,
        "dataMap": {
            "-1": {
                "invocation": {
                    "address": "0x1fcbee398fa705f1b120fadb46a67ca26740a8d0",
                    "callData": "",
                    "decodedMethod": null,
                    "errorInfo": "",
                    "fromAddress": "",
                    "gasUsed": 0,
                    "id": -1,
                    "methodDecoded": false,
                    "operation": "",
                    "output": "",
                    "revert": false,
                    "revertMessage": "",
                    "selector": "",
                    "status": false,
                    "value": ""
                },
                "nodeType": 0
            },
            "0": {
                "invocation": {
                    "address": "0x7bcec0ef877533ab557add0db19f833fdc18181c",
                    "callData": "0x00000000000000000000000007d160e3c4b8d6bb006ad303b3e1400939e5d5b70000000000000000000000000000000000000000000000000000000ba43b7400",
                    "decodedMethod": {
                        "callParams": [
                            {
                                "name": "_to",
                                "type": "address",
                                "value": "0x07d160e3c4b8d6bb006ad303b3e1400939e5d5b7"
                            },
                            {
                                "decimalAvailable": true,
                                "name": "_value",
                                "type": "uint256",
                                "value": "50,000,000,000"
                            }
                        ],
                        "constructorArguments": "",
                        "name": "transfer",
                        "returnParams": [
                            {
                                "name": "",
                                "type": "bool",
                                "value": true
                            }
                        ],
                        "signature": "transfer(address,uint256)"
                    },
                    "errorInfo": "",
                    "fromAddress": "0x1fcbee398fa705f1b120fadb46a67ca26740a8d0",
                    "gasUsed": 24943,
                    "id": 0,
                    "methodDecoded": true,
                    "operation": "CALL",
                    "output": "0x0000000000000000000000000000000000000000000000000000000000000001",
                    "revert": false,
                    "revertMessage": "",
                    "selector": "0xa9059cbb",
                    "status": true,
                    "value": "0"
                },
                "nodeType": 0
            },
            "1": {
                "event": {
                    "contract": "0x7bcec0ef877533ab557add0db19f833fdc18181c",
                    "decodedLog": {
                        "name": "Transfer",
                        "params": [
                            {
                                "name": "from",
                                "type": "address",
                                "value": "0x1fcbee398fa705f1b120fadb46a67ca26740a8d0"
                            },
                            {
                                "name": "to",
                                "type": "address",
                                "value": "0x07d160e3c4b8d6bb006ad303b3e1400939e5d5b7"
                            },
                            {
                                "decimalAvailable": true,
                                "name": "value",
                                "type": "uint256",
                                "value": "50,000,000,000"
                            }
                        ],
                        "signature": "Transfer(address,address,uint256)"
                    },
                    "id": 1,
                    "logData": "0x0000000000000000000000000000000000000000000000000000000ba43b7400",
                    "logDecoded": true,
                    "operation": "EVENT",
                    "revert": false,
                    "status": true,
                    "topics": [
                        "0xddf252ad1be2c89b69c2b068fc378daa952ba7f163c4a11628f55a4df523b3ef",
                        "0x0000000000000000000000001fcbee398fa705f1b120fadb46a67ca26740a8d0",
                        "0x00000000000000000000000007d160e3c4b8d6bb006ad303b3e1400939e5d5b7"
                    ]
                },
                "nodeType": 1
            }
        },
        "gasFlame": [
            {
                "children": [
                    {
                        "children": [
                            {
                                "children": [],
                                "depth": 0,
                                "name": "Initial Gas",
                                "value": 23000
                            },
                            {
                                "children": [],
                                "depth": 0,
                                "name": "Executed Gas",
                                "value": 16943
                            }
                        ],
                        "depth": -1,
                        "name": "Actual Gas Used",
                        "value": 24943
                    },
                    {
                        "children": [],
                        "depth": -1,
                        "name": "Refunded Gas",
                        "value": 15000
                    }
                ],
                "depth": -2,
                "name": "Total Gas",
                "value": 39943
            }
        ],
        "isConfirmed": true,
        "mainTrace": [
            {
                "children": [
                    {
                        "children": [
                            {
                                "children": [],
                                "depth": 1,
                                "id": 1,
                                "order": 1
                            }
                        ],
                        "depth": 0,
                        "id": 0,
                        "order": 0
                    }
                ],
                "depth": -1,
                "id": -1,
                "order": -1
            }
        ],
        "mainTraceNodeCount": 2,
        "parentIdMap": {
            "0": -1,
            "1": 0
        },
        "tidyTrace": [
            {
                "children": [
                    {
                        "children": [
                            {
                                "children": [],
                                "depth": 1,
                                "id": 1,
                                "order": 1
                            }
                        ],
                        "depth": 0,
                        "id": 0,
                        "order": 0
                    }
                ],
                "depth": -1,
                "id": -1,
                "order": -1
            }
        ],
        "tidyTraceNodeCount": 2
    },
    "state_change": {
        "stateChanges": [
            {
                "address": "0x7bcec0ef877533ab557add0db19f833fdc18181c",
                "erc": "",
                "slots": [
                    {
                        "current": "0x0000000000000000000000000000000000000000000000000000000000000000",
                        "key": "0x7259c72f703ef3aac9023ff4103d7d6049cbb7e64879122f31f24b108b7cbdb4",
                        "prev": "0x0000000000000000000000000000000000000000000000000000000ba43b7400"
                    },
                    {
                        "current": "0x0000000000000000000000000000000000000000000000000034898d2db84c65",
                        "key": "0xf9be654a17e252491c4f38bf24c8fe934a45ea1da97736cebfd32397f8776e39",
                        "prev": "0x00000000000000000000000000000000000000000000000000348981897cd865"
                    }
                ],
                "storageVariables": [
                    {
                        "name": "balanceOf",
                        "type": "mapping(address => uint256)",
                        "value": {
                            "pairs": [
                                {
                                    "key": "0x07d160e3c4b8d6bb006ad303b3e1400939e5d5b7",
                                    "value": {
                                        "current": "14787938239401061",
                                        "prev": "14787888239401061",
                                        "typeTag": 1
                                    }
                                },
                                {
                                    "key": "0x1fcbee398fa705f1b120fadb46a67ca26740a8d0",
                                    "value": {
                                        "current": "0",
                                        "prev": "50000000000",
                                        "typeTag": 1
                                    }
                                }
                            ],
                            "typeTag": 4
                        }
                    }
                ]
            }
        ]
    }
}