{
    "balance_change": {
        "balanceChanges": [
            {
                "account": "0x902bc2cf070c7feb2142a595b9dd7be413f68ee3",
                "assets": [
                    {
                        "address": "0x667102bd3413bfeaa3dffb48fa8288819e480a88",
                        "amount": "0.00000564",
                        "iconUrl": "",
                        "isERC1155": false,
                        "isERC721": false,
                        "sign": false,
                        "value": "0.00009999"
                    }
                ]
            },
            {
                "account": "0x705979df90550bf5c3480b0d9243ed3536b618ce",
                "assets": [
                    {
                        "address": "0x667102bd3413bfeaa3dffb48fa8288819e480a88",
                        "amount": "0.00000564",
                        "iconUrl": "",
                        "isERC1155": false,
                        "isERC721": false,
                        "sign": true,
                        "value": "0.00009999"
                    }
                ]
            }
        ]
    },
    "profile": {
        "basic_info": {
            "baseFee": "13.975110755",
            "blockNumber": 15842478,
            "callData": "0xa9059cbb000000000000000000000000705979df90550bf5c3480b0d9243ed3536b618ce0000000000000000000000000000000000000000000000000000000000000234",
            "debugEnable": true,
            "errorInfo": "",
            "eventCount": 1,
            "feeRecipient": "0x4675c7e5baafbffbca748158becba61ef3b0a263",
            "formatValue": "0",
            "gasLimit": 77205,
            "gasPrice": "14.975110755",
            "gasUsed": 51470,
            "intTxnCount": 0,
            "internalRevert": false,
            "internalRevertMessage": "",
            "isContractCreation": false,
            "isFlashloan": false,
            "maxFee": "17.379300146",
            "nonce": 3945,
            "overwritedBlockNumber": -1,
            "priorityFee": "1",
            "receiver": "0x667102bd3413bfeaa3dffb48fa8288819e480a88",
            "revertMessage": "",
            "sender": "0x902bc2cf070c7feb2142a595b9dd7be413f68ee3",
            "simulationEnable": true,
            "sourceTxnHash": "0x573256b747558a1024de3c63379fcbc69457f4b002ef3002098c4176ff48c91e",
            "status": true,
            "timestamp": "2022-10-27T22:45:35Z",
            "transactionFee": "0.00077076895055985",
            "txnHash": "0x573256b747558a1024de3c63379fcbc69457f4b002ef3002098c4176ff48c91e",
            "txnIndex": 156,
            "type": 2,
            "value": "0"
        },
        "fund_flow": [
            {
                "amount": "0.00000564",
                "from": "0x902bc2cf070c7feb2142a595b9dd7be413f68ee3",
                "id": 1,
                "isERC1155": false,
                "isERC721": false,
                "isReverted": false,
                "order": 1,
                "to": "0x705979df90550bf5c3480b0d9243ed3536b618ce",
                "token": "0x667102bd3413bfeaa3dffb48fa8288819e480a88"
            }
        ],
        "token_infos": [
            {
                "address": "0x667102bd3413bfeaa3dffb48fa8288819e480a88",
                "decimals": 8
            },
            {
                "address": "0xc02aaa39b223fe8d0a0e5c4f27ead9083c756cc2",
                "decimals": 18
            },
            {
                "address": "0xeeeeeeeeeeeeeeeeeeeeeeeeeeeeeeeeeeeeeeee",
                "decimals": 18
            }
        ]
    },
    "address_label": {
        "labels": [
            {
                "address": "0x0000000000000000000000000000000000000002",
                "label": "Precompiled"
            },
            {
                "address": "0x0000000000000000000000000000000000000003",
                "label": "Precompiled"
            },
            {
                "address": "0x0000000000000000000000000000000000000004",
                "label": "Precompiled"
            },
            {
                "address": "0xeeeeeeeeeeeeeeeeeeeeeeeeeeeeeeeeeeeeeeee",
                "label": "Ether"
            },
            {
                "address": "0x667102bd3413bfeaa3dffb48fa8288819e480a88",
                "label": "TokenizeXchange Token"
            },
            {
                "address": "0x0000000000000000000000000000000000000001",
                "label": "Precompiled"
            }
        ]
    },
    "trace": {
        "accountLabels": null,
        "dataMap": {
            "-1": {
                "invocation": {
                    "address": "0x902bc2cf070c7feb2142a595b9dd7be413f68ee3",
                    "callData": "",
                    "decodedMethod": null,
                    "errorInfo": "",
                    "fromAddress": "",
                    "gasUsed": 0,
                    "id": -1,
                    "methodDecoded": false,
                    "operation": "",
                    "output": "",
                    "revert": false,
                    "revertMessage": "",
                    "selector": "",
                    "status": false,
                    "value": ""
                },
                "nodeType": 0
            },
            "0": {
                "invocation": {
                    "address": "0x667102bd3413bfeaa3dffb48fa8288819e480a88",
                    "callData": "0x000000000000000000000000705979df90550bf5c3480b0d9243ed3536b618ce0000000000000000000000000000000000000000000000000000000000000234",
                    "decodedMethod": {
                        "callParams": [
                            {
                                "name": "_to",
                                "type": "address",
                                "value": "0x705979df90550bf5c3480b0d9243ed3536b618ce"
                            },
                            {
                                "decimalAvailable": true,
                                "name": "_value",
                                "type": "uint256",
                                "value": "564"
                            }
                        ],
                        "constructorArguments": "",
                        "name": "transfer",
                        "returnParams": [
                            {
                                "name": "success",
                                "type": "bool",
                                "value": true
                            }
                        ],
                        "signature": "transfer(address,uint256)"
                    },
                    "errorInfo": "",
                    "fromAddress": "0x902bc2cf070c7feb2142a595b9dd7be413f68ee3",
                    "gasUsed": 51470,
                    "id": 0,
                    "methodDecoded": true,
                    "operation": "CALL",
                    "output": "0x0000000000000000000000000000000000000000000000000000000000000001",
                    "revert": false,
                    "revertMessage": "",
                    "selector": "0xa9059cbb",
                    "status": true,
                    "value": "0"
                },
                "nodeType": 0
            },
            "1": {
                "event": {
                    "contract": "0x667102bd3413bfeaa3dffb48fa8288819e480a88",
                    "decodedLog": {
                        "name": "Transfer",
                        "params": [
                            {
                                "name": "_from",
                                "type": "address",
                                "value": "0x902bc2cf070c7feb2142a595b9dd7be413f68ee3"
                            },
                            {
                                "name": "_to",
                                "type": "address",
                                "value": "0x705979df90550bf5c3480b0d9243ed3536b618ce"
                            },
                            {
                                "decimalAvailable": true,
                                "name": "_value",
                                "type": "uint256",
                                "value": "564"
                            }
                        ],
                        "signature": "Transfer(address,address,uint256)"
                    },
                    "id": 1,
                    "logData": "0x0000000000000000000000000000000000000000000000000000000000000234",
                    "logDecoded": true,
                    "operation": "EVENT",
                    "revert": false,
                    "status": true,
                    "topics": [
                        "0xddf252ad1be2c89b69c2b068fc378daa952ba7f163c4a11628f55a4df523b3ef",
                        "0x000000000000000000000000902bc2cf070c7feb2142a595b9dd7be413f68ee3",
                        "0x000000000000000000000000705979df90550bf5c3480b0d9243ed3536b618ce"
                    ]
                },
                "nodeType": 1
            }
        },
        "gasFlame": [
            {
                "children": [
                    {
                        "children": [
                            {
                                "children": [],
                                "depth": 0,
                                "name": "Initial Gas",
                                "value": 21584
                            },
                            {
                                "children": [],
                                "depth": 0,
                                "name": "Executed Gas",
                                "value": 29886
                            }
                        ],
                        "depth": -1,
                        "name": "Actual Gas Used",
                        "value": 51470
                    },
                    {
                        "children": [],
                        "depth": -1,
                        "name": "Refunded Gas",
                        "value": 0
                    }
                ],
                "depth": -2,
                "name": "Total Gas",
                "value": 51470
            }
        ],
        "isConfirmed": true,
        "mainTrace": [
            {
                "children": [
                    {
                        "children": [
                            {
                                "children": [],
                                "depth": 1,
                                "id": 1,
                                "order": 1
                            }
                        ],
                        "depth": 0,
                        "id": 0,
                        "order": 0
                    }
                ],
                "depth": -1,
                "id": -1,
                "order": -1
            }
        ],
        "mainTraceNodeCount": 2,
        "parentIdMap": {
            "0": -1,
            "1": 0
        },
        "tidyTrace": [
            {
                "children": [
                    {
                        "children": [
                            {
                                "children": [],
                                "depth": 1,
                                "id": 1,
                                "order": 1
                            }
                        ],
                        "depth": 0,
                        "id": 0,
                        "order": 0
                    }
                ],
                "depth": -1,
                "id": -1,
                "order": -1
            }
        ],
        "tidyTraceNodeCount": 2
    },
    "state_change": {
        "stateChanges": [
            {
                "address": "0x667102bd3413bfeaa3dffb48fa8288819e480a88",
                "erc": "ERC-20",
                "slots": [
                    {
                        "current": "0x0000000000000000000000000000000000000000000000000000000004d05f53",
                        "key": "0x1c2c84645023560c611d3892e85940bd9877057380b9fb3264123a5ccd781078",
                        "prev": "0x0000000000000000000000000000000000000000000000000000000004d06187"
                    },
                    {
                        "current": "0x0000000000000000000000000000000000000000000000000000000000000234",
                        "key": "0xf995521164390215fb8abae3efaadd43773924edbaea2ba6d229f935672281a7",
                        "prev": "0x0000000000000000000000000000000000000000000000000000000000000000"
                    }
                ],
                "storageVariables": [
                    {
                        "name": "balances",
                        "type": "mapping(address => uint256)",
                        "value": {
                            "pairs": [
                                {
                                    "key": "0x705979df90550bf5c3480b0d9243ed3536b618ce",
                                    "value": {
                                        "current": "564",
                                        "prev": "0",
                                        "typeTag": 1
                                    }
                                },
                                {
                                    "key": "0x902bc2cf070c7feb2142a595b9dd7be413f68ee3",
                                    "value": {
                                        "current": "80764755",
                                        "prev": "80765319",
                                        "typeTag": 1
                                    }
                                }
                            ],
                            "typeTag": 4
                        }
                    }
                ]
            }
        ]
    }
}