{
    "balance_change": {
        "balanceChanges": [
            {
                "account": "0x55258652705b74c210185a57a60a4f8ff674809b",
                "assets": [
                    {
                        "address": "0xf5b0a3efb8e8e4c201e2a935f110eaaf3ffecb8d",
                        "amount": "235,123",
                        "iconUrl": "",
                        "isERC1155": false,
                        "isERC721": false,
                        "sign": false,
                        "value": ""
                    }
                ]
            },
            {
                "account": "0xf4985070ce32b6b1994329df787d1acc9a2dd9e2",
                "assets": [
                    {
                        "address": "0xf5b0a3efb8e8e4c201e2a935f110eaaf3ffecb8d",
                        "amount": "235,123",
                        "iconUrl": "",
                        "isERC1155": false,
                        "isERC721": false,
                        "sign": true,
                        "value": ""
                    }
                ]
            }
        ]
    },
    "profile": {
        "basic_info": {
            "baseFee": "",
            "blockNumber": 11526331,
            "callData": "0x961c9ae4000000000000000000000000f5b0a3efb8e8e4c201e2a935f110eaaf3ffecb8d0000000000000000000000000000000000000000000000000000000000039673000000000000000000000000000000000000000000000000013c31074902800000000000000000000000000000000000000000000000000000d19c2ff9bf8000000000000000000000000000000000000000000000000000000000000007e900",
            "debugEnable": true,
            "errorInfo": "",
            "eventCount": 3,
            "feeRecipient": "0x04668ec2f57cc15c381b461b9fedab5d451c8f7f",
            "formatValue": "0",
            "gasLimit": 240063,
            "gasPrice": "32",
            "gasUsed": 175063,
            "intTxnCount": 4,
            "internalRevert": false,
            "internalRevertMessage": "",
            "isContractCreation": false,
            "isFlashloan": false,
            "maxFee": "",
            "nonce": 2387,
            "overwritedBlockNumber": -1,
            "priorityFee": "",
            "receiver": "0xf4985070ce32b6b1994329df787d1acc9a2dd9e2",
            "revertMessage": "",
            "sender": "0x55258652705b74c210185a57a60a4f8ff674809b",
            "simulationEnable": true,
            "sourceTxnHash": "0x57741c37cdd9e242e8ce6ed7bae2e96c5170986656191b15553c63cac78478e1",
            "status": true,
            "timestamp": "2020-12-26T01:37:47Z",
            "transactionFee": "0.005602016",
            "txnHash": "0x57741c37cdd9e242e8ce6ed7bae2e96c5170986656191b15553c63cac78478e1",
            "txnIndex": 74,
            "type": 0,
            "value": "0"
        },
        "fund_flow": [
            {
                "amount": "235,123",
                "from": "0x55258652705b74c210185a57a60a4f8ff674809b",
                "id": 1,
                "isERC1155": false,
                "isERC721": false,
                "isReverted": false,
                "order": 1,
                "to": "0xf4985070ce32b6b1994329df787d1acc9a2dd9e2",
                "token": "0xf5b0a3efb8e8e4c201e2a935f110eaaf3ffecb8d"
            }
        ],
        "token_infos": [
            {
                "address": "0xf5b0a3efb8e8e4c201e2a935f110eaaf3ffecb8d",
                "decimals": -1
            },
            {
                "address": "0xeeeeeeeeeeeeeeeeeeeeeeeeeeeeeeeeeeeeeeee",
                "decimals": 18
            },
            {
                "address": "0xc02aaa39b223fe8d0a0e5c4f27ead9083c756cc2",
                "decimals": 18
            }
        ]
    },
    "address_label": {
        "labels": [
            {
                "address": "0x0000000000000000000000000000000000000002",
                "label": "Precompiled"
            },
            {
                "address": "0x0000000000000000000000000000000000000003",
                "label": "Precompiled"
            },
            {
                "address": "0x0000000000000000000000000000000000000004",
                "label": "Precompiled"
            },
            {
                "address": "0xeeeeeeeeeeeeeeeeeeeeeeeeeeeeeeeeeeeeeeee",
                "label": "Ether"
            },
            {
                "address": "0xf4985070ce32b6b1994329df787d1acc9a2dd9e2",
                "label": "Axie Infinity: Axie Clock Auction"
            },
            {
                "address": "0xf5b0a3efb8e8e4c201e2a935f110eaaf3ffecb8d",
                "label": "Axie Infinity: AXIE Token"
            },
            {
                "address": "0x0000000000000000000000000000000000000001",
                "label": "Precompiled"
            }
        ]
    },
    "trace": {
        "accountLabels": null,
        "dataMap": {
            "-1": {
                "invocation": {
                    "address": "0x55258652705b74c210185a57a60a4f8ff674809b",
                    "callData": "",
                    "decodedMethod": null,
                    "errorInfo": "",
                    "fromAddress": "",
                    "gasUsed": 0,
                    "id": -1,
                    "methodDecoded": false,
                    "operation": "",
                    "output": "",
                    "revert": false,
                    "revertMessage": "",
                    "selector": "",
                    "status": false,
                    "value": ""
                },
                "nodeType": 0
            },
            "0": {
                "invocation": {
                    "address": "0xf4985070ce32b6b1994329df787d1acc9a2dd9e2",
                    "callData": "0x000000000000000000000000f5b0a3efb8e8e4c201e2a935f110eaaf3ffecb8d0000000000000000000000000000000000000000000000000000000000039673000000000000000000000000000000000000000000000000013c31074902800000000000000000000000000000000000000000000000000000d19c2ff9bf8000000000000000000000000000000000000000000000000000000000000007e900",
                    "decodedMethod": {
                        "callParams": [
                            {
                                "name": "_nftAddress",
                                "type": "address",
                                "value": "0xf5b0a3efb8e8e4c201e2a935f110eaaf3ffecb8d"
                            },
                            {
                                "name": "_tokenId",
                                "type": "uint256",
                                "value": "235,123"
                            },
                            {
                                "name": "_startingPrice",
                                "type": "uint256",
                                "value": "89,000,000,000,000,000"
                            },
                            {
                                "name": "_endingPrice",
                                "type": "uint256",
                                "value": "59,000,000,000,000,000"
                            },
                            {
                                "name": "_duration",
                                "type": "uint256",
                                "value": "518,400"
                            }
                        ],
                        "constructorArguments": "",
                        "name": "createAuction",
                        "returnParams": [],
                        "signature": "createAuction(address,uint256,uint256,uint256,uint256)"
                    },
                    "errorInfo": "",
                    "fromAddress": "0x55258652705b74c210185a57a60a4f8ff674809b",
                    "gasUsed": 175063,
                    "id": 0,
                    "methodDecoded": true,
                    "operation": "CALL",
                    "output": "",
                    "revert": false,
                    "revertMessage": "",
                    "selector": "0x961c9ae4",
                    "status": true,
                    "value": "0"
                },
                "nodeType": 0
            },
            "1": {
                "invocation": {
                    "address": "0xf5b0a3efb8e8e4c201e2a935f110eaaf3ffecb8d",
                    "callData": "0x0000000000000000000000000000000000000000000000000000000000039673",
                    "decodedMethod": {
                        "callParams": [
                            {
                                "name": "_tokenId",
                                "type": "uint256",
                                "value": "235,123"
                            }
                        ],
                        "constructorArguments": "",
                        "name": "ownerOf",
                        "returnParams": [
                            {
                                "name": "",
                                "type": "address",
                                "value": "0x55258652705b74c210185a57a60a4f8ff674809b"
                            }
                        ],
                        "signature": "ownerOf(uint256)"
                    },
                    "errorInfo": "",
                    "fromAddress": "0xf4985070ce32b6b1994329df787d1acc9a2dd9e2",
                    "gasUsed": 2807,
                    "id": 1,
                    "methodDecoded": true,
                    "operation": "CALL",
                    "output": "0x00000000000000000000000055258652705b74c210185a57a60a4f8ff674809b",
                    "revert": false,
                    "revertMessage": "",
                    "selector": "0x6352211e",
                    "status": true,
                    "value": "0"
                },
                "nodeType": 0
            },
            "2": {
                "invocation": {
                    "address": "0xf5b0a3efb8e8e4c201e2a935f110eaaf3ffecb8d",
                    "callData": "0x00000000000000000000000055258652705b74c210185a57a60a4f8ff674809b000000000000000000000000f4985070ce32b6b1994329df787d1acc9a2dd9e20000000000000000000000000000000000000000000000000000000000039673",
                    "decodedMethod": {
                        "callParams": [
                            {
                                "name": "_from",
                                "type": "address",
                                "value": "0x55258652705b74c210185a57a60a4f8ff674809b"
                            },
                            {
                                "name": "_to",
                                "type": "address",
                                "value": "0xf4985070ce32b6b1994329df787d1acc9a2dd9e2"
                            },
                            {
                                "decimalAvailable": true,
                                "name": "_tokenId",
                                "type": "uint256",
                                "value": "235,123"
                            }
                        ],
                        "constructorArguments": "",
                        "name": "transferFrom",
                        "returnParams": [],
                        "signature": "transferFrom(address,address,uint256)"
                    },
                    "errorInfo": "",
                    "fromAddress": "0xf4985070ce32b6b1994329df787d1acc9a2dd9e2",
                    "gasUsed": 89602,
                    "id": 2,
                    "methodDecoded": true,
                    "operation": "CALL",
                    "output": "",
                    "revert": false,
                    "revertMessage": "",
                    "selector": "0x23b872dd",
                    "status": true,
                    "value": "0"
                },
                "nodeType": 0
            },
            "3": {
                "invocation": {
                    "address": "0xe8bd438d0383cf4d19641eaa4793eddc6cebeaf1",
                    "callData": "0x00000000000000000000000055258652705b74c210185a57a60a4f8ff674809b000000000000000000000000f4985070ce32b6b1994329df787d1acc9a2dd9e20000000000000000000000000000000000000000000000000000000000039673",
                    "decodedMethod": {
                        "callParams": [
                            {
                                "name": "",
                                "type": "address",
                                "value": "0x55258652705b74c210185a57a60a4f8ff674809b"
                            },
                            {
                                "name": "",
                                "type": "address",
                                "value": "0xf4985070ce32b6b1994329df787d1acc9a2dd9e2"
                            },
                            {
                                "name": "",
                                "type": "uint256",
                                "value": "235,123"
                            }
                        ],
                        "constructorArguments": "",
                        "name": "isTransferAllowed",
                        "returnParams": [
                            {
                                "name": "",
                                "type": "bool",
                                "value": true
                            }
                        ],
                        "signature": "isTransferAllowed(address,address,uint256)"
                    },
                    "errorInfo": "",
                    "fromAddress": "0xf5b0a3efb8e8e4c201e2a935f110eaaf3ffecb8d",
                    "gasUsed": 4758,
                    "id": 3,
                    "methodDecoded": true,
                    "operation": "CALL",
                    "output": "0x0000000000000000000000000000000000000000000000000000000000000001",
                    "revert": false,
                    "revertMessage": "",
                    "selector": "0xf7ebc39a",
                    "status": true,
                    "value": "0"
                },
                "nodeType": 0
            },
            "4": {
                "invocation": {
                    "address": "0xf5b0a3efb8e8e4c201e2a935f110eaaf3ffecb8d",
                    "callData": "0x",
                    "decodedMethod": {
                        "callParams": [],
                        "constructorArguments": "",
                        "name": "paused",
                        "returnParams": [
                            {
                                "name": "",
                                "type": "bool",
                                "value": false
                            }
                        ],
                        "signature": "paused()"
                    },
                    "errorInfo": "",
                    "fromAddress": "0xe8bd438d0383cf4d19641eaa4793eddc6cebeaf1",
                    "gasUsed": 1628,
                    "id": 4,
                    "methodDecoded": true,
                    "operation": "CALL",
                    "output": "0x0000000000000000000000000000000000000000000000000000000000000000",
                    "revert": false,
                    "revertMessage": "",
                    "selector": "0x5c975abb",
                    "status": true,
                    "value": "0"
                },
                "nodeType": 0
            },
            "5": {
                "event": {
                    "contract": "0xf5b0a3efb8e8e4c201e2a935f110eaaf3ffecb8d",
                    "decodedLog": {
                        "name": "Approval",
                        "params": [
                            {
                                "name": "_owner",
                                "type": "address",
                                "value": "0x55258652705b74c210185a57a60a4f8ff674809b"
                            },
                            {
                                "name": "_approved",
                                "type": "address",
                                "value": "0x0000000000000000000000000000000000000000"
                            },
                            {
                                "decimalAvailable": true,
                                "name": "_tokenId",
                                "type": "uint256",
                                "value": "235,123"
                            }
                        ],
                        "signature": "Approval(address,address,uint256)"
                    },
                    "id": 5,
                    "logData": "0x0000000000000000000000000000000000000000000000000000000000039673",
                    "logDecoded": true,
                    "operation": "EVENT",
                    "revert": false,
                    "status": true,
                    "topics": [
                        "0x8c5be1e5ebec7d5bd14f71427d1e84f3dd0314c0f7b2291e5b200ac8c7c3b925",
                        "0x00000000000000000000000055258652705b74c210185a57a60a4f8ff674809b",
                        "0x0000000000000000000000000000000000000000000000000000000000000000"
                    ]
                },
                "nodeType": 1
            },
            "6": {
                "event": {
                    "contract": "0xf5b0a3efb8e8e4c201e2a935f110eaaf3ffecb8d",
                    "decodedLog": {
                        "name": "Transfer",
                        "params": [
                            {
                                "name": "_from",
                                "type": "address",
                                "value": "0x55258652705b74c210185a57a60a4f8ff674809b"
                            },
                            {
                                "name": "_to",
                                "type": "address",
                                "value": "0xf4985070ce32b6b1994329df787d1acc9a2dd9e2"
                            },
                            {
                                "decimalAvailable": true,
                                "name": "_tokenId",
                                "type": "uint256",
                                "value": "235,123"
                            }
                        ],
                        "signature": "Transfer(address,address,uint256)"
                    },
                    "id": 6,
                    "logData": "0x0000000000000000000000000000000000000000000000000000000000039673",
                    "logDecoded": true,
                    "operation": "EVENT",
                    "revert": false,
                    "status": true,
                    "topics": [
                        "0xddf252ad1be2c89b69c2b068fc378daa952ba7f163c4a11628f55a4df523b3ef",
                        "0x00000000000000000000000055258652705b74c210185a57a60a4f8ff674809b",
                        "0x000000000000000000000000f4985070ce32b6b1994329df787d1acc9a2dd9e2"
                    ]
                },
                "nodeType": 1
            },
            "7": {
                "event": {
                    "contract": "0xf4985070ce32b6b1994329df787d1acc9a2dd9e2",
                    "decodedLog": {
                        "name": "AuctionCreated",
                        "params": [
                            {
                                "name": "_nftAddress",
                                "type": "address",
                                "value": "0xf5b0a3efb8e8e4c201e2a935f110eaaf3ffecb8d"
                            },
                            {
                                "name": "_tokenId",
                                "type": "uint256",
                                "value": "235,123"
                            },
                            {
                                "name": "_startingPrice",
                                "type": "uint256",
                                "value": "89,000,000,000,000,000"
                            },
                            {
                                "name": "_endingPrice",
                                "type": "uint256",
                                "value": "59,000,000,000,000,000"
                            },
                            {
                                "name": "_duration",
                                "type": "uint256",
                                "value": "518,400"
                            },
                            {
                                "name": "_seller",
                                "type": "address",
                                "value": "0x55258652705b74c210185a57a60a4f8ff674809b"
                            }
                        ],
                        "signature": "AuctionCreated(address,uint256,uint256,uint256,uint256,address)"
                    },
                    "id": 7,
                    "logData": "0x000000000000000000000000000000000000000000000000013c31074902800000000000000000000000000000000000000000000000000000d19c2ff9bf8000000000000000000000000000000000000000000000000000000000000007e90000000000000000000000000055258652705b74c210185a57a60a4f8ff674809b",
                    "logDecoded": true,
                    "operation": "EVENT",
                    "revert": false,
                    "status": true,
                    "topics": [
                        "0xebc6e332a2c695c53d77b2922a18bcf3ab024549f5f2bfa67e0875ec29d59d46",
                        "0x000000000000000000000000f5b0a3efb8e8e4c201e2a935f110eaaf3ffecb8d",
                        "0x0000000000000000000000000000000000000000000000000000000000039673"
                    ]
                },
                "nodeType": 1
            }
        },
        "gasFlame": [
            {
                "children": [
                    {
                        "children": [
                            {
                                "children": [],
                                "depth": 0,
                                "name": "Initial Gas",
                                "value": 22160
                            },
                            {
                                "children": [
                                    {
                                        "children": [],
                                        "depth": 1,
                                        "name": "ownerOf",
                                        "value": 2807
                                    },
                                    {
                                        "children": [
                                            {
                                                "children": [
                                                    {
                                                        "children": [],
                                                        "depth": 3,
                                                        "name": "paused",
                                                        "value": 1628
                                                    }
                                                ],
                                                "depth": 2,
                                                "name": "isTransferAllowed",
                                                "value": 4758
                                            }
                                        ],
                                        "depth": 1,
                                        "name": "transferFrom",
                                        "value": 89602
                                    }
                                ],
                                "depth": 0,
                                "name": "Executed Gas",
                                "value": 167903
                            }
                        ],
                        "depth": -1,
                        "name": "Actual Gas Used",
                        "value": 175063
                    },
                    {
                        "children": [],
                        "depth": -1,
                        "name": "Refunded Gas",
                        "value": 15000
                    }
                ],
                "depth": -2,
                "name": "Total Gas",
                "value": 190063
            }
        ],
        "isConfirmed": true,
        "mainTrace": [
            {
                "children": [
                    {
                        "children": [
                            {
                                "children": [],
                                "depth": 1,
                                "id": 1,
                                "order": 1
                            },
                            {
                                "children": [
                                    {
                                        "children": [
                                            {
                                                "children": [],
                                                "depth": 3,
                                                "id": 4,
                                                "order": 4
                                            }
                                        ],
                                        "depth": 2,
                                        "id": 3,
                                        "order": 3
                                    },
                                    {
                                        "children": [],
                                        "depth": 2,
                                        "id": 5,
                                        "order": 5
                                    },
                                    {
                                        "children": [],
                                        "depth": 2,
                                        "id": 6,
                                        "order": 6
                                    }
                                ],
                                "depth": 1,
                                "id": 2,
                                "order": 2
                            },
                            {
                                "children": [],
                                "depth": 1,
                                "id": 7,
                                "order": 7
                            }
                        ],
                        "depth": 0,
                        "id": 0,
                        "order": 0
                    }
                ],
                "depth": -1,
                "id": -1,
                "order": -1
            }
        ],
        "mainTraceNodeCount": 8,
        "parentIdMap": {
            "0": -1,
            "1": 0,
            "2": 0,
            "3": 2,
            "4": 3,
            "5": 2,
            "6": 2,
            "7": 0
        },
        "tidyTrace": [
            {
                "children": [
                    {
                        "children": [
                            {
                                "children": [],
                                "depth": 1,
                                "id": 1,
                                "order": 1
                            },
                            {
                                "children": [
                                    {
                                        "children": [
                                            {
                                                "children": [],
                                                "depth": 3,
                                                "id": 4,
                                                "order": 4
                                            }
                                        ],
                                        "depth": 2,
                                        "id": 3,
                                        "order": 3
                                    },
                                    {
                                        "children": [],
                                        "depth": 2,
                                        "id": 5,
                                        "order": 5
                                    },
                                    {
                                        "children": [],
                                        "depth": 2,
                                        "id": 6,
                                        "order": 6
                                    }
                                ],
                                "depth": 1,
                                "id": 2,
                                "order": 2
                            },
                            {
                                "children": [],
                                "depth": 1,
                                "id": 7,
                                "order": 7
                            }
                        ],
                        "depth": 0,
                        "id": 0,
                        "order": 0
                    }
                ],
                "depth": -1,
                "id": -1,
                "order": -1
            }
        ],
        "tidyTraceNodeCount": 8
    },
    "state_change": {
        "stateChanges": [
            {
                "address": "0xf4985070ce32b6b1994329df787d1acc9a2dd9e2",
                "erc": "",
                "slots": [
                    {
                        "current": "0x00000000000000000000000000000000000000005fe693eb000000000007e900",
                        "key": "0x2ce8b6f944c84a0e45eaa8f8c58bb268e838aaefc59bbc7b203965ed33541e9e",
                        "prev": "0x0000000000000000000000000000000000000000000000000000000000000000"
                    },
                    {
                        "current": "0x00000000000000000000000055258652705b74c210185a57a60a4f8ff674809b",
                        "key": "0x2ce8b6f944c84a0e45eaa8f8c58bb268e838aaefc59bbc7b203965ed33541e9c",
                        "prev": "0x0000000000000000000000000000000000000000000000000000000000000000"
                    },
                    {
                        "current": "0x000000000000000000d19c2ff9bf80000000000000000000013c310749028000",
                        "key": "0x2ce8b6f944c84a0e45eaa8f8c58bb268e838aaefc59bbc7b203965ed33541e9d",
                        "prev": "0x0000000000000000000000000000000000000000000000000000000000000000"
                    }
                ],
                "storageVariables": [
                    {
                        "name": "auctions",
                        "type": "mapping(address => mapping(uint256 => struct AxieClockAuction.Auction))",
                        "value": {
                            "pairs": [
                                {
                                    "key": "0xf5b0a3efb8e8e4c201e2a935f110eaaf3ffecb8d",
                                    "value": {
                                        "pairs": [
                                            {
                                                "key": "235123",
                                                "value": {
                                                    "fields": [
                                                        {
                                                            "name": "seller",
                                                            "type": "address",
                                                            "value": {
                                                                "current": "0x55258652705b74c210185a57a60a4f8ff674809b",
                                                                "prev": "0x0000000000000000000000000000000000000000",
                                                                "typeTag": 1
                                                            }
                                                        },
                                                        {
                                                            "name": "startingPrice",
                                                            "type": "uint128",
                                                            "value": {
                                                                "current": "89000000000000000",
                                                                "prev": "0",
                                                                "typeTag": 1
                                                            }
                                                        },
                                                        {
                                                            "name": "endingPrice",
                                                            "type": "uint128",
                                                            "value": {
                                                                "current": "59000000000000000",
                                                                "prev": "0",
                                                                "typeTag": 1
                                                            }
                                                        },
                                                        {
                                                            "name": "duration",
                                                            "type": "uint64",
                                                            "value": {
                                                                "current": "518400",
                                                                "prev": "0",
                                                                "typeTag": 1
                                                            }
                                                        },
                                                        {
                                                            "name": "startedAt",
                                                            "type": "uint64",
                                                            "value": {
                                                                "current": "1608946667",
                                                                "prev": "0",
                                                                "typeTag": 1
                                                            }
                                                        }
                                                    ],
                                                    "typeTag": 3
                                                }
                                            }
                                        ],
                                        "typeTag": 4
                                    }
                                }
                            ],
                            "typeTag": 4
                        }
                    }
                ]
            },
            {
                "address": "0xf5b0a3efb8e8e4c201e2a935f110eaaf3ffecb8d",
                "erc": "ERC-721",
                "slots": [
                    {
                        "current": "0x000000000000000000000000000000000000000000000000000000000000002c",
                        "key": "0xfc3b7dd5c3ba22d6ecdcbf9ed34da4697cd42d08a0cee05726cdccf02c8e73bc",
                        "prev": "0x000000000000000000000000000000000000000000000000000000000000003c"
                    },
                    {
                        "current": "0x0000000000000000000000000000000000000000000000000000000000000000",
                        "key": "0x996730d32eb2a90d9f0fa5faca60b74d959f047cc8743eb38cbd8168845b4004",
                        "prev": "0x0000000000000000000000000000000000000000000000000000000000039670"
                    },
                    {
                        "current": "0x000000000000000000000000000000000000000000000000000000000000003c",
                        "key": "0xd7f91791276fb41e483da1eea9ecc2bc170b09960956f714700ee4e638c1a808",
                        "prev": "0x000000000000000000000000000000000000000000000000000000000000003d"
                    },
                    {
                        "current": "0x0000000000000000000000000000000000000000000000000000000000004510",
                        "key": "0xc6aea9fa827684a9dfa3337fb1560a46dfb943e23be967ef26a93ec595fe766d",
                        "prev": "0x000000000000000000000000000000000000000000000000000000000000002c"
                    },
                    {
                        "current": "0x0000000000000000000000000000000000000000000000000000000000004511",
                        "key": "0xda6130b50a42de694f5ea1ae82c75586f0831f0f41b8349336a692d06cf359d7",
                        "prev": "0x0000000000000000000000000000000000000000000000000000000000004510"
                    },
                    {
                        "current": "0x0000000000000000000000000000000000000000000000000000000000039673",
                        "key": "0xf977cc87cb9530b700142d22309e54b5022847fb0e1975303101c38e16b107af",
                        "prev": "0x0000000000000000000000000000000000000000000000000000000000000000"
                    },
                    {
                        "current": "0x000000000000000000000000f4985070ce32b6b1994329df787d1acc9a2dd9e2",
                        "key": "0x3754d137e6173016583c2654a6bce18ad918177c7ceeaae31dbee9b021296dcb",
                        "prev": "0x00000000000000000000000055258652705b74c210185a57a60a4f8ff674809b"
                    },
                    {
                        "current": "0x0000000000000000000000000000000000000000000000000000000000039670",
                        "key": "0x996730d32eb2a90d9f0fa5faca60b74d959f047cc8743eb38cbd8168845b3ff4",
                        "prev": "0x0000000000000000000000000000000000000000000000000000000000039673"
                    }
                ],
                "storageVariables": [
                    {
                        "name": "_ownedTokens",
                        "type": "mapping(address => uint256[])",
                        "value": {
                            "pairs": [
                                {
                                    "key": "0x55258652705b74c210185a57a60a4f8ff674809b",
                                    "value": {
                                        "elemType": "uint256",
                                        "elems": [
                                            {
                                                "index": 44,
                                                "value": {
                                                    "current": "235120",
                                                    "prev": "235123",
                                                    "typeTag": 1
                                                }
                                            }
                                        ],
                                        "typeTag": 2
                                    }
                                },
                                {
                                    "key": "0xf4985070ce32b6b1994329df787d1acc9a2dd9e2",
                                    "value": {
                                        "elemType": "uint256",
                                        "elems": [
                                            {
                                                "index": 17680,
                                                "value": {
                                                    "current": "235123",
                                                    "prev": "0",
                                                    "typeTag": 1
                                                }
                                            }
                                        ],
                                        "typeTag": 2
                                    }
                                }
                            ],
                            "typeTag": 4
                        }
                    },
                    {
                        "name": "_ownedTokenIndex",
                        "type": "mapping(uint256 => uint256)",
                        "value": {
                            "pairs": [
                                {
                                    "key": "235120",
                                    "value": {
                                        "current": "44",
                                        "prev": "60",
                                        "typeTag": 1
                                    }
                                },
                                {
                                    "key": "235123",
                                    "value": {
                                        "current": "17680",
                                        "prev": "44",
                                        "typeTag": 1
                                    }
                                }
                            ],
                            "typeTag": 4
                        }
                    },
                    {
                        "name": "_tokenOwner",
                        "type": "mapping(uint256 => address)",
                        "value": {
                            "pairs": [
                                {
                                    "key": "235123",
                                    "value": {
                                        "current": "0xf4985070ce32b6b1994329df787d1acc9a2dd9e2",
                                        "prev": "0x55258652705b74c210185a57a60a4f8ff674809b",
                                        "typeTag": 1
                                    }
                                }
                            ],
                            "typeTag": 4
                        }
                    }
                ]
            }
        ]
    }
}