{
    "balance_change": {
        "balanceChanges": [
            {
                "account": "0x3266619dee99c97f4bdd11bfc215ee0d669e3b7a",
                "assets": [
                    {
                        "address": "0x818fc6c2ec5986bc6e2cbf00939d90556ab12ce5",
                        "amount": "775,401.069",
                        "iconUrl": "https://assets.blocksec.com/icon/18c19de04f3f5c2ce79831de9b74b1264795a449aa28f1589d1d090f2945fea1.png",
                        "isERC1155": false,
                        "isERC721": false,
                        "sign": true,
                        "value": ""
                    }
                ]
            },
            {
                "account": "0x8d12a197cb00d4747a1fe03395095ce2a5cc6819",
                "assets": [
                    {
                        "address": "0x818fc6c2ec5986bc6e2cbf00939d90556ab12ce5",
                        "amount": "775,401.069",
                        "iconUrl": "https://assets.blocksec.com/icon/18c19de04f3f5c2ce79831de9b74b1264795a449aa28f1589d1d090f2945fea1.png",
                        "isERC1155": false,
                        "isERC721": false,
                        "sign": false,
                        "value": ""
                    }
                ]
            }
        ]
    },
    "profile": {
        "basic_info": {
            "baseFee": "",
            "blockNumber": 4813713,
            "callData": "0x9e281a98000000000000000000000000818fc6c2ec5986bc6e2cbf00939d90556ab12ce500000000000000000000000000000000000000000000a4329380649093848000",
            "debugEnable": true,
            "errorInfo": "",
            "eventCount": 2,
            "feeRecipient": "0x52bc44d5378309ee2abf1539bf71de1b7d7be3b5",
            "formatValue": "0",
            "gasLimit": 250000,
            "gasPrice": "4",
            "gasUsed": 63021,
            "intTxnCount": 1,
            "internalRevert": false,
            "internalRevertMessage": "",
            "isContractCreation": false,
            "isFlashloan": false,
            "maxFee": "",
            "nonce": 1,
            "overwritedBlockNumber": -1,
            "priorityFee": "",
            "receiver": "0x8d12a197cb00d4747a1fe03395095ce2a5cc6819",
            "revertMessage": "",
            "sender": "0x3266619dee99c97f4bdd11bfc215ee0d669e3b7a",
            "simulationEnable": true,
            "sourceTxnHash": "0x570664d50cba6dbeb43a705e39d2db868a0b0c7c2521d4adfc11d54ef56b707d",
            "status": true,
            "timestamp": "2017-12-28T17:46:48Z",
            "transactionFee": "0.000252084",
            "txnHash": "0x570664d50cba6dbeb43a705e39d2db868a0b0c7c2521d4adfc11d54ef56b707d",
            "txnIndex": 112,
            "type": 0,
            "value": "0"
        },
        "fund_flow": [
            {
                "amount": "775,401.069",
                "from": "0x8d12a197cb00d4747a1fe03395095ce2a5cc6819",
                "id": 1,
                "isERC1155": false,
                "isERC721": false,
                "isReverted": false,
                "order": 1,
                "to": "0x3266619dee99c97f4bdd11bfc215ee0d669e3b7a",
                "token": "0x818fc6c2ec5986bc6e2cbf00939d90556ab12ce5"
            }
        ],
        "token_infos": [
            {
                "address": "0xeeeeeeeeeeeeeeeeeeeeeeeeeeeeeeeeeeeeeeee",
                "decimals": 18
            },
            {
                "address": "0x818fc6c2ec5986bc6e2cbf00939d90556ab12ce5",
                "decimals": 18
            },
            {
                "address": "0xc02aaa39b223fe8d0a0e5c4f27ead9083c756cc2",
                "decimals": 18
            }
        ]
    },
    "address_label": {
        "labels": [
            {
                "address": "0xeeeeeeeeeeeeeeeeeeeeeeeeeeeeeeeeeeeeeeee",
                "label": "Ether"
            },
            {
                "address": "0x8d12a197cb00d4747a1fe03395095ce2a5cc6819",
                "label": "EtherDelta"
            },
            {
                "address": "0x818fc6c2ec5986bc6e2cbf00939d90556ab12ce5",
                "label": "Kin: Old Token"
            },
            {
                "address": "0x0000000000000000000000000000000000000001",
                "label": "Precompiled"
            },
            {
                "address": "0x0000000000000000000000000000000000000002",
                "label": "Precompiled"
            },
            {
                "address": "0x0000000000000000000000000000000000000003",
                "label": "Precompiled"
            },
            {
                "address": "0x0000000000000000000000000000000000000004",
                "label": "Precompiled"
            }
        ]
    },
    "trace": {
        "accountLabels": null,
        "dataMap": {
            "-1": {
                "invocation": {
                    "address": "0x3266619dee99c97f4bdd11bfc215ee0d669e3b7a",
                    "callData": "",
                    "decodedMethod": null,
                    "errorInfo": "",
                    "fromAddress": "",
                    "gasUsed": 0,
                    "id": -1,
                    "methodDecoded": false,
                    "operation": "",
                    "output": "",
                    "revert": false,
                    "revertMessage": "",
                    "selector": "",
                    "status": false,
                    "value": ""
                },
                "nodeType": 0
            },
            "0": {
                "invocation": {
                    "address": "0x8d12a197cb00d4747a1fe03395095ce2a5cc6819",
                    "callData": "0x000000000000000000000000818fc6c2ec5986bc6e2cbf00939d90556ab12ce500000000000000000000000000000000000000000000a4329380649093848000",
                    "decodedMethod": {
                        "callParams": [
                            {
                                "name": "token",
                                "type": "address",
                                "value": "0x818fc6c2ec5986bc6e2cbf00939d90556ab12ce5"
                            },
                            {
                                "name": "amount",
                                "type": "uint256",
                                "value": "775,401,069,000,000,000,000,000"
                            }
                        ],
                        "constructorArguments": "",
                        "name": "withdrawToken",
                        "returnParams": [],
                        "signature": "withdrawToken(address,uint256)"
                    },
                    "errorInfo": "",
                    "fromAddress": "0x3266619dee99c97f4bdd11bfc215ee0d669e3b7a",
                    "gasUsed": 63021,
                    "id": 0,
                    "methodDecoded": true,
                    "operation": "CALL",
                    "output": "",
                    "revert": false,
                    "revertMessage": "",
                    "selector": "0x9e281a98",
                    "status": true,
                    "value": "0"
                },
                "nodeType": 0
            },
            "1": {
                "invocation": {
                    "address": "0x818fc6c2ec5986bc6e2cbf00939d90556ab12ce5",
                    "callData": "0x0000000000000000000000003266619dee99c97f4bdd11bfc215ee0d669e3b7a00000000000000000000000000000000000000000000a4329380649093848000",
                    "decodedMethod": {
                        "callParams": [
                            {
                                "name": "_to",
                                "type": "address",
                                "value": "0x3266619dee99c97f4bdd11bfc215ee0d669e3b7a"
                            },
                            {
                                "decimalAvailable": true,
                                "name": "_value",
                                "type": "uint256",
                                "value": "775,401,069,000,000,000,000,000"
                            }
                        ],
                        "constructorArguments": "",
                        "name": "transfer",
                        "returnParams": [
                            {
                                "name": "",
                                "type": "bool",
                                "value": true
                            }
                        ],
                        "signature": "transfer(address,uint256)"
                    },
                    "errorInfo": "",
                    "fromAddress": "0x8d12a197cb00d4747a1fe03395095ce2a5cc6819",
                    "gasUsed": 28748,
                    "id": 1,
                    "methodDecoded": true,
                    "operation": "CALL",
                    "output": "0x0000000000000000000000000000000000000000000000000000000000000001",
                    "revert": false,
                    "revertMessage": "",
                    "selector": "0xa9059cbb",
                    "status": true,
                    "value": "0"
                },
                "nodeType": 0
            },
            "2": {
                "event": {
                    "contract": "0x818fc6c2ec5986bc6e2cbf00939d90556ab12ce5",
                    "decodedLog": {
                        "name": "Transfer",
                        "params": [
                            {
                                "name": "from",
                                "type": "address",
                                "value": "0x8d12a197cb00d4747a1fe03395095ce2a5cc6819"
                            },
                            {
                                "name": "to",
                                "type": "address",
                                "value": "0x3266619dee99c97f4bdd11bfc215ee0d669e3b7a"
                            },
                            {
                                "decimalAvailable": true,
                                "name": "value",
                                "type": "uint256",
                                "value": "775,401,069,000,000,000,000,000"
                            }
                        ],
                        "signature": "Transfer(address,address,uint256)"
                    },
                    "id": 2,
                    "logData": "0x00000000000000000000000000000000000000000000a4329380649093848000",
                    "logDecoded": true,
                    "operation": "EVENT",
                    "revert": false,
                    "status": true,
                    "topics": [
                        "0xddf252ad1be2c89b69c2b068fc378daa952ba7f163c4a11628f55a4df523b3ef",
                        "0x0000000000000000000000008d12a197cb00d4747a1fe03395095ce2a5cc6819",
                        "0x0000000000000000000000003266619dee99c97f4bdd11bfc215ee0d669e3b7a"
                    ]
                },
                "nodeType": 1
            },
            "3": {
                "event": {
                    "contract": "0x8d12a197cb00d4747a1fe03395095ce2a5cc6819",
                    "decodedLog": {
                        "name": "Withdraw",
                        "params": [
                            {
                                "name": "token",
                                "type": "address",
                                "value": "0x818fc6c2ec5986bc6e2cbf00939d90556ab12ce5"
                            },
                            {
                                "name": "user",
                                "type": "address",
                                "value": "0x3266619dee99c97f4bdd11bfc215ee0d669e3b7a"
                            },
                            {
                                "name": "amount",
                                "type": "uint256",
                                "value": "775,401,069,000,000,000,000,000"
                            },
                            {
                                "name": "balance",
                                "type": "uint256",
                                "value": "500,000,000,000,000"
                            }
                        ],
                        "signature": "Withdraw(address,address,uint256,uint256)"
                    },
                    "id": 3,
                    "logData": "0x000000000000000000000000818fc6c2ec5986bc6e2cbf00939d90556ab12ce50000000000000000000000003266619dee99c97f4bdd11bfc215ee0d669e3b7a00000000000000000000000000000000000000000000a43293806490938480000000000000000000000000000000000000000000000000000001c6bf52634000",
                    "logDecoded": true,
                    "operation": "EVENT",
                    "revert": false,
                    "status": true,
                    "topics": [
                        "0xf341246adaac6f497bc2a656f546ab9e182111d630394f0c57c710a59a2cb567"
                    ]
                },
                "nodeType": 1
            }
        },
        "gasFlame": [
            {
                "children": [
                    {
                        "children": [
                            {
                                "children": [],
                                "depth": 0,
                                "name": "Initial Gas",
                                "value": 23320
                            },
                            {
                                "children": [
                                    {
                                        "children": [],
                                        "depth": 1,
                                        "name": "transfer",
                                        "value": 28748
                                    }
                                ],
                                "depth": 0,
                                "name": "Executed Gas",
                                "value": 39701
                            }
                        ],
                        "depth": -1,
                        "name": "Actual Gas Used",
                        "value": 63021
                    },
                    {
                        "children": [],
                        "depth": -1,
                        "name": "Refunded Gas",
                        "value": 0
                    }
                ],
                "depth": -2,
                "name": "Total Gas",
                "value": 63021
            }
        ],
        "isConfirmed": true,
        "mainTrace": [
            {
                "children": [
                    {
                        "children": [
                            {
                                "children": [
                                    {
                                        "children": [],
                                        "depth": 2,
                                        "id": 2,
                                        "order": 2
                                    }
                                ],
                                "depth": 1,
                                "id": 1,
                                "order": 1
                            },
                            {
                                "children": [],
                                "depth": 1,
                                "id": 3,
                                "order": 3
                            }
                        ],
                        "depth": 0,
                        "id": 0,
                        "order": 0
                    }
                ],
                "depth": -1,
                "id": -1,
                "order": -1
            }
        ],
        "mainTraceNodeCount": 4,
        "parentIdMap": {
            "0": -1,
            "1": 0,
            "2": 1,
            "3": 0
        },
        "tidyTrace": [
            {
                "children": [
                    {
                        "children": [
                            {
                                "children": [
                                    {
                                        "children": [],
                                        "depth": 2,
                                        "id": 2,
                                        "order": 2
                                    }
                                ],
                                "depth": 1,
                                "id": 1,
                                "order": 1
                            },
                            {
                                "children": [],
                                "depth": 1,
                                "id": 3,
                                "order": 3
                            }
                        ],
                        "depth": 0,
                        "id": 0,
                        "order": 0
                    }
                ],
                "depth": -1,
                "id": -1,
                "order": -1
            }
        ],
        "tidyTraceNodeCount": 4
    },
    "state_change": {
        "stateChanges": [
            {
                "address": "0x818fc6c2ec5986bc6e2cbf00939d90556ab12ce5",
                "erc": "ERC-20",
                "slots": [
                    {
                        "current": "0x00000000000000000000000000000000000000000000a4329380649093848000",
                        "key": "0x8f87304072946e8ec61f9d9c027577014ed5da0659bf34016ad8527f0e1f06fe",
                        "prev": "0x0000000000000000000000000000000000000000000000000000000000000000"
                    },
                    {
                        "current": "0x000000000000000000000000000000000000000032a73bb430875eb56853c4f6",
                        "key": "0x0de0d122a43373f93c7f5bc83be9c5909889bf78423f14bdc79a8945aebf3484",
                        "prev": "0x000000000000000000000000000000000000000032a7dfe6c407c345fbd844f6"
                    }
                ],
                "storageVariables": [
                    {
                        "name": "balances",
                        "type": "mapping(address => uint256)",
                        "value": {
                            "pairs": [
                                {
                                    "key": "0x3266619dee99c97f4bdd11bfc215ee0d669e3b7a",
                                    "value": {
                                        "current": "775401069000000000000000",
                                        "prev": "0",
                                        "typeTag": 1
                                    }
                                },
                                {
                                    "key": "0x8d12a197cb00d4747a1fe03395095ce2a5cc6819",
                                    "value": {
                                        "current": "15676423046476186854110774518",
                                        "prev": "15677198447545186854110774518",
                                        "typeTag": 1
                                    }
                                }
                            ],
                            "typeTag": 4
                        }
                    }
                ]
            },
            {
                "address": "0x8d12a197cb00d4747a1fe03395095ce2a5cc6819",
                "erc": "",
                "slots": [
                    {
                        "current": "0x0000000000000000000000000000000000000000000000000001c6bf52634000",
                        "key": "0x99453d18a6df0b46815f91f8f3e5c5f1fe91e9416de21d8cf405bb65d8b87063",
                        "prev": "0x00000000000000000000000000000000000000000000a43293822b4fe5e7c000"
                    }
                ],
                "storageVariables": []
            }
        ]
    }
}