{
    "balance_change": {
        "balanceChanges": []
    },
    "profile": {
        "basic_info": {
            "baseFee": "48.162734546",
            "blockNumber": 13000367,
            "callData": "0xab834bab0000000000000000000000007be8076f4ea4a4ad08075c2508e481d6c946d12b000000000000000000000000bfd822468b47e71ffc6c87a962c676e821733d36000000000000000000000000b9ccfc18b941a2cc51a956aa6c83360eb9d58de70000000000000000000000000000000000000000000000000000000000000000000000000000000000000000ef9c21e3ba31a74910fc7e7cb3fc814ad842ad6e000000000000000000000000000000000000000000000000000000000000000000000000000000000000000000000000000000000000000000000000000000000000000000000000000000007be8076f4ea4a4ad08075c2508e481d6c946d12b000000000000000000000000b9ccfc18b941a2cc51a956aa6c83360eb9d58de700000000000000000000000000000000000000000000000000000000000000000000000000000000000000005b3256965e7c3cf26e11fcaf296dfc8807c01073000000000000000000000000ef9c21e3ba31a74910fc7e7cb3fc814ad842ad6e0000000000000000000000000000000000000000000000000000000000000000000000000000000000000000000000000000000000000000000000000000000000000000000000000000000000000000000000000000000000000000000003e80000000000000000000000000000000000000000000000000000000000000000000000000000000000000000000000000000000000000000000000000000000000000000000000000000000000000000000000000000000000000000000000000000000000000000000000000000000000000000000000000186cc6acd4b00000000000000000000000000000000000000000000000000000000000000000000000000000000000000000000000000000000000000000000000000006113072300000000000000000000000000000000000000000000000000000000000000004b0d430a503be002af0f9c4c9cfe630982685f4fbbaaf473790fbe1e5e0aa61700000000000000000000000000000000000000000000000000000000000003e80000000000000000000000000000000000000000000000000000000000000000000000000000000000000000000000000000000000000000000000000000000000000000000000000000000000000000000000000000000000000000000000000000000000000000000000000000000000000000000000000186cc6acd4b0000000000000000000000000000000000000000000000000000000000000000000000000000000000000000000000000000000000000000000000000000611306540000000000000000000000000000000000000000000000000000000000000000cdf2735b3663a0f710491af2cc896e212c4156743fb37a6c475beef8c4b052070000000000000000000000000000000000000000000000000000000000000001000000000000000000000000000000000000000000000000000000000000000000000000000000000000000000000000000000000000000000000000000000000000000000000000000000000000000000000000000000000000000000000000000000000000000000000000000000000000000000000000000000000000000100000000000000000000000000000000000000000000000000000000000000010000000000000000000000000000000000000000000000000000000000000000000000000000000000000000000000000000000000000000000000000000000000000000000000000000000000000000000000000000000000000000000006a0000000000000000000000000000000000000000000000000000000000000074000000000000000000000000000000000000000000000000000000000000007e0000000000000000000000000000000000000000000000000000000000000088000000000000000000000000000000000000000000000000000000000000009200000000000000000000000000000000000000000000000000000000000000940000000000000000000000000000000000000000000000000000000000000001c000000000000000000000000000000000000000000000000000000000000001c744c15f473ef19d751b7d61ff0407b52b9483f2bd1c042ce4b01672fa18c91f11cb1e49a2e888b0d1e785d81a8eb3f02dfe6047d008b4c0113b2ac370622bf6b744c15f473ef19d751b7d61ff0407b52b9483f2bd1c042ce4b01672fa18c91f11cb1e49a2e888b0d1e785d81a8eb3f02dfe6047d008b4c0113b2ac370622bf6b6907bf2100120e1ebf6cfc50f0b17ec77ab57d9a000000000000000000000000000000000000000000000000000000000000000000000000000000000000006423b872dd0000000000000000000000000000000000000000000000000000000000000000000000000000000000000000bfd822468b47e71ffc6c87a962c676e821733d360000000000000000000000000000000000000000000000000000000000001eef00000000000000000000000000000000000000000000000000000000000000000000000000000000000000000000000000000000000000000000006423b872dd000000000000000000000000b9ccfc18b941a2cc51a956aa6c83360eb9d58de700000000000000000000000000000000000000000000000000000000000000000000000000000000000000000000000000000000000000000000000000001eef00000000000000000000000000000000000000000000000000000000000000000000000000000000000000000000000000000000000000000000006400000000ffffffffffffffffffffffffffffffffffffffffffffffffffffffffffffffff00000000000000000000000000000000000000000000000000000000000000000000000000000000000000000000000000000000000000000000000000000000000000000000000000000000000000000000000000000000000000000000000000000000000000000000000000000000000000000000000000000064000000000000000000000000000000000000000000000000000000000000000000000000ffffffffffffffffffffffffffffffffffffffffffffffffffffffffffffffff00000000000000000000000000000000000000000000000000000000000000000000000000000000000000000000000000000000000000000000000000000000000000000000000000000000000000000000000000000000000000000000000000000000000000000000000000000000000000000000000000000000",
            "debugEnable": true,
            "errorInfo": "execution reverted",
            "eventCount": 0,
            "feeRecipient": "0x5a0b54d5dc17e0aadc383d2db43b0a0d3e029c4c",
            "formatValue": "0.11",
            "gasLimit": 243448,
            "gasPrice": "50",
            "gasUsed": 64880,
            "intTxnCount": 0,
            "internalRevert": false,
            "internalRevertMessage": "",
            "isContractCreation": false,
            "isFlashloan": false,
            "maxFee": "",
            "nonce": 56,
            "overwritedBlockNumber": -1,
            "priorityFee": "",
            "receiver": "0x7be8076f4ea4a4ad08075c2508e481d6c946d12b",
            "revertMessage": "",
            "sender": "0xbfd822468b47e71ffc6c87a962c676e821733d36",
            "simulationEnable": true,
            "sourceTxnHash": "0x58b69336f67e1c26e5033fcc94003451f21a8092e0a58a0aa3aace1cf7a4d2e0",
            "status": false,
            "timestamp": "2021-08-10T23:13:32Z",
            "transactionFee": "0.003244",
            "txnHash": "0x58b69336f67e1c26e5033fcc94003451f21a8092e0a58a0aa3aace1cf7a4d2e0",
            "txnIndex": 191,
            "type": 0,
            "value": "110000000000000000"
        },
        "fund_flow": [],
        "token_infos": [
            {
                "address": "0xeeeeeeeeeeeeeeeeeeeeeeeeeeeeeeeeeeeeeeee",
                "decimals": 18
            },
            {
                "address": "0xc02aaa39b223fe8d0a0e5c4f27ead9083c756cc2",
                "decimals": 18
            }
        ]
    },
    "address_label": {
        "labels": [
            {
                "address": "0xeeeeeeeeeeeeeeeeeeeeeeeeeeeeeeeeeeeeeeee",
                "label": "Ether"
            },
            {
                "address": "0x5b3256965e7c3cf26e11fcaf296dfc8807c01073",
                "label": "OpenSea: Wallet"
            },
            {
                "address": "0x0000000000000000000000000000000000000000",
                "label": "Null Address"
            },
            {
                "address": "0x0000000000000000000000000000000000000001",
                "label": "Precompiled"
            },
            {
                "address": "0x0000000000000000000000000000000000000004",
                "label": "Precompiled"
            },
            {
                "address": "0x7be8076f4ea4a4ad08075c2508e481d6c946d12b",
                "label": "OpenSea: Wyvern Exchange v1"
            },
            {
                "address": "0xef9c21e3ba31a74910fc7e7cb3fc814ad842ad6e",
                "label": "Warriors of Aradena: WOA Token"
            },
            {
                "address": "0x0000000000000000000000000000000000000002",
                "label": "Precompiled"
            },
            {
                "address": "0x0000000000000000000000000000000000000003",
                "label": "Precompiled"
            }
        ]
    },
    "trace": {
        "accountLabels": null,
        "dataMap": {
            "-1": {
                "invocation": {
                    "address": "0xbfd822468b47e71ffc6c87a962c676e821733d36",
                    "callData": "",
                    "decodedMethod": null,
                    "errorInfo": "",
                    "fromAddress": "",
                    "gasUsed": 0,
                    "id": -1,
                    "methodDecoded": false,
                    "operation": "",
                    "output": "",
                    "revert": false,
                    "revertMessage": "",
                    "selector": "",
                    "status": false,
                    "value": ""
                },
                "nodeType": 0
            },
            "0": {
                "invocation": {
                    "address": "0x7be8076f4ea4a4ad08075c2508e481d6c946d12b",
                    "callData": "0x0000000000000000000000007be8076f4ea4a4ad08075c2508e481d6c946d12b000000000000000000000000bfd822468b47e71ffc6c87a962c676e821733d36000000000000000000000000b9ccfc18b941a2cc51a956aa6c83360eb9d58de70000000000000000000000000000000000000000000000000000000000000000000000000000000000000000ef9c21e3ba31a74910fc7e7cb3fc814ad842ad6e000000000000000000000000000000000000000000000000000000000000000000000000000000000000000000000000000000000000000000000000000000000000000000000000000000007be8076f4ea4a4ad08075c2508e481d6c946d12b000000000000000000000000b9ccfc18b941a2cc51a956aa6c83360eb9d58de700000000000000000000000000000000000000000000000000000000000000000000000000000000000000005b3256965e7c3cf26e11fcaf296dfc8807c01073000000000000000000000000ef9c21e3ba31a74910fc7e7cb3fc814ad842ad6e0000000000000000000000000000000000000000000000000000000000000000000000000000000000000000000000000000000000000000000000000000000000000000000000000000000000000000000000000000000000000000000003e80000000000000000000000000000000000000000000000000000000000000000000000000000000000000000000000000000000000000000000000000000000000000000000000000000000000000000000000000000000000000000000000000000000000000000000000000000000000000000000000000186cc6acd4b00000000000000000000000000000000000000000000000000000000000000000000000000000000000000000000000000000000000000000000000000006113072300000000000000000000000000000000000000000000000000000000000000004b0d430a503be002af0f9c4c9cfe630982685f4fbbaaf473790fbe1e5e0aa61700000000000000000000000000000000000000000000000000000000000003e80000000000000000000000000000000000000000000000000000000000000000000000000000000000000000000000000000000000000000000000000000000000000000000000000000000000000000000000000000000000000000000000000000000000000000000000000000000000000000000000000186cc6acd4b0000000000000000000000000000000000000000000000000000000000000000000000000000000000000000000000000000000000000000000000000000611306540000000000000000000000000000000000000000000000000000000000000000cdf2735b3663a0f710491af2cc896e212c4156743fb37a6c475beef8c4b052070000000000000000000000000000000000000000000000000000000000000001000000000000000000000000000000000000000000000000000000000000000000000000000000000000000000000000000000000000000000000000000000000000000000000000000000000000000000000000000000000000000000000000000000000000000000000000000000000000000000000000000000000000000100000000000000000000000000000000000000000000000000000000000000010000000000000000000000000000000000000000000000000000000000000000000000000000000000000000000000000000000000000000000000000000000000000000000000000000000000000000000000000000000000000000000006a0000000000000000000000000000000000000000000000000000000000000074000000000000000000000000000000000000000000000000000000000000007e0000000000000000000000000000000000000000000000000000000000000088000000000000000000000000000000000000000000000000000000000000009200000000000000000000000000000000000000000000000000000000000000940000000000000000000000000000000000000000000000000000000000000001c000000000000000000000000000000000000000000000000000000000000001c744c15f473ef19d751b7d61ff0407b52b9483f2bd1c042ce4b01672fa18c91f11cb1e49a2e888b0d1e785d81a8eb3f02dfe6047d008b4c0113b2ac370622bf6b744c15f473ef19d751b7d61ff0407b52b9483f2bd1c042ce4b01672fa18c91f11cb1e49a2e888b0d1e785d81a8eb3f02dfe6047d008b4c0113b2ac370622bf6b6907bf2100120e1ebf6cfc50f0b17ec77ab57d9a000000000000000000000000000000000000000000000000000000000000000000000000000000000000006423b872dd0000000000000000000000000000000000000000000000000000000000000000000000000000000000000000bfd822468b47e71ffc6c87a962c676e821733d360000000000000000000000000000000000000000000000000000000000001eef00000000000000000000000000000000000000000000000000000000000000000000000000000000000000000000000000000000000000000000006423b872dd000000000000000000000000b9ccfc18b941a2cc51a956aa6c83360eb9d58de700000000000000000000000000000000000000000000000000000000000000000000000000000000000000000000000000000000000000000000000000001eef00000000000000000000000000000000000000000000000000000000000000000000000000000000000000000000000000000000000000000000006400000000ffffffffffffffffffffffffffffffffffffffffffffffffffffffffffffffff00000000000000000000000000000000000000000000000000000000000000000000000000000000000000000000000000000000000000000000000000000000000000000000000000000000000000000000000000000000000000000000000000000000000000000000000000000000000000000000000000000064000000000000000000000000000000000000000000000000000000000000000000000000ffffffffffffffffffffffffffffffffffffffffffffffffffffffffffffffff00000000000000000000000000000000000000000000000000000000000000000000000000000000000000000000000000000000000000000000000000000000000000000000000000000000000000000000000000000000000000000000000000000000000000000000000000000000000000000000000000000000",
                    "decodedMethod": {
                        "callParams": [
                            {
                                "name": "addrs",
                                "type": "address[14]",
                                "value": [
                                    "0x7be8076f4ea4a4ad08075c2508e481d6c946d12b",
                                    "0xbfd822468b47e71ffc6c87a962c676e821733d36",
                                    "0xb9ccfc18b941a2cc51a956aa6c83360eb9d58de7",
                                    "0x0000000000000000000000000000000000000000",
                                    "0xef9c21e3ba31a74910fc7e7cb3fc814ad842ad6e",
                                    "0x0000000000000000000000000000000000000000",
                                    "0x0000000000000000000000000000000000000000",
                                    "0x7be8076f4ea4a4ad08075c2508e481d6c946d12b",
                                    "0xb9ccfc18b941a2cc51a956aa6c83360eb9d58de7",
                                    "0x0000000000000000000000000000000000000000",
                                    "0x5b3256965e7c3cf26e11fcaf296dfc8807c01073",
                                    "0xef9c21e3ba31a74910fc7e7cb3fc814ad842ad6e",
                                    "0x0000000000000000000000000000000000000000",
                                    "0x0000000000000000000000000000000000000000"
                                ]
                            },
                            {
                                "name": "uints",
                                "type": "uint256[18]",
                                "value": [
                                    "1,000",
                                    "0",
                                    "0",
                                    "0",
                                    "110,000,000,000,000,000",
                                    "0",
                                    "1,628,636,963",
                                    "0",
                                    "33,946,895,350,641,414,260,237,713,874,130,766,847,988,469,497,921,122,192,355,019,371,061,176,870,423",
                                    "1,000",
                                    "0",
                                    "0",
                                    "0",
                                    "110,000,000,000,000,000",
                                    "0",
                                    "1,628,636,756",
                                    "0",
                                    "93,152,507,109,158,854,898,660,706,107,948,690,518,935,473,489,336,619,990,138,018,841,276,602,929,671"
                                ]
                            },
                            {
                                "name": "feeMethodsSidesKindsHowToCalls",
                                "type": "uint8[8]",
                                "value": [
                                    "1",
                                    "0",
                                    "0",
                                    "0",
                                    "1",
                                    "1",
                                    "0",
                                    "0"
                                ]
                            },
                            {
                                "name": "calldataBuy",
                                "type": "bytes",
                                "value": "0x23b872dd0000000000000000000000000000000000000000000000000000000000000000000000000000000000000000bfd822468b47e71ffc6c87a962c676e821733d360000000000000000000000000000000000000000000000000000000000001eef"
                            },
                            {
                                "name": "calldataSell",
                                "type": "bytes",
                                "value": "0x23b872dd000000000000000000000000b9ccfc18b941a2cc51a956aa6c83360eb9d58de700000000000000000000000000000000000000000000000000000000000000000000000000000000000000000000000000000000000000000000000000001eef"
                            },
                            {
                                "name": "replacementPatternBuy",
                                "type": "bytes",
                                "value": "0x00000000ffffffffffffffffffffffffffffffffffffffffffffffffffffffffffffffff00000000000000000000000000000000000000000000000000000000000000000000000000000000000000000000000000000000000000000000000000000000"
                            },
                            {
                                "name": "replacementPatternSell",
                                "type": "bytes",
                                "value": "0x000000000000000000000000000000000000000000000000000000000000000000000000ffffffffffffffffffffffffffffffffffffffffffffffffffffffffffffffff0000000000000000000000000000000000000000000000000000000000000000"
                            },
                            {
                                "name": "staticExtradataBuy",
                                "type": "bytes",
                                "value": "0x"
                            },
                            {
                                "name": "staticExtradataSell",
                                "type": "bytes",
                                "value": "0x"
                            },
                            {
                                "name": "vs",
                                "type": "uint8[2]",
                                "value": [
                                    "28",
                                    "28"
                                ]
                            },
                            {
                                "name": "rssMetadata",
                                "type": "bytes32[5]",
                                "value": [
                                    "0x744c15f473ef19d751b7d61ff0407b52b9483f2bd1c042ce4b01672fa18c91f1",
                                    "0x1cb1e49a2e888b0d1e785d81a8eb3f02dfe6047d008b4c0113b2ac370622bf6b",
                                    "0x744c15f473ef19d751b7d61ff0407b52b9483f2bd1c042ce4b01672fa18c91f1",
                                    "0x1cb1e49a2e888b0d1e785d81a8eb3f02dfe6047d008b4c0113b2ac370622bf6b",
                                    "0x6907bf2100120e1ebf6cfc50f0b17ec77ab57d9a000000000000000000000000"
                                ]
                            }
                        ],
                        "constructorArguments": "",
                        "name": "atomicMatch_",
                        "returnParams": [],
                        "signature": "atomicMatch_(address[14],uint256[18],uint8[8],bytes,bytes,bytes,bytes,bytes,bytes,uint8[2],bytes32[5])"
                    },
                    "errorInfo": "execution reverted",
                    "fromAddress": "0xbfd822468b47e71ffc6c87a962c676e821733d36",
                    "gasUsed": 64880,
                    "id": 0,
                    "methodDecoded": true,
                    "operation": "CALL",
                    "output": "",
                    "revert": true,
                    "revertMessage": "",
                    "selector": "0xab834bab",
                    "status": false,
                    "value": "0.11"
                },
                "nodeType": 0
            }
        },
        "gasFlame": [
            {
                "children": [
                    {
                        "children": [
                            {
                                "children": [],
                                "depth": 0,
                                "name": "Initial Gas",
                                "value": 37024
                            },
                            {
                                "children": [],
                                "depth": 0,
                                "name": "Executed Gas",
                                "value": 27856
                            }
                        ],
                        "depth": -1,
                        "name": "Actual Gas Used",
                        "value": 64880
                    },
                    {
                        "children": [],
                        "depth": -1,
                        "name": "Refunded Gas",
                        "value": 0
                    }
                ],
                "depth": -2,
                "name": "Total Gas",
                "value": 64880
            }
        ],
        "isConfirmed": true,
        "mainTrace": [
            {
                "children": [
                    {
                        "children": [],
                        "depth": 0,
                        "id": 0,
                        "order": 0
                    }
                ],
                "depth": -1,
                "id": -1,
                "order": -1
            }
        ],
        "mainTraceNodeCount": 1,
        "parentIdMap": {
            "0": -1
        },
        "tidyTrace": [
            {
                "children": [
                    {
                        "children": [],
                        "depth": 0,
                        "id": 0,
                        "order": 0
                    }
                ],
                "depth": -1,
                "id": -1,
                "order": -1
            }
        ],
        "tidyTraceNodeCount": 1
    },
    "state_change": {
        "stateChanges": []
    }
}