{
    "balance_change": {
        "balanceChanges": [
            {
                "account": "0x845e2d89fbaee5c42783e3a72a5bbc3635503dfe",
                "assets": [
                    {
                        "address": "0xeeeeeeeeeeeeeeeeeeeeeeeeeeeeeeeeeeeeeeee",
                        "amount": "0.313630027098432669",
                        "iconUrl": "https://assets.blocksec.com/image/1663669189317-3.png",
                        "isERC1155": false,
                        "isERC721": false,
                        "sign": true,
                        "value": "585.625668102475"
                    },
                    {
                        "address": "0x3267c5b73cc15e253b1a90c01366b17d560bc6fb",
                        "amount": "300,000",
                        "iconUrl": "",
                        "isERC1155": false,
                        "isERC721": false,
                        "sign": false,
                        "value": "586.7296458"
                    }
                ]
            },
            {
                "account": "0x4905ec2fbd99b4ccf025953a0b7b3e4174ae4c3f",
                "assets": [
                    {
                        "address": "0x3267c5b73cc15e253b1a90c01366b17d560bc6fb",
                        "amount": "300,000",
                        "iconUrl": "",
                        "isERC1155": false,
                        "isERC721": false,
                        "sign": true,
                        "value": "586.7296458"
                    },
                    {
                        "address": "0xc02aaa39b223fe8d0a0e5c4f27ead9083c756cc2",
                        "amount": "0.313630027098432669",
                        "iconUrl": "https://assets.blocksec.com/icon/f1cb2d02c471d545bbc7722daf3277fd852d98e63d118771af7047bd8256c516.png",
                        "isERC1155": false,
                        "isERC721": false,
                        "sign": false,
                        "value": "585.625668102475"
                    }
                ]
            },
            {
                "account": "0xc02aaa39b223fe8d0a0e5c4f27ead9083c756cc2",
                "assets": [
                    {
                        "address": "0xeeeeeeeeeeeeeeeeeeeeeeeeeeeeeeeeeeeeeeee",
                        "amount": "0.313630027098432669",
                        "iconUrl": "https://assets.blocksec.com/image/1663669189317-3.png",
                        "isERC1155": false,
                        "isERC721": false,
                        "sign": false,
                        "value": "585.625668102475"
                    },
                    {
                        "address": "0xc02aaa39b223fe8d0a0e5c4f27ead9083c756cc2",
                        "amount": "0.313630027098432669",
                        "iconUrl": "https://assets.blocksec.com/icon/f1cb2d02c471d545bbc7722daf3277fd852d98e63d118771af7047bd8256c516.png",
                        "isERC1155": false,
                        "isERC721": false,
                        "sign": true,
                        "value": "585.625668102475"
                    }
                ]
            }
        ]
    },
    "profile": {
        "basic_info": {
            "baseFee": "35.936646985",
            "blockNumber": 17378291,
            "callData": "0x3593564c000000000000000000000000000000000000000000000000000000000000006000000000000000000000000000000000000000000000000000000000000000a0000000000000000000000000000000000000000000000000000000006477297b0000000000000000000000000000000000000000000000000000000000000002080c00000000000000000000000000000000000000000000000000000000000000000000000000000000000000000000000000000000000000000000000000020000000000000000000000000000000000000000000000000000000000000040000000000000000000000000000000000000000000000000000000000000016000000000000000000000000000000000000000000000000000000000000001000000000000000000000000000000000000000000000000000000000000000002000000000000000000000000000000000000000000000000000110d9316ec000000000000000000000000000000000000000000000000000044f34a43c74244000000000000000000000000000000000000000000000000000000000000000a0000000000000000000000000000000000000000000000000000000000000000100000000000000000000000000000000000000000000000000000000000000020000000000000000000000003267c5b73cc15e253b1a90c01366b17d560bc6fb000000000000000000000000c02aaa39b223fe8d0a0e5c4f27ead9083c756cc200000000000000000000000000000000000000000000000000000000000000400000000000000000000000000000000000000000000000000000000000000001000000000000000000000000000000000000000000000000044f34a43c742440",
            "debugEnable": true,
            "errorInfo": "",
            "eventCount": 6,
            "feeRecipient": "0x1f9090aae28b8a3dceadf281b0f12828e676c326",
            "formatValue": "0",
            "gasLimit": 245662,
            "gasPrice": "36.036646985",
            "gasUsed": 167427,
            "intTxnCount": 14,
            "internalRevert": false,
            "internalRevertMessage": "",
            "isContractCreation": false,
            "isFlashloan": false,
            "maxFee": "48.678465226",
            "nonce": 95,
            "overwritedBlockNumber": -1,
            "priorityFee": "0.1",
            "receiver": "0xef1c6e67703c7bd7107eed8303fbe6ec2554bf6b",
            "revertMessage": "",
            "sender": "0x845e2d89fbaee5c42783e3a72a5bbc3635503dfe",
            "simulationEnable": true,
            "sourceTxnHash": "0x58b3d57e3f32af2419a0d892fc09cd6f487f1b469fee43f23731abfc16c1d53f",
            "status": true,
            "timestamp": "2023-05-31T10:33:47Z",
            "transactionFee": "0.006033507694757595",
            "txnHash": "0x58b3d57e3f32af2419a0d892fc09cd6f487f1b469fee43f23731abfc16c1d53f",
            "txnIndex": 121,
            "type": 2,
            "value": "0"
        },
        "fund_flow": [
            {
                "amount": "300,000",
                "from": "0x845e2d89fbaee5c42783e3a72a5bbc3635503dfe",
                "id": 1,
                "isERC1155": false,
                "isERC721": false,
                "isReverted": false,
                "order": 1,
                "to": "0x4905ec2fbd99b4ccf025953a0b7b3e4174ae4c3f",
                "token": "0x3267c5b73cc15e253b1a90c01366b17d560bc6fb"
            },
            {
                "amount": "0.313630027098432669",
                "from": "0x4905ec2fbd99b4ccf025953a0b7b3e4174ae4c3f",
                "id": 2,
                "isERC1155": false,
                "isERC721": false,
                "isReverted": false,
                "order": 2,
                "to": "0xef1c6e67703c7bd7107eed8303fbe6ec2554bf6b",
                "token": "0xc02aaa39b223fe8d0a0e5c4f27ead9083c756cc2"
            },
            {
                "amount": "0.313630027098432669",
                "from": "0xc02aaa39b223fe8d0a0e5c4f27ead9083c756cc2",
                "id": 3,
                "isERC1155": false,
                "isERC721": false,
                "isReverted": false,
                "order": 3,
                "to": "0xef1c6e67703c7bd7107eed8303fbe6ec2554bf6b",
                "token": "0xeeeeeeeeeeeeeeeeeeeeeeeeeeeeeeeeeeeeeeee"
            },
            {
                "amount": "0.313630027098432669",
                "from": "0xef1c6e67703c7bd7107eed8303fbe6ec2554bf6b",
                "id": 4,
                "isERC1155": false,
                "isERC721": false,
                "isReverted": false,
                "order": 4,
                "to": "0xc02aaa39b223fe8d0a0e5c4f27ead9083c756cc2",
                "token": "0xc02aaa39b223fe8d0a0e5c4f27ead9083c756cc2"
            },
            {
                "amount": "0.313630027098432669",
                "from": "0xef1c6e67703c7bd7107eed8303fbe6ec2554bf6b",
                "id": 5,
                "isERC1155": false,
                "isERC721": false,
                "isReverted": false,
                "order": 5,
                "to": "0x845e2d89fbaee5c42783e3a72a5bbc3635503dfe",
                "token": "0xeeeeeeeeeeeeeeeeeeeeeeeeeeeeeeeeeeeeeeee"
            }
        ],
        "token_infos": [
            {
                "address": "0xeeeeeeeeeeeeeeeeeeeeeeeeeeeeeeeeeeeeeeee",
                "decimals": 18
            },
            {
                "address": "0x3267c5b73cc15e253b1a90c01366b17d560bc6fb",
                "decimals": 9
            },
            {
                "address": "0xc02aaa39b223fe8d0a0e5c4f27ead9083c756cc2",
                "decimals": 18
            }
        ]
    },
    "address_label": {
        "labels": [
            {
                "address": "0x3267c5b73cc15e253b1a90c01366b17d560bc6fb",
                "label": "President Ron DeSantis: RON Token"
            },
            {
                "address": "0x0000000000000000000000000000000000000001",
                "label": "Precompiled"
            },
            {
                "address": "0x0000000000000000000000000000000000000003",
                "label": "Precompiled"
            },
            {
                "address": "0xeeeeeeeeeeeeeeeeeeeeeeeeeeeeeeeeeeeeeeee",
                "label": "Ether"
            },
            {
                "address": "0x4905ec2fbd99b4ccf025953a0b7b3e4174ae4c3f",
                "label": "Uniswap V2: RON 8"
            },
            {
                "address": "0xef1c6e67703c7bd7107eed8303fbe6ec2554bf6b",
                "label": "Uniswap: Universal Router 2"
            },
            {
                "address": "0x0000000000000000000000000000000000000002",
                "label": "Precompiled"
            },
            {
                "address": "0x0000000000000000000000000000000000000004",
                "label": "Precompiled"
            },
            {
                "address": "0x000000000022d473030f116ddee9f6b43ac78ba3",
                "label": "Permit2"
            },
            {
                "address": "0xc02aaa39b223fe8d0a0e5c4f27ead9083c756cc2",
                "label": "Wrapped Ether (WETH)"
            }
        ]
    },
    "trace": {
        "accountLabels": null,
        "dataMap": {
            "-1": {
                "invocation": {
                    "address": "0x845e2d89fbaee5c42783e3a72a5bbc3635503dfe",
                    "callData": "",
                    "decodedMethod": null,
                    "errorInfo": "",
                    "fromAddress": "",
                    "gasUsed": 0,
                    "id": -1,
                    "methodDecoded": false,
                    "operation": "",
                    "output": "",
                    "revert": false,
                    "revertMessage": "",
                    "selector": "",
                    "status": false,
                    "value": ""
                },
                "nodeType": 0
            },
            "0": {
                "invocation": {
                    "address": "0xef1c6e67703c7bd7107eed8303fbe6ec2554bf6b",
                    "callData": "0x000000000000000000000000000000000000000000000000000000000000006000000000000000000000000000000000000000000000000000000000000000a0000000000000000000000000000000000000000000000000000000006477297b0000000000000000000000000000000000000000000000000000000000000002080c00000000000000000000000000000000000000000000000000000000000000000000000000000000000000000000000000000000000000000000000000020000000000000000000000000000000000000000000000000000000000000040000000000000000000000000000000000000000000000000000000000000016000000000000000000000000000000000000000000000000000000000000001000000000000000000000000000000000000000000000000000000000000000002000000000000000000000000000000000000000000000000000110d9316ec000000000000000000000000000000000000000000000000000044f34a43c74244000000000000000000000000000000000000000000000000000000000000000a0000000000000000000000000000000000000000000000000000000000000000100000000000000000000000000000000000000000000000000000000000000020000000000000000000000003267c5b73cc15e253b1a90c01366b17d560bc6fb000000000000000000000000c02aaa39b223fe8d0a0e5c4f27ead9083c756cc200000000000000000000000000000000000000000000000000000000000000400000000000000000000000000000000000000000000000000000000000000001000000000000000000000000000000000000000000000000044f34a43c742440",
                    "decodedMethod": {
                        "callParams": [
                            {
                                "name": "commands",
                                "type": "bytes",
                                "value": "0x080c"
                            },
                            {
                                "name": "inputs",
                                "type": "bytes[]",
                                "value": [
                                    "0x0000000000000000000000000000000000000000000000000000000000000002000000000000000000000000000000000000000000000000000110d9316ec000000000000000000000000000000000000000000000000000044f34a43c74244000000000000000000000000000000000000000000000000000000000000000a0000000000000000000000000000000000000000000000000000000000000000100000000000000000000000000000000000000000000000000000000000000020000000000000000000000003267c5b73cc15e253b1a90c01366b17d560bc6fb000000000000000000000000c02aaa39b223fe8d0a0e5c4f27ead9083c756cc2",
                                    "0x0000000000000000000000000000000000000000000000000000000000000001000000000000000000000000000000000000000000000000044f34a43c742440"
                                ]
                            },
                            {
                                "name": "deadline",
                                "type": "uint256",
                                "value": "1,685,531,003"
                            }
                        ],
                        "constructorArguments": "",
                        "name": "execute",
                        "returnParams": [],
                        "signature": "execute(bytes,bytes[],uint256)"
                    },
                    "errorInfo": "",
                    "fromAddress": "0x845e2d89fbaee5c42783e3a72a5bbc3635503dfe",
                    "gasUsed": 167427,
                    "id": 0,
                    "methodDecoded": true,
                    "operation": "CALL",
                    "output": "",
                    "revert": false,
                    "revertMessage": "",
                    "selector": "0x3593564c",
                    "status": true,
                    "value": "0"
                },
                "nodeType": 0
            },
            "1": {
                "invocation": {
                    "address": "0x000000000022d473030f116ddee9f6b43ac78ba3",
                    "callData": "0x000000000000000000000000845e2d89fbaee5c42783e3a72a5bbc3635503dfe0000000000000000000000004905ec2fbd99b4ccf025953a0b7b3e4174ae4c3f000000000000000000000000000000000000000000000000000110d9316ec0000000000000000000000000003267c5b73cc15e253b1a90c01366b17d560bc6fb",
                    "decodedMethod": {
                        "callParams": [
                            {
                                "name": "from",
                                "type": "address",
                                "value": "0x845e2d89fbaee5c42783e3a72a5bbc3635503dfe"
                            },
                            {
                                "name": "to",
                                "type": "address",
                                "value": "0x4905ec2fbd99b4ccf025953a0b7b3e4174ae4c3f"
                            },
                            {
                                "name": "amount",
                                "type": "uint160",
                                "value": "300,000,000,000,000"
                            },
                            {
                                "name": "token",
                                "type": "address",
                                "value": "0x3267c5b73cc15e253b1a90c01366b17d560bc6fb"
                            }
                        ],
                        "constructorArguments": "",
                        "name": "transferFrom",
                        "returnParams": [],
                        "signature": "transferFrom(address,address,uint160,address)"
                    },
                    "errorInfo": "",
                    "fromAddress": "0xef1c6e67703c7bd7107eed8303fbe6ec2554bf6b",
                    "gasUsed": 69338,
                    "id": 1,
                    "methodDecoded": true,
                    "operation": "CALL",
                    "output": "",
                    "revert": false,
                    "revertMessage": "",
                    "selector": "0x36c78516",
                    "status": true,
                    "value": "0"
                },
                "nodeType": 0
            },
            "10": {
                "event": {
                    "contract": "0xc02aaa39b223fe8d0a0e5c4f27ead9083c756cc2",
                    "decodedLog": {
                        "name": "Transfer",
                        "params": [
                            {
                                "name": "src",
                                "type": "address",
                                "value": "0x4905ec2fbd99b4ccf025953a0b7b3e4174ae4c3f"
                            },
                            {
                                "name": "dst",
                                "type": "address",
                                "value": "0xef1c6e67703c7bd7107eed8303fbe6ec2554bf6b"
                            },
                            {
                                "decimalAvailable": true,
                                "name": "wad",
                                "type": "uint256",
                                "value": "313,630,027,098,432,669"
                            }
                        ],
                        "signature": "Transfer(address,address,uint256)"
                    },
                    "id": 10,
                    "logData": "0x000000000000000000000000000000000000000000000000045a3cd91419249d",
                    "logDecoded": true,
                    "operation": "EVENT",
                    "revert": false,
                    "status": true,
                    "topics": [
                        "0xddf252ad1be2c89b69c2b068fc378daa952ba7f163c4a11628f55a4df523b3ef",
                        "0x0000000000000000000000004905ec2fbd99b4ccf025953a0b7b3e4174ae4c3f",
                        "0x000000000000000000000000ef1c6e67703c7bd7107eed8303fbe6ec2554bf6b"
                    ]
                },
                "nodeType": 1
            },
            "11": {
                "invocation": {
                    "address": "0x3267c5b73cc15e253b1a90c01366b17d560bc6fb",
                    "callData": "0x0000000000000000000000004905ec2fbd99b4ccf025953a0b7b3e4174ae4c3f",
                    "decodedMethod": {
                        "callParams": [
                            {
                                "name": "account",
                                "type": "address",
                                "value": "0x4905ec2fbd99b4ccf025953a0b7b3e4174ae4c3f"
                            }
                        ],
                        "constructorArguments": "",
                        "name": "balanceOf",
                        "returnParams": [
                            {
                                "decimalAvailable": true,
                                "name": "",
                                "type": "uint256",
                                "value": "41,056,510,631,539,193"
                            }
                        ],
                        "signature": "balanceOf(address)"
                    },
                    "errorInfo": "",
                    "fromAddress": "0x4905ec2fbd99b4ccf025953a0b7b3e4174ae4c3f",
                    "gasUsed": 1743,
                    "id": 11,
                    "methodDecoded": true,
                    "operation": "STATICCALL",
                    "output": "0x0000000000000000000000000000000000000000000000000091dcadcbe8f1f9",
                    "revert": false,
                    "revertMessage": "",
                    "selector": "0x70a08231",
                    "status": true,
                    "value": "0"
                },
                "nodeType": 0
            },
            "12": {
                "invocation": {
                    "address": "0xc02aaa39b223fe8d0a0e5c4f27ead9083c756cc2",
                    "callData": "0x0000000000000000000000004905ec2fbd99b4ccf025953a0b7b3e4174ae4c3f",
                    "decodedMethod": {
                        "callParams": [
                            {
                                "name": "",
                                "type": "address",
                                "value": "0x4905ec2fbd99b4ccf025953a0b7b3e4174ae4c3f"
                            }
                        ],
                        "constructorArguments": "",
                        "name": "balanceOf",
                        "returnParams": [
                            {
                                "decimalAvailable": true,
                                "name": "",
                                "type": "uint256",
                                "value": "42,736,427,729,211,622,539"
                            }
                        ],
                        "signature": "balanceOf(address)"
                    },
                    "errorInfo": "",
                    "fromAddress": "0x4905ec2fbd99b4ccf025953a0b7b3e4174ae4c3f",
                    "gasUsed": 534,
                    "id": 12,
                    "methodDecoded": true,
                    "operation": "STATICCALL",
                    "output": "0x00000000000000000000000000000000000000000000000251164a97a8d0048b",
                    "revert": false,
                    "revertMessage": "",
                    "selector": "0x70a08231",
                    "status": true,
                    "value": "0"
                },
                "nodeType": 0
            },
            "13": {
                "event": {
                    "contract": "0x4905ec2fbd99b4ccf025953a0b7b3e4174ae4c3f",
                    "decodedLog": {
                        "name": "Sync",
                        "params": [
                            {
                                "name": "reserve0",
                                "type": "uint112",
                                "value": "41,056,510,631,539,193"
                            },
                            {
                                "name": "reserve1",
                                "type": "uint112",
                                "value": "42,736,427,729,211,622,539"
                            }
                        ],
                        "signature": "Sync(uint112,uint112)"
                    },
                    "id": 13,
                    "logData": "0x0000000000000000000000000000000000000000000000000091dcadcbe8f1f900000000000000000000000000000000000000000000000251164a97a8d0048b",
                    "logDecoded": true,
                    "operation": "EVENT",
                    "revert": false,
                    "status": true,
                    "topics": [
                        "0x1c411e9a96e071241c2f21f7726b17ae89e3cab4c78be50e062b03a9fffbbad1"
                    ]
                },
                "nodeType": 1
            },
            "14": {
                "event": {
                    "contract": "0x4905ec2fbd99b4ccf025953a0b7b3e4174ae4c3f",
                    "decodedLog": {
                        "name": "Swap",
                        "params": [
                            {
                                "name": "sender",
                                "type": "address",
                                "value": "0xef1c6e67703c7bd7107eed8303fbe6ec2554bf6b"
                            },
                            {
                                "name": "to",
                                "type": "address",
                                "value": "0xef1c6e67703c7bd7107eed8303fbe6ec2554bf6b"
                            },
                            {
                                "name": "amount0In",
                                "type": "uint256",
                                "value": "300,000,000,000,000"
                            },
                            {
                                "name": "amount1In",
                                "type": "uint256",
                                "value": "0"
                            },
                            {
                                "name": "amount0Out",
                                "type": "uint256",
                                "value": "0"
                            },
                            {
                                "name": "amount1Out",
                                "type": "uint256",
                                "value": "313,630,027,098,432,669"
                            }
                        ],
                        "signature": "Swap(address,uint256,uint256,uint256,uint256,address)"
                    },
                    "id": 14,
                    "logData": "0x000000000000000000000000000000000000000000000000000110d9316ec00000000000000000000000000000000000000000000000000000000000000000000000000000000000000000000000000000000000000000000000000000000000000000000000000000000000000000000000000000000000045a3cd91419249d",
                    "logDecoded": true,
                    "operation": "EVENT",
                    "revert": false,
                    "status": true,
                    "topics": [
                        "0xd78ad95fa46c994b6551d0da85fc275fe613ce37657fb8d5e3d130840159d822",
                        "0x000000000000000000000000ef1c6e67703c7bd7107eed8303fbe6ec2554bf6b",
                        "0x000000000000000000000000ef1c6e67703c7bd7107eed8303fbe6ec2554bf6b"
                    ]
                },
                "nodeType": 1
            },
            "15": {
                "invocation": {
                    "address": "0xc02aaa39b223fe8d0a0e5c4f27ead9083c756cc2",
                    "callData": "0x000000000000000000000000ef1c6e67703c7bd7107eed8303fbe6ec2554bf6b",
                    "decodedMethod": {
                        "callParams": [
                            {
                                "name": "",
                                "type": "address",
                                "value": "0xef1c6e67703c7bd7107eed8303fbe6ec2554bf6b"
                            }
                        ],
                        "constructorArguments": "",
                        "name": "balanceOf",
                        "returnParams": [
                            {
                                "decimalAvailable": true,
                                "name": "",
                                "type": "uint256",
                                "value": "313,630,027,098,432,669"
                            }
                        ],
                        "signature": "balanceOf(address)"
                    },
                    "errorInfo": "",
                    "fromAddress": "0xef1c6e67703c7bd7107eed8303fbe6ec2554bf6b",
                    "gasUsed": 534,
                    "id": 15,
                    "methodDecoded": true,
                    "operation": "STATICCALL",
                    "output": "0x000000000000000000000000000000000000000000000000045a3cd91419249d",
                    "revert": false,
                    "revertMessage": "",
                    "selector": "0x70a08231",
                    "status": true,
                    "value": "0"
                },
                "nodeType": 0
            },
            "16": {
                "invocation": {
                    "address": "0xc02aaa39b223fe8d0a0e5c4f27ead9083c756cc2",
                    "callData": "0x000000000000000000000000ef1c6e67703c7bd7107eed8303fbe6ec2554bf6b",
                    "decodedMethod": {
                        "callParams": [
                            {
                                "name": "",
                                "type": "address",
                                "value": "0xef1c6e67703c7bd7107eed8303fbe6ec2554bf6b"
                            }
                        ],
                        "constructorArguments": "",
                        "name": "balanceOf",
                        "returnParams": [
                            {
                                "decimalAvailable": true,
                                "name": "",
                                "type": "uint256",
                                "value": "313,630,027,098,432,669"
                            }
                        ],
                        "signature": "balanceOf(address)"
                    },
                    "errorInfo": "",
                    "fromAddress": "0xef1c6e67703c7bd7107eed8303fbe6ec2554bf6b",
                    "gasUsed": 534,
                    "id": 16,
                    "methodDecoded": true,
                    "operation": "STATICCALL",
                    "output": "0x000000000000000000000000000000000000000000000000045a3cd91419249d",
                    "revert": false,
                    "revertMessage": "",
                    "selector": "0x70a08231",
                    "status": true,
                    "value": "0"
                },
                "nodeType": 0
            },
            "17": {
                "invocation": {
                    "address": "0xc02aaa39b223fe8d0a0e5c4f27ead9083c756cc2",
                    "callData": "0x000000000000000000000000000000000000000000000000045a3cd91419249d",
                    "decodedMethod": {
                        "callParams": [
                            {
                                "name": "wad",
                                "type": "uint256",
                                "value": "313,630,027,098,432,669"
                            }
                        ],
                        "constructorArguments": "",
                        "name": "withdraw",
                        "returnParams": [],
                        "signature": "withdraw(uint256)"
                    },
                    "errorInfo": "",
                    "fromAddress": "0xef1c6e67703c7bd7107eed8303fbe6ec2554bf6b",
                    "gasUsed": 9202,
                    "id": 17,
                    "methodDecoded": true,
                    "operation": "CALL",
                    "output": "",
                    "revert": false,
                    "revertMessage": "",
                    "selector": "0x2e1a7d4d",
                    "status": true,
                    "value": "0"
                },
                "nodeType": 0
            },
            "18": {
                "invocation": {
                    "address": "0xef1c6e67703c7bd7107eed8303fbe6ec2554bf6b",
                    "callData": "0x",
                    "decodedMethod": null,
                    "errorInfo": "",
                    "fromAddress": "0xc02aaa39b223fe8d0a0e5c4f27ead9083c756cc2",
                    "gasUsed": 62,
                    "id": 18,
                    "methodDecoded": false,
                    "operation": "CALL",
                    "output": "",
                    "revert": false,
                    "revertMessage": "",
                    "selector": "fallback",
                    "status": true,
                    "value": "0.313630027098432669"
                },
                "nodeType": 0
            },
            "19": {
                "event": {
                    "contract": "0xc02aaa39b223fe8d0a0e5c4f27ead9083c756cc2",
                    "decodedLog": {
                        "name": "Withdrawal",
                        "params": [
                            {
                                "name": "src",
                                "type": "address",
                                "value": "0xef1c6e67703c7bd7107eed8303fbe6ec2554bf6b"
                            },
                            {
                                "name": "wad",
                                "type": "uint256",
                                "value": "313,630,027,098,432,669"
                            }
                        ],
                        "signature": "Withdrawal(address,uint256)"
                    },
                    "id": 19,
                    "logData": "0x000000000000000000000000000000000000000000000000045a3cd91419249d",
                    "logDecoded": true,
                    "operation": "EVENT",
                    "revert": false,
                    "status": true,
                    "topics": [
                        "0x7fcf532c15f0a6db0bd6d0e038bea71d30d808c7d98cb3bf7268a95bf5081b65",
                        "0x000000000000000000000000ef1c6e67703c7bd7107eed8303fbe6ec2554bf6b"
                    ]
                },
                "nodeType": 1
            },
            "2": {
                "invocation": {
                    "address": "0x3267c5b73cc15e253b1a90c01366b17d560bc6fb",
                    "callData": "0x000000000000000000000000845e2d89fbaee5c42783e3a72a5bbc3635503dfe0000000000000000000000004905ec2fbd99b4ccf025953a0b7b3e4174ae4c3f000000000000000000000000000000000000000000000000000110d9316ec000",
                    "decodedMethod": {
                        "callParams": [
                            {
                                "name": "sender",
                                "type": "address",
                                "value": "0x845e2d89fbaee5c42783e3a72a5bbc3635503dfe"
                            },
                            {
                                "name": "recipient",
                                "type": "address",
                                "value": "0x4905ec2fbd99b4ccf025953a0b7b3e4174ae4c3f"
                            },
                            {
                                "decimalAvailable": true,
                                "name": "amount",
                                "type": "uint256",
                                "value": "300,000,000,000,000"
                            }
                        ],
                        "constructorArguments": "",
                        "name": "transferFrom",
                        "returnParams": [
                            {
                                "name": "",
                                "type": "bool",
                                "value": true
                            }
                        ],
                        "signature": "transferFrom(address,address,uint256)"
                    },
                    "errorInfo": "",
                    "fromAddress": "0x000000000022d473030f116ddee9f6b43ac78ba3",
                    "gasUsed": 63631,
                    "id": 2,
                    "methodDecoded": true,
                    "operation": "CALL",
                    "output": "0x0000000000000000000000000000000000000000000000000000000000000001",
                    "revert": false,
                    "revertMessage": "",
                    "selector": "0x23b872dd",
                    "status": true,
                    "value": "0"
                },
                "nodeType": 0
            },
            "20": {
                "invocation": {
                    "address": "0x845e2d89fbaee5c42783e3a72a5bbc3635503dfe",
                    "callData": "0x",
                    "decodedMethod": null,
                    "errorInfo": "",
                    "fromAddress": "0xef1c6e67703c7bd7107eed8303fbe6ec2554bf6b",
                    "gasUsed": 0,
                    "id": 20,
                    "methodDecoded": false,
                    "operation": "CALL",
                    "output": "",
                    "revert": false,
                    "revertMessage": "",
                    "selector": "fallback",
                    "status": true,
                    "value": "0.313630027098432669"
                },
                "nodeType": 0
            },
            "3": {
                "event": {
                    "contract": "0x3267c5b73cc15e253b1a90c01366b17d560bc6fb",
                    "decodedLog": {
                        "name": "Transfer",
                        "params": [
                            {
                                "name": "from",
                                "type": "address",
                                "value": "0x845e2d89fbaee5c42783e3a72a5bbc3635503dfe"
                            },
                            {
                                "name": "to",
                                "type": "address",
                                "value": "0x4905ec2fbd99b4ccf025953a0b7b3e4174ae4c3f"
                            },
                            {
                                "decimalAvailable": true,
                                "name": "value",
                                "type": "uint256",
                                "value": "300,000,000,000,000"
                            }
                        ],
                        "signature": "Transfer(address,address,uint256)"
                    },
                    "id": 3,
                    "logData": "0x000000000000000000000000000000000000000000000000000110d9316ec000",
                    "logDecoded": true,
                    "operation": "EVENT",
                    "revert": false,
                    "status": true,
                    "topics": [
                        "0xddf252ad1be2c89b69c2b068fc378daa952ba7f163c4a11628f55a4df523b3ef",
                        "0x000000000000000000000000845e2d89fbaee5c42783e3a72a5bbc3635503dfe",
                        "0x0000000000000000000000004905ec2fbd99b4ccf025953a0b7b3e4174ae4c3f"
                    ]
                },
                "nodeType": 1
            },
            "4": {
                "event": {
                    "contract": "0x3267c5b73cc15e253b1a90c01366b17d560bc6fb",
                    "decodedLog": {
                        "name": "Approval",
                        "params": [
                            {
                                "name": "owner",
                                "type": "address",
                                "value": "0x845e2d89fbaee5c42783e3a72a5bbc3635503dfe"
                            },
                            {
                                "name": "spender",
                                "type": "address",
                                "value": "0x000000000022d473030f116ddee9f6b43ac78ba3"
                            },
                            {
                                "decimalAvailable": true,
                                "name": "value",
                                "type": "uint256",
                                "value": "0"
                            }
                        ],
                        "signature": "Approval(address,address,uint256)"
                    },
                    "id": 4,
                    "logData": "0x0000000000000000000000000000000000000000000000000000000000000000",
                    "logDecoded": true,
                    "operation": "EVENT",
                    "revert": false,
                    "status": true,
                    "topics": [
                        "0x8c5be1e5ebec7d5bd14f71427d1e84f3dd0314c0f7b2291e5b200ac8c7c3b925",
                        "0x000000000000000000000000845e2d89fbaee5c42783e3a72a5bbc3635503dfe",
                        "0x000000000000000000000000000000000022d473030f116ddee9f6b43ac78ba3"
                    ]
                },
                "nodeType": 1
            },
            "5": {
                "invocation": {
                    "address": "0xc02aaa39b223fe8d0a0e5c4f27ead9083c756cc2",
                    "callData": "0x000000000000000000000000ef1c6e67703c7bd7107eed8303fbe6ec2554bf6b",
                    "decodedMethod": {
                        "callParams": [
                            {
                                "name": "",
                                "type": "address",
                                "value": "0xef1c6e67703c7bd7107eed8303fbe6ec2554bf6b"
                            }
                        ],
                        "constructorArguments": "",
                        "name": "balanceOf",
                        "returnParams": [
                            {
                                "decimalAvailable": true,
                                "name": "",
                                "type": "uint256",
                                "value": "0"
                            }
                        ],
                        "signature": "balanceOf(address)"
                    },
                    "errorInfo": "",
                    "fromAddress": "0xef1c6e67703c7bd7107eed8303fbe6ec2554bf6b",
                    "gasUsed": 2534,
                    "id": 5,
                    "methodDecoded": true,
                    "operation": "STATICCALL",
                    "output": "0x0000000000000000000000000000000000000000000000000000000000000000",
                    "revert": false,
                    "revertMessage": "",
                    "selector": "0x70a08231",
                    "status": true,
                    "value": "0"
                },
                "nodeType": 0
            },
            "6": {
                "invocation": {
                    "address": "0x4905ec2fbd99b4ccf025953a0b7b3e4174ae4c3f",
                    "callData": "0x",
                    "decodedMethod": {
                        "callParams": [],
                        "constructorArguments": "",
                        "name": "getReserves",
                        "returnParams": [
                            {
                                "name": "_reserve0",
                                "type": "uint112",
                                "value": "40,756,510,631,539,193"
                            },
                            {
                                "name": "_reserve1",
                                "type": "uint112",
                                "value": "43,050,057,756,310,055,208"
                            },
                            {
                                "name": "_blockTimestampLast",
                                "type": "uint32",
                                "value": "1,685,529,047"
                            }
                        ],
                        "signature": "getReserves()"
                    },
                    "errorInfo": "",
                    "fromAddress": "0xef1c6e67703c7bd7107eed8303fbe6ec2554bf6b",
                    "gasUsed": 2504,
                    "id": 6,
                    "methodDecoded": true,
                    "operation": "STATICCALL",
                    "output": "0x0000000000000000000000000000000000000000000000000090cbd49a7a31f900000000000000000000000000000000000000000000000255708770bce9292800000000000000000000000000000000000000000000000000000000647721d7",
                    "revert": false,
                    "revertMessage": "",
                    "selector": "0x0902f1ac",
                    "status": true,
                    "value": "0"
                },
                "nodeType": 0
            },
            "7": {
                "invocation": {
                    "address": "0x3267c5b73cc15e253b1a90c01366b17d560bc6fb",
                    "callData": "0x0000000000000000000000004905ec2fbd99b4ccf025953a0b7b3e4174ae4c3f",
                    "decodedMethod": {
                        "callParams": [
                            {
                                "name": "account",
                                "type": "address",
                                "value": "0x4905ec2fbd99b4ccf025953a0b7b3e4174ae4c3f"
                            }
                        ],
                        "constructorArguments": "",
                        "name": "balanceOf",
                        "returnParams": [
                            {
                                "decimalAvailable": true,
                                "name": "",
                                "type": "uint256",
                                "value": "41,056,510,631,539,193"
                            }
                        ],
                        "signature": "balanceOf(address)"
                    },
                    "errorInfo": "",
                    "fromAddress": "0xef1c6e67703c7bd7107eed8303fbe6ec2554bf6b",
                    "gasUsed": 1743,
                    "id": 7,
                    "methodDecoded": true,
                    "operation": "STATICCALL",
                    "output": "0x0000000000000000000000000000000000000000000000000091dcadcbe8f1f9",
                    "revert": false,
                    "revertMessage": "",
                    "selector": "0x70a08231",
                    "status": true,
                    "value": "0"
                },
                "nodeType": 0
            },
            "8": {
                "invocation": {
                    "address": "0x4905ec2fbd99b4ccf025953a0b7b3e4174ae4c3f",
                    "callData": "0x0000000000000000000000000000000000000000000000000000000000000000000000000000000000000000000000000000000000000000045a3cd91419249d000000000000000000000000ef1c6e67703c7bd7107eed8303fbe6ec2554bf6b00000000000000000000000000000000000000000000000000000000000000800000000000000000000000000000000000000000000000000000000000000000",
                    "decodedMethod": {
                        "callParams": [
                            {
                                "name": "amount0Out",
                                "type": "uint256",
                                "value": "0"
                            },
                            {
                                "name": "amount1Out",
                                "type": "uint256",
                                "value": "313,630,027,098,432,669"
                            },
                            {
                                "name": "to",
                                "type": "address",
                                "value": "0xef1c6e67703c7bd7107eed8303fbe6ec2554bf6b"
                            },
                            {
                                "name": "data",
                                "type": "bytes",
                                "value": "0x"
                            }
                        ],
                        "constructorArguments": "",
                        "name": "swap",
                        "returnParams": [],
                        "signature": "swap(uint256,uint256,address,bytes)"
                    },
                    "errorInfo": "",
                    "fromAddress": "0xef1c6e67703c7bd7107eed8303fbe6ec2554bf6b",
                    "gasUsed": 61562,
                    "id": 8,
                    "methodDecoded": true,
                    "operation": "CALL",
                    "output": "",
                    "revert": false,
                    "revertMessage": "",
                    "selector": "0x022c0d9f",
                    "status": true,
                    "value": "0"
                },
                "nodeType": 0
            },
            "9": {
                "invocation": {
                    "address": "0xc02aaa39b223fe8d0a0e5c4f27ead9083c756cc2",
                    "callData": "0x000000000000000000000000ef1c6e67703c7bd7107eed8303fbe6ec2554bf6b000000000000000000000000000000000000000000000000045a3cd91419249d",
                    "decodedMethod": {
                        "callParams": [
                            {
                                "name": "dst",
                                "type": "address",
                                "value": "0xef1c6e67703c7bd7107eed8303fbe6ec2554bf6b"
                            },
                            {
                                "decimalAvailable": true,
                                "name": "wad",
                                "type": "uint256",
                                "value": "313,630,027,098,432,669"
                            }
                        ],
                        "constructorArguments": "",
                        "name": "transfer",
                        "returnParams": [
                            {
                                "name": "",
                                "type": "bool",
                                "value": true
                            }
                        ],
                        "signature": "transfer(address,uint256)"
                    },
                    "errorInfo": "",
                    "fromAddress": "0x4905ec2fbd99b4ccf025953a0b7b3e4174ae4c3f",
                    "gasUsed": 27962,
                    "id": 9,
                    "methodDecoded": true,
                    "operation": "CALL",
                    "output": "0x0000000000000000000000000000000000000000000000000000000000000001",
                    "revert": false,
                    "revertMessage": "",
                    "selector": "0xa9059cbb",
                    "status": true,
                    "value": "0"
                },
                "nodeType": 0
            }
        },
        "gasFlame": [
            {
                "children": [
                    {
                        "children": [
                            {
                                "children": [],
                                "depth": 0,
                                "name": "Initial Gas",
                                "value": 24608
                            },
                            {
                                "children": [
                                    {
                                        "children": [
                                            {
                                                "children": [],
                                                "depth": 2,
                                                "name": "transferFrom",
                                                "value": 63631
                                            }
                                        ],
                                        "depth": 1,
                                        "name": "transferFrom",
                                        "value": 69338
                                    },
                                    {
                                        "children": [],
                                        "depth": 1,
                                        "name": "balanceOf",
                                        "value": 2534
                                    },
                                    {
                                        "children": [],
                                        "depth": 1,
                                        "name": "getReserves",
                                        "value": 2504
                                    },
                                    {
                                        "children": [],
                                        "depth": 1,
                                        "name": "balanceOf",
                                        "value": 1743
                                    },
                                    {
                                        "children": [
                                            {
                                                "children": [],
                                                "depth": 2,
                                                "name": "transfer",
                                                "value": 27962
                                            },
                                            {
                                                "children": [],
                                                "depth": 2,
                                                "name": "balanceOf",
                                                "value": 1743
                                            },
                                            {
                                                "children": [],
                                                "depth": 2,
                                                "name": "balanceOf",
                                                "value": 534
                                            }
                                        ],
                                        "depth": 1,
                                        "name": "swap",
                                        "value": 61562
                                    },
                                    {
                                        "children": [],
                                        "depth": 1,
                                        "name": "balanceOf",
                                        "value": 534
                                    },
                                    {
                                        "children": [],
                                        "depth": 1,
                                        "name": "balanceOf",
                                        "value": 534
                                    },
                                    {
                                        "children": [
                                            {
                                                "children": [],
                                                "depth": 2,
                                                "name": "fallback",
                                                "value": 62
                                            }
                                        ],
                                        "depth": 1,
                                        "name": "withdraw",
                                        "value": 9202
                                    },
                                    {
                                        "children": [],
                                        "depth": 1,
                                        "name": "fallback",
                                        "value": 0
                                    }
                                ],
                                "depth": 0,
                                "name": "Executed Gas",
                                "value": 177919
                            }
                        ],
                        "depth": -1,
                        "name": "Actual Gas Used",
                        "value": 167427
                    },
                    {
                        "children": [],
                        "depth": -1,
                        "name": "Refunded Gas",
                        "value": 35100
                    }
                ],
                "depth": -2,
                "name": "Total Gas",
                "value": 202527
            }
        ],
        "isConfirmed": true,
        "mainTrace": [
            {
                "children": [
                    {
                        "children": [
                            {
                                "children": [
                                    {
                                        "children": [
                                            {
                                                "children": [],
                                                "depth": 3,
                                                "id": 3,
                                                "order": 3
                                            },
                                            {
                                                "children": [],
                                                "depth": 3,
                                                "id": 4,
                                                "order": 4
                                            }
                                        ],
                                        "depth": 2,
                                        "id": 2,
                                        "order": 2
                                    }
                                ],
                                "depth": 1,
                                "id": 1,
                                "order": 1
                            },
                            {
                                "children": [],
                                "depth": 1,
                                "id": 5,
                                "order": 5
                            },
                            {
                                "children": [],
                                "depth": 1,
                                "id": 6,
                                "order": 6
                            },
                            {
                                "children": [],
                                "depth": 1,
                                "id": 7,
                                "order": 7
                            },
                            {
                                "children": [
                                    {
                                        "children": [
                                            {
                                                "children": [],
                                                "depth": 3,
                                                "id": 10,
                                                "order": 10
                                            }
                                        ],
                                        "depth": 2,
                                        "id": 9,
                                        "order": 9
                                    },
                                    {
                                        "children": [],
                                        "depth": 2,
                                        "id": 11,
                                        "order": 11
                                    },
                                    {
                                        "children": [],
                                        "depth": 2,
                                        "id": 12,
                                        "order": 12
                                    },
                                    {
                                        "children": [],
                                        "depth": 2,
                                        "id": 13,
                                        "order": 13
                                    },
                                    {
                                        "children": [],
                                        "depth": 2,
                                        "id": 14,
                                        "order": 14
                                    }
                                ],
                                "depth": 1,
                                "id": 8,
                                "order": 8
                            },
                            {
                                "children": [],
                                "depth": 1,
                                "id": 15,
                                "order": 15
                            },
                            {
                                "children": [],
                                "depth": 1,
                                "id": 16,
                                "order": 16
                            },
                            {
                                "children": [
                                    {
                                        "children": [],
                                        "depth": 2,
                                        "id": 18,
                                        "order": 18
                                    },
                                    {
                                        "children": [],
                                        "depth": 2,
                                        "id": 19,
                                        "order": 19
                                    }
                                ],
                                "depth": 1,
                                "id": 17,
                                "order": 17
                            },
                            {
                                "children": [],
                                "depth": 1,
                                "id": 20,
                                "order": 20
                            }
                        ],
                        "depth": 0,
                        "id": 0,
                        "order": 0
                    }
                ],
                "depth": -1,
                "id": -1,
                "order": -1
            }
        ],
        "mainTraceNodeCount": 21,
        "parentIdMap": {
            "0": -1,
            "1": 0,
            "10": 9,
            "11": 8,
            "12": 8,
            "13": 8,
            "14": 8,
            "15": 0,
            "16": 0,
            "17": 0,
            "18": 17,
            "19": 17,
            "2": 1,
            "20": 0,
            "3": 2,
            "4": 2,
            "5": 0,
            "6": 0,
            "7": 0,
            "8": 0,
            "9": 8
        },
        "tidyTrace": [
            {
                "children": [
                    {
                        "children": [
                            {
                                "children": [
                                    {
                                        "children": [
                                            {
                                                "children": [],
                                                "depth": 3,
                                                "id": 3,
                                                "order": 3
                                            },
                                            {
                                                "children": [],
                                                "depth": 3,
                                                "id": 4,
                                                "order": 4
                                            }
                                        ],
                                        "depth": 2,
                                        "id": 2,
                                        "order": 2
                                    }
                                ],
                                "depth": 1,
                                "id": 1,
                                "order": 1
                            },
                            {
                                "children": [
                                    {
                                        "children": [
                                            {
                                                "children": [],
                                                "depth": 3,
                                                "id": 10,
                                                "order": 10
                                            }
                                        ],
                                        "depth": 2,
                                        "id": 9,
                                        "order": 9
                                    },
                                    {
                                        "children": [],
                                        "depth": 2,
                                        "id": 13,
                                        "order": 13
                                    },
                                    {
                                        "children": [],
                                        "depth": 2,
                                        "id": 14,
                                        "order": 14
                                    }
                                ],
                                "depth": 1,
                                "id": 8,
                                "order": 8
                            },
                            {
                                "children": [
                                    {
                                        "children": [],
                                        "depth": 2,
                                        "id": 18,
                                        "order": 18
                                    },
                                    {
                                        "children": [],
                                        "depth": 2,
                                        "id": 19,
                                        "order": 19
                                    }
                                ],
                                "depth": 1,
                                "id": 17,
                                "order": 17
                            },
                            {
                                "children": [],
                                "depth": 1,
                                "id": 20,
                                "order": 20
                            }
                        ],
                        "depth": 0,
                        "id": 0,
                        "order": 0
                    }
                ],
                "depth": -1,
                "id": -1,
                "order": -1
            }
        ],
        "tidyTraceNodeCount": 14
    },
    "state_change": {
        "stateChanges": [
            {
                "address": "0x3267c5b73cc15e253b1a90c01366b17d560bc6fb",
                "erc": "ERC-20",
                "slots": [
                    {
                        "current": "0x0a82adf273494b78ce4e578cea71975d79e03523215e979f07f7ef7ab8725819",
                        "key": "0xe7c69667fe754b56be875b758aa277ad538ea12f42743db70ead89c7b012128f",
                        "prev": "0x0a6f04c842f4191752327d3bd0a38ffe0a0e15303cd00d2d298ee1906feb9819"
                    },
                    {
                        "current": "0x0000000000000000000000000000000000000000000000000000000000000000",
                        "key": "0xaffcb6dbb4543731fb4cfd787790b7d9418acd5b72e5de5c230d3b3b6582f263",
                        "prev": "0x000000000000000000000000000000000000000000000000000110d9316ec000"
                    },
                    {
                        "current": "0x0000000000000000000000000000000000000000000000000000000000000000",
                        "key": "0x0f13e459975446f9f42b8ef28f3946cae9ace21e0e5a1288ade4588a31eea0d6",
                        "prev": "0x0013a92a305532617c1bda5119ce075f6fd21ff2e48e8a71de690dea4886c000"
                    }
                ],
                "storageVariables": [
                    {
                        "name": "_allowances",
                        "type": "mapping(address => mapping(address => uint256))",
                        "value": {
                            "pairs": [
                                {
                                    "key": "0x845e2d89fbaee5c42783e3a72a5bbc3635503dfe",
                                    "value": {
                                        "pairs": [
                                            {
                                                "key": "0x000000000022d473030f116ddee9f6b43ac78ba3",
                                                "value": {
                                                    "current": "0",
                                                    "prev": "300000000000000",
                                                    "typeTag": 1
                                                }
                                            }
                                        ],
                                        "typeTag": 4
                                    }
                                }
                            ],
                            "typeTag": 4
                        }
                    },
                    {
                        "name": "_rOwned",
                        "type": "mapping(address => uint256)",
                        "value": {
                            "pairs": [
                                {
                                    "key": "0x4905ec2fbd99b4ccf025953a0b7b3e4174ae4c3f",
                                    "value": {
                                        "current": "4754019142820007343288451925351358226258716972637207000752623356613493938201",
                                        "prev": "4719281516048812484661380629848751853902735977237514831540786256613493938201",
                                        "typeTag": 1
                                    }
                                },
                                {
                                    "key": "0x845e2d89fbaee5c42783e3a72a5bbc3635503dfe",
                                    "value": {
                                        "current": "0",
                                        "prev": "34737626771194858627071295502606372355980995399692169211837100000000000000",
                                        "typeTag": 1
                                    }
                                }
                            ],
                            "typeTag": 4
                        }
                    }
                ]
            },
            {
                "address": "0x4905ec2fbd99b4ccf025953a0b7b3e4174ae4c3f",
                "erc": "ERC-20",
                "slots": [
                    {
                        "current": "0x000000000000000000000000000000002ee8063dc82bb4caad18b441da8a1c40",
                        "key": "0x000000000000000000000000000000000000000000000000000000000000000a",
                        "prev": "0x000000000000000000000000000000002ee7da9dc64859c5ce59de5959f34fdc"
                    },
                    {
                        "current": "0x6477228b00000000000251164a97a8d0048b0000000000000091dcadcbe8f1f9",
                        "key": "0x0000000000000000000000000000000000000000000000000000000000000008",
                        "prev": "0x647721d700000000000255708770bce929280000000000000090cbd49a7a31f9"
                    },
                    {
                        "current": "0x00000000000000000000000000003737ee885d8b81e4934cd61d0c1704d7aec4",
                        "key": "0x0000000000000000000000000000000000000000000000000000000000000009",
                        "prev": "0x0000000000000000000000000000373507d6fa635d276acf48cfe4e7f8432384"
                    }
                ],
                "storageVariables": [
                    {
                        "name": "price1CumulativeLast",
                        "type": "uint256",
                        "value": {
                            "current": "62349227266611584982735916398835014720",
                            "prev": "62348342445908284682552387059500404700",
                            "typeTag": 1
                        }
                    },
                    {
                        "name": "reserve0",
                        "type": "uint112",
                        "value": {
                            "current": "41056510631539193",
                            "prev": "40756510631539193",
                            "typeTag": 1
                        }
                    },
                    {
                        "name": "reserve1",
                        "type": "uint112",
                        "value": {
                            "current": "42736427729211622539",
                            "prev": "43050057756310055208",
                            "typeTag": 1
                        }
                    },
                    {
                        "name": "blockTimestampLast",
                        "type": "uint32",
                        "value": {
                            "current": "1685529227",
                            "prev": "1685529047",
                            "typeTag": 1
                        }
                    },
                    {
                        "name": "price0CumulativeLast",
                        "type": "uint256",
                        "value": {
                            "current": "4810208320740151759395155834310436691881668",
                            "prev": "4809221112519596343752340854350535572267908",
                            "typeTag": 1
                        }
                    }
                ]
            },
            {
                "address": "0xc02aaa39b223fe8d0a0e5c4f27ead9083c756cc2",
                "erc": "ERC-20",
                "slots": [
                    {
                        "current": "0x00000000000000000000000000000000000000000000000251164a97a8d0048b",
                        "key": "0xeac61782cea87690d8b2373367eb1194b70638c96ce33d2d89a85b06b5585be7",
                        "prev": "0x00000000000000000000000000000000000000000000000255708770bce92928"
                    }
                ],
                "storageVariables": [
                    {
                        "name": "balanceOf",
                        "type": "mapping(address => uint256)",
                        "value": {
                            "pairs": [
                                {
                                    "key": "0x4905ec2fbd99b4ccf025953a0b7b3e4174ae4c3f",
                                    "value": {
                                        "current": "42736427729211622539",
                                        "prev": "43050057756310055208",
                                        "typeTag": 1
                                    }
                                }
                            ],
                            "typeTag": 4
                        }
                    }
                ]
            }
        ]
    }
}