{
    "balance_change": {
        "balanceChanges": [
            {
                "account": "0xddfabcdc4d8ffc6d5beaf154f18b778f892a0740",
                "assets": [
                    {
                        "address": "0x7d1afa7b718fb893db30a3abc0cfc608aacfebb0",
                        "amount": "1,212.9",
                        "iconUrl": "https://assets.blocksec.com/icon/5dc5187d80083e1e6ca5ca29581f660fdc3ebdf47eef117c3dfa3a0c07ab7d33.png",
                        "isERC1155": false,
                        "isERC721": false,
                        "sign": false,
                        "value": "2194.1361"
                    }
                ]
            },
            {
                "account": "0xa10c1c66184091d9805ffeb6a827c0085b5b9693",
                "assets": [
                    {
                        "address": "0x7d1afa7b718fb893db30a3abc0cfc608aacfebb0",
                        "amount": "1,212.9",
                        "iconUrl": "https://assets.blocksec.com/icon/5dc5187d80083e1e6ca5ca29581f660fdc3ebdf47eef117c3dfa3a0c07ab7d33.png",
                        "isERC1155": false,
                        "isERC721": false,
                        "sign": true,
                        "value": "2194.1361"
                    }
                ]
            }
        ]
    },
    "profile": {
        "basic_info": {
            "baseFee": "99.258418717",
            "blockNumber": 13799390,
            "callData": "0xa9059cbb000000000000000000000000a10c1c66184091d9805ffeb6a827c0085b5b9693000000000000000000000000000000000000000000000041c05e6bc7c74a0000",
            "debugEnable": true,
            "errorInfo": "",
            "eventCount": 1,
            "feeRecipient": "0xfad45a9ab2c408f7e6f8d4786f0708171169c2c3",
            "formatValue": "0",
            "gasLimit": 250000,
            "gasPrice": "110.258418717",
            "gasUsed": 36916,
            "intTxnCount": 0,
            "internalRevert": false,
            "internalRevertMessage": "",
            "isContractCreation": false,
            "isFlashloan": false,
            "maxFee": "164",
            "nonce": 3739267,
            "overwritedBlockNumber": -1,
            "priorityFee": "11",
            "receiver": "0x7d1afa7b718fb893db30a3abc0cfc608aacfebb0",
            "revertMessage": "",
            "sender": "0xddfabcdc4d8ffc6d5beaf154f18b778f892a0740",
            "simulationEnable": true,
            "sourceTxnHash": "0x5843b54e72a1fd11855240c69ccd45b85f2d2db86d52a1648615e89f44664211",
            "status": true,
            "timestamp": "2021-12-13T21:47:50Z",
            "transactionFee": "0.004070299785356772",
            "txnHash": "0x5843b54e72a1fd11855240c69ccd45b85f2d2db86d52a1648615e89f44664211",
            "txnIndex": 13,
            "type": 2,
            "value": "0"
        },
        "fund_flow": [
            {
                "amount": "1,212.9",
                "from": "0xddfabcdc4d8ffc6d5beaf154f18b778f892a0740",
                "id": 1,
                "isERC1155": false,
                "isERC721": false,
                "isReverted": false,
                "order": 1,
                "to": "0xa10c1c66184091d9805ffeb6a827c0085b5b9693",
                "token": "0x7d1afa7b718fb893db30a3abc0cfc608aacfebb0"
            }
        ],
        "token_infos": [
            {
                "address": "0x7d1afa7b718fb893db30a3abc0cfc608aacfebb0",
                "decimals": 18
            },
            {
                "address": "0xc02aaa39b223fe8d0a0e5c4f27ead9083c756cc2",
                "decimals": 18
            },
            {
                "address": "0xeeeeeeeeeeeeeeeeeeeeeeeeeeeeeeeeeeeeeeee",
                "decimals": 18
            }
        ]
    },
    "address_label": {
        "labels": [
            {
                "address": "0xeeeeeeeeeeeeeeeeeeeeeeeeeeeeeeeeeeeeeeee",
                "label": "Ether"
            },
            {
                "address": "0xddfabcdc4d8ffc6d5beaf154f18b778f892a0740",
                "label": "Coinbase 3"
            },
            {
                "address": "0x7d1afa7b718fb893db30a3abc0cfc608aacfebb0",
                "label": "Polygon (Matic): Old Matic Token"
            },
            {
                "address": "0x0000000000000000000000000000000000000001",
                "label": "Precompiled"
            },
            {
                "address": "0x0000000000000000000000000000000000000002",
                "label": "Precompiled"
            },
            {
                "address": "0x0000000000000000000000000000000000000003",
                "label": "Precompiled"
            },
            {
                "address": "0x0000000000000000000000000000000000000004",
                "label": "Precompiled"
            }
        ]
    },
    "trace": {
        "accountLabels": null,
        "dataMap": {
            "-1": {
                "invocation": {
                    "address": "0xddfabcdc4d8ffc6d5beaf154f18b778f892a0740",
                    "callData": "",
                    "decodedMethod": null,
                    "errorInfo": "",
                    "fromAddress": "",
                    "gasUsed": 0,
                    "id": -1,
                    "methodDecoded": false,
                    "operation": "",
                    "output": "",
                    "revert": false,
                    "revertMessage": "",
                    "selector": "",
                    "status": false,
                    "value": ""
                },
                "nodeType": 0
            },
            "0": {
                "invocation": {
                    "address": "0x7d1afa7b718fb893db30a3abc0cfc608aacfebb0",
                    "callData": "0x000000000000000000000000a10c1c66184091d9805ffeb6a827c0085b5b9693000000000000000000000000000000000000000000000041c05e6bc7c74a0000",
                    "decodedMethod": {
                        "callParams": [
                            {
                                "name": "to",
                                "type": "address",
                                "value": "0xa10c1c66184091d9805ffeb6a827c0085b5b9693"
                            },
                            {
                                "decimalAvailable": true,
                                "name": "value",
                                "type": "uint256",
                                "value": "1,212,900,000,000,000,000,000"
                            }
                        ],
                        "constructorArguments": "",
                        "name": "transfer",
                        "returnParams": [
                            {
                                "name": "",
                                "type": "bool",
                                "value": true
                            }
                        ],
                        "signature": "transfer(address,uint256)"
                    },
                    "errorInfo": "",
                    "fromAddress": "0xddfabcdc4d8ffc6d5beaf154f18b778f892a0740",
                    "gasUsed": 36916,
                    "id": 0,
                    "methodDecoded": true,
                    "operation": "CALL",
                    "output": "0x0000000000000000000000000000000000000000000000000000000000000001",
                    "revert": false,
                    "revertMessage": "",
                    "selector": "0xa9059cbb",
                    "status": true,
                    "value": "0"
                },
                "nodeType": 0
            },
            "1": {
                "event": {
                    "contract": "0x7d1afa7b718fb893db30a3abc0cfc608aacfebb0",
                    "decodedLog": {
                        "name": "Transfer",
                        "params": [
                            {
                                "name": "from",
                                "type": "address",
                                "value": "0xddfabcdc4d8ffc6d5beaf154f18b778f892a0740"
                            },
                            {
                                "name": "to",
                                "type": "address",
                                "value": "0xa10c1c66184091d9805ffeb6a827c0085b5b9693"
                            },
                            {
                                "decimalAvailable": true,
                                "name": "value",
                                "type": "uint256",
                                "value": "1,212,900,000,000,000,000,000"
                            }
                        ],
                        "signature": "Transfer(address,address,uint256)"
                    },
                    "id": 1,
                    "logData": "0x000000000000000000000000000000000000000000000041c05e6bc7c74a0000",
                    "logDecoded": true,
                    "operation": "EVENT",
                    "revert": false,
                    "status": true,
                    "topics": [
                        "0xddf252ad1be2c89b69c2b068fc378daa952ba7f163c4a11628f55a4df523b3ef",
                        "0x000000000000000000000000ddfabcdc4d8ffc6d5beaf154f18b778f892a0740",
                        "0x000000000000000000000000a10c1c66184091d9805ffeb6a827c0085b5b9693"
                    ]
                },
                "nodeType": 1
            }
        },
        "gasFlame": [
            {
                "children": [
                    {
                        "children": [
                            {
                                "children": [],
                                "depth": 0,
                                "name": "Initial Gas",
                                "value": 21644
                            },
                            {
                                "children": [],
                                "depth": 0,
                                "name": "Executed Gas",
                                "value": 15272
                            }
                        ],
                        "depth": -1,
                        "name": "Actual Gas Used",
                        "value": 36916
                    },
                    {
                        "children": [],
                        "depth": -1,
                        "name": "Refunded Gas",
                        "value": 0
                    }
                ],
                "depth": -2,
                "name": "Total Gas",
                "value": 36916
            }
        ],
        "isConfirmed": true,
        "mainTrace": [
            {
                "children": [
                    {
                        "children": [
                            {
                                "children": [],
                                "depth": 1,
                                "id": 1,
                                "order": 1
                            }
                        ],
                        "depth": 0,
                        "id": 0,
                        "order": 0
                    }
                ],
                "depth": -1,
                "id": -1,
                "order": -1
            }
        ],
        "mainTraceNodeCount": 2,
        "parentIdMap": {
            "0": -1,
            "1": 0
        },
        "tidyTrace": [
            {
                "children": [
                    {
                        "children": [
                            {
                                "children": [],
                                "depth": 1,
                                "id": 1,
                                "order": 1
                            }
                        ],
                        "depth": 0,
                        "id": 0,
                        "order": 0
                    }
                ],
                "depth": -1,
                "id": -1,
                "order": -1
            }
        ],
        "tidyTraceNodeCount": 2
    },
    "state_change": {
        "stateChanges": [
            {
                "address": "0x7d1afa7b718fb893db30a3abc0cfc608aacfebb0",
                "erc": "ERC-20",
                "slots": [
                    {
                        "current": "0x0000000000000000000000000000000000000000000086036ee8affb4c967c0f",
                        "key": "0x550d497e9a49678318c33bf5f550f601692f2a4ec016706efedc3e586254f326",
                        "prev": "0x0000000000000000000000000000000000000000000086452f471bc313e07c0f"
                    },
                    {
                        "current": "0x00000000000000000000000000000000000000000000004c28e77285524a0000",
                        "key": "0xc65a6ff0d2a8f6cb219a4cf7e132803c3346508cedfcddfd3ab30b6463f2f677",
                        "prev": "0x00000000000000000000000000000000000000000000000a688906bd8b000000"
                    }
                ],
                "storageVariables": [
                    {
                        "name": "_balances",
                        "type": "mapping(address => uint256)",
                        "value": {
                            "pairs": [
                                {
                                    "key": "0xa10c1c66184091d9805ffeb6a827c0085b5b9693",
                                    "value": {
                                        "current": "1404900000000000000000",
                                        "prev": "192000000000000000000",
                                        "typeTag": 1
                                    }
                                },
                                {
                                    "key": "0xddfabcdc4d8ffc6d5beaf154f18b778f892a0740",
                                    "value": {
                                        "current": "632860440767786212817935",
                                        "prev": "634073340767786212817935",
                                        "typeTag": 1
                                    }
                                }
                            ],
                            "typeTag": 4
                        }
                    }
                ]
            }
        ]
    }
}