{
    "balance_change": {
        "balanceChanges": [
            {
                "account": "0x0000000000000000000000000000000000000000",
                "assets": [
                    {
                        "address": "0xc36cf0cfcb5d905b8b513860db0cfe63f6cf9f5c",
                        "amount": "1",
                        "iconUrl": "",
                        "isERC1155": true,
                        "isERC721": false,
                        "sign": true,
                        "tokenID": "567590988024125357056908845196189376708608",
                        "value": ""
                    }
                ]
            },
            {
                "account": "0xd1c864bfa76a23dc3d711e23a19e141a3d670c1f",
                "assets": [
                    {
                        "address": "0xc36cf0cfcb5d905b8b513860db0cfe63f6cf9f5c",
                        "amount": "1",
                        "iconUrl": "",
                        "isERC1155": true,
                        "isERC721": false,
                        "sign": false,
                        "tokenID": "567590988024125357056908845196189376708608",
                        "value": ""
                    }
                ]
            }
        ]
    },
    "profile": {
        "basic_info": {
            "baseFee": "30.911701292",
            "blockNumber": 16942621,
            "callData": "0xd7907a61000000000000000000000000c36cf0cfcb5d905b8b513860db0cfe63f6cf9f5c00000000000000000000000000000000000000000000000000000000000000010000000000000000000000000000068400000000000000000000000000000000000000000000000000000000000000000000000000000000000000000000000300000000000000000000000000000000000000000000000000000000000000a0000000000000000000000000000000000000000000000000000000000000001f636c69656e747c36313665393063643732633461643464663534613336366300",
            "debugEnable": true,
            "errorInfo": "",
            "eventCount": 3,
            "feeRecipient": "0x4e9cc05f7f944d618de85396e669922c2cf6813e",
            "formatValue": "0",
            "gasLimit": 109980,
            "gasPrice": "32",
            "gasUsed": 86984,
            "intTxnCount": 6,
            "internalRevert": false,
            "internalRevertMessage": "",
            "isContractCreation": false,
            "isFlashloan": false,
            "maxFee": "32",
            "nonce": 22,
            "overwritedBlockNumber": -1,
            "priorityFee": "32",
            "receiver": "0x9f452b7cc24e6e6fa690fe77cf5dd2ba3dbf1ed9",
            "revertMessage": "",
            "sender": "0xd1c864bfa76a23dc3d711e23a19e141a3d670c1f",
            "simulationEnable": true,
            "sourceTxnHash": "0x584e376b271913b336e2696da50051f49b4bff5932dfdada2ade92dfdd81487a",
            "status": true,
            "timestamp": "2023-03-30T21:06:11Z",
            "transactionFee": "0.002783488",
            "txnHash": "0x584e376b271913b336e2696da50051f49b4bff5932dfdada2ade92dfdd81487a",
            "txnIndex": 56,
            "type": 2,
            "value": "0"
        },
        "fund_flow": [
            {
                "amount": "1",
                "from": "0xd1c864bfa76a23dc3d711e23a19e141a3d670c1f",
                "id": 1,
                "isERC1155": true,
                "isERC721": false,
                "isReverted": false,
                "order": 1,
                "to": "0x9f452b7cc24e6e6fa690fe77cf5dd2ba3dbf1ed9",
                "token": "0xc36cf0cfcb5d905b8b513860db0cfe63f6cf9f5c",
                "tokenID": "567590988024125357056908845196189376708608"
            },
            {
                "amount": "1",
                "from": "0x9f452b7cc24e6e6fa690fe77cf5dd2ba3dbf1ed9",
                "id": 2,
                "isERC1155": true,
                "isERC721": false,
                "isReverted": false,
                "order": 2,
                "to": "0x0000000000000000000000000000000000000000",
                "token": "0xc36cf0cfcb5d905b8b513860db0cfe63f6cf9f5c",
                "tokenID": "567590988024125357056908845196189376708608"
            }
        ],
        "token_infos": [
            {
                "address": "0xc02aaa39b223fe8d0a0e5c4f27ead9083c756cc2",
                "decimals": 18
            },
            {
                "address": "0xeeeeeeeeeeeeeeeeeeeeeeeeeeeeeeeeeeeeeeee",
                "decimals": 18
            }
        ]
    },
    "address_label": {
        "labels": [
            {
                "address": "0xeeeeeeeeeeeeeeeeeeeeeeeeeeeeeeeeeeeeeeee",
                "label": "Ether"
            },
            {
                "address": "0xc36cf0cfcb5d905b8b513860db0cfe63f6cf9f5c",
                "label": "Town Star: Token"
            },
            {
                "address": "0xc664692f38d2528710edbb74f65db6599bc7dee6",
                "label": "Bridge"
            },
            {
                "address": "0x0000000000000000000000000000000000000001",
                "label": "Precompiled"
            },
            {
                "address": "0x0000000000000000000000000000000000000002",
                "label": "Precompiled"
            },
            {
                "address": "0x0000000000000000000000000000000000000003",
                "label": "Precompiled"
            },
            {
                "address": "0x0000000000000000000000000000000000000004",
                "label": "Precompiled"
            }
        ]
    },
    "trace": {
        "accountLabels": null,
        "dataMap": {
            "-1": {
                "invocation": {
                    "address": "0xd1c864bfa76a23dc3d711e23a19e141a3d670c1f",
                    "callData": "",
                    "decodedMethod": null,
                    "errorInfo": "",
                    "fromAddress": "",
                    "gasUsed": 0,
                    "id": -1,
                    "methodDecoded": false,
                    "operation": "",
                    "output": "",
                    "revert": false,
                    "revertMessage": "",
                    "selector": "",
                    "status": false,
                    "value": ""
                },
                "nodeType": 0
            },
            "0": {
                "invocation": {
                    "address": "0x9f452b7cc24e6e6fa690fe77cf5dd2ba3dbf1ed9",
                    "callData": "0x000000000000000000000000c36cf0cfcb5d905b8b513860db0cfe63f6cf9f5c00000000000000000000000000000000000000000000000000000000000000010000000000000000000000000000068400000000000000000000000000000000000000000000000000000000000000000000000000000000000000000000000300000000000000000000000000000000000000000000000000000000000000a0000000000000000000000000000000000000000000000000000000000000001f636c69656e747c36313665393063643732633461643464663534613336366300",
                    "decodedMethod": {
                        "callParams": [
                            {
                                "name": "token",
                                "type": "address",
                                "value": "0xc36cf0cfcb5d905b8b513860db0cfe63f6cf9f5c"
                            },
                            {
                                "name": "amount",
                                "type": "uint256",
                                "value": "1"
                            },
                            {
                                "name": "tokenId",
                                "type": "uint256",
                                "value": "567,590,988,024,125,357,056,908,845,196,189,376,708,608"
                            },
                            {
                                "name": "destinationChainId",
                                "type": "uint16",
                                "value": "3"
                            },
                            {
                                "name": "recipient",
                                "type": "bytes",
                                "value": "0x636c69656e747c363136653930636437326334616434646635346133363663"
                            }
                        ],
                        "constructorArguments": "",
                        "name": "bridgeOut",
                        "returnParams": [],
                        "signature": "bridgeOut(address,uint256,uint256,uint16,bytes)"
                    },
                    "errorInfo": "",
                    "fromAddress": "0xd1c864bfa76a23dc3d711e23a19e141a3d670c1f",
                    "gasUsed": 86984,
                    "id": 0,
                    "methodDecoded": true,
                    "operation": "CALL",
                    "output": "",
                    "revert": false,
                    "revertMessage": "",
                    "selector": "0xd7907a61",
                    "status": true,
                    "value": "0"
                },
                "nodeType": 0
            },
            "1": {
                "invocation": {
                    "address": "0xc664692f38d2528710edbb74f65db6599bc7dee6",
                    "callData": "0x000000000000000000000000c36cf0cfcb5d905b8b513860db0cfe63f6cf9f5c00000000000000000000000000000000000000000000000000000000000000010000000000000000000000000000068400000000000000000000000000000000000000000000000000000000000000000000000000000000000000000000000300000000000000000000000000000000000000000000000000000000000000a0000000000000000000000000000000000000000000000000000000000000001f636c69656e747c36313665393063643732633461643464663534613336366300",
                    "decodedMethod": {
                        "callParams": [
                            {
                                "name": "token",
                                "type": "address",
                                "value": "0xc36cf0cfcb5d905b8b513860db0cfe63f6cf9f5c"
                            },
                            {
                                "name": "amount",
                                "type": "uint256",
                                "value": "1"
                            },
                            {
                                "name": "tokenId",
                                "type": "uint256",
                                "value": "567,590,988,024,125,357,056,908,845,196,189,376,708,608"
                            },
                            {
                                "name": "destinationChainId",
                                "type": "uint16",
                                "value": "3"
                            },
                            {
                                "name": "recipient",
                                "type": "bytes",
                                "value": "0x636c69656e747c363136653930636437326334616434646635346133363663"
                            }
                        ],
                        "constructorArguments": "",
                        "name": "bridgeOut",
                        "returnParams": [],
                        "signature": "bridgeOut(address,uint256,uint256,uint16,bytes)"
                    },
                    "errorInfo": "",
                    "fromAddress": "0x9f452b7cc24e6e6fa690fe77cf5dd2ba3dbf1ed9",
                    "gasUsed": 81158,
                    "id": 1,
                    "methodDecoded": true,
                    "operation": "DELEGATECALL",
                    "output": "",
                    "revert": false,
                    "revertMessage": "",
                    "selector": "0xd7907a61",
                    "status": true,
                    "value": "0"
                },
                "nodeType": 0
            },
            "2": {
                "invocation": {
                    "address": "0xc36cf0cfcb5d905b8b513860db0cfe63f6cf9f5c",
                    "callData": "0x0000000000000000000000000000068400000000000000000000000000000000",
                    "decodedMethod": {
                        "callParams": [
                            {
                                "name": "_id",
                                "type": "uint256",
                                "value": "567,590,988,024,125,357,056,908,845,196,189,376,708,608"
                            }
                        ],
                        "constructorArguments": "",
                        "name": "isFungible",
                        "returnParams": [
                            {
                                "name": "",
                                "type": "bool",
                                "value": true
                            }
                        ],
                        "signature": "isFungible(uint256)"
                    },
                    "errorInfo": "",
                    "fromAddress": "0x9f452b7cc24e6e6fa690fe77cf5dd2ba3dbf1ed9",
                    "gasUsed": 347,
                    "id": 2,
                    "methodDecoded": true,
                    "operation": "STATICCALL",
                    "output": "0x0000000000000000000000000000000000000000000000000000000000000001",
                    "revert": false,
                    "revertMessage": "",
                    "selector": "0xadebf6f2",
                    "status": true,
                    "value": "0"
                },
                "nodeType": 0
            },
            "3": {
                "invocation": {
                    "address": "0xc36cf0cfcb5d905b8b513860db0cfe63f6cf9f5c",
                    "callData": "0x000000000000000000000000d1c864bfa76a23dc3d711e23a19e141a3d670c1f0000000000000000000000009f452b7cc24e6e6fa690fe77cf5dd2ba3dbf1ed90000000000000000000000000000068400000000000000000000000000000000000000000000000000000000000000000000000000000000000000000000000100000000000000000000000000000000000000000000000000000000000000a00000000000000000000000000000000000000000000000000000000000000000",
                    "decodedMethod": {
                        "callParams": [
                            {
                                "name": "_from",
                                "type": "address",
                                "value": "0xd1c864bfa76a23dc3d711e23a19e141a3d670c1f"
                            },
                            {
                                "name": "_to",
                                "type": "address",
                                "value": "0x9f452b7cc24e6e6fa690fe77cf5dd2ba3dbf1ed9"
                            },
                            {
                                "name": "_id",
                                "type": "uint256",
                                "value": "567,590,988,024,125,357,056,908,845,196,189,376,708,608"
                            },
                            {
                                "name": "_value",
                                "type": "uint256",
                                "value": "1"
                            },
                            {
                                "name": "_data",
                                "type": "bytes",
                                "value": "0x"
                            }
                        ],
                        "constructorArguments": "",
                        "name": "safeTransferFrom",
                        "returnParams": [],
                        "signature": "safeTransferFrom(address,address,uint256,uint256,bytes)"
                    },
                    "errorInfo": "",
                    "fromAddress": "0x9f452b7cc24e6e6fa690fe77cf5dd2ba3dbf1ed9",
                    "gasUsed": 36101,
                    "id": 3,
                    "methodDecoded": true,
                    "operation": "CALL",
                    "output": "",
                    "revert": false,
                    "revertMessage": "",
                    "selector": "0xf242432a",
                    "status": true,
                    "value": "0"
                },
                "nodeType": 0
            },
            "4": {
                "event": {
                    "contract": "0xc36cf0cfcb5d905b8b513860db0cfe63f6cf9f5c",
                    "decodedLog": {
                        "name": "TransferSingle",
                        "params": [
                            {
                                "name": "_operator",
                                "type": "address",
                                "value": "0x9f452b7cc24e6e6fa690fe77cf5dd2ba3dbf1ed9"
                            },
                            {
                                "name": "_from",
                                "type": "address",
                                "value": "0xd1c864bfa76a23dc3d711e23a19e141a3d670c1f"
                            },
                            {
                                "name": "_to",
                                "type": "address",
                                "value": "0x9f452b7cc24e6e6fa690fe77cf5dd2ba3dbf1ed9"
                            },
                            {
                                "name": "_id",
                                "type": "uint256",
                                "value": "567,590,988,024,125,357,056,908,845,196,189,376,708,608"
                            },
                            {
                                "name": "_value",
                                "type": "uint256",
                                "value": "1"
                            }
                        ],
                        "signature": "TransferSingle(address,address,address,uint256,uint256)"
                    },
                    "id": 4,
                    "logData": "0x00000000000000000000000000000684000000000000000000000000000000000000000000000000000000000000000000000000000000000000000000000001",
                    "logDecoded": true,
                    "operation": "EVENT",
                    "revert": false,
                    "status": true,
                    "topics": [
                        "0xc3d58168c5ae7397731d063d5bbf3d657854427343f4c083240f7aacaa2d0f62",
                        "0x0000000000000000000000009f452b7cc24e6e6fa690fe77cf5dd2ba3dbf1ed9",
                        "0x000000000000000000000000d1c864bfa76a23dc3d711e23a19e141a3d670c1f",
                        "0x0000000000000000000000009f452b7cc24e6e6fa690fe77cf5dd2ba3dbf1ed9"
                    ]
                },
                "nodeType": 1
            },
            "5": {
                "invocation": {
                    "address": "0x9f452b7cc24e6e6fa690fe77cf5dd2ba3dbf1ed9",
                    "callData": "0x0000000000000000000000009f452b7cc24e6e6fa690fe77cf5dd2ba3dbf1ed9000000000000000000000000d1c864bfa76a23dc3d711e23a19e141a3d670c1f0000000000000000000000000000068400000000000000000000000000000000000000000000000000000000000000000000000000000000000000000000000100000000000000000000000000000000000000000000000000000000000000a00000000000000000000000000000000000000000000000000000000000000000",
                    "decodedMethod": {
                        "callParams": [
                            {
                                "name": "operator",
                                "type": "address",
                                "value": "0x9f452b7cc24e6e6fa690fe77cf5dd2ba3dbf1ed9"
                            },
                            {
                                "name": "from",
                                "type": "address",
                                "value": "0xd1c864bfa76a23dc3d711e23a19e141a3d670c1f"
                            },
                            {
                                "name": "",
                                "type": "uint256",
                                "value": "567,590,988,024,125,357,056,908,845,196,189,376,708,608"
                            },
                            {
                                "name": "",
                                "type": "uint256",
                                "value": "1"
                            },
                            {
                                "name": "",
                                "type": "bytes",
                                "value": "0x"
                            }
                        ],
                        "constructorArguments": "",
                        "name": "onERC1155Received",
                        "returnParams": [
                            {
                                "name": "",
                                "type": "bytes4",
                                "value": "0xf23a6e61"
                            }
                        ],
                        "signature": "onERC1155Received(address,address,uint256,uint256,bytes)"
                    },
                    "errorInfo": "",
                    "fromAddress": "0xc36cf0cfcb5d905b8b513860db0cfe63f6cf9f5c",
                    "gasUsed": 1557,
                    "id": 5,
                    "methodDecoded": true,
                    "operation": "CALL",
                    "output": "0xf23a6e6100000000000000000000000000000000000000000000000000000000",
                    "revert": false,
                    "revertMessage": "",
                    "selector": "0xf23a6e61",
                    "status": true,
                    "value": "0"
                },
                "nodeType": 0
            },
            "6": {
                "invocation": {
                    "address": "0xc664692f38d2528710edbb74f65db6599bc7dee6",
                    "callData": "0x0000000000000000000000009f452b7cc24e6e6fa690fe77cf5dd2ba3dbf1ed9000000000000000000000000d1c864bfa76a23dc3d711e23a19e141a3d670c1f0000000000000000000000000000068400000000000000000000000000000000000000000000000000000000000000000000000000000000000000000000000100000000000000000000000000000000000000000000000000000000000000a00000000000000000000000000000000000000000000000000000000000000000",
                    "decodedMethod": {
                        "callParams": [
                            {
                                "name": "operator",
                                "type": "address",
                                "value": "0x9f452b7cc24e6e6fa690fe77cf5dd2ba3dbf1ed9"
                            },
                            {
                                "name": "from",
                                "type": "address",
                                "value": "0xd1c864bfa76a23dc3d711e23a19e141a3d670c1f"
                            },
                            {
                                "name": "",
                                "type": "uint256",
                                "value": "567,590,988,024,125,357,056,908,845,196,189,376,708,608"
                            },
                            {
                                "name": "",
                                "type": "uint256",
                                "value": "1"
                            },
                            {
                                "name": "",
                                "type": "bytes",
                                "value": "0x"
                            }
                        ],
                        "constructorArguments": "",
                        "name": "onERC1155Received",
                        "returnParams": [
                            {
                                "name": "",
                                "type": "bytes4",
                                "value": "0xf23a6e61"
                            }
                        ],
                        "signature": "onERC1155Received(address,address,uint256,uint256,bytes)"
                    },
                    "errorInfo": "",
                    "fromAddress": "0x9f452b7cc24e6e6fa690fe77cf5dd2ba3dbf1ed9",
                    "gasUsed": 1132,
                    "id": 6,
                    "methodDecoded": true,
                    "operation": "DELEGATECALL",
                    "output": "0xf23a6e6100000000000000000000000000000000000000000000000000000000",
                    "revert": false,
                    "revertMessage": "",
                    "selector": "0xf23a6e61",
                    "status": true,
                    "value": "0"
                },
                "nodeType": 0
            },
            "7": {
                "invocation": {
                    "address": "0xc36cf0cfcb5d905b8b513860db0cfe63f6cf9f5c",
                    "callData": "0x0000000000000000000000009f452b7cc24e6e6fa690fe77cf5dd2ba3dbf1ed9000000000000000000000000000000000000000000000000000000000000006000000000000000000000000000000000000000000000000000000000000000a00000000000000000000000000000000000000000000000000000000000000001000000000000000000000000000006840000000000000000000000000000000000000000000000000000000000000000000000000000000000000000000000010000000000000000000000000000000000000000000000000000000000000001",
                    "decodedMethod": {
                        "callParams": [
                            {
                                "name": "_from",
                                "type": "address",
                                "value": "0x9f452b7cc24e6e6fa690fe77cf5dd2ba3dbf1ed9"
                            },
                            {
                                "name": "_ids",
                                "type": "uint256[]",
                                "value": [
                                    "567,590,988,024,125,357,056,908,845,196,189,376,708,608"
                                ]
                            },
                            {
                                "name": "_values",
                                "type": "uint256[]",
                                "value": [
                                    "1"
                                ]
                            }
                        ],
                        "constructorArguments": "",
                        "name": "burn",
                        "returnParams": [],
                        "signature": "burn(address,uint256[],uint256[])"
                    },
                    "errorInfo": "",
                    "fromAddress": "0x9f452b7cc24e6e6fa690fe77cf5dd2ba3dbf1ed9",
                    "gasUsed": 4852,
                    "id": 7,
                    "methodDecoded": true,
                    "operation": "CALL",
                    "output": "",
                    "revert": false,
                    "revertMessage": "",
                    "selector": "0x3db0f8ab",
                    "status": true,
                    "value": "0"
                },
                "nodeType": 0
            },
            "8": {
                "event": {
                    "contract": "0xc36cf0cfcb5d905b8b513860db0cfe63f6cf9f5c",
                    "decodedLog": {
                        "name": "TransferSingle",
                        "params": [
                            {
                                "name": "_operator",
                                "type": "address",
                                "value": "0x9f452b7cc24e6e6fa690fe77cf5dd2ba3dbf1ed9"
                            },
                            {
                                "name": "_from",
                                "type": "address",
                                "value": "0x9f452b7cc24e6e6fa690fe77cf5dd2ba3dbf1ed9"
                            },
                            {
                                "name": "_to",
                                "type": "address",
                                "value": "0x0000000000000000000000000000000000000000"
                            },
                            {
                                "name": "_id",
                                "type": "uint256",
                                "value": "567,590,988,024,125,357,056,908,845,196,189,376,708,608"
                            },
                            {
                                "name": "_value",
                                "type": "uint256",
                                "value": "1"
                            }
                        ],
                        "signature": "TransferSingle(address,address,address,uint256,uint256)"
                    },
                    "id": 8,
                    "logData": "0x00000000000000000000000000000684000000000000000000000000000000000000000000000000000000000000000000000000000000000000000000000001",
                    "logDecoded": true,
                    "operation": "EVENT",
                    "revert": false,
                    "status": true,
                    "topics": [
                        "0xc3d58168c5ae7397731d063d5bbf3d657854427343f4c083240f7aacaa2d0f62",
                        "0x0000000000000000000000009f452b7cc24e6e6fa690fe77cf5dd2ba3dbf1ed9",
                        "0x0000000000000000000000009f452b7cc24e6e6fa690fe77cf5dd2ba3dbf1ed9",
                        "0x0000000000000000000000000000000000000000000000000000000000000000"
                    ]
                },
                "nodeType": 1
            },
            "9": {
                "event": {
                    "contract": "0x9f452b7cc24e6e6fa690fe77cf5dd2ba3dbf1ed9",
                    "decodedLog": {
                        "name": "BridgeTokens",
                        "params": [
                            {
                                "name": "emitter",
                                "type": "bytes32",
                                "value": "0x0000000000000000000000009f452b7cc24e6e6fa690fe77cf5dd2ba3dbf1ed9"
                            },
                            {
                                "name": "chainId",
                                "type": "uint16",
                                "value": "2"
                            },
                            {
                                "name": "sequence",
                                "type": "uint64",
                                "value": "21,749"
                            },
                            {
                                "name": "nonce",
                                "type": "bytes32",
                                "value": "0xa504e9e1a0dee90f192e2d14ecc1ad82cb03a0c5f722722b9eb22f1910d37c2b"
                            },
                            {
                                "name": "payload",
                                "type": "bytes",
                                "value": "0x01000300001f636c69656e747c363136653930636437326334616434646635346133363663010000000000000000000000000000000000000000000000000000000000000001000000000000000000000000000000000000000000000000000000000000000000314d7573696324536f6e6724506172747920496e204d7920486561642028496e737472756d656e74616c2924504c53265459"
                            }
                        ],
                        "signature": "BridgeTokens(bytes32,uint16,uint64,bytes32,bytes)"
                    },
                    "id": 9,
                    "logData": "0x0000000000000000000000009f452b7cc24e6e6fa690fe77cf5dd2ba3dbf1ed9000000000000000000000000000000000000000000000000000000000000000200000000000000000000000000000000000000000000000000000000000054f5a504e9e1a0dee90f192e2d14ecc1ad82cb03a0c5f722722b9eb22f1910d37c2b00000000000000000000000000000000000000000000000000000000000000a0000000000000000000000000000000000000000000000000000000000000009901000300001f636c69656e747c363136653930636437326334616434646635346133363663010000000000000000000000000000000000000000000000000000000000000001000000000000000000000000000000000000000000000000000000000000000000314d7573696324536f6e6724506172747920496e204d7920486561642028496e737472756d656e74616c2924504c5326545900000000000000",
                    "logDecoded": true,
                    "operation": "EVENT",
                    "revert": false,
                    "status": true,
                    "topics": [
                        "0xb2d93ec15439019c2bd2b7d1271afd1bab015bc32c9626b0f54483958e8f2530"
                    ]
                },
                "nodeType": 1
            }
        },
        "gasFlame": [
            {
                "children": [
                    {
                        "children": [
                            {
                                "children": [],
                                "depth": 0,
                                "name": "Initial Gas",
                                "value": 22644
                            },
                            {
                                "children": [
                                    {
                                        "children": [
                                            {
                                                "children": [],
                                                "depth": 2,
                                                "name": "isFungible",
                                                "value": 347
                                            },
                                            {
                                                "children": [
                                                    {
                                                        "children": [
                                                            {
                                                                "children": [],
                                                                "depth": 4,
                                                                "name": "onERC1155Received",
                                                                "value": 1132
                                                            }
                                                        ],
                                                        "depth": 3,
                                                        "name": "onERC1155Received",
                                                        "value": 1557
                                                    }
                                                ],
                                                "depth": 2,
                                                "name": "safeTransferFrom",
                                                "value": 36101
                                            },
                                            {
                                                "children": [],
                                                "depth": 2,
                                                "name": "burn",
                                                "value": 4852
                                            }
                                        ],
                                        "depth": 1,
                                        "name": "bridgeOut",
                                        "value": 81158
                                    }
                                ],
                                "depth": 0,
                                "name": "Executed Gas",
                                "value": 86086
                            }
                        ],
                        "depth": -1,
                        "name": "Actual Gas Used",
                        "value": 86984
                    },
                    {
                        "children": [],
                        "depth": -1,
                        "name": "Refunded Gas",
                        "value": 21746
                    }
                ],
                "depth": -2,
                "name": "Total Gas",
                "value": 108730
            }
        ],
        "isConfirmed": true,
        "mainTrace": [
            {
                "children": [
                    {
                        "children": [
                            {
                                "children": [
                                    {
                                        "children": [],
                                        "depth": 2,
                                        "id": 2,
                                        "order": 2
                                    },
                                    {
                                        "children": [
                                            {
                                                "children": [],
                                                "depth": 3,
                                                "id": 4,
                                                "order": 4
                                            },
                                            {
                                                "children": [
                                                    {
                                                        "children": [],
                                                        "depth": 4,
                                                        "id": 6,
                                                        "order": 6
                                                    }
                                                ],
                                                "depth": 3,
                                                "id": 5,
                                                "order": 5
                                            }
                                        ],
                                        "depth": 2,
                                        "id": 3,
                                        "order": 3
                                    },
                                    {
                                        "children": [
                                            {
                                                "children": [],
                                                "depth": 3,
                                                "id": 8,
                                                "order": 8
                                            }
                                        ],
                                        "depth": 2,
                                        "id": 7,
                                        "order": 7
                                    },
                                    {
                                        "children": [],
                                        "depth": 2,
                                        "id": 9,
                                        "order": 9
                                    }
                                ],
                                "depth": 1,
                                "id": 1,
                                "order": 1
                            }
                        ],
                        "depth": 0,
                        "id": 0,
                        "order": 0
                    }
                ],
                "depth": -1,
                "id": -1,
                "order": -1
            }
        ],
        "mainTraceNodeCount": 10,
        "parentIdMap": {
            "0": -1,
            "1": 0,
            "2": 1,
            "3": 1,
            "4": 3,
            "5": 3,
            "6": 5,
            "7": 1,
            "8": 7,
            "9": 1
        },
        "tidyTrace": [
            {
                "children": [
                    {
                        "children": [
                            {
                                "children": [
                                    {
                                        "children": [
                                            {
                                                "children": [],
                                                "depth": 3,
                                                "id": 4,
                                                "order": 4
                                            },
                                            {
                                                "children": [
                                                    {
                                                        "children": [],
                                                        "depth": 4,
                                                        "id": 6,
                                                        "order": 6
                                                    }
                                                ],
                                                "depth": 3,
                                                "id": 5,
                                                "order": 5
                                            }
                                        ],
                                        "depth": 2,
                                        "id": 3,
                                        "order": 3
                                    },
                                    {
                                        "children": [
                                            {
                                                "children": [],
                                                "depth": 3,
                                                "id": 8,
                                                "order": 8
                                            }
                                        ],
                                        "depth": 2,
                                        "id": 7,
                                        "order": 7
                                    },
                                    {
                                        "children": [],
                                        "depth": 2,
                                        "id": 9,
                                        "order": 9
                                    }
                                ],
                                "depth": 1,
                                "id": 1,
                                "order": 1
                            }
                        ],
                        "depth": 0,
                        "id": 0,
                        "order": 0
                    }
                ],
                "depth": -1,
                "id": -1,
                "order": -1
            }
        ],
        "tidyTraceNodeCount": 9
    },
    "state_change": {
        "stateChanges": [
            {
                "address": "0x9f452b7cc24e6e6fa690fe77cf5dd2ba3dbf1ed9",
                "erc": "",
                "slots": [
                    {
                        "current": "0x00000000000000000000000000000000000000000000000000000000000054f6",
                        "key": "0x07b26557da28ba49062e0328822024c4af75c9bcd1fcb0d96f1702cfe37e7d77",
                        "prev": "0x00000000000000000000000000000000000000000000000000000000000054f5"
                    }
                ],
                "storageVariables": []
            },
            {
                "address": "0xc36cf0cfcb5d905b8b513860db0cfe63f6cf9f5c",
                "erc": "ERC-1155",
                "slots": [
                    {
                        "current": "0x0000000000000000000000000000000000000000000000000000000000000000",
                        "key": "0x3508fbe5bd6f8aefe50d1d5b3d36f87b973ca2fd0a3f44ca006b660880ad0dab",
                        "prev": "0x0000000000000000000000000000000000000000000000000000000000000001"
                    }
                ],
                "storageVariables": [
                    {
                        "name": "balances",
                        "type": "mapping(uint256 => mapping(address => uint256))",
                        "value": {
                            "pairs": [
                                {
                                    "key": "567590988024125357056908845196189376708608",
                                    "value": {
                                        "pairs": [
                                            {
                                                "key": "0xd1c864bfa76a23dc3d711e23a19e141a3d670c1f",
                                                "value": {
                                                    "current": "0",
                                                    "prev": "1",
                                                    "typeTag": 1
                                                }
                                            }
                                        ],
                                        "typeTag": 4
                                    }
                                }
                            ],
                            "typeTag": 4
                        }
                    }
                ]
            }
        ]
    }
}