{
    "balance_change": {
        "balanceChanges": [
            {
                "account": "0xf96503340fd474c59c26f9a0fe294bd7f585d89b",
                "assets": [
                    {
                        "address": "0xb131f4a55907b10d1f0a50d8ab8fa09ec342cd74",
                        "amount": "2,283.24547014927260426",
                        "iconUrl": "",
                        "isERC1155": false,
                        "isERC721": false,
                        "sign": true,
                        "value": "56.167838562000000774"
                    }
                ]
            },
            {
                "account": "0xc059a531b4234d05e9ef4ac51028f7e6156e2cce",
                "assets": [
                    {
                        "address": "0xc059a531b4234d05e9ef4ac51028f7e6156e2cce",
                        "amount": "2,283.24547014927260426",
                        "iconUrl": "",
                        "isERC1155": false,
                        "isERC721": false,
                        "sign": false,
                        "value": "56.167838562000000774"
                    },
                    {
                        "address": "0xb131f4a55907b10d1f0a50d8ab8fa09ec342cd74",
                        "amount": "2,283.24547014927260426",
                        "iconUrl": "",
                        "isERC1155": false,
                        "isERC721": false,
                        "sign": false,
                        "value": "56.167838562000000774"
                    }
                ]
            },
            {
                "account": "0x0000000000000000000000000000000000000000",
                "assets": [
                    {
                        "address": "0xc059a531b4234d05e9ef4ac51028f7e6156e2cce",
                        "amount": "2,283.24547014927260426",
                        "iconUrl": "",
                        "isERC1155": false,
                        "isERC721": false,
                        "sign": true,
                        "value": "56.167838562000000774"
                    }
                ]
            }
        ]
    },
    "profile": {
        "basic_info": {
            "baseFee": "6.977977445",
            "blockNumber": 19784970,
            "callData": "0xe1c8455d00000000000000000000000000000000000000000000007bc66569f2a3270e65000000000000000000000000000000000000000000000000000000000000004000000000000000000000000000000000000000000000000000000000000000010000000000000000000000000000000000000000000000000000000000000020000000000000000000000000000000000000000000000000000000000000000100000000000000000000000000000000000000000000007bc66569f2a3270e650000000000000000000000000000000000000000000000000000000000000060000000000000000000000000000000000000000000000000000000000000001295f7bb1ac0b1ec97449b1aa7f2485dc4b9f6ec567011d6ca5752c7c6c3e8dbcba30bf6a9ba99233d5bbf30ee72d7d758c7b2fe7549249345841caaee945aa096339e57d814c837fc7ed85b414392e6138e084d7652dde51ea56461176c4fbdf28046f426553f4520c9ade1c0e8f4652278e12f7713e031fff96eb6d903baa1fc9b36e95d7eec847dda50c4686d176fad2cf18bf727ba9333abad22cbf82e13d25679854c64e2674457fe7f8f0e69778d0d05616ef261799e01cbea1b88aa458bbd180e1f582aa37dbb9e0a801018ac39e5cb09cf9d08f0234ab00393c56207fd40e70308a12b77b43fc61214645dba828362a035098b3381b0918c745192d1b3e738dcd7ffa1bd4a6cd8cd76dc2e335b436340602abcb715d814ecf46851713538506bb9c7a867dca84854cc814bdbe19fe95a0ece4944507c9cf918d3d7d969edd3a88ce36487044ba6c16d416f618380599c65273b6e4126a28a5b030dcdb9767e2b4bb48ca22291074a9544499dd7b58d2ecd34ce33f3fb978fde093833261ffad1c046493e96321adf497bb91c4650d7516f258116c87d69e45eb061c4afa801837cda33bba6fdfe8c88dbd8eef3c40494c923bba4dbe2c33b24c978c94ca46a4681dcc9029eed8febe4c5e156d0629cf46c0e6c87b1a77741c3202ee76997862d3e858b934f088526ee43a7525b84a0eeaf954c37b1c8f7c2cf9d8b39caf8c71d637bbd325b87ab4c094dd4ef5df9a1d62c6dea6d0f573c21dbfb086bf7fbc617f85f57eb6ae6a910db84ffd7eea166608f0587b82a0d02fa84ac8abd81",
            "debugEnable": true,
            "errorInfo": "",
            "eventCount": 5,
            "feeRecipient": "0x1f9090aae28b8a3dceadf281b0f12828e676c326",
            "formatValue": "0",
            "gasLimit": 190914,
            "gasPrice": "7.027977445",
            "gasUsed": 100288,
            "intTxnCount": 2,
            "internalRevert": false,
            "internalRevertMessage": "",
            "isContractCreation": false,
            "isFlashloan": false,
            "maxFee": "8",
            "nonce": 9,
            "overwritedBlockNumber": -1,
            "priorityFee": "0.05",
            "receiver": "0xc059a531b4234d05e9ef4ac51028f7e6156e2cce",
            "revertMessage": "",
            "sender": "0xf96503340fd474c59c26f9a0fe294bd7f585d89b",
            "simulationEnable": true,
            "sourceTxnHash": "0x586e46415c948d059eb645cf3af8258794a5b942a2788b4b805c6923a30a38ba",
            "status": true,
            "timestamp": "2024-05-02T20:58:59Z",
            "transactionFee": "0.00070482180200416",
            "txnHash": "0x586e46415c948d059eb645cf3af8258794a5b942a2788b4b805c6923a30a38ba",
            "txnIndex": 79,
            "type": 2,
            "value": "0"
        },
        "fund_flow": [
            {
                "amount": "2,283.24547014927260426",
                "from": "0xc059a531b4234d05e9ef4ac51028f7e6156e2cce",
                "id": 1,
                "isERC1155": false,
                "isERC721": false,
                "isReverted": false,
                "order": 1,
                "to": "0xf96503340fd474c59c26f9a0fe294bd7f585d89b",
                "token": "0xc059a531b4234d05e9ef4ac51028f7e6156e2cce"
            },
            {
                "amount": "2,283.24547014927260426",
                "from": "0xc059a531b4234d05e9ef4ac51028f7e6156e2cce",
                "id": 2,
                "isERC1155": false,
                "isERC721": false,
                "isReverted": false,
                "order": 2,
                "to": "0xf96503340fd474c59c26f9a0fe294bd7f585d89b",
                "token": "0xb131f4a55907b10d1f0a50d8ab8fa09ec342cd74"
            },
            {
                "amount": "2,283.24547014927260426",
                "from": "0xf96503340fd474c59c26f9a0fe294bd7f585d89b",
                "id": 3,
                "isERC1155": false,
                "isERC721": false,
                "isReverted": false,
                "order": 3,
                "to": "0x0000000000000000000000000000000000000000",
                "token": "0xc059a531b4234d05e9ef4ac51028f7e6156e2cce"
            }
        ],
        "token_infos": [
            {
                "address": "0xb131f4a55907b10d1f0a50d8ab8fa09ec342cd74",
                "decimals": 18
            },
            {
                "address": "0xc02aaa39b223fe8d0a0e5c4f27ead9083c756cc2",
                "decimals": 18
            },
            {
                "address": "0xc059a531b4234d05e9ef4ac51028f7e6156e2cce",
                "decimals": 18
            },
            {
                "address": "0xeeeeeeeeeeeeeeeeeeeeeeeeeeeeeeeeeeeeeeee",
                "decimals": 18
            }
        ]
    },
    "address_label": {
        "labels": [
            {
                "address": "0xc059a531b4234d05e9ef4ac51028f7e6156e2cce",
                "label": "Memecoin: Staked Memecoin Token"
            },
            {
                "address": "0xb131f4a55907b10d1f0a50d8ab8fa09ec342cd74",
                "label": "Memecoin: MEME Token"
            },
            {
                "address": "0x319e9a7a3d4cf01625379e3c75ef7ae2e70960b2",
                "label": "MemecoinStaking"
            },
            {
                "address": "0x0000000000000000000000000000000000000001",
                "label": "Precompiled"
            },
            {
                "address": "0x0000000000000000000000000000000000000002",
                "label": "Precompiled"
            },
            {
                "address": "0x0000000000000000000000000000000000000003",
                "label": "Precompiled"
            },
            {
                "address": "0x0000000000000000000000000000000000000004",
                "label": "Precompiled"
            },
            {
                "address": "0xeeeeeeeeeeeeeeeeeeeeeeeeeeeeeeeeeeeeeeee",
                "label": "Ether"
            }
        ]
    },
    "trace": {
        "accountLabels": null,
        "dataMap": {
            "-1": {
                "invocation": {
                    "address": "0xf96503340fd474c59c26f9a0fe294bd7f585d89b",
                    "callData": "",
                    "decodedMethod": null,
                    "errorInfo": "",
                    "fromAddress": "",
                    "gasUsed": 0,
                    "id": -1,
                    "methodDecoded": false,
                    "operation": "",
                    "output": "",
                    "revert": false,
                    "revertMessage": "",
                    "selector": "",
                    "status": false,
                    "value": ""
                },
                "nodeType": 0
            },
            "0": {
                "invocation": {
                    "address": "0xc059a531b4234d05e9ef4ac51028f7e6156e2cce",
                    "callData": "0x00000000000000000000000000000000000000000000007bc66569f2a3270e65000000000000000000000000000000000000000000000000000000000000004000000000000000000000000000000000000000000000000000000000000000010000000000000000000000000000000000000000000000000000000000000020000000000000000000000000000000000000000000000000000000000000000100000000000000000000000000000000000000000000007bc66569f2a3270e650000000000000000000000000000000000000000000000000000000000000060000000000000000000000000000000000000000000000000000000000000001295f7bb1ac0b1ec97449b1aa7f2485dc4b9f6ec567011d6ca5752c7c6c3e8dbcba30bf6a9ba99233d5bbf30ee72d7d758c7b2fe7549249345841caaee945aa096339e57d814c837fc7ed85b414392e6138e084d7652dde51ea56461176c4fbdf28046f426553f4520c9ade1c0e8f4652278e12f7713e031fff96eb6d903baa1fc9b36e95d7eec847dda50c4686d176fad2cf18bf727ba9333abad22cbf82e13d25679854c64e2674457fe7f8f0e69778d0d05616ef261799e01cbea1b88aa458bbd180e1f582aa37dbb9e0a801018ac39e5cb09cf9d08f0234ab00393c56207fd40e70308a12b77b43fc61214645dba828362a035098b3381b0918c745192d1b3e738dcd7ffa1bd4a6cd8cd76dc2e335b436340602abcb715d814ecf46851713538506bb9c7a867dca84854cc814bdbe19fe95a0ece4944507c9cf918d3d7d969edd3a88ce36487044ba6c16d416f618380599c65273b6e4126a28a5b030dcdb9767e2b4bb48ca22291074a9544499dd7b58d2ecd34ce33f3fb978fde093833261ffad1c046493e96321adf497bb91c4650d7516f258116c87d69e45eb061c4afa801837cda33bba6fdfe8c88dbd8eef3c40494c923bba4dbe2c33b24c978c94ca46a4681dcc9029eed8febe4c5e156d0629cf46c0e6c87b1a77741c3202ee76997862d3e858b934f088526ee43a7525b84a0eeaf954c37b1c8f7c2cf9d8b39caf8c71d637bbd325b87ab4c094dd4ef5df9a1d62c6dea6d0f573c21dbfb086bf7fbc617f85f57eb6ae6a910db84ffd7eea166608f0587b82a0d02fa84ac8abd81",
                    "decodedMethod": {
                        "callParams": [
                            {
                                "name": "amount",
                                "type": "uint256",
                                "value": "2,283,245,470,149,272,604,261"
                            },
                            {
                                "name": "rewards",
                                "type": "(uint256,uint256,bytes32[])[]",
                                "value": [
                                    [
                                        {
                                            "name": "rewardId",
                                            "type": "uint256",
                                            "value": "1"
                                        },
                                        {
                                            "name": "amount",
                                            "type": "uint256",
                                            "value": "2,283,245,470,149,272,604,261"
                                        },
                                        {
                                            "name": "proof",
                                            "type": "bytes32[]",
                                            "value": [
                                                "0x95f7bb1ac0b1ec97449b1aa7f2485dc4b9f6ec567011d6ca5752c7c6c3e8dbcb",
                                                "0xa30bf6a9ba99233d5bbf30ee72d7d758c7b2fe7549249345841caaee945aa096",
                                                "0x339e57d814c837fc7ed85b414392e6138e084d7652dde51ea56461176c4fbdf2",
                                                "0x8046f426553f4520c9ade1c0e8f4652278e12f7713e031fff96eb6d903baa1fc",
                                                "0x9b36e95d7eec847dda50c4686d176fad2cf18bf727ba9333abad22cbf82e13d2",
                                                "0x5679854c64e2674457fe7f8f0e69778d0d05616ef261799e01cbea1b88aa458b",
                                                "0xbd180e1f582aa37dbb9e0a801018ac39e5cb09cf9d08f0234ab00393c56207fd",
                                                "0x40e70308a12b77b43fc61214645dba828362a035098b3381b0918c745192d1b3",
                                                "0xe738dcd7ffa1bd4a6cd8cd76dc2e335b436340602abcb715d814ecf468517135",
                                                "0x38506bb9c7a867dca84854cc814bdbe19fe95a0ece4944507c9cf918d3d7d969",
                                                "0xedd3a88ce36487044ba6c16d416f618380599c65273b6e4126a28a5b030dcdb9",
                                                "0x767e2b4bb48ca22291074a9544499dd7b58d2ecd34ce33f3fb978fde09383326",
                                                "0x1ffad1c046493e96321adf497bb91c4650d7516f258116c87d69e45eb061c4af",
                                                "0xa801837cda33bba6fdfe8c88dbd8eef3c40494c923bba4dbe2c33b24c978c94c",
                                                "0xa46a4681dcc9029eed8febe4c5e156d0629cf46c0e6c87b1a77741c3202ee769",
                                                "0x97862d3e858b934f088526ee43a7525b84a0eeaf954c37b1c8f7c2cf9d8b39ca",
                                                "0xf8c71d637bbd325b87ab4c094dd4ef5df9a1d62c6dea6d0f573c21dbfb086bf7",
                                                "0xfbc617f85f57eb6ae6a910db84ffd7eea166608f0587b82a0d02fa84ac8abd81"
                                            ]
                                        }
                                    ]
                                ]
                            }
                        ],
                        "constructorArguments": "",
                        "name": "unstake",
                        "returnParams": [],
                        "signature": "unstake(uint256,(uint256,uint256,bytes32[])[])"
                    },
                    "errorInfo": "",
                    "fromAddress": "0xf96503340fd474c59c26f9a0fe294bd7f585d89b",
                    "gasUsed": 100288,
                    "id": 0,
                    "methodDecoded": true,
                    "operation": "CALL",
                    "output": "",
                    "revert": false,
                    "revertMessage": "",
                    "selector": "0xe1c8455d",
                    "status": true,
                    "value": "0"
                },
                "nodeType": 0
            },
            "1": {
                "invocation": {
                    "address": "0x319e9a7a3d4cf01625379e3c75ef7ae2e70960b2",
                    "callData": "0x00000000000000000000000000000000000000000000007bc66569f2a3270e65000000000000000000000000000000000000000000000000000000000000004000000000000000000000000000000000000000000000000000000000000000010000000000000000000000000000000000000000000000000000000000000020000000000000000000000000000000000000000000000000000000000000000100000000000000000000000000000000000000000000007bc66569f2a3270e650000000000000000000000000000000000000000000000000000000000000060000000000000000000000000000000000000000000000000000000000000001295f7bb1ac0b1ec97449b1aa7f2485dc4b9f6ec567011d6ca5752c7c6c3e8dbcba30bf6a9ba99233d5bbf30ee72d7d758c7b2fe7549249345841caaee945aa096339e57d814c837fc7ed85b414392e6138e084d7652dde51ea56461176c4fbdf28046f426553f4520c9ade1c0e8f4652278e12f7713e031fff96eb6d903baa1fc9b36e95d7eec847dda50c4686d176fad2cf18bf727ba9333abad22cbf82e13d25679854c64e2674457fe7f8f0e69778d0d05616ef261799e01cbea1b88aa458bbd180e1f582aa37dbb9e0a801018ac39e5cb09cf9d08f0234ab00393c56207fd40e70308a12b77b43fc61214645dba828362a035098b3381b0918c745192d1b3e738dcd7ffa1bd4a6cd8cd76dc2e335b436340602abcb715d814ecf46851713538506bb9c7a867dca84854cc814bdbe19fe95a0ece4944507c9cf918d3d7d969edd3a88ce36487044ba6c16d416f618380599c65273b6e4126a28a5b030dcdb9767e2b4bb48ca22291074a9544499dd7b58d2ecd34ce33f3fb978fde093833261ffad1c046493e96321adf497bb91c4650d7516f258116c87d69e45eb061c4afa801837cda33bba6fdfe8c88dbd8eef3c40494c923bba4dbe2c33b24c978c94ca46a4681dcc9029eed8febe4c5e156d0629cf46c0e6c87b1a77741c3202ee76997862d3e858b934f088526ee43a7525b84a0eeaf954c37b1c8f7c2cf9d8b39caf8c71d637bbd325b87ab4c094dd4ef5df9a1d62c6dea6d0f573c21dbfb086bf7fbc617f85f57eb6ae6a910db84ffd7eea166608f0587b82a0d02fa84ac8abd81",
                    "decodedMethod": {
                        "callParams": [
                            {
                                "name": "amount",
                                "type": "uint256",
                                "value": "2,283,245,470,149,272,604,261"
                            },
                            {
                                "name": "rewards",
                                "type": "(uint256,uint256,bytes32[])[]",
                                "value": [
                                    [
                                        {
                                            "name": "rewardId",
                                            "type": "uint256",
                                            "value": "1"
                                        },
                                        {
                                            "name": "amount",
                                            "type": "uint256",
                                            "value": "2,283,245,470,149,272,604,261"
                                        },
                                        {
                                            "name": "proof",
                                            "type": "bytes32[]",
                                            "value": [
                                                "0x95f7bb1ac0b1ec97449b1aa7f2485dc4b9f6ec567011d6ca5752c7c6c3e8dbcb",
                                                "0xa30bf6a9ba99233d5bbf30ee72d7d758c7b2fe7549249345841caaee945aa096",
                                                "0x339e57d814c837fc7ed85b414392e6138e084d7652dde51ea56461176c4fbdf2",
                                                "0x8046f426553f4520c9ade1c0e8f4652278e12f7713e031fff96eb6d903baa1fc",
                                                "0x9b36e95d7eec847dda50c4686d176fad2cf18bf727ba9333abad22cbf82e13d2",
                                                "0x5679854c64e2674457fe7f8f0e69778d0d05616ef261799e01cbea1b88aa458b",
                                                "0xbd180e1f582aa37dbb9e0a801018ac39e5cb09cf9d08f0234ab00393c56207fd",
                                                "0x40e70308a12b77b43fc61214645dba828362a035098b3381b0918c745192d1b3",
                                                "0xe738dcd7ffa1bd4a6cd8cd76dc2e335b436340602abcb715d814ecf468517135",
                                                "0x38506bb9c7a867dca84854cc814bdbe19fe95a0ece4944507c9cf918d3d7d969",
                                                "0xedd3a88ce36487044ba6c16d416f618380599c65273b6e4126a28a5b030dcdb9",
                                                "0x767e2b4bb48ca22291074a9544499dd7b58d2ecd34ce33f3fb978fde09383326",
                                                "0x1ffad1c046493e96321adf497bb91c4650d7516f258116c87d69e45eb061c4af",
                                                "0xa801837cda33bba6fdfe8c88dbd8eef3c40494c923bba4dbe2c33b24c978c94c",
                                                "0xa46a4681dcc9029eed8febe4c5e156d0629cf46c0e6c87b1a77741c3202ee769",
                                                "0x97862d3e858b934f088526ee43a7525b84a0eeaf954c37b1c8f7c2cf9d8b39ca",
                                                "0xf8c71d637bbd325b87ab4c094dd4ef5df9a1d62c6dea6d0f573c21dbfb086bf7",
                                                "0xfbc617f85f57eb6ae6a910db84ffd7eea166608f0587b82a0d02fa84ac8abd81"
                                            ]
                                        }
                                    ]
                                ]
                            }
                        ],
                        "constructorArguments": "",
                        "name": "unstake",
                        "returnParams": [],
                        "signature": "unstake(uint256,(uint256,uint256,bytes32[])[])"
                    },
                    "errorInfo": "",
                    "fromAddress": "0xc059a531b4234d05e9ef4ac51028f7e6156e2cce",
                    "gasUsed": 86353,
                    "id": 1,
                    "methodDecoded": true,
                    "operation": "DELEGATECALL",
                    "output": "",
                    "revert": false,
                    "revertMessage": "",
                    "selector": "0xe1c8455d",
                    "status": true,
                    "value": "0"
                },
                "nodeType": 0
            },
            "2": {
                "event": {
                    "contract": "0xc059a531b4234d05e9ef4ac51028f7e6156e2cce",
                    "decodedLog": {
                        "name": "Transfer",
                        "params": [
                            {
                                "name": "from",
                                "type": "address",
                                "value": "0xc059a531b4234d05e9ef4ac51028f7e6156e2cce"
                            },
                            {
                                "name": "to",
                                "type": "address",
                                "value": "0xf96503340fd474c59c26f9a0fe294bd7f585d89b"
                            },
                            {
                                "decimalAvailable": true,
                                "name": "value",
                                "type": "uint256",
                                "value": "2,283,245,470,149,272,604,261"
                            }
                        ],
                        "signature": "Transfer(address,address,uint256)"
                    },
                    "id": 2,
                    "logData": "0x00000000000000000000000000000000000000000000007bc66569f2a3270e65",
                    "logDecoded": true,
                    "operation": "EVENT",
                    "revert": false,
                    "status": true,
                    "topics": [
                        "0xddf252ad1be2c89b69c2b068fc378daa952ba7f163c4a11628f55a4df523b3ef",
                        "0x000000000000000000000000c059a531b4234d05e9ef4ac51028f7e6156e2cce",
                        "0x000000000000000000000000f96503340fd474c59c26f9a0fe294bd7f585d89b"
                    ]
                },
                "nodeType": 1
            },
            "3": {
                "event": {
                    "contract": "0xc059a531b4234d05e9ef4ac51028f7e6156e2cce",
                    "decodedLog": {
                        "name": "RewardRedeemed",
                        "params": [
                            {
                                "name": "user",
                                "type": "address",
                                "value": "0xf96503340fd474c59c26f9a0fe294bd7f585d89b"
                            },
                            {
                                "name": "rewardId",
                                "type": "uint256",
                                "value": "1"
                            },
                            {
                                "name": "amount",
                                "type": "uint256",
                                "value": "2,283,245,470,149,272,604,261"
                            },
                            {
                                "name": "redeemedAt",
                                "type": "uint256",
                                "value": "1,714,683,539"
                            }
                        ],
                        "signature": "RewardRedeemed(address,uint256,uint256,uint256)"
                    },
                    "id": 3,
                    "logData": "0x000000000000000000000000f96503340fd474c59c26f9a0fe294bd7f585d89b000000000000000000000000000000000000000000000000000000000000000100000000000000000000000000000000000000000000007bc66569f2a3270e65000000000000000000000000000000000000000000000000000000006633fe93",
                    "logDecoded": true,
                    "operation": "EVENT",
                    "revert": false,
                    "status": true,
                    "topics": [
                        "0x3569089751b9afbf4110ebb01963d7909f9edff9dbf9730e2784f7d9bcb6ab73"
                    ]
                },
                "nodeType": 1
            },
            "4": {
                "invocation": {
                    "address": "0xb131f4a55907b10d1f0a50d8ab8fa09ec342cd74",
                    "callData": "0x000000000000000000000000f96503340fd474c59c26f9a0fe294bd7f585d89b00000000000000000000000000000000000000000000007bc66569f2a3270e65",
                    "decodedMethod": {
                        "callParams": [
                            {
                                "name": "to",
                                "type": "address",
                                "value": "0xf96503340fd474c59c26f9a0fe294bd7f585d89b"
                            },
                            {
                                "decimalAvailable": true,
                                "name": "amount",
                                "type": "uint256",
                                "value": "2,283,245,470,149,272,604,261"
                            }
                        ],
                        "constructorArguments": "",
                        "name": "transfer",
                        "returnParams": [
                            {
                                "name": "",
                                "type": "bool",
                                "value": true
                            }
                        ],
                        "signature": "transfer(address,uint256)"
                    },
                    "errorInfo": "",
                    "fromAddress": "0xc059a531b4234d05e9ef4ac51028f7e6156e2cce",
                    "gasUsed": 12694,
                    "id": 4,
                    "methodDecoded": true,
                    "operation": "CALL",
                    "output": "0x0000000000000000000000000000000000000000000000000000000000000001",
                    "revert": false,
                    "revertMessage": "",
                    "selector": "0xa9059cbb",
                    "status": true,
                    "value": "0"
                },
                "nodeType": 0
            },
            "5": {
                "event": {
                    "contract": "0xb131f4a55907b10d1f0a50d8ab8fa09ec342cd74",
                    "decodedLog": {
                        "name": "Transfer",
                        "params": [
                            {
                                "name": "from",
                                "type": "address",
                                "value": "0xc059a531b4234d05e9ef4ac51028f7e6156e2cce"
                            },
                            {
                                "name": "to",
                                "type": "address",
                                "value": "0xf96503340fd474c59c26f9a0fe294bd7f585d89b"
                            },
                            {
                                "decimalAvailable": true,
                                "name": "value",
                                "type": "uint256",
                                "value": "2,283,245,470,149,272,604,261"
                            }
                        ],
                        "signature": "Transfer(address,address,uint256)"
                    },
                    "id": 5,
                    "logData": "0x00000000000000000000000000000000000000000000007bc66569f2a3270e65",
                    "logDecoded": true,
                    "operation": "EVENT",
                    "revert": false,
                    "status": true,
                    "topics": [
                        "0xddf252ad1be2c89b69c2b068fc378daa952ba7f163c4a11628f55a4df523b3ef",
                        "0x000000000000000000000000c059a531b4234d05e9ef4ac51028f7e6156e2cce",
                        "0x000000000000000000000000f96503340fd474c59c26f9a0fe294bd7f585d89b"
                    ]
                },
                "nodeType": 1
            },
            "6": {
                "event": {
                    "contract": "0xc059a531b4234d05e9ef4ac51028f7e6156e2cce",
                    "decodedLog": {
                        "name": "Transfer",
                        "params": [
                            {
                                "name": "from",
                                "type": "address",
                                "value": "0xf96503340fd474c59c26f9a0fe294bd7f585d89b"
                            },
                            {
                                "name": "to",
                                "type": "address",
                                "value": "0x0000000000000000000000000000000000000000"
                            },
                            {
                                "decimalAvailable": true,
                                "name": "value",
                                "type": "uint256",
                                "value": "2,283,245,470,149,272,604,261"
                            }
                        ],
                        "signature": "Transfer(address,address,uint256)"
                    },
                    "id": 6,
                    "logData": "0x00000000000000000000000000000000000000000000007bc66569f2a3270e65",
                    "logDecoded": true,
                    "operation": "EVENT",
                    "revert": false,
                    "status": true,
                    "topics": [
                        "0xddf252ad1be2c89b69c2b068fc378daa952ba7f163c4a11628f55a4df523b3ef",
                        "0x000000000000000000000000f96503340fd474c59c26f9a0fe294bd7f585d89b",
                        "0x0000000000000000000000000000000000000000000000000000000000000000"
                    ]
                },
                "nodeType": 1
            },
            "7": {
                "event": {
                    "contract": "0xc059a531b4234d05e9ef4ac51028f7e6156e2cce",
                    "decodedLog": {
                        "name": "Unstaked",
                        "params": [
                            {
                                "name": "user",
                                "type": "address",
                                "value": "0xf96503340fd474c59c26f9a0fe294bd7f585d89b"
                            },
                            {
                                "name": "amount",
                                "type": "uint256",
                                "value": "2,283,245,470,149,272,604,261"
                            },
                            {
                                "name": "reward",
                                "type": "uint256",
                                "value": "1,714,683,539"
                            }
                        ],
                        "signature": "Unstaked(address,uint256,uint256)"
                    },
                    "id": 7,
                    "logData": "0x00000000000000000000000000000000000000000000007bc66569f2a3270e65000000000000000000000000000000000000000000000000000000006633fe93",
                    "logDecoded": true,
                    "operation": "EVENT",
                    "revert": false,
                    "status": true,
                    "topics": [
                        "0x7fc4727e062e336010f2c282598ef5f14facb3de68cf8195c2f23e1454b2b74e",
                        "0x000000000000000000000000f96503340fd474c59c26f9a0fe294bd7f585d89b"
                    ]
                },
                "nodeType": 1
            }
        },
        "gasFlame": [
            {
                "children": [
                    {
                        "children": [
                            {
                                "children": [],
                                "depth": 0,
                                "name": "Initial Gas",
                                "value": 31592
                            },
                            {
                                "children": [
                                    {
                                        "children": [
                                            {
                                                "children": [],
                                                "depth": 2,
                                                "name": "transfer",
                                                "value": 12694
                                            }
                                        ],
                                        "depth": 1,
                                        "name": "unstake",
                                        "value": 86353
                                    }
                                ],
                                "depth": 0,
                                "name": "Executed Gas",
                                "value": 91396
                            }
                        ],
                        "depth": -1,
                        "name": "Actual Gas Used",
                        "value": 100288
                    },
                    {
                        "children": [],
                        "depth": -1,
                        "name": "Refunded Gas",
                        "value": 22700
                    }
                ],
                "depth": -2,
                "name": "Total Gas",
                "value": 122988
            }
        ],
        "isConfirmed": true,
        "mainTrace": [
            {
                "children": [
                    {
                        "children": [
                            {
                                "children": [
                                    {
                                        "children": [],
                                        "depth": 2,
                                        "id": 2,
                                        "order": 2
                                    },
                                    {
                                        "children": [],
                                        "depth": 2,
                                        "id": 3,
                                        "order": 3
                                    },
                                    {
                                        "children": [
                                            {
                                                "children": [],
                                                "depth": 3,
                                                "id": 5,
                                                "order": 5
                                            }
                                        ],
                                        "depth": 2,
                                        "id": 4,
                                        "order": 4
                                    },
                                    {
                                        "children": [],
                                        "depth": 2,
                                        "id": 6,
                                        "order": 6
                                    },
                                    {
                                        "children": [],
                                        "depth": 2,
                                        "id": 7,
                                        "order": 7
                                    }
                                ],
                                "depth": 1,
                                "id": 1,
                                "order": 1
                            }
                        ],
                        "depth": 0,
                        "id": 0,
                        "order": 0
                    }
                ],
                "depth": -1,
                "id": -1,
                "order": -1
            }
        ],
        "mainTraceNodeCount": 8,
        "parentIdMap": {
            "0": -1,
            "1": 0,
            "2": 1,
            "3": 1,
            "4": 1,
            "5": 4,
            "6": 1,
            "7": 1
        },
        "tidyTrace": [
            {
                "children": [
                    {
                        "children": [
                            {
                                "children": [
                                    {
                                        "children": [],
                                        "depth": 2,
                                        "id": 2,
                                        "order": 2
                                    },
                                    {
                                        "children": [],
                                        "depth": 2,
                                        "id": 3,
                                        "order": 3
                                    },
                                    {
                                        "children": [
                                            {
                                                "children": [],
                                                "depth": 3,
                                                "id": 5,
                                                "order": 5
                                            }
                                        ],
                                        "depth": 2,
                                        "id": 4,
                                        "order": 4
                                    },
                                    {
                                        "children": [],
                                        "depth": 2,
                                        "id": 6,
                                        "order": 6
                                    },
                                    {
                                        "children": [],
                                        "depth": 2,
                                        "id": 7,
                                        "order": 7
                                    }
                                ],
                                "depth": 1,
                                "id": 1,
                                "order": 1
                            }
                        ],
                        "depth": 0,
                        "id": 0,
                        "order": 0
                    }
                ],
                "depth": -1,
                "id": -1,
                "order": -1
            }
        ],
        "tidyTraceNodeCount": 8
    },
    "state_change": {
        "stateChanges": [
            {
                "address": "0xb131f4a55907b10d1f0a50d8ab8fa09ec342cd74",
                "erc": "ERC-20",
                "slots": [
                    {
                        "current": "0x000000000000000000000000000000000000000000000080cb33a5701cd10e65",
                        "key": "0x8addf9293f14b59ae4716c922afe1941fb4ca91858ed4694b7a28d405f3f39b1",
                        "prev": "0x00000000000000000000000000000000000000000000000504ce3b7d79aa0000"
                    },
                    {
                        "current": "0x0000000000000000000000000000000000000000098d353428c7e38b21a946bf",
                        "key": "0xfa41cde411bfcd78733609b1e3a2311ca5ccf4b94881539846ce5500d2e4a008",
                        "prev": "0x0000000000000000000000000000000000000000098d35afef2d4d7dc4d05524"
                    }
                ],
                "storageVariables": [
                    {
                        "name": "_balances",
                        "type": "mapping(address => uint256)",
                        "value": {
                            "pairs": [
                                {
                                    "key": "0xc059a531b4234d05e9ef4ac51028f7e6156e2cce",
                                    "value": {
                                        "current": "2956074876550619724836849343",
                                        "prev": "2956077159796089874109453604",
                                        "typeTag": 1
                                    }
                                },
                                {
                                    "key": "0xf96503340fd474c59c26f9a0fe294bd7f585d89b",
                                    "value": {
                                        "current": "2375825470149272604261",
                                        "prev": "92580000000000000000",
                                        "typeTag": 1
                                    }
                                }
                            ],
                            "typeTag": 4
                        }
                    }
                ]
            },
            {
                "address": "0xc059a531b4234d05e9ef4ac51028f7e6156e2cce",
                "erc": "",
                "slots": [
                    {
                        "current": "0x000000000000000000000000000000000000000000000000000000006633fe93",
                        "key": "0xb972fd36a37ae75a6b52da9f0177322ac7c34afd6efd586345f8a318bb97aa81",
                        "prev": "0x0000000000000000000000000000000000000000000000000000000000000000"
                    }
                ],
                "storageVariables": [
                    {
                        "name": "_usersRewardRedeemedAt",
                        "type": "mapping(address => mapping(uint256 => uint256))",
                        "value": {
                            "pairs": [
                                {
                                    "key": "0xf96503340fd474c59c26f9a0fe294bd7f585d89b",
                                    "value": {
                                        "pairs": [
                                            {
                                                "key": "1",
                                                "value": {
                                                    "current": "1714683539",
                                                    "prev": "0",
                                                    "typeTag": 1
                                                }
                                            }
                                        ],
                                        "typeTag": 4
                                    }
                                }
                            ],
                            "typeTag": 4
                        }
                    }
                ]
            }
        ]
    }
}