{
    "balance_change": {
        "balanceChanges": [
            {
                "account": "0x02425f6f27102e6e3dc9b3407eee2c129771f6a3",
                "assets": [
                    {
                        "address": "0x5a98fcbea516cf06857215779fd812ca3bef1b32",
                        "amount": "5,735.079004178324150466",
                        "iconUrl": "https://assets.blocksec.com/icon/3878691d1a2d54915a451767a8b7abce85c16fd7fc528d5b81becb8ae316240e.png",
                        "isERC1155": false,
                        "isERC721": false,
                        "sign": false,
                        "value": "5482.735527823999776"
                    },
                    {
                        "address": "0xa0b86991c6218b36c1d19d4a2e9eb0ce3606eb48",
                        "amount": "5,451.353079",
                        "iconUrl": "https://assets.blocksec.com/icon/0347a86cc07dbd03fdc5db01a4e5ac7e1217f90e0b6e4bb0f75cbcca09160989.png",
                        "isERC1155": false,
                        "isERC721": false,
                        "sign": true,
                        "value": "5456.8044320789993997"
                    }
                ]
            },
            {
                "account": "0x88e6a0c2ddd26feeb64f039a2c41296fcb3f5640",
                "assets": [
                    {
                        "address": "0xa0b86991c6218b36c1d19d4a2e9eb0ce3606eb48",
                        "amount": "5,451.353079",
                        "iconUrl": "https://assets.blocksec.com/icon/0347a86cc07dbd03fdc5db01a4e5ac7e1217f90e0b6e4bb0f75cbcca09160989.png",
                        "isERC1155": false,
                        "isERC721": false,
                        "sign": false,
                        "value": "5456.8044320789993997"
                    },
                    {
                        "address": "0xc02aaa39b223fe8d0a0e5c4f27ead9083c756cc2",
                        "amount": "4.548518984777998567",
                        "iconUrl": "https://assets.blocksec.com/icon/f1cb2d02c471d545bbc7722daf3277fd852d98e63d118771af7047bd8256c516.png",
                        "isERC1155": false,
                        "isERC721": false,
                        "sign": true,
                        "value": "5473.2328946504997935"
                    }
                ]
            },
            {
                "account": "0xa3f558aebaecaf0e11ca4b2199cc5ed341edfd74",
                "assets": [
                    {
                        "address": "0xc02aaa39b223fe8d0a0e5c4f27ead9083c756cc2",
                        "amount": "4.548518984777998567",
                        "iconUrl": "https://assets.blocksec.com/icon/f1cb2d02c471d545bbc7722daf3277fd852d98e63d118771af7047bd8256c516.png",
                        "isERC1155": false,
                        "isERC721": false,
                        "sign": false,
                        "value": "5473.2328946504997935"
                    },
                    {
                        "address": "0x5a98fcbea516cf06857215779fd812ca3bef1b32",
                        "amount": "5,735.079004178324150466",
                        "iconUrl": "https://assets.blocksec.com/icon/3878691d1a2d54915a451767a8b7abce85c16fd7fc528d5b81becb8ae316240e.png",
                        "isERC1155": false,
                        "isERC721": false,
                        "sign": true,
                        "value": "5482.735527823999776"
                    }
                ]
            }
        ]
    },
    "profile": {
        "basic_info": {
            "baseFee": "16.476061754",
            "blockNumber": 16306746,
            "callData": "0x5ae401dc0000000000000000000000000000000000000000000000000000000063b08ff70000000000000000000000000000000000000000000000000000000000000040000000000000000000000000000000000000000000000000000000000000000100000000000000000000000000000000000000000000000000000000000000200000000000000000000000000000000000000000000000000000000000000124b858183f0000000000000000000000000000000000000000000000000000000000000020000000000000000000000000000000000000000000000000000000000000008000000000000000000000000002425f6f27102e6e3dc9b3407eee2c129771f6a3000000000000000000000000000000000000000000000136e635a08ca20458c200000000000000000000000000000000000000000000000000000001436632ea00000000000000000000000000000000000000000000000000000000000000425a98fcbea516cf06857215779fd812ca3bef1b32000bb8c02aaa39b223fe8d0a0e5c4f27ead9083c756cc20001f4a0b86991c6218b36c1d19d4a2e9eb0ce3606eb4800000000000000000000000000000000000000000000000000000000000000000000000000000000000000000000000000000000000000000000",
            "debugEnable": true,
            "errorInfo": "",
            "eventCount": 6,
            "feeRecipient": "0x95222290dd7278aa3ddd389cc1e1d165cc4bafe5",
            "formatValue": "0",
            "gasLimit": 403956,
            "gasPrice": "17.976061754",
            "gasUsed": 283454,
            "intTxnCount": 20,
            "internalRevert": false,
            "internalRevertMessage": "",
            "isContractCreation": false,
            "isFlashloan": false,
            "maxFee": "25.516649558",
            "nonce": 47,
            "overwritedBlockNumber": -1,
            "priorityFee": "1.5",
            "receiver": "0x68b3465833fb72a70ecdf485e0e4c7bd8665fc45",
            "revertMessage": "",
            "sender": "0x02425f6f27102e6e3dc9b3407eee2c129771f6a3",
            "simulationEnable": true,
            "sourceTxnHash": "0x5867369feb44cc869997f82f88f94ada1f346a07655f79a01f32d4d4db8ed3e2",
            "status": true,
            "timestamp": "2022-12-31T19:10:23Z",
            "transactionFee": "0.005095386608418316",
            "txnHash": "0x5867369feb44cc869997f82f88f94ada1f346a07655f79a01f32d4d4db8ed3e2",
            "txnIndex": 58,
            "type": 2,
            "value": "0"
        },
        "fund_flow": [
            {
                "amount": "4.548518984777998567",
                "from": "0xa3f558aebaecaf0e11ca4b2199cc5ed341edfd74",
                "id": 1,
                "isERC1155": false,
                "isERC721": false,
                "isReverted": false,
                "order": 1,
                "to": "0x68b3465833fb72a70ecdf485e0e4c7bd8665fc45",
                "token": "0xc02aaa39b223fe8d0a0e5c4f27ead9083c756cc2"
            },
            {
                "amount": "5,735.079004178324150466",
                "from": "0x02425f6f27102e6e3dc9b3407eee2c129771f6a3",
                "id": 2,
                "isERC1155": false,
                "isERC721": false,
                "isReverted": false,
                "order": 2,
                "to": "0xa3f558aebaecaf0e11ca4b2199cc5ed341edfd74",
                "token": "0x5a98fcbea516cf06857215779fd812ca3bef1b32"
            },
            {
                "amount": "5,451.353079",
                "from": "0x88e6a0c2ddd26feeb64f039a2c41296fcb3f5640",
                "id": 3,
                "isERC1155": false,
                "isERC721": false,
                "isReverted": false,
                "order": 3,
                "to": "0x02425f6f27102e6e3dc9b3407eee2c129771f6a3",
                "token": "0xa0b86991c6218b36c1d19d4a2e9eb0ce3606eb48"
            },
            {
                "amount": "4.548518984777998567",
                "from": "0x68b3465833fb72a70ecdf485e0e4c7bd8665fc45",
                "id": 4,
                "isERC1155": false,
                "isERC721": false,
                "isReverted": false,
                "order": 4,
                "to": "0x88e6a0c2ddd26feeb64f039a2c41296fcb3f5640",
                "token": "0xc02aaa39b223fe8d0a0e5c4f27ead9083c756cc2"
            }
        ],
        "token_infos": [
            {
                "address": "0x5a98fcbea516cf06857215779fd812ca3bef1b32",
                "decimals": 18
            },
            {
                "address": "0xa0b86991c6218b36c1d19d4a2e9eb0ce3606eb48",
                "decimals": 6
            },
            {
                "address": "0xc02aaa39b223fe8d0a0e5c4f27ead9083c756cc2",
                "decimals": 18
            },
            {
                "address": "0xeeeeeeeeeeeeeeeeeeeeeeeeeeeeeeeeeeeeeeee",
                "decimals": 18
            }
        ]
    },
    "address_label": {
        "labels": [
            {
                "address": "0xeeeeeeeeeeeeeeeeeeeeeeeeeeeeeeeeeeeeeeee",
                "label": "Ether"
            },
            {
                "address": "0xa2327a938febf5fec13bacfb16ae10ecbc4cbdcf",
                "label": "FiatTokenV2_1"
            },
            {
                "address": "0xf73a1260d222f447210581ddf212d915c09a3249",
                "label": "Lido: Aragon Token Manager"
            },
            {
                "address": "0x5a98fcbea516cf06857215779fd812ca3bef1b32",
                "label": "Lido: LDO Token"
            },
            {
                "address": "0xde3a93028f2283cc28756b3674bd657eafb992f4",
                "label": "Lido: Aragon Token Manager Impl"
            },
            {
                "address": "0x88e6a0c2ddd26feeb64f039a2c41296fcb3f5640",
                "label": "Uniswap V3: USDC 3"
            },
            {
                "address": "0x68b3465833fb72a70ecdf485e0e4c7bd8665fc45",
                "label": "Uniswap V3: Router 2"
            },
            {
                "address": "0x2b33cf282f867a7ff693a66e11b0fcc5552e4425",
                "label": "Lido: DAO Impl 1.0.0"
            },
            {
                "address": "0xa3f558aebaecaf0e11ca4b2199cc5ed341edfd74",
                "label": "Uniswap V3: LDO 2"
            },
            {
                "address": "0xa0b86991c6218b36c1d19d4a2e9eb0ce3606eb48",
                "label": "Circle: USDC Token"
            },
            {
                "address": "0x0000000000000000000000000000000000000001",
                "label": "Precompiled"
            },
            {
                "address": "0x0000000000000000000000000000000000000002",
                "label": "Precompiled"
            },
            {
                "address": "0xb8ffc3cd6e7cf5a098a1c92f48009765b24088dc",
                "label": "Lido: DAO"
            },
            {
                "address": "0xc02aaa39b223fe8d0a0e5c4f27ead9083c756cc2",
                "label": "Wrapped Ether (WETH)"
            },
            {
                "address": "0x0000000000000000000000000000000000000003",
                "label": "Precompiled"
            },
            {
                "address": "0x0000000000000000000000000000000000000004",
                "label": "Precompiled"
            }
        ]
    },
    "trace": {
        "accountLabels": null,
        "dataMap": {
            "-1": {
                "invocation": {
                    "address": "0x02425f6f27102e6e3dc9b3407eee2c129771f6a3",
                    "callData": "",
                    "decodedMethod": null,
                    "errorInfo": "",
                    "fromAddress": "",
                    "gasUsed": 0,
                    "id": -1,
                    "methodDecoded": false,
                    "operation": "",
                    "output": "",
                    "revert": false,
                    "revertMessage": "",
                    "selector": "",
                    "status": false,
                    "value": ""
                },
                "nodeType": 0
            },
            "0": {
                "invocation": {
                    "address": "0x68b3465833fb72a70ecdf485e0e4c7bd8665fc45",
                    "callData": "0x0000000000000000000000000000000000000000000000000000000063b08ff70000000000000000000000000000000000000000000000000000000000000040000000000000000000000000000000000000000000000000000000000000000100000000000000000000000000000000000000000000000000000000000000200000000000000000000000000000000000000000000000000000000000000124b858183f0000000000000000000000000000000000000000000000000000000000000020000000000000000000000000000000000000000000000000000000000000008000000000000000000000000002425f6f27102e6e3dc9b3407eee2c129771f6a3000000000000000000000000000000000000000000000136e635a08ca20458c200000000000000000000000000000000000000000000000000000001436632ea00000000000000000000000000000000000000000000000000000000000000425a98fcbea516cf06857215779fd812ca3bef1b32000bb8c02aaa39b223fe8d0a0e5c4f27ead9083c756cc20001f4a0b86991c6218b36c1d19d4a2e9eb0ce3606eb4800000000000000000000000000000000000000000000000000000000000000000000000000000000000000000000000000000000000000000000",
                    "decodedMethod": {
                        "callParams": [
                            {
                                "name": "deadline",
                                "type": "uint256",
                                "value": "1,672,515,575"
                            },
                            {
                                "name": "data",
                                "type": "bytes[]",
                                "value": [
                                    "0xb858183f0000000000000000000000000000000000000000000000000000000000000020000000000000000000000000000000000000000000000000000000000000008000000000000000000000000002425f6f27102e6e3dc9b3407eee2c129771f6a3000000000000000000000000000000000000000000000136e635a08ca20458c200000000000000000000000000000000000000000000000000000001436632ea00000000000000000000000000000000000000000000000000000000000000425a98fcbea516cf06857215779fd812ca3bef1b32000bb8c02aaa39b223fe8d0a0e5c4f27ead9083c756cc20001f4a0b86991c6218b36c1d19d4a2e9eb0ce3606eb48000000000000000000000000000000000000000000000000000000000000"
                                ]
                            }
                        ],
                        "constructorArguments": "",
                        "name": "multicall",
                        "returnParams": [
                            {
                                "name": "",
                                "type": "bytes[]",
                                "value": [
                                    "0x0000000000000000000000000000000000000000000000000000000144ed0bf7"
                                ]
                            }
                        ],
                        "signature": "multicall(uint256,bytes[])"
                    },
                    "errorInfo": "",
                    "fromAddress": "0x02425f6f27102e6e3dc9b3407eee2c129771f6a3",
                    "gasUsed": 283454,
                    "id": 0,
                    "methodDecoded": true,
                    "operation": "CALL",
                    "output": "0x00000000000000000000000000000000000000000000000000000000000000200000000000000000000000000000000000000000000000000000000000000001000000000000000000000000000000000000000000000000000000000000002000000000000000000000000000000000000000000000000000000000000000200000000000000000000000000000000000000000000000000000000144ed0bf7",
                    "revert": false,
                    "revertMessage": "",
                    "selector": "0x5ae401dc",
                    "status": true,
                    "value": "0"
                },
                "nodeType": 0
            },
            "1": {
                "invocation": {
                    "address": "0x68b3465833fb72a70ecdf485e0e4c7bd8665fc45",
                    "callData": "0x0000000000000000000000000000000000000000000000000000000000000020000000000000000000000000000000000000000000000000000000000000008000000000000000000000000002425f6f27102e6e3dc9b3407eee2c129771f6a3000000000000000000000000000000000000000000000136e635a08ca20458c200000000000000000000000000000000000000000000000000000001436632ea00000000000000000000000000000000000000000000000000000000000000425a98fcbea516cf06857215779fd812ca3bef1b32000bb8c02aaa39b223fe8d0a0e5c4f27ead9083c756cc20001f4a0b86991c6218b36c1d19d4a2e9eb0ce3606eb48000000000000000000000000000000000000000000000000000000000000",
                    "decodedMethod": {
                        "callParams": [
                            {
                                "name": "params",
                                "type": "(bytes,address,uint256,uint256)",
                                "value": [
                                    {
                                        "name": "path",
                                        "type": "bytes",
                                        "value": "0x5a98fcbea516cf06857215779fd812ca3bef1b32000bb8c02aaa39b223fe8d0a0e5c4f27ead9083c756cc20001f4a0b86991c6218b36c1d19d4a2e9eb0ce3606eb48"
                                    },
                                    {
                                        "name": "recipient",
                                        "type": "address",
                                        "value": "0x02425f6f27102e6e3dc9b3407eee2c129771f6a3"
                                    },
                                    {
                                        "name": "amountIn",
                                        "type": "uint256",
                                        "value": "5,735,079,004,178,324,150,466"
                                    },
                                    {
                                        "name": "amountOutMinimum",
                                        "type": "uint256",
                                        "value": "5,425,738,474"
                                    }
                                ]
                            }
                        ],
                        "constructorArguments": "",
                        "name": "exactInput",
                        "returnParams": [
                            {
                                "name": "amountOut",
                                "type": "uint256",
                                "value": "5,451,353,079"
                            }
                        ],
                        "signature": "exactInput((bytes,address,uint256,uint256))"
                    },
                    "errorInfo": "",
                    "fromAddress": "0x68b3465833fb72a70ecdf485e0e4c7bd8665fc45",
                    "gasUsed": 276800,
                    "id": 1,
                    "methodDecoded": true,
                    "operation": "DELEGATECALL",
                    "output": "0x0000000000000000000000000000000000000000000000000000000144ed0bf7",
                    "revert": false,
                    "revertMessage": "",
                    "selector": "0xb858183f",
                    "status": true,
                    "value": "0"
                },
                "nodeType": 0
            },
            "10": {
                "invocation": {
                    "address": "0x2b33cf282f867a7ff693a66e11b0fcc5552e4425",
                    "callData": "0xf1f3eb40f5bc1ad1344716ced8b8a0431d840b5783aea1fd01786bc26f35ac0fcd567bdf93dd0f6acc3bc7f2155f83244d56a65abbfbefb763e015420102c67b",
                    "decodedMethod": {
                        "callParams": [
                            {
                                "name": "_namespace",
                                "type": "bytes32",
                                "value": "0xf1f3eb40f5bc1ad1344716ced8b8a0431d840b5783aea1fd01786bc26f35ac0f"
                            },
                            {
                                "name": "_appId",
                                "type": "bytes32",
                                "value": "0xcd567bdf93dd0f6acc3bc7f2155f83244d56a65abbfbefb763e015420102c67b"
                            }
                        ],
                        "constructorArguments": "",
                        "name": "getApp",
                        "returnParams": [
                            {
                                "name": "",
                                "type": "address",
                                "value": "0xde3a93028f2283cc28756b3674bd657eafb992f4"
                            }
                        ],
                        "signature": "getApp(bytes32,bytes32)"
                    },
                    "errorInfo": "",
                    "fromAddress": "0xb8ffc3cd6e7cf5a098a1c92f48009765b24088dc",
                    "gasUsed": 2820,
                    "id": 10,
                    "methodDecoded": true,
                    "operation": "DELEGATECALL",
                    "output": "0x000000000000000000000000de3a93028f2283cc28756b3674bd657eafb992f4",
                    "revert": false,
                    "revertMessage": "",
                    "selector": "0xbe00bbd8",
                    "status": true,
                    "value": "0"
                },
                "nodeType": 0
            },
            "11": {
                "invocation": {
                    "address": "0xde3a93028f2283cc28756b3674bd657eafb992f4",
                    "callData": "0x00000000000000000000000002425f6f27102e6e3dc9b3407eee2c129771f6a3000000000000000000000000a3f558aebaecaf0e11ca4b2199cc5ed341edfd74000000000000000000000000000000000000000000000136e635a08ca20458c2",
                    "decodedMethod": {
                        "callParams": [
                            {
                                "name": "_from",
                                "type": "address",
                                "value": "0x02425f6f27102e6e3dc9b3407eee2c129771f6a3"
                            },
                            {
                                "name": "_to",
                                "type": "address",
                                "value": "0xa3f558aebaecaf0e11ca4b2199cc5ed341edfd74"
                            },
                            {
                                "name": "_amount",
                                "type": "uint256",
                                "value": "5,735,079,004,178,324,150,466"
                            }
                        ],
                        "constructorArguments": "",
                        "name": "onTransfer",
                        "returnParams": [
                            {
                                "name": "",
                                "type": "bool",
                                "value": true
                            }
                        ],
                        "signature": "onTransfer(address,address,uint256)"
                    },
                    "errorInfo": "",
                    "fromAddress": "0xf73a1260d222f447210581ddf212d915c09a3249",
                    "gasUsed": 12422,
                    "id": 11,
                    "methodDecoded": true,
                    "operation": "DELEGATECALL",
                    "output": "0x0000000000000000000000000000000000000000000000000000000000000001",
                    "revert": false,
                    "revertMessage": "",
                    "selector": "0x4a393149",
                    "status": true,
                    "value": "0"
                },
                "nodeType": 0
            },
            "12": {
                "invocation": {
                    "address": "0x5a98fcbea516cf06857215779fd812ca3bef1b32",
                    "callData": "0x000000000000000000000000a3f558aebaecaf0e11ca4b2199cc5ed341edfd74",
                    "decodedMethod": {
                        "callParams": [
                            {
                                "name": "_owner",
                                "type": "address",
                                "value": "0xa3f558aebaecaf0e11ca4b2199cc5ed341edfd74"
                            }
                        ],
                        "constructorArguments": "",
                        "name": "balanceOf",
                        "returnParams": [
                            {
                                "decimalAvailable": true,
                                "name": "balance",
                                "type": "uint256",
                                "value": "6,839,627,037,880,704,946,937,694"
                            }
                        ],
                        "signature": "balanceOf(address)"
                    },
                    "errorInfo": "",
                    "fromAddress": "0xf73a1260d222f447210581ddf212d915c09a3249",
                    "gasUsed": 2016,
                    "id": 12,
                    "methodDecoded": true,
                    "operation": "CALL",
                    "output": "0x00000000000000000000000000000000000000000005a858ecb75f5e48801f5e",
                    "revert": false,
                    "revertMessage": "",
                    "selector": "0x70a08231",
                    "status": true,
                    "value": "0"
                },
                "nodeType": 0
            },
            "13": {
                "invocation": {
                    "address": "0x5a98fcbea516cf06857215779fd812ca3bef1b32",
                    "callData": "0x00000000000000000000000002425f6f27102e6e3dc9b3407eee2c129771f6a3",
                    "decodedMethod": {
                        "callParams": [
                            {
                                "name": "_owner",
                                "type": "address",
                                "value": "0x02425f6f27102e6e3dc9b3407eee2c129771f6a3"
                            }
                        ],
                        "constructorArguments": "",
                        "name": "balanceOf",
                        "returnParams": [
                            {
                                "decimalAvailable": true,
                                "name": "balance",
                                "type": "uint256",
                                "value": "5,735,079,004,178,324,150,466"
                            }
                        ],
                        "signature": "balanceOf(address)"
                    },
                    "errorInfo": "",
                    "fromAddress": "0xf73a1260d222f447210581ddf212d915c09a3249",
                    "gasUsed": 2016,
                    "id": 13,
                    "methodDecoded": true,
                    "operation": "CALL",
                    "output": "0x000000000000000000000000000000000000000000000136e635a08ca20458c2",
                    "revert": false,
                    "revertMessage": "",
                    "selector": "0x70a08231",
                    "status": true,
                    "value": "0"
                },
                "nodeType": 0
            },
            "14": {
                "event": {
                    "contract": "0x5a98fcbea516cf06857215779fd812ca3bef1b32",
                    "decodedLog": {
                        "name": "Transfer",
                        "params": [
                            {
                                "name": "_from",
                                "type": "address",
                                "value": "0x02425f6f27102e6e3dc9b3407eee2c129771f6a3"
                            },
                            {
                                "name": "_to",
                                "type": "address",
                                "value": "0xa3f558aebaecaf0e11ca4b2199cc5ed341edfd74"
                            },
                            {
                                "decimalAvailable": true,
                                "name": "_amount",
                                "type": "uint256",
                                "value": "5,735,079,004,178,324,150,466"
                            }
                        ],
                        "signature": "Transfer(address,address,uint256)"
                    },
                    "id": 14,
                    "logData": "0x000000000000000000000000000000000000000000000136e635a08ca20458c2",
                    "logDecoded": true,
                    "operation": "EVENT",
                    "revert": false,
                    "status": true,
                    "topics": [
                        "0xddf252ad1be2c89b69c2b068fc378daa952ba7f163c4a11628f55a4df523b3ef",
                        "0x00000000000000000000000002425f6f27102e6e3dc9b3407eee2c129771f6a3",
                        "0x000000000000000000000000a3f558aebaecaf0e11ca4b2199cc5ed341edfd74"
                    ]
                },
                "nodeType": 1
            },
            "15": {
                "invocation": {
                    "address": "0x5a98fcbea516cf06857215779fd812ca3bef1b32",
                    "callData": "0x000000000000000000000000a3f558aebaecaf0e11ca4b2199cc5ed341edfd74",
                    "decodedMethod": {
                        "callParams": [
                            {
                                "name": "_owner",
                                "type": "address",
                                "value": "0xa3f558aebaecaf0e11ca4b2199cc5ed341edfd74"
                            }
                        ],
                        "constructorArguments": "",
                        "name": "balanceOf",
                        "returnParams": [
                            {
                                "decimalAvailable": true,
                                "name": "balance",
                                "type": "uint256",
                                "value": "6,845,362,116,884,883,271,088,160"
                            }
                        ],
                        "signature": "balanceOf(address)"
                    },
                    "errorInfo": "",
                    "fromAddress": "0xa3f558aebaecaf0e11ca4b2199cc5ed341edfd74",
                    "gasUsed": 2016,
                    "id": 15,
                    "methodDecoded": true,
                    "operation": "STATICCALL",
                    "output": "0x00000000000000000000000000000000000000000005a98fd2ecffeaea847820",
                    "revert": false,
                    "revertMessage": "",
                    "selector": "0x70a08231",
                    "status": true,
                    "value": "0"
                },
                "nodeType": 0
            },
            "16": {
                "event": {
                    "contract": "0xa3f558aebaecaf0e11ca4b2199cc5ed341edfd74",
                    "decodedLog": {
                        "name": "Swap",
                        "params": [
                            {
                                "name": "sender",
                                "type": "address",
                                "value": "0x68b3465833fb72a70ecdf485e0e4c7bd8665fc45"
                            },
                            {
                                "name": "recipient",
                                "type": "address",
                                "value": "0x68b3465833fb72a70ecdf485e0e4c7bd8665fc45"
                            },
                            {
                                "name": "amount0",
                                "type": "int256",
                                "value": "5,735,079,004,178,324,150,466"
                            },
                            {
                                "name": "amount1",
                                "type": "int256",
                                "value": "-4,548,518,984,777,998,567"
                            },
                            {
                                "name": "sqrtPriceX96",
                                "type": "uint160",
                                "value": "2,234,429,999,125,910,291,415,664,571"
                            },
                            {
                                "name": "liquidity",
                                "type": "uint128",
                                "value": "1,146,124,644,248,837,673,408,572"
                            },
                            {
                                "name": "tick",
                                "type": "int24",
                                "value": "-71,371"
                            }
                        ],
                        "signature": "Swap(address,address,int256,int256,uint160,uint128,int24)"
                    },
                    "id": 16,
                    "logData": "0x000000000000000000000000000000000000000000000136e635a08ca20458c2ffffffffffffffffffffffffffffffffffffffffffffffffc0e06a151a2fdf190000000000000000000000000000000000000000073846f4f748d01574c187bb00000000000000000000000000000000000000000000f2b38a9d3bb3392b583cfffffffffffffffffffffffffffffffffffffffffffffffffffffffffffee935",
                    "logDecoded": true,
                    "operation": "EVENT",
                    "revert": false,
                    "status": true,
                    "topics": [
                        "0xc42079f94a6350d7e6235f29174924f928cc2ac818eb64fed8004e115fbcca67",
                        "0x00000000000000000000000068b3465833fb72a70ecdf485e0e4c7bd8665fc45",
                        "0x00000000000000000000000068b3465833fb72a70ecdf485e0e4c7bd8665fc45"
                    ]
                },
                "nodeType": 1
            },
            "17": {
                "invocation": {
                    "address": "0x88e6a0c2ddd26feeb64f039a2c41296fcb3f5640",
                    "callData": "0x00000000000000000000000002425f6f27102e6e3dc9b3407eee2c129771f6a300000000000000000000000000000000000000000000000000000000000000000000000000000000000000000000000000000000000000003f1f95eae5d020e7000000000000000000000000fffd8963efd1fc6a506488495d951d5263988d2500000000000000000000000000000000000000000000000000000000000000a000000000000000000000000000000000000000000000000000000000000000c00000000000000000000000000000000000000000000000000000000000000020000000000000000000000000000000000000000000000000000000000000004000000000000000000000000068b3465833fb72a70ecdf485e0e4c7bd8665fc45000000000000000000000000000000000000000000000000000000000000002bc02aaa39b223fe8d0a0e5c4f27ead9083c756cc20001f4a0b86991c6218b36c1d19d4a2e9eb0ce3606eb48000000000000000000000000000000000000000000",
                    "decodedMethod": {
                        "callParams": [
                            {
                                "name": "recipient",
                                "type": "address",
                                "value": "0x02425f6f27102e6e3dc9b3407eee2c129771f6a3"
                            },
                            {
                                "name": "zeroForOne",
                                "type": "bool",
                                "value": false
                            },
                            {
                                "name": "amountSpecified",
                                "type": "int256",
                                "value": "4,548,518,984,777,998,567"
                            },
                            {
                                "name": "sqrtPriceLimitX96",
                                "type": "uint160",
                                "value": "1,461,446,703,485,210,103,287,273,052,203,988,822,378,723,970,341"
                            },
                            {
                                "name": "data",
                                "type": "bytes",
                                "value": "0x0000000000000000000000000000000000000000000000000000000000000020000000000000000000000000000000000000000000000000000000000000004000000000000000000000000068b3465833fb72a70ecdf485e0e4c7bd8665fc45000000000000000000000000000000000000000000000000000000000000002bc02aaa39b223fe8d0a0e5c4f27ead9083c756cc20001f4a0b86991c6218b36c1d19d4a2e9eb0ce3606eb48000000000000000000000000000000000000000000"
                            }
                        ],
                        "constructorArguments": "",
                        "name": "swap",
                        "returnParams": [
                            {
                                "name": "amount0",
                                "type": "int256",
                                "value": "-5,451,353,079"
                            },
                            {
                                "name": "amount1",
                                "type": "int256",
                                "value": "4,548,518,984,777,998,567"
                            }
                        ],
                        "signature": "swap(address,bool,int256,uint160,bytes)"
                    },
                    "errorInfo": "",
                    "fromAddress": "0x68b3465833fb72a70ecdf485e0e4c7bd8665fc45",
                    "gasUsed": 90755,
                    "id": 17,
                    "methodDecoded": true,
                    "operation": "CALL",
                    "output": "0xfffffffffffffffffffffffffffffffffffffffffffffffffffffffebb12f4090000000000000000000000000000000000000000000000003f1f95eae5d020e7",
                    "revert": false,
                    "revertMessage": "",
                    "selector": "0x128acb08",
                    "status": true,
                    "value": "0"
                },
                "nodeType": 0
            },
            "18": {
                "invocation": {
                    "address": "0xa0b86991c6218b36c1d19d4a2e9eb0ce3606eb48",
                    "callData": "0x00000000000000000000000002425f6f27102e6e3dc9b3407eee2c129771f6a30000000000000000000000000000000000000000000000000000000144ed0bf7",
                    "decodedMethod": {
                        "callParams": [
                            {
                                "name": "to",
                                "type": "address",
                                "value": "0x02425f6f27102e6e3dc9b3407eee2c129771f6a3"
                            },
                            {
                                "decimalAvailable": true,
                                "name": "value",
                                "type": "uint256",
                                "value": "5,451,353,079"
                            }
                        ],
                        "constructorArguments": "",
                        "name": "transfer",
                        "returnParams": [
                            {
                                "name": "",
                                "type": "bool",
                                "value": true
                            }
                        ],
                        "signature": "transfer(address,uint256)"
                    },
                    "errorInfo": "",
                    "fromAddress": "0x88e6a0c2ddd26feeb64f039a2c41296fcb3f5640",
                    "gasUsed": 44017,
                    "id": 18,
                    "methodDecoded": true,
                    "operation": "CALL",
                    "output": "0x0000000000000000000000000000000000000000000000000000000000000001",
                    "revert": false,
                    "revertMessage": "",
                    "selector": "0xa9059cbb",
                    "status": true,
                    "value": "0"
                },
                "nodeType": 0
            },
            "19": {
                "invocation": {
                    "address": "0xa2327a938febf5fec13bacfb16ae10ecbc4cbdcf",
                    "callData": "0x00000000000000000000000002425f6f27102e6e3dc9b3407eee2c129771f6a30000000000000000000000000000000000000000000000000000000144ed0bf7",
                    "decodedMethod": {
                        "callParams": [
                            {
                                "name": "to",
                                "type": "address",
                                "value": "0x02425f6f27102e6e3dc9b3407eee2c129771f6a3"
                            },
                            {
                                "decimalAvailable": true,
                                "name": "value",
                                "type": "uint256",
                                "value": "5,451,353,079"
                            }
                        ],
                        "constructorArguments": "",
                        "name": "transfer",
                        "returnParams": [
                            {
                                "name": "",
                                "type": "bool",
                                "value": true
                            }
                        ],
                        "signature": "transfer(address,uint256)"
                    },
                    "errorInfo": "",
                    "fromAddress": "0xa0b86991c6218b36c1d19d4a2e9eb0ce3606eb48",
                    "gasUsed": 36728,
                    "id": 19,
                    "methodDecoded": true,
                    "operation": "DELEGATECALL",
                    "output": "0x0000000000000000000000000000000000000000000000000000000000000001",
                    "revert": false,
                    "revertMessage": "",
                    "selector": "0xa9059cbb",
                    "status": true,
                    "value": "0"
                },
                "nodeType": 0
            },
            "2": {
                "invocation": {
                    "address": "0xa3f558aebaecaf0e11ca4b2199cc5ed341edfd74",
                    "callData": "0x00000000000000000000000068b3465833fb72a70ecdf485e0e4c7bd8665fc450000000000000000000000000000000000000000000000000000000000000001000000000000000000000000000000000000000000000136e635a08ca20458c200000000000000000000000000000000000000000000000000000001000276a400000000000000000000000000000000000000000000000000000000000000a000000000000000000000000000000000000000000000000000000000000000c00000000000000000000000000000000000000000000000000000000000000020000000000000000000000000000000000000000000000000000000000000004000000000000000000000000002425f6f27102e6e3dc9b3407eee2c129771f6a3000000000000000000000000000000000000000000000000000000000000002b5a98fcbea516cf06857215779fd812ca3bef1b32000bb8c02aaa39b223fe8d0a0e5c4f27ead9083c756cc2000000000000000000000000000000000000000000",
                    "decodedMethod": {
                        "callParams": [
                            {
                                "name": "recipient",
                                "type": "address",
                                "value": "0x68b3465833fb72a70ecdf485e0e4c7bd8665fc45"
                            },
                            {
                                "name": "zeroForOne",
                                "type": "bool",
                                "value": true
                            },
                            {
                                "name": "amountSpecified",
                                "type": "int256",
                                "value": "5,735,079,004,178,324,150,466"
                            },
                            {
                                "name": "sqrtPriceLimitX96",
                                "type": "uint160",
                                "value": "4,295,128,740"
                            },
                            {
                                "name": "data",
                                "type": "bytes",
                                "value": "0x0000000000000000000000000000000000000000000000000000000000000020000000000000000000000000000000000000000000000000000000000000004000000000000000000000000002425f6f27102e6e3dc9b3407eee2c129771f6a3000000000000000000000000000000000000000000000000000000000000002b5a98fcbea516cf06857215779fd812ca3bef1b32000bb8c02aaa39b223fe8d0a0e5c4f27ead9083c756cc2000000000000000000000000000000000000000000"
                            }
                        ],
                        "constructorArguments": "",
                        "name": "swap",
                        "returnParams": [
                            {
                                "name": "amount0",
                                "type": "int256",
                                "value": "5,735,079,004,178,324,150,466"
                            },
                            {
                                "name": "amount1",
                                "type": "int256",
                                "value": "-4,548,518,984,777,998,567"
                            }
                        ],
                        "signature": "swap(address,bool,int256,uint160,bytes)"
                    },
                    "errorInfo": "",
                    "fromAddress": "0x68b3465833fb72a70ecdf485e0e4c7bd8665fc45",
                    "gasUsed": 170871,
                    "id": 2,
                    "methodDecoded": true,
                    "operation": "CALL",
                    "output": "0x000000000000000000000000000000000000000000000136e635a08ca20458c2ffffffffffffffffffffffffffffffffffffffffffffffffc0e06a151a2fdf19",
                    "revert": false,
                    "revertMessage": "",
                    "selector": "0x128acb08",
                    "status": true,
                    "value": "0"
                },
                "nodeType": 0
            },
            "20": {
                "event": {
                    "contract": "0xa0b86991c6218b36c1d19d4a2e9eb0ce3606eb48",
                    "decodedLog": {
                        "name": "Transfer",
                        "params": [
                            {
                                "name": "from",
                                "type": "address",
                                "value": "0x88e6a0c2ddd26feeb64f039a2c41296fcb3f5640"
                            },
                            {
                                "name": "to",
                                "type": "address",
                                "value": "0x02425f6f27102e6e3dc9b3407eee2c129771f6a3"
                            },
                            {
                                "decimalAvailable": true,
                                "name": "value",
                                "type": "uint256",
                                "value": "5,451,353,079"
                            }
                        ],
                        "signature": "Transfer(address,address,uint256)"
                    },
                    "id": 20,
                    "logData": "0x0000000000000000000000000000000000000000000000000000000144ed0bf7",
                    "logDecoded": true,
                    "operation": "EVENT",
                    "revert": false,
                    "status": true,
                    "topics": [
                        "0xddf252ad1be2c89b69c2b068fc378daa952ba7f163c4a11628f55a4df523b3ef",
                        "0x00000000000000000000000088e6a0c2ddd26feeb64f039a2c41296fcb3f5640",
                        "0x00000000000000000000000002425f6f27102e6e3dc9b3407eee2c129771f6a3"
                    ]
                },
                "nodeType": 1
            },
            "21": {
                "invocation": {
                    "address": "0xc02aaa39b223fe8d0a0e5c4f27ead9083c756cc2",
                    "callData": "0x00000000000000000000000088e6a0c2ddd26feeb64f039a2c41296fcb3f5640",
                    "decodedMethod": {
                        "callParams": [
                            {
                                "name": "",
                                "type": "address",
                                "value": "0x88e6a0c2ddd26feeb64f039a2c41296fcb3f5640"
                            }
                        ],
                        "constructorArguments": "",
                        "name": "balanceOf",
                        "returnParams": [
                            {
                                "decimalAvailable": true,
                                "name": "",
                                "type": "uint256",
                                "value": "99,151,270,095,446,036,595,719"
                            }
                        ],
                        "signature": "balanceOf(address)"
                    },
                    "errorInfo": "",
                    "fromAddress": "0x88e6a0c2ddd26feeb64f039a2c41296fcb3f5640",
                    "gasUsed": 2534,
                    "id": 21,
                    "methodDecoded": true,
                    "operation": "STATICCALL",
                    "output": "0x0000000000000000000000000000000000000000000014ff004989dd60524407",
                    "revert": false,
                    "revertMessage": "",
                    "selector": "0x70a08231",
                    "status": true,
                    "value": "0"
                },
                "nodeType": 0
            },
            "22": {
                "invocation": {
                    "address": "0x68b3465833fb72a70ecdf485e0e4c7bd8665fc45",
                    "callData": "0xfffffffffffffffffffffffffffffffffffffffffffffffffffffffebb12f4090000000000000000000000000000000000000000000000003f1f95eae5d020e7000000000000000000000000000000000000000000000000000000000000006000000000000000000000000000000000000000000000000000000000000000c00000000000000000000000000000000000000000000000000000000000000020000000000000000000000000000000000000000000000000000000000000004000000000000000000000000068b3465833fb72a70ecdf485e0e4c7bd8665fc45000000000000000000000000000000000000000000000000000000000000002bc02aaa39b223fe8d0a0e5c4f27ead9083c756cc20001f4a0b86991c6218b36c1d19d4a2e9eb0ce3606eb48000000000000000000000000000000000000000000",
                    "decodedMethod": {
                        "callParams": [
                            {
                                "name": "amount0Delta",
                                "type": "int256",
                                "value": "-5,451,353,079"
                            },
                            {
                                "name": "amount1Delta",
                                "type": "int256",
                                "value": "4,548,518,984,777,998,567"
                            },
                            {
                                "name": "_data",
                                "type": "bytes",
                                "value": "0x0000000000000000000000000000000000000000000000000000000000000020000000000000000000000000000000000000000000000000000000000000004000000000000000000000000068b3465833fb72a70ecdf485e0e4c7bd8665fc45000000000000000000000000000000000000000000000000000000000000002bc02aaa39b223fe8d0a0e5c4f27ead9083c756cc20001f4a0b86991c6218b36c1d19d4a2e9eb0ce3606eb48000000000000000000000000000000000000000000"
                            }
                        ],
                        "constructorArguments": "",
                        "name": "uniswapV3SwapCallback",
                        "returnParams": [],
                        "signature": "uniswapV3SwapCallback(int256,int256,bytes)"
                    },
                    "errorInfo": "",
                    "fromAddress": "0x88e6a0c2ddd26feeb64f039a2c41296fcb3f5640",
                    "gasUsed": 10085,
                    "id": 22,
                    "methodDecoded": true,
                    "operation": "CALL",
                    "output": "",
                    "revert": false,
                    "revertMessage": "",
                    "selector": "0xfa461e33",
                    "status": true,
                    "value": "0"
                },
                "nodeType": 0
            },
            "23": {
                "invocation": {
                    "address": "0xc02aaa39b223fe8d0a0e5c4f27ead9083c756cc2",
                    "callData": "0x00000000000000000000000088e6a0c2ddd26feeb64f039a2c41296fcb3f56400000000000000000000000000000000000000000000000003f1f95eae5d020e7",
                    "decodedMethod": {
                        "callParams": [
                            {
                                "name": "dst",
                                "type": "address",
                                "value": "0x88e6a0c2ddd26feeb64f039a2c41296fcb3f5640"
                            },
                            {
                                "decimalAvailable": true,
                                "name": "wad",
                                "type": "uint256",
                                "value": "4,548,518,984,777,998,567"
                            }
                        ],
                        "constructorArguments": "",
                        "name": "transfer",
                        "returnParams": [
                            {
                                "name": "",
                                "type": "bool",
                                "value": true
                            }
                        ],
                        "signature": "transfer(address,uint256)"
                    },
                    "errorInfo": "",
                    "fromAddress": "0x68b3465833fb72a70ecdf485e0e4c7bd8665fc45",
                    "gasUsed": 6062,
                    "id": 23,
                    "methodDecoded": true,
                    "operation": "CALL",
                    "output": "0x0000000000000000000000000000000000000000000000000000000000000001",
                    "revert": false,
                    "revertMessage": "",
                    "selector": "0xa9059cbb",
                    "status": true,
                    "value": "0"
                },
                "nodeType": 0
            },
            "24": {
                "event": {
                    "contract": "0xc02aaa39b223fe8d0a0e5c4f27ead9083c756cc2",
                    "decodedLog": {
                        "name": "Transfer",
                        "params": [
                            {
                                "name": "src",
                                "type": "address",
                                "value": "0x68b3465833fb72a70ecdf485e0e4c7bd8665fc45"
                            },
                            {
                                "name": "dst",
                                "type": "address",
                                "value": "0x88e6a0c2ddd26feeb64f039a2c41296fcb3f5640"
                            },
                            {
                                "decimalAvailable": true,
                                "name": "wad",
                                "type": "uint256",
                                "value": "4,548,518,984,777,998,567"
                            }
                        ],
                        "signature": "Transfer(address,address,uint256)"
                    },
                    "id": 24,
                    "logData": "0x0000000000000000000000000000000000000000000000003f1f95eae5d020e7",
                    "logDecoded": true,
                    "operation": "EVENT",
                    "revert": false,
                    "status": true,
                    "topics": [
                        "0xddf252ad1be2c89b69c2b068fc378daa952ba7f163c4a11628f55a4df523b3ef",
                        "0x00000000000000000000000068b3465833fb72a70ecdf485e0e4c7bd8665fc45",
                        "0x00000000000000000000000088e6a0c2ddd26feeb64f039a2c41296fcb3f5640"
                    ]
                },
                "nodeType": 1
            },
            "25": {
                "invocation": {
                    "address": "0xc02aaa39b223fe8d0a0e5c4f27ead9083c756cc2",
                    "callData": "0x00000000000000000000000088e6a0c2ddd26feeb64f039a2c41296fcb3f5640",
                    "decodedMethod": {
                        "callParams": [
                            {
                                "name": "",
                                "type": "address",
                                "value": "0x88e6a0c2ddd26feeb64f039a2c41296fcb3f5640"
                            }
                        ],
                        "constructorArguments": "",
                        "name": "balanceOf",
                        "returnParams": [
                            {
                                "decimalAvailable": true,
                                "name": "",
                                "type": "uint256",
                                "value": "99,155,818,614,430,814,594,286"
                            }
                        ],
                        "signature": "balanceOf(address)"
                    },
                    "errorInfo": "",
                    "fromAddress": "0x88e6a0c2ddd26feeb64f039a2c41296fcb3f5640",
                    "gasUsed": 534,
                    "id": 25,
                    "methodDecoded": true,
                    "operation": "STATICCALL",
                    "output": "0x0000000000000000000000000000000000000000000014ff3f691fc8462264ee",
                    "revert": false,
                    "revertMessage": "",
                    "selector": "0x70a08231",
                    "status": true,
                    "value": "0"
                },
                "nodeType": 0
            },
            "26": {
                "event": {
                    "contract": "0x88e6a0c2ddd26feeb64f039a2c41296fcb3f5640",
                    "decodedLog": {
                        "name": "Swap",
                        "params": [
                            {
                                "name": "sender",
                                "type": "address",
                                "value": "0x68b3465833fb72a70ecdf485e0e4c7bd8665fc45"
                            },
                            {
                                "name": "recipient",
                                "type": "address",
                                "value": "0x02425f6f27102e6e3dc9b3407eee2c129771f6a3"
                            },
                            {
                                "name": "amount0",
                                "type": "int256",
                                "value": "-5,451,353,079"
                            },
                            {
                                "name": "amount1",
                                "type": "int256",
                                "value": "4,548,518,984,777,998,567"
                            },
                            {
                                "name": "sqrtPriceX96",
                                "type": "uint160",
                                "value": "2,287,993,857,882,876,553,863,691,161,416,948"
                            },
                            {
                                "name": "liquidity",
                                "type": "uint128",
                                "value": "33,471,024,395,561,216,021"
                            },
                            {
                                "name": "tick",
                                "type": "int24",
                                "value": "205,427"
                            }
                        ],
                        "signature": "Swap(address,address,int256,int256,uint160,uint128,int24)"
                    },
                    "id": 26,
                    "logData": "0xfffffffffffffffffffffffffffffffffffffffffffffffffffffffebb12f4090000000000000000000000000000000000000000000000003f1f95eae5d020e700000000000000000000000000000000000070ce8ae0e19143207e032419b4f4000000000000000000000000000000000000000000000001d080f759c5dc28150000000000000000000000000000000000000000000000000000000000032273",
                    "logDecoded": true,
                    "operation": "EVENT",
                    "revert": false,
                    "status": true,
                    "topics": [
                        "0xc42079f94a6350d7e6235f29174924f928cc2ac818eb64fed8004e115fbcca67",
                        "0x00000000000000000000000068b3465833fb72a70ecdf485e0e4c7bd8665fc45",
                        "0x00000000000000000000000002425f6f27102e6e3dc9b3407eee2c129771f6a3"
                    ]
                },
                "nodeType": 1
            },
            "3": {
                "invocation": {
                    "address": "0xc02aaa39b223fe8d0a0e5c4f27ead9083c756cc2",
                    "callData": "0x00000000000000000000000068b3465833fb72a70ecdf485e0e4c7bd8665fc450000000000000000000000000000000000000000000000003f1f95eae5d020e7",
                    "decodedMethod": {
                        "callParams": [
                            {
                                "name": "dst",
                                "type": "address",
                                "value": "0x68b3465833fb72a70ecdf485e0e4c7bd8665fc45"
                            },
                            {
                                "decimalAvailable": true,
                                "name": "wad",
                                "type": "uint256",
                                "value": "4,548,518,984,777,998,567"
                            }
                        ],
                        "constructorArguments": "",
                        "name": "transfer",
                        "returnParams": [
                            {
                                "name": "",
                                "type": "bool",
                                "value": true
                            }
                        ],
                        "signature": "transfer(address,uint256)"
                    },
                    "errorInfo": "",
                    "fromAddress": "0xa3f558aebaecaf0e11ca4b2199cc5ed341edfd74",
                    "gasUsed": 29962,
                    "id": 3,
                    "methodDecoded": true,
                    "operation": "CALL",
                    "output": "0x0000000000000000000000000000000000000000000000000000000000000001",
                    "revert": false,
                    "revertMessage": "",
                    "selector": "0xa9059cbb",
                    "status": true,
                    "value": "0"
                },
                "nodeType": 0
            },
            "4": {
                "event": {
                    "contract": "0xc02aaa39b223fe8d0a0e5c4f27ead9083c756cc2",
                    "decodedLog": {
                        "name": "Transfer",
                        "params": [
                            {
                                "name": "src",
                                "type": "address",
                                "value": "0xa3f558aebaecaf0e11ca4b2199cc5ed341edfd74"
                            },
                            {
                                "name": "dst",
                                "type": "address",
                                "value": "0x68b3465833fb72a70ecdf485e0e4c7bd8665fc45"
                            },
                            {
                                "decimalAvailable": true,
                                "name": "wad",
                                "type": "uint256",
                                "value": "4,548,518,984,777,998,567"
                            }
                        ],
                        "signature": "Transfer(address,address,uint256)"
                    },
                    "id": 4,
                    "logData": "0x0000000000000000000000000000000000000000000000003f1f95eae5d020e7",
                    "logDecoded": true,
                    "operation": "EVENT",
                    "revert": false,
                    "status": true,
                    "topics": [
                        "0xddf252ad1be2c89b69c2b068fc378daa952ba7f163c4a11628f55a4df523b3ef",
                        "0x000000000000000000000000a3f558aebaecaf0e11ca4b2199cc5ed341edfd74",
                        "0x00000000000000000000000068b3465833fb72a70ecdf485e0e4c7bd8665fc45"
                    ]
                },
                "nodeType": 1
            },
            "5": {
                "invocation": {
                    "address": "0x5a98fcbea516cf06857215779fd812ca3bef1b32",
                    "callData": "0x000000000000000000000000a3f558aebaecaf0e11ca4b2199cc5ed341edfd74",
                    "decodedMethod": {
                        "callParams": [
                            {
                                "name": "_owner",
                                "type": "address",
                                "value": "0xa3f558aebaecaf0e11ca4b2199cc5ed341edfd74"
                            }
                        ],
                        "constructorArguments": "",
                        "name": "balanceOf",
                        "returnParams": [
                            {
                                "decimalAvailable": true,
                                "name": "balance",
                                "type": "uint256",
                                "value": "6,839,627,037,880,704,946,937,694"
                            }
                        ],
                        "signature": "balanceOf(address)"
                    },
                    "errorInfo": "",
                    "fromAddress": "0xa3f558aebaecaf0e11ca4b2199cc5ed341edfd74",
                    "gasUsed": 8016,
                    "id": 5,
                    "methodDecoded": true,
                    "operation": "STATICCALL",
                    "output": "0x00000000000000000000000000000000000000000005a858ecb75f5e48801f5e",
                    "revert": false,
                    "revertMessage": "",
                    "selector": "0x70a08231",
                    "status": true,
                    "value": "0"
                },
                "nodeType": 0
            },
            "6": {
                "invocation": {
                    "address": "0x68b3465833fb72a70ecdf485e0e4c7bd8665fc45",
                    "callData": "0x000000000000000000000000000000000000000000000136e635a08ca20458c2ffffffffffffffffffffffffffffffffffffffffffffffffc0e06a151a2fdf19000000000000000000000000000000000000000000000000000000000000006000000000000000000000000000000000000000000000000000000000000000c00000000000000000000000000000000000000000000000000000000000000020000000000000000000000000000000000000000000000000000000000000004000000000000000000000000002425f6f27102e6e3dc9b3407eee2c129771f6a3000000000000000000000000000000000000000000000000000000000000002b5a98fcbea516cf06857215779fd812ca3bef1b32000bb8c02aaa39b223fe8d0a0e5c4f27ead9083c756cc2000000000000000000000000000000000000000000",
                    "decodedMethod": {
                        "callParams": [
                            {
                                "name": "amount0Delta",
                                "type": "int256",
                                "value": "5,735,079,004,178,324,150,466"
                            },
                            {
                                "name": "amount1Delta",
                                "type": "int256",
                                "value": "-4,548,518,984,777,998,567"
                            },
                            {
                                "name": "_data",
                                "type": "bytes",
                                "value": "0x0000000000000000000000000000000000000000000000000000000000000020000000000000000000000000000000000000000000000000000000000000004000000000000000000000000002425f6f27102e6e3dc9b3407eee2c129771f6a3000000000000000000000000000000000000000000000000000000000000002b5a98fcbea516cf06857215779fd812ca3bef1b32000bb8c02aaa39b223fe8d0a0e5c4f27ead9083c756cc2000000000000000000000000000000000000000000"
                            }
                        ],
                        "constructorArguments": "",
                        "name": "uniswapV3SwapCallback",
                        "returnParams": [],
                        "signature": "uniswapV3SwapCallback(int256,int256,bytes)"
                    },
                    "errorInfo": "",
                    "fromAddress": "0xa3f558aebaecaf0e11ca4b2199cc5ed341edfd74",
                    "gasUsed": 90179,
                    "id": 6,
                    "methodDecoded": true,
                    "operation": "CALL",
                    "output": "",
                    "revert": false,
                    "revertMessage": "",
                    "selector": "0xfa461e33",
                    "status": true,
                    "value": "0"
                },
                "nodeType": 0
            },
            "7": {
                "invocation": {
                    "address": "0x5a98fcbea516cf06857215779fd812ca3bef1b32",
                    "callData": "0x00000000000000000000000002425f6f27102e6e3dc9b3407eee2c129771f6a3000000000000000000000000a3f558aebaecaf0e11ca4b2199cc5ed341edfd74000000000000000000000000000000000000000000000136e635a08ca20458c2",
                    "decodedMethod": {
                        "callParams": [
                            {
                                "name": "_from",
                                "type": "address",
                                "value": "0x02425f6f27102e6e3dc9b3407eee2c129771f6a3"
                            },
                            {
                                "name": "_to",
                                "type": "address",
                                "value": "0xa3f558aebaecaf0e11ca4b2199cc5ed341edfd74"
                            },
                            {
                                "decimalAvailable": true,
                                "name": "_amount",
                                "type": "uint256",
                                "value": "5,735,079,004,178,324,150,466"
                            }
                        ],
                        "constructorArguments": "",
                        "name": "transferFrom",
                        "returnParams": [
                            {
                                "name": "success",
                                "type": "bool",
                                "value": true
                            }
                        ],
                        "signature": "transferFrom(address,address,uint256)"
                    },
                    "errorInfo": "",
                    "fromAddress": "0x68b3465833fb72a70ecdf485e0e4c7bd8665fc45",
                    "gasUsed": 86102,
                    "id": 7,
                    "methodDecoded": true,
                    "operation": "CALL",
                    "output": "0x0000000000000000000000000000000000000000000000000000000000000001",
                    "revert": false,
                    "revertMessage": "",
                    "selector": "0x23b872dd",
                    "status": true,
                    "value": "0"
                },
                "nodeType": 0
            },
            "8": {
                "invocation": {
                    "address": "0xf73a1260d222f447210581ddf212d915c09a3249",
                    "callData": "0x00000000000000000000000002425f6f27102e6e3dc9b3407eee2c129771f6a3000000000000000000000000a3f558aebaecaf0e11ca4b2199cc5ed341edfd74000000000000000000000000000000000000000000000136e635a08ca20458c2",
                    "decodedMethod": {
                        "callParams": [
                            {
                                "name": "_from",
                                "type": "address",
                                "value": "0x02425f6f27102e6e3dc9b3407eee2c129771f6a3"
                            },
                            {
                                "name": "_to",
                                "type": "address",
                                "value": "0xa3f558aebaecaf0e11ca4b2199cc5ed341edfd74"
                            },
                            {
                                "name": "_amount",
                                "type": "uint256",
                                "value": "5,735,079,004,178,324,150,466"
                            }
                        ],
                        "constructorArguments": "",
                        "name": "onTransfer",
                        "returnParams": [
                            {
                                "name": "",
                                "type": "bool",
                                "value": true
                            }
                        ],
                        "signature": "onTransfer(address,address,uint256)"
                    },
                    "errorInfo": "",
                    "fromAddress": "0x5a98fcbea516cf06857215779fd812ca3bef1b32",
                    "gasUsed": 31314,
                    "id": 8,
                    "methodDecoded": true,
                    "operation": "CALL",
                    "output": "0x0000000000000000000000000000000000000000000000000000000000000001",
                    "revert": false,
                    "revertMessage": "",
                    "selector": "0x4a393149",
                    "status": true,
                    "value": "0"
                },
                "nodeType": 0
            },
            "9": {
                "invocation": {
                    "address": "0xb8ffc3cd6e7cf5a098a1c92f48009765b24088dc",
                    "callData": "0xf1f3eb40f5bc1ad1344716ced8b8a0431d840b5783aea1fd01786bc26f35ac0fcd567bdf93dd0f6acc3bc7f2155f83244d56a65abbfbefb763e015420102c67b",
                    "decodedMethod": {
                        "callParams": [
                            {
                                "name": "_namespace",
                                "type": "bytes32",
                                "value": "0xf1f3eb40f5bc1ad1344716ced8b8a0431d840b5783aea1fd01786bc26f35ac0f"
                            },
                            {
                                "name": "_appId",
                                "type": "bytes32",
                                "value": "0xcd567bdf93dd0f6acc3bc7f2155f83244d56a65abbfbefb763e015420102c67b"
                            }
                        ],
                        "constructorArguments": "",
                        "name": "getApp",
                        "returnParams": [
                            {
                                "name": "",
                                "type": "address",
                                "value": "0xde3a93028f2283cc28756b3674bd657eafb992f4"
                            }
                        ],
                        "signature": "getApp(bytes32,bytes32)"
                    },
                    "errorInfo": "",
                    "fromAddress": "0xf73a1260d222f447210581ddf212d915c09a3249",
                    "gasUsed": 8263,
                    "id": 9,
                    "methodDecoded": true,
                    "operation": "CALL",
                    "output": "0x000000000000000000000000de3a93028f2283cc28756b3674bd657eafb992f4",
                    "revert": false,
                    "revertMessage": "",
                    "selector": "0xbe00bbd8",
                    "status": true,
                    "value": "0"
                },
                "nodeType": 0
            }
        },
        "gasFlame": [
            {
                "children": [
                    {
                        "children": [
                            {
                                "children": [],
                                "depth": 0,
                                "name": "Initial Gas",
                                "value": 24364
                            },
                            {
                                "children": [
                                    {
                                        "children": [
                                            {
                                                "children": [
                                                    {
                                                        "children": [],
                                                        "depth": 3,
                                                        "name": "transfer",
                                                        "value": 29962
                                                    },
                                                    {
                                                        "children": [],
                                                        "depth": 3,
                                                        "name": "balanceOf",
                                                        "value": 8016
                                                    },
                                                    {
                                                        "children": [
                                                            {
                                                                "children": [
                                                                    {
                                                                        "children": [
                                                                            {
                                                                                "children": [
                                                                                    {
                                                                                        "children": [],
                                                                                        "depth": 7,
                                                                                        "name": "getApp",
                                                                                        "value": 2820
                                                                                    }
                                                                                ],
                                                                                "depth": 6,
                                                                                "name": "getApp",
                                                                                "value": 8263
                                                                            },
                                                                            {
                                                                                "children": [
                                                                                    {
                                                                                        "children": [],
                                                                                        "depth": 7,
                                                                                        "name": "balanceOf",
                                                                                        "value": 2016
                                                                                    },
                                                                                    {
                                                                                        "children": [],
                                                                                        "depth": 7,
                                                                                        "name": "balanceOf",
                                                                                        "value": 2016
                                                                                    }
                                                                                ],
                                                                                "depth": 6,
                                                                                "name": "onTransfer",
                                                                                "value": 12422
                                                                            }
                                                                        ],
                                                                        "depth": 5,
                                                                        "name": "onTransfer",
                                                                        "value": 31314
                                                                    }
                                                                ],
                                                                "depth": 4,
                                                                "name": "transferFrom",
                                                                "value": 86102
                                                            }
                                                        ],
                                                        "depth": 3,
                                                        "name": "uniswapV3SwapCallback",
                                                        "value": 90179
                                                    },
                                                    {
                                                        "children": [],
                                                        "depth": 3,
                                                        "name": "balanceOf",
                                                        "value": 2016
                                                    }
                                                ],
                                                "depth": 2,
                                                "name": "swap",
                                                "value": 170871
                                            },
                                            {
                                                "children": [
                                                    {
                                                        "children": [
                                                            {
                                                                "children": [],
                                                                "depth": 4,
                                                                "name": "transfer",
                                                                "value": 36728
                                                            }
                                                        ],
                                                        "depth": 3,
                                                        "name": "transfer",
                                                        "value": 44017
                                                    },
                                                    {
                                                        "children": [],
                                                        "depth": 3,
                                                        "name": "balanceOf",
                                                        "value": 2534
                                                    },
                                                    {
                                                        "children": [
                                                            {
                                                                "children": [],
                                                                "depth": 4,
                                                                "name": "transfer",
                                                                "value": 6062
                                                            }
                                                        ],
                                                        "depth": 3,
                                                        "name": "uniswapV3SwapCallback",
                                                        "value": 10085
                                                    },
                                                    {
                                                        "children": [],
                                                        "depth": 3,
                                                        "name": "balanceOf",
                                                        "value": 534
                                                    }
                                                ],
                                                "depth": 2,
                                                "name": "swap",
                                                "value": 90755
                                            }
                                        ],
                                        "depth": 1,
                                        "name": "exactInput",
                                        "value": 276800
                                    }
                                ],
                                "depth": 0,
                                "name": "Executed Gas",
                                "value": 278990
                            }
                        ],
                        "depth": -1,
                        "name": "Actual Gas Used",
                        "value": 283454
                    },
                    {
                        "children": [],
                        "depth": -1,
                        "name": "Refunded Gas",
                        "value": 19900
                    }
                ],
                "depth": -2,
                "name": "Total Gas",
                "value": 303354
            }
        ],
        "isConfirmed": true,
        "mainTrace": [
            {
                "children": [
                    {
                        "children": [
                            {
                                "children": [
                                    {
                                        "children": [
                                            {
                                                "children": [
                                                    {
                                                        "children": [],
                                                        "depth": 4,
                                                        "id": 4,
                                                        "order": 4
                                                    }
                                                ],
                                                "depth": 3,
                                                "id": 3,
                                                "order": 3
                                            },
                                            {
                                                "children": [],
                                                "depth": 3,
                                                "id": 5,
                                                "order": 5
                                            },
                                            {
                                                "children": [
                                                    {
                                                        "children": [
                                                            {
                                                                "children": [
                                                                    {
                                                                        "children": [
                                                                            {
                                                                                "children": [],
                                                                                "depth": 7,
                                                                                "id": 10,
                                                                                "order": 10
                                                                            }
                                                                        ],
                                                                        "depth": 6,
                                                                        "id": 9,
                                                                        "order": 9
                                                                    },
                                                                    {
                                                                        "children": [
                                                                            {
                                                                                "children": [],
                                                                                "depth": 7,
                                                                                "id": 12,
                                                                                "order": 12
                                                                            },
                                                                            {
                                                                                "children": [],
                                                                                "depth": 7,
                                                                                "id": 13,
                                                                                "order": 13
                                                                            }
                                                                        ],
                                                                        "depth": 6,
                                                                        "id": 11,
                                                                        "order": 11
                                                                    }
                                                                ],
                                                                "depth": 5,
                                                                "id": 8,
                                                                "order": 8
                                                            },
                                                            {
                                                                "children": [],
                                                                "depth": 5,
                                                                "id": 14,
                                                                "order": 14
                                                            }
                                                        ],
                                                        "depth": 4,
                                                        "id": 7,
                                                        "order": 7
                                                    }
                                                ],
                                                "depth": 3,
                                                "id": 6,
                                                "order": 6
                                            },
                                            {
                                                "children": [],
                                                "depth": 3,
                                                "id": 15,
                                                "order": 15
                                            },
                                            {
                                                "children": [],
                                                "depth": 3,
                                                "id": 16,
                                                "order": 16
                                            }
                                        ],
                                        "depth": 2,
                                        "id": 2,
                                        "order": 2
                                    },
                                    {
                                        "children": [
                                            {
                                                "children": [
                                                    {
                                                        "children": [
                                                            {
                                                                "children": [],
                                                                "depth": 5,
                                                                "id": 20,
                                                                "order": 20
                                                            }
                                                        ],
                                                        "depth": 4,
                                                        "id": 19,
                                                        "order": 19
                                                    }
                                                ],
                                                "depth": 3,
                                                "id": 18,
                                                "order": 18
                                            },
                                            {
                                                "children": [],
                                                "depth": 3,
                                                "id": 21,
                                                "order": 21
                                            },
                                            {
                                                "children": [
                                                    {
                                                        "children": [
                                                            {
                                                                "children": [],
                                                                "depth": 5,
                                                                "id": 24,
                                                                "order": 24
                                                            }
                                                        ],
                                                        "depth": 4,
                                                        "id": 23,
                                                        "order": 23
                                                    }
                                                ],
                                                "depth": 3,
                                                "id": 22,
                                                "order": 22
                                            },
                                            {
                                                "children": [],
                                                "depth": 3,
                                                "id": 25,
                                                "order": 25
                                            },
                                            {
                                                "children": [],
                                                "depth": 3,
                                                "id": 26,
                                                "order": 26
                                            }
                                        ],
                                        "depth": 2,
                                        "id": 17,
                                        "order": 17
                                    }
                                ],
                                "depth": 1,
                                "id": 1,
                                "order": 1
                            }
                        ],
                        "depth": 0,
                        "id": 0,
                        "order": 0
                    }
                ],
                "depth": -1,
                "id": -1,
                "order": -1
            }
        ],
        "mainTraceNodeCount": 27,
        "parentIdMap": {
            "0": -1,
            "1": 0,
            "10": 9,
            "11": 8,
            "12": 11,
            "13": 11,
            "14": 7,
            "15": 2,
            "16": 2,
            "17": 1,
            "18": 17,
            "19": 18,
            "2": 1,
            "20": 19,
            "21": 17,
            "22": 17,
            "23": 22,
            "24": 23,
            "25": 17,
            "26": 17,
            "3": 2,
            "4": 3,
            "5": 2,
            "6": 2,
            "7": 6,
            "8": 7,
            "9": 8
        },
        "tidyTrace": [
            {
                "children": [
                    {
                        "children": [
                            {
                                "children": [
                                    {
                                        "children": [
                                            {
                                                "children": [
                                                    {
                                                        "children": [],
                                                        "depth": 4,
                                                        "id": 4,
                                                        "order": 4
                                                    }
                                                ],
                                                "depth": 3,
                                                "id": 3,
                                                "order": 3
                                            },
                                            {
                                                "children": [
                                                    {
                                                        "children": [
                                                            {
                                                                "children": [
                                                                    {
                                                                        "children": [
                                                                            {
                                                                                "children": [],
                                                                                "depth": 7,
                                                                                "id": 10,
                                                                                "order": 10
                                                                            }
                                                                        ],
                                                                        "depth": 6,
                                                                        "id": 9,
                                                                        "order": 9
                                                                    },
                                                                    {
                                                                        "children": [
                                                                            {
                                                                                "children": [],
                                                                                "depth": 7,
                                                                                "id": 12,
                                                                                "order": 12
                                                                            },
                                                                            {
                                                                                "children": [],
                                                                                "depth": 7,
                                                                                "id": 13,
                                                                                "order": 13
                                                                            }
                                                                        ],
                                                                        "depth": 6,
                                                                        "id": 11,
                                                                        "order": 11
                                                                    }
                                                                ],
                                                                "depth": 5,
                                                                "id": 8,
                                                                "order": 8
                                                            },
                                                            {
                                                                "children": [],
                                                                "depth": 5,
                                                                "id": 14,
                                                                "order": 14
                                                            }
                                                        ],
                                                        "depth": 4,
                                                        "id": 7,
                                                        "order": 7
                                                    }
                                                ],
                                                "depth": 3,
                                                "id": 6,
                                                "order": 6
                                            },
                                            {
                                                "children": [],
                                                "depth": 3,
                                                "id": 16,
                                                "order": 16
                                            }
                                        ],
                                        "depth": 2,
                                        "id": 2,
                                        "order": 2
                                    },
                                    {
                                        "children": [
                                            {
                                                "children": [
                                                    {
                                                        "children": [
                                                            {
                                                                "children": [],
                                                                "depth": 5,
                                                                "id": 20,
                                                                "order": 20
                                                            }
                                                        ],
                                                        "depth": 4,
                                                        "id": 19,
                                                        "order": 19
                                                    }
                                                ],
                                                "depth": 3,
                                                "id": 18,
                                                "order": 18
                                            },
                                            {
                                                "children": [
                                                    {
                                                        "children": [
                                                            {
                                                                "children": [],
                                                                "depth": 5,
                                                                "id": 24,
                                                                "order": 24
                                                            }
                                                        ],
                                                        "depth": 4,
                                                        "id": 23,
                                                        "order": 23
                                                    }
                                                ],
                                                "depth": 3,
                                                "id": 22,
                                                "order": 22
                                            },
                                            {
                                                "children": [],
                                                "depth": 3,
                                                "id": 26,
                                                "order": 26
                                            }
                                        ],
                                        "depth": 2,
                                        "id": 17,
                                        "order": 17
                                    }
                                ],
                                "depth": 1,
                                "id": 1,
                                "order": 1
                            }
                        ],
                        "depth": 0,
                        "id": 0,
                        "order": 0
                    }
                ],
                "depth": -1,
                "id": -1,
                "order": -1
            }
        ],
        "tidyTraceNodeCount": 23
    },
    "state_change": {
        "stateChanges": [
            {
                "address": "0x5a98fcbea516cf06857215779fd812ca3bef1b32",
                "erc": "ERC-20",
                "slots": [
                    {
                        "current": "0xfffffffffffffffffffffffffffffffffffffffffffffec919ca5f735dfba73d",
                        "key": "0x934c7db8c941130904be89f0cceeb39d70858d8e94af014b6553c0e1b16c3b64",
                        "prev": "0xffffffffffffffffffffffffffffffffffffffffffffffffffffffffffffffff"
                    },
                    {
                        "current": "0x0000000000000000000000000000000000000000000000000000000000f8d23a",
                        "key": "0xce2a21080402fa36e4273b3fc9435b4ca52c26c1b3c3ac29082c0ee3ccca52be",
                        "prev": "0x0000000000000000000000000000000000000000000000000000000000000000"
                    },
                    {
                        "current": "0x000000000005a98fd2ecffeaea84782000000000000000000000000000f8d23a",
                        "key": "0x2bb02f7a911f7acc2d4ffd7f0be24de813ba275e8846b6fbda9d9bf613b8e0c7",
                        "prev": "0x000000000005a858ecb75f5e48801f5e00000000000000000000000000f8d23a"
                    },
                    {
                        "current": "0x0000000000000000000000000000000000000000000000000000000000000002",
                        "key": "0x4030bfae8a522a6ead5c9c1fb9829571402a6f6c4042879471439cbbeebaba10",
                        "prev": "0x0000000000000000000000000000000000000000000000000000000000000001"
                    }
                ],
                "storageVariables": [
                    {
                        "name": "allowed",
                        "type": "mapping(address => mapping(address => uint256))",
                        "value": {
                            "pairs": [
                                {
                                    "key": "0x02425f6f27102e6e3dc9b3407eee2c129771f6a3",
                                    "value": {
                                        "pairs": [
                                            {
                                                "key": "0x68b3465833fb72a70ecdf485e0e4c7bd8665fc45",
                                                "value": {
                                                    "current": "115792089237316195423570985008687907853269984665640564033722505003734805489469",
                                                    "prev": "115792089237316195423570985008687907853269984665640564039457584007913129639935",
                                                    "typeTag": 1
                                                }
                                            }
                                        ],
                                        "typeTag": 4
                                    }
                                }
                            ],
                            "typeTag": 4
                        }
                    },
                    {
                        "name": "balances",
                        "type": "mapping(address => struct MiniMeToken.Checkpoint[])",
                        "value": {
                            "pairs": [
                                {
                                    "key": "0x02425f6f27102e6e3dc9b3407eee2c129771f6a3",
                                    "value": {
                                        "elemType": "struct MiniMeToken.Checkpoint",
                                        "elems": [
                                            {
                                                "index": 1,
                                                "value": {
                                                    "fields": [
                                                        {
                                                            "name": "fromBlock",
                                                            "type": "uint128",
                                                            "value": {
                                                                "current": "16306746",
                                                                "prev": "0",
                                                                "typeTag": 1
                                                            }
                                                        },
                                                        {
                                                            "name": "value",
                                                            "type": "uint128",
                                                            "value": {
                                                                "current": "0",
                                                                "prev": "0",
                                                                "typeTag": 1
                                                            }
                                                        }
                                                    ],
                                                    "typeTag": 3
                                                }
                                            }
                                        ],
                                        "typeTag": 2
                                    }
                                },
                                {
                                    "key": "0xa3f558aebaecaf0e11ca4b2199cc5ed341edfd74",
                                    "value": {
                                        "elemType": "struct MiniMeToken.Checkpoint",
                                        "elems": [
                                            {
                                                "index": 36717,
                                                "value": {
                                                    "fields": [
                                                        {
                                                            "name": "fromBlock",
                                                            "type": "uint128",
                                                            "value": {
                                                                "current": "16306746",
                                                                "prev": "16306746",
                                                                "typeTag": 1
                                                            }
                                                        },
                                                        {
                                                            "name": "value",
                                                            "type": "uint128",
                                                            "value": {
                                                                "current": "6845362116884883271088160",
                                                                "prev": "6839627037880704946937694",
                                                                "typeTag": 1
                                                            }
                                                        }
                                                    ],
                                                    "typeTag": 3
                                                }
                                            }
                                        ],
                                        "typeTag": 2
                                    }
                                }
                            ],
                            "typeTag": 4
                        }
                    }
                ]
            },
            {
                "address": "0x88e6a0c2ddd26feeb64f039a2c41296fcb3f5640",
                "erc": "",
                "slots": [
                    {
                        "current": "0x00000000000000000000000000000bd684bb2d3d13eadaff8def62557db5218b",
                        "key": "0x0000000000000000000000000000000000000000000000000000000000000002",
                        "prev": "0x00000000000000000000000000000bd684b6b9467296c9e09a83bf307fcff453"
                    },
                    {
                        "current": "0x00010002d002d000c903227300000000000070ce8ae0e19143207e032419b4f4",
                        "key": "0x0000000000000000000000000000000000000000000000000000000000000000",
                        "prev": "0x00010002d002d000c903227300000000000070ce681b5ebb83aed06a21fda95c"
                    }
                ],
                "storageVariables": []
            },
            {
                "address": "0xa0b86991c6218b36c1d19d4a2e9eb0ce3606eb48",
                "erc": "ERC-20",
                "slots": [
                    {
                        "current": "0x000000000000000000000000000000000000000000000000000037fe085689cf",
                        "key": "0x1f21a62c4538bacf2aabeca410f0fe63151869f172e03c0e00357ba26a341eff",
                        "prev": "0x000000000000000000000000000000000000000000000000000037ff4d4395c6"
                    },
                    {
                        "current": "0x0000000000000000000000000000000000000000000000000000000144ed0bf7",
                        "key": "0x4f9a1015a0c38602a1f98301d7f220293e8d2f2a9f58d2c6dd9412eafc04d26f",
                        "prev": "0x0000000000000000000000000000000000000000000000000000000000000000"
                    }
                ],
                "storageVariables": [
                    {
                        "name": "balances",
                        "type": "mapping(address => uint256)",
                        "value": {
                            "pairs": [
                                {
                                    "key": "0x02425f6f27102e6e3dc9b3407eee2c129771f6a3",
                                    "value": {
                                        "current": "5451353079",
                                        "prev": "0",
                                        "typeTag": 1
                                    }
                                },
                                {
                                    "key": "0x88e6a0c2ddd26feeb64f039a2c41296fcb3f5640",
                                    "value": {
                                        "current": "61564201109967",
                                        "prev": "61569652463046",
                                        "typeTag": 1
                                    }
                                }
                            ],
                            "typeTag": 4
                        }
                    }
                ]
            },
            {
                "address": "0xa3f558aebaecaf0e11ca4b2199cc5ed341edfd74",
                "erc": "",
                "slots": [
                    {
                        "current": "0x000100000100010000fee9350000000000000000073846f4f748d01574c187bb",
                        "key": "0x0000000000000000000000000000000000000000000000000000000000000000",
                        "prev": "0x000100000100010000fee93800000000000000000738898a017f505e43053c38"
                    },
                    {
                        "current": "0x0000000000000000000000000000000319a8647b3b12f874289f1e49ea07644d",
                        "key": "0x0000000000000000000000000000000000000000000000000000000000000001",
                        "prev": "0x0000000000000000000000000000000319a768a0a0f5d1019875616e691526e5"
                    }
                ],
                "storageVariables": []
            },
            {
                "address": "0xc02aaa39b223fe8d0a0e5c4f27ead9083c756cc2",
                "erc": "ERC-20",
                "slots": [
                    {
                        "current": "0x0000000000000000000000000000000000000000000000573744f0adf87a70b3",
                        "key": "0x12ed0242e5b5478e54852c950fa127e3775ded1c7ac3b6fd822a07e2da20af2e",
                        "prev": "0x00000000000000000000000000000000000000000000005776648698de4a919a"
                    },
                    {
                        "current": "0x0000000000000000000000000000000000000000000014ff3f691fc8462264ee",
                        "key": "0x390f6178407c9b8e95802b8659e6df8e34c1e3d4f8d6a49e6132bbcdd937b63a",
                        "prev": "0x0000000000000000000000000000000000000000000014ff004989dd60524407"
                    }
                ],
                "storageVariables": [
                    {
                        "name": "balanceOf",
                        "type": "mapping(address => uint256)",
                        "value": {
                            "pairs": [
                                {
                                    "key": "0x88e6a0c2ddd26feeb64f039a2c41296fcb3f5640",
                                    "value": {
                                        "current": "99155818614430814594286",
                                        "prev": "99151270095446036595719",
                                        "typeTag": 1
                                    }
                                },
                                {
                                    "key": "0xa3f558aebaecaf0e11ca4b2199cc5ed341edfd74",
                                    "value": {
                                        "current": "1608849307013222133939",
                                        "prev": "1613397825998000132506",
                                        "typeTag": 1
                                    }
                                }
                            ],
                            "typeTag": 4
                        }
                    }
                ]
            }
        ]
    }
}