{
    "balance_change": {
        "balanceChanges": [
            {
                "account": "0xd8fac7cb133b836222deeb3d16009ddba1cc58c6",
                "assets": [
                    {
                        "address": "0x514fd08e295d9d79ad364aa3e27e410784d87f33",
                        "amount": "3,400",
                        "iconUrl": "",
                        "isERC1155": false,
                        "isERC721": false,
                        "sign": false,
                        "value": ""
                    }
                ]
            },
            {
                "account": "0xa3cb351a75848efa4c091ec44c65c1e062e57dda",
                "assets": [
                    {
                        "address": "0x514fd08e295d9d79ad364aa3e27e410784d87f33",
                        "amount": "3,400",
                        "iconUrl": "",
                        "isERC1155": false,
                        "isERC721": false,
                        "sign": true,
                        "value": ""
                    }
                ]
            }
        ]
    },
    "profile": {
        "basic_info": {
            "baseFee": "",
            "blockNumber": 8275330,
            "callData": "0xa9059cbb000000000000000000000000a3cb351a75848efa4c091ec44c65c1e062e57dda0000000000000000000000000000000000000000000000b8507a820728200000",
            "debugEnable": true,
            "errorInfo": "",
            "eventCount": 1,
            "feeRecipient": "0x829bd824b016326a401d083b33d092293333a830",
            "formatValue": "0",
            "gasLimit": 60000,
            "gasPrice": "20",
            "gasUsed": 38495,
            "intTxnCount": 0,
            "internalRevert": false,
            "internalRevertMessage": "",
            "isContractCreation": false,
            "isFlashloan": false,
            "maxFee": "",
            "nonce": 152,
            "overwritedBlockNumber": -1,
            "priorityFee": "",
            "receiver": "0x514fd08e295d9d79ad364aa3e27e410784d87f33",
            "revertMessage": "",
            "sender": "0xd8fac7cb133b836222deeb3d16009ddba1cc58c6",
            "simulationEnable": true,
            "sourceTxnHash": "0x58800f5dfd20e5a843d882d3ac963f775dc237fc7d024c0ade2703e1603e5923",
            "status": true,
            "timestamp": "2019-08-03T03:38:00Z",
            "transactionFee": "0.0007699",
            "txnHash": "0x58800f5dfd20e5a843d882d3ac963f775dc237fc7d024c0ade2703e1603e5923",
            "txnIndex": 14,
            "type": 0,
            "value": "0"
        },
        "fund_flow": [
            {
                "amount": "3,400",
                "from": "0xd8fac7cb133b836222deeb3d16009ddba1cc58c6",
                "id": 1,
                "isERC1155": false,
                "isERC721": false,
                "isReverted": false,
                "order": 1,
                "to": "0xa3cb351a75848efa4c091ec44c65c1e062e57dda",
                "token": "0x514fd08e295d9d79ad364aa3e27e410784d87f33"
            }
        ],
        "token_infos": [
            {
                "address": "0x514fd08e295d9d79ad364aa3e27e410784d87f33",
                "decimals": 18
            },
            {
                "address": "0xc02aaa39b223fe8d0a0e5c4f27ead9083c756cc2",
                "decimals": 18
            },
            {
                "address": "0xeeeeeeeeeeeeeeeeeeeeeeeeeeeeeeeeeeeeeeee",
                "decimals": 18
            }
        ]
    },
    "address_label": {
        "labels": [
            {
                "address": "0x0000000000000000000000000000000000000002",
                "label": "Precompiled"
            },
            {
                "address": "0x0000000000000000000000000000000000000003",
                "label": "Precompiled"
            },
            {
                "address": "0x0000000000000000000000000000000000000004",
                "label": "Precompiled"
            },
            {
                "address": "0xeeeeeeeeeeeeeeeeeeeeeeeeeeeeeeeeeeeeeeee",
                "label": "Ether"
            },
            {
                "address": "0x514fd08e295d9d79ad364aa3e27e410784d87f33",
                "label": "VOC"
            },
            {
                "address": "0x0000000000000000000000000000000000000001",
                "label": "Precompiled"
            }
        ]
    },
    "trace": {
        "accountLabels": null,
        "dataMap": {
            "-1": {
                "invocation": {
                    "address": "0xd8fac7cb133b836222deeb3d16009ddba1cc58c6",
                    "callData": "",
                    "decodedMethod": null,
                    "errorInfo": "",
                    "fromAddress": "",
                    "gasUsed": 0,
                    "id": -1,
                    "methodDecoded": false,
                    "operation": "",
                    "output": "",
                    "revert": false,
                    "revertMessage": "",
                    "selector": "",
                    "status": false,
                    "value": ""
                },
                "nodeType": 0
            },
            "0": {
                "invocation": {
                    "address": "0x514fd08e295d9d79ad364aa3e27e410784d87f33",
                    "callData": "0x000000000000000000000000a3cb351a75848efa4c091ec44c65c1e062e57dda0000000000000000000000000000000000000000000000b8507a820728200000",
                    "decodedMethod": {
                        "callParams": [
                            {
                                "name": "_to",
                                "type": "address",
                                "value": "0xa3cb351a75848efa4c091ec44c65c1e062e57dda"
                            },
                            {
                                "decimalAvailable": true,
                                "name": "_value",
                                "type": "uint256",
                                "value": "3,400,000,000,000,000,000,000"
                            }
                        ],
                        "constructorArguments": "",
                        "name": "transfer",
                        "returnParams": [
                            {
                                "name": "success",
                                "type": "bool",
                                "value": true
                            }
                        ],
                        "signature": "transfer(address,uint256)"
                    },
                    "errorInfo": "",
                    "fromAddress": "0xd8fac7cb133b836222deeb3d16009ddba1cc58c6",
                    "gasUsed": 38495,
                    "id": 0,
                    "methodDecoded": true,
                    "operation": "CALL",
                    "output": "0x0000000000000000000000000000000000000000000000000000000000000001",
                    "revert": false,
                    "revertMessage": "",
                    "selector": "0xa9059cbb",
                    "status": true,
                    "value": "0"
                },
                "nodeType": 0
            },
            "1": {
                "event": {
                    "contract": "0x514fd08e295d9d79ad364aa3e27e410784d87f33",
                    "decodedLog": {
                        "name": "Transfer",
                        "params": [
                            {
                                "name": "from",
                                "type": "address",
                                "value": "0xd8fac7cb133b836222deeb3d16009ddba1cc58c6"
                            },
                            {
                                "name": "to",
                                "type": "address",
                                "value": "0xa3cb351a75848efa4c091ec44c65c1e062e57dda"
                            },
                            {
                                "decimalAvailable": true,
                                "name": "value",
                                "type": "uint256",
                                "value": "3,400,000,000,000,000,000,000"
                            }
                        ],
                        "signature": "Transfer(address,address,uint256)"
                    },
                    "id": 1,
                    "logData": "0x0000000000000000000000000000000000000000000000b8507a820728200000",
                    "logDecoded": true,
                    "operation": "EVENT",
                    "revert": false,
                    "status": true,
                    "topics": [
                        "0xddf252ad1be2c89b69c2b068fc378daa952ba7f163c4a11628f55a4df523b3ef",
                        "0x000000000000000000000000d8fac7cb133b836222deeb3d16009ddba1cc58c6",
                        "0x000000000000000000000000a3cb351a75848efa4c091ec44c65c1e062e57dda"
                    ]
                },
                "nodeType": 1
            }
        },
        "gasFlame": [
            {
                "children": [
                    {
                        "children": [
                            {
                                "children": [],
                                "depth": 0,
                                "name": "Initial Gas",
                                "value": 23256
                            },
                            {
                                "children": [],
                                "depth": 0,
                                "name": "Executed Gas",
                                "value": 30239
                            }
                        ],
                        "depth": -1,
                        "name": "Actual Gas Used",
                        "value": 38495
                    },
                    {
                        "children": [],
                        "depth": -1,
                        "name": "Refunded Gas",
                        "value": 15000
                    }
                ],
                "depth": -2,
                "name": "Total Gas",
                "value": 53495
            }
        ],
        "isConfirmed": true,
        "mainTrace": [
            {
                "children": [
                    {
                        "children": [
                            {
                                "children": [],
                                "depth": 1,
                                "id": 1,
                                "order": 1
                            }
                        ],
                        "depth": 0,
                        "id": 0,
                        "order": 0
                    }
                ],
                "depth": -1,
                "id": -1,
                "order": -1
            }
        ],
        "mainTraceNodeCount": 2,
        "parentIdMap": {
            "0": -1,
            "1": 0
        },
        "tidyTrace": [
            {
                "children": [
                    {
                        "children": [
                            {
                                "children": [],
                                "depth": 1,
                                "id": 1,
                                "order": 1
                            }
                        ],
                        "depth": 0,
                        "id": 0,
                        "order": 0
                    }
                ],
                "depth": -1,
                "id": -1,
                "order": -1
            }
        ],
        "tidyTraceNodeCount": 2
    },
    "state_change": {
        "stateChanges": [
            {
                "address": "0x514fd08e295d9d79ad364aa3e27e410784d87f33",
                "erc": "ERC-20",
                "slots": [
                    {
                        "current": "0x0000000000000000000000000000000000000000000000b8507a820728200000",
                        "key": "0xd9a3bb5ab2b6a04f26a0cf5efbc3b9c73e9fe13f7efd1a0b9c07a28b028a6ccc",
                        "prev": "0x0000000000000000000000000000000000000000000000000000000000000000"
                    },
                    {
                        "current": "0x0000000000000000000000000000000000000000000000000000000000000000",
                        "key": "0x602b3d8b1832527a3ff61bed6de00a9571b34db3053e8c3a2183556dd991225c",
                        "prev": "0x0000000000000000000000000000000000000000000000b8507a820728200000"
                    }
                ],
                "storageVariables": [
                    {
                        "name": "balanceOf",
                        "type": "mapping(address => uint256)",
                        "value": {
                            "pairs": [
                                {
                                    "key": "0xa3cb351a75848efa4c091ec44c65c1e062e57dda",
                                    "value": {
                                        "current": "3400000000000000000000",
                                        "prev": "0",
                                        "typeTag": 1
                                    }
                                },
                                {
                                    "key": "0xd8fac7cb133b836222deeb3d16009ddba1cc58c6",
                                    "value": {
                                        "current": "0",
                                        "prev": "3400000000000000000000",
                                        "typeTag": 1
                                    }
                                }
                            ],
                            "typeTag": 4
                        }
                    }
                ]
            }
        ]
    }
}