{
    "balance_change": {
        "balanceChanges": [
            {
                "account": "0x7c5b22b5bf7c9a518b49d326d9a0e7486ec39f3c",
                "assets": [
                    {
                        "address": "0xb62e45c3df611dce236a6ddc7a493d79f9dfadef",
                        "amount": "5,808",
                        "iconUrl": "",
                        "isERC1155": false,
                        "isERC721": false,
                        "sign": false,
                        "value": "135.90720000000000384"
                    }
                ]
            },
            {
                "account": "0x36a08b52998c55c364d7efac6913d25488d3235a",
                "assets": [
                    {
                        "address": "0xb62e45c3df611dce236a6ddc7a493d79f9dfadef",
                        "amount": "5,808",
                        "iconUrl": "",
                        "isERC1155": false,
                        "isERC721": false,
                        "sign": true,
                        "value": "135.90720000000000384"
                    }
                ]
            }
        ]
    },
    "profile": {
        "basic_info": {
            "baseFee": "35.219140573",
            "blockNumber": 18533733,
            "callData": "0xa9059cbb00000000000000000000000036a08b52998c55c364d7efac6913d25488d3235a00000000000000000000000000000000000000000000013ada310be5acc00000",
            "debugEnable": true,
            "errorInfo": "",
            "eventCount": 1,
            "feeRecipient": "0x388c818ca8b9251b393131c08a736a67ccb19297",
            "formatValue": "0",
            "gasLimit": 78424,
            "gasPrice": "43.9700718",
            "gasUsed": 47483,
            "intTxnCount": 0,
            "internalRevert": false,
            "internalRevertMessage": "",
            "isContractCreation": false,
            "isFlashloan": false,
            "maxFee": "43.9700718",
            "nonce": 1,
            "overwritedBlockNumber": -1,
            "priorityFee": "43.9700718",
            "receiver": "0xb62e45c3df611dce236a6ddc7a493d79f9dfadef",
            "revertMessage": "",
            "sender": "0x7c5b22b5bf7c9a518b49d326d9a0e7486ec39f3c",
            "simulationEnable": true,
            "sourceTxnHash": "0x59d8830646deca2156ee3213c872a1d5702e05d30e0a39d307b0d82f38777496",
            "status": true,
            "timestamp": "2023-11-09T10:16:59Z",
            "transactionFee": "0.0020878309192794",
            "txnHash": "0x59d8830646deca2156ee3213c872a1d5702e05d30e0a39d307b0d82f38777496",
            "txnIndex": 17,
            "type": 2,
            "value": "0"
        },
        "fund_flow": [
            {
                "amount": "5,808",
                "from": "0x7c5b22b5bf7c9a518b49d326d9a0e7486ec39f3c",
                "id": 1,
                "isERC1155": false,
                "isERC721": false,
                "isReverted": false,
                "order": 1,
                "to": "0x36a08b52998c55c364d7efac6913d25488d3235a",
                "token": "0xb62e45c3df611dce236a6ddc7a493d79f9dfadef"
            }
        ],
        "token_infos": [
            {
                "address": "0xeeeeeeeeeeeeeeeeeeeeeeeeeeeeeeeeeeeeeeee",
                "decimals": 18
            },
            {
                "address": "0xb62e45c3df611dce236a6ddc7a493d79f9dfadef",
                "decimals": 18
            },
            {
                "address": "0xc02aaa39b223fe8d0a0e5c4f27ead9083c756cc2",
                "decimals": 18
            }
        ]
    },
    "address_label": {
        "labels": [
            {
                "address": "0x0000000000000000000000000000000000000002",
                "label": "Precompiled"
            },
            {
                "address": "0x0000000000000000000000000000000000000003",
                "label": "Precompiled"
            },
            {
                "address": "0x0000000000000000000000000000000000000004",
                "label": "Precompiled"
            },
            {
                "address": "0xeeeeeeeeeeeeeeeeeeeeeeeeeeeeeeeeeeeeeeee",
                "label": "Ether"
            },
            {
                "address": "0xb62e45c3df611dce236a6ddc7a493d79f9dfadef",
                "label": "Wall Street Memes: WSM Token"
            },
            {
                "address": "0x388c818ca8b9251b393131c08a736a67ccb19297",
                "label": "LidoExecutionLayerRewardsVault"
            },
            {
                "address": "0x0000000000000000000000000000000000000001",
                "label": "Precompiled"
            }
        ]
    },
    "trace": {
        "accountLabels": null,
        "dataMap": {
            "-1": {
                "invocation": {
                    "address": "0x7c5b22b5bf7c9a518b49d326d9a0e7486ec39f3c",
                    "callData": "",
                    "decodedMethod": null,
                    "errorInfo": "",
                    "fromAddress": "",
                    "gasUsed": 0,
                    "id": -1,
                    "methodDecoded": false,
                    "operation": "",
                    "output": "",
                    "revert": false,
                    "revertMessage": "",
                    "selector": "",
                    "status": false,
                    "value": ""
                },
                "nodeType": 0
            },
            "0": {
                "invocation": {
                    "address": "0xb62e45c3df611dce236a6ddc7a493d79f9dfadef",
                    "callData": "0x00000000000000000000000036a08b52998c55c364d7efac6913d25488d3235a00000000000000000000000000000000000000000000013ada310be5acc00000",
                    "decodedMethod": {
                        "callParams": [
                            {
                                "name": "recipient",
                                "type": "address",
                                "value": "0x36a08b52998c55c364d7efac6913d25488d3235a"
                            },
                            {
                                "decimalAvailable": true,
                                "name": "amount",
                                "type": "uint256",
                                "value": "5,808,000,000,000,000,000,000"
                            }
                        ],
                        "constructorArguments": "",
                        "name": "transfer",
                        "returnParams": [
                            {
                                "name": "",
                                "type": "bool",
                                "value": true
                            }
                        ],
                        "signature": "transfer(address,uint256)"
                    },
                    "errorInfo": "",
                    "fromAddress": "0x7c5b22b5bf7c9a518b49d326d9a0e7486ec39f3c",
                    "gasUsed": 47483,
                    "id": 0,
                    "methodDecoded": true,
                    "operation": "CALL",
                    "output": "0x0000000000000000000000000000000000000000000000000000000000000001",
                    "revert": false,
                    "revertMessage": "",
                    "selector": "0xa9059cbb",
                    "status": true,
                    "value": "0"
                },
                "nodeType": 0
            },
            "1": {
                "event": {
                    "contract": "0xb62e45c3df611dce236a6ddc7a493d79f9dfadef",
                    "decodedLog": {
                        "name": "Transfer",
                        "params": [
                            {
                                "name": "from",
                                "type": "address",
                                "value": "0x7c5b22b5bf7c9a518b49d326d9a0e7486ec39f3c"
                            },
                            {
                                "name": "to",
                                "type": "address",
                                "value": "0x36a08b52998c55c364d7efac6913d25488d3235a"
                            },
                            {
                                "decimalAvailable": true,
                                "name": "value",
                                "type": "uint256",
                                "value": "5,808,000,000,000,000,000,000"
                            }
                        ],
                        "signature": "Transfer(address,address,uint256)"
                    },
                    "id": 1,
                    "logData": "0x00000000000000000000000000000000000000000000013ada310be5acc00000",
                    "logDecoded": true,
                    "operation": "EVENT",
                    "revert": false,
                    "status": true,
                    "topics": [
                        "0xddf252ad1be2c89b69c2b068fc378daa952ba7f163c4a11628f55a4df523b3ef",
                        "0x0000000000000000000000007c5b22b5bf7c9a518b49d326d9a0e7486ec39f3c",
                        "0x00000000000000000000000036a08b52998c55c364d7efac6913d25488d3235a"
                    ]
                },
                "nodeType": 1
            }
        },
        "gasFlame": [
            {
                "children": [
                    {
                        "children": [
                            {
                                "children": [],
                                "depth": 0,
                                "name": "Initial Gas",
                                "value": 21656
                            },
                            {
                                "children": [],
                                "depth": 0,
                                "name": "Executed Gas",
                                "value": 30627
                            }
                        ],
                        "depth": -1,
                        "name": "Actual Gas Used",
                        "value": 47483
                    },
                    {
                        "children": [],
                        "depth": -1,
                        "name": "Refunded Gas",
                        "value": 4800
                    }
                ],
                "depth": -2,
                "name": "Total Gas",
                "value": 52283
            }
        ],
        "isConfirmed": true,
        "mainTrace": [
            {
                "children": [
                    {
                        "children": [
                            {
                                "children": [],
                                "depth": 1,
                                "id": 1,
                                "order": 1
                            }
                        ],
                        "depth": 0,
                        "id": 0,
                        "order": 0
                    }
                ],
                "depth": -1,
                "id": -1,
                "order": -1
            }
        ],
        "mainTraceNodeCount": 2,
        "parentIdMap": {
            "0": -1,
            "1": 0
        },
        "tidyTrace": [
            {
                "children": [
                    {
                        "children": [
                            {
                                "children": [],
                                "depth": 1,
                                "id": 1,
                                "order": 1
                            }
                        ],
                        "depth": 0,
                        "id": 0,
                        "order": 0
                    }
                ],
                "depth": -1,
                "id": -1,
                "order": -1
            }
        ],
        "tidyTraceNodeCount": 2
    },
    "state_change": {
        "stateChanges": [
            {
                "address": "0xb62e45c3df611dce236a6ddc7a493d79f9dfadef",
                "erc": "ERC-20",
                "slots": [
                    {
                        "current": "0x00000000000000000000000000000000000000000000013ada310be5acc00000",
                        "key": "0x046639f5c08c903c7eb61913dea3c20d7ac6c795078df27a50701507027ec67c",
                        "prev": "0x0000000000000000000000000000000000000000000000000000000000000000"
                    },
                    {
                        "current": "0x0000000000000000000000000000000000000000000000000000000000000000",
                        "key": "0xda33feb94ff14b9311b20febf9664cda0613ca5dd3dc6834f99bb5e644b501d6",
                        "prev": "0x00000000000000000000000000000000000000000000013ada310be5acc00000"
                    }
                ],
                "storageVariables": [
                    {
                        "name": "_balances",
                        "type": "mapping(address => uint256)",
                        "value": {
                            "pairs": [
                                {
                                    "key": "0x36a08b52998c55c364d7efac6913d25488d3235a",
                                    "value": {
                                        "current": "5808000000000000000000",
                                        "prev": "0",
                                        "typeTag": 1
                                    }
                                },
                                {
                                    "key": "0x7c5b22b5bf7c9a518b49d326d9a0e7486ec39f3c",
                                    "value": {
                                        "current": "0",
                                        "prev": "5808000000000000000000",
                                        "typeTag": 1
                                    }
                                }
                            ],
                            "typeTag": 4
                        }
                    }
                ]
            }
        ]
    }
}