{
    "balance_change": {
        "balanceChanges": [
            {
                "account": "0x236f9f97e0e62388479bf9e5ba4889e46b0273c3",
                "assets": [
                    {
                        "address": "0x6c2adc2073994fb2ccc5032cc2906fa221e9b391",
                        "amount": "312.5",
                        "iconUrl": "https://assets.blocksec.com/icon/5e694bf0714938358e3b59ecb1059d767e695b0b343eac3c4d03202f8b39d58d.png",
                        "isERC1155": false,
                        "isERC721": false,
                        "sign": false,
                        "value": ""
                    }
                ]
            },
            {
                "account": "0x5d63e96e34694e3e9a2dd6c21286c8fc357f4ab8",
                "assets": [
                    {
                        "address": "0x6c2adc2073994fb2ccc5032cc2906fa221e9b391",
                        "amount": "312.5",
                        "iconUrl": "https://assets.blocksec.com/icon/5e694bf0714938358e3b59ecb1059d767e695b0b343eac3c4d03202f8b39d58d.png",
                        "isERC1155": false,
                        "isERC721": false,
                        "sign": true,
                        "value": ""
                    }
                ]
            }
        ]
    },
    "profile": {
        "basic_info": {
            "baseFee": "",
            "blockNumber": 5160766,
            "callData": "0xa9059cbb0000000000000000000000005d63e96e34694e3e9a2dd6c21286c8fc357f4ab8000000000000000000000000000000000000000000000010f0cf064dd5920000",
            "debugEnable": true,
            "errorInfo": "",
            "eventCount": 1,
            "feeRecipient": "0xb2930b35844a230f00e51431acae96fe543a0347",
            "formatValue": "0",
            "gasLimit": 420000,
            "gasPrice": "50",
            "gasUsed": 55791,
            "intTxnCount": 2,
            "internalRevert": false,
            "internalRevertMessage": "",
            "isContractCreation": false,
            "isFlashloan": false,
            "maxFee": "",
            "nonce": 338287,
            "overwritedBlockNumber": -1,
            "priorityFee": "",
            "receiver": "0x6c2adc2073994fb2ccc5032cc2906fa221e9b391",
            "revertMessage": "",
            "sender": "0x236f9f97e0e62388479bf9e5ba4889e46b0273c3",
            "simulationEnable": true,
            "sourceTxnHash": "0x59a1331b4efe120f242eab1422f6a841ac4d447b585f7ca0f5c0aca6299cf56e",
            "status": true,
            "timestamp": "2018-02-26T17:42:57Z",
            "transactionFee": "0.00278955",
            "txnHash": "0x59a1331b4efe120f242eab1422f6a841ac4d447b585f7ca0f5c0aca6299cf56e",
            "txnIndex": 14,
            "type": 0,
            "value": "0"
        },
        "fund_flow": [
            {
                "amount": "312.5",
                "from": "0x236f9f97e0e62388479bf9e5ba4889e46b0273c3",
                "id": 1,
                "isERC1155": false,
                "isERC721": false,
                "isReverted": false,
                "order": 1,
                "to": "0x5d63e96e34694e3e9a2dd6c21286c8fc357f4ab8",
                "token": "0x6c2adc2073994fb2ccc5032cc2906fa221e9b391"
            }
        ],
        "token_infos": [
            {
                "address": "0x6c2adc2073994fb2ccc5032cc2906fa221e9b391",
                "decimals": 18
            },
            {
                "address": "0xc02aaa39b223fe8d0a0e5c4f27ead9083c756cc2",
                "decimals": 18
            },
            {
                "address": "0xeeeeeeeeeeeeeeeeeeeeeeeeeeeeeeeeeeeeeeee",
                "decimals": 18
            }
        ]
    },
    "address_label": {
        "labels": [
            {
                "address": "0x0000000000000000000000000000000000000004",
                "label": "Precompiled"
            },
            {
                "address": "0xeeeeeeeeeeeeeeeeeeeeeeeeeeeeeeeeeeeeeeee",
                "label": "Ether"
            },
            {
                "address": "0x236f9f97e0e62388479bf9e5ba4889e46b0273c3",
                "label": "OKX 2"
            },
            {
                "address": "0x6c2adc2073994fb2ccc5032cc2906fa221e9b391",
                "label": "Delphy Token"
            },
            {
                "address": "0x19d07141c1ac170630ddf66835ec28a79bc53ee0",
                "label": "Math"
            },
            {
                "address": "0x0000000000000000000000000000000000000001",
                "label": "Precompiled"
            },
            {
                "address": "0x0000000000000000000000000000000000000002",
                "label": "Precompiled"
            },
            {
                "address": "0x0000000000000000000000000000000000000003",
                "label": "Precompiled"
            }
        ]
    },
    "trace": {
        "accountLabels": null,
        "dataMap": {
            "-1": {
                "invocation": {
                    "address": "0x236f9f97e0e62388479bf9e5ba4889e46b0273c3",
                    "callData": "",
                    "decodedMethod": null,
                    "errorInfo": "",
                    "fromAddress": "",
                    "gasUsed": 0,
                    "id": -1,
                    "methodDecoded": false,
                    "operation": "",
                    "output": "",
                    "revert": false,
                    "revertMessage": "",
                    "selector": "",
                    "status": false,
                    "value": ""
                },
                "nodeType": 0
            },
            "0": {
                "invocation": {
                    "address": "0x6c2adc2073994fb2ccc5032cc2906fa221e9b391",
                    "callData": "0x0000000000000000000000005d63e96e34694e3e9a2dd6c21286c8fc357f4ab8000000000000000000000000000000000000000000000010f0cf064dd5920000",
                    "decodedMethod": {
                        "callParams": [
                            {
                                "name": "to",
                                "type": "address",
                                "value": "0x5d63e96e34694e3e9a2dd6c21286c8fc357f4ab8"
                            },
                            {
                                "decimalAvailable": true,
                                "name": "value",
                                "type": "uint256",
                                "value": "312,500,000,000,000,000,000"
                            }
                        ],
                        "constructorArguments": "",
                        "name": "transfer",
                        "returnParams": [
                            {
                                "name": "",
                                "type": "bool",
                                "value": true
                            }
                        ],
                        "signature": "transfer(address,uint256)"
                    },
                    "errorInfo": "",
                    "fromAddress": "0x236f9f97e0e62388479bf9e5ba4889e46b0273c3",
                    "gasUsed": 55791,
                    "id": 0,
                    "methodDecoded": true,
                    "operation": "CALL",
                    "output": "0x0000000000000000000000000000000000000000000000000000000000000001",
                    "revert": false,
                    "revertMessage": "",
                    "selector": "0xa9059cbb",
                    "status": true,
                    "value": "0"
                },
                "nodeType": 0
            },
            "1": {
                "invocation": {
                    "address": "0x19d07141c1ac170630ddf66835ec28a79bc53ee0",
                    "callData": "0x00000000000000000000000000000000000000000000d288941d0af2d4c6c7b2000000000000000000000000000000000000000000000010f0cf064dd5920000",
                    "decodedMethod": {
                        "callParams": [
                            {
                                "name": "a",
                                "type": "uint256",
                                "value": "994,216,391,295,379,999,999,922"
                            },
                            {
                                "name": "b",
                                "type": "uint256",
                                "value": "312,500,000,000,000,000,000"
                            }
                        ],
                        "constructorArguments": "",
                        "name": "safeToSub",
                        "returnParams": [
                            {
                                "name": "",
                                "type": "bool",
                                "value": true
                            }
                        ],
                        "signature": "safeToSub(uint256,uint256)"
                    },
                    "errorInfo": "",
                    "fromAddress": "0x6c2adc2073994fb2ccc5032cc2906fa221e9b391",
                    "gasUsed": 296,
                    "id": 1,
                    "methodDecoded": true,
                    "operation": "DELEGATECALL",
                    "output": "0x0000000000000000000000000000000000000000000000000000000000000001",
                    "revert": false,
                    "revertMessage": "",
                    "selector": "0xe31c71c4",
                    "status": true,
                    "value": "0"
                },
                "nodeType": 0
            },
            "2": {
                "invocation": {
                    "address": "0x19d07141c1ac170630ddf66835ec28a79bc53ee0",
                    "callData": "0x0000000000000000000000000000000000000000000000000000000000000000000000000000000000000000000000000000000000000010f0cf064dd5920000",
                    "decodedMethod": {
                        "callParams": [
                            {
                                "name": "a",
                                "type": "uint256",
                                "value": "0"
                            },
                            {
                                "name": "b",
                                "type": "uint256",
                                "value": "312,500,000,000,000,000,000"
                            }
                        ],
                        "constructorArguments": "",
                        "name": "safeToAdd",
                        "returnParams": [
                            {
                                "name": "",
                                "type": "bool",
                                "value": true
                            }
                        ],
                        "signature": "safeToAdd(uint256,uint256)"
                    },
                    "errorInfo": "",
                    "fromAddress": "0x6c2adc2073994fb2ccc5032cc2906fa221e9b391",
                    "gasUsed": 195,
                    "id": 2,
                    "methodDecoded": true,
                    "operation": "DELEGATECALL",
                    "output": "0x0000000000000000000000000000000000000000000000000000000000000001",
                    "revert": false,
                    "revertMessage": "",
                    "selector": "0x4e30a66c",
                    "status": true,
                    "value": "0"
                },
                "nodeType": 0
            },
            "3": {
                "event": {
                    "contract": "0x6c2adc2073994fb2ccc5032cc2906fa221e9b391",
                    "decodedLog": {
                        "name": "Transfer",
                        "params": [
                            {
                                "name": "from",
                                "type": "address",
                                "value": "0x236f9f97e0e62388479bf9e5ba4889e46b0273c3"
                            },
                            {
                                "name": "to",
                                "type": "address",
                                "value": "0x5d63e96e34694e3e9a2dd6c21286c8fc357f4ab8"
                            },
                            {
                                "decimalAvailable": true,
                                "name": "value",
                                "type": "uint256",
                                "value": "312,500,000,000,000,000,000"
                            }
                        ],
                        "signature": "Transfer(address,address,uint256)"
                    },
                    "id": 3,
                    "logData": "0x000000000000000000000000000000000000000000000010f0cf064dd5920000",
                    "logDecoded": true,
                    "operation": "EVENT",
                    "revert": false,
                    "status": true,
                    "topics": [
                        "0xddf252ad1be2c89b69c2b068fc378daa952ba7f163c4a11628f55a4df523b3ef",
                        "0x000000000000000000000000236f9f97e0e62388479bf9e5ba4889e46b0273c3",
                        "0x0000000000000000000000005d63e96e34694e3e9a2dd6c21286c8fc357f4ab8"
                    ]
                },
                "nodeType": 1
            }
        },
        "gasFlame": [
            {
                "children": [
                    {
                        "children": [
                            {
                                "children": [],
                                "depth": 0,
                                "name": "Initial Gas",
                                "value": 23256
                            },
                            {
                                "children": [
                                    {
                                        "children": [],
                                        "depth": 1,
                                        "name": "safeToSub",
                                        "value": 296
                                    },
                                    {
                                        "children": [],
                                        "depth": 1,
                                        "name": "safeToAdd",
                                        "value": 195
                                    }
                                ],
                                "depth": 0,
                                "name": "Executed Gas",
                                "value": 32535
                            }
                        ],
                        "depth": -1,
                        "name": "Actual Gas Used",
                        "value": 55791
                    },
                    {
                        "children": [],
                        "depth": -1,
                        "name": "Refunded Gas",
                        "value": 0
                    }
                ],
                "depth": -2,
                "name": "Total Gas",
                "value": 55791
            }
        ],
        "isConfirmed": true,
        "mainTrace": [
            {
                "children": [
                    {
                        "children": [
                            {
                                "children": [],
                                "depth": 1,
                                "id": 1,
                                "order": 1
                            },
                            {
                                "children": [],
                                "depth": 1,
                                "id": 2,
                                "order": 2
                            },
                            {
                                "children": [],
                                "depth": 1,
                                "id": 3,
                                "order": 3
                            }
                        ],
                        "depth": 0,
                        "id": 0,
                        "order": 0
                    }
                ],
                "depth": -1,
                "id": -1,
                "order": -1
            }
        ],
        "mainTraceNodeCount": 4,
        "parentIdMap": {
            "0": -1,
            "1": 0,
            "2": 0,
            "3": 0
        },
        "tidyTrace": [
            {
                "children": [
                    {
                        "children": [
                            {
                                "children": [],
                                "depth": 1,
                                "id": 1,
                                "order": 1
                            },
                            {
                                "children": [],
                                "depth": 1,
                                "id": 2,
                                "order": 2
                            },
                            {
                                "children": [],
                                "depth": 1,
                                "id": 3,
                                "order": 3
                            }
                        ],
                        "depth": 0,
                        "id": 0,
                        "order": 0
                    }
                ],
                "depth": -1,
                "id": -1,
                "order": -1
            }
        ],
        "tidyTraceNodeCount": 4
    },
    "state_change": {
        "stateChanges": [
            {
                "address": "0x6c2adc2073994fb2ccc5032cc2906fa221e9b391",
                "erc": "ERC-20",
                "slots": [
                    {
                        "current": "0x00000000000000000000000000000000000000000000d277a34e04a4ff34c7b2",
                        "key": "0x6732193c97a9577cea374e22c335158075045a8b6edccc32fa8898707222a926",
                        "prev": "0x00000000000000000000000000000000000000000000d288941d0af2d4c6c7b2"
                    },
                    {
                        "current": "0x000000000000000000000000000000000000000000000010f0cf064dd5920000",
                        "key": "0x3ca08706232fbf71f52d2fa3db378537fe5f334ef16f828ccec0cb2e4f878eef",
                        "prev": "0x0000000000000000000000000000000000000000000000000000000000000000"
                    }
                ],
                "storageVariables": [
                    {
                        "name": "balances",
                        "type": "mapping(address => uint256)",
                        "value": {
                            "pairs": [
                                {
                                    "key": "0x236f9f97e0e62388479bf9e5ba4889e46b0273c3",
                                    "value": {
                                        "current": "993903891295379999999922",
                                        "prev": "994216391295379999999922",
                                        "typeTag": 1
                                    }
                                },
                                {
                                    "key": "0x5d63e96e34694e3e9a2dd6c21286c8fc357f4ab8",
                                    "value": {
                                        "current": "312500000000000000000",
                                        "prev": "0",
                                        "typeTag": 1
                                    }
                                }
                            ],
                            "typeTag": 4
                        }
                    }
                ]
            }
        ]
    }
}