{
    "balance_change": {
        "balanceChanges": [
            {
                "account": "0xb13e5c8b186f2edfbd737eccd77afdba10b5b860",
                "assets": [
                    {
                        "address": "0xeb6f09f2632d8f014b068cff5485ad5d29ff9937",
                        "amount": "686,000,000,000,000,000,000",
                        "iconUrl": "",
                        "isERC1155": false,
                        "isERC721": false,
                        "sign": false,
                        "value": ""
                    }
                ]
            },
            {
                "account": "0x072be0708b3d72d35781cf45d84fa3bae8bf50fc",
                "assets": [
                    {
                        "address": "0xeb6f09f2632d8f014b068cff5485ad5d29ff9937",
                        "amount": "686,000,000,000,000,000,000",
                        "iconUrl": "",
                        "isERC1155": false,
                        "isERC721": false,
                        "sign": true,
                        "value": ""
                    }
                ]
            }
        ]
    },
    "profile": {
        "basic_info": {
            "baseFee": "",
            "blockNumber": 8657508,
            "callData": "0xa9059cbb000000000000000000000000072be0708b3d72d35781cf45d84fa3bae8bf50fc0000000000000000000000000000000000000000000000253029956a8df80000",
            "debugEnable": true,
            "errorInfo": "",
            "eventCount": 1,
            "feeRecipient": "0x829bd824b016326a401d083b33d092293333a830",
            "formatValue": "0",
            "gasLimit": 210000,
            "gasPrice": "30",
            "gasUsed": 36989,
            "intTxnCount": 0,
            "internalRevert": false,
            "internalRevertMessage": "",
            "isContractCreation": false,
            "isFlashloan": false,
            "maxFee": "",
            "nonce": 7959,
            "overwritedBlockNumber": -1,
            "priorityFee": "",
            "receiver": "0xeb6f09f2632d8f014b068cff5485ad5d29ff9937",
            "revertMessage": "",
            "sender": "0xb13e5c8b186f2edfbd737eccd77afdba10b5b860",
            "simulationEnable": true,
            "sourceTxnHash": "0x596743d813776c16054b2370458a08dd148bde8973a789dda428751920066024",
            "status": true,
            "timestamp": "2019-10-01T16:18:46Z",
            "transactionFee": "0.00110967",
            "txnHash": "0x596743d813776c16054b2370458a08dd148bde8973a789dda428751920066024",
            "txnIndex": 19,
            "type": 0,
            "value": "0"
        },
        "fund_flow": [
            {
                "amount": "686,000,000,000,000,000,000",
                "from": "0xb13e5c8b186f2edfbd737eccd77afdba10b5b860",
                "id": 1,
                "isERC1155": false,
                "isERC721": false,
                "isReverted": false,
                "order": 1,
                "to": "0x072be0708b3d72d35781cf45d84fa3bae8bf50fc",
                "token": "0xeb6f09f2632d8f014b068cff5485ad5d29ff9937"
            }
        ],
        "token_infos": [
            {
                "address": "0xc02aaa39b223fe8d0a0e5c4f27ead9083c756cc2",
                "decimals": 18
            },
            {
                "address": "0xeeeeeeeeeeeeeeeeeeeeeeeeeeeeeeeeeeeeeeee",
                "decimals": 18
            }
        ]
    },
    "address_label": {
        "labels": [
            {
                "address": "0xeeeeeeeeeeeeeeeeeeeeeeeeeeeeeeeeeeeeeeee",
                "label": "Ether"
            },
            {
                "address": "0x0000000000000000000000000000000000000001",
                "label": "Precompiled"
            },
            {
                "address": "0x0000000000000000000000000000000000000002",
                "label": "Precompiled"
            },
            {
                "address": "0x0000000000000000000000000000000000000003",
                "label": "Precompiled"
            },
            {
                "address": "0x0000000000000000000000000000000000000004",
                "label": "Precompiled"
            }
        ]
    },
    "trace": {
        "accountLabels": null,
        "dataMap": {
            "-1": {
                "invocation": {
                    "address": "0xb13e5c8b186f2edfbd737eccd77afdba10b5b860",
                    "callData": "",
                    "decodedMethod": null,
                    "errorInfo": "",
                    "fromAddress": "",
                    "gasUsed": 0,
                    "id": -1,
                    "methodDecoded": false,
                    "operation": "",
                    "output": "",
                    "revert": false,
                    "revertMessage": "",
                    "selector": "",
                    "status": false,
                    "value": ""
                },
                "nodeType": 0
            },
            "0": {
                "invocation": {
                    "address": "0xeb6f09f2632d8f014b068cff5485ad5d29ff9937",
                    "callData": "0x000000000000000000000000072be0708b3d72d35781cf45d84fa3bae8bf50fc0000000000000000000000000000000000000000000000253029956a8df80000",
                    "decodedMethod": {
                        "callParams": [
                            {
                                "name": "recipient",
                                "type": "address",
                                "value": "0x072be0708b3d72d35781cf45d84fa3bae8bf50fc"
                            },
                            {
                                "decimalAvailable": true,
                                "name": "amount",
                                "type": "uint256",
                                "value": "686,000,000,000,000,000,000"
                            }
                        ],
                        "constructorArguments": "",
                        "name": "transfer",
                        "returnParams": [
                            {
                                "name": "",
                                "type": "bool",
                                "value": true
                            }
                        ],
                        "signature": "transfer(address,uint256)"
                    },
                    "errorInfo": "",
                    "fromAddress": "0xb13e5c8b186f2edfbd737eccd77afdba10b5b860",
                    "gasUsed": 36989,
                    "id": 0,
                    "methodDecoded": true,
                    "operation": "CALL",
                    "output": "0x0000000000000000000000000000000000000000000000000000000000000001",
                    "revert": false,
                    "revertMessage": "",
                    "selector": "0xa9059cbb",
                    "status": true,
                    "value": "0"
                },
                "nodeType": 0
            },
            "1": {
                "event": {
                    "contract": "0xeb6f09f2632d8f014b068cff5485ad5d29ff9937",
                    "decodedLog": {
                        "name": "Transfer",
                        "params": [
                            {
                                "name": "from",
                                "type": "address",
                                "value": "0xb13e5c8b186f2edfbd737eccd77afdba10b5b860"
                            },
                            {
                                "name": "to",
                                "type": "address",
                                "value": "0x072be0708b3d72d35781cf45d84fa3bae8bf50fc"
                            },
                            {
                                "decimalAvailable": true,
                                "name": "value",
                                "type": "uint256",
                                "value": "686,000,000,000,000,000,000"
                            }
                        ],
                        "signature": "Transfer(address,address,uint256)"
                    },
                    "id": 1,
                    "logData": "0x0000000000000000000000000000000000000000000000253029956a8df80000",
                    "logDecoded": true,
                    "operation": "EVENT",
                    "revert": false,
                    "status": true,
                    "topics": [
                        "0xddf252ad1be2c89b69c2b068fc378daa952ba7f163c4a11628f55a4df523b3ef",
                        "0x000000000000000000000000b13e5c8b186f2edfbd737eccd77afdba10b5b860",
                        "0x000000000000000000000000072be0708b3d72d35781cf45d84fa3bae8bf50fc"
                    ]
                },
                "nodeType": 1
            }
        },
        "gasFlame": [
            {
                "children": [
                    {
                        "children": [
                            {
                                "children": [],
                                "depth": 0,
                                "name": "Initial Gas",
                                "value": 23256
                            },
                            {
                                "children": [],
                                "depth": 0,
                                "name": "Executed Gas",
                                "value": 13733
                            }
                        ],
                        "depth": -1,
                        "name": "Actual Gas Used",
                        "value": 36989
                    },
                    {
                        "children": [],
                        "depth": -1,
                        "name": "Refunded Gas",
                        "value": 0
                    }
                ],
                "depth": -2,
                "name": "Total Gas",
                "value": 36989
            }
        ],
        "isConfirmed": true,
        "mainTrace": [
            {
                "children": [
                    {
                        "children": [
                            {
                                "children": [],
                                "depth": 1,
                                "id": 1,
                                "order": 1
                            }
                        ],
                        "depth": 0,
                        "id": 0,
                        "order": 0
                    }
                ],
                "depth": -1,
                "id": -1,
                "order": -1
            }
        ],
        "mainTraceNodeCount": 2,
        "parentIdMap": {
            "0": -1,
            "1": 0
        },
        "tidyTrace": [
            {
                "children": [
                    {
                        "children": [
                            {
                                "children": [],
                                "depth": 1,
                                "id": 1,
                                "order": 1
                            }
                        ],
                        "depth": 0,
                        "id": 0,
                        "order": 0
                    }
                ],
                "depth": -1,
                "id": -1,
                "order": -1
            }
        ],
        "tidyTraceNodeCount": 2
    },
    "state_change": {
        "stateChanges": [
            {
                "address": "0xeb6f09f2632d8f014b068cff5485ad5d29ff9937",
                "erc": "",
                "slots": [
                    {
                        "current": "0x00000000000000000000000000000000000000000004e971a12093f69e692000",
                        "key": "0x874b7d61aa9bf1875216f1124686799992e1445156862d3d2aa3e0b8ed64967c",
                        "prev": "0x00000000000000000000000000000000000000000004e996d14a29612c612000"
                    },
                    {
                        "current": "0x000000000000000000000000000000000000000000001400465d82d50fbdb354",
                        "key": "0x4ae6f1be7c6eac51ac1522d0f6d98db572edb656ea48d665ecf916a619118f83",
                        "prev": "0x0000000000000000000000000000000000000000000013db1633ed6a81c5b354"
                    }
                ],
                "storageVariables": []
            }
        ]
    }
}