{
    "balance_change": {
        "balanceChanges": [
            {
                "account": "0x86e283cab263b49256924d4232532ae4531ff0bb",
                "assets": [
                    {
                        "address": "0x967da4048cd07ab37855c090aaf366e4ce1b9f48",
                        "amount": "65",
                        "iconUrl": "https://assets.blocksec.com/icon/d04f3c1fedb0e68f6cad4aa54211b27acced2b1974dd8e4a30988d3bae166079.png",
                        "isERC1155": false,
                        "isERC721": false,
                        "sign": false,
                        "value": "29.4308617"
                    },
                    {
                        "address": "0x92fbe2e54d7c8f2a0fe9206f834d5fcdcc74f218",
                        "amount": "3,859,814,261,821,565,909",
                        "iconUrl": "",
                        "isERC1155": false,
                        "isERC721": false,
                        "sign": true,
                        "value": ""
                    }
                ]
            },
            {
                "account": "0x92fbe2e54d7c8f2a0fe9206f834d5fcdcc74f218",
                "assets": [
                    {
                        "address": "0x967da4048cd07ab37855c090aaf366e4ce1b9f48",
                        "amount": "65",
                        "iconUrl": "https://assets.blocksec.com/icon/d04f3c1fedb0e68f6cad4aa54211b27acced2b1974dd8e4a30988d3bae166079.png",
                        "isERC1155": false,
                        "isERC721": false,
                        "sign": true,
                        "value": "29.4308617"
                    }
                ]
            },
            {
                "account": "0x0000000000000000000000000000000000000000",
                "assets": [
                    {
                        "address": "0x92fbe2e54d7c8f2a0fe9206f834d5fcdcc74f218",
                        "amount": "3,859,814,261,821,565,909",
                        "iconUrl": "",
                        "isERC1155": false,
                        "isERC721": false,
                        "sign": false,
                        "value": ""
                    }
                ]
            }
        ]
    },
    "profile": {
        "basic_info": {
            "baseFee": "",
            "blockNumber": 11197634,
            "callData": "0x5db34277000000000000000000000000967da4048cd07ab37855c090aaf366e4ce1b9f48000000000000000000000000000000000000000000000003860e639d806400000000000000000000000000000000000000000000000000000000000000000000",
            "debugEnable": true,
            "errorInfo": "",
            "eventCount": 6,
            "feeRecipient": "0xea674fdde714fd979de3edf0f56aa9716b898ec8",
            "formatValue": "0",
            "gasLimit": 136826,
            "gasPrice": "84",
            "gasUsed": 92877,
            "intTxnCount": 2,
            "internalRevert": false,
            "internalRevertMessage": "",
            "isContractCreation": false,
            "isFlashloan": false,
            "maxFee": "",
            "nonce": 3205,
            "overwritedBlockNumber": -1,
            "priorityFee": "",
            "receiver": "0x92fbe2e54d7c8f2a0fe9206f834d5fcdcc74f218",
            "revertMessage": "",
            "sender": "0x86e283cab263b49256924d4232532ae4531ff0bb",
            "simulationEnable": true,
            "sourceTxnHash": "0x59be744cc97e3f3705077d48ae45d0f41a81f77913db3b2bda41b8221188a104",
            "status": true,
            "timestamp": "2020-11-05T14:00:05Z",
            "transactionFee": "0.007801668",
            "txnHash": "0x59be744cc97e3f3705077d48ae45d0f41a81f77913db3b2bda41b8221188a104",
            "txnIndex": 90,
            "type": 0,
            "value": "0"
        },
        "fund_flow": [
            {
                "amount": "3,859,814,261,821,565,909",
                "from": "0x0000000000000000000000000000000000000000",
                "id": 1,
                "isERC1155": false,
                "isERC721": false,
                "isReverted": false,
                "order": 1,
                "to": "0x92fbe2e54d7c8f2a0fe9206f834d5fcdcc74f218",
                "token": "0x92fbe2e54d7c8f2a0fe9206f834d5fcdcc74f218"
            },
            {
                "amount": "3,859,814,261,821,565,909",
                "from": "0x92fbe2e54d7c8f2a0fe9206f834d5fcdcc74f218",
                "id": 2,
                "isERC1155": false,
                "isERC721": false,
                "isReverted": false,
                "order": 2,
                "to": "0x86e283cab263b49256924d4232532ae4531ff0bb",
                "token": "0x92fbe2e54d7c8f2a0fe9206f834d5fcdcc74f218"
            },
            {
                "amount": "65",
                "from": "0x86e283cab263b49256924d4232532ae4531ff0bb",
                "id": 3,
                "isERC1155": false,
                "isERC721": false,
                "isReverted": false,
                "order": 3,
                "to": "0x92fbe2e54d7c8f2a0fe9206f834d5fcdcc74f218",
                "token": "0x967da4048cd07ab37855c090aaf366e4ce1b9f48"
            }
        ],
        "token_infos": [
            {
                "address": "0x967da4048cd07ab37855c090aaf366e4ce1b9f48",
                "decimals": 18
            },
            {
                "address": "0xc02aaa39b223fe8d0a0e5c4f27ead9083c756cc2",
                "decimals": 18
            },
            {
                "address": "0xeeeeeeeeeeeeeeeeeeeeeeeeeeeeeeeeeeeeeeee",
                "decimals": 18
            }
        ]
    },
    "address_label": {
        "labels": [
            {
                "address": "0x0000000000000000000000000000000000000003",
                "label": "Precompiled"
            },
            {
                "address": "0x0000000000000000000000000000000000000004",
                "label": "Precompiled"
            },
            {
                "address": "0xeeeeeeeeeeeeeeeeeeeeeeeeeeeeeeeeeeeeeeee",
                "label": "Ether"
            },
            {
                "address": "0xee8ac082aeb41b0f5a41aae8c4110744d4e3b45a",
                "label": "Balancer Pool Token (BPT)"
            },
            {
                "address": "0x967da4048cd07ab37855c090aaf366e4ce1b9f48",
                "label": "Ocean Protocol: OCEAN Token"
            },
            {
                "address": "0x0000000000000000000000000000000000000001",
                "label": "Precompiled"
            },
            {
                "address": "0x0000000000000000000000000000000000000002",
                "label": "Precompiled"
            }
        ]
    },
    "trace": {
        "accountLabels": null,
        "dataMap": {
            "-1": {
                "invocation": {
                    "address": "0x86e283cab263b49256924d4232532ae4531ff0bb",
                    "callData": "",
                    "decodedMethod": null,
                    "errorInfo": "",
                    "fromAddress": "",
                    "gasUsed": 0,
                    "id": -1,
                    "methodDecoded": false,
                    "operation": "",
                    "output": "",
                    "revert": false,
                    "revertMessage": "",
                    "selector": "",
                    "status": false,
                    "value": ""
                },
                "nodeType": 0
            },
            "0": {
                "invocation": {
                    "address": "0x92fbe2e54d7c8f2a0fe9206f834d5fcdcc74f218",
                    "callData": "0x000000000000000000000000967da4048cd07ab37855c090aaf366e4ce1b9f48000000000000000000000000000000000000000000000003860e639d806400000000000000000000000000000000000000000000000000000000000000000000",
                    "decodedMethod": {
                        "callParams": [
                            {
                                "name": "tokenIn",
                                "type": "address",
                                "value": "0x967da4048cd07ab37855c090aaf366e4ce1b9f48"
                            },
                            {
                                "name": "tokenAmountIn",
                                "type": "uint256",
                                "value": "65,000,000,000,000,000,000"
                            },
                            {
                                "name": "minPoolAmountOut",
                                "type": "uint256",
                                "value": "0"
                            }
                        ],
                        "constructorArguments": "",
                        "name": "joinswapExternAmountIn",
                        "returnParams": [
                            {
                                "name": "poolAmountOut",
                                "type": "uint256",
                                "value": "3,859,814,261,821,565,909"
                            }
                        ],
                        "signature": "joinswapExternAmountIn(address,uint256,uint256)"
                    },
                    "errorInfo": "",
                    "fromAddress": "0x86e283cab263b49256924d4232532ae4531ff0bb",
                    "gasUsed": 92877,
                    "id": 0,
                    "methodDecoded": true,
                    "operation": "CALL",
                    "output": "0x0000000000000000000000000000000000000000000000003590d09ef6dc6bd5",
                    "revert": false,
                    "revertMessage": "",
                    "selector": "0x5db34277",
                    "status": true,
                    "value": "0"
                },
                "nodeType": 0
            },
            "1": {
                "invocation": {
                    "address": "0xee8ac082aeb41b0f5a41aae8c4110744d4e3b45a",
                    "callData": "0x000000000000000000000000967da4048cd07ab37855c090aaf366e4ce1b9f48000000000000000000000000000000000000000000000003860e639d806400000000000000000000000000000000000000000000000000000000000000000000",
                    "decodedMethod": {
                        "callParams": [
                            {
                                "name": "tokenIn",
                                "type": "address",
                                "value": "0x967da4048cd07ab37855c090aaf366e4ce1b9f48"
                            },
                            {
                                "name": "tokenAmountIn",
                                "type": "uint256",
                                "value": "65,000,000,000,000,000,000"
                            },
                            {
                                "name": "minPoolAmountOut",
                                "type": "uint256",
                                "value": "0"
                            }
                        ],
                        "constructorArguments": "",
                        "name": "joinswapExternAmountIn",
                        "returnParams": [
                            {
                                "name": "poolAmountOut",
                                "type": "uint256",
                                "value": "3,859,814,261,821,565,909"
                            }
                        ],
                        "signature": "joinswapExternAmountIn(address,uint256,uint256)"
                    },
                    "errorInfo": "",
                    "fromAddress": "0x92fbe2e54d7c8f2a0fe9206f834d5fcdcc74f218",
                    "gasUsed": 108721,
                    "id": 1,
                    "methodDecoded": true,
                    "operation": "DELEGATECALL",
                    "output": "0x0000000000000000000000000000000000000000000000003590d09ef6dc6bd5",
                    "revert": false,
                    "revertMessage": "",
                    "selector": "0x5db34277",
                    "status": true,
                    "value": "0"
                },
                "nodeType": 0
            },
            "2": {
                "event": {
                    "contract": "0x92fbe2e54d7c8f2a0fe9206f834d5fcdcc74f218",
                    "decodedLog": null,
                    "id": 2,
                    "logData": "0x000000000000000000000000000000000000000000000000000000000000002000000000000000000000000000000000000000000000000000000000000000645db34277000000000000000000000000967da4048cd07ab37855c090aaf366e4ce1b9f48000000000000000000000000000000000000000000000003860e639d80640000000000000000000000000000000000000000000000000000000000000000000000000000000000000000000000000000000000000000000000000000",
                    "logDecoded": false,
                    "operation": "EVENT",
                    "revert": false,
                    "status": true,
                    "topics": [
                        "0x5db3427700000000000000000000000000000000000000000000000000000000",
                        "0x00000000000000000000000086e283cab263b49256924d4232532ae4531ff0bb"
                    ]
                },
                "nodeType": 1
            },
            "3": {
                "event": {
                    "contract": "0x92fbe2e54d7c8f2a0fe9206f834d5fcdcc74f218",
                    "decodedLog": {
                        "name": "LOG_JOIN",
                        "params": [
                            {
                                "name": "caller",
                                "type": "address",
                                "value": "0x86e283cab263b49256924d4232532ae4531ff0bb"
                            },
                            {
                                "name": "tokenIn",
                                "type": "address",
                                "value": "0x967da4048cd07ab37855c090aaf366e4ce1b9f48"
                            },
                            {
                                "name": "tokenAmountIn",
                                "type": "uint256",
                                "value": "65,000,000,000,000,000,000"
                            }
                        ],
                        "signature": "LOG_JOIN(address,address,uint256)"
                    },
                    "id": 3,
                    "logData": "0x000000000000000000000000000000000000000000000003860e639d80640000",
                    "logDecoded": true,
                    "operation": "EVENT",
                    "revert": false,
                    "status": true,
                    "topics": [
                        "0x63982df10efd8dfaaaa0fcc7f50b2d93b7cba26ccc48adee2873220d485dc39a",
                        "0x00000000000000000000000086e283cab263b49256924d4232532ae4531ff0bb",
                        "0x000000000000000000000000967da4048cd07ab37855c090aaf366e4ce1b9f48"
                    ]
                },
                "nodeType": 1
            },
            "4": {
                "event": {
                    "contract": "0x92fbe2e54d7c8f2a0fe9206f834d5fcdcc74f218",
                    "decodedLog": {
                        "name": "Transfer",
                        "params": [
                            {
                                "name": "from",
                                "type": "address",
                                "value": "0x0000000000000000000000000000000000000000"
                            },
                            {
                                "name": "to",
                                "type": "address",
                                "value": "0x92fbe2e54d7c8f2a0fe9206f834d5fcdcc74f218"
                            },
                            {
                                "decimalAvailable": true,
                                "name": "value",
                                "type": "uint256",
                                "value": "3,859,814,261,821,565,909"
                            }
                        ],
                        "signature": "Transfer(address,address,uint256)"
                    },
                    "id": 4,
                    "logData": "0x0000000000000000000000000000000000000000000000003590d09ef6dc6bd5",
                    "logDecoded": true,
                    "operation": "EVENT",
                    "revert": false,
                    "status": true,
                    "topics": [
                        "0xddf252ad1be2c89b69c2b068fc378daa952ba7f163c4a11628f55a4df523b3ef",
                        "0x0000000000000000000000000000000000000000000000000000000000000000",
                        "0x00000000000000000000000092fbe2e54d7c8f2a0fe9206f834d5fcdcc74f218"
                    ]
                },
                "nodeType": 1
            },
            "5": {
                "event": {
                    "contract": "0x92fbe2e54d7c8f2a0fe9206f834d5fcdcc74f218",
                    "decodedLog": {
                        "name": "Transfer",
                        "params": [
                            {
                                "name": "from",
                                "type": "address",
                                "value": "0x92fbe2e54d7c8f2a0fe9206f834d5fcdcc74f218"
                            },
                            {
                                "name": "to",
                                "type": "address",
                                "value": "0x86e283cab263b49256924d4232532ae4531ff0bb"
                            },
                            {
                                "decimalAvailable": true,
                                "name": "value",
                                "type": "uint256",
                                "value": "3,859,814,261,821,565,909"
                            }
                        ],
                        "signature": "Transfer(address,address,uint256)"
                    },
                    "id": 5,
                    "logData": "0x0000000000000000000000000000000000000000000000003590d09ef6dc6bd5",
                    "logDecoded": true,
                    "operation": "EVENT",
                    "revert": false,
                    "status": true,
                    "topics": [
                        "0xddf252ad1be2c89b69c2b068fc378daa952ba7f163c4a11628f55a4df523b3ef",
                        "0x00000000000000000000000092fbe2e54d7c8f2a0fe9206f834d5fcdcc74f218",
                        "0x00000000000000000000000086e283cab263b49256924d4232532ae4531ff0bb"
                    ]
                },
                "nodeType": 1
            },
            "6": {
                "invocation": {
                    "address": "0x967da4048cd07ab37855c090aaf366e4ce1b9f48",
                    "callData": "0x00000000000000000000000086e283cab263b49256924d4232532ae4531ff0bb00000000000000000000000092fbe2e54d7c8f2a0fe9206f834d5fcdcc74f218000000000000000000000000000000000000000000000003860e639d80640000",
                    "decodedMethod": {
                        "callParams": [
                            {
                                "name": "_from",
                                "type": "address",
                                "value": "0x86e283cab263b49256924d4232532ae4531ff0bb"
                            },
                            {
                                "name": "_to",
                                "type": "address",
                                "value": "0x92fbe2e54d7c8f2a0fe9206f834d5fcdcc74f218"
                            },
                            {
                                "decimalAvailable": true,
                                "name": "_value",
                                "type": "uint256",
                                "value": "65,000,000,000,000,000,000"
                            }
                        ],
                        "constructorArguments": "",
                        "name": "transferFrom",
                        "returnParams": [
                            {
                                "name": "",
                                "type": "bool",
                                "value": true
                            }
                        ],
                        "signature": "transferFrom(address,address,uint256)"
                    },
                    "errorInfo": "",
                    "fromAddress": "0x92fbe2e54d7c8f2a0fe9206f834d5fcdcc74f218",
                    "gasUsed": 26895,
                    "id": 6,
                    "methodDecoded": true,
                    "operation": "CALL",
                    "output": "0x0000000000000000000000000000000000000000000000000000000000000001",
                    "revert": false,
                    "revertMessage": "",
                    "selector": "0x23b872dd",
                    "status": true,
                    "value": "0"
                },
                "nodeType": 0
            },
            "7": {
                "event": {
                    "contract": "0x967da4048cd07ab37855c090aaf366e4ce1b9f48",
                    "decodedLog": {
                        "name": "Transfer",
                        "params": [
                            {
                                "name": "from",
                                "type": "address",
                                "value": "0x86e283cab263b49256924d4232532ae4531ff0bb"
                            },
                            {
                                "name": "to",
                                "type": "address",
                                "value": "0x92fbe2e54d7c8f2a0fe9206f834d5fcdcc74f218"
                            },
                            {
                                "decimalAvailable": true,
                                "name": "value",
                                "type": "uint256",
                                "value": "65,000,000,000,000,000,000"
                            }
                        ],
                        "signature": "Transfer(address,address,uint256)"
                    },
                    "id": 7,
                    "logData": "0x000000000000000000000000000000000000000000000003860e639d80640000",
                    "logDecoded": true,
                    "operation": "EVENT",
                    "revert": false,
                    "status": true,
                    "topics": [
                        "0xddf252ad1be2c89b69c2b068fc378daa952ba7f163c4a11628f55a4df523b3ef",
                        "0x00000000000000000000000086e283cab263b49256924d4232532ae4531ff0bb",
                        "0x00000000000000000000000092fbe2e54d7c8f2a0fe9206f834d5fcdcc74f218"
                    ]
                },
                "nodeType": 1
            },
            "8": {
                "event": {
                    "contract": "0x967da4048cd07ab37855c090aaf366e4ce1b9f48",
                    "decodedLog": {
                        "name": "Approval",
                        "params": [
                            {
                                "name": "owner",
                                "type": "address",
                                "value": "0x86e283cab263b49256924d4232532ae4531ff0bb"
                            },
                            {
                                "name": "spender",
                                "type": "address",
                                "value": "0x92fbe2e54d7c8f2a0fe9206f834d5fcdcc74f218"
                            },
                            {
                                "decimalAvailable": true,
                                "name": "value",
                                "type": "uint256",
                                "value": "0"
                            }
                        ],
                        "signature": "Approval(address,address,uint256)"
                    },
                    "id": 8,
                    "logData": "0x0000000000000000000000000000000000000000000000000000000000000000",
                    "logDecoded": true,
                    "operation": "EVENT",
                    "revert": false,
                    "status": true,
                    "topics": [
                        "0x8c5be1e5ebec7d5bd14f71427d1e84f3dd0314c0f7b2291e5b200ac8c7c3b925",
                        "0x00000000000000000000000086e283cab263b49256924d4232532ae4531ff0bb",
                        "0x00000000000000000000000092fbe2e54d7c8f2a0fe9206f834d5fcdcc74f218"
                    ]
                },
                "nodeType": 1
            }
        },
        "gasFlame": [
            {
                "children": [
                    {
                        "children": [
                            {
                                "children": [],
                                "depth": 0,
                                "name": "Initial Gas",
                                "value": 21772
                            },
                            {
                                "children": [
                                    {
                                        "children": [
                                            {
                                                "children": [],
                                                "depth": 2,
                                                "name": "transferFrom",
                                                "value": 26895
                                            }
                                        ],
                                        "depth": 1,
                                        "name": "joinswapExternAmountIn",
                                        "value": 108721
                                    }
                                ],
                                "depth": 0,
                                "name": "Executed Gas",
                                "value": 109505
                            }
                        ],
                        "depth": -1,
                        "name": "Actual Gas Used",
                        "value": 92877
                    },
                    {
                        "children": [],
                        "depth": -1,
                        "name": "Refunded Gas",
                        "value": 38400
                    }
                ],
                "depth": -2,
                "name": "Total Gas",
                "value": 131277
            }
        ],
        "isConfirmed": true,
        "mainTrace": [
            {
                "children": [
                    {
                        "children": [
                            {
                                "children": [
                                    {
                                        "children": [],
                                        "depth": 2,
                                        "id": 2,
                                        "order": 2
                                    },
                                    {
                                        "children": [],
                                        "depth": 2,
                                        "id": 3,
                                        "order": 3
                                    },
                                    {
                                        "children": [],
                                        "depth": 2,
                                        "id": 4,
                                        "order": 4
                                    },
                                    {
                                        "children": [],
                                        "depth": 2,
                                        "id": 5,
                                        "order": 5
                                    },
                                    {
                                        "children": [
                                            {
                                                "children": [],
                                                "depth": 3,
                                                "id": 7,
                                                "order": 7
                                            },
                                            {
                                                "children": [],
                                                "depth": 3,
                                                "id": 8,
                                                "order": 8
                                            }
                                        ],
                                        "depth": 2,
                                        "id": 6,
                                        "order": 6
                                    }
                                ],
                                "depth": 1,
                                "id": 1,
                                "order": 1
                            }
                        ],
                        "depth": 0,
                        "id": 0,
                        "order": 0
                    }
                ],
                "depth": -1,
                "id": -1,
                "order": -1
            }
        ],
        "mainTraceNodeCount": 9,
        "parentIdMap": {
            "0": -1,
            "1": 0,
            "2": 1,
            "3": 1,
            "4": 1,
            "5": 1,
            "6": 1,
            "7": 6,
            "8": 6
        },
        "tidyTrace": [
            {
                "children": [
                    {
                        "children": [
                            {
                                "children": [
                                    {
                                        "children": [],
                                        "depth": 2,
                                        "id": 2,
                                        "order": 2
                                    },
                                    {
                                        "children": [],
                                        "depth": 2,
                                        "id": 3,
                                        "order": 3
                                    },
                                    {
                                        "children": [],
                                        "depth": 2,
                                        "id": 4,
                                        "order": 4
                                    },
                                    {
                                        "children": [],
                                        "depth": 2,
                                        "id": 5,
                                        "order": 5
                                    },
                                    {
                                        "children": [
                                            {
                                                "children": [],
                                                "depth": 3,
                                                "id": 7,
                                                "order": 7
                                            },
                                            {
                                                "children": [],
                                                "depth": 3,
                                                "id": 8,
                                                "order": 8
                                            }
                                        ],
                                        "depth": 2,
                                        "id": 6,
                                        "order": 6
                                    }
                                ],
                                "depth": 1,
                                "id": 1,
                                "order": 1
                            }
                        ],
                        "depth": 0,
                        "id": 0,
                        "order": 0
                    }
                ],
                "depth": -1,
                "id": -1,
                "order": -1
            }
        ],
        "tidyTraceNodeCount": 9
    },
    "state_change": {
        "stateChanges": [
            {
                "address": "0x92fbe2e54d7c8f2a0fe9206f834d5fcdcc74f218",
                "erc": "ERC-20",
                "slots": [
                    {
                        "current": "0x0000000000000000000000000000000000000000000000221cf2b5bdc6b3f839",
                        "key": "0xd486693a56c790a930b2fcdded8359ca94dda75799dd9e88dc9acd0026a76497",
                        "prev": "0x00000000000000000000000000000000000000000000001e96e45220464ff839"
                    },
                    {
                        "current": "0x000000000000000000000000000000000000000000000003f3f9be6b6cf6f260",
                        "key": "0x0000000000000000000000000000000000000000000000000000000000000002",
                        "prev": "0x000000000000000000000000000000000000000000000003be68edcc761a868b"
                    },
                    {
                        "current": "0x000000000000000000000000000000000000000000000000746f9f96f82b7c8d",
                        "key": "0x4971f48d64d7d9797c7b005fbabd1bb288662151c49ca5a719c87ccdf2b6d0ce",
                        "prev": "0x0000000000000000000000000000000000000000000000003edecef8014f10b8"
                    }
                ],
                "storageVariables": [
                    {
                        "name": "_records",
                        "type": "mapping(address => struct BPool.Record)",
                        "value": {
                            "pairs": [
                                {
                                    "key": "0x967da4048cd07ab37855c090aaf366e4ce1b9f48",
                                    "value": {
                                        "fields": [
                                            {
                                                "name": "balance",
                                                "type": "uint256",
                                                "value": {
                                                    "current": "629275227910237845561",
                                                    "prev": "564275227910237845561",
                                                    "typeTag": 1
                                                }
                                            }
                                        ],
                                        "typeTag": 3
                                    }
                                }
                            ],
                            "typeTag": 4
                        }
                    },
                    {
                        "name": "_totalSupply",
                        "type": "uint256",
                        "value": {
                            "current": "72920524210144997984",
                            "prev": "69060709948323432075",
                            "typeTag": 1
                        }
                    },
                    {
                        "name": "_balance",
                        "type": "mapping(address => uint256)",
                        "value": {
                            "pairs": [
                                {
                                    "key": "0x86e283cab263b49256924d4232532ae4531ff0bb",
                                    "value": {
                                        "current": "8390100101572033677",
                                        "prev": "4530285839750467768",
                                        "typeTag": 1
                                    }
                                }
                            ],
                            "typeTag": 4
                        }
                    }
                ]
            },
            {
                "address": "0x967da4048cd07ab37855c090aaf366e4ce1b9f48",
                "erc": "ERC-20",
                "slots": [
                    {
                        "current": "0x0000000000000000000000000000000000000000000000000000000000000000",
                        "key": "0x50de439caeb71db59eca8fdda246b32f43111918da78fa0dcd394a83726ba23c",
                        "prev": "0x000000000000000000000000000000000000000000000003860e639d80640000"
                    },
                    {
                        "current": "0x000000000000000000000000000000000000000000000017c165a8619bda8e41",
                        "key": "0xa2ff3e5ce4bed61cb7bbd2fb509f4b72698e01f45a9f892f720ad384aaf2f4da",
                        "prev": "0x00000000000000000000000000000000000000000000001b47740bff1c3e8e41"
                    },
                    {
                        "current": "0x0000000000000000000000000000000000000000000000221cf2b5bdc6b3f839",
                        "key": "0x02c615db3056cbfa3d39c28fb2013f1609b7b6aa46e4ec27efcd5d1aace1c1e7",
                        "prev": "0x00000000000000000000000000000000000000000000001e96e45220464ff839"
                    }
                ],
                "storageVariables": [
                    {
                        "name": "_allowed",
                        "type": "mapping(address => mapping(address => uint256))",
                        "value": {
                            "pairs": [
                                {
                                    "key": "0x86e283cab263b49256924d4232532ae4531ff0bb",
                                    "value": {
                                        "pairs": [
                                            {
                                                "key": "0x92fbe2e54d7c8f2a0fe9206f834d5fcdcc74f218",
                                                "value": {
                                                    "current": "0",
                                                    "prev": "65000000000000000000",
                                                    "typeTag": 1
                                                }
                                            }
                                        ],
                                        "typeTag": 4
                                    }
                                }
                            ],
                            "typeTag": 4
                        }
                    },
                    {
                        "name": "_balances",
                        "type": "mapping(address => uint256)",
                        "value": {
                            "pairs": [
                                {
                                    "key": "0x86e283cab263b49256924d4232532ae4531ff0bb",
                                    "value": {
                                        "current": "438210843454467640897",
                                        "prev": "503210843454467640897",
                                        "typeTag": 1
                                    }
                                },
                                {
                                    "key": "0x92fbe2e54d7c8f2a0fe9206f834d5fcdcc74f218",
                                    "value": {
                                        "current": "629275227910237845561",
                                        "prev": "564275227910237845561",
                                        "typeTag": 1
                                    }
                                }
                            ],
                            "typeTag": 4
                        }
                    }
                ]
            }
        ]
    }
}