{
    "balance_change": {
        "balanceChanges": [
            {
                "account": "0xcfeb6af9409a9b1b41ac764fd0748bf7b6875b86",
                "assets": [
                    {
                        "address": "0x2aa4a3e8bb72be68a31c9c3c98ca7bec723c6222",
                        "amount": "1,000,000",
                        "iconUrl": "",
                        "isERC1155": false,
                        "isERC721": false,
                        "sign": false,
                        "value": ""
                    }
                ]
            },
            {
                "account": "0xfe6f4c24e16a949af1045e36d1cbefa6923ce3ce",
                "assets": [
                    {
                        "address": "0x2aa4a3e8bb72be68a31c9c3c98ca7bec723c6222",
                        "amount": "1,000,000",
                        "iconUrl": "",
                        "isERC1155": false,
                        "isERC721": false,
                        "sign": true,
                        "value": ""
                    }
                ]
            }
        ]
    },
    "profile": {
        "basic_info": {
            "baseFee": "",
            "blockNumber": 8914513,
            "callData": "0xa9059cbb000000000000000000000000fe6f4c24e16a949af1045e36d1cbefa6923ce3ce00000000000000000000000000000000000000000000d3c21bcecceda1000000",
            "debugEnable": true,
            "errorInfo": "",
            "eventCount": 1,
            "feeRecipient": "0xa855c20a1351acd2690c716e2709c7dff3978d12",
            "formatValue": "0",
            "gasLimit": 53490,
            "gasPrice": "10",
            "gasUsed": 53490,
            "intTxnCount": 0,
            "internalRevert": false,
            "internalRevertMessage": "",
            "isContractCreation": false,
            "isFlashloan": false,
            "maxFee": "",
            "nonce": 274,
            "overwritedBlockNumber": -1,
            "priorityFee": "",
            "receiver": "0x2aa4a3e8bb72be68a31c9c3c98ca7bec723c6222",
            "revertMessage": "",
            "sender": "0xcfeb6af9409a9b1b41ac764fd0748bf7b6875b86",
            "simulationEnable": true,
            "sourceTxnHash": "0x5944b97c805dc02bd500e5d402e699827a0ba550b27aeec7c49386bd24c77288",
            "status": true,
            "timestamp": "2019-11-11T12:53:28Z",
            "transactionFee": "0.0005349",
            "txnHash": "0x5944b97c805dc02bd500e5d402e699827a0ba550b27aeec7c49386bd24c77288",
            "txnIndex": 74,
            "type": 0,
            "value": "0"
        },
        "fund_flow": [
            {
                "amount": "1,000,000",
                "from": "0xcfeb6af9409a9b1b41ac764fd0748bf7b6875b86",
                "id": 1,
                "isERC1155": false,
                "isERC721": false,
                "isReverted": false,
                "order": 1,
                "to": "0xfe6f4c24e16a949af1045e36d1cbefa6923ce3ce",
                "token": "0x2aa4a3e8bb72be68a31c9c3c98ca7bec723c6222"
            }
        ],
        "token_infos": [
            {
                "address": "0x2aa4a3e8bb72be68a31c9c3c98ca7bec723c6222",
                "decimals": 18
            },
            {
                "address": "0xc02aaa39b223fe8d0a0e5c4f27ead9083c756cc2",
                "decimals": 18
            },
            {
                "address": "0xeeeeeeeeeeeeeeeeeeeeeeeeeeeeeeeeeeeeeeee",
                "decimals": 18
            }
        ]
    },
    "address_label": {
        "labels": [
            {
                "address": "0x0000000000000000000000000000000000000002",
                "label": "Precompiled"
            },
            {
                "address": "0x0000000000000000000000000000000000000003",
                "label": "Precompiled"
            },
            {
                "address": "0x0000000000000000000000000000000000000004",
                "label": "Precompiled"
            },
            {
                "address": "0xeeeeeeeeeeeeeeeeeeeeeeeeeeeeeeeeeeeeeeee",
                "label": "Ether"
            },
            {
                "address": "0x2aa4a3e8bb72be68a31c9c3c98ca7bec723c6222",
                "label": "Bispex: BPX Token"
            },
            {
                "address": "0x0000000000000000000000000000000000000001",
                "label": "Precompiled"
            }
        ]
    },
    "trace": {
        "accountLabels": null,
        "dataMap": {
            "-1": {
                "invocation": {
                    "address": "0xcfeb6af9409a9b1b41ac764fd0748bf7b6875b86",
                    "callData": "",
                    "decodedMethod": null,
                    "errorInfo": "",
                    "fromAddress": "",
                    "gasUsed": 0,
                    "id": -1,
                    "methodDecoded": false,
                    "operation": "",
                    "output": "",
                    "revert": false,
                    "revertMessage": "",
                    "selector": "",
                    "status": false,
                    "value": ""
                },
                "nodeType": 0
            },
            "0": {
                "invocation": {
                    "address": "0x2aa4a3e8bb72be68a31c9c3c98ca7bec723c6222",
                    "callData": "0x000000000000000000000000fe6f4c24e16a949af1045e36d1cbefa6923ce3ce00000000000000000000000000000000000000000000d3c21bcecceda1000000",
                    "decodedMethod": {
                        "callParams": [
                            {
                                "name": "_to",
                                "type": "address",
                                "value": "0xfe6f4c24e16a949af1045e36d1cbefa6923ce3ce"
                            },
                            {
                                "decimalAvailable": true,
                                "name": "_value",
                                "type": "uint256",
                                "value": "1,000,000,000,000,000,000,000,000"
                            }
                        ],
                        "constructorArguments": "",
                        "name": "transfer",
                        "returnParams": [
                            {
                                "name": "",
                                "type": "bool",
                                "value": true
                            }
                        ],
                        "signature": "transfer(address,uint256)"
                    },
                    "errorInfo": "",
                    "fromAddress": "0xcfeb6af9409a9b1b41ac764fd0748bf7b6875b86",
                    "gasUsed": 53490,
                    "id": 0,
                    "methodDecoded": true,
                    "operation": "CALL",
                    "output": "0x0000000000000000000000000000000000000000000000000000000000000001",
                    "revert": false,
                    "revertMessage": "",
                    "selector": "0xa9059cbb",
                    "status": true,
                    "value": "0"
                },
                "nodeType": 0
            },
            "1": {
                "event": {
                    "contract": "0x2aa4a3e8bb72be68a31c9c3c98ca7bec723c6222",
                    "decodedLog": {
                        "name": "Transfer",
                        "params": [
                            {
                                "name": "from",
                                "type": "address",
                                "value": "0xcfeb6af9409a9b1b41ac764fd0748bf7b6875b86"
                            },
                            {
                                "name": "to",
                                "type": "address",
                                "value": "0xfe6f4c24e16a949af1045e36d1cbefa6923ce3ce"
                            },
                            {
                                "decimalAvailable": true,
                                "name": "value",
                                "type": "uint256",
                                "value": "1,000,000,000,000,000,000,000,000"
                            }
                        ],
                        "signature": "Transfer(address,address,uint256)"
                    },
                    "id": 1,
                    "logData": "0x00000000000000000000000000000000000000000000d3c21bcecceda1000000",
                    "logDecoded": true,
                    "operation": "EVENT",
                    "revert": false,
                    "status": true,
                    "topics": [
                        "0xddf252ad1be2c89b69c2b068fc378daa952ba7f163c4a11628f55a4df523b3ef",
                        "0x000000000000000000000000cfeb6af9409a9b1b41ac764fd0748bf7b6875b86",
                        "0x000000000000000000000000fe6f4c24e16a949af1045e36d1cbefa6923ce3ce"
                    ]
                },
                "nodeType": 1
            }
        },
        "gasFlame": [
            {
                "children": [
                    {
                        "children": [
                            {
                                "children": [],
                                "depth": 0,
                                "name": "Initial Gas",
                                "value": 23256
                            },
                            {
                                "children": [],
                                "depth": 0,
                                "name": "Executed Gas",
                                "value": 30234
                            }
                        ],
                        "depth": -1,
                        "name": "Actual Gas Used",
                        "value": 53490
                    },
                    {
                        "children": [],
                        "depth": -1,
                        "name": "Refunded Gas",
                        "value": 0
                    }
                ],
                "depth": -2,
                "name": "Total Gas",
                "value": 53490
            }
        ],
        "isConfirmed": true,
        "mainTrace": [
            {
                "children": [
                    {
                        "children": [
                            {
                                "children": [],
                                "depth": 1,
                                "id": 1,
                                "order": 1
                            }
                        ],
                        "depth": 0,
                        "id": 0,
                        "order": 0
                    }
                ],
                "depth": -1,
                "id": -1,
                "order": -1
            }
        ],
        "mainTraceNodeCount": 2,
        "parentIdMap": {
            "0": -1,
            "1": 0
        },
        "tidyTrace": [
            {
                "children": [
                    {
                        "children": [
                            {
                                "children": [],
                                "depth": 1,
                                "id": 1,
                                "order": 1
                            }
                        ],
                        "depth": 0,
                        "id": 0,
                        "order": 0
                    }
                ],
                "depth": -1,
                "id": -1,
                "order": -1
            }
        ],
        "tidyTraceNodeCount": 2
    },
    "state_change": {
        "stateChanges": [
            {
                "address": "0x2aa4a3e8bb72be68a31c9c3c98ca7bec723c6222",
                "erc": "ERC-20",
                "slots": [
                    {
                        "current": "0x00000000000000000000000000000000000000000000d3c21bcecceda1000000",
                        "key": "0x1a3244fd7bdbeb1d4c34884a1abe9363ceb813190f8d56e41dbe674e4edc8523",
                        "prev": "0x0000000000000000000000000000000000000000000000000000000000000000"
                    },
                    {
                        "current": "0x0000000000000000000000000000000000000000000784029303916f2d1c0000",
                        "key": "0xca215fcf9a8dc06af129f7a727d1e7c26a42d80b4bf27fc18d51537835498b61",
                        "prev": "0x0000000000000000000000000000000000000000000857c4aed25e5cce1c0000"
                    }
                ],
                "storageVariables": [
                    {
                        "name": "balanceOf",
                        "type": "mapping(address => uint256)",
                        "value": {
                            "pairs": [
                                {
                                    "key": "0xcfeb6af9409a9b1b41ac764fd0748bf7b6875b86",
                                    "value": {
                                        "current": "9085880600000000000000000",
                                        "prev": "10085880600000000000000000",
                                        "typeTag": 1
                                    }
                                },
                                {
                                    "key": "0xfe6f4c24e16a949af1045e36d1cbefa6923ce3ce",
                                    "value": {
                                        "current": "1000000000000000000000000",
                                        "prev": "0",
                                        "typeTag": 1
                                    }
                                }
                            ],
                            "typeTag": 4
                        }
                    }
                ]
            }
        ]
    }
}