{
    "balance_change": {
        "balanceChanges": [
            {
                "account": "0x359a76db7afdad46f0e2c6699ec768c1064c86ca",
                "assets": [
                    {
                        "address": "0xeeeeeeeeeeeeeeeeeeeeeeeeeeeeeeeeeeeeeeee",
                        "amount": "1.210324773016070276",
                        "iconUrl": "https://assets.blocksec.com/image/1663669189317-3.png",
                        "isERC1155": false,
                        "isERC721": false,
                        "sign": true,
                        "value": "2258.6959881248700661"
                    },
                    {
                        "address": "0x9ea3b5b4ec044b70375236a281986106457b20ef",
                        "amount": "2,293.402481686764645104",
                        "iconUrl": "",
                        "isERC1155": false,
                        "isERC721": false,
                        "sign": false,
                        "value": "11505.22551"
                    }
                ]
            },
            {
                "account": "0x1498bd576454159bb81b5ce532692a8752d163e8",
                "assets": [
                    {
                        "address": "0x9ea3b5b4ec044b70375236a281986106457b20ef",
                        "amount": "2,293.402481686764645104",
                        "iconUrl": "",
                        "isERC1155": false,
                        "isERC721": false,
                        "sign": true,
                        "value": "11505.22551"
                    },
                    {
                        "address": "0xc02aaa39b223fe8d0a0e5c4f27ead9083c756cc2",
                        "amount": "1.210324773016070276",
                        "iconUrl": "https://assets.blocksec.com/icon/f1cb2d02c471d545bbc7722daf3277fd852d98e63d118771af7047bd8256c516.png",
                        "isERC1155": false,
                        "isERC721": false,
                        "sign": false,
                        "value": "2258.6959881248700661"
                    }
                ]
            },
            {
                "account": "0xc02aaa39b223fe8d0a0e5c4f27ead9083c756cc2",
                "assets": [
                    {
                        "address": "0xeeeeeeeeeeeeeeeeeeeeeeeeeeeeeeeeeeeeeeee",
                        "amount": "1.210324773016070276",
                        "iconUrl": "https://assets.blocksec.com/image/1663669189317-3.png",
                        "isERC1155": false,
                        "isERC721": false,
                        "sign": false,
                        "value": "2258.6959881248700661"
                    },
                    {
                        "address": "0xc02aaa39b223fe8d0a0e5c4f27ead9083c756cc2",
                        "amount": "1.210324773016070276",
                        "iconUrl": "https://assets.blocksec.com/icon/f1cb2d02c471d545bbc7722daf3277fd852d98e63d118771af7047bd8256c516.png",
                        "isERC1155": false,
                        "isERC721": false,
                        "sign": true,
                        "value": "2258.6959881248700661"
                    }
                ]
            }
        ]
    },
    "profile": {
        "basic_info": {
            "baseFee": "17.899998001",
            "blockNumber": 17790859,
            "callData": "0x2646478b0000000000000000000000009ea3b5b4ec044b70375236a281986106457b20ef00000000000000000000000000000000000000000000007c535a5e2082e8eaf1000000000000000000000000eeeeeeeeeeeeeeeeeeeeeeeeeeeeeeeeeeeeeeee00000000000000000000000000000000000000000000000010c7a32f3c51d5f9000000000000000000000000359a76db7afdad46f0e2c6699ec768c1064c86ca00000000000000000000000000000000000000000000000000000000000000c00000000000000000000000000000000000000000000000000000000000000070029ea3b5b4ec044b70375236a281986106457b20ef01ffff001498bd576454159bb81b5ce532692a8752d163e801827179dd56d07a7eea32e3873493835da286697601c02aaa39b223fe8d0a0e5c4f27ead9083c756cc201ffff0200359a76db7afdad46f0e2c6699ec768c1064c86ca00000000000000000000000000000000",
            "debugEnable": true,
            "errorInfo": "",
            "eventCount": 7,
            "feeRecipient": "0x95222290dd7278aa3ddd389cc1e1d165cc4bafe5",
            "formatValue": "0",
            "gasLimit": 242467,
            "gasPrice": "17.999998001",
            "gasUsed": 177122,
            "intTxnCount": 25,
            "internalRevert": false,
            "internalRevertMessage": "",
            "isContractCreation": false,
            "isFlashloan": false,
            "maxFee": "18",
            "nonce": 8543,
            "overwritedBlockNumber": -1,
            "priorityFee": "0.1",
            "receiver": "0x827179dd56d07a7eea32e3873493835da2866976",
            "revertMessage": "",
            "sender": "0x359a76db7afdad46f0e2c6699ec768c1064c86ca",
            "simulationEnable": true,
            "sourceTxnHash": "0x5a4fedc98fd7fe37477e23511757ef26d668cd96e3fa9904e01f2d7cfc5dcc9b",
            "status": true,
            "timestamp": "2023-07-28T10:07:47Z",
            "transactionFee": "0.003188195645933122",
            "txnHash": "0x5a4fedc98fd7fe37477e23511757ef26d668cd96e3fa9904e01f2d7cfc5dcc9b",
            "txnIndex": 109,
            "type": 2,
            "value": "0"
        },
        "fund_flow": [
            {
                "amount": "2,293.402481686764645104",
                "from": "0x359a76db7afdad46f0e2c6699ec768c1064c86ca",
                "id": 1,
                "isERC1155": false,
                "isERC721": false,
                "isReverted": false,
                "order": 1,
                "to": "0x1498bd576454159bb81b5ce532692a8752d163e8",
                "token": "0x9ea3b5b4ec044b70375236a281986106457b20ef"
            },
            {
                "amount": "1.210324773016070276",
                "from": "0x1498bd576454159bb81b5ce532692a8752d163e8",
                "id": 2,
                "isERC1155": false,
                "isERC721": false,
                "isReverted": false,
                "order": 2,
                "to": "0x827179dd56d07a7eea32e3873493835da2866976",
                "token": "0xc02aaa39b223fe8d0a0e5c4f27ead9083c756cc2"
            },
            {
                "amount": "1.210324773016070276",
                "from": "0xc02aaa39b223fe8d0a0e5c4f27ead9083c756cc2",
                "id": 3,
                "isERC1155": false,
                "isERC721": false,
                "isReverted": false,
                "order": 3,
                "to": "0x827179dd56d07a7eea32e3873493835da2866976",
                "token": "0xeeeeeeeeeeeeeeeeeeeeeeeeeeeeeeeeeeeeeeee"
            },
            {
                "amount": "1.210324773016070276",
                "from": "0x827179dd56d07a7eea32e3873493835da2866976",
                "id": 4,
                "isERC1155": false,
                "isERC721": false,
                "isReverted": false,
                "order": 4,
                "to": "0xc02aaa39b223fe8d0a0e5c4f27ead9083c756cc2",
                "token": "0xc02aaa39b223fe8d0a0e5c4f27ead9083c756cc2"
            },
            {
                "amount": "1.210324773016070276",
                "from": "0x827179dd56d07a7eea32e3873493835da2866976",
                "id": 5,
                "isERC1155": false,
                "isERC721": false,
                "isReverted": false,
                "order": 5,
                "to": "0x359a76db7afdad46f0e2c6699ec768c1064c86ca",
                "token": "0xeeeeeeeeeeeeeeeeeeeeeeeeeeeeeeeeeeeeeeee"
            }
        ],
        "token_infos": [
            {
                "address": "0xc02aaa39b223fe8d0a0e5c4f27ead9083c756cc2",
                "decimals": 18
            },
            {
                "address": "0xeeeeeeeeeeeeeeeeeeeeeeeeeeeeeeeeeeeeeeee",
                "decimals": 18
            },
            {
                "address": "0x9ea3b5b4ec044b70375236a281986106457b20ef",
                "decimals": 18
            }
        ]
    },
    "address_label": {
        "labels": [
            {
                "address": "0x0000000000000000000000000000000000000001",
                "label": "Precompiled"
            },
            {
                "address": "0xeeeeeeeeeeeeeeeeeeeeeeeeeeeeeeeeeeeeeeee",
                "label": "Ether"
            },
            {
                "address": "0x1498bd576454159bb81b5ce532692a8752d163e8",
                "label": "SushiSwap: DELTA"
            },
            {
                "address": "0x9ea3b5b4ec044b70375236a281986106457b20ef",
                "label": "Delta: DELTA Token"
            },
            {
                "address": "0xc02aaa39b223fe8d0a0e5c4f27ead9083c756cc2",
                "label": "Wrapped Ether (WETH)"
            },
            {
                "address": "0x867dacc8bca7c6339cbdeb9a536507a7d7058634",
                "label": "OVLBalanceHandler"
            },
            {
                "address": "0x9e349ff624e8872afaefd3d25c4e5666011a67a5",
                "label": "OVLTransferHandler"
            },
            {
                "address": "0x827179dd56d07a7eea32e3873493835da2866976",
                "label": "RouteProcessor3"
            },
            {
                "address": "0x0000000000000000000000000000000000000002",
                "label": "Precompiled"
            },
            {
                "address": "0x0000000000000000000000000000000000000003",
                "label": "Precompiled"
            },
            {
                "address": "0x0000000000000000000000000000000000000004",
                "label": "Precompiled"
            }
        ]
    },
    "trace": {
        "accountLabels": null,
        "dataMap": {
            "-1": {
                "invocation": {
                    "address": "0x359a76db7afdad46f0e2c6699ec768c1064c86ca",
                    "callData": "",
                    "decodedMethod": null,
                    "errorInfo": "",
                    "fromAddress": "",
                    "gasUsed": 0,
                    "id": -1,
                    "methodDecoded": false,
                    "operation": "",
                    "output": "",
                    "revert": false,
                    "revertMessage": "",
                    "selector": "",
                    "status": false,
                    "value": ""
                },
                "nodeType": 0
            },
            "0": {
                "invocation": {
                    "address": "0x827179dd56d07a7eea32e3873493835da2866976",
                    "callData": "0x0000000000000000000000009ea3b5b4ec044b70375236a281986106457b20ef00000000000000000000000000000000000000000000007c535a5e2082e8eaf1000000000000000000000000eeeeeeeeeeeeeeeeeeeeeeeeeeeeeeeeeeeeeeee00000000000000000000000000000000000000000000000010c7a32f3c51d5f9000000000000000000000000359a76db7afdad46f0e2c6699ec768c1064c86ca00000000000000000000000000000000000000000000000000000000000000c00000000000000000000000000000000000000000000000000000000000000070029ea3b5b4ec044b70375236a281986106457b20ef01ffff001498bd576454159bb81b5ce532692a8752d163e801827179dd56d07a7eea32e3873493835da286697601c02aaa39b223fe8d0a0e5c4f27ead9083c756cc201ffff0200359a76db7afdad46f0e2c6699ec768c1064c86ca00000000000000000000000000000000",
                    "decodedMethod": {
                        "callParams": [
                            {
                                "name": "tokenIn",
                                "type": "address",
                                "value": "0x9ea3b5b4ec044b70375236a281986106457b20ef"
                            },
                            {
                                "name": "amountIn",
                                "type": "uint256",
                                "value": "2,293,402,481,686,764,645,105"
                            },
                            {
                                "name": "tokenOut",
                                "type": "address",
                                "value": "0xeeeeeeeeeeeeeeeeeeeeeeeeeeeeeeeeeeeeeeee"
                            },
                            {
                                "name": "amountOutMin",
                                "type": "uint256",
                                "value": "1,209,114,448,243,054,073"
                            },
                            {
                                "name": "to",
                                "type": "address",
                                "value": "0x359a76db7afdad46f0e2c6699ec768c1064c86ca"
                            },
                            {
                                "name": "route",
                                "type": "bytes",
                                "value": "0x029ea3b5b4ec044b70375236a281986106457b20ef01ffff001498bd576454159bb81b5ce532692a8752d163e801827179dd56d07a7eea32e3873493835da286697601c02aaa39b223fe8d0a0e5c4f27ead9083c756cc201ffff0200359a76db7afdad46f0e2c6699ec768c1064c86ca"
                            }
                        ],
                        "constructorArguments": "",
                        "name": "processRoute",
                        "returnParams": [
                            {
                                "name": "amountOut",
                                "type": "uint256",
                                "value": "1,210,324,773,016,070,276"
                            }
                        ],
                        "signature": "processRoute(address,uint256,address,uint256,address,bytes)"
                    },
                    "errorInfo": "",
                    "fromAddress": "0x359a76db7afdad46f0e2c6699ec768c1064c86ca",
                    "gasUsed": 177122,
                    "id": 0,
                    "methodDecoded": true,
                    "operation": "CALL",
                    "output": "0x00000000000000000000000000000000000000000000000010cbeff7ee7a6884",
                    "revert": false,
                    "revertMessage": "",
                    "selector": "0x2646478b",
                    "status": true,
                    "value": "0"
                },
                "nodeType": 0
            },
            "1": {
                "invocation": {
                    "address": "0x9ea3b5b4ec044b70375236a281986106457b20ef",
                    "callData": "0x000000000000000000000000359a76db7afdad46f0e2c6699ec768c1064c86ca",
                    "decodedMethod": {
                        "callParams": [
                            {
                                "name": "account",
                                "type": "address",
                                "value": "0x359a76db7afdad46f0e2c6699ec768c1064c86ca"
                            }
                        ],
                        "constructorArguments": "",
                        "name": "balanceOf",
                        "returnParams": [
                            {
                                "decimalAvailable": true,
                                "name": "",
                                "type": "uint256",
                                "value": "2,293,402,481,686,764,645,105"
                            }
                        ],
                        "signature": "balanceOf(address)"
                    },
                    "errorInfo": "",
                    "fromAddress": "0x827179dd56d07a7eea32e3873493835da2866976",
                    "gasUsed": 24875,
                    "id": 1,
                    "methodDecoded": true,
                    "operation": "STATICCALL",
                    "output": "0x00000000000000000000000000000000000000000000007c535a5e2082e8eaf1",
                    "revert": false,
                    "revertMessage": "",
                    "selector": "0x70a08231",
                    "status": true,
                    "value": "0"
                },
                "nodeType": 0
            },
            "10": {
                "event": {
                    "contract": "0x9ea3b5b4ec044b70375236a281986106457b20ef",
                    "decodedLog": {
                        "name": "Approval",
                        "params": [
                            {
                                "name": "owner",
                                "type": "address",
                                "value": "0x359a76db7afdad46f0e2c6699ec768c1064c86ca"
                            },
                            {
                                "name": "spender",
                                "type": "address",
                                "value": "0x827179dd56d07a7eea32e3873493835da2866976"
                            },
                            {
                                "decimalAvailable": true,
                                "name": "value",
                                "type": "uint256",
                                "value": "0"
                            }
                        ],
                        "signature": "Approval(address,address,uint256)"
                    },
                    "id": 10,
                    "logData": "0x0000000000000000000000000000000000000000000000000000000000000000",
                    "logDecoded": true,
                    "operation": "EVENT",
                    "revert": false,
                    "status": true,
                    "topics": [
                        "0x8c5be1e5ebec7d5bd14f71427d1e84f3dd0314c0f7b2291e5b200ac8c7c3b925",
                        "0x000000000000000000000000359a76db7afdad46f0e2c6699ec768c1064c86ca",
                        "0x000000000000000000000000827179dd56d07a7eea32e3873493835da2866976"
                    ]
                },
                "nodeType": 1
            },
            "11": {
                "invocation": {
                    "address": "0x1498bd576454159bb81b5ce532692a8752d163e8",
                    "callData": "0x000000000000000000000000000000000000000000000000000000000000000000000000000000000000000000000000000000000000000010cbeff7ee7a6884000000000000000000000000827179dd56d07a7eea32e3873493835da286697600000000000000000000000000000000000000000000000000000000000000800000000000000000000000000000000000000000000000000000000000000000",
                    "decodedMethod": {
                        "callParams": [
                            {
                                "name": "amount0Out",
                                "type": "uint256",
                                "value": "0"
                            },
                            {
                                "name": "amount1Out",
                                "type": "uint256",
                                "value": "1,210,324,773,016,070,276"
                            },
                            {
                                "name": "to",
                                "type": "address",
                                "value": "0x827179dd56d07a7eea32e3873493835da2866976"
                            },
                            {
                                "name": "data",
                                "type": "bytes",
                                "value": "0x"
                            }
                        ],
                        "constructorArguments": "",
                        "name": "swap",
                        "returnParams": [],
                        "signature": "swap(uint256,uint256,address,bytes)"
                    },
                    "errorInfo": "",
                    "fromAddress": "0x827179dd56d07a7eea32e3873493835da2866976",
                    "gasUsed": 56980,
                    "id": 11,
                    "methodDecoded": true,
                    "operation": "CALL",
                    "output": "",
                    "revert": false,
                    "revertMessage": "",
                    "selector": "0x022c0d9f",
                    "status": true,
                    "value": "0"
                },
                "nodeType": 0
            },
            "12": {
                "invocation": {
                    "address": "0xc02aaa39b223fe8d0a0e5c4f27ead9083c756cc2",
                    "callData": "0x000000000000000000000000827179dd56d07a7eea32e3873493835da286697600000000000000000000000000000000000000000000000010cbeff7ee7a6884",
                    "decodedMethod": {
                        "callParams": [
                            {
                                "name": "dst",
                                "type": "address",
                                "value": "0x827179dd56d07a7eea32e3873493835da2866976"
                            },
                            {
                                "decimalAvailable": true,
                                "name": "wad",
                                "type": "uint256",
                                "value": "1,210,324,773,016,070,276"
                            }
                        ],
                        "constructorArguments": "",
                        "name": "transfer",
                        "returnParams": [
                            {
                                "name": "",
                                "type": "bool",
                                "value": true
                            }
                        ],
                        "signature": "transfer(address,uint256)"
                    },
                    "errorInfo": "",
                    "fromAddress": "0x1498bd576454159bb81b5ce532692a8752d163e8",
                    "gasUsed": 12862,
                    "id": 12,
                    "methodDecoded": true,
                    "operation": "CALL",
                    "output": "0x0000000000000000000000000000000000000000000000000000000000000001",
                    "revert": false,
                    "revertMessage": "",
                    "selector": "0xa9059cbb",
                    "status": true,
                    "value": "0"
                },
                "nodeType": 0
            },
            "13": {
                "event": {
                    "contract": "0xc02aaa39b223fe8d0a0e5c4f27ead9083c756cc2",
                    "decodedLog": {
                        "name": "Transfer",
                        "params": [
                            {
                                "name": "src",
                                "type": "address",
                                "value": "0x1498bd576454159bb81b5ce532692a8752d163e8"
                            },
                            {
                                "name": "dst",
                                "type": "address",
                                "value": "0x827179dd56d07a7eea32e3873493835da2866976"
                            },
                            {
                                "decimalAvailable": true,
                                "name": "wad",
                                "type": "uint256",
                                "value": "1,210,324,773,016,070,276"
                            }
                        ],
                        "signature": "Transfer(address,address,uint256)"
                    },
                    "id": 13,
                    "logData": "0x00000000000000000000000000000000000000000000000010cbeff7ee7a6884",
                    "logDecoded": true,
                    "operation": "EVENT",
                    "revert": false,
                    "status": true,
                    "topics": [
                        "0xddf252ad1be2c89b69c2b068fc378daa952ba7f163c4a11628f55a4df523b3ef",
                        "0x0000000000000000000000001498bd576454159bb81b5ce532692a8752d163e8",
                        "0x000000000000000000000000827179dd56d07a7eea32e3873493835da2866976"
                    ]
                },
                "nodeType": 1
            },
            "14": {
                "invocation": {
                    "address": "0x9ea3b5b4ec044b70375236a281986106457b20ef",
                    "callData": "0x0000000000000000000000001498bd576454159bb81b5ce532692a8752d163e8",
                    "decodedMethod": {
                        "callParams": [
                            {
                                "name": "account",
                                "type": "address",
                                "value": "0x1498bd576454159bb81b5ce532692a8752d163e8"
                            }
                        ],
                        "constructorArguments": "",
                        "name": "balanceOf",
                        "returnParams": [
                            {
                                "decimalAvailable": true,
                                "name": "",
                                "type": "uint256",
                                "value": "3,599,519,168,859,324,918,779,829"
                            }
                        ],
                        "signature": "balanceOf(address)"
                    },
                    "errorInfo": "",
                    "fromAddress": "0x1498bd576454159bb81b5ce532692a8752d163e8",
                    "gasUsed": 9388,
                    "id": 14,
                    "methodDecoded": true,
                    "operation": "STATICCALL",
                    "output": "0x00000000000000000000000000000000000000000002fa3a533c4fa675e7cfb5",
                    "revert": false,
                    "revertMessage": "",
                    "selector": "0x70a08231",
                    "status": true,
                    "value": "0"
                },
                "nodeType": 0
            },
            "15": {
                "invocation": {
                    "address": "0x867dacc8bca7c6339cbdeb9a536507a7d7058634",
                    "callData": "0x0000000000000000000000001498bd576454159bb81b5ce532692a8752d163e80000000000000000000000001498bd576454159bb81b5ce532692a8752d163e8",
                    "decodedMethod": {
                        "callParams": [
                            {
                                "name": "account",
                                "type": "address",
                                "value": "0x1498bd576454159bb81b5ce532692a8752d163e8"
                            },
                            {
                                "name": "sender",
                                "type": "address",
                                "value": "0x1498bd576454159bb81b5ce532692a8752d163e8"
                            }
                        ],
                        "constructorArguments": "",
                        "name": "handleBalanceCalculations",
                        "returnParams": [
                            {
                                "name": "",
                                "type": "uint256",
                                "value": "3,599,519,168,859,324,918,779,829"
                            }
                        ],
                        "signature": "handleBalanceCalculations(address,address)"
                    },
                    "errorInfo": "",
                    "fromAddress": "0x9ea3b5b4ec044b70375236a281986106457b20ef",
                    "gasUsed": 8203,
                    "id": 15,
                    "methodDecoded": true,
                    "operation": "STATICCALL",
                    "output": "0x00000000000000000000000000000000000000000002fa3a533c4fa675e7cfb5",
                    "revert": false,
                    "revertMessage": "",
                    "selector": "0x4b67fcbf",
                    "status": true,
                    "value": "0"
                },
                "nodeType": 0
            },
            "16": {
                "invocation": {
                    "address": "0x9ea3b5b4ec044b70375236a281986106457b20ef",
                    "callData": "0x0000000000000000000000001498bd576454159bb81b5ce532692a8752d163e8",
                    "decodedMethod": {
                        "callParams": [
                            {
                                "name": "user",
                                "type": "address",
                                "value": "0x1498bd576454159bb81b5ce532692a8752d163e8"
                            }
                        ],
                        "constructorArguments": "",
                        "name": "userInformation",
                        "returnParams": [
                            {
                                "name": "",
                                "type": "(uint256,uint256,uint256,uint256,bool,bool,bool)",
                                "value": [
                                    {
                                        "name": "mostMatureTxIndex",
                                        "type": "uint256",
                                        "value": "0"
                                    },
                                    {
                                        "name": "lastInTxIndex",
                                        "type": "uint256",
                                        "value": "0"
                                    },
                                    {
                                        "name": "maturedBalance",
                                        "type": "uint256",
                                        "value": "3,599,519,168,859,324,918,779,829"
                                    },
                                    {
                                        "name": "maxBalance",
                                        "type": "uint256",
                                        "value": "3,599,519,168,859,324,918,779,829"
                                    },
                                    {
                                        "name": "fullSenderWhitelisted",
                                        "type": "bool",
                                        "value": false
                                    },
                                    {
                                        "name": "immatureReceiverWhitelisted",
                                        "type": "bool",
                                        "value": false
                                    },
                                    {
                                        "name": "noVestingWhitelisted",
                                        "type": "bool",
                                        "value": true
                                    }
                                ]
                            }
                        ],
                        "signature": "userInformation(address)"
                    },
                    "errorInfo": "",
                    "fromAddress": "0x867dacc8bca7c6339cbdeb9a536507a7d7058634",
                    "gasUsed": 3688,
                    "id": 16,
                    "methodDecoded": true,
                    "operation": "STATICCALL",
                    "output": "0x0000000000000000000000000000000000000000000000000000000000000000000000000000000000000000000000000000000000000000000000000000000000000000000000000000000000000000000000000002fa3a533c4fa675e7cfb500000000000000000000000000000000000000000002fa3a533c4fa675e7cfb5000000000000000000000000000000000000000000000000000000000000000000000000000000000000000000000000000000000000000000000000000000000000000000000000000000000000000000000000000000000000000000000001",
                    "revert": false,
                    "revertMessage": "",
                    "selector": "0x7d2e227d",
                    "status": true,
                    "value": "0"
                },
                "nodeType": 0
            },
            "17": {
                "invocation": {
                    "address": "0x9ea3b5b4ec044b70375236a281986106457b20ef",
                    "callData": "0x",
                    "decodedMethod": {
                        "callParams": [],
                        "constructorArguments": "",
                        "name": "liquidityRebasingPermitted",
                        "returnParams": [
                            {
                                "name": "",
                                "type": "bool",
                                "value": false
                            }
                        ],
                        "signature": "liquidityRebasingPermitted()"
                    },
                    "errorInfo": "",
                    "fromAddress": "0x867dacc8bca7c6339cbdeb9a536507a7d7058634",
                    "gasUsed": 408,
                    "id": 17,
                    "methodDecoded": true,
                    "operation": "STATICCALL",
                    "output": "0x0000000000000000000000000000000000000000000000000000000000000000",
                    "revert": false,
                    "revertMessage": "",
                    "selector": "0x61fe09d0",
                    "status": true,
                    "value": "0"
                },
                "nodeType": 0
            },
            "18": {
                "invocation": {
                    "address": "0x9ea3b5b4ec044b70375236a281986106457b20ef",
                    "callData": "0x",
                    "decodedMethod": {
                        "callParams": [],
                        "constructorArguments": "",
                        "name": "lpTokensInPair",
                        "returnParams": [
                            {
                                "name": "",
                                "type": "uint256",
                                "value": "0"
                            }
                        ],
                        "signature": "lpTokensInPair()"
                    },
                    "errorInfo": "",
                    "fromAddress": "0x867dacc8bca7c6339cbdeb9a536507a7d7058634",
                    "gasUsed": 395,
                    "id": 18,
                    "methodDecoded": true,
                    "operation": "STATICCALL",
                    "output": "0x0000000000000000000000000000000000000000000000000000000000000000",
                    "revert": false,
                    "revertMessage": "",
                    "selector": "0x49e2f838",
                    "status": true,
                    "value": "0"
                },
                "nodeType": 0
            },
            "19": {
                "invocation": {
                    "address": "0x1498bd576454159bb81b5ce532692a8752d163e8",
                    "callData": "0x0000000000000000000000001498bd576454159bb81b5ce532692a8752d163e8",
                    "decodedMethod": {
                        "callParams": [
                            {
                                "name": "",
                                "type": "address",
                                "value": "0x1498bd576454159bb81b5ce532692a8752d163e8"
                            }
                        ],
                        "constructorArguments": "",
                        "name": "balanceOf",
                        "returnParams": [
                            {
                                "decimalAvailable": true,
                                "name": "",
                                "type": "uint256",
                                "value": "0"
                            }
                        ],
                        "signature": "balanceOf(address)"
                    },
                    "errorInfo": "",
                    "fromAddress": "0x867dacc8bca7c6339cbdeb9a536507a7d7058634",
                    "gasUsed": 492,
                    "id": 19,
                    "methodDecoded": true,
                    "operation": "STATICCALL",
                    "output": "0x0000000000000000000000000000000000000000000000000000000000000000",
                    "revert": false,
                    "revertMessage": "",
                    "selector": "0x70a08231",
                    "status": true,
                    "value": "0"
                },
                "nodeType": 0
            },
            "2": {
                "invocation": {
                    "address": "0x867dacc8bca7c6339cbdeb9a536507a7d7058634",
                    "callData": "0x000000000000000000000000359a76db7afdad46f0e2c6699ec768c1064c86ca000000000000000000000000827179dd56d07a7eea32e3873493835da2866976",
                    "decodedMethod": {
                        "callParams": [
                            {
                                "name": "account",
                                "type": "address",
                                "value": "0x359a76db7afdad46f0e2c6699ec768c1064c86ca"
                            },
                            {
                                "name": "sender",
                                "type": "address",
                                "value": "0x827179dd56d07a7eea32e3873493835da2866976"
                            }
                        ],
                        "constructorArguments": "",
                        "name": "handleBalanceCalculations",
                        "returnParams": [
                            {
                                "name": "",
                                "type": "uint256",
                                "value": "2,293,402,481,686,764,645,105"
                            }
                        ],
                        "signature": "handleBalanceCalculations(address,address)"
                    },
                    "errorInfo": "",
                    "fromAddress": "0x9ea3b5b4ec044b70375236a281986106457b20ef",
                    "gasUsed": 19190,
                    "id": 2,
                    "methodDecoded": true,
                    "operation": "STATICCALL",
                    "output": "0x00000000000000000000000000000000000000000000007c535a5e2082e8eaf1",
                    "revert": false,
                    "revertMessage": "",
                    "selector": "0x4b67fcbf",
                    "status": true,
                    "value": "0"
                },
                "nodeType": 0
            },
            "20": {
                "invocation": {
                    "address": "0xc02aaa39b223fe8d0a0e5c4f27ead9083c756cc2",
                    "callData": "0x0000000000000000000000001498bd576454159bb81b5ce532692a8752d163e8",
                    "decodedMethod": {
                        "callParams": [
                            {
                                "name": "",
                                "type": "address",
                                "value": "0x1498bd576454159bb81b5ce532692a8752d163e8"
                            }
                        ],
                        "constructorArguments": "",
                        "name": "balanceOf",
                        "returnParams": [
                            {
                                "decimalAvailable": true,
                                "name": "",
                                "type": "uint256",
                                "value": "1,904,119,416,734,070,439,327"
                            }
                        ],
                        "signature": "balanceOf(address)"
                    },
                    "errorInfo": "",
                    "fromAddress": "0x1498bd576454159bb81b5ce532692a8752d163e8",
                    "gasUsed": 534,
                    "id": 20,
                    "methodDecoded": true,
                    "operation": "STATICCALL",
                    "output": "0x00000000000000000000000000000000000000000000006738f7191006417d9f",
                    "revert": false,
                    "revertMessage": "",
                    "selector": "0x70a08231",
                    "status": true,
                    "value": "0"
                },
                "nodeType": 0
            },
            "21": {
                "event": {
                    "contract": "0x1498bd576454159bb81b5ce532692a8752d163e8",
                    "decodedLog": {
                        "name": "Sync",
                        "params": [
                            {
                                "name": "reserve0",
                                "type": "uint112",
                                "value": "3,599,519,168,859,324,918,779,829"
                            },
                            {
                                "name": "reserve1",
                                "type": "uint112",
                                "value": "1,904,119,416,734,070,439,327"
                            }
                        ],
                        "signature": "Sync(uint112,uint112)"
                    },
                    "id": 21,
                    "logData": "0x00000000000000000000000000000000000000000002fa3a533c4fa675e7cfb500000000000000000000000000000000000000000000006738f7191006417d9f",
                    "logDecoded": true,
                    "operation": "EVENT",
                    "revert": false,
                    "status": true,
                    "topics": [
                        "0x1c411e9a96e071241c2f21f7726b17ae89e3cab4c78be50e062b03a9fffbbad1"
                    ]
                },
                "nodeType": 1
            },
            "22": {
                "event": {
                    "contract": "0x1498bd576454159bb81b5ce532692a8752d163e8",
                    "decodedLog": {
                        "name": "Swap",
                        "params": [
                            {
                                "name": "sender",
                                "type": "address",
                                "value": "0x827179dd56d07a7eea32e3873493835da2866976"
                            },
                            {
                                "name": "to",
                                "type": "address",
                                "value": "0x827179dd56d07a7eea32e3873493835da2866976"
                            },
                            {
                                "name": "amount0In",
                                "type": "uint256",
                                "value": "2,293,402,481,686,764,645,105"
                            },
                            {
                                "name": "amount1In",
                                "type": "uint256",
                                "value": "0"
                            },
                            {
                                "name": "amount0Out",
                                "type": "uint256",
                                "value": "0"
                            },
                            {
                                "name": "amount1Out",
                                "type": "uint256",
                                "value": "1,210,324,773,016,070,276"
                            }
                        ],
                        "signature": "Swap(address,uint256,uint256,uint256,uint256,address)"
                    },
                    "id": 22,
                    "logData": "0x00000000000000000000000000000000000000000000007c535a5e2082e8eaf10000000000000000000000000000000000000000000000000000000000000000000000000000000000000000000000000000000000000000000000000000000000000000000000000000000000000000000000000000000010cbeff7ee7a6884",
                    "logDecoded": true,
                    "operation": "EVENT",
                    "revert": false,
                    "status": true,
                    "topics": [
                        "0xd78ad95fa46c994b6551d0da85fc275fe613ce37657fb8d5e3d130840159d822",
                        "0x000000000000000000000000827179dd56d07a7eea32e3873493835da2866976",
                        "0x000000000000000000000000827179dd56d07a7eea32e3873493835da2866976"
                    ]
                },
                "nodeType": 1
            },
            "23": {
                "invocation": {
                    "address": "0xc02aaa39b223fe8d0a0e5c4f27ead9083c756cc2",
                    "callData": "0x000000000000000000000000827179dd56d07a7eea32e3873493835da2866976",
                    "decodedMethod": {
                        "callParams": [
                            {
                                "name": "",
                                "type": "address",
                                "value": "0x827179dd56d07a7eea32e3873493835da2866976"
                            }
                        ],
                        "constructorArguments": "",
                        "name": "balanceOf",
                        "returnParams": [
                            {
                                "decimalAvailable": true,
                                "name": "",
                                "type": "uint256",
                                "value": "1,210,324,773,016,070,277"
                            }
                        ],
                        "signature": "balanceOf(address)"
                    },
                    "errorInfo": "",
                    "fromAddress": "0x827179dd56d07a7eea32e3873493835da2866976",
                    "gasUsed": 534,
                    "id": 23,
                    "methodDecoded": true,
                    "operation": "STATICCALL",
                    "output": "0x00000000000000000000000000000000000000000000000010cbeff7ee7a6885",
                    "revert": false,
                    "revertMessage": "",
                    "selector": "0x70a08231",
                    "status": true,
                    "value": "0"
                },
                "nodeType": 0
            },
            "24": {
                "invocation": {
                    "address": "0xc02aaa39b223fe8d0a0e5c4f27ead9083c756cc2",
                    "callData": "0x00000000000000000000000000000000000000000000000010cbeff7ee7a6884",
                    "decodedMethod": {
                        "callParams": [
                            {
                                "name": "wad",
                                "type": "uint256",
                                "value": "1,210,324,773,016,070,276"
                            }
                        ],
                        "constructorArguments": "",
                        "name": "withdraw",
                        "returnParams": [],
                        "signature": "withdraw(uint256)"
                    },
                    "errorInfo": "",
                    "fromAddress": "0x827179dd56d07a7eea32e3873493835da2866976",
                    "gasUsed": 9195,
                    "id": 24,
                    "methodDecoded": true,
                    "operation": "CALL",
                    "output": "",
                    "revert": false,
                    "revertMessage": "",
                    "selector": "0x2e1a7d4d",
                    "status": true,
                    "value": "0"
                },
                "nodeType": 0
            },
            "25": {
                "invocation": {
                    "address": "0x827179dd56d07a7eea32e3873493835da2866976",
                    "callData": "0x",
                    "decodedMethod": null,
                    "errorInfo": "",
                    "fromAddress": "0xc02aaa39b223fe8d0a0e5c4f27ead9083c756cc2",
                    "gasUsed": 55,
                    "id": 25,
                    "methodDecoded": false,
                    "operation": "CALL",
                    "output": "",
                    "revert": false,
                    "revertMessage": "",
                    "selector": "fallback",
                    "status": true,
                    "value": "1.210324773016070276"
                },
                "nodeType": 0
            },
            "26": {
                "event": {
                    "contract": "0xc02aaa39b223fe8d0a0e5c4f27ead9083c756cc2",
                    "decodedLog": {
                        "name": "Withdrawal",
                        "params": [
                            {
                                "name": "src",
                                "type": "address",
                                "value": "0x827179dd56d07a7eea32e3873493835da2866976"
                            },
                            {
                                "name": "wad",
                                "type": "uint256",
                                "value": "1,210,324,773,016,070,276"
                            }
                        ],
                        "signature": "Withdrawal(address,uint256)"
                    },
                    "id": 26,
                    "logData": "0x00000000000000000000000000000000000000000000000010cbeff7ee7a6884",
                    "logDecoded": true,
                    "operation": "EVENT",
                    "revert": false,
                    "status": true,
                    "topics": [
                        "0x7fcf532c15f0a6db0bd6d0e038bea71d30d808c7d98cb3bf7268a95bf5081b65",
                        "0x000000000000000000000000827179dd56d07a7eea32e3873493835da2866976"
                    ]
                },
                "nodeType": 1
            },
            "27": {
                "invocation": {
                    "address": "0x359a76db7afdad46f0e2c6699ec768c1064c86ca",
                    "callData": "0x",
                    "decodedMethod": null,
                    "errorInfo": "",
                    "fromAddress": "0x827179dd56d07a7eea32e3873493835da2866976",
                    "gasUsed": 0,
                    "id": 27,
                    "methodDecoded": false,
                    "operation": "CALL",
                    "output": "",
                    "revert": false,
                    "revertMessage": "",
                    "selector": "fallback",
                    "status": true,
                    "value": "1.210324773016070276"
                },
                "nodeType": 0
            },
            "28": {
                "invocation": {
                    "address": "0x9ea3b5b4ec044b70375236a281986106457b20ef",
                    "callData": "0x000000000000000000000000359a76db7afdad46f0e2c6699ec768c1064c86ca",
                    "decodedMethod": {
                        "callParams": [
                            {
                                "name": "account",
                                "type": "address",
                                "value": "0x359a76db7afdad46f0e2c6699ec768c1064c86ca"
                            }
                        ],
                        "constructorArguments": "",
                        "name": "balanceOf",
                        "returnParams": [
                            {
                                "decimalAvailable": true,
                                "name": "",
                                "type": "uint256",
                                "value": "0"
                            }
                        ],
                        "signature": "balanceOf(address)"
                    },
                    "errorInfo": "",
                    "fromAddress": "0x827179dd56d07a7eea32e3873493835da2866976",
                    "gasUsed": 6375,
                    "id": 28,
                    "methodDecoded": true,
                    "operation": "STATICCALL",
                    "output": "0x0000000000000000000000000000000000000000000000000000000000000000",
                    "revert": false,
                    "revertMessage": "",
                    "selector": "0x70a08231",
                    "status": true,
                    "value": "0"
                },
                "nodeType": 0
            },
            "29": {
                "invocation": {
                    "address": "0x867dacc8bca7c6339cbdeb9a536507a7d7058634",
                    "callData": "0x000000000000000000000000359a76db7afdad46f0e2c6699ec768c1064c86ca000000000000000000000000827179dd56d07a7eea32e3873493835da2866976",
                    "decodedMethod": {
                        "callParams": [
                            {
                                "name": "account",
                                "type": "address",
                                "value": "0x359a76db7afdad46f0e2c6699ec768c1064c86ca"
                            },
                            {
                                "name": "sender",
                                "type": "address",
                                "value": "0x827179dd56d07a7eea32e3873493835da2866976"
                            }
                        ],
                        "constructorArguments": "",
                        "name": "handleBalanceCalculations",
                        "returnParams": [
                            {
                                "name": "",
                                "type": "uint256",
                                "value": "0"
                            }
                        ],
                        "signature": "handleBalanceCalculations(address,address)"
                    },
                    "errorInfo": "",
                    "fromAddress": "0x9ea3b5b4ec044b70375236a281986106457b20ef",
                    "gasUsed": 5190,
                    "id": 29,
                    "methodDecoded": true,
                    "operation": "STATICCALL",
                    "output": "0x0000000000000000000000000000000000000000000000000000000000000000",
                    "revert": false,
                    "revertMessage": "",
                    "selector": "0x4b67fcbf",
                    "status": true,
                    "value": "0"
                },
                "nodeType": 0
            },
            "3": {
                "invocation": {
                    "address": "0x9ea3b5b4ec044b70375236a281986106457b20ef",
                    "callData": "0x000000000000000000000000359a76db7afdad46f0e2c6699ec768c1064c86ca",
                    "decodedMethod": {
                        "callParams": [
                            {
                                "name": "user",
                                "type": "address",
                                "value": "0x359a76db7afdad46f0e2c6699ec768c1064c86ca"
                            }
                        ],
                        "constructorArguments": "",
                        "name": "userInformation",
                        "returnParams": [
                            {
                                "name": "",
                                "type": "(uint256,uint256,uint256,uint256,bool,bool,bool)",
                                "value": [
                                    {
                                        "name": "mostMatureTxIndex",
                                        "type": "uint256",
                                        "value": "0"
                                    },
                                    {
                                        "name": "lastInTxIndex",
                                        "type": "uint256",
                                        "value": "0"
                                    },
                                    {
                                        "name": "maturedBalance",
                                        "type": "uint256",
                                        "value": "2,293,402,481,686,764,645,105"
                                    },
                                    {
                                        "name": "maxBalance",
                                        "type": "uint256",
                                        "value": "2,293,402,481,686,764,645,105"
                                    },
                                    {
                                        "name": "fullSenderWhitelisted",
                                        "type": "bool",
                                        "value": false
                                    },
                                    {
                                        "name": "immatureReceiverWhitelisted",
                                        "type": "bool",
                                        "value": false
                                    },
                                    {
                                        "name": "noVestingWhitelisted",
                                        "type": "bool",
                                        "value": false
                                    }
                                ]
                            }
                        ],
                        "signature": "userInformation(address)"
                    },
                    "errorInfo": "",
                    "fromAddress": "0x867dacc8bca7c6339cbdeb9a536507a7d7058634",
                    "gasUsed": 11688,
                    "id": 3,
                    "methodDecoded": true,
                    "operation": "STATICCALL",
                    "output": "0x0000000000000000000000000000000000000000000000000000000000000000000000000000000000000000000000000000000000000000000000000000000000000000000000000000000000000000000000000000007c535a5e2082e8eaf100000000000000000000000000000000000000000000007c535a5e2082e8eaf1000000000000000000000000000000000000000000000000000000000000000000000000000000000000000000000000000000000000000000000000000000000000000000000000000000000000000000000000000000000000000000000000",
                    "revert": false,
                    "revertMessage": "",
                    "selector": "0x7d2e227d",
                    "status": true,
                    "value": "0"
                },
                "nodeType": 0
            },
            "30": {
                "invocation": {
                    "address": "0x9ea3b5b4ec044b70375236a281986106457b20ef",
                    "callData": "0x000000000000000000000000359a76db7afdad46f0e2c6699ec768c1064c86ca",
                    "decodedMethod": {
                        "callParams": [
                            {
                                "name": "user",
                                "type": "address",
                                "value": "0x359a76db7afdad46f0e2c6699ec768c1064c86ca"
                            }
                        ],
                        "constructorArguments": "",
                        "name": "userInformation",
                        "returnParams": [
                            {
                                "name": "",
                                "type": "(uint256,uint256,uint256,uint256,bool,bool,bool)",
                                "value": [
                                    {
                                        "name": "mostMatureTxIndex",
                                        "type": "uint256",
                                        "value": "0"
                                    },
                                    {
                                        "name": "lastInTxIndex",
                                        "type": "uint256",
                                        "value": "0"
                                    },
                                    {
                                        "name": "maturedBalance",
                                        "type": "uint256",
                                        "value": "0"
                                    },
                                    {
                                        "name": "maxBalance",
                                        "type": "uint256",
                                        "value": "0"
                                    },
                                    {
                                        "name": "fullSenderWhitelisted",
                                        "type": "bool",
                                        "value": false
                                    },
                                    {
                                        "name": "immatureReceiverWhitelisted",
                                        "type": "bool",
                                        "value": false
                                    },
                                    {
                                        "name": "noVestingWhitelisted",
                                        "type": "bool",
                                        "value": false
                                    }
                                ]
                            }
                        ],
                        "signature": "userInformation(address)"
                    },
                    "errorInfo": "",
                    "fromAddress": "0x867dacc8bca7c6339cbdeb9a536507a7d7058634",
                    "gasUsed": 1688,
                    "id": 30,
                    "methodDecoded": true,
                    "operation": "STATICCALL",
                    "output": "0x0000000000000000000000000000000000000000000000000000000000000000000000000000000000000000000000000000000000000000000000000000000000000000000000000000000000000000000000000000000000000000000000000000000000000000000000000000000000000000000000000000000000000000000000000000000000000000000000000000000000000000000000000000000000000000000000000000000000000000000000000000000000000000000000000000000000000000000000000000000000000000000000000000000000000000",
                    "revert": false,
                    "revertMessage": "",
                    "selector": "0x7d2e227d",
                    "status": true,
                    "value": "0"
                },
                "nodeType": 0
            },
            "31": {
                "invocation": {
                    "address": "0x9ea3b5b4ec044b70375236a281986106457b20ef",
                    "callData": "0x000000000000000000000000359a76db7afdad46f0e2c6699ec768c1064c86ca0000000000000000000000000000000000000000000000000000000000000000",
                    "decodedMethod": {
                        "callParams": [
                            {
                                "name": "",
                                "type": "address",
                                "value": "0x359a76db7afdad46f0e2c6699ec768c1064c86ca"
                            },
                            {
                                "name": "",
                                "type": "uint256",
                                "value": "0"
                            }
                        ],
                        "constructorArguments": "",
                        "name": "vestingTransactions",
                        "returnParams": [
                            {
                                "name": "amount",
                                "type": "uint256",
                                "value": "0"
                            },
                            {
                                "name": "fullVestingTimestamp",
                                "type": "uint256",
                                "value": "0"
                            }
                        ],
                        "signature": "vestingTransactions(address,uint256)"
                    },
                    "errorInfo": "",
                    "fromAddress": "0x867dacc8bca7c6339cbdeb9a536507a7d7058634",
                    "gasUsed": 864,
                    "id": 31,
                    "methodDecoded": true,
                    "operation": "STATICCALL",
                    "output": "0x00000000000000000000000000000000000000000000000000000000000000000000000000000000000000000000000000000000000000000000000000000000",
                    "revert": false,
                    "revertMessage": "",
                    "selector": "0x9e2d2bec",
                    "status": true,
                    "value": "0"
                },
                "nodeType": 0
            },
            "32": {
                "event": {
                    "contract": "0x827179dd56d07a7eea32e3873493835da2866976",
                    "decodedLog": {
                        "name": "Route",
                        "params": [
                            {
                                "name": "from",
                                "type": "address",
                                "value": "0x359a76db7afdad46f0e2c6699ec768c1064c86ca"
                            },
                            {
                                "name": "tokenIn",
                                "type": "address",
                                "value": "0x9ea3b5b4ec044b70375236a281986106457b20ef"
                            },
                            {
                                "name": "tokenOut",
                                "type": "address",
                                "value": "0xeeeeeeeeeeeeeeeeeeeeeeeeeeeeeeeeeeeeeeee"
                            },
                            {
                                "name": "to",
                                "type": "address",
                                "value": "0x359a76db7afdad46f0e2c6699ec768c1064c86ca"
                            },
                            {
                                "name": "amountIn",
                                "type": "uint256",
                                "value": "2,293,402,481,686,764,645,105"
                            },
                            {
                                "name": "amountOutMin",
                                "type": "uint256",
                                "value": "1,209,114,448,243,054,073"
                            },
                            {
                                "name": "amountOut",
                                "type": "uint256",
                                "value": "1,210,324,773,016,070,276"
                            }
                        ],
                        "signature": "Route(address,address,address,address,uint256,uint256,uint256)"
                    },
                    "id": 32,
                    "logData": "0x000000000000000000000000359a76db7afdad46f0e2c6699ec768c1064c86ca00000000000000000000000000000000000000000000007c535a5e2082e8eaf100000000000000000000000000000000000000000000000010c7a32f3c51d5f900000000000000000000000000000000000000000000000010cbeff7ee7a6884",
                    "logDecoded": true,
                    "operation": "EVENT",
                    "revert": false,
                    "status": true,
                    "topics": [
                        "0x2db5ddd0b42bdbca0d69ea16f234a870a485854ae0d91f16643d6f317d8b8994",
                        "0x000000000000000000000000359a76db7afdad46f0e2c6699ec768c1064c86ca",
                        "0x0000000000000000000000009ea3b5b4ec044b70375236a281986106457b20ef",
                        "0x000000000000000000000000eeeeeeeeeeeeeeeeeeeeeeeeeeeeeeeeeeeeeeee"
                    ]
                },
                "nodeType": 1
            },
            "4": {
                "invocation": {
                    "address": "0x9ea3b5b4ec044b70375236a281986106457b20ef",
                    "callData": "0x000000000000000000000000359a76db7afdad46f0e2c6699ec768c1064c86ca0000000000000000000000000000000000000000000000000000000000000000",
                    "decodedMethod": {
                        "callParams": [
                            {
                                "name": "",
                                "type": "address",
                                "value": "0x359a76db7afdad46f0e2c6699ec768c1064c86ca"
                            },
                            {
                                "name": "",
                                "type": "uint256",
                                "value": "0"
                            }
                        ],
                        "constructorArguments": "",
                        "name": "vestingTransactions",
                        "returnParams": [
                            {
                                "name": "amount",
                                "type": "uint256",
                                "value": "0"
                            },
                            {
                                "name": "fullVestingTimestamp",
                                "type": "uint256",
                                "value": "0"
                            }
                        ],
                        "signature": "vestingTransactions(address,uint256)"
                    },
                    "errorInfo": "",
                    "fromAddress": "0x867dacc8bca7c6339cbdeb9a536507a7d7058634",
                    "gasUsed": 4864,
                    "id": 4,
                    "methodDecoded": true,
                    "operation": "STATICCALL",
                    "output": "0x00000000000000000000000000000000000000000000000000000000000000000000000000000000000000000000000000000000000000000000000000000000",
                    "revert": false,
                    "revertMessage": "",
                    "selector": "0x9e2d2bec",
                    "status": true,
                    "value": "0"
                },
                "nodeType": 0
            },
            "5": {
                "invocation": {
                    "address": "0x1498bd576454159bb81b5ce532692a8752d163e8",
                    "callData": "0x",
                    "decodedMethod": {
                        "callParams": [],
                        "constructorArguments": "",
                        "name": "getReserves",
                        "returnParams": [
                            {
                                "name": "_reserve0",
                                "type": "uint112",
                                "value": "3,597,225,766,377,638,154,134,724"
                            },
                            {
                                "name": "_reserve1",
                                "type": "uint112",
                                "value": "1,905,329,741,507,086,509,603"
                            },
                            {
                                "name": "_blockTimestampLast",
                                "type": "uint32",
                                "value": "1,690,517,303"
                            }
                        ],
                        "signature": "getReserves()"
                    },
                    "errorInfo": "",
                    "fromAddress": "0x827179dd56d07a7eea32e3873493835da2866976",
                    "gasUsed": 2517,
                    "id": 5,
                    "methodDecoded": true,
                    "operation": "STATICCALL",
                    "output": "0x00000000000000000000000000000000000000000002f9bdffe1f185f2fee4c400000000000000000000000000000000000000000000006749c30907f4bbe6230000000000000000000000000000000000000000000000000000000064c33f37",
                    "revert": false,
                    "revertMessage": "",
                    "selector": "0x0902f1ac",
                    "status": true,
                    "value": "0"
                },
                "nodeType": 0
            },
            "6": {
                "invocation": {
                    "address": "0x9ea3b5b4ec044b70375236a281986106457b20ef",
                    "callData": "0x000000000000000000000000359a76db7afdad46f0e2c6699ec768c1064c86ca0000000000000000000000001498bd576454159bb81b5ce532692a8752d163e800000000000000000000000000000000000000000000007c535a5e2082e8eaf1",
                    "decodedMethod": {
                        "callParams": [
                            {
                                "name": "sender",
                                "type": "address",
                                "value": "0x359a76db7afdad46f0e2c6699ec768c1064c86ca"
                            },
                            {
                                "name": "recipient",
                                "type": "address",
                                "value": "0x1498bd576454159bb81b5ce532692a8752d163e8"
                            },
                            {
                                "decimalAvailable": true,
                                "name": "amount",
                                "type": "uint256",
                                "value": "2,293,402,481,686,764,645,105"
                            }
                        ],
                        "constructorArguments": "",
                        "name": "transferFrom",
                        "returnParams": [
                            {
                                "name": "",
                                "type": "bool",
                                "value": true
                            }
                        ],
                        "signature": "transferFrom(address,address,uint256)"
                    },
                    "errorInfo": "",
                    "fromAddress": "0x827179dd56d07a7eea32e3873493835da2866976",
                    "gasUsed": 45716,
                    "id": 6,
                    "methodDecoded": true,
                    "operation": "CALL",
                    "output": "0x0000000000000000000000000000000000000000000000000000000000000001",
                    "revert": false,
                    "revertMessage": "",
                    "selector": "0x23b872dd",
                    "status": true,
                    "value": "0"
                },
                "nodeType": 0
            },
            "7": {
                "invocation": {
                    "address": "0x9e349ff624e8872afaefd3d25c4e5666011a67a5",
                    "callData": "0x000000000000000000000000359a76db7afdad46f0e2c6699ec768c1064c86ca0000000000000000000000001498bd576454159bb81b5ce532692a8752d163e800000000000000000000000000000000000000000000007c535a5e2082e8eaf1",
                    "decodedMethod": {
                        "callParams": [
                            {
                                "name": "sender",
                                "type": "address",
                                "value": "0x359a76db7afdad46f0e2c6699ec768c1064c86ca"
                            },
                            {
                                "name": "recipient",
                                "type": "address",
                                "value": "0x1498bd576454159bb81b5ce532692a8752d163e8"
                            },
                            {
                                "name": "amount",
                                "type": "uint256",
                                "value": "2,293,402,481,686,764,645,105"
                            }
                        ],
                        "constructorArguments": "",
                        "name": "handleTransfer",
                        "returnParams": [],
                        "signature": "handleTransfer(address,address,uint256)"
                    },
                    "errorInfo": "",
                    "fromAddress": "0x9ea3b5b4ec044b70375236a281986106457b20ef",
                    "gasUsed": 31968,
                    "id": 7,
                    "methodDecoded": true,
                    "operation": "DELEGATECALL",
                    "output": "",
                    "revert": false,
                    "revertMessage": "",
                    "selector": "0x46197c9a",
                    "status": true,
                    "value": "0"
                },
                "nodeType": 0
            },
            "8": {
                "invocation": {
                    "address": "0x1498bd576454159bb81b5ce532692a8752d163e8",
                    "callData": "0x0000000000000000000000001498bd576454159bb81b5ce532692a8752d163e8",
                    "decodedMethod": {
                        "callParams": [
                            {
                                "name": "",
                                "type": "address",
                                "value": "0x1498bd576454159bb81b5ce532692a8752d163e8"
                            }
                        ],
                        "constructorArguments": "",
                        "name": "balanceOf",
                        "returnParams": [
                            {
                                "decimalAvailable": true,
                                "name": "",
                                "type": "uint256",
                                "value": "0"
                            }
                        ],
                        "signature": "balanceOf(address)"
                    },
                    "errorInfo": "",
                    "fromAddress": "0x9ea3b5b4ec044b70375236a281986106457b20ef",
                    "gasUsed": 2492,
                    "id": 8,
                    "methodDecoded": true,
                    "operation": "STATICCALL",
                    "output": "0x0000000000000000000000000000000000000000000000000000000000000000",
                    "revert": false,
                    "revertMessage": "",
                    "selector": "0x70a08231",
                    "status": true,
                    "value": "0"
                },
                "nodeType": 0
            },
            "9": {
                "event": {
                    "contract": "0x9ea3b5b4ec044b70375236a281986106457b20ef",
                    "decodedLog": {
                        "name": "Transfer",
                        "params": [
                            {
                                "name": "from",
                                "type": "address",
                                "value": "0x359a76db7afdad46f0e2c6699ec768c1064c86ca"
                            },
                            {
                                "name": "to",
                                "type": "address",
                                "value": "0x1498bd576454159bb81b5ce532692a8752d163e8"
                            },
                            {
                                "decimalAvailable": true,
                                "name": "value",
                                "type": "uint256",
                                "value": "2,293,402,481,686,764,645,105"
                            }
                        ],
                        "signature": "Transfer(address,address,uint256)"
                    },
                    "id": 9,
                    "logData": "0x00000000000000000000000000000000000000000000007c535a5e2082e8eaf1",
                    "logDecoded": true,
                    "operation": "EVENT",
                    "revert": false,
                    "status": true,
                    "topics": [
                        "0xddf252ad1be2c89b69c2b068fc378daa952ba7f163c4a11628f55a4df523b3ef",
                        "0x000000000000000000000000359a76db7afdad46f0e2c6699ec768c1064c86ca",
                        "0x0000000000000000000000001498bd576454159bb81b5ce532692a8752d163e8"
                    ]
                },
                "nodeType": 1
            }
        },
        "gasFlame": [
            {
                "children": [
                    {
                        "children": [
                            {
                                "children": [],
                                "depth": 0,
                                "name": "Initial Gas",
                                "value": 24740
                            },
                            {
                                "children": [
                                    {
                                        "children": [
                                            {
                                                "children": [
                                                    {
                                                        "children": [],
                                                        "depth": 3,
                                                        "name": "userInformation",
                                                        "value": 11688
                                                    },
                                                    {
                                                        "children": [],
                                                        "depth": 3,
                                                        "name": "vestingTransactions",
                                                        "value": 4864
                                                    }
                                                ],
                                                "depth": 2,
                                                "name": "handleBalanceCalculations",
                                                "value": 19190
                                            }
                                        ],
                                        "depth": 1,
                                        "name": "balanceOf",
                                        "value": 24875
                                    },
                                    {
                                        "children": [],
                                        "depth": 1,
                                        "name": "getReserves",
                                        "value": 2517
                                    },
                                    {
                                        "children": [
                                            {
                                                "children": [
                                                    {
                                                        "children": [],
                                                        "depth": 3,
                                                        "name": "balanceOf",
                                                        "value": 2492
                                                    }
                                                ],
                                                "depth": 2,
                                                "name": "handleTransfer",
                                                "value": 31968
                                            }
                                        ],
                                        "depth": 1,
                                        "name": "transferFrom",
                                        "value": 45716
                                    },
                                    {
                                        "children": [
                                            {
                                                "children": [],
                                                "depth": 2,
                                                "name": "transfer",
                                                "value": 12862
                                            },
                                            {
                                                "children": [
                                                    {
                                                        "children": [
                                                            {
                                                                "children": [],
                                                                "depth": 4,
                                                                "name": "userInformation",
                                                                "value": 3688
                                                            },
                                                            {
                                                                "children": [],
                                                                "depth": 4,
                                                                "name": "liquidityRebasingPermitted",
                                                                "value": 408
                                                            },
                                                            {
                                                                "children": [],
                                                                "depth": 4,
                                                                "name": "lpTokensInPair",
                                                                "value": 395
                                                            },
                                                            {
                                                                "children": [],
                                                                "depth": 4,
                                                                "name": "balanceOf",
                                                                "value": 492
                                                            }
                                                        ],
                                                        "depth": 3,
                                                        "name": "handleBalanceCalculations",
                                                        "value": 8203
                                                    }
                                                ],
                                                "depth": 2,
                                                "name": "balanceOf",
                                                "value": 9388
                                            },
                                            {
                                                "children": [],
                                                "depth": 2,
                                                "name": "balanceOf",
                                                "value": 534
                                            }
                                        ],
                                        "depth": 1,
                                        "name": "swap",
                                        "value": 56980
                                    },
                                    {
                                        "children": [],
                                        "depth": 1,
                                        "name": "balanceOf",
                                        "value": 534
                                    },
                                    {
                                        "children": [
                                            {
                                                "children": [],
                                                "depth": 2,
                                                "name": "fallback",
                                                "value": 55
                                            }
                                        ],
                                        "depth": 1,
                                        "name": "withdraw",
                                        "value": 9195
                                    },
                                    {
                                        "children": [],
                                        "depth": 1,
                                        "name": "fallback",
                                        "value": 0
                                    },
                                    {
                                        "children": [
                                            {
                                                "children": [
                                                    {
                                                        "children": [],
                                                        "depth": 3,
                                                        "name": "userInformation",
                                                        "value": 1688
                                                    },
                                                    {
                                                        "children": [],
                                                        "depth": 3,
                                                        "name": "vestingTransactions",
                                                        "value": 864
                                                    }
                                                ],
                                                "depth": 2,
                                                "name": "handleBalanceCalculations",
                                                "value": 5190
                                            }
                                        ],
                                        "depth": 1,
                                        "name": "balanceOf",
                                        "value": 6375
                                    }
                                ],
                                "depth": 0,
                                "name": "Executed Gas",
                                "value": 175182
                            }
                        ],
                        "depth": -1,
                        "name": "Actual Gas Used",
                        "value": 177122
                    },
                    {
                        "children": [],
                        "depth": -1,
                        "name": "Refunded Gas",
                        "value": 22800
                    }
                ],
                "depth": -2,
                "name": "Total Gas",
                "value": 199922
            }
        ],
        "isConfirmed": true,
        "mainTrace": [
            {
                "children": [
                    {
                        "children": [
                            {
                                "children": [
                                    {
                                        "children": [
                                            {
                                                "children": [],
                                                "depth": 3,
                                                "id": 3,
                                                "order": 3
                                            },
                                            {
                                                "children": [],
                                                "depth": 3,
                                                "id": 4,
                                                "order": 4
                                            }
                                        ],
                                        "depth": 2,
                                        "id": 2,
                                        "order": 2
                                    }
                                ],
                                "depth": 1,
                                "id": 1,
                                "order": 1
                            },
                            {
                                "children": [],
                                "depth": 1,
                                "id": 5,
                                "order": 5
                            },
                            {
                                "children": [
                                    {
                                        "children": [
                                            {
                                                "children": [],
                                                "depth": 3,
                                                "id": 8,
                                                "order": 8
                                            },
                                            {
                                                "children": [],
                                                "depth": 3,
                                                "id": 9,
                                                "order": 9
                                            }
                                        ],
                                        "depth": 2,
                                        "id": 7,
                                        "order": 7
                                    },
                                    {
                                        "children": [],
                                        "depth": 2,
                                        "id": 10,
                                        "order": 10
                                    }
                                ],
                                "depth": 1,
                                "id": 6,
                                "order": 6
                            },
                            {
                                "children": [
                                    {
                                        "children": [
                                            {
                                                "children": [],
                                                "depth": 3,
                                                "id": 13,
                                                "order": 13
                                            }
                                        ],
                                        "depth": 2,
                                        "id": 12,
                                        "order": 12
                                    },
                                    {
                                        "children": [
                                            {
                                                "children": [
                                                    {
                                                        "children": [],
                                                        "depth": 4,
                                                        "id": 16,
                                                        "order": 16
                                                    },
                                                    {
                                                        "children": [],
                                                        "depth": 4,
                                                        "id": 17,
                                                        "order": 17
                                                    },
                                                    {
                                                        "children": [],
                                                        "depth": 4,
                                                        "id": 18,
                                                        "order": 18
                                                    },
                                                    {
                                                        "children": [],
                                                        "depth": 4,
                                                        "id": 19,
                                                        "order": 19
                                                    }
                                                ],
                                                "depth": 3,
                                                "id": 15,
                                                "order": 15
                                            }
                                        ],
                                        "depth": 2,
                                        "id": 14,
                                        "order": 14
                                    },
                                    {
                                        "children": [],
                                        "depth": 2,
                                        "id": 20,
                                        "order": 20
                                    },
                                    {
                                        "children": [],
                                        "depth": 2,
                                        "id": 21,
                                        "order": 21
                                    },
                                    {
                                        "children": [],
                                        "depth": 2,
                                        "id": 22,
                                        "order": 22
                                    }
                                ],
                                "depth": 1,
                                "id": 11,
                                "order": 11
                            },
                            {
                                "children": [],
                                "depth": 1,
                                "id": 23,
                                "order": 23
                            },
                            {
                                "children": [
                                    {
                                        "children": [],
                                        "depth": 2,
                                        "id": 25,
                                        "order": 25
                                    },
                                    {
                                        "children": [],
                                        "depth": 2,
                                        "id": 26,
                                        "order": 26
                                    }
                                ],
                                "depth": 1,
                                "id": 24,
                                "order": 24
                            },
                            {
                                "children": [],
                                "depth": 1,
                                "id": 27,
                                "order": 27
                            },
                            {
                                "children": [
                                    {
                                        "children": [
                                            {
                                                "children": [],
                                                "depth": 3,
                                                "id": 30,
                                                "order": 30
                                            },
                                            {
                                                "children": [],
                                                "depth": 3,
                                                "id": 31,
                                                "order": 31
                                            }
                                        ],
                                        "depth": 2,
                                        "id": 29,
                                        "order": 29
                                    }
                                ],
                                "depth": 1,
                                "id": 28,
                                "order": 28
                            },
                            {
                                "children": [],
                                "depth": 1,
                                "id": 32,
                                "order": 32
                            }
                        ],
                        "depth": 0,
                        "id": 0,
                        "order": 0
                    }
                ],
                "depth": -1,
                "id": -1,
                "order": -1
            }
        ],
        "mainTraceNodeCount": 33,
        "parentIdMap": {
            "0": -1,
            "1": 0,
            "10": 6,
            "11": 0,
            "12": 11,
            "13": 12,
            "14": 11,
            "15": 14,
            "16": 15,
            "17": 15,
            "18": 15,
            "19": 15,
            "2": 1,
            "20": 11,
            "21": 11,
            "22": 11,
            "23": 0,
            "24": 0,
            "25": 24,
            "26": 24,
            "27": 0,
            "28": 0,
            "29": 28,
            "3": 2,
            "30": 29,
            "31": 29,
            "32": 0,
            "4": 2,
            "5": 0,
            "6": 0,
            "7": 6,
            "8": 7,
            "9": 7
        },
        "tidyTrace": [
            {
                "children": [
                    {
                        "children": [
                            {
                                "children": [
                                    {
                                        "children": [
                                            {
                                                "children": [],
                                                "depth": 3,
                                                "id": 9,
                                                "order": 9
                                            }
                                        ],
                                        "depth": 2,
                                        "id": 7,
                                        "order": 7
                                    },
                                    {
                                        "children": [],
                                        "depth": 2,
                                        "id": 10,
                                        "order": 10
                                    }
                                ],
                                "depth": 1,
                                "id": 6,
                                "order": 6
                            },
                            {
                                "children": [
                                    {
                                        "children": [
                                            {
                                                "children": [],
                                                "depth": 3,
                                                "id": 13,
                                                "order": 13
                                            }
                                        ],
                                        "depth": 2,
                                        "id": 12,
                                        "order": 12
                                    },
                                    {
                                        "children": [],
                                        "depth": 2,
                                        "id": 21,
                                        "order": 21
                                    },
                                    {
                                        "children": [],
                                        "depth": 2,
                                        "id": 22,
                                        "order": 22
                                    }
                                ],
                                "depth": 1,
                                "id": 11,
                                "order": 11
                            },
                            {
                                "children": [
                                    {
                                        "children": [],
                                        "depth": 2,
                                        "id": 25,
                                        "order": 25
                                    },
                                    {
                                        "children": [],
                                        "depth": 2,
                                        "id": 26,
                                        "order": 26
                                    }
                                ],
                                "depth": 1,
                                "id": 24,
                                "order": 24
                            },
                            {
                                "children": [],
                                "depth": 1,
                                "id": 27,
                                "order": 27
                            },
                            {
                                "children": [],
                                "depth": 1,
                                "id": 32,
                                "order": 32
                            }
                        ],
                        "depth": 0,
                        "id": 0,
                        "order": 0
                    }
                ],
                "depth": -1,
                "id": -1,
                "order": -1
            }
        ],
        "tidyTraceNodeCount": 15
    },
    "state_change": {
        "stateChanges": [
            {
                "address": "0x1498bd576454159bb81b5ce532692a8752d163e8",
                "erc": "ERC-20",
                "slots": [
                    {
                        "current": "0x00000000000000000000000000000000f1490b594bd5adefb6dfb5d81b3bbbf8",
                        "key": "0x0000000000000000000000000000000000000000000000000000000000000009",
                        "prev": "0x00000000000000000000000000000000f13d9f62ff663b562d0903d7ac0616f4"
                    },
                    {
                        "current": "0x0000000000000000000000000015456b8cbe276d8a65bec5d3731708b9c35a2e",
                        "key": "0x000000000000000000000000000000000000000000000000000000000000000a",
                        "prev": "0x000000000000000000000000001542fe53de7bb43bd4fa45a0157a8a77be787a"
                    },
                    {
                        "current": "0x64c3937300000000006738f7191006417d9f00000002fa3a533c4fa675e7cfb5",
                        "key": "0x0000000000000000000000000000000000000000000000000000000000000008",
                        "prev": "0x64c33f3700000000006749c30907f4bbe62300000002f9bdffe1f185f2fee4c4"
                    }
                ],
                "storageVariables": [
                    {
                        "name": "price0CumulativeLast",
                        "type": "uint256",
                        "value": {
                            "current": "320723214836119570052130554213031459832",
                            "prev": "320663909839064525015991647163971409652",
                            "typeTag": 1
                        }
                    },
                    {
                        "name": "price1CumulativeLast",
                        "type": "uint256",
                        "value": {
                            "current": "474362994190950589092487401790972000007838254",
                            "prev": "474151603242959749330987595034718647401478266",
                            "typeTag": 1
                        }
                    },
                    {
                        "name": "reserve0",
                        "type": "uint112",
                        "value": {
                            "current": "3599519168859324918779829",
                            "prev": "3597225766377638154134724",
                            "typeTag": 1
                        }
                    },
                    {
                        "name": "reserve1",
                        "type": "uint112",
                        "value": {
                            "current": "1904119416734070439327",
                            "prev": "1905329741507086509603",
                            "typeTag": 1
                        }
                    },
                    {
                        "name": "blockTimestampLast",
                        "type": "uint32",
                        "value": {
                            "current": "1690538867",
                            "prev": "1690517303",
                            "typeTag": 1
                        }
                    }
                ]
            },
            {
                "address": "0x9ea3b5b4ec044b70375236a281986106457b20ef",
                "erc": "ERC-20",
                "slots": [
                    {
                        "current": "0x00000000000000000000000000000000000000000002fa3a533c4fa675e7cfb5",
                        "key": "0x169d15e35353ddcbcec13358bdca6e528d821922f43434b15d47718852e7e2ac",
                        "prev": "0x00000000000000000000000000000000000000000002f9bdffe1f185f2fee4c4"
                    },
                    {
                        "current": "0x00000000000000000000000000000000000000000002fa3a533c4fa675e7cfb5",
                        "key": "0x169d15e35353ddcbcec13358bdca6e528d821922f43434b15d47718852e7e2ad",
                        "prev": "0x00000000000000000000000000000000000000000002f9bdffe1f185f2fee4c4"
                    },
                    {
                        "current": "0x0000000000000000000000000000000000000000000000000000000000000000",
                        "key": "0xa0f6edf6d5c46ea79390a07bff5c66aeab6d75e481121ed5ed573d837e425e5f",
                        "prev": "0x00000000000000000000000000000000000000000000007c535a5e2082e8eaf1"
                    },
                    {
                        "current": "0x0000000000000000000000000000000000000000000000000000000000000000",
                        "key": "0xbfb1fa126d3baea7e3dc160a675aab4ec340f52ed52a7c259b875f6d4506f102",
                        "prev": "0x00000000000000000000000000000000000000000000007c535a5e2082e8eaf1"
                    },
                    {
                        "current": "0x0000000000000000000000000000000000000000000000000000000000000000",
                        "key": "0xbfb1fa126d3baea7e3dc160a675aab4ec340f52ed52a7c259b875f6d4506f103",
                        "prev": "0x00000000000000000000000000000000000000000000007c535a5e2082e8eaf1"
                    }
                ],
                "storageVariables": [
                    {
                        "name": "_allowances",
                        "type": "mapping(address => mapping(address => uint256))",
                        "value": {
                            "pairs": [
                                {
                                    "key": "0x359a76db7afdad46f0e2c6699ec768c1064c86ca",
                                    "value": {
                                        "pairs": [
                                            {
                                                "key": "0x827179dd56d07a7eea32e3873493835da2866976",
                                                "value": {
                                                    "current": "0",
                                                    "prev": "2293402481686764645105",
                                                    "typeTag": 1
                                                }
                                            }
                                        ],
                                        "typeTag": 4
                                    }
                                }
                            ],
                            "typeTag": 4
                        }
                    },
                    {
                        "name": "_userInformation",
                        "type": "mapping(address => struct UserInformation)",
                        "value": {
                            "pairs": [
                                {
                                    "key": "0x1498bd576454159bb81b5ce532692a8752d163e8",
                                    "value": {
                                        "fields": [
                                            {
                                                "name": "maturedBalance",
                                                "type": "uint256",
                                                "value": {
                                                    "current": "3599519168859324918779829",
                                                    "prev": "3597225766377638154134724",
                                                    "typeTag": 1
                                                }
                                            },
                                            {
                                                "name": "maxBalance",
                                                "type": "uint256",
                                                "value": {
                                                    "current": "3599519168859324918779829",
                                                    "prev": "3597225766377638154134724",
                                                    "typeTag": 1
                                                }
                                            }
                                        ],
                                        "typeTag": 3
                                    }
                                },
                                {
                                    "key": "0x359a76db7afdad46f0e2c6699ec768c1064c86ca",
                                    "value": {
                                        "fields": [
                                            {
                                                "name": "maturedBalance",
                                                "type": "uint256",
                                                "value": {
                                                    "current": "0",
                                                    "prev": "2293402481686764645105",
                                                    "typeTag": 1
                                                }
                                            },
                                            {
                                                "name": "maxBalance",
                                                "type": "uint256",
                                                "value": {
                                                    "current": "0",
                                                    "prev": "2293402481686764645105",
                                                    "typeTag": 1
                                                }
                                            }
                                        ],
                                        "typeTag": 3
                                    }
                                }
                            ],
                            "typeTag": 4
                        }
                    }
                ]
            },
            {
                "address": "0xc02aaa39b223fe8d0a0e5c4f27ead9083c756cc2",
                "erc": "ERC-20",
                "slots": [
                    {
                        "current": "0x00000000000000000000000000000000000000000000006738f7191006417d9f",
                        "key": "0x802d2634c9092333dbc5ea1720e2f6f6dc13256aa524748334100f4d765cf657",
                        "prev": "0x00000000000000000000000000000000000000000000006749c30907f4bbe623"
                    }
                ],
                "storageVariables": [
                    {
                        "name": "balanceOf",
                        "type": "mapping(address => uint256)",
                        "value": {
                            "pairs": [
                                {
                                    "key": "0x1498bd576454159bb81b5ce532692a8752d163e8",
                                    "value": {
                                        "current": "1904119416734070439327",
                                        "prev": "1905329741507086509603",
                                        "typeTag": 1
                                    }
                                }
                            ],
                            "typeTag": 4
                        }
                    }
                ]
            }
        ]
    }
}