{
    "balance_change": {
        "balanceChanges": [
            {
                "account": "0x8741d626a27d5a4f748ddb2bb3c6675e28b50bdc",
                "assets": [
                    {
                        "address": "0x04c17b9d3b29a78f7bd062a57cf44fc633e71f85",
                        "amount": "9,100",
                        "iconUrl": "",
                        "isERC1155": false,
                        "isERC721": false,
                        "sign": false,
                        "value": "177.1745099"
                    }
                ]
            },
            {
                "account": "0x04682fea604f20fb8fdc006d0b0196e5c811e8bc",
                "assets": [
                    {
                        "address": "0x04c17b9d3b29a78f7bd062a57cf44fc633e71f85",
                        "amount": "9,100",
                        "iconUrl": "",
                        "isERC1155": false,
                        "isERC721": false,
                        "sign": true,
                        "value": "177.1745099"
                    }
                ]
            }
        ]
    },
    "profile": {
        "basic_info": {
            "baseFee": "18.115508363",
            "blockNumber": 16169617,
            "callData": "0xa9059cbb00000000000000000000000004682fea604f20fb8fdc006d0b0196e5c811e8bc0000000000000000000000000000000000000000000001ed4fde7a2236b00000",
            "debugEnable": true,
            "errorInfo": "",
            "eventCount": 1,
            "feeRecipient": "0xc3dc5292caf0c3350c1be8e5f8c36e10a6b12a6b",
            "formatValue": "0",
            "gasLimit": 82063,
            "gasPrice": "24.264329412",
            "gasUsed": 49909,
            "intTxnCount": 0,
            "internalRevert": false,
            "internalRevertMessage": "",
            "isContractCreation": false,
            "isFlashloan": false,
            "maxFee": "24.264329412",
            "nonce": 35,
            "overwritedBlockNumber": -1,
            "priorityFee": "24.264329412",
            "receiver": "0x04c17b9d3b29a78f7bd062a57cf44fc633e71f85",
            "revertMessage": "",
            "sender": "0x8741d626a27d5a4f748ddb2bb3c6675e28b50bdc",
            "simulationEnable": true,
            "sourceTxnHash": "0x5a2b17dc19af7ace28ba5dcf63cb56f705b7b86ca484d5709079d94641b761dc",
            "status": true,
            "timestamp": "2022-12-12T15:47:47Z",
            "transactionFee": "0.001211008416623508",
            "txnHash": "0x5a2b17dc19af7ace28ba5dcf63cb56f705b7b86ca484d5709079d94641b761dc",
            "txnIndex": 21,
            "type": 2,
            "value": "0"
        },
        "fund_flow": [
            {
                "amount": "9,100",
                "from": "0x8741d626a27d5a4f748ddb2bb3c6675e28b50bdc",
                "id": 1,
                "isERC1155": false,
                "isERC721": false,
                "isReverted": false,
                "order": 1,
                "to": "0x04682fea604f20fb8fdc006d0b0196e5c811e8bc",
                "token": "0x04c17b9d3b29a78f7bd062a57cf44fc633e71f85"
            }
        ],
        "token_infos": [
            {
                "address": "0xeeeeeeeeeeeeeeeeeeeeeeeeeeeeeeeeeeeeeeee",
                "decimals": 18
            },
            {
                "address": "0x04c17b9d3b29a78f7bd062a57cf44fc633e71f85",
                "decimals": 18
            },
            {
                "address": "0xc02aaa39b223fe8d0a0e5c4f27ead9083c756cc2",
                "decimals": 18
            }
        ]
    },
    "address_label": {
        "labels": [
            {
                "address": "0x0000000000000000000000000000000000000002",
                "label": "Precompiled"
            },
            {
                "address": "0x0000000000000000000000000000000000000003",
                "label": "Precompiled"
            },
            {
                "address": "0x0000000000000000000000000000000000000004",
                "label": "Precompiled"
            },
            {
                "address": "0xeeeeeeeeeeeeeeeeeeeeeeeeeeeeeeeeeeeeeeee",
                "label": "Ether"
            },
            {
                "address": "0x04c17b9d3b29a78f7bd062a57cf44fc633e71f85",
                "label": "Impt: IMPT Token"
            },
            {
                "address": "0x0000000000000000000000000000000000000001",
                "label": "Precompiled"
            }
        ]
    },
    "trace": {
        "accountLabels": null,
        "dataMap": {
            "-1": {
                "invocation": {
                    "address": "0x8741d626a27d5a4f748ddb2bb3c6675e28b50bdc",
                    "callData": "",
                    "decodedMethod": null,
                    "errorInfo": "",
                    "fromAddress": "",
                    "gasUsed": 0,
                    "id": -1,
                    "methodDecoded": false,
                    "operation": "",
                    "output": "",
                    "revert": false,
                    "revertMessage": "",
                    "selector": "",
                    "status": false,
                    "value": ""
                },
                "nodeType": 0
            },
            "0": {
                "invocation": {
                    "address": "0x04c17b9d3b29a78f7bd062a57cf44fc633e71f85",
                    "callData": "0x00000000000000000000000004682fea604f20fb8fdc006d0b0196e5c811e8bc0000000000000000000000000000000000000000000001ed4fde7a2236b00000",
                    "decodedMethod": {
                        "callParams": [
                            {
                                "name": "to",
                                "type": "address",
                                "value": "0x04682fea604f20fb8fdc006d0b0196e5c811e8bc"
                            },
                            {
                                "decimalAvailable": true,
                                "name": "amount",
                                "type": "uint256",
                                "value": "9,100,000,000,000,000,000,000"
                            }
                        ],
                        "constructorArguments": "",
                        "name": "transfer",
                        "returnParams": [
                            {
                                "name": "",
                                "type": "bool",
                                "value": true
                            }
                        ],
                        "signature": "transfer(address,uint256)"
                    },
                    "errorInfo": "",
                    "fromAddress": "0x8741d626a27d5a4f748ddb2bb3c6675e28b50bdc",
                    "gasUsed": 49909,
                    "id": 0,
                    "methodDecoded": true,
                    "operation": "CALL",
                    "output": "0x0000000000000000000000000000000000000000000000000000000000000001",
                    "revert": false,
                    "revertMessage": "",
                    "selector": "0xa9059cbb",
                    "status": true,
                    "value": "0"
                },
                "nodeType": 0
            },
            "1": {
                "event": {
                    "contract": "0x04c17b9d3b29a78f7bd062a57cf44fc633e71f85",
                    "decodedLog": {
                        "name": "Transfer",
                        "params": [
                            {
                                "name": "from",
                                "type": "address",
                                "value": "0x8741d626a27d5a4f748ddb2bb3c6675e28b50bdc"
                            },
                            {
                                "name": "to",
                                "type": "address",
                                "value": "0x04682fea604f20fb8fdc006d0b0196e5c811e8bc"
                            },
                            {
                                "decimalAvailable": true,
                                "name": "value",
                                "type": "uint256",
                                "value": "9,100,000,000,000,000,000,000"
                            }
                        ],
                        "signature": "Transfer(address,address,uint256)"
                    },
                    "id": 1,
                    "logData": "0x0000000000000000000000000000000000000000000001ed4fde7a2236b00000",
                    "logDecoded": true,
                    "operation": "EVENT",
                    "revert": false,
                    "status": true,
                    "topics": [
                        "0xddf252ad1be2c89b69c2b068fc378daa952ba7f163c4a11628f55a4df523b3ef",
                        "0x0000000000000000000000008741d626a27d5a4f748ddb2bb3c6675e28b50bdc",
                        "0x00000000000000000000000004682fea604f20fb8fdc006d0b0196e5c811e8bc"
                    ]
                },
                "nodeType": 1
            }
        },
        "gasFlame": [
            {
                "children": [
                    {
                        "children": [
                            {
                                "children": [],
                                "depth": 0,
                                "name": "Initial Gas",
                                "value": 21644
                            },
                            {
                                "children": [],
                                "depth": 0,
                                "name": "Executed Gas",
                                "value": 33065
                            }
                        ],
                        "depth": -1,
                        "name": "Actual Gas Used",
                        "value": 49909
                    },
                    {
                        "children": [],
                        "depth": -1,
                        "name": "Refunded Gas",
                        "value": 4800
                    }
                ],
                "depth": -2,
                "name": "Total Gas",
                "value": 54709
            }
        ],
        "isConfirmed": true,
        "mainTrace": [
            {
                "children": [
                    {
                        "children": [
                            {
                                "children": [],
                                "depth": 1,
                                "id": 1,
                                "order": 1
                            }
                        ],
                        "depth": 0,
                        "id": 0,
                        "order": 0
                    }
                ],
                "depth": -1,
                "id": -1,
                "order": -1
            }
        ],
        "mainTraceNodeCount": 2,
        "parentIdMap": {
            "0": -1,
            "1": 0
        },
        "tidyTrace": [
            {
                "children": [
                    {
                        "children": [
                            {
                                "children": [],
                                "depth": 1,
                                "id": 1,
                                "order": 1
                            }
                        ],
                        "depth": 0,
                        "id": 0,
                        "order": 0
                    }
                ],
                "depth": -1,
                "id": -1,
                "order": -1
            }
        ],
        "tidyTraceNodeCount": 2
    },
    "state_change": {
        "stateChanges": [
            {
                "address": "0x04c17b9d3b29a78f7bd062a57cf44fc633e71f85",
                "erc": "ERC-20",
                "slots": [
                    {
                        "current": "0x0000000000000000000000000000000000000000000000000000000000000000",
                        "key": "0x6816e001e313b1af7d10b003a716c972db18e26f0dea2090113701515d5ed58e",
                        "prev": "0x0000000000000000000000000000000000000000000001ed4fde7a2236b00000"
                    },
                    {
                        "current": "0x0000000000000000000000000000000000000000000001ed4fde7a2236b00000",
                        "key": "0x32514e0cb5591963bafba647e4ffd092a3cf7589c9cf619f26cb4de8658cdbe6",
                        "prev": "0x0000000000000000000000000000000000000000000000000000000000000000"
                    }
                ],
                "storageVariables": [
                    {
                        "name": "_balances",
                        "type": "mapping(address => uint256)",
                        "value": {
                            "pairs": [
                                {
                                    "key": "0x04682fea604f20fb8fdc006d0b0196e5c811e8bc",
                                    "value": {
                                        "current": "9100000000000000000000",
                                        "prev": "0",
                                        "typeTag": 1
                                    }
                                },
                                {
                                    "key": "0x8741d626a27d5a4f748ddb2bb3c6675e28b50bdc",
                                    "value": {
                                        "current": "0",
                                        "prev": "9100000000000000000000",
                                        "typeTag": 1
                                    }
                                }
                            ],
                            "typeTag": 4
                        }
                    }
                ]
            }
        ]
    }
}