{
    "balance_change": {
        "balanceChanges": [
            {
                "account": "0x6968ba71a7e13af11c1451cf8c4662db906b2ae8",
                "assets": [
                    {
                        "address": "0x6d5cac36c1ae39f41d52393b7a425d0a610ad9f2",
                        "amount": "199.1",
                        "iconUrl": "",
                        "isERC1155": false,
                        "isERC721": false,
                        "sign": false,
                        "value": ""
                    }
                ]
            },
            {
                "account": "0xa463b8aa8aae12773ef8d7d326005df4073b3857",
                "assets": [
                    {
                        "address": "0x6d5cac36c1ae39f41d52393b7a425d0a610ad9f2",
                        "amount": "199.1",
                        "iconUrl": "",
                        "isERC1155": false,
                        "isERC721": false,
                        "sign": true,
                        "value": ""
                    }
                ]
            }
        ]
    },
    "profile": {
        "basic_info": {
            "baseFee": "",
            "blockNumber": 4564403,
            "callData": "0xa9059cbb000000000000000000000000a463b8aa8aae12773ef8d7d326005df4073b385700000000000000000000000000000000000000000000000000000004a2ba7d80",
            "debugEnable": true,
            "errorInfo": "",
            "eventCount": 1,
            "feeRecipient": "0xea674fdde714fd979de3edf0f56aa9716b898ec8",
            "formatValue": "0",
            "gasLimit": 36632,
            "gasPrice": "10",
            "gasUsed": 21632,
            "intTxnCount": 0,
            "internalRevert": false,
            "internalRevertMessage": "",
            "isContractCreation": false,
            "isFlashloan": false,
            "maxFee": "",
            "nonce": 0,
            "overwritedBlockNumber": -1,
            "priorityFee": "",
            "receiver": "0x6d5cac36c1ae39f41d52393b7a425d0a610ad9f2",
            "revertMessage": "",
            "sender": "0x6968ba71a7e13af11c1451cf8c4662db906b2ae8",
            "simulationEnable": true,
            "sourceTxnHash": "0x5a32dcd36224b3d7b4f90028b82833bb73403fa9f6b1badfc0c93034a6ef8408",
            "status": true,
            "timestamp": "2017-11-16T16:15:54Z",
            "transactionFee": "0.00021632",
            "txnHash": "0x5a32dcd36224b3d7b4f90028b82833bb73403fa9f6b1badfc0c93034a6ef8408",
            "txnIndex": 10,
            "type": 0,
            "value": "0"
        },
        "fund_flow": [
            {
                "amount": "199.1",
                "from": "0x6968ba71a7e13af11c1451cf8c4662db906b2ae8",
                "id": 1,
                "isERC1155": false,
                "isERC721": false,
                "isReverted": false,
                "order": 1,
                "to": "0xa463b8aa8aae12773ef8d7d326005df4073b3857",
                "token": "0x6d5cac36c1ae39f41d52393b7a425d0a610ad9f2"
            }
        ],
        "token_infos": [
            {
                "address": "0x6d5cac36c1ae39f41d52393b7a425d0a610ad9f2",
                "decimals": 8
            },
            {
                "address": "0xc02aaa39b223fe8d0a0e5c4f27ead9083c756cc2",
                "decimals": 18
            },
            {
                "address": "0xeeeeeeeeeeeeeeeeeeeeeeeeeeeeeeeeeeeeeeee",
                "decimals": 18
            }
        ]
    },
    "address_label": {
        "labels": [
            {
                "address": "0x0000000000000000000000000000000000000002",
                "label": "Precompiled"
            },
            {
                "address": "0x0000000000000000000000000000000000000003",
                "label": "Precompiled"
            },
            {
                "address": "0x0000000000000000000000000000000000000004",
                "label": "Precompiled"
            },
            {
                "address": "0xeeeeeeeeeeeeeeeeeeeeeeeeeeeeeeeeeeeeeeee",
                "label": "Ether"
            },
            {
                "address": "0x6d5cac36c1ae39f41d52393b7a425d0a610ad9f2",
                "label": "LLToken"
            },
            {
                "address": "0x0000000000000000000000000000000000000001",
                "label": "Precompiled"
            }
        ]
    },
    "trace": {
        "accountLabels": null,
        "dataMap": {
            "-1": {
                "invocation": {
                    "address": "0x6968ba71a7e13af11c1451cf8c4662db906b2ae8",
                    "callData": "",
                    "decodedMethod": null,
                    "errorInfo": "",
                    "fromAddress": "",
                    "gasUsed": 0,
                    "id": -1,
                    "methodDecoded": false,
                    "operation": "",
                    "output": "",
                    "revert": false,
                    "revertMessage": "",
                    "selector": "",
                    "status": false,
                    "value": ""
                },
                "nodeType": 0
            },
            "0": {
                "invocation": {
                    "address": "0x6d5cac36c1ae39f41d52393b7a425d0a610ad9f2",
                    "callData": "0x000000000000000000000000a463b8aa8aae12773ef8d7d326005df4073b385700000000000000000000000000000000000000000000000000000004a2ba7d80",
                    "decodedMethod": {
                        "callParams": [
                            {
                                "name": "_to",
                                "type": "address",
                                "value": "0xa463b8aa8aae12773ef8d7d326005df4073b3857"
                            },
                            {
                                "decimalAvailable": true,
                                "name": "_value",
                                "type": "uint256",
                                "value": "19,910,000,000"
                            }
                        ],
                        "constructorArguments": "",
                        "name": "transfer",
                        "returnParams": [
                            {
                                "name": "",
                                "type": "bool",
                                "value": true
                            }
                        ],
                        "signature": "transfer(address,uint256)"
                    },
                    "errorInfo": "",
                    "fromAddress": "0x6968ba71a7e13af11c1451cf8c4662db906b2ae8",
                    "gasUsed": 21632,
                    "id": 0,
                    "methodDecoded": true,
                    "operation": "CALL",
                    "output": "0x0000000000000000000000000000000000000000000000000000000000000001",
                    "revert": false,
                    "revertMessage": "",
                    "selector": "0xa9059cbb",
                    "status": true,
                    "value": "0"
                },
                "nodeType": 0
            },
            "1": {
                "event": {
                    "contract": "0x6d5cac36c1ae39f41d52393b7a425d0a610ad9f2",
                    "decodedLog": {
                        "name": "Transfer",
                        "params": [
                            {
                                "name": "from",
                                "type": "address",
                                "value": "0x6968ba71a7e13af11c1451cf8c4662db906b2ae8"
                            },
                            {
                                "name": "to",
                                "type": "address",
                                "value": "0xa463b8aa8aae12773ef8d7d326005df4073b3857"
                            },
                            {
                                "decimalAvailable": true,
                                "name": "value",
                                "type": "uint256",
                                "value": "19,910,000,000"
                            }
                        ],
                        "signature": "Transfer(address,address,uint256)"
                    },
                    "id": 1,
                    "logData": "0x00000000000000000000000000000000000000000000000000000004a2ba7d80",
                    "logDecoded": true,
                    "operation": "EVENT",
                    "revert": false,
                    "status": true,
                    "topics": [
                        "0xddf252ad1be2c89b69c2b068fc378daa952ba7f163c4a11628f55a4df523b3ef",
                        "0x0000000000000000000000006968ba71a7e13af11c1451cf8c4662db906b2ae8",
                        "0x000000000000000000000000a463b8aa8aae12773ef8d7d326005df4073b3857"
                    ]
                },
                "nodeType": 1
            }
        },
        "gasFlame": [
            {
                "children": [
                    {
                        "children": [
                            {
                                "children": [],
                                "depth": 0,
                                "name": "Initial Gas",
                                "value": 23064
                            },
                            {
                                "children": [],
                                "depth": 0,
                                "name": "Executed Gas",
                                "value": 13568
                            }
                        ],
                        "depth": -1,
                        "name": "Actual Gas Used",
                        "value": 21632
                    },
                    {
                        "children": [],
                        "depth": -1,
                        "name": "Refunded Gas",
                        "value": 15000
                    }
                ],
                "depth": -2,
                "name": "Total Gas",
                "value": 36632
            }
        ],
        "isConfirmed": true,
        "mainTrace": [
            {
                "children": [
                    {
                        "children": [
                            {
                                "children": [],
                                "depth": 1,
                                "id": 1,
                                "order": 1
                            }
                        ],
                        "depth": 0,
                        "id": 0,
                        "order": 0
                    }
                ],
                "depth": -1,
                "id": -1,
                "order": -1
            }
        ],
        "mainTraceNodeCount": 2,
        "parentIdMap": {
            "0": -1,
            "1": 0
        },
        "tidyTrace": [
            {
                "children": [
                    {
                        "children": [
                            {
                                "children": [],
                                "depth": 1,
                                "id": 1,
                                "order": 1
                            }
                        ],
                        "depth": 0,
                        "id": 0,
                        "order": 0
                    }
                ],
                "depth": -1,
                "id": -1,
                "order": -1
            }
        ],
        "tidyTraceNodeCount": 2
    },
    "state_change": {
        "stateChanges": [
            {
                "address": "0x6d5cac36c1ae39f41d52393b7a425d0a610ad9f2",
                "erc": "ERC-20",
                "slots": [
                    {
                        "current": "0x0000000000000000000000000000000000000000000000000000000000000000",
                        "key": "0xdb2a5f18f5af3c5ceb9d55e0b9dac41d4fb1ece864f5493d34e0523541662ea9",
                        "prev": "0x00000000000000000000000000000000000000000000000000000004a2ba7d80"
                    },
                    {
                        "current": "0x00000000000000000000000000000000000000000000000000001210c0230bf8",
                        "key": "0x37e32e92232009d949ca7745b33e3506f360d6a33efaa32e11d758c5c89d6377",
                        "prev": "0x0000000000000000000000000000000000000000000000000000120c1d688e78"
                    }
                ],
                "storageVariables": [
                    {
                        "name": "balances",
                        "type": "mapping(address => uint256)",
                        "value": {
                            "pairs": [
                                {
                                    "key": "0x6968ba71a7e13af11c1451cf8c4662db906b2ae8",
                                    "value": {
                                        "current": "0",
                                        "prev": "19910000000",
                                        "typeTag": 1
                                    }
                                },
                                {
                                    "key": "0xa463b8aa8aae12773ef8d7d326005df4073b3857",
                                    "value": {
                                        "current": "19863152299000",
                                        "prev": "19843242299000",
                                        "typeTag": 1
                                    }
                                }
                            ],
                            "typeTag": 4
                        }
                    }
                ]
            }
        ]
    }
}