{
    "balance_change": {
        "balanceChanges": [
            {
                "account": "0x618b9df0ff57968ddabca82619668d66f52f0977",
                "assets": [
                    {
                        "address": "0xc6fa2ec714e0d1c70979fd044e65cce8b1344472",
                        "amount": "2.51",
                        "iconUrl": "",
                        "isERC1155": false,
                        "isERC721": false,
                        "sign": false,
                        "value": ""
                    }
                ]
            },
            {
                "account": "0x15b6135182bfb13c97d110ff494a1ed84704af23",
                "assets": [
                    {
                        "address": "0xc6fa2ec714e0d1c70979fd044e65cce8b1344472",
                        "amount": "2.51",
                        "iconUrl": "",
                        "isERC1155": false,
                        "isERC721": false,
                        "sign": true,
                        "value": ""
                    }
                ]
            }
        ]
    },
    "profile": {
        "basic_info": {
            "baseFee": "",
            "blockNumber": 5898105,
            "callData": "0xa9059cbb00000000000000000000000015b6135182bfb13c97d110ff494a1ed84704af23000000000000000000000000000000000000000000000000000000000000620c",
            "debugEnable": true,
            "errorInfo": "",
            "eventCount": 1,
            "feeRecipient": "0x829bd824b016326a401d083b33d092293333a830",
            "formatValue": "0",
            "gasLimit": 73798,
            "gasPrice": "87.5",
            "gasUsed": 36899,
            "intTxnCount": 0,
            "internalRevert": false,
            "internalRevertMessage": "",
            "isContractCreation": false,
            "isFlashloan": false,
            "maxFee": "",
            "nonce": 5522,
            "overwritedBlockNumber": -1,
            "priorityFee": "",
            "receiver": "0xc6fa2ec714e0d1c70979fd044e65cce8b1344472",
            "revertMessage": "",
            "sender": "0x618b9df0ff57968ddabca82619668d66f52f0977",
            "simulationEnable": true,
            "sourceTxnHash": "0x5a7102d87e9341ac98fd0d7c75b5b8f8676fd9b6a807ed5f2b8f841a37e58fec",
            "status": true,
            "timestamp": "2018-07-03T11:46:38Z",
            "transactionFee": "0.0032286625",
            "txnHash": "0x5a7102d87e9341ac98fd0d7c75b5b8f8676fd9b6a807ed5f2b8f841a37e58fec",
            "txnIndex": 21,
            "type": 0,
            "value": "0"
        },
        "fund_flow": [
            {
                "amount": "2.51",
                "from": "0x618b9df0ff57968ddabca82619668d66f52f0977",
                "id": 1,
                "isERC1155": false,
                "isERC721": false,
                "isReverted": false,
                "order": 1,
                "to": "0x15b6135182bfb13c97d110ff494a1ed84704af23",
                "token": "0xc6fa2ec714e0d1c70979fd044e65cce8b1344472"
            }
        ],
        "token_infos": [
            {
                "address": "0xc6fa2ec714e0d1c70979fd044e65cce8b1344472",
                "decimals": 4
            },
            {
                "address": "0xeeeeeeeeeeeeeeeeeeeeeeeeeeeeeeeeeeeeeeee",
                "decimals": 18
            },
            {
                "address": "0xc02aaa39b223fe8d0a0e5c4f27ead9083c756cc2",
                "decimals": 18
            }
        ]
    },
    "address_label": {
        "labels": [
            {
                "address": "0xc6fa2ec714e0d1c70979fd044e65cce8b1344472",
                "label": "RM"
            },
            {
                "address": "0x0000000000000000000000000000000000000001",
                "label": "Precompiled"
            },
            {
                "address": "0x0000000000000000000000000000000000000002",
                "label": "Precompiled"
            },
            {
                "address": "0x0000000000000000000000000000000000000003",
                "label": "Precompiled"
            },
            {
                "address": "0x0000000000000000000000000000000000000004",
                "label": "Precompiled"
            },
            {
                "address": "0xeeeeeeeeeeeeeeeeeeeeeeeeeeeeeeeeeeeeeeee",
                "label": "Ether"
            }
        ]
    },
    "trace": {
        "accountLabels": null,
        "dataMap": {
            "-1": {
                "invocation": {
                    "address": "0x618b9df0ff57968ddabca82619668d66f52f0977",
                    "callData": "",
                    "decodedMethod": null,
                    "errorInfo": "",
                    "fromAddress": "",
                    "gasUsed": 0,
                    "id": -1,
                    "methodDecoded": false,
                    "operation": "",
                    "output": "",
                    "revert": false,
                    "revertMessage": "",
                    "selector": "",
                    "status": false,
                    "value": ""
                },
                "nodeType": 0
            },
            "0": {
                "invocation": {
                    "address": "0xc6fa2ec714e0d1c70979fd044e65cce8b1344472",
                    "callData": "0x00000000000000000000000015b6135182bfb13c97d110ff494a1ed84704af23000000000000000000000000000000000000000000000000000000000000620c",
                    "decodedMethod": {
                        "callParams": [
                            {
                                "name": "recipient",
                                "type": "address",
                                "value": "0x15b6135182bfb13c97d110ff494a1ed84704af23"
                            },
                            {
                                "decimalAvailable": true,
                                "name": "amount",
                                "type": "uint256",
                                "value": "25,100"
                            }
                        ],
                        "constructorArguments": "",
                        "name": "transfer",
                        "returnParams": [
                            {
                                "name": "",
                                "type": "bool",
                                "value": true
                            }
                        ],
                        "signature": "transfer(address,uint256)"
                    },
                    "errorInfo": "",
                    "fromAddress": "0x618b9df0ff57968ddabca82619668d66f52f0977",
                    "gasUsed": 36899,
                    "id": 0,
                    "methodDecoded": true,
                    "operation": "CALL",
                    "output": "0x0000000000000000000000000000000000000000000000000000000000000001",
                    "revert": false,
                    "revertMessage": "",
                    "selector": "0xa9059cbb",
                    "status": true,
                    "value": "0"
                },
                "nodeType": 0
            },
            "1": {
                "event": {
                    "contract": "0xc6fa2ec714e0d1c70979fd044e65cce8b1344472",
                    "decodedLog": {
                        "name": "Transfer",
                        "params": [
                            {
                                "name": "from",
                                "type": "address",
                                "value": "0x618b9df0ff57968ddabca82619668d66f52f0977"
                            },
                            {
                                "name": "to",
                                "type": "address",
                                "value": "0x15b6135182bfb13c97d110ff494a1ed84704af23"
                            },
                            {
                                "decimalAvailable": true,
                                "name": "value",
                                "type": "uint256",
                                "value": "25,100"
                            }
                        ],
                        "signature": "Transfer(address,address,uint256)"
                    },
                    "id": 1,
                    "logData": "0x000000000000000000000000000000000000000000000000000000000000620c",
                    "logDecoded": true,
                    "operation": "EVENT",
                    "revert": false,
                    "status": true,
                    "topics": [
                        "0xddf252ad1be2c89b69c2b068fc378daa952ba7f163c4a11628f55a4df523b3ef",
                        "0x000000000000000000000000618b9df0ff57968ddabca82619668d66f52f0977",
                        "0x00000000000000000000000015b6135182bfb13c97d110ff494a1ed84704af23"
                    ]
                },
                "nodeType": 1
            }
        },
        "gasFlame": [
            {
                "children": [
                    {
                        "children": [
                            {
                                "children": [],
                                "depth": 0,
                                "name": "Initial Gas",
                                "value": 22936
                            },
                            {
                                "children": [],
                                "depth": 0,
                                "name": "Executed Gas",
                                "value": 13963
                            }
                        ],
                        "depth": -1,
                        "name": "Actual Gas Used",
                        "value": 36899
                    },
                    {
                        "children": [],
                        "depth": -1,
                        "name": "Refunded Gas",
                        "value": 0
                    }
                ],
                "depth": -2,
                "name": "Total Gas",
                "value": 36899
            }
        ],
        "isConfirmed": true,
        "mainTrace": [
            {
                "children": [
                    {
                        "children": [
                            {
                                "children": [],
                                "depth": 1,
                                "id": 1,
                                "order": 1
                            }
                        ],
                        "depth": 0,
                        "id": 0,
                        "order": 0
                    }
                ],
                "depth": -1,
                "id": -1,
                "order": -1
            }
        ],
        "mainTraceNodeCount": 2,
        "parentIdMap": {
            "0": -1,
            "1": 0
        },
        "tidyTrace": [
            {
                "children": [
                    {
                        "children": [
                            {
                                "children": [],
                                "depth": 1,
                                "id": 1,
                                "order": 1
                            }
                        ],
                        "depth": 0,
                        "id": 0,
                        "order": 0
                    }
                ],
                "depth": -1,
                "id": -1,
                "order": -1
            }
        ],
        "tidyTraceNodeCount": 2
    },
    "state_change": {
        "stateChanges": [
            {
                "address": "0xc6fa2ec714e0d1c70979fd044e65cce8b1344472",
                "erc": "",
                "slots": [
                    {
                        "current": "0x0000000000000000000000000000000000000000000000000000002b9ef9c2d8",
                        "key": "0xfcee2981a1d7dcc3bb3bbfdb516bcc3aa04b66f3179823af2b4076cb8897fe85",
                        "prev": "0x0000000000000000000000000000000000000000000000000000002b9efa24e4"
                    },
                    {
                        "current": "0x000000000000000000000000000000000000000000000000000000000000c418",
                        "key": "0xf7d217db321359b7f9e774e42308be253c2b47e9eb05bd03dada2dd1b8b0b289",
                        "prev": "0x000000000000000000000000000000000000000000000000000000000000620c"
                    }
                ],
                "storageVariables": []
            }
        ]
    }
}