{
    "balance_change": {
        "balanceChanges": [
            {
                "account": "0xb5e02cd3f54c0541ae738ad3712b6da45a6f2b9e",
                "assets": [
                    {
                        "address": "0xcfabfe37648e6c58e608eba8f24d3ee099db119b",
                        "amount": "330",
                        "iconUrl": "",
                        "isERC1155": false,
                        "isERC721": false,
                        "sign": false,
                        "value": ""
                    }
                ]
            },
            {
                "account": "0x1fee6797aece0819ddab047c7496335bc607a9bd",
                "assets": [
                    {
                        "address": "0xcfabfe37648e6c58e608eba8f24d3ee099db119b",
                        "amount": "330",
                        "iconUrl": "",
                        "isERC1155": false,
                        "isERC721": false,
                        "sign": true,
                        "value": ""
                    }
                ]
            }
        ]
    },
    "profile": {
        "basic_info": {
            "baseFee": "",
            "blockNumber": 9191834,
            "callData": "0xa9059cbb0000000000000000000000001fee6797aece0819ddab047c7496335bc607a9bd00000000000000000000000000000000000000000000000000000007aef40a00",
            "debugEnable": true,
            "errorInfo": "",
            "eventCount": 1,
            "feeRecipient": "0xaa5c4244f05c92781c4f259913319d8ba1acf05e",
            "formatValue": "0",
            "gasLimit": 37135,
            "gasPrice": "22",
            "gasUsed": 37135,
            "intTxnCount": 0,
            "internalRevert": false,
            "internalRevertMessage": "",
            "isContractCreation": false,
            "isFlashloan": false,
            "maxFee": "",
            "nonce": 1434,
            "overwritedBlockNumber": -1,
            "priorityFee": "",
            "receiver": "0xcfabfe37648e6c58e608eba8f24d3ee099db119b",
            "revertMessage": "",
            "sender": "0xb5e02cd3f54c0541ae738ad3712b6da45a6f2b9e",
            "simulationEnable": true,
            "sourceTxnHash": "0x5afbe7e76d696c7077622e95e5bd7d74916bd87b00aa4d1c3df946d804d0a274",
            "status": true,
            "timestamp": "2019-12-31T17:05:56Z",
            "transactionFee": "0.00081697",
            "txnHash": "0x5afbe7e76d696c7077622e95e5bd7d74916bd87b00aa4d1c3df946d804d0a274",
            "txnIndex": 1,
            "type": 0,
            "value": "0"
        },
        "fund_flow": [
            {
                "amount": "330",
                "from": "0xb5e02cd3f54c0541ae738ad3712b6da45a6f2b9e",
                "id": 1,
                "isERC1155": false,
                "isERC721": false,
                "isReverted": false,
                "order": 1,
                "to": "0x1fee6797aece0819ddab047c7496335bc607a9bd",
                "token": "0xcfabfe37648e6c58e608eba8f24d3ee099db119b"
            }
        ],
        "token_infos": [
            {
                "address": "0xc02aaa39b223fe8d0a0e5c4f27ead9083c756cc2",
                "decimals": 18
            },
            {
                "address": "0xcfabfe37648e6c58e608eba8f24d3ee099db119b",
                "decimals": 8
            },
            {
                "address": "0xeeeeeeeeeeeeeeeeeeeeeeeeeeeeeeeeeeeeeeee",
                "decimals": 18
            }
        ]
    },
    "address_label": {
        "labels": [
            {
                "address": "0xeeeeeeeeeeeeeeeeeeeeeeeeeeeeeeeeeeeeeeee",
                "label": "Ether"
            },
            {
                "address": "0xcfabfe37648e6c58e608eba8f24d3ee099db119b",
                "label": "X-BOOM BLOCKCHAIN (X-BBC)"
            },
            {
                "address": "0x0000000000000000000000000000000000000001",
                "label": "Precompiled"
            },
            {
                "address": "0x0000000000000000000000000000000000000002",
                "label": "Precompiled"
            },
            {
                "address": "0x0000000000000000000000000000000000000003",
                "label": "Precompiled"
            },
            {
                "address": "0x0000000000000000000000000000000000000004",
                "label": "Precompiled"
            }
        ]
    },
    "trace": {
        "accountLabels": null,
        "dataMap": {
            "-1": {
                "invocation": {
                    "address": "0xb5e02cd3f54c0541ae738ad3712b6da45a6f2b9e",
                    "callData": "",
                    "decodedMethod": null,
                    "errorInfo": "",
                    "fromAddress": "",
                    "gasUsed": 0,
                    "id": -1,
                    "methodDecoded": false,
                    "operation": "",
                    "output": "",
                    "revert": false,
                    "revertMessage": "",
                    "selector": "",
                    "status": false,
                    "value": ""
                },
                "nodeType": 0
            },
            "0": {
                "invocation": {
                    "address": "0xcfabfe37648e6c58e608eba8f24d3ee099db119b",
                    "callData": "0x0000000000000000000000001fee6797aece0819ddab047c7496335bc607a9bd00000000000000000000000000000000000000000000000000000007aef40a00",
                    "decodedMethod": {
                        "callParams": [
                            {
                                "name": "_to",
                                "type": "address",
                                "value": "0x1fee6797aece0819ddab047c7496335bc607a9bd"
                            },
                            {
                                "decimalAvailable": true,
                                "name": "_value",
                                "type": "uint256",
                                "value": "33,000,000,000"
                            }
                        ],
                        "constructorArguments": "",
                        "name": "transfer",
                        "returnParams": [
                            {
                                "name": "",
                                "type": "bool",
                                "value": true
                            }
                        ],
                        "signature": "transfer(address,uint256)"
                    },
                    "errorInfo": "",
                    "fromAddress": "0xb5e02cd3f54c0541ae738ad3712b6da45a6f2b9e",
                    "gasUsed": 37135,
                    "id": 0,
                    "methodDecoded": true,
                    "operation": "CALL",
                    "output": "0x0000000000000000000000000000000000000000000000000000000000000001",
                    "revert": false,
                    "revertMessage": "",
                    "selector": "0xa9059cbb",
                    "status": true,
                    "value": "0"
                },
                "nodeType": 0
            },
            "1": {
                "event": {
                    "contract": "0xcfabfe37648e6c58e608eba8f24d3ee099db119b",
                    "decodedLog": {
                        "name": "Transfer",
                        "params": [
                            {
                                "name": "from",
                                "type": "address",
                                "value": "0xb5e02cd3f54c0541ae738ad3712b6da45a6f2b9e"
                            },
                            {
                                "name": "to",
                                "type": "address",
                                "value": "0x1fee6797aece0819ddab047c7496335bc607a9bd"
                            },
                            {
                                "decimalAvailable": true,
                                "name": "value",
                                "type": "uint256",
                                "value": "33,000,000,000"
                            }
                        ],
                        "signature": "Transfer(address,address,uint256)"
                    },
                    "id": 1,
                    "logData": "0x00000000000000000000000000000000000000000000000000000007aef40a00",
                    "logDecoded": true,
                    "operation": "EVENT",
                    "revert": false,
                    "status": true,
                    "topics": [
                        "0xddf252ad1be2c89b69c2b068fc378daa952ba7f163c4a11628f55a4df523b3ef",
                        "0x000000000000000000000000b5e02cd3f54c0541ae738ad3712b6da45a6f2b9e",
                        "0x0000000000000000000000001fee6797aece0819ddab047c7496335bc607a9bd"
                    ]
                },
                "nodeType": 1
            }
        },
        "gasFlame": [
            {
                "children": [
                    {
                        "children": [
                            {
                                "children": [],
                                "depth": 0,
                                "name": "Initial Gas",
                                "value": 21608
                            },
                            {
                                "children": [],
                                "depth": 0,
                                "name": "Executed Gas",
                                "value": 15527
                            }
                        ],
                        "depth": -1,
                        "name": "Actual Gas Used",
                        "value": 37135
                    },
                    {
                        "children": [],
                        "depth": -1,
                        "name": "Refunded Gas",
                        "value": 0
                    }
                ],
                "depth": -2,
                "name": "Total Gas",
                "value": 37135
            }
        ],
        "isConfirmed": true,
        "mainTrace": [
            {
                "children": [
                    {
                        "children": [
                            {
                                "children": [],
                                "depth": 1,
                                "id": 1,
                                "order": 1
                            }
                        ],
                        "depth": 0,
                        "id": 0,
                        "order": 0
                    }
                ],
                "depth": -1,
                "id": -1,
                "order": -1
            }
        ],
        "mainTraceNodeCount": 2,
        "parentIdMap": {
            "0": -1,
            "1": 0
        },
        "tidyTrace": [
            {
                "children": [
                    {
                        "children": [
                            {
                                "children": [],
                                "depth": 1,
                                "id": 1,
                                "order": 1
                            }
                        ],
                        "depth": 0,
                        "id": 0,
                        "order": 0
                    }
                ],
                "depth": -1,
                "id": -1,
                "order": -1
            }
        ],
        "tidyTraceNodeCount": 2
    },
    "state_change": {
        "stateChanges": [
            {
                "address": "0xcfabfe37648e6c58e608eba8f24d3ee099db119b",
                "erc": "ERC-20",
                "slots": [
                    {
                        "current": "0x00000000000000000000000000000000000000000000000000000035aadee100",
                        "key": "0x7273c703d8d15e6ced29b23c232c010fde3f06ba82a62af99f5860c4269be7fc",
                        "prev": "0x0000000000000000000000000000000000000000000000000000002dfbead700"
                    },
                    {
                        "current": "0x00000000000000000000000000000000000000000000000000000b546e021a70",
                        "key": "0x7258c054b177979fda54429b333a8561dbb744fe97f47e033ac51e4d7a66aa8d",
                        "prev": "0x00000000000000000000000000000000000000000000000000000b5c1cf62470"
                    }
                ],
                "storageVariables": [
                    {
                        "name": "balances",
                        "type": "mapping(address => uint256)",
                        "value": {
                            "pairs": [
                                {
                                    "key": "0x1fee6797aece0819ddab047c7496335bc607a9bd",
                                    "value": {
                                        "current": "230500000000",
                                        "prev": "197500000000",
                                        "typeTag": 1
                                    }
                                },
                                {
                                    "key": "0xb5e02cd3f54c0541ae738ad3712b6da45a6f2b9e",
                                    "value": {
                                        "current": "12457250790000",
                                        "prev": "12490250790000",
                                        "typeTag": 1
                                    }
                                }
                            ],
                            "typeTag": 4
                        }
                    }
                ]
            }
        ]
    }
}