{
    "balance_change": {
        "balanceChanges": [
            {
                "account": "0x4cfc703ad7c60d63588f7c5c71db52831404ffad",
                "assets": [
                    {
                        "address": "0xeeeeeeeeeeeeeeeeeeeeeeeeeeeeeeeeeeeeeeee",
                        "amount": "0.02042654903026133",
                        "iconUrl": "https://assets.blocksec.com/image/1663669189317-3.png",
                        "isERC1155": false,
                        "isERC721": false,
                        "sign": false,
                        "value": "35.584274003201798887"
                    }
                ]
            },
            {
                "account": "0xae0ee0a63a2ce6baeeffe56e7714fb4efe48d419",
                "assets": [
                    {
                        "address": "0xeeeeeeeeeeeeeeeeeeeeeeeeeeeeeeeeeeeeeeee",
                        "amount": "0.02",
                        "iconUrl": "https://assets.blocksec.com/image/1663669189317-3.png",
                        "isERC1155": false,
                        "isERC721": false,
                        "sign": true,
                        "value": "34.841199999999998907"
                    }
                ]
            },
            {
                "account": "0xc662c410c0ecf747543f5ba90660f6abebd9c8c4",
                "assets": [
                    {
                        "address": "0xeeeeeeeeeeeeeeeeeeeeeeeeeeeeeeeeeeeeeeee",
                        "amount": "0.00042654903026133",
                        "iconUrl": "https://assets.blocksec.com/image/1663669189317-3.png",
                        "isERC1155": false,
                        "isERC721": false,
                        "sign": true,
                        "value": "0.74307400372441797674"
                    }
                ]
            }
        ]
    },
    "profile": {
        "basic_info": {
            "baseFee": "15.129062447",
            "blockNumber": 17498112,
            "callData": "0xe2bbb15800000000000000000000000000000000000000000000000000470de4df82000007163a3d369684bc4334a381c2bd727ebd267843586e3c813b9e40ef4cfac67b",
            "debugEnable": true,
            "errorInfo": "",
            "eventCount": 2,
            "feeRecipient": "0x04241b41ecbd0bfdf1295e9d4fa59ea09e6c6186",
            "formatValue": "0.02042654903026133",
            "gasLimit": 175827,
            "gasPrice": "15.229062447",
            "gasUsed": 115843,
            "intTxnCount": 3,
            "internalRevert": false,
            "internalRevertMessage": "",
            "isContractCreation": false,
            "isFlashloan": false,
            "maxFee": "21.493187589",
            "nonce": 9,
            "overwritedBlockNumber": -1,
            "priorityFee": "0.1",
            "receiver": "0xae0ee0a63a2ce6baeeffe56e7714fb4efe48d419",
            "revertMessage": "",
            "sender": "0x4cfc703ad7c60d63588f7c5c71db52831404ffad",
            "simulationEnable": true,
            "sourceTxnHash": "0x5a9045afbf7cb4edb878e4d1a6b5acadd3bf6949fb0554b4a68540a9dc606b44",
            "status": true,
            "timestamp": "2023-06-17T07:42:59Z",
            "transactionFee": "0.001764180281047821",
            "txnHash": "0x5a9045afbf7cb4edb878e4d1a6b5acadd3bf6949fb0554b4a68540a9dc606b44",
            "txnIndex": 69,
            "type": 2,
            "value": "20426549030261330"
        },
        "fund_flow": [
            {
                "amount": "0.02042654903026133",
                "from": "0x4cfc703ad7c60d63588f7c5c71db52831404ffad",
                "id": 1,
                "isERC1155": false,
                "isERC721": false,
                "isReverted": false,
                "order": 1,
                "to": "0xae0ee0a63a2ce6baeeffe56e7714fb4efe48d419",
                "token": "0xeeeeeeeeeeeeeeeeeeeeeeeeeeeeeeeeeeeeeeee"
            },
            {
                "amount": "0.00042654903026133",
                "from": "0xae0ee0a63a2ce6baeeffe56e7714fb4efe48d419",
                "id": 2,
                "isERC1155": false,
                "isERC721": false,
                "isReverted": false,
                "order": 2,
                "to": "0xc662c410c0ecf747543f5ba90660f6abebd9c8c4",
                "token": "0xeeeeeeeeeeeeeeeeeeeeeeeeeeeeeeeeeeeeeeee"
            }
        ],
        "token_infos": [
            {
                "address": "0xc02aaa39b223fe8d0a0e5c4f27ead9083c756cc2",
                "decimals": 18
            },
            {
                "address": "0xeeeeeeeeeeeeeeeeeeeeeeeeeeeeeeeeeeeeeeee",
                "decimals": 18
            }
        ]
    },
    "address_label": {
        "labels": [
            {
                "address": "0x16938e4b59297060484fa56a12594d8d6f4177e8",
                "label": "Starknet"
            },
            {
                "address": "0x0000000000000000000000000000000000000004",
                "label": "Precompiled"
            },
            {
                "address": "0xeeeeeeeeeeeeeeeeeeeeeeeeeeeeeeeeeeeeeeee",
                "label": "Ether"
            },
            {
                "address": "0xc662c410c0ecf747543f5ba90660f6abebd9c8c4",
                "label": "Starknet: Core Contract"
            },
            {
                "address": "0xae0ee0a63a2ce6baeeffe56e7714fb4efe48d419",
                "label": "StarkNet: StarkGate ETH Bridge"
            },
            {
                "address": "0x455603ad9ae671f6c1f0f746f24d7904ca603581",
                "label": "StarknetEthBridge"
            },
            {
                "address": "0x0000000000000000000000000000000000000001",
                "label": "Precompiled"
            },
            {
                "address": "0x0000000000000000000000000000000000000002",
                "label": "Precompiled"
            },
            {
                "address": "0x0000000000000000000000000000000000000003",
                "label": "Precompiled"
            }
        ]
    },
    "trace": {
        "accountLabels": null,
        "dataMap": {
            "-1": {
                "invocation": {
                    "address": "0x4cfc703ad7c60d63588f7c5c71db52831404ffad",
                    "callData": "",
                    "decodedMethod": null,
                    "errorInfo": "",
                    "fromAddress": "",
                    "gasUsed": 0,
                    "id": -1,
                    "methodDecoded": false,
                    "operation": "",
                    "output": "",
                    "revert": false,
                    "revertMessage": "",
                    "selector": "",
                    "status": false,
                    "value": ""
                },
                "nodeType": 0
            },
            "0": {
                "invocation": {
                    "address": "0xae0ee0a63a2ce6baeeffe56e7714fb4efe48d419",
                    "callData": "0x00000000000000000000000000000000000000000000000000470de4df82000007163a3d369684bc4334a381c2bd727ebd267843586e3c813b9e40ef4cfac67b",
                    "decodedMethod": {
                        "callParams": [
                            {
                                "name": "amount",
                                "type": "uint256",
                                "value": "20,000,000,000,000,000"
                            },
                            {
                                "name": "l2Recipient",
                                "type": "uint256",
                                "value": "3,205,462,527,101,633,191,319,279,110,058,176,321,636,678,969,250,113,280,272,330,195,277,849,478,779"
                            }
                        ],
                        "constructorArguments": "",
                        "name": "deposit",
                        "returnParams": [],
                        "signature": "deposit(uint256,uint256)"
                    },
                    "errorInfo": "",
                    "fromAddress": "0x4cfc703ad7c60d63588f7c5c71db52831404ffad",
                    "gasUsed": 115843,
                    "id": 0,
                    "methodDecoded": true,
                    "operation": "CALL",
                    "output": "",
                    "revert": false,
                    "revertMessage": "",
                    "selector": "0xe2bbb158",
                    "status": true,
                    "value": "0.02042654903026133"
                },
                "nodeType": 0
            },
            "1": {
                "invocation": {
                    "address": "0x455603ad9ae671f6c1f0f746f24d7904ca603581",
                    "callData": "0x00000000000000000000000000000000000000000000000000470de4df82000007163a3d369684bc4334a381c2bd727ebd267843586e3c813b9e40ef4cfac67b",
                    "decodedMethod": {
                        "callParams": [
                            {
                                "name": "amount",
                                "type": "uint256",
                                "value": "20,000,000,000,000,000"
                            },
                            {
                                "name": "l2Recipient",
                                "type": "uint256",
                                "value": "3,205,462,527,101,633,191,319,279,110,058,176,321,636,678,969,250,113,280,272,330,195,277,849,478,779"
                            }
                        ],
                        "constructorArguments": "",
                        "name": "deposit",
                        "returnParams": [],
                        "signature": "deposit(uint256,uint256)"
                    },
                    "errorInfo": "",
                    "fromAddress": "0xae0ee0a63a2ce6baeeffe56e7714fb4efe48d419",
                    "gasUsed": 89037,
                    "id": 1,
                    "methodDecoded": true,
                    "operation": "DELEGATECALL",
                    "output": "",
                    "revert": false,
                    "revertMessage": "",
                    "selector": "0xe2bbb158",
                    "status": true,
                    "value": "0.02042654903026133"
                },
                "nodeType": 0
            },
            "2": {
                "invocation": {
                    "address": "0xc662c410c0ecf747543f5ba90660f6abebd9c8c4",
                    "callData": "0x073314940630fd6dcda0d772d4c972c4e0a9946bef9dabf4ef84eda8ef542b8202d757788a8d8d6f21d1cd40bce38a8222d70654214e96ff95d8086e684fbee50000000000000000000000000000000000000000000000000000000000000060000000000000000000000000000000000000000000000000000000000000000307163a3d369684bc4334a381c2bd727ebd267843586e3c813b9e40ef4cfac67b00000000000000000000000000000000000000000000000000470de4df8200000000000000000000000000000000000000000000000000000000000000000000",
                    "decodedMethod": {
                        "callParams": [
                            {
                                "name": "toAddress",
                                "type": "uint256",
                                "value": "3,256,441,166,037,631,918,262,930,812,410,838,598,500,200,462,657,642,943,867,372,734,773,841,898,370"
                            },
                            {
                                "name": "selector",
                                "type": "uint256",
                                "value": "1,285,101,517,810,983,806,491,589,552,491,143,496,277,809,242,732,141,897,358,598,292,095,611,420,389"
                            },
                            {
                                "name": "payload",
                                "type": "uint256[]",
                                "value": [
                                    "3,205,462,527,101,633,191,319,279,110,058,176,321,636,678,969,250,113,280,272,330,195,277,849,478,779",
                                    "20,000,000,000,000,000",
                                    "0"
                                ]
                            }
                        ],
                        "constructorArguments": "",
                        "name": "sendMessageToL2",
                        "returnParams": [
                            {
                                "name": "",
                                "type": "bytes32",
                                "value": "0x338e31af28b88fa0a34485ec73f62377f63c6f951b90fec2f5db7f63c2f6a691"
                            },
                            {
                                "name": "",
                                "type": "uint256",
                                "value": "658,890"
                            }
                        ],
                        "signature": "sendMessageToL2(uint256,uint256,uint256[])"
                    },
                    "errorInfo": "",
                    "fromAddress": "0xae0ee0a63a2ce6baeeffe56e7714fb4efe48d419",
                    "gasUsed": 39012,
                    "id": 2,
                    "methodDecoded": true,
                    "operation": "CALL",
                    "output": "0x338e31af28b88fa0a34485ec73f62377f63c6f951b90fec2f5db7f63c2f6a69100000000000000000000000000000000000000000000000000000000000a0dca",
                    "revert": false,
                    "revertMessage": "",
                    "selector": "0x3e3aa6c5",
                    "status": true,
                    "value": "0.00042654903026133"
                },
                "nodeType": 0
            },
            "3": {
                "invocation": {
                    "address": "0x16938e4b59297060484fa56a12594d8d6f4177e8",
                    "callData": "0x073314940630fd6dcda0d772d4c972c4e0a9946bef9dabf4ef84eda8ef542b8202d757788a8d8d6f21d1cd40bce38a8222d70654214e96ff95d8086e684fbee50000000000000000000000000000000000000000000000000000000000000060000000000000000000000000000000000000000000000000000000000000000307163a3d369684bc4334a381c2bd727ebd267843586e3c813b9e40ef4cfac67b00000000000000000000000000000000000000000000000000470de4df8200000000000000000000000000000000000000000000000000000000000000000000",
                    "decodedMethod": {
                        "callParams": [
                            {
                                "name": "toAddress",
                                "type": "uint256",
                                "value": "3,256,441,166,037,631,918,262,930,812,410,838,598,500,200,462,657,642,943,867,372,734,773,841,898,370"
                            },
                            {
                                "name": "selector",
                                "type": "uint256",
                                "value": "1,285,101,517,810,983,806,491,589,552,491,143,496,277,809,242,732,141,897,358,598,292,095,611,420,389"
                            },
                            {
                                "name": "payload",
                                "type": "uint256[]",
                                "value": [
                                    "3,205,462,527,101,633,191,319,279,110,058,176,321,636,678,969,250,113,280,272,330,195,277,849,478,779",
                                    "20,000,000,000,000,000",
                                    "0"
                                ]
                            }
                        ],
                        "constructorArguments": "",
                        "name": "sendMessageToL2",
                        "returnParams": [
                            {
                                "name": "",
                                "type": "bytes32",
                                "value": "0x338e31af28b88fa0a34485ec73f62377f63c6f951b90fec2f5db7f63c2f6a691"
                            },
                            {
                                "name": "",
                                "type": "uint256",
                                "value": "658,890"
                            }
                        ],
                        "signature": "sendMessageToL2(uint256,uint256,uint256[])"
                    },
                    "errorInfo": "",
                    "fromAddress": "0xc662c410c0ecf747543f5ba90660f6abebd9c8c4",
                    "gasUsed": 33954,
                    "id": 3,
                    "methodDecoded": true,
                    "operation": "DELEGATECALL",
                    "output": "0x338e31af28b88fa0a34485ec73f62377f63c6f951b90fec2f5db7f63c2f6a69100000000000000000000000000000000000000000000000000000000000a0dca",
                    "revert": false,
                    "revertMessage": "",
                    "selector": "0x3e3aa6c5",
                    "status": true,
                    "value": "0.00042654903026133"
                },
                "nodeType": 0
            },
            "4": {
                "event": {
                    "contract": "0xc662c410c0ecf747543f5ba90660f6abebd9c8c4",
                    "decodedLog": {
                        "name": "LogMessageToL2",
                        "params": [
                            {
                                "name": "fromAddress",
                                "type": "address",
                                "value": "0xae0ee0a63a2ce6baeeffe56e7714fb4efe48d419"
                            },
                            {
                                "name": "toAddress",
                                "type": "uint256",
                                "value": "3,256,441,166,037,631,918,262,930,812,410,838,598,500,200,462,657,642,943,867,372,734,773,841,898,370"
                            },
                            {
                                "name": "selector",
                                "type": "uint256",
                                "value": "1,285,101,517,810,983,806,491,589,552,491,143,496,277,809,242,732,141,897,358,598,292,095,611,420,389"
                            },
                            {
                                "name": "payload",
                                "type": "uint256[]",
                                "value": [
                                    "3,205,462,527,101,633,191,319,279,110,058,176,321,636,678,969,250,113,280,272,330,195,277,849,478,779",
                                    "20,000,000,000,000,000",
                                    "0"
                                ]
                            },
                            {
                                "name": "nonce",
                                "type": "uint256",
                                "value": "658,890"
                            },
                            {
                                "name": "fee",
                                "type": "uint256",
                                "value": "426,549,030,261,330"
                            }
                        ],
                        "signature": "LogMessageToL2(address,uint256,uint256,uint256[],uint256,uint256)"
                    },
                    "id": 4,
                    "logData": "0x000000000000000000000000000000000000000000000000000000000000006000000000000000000000000000000000000000000000000000000000000a0dca000000000000000000000000000000000000000000000000000183f1af6d9252000000000000000000000000000000000000000000000000000000000000000307163a3d369684bc4334a381c2bd727ebd267843586e3c813b9e40ef4cfac67b00000000000000000000000000000000000000000000000000470de4df8200000000000000000000000000000000000000000000000000000000000000000000",
                    "logDecoded": true,
                    "operation": "EVENT",
                    "revert": false,
                    "status": true,
                    "topics": [
                        "0xdb80dd488acf86d17c747445b0eabb5d57c541d3bd7b6b87af987858e5066b2b",
                        "0x000000000000000000000000ae0ee0a63a2ce6baeeffe56e7714fb4efe48d419",
                        "0x073314940630fd6dcda0d772d4c972c4e0a9946bef9dabf4ef84eda8ef542b82",
                        "0x02d757788a8d8d6f21d1cd40bce38a8222d70654214e96ff95d8086e684fbee5"
                    ]
                },
                "nodeType": 1
            },
            "5": {
                "event": {
                    "contract": "0xae0ee0a63a2ce6baeeffe56e7714fb4efe48d419",
                    "decodedLog": {
                        "name": "LogDeposit",
                        "params": [
                            {
                                "name": "sender",
                                "type": "address",
                                "value": "0x4cfc703ad7c60d63588f7c5c71db52831404ffad"
                            },
                            {
                                "name": "l2Recipient",
                                "type": "uint256",
                                "value": "3,205,462,527,101,633,191,319,279,110,058,176,321,636,678,969,250,113,280,272,330,195,277,849,478,779"
                            },
                            {
                                "name": "amount",
                                "type": "uint256",
                                "value": "20,000,000,000,000,000"
                            },
                            {
                                "name": "nonce",
                                "type": "uint256",
                                "value": "658,890"
                            },
                            {
                                "name": "fee",
                                "type": "uint256",
                                "value": "426,549,030,261,330"
                            }
                        ],
                        "signature": "LogDeposit(address,uint256,uint256,uint256,uint256)"
                    },
                    "id": 5,
                    "logData": "0x00000000000000000000000000000000000000000000000000470de4df82000000000000000000000000000000000000000000000000000000000000000a0dca000000000000000000000000000000000000000000000000000183f1af6d9252",
                    "logDecoded": true,
                    "operation": "EVENT",
                    "revert": false,
                    "status": true,
                    "topics": [
                        "0x5b5dbc6c64043a15d3fe6943a6e443a826b78755edc257b2ec890c022225dbcf",
                        "0x0000000000000000000000004cfc703ad7c60d63588f7c5c71db52831404ffad",
                        "0x07163a3d369684bc4334a381c2bd727ebd267843586e3c813b9e40ef4cfac67b"
                    ]
                },
                "nodeType": 1
            }
        },
        "gasFlame": [
            {
                "children": [
                    {
                        "children": [
                            {
                                "children": [],
                                "depth": 0,
                                "name": "Initial Gas",
                                "value": 21764
                            },
                            {
                                "children": [
                                    {
                                        "children": [
                                            {
                                                "children": [
                                                    {
                                                        "children": [],
                                                        "depth": 3,
                                                        "name": "sendMessageToL2",
                                                        "value": 33954
                                                    }
                                                ],
                                                "depth": 2,
                                                "name": "sendMessageToL2",
                                                "value": 39012
                                            }
                                        ],
                                        "depth": 1,
                                        "name": "deposit",
                                        "value": 89037
                                    }
                                ],
                                "depth": 0,
                                "name": "Executed Gas",
                                "value": 94079
                            }
                        ],
                        "depth": -1,
                        "name": "Actual Gas Used",
                        "value": 115843
                    },
                    {
                        "children": [],
                        "depth": -1,
                        "name": "Refunded Gas",
                        "value": 0
                    }
                ],
                "depth": -2,
                "name": "Total Gas",
                "value": 115843
            }
        ],
        "isConfirmed": true,
        "mainTrace": [
            {
                "children": [
                    {
                        "children": [
                            {
                                "children": [
                                    {
                                        "children": [
                                            {
                                                "children": [
                                                    {
                                                        "children": [],
                                                        "depth": 4,
                                                        "id": 4,
                                                        "order": 4
                                                    }
                                                ],
                                                "depth": 3,
                                                "id": 3,
                                                "order": 3
                                            }
                                        ],
                                        "depth": 2,
                                        "id": 2,
                                        "order": 2
                                    },
                                    {
                                        "children": [],
                                        "depth": 2,
                                        "id": 5,
                                        "order": 5
                                    }
                                ],
                                "depth": 1,
                                "id": 1,
                                "order": 1
                            }
                        ],
                        "depth": 0,
                        "id": 0,
                        "order": 0
                    }
                ],
                "depth": -1,
                "id": -1,
                "order": -1
            }
        ],
        "mainTraceNodeCount": 6,
        "parentIdMap": {
            "0": -1,
            "1": 0,
            "2": 1,
            "3": 2,
            "4": 3,
            "5": 1
        },
        "tidyTrace": [
            {
                "children": [
                    {
                        "children": [
                            {
                                "children": [
                                    {
                                        "children": [
                                            {
                                                "children": [
                                                    {
                                                        "children": [],
                                                        "depth": 4,
                                                        "id": 4,
                                                        "order": 4
                                                    }
                                                ],
                                                "depth": 3,
                                                "id": 3,
                                                "order": 3
                                            }
                                        ],
                                        "depth": 2,
                                        "id": 2,
                                        "order": 2
                                    },
                                    {
                                        "children": [],
                                        "depth": 2,
                                        "id": 5,
                                        "order": 5
                                    }
                                ],
                                "depth": 1,
                                "id": 1,
                                "order": 1
                            }
                        ],
                        "depth": 0,
                        "id": 0,
                        "order": 0
                    }
                ],
                "depth": -1,
                "id": -1,
                "order": -1
            }
        ],
        "tidyTraceNodeCount": 6
    },
    "state_change": {
        "stateChanges": [
            {
                "address": "0xae0ee0a63a2ce6baeeffe56e7714fb4efe48d419",
                "erc": "",
                "slots": [
                    {
                        "current": "0x0000000000000000000000004cfc703ad7c60d63588f7c5c71db52831404ffad",
                        "key": "0x256ba5abb8257e7cba118678a0cd6ad7630c437218d4562e297b908515b2879b",
                        "prev": "0x0000000000000000000000000000000000000000000000000000000000000000"
                    }
                ],
                "storageVariables": []
            },
            {
                "address": "0xc662c410c0ecf747543f5ba90660f6abebd9c8c4",
                "erc": "",
                "slots": [
                    {
                        "current": "0x00000000000000000000000000000000000000000000000000000000000a0dcb",
                        "key": "0x40af3c5d10641ea6a095e7a9b843218461f4c8d604207c721ffceec9721b1ac5",
                        "prev": "0x00000000000000000000000000000000000000000000000000000000000a0dca"
                    },
                    {
                        "current": "0x000000000000000000000000000000000000000000000000000183f1af6d9253",
                        "key": "0xc02a53e58e0893bc487cd4dccfc626d49660d9c176d3e41af6b5825de68ebc18",
                        "prev": "0x0000000000000000000000000000000000000000000000000000000000000000"
                    }
                ],
                "storageVariables": []
            }
        ]
    }
}