{
    "balance_change": {
        "balanceChanges": [
            {
                "account": "0xb7e7d12575025e7acdd012c470ba7ab25654dd69",
                "assets": [
                    {
                        "address": "0x4501b184694b401b53b3a4f266f8ef24fec09df8",
                        "amount": "118.87",
                        "iconUrl": "",
                        "isERC1155": false,
                        "isERC721": false,
                        "sign": false,
                        "value": ""
                    }
                ]
            },
            {
                "account": "0x4822c1295583b99f5117f6d170978f1a41139f9f",
                "assets": [
                    {
                        "address": "0x4501b184694b401b53b3a4f266f8ef24fec09df8",
                        "amount": "118.87",
                        "iconUrl": "",
                        "isERC1155": false,
                        "isERC721": false,
                        "sign": true,
                        "value": ""
                    }
                ]
            }
        ]
    },
    "profile": {
        "basic_info": {
            "baseFee": "",
            "blockNumber": 10093463,
            "callData": "0xa9059cbb0000000000000000000000004822c1295583b99f5117f6d170978f1a41139f9f00000000000000000000000000000000000000000000000671a7133322af0000",
            "debugEnable": true,
            "errorInfo": "",
            "eventCount": 1,
            "feeRecipient": "0x5a0b54d5dc17e0aadc383d2db43b0a0d3e029c4c",
            "formatValue": "0",
            "gasLimit": 60000,
            "gasPrice": "24.22000594",
            "gasUsed": 37223,
            "intTxnCount": 0,
            "internalRevert": false,
            "internalRevertMessage": "",
            "isContractCreation": false,
            "isFlashloan": false,
            "maxFee": "",
            "nonce": 59,
            "overwritedBlockNumber": -1,
            "priorityFee": "",
            "receiver": "0x4501b184694b401b53b3a4f266f8ef24fec09df8",
            "revertMessage": "",
            "sender": "0xb7e7d12575025e7acdd012c470ba7ab25654dd69",
            "simulationEnable": true,
            "sourceTxnHash": "0x5a55d7839a1f715e615581a56a7fd643caadc011240425108d7e7aa246ff2c0a",
            "status": true,
            "timestamp": "2020-05-19T01:33:35Z",
            "transactionFee": "0.00090154128110462",
            "txnHash": "0x5a55d7839a1f715e615581a56a7fd643caadc011240425108d7e7aa246ff2c0a",
            "txnIndex": 112,
            "type": 0,
            "value": "0"
        },
        "fund_flow": [
            {
                "amount": "118.87",
                "from": "0xb7e7d12575025e7acdd012c470ba7ab25654dd69",
                "id": 1,
                "isERC1155": false,
                "isERC721": false,
                "isReverted": false,
                "order": 1,
                "to": "0x4822c1295583b99f5117f6d170978f1a41139f9f",
                "token": "0x4501b184694b401b53b3a4f266f8ef24fec09df8"
            }
        ],
        "token_infos": [
            {
                "address": "0x4501b184694b401b53b3a4f266f8ef24fec09df8",
                "decimals": 18
            },
            {
                "address": "0xc02aaa39b223fe8d0a0e5c4f27ead9083c756cc2",
                "decimals": 18
            },
            {
                "address": "0xeeeeeeeeeeeeeeeeeeeeeeeeeeeeeeeeeeeeeeee",
                "decimals": 18
            }
        ]
    },
    "address_label": {
        "labels": [
            {
                "address": "0xeeeeeeeeeeeeeeeeeeeeeeeeeeeeeeeeeeeeeeee",
                "label": "Ether"
            },
            {
                "address": "0x4501b184694b401b53b3a4f266f8ef24fec09df8",
                "label": "FDG (FDG)"
            },
            {
                "address": "0x0000000000000000000000000000000000000001",
                "label": "Precompiled"
            },
            {
                "address": "0x0000000000000000000000000000000000000002",
                "label": "Precompiled"
            },
            {
                "address": "0x0000000000000000000000000000000000000003",
                "label": "Precompiled"
            },
            {
                "address": "0x0000000000000000000000000000000000000004",
                "label": "Precompiled"
            }
        ]
    },
    "trace": {
        "accountLabels": null,
        "dataMap": {
            "-1": {
                "invocation": {
                    "address": "0xb7e7d12575025e7acdd012c470ba7ab25654dd69",
                    "callData": "",
                    "decodedMethod": null,
                    "errorInfo": "",
                    "fromAddress": "",
                    "gasUsed": 0,
                    "id": -1,
                    "methodDecoded": false,
                    "operation": "",
                    "output": "",
                    "revert": false,
                    "revertMessage": "",
                    "selector": "",
                    "status": false,
                    "value": ""
                },
                "nodeType": 0
            },
            "0": {
                "invocation": {
                    "address": "0x4501b184694b401b53b3a4f266f8ef24fec09df8",
                    "callData": "0x0000000000000000000000004822c1295583b99f5117f6d170978f1a41139f9f00000000000000000000000000000000000000000000000671a7133322af0000",
                    "decodedMethod": {
                        "callParams": [
                            {
                                "name": "to",
                                "type": "address",
                                "value": "0x4822c1295583b99f5117f6d170978f1a41139f9f"
                            },
                            {
                                "decimalAvailable": true,
                                "name": "value",
                                "type": "uint256",
                                "value": "118,870,000,000,000,000,000"
                            }
                        ],
                        "constructorArguments": "",
                        "name": "transfer",
                        "returnParams": [
                            {
                                "name": "",
                                "type": "bool",
                                "value": true
                            }
                        ],
                        "signature": "transfer(address,uint256)"
                    },
                    "errorInfo": "",
                    "fromAddress": "0xb7e7d12575025e7acdd012c470ba7ab25654dd69",
                    "gasUsed": 37223,
                    "id": 0,
                    "methodDecoded": true,
                    "operation": "CALL",
                    "output": "0x0000000000000000000000000000000000000000000000000000000000000001",
                    "revert": false,
                    "revertMessage": "",
                    "selector": "0xa9059cbb",
                    "status": true,
                    "value": "0"
                },
                "nodeType": 0
            },
            "1": {
                "event": {
                    "contract": "0x4501b184694b401b53b3a4f266f8ef24fec09df8",
                    "decodedLog": {
                        "name": "Transfer",
                        "params": [
                            {
                                "name": "from",
                                "type": "address",
                                "value": "0xb7e7d12575025e7acdd012c470ba7ab25654dd69"
                            },
                            {
                                "name": "to",
                                "type": "address",
                                "value": "0x4822c1295583b99f5117f6d170978f1a41139f9f"
                            },
                            {
                                "decimalAvailable": true,
                                "name": "value",
                                "type": "uint256",
                                "value": "118,870,000,000,000,000,000"
                            }
                        ],
                        "signature": "Transfer(address,address,uint256)"
                    },
                    "id": 1,
                    "logData": "0x00000000000000000000000000000000000000000000000671a7133322af0000",
                    "logDecoded": true,
                    "operation": "EVENT",
                    "revert": false,
                    "status": true,
                    "topics": [
                        "0xddf252ad1be2c89b69c2b068fc378daa952ba7f163c4a11628f55a4df523b3ef",
                        "0x000000000000000000000000b7e7d12575025e7acdd012c470ba7ab25654dd69",
                        "0x0000000000000000000000004822c1295583b99f5117f6d170978f1a41139f9f"
                    ]
                },
                "nodeType": 1
            }
        },
        "gasFlame": [
            {
                "children": [
                    {
                        "children": [
                            {
                                "children": [],
                                "depth": 0,
                                "name": "Initial Gas",
                                "value": 21644
                            },
                            {
                                "children": [],
                                "depth": 0,
                                "name": "Executed Gas",
                                "value": 15579
                            }
                        ],
                        "depth": -1,
                        "name": "Actual Gas Used",
                        "value": 37223
                    },
                    {
                        "children": [],
                        "depth": -1,
                        "name": "Refunded Gas",
                        "value": 0
                    }
                ],
                "depth": -2,
                "name": "Total Gas",
                "value": 37223
            }
        ],
        "isConfirmed": true,
        "mainTrace": [
            {
                "children": [
                    {
                        "children": [
                            {
                                "children": [],
                                "depth": 1,
                                "id": 1,
                                "order": 1
                            }
                        ],
                        "depth": 0,
                        "id": 0,
                        "order": 0
                    }
                ],
                "depth": -1,
                "id": -1,
                "order": -1
            }
        ],
        "mainTraceNodeCount": 2,
        "parentIdMap": {
            "0": -1,
            "1": 0
        },
        "tidyTrace": [
            {
                "children": [
                    {
                        "children": [
                            {
                                "children": [],
                                "depth": 1,
                                "id": 1,
                                "order": 1
                            }
                        ],
                        "depth": 0,
                        "id": 0,
                        "order": 0
                    }
                ],
                "depth": -1,
                "id": -1,
                "order": -1
            }
        ],
        "tidyTraceNodeCount": 2
    },
    "state_change": {
        "stateChanges": [
            {
                "address": "0x4501b184694b401b53b3a4f266f8ef24fec09df8",
                "erc": "ERC-20",
                "slots": [
                    {
                        "current": "0x000000000000000000000000000000000000000000000000000b4661a8b49c30",
                        "key": "0x522f742e79ad5b37006c1516ba1041243482ed7fb0e601ec1083c9910ba9a45c",
                        "prev": "0x00000000000000000000000000000000000000000000000671b25994cb639c30"
                    },
                    {
                        "current": "0x0000000000000000000000000000000000000000000000319bd7577c87780000",
                        "key": "0xee03f18c97f133f45118bbd33c7bba77221c3d1e315a8081bbc40cff985fc9a3",
                        "prev": "0x00000000000000000000000000000000000000000000002b2a30444964c90000"
                    }
                ],
                "storageVariables": [
                    {
                        "name": "_balances",
                        "type": "mapping(address => uint256)",
                        "value": {
                            "pairs": [
                                {
                                    "key": "0x4822c1295583b99f5117f6d170978f1a41139f9f",
                                    "value": {
                                        "current": "915120000000000000000",
                                        "prev": "796250000000000000000",
                                        "typeTag": 1
                                    }
                                },
                                {
                                    "key": "0xb7e7d12575025e7acdd012c470ba7ab25654dd69",
                                    "value": {
                                        "current": "3173609999998000",
                                        "prev": "118873173609999998000",
                                        "typeTag": 1
                                    }
                                }
                            ],
                            "typeTag": 4
                        }
                    }
                ]
            }
        ]
    }
}