{
    "balance_change": {
        "balanceChanges": [
            {
                "account": "0x3f5ce5fbfe3e9af3971dd833d26ba9b5c936f0be",
                "assets": [
                    {
                        "address": "0xd26114cd6ee289accf82350c8d8487fedb8a0c07",
                        "amount": "144.16539",
                        "iconUrl": "https://assets.blocksec.com/icon/33337523e3649cd91abcb0cac0df074ff9512695abafe3958d0a610195d87716.png",
                        "isERC1155": false,
                        "isERC721": false,
                        "sign": false,
                        "value": ""
                    }
                ]
            },
            {
                "account": "0xff8b67648a3002a183c1155056b1526abb3af90f",
                "assets": [
                    {
                        "address": "0xd26114cd6ee289accf82350c8d8487fedb8a0c07",
                        "amount": "144.16539",
                        "iconUrl": "https://assets.blocksec.com/icon/33337523e3649cd91abcb0cac0df074ff9512695abafe3958d0a610195d87716.png",
                        "isERC1155": false,
                        "isERC721": false,
                        "sign": true,
                        "value": ""
                    }
                ]
            }
        ]
    },
    "profile": {
        "basic_info": {
            "baseFee": "",
            "blockNumber": 4876050,
            "callData": "0xa9059cbb000000000000000000000000ff8b67648a3002a183c1155056b1526abb3af90f000000000000000000000000000000000000000000000007d0b25a624fa6e000",
            "debugEnable": true,
            "errorInfo": "",
            "eventCount": 1,
            "feeRecipient": "0x829bd824b016326a401d083b33d092293333a830",
            "formatValue": "0",
            "gasLimit": 74444,
            "gasPrice": "90",
            "gasUsed": 37222,
            "intTxnCount": 0,
            "internalRevert": false,
            "internalRevertMessage": "",
            "isContractCreation": false,
            "isFlashloan": false,
            "maxFee": "",
            "nonce": 1458875,
            "overwritedBlockNumber": -1,
            "priorityFee": "",
            "receiver": "0xd26114cd6ee289accf82350c8d8487fedb8a0c07",
            "revertMessage": "",
            "sender": "0x3f5ce5fbfe3e9af3971dd833d26ba9b5c936f0be",
            "simulationEnable": true,
            "sourceTxnHash": "0x5a14b68ee90c7bfe0be6cbff973342cb727ef4225c115cb124692292f77245df",
            "status": true,
            "timestamp": "2018-01-08T19:30:16Z",
            "transactionFee": "0.00334998",
            "txnHash": "0x5a14b68ee90c7bfe0be6cbff973342cb727ef4225c115cb124692292f77245df",
            "txnIndex": 44,
            "type": 0,
            "value": "0"
        },
        "fund_flow": [
            {
                "amount": "144.16539",
                "from": "0x3f5ce5fbfe3e9af3971dd833d26ba9b5c936f0be",
                "id": 1,
                "isERC1155": false,
                "isERC721": false,
                "isReverted": false,
                "order": 1,
                "to": "0xff8b67648a3002a183c1155056b1526abb3af90f",
                "token": "0xd26114cd6ee289accf82350c8d8487fedb8a0c07"
            }
        ],
        "token_infos": [
            {
                "address": "0xc02aaa39b223fe8d0a0e5c4f27ead9083c756cc2",
                "decimals": 18
            },
            {
                "address": "0xd26114cd6ee289accf82350c8d8487fedb8a0c07",
                "decimals": 18
            },
            {
                "address": "0xeeeeeeeeeeeeeeeeeeeeeeeeeeeeeeeeeeeeeeee",
                "decimals": 18
            }
        ]
    },
    "address_label": {
        "labels": [
            {
                "address": "0x3f5ce5fbfe3e9af3971dd833d26ba9b5c936f0be",
                "label": "Binance"
            },
            {
                "address": "0x0000000000000000000000000000000000000001",
                "label": "Precompiled"
            },
            {
                "address": "0x0000000000000000000000000000000000000002",
                "label": "Precompiled"
            },
            {
                "address": "0x0000000000000000000000000000000000000003",
                "label": "Precompiled"
            },
            {
                "address": "0x0000000000000000000000000000000000000004",
                "label": "Precompiled"
            },
            {
                "address": "0xeeeeeeeeeeeeeeeeeeeeeeeeeeeeeeeeeeeeeeee",
                "label": "Ether"
            },
            {
                "address": "0xd26114cd6ee289accf82350c8d8487fedb8a0c07",
                "label": "OMG Network: OMG Token"
            }
        ]
    },
    "trace": {
        "accountLabels": null,
        "dataMap": {
            "-1": {
                "invocation": {
                    "address": "0x3f5ce5fbfe3e9af3971dd833d26ba9b5c936f0be",
                    "callData": "",
                    "decodedMethod": null,
                    "errorInfo": "",
                    "fromAddress": "",
                    "gasUsed": 0,
                    "id": -1,
                    "methodDecoded": false,
                    "operation": "",
                    "output": "",
                    "revert": false,
                    "revertMessage": "",
                    "selector": "",
                    "status": false,
                    "value": ""
                },
                "nodeType": 0
            },
            "0": {
                "invocation": {
                    "address": "0xd26114cd6ee289accf82350c8d8487fedb8a0c07",
                    "callData": "0x000000000000000000000000ff8b67648a3002a183c1155056b1526abb3af90f000000000000000000000000000000000000000000000007d0b25a624fa6e000",
                    "decodedMethod": {
                        "callParams": [
                            {
                                "name": "_to",
                                "type": "address",
                                "value": "0xff8b67648a3002a183c1155056b1526abb3af90f"
                            },
                            {
                                "decimalAvailable": true,
                                "name": "_value",
                                "type": "uint256",
                                "value": "144,165,390,000,000,000,000"
                            }
                        ],
                        "constructorArguments": "",
                        "name": "transfer",
                        "returnParams": [],
                        "signature": "transfer(address,uint256)"
                    },
                    "errorInfo": "",
                    "fromAddress": "0x3f5ce5fbfe3e9af3971dd833d26ba9b5c936f0be",
                    "gasUsed": 37222,
                    "id": 0,
                    "methodDecoded": true,
                    "operation": "CALL",
                    "output": "",
                    "revert": false,
                    "revertMessage": "",
                    "selector": "0xa9059cbb",
                    "status": true,
                    "value": "0"
                },
                "nodeType": 0
            },
            "1": {
                "event": {
                    "contract": "0xd26114cd6ee289accf82350c8d8487fedb8a0c07",
                    "decodedLog": {
                        "name": "Transfer",
                        "params": [
                            {
                                "name": "from",
                                "type": "address",
                                "value": "0x3f5ce5fbfe3e9af3971dd833d26ba9b5c936f0be"
                            },
                            {
                                "name": "to",
                                "type": "address",
                                "value": "0xff8b67648a3002a183c1155056b1526abb3af90f"
                            },
                            {
                                "decimalAvailable": true,
                                "name": "value",
                                "type": "uint256",
                                "value": "144,165,390,000,000,000,000"
                            }
                        ],
                        "signature": "Transfer(address,address,uint256)"
                    },
                    "id": 1,
                    "logData": "0x000000000000000000000000000000000000000000000007d0b25a624fa6e000",
                    "logDecoded": true,
                    "operation": "EVENT",
                    "revert": false,
                    "status": true,
                    "topics": [
                        "0xddf252ad1be2c89b69c2b068fc378daa952ba7f163c4a11628f55a4df523b3ef",
                        "0x0000000000000000000000003f5ce5fbfe3e9af3971dd833d26ba9b5c936f0be",
                        "0x000000000000000000000000ff8b67648a3002a183c1155056b1526abb3af90f"
                    ]
                },
                "nodeType": 1
            }
        },
        "gasFlame": [
            {
                "children": [
                    {
                        "children": [
                            {
                                "children": [],
                                "depth": 0,
                                "name": "Initial Gas",
                                "value": 23320
                            },
                            {
                                "children": [],
                                "depth": 0,
                                "name": "Executed Gas",
                                "value": 13902
                            }
                        ],
                        "depth": -1,
                        "name": "Actual Gas Used",
                        "value": 37222
                    },
                    {
                        "children": [],
                        "depth": -1,
                        "name": "Refunded Gas",
                        "value": 0
                    }
                ],
                "depth": -2,
                "name": "Total Gas",
                "value": 37222
            }
        ],
        "isConfirmed": true,
        "mainTrace": [
            {
                "children": [
                    {
                        "children": [
                            {
                                "children": [],
                                "depth": 1,
                                "id": 1,
                                "order": 1
                            }
                        ],
                        "depth": 0,
                        "id": 0,
                        "order": 0
                    }
                ],
                "depth": -1,
                "id": -1,
                "order": -1
            }
        ],
        "mainTraceNodeCount": 2,
        "parentIdMap": {
            "0": -1,
            "1": 0
        },
        "tidyTrace": [
            {
                "children": [
                    {
                        "children": [
                            {
                                "children": [],
                                "depth": 1,
                                "id": 1,
                                "order": 1
                            }
                        ],
                        "depth": 0,
                        "id": 0,
                        "order": 0
                    }
                ],
                "depth": -1,
                "id": -1,
                "order": -1
            }
        ],
        "tidyTraceNodeCount": 2
    },
    "state_change": {
        "stateChanges": [
            {
                "address": "0xd26114cd6ee289accf82350c8d8487fedb8a0c07",
                "erc": "ERC-20",
                "slots": [
                    {
                        "current": "0x0000000000000000000000000000000000000000000050ff62cb6ff9f82aede0",
                        "key": "0x70571e0937d308e48dbe6a59e67c45883ee934fe35a8749f1652cd54e334aac8",
                        "prev": "0x000000000000000000000000000000000000000000005107337dca5c47d1cde0"
                    },
                    {
                        "current": "0x00000000000000000000000000000000000000000000001aa168eadae5186800",
                        "key": "0x45a2a1984ca61033c14c3f93db48124dc70bbe611ae589acd01a5acd2d339165",
                        "prev": "0x000000000000000000000000000000000000000000000012d0b6907895718800"
                    }
                ],
                "storageVariables": []
            }
        ]
    }
}