{
    "balance_change": {
        "balanceChanges": [
            {
                "account": "0x579a8d63a2db646284cbfe31fe5082c9989e985c",
                "assets": [
                    {
                        "address": "0x10dea67478c5f8c5e2d90e5e9b26dbe60c54d800",
                        "amount": "500",
                        "iconUrl": "",
                        "isERC1155": false,
                        "isERC721": false,
                        "sign": false,
                        "value": "896.657415"
                    }
                ]
            },
            {
                "account": "0x06a9ab27c7e2255df1815e6cc0168d7755feb19a",
                "assets": [
                    {
                        "address": "0x10dea67478c5f8c5e2d90e5e9b26dbe60c54d800",
                        "amount": "500",
                        "iconUrl": "",
                        "isERC1155": false,
                        "isERC721": false,
                        "sign": true,
                        "value": "896.657415"
                    }
                ]
            }
        ]
    },
    "profile": {
        "basic_info": {
            "baseFee": "15.186522855",
            "blockNumber": 20184725,
            "callData": "0x98984761319a721d7b2249e588c5c7b68f97324b43e58af64ee54c3a62747001de89acbaf3f28e034f4e040139f2f7056dfd1dc284369a9ffe712d2dddd97b8cf3191cb40128e2f6ba1b12e36edf3bceb0430b27385e0f27729a4f5d184bdcd88615f0fa302e31382e302d64657600000000000000000000000000000000000000000000569e75fc77c1a856f6daaf9e69d8a9566ca34aa47f9133711ce065a571af0cfd000000000000000000000000000000633b68f5d8d3a86593ebb815b4663bcbe00000000000000000000000000000000000000000000000000000000000019f19000000000000000000000000000000000000000000000000000000000e4e1c0000000000000000000000000000000000000000000000000000000000667d8ea7000000000000000000000000000000000000000000000000000000000133fc3a00000000000000000000000000000000000000000000000000000000000000c80000000000000000000000000000000000000000000000000000000000000001445fc725e6e5524b267ab113e5805b3a7668a4b26e57547cb6717dfe05d9497500000000000000000000000068d30f47f19c07bccef4ac7fae2dc12fca3e0dc972db2d318a7c20f0baa22c01885063dc9ac1a4ad579c7b1f8a46f1eddf4810acb471ad9666aa3baa1a6eb85422658ba267f2e65975cbda2e8f1e9096074a2f07f274fee5ec96792cd558156c556015986950f9bc060f3fc4718fceac3e08cca946726f73742077617320686572650000000000000000000000000000000000000000000000000000000000000000000000000000000000000000000000000260000000000000000000000000000000000000000000000000000000000000038400000000000000000000000000000000000000000000000000000000000000400000000000000000000000000000000000000000000000000000000000000064ffffffffffffffffffffffffffffffffffffffffffffffffffffffffffffffffffffffffffffffffffffffffffffffffffffffffffffffffffffffffffffffffffffffffffffffffffffffffffffffffffffffffffffffffffffffffffffffffffffffff00000000000000000000000000000000000000000000000000000000",
            "debugEnable": true,
            "errorInfo": "",
            "eventCount": 5,
            "feeRecipient": "0x1f9090aae28b8a3dceadf281b0f12828e676c326",
            "formatValue": "0",
            "gasLimit": 3000000,
            "gasPrice": "16.186522855",
            "gasUsed": 322953,
            "intTxnCount": 28,
            "internalRevert": false,
            "internalRevertMessage": "",
            "isContractCreation": false,
            "isFlashloan": false,
            "maxFee": "31.446485678",
            "nonce": 20,
            "overwritedBlockNumber": -1,
            "priorityFee": "1",
            "receiver": "0x579a8d63a2db646284cbfe31fe5082c9989e985c",
            "revertMessage": "",
            "sender": "0x5cfeb9a72256b1b49dc2c98b1b7b99d172d50b68",
            "simulationEnable": true,
            "sourceTxnHash": "0x5b28a5c30fe2a7c49d1e26bb188d29c44465e10bc74ec03c6f39cee1a951ea0f",
            "status": true,
            "timestamp": "2024-06-27T18:10:11Z",
            "transactionFee": "0.005227486115590815",
            "txnHash": "0x5b28a5c30fe2a7c49d1e26bb188d29c44465e10bc74ec03c6f39cee1a951ea0f",
            "txnIndex": 106,
            "type": 2,
            "value": "0"
        },
        "fund_flow": [
            {
                "amount": "500",
                "from": "0x579a8d63a2db646284cbfe31fe5082c9989e985c",
                "id": 1,
                "isERC1155": false,
                "isERC721": false,
                "isReverted": false,
                "order": 1,
                "to": "0x06a9ab27c7e2255df1815e6cc0168d7755feb19a",
                "token": "0x10dea67478c5f8c5e2d90e5e9b26dbe60c54d800"
            }
        ],
        "token_infos": [
            {
                "address": "0x10dea67478c5f8c5e2d90e5e9b26dbe60c54d800",
                "decimals": 18
            },
            {
                "address": "0xc02aaa39b223fe8d0a0e5c4f27ead9083c756cc2",
                "decimals": 18
            },
            {
                "address": "0xeeeeeeeeeeeeeeeeeeeeeeeeeeeeeeeeeeeeeeee",
                "decimals": 18
            }
        ]
    },
    "address_label": {
        "labels": [
            {
                "address": "0x4cffe56c947e26d07c14020499776db3e9ae3a23",
                "label": "TierProviderV2"
            },
            {
                "address": "0x8eef314878a7e56314e8df285d0b0d649c903af6",
                "label": "L1RollupAddressManager"
            },
            {
                "address": "0x000000633b68f5d8d3a86593ebb815b4663bcbe0",
                "label": "Taikobeat Proposer"
            },
            {
                "address": "0x579a8d63a2db646284cbfe31fe5082c9989e985c",
                "label": "ERC1967Proxy"
            },
            {
                "address": "0xa8e5d3a2e2052bea7f10be6a0386454b721d1f9f",
                "label": "TierRouter"
            },
            {
                "address": "0x0000000000000000000000000000000000000001",
                "label": "Precompiled"
            },
            {
                "address": "0x0000000000000000000000000000000000000003",
                "label": "Precompiled"
            },
            {
                "address": "0x06a9ab27c7e2255df1815e6cc0168d7755feb19a",
                "label": "Taiko: L1"
            },
            {
                "address": "0xb9e1e58bcf33b79ccff99c298963546a6c334388",
                "label": "TaikoL1"
            },
            {
                "address": "0x0000000000000000000000000000000000000002",
                "label": "Precompiled"
            },
            {
                "address": "0xeeeeeeeeeeeeeeeeeeeeeeeeeeeeeeeeeeeeeeee",
                "label": "Ether"
            },
            {
                "address": "0x10dea67478c5f8c5e2d90e5e9b26dbe60c54d800",
                "label": "Taiko: TAIKO Token"
            },
            {
                "address": "0x579f40d0be111b823962043702cabe6aaa290780",
                "label": "Taiko: Rollup Address Manager"
            },
            {
                "address": "0x68d30f47f19c07bccef4ac7fae2dc12fca3e0dc9",
                "label": "Taiko: LabProver"
            },
            {
                "address": "0x7e717ffd6f7dd1008192bdc7193904fab25bc8a4",
                "label": "GuardianProver"
            },
            {
                "address": "0x55833da2962c2330cccf043ff8037e6d2939bcf6",
                "label": "TaikoToken"
            },
            {
                "address": "0x0000000000000000000000000000000000000004",
                "label": "Precompiled"
            }
        ]
    },
    "trace": {
        "accountLabels": null,
        "dataMap": {
            "-1": {
                "invocation": {
                    "address": "0x5cfeb9a72256b1b49dc2c98b1b7b99d172d50b68",
                    "callData": "",
                    "decodedMethod": null,
                    "errorInfo": "",
                    "fromAddress": "",
                    "gasUsed": 0,
                    "id": -1,
                    "methodDecoded": false,
                    "operation": "",
                    "output": "",
                    "revert": false,
                    "revertMessage": "",
                    "selector": "",
                    "status": false,
                    "value": ""
                },
                "nodeType": 0
            },
            "0": {
                "invocation": {
                    "address": "0x579a8d63a2db646284cbfe31fe5082c9989e985c",
                    "callData": "0x319a721d7b2249e588c5c7b68f97324b43e58af64ee54c3a62747001de89acbaf3f28e034f4e040139f2f7056dfd1dc284369a9ffe712d2dddd97b8cf3191cb40128e2f6ba1b12e36edf3bceb0430b27385e0f27729a4f5d184bdcd88615f0fa302e31382e302d64657600000000000000000000000000000000000000000000569e75fc77c1a856f6daaf9e69d8a9566ca34aa47f9133711ce065a571af0cfd000000000000000000000000000000633b68f5d8d3a86593ebb815b4663bcbe00000000000000000000000000000000000000000000000000000000000019f19000000000000000000000000000000000000000000000000000000000e4e1c0000000000000000000000000000000000000000000000000000000000667d8ea7000000000000000000000000000000000000000000000000000000000133fc3a00000000000000000000000000000000000000000000000000000000000000c80000000000000000000000000000000000000000000000000000000000000001445fc725e6e5524b267ab113e5805b3a7668a4b26e57547cb6717dfe05d9497500000000000000000000000068d30f47f19c07bccef4ac7fae2dc12fca3e0dc972db2d318a7c20f0baa22c01885063dc9ac1a4ad579c7b1f8a46f1eddf4810acb471ad9666aa3baa1a6eb85422658ba267f2e65975cbda2e8f1e9096074a2f07f274fee5ec96792cd558156c556015986950f9bc060f3fc4718fceac3e08cca946726f73742077617320686572650000000000000000000000000000000000000000000000000000000000000000000000000000000000000000000000000260000000000000000000000000000000000000000000000000000000000000038400000000000000000000000000000000000000000000000000000000000000400000000000000000000000000000000000000000000000000000000000000064ffffffffffffffffffffffffffffffffffffffffffffffffffffffffffffffffffffffffffffffffffffffffffffffffffffffffffffffffffffffffffffffffffffffffffffffffffffffffffffffffffffffffffffffffffffffffffffffffffffffff00000000000000000000000000000000000000000000000000000000",
                    "decodedMethod": {
                        "callParams": [
                            {
                                "name": "_meta",
                                "type": "(bytes32,bytes32,bytes32,bytes32,bytes32,address,uint64,uint32,uint64,uint64,uint16,bool,bytes32,address)",
                                "value": [
                                    {
                                        "name": "l1Hash",
                                        "type": "bytes32",
                                        "value": "0x319a721d7b2249e588c5c7b68f97324b43e58af64ee54c3a62747001de89acba"
                                    },
                                    {
                                        "name": "difficulty",
                                        "type": "bytes32",
                                        "value": "0xf3f28e034f4e040139f2f7056dfd1dc284369a9ffe712d2dddd97b8cf3191cb4"
                                    },
                                    {
                                        "name": "blobHash",
                                        "type": "bytes32",
                                        "value": "0x0128e2f6ba1b12e36edf3bceb0430b27385e0f27729a4f5d184bdcd88615f0fa"
                                    },
                                    {
                                        "name": "extraData",
                                        "type": "bytes32",
                                        "value": "0x302e31382e302d64657600000000000000000000000000000000000000000000"
                                    },
                                    {
                                        "name": "depositsHash",
                                        "type": "bytes32",
                                        "value": "0x569e75fc77c1a856f6daaf9e69d8a9566ca34aa47f9133711ce065a571af0cfd"
                                    },
                                    {
                                        "name": "coinbase",
                                        "type": "address",
                                        "value": "0x000000633b68f5d8d3a86593ebb815b4663bcbe0"
                                    },
                                    {
                                        "name": "id",
                                        "type": "uint64",
                                        "value": "106,265"
                                    },
                                    {
                                        "name": "gasLimit",
                                        "type": "uint32",
                                        "value": "240,000,000"
                                    },
                                    {
                                        "name": "timestamp",
                                        "type": "uint64",
                                        "value": "1,719,504,551"
                                    },
                                    {
                                        "name": "l1Height",
                                        "type": "uint64",
                                        "value": "20,184,122"
                                    },
                                    {
                                        "name": "minTier",
                                        "type": "uint16",
                                        "value": "200"
                                    },
                                    {
                                        "name": "blobUsed",
                                        "type": "bool",
                                        "value": true
                                    },
                                    {
                                        "name": "parentMetaHash",
                                        "type": "bytes32",
                                        "value": "0x445fc725e6e5524b267ab113e5805b3a7668a4b26e57547cb6717dfe05d94975"
                                    },
                                    {
                                        "name": "sender",
                                        "type": "address",
                                        "value": "0x68d30f47f19c07bccef4ac7fae2dc12fca3e0dc9"
                                    }
                                ]
                            },
                            {
                                "name": "_tran",
                                "type": "(bytes32,bytes32,bytes32,bytes32)",
                                "value": [
                                    {
                                        "name": "parentHash",
                                        "type": "bytes32",
                                        "value": "0x72db2d318a7c20f0baa22c01885063dc9ac1a4ad579c7b1f8a46f1eddf4810ac"
                                    },
                                    {
                                        "name": "blockHash",
                                        "type": "bytes32",
                                        "value": "0xb471ad9666aa3baa1a6eb85422658ba267f2e65975cbda2e8f1e9096074a2f07"
                                    },
                                    {
                                        "name": "stateRoot",
                                        "type": "bytes32",
                                        "value": "0xf274fee5ec96792cd558156c556015986950f9bc060f3fc4718fceac3e08cca9"
                                    },
                                    {
                                        "name": "graffiti",
                                        "type": "bytes32",
                                        "value": "0x46726f7374207761732068657265000000000000000000000000000000000000"
                                    }
                                ]
                            },
                            {
                                "name": "_proof",
                                "type": "(uint16,bytes)",
                                "value": [
                                    {
                                        "name": "tier",
                                        "type": "uint16",
                                        "value": "900"
                                    },
                                    {
                                        "name": "data",
                                        "type": "bytes",
                                        "value": "0xffffffffffffffffffffffffffffffffffffffffffffffffffffffffffffffffffffffffffffffffffffffffffffffffffffffffffffffffffffffffffffffffffffffffffffffffffffffffffffffffffffffffffffffffffffffffffffffffffffffff"
                                    }
                                ]
                            }
                        ],
                        "constructorArguments": "",
                        "name": "approve",
                        "returnParams": [
                            {
                                "name": "approved_",
                                "type": "bool",
                                "value": true
                            }
                        ],
                        "signature": "approve((bytes32,bytes32,bytes32,bytes32,bytes32,address,uint64,uint32,uint64,uint64,uint16,bool,bytes32,address),(bytes32,bytes32,bytes32,bytes32),(uint16,bytes))"
                    },
                    "errorInfo": "",
                    "fromAddress": "0x5cfeb9a72256b1b49dc2c98b1b7b99d172d50b68",
                    "gasUsed": 322953,
                    "id": 0,
                    "methodDecoded": true,
                    "operation": "CALL",
                    "output": "0x0000000000000000000000000000000000000000000000000000000000000001",
                    "revert": false,
                    "revertMessage": "",
                    "selector": "0x98984761",
                    "status": true,
                    "value": "0"
                },
                "nodeType": 0
            },
            "1": {
                "invocation": {
                    "address": "0x7e717ffd6f7dd1008192bdc7193904fab25bc8a4",
                    "callData": "0x319a721d7b2249e588c5c7b68f97324b43e58af64ee54c3a62747001de89acbaf3f28e034f4e040139f2f7056dfd1dc284369a9ffe712d2dddd97b8cf3191cb40128e2f6ba1b12e36edf3bceb0430b27385e0f27729a4f5d184bdcd88615f0fa302e31382e302d64657600000000000000000000000000000000000000000000569e75fc77c1a856f6daaf9e69d8a9566ca34aa47f9133711ce065a571af0cfd000000000000000000000000000000633b68f5d8d3a86593ebb815b4663bcbe00000000000000000000000000000000000000000000000000000000000019f19000000000000000000000000000000000000000000000000000000000e4e1c0000000000000000000000000000000000000000000000000000000000667d8ea7000000000000000000000000000000000000000000000000000000000133fc3a00000000000000000000000000000000000000000000000000000000000000c80000000000000000000000000000000000000000000000000000000000000001445fc725e6e5524b267ab113e5805b3a7668a4b26e57547cb6717dfe05d9497500000000000000000000000068d30f47f19c07bccef4ac7fae2dc12fca3e0dc972db2d318a7c20f0baa22c01885063dc9ac1a4ad579c7b1f8a46f1eddf4810acb471ad9666aa3baa1a6eb85422658ba267f2e65975cbda2e8f1e9096074a2f07f274fee5ec96792cd558156c556015986950f9bc060f3fc4718fceac3e08cca946726f73742077617320686572650000000000000000000000000000000000000000000000000000000000000000000000000000000000000000000000000260000000000000000000000000000000000000000000000000000000000000038400000000000000000000000000000000000000000000000000000000000000400000000000000000000000000000000000000000000000000000000000000064ffffffffffffffffffffffffffffffffffffffffffffffffffffffffffffffffffffffffffffffffffffffffffffffffffffffffffffffffffffffffffffffffffffffffffffffffffffffffffffffffffffffffffffffffffffffffffffffffffffffff00000000000000000000000000000000000000000000000000000000",
                    "decodedMethod": {
                        "callParams": [
                            {
                                "name": "_meta",
                                "type": "(bytes32,bytes32,bytes32,bytes32,bytes32,address,uint64,uint32,uint64,uint64,uint16,bool,bytes32,address)",
                                "value": [
                                    {
                                        "name": "l1Hash",
                                        "type": "bytes32",
                                        "value": "0x319a721d7b2249e588c5c7b68f97324b43e58af64ee54c3a62747001de89acba"
                                    },
                                    {
                                        "name": "difficulty",
                                        "type": "bytes32",
                                        "value": "0xf3f28e034f4e040139f2f7056dfd1dc284369a9ffe712d2dddd97b8cf3191cb4"
                                    },
                                    {
                                        "name": "blobHash",
                                        "type": "bytes32",
                                        "value": "0x0128e2f6ba1b12e36edf3bceb0430b27385e0f27729a4f5d184bdcd88615f0fa"
                                    },
                                    {
                                        "name": "extraData",
                                        "type": "bytes32",
                                        "value": "0x302e31382e302d64657600000000000000000000000000000000000000000000"
                                    },
                                    {
                                        "name": "depositsHash",
                                        "type": "bytes32",
                                        "value": "0x569e75fc77c1a856f6daaf9e69d8a9566ca34aa47f9133711ce065a571af0cfd"
                                    },
                                    {
                                        "name": "coinbase",
                                        "type": "address",
                                        "value": "0x000000633b68f5d8d3a86593ebb815b4663bcbe0"
                                    },
                                    {
                                        "name": "id",
                                        "type": "uint64",
                                        "value": "106,265"
                                    },
                                    {
                                        "name": "gasLimit",
                                        "type": "uint32",
                                        "value": "240,000,000"
                                    },
                                    {
                                        "name": "timestamp",
                                        "type": "uint64",
                                        "value": "1,719,504,551"
                                    },
                                    {
                                        "name": "l1Height",
                                        "type": "uint64",
                                        "value": "20,184,122"
                                    },
                                    {
                                        "name": "minTier",
                                        "type": "uint16",
                                        "value": "200"
                                    },
                                    {
                                        "name": "blobUsed",
                                        "type": "bool",
                                        "value": true
                                    },
                                    {
                                        "name": "parentMetaHash",
                                        "type": "bytes32",
                                        "value": "0x445fc725e6e5524b267ab113e5805b3a7668a4b26e57547cb6717dfe05d94975"
                                    },
                                    {
                                        "name": "sender",
                                        "type": "address",
                                        "value": "0x68d30f47f19c07bccef4ac7fae2dc12fca3e0dc9"
                                    }
                                ]
                            },
                            {
                                "name": "_tran",
                                "type": "(bytes32,bytes32,bytes32,bytes32)",
                                "value": [
                                    {
                                        "name": "parentHash",
                                        "type": "bytes32",
                                        "value": "0x72db2d318a7c20f0baa22c01885063dc9ac1a4ad579c7b1f8a46f1eddf4810ac"
                                    },
                                    {
                                        "name": "blockHash",
                                        "type": "bytes32",
                                        "value": "0xb471ad9666aa3baa1a6eb85422658ba267f2e65975cbda2e8f1e9096074a2f07"
                                    },
                                    {
                                        "name": "stateRoot",
                                        "type": "bytes32",
                                        "value": "0xf274fee5ec96792cd558156c556015986950f9bc060f3fc4718fceac3e08cca9"
                                    },
                                    {
                                        "name": "graffiti",
                                        "type": "bytes32",
                                        "value": "0x46726f7374207761732068657265000000000000000000000000000000000000"
                                    }
                                ]
                            },
                            {
                                "name": "_proof",
                                "type": "(uint16,bytes)",
                                "value": [
                                    {
                                        "name": "tier",
                                        "type": "uint16",
                                        "value": "900"
                                    },
                                    {
                                        "name": "data",
                                        "type": "bytes",
                                        "value": "0xffffffffffffffffffffffffffffffffffffffffffffffffffffffffffffffffffffffffffffffffffffffffffffffffffffffffffffffffffffffffffffffffffffffffffffffffffffffffffffffffffffffffffffffffffffffffffffffffffffffff"
                                    }
                                ]
                            }
                        ],
                        "constructorArguments": "",
                        "name": "approve",
                        "returnParams": [
                            {
                                "name": "approved_",
                                "type": "bool",
                                "value": true
                            }
                        ],
                        "signature": "approve((bytes32,bytes32,bytes32,bytes32,bytes32,address,uint64,uint32,uint64,uint64,uint16,bool,bytes32,address),(bytes32,bytes32,bytes32,bytes32),(uint16,bytes))"
                    },
                    "errorInfo": "",
                    "fromAddress": "0x579a8d63a2db646284cbfe31fe5082c9989e985c",
                    "gasUsed": 328053,
                    "id": 1,
                    "methodDecoded": true,
                    "operation": "DELEGATECALL",
                    "output": "0x0000000000000000000000000000000000000000000000000000000000000001",
                    "revert": false,
                    "revertMessage": "",
                    "selector": "0x98984761",
                    "status": true,
                    "value": "0"
                },
                "nodeType": 0
            },
            "10": {
                "invocation": {
                    "address": "0x06a9ab27c7e2255df1815e6cc0168d7755feb19a",
                    "callData": "0x746965725f726f757465720000000000000000000000000000000000000000000000000000000000000000000000000000000000000000000000000000000000",
                    "decodedMethod": {
                        "callParams": [
                            {
                                "name": "_name",
                                "type": "bytes32",
                                "value": "0x746965725f726f75746572000000000000000000000000000000000000000000"
                            },
                            {
                                "name": "_allowZeroAddress",
                                "type": "bool",
                                "value": false
                            }
                        ],
                        "constructorArguments": "",
                        "name": "resolve",
                        "returnParams": [
                            {
                                "name": "",
                                "type": "address",
                                "value": "0xa8e5d3a2e2052bea7f10be6a0386454b721d1f9f"
                            }
                        ],
                        "signature": "resolve(bytes32,bool)"
                    },
                    "errorInfo": "",
                    "fromAddress": "0x06a9ab27c7e2255df1815e6cc0168d7755feb19a",
                    "gasUsed": 2837,
                    "id": 10,
                    "methodDecoded": true,
                    "operation": "STATICCALL",
                    "output": "0x000000000000000000000000a8e5d3a2e2052bea7f10be6a0386454b721d1f9f",
                    "revert": false,
                    "revertMessage": "",
                    "selector": "0xa86f9d9e",
                    "status": true,
                    "value": "0"
                },
                "nodeType": 0
            },
            "11": {
                "invocation": {
                    "address": "0xb9e1e58bcf33b79ccff99c298963546a6c334388",
                    "callData": "0x746965725f726f757465720000000000000000000000000000000000000000000000000000000000000000000000000000000000000000000000000000000000",
                    "decodedMethod": {
                        "callParams": [
                            {
                                "name": "_name",
                                "type": "bytes32",
                                "value": "0x746965725f726f75746572000000000000000000000000000000000000000000"
                            },
                            {
                                "name": "_allowZeroAddress",
                                "type": "bool",
                                "value": false
                            }
                        ],
                        "constructorArguments": "",
                        "name": "resolve",
                        "returnParams": [
                            {
                                "name": "",
                                "type": "address",
                                "value": "0xa8e5d3a2e2052bea7f10be6a0386454b721d1f9f"
                            }
                        ],
                        "signature": "resolve(bytes32,bool)"
                    },
                    "errorInfo": "",
                    "fromAddress": "0x06a9ab27c7e2255df1815e6cc0168d7755feb19a",
                    "gasUsed": 2442,
                    "id": 11,
                    "methodDecoded": true,
                    "operation": "DELEGATECALL",
                    "output": "0x000000000000000000000000a8e5d3a2e2052bea7f10be6a0386454b721d1f9f",
                    "revert": false,
                    "revertMessage": "",
                    "selector": "0xa86f9d9e",
                    "status": true,
                    "value": "0"
                },
                "nodeType": 0
            },
            "12": {
                "invocation": {
                    "address": "0x579f40d0be111b823962043702cabe6aaa290780",
                    "callData": "0x0000000000000000000000000000000000000000000000000000000000000001746965725f726f75746572000000000000000000000000000000000000000000",
                    "decodedMethod": {
                        "callParams": [
                            {
                                "name": "_chainId",
                                "type": "uint64",
                                "value": "1"
                            },
                            {
                                "name": "_name",
                                "type": "bytes32",
                                "value": "0x746965725f726f75746572000000000000000000000000000000000000000000"
                            }
                        ],
                        "constructorArguments": "",
                        "name": "getAddress",
                        "returnParams": [
                            {
                                "name": "",
                                "type": "address",
                                "value": "0xa8e5d3a2e2052bea7f10be6a0386454b721d1f9f"
                            }
                        ],
                        "signature": "getAddress(uint64,bytes32)"
                    },
                    "errorInfo": "",
                    "fromAddress": "0x06a9ab27c7e2255df1815e6cc0168d7755feb19a",
                    "gasUsed": 1254,
                    "id": 12,
                    "methodDecoded": true,
                    "operation": "STATICCALL",
                    "output": "0x000000000000000000000000a8e5d3a2e2052bea7f10be6a0386454b721d1f9f",
                    "revert": false,
                    "revertMessage": "",
                    "selector": "0x28f713cc",
                    "status": true,
                    "value": "0"
                },
                "nodeType": 0
            },
            "13": {
                "invocation": {
                    "address": "0x8eef314878a7e56314e8df285d0b0d649c903af6",
                    "callData": "0x0000000000000000000000000000000000000000000000000000000000000001746965725f726f75746572000000000000000000000000000000000000000000",
                    "decodedMethod": {
                        "callParams": [
                            {
                                "name": "_chainId",
                                "type": "uint64",
                                "value": "1"
                            },
                            {
                                "name": "_name",
                                "type": "bytes32",
                                "value": "0x746965725f726f75746572000000000000000000000000000000000000000000"
                            }
                        ],
                        "constructorArguments": "",
                        "name": "getAddress",
                        "returnParams": [
                            {
                                "name": "",
                                "type": "address",
                                "value": "0xa8e5d3a2e2052bea7f10be6a0386454b721d1f9f"
                            }
                        ],
                        "signature": "getAddress(uint64,bytes32)"
                    },
                    "errorInfo": "",
                    "fromAddress": "0x579f40d0be111b823962043702cabe6aaa290780",
                    "gasUsed": 859,
                    "id": 13,
                    "methodDecoded": true,
                    "operation": "DELEGATECALL",
                    "output": "0x000000000000000000000000a8e5d3a2e2052bea7f10be6a0386454b721d1f9f",
                    "revert": false,
                    "revertMessage": "",
                    "selector": "0x28f713cc",
                    "status": true,
                    "value": "0"
                },
                "nodeType": 0
            },
            "14": {
                "invocation": {
                    "address": "0xa8e5d3a2e2052bea7f10be6a0386454b721d1f9f",
                    "callData": "0x0000000000000000000000000000000000000000000000000000000000019f19",
                    "decodedMethod": {
                        "callParams": [
                            {
                                "name": "",
                                "type": "uint256",
                                "value": "106,265"
                            }
                        ],
                        "constructorArguments": "",
                        "name": "getProvider",
                        "returnParams": [
                            {
                                "name": "",
                                "type": "address",
                                "value": "0x4cffe56c947e26d07c14020499776db3e9ae3a23"
                            }
                        ],
                        "signature": "getProvider(uint256)"
                    },
                    "errorInfo": "",
                    "fromAddress": "0x06a9ab27c7e2255df1815e6cc0168d7755feb19a",
                    "gasUsed": 259,
                    "id": 14,
                    "methodDecoded": true,
                    "operation": "STATICCALL",
                    "output": "0x0000000000000000000000004cffe56c947e26d07c14020499776db3e9ae3a23",
                    "revert": false,
                    "revertMessage": "",
                    "selector": "0x5c42d079",
                    "status": true,
                    "value": "0"
                },
                "nodeType": 0
            },
            "15": {
                "invocation": {
                    "address": "0x4cffe56c947e26d07c14020499776db3e9ae3a23",
                    "callData": "0x0000000000000000000000000000000000000000000000000000000000000384",
                    "decodedMethod": {
                        "callParams": [
                            {
                                "name": "_tierId",
                                "type": "uint16",
                                "value": "900"
                            }
                        ],
                        "constructorArguments": "",
                        "name": "getTier",
                        "returnParams": [
                            {
                                "name": "",
                                "type": "(bytes32,uint96,uint96,uint24,uint16,uint8)",
                                "value": [
                                    {
                                        "name": "verifierName",
                                        "type": "bytes32",
                                        "value": "0x746965725f677561726469616e5f6d696e6f7269747900000000000000000000"
                                    },
                                    {
                                        "name": "validityBond",
                                        "type": "uint96",
                                        "value": "500,000,000,000,000,000,000"
                                    },
                                    {
                                        "name": "contestBond",
                                        "type": "uint96",
                                        "value": "3,280,000,000,000,000,000,000"
                                    },
                                    {
                                        "name": "cooldownWindow",
                                        "type": "uint24",
                                        "value": "1,440"
                                    },
                                    {
                                        "name": "provingWindow",
                                        "type": "uint16",
                                        "value": "2,880"
                                    },
                                    {
                                        "name": "maxBlocksToVerifyPerProof",
                                        "type": "uint8",
                                        "value": "16"
                                    }
                                ]
                            }
                        ],
                        "signature": "getTier(uint16)"
                    },
                    "errorInfo": "",
                    "fromAddress": "0x06a9ab27c7e2255df1815e6cc0168d7755feb19a",
                    "gasUsed": 913,
                    "id": 15,
                    "methodDecoded": true,
                    "operation": "STATICCALL",
                    "output": "0x746965725f677561726469616e5f6d696e6f726974790000000000000000000000000000000000000000000000000000000000000000001b1ae4d6e2ef5000000000000000000000000000000000000000000000000000b1cf24ddd0b140000000000000000000000000000000000000000000000000000000000000000005a00000000000000000000000000000000000000000000000000000000000000b400000000000000000000000000000000000000000000000000000000000000010",
                    "revert": false,
                    "revertMessage": "",
                    "selector": "0x576c3de7",
                    "status": true,
                    "value": "0"
                },
                "nodeType": 0
            },
            "16": {
                "invocation": {
                    "address": "0x4cffe56c947e26d07c14020499776db3e9ae3a23",
                    "callData": "0x00000000000000000000000000000000000000000000000000000000000000c8",
                    "decodedMethod": {
                        "callParams": [
                            {
                                "name": "_tierId",
                                "type": "uint16",
                                "value": "200"
                            }
                        ],
                        "constructorArguments": "",
                        "name": "getTier",
                        "returnParams": [
                            {
                                "name": "",
                                "type": "(bytes32,uint96,uint96,uint24,uint16,uint8)",
                                "value": [
                                    {
                                        "name": "verifierName",
                                        "type": "bytes32",
                                        "value": "0x746965725f736778000000000000000000000000000000000000000000000000"
                                    },
                                    {
                                        "name": "validityBond",
                                        "type": "uint96",
                                        "value": "250,000,000,000,000,000,000"
                                    },
                                    {
                                        "name": "contestBond",
                                        "type": "uint96",
                                        "value": "1,640,000,000,000,000,000,000"
                                    },
                                    {
                                        "name": "cooldownWindow",
                                        "type": "uint24",
                                        "value": "1,440"
                                    },
                                    {
                                        "name": "provingWindow",
                                        "type": "uint16",
                                        "value": "60"
                                    },
                                    {
                                        "name": "maxBlocksToVerifyPerProof",
                                        "type": "uint8",
                                        "value": "8"
                                    }
                                ]
                            }
                        ],
                        "signature": "getTier(uint16)"
                    },
                    "errorInfo": "",
                    "fromAddress": "0x06a9ab27c7e2255df1815e6cc0168d7755feb19a",
                    "gasUsed": 849,
                    "id": 16,
                    "methodDecoded": true,
                    "operation": "STATICCALL",
                    "output": "0x746965725f73677800000000000000000000000000000000000000000000000000000000000000000000000000000000000000000000000d8d726b7177a80000000000000000000000000000000000000000000000000058e7926ee858a0000000000000000000000000000000000000000000000000000000000000000005a0000000000000000000000000000000000000000000000000000000000000003c0000000000000000000000000000000000000000000000000000000000000008",
                    "revert": false,
                    "revertMessage": "",
                    "selector": "0x576c3de7",
                    "status": true,
                    "value": "0"
                },
                "nodeType": 0
            },
            "17": {
                "invocation": {
                    "address": "0x06a9ab27c7e2255df1815e6cc0168d7755feb19a",
                    "callData": "0x746965725f677561726469616e5f6d696e6f72697479000000000000000000000000000000000000000000000000000000000000000000000000000000000000",
                    "decodedMethod": {
                        "callParams": [
                            {
                                "name": "_name",
                                "type": "bytes32",
                                "value": "0x746965725f677561726469616e5f6d696e6f7269747900000000000000000000"
                            },
                            {
                                "name": "_allowZeroAddress",
                                "type": "bool",
                                "value": false
                            }
                        ],
                        "constructorArguments": "",
                        "name": "resolve",
                        "returnParams": [
                            {
                                "name": "",
                                "type": "address",
                                "value": "0x579a8d63a2db646284cbfe31fe5082c9989e985c"
                            }
                        ],
                        "signature": "resolve(bytes32,bool)"
                    },
                    "errorInfo": "",
                    "fromAddress": "0x06a9ab27c7e2255df1815e6cc0168d7755feb19a",
                    "gasUsed": 2756,
                    "id": 17,
                    "methodDecoded": true,
                    "operation": "STATICCALL",
                    "output": "0x000000000000000000000000579a8d63a2db646284cbfe31fe5082c9989e985c",
                    "revert": false,
                    "revertMessage": "",
                    "selector": "0xa86f9d9e",
                    "status": true,
                    "value": "0"
                },
                "nodeType": 0
            },
            "18": {
                "invocation": {
                    "address": "0xb9e1e58bcf33b79ccff99c298963546a6c334388",
                    "callData": "0x746965725f677561726469616e5f6d696e6f72697479000000000000000000000000000000000000000000000000000000000000000000000000000000000000",
                    "decodedMethod": {
                        "callParams": [
                            {
                                "name": "_name",
                                "type": "bytes32",
                                "value": "0x746965725f677561726469616e5f6d696e6f7269747900000000000000000000"
                            },
                            {
                                "name": "_allowZeroAddress",
                                "type": "bool",
                                "value": false
                            }
                        ],
                        "constructorArguments": "",
                        "name": "resolve",
                        "returnParams": [
                            {
                                "name": "",
                                "type": "address",
                                "value": "0x579a8d63a2db646284cbfe31fe5082c9989e985c"
                            }
                        ],
                        "signature": "resolve(bytes32,bool)"
                    },
                    "errorInfo": "",
                    "fromAddress": "0x06a9ab27c7e2255df1815e6cc0168d7755feb19a",
                    "gasUsed": 2361,
                    "id": 18,
                    "methodDecoded": true,
                    "operation": "DELEGATECALL",
                    "output": "0x000000000000000000000000579a8d63a2db646284cbfe31fe5082c9989e985c",
                    "revert": false,
                    "revertMessage": "",
                    "selector": "0xa86f9d9e",
                    "status": true,
                    "value": "0"
                },
                "nodeType": 0
            },
            "19": {
                "invocation": {
                    "address": "0x579f40d0be111b823962043702cabe6aaa290780",
                    "callData": "0x0000000000000000000000000000000000000000000000000000000000000001746965725f677561726469616e5f6d696e6f7269747900000000000000000000",
                    "decodedMethod": {
                        "callParams": [
                            {
                                "name": "_chainId",
                                "type": "uint64",
                                "value": "1"
                            },
                            {
                                "name": "_name",
                                "type": "bytes32",
                                "value": "0x746965725f677561726469616e5f6d696e6f7269747900000000000000000000"
                            }
                        ],
                        "constructorArguments": "",
                        "name": "getAddress",
                        "returnParams": [
                            {
                                "name": "",
                                "type": "address",
                                "value": "0x579a8d63a2db646284cbfe31fe5082c9989e985c"
                            }
                        ],
                        "signature": "getAddress(uint64,bytes32)"
                    },
                    "errorInfo": "",
                    "fromAddress": "0x06a9ab27c7e2255df1815e6cc0168d7755feb19a",
                    "gasUsed": 1173,
                    "id": 19,
                    "methodDecoded": true,
                    "operation": "STATICCALL",
                    "output": "0x000000000000000000000000579a8d63a2db646284cbfe31fe5082c9989e985c",
                    "revert": false,
                    "revertMessage": "",
                    "selector": "0x28f713cc",
                    "status": true,
                    "value": "0"
                },
                "nodeType": 0
            },
            "2": {
                "event": {
                    "contract": "0x579a8d63a2db646284cbfe31fe5082c9989e985c",
                    "decodedLog": {
                        "name": "Approved",
                        "params": [
                            {
                                "name": "operationId",
                                "type": "uint256",
                                "value": "106,265"
                            },
                            {
                                "name": "approvalBits",
                                "type": "uint256",
                                "value": "64"
                            },
                            {
                                "name": "minGuardiansReached",
                                "type": "bool",
                                "value": true
                            }
                        ],
                        "signature": "Approved(uint256,uint256,bool)"
                    },
                    "id": 2,
                    "logData": "0x00000000000000000000000000000000000000000000000000000000000000400000000000000000000000000000000000000000000000000000000000000001",
                    "logDecoded": true,
                    "operation": "EVENT",
                    "revert": false,
                    "status": true,
                    "topics": [
                        "0x344afde5e92a836ece804d851bb090d420129616171e9911ade0a3f4d785e311",
                        "0x0000000000000000000000000000000000000000000000000000000000019f19"
                    ]
                },
                "nodeType": 1
            },
            "20": {
                "invocation": {
                    "address": "0x8eef314878a7e56314e8df285d0b0d649c903af6",
                    "callData": "0x0000000000000000000000000000000000000000000000000000000000000001746965725f677561726469616e5f6d696e6f7269747900000000000000000000",
                    "decodedMethod": {
                        "callParams": [
                            {
                                "name": "_chainId",
                                "type": "uint64",
                                "value": "1"
                            },
                            {
                                "name": "_name",
                                "type": "bytes32",
                                "value": "0x746965725f677561726469616e5f6d696e6f7269747900000000000000000000"
                            }
                        ],
                        "constructorArguments": "",
                        "name": "getAddress",
                        "returnParams": [
                            {
                                "name": "",
                                "type": "address",
                                "value": "0x579a8d63a2db646284cbfe31fe5082c9989e985c"
                            }
                        ],
                        "signature": "getAddress(uint64,bytes32)"
                    },
                    "errorInfo": "",
                    "fromAddress": "0x579f40d0be111b823962043702cabe6aaa290780",
                    "gasUsed": 778,
                    "id": 20,
                    "methodDecoded": true,
                    "operation": "DELEGATECALL",
                    "output": "0x000000000000000000000000579a8d63a2db646284cbfe31fe5082c9989e985c",
                    "revert": false,
                    "revertMessage": "",
                    "selector": "0x28f713cc",
                    "status": true,
                    "value": "0"
                },
                "nodeType": 0
            },
            "21": {
                "invocation": {
                    "address": "0x579a8d63a2db646284cbfe31fe5082c9989e985c",
                    "callData": "0x519f6b9364d166a126d391e060c601213522e87b650512f3247edf00381bedd00128e2f6ba1b12e36edf3bceb0430b27385e0f27729a4f5d184bdcd88615f0fa000000000000000000000000579a8d63a2db646284cbfe31fe5082c9989e985c0000000000000000000000000000000000000000000000000000000000019f1900000000000000000000000000000000000000000000000000000000000000000000000000000000000000000000000000000000000000000000000000000001000000000000000000000000579a8d63a2db646284cbfe31fe5082c9989e985c72db2d318a7c20f0baa22c01885063dc9ac1a4ad579c7b1f8a46f1eddf4810acb471ad9666aa3baa1a6eb85422658ba267f2e65975cbda2e8f1e9096074a2f07f274fee5ec96792cd558156c556015986950f9bc060f3fc4718fceac3e08cca946726f73742077617320686572650000000000000000000000000000000000000000000000000000000000000000000000000000000000000000000000000180000000000000000000000000000000000000000000000000000000000000038400000000000000000000000000000000000000000000000000000000000000400000000000000000000000000000000000000000000000000000000000000064ffffffffffffffffffffffffffffffffffffffffffffffffffffffffffffffffffffffffffffffffffffffffffffffffffffffffffffffffffffffffffffffffffffffffffffffffffffffffffffffffffffffffffffffffffffffffffffffffffffffff00000000000000000000000000000000000000000000000000000000",
                    "decodedMethod": {
                        "callParams": [
                            {
                                "name": "_ctx",
                                "type": "(bytes32,bytes32,address,uint64,bool,bool,address)",
                                "value": [
                                    {
                                        "name": "metaHash",
                                        "type": "bytes32",
                                        "value": "0x519f6b9364d166a126d391e060c601213522e87b650512f3247edf00381bedd0"
                                    },
                                    {
                                        "name": "blobHash",
                                        "type": "bytes32",
                                        "value": "0x0128e2f6ba1b12e36edf3bceb0430b27385e0f27729a4f5d184bdcd88615f0fa"
                                    },
                                    {
                                        "name": "prover",
                                        "type": "address",
                                        "value": "0x579a8d63a2db646284cbfe31fe5082c9989e985c"
                                    },
                                    {
                                        "name": "blockId",
                                        "type": "uint64",
                                        "value": "106,265"
                                    },
                                    {
                                        "name": "isContesting",
                                        "type": "bool",
                                        "value": false
                                    },
                                    {
                                        "name": "blobUsed",
                                        "type": "bool",
                                        "value": true
                                    },
                                    {
                                        "name": "msgSender",
                                        "type": "address",
                                        "value": "0x579a8d63a2db646284cbfe31fe5082c9989e985c"
                                    }
                                ]
                            },
                            {
                                "name": "",
                                "type": "(bytes32,bytes32,bytes32,bytes32)",
                                "value": [
                                    {
                                        "name": "parentHash",
                                        "type": "bytes32",
                                        "value": "0x72db2d318a7c20f0baa22c01885063dc9ac1a4ad579c7b1f8a46f1eddf4810ac"
                                    },
                                    {
                                        "name": "blockHash",
                                        "type": "bytes32",
                                        "value": "0xb471ad9666aa3baa1a6eb85422658ba267f2e65975cbda2e8f1e9096074a2f07"
                                    },
                                    {
                                        "name": "stateRoot",
                                        "type": "bytes32",
                                        "value": "0xf274fee5ec96792cd558156c556015986950f9bc060f3fc4718fceac3e08cca9"
                                    },
                                    {
                                        "name": "graffiti",
                                        "type": "bytes32",
                                        "value": "0x46726f7374207761732068657265000000000000000000000000000000000000"
                                    }
                                ]
                            },
                            {
                                "name": "",
                                "type": "(uint16,bytes)",
                                "value": [
                                    {
                                        "name": "tier",
                                        "type": "uint16",
                                        "value": "900"
                                    },
                                    {
                                        "name": "data",
                                        "type": "bytes",
                                        "value": "0xffffffffffffffffffffffffffffffffffffffffffffffffffffffffffffffffffffffffffffffffffffffffffffffffffffffffffffffffffffffffffffffffffffffffffffffffffffffffffffffffffffffffffffffffffffffffffffffffffffffff"
                                    }
                                ]
                            }
                        ],
                        "constructorArguments": "",
                        "name": "verifyProof",
                        "returnParams": [],
                        "signature": "verifyProof((bytes32,bytes32,address,uint64,bool,bool,address),(bytes32,bytes32,bytes32,bytes32),(uint16,bytes))"
                    },
                    "errorInfo": "",
                    "fromAddress": "0x06a9ab27c7e2255df1815e6cc0168d7755feb19a",
                    "gasUsed": 1233,
                    "id": 21,
                    "methodDecoded": true,
                    "operation": "CALL",
                    "output": "",
                    "revert": false,
                    "revertMessage": "",
                    "selector": "0x21e89968",
                    "status": true,
                    "value": "0"
                },
                "nodeType": 0
            },
            "22": {
                "invocation": {
                    "address": "0x7e717ffd6f7dd1008192bdc7193904fab25bc8a4",
                    "callData": "0x519f6b9364d166a126d391e060c601213522e87b650512f3247edf00381bedd00128e2f6ba1b12e36edf3bceb0430b27385e0f27729a4f5d184bdcd88615f0fa000000000000000000000000579a8d63a2db646284cbfe31fe5082c9989e985c0000000000000000000000000000000000000000000000000000000000019f1900000000000000000000000000000000000000000000000000000000000000000000000000000000000000000000000000000000000000000000000000000001000000000000000000000000579a8d63a2db646284cbfe31fe5082c9989e985c72db2d318a7c20f0baa22c01885063dc9ac1a4ad579c7b1f8a46f1eddf4810acb471ad9666aa3baa1a6eb85422658ba267f2e65975cbda2e8f1e9096074a2f07f274fee5ec96792cd558156c556015986950f9bc060f3fc4718fceac3e08cca946726f73742077617320686572650000000000000000000000000000000000000000000000000000000000000000000000000000000000000000000000000180000000000000000000000000000000000000000000000000000000000000038400000000000000000000000000000000000000000000000000000000000000400000000000000000000000000000000000000000000000000000000000000064ffffffffffffffffffffffffffffffffffffffffffffffffffffffffffffffffffffffffffffffffffffffffffffffffffffffffffffffffffffffffffffffffffffffffffffffffffffffffffffffffffffffffffffffffffffffffffffffffffffffff00000000000000000000000000000000000000000000000000000000",
                    "decodedMethod": {
                        "callParams": [
                            {
                                "name": "_ctx",
                                "type": "(bytes32,bytes32,address,uint64,bool,bool,address)",
                                "value": [
                                    {
                                        "name": "metaHash",
                                        "type": "bytes32",
                                        "value": "0x519f6b9364d166a126d391e060c601213522e87b650512f3247edf00381bedd0"
                                    },
                                    {
                                        "name": "blobHash",
                                        "type": "bytes32",
                                        "value": "0x0128e2f6ba1b12e36edf3bceb0430b27385e0f27729a4f5d184bdcd88615f0fa"
                                    },
                                    {
                                        "name": "prover",
                                        "type": "address",
                                        "value": "0x579a8d63a2db646284cbfe31fe5082c9989e985c"
                                    },
                                    {
                                        "name": "blockId",
                                        "type": "uint64",
                                        "value": "106,265"
                                    },
                                    {
                                        "name": "isContesting",
                                        "type": "bool",
                                        "value": false
                                    },
                                    {
                                        "name": "blobUsed",
                                        "type": "bool",
                                        "value": true
                                    },
                                    {
                                        "name": "msgSender",
                                        "type": "address",
                                        "value": "0x579a8d63a2db646284cbfe31fe5082c9989e985c"
                                    }
                                ]
                            },
                            {
                                "name": "",
                                "type": "(bytes32,bytes32,bytes32,bytes32)",
                                "value": [
                                    {
                                        "name": "parentHash",
                                        "type": "bytes32",
                                        "value": "0x72db2d318a7c20f0baa22c01885063dc9ac1a4ad579c7b1f8a46f1eddf4810ac"
                                    },
                                    {
                                        "name": "blockHash",
                                        "type": "bytes32",
                                        "value": "0xb471ad9666aa3baa1a6eb85422658ba267f2e65975cbda2e8f1e9096074a2f07"
                                    },
                                    {
                                        "name": "stateRoot",
                                        "type": "bytes32",
                                        "value": "0xf274fee5ec96792cd558156c556015986950f9bc060f3fc4718fceac3e08cca9"
                                    },
                                    {
                                        "name": "graffiti",
                                        "type": "bytes32",
                                        "value": "0x46726f7374207761732068657265000000000000000000000000000000000000"
                                    }
                                ]
                            },
                            {
                                "name": "",
                                "type": "(uint16,bytes)",
                                "value": [
                                    {
                                        "name": "tier",
                                        "type": "uint16",
                                        "value": "900"
                                    },
                                    {
                                        "name": "data",
                                        "type": "bytes",
                                        "value": "0xffffffffffffffffffffffffffffffffffffffffffffffffffffffffffffffffffffffffffffffffffffffffffffffffffffffffffffffffffffffffffffffffffffffffffffffffffffffffffffffffffffffffffffffffffffffffffffffffffffffff"
                                    }
                                ]
                            }
                        ],
                        "constructorArguments": "",
                        "name": "verifyProof",
                        "returnParams": [],
                        "signature": "verifyProof((bytes32,bytes32,address,uint64,bool,bool,address),(bytes32,bytes32,bytes32,bytes32),(uint16,bytes))"
                    },
                    "errorInfo": "",
                    "fromAddress": "0x579a8d63a2db646284cbfe31fe5082c9989e985c",
                    "gasUsed": 739,
                    "id": 22,
                    "methodDecoded": true,
                    "operation": "DELEGATECALL",
                    "output": "",
                    "revert": false,
                    "revertMessage": "",
                    "selector": "0x21e89968",
                    "status": true,
                    "value": "0"
                },
                "nodeType": 0
            },
            "23": {
                "invocation": {
                    "address": "0x10dea67478c5f8c5e2d90e5e9b26dbe60c54d800",
                    "callData": "0x000000000000000000000000579a8d63a2db646284cbfe31fe5082c9989e985c00000000000000000000000006a9ab27c7e2255df1815e6cc0168d7755feb19a00000000000000000000000000000000000000000000001b1ae4d6e2ef500000",
                    "decodedMethod": {
                        "callParams": [
                            {
                                "name": "from",
                                "type": "address",
                                "value": "0x579a8d63a2db646284cbfe31fe5082c9989e985c"
                            },
                            {
                                "name": "to",
                                "type": "address",
                                "value": "0x06a9ab27c7e2255df1815e6cc0168d7755feb19a"
                            },
                            {
                                "decimalAvailable": true,
                                "name": "amount",
                                "type": "uint256",
                                "value": "500,000,000,000,000,000,000"
                            }
                        ],
                        "constructorArguments": "",
                        "name": "transferFrom",
                        "returnParams": [
                            {
                                "name": "",
                                "type": "bool",
                                "value": true
                            }
                        ],
                        "signature": "transferFrom(address,address,uint256)"
                    },
                    "errorInfo": "",
                    "fromAddress": "0x06a9ab27c7e2255df1815e6cc0168d7755feb19a",
                    "gasUsed": 22719,
                    "id": 23,
                    "methodDecoded": true,
                    "operation": "CALL",
                    "output": "0x0000000000000000000000000000000000000000000000000000000000000001",
                    "revert": false,
                    "revertMessage": "",
                    "selector": "0x23b872dd",
                    "status": true,
                    "value": "0"
                },
                "nodeType": 0
            },
            "24": {
                "invocation": {
                    "address": "0x55833da2962c2330cccf043ff8037e6d2939bcf6",
                    "callData": "0x000000000000000000000000579a8d63a2db646284cbfe31fe5082c9989e985c00000000000000000000000006a9ab27c7e2255df1815e6cc0168d7755feb19a00000000000000000000000000000000000000000000001b1ae4d6e2ef500000",
                    "decodedMethod": {
                        "callParams": [
                            {
                                "name": "from",
                                "type": "address",
                                "value": "0x579a8d63a2db646284cbfe31fe5082c9989e985c"
                            },
                            {
                                "name": "to",
                                "type": "address",
                                "value": "0x06a9ab27c7e2255df1815e6cc0168d7755feb19a"
                            },
                            {
                                "decimalAvailable": true,
                                "name": "amount",
                                "type": "uint256",
                                "value": "500,000,000,000,000,000,000"
                            }
                        ],
                        "constructorArguments": "",
                        "name": "transferFrom",
                        "returnParams": [
                            {
                                "name": "",
                                "type": "bool",
                                "value": true
                            }
                        ],
                        "signature": "transferFrom(address,address,uint256)"
                    },
                    "errorInfo": "",
                    "fromAddress": "0x10dea67478c5f8c5e2d90e5e9b26dbe60c54d800",
                    "gasUsed": 17818,
                    "id": 24,
                    "methodDecoded": true,
                    "operation": "DELEGATECALL",
                    "output": "0x0000000000000000000000000000000000000000000000000000000000000001",
                    "revert": false,
                    "revertMessage": "",
                    "selector": "0x23b872dd",
                    "status": true,
                    "value": "0"
                },
                "nodeType": 0
            },
            "25": {
                "event": {
                    "contract": "0x10dea67478c5f8c5e2d90e5e9b26dbe60c54d800",
                    "decodedLog": {
                        "name": "Transfer",
                        "params": [
                            {
                                "name": "from",
                                "type": "address",
                                "value": "0x579a8d63a2db646284cbfe31fe5082c9989e985c"
                            },
                            {
                                "name": "to",
                                "type": "address",
                                "value": "0x06a9ab27c7e2255df1815e6cc0168d7755feb19a"
                            },
                            {
                                "decimalAvailable": true,
                                "name": "value",
                                "type": "uint256",
                                "value": "500,000,000,000,000,000,000"
                            }
                        ],
                        "signature": "Transfer(address,address,uint256)"
                    },
                    "id": 25,
                    "logData": "0x00000000000000000000000000000000000000000000001b1ae4d6e2ef500000",
                    "logDecoded": true,
                    "operation": "EVENT",
                    "revert": false,
                    "status": true,
                    "topics": [
                        "0xddf252ad1be2c89b69c2b068fc378daa952ba7f163c4a11628f55a4df523b3ef",
                        "0x000000000000000000000000579a8d63a2db646284cbfe31fe5082c9989e985c",
                        "0x00000000000000000000000006a9ab27c7e2255df1815e6cc0168d7755feb19a"
                    ]
                },
                "nodeType": 1
            },
            "26": {
                "event": {
                    "contract": "0x06a9ab27c7e2255df1815e6cc0168d7755feb19a",
                    "decodedLog": {
                        "name": "TransitionProved",
                        "params": [
                            {
                                "name": "blockId",
                                "type": "uint256",
                                "value": "106,265"
                            },
                            {
                                "name": "tran",
                                "type": "(bytes32,bytes32,bytes32,bytes32)",
                                "value": [
                                    {
                                        "name": "parentHash",
                                        "type": "bytes32",
                                        "value": "0x72db2d318a7c20f0baa22c01885063dc9ac1a4ad579c7b1f8a46f1eddf4810ac"
                                    },
                                    {
                                        "name": "blockHash",
                                        "type": "bytes32",
                                        "value": "0xb471ad9666aa3baa1a6eb85422658ba267f2e65975cbda2e8f1e9096074a2f07"
                                    },
                                    {
                                        "name": "stateRoot",
                                        "type": "bytes32",
                                        "value": "0xf274fee5ec96792cd558156c556015986950f9bc060f3fc4718fceac3e08cca9"
                                    },
                                    {
                                        "name": "graffiti",
                                        "type": "bytes32",
                                        "value": "0x46726f7374207761732068657265000000000000000000000000000000000000"
                                    }
                                ]
                            },
                            {
                                "name": "prover",
                                "type": "address",
                                "value": "0x579a8d63a2db646284cbfe31fe5082c9989e985c"
                            },
                            {
                                "name": "validityBond",
                                "type": "uint96",
                                "value": "500,000,000,000,000,000,000"
                            },
                            {
                                "name": "tier",
                                "type": "uint16",
                                "value": "900"
                            }
                        ],
                        "signature": "TransitionProved(uint256,(bytes32,bytes32,bytes32,bytes32),address,uint96,uint16)"
                    },
                    "id": 26,
                    "logData": "0x72db2d318a7c20f0baa22c01885063dc9ac1a4ad579c7b1f8a46f1eddf4810acb471ad9666aa3baa1a6eb85422658ba267f2e65975cbda2e8f1e9096074a2f07f274fee5ec96792cd558156c556015986950f9bc060f3fc4718fceac3e08cca946726f7374207761732068657265000000000000000000000000000000000000000000000000000000000000579a8d63a2db646284cbfe31fe5082c9989e985c00000000000000000000000000000000000000000000001b1ae4d6e2ef5000000000000000000000000000000000000000000000000000000000000000000384",
                    "logDecoded": true,
                    "operation": "EVENT",
                    "revert": false,
                    "status": true,
                    "topics": [
                        "0xc195e4be3b936845492b8be4b1cf604db687a4d79ad84d979499c136f8e6701f",
                        "0x0000000000000000000000000000000000000000000000000000000000019f19"
                    ]
                },
                "nodeType": 1
            },
            "27": {
                "invocation": {
                    "address": "0x06a9ab27c7e2255df1815e6cc0168d7755feb19a",
                    "callData": "0x746965725f726f757465720000000000000000000000000000000000000000000000000000000000000000000000000000000000000000000000000000000000",
                    "decodedMethod": {
                        "callParams": [
                            {
                                "name": "_name",
                                "type": "bytes32",
                                "value": "0x746965725f726f75746572000000000000000000000000000000000000000000"
                            },
                            {
                                "name": "_allowZeroAddress",
                                "type": "bool",
                                "value": false
                            }
                        ],
                        "constructorArguments": "",
                        "name": "resolve",
                        "returnParams": [
                            {
                                "name": "",
                                "type": "address",
                                "value": "0xa8e5d3a2e2052bea7f10be6a0386454b721d1f9f"
                            }
                        ],
                        "signature": "resolve(bytes32,bool)"
                    },
                    "errorInfo": "",
                    "fromAddress": "0x06a9ab27c7e2255df1815e6cc0168d7755feb19a",
                    "gasUsed": 2837,
                    "id": 27,
                    "methodDecoded": true,
                    "operation": "STATICCALL",
                    "output": "0x000000000000000000000000a8e5d3a2e2052bea7f10be6a0386454b721d1f9f",
                    "revert": false,
                    "revertMessage": "",
                    "selector": "0xa86f9d9e",
                    "status": true,
                    "value": "0"
                },
                "nodeType": 0
            },
            "28": {
                "invocation": {
                    "address": "0xb9e1e58bcf33b79ccff99c298963546a6c334388",
                    "callData": "0x746965725f726f757465720000000000000000000000000000000000000000000000000000000000000000000000000000000000000000000000000000000000",
                    "decodedMethod": {
                        "callParams": [
                            {
                                "name": "_name",
                                "type": "bytes32",
                                "value": "0x746965725f726f75746572000000000000000000000000000000000000000000"
                            },
                            {
                                "name": "_allowZeroAddress",
                                "type": "bool",
                                "value": false
                            }
                        ],
                        "constructorArguments": "",
                        "name": "resolve",
                        "returnParams": [
                            {
                                "name": "",
                                "type": "address",
                                "value": "0xa8e5d3a2e2052bea7f10be6a0386454b721d1f9f"
                            }
                        ],
                        "signature": "resolve(bytes32,bool)"
                    },
                    "errorInfo": "",
                    "fromAddress": "0x06a9ab27c7e2255df1815e6cc0168d7755feb19a",
                    "gasUsed": 2442,
                    "id": 28,
                    "methodDecoded": true,
                    "operation": "DELEGATECALL",
                    "output": "0x000000000000000000000000a8e5d3a2e2052bea7f10be6a0386454b721d1f9f",
                    "revert": false,
                    "revertMessage": "",
                    "selector": "0xa86f9d9e",
                    "status": true,
                    "value": "0"
                },
                "nodeType": 0
            },
            "29": {
                "invocation": {
                    "address": "0x579f40d0be111b823962043702cabe6aaa290780",
                    "callData": "0x0000000000000000000000000000000000000000000000000000000000000001746965725f726f75746572000000000000000000000000000000000000000000",
                    "decodedMethod": {
                        "callParams": [
                            {
                                "name": "_chainId",
                                "type": "uint64",
                                "value": "1"
                            },
                            {
                                "name": "_name",
                                "type": "bytes32",
                                "value": "0x746965725f726f75746572000000000000000000000000000000000000000000"
                            }
                        ],
                        "constructorArguments": "",
                        "name": "getAddress",
                        "returnParams": [
                            {
                                "name": "",
                                "type": "address",
                                "value": "0xa8e5d3a2e2052bea7f10be6a0386454b721d1f9f"
                            }
                        ],
                        "signature": "getAddress(uint64,bytes32)"
                    },
                    "errorInfo": "",
                    "fromAddress": "0x06a9ab27c7e2255df1815e6cc0168d7755feb19a",
                    "gasUsed": 1254,
                    "id": 29,
                    "methodDecoded": true,
                    "operation": "STATICCALL",
                    "output": "0x000000000000000000000000a8e5d3a2e2052bea7f10be6a0386454b721d1f9f",
                    "revert": false,
                    "revertMessage": "",
                    "selector": "0x28f713cc",
                    "status": true,
                    "value": "0"
                },
                "nodeType": 0
            },
            "3": {
                "event": {
                    "contract": "0x579a8d63a2db646284cbfe31fe5082c9989e985c",
                    "decodedLog": {
                        "name": "GuardianApproval",
                        "params": [
                            {
                                "name": "addr",
                                "type": "address",
                                "value": "0x5cfeb9a72256b1b49dc2c98b1b7b99d172d50b68"
                            },
                            {
                                "name": "blockId",
                                "type": "uint256",
                                "value": "106,265"
                            },
                            {
                                "name": "blockHash",
                                "type": "bytes32",
                                "value": "0xb471ad9666aa3baa1a6eb85422658ba267f2e65975cbda2e8f1e9096074a2f07"
                            },
                            {
                                "name": "approved",
                                "type": "bool",
                                "value": true
                            },
                            {
                                "name": "proofData",
                                "type": "bytes",
                                "value": "0xffffffffffffffffffffffffffffffffffffffffffffffffffffffffffffffffffffffffffffffffffffffffffffffffffffffffffffffffffffffffffffffffffffffffffffffffffffffffffffffffffffffffffffffffffffffffffffffffffffffff"
                            }
                        ],
                        "signature": "GuardianApproval(address,uint256,bytes32,bool,bytes)"
                    },
                    "id": 3,
                    "logData": "0x000000000000000000000000000000000000000000000000000000000000000100000000000000000000000000000000000000000000000000000000000000400000000000000000000000000000000000000000000000000000000000000064ffffffffffffffffffffffffffffffffffffffffffffffffffffffffffffffffffffffffffffffffffffffffffffffffffffffffffffffffffffffffffffffffffffffffffffffffffffffffffffffffffffffffffffffffffffffffffffffffffffffff00000000000000000000000000000000000000000000000000000000",
                    "logDecoded": true,
                    "operation": "EVENT",
                    "revert": false,
                    "status": true,
                    "topics": [
                        "0xbff049f26ec63ed683b70f6c889078b391f9621229a4243aaa40a50628545ef2",
                        "0x0000000000000000000000005cfeb9a72256b1b49dc2c98b1b7b99d172d50b68",
                        "0x0000000000000000000000000000000000000000000000000000000000019f19",
                        "0xb471ad9666aa3baa1a6eb85422658ba267f2e65975cbda2e8f1e9096074a2f07"
                    ]
                },
                "nodeType": 1
            },
            "30": {
                "invocation": {
                    "address": "0x8eef314878a7e56314e8df285d0b0d649c903af6",
                    "callData": "0x0000000000000000000000000000000000000000000000000000000000000001746965725f726f75746572000000000000000000000000000000000000000000",
                    "decodedMethod": {
                        "callParams": [
                            {
                                "name": "_chainId",
                                "type": "uint64",
                                "value": "1"
                            },
                            {
                                "name": "_name",
                                "type": "bytes32",
                                "value": "0x746965725f726f75746572000000000000000000000000000000000000000000"
                            }
                        ],
                        "constructorArguments": "",
                        "name": "getAddress",
                        "returnParams": [
                            {
                                "name": "",
                                "type": "address",
                                "value": "0xa8e5d3a2e2052bea7f10be6a0386454b721d1f9f"
                            }
                        ],
                        "signature": "getAddress(uint64,bytes32)"
                    },
                    "errorInfo": "",
                    "fromAddress": "0x579f40d0be111b823962043702cabe6aaa290780",
                    "gasUsed": 859,
                    "id": 30,
                    "methodDecoded": true,
                    "operation": "DELEGATECALL",
                    "output": "0x000000000000000000000000a8e5d3a2e2052bea7f10be6a0386454b721d1f9f",
                    "revert": false,
                    "revertMessage": "",
                    "selector": "0x28f713cc",
                    "status": true,
                    "value": "0"
                },
                "nodeType": 0
            },
            "31": {
                "invocation": {
                    "address": "0xa8e5d3a2e2052bea7f10be6a0386454b721d1f9f",
                    "callData": "0x0000000000000000000000000000000000000000000000000000000000019389",
                    "decodedMethod": {
                        "callParams": [
                            {
                                "name": "",
                                "type": "uint256",
                                "value": "103,305"
                            }
                        ],
                        "constructorArguments": "",
                        "name": "getProvider",
                        "returnParams": [
                            {
                                "name": "",
                                "type": "address",
                                "value": "0x4cffe56c947e26d07c14020499776db3e9ae3a23"
                            }
                        ],
                        "signature": "getProvider(uint256)"
                    },
                    "errorInfo": "",
                    "fromAddress": "0x06a9ab27c7e2255df1815e6cc0168d7755feb19a",
                    "gasUsed": 259,
                    "id": 31,
                    "methodDecoded": true,
                    "operation": "STATICCALL",
                    "output": "0x0000000000000000000000004cffe56c947e26d07c14020499776db3e9ae3a23",
                    "revert": false,
                    "revertMessage": "",
                    "selector": "0x5c42d079",
                    "status": true,
                    "value": "0"
                },
                "nodeType": 0
            },
            "32": {
                "invocation": {
                    "address": "0x4cffe56c947e26d07c14020499776db3e9ae3a23",
                    "callData": "0x00000000000000000000000000000000000000000000000000000000000000c8",
                    "decodedMethod": {
                        "callParams": [
                            {
                                "name": "_tierId",
                                "type": "uint16",
                                "value": "200"
                            }
                        ],
                        "constructorArguments": "",
                        "name": "getTier",
                        "returnParams": [
                            {
                                "name": "",
                                "type": "(bytes32,uint96,uint96,uint24,uint16,uint8)",
                                "value": [
                                    {
                                        "name": "verifierName",
                                        "type": "bytes32",
                                        "value": "0x746965725f736778000000000000000000000000000000000000000000000000"
                                    },
                                    {
                                        "name": "validityBond",
                                        "type": "uint96",
                                        "value": "250,000,000,000,000,000,000"
                                    },
                                    {
                                        "name": "contestBond",
                                        "type": "uint96",
                                        "value": "1,640,000,000,000,000,000,000"
                                    },
                                    {
                                        "name": "cooldownWindow",
                                        "type": "uint24",
                                        "value": "1,440"
                                    },
                                    {
                                        "name": "provingWindow",
                                        "type": "uint16",
                                        "value": "60"
                                    },
                                    {
                                        "name": "maxBlocksToVerifyPerProof",
                                        "type": "uint8",
                                        "value": "8"
                                    }
                                ]
                            }
                        ],
                        "signature": "getTier(uint16)"
                    },
                    "errorInfo": "",
                    "fromAddress": "0x06a9ab27c7e2255df1815e6cc0168d7755feb19a",
                    "gasUsed": 849,
                    "id": 32,
                    "methodDecoded": true,
                    "operation": "STATICCALL",
                    "output": "0x746965725f73677800000000000000000000000000000000000000000000000000000000000000000000000000000000000000000000000d8d726b7177a80000000000000000000000000000000000000000000000000058e7926ee858a0000000000000000000000000000000000000000000000000000000000000000005a0000000000000000000000000000000000000000000000000000000000000003c0000000000000000000000000000000000000000000000000000000000000008",
                    "revert": false,
                    "revertMessage": "",
                    "selector": "0x576c3de7",
                    "status": true,
                    "value": "0"
                },
                "nodeType": 0
            },
            "33": {
                "event": {
                    "contract": "0x06a9ab27c7e2255df1815e6cc0168d7755feb19a",
                    "decodedLog": {
                        "name": "StateVariablesUpdated",
                        "params": [
                            {
                                "name": "slotB",
                                "type": "(uint64,uint64,bool,uint8,uint16,uint32,uint64)",
                                "value": [
                                    {
                                        "name": "numBlocks",
                                        "type": "uint64",
                                        "value": "106,505"
                                    },
                                    {
                                        "name": "lastVerifiedBlockId",
                                        "type": "uint64",
                                        "value": "103,304"
                                    },
                                    {
                                        "name": "provingPaused",
                                        "type": "bool",
                                        "value": false
                                    },
                                    {
                                        "name": "__reservedB1",
                                        "type": "uint8",
                                        "value": "0"
                                    },
                                    {
                                        "name": "__reservedB2",
                                        "type": "uint16",
                                        "value": "0"
                                    },
                                    {
                                        "name": "__reservedB3",
                                        "type": "uint32",
                                        "value": "0"
                                    },
                                    {
                                        "name": "lastUnpausedAt",
                                        "type": "uint64",
                                        "value": "1,716,571,955"
                                    }
                                ]
                            }
                        ],
                        "signature": "StateVariablesUpdated((uint64,uint64,bool,uint8,uint16,uint32,uint64))"
                    },
                    "id": 33,
                    "logData": "0x000000000000000000000000000000000000000000000000000000000001a00900000000000000000000000000000000000000000000000000000000000193880000000000000000000000000000000000000000000000000000000000000000000000000000000000000000000000000000000000000000000000000000000000000000000000000000000000000000000000000000000000000000000000000000000000000000000000000000000000000000000000000000000000000000000000000000000000000000000000000000000000000000000000006650cf33",
                    "logDecoded": true,
                    "operation": "EVENT",
                    "revert": false,
                    "status": true,
                    "topics": [
                        "0xdf66aee38ea9fe523cfd238705d455a354305a646748dbb931898b51cee4727b"
                    ]
                },
                "nodeType": 1
            },
            "4": {
                "invocation": {
                    "address": "0x579f40d0be111b823962043702cabe6aaa290780",
                    "callData": "0x00000000000000000000000000000000000000000000000000000000000000017461696b6f000000000000000000000000000000000000000000000000000000",
                    "decodedMethod": {
                        "callParams": [
                            {
                                "name": "_chainId",
                                "type": "uint64",
                                "value": "1"
                            },
                            {
                                "name": "_name",
                                "type": "bytes32",
                                "value": "0x7461696b6f000000000000000000000000000000000000000000000000000000"
                            }
                        ],
                        "constructorArguments": "",
                        "name": "getAddress",
                        "returnParams": [
                            {
                                "name": "",
                                "type": "address",
                                "value": "0x06a9ab27c7e2255df1815e6cc0168d7755feb19a"
                            }
                        ],
                        "signature": "getAddress(uint64,bytes32)"
                    },
                    "errorInfo": "",
                    "fromAddress": "0x579a8d63a2db646284cbfe31fe5082c9989e985c",
                    "gasUsed": 5615,
                    "id": 4,
                    "methodDecoded": true,
                    "operation": "STATICCALL",
                    "output": "0x00000000000000000000000006a9ab27c7e2255df1815e6cc0168d7755feb19a",
                    "revert": false,
                    "revertMessage": "",
                    "selector": "0x28f713cc",
                    "status": true,
                    "value": "0"
                },
                "nodeType": 0
            },
            "5": {
                "invocation": {
                    "address": "0x8eef314878a7e56314e8df285d0b0d649c903af6",
                    "callData": "0x00000000000000000000000000000000000000000000000000000000000000017461696b6f000000000000000000000000000000000000000000000000000000",
                    "decodedMethod": {
                        "callParams": [
                            {
                                "name": "_chainId",
                                "type": "uint64",
                                "value": "1"
                            },
                            {
                                "name": "_name",
                                "type": "bytes32",
                                "value": "0x7461696b6f000000000000000000000000000000000000000000000000000000"
                            }
                        ],
                        "constructorArguments": "",
                        "name": "getAddress",
                        "returnParams": [
                            {
                                "name": "",
                                "type": "address",
                                "value": "0x06a9ab27c7e2255df1815e6cc0168d7755feb19a"
                            }
                        ],
                        "signature": "getAddress(uint64,bytes32)"
                    },
                    "errorInfo": "",
                    "fromAddress": "0x579f40d0be111b823962043702cabe6aaa290780",
                    "gasUsed": 720,
                    "id": 5,
                    "methodDecoded": true,
                    "operation": "DELEGATECALL",
                    "output": "0x00000000000000000000000006a9ab27c7e2255df1815e6cc0168d7755feb19a",
                    "revert": false,
                    "revertMessage": "",
                    "selector": "0x28f713cc",
                    "status": true,
                    "value": "0"
                },
                "nodeType": 0
            },
            "6": {
                "invocation": {
                    "address": "0x06a9ab27c7e2255df1815e6cc0168d7755feb19a",
                    "callData": "0x0000000000000000000000000000000000000000000000000000000000019f1900000000000000000000000000000000000000000000000000000000000000400000000000000000000000000000000000000000000000000000000000000340319a721d7b2249e588c5c7b68f97324b43e58af64ee54c3a62747001de89acbaf3f28e034f4e040139f2f7056dfd1dc284369a9ffe712d2dddd97b8cf3191cb40128e2f6ba1b12e36edf3bceb0430b27385e0f27729a4f5d184bdcd88615f0fa302e31382e302d64657600000000000000000000000000000000000000000000569e75fc77c1a856f6daaf9e69d8a9566ca34aa47f9133711ce065a571af0cfd000000000000000000000000000000633b68f5d8d3a86593ebb815b4663bcbe00000000000000000000000000000000000000000000000000000000000019f19000000000000000000000000000000000000000000000000000000000e4e1c0000000000000000000000000000000000000000000000000000000000667d8ea7000000000000000000000000000000000000000000000000000000000133fc3a00000000000000000000000000000000000000000000000000000000000000c80000000000000000000000000000000000000000000000000000000000000001445fc725e6e5524b267ab113e5805b3a7668a4b26e57547cb6717dfe05d9497500000000000000000000000068d30f47f19c07bccef4ac7fae2dc12fca3e0dc972db2d318a7c20f0baa22c01885063dc9ac1a4ad579c7b1f8a46f1eddf4810acb471ad9666aa3baa1a6eb85422658ba267f2e65975cbda2e8f1e9096074a2f07f274fee5ec96792cd558156c556015986950f9bc060f3fc4718fceac3e08cca946726f73742077617320686572650000000000000000000000000000000000000000000000000000000000000000000000000000000000000000000000000260000000000000000000000000000000000000000000000000000000000000038400000000000000000000000000000000000000000000000000000000000000400000000000000000000000000000000000000000000000000000000000000064ffffffffffffffffffffffffffffffffffffffffffffffffffffffffffffffffffffffffffffffffffffffffffffffffffffffffffffffffffffffffffffffffffffffffffffffffffffffffffffffffffffffffffffffffffffffffffffffffffffffff00000000000000000000000000000000000000000000000000000000",
                    "decodedMethod": {
                        "callParams": [
                            {
                                "name": "_blockId",
                                "type": "uint64",
                                "value": "106,265"
                            },
                            {
                                "name": "_input",
                                "type": "bytes",
                                "value": "0x319a721d7b2249e588c5c7b68f97324b43e58af64ee54c3a62747001de89acbaf3f28e034f4e040139f2f7056dfd1dc284369a9ffe712d2dddd97b8cf3191cb40128e2f6ba1b12e36edf3bceb0430b27385e0f27729a4f5d184bdcd88615f0fa302e31382e302d64657600000000000000000000000000000000000000000000569e75fc77c1a856f6daaf9e69d8a9566ca34aa47f9133711ce065a571af0cfd000000000000000000000000000000633b68f5d8d3a86593ebb815b4663bcbe00000000000000000000000000000000000000000000000000000000000019f19000000000000000000000000000000000000000000000000000000000e4e1c0000000000000000000000000000000000000000000000000000000000667d8ea7000000000000000000000000000000000000000000000000000000000133fc3a00000000000000000000000000000000000000000000000000000000000000c80000000000000000000000000000000000000000000000000000000000000001445fc725e6e5524b267ab113e5805b3a7668a4b26e57547cb6717dfe05d9497500000000000000000000000068d30f47f19c07bccef4ac7fae2dc12fca3e0dc972db2d318a7c20f0baa22c01885063dc9ac1a4ad579c7b1f8a46f1eddf4810acb471ad9666aa3baa1a6eb85422658ba267f2e65975cbda2e8f1e9096074a2f07f274fee5ec96792cd558156c556015986950f9bc060f3fc4718fceac3e08cca946726f73742077617320686572650000000000000000000000000000000000000000000000000000000000000000000000000000000000000000000000000260000000000000000000000000000000000000000000000000000000000000038400000000000000000000000000000000000000000000000000000000000000400000000000000000000000000000000000000000000000000000000000000064ffffffffffffffffffffffffffffffffffffffffffffffffffffffffffffffffffffffffffffffffffffffffffffffffffffffffffffffffffffffffffffffffffffffffffffffffffffffffffffffffffffffffffffffffffffffffffffffffffffffff00000000000000000000000000000000000000000000000000000000"
                            }
                        ],
                        "constructorArguments": "",
                        "name": "proveBlock",
                        "returnParams": [],
                        "signature": "proveBlock(uint64,bytes)"
                    },
                    "errorInfo": "",
                    "fromAddress": "0x579a8d63a2db646284cbfe31fe5082c9989e985c",
                    "gasUsed": 244249,
                    "id": 6,
                    "methodDecoded": true,
                    "operation": "CALL",
                    "output": "",
                    "revert": false,
                    "revertMessage": "",
                    "selector": "0x10d008bd",
                    "status": true,
                    "value": "0"
                },
                "nodeType": 0
            },
            "7": {
                "invocation": {
                    "address": "0xb9e1e58bcf33b79ccff99c298963546a6c334388",
                    "callData": "0x0000000000000000000000000000000000000000000000000000000000019f1900000000000000000000000000000000000000000000000000000000000000400000000000000000000000000000000000000000000000000000000000000340319a721d7b2249e588c5c7b68f97324b43e58af64ee54c3a62747001de89acbaf3f28e034f4e040139f2f7056dfd1dc284369a9ffe712d2dddd97b8cf3191cb40128e2f6ba1b12e36edf3bceb0430b27385e0f27729a4f5d184bdcd88615f0fa302e31382e302d64657600000000000000000000000000000000000000000000569e75fc77c1a856f6daaf9e69d8a9566ca34aa47f9133711ce065a571af0cfd000000000000000000000000000000633b68f5d8d3a86593ebb815b4663bcbe00000000000000000000000000000000000000000000000000000000000019f19000000000000000000000000000000000000000000000000000000000e4e1c0000000000000000000000000000000000000000000000000000000000667d8ea7000000000000000000000000000000000000000000000000000000000133fc3a00000000000000000000000000000000000000000000000000000000000000c80000000000000000000000000000000000000000000000000000000000000001445fc725e6e5524b267ab113e5805b3a7668a4b26e57547cb6717dfe05d9497500000000000000000000000068d30f47f19c07bccef4ac7fae2dc12fca3e0dc972db2d318a7c20f0baa22c01885063dc9ac1a4ad579c7b1f8a46f1eddf4810acb471ad9666aa3baa1a6eb85422658ba267f2e65975cbda2e8f1e9096074a2f07f274fee5ec96792cd558156c556015986950f9bc060f3fc4718fceac3e08cca946726f73742077617320686572650000000000000000000000000000000000000000000000000000000000000000000000000000000000000000000000000260000000000000000000000000000000000000000000000000000000000000038400000000000000000000000000000000000000000000000000000000000000400000000000000000000000000000000000000000000000000000000000000064ffffffffffffffffffffffffffffffffffffffffffffffffffffffffffffffffffffffffffffffffffffffffffffffffffffffffffffffffffffffffffffffffffffffffffffffffffffffffffffffffffffffffffffffffffffffffffffffffffffffff00000000000000000000000000000000000000000000000000000000",
                    "decodedMethod": {
                        "callParams": [
                            {
                                "name": "_blockId",
                                "type": "uint64",
                                "value": "106,265"
                            },
                            {
                                "name": "_input",
                                "type": "bytes",
                                "value": "0x319a721d7b2249e588c5c7b68f97324b43e58af64ee54c3a62747001de89acbaf3f28e034f4e040139f2f7056dfd1dc284369a9ffe712d2dddd97b8cf3191cb40128e2f6ba1b12e36edf3bceb0430b27385e0f27729a4f5d184bdcd88615f0fa302e31382e302d64657600000000000000000000000000000000000000000000569e75fc77c1a856f6daaf9e69d8a9566ca34aa47f9133711ce065a571af0cfd000000000000000000000000000000633b68f5d8d3a86593ebb815b4663bcbe00000000000000000000000000000000000000000000000000000000000019f19000000000000000000000000000000000000000000000000000000000e4e1c0000000000000000000000000000000000000000000000000000000000667d8ea7000000000000000000000000000000000000000000000000000000000133fc3a00000000000000000000000000000000000000000000000000000000000000c80000000000000000000000000000000000000000000000000000000000000001445fc725e6e5524b267ab113e5805b3a7668a4b26e57547cb6717dfe05d9497500000000000000000000000068d30f47f19c07bccef4ac7fae2dc12fca3e0dc972db2d318a7c20f0baa22c01885063dc9ac1a4ad579c7b1f8a46f1eddf4810acb471ad9666aa3baa1a6eb85422658ba267f2e65975cbda2e8f1e9096074a2f07f274fee5ec96792cd558156c556015986950f9bc060f3fc4718fceac3e08cca946726f73742077617320686572650000000000000000000000000000000000000000000000000000000000000000000000000000000000000000000000000260000000000000000000000000000000000000000000000000000000000000038400000000000000000000000000000000000000000000000000000000000000400000000000000000000000000000000000000000000000000000000000000064ffffffffffffffffffffffffffffffffffffffffffffffffffffffffffffffffffffffffffffffffffffffffffffffffffffffffffffffffffffffffffffffffffffffffffffffffffffffffffffffffffffffffffffffffffffffffffffffffffffffff00000000000000000000000000000000000000000000000000000000"
                            }
                        ],
                        "constructorArguments": "",
                        "name": "proveBlock",
                        "returnParams": [],
                        "signature": "proveBlock(uint64,bytes)"
                    },
                    "errorInfo": "",
                    "fromAddress": "0x06a9ab27c7e2255df1815e6cc0168d7755feb19a",
                    "gasUsed": 239194,
                    "id": 7,
                    "methodDecoded": true,
                    "operation": "DELEGATECALL",
                    "output": "",
                    "revert": false,
                    "revertMessage": "",
                    "selector": "0x10d008bd",
                    "status": true,
                    "value": "0"
                },
                "nodeType": 0
            },
            "8": {
                "invocation": {
                    "address": "0x579f40d0be111b823962043702cabe6aaa290780",
                    "callData": "0x00000000000000000000000000000000000000000000000000000000000000017461696b6f5f746f6b656e000000000000000000000000000000000000000000",
                    "decodedMethod": {
                        "callParams": [
                            {
                                "name": "_chainId",
                                "type": "uint64",
                                "value": "1"
                            },
                            {
                                "name": "_name",
                                "type": "bytes32",
                                "value": "0x7461696b6f5f746f6b656e000000000000000000000000000000000000000000"
                            }
                        ],
                        "constructorArguments": "",
                        "name": "getAddress",
                        "returnParams": [
                            {
                                "name": "",
                                "type": "address",
                                "value": "0x10dea67478c5f8c5e2d90e5e9b26dbe60c54d800"
                            }
                        ],
                        "signature": "getAddress(uint64,bytes32)"
                    },
                    "errorInfo": "",
                    "fromAddress": "0x06a9ab27c7e2255df1815e6cc0168d7755feb19a",
                    "gasUsed": 1028,
                    "id": 8,
                    "methodDecoded": true,
                    "operation": "STATICCALL",
                    "output": "0x00000000000000000000000010dea67478c5f8c5e2d90e5e9b26dbe60c54d800",
                    "revert": false,
                    "revertMessage": "",
                    "selector": "0x28f713cc",
                    "status": true,
                    "value": "0"
                },
                "nodeType": 0
            },
            "9": {
                "invocation": {
                    "address": "0x8eef314878a7e56314e8df285d0b0d649c903af6",
                    "callData": "0x00000000000000000000000000000000000000000000000000000000000000017461696b6f5f746f6b656e000000000000000000000000000000000000000000",
                    "decodedMethod": {
                        "callParams": [
                            {
                                "name": "_chainId",
                                "type": "uint64",
                                "value": "1"
                            },
                            {
                                "name": "_name",
                                "type": "bytes32",
                                "value": "0x7461696b6f5f746f6b656e000000000000000000000000000000000000000000"
                            }
                        ],
                        "constructorArguments": "",
                        "name": "getAddress",
                        "returnParams": [
                            {
                                "name": "",
                                "type": "address",
                                "value": "0x10dea67478c5f8c5e2d90e5e9b26dbe60c54d800"
                            }
                        ],
                        "signature": "getAddress(uint64,bytes32)"
                    },
                    "errorInfo": "",
                    "fromAddress": "0x579f40d0be111b823962043702cabe6aaa290780",
                    "gasUsed": 633,
                    "id": 9,
                    "methodDecoded": true,
                    "operation": "DELEGATECALL",
                    "output": "0x00000000000000000000000010dea67478c5f8c5e2d90e5e9b26dbe60c54d800",
                    "revert": false,
                    "revertMessage": "",
                    "selector": "0x28f713cc",
                    "status": true,
                    "value": "0"
                },
                "nodeType": 0
            }
        },
        "gasFlame": [
            {
                "children": [
                    {
                        "children": [
                            {
                                "children": [],
                                "depth": 0,
                                "name": "Initial Gas",
                                "value": 29660
                            },
                            {
                                "children": [
                                    {
                                        "children": [
                                            {
                                                "children": [
                                                    {
                                                        "children": [],
                                                        "depth": 3,
                                                        "name": "getAddress",
                                                        "value": 720
                                                    }
                                                ],
                                                "depth": 2,
                                                "name": "getAddress",
                                                "value": 5615
                                            },
                                            {
                                                "children": [
                                                    {
                                                        "children": [
                                                            {
                                                                "children": [
                                                                    {
                                                                        "children": [],
                                                                        "depth": 5,
                                                                        "name": "getAddress",
                                                                        "value": 633
                                                                    }
                                                                ],
                                                                "depth": 4,
                                                                "name": "getAddress",
                                                                "value": 1028
                                                            },
                                                            {
                                                                "children": [
                                                                    {
                                                                        "children": [
                                                                            {
                                                                                "children": [
                                                                                    {
                                                                                        "children": [],
                                                                                        "depth": 7,
                                                                                        "name": "getAddress",
                                                                                        "value": 859
                                                                                    }
                                                                                ],
                                                                                "depth": 6,
                                                                                "name": "getAddress",
                                                                                "value": 1254
                                                                            }
                                                                        ],
                                                                        "depth": 5,
                                                                        "name": "resolve",
                                                                        "value": 2442
                                                                    }
                                                                ],
                                                                "depth": 4,
                                                                "name": "resolve",
                                                                "value": 2837
                                                            },
                                                            {
                                                                "children": [],
                                                                "depth": 4,
                                                                "name": "getProvider",
                                                                "value": 259
                                                            },
                                                            {
                                                                "children": [],
                                                                "depth": 4,
                                                                "name": "getTier",
                                                                "value": 913
                                                            },
                                                            {
                                                                "children": [],
                                                                "depth": 4,
                                                                "name": "getTier",
                                                                "value": 849
                                                            },
                                                            {
                                                                "children": [
                                                                    {
                                                                        "children": [
                                                                            {
                                                                                "children": [
                                                                                    {
                                                                                        "children": [],
                                                                                        "depth": 7,
                                                                                        "name": "getAddress",
                                                                                        "value": 778
                                                                                    }
                                                                                ],
                                                                                "depth": 6,
                                                                                "name": "getAddress",
                                                                                "value": 1173
                                                                            }
                                                                        ],
                                                                        "depth": 5,
                                                                        "name": "resolve",
                                                                        "value": 2361
                                                                    }
                                                                ],
                                                                "depth": 4,
                                                                "name": "resolve",
                                                                "value": 2756
                                                            },
                                                            {
                                                                "children": [
                                                                    {
                                                                        "children": [],
                                                                        "depth": 5,
                                                                        "name": "verifyProof",
                                                                        "value": 739
                                                                    }
                                                                ],
                                                                "depth": 4,
                                                                "name": "verifyProof",
                                                                "value": 1233
                                                            },
                                                            {
                                                                "children": [
                                                                    {
                                                                        "children": [],
                                                                        "depth": 5,
                                                                        "name": "transferFrom",
                                                                        "value": 17818
                                                                    }
                                                                ],
                                                                "depth": 4,
                                                                "name": "transferFrom",
                                                                "value": 22719
                                                            },
                                                            {
                                                                "children": [
                                                                    {
                                                                        "children": [
                                                                            {
                                                                                "children": [
                                                                                    {
                                                                                        "children": [],
                                                                                        "depth": 7,
                                                                                        "name": "getAddress",
                                                                                        "value": 859
                                                                                    }
                                                                                ],
                                                                                "depth": 6,
                                                                                "name": "getAddress",
                                                                                "value": 1254
                                                                            }
                                                                        ],
                                                                        "depth": 5,
                                                                        "name": "resolve",
                                                                        "value": 2442
                                                                    }
                                                                ],
                                                                "depth": 4,
                                                                "name": "resolve",
                                                                "value": 2837
                                                            },
                                                            {
                                                                "children": [],
                                                                "depth": 4,
                                                                "name": "getProvider",
                                                                "value": 259
                                                            },
                                                            {
                                                                "children": [],
                                                                "depth": 4,
                                                                "name": "getTier",
                                                                "value": 849
                                                            }
                                                        ],
                                                        "depth": 3,
                                                        "name": "proveBlock",
                                                        "value": 239194
                                                    }
                                                ],
                                                "depth": 2,
                                                "name": "proveBlock",
                                                "value": 244249
                                            }
                                        ],
                                        "depth": 1,
                                        "name": "approve",
                                        "value": 328053
                                    }
                                ],
                                "depth": 0,
                                "name": "Executed Gas",
                                "value": 333093
                            }
                        ],
                        "depth": -1,
                        "name": "Actual Gas Used",
                        "value": 322953
                    },
                    {
                        "children": [],
                        "depth": -1,
                        "name": "Refunded Gas",
                        "value": 39800
                    }
                ],
                "depth": -2,
                "name": "Total Gas",
                "value": 362753
            }
        ],
        "isConfirmed": true,
        "mainTrace": [
            {
                "children": [
                    {
                        "children": [
                            {
                                "children": [
                                    {
                                        "children": [],
                                        "depth": 2,
                                        "id": 2,
                                        "order": 2
                                    },
                                    {
                                        "children": [],
                                        "depth": 2,
                                        "id": 3,
                                        "order": 3
                                    },
                                    {
                                        "children": [
                                            {
                                                "children": [],
                                                "depth": 3,
                                                "id": 5,
                                                "order": 5
                                            }
                                        ],
                                        "depth": 2,
                                        "id": 4,
                                        "order": 4
                                    },
                                    {
                                        "children": [
                                            {
                                                "children": [
                                                    {
                                                        "children": [
                                                            {
                                                                "children": [],
                                                                "depth": 5,
                                                                "id": 9,
                                                                "order": 9
                                                            }
                                                        ],
                                                        "depth": 4,
                                                        "id": 8,
                                                        "order": 8
                                                    },
                                                    {
                                                        "children": [
                                                            {
                                                                "children": [
                                                                    {
                                                                        "children": [
                                                                            {
                                                                                "children": [],
                                                                                "depth": 7,
                                                                                "id": 13,
                                                                                "order": 13
                                                                            }
                                                                        ],
                                                                        "depth": 6,
                                                                        "id": 12,
                                                                        "order": 12
                                                                    }
                                                                ],
                                                                "depth": 5,
                                                                "id": 11,
                                                                "order": 11
                                                            }
                                                        ],
                                                        "depth": 4,
                                                        "id": 10,
                                                        "order": 10
                                                    },
                                                    {
                                                        "children": [],
                                                        "depth": 4,
                                                        "id": 14,
                                                        "order": 14
                                                    },
                                                    {
                                                        "children": [],
                                                        "depth": 4,
                                                        "id": 15,
                                                        "order": 15
                                                    },
                                                    {
                                                        "children": [],
                                                        "depth": 4,
                                                        "id": 16,
                                                        "order": 16
                                                    },
                                                    {
                                                        "children": [
                                                            {
                                                                "children": [
                                                                    {
                                                                        "children": [
                                                                            {
                                                                                "children": [],
                                                                                "depth": 7,
                                                                                "id": 20,
                                                                                "order": 20
                                                                            }
                                                                        ],
                                                                        "depth": 6,
                                                                        "id": 19,
                                                                        "order": 19
                                                                    }
                                                                ],
                                                                "depth": 5,
                                                                "id": 18,
                                                                "order": 18
                                                            }
                                                        ],
                                                        "depth": 4,
                                                        "id": 17,
                                                        "order": 17
                                                    },
                                                    {
                                                        "children": [
                                                            {
                                                                "children": [],
                                                                "depth": 5,
                                                                "id": 22,
                                                                "order": 22
                                                            }
                                                        ],
                                                        "depth": 4,
                                                        "id": 21,
                                                        "order": 21
                                                    },
                                                    {
                                                        "children": [
                                                            {
                                                                "children": [
                                                                    {
                                                                        "children": [],
                                                                        "depth": 6,
                                                                        "id": 25,
                                                                        "order": 25
                                                                    }
                                                                ],
                                                                "depth": 5,
                                                                "id": 24,
                                                                "order": 24
                                                            }
                                                        ],
                                                        "depth": 4,
                                                        "id": 23,
                                                        "order": 23
                                                    },
                                                    {
                                                        "children": [],
                                                        "depth": 4,
                                                        "id": 26,
                                                        "order": 26
                                                    },
                                                    {
                                                        "children": [
                                                            {
                                                                "children": [
                                                                    {
                                                                        "children": [
                                                                            {
                                                                                "children": [],
                                                                                "depth": 7,
                                                                                "id": 30,
                                                                                "order": 30
                                                                            }
                                                                        ],
                                                                        "depth": 6,
                                                                        "id": 29,
                                                                        "order": 29
                                                                    }
                                                                ],
                                                                "depth": 5,
                                                                "id": 28,
                                                                "order": 28
                                                            }
                                                        ],
                                                        "depth": 4,
                                                        "id": 27,
                                                        "order": 27
                                                    },
                                                    {
                                                        "children": [],
                                                        "depth": 4,
                                                        "id": 31,
                                                        "order": 31
                                                    },
                                                    {
                                                        "children": [],
                                                        "depth": 4,
                                                        "id": 32,
                                                        "order": 32
                                                    },
                                                    {
                                                        "children": [],
                                                        "depth": 4,
                                                        "id": 33,
                                                        "order": 33
                                                    }
                                                ],
                                                "depth": 3,
                                                "id": 7,
                                                "order": 7
                                            }
                                        ],
                                        "depth": 2,
                                        "id": 6,
                                        "order": 6
                                    }
                                ],
                                "depth": 1,
                                "id": 1,
                                "order": 1
                            }
                        ],
                        "depth": 0,
                        "id": 0,
                        "order": 0
                    }
                ],
                "depth": -1,
                "id": -1,
                "order": -1
            }
        ],
        "mainTraceNodeCount": 34,
        "parentIdMap": {
            "0": -1,
            "1": 0,
            "10": 7,
            "11": 10,
            "12": 11,
            "13": 12,
            "14": 7,
            "15": 7,
            "16": 7,
            "17": 7,
            "18": 17,
            "19": 18,
            "2": 1,
            "20": 19,
            "21": 7,
            "22": 21,
            "23": 7,
            "24": 23,
            "25": 24,
            "26": 7,
            "27": 7,
            "28": 27,
            "29": 28,
            "3": 1,
            "30": 29,
            "31": 7,
            "32": 7,
            "33": 7,
            "4": 1,
            "5": 4,
            "6": 1,
            "7": 6,
            "8": 7,
            "9": 8
        },
        "tidyTrace": [
            {
                "children": [
                    {
                        "children": [
                            {
                                "children": [
                                    {
                                        "children": [],
                                        "depth": 2,
                                        "id": 2,
                                        "order": 2
                                    },
                                    {
                                        "children": [],
                                        "depth": 2,
                                        "id": 3,
                                        "order": 3
                                    },
                                    {
                                        "children": [
                                            {
                                                "children": [
                                                    {
                                                        "children": [
                                                            {
                                                                "children": [],
                                                                "depth": 5,
                                                                "id": 22,
                                                                "order": 22
                                                            }
                                                        ],
                                                        "depth": 4,
                                                        "id": 21,
                                                        "order": 21
                                                    },
                                                    {
                                                        "children": [
                                                            {
                                                                "children": [
                                                                    {
                                                                        "children": [],
                                                                        "depth": 6,
                                                                        "id": 25,
                                                                        "order": 25
                                                                    }
                                                                ],
                                                                "depth": 5,
                                                                "id": 24,
                                                                "order": 24
                                                            }
                                                        ],
                                                        "depth": 4,
                                                        "id": 23,
                                                        "order": 23
                                                    },
                                                    {
                                                        "children": [],
                                                        "depth": 4,
                                                        "id": 26,
                                                        "order": 26
                                                    },
                                                    {
                                                        "children": [],
                                                        "depth": 4,
                                                        "id": 33,
                                                        "order": 33
                                                    }
                                                ],
                                                "depth": 3,
                                                "id": 7,
                                                "order": 7
                                            }
                                        ],
                                        "depth": 2,
                                        "id": 6,
                                        "order": 6
                                    }
                                ],
                                "depth": 1,
                                "id": 1,
                                "order": 1
                            }
                        ],
                        "depth": 0,
                        "id": 0,
                        "order": 0
                    }
                ],
                "depth": -1,
                "id": -1,
                "order": -1
            }
        ],
        "tidyTraceNodeCount": 13
    },
    "state_change": {
        "stateChanges": [
            {
                "address": "0x06a9ab27c7e2255df1815e6cc0168d7755feb19a",
                "erc": "",
                "slots": [
                    {
                        "current": "0x72db2d318a7c20f0baa22c01885063dc9ac1a4ad579c7b1f8a46f1eddf4810ac",
                        "key": "0x13885a1b794cda2e0810136bcbe159a5879347b482e9c368212b6d11e119dfcc",
                        "prev": "0x0000000000000000000000000000000000000000000000000000000000000000"
                    },
                    {
                        "current": "0x0000001b1ae4d6e2ef500000579a8d63a2db646284cbfe31fe5082c9989e985c",
                        "key": "0x13885a1b794cda2e0810136bcbe159a5879347b482e9c368212b6d11e119dfcf",
                        "prev": "0x0000000000000000000000000000000000000000000000000000000000000000"
                    },
                    {
                        "current": "0x00000000000000000000000068d30f47f19c07bccef4ac7fae2dc12fca3e0dc9",
                        "key": "0xb9b63fad2c23e9c2e1627de0ee6edee2b71705bf8797164ad6d902788e1c6667",
                        "prev": "0x0000000d8d726b7177a8000068d30f47f19c07bccef4ac7fae2dc12fca3e0dc9"
                    },
                    {
                        "current": "0xf274fee5ec96792cd558156c556015986950f9bc060f3fc4718fceac3e08cca9",
                        "key": "0x13885a1b794cda2e0810136bcbe159a5879347b482e9c368212b6d11e119dfce",
                        "prev": "0x0000000000000000000000000000000000000000000000000000000000000000"
                    },
                    {
                        "current": "0xb471ad9666aa3baa1a6eb85422658ba267f2e65975cbda2e8f1e9096074a2f07",
                        "key": "0x13885a1b794cda2e0810136bcbe159a5879347b482e9c368212b6d11e119dfcd",
                        "prev": "0x0000000000000000000000000000000000000000000000000000000000000000"
                    },
                    {
                        "current": "0x0000000000000002000000000133fc3b00000000667d8ea70000000000019f19",
                        "key": "0xb9b63fad2c23e9c2e1627de0ee6edee2b71705bf8797164ad6d902788e1c6668",
                        "prev": "0x0000000000000001000000000133fc3b00000000667d8ea70000000000019f19"
                    },
                    {
                        "current": "0x0000000000000000000000010000000000000000000000000000000000000000",
                        "key": "0x13885a1b794cda2e0810136bcbe159a5879347b482e9c368212b6d11e119dfd0",
                        "prev": "0x0000000000000000000000000000000000000000000000000000000000000000"
                    },
                    {
                        "current": "0x00000000000000000000000000000000000000000000038400000000667dab03",
                        "key": "0x13885a1b794cda2e0810136bcbe159a5879347b482e9c368212b6d11e119dfd1",
                        "prev": "0x0000000000000000000000000000000000000000000000000000000000000000"
                    }
                ],
                "storageVariables": [
                    {
                        "name": "state",
                        "type": "struct TaikoData.State",
                        "value": {
                            "fields": [
                                {
                                    "name": "blocks",
                                    "type": "mapping(uint64 => struct TaikoData.Block)",
                                    "value": {
                                        "pairs": [
                                            {
                                                "key": "106265",
                                                "value": {
                                                    "fields": [
                                                        {
                                                            "name": "assignedProver",
                                                            "type": "address",
                                                            "value": {
                                                                "current": "0x68d30f47f19c07bccef4ac7fae2dc12fca3e0dc9",
                                                                "prev": "0x68d30f47f19c07bccef4ac7fae2dc12fca3e0dc9",
                                                                "typeTag": 1
                                                            }
                                                        },
                                                        {
                                                            "name": "livenessBond",
                                                            "type": "uint96",
                                                            "value": {
                                                                "current": "0",
                                                                "prev": "250000000000000000000",
                                                                "typeTag": 1
                                                            }
                                                        },
                                                        {
                                                            "name": "blockId",
                                                            "type": "uint64",
                                                            "value": {
                                                                "current": "106265",
                                                                "prev": "106265",
                                                                "typeTag": 1
                                                            }
                                                        },
                                                        {
                                                            "name": "proposedAt",
                                                            "type": "uint64",
                                                            "value": {
                                                                "current": "1719504551",
                                                                "prev": "1719504551",
                                                                "typeTag": 1
                                                            }
                                                        },
                                                        {
                                                            "name": "proposedIn",
                                                            "type": "uint64",
                                                            "value": {
                                                                "current": "20184123",
                                                                "prev": "20184123",
                                                                "typeTag": 1
                                                            }
                                                        },
                                                        {
                                                            "name": "nextTransitionId",
                                                            "type": "uint32",
                                                            "value": {
                                                                "current": "2",
                                                                "prev": "1",
                                                                "typeTag": 1
                                                            }
                                                        },
                                                        {
                                                            "name": "verifiedTransitionId",
                                                            "type": "uint32",
                                                            "value": {
                                                                "current": "0",
                                                                "prev": "0",
                                                                "typeTag": 1
                                                            }
                                                        }
                                                    ],
                                                    "typeTag": 3
                                                }
                                            }
                                        ],
                                        "typeTag": 4
                                    }
                                },
                                {
                                    "name": "transitions",
                                    "type": "mapping(uint64 => mapping(uint32 => struct TaikoData.TransitionState))",
                                    "value": {
                                        "pairs": [
                                            {
                                                "key": "106265",
                                                "value": {
                                                    "pairs": [
                                                        {
                                                            "key": "1",
                                                            "value": {
                                                                "fields": [
                                                                    {
                                                                        "name": "key",
                                                                        "type": "bytes32",
                                                                        "value": {
                                                                            "current": "0x72db2d318a7c20f0baa22c01885063dc9ac1a4ad579c7b1f8a46f1eddf4810ac",
                                                                            "prev": "0x0000000000000000000000000000000000000000000000000000000000000000",
                                                                            "typeTag": 1
                                                                        }
                                                                    },
                                                                    {
                                                                        "name": "blockHash",
                                                                        "type": "bytes32",
                                                                        "value": {
                                                                            "current": "0xb471ad9666aa3baa1a6eb85422658ba267f2e65975cbda2e8f1e9096074a2f07",
                                                                            "prev": "0x0000000000000000000000000000000000000000000000000000000000000000",
                                                                            "typeTag": 1
                                                                        }
                                                                    },
                                                                    {
                                                                        "name": "stateRoot",
                                                                        "type": "bytes32",
                                                                        "value": {
                                                                            "current": "0xf274fee5ec96792cd558156c556015986950f9bc060f3fc4718fceac3e08cca9",
                                                                            "prev": "0x0000000000000000000000000000000000000000000000000000000000000000",
                                                                            "typeTag": 1
                                                                        }
                                                                    },
                                                                    {
                                                                        "name": "prover",
                                                                        "type": "address",
                                                                        "value": {
                                                                            "current": "0x579a8d63a2db646284cbfe31fe5082c9989e985c",
                                                                            "prev": "0x0000000000000000000000000000000000000000",
                                                                            "typeTag": 1
                                                                        }
                                                                    },
                                                                    {
                                                                        "name": "validityBond",
                                                                        "type": "uint96",
                                                                        "value": {
                                                                            "current": "500000000000000000000",
                                                                            "prev": "0",
                                                                            "typeTag": 1
                                                                        }
                                                                    },
                                                                    {
                                                                        "name": "contester",
                                                                        "type": "address",
                                                                        "value": {
                                                                            "current": "0x0000000000000000000000000000000000000000",
                                                                            "prev": "0x0000000000000000000000000000000000000000",
                                                                            "typeTag": 1
                                                                        }
                                                                    },
                                                                    {
                                                                        "name": "contestBond",
                                                                        "type": "uint96",
                                                                        "value": {
                                                                            "current": "1",
                                                                            "prev": "0",
                                                                            "typeTag": 1
                                                                        }
                                                                    },
                                                                    {
                                                                        "name": "timestamp",
                                                                        "type": "uint64",
                                                                        "value": {
                                                                            "current": "1719511811",
                                                                            "prev": "0",
                                                                            "typeTag": 1
                                                                        }
                                                                    },
                                                                    {
                                                                        "name": "tier",
                                                                        "type": "uint16",
                                                                        "value": {
                                                                            "current": "900",
                                                                            "prev": "0",
                                                                            "typeTag": 1
                                                                        }
                                                                    },
                                                                    {
                                                                        "name": "__reserved1",
                                                                        "type": "uint8",
                                                                        "value": {
                                                                            "current": "0",
                                                                            "prev": "0",
                                                                            "typeTag": 1
                                                                        }
                                                                    }
                                                                ],
                                                                "typeTag": 3
                                                            }
                                                        }
                                                    ],
                                                    "typeTag": 4
                                                }
                                            }
                                        ],
                                        "typeTag": 4
                                    }
                                }
                            ],
                            "typeTag": 3
                        }
                    }
                ]
            },
            {
                "address": "0x10dea67478c5f8c5e2d90e5e9b26dbe60c54d800",
                "erc": "ERC-20",
                "slots": [
                    {
                        "current": "0x00000000000000000000000000000000000000000000bc30cb69eb1c35640000",
                        "key": "0x52e9d648f74e02ce50008a57d5081c4f920cda2ea95783fea4de70ed1ae7e4a4",
                        "prev": "0x00000000000000000000000000000000000000000000bc15b085143946140000"
                    },
                    {
                        "current": "0x00000000000000000000000000000000000000000004156fc859d954db3c0000",
                        "key": "0x5ada4fda104355078d4f4651bcaf45226228d91afc5c3098f2d0085e77e6c661",
                        "prev": "0x00000000000000000000000000000000000000000004158ae33eb037ca8c0000"
                    }
                ],
                "storageVariables": [
                    {
                        "name": "_balances",
                        "type": "mapping(address => uint256)",
                        "value": {
                            "pairs": [
                                {
                                    "key": "0x06a9ab27c7e2255df1815e6cc0168d7755feb19a",
                                    "value": {
                                        "current": "888705000000000000000000",
                                        "prev": "888205000000000000000000",
                                        "typeTag": 1
                                    }
                                },
                                {
                                    "key": "0x579a8d63a2db646284cbfe31fe5082c9989e985c",
                                    "value": {
                                        "current": "4936935000000000000000000",
                                        "prev": "4937435000000000000000000",
                                        "typeTag": 1
                                    }
                                }
                            ],
                            "typeTag": 4
                        }
                    }
                ]
            }
        ]
    }
}