{
    "balance_change": {
        "balanceChanges": []
    },
    "profile": {
        "basic_info": {
            "baseFee": "26.814823093",
            "blockNumber": 12983698,
            "callData": "0xc44193c3000000000000000000000000000000000000000000000000000000000000222f000000000000000000000000000000000000000000000002aaa5fc6155770000",
            "debugEnable": true,
            "errorInfo": "",
            "eventCount": 1,
            "feeRecipient": "0x01ca8a0ba4a80d12a8fb6e3655688f57b16608cf",
            "formatValue": "0",
            "gasLimit": 200000,
            "gasPrice": "43",
            "gasUsed": 79646,
            "intTxnCount": 0,
            "internalRevert": false,
            "internalRevertMessage": "",
            "isContractCreation": false,
            "isFlashloan": false,
            "maxFee": "",
            "nonce": 613,
            "overwritedBlockNumber": -1,
            "priorityFee": "",
            "receiver": "0xb47e3cd837ddf8e4c57f05d70ab865de6e193bbb",
            "revertMessage": "",
            "sender": "0xcd147f1394941bdc7a00b48531dce81af0fd858c",
            "simulationEnable": true,
            "sourceTxnHash": "0x5bec0a733a4964c0470846f75998c11420109b9ec5c8604007484594a3057653",
            "status": true,
            "timestamp": "2021-08-08T09:49:59Z",
            "transactionFee": "0.003424778",
            "txnHash": "0x5bec0a733a4964c0470846f75998c11420109b9ec5c8604007484594a3057653",
            "txnIndex": 1,
            "type": 0,
            "value": "0"
        },
        "fund_flow": [],
        "token_infos": [
            {
                "address": "0xc02aaa39b223fe8d0a0e5c4f27ead9083c756cc2",
                "decimals": 18
            },
            {
                "address": "0xeeeeeeeeeeeeeeeeeeeeeeeeeeeeeeeeeeeeeeee",
                "decimals": 18
            }
        ]
    },
    "address_label": {
        "labels": [
            {
                "address": "0xeeeeeeeeeeeeeeeeeeeeeeeeeeeeeeeeeeeeeeee",
                "label": "Ether"
            },
            {
                "address": "0xb47e3cd837ddf8e4c57f05d70ab865de6e193bbb",
                "label": "CryptoPunks: \u03fe Token"
            },
            {
                "address": "0x0000000000000000000000000000000000000001",
                "label": "Precompiled"
            },
            {
                "address": "0x0000000000000000000000000000000000000002",
                "label": "Precompiled"
            },
            {
                "address": "0x0000000000000000000000000000000000000003",
                "label": "Precompiled"
            },
            {
                "address": "0x0000000000000000000000000000000000000004",
                "label": "Precompiled"
            }
        ]
    },
    "trace": {
        "accountLabels": null,
        "dataMap": {
            "-1": {
                "invocation": {
                    "address": "0xcd147f1394941bdc7a00b48531dce81af0fd858c",
                    "callData": "",
                    "decodedMethod": null,
                    "errorInfo": "",
                    "fromAddress": "",
                    "gasUsed": 0,
                    "id": -1,
                    "methodDecoded": false,
                    "operation": "",
                    "output": "",
                    "revert": false,
                    "revertMessage": "",
                    "selector": "",
                    "status": false,
                    "value": ""
                },
                "nodeType": 0
            },
            "0": {
                "invocation": {
                    "address": "0xb47e3cd837ddf8e4c57f05d70ab865de6e193bbb",
                    "callData": "0x000000000000000000000000000000000000000000000000000000000000222f000000000000000000000000000000000000000000000002aaa5fc6155770000",
                    "decodedMethod": {
                        "callParams": [
                            {
                                "name": "punkIndex",
                                "type": "uint256",
                                "value": "8,751"
                            },
                            {
                                "name": "minSalePriceInWei",
                                "type": "uint256",
                                "value": "49,190,000,000,000,000,000"
                            }
                        ],
                        "constructorArguments": "",
                        "name": "offerPunkForSale",
                        "returnParams": [],
                        "signature": "offerPunkForSale(uint256,uint256)"
                    },
                    "errorInfo": "",
                    "fromAddress": "0xcd147f1394941bdc7a00b48531dce81af0fd858c",
                    "gasUsed": 79646,
                    "id": 0,
                    "methodDecoded": true,
                    "operation": "CALL",
                    "output": "",
                    "revert": false,
                    "revertMessage": "",
                    "selector": "0xc44193c3",
                    "status": true,
                    "value": "0"
                },
                "nodeType": 0
            },
            "1": {
                "event": {
                    "contract": "0xb47e3cd837ddf8e4c57f05d70ab865de6e193bbb",
                    "decodedLog": {
                        "name": "PunkOffered",
                        "params": [
                            {
                                "name": "punkIndex",
                                "type": "uint256",
                                "value": "8,751"
                            },
                            {
                                "name": "toAddress",
                                "type": "address",
                                "value": "0x0000000000000000000000000000000000000000"
                            },
                            {
                                "name": "minValue",
                                "type": "uint256",
                                "value": "49,190,000,000,000,000,000"
                            }
                        ],
                        "signature": "PunkOffered(uint256,uint256,address)"
                    },
                    "id": 1,
                    "logData": "0x000000000000000000000000000000000000000000000002aaa5fc6155770000",
                    "logDecoded": true,
                    "operation": "EVENT",
                    "revert": false,
                    "status": true,
                    "topics": [
                        "0x3c7b682d5da98001a9b8cbda6c647d2c63d698a4184fd1d55e2ce7b66f5d21eb",
                        "0x000000000000000000000000000000000000000000000000000000000000222f",
                        "0x0000000000000000000000000000000000000000000000000000000000000000"
                    ]
                },
                "nodeType": 1
            }
        },
        "gasFlame": [
            {
                "children": [
                    {
                        "children": [
                            {
                                "children": [],
                                "depth": 0,
                                "name": "Initial Gas",
                                "value": 21428
                            },
                            {
                                "children": [],
                                "depth": 0,
                                "name": "Executed Gas",
                                "value": 58218
                            }
                        ],
                        "depth": -1,
                        "name": "Actual Gas Used",
                        "value": 79646
                    },
                    {
                        "children": [],
                        "depth": -1,
                        "name": "Refunded Gas",
                        "value": 0
                    }
                ],
                "depth": -2,
                "name": "Total Gas",
                "value": 79646
            }
        ],
        "isConfirmed": true,
        "mainTrace": [
            {
                "children": [
                    {
                        "children": [
                            {
                                "children": [],
                                "depth": 1,
                                "id": 1,
                                "order": 1
                            }
                        ],
                        "depth": 0,
                        "id": 0,
                        "order": 0
                    }
                ],
                "depth": -1,
                "id": -1,
                "order": -1
            }
        ],
        "mainTraceNodeCount": 2,
        "parentIdMap": {
            "0": -1,
            "1": 0
        },
        "tidyTrace": [
            {
                "children": [
                    {
                        "children": [
                            {
                                "children": [],
                                "depth": 1,
                                "id": 1,
                                "order": 1
                            }
                        ],
                        "depth": 0,
                        "id": 0,
                        "order": 0
                    }
                ],
                "depth": -1,
                "id": -1,
                "order": -1
            }
        ],
        "tidyTraceNodeCount": 2
    },
    "state_change": {
        "stateChanges": [
            {
                "address": "0xb47e3cd837ddf8e4c57f05d70ab865de6e193bbb",
                "erc": "",
                "slots": [
                    {
                        "current": "0x0000000000000000000000000000000000000000000000000000000000000001",
                        "key": "0x13d8cfcd7bcd2ac9ce09e3330ec60a43d4acf23bcc74e2d8dae36b22aa20b475",
                        "prev": "0x0000000000000000000000000000000000000000000000000000000000000000"
                    },
                    {
                        "current": "0x000000000000000000000000000000000000000000000002aaa5fc6155770000",
                        "key": "0x13d8cfcd7bcd2ac9ce09e3330ec60a43d4acf23bcc74e2d8dae36b22aa20b478",
                        "prev": "0x0000000000000000000000000000000000000000000000000000000000000000"
                    }
                ],
                "storageVariables": []
            }
        ]
    }
}