{
    "balance_change": {
        "balanceChanges": [
            {
                "account": "0x5c14fc55aedab11dce029c742b99633f4bd20e6d",
                "assets": [
                    {
                        "address": "0xeeeeeeeeeeeeeeeeeeeeeeeeeeeeeeeeeeeeeeee",
                        "amount": "5",
                        "iconUrl": "https://assets.blocksec.com/image/1663669189317-3.png",
                        "isERC1155": false,
                        "isERC721": false,
                        "sign": false,
                        "value": "9670.149999999999864"
                    },
                    {
                        "address": "0xae7ab96520de3a18e5e111b5eaab095312d7fe84",
                        "amount": "4.999999999999999998",
                        "iconUrl": "https://assets.blocksec.com/icon/3968fd5c98727016afc635f2849cea0c6ddf42095e660b8a3497ee09185b175e.png",
                        "isERC1155": false,
                        "isERC721": false,
                        "sign": true,
                        "value": "9650.950000000000273"
                    }
                ]
            },
            {
                "account": "0xae7ab96520de3a18e5e111b5eaab095312d7fe84",
                "assets": [
                    {
                        "address": "0xeeeeeeeeeeeeeeeeeeeeeeeeeeeeeeeeeeeeeeee",
                        "amount": "5",
                        "iconUrl": "https://assets.blocksec.com/image/1663669189317-3.png",
                        "isERC1155": false,
                        "isERC721": false,
                        "sign": true,
                        "value": "9670.149999999999864"
                    }
                ]
            },
            {
                "account": "0x0000000000000000000000000000000000000000",
                "assets": [
                    {
                        "address": "0xae7ab96520de3a18e5e111b5eaab095312d7fe84",
                        "amount": "4.999999999999999998",
                        "iconUrl": "https://assets.blocksec.com/icon/3968fd5c98727016afc635f2849cea0c6ddf42095e660b8a3497ee09185b175e.png",
                        "isERC1155": false,
                        "isERC721": false,
                        "sign": false,
                        "value": "9650.950000000000273"
                    }
                ]
            }
        ]
    },
    "profile": {
        "basic_info": {
            "baseFee": "13.18063601",
            "blockNumber": 17695032,
            "callData": "0xa1903eab0000000000000000000000006dc9657c2d90d57cadffb64239242d06e6103e43",
            "debugEnable": true,
            "errorInfo": "",
            "eventCount": 3,
            "feeRecipient": "0x1f9090aae28b8a3dceadf281b0f12828e676c326",
            "formatValue": "5",
            "gasLimit": 94905,
            "gasPrice": "13.63063601",
            "gasUsed": 80542,
            "intTxnCount": 3,
            "internalRevert": false,
            "internalRevertMessage": "",
            "isContractCreation": false,
            "isFlashloan": false,
            "maxFee": "20.328239297",
            "nonce": 3,
            "overwritedBlockNumber": -1,
            "priorityFee": "0.45",
            "receiver": "0xae7ab96520de3a18e5e111b5eaab095312d7fe84",
            "revertMessage": "",
            "sender": "0x5c14fc55aedab11dce029c742b99633f4bd20e6d",
            "simulationEnable": true,
            "sourceTxnHash": "0x5b45fe6714c14be0ad242917ccc4f3d0897c13cf942d0ae6096cf46d8571e03d",
            "status": true,
            "timestamp": "2023-07-14T23:43:59Z",
            "transactionFee": "0.00109783868551742",
            "txnHash": "0x5b45fe6714c14be0ad242917ccc4f3d0897c13cf942d0ae6096cf46d8571e03d",
            "txnIndex": 77,
            "type": 2,
            "value": "5000000000000000000"
        },
        "fund_flow": [
            {
                "amount": "5",
                "from": "0x5c14fc55aedab11dce029c742b99633f4bd20e6d",
                "id": 1,
                "isERC1155": false,
                "isERC721": false,
                "isReverted": false,
                "order": 1,
                "to": "0xae7ab96520de3a18e5e111b5eaab095312d7fe84",
                "token": "0xeeeeeeeeeeeeeeeeeeeeeeeeeeeeeeeeeeeeeeee"
            },
            {
                "amount": "4.999999999999999998",
                "from": "0x0000000000000000000000000000000000000000",
                "id": 2,
                "isERC1155": false,
                "isERC721": false,
                "isReverted": false,
                "order": 2,
                "to": "0x5c14fc55aedab11dce029c742b99633f4bd20e6d",
                "token": "0xae7ab96520de3a18e5e111b5eaab095312d7fe84"
            }
        ],
        "token_infos": [
            {
                "address": "0xeeeeeeeeeeeeeeeeeeeeeeeeeeeeeeeeeeeeeeee",
                "decimals": 18
            },
            {
                "address": "0xae7ab96520de3a18e5e111b5eaab095312d7fe84",
                "decimals": 18
            },
            {
                "address": "0xc02aaa39b223fe8d0a0e5c4f27ead9083c756cc2",
                "decimals": 18
            }
        ]
    },
    "address_label": {
        "labels": [
            {
                "address": "0xeeeeeeeeeeeeeeeeeeeeeeeeeeeeeeeeeeeeeeee",
                "label": "Ether"
            },
            {
                "address": "0xb8ffc3cd6e7cf5a098a1c92f48009765b24088dc",
                "label": "Lido: DAO"
            },
            {
                "address": "0x0000000000000000000000000000000000000001",
                "label": "Precompiled"
            },
            {
                "address": "0x0000000000000000000000000000000000000002",
                "label": "Precompiled"
            },
            {
                "address": "0x0000000000000000000000000000000000000004",
                "label": "Precompiled"
            },
            {
                "address": "0x2b33cf282f867a7ff693a66e11b0fcc5552e4425",
                "label": "Lido: DAO Impl 1.0.0"
            },
            {
                "address": "0xae7ab96520de3a18e5e111b5eaab095312d7fe84",
                "label": "Lido: stETH Token"
            },
            {
                "address": "0x17144556fd3424edc8fc8a4c940b2d04936d17eb",
                "label": "Lido: stETH Token Impl 2.0.0"
            },
            {
                "address": "0x0000000000000000000000000000000000000003",
                "label": "Precompiled"
            }
        ]
    },
    "trace": {
        "accountLabels": null,
        "dataMap": {
            "-1": {
                "invocation": {
                    "address": "0x5c14fc55aedab11dce029c742b99633f4bd20e6d",
                    "callData": "",
                    "decodedMethod": null,
                    "errorInfo": "",
                    "fromAddress": "",
                    "gasUsed": 0,
                    "id": -1,
                    "methodDecoded": false,
                    "operation": "",
                    "output": "",
                    "revert": false,
                    "revertMessage": "",
                    "selector": "",
                    "status": false,
                    "value": ""
                },
                "nodeType": 0
            },
            "0": {
                "invocation": {
                    "address": "0xae7ab96520de3a18e5e111b5eaab095312d7fe84",
                    "callData": "0x0000000000000000000000006dc9657c2d90d57cadffb64239242d06e6103e43",
                    "decodedMethod": {
                        "callParams": [
                            {
                                "name": "",
                                "type": "address",
                                "value": "0x6dc9657c2d90d57cadffb64239242d06e6103e43"
                            }
                        ],
                        "constructorArguments": "",
                        "name": "submit",
                        "returnParams": [
                            {
                                "name": "",
                                "type": "uint256",
                                "value": "4,416,880,085,356,683,833"
                            }
                        ],
                        "signature": "submit(address)"
                    },
                    "errorInfo": "",
                    "fromAddress": "0x5c14fc55aedab11dce029c742b99633f4bd20e6d",
                    "gasUsed": 80542,
                    "id": 0,
                    "methodDecoded": true,
                    "operation": "CALL",
                    "output": "0x0000000000000000000000000000000000000000000000003d4be909372ea239",
                    "revert": false,
                    "revertMessage": "",
                    "selector": "0xa1903eab",
                    "status": true,
                    "value": "5"
                },
                "nodeType": 0
            },
            "1": {
                "invocation": {
                    "address": "0xb8ffc3cd6e7cf5a098a1c92f48009765b24088dc",
                    "callData": "0xf1f3eb40f5bc1ad1344716ced8b8a0431d840b5783aea1fd01786bc26f35ac0f3ca7c3e38968823ccb4c78ea688df41356f182ae1d159e4ee608d30d68cef320",
                    "decodedMethod": {
                        "callParams": [
                            {
                                "name": "_namespace",
                                "type": "bytes32",
                                "value": "0xf1f3eb40f5bc1ad1344716ced8b8a0431d840b5783aea1fd01786bc26f35ac0f"
                            },
                            {
                                "name": "_appId",
                                "type": "bytes32",
                                "value": "0x3ca7c3e38968823ccb4c78ea688df41356f182ae1d159e4ee608d30d68cef320"
                            }
                        ],
                        "constructorArguments": "",
                        "name": "getApp",
                        "returnParams": [
                            {
                                "name": "",
                                "type": "address",
                                "value": "0x17144556fd3424edc8fc8a4c940b2d04936d17eb"
                            }
                        ],
                        "signature": "getApp(bytes32,bytes32)"
                    },
                    "errorInfo": "",
                    "fromAddress": "0xae7ab96520de3a18e5e111b5eaab095312d7fe84",
                    "gasUsed": 8263,
                    "id": 1,
                    "methodDecoded": true,
                    "operation": "CALL",
                    "output": "0x00000000000000000000000017144556fd3424edc8fc8a4c940b2d04936d17eb",
                    "revert": false,
                    "revertMessage": "",
                    "selector": "0xbe00bbd8",
                    "status": true,
                    "value": "0"
                },
                "nodeType": 0
            },
            "2": {
                "invocation": {
                    "address": "0x2b33cf282f867a7ff693a66e11b0fcc5552e4425",
                    "callData": "0xf1f3eb40f5bc1ad1344716ced8b8a0431d840b5783aea1fd01786bc26f35ac0f3ca7c3e38968823ccb4c78ea688df41356f182ae1d159e4ee608d30d68cef320",
                    "decodedMethod": {
                        "callParams": [
                            {
                                "name": "_namespace",
                                "type": "bytes32",
                                "value": "0xf1f3eb40f5bc1ad1344716ced8b8a0431d840b5783aea1fd01786bc26f35ac0f"
                            },
                            {
                                "name": "_appId",
                                "type": "bytes32",
                                "value": "0x3ca7c3e38968823ccb4c78ea688df41356f182ae1d159e4ee608d30d68cef320"
                            }
                        ],
                        "constructorArguments": "",
                        "name": "getApp",
                        "returnParams": [
                            {
                                "name": "",
                                "type": "address",
                                "value": "0x17144556fd3424edc8fc8a4c940b2d04936d17eb"
                            }
                        ],
                        "signature": "getApp(bytes32,bytes32)"
                    },
                    "errorInfo": "",
                    "fromAddress": "0xb8ffc3cd6e7cf5a098a1c92f48009765b24088dc",
                    "gasUsed": 2820,
                    "id": 2,
                    "methodDecoded": true,
                    "operation": "DELEGATECALL",
                    "output": "0x00000000000000000000000017144556fd3424edc8fc8a4c940b2d04936d17eb",
                    "revert": false,
                    "revertMessage": "",
                    "selector": "0xbe00bbd8",
                    "status": true,
                    "value": "0"
                },
                "nodeType": 0
            },
            "3": {
                "invocation": {
                    "address": "0x17144556fd3424edc8fc8a4c940b2d04936d17eb",
                    "callData": "0x0000000000000000000000006dc9657c2d90d57cadffb64239242d06e6103e43",
                    "decodedMethod": {
                        "callParams": [
                            {
                                "name": "_referral",
                                "type": "address",
                                "value": "0x6dc9657c2d90d57cadffb64239242d06e6103e43"
                            }
                        ],
                        "constructorArguments": "",
                        "name": "submit",
                        "returnParams": [
                            {
                                "name": "",
                                "type": "uint256",
                                "value": "4,416,880,085,356,683,833"
                            }
                        ],
                        "signature": "submit(address)"
                    },
                    "errorInfo": "",
                    "fromAddress": "0xae7ab96520de3a18e5e111b5eaab095312d7fe84",
                    "gasUsed": 40230,
                    "id": 3,
                    "methodDecoded": true,
                    "operation": "DELEGATECALL",
                    "output": "0x0000000000000000000000000000000000000000000000003d4be909372ea239",
                    "revert": false,
                    "revertMessage": "",
                    "selector": "0xa1903eab",
                    "status": true,
                    "value": "5"
                },
                "nodeType": 0
            },
            "4": {
                "event": {
                    "contract": "0xae7ab96520de3a18e5e111b5eaab095312d7fe84",
                    "decodedLog": {
                        "name": "Submitted",
                        "params": [
                            {
                                "name": "sender",
                                "type": "address",
                                "value": "0x5c14fc55aedab11dce029c742b99633f4bd20e6d"
                            },
                            {
                                "name": "amount",
                                "type": "uint256",
                                "value": "5,000,000,000,000,000,000"
                            },
                            {
                                "name": "referral",
                                "type": "address",
                                "value": "0x6dc9657c2d90d57cadffb64239242d06e6103e43"
                            }
                        ],
                        "signature": "Submitted(address,uint256,address)"
                    },
                    "id": 4,
                    "logData": "0x0000000000000000000000000000000000000000000000004563918244f400000000000000000000000000006dc9657c2d90d57cadffb64239242d06e6103e43",
                    "logDecoded": true,
                    "operation": "EVENT",
                    "revert": false,
                    "status": true,
                    "topics": [
                        "0x96a25c8ce0baabc1fdefd93e9ed25d8e092a3332f3aa9a41722b5697231d1d1a",
                        "0x0000000000000000000000005c14fc55aedab11dce029c742b99633f4bd20e6d"
                    ]
                },
                "nodeType": 1
            },
            "5": {
                "event": {
                    "contract": "0xae7ab96520de3a18e5e111b5eaab095312d7fe84",
                    "decodedLog": {
                        "name": "Transfer",
                        "params": [
                            {
                                "name": "from",
                                "type": "address",
                                "value": "0x0000000000000000000000000000000000000000"
                            },
                            {
                                "name": "to",
                                "type": "address",
                                "value": "0x5c14fc55aedab11dce029c742b99633f4bd20e6d"
                            },
                            {
                                "decimalAvailable": true,
                                "name": "value",
                                "type": "uint256",
                                "value": "4,999,999,999,999,999,998"
                            }
                        ],
                        "signature": "Transfer(address,address,uint256)"
                    },
                    "id": 5,
                    "logData": "0x0000000000000000000000000000000000000000000000004563918244f3fffe",
                    "logDecoded": true,
                    "operation": "EVENT",
                    "revert": false,
                    "status": true,
                    "topics": [
                        "0xddf252ad1be2c89b69c2b068fc378daa952ba7f163c4a11628f55a4df523b3ef",
                        "0x0000000000000000000000000000000000000000000000000000000000000000",
                        "0x0000000000000000000000005c14fc55aedab11dce029c742b99633f4bd20e6d"
                    ]
                },
                "nodeType": 1
            },
            "6": {
                "event": {
                    "contract": "0xae7ab96520de3a18e5e111b5eaab095312d7fe84",
                    "decodedLog": {
                        "name": "TransferShares",
                        "params": [
                            {
                                "name": "from",
                                "type": "address",
                                "value": "0x0000000000000000000000000000000000000000"
                            },
                            {
                                "name": "to",
                                "type": "address",
                                "value": "0x5c14fc55aedab11dce029c742b99633f4bd20e6d"
                            },
                            {
                                "name": "sharesValue",
                                "type": "uint256",
                                "value": "4,416,880,085,356,683,833"
                            }
                        ],
                        "signature": "TransferShares(address,address,uint256)"
                    },
                    "id": 6,
                    "logData": "0x0000000000000000000000000000000000000000000000003d4be909372ea239",
                    "logDecoded": true,
                    "operation": "EVENT",
                    "revert": false,
                    "status": true,
                    "topics": [
                        "0x9d9c909296d9c674451c0c24f02cb64981eb3b727f99865939192f880a755dcb",
                        "0x0000000000000000000000000000000000000000000000000000000000000000",
                        "0x0000000000000000000000005c14fc55aedab11dce029c742b99633f4bd20e6d"
                    ]
                },
                "nodeType": 1
            }
        },
        "gasFlame": [
            {
                "children": [
                    {
                        "children": [
                            {
                                "children": [],
                                "depth": 0,
                                "name": "Initial Gas",
                                "value": 21432
                            },
                            {
                                "children": [
                                    {
                                        "children": [
                                            {
                                                "children": [],
                                                "depth": 2,
                                                "name": "getApp",
                                                "value": 2820
                                            }
                                        ],
                                        "depth": 1,
                                        "name": "getApp",
                                        "value": 8263
                                    },
                                    {
                                        "children": [],
                                        "depth": 1,
                                        "name": "submit",
                                        "value": 40230
                                    }
                                ],
                                "depth": 0,
                                "name": "Executed Gas",
                                "value": 59110
                            }
                        ],
                        "depth": -1,
                        "name": "Actual Gas Used",
                        "value": 80542
                    },
                    {
                        "children": [],
                        "depth": -1,
                        "name": "Refunded Gas",
                        "value": 0
                    }
                ],
                "depth": -2,
                "name": "Total Gas",
                "value": 80542
            }
        ],
        "isConfirmed": true,
        "mainTrace": [
            {
                "children": [
                    {
                        "children": [
                            {
                                "children": [
                                    {
                                        "children": [],
                                        "depth": 2,
                                        "id": 2,
                                        "order": 2
                                    }
                                ],
                                "depth": 1,
                                "id": 1,
                                "order": 1
                            },
                            {
                                "children": [
                                    {
                                        "children": [],
                                        "depth": 2,
                                        "id": 4,
                                        "order": 4
                                    },
                                    {
                                        "children": [],
                                        "depth": 2,
                                        "id": 5,
                                        "order": 5
                                    },
                                    {
                                        "children": [],
                                        "depth": 2,
                                        "id": 6,
                                        "order": 6
                                    }
                                ],
                                "depth": 1,
                                "id": 3,
                                "order": 3
                            }
                        ],
                        "depth": 0,
                        "id": 0,
                        "order": 0
                    }
                ],
                "depth": -1,
                "id": -1,
                "order": -1
            }
        ],
        "mainTraceNodeCount": 7,
        "parentIdMap": {
            "0": -1,
            "1": 0,
            "2": 1,
            "3": 0,
            "4": 3,
            "5": 3,
            "6": 3
        },
        "tidyTrace": [
            {
                "children": [
                    {
                        "children": [
                            {
                                "children": [
                                    {
                                        "children": [],
                                        "depth": 2,
                                        "id": 2,
                                        "order": 2
                                    }
                                ],
                                "depth": 1,
                                "id": 1,
                                "order": 1
                            },
                            {
                                "children": [
                                    {
                                        "children": [],
                                        "depth": 2,
                                        "id": 4,
                                        "order": 4
                                    },
                                    {
                                        "children": [],
                                        "depth": 2,
                                        "id": 5,
                                        "order": 5
                                    },
                                    {
                                        "children": [],
                                        "depth": 2,
                                        "id": 6,
                                        "order": 6
                                    }
                                ],
                                "depth": 1,
                                "id": 3,
                                "order": 3
                            }
                        ],
                        "depth": 0,
                        "id": 0,
                        "order": 0
                    }
                ],
                "depth": -1,
                "id": -1,
                "order": -1
            }
        ],
        "tidyTraceNodeCount": 7
    },
    "state_change": {
        "stateChanges": [
            {
                "address": "0xae7ab96520de3a18e5e111b5eaab095312d7fe84",
                "erc": "",
                "slots": [
                    {
                        "current": "0x00001fc3842bd1f071c000000000190000001fc33ec8406e2ccc0000010e0138",
                        "key": "0xa3678de4a579be090bed1177e0a24f77cc29d181ac22fd7688aca344d8938015",
                        "prev": "0x00001fc3842bd1f071c000000000190000001fa1221bf8db4f4aa80e010e0113"
                    },
                    {
                        "current": "0x00000000000000000000000000000000000000000005a4a89c90b5440f6f8507",
                        "key": "0xe3b4b636e601189b5f4c6742edf2538ac12bb61ed03e6da26949d69838fa447e",
                        "prev": "0x00000000000000000000000000000000000000000005a4a85f44cc3ad840e2ce"
                    },
                    {
                        "current": "0x00000000000000000000000000000000000000000000000055d16685f3cd10df",
                        "key": "0x4ed2b02bc3eb4f62a1639ef57471aefbeb7e7cdef14252651801828c58946bf2",
                        "prev": "0x00000000000000000000000000000000000000000000000018857d7cbc9e6ea6"
                    },
                    {
                        "current": "0x00000000000000000000000000000000000000000000000eebb04b31981c3512",
                        "key": "0xed310af23f61f96daefbcd140b306c0bdbf8c178398299741687b90e794772b0",
                        "prev": "0x00000000000000000000000000000000000000000000000ea64cb9af53283512"
                    }
                ],
                "storageVariables": []
            }
        ]
    }
}