{
    "balance_change": {
        "balanceChanges": [
            {
                "account": "0x5968b664460d17d35650932618eff7233d7401de",
                "assets": [
                    {
                        "address": "0xda605fd5e003e6de0f33f6474080623fa6483e3e",
                        "amount": "350",
                        "iconUrl": "",
                        "isERC1155": false,
                        "isERC721": false,
                        "sign": false,
                        "value": ""
                    }
                ]
            },
            {
                "account": "0xa5383802c1dd06c244a83e0d18674e57cd67eeb5",
                "assets": [
                    {
                        "address": "0xda605fd5e003e6de0f33f6474080623fa6483e3e",
                        "amount": "350",
                        "iconUrl": "",
                        "isERC1155": false,
                        "isERC721": false,
                        "sign": true,
                        "value": ""
                    }
                ]
            }
        ]
    },
    "profile": {
        "basic_info": {
            "baseFee": "",
            "blockNumber": 9136608,
            "callData": "0xa9059cbb000000000000000000000000a5383802c1dd06c244a83e0d18674e57cd67eeb50000000000000000000000000000000000000000000000000000000826299e00",
            "debugEnable": true,
            "errorInfo": "",
            "eventCount": 1,
            "feeRecipient": "0x5a0b54d5dc17e0aadc383d2db43b0a0d3e029c4c",
            "formatValue": "0",
            "gasLimit": 55000,
            "gasPrice": "3.1",
            "gasUsed": 36697,
            "intTxnCount": 0,
            "internalRevert": false,
            "internalRevertMessage": "",
            "isContractCreation": false,
            "isFlashloan": false,
            "maxFee": "",
            "nonce": 28938,
            "overwritedBlockNumber": -1,
            "priorityFee": "",
            "receiver": "0xda605fd5e003e6de0f33f6474080623fa6483e3e",
            "revertMessage": "",
            "sender": "0x5968b664460d17d35650932618eff7233d7401de",
            "simulationEnable": true,
            "sourceTxnHash": "0x5be317789bafdc7100cbdd9ce750c119e22a673c1241419ba2095a47745cca9f",
            "status": true,
            "timestamp": "2019-12-20T17:23:10Z",
            "transactionFee": "0.0001137607",
            "txnHash": "0x5be317789bafdc7100cbdd9ce750c119e22a673c1241419ba2095a47745cca9f",
            "txnIndex": 65,
            "type": 0,
            "value": "0"
        },
        "fund_flow": [
            {
                "amount": "350",
                "from": "0x5968b664460d17d35650932618eff7233d7401de",
                "id": 1,
                "isERC1155": false,
                "isERC721": false,
                "isReverted": false,
                "order": 1,
                "to": "0xa5383802c1dd06c244a83e0d18674e57cd67eeb5",
                "token": "0xda605fd5e003e6de0f33f6474080623fa6483e3e"
            }
        ],
        "token_infos": [
            {
                "address": "0xc02aaa39b223fe8d0a0e5c4f27ead9083c756cc2",
                "decimals": 18
            },
            {
                "address": "0xda605fd5e003e6de0f33f6474080623fa6483e3e",
                "decimals": 8
            },
            {
                "address": "0xeeeeeeeeeeeeeeeeeeeeeeeeeeeeeeeeeeeeeeee",
                "decimals": 18
            }
        ]
    },
    "address_label": {
        "labels": [
            {
                "address": "0x0000000000000000000000000000000000000004",
                "label": "Precompiled"
            },
            {
                "address": "0xeeeeeeeeeeeeeeeeeeeeeeeeeeeeeeeeeeeeeeee",
                "label": "Ether"
            },
            {
                "address": "0xda605fd5e003e6de0f33f6474080623fa6483e3e",
                "label": "Capital Coin (CPTL)"
            },
            {
                "address": "0x0000000000000000000000000000000000000001",
                "label": "Precompiled"
            },
            {
                "address": "0x0000000000000000000000000000000000000002",
                "label": "Precompiled"
            },
            {
                "address": "0x0000000000000000000000000000000000000003",
                "label": "Precompiled"
            }
        ]
    },
    "trace": {
        "accountLabels": null,
        "dataMap": {
            "-1": {
                "invocation": {
                    "address": "0x5968b664460d17d35650932618eff7233d7401de",
                    "callData": "",
                    "decodedMethod": null,
                    "errorInfo": "",
                    "fromAddress": "",
                    "gasUsed": 0,
                    "id": -1,
                    "methodDecoded": false,
                    "operation": "",
                    "output": "",
                    "revert": false,
                    "revertMessage": "",
                    "selector": "",
                    "status": false,
                    "value": ""
                },
                "nodeType": 0
            },
            "0": {
                "invocation": {
                    "address": "0xda605fd5e003e6de0f33f6474080623fa6483e3e",
                    "callData": "0x000000000000000000000000a5383802c1dd06c244a83e0d18674e57cd67eeb50000000000000000000000000000000000000000000000000000000826299e00",
                    "decodedMethod": {
                        "callParams": [
                            {
                                "name": "_to",
                                "type": "address",
                                "value": "0xa5383802c1dd06c244a83e0d18674e57cd67eeb5"
                            },
                            {
                                "decimalAvailable": true,
                                "name": "_value",
                                "type": "uint256",
                                "value": "35,000,000,000"
                            }
                        ],
                        "constructorArguments": "",
                        "name": "transfer",
                        "returnParams": [
                            {
                                "name": "success",
                                "type": "bool",
                                "value": true
                            }
                        ],
                        "signature": "transfer(address,uint256)"
                    },
                    "errorInfo": "",
                    "fromAddress": "0x5968b664460d17d35650932618eff7233d7401de",
                    "gasUsed": 36697,
                    "id": 0,
                    "methodDecoded": true,
                    "operation": "CALL",
                    "output": "0x0000000000000000000000000000000000000000000000000000000000000001",
                    "revert": false,
                    "revertMessage": "",
                    "selector": "0xa9059cbb",
                    "status": true,
                    "value": "0"
                },
                "nodeType": 0
            },
            "1": {
                "event": {
                    "contract": "0xda605fd5e003e6de0f33f6474080623fa6483e3e",
                    "decodedLog": {
                        "name": "Transfer",
                        "params": [
                            {
                                "name": "_from",
                                "type": "address",
                                "value": "0x5968b664460d17d35650932618eff7233d7401de"
                            },
                            {
                                "name": "_to",
                                "type": "address",
                                "value": "0xa5383802c1dd06c244a83e0d18674e57cd67eeb5"
                            },
                            {
                                "decimalAvailable": true,
                                "name": "_value",
                                "type": "uint256",
                                "value": "35,000,000,000"
                            }
                        ],
                        "signature": "Transfer(address,address,uint256)"
                    },
                    "id": 1,
                    "logData": "0x0000000000000000000000000000000000000000000000000000000826299e00",
                    "logDecoded": true,
                    "operation": "EVENT",
                    "revert": false,
                    "status": true,
                    "topics": [
                        "0xddf252ad1be2c89b69c2b068fc378daa952ba7f163c4a11628f55a4df523b3ef",
                        "0x0000000000000000000000005968b664460d17d35650932618eff7233d7401de",
                        "0x000000000000000000000000a5383802c1dd06c244a83e0d18674e57cd67eeb5"
                    ]
                },
                "nodeType": 1
            }
        },
        "gasFlame": [
            {
                "children": [
                    {
                        "children": [
                            {
                                "children": [],
                                "depth": 0,
                                "name": "Initial Gas",
                                "value": 21608
                            },
                            {
                                "children": [],
                                "depth": 0,
                                "name": "Executed Gas",
                                "value": 15089
                            }
                        ],
                        "depth": -1,
                        "name": "Actual Gas Used",
                        "value": 36697
                    },
                    {
                        "children": [],
                        "depth": -1,
                        "name": "Refunded Gas",
                        "value": 0
                    }
                ],
                "depth": -2,
                "name": "Total Gas",
                "value": 36697
            }
        ],
        "isConfirmed": true,
        "mainTrace": [
            {
                "children": [
                    {
                        "children": [
                            {
                                "children": [],
                                "depth": 1,
                                "id": 1,
                                "order": 1
                            }
                        ],
                        "depth": 0,
                        "id": 0,
                        "order": 0
                    }
                ],
                "depth": -1,
                "id": -1,
                "order": -1
            }
        ],
        "mainTraceNodeCount": 2,
        "parentIdMap": {
            "0": -1,
            "1": 0
        },
        "tidyTrace": [
            {
                "children": [
                    {
                        "children": [
                            {
                                "children": [],
                                "depth": 1,
                                "id": 1,
                                "order": 1
                            }
                        ],
                        "depth": 0,
                        "id": 0,
                        "order": 0
                    }
                ],
                "depth": -1,
                "id": -1,
                "order": -1
            }
        ],
        "tidyTraceNodeCount": 2
    },
    "state_change": {
        "stateChanges": [
            {
                "address": "0xda605fd5e003e6de0f33f6474080623fa6483e3e",
                "erc": "ERC-20",
                "slots": [
                    {
                        "current": "0x0000000000000000000000000000000000000000000000000010beadc666a00b",
                        "key": "0xe2b13ca2b3c8a8aa4e4f7e4c8396d603383a9e02b932e843973e57e66d74a1de",
                        "prev": "0x0000000000000000000000000000000000000000000000000010beb5ec903e0b"
                    },
                    {
                        "current": "0x00000000000000000000000000000000000000000000000000000de72aff9780",
                        "key": "0x5b52ac31cd71d116929cf14dfdbf7fbf89938b66eb660d86b7173bb2efd024b5",
                        "prev": "0x00000000000000000000000000000000000000000000000000000ddf04d5f980"
                    }
                ],
                "storageVariables": []
            }
        ]
    }
}