{
    "balance_change": {
        "balanceChanges": [
            {
                "account": "0x5f65f7b609678448494de4c87521cdf6cef1e932",
                "assets": [
                    {
                        "address": "0x9f8f72aa9304c8b593d555f12ef6589cc3a579a2",
                        "amount": "6.705",
                        "iconUrl": "https://assets.blocksec.com/icon/9361536498fbf76e6152f13d41df201aae3e94cf23c8459569e7c47c22f44dc1.png",
                        "isERC1155": false,
                        "isERC721": false,
                        "sign": false,
                        "value": "6129.0405000000001525"
                    }
                ]
            },
            {
                "account": "0xa294cca691e4c83b1fc0c8d63d9a3eef0a196de1",
                "assets": [
                    {
                        "address": "0x9f8f72aa9304c8b593d555f12ef6589cc3a579a2",
                        "amount": "6.705",
                        "iconUrl": "https://assets.blocksec.com/icon/9361536498fbf76e6152f13d41df201aae3e94cf23c8459569e7c47c22f44dc1.png",
                        "isERC1155": false,
                        "isERC721": false,
                        "sign": true,
                        "value": "6129.0405000000001525"
                    }
                ]
            }
        ]
    },
    "profile": {
        "basic_info": {
            "baseFee": "49.243070511",
            "blockNumber": 16771964,
            "callData": "0xfa558b710000000000000000000000009f8f72aa9304c8b593d555f12ef6589cc3a579a2000000000000000000000000000000000000000000000000000000000000006000000000000000000000000000000000000000000000000000000000000000a00000000000000000000000000000000000000000000000000000000000000001000000000000000000000000a294cca691e4c83b1fc0c8d63d9a3eef0a196de100000000000000000000000000000000000000000000000000000000000000010000000000000000000000000000000000000000000000005d0cf1f9b2fe8000",
            "debugEnable": true,
            "errorInfo": "",
            "eventCount": 1,
            "feeRecipient": "0x57af10ed3469b2351ae60175d3c9b3740e1bb649",
            "formatValue": "0",
            "gasLimit": 351400,
            "gasPrice": "50.022042195",
            "gasUsed": 46139,
            "intTxnCount": 1,
            "internalRevert": false,
            "internalRevertMessage": "",
            "isContractCreation": false,
            "isFlashloan": false,
            "maxFee": "1250",
            "nonce": 3840056,
            "overwritedBlockNumber": -1,
            "priorityFee": "0.778971684",
            "receiver": "0x5f65f7b609678448494de4c87521cdf6cef1e932",
            "revertMessage": "",
            "sender": "0xd24400ae8bfebb18ca49be86258a3c749cf46853",
            "simulationEnable": true,
            "sourceTxnHash": "0x5b9489185456a29ef409a3d956595f2dceea1fbf884ff488afad845ef6db2520",
            "status": true,
            "timestamp": "2023-03-06T21:26:11Z",
            "transactionFee": "0.002307967004835105",
            "txnHash": "0x5b9489185456a29ef409a3d956595f2dceea1fbf884ff488afad845ef6db2520",
            "txnIndex": 71,
            "type": 2,
            "value": "0"
        },
        "fund_flow": [
            {
                "amount": "6.705",
                "from": "0x5f65f7b609678448494de4c87521cdf6cef1e932",
                "id": 1,
                "isERC1155": false,
                "isERC721": false,
                "isReverted": false,
                "order": 1,
                "to": "0xa294cca691e4c83b1fc0c8d63d9a3eef0a196de1",
                "token": "0x9f8f72aa9304c8b593d555f12ef6589cc3a579a2"
            }
        ],
        "token_infos": [
            {
                "address": "0xc02aaa39b223fe8d0a0e5c4f27ead9083c756cc2",
                "decimals": 18
            },
            {
                "address": "0xeeeeeeeeeeeeeeeeeeeeeeeeeeeeeeeeeeeeeeee",
                "decimals": 18
            },
            {
                "address": "0x9f8f72aa9304c8b593d555f12ef6589cc3a579a2",
                "decimals": 18
            }
        ]
    },
    "address_label": {
        "labels": [
            {
                "address": "0x5f65f7b609678448494de4c87521cdf6cef1e932",
                "label": "GEMINI"
            },
            {
                "address": "0x0000000000000000000000000000000000000003",
                "label": "Precompiled"
            },
            {
                "address": "0x0000000000000000000000000000000000000004",
                "label": "Precompiled"
            },
            {
                "address": "0x0000000000000000000000000000000000000002",
                "label": "Precompiled"
            },
            {
                "address": "0xeeeeeeeeeeeeeeeeeeeeeeeeeeeeeeeeeeeeeeee",
                "label": "Ether"
            },
            {
                "address": "0xd24400ae8bfebb18ca49be86258a3c749cf46853",
                "label": "Gemini"
            },
            {
                "address": "0xa294cca691e4c83b1fc0c8d63d9a3eef0a196de1",
                "label": "Fund: 0xa29...de1"
            },
            {
                "address": "0x9f8f72aa9304c8b593d555f12ef6589cc3a579a2",
                "label": "Sky: MKR Token"
            },
            {
                "address": "0x0000000000000000000000000000000000000001",
                "label": "Precompiled"
            }
        ]
    },
    "trace": {
        "accountLabels": null,
        "dataMap": {
            "-1": {
                "invocation": {
                    "address": "0xd24400ae8bfebb18ca49be86258a3c749cf46853",
                    "callData": "",
                    "decodedMethod": null,
                    "errorInfo": "",
                    "fromAddress": "",
                    "gasUsed": 0,
                    "id": -1,
                    "methodDecoded": false,
                    "operation": "",
                    "output": "",
                    "revert": false,
                    "revertMessage": "",
                    "selector": "",
                    "status": false,
                    "value": ""
                },
                "nodeType": 0
            },
            "0": {
                "invocation": {
                    "address": "0x5f65f7b609678448494de4c87521cdf6cef1e932",
                    "callData": "0x0000000000000000000000009f8f72aa9304c8b593d555f12ef6589cc3a579a2000000000000000000000000000000000000000000000000000000000000006000000000000000000000000000000000000000000000000000000000000000a00000000000000000000000000000000000000000000000000000000000000001000000000000000000000000a294cca691e4c83b1fc0c8d63d9a3eef0a196de100000000000000000000000000000000000000000000000000000000000000010000000000000000000000000000000000000000000000005d0cf1f9b2fe8000",
                    "decodedMethod": {
                        "callParams": [
                            {
                                "name": "recipient",
                                "type": "address",
                                "value": "0x9f8f72aa9304c8b593d555f12ef6589cc3a579a2"
                            },
                            {
                                "name": "tokens",
                                "type": "address[]",
                                "value": [
                                    "0xa294cca691e4c83b1fc0c8d63d9a3eef0a196de1"
                                ]
                            },
                            {
                                "name": "amounts",
                                "type": "uint256[]",
                                "value": [
                                    "6,705,000,000,000,000,000"
                                ]
                            }
                        ],
                        "constructorArguments": "",
                        "name": "transferERC20",
                        "returnParams": [],
                        "signature": "transferERC20(address,address[],uint256[])"
                    },
                    "errorInfo": "",
                    "fromAddress": "0xd24400ae8bfebb18ca49be86258a3c749cf46853",
                    "gasUsed": 46139,
                    "id": 0,
                    "methodDecoded": true,
                    "operation": "CALL",
                    "output": "",
                    "revert": false,
                    "revertMessage": "",
                    "selector": "0xfa558b71",
                    "status": true,
                    "value": "0"
                },
                "nodeType": 0
            },
            "1": {
                "invocation": {
                    "address": "0x9f8f72aa9304c8b593d555f12ef6589cc3a579a2",
                    "callData": "0x000000000000000000000000a294cca691e4c83b1fc0c8d63d9a3eef0a196de10000000000000000000000000000000000000000000000005d0cf1f9b2fe8000",
                    "decodedMethod": {
                        "callParams": [
                            {
                                "name": "dst",
                                "type": "address",
                                "value": "0xa294cca691e4c83b1fc0c8d63d9a3eef0a196de1"
                            },
                            {
                                "decimalAvailable": true,
                                "name": "wad",
                                "type": "uint256",
                                "value": "6,705,000,000,000,000,000"
                            }
                        ],
                        "constructorArguments": "",
                        "name": "transfer",
                        "returnParams": [
                            {
                                "name": "",
                                "type": "bool",
                                "value": true
                            }
                        ],
                        "signature": "transfer(address,uint256)"
                    },
                    "errorInfo": "",
                    "fromAddress": "0x5f65f7b609678448494de4c87521cdf6cef1e932",
                    "gasUsed": 9606,
                    "id": 1,
                    "methodDecoded": true,
                    "operation": "CALL",
                    "output": "0x0000000000000000000000000000000000000000000000000000000000000001",
                    "revert": false,
                    "revertMessage": "",
                    "selector": "0xa9059cbb",
                    "status": true,
                    "value": "0"
                },
                "nodeType": 0
            },
            "2": {
                "event": {
                    "contract": "0x9f8f72aa9304c8b593d555f12ef6589cc3a579a2",
                    "decodedLog": {
                        "name": "Transfer",
                        "params": [
                            {
                                "name": "from",
                                "type": "address",
                                "value": "0x5f65f7b609678448494de4c87521cdf6cef1e932"
                            },
                            {
                                "name": "to",
                                "type": "address",
                                "value": "0xa294cca691e4c83b1fc0c8d63d9a3eef0a196de1"
                            },
                            {
                                "decimalAvailable": true,
                                "name": "value",
                                "type": "uint256",
                                "value": "6,705,000,000,000,000,000"
                            }
                        ],
                        "signature": "Transfer(address,address,uint256)"
                    },
                    "id": 2,
                    "logData": "0x0000000000000000000000000000000000000000000000005d0cf1f9b2fe8000",
                    "logDecoded": true,
                    "operation": "EVENT",
                    "revert": false,
                    "status": true,
                    "topics": [
                        "0xddf252ad1be2c89b69c2b068fc378daa952ba7f163c4a11628f55a4df523b3ef",
                        "0x0000000000000000000000005f65f7b609678448494de4c87521cdf6cef1e932",
                        "0x000000000000000000000000a294cca691e4c83b1fc0c8d63d9a3eef0a196de1"
                    ]
                },
                "nodeType": 1
            }
        },
        "gasFlame": [
            {
                "children": [
                    {
                        "children": [
                            {
                                "children": [],
                                "depth": 0,
                                "name": "Initial Gas",
                                "value": 34972
                            },
                            {
                                "children": [
                                    {
                                        "children": [],
                                        "depth": 1,
                                        "name": "transfer",
                                        "value": 9606
                                    }
                                ],
                                "depth": 0,
                                "name": "Executed Gas",
                                "value": 11167
                            }
                        ],
                        "depth": -1,
                        "name": "Actual Gas Used",
                        "value": 46139
                    },
                    {
                        "children": [],
                        "depth": -1,
                        "name": "Refunded Gas",
                        "value": 0
                    }
                ],
                "depth": -2,
                "name": "Total Gas",
                "value": 46139
            }
        ],
        "isConfirmed": true,
        "mainTrace": [
            {
                "children": [
                    {
                        "children": [
                            {
                                "children": [
                                    {
                                        "children": [],
                                        "depth": 2,
                                        "id": 2,
                                        "order": 2
                                    }
                                ],
                                "depth": 1,
                                "id": 1,
                                "order": 1
                            }
                        ],
                        "depth": 0,
                        "id": 0,
                        "order": 0
                    }
                ],
                "depth": -1,
                "id": -1,
                "order": -1
            }
        ],
        "mainTraceNodeCount": 3,
        "parentIdMap": {
            "0": -1,
            "1": 0,
            "2": 1
        },
        "tidyTrace": [
            {
                "children": [
                    {
                        "children": [
                            {
                                "children": [
                                    {
                                        "children": [],
                                        "depth": 2,
                                        "id": 2,
                                        "order": 2
                                    }
                                ],
                                "depth": 1,
                                "id": 1,
                                "order": 1
                            }
                        ],
                        "depth": 0,
                        "id": 0,
                        "order": 0
                    }
                ],
                "depth": -1,
                "id": -1,
                "order": -1
            }
        ],
        "tidyTraceNodeCount": 3
    },
    "state_change": {
        "stateChanges": [
            {
                "address": "0x9f8f72aa9304c8b593d555f12ef6589cc3a579a2",
                "erc": "ERC-20",
                "slots": [
                    {
                        "current": "0x00000000000000000000000000000000000000000000006aa2db96332b4caacc",
                        "key": "0xe03ce4a1ef0ada99d2df67966de6c908ac6a87915b67f682c02f27a70541c75c",
                        "prev": "0x00000000000000000000000000000000000000000000006affe8882cde4b2acc"
                    },
                    {
                        "current": "0x000000000000000000000000000000000000000000000000f4566e45f55f6000",
                        "key": "0x58be6dab34a060f53791c7e744b8a200203f53d8c29f859ec6abe9e1c596fde2",
                        "prev": "0x00000000000000000000000000000000000000000000000097497c4c4260e000"
                    }
                ],
                "storageVariables": [
                    {
                        "name": "_balances",
                        "type": "mapping(address => uint256)",
                        "value": {
                            "pairs": [
                                {
                                    "key": "0x5f65f7b609678448494de4c87521cdf6cef1e932",
                                    "value": {
                                        "current": "1967090010213770373836",
                                        "prev": "1973795010213770373836",
                                        "typeTag": 1
                                    }
                                },
                                {
                                    "key": "0xa294cca691e4c83b1fc0c8d63d9a3eef0a196de1",
                                    "value": {
                                        "current": "17606381040000000000",
                                        "prev": "10901381040000000000",
                                        "typeTag": 1
                                    }
                                }
                            ],
                            "typeTag": 4
                        }
                    }
                ]
            }
        ]
    }
}