{
    "balance_change": {
        "balanceChanges": [
            {
                "account": "0x57e499d80ea90b8f44d9796dd04a5a41cb274399",
                "assets": [
                    {
                        "address": "0xa838be6e4b760e6061d4732d6b9f11bf578f9a76",
                        "amount": "680.002",
                        "iconUrl": "",
                        "isERC1155": false,
                        "isERC721": false,
                        "sign": false,
                        "value": ""
                    }
                ]
            },
            {
                "account": "0xacc5eaee82074b991a3d0d10785feb8072888bdf",
                "assets": [
                    {
                        "address": "0xa838be6e4b760e6061d4732d6b9f11bf578f9a76",
                        "amount": "680.002",
                        "iconUrl": "",
                        "isERC1155": false,
                        "isERC721": false,
                        "sign": true,
                        "value": ""
                    }
                ]
            }
        ]
    },
    "profile": {
        "basic_info": {
            "baseFee": "",
            "blockNumber": 9938022,
            "callData": "0xa9059cbb000000000000000000000000acc5eaee82074b991a3d0d10785feb8072888bdf000000000000000000000000000000000000000000000024dcec6831eb2d0000",
            "debugEnable": true,
            "errorInfo": "",
            "eventCount": 2,
            "feeRecipient": "0x04668ec2f57cc15c381b461b9fedab5d451c8f7f",
            "formatValue": "0",
            "gasLimit": 150000,
            "gasPrice": "2.1",
            "gasUsed": 78788,
            "intTxnCount": 8,
            "internalRevert": true,
            "internalRevertMessage": "",
            "isContractCreation": false,
            "isFlashloan": false,
            "maxFee": "",
            "nonce": 21310,
            "overwritedBlockNumber": -1,
            "priorityFee": "",
            "receiver": "0xa838be6e4b760e6061d4732d6b9f11bf578f9a76",
            "revertMessage": "",
            "sender": "0x57e499d80ea90b8f44d9796dd04a5a41cb274399",
            "simulationEnable": true,
            "sourceTxnHash": "0x5bd3ddcc6d1cbc8a786d61ea46f8764a3342630663955acf3307d12153e7ca2f",
            "status": true,
            "timestamp": "2020-04-24T22:54:48Z",
            "transactionFee": "0.0001654548",
            "txnHash": "0x5bd3ddcc6d1cbc8a786d61ea46f8764a3342630663955acf3307d12153e7ca2f",
            "txnIndex": 57,
            "type": 0,
            "value": "0"
        },
        "fund_flow": [
            {
                "amount": "680.002",
                "from": "0x57e499d80ea90b8f44d9796dd04a5a41cb274399",
                "id": 1,
                "isERC1155": false,
                "isERC721": false,
                "isReverted": false,
                "order": 1,
                "to": "0xacc5eaee82074b991a3d0d10785feb8072888bdf",
                "token": "0xa838be6e4b760e6061d4732d6b9f11bf578f9a76"
            }
        ],
        "token_infos": [
            {
                "address": "0xc02aaa39b223fe8d0a0e5c4f27ead9083c756cc2",
                "decimals": 18
            },
            {
                "address": "0xeeeeeeeeeeeeeeeeeeeeeeeeeeeeeeeeeeeeeeee",
                "decimals": 18
            },
            {
                "address": "0xa838be6e4b760e6061d4732d6b9f11bf578f9a76",
                "decimals": 18
            }
        ]
    },
    "address_label": {
        "labels": [
            {
                "address": "0xeeeeeeeeeeeeeeeeeeeeeeeeeeeeeeeeeeeeeeee",
                "label": "Ether"
            },
            {
                "address": "0x60bf91ac87fee5a78c28f7b67701fbcfa79c18ec",
                "label": "historyEToken"
            },
            {
                "address": "0x331d077518216c07c87f4f18ba64cd384c411f84",
                "label": "EToken2"
            },
            {
                "address": "0x0000000000000000000000000000000000000002",
                "label": "Precompiled"
            },
            {
                "address": "0x0000000000000000000000000000000000000003",
                "label": "Precompiled"
            },
            {
                "address": "0xa838be6e4b760e6061d4732d6b9f11bf578f9a76",
                "label": "TV-TWO: TTV Token"
            },
            {
                "address": "0x0000000000000000000000000000000000000004",
                "label": "Precompiled"
            },
            {
                "address": "0x4e8703a59fec01a97d4d2d76271e4f086dbb52fc",
                "label": "MultiAssetEmitter"
            },
            {
                "address": "0x90e609aff8731c836fe6a22cb5b520f86aa616e4",
                "label": "Asset"
            },
            {
                "address": "0x0000000000000000000000000000000000000001",
                "label": "Precompiled"
            }
        ]
    },
    "trace": {
        "accountLabels": null,
        "dataMap": {
            "-1": {
                "invocation": {
                    "address": "0x57e499d80ea90b8f44d9796dd04a5a41cb274399",
                    "callData": "",
                    "decodedMethod": null,
                    "errorInfo": "",
                    "fromAddress": "",
                    "gasUsed": 0,
                    "id": -1,
                    "methodDecoded": false,
                    "operation": "",
                    "output": "",
                    "revert": false,
                    "revertMessage": "",
                    "selector": "",
                    "status": false,
                    "value": ""
                },
                "nodeType": 0
            },
            "0": {
                "invocation": {
                    "address": "0xa838be6e4b760e6061d4732d6b9f11bf578f9a76",
                    "callData": "0x000000000000000000000000acc5eaee82074b991a3d0d10785feb8072888bdf000000000000000000000000000000000000000000000024dcec6831eb2d0000",
                    "decodedMethod": {
                        "callParams": [
                            {
                                "name": "_to",
                                "type": "address",
                                "value": "0xacc5eaee82074b991a3d0d10785feb8072888bdf"
                            },
                            {
                                "decimalAvailable": true,
                                "name": "_value",
                                "type": "uint256",
                                "value": "680,002,000,000,000,000,000"
                            }
                        ],
                        "constructorArguments": "",
                        "name": "transfer",
                        "returnParams": [
                            {
                                "name": "",
                                "type": "bool",
                                "value": true
                            }
                        ],
                        "signature": "transfer(address,uint256)"
                    },
                    "errorInfo": "",
                    "fromAddress": "0x57e499d80ea90b8f44d9796dd04a5a41cb274399",
                    "gasUsed": 78788,
                    "id": 0,
                    "methodDecoded": true,
                    "operation": "CALL",
                    "output": "0x0000000000000000000000000000000000000000000000000000000000000001",
                    "revert": false,
                    "revertMessage": "",
                    "selector": "0xa9059cbb",
                    "status": true,
                    "value": "0"
                },
                "nodeType": 0
            },
            "1": {
                "invocation": {
                    "address": "0x90e609aff8731c836fe6a22cb5b520f86aa616e4",
                    "callData": "0x000000000000000000000000acc5eaee82074b991a3d0d10785feb8072888bdf000000000000000000000000000000000000000000000024dcec6831eb2d0000000000000000000000000000000000000000000000000000000000000000008000000000000000000000000057e499d80ea90b8f44d9796dd04a5a41cb2743990000000000000000000000000000000000000000000000000000000000000000",
                    "decodedMethod": {
                        "callParams": [
                            {
                                "name": "_to",
                                "type": "address",
                                "value": "0xacc5eaee82074b991a3d0d10785feb8072888bdf"
                            },
                            {
                                "name": "_value",
                                "type": "uint256",
                                "value": "680,002,000,000,000,000,000"
                            },
                            {
                                "name": "_reference",
                                "type": "string",
                                "value": ""
                            },
                            {
                                "name": "_sender",
                                "type": "address",
                                "value": "0x57e499d80ea90b8f44d9796dd04a5a41cb274399"
                            }
                        ],
                        "constructorArguments": "",
                        "name": "_performTransferWithReference",
                        "returnParams": [
                            {
                                "name": "",
                                "type": "bool",
                                "value": true
                            }
                        ],
                        "signature": "_performTransferWithReference(address,uint256,string,address)"
                    },
                    "errorInfo": "",
                    "fromAddress": "0xa838be6e4b760e6061d4732d6b9f11bf578f9a76",
                    "gasUsed": 52539,
                    "id": 1,
                    "methodDecoded": true,
                    "operation": "CALL",
                    "output": "0x0000000000000000000000000000000000000000000000000000000000000001",
                    "revert": false,
                    "revertMessage": "",
                    "selector": "0x1962df71",
                    "status": true,
                    "value": "0"
                },
                "nodeType": 0
            },
            "10": {
                "event": {
                    "contract": "0xa838be6e4b760e6061d4732d6b9f11bf578f9a76",
                    "decodedLog": {
                        "name": "Transfer",
                        "params": [
                            {
                                "name": "from",
                                "type": "address",
                                "value": "0x57e499d80ea90b8f44d9796dd04a5a41cb274399"
                            },
                            {
                                "name": "to",
                                "type": "address",
                                "value": "0xacc5eaee82074b991a3d0d10785feb8072888bdf"
                            },
                            {
                                "decimalAvailable": true,
                                "name": "value",
                                "type": "uint256",
                                "value": "680,002,000,000,000,000,000"
                            }
                        ],
                        "signature": "Transfer(address,address,uint256)"
                    },
                    "id": 10,
                    "logData": "0x000000000000000000000000000000000000000000000024dcec6831eb2d0000",
                    "logDecoded": true,
                    "operation": "EVENT",
                    "revert": false,
                    "status": true,
                    "topics": [
                        "0xddf252ad1be2c89b69c2b068fc378daa952ba7f163c4a11628f55a4df523b3ef",
                        "0x00000000000000000000000057e499d80ea90b8f44d9796dd04a5a41cb274399",
                        "0x000000000000000000000000acc5eaee82074b991a3d0d10785feb8072888bdf"
                    ]
                },
                "nodeType": 1
            },
            "2": {
                "invocation": {
                    "address": "0xa838be6e4b760e6061d4732d6b9f11bf578f9a76",
                    "callData": "0x00000000000000000000000057e499d80ea90b8f44d9796dd04a5a41cb274399000000000000000000000000acc5eaee82074b991a3d0d10785feb8072888bdf000000000000000000000000000000000000000000000024dcec6831eb2d000000000000000000000000000000000000000000000000000000000000000000a000000000000000000000000057e499d80ea90b8f44d9796dd04a5a41cb2743990000000000000000000000000000000000000000000000000000000000000000",
                    "decodedMethod": {
                        "callParams": [
                            {
                                "name": "_from",
                                "type": "address",
                                "value": "0x57e499d80ea90b8f44d9796dd04a5a41cb274399"
                            },
                            {
                                "name": "_to",
                                "type": "address",
                                "value": "0xacc5eaee82074b991a3d0d10785feb8072888bdf"
                            },
                            {
                                "name": "_value",
                                "type": "uint256",
                                "value": "680,002,000,000,000,000,000"
                            },
                            {
                                "name": "_reference",
                                "type": "string",
                                "value": ""
                            },
                            {
                                "name": "_sender",
                                "type": "address",
                                "value": "0x57e499d80ea90b8f44d9796dd04a5a41cb274399"
                            }
                        ],
                        "constructorArguments": "",
                        "name": "_forwardTransferFromWithReference",
                        "returnParams": [
                            {
                                "name": "",
                                "type": "bool",
                                "value": true
                            }
                        ],
                        "signature": "_forwardTransferFromWithReference(address,address,uint256,string,address)"
                    },
                    "errorInfo": "",
                    "fromAddress": "0x90e609aff8731c836fe6a22cb5b520f86aa616e4",
                    "gasUsed": 48391,
                    "id": 2,
                    "methodDecoded": true,
                    "operation": "CALL",
                    "output": "0x0000000000000000000000000000000000000000000000000000000000000001",
                    "revert": false,
                    "revertMessage": "",
                    "selector": "0x14cba002",
                    "status": true,
                    "value": "0"
                },
                "nodeType": 0
            },
            "3": {
                "invocation": {
                    "address": "0x331d077518216c07c87f4f18ba64cd384c411f84",
                    "callData": "0x00000000000000000000000057e499d80ea90b8f44d9796dd04a5a41cb274399000000000000000000000000acc5eaee82074b991a3d0d10785feb8072888bdf000000000000000000000000000000000000000000000024dcec6831eb2d0000545456000000000000000000000000000000000000000000000000000000000000000000000000000000000000000000000000000000000000000000000000c000000000000000000000000057e499d80ea90b8f44d9796dd04a5a41cb2743990000000000000000000000000000000000000000000000000000000000000000",
                    "decodedMethod": {
                        "callParams": [
                            {
                                "name": "_from",
                                "type": "address",
                                "value": "0x57e499d80ea90b8f44d9796dd04a5a41cb274399"
                            },
                            {
                                "name": "_to",
                                "type": "address",
                                "value": "0xacc5eaee82074b991a3d0d10785feb8072888bdf"
                            },
                            {
                                "name": "_value",
                                "type": "uint256",
                                "value": "680,002,000,000,000,000,000"
                            },
                            {
                                "name": "_symbol",
                                "type": "bytes32",
                                "value": "0x5454560000000000000000000000000000000000000000000000000000000000"
                            },
                            {
                                "name": "_reference",
                                "type": "string",
                                "value": ""
                            },
                            {
                                "name": "_sender",
                                "type": "address",
                                "value": "0x57e499d80ea90b8f44d9796dd04a5a41cb274399"
                            }
                        ],
                        "constructorArguments": "",
                        "name": "proxyTransferFromWithReference",
                        "returnParams": [
                            {
                                "name": "",
                                "type": "bool",
                                "value": true
                            }
                        ],
                        "signature": "proxyTransferFromWithReference(address,address,uint256,bytes32,string,address)"
                    },
                    "errorInfo": "",
                    "fromAddress": "0xa838be6e4b760e6061d4732d6b9f11bf578f9a76",
                    "gasUsed": 42529,
                    "id": 3,
                    "methodDecoded": true,
                    "operation": "CALL",
                    "output": "0x0000000000000000000000000000000000000000000000000000000000000001",
                    "revert": false,
                    "revertMessage": "",
                    "selector": "0x161ff662",
                    "status": true,
                    "value": "0"
                },
                "nodeType": 0
            },
            "4": {
                "invocation": {
                    "address": "0x60bf91ac87fee5a78c28f7b67701fbcfa79c18ec",
                    "callData": "0x00000000000000000000000057e499d80ea90b8f44d9796dd04a5a41cb274399000000000000000000000000acc5eaee82074b991a3d0d10785feb8072888bdf5454560000000000000000000000000000000000000000000000000000000000000000000000000000000000000000000000000000000024dcec6831eb2d000000000000000000000000000000000000000000000000000000000000000000a00000000000000000000000000000000000000000000000000000000000000000",
                    "decodedMethod": {
                        "callParams": [
                            {
                                "name": "_from",
                                "type": "address",
                                "value": "0x57e499d80ea90b8f44d9796dd04a5a41cb274399"
                            },
                            {
                                "name": "_to",
                                "type": "address",
                                "value": "0xacc5eaee82074b991a3d0d10785feb8072888bdf"
                            },
                            {
                                "name": "_symbol",
                                "type": "bytes32",
                                "value": "0x5454560000000000000000000000000000000000000000000000000000000000"
                            },
                            {
                                "name": "_value",
                                "type": "uint256",
                                "value": "680,002,000,000,000,000,000"
                            },
                            {
                                "name": "_reference",
                                "type": "string",
                                "value": ""
                            }
                        ],
                        "constructorArguments": "",
                        "name": "emitTransfer",
                        "returnParams": [],
                        "signature": "emitTransfer(address,address,bytes32,uint256,string)"
                    },
                    "errorInfo": "",
                    "fromAddress": "0x331d077518216c07c87f4f18ba64cd384c411f84",
                    "gasUsed": 9902,
                    "id": 4,
                    "methodDecoded": true,
                    "operation": "CALL",
                    "output": "",
                    "revert": false,
                    "revertMessage": "",
                    "selector": "0x515c1457",
                    "status": true,
                    "value": "0"
                },
                "nodeType": 0
            },
            "5": {
                "invocation": {
                    "address": "0x4e8703a59fec01a97d4d2d76271e4f086dbb52fc",
                    "callData": "0x00000000000000000000000057e499d80ea90b8f44d9796dd04a5a41cb274399000000000000000000000000acc5eaee82074b991a3d0d10785feb8072888bdf5454560000000000000000000000000000000000000000000000000000000000000000000000000000000000000000000000000000000024dcec6831eb2d000000000000000000000000000000000000000000000000000000000000000000a00000000000000000000000000000000000000000000000000000000000000000",
                    "decodedMethod": {
                        "callParams": [
                            {
                                "name": "_from",
                                "type": "address",
                                "value": "0x57e499d80ea90b8f44d9796dd04a5a41cb274399"
                            },
                            {
                                "name": "_to",
                                "type": "address",
                                "value": "0xacc5eaee82074b991a3d0d10785feb8072888bdf"
                            },
                            {
                                "name": "_symbol",
                                "type": "bytes32",
                                "value": "0x5454560000000000000000000000000000000000000000000000000000000000"
                            },
                            {
                                "name": "_value",
                                "type": "uint256",
                                "value": "680,002,000,000,000,000,000"
                            },
                            {
                                "name": "_reference",
                                "type": "string",
                                "value": ""
                            }
                        ],
                        "constructorArguments": "",
                        "name": "emitTransfer",
                        "returnParams": [],
                        "signature": "emitTransfer(address,address,bytes32,uint256,string)"
                    },
                    "errorInfo": "",
                    "fromAddress": "0x60bf91ac87fee5a78c28f7b67701fbcfa79c18ec",
                    "gasUsed": 6548,
                    "id": 5,
                    "methodDecoded": true,
                    "operation": "DELEGATECALL",
                    "output": "",
                    "revert": false,
                    "revertMessage": "",
                    "selector": "0x515c1457",
                    "status": true,
                    "value": "0"
                },
                "nodeType": 0
            },
            "6": {
                "invocation": {
                    "address": "0x60bf91ac87fee5a78c28f7b67701fbcfa79c18ec",
                    "callData": "0x000000000000000000000000331d077518216c07c87f4f18ba64cd384c411f84",
                    "decodedMethod": {
                        "callParams": [
                            {
                                "name": "",
                                "type": "address",
                                "value": "0x331d077518216c07c87f4f18ba64cd384c411f84"
                            }
                        ],
                        "constructorArguments": "",
                        "name": "versions",
                        "returnParams": [
                            {
                                "name": "",
                                "type": "uint256",
                                "value": "2"
                            }
                        ],
                        "signature": "versions(address)"
                    },
                    "errorInfo": "",
                    "fromAddress": "0x60bf91ac87fee5a78c28f7b67701fbcfa79c18ec",
                    "gasUsed": 1159,
                    "id": 6,
                    "methodDecoded": true,
                    "operation": "CALL",
                    "output": "0x0000000000000000000000000000000000000000000000000000000000000002",
                    "revert": false,
                    "revertMessage": "",
                    "selector": "0x488725a0",
                    "status": true,
                    "value": "0"
                },
                "nodeType": 0
            },
            "7": {
                "invocation": {
                    "address": "0x0000000000000000000000000000000000000004",
                    "callData": "0x",
                    "decodedMethod": {
                        "callParams": [
                            {
                                "name": "data",
                                "type": "bytes",
                                "value": "0x"
                            }
                        ],
                        "constructorArguments": "",
                        "name": "dataCopy()",
                        "returnParams": [
                            {
                                "name": "data",
                                "type": "bytes",
                                "value": "0x"
                            }
                        ],
                        "signature": "dataCopy(bytes)"
                    },
                    "errorInfo": "out of gas",
                    "fromAddress": "0x60bf91ac87fee5a78c28f7b67701fbcfa79c18ec",
                    "gasUsed": 3,
                    "id": 7,
                    "methodDecoded": true,
                    "operation": "CALL",
                    "output": "",
                    "revert": true,
                    "revertMessage": "",
                    "selector": "0x",
                    "status": false,
                    "value": "0"
                },
                "nodeType": 0
            },
            "8": {
                "event": {
                    "contract": "0x60bf91ac87fee5a78c28f7b67701fbcfa79c18ec",
                    "decodedLog": {
                        "name": "Transfer",
                        "params": [
                            {
                                "name": "from",
                                "type": "address",
                                "value": "0x57e499d80ea90b8f44d9796dd04a5a41cb274399"
                            },
                            {
                                "name": "to",
                                "type": "address",
                                "value": "0xacc5eaee82074b991a3d0d10785feb8072888bdf"
                            },
                            {
                                "name": "symbol",
                                "type": "bytes32",
                                "value": "0x5454560000000000000000000000000000000000000000000000000000000000"
                            },
                            {
                                "name": "value",
                                "type": "uint256",
                                "value": "680,002,000,000,000,000,000"
                            },
                            {
                                "name": "reference",
                                "type": "string",
                                "value": ""
                            },
                            {
                                "name": "version",
                                "type": "uint256",
                                "value": "2"
                            }
                        ],
                        "signature": "Transfer(address,address,bytes32,uint256,string,uint256)"
                    },
                    "id": 8,
                    "logData": "0x000000000000000000000000000000000000000000000024dcec6831eb2d0000000000000000000000000000000000000000000000000000000000000000006000000000000000000000000000000000000000000000000000000000000000020000000000000000000000000000000000000000000000000000000000000000",
                    "logDecoded": true,
                    "operation": "EVENT",
                    "revert": false,
                    "status": true,
                    "topics": [
                        "0x940c4b3549ef0aaff95807dc27f62d88ca15532d1bf535d7d63800f40395d16c",
                        "0x00000000000000000000000057e499d80ea90b8f44d9796dd04a5a41cb274399",
                        "0x000000000000000000000000acc5eaee82074b991a3d0d10785feb8072888bdf",
                        "0x5454560000000000000000000000000000000000000000000000000000000000"
                    ]
                },
                "nodeType": 1
            },
            "9": {
                "invocation": {
                    "address": "0xa838be6e4b760e6061d4732d6b9f11bf578f9a76",
                    "callData": "0x00000000000000000000000057e499d80ea90b8f44d9796dd04a5a41cb274399000000000000000000000000acc5eaee82074b991a3d0d10785feb8072888bdf000000000000000000000000000000000000000000000024dcec6831eb2d0000",
                    "decodedMethod": {
                        "callParams": [
                            {
                                "name": "_from",
                                "type": "address",
                                "value": "0x57e499d80ea90b8f44d9796dd04a5a41cb274399"
                            },
                            {
                                "name": "_to",
                                "type": "address",
                                "value": "0xacc5eaee82074b991a3d0d10785feb8072888bdf"
                            },
                            {
                                "name": "_value",
                                "type": "uint256",
                                "value": "680,002,000,000,000,000,000"
                            }
                        ],
                        "constructorArguments": "",
                        "name": "emitTransfer",
                        "returnParams": [],
                        "signature": "emitTransfer(address,address,uint256)"
                    },
                    "errorInfo": "",
                    "fromAddress": "0x331d077518216c07c87f4f18ba64cd384c411f84",
                    "gasUsed": 3027,
                    "id": 9,
                    "methodDecoded": true,
                    "operation": "CALL",
                    "output": "",
                    "revert": false,
                    "revertMessage": "",
                    "selector": "0x23de6651",
                    "status": true,
                    "value": "0"
                },
                "nodeType": 0
            }
        },
        "gasFlame": [
            {
                "children": [
                    {
                        "children": [
                            {
                                "children": [],
                                "depth": 0,
                                "name": "Initial Gas",
                                "value": 21644
                            },
                            {
                                "children": [
                                    {
                                        "children": [
                                            {
                                                "children": [
                                                    {
                                                        "children": [
                                                            {
                                                                "children": [
                                                                    {
                                                                        "children": [
                                                                            {
                                                                                "children": [],
                                                                                "depth": 6,
                                                                                "name": "versions",
                                                                                "value": 1159
                                                                            },
                                                                            {
                                                                                "children": [],
                                                                                "depth": 6,
                                                                                "name": "dataCopy()",
                                                                                "value": 3
                                                                            }
                                                                        ],
                                                                        "depth": 5,
                                                                        "name": "emitTransfer",
                                                                        "value": 6548
                                                                    }
                                                                ],
                                                                "depth": 4,
                                                                "name": "emitTransfer",
                                                                "value": 9902
                                                            },
                                                            {
                                                                "children": [],
                                                                "depth": 4,
                                                                "name": "emitTransfer",
                                                                "value": 3027
                                                            }
                                                        ],
                                                        "depth": 3,
                                                        "name": "proxyTransferFromWithReference",
                                                        "value": 42529
                                                    }
                                                ],
                                                "depth": 2,
                                                "name": "_forwardTransferFromWithReference",
                                                "value": 48391
                                            }
                                        ],
                                        "depth": 1,
                                        "name": "_performTransferWithReference",
                                        "value": 52539
                                    }
                                ],
                                "depth": 0,
                                "name": "Executed Gas",
                                "value": 57144
                            }
                        ],
                        "depth": -1,
                        "name": "Actual Gas Used",
                        "value": 78788
                    },
                    {
                        "children": [],
                        "depth": -1,
                        "name": "Refunded Gas",
                        "value": 0
                    }
                ],
                "depth": -2,
                "name": "Total Gas",
                "value": 78788
            }
        ],
        "isConfirmed": true,
        "mainTrace": [
            {
                "children": [
                    {
                        "children": [
                            {
                                "children": [
                                    {
                                        "children": [
                                            {
                                                "children": [
                                                    {
                                                        "children": [
                                                            {
                                                                "children": [
                                                                    {
                                                                        "children": [],
                                                                        "depth": 6,
                                                                        "id": 6,
                                                                        "order": 6
                                                                    },
                                                                    {
                                                                        "children": [],
                                                                        "depth": 6,
                                                                        "id": 7,
                                                                        "order": 7
                                                                    },
                                                                    {
                                                                        "children": [],
                                                                        "depth": 6,
                                                                        "id": 8,
                                                                        "order": 8
                                                                    }
                                                                ],
                                                                "depth": 5,
                                                                "id": 5,
                                                                "order": 5
                                                            }
                                                        ],
                                                        "depth": 4,
                                                        "id": 4,
                                                        "order": 4
                                                    },
                                                    {
                                                        "children": [
                                                            {
                                                                "children": [],
                                                                "depth": 5,
                                                                "id": 10,
                                                                "order": 10
                                                            }
                                                        ],
                                                        "depth": 4,
                                                        "id": 9,
                                                        "order": 9
                                                    }
                                                ],
                                                "depth": 3,
                                                "id": 3,
                                                "order": 3
                                            }
                                        ],
                                        "depth": 2,
                                        "id": 2,
                                        "order": 2
                                    }
                                ],
                                "depth": 1,
                                "id": 1,
                                "order": 1
                            }
                        ],
                        "depth": 0,
                        "id": 0,
                        "order": 0
                    }
                ],
                "depth": -1,
                "id": -1,
                "order": -1
            }
        ],
        "mainTraceNodeCount": 11,
        "parentIdMap": {
            "0": -1,
            "1": 0,
            "10": 9,
            "2": 1,
            "3": 2,
            "4": 3,
            "5": 4,
            "6": 5,
            "7": 5,
            "8": 5,
            "9": 3
        },
        "tidyTrace": [
            {
                "children": [
                    {
                        "children": [
                            {
                                "children": [
                                    {
                                        "children": [
                                            {
                                                "children": [
                                                    {
                                                        "children": [
                                                            {
                                                                "children": [
                                                                    {
                                                                        "children": [],
                                                                        "depth": 6,
                                                                        "id": 6,
                                                                        "order": 6
                                                                    },
                                                                    {
                                                                        "children": [],
                                                                        "depth": 6,
                                                                        "id": 7,
                                                                        "order": 7
                                                                    },
                                                                    {
                                                                        "children": [],
                                                                        "depth": 6,
                                                                        "id": 8,
                                                                        "order": 8
                                                                    }
                                                                ],
                                                                "depth": 5,
                                                                "id": 5,
                                                                "order": 5
                                                            }
                                                        ],
                                                        "depth": 4,
                                                        "id": 4,
                                                        "order": 4
                                                    },
                                                    {
                                                        "children": [
                                                            {
                                                                "children": [],
                                                                "depth": 5,
                                                                "id": 10,
                                                                "order": 10
                                                            }
                                                        ],
                                                        "depth": 4,
                                                        "id": 9,
                                                        "order": 9
                                                    }
                                                ],
                                                "depth": 3,
                                                "id": 3,
                                                "order": 3
                                            }
                                        ],
                                        "depth": 2,
                                        "id": 2,
                                        "order": 2
                                    }
                                ],
                                "depth": 1,
                                "id": 1,
                                "order": 1
                            }
                        ],
                        "depth": 0,
                        "id": 0,
                        "order": 0
                    }
                ],
                "depth": -1,
                "id": -1,
                "order": -1
            }
        ],
        "tidyTraceNodeCount": 11
    },
    "state_change": {
        "stateChanges": [
            {
                "address": "0x331d077518216c07c87f4f18ba64cd384c411f84",
                "erc": "",
                "slots": [
                    {
                        "current": "0x0000000000000000000000000000000000000000000000340b30950187b08000",
                        "key": "0xee3b3f2ff6f475a1635f136aca8c5029f623e3c5114c2e8ecc19f3fe09d80e5c",
                        "prev": "0x00000000000000000000000000000000000000000000000f2e442ccf9c838000"
                    },
                    {
                        "current": "0x0000000000000000000000000000000000000000000188bca0b0b5660131a000",
                        "key": "0xc05e5f607a277ff55e3f338d1ca021d86a3ba956ad974e098405d49a2720be98",
                        "prev": "0x0000000000000000000000000000000000000000000188e17d9d1d97ec5ea000"
                    }
                ],
                "storageVariables": []
            }
        ]
    }
}