{
    "balance_change": {
        "balanceChanges": []
    },
    "profile": {
        "basic_info": {
            "baseFee": "",
            "blockNumber": 11637701,
            "callData": "0x183d4e0b0000000000000000000000000000000000000000000000004563918244f40000000000000000000000000000000000000000000000001e2e0199947aa83e000000000000000000000000000000000000000000000000000000000000000000a0000000000000000000000000dd75cd55c1367b3d2d928c6181eea46999d24a72000000000000000000000000000000000000000000000000000000005ffd17240000000000000000000000000000000000000000000000000000000000000002000000000000000000000000c02aaa39b223fe8d0a0e5c4f27ead9083c756cc20000000000000000000000008762db106b2c2a0bccb3a80d1ed41273552616e8",
            "debugEnable": true,
            "errorInfo": "execution reverted",
            "eventCount": 0,
            "feeRecipient": "0x04668ec2f57cc15c381b461b9fedab5d451c8f7f",
            "formatValue": "0",
            "gasLimit": 501000,
            "gasPrice": "83",
            "gasUsed": 39961,
            "intTxnCount": 2,
            "internalRevert": true,
            "internalRevertMessage": "",
            "isContractCreation": false,
            "isFlashloan": false,
            "maxFee": "",
            "nonce": 16218,
            "overwritedBlockNumber": -1,
            "priorityFee": "",
            "receiver": "0x7208f615f0ad6ecfa2861c763ccd61bb8e13eab8",
            "revertMessage": "",
            "sender": "0x848d47d6a68fc0ce61e234257fa7024c59d331dc",
            "simulationEnable": true,
            "sourceTxnHash": "0x5c339387d338a0a958b361ad8579fa8ab1c2a657f30b146a98224d92efe1e554",
            "status": false,
            "timestamp": "2021-01-12T03:24:31Z",
            "transactionFee": "0.003316763",
            "txnHash": "0x5c339387d338a0a958b361ad8579fa8ab1c2a657f30b146a98224d92efe1e554",
            "txnIndex": 10,
            "type": 0,
            "value": "0"
        },
        "fund_flow": [],
        "token_infos": [
            {
                "address": "0xc02aaa39b223fe8d0a0e5c4f27ead9083c756cc2",
                "decimals": 18
            },
            {
                "address": "0xeeeeeeeeeeeeeeeeeeeeeeeeeeeeeeeeeeeeeeee",
                "decimals": 18
            }
        ]
    },
    "address_label": {
        "labels": [
            {
                "address": "0xc02aaa39b223fe8d0a0e5c4f27ead9083c756cc2",
                "label": "Wrapped Ether (WETH)"
            },
            {
                "address": "0x0000000000000000000000000000000000000001",
                "label": "Precompiled"
            },
            {
                "address": "0x0000000000000000000000000000000000000004",
                "label": "Precompiled"
            },
            {
                "address": "0xeeeeeeeeeeeeeeeeeeeeeeeeeeeeeeeeeeeeeeee",
                "label": "Ether"
            },
            {
                "address": "0x7a250d5630b4cf539739df2c5dacb4c659f2488d",
                "label": "Uniswap V2: Router 2"
            },
            {
                "address": "0x8762db106b2c2a0bccb3a80d1ed41273552616e8",
                "label": "Reserve Rights: Old RSR Token"
            },
            {
                "address": "0xba65016890709dbc9491ca7bf5de395b8441dc8b",
                "label": "Uniswap V2: RSR"
            },
            {
                "address": "0x0000000000000000000000000000000000000002",
                "label": "Precompiled"
            },
            {
                "address": "0x0000000000000000000000000000000000000003",
                "label": "Precompiled"
            }
        ]
    },
    "trace": {
        "accountLabels": null,
        "dataMap": {
            "-1": {
                "invocation": {
                    "address": "0x848d47d6a68fc0ce61e234257fa7024c59d331dc",
                    "callData": "",
                    "decodedMethod": null,
                    "errorInfo": "",
                    "fromAddress": "",
                    "gasUsed": 0,
                    "id": -1,
                    "methodDecoded": false,
                    "operation": "",
                    "output": "",
                    "revert": false,
                    "revertMessage": "",
                    "selector": "",
                    "status": false,
                    "value": ""
                },
                "nodeType": 0
            },
            "0": {
                "invocation": {
                    "address": "0x7208f615f0ad6ecfa2861c763ccd61bb8e13eab8",
                    "callData": "0x0000000000000000000000000000000000000000000000004563918244f40000000000000000000000000000000000000000000000001e2e0199947aa83e000000000000000000000000000000000000000000000000000000000000000000a0000000000000000000000000dd75cd55c1367b3d2d928c6181eea46999d24a72000000000000000000000000000000000000000000000000000000005ffd17240000000000000000000000000000000000000000000000000000000000000002000000000000000000000000c02aaa39b223fe8d0a0e5c4f27ead9083c756cc20000000000000000000000008762db106b2c2a0bccb3a80d1ed41273552616e8",
                    "decodedMethod": null,
                    "errorInfo": "execution reverted",
                    "fromAddress": "0x848d47d6a68fc0ce61e234257fa7024c59d331dc",
                    "gasUsed": 39961,
                    "id": 0,
                    "methodDecoded": false,
                    "operation": "CALL",
                    "output": "",
                    "revert": true,
                    "revertMessage": "",
                    "selector": "0x183d4e0b",
                    "status": false,
                    "value": "0"
                },
                "nodeType": 0
            },
            "1": {
                "invocation": {
                    "address": "0x7a250d5630b4cf539739df2c5dacb4c659f2488d",
                    "callData": "0x000000000000000000000000000000000000000000001e2e0199947aa83e00000000000000000000000000000000000000000000000000000000000000000080000000000000000000000000dd75cd55c1367b3d2d928c6181eea46999d24a72000000000000000000000000000000000000000000000000000000005ffd17240000000000000000000000000000000000000000000000000000000000000002000000000000000000000000c02aaa39b223fe8d0a0e5c4f27ead9083c756cc20000000000000000000000008762db106b2c2a0bccb3a80d1ed41273552616e8",
                    "decodedMethod": {
                        "callParams": [
                            {
                                "name": "amountOutMin",
                                "type": "uint256",
                                "value": "142,519,660,000,000,000,000,000"
                            },
                            {
                                "name": "path",
                                "type": "address[]",
                                "value": [
                                    "0xc02aaa39b223fe8d0a0e5c4f27ead9083c756cc2",
                                    "0x8762db106b2c2a0bccb3a80d1ed41273552616e8"
                                ]
                            },
                            {
                                "name": "to",
                                "type": "address",
                                "value": "0xdd75cd55c1367b3d2d928c6181eea46999d24a72"
                            },
                            {
                                "name": "deadline",
                                "type": "uint256",
                                "value": "1,610,422,052"
                            }
                        ],
                        "constructorArguments": "",
                        "name": "swapExactETHForTokens",
                        "returnParams": [],
                        "signature": "swapExactETHForTokens(uint256,address[],address,uint256)"
                    },
                    "errorInfo": "execution reverted",
                    "fromAddress": "0x7208f615f0ad6ecfa2861c763ccd61bb8e13eab8",
                    "gasUsed": 6005,
                    "id": 1,
                    "methodDecoded": true,
                    "operation": "CALL",
                    "output": "0x08c379a00000000000000000000000000000000000000000000000000000000000000020000000000000000000000000000000000000000000000000000000000000002b556e69737761705632526f757465723a20494e53554646494349454e545f4f55545055545f414d4f554e54000000000000000000000000000000000000000000",
                    "revert": true,
                    "revertMessage": "+UniswapV2Router: INSUFFICIENT_OUTPUT_AMOUNT",
                    "selector": "0x7ff36ab5",
                    "status": false,
                    "value": "5"
                },
                "nodeType": 0
            },
            "2": {
                "invocation": {
                    "address": "0xba65016890709dbc9491ca7bf5de395b8441dc8b",
                    "callData": "0x",
                    "decodedMethod": {
                        "callParams": [],
                        "constructorArguments": "",
                        "name": "getReserves",
                        "returnParams": [
                            {
                                "name": "_reserve0",
                                "type": "uint112",
                                "value": "61,666,898,287,411,197,166,940,301"
                            },
                            {
                                "name": "_reserve1",
                                "type": "uint112",
                                "value": "2,160,010,317,719,969,881,871"
                            },
                            {
                                "name": "_blockTimestampLast",
                                "type": "uint32",
                                "value": "1,610,421,871"
                            }
                        ],
                        "signature": "getReserves()"
                    },
                    "errorInfo": "",
                    "fromAddress": "0x7a250d5630b4cf539739df2c5dacb4c659f2488d",
                    "gasUsed": 1204,
                    "id": 2,
                    "methodDecoded": true,
                    "operation": "STATICCALL",
                    "output": "0x0000000000000000000000000000000000000000003302794132e28bbda2f08d000000000000000000000000000000000000000000000075182a33bdbd725f0f000000000000000000000000000000000000000000000000000000005ffd166f",
                    "revert": true,
                    "revertMessage": "",
                    "selector": "0x0902f1ac",
                    "status": true,
                    "value": "0"
                },
                "nodeType": 0
            }
        },
        "gasFlame": [
            {
                "children": [
                    {
                        "children": [
                            {
                                "children": [],
                                "depth": 0,
                                "name": "Initial Gas",
                                "value": 23048
                            },
                            {
                                "children": [
                                    {
                                        "children": [
                                            {
                                                "children": [],
                                                "depth": 2,
                                                "name": "getReserves",
                                                "value": 1204
                                            }
                                        ],
                                        "depth": 1,
                                        "name": "swapExactETHForTokens",
                                        "value": 6005
                                    }
                                ],
                                "depth": 0,
                                "name": "Executed Gas",
                                "value": 16913
                            }
                        ],
                        "depth": -1,
                        "name": "Actual Gas Used",
                        "value": 39961
                    },
                    {
                        "children": [],
                        "depth": -1,
                        "name": "Refunded Gas",
                        "value": 0
                    }
                ],
                "depth": -2,
                "name": "Total Gas",
                "value": 39961
            }
        ],
        "isConfirmed": true,
        "mainTrace": [
            {
                "children": [
                    {
                        "children": [
                            {
                                "children": [
                                    {
                                        "children": [],
                                        "depth": 2,
                                        "id": 2,
                                        "order": 2
                                    }
                                ],
                                "depth": 1,
                                "id": 1,
                                "order": 1
                            }
                        ],
                        "depth": 0,
                        "id": 0,
                        "order": 0
                    }
                ],
                "depth": -1,
                "id": -1,
                "order": -1
            }
        ],
        "mainTraceNodeCount": 3,
        "parentIdMap": {
            "0": -1,
            "1": 0,
            "2": 1
        },
        "tidyTrace": [
            {
                "children": [
                    {
                        "children": [
                            {
                                "children": [],
                                "depth": 1,
                                "id": 1,
                                "order": 1
                            }
                        ],
                        "depth": 0,
                        "id": 0,
                        "order": 0
                    }
                ],
                "depth": -1,
                "id": -1,
                "order": -1
            }
        ],
        "tidyTraceNodeCount": 2
    },
    "state_change": {
        "stateChanges": []
    }
}