{
    "balance_change": {
        "balanceChanges": []
    },
    "profile": {
        "basic_info": {
            "baseFee": "34.078706325",
            "blockNumber": 14508487,
            "callData": "0x38ed1739000000000000000000000000000000000000000000025a55a46e5da99fc17d000000000000000000000000000000000000000000000000003a09167c046bca1000000000000000000000000000000000000000000000000000000000000000a00000000000000000000000008817d887960737a604cf712d3e5da8673dddb7f0000000000000000000000000000000000000000000000000000000006248a0a30000000000000000000000000000000000000000000000000000000000000002000000000000000000000000090185f2135308bad17527004364ebcc2d37e5f6000000000000000000000000c02aaa39b223fe8d0a0e5c4f27ead9083c756cc2",
            "debugEnable": true,
            "errorInfo": "execution reverted",
            "eventCount": 0,
            "feeRecipient": "0x829bd824b016326a401d083b33d092293333a830",
            "formatValue": "0",
            "gasLimit": 350000,
            "gasPrice": "36.528559223",
            "gasUsed": 31867,
            "intTxnCount": 1,
            "internalRevert": true,
            "internalRevertMessage": "",
            "isContractCreation": false,
            "isFlashloan": false,
            "maxFee": "52.851797358",
            "nonce": 23799,
            "overwritedBlockNumber": -1,
            "priorityFee": "2.449852898",
            "receiver": "0xd9e1ce17f2641f24ae83637ab66a2cca9c378b9f",
            "revertMessage": "+UniswapV2Router: INSUFFICIENT_OUTPUT_AMOUNT",
            "sender": "0x8817d887960737a604cf712d3e5da8673dddb7f0",
            "simulationEnable": true,
            "sourceTxnHash": "0x5c428a8d6ed6460ff9054c387b6969f7ba6de704568eca5c4b4885069860e648",
            "status": false,
            "timestamp": "2022-04-02T19:04:43Z",
            "transactionFee": "0.001164055596759341",
            "txnHash": "0x5c428a8d6ed6460ff9054c387b6969f7ba6de704568eca5c4b4885069860e648",
            "txnIndex": 36,
            "type": 2,
            "value": "0"
        },
        "fund_flow": [],
        "token_infos": [
            {
                "address": "0xc02aaa39b223fe8d0a0e5c4f27ead9083c756cc2",
                "decimals": 18
            },
            {
                "address": "0xeeeeeeeeeeeeeeeeeeeeeeeeeeeeeeeeeeeeeeee",
                "decimals": 18
            }
        ]
    },
    "address_label": {
        "labels": [
            {
                "address": "0x0000000000000000000000000000000000000004",
                "label": "Precompiled"
            },
            {
                "address": "0xd9e1ce17f2641f24ae83637ab66a2cca9c378b9f",
                "label": "SushiSwap: Router"
            },
            {
                "address": "0xc02aaa39b223fe8d0a0e5c4f27ead9083c756cc2",
                "label": "Wrapped Ether (WETH)"
            },
            {
                "address": "0x090185f2135308bad17527004364ebcc2d37e5f6",
                "label": "Abracadabra.money: SPELL Token"
            },
            {
                "address": "0x0000000000000000000000000000000000000001",
                "label": "Precompiled"
            },
            {
                "address": "0x0000000000000000000000000000000000000002",
                "label": "Precompiled"
            },
            {
                "address": "0x0000000000000000000000000000000000000003",
                "label": "Precompiled"
            },
            {
                "address": "0xeeeeeeeeeeeeeeeeeeeeeeeeeeeeeeeeeeeeeeee",
                "label": "Ether"
            },
            {
                "address": "0xb5de0c3753b6e1b4dba616db82767f17513e6d4e",
                "label": "SushiSwap: SPELL"
            }
        ]
    },
    "trace": {
        "accountLabels": null,
        "dataMap": {
            "-1": {
                "invocation": {
                    "address": "0x8817d887960737a604cf712d3e5da8673dddb7f0",
                    "callData": "",
                    "decodedMethod": null,
                    "errorInfo": "",
                    "fromAddress": "",
                    "gasUsed": 0,
                    "id": -1,
                    "methodDecoded": false,
                    "operation": "",
                    "output": "",
                    "revert": false,
                    "revertMessage": "",
                    "selector": "",
                    "status": false,
                    "value": ""
                },
                "nodeType": 0
            },
            "0": {
                "invocation": {
                    "address": "0xd9e1ce17f2641f24ae83637ab66a2cca9c378b9f",
                    "callData": "0x000000000000000000000000000000000000000000025a55a46e5da99fc17d000000000000000000000000000000000000000000000000003a09167c046bca1000000000000000000000000000000000000000000000000000000000000000a00000000000000000000000008817d887960737a604cf712d3e5da8673dddb7f0000000000000000000000000000000000000000000000000000000006248a0a30000000000000000000000000000000000000000000000000000000000000002000000000000000000000000090185f2135308bad17527004364ebcc2d37e5f6000000000000000000000000c02aaa39b223fe8d0a0e5c4f27ead9083c756cc2",
                    "decodedMethod": {
                        "callParams": [
                            {
                                "name": "amountIn",
                                "type": "uint256",
                                "value": "2,844,444,444,444,444,500,000,000"
                            },
                            {
                                "name": "amountOutMin",
                                "type": "uint256",
                                "value": "4,181,898,450,896,144,912"
                            },
                            {
                                "name": "path",
                                "type": "address[]",
                                "value": [
                                    "0x090185f2135308bad17527004364ebcc2d37e5f6",
                                    "0xc02aaa39b223fe8d0a0e5c4f27ead9083c756cc2"
                                ]
                            },
                            {
                                "name": "to",
                                "type": "address",
                                "value": "0x8817d887960737a604cf712d3e5da8673dddb7f0"
                            },
                            {
                                "name": "deadline",
                                "type": "uint256",
                                "value": "1,648,926,883"
                            }
                        ],
                        "constructorArguments": "",
                        "name": "swapExactTokensForTokens",
                        "returnParams": [],
                        "signature": "swapExactTokensForTokens(uint256,uint256,address[],address,uint256)"
                    },
                    "errorInfo": "execution reverted",
                    "fromAddress": "0x8817d887960737a604cf712d3e5da8673dddb7f0",
                    "gasUsed": 31867,
                    "id": 0,
                    "methodDecoded": true,
                    "operation": "CALL",
                    "output": "0x08c379a00000000000000000000000000000000000000000000000000000000000000020000000000000000000000000000000000000000000000000000000000000002b556e69737761705632526f757465723a20494e53554646494349454e545f4f55545055545f414d4f554e54000000000000000000000000000000000000000000",
                    "revert": true,
                    "revertMessage": "+UniswapV2Router: INSUFFICIENT_OUTPUT_AMOUNT",
                    "selector": "0x38ed1739",
                    "status": false,
                    "value": "0"
                },
                "nodeType": 0
            },
            "1": {
                "invocation": {
                    "address": "0xb5de0c3753b6e1b4dba616db82767f17513e6d4e",
                    "callData": "0x",
                    "decodedMethod": {
                        "callParams": [],
                        "constructorArguments": "",
                        "name": "getReserves",
                        "returnParams": [
                            {
                                "name": "_reserve0",
                                "type": "uint112",
                                "value": "1,457,402,682,760,699,035,214,693,444"
                            },
                            {
                                "name": "_reserve1",
                                "type": "uint112",
                                "value": "2,144,180,982,282,649,401,844"
                            },
                            {
                                "name": "_blockTimestampLast",
                                "type": "uint32",
                                "value": "1,648,926,283"
                            }
                        ],
                        "signature": "getReserves()"
                    },
                    "errorInfo": "",
                    "fromAddress": "0xd9e1ce17f2641f24ae83637ab66a2cca9c378b9f",
                    "gasUsed": 2517,
                    "id": 1,
                    "methodDecoded": true,
                    "operation": "STATICCALL",
                    "output": "0x000000000000000000000000000000000000000004b58905bde47b82d79c44440000000000000000000000000000000000000000000000743c7d1b074174f9f40000000000000000000000000000000000000000000000000000000062489e4b",
                    "revert": true,
                    "revertMessage": "",
                    "selector": "0x0902f1ac",
                    "status": true,
                    "value": "0"
                },
                "nodeType": 0
            }
        },
        "gasFlame": [
            {
                "children": [
                    {
                        "children": [
                            {
                                "children": [],
                                "depth": 0,
                                "name": "Initial Gas",
                                "value": 23084
                            },
                            {
                                "children": [
                                    {
                                        "children": [],
                                        "depth": 1,
                                        "name": "getReserves",
                                        "value": 2517
                                    }
                                ],
                                "depth": 0,
                                "name": "Executed Gas",
                                "value": 8783
                            }
                        ],
                        "depth": -1,
                        "name": "Actual Gas Used",
                        "value": 31867
                    },
                    {
                        "children": [],
                        "depth": -1,
                        "name": "Refunded Gas",
                        "value": 0
                    }
                ],
                "depth": -2,
                "name": "Total Gas",
                "value": 31867
            }
        ],
        "isConfirmed": true,
        "mainTrace": [
            {
                "children": [
                    {
                        "children": [
                            {
                                "children": [],
                                "depth": 1,
                                "id": 1,
                                "order": 1
                            }
                        ],
                        "depth": 0,
                        "id": 0,
                        "order": 0
                    }
                ],
                "depth": -1,
                "id": -1,
                "order": -1
            }
        ],
        "mainTraceNodeCount": 2,
        "parentIdMap": {
            "0": -1,
            "1": 0
        },
        "tidyTrace": [
            {
                "children": [
                    {
                        "children": [],
                        "depth": 0,
                        "id": 0,
                        "order": 0
                    }
                ],
                "depth": -1,
                "id": -1,
                "order": -1
            }
        ],
        "tidyTraceNodeCount": 1
    },
    "state_change": {
        "stateChanges": []
    }
}