{
    "balance_change": {
        "balanceChanges": [
            {
                "account": "0xa45d00df5e59368949e071dfd35a0287784dfd35",
                "assets": [
                    {
                        "address": "0x2e954cfc5cb4f089f5f3d7331449861249106d85",
                        "amount": "10",
                        "iconUrl": "",
                        "isERC1155": false,
                        "isERC721": false,
                        "sign": false,
                        "value": ""
                    }
                ]
            },
            {
                "account": "0x5467a8dbe3f90153785b0b75dc3c512da3e65988",
                "assets": [
                    {
                        "address": "0x2e954cfc5cb4f089f5f3d7331449861249106d85",
                        "amount": "10",
                        "iconUrl": "",
                        "isERC1155": false,
                        "isERC721": false,
                        "sign": true,
                        "value": ""
                    }
                ]
            }
        ]
    },
    "profile": {
        "basic_info": {
            "baseFee": "",
            "blockNumber": 5700061,
            "callData": "0xa9059cbb0000000000000000000000005467a8dbe3f90153785b0b75dc3c512da3e659880000000000000000000000000000000000000000000000000000000000989680",
            "debugEnable": true,
            "errorInfo": "",
            "eventCount": 1,
            "feeRecipient": "0xea674fdde714fd979de3edf0f56aa9716b898ec8",
            "formatValue": "0",
            "gasLimit": 300000,
            "gasPrice": "11",
            "gasUsed": 51368,
            "intTxnCount": 0,
            "internalRevert": false,
            "internalRevertMessage": "",
            "isContractCreation": false,
            "isFlashloan": false,
            "maxFee": "",
            "nonce": 2,
            "overwritedBlockNumber": -1,
            "priorityFee": "",
            "receiver": "0x2e954cfc5cb4f089f5f3d7331449861249106d85",
            "revertMessage": "",
            "sender": "0xa45d00df5e59368949e071dfd35a0287784dfd35",
            "simulationEnable": true,
            "sourceTxnHash": "0x5c42cc4aab8427fb560363d7a9ff75f8c3a956dc992181c2f3e49605204ad746",
            "status": true,
            "timestamp": "2018-05-30T01:32:51Z",
            "transactionFee": "0.000565048",
            "txnHash": "0x5c42cc4aab8427fb560363d7a9ff75f8c3a956dc992181c2f3e49605204ad746",
            "txnIndex": 55,
            "type": 0,
            "value": "0"
        },
        "fund_flow": [
            {
                "amount": "10",
                "from": "0xa45d00df5e59368949e071dfd35a0287784dfd35",
                "id": 1,
                "isERC1155": false,
                "isERC721": false,
                "isReverted": false,
                "order": 1,
                "to": "0x5467a8dbe3f90153785b0b75dc3c512da3e65988",
                "token": "0x2e954cfc5cb4f089f5f3d7331449861249106d85"
            }
        ],
        "token_infos": [
            {
                "address": "0x2e954cfc5cb4f089f5f3d7331449861249106d85",
                "decimals": 6
            },
            {
                "address": "0xc02aaa39b223fe8d0a0e5c4f27ead9083c756cc2",
                "decimals": 18
            },
            {
                "address": "0xeeeeeeeeeeeeeeeeeeeeeeeeeeeeeeeeeeeeeeee",
                "decimals": 18
            }
        ]
    },
    "address_label": {
        "labels": [
            {
                "address": "0x0000000000000000000000000000000000000001",
                "label": "Precompiled"
            },
            {
                "address": "0x0000000000000000000000000000000000000002",
                "label": "Precompiled"
            },
            {
                "address": "0x0000000000000000000000000000000000000003",
                "label": "Precompiled"
            },
            {
                "address": "0x0000000000000000000000000000000000000004",
                "label": "Precompiled"
            },
            {
                "address": "0xeeeeeeeeeeeeeeeeeeeeeeeeeeeeeeeeeeeeeeee",
                "label": "Ether"
            },
            {
                "address": "0x2e954cfc5cb4f089f5f3d7331449861249106d85",
                "label": "WITH coin (WITH)"
            }
        ]
    },
    "trace": {
        "accountLabels": null,
        "dataMap": {
            "-1": {
                "invocation": {
                    "address": "0xa45d00df5e59368949e071dfd35a0287784dfd35",
                    "callData": "",
                    "decodedMethod": null,
                    "errorInfo": "",
                    "fromAddress": "",
                    "gasUsed": 0,
                    "id": -1,
                    "methodDecoded": false,
                    "operation": "",
                    "output": "",
                    "revert": false,
                    "revertMessage": "",
                    "selector": "",
                    "status": false,
                    "value": ""
                },
                "nodeType": 0
            },
            "0": {
                "invocation": {
                    "address": "0x2e954cfc5cb4f089f5f3d7331449861249106d85",
                    "callData": "0x0000000000000000000000005467a8dbe3f90153785b0b75dc3c512da3e659880000000000000000000000000000000000000000000000000000000000989680",
                    "decodedMethod": {
                        "callParams": [
                            {
                                "name": "to",
                                "type": "address",
                                "value": "0x5467a8dbe3f90153785b0b75dc3c512da3e65988"
                            },
                            {
                                "decimalAvailable": true,
                                "name": "tokens",
                                "type": "uint256",
                                "value": "10,000,000"
                            }
                        ],
                        "constructorArguments": "",
                        "name": "transfer",
                        "returnParams": [
                            {
                                "name": "success",
                                "type": "bool",
                                "value": true
                            }
                        ],
                        "signature": "transfer(address,uint256)"
                    },
                    "errorInfo": "",
                    "fromAddress": "0xa45d00df5e59368949e071dfd35a0287784dfd35",
                    "gasUsed": 51368,
                    "id": 0,
                    "methodDecoded": true,
                    "operation": "CALL",
                    "output": "0x0000000000000000000000000000000000000000000000000000000000000001",
                    "revert": false,
                    "revertMessage": "",
                    "selector": "0xa9059cbb",
                    "status": true,
                    "value": "0"
                },
                "nodeType": 0
            },
            "1": {
                "event": {
                    "contract": "0x2e954cfc5cb4f089f5f3d7331449861249106d85",
                    "decodedLog": {
                        "name": "Transfer",
                        "params": [
                            {
                                "name": "from",
                                "type": "address",
                                "value": "0xa45d00df5e59368949e071dfd35a0287784dfd35"
                            },
                            {
                                "name": "to",
                                "type": "address",
                                "value": "0x5467a8dbe3f90153785b0b75dc3c512da3e65988"
                            },
                            {
                                "decimalAvailable": true,
                                "name": "tokens",
                                "type": "uint256",
                                "value": "10,000,000"
                            }
                        ],
                        "signature": "Transfer(address,address,uint256)"
                    },
                    "id": 1,
                    "logData": "0x0000000000000000000000000000000000000000000000000000000000989680",
                    "logDecoded": true,
                    "operation": "EVENT",
                    "revert": false,
                    "status": true,
                    "topics": [
                        "0xddf252ad1be2c89b69c2b068fc378daa952ba7f163c4a11628f55a4df523b3ef",
                        "0x000000000000000000000000a45d00df5e59368949e071dfd35a0287784dfd35",
                        "0x0000000000000000000000005467a8dbe3f90153785b0b75dc3c512da3e65988"
                    ]
                },
                "nodeType": 1
            }
        },
        "gasFlame": [
            {
                "children": [
                    {
                        "children": [
                            {
                                "children": [],
                                "depth": 0,
                                "name": "Initial Gas",
                                "value": 23000
                            },
                            {
                                "children": [],
                                "depth": 0,
                                "name": "Executed Gas",
                                "value": 28368
                            }
                        ],
                        "depth": -1,
                        "name": "Actual Gas Used",
                        "value": 51368
                    },
                    {
                        "children": [],
                        "depth": -1,
                        "name": "Refunded Gas",
                        "value": 0
                    }
                ],
                "depth": -2,
                "name": "Total Gas",
                "value": 51368
            }
        ],
        "isConfirmed": true,
        "mainTrace": [
            {
                "children": [
                    {
                        "children": [
                            {
                                "children": [],
                                "depth": 1,
                                "id": 1,
                                "order": 1
                            }
                        ],
                        "depth": 0,
                        "id": 0,
                        "order": 0
                    }
                ],
                "depth": -1,
                "id": -1,
                "order": -1
            }
        ],
        "mainTraceNodeCount": 2,
        "parentIdMap": {
            "0": -1,
            "1": 0
        },
        "tidyTrace": [
            {
                "children": [
                    {
                        "children": [
                            {
                                "children": [],
                                "depth": 1,
                                "id": 1,
                                "order": 1
                            }
                        ],
                        "depth": 0,
                        "id": 0,
                        "order": 0
                    }
                ],
                "depth": -1,
                "id": -1,
                "order": -1
            }
        ],
        "tidyTraceNodeCount": 2
    },
    "state_change": {
        "stateChanges": [
            {
                "address": "0x2e954cfc5cb4f089f5f3d7331449861249106d85",
                "erc": "ERC-20",
                "slots": [
                    {
                        "current": "0x00000000000000000000000000000000000000000000000000000033d998c580",
                        "key": "0xe7664856ab655bedd7548a60e9aef1aa50b67bf9ae5677c760a64f90ce1db14f",
                        "prev": "0x00000000000000000000000000000000000000000000000000000033da315c00"
                    },
                    {
                        "current": "0x0000000000000000000000000000000000000000000000000000000000989680",
                        "key": "0x19f85190beb3efc5d5d22f370744739ed4312e5bf0f50a5945552431dbe6f285",
                        "prev": "0x0000000000000000000000000000000000000000000000000000000000000000"
                    }
                ],
                "storageVariables": [
                    {
                        "name": "balances",
                        "type": "mapping(address => uint256)",
                        "value": {
                            "pairs": [
                                {
                                    "key": "0x5467a8dbe3f90153785b0b75dc3c512da3e65988",
                                    "value": {
                                        "current": "10000000",
                                        "prev": "0",
                                        "typeTag": 1
                                    }
                                },
                                {
                                    "key": "0xa45d00df5e59368949e071dfd35a0287784dfd35",
                                    "value": {
                                        "current": "222694000000",
                                        "prev": "222704000000",
                                        "typeTag": 1
                                    }
                                }
                            ],
                            "typeTag": 4
                        }
                    }
                ]
            }
        ]
    }
}