{
    "balance_change": {
        "balanceChanges": []
    },
    "profile": {
        "basic_info": {
            "baseFee": "",
            "blockNumber": 2496243,
            "callData": "0xa9059cbb00000000000000000000000006a2cf3f024d8871baedd0f7bd9340001aada57400000000000000000000000000000000000000000000000000000000000032c3",
            "debugEnable": true,
            "errorInfo": "",
            "eventCount": 1,
            "feeRecipient": "0xa42af2c70d316684e57aefcc6e393fecb1c7e84e",
            "formatValue": "0",
            "gasLimit": 80000,
            "gasPrice": "60",
            "gasUsed": 68173,
            "intTxnCount": 7,
            "internalRevert": false,
            "internalRevertMessage": "",
            "isContractCreation": false,
            "isFlashloan": false,
            "maxFee": "",
            "nonce": 1129,
            "overwritedBlockNumber": -1,
            "priorityFee": "",
            "receiver": "0xaec2e87e0a235266d9c5adc9deb4b2e29b54d009",
            "revertMessage": "",
            "sender": "0x06a2cf3f024d8871baedd0f7bd9340001aada574",
            "simulationEnable": true,
            "sourceTxnHash": "0x5c1599ae21714197cebd1450d8e727d5734cd9762e88d22df78254e1aa6b296d",
            "status": true,
            "timestamp": "2016-10-24T01:07:34Z",
            "transactionFee": "0.00409038",
            "txnHash": "0x5c1599ae21714197cebd1450d8e727d5734cd9762e88d22df78254e1aa6b296d",
            "txnIndex": 2,
            "type": 0,
            "value": "0"
        },
        "fund_flow": [
            {
                "amount": "12,995",
                "from": "0x06a2cf3f024d8871baedd0f7bd9340001aada574",
                "id": 1,
                "isERC1155": false,
                "isERC721": false,
                "isReverted": false,
                "order": 1,
                "to": "0x06a2cf3f024d8871baedd0f7bd9340001aada574",
                "token": "0xaec2e87e0a235266d9c5adc9deb4b2e29b54d009"
            }
        ],
        "token_infos": [
            {
                "address": "0xc02aaa39b223fe8d0a0e5c4f27ead9083c756cc2",
                "decimals": 18
            },
            {
                "address": "0xeeeeeeeeeeeeeeeeeeeeeeeeeeeeeeeeeeeeeeee",
                "decimals": 18
            },
            {
                "address": "0xaec2e87e0a235266d9c5adc9deb4b2e29b54d009",
                "decimals": 0
            }
        ]
    },
    "address_label": {
        "labels": [
            {
                "address": "0xaec2e87e0a235266d9c5adc9deb4b2e29b54d009",
                "label": "SingularDTV Token"
            },
            {
                "address": "0xc78310231aa53bd3d0fea2f8c705c67730929d8f",
                "label": "SingularDTV: Wallet"
            },
            {
                "address": "0x0000000000000000000000000000000000000001",
                "label": "Precompiled"
            },
            {
                "address": "0x0000000000000000000000000000000000000002",
                "label": "Precompiled"
            },
            {
                "address": "0x0000000000000000000000000000000000000003",
                "label": "Precompiled"
            },
            {
                "address": "0x0000000000000000000000000000000000000004",
                "label": "Precompiled"
            },
            {
                "address": "0xeeeeeeeeeeeeeeeeeeeeeeeeeeeeeeeeeeeeeeee",
                "label": "Ether"
            },
            {
                "address": "0xe736091fc36f1ad476f5e4e03e4425940822d3ba",
                "label": "SingularDTV: Fund"
            }
        ]
    },
    "trace": {
        "accountLabels": null,
        "dataMap": {
            "-1": {
                "invocation": {
                    "address": "0x06a2cf3f024d8871baedd0f7bd9340001aada574",
                    "callData": "",
                    "decodedMethod": null,
                    "errorInfo": "",
                    "fromAddress": "",
                    "gasUsed": 0,
                    "id": -1,
                    "methodDecoded": false,
                    "operation": "",
                    "output": "",
                    "revert": false,
                    "revertMessage": "",
                    "selector": "",
                    "status": false,
                    "value": ""
                },
                "nodeType": 0
            },
            "0": {
                "invocation": {
                    "address": "0xaec2e87e0a235266d9c5adc9deb4b2e29b54d009",
                    "callData": "0x00000000000000000000000006a2cf3f024d8871baedd0f7bd9340001aada57400000000000000000000000000000000000000000000000000000000000032c3",
                    "decodedMethod": {
                        "callParams": [
                            {
                                "name": "to",
                                "type": "address",
                                "value": "0x06a2cf3f024d8871baedd0f7bd9340001aada574"
                            },
                            {
                                "decimalAvailable": true,
                                "name": "value",
                                "type": "uint256",
                                "value": "12,995"
                            }
                        ],
                        "constructorArguments": "",
                        "name": "transfer",
                        "returnParams": [
                            {
                                "name": "",
                                "type": "bool",
                                "value": true
                            }
                        ],
                        "signature": "transfer(address,uint256)"
                    },
                    "errorInfo": "",
                    "fromAddress": "0x06a2cf3f024d8871baedd0f7bd9340001aada574",
                    "gasUsed": 68173,
                    "id": 0,
                    "methodDecoded": true,
                    "operation": "CALL",
                    "output": "0x0000000000000000000000000000000000000000000000000000000000000001",
                    "revert": false,
                    "revertMessage": "",
                    "selector": "0xa9059cbb",
                    "status": true,
                    "value": "0"
                },
                "nodeType": 0
            },
            "1": {
                "invocation": {
                    "address": "0xe736091fc36f1ad476f5e4e03e4425940822d3ba",
                    "callData": "0x",
                    "decodedMethod": {
                        "callParams": [],
                        "constructorArguments": "",
                        "name": "workshop",
                        "returnParams": [
                            {
                                "name": "",
                                "type": "address",
                                "value": "0xc78310231aa53bd3d0fea2f8c705c67730929d8f"
                            }
                        ],
                        "signature": "workshop()"
                    },
                    "errorInfo": "",
                    "fromAddress": "0xaec2e87e0a235266d9c5adc9deb4b2e29b54d009",
                    "gasUsed": 258,
                    "id": 1,
                    "methodDecoded": true,
                    "operation": "CALL",
                    "output": "0x000000000000000000000000c78310231aa53bd3d0fea2f8c705c67730929d8f",
                    "revert": false,
                    "revertMessage": "",
                    "selector": "0x720c4798",
                    "status": true,
                    "value": "0"
                },
                "nodeType": 0
            },
            "2": {
                "invocation": {
                    "address": "0xe736091fc36f1ad476f5e4e03e4425940822d3ba",
                    "callData": "0x00000000000000000000000006a2cf3f024d8871baedd0f7bd9340001aada574",
                    "decodedMethod": {
                        "callParams": [
                            {
                                "name": "forAddress",
                                "type": "address",
                                "value": "0x06a2cf3f024d8871baedd0f7bd9340001aada574"
                            }
                        ],
                        "constructorArguments": "",
                        "name": "softWithdrawRevenueFor",
                        "returnParams": [
                            {
                                "name": "",
                                "type": "uint256",
                                "value": "0"
                            }
                        ],
                        "signature": "softWithdrawRevenueFor(address)"
                    },
                    "errorInfo": "",
                    "fromAddress": "0xaec2e87e0a235266d9c5adc9deb4b2e29b54d009",
                    "gasUsed": 14521,
                    "id": 2,
                    "methodDecoded": true,
                    "operation": "CALL",
                    "output": "0x0000000000000000000000000000000000000000000000000000000000000000",
                    "revert": false,
                    "revertMessage": "",
                    "selector": "0x5d0be9de",
                    "status": true,
                    "value": "0"
                },
                "nodeType": 0
            },
            "3": {
                "invocation": {
                    "address": "0xaec2e87e0a235266d9c5adc9deb4b2e29b54d009",
                    "callData": "0x",
                    "decodedMethod": {
                        "callParams": [],
                        "constructorArguments": "",
                        "name": "totalSupply",
                        "returnParams": [
                            {
                                "name": "",
                                "type": "uint256",
                                "value": "1,000,000,000"
                            }
                        ],
                        "signature": "totalSupply()"
                    },
                    "errorInfo": "",
                    "fromAddress": "0xe736091fc36f1ad476f5e4e03e4425940822d3ba",
                    "gasUsed": 403,
                    "id": 3,
                    "methodDecoded": true,
                    "operation": "CALL",
                    "output": "0x000000000000000000000000000000000000000000000000000000003b9aca00",
                    "revert": false,
                    "revertMessage": "",
                    "selector": "0x18160ddd",
                    "status": true,
                    "value": "0"
                },
                "nodeType": 0
            },
            "4": {
                "invocation": {
                    "address": "0xaec2e87e0a235266d9c5adc9deb4b2e29b54d009",
                    "callData": "0x00000000000000000000000006a2cf3f024d8871baedd0f7bd9340001aada574",
                    "decodedMethod": {
                        "callParams": [
                            {
                                "name": "_owner",
                                "type": "address",
                                "value": "0x06a2cf3f024d8871baedd0f7bd9340001aada574"
                            }
                        ],
                        "constructorArguments": "",
                        "name": "balanceOf",
                        "returnParams": [
                            {
                                "decimalAvailable": true,
                                "name": "balance",
                                "type": "uint256",
                                "value": "121,659"
                            }
                        ],
                        "signature": "balanceOf(address)"
                    },
                    "errorInfo": "",
                    "fromAddress": "0xe736091fc36f1ad476f5e4e03e4425940822d3ba",
                    "gasUsed": 587,
                    "id": 4,
                    "methodDecoded": true,
                    "operation": "CALL",
                    "output": "0x000000000000000000000000000000000000000000000000000000000001db3b",
                    "revert": false,
                    "revertMessage": "",
                    "selector": "0x70a08231",
                    "status": true,
                    "value": "0"
                },
                "nodeType": 0
            },
            "5": {
                "invocation": {
                    "address": "0xe736091fc36f1ad476f5e4e03e4425940822d3ba",
                    "callData": "0x00000000000000000000000006a2cf3f024d8871baedd0f7bd9340001aada574",
                    "decodedMethod": {
                        "callParams": [
                            {
                                "name": "forAddress",
                                "type": "address",
                                "value": "0x06a2cf3f024d8871baedd0f7bd9340001aada574"
                            }
                        ],
                        "constructorArguments": "",
                        "name": "softWithdrawRevenueFor",
                        "returnParams": [
                            {
                                "name": "",
                                "type": "uint256",
                                "value": "0"
                            }
                        ],
                        "signature": "softWithdrawRevenueFor(address)"
                    },
                    "errorInfo": "",
                    "fromAddress": "0xaec2e87e0a235266d9c5adc9deb4b2e29b54d009",
                    "gasUsed": 14521,
                    "id": 5,
                    "methodDecoded": true,
                    "operation": "CALL",
                    "output": "0x0000000000000000000000000000000000000000000000000000000000000000",
                    "revert": false,
                    "revertMessage": "",
                    "selector": "0x5d0be9de",
                    "status": true,
                    "value": "0"
                },
                "nodeType": 0
            },
            "6": {
                "invocation": {
                    "address": "0xaec2e87e0a235266d9c5adc9deb4b2e29b54d009",
                    "callData": "0x",
                    "decodedMethod": {
                        "callParams": [],
                        "constructorArguments": "",
                        "name": "totalSupply",
                        "returnParams": [
                            {
                                "name": "",
                                "type": "uint256",
                                "value": "1,000,000,000"
                            }
                        ],
                        "signature": "totalSupply()"
                    },
                    "errorInfo": "",
                    "fromAddress": "0xe736091fc36f1ad476f5e4e03e4425940822d3ba",
                    "gasUsed": 403,
                    "id": 6,
                    "methodDecoded": true,
                    "operation": "CALL",
                    "output": "0x000000000000000000000000000000000000000000000000000000003b9aca00",
                    "revert": false,
                    "revertMessage": "",
                    "selector": "0x18160ddd",
                    "status": true,
                    "value": "0"
                },
                "nodeType": 0
            },
            "7": {
                "invocation": {
                    "address": "0xaec2e87e0a235266d9c5adc9deb4b2e29b54d009",
                    "callData": "0x00000000000000000000000006a2cf3f024d8871baedd0f7bd9340001aada574",
                    "decodedMethod": {
                        "callParams": [
                            {
                                "name": "_owner",
                                "type": "address",
                                "value": "0x06a2cf3f024d8871baedd0f7bd9340001aada574"
                            }
                        ],
                        "constructorArguments": "",
                        "name": "balanceOf",
                        "returnParams": [
                            {
                                "decimalAvailable": true,
                                "name": "balance",
                                "type": "uint256",
                                "value": "121,659"
                            }
                        ],
                        "signature": "balanceOf(address)"
                    },
                    "errorInfo": "",
                    "fromAddress": "0xe736091fc36f1ad476f5e4e03e4425940822d3ba",
                    "gasUsed": 587,
                    "id": 7,
                    "methodDecoded": true,
                    "operation": "CALL",
                    "output": "0x000000000000000000000000000000000000000000000000000000000001db3b",
                    "revert": false,
                    "revertMessage": "",
                    "selector": "0x70a08231",
                    "status": true,
                    "value": "0"
                },
                "nodeType": 0
            },
            "8": {
                "event": {
                    "contract": "0xaec2e87e0a235266d9c5adc9deb4b2e29b54d009",
                    "decodedLog": {
                        "name": "Transfer",
                        "params": [
                            {
                                "name": "from",
                                "type": "address",
                                "value": "0x06a2cf3f024d8871baedd0f7bd9340001aada574"
                            },
                            {
                                "name": "to",
                                "type": "address",
                                "value": "0x06a2cf3f024d8871baedd0f7bd9340001aada574"
                            },
                            {
                                "decimalAvailable": true,
                                "name": "value",
                                "type": "uint256",
                                "value": "12,995"
                            }
                        ],
                        "signature": "Transfer(address,address,uint256)"
                    },
                    "id": 8,
                    "logData": "0x00000000000000000000000000000000000000000000000000000000000032c3",
                    "logDecoded": true,
                    "operation": "EVENT",
                    "revert": false,
                    "status": true,
                    "topics": [
                        "0xddf252ad1be2c89b69c2b068fc378daa952ba7f163c4a11628f55a4df523b3ef",
                        "0x00000000000000000000000006a2cf3f024d8871baedd0f7bd9340001aada574",
                        "0x00000000000000000000000006a2cf3f024d8871baedd0f7bd9340001aada574"
                    ]
                },
                "nodeType": 1
            }
        },
        "gasFlame": [
            {
                "children": [
                    {
                        "children": [
                            {
                                "children": [],
                                "depth": 0,
                                "name": "Initial Gas",
                                "value": 22872
                            },
                            {
                                "children": [
                                    {
                                        "children": [],
                                        "depth": 1,
                                        "name": "workshop",
                                        "value": 258
                                    },
                                    {
                                        "children": [
                                            {
                                                "children": [],
                                                "depth": 2,
                                                "name": "totalSupply",
                                                "value": 403
                                            },
                                            {
                                                "children": [],
                                                "depth": 2,
                                                "name": "balanceOf",
                                                "value": 587
                                            }
                                        ],
                                        "depth": 1,
                                        "name": "softWithdrawRevenueFor",
                                        "value": 14521
                                    },
                                    {
                                        "children": [
                                            {
                                                "children": [],
                                                "depth": 2,
                                                "name": "totalSupply",
                                                "value": 403
                                            },
                                            {
                                                "children": [],
                                                "depth": 2,
                                                "name": "balanceOf",
                                                "value": 587
                                            }
                                        ],
                                        "depth": 1,
                                        "name": "softWithdrawRevenueFor",
                                        "value": 14521
                                    }
                                ],
                                "depth": 0,
                                "name": "Executed Gas",
                                "value": 45301
                            }
                        ],
                        "depth": -1,
                        "name": "Actual Gas Used",
                        "value": 68173
                    },
                    {
                        "children": [],
                        "depth": -1,
                        "name": "Refunded Gas",
                        "value": 0
                    }
                ],
                "depth": -2,
                "name": "Total Gas",
                "value": 68173
            }
        ],
        "isConfirmed": true,
        "mainTrace": [
            {
                "children": [
                    {
                        "children": [
                            {
                                "children": [],
                                "depth": 1,
                                "id": 1,
                                "order": 1
                            },
                            {
                                "children": [
                                    {
                                        "children": [],
                                        "depth": 2,
                                        "id": 3,
                                        "order": 3
                                    },
                                    {
                                        "children": [],
                                        "depth": 2,
                                        "id": 4,
                                        "order": 4
                                    }
                                ],
                                "depth": 1,
                                "id": 2,
                                "order": 2
                            },
                            {
                                "children": [
                                    {
                                        "children": [],
                                        "depth": 2,
                                        "id": 6,
                                        "order": 6
                                    },
                                    {
                                        "children": [],
                                        "depth": 2,
                                        "id": 7,
                                        "order": 7
                                    }
                                ],
                                "depth": 1,
                                "id": 5,
                                "order": 5
                            },
                            {
                                "children": [],
                                "depth": 1,
                                "id": 8,
                                "order": 8
                            }
                        ],
                        "depth": 0,
                        "id": 0,
                        "order": 0
                    }
                ],
                "depth": -1,
                "id": -1,
                "order": -1
            }
        ],
        "mainTraceNodeCount": 9,
        "parentIdMap": {
            "0": -1,
            "1": 0,
            "2": 0,
            "3": 2,
            "4": 2,
            "5": 0,
            "6": 5,
            "7": 5,
            "8": 0
        },
        "tidyTrace": [
            {
                "children": [
                    {
                        "children": [
                            {
                                "children": [],
                                "depth": 1,
                                "id": 1,
                                "order": 1
                            },
                            {
                                "children": [
                                    {
                                        "children": [],
                                        "depth": 2,
                                        "id": 3,
                                        "order": 3
                                    },
                                    {
                                        "children": [],
                                        "depth": 2,
                                        "id": 4,
                                        "order": 4
                                    }
                                ],
                                "depth": 1,
                                "id": 2,
                                "order": 2
                            },
                            {
                                "children": [
                                    {
                                        "children": [],
                                        "depth": 2,
                                        "id": 6,
                                        "order": 6
                                    },
                                    {
                                        "children": [],
                                        "depth": 2,
                                        "id": 7,
                                        "order": 7
                                    }
                                ],
                                "depth": 1,
                                "id": 5,
                                "order": 5
                            },
                            {
                                "children": [],
                                "depth": 1,
                                "id": 8,
                                "order": 8
                            }
                        ],
                        "depth": 0,
                        "id": 0,
                        "order": 0
                    }
                ],
                "depth": -1,
                "id": -1,
                "order": -1
            }
        ],
        "tidyTraceNodeCount": 9
    },
    "state_change": {
        "stateChanges": []
    }
}