{
    "balance_change": {
        "balanceChanges": [
            {
                "account": "0xc05c8523a8a743dec7a0bfe3742a1a991e3f3a96",
                "assets": [
                    {
                        "address": "0x8f3470a7388c05ee4e7af3d01d8c722b0ff52374",
                        "amount": "359.91",
                        "iconUrl": "https://assets.blocksec.com/icon/9da4573ec41757aabd0185dbac89349e1de8d3dbfa0b17ed29890296bc34e753.png",
                        "isERC1155": false,
                        "isERC721": false,
                        "sign": false,
                        "value": ""
                    }
                ]
            },
            {
                "account": "0xa1ddd2516a9308b424844cc1a7491d22fc707156",
                "assets": [
                    {
                        "address": "0x8f3470a7388c05ee4e7af3d01d8c722b0ff52374",
                        "amount": "359.91",
                        "iconUrl": "https://assets.blocksec.com/icon/9da4573ec41757aabd0185dbac89349e1de8d3dbfa0b17ed29890296bc34e753.png",
                        "isERC1155": false,
                        "isERC721": false,
                        "sign": true,
                        "value": ""
                    }
                ]
            }
        ]
    },
    "profile": {
        "basic_info": {
            "baseFee": "",
            "blockNumber": 3963038,
            "callData": "0xa9059cbb000000000000000000000000a1ddd2516a9308b424844cc1a7491d22fc70715600000000000000000000000000000000000000000000001382c12e1d76d70000",
            "debugEnable": true,
            "errorInfo": "",
            "eventCount": 1,
            "feeRecipient": "0xc0ea08a2d404d3172d2add29a45be56da40e2949",
            "formatValue": "0",
            "gasLimit": 51802,
            "gasPrice": "60",
            "gasUsed": 51801,
            "intTxnCount": 0,
            "internalRevert": false,
            "internalRevertMessage": "",
            "isContractCreation": false,
            "isFlashloan": false,
            "maxFee": "",
            "nonce": 26,
            "overwritedBlockNumber": -1,
            "priorityFee": "",
            "receiver": "0x8f3470a7388c05ee4e7af3d01d8c722b0ff52374",
            "revertMessage": "",
            "sender": "0xc05c8523a8a743dec7a0bfe3742a1a991e3f3a96",
            "simulationEnable": true,
            "sourceTxnHash": "0x5c1cf85fc329091f6c10c2c0973f137a3989bdbdb51ad880d6ea8ec800aae206",
            "status": true,
            "timestamp": "2017-07-02T13:33:59Z",
            "transactionFee": "0.00310806",
            "txnHash": "0x5c1cf85fc329091f6c10c2c0973f137a3989bdbdb51ad880d6ea8ec800aae206",
            "txnIndex": 0,
            "type": 0,
            "value": "0"
        },
        "fund_flow": [
            {
                "amount": "359.91",
                "from": "0xc05c8523a8a743dec7a0bfe3742a1a991e3f3a96",
                "id": 1,
                "isERC1155": false,
                "isERC721": false,
                "isReverted": false,
                "order": 1,
                "to": "0xa1ddd2516a9308b424844cc1a7491d22fc707156",
                "token": "0x8f3470a7388c05ee4e7af3d01d8c722b0ff52374"
            }
        ],
        "token_infos": [
            {
                "address": "0x8f3470a7388c05ee4e7af3d01d8c722b0ff52374",
                "decimals": 18
            },
            {
                "address": "0xc02aaa39b223fe8d0a0e5c4f27ead9083c756cc2",
                "decimals": 18
            },
            {
                "address": "0xeeeeeeeeeeeeeeeeeeeeeeeeeeeeeeeeeeeeeeee",
                "decimals": 18
            }
        ]
    },
    "address_label": {
        "labels": [
            {
                "address": "0x0000000000000000000000000000000000000004",
                "label": "Precompiled"
            },
            {
                "address": "0xeeeeeeeeeeeeeeeeeeeeeeeeeeeeeeeeeeeeeeee",
                "label": "Ether"
            },
            {
                "address": "0x8f3470a7388c05ee4e7af3d01d8c722b0ff52374",
                "label": "Veritaseum Token"
            },
            {
                "address": "0x0000000000000000000000000000000000000001",
                "label": "Precompiled"
            },
            {
                "address": "0x0000000000000000000000000000000000000002",
                "label": "Precompiled"
            },
            {
                "address": "0x0000000000000000000000000000000000000003",
                "label": "Precompiled"
            }
        ]
    },
    "trace": {
        "accountLabels": null,
        "dataMap": {
            "-1": {
                "invocation": {
                    "address": "0xc05c8523a8a743dec7a0bfe3742a1a991e3f3a96",
                    "callData": "",
                    "decodedMethod": null,
                    "errorInfo": "",
                    "fromAddress": "",
                    "gasUsed": 0,
                    "id": -1,
                    "methodDecoded": false,
                    "operation": "",
                    "output": "",
                    "revert": false,
                    "revertMessage": "",
                    "selector": "",
                    "status": false,
                    "value": ""
                },
                "nodeType": 0
            },
            "0": {
                "invocation": {
                    "address": "0x8f3470a7388c05ee4e7af3d01d8c722b0ff52374",
                    "callData": "0x000000000000000000000000a1ddd2516a9308b424844cc1a7491d22fc70715600000000000000000000000000000000000000000000001382c12e1d76d70000",
                    "decodedMethod": {
                        "callParams": [
                            {
                                "name": "_to",
                                "type": "address",
                                "value": "0xa1ddd2516a9308b424844cc1a7491d22fc707156"
                            },
                            {
                                "decimalAvailable": true,
                                "name": "_value",
                                "type": "uint256",
                                "value": "359,910,000,000,000,000,000"
                            }
                        ],
                        "constructorArguments": "",
                        "name": "transfer",
                        "returnParams": [
                            {
                                "name": "success",
                                "type": "bool",
                                "value": true
                            }
                        ],
                        "signature": "transfer(address,uint256)"
                    },
                    "errorInfo": "",
                    "fromAddress": "0xc05c8523a8a743dec7a0bfe3742a1a991e3f3a96",
                    "gasUsed": 51801,
                    "id": 0,
                    "methodDecoded": true,
                    "operation": "CALL",
                    "output": "0x0000000000000000000000000000000000000000000000000000000000000001",
                    "revert": false,
                    "revertMessage": "",
                    "selector": "0xa9059cbb",
                    "status": true,
                    "value": "0"
                },
                "nodeType": 0
            },
            "1": {
                "event": {
                    "contract": "0x8f3470a7388c05ee4e7af3d01d8c722b0ff52374",
                    "decodedLog": {
                        "name": "Transfer",
                        "params": [
                            {
                                "name": "from",
                                "type": "address",
                                "value": "0xc05c8523a8a743dec7a0bfe3742a1a991e3f3a96"
                            },
                            {
                                "name": "to",
                                "type": "address",
                                "value": "0xa1ddd2516a9308b424844cc1a7491d22fc707156"
                            },
                            {
                                "decimalAvailable": true,
                                "name": "value",
                                "type": "uint256",
                                "value": "359,910,000,000,000,000,000"
                            }
                        ],
                        "signature": "Transfer(address,address,uint256)"
                    },
                    "id": 1,
                    "logData": "0x00000000000000000000000000000000000000000000001382c12e1d76d70000",
                    "logDecoded": true,
                    "operation": "EVENT",
                    "revert": false,
                    "status": true,
                    "topics": [
                        "0xddf252ad1be2c89b69c2b068fc378daa952ba7f163c4a11628f55a4df523b3ef",
                        "0x000000000000000000000000c05c8523a8a743dec7a0bfe3742a1a991e3f3a96",
                        "0x000000000000000000000000a1ddd2516a9308b424844cc1a7491d22fc707156"
                    ]
                },
                "nodeType": 1
            }
        },
        "gasFlame": [
            {
                "children": [
                    {
                        "children": [
                            {
                                "children": [],
                                "depth": 0,
                                "name": "Initial Gas",
                                "value": 23256
                            },
                            {
                                "children": [],
                                "depth": 0,
                                "name": "Executed Gas",
                                "value": 28545
                            }
                        ],
                        "depth": -1,
                        "name": "Actual Gas Used",
                        "value": 51801
                    },
                    {
                        "children": [],
                        "depth": -1,
                        "name": "Refunded Gas",
                        "value": 0
                    }
                ],
                "depth": -2,
                "name": "Total Gas",
                "value": 51801
            }
        ],
        "isConfirmed": true,
        "mainTrace": [
            {
                "children": [
                    {
                        "children": [
                            {
                                "children": [],
                                "depth": 1,
                                "id": 1,
                                "order": 1
                            }
                        ],
                        "depth": 0,
                        "id": 0,
                        "order": 0
                    }
                ],
                "depth": -1,
                "id": -1,
                "order": -1
            }
        ],
        "mainTraceNodeCount": 2,
        "parentIdMap": {
            "0": -1,
            "1": 0
        },
        "tidyTrace": [
            {
                "children": [
                    {
                        "children": [
                            {
                                "children": [],
                                "depth": 1,
                                "id": 1,
                                "order": 1
                            }
                        ],
                        "depth": 0,
                        "id": 0,
                        "order": 0
                    }
                ],
                "depth": -1,
                "id": -1,
                "order": -1
            }
        ],
        "tidyTraceNodeCount": 2
    },
    "state_change": {
        "stateChanges": [
            {
                "address": "0x8f3470a7388c05ee4e7af3d01d8c722b0ff52374",
                "erc": "ERC-20",
                "slots": [
                    {
                        "current": "0x000000000000000000000000000000000000000000000000000003449910b5fd",
                        "key": "0xbe89812cc38b211bf6724e109d5134401eb9124a3a8e85db283dbda532678bdb",
                        "prev": "0x00000000000000000000000000000000000000000000001382c131620fe7b5fd"
                    },
                    {
                        "current": "0x00000000000000000000000000000000000000000000001382c12e1d76d70000",
                        "key": "0x82dd87ee1a2a3fbdac36254bb5d43a274952a0828ed3665d131650c8236f1801",
                        "prev": "0x0000000000000000000000000000000000000000000000000000000000000000"
                    }
                ],
                "storageVariables": []
            }
        ]
    }
}