{
    "balance_change": {
        "balanceChanges": [
            {
                "account": "0xd95adc1b905787cda96caa023ead03a97b763221",
                "assets": [
                    {
                        "address": "0x8bcb64bfda77905398b67af0af084c744e777a20",
                        "amount": "6,000",
                        "iconUrl": "",
                        "isERC1155": false,
                        "isERC721": false,
                        "sign": false,
                        "value": ""
                    }
                ]
            },
            {
                "account": "0x0e5e49188fd89731fc57504825acd731252a63ab",
                "assets": [
                    {
                        "address": "0x8bcb64bfda77905398b67af0af084c744e777a20",
                        "amount": "6,000",
                        "iconUrl": "",
                        "isERC1155": false,
                        "isERC721": false,
                        "sign": true,
                        "value": ""
                    }
                ]
            }
        ]
    },
    "profile": {
        "basic_info": {
            "baseFee": "",
            "blockNumber": 6712700,
            "callData": "0xa9059cbb0000000000000000000000000e5e49188fd89731fc57504825acd731252a63ab00000000000000000000000000000000000000000000014542ba12a337c00000",
            "debugEnable": true,
            "errorInfo": "",
            "eventCount": 1,
            "feeRecipient": "0xb2930b35844a230f00e51431acae96fe543a0347",
            "formatValue": "0",
            "gasLimit": 300000,
            "gasPrice": "3",
            "gasUsed": 70483,
            "intTxnCount": 0,
            "internalRevert": false,
            "internalRevertMessage": "",
            "isContractCreation": false,
            "isFlashloan": false,
            "maxFee": "",
            "nonce": 4,
            "overwritedBlockNumber": -1,
            "priorityFee": "",
            "receiver": "0x8bcb64bfda77905398b67af0af084c744e777a20",
            "revertMessage": "",
            "sender": "0xd95adc1b905787cda96caa023ead03a97b763221",
            "simulationEnable": true,
            "sourceTxnHash": "0x5cac73f7d453607190cdd184e88a36facbd954ef4cecfe635aa38103bf756b37",
            "status": true,
            "timestamp": "2018-11-16T02:58:31Z",
            "transactionFee": "0.000211449",
            "txnHash": "0x5cac73f7d453607190cdd184e88a36facbd954ef4cecfe635aa38103bf756b37",
            "txnIndex": 77,
            "type": 0,
            "value": "0"
        },
        "fund_flow": [
            {
                "amount": "6,000",
                "from": "0xd95adc1b905787cda96caa023ead03a97b763221",
                "id": 1,
                "isERC1155": false,
                "isERC721": false,
                "isReverted": false,
                "order": 1,
                "to": "0x0e5e49188fd89731fc57504825acd731252a63ab",
                "token": "0x8bcb64bfda77905398b67af0af084c744e777a20"
            }
        ],
        "token_infos": [
            {
                "address": "0x8bcb64bfda77905398b67af0af084c744e777a20",
                "decimals": 18
            },
            {
                "address": "0xc02aaa39b223fe8d0a0e5c4f27ead9083c756cc2",
                "decimals": 18
            },
            {
                "address": "0xeeeeeeeeeeeeeeeeeeeeeeeeeeeeeeeeeeeeeeee",
                "decimals": 18
            }
        ]
    },
    "address_label": {
        "labels": [
            {
                "address": "0x0e5e49188fd89731fc57504825acd731252a63ab",
                "label": "OKEX"
            },
            {
                "address": "0x0000000000000000000000000000000000000001",
                "label": "Precompiled"
            },
            {
                "address": "0x0000000000000000000000000000000000000002",
                "label": "Precompiled"
            },
            {
                "address": "0x0000000000000000000000000000000000000003",
                "label": "Precompiled"
            },
            {
                "address": "0x0000000000000000000000000000000000000004",
                "label": "Precompiled"
            },
            {
                "address": "0xeeeeeeeeeeeeeeeeeeeeeeeeeeeeeeeeeeeeeeee",
                "label": "Ether"
            },
            {
                "address": "0x8bcb64bfda77905398b67af0af084c744e777a20",
                "label": "GameCell Token"
            }
        ]
    },
    "trace": {
        "accountLabels": null,
        "dataMap": {
            "-1": {
                "invocation": {
                    "address": "0xd95adc1b905787cda96caa023ead03a97b763221",
                    "callData": "",
                    "decodedMethod": null,
                    "errorInfo": "",
                    "fromAddress": "",
                    "gasUsed": 0,
                    "id": -1,
                    "methodDecoded": false,
                    "operation": "",
                    "output": "",
                    "revert": false,
                    "revertMessage": "",
                    "selector": "",
                    "status": false,
                    "value": ""
                },
                "nodeType": 0
            },
            "0": {
                "invocation": {
                    "address": "0x8bcb64bfda77905398b67af0af084c744e777a20",
                    "callData": "0x0000000000000000000000000e5e49188fd89731fc57504825acd731252a63ab00000000000000000000000000000000000000000000014542ba12a337c00000",
                    "decodedMethod": {
                        "callParams": [
                            {
                                "name": "_to",
                                "type": "address",
                                "value": "0x0e5e49188fd89731fc57504825acd731252a63ab"
                            },
                            {
                                "decimalAvailable": true,
                                "name": "_value",
                                "type": "uint256",
                                "value": "6,000,000,000,000,000,000,000"
                            }
                        ],
                        "constructorArguments": "",
                        "name": "transfer",
                        "returnParams": [
                            {
                                "name": "",
                                "type": "bool",
                                "value": true
                            }
                        ],
                        "signature": "transfer(address,uint256)"
                    },
                    "errorInfo": "",
                    "fromAddress": "0xd95adc1b905787cda96caa023ead03a97b763221",
                    "gasUsed": 70483,
                    "id": 0,
                    "methodDecoded": true,
                    "operation": "CALL",
                    "output": "0x0000000000000000000000000000000000000000000000000000000000000001",
                    "revert": false,
                    "revertMessage": "",
                    "selector": "0xa9059cbb",
                    "status": true,
                    "value": "0"
                },
                "nodeType": 0
            },
            "1": {
                "event": {
                    "contract": "0x8bcb64bfda77905398b67af0af084c744e777a20",
                    "decodedLog": {
                        "name": "Transfer",
                        "params": [
                            {
                                "name": "from",
                                "type": "address",
                                "value": "0xd95adc1b905787cda96caa023ead03a97b763221"
                            },
                            {
                                "name": "to",
                                "type": "address",
                                "value": "0x0e5e49188fd89731fc57504825acd731252a63ab"
                            },
                            {
                                "decimalAvailable": true,
                                "name": "value",
                                "type": "uint256",
                                "value": "6,000,000,000,000,000,000,000"
                            }
                        ],
                        "signature": "Transfer(address,address,uint256)"
                    },
                    "id": 1,
                    "logData": "0x00000000000000000000000000000000000000000000014542ba12a337c00000",
                    "logDecoded": true,
                    "operation": "EVENT",
                    "revert": false,
                    "status": true,
                    "topics": [
                        "0xddf252ad1be2c89b69c2b068fc378daa952ba7f163c4a11628f55a4df523b3ef",
                        "0x000000000000000000000000d95adc1b905787cda96caa023ead03a97b763221",
                        "0x0000000000000000000000000e5e49188fd89731fc57504825acd731252a63ab"
                    ]
                },
                "nodeType": 1
            }
        },
        "gasFlame": [
            {
                "children": [
                    {
                        "children": [
                            {
                                "children": [],
                                "depth": 0,
                                "name": "Initial Gas",
                                "value": 23320
                            },
                            {
                                "children": [],
                                "depth": 0,
                                "name": "Executed Gas",
                                "value": 47163
                            }
                        ],
                        "depth": -1,
                        "name": "Actual Gas Used",
                        "value": 70483
                    },
                    {
                        "children": [],
                        "depth": -1,
                        "name": "Refunded Gas",
                        "value": 0
                    }
                ],
                "depth": -2,
                "name": "Total Gas",
                "value": 70483
            }
        ],
        "isConfirmed": true,
        "mainTrace": [
            {
                "children": [
                    {
                        "children": [
                            {
                                "children": [],
                                "depth": 1,
                                "id": 1,
                                "order": 1
                            }
                        ],
                        "depth": 0,
                        "id": 0,
                        "order": 0
                    }
                ],
                "depth": -1,
                "id": -1,
                "order": -1
            }
        ],
        "mainTraceNodeCount": 2,
        "parentIdMap": {
            "0": -1,
            "1": 0
        },
        "tidyTrace": [
            {
                "children": [
                    {
                        "children": [
                            {
                                "children": [],
                                "depth": 1,
                                "id": 1,
                                "order": 1
                            }
                        ],
                        "depth": 0,
                        "id": 0,
                        "order": 0
                    }
                ],
                "depth": -1,
                "id": -1,
                "order": -1
            }
        ],
        "tidyTraceNodeCount": 2
    },
    "state_change": {
        "stateChanges": [
            {
                "address": "0x8bcb64bfda77905398b67af0af084c744e777a20",
                "erc": "ERC-20",
                "slots": [
                    {
                        "current": "0x00000000000000000000000000000000000000000000028a857425466f800000",
                        "key": "0x4e8464181ef91ada41d0d84534f9929bfa6415702f8c39216b7025d1e0615cd9",
                        "prev": "0x0000000000000000000000000000000000000000000003cfc82e37e9a7400000"
                    },
                    {
                        "current": "0x00000000000000000000000000000000000000000000028a857425466f800001",
                        "key": "0x893f8fcde603a3cad63a52734eb05b61dcedd008b9d13f432f129ccce3e43bc8",
                        "prev": "0x00000000000000000000000000000000000000000000014542ba12a337c00001"
                    }
                ],
                "storageVariables": [
                    {
                        "name": "balances",
                        "type": "mapping(address => uint256)",
                        "value": {
                            "pairs": [
                                {
                                    "key": "0x0e5e49188fd89731fc57504825acd731252a63ab",
                                    "value": {
                                        "current": "12000000000000000000001",
                                        "prev": "6000000000000000000001",
                                        "typeTag": 1
                                    }
                                },
                                {
                                    "key": "0xd95adc1b905787cda96caa023ead03a97b763221",
                                    "value": {
                                        "current": "12000000000000000000000",
                                        "prev": "18000000000000000000000",
                                        "typeTag": 1
                                    }
                                }
                            ],
                            "typeTag": 4
                        }
                    }
                ]
            }
        ]
    }
}