{
    "balance_change": {
        "balanceChanges": [
            {
                "account": "0x81ef69aa3f71f5c1bac910effebd713419dfc29f",
                "assets": [
                    {
                        "address": "0xa0b86991c6218b36c1d19d4a2e9eb0ce3606eb48",
                        "amount": "1,893.034443",
                        "iconUrl": "https://assets.blocksec.com/icon/0347a86cc07dbd03fdc5db01a4e5ac7e1217f90e0b6e4bb0f75cbcca09160989.png",
                        "isERC1155": false,
                        "isERC721": false,
                        "sign": false,
                        "value": "1892.6558361114000417"
                    }
                ]
            },
            {
                "account": "0x7ea2be2df7ba6e54b1a9c70676f668455e329d29",
                "assets": [
                    {
                        "address": "0xa0b86991c6218b36c1d19d4a2e9eb0ce3606eb48",
                        "amount": "1,893.034443",
                        "iconUrl": "https://assets.blocksec.com/icon/0347a86cc07dbd03fdc5db01a4e5ac7e1217f90e0b6e4bb0f75cbcca09160989.png",
                        "isERC1155": false,
                        "isERC721": false,
                        "sign": true,
                        "value": "1892.6558361114000417"
                    }
                ]
            }
        ]
    },
    "profile": {
        "basic_info": {
            "baseFee": "24.247339236",
            "blockNumber": 15926071,
            "callData": "0xedbdf5e20000000000000000000000007ea2be2df7ba6e54b1a9c70676f668455e329d2900000000000000000000000081ef69aa3f71f5c1bac910effebd713419dfc29f0000000000000000000000000000000000000000000000000000000070d569cb0000000000000000000000000000000000000000000000000000000000000019",
            "debugEnable": true,
            "errorInfo": "",
            "eventCount": 4,
            "feeRecipient": "0xdafea492d9c6733ae3d56b7ed1adb60692c98bc5",
            "formatValue": "0",
            "gasLimit": 108331,
            "gasPrice": "25.247339236",
            "gasUsed": 86665,
            "intTxnCount": 5,
            "internalRevert": false,
            "internalRevertMessage": "",
            "isContractCreation": false,
            "isFlashloan": false,
            "maxFee": "29.216676538",
            "nonce": 38,
            "overwritedBlockNumber": -1,
            "priorityFee": "1",
            "receiver": "0x6b7a87899490ece95443e979ca9485cbe7e71522",
            "revertMessage": "",
            "sender": "0x81ef69aa3f71f5c1bac910effebd713419dfc29f",
            "simulationEnable": true,
            "sourceTxnHash": "0x5db2a6db0b9eb14ab89cf585d1a9c8cd342372cb7f0c314922b76dffd8f87a3f",
            "status": true,
            "timestamp": "2022-11-08T14:59:59Z",
            "transactionFee": "0.00218806065488794",
            "txnHash": "0x5db2a6db0b9eb14ab89cf585d1a9c8cd342372cb7f0c314922b76dffd8f87a3f",
            "txnIndex": 273,
            "type": 2,
            "value": "0"
        },
        "fund_flow": [
            {
                "amount": "1,893.034443",
                "from": "0x81ef69aa3f71f5c1bac910effebd713419dfc29f",
                "id": 1,
                "isERC1155": false,
                "isERC721": false,
                "isReverted": false,
                "order": 1,
                "to": "0x7ea2be2df7ba6e54b1a9c70676f668455e329d29",
                "token": "0xa0b86991c6218b36c1d19d4a2e9eb0ce3606eb48"
            },
            {
                "amount": "1,893.034443",
                "from": "0x0000000000000000000000000000000000000000",
                "id": 2,
                "isERC1155": false,
                "isERC721": false,
                "isReverted": false,
                "order": 2,
                "to": "0x81ef69aa3f71f5c1bac910effebd713419dfc29f",
                "token": "0x7ea2be2df7ba6e54b1a9c70676f668455e329d29"
            },
            {
                "amount": "1,893.034443",
                "from": "0x81ef69aa3f71f5c1bac910effebd713419dfc29f",
                "id": 3,
                "isERC1155": false,
                "isERC721": false,
                "isReverted": false,
                "order": 3,
                "to": "0x0000000000000000000000000000000000000000",
                "token": "0x7ea2be2df7ba6e54b1a9c70676f668455e329d29"
            }
        ],
        "token_infos": [
            {
                "address": "0x7ea2be2df7ba6e54b1a9c70676f668455e329d29",
                "decimals": 6
            },
            {
                "address": "0xa0b86991c6218b36c1d19d4a2e9eb0ce3606eb48",
                "decimals": 6
            },
            {
                "address": "0xc02aaa39b223fe8d0a0e5c4f27ead9083c756cc2",
                "decimals": 18
            },
            {
                "address": "0xeeeeeeeeeeeeeeeeeeeeeeeeeeeeeeeeeeeeeeee",
                "decimals": 18
            }
        ]
    },
    "address_label": {
        "labels": [
            {
                "address": "0x0000000000000000000000000000000000000004",
                "label": "Precompiled"
            },
            {
                "address": "0x7ea2be2df7ba6e54b1a9c70676f668455e329d29",
                "label": "Multichain: anyUSDC Token"
            },
            {
                "address": "0x0000000000000000000000000000000000000002",
                "label": "Precompiled"
            },
            {
                "address": "0x0000000000000000000000000000000000000003",
                "label": "Precompiled"
            },
            {
                "address": "0xa0b86991c6218b36c1d19d4a2e9eb0ce3606eb48",
                "label": "Circle: USDC Token"
            },
            {
                "address": "0x0000000000000000000000000000000000000001",
                "label": "Precompiled"
            },
            {
                "address": "0xeeeeeeeeeeeeeeeeeeeeeeeeeeeeeeeeeeeeeeee",
                "label": "Ether"
            },
            {
                "address": "0x6b7a87899490ece95443e979ca9485cbe7e71522",
                "label": "Multichain: Router V4"
            },
            {
                "address": "0xa2327a938febf5fec13bacfb16ae10ecbc4cbdcf",
                "label": "FiatTokenV2_1"
            }
        ]
    },
    "trace": {
        "accountLabels": null,
        "dataMap": {
            "-1": {
                "invocation": {
                    "address": "0x81ef69aa3f71f5c1bac910effebd713419dfc29f",
                    "callData": "",
                    "decodedMethod": null,
                    "errorInfo": "",
                    "fromAddress": "",
                    "gasUsed": 0,
                    "id": -1,
                    "methodDecoded": false,
                    "operation": "",
                    "output": "",
                    "revert": false,
                    "revertMessage": "",
                    "selector": "",
                    "status": false,
                    "value": ""
                },
                "nodeType": 0
            },
            "0": {
                "invocation": {
                    "address": "0x6b7a87899490ece95443e979ca9485cbe7e71522",
                    "callData": "0x0000000000000000000000007ea2be2df7ba6e54b1a9c70676f668455e329d2900000000000000000000000081ef69aa3f71f5c1bac910effebd713419dfc29f0000000000000000000000000000000000000000000000000000000070d569cb0000000000000000000000000000000000000000000000000000000000000019",
                    "decodedMethod": {
                        "callParams": [
                            {
                                "name": "token",
                                "type": "address",
                                "value": "0x7ea2be2df7ba6e54b1a9c70676f668455e329d29"
                            },
                            {
                                "name": "to",
                                "type": "address",
                                "value": "0x81ef69aa3f71f5c1bac910effebd713419dfc29f"
                            },
                            {
                                "name": "amount",
                                "type": "uint256",
                                "value": "1,893,034,443"
                            },
                            {
                                "name": "toChainID",
                                "type": "uint256",
                                "value": "25"
                            }
                        ],
                        "constructorArguments": "",
                        "name": "anySwapOutUnderlying",
                        "returnParams": [],
                        "signature": "anySwapOutUnderlying(address,address,uint256,uint256)"
                    },
                    "errorInfo": "",
                    "fromAddress": "0x81ef69aa3f71f5c1bac910effebd713419dfc29f",
                    "gasUsed": 86665,
                    "id": 0,
                    "methodDecoded": true,
                    "operation": "CALL",
                    "output": "",
                    "revert": false,
                    "revertMessage": "",
                    "selector": "0xedbdf5e2",
                    "status": true,
                    "value": "0"
                },
                "nodeType": 0
            },
            "1": {
                "invocation": {
                    "address": "0x7ea2be2df7ba6e54b1a9c70676f668455e329d29",
                    "callData": "0x",
                    "decodedMethod": {
                        "callParams": [],
                        "constructorArguments": "",
                        "name": "underlying",
                        "returnParams": [
                            {
                                "name": "",
                                "type": "address",
                                "value": "0xa0b86991c6218b36c1d19d4a2e9eb0ce3606eb48"
                            }
                        ],
                        "signature": "underlying()"
                    },
                    "errorInfo": "",
                    "fromAddress": "0x6b7a87899490ece95443e979ca9485cbe7e71522",
                    "gasUsed": 327,
                    "id": 1,
                    "methodDecoded": true,
                    "operation": "STATICCALL",
                    "output": "0x000000000000000000000000a0b86991c6218b36c1d19d4a2e9eb0ce3606eb48",
                    "revert": false,
                    "revertMessage": "",
                    "selector": "0x6f307dc3",
                    "status": true,
                    "value": "0"
                },
                "nodeType": 0
            },
            "2": {
                "invocation": {
                    "address": "0xa0b86991c6218b36c1d19d4a2e9eb0ce3606eb48",
                    "callData": "0x00000000000000000000000081ef69aa3f71f5c1bac910effebd713419dfc29f0000000000000000000000007ea2be2df7ba6e54b1a9c70676f668455e329d290000000000000000000000000000000000000000000000000000000070d569cb",
                    "decodedMethod": {
                        "callParams": [
                            {
                                "name": "from",
                                "type": "address",
                                "value": "0x81ef69aa3f71f5c1bac910effebd713419dfc29f"
                            },
                            {
                                "name": "to",
                                "type": "address",
                                "value": "0x7ea2be2df7ba6e54b1a9c70676f668455e329d29"
                            },
                            {
                                "decimalAvailable": true,
                                "name": "value",
                                "type": "uint256",
                                "value": "1,893,034,443"
                            }
                        ],
                        "constructorArguments": "",
                        "name": "transferFrom",
                        "returnParams": [
                            {
                                "name": "",
                                "type": "bool",
                                "value": true
                            }
                        ],
                        "signature": "transferFrom(address,address,uint256)"
                    },
                    "errorInfo": "",
                    "fromAddress": "0x6b7a87899490ece95443e979ca9485cbe7e71522",
                    "gasUsed": 34892,
                    "id": 2,
                    "methodDecoded": true,
                    "operation": "CALL",
                    "output": "0x0000000000000000000000000000000000000000000000000000000000000001",
                    "revert": false,
                    "revertMessage": "",
                    "selector": "0x23b872dd",
                    "status": true,
                    "value": "0"
                },
                "nodeType": 0
            },
            "3": {
                "invocation": {
                    "address": "0xa2327a938febf5fec13bacfb16ae10ecbc4cbdcf",
                    "callData": "0x00000000000000000000000081ef69aa3f71f5c1bac910effebd713419dfc29f0000000000000000000000007ea2be2df7ba6e54b1a9c70676f668455e329d290000000000000000000000000000000000000000000000000000000070d569cb",
                    "decodedMethod": {
                        "callParams": [
                            {
                                "name": "from",
                                "type": "address",
                                "value": "0x81ef69aa3f71f5c1bac910effebd713419dfc29f"
                            },
                            {
                                "name": "to",
                                "type": "address",
                                "value": "0x7ea2be2df7ba6e54b1a9c70676f668455e329d29"
                            },
                            {
                                "decimalAvailable": true,
                                "name": "value",
                                "type": "uint256",
                                "value": "1,893,034,443"
                            }
                        ],
                        "constructorArguments": "",
                        "name": "transferFrom",
                        "returnParams": [
                            {
                                "name": "",
                                "type": "bool",
                                "value": true
                            }
                        ],
                        "signature": "transferFrom(address,address,uint256)"
                    },
                    "errorInfo": "",
                    "fromAddress": "0xa0b86991c6218b36c1d19d4a2e9eb0ce3606eb48",
                    "gasUsed": 27597,
                    "id": 3,
                    "methodDecoded": true,
                    "operation": "DELEGATECALL",
                    "output": "0x0000000000000000000000000000000000000000000000000000000000000001",
                    "revert": false,
                    "revertMessage": "",
                    "selector": "0x23b872dd",
                    "status": true,
                    "value": "0"
                },
                "nodeType": 0
            },
            "4": {
                "event": {
                    "contract": "0xa0b86991c6218b36c1d19d4a2e9eb0ce3606eb48",
                    "decodedLog": {
                        "name": "Transfer",
                        "params": [
                            {
                                "name": "from",
                                "type": "address",
                                "value": "0x81ef69aa3f71f5c1bac910effebd713419dfc29f"
                            },
                            {
                                "name": "to",
                                "type": "address",
                                "value": "0x7ea2be2df7ba6e54b1a9c70676f668455e329d29"
                            },
                            {
                                "decimalAvailable": true,
                                "name": "value",
                                "type": "uint256",
                                "value": "1,893,034,443"
                            }
                        ],
                        "signature": "Transfer(address,address,uint256)"
                    },
                    "id": 4,
                    "logData": "0x0000000000000000000000000000000000000000000000000000000070d569cb",
                    "logDecoded": true,
                    "operation": "EVENT",
                    "revert": false,
                    "status": true,
                    "topics": [
                        "0xddf252ad1be2c89b69c2b068fc378daa952ba7f163c4a11628f55a4df523b3ef",
                        "0x00000000000000000000000081ef69aa3f71f5c1bac910effebd713419dfc29f",
                        "0x0000000000000000000000007ea2be2df7ba6e54b1a9c70676f668455e329d29"
                    ]
                },
                "nodeType": 1
            },
            "5": {
                "invocation": {
                    "address": "0x7ea2be2df7ba6e54b1a9c70676f668455e329d29",
                    "callData": "0x0000000000000000000000000000000000000000000000000000000070d569cb00000000000000000000000081ef69aa3f71f5c1bac910effebd713419dfc29f",
                    "decodedMethod": {
                        "callParams": [
                            {
                                "name": "amount",
                                "type": "uint256",
                                "value": "1,893,034,443"
                            },
                            {
                                "name": "to",
                                "type": "address",
                                "value": "0x81ef69aa3f71f5c1bac910effebd713419dfc29f"
                            }
                        ],
                        "constructorArguments": "",
                        "name": "depositVault",
                        "returnParams": [
                            {
                                "name": "",
                                "type": "uint256",
                                "value": "1,893,034,443"
                            }
                        ],
                        "signature": "depositVault(uint256,address)"
                    },
                    "errorInfo": "",
                    "fromAddress": "0x6b7a87899490ece95443e979ca9485cbe7e71522",
                    "gasUsed": 34250,
                    "id": 5,
                    "methodDecoded": true,
                    "operation": "CALL",
                    "output": "0x0000000000000000000000000000000000000000000000000000000070d569cb",
                    "revert": false,
                    "revertMessage": "",
                    "selector": "0xbebbf4d0",
                    "status": true,
                    "value": "0"
                },
                "nodeType": 0
            },
            "6": {
                "event": {
                    "contract": "0x7ea2be2df7ba6e54b1a9c70676f668455e329d29",
                    "decodedLog": {
                        "name": "Transfer",
                        "params": [
                            {
                                "name": "from",
                                "type": "address",
                                "value": "0x0000000000000000000000000000000000000000"
                            },
                            {
                                "name": "to",
                                "type": "address",
                                "value": "0x81ef69aa3f71f5c1bac910effebd713419dfc29f"
                            },
                            {
                                "decimalAvailable": true,
                                "name": "value",
                                "type": "uint256",
                                "value": "1,893,034,443"
                            }
                        ],
                        "signature": "Transfer(address,address,uint256)"
                    },
                    "id": 6,
                    "logData": "0x0000000000000000000000000000000000000000000000000000000070d569cb",
                    "logDecoded": true,
                    "operation": "EVENT",
                    "revert": false,
                    "status": true,
                    "topics": [
                        "0xddf252ad1be2c89b69c2b068fc378daa952ba7f163c4a11628f55a4df523b3ef",
                        "0x0000000000000000000000000000000000000000000000000000000000000000",
                        "0x00000000000000000000000081ef69aa3f71f5c1bac910effebd713419dfc29f"
                    ]
                },
                "nodeType": 1
            },
            "7": {
                "invocation": {
                    "address": "0x7ea2be2df7ba6e54b1a9c70676f668455e329d29",
                    "callData": "0x00000000000000000000000081ef69aa3f71f5c1bac910effebd713419dfc29f0000000000000000000000000000000000000000000000000000000070d569cb",
                    "decodedMethod": {
                        "callParams": [
                            {
                                "name": "from",
                                "type": "address",
                                "value": "0x81ef69aa3f71f5c1bac910effebd713419dfc29f"
                            },
                            {
                                "name": "amount",
                                "type": "uint256",
                                "value": "1,893,034,443"
                            }
                        ],
                        "constructorArguments": "",
                        "name": "burn",
                        "returnParams": [
                            {
                                "name": "",
                                "type": "bool",
                                "value": true
                            }
                        ],
                        "signature": "burn(address,uint256)"
                    },
                    "errorInfo": "",
                    "fromAddress": "0x6b7a87899490ece95443e979ca9485cbe7e71522",
                    "gasUsed": 5341,
                    "id": 7,
                    "methodDecoded": true,
                    "operation": "CALL",
                    "output": "0x0000000000000000000000000000000000000000000000000000000000000001",
                    "revert": false,
                    "revertMessage": "",
                    "selector": "0x9dc29fac",
                    "status": true,
                    "value": "0"
                },
                "nodeType": 0
            },
            "8": {
                "event": {
                    "contract": "0x7ea2be2df7ba6e54b1a9c70676f668455e329d29",
                    "decodedLog": {
                        "name": "Transfer",
                        "params": [
                            {
                                "name": "from",
                                "type": "address",
                                "value": "0x81ef69aa3f71f5c1bac910effebd713419dfc29f"
                            },
                            {
                                "name": "to",
                                "type": "address",
                                "value": "0x0000000000000000000000000000000000000000"
                            },
                            {
                                "decimalAvailable": true,
                                "name": "value",
                                "type": "uint256",
                                "value": "1,893,034,443"
                            }
                        ],
                        "signature": "Transfer(address,address,uint256)"
                    },
                    "id": 8,
                    "logData": "0x0000000000000000000000000000000000000000000000000000000070d569cb",
                    "logDecoded": true,
                    "operation": "EVENT",
                    "revert": false,
                    "status": true,
                    "topics": [
                        "0xddf252ad1be2c89b69c2b068fc378daa952ba7f163c4a11628f55a4df523b3ef",
                        "0x00000000000000000000000081ef69aa3f71f5c1bac910effebd713419dfc29f",
                        "0x0000000000000000000000000000000000000000000000000000000000000000"
                    ]
                },
                "nodeType": 1
            },
            "9": {
                "event": {
                    "contract": "0x6b7a87899490ece95443e979ca9485cbe7e71522",
                    "decodedLog": {
                        "name": "LogAnySwapOut",
                        "params": [
                            {
                                "name": "token",
                                "type": "address",
                                "value": "0x7ea2be2df7ba6e54b1a9c70676f668455e329d29"
                            },
                            {
                                "name": "from",
                                "type": "address",
                                "value": "0x81ef69aa3f71f5c1bac910effebd713419dfc29f"
                            },
                            {
                                "name": "to",
                                "type": "address",
                                "value": "0x81ef69aa3f71f5c1bac910effebd713419dfc29f"
                            },
                            {
                                "name": "amount",
                                "type": "uint256",
                                "value": "1,893,034,443"
                            },
                            {
                                "name": "fromChainID",
                                "type": "uint256",
                                "value": "1"
                            },
                            {
                                "name": "toChainID",
                                "type": "uint256",
                                "value": "25"
                            }
                        ],
                        "signature": "LogAnySwapOut(address,address,address,uint256,uint256,uint256)"
                    },
                    "id": 9,
                    "logData": "0x0000000000000000000000000000000000000000000000000000000070d569cb00000000000000000000000000000000000000000000000000000000000000010000000000000000000000000000000000000000000000000000000000000019",
                    "logDecoded": true,
                    "operation": "EVENT",
                    "revert": false,
                    "status": true,
                    "topics": [
                        "0x97116cf6cd4f6412bb47914d6db18da9e16ab2142f543b86e207c24fbd16b23a",
                        "0x0000000000000000000000007ea2be2df7ba6e54b1a9c70676f668455e329d29",
                        "0x00000000000000000000000081ef69aa3f71f5c1bac910effebd713419dfc29f",
                        "0x00000000000000000000000081ef69aa3f71f5c1bac910effebd713419dfc29f"
                    ]
                },
                "nodeType": 1
            }
        },
        "gasFlame": [
            {
                "children": [
                    {
                        "children": [
                            {
                                "children": [],
                                "depth": 0,
                                "name": "Initial Gas",
                                "value": 22116
                            },
                            {
                                "children": [
                                    {
                                        "children": [],
                                        "depth": 1,
                                        "name": "underlying",
                                        "value": 327
                                    },
                                    {
                                        "children": [
                                            {
                                                "children": [],
                                                "depth": 2,
                                                "name": "transferFrom",
                                                "value": 27597
                                            }
                                        ],
                                        "depth": 1,
                                        "name": "transferFrom",
                                        "value": 34892
                                    },
                                    {
                                        "children": [],
                                        "depth": 1,
                                        "name": "depositVault",
                                        "value": 34250
                                    },
                                    {
                                        "children": [],
                                        "depth": 1,
                                        "name": "burn",
                                        "value": 5341
                                    }
                                ],
                                "depth": 0,
                                "name": "Executed Gas",
                                "value": 86215
                            }
                        ],
                        "depth": -1,
                        "name": "Actual Gas Used",
                        "value": 86665
                    },
                    {
                        "children": [],
                        "depth": -1,
                        "name": "Refunded Gas",
                        "value": 21666
                    }
                ],
                "depth": -2,
                "name": "Total Gas",
                "value": 108331
            }
        ],
        "isConfirmed": true,
        "mainTrace": [
            {
                "children": [
                    {
                        "children": [
                            {
                                "children": [],
                                "depth": 1,
                                "id": 1,
                                "order": 1
                            },
                            {
                                "children": [
                                    {
                                        "children": [
                                            {
                                                "children": [],
                                                "depth": 3,
                                                "id": 4,
                                                "order": 4
                                            }
                                        ],
                                        "depth": 2,
                                        "id": 3,
                                        "order": 3
                                    }
                                ],
                                "depth": 1,
                                "id": 2,
                                "order": 2
                            },
                            {
                                "children": [
                                    {
                                        "children": [],
                                        "depth": 2,
                                        "id": 6,
                                        "order": 6
                                    }
                                ],
                                "depth": 1,
                                "id": 5,
                                "order": 5
                            },
                            {
                                "children": [
                                    {
                                        "children": [],
                                        "depth": 2,
                                        "id": 8,
                                        "order": 8
                                    }
                                ],
                                "depth": 1,
                                "id": 7,
                                "order": 7
                            },
                            {
                                "children": [],
                                "depth": 1,
                                "id": 9,
                                "order": 9
                            }
                        ],
                        "depth": 0,
                        "id": 0,
                        "order": 0
                    }
                ],
                "depth": -1,
                "id": -1,
                "order": -1
            }
        ],
        "mainTraceNodeCount": 10,
        "parentIdMap": {
            "0": -1,
            "1": 0,
            "2": 0,
            "3": 2,
            "4": 3,
            "5": 0,
            "6": 5,
            "7": 0,
            "8": 7,
            "9": 0
        },
        "tidyTrace": [
            {
                "children": [
                    {
                        "children": [
                            {
                                "children": [
                                    {
                                        "children": [
                                            {
                                                "children": [],
                                                "depth": 3,
                                                "id": 4,
                                                "order": 4
                                            }
                                        ],
                                        "depth": 2,
                                        "id": 3,
                                        "order": 3
                                    }
                                ],
                                "depth": 1,
                                "id": 2,
                                "order": 2
                            },
                            {
                                "children": [
                                    {
                                        "children": [],
                                        "depth": 2,
                                        "id": 6,
                                        "order": 6
                                    }
                                ],
                                "depth": 1,
                                "id": 5,
                                "order": 5
                            },
                            {
                                "children": [
                                    {
                                        "children": [],
                                        "depth": 2,
                                        "id": 8,
                                        "order": 8
                                    }
                                ],
                                "depth": 1,
                                "id": 7,
                                "order": 7
                            },
                            {
                                "children": [],
                                "depth": 1,
                                "id": 9,
                                "order": 9
                            }
                        ],
                        "depth": 0,
                        "id": 0,
                        "order": 0
                    }
                ],
                "depth": -1,
                "id": -1,
                "order": -1
            }
        ],
        "tidyTraceNodeCount": 9
    },
    "state_change": {
        "stateChanges": [
            {
                "address": "0xa0b86991c6218b36c1d19d4a2e9eb0ce3606eb48",
                "erc": "ERC-20",
                "slots": [
                    {
                        "current": "0x0000000000000000000000000000000000000000000000000000000000000000",
                        "key": "0x5bb0a4da279aea4c9845c5a2b420954eddaead94088b37abc6401ab039bf389b",
                        "prev": "0x0000000000000000000000000000000000000000000000000000000070d569cb"
                    },
                    {
                        "current": "0x000000000000000000000000000000000000000000000000000005b217c77c1e",
                        "key": "0xe7d8d2115038a2fe27899a864f34a4c6be87e501307845467b90c028dbabd6cb",
                        "prev": "0x000000000000000000000000000000000000000000000000000005b1a6f21253"
                    },
                    {
                        "current": "0xffffffffffffffffffffffffffffffffffffffffffffffffffffffff8f2a9634",
                        "key": "0x2625834fb8ff70d604b2809b33af1777ebae77d4296f5eed83a8f42480aad12e",
                        "prev": "0xffffffffffffffffffffffffffffffffffffffffffffffffffffffffffffffff"
                    }
                ],
                "storageVariables": [
                    {
                        "name": "allowed",
                        "type": "mapping(address => mapping(address => uint256))",
                        "value": {
                            "pairs": [
                                {
                                    "key": "0x81ef69aa3f71f5c1bac910effebd713419dfc29f",
                                    "value": {
                                        "pairs": [
                                            {
                                                "key": "0x6b7a87899490ece95443e979ca9485cbe7e71522",
                                                "value": {
                                                    "current": "115792089237316195423570985008687907853269984665640564039457584007911236605492",
                                                    "prev": "115792089237316195423570985008687907853269984665640564039457584007913129639935",
                                                    "typeTag": 1
                                                }
                                            }
                                        ],
                                        "typeTag": 4
                                    }
                                }
                            ],
                            "typeTag": 4
                        }
                    },
                    {
                        "name": "balances",
                        "type": "mapping(address => uint256)",
                        "value": {
                            "pairs": [
                                {
                                    "key": "0x7ea2be2df7ba6e54b1a9c70676f668455e329d29",
                                    "value": {
                                        "current": "6262461266974",
                                        "prev": "6260568232531",
                                        "typeTag": 1
                                    }
                                },
                                {
                                    "key": "0x81ef69aa3f71f5c1bac910effebd713419dfc29f",
                                    "value": {
                                        "current": "0",
                                        "prev": "1893034443",
                                        "typeTag": 1
                                    }
                                }
                            ],
                            "typeTag": 4
                        }
                    }
                ]
            }
        ]
    }
}