{
    "balance_change": {
        "balanceChanges": []
    },
    "profile": {
        "basic_info": {
            "baseFee": "",
            "blockNumber": 8205444,
            "callData": "0x27dc297e49672b7f5f0e771296528234bd984675ad79b1f121c1c8d58fc0b1e902e40aef000000000000000000000000000000000000000000000000000000000000004000000000000000000000000000000000000000000000000000000000000000133530333837383832333036323538373636383100000000000000000000000000",
            "debugEnable": true,
            "errorInfo": "",
            "eventCount": 1,
            "feeRecipient": "0x52bc44d5378309ee2abf1539bf71de1b7d7be3b5",
            "formatValue": "0",
            "gasLimit": 90000,
            "gasPrice": "20",
            "gasUsed": 35648,
            "intTxnCount": 2,
            "internalRevert": false,
            "internalRevertMessage": "",
            "isContractCreation": false,
            "isFlashloan": false,
            "maxFee": "",
            "nonce": 57682,
            "overwritedBlockNumber": -1,
            "priorityFee": "",
            "receiver": "0x425372c0ac9d559a186a08a3854e0ddea1a00d5c",
            "revertMessage": "",
            "sender": "0x00004242f4449d49ec9c64ad6f9385a56b2a6297",
            "simulationEnable": true,
            "sourceTxnHash": "0x5d97a8377641d33a33a40f20883c156cfee33a5b7e788662275aa2c21fbf3f72",
            "status": true,
            "timestamp": "2019-07-23T06:54:40Z",
            "transactionFee": "0.00071296",
            "txnHash": "0x5d97a8377641d33a33a40f20883c156cfee33a5b7e788662275aa2c21fbf3f72",
            "txnIndex": 32,
            "type": 0,
            "value": "0"
        },
        "fund_flow": [],
        "token_infos": [
            {
                "address": "0xc02aaa39b223fe8d0a0e5c4f27ead9083c756cc2",
                "decimals": 18
            },
            {
                "address": "0xeeeeeeeeeeeeeeeeeeeeeeeeeeeeeeeeeeeeeeee",
                "decimals": 18
            }
        ]
    },
    "address_label": {
        "labels": [
            {
                "address": "0xeeeeeeeeeeeeeeeeeeeeeeeeeeeeeeeeeeeeeeee",
                "label": "Ether"
            },
            {
                "address": "0x1d3b2638a7cc9f2cb3d298a3da7a90b67e5506ed",
                "label": "OraclizeAddrResolver"
            },
            {
                "address": "0x3dbdc81a6edc94c720b0b88fb65dbd7e395fdcf6",
                "label": "Oraclize"
            },
            {
                "address": "0x0000000000000000000000000000000000000001",
                "label": "Precompiled"
            },
            {
                "address": "0x0000000000000000000000000000000000000002",
                "label": "Precompiled"
            },
            {
                "address": "0x0000000000000000000000000000000000000003",
                "label": "Precompiled"
            },
            {
                "address": "0x0000000000000000000000000000000000000004",
                "label": "Precompiled"
            }
        ]
    },
    "trace": {
        "accountLabels": null,
        "dataMap": {
            "-1": {
                "invocation": {
                    "address": "0x00004242f4449d49ec9c64ad6f9385a56b2a6297",
                    "callData": "",
                    "decodedMethod": null,
                    "errorInfo": "",
                    "fromAddress": "",
                    "gasUsed": 0,
                    "id": -1,
                    "methodDecoded": false,
                    "operation": "",
                    "output": "",
                    "revert": false,
                    "revertMessage": "",
                    "selector": "",
                    "status": false,
                    "value": ""
                },
                "nodeType": 0
            },
            "0": {
                "invocation": {
                    "address": "0x425372c0ac9d559a186a08a3854e0ddea1a00d5c",
                    "callData": "0x49672b7f5f0e771296528234bd984675ad79b1f121c1c8d58fc0b1e902e40aef000000000000000000000000000000000000000000000000000000000000004000000000000000000000000000000000000000000000000000000000000000133530333837383832333036323538373636383100000000000000000000000000",
                    "decodedMethod": {
                        "callParams": [
                            {
                                "name": "myid",
                                "type": "bytes32",
                                "value": "0x49672b7f5f0e771296528234bd984675ad79b1f121c1c8d58fc0b1e902e40aef"
                            },
                            {
                                "name": "result",
                                "type": "string",
                                "value": "5038788230625876681"
                            }
                        ],
                        "constructorArguments": "",
                        "name": "__callback",
                        "returnParams": [],
                        "signature": "__callback(bytes32,string)"
                    },
                    "errorInfo": "",
                    "fromAddress": "0x00004242f4449d49ec9c64ad6f9385a56b2a6297",
                    "gasUsed": 35648,
                    "id": 0,
                    "methodDecoded": true,
                    "operation": "CALL",
                    "output": "",
                    "revert": false,
                    "revertMessage": "",
                    "selector": "0x27dc297e",
                    "status": true,
                    "value": "0"
                },
                "nodeType": 0
            },
            "1": {
                "invocation": {
                    "address": "0x1d3b2638a7cc9f2cb3d298a3da7a90b67e5506ed",
                    "callData": "0x",
                    "decodedMethod": {
                        "callParams": [],
                        "constructorArguments": "",
                        "name": "getAddress",
                        "returnParams": [
                            {
                                "name": "oaddr",
                                "type": "address",
                                "value": "0x3dbdc81a6edc94c720b0b88fb65dbd7e395fdcf6"
                            }
                        ],
                        "signature": "getAddress()"
                    },
                    "errorInfo": "",
                    "fromAddress": "0x425372c0ac9d559a186a08a3854e0ddea1a00d5c",
                    "gasUsed": 418,
                    "id": 1,
                    "methodDecoded": true,
                    "operation": "CALL",
                    "output": "0x0000000000000000000000003dbdc81a6edc94c720b0b88fb65dbd7e395fdcf6",
                    "revert": false,
                    "revertMessage": "",
                    "selector": "0x38cc4831",
                    "status": true,
                    "value": "0"
                },
                "nodeType": 0
            },
            "2": {
                "invocation": {
                    "address": "0x3dbdc81a6edc94c720b0b88fb65dbd7e395fdcf6",
                    "callData": "0x",
                    "decodedMethod": {
                        "callParams": [],
                        "constructorArguments": "",
                        "name": "cbAddress",
                        "returnParams": [
                            {
                                "name": "_cbAddress",
                                "type": "address",
                                "value": "0x00004242f4449d49ec9c64ad6f9385a56b2a6297"
                            }
                        ],
                        "signature": "cbAddress()"
                    },
                    "errorInfo": "",
                    "fromAddress": "0x425372c0ac9d559a186a08a3854e0ddea1a00d5c",
                    "gasUsed": 1444,
                    "id": 2,
                    "methodDecoded": true,
                    "operation": "CALL",
                    "output": "0x00000000000000000000000000004242f4449d49ec9c64ad6f9385a56b2a6297",
                    "revert": false,
                    "revertMessage": "",
                    "selector": "0xc281d19e",
                    "status": true,
                    "value": "0"
                },
                "nodeType": 0
            },
            "3": {
                "event": {
                    "contract": "0x425372c0ac9d559a186a08a3854e0ddea1a00d5c",
                    "decodedLog": null,
                    "id": 3,
                    "logData": "0x49672b7f5f0e771296528234bd984675ad79b1f121c1c8d58fc0b1e902e40aef",
                    "logDecoded": false,
                    "operation": "EVENT",
                    "revert": false,
                    "status": true,
                    "topics": [
                        "0xa3fcf720fbe070dffbd773bdbcefe21b85436602102e3064c71f905dba02c124",
                        "0x00000000000000000000000000000000000000000000000000000000000131d9"
                    ]
                },
                "nodeType": 1
            }
        },
        "gasFlame": [
            {
                "children": [
                    {
                        "children": [
                            {
                                "children": [],
                                "depth": 0,
                                "name": "Initial Gas",
                                "value": 25176
                            },
                            {
                                "children": [
                                    {
                                        "children": [],
                                        "depth": 1,
                                        "name": "getAddress",
                                        "value": 418
                                    },
                                    {
                                        "children": [],
                                        "depth": 1,
                                        "name": "cbAddress",
                                        "value": 1444
                                    }
                                ],
                                "depth": 0,
                                "name": "Executed Gas",
                                "value": 46119
                            }
                        ],
                        "depth": -1,
                        "name": "Actual Gas Used",
                        "value": 35648
                    },
                    {
                        "children": [],
                        "depth": -1,
                        "name": "Refunded Gas",
                        "value": 35647
                    }
                ],
                "depth": -2,
                "name": "Total Gas",
                "value": 71295
            }
        ],
        "isConfirmed": true,
        "mainTrace": [
            {
                "children": [
                    {
                        "children": [
                            {
                                "children": [],
                                "depth": 1,
                                "id": 1,
                                "order": 1
                            },
                            {
                                "children": [],
                                "depth": 1,
                                "id": 2,
                                "order": 2
                            },
                            {
                                "children": [],
                                "depth": 1,
                                "id": 3,
                                "order": 3
                            }
                        ],
                        "depth": 0,
                        "id": 0,
                        "order": 0
                    }
                ],
                "depth": -1,
                "id": -1,
                "order": -1
            }
        ],
        "mainTraceNodeCount": 4,
        "parentIdMap": {
            "0": -1,
            "1": 0,
            "2": 0,
            "3": 0
        },
        "tidyTrace": [
            {
                "children": [
                    {
                        "children": [
                            {
                                "children": [],
                                "depth": 1,
                                "id": 1,
                                "order": 1
                            },
                            {
                                "children": [],
                                "depth": 1,
                                "id": 2,
                                "order": 2
                            },
                            {
                                "children": [],
                                "depth": 1,
                                "id": 3,
                                "order": 3
                            }
                        ],
                        "depth": 0,
                        "id": 0,
                        "order": 0
                    }
                ],
                "depth": -1,
                "id": -1,
                "order": -1
            }
        ],
        "tidyTraceNodeCount": 4
    },
    "state_change": {
        "stateChanges": [
            {
                "address": "0x425372c0ac9d559a186a08a3854e0ddea1a00d5c",
                "erc": "",
                "slots": [
                    {
                        "current": "0x0000000000000000000000000000000000000000000000000000000000000000",
                        "key": "0x480764316d33c9c5e180b07a46d8a38e6c06a8a4b384172c388abefed3a9459a",
                        "prev": "0x000000000000000000000000000000000000000000000000000000005d36af10"
                    },
                    {
                        "current": "0x0000000000000000000000000000000000000000000000000000000000000000",
                        "key": "0x2dcb1dd883d0a8340248a10e898ba1317bc9da5bf359e8fde67d38a7f48c1299",
                        "prev": "0x49672b7f5f0e771296528234bd984675ad79b1f121c1c8d58fc0b1e902e40aef"
                    },
                    {
                        "current": "0xb3ed6424174938b4a924f4748407d033d26c964ecd369881ddcc171189ee7808",
                        "key": "0x0b91aa4d64a5855a8bae66f2efe468f479e39e6a67a0b2877a398cd55dc9b7a4",
                        "prev": "0x0000000000000000000000000000000000000000000000000000000000000000"
                    },
                    {
                        "current": "0x0000000000000000000000000000000000000000000000000000000000000000",
                        "key": "0x480764316d33c9c5e180b07a46d8a38e6c06a8a4b384172c388abefed3a94599",
                        "prev": "0x00000000000000000000000000000000000000000000000000000000000131d9"
                    }
                ],
                "storageVariables": []
            }
        ]
    }
}