{
    "balance_change": {
        "balanceChanges": [
            {
                "account": "0x21b8428ec5c7fb194351e96fadfee372200c5be3",
                "assets": [
                    {
                        "address": "0xf61bf4d1a948487d61b8fa63808aac06bda55f98",
                        "amount": "500",
                        "iconUrl": "",
                        "isERC1155": false,
                        "isERC721": false,
                        "sign": false,
                        "value": ""
                    }
                ]
            },
            {
                "account": "0xe8d337d41f277fbd4ed127eb54a804af87f6d811",
                "assets": [
                    {
                        "address": "0xf61bf4d1a948487d61b8fa63808aac06bda55f98",
                        "amount": "500",
                        "iconUrl": "",
                        "isERC1155": false,
                        "isERC721": false,
                        "sign": true,
                        "value": ""
                    }
                ]
            }
        ]
    },
    "profile": {
        "basic_info": {
            "baseFee": "",
            "blockNumber": 12426013,
            "callData": "0xa9059cbb000000000000000000000000e8d337d41f277fbd4ed127eb54a804af87f6d81100000000000000000000000000000000000000000000001b1ae4d6e2ef500000",
            "debugEnable": true,
            "errorInfo": "",
            "eventCount": 1,
            "feeRecipient": "0x3ecef08d0e2dad803847e052249bb4f8bff2d5bb",
            "formatValue": "0",
            "gasLimit": 150000,
            "gasPrice": "190.9",
            "gasUsed": 34778,
            "intTxnCount": 0,
            "internalRevert": false,
            "internalRevertMessage": "",
            "isContractCreation": false,
            "isFlashloan": false,
            "maxFee": "",
            "nonce": 211,
            "overwritedBlockNumber": -1,
            "priorityFee": "",
            "receiver": "0xf61bf4d1a948487d61b8fa63808aac06bda55f98",
            "revertMessage": "",
            "sender": "0x21b8428ec5c7fb194351e96fadfee372200c5be3",
            "simulationEnable": true,
            "sourceTxnHash": "0x5d2ba8b0e5c7b21c54e0c942ae91af35c56572278b82761f1ffb21ceaf9dff0a",
            "status": true,
            "timestamp": "2021-05-13T12:25:34Z",
            "transactionFee": "0.0066391202",
            "txnHash": "0x5d2ba8b0e5c7b21c54e0c942ae91af35c56572278b82761f1ffb21ceaf9dff0a",
            "txnIndex": 189,
            "type": 0,
            "value": "0"
        },
        "fund_flow": [
            {
                "amount": "500",
                "from": "0x21b8428ec5c7fb194351e96fadfee372200c5be3",
                "id": 1,
                "isERC1155": false,
                "isERC721": false,
                "isReverted": false,
                "order": 1,
                "to": "0xe8d337d41f277fbd4ed127eb54a804af87f6d811",
                "token": "0xf61bf4d1a948487d61b8fa63808aac06bda55f98"
            }
        ],
        "token_infos": [
            {
                "address": "0xeeeeeeeeeeeeeeeeeeeeeeeeeeeeeeeeeeeeeeee",
                "decimals": 18
            },
            {
                "address": "0xc02aaa39b223fe8d0a0e5c4f27ead9083c756cc2",
                "decimals": 18
            },
            {
                "address": "0xf61bf4d1a948487d61b8fa63808aac06bda55f98",
                "decimals": 18
            }
        ]
    },
    "address_label": {
        "labels": [
            {
                "address": "0xeeeeeeeeeeeeeeeeeeeeeeeeeeeeeeeeeeeeeeee",
                "label": "Ether"
            },
            {
                "address": "0xf61bf4d1a948487d61b8fa63808aac06bda55f98",
                "label": "Tr3zor: TR3 Token"
            },
            {
                "address": "0x0000000000000000000000000000000000000001",
                "label": "Precompiled"
            },
            {
                "address": "0x0000000000000000000000000000000000000002",
                "label": "Precompiled"
            },
            {
                "address": "0x0000000000000000000000000000000000000003",
                "label": "Precompiled"
            },
            {
                "address": "0x0000000000000000000000000000000000000004",
                "label": "Precompiled"
            }
        ]
    },
    "trace": {
        "accountLabels": null,
        "dataMap": {
            "-1": {
                "invocation": {
                    "address": "0x21b8428ec5c7fb194351e96fadfee372200c5be3",
                    "callData": "",
                    "decodedMethod": null,
                    "errorInfo": "",
                    "fromAddress": "",
                    "gasUsed": 0,
                    "id": -1,
                    "methodDecoded": false,
                    "operation": "",
                    "output": "",
                    "revert": false,
                    "revertMessage": "",
                    "selector": "",
                    "status": false,
                    "value": ""
                },
                "nodeType": 0
            },
            "0": {
                "invocation": {
                    "address": "0xf61bf4d1a948487d61b8fa63808aac06bda55f98",
                    "callData": "0x000000000000000000000000e8d337d41f277fbd4ed127eb54a804af87f6d81100000000000000000000000000000000000000000000001b1ae4d6e2ef500000",
                    "decodedMethod": {
                        "callParams": [
                            {
                                "name": "recipient",
                                "type": "address",
                                "value": "0xe8d337d41f277fbd4ed127eb54a804af87f6d811"
                            },
                            {
                                "decimalAvailable": true,
                                "name": "amount",
                                "type": "uint256",
                                "value": "500,000,000,000,000,000,000"
                            }
                        ],
                        "constructorArguments": "",
                        "name": "transfer",
                        "returnParams": [
                            {
                                "name": "",
                                "type": "bool",
                                "value": true
                            }
                        ],
                        "signature": "transfer(address,uint256)"
                    },
                    "errorInfo": "",
                    "fromAddress": "0x21b8428ec5c7fb194351e96fadfee372200c5be3",
                    "gasUsed": 34778,
                    "id": 0,
                    "methodDecoded": true,
                    "operation": "CALL",
                    "output": "0x0000000000000000000000000000000000000000000000000000000000000001",
                    "revert": false,
                    "revertMessage": "",
                    "selector": "0xa9059cbb",
                    "status": true,
                    "value": "0"
                },
                "nodeType": 0
            },
            "1": {
                "event": {
                    "contract": "0xf61bf4d1a948487d61b8fa63808aac06bda55f98",
                    "decodedLog": {
                        "name": "Transfer",
                        "params": [
                            {
                                "name": "from",
                                "type": "address",
                                "value": "0x21b8428ec5c7fb194351e96fadfee372200c5be3"
                            },
                            {
                                "name": "to",
                                "type": "address",
                                "value": "0xe8d337d41f277fbd4ed127eb54a804af87f6d811"
                            },
                            {
                                "decimalAvailable": true,
                                "name": "value",
                                "type": "uint256",
                                "value": "500,000,000,000,000,000,000"
                            }
                        ],
                        "signature": "Transfer(address,address,uint256)"
                    },
                    "id": 1,
                    "logData": "0x00000000000000000000000000000000000000000000001b1ae4d6e2ef500000",
                    "logDecoded": true,
                    "operation": "EVENT",
                    "revert": false,
                    "status": true,
                    "topics": [
                        "0xddf252ad1be2c89b69c2b068fc378daa952ba7f163c4a11628f55a4df523b3ef",
                        "0x00000000000000000000000021b8428ec5c7fb194351e96fadfee372200c5be3",
                        "0x000000000000000000000000e8d337d41f277fbd4ed127eb54a804af87f6d811"
                    ]
                },
                "nodeType": 1
            }
        },
        "gasFlame": [
            {
                "children": [
                    {
                        "children": [
                            {
                                "children": [],
                                "depth": 0,
                                "name": "Initial Gas",
                                "value": 21644
                            },
                            {
                                "children": [],
                                "depth": 0,
                                "name": "Executed Gas",
                                "value": 13134
                            }
                        ],
                        "depth": -1,
                        "name": "Actual Gas Used",
                        "value": 34778
                    },
                    {
                        "children": [],
                        "depth": -1,
                        "name": "Refunded Gas",
                        "value": 0
                    }
                ],
                "depth": -2,
                "name": "Total Gas",
                "value": 34778
            }
        ],
        "isConfirmed": true,
        "mainTrace": [
            {
                "children": [
                    {
                        "children": [
                            {
                                "children": [],
                                "depth": 1,
                                "id": 1,
                                "order": 1
                            }
                        ],
                        "depth": 0,
                        "id": 0,
                        "order": 0
                    }
                ],
                "depth": -1,
                "id": -1,
                "order": -1
            }
        ],
        "mainTraceNodeCount": 2,
        "parentIdMap": {
            "0": -1,
            "1": 0
        },
        "tidyTrace": [
            {
                "children": [
                    {
                        "children": [
                            {
                                "children": [],
                                "depth": 1,
                                "id": 1,
                                "order": 1
                            }
                        ],
                        "depth": 0,
                        "id": 0,
                        "order": 0
                    }
                ],
                "depth": -1,
                "id": -1,
                "order": -1
            }
        ],
        "tidyTraceNodeCount": 2
    },
    "state_change": {
        "stateChanges": [
            {
                "address": "0xf61bf4d1a948487d61b8fa63808aac06bda55f98",
                "erc": "ERC-20",
                "slots": [
                    {
                        "current": "0x00000000000000000000000000000000000000000006d5d7371d8cb219540000",
                        "key": "0xa659a32f6dce62036ebcee789ae4f2c9dfcc31af6e65f320740c4c23740f9145",
                        "prev": "0x00000000000000000000000000000000000000000006d5f25202639508a40000"
                    },
                    {
                        "current": "0x0000000000000000000000000000000000000000000000f5235b416acc680000",
                        "key": "0xe41d47a08003428e3601f837c9a6f117206e64c48035e49b261b081fac87886c",
                        "prev": "0x0000000000000000000000000000000000000000000000da08766a87dd180000"
                    }
                ],
                "storageVariables": [
                    {
                        "name": "_balances",
                        "type": "mapping(address => uint256)",
                        "value": {
                            "pairs": [
                                {
                                    "key": "0x21b8428ec5c7fb194351e96fadfee372200c5be3",
                                    "value": {
                                        "current": "8263389000000000000000000",
                                        "prev": "8263889000000000000000000",
                                        "typeTag": 1
                                    }
                                },
                                {
                                    "key": "0xe8d337d41f277fbd4ed127eb54a804af87f6d811",
                                    "value": {
                                        "current": "4522000000000000000000",
                                        "prev": "4022000000000000000000",
                                        "typeTag": 1
                                    }
                                }
                            ],
                            "typeTag": 4
                        }
                    }
                ]
            }
        ]
    }
}