{
    "balance_change": {
        "balanceChanges": [
            {
                "account": "0xf0871e1e675cfdabee729242045e03baf4ed3a00",
                "assets": [
                    {
                        "address": "0xeeeeeeeeeeeeeeeeeeeeeeeeeeeeeeeeeeeeeeee",
                        "amount": "0.00854285714285714",
                        "iconUrl": "https://assets.blocksec.com/image/1663669189317-3.png",
                        "isERC1155": false,
                        "isERC721": false,
                        "sign": false,
                        "value": "10.150920285426889917"
                    }
                ]
            },
            {
                "account": "0x4b5057b2c87ec9e7c047fb00c0e406dff2fdacad",
                "assets": [
                    {
                        "address": "0xeeeeeeeeeeeeeeeeeeeeeeeeeeeeeeeeeeeeeeee",
                        "amount": "0.00854285714285714",
                        "iconUrl": "https://assets.blocksec.com/image/1663669189317-3.png",
                        "isERC1155": false,
                        "isERC721": false,
                        "sign": true,
                        "value": "10.150920285426889917"
                    }
                ]
            }
        ]
    },
    "profile": {
        "basic_info": {
            "baseFee": "28.460608615",
            "blockNumber": 15135362,
            "callData": "0x3761cf4a00000000000000000000000000000000000000000000000000000000000000120000000000000000000000000000000000000000000000003d7092f1959aa6200000000000000000000000000000000000000000000000000000000000000060000000000000000000000000000000000000000000000000000000000000004147f34238328ecd4f006e25c3165e09f0794b3f3ef85c8ba0e424d951e21742c26436c7efaca7967e5fff49b1a90c7f038aa95317aea8176f30f1107f09299a531b00000000000000000000000000000000000000000000000000000000000000",
            "debugEnable": true,
            "errorInfo": "",
            "eventCount": 1,
            "feeRecipient": "0x00192fb10df37c9fb26829eb2cc623cd1bf599e8",
            "formatValue": "0.00854285714285714",
            "gasLimit": 102006,
            "gasPrice": "29.960608615",
            "gasUsed": 98732,
            "intTxnCount": 3,
            "internalRevert": false,
            "internalRevertMessage": "",
            "isContractCreation": false,
            "isFlashloan": false,
            "maxFee": "43.952626553",
            "nonce": 106,
            "overwritedBlockNumber": -1,
            "priorityFee": "1.5",
            "receiver": "0xfbddadd80fe7bda00b901fbaf73803f2238ae655",
            "revertMessage": "",
            "sender": "0xf0871e1e675cfdabee729242045e03baf4ed3a00",
            "simulationEnable": true,
            "sourceTxnHash": "0x5d566dd93d0c4726dc94a991daf7209b50ee6f6703041b4df9e472e7e23bfea8",
            "status": true,
            "timestamp": "2022-07-13T16:37:20Z",
            "transactionFee": "0.00295807080977618",
            "txnHash": "0x5d566dd93d0c4726dc94a991daf7209b50ee6f6703041b4df9e472e7e23bfea8",
            "txnIndex": 10,
            "type": 2,
            "value": "8542857142857140"
        },
        "fund_flow": [
            {
                "amount": "0.00854285714285714",
                "from": "0xf0871e1e675cfdabee729242045e03baf4ed3a00",
                "id": 1,
                "isERC1155": false,
                "isERC721": false,
                "isReverted": false,
                "order": 1,
                "to": "0xfbddadd80fe7bda00b901fbaf73803f2238ae655",
                "token": "0xeeeeeeeeeeeeeeeeeeeeeeeeeeeeeeeeeeeeeeee"
            },
            {
                "amount": "0.00854285714285714",
                "from": "0xfbddadd80fe7bda00b901fbaf73803f2238ae655",
                "id": 2,
                "isERC1155": false,
                "isERC721": false,
                "isReverted": false,
                "order": 2,
                "to": "0x4b5057b2c87ec9e7c047fb00c0e406dff2fdacad",
                "token": "0xeeeeeeeeeeeeeeeeeeeeeeeeeeeeeeeeeeeeeeee"
            }
        ],
        "token_infos": [
            {
                "address": "0xc02aaa39b223fe8d0a0e5c4f27ead9083c756cc2",
                "decimals": 18
            },
            {
                "address": "0xeeeeeeeeeeeeeeeeeeeeeeeeeeeeeeeeeeeeeeee",
                "decimals": 18
            }
        ]
    },
    "address_label": {
        "labels": [
            {
                "address": "0x40568bdb8fa8c35905938b33806f03902549a000",
                "label": "ServiceV24"
            },
            {
                "address": "0xfbddadd80fe7bda00b901fbaf73803f2238ae655",
                "label": "StrongBlock: Service"
            },
            {
                "address": "0x0000000000000000000000000000000000000001",
                "label": "Precompiled"
            },
            {
                "address": "0x0000000000000000000000000000000000000002",
                "label": "Precompiled"
            },
            {
                "address": "0x0000000000000000000000000000000000000003",
                "label": "Precompiled"
            },
            {
                "address": "0x0000000000000000000000000000000000000004",
                "label": "Precompiled"
            },
            {
                "address": "0xeeeeeeeeeeeeeeeeeeeeeeeeeeeeeeeeeeeeeeee",
                "label": "Ether"
            }
        ]
    },
    "trace": {
        "accountLabels": null,
        "dataMap": {
            "-1": {
                "invocation": {
                    "address": "0xf0871e1e675cfdabee729242045e03baf4ed3a00",
                    "callData": "",
                    "decodedMethod": null,
                    "errorInfo": "",
                    "fromAddress": "",
                    "gasUsed": 0,
                    "id": -1,
                    "methodDecoded": false,
                    "operation": "",
                    "output": "",
                    "revert": false,
                    "revertMessage": "",
                    "selector": "",
                    "status": false,
                    "value": ""
                },
                "nodeType": 0
            },
            "0": {
                "invocation": {
                    "address": "0xfbddadd80fe7bda00b901fbaf73803f2238ae655",
                    "callData": "0x00000000000000000000000000000000000000000000000000000000000000120000000000000000000000000000000000000000000000003d7092f1959aa6200000000000000000000000000000000000000000000000000000000000000060000000000000000000000000000000000000000000000000000000000000004147f34238328ecd4f006e25c3165e09f0794b3f3ef85c8ba0e424d951e21742c26436c7efaca7967e5fff49b1a90c7f038aa95317aea8176f30f1107f09299a531b00000000000000000000000000000000000000000000000000000000000000",
                    "decodedMethod": {
                        "callParams": [
                            {
                                "name": "nodeId",
                                "type": "uint128",
                                "value": "18"
                            },
                            {
                                "name": "claimedTotal",
                                "type": "uint256",
                                "value": "4,427,199,999,999,911,456"
                            },
                            {
                                "name": "signature",
                                "type": "bytes",
                                "value": "0x47f34238328ecd4f006e25c3165e09f0794b3f3ef85c8ba0e424d951e21742c26436c7efaca7967e5fff49b1a90c7f038aa95317aea8176f30f1107f09299a531b"
                            }
                        ],
                        "constructorArguments": "",
                        "name": "payFee",
                        "returnParams": [],
                        "signature": "payFee(uint128,uint256,bytes)"
                    },
                    "errorInfo": "",
                    "fromAddress": "0xf0871e1e675cfdabee729242045e03baf4ed3a00",
                    "gasUsed": 98732,
                    "id": 0,
                    "methodDecoded": true,
                    "operation": "CALL",
                    "output": "",
                    "revert": false,
                    "revertMessage": "",
                    "selector": "0x3761cf4a",
                    "status": true,
                    "value": "0.00854285714285714"
                },
                "nodeType": 0
            },
            "1": {
                "invocation": {
                    "address": "0x40568bdb8fa8c35905938b33806f03902549a000",
                    "callData": "0x00000000000000000000000000000000000000000000000000000000000000120000000000000000000000000000000000000000000000003d7092f1959aa6200000000000000000000000000000000000000000000000000000000000000060000000000000000000000000000000000000000000000000000000000000004147f34238328ecd4f006e25c3165e09f0794b3f3ef85c8ba0e424d951e21742c26436c7efaca7967e5fff49b1a90c7f038aa95317aea8176f30f1107f09299a531b00000000000000000000000000000000000000000000000000000000000000",
                    "decodedMethod": {
                        "callParams": [
                            {
                                "name": "nodeId",
                                "type": "uint128",
                                "value": "18"
                            },
                            {
                                "name": "claimedTotal",
                                "type": "uint256",
                                "value": "4,427,199,999,999,911,456"
                            },
                            {
                                "name": "signature",
                                "type": "bytes",
                                "value": "0x47f34238328ecd4f006e25c3165e09f0794b3f3ef85c8ba0e424d951e21742c26436c7efaca7967e5fff49b1a90c7f038aa95317aea8176f30f1107f09299a531b"
                            }
                        ],
                        "constructorArguments": "",
                        "name": "payFee",
                        "returnParams": [],
                        "signature": "payFee(uint128,uint256,bytes)"
                    },
                    "errorInfo": "",
                    "fromAddress": "0xfbddadd80fe7bda00b901fbaf73803f2238ae655",
                    "gasUsed": 68566,
                    "id": 1,
                    "methodDecoded": true,
                    "operation": "DELEGATECALL",
                    "output": "",
                    "revert": false,
                    "revertMessage": "",
                    "selector": "0x3761cf4a",
                    "status": true,
                    "value": "0.00854285714285714"
                },
                "nodeType": 0
            },
            "2": {
                "invocation": {
                    "address": "0x0000000000000000000000000000000000000001",
                    "callData": "0x5f8680ce93710aff1e930afa9741a83f5f0cceffd2293a0376273668000000000000000000000000000000000000000000000000000000000000001b47f34238328ecd4f006e25c3165e09f0794b3f3ef85c8ba0e424d951e21742c26436c7efaca7967e5fff49b1a90c7f038aa95317aea8176f30f1107f09299a53",
                    "decodedMethod": {
                        "callParams": [
                            {
                                "name": "hash",
                                "type": "bytes32",
                                "value": "0xdfdd47d55f8680ce93710aff1e930afa9741a83f5f0cceffd2293a0376273668"
                            },
                            {
                                "name": "v",
                                "type": "uint256",
                                "value": "27"
                            },
                            {
                                "name": "r",
                                "type": "bytes32",
                                "value": "0x47f34238328ecd4f006e25c3165e09f0794b3f3ef85c8ba0e424d951e21742c2"
                            },
                            {
                                "name": "s",
                                "type": "bytes32",
                                "value": "0x6436c7efaca7967e5fff49b1a90c7f038aa95317aea8176f30f1107f09299a53"
                            }
                        ],
                        "constructorArguments": "",
                        "name": "ecrecover",
                        "returnParams": [
                            {
                                "name": "",
                                "type": "address",
                                "value": "0xcaa6f3fa9357dc054332ba4ac026017de8a751dd"
                            }
                        ],
                        "signature": "ecrecover(bytes32,uint256,bytes32,bytes32)"
                    },
                    "errorInfo": "",
                    "fromAddress": "0xfbddadd80fe7bda00b901fbaf73803f2238ae655",
                    "gasUsed": 3000,
                    "id": 2,
                    "methodDecoded": true,
                    "operation": "STATICCALL",
                    "output": "0x000000000000000000000000caa6f3fa9357dc054332ba4ac026017de8a751dd",
                    "revert": false,
                    "revertMessage": "",
                    "selector": "0xdfdd47d5",
                    "status": true,
                    "value": "0"
                },
                "nodeType": 0
            },
            "3": {
                "event": {
                    "contract": "0xfbddadd80fe7bda00b901fbaf73803f2238ae655",
                    "decodedLog": {
                        "name": "Paid",
                        "params": [
                            {
                                "name": "entity",
                                "type": "address",
                                "value": "0xf0871e1e675cfdabee729242045e03baf4ed3a00"
                            },
                            {
                                "name": "nodeId",
                                "type": "uint128",
                                "value": "18"
                            },
                            {
                                "name": "isBYON",
                                "type": "bool",
                                "value": false
                            },
                            {
                                "name": "isRenewal",
                                "type": "bool",
                                "value": true
                            },
                            {
                                "name": "upToBlockNumber",
                                "type": "uint256",
                                "value": "15,022,454"
                            }
                        ],
                        "signature": "Paid(address,uint128,bool,bool,uint256)"
                    },
                    "id": 3,
                    "logData": "0x0000000000000000000000000000000000000000000000000000000000000012000000000000000000000000000000000000000000000000000000000000000000000000000000000000000000000000000000000000000000000000000000010000000000000000000000000000000000000000000000000000000000e53976",
                    "logDecoded": true,
                    "operation": "EVENT",
                    "revert": false,
                    "status": true,
                    "topics": [
                        "0x39b0a0620bb668047ab7248973ddfd93d53dff1d4952bd2d56bbf5934edc1fd0",
                        "0x000000000000000000000000f0871e1e675cfdabee729242045e03baf4ed3a00"
                    ]
                },
                "nodeType": 1
            },
            "4": {
                "invocation": {
                    "address": "0x4b5057b2c87ec9e7c047fb00c0e406dff2fdacad",
                    "callData": "0x",
                    "decodedMethod": null,
                    "errorInfo": "",
                    "fromAddress": "0xfbddadd80fe7bda00b901fbaf73803f2238ae655",
                    "gasUsed": 0,
                    "id": 4,
                    "methodDecoded": false,
                    "operation": "CALL",
                    "output": "",
                    "revert": false,
                    "revertMessage": "",
                    "selector": "fallback",
                    "status": true,
                    "value": "0.00854285714285714"
                },
                "nodeType": 0
            }
        },
        "gasFlame": [
            {
                "children": [
                    {
                        "children": [
                            {
                                "children": [],
                                "depth": 0,
                                "name": "Initial Gas",
                                "value": 22860
                            },
                            {
                                "children": [
                                    {
                                        "children": [
                                            {
                                                "children": [],
                                                "depth": 2,
                                                "name": "ecrecover",
                                                "value": 3000
                                            },
                                            {
                                                "children": [],
                                                "depth": 2,
                                                "name": "fallback",
                                                "value": 0
                                            }
                                        ],
                                        "depth": 1,
                                        "name": "payFee",
                                        "value": 68566
                                    }
                                ],
                                "depth": 0,
                                "name": "Executed Gas",
                                "value": 75872
                            }
                        ],
                        "depth": -1,
                        "name": "Actual Gas Used",
                        "value": 98732
                    },
                    {
                        "children": [],
                        "depth": -1,
                        "name": "Refunded Gas",
                        "value": 0
                    }
                ],
                "depth": -2,
                "name": "Total Gas",
                "value": 98732
            }
        ],
        "isConfirmed": true,
        "mainTrace": [
            {
                "children": [
                    {
                        "children": [
                            {
                                "children": [
                                    {
                                        "children": [],
                                        "depth": 2,
                                        "id": 2,
                                        "order": 2
                                    },
                                    {
                                        "children": [],
                                        "depth": 2,
                                        "id": 3,
                                        "order": 3
                                    },
                                    {
                                        "children": [],
                                        "depth": 2,
                                        "id": 4,
                                        "order": 4
                                    }
                                ],
                                "depth": 1,
                                "id": 1,
                                "order": 1
                            }
                        ],
                        "depth": 0,
                        "id": 0,
                        "order": 0
                    }
                ],
                "depth": -1,
                "id": -1,
                "order": -1
            }
        ],
        "mainTraceNodeCount": 5,
        "parentIdMap": {
            "0": -1,
            "1": 0,
            "2": 1,
            "3": 1,
            "4": 1
        },
        "tidyTrace": [
            {
                "children": [
                    {
                        "children": [
                            {
                                "children": [
                                    {
                                        "children": [],
                                        "depth": 2,
                                        "id": 3,
                                        "order": 3
                                    },
                                    {
                                        "children": [],
                                        "depth": 2,
                                        "id": 4,
                                        "order": 4
                                    }
                                ],
                                "depth": 1,
                                "id": 1,
                                "order": 1
                            }
                        ],
                        "depth": 0,
                        "id": 0,
                        "order": 0
                    }
                ],
                "depth": -1,
                "id": -1,
                "order": -1
            }
        ],
        "tidyTraceNodeCount": 4
    },
    "state_change": {
        "stateChanges": [
            {
                "address": "0xfbddadd80fe7bda00b901fbaf73803f2238ae655",
                "erc": "",
                "slots": [
                    {
                        "current": "0x0000000000000000000000000000000000000000000000000000000000e53976",
                        "key": "0x3759ee92778b2756db1ae97b90f8b55233ebd7dcb30e598e28ef621c059b918b",
                        "prev": "0x0000000000000000000000000000000000000000000000000000000000e233d6"
                    },
                    {
                        "current": "0x0000000000000000000000000000000000000000000000003d7092f1959aa620",
                        "key": "0x13add8187f175c2da2e05389171fdd0f11360caed6caff4571e09166e4d0ef93",
                        "prev": "0x0000000000000000000000000000000000000000000000000000000000000000"
                    }
                ],
                "storageVariables": [
                    {
                        "name": "entityNodePaidOnBlock",
                        "type": "mapping(bytes => uint256)",
                        "value": {
                            "pairs": [
                                {
                                    "key": "0xf0871e1e675cfdabee729242045e03baf4ed3a0000000000000000000000000000000012",
                                    "value": {
                                        "current": "15022454",
                                        "prev": "14824406",
                                        "typeTag": 1
                                    }
                                }
                            ],
                            "typeTag": 4
                        }
                    },
                    {
                        "name": "entityNodeClaimedTotal",
                        "type": "mapping(bytes => uint256)",
                        "value": {
                            "pairs": [
                                {
                                    "key": "0xf0871e1e675cfdabee729242045e03baf4ed3a0000000000000000000000000000000012",
                                    "value": {
                                        "current": "4427199999999911456",
                                        "prev": "0",
                                        "typeTag": 1
                                    }
                                }
                            ],
                            "typeTag": 4
                        }
                    }
                ]
            }
        ]
    }
}