{
    "balance_change": {
        "balanceChanges": [
            {
                "account": "0xe1f4a608746b56d43f49c1a62aedbc023dfe6321",
                "assets": [
                    {
                        "address": "0xd52dca990cfc3760e0cb0a60d96be0da43febf19",
                        "amount": "285.64349782",
                        "iconUrl": "",
                        "isERC1155": false,
                        "isERC721": false,
                        "sign": true,
                        "value": ""
                    }
                ]
            },
            {
                "account": "0xd52dca990cfc3760e0cb0a60d96be0da43febf19",
                "assets": [
                    {
                        "address": "0x2b591e99afe9f32eaa6214f7b7629768c40eeb39",
                        "amount": "47,302.81454001",
                        "iconUrl": "https://assets.blocksec.com/icon/095f9b44449785f7c45bb63956eff8a843b6ae503f7b4576f9d9f27351808b2a.png",
                        "isERC1155": false,
                        "isERC721": false,
                        "sign": true,
                        "value": ""
                    }
                ]
            },
            {
                "account": "0x0000000000000000000000000000000000000000",
                "assets": [
                    {
                        "address": "0x2b591e99afe9f32eaa6214f7b7629768c40eeb39",
                        "amount": "47,302.81454001",
                        "iconUrl": "https://assets.blocksec.com/icon/095f9b44449785f7c45bb63956eff8a843b6ae503f7b4576f9d9f27351808b2a.png",
                        "isERC1155": false,
                        "isERC721": false,
                        "sign": false,
                        "value": ""
                    },
                    {
                        "address": "0xd52dca990cfc3760e0cb0a60d96be0da43febf19",
                        "amount": "288.81731446",
                        "iconUrl": "",
                        "isERC1155": false,
                        "isERC721": false,
                        "sign": false,
                        "value": ""
                    }
                ]
            },
            {
                "account": "0x86d9344094297cf5a6c77c07476f40c2f9903cd8",
                "assets": [
                    {
                        "address": "0xd52dca990cfc3760e0cb0a60d96be0da43febf19",
                        "amount": "3.17381664",
                        "iconUrl": "",
                        "isERC1155": false,
                        "isERC721": false,
                        "sign": true,
                        "value": ""
                    }
                ]
            }
        ]
    },
    "profile": {
        "basic_info": {
            "baseFee": "",
            "blockNumber": 10202967,
            "callData": "0xfeed18ff00000000000000000000000000000000000000000000000000000000000005240000000000000000000000000000000000000000000000000000000000022da8c2f3ef2f9c2de5be256fa7947dc154f02a36bee210a52bc43dec72e3f03d08e5",
            "debugEnable": true,
            "errorInfo": "",
            "eventCount": 7,
            "feeRecipient": "0x5a0b54d5dc17e0aadc383d2db43b0a0d3e029c4c",
            "formatValue": "0",
            "gasLimit": 400524,
            "gasPrice": "15",
            "gasUsed": 252016,
            "intTxnCount": 5,
            "internalRevert": false,
            "internalRevertMessage": "",
            "isContractCreation": false,
            "isFlashloan": false,
            "maxFee": "",
            "nonce": 46,
            "overwritedBlockNumber": -1,
            "priorityFee": "",
            "receiver": "0xd52dca990cfc3760e0cb0a60d96be0da43febf19",
            "revertMessage": "",
            "sender": "0xe1f4a608746b56d43f49c1a62aedbc023dfe6321",
            "simulationEnable": true,
            "sourceTxnHash": "0x5dba692f8263d3f439817408b89437b9fd5d624133d71f54ecc9fbe0580fe421",
            "status": true,
            "timestamp": "2020-06-05T02:17:22Z",
            "transactionFee": "0.00378024",
            "txnHash": "0x5dba692f8263d3f439817408b89437b9fd5d624133d71f54ecc9fbe0580fe421",
            "txnIndex": 58,
            "type": 0,
            "value": "0"
        },
        "fund_flow": [
            {
                "amount": "47,302.81454001",
                "from": "0x0000000000000000000000000000000000000000",
                "id": 1,
                "isERC1155": false,
                "isERC721": false,
                "isReverted": false,
                "order": 1,
                "to": "0xd52dca990cfc3760e0cb0a60d96be0da43febf19",
                "token": "0x2b591e99afe9f32eaa6214f7b7629768c40eeb39"
            },
            {
                "amount": "3.17381664",
                "from": "0x0000000000000000000000000000000000000000",
                "id": 2,
                "isERC1155": false,
                "isERC721": false,
                "isReverted": false,
                "order": 2,
                "to": "0x86d9344094297cf5a6c77c07476f40c2f9903cd8",
                "token": "0xd52dca990cfc3760e0cb0a60d96be0da43febf19"
            },
            {
                "amount": "285.64349782",
                "from": "0x0000000000000000000000000000000000000000",
                "id": 3,
                "isERC1155": false,
                "isERC721": false,
                "isReverted": false,
                "order": 3,
                "to": "0xe1f4a608746b56d43f49c1a62aedbc023dfe6321",
                "token": "0xd52dca990cfc3760e0cb0a60d96be0da43febf19"
            }
        ],
        "token_infos": [
            {
                "address": "0x2b591e99afe9f32eaa6214f7b7629768c40eeb39",
                "decimals": 8
            },
            {
                "address": "0xc02aaa39b223fe8d0a0e5c4f27ead9083c756cc2",
                "decimals": 18
            },
            {
                "address": "0xd52dca990cfc3760e0cb0a60d96be0da43febf19",
                "decimals": 8
            },
            {
                "address": "0xeeeeeeeeeeeeeeeeeeeeeeeeeeeeeeeeeeeeeeee",
                "decimals": 18
            }
        ]
    },
    "address_label": {
        "labels": [
            {
                "address": "0x0000000000000000000000000000000000000002",
                "label": "Precompiled"
            },
            {
                "address": "0x0000000000000000000000000000000000000003",
                "label": "Precompiled"
            },
            {
                "address": "0x0000000000000000000000000000000000000004",
                "label": "Precompiled"
            },
            {
                "address": "0xeeeeeeeeeeeeeeeeeeeeeeeeeeeeeeeeeeeeeeee",
                "label": "Ether"
            },
            {
                "address": "0x2b591e99afe9f32eaa6214f7b7629768c40eeb39",
                "label": "HEX.com: HEX Token"
            },
            {
                "address": "0xd52dca990cfc3760e0cb0a60d96be0da43febf19",
                "label": "HEXMAX (HEX4)"
            },
            {
                "address": "0x0000000000000000000000000000000000000001",
                "label": "Precompiled"
            }
        ]
    },
    "trace": {
        "accountLabels": null,
        "dataMap": {
            "-1": {
                "invocation": {
                    "address": "0xe1f4a608746b56d43f49c1a62aedbc023dfe6321",
                    "callData": "",
                    "decodedMethod": null,
                    "errorInfo": "",
                    "fromAddress": "",
                    "gasUsed": 0,
                    "id": -1,
                    "methodDecoded": false,
                    "operation": "",
                    "output": "",
                    "revert": false,
                    "revertMessage": "",
                    "selector": "",
                    "status": false,
                    "value": ""
                },
                "nodeType": 0
            },
            "0": {
                "invocation": {
                    "address": "0xd52dca990cfc3760e0cb0a60d96be0da43febf19",
                    "callData": "0x00000000000000000000000000000000000000000000000000000000000005240000000000000000000000000000000000000000000000000000000000022da8c2f3ef2f9c2de5be256fa7947dc154f02a36bee210a52bc43dec72e3f03d08e5",
                    "decodedMethod": {
                        "callParams": [
                            {
                                "name": "_stakeIndex",
                                "type": "uint256",
                                "value": "1,316"
                            },
                            {
                                "name": "_stakeIdParam",
                                "type": "uint40",
                                "value": "142,760"
                            },
                            {
                                "name": "_uniqueID",
                                "type": "uint256",
                                "value": "88,179,687,262,836,801,646,283,077,097,815,067,721,653,898,409,739,378,199,843,947,474,621,522,839,781"
                            }
                        ],
                        "constructorArguments": "",
                        "name": "stakeEnd",
                        "returnParams": [],
                        "signature": "stakeEnd(uint256,uint40,uint256)"
                    },
                    "errorInfo": "",
                    "fromAddress": "0xe1f4a608746b56d43f49c1a62aedbc023dfe6321",
                    "gasUsed": 252016,
                    "id": 0,
                    "methodDecoded": true,
                    "operation": "CALL",
                    "output": "",
                    "revert": false,
                    "revertMessage": "",
                    "selector": "0xfeed18ff",
                    "status": true,
                    "value": "0"
                },
                "nodeType": 0
            },
            "1": {
                "invocation": {
                    "address": "0x2b591e99afe9f32eaa6214f7b7629768c40eeb39",
                    "callData": "0x000000000000000000000000d52dca990cfc3760e0cb0a60d96be0da43febf190000000000000000000000000000000000000000000000000000000000000524",
                    "decodedMethod": {
                        "callParams": [
                            {
                                "name": "",
                                "type": "address",
                                "value": "0xd52dca990cfc3760e0cb0a60d96be0da43febf19"
                            },
                            {
                                "name": "",
                                "type": "uint256",
                                "value": "1,316"
                            }
                        ],
                        "constructorArguments": "",
                        "name": "stakeLists",
                        "returnParams": [
                            {
                                "name": "stakeId",
                                "type": "uint40",
                                "value": "142,760"
                            },
                            {
                                "name": "stakedHearts",
                                "type": "uint72",
                                "value": "4,694,367,000,000"
                            },
                            {
                                "name": "stakeShares",
                                "type": "uint72",
                                "value": "4,643,430,856,649"
                            },
                            {
                                "name": "lockedDay",
                                "type": "uint16",
                                "value": "155"
                            },
                            {
                                "name": "stakedDays",
                                "type": "uint16",
                                "value": "30"
                            },
                            {
                                "name": "unlockedDay",
                                "type": "uint16",
                                "value": "0"
                            },
                            {
                                "name": "isAutoStake",
                                "type": "bool",
                                "value": false
                            }
                        ],
                        "signature": "stakeLists(address,uint256)"
                    },
                    "errorInfo": "",
                    "fromAddress": "0xd52dca990cfc3760e0cb0a60d96be0da43febf19",
                    "gasUsed": 2420,
                    "id": 1,
                    "methodDecoded": true,
                    "operation": "STATICCALL",
                    "output": "0x0000000000000000000000000000000000000000000000000000000000022da800000000000000000000000000000000000000000000000000000444fe13d5c000000000000000000000000000000000000000000000000000000439220bf7c9000000000000000000000000000000000000000000000000000000000000009b000000000000000000000000000000000000000000000000000000000000001e00000000000000000000000000000000000000000000000000000000000000000000000000000000000000000000000000000000000000000000000000000000",
                    "revert": false,
                    "revertMessage": "",
                    "selector": "0x2607443b",
                    "status": true,
                    "value": "0"
                },
                "nodeType": 0
            },
            "10": {
                "event": {
                    "contract": "0xd52dca990cfc3760e0cb0a60d96be0da43febf19",
                    "decodedLog": {
                        "name": "onTokenPurchase",
                        "params": [
                            {
                                "name": "customerAddress",
                                "type": "address",
                                "value": "0xe1f4a608746b56d43f49c1a62aedbc023dfe6321"
                            },
                            {
                                "name": "referredBy",
                                "type": "address",
                                "value": "0x0000000000000000000000000000000000000000"
                            },
                            {
                                "name": "incomingHEX",
                                "type": "uint256",
                                "value": "35,914,454,001"
                            },
                            {
                                "name": "tokensMinted",
                                "type": "uint256",
                                "value": "28,564,349,782"
                            },
                            {
                                "name": "timestamp",
                                "type": "uint256",
                                "value": "1,591,323,442"
                            }
                        ],
                        "signature": "onTokenPurchase(address,uint256,uint256,address,uint256)"
                    },
                    "id": 10,
                    "logData": "0x000000000000000000000000000000000000000000000000000000085cab13f100000000000000000000000000000000000000000000000000000006a6916356000000000000000000000000000000000000000000000000000000005ed9ab32",
                    "logDecoded": true,
                    "operation": "EVENT",
                    "revert": false,
                    "status": true,
                    "topics": [
                        "0xff69b2ba8f4ef8248f8c375ba3916c770604b215557acdd4e8387a4dd5e7de86",
                        "0x000000000000000000000000e1f4a608746b56d43f49c1a62aedbc023dfe6321",
                        "0x0000000000000000000000000000000000000000000000000000000000000000"
                    ]
                },
                "nodeType": 1
            },
            "11": {
                "event": {
                    "contract": "0xd52dca990cfc3760e0cb0a60d96be0da43febf19",
                    "decodedLog": {
                        "name": "onTokenAppreciation",
                        "params": [
                            {
                                "name": "tokenPrice",
                                "type": "uint256",
                                "value": "113,158,569"
                            },
                            {
                                "name": "timestamp",
                                "type": "uint256",
                                "value": "1,591,323,442"
                            }
                        ],
                        "signature": "onTokenAppreciation(uint256,uint256)"
                    },
                    "id": 11,
                    "logData": "0x0000000000000000000000000000000000000000000000000000000006bea9a9000000000000000000000000000000000000000000000000000000005ed9ab32",
                    "logDecoded": true,
                    "operation": "EVENT",
                    "revert": false,
                    "status": true,
                    "topics": [
                        "0x0d257a4fe7c6968563ed5ac588cf5b4ddb95868eb9b8fe412c2000cb6f2843ac"
                    ]
                },
                "nodeType": 1
            },
            "12": {
                "event": {
                    "contract": "0xd52dca990cfc3760e0cb0a60d96be0da43febf19",
                    "decodedLog": {
                        "name": "onStakeEnd",
                        "params": [
                            {
                                "name": "customerAddress",
                                "type": "address",
                                "value": "0xe1f4a608746b56d43f49c1a62aedbc023dfe6321"
                            },
                            {
                                "name": "uniqueID",
                                "type": "uint256",
                                "value": "88,179,687,262,836,801,646,283,077,097,815,067,721,653,898,409,739,378,199,843,947,474,621,522,839,781"
                            },
                            {
                                "name": "returnAmount",
                                "type": "uint256",
                                "value": "4,730,281,454,001"
                            },
                            {
                                "name": "difference",
                                "type": "uint256",
                                "value": "28,564,349,782"
                            },
                            {
                                "name": "timestamp",
                                "type": "uint256",
                                "value": "1,591,323,442"
                            }
                        ],
                        "signature": "onStakeEnd(address,uint256,uint256,uint256,uint256)"
                    },
                    "id": 12,
                    "logData": "0xc2f3ef2f9c2de5be256fa7947dc154f02a36bee210a52bc43dec72e3f03d08e50000000000000000000000000000000000000000000000000000044d5abee9b100000000000000000000000000000000000000000000000000000006a6916356000000000000000000000000000000000000000000000000000000005ed9ab32",
                    "logDecoded": true,
                    "operation": "EVENT",
                    "revert": false,
                    "status": true,
                    "topics": [
                        "0x3cfedd205f4a938d3e671ceda6c16675f20d3c7aa1bf7190f572afd767dba248",
                        "0x000000000000000000000000e1f4a608746b56d43f49c1a62aedbc023dfe6321"
                    ]
                },
                "nodeType": 1
            },
            "2": {
                "invocation": {
                    "address": "0x2b591e99afe9f32eaa6214f7b7629768c40eeb39",
                    "callData": "0x",
                    "decodedMethod": {
                        "callParams": [],
                        "constructorArguments": "",
                        "name": "currentDay",
                        "returnParams": [
                            {
                                "name": "",
                                "type": "uint256",
                                "value": "185"
                            }
                        ],
                        "signature": "currentDay()"
                    },
                    "errorInfo": "",
                    "fromAddress": "0xd52dca990cfc3760e0cb0a60d96be0da43febf19",
                    "gasUsed": 360,
                    "id": 2,
                    "methodDecoded": true,
                    "operation": "STATICCALL",
                    "output": "0x00000000000000000000000000000000000000000000000000000000000000b9",
                    "revert": false,
                    "revertMessage": "",
                    "selector": "0x5c9302c9",
                    "status": true,
                    "value": "0"
                },
                "nodeType": 0
            },
            "3": {
                "invocation": {
                    "address": "0x2b591e99afe9f32eaa6214f7b7629768c40eeb39",
                    "callData": "0x000000000000000000000000d52dca990cfc3760e0cb0a60d96be0da43febf19",
                    "decodedMethod": {
                        "callParams": [
                            {
                                "name": "account",
                                "type": "address",
                                "value": "0xd52dca990cfc3760e0cb0a60d96be0da43febf19"
                            }
                        ],
                        "constructorArguments": "",
                        "name": "balanceOf",
                        "returnParams": [
                            {
                                "decimalAvailable": true,
                                "name": "",
                                "type": "uint256",
                                "value": "2,475,899,200,506,621"
                            }
                        ],
                        "signature": "balanceOf(address)"
                    },
                    "errorInfo": "",
                    "fromAddress": "0xd52dca990cfc3760e0cb0a60d96be0da43febf19",
                    "gasUsed": 1213,
                    "id": 3,
                    "methodDecoded": true,
                    "operation": "STATICCALL",
                    "output": "0x0000000000000000000000000000000000000000000000000008cbd134588afd",
                    "revert": false,
                    "revertMessage": "",
                    "selector": "0x70a08231",
                    "status": true,
                    "value": "0"
                },
                "nodeType": 0
            },
            "4": {
                "invocation": {
                    "address": "0x2b591e99afe9f32eaa6214f7b7629768c40eeb39",
                    "callData": "0x00000000000000000000000000000000000000000000000000000000000005240000000000000000000000000000000000000000000000000000000000022da8",
                    "decodedMethod": {
                        "callParams": [
                            {
                                "name": "stakeIndex",
                                "type": "uint256",
                                "value": "1,316"
                            },
                            {
                                "name": "stakeIdParam",
                                "type": "uint40",
                                "value": "142,760"
                            }
                        ],
                        "constructorArguments": "",
                        "name": "stakeEnd",
                        "returnParams": [],
                        "signature": "stakeEnd(uint256,uint40)"
                    },
                    "errorInfo": "",
                    "fromAddress": "0xd52dca990cfc3760e0cb0a60d96be0da43febf19",
                    "gasUsed": 100852,
                    "id": 4,
                    "methodDecoded": true,
                    "operation": "CALL",
                    "output": "",
                    "revert": false,
                    "revertMessage": "",
                    "selector": "0x343009a2",
                    "status": true,
                    "value": "0"
                },
                "nodeType": 0
            },
            "5": {
                "event": {
                    "contract": "0x2b591e99afe9f32eaa6214f7b7629768c40eeb39",
                    "decodedLog": {
                        "name": "StakeEnd",
                        "params": [
                            {
                                "name": "stakerAddr",
                                "type": "address",
                                "value": "0xd52dca990cfc3760e0cb0a60d96be0da43febf19"
                            },
                            {
                                "name": "stakeId",
                                "type": "uint40",
                                "value": "142,760"
                            },
                            {
                                "name": "data0",
                                "type": "uint256",
                                "value": "880,619,849,746,649,297,839,938,210,345,560,322,830,203,180,038,626,752,661,697,440,562"
                            },
                            {
                                "name": "data1",
                                "type": "uint256",
                                "value": "141,670,994,486,089,356,410,880"
                            }
                        ],
                        "signature": "StakeEnd(uint256,uint256,address,uint40)"
                    },
                    "id": 5,
                    "logData": "0x00000000085cab13f10000000439220bf7c90000000444fe13d5c0005ed9ab32000000000000000000000000000000000000000000001e000000000000000000",
                    "logDecoded": true,
                    "operation": "EVENT",
                    "revert": false,
                    "status": true,
                    "topics": [
                        "0x72d9c5a7ab13846e08d9c838f9e866a1bb4a66a2fd3ba3c9e7da3cf9e394dfd7",
                        "0x000000000000000000000000d52dca990cfc3760e0cb0a60d96be0da43febf19",
                        "0x0000000000000000000000000000000000000000000000000000000000022da8"
                    ]
                },
                "nodeType": 1
            },
            "6": {
                "event": {
                    "contract": "0x2b591e99afe9f32eaa6214f7b7629768c40eeb39",
                    "decodedLog": {
                        "name": "Transfer",
                        "params": [
                            {
                                "name": "from",
                                "type": "address",
                                "value": "0x0000000000000000000000000000000000000000"
                            },
                            {
                                "name": "to",
                                "type": "address",
                                "value": "0xd52dca990cfc3760e0cb0a60d96be0da43febf19"
                            },
                            {
                                "decimalAvailable": true,
                                "name": "value",
                                "type": "uint256",
                                "value": "4,730,281,454,001"
                            }
                        ],
                        "signature": "Transfer(address,address,uint256)"
                    },
                    "id": 6,
                    "logData": "0x0000000000000000000000000000000000000000000000000000044d5abee9b1",
                    "logDecoded": true,
                    "operation": "EVENT",
                    "revert": false,
                    "status": true,
                    "topics": [
                        "0xddf252ad1be2c89b69c2b068fc378daa952ba7f163c4a11628f55a4df523b3ef",
                        "0x0000000000000000000000000000000000000000000000000000000000000000",
                        "0x000000000000000000000000d52dca990cfc3760e0cb0a60d96be0da43febf19"
                    ]
                },
                "nodeType": 1
            },
            "7": {
                "invocation": {
                    "address": "0x2b591e99afe9f32eaa6214f7b7629768c40eeb39",
                    "callData": "0x000000000000000000000000d52dca990cfc3760e0cb0a60d96be0da43febf19",
                    "decodedMethod": {
                        "callParams": [
                            {
                                "name": "account",
                                "type": "address",
                                "value": "0xd52dca990cfc3760e0cb0a60d96be0da43febf19"
                            }
                        ],
                        "constructorArguments": "",
                        "name": "balanceOf",
                        "returnParams": [
                            {
                                "decimalAvailable": true,
                                "name": "",
                                "type": "uint256",
                                "value": "2,480,629,481,960,622"
                            }
                        ],
                        "signature": "balanceOf(address)"
                    },
                    "errorInfo": "",
                    "fromAddress": "0xd52dca990cfc3760e0cb0a60d96be0da43febf19",
                    "gasUsed": 1213,
                    "id": 7,
                    "methodDecoded": true,
                    "operation": "STATICCALL",
                    "output": "0x0000000000000000000000000000000000000000000000000008d01e8f1774ae",
                    "revert": false,
                    "revertMessage": "",
                    "selector": "0x70a08231",
                    "status": true,
                    "value": "0"
                },
                "nodeType": 0
            },
            "8": {
                "event": {
                    "contract": "0xd52dca990cfc3760e0cb0a60d96be0da43febf19",
                    "decodedLog": {
                        "name": "Transfer",
                        "params": [
                            {
                                "name": "from",
                                "type": "address",
                                "value": "0x0000000000000000000000000000000000000000"
                            },
                            {
                                "name": "to",
                                "type": "address",
                                "value": "0x86d9344094297cf5a6c77c07476f40c2f9903cd8"
                            },
                            {
                                "decimalAvailable": true,
                                "name": "tokens",
                                "type": "uint256",
                                "value": "317,381,664"
                            }
                        ],
                        "signature": "Transfer(address,address,uint256)"
                    },
                    "id": 8,
                    "logData": "0x0000000000000000000000000000000000000000000000000000000012eadc20",
                    "logDecoded": true,
                    "operation": "EVENT",
                    "revert": false,
                    "status": true,
                    "topics": [
                        "0xddf252ad1be2c89b69c2b068fc378daa952ba7f163c4a11628f55a4df523b3ef",
                        "0x0000000000000000000000000000000000000000000000000000000000000000",
                        "0x00000000000000000000000086d9344094297cf5a6c77c07476f40c2f9903cd8"
                    ]
                },
                "nodeType": 1
            },
            "9": {
                "event": {
                    "contract": "0xd52dca990cfc3760e0cb0a60d96be0da43febf19",
                    "decodedLog": {
                        "name": "Transfer",
                        "params": [
                            {
                                "name": "from",
                                "type": "address",
                                "value": "0x0000000000000000000000000000000000000000"
                            },
                            {
                                "name": "to",
                                "type": "address",
                                "value": "0xe1f4a608746b56d43f49c1a62aedbc023dfe6321"
                            },
                            {
                                "decimalAvailable": true,
                                "name": "tokens",
                                "type": "uint256",
                                "value": "28,564,349,782"
                            }
                        ],
                        "signature": "Transfer(address,address,uint256)"
                    },
                    "id": 9,
                    "logData": "0x00000000000000000000000000000000000000000000000000000006a6916356",
                    "logDecoded": true,
                    "operation": "EVENT",
                    "revert": false,
                    "status": true,
                    "topics": [
                        "0xddf252ad1be2c89b69c2b068fc378daa952ba7f163c4a11628f55a4df523b3ef",
                        "0x0000000000000000000000000000000000000000000000000000000000000000",
                        "0x000000000000000000000000e1f4a608746b56d43f49c1a62aedbc023dfe6321"
                    ]
                },
                "nodeType": 1
            }
        },
        "gasFlame": [
            {
                "children": [
                    {
                        "children": [
                            {
                                "children": [],
                                "depth": 0,
                                "name": "Initial Gas",
                                "value": 21892
                            },
                            {
                                "children": [
                                    {
                                        "children": [],
                                        "depth": 1,
                                        "name": "stakeLists",
                                        "value": 2420
                                    },
                                    {
                                        "children": [],
                                        "depth": 1,
                                        "name": "currentDay",
                                        "value": 360
                                    },
                                    {
                                        "children": [],
                                        "depth": 1,
                                        "name": "balanceOf",
                                        "value": 1213
                                    },
                                    {
                                        "children": [],
                                        "depth": 1,
                                        "name": "stakeEnd",
                                        "value": 100852
                                    },
                                    {
                                        "children": [],
                                        "depth": 1,
                                        "name": "balanceOf",
                                        "value": 1213
                                    }
                                ],
                                "depth": 0,
                                "name": "Executed Gas",
                                "value": 245124
                            }
                        ],
                        "depth": -1,
                        "name": "Actual Gas Used",
                        "value": 252016
                    },
                    {
                        "children": [],
                        "depth": -1,
                        "name": "Refunded Gas",
                        "value": 15000
                    }
                ],
                "depth": -2,
                "name": "Total Gas",
                "value": 267016
            }
        ],
        "isConfirmed": true,
        "mainTrace": [
            {
                "children": [
                    {
                        "children": [
                            {
                                "children": [],
                                "depth": 1,
                                "id": 1,
                                "order": 1
                            },
                            {
                                "children": [],
                                "depth": 1,
                                "id": 2,
                                "order": 2
                            },
                            {
                                "children": [],
                                "depth": 1,
                                "id": 3,
                                "order": 3
                            },
                            {
                                "children": [
                                    {
                                        "children": [],
                                        "depth": 2,
                                        "id": 5,
                                        "order": 5
                                    },
                                    {
                                        "children": [],
                                        "depth": 2,
                                        "id": 6,
                                        "order": 6
                                    }
                                ],
                                "depth": 1,
                                "id": 4,
                                "order": 4
                            },
                            {
                                "children": [],
                                "depth": 1,
                                "id": 7,
                                "order": 7
                            },
                            {
                                "children": [],
                                "depth": 1,
                                "id": 8,
                                "order": 8
                            },
                            {
                                "children": [],
                                "depth": 1,
                                "id": 9,
                                "order": 9
                            },
                            {
                                "children": [],
                                "depth": 1,
                                "id": 10,
                                "order": 10
                            },
                            {
                                "children": [],
                                "depth": 1,
                                "id": 11,
                                "order": 11
                            },
                            {
                                "children": [],
                                "depth": 1,
                                "id": 12,
                                "order": 12
                            }
                        ],
                        "depth": 0,
                        "id": 0,
                        "order": 0
                    }
                ],
                "depth": -1,
                "id": -1,
                "order": -1
            }
        ],
        "mainTraceNodeCount": 13,
        "parentIdMap": {
            "0": -1,
            "1": 0,
            "10": 0,
            "11": 0,
            "12": 0,
            "2": 0,
            "3": 0,
            "4": 0,
            "5": 4,
            "6": 4,
            "7": 0,
            "8": 0,
            "9": 0
        },
        "tidyTrace": [
            {
                "children": [
                    {
                        "children": [
                            {
                                "children": [
                                    {
                                        "children": [],
                                        "depth": 2,
                                        "id": 5,
                                        "order": 5
                                    },
                                    {
                                        "children": [],
                                        "depth": 2,
                                        "id": 6,
                                        "order": 6
                                    }
                                ],
                                "depth": 1,
                                "id": 4,
                                "order": 4
                            },
                            {
                                "children": [],
                                "depth": 1,
                                "id": 8,
                                "order": 8
                            },
                            {
                                "children": [],
                                "depth": 1,
                                "id": 9,
                                "order": 9
                            },
                            {
                                "children": [],
                                "depth": 1,
                                "id": 10,
                                "order": 10
                            },
                            {
                                "children": [],
                                "depth": 1,
                                "id": 11,
                                "order": 11
                            },
                            {
                                "children": [],
                                "depth": 1,
                                "id": 12,
                                "order": 12
                            }
                        ],
                        "depth": 0,
                        "id": 0,
                        "order": 0
                    }
                ],
                "depth": -1,
                "id": -1,
                "order": -1
            }
        ],
        "tidyTraceNodeCount": 9
    },
    "state_change": {
        "stateChanges": [
            {
                "address": "0x2b591e99afe9f32eaa6214f7b7629768c40eeb39",
                "erc": "ERC-20",
                "slots": [
                    {
                        "current": "0x001c0180aa2f680e5f5e5982919a024b00000299eb0087c2ab7e009e7a8b00b9",
                        "key": "0x0000000000000000000000000000000000000000000000000000000000000004",
                        "prev": "0x001c0180aa2f680e5f5e5982919a024b00000299eb0087c2afb722aa725400b9"
                    },
                    {
                        "current": "0x0000000000000000000000000000000000000000000000011194ce10c4ed4955",
                        "key": "0x0000000000000000000000000000000000000000000000000000000000000002",
                        "prev": "0x0000000000000000000000000000000000000000000000011194c9c36a2e5fa4"
                    },
                    {
                        "current": "0x0000000000000000000000000000000000000000000000000008d01e8f1774ae",
                        "key": "0xe1773003ada3c7c71933f2877f4940909e645c3a4a2f2ad75709a993d2553483",
                        "prev": "0x0000000000000000000000000000000000000000000000000008cbd134588afd"
                    },
                    {
                        "current": "0x000000000000c800b900000008301405f64600000007a6f3e77d800000029872",
                        "key": "0x05e49a8ec698d32a8adf341cca8629abd54b0fdc14321986b49e820362c187bf",
                        "prev": "0x0000000000001e009b0000000439220bf7c90000000444fe13d5c00000022da8"
                    },
                    {
                        "current": "0x0000000000000000000000000000000000000000000000000000000000000000",
                        "key": "0x05e49a8ec698d32a8adf341cca8629abd54b0fdc14321986b49e820362c18ac8",
                        "prev": "0x000000000000c800b900000008301405f64600000007a6f3e77d800000029872"
                    },
                    {
                        "current": "0x000000000000000000000000000000000000000000000000000000000000082d",
                        "key": "0xc4972e140ee55380733af9bf7b8a9c99e35eb0e488e11d166f96dfc8a16bde6f",
                        "prev": "0x000000000000000000000000000000000000000000000000000000000000082e"
                    },
                    {
                        "current": "0x00000002abbbf1ad1f0000019502000007ca5cde042c83004b90672b705732b0",
                        "key": "0x0000000000000000000000000000000000000000000000000000000000000003",
                        "prev": "0x00000002abbbf1ad1f0000019502000007ca5cde042c83004b906b706e6b0870"
                    }
                ],
                "storageVariables": [
                    {
                        "name": "_balances",
                        "type": "mapping(address => uint256)",
                        "value": {
                            "pairs": [
                                {
                                    "key": "0xd52dca990cfc3760e0cb0a60d96be0da43febf19",
                                    "value": {
                                        "current": "2480629481960622",
                                        "prev": "2475899200506621",
                                        "typeTag": 1
                                    }
                                }
                            ],
                            "typeTag": 4
                        }
                    },
                    {
                        "name": "_totalSupply",
                        "type": "uint256",
                        "value": {
                            "current": "19713608040326187349",
                            "prev": "19713603310044733348",
                            "typeTag": 1
                        }
                    },
                    {
                        "name": "stakeLists",
                        "type": "mapping(address => struct GlobalsAndUtility.StakeStore[])",
                        "value": {
                            "pairs": [
                                {
                                    "key": "0xd52dca990cfc3760e0cb0a60d96be0da43febf19",
                                    "value": {
                                        "elemType": "struct GlobalsAndUtility.StakeStore",
                                        "elems": [
                                            {
                                                "index": 1316,
                                                "value": {
                                                    "fields": [
                                                        {
                                                            "name": "stakeId",
                                                            "type": "uint40",
                                                            "value": {
                                                                "current": "170098",
                                                                "prev": "142760",
                                                                "typeTag": 1
                                                            }
                                                        },
                                                        {
                                                            "name": "stakedHearts",
                                                            "type": "uint72",
                                                            "value": {
                                                                "current": "8413638000000",
                                                                "prev": "4694367000000",
                                                                "typeTag": 1
                                                            }
                                                        },
                                                        {
                                                            "name": "stakeShares",
                                                            "type": "uint72",
                                                            "value": {
                                                                "current": "9002587387462",
                                                                "prev": "4643430856649",
                                                                "typeTag": 1
                                                            }
                                                        },
                                                        {
                                                            "name": "lockedDay",
                                                            "type": "uint16",
                                                            "value": {
                                                                "current": "185",
                                                                "prev": "155",
                                                                "typeTag": 1
                                                            }
                                                        },
                                                        {
                                                            "name": "stakedDays",
                                                            "type": "uint16",
                                                            "value": {
                                                                "current": "200",
                                                                "prev": "30",
                                                                "typeTag": 1
                                                            }
                                                        },
                                                        {
                                                            "name": "unlockedDay",
                                                            "type": "uint16",
                                                            "value": {
                                                                "current": "0",
                                                                "prev": "0",
                                                                "typeTag": 1
                                                            }
                                                        },
                                                        {
                                                            "name": "isAutoStake",
                                                            "type": "bool",
                                                            "value": {
                                                                "current": "false",
                                                                "prev": "false",
                                                                "typeTag": 1
                                                            }
                                                        }
                                                    ],
                                                    "typeTag": 3
                                                }
                                            }
                                        ],
                                        "typeTag": 2
                                    }
                                }
                            ],
                            "typeTag": 4
                        }
                    },
                    {
                        "name": "globals",
                        "type": "struct GlobalsAndUtility.GlobalsStore",
                        "value": {
                            "fields": [
                                {
                                    "name": "lockedHeartsTotal",
                                    "type": "uint72",
                                    "value": {
                                        "current": "5444965385756947120",
                                        "prev": "5444970080123947120",
                                        "typeTag": 1
                                    }
                                },
                                {
                                    "name": "nextStakeSharesTotal",
                                    "type": "uint72",
                                    "value": {
                                        "current": "2192825047592067",
                                        "prev": "2192825047592067",
                                        "typeTag": 1
                                    }
                                },
                                {
                                    "name": "shareRate",
                                    "type": "uint40",
                                    "value": {
                                        "current": "103682",
                                        "prev": "103682",
                                        "typeTag": 1
                                    }
                                },
                                {
                                    "name": "stakePenaltyTotal",
                                    "type": "uint72",
                                    "value": {
                                        "current": "2936615841055",
                                        "prev": "2936615841055",
                                        "typeTag": 1
                                    }
                                },
                                {
                                    "name": "dailyDataCount",
                                    "type": "uint16",
                                    "value": {
                                        "current": "185",
                                        "prev": "185",
                                        "typeTag": 1
                                    }
                                },
                                {
                                    "name": "stakeSharesTotal",
                                    "type": "uint72",
                                    "value": {
                                        "current": "9782569898266753675",
                                        "prev": "9782574541697610324",
                                        "typeTag": 1
                                    }
                                },
                                {
                                    "name": "latestStakeId",
                                    "type": "uint40",
                                    "value": {
                                        "current": "170475",
                                        "prev": "170475",
                                        "typeTag": 1
                                    }
                                },
                                {
                                    "name": "claimStats",
                                    "type": "uint128",
                                    "value": {
                                        "current": "145414788323143225495703046292374091",
                                        "prev": "145414788323143225495703046292374091",
                                        "typeTag": 1
                                    }
                                }
                            ],
                            "typeTag": 3
                        }
                    }
                ]
            },
            {
                "address": "0xd52dca990cfc3760e0cb0a60d96be0da43febf19",
                "erc": "",
                "slots": [
                    {
                        "current": "0x0000000000000000000000000000000000000000000000000000000006bea9a9",
                        "key": "0x0000000000000000000000000000000000000000000000000000000000000014",
                        "prev": "0x0000000000000000000000000000000000000000000000000000000006bea9a6"
                    },
                    {
                        "current": "0x0000000000000000000000000000000000000352601e69d592d3697653e91ad7",
                        "key": "0x2b47528da815163a0722011c98f783c89da9005cf2bbbf9ecef50607dd19af61",
                        "prev": "0x000000000000000000000000000000000000035020f99ced5ac3a81651f5b60d"
                    },
                    {
                        "current": "0x00000000000000000000000000000000000000000000000000000c8432126ae0",
                        "key": "0xb57555223269d5fee71f052246e7a120dcf1fee935430641c8407e2f71b19052",
                        "prev": "0x00000000000000000000000000000000000000000000000000000c7bd56756ef"
                    },
                    {
                        "current": "0x0000000000000000000000000000000000000000000000000001b2651b802917",
                        "key": "0x000000000000000000000000000000000000000000000000000000000000000e",
                        "prev": "0x0000000000000000000000000000000000000000000000000001b26506180cbb"
                    },
                    {
                        "current": "0x000000000000000000000000000000000000000000000000007a1edd65e9c070",
                        "key": "0x000000000000000000000000000000000000000000000000000000000000000a",
                        "prev": "0x000000000000000000000000000000000000000000000000007a232263fd9630"
                    },
                    {
                        "current": "0x0000000000000000000000000000000000000000000000000000000000000004",
                        "key": "0xb57555223269d5fee71f052246e7a120dcf1fee935430641c8407e2f71b19055",
                        "prev": "0x0000000000000000000000000000000000000000000000000000000000000005"
                    },
                    {
                        "current": "0x000000000000000000000000000000000000000000000000000006c1c9e9d680",
                        "key": "0x33d509e3286b5d42d2e6b9a14b8353d78c44ce6bfec876359c79a0ee666b6bee",
                        "prev": "0x00000000000000000000000000000000000000000000000000000b06c7fdac40"
                    },
                    {
                        "current": "0x00000000000000000000000000000000000001596954536e9a0c9b56ee7dca5f",
                        "key": "0x64aee0adc3bbd8aa0705a23642ec12b70cdb73d4728d4e58ae2597ae1868a947",
                        "prev": "0x000000000000000000000000000000000000015962f05c888c6eb05da6e7e07f"
                    },
                    {
                        "current": "0x000000000000000000000000000000000000000000000000567ab1607a0570b5",
                        "key": "0x0000000000000000000000000000000000000000000000000000000000000012",
                        "prev": "0x000000000000000000000000000000000000000000000000567ab042c3f73c2f"
                    },
                    {
                        "current": "0x000000000000000000000000000000000000000000000000000009e957bf8b40",
                        "key": "0xb90ea89264a371323e87d8723013dd286ae6b937c2e19c028a96a4d408da2b35",
                        "prev": "0x000000000000000000000000000000000000000000000000000009e2b12e27ea"
                    },
                    {
                        "current": "0x00000000000000000000000000000000000000000000000000823a18ced5690b",
                        "key": "0x0000000000000000000000000000000000000000000000000000000000000013",
                        "prev": "0x00000000000000000000000000000000000000000000000000823a1108031b9e"
                    },
                    {
                        "current": "0x00000000000000000000000000000000000000000000000000000400358d4491",
                        "key": "0x3581833f1e51697d23553c55866c1972dbeaeaa7806edc793bf3710afa03cd06",
                        "prev": "0x0000000000000000000000000000000000000000000000000000040022a26871"
                    },
                    {
                        "current": "0x000000000000000000000000000000010100b9001e009b0000000439220bf7c9",
                        "key": "0x1905246acb2340b3643d6a399f075a2323b126ae6fef8ef21bc0d3247b4e4865",
                        "prev": "0x00000000000000000000000000000000010000001e009b0000000439220bf7c9"
                    },
                    {
                        "current": "0x0000000000000000000000000000000000000000000000000073156600a1045e",
                        "key": "0x0000000000000000000000000000000000000000000000000000000000000011",
                        "prev": "0x0000000000000000000000000000000000000000000000000073155f4724c4e8"
                    }
                ],
                "storageVariables": [
                    {
                        "name": "payoutsTo",
                        "type": "mapping(address => int256)",
                        "value": {
                            "pairs": [
                                {
                                    "key": "0x86d9344094297cf5a6c77c07476f40c2f9903cd8",
                                    "value": {
                                        "current": "27366313937217945675107275754079",
                                        "prev": "27364336177556988634870506315903",
                                        "typeTag": 1
                                    }
                                },
                                {
                                    "key": "0xe1f4a608746b56d43f49c1a62aedbc023dfe6321",
                                    "value": {
                                        "current": "67373685465630341624904618154711",
                                        "prev": "67195687096007115293220471682573",
                                        "typeTag": 1
                                    }
                                }
                            ],
                            "typeTag": 4
                        }
                    },
                    {
                        "name": "stakeLists",
                        "type": "mapping(address => mapping(uint256 => struct HMX.StakeStore))",
                        "value": {
                            "pairs": [
                                {
                                    "key": "0xe1f4a608746b56d43f49c1a62aedbc023dfe6321",
                                    "value": {
                                        "pairs": [
                                            {
                                                "key": "88179687262836801646283077097815067721653898409739378199843947474621522839781",
                                                "value": {
                                                    "fields": [
                                                        {
                                                            "name": "stakeShares",
                                                            "type": "uint72",
                                                            "value": {
                                                                "current": "4643430856649",
                                                                "prev": "4643430856649",
                                                                "typeTag": 1
                                                            }
                                                        },
                                                        {
                                                            "name": "lockedDay",
                                                            "type": "uint16",
                                                            "value": {
                                                                "current": "155",
                                                                "prev": "155",
                                                                "typeTag": 1
                                                            }
                                                        },
                                                        {
                                                            "name": "stakedDays",
                                                            "type": "uint16",
                                                            "value": {
                                                                "current": "30",
                                                                "prev": "30",
                                                                "typeTag": 1
                                                            }
                                                        },
                                                        {
                                                            "name": "unlockedDay",
                                                            "type": "uint16",
                                                            "value": {
                                                                "current": "185",
                                                                "prev": "0",
                                                                "typeTag": 1
                                                            }
                                                        },
                                                        {
                                                            "name": "started",
                                                            "type": "bool",
                                                            "value": {
                                                                "current": "true",
                                                                "prev": "true",
                                                                "typeTag": 1
                                                            }
                                                        },
                                                        {
                                                            "name": "ended",
                                                            "type": "bool",
                                                            "value": {
                                                                "current": "true",
                                                                "prev": "false",
                                                                "typeTag": 1
                                                            }
                                                        }
                                                    ],
                                                    "typeTag": 3
                                                }
                                            }
                                        ],
                                        "typeTag": 4
                                    }
                                }
                            ],
                            "typeTag": 4
                        }
                    },
                    {
                        "name": "playerStats",
                        "type": "mapping(address => struct HMX.Stats)",
                        "value": {
                            "pairs": [
                                {
                                    "key": "0xe1f4a608746b56d43f49c1a62aedbc023dfe6321",
                                    "value": {
                                        "fields": [
                                            {
                                                "name": "deposits",
                                                "type": "uint256",
                                                "value": {
                                                    "current": "13761915284192",
                                                    "prev": "13726000830191",
                                                    "typeTag": 1
                                                }
                                            },
                                            {
                                                "name": "activeStakes",
                                                "type": "uint256",
                                                "value": {
                                                    "current": "4",
                                                    "prev": "5",
                                                    "typeTag": 1
                                                }
                                            }
                                        ],
                                        "typeTag": 3
                                    }
                                }
                            ],
                            "typeTag": 4
                        }
                    },
                    {
                        "name": "profitPerShare",
                        "type": "uint256",
                        "value": {
                            "current": "6231488062342656181",
                            "prev": "6231486835222592559",
                            "typeTag": 1
                        }
                    },
                    {
                        "name": "lockedHexBalanceLedger",
                        "type": "mapping(address => uint256)",
                        "value": {
                            "pairs": [
                                {
                                    "key": "0xe1f4a608746b56d43f49c1a62aedbc023dfe6321",
                                    "value": {
                                        "current": "7429386000000",
                                        "prev": "12123753000000",
                                        "typeTag": 1
                                    }
                                }
                            ],
                            "typeTag": 4
                        }
                    },
                    {
                        "name": "tokenSupply",
                        "type": "uint256",
                        "value": {
                            "current": "32393150163125342",
                            "prev": "32393121281393896",
                            "typeTag": 1
                        }
                    },
                    {
                        "name": "tokenPrice",
                        "type": "uint256",
                        "value": {
                            "current": "113158569",
                            "prev": "113158566",
                            "typeTag": 1
                        }
                    },
                    {
                        "name": "contractValue",
                        "type": "uint256",
                        "value": {
                            "current": "36655625196103947",
                            "prev": "36655591795661726",
                            "typeTag": 1
                        }
                    },
                    {
                        "name": "totalTewFundCollected",
                        "type": "uint256",
                        "value": {
                            "current": "477622299535639",
                            "prev": "477621940391099",
                            "typeTag": 1
                        }
                    },
                    {
                        "name": "tokenBalanceLedger",
                        "type": "mapping(address => uint256)",
                        "value": {
                            "pairs": [
                                {
                                    "key": "0x86d9344094297cf5a6c77c07476f40c2f9903cd8",
                                    "value": {
                                        "current": "4398944961681",
                                        "prev": "4398627580017",
                                        "typeTag": 1
                                    }
                                },
                                {
                                    "key": "0xe1f4a608746b56d43f49c1a62aedbc023dfe6321",
                                    "value": {
                                        "current": "10897804200768",
                                        "prev": "10869239850986",
                                        "typeTag": 1
                                    }
                                }
                            ],
                            "typeTag": 4
                        }
                    },
                    {
                        "name": "totalStakeBalance",
                        "type": "uint256",
                        "value": {
                            "current": "34373883405123696",
                            "prev": "34378577772123696",
                            "typeTag": 1
                        }
                    }
                ]
            }
        ]
    }
}