{
    "balance_change": {
        "balanceChanges": [
            {
                "account": "0x575baf7bd311fbe842ae1853393cec27056bcd3d",
                "assets": [
                    {
                        "address": "0x6368e1e18c4c419ddfc608a0bed1ccb87b9250fc",
                        "amount": "451,097",
                        "iconUrl": "",
                        "isERC1155": false,
                        "isERC721": false,
                        "sign": false,
                        "value": "2595.729601"
                    }
                ]
            },
            {
                "account": "0x47da741e9fada9aff75c0f2df69e9cd2b216b225",
                "assets": [
                    {
                        "address": "0x6368e1e18c4c419ddfc608a0bed1ccb87b9250fc",
                        "amount": "451,097",
                        "iconUrl": "",
                        "isERC1155": false,
                        "isERC721": false,
                        "sign": true,
                        "value": "2595.729601"
                    }
                ]
            }
        ]
    },
    "profile": {
        "basic_info": {
            "baseFee": "44.076082626",
            "blockNumber": 18413888,
            "callData": "0xa9059cbb00000000000000000000000047da741e9fada9aff75c0f2df69e9cd2b216b225000000000000000000000000000000000000000000005f8604725da9a0c40000",
            "debugEnable": true,
            "errorInfo": "",
            "eventCount": 1,
            "feeRecipient": "0x388c818ca8b9251b393131c08a736a67ccb19297",
            "formatValue": "0",
            "gasLimit": 41792,
            "gasPrice": "45.076082626",
            "gasUsed": 30027,
            "intTxnCount": 0,
            "internalRevert": false,
            "internalRevertMessage": "",
            "isContractCreation": false,
            "isFlashloan": false,
            "maxFee": "61.647179863",
            "nonce": 0,
            "overwritedBlockNumber": -1,
            "priorityFee": "1",
            "receiver": "0x6368e1e18c4c419ddfc608a0bed1ccb87b9250fc",
            "revertMessage": "",
            "sender": "0x575baf7bd311fbe842ae1853393cec27056bcd3d",
            "simulationEnable": true,
            "sourceTxnHash": "0x5e1c1b53c0852683465e922e31c325d41dff5dcf81b0e82720cdc746a2557f9b",
            "status": true,
            "timestamp": "2023-10-23T15:33:47Z",
            "transactionFee": "0.001353499533010902",
            "txnHash": "0x5e1c1b53c0852683465e922e31c325d41dff5dcf81b0e82720cdc746a2557f9b",
            "txnIndex": 44,
            "type": 2,
            "value": "0"
        },
        "fund_flow": [
            {
                "amount": "451,097",
                "from": "0x575baf7bd311fbe842ae1853393cec27056bcd3d",
                "id": 1,
                "isERC1155": false,
                "isERC721": false,
                "isReverted": false,
                "order": 1,
                "to": "0x47da741e9fada9aff75c0f2df69e9cd2b216b225",
                "token": "0x6368e1e18c4c419ddfc608a0bed1ccb87b9250fc"
            }
        ],
        "token_infos": [
            {
                "address": "0x6368e1e18c4c419ddfc608a0bed1ccb87b9250fc",
                "decimals": 18
            },
            {
                "address": "0xc02aaa39b223fe8d0a0e5c4f27ead9083c756cc2",
                "decimals": 18
            },
            {
                "address": "0xeeeeeeeeeeeeeeeeeeeeeeeeeeeeeeeeeeeeeeee",
                "decimals": 18
            }
        ]
    },
    "address_label": {
        "labels": [
            {
                "address": "0x388c818ca8b9251b393131c08a736a67ccb19297",
                "label": "LidoExecutionLayerRewardsVault"
            },
            {
                "address": "0x0000000000000000000000000000000000000001",
                "label": "Precompiled"
            },
            {
                "address": "0x0000000000000000000000000000000000000002",
                "label": "Precompiled"
            },
            {
                "address": "0x0000000000000000000000000000000000000003",
                "label": "Precompiled"
            },
            {
                "address": "0x0000000000000000000000000000000000000004",
                "label": "Precompiled"
            },
            {
                "address": "0xeeeeeeeeeeeeeeeeeeeeeeeeeeeeeeeeeeeeeeee",
                "label": "Ether"
            },
            {
                "address": "0x6368e1e18c4c419ddfc608a0bed1ccb87b9250fc",
                "label": "Tap.Global Token"
            }
        ]
    },
    "trace": {
        "accountLabels": null,
        "dataMap": {
            "-1": {
                "invocation": {
                    "address": "0x575baf7bd311fbe842ae1853393cec27056bcd3d",
                    "callData": "",
                    "decodedMethod": null,
                    "errorInfo": "",
                    "fromAddress": "",
                    "gasUsed": 0,
                    "id": -1,
                    "methodDecoded": false,
                    "operation": "",
                    "output": "",
                    "revert": false,
                    "revertMessage": "",
                    "selector": "",
                    "status": false,
                    "value": ""
                },
                "nodeType": 0
            },
            "0": {
                "invocation": {
                    "address": "0x6368e1e18c4c419ddfc608a0bed1ccb87b9250fc",
                    "callData": "0x00000000000000000000000047da741e9fada9aff75c0f2df69e9cd2b216b225000000000000000000000000000000000000000000005f8604725da9a0c40000",
                    "decodedMethod": {
                        "callParams": [
                            {
                                "name": "to",
                                "type": "address",
                                "value": "0x47da741e9fada9aff75c0f2df69e9cd2b216b225"
                            },
                            {
                                "decimalAvailable": true,
                                "name": "value",
                                "type": "uint256",
                                "value": "451,097,000,000,000,000,000,000"
                            }
                        ],
                        "constructorArguments": "",
                        "name": "transfer",
                        "returnParams": [
                            {
                                "name": "",
                                "type": "bool",
                                "value": true
                            }
                        ],
                        "signature": "transfer(address,uint256)"
                    },
                    "errorInfo": "",
                    "fromAddress": "0x575baf7bd311fbe842ae1853393cec27056bcd3d",
                    "gasUsed": 30027,
                    "id": 0,
                    "methodDecoded": true,
                    "operation": "CALL",
                    "output": "0x0000000000000000000000000000000000000000000000000000000000000001",
                    "revert": false,
                    "revertMessage": "",
                    "selector": "0xa9059cbb",
                    "status": true,
                    "value": "0"
                },
                "nodeType": 0
            },
            "1": {
                "event": {
                    "contract": "0x6368e1e18c4c419ddfc608a0bed1ccb87b9250fc",
                    "decodedLog": {
                        "name": "Transfer",
                        "params": [
                            {
                                "name": "from",
                                "type": "address",
                                "value": "0x575baf7bd311fbe842ae1853393cec27056bcd3d"
                            },
                            {
                                "name": "to",
                                "type": "address",
                                "value": "0x47da741e9fada9aff75c0f2df69e9cd2b216b225"
                            },
                            {
                                "decimalAvailable": true,
                                "name": "value",
                                "type": "uint256",
                                "value": "451,097,000,000,000,000,000,000"
                            }
                        ],
                        "signature": "Transfer(address,address,uint256)"
                    },
                    "id": 1,
                    "logData": "0x000000000000000000000000000000000000000000005f8604725da9a0c40000",
                    "logDecoded": true,
                    "operation": "EVENT",
                    "revert": false,
                    "status": true,
                    "topics": [
                        "0xddf252ad1be2c89b69c2b068fc378daa952ba7f163c4a11628f55a4df523b3ef",
                        "0x000000000000000000000000575baf7bd311fbe842ae1853393cec27056bcd3d",
                        "0x00000000000000000000000047da741e9fada9aff75c0f2df69e9cd2b216b225"
                    ]
                },
                "nodeType": 1
            }
        },
        "gasFlame": [
            {
                "children": [
                    {
                        "children": [
                            {
                                "children": [],
                                "depth": 0,
                                "name": "Initial Gas",
                                "value": 21656
                            },
                            {
                                "children": [],
                                "depth": 0,
                                "name": "Executed Gas",
                                "value": 13171
                            }
                        ],
                        "depth": -1,
                        "name": "Actual Gas Used",
                        "value": 30027
                    },
                    {
                        "children": [],
                        "depth": -1,
                        "name": "Refunded Gas",
                        "value": 4800
                    }
                ],
                "depth": -2,
                "name": "Total Gas",
                "value": 34827
            }
        ],
        "isConfirmed": true,
        "mainTrace": [
            {
                "children": [
                    {
                        "children": [
                            {
                                "children": [],
                                "depth": 1,
                                "id": 1,
                                "order": 1
                            }
                        ],
                        "depth": 0,
                        "id": 0,
                        "order": 0
                    }
                ],
                "depth": -1,
                "id": -1,
                "order": -1
            }
        ],
        "mainTraceNodeCount": 2,
        "parentIdMap": {
            "0": -1,
            "1": 0
        },
        "tidyTrace": [
            {
                "children": [
                    {
                        "children": [
                            {
                                "children": [],
                                "depth": 1,
                                "id": 1,
                                "order": 1
                            }
                        ],
                        "depth": 0,
                        "id": 0,
                        "order": 0
                    }
                ],
                "depth": -1,
                "id": -1,
                "order": -1
            }
        ],
        "tidyTraceNodeCount": 2
    },
    "state_change": {
        "stateChanges": [
            {
                "address": "0x6368e1e18c4c419ddfc608a0bed1ccb87b9250fc",
                "erc": "ERC-20",
                "slots": [
                    {
                        "current": "0x000000000000000000000000000000000000000006ad8fa2008c210f71a17497",
                        "key": "0x1676ba56d038ca46c21c3c7e22e261c6692904175f44c55f03c9c79253702886",
                        "prev": "0x000000000000000000000000000000000000000006ad301bfc19c365d0dd7497"
                    },
                    {
                        "current": "0x0000000000000000000000000000000000000000000000000000000000000000",
                        "key": "0x362716b660b001c12a6ecc3232ed4386ecdb962291f66d99b5b35bb254bfd702",
                        "prev": "0x000000000000000000000000000000000000000000005f8604725da9a0c40000"
                    }
                ],
                "storageVariables": [
                    {
                        "name": "_balances",
                        "type": "mapping(address => uint256)",
                        "value": {
                            "pairs": [
                                {
                                    "key": "0x47da741e9fada9aff75c0f2df69e9cd2b216b225",
                                    "value": {
                                        "current": "2066732512540434406739899543",
                                        "prev": "2066281415540434406739899543",
                                        "typeTag": 1
                                    }
                                },
                                {
                                    "key": "0x575baf7bd311fbe842ae1853393cec27056bcd3d",
                                    "value": {
                                        "current": "0",
                                        "prev": "451097000000000000000000",
                                        "typeTag": 1
                                    }
                                }
                            ],
                            "typeTag": 4
                        }
                    }
                ]
            }
        ]
    }
}