{
    "balance_change": {
        "balanceChanges": [
            {
                "account": "0x238e0e45fc187a7b55cb0df77d230bafbdc776bf",
                "assets": [
                    {
                        "address": "0x03cb0021808442ad5efb61197966aef72a1def96",
                        "amount": "4.5493",
                        "iconUrl": "",
                        "isERC1155": false,
                        "isERC721": false,
                        "sign": false,
                        "value": ""
                    }
                ]
            },
            {
                "account": "0x2e07b5441c4538218230981745478436eb6b4bd0",
                "assets": [
                    {
                        "address": "0x03cb0021808442ad5efb61197966aef72a1def96",
                        "amount": "4.5493",
                        "iconUrl": "",
                        "isERC1155": false,
                        "isERC721": false,
                        "sign": true,
                        "value": ""
                    }
                ]
            }
        ]
    },
    "profile": {
        "basic_info": {
            "baseFee": "",
            "blockNumber": 7547238,
            "callData": "0xa9059cbb0000000000000000000000002e07b5441c4538218230981745478436eb6b4bd00000000000000000000000000000000000000000000000003f225c3f2caf4000",
            "debugEnable": true,
            "errorInfo": "",
            "eventCount": 1,
            "feeRecipient": "0x5a0b54d5dc17e0aadc383d2db43b0a0d3e029c4c",
            "formatValue": "0",
            "gasLimit": 100000,
            "gasPrice": "5",
            "gasUsed": 39374,
            "intTxnCount": 0,
            "internalRevert": false,
            "internalRevertMessage": "",
            "isContractCreation": false,
            "isFlashloan": false,
            "maxFee": "",
            "nonce": 352,
            "overwritedBlockNumber": -1,
            "priorityFee": "",
            "receiver": "0x03cb0021808442ad5efb61197966aef72a1def96",
            "revertMessage": "",
            "sender": "0x238e0e45fc187a7b55cb0df77d230bafbdc776bf",
            "simulationEnable": true,
            "sourceTxnHash": "0x5e61ccff0c7430c4c2761898900ea3ba470648854f128e03c8833e858f83a729",
            "status": true,
            "timestamp": "2019-04-11T14:21:24Z",
            "transactionFee": "0.00019687",
            "txnHash": "0x5e61ccff0c7430c4c2761898900ea3ba470648854f128e03c8833e858f83a729",
            "txnIndex": 43,
            "type": 0,
            "value": "0"
        },
        "fund_flow": [
            {
                "amount": "4.5493",
                "from": "0x238e0e45fc187a7b55cb0df77d230bafbdc776bf",
                "id": 1,
                "isERC1155": false,
                "isERC721": false,
                "isReverted": false,
                "order": 1,
                "to": "0x2e07b5441c4538218230981745478436eb6b4bd0",
                "token": "0x03cb0021808442ad5efb61197966aef72a1def96"
            }
        ],
        "token_infos": [
            {
                "address": "0x03cb0021808442ad5efb61197966aef72a1def96",
                "decimals": 18
            },
            {
                "address": "0xc02aaa39b223fe8d0a0e5c4f27ead9083c756cc2",
                "decimals": 18
            },
            {
                "address": "0xeeeeeeeeeeeeeeeeeeeeeeeeeeeeeeeeeeeeeeee",
                "decimals": 18
            }
        ]
    },
    "address_label": {
        "labels": [
            {
                "address": "0xeeeeeeeeeeeeeeeeeeeeeeeeeeeeeeeeeeeeeeee",
                "label": "Ether"
            },
            {
                "address": "0x03cb0021808442ad5efb61197966aef72a1def96",
                "label": "coToken (coToken)"
            },
            {
                "address": "0x0000000000000000000000000000000000000001",
                "label": "Precompiled"
            },
            {
                "address": "0x0000000000000000000000000000000000000002",
                "label": "Precompiled"
            },
            {
                "address": "0x0000000000000000000000000000000000000003",
                "label": "Precompiled"
            },
            {
                "address": "0x0000000000000000000000000000000000000004",
                "label": "Precompiled"
            }
        ]
    },
    "trace": {
        "accountLabels": null,
        "dataMap": {
            "-1": {
                "invocation": {
                    "address": "0x238e0e45fc187a7b55cb0df77d230bafbdc776bf",
                    "callData": "",
                    "decodedMethod": null,
                    "errorInfo": "",
                    "fromAddress": "",
                    "gasUsed": 0,
                    "id": -1,
                    "methodDecoded": false,
                    "operation": "",
                    "output": "",
                    "revert": false,
                    "revertMessage": "",
                    "selector": "",
                    "status": false,
                    "value": ""
                },
                "nodeType": 0
            },
            "0": {
                "invocation": {
                    "address": "0x03cb0021808442ad5efb61197966aef72a1def96",
                    "callData": "0x0000000000000000000000002e07b5441c4538218230981745478436eb6b4bd00000000000000000000000000000000000000000000000003f225c3f2caf4000",
                    "decodedMethod": {
                        "callParams": [
                            {
                                "name": "recipient",
                                "type": "address",
                                "value": "0x2e07b5441c4538218230981745478436eb6b4bd0"
                            },
                            {
                                "decimalAvailable": true,
                                "name": "amount",
                                "type": "uint256",
                                "value": "4,549,300,000,000,000,000"
                            }
                        ],
                        "constructorArguments": "",
                        "name": "transfer",
                        "returnParams": [
                            {
                                "name": "",
                                "type": "bool",
                                "value": true
                            }
                        ],
                        "signature": "transfer(address,uint256)"
                    },
                    "errorInfo": "",
                    "fromAddress": "0x238e0e45fc187a7b55cb0df77d230bafbdc776bf",
                    "gasUsed": 39374,
                    "id": 0,
                    "methodDecoded": true,
                    "operation": "CALL",
                    "output": "0x0000000000000000000000000000000000000000000000000000000000000001",
                    "revert": false,
                    "revertMessage": "",
                    "selector": "0xa9059cbb",
                    "status": true,
                    "value": "0"
                },
                "nodeType": 0
            },
            "1": {
                "event": {
                    "contract": "0x03cb0021808442ad5efb61197966aef72a1def96",
                    "decodedLog": {
                        "name": "Transfer",
                        "params": [
                            {
                                "name": "from",
                                "type": "address",
                                "value": "0x238e0e45fc187a7b55cb0df77d230bafbdc776bf"
                            },
                            {
                                "name": "to",
                                "type": "address",
                                "value": "0x2e07b5441c4538218230981745478436eb6b4bd0"
                            },
                            {
                                "decimalAvailable": true,
                                "name": "value",
                                "type": "uint256",
                                "value": "4,549,300,000,000,000,000"
                            }
                        ],
                        "signature": "Transfer(address,address,uint256)"
                    },
                    "id": 1,
                    "logData": "0x0000000000000000000000000000000000000000000000003f225c3f2caf4000",
                    "logDecoded": true,
                    "operation": "EVENT",
                    "revert": false,
                    "status": true,
                    "topics": [
                        "0xddf252ad1be2c89b69c2b068fc378daa952ba7f163c4a11628f55a4df523b3ef",
                        "0x000000000000000000000000238e0e45fc187a7b55cb0df77d230bafbdc776bf",
                        "0x0000000000000000000000002e07b5441c4538218230981745478436eb6b4bd0"
                    ]
                },
                "nodeType": 1
            }
        },
        "gasFlame": [
            {
                "children": [
                    {
                        "children": [
                            {
                                "children": [],
                                "depth": 0,
                                "name": "Initial Gas",
                                "value": 23256
                            },
                            {
                                "children": [],
                                "depth": 0,
                                "name": "Executed Gas",
                                "value": 16118
                            }
                        ],
                        "depth": -1,
                        "name": "Actual Gas Used",
                        "value": 39374
                    },
                    {
                        "children": [],
                        "depth": -1,
                        "name": "Refunded Gas",
                        "value": 0
                    }
                ],
                "depth": -2,
                "name": "Total Gas",
                "value": 39374
            }
        ],
        "isConfirmed": true,
        "mainTrace": [
            {
                "children": [
                    {
                        "children": [
                            {
                                "children": [],
                                "depth": 1,
                                "id": 1,
                                "order": 1
                            }
                        ],
                        "depth": 0,
                        "id": 0,
                        "order": 0
                    }
                ],
                "depth": -1,
                "id": -1,
                "order": -1
            }
        ],
        "mainTraceNodeCount": 2,
        "parentIdMap": {
            "0": -1,
            "1": 0
        },
        "tidyTrace": [
            {
                "children": [
                    {
                        "children": [
                            {
                                "children": [],
                                "depth": 1,
                                "id": 1,
                                "order": 1
                            }
                        ],
                        "depth": 0,
                        "id": 0,
                        "order": 0
                    }
                ],
                "depth": -1,
                "id": -1,
                "order": -1
            }
        ],
        "tidyTraceNodeCount": 2
    },
    "state_change": {
        "stateChanges": [
            {
                "address": "0x03cb0021808442ad5efb61197966aef72a1def96",
                "erc": "",
                "slots": [
                    {
                        "current": "0x00000000000000000000000000000000000000000000000016cbeb0efee27b18",
                        "key": "0x0c6fe12fae4a22652ebd105513a3127e62a77b7fb79d48337bcacd5b796c205e",
                        "prev": "0x00000000000000000000000000000000000000000000000055ee474e2b91bb18"
                    },
                    {
                        "current": "0x0000000000000000000000000000000000000000000000007632bc4f3458fd60",
                        "key": "0x7820ccf6f35ce9c24a77f2b1ebb4bf3991b144eee6258ed629a225c6495f5d6d",
                        "prev": "0x0000000000000000000000000000000000000000000000003710601007a9bd60"
                    }
                ],
                "storageVariables": []
            }
        ]
    }
}