{
    "balance_change": {
        "balanceChanges": [
            {
                "account": "0x2a0c0dbecc7e4d658f48e01e3fa353f44050c208",
                "assets": [
                    {
                        "address": "0xd0352a019e9ab9d757776f532377aaebd36fd541",
                        "amount": "208.526982754424219227",
                        "iconUrl": "https://assets.blocksec.com/icon/510dc2e4391f14eefc397d3730356d36606ac50efec126ffe9a4e957fb7e4e87.png",
                        "isERC1155": false,
                        "isERC721": false,
                        "sign": false,
                        "value": ""
                    }
                ]
            },
            {
                "account": "0xbb8e25b689320a91e83a74bc530996bb2bda2adb",
                "assets": [
                    {
                        "address": "0xd0352a019e9ab9d757776f532377aaebd36fd541",
                        "amount": "208.526982754424219227",
                        "iconUrl": "https://assets.blocksec.com/icon/510dc2e4391f14eefc397d3730356d36606ac50efec126ffe9a4e957fb7e4e87.png",
                        "isERC1155": false,
                        "isERC721": false,
                        "sign": true,
                        "value": ""
                    }
                ]
            }
        ]
    },
    "profile": {
        "basic_info": {
            "baseFee": "",
            "blockNumber": 5495418,
            "callData": "0x2295115b000000000000000000000000d0352a019e9ab9d757776f532377aaebd36fd54100000000000000000000000000000000000000000000000b4ecbabb4bd36e9d8000000000000000000000000bb8e25b689320a91e83a74bc530996bb2bda2adb0000000000000000000000000000000000000000000000000000000000000284000000000000000000000000000000000000000000000000000000000000001c825cffee093c47af498c71762ea17fb7c420305fb655163187d4bfc129123ac731bd9df6ac7abd84135b2ef379f7243a723db6efba85b48458ae047bd828de3900000000000000000000000000000000000000000000000000011b824ede146d",
            "debugEnable": true,
            "errorInfo": "",
            "eventCount": 2,
            "feeRecipient": "0x464b0b37db1ee1b5fbe27300acfbf172fd5e4f53",
            "formatValue": "0",
            "gasLimit": 410000,
            "gasPrice": "5",
            "gasUsed": 77656,
            "intTxnCount": 2,
            "internalRevert": false,
            "internalRevertMessage": "",
            "isContractCreation": false,
            "isFlashloan": false,
            "maxFee": "",
            "nonce": 1086889,
            "overwritedBlockNumber": -1,
            "priorityFee": "",
            "receiver": "0x2a0c0dbecc7e4d658f48e01e3fa353f44050c208",
            "revertMessage": "",
            "sender": "0xceceaa8edc0830c7cec497e33bb3a3c28dd55a32",
            "simulationEnable": true,
            "sourceTxnHash": "0x5e8dfe38d22b06d3b83bedf89e5ce19804e2ec07e4df2b0d290c144519acff5d",
            "status": true,
            "timestamp": "2018-04-24T03:53:59Z",
            "transactionFee": "0.00038828",
            "txnHash": "0x5e8dfe38d22b06d3b83bedf89e5ce19804e2ec07e4df2b0d290c144519acff5d",
            "txnIndex": 19,
            "type": 0,
            "value": "0"
        },
        "fund_flow": [
            {
                "amount": "208.526982754424219227",
                "from": "0x2a0c0dbecc7e4d658f48e01e3fa353f44050c208",
                "id": 1,
                "isERC1155": false,
                "isERC721": false,
                "isReverted": false,
                "order": 1,
                "to": "0xbb8e25b689320a91e83a74bc530996bb2bda2adb",
                "token": "0xd0352a019e9ab9d757776f532377aaebd36fd541"
            }
        ],
        "token_infos": [
            {
                "address": "0xc02aaa39b223fe8d0a0e5c4f27ead9083c756cc2",
                "decimals": 18
            },
            {
                "address": "0xd0352a019e9ab9d757776f532377aaebd36fd541",
                "decimals": 18
            },
            {
                "address": "0xeeeeeeeeeeeeeeeeeeeeeeeeeeeeeeeeeeeeeeee",
                "decimals": 18
            }
        ]
    },
    "address_label": {
        "labels": [
            {
                "address": "0x0000000000000000000000000000000000000001",
                "label": "Precompiled"
            },
            {
                "address": "0x0000000000000000000000000000000000000002",
                "label": "Precompiled"
            },
            {
                "address": "0x0000000000000000000000000000000000000003",
                "label": "Precompiled"
            },
            {
                "address": "0x0000000000000000000000000000000000000004",
                "label": "Precompiled"
            },
            {
                "address": "0xeeeeeeeeeeeeeeeeeeeeeeeeeeeeeeeeeeeeeeee",
                "label": "Ether"
            },
            {
                "address": "0xd0352a019e9ab9d757776f532377aaebd36fd541",
                "label": "Fusion Token"
            },
            {
                "address": "0x2a0c0dbecc7e4d658f48e01e3fa353f44050c208",
                "label": "IDEX"
            }
        ]
    },
    "trace": {
        "accountLabels": null,
        "dataMap": {
            "-1": {
                "invocation": {
                    "address": "0xceceaa8edc0830c7cec497e33bb3a3c28dd55a32",
                    "callData": "",
                    "decodedMethod": null,
                    "errorInfo": "",
                    "fromAddress": "",
                    "gasUsed": 0,
                    "id": -1,
                    "methodDecoded": false,
                    "operation": "",
                    "output": "",
                    "revert": false,
                    "revertMessage": "",
                    "selector": "",
                    "status": false,
                    "value": ""
                },
                "nodeType": 0
            },
            "0": {
                "invocation": {
                    "address": "0x2a0c0dbecc7e4d658f48e01e3fa353f44050c208",
                    "callData": "0x000000000000000000000000d0352a019e9ab9d757776f532377aaebd36fd54100000000000000000000000000000000000000000000000b4ecbabb4bd36e9d8000000000000000000000000bb8e25b689320a91e83a74bc530996bb2bda2adb0000000000000000000000000000000000000000000000000000000000000284000000000000000000000000000000000000000000000000000000000000001c825cffee093c47af498c71762ea17fb7c420305fb655163187d4bfc129123ac731bd9df6ac7abd84135b2ef379f7243a723db6efba85b48458ae047bd828de3900000000000000000000000000000000000000000000000000011b824ede146d",
                    "decodedMethod": {
                        "callParams": [
                            {
                                "name": "token",
                                "type": "address",
                                "value": "0xd0352a019e9ab9d757776f532377aaebd36fd541"
                            },
                            {
                                "name": "amount",
                                "type": "uint256",
                                "value": "208,592,005,358,792,665,560"
                            },
                            {
                                "name": "user",
                                "type": "address",
                                "value": "0xbb8e25b689320a91e83a74bc530996bb2bda2adb"
                            },
                            {
                                "name": "nonce",
                                "type": "uint256",
                                "value": "644"
                            },
                            {
                                "name": "v",
                                "type": "uint8",
                                "value": "28"
                            },
                            {
                                "name": "r",
                                "type": "bytes32",
                                "value": "0x825cffee093c47af498c71762ea17fb7c420305fb655163187d4bfc129123ac7"
                            },
                            {
                                "name": "s",
                                "type": "bytes32",
                                "value": "0x31bd9df6ac7abd84135b2ef379f7243a723db6efba85b48458ae047bd828de39"
                            },
                            {
                                "name": "feeWithdrawal",
                                "type": "uint256",
                                "value": "311,721,459,586,157"
                            }
                        ],
                        "constructorArguments": "",
                        "name": "adminWithdraw",
                        "returnParams": [
                            {
                                "name": "success",
                                "type": "bool",
                                "value": false
                            }
                        ],
                        "signature": "adminWithdraw(address,uint256,address,uint256,uint8,bytes32,bytes32,uint256)"
                    },
                    "errorInfo": "",
                    "fromAddress": "0xceceaa8edc0830c7cec497e33bb3a3c28dd55a32",
                    "gasUsed": 77656,
                    "id": 0,
                    "methodDecoded": true,
                    "operation": "CALL",
                    "output": "0x0000000000000000000000000000000000000000000000000000000000000000",
                    "revert": false,
                    "revertMessage": "",
                    "selector": "0x2295115b",
                    "status": true,
                    "value": "0"
                },
                "nodeType": 0
            },
            "1": {
                "invocation": {
                    "address": "0x0000000000000000000000000000000000000001",
                    "callData": "0xb4d4a9e2c7e06ffa13e15de93d7494fba2665d26501f399a0b83234f000000000000000000000000000000000000000000000000000000000000001c825cffee093c47af498c71762ea17fb7c420305fb655163187d4bfc129123ac731bd9df6ac7abd84135b2ef379f7243a723db6efba85b48458ae047bd828de39",
                    "decodedMethod": {
                        "callParams": [
                            {
                                "name": "hash",
                                "type": "bytes32",
                                "value": "0xb586fccdb4d4a9e2c7e06ffa13e15de93d7494fba2665d26501f399a0b83234f"
                            },
                            {
                                "name": "v",
                                "type": "uint256",
                                "value": "28"
                            },
                            {
                                "name": "r",
                                "type": "bytes32",
                                "value": "0x825cffee093c47af498c71762ea17fb7c420305fb655163187d4bfc129123ac7"
                            },
                            {
                                "name": "s",
                                "type": "bytes32",
                                "value": "0x31bd9df6ac7abd84135b2ef379f7243a723db6efba85b48458ae047bd828de39"
                            }
                        ],
                        "constructorArguments": "",
                        "name": "ecrecover",
                        "returnParams": [
                            {
                                "name": "",
                                "type": "address",
                                "value": "0xbb8e25b689320a91e83a74bc530996bb2bda2adb"
                            }
                        ],
                        "signature": "ecrecover(bytes32,uint256,bytes32,bytes32)"
                    },
                    "errorInfo": "",
                    "fromAddress": "0x2a0c0dbecc7e4d658f48e01e3fa353f44050c208",
                    "gasUsed": 3000,
                    "id": 1,
                    "methodDecoded": true,
                    "operation": "CALL",
                    "output": "0x000000000000000000000000bb8e25b689320a91e83a74bc530996bb2bda2adb",
                    "revert": false,
                    "revertMessage": "",
                    "selector": "0xb586fccd",
                    "status": true,
                    "value": "0"
                },
                "nodeType": 0
            },
            "2": {
                "invocation": {
                    "address": "0xd0352a019e9ab9d757776f532377aaebd36fd541",
                    "callData": "0x000000000000000000000000bb8e25b689320a91e83a74bc530996bb2bda2adb00000000000000000000000000000000000000000000000b4de4a9fde976665b",
                    "decodedMethod": {
                        "callParams": [
                            {
                                "name": "_to",
                                "type": "address",
                                "value": "0xbb8e25b689320a91e83a74bc530996bb2bda2adb"
                            },
                            {
                                "decimalAvailable": true,
                                "name": "_value",
                                "type": "uint256",
                                "value": "208,526,982,754,424,219,227"
                            }
                        ],
                        "constructorArguments": "",
                        "name": "transfer",
                        "returnParams": [
                            {
                                "name": "",
                                "type": "bool",
                                "value": true
                            }
                        ],
                        "signature": "transfer(address,uint256)"
                    },
                    "errorInfo": "",
                    "fromAddress": "0x2a0c0dbecc7e4d658f48e01e3fa353f44050c208",
                    "gasUsed": 14051,
                    "id": 2,
                    "methodDecoded": true,
                    "operation": "CALL",
                    "output": "0x0000000000000000000000000000000000000000000000000000000000000001",
                    "revert": false,
                    "revertMessage": "",
                    "selector": "0xa9059cbb",
                    "status": true,
                    "value": "0"
                },
                "nodeType": 0
            },
            "3": {
                "event": {
                    "contract": "0xd0352a019e9ab9d757776f532377aaebd36fd541",
                    "decodedLog": {
                        "name": "Transfer",
                        "params": [
                            {
                                "name": "from",
                                "type": "address",
                                "value": "0x2a0c0dbecc7e4d658f48e01e3fa353f44050c208"
                            },
                            {
                                "name": "to",
                                "type": "address",
                                "value": "0xbb8e25b689320a91e83a74bc530996bb2bda2adb"
                            },
                            {
                                "decimalAvailable": true,
                                "name": "value",
                                "type": "uint256",
                                "value": "208,526,982,754,424,219,227"
                            }
                        ],
                        "signature": "Transfer(address,address,uint256)"
                    },
                    "id": 3,
                    "logData": "0x00000000000000000000000000000000000000000000000b4de4a9fde976665b",
                    "logDecoded": true,
                    "operation": "EVENT",
                    "revert": false,
                    "status": true,
                    "topics": [
                        "0xddf252ad1be2c89b69c2b068fc378daa952ba7f163c4a11628f55a4df523b3ef",
                        "0x0000000000000000000000002a0c0dbecc7e4d658f48e01e3fa353f44050c208",
                        "0x000000000000000000000000bb8e25b689320a91e83a74bc530996bb2bda2adb"
                    ]
                },
                "nodeType": 1
            },
            "4": {
                "event": {
                    "contract": "0x2a0c0dbecc7e4d658f48e01e3fa353f44050c208",
                    "decodedLog": {
                        "name": "Withdraw",
                        "params": [
                            {
                                "name": "token",
                                "type": "address",
                                "value": "0xd0352a019e9ab9d757776f532377aaebd36fd541"
                            },
                            {
                                "name": "user",
                                "type": "address",
                                "value": "0xbb8e25b689320a91e83a74bc530996bb2bda2adb"
                            },
                            {
                                "name": "amount",
                                "type": "uint256",
                                "value": "208,526,982,754,424,219,227"
                            },
                            {
                                "name": "balance",
                                "type": "uint256",
                                "value": "0"
                            }
                        ],
                        "signature": "Withdraw(address,address,uint256,uint256)"
                    },
                    "id": 4,
                    "logData": "0x000000000000000000000000d0352a019e9ab9d757776f532377aaebd36fd541000000000000000000000000bb8e25b689320a91e83a74bc530996bb2bda2adb00000000000000000000000000000000000000000000000b4de4a9fde976665b0000000000000000000000000000000000000000000000000000000000000000",
                    "logDecoded": true,
                    "operation": "EVENT",
                    "revert": false,
                    "status": true,
                    "topics": [
                        "0xf341246adaac6f497bc2a656f546ab9e182111d630394f0c57c710a59a2cb567"
                    ]
                },
                "nodeType": 1
            }
        },
        "gasFlame": [
            {
                "children": [
                    {
                        "children": [
                            {
                                "children": [],
                                "depth": 0,
                                "name": "Initial Gas",
                                "value": 30168
                            },
                            {
                                "children": [
                                    {
                                        "children": [],
                                        "depth": 1,
                                        "name": "ecrecover",
                                        "value": 3000
                                    },
                                    {
                                        "children": [],
                                        "depth": 1,
                                        "name": "transfer",
                                        "value": 14051
                                    }
                                ],
                                "depth": 0,
                                "name": "Executed Gas",
                                "value": 62488
                            }
                        ],
                        "depth": -1,
                        "name": "Actual Gas Used",
                        "value": 77656
                    },
                    {
                        "children": [],
                        "depth": -1,
                        "name": "Refunded Gas",
                        "value": 15000
                    }
                ],
                "depth": -2,
                "name": "Total Gas",
                "value": 92656
            }
        ],
        "isConfirmed": true,
        "mainTrace": [
            {
                "children": [
                    {
                        "children": [
                            {
                                "children": [],
                                "depth": 1,
                                "id": 1,
                                "order": 1
                            },
                            {
                                "children": [
                                    {
                                        "children": [],
                                        "depth": 2,
                                        "id": 3,
                                        "order": 3
                                    }
                                ],
                                "depth": 1,
                                "id": 2,
                                "order": 2
                            },
                            {
                                "children": [],
                                "depth": 1,
                                "id": 4,
                                "order": 4
                            }
                        ],
                        "depth": 0,
                        "id": 0,
                        "order": 0
                    }
                ],
                "depth": -1,
                "id": -1,
                "order": -1
            }
        ],
        "mainTraceNodeCount": 5,
        "parentIdMap": {
            "0": -1,
            "1": 0,
            "2": 0,
            "3": 2,
            "4": 0
        },
        "tidyTrace": [
            {
                "children": [
                    {
                        "children": [
                            {
                                "children": [],
                                "depth": 1,
                                "id": 1,
                                "order": 1
                            },
                            {
                                "children": [
                                    {
                                        "children": [],
                                        "depth": 2,
                                        "id": 3,
                                        "order": 3
                                    }
                                ],
                                "depth": 1,
                                "id": 2,
                                "order": 2
                            },
                            {
                                "children": [],
                                "depth": 1,
                                "id": 4,
                                "order": 4
                            }
                        ],
                        "depth": 0,
                        "id": 0,
                        "order": 0
                    }
                ],
                "depth": -1,
                "id": -1,
                "order": -1
            }
        ],
        "tidyTraceNodeCount": 5
    },
    "state_change": {
        "stateChanges": [
            {
                "address": "0x2a0c0dbecc7e4d658f48e01e3fa353f44050c208",
                "erc": "",
                "slots": [
                    {
                        "current": "0x0000000000000000000000000000000000000000000000000000000000000001",
                        "key": "0xf444746c5e26c5cca8dd154727e422e44da829ae3077a18eb795f6c86ea5f642",
                        "prev": "0x0000000000000000000000000000000000000000000000000000000000000000"
                    },
                    {
                        "current": "0x0000000000000000000000000000000000000000000000000000000000000000",
                        "key": "0xcf1daf4ed5a14498de25ff99cb512873af19b75f4fa343b526aa000ea3977fa2",
                        "prev": "0x00000000000000000000000000000000000000000000000b4ecbabb4bd36e9d8"
                    },
                    {
                        "current": "0x00000000000000000000000000000000000000000000000064f3d75938ec9dff",
                        "key": "0x3692aa2fbbe726b9e313d2ff3c44f0a5731d99116aebc2be7b63ed9572b89506",
                        "prev": "0x000000000000000000000000000000000000000000000000640cd5a2652c1a83"
                    },
                    {
                        "current": "0x000000000000000000000000000000000000000000000000000000000053da7a",
                        "key": "0x10fbe19b638ae465a91b8317bdf72d34afb8805cdcc38d24b38908b18abcbd29",
                        "prev": "0x000000000000000000000000000000000000000000000000000000000053da5f"
                    }
                ],
                "storageVariables": [
                    {
                        "name": "tokens",
                        "type": "mapping(address => mapping(address => uint256))",
                        "value": {
                            "pairs": [
                                {
                                    "key": "0xd0352a019e9ab9d757776f532377aaebd36fd541",
                                    "value": {
                                        "pairs": [
                                            {
                                                "key": "0x034767f3c519f361c5ecf46ebfc08981c629d381",
                                                "value": {
                                                    "current": "7274394601340575231",
                                                    "prev": "7209371996972128899",
                                                    "typeTag": 1
                                                }
                                            },
                                            {
                                                "key": "0xbb8e25b689320a91e83a74bc530996bb2bda2adb",
                                                "value": {
                                                    "current": "0",
                                                    "prev": "208592005358792665560",
                                                    "typeTag": 1
                                                }
                                            }
                                        ],
                                        "typeTag": 4
                                    }
                                }
                            ],
                            "typeTag": 4
                        }
                    },
                    {
                        "name": "lastActiveTransaction",
                        "type": "mapping(address => uint256)",
                        "value": {
                            "pairs": [
                                {
                                    "key": "0xbb8e25b689320a91e83a74bc530996bb2bda2adb",
                                    "value": {
                                        "current": "5495418",
                                        "prev": "5495391",
                                        "typeTag": 1
                                    }
                                }
                            ],
                            "typeTag": 4
                        }
                    },
                    {
                        "name": "withdrawn",
                        "type": "mapping(bytes32 => bool)",
                        "value": {
                            "pairs": [
                                {
                                    "key": "0x642583a0089216de60e726af872d14fa824704432c0dcaa21b8d4ca1e74ee621",
                                    "value": {
                                        "current": "true",
                                        "prev": "false",
                                        "typeTag": 1
                                    }
                                }
                            ],
                            "typeTag": 4
                        }
                    }
                ]
            },
            {
                "address": "0xd0352a019e9ab9d757776f532377aaebd36fd541",
                "erc": "ERC-20",
                "slots": [
                    {
                        "current": "0x00000000000000000000000000000000000000000000001951a764dcb7022c41",
                        "key": "0x52866ace90e4a98911a9e2174b60e0c6baa7c9006bdaf59bfbbf4da824fa3140",
                        "prev": "0x00000000000000000000000000000000000000000000000e03c2badecd8bc5e6"
                    },
                    {
                        "current": "0x000000000000000000000000000000000000000000003454276f826fed682423",
                        "key": "0xf1422a95130756a1ec090bcbf2c53d7e9ed83b89b668d3788cf61dc65d32590b",
                        "prev": "0x00000000000000000000000000000000000000000000345f75542c6dd6de8a7e"
                    }
                ],
                "storageVariables": [
                    {
                        "name": "balances",
                        "type": "mapping(address => uint256)",
                        "value": {
                            "pairs": [
                                {
                                    "key": "0x2a0c0dbecc7e4d658f48e01e3fa353f44050c208",
                                    "value": {
                                        "current": "247115425244720283526179",
                                        "prev": "247323952227474707745406",
                                        "typeTag": 1
                                    }
                                },
                                {
                                    "key": "0xbb8e25b689320a91e83a74bc530996bb2bda2adb",
                                    "value": {
                                        "current": "467052384180047588417",
                                        "prev": "258525401425623369190",
                                        "typeTag": 1
                                    }
                                }
                            ],
                            "typeTag": 4
                        }
                    }
                ]
            }
        ]
    }
}