{
    "balance_change": {
        "balanceChanges": [
            {
                "account": "0xc5a38b5a08c2d60a87942a7540983d0e03c2f26c",
                "assets": [
                    {
                        "address": "0x0bcc5683d7704b9c50aad6759c55f9aecbfe8878",
                        "amount": "4,327.62",
                        "iconUrl": "",
                        "isERC1155": false,
                        "isERC721": false,
                        "sign": false,
                        "value": ""
                    }
                ]
            },
            {
                "account": "0xb0d07071fd282bd52f92682e376bf383a681bfee",
                "assets": [
                    {
                        "address": "0x0bcc5683d7704b9c50aad6759c55f9aecbfe8878",
                        "amount": "4,327.62",
                        "iconUrl": "",
                        "isERC1155": false,
                        "isERC721": false,
                        "sign": true,
                        "value": ""
                    }
                ]
            }
        ]
    },
    "profile": {
        "basic_info": {
            "baseFee": "",
            "blockNumber": 9948923,
            "callData": "0xa9059cbb000000000000000000000000b0d07071fd282bd52f92682e376bf383a681bfee0000000000000000000000000000000000000000000000ea99cac5495bfa0000",
            "debugEnable": true,
            "errorInfo": "",
            "eventCount": 1,
            "feeRecipient": "0x52bc44d5378309ee2abf1539bf71de1b7d7be3b5",
            "formatValue": "0",
            "gasLimit": 52185,
            "gasPrice": "16.5",
            "gasUsed": 36185,
            "intTxnCount": 0,
            "internalRevert": false,
            "internalRevertMessage": "",
            "isContractCreation": false,
            "isFlashloan": false,
            "maxFee": "",
            "nonce": 103,
            "overwritedBlockNumber": -1,
            "priorityFee": "",
            "receiver": "0x0bcc5683d7704b9c50aad6759c55f9aecbfe8878",
            "revertMessage": "",
            "sender": "0xc5a38b5a08c2d60a87942a7540983d0e03c2f26c",
            "simulationEnable": true,
            "sourceTxnHash": "0x5ee42e307863c11a91ee772ee6621f3be39d5accec8b5a59d75db1955c971655",
            "status": true,
            "timestamp": "2020-04-26T15:31:35Z",
            "transactionFee": "0.0005970525",
            "txnHash": "0x5ee42e307863c11a91ee772ee6621f3be39d5accec8b5a59d75db1955c971655",
            "txnIndex": 149,
            "type": 0,
            "value": "0"
        },
        "fund_flow": [
            {
                "amount": "4,327.62",
                "from": "0xc5a38b5a08c2d60a87942a7540983d0e03c2f26c",
                "id": 1,
                "isERC1155": false,
                "isERC721": false,
                "isReverted": false,
                "order": 1,
                "to": "0xb0d07071fd282bd52f92682e376bf383a681bfee",
                "token": "0x0bcc5683d7704b9c50aad6759c55f9aecbfe8878"
            }
        ],
        "token_infos": [
            {
                "address": "0x0bcc5683d7704b9c50aad6759c55f9aecbfe8878",
                "decimals": 18
            },
            {
                "address": "0xc02aaa39b223fe8d0a0e5c4f27ead9083c756cc2",
                "decimals": 18
            },
            {
                "address": "0xeeeeeeeeeeeeeeeeeeeeeeeeeeeeeeeeeeeeeeee",
                "decimals": 18
            }
        ]
    },
    "address_label": {
        "labels": [
            {
                "address": "0x0000000000000000000000000000000000000003",
                "label": "Precompiled"
            },
            {
                "address": "0x0000000000000000000000000000000000000004",
                "label": "Precompiled"
            },
            {
                "address": "0xeeeeeeeeeeeeeeeeeeeeeeeeeeeeeeeeeeeeeeee",
                "label": "Ether"
            },
            {
                "address": "0x0bcc5683d7704b9c50aad6759c55f9aecbfe8878",
                "label": "QP"
            },
            {
                "address": "0x0000000000000000000000000000000000000001",
                "label": "Precompiled"
            },
            {
                "address": "0x0000000000000000000000000000000000000002",
                "label": "Precompiled"
            }
        ]
    },
    "trace": {
        "accountLabels": null,
        "dataMap": {
            "-1": {
                "invocation": {
                    "address": "0xc5a38b5a08c2d60a87942a7540983d0e03c2f26c",
                    "callData": "",
                    "decodedMethod": null,
                    "errorInfo": "",
                    "fromAddress": "",
                    "gasUsed": 0,
                    "id": -1,
                    "methodDecoded": false,
                    "operation": "",
                    "output": "",
                    "revert": false,
                    "revertMessage": "",
                    "selector": "",
                    "status": false,
                    "value": ""
                },
                "nodeType": 0
            },
            "0": {
                "invocation": {
                    "address": "0x0bcc5683d7704b9c50aad6759c55f9aecbfe8878",
                    "callData": "0x000000000000000000000000b0d07071fd282bd52f92682e376bf383a681bfee0000000000000000000000000000000000000000000000ea99cac5495bfa0000",
                    "decodedMethod": {
                        "callParams": [
                            {
                                "name": "_to",
                                "type": "address",
                                "value": "0xb0d07071fd282bd52f92682e376bf383a681bfee"
                            },
                            {
                                "decimalAvailable": true,
                                "name": "_value",
                                "type": "uint256",
                                "value": "4,327,620,000,000,000,000,000"
                            }
                        ],
                        "constructorArguments": "",
                        "name": "transfer",
                        "returnParams": [
                            {
                                "name": "",
                                "type": "bool",
                                "value": true
                            }
                        ],
                        "signature": "transfer(address,uint256)"
                    },
                    "errorInfo": "",
                    "fromAddress": "0xc5a38b5a08c2d60a87942a7540983d0e03c2f26c",
                    "gasUsed": 36185,
                    "id": 0,
                    "methodDecoded": true,
                    "operation": "CALL",
                    "output": "0x0000000000000000000000000000000000000000000000000000000000000001",
                    "revert": false,
                    "revertMessage": "",
                    "selector": "0xa9059cbb",
                    "status": true,
                    "value": "0"
                },
                "nodeType": 0
            },
            "1": {
                "event": {
                    "contract": "0x0bcc5683d7704b9c50aad6759c55f9aecbfe8878",
                    "decodedLog": {
                        "name": "Transfer",
                        "params": [
                            {
                                "name": "from",
                                "type": "address",
                                "value": "0xc5a38b5a08c2d60a87942a7540983d0e03c2f26c"
                            },
                            {
                                "name": "to",
                                "type": "address",
                                "value": "0xb0d07071fd282bd52f92682e376bf383a681bfee"
                            },
                            {
                                "decimalAvailable": true,
                                "name": "value",
                                "type": "uint256",
                                "value": "4,327,620,000,000,000,000,000"
                            }
                        ],
                        "signature": "Transfer(address,address,uint256)"
                    },
                    "id": 1,
                    "logData": "0x0000000000000000000000000000000000000000000000ea99cac5495bfa0000",
                    "logDecoded": true,
                    "operation": "EVENT",
                    "revert": false,
                    "status": true,
                    "topics": [
                        "0xddf252ad1be2c89b69c2b068fc378daa952ba7f163c4a11628f55a4df523b3ef",
                        "0x000000000000000000000000c5a38b5a08c2d60a87942a7540983d0e03c2f26c",
                        "0x000000000000000000000000b0d07071fd282bd52f92682e376bf383a681bfee"
                    ]
                },
                "nodeType": 1
            }
        },
        "gasFlame": [
            {
                "children": [
                    {
                        "children": [
                            {
                                "children": [],
                                "depth": 0,
                                "name": "Initial Gas",
                                "value": 21644
                            },
                            {
                                "children": [],
                                "depth": 0,
                                "name": "Executed Gas",
                                "value": 14541
                            }
                        ],
                        "depth": -1,
                        "name": "Actual Gas Used",
                        "value": 36185
                    },
                    {
                        "children": [],
                        "depth": -1,
                        "name": "Refunded Gas",
                        "value": 0
                    }
                ],
                "depth": -2,
                "name": "Total Gas",
                "value": 36185
            }
        ],
        "isConfirmed": true,
        "mainTrace": [
            {
                "children": [
                    {
                        "children": [
                            {
                                "children": [],
                                "depth": 1,
                                "id": 1,
                                "order": 1
                            }
                        ],
                        "depth": 0,
                        "id": 0,
                        "order": 0
                    }
                ],
                "depth": -1,
                "id": -1,
                "order": -1
            }
        ],
        "mainTraceNodeCount": 2,
        "parentIdMap": {
            "0": -1,
            "1": 0
        },
        "tidyTrace": [
            {
                "children": [
                    {
                        "children": [
                            {
                                "children": [],
                                "depth": 1,
                                "id": 1,
                                "order": 1
                            }
                        ],
                        "depth": 0,
                        "id": 0,
                        "order": 0
                    }
                ],
                "depth": -1,
                "id": -1,
                "order": -1
            }
        ],
        "tidyTraceNodeCount": 2
    },
    "state_change": {
        "stateChanges": [
            {
                "address": "0x0bcc5683d7704b9c50aad6759c55f9aecbfe8878",
                "erc": "ERC-20",
                "slots": [
                    {
                        "current": "0x000000000000000000000000000000000000000000000088189a45a4596d0000",
                        "key": "0x47084f05f00fe9f807ab4eeba67bb0d85604c591eb4d9bb9b45bce24436cc49a",
                        "prev": "0x000000000000000000000000000000000000000000000172b2650aedb5670000"
                    },
                    {
                        "current": "0x00000000000000000000000000000000000000000000016babb1d2a1bb060000",
                        "key": "0x7dc8b4445fb5510723975c5a97b36a2154c7687dfd2b76c369c773922634a5fb",
                        "prev": "0x00000000000000000000000000000000000000000000008111e70d585f0c0000"
                    }
                ],
                "storageVariables": [
                    {
                        "name": "balances",
                        "type": "mapping(address => uint256)",
                        "value": {
                            "pairs": [
                                {
                                    "key": "0xb0d07071fd282bd52f92682e376bf383a681bfee",
                                    "value": {
                                        "current": "6708540000000000000000",
                                        "prev": "2380920000000000000000",
                                        "typeTag": 1
                                    }
                                },
                                {
                                    "key": "0xc5a38b5a08c2d60a87942a7540983d0e03c2f26c",
                                    "value": {
                                        "current": "2510530000000000000000",
                                        "prev": "6838150000000000000000",
                                        "typeTag": 1
                                    }
                                }
                            ],
                            "typeTag": 4
                        }
                    }
                ]
            }
        ]
    }
}