{
    "balance_change": {
        "balanceChanges": [
            {
                "account": "0x6e785f2fdbdc899f8f08cc1517f82a585b44f9c5",
                "assets": [
                    {
                        "address": "0xeeeeeeeeeeeeeeeeeeeeeeeeeeeeeeeeeeeeeeee",
                        "amount": "0.25",
                        "iconUrl": "https://assets.blocksec.com/image/1663669189317-3.png",
                        "isERC1155": false,
                        "isERC721": false,
                        "sign": true,
                        "value": "563.17250000000001364"
                    }
                ]
            },
            {
                "account": "0xbbc6018b7c407fb7ee8821e7b78ce3d5af59836a",
                "assets": [
                    {
                        "address": "0xeeeeeeeeeeeeeeeeeeeeeeeeeeeeeeeeeeeeeeee",
                        "amount": "0.25",
                        "iconUrl": "https://assets.blocksec.com/image/1663669189317-3.png",
                        "isERC1155": false,
                        "isERC721": false,
                        "sign": false,
                        "value": "563.17250000000001364"
                    }
                ]
            }
        ]
    },
    "profile": {
        "basic_info": {
            "baseFee": "78.886036604",
            "blockNumber": 18721252,
            "callData": "0x6e1626040000000000000000000000000000000000000000000000000000000000000020000000000000000000000000000000000000000000000000000000000000000d736775169c9d2490efd6a990e4bac2c59c1c07576338d812ad5fb263a3c8d94d8c9d1694a1010abf2717cc61aa7d335e6817703ff69cc904a78a9ef58e9767e5a4156f21bdb8eecdfbcc0caf44c07b64b6360308112d188fdb5ddd4b49de973a217d9631fe3bdcc249aa3a67061a85799028231a41f8be484d5fc813ad42f1fb648a9970c32162201cd93d4dc4a065b31bf2e6a35229751495e6eee99506b2b609611b57999621c10c186a324cf33f0651d9ae89142dd6813800950cc630043a2ba89360c196434d6a7c25304431ed6e67cb09d01180f20e60b91ed1f14b084ec3a5d863301852638e6f5213307c3eb949d30d6266c1145a77dc6ae376f564783bece17add845dba28d018ccdae5529dc546dc6e48a6091811dd51d0893832509a441574866967a3811f618a0545e5b8697e97e4c0d9cd8538cbd4f28368e3f045782ea1f3b3f3856b1c6ebfae8cdccf425147008c3372380f8d3931dcbae269a04e460f264c9e39f76aea6ee7263b7141087fb5d6f7c4669501ef03459bbec724fb3f81ca6670ed4898e4b65ae497c9a02db279700dcd32210d372b5bb352f6",
            "debugEnable": true,
            "errorInfo": "",
            "eventCount": 1,
            "feeRecipient": "0x95222290dd7278aa3ddd389cc1e1d165cc4bafe5",
            "formatValue": "0",
            "gasLimit": 114100,
            "gasPrice": "80",
            "gasUsed": 73856,
            "intTxnCount": 2,
            "internalRevert": false,
            "internalRevertMessage": "",
            "isContractCreation": false,
            "isFlashloan": false,
            "maxFee": "",
            "nonce": 1583,
            "overwritedBlockNumber": -1,
            "priorityFee": "",
            "receiver": "0xbbc6018b7c407fb7ee8821e7b78ce3d5af59836a",
            "revertMessage": "",
            "sender": "0x6e785f2fdbdc899f8f08cc1517f82a585b44f9c5",
            "simulationEnable": true,
            "sourceTxnHash": "0x5e2416e02a94879f9e7daac6cb37b347d2f042a0949b85e9a113ec2612a67a75",
            "status": true,
            "timestamp": "2023-12-05T16:11:47Z",
            "transactionFee": "0.00590848",
            "txnHash": "0x5e2416e02a94879f9e7daac6cb37b347d2f042a0949b85e9a113ec2612a67a75",
            "txnIndex": 53,
            "type": 0,
            "value": "0"
        },
        "fund_flow": [
            {
                "amount": "0.25",
                "from": "0xbbc6018b7c407fb7ee8821e7b78ce3d5af59836a",
                "id": 1,
                "isERC1155": false,
                "isERC721": false,
                "isReverted": false,
                "order": 1,
                "to": "0x6e785f2fdbdc899f8f08cc1517f82a585b44f9c5",
                "token": "0xeeeeeeeeeeeeeeeeeeeeeeeeeeeeeeeeeeeeeeee"
            }
        ],
        "token_infos": [
            {
                "address": "0xc02aaa39b223fe8d0a0e5c4f27ead9083c756cc2",
                "decimals": 18
            },
            {
                "address": "0xeeeeeeeeeeeeeeeeeeeeeeeeeeeeeeeeeeeeeeee",
                "decimals": 18
            }
        ]
    },
    "address_label": {
        "labels": [
            {
                "address": "0x0000000000000000000000000000000000000004",
                "label": "Precompiled"
            },
            {
                "address": "0xeeeeeeeeeeeeeeeeeeeeeeeeeeeeeeeeeeeeeeee",
                "label": "Ether"
            },
            {
                "address": "0x9dbd0ffd43a3d440cec5eb76c3dc02b9eea56912",
                "label": "GrapePreSale"
            },
            {
                "address": "0xbbc6018b7c407fb7ee8821e7b78ce3d5af59836a",
                "label": "GrapePreSaleRefund"
            },
            {
                "address": "0x0000000000000000000000000000000000000001",
                "label": "Precompiled"
            },
            {
                "address": "0x0000000000000000000000000000000000000002",
                "label": "Precompiled"
            },
            {
                "address": "0x0000000000000000000000000000000000000003",
                "label": "Precompiled"
            }
        ]
    },
    "trace": {
        "accountLabels": null,
        "dataMap": {
            "-1": {
                "invocation": {
                    "address": "0x6e785f2fdbdc899f8f08cc1517f82a585b44f9c5",
                    "callData": "",
                    "decodedMethod": null,
                    "errorInfo": "",
                    "fromAddress": "",
                    "gasUsed": 0,
                    "id": -1,
                    "methodDecoded": false,
                    "operation": "",
                    "output": "",
                    "revert": false,
                    "revertMessage": "",
                    "selector": "",
                    "status": false,
                    "value": ""
                },
                "nodeType": 0
            },
            "0": {
                "invocation": {
                    "address": "0xbbc6018b7c407fb7ee8821e7b78ce3d5af59836a",
                    "callData": "0x0000000000000000000000000000000000000000000000000000000000000020000000000000000000000000000000000000000000000000000000000000000d736775169c9d2490efd6a990e4bac2c59c1c07576338d812ad5fb263a3c8d94d8c9d1694a1010abf2717cc61aa7d335e6817703ff69cc904a78a9ef58e9767e5a4156f21bdb8eecdfbcc0caf44c07b64b6360308112d188fdb5ddd4b49de973a217d9631fe3bdcc249aa3a67061a85799028231a41f8be484d5fc813ad42f1fb648a9970c32162201cd93d4dc4a065b31bf2e6a35229751495e6eee99506b2b609611b57999621c10c186a324cf33f0651d9ae89142dd6813800950cc630043a2ba89360c196434d6a7c25304431ed6e67cb09d01180f20e60b91ed1f14b084ec3a5d863301852638e6f5213307c3eb949d30d6266c1145a77dc6ae376f564783bece17add845dba28d018ccdae5529dc546dc6e48a6091811dd51d0893832509a441574866967a3811f618a0545e5b8697e97e4c0d9cd8538cbd4f28368e3f045782ea1f3b3f3856b1c6ebfae8cdccf425147008c3372380f8d3931dcbae269a04e460f264c9e39f76aea6ee7263b7141087fb5d6f7c4669501ef03459bbec724fb3f81ca6670ed4898e4b65ae497c9a02db279700dcd32210d372b5bb352f6",
                    "decodedMethod": {
                        "callParams": [
                            {
                                "name": "merkleProof_",
                                "type": "bytes32[]",
                                "value": [
                                    "0x736775169c9d2490efd6a990e4bac2c59c1c07576338d812ad5fb263a3c8d94d",
                                    "0x8c9d1694a1010abf2717cc61aa7d335e6817703ff69cc904a78a9ef58e9767e5",
                                    "0xa4156f21bdb8eecdfbcc0caf44c07b64b6360308112d188fdb5ddd4b49de973a",
                                    "0x217d9631fe3bdcc249aa3a67061a85799028231a41f8be484d5fc813ad42f1fb",
                                    "0x648a9970c32162201cd93d4dc4a065b31bf2e6a35229751495e6eee99506b2b6",
                                    "0x09611b57999621c10c186a324cf33f0651d9ae89142dd6813800950cc630043a",
                                    "0x2ba89360c196434d6a7c25304431ed6e67cb09d01180f20e60b91ed1f14b084e",
                                    "0xc3a5d863301852638e6f5213307c3eb949d30d6266c1145a77dc6ae376f56478",
                                    "0x3bece17add845dba28d018ccdae5529dc546dc6e48a6091811dd51d089383250",
                                    "0x9a441574866967a3811f618a0545e5b8697e97e4c0d9cd8538cbd4f28368e3f0",
                                    "0x45782ea1f3b3f3856b1c6ebfae8cdccf425147008c3372380f8d3931dcbae269",
                                    "0xa04e460f264c9e39f76aea6ee7263b7141087fb5d6f7c4669501ef03459bbec7",
                                    "0x24fb3f81ca6670ed4898e4b65ae497c9a02db279700dcd32210d372b5bb352f6"
                                ]
                            }
                        ],
                        "constructorArguments": "",
                        "name": "claimRefund",
                        "returnParams": [],
                        "signature": "claimRefund(bytes32[])"
                    },
                    "errorInfo": "",
                    "fromAddress": "0x6e785f2fdbdc899f8f08cc1517f82a585b44f9c5",
                    "gasUsed": 73856,
                    "id": 0,
                    "methodDecoded": true,
                    "operation": "CALL",
                    "output": "",
                    "revert": false,
                    "revertMessage": "",
                    "selector": "0x6e162604",
                    "status": true,
                    "value": "0"
                },
                "nodeType": 0
            },
            "1": {
                "invocation": {
                    "address": "0x9dbd0ffd43a3d440cec5eb76c3dc02b9eea56912",
                    "callData": "0x0000000000000000000000006e785f2fdbdc899f8f08cc1517f82a585b44f9c5",
                    "decodedMethod": {
                        "callParams": [
                            {
                                "name": "buyer",
                                "type": "address",
                                "value": "0x6e785f2fdbdc899f8f08cc1517f82a585b44f9c5"
                            }
                        ],
                        "constructorArguments": "",
                        "name": "referralPurchases",
                        "returnParams": [
                            {
                                "name": "amount",
                                "type": "uint256",
                                "value": "250,000,000,000,000,000"
                            }
                        ],
                        "signature": "referralPurchases(address)"
                    },
                    "errorInfo": "",
                    "fromAddress": "0xbbc6018b7c407fb7ee8821e7b78ce3d5af59836a",
                    "gasUsed": 2569,
                    "id": 1,
                    "methodDecoded": true,
                    "operation": "STATICCALL",
                    "output": "0x00000000000000000000000000000000000000000000000003782dace9d90000",
                    "revert": false,
                    "revertMessage": "",
                    "selector": "0xaac693c3",
                    "status": true,
                    "value": "0"
                },
                "nodeType": 0
            },
            "2": {
                "event": {
                    "contract": "0xbbc6018b7c407fb7ee8821e7b78ce3d5af59836a",
                    "decodedLog": {
                        "name": "RefundClaimed",
                        "params": [
                            {
                                "name": "wallet",
                                "type": "address",
                                "value": "0x6e785f2fdbdc899f8f08cc1517f82a585b44f9c5"
                            },
                            {
                                "name": "amount",
                                "type": "uint256",
                                "value": "250,000,000,000,000,000"
                            }
                        ],
                        "signature": "RefundClaimed(address,uint256)"
                    },
                    "id": 2,
                    "logData": "0x00000000000000000000000000000000000000000000000003782dace9d90000",
                    "logDecoded": true,
                    "operation": "EVENT",
                    "revert": false,
                    "status": true,
                    "topics": [
                        "0x358fe4192934d3bf28ae181feda1f4bd08ca67f5e2fad55582cce5eb67304ae9",
                        "0x0000000000000000000000006e785f2fdbdc899f8f08cc1517f82a585b44f9c5"
                    ]
                },
                "nodeType": 1
            },
            "3": {
                "invocation": {
                    "address": "0x6e785f2fdbdc899f8f08cc1517f82a585b44f9c5",
                    "callData": "0x",
                    "decodedMethod": null,
                    "errorInfo": "",
                    "fromAddress": "0xbbc6018b7c407fb7ee8821e7b78ce3d5af59836a",
                    "gasUsed": 0,
                    "id": 3,
                    "methodDecoded": false,
                    "operation": "CALL",
                    "output": "",
                    "revert": false,
                    "revertMessage": "",
                    "selector": "fallback",
                    "status": true,
                    "value": "0.25"
                },
                "nodeType": 0
            }
        },
        "gasFlame": [
            {
                "children": [
                    {
                        "children": [
                            {
                                "children": [],
                                "depth": 0,
                                "name": "Initial Gas",
                                "value": 27976
                            },
                            {
                                "children": [
                                    {
                                        "children": [],
                                        "depth": 1,
                                        "name": "referralPurchases",
                                        "value": 2569
                                    },
                                    {
                                        "children": [],
                                        "depth": 1,
                                        "name": "fallback",
                                        "value": 0
                                    }
                                ],
                                "depth": 0,
                                "name": "Executed Gas",
                                "value": 45880
                            }
                        ],
                        "depth": -1,
                        "name": "Actual Gas Used",
                        "value": 73856
                    },
                    {
                        "children": [],
                        "depth": -1,
                        "name": "Refunded Gas",
                        "value": 0
                    }
                ],
                "depth": -2,
                "name": "Total Gas",
                "value": 73856
            }
        ],
        "isConfirmed": true,
        "mainTrace": [
            {
                "children": [
                    {
                        "children": [
                            {
                                "children": [],
                                "depth": 1,
                                "id": 1,
                                "order": 1
                            },
                            {
                                "children": [],
                                "depth": 1,
                                "id": 2,
                                "order": 2
                            },
                            {
                                "children": [],
                                "depth": 1,
                                "id": 3,
                                "order": 3
                            }
                        ],
                        "depth": 0,
                        "id": 0,
                        "order": 0
                    }
                ],
                "depth": -1,
                "id": -1,
                "order": -1
            }
        ],
        "mainTraceNodeCount": 4,
        "parentIdMap": {
            "0": -1,
            "1": 0,
            "2": 0,
            "3": 0
        },
        "tidyTrace": [
            {
                "children": [
                    {
                        "children": [
                            {
                                "children": [],
                                "depth": 1,
                                "id": 2,
                                "order": 2
                            },
                            {
                                "children": [],
                                "depth": 1,
                                "id": 3,
                                "order": 3
                            }
                        ],
                        "depth": 0,
                        "id": 0,
                        "order": 0
                    }
                ],
                "depth": -1,
                "id": -1,
                "order": -1
            }
        ],
        "tidyTraceNodeCount": 3
    },
    "state_change": {
        "stateChanges": [
            {
                "address": "0xbbc6018b7c407fb7ee8821e7b78ce3d5af59836a",
                "erc": "",
                "slots": [
                    {
                        "current": "0x0000000000000020000000000000000000000000000000000000000000000000",
                        "key": "0xc903185e458d96f74867395c70f07d4ea0a70207ac27325990f80f6fe962e9bf",
                        "prev": "0x0000000000000000000000000000000000000000000000000000000000000000"
                    }
                ],
                "storageVariables": [
                    {
                        "name": "_refundedWallets",
                        "type": "struct BitMaps.BitMap",
                        "value": {
                            "fields": [
                                {
                                    "name": "_data",
                                    "type": "mapping(uint256 => uint256)",
                                    "value": {
                                        "pairs": [
                                            {
                                                "key": "2463567836590339111982828494740327096322311417",
                                                "value": {
                                                    "current": "200867255532373784442745261542645325315275374222849104412672",
                                                    "prev": "0",
                                                    "typeTag": 1
                                                }
                                            }
                                        ],
                                        "typeTag": 4
                                    }
                                }
                            ],
                            "typeTag": 3
                        }
                    }
                ]
            }
        ]
    }
}