{
    "balance_change": {
        "balanceChanges": []
    },
    "profile": {
        "basic_info": {
            "baseFee": "4.256079109",
            "blockNumber": 15517025,
            "callData": "0xbe167b9d000000000000000000000000000000001890f89a7a45452387244dd8cd04987c",
            "debugEnable": true,
            "errorInfo": "",
            "eventCount": 1,
            "feeRecipient": "0x00192fb10df37c9fb26829eb2cc623cd1bf599e8",
            "formatValue": "0",
            "gasLimit": 51397,
            "gasPrice": "5.756079109",
            "gasUsed": 51120,
            "intTxnCount": 1,
            "internalRevert": false,
            "internalRevertMessage": "",
            "isContractCreation": false,
            "isFlashloan": false,
            "maxFee": "7.212948294",
            "nonce": 35,
            "overwritedBlockNumber": -1,
            "priorityFee": "1.5",
            "receiver": "0xdef1c0ded9bec7f1a1670819833240f027b25eff",
            "revertMessage": "",
            "sender": "0x324dd72b2c66972043f34c5a6c66dc201e4cc7b4",
            "simulationEnable": true,
            "sourceTxnHash": "0x5ee9ccf57f13a00643bb1e14f4605ba179e207c0cfd59190711b17edb64099cd",
            "status": true,
            "timestamp": "2022-09-11T21:15:29Z",
            "transactionFee": "0.00029425076405208",
            "txnHash": "0x5ee9ccf57f13a00643bb1e14f4605ba179e207c0cfd59190711b17edb64099cd",
            "txnIndex": 197,
            "type": 2,
            "value": "0"
        },
        "fund_flow": [],
        "token_infos": [
            {
                "address": "0xeeeeeeeeeeeeeeeeeeeeeeeeeeeeeeeeeeeeeeee",
                "decimals": 18
            },
            {
                "address": "0xc02aaa39b223fe8d0a0e5c4f27ead9083c756cc2",
                "decimals": 18
            }
        ]
    },
    "address_label": {
        "labels": [
            {
                "address": "0x4af649ffde640ceb34b1afaba3e0bb8e9698cb01",
                "label": "ERC721OrdersFeature"
            },
            {
                "address": "0xdef1c0ded9bec7f1a1670819833240f027b25eff",
                "label": "0x: Exchange Proxy"
            },
            {
                "address": "0x0000000000000000000000000000000000000001",
                "label": "Precompiled"
            },
            {
                "address": "0x0000000000000000000000000000000000000002",
                "label": "Precompiled"
            },
            {
                "address": "0x0000000000000000000000000000000000000003",
                "label": "Precompiled"
            },
            {
                "address": "0x0000000000000000000000000000000000000004",
                "label": "Precompiled"
            },
            {
                "address": "0xeeeeeeeeeeeeeeeeeeeeeeeeeeeeeeeeeeeeeeee",
                "label": "Ether"
            }
        ]
    },
    "trace": {
        "accountLabels": null,
        "dataMap": {
            "-1": {
                "invocation": {
                    "address": "0x324dd72b2c66972043f34c5a6c66dc201e4cc7b4",
                    "callData": "",
                    "decodedMethod": null,
                    "errorInfo": "",
                    "fromAddress": "",
                    "gasUsed": 0,
                    "id": -1,
                    "methodDecoded": false,
                    "operation": "",
                    "output": "",
                    "revert": false,
                    "revertMessage": "",
                    "selector": "",
                    "status": false,
                    "value": ""
                },
                "nodeType": 0
            },
            "0": {
                "invocation": {
                    "address": "0xdef1c0ded9bec7f1a1670819833240f027b25eff",
                    "callData": "0x000000000000000000000000000000001890f89a7a45452387244dd8cd04987c",
                    "decodedMethod": {
                        "callParams": [
                            {
                                "name": "orderNonce",
                                "type": "uint256",
                                "value": "32,654,204,923,026,642,517,591,751,512,885,074,044"
                            }
                        ],
                        "constructorArguments": "",
                        "name": "cancelERC721Order",
                        "returnParams": [],
                        "signature": "cancelERC721Order(uint256)"
                    },
                    "errorInfo": "",
                    "fromAddress": "0x324dd72b2c66972043f34c5a6c66dc201e4cc7b4",
                    "gasUsed": 51120,
                    "id": 0,
                    "methodDecoded": true,
                    "operation": "CALL",
                    "output": "",
                    "revert": false,
                    "revertMessage": "",
                    "selector": "0xbe167b9d",
                    "status": true,
                    "value": "0"
                },
                "nodeType": 0
            },
            "1": {
                "invocation": {
                    "address": "0x4af649ffde640ceb34b1afaba3e0bb8e9698cb01",
                    "callData": "0x000000000000000000000000000000001890f89a7a45452387244dd8cd04987c",
                    "decodedMethod": {
                        "callParams": [
                            {
                                "name": "orderNonce",
                                "type": "uint256",
                                "value": "32,654,204,923,026,642,517,591,751,512,885,074,044"
                            }
                        ],
                        "constructorArguments": "",
                        "name": "cancelERC721Order",
                        "returnParams": [],
                        "signature": "cancelERC721Order(uint256)"
                    },
                    "errorInfo": "",
                    "fromAddress": "0xdef1c0ded9bec7f1a1670819833240f027b25eff",
                    "gasUsed": 24149,
                    "id": 1,
                    "methodDecoded": true,
                    "operation": "DELEGATECALL",
                    "output": "",
                    "revert": false,
                    "revertMessage": "",
                    "selector": "0xbe167b9d",
                    "status": true,
                    "value": "0"
                },
                "nodeType": 0
            },
            "2": {
                "event": {
                    "contract": "0xdef1c0ded9bec7f1a1670819833240f027b25eff",
                    "decodedLog": {
                        "name": "ERC721OrderCancelled",
                        "params": [
                            {
                                "name": "maker",
                                "type": "address",
                                "value": "0x324dd72b2c66972043f34c5a6c66dc201e4cc7b4"
                            },
                            {
                                "name": "nonce",
                                "type": "uint256",
                                "value": "32,654,204,923,026,642,517,591,751,512,885,074,044"
                            }
                        ],
                        "signature": "ERC721OrderCancelled(address,uint256)"
                    },
                    "id": 2,
                    "logData": "0x000000000000000000000000324dd72b2c66972043f34c5a6c66dc201e4cc7b4000000000000000000000000000000001890f89a7a45452387244dd8cd04987c",
                    "logDecoded": true,
                    "operation": "EVENT",
                    "revert": false,
                    "status": true,
                    "topics": [
                        "0xa015ad2dc32f266993958a0fd9884c746b971b254206f3478bc43e2f125c7b9e"
                    ]
                },
                "nodeType": 1
            }
        },
        "gasFlame": [
            {
                "children": [
                    {
                        "children": [
                            {
                                "children": [],
                                "depth": 0,
                                "name": "Initial Gas",
                                "value": 21384
                            },
                            {
                                "children": [
                                    {
                                        "children": [],
                                        "depth": 1,
                                        "name": "cancelERC721Order",
                                        "value": 24149
                                    }
                                ],
                                "depth": 0,
                                "name": "Executed Gas",
                                "value": 29736
                            }
                        ],
                        "depth": -1,
                        "name": "Actual Gas Used",
                        "value": 51120
                    },
                    {
                        "children": [],
                        "depth": -1,
                        "name": "Refunded Gas",
                        "value": 0
                    }
                ],
                "depth": -2,
                "name": "Total Gas",
                "value": 51120
            }
        ],
        "isConfirmed": true,
        "mainTrace": [
            {
                "children": [
                    {
                        "children": [
                            {
                                "children": [
                                    {
                                        "children": [],
                                        "depth": 2,
                                        "id": 2,
                                        "order": 2
                                    }
                                ],
                                "depth": 1,
                                "id": 1,
                                "order": 1
                            }
                        ],
                        "depth": 0,
                        "id": 0,
                        "order": 0
                    }
                ],
                "depth": -1,
                "id": -1,
                "order": -1
            }
        ],
        "mainTraceNodeCount": 3,
        "parentIdMap": {
            "0": -1,
            "1": 0,
            "2": 1
        },
        "tidyTrace": [
            {
                "children": [
                    {
                        "children": [
                            {
                                "children": [
                                    {
                                        "children": [],
                                        "depth": 2,
                                        "id": 2,
                                        "order": 2
                                    }
                                ],
                                "depth": 1,
                                "id": 1,
                                "order": 1
                            }
                        ],
                        "depth": 0,
                        "id": 0,
                        "order": 0
                    }
                ],
                "depth": -1,
                "id": -1,
                "order": -1
            }
        ],
        "tidyTraceNodeCount": 3
    },
    "state_change": {
        "stateChanges": [
            {
                "address": "0xdef1c0ded9bec7f1a1670819833240f027b25eff",
                "erc": "",
                "slots": [
                    {
                        "current": "0x0000000000000000000000000000000010000000000000000000000000000000",
                        "key": "0xf9a7fda3c80c8f2709c5035130467406adae7b926b4df0ef4705bc90a9a1dad8",
                        "prev": "0x0000000000000000000000000000000000000000000000000000000000000000"
                    }
                ],
                "storageVariables": []
            }
        ]
    }
}