{
    "balance_change": {
        "balanceChanges": [
            {
                "account": "0x322d404ec58f56fef69acfd186ac93022a362935",
                "assets": [
                    {
                        "address": "0xeeeeeeeeeeeeeeeeeeeeeeeeeeeeeeeeeeeeeeee",
                        "amount": "0.292595782375",
                        "iconUrl": "https://assets.blocksec.com/image/1663669189317-3.png",
                        "isERC1155": false,
                        "isERC721": false,
                        "sign": false,
                        "value": ""
                    },
                    {
                        "address": "0x27054b13b1b798b345b591a4d22e6562d47ea75a",
                        "amount": "2,000",
                        "iconUrl": "https://assets.blocksec.com/icon/c77fa4012a97e5bd41d78de19bed17c3c179d8394f4e6ad11cfa736e4e0e738f.png",
                        "isERC1155": false,
                        "isERC721": false,
                        "sign": true,
                        "value": ""
                    }
                ]
            },
            {
                "account": "0x3310b055015a94a2f2e37014b944d8ca6bd2b845",
                "assets": [
                    {
                        "address": "0x27054b13b1b798b345b591a4d22e6562d47ea75a",
                        "amount": "2,000",
                        "iconUrl": "https://assets.blocksec.com/icon/c77fa4012a97e5bd41d78de19bed17c3c179d8394f4e6ad11cfa736e4e0e738f.png",
                        "isERC1155": false,
                        "isERC721": false,
                        "sign": false,
                        "value": ""
                    },
                    {
                        "address": "0xeeeeeeeeeeeeeeeeeeeeeeeeeeeeeeeeeeeeeeee",
                        "amount": "0.292595782375",
                        "iconUrl": "https://assets.blocksec.com/image/1663669189317-3.png",
                        "isERC1155": false,
                        "isERC721": false,
                        "sign": true,
                        "value": ""
                    }
                ]
            }
        ]
    },
    "profile": {
        "basic_info": {
            "baseFee": "",
            "blockNumber": 8735063,
            "callData": "0x1d4d691d0000000000000000000000003310b055015a94a2f2e37014b944d8ca6bd2b8450000000000000000000000000000000000000000000000000000000001312d0000000000000000000000000027054b13b1b798b345b591a4d22e6562d47ea75a000000000000000000000000322d404ec58f56fef69acfd186ac93022a362935000000000000000000000000000000000000000000000000040f8250573d47c00000000000000000000000000000000000000000000000000000000000000000000000000000000000000000000000000000000000000000000000005da3812300000000000000000000000000000000000000000000000063e156ea2d663081000000000000000000000000000000000000000000000000000000000000001b6d5ef56af7185c3afbd0447f2e00bb7c29af9bae4b8824dff57dbecdfd57762815cf117add51f33837aa7ccb4981facbfb0dca3a80834c7585ad0abe0a64a98c",
            "debugEnable": true,
            "errorInfo": "",
            "eventCount": 2,
            "feeRecipient": "0x829bd824b016326a401d083b33d092293333a830",
            "formatValue": "0.292595782375",
            "gasLimit": 300000,
            "gasPrice": "8",
            "gasUsed": 107132,
            "intTxnCount": 3,
            "internalRevert": false,
            "internalRevertMessage": "",
            "isContractCreation": false,
            "isFlashloan": false,
            "maxFee": "",
            "nonce": 51,
            "overwritedBlockNumber": -1,
            "priorityFee": "",
            "receiver": "0x8fd3121013a07c57f0d69646e86e7a4880b467b7",
            "revertMessage": "",
            "sender": "0x322d404ec58f56fef69acfd186ac93022a362935",
            "simulationEnable": true,
            "sourceTxnHash": "0x5e75bb306837c1a29aeb923d4d5fa3acd053c41780457b9ba3700160f67ed7dc",
            "status": true,
            "timestamp": "2019-10-13T19:53:23Z",
            "transactionFee": "0.000857056",
            "txnHash": "0x5e75bb306837c1a29aeb923d4d5fa3acd053c41780457b9ba3700160f67ed7dc",
            "txnIndex": 85,
            "type": 0,
            "value": "292595782375000000"
        },
        "fund_flow": [
            {
                "amount": "0.292595782375",
                "from": "0x322d404ec58f56fef69acfd186ac93022a362935",
                "id": 1,
                "isERC1155": false,
                "isERC721": false,
                "isReverted": false,
                "order": 1,
                "to": "0x8fd3121013a07c57f0d69646e86e7a4880b467b7",
                "token": "0xeeeeeeeeeeeeeeeeeeeeeeeeeeeeeeeeeeeeeeee"
            },
            {
                "amount": "2,000",
                "from": "0x3310b055015a94a2f2e37014b944d8ca6bd2b845",
                "id": 2,
                "isERC1155": false,
                "isERC721": false,
                "isReverted": false,
                "order": 2,
                "to": "0x322d404ec58f56fef69acfd186ac93022a362935",
                "token": "0x27054b13b1b798b345b591a4d22e6562d47ea75a"
            },
            {
                "amount": "0.292595782375",
                "from": "0x8fd3121013a07c57f0d69646e86e7a4880b467b7",
                "id": 3,
                "isERC1155": false,
                "isERC721": false,
                "isReverted": false,
                "order": 3,
                "to": "0x3310b055015a94a2f2e37014b944d8ca6bd2b845",
                "token": "0xeeeeeeeeeeeeeeeeeeeeeeeeeeeeeeeeeeeeeeee"
            }
        ],
        "token_infos": [
            {
                "address": "0xeeeeeeeeeeeeeeeeeeeeeeeeeeeeeeeeeeeeeeee",
                "decimals": 18
            },
            {
                "address": "0x27054b13b1b798b345b591a4d22e6562d47ea75a",
                "decimals": 4
            },
            {
                "address": "0xc02aaa39b223fe8d0a0e5c4f27ead9083c756cc2",
                "decimals": 18
            }
        ]
    },
    "address_label": {
        "labels": [
            {
                "address": "0x8fd3121013a07c57f0d69646e86e7a4880b467b7",
                "label": "AirSwap: Legacy"
            },
            {
                "address": "0x27054b13b1b798b345b591a4d22e6562d47ea75a",
                "label": "AirSwap: AST Token"
            },
            {
                "address": "0x0000000000000000000000000000000000000000",
                "label": "Null Address"
            },
            {
                "address": "0x0000000000000000000000000000000000000001",
                "label": "Precompiled"
            },
            {
                "address": "0x0000000000000000000000000000000000000002",
                "label": "Precompiled"
            },
            {
                "address": "0x0000000000000000000000000000000000000003",
                "label": "Precompiled"
            },
            {
                "address": "0x0000000000000000000000000000000000000004",
                "label": "Precompiled"
            },
            {
                "address": "0xeeeeeeeeeeeeeeeeeeeeeeeeeeeeeeeeeeeeeeee",
                "label": "Ether"
            }
        ]
    },
    "trace": {
        "accountLabels": null,
        "dataMap": {
            "-1": {
                "invocation": {
                    "address": "0x322d404ec58f56fef69acfd186ac93022a362935",
                    "callData": "",
                    "decodedMethod": null,
                    "errorInfo": "",
                    "fromAddress": "",
                    "gasUsed": 0,
                    "id": -1,
                    "methodDecoded": false,
                    "operation": "",
                    "output": "",
                    "revert": false,
                    "revertMessage": "",
                    "selector": "",
                    "status": false,
                    "value": ""
                },
                "nodeType": 0
            },
            "0": {
                "invocation": {
                    "address": "0x8fd3121013a07c57f0d69646e86e7a4880b467b7",
                    "callData": "0x0000000000000000000000003310b055015a94a2f2e37014b944d8ca6bd2b8450000000000000000000000000000000000000000000000000000000001312d0000000000000000000000000027054b13b1b798b345b591a4d22e6562d47ea75a000000000000000000000000322d404ec58f56fef69acfd186ac93022a362935000000000000000000000000000000000000000000000000040f8250573d47c00000000000000000000000000000000000000000000000000000000000000000000000000000000000000000000000000000000000000000000000005da3812300000000000000000000000000000000000000000000000063e156ea2d663081000000000000000000000000000000000000000000000000000000000000001b6d5ef56af7185c3afbd0447f2e00bb7c29af9bae4b8824dff57dbecdfd57762815cf117add51f33837aa7ccb4981facbfb0dca3a80834c7585ad0abe0a64a98c",
                    "decodedMethod": {
                        "callParams": [
                            {
                                "name": "makerAddress",
                                "type": "address",
                                "value": "0x3310b055015a94a2f2e37014b944d8ca6bd2b845"
                            },
                            {
                                "name": "makerAmount",
                                "type": "uint256",
                                "value": "20,000,000"
                            },
                            {
                                "name": "makerToken",
                                "type": "address",
                                "value": "0x27054b13b1b798b345b591a4d22e6562d47ea75a"
                            },
                            {
                                "name": "takerAddress",
                                "type": "address",
                                "value": "0x322d404ec58f56fef69acfd186ac93022a362935"
                            },
                            {
                                "name": "takerAmount",
                                "type": "uint256",
                                "value": "292,595,782,375,000,000"
                            },
                            {
                                "name": "takerToken",
                                "type": "address",
                                "value": "0x0000000000000000000000000000000000000000"
                            },
                            {
                                "name": "expiration",
                                "type": "uint256",
                                "value": "1,570,996,515"
                            },
                            {
                                "name": "nonce",
                                "type": "uint256",
                                "value": "7,197,129,243,298,771,073"
                            },
                            {
                                "name": "v",
                                "type": "uint8",
                                "value": "27"
                            },
                            {
                                "name": "r",
                                "type": "bytes32",
                                "value": "0x6d5ef56af7185c3afbd0447f2e00bb7c29af9bae4b8824dff57dbecdfd577628"
                            },
                            {
                                "name": "s",
                                "type": "bytes32",
                                "value": "0x15cf117add51f33837aa7ccb4981facbfb0dca3a80834c7585ad0abe0a64a98c"
                            }
                        ],
                        "constructorArguments": "",
                        "name": "fill",
                        "returnParams": [],
                        "signature": "fill(address,uint256,address,address,uint256,address,uint256,uint256,uint8,bytes32,bytes32)"
                    },
                    "errorInfo": "",
                    "fromAddress": "0x322d404ec58f56fef69acfd186ac93022a362935",
                    "gasUsed": 107132,
                    "id": 0,
                    "methodDecoded": true,
                    "operation": "CALL",
                    "output": "",
                    "revert": false,
                    "revertMessage": "",
                    "selector": "0x1d4d691d",
                    "status": true,
                    "value": "0.292595782375"
                },
                "nodeType": 0
            },
            "1": {
                "invocation": {
                    "address": "0x0000000000000000000000000000000000000001",
                    "callData": "0x4da0700c333a60ad80b2c4461afa5f61dc55420cf8a636d9ac055a2b000000000000000000000000000000000000000000000000000000000000001b6d5ef56af7185c3afbd0447f2e00bb7c29af9bae4b8824dff57dbecdfd57762815cf117add51f33837aa7ccb4981facbfb0dca3a80834c7585ad0abe0a64a98c",
                    "decodedMethod": {
                        "callParams": [
                            {
                                "name": "hash",
                                "type": "bytes32",
                                "value": "0xf11551fc4da0700c333a60ad80b2c4461afa5f61dc55420cf8a636d9ac055a2b"
                            },
                            {
                                "name": "v",
                                "type": "uint256",
                                "value": "27"
                            },
                            {
                                "name": "r",
                                "type": "bytes32",
                                "value": "0x6d5ef56af7185c3afbd0447f2e00bb7c29af9bae4b8824dff57dbecdfd577628"
                            },
                            {
                                "name": "s",
                                "type": "bytes32",
                                "value": "0x15cf117add51f33837aa7ccb4981facbfb0dca3a80834c7585ad0abe0a64a98c"
                            }
                        ],
                        "constructorArguments": "",
                        "name": "ecrecover",
                        "returnParams": [
                            {
                                "name": "",
                                "type": "address",
                                "value": "0x3310b055015a94a2f2e37014b944d8ca6bd2b845"
                            }
                        ],
                        "signature": "ecrecover(bytes32,uint256,bytes32,bytes32)"
                    },
                    "errorInfo": "",
                    "fromAddress": "0x8fd3121013a07c57f0d69646e86e7a4880b467b7",
                    "gasUsed": 3000,
                    "id": 1,
                    "methodDecoded": true,
                    "operation": "CALL",
                    "output": "0x0000000000000000000000003310b055015a94a2f2e37014b944d8ca6bd2b845",
                    "revert": false,
                    "revertMessage": "",
                    "selector": "0xf11551fc",
                    "status": true,
                    "value": "0"
                },
                "nodeType": 0
            },
            "2": {
                "invocation": {
                    "address": "0x27054b13b1b798b345b591a4d22e6562d47ea75a",
                    "callData": "0x0000000000000000000000003310b055015a94a2f2e37014b944d8ca6bd2b845000000000000000000000000322d404ec58f56fef69acfd186ac93022a3629350000000000000000000000000000000000000000000000000000000001312d00",
                    "decodedMethod": {
                        "callParams": [
                            {
                                "name": "_from",
                                "type": "address",
                                "value": "0x3310b055015a94a2f2e37014b944d8ca6bd2b845"
                            },
                            {
                                "name": "_to",
                                "type": "address",
                                "value": "0x322d404ec58f56fef69acfd186ac93022a362935"
                            },
                            {
                                "decimalAvailable": true,
                                "name": "_value",
                                "type": "uint256",
                                "value": "20,000,000"
                            }
                        ],
                        "constructorArguments": "",
                        "name": "transferFrom",
                        "returnParams": [
                            {
                                "name": "success",
                                "type": "bool",
                                "value": true
                            }
                        ],
                        "signature": "transferFrom(address,address,uint256)"
                    },
                    "errorInfo": "",
                    "fromAddress": "0x8fd3121013a07c57f0d69646e86e7a4880b467b7",
                    "gasUsed": 36191,
                    "id": 2,
                    "methodDecoded": true,
                    "operation": "CALL",
                    "output": "0x0000000000000000000000000000000000000000000000000000000000000001",
                    "revert": false,
                    "revertMessage": "",
                    "selector": "0x23b872dd",
                    "status": true,
                    "value": "0"
                },
                "nodeType": 0
            },
            "3": {
                "event": {
                    "contract": "0x27054b13b1b798b345b591a4d22e6562d47ea75a",
                    "decodedLog": {
                        "name": "Transfer",
                        "params": [
                            {
                                "name": "_from",
                                "type": "address",
                                "value": "0x3310b055015a94a2f2e37014b944d8ca6bd2b845"
                            },
                            {
                                "name": "_to",
                                "type": "address",
                                "value": "0x322d404ec58f56fef69acfd186ac93022a362935"
                            },
                            {
                                "decimalAvailable": true,
                                "name": "_value",
                                "type": "uint256",
                                "value": "20,000,000"
                            }
                        ],
                        "signature": "Transfer(address,address,uint256)"
                    },
                    "id": 3,
                    "logData": "0x0000000000000000000000000000000000000000000000000000000001312d00",
                    "logDecoded": true,
                    "operation": "EVENT",
                    "revert": false,
                    "status": true,
                    "topics": [
                        "0xddf252ad1be2c89b69c2b068fc378daa952ba7f163c4a11628f55a4df523b3ef",
                        "0x0000000000000000000000003310b055015a94a2f2e37014b944d8ca6bd2b845",
                        "0x000000000000000000000000322d404ec58f56fef69acfd186ac93022a362935"
                    ]
                },
                "nodeType": 1
            },
            "4": {
                "invocation": {
                    "address": "0x3310b055015a94a2f2e37014b944d8ca6bd2b845",
                    "callData": "0x",
                    "decodedMethod": null,
                    "errorInfo": "",
                    "fromAddress": "0x8fd3121013a07c57f0d69646e86e7a4880b467b7",
                    "gasUsed": 0,
                    "id": 4,
                    "methodDecoded": false,
                    "operation": "CALL",
                    "output": "",
                    "revert": false,
                    "revertMessage": "",
                    "selector": "fallback",
                    "status": true,
                    "value": "0.292595782375"
                },
                "nodeType": 0
            },
            "5": {
                "event": {
                    "contract": "0x8fd3121013a07c57f0d69646e86e7a4880b467b7",
                    "decodedLog": {
                        "name": "Filled",
                        "params": [
                            {
                                "name": "makerAddress",
                                "type": "address",
                                "value": "0x3310b055015a94a2f2e37014b944d8ca6bd2b845"
                            },
                            {
                                "name": "makerToken",
                                "type": "address",
                                "value": "0x27054b13b1b798b345b591a4d22e6562d47ea75a"
                            },
                            {
                                "name": "takerToken",
                                "type": "address",
                                "value": "0x0000000000000000000000000000000000000000"
                            },
                            {
                                "name": "makerAmount",
                                "type": "uint256",
                                "value": "20,000,000"
                            },
                            {
                                "name": "takerAddress",
                                "type": "address",
                                "value": "0x322d404ec58f56fef69acfd186ac93022a362935"
                            },
                            {
                                "name": "takerAmount",
                                "type": "uint256",
                                "value": "292,595,782,375,000,000"
                            },
                            {
                                "name": "expiration",
                                "type": "uint256",
                                "value": "1,570,996,515"
                            },
                            {
                                "name": "nonce",
                                "type": "uint256",
                                "value": "7,197,129,243,298,771,073"
                            }
                        ],
                        "signature": "Filled(address,uint256,address,address,uint256,address,uint256,uint256)"
                    },
                    "id": 5,
                    "logData": "0x0000000000000000000000000000000000000000000000000000000001312d00000000000000000000000000322d404ec58f56fef69acfd186ac93022a362935000000000000000000000000000000000000000000000000040f8250573d47c0000000000000000000000000000000000000000000000000000000005da3812300000000000000000000000000000000000000000000000063e156ea2d663081",
                    "logDecoded": true,
                    "operation": "EVENT",
                    "revert": false,
                    "status": true,
                    "topics": [
                        "0xe59c5e56d85b2124f5e7f82cb5fcc6d28a4a241a9bdd732704ac9d3b6bfc98ab",
                        "0x0000000000000000000000003310b055015a94a2f2e37014b944d8ca6bd2b845",
                        "0x00000000000000000000000027054b13b1b798b345b591a4d22e6562d47ea75a",
                        "0x0000000000000000000000000000000000000000000000000000000000000000"
                    ]
                },
                "nodeType": 1
            }
        },
        "gasFlame": [
            {
                "children": [
                    {
                        "children": [
                            {
                                "children": [],
                                "depth": 0,
                                "name": "Initial Gas",
                                "value": 32088
                            },
                            {
                                "children": [
                                    {
                                        "children": [],
                                        "depth": 1,
                                        "name": "ecrecover",
                                        "value": 3000
                                    },
                                    {
                                        "children": [],
                                        "depth": 1,
                                        "name": "transferFrom",
                                        "value": 36191
                                    },
                                    {
                                        "children": [],
                                        "depth": 1,
                                        "name": "fallback",
                                        "value": 0
                                    }
                                ],
                                "depth": 0,
                                "name": "Executed Gas",
                                "value": 75044
                            }
                        ],
                        "depth": -1,
                        "name": "Actual Gas Used",
                        "value": 107132
                    },
                    {
                        "children": [],
                        "depth": -1,
                        "name": "Refunded Gas",
                        "value": 0
                    }
                ],
                "depth": -2,
                "name": "Total Gas",
                "value": 107132
            }
        ],
        "isConfirmed": true,
        "mainTrace": [
            {
                "children": [
                    {
                        "children": [
                            {
                                "children": [],
                                "depth": 1,
                                "id": 1,
                                "order": 1
                            },
                            {
                                "children": [
                                    {
                                        "children": [],
                                        "depth": 2,
                                        "id": 3,
                                        "order": 3
                                    }
                                ],
                                "depth": 1,
                                "id": 2,
                                "order": 2
                            },
                            {
                                "children": [],
                                "depth": 1,
                                "id": 4,
                                "order": 4
                            },
                            {
                                "children": [],
                                "depth": 1,
                                "id": 5,
                                "order": 5
                            }
                        ],
                        "depth": 0,
                        "id": 0,
                        "order": 0
                    }
                ],
                "depth": -1,
                "id": -1,
                "order": -1
            }
        ],
        "mainTraceNodeCount": 6,
        "parentIdMap": {
            "0": -1,
            "1": 0,
            "2": 0,
            "3": 2,
            "4": 0,
            "5": 0
        },
        "tidyTrace": [
            {
                "children": [
                    {
                        "children": [
                            {
                                "children": [],
                                "depth": 1,
                                "id": 1,
                                "order": 1
                            },
                            {
                                "children": [
                                    {
                                        "children": [],
                                        "depth": 2,
                                        "id": 3,
                                        "order": 3
                                    }
                                ],
                                "depth": 1,
                                "id": 2,
                                "order": 2
                            },
                            {
                                "children": [],
                                "depth": 1,
                                "id": 4,
                                "order": 4
                            },
                            {
                                "children": [],
                                "depth": 1,
                                "id": 5,
                                "order": 5
                            }
                        ],
                        "depth": 0,
                        "id": 0,
                        "order": 0
                    }
                ],
                "depth": -1,
                "id": -1,
                "order": -1
            }
        ],
        "tidyTraceNodeCount": 6
    },
    "state_change": {
        "stateChanges": [
            {
                "address": "0x27054b13b1b798b345b591a4d22e6562d47ea75a",
                "erc": "ERC-20",
                "slots": [
                    {
                        "current": "0x0000000000000000000000000000000000000000000000000000000001312d00",
                        "key": "0x373807dcfbd4c79f6eee1f0dce44b8afd05de8188b1012a823e061ec4f9606f8",
                        "prev": "0x0000000000000000000000000000000000000000000000000000000000000000"
                    },
                    {
                        "current": "0x00000000000000000000000000000000000000000000000000000000100a0bde",
                        "key": "0xcaa8463954cf1e6ca90d7c7daf5856645f1ac438067c7c4d48eec36f05fc0d0b",
                        "prev": "0x00000000000000000000000000000000000000000000000000000000113b38de"
                    },
                    {
                        "current": "0x0000000000000000000000000000000000000000004a817c7ffffff5fd6c1622",
                        "key": "0xab8e18daca511d578ff34cc2495dc5517a0ac621c675441739a9dbb66a32a736",
                        "prev": "0x0000000000000000000000000000000000000000004a817c7ffffff5fe9d4322"
                    }
                ],
                "storageVariables": [
                    {
                        "name": "balances",
                        "type": "mapping(address => uint256)",
                        "value": {
                            "pairs": [
                                {
                                    "key": "0x322d404ec58f56fef69acfd186ac93022a362935",
                                    "value": {
                                        "current": "20000000",
                                        "prev": "0",
                                        "typeTag": 1
                                    }
                                },
                                {
                                    "key": "0x3310b055015a94a2f2e37014b944d8ca6bd2b845",
                                    "value": {
                                        "current": "269093854",
                                        "prev": "289093854",
                                        "typeTag": 1
                                    }
                                }
                            ],
                            "typeTag": 4
                        }
                    },
                    {
                        "name": "allowed",
                        "type": "mapping(address => mapping(address => uint256))",
                        "value": {
                            "pairs": [
                                {
                                    "key": "0x3310b055015a94a2f2e37014b944d8ca6bd2b845",
                                    "value": {
                                        "pairs": [
                                            {
                                                "key": "0x8fd3121013a07c57f0d69646e86e7a4880b467b7",
                                                "value": {
                                                    "current": "90071992547409877007078946",
                                                    "prev": "90071992547409877027078946",
                                                    "typeTag": 1
                                                }
                                            }
                                        ],
                                        "typeTag": 4
                                    }
                                }
                            ],
                            "typeTag": 4
                        }
                    }
                ]
            },
            {
                "address": "0x8fd3121013a07c57f0d69646e86e7a4880b467b7",
                "erc": "",
                "slots": [
                    {
                        "current": "0x0000000000000000000000000000000000000000000000000000000000000001",
                        "key": "0xbadf3efeba157b629b3bf20f530ffca7dfeb61a1d5892d6c42b50603ab11c81f",
                        "prev": "0x0000000000000000000000000000000000000000000000000000000000000000"
                    }
                ],
                "storageVariables": [
                    {
                        "name": "fills",
                        "type": "mapping(bytes32 => bool)",
                        "value": {
                            "pairs": [
                                {
                                    "key": "0x76b62f27589f7b816d460665fec90319684faafff8732960a57f7bea0b9284f8",
                                    "value": {
                                        "current": "true",
                                        "prev": "false",
                                        "typeTag": 1
                                    }
                                }
                            ],
                            "typeTag": 4
                        }
                    }
                ]
            }
        ]
    }
}