{
    "balance_change": {
        "balanceChanges": []
    },
    "profile": {
        "basic_info": {
            "baseFee": "",
            "blockNumber": 11329617,
            "callData": "0xf242432a0000000000000000000000008afa00ff71b6dc89bc0de8f0e898e510cefc9258000000000000000000000000ac6cbb033ed16408b3aa6e3770d55d6a1950c7ac788000000000095b000000000000000000000000000000000000000000000006000000000000000000000000000000000000000000000000000000000000000100000000000000000000000000000000000000000000000000000000000000a000000000000000000000000000000000000000000000000000000000000000000000000000000000000000000000000000000000000000000000000000000000",
            "debugEnable": true,
            "errorInfo": "execution reverted",
            "eventCount": 0,
            "feeRecipient": "0x5a0b54d5dc17e0aadc383d2db43b0a0d3e029c4c",
            "formatValue": "0",
            "gasLimit": 61928,
            "gasPrice": "23.1",
            "gasUsed": 31739,
            "intTxnCount": 2,
            "internalRevert": true,
            "internalRevertMessage": "",
            "isContractCreation": false,
            "isFlashloan": false,
            "maxFee": "",
            "nonce": 6883,
            "overwritedBlockNumber": -1,
            "priorityFee": "",
            "receiver": "0xfaafdc07907ff5120a76b34b731b278c38d6043c",
            "revertMessage": "owner",
            "sender": "0x8afa00ff71b6dc89bc0de8f0e898e510cefc9258",
            "simulationEnable": true,
            "sourceTxnHash": "0x5e7e202c9bd92db2a33dd12095f05781d6eebe3343274454f668b99b9cce2f3b",
            "status": false,
            "timestamp": "2020-11-25T20:10:33Z",
            "transactionFee": "0.0007331709",
            "txnHash": "0x5e7e202c9bd92db2a33dd12095f05781d6eebe3343274454f668b99b9cce2f3b",
            "txnIndex": 158,
            "type": 0,
            "value": "0"
        },
        "fund_flow": [],
        "token_infos": [
            {
                "address": "0xc02aaa39b223fe8d0a0e5c4f27ead9083c756cc2",
                "decimals": 18
            },
            {
                "address": "0xeeeeeeeeeeeeeeeeeeeeeeeeeeeeeeeeeeeeeeee",
                "decimals": 18
            }
        ]
    },
    "address_label": {
        "labels": [
            {
                "address": "0x0000000000000000000000000000000000000001",
                "label": "Precompiled"
            },
            {
                "address": "0x0000000000000000000000000000000000000002",
                "label": "Precompiled"
            },
            {
                "address": "0x0000000000000000000000000000000000000003",
                "label": "Precompiled"
            },
            {
                "address": "0x0000000000000000000000000000000000000004",
                "label": "Precompiled"
            },
            {
                "address": "0xeeeeeeeeeeeeeeeeeeeeeeeeeeeeeeeeeeeeeeee",
                "label": "Ether"
            },
            {
                "address": "0xfaafdc07907ff5120a76b34b731b278c38d6043c",
                "label": "Enjin: X Token"
            }
        ]
    },
    "trace": {
        "accountLabels": null,
        "dataMap": {
            "-1": {
                "invocation": {
                    "address": "0x8afa00ff71b6dc89bc0de8f0e898e510cefc9258",
                    "callData": "",
                    "decodedMethod": null,
                    "errorInfo": "",
                    "fromAddress": "",
                    "gasUsed": 0,
                    "id": -1,
                    "methodDecoded": false,
                    "operation": "",
                    "output": "",
                    "revert": false,
                    "revertMessage": "",
                    "selector": "",
                    "status": false,
                    "value": ""
                },
                "nodeType": 0
            },
            "0": {
                "invocation": {
                    "address": "0xfaafdc07907ff5120a76b34b731b278c38d6043c",
                    "callData": "0x0000000000000000000000008afa00ff71b6dc89bc0de8f0e898e510cefc9258000000000000000000000000ac6cbb033ed16408b3aa6e3770d55d6a1950c7ac788000000000095b000000000000000000000000000000000000000000000006000000000000000000000000000000000000000000000000000000000000000100000000000000000000000000000000000000000000000000000000000000a000000000000000000000000000000000000000000000000000000000000000000000000000000000000000000000000000000000000000000000000000000000",
                    "decodedMethod": {
                        "callParams": [
                            {
                                "name": "from",
                                "type": "address",
                                "value": "0x8afa00ff71b6dc89bc0de8f0e898e510cefc9258"
                            },
                            {
                                "name": "to",
                                "type": "address",
                                "value": "0xac6cbb033ed16408b3aa6e3770d55d6a1950c7ac"
                            },
                            {
                                "name": "id",
                                "type": "uint256",
                                "value": "54,503,698,254,283,614,832,644,217,554,017,979,762,961,891,833,180,160,185,276,597,588,837,393,235,974"
                            },
                            {
                                "name": "amount",
                                "type": "uint256",
                                "value": "1"
                            },
                            {
                                "name": "data",
                                "type": "bytes",
                                "value": "0x"
                            }
                        ],
                        "constructorArguments": "",
                        "name": "safeTransferFrom",
                        "returnParams": [],
                        "signature": "safeTransferFrom(address,address,uint256,uint256,bytes)"
                    },
                    "errorInfo": "execution reverted",
                    "fromAddress": "0x8afa00ff71b6dc89bc0de8f0e898e510cefc9258",
                    "gasUsed": 31739,
                    "id": 0,
                    "methodDecoded": true,
                    "operation": "CALL",
                    "output": "0x08c379a0000000000000000000000000000000000000000000000000000000000000002000000000000000000000000000000000000000000000000000000000000000056f776e6572000000000000000000000000000000000000000000000000000000",
                    "revert": true,
                    "revertMessage": "owner",
                    "selector": "0xf242432a",
                    "status": false,
                    "value": "0"
                },
                "nodeType": 0
            },
            "1": {
                "invocation": {
                    "address": "0xced2516c9223cea270dcb4b6a6eec2183351283b",
                    "callData": "0x0000000000000000000000008afa00ff71b6dc89bc0de8f0e898e510cefc9258000000000000000000000000ac6cbb033ed16408b3aa6e3770d55d6a1950c7ac788000000000095b000000000000000000000000000000000000000000000006000000000000000000000000000000000000000000000000000000000000000100000000000000000000000000000000000000000000000000000000000000a000000000000000000000000000000000000000000000000000000000000000000000000000000000000000000000000000000000000000000000000000000000",
                    "decodedMethod": {
                        "callParams": [
                            {
                                "name": "from",
                                "type": "address",
                                "value": "0x8afa00ff71b6dc89bc0de8f0e898e510cefc9258"
                            },
                            {
                                "name": "to",
                                "type": "address",
                                "value": "0xac6cbb033ed16408b3aa6e3770d55d6a1950c7ac"
                            },
                            {
                                "name": "id",
                                "type": "uint256",
                                "value": "54,503,698,254,283,614,832,644,217,554,017,979,762,961,891,833,180,160,185,276,597,588,837,393,235,974"
                            },
                            {
                                "name": "amount",
                                "type": "uint256",
                                "value": "1"
                            },
                            {
                                "name": "data",
                                "type": "bytes",
                                "value": "0x"
                            }
                        ],
                        "constructorArguments": "",
                        "name": "safeTransferFrom",
                        "returnParams": [],
                        "signature": "safeTransferFrom(address,address,uint256,uint256,bytes)"
                    },
                    "errorInfo": "execution reverted",
                    "fromAddress": "0xfaafdc07907ff5120a76b34b731b278c38d6043c",
                    "gasUsed": 7276,
                    "id": 1,
                    "methodDecoded": true,
                    "operation": "DELEGATECALL",
                    "output": "0x08c379a0000000000000000000000000000000000000000000000000000000000000002000000000000000000000000000000000000000000000000000000000000000056f776e6572000000000000000000000000000000000000000000000000000000",
                    "revert": true,
                    "revertMessage": "owner",
                    "selector": "0xf242432a",
                    "status": false,
                    "value": "0"
                },
                "nodeType": 0
            },
            "2": {
                "invocation": {
                    "address": "0x4e643a25a64952895f553f20252861258727174e",
                    "callData": "0x788000000000095b0000000000000000000000000000000000000000000000060000000000000000000000008afa00ff71b6dc89bc0de8f0e898e510cefc9258000000000000000000000000ac6cbb033ed16408b3aa6e3770d55d6a1950c7ac",
                    "decodedMethod": null,
                    "errorInfo": "execution reverted",
                    "fromAddress": "0xfaafdc07907ff5120a76b34b731b278c38d6043c",
                    "gasUsed": 3925,
                    "id": 2,
                    "methodDecoded": false,
                    "operation": "CALL",
                    "output": "0x08c379a0000000000000000000000000000000000000000000000000000000000000002000000000000000000000000000000000000000000000000000000000000000056f776e6572000000000000000000000000000000000000000000000000000000",
                    "revert": true,
                    "revertMessage": "owner",
                    "selector": "0x95760fb9",
                    "status": false,
                    "value": "0"
                },
                "nodeType": 0
            }
        },
        "gasFlame": [
            {
                "children": [
                    {
                        "children": [
                            {
                                "children": [],
                                "depth": 0,
                                "name": "Initial Gas",
                                "value": 22512
                            },
                            {
                                "children": [
                                    {
                                        "children": [
                                            {
                                                "children": [],
                                                "depth": 2,
                                                "name": "0x95760fb9",
                                                "value": 3925
                                            }
                                        ],
                                        "depth": 1,
                                        "name": "safeTransferFrom",
                                        "value": 7276
                                    }
                                ],
                                "depth": 0,
                                "name": "Executed Gas",
                                "value": 9227
                            }
                        ],
                        "depth": -1,
                        "name": "Actual Gas Used",
                        "value": 31739
                    },
                    {
                        "children": [],
                        "depth": -1,
                        "name": "Refunded Gas",
                        "value": 0
                    }
                ],
                "depth": -2,
                "name": "Total Gas",
                "value": 31739
            }
        ],
        "isConfirmed": true,
        "mainTrace": [
            {
                "children": [
                    {
                        "children": [
                            {
                                "children": [
                                    {
                                        "children": [],
                                        "depth": 2,
                                        "id": 2,
                                        "order": 2
                                    }
                                ],
                                "depth": 1,
                                "id": 1,
                                "order": 1
                            }
                        ],
                        "depth": 0,
                        "id": 0,
                        "order": 0
                    }
                ],
                "depth": -1,
                "id": -1,
                "order": -1
            }
        ],
        "mainTraceNodeCount": 3,
        "parentIdMap": {
            "0": -1,
            "1": 0,
            "2": 1
        },
        "tidyTrace": [
            {
                "children": [
                    {
                        "children": [
                            {
                                "children": [
                                    {
                                        "children": [],
                                        "depth": 2,
                                        "id": 2,
                                        "order": 2
                                    }
                                ],
                                "depth": 1,
                                "id": 1,
                                "order": 1
                            }
                        ],
                        "depth": 0,
                        "id": 0,
                        "order": 0
                    }
                ],
                "depth": -1,
                "id": -1,
                "order": -1
            }
        ],
        "tidyTraceNodeCount": 3
    },
    "state_change": {
        "stateChanges": []
    }
}