{
    "balance_change": {
        "balanceChanges": [
            {
                "account": "0xcb3d57a9aaef4a3d593ad8b366d4416e91501b8b",
                "assets": [
                    {
                        "address": "0xdac17f958d2ee523a2206206994597c13d831ec7",
                        "amount": "0.15",
                        "iconUrl": "https://assets.blocksec.com/icon/fcea71f3193ce895be44bfdf941f7e4c9381dd587f273c2d1a27f1263d84e4ea.png",
                        "isERC1155": false,
                        "isERC721": false,
                        "sign": true,
                        "value": "0.14982000000000000318"
                    }
                ]
            },
            {
                "account": "0xf00d2a81178a4c475c725da448a72ebe74a44076",
                "assets": [
                    {
                        "address": "0xdac17f958d2ee523a2206206994597c13d831ec7",
                        "amount": "0.15",
                        "iconUrl": "https://assets.blocksec.com/icon/fcea71f3193ce895be44bfdf941f7e4c9381dd587f273c2d1a27f1263d84e4ea.png",
                        "isERC1155": false,
                        "isERC721": false,
                        "sign": false,
                        "value": "0.14982000000000000318"
                    }
                ]
            }
        ]
    },
    "profile": {
        "basic_info": {
            "baseFee": "14.793922606",
            "blockNumber": 17975088,
            "callData": "0xe4a76726000000000000000000000000dac17f958d2ee523a2206206994597c13d831ec7000000000000000000000000f00d2a81178a4c475c725da448a72ebe74a4407600000000000000000000000000000000000000000000000000000000000249f0",
            "debugEnable": true,
            "errorInfo": "",
            "eventCount": 1,
            "feeRecipient": "0x95222290dd7278aa3ddd389cc1e1d165cc4bafe5",
            "formatValue": "0",
            "gasLimit": 62037,
            "gasPrice": "14.893922606",
            "gasUsed": 62037,
            "intTxnCount": 1,
            "internalRevert": false,
            "internalRevertMessage": "",
            "isContractCreation": false,
            "isFlashloan": false,
            "maxFee": "19.602890034",
            "nonce": 27,
            "overwritedBlockNumber": -1,
            "priorityFee": "0.1",
            "receiver": "0xcb3d57a9aaef4a3d593ad8b366d4416e91501b8b",
            "revertMessage": "",
            "sender": "0xd09258d15b009e4106737326e8cc3beb344f2ae3",
            "simulationEnable": true,
            "sourceTxnHash": "0x5fdb2838a492e4e154897401087533306dd6786b0907752b8eac219f11118067",
            "status": true,
            "timestamp": "2023-08-23T04:41:23Z",
            "transactionFee": "0.000923974276708422",
            "txnHash": "0x5fdb2838a492e4e154897401087533306dd6786b0907752b8eac219f11118067",
            "txnIndex": 97,
            "type": 2,
            "value": "0"
        },
        "fund_flow": [
            {
                "amount": "0.15",
                "from": "0xf00d2a81178a4c475c725da448a72ebe74a44076",
                "id": 1,
                "isERC1155": false,
                "isERC721": false,
                "isReverted": false,
                "order": 1,
                "to": "0xcb3d57a9aaef4a3d593ad8b366d4416e91501b8b",
                "token": "0xdac17f958d2ee523a2206206994597c13d831ec7"
            }
        ],
        "token_infos": [
            {
                "address": "0xc02aaa39b223fe8d0a0e5c4f27ead9083c756cc2",
                "decimals": 18
            },
            {
                "address": "0xdac17f958d2ee523a2206206994597c13d831ec7",
                "decimals": 6
            },
            {
                "address": "0xeeeeeeeeeeeeeeeeeeeeeeeeeeeeeeeeeeeeeeee",
                "decimals": 18
            }
        ]
    },
    "address_label": {
        "labels": [
            {
                "address": "0x0000000000000000000000000000000000000003",
                "label": "Precompiled"
            },
            {
                "address": "0x0000000000000000000000000000000000000004",
                "label": "Precompiled"
            },
            {
                "address": "0xeeeeeeeeeeeeeeeeeeeeeeeeeeeeeeeeeeeeeeee",
                "label": "Ether"
            },
            {
                "address": "0xdac17f958d2ee523a2206206994597c13d831ec7",
                "label": "Tether: USDT Stablecoin"
            },
            {
                "address": "0xcb3d57a9aaef4a3d593ad8b366d4416e91501b8b",
                "label": "ChainAI"
            },
            {
                "address": "0x0000000000000000000000000000000000000001",
                "label": "Precompiled"
            },
            {
                "address": "0x0000000000000000000000000000000000000002",
                "label": "Precompiled"
            }
        ]
    },
    "trace": {
        "accountLabels": null,
        "dataMap": {
            "-1": {
                "invocation": {
                    "address": "0xd09258d15b009e4106737326e8cc3beb344f2ae3",
                    "callData": "",
                    "decodedMethod": null,
                    "errorInfo": "",
                    "fromAddress": "",
                    "gasUsed": 0,
                    "id": -1,
                    "methodDecoded": false,
                    "operation": "",
                    "output": "",
                    "revert": false,
                    "revertMessage": "",
                    "selector": "",
                    "status": false,
                    "value": ""
                },
                "nodeType": 0
            },
            "0": {
                "invocation": {
                    "address": "0xcb3d57a9aaef4a3d593ad8b366d4416e91501b8b",
                    "callData": "0x000000000000000000000000dac17f958d2ee523a2206206994597c13d831ec7000000000000000000000000f00d2a81178a4c475c725da448a72ebe74a4407600000000000000000000000000000000000000000000000000000000000249f0",
                    "decodedMethod": {
                        "callParams": [
                            {
                                "name": "token",
                                "type": "address",
                                "value": "0xdac17f958d2ee523a2206206994597c13d831ec7"
                            },
                            {
                                "name": "sender",
                                "type": "address",
                                "value": "0xf00d2a81178a4c475c725da448a72ebe74a44076"
                            },
                            {
                                "name": "amount",
                                "type": "uint256",
                                "value": "150,000"
                            }
                        ],
                        "constructorArguments": "",
                        "name": "addLiquidity",
                        "returnParams": [
                            {
                                "name": "",
                                "type": "bool",
                                "value": true
                            }
                        ],
                        "signature": "addLiquidity(address,address,uint256)"
                    },
                    "errorInfo": "",
                    "fromAddress": "0xd09258d15b009e4106737326e8cc3beb344f2ae3",
                    "gasUsed": 62037,
                    "id": 0,
                    "methodDecoded": true,
                    "operation": "CALL",
                    "output": "0x0000000000000000000000000000000000000000000000000000000000000001",
                    "revert": false,
                    "revertMessage": "",
                    "selector": "0xe4a76726",
                    "status": true,
                    "value": "0"
                },
                "nodeType": 0
            },
            "1": {
                "invocation": {
                    "address": "0xdac17f958d2ee523a2206206994597c13d831ec7",
                    "callData": "0x000000000000000000000000f00d2a81178a4c475c725da448a72ebe74a44076000000000000000000000000cb3d57a9aaef4a3d593ad8b366d4416e91501b8b00000000000000000000000000000000000000000000000000000000000249f0",
                    "decodedMethod": {
                        "callParams": [
                            {
                                "name": "_from",
                                "type": "address",
                                "value": "0xf00d2a81178a4c475c725da448a72ebe74a44076"
                            },
                            {
                                "name": "_to",
                                "type": "address",
                                "value": "0xcb3d57a9aaef4a3d593ad8b366d4416e91501b8b"
                            },
                            {
                                "decimalAvailable": true,
                                "name": "_value",
                                "type": "uint256",
                                "value": "150,000"
                            }
                        ],
                        "constructorArguments": "",
                        "name": "transferFrom",
                        "returnParams": [],
                        "signature": "transferFrom(address,address,uint256)"
                    },
                    "errorInfo": "",
                    "fromAddress": "0xcb3d57a9aaef4a3d593ad8b366d4416e91501b8b",
                    "gasUsed": 29724,
                    "id": 1,
                    "methodDecoded": true,
                    "operation": "CALL",
                    "output": "",
                    "revert": false,
                    "revertMessage": "",
                    "selector": "0x23b872dd",
                    "status": true,
                    "value": "0"
                },
                "nodeType": 0
            },
            "2": {
                "event": {
                    "contract": "0xdac17f958d2ee523a2206206994597c13d831ec7",
                    "decodedLog": {
                        "name": "Transfer",
                        "params": [
                            {
                                "name": "from",
                                "type": "address",
                                "value": "0xf00d2a81178a4c475c725da448a72ebe74a44076"
                            },
                            {
                                "name": "to",
                                "type": "address",
                                "value": "0xcb3d57a9aaef4a3d593ad8b366d4416e91501b8b"
                            },
                            {
                                "decimalAvailable": true,
                                "name": "value",
                                "type": "uint256",
                                "value": "150,000"
                            }
                        ],
                        "signature": "Transfer(address,address,uint256)"
                    },
                    "id": 2,
                    "logData": "0x00000000000000000000000000000000000000000000000000000000000249f0",
                    "logDecoded": true,
                    "operation": "EVENT",
                    "revert": false,
                    "status": true,
                    "topics": [
                        "0xddf252ad1be2c89b69c2b068fc378daa952ba7f163c4a11628f55a4df523b3ef",
                        "0x000000000000000000000000f00d2a81178a4c475c725da448a72ebe74a44076",
                        "0x000000000000000000000000cb3d57a9aaef4a3d593ad8b366d4416e91501b8b"
                    ]
                },
                "nodeType": 1
            }
        },
        "gasFlame": [
            {
                "children": [
                    {
                        "children": [
                            {
                                "children": [],
                                "depth": 0,
                                "name": "Initial Gas",
                                "value": 21964
                            },
                            {
                                "children": [
                                    {
                                        "children": [],
                                        "depth": 1,
                                        "name": "transferFrom",
                                        "value": 29724
                                    }
                                ],
                                "depth": 0,
                                "name": "Executed Gas",
                                "value": 40073
                            }
                        ],
                        "depth": -1,
                        "name": "Actual Gas Used",
                        "value": 62037
                    },
                    {
                        "children": [],
                        "depth": -1,
                        "name": "Refunded Gas",
                        "value": 0
                    }
                ],
                "depth": -2,
                "name": "Total Gas",
                "value": 62037
            }
        ],
        "isConfirmed": true,
        "mainTrace": [
            {
                "children": [
                    {
                        "children": [
                            {
                                "children": [
                                    {
                                        "children": [],
                                        "depth": 2,
                                        "id": 2,
                                        "order": 2
                                    }
                                ],
                                "depth": 1,
                                "id": 1,
                                "order": 1
                            }
                        ],
                        "depth": 0,
                        "id": 0,
                        "order": 0
                    }
                ],
                "depth": -1,
                "id": -1,
                "order": -1
            }
        ],
        "mainTraceNodeCount": 3,
        "parentIdMap": {
            "0": -1,
            "1": 0,
            "2": 1
        },
        "tidyTrace": [
            {
                "children": [
                    {
                        "children": [
                            {
                                "children": [
                                    {
                                        "children": [],
                                        "depth": 2,
                                        "id": 2,
                                        "order": 2
                                    }
                                ],
                                "depth": 1,
                                "id": 1,
                                "order": 1
                            }
                        ],
                        "depth": 0,
                        "id": 0,
                        "order": 0
                    }
                ],
                "depth": -1,
                "id": -1,
                "order": -1
            }
        ],
        "tidyTraceNodeCount": 3
    },
    "state_change": {
        "stateChanges": [
            {
                "address": "0xdac17f958d2ee523a2206206994597c13d831ec7",
                "erc": "ERC-20",
                "slots": [
                    {
                        "current": "0x0fffffffffffffffffffffffffffffffffffffffffffffffffffffffdc3a700f",
                        "key": "0x65005fb6aa497a7ba21c11c01701b0c7558d7377fe8ae87b430f9861bd6e4782",
                        "prev": "0x0fffffffffffffffffffffffffffffffffffffffffffffffffffffffdc3cb9ff"
                    },
                    {
                        "current": "0x000000000000000000000000000000000000000000000000000000000019f0a0",
                        "key": "0x5da9f6cdaf0f2accee7f1c959374c78dd536173952860c78b11d3bf2ee734ae2",
                        "prev": "0x00000000000000000000000000000000000000000000000000000000001c3a90"
                    },
                    {
                        "current": "0x0000000000000000000000000000000000000000000000000000000023dadb53",
                        "key": "0xa33014039e28510602bfdc1d2b5fb9060b91cbe998b67ac3a5073409f173d2b6",
                        "prev": "0x0000000000000000000000000000000000000000000000000000000023d89163"
                    }
                ],
                "storageVariables": [
                    {
                        "name": "allowed",
                        "type": "mapping(address => mapping(address => uint256))",
                        "value": {
                            "pairs": [
                                {
                                    "key": "0xf00d2a81178a4c475c725da448a72ebe74a44076",
                                    "value": {
                                        "pairs": [
                                            {
                                                "key": "0xcb3d57a9aaef4a3d593ad8b366d4416e91501b8b",
                                                "value": {
                                                    "current": "7237005577332262213973186563042994240829374041602535252466099000493970452495",
                                                    "prev": "7237005577332262213973186563042994240829374041602535252466099000493970602495",
                                                    "typeTag": 1
                                                }
                                            }
                                        ],
                                        "typeTag": 4
                                    }
                                }
                            ],
                            "typeTag": 4
                        }
                    },
                    {
                        "name": "balances",
                        "type": "mapping(address => uint256)",
                        "value": {
                            "pairs": [
                                {
                                    "key": "0xcb3d57a9aaef4a3d593ad8b366d4416e91501b8b",
                                    "value": {
                                        "current": "601545555",
                                        "prev": "601395555",
                                        "typeTag": 1
                                    }
                                },
                                {
                                    "key": "0xf00d2a81178a4c475c725da448a72ebe74a44076",
                                    "value": {
                                        "current": "1700000",
                                        "prev": "1850000",
                                        "typeTag": 1
                                    }
                                }
                            ],
                            "typeTag": 4
                        }
                    }
                ]
            }
        ]
    }
}