{
    "balance_change": {
        "balanceChanges": [
            {
                "account": "0x0b821e8735e3ed1af9008b8feac80aa8f62fb622",
                "assets": [
                    {
                        "address": "0xeeeeeeeeeeeeeeeeeeeeeeeeeeeeeeeeeeeeeeee",
                        "amount": "0.047296595089859496",
                        "iconUrl": "https://assets.blocksec.com/image/1663669189317-3.png",
                        "isERC1155": false,
                        "isERC721": false,
                        "sign": true,
                        "value": "121.187209530735868664"
                    },
                    {
                        "address": "0x9b05e694d888d4e8d92189804bf70578cba793e4",
                        "amount": "20,293,806.839388813",
                        "iconUrl": "",
                        "isERC1155": false,
                        "isERC721": false,
                        "sign": false,
                        "value": "122.7103255"
                    }
                ]
            },
            {
                "account": "0x3a10dc1a145da500d5fba38b9ec49c8ff11a981f",
                "assets": [
                    {
                        "address": "0xeeeeeeeeeeeeeeeeeeeeeeeeeeeeeeeeeeeeeeee",
                        "amount": "0.000382194707796844",
                        "iconUrl": "https://assets.blocksec.com/image/1663669189317-3.png",
                        "isERC1155": false,
                        "isERC721": false,
                        "sign": true,
                        "value": "0.9792905820717288011"
                    }
                ]
            },
            {
                "account": "0xa87e9864542a316a080fff9d50844b233e0cfeee",
                "assets": [
                    {
                        "address": "0xeeeeeeeeeeeeeeeeeeeeeeeeeeeeeeeeeeeeeeee",
                        "amount": "0.000095548676949211",
                        "iconUrl": "https://assets.blocksec.com/image/1663669189317-3.png",
                        "isERC1155": false,
                        "isERC721": false,
                        "sign": true,
                        "value": "0.24482264551793220028"
                    }
                ]
            },
            {
                "account": "0xc02aaa39b223fe8d0a0e5c4f27ead9083c756cc2",
                "assets": [
                    {
                        "address": "0xeeeeeeeeeeeeeeeeeeeeeeeeeeeeeeeeeeeeeeee",
                        "amount": "0.047774338474605551",
                        "iconUrl": "https://assets.blocksec.com/image/1663669189317-3.png",
                        "isERC1155": false,
                        "isERC721": false,
                        "sign": false,
                        "value": "122.41132274615469064"
                    },
                    {
                        "address": "0xc02aaa39b223fe8d0a0e5c4f27ead9083c756cc2",
                        "amount": "0.047774338474605551",
                        "iconUrl": "https://assets.blocksec.com/icon/f1cb2d02c471d545bbc7722daf3277fd852d98e63d118771af7047bd8256c516.png",
                        "isERC1155": false,
                        "isERC721": false,
                        "sign": true,
                        "value": "122.41132274615469064"
                    }
                ]
            },
            {
                "account": "0xf0ea6c4b09a0e3fd05d991eea5c82e5de06ae84e",
                "assets": [
                    {
                        "address": "0x9b05e694d888d4e8d92189804bf70578cba793e4",
                        "amount": "20,293,806.839388813",
                        "iconUrl": "",
                        "isERC1155": false,
                        "isERC721": false,
                        "sign": true,
                        "value": "122.7103255"
                    },
                    {
                        "address": "0xc02aaa39b223fe8d0a0e5c4f27ead9083c756cc2",
                        "amount": "0.047774338474605551",
                        "iconUrl": "https://assets.blocksec.com/icon/f1cb2d02c471d545bbc7722daf3277fd852d98e63d118771af7047bd8256c516.png",
                        "isERC1155": false,
                        "isERC721": false,
                        "sign": false,
                        "value": "122.41132274615469064"
                    }
                ]
            }
        ]
    },
    "profile": {
        "basic_info": {
            "baseFee": "28.435198128",
            "blockNumber": 20799721,
            "callData": "0x3a571299000000000000000000000000000000000000000000000000000000000000008000000000000000000000000000000000000000000000000000000000000001200000000000000000000000007a250d5630b4cf539739df2c5dacb4c659f2488d000000000000000000000000a87e9864542a316a080fff9d50844b233e0cfeee00000000000000000000000000000000000000000000000000000000000000040000000000000000000000000000000000000000000000000048191c1bcd5a8d00000000000000000000000000000000000000000000000000000000000000000000000000000000000000000000000000000000000000000000000000000000000000000000000000000000000000000000000000000000000000000000000000000000000000000000000000000000000000000000000000000000000000020000000000000000000000009b05e694d888d4e8d92189804bf70578cba793e4000000000000000000000000c02aaa39b223fe8d0a0e5c4f27ead9083c756cc2",
            "debugEnable": true,
            "errorInfo": "",
            "eventCount": 9,
            "feeRecipient": "0x4838b106fce9647bdf1e7877bf73ce8b0bad5f97",
            "formatValue": "0",
            "gasLimit": 340771,
            "gasPrice": "33.435198128",
            "gasUsed": 184772,
            "intTxnCount": 15,
            "internalRevert": false,
            "internalRevertMessage": "",
            "isContractCreation": false,
            "isFlashloan": false,
            "maxFee": "33.435198128",
            "nonce": 527,
            "overwritedBlockNumber": -1,
            "priorityFee": "5",
            "receiver": "0x3a10dc1a145da500d5fba38b9ec49c8ff11a981f",
            "revertMessage": "",
            "sender": "0x0b821e8735e3ed1af9008b8feac80aa8f62fb622",
            "simulationEnable": true,
            "sourceTxnHash": "0x5fa43ed0f4852fa693702fdf13de2b87fb8d02ebe2c889a27a015e8a3263f40a",
            "status": true,
            "timestamp": "2024-09-21T15:02:59Z",
            "transactionFee": "0.006177888428506816",
            "txnHash": "0x5fa43ed0f4852fa693702fdf13de2b87fb8d02ebe2c889a27a015e8a3263f40a",
            "txnIndex": 53,
            "type": 2,
            "value": "0"
        },
        "fund_flow": [
            {
                "amount": "20,293,806.839388813",
                "from": "0x0b821e8735e3ed1af9008b8feac80aa8f62fb622",
                "id": 1,
                "isERC1155": false,
                "isERC721": false,
                "isReverted": false,
                "order": 1,
                "to": "0xf0ea6c4b09a0e3fd05d991eea5c82e5de06ae84e",
                "token": "0x9b05e694d888d4e8d92189804bf70578cba793e4"
            },
            {
                "amount": "0.047774338474605551",
                "from": "0xf0ea6c4b09a0e3fd05d991eea5c82e5de06ae84e",
                "id": 2,
                "isERC1155": false,
                "isERC721": false,
                "isReverted": false,
                "order": 2,
                "to": "0x3a10dc1a145da500d5fba38b9ec49c8ff11a981f",
                "token": "0xc02aaa39b223fe8d0a0e5c4f27ead9083c756cc2"
            },
            {
                "amount": "0.047774338474605551",
                "from": "0xc02aaa39b223fe8d0a0e5c4f27ead9083c756cc2",
                "id": 3,
                "isERC1155": false,
                "isERC721": false,
                "isReverted": false,
                "order": 3,
                "to": "0x3a10dc1a145da500d5fba38b9ec49c8ff11a981f",
                "token": "0xeeeeeeeeeeeeeeeeeeeeeeeeeeeeeeeeeeeeeeee"
            },
            {
                "amount": "0.047774338474605551",
                "from": "0x3a10dc1a145da500d5fba38b9ec49c8ff11a981f",
                "id": 4,
                "isERC1155": false,
                "isERC721": false,
                "isReverted": false,
                "order": 4,
                "to": "0xc02aaa39b223fe8d0a0e5c4f27ead9083c756cc2",
                "token": "0xc02aaa39b223fe8d0a0e5c4f27ead9083c756cc2"
            },
            {
                "amount": "0.047296595089859496",
                "from": "0x3a10dc1a145da500d5fba38b9ec49c8ff11a981f",
                "id": 5,
                "isERC1155": false,
                "isERC721": false,
                "isReverted": false,
                "order": 5,
                "to": "0x0b821e8735e3ed1af9008b8feac80aa8f62fb622",
                "token": "0xeeeeeeeeeeeeeeeeeeeeeeeeeeeeeeeeeeeeeeee"
            },
            {
                "amount": "0.000095548676949211",
                "from": "0x3a10dc1a145da500d5fba38b9ec49c8ff11a981f",
                "id": 6,
                "isERC1155": false,
                "isERC721": false,
                "isReverted": false,
                "order": 6,
                "to": "0xa87e9864542a316a080fff9d50844b233e0cfeee",
                "token": "0xeeeeeeeeeeeeeeeeeeeeeeeeeeeeeeeeeeeeeeee"
            }
        ],
        "token_infos": [
            {
                "address": "0xeeeeeeeeeeeeeeeeeeeeeeeeeeeeeeeeeeeeeeee",
                "decimals": 18
            },
            {
                "address": "0x9b05e694d888d4e8d92189804bf70578cba793e4",
                "decimals": 9
            },
            {
                "address": "0xc02aaa39b223fe8d0a0e5c4f27ead9083c756cc2",
                "decimals": 18
            }
        ]
    },
    "address_label": {
        "labels": [
            {
                "address": "0x9b05e694d888d4e8d92189804bf70578cba793e4",
                "label": "IVY"
            },
            {
                "address": "0x0000000000000000000000000000000000000001",
                "label": "Precompiled"
            },
            {
                "address": "0x0000000000000000000000000000000000000002",
                "label": "Precompiled"
            },
            {
                "address": "0x0000000000000000000000000000000000000003",
                "label": "Precompiled"
            },
            {
                "address": "0x7a250d5630b4cf539739df2c5dacb4c659f2488d",
                "label": "Uniswap V2: Router 2"
            },
            {
                "address": "0xc02aaa39b223fe8d0a0e5c4f27ead9083c756cc2",
                "label": "Wrapped Ether (WETH)"
            },
            {
                "address": "0x0000000000000000000000000000000000000004",
                "label": "Precompiled"
            },
            {
                "address": "0xeeeeeeeeeeeeeeeeeeeeeeeeeeeeeeeeeeeeeeee",
                "label": "Ether"
            },
            {
                "address": "0xf0ea6c4b09a0e3fd05d991eea5c82e5de06ae84e",
                "label": "UNI-V2"
            }
        ]
    },
    "trace": {
        "accountLabels": null,
        "dataMap": {
            "-1": {
                "invocation": {
                    "address": "0x0b821e8735e3ed1af9008b8feac80aa8f62fb622",
                    "callData": "",
                    "decodedMethod": null,
                    "errorInfo": "",
                    "fromAddress": "",
                    "gasUsed": 0,
                    "id": -1,
                    "methodDecoded": false,
                    "operation": "",
                    "output": "",
                    "revert": false,
                    "revertMessage": "",
                    "selector": "",
                    "status": false,
                    "value": ""
                },
                "nodeType": 0
            },
            "0": {
                "invocation": {
                    "address": "0x3a10dc1a145da500d5fba38b9ec49c8ff11a981f",
                    "callData": "0x000000000000000000000000000000000000000000000000000000000000008000000000000000000000000000000000000000000000000000000000000001200000000000000000000000007a250d5630b4cf539739df2c5dacb4c659f2488d000000000000000000000000a87e9864542a316a080fff9d50844b233e0cfeee00000000000000000000000000000000000000000000000000000000000000040000000000000000000000000000000000000000000000000048191c1bcd5a8d00000000000000000000000000000000000000000000000000000000000000000000000000000000000000000000000000000000000000000000000000000000000000000000000000000000000000000000000000000000000000000000000000000000000000000000000000000000000000000000000000000000000000020000000000000000000000009b05e694d888d4e8d92189804bf70578cba793e4000000000000000000000000c02aaa39b223fe8d0a0e5c4f27ead9083c756cc2",
                    "decodedMethod": {
                        "callParams": [
                            {
                                "name": "a",
                                "type": "uint256[]",
                                "value": [
                                    "20,293,806,839,388,813",
                                    "0",
                                    "0",
                                    "0"
                                ]
                            },
                            {
                                "name": "b",
                                "type": "address[]",
                                "value": [
                                    "0x9b05e694d888d4e8d92189804bf70578cba793e4",
                                    "0xc02aaa39b223fe8d0a0e5c4f27ead9083c756cc2"
                                ]
                            },
                            {
                                "name": "c",
                                "type": "address",
                                "value": "0x7a250d5630b4cf539739df2c5dacb4c659f2488d"
                            },
                            {
                                "name": "d",
                                "type": "address",
                                "value": "0xa87e9864542a316a080fff9d50844b233e0cfeee"
                            }
                        ],
                        "constructorArguments": "",
                        "name": "SigmaSell",
                        "returnParams": [],
                        "signature": "SigmaSell(uint256[],address[],address,address)"
                    },
                    "errorInfo": "",
                    "fromAddress": "0x0b821e8735e3ed1af9008b8feac80aa8f62fb622",
                    "gasUsed": 184772,
                    "id": 0,
                    "methodDecoded": true,
                    "operation": "CALL",
                    "output": "0x00000000000000000000000000000000000000000000000000a80800ad6aa3a8",
                    "revert": false,
                    "revertMessage": "",
                    "selector": "0x3a571299",
                    "status": true,
                    "value": "0"
                },
                "nodeType": 0
            },
            "1": {
                "invocation": {
                    "address": "0xd6965f189dddc204999cb836b2bc832461818208",
                    "callData": "0x000000000000000000000000000000000000000000000000000000000000008000000000000000000000000000000000000000000000000000000000000001200000000000000000000000007a250d5630b4cf539739df2c5dacb4c659f2488d000000000000000000000000a87e9864542a316a080fff9d50844b233e0cfeee00000000000000000000000000000000000000000000000000000000000000040000000000000000000000000000000000000000000000000048191c1bcd5a8d00000000000000000000000000000000000000000000000000000000000000000000000000000000000000000000000000000000000000000000000000000000000000000000000000000000000000000000000000000000000000000000000000000000000000000000000000000000000000000000000000000000000000020000000000000000000000009b05e694d888d4e8d92189804bf70578cba793e4000000000000000000000000c02aaa39b223fe8d0a0e5c4f27ead9083c756cc2",
                    "decodedMethod": {
                        "callParams": [
                            {
                                "name": "a",
                                "type": "uint256[]",
                                "value": [
                                    "20,293,806,839,388,813",
                                    "0",
                                    "0",
                                    "0"
                                ]
                            },
                            {
                                "name": "b",
                                "type": "address[]",
                                "value": [
                                    "0x9b05e694d888d4e8d92189804bf70578cba793e4",
                                    "0xc02aaa39b223fe8d0a0e5c4f27ead9083c756cc2"
                                ]
                            },
                            {
                                "name": "c",
                                "type": "address",
                                "value": "0x7a250d5630b4cf539739df2c5dacb4c659f2488d"
                            },
                            {
                                "name": "d",
                                "type": "address",
                                "value": "0xa87e9864542a316a080fff9d50844b233e0cfeee"
                            }
                        ],
                        "constructorArguments": "",
                        "name": "SigmaSell",
                        "returnParams": [],
                        "signature": "SigmaSell(uint256[],address[],address,address)"
                    },
                    "errorInfo": "",
                    "fromAddress": "0x3a10dc1a145da500d5fba38b9ec49c8ff11a981f",
                    "gasUsed": 181374,
                    "id": 1,
                    "methodDecoded": true,
                    "operation": "DELEGATECALL",
                    "output": "0x00000000000000000000000000000000000000000000000000a80800ad6aa3a8",
                    "revert": false,
                    "revertMessage": "",
                    "selector": "0x3a571299",
                    "status": true,
                    "value": "0"
                },
                "nodeType": 0
            },
            "10": {
                "event": {
                    "contract": "0xc02aaa39b223fe8d0a0e5c4f27ead9083c756cc2",
                    "decodedLog": {
                        "name": "Transfer",
                        "params": [
                            {
                                "name": "src",
                                "type": "address",
                                "value": "0xf0ea6c4b09a0e3fd05d991eea5c82e5de06ae84e"
                            },
                            {
                                "name": "dst",
                                "type": "address",
                                "value": "0x3a10dc1a145da500d5fba38b9ec49c8ff11a981f"
                            },
                            {
                                "decimalAvailable": true,
                                "name": "wad",
                                "type": "uint256",
                                "value": "47,774,338,474,605,551"
                            }
                        ],
                        "signature": "Transfer(address,address,uint256)"
                    },
                    "id": 10,
                    "logData": "0x00000000000000000000000000000000000000000000000000a9ba81fa287bef",
                    "logDecoded": true,
                    "operation": "EVENT",
                    "revert": false,
                    "status": true,
                    "topics": [
                        "0xddf252ad1be2c89b69c2b068fc378daa952ba7f163c4a11628f55a4df523b3ef",
                        "0x000000000000000000000000f0ea6c4b09a0e3fd05d991eea5c82e5de06ae84e",
                        "0x0000000000000000000000003a10dc1a145da500d5fba38b9ec49c8ff11a981f"
                    ]
                },
                "nodeType": 1
            },
            "11": {
                "invocation": {
                    "address": "0x9b05e694d888d4e8d92189804bf70578cba793e4",
                    "callData": "0x000000000000000000000000f0ea6c4b09a0e3fd05d991eea5c82e5de06ae84e",
                    "decodedMethod": {
                        "callParams": [
                            {
                                "name": "account",
                                "type": "address",
                                "value": "0xf0ea6c4b09a0e3fd05d991eea5c82e5de06ae84e"
                            }
                        ],
                        "constructorArguments": "",
                        "name": "balanceOf",
                        "returnParams": [
                            {
                                "decimalAvailable": true,
                                "name": "",
                                "type": "uint256",
                                "value": "428,378,171,150,051,742"
                            }
                        ],
                        "signature": "balanceOf(address)"
                    },
                    "errorInfo": "",
                    "fromAddress": "0xf0ea6c4b09a0e3fd05d991eea5c82e5de06ae84e",
                    "gasUsed": 918,
                    "id": 11,
                    "methodDecoded": true,
                    "operation": "STATICCALL",
                    "output": "0x00000000000000000000000000000000000000000000000005f1e7ad50ee299e",
                    "revert": false,
                    "revertMessage": "",
                    "selector": "0x70a08231",
                    "status": true,
                    "value": "0"
                },
                "nodeType": 0
            },
            "12": {
                "invocation": {
                    "address": "0xc02aaa39b223fe8d0a0e5c4f27ead9083c756cc2",
                    "callData": "0x000000000000000000000000f0ea6c4b09a0e3fd05d991eea5c82e5de06ae84e",
                    "decodedMethod": {
                        "callParams": [
                            {
                                "name": "",
                                "type": "address",
                                "value": "0xf0ea6c4b09a0e3fd05d991eea5c82e5de06ae84e"
                            }
                        ],
                        "constructorArguments": "",
                        "name": "balanceOf",
                        "returnParams": [
                            {
                                "decimalAvailable": true,
                                "name": "",
                                "type": "uint256",
                                "value": "963,575,960,626,462,400"
                            }
                        ],
                        "signature": "balanceOf(address)"
                    },
                    "errorInfo": "",
                    "fromAddress": "0xf0ea6c4b09a0e3fd05d991eea5c82e5de06ae84e",
                    "gasUsed": 534,
                    "id": 12,
                    "methodDecoded": true,
                    "operation": "STATICCALL",
                    "output": "0x0000000000000000000000000000000000000000000000000d5f4f3b1f3efec0",
                    "revert": false,
                    "revertMessage": "",
                    "selector": "0x70a08231",
                    "status": true,
                    "value": "0"
                },
                "nodeType": 0
            },
            "13": {
                "event": {
                    "contract": "0xf0ea6c4b09a0e3fd05d991eea5c82e5de06ae84e",
                    "decodedLog": {
                        "name": "Sync",
                        "params": [
                            {
                                "name": "reserve0",
                                "type": "uint112",
                                "value": "428,378,171,150,051,742"
                            },
                            {
                                "name": "reserve1",
                                "type": "uint112",
                                "value": "963,575,960,626,462,400"
                            }
                        ],
                        "signature": "Sync(uint112,uint112)"
                    },
                    "id": 13,
                    "logData": "0x00000000000000000000000000000000000000000000000005f1e7ad50ee299e0000000000000000000000000000000000000000000000000d5f4f3b1f3efec0",
                    "logDecoded": true,
                    "operation": "EVENT",
                    "revert": false,
                    "status": true,
                    "topics": [
                        "0x1c411e9a96e071241c2f21f7726b17ae89e3cab4c78be50e062b03a9fffbbad1"
                    ]
                },
                "nodeType": 1
            },
            "14": {
                "event": {
                    "contract": "0xf0ea6c4b09a0e3fd05d991eea5c82e5de06ae84e",
                    "decodedLog": {
                        "name": "Swap",
                        "params": [
                            {
                                "name": "sender",
                                "type": "address",
                                "value": "0x3a10dc1a145da500d5fba38b9ec49c8ff11a981f"
                            },
                            {
                                "name": "to",
                                "type": "address",
                                "value": "0x3a10dc1a145da500d5fba38b9ec49c8ff11a981f"
                            },
                            {
                                "name": "amount0In",
                                "type": "uint256",
                                "value": "20,293,806,839,388,813"
                            },
                            {
                                "name": "amount1In",
                                "type": "uint256",
                                "value": "0"
                            },
                            {
                                "name": "amount0Out",
                                "type": "uint256",
                                "value": "0"
                            },
                            {
                                "name": "amount1Out",
                                "type": "uint256",
                                "value": "47,774,338,474,605,551"
                            }
                        ],
                        "signature": "Swap(address,uint256,uint256,uint256,uint256,address)"
                    },
                    "id": 14,
                    "logData": "0x0000000000000000000000000000000000000000000000000048191c1bcd5a8d0000000000000000000000000000000000000000000000000000000000000000000000000000000000000000000000000000000000000000000000000000000000000000000000000000000000000000000000000000000000a9ba81fa287bef",
                    "logDecoded": true,
                    "operation": "EVENT",
                    "revert": false,
                    "status": true,
                    "topics": [
                        "0xd78ad95fa46c994b6551d0da85fc275fe613ce37657fb8d5e3d130840159d822",
                        "0x0000000000000000000000003a10dc1a145da500d5fba38b9ec49c8ff11a981f",
                        "0x0000000000000000000000003a10dc1a145da500d5fba38b9ec49c8ff11a981f"
                    ]
                },
                "nodeType": 1
            },
            "15": {
                "invocation": {
                    "address": "0xc02aaa39b223fe8d0a0e5c4f27ead9083c756cc2",
                    "callData": "0x0000000000000000000000003a10dc1a145da500d5fba38b9ec49c8ff11a981f",
                    "decodedMethod": {
                        "callParams": [
                            {
                                "name": "",
                                "type": "address",
                                "value": "0x3a10dc1a145da500d5fba38b9ec49c8ff11a981f"
                            }
                        ],
                        "constructorArguments": "",
                        "name": "balanceOf",
                        "returnParams": [
                            {
                                "decimalAvailable": true,
                                "name": "",
                                "type": "uint256",
                                "value": "47,774,338,474,605,551"
                            }
                        ],
                        "signature": "balanceOf(address)"
                    },
                    "errorInfo": "",
                    "fromAddress": "0x3a10dc1a145da500d5fba38b9ec49c8ff11a981f",
                    "gasUsed": 534,
                    "id": 15,
                    "methodDecoded": true,
                    "operation": "STATICCALL",
                    "output": "0x00000000000000000000000000000000000000000000000000a9ba81fa287bef",
                    "revert": false,
                    "revertMessage": "",
                    "selector": "0x70a08231",
                    "status": true,
                    "value": "0"
                },
                "nodeType": 0
            },
            "16": {
                "invocation": {
                    "address": "0xc02aaa39b223fe8d0a0e5c4f27ead9083c756cc2",
                    "callData": "0x00000000000000000000000000000000000000000000000000a9ba81fa287bef",
                    "decodedMethod": {
                        "callParams": [
                            {
                                "name": "wad",
                                "type": "uint256",
                                "value": "47,774,338,474,605,551"
                            }
                        ],
                        "constructorArguments": "",
                        "name": "withdraw",
                        "returnParams": [],
                        "signature": "withdraw(uint256)"
                    },
                    "errorInfo": "",
                    "fromAddress": "0x3a10dc1a145da500d5fba38b9ec49c8ff11a981f",
                    "gasUsed": 9827,
                    "id": 16,
                    "methodDecoded": true,
                    "operation": "CALL",
                    "output": "",
                    "revert": false,
                    "revertMessage": "",
                    "selector": "0x2e1a7d4d",
                    "status": true,
                    "value": "0"
                },
                "nodeType": 0
            },
            "17": {
                "invocation": {
                    "address": "0x3a10dc1a145da500d5fba38b9ec49c8ff11a981f",
                    "callData": "0x",
                    "decodedMethod": null,
                    "errorInfo": "",
                    "fromAddress": "0xc02aaa39b223fe8d0a0e5c4f27ead9083c756cc2",
                    "gasUsed": 687,
                    "id": 17,
                    "methodDecoded": false,
                    "operation": "CALL",
                    "output": "",
                    "revert": false,
                    "revertMessage": "",
                    "selector": "fallback",
                    "status": true,
                    "value": "0.047774338474605551"
                },
                "nodeType": 0
            },
            "18": {
                "invocation": {
                    "address": "0xd6965f189dddc204999cb836b2bc832461818208",
                    "callData": "0x",
                    "decodedMethod": null,
                    "errorInfo": "",
                    "fromAddress": "0x3a10dc1a145da500d5fba38b9ec49c8ff11a981f",
                    "gasUsed": 55,
                    "id": 18,
                    "methodDecoded": false,
                    "operation": "DELEGATECALL",
                    "output": "",
                    "revert": false,
                    "revertMessage": "",
                    "selector": "fallback",
                    "status": true,
                    "value": "0.047774338474605551"
                },
                "nodeType": 0
            },
            "19": {
                "event": {
                    "contract": "0xc02aaa39b223fe8d0a0e5c4f27ead9083c756cc2",
                    "decodedLog": {
                        "name": "Withdrawal",
                        "params": [
                            {
                                "name": "src",
                                "type": "address",
                                "value": "0x3a10dc1a145da500d5fba38b9ec49c8ff11a981f"
                            },
                            {
                                "name": "wad",
                                "type": "uint256",
                                "value": "47,774,338,474,605,551"
                            }
                        ],
                        "signature": "Withdrawal(address,uint256)"
                    },
                    "id": 19,
                    "logData": "0x00000000000000000000000000000000000000000000000000a9ba81fa287bef",
                    "logDecoded": true,
                    "operation": "EVENT",
                    "revert": false,
                    "status": true,
                    "topics": [
                        "0x7fcf532c15f0a6db0bd6d0e038bea71d30d808c7d98cb3bf7268a95bf5081b65",
                        "0x0000000000000000000000003a10dc1a145da500d5fba38b9ec49c8ff11a981f"
                    ]
                },
                "nodeType": 1
            },
            "2": {
                "invocation": {
                    "address": "0xc02aaa39b223fe8d0a0e5c4f27ead9083c756cc2",
                    "callData": "0x0000000000000000000000003a10dc1a145da500d5fba38b9ec49c8ff11a981f",
                    "decodedMethod": {
                        "callParams": [
                            {
                                "name": "",
                                "type": "address",
                                "value": "0x3a10dc1a145da500d5fba38b9ec49c8ff11a981f"
                            }
                        ],
                        "constructorArguments": "",
                        "name": "balanceOf",
                        "returnParams": [
                            {
                                "decimalAvailable": true,
                                "name": "",
                                "type": "uint256",
                                "value": "0"
                            }
                        ],
                        "signature": "balanceOf(address)"
                    },
                    "errorInfo": "",
                    "fromAddress": "0x3a10dc1a145da500d5fba38b9ec49c8ff11a981f",
                    "gasUsed": 2534,
                    "id": 2,
                    "methodDecoded": true,
                    "operation": "STATICCALL",
                    "output": "0x0000000000000000000000000000000000000000000000000000000000000000",
                    "revert": false,
                    "revertMessage": "",
                    "selector": "0x70a08231",
                    "status": true,
                    "value": "0"
                },
                "nodeType": 0
            },
            "20": {
                "invocation": {
                    "address": "0x0b821e8735e3ed1af9008b8feac80aa8f62fb622",
                    "callData": "0x",
                    "decodedMethod": null,
                    "errorInfo": "",
                    "fromAddress": "0x3a10dc1a145da500d5fba38b9ec49c8ff11a981f",
                    "gasUsed": 0,
                    "id": 20,
                    "methodDecoded": false,
                    "operation": "CALL",
                    "output": "",
                    "revert": false,
                    "revertMessage": "",
                    "selector": "fallback",
                    "status": true,
                    "value": "0.047296595089859496"
                },
                "nodeType": 0
            },
            "21": {
                "invocation": {
                    "address": "0xa87e9864542a316a080fff9d50844b233e0cfeee",
                    "callData": "0x",
                    "decodedMethod": null,
                    "errorInfo": "",
                    "fromAddress": "0x3a10dc1a145da500d5fba38b9ec49c8ff11a981f",
                    "gasUsed": 0,
                    "id": 21,
                    "methodDecoded": false,
                    "operation": "CALL",
                    "output": "",
                    "revert": false,
                    "revertMessage": "",
                    "selector": "fallback",
                    "status": true,
                    "value": "0.000095548676949211"
                },
                "nodeType": 0
            },
            "22": {
                "event": {
                    "contract": "0x3a10dc1a145da500d5fba38b9ec49c8ff11a981f",
                    "decodedLog": null,
                    "id": 22,
                    "logData": "0x000000000000000000000000a87e9864542a316a080fff9d50844b233e0cfeee000000000000000000000000000000000000000000000000000056e6a8f2c4db",
                    "logDecoded": false,
                    "operation": "EVENT",
                    "revert": false,
                    "status": true,
                    "topics": [
                        "0x24c07d9526daec95fb72ea7cecc4cfc860c60f857757a60e897a08c0cf534e08"
                    ]
                },
                "nodeType": 1
            },
            "23": {
                "event": {
                    "contract": "0x3a10dc1a145da500d5fba38b9ec49c8ff11a981f",
                    "decodedLog": null,
                    "id": 23,
                    "logData": "0x0000000000000000000000000b821e8735e3ed1af9008b8feac80aa8f62fb62200000000000000000000000000000000000000000000000000a80800ad6aa3a8",
                    "logDecoded": false,
                    "operation": "EVENT",
                    "revert": false,
                    "status": true,
                    "topics": [
                        "0xbb9b838bf8ee8d0eb7d0a37afd5cdd707661780ede55ba2c8384368ca0c9db16"
                    ]
                },
                "nodeType": 1
            },
            "24": {
                "event": {
                    "contract": "0x3a10dc1a145da500d5fba38b9ec49c8ff11a981f",
                    "decodedLog": null,
                    "id": 24,
                    "logData": "0x0000000000000000000000000b821e8735e3ed1af9008b8feac80aa8f62fb6220000000000000000000000000000000000000000000000000001b2814cbdd847",
                    "logDecoded": false,
                    "operation": "EVENT",
                    "revert": false,
                    "status": true,
                    "topics": [
                        "0x3310ea14266209db2516cc8eae3e55230d2376e02becfb8094363ad465b7794c"
                    ]
                },
                "nodeType": 1
            },
            "3": {
                "invocation": {
                    "address": "0x9b05e694d888d4e8d92189804bf70578cba793e4",
                    "callData": "0x0000000000000000000000000b821e8735e3ed1af9008b8feac80aa8f62fb622000000000000000000000000f0ea6c4b09a0e3fd05d991eea5c82e5de06ae84e0000000000000000000000000000000000000000000000000048191c1bcd5a8d",
                    "decodedMethod": {
                        "callParams": [
                            {
                                "name": "sender",
                                "type": "address",
                                "value": "0x0b821e8735e3ed1af9008b8feac80aa8f62fb622"
                            },
                            {
                                "name": "recipient",
                                "type": "address",
                                "value": "0xf0ea6c4b09a0e3fd05d991eea5c82e5de06ae84e"
                            },
                            {
                                "decimalAvailable": true,
                                "name": "amount",
                                "type": "uint256",
                                "value": "20,293,806,839,388,813"
                            }
                        ],
                        "constructorArguments": "",
                        "name": "transferFrom",
                        "returnParams": [
                            {
                                "name": "",
                                "type": "bool",
                                "value": true
                            }
                        ],
                        "signature": "transferFrom(address,address,uint256)"
                    },
                    "errorInfo": "",
                    "fromAddress": "0x3a10dc1a145da500d5fba38b9ec49c8ff11a981f",
                    "gasUsed": 47377,
                    "id": 3,
                    "methodDecoded": true,
                    "operation": "CALL",
                    "output": "0x0000000000000000000000000000000000000000000000000000000000000001",
                    "revert": false,
                    "revertMessage": "",
                    "selector": "0x23b872dd",
                    "status": true,
                    "value": "0"
                },
                "nodeType": 0
            },
            "4": {
                "event": {
                    "contract": "0x9b05e694d888d4e8d92189804bf70578cba793e4",
                    "decodedLog": {
                        "name": "Transfer",
                        "params": [
                            {
                                "name": "from",
                                "type": "address",
                                "value": "0x0b821e8735e3ed1af9008b8feac80aa8f62fb622"
                            },
                            {
                                "name": "to",
                                "type": "address",
                                "value": "0xf0ea6c4b09a0e3fd05d991eea5c82e5de06ae84e"
                            },
                            {
                                "decimalAvailable": true,
                                "name": "value",
                                "type": "uint256",
                                "value": "20,293,806,839,388,813"
                            }
                        ],
                        "signature": "Transfer(address,address,uint256)"
                    },
                    "id": 4,
                    "logData": "0x0000000000000000000000000000000000000000000000000048191c1bcd5a8d",
                    "logDecoded": true,
                    "operation": "EVENT",
                    "revert": false,
                    "status": true,
                    "topics": [
                        "0xddf252ad1be2c89b69c2b068fc378daa952ba7f163c4a11628f55a4df523b3ef",
                        "0x0000000000000000000000000b821e8735e3ed1af9008b8feac80aa8f62fb622",
                        "0x000000000000000000000000f0ea6c4b09a0e3fd05d991eea5c82e5de06ae84e"
                    ]
                },
                "nodeType": 1
            },
            "5": {
                "event": {
                    "contract": "0x9b05e694d888d4e8d92189804bf70578cba793e4",
                    "decodedLog": {
                        "name": "Approval",
                        "params": [
                            {
                                "name": "owner",
                                "type": "address",
                                "value": "0x0b821e8735e3ed1af9008b8feac80aa8f62fb622"
                            },
                            {
                                "name": "spender",
                                "type": "address",
                                "value": "0x3a10dc1a145da500d5fba38b9ec49c8ff11a981f"
                            },
                            {
                                "decimalAvailable": true,
                                "name": "value",
                                "type": "uint256",
                                "value": "115,792,089,237,316,195,423,570,985,008,687,907,853,269,984,665,640,564,039,457,554,307,912,293,364,385"
                            }
                        ],
                        "signature": "Approval(address,address,uint256)"
                    },
                    "id": 5,
                    "logData": "0xffffffffffffffffffffffffffffffffffffffffffffffffff967c01b05332a1",
                    "logDecoded": true,
                    "operation": "EVENT",
                    "revert": false,
                    "status": true,
                    "topics": [
                        "0x8c5be1e5ebec7d5bd14f71427d1e84f3dd0314c0f7b2291e5b200ac8c7c3b925",
                        "0x0000000000000000000000000b821e8735e3ed1af9008b8feac80aa8f62fb622",
                        "0x0000000000000000000000003a10dc1a145da500d5fba38b9ec49c8ff11a981f"
                    ]
                },
                "nodeType": 1
            },
            "6": {
                "invocation": {
                    "address": "0xf0ea6c4b09a0e3fd05d991eea5c82e5de06ae84e",
                    "callData": "0x",
                    "decodedMethod": {
                        "callParams": [],
                        "constructorArguments": "",
                        "name": "getReserves",
                        "returnParams": [
                            {
                                "name": "_reserve0",
                                "type": "uint112",
                                "value": "408,084,364,310,662,929"
                            },
                            {
                                "name": "_reserve1",
                                "type": "uint112",
                                "value": "1,011,350,299,101,067,951"
                            },
                            {
                                "name": "_blockTimestampLast",
                                "type": "uint32",
                                "value": "1,726,930,931"
                            }
                        ],
                        "signature": "getReserves()"
                    },
                    "errorInfo": "",
                    "fromAddress": "0x3a10dc1a145da500d5fba38b9ec49c8ff11a981f",
                    "gasUsed": 2504,
                    "id": 6,
                    "methodDecoded": true,
                    "operation": "STATICCALL",
                    "output": "0x00000000000000000000000000000000000000000000000005a9ce913520cf110000000000000000000000000000000000000000000000000e0909bd19677aaf0000000000000000000000000000000000000000000000000000000066eedff3",
                    "revert": false,
                    "revertMessage": "",
                    "selector": "0x0902f1ac",
                    "status": true,
                    "value": "0"
                },
                "nodeType": 0
            },
            "7": {
                "invocation": {
                    "address": "0x9b05e694d888d4e8d92189804bf70578cba793e4",
                    "callData": "0x000000000000000000000000f0ea6c4b09a0e3fd05d991eea5c82e5de06ae84e",
                    "decodedMethod": {
                        "callParams": [
                            {
                                "name": "account",
                                "type": "address",
                                "value": "0xf0ea6c4b09a0e3fd05d991eea5c82e5de06ae84e"
                            }
                        ],
                        "constructorArguments": "",
                        "name": "balanceOf",
                        "returnParams": [
                            {
                                "decimalAvailable": true,
                                "name": "",
                                "type": "uint256",
                                "value": "428,378,171,150,051,742"
                            }
                        ],
                        "signature": "balanceOf(address)"
                    },
                    "errorInfo": "",
                    "fromAddress": "0x3a10dc1a145da500d5fba38b9ec49c8ff11a981f",
                    "gasUsed": 918,
                    "id": 7,
                    "methodDecoded": true,
                    "operation": "STATICCALL",
                    "output": "0x00000000000000000000000000000000000000000000000005f1e7ad50ee299e",
                    "revert": false,
                    "revertMessage": "",
                    "selector": "0x70a08231",
                    "status": true,
                    "value": "0"
                },
                "nodeType": 0
            },
            "8": {
                "invocation": {
                    "address": "0xf0ea6c4b09a0e3fd05d991eea5c82e5de06ae84e",
                    "callData": "0x000000000000000000000000000000000000000000000000000000000000000000000000000000000000000000000000000000000000000000a9ba81fa287bef0000000000000000000000003a10dc1a145da500d5fba38b9ec49c8ff11a981f00000000000000000000000000000000000000000000000000000000000000800000000000000000000000000000000000000000000000000000000000000000",
                    "decodedMethod": {
                        "callParams": [
                            {
                                "name": "amount0Out",
                                "type": "uint256",
                                "value": "0"
                            },
                            {
                                "name": "amount1Out",
                                "type": "uint256",
                                "value": "47,774,338,474,605,551"
                            },
                            {
                                "name": "to",
                                "type": "address",
                                "value": "0x3a10dc1a145da500d5fba38b9ec49c8ff11a981f"
                            },
                            {
                                "name": "data",
                                "type": "bytes",
                                "value": "0x"
                            }
                        ],
                        "constructorArguments": "",
                        "name": "swap",
                        "returnParams": [],
                        "signature": "swap(uint256,uint256,address,bytes)"
                    },
                    "errorInfo": "",
                    "fromAddress": "0x3a10dc1a145da500d5fba38b9ec49c8ff11a981f",
                    "gasUsed": 60737,
                    "id": 8,
                    "methodDecoded": true,
                    "operation": "CALL",
                    "output": "",
                    "revert": false,
                    "revertMessage": "",
                    "selector": "0x022c0d9f",
                    "status": true,
                    "value": "0"
                },
                "nodeType": 0
            },
            "9": {
                "invocation": {
                    "address": "0xc02aaa39b223fe8d0a0e5c4f27ead9083c756cc2",
                    "callData": "0x0000000000000000000000003a10dc1a145da500d5fba38b9ec49c8ff11a981f00000000000000000000000000000000000000000000000000a9ba81fa287bef",
                    "decodedMethod": {
                        "callParams": [
                            {
                                "name": "dst",
                                "type": "address",
                                "value": "0x3a10dc1a145da500d5fba38b9ec49c8ff11a981f"
                            },
                            {
                                "decimalAvailable": true,
                                "name": "wad",
                                "type": "uint256",
                                "value": "47,774,338,474,605,551"
                            }
                        ],
                        "constructorArguments": "",
                        "name": "transfer",
                        "returnParams": [
                            {
                                "name": "",
                                "type": "bool",
                                "value": true
                            }
                        ],
                        "signature": "transfer(address,uint256)"
                    },
                    "errorInfo": "",
                    "fromAddress": "0xf0ea6c4b09a0e3fd05d991eea5c82e5de06ae84e",
                    "gasUsed": 27962,
                    "id": 9,
                    "methodDecoded": true,
                    "operation": "CALL",
                    "output": "0x0000000000000000000000000000000000000000000000000000000000000001",
                    "revert": false,
                    "revertMessage": "",
                    "selector": "0xa9059cbb",
                    "status": true,
                    "value": "0"
                },
                "nodeType": 0
            }
        },
        "gasFlame": [
            {
                "children": [
                    {
                        "children": [
                            {
                                "children": [],
                                "depth": 0,
                                "name": "Initial Gas",
                                "value": 23704
                            },
                            {
                                "children": [
                                    {
                                        "children": [
                                            {
                                                "children": [],
                                                "depth": 2,
                                                "name": "balanceOf",
                                                "value": 2534
                                            },
                                            {
                                                "children": [],
                                                "depth": 2,
                                                "name": "transferFrom",
                                                "value": 47377
                                            },
                                            {
                                                "children": [],
                                                "depth": 2,
                                                "name": "getReserves",
                                                "value": 2504
                                            },
                                            {
                                                "children": [],
                                                "depth": 2,
                                                "name": "balanceOf",
                                                "value": 918
                                            },
                                            {
                                                "children": [
                                                    {
                                                        "children": [],
                                                        "depth": 3,
                                                        "name": "transfer",
                                                        "value": 27962
                                                    },
                                                    {
                                                        "children": [],
                                                        "depth": 3,
                                                        "name": "balanceOf",
                                                        "value": 918
                                                    },
                                                    {
                                                        "children": [],
                                                        "depth": 3,
                                                        "name": "balanceOf",
                                                        "value": 534
                                                    }
                                                ],
                                                "depth": 2,
                                                "name": "swap",
                                                "value": 60737
                                            },
                                            {
                                                "children": [],
                                                "depth": 2,
                                                "name": "balanceOf",
                                                "value": 534
                                            },
                                            {
                                                "children": [
                                                    {
                                                        "children": [
                                                            {
                                                                "children": [],
                                                                "depth": 4,
                                                                "name": "fallback",
                                                                "value": 55
                                                            }
                                                        ],
                                                        "depth": 3,
                                                        "name": "fallback",
                                                        "value": 687
                                                    }
                                                ],
                                                "depth": 2,
                                                "name": "withdraw",
                                                "value": 9827
                                            },
                                            {
                                                "children": [],
                                                "depth": 2,
                                                "name": "fallback",
                                                "value": 0
                                            },
                                            {
                                                "children": [],
                                                "depth": 2,
                                                "name": "fallback",
                                                "value": 0
                                            }
                                        ],
                                        "depth": 1,
                                        "name": "SigmaSell",
                                        "value": 181374
                                    }
                                ],
                                "depth": 0,
                                "name": "Executed Gas",
                                "value": 188568
                            }
                        ],
                        "depth": -1,
                        "name": "Actual Gas Used",
                        "value": 184772
                    },
                    {
                        "children": [],
                        "depth": -1,
                        "name": "Refunded Gas",
                        "value": 27500
                    }
                ],
                "depth": -2,
                "name": "Total Gas",
                "value": 212272
            }
        ],
        "isConfirmed": true,
        "mainTrace": [
            {
                "children": [
                    {
                        "children": [
                            {
                                "children": [
                                    {
                                        "children": [],
                                        "depth": 2,
                                        "id": 2,
                                        "order": 2
                                    },
                                    {
                                        "children": [
                                            {
                                                "children": [],
                                                "depth": 3,
                                                "id": 4,
                                                "order": 4
                                            },
                                            {
                                                "children": [],
                                                "depth": 3,
                                                "id": 5,
                                                "order": 5
                                            }
                                        ],
                                        "depth": 2,
                                        "id": 3,
                                        "order": 3
                                    },
                                    {
                                        "children": [],
                                        "depth": 2,
                                        "id": 6,
                                        "order": 6
                                    },
                                    {
                                        "children": [],
                                        "depth": 2,
                                        "id": 7,
                                        "order": 7
                                    },
                                    {
                                        "children": [
                                            {
                                                "children": [
                                                    {
                                                        "children": [],
                                                        "depth": 4,
                                                        "id": 10,
                                                        "order": 10
                                                    }
                                                ],
                                                "depth": 3,
                                                "id": 9,
                                                "order": 9
                                            },
                                            {
                                                "children": [],
                                                "depth": 3,
                                                "id": 11,
                                                "order": 11
                                            },
                                            {
                                                "children": [],
                                                "depth": 3,
                                                "id": 12,
                                                "order": 12
                                            },
                                            {
                                                "children": [],
                                                "depth": 3,
                                                "id": 13,
                                                "order": 13
                                            },
                                            {
                                                "children": [],
                                                "depth": 3,
                                                "id": 14,
                                                "order": 14
                                            }
                                        ],
                                        "depth": 2,
                                        "id": 8,
                                        "order": 8
                                    },
                                    {
                                        "children": [],
                                        "depth": 2,
                                        "id": 15,
                                        "order": 15
                                    },
                                    {
                                        "children": [
                                            {
                                                "children": [
                                                    {
                                                        "children": [],
                                                        "depth": 4,
                                                        "id": 18,
                                                        "order": 18
                                                    }
                                                ],
                                                "depth": 3,
                                                "id": 17,
                                                "order": 17
                                            },
                                            {
                                                "children": [],
                                                "depth": 3,
                                                "id": 19,
                                                "order": 19
                                            }
                                        ],
                                        "depth": 2,
                                        "id": 16,
                                        "order": 16
                                    },
                                    {
                                        "children": [],
                                        "depth": 2,
                                        "id": 20,
                                        "order": 20
                                    },
                                    {
                                        "children": [],
                                        "depth": 2,
                                        "id": 21,
                                        "order": 21
                                    },
                                    {
                                        "children": [],
                                        "depth": 2,
                                        "id": 22,
                                        "order": 22
                                    },
                                    {
                                        "children": [],
                                        "depth": 2,
                                        "id": 23,
                                        "order": 23
                                    },
                                    {
                                        "children": [],
                                        "depth": 2,
                                        "id": 24,
                                        "order": 24
                                    }
                                ],
                                "depth": 1,
                                "id": 1,
                                "order": 1
                            }
                        ],
                        "depth": 0,
                        "id": 0,
                        "order": 0
                    }
                ],
                "depth": -1,
                "id": -1,
                "order": -1
            }
        ],
        "mainTraceNodeCount": 25,
        "parentIdMap": {
            "0": -1,
            "1": 0,
            "10": 9,
            "11": 8,
            "12": 8,
            "13": 8,
            "14": 8,
            "15": 1,
            "16": 1,
            "17": 16,
            "18": 17,
            "19": 16,
            "2": 1,
            "20": 1,
            "21": 1,
            "22": 1,
            "23": 1,
            "24": 1,
            "3": 1,
            "4": 3,
            "5": 3,
            "6": 1,
            "7": 1,
            "8": 1,
            "9": 8
        },
        "tidyTrace": [
            {
                "children": [
                    {
                        "children": [
                            {
                                "children": [
                                    {
                                        "children": [
                                            {
                                                "children": [],
                                                "depth": 3,
                                                "id": 4,
                                                "order": 4
                                            },
                                            {
                                                "children": [],
                                                "depth": 3,
                                                "id": 5,
                                                "order": 5
                                            }
                                        ],
                                        "depth": 2,
                                        "id": 3,
                                        "order": 3
                                    },
                                    {
                                        "children": [
                                            {
                                                "children": [
                                                    {
                                                        "children": [],
                                                        "depth": 4,
                                                        "id": 10,
                                                        "order": 10
                                                    }
                                                ],
                                                "depth": 3,
                                                "id": 9,
                                                "order": 9
                                            },
                                            {
                                                "children": [],
                                                "depth": 3,
                                                "id": 13,
                                                "order": 13
                                            },
                                            {
                                                "children": [],
                                                "depth": 3,
                                                "id": 14,
                                                "order": 14
                                            }
                                        ],
                                        "depth": 2,
                                        "id": 8,
                                        "order": 8
                                    },
                                    {
                                        "children": [
                                            {
                                                "children": [
                                                    {
                                                        "children": [],
                                                        "depth": 4,
                                                        "id": 18,
                                                        "order": 18
                                                    }
                                                ],
                                                "depth": 3,
                                                "id": 17,
                                                "order": 17
                                            },
                                            {
                                                "children": [],
                                                "depth": 3,
                                                "id": 19,
                                                "order": 19
                                            }
                                        ],
                                        "depth": 2,
                                        "id": 16,
                                        "order": 16
                                    },
                                    {
                                        "children": [],
                                        "depth": 2,
                                        "id": 20,
                                        "order": 20
                                    },
                                    {
                                        "children": [],
                                        "depth": 2,
                                        "id": 21,
                                        "order": 21
                                    },
                                    {
                                        "children": [],
                                        "depth": 2,
                                        "id": 22,
                                        "order": 22
                                    },
                                    {
                                        "children": [],
                                        "depth": 2,
                                        "id": 23,
                                        "order": 23
                                    },
                                    {
                                        "children": [],
                                        "depth": 2,
                                        "id": 24,
                                        "order": 24
                                    }
                                ],
                                "depth": 1,
                                "id": 1,
                                "order": 1
                            }
                        ],
                        "depth": 0,
                        "id": 0,
                        "order": 0
                    }
                ],
                "depth": -1,
                "id": -1,
                "order": -1
            }
        ],
        "tidyTraceNodeCount": 19
    },
    "state_change": {
        "stateChanges": [
            {
                "address": "0x9b05e694d888d4e8d92189804bf70578cba793e4",
                "erc": "ERC-20",
                "slots": [
                    {
                        "current": "0x0000000000000000000000000000000000000000000000000000000000000000",
                        "key": "0x1246529e96e5c0f2982c52b52a09d5795d8a799e8ed71734cd71e47050618e6b",
                        "prev": "0x0000000000000000000000000000000000000000000000000048191c1bcd5a8d"
                    },
                    {
                        "current": "0x00000000000000000000000000000000000000000000000005f1e7ad50ee299e",
                        "key": "0xafb67fa61e0c4c525636f0856b5f0dce4f57ec1137949bc9b726cb6476e7f6ab",
                        "prev": "0x00000000000000000000000000000000000000000000000005a9ce913520cf11"
                    },
                    {
                        "current": "0xffffffffffffffffffffffffffffffffffffffffffffffffff967c01b05332a1",
                        "key": "0x9bb36b9c8c664f6c33735df37fa3472f6374e08a520753de383e2e21db785b05",
                        "prev": "0xffffffffffffffffffffffffffffffffffffffffffffffffffde951dcc208d2e"
                    }
                ],
                "storageVariables": [
                    {
                        "name": "_balances",
                        "type": "mapping(address => uint256)",
                        "value": {
                            "pairs": [
                                {
                                    "key": "0x0b821e8735e3ed1af9008b8feac80aa8f62fb622",
                                    "value": {
                                        "current": "0",
                                        "prev": "20293806839388813",
                                        "typeTag": 1
                                    }
                                },
                                {
                                    "key": "0xf0ea6c4b09a0e3fd05d991eea5c82e5de06ae84e",
                                    "value": {
                                        "current": "428378171150051742",
                                        "prev": "408084364310662929",
                                        "typeTag": 1
                                    }
                                }
                            ],
                            "typeTag": 4
                        }
                    },
                    {
                        "name": "_allowances",
                        "type": "mapping(address => mapping(address => uint256))",
                        "value": {
                            "pairs": [
                                {
                                    "key": "0x0b821e8735e3ed1af9008b8feac80aa8f62fb622",
                                    "value": {
                                        "pairs": [
                                            {
                                                "key": "0x3a10dc1a145da500d5fba38b9ec49c8ff11a981f",
                                                "value": {
                                                    "current": "115792089237316195423570985008687907853269984665640564039457554307912293364385",
                                                    "prev": "115792089237316195423570985008687907853269984665640564039457574601719132753198",
                                                    "typeTag": 1
                                                }
                                            }
                                        ],
                                        "typeTag": 4
                                    }
                                }
                            ],
                            "typeTag": 4
                        }
                    }
                ]
            },
            {
                "address": "0xc02aaa39b223fe8d0a0e5c4f27ead9083c756cc2",
                "erc": "ERC-20",
                "slots": [
                    {
                        "current": "0x0000000000000000000000000000000000000000000000000d5f4f3b1f3efec0",
                        "key": "0x12ed2f458d03f97681b2bc363fac2c4bf42dca6893f5614fd05b8cc33192065f",
                        "prev": "0x0000000000000000000000000000000000000000000000000e0909bd19677aaf"
                    }
                ],
                "storageVariables": [
                    {
                        "name": "balanceOf",
                        "type": "mapping(address => uint256)",
                        "value": {
                            "pairs": [
                                {
                                    "key": "0xf0ea6c4b09a0e3fd05d991eea5c82e5de06ae84e",
                                    "value": {
                                        "current": "963575960626462400",
                                        "prev": "1011350299101067951",
                                        "typeTag": 1
                                    }
                                }
                            ],
                            "typeTag": 4
                        }
                    }
                ]
            },
            {
                "address": "0xf0ea6c4b09a0e3fd05d991eea5c82e5de06ae84e",
                "erc": "ERC-20",
                "slots": [
                    {
                        "current": "0x00000000000000000000000000000009b725e6f72541ae5d7011e669b12152ec",
                        "key": "0x0000000000000000000000000000000000000000000000000000000000000009",
                        "prev": "0x00000000000000000000000000000009b6aef1c56179bef66f8460566a76381c"
                    },
                    {
                        "current": "0x000000000000000000000000000000006c31ad8ea198392e1308b7a3dbd50518",
                        "key": "0x000000000000000000000000000000000000000000000000000000000000000a",
                        "prev": "0x000000000000000000000000000000006c1e4f4b5411b9a32a9c020d72840168"
                    },
                    {
                        "current": "0x66eee0230000000000000d5f4f3b1f3efec000000000000005f1e7ad50ee299e",
                        "key": "0x0000000000000000000000000000000000000000000000000000000000000008",
                        "prev": "0x66eedff30000000000000e0909bd19677aaf00000000000005a9ce913520cf11"
                    }
                ],
                "storageVariables": [
                    {
                        "name": "price0CumulativeLast",
                        "type": "uint256",
                        "value": {
                            "current": "3305986825035946894398568106315447620332",
                            "prev": "3305369160873515643181285618154927962140",
                            "typeTag": 1
                        }
                    },
                    {
                        "name": "price1CumulativeLast",
                        "type": "uint256",
                        "value": {
                            "current": "143814566248110742922557716648714110232",
                            "prev": "143714000729016005365871269419413668200",
                            "typeTag": 1
                        }
                    },
                    {
                        "name": "reserve0",
                        "type": "uint112",
                        "value": {
                            "current": "428378171150051742",
                            "prev": "408084364310662929",
                            "typeTag": 1
                        }
                    },
                    {
                        "name": "reserve1",
                        "type": "uint112",
                        "value": {
                            "current": "963575960626462400",
                            "prev": "1011350299101067951",
                            "typeTag": 1
                        }
                    },
                    {
                        "name": "blockTimestampLast",
                        "type": "uint32",
                        "value": {
                            "current": "1726930979",
                            "prev": "1726930931",
                            "typeTag": 1
                        }
                    }
                ]
            }
        ]
    }
}