{
    "balance_change": {
        "balanceChanges": [
            {
                "account": "0x1907aa44a10206ab84804f0dfd0a70772013ef31",
                "assets": [
                    {
                        "address": "0xbeef698bd78139829e540622d5863e723e8715f1",
                        "amount": "99,728,522,449.860808592",
                        "iconUrl": "",
                        "isERC1155": false,
                        "isERC721": false,
                        "sign": false,
                        "value": "885.4920613"
                    },
                    {
                        "address": "0xeeeeeeeeeeeeeeeeeeeeeeeeeeeeeeeeeeeeeeee",
                        "amount": "0.250115437684258198",
                        "iconUrl": "https://assets.blocksec.com/image/1663669189317-3.png",
                        "isERC1155": false,
                        "isERC721": false,
                        "sign": true,
                        "value": "880.5753687167976552"
                    }
                ]
            },
            {
                "account": "0x41f11282fb5330700a6c8a67dd2c7ebb9b8adfa5",
                "assets": [
                    {
                        "address": "0xbeef698bd78139829e540622d5863e723e8715f1",
                        "amount": "99,728,522,449.860808592",
                        "iconUrl": "",
                        "isERC1155": false,
                        "isERC721": false,
                        "sign": true,
                        "value": "885.4920613"
                    },
                    {
                        "address": "0xc02aaa39b223fe8d0a0e5c4f27ead9083c756cc2",
                        "amount": "0.250868041809687259",
                        "iconUrl": "https://assets.blocksec.com/icon/f1cb2d02c471d545bbc7722daf3277fd852d98e63d118771af7047bd8256c516.png",
                        "isERC1155": false,
                        "isERC721": false,
                        "sign": false,
                        "value": "883.2250437586484353"
                    }
                ]
            },
            {
                "account": "0xb4afc59ce123bf0676c362c21a92a721d68c8345",
                "assets": [
                    {
                        "address": "0xeeeeeeeeeeeeeeeeeeeeeeeeeeeeeeeeeeeeeeee",
                        "amount": "0.000752604125429061",
                        "iconUrl": "https://assets.blocksec.com/image/1663669189317-3.png",
                        "isERC1155": false,
                        "isERC721": false,
                        "sign": true,
                        "value": "2.6496751312759453058"
                    }
                ]
            },
            {
                "account": "0xc02aaa39b223fe8d0a0e5c4f27ead9083c756cc2",
                "assets": [
                    {
                        "address": "0xeeeeeeeeeeeeeeeeeeeeeeeeeeeeeeeeeeeeeeee",
                        "amount": "0.250868041809687259",
                        "iconUrl": "https://assets.blocksec.com/image/1663669189317-3.png",
                        "isERC1155": false,
                        "isERC721": false,
                        "sign": false,
                        "value": "883.2250437586484353"
                    },
                    {
                        "address": "0xc02aaa39b223fe8d0a0e5c4f27ead9083c756cc2",
                        "amount": "0.250868041809687259",
                        "iconUrl": "https://assets.blocksec.com/icon/f1cb2d02c471d545bbc7722daf3277fd852d98e63d118771af7047bd8256c516.png",
                        "isERC1155": false,
                        "isERC721": false,
                        "sign": true,
                        "value": "883.2250437586484353"
                    }
                ]
            }
        ]
    },
    "profile": {
        "basic_info": {
            "baseFee": "12.279951127",
            "blockNumber": 20133325,
            "callData": "0x0938b20b0000000000000000000000000000000000000000000000000000000000000020000000000000000000000000beef698bd78139829e540622d5863e723e8715f1000000000000000000000000eeeeeeeeeeeeeeeeeeeeeeeeeeeeeeeeeeeeeeee00000000000000000000000041f11282fb5330700a6c8a67dd2c7ebb9b8adfa50000000000000000000000001907aa44a10206ab84804f0dfd0a70772013ef310000000000000000000000000000000000000000000000056802e2c8a685cf9000000000000000000000000000000000000000000000000003451745ddfb4b5d0000000000000000000000000000000000000000000000000000000000000001000000000000000000000000000000000000000000000000000000000000001e000000000000000000000000b4afc59ce123bf0676c362c21a92a721d68c83450000000000000000000000000000000000000000000000000000000000000000000000000000000000000000b4afc59ce123bf0676c362c21a92a721d68c834500000000000000000000000000000000000000000000000000000000000001a00000000000000000000000000000000000000000000000000000000000000240000000000000000000000000000000000000000000000000000000000000000100000000000000000000000041f11282fb5330700a6c8a67dd2c7ebb9b8adfa5000000000000000000000000beef698bd78139829e540622d5863e723e8715f1000000000000000000000000c02aaa39b223fe8d0a0e5c4f27ead9083c756cc20000000000000000000000007a250d5630b4cf539739df2c5dacb4c659f2488d0000000000000000000000000000000000000000000000000000000000000000",
            "debugEnable": true,
            "errorInfo": "",
            "eventCount": 8,
            "feeRecipient": "0x4838b106fce9647bdf1e7877bf73ce8b0bad5f97",
            "formatValue": "0",
            "gasLimit": 319550,
            "gasPrice": "12.854267033",
            "gasUsed": 199533,
            "intTxnCount": 23,
            "internalRevert": false,
            "internalRevertMessage": "",
            "isContractCreation": false,
            "isFlashloan": false,
            "maxFee": "",
            "nonce": 43,
            "overwritedBlockNumber": -1,
            "priorityFee": "",
            "receiver": "0x77edae6a5f332605720688c7fda7476476e8f83f",
            "revertMessage": "",
            "sender": "0x1907aa44a10206ab84804f0dfd0a70772013ef31",
            "simulationEnable": true,
            "sourceTxnHash": "0x5ff88af1c57fbc10c2e0b965870db650617859f766d9bb059602e0bc13ebaa63",
            "status": true,
            "timestamp": "2024-06-20T13:45:59Z",
            "transactionFee": "0.002564850463895589",
            "txnHash": "0x5ff88af1c57fbc10c2e0b965870db650617859f766d9bb059602e0bc13ebaa63",
            "txnIndex": 56,
            "type": 0,
            "value": "0"
        },
        "fund_flow": [
            {
                "amount": "99,728,522,449.860808592",
                "from": "0x1907aa44a10206ab84804f0dfd0a70772013ef31",
                "id": 1,
                "isERC1155": false,
                "isERC721": false,
                "isReverted": false,
                "order": 1,
                "to": "0x41f11282fb5330700a6c8a67dd2c7ebb9b8adfa5",
                "token": "0xbeef698bd78139829e540622d5863e723e8715f1"
            },
            {
                "amount": "0.250868041809687259",
                "from": "0x41f11282fb5330700a6c8a67dd2c7ebb9b8adfa5",
                "id": 2,
                "isERC1155": false,
                "isERC721": false,
                "isReverted": false,
                "order": 2,
                "to": "0x77edae6a5f332605720688c7fda7476476e8f83f",
                "token": "0xc02aaa39b223fe8d0a0e5c4f27ead9083c756cc2"
            },
            {
                "amount": "0.250868041809687259",
                "from": "0x77edae6a5f332605720688c7fda7476476e8f83f",
                "id": 3,
                "isERC1155": false,
                "isERC721": false,
                "isReverted": false,
                "order": 3,
                "to": "0xdcf63a49f5938fd3b673271015ecf1aa3a2ef154",
                "token": "0xc02aaa39b223fe8d0a0e5c4f27ead9083c756cc2"
            },
            {
                "amount": "0.250868041809687259",
                "from": "0xc02aaa39b223fe8d0a0e5c4f27ead9083c756cc2",
                "id": 4,
                "isERC1155": false,
                "isERC721": false,
                "isReverted": false,
                "order": 4,
                "to": "0xdcf63a49f5938fd3b673271015ecf1aa3a2ef154",
                "token": "0xeeeeeeeeeeeeeeeeeeeeeeeeeeeeeeeeeeeeeeee"
            },
            {
                "amount": "0.250868041809687259",
                "from": "0xdcf63a49f5938fd3b673271015ecf1aa3a2ef154",
                "id": 5,
                "isERC1155": false,
                "isERC721": false,
                "isReverted": false,
                "order": 5,
                "to": "0xc02aaa39b223fe8d0a0e5c4f27ead9083c756cc2",
                "token": "0xc02aaa39b223fe8d0a0e5c4f27ead9083c756cc2"
            },
            {
                "amount": "0.250868041809687259",
                "from": "0xdcf63a49f5938fd3b673271015ecf1aa3a2ef154",
                "id": 6,
                "isERC1155": false,
                "isERC721": false,
                "isReverted": false,
                "order": 6,
                "to": "0x77edae6a5f332605720688c7fda7476476e8f83f",
                "token": "0xeeeeeeeeeeeeeeeeeeeeeeeeeeeeeeeeeeeeeeee"
            },
            {
                "amount": "0.000752604125429061",
                "from": "0x77edae6a5f332605720688c7fda7476476e8f83f",
                "id": 7,
                "isERC1155": false,
                "isERC721": false,
                "isReverted": false,
                "order": 7,
                "to": "0xb4afc59ce123bf0676c362c21a92a721d68c8345",
                "token": "0xeeeeeeeeeeeeeeeeeeeeeeeeeeeeeeeeeeeeeeee"
            },
            {
                "amount": "0.250115437684258198",
                "from": "0x77edae6a5f332605720688c7fda7476476e8f83f",
                "id": 8,
                "isERC1155": false,
                "isERC721": false,
                "isReverted": false,
                "order": 8,
                "to": "0x1907aa44a10206ab84804f0dfd0a70772013ef31",
                "token": "0xeeeeeeeeeeeeeeeeeeeeeeeeeeeeeeeeeeeeeeee"
            }
        ],
        "token_infos": [
            {
                "address": "0xbeef698bd78139829e540622d5863e723e8715f1",
                "decimals": 9
            },
            {
                "address": "0xc02aaa39b223fe8d0a0e5c4f27ead9083c756cc2",
                "decimals": 18
            },
            {
                "address": "0xeeeeeeeeeeeeeeeeeeeeeeeeeeeeeeeeeeeeeeee",
                "decimals": 18
            }
        ]
    },
    "address_label": {
        "labels": [
            {
                "address": "0x0000000000000000000000000000000000000003",
                "label": "Precompiled"
            },
            {
                "address": "0xc02aaa39b223fe8d0a0e5c4f27ead9083c756cc2",
                "label": "Wrapped Ether (WETH)"
            },
            {
                "address": "0x41f11282fb5330700a6c8a67dd2c7ebb9b8adfa5",
                "label": "Uniswap V2: BEEF 30"
            },
            {
                "address": "0xbeef698bd78139829e540622d5863e723e8715f1",
                "label": "PepeBull: BEEF Token"
            },
            {
                "address": "0x0000000000000000000000000000000000000001",
                "label": "Precompiled"
            },
            {
                "address": "0x0000000000000000000000000000000000000002",
                "label": "Precompiled"
            },
            {
                "address": "0x0000000000000000000000000000000000000004",
                "label": "Precompiled"
            },
            {
                "address": "0xeeeeeeeeeeeeeeeeeeeeeeeeeeeeeeeeeeeeeeee",
                "label": "Ether"
            },
            {
                "address": "0x7a250d5630b4cf539739df2c5dacb4c659f2488d",
                "label": "Uniswap V2: Router 2"
            },
            {
                "address": "0x77edae6a5f332605720688c7fda7476476e8f83f",
                "label": "TransparentUpgradeableProxy"
            }
        ]
    },
    "trace": {
        "accountLabels": null,
        "dataMap": {
            "-1": {
                "invocation": {
                    "address": "0x1907aa44a10206ab84804f0dfd0a70772013ef31",
                    "callData": "",
                    "decodedMethod": null,
                    "errorInfo": "",
                    "fromAddress": "",
                    "gasUsed": 0,
                    "id": -1,
                    "methodDecoded": false,
                    "operation": "",
                    "output": "",
                    "revert": false,
                    "revertMessage": "",
                    "selector": "",
                    "status": false,
                    "value": ""
                },
                "nodeType": 0
            },
            "0": {
                "invocation": {
                    "address": "0x77edae6a5f332605720688c7fda7476476e8f83f",
                    "callData": "0x0000000000000000000000000000000000000000000000000000000000000020000000000000000000000000beef698bd78139829e540622d5863e723e8715f1000000000000000000000000eeeeeeeeeeeeeeeeeeeeeeeeeeeeeeeeeeeeeeee00000000000000000000000041f11282fb5330700a6c8a67dd2c7ebb9b8adfa50000000000000000000000001907aa44a10206ab84804f0dfd0a70772013ef310000000000000000000000000000000000000000000000056802e2c8a685cf9000000000000000000000000000000000000000000000000003451745ddfb4b5d0000000000000000000000000000000000000000000000000000000000000001000000000000000000000000000000000000000000000000000000000000001e000000000000000000000000b4afc59ce123bf0676c362c21a92a721d68c83450000000000000000000000000000000000000000000000000000000000000000000000000000000000000000b4afc59ce123bf0676c362c21a92a721d68c834500000000000000000000000000000000000000000000000000000000000001a00000000000000000000000000000000000000000000000000000000000000240000000000000000000000000000000000000000000000000000000000000000100000000000000000000000041f11282fb5330700a6c8a67dd2c7ebb9b8adfa5000000000000000000000000beef698bd78139829e540622d5863e723e8715f1000000000000000000000000c02aaa39b223fe8d0a0e5c4f27ead9083c756cc20000000000000000000000007a250d5630b4cf539739df2c5dacb4c659f2488d0000000000000000000000000000000000000000000000000000000000000000",
                    "decodedMethod": null,
                    "errorInfo": "",
                    "fromAddress": "0x1907aa44a10206ab84804f0dfd0a70772013ef31",
                    "gasUsed": 199533,
                    "id": 0,
                    "methodDecoded": false,
                    "operation": "CALL",
                    "output": "0x000000000000000000000000000000000000000000000000037896aa5802f596",
                    "revert": false,
                    "revertMessage": "",
                    "selector": "0x0938b20b",
                    "status": true,
                    "value": "0"
                },
                "nodeType": 0
            },
            "1": {
                "invocation": {
                    "address": "0x58c746b5f23213a98c1bbb9ea6a9932b544342bd",
                    "callData": "0x0000000000000000000000000000000000000000000000000000000000000020000000000000000000000000beef698bd78139829e540622d5863e723e8715f1000000000000000000000000eeeeeeeeeeeeeeeeeeeeeeeeeeeeeeeeeeeeeeee00000000000000000000000041f11282fb5330700a6c8a67dd2c7ebb9b8adfa50000000000000000000000001907aa44a10206ab84804f0dfd0a70772013ef310000000000000000000000000000000000000000000000056802e2c8a685cf9000000000000000000000000000000000000000000000000003451745ddfb4b5d0000000000000000000000000000000000000000000000000000000000000001000000000000000000000000000000000000000000000000000000000000001e000000000000000000000000b4afc59ce123bf0676c362c21a92a721d68c83450000000000000000000000000000000000000000000000000000000000000000000000000000000000000000b4afc59ce123bf0676c362c21a92a721d68c834500000000000000000000000000000000000000000000000000000000000001a00000000000000000000000000000000000000000000000000000000000000240000000000000000000000000000000000000000000000000000000000000000100000000000000000000000041f11282fb5330700a6c8a67dd2c7ebb9b8adfa5000000000000000000000000beef698bd78139829e540622d5863e723e8715f1000000000000000000000000c02aaa39b223fe8d0a0e5c4f27ead9083c756cc20000000000000000000000007a250d5630b4cf539739df2c5dacb4c659f2488d0000000000000000000000000000000000000000000000000000000000000000",
                    "decodedMethod": null,
                    "errorInfo": "",
                    "fromAddress": "0x77edae6a5f332605720688c7fda7476476e8f83f",
                    "gasUsed": 215662,
                    "id": 1,
                    "methodDecoded": false,
                    "operation": "DELEGATECALL",
                    "output": "0x000000000000000000000000000000000000000000000000037896aa5802f596",
                    "revert": false,
                    "revertMessage": "",
                    "selector": "0x0938b20b",
                    "status": true,
                    "value": "0"
                },
                "nodeType": 0
            },
            "10": {
                "invocation": {
                    "address": "0xbeef698bd78139829e540622d5863e723e8715f1",
                    "callData": "0x00000000000000000000000041f11282fb5330700a6c8a67dd2c7ebb9b8adfa5",
                    "decodedMethod": {
                        "callParams": [
                            {
                                "name": "account",
                                "type": "address",
                                "value": "0x41f11282fb5330700a6c8a67dd2c7ebb9b8adfa5"
                            }
                        ],
                        "constructorArguments": "",
                        "name": "balanceOf",
                        "returnParams": [
                            {
                                "decimalAvailable": true,
                                "name": "",
                                "type": "uint256",
                                "value": "16,307,489,854,608,426,918,035"
                            }
                        ],
                        "signature": "balanceOf(address)"
                    },
                    "errorInfo": "",
                    "fromAddress": "0x77edae6a5f332605720688c7fda7476476e8f83f",
                    "gasUsed": 962,
                    "id": 10,
                    "methodDecoded": true,
                    "operation": "STATICCALL",
                    "output": "0x00000000000000000000000000000000000000000000037407e245fb6dcbe093",
                    "revert": false,
                    "revertMessage": "",
                    "selector": "0x70a08231",
                    "status": true,
                    "value": "0"
                },
                "nodeType": 0
            },
            "11": {
                "invocation": {
                    "address": "0x7a250d5630b4cf539739df2c5dacb4c659f2488d",
                    "callData": "0x0000000000000000000000000000000000000000000000056802e2c8a685cf9000000000000000000000000000000000000000000000000000000000000000400000000000000000000000000000000000000000000000000000000000000002000000000000000000000000beef698bd78139829e540622d5863e723e8715f1000000000000000000000000c02aaa39b223fe8d0a0e5c4f27ead9083c756cc2",
                    "decodedMethod": {
                        "callParams": [
                            {
                                "name": "amountIn",
                                "type": "uint256",
                                "value": "99,728,522,449,860,808,592"
                            },
                            {
                                "name": "path",
                                "type": "address[]",
                                "value": [
                                    "0xbeef698bd78139829e540622d5863e723e8715f1",
                                    "0xc02aaa39b223fe8d0a0e5c4f27ead9083c756cc2"
                                ]
                            }
                        ],
                        "constructorArguments": "",
                        "name": "getAmountsOut",
                        "returnParams": [
                            {
                                "name": "amounts",
                                "type": "uint256[]",
                                "value": [
                                    "99,728,522,449,860,808,592",
                                    "250,868,041,809,687,259"
                                ]
                            }
                        ],
                        "signature": "getAmountsOut(uint256,address[])"
                    },
                    "errorInfo": "",
                    "fromAddress": "0x77edae6a5f332605720688c7fda7476476e8f83f",
                    "gasUsed": 4082,
                    "id": 11,
                    "methodDecoded": true,
                    "operation": "STATICCALL",
                    "output": "0x000000000000000000000000000000000000000000000000000000000000002000000000000000000000000000000000000000000000000000000000000000020000000000000000000000000000000000000000000000056802e2c8a685cf90000000000000000000000000000000000000000000000000037b4327a59072db",
                    "revert": false,
                    "revertMessage": "",
                    "selector": "0xd06ca61f",
                    "status": true,
                    "value": "0"
                },
                "nodeType": 0
            },
            "12": {
                "invocation": {
                    "address": "0x41f11282fb5330700a6c8a67dd2c7ebb9b8adfa5",
                    "callData": "0x",
                    "decodedMethod": {
                        "callParams": [],
                        "constructorArguments": "",
                        "name": "getReserves",
                        "returnParams": [
                            {
                                "name": "_reserve0",
                                "type": "uint112",
                                "value": "16,207,761,332,158,566,109,443"
                            },
                            {
                                "name": "_reserve1",
                                "type": "uint112",
                                "value": "41,144,325,395,567,459,932"
                            },
                            {
                                "name": "_blockTimestampLast",
                                "type": "uint32",
                                "value": "1,718,891,159"
                            }
                        ],
                        "signature": "getReserves()"
                    },
                    "errorInfo": "",
                    "fromAddress": "0x7a250d5630b4cf539739df2c5dacb4c659f2488d",
                    "gasUsed": 504,
                    "id": 12,
                    "methodDecoded": true,
                    "operation": "STATICCALL",
                    "output": "0x00000000000000000000000000000000000000000000036e9fdf6332c74611030000000000000000000000000000000000000000000000023afe01f48de1be5c0000000000000000000000000000000000000000000000000000000066743297",
                    "revert": false,
                    "revertMessage": "",
                    "selector": "0x0902f1ac",
                    "status": true,
                    "value": "0"
                },
                "nodeType": 0
            },
            "13": {
                "invocation": {
                    "address": "0x41f11282fb5330700a6c8a67dd2c7ebb9b8adfa5",
                    "callData": "0x0000000000000000000000000000000000000000000000000000000000000000000000000000000000000000000000000000000000000000037b4327a59072db00000000000000000000000077edae6a5f332605720688c7fda7476476e8f83f00000000000000000000000000000000000000000000000000000000000000800000000000000000000000000000000000000000000000000000000000000000",
                    "decodedMethod": {
                        "callParams": [
                            {
                                "name": "amount0Out",
                                "type": "uint256",
                                "value": "0"
                            },
                            {
                                "name": "amount1Out",
                                "type": "uint256",
                                "value": "250,868,041,809,687,259"
                            },
                            {
                                "name": "to",
                                "type": "address",
                                "value": "0x77edae6a5f332605720688c7fda7476476e8f83f"
                            },
                            {
                                "name": "data",
                                "type": "bytes",
                                "value": "0x"
                            }
                        ],
                        "constructorArguments": "",
                        "name": "swap",
                        "returnParams": [],
                        "signature": "swap(uint256,uint256,address,bytes)"
                    },
                    "errorInfo": "",
                    "fromAddress": "0x77edae6a5f332605720688c7fda7476476e8f83f",
                    "gasUsed": 50365,
                    "id": 13,
                    "methodDecoded": true,
                    "operation": "CALL",
                    "output": "",
                    "revert": false,
                    "revertMessage": "",
                    "selector": "0x022c0d9f",
                    "status": true,
                    "value": "0"
                },
                "nodeType": 0
            },
            "14": {
                "invocation": {
                    "address": "0xc02aaa39b223fe8d0a0e5c4f27ead9083c756cc2",
                    "callData": "0x00000000000000000000000077edae6a5f332605720688c7fda7476476e8f83f000000000000000000000000000000000000000000000000037b4327a59072db",
                    "decodedMethod": {
                        "callParams": [
                            {
                                "name": "dst",
                                "type": "address",
                                "value": "0x77edae6a5f332605720688c7fda7476476e8f83f"
                            },
                            {
                                "decimalAvailable": true,
                                "name": "wad",
                                "type": "uint256",
                                "value": "250,868,041,809,687,259"
                            }
                        ],
                        "constructorArguments": "",
                        "name": "transfer",
                        "returnParams": [
                            {
                                "name": "",
                                "type": "bool",
                                "value": true
                            }
                        ],
                        "signature": "transfer(address,uint256)"
                    },
                    "errorInfo": "",
                    "fromAddress": "0x41f11282fb5330700a6c8a67dd2c7ebb9b8adfa5",
                    "gasUsed": 27962,
                    "id": 14,
                    "methodDecoded": true,
                    "operation": "CALL",
                    "output": "0x0000000000000000000000000000000000000000000000000000000000000001",
                    "revert": false,
                    "revertMessage": "",
                    "selector": "0xa9059cbb",
                    "status": true,
                    "value": "0"
                },
                "nodeType": 0
            },
            "15": {
                "event": {
                    "contract": "0xc02aaa39b223fe8d0a0e5c4f27ead9083c756cc2",
                    "decodedLog": {
                        "name": "Transfer",
                        "params": [
                            {
                                "name": "src",
                                "type": "address",
                                "value": "0x41f11282fb5330700a6c8a67dd2c7ebb9b8adfa5"
                            },
                            {
                                "name": "dst",
                                "type": "address",
                                "value": "0x77edae6a5f332605720688c7fda7476476e8f83f"
                            },
                            {
                                "decimalAvailable": true,
                                "name": "wad",
                                "type": "uint256",
                                "value": "250,868,041,809,687,259"
                            }
                        ],
                        "signature": "Transfer(address,address,uint256)"
                    },
                    "id": 15,
                    "logData": "0x000000000000000000000000000000000000000000000000037b4327a59072db",
                    "logDecoded": true,
                    "operation": "EVENT",
                    "revert": false,
                    "status": true,
                    "topics": [
                        "0xddf252ad1be2c89b69c2b068fc378daa952ba7f163c4a11628f55a4df523b3ef",
                        "0x00000000000000000000000041f11282fb5330700a6c8a67dd2c7ebb9b8adfa5",
                        "0x00000000000000000000000077edae6a5f332605720688c7fda7476476e8f83f"
                    ]
                },
                "nodeType": 1
            },
            "16": {
                "invocation": {
                    "address": "0xbeef698bd78139829e540622d5863e723e8715f1",
                    "callData": "0x00000000000000000000000041f11282fb5330700a6c8a67dd2c7ebb9b8adfa5",
                    "decodedMethod": {
                        "callParams": [
                            {
                                "name": "account",
                                "type": "address",
                                "value": "0x41f11282fb5330700a6c8a67dd2c7ebb9b8adfa5"
                            }
                        ],
                        "constructorArguments": "",
                        "name": "balanceOf",
                        "returnParams": [
                            {
                                "decimalAvailable": true,
                                "name": "",
                                "type": "uint256",
                                "value": "16,307,489,854,608,426,918,035"
                            }
                        ],
                        "signature": "balanceOf(address)"
                    },
                    "errorInfo": "",
                    "fromAddress": "0x41f11282fb5330700a6c8a67dd2c7ebb9b8adfa5",
                    "gasUsed": 962,
                    "id": 16,
                    "methodDecoded": true,
                    "operation": "STATICCALL",
                    "output": "0x00000000000000000000000000000000000000000000037407e245fb6dcbe093",
                    "revert": false,
                    "revertMessage": "",
                    "selector": "0x70a08231",
                    "status": true,
                    "value": "0"
                },
                "nodeType": 0
            },
            "17": {
                "invocation": {
                    "address": "0xc02aaa39b223fe8d0a0e5c4f27ead9083c756cc2",
                    "callData": "0x00000000000000000000000041f11282fb5330700a6c8a67dd2c7ebb9b8adfa5",
                    "decodedMethod": {
                        "callParams": [
                            {
                                "name": "",
                                "type": "address",
                                "value": "0x41f11282fb5330700a6c8a67dd2c7ebb9b8adfa5"
                            }
                        ],
                        "constructorArguments": "",
                        "name": "balanceOf",
                        "returnParams": [
                            {
                                "decimalAvailable": true,
                                "name": "",
                                "type": "uint256",
                                "value": "40,893,457,353,757,772,673"
                            }
                        ],
                        "signature": "balanceOf(address)"
                    },
                    "errorInfo": "",
                    "fromAddress": "0x41f11282fb5330700a6c8a67dd2c7ebb9b8adfa5",
                    "gasUsed": 534,
                    "id": 17,
                    "methodDecoded": true,
                    "operation": "STATICCALL",
                    "output": "0x0000000000000000000000000000000000000000000000023782becce8514b81",
                    "revert": false,
                    "revertMessage": "",
                    "selector": "0x70a08231",
                    "status": true,
                    "value": "0"
                },
                "nodeType": 0
            },
            "18": {
                "event": {
                    "contract": "0x41f11282fb5330700a6c8a67dd2c7ebb9b8adfa5",
                    "decodedLog": {
                        "name": "Sync",
                        "params": [
                            {
                                "name": "reserve0",
                                "type": "uint112",
                                "value": "16,307,489,854,608,426,918,035"
                            },
                            {
                                "name": "reserve1",
                                "type": "uint112",
                                "value": "40,893,457,353,757,772,673"
                            }
                        ],
                        "signature": "Sync(uint112,uint112)"
                    },
                    "id": 18,
                    "logData": "0x00000000000000000000000000000000000000000000037407e245fb6dcbe0930000000000000000000000000000000000000000000000023782becce8514b81",
                    "logDecoded": true,
                    "operation": "EVENT",
                    "revert": false,
                    "status": true,
                    "topics": [
                        "0x1c411e9a96e071241c2f21f7726b17ae89e3cab4c78be50e062b03a9fffbbad1"
                    ]
                },
                "nodeType": 1
            },
            "19": {
                "event": {
                    "contract": "0x41f11282fb5330700a6c8a67dd2c7ebb9b8adfa5",
                    "decodedLog": {
                        "name": "Swap",
                        "params": [
                            {
                                "name": "sender",
                                "type": "address",
                                "value": "0x77edae6a5f332605720688c7fda7476476e8f83f"
                            },
                            {
                                "name": "to",
                                "type": "address",
                                "value": "0x77edae6a5f332605720688c7fda7476476e8f83f"
                            },
                            {
                                "name": "amount0In",
                                "type": "uint256",
                                "value": "99,728,522,449,860,808,592"
                            },
                            {
                                "name": "amount1In",
                                "type": "uint256",
                                "value": "0"
                            },
                            {
                                "name": "amount0Out",
                                "type": "uint256",
                                "value": "0"
                            },
                            {
                                "name": "amount1Out",
                                "type": "uint256",
                                "value": "250,868,041,809,687,259"
                            }
                        ],
                        "signature": "Swap(address,uint256,uint256,uint256,uint256,address)"
                    },
                    "id": 19,
                    "logData": "0x0000000000000000000000000000000000000000000000056802e2c8a685cf9000000000000000000000000000000000000000000000000000000000000000000000000000000000000000000000000000000000000000000000000000000000000000000000000000000000000000000000000000000000037b4327a59072db",
                    "logDecoded": true,
                    "operation": "EVENT",
                    "revert": false,
                    "status": true,
                    "topics": [
                        "0xd78ad95fa46c994b6551d0da85fc275fe613ce37657fb8d5e3d130840159d822",
                        "0x00000000000000000000000077edae6a5f332605720688c7fda7476476e8f83f",
                        "0x00000000000000000000000077edae6a5f332605720688c7fda7476476e8f83f"
                    ]
                },
                "nodeType": 1
            },
            "2": {
                "invocation": {
                    "address": "0xdcf63a49f5938fd3b673271015ecf1aa3a2ef154",
                    "callData": "0x00000000000000000000000000000000000000000000000000000000000000400000000000000000000000000000000000000000000000056802e2c8a685cf90000000000000000000000000000000000000000000000000000000000000000100000000000000000000000041f11282fb5330700a6c8a67dd2c7ebb9b8adfa5000000000000000000000000beef698bd78139829e540622d5863e723e8715f1000000000000000000000000c02aaa39b223fe8d0a0e5c4f27ead9083c756cc20000000000000000000000007a250d5630b4cf539739df2c5dacb4c659f2488d",
                    "decodedMethod": {
                        "callParams": [
                            {
                                "name": "path",
                                "type": "(address,address,address,address)[]",
                                "value": [
                                    [
                                        {
                                            "name": "pair",
                                            "type": "address",
                                            "value": "0x41f11282fb5330700a6c8a67dd2c7ebb9b8adfa5"
                                        },
                                        {
                                            "name": "tokenIn",
                                            "type": "address",
                                            "value": "0xbeef698bd78139829e540622d5863e723e8715f1"
                                        },
                                        {
                                            "name": "tokenOut",
                                            "type": "address",
                                            "value": "0xc02aaa39b223fe8d0a0e5c4f27ead9083c756cc2"
                                        },
                                        {
                                            "name": "router",
                                            "type": "address",
                                            "value": "0x7a250d5630b4cf539739df2c5dacb4c659f2488d"
                                        }
                                    ]
                                ]
                            },
                            {
                                "name": "amountIn",
                                "type": "uint256",
                                "value": "99,728,522,449,860,808,592"
                            }
                        ],
                        "constructorArguments": "",
                        "name": "getAmountsOut",
                        "returnParams": [
                            {
                                "name": "amounts",
                                "type": "uint256[]",
                                "value": [
                                    "99,728,522,449,860,808,592",
                                    "250,868,041,809,687,259"
                                ]
                            }
                        ],
                        "signature": "getAmountsOut((address,address,address,address)[],uint256)"
                    },
                    "errorInfo": "",
                    "fromAddress": "0x77edae6a5f332605720688c7fda7476476e8f83f",
                    "gasUsed": 15406,
                    "id": 2,
                    "methodDecoded": true,
                    "operation": "CALL",
                    "output": "0x000000000000000000000000000000000000000000000000000000000000002000000000000000000000000000000000000000000000000000000000000000020000000000000000000000000000000000000000000000056802e2c8a685cf90000000000000000000000000000000000000000000000000037b4327a59072db",
                    "revert": false,
                    "revertMessage": "",
                    "selector": "0x9cb2dade",
                    "status": true,
                    "value": "0"
                },
                "nodeType": 0
            },
            "20": {
                "invocation": {
                    "address": "0xc02aaa39b223fe8d0a0e5c4f27ead9083c756cc2",
                    "callData": "0x00000000000000000000000077edae6a5f332605720688c7fda7476476e8f83f",
                    "decodedMethod": {
                        "callParams": [
                            {
                                "name": "",
                                "type": "address",
                                "value": "0x77edae6a5f332605720688c7fda7476476e8f83f"
                            }
                        ],
                        "constructorArguments": "",
                        "name": "balanceOf",
                        "returnParams": [
                            {
                                "decimalAvailable": true,
                                "name": "",
                                "type": "uint256",
                                "value": "250,868,041,809,687,259"
                            }
                        ],
                        "signature": "balanceOf(address)"
                    },
                    "errorInfo": "",
                    "fromAddress": "0x77edae6a5f332605720688c7fda7476476e8f83f",
                    "gasUsed": 534,
                    "id": 20,
                    "methodDecoded": true,
                    "operation": "STATICCALL",
                    "output": "0x000000000000000000000000000000000000000000000000037b4327a59072db",
                    "revert": false,
                    "revertMessage": "",
                    "selector": "0x70a08231",
                    "status": true,
                    "value": "0"
                },
                "nodeType": 0
            },
            "21": {
                "invocation": {
                    "address": "0xc02aaa39b223fe8d0a0e5c4f27ead9083c756cc2",
                    "callData": "0x000000000000000000000000dcf63a49f5938fd3b673271015ecf1aa3a2ef154000000000000000000000000000000000000000000000000037b4327a59072db",
                    "decodedMethod": {
                        "callParams": [
                            {
                                "name": "dst",
                                "type": "address",
                                "value": "0xdcf63a49f5938fd3b673271015ecf1aa3a2ef154"
                            },
                            {
                                "decimalAvailable": true,
                                "name": "wad",
                                "type": "uint256",
                                "value": "250,868,041,809,687,259"
                            }
                        ],
                        "constructorArguments": "",
                        "name": "transfer",
                        "returnParams": [
                            {
                                "name": "",
                                "type": "bool",
                                "value": true
                            }
                        ],
                        "signature": "transfer(address,uint256)"
                    },
                    "errorInfo": "",
                    "fromAddress": "0x77edae6a5f332605720688c7fda7476476e8f83f",
                    "gasUsed": 25162,
                    "id": 21,
                    "methodDecoded": true,
                    "operation": "CALL",
                    "output": "0x0000000000000000000000000000000000000000000000000000000000000001",
                    "revert": false,
                    "revertMessage": "",
                    "selector": "0xa9059cbb",
                    "status": true,
                    "value": "0"
                },
                "nodeType": 0
            },
            "22": {
                "event": {
                    "contract": "0xc02aaa39b223fe8d0a0e5c4f27ead9083c756cc2",
                    "decodedLog": {
                        "name": "Transfer",
                        "params": [
                            {
                                "name": "src",
                                "type": "address",
                                "value": "0x77edae6a5f332605720688c7fda7476476e8f83f"
                            },
                            {
                                "name": "dst",
                                "type": "address",
                                "value": "0xdcf63a49f5938fd3b673271015ecf1aa3a2ef154"
                            },
                            {
                                "decimalAvailable": true,
                                "name": "wad",
                                "type": "uint256",
                                "value": "250,868,041,809,687,259"
                            }
                        ],
                        "signature": "Transfer(address,address,uint256)"
                    },
                    "id": 22,
                    "logData": "0x000000000000000000000000000000000000000000000000037b4327a59072db",
                    "logDecoded": true,
                    "operation": "EVENT",
                    "revert": false,
                    "status": true,
                    "topics": [
                        "0xddf252ad1be2c89b69c2b068fc378daa952ba7f163c4a11628f55a4df523b3ef",
                        "0x00000000000000000000000077edae6a5f332605720688c7fda7476476e8f83f",
                        "0x000000000000000000000000dcf63a49f5938fd3b673271015ecf1aa3a2ef154"
                    ]
                },
                "nodeType": 1
            },
            "23": {
                "invocation": {
                    "address": "0xdcf63a49f5938fd3b673271015ecf1aa3a2ef154",
                    "callData": "0x000000000000000000000000c02aaa39b223fe8d0a0e5c4f27ead9083c756cc2000000000000000000000000000000000000000000000000037b4327a59072db",
                    "decodedMethod": {
                        "callParams": [
                            {
                                "name": "_token",
                                "type": "address",
                                "value": "0xc02aaa39b223fe8d0a0e5c4f27ead9083c756cc2"
                            },
                            {
                                "name": "_amount",
                                "type": "uint256",
                                "value": "250,868,041,809,687,259"
                            }
                        ],
                        "constructorArguments": "",
                        "name": "withdraw",
                        "returnParams": [],
                        "signature": "withdraw(address,uint256)"
                    },
                    "errorInfo": "",
                    "fromAddress": "0x77edae6a5f332605720688c7fda7476476e8f83f",
                    "gasUsed": 17802,
                    "id": 23,
                    "methodDecoded": true,
                    "operation": "CALL",
                    "output": "",
                    "revert": false,
                    "revertMessage": "",
                    "selector": "0xf3fef3a3",
                    "status": true,
                    "value": "0"
                },
                "nodeType": 0
            },
            "24": {
                "invocation": {
                    "address": "0xc02aaa39b223fe8d0a0e5c4f27ead9083c756cc2",
                    "callData": "0x000000000000000000000000000000000000000000000000037b4327a59072db",
                    "decodedMethod": {
                        "callParams": [
                            {
                                "name": "wad",
                                "type": "uint256",
                                "value": "250,868,041,809,687,259"
                            }
                        ],
                        "constructorArguments": "",
                        "name": "withdraw",
                        "returnParams": [],
                        "signature": "withdraw(uint256)"
                    },
                    "errorInfo": "",
                    "fromAddress": "0xdcf63a49f5938fd3b673271015ecf1aa3a2ef154",
                    "gasUsed": 9195,
                    "id": 24,
                    "methodDecoded": true,
                    "operation": "CALL",
                    "output": "",
                    "revert": false,
                    "revertMessage": "",
                    "selector": "0x2e1a7d4d",
                    "status": true,
                    "value": "0"
                },
                "nodeType": 0
            },
            "25": {
                "invocation": {
                    "address": "0xdcf63a49f5938fd3b673271015ecf1aa3a2ef154",
                    "callData": "0x",
                    "decodedMethod": null,
                    "errorInfo": "",
                    "fromAddress": "0xc02aaa39b223fe8d0a0e5c4f27ead9083c756cc2",
                    "gasUsed": 55,
                    "id": 25,
                    "methodDecoded": false,
                    "operation": "CALL",
                    "output": "",
                    "revert": false,
                    "revertMessage": "",
                    "selector": "fallback",
                    "status": true,
                    "value": "0.250868041809687259"
                },
                "nodeType": 0
            },
            "26": {
                "event": {
                    "contract": "0xc02aaa39b223fe8d0a0e5c4f27ead9083c756cc2",
                    "decodedLog": {
                        "name": "Withdrawal",
                        "params": [
                            {
                                "name": "src",
                                "type": "address",
                                "value": "0xdcf63a49f5938fd3b673271015ecf1aa3a2ef154"
                            },
                            {
                                "name": "wad",
                                "type": "uint256",
                                "value": "250,868,041,809,687,259"
                            }
                        ],
                        "signature": "Withdrawal(address,uint256)"
                    },
                    "id": 26,
                    "logData": "0x000000000000000000000000000000000000000000000000037b4327a59072db",
                    "logDecoded": true,
                    "operation": "EVENT",
                    "revert": false,
                    "status": true,
                    "topics": [
                        "0x7fcf532c15f0a6db0bd6d0e038bea71d30d808c7d98cb3bf7268a95bf5081b65",
                        "0x000000000000000000000000dcf63a49f5938fd3b673271015ecf1aa3a2ef154"
                    ]
                },
                "nodeType": 1
            },
            "27": {
                "invocation": {
                    "address": "0x77edae6a5f332605720688c7fda7476476e8f83f",
                    "callData": "0x",
                    "decodedMethod": null,
                    "errorInfo": "",
                    "fromAddress": "0xdcf63a49f5938fd3b673271015ecf1aa3a2ef154",
                    "gasUsed": 747,
                    "id": 27,
                    "methodDecoded": false,
                    "operation": "CALL",
                    "output": "",
                    "revert": false,
                    "revertMessage": "",
                    "selector": "fallback",
                    "status": true,
                    "value": "0.250868041809687259"
                },
                "nodeType": 0
            },
            "28": {
                "invocation": {
                    "address": "0x58c746b5f23213a98c1bbb9ea6a9932b544342bd",
                    "callData": "0x",
                    "decodedMethod": null,
                    "errorInfo": "",
                    "fromAddress": "0x77edae6a5f332605720688c7fda7476476e8f83f",
                    "gasUsed": 55,
                    "id": 28,
                    "methodDecoded": false,
                    "operation": "DELEGATECALL",
                    "output": "",
                    "revert": false,
                    "revertMessage": "",
                    "selector": "fallback",
                    "status": true,
                    "value": "0.250868041809687259"
                },
                "nodeType": 0
            },
            "29": {
                "invocation": {
                    "address": "0xb4afc59ce123bf0676c362c21a92a721d68c8345",
                    "callData": "0x",
                    "decodedMethod": null,
                    "errorInfo": "",
                    "fromAddress": "0x77edae6a5f332605720688c7fda7476476e8f83f",
                    "gasUsed": 0,
                    "id": 29,
                    "methodDecoded": false,
                    "operation": "CALL",
                    "output": "",
                    "revert": false,
                    "revertMessage": "",
                    "selector": "fallback",
                    "status": true,
                    "value": "0.000752604125429061"
                },
                "nodeType": 0
            },
            "3": {
                "invocation": {
                    "address": "0x7a250d5630b4cf539739df2c5dacb4c659f2488d",
                    "callData": "0x0000000000000000000000000000000000000000000000056802e2c8a685cf9000000000000000000000000000000000000000000000000000000000000000400000000000000000000000000000000000000000000000000000000000000002000000000000000000000000beef698bd78139829e540622d5863e723e8715f1000000000000000000000000c02aaa39b223fe8d0a0e5c4f27ead9083c756cc2",
                    "decodedMethod": {
                        "callParams": [
                            {
                                "name": "amountIn",
                                "type": "uint256",
                                "value": "99,728,522,449,860,808,592"
                            },
                            {
                                "name": "path",
                                "type": "address[]",
                                "value": [
                                    "0xbeef698bd78139829e540622d5863e723e8715f1",
                                    "0xc02aaa39b223fe8d0a0e5c4f27ead9083c756cc2"
                                ]
                            }
                        ],
                        "constructorArguments": "",
                        "name": "getAmountsOut",
                        "returnParams": [
                            {
                                "name": "amounts",
                                "type": "uint256[]",
                                "value": [
                                    "99,728,522,449,860,808,592",
                                    "250,868,041,809,687,259"
                                ]
                            }
                        ],
                        "signature": "getAmountsOut(uint256,address[])"
                    },
                    "errorInfo": "",
                    "fromAddress": "0xdcf63a49f5938fd3b673271015ecf1aa3a2ef154",
                    "gasUsed": 8582,
                    "id": 3,
                    "methodDecoded": true,
                    "operation": "STATICCALL",
                    "output": "0x000000000000000000000000000000000000000000000000000000000000002000000000000000000000000000000000000000000000000000000000000000020000000000000000000000000000000000000000000000056802e2c8a685cf90000000000000000000000000000000000000000000000000037b4327a59072db",
                    "revert": false,
                    "revertMessage": "",
                    "selector": "0xd06ca61f",
                    "status": true,
                    "value": "0"
                },
                "nodeType": 0
            },
            "30": {
                "invocation": {
                    "address": "0x1907aa44a10206ab84804f0dfd0a70772013ef31",
                    "callData": "0x",
                    "decodedMethod": null,
                    "errorInfo": "",
                    "fromAddress": "0x77edae6a5f332605720688c7fda7476476e8f83f",
                    "gasUsed": 0,
                    "id": 30,
                    "methodDecoded": false,
                    "operation": "CALL",
                    "output": "",
                    "revert": false,
                    "revertMessage": "",
                    "selector": "fallback",
                    "status": true,
                    "value": "0.250115437684258198"
                },
                "nodeType": 0
            },
            "31": {
                "event": {
                    "contract": "0x77edae6a5f332605720688c7fda7476476e8f83f",
                    "decodedLog": null,
                    "id": 31,
                    "logData": "0x0000000000000000000000001907aa44a10206ab84804f0dfd0a70772013ef31000000000000000000000000beef698bd78139829e540622d5863e723e8715f1000000000000000000000000eeeeeeeeeeeeeeeeeeeeeeeeeeeeeeeeeeeeeeee0000000000000000000000001907aa44a10206ab84804f0dfd0a70772013ef310000000000000000000000000000000000000000000000056802e2c8a685cf90000000000000000000000000000000000000000000000000037896aa5802f596",
                    "logDecoded": false,
                    "operation": "EVENT",
                    "revert": false,
                    "status": true,
                    "topics": [
                        "0x20efd6d5195b7b50273f01cd79a27989255356f9f13293edc53ee142accfdb75"
                    ]
                },
                "nodeType": 1
            },
            "4": {
                "invocation": {
                    "address": "0x41f11282fb5330700a6c8a67dd2c7ebb9b8adfa5",
                    "callData": "0x",
                    "decodedMethod": {
                        "callParams": [],
                        "constructorArguments": "",
                        "name": "getReserves",
                        "returnParams": [
                            {
                                "name": "_reserve0",
                                "type": "uint112",
                                "value": "16,207,761,332,158,566,109,443"
                            },
                            {
                                "name": "_reserve1",
                                "type": "uint112",
                                "value": "41,144,325,395,567,459,932"
                            },
                            {
                                "name": "_blockTimestampLast",
                                "type": "uint32",
                                "value": "1,718,891,159"
                            }
                        ],
                        "signature": "getReserves()"
                    },
                    "errorInfo": "",
                    "fromAddress": "0x7a250d5630b4cf539739df2c5dacb4c659f2488d",
                    "gasUsed": 2504,
                    "id": 4,
                    "methodDecoded": true,
                    "operation": "STATICCALL",
                    "output": "0x00000000000000000000000000000000000000000000036e9fdf6332c74611030000000000000000000000000000000000000000000000023afe01f48de1be5c0000000000000000000000000000000000000000000000000000000066743297",
                    "revert": false,
                    "revertMessage": "",
                    "selector": "0x0902f1ac",
                    "status": true,
                    "value": "0"
                },
                "nodeType": 0
            },
            "5": {
                "invocation": {
                    "address": "0xbeef698bd78139829e540622d5863e723e8715f1",
                    "callData": "0x0000000000000000000000001907aa44a10206ab84804f0dfd0a70772013ef3100000000000000000000000041f11282fb5330700a6c8a67dd2c7ebb9b8adfa50000000000000000000000000000000000000000000000056802e2c8a685cf90",
                    "decodedMethod": {
                        "callParams": [
                            {
                                "name": "sender",
                                "type": "address",
                                "value": "0x1907aa44a10206ab84804f0dfd0a70772013ef31"
                            },
                            {
                                "name": "recipient",
                                "type": "address",
                                "value": "0x41f11282fb5330700a6c8a67dd2c7ebb9b8adfa5"
                            },
                            {
                                "decimalAvailable": true,
                                "name": "amount",
                                "type": "uint256",
                                "value": "99,728,522,449,860,808,592"
                            }
                        ],
                        "constructorArguments": "",
                        "name": "transferFrom",
                        "returnParams": [
                            {
                                "name": "",
                                "type": "bool",
                                "value": true
                            }
                        ],
                        "signature": "transferFrom(address,address,uint256)"
                    },
                    "errorInfo": "",
                    "fromAddress": "0x77edae6a5f332605720688c7fda7476476e8f83f",
                    "gasUsed": 47885,
                    "id": 5,
                    "methodDecoded": true,
                    "operation": "CALL",
                    "output": "0x0000000000000000000000000000000000000000000000000000000000000001",
                    "revert": false,
                    "revertMessage": "",
                    "selector": "0x23b872dd",
                    "status": true,
                    "value": "0"
                },
                "nodeType": 0
            },
            "6": {
                "event": {
                    "contract": "0xbeef698bd78139829e540622d5863e723e8715f1",
                    "decodedLog": {
                        "name": "Transfer",
                        "params": [
                            {
                                "name": "from",
                                "type": "address",
                                "value": "0x1907aa44a10206ab84804f0dfd0a70772013ef31"
                            },
                            {
                                "name": "to",
                                "type": "address",
                                "value": "0x41f11282fb5330700a6c8a67dd2c7ebb9b8adfa5"
                            },
                            {
                                "decimalAvailable": true,
                                "name": "value",
                                "type": "uint256",
                                "value": "99,728,522,449,860,808,592"
                            }
                        ],
                        "signature": "Transfer(address,address,uint256)"
                    },
                    "id": 6,
                    "logData": "0x0000000000000000000000000000000000000000000000056802e2c8a685cf90",
                    "logDecoded": true,
                    "operation": "EVENT",
                    "revert": false,
                    "status": true,
                    "topics": [
                        "0xddf252ad1be2c89b69c2b068fc378daa952ba7f163c4a11628f55a4df523b3ef",
                        "0x0000000000000000000000001907aa44a10206ab84804f0dfd0a70772013ef31",
                        "0x00000000000000000000000041f11282fb5330700a6c8a67dd2c7ebb9b8adfa5"
                    ]
                },
                "nodeType": 1
            },
            "7": {
                "event": {
                    "contract": "0xbeef698bd78139829e540622d5863e723e8715f1",
                    "decodedLog": {
                        "name": "Approval",
                        "params": [
                            {
                                "name": "owner",
                                "type": "address",
                                "value": "0x1907aa44a10206ab84804f0dfd0a70772013ef31"
                            },
                            {
                                "name": "spender",
                                "type": "address",
                                "value": "0x77edae6a5f332605720688c7fda7476476e8f83f"
                            },
                            {
                                "decimalAvailable": true,
                                "name": "value",
                                "type": "uint256",
                                "value": "115,792,089,237,316,195,423,570,985,008,687,907,853,269,984,665,640,564,039,357,855,485,463,268,831,343"
                            }
                        ],
                        "signature": "Approval(address,address,uint256)"
                    },
                    "id": 7,
                    "logData": "0xfffffffffffffffffffffffffffffffffffffffffffffffa97fd1d37597a306f",
                    "logDecoded": true,
                    "operation": "EVENT",
                    "revert": false,
                    "status": true,
                    "topics": [
                        "0x8c5be1e5ebec7d5bd14f71427d1e84f3dd0314c0f7b2291e5b200ac8c7c3b925",
                        "0x0000000000000000000000001907aa44a10206ab84804f0dfd0a70772013ef31",
                        "0x00000000000000000000000077edae6a5f332605720688c7fda7476476e8f83f"
                    ]
                },
                "nodeType": 1
            },
            "8": {
                "invocation": {
                    "address": "0xc02aaa39b223fe8d0a0e5c4f27ead9083c756cc2",
                    "callData": "0x00000000000000000000000077edae6a5f332605720688c7fda7476476e8f83f",
                    "decodedMethod": {
                        "callParams": [
                            {
                                "name": "",
                                "type": "address",
                                "value": "0x77edae6a5f332605720688c7fda7476476e8f83f"
                            }
                        ],
                        "constructorArguments": "",
                        "name": "balanceOf",
                        "returnParams": [
                            {
                                "decimalAvailable": true,
                                "name": "",
                                "type": "uint256",
                                "value": "0"
                            }
                        ],
                        "signature": "balanceOf(address)"
                    },
                    "errorInfo": "",
                    "fromAddress": "0x77edae6a5f332605720688c7fda7476476e8f83f",
                    "gasUsed": 2534,
                    "id": 8,
                    "methodDecoded": true,
                    "operation": "STATICCALL",
                    "output": "0x0000000000000000000000000000000000000000000000000000000000000000",
                    "revert": false,
                    "revertMessage": "",
                    "selector": "0x70a08231",
                    "status": true,
                    "value": "0"
                },
                "nodeType": 0
            },
            "9": {
                "invocation": {
                    "address": "0x41f11282fb5330700a6c8a67dd2c7ebb9b8adfa5",
                    "callData": "0x",
                    "decodedMethod": {
                        "callParams": [],
                        "constructorArguments": "",
                        "name": "getReserves",
                        "returnParams": [
                            {
                                "name": "_reserve0",
                                "type": "uint112",
                                "value": "16,207,761,332,158,566,109,443"
                            },
                            {
                                "name": "_reserve1",
                                "type": "uint112",
                                "value": "41,144,325,395,567,459,932"
                            },
                            {
                                "name": "_blockTimestampLast",
                                "type": "uint32",
                                "value": "1,718,891,159"
                            }
                        ],
                        "signature": "getReserves()"
                    },
                    "errorInfo": "",
                    "fromAddress": "0x77edae6a5f332605720688c7fda7476476e8f83f",
                    "gasUsed": 504,
                    "id": 9,
                    "methodDecoded": true,
                    "operation": "STATICCALL",
                    "output": "0x00000000000000000000000000000000000000000000036e9fdf6332c74611030000000000000000000000000000000000000000000000023afe01f48de1be5c0000000000000000000000000000000000000000000000000000000066743297",
                    "revert": false,
                    "revertMessage": "",
                    "selector": "0x0902f1ac",
                    "status": true,
                    "value": "0"
                },
                "nodeType": 0
            }
        },
        "gasFlame": [
            {
                "children": [
                    {
                        "children": [
                            {
                                "children": [],
                                "depth": 0,
                                "name": "Initial Gas",
                                "value": 26324
                            },
                            {
                                "children": [
                                    {
                                        "children": [
                                            {
                                                "children": [
                                                    {
                                                        "children": [
                                                            {
                                                                "children": [],
                                                                "depth": 4,
                                                                "name": "getReserves",
                                                                "value": 2504
                                                            }
                                                        ],
                                                        "depth": 3,
                                                        "name": "getAmountsOut",
                                                        "value": 8582
                                                    }
                                                ],
                                                "depth": 2,
                                                "name": "getAmountsOut",
                                                "value": 15406
                                            },
                                            {
                                                "children": [],
                                                "depth": 2,
                                                "name": "transferFrom",
                                                "value": 47885
                                            },
                                            {
                                                "children": [],
                                                "depth": 2,
                                                "name": "balanceOf",
                                                "value": 2534
                                            },
                                            {
                                                "children": [],
                                                "depth": 2,
                                                "name": "getReserves",
                                                "value": 504
                                            },
                                            {
                                                "children": [],
                                                "depth": 2,
                                                "name": "balanceOf",
                                                "value": 962
                                            },
                                            {
                                                "children": [
                                                    {
                                                        "children": [],
                                                        "depth": 3,
                                                        "name": "getReserves",
                                                        "value": 504
                                                    }
                                                ],
                                                "depth": 2,
                                                "name": "getAmountsOut",
                                                "value": 4082
                                            },
                                            {
                                                "children": [
                                                    {
                                                        "children": [],
                                                        "depth": 3,
                                                        "name": "transfer",
                                                        "value": 27962
                                                    },
                                                    {
                                                        "children": [],
                                                        "depth": 3,
                                                        "name": "balanceOf",
                                                        "value": 962
                                                    },
                                                    {
                                                        "children": [],
                                                        "depth": 3,
                                                        "name": "balanceOf",
                                                        "value": 534
                                                    }
                                                ],
                                                "depth": 2,
                                                "name": "swap",
                                                "value": 50365
                                            },
                                            {
                                                "children": [],
                                                "depth": 2,
                                                "name": "balanceOf",
                                                "value": 534
                                            },
                                            {
                                                "children": [],
                                                "depth": 2,
                                                "name": "transfer",
                                                "value": 25162
                                            },
                                            {
                                                "children": [
                                                    {
                                                        "children": [
                                                            {
                                                                "children": [],
                                                                "depth": 4,
                                                                "name": "fallback",
                                                                "value": 55
                                                            }
                                                        ],
                                                        "depth": 3,
                                                        "name": "withdraw",
                                                        "value": 9195
                                                    },
                                                    {
                                                        "children": [
                                                            {
                                                                "children": [],
                                                                "depth": 4,
                                                                "name": "fallback",
                                                                "value": 55
                                                            }
                                                        ],
                                                        "depth": 3,
                                                        "name": "fallback",
                                                        "value": 747
                                                    }
                                                ],
                                                "depth": 2,
                                                "name": "withdraw",
                                                "value": 17802
                                            },
                                            {
                                                "children": [],
                                                "depth": 2,
                                                "name": "fallback",
                                                "value": 0
                                            },
                                            {
                                                "children": [],
                                                "depth": 2,
                                                "name": "fallback",
                                                "value": 0
                                            }
                                        ],
                                        "depth": 1,
                                        "name": "0x0938b20b",
                                        "value": 215662
                                    }
                                ],
                                "depth": 0,
                                "name": "Executed Gas",
                                "value": 223092
                            }
                        ],
                        "depth": -1,
                        "name": "Actual Gas Used",
                        "value": 199533
                    },
                    {
                        "children": [],
                        "depth": -1,
                        "name": "Refunded Gas",
                        "value": 49883
                    }
                ],
                "depth": -2,
                "name": "Total Gas",
                "value": 249416
            }
        ],
        "isConfirmed": true,
        "mainTrace": [
            {
                "children": [
                    {
                        "children": [
                            {
                                "children": [
                                    {
                                        "children": [
                                            {
                                                "children": [
                                                    {
                                                        "children": [],
                                                        "depth": 4,
                                                        "id": 4,
                                                        "order": 4
                                                    }
                                                ],
                                                "depth": 3,
                                                "id": 3,
                                                "order": 3
                                            }
                                        ],
                                        "depth": 2,
                                        "id": 2,
                                        "order": 2
                                    },
                                    {
                                        "children": [
                                            {
                                                "children": [],
                                                "depth": 3,
                                                "id": 6,
                                                "order": 6
                                            },
                                            {
                                                "children": [],
                                                "depth": 3,
                                                "id": 7,
                                                "order": 7
                                            }
                                        ],
                                        "depth": 2,
                                        "id": 5,
                                        "order": 5
                                    },
                                    {
                                        "children": [],
                                        "depth": 2,
                                        "id": 8,
                                        "order": 8
                                    },
                                    {
                                        "children": [],
                                        "depth": 2,
                                        "id": 9,
                                        "order": 9
                                    },
                                    {
                                        "children": [],
                                        "depth": 2,
                                        "id": 10,
                                        "order": 10
                                    },
                                    {
                                        "children": [
                                            {
                                                "children": [],
                                                "depth": 3,
                                                "id": 12,
                                                "order": 12
                                            }
                                        ],
                                        "depth": 2,
                                        "id": 11,
                                        "order": 11
                                    },
                                    {
                                        "children": [
                                            {
                                                "children": [
                                                    {
                                                        "children": [],
                                                        "depth": 4,
                                                        "id": 15,
                                                        "order": 15
                                                    }
                                                ],
                                                "depth": 3,
                                                "id": 14,
                                                "order": 14
                                            },
                                            {
                                                "children": [],
                                                "depth": 3,
                                                "id": 16,
                                                "order": 16
                                            },
                                            {
                                                "children": [],
                                                "depth": 3,
                                                "id": 17,
                                                "order": 17
                                            },
                                            {
                                                "children": [],
                                                "depth": 3,
                                                "id": 18,
                                                "order": 18
                                            },
                                            {
                                                "children": [],
                                                "depth": 3,
                                                "id": 19,
                                                "order": 19
                                            }
                                        ],
                                        "depth": 2,
                                        "id": 13,
                                        "order": 13
                                    },
                                    {
                                        "children": [],
                                        "depth": 2,
                                        "id": 20,
                                        "order": 20
                                    },
                                    {
                                        "children": [
                                            {
                                                "children": [],
                                                "depth": 3,
                                                "id": 22,
                                                "order": 22
                                            }
                                        ],
                                        "depth": 2,
                                        "id": 21,
                                        "order": 21
                                    },
                                    {
                                        "children": [
                                            {
                                                "children": [
                                                    {
                                                        "children": [],
                                                        "depth": 4,
                                                        "id": 25,
                                                        "order": 25
                                                    },
                                                    {
                                                        "children": [],
                                                        "depth": 4,
                                                        "id": 26,
                                                        "order": 26
                                                    }
                                                ],
                                                "depth": 3,
                                                "id": 24,
                                                "order": 24
                                            },
                                            {
                                                "children": [
                                                    {
                                                        "children": [],
                                                        "depth": 4,
                                                        "id": 28,
                                                        "order": 28
                                                    }
                                                ],
                                                "depth": 3,
                                                "id": 27,
                                                "order": 27
                                            }
                                        ],
                                        "depth": 2,
                                        "id": 23,
                                        "order": 23
                                    },
                                    {
                                        "children": [],
                                        "depth": 2,
                                        "id": 29,
                                        "order": 29
                                    },
                                    {
                                        "children": [],
                                        "depth": 2,
                                        "id": 30,
                                        "order": 30
                                    },
                                    {
                                        "children": [],
                                        "depth": 2,
                                        "id": 31,
                                        "order": 31
                                    }
                                ],
                                "depth": 1,
                                "id": 1,
                                "order": 1
                            }
                        ],
                        "depth": 0,
                        "id": 0,
                        "order": 0
                    }
                ],
                "depth": -1,
                "id": -1,
                "order": -1
            }
        ],
        "mainTraceNodeCount": 32,
        "parentIdMap": {
            "0": -1,
            "1": 0,
            "10": 1,
            "11": 1,
            "12": 11,
            "13": 1,
            "14": 13,
            "15": 14,
            "16": 13,
            "17": 13,
            "18": 13,
            "19": 13,
            "2": 1,
            "20": 1,
            "21": 1,
            "22": 21,
            "23": 1,
            "24": 23,
            "25": 24,
            "26": 24,
            "27": 23,
            "28": 27,
            "29": 1,
            "3": 2,
            "30": 1,
            "31": 1,
            "4": 3,
            "5": 1,
            "6": 5,
            "7": 5,
            "8": 1,
            "9": 1
        },
        "tidyTrace": [
            {
                "children": [
                    {
                        "children": [
                            {
                                "children": [
                                    {
                                        "children": [],
                                        "depth": 2,
                                        "id": 2,
                                        "order": 2
                                    },
                                    {
                                        "children": [
                                            {
                                                "children": [],
                                                "depth": 3,
                                                "id": 6,
                                                "order": 6
                                            },
                                            {
                                                "children": [],
                                                "depth": 3,
                                                "id": 7,
                                                "order": 7
                                            }
                                        ],
                                        "depth": 2,
                                        "id": 5,
                                        "order": 5
                                    },
                                    {
                                        "children": [
                                            {
                                                "children": [
                                                    {
                                                        "children": [],
                                                        "depth": 4,
                                                        "id": 15,
                                                        "order": 15
                                                    }
                                                ],
                                                "depth": 3,
                                                "id": 14,
                                                "order": 14
                                            },
                                            {
                                                "children": [],
                                                "depth": 3,
                                                "id": 18,
                                                "order": 18
                                            },
                                            {
                                                "children": [],
                                                "depth": 3,
                                                "id": 19,
                                                "order": 19
                                            }
                                        ],
                                        "depth": 2,
                                        "id": 13,
                                        "order": 13
                                    },
                                    {
                                        "children": [
                                            {
                                                "children": [],
                                                "depth": 3,
                                                "id": 22,
                                                "order": 22
                                            }
                                        ],
                                        "depth": 2,
                                        "id": 21,
                                        "order": 21
                                    },
                                    {
                                        "children": [
                                            {
                                                "children": [
                                                    {
                                                        "children": [],
                                                        "depth": 4,
                                                        "id": 25,
                                                        "order": 25
                                                    },
                                                    {
                                                        "children": [],
                                                        "depth": 4,
                                                        "id": 26,
                                                        "order": 26
                                                    }
                                                ],
                                                "depth": 3,
                                                "id": 24,
                                                "order": 24
                                            },
                                            {
                                                "children": [
                                                    {
                                                        "children": [],
                                                        "depth": 4,
                                                        "id": 28,
                                                        "order": 28
                                                    }
                                                ],
                                                "depth": 3,
                                                "id": 27,
                                                "order": 27
                                            }
                                        ],
                                        "depth": 2,
                                        "id": 23,
                                        "order": 23
                                    },
                                    {
                                        "children": [],
                                        "depth": 2,
                                        "id": 29,
                                        "order": 29
                                    },
                                    {
                                        "children": [],
                                        "depth": 2,
                                        "id": 30,
                                        "order": 30
                                    },
                                    {
                                        "children": [],
                                        "depth": 2,
                                        "id": 31,
                                        "order": 31
                                    }
                                ],
                                "depth": 1,
                                "id": 1,
                                "order": 1
                            }
                        ],
                        "depth": 0,
                        "id": 0,
                        "order": 0
                    }
                ],
                "depth": -1,
                "id": -1,
                "order": -1
            }
        ],
        "tidyTraceNodeCount": 22
    },
    "state_change": {
        "stateChanges": [
            {
                "address": "0x41f11282fb5330700a6c8a67dd2c7ebb9b8adfa5",
                "erc": "ERC-20",
                "slots": [
                    {
                        "current": "0x667432970000000000023782becce8514b8100000000037407e245fb6dcbe093",
                        "key": "0x0000000000000000000000000000000000000000000000000000000000000008",
                        "prev": "0x667432970000000000023afe01f48de1be5c00000000036e9fdf6332c7461103"
                    }
                ],
                "storageVariables": [
                    {
                        "name": "reserve0",
                        "type": "uint112",
                        "value": {
                            "current": "16307489854608426918035",
                            "prev": "16207761332158566109443",
                            "typeTag": 1
                        }
                    },
                    {
                        "name": "reserve1",
                        "type": "uint112",
                        "value": {
                            "current": "40893457353757772673",
                            "prev": "41144325395567459932",
                            "typeTag": 1
                        }
                    },
                    {
                        "name": "blockTimestampLast",
                        "type": "uint32",
                        "value": {
                            "current": "1718891159",
                            "prev": "1718891159",
                            "typeTag": 1
                        }
                    }
                ]
            },
            {
                "address": "0xbeef698bd78139829e540622d5863e723e8715f1",
                "erc": "ERC-20",
                "slots": [
                    {
                        "current": "0x0000000000000000000000000000000000000000000000000000000000000000",
                        "key": "0xa28ea1555ada02622316d2aa384681ae94d004d080cd24a15e0012cc0d6e3bfc",
                        "prev": "0x0000000000000000000000000000000000000000000000056802e2c8a685cf90"
                    },
                    {
                        "current": "0x00000000000000000000000000000000000000000000037407e245fb6dcbe093",
                        "key": "0xebc5298e5a2b703534703ea4e52e758231ea0b7ffc2b8885f412d0a275ed716f",
                        "prev": "0x00000000000000000000000000000000000000000000036e9fdf6332c7461103"
                    },
                    {
                        "current": "0xfffffffffffffffffffffffffffffffffffffffffffffffa97fd1d37597a306f",
                        "key": "0xbdf776fb716b37f0ff3e9a182bc5869f5423627d5aa9e88a22115c29755ccd3e",
                        "prev": "0xffffffffffffffffffffffffffffffffffffffffffffffffffffffffffffffff"
                    }
                ],
                "storageVariables": [
                    {
                        "name": "_balances",
                        "type": "mapping(address => uint256)",
                        "value": {
                            "pairs": [
                                {
                                    "key": "0x1907aa44a10206ab84804f0dfd0a70772013ef31",
                                    "value": {
                                        "current": "0",
                                        "prev": "99728522449860808592",
                                        "typeTag": 1
                                    }
                                },
                                {
                                    "key": "0x41f11282fb5330700a6c8a67dd2c7ebb9b8adfa5",
                                    "value": {
                                        "current": "16307489854608426918035",
                                        "prev": "16207761332158566109443",
                                        "typeTag": 1
                                    }
                                }
                            ],
                            "typeTag": 4
                        }
                    },
                    {
                        "name": "_allowances",
                        "type": "mapping(address => mapping(address => uint256))",
                        "value": {
                            "pairs": [
                                {
                                    "key": "0x1907aa44a10206ab84804f0dfd0a70772013ef31",
                                    "value": {
                                        "pairs": [
                                            {
                                                "key": "0x77edae6a5f332605720688c7fda7476476e8f83f",
                                                "value": {
                                                    "current": "115792089237316195423570985008687907853269984665640564039357855485463268831343",
                                                    "prev": "115792089237316195423570985008687907853269984665640564039457584007913129639935",
                                                    "typeTag": 1
                                                }
                                            }
                                        ],
                                        "typeTag": 4
                                    }
                                }
                            ],
                            "typeTag": 4
                        }
                    }
                ]
            },
            {
                "address": "0xc02aaa39b223fe8d0a0e5c4f27ead9083c756cc2",
                "erc": "ERC-20",
                "slots": [
                    {
                        "current": "0x0000000000000000000000000000000000000000000000023782becce8514b81",
                        "key": "0x60c7b7537159ed5300ec9a5a21287ac5fcdb88082d9ca0833d289cbce40f9eaa",
                        "prev": "0x0000000000000000000000000000000000000000000000023afe01f48de1be5c"
                    }
                ],
                "storageVariables": [
                    {
                        "name": "balanceOf",
                        "type": "mapping(address => uint256)",
                        "value": {
                            "pairs": [
                                {
                                    "key": "0x41f11282fb5330700a6c8a67dd2c7ebb9b8adfa5",
                                    "value": {
                                        "current": "40893457353757772673",
                                        "prev": "41144325395567459932",
                                        "typeTag": 1
                                    }
                                }
                            ],
                            "typeTag": 4
                        }
                    }
                ]
            }
        ]
    }
}