{
    "balance_change": {
        "balanceChanges": []
    },
    "profile": {
        "basic_info": {
            "baseFee": "",
            "blockNumber": 9195798,
            "callData": "0x59c3f7f00000000000000000000000000000000000000000000000000000000000000008",
            "debugEnable": true,
            "errorInfo": "",
            "eventCount": 8,
            "feeRecipient": "0x35f61dfb08ada13eba64bf156b80df3d5b3a738d",
            "formatValue": "0",
            "gasLimit": 4000000,
            "gasPrice": "1",
            "gasUsed": 1383204,
            "intTxnCount": 9,
            "internalRevert": false,
            "internalRevertMessage": "",
            "isContractCreation": false,
            "isFlashloan": false,
            "maxFee": "",
            "nonce": 22220,
            "overwritedBlockNumber": -1,
            "priorityFee": "",
            "receiver": "0xea7a7bc3ba38b2569b6bee8dcd8acb4218c08716",
            "revertMessage": "",
            "sender": "0x8542ab48910ac88a9877fa4e204238f141459572",
            "simulationEnable": true,
            "sourceTxnHash": "0x60f5618514cd178120826460980f4adb82f62665cf180a3e1a3f66d0fe51ab84",
            "status": true,
            "timestamp": "2020-01-01T12:27:43Z",
            "transactionFee": "0.001383204",
            "txnHash": "0x60f5618514cd178120826460980f4adb82f62665cf180a3e1a3f66d0fe51ab84",
            "txnIndex": 5,
            "type": 0,
            "value": "0"
        },
        "fund_flow": [],
        "token_infos": [
            {
                "address": "0xc02aaa39b223fe8d0a0e5c4f27ead9083c756cc2",
                "decimals": 18
            },
            {
                "address": "0xeeeeeeeeeeeeeeeeeeeeeeeeeeeeeeeeeeeeeeee",
                "decimals": 18
            }
        ]
    },
    "address_label": {
        "labels": [
            {
                "address": "0x896d335daf43b01931bcacaa4cb24fc5e095cea2",
                "label": "Controller"
            },
            {
                "address": "0xea7a7bc3ba38b2569b6bee8dcd8acb4218c08716",
                "label": "ControllerProxy"
            },
            {
                "address": "0x0000000000000000000000000000000000000001",
                "label": "Precompiled"
            },
            {
                "address": "0x0000000000000000000000000000000000000002",
                "label": "Precompiled"
            },
            {
                "address": "0x0000000000000000000000000000000000000003",
                "label": "Precompiled"
            },
            {
                "address": "0x0000000000000000000000000000000000000004",
                "label": "Precompiled"
            },
            {
                "address": "0xeeeeeeeeeeeeeeeeeeeeeeeeeeeeeeeeeeeeeeee",
                "label": "Ether"
            }
        ]
    },
    "trace": {
        "accountLabels": null,
        "dataMap": {
            "-1": {
                "invocation": {
                    "address": "0x8542ab48910ac88a9877fa4e204238f141459572",
                    "callData": "",
                    "decodedMethod": null,
                    "errorInfo": "",
                    "fromAddress": "",
                    "gasUsed": 0,
                    "id": -1,
                    "methodDecoded": false,
                    "operation": "",
                    "output": "",
                    "revert": false,
                    "revertMessage": "",
                    "selector": "",
                    "status": false,
                    "value": ""
                },
                "nodeType": 0
            },
            "0": {
                "invocation": {
                    "address": "0xea7a7bc3ba38b2569b6bee8dcd8acb4218c08716",
                    "callData": "0x0000000000000000000000000000000000000000000000000000000000000008",
                    "decodedMethod": {
                        "callParams": [
                            {
                                "name": "number",
                                "type": "uint256",
                                "value": "8"
                            }
                        ],
                        "constructorArguments": "",
                        "name": "createWallets",
                        "returnParams": [
                            {
                                "name": "",
                                "type": "bool",
                                "value": true
                            }
                        ],
                        "signature": "createWallets(uint256)"
                    },
                    "errorInfo": "",
                    "fromAddress": "0x8542ab48910ac88a9877fa4e204238f141459572",
                    "gasUsed": 1383204,
                    "id": 0,
                    "methodDecoded": true,
                    "operation": "CALL",
                    "output": "0x0000000000000000000000000000000000000000000000000000000000000001",
                    "revert": false,
                    "revertMessage": "",
                    "selector": "0x59c3f7f0",
                    "status": true,
                    "value": "0"
                },
                "nodeType": 0
            },
            "1": {
                "invocation": {
                    "address": "0x896d335daf43b01931bcacaa4cb24fc5e095cea2",
                    "callData": "0x0000000000000000000000000000000000000000000000000000000000000008",
                    "decodedMethod": {
                        "callParams": [
                            {
                                "name": "number",
                                "type": "uint256",
                                "value": "8"
                            }
                        ],
                        "constructorArguments": "",
                        "name": "createWallets",
                        "returnParams": [
                            {
                                "name": "",
                                "type": "bool",
                                "value": true
                            }
                        ],
                        "signature": "createWallets(uint256)"
                    },
                    "errorInfo": "",
                    "fromAddress": "0xea7a7bc3ba38b2569b6bee8dcd8acb4218c08716",
                    "gasUsed": 1359782,
                    "id": 1,
                    "methodDecoded": true,
                    "operation": "DELEGATECALL",
                    "output": "0x0000000000000000000000000000000000000000000000000000000000000001",
                    "revert": false,
                    "revertMessage": "",
                    "selector": "0x59c3f7f0",
                    "status": true,
                    "value": "0"
                },
                "nodeType": 0
            },
            "10": {
                "invocation": {
                    "address": "0xb91a3924ad1aac6ba11dab9d4bb1259d61537122",
                    "callData": "0x608060405234801561001057600080fd5b5060008054600160a060020a033316600160a060020a031990911617905561023d8061003d6000396000f3006080604052600436106100405763ffffffff7c01000000000000000000000000000000000000000000000000000000006000350416638da5cb5b811461018f575b600034111561009a576040805173ffffffffffffffffffffffffffffffffffffffff3316815234602082015281517f4103257eaac983ca79a70d28f90dfc4fa16b619bb0c17ee7cab0d4034c279624929181900390910190a15b6109605a111561018d5761018d6000809054906101000a900473ffffffffffffffffffffffffffffffffffffffff1673ffffffffffffffffffffffffffffffffffffffff1663bc7f3b506040518163ffffffff167c0100000000000000000000000000000000000000000000000000000000028152600401602060405180830381600087803b15801561012c57600080fd5b505af1158015610140573d6000803e3d6000fd5b505050506040513d602081101561015657600080fd5b505160408051602036601f8101829004820283018201909352828252909160009181908401838280828437506101cd945050505050565b005b34801561019b57600080fd5b506101a46101f5565b6040805173ffffffffffffffffffffffffffffffffffffffff9092168252519081900360200190f35b600080825160208401856127105a03f43d604051816000823e8280156101f1578282f35b8282fd5b60005473ffffffffffffffffffffffffffffffffffffffff16815600a165627a7a72305820b641eb79ac6642d619896645b4fd186e82d93ca78b8f4b7b179ffa4774111c040029",
                    "decodedMethod": null,
                    "errorInfo": "",
                    "fromAddress": "0xea7a7bc3ba38b2569b6bee8dcd8acb4218c08716",
                    "gasUsed": 135732,
                    "id": 10,
                    "methodDecoded": false,
                    "operation": "CREATE",
                    "output": "0x6080604052600436106100405763ffffffff7c01000000000000000000000000000000000000000000000000000000006000350416638da5cb5b811461018f575b600034111561009a576040805173ffffffffffffffffffffffffffffffffffffffff3316815234602082015281517f4103257eaac983ca79a70d28f90dfc4fa16b619bb0c17ee7cab0d4034c279624929181900390910190a15b6109605a111561018d5761018d6000809054906101000a900473ffffffffffffffffffffffffffffffffffffffff1673ffffffffffffffffffffffffffffffffffffffff1663bc7f3b506040518163ffffffff167c0100000000000000000000000000000000000000000000000000000000028152600401602060405180830381600087803b15801561012c57600080fd5b505af1158015610140573d6000803e3d6000fd5b505050506040513d602081101561015657600080fd5b505160408051602036601f8101829004820283018201909352828252909160009181908401838280828437506101cd945050505050565b005b34801561019b57600080fd5b506101a46101f5565b6040805173ffffffffffffffffffffffffffffffffffffffff9092168252519081900360200190f35b600080825160208401856127105a03f43d604051816000823e8280156101f1578282f35b8282fd5b60005473ffffffffffffffffffffffffffffffffffffffff16815600a165627a7a72305820b641eb79ac6642d619896645b4fd186e82d93ca78b8f4b7b179ffa4774111c040029",
                    "revert": false,
                    "revertMessage": "",
                    "selector": "",
                    "status": true,
                    "value": "0"
                },
                "nodeType": 0
            },
            "11": {
                "event": {
                    "contract": "0xea7a7bc3ba38b2569b6bee8dcd8acb4218c08716",
                    "decodedLog": {
                        "name": "CreatedUserWallet",
                        "params": [
                            {
                                "name": "_wallet",
                                "type": "address",
                                "value": "0xb91a3924ad1aac6ba11dab9d4bb1259d61537122"
                            }
                        ],
                        "signature": "CreatedUserWallet(address)"
                    },
                    "id": 11,
                    "logData": "0x000000000000000000000000b91a3924ad1aac6ba11dab9d4bb1259d61537122",
                    "logDecoded": true,
                    "operation": "EVENT",
                    "revert": false,
                    "status": true,
                    "topics": [
                        "0x0814288eb1684a10181d25f8b2be20cd2f559850b6578bc9a5bb55a2478af882"
                    ]
                },
                "nodeType": 1
            },
            "12": {
                "invocation": {
                    "address": "0x57a0c3a4287d9f77c41998fd20971c3650fefcc1",
                    "callData": "0x608060405234801561001057600080fd5b5060008054600160a060020a033316600160a060020a031990911617905561023d8061003d6000396000f3006080604052600436106100405763ffffffff7c01000000000000000000000000000000000000000000000000000000006000350416638da5cb5b811461018f575b600034111561009a576040805173ffffffffffffffffffffffffffffffffffffffff3316815234602082015281517f4103257eaac983ca79a70d28f90dfc4fa16b619bb0c17ee7cab0d4034c279624929181900390910190a15b6109605a111561018d5761018d6000809054906101000a900473ffffffffffffffffffffffffffffffffffffffff1673ffffffffffffffffffffffffffffffffffffffff1663bc7f3b506040518163ffffffff167c0100000000000000000000000000000000000000000000000000000000028152600401602060405180830381600087803b15801561012c57600080fd5b505af1158015610140573d6000803e3d6000fd5b505050506040513d602081101561015657600080fd5b505160408051602036601f8101829004820283018201909352828252909160009181908401838280828437506101cd945050505050565b005b34801561019b57600080fd5b506101a46101f5565b6040805173ffffffffffffffffffffffffffffffffffffffff9092168252519081900360200190f35b600080825160208401856127105a03f43d604051816000823e8280156101f1578282f35b8282fd5b60005473ffffffffffffffffffffffffffffffffffffffff16815600a165627a7a72305820b641eb79ac6642d619896645b4fd186e82d93ca78b8f4b7b179ffa4774111c040029",
                    "decodedMethod": null,
                    "errorInfo": "",
                    "fromAddress": "0xea7a7bc3ba38b2569b6bee8dcd8acb4218c08716",
                    "gasUsed": 135732,
                    "id": 12,
                    "methodDecoded": false,
                    "operation": "CREATE",
                    "output": "0x6080604052600436106100405763ffffffff7c01000000000000000000000000000000000000000000000000000000006000350416638da5cb5b811461018f575b600034111561009a576040805173ffffffffffffffffffffffffffffffffffffffff3316815234602082015281517f4103257eaac983ca79a70d28f90dfc4fa16b619bb0c17ee7cab0d4034c279624929181900390910190a15b6109605a111561018d5761018d6000809054906101000a900473ffffffffffffffffffffffffffffffffffffffff1673ffffffffffffffffffffffffffffffffffffffff1663bc7f3b506040518163ffffffff167c0100000000000000000000000000000000000000000000000000000000028152600401602060405180830381600087803b15801561012c57600080fd5b505af1158015610140573d6000803e3d6000fd5b505050506040513d602081101561015657600080fd5b505160408051602036601f8101829004820283018201909352828252909160009181908401838280828437506101cd945050505050565b005b34801561019b57600080fd5b506101a46101f5565b6040805173ffffffffffffffffffffffffffffffffffffffff9092168252519081900360200190f35b600080825160208401856127105a03f43d604051816000823e8280156101f1578282f35b8282fd5b60005473ffffffffffffffffffffffffffffffffffffffff16815600a165627a7a72305820b641eb79ac6642d619896645b4fd186e82d93ca78b8f4b7b179ffa4774111c040029",
                    "revert": false,
                    "revertMessage": "",
                    "selector": "",
                    "status": true,
                    "value": "0"
                },
                "nodeType": 0
            },
            "13": {
                "event": {
                    "contract": "0xea7a7bc3ba38b2569b6bee8dcd8acb4218c08716",
                    "decodedLog": {
                        "name": "CreatedUserWallet",
                        "params": [
                            {
                                "name": "_wallet",
                                "type": "address",
                                "value": "0x57a0c3a4287d9f77c41998fd20971c3650fefcc1"
                            }
                        ],
                        "signature": "CreatedUserWallet(address)"
                    },
                    "id": 13,
                    "logData": "0x00000000000000000000000057a0c3a4287d9f77c41998fd20971c3650fefcc1",
                    "logDecoded": true,
                    "operation": "EVENT",
                    "revert": false,
                    "status": true,
                    "topics": [
                        "0x0814288eb1684a10181d25f8b2be20cd2f559850b6578bc9a5bb55a2478af882"
                    ]
                },
                "nodeType": 1
            },
            "14": {
                "invocation": {
                    "address": "0xb6fc16fd8afd29342660d986c4341476dd2220e0",
                    "callData": "0x608060405234801561001057600080fd5b5060008054600160a060020a033316600160a060020a031990911617905561023d8061003d6000396000f3006080604052600436106100405763ffffffff7c01000000000000000000000000000000000000000000000000000000006000350416638da5cb5b811461018f575b600034111561009a576040805173ffffffffffffffffffffffffffffffffffffffff3316815234602082015281517f4103257eaac983ca79a70d28f90dfc4fa16b619bb0c17ee7cab0d4034c279624929181900390910190a15b6109605a111561018d5761018d6000809054906101000a900473ffffffffffffffffffffffffffffffffffffffff1673ffffffffffffffffffffffffffffffffffffffff1663bc7f3b506040518163ffffffff167c0100000000000000000000000000000000000000000000000000000000028152600401602060405180830381600087803b15801561012c57600080fd5b505af1158015610140573d6000803e3d6000fd5b505050506040513d602081101561015657600080fd5b505160408051602036601f8101829004820283018201909352828252909160009181908401838280828437506101cd945050505050565b005b34801561019b57600080fd5b506101a46101f5565b6040805173ffffffffffffffffffffffffffffffffffffffff9092168252519081900360200190f35b600080825160208401856127105a03f43d604051816000823e8280156101f1578282f35b8282fd5b60005473ffffffffffffffffffffffffffffffffffffffff16815600a165627a7a72305820b641eb79ac6642d619896645b4fd186e82d93ca78b8f4b7b179ffa4774111c040029",
                    "decodedMethod": null,
                    "errorInfo": "",
                    "fromAddress": "0xea7a7bc3ba38b2569b6bee8dcd8acb4218c08716",
                    "gasUsed": 135732,
                    "id": 14,
                    "methodDecoded": false,
                    "operation": "CREATE",
                    "output": "0x6080604052600436106100405763ffffffff7c01000000000000000000000000000000000000000000000000000000006000350416638da5cb5b811461018f575b600034111561009a576040805173ffffffffffffffffffffffffffffffffffffffff3316815234602082015281517f4103257eaac983ca79a70d28f90dfc4fa16b619bb0c17ee7cab0d4034c279624929181900390910190a15b6109605a111561018d5761018d6000809054906101000a900473ffffffffffffffffffffffffffffffffffffffff1673ffffffffffffffffffffffffffffffffffffffff1663bc7f3b506040518163ffffffff167c0100000000000000000000000000000000000000000000000000000000028152600401602060405180830381600087803b15801561012c57600080fd5b505af1158015610140573d6000803e3d6000fd5b505050506040513d602081101561015657600080fd5b505160408051602036601f8101829004820283018201909352828252909160009181908401838280828437506101cd945050505050565b005b34801561019b57600080fd5b506101a46101f5565b6040805173ffffffffffffffffffffffffffffffffffffffff9092168252519081900360200190f35b600080825160208401856127105a03f43d604051816000823e8280156101f1578282f35b8282fd5b60005473ffffffffffffffffffffffffffffffffffffffff16815600a165627a7a72305820b641eb79ac6642d619896645b4fd186e82d93ca78b8f4b7b179ffa4774111c040029",
                    "revert": false,
                    "revertMessage": "",
                    "selector": "",
                    "status": true,
                    "value": "0"
                },
                "nodeType": 0
            },
            "15": {
                "event": {
                    "contract": "0xea7a7bc3ba38b2569b6bee8dcd8acb4218c08716",
                    "decodedLog": {
                        "name": "CreatedUserWallet",
                        "params": [
                            {
                                "name": "_wallet",
                                "type": "address",
                                "value": "0xb6fc16fd8afd29342660d986c4341476dd2220e0"
                            }
                        ],
                        "signature": "CreatedUserWallet(address)"
                    },
                    "id": 15,
                    "logData": "0x000000000000000000000000b6fc16fd8afd29342660d986c4341476dd2220e0",
                    "logDecoded": true,
                    "operation": "EVENT",
                    "revert": false,
                    "status": true,
                    "topics": [
                        "0x0814288eb1684a10181d25f8b2be20cd2f559850b6578bc9a5bb55a2478af882"
                    ]
                },
                "nodeType": 1
            },
            "16": {
                "invocation": {
                    "address": "0xf48c765bc652eaaa4b4edd9f8c316083903a3a57",
                    "callData": "0x608060405234801561001057600080fd5b5060008054600160a060020a033316600160a060020a031990911617905561023d8061003d6000396000f3006080604052600436106100405763ffffffff7c01000000000000000000000000000000000000000000000000000000006000350416638da5cb5b811461018f575b600034111561009a576040805173ffffffffffffffffffffffffffffffffffffffff3316815234602082015281517f4103257eaac983ca79a70d28f90dfc4fa16b619bb0c17ee7cab0d4034c279624929181900390910190a15b6109605a111561018d5761018d6000809054906101000a900473ffffffffffffffffffffffffffffffffffffffff1673ffffffffffffffffffffffffffffffffffffffff1663bc7f3b506040518163ffffffff167c0100000000000000000000000000000000000000000000000000000000028152600401602060405180830381600087803b15801561012c57600080fd5b505af1158015610140573d6000803e3d6000fd5b505050506040513d602081101561015657600080fd5b505160408051602036601f8101829004820283018201909352828252909160009181908401838280828437506101cd945050505050565b005b34801561019b57600080fd5b506101a46101f5565b6040805173ffffffffffffffffffffffffffffffffffffffff9092168252519081900360200190f35b600080825160208401856127105a03f43d604051816000823e8280156101f1578282f35b8282fd5b60005473ffffffffffffffffffffffffffffffffffffffff16815600a165627a7a72305820b641eb79ac6642d619896645b4fd186e82d93ca78b8f4b7b179ffa4774111c040029",
                    "decodedMethod": null,
                    "errorInfo": "",
                    "fromAddress": "0xea7a7bc3ba38b2569b6bee8dcd8acb4218c08716",
                    "gasUsed": 135732,
                    "id": 16,
                    "methodDecoded": false,
                    "operation": "CREATE",
                    "output": "0x6080604052600436106100405763ffffffff7c01000000000000000000000000000000000000000000000000000000006000350416638da5cb5b811461018f575b600034111561009a576040805173ffffffffffffffffffffffffffffffffffffffff3316815234602082015281517f4103257eaac983ca79a70d28f90dfc4fa16b619bb0c17ee7cab0d4034c279624929181900390910190a15b6109605a111561018d5761018d6000809054906101000a900473ffffffffffffffffffffffffffffffffffffffff1673ffffffffffffffffffffffffffffffffffffffff1663bc7f3b506040518163ffffffff167c0100000000000000000000000000000000000000000000000000000000028152600401602060405180830381600087803b15801561012c57600080fd5b505af1158015610140573d6000803e3d6000fd5b505050506040513d602081101561015657600080fd5b505160408051602036601f8101829004820283018201909352828252909160009181908401838280828437506101cd945050505050565b005b34801561019b57600080fd5b506101a46101f5565b6040805173ffffffffffffffffffffffffffffffffffffffff9092168252519081900360200190f35b600080825160208401856127105a03f43d604051816000823e8280156101f1578282f35b8282fd5b60005473ffffffffffffffffffffffffffffffffffffffff16815600a165627a7a72305820b641eb79ac6642d619896645b4fd186e82d93ca78b8f4b7b179ffa4774111c040029",
                    "revert": false,
                    "revertMessage": "",
                    "selector": "",
                    "status": true,
                    "value": "0"
                },
                "nodeType": 0
            },
            "17": {
                "event": {
                    "contract": "0xea7a7bc3ba38b2569b6bee8dcd8acb4218c08716",
                    "decodedLog": {
                        "name": "CreatedUserWallet",
                        "params": [
                            {
                                "name": "_wallet",
                                "type": "address",
                                "value": "0xf48c765bc652eaaa4b4edd9f8c316083903a3a57"
                            }
                        ],
                        "signature": "CreatedUserWallet(address)"
                    },
                    "id": 17,
                    "logData": "0x000000000000000000000000f48c765bc652eaaa4b4edd9f8c316083903a3a57",
                    "logDecoded": true,
                    "operation": "EVENT",
                    "revert": false,
                    "status": true,
                    "topics": [
                        "0x0814288eb1684a10181d25f8b2be20cd2f559850b6578bc9a5bb55a2478af882"
                    ]
                },
                "nodeType": 1
            },
            "2": {
                "invocation": {
                    "address": "0xf1381f5d8f1ce875a9c8f1a958be050e50616955",
                    "callData": "0x608060405234801561001057600080fd5b5060008054600160a060020a033316600160a060020a031990911617905561023d8061003d6000396000f3006080604052600436106100405763ffffffff7c01000000000000000000000000000000000000000000000000000000006000350416638da5cb5b811461018f575b600034111561009a576040805173ffffffffffffffffffffffffffffffffffffffff3316815234602082015281517f4103257eaac983ca79a70d28f90dfc4fa16b619bb0c17ee7cab0d4034c279624929181900390910190a15b6109605a111561018d5761018d6000809054906101000a900473ffffffffffffffffffffffffffffffffffffffff1673ffffffffffffffffffffffffffffffffffffffff1663bc7f3b506040518163ffffffff167c0100000000000000000000000000000000000000000000000000000000028152600401602060405180830381600087803b15801561012c57600080fd5b505af1158015610140573d6000803e3d6000fd5b505050506040513d602081101561015657600080fd5b505160408051602036601f8101829004820283018201909352828252909160009181908401838280828437506101cd945050505050565b005b34801561019b57600080fd5b506101a46101f5565b6040805173ffffffffffffffffffffffffffffffffffffffff9092168252519081900360200190f35b600080825160208401856127105a03f43d604051816000823e8280156101f1578282f35b8282fd5b60005473ffffffffffffffffffffffffffffffffffffffff16815600a165627a7a72305820b641eb79ac6642d619896645b4fd186e82d93ca78b8f4b7b179ffa4774111c040029",
                    "decodedMethod": null,
                    "errorInfo": "",
                    "fromAddress": "0xea7a7bc3ba38b2569b6bee8dcd8acb4218c08716",
                    "gasUsed": 135732,
                    "id": 2,
                    "methodDecoded": false,
                    "operation": "CREATE",
                    "output": "0x6080604052600436106100405763ffffffff7c01000000000000000000000000000000000000000000000000000000006000350416638da5cb5b811461018f575b600034111561009a576040805173ffffffffffffffffffffffffffffffffffffffff3316815234602082015281517f4103257eaac983ca79a70d28f90dfc4fa16b619bb0c17ee7cab0d4034c279624929181900390910190a15b6109605a111561018d5761018d6000809054906101000a900473ffffffffffffffffffffffffffffffffffffffff1673ffffffffffffffffffffffffffffffffffffffff1663bc7f3b506040518163ffffffff167c0100000000000000000000000000000000000000000000000000000000028152600401602060405180830381600087803b15801561012c57600080fd5b505af1158015610140573d6000803e3d6000fd5b505050506040513d602081101561015657600080fd5b505160408051602036601f8101829004820283018201909352828252909160009181908401838280828437506101cd945050505050565b005b34801561019b57600080fd5b506101a46101f5565b6040805173ffffffffffffffffffffffffffffffffffffffff9092168252519081900360200190f35b600080825160208401856127105a03f43d604051816000823e8280156101f1578282f35b8282fd5b60005473ffffffffffffffffffffffffffffffffffffffff16815600a165627a7a72305820b641eb79ac6642d619896645b4fd186e82d93ca78b8f4b7b179ffa4774111c040029",
                    "revert": false,
                    "revertMessage": "",
                    "selector": "",
                    "status": true,
                    "value": "0"
                },
                "nodeType": 0
            },
            "3": {
                "event": {
                    "contract": "0xea7a7bc3ba38b2569b6bee8dcd8acb4218c08716",
                    "decodedLog": {
                        "name": "CreatedUserWallet",
                        "params": [
                            {
                                "name": "_wallet",
                                "type": "address",
                                "value": "0xf1381f5d8f1ce875a9c8f1a958be050e50616955"
                            }
                        ],
                        "signature": "CreatedUserWallet(address)"
                    },
                    "id": 3,
                    "logData": "0x000000000000000000000000f1381f5d8f1ce875a9c8f1a958be050e50616955",
                    "logDecoded": true,
                    "operation": "EVENT",
                    "revert": false,
                    "status": true,
                    "topics": [
                        "0x0814288eb1684a10181d25f8b2be20cd2f559850b6578bc9a5bb55a2478af882"
                    ]
                },
                "nodeType": 1
            },
            "4": {
                "invocation": {
                    "address": "0xf9b6db4caf83501c2424df4ec47b6e96cd256011",
                    "callData": "0x608060405234801561001057600080fd5b5060008054600160a060020a033316600160a060020a031990911617905561023d8061003d6000396000f3006080604052600436106100405763ffffffff7c01000000000000000000000000000000000000000000000000000000006000350416638da5cb5b811461018f575b600034111561009a576040805173ffffffffffffffffffffffffffffffffffffffff3316815234602082015281517f4103257eaac983ca79a70d28f90dfc4fa16b619bb0c17ee7cab0d4034c279624929181900390910190a15b6109605a111561018d5761018d6000809054906101000a900473ffffffffffffffffffffffffffffffffffffffff1673ffffffffffffffffffffffffffffffffffffffff1663bc7f3b506040518163ffffffff167c0100000000000000000000000000000000000000000000000000000000028152600401602060405180830381600087803b15801561012c57600080fd5b505af1158015610140573d6000803e3d6000fd5b505050506040513d602081101561015657600080fd5b505160408051602036601f8101829004820283018201909352828252909160009181908401838280828437506101cd945050505050565b005b34801561019b57600080fd5b506101a46101f5565b6040805173ffffffffffffffffffffffffffffffffffffffff9092168252519081900360200190f35b600080825160208401856127105a03f43d604051816000823e8280156101f1578282f35b8282fd5b60005473ffffffffffffffffffffffffffffffffffffffff16815600a165627a7a72305820b641eb79ac6642d619896645b4fd186e82d93ca78b8f4b7b179ffa4774111c040029",
                    "decodedMethod": null,
                    "errorInfo": "",
                    "fromAddress": "0xea7a7bc3ba38b2569b6bee8dcd8acb4218c08716",
                    "gasUsed": 135732,
                    "id": 4,
                    "methodDecoded": false,
                    "operation": "CREATE",
                    "output": "0x6080604052600436106100405763ffffffff7c01000000000000000000000000000000000000000000000000000000006000350416638da5cb5b811461018f575b600034111561009a576040805173ffffffffffffffffffffffffffffffffffffffff3316815234602082015281517f4103257eaac983ca79a70d28f90dfc4fa16b619bb0c17ee7cab0d4034c279624929181900390910190a15b6109605a111561018d5761018d6000809054906101000a900473ffffffffffffffffffffffffffffffffffffffff1673ffffffffffffffffffffffffffffffffffffffff1663bc7f3b506040518163ffffffff167c0100000000000000000000000000000000000000000000000000000000028152600401602060405180830381600087803b15801561012c57600080fd5b505af1158015610140573d6000803e3d6000fd5b505050506040513d602081101561015657600080fd5b505160408051602036601f8101829004820283018201909352828252909160009181908401838280828437506101cd945050505050565b005b34801561019b57600080fd5b506101a46101f5565b6040805173ffffffffffffffffffffffffffffffffffffffff9092168252519081900360200190f35b600080825160208401856127105a03f43d604051816000823e8280156101f1578282f35b8282fd5b60005473ffffffffffffffffffffffffffffffffffffffff16815600a165627a7a72305820b641eb79ac6642d619896645b4fd186e82d93ca78b8f4b7b179ffa4774111c040029",
                    "revert": false,
                    "revertMessage": "",
                    "selector": "",
                    "status": true,
                    "value": "0"
                },
                "nodeType": 0
            },
            "5": {
                "event": {
                    "contract": "0xea7a7bc3ba38b2569b6bee8dcd8acb4218c08716",
                    "decodedLog": {
                        "name": "CreatedUserWallet",
                        "params": [
                            {
                                "name": "_wallet",
                                "type": "address",
                                "value": "0xf9b6db4caf83501c2424df4ec47b6e96cd256011"
                            }
                        ],
                        "signature": "CreatedUserWallet(address)"
                    },
                    "id": 5,
                    "logData": "0x000000000000000000000000f9b6db4caf83501c2424df4ec47b6e96cd256011",
                    "logDecoded": true,
                    "operation": "EVENT",
                    "revert": false,
                    "status": true,
                    "topics": [
                        "0x0814288eb1684a10181d25f8b2be20cd2f559850b6578bc9a5bb55a2478af882"
                    ]
                },
                "nodeType": 1
            },
            "6": {
                "invocation": {
                    "address": "0x7620880002f28438c9334363e73abcd324dfdf1e",
                    "callData": "0x608060405234801561001057600080fd5b5060008054600160a060020a033316600160a060020a031990911617905561023d8061003d6000396000f3006080604052600436106100405763ffffffff7c01000000000000000000000000000000000000000000000000000000006000350416638da5cb5b811461018f575b600034111561009a576040805173ffffffffffffffffffffffffffffffffffffffff3316815234602082015281517f4103257eaac983ca79a70d28f90dfc4fa16b619bb0c17ee7cab0d4034c279624929181900390910190a15b6109605a111561018d5761018d6000809054906101000a900473ffffffffffffffffffffffffffffffffffffffff1673ffffffffffffffffffffffffffffffffffffffff1663bc7f3b506040518163ffffffff167c0100000000000000000000000000000000000000000000000000000000028152600401602060405180830381600087803b15801561012c57600080fd5b505af1158015610140573d6000803e3d6000fd5b505050506040513d602081101561015657600080fd5b505160408051602036601f8101829004820283018201909352828252909160009181908401838280828437506101cd945050505050565b005b34801561019b57600080fd5b506101a46101f5565b6040805173ffffffffffffffffffffffffffffffffffffffff9092168252519081900360200190f35b600080825160208401856127105a03f43d604051816000823e8280156101f1578282f35b8282fd5b60005473ffffffffffffffffffffffffffffffffffffffff16815600a165627a7a72305820b641eb79ac6642d619896645b4fd186e82d93ca78b8f4b7b179ffa4774111c040029",
                    "decodedMethod": null,
                    "errorInfo": "",
                    "fromAddress": "0xea7a7bc3ba38b2569b6bee8dcd8acb4218c08716",
                    "gasUsed": 135732,
                    "id": 6,
                    "methodDecoded": false,
                    "operation": "CREATE",
                    "output": "0x6080604052600436106100405763ffffffff7c01000000000000000000000000000000000000000000000000000000006000350416638da5cb5b811461018f575b600034111561009a576040805173ffffffffffffffffffffffffffffffffffffffff3316815234602082015281517f4103257eaac983ca79a70d28f90dfc4fa16b619bb0c17ee7cab0d4034c279624929181900390910190a15b6109605a111561018d5761018d6000809054906101000a900473ffffffffffffffffffffffffffffffffffffffff1673ffffffffffffffffffffffffffffffffffffffff1663bc7f3b506040518163ffffffff167c0100000000000000000000000000000000000000000000000000000000028152600401602060405180830381600087803b15801561012c57600080fd5b505af1158015610140573d6000803e3d6000fd5b505050506040513d602081101561015657600080fd5b505160408051602036601f8101829004820283018201909352828252909160009181908401838280828437506101cd945050505050565b005b34801561019b57600080fd5b506101a46101f5565b6040805173ffffffffffffffffffffffffffffffffffffffff9092168252519081900360200190f35b600080825160208401856127105a03f43d604051816000823e8280156101f1578282f35b8282fd5b60005473ffffffffffffffffffffffffffffffffffffffff16815600a165627a7a72305820b641eb79ac6642d619896645b4fd186e82d93ca78b8f4b7b179ffa4774111c040029",
                    "revert": false,
                    "revertMessage": "",
                    "selector": "",
                    "status": true,
                    "value": "0"
                },
                "nodeType": 0
            },
            "7": {
                "event": {
                    "contract": "0xea7a7bc3ba38b2569b6bee8dcd8acb4218c08716",
                    "decodedLog": {
                        "name": "CreatedUserWallet",
                        "params": [
                            {
                                "name": "_wallet",
                                "type": "address",
                                "value": "0x7620880002f28438c9334363e73abcd324dfdf1e"
                            }
                        ],
                        "signature": "CreatedUserWallet(address)"
                    },
                    "id": 7,
                    "logData": "0x0000000000000000000000007620880002f28438c9334363e73abcd324dfdf1e",
                    "logDecoded": true,
                    "operation": "EVENT",
                    "revert": false,
                    "status": true,
                    "topics": [
                        "0x0814288eb1684a10181d25f8b2be20cd2f559850b6578bc9a5bb55a2478af882"
                    ]
                },
                "nodeType": 1
            },
            "8": {
                "invocation": {
                    "address": "0x9de734a693525f04320dd424cf7ea266193117ac",
                    "callData": "0x608060405234801561001057600080fd5b5060008054600160a060020a033316600160a060020a031990911617905561023d8061003d6000396000f3006080604052600436106100405763ffffffff7c01000000000000000000000000000000000000000000000000000000006000350416638da5cb5b811461018f575b600034111561009a576040805173ffffffffffffffffffffffffffffffffffffffff3316815234602082015281517f4103257eaac983ca79a70d28f90dfc4fa16b619bb0c17ee7cab0d4034c279624929181900390910190a15b6109605a111561018d5761018d6000809054906101000a900473ffffffffffffffffffffffffffffffffffffffff1673ffffffffffffffffffffffffffffffffffffffff1663bc7f3b506040518163ffffffff167c0100000000000000000000000000000000000000000000000000000000028152600401602060405180830381600087803b15801561012c57600080fd5b505af1158015610140573d6000803e3d6000fd5b505050506040513d602081101561015657600080fd5b505160408051602036601f8101829004820283018201909352828252909160009181908401838280828437506101cd945050505050565b005b34801561019b57600080fd5b506101a46101f5565b6040805173ffffffffffffffffffffffffffffffffffffffff9092168252519081900360200190f35b600080825160208401856127105a03f43d604051816000823e8280156101f1578282f35b8282fd5b60005473ffffffffffffffffffffffffffffffffffffffff16815600a165627a7a72305820b641eb79ac6642d619896645b4fd186e82d93ca78b8f4b7b179ffa4774111c040029",
                    "decodedMethod": null,
                    "errorInfo": "",
                    "fromAddress": "0xea7a7bc3ba38b2569b6bee8dcd8acb4218c08716",
                    "gasUsed": 135732,
                    "id": 8,
                    "methodDecoded": false,
                    "operation": "CREATE",
                    "output": "0x6080604052600436106100405763ffffffff7c01000000000000000000000000000000000000000000000000000000006000350416638da5cb5b811461018f575b600034111561009a576040805173ffffffffffffffffffffffffffffffffffffffff3316815234602082015281517f4103257eaac983ca79a70d28f90dfc4fa16b619bb0c17ee7cab0d4034c279624929181900390910190a15b6109605a111561018d5761018d6000809054906101000a900473ffffffffffffffffffffffffffffffffffffffff1673ffffffffffffffffffffffffffffffffffffffff1663bc7f3b506040518163ffffffff167c0100000000000000000000000000000000000000000000000000000000028152600401602060405180830381600087803b15801561012c57600080fd5b505af1158015610140573d6000803e3d6000fd5b505050506040513d602081101561015657600080fd5b505160408051602036601f8101829004820283018201909352828252909160009181908401838280828437506101cd945050505050565b005b34801561019b57600080fd5b506101a46101f5565b6040805173ffffffffffffffffffffffffffffffffffffffff9092168252519081900360200190f35b600080825160208401856127105a03f43d604051816000823e8280156101f1578282f35b8282fd5b60005473ffffffffffffffffffffffffffffffffffffffff16815600a165627a7a72305820b641eb79ac6642d619896645b4fd186e82d93ca78b8f4b7b179ffa4774111c040029",
                    "revert": false,
                    "revertMessage": "",
                    "selector": "",
                    "status": true,
                    "value": "0"
                },
                "nodeType": 0
            },
            "9": {
                "event": {
                    "contract": "0xea7a7bc3ba38b2569b6bee8dcd8acb4218c08716",
                    "decodedLog": {
                        "name": "CreatedUserWallet",
                        "params": [
                            {
                                "name": "_wallet",
                                "type": "address",
                                "value": "0x9de734a693525f04320dd424cf7ea266193117ac"
                            }
                        ],
                        "signature": "CreatedUserWallet(address)"
                    },
                    "id": 9,
                    "logData": "0x0000000000000000000000009de734a693525f04320dd424cf7ea266193117ac",
                    "logDecoded": true,
                    "operation": "EVENT",
                    "revert": false,
                    "status": true,
                    "topics": [
                        "0x0814288eb1684a10181d25f8b2be20cd2f559850b6578bc9a5bb55a2478af882"
                    ]
                },
                "nodeType": 1
            }
        },
        "gasFlame": [
            {
                "children": [
                    {
                        "children": [
                            {
                                "children": [],
                                "depth": 0,
                                "name": "Initial Gas",
                                "value": 21204
                            },
                            {
                                "children": [
                                    {
                                        "children": [
                                            {
                                                "children": [],
                                                "depth": 2,
                                                "name": "contract creation",
                                                "value": 135732
                                            },
                                            {
                                                "children": [],
                                                "depth": 2,
                                                "name": "contract creation",
                                                "value": 135732
                                            },
                                            {
                                                "children": [],
                                                "depth": 2,
                                                "name": "contract creation",
                                                "value": 135732
                                            },
                                            {
                                                "children": [],
                                                "depth": 2,
                                                "name": "contract creation",
                                                "value": 135732
                                            },
                                            {
                                                "children": [],
                                                "depth": 2,
                                                "name": "contract creation",
                                                "value": 135732
                                            },
                                            {
                                                "children": [],
                                                "depth": 2,
                                                "name": "contract creation",
                                                "value": 135732
                                            },
                                            {
                                                "children": [],
                                                "depth": 2,
                                                "name": "contract creation",
                                                "value": 135732
                                            },
                                            {
                                                "children": [],
                                                "depth": 2,
                                                "name": "contract creation",
                                                "value": 135732
                                            }
                                        ],
                                        "depth": 1,
                                        "name": "createWallets",
                                        "value": 1359782
                                    }
                                ],
                                "depth": 0,
                                "name": "Executed Gas",
                                "value": 1362000
                            }
                        ],
                        "depth": -1,
                        "name": "Actual Gas Used",
                        "value": 1383204
                    },
                    {
                        "children": [],
                        "depth": -1,
                        "name": "Refunded Gas",
                        "value": 0
                    }
                ],
                "depth": -2,
                "name": "Total Gas",
                "value": 1383204
            }
        ],
        "isConfirmed": true,
        "mainTrace": [
            {
                "children": [
                    {
                        "children": [
                            {
                                "children": [
                                    {
                                        "children": [],
                                        "depth": 2,
                                        "id": 2,
                                        "order": 2
                                    },
                                    {
                                        "children": [],
                                        "depth": 2,
                                        "id": 3,
                                        "order": 3
                                    },
                                    {
                                        "children": [],
                                        "depth": 2,
                                        "id": 4,
                                        "order": 4
                                    },
                                    {
                                        "children": [],
                                        "depth": 2,
                                        "id": 5,
                                        "order": 5
                                    },
                                    {
                                        "children": [],
                                        "depth": 2,
                                        "id": 6,
                                        "order": 6
                                    },
                                    {
                                        "children": [],
                                        "depth": 2,
                                        "id": 7,
                                        "order": 7
                                    },
                                    {
                                        "children": [],
                                        "depth": 2,
                                        "id": 8,
                                        "order": 8
                                    },
                                    {
                                        "children": [],
                                        "depth": 2,
                                        "id": 9,
                                        "order": 9
                                    },
                                    {
                                        "children": [],
                                        "depth": 2,
                                        "id": 10,
                                        "order": 10
                                    },
                                    {
                                        "children": [],
                                        "depth": 2,
                                        "id": 11,
                                        "order": 11
                                    },
                                    {
                                        "children": [],
                                        "depth": 2,
                                        "id": 12,
                                        "order": 12
                                    },
                                    {
                                        "children": [],
                                        "depth": 2,
                                        "id": 13,
                                        "order": 13
                                    },
                                    {
                                        "children": [],
                                        "depth": 2,
                                        "id": 14,
                                        "order": 14
                                    },
                                    {
                                        "children": [],
                                        "depth": 2,
                                        "id": 15,
                                        "order": 15
                                    },
                                    {
                                        "children": [],
                                        "depth": 2,
                                        "id": 16,
                                        "order": 16
                                    },
                                    {
                                        "children": [],
                                        "depth": 2,
                                        "id": 17,
                                        "order": 17
                                    }
                                ],
                                "depth": 1,
                                "id": 1,
                                "order": 1
                            }
                        ],
                        "depth": 0,
                        "id": 0,
                        "order": 0
                    }
                ],
                "depth": -1,
                "id": -1,
                "order": -1
            }
        ],
        "mainTraceNodeCount": 18,
        "parentIdMap": {
            "0": -1,
            "1": 0,
            "10": 1,
            "11": 1,
            "12": 1,
            "13": 1,
            "14": 1,
            "15": 1,
            "16": 1,
            "17": 1,
            "2": 1,
            "3": 1,
            "4": 1,
            "5": 1,
            "6": 1,
            "7": 1,
            "8": 1,
            "9": 1
        },
        "tidyTrace": [
            {
                "children": [
                    {
                        "children": [
                            {
                                "children": [
                                    {
                                        "children": [],
                                        "depth": 2,
                                        "id": 2,
                                        "order": 2
                                    },
                                    {
                                        "children": [],
                                        "depth": 2,
                                        "id": 3,
                                        "order": 3
                                    },
                                    {
                                        "children": [],
                                        "depth": 2,
                                        "id": 4,
                                        "order": 4
                                    },
                                    {
                                        "children": [],
                                        "depth": 2,
                                        "id": 5,
                                        "order": 5
                                    },
                                    {
                                        "children": [],
                                        "depth": 2,
                                        "id": 6,
                                        "order": 6
                                    },
                                    {
                                        "children": [],
                                        "depth": 2,
                                        "id": 7,
                                        "order": 7
                                    },
                                    {
                                        "children": [],
                                        "depth": 2,
                                        "id": 8,
                                        "order": 8
                                    },
                                    {
                                        "children": [],
                                        "depth": 2,
                                        "id": 9,
                                        "order": 9
                                    },
                                    {
                                        "children": [],
                                        "depth": 2,
                                        "id": 10,
                                        "order": 10
                                    },
                                    {
                                        "children": [],
                                        "depth": 2,
                                        "id": 11,
                                        "order": 11
                                    },
                                    {
                                        "children": [],
                                        "depth": 2,
                                        "id": 12,
                                        "order": 12
                                    },
                                    {
                                        "children": [],
                                        "depth": 2,
                                        "id": 13,
                                        "order": 13
                                    },
                                    {
                                        "children": [],
                                        "depth": 2,
                                        "id": 14,
                                        "order": 14
                                    },
                                    {
                                        "children": [],
                                        "depth": 2,
                                        "id": 15,
                                        "order": 15
                                    },
                                    {
                                        "children": [],
                                        "depth": 2,
                                        "id": 16,
                                        "order": 16
                                    },
                                    {
                                        "children": [],
                                        "depth": 2,
                                        "id": 17,
                                        "order": 17
                                    }
                                ],
                                "depth": 1,
                                "id": 1,
                                "order": 1
                            }
                        ],
                        "depth": 0,
                        "id": 0,
                        "order": 0
                    }
                ],
                "depth": -1,
                "id": -1,
                "order": -1
            }
        ],
        "tidyTraceNodeCount": 18
    },
    "state_change": {
        "stateChanges": [
            {
                "address": "0x57a0c3a4287d9f77c41998fd20971c3650fefcc1",
                "erc": "",
                "slots": [
                    {
                        "current": "0x000000000000000000000000ea7a7bc3ba38b2569b6bee8dcd8acb4218c08716",
                        "key": "0x0000000000000000000000000000000000000000000000000000000000000000",
                        "prev": "0x0000000000000000000000000000000000000000000000000000000000000000"
                    }
                ],
                "storageVariables": []
            },
            {
                "address": "0x7620880002f28438c9334363e73abcd324dfdf1e",
                "erc": "",
                "slots": [
                    {
                        "current": "0x000000000000000000000000ea7a7bc3ba38b2569b6bee8dcd8acb4218c08716",
                        "key": "0x0000000000000000000000000000000000000000000000000000000000000000",
                        "prev": "0x0000000000000000000000000000000000000000000000000000000000000000"
                    }
                ],
                "storageVariables": []
            },
            {
                "address": "0x9de734a693525f04320dd424cf7ea266193117ac",
                "erc": "",
                "slots": [
                    {
                        "current": "0x000000000000000000000000ea7a7bc3ba38b2569b6bee8dcd8acb4218c08716",
                        "key": "0x0000000000000000000000000000000000000000000000000000000000000000",
                        "prev": "0x0000000000000000000000000000000000000000000000000000000000000000"
                    }
                ],
                "storageVariables": []
            },
            {
                "address": "0xb6fc16fd8afd29342660d986c4341476dd2220e0",
                "erc": "",
                "slots": [
                    {
                        "current": "0x000000000000000000000000ea7a7bc3ba38b2569b6bee8dcd8acb4218c08716",
                        "key": "0x0000000000000000000000000000000000000000000000000000000000000000",
                        "prev": "0x0000000000000000000000000000000000000000000000000000000000000000"
                    }
                ],
                "storageVariables": []
            },
            {
                "address": "0xb91a3924ad1aac6ba11dab9d4bb1259d61537122",
                "erc": "",
                "slots": [
                    {
                        "current": "0x000000000000000000000000ea7a7bc3ba38b2569b6bee8dcd8acb4218c08716",
                        "key": "0x0000000000000000000000000000000000000000000000000000000000000000",
                        "prev": "0x0000000000000000000000000000000000000000000000000000000000000000"
                    }
                ],
                "storageVariables": []
            },
            {
                "address": "0xea7a7bc3ba38b2569b6bee8dcd8acb4218c08716",
                "erc": "",
                "slots": [
                    {
                        "current": "0x000000000000000000000000000000000000000000000000000000000002b545",
                        "key": "0x0000000000000000000000000000000000000000000000000000000000000003",
                        "prev": "0x000000000000000000000000000000000000000000000000000000000002b53d"
                    }
                ],
                "storageVariables": [
                    {
                        "name": "createdWallets",
                        "type": "uint256",
                        "value": {
                            "current": "177477",
                            "prev": "177469",
                            "typeTag": 1
                        }
                    }
                ]
            },
            {
                "address": "0xf1381f5d8f1ce875a9c8f1a958be050e50616955",
                "erc": "",
                "slots": [
                    {
                        "current": "0x000000000000000000000000ea7a7bc3ba38b2569b6bee8dcd8acb4218c08716",
                        "key": "0x0000000000000000000000000000000000000000000000000000000000000000",
                        "prev": "0x0000000000000000000000000000000000000000000000000000000000000000"
                    }
                ],
                "storageVariables": []
            },
            {
                "address": "0xf48c765bc652eaaa4b4edd9f8c316083903a3a57",
                "erc": "",
                "slots": [
                    {
                        "current": "0x000000000000000000000000ea7a7bc3ba38b2569b6bee8dcd8acb4218c08716",
                        "key": "0x0000000000000000000000000000000000000000000000000000000000000000",
                        "prev": "0x0000000000000000000000000000000000000000000000000000000000000000"
                    }
                ],
                "storageVariables": []
            },
            {
                "address": "0xf9b6db4caf83501c2424df4ec47b6e96cd256011",
                "erc": "",
                "slots": [
                    {
                        "current": "0x000000000000000000000000ea7a7bc3ba38b2569b6bee8dcd8acb4218c08716",
                        "key": "0x0000000000000000000000000000000000000000000000000000000000000000",
                        "prev": "0x0000000000000000000000000000000000000000000000000000000000000000"
                    }
                ],
                "storageVariables": []
            }
        ]
    }
}