{
    "balance_change": {
        "balanceChanges": [
            {
                "account": "0xeada9f56fa738ac662fc4b742e711d3891640069",
                "assets": [
                    {
                        "address": "0x6f7fc665e508525d0d7ef9e9b1a239bb5653ecf9",
                        "amount": "1",
                        "iconUrl": "",
                        "isERC1155": false,
                        "isERC721": true,
                        "sign": false,
                        "tokenID": "8",
                        "value": ""
                    }
                ]
            },
            {
                "account": "0xcda72070e455bb31c7690a170224ce43623d0b6f",
                "assets": [
                    {
                        "address": "0x6f7fc665e508525d0d7ef9e9b1a239bb5653ecf9",
                        "amount": "1",
                        "iconUrl": "",
                        "isERC1155": false,
                        "isERC721": true,
                        "sign": true,
                        "tokenID": "8",
                        "value": ""
                    }
                ]
            }
        ]
    },
    "profile": {
        "basic_info": {
            "baseFee": "8.818533836",
            "blockNumber": 15880052,
            "callData": "0x798bac8d0000000000000000000000006f7fc665e508525d0d7ef9e9b1a239bb5653ecf9000000000000000000000000000000000000000000000000000000000000000800000000000000000000000000000000000000000000000006f05b59d3b20000",
            "debugEnable": true,
            "errorInfo": "",
            "eventCount": 3,
            "feeRecipient": "0xdafea492d9c6733ae3d56b7ed1adb60692c98bc5",
            "formatValue": "0",
            "gasLimit": 117261,
            "gasPrice": "9.818533836",
            "gasUsed": 100440,
            "intTxnCount": 3,
            "internalRevert": false,
            "internalRevertMessage": "",
            "isContractCreation": false,
            "isFlashloan": false,
            "maxFee": "10.269145835",
            "nonce": 258,
            "overwritedBlockNumber": -1,
            "priorityFee": "1",
            "receiver": "0xcda72070e455bb31c7690a170224ce43623d0b6f",
            "revertMessage": "",
            "sender": "0xeada9f56fa738ac662fc4b742e711d3891640069",
            "simulationEnable": true,
            "sourceTxnHash": "0x60750ed2bfd72f867b0fa17fa7b5d4167cd5646e6ef02776bb705fa64a2aebb8",
            "status": true,
            "timestamp": "2022-11-02T04:48:59Z",
            "transactionFee": "0.00098617353848784",
            "txnHash": "0x60750ed2bfd72f867b0fa17fa7b5d4167cd5646e6ef02776bb705fa64a2aebb8",
            "txnIndex": 82,
            "type": 2,
            "value": "0"
        },
        "fund_flow": [
            {
                "amount": "1",
                "from": "0xeada9f56fa738ac662fc4b742e711d3891640069",
                "id": 1,
                "isERC1155": false,
                "isERC721": true,
                "isReverted": false,
                "order": 1,
                "to": "0xcda72070e455bb31c7690a170224ce43623d0b6f",
                "token": "0x6f7fc665e508525d0d7ef9e9b1a239bb5653ecf9",
                "tokenID": "8"
            }
        ],
        "token_infos": [
            {
                "address": "0xc02aaa39b223fe8d0a0e5c4f27ead9083c756cc2",
                "decimals": 18
            },
            {
                "address": "0xeeeeeeeeeeeeeeeeeeeeeeeeeeeeeeeeeeeeeeee",
                "decimals": 18
            }
        ]
    },
    "address_label": {
        "labels": [
            {
                "address": "0xeeeeeeeeeeeeeeeeeeeeeeeeeeeeeeeeeeeeeeee",
                "label": "Ether"
            },
            {
                "address": "0x6f7fc665e508525d0d7ef9e9b1a239bb5653ecf9",
                "label": "RAM01"
            },
            {
                "address": "0x9b5d1e314a8c8af17150fe4e327e8523ee15d25f",
                "label": "FNDNFTMarket"
            },
            {
                "address": "0x0000000000000000000000000000000000000003",
                "label": "Precompiled"
            },
            {
                "address": "0x0000000000000000000000000000000000000004",
                "label": "Precompiled"
            },
            {
                "address": "0xe4e4003afe3765aca8149a82fc064c0b125b9e5a",
                "label": "Manifold ERC721 Creator (M721)"
            },
            {
                "address": "0xcda72070e455bb31c7690a170224ce43623d0b6f",
                "label": "Foundation: Market"
            },
            {
                "address": "0x0000000000000000000000000000000000000001",
                "label": "Precompiled"
            },
            {
                "address": "0x0000000000000000000000000000000000000002",
                "label": "Precompiled"
            }
        ]
    },
    "trace": {
        "accountLabels": null,
        "dataMap": {
            "-1": {
                "invocation": {
                    "address": "0xeada9f56fa738ac662fc4b742e711d3891640069",
                    "callData": "",
                    "decodedMethod": null,
                    "errorInfo": "",
                    "fromAddress": "",
                    "gasUsed": 0,
                    "id": -1,
                    "methodDecoded": false,
                    "operation": "",
                    "output": "",
                    "revert": false,
                    "revertMessage": "",
                    "selector": "",
                    "status": false,
                    "value": ""
                },
                "nodeType": 0
            },
            "0": {
                "invocation": {
                    "address": "0xcda72070e455bb31c7690a170224ce43623d0b6f",
                    "callData": "0x0000000000000000000000006f7fc665e508525d0d7ef9e9b1a239bb5653ecf9000000000000000000000000000000000000000000000000000000000000000800000000000000000000000000000000000000000000000006f05b59d3b20000",
                    "decodedMethod": {
                        "callParams": [
                            {
                                "name": "nftContract",
                                "type": "address",
                                "value": "0x6f7fc665e508525d0d7ef9e9b1a239bb5653ecf9"
                            },
                            {
                                "name": "tokenId",
                                "type": "uint256",
                                "value": "8"
                            },
                            {
                                "name": "price",
                                "type": "uint256",
                                "value": "500,000,000,000,000,000"
                            }
                        ],
                        "constructorArguments": "",
                        "name": "setBuyPrice",
                        "returnParams": [],
                        "signature": "setBuyPrice(address,uint256,uint256)"
                    },
                    "errorInfo": "",
                    "fromAddress": "0xeada9f56fa738ac662fc4b742e711d3891640069",
                    "gasUsed": 100440,
                    "id": 0,
                    "methodDecoded": true,
                    "operation": "CALL",
                    "output": "",
                    "revert": false,
                    "revertMessage": "",
                    "selector": "0x798bac8d",
                    "status": true,
                    "value": "0"
                },
                "nodeType": 0
            },
            "1": {
                "invocation": {
                    "address": "0x9b5d1e314a8c8af17150fe4e327e8523ee15d25f",
                    "callData": "0x0000000000000000000000006f7fc665e508525d0d7ef9e9b1a239bb5653ecf9000000000000000000000000000000000000000000000000000000000000000800000000000000000000000000000000000000000000000006f05b59d3b20000",
                    "decodedMethod": {
                        "callParams": [
                            {
                                "name": "nftContract",
                                "type": "address",
                                "value": "0x6f7fc665e508525d0d7ef9e9b1a239bb5653ecf9"
                            },
                            {
                                "name": "tokenId",
                                "type": "uint256",
                                "value": "8"
                            },
                            {
                                "name": "price",
                                "type": "uint256",
                                "value": "500,000,000,000,000,000"
                            }
                        ],
                        "constructorArguments": "",
                        "name": "setBuyPrice",
                        "returnParams": [],
                        "signature": "setBuyPrice(address,uint256,uint256)"
                    },
                    "errorInfo": "",
                    "fromAddress": "0xcda72070e455bb31c7690a170224ce43623d0b6f",
                    "gasUsed": 74186,
                    "id": 1,
                    "methodDecoded": true,
                    "operation": "DELEGATECALL",
                    "output": "",
                    "revert": false,
                    "revertMessage": "",
                    "selector": "0x798bac8d",
                    "status": true,
                    "value": "0"
                },
                "nodeType": 0
            },
            "2": {
                "invocation": {
                    "address": "0x6f7fc665e508525d0d7ef9e9b1a239bb5653ecf9",
                    "callData": "0x000000000000000000000000eada9f56fa738ac662fc4b742e711d3891640069000000000000000000000000cda72070e455bb31c7690a170224ce43623d0b6f0000000000000000000000000000000000000000000000000000000000000008",
                    "decodedMethod": {
                        "callParams": [
                            {
                                "name": "from",
                                "type": "address",
                                "value": "0xeada9f56fa738ac662fc4b742e711d3891640069"
                            },
                            {
                                "name": "to",
                                "type": "address",
                                "value": "0xcda72070e455bb31c7690a170224ce43623d0b6f"
                            },
                            {
                                "decimalAvailable": true,
                                "name": "tokenId",
                                "type": "uint256",
                                "value": "8"
                            }
                        ],
                        "constructorArguments": "",
                        "name": "transferFrom",
                        "returnParams": [],
                        "signature": "transferFrom(address,address,uint256)"
                    },
                    "errorInfo": "",
                    "fromAddress": "0xcda72070e455bb31c7690a170224ce43623d0b6f",
                    "gasUsed": 35515,
                    "id": 2,
                    "methodDecoded": true,
                    "operation": "CALL",
                    "output": "",
                    "revert": false,
                    "revertMessage": "",
                    "selector": "0x23b872dd",
                    "status": true,
                    "value": "0"
                },
                "nodeType": 0
            },
            "3": {
                "invocation": {
                    "address": "0xe4e4003afe3765aca8149a82fc064c0b125b9e5a",
                    "callData": "0x000000000000000000000000eada9f56fa738ac662fc4b742e711d3891640069000000000000000000000000cda72070e455bb31c7690a170224ce43623d0b6f0000000000000000000000000000000000000000000000000000000000000008",
                    "decodedMethod": {
                        "callParams": [
                            {
                                "name": "from",
                                "type": "address",
                                "value": "0xeada9f56fa738ac662fc4b742e711d3891640069"
                            },
                            {
                                "name": "to",
                                "type": "address",
                                "value": "0xcda72070e455bb31c7690a170224ce43623d0b6f"
                            },
                            {
                                "decimalAvailable": true,
                                "name": "tokenId",
                                "type": "uint256",
                                "value": "8"
                            }
                        ],
                        "constructorArguments": "",
                        "name": "transferFrom",
                        "returnParams": [],
                        "signature": "transferFrom(address,address,uint256)"
                    },
                    "errorInfo": "",
                    "fromAddress": "0x6f7fc665e508525d0d7ef9e9b1a239bb5653ecf9",
                    "gasUsed": 30584,
                    "id": 3,
                    "methodDecoded": true,
                    "operation": "DELEGATECALL",
                    "output": "",
                    "revert": false,
                    "revertMessage": "",
                    "selector": "0x23b872dd",
                    "status": true,
                    "value": "0"
                },
                "nodeType": 0
            },
            "4": {
                "event": {
                    "contract": "0x6f7fc665e508525d0d7ef9e9b1a239bb5653ecf9",
                    "decodedLog": {
                        "name": "Approval",
                        "params": [
                            {
                                "name": "owner",
                                "type": "address",
                                "value": "0xeada9f56fa738ac662fc4b742e711d3891640069"
                            },
                            {
                                "name": "approved",
                                "type": "address",
                                "value": "0x0000000000000000000000000000000000000000"
                            },
                            {
                                "decimalAvailable": true,
                                "name": "tokenId",
                                "type": "uint256",
                                "value": "8"
                            }
                        ],
                        "signature": "Approval(address,address,uint256)"
                    },
                    "id": 4,
                    "logData": "0x",
                    "logDecoded": true,
                    "operation": "EVENT",
                    "revert": false,
                    "status": true,
                    "topics": [
                        "0x8c5be1e5ebec7d5bd14f71427d1e84f3dd0314c0f7b2291e5b200ac8c7c3b925",
                        "0x000000000000000000000000eada9f56fa738ac662fc4b742e711d3891640069",
                        "0x0000000000000000000000000000000000000000000000000000000000000000",
                        "0x0000000000000000000000000000000000000000000000000000000000000008"
                    ]
                },
                "nodeType": 1
            },
            "5": {
                "event": {
                    "contract": "0x6f7fc665e508525d0d7ef9e9b1a239bb5653ecf9",
                    "decodedLog": {
                        "name": "Transfer",
                        "params": [
                            {
                                "name": "from",
                                "type": "address",
                                "value": "0xeada9f56fa738ac662fc4b742e711d3891640069"
                            },
                            {
                                "name": "to",
                                "type": "address",
                                "value": "0xcda72070e455bb31c7690a170224ce43623d0b6f"
                            },
                            {
                                "decimalAvailable": true,
                                "name": "tokenId",
                                "type": "uint256",
                                "value": "8"
                            }
                        ],
                        "signature": "Transfer(address,address,uint256)"
                    },
                    "id": 5,
                    "logData": "0x",
                    "logDecoded": true,
                    "operation": "EVENT",
                    "revert": false,
                    "status": true,
                    "topics": [
                        "0xddf252ad1be2c89b69c2b068fc378daa952ba7f163c4a11628f55a4df523b3ef",
                        "0x000000000000000000000000eada9f56fa738ac662fc4b742e711d3891640069",
                        "0x000000000000000000000000cda72070e455bb31c7690a170224ce43623d0b6f",
                        "0x0000000000000000000000000000000000000000000000000000000000000008"
                    ]
                },
                "nodeType": 1
            },
            "6": {
                "event": {
                    "contract": "0xcda72070e455bb31c7690a170224ce43623d0b6f",
                    "decodedLog": {
                        "name": "BuyPriceSet",
                        "params": [
                            {
                                "name": "nftContract",
                                "type": "address",
                                "value": "0x6f7fc665e508525d0d7ef9e9b1a239bb5653ecf9"
                            },
                            {
                                "name": "tokenId",
                                "type": "uint256",
                                "value": "8"
                            },
                            {
                                "name": "seller",
                                "type": "address",
                                "value": "0xeada9f56fa738ac662fc4b742e711d3891640069"
                            },
                            {
                                "name": "price",
                                "type": "uint256",
                                "value": "500,000,000,000,000,000"
                            }
                        ],
                        "signature": "BuyPriceSet(address,uint256,address,uint256)"
                    },
                    "id": 6,
                    "logData": "0x00000000000000000000000000000000000000000000000006f05b59d3b20000",
                    "logDecoded": true,
                    "operation": "EVENT",
                    "revert": false,
                    "status": true,
                    "topics": [
                        "0xfcc77ea8bdcce862f43b7fb00fe6b0eb90d6aeead27d3800d9257cf7a05f9d96",
                        "0x0000000000000000000000006f7fc665e508525d0d7ef9e9b1a239bb5653ecf9",
                        "0x0000000000000000000000000000000000000000000000000000000000000008",
                        "0x000000000000000000000000eada9f56fa738ac662fc4b742e711d3891640069"
                    ]
                },
                "nodeType": 1
            }
        },
        "gasFlame": [
            {
                "children": [
                    {
                        "children": [
                            {
                                "children": [],
                                "depth": 0,
                                "name": "Initial Gas",
                                "value": 21772
                            },
                            {
                                "children": [
                                    {
                                        "children": [
                                            {
                                                "children": [
                                                    {
                                                        "children": [],
                                                        "depth": 3,
                                                        "name": "transferFrom",
                                                        "value": 30584
                                                    }
                                                ],
                                                "depth": 2,
                                                "name": "transferFrom",
                                                "value": 35515
                                            }
                                        ],
                                        "depth": 1,
                                        "name": "setBuyPrice",
                                        "value": 74186
                                    }
                                ],
                                "depth": 0,
                                "name": "Executed Gas",
                                "value": 81468
                            }
                        ],
                        "depth": -1,
                        "name": "Actual Gas Used",
                        "value": 100440
                    },
                    {
                        "children": [],
                        "depth": -1,
                        "name": "Refunded Gas",
                        "value": 2800
                    }
                ],
                "depth": -2,
                "name": "Total Gas",
                "value": 103240
            }
        ],
        "isConfirmed": true,
        "mainTrace": [
            {
                "children": [
                    {
                        "children": [
                            {
                                "children": [
                                    {
                                        "children": [
                                            {
                                                "children": [
                                                    {
                                                        "children": [],
                                                        "depth": 4,
                                                        "id": 4,
                                                        "order": 4
                                                    },
                                                    {
                                                        "children": [],
                                                        "depth": 4,
                                                        "id": 5,
                                                        "order": 5
                                                    }
                                                ],
                                                "depth": 3,
                                                "id": 3,
                                                "order": 3
                                            }
                                        ],
                                        "depth": 2,
                                        "id": 2,
                                        "order": 2
                                    },
                                    {
                                        "children": [],
                                        "depth": 2,
                                        "id": 6,
                                        "order": 6
                                    }
                                ],
                                "depth": 1,
                                "id": 1,
                                "order": 1
                            }
                        ],
                        "depth": 0,
                        "id": 0,
                        "order": 0
                    }
                ],
                "depth": -1,
                "id": -1,
                "order": -1
            }
        ],
        "mainTraceNodeCount": 7,
        "parentIdMap": {
            "0": -1,
            "1": 0,
            "2": 1,
            "3": 2,
            "4": 3,
            "5": 3,
            "6": 1
        },
        "tidyTrace": [
            {
                "children": [
                    {
                        "children": [
                            {
                                "children": [
                                    {
                                        "children": [
                                            {
                                                "children": [
                                                    {
                                                        "children": [],
                                                        "depth": 4,
                                                        "id": 4,
                                                        "order": 4
                                                    },
                                                    {
                                                        "children": [],
                                                        "depth": 4,
                                                        "id": 5,
                                                        "order": 5
                                                    }
                                                ],
                                                "depth": 3,
                                                "id": 3,
                                                "order": 3
                                            }
                                        ],
                                        "depth": 2,
                                        "id": 2,
                                        "order": 2
                                    },
                                    {
                                        "children": [],
                                        "depth": 2,
                                        "id": 6,
                                        "order": 6
                                    }
                                ],
                                "depth": 1,
                                "id": 1,
                                "order": 1
                            }
                        ],
                        "depth": 0,
                        "id": 0,
                        "order": 0
                    }
                ],
                "depth": -1,
                "id": -1,
                "order": -1
            }
        ],
        "tidyTraceNodeCount": 7
    },
    "state_change": {
        "stateChanges": [
            {
                "address": "0x6f7fc665e508525d0d7ef9e9b1a239bb5653ecf9",
                "erc": "ERC-721",
                "slots": [
                    {
                        "current": "0x000000000000000000000000000000000000000000000000000000000000000d",
                        "key": "0x15be874524e6bee1669b75aef2ea6c9de445bde4e8175cefa4d30edd1e64d6ac",
                        "prev": "0x000000000000000000000000000000000000000000000000000000000000000c"
                    },
                    {
                        "current": "0x000000000000000000000000cda72070e455bb31c7690a170224ce43623d0b6f",
                        "key": "0xf560bbfc938167af2c4e8294c3ab4ac7f2a57e4f3b499a2fe7a3926e0bb2e7d8",
                        "prev": "0x000000000000000000000000eada9f56fa738ac662fc4b742e711d3891640069"
                    },
                    {
                        "current": "0x0000000000000000000000000000000000000000000000000000000000000005",
                        "key": "0x98530a6c397fc1f6b0d9daf7f58ed0750f16efc54f19da1b580fce10221288f1",
                        "prev": "0x0000000000000000000000000000000000000000000000000000000000000006"
                    }
                ],
                "storageVariables": [
                    {
                        "name": "_balances",
                        "type": "mapping(address => uint256)",
                        "value": {
                            "pairs": [
                                {
                                    "key": "0xcda72070e455bb31c7690a170224ce43623d0b6f",
                                    "value": {
                                        "current": "13",
                                        "prev": "12",
                                        "typeTag": 1
                                    }
                                },
                                {
                                    "key": "0xeada9f56fa738ac662fc4b742e711d3891640069",
                                    "value": {
                                        "current": "5",
                                        "prev": "6",
                                        "typeTag": 1
                                    }
                                }
                            ],
                            "typeTag": 4
                        }
                    },
                    {
                        "name": "_owners",
                        "type": "mapping(uint256 => address)",
                        "value": {
                            "pairs": [
                                {
                                    "key": "8",
                                    "value": {
                                        "current": "0xcda72070e455bb31c7690a170224ce43623d0b6f",
                                        "prev": "0xeada9f56fa738ac662fc4b742e711d3891640069",
                                        "typeTag": 1
                                    }
                                }
                            ],
                            "typeTag": 4
                        }
                    }
                ]
            },
            {
                "address": "0xcda72070e455bb31c7690a170224ce43623d0b6f",
                "erc": "",
                "slots": [
                    {
                        "current": "0x0000000006f05b59d3b20000eada9f56fa738ac662fc4b742e711d3891640069",
                        "key": "0xfbb84b2c11c06100ad0a14289353792a6664f89584154e46434c3257474402ea",
                        "prev": "0x0000000000000000000000000000000000000000000000000000000000000000"
                    }
                ],
                "storageVariables": [
                    {
                        "name": "nftContractToTokenIdToBuyPrice",
                        "type": "mapping(address => mapping(uint256 => struct NFTMarketBuyPrice.BuyPrice))",
                        "value": {
                            "pairs": [
                                {
                                    "key": "0x6f7fc665e508525d0d7ef9e9b1a239bb5653ecf9",
                                    "value": {
                                        "pairs": [
                                            {
                                                "key": "8",
                                                "value": {
                                                    "fields": [
                                                        {
                                                            "name": "seller",
                                                            "type": "address payable",
                                                            "value": {
                                                                "current": "0xeada9f56fa738ac662fc4b742e711d3891640069",
                                                                "prev": "0x0000000000000000000000000000000000000000",
                                                                "typeTag": 1
                                                            }
                                                        },
                                                        {
                                                            "name": "price",
                                                            "type": "uint96",
                                                            "value": {
                                                                "current": "500000000000000000",
                                                                "prev": "0",
                                                                "typeTag": 1
                                                            }
                                                        }
                                                    ],
                                                    "typeTag": 3
                                                }
                                            }
                                        ],
                                        "typeTag": 4
                                    }
                                }
                            ],
                            "typeTag": 4
                        }
                    }
                ]
            }
        ]
    }
}