{
    "balance_change": {
        "balanceChanges": []
    },
    "profile": {
        "basic_info": {
            "baseFee": "",
            "blockNumber": 11467448,
            "callData": "0x64887334000000000000000000000000000000000000000000000000000000000000008000000000000000000000000000000000000000000000000000000000000001000000000000000000000000000000000000000000000000000000000000aefab600000000000000000000000000000000000000000000000000000000000001800000000000000000000000000000000000000000000000000000000000000003000000fc450000003b0030000006000000000000000000000000000000000000000000f51bfd000000fb00005c000000000000000000000000000000000000006346161812000000000000000000000000000000000000000000000000000000000000000000000000000000000000000000000000000000000000000000000300000009bc000000c600d70000f40000000000000000000000000000000000000000000fe601000000050000ab00000000000000000000000000000000000000a6c9e9e4f00000000000000000000000000000000000000000000000000000000000000000000000000000000000000000000000000000000000000000000003000000000000000000000000000000000000000000000000000000000000000000000000000000000000000000000000000000000000000000000000000000010000000000000000000000000000000000000000000000000000000000000002",
            "debugEnable": true,
            "errorInfo": "",
            "eventCount": 0,
            "feeRecipient": "0x99c85bb64564d9ef9a99621301f22c9993cb89e3",
            "formatValue": "0",
            "gasLimit": 96960,
            "gasPrice": "113",
            "gasUsed": 46960,
            "intTxnCount": 0,
            "internalRevert": false,
            "internalRevertMessage": "",
            "isContractCreation": false,
            "isFlashloan": false,
            "maxFee": "",
            "nonce": 1065264,
            "overwritedBlockNumber": -1,
            "priorityFee": "",
            "receiver": "0xbaf075545c3a56ecbaf219e4a1b69bc2b94b0b75",
            "revertMessage": "",
            "sender": "0x8bc3da587def887b5c822105729ee1d6af05a5ca",
            "simulationEnable": true,
            "sourceTxnHash": "0x60f938ca1df33604080089407698164c3534f20e55c7ce3d16081d6a598a6833",
            "status": true,
            "timestamp": "2020-12-17T00:38:40Z",
            "transactionFee": "0.00530648",
            "txnHash": "0x60f938ca1df33604080089407698164c3534f20e55c7ce3d16081d6a598a6833",
            "txnIndex": 85,
            "type": 0,
            "value": "0"
        },
        "fund_flow": [],
        "token_infos": [
            {
                "address": "0xc02aaa39b223fe8d0a0e5c4f27ead9083c756cc2",
                "decimals": 18
            },
            {
                "address": "0xeeeeeeeeeeeeeeeeeeeeeeeeeeeeeeeeeeeeeeee",
                "decimals": 18
            }
        ]
    },
    "address_label": {
        "labels": [
            {
                "address": "0x0000000000000000000000000000000000000002",
                "label": "Precompiled"
            },
            {
                "address": "0x0000000000000000000000000000000000000003",
                "label": "Precompiled"
            },
            {
                "address": "0x0000000000000000000000000000000000000004",
                "label": "Precompiled"
            },
            {
                "address": "0xeeeeeeeeeeeeeeeeeeeeeeeeeeeeeeeeeeeeeeee",
                "label": "Ether"
            },
            {
                "address": "0xbaf075545c3a56ecbaf219e4a1b69bc2b94b0b75",
                "label": "ConversionRates"
            },
            {
                "address": "0x0000000000000000000000000000000000000001",
                "label": "Precompiled"
            }
        ]
    },
    "trace": {
        "accountLabels": null,
        "dataMap": {
            "-1": {
                "invocation": {
                    "address": "0x8bc3da587def887b5c822105729ee1d6af05a5ca",
                    "callData": "",
                    "decodedMethod": null,
                    "errorInfo": "",
                    "fromAddress": "",
                    "gasUsed": 0,
                    "id": -1,
                    "methodDecoded": false,
                    "operation": "",
                    "output": "",
                    "revert": false,
                    "revertMessage": "",
                    "selector": "",
                    "status": false,
                    "value": ""
                },
                "nodeType": 0
            },
            "0": {
                "invocation": {
                    "address": "0xbaf075545c3a56ecbaf219e4a1b69bc2b94b0b75",
                    "callData": "0x000000000000000000000000000000000000000000000000000000000000008000000000000000000000000000000000000000000000000000000000000001000000000000000000000000000000000000000000000000000000000000aefab600000000000000000000000000000000000000000000000000000000000001800000000000000000000000000000000000000000000000000000000000000003000000fc450000003b0030000006000000000000000000000000000000000000000000f51bfd000000fb00005c000000000000000000000000000000000000006346161812000000000000000000000000000000000000000000000000000000000000000000000000000000000000000000000000000000000000000000000300000009bc000000c600d70000f40000000000000000000000000000000000000000000fe601000000050000ab00000000000000000000000000000000000000a6c9e9e4f00000000000000000000000000000000000000000000000000000000000000000000000000000000000000000000000000000000000000000000003000000000000000000000000000000000000000000000000000000000000000000000000000000000000000000000000000000000000000000000000000000010000000000000000000000000000000000000000000000000000000000000002",
                    "decodedMethod": {
                        "callParams": [
                            {
                                "name": "buy",
                                "type": "bytes14[]",
                                "value": [
                                    "0x000000fc450000003b0030000006",
                                    "0x000000f51bfd000000fb00005c00",
                                    "0x6346161812000000000000000000"
                                ]
                            },
                            {
                                "name": "sell",
                                "type": "bytes14[]",
                                "value": [
                                    "0x00000009bc000000c600d70000f4",
                                    "0x0000000fe601000000050000ab00",
                                    "0xa6c9e9e4f0000000000000000000"
                                ]
                            },
                            {
                                "name": "blockNumber",
                                "type": "uint256",
                                "value": "11,467,446"
                            },
                            {
                                "name": "indices",
                                "type": "uint256[]",
                                "value": [
                                    "0",
                                    "1",
                                    "2"
                                ]
                            }
                        ],
                        "constructorArguments": "",
                        "name": "setCompactData",
                        "returnParams": [],
                        "signature": "setCompactData(bytes14[],bytes14[],uint256,uint256[])"
                    },
                    "errorInfo": "",
                    "fromAddress": "0x8bc3da587def887b5c822105729ee1d6af05a5ca",
                    "gasUsed": 46960,
                    "id": 0,
                    "methodDecoded": true,
                    "operation": "CALL",
                    "output": "",
                    "revert": false,
                    "revertMessage": "",
                    "selector": "0x64887334",
                    "status": true,
                    "value": "0"
                },
                "nodeType": 0
            }
        },
        "gasFlame": [
            {
                "children": [
                    {
                        "children": [
                            {
                                "children": [],
                                "depth": 0,
                                "name": "Initial Gas",
                                "value": 23616
                            },
                            {
                                "children": [],
                                "depth": 0,
                                "name": "Executed Gas",
                                "value": 23344
                            }
                        ],
                        "depth": -1,
                        "name": "Actual Gas Used",
                        "value": 46960
                    },
                    {
                        "children": [],
                        "depth": -1,
                        "name": "Refunded Gas",
                        "value": 0
                    }
                ],
                "depth": -2,
                "name": "Total Gas",
                "value": 46960
            }
        ],
        "isConfirmed": true,
        "mainTrace": [
            {
                "children": [
                    {
                        "children": [],
                        "depth": 0,
                        "id": 0,
                        "order": 0
                    }
                ],
                "depth": -1,
                "id": -1,
                "order": -1
            }
        ],
        "mainTraceNodeCount": 1,
        "parentIdMap": {
            "0": -1
        },
        "tidyTrace": [
            {
                "children": [
                    {
                        "children": [],
                        "depth": 0,
                        "id": 0,
                        "order": 0
                    }
                ],
                "depth": -1,
                "id": -1,
                "order": -1
            }
        ],
        "tidyTraceNodeCount": 1
    },
    "state_change": {
        "stateChanges": [
            {
                "address": "0xbaf075545c3a56ecbaf219e4a1b69bc2b94b0b75",
                "erc": "",
                "slots": [
                    {
                        "current": "0x00aefab6a6c9e9e4f00000000000000000006346161812000000000000000000",
                        "key": "0xdf6966c971051c3d54ec59162606531493a51404a002842f56009d7e5cf4a8c9",
                        "prev": "0x00aefab0a5c7e9e4ed0000000000000000006447161813000000000000000000"
                    },
                    {
                        "current": "0x00aefab600000009bc000000c600d70000f4000000fc450000003b0030000006",
                        "key": "0xdf6966c971051c3d54ec59162606531493a51404a002842f56009d7e5cf4a8c7",
                        "prev": "0x00aefab000000009bc000000c600d50000f4000000fb450000003c0030000005"
                    },
                    {
                        "current": "0x00aefab60000000fe601000000050000ab00000000f51bfd000000fb00005c00",
                        "key": "0xdf6966c971051c3d54ec59162606531493a51404a002842f56009d7e5cf4a8c8",
                        "prev": "0x00aefab000000010e601000000050000ab00000000f51afe000000fb00005d00"
                    }
                ],
                "storageVariables": [
                    {
                        "name": "tokenRatesCompactData",
                        "type": "bytes32[]",
                        "value": {
                            "elemType": "bytes32",
                            "elems": [
                                {
                                    "index": 0,
                                    "value": {
                                        "current": "0x00aefab600000009bc000000c600d70000f4000000fc450000003b0030000006",
                                        "prev": "0x00aefab000000009bc000000c600d50000f4000000fb450000003c0030000005",
                                        "typeTag": 1
                                    }
                                },
                                {
                                    "index": 1,
                                    "value": {
                                        "current": "0x00aefab60000000fe601000000050000ab00000000f51bfd000000fb00005c00",
                                        "prev": "0x00aefab000000010e601000000050000ab00000000f51afe000000fb00005d00",
                                        "typeTag": 1
                                    }
                                },
                                {
                                    "index": 2,
                                    "value": {
                                        "current": "0x00aefab6a6c9e9e4f00000000000000000006346161812000000000000000000",
                                        "prev": "0x00aefab0a5c7e9e4ed0000000000000000006447161813000000000000000000",
                                        "typeTag": 1
                                    }
                                }
                            ],
                            "typeTag": 2
                        }
                    }
                ]
            }
        ]
    }
}