{
    "balance_change": {
        "balanceChanges": [
            {
                "account": "0xa5c30a48b81884b7632cf83981182c7f1e1bf616",
                "assets": [
                    {
                        "address": "0xf0edac27aa3e85e2d176f689b0025f90c154393a",
                        "amount": "45,000,000,000",
                        "iconUrl": "",
                        "isERC1155": false,
                        "isERC721": false,
                        "sign": false,
                        "value": "996.2176225"
                    }
                ]
            },
            {
                "account": "0xa910f92acdaf488fa6ef02174fb86208ad7722ba",
                "assets": [
                    {
                        "address": "0xf0edac27aa3e85e2d176f689b0025f90c154393a",
                        "amount": "45,000,000,000",
                        "iconUrl": "",
                        "isERC1155": false,
                        "isERC721": false,
                        "sign": true,
                        "value": "996.2176225"
                    }
                ]
            }
        ]
    },
    "profile": {
        "basic_info": {
            "baseFee": "20.796701685",
            "blockNumber": 17419796,
            "callData": "0xa9059cbb000000000000000000000000a910f92acdaf488fa6ef02174fb86208ad7722ba0000000000000000000000000000000000000000916720a817a68ab4c8000000",
            "debugEnable": true,
            "errorInfo": "",
            "eventCount": 1,
            "feeRecipient": "0x18601aea7f54d26d18b19c09f1cf94c186fce8a1",
            "formatValue": "0",
            "gasLimit": 100000,
            "gasPrice": "23.575361419",
            "gasUsed": 29806,
            "intTxnCount": 0,
            "internalRevert": false,
            "internalRevertMessage": "",
            "isContractCreation": false,
            "isFlashloan": false,
            "maxFee": "",
            "nonce": 0,
            "overwritedBlockNumber": -1,
            "priorityFee": "",
            "receiver": "0xf0edac27aa3e85e2d176f689b0025f90c154393a",
            "revertMessage": "",
            "sender": "0xa5c30a48b81884b7632cf83981182c7f1e1bf616",
            "simulationEnable": true,
            "sourceTxnHash": "0x61dcee432b6510d888a1c55bb6dc362b4b440beb4daad77272f9c87e33cb9d3f",
            "status": true,
            "timestamp": "2023-06-06T07:00:47Z",
            "transactionFee": "0.000702687222454714",
            "txnHash": "0x61dcee432b6510d888a1c55bb6dc362b4b440beb4daad77272f9c87e33cb9d3f",
            "txnIndex": 42,
            "type": 0,
            "value": "0"
        },
        "fund_flow": [
            {
                "amount": "45,000,000,000",
                "from": "0xa5c30a48b81884b7632cf83981182c7f1e1bf616",
                "id": 1,
                "isERC1155": false,
                "isERC721": false,
                "isReverted": false,
                "order": 1,
                "to": "0xa910f92acdaf488fa6ef02174fb86208ad7722ba",
                "token": "0xf0edac27aa3e85e2d176f689b0025f90c154393a"
            }
        ],
        "token_infos": [
            {
                "address": "0xc02aaa39b223fe8d0a0e5c4f27ead9083c756cc2",
                "decimals": 18
            },
            {
                "address": "0xf0edac27aa3e85e2d176f689b0025f90c154393a",
                "decimals": 18
            },
            {
                "address": "0xeeeeeeeeeeeeeeeeeeeeeeeeeeeeeeeeeeeeeeee",
                "decimals": 18
            }
        ]
    },
    "address_label": {
        "labels": [
            {
                "address": "0x0000000000000000000000000000000000000001",
                "label": "Precompiled"
            },
            {
                "address": "0x0000000000000000000000000000000000000002",
                "label": "Precompiled"
            },
            {
                "address": "0x0000000000000000000000000000000000000003",
                "label": "Precompiled"
            },
            {
                "address": "0x0000000000000000000000000000000000000004",
                "label": "Precompiled"
            },
            {
                "address": "0xeeeeeeeeeeeeeeeeeeeeeeeeeeeeeeeeeeeeeeee",
                "label": "Ether"
            },
            {
                "address": "0xa5c30a48b81884b7632cf83981182c7f1e1bf616",
                "label": "POLONIEX"
            },
            {
                "address": "0xa910f92acdaf488fa6ef02174fb86208ad7722ba",
                "label": "Poloniex 4"
            },
            {
                "address": "0xf0edac27aa3e85e2d176f689b0025f90c154393a",
                "label": "I LOVE SNOOPY: LOVESNOOPY Token"
            }
        ]
    },
    "trace": {
        "accountLabels": null,
        "dataMap": {
            "-1": {
                "invocation": {
                    "address": "0xa5c30a48b81884b7632cf83981182c7f1e1bf616",
                    "callData": "",
                    "decodedMethod": null,
                    "errorInfo": "",
                    "fromAddress": "",
                    "gasUsed": 0,
                    "id": -1,
                    "methodDecoded": false,
                    "operation": "",
                    "output": "",
                    "revert": false,
                    "revertMessage": "",
                    "selector": "",
                    "status": false,
                    "value": ""
                },
                "nodeType": 0
            },
            "0": {
                "invocation": {
                    "address": "0xf0edac27aa3e85e2d176f689b0025f90c154393a",
                    "callData": "0x000000000000000000000000a910f92acdaf488fa6ef02174fb86208ad7722ba0000000000000000000000000000000000000000916720a817a68ab4c8000000",
                    "decodedMethod": {
                        "callParams": [
                            {
                                "name": "to",
                                "type": "address",
                                "value": "0xa910f92acdaf488fa6ef02174fb86208ad7722ba"
                            },
                            {
                                "decimalAvailable": true,
                                "name": "tokens",
                                "type": "uint256",
                                "value": "45,000,000,000,000,000,000,000,000,000"
                            }
                        ],
                        "constructorArguments": "",
                        "name": "transfer",
                        "returnParams": [
                            {
                                "name": "success",
                                "type": "bool",
                                "value": true
                            }
                        ],
                        "signature": "transfer(address,uint256)"
                    },
                    "errorInfo": "",
                    "fromAddress": "0xa5c30a48b81884b7632cf83981182c7f1e1bf616",
                    "gasUsed": 29806,
                    "id": 0,
                    "methodDecoded": true,
                    "operation": "CALL",
                    "output": "0x0000000000000000000000000000000000000000000000000000000000000001",
                    "revert": false,
                    "revertMessage": "",
                    "selector": "0xa9059cbb",
                    "status": true,
                    "value": "0"
                },
                "nodeType": 0
            },
            "1": {
                "event": {
                    "contract": "0xf0edac27aa3e85e2d176f689b0025f90c154393a",
                    "decodedLog": {
                        "name": "Transfer",
                        "params": [
                            {
                                "name": "from",
                                "type": "address",
                                "value": "0xa5c30a48b81884b7632cf83981182c7f1e1bf616"
                            },
                            {
                                "name": "to",
                                "type": "address",
                                "value": "0xa910f92acdaf488fa6ef02174fb86208ad7722ba"
                            },
                            {
                                "decimalAvailable": true,
                                "name": "tokens",
                                "type": "uint256",
                                "value": "45,000,000,000,000,000,000,000,000,000"
                            }
                        ],
                        "signature": "Transfer(address,address,uint256)"
                    },
                    "id": 1,
                    "logData": "0x0000000000000000000000000000000000000000916720a817a68ab4c8000000",
                    "logDecoded": true,
                    "operation": "EVENT",
                    "revert": false,
                    "status": true,
                    "topics": [
                        "0xddf252ad1be2c89b69c2b068fc378daa952ba7f163c4a11628f55a4df523b3ef",
                        "0x000000000000000000000000a5c30a48b81884b7632cf83981182c7f1e1bf616",
                        "0x000000000000000000000000a910f92acdaf488fa6ef02174fb86208ad7722ba"
                    ]
                },
                "nodeType": 1
            }
        },
        "gasFlame": [
            {
                "children": [
                    {
                        "children": [
                            {
                                "children": [],
                                "depth": 0,
                                "name": "Initial Gas",
                                "value": 21668
                            },
                            {
                                "children": [],
                                "depth": 0,
                                "name": "Executed Gas",
                                "value": 12938
                            }
                        ],
                        "depth": -1,
                        "name": "Actual Gas Used",
                        "value": 29806
                    },
                    {
                        "children": [],
                        "depth": -1,
                        "name": "Refunded Gas",
                        "value": 4800
                    }
                ],
                "depth": -2,
                "name": "Total Gas",
                "value": 34606
            }
        ],
        "isConfirmed": true,
        "mainTrace": [
            {
                "children": [
                    {
                        "children": [
                            {
                                "children": [],
                                "depth": 1,
                                "id": 1,
                                "order": 1
                            }
                        ],
                        "depth": 0,
                        "id": 0,
                        "order": 0
                    }
                ],
                "depth": -1,
                "id": -1,
                "order": -1
            }
        ],
        "mainTraceNodeCount": 2,
        "parentIdMap": {
            "0": -1,
            "1": 0
        },
        "tidyTrace": [
            {
                "children": [
                    {
                        "children": [
                            {
                                "children": [],
                                "depth": 1,
                                "id": 1,
                                "order": 1
                            }
                        ],
                        "depth": 0,
                        "id": 0,
                        "order": 0
                    }
                ],
                "depth": -1,
                "id": -1,
                "order": -1
            }
        ],
        "tidyTraceNodeCount": 2
    },
    "state_change": {
        "stateChanges": [
            {
                "address": "0xf0edac27aa3e85e2d176f689b0025f90c154393a",
                "erc": "ERC-20",
                "slots": [
                    {
                        "current": "0x0000000000000000000000000000000000000000000000000000000000000000",
                        "key": "0xc78168efa649926fd8884ac6cedd55098f365447322ae801df5cc6fac13f0868",
                        "prev": "0x0000000000000000000000000000000000000000916720a817a68ab4c8000000"
                    },
                    {
                        "current": "0x00000000000000000000000000000000000000198f20bd8c284661c728000000",
                        "key": "0x50743ab59044c30d091c446c66aedecc25a26a788accd6b163c2b5ae5f2984ae",
                        "prev": "0x0000000000000000000000000000000000000018fdb99ce4109fd71260000000"
                    }
                ],
                "storageVariables": [
                    {
                        "name": "balances",
                        "type": "mapping(address => uint256)",
                        "value": {
                            "pairs": [
                                {
                                    "key": "0xa5c30a48b81884b7632cf83981182c7f1e1bf616",
                                    "value": {
                                        "current": "0",
                                        "prev": "45000000000000000000000000000",
                                        "typeTag": 1
                                    }
                                },
                                {
                                    "key": "0xa910f92acdaf488fa6ef02174fb86208ad7722ba",
                                    "value": {
                                        "current": "2025000000000000000000000000000",
                                        "prev": "1980000000000000000000000000000",
                                        "typeTag": 1
                                    }
                                }
                            ],
                            "typeTag": 4
                        }
                    }
                ]
            }
        ]
    }
}