{
    "balance_change": {
        "balanceChanges": []
    },
    "profile": {
        "basic_info": {
            "baseFee": "",
            "blockNumber": 10272017,
            "callData": "0x4ab0d1903bd997323444a40d8b0cf0d570003a1cac75f916c4c5458ea92b8cfe44a8d0f900000000000000000000000000000000000000000000000002386f26fc100000000000000000000000000000da3d675d50ff6c555973c4f0424964e1f6a4e7d36a9705b400000000000000000000000000000000000000000000000000000000000000000000000000000000000000000000000000000000000000005ee7c135000000000000000000000000000000000000000000000000200d593a1a96d400",
            "debugEnable": true,
            "errorInfo": "",
            "eventCount": 3,
            "feeRecipient": "0xea674fdde714fd979de3edf0f56aa9716b898ec8",
            "formatValue": "0",
            "gasLimit": 500000,
            "gasPrice": "37",
            "gasUsed": 86928,
            "intTxnCount": 1,
            "internalRevert": false,
            "internalRevertMessage": "",
            "isContractCreation": false,
            "isFlashloan": false,
            "maxFee": "",
            "nonce": 66147,
            "overwritedBlockNumber": -1,
            "priorityFee": "",
            "receiver": "0x38b6ab6b9294cce1ccb59c3e7d390690b4c18b1a",
            "revertMessage": "",
            "sender": "0x6d1b8ee3d1b5834dde3ae8ba6d7a587ae6d14dc3",
            "simulationEnable": true,
            "sourceTxnHash": "0x611242010ad208521551d6a79eeb7e253dc95468c80aad2bf861a9885d3f4539",
            "status": true,
            "timestamp": "2020-06-15T18:39:25Z",
            "transactionFee": "0.003216336",
            "txnHash": "0x611242010ad208521551d6a79eeb7e253dc95468c80aad2bf861a9885d3f4539",
            "txnIndex": 130,
            "type": 0,
            "value": "0"
        },
        "fund_flow": [],
        "token_infos": [
            {
                "address": "0xc02aaa39b223fe8d0a0e5c4f27ead9083c756cc2",
                "decimals": 18
            },
            {
                "address": "0xeeeeeeeeeeeeeeeeeeeeeeeeeeeeeeeeeeeeeeee",
                "decimals": 18
            }
        ]
    },
    "address_label": {
        "labels": [
            {
                "address": "0x38b6ab6b9294cce1ccb59c3e7d390690b4c18b1a",
                "label": "Oracle"
            },
            {
                "address": "0x0000000000000000000000000000000000000001",
                "label": "Precompiled"
            },
            {
                "address": "0x0000000000000000000000000000000000000002",
                "label": "Precompiled"
            },
            {
                "address": "0x0000000000000000000000000000000000000003",
                "label": "Precompiled"
            },
            {
                "address": "0x0000000000000000000000000000000000000004",
                "label": "Precompiled"
            },
            {
                "address": "0xeeeeeeeeeeeeeeeeeeeeeeeeeeeeeeeeeeeeeeee",
                "label": "Ether"
            },
            {
                "address": "0xda3d675d50ff6c555973c4f0424964e1f6a4e7d3",
                "label": "Chainlink: MKR / ETH Aggregator"
            }
        ]
    },
    "trace": {
        "accountLabels": null,
        "dataMap": {
            "-1": {
                "invocation": {
                    "address": "0x6d1b8ee3d1b5834dde3ae8ba6d7a587ae6d14dc3",
                    "callData": "",
                    "decodedMethod": null,
                    "errorInfo": "",
                    "fromAddress": "",
                    "gasUsed": 0,
                    "id": -1,
                    "methodDecoded": false,
                    "operation": "",
                    "output": "",
                    "revert": false,
                    "revertMessage": "",
                    "selector": "",
                    "status": false,
                    "value": ""
                },
                "nodeType": 0
            },
            "0": {
                "invocation": {
                    "address": "0x38b6ab6b9294cce1ccb59c3e7d390690b4c18b1a",
                    "callData": "0x3bd997323444a40d8b0cf0d570003a1cac75f916c4c5458ea92b8cfe44a8d0f900000000000000000000000000000000000000000000000002386f26fc100000000000000000000000000000da3d675d50ff6c555973c4f0424964e1f6a4e7d36a9705b400000000000000000000000000000000000000000000000000000000000000000000000000000000000000000000000000000000000000005ee7c135000000000000000000000000000000000000000000000000200d593a1a96d400",
                    "decodedMethod": {
                        "callParams": [
                            {
                                "name": "_requestId",
                                "type": "bytes32",
                                "value": "0x3bd997323444a40d8b0cf0d570003a1cac75f916c4c5458ea92b8cfe44a8d0f9"
                            },
                            {
                                "name": "_payment",
                                "type": "uint256",
                                "value": "160,000,000,000,000,000"
                            },
                            {
                                "name": "_callbackAddress",
                                "type": "address",
                                "value": "0xda3d675d50ff6c555973c4f0424964e1f6a4e7d3"
                            },
                            {
                                "name": "_callbackFunctionId",
                                "type": "bytes4",
                                "value": "0x6a9705b4"
                            },
                            {
                                "name": "_expiration",
                                "type": "uint256",
                                "value": "1,592,246,581"
                            },
                            {
                                "name": "_data",
                                "type": "bytes32",
                                "value": "0x000000000000000000000000000000000000000000000000200d593a1a96d400"
                            }
                        ],
                        "constructorArguments": "",
                        "name": "fulfillOracleRequest",
                        "returnParams": [
                            {
                                "name": "",
                                "type": "bool",
                                "value": true
                            }
                        ],
                        "signature": "fulfillOracleRequest(bytes32,uint256,address,bytes4,uint256,bytes32)"
                    },
                    "errorInfo": "",
                    "fromAddress": "0x6d1b8ee3d1b5834dde3ae8ba6d7a587ae6d14dc3",
                    "gasUsed": 86928,
                    "id": 0,
                    "methodDecoded": true,
                    "operation": "CALL",
                    "output": "0x0000000000000000000000000000000000000000000000000000000000000001",
                    "revert": false,
                    "revertMessage": "",
                    "selector": "0x4ab0d190",
                    "status": true,
                    "value": "0"
                },
                "nodeType": 0
            },
            "1": {
                "invocation": {
                    "address": "0xda3d675d50ff6c555973c4f0424964e1f6a4e7d3",
                    "callData": "0x3bd997323444a40d8b0cf0d570003a1cac75f916c4c5458ea92b8cfe44a8d0f9000000000000000000000000000000000000000000000000200d593a1a96d400",
                    "decodedMethod": {
                        "callParams": [
                            {
                                "name": "_clRequestId",
                                "type": "bytes32",
                                "value": "0x3bd997323444a40d8b0cf0d570003a1cac75f916c4c5458ea92b8cfe44a8d0f9"
                            },
                            {
                                "name": "_response",
                                "type": "int256",
                                "value": "2,309,600,290,000,000,000"
                            }
                        ],
                        "constructorArguments": "",
                        "name": "chainlinkCallback",
                        "returnParams": [],
                        "signature": "chainlinkCallback(bytes32,int256)"
                    },
                    "errorInfo": "",
                    "fromAddress": "0x38b6ab6b9294cce1ccb59c3e7d390690b4c18b1a",
                    "gasUsed": 93426,
                    "id": 1,
                    "methodDecoded": true,
                    "operation": "CALL",
                    "output": "",
                    "revert": false,
                    "revertMessage": "",
                    "selector": "0x6a9705b4",
                    "status": true,
                    "value": "0"
                },
                "nodeType": 0
            },
            "2": {
                "event": {
                    "contract": "0xda3d675d50ff6c555973c4f0424964e1f6a4e7d3",
                    "decodedLog": {
                        "name": "ChainlinkFulfilled",
                        "params": [
                            {
                                "name": "id",
                                "type": "bytes32",
                                "value": "0x3bd997323444a40d8b0cf0d570003a1cac75f916c4c5458ea92b8cfe44a8d0f9"
                            }
                        ],
                        "signature": "ChainlinkFulfilled(bytes32)"
                    },
                    "id": 2,
                    "logData": "0x",
                    "logDecoded": true,
                    "operation": "EVENT",
                    "revert": false,
                    "status": true,
                    "topics": [
                        "0x7cc135e0cebb02c3480ae5d74d377283180a2601f8f644edf7987b009316c63a",
                        "0x3bd997323444a40d8b0cf0d570003a1cac75f916c4c5458ea92b8cfe44a8d0f9"
                    ]
                },
                "nodeType": 1
            },
            "3": {
                "event": {
                    "contract": "0xda3d675d50ff6c555973c4f0424964e1f6a4e7d3",
                    "decodedLog": {
                        "name": "ResponseReceived",
                        "params": [
                            {
                                "name": "response",
                                "type": "int256",
                                "value": "2,309,600,290,000,000,000"
                            },
                            {
                                "name": "answerId",
                                "type": "uint256",
                                "value": "3,014"
                            },
                            {
                                "name": "sender",
                                "type": "address",
                                "value": "0x38b6ab6b9294cce1ccb59c3e7d390690b4c18b1a"
                            }
                        ],
                        "signature": "ResponseReceived(int256,uint256,address)"
                    },
                    "id": 3,
                    "logData": "0x",
                    "logDecoded": true,
                    "operation": "EVENT",
                    "revert": false,
                    "status": true,
                    "topics": [
                        "0xb51168059c83c860caf5b830c5d2e64c2172c6fb2fe9f25447d9838e18d93b60",
                        "0x000000000000000000000000000000000000000000000000200d593a1a96d400",
                        "0x0000000000000000000000000000000000000000000000000000000000000bc6",
                        "0x00000000000000000000000038b6ab6b9294cce1ccb59c3e7d390690b4c18b1a"
                    ]
                },
                "nodeType": 1
            },
            "4": {
                "event": {
                    "contract": "0xda3d675d50ff6c555973c4f0424964e1f6a4e7d3",
                    "decodedLog": {
                        "name": "AnswerUpdated",
                        "params": [
                            {
                                "name": "current",
                                "type": "int256",
                                "value": "2,357,504,926,460,230,600"
                            },
                            {
                                "name": "roundId",
                                "type": "uint256",
                                "value": "3,014"
                            },
                            {
                                "name": "timestamp",
                                "type": "uint256",
                                "value": "1,592,246,365"
                            }
                        ],
                        "signature": "AnswerUpdated(int256,uint256,uint256)"
                    },
                    "id": 4,
                    "logData": "0x000000000000000000000000000000000000000000000000000000005ee7c05d",
                    "logDecoded": true,
                    "operation": "EVENT",
                    "revert": false,
                    "status": true,
                    "topics": [
                        "0x0559884fd3a460db3073b7fc896cc77986f16e378210ded43186175bf646fc5f",
                        "0x00000000000000000000000000000000000000000000000020b78a3d71e53bc8",
                        "0x0000000000000000000000000000000000000000000000000000000000000bc6"
                    ]
                },
                "nodeType": 1
            }
        },
        "gasFlame": [
            {
                "children": [
                    {
                        "children": [
                            {
                                "children": [],
                                "depth": 0,
                                "name": "Initial Gas",
                                "value": 22696
                            },
                            {
                                "children": [
                                    {
                                        "children": [],
                                        "depth": 1,
                                        "name": "chainlinkCallback",
                                        "value": 93426
                                    }
                                ],
                                "depth": 0,
                                "name": "Executed Gas",
                                "value": 109232
                            }
                        ],
                        "depth": -1,
                        "name": "Actual Gas Used",
                        "value": 86928
                    },
                    {
                        "children": [],
                        "depth": -1,
                        "name": "Refunded Gas",
                        "value": 45000
                    }
                ],
                "depth": -2,
                "name": "Total Gas",
                "value": 131928
            }
        ],
        "isConfirmed": true,
        "mainTrace": [
            {
                "children": [
                    {
                        "children": [
                            {
                                "children": [
                                    {
                                        "children": [],
                                        "depth": 2,
                                        "id": 2,
                                        "order": 2
                                    },
                                    {
                                        "children": [],
                                        "depth": 2,
                                        "id": 3,
                                        "order": 3
                                    },
                                    {
                                        "children": [],
                                        "depth": 2,
                                        "id": 4,
                                        "order": 4
                                    }
                                ],
                                "depth": 1,
                                "id": 1,
                                "order": 1
                            }
                        ],
                        "depth": 0,
                        "id": 0,
                        "order": 0
                    }
                ],
                "depth": -1,
                "id": -1,
                "order": -1
            }
        ],
        "mainTraceNodeCount": 5,
        "parentIdMap": {
            "0": -1,
            "1": 0,
            "2": 1,
            "3": 1,
            "4": 1
        },
        "tidyTrace": [
            {
                "children": [
                    {
                        "children": [
                            {
                                "children": [
                                    {
                                        "children": [],
                                        "depth": 2,
                                        "id": 2,
                                        "order": 2
                                    },
                                    {
                                        "children": [],
                                        "depth": 2,
                                        "id": 3,
                                        "order": 3
                                    },
                                    {
                                        "children": [],
                                        "depth": 2,
                                        "id": 4,
                                        "order": 4
                                    }
                                ],
                                "depth": 1,
                                "id": 1,
                                "order": 1
                            }
                        ],
                        "depth": 0,
                        "id": 0,
                        "order": 0
                    }
                ],
                "depth": -1,
                "id": -1,
                "order": -1
            }
        ],
        "tidyTraceNodeCount": 5
    },
    "state_change": {
        "stateChanges": [
            {
                "address": "0x38b6ab6b9294cce1ccb59c3e7d390690b4c18b1a",
                "erc": "",
                "slots": [
                    {
                        "current": "0x0000000000000000000000000000000000000000000000c83339b96f7c97cac7",
                        "key": "0x0000000000000000000000000000000000000000000000000000000000000004",
                        "prev": "0x0000000000000000000000000000000000000000000000c831014a488087cac7"
                    },
                    {
                        "current": "0x0000000000000000000000000000000000000000000000000000000000000000",
                        "key": "0x16e615f8ea426e5f6f5749085a1d18e4c310a1dc44bdd93089e91fe3c7f9184b",
                        "prev": "0xfad0f549489b1a9351dc9f68f8588ad08a70da55996a4e3c1330813b714ce194"
                    }
                ],
                "storageVariables": [
                    {
                        "name": "withdrawableTokens",
                        "type": "uint256",
                        "value": {
                            "current": "3693039999999999986375",
                            "prev": "3692879999999999986375",
                            "typeTag": 1
                        }
                    },
                    {
                        "name": "commitments",
                        "type": "mapping(bytes32 => bytes32)",
                        "value": {
                            "pairs": [
                                {
                                    "key": "0x3bd997323444a40d8b0cf0d570003a1cac75f916c4c5458ea92b8cfe44a8d0f9",
                                    "value": {
                                        "current": "0x0000000000000000000000000000000000000000000000000000000000000000",
                                        "prev": "0xfad0f549489b1a9351dc9f68f8588ad08a70da55996a4e3c1330813b714ce194",
                                        "typeTag": 1
                                    }
                                }
                            ],
                            "typeTag": 4
                        }
                    }
                ]
            },
            {
                "address": "0xda3d675d50ff6c555973c4f0424964e1f6a4e7d3",
                "erc": "",
                "slots": [
                    {
                        "current": "0x0000000000000000000000000000000000000000000000000000000000000008",
                        "key": "0x3ea80fe51f878e29b16823c83efa84a653e4556b20020e5fb00ae5679faebc62",
                        "prev": "0x0000000000000000000000000000000000000000000000000000000000000007"
                    },
                    {
                        "current": "0x000000000000000000000000000000000000000000000000200d593a1a96d400",
                        "key": "0x36b9bc623e50f64eb59cd021cbda41b77d67622a1612f7419d8de2d435ea3e7c",
                        "prev": "0x0000000000000000000000000000000000000000000000000000000000000000"
                    },
                    {
                        "current": "0x00000000000000000000000000000000000000000000000020b78a3d71e53bc8",
                        "key": "0x0000000000000000000000000000000000000000000000000000000000000007",
                        "prev": "0x00000000000000000000000000000000000000000000000020c0883d9b34f390"
                    },
                    {
                        "current": "0x00000000000000000000000000000000000000000000000020b78a3d71e53bc8",
                        "key": "0x8b677f6fbf5995074cd8ecb3a39a23aaa17f3dff44e2fe8351c4dae4fe322a08",
                        "prev": "0x00000000000000000000000000000000000000000000000020c0883d9b34f390"
                    },
                    {
                        "current": "0x0000000000000000000000000000000000000000000000000000000000000000",
                        "key": "0x4c8ca45db601de689aa551f8fb2c90557d45809d07a2e254533df80abcbdd6a8",
                        "prev": "0x00000000000000000000000038b6ab6b9294cce1ccb59c3e7d390690b4c18b1a"
                    },
                    {
                        "current": "0x0000000000000000000000000000000000000000000000000000000000000000",
                        "key": "0xb8c186cfb7b7d57c682f9ef317d606d6dfc279254c9041ced1916c7d42cbd564",
                        "prev": "0x0000000000000000000000000000000000000000000000000000000000000bc6"
                    }
                ],
                "storageVariables": [
                    {
                        "name": "currentAnswerValue",
                        "type": "int256",
                        "value": {
                            "current": "2357504926460230600",
                            "prev": "2360036002920461200",
                            "typeTag": 1
                        }
                    },
                    {
                        "name": "currentAnswers",
                        "type": "mapping(uint256 => int256)",
                        "value": {
                            "pairs": [
                                {
                                    "key": "3014",
                                    "value": {
                                        "current": "2357504926460230600",
                                        "prev": "2360036002920461200",
                                        "typeTag": 1
                                    }
                                }
                            ],
                            "typeTag": 4
                        }
                    },
                    {
                        "name": "pendingRequests",
                        "type": "mapping(bytes32 => address)",
                        "value": {
                            "pairs": [
                                {
                                    "key": "0x3bd997323444a40d8b0cf0d570003a1cac75f916c4c5458ea92b8cfe44a8d0f9",
                                    "value": {
                                        "current": "0x0000000000000000000000000000000000000000",
                                        "prev": "0x38b6ab6b9294cce1ccb59c3e7d390690b4c18b1a",
                                        "typeTag": 1
                                    }
                                }
                            ],
                            "typeTag": 4
                        }
                    },
                    {
                        "name": "requestAnswers",
                        "type": "mapping(bytes32 => uint256)",
                        "value": {
                            "pairs": [
                                {
                                    "key": "0x3bd997323444a40d8b0cf0d570003a1cac75f916c4c5458ea92b8cfe44a8d0f9",
                                    "value": {
                                        "current": "0",
                                        "prev": "3014",
                                        "typeTag": 1
                                    }
                                }
                            ],
                            "typeTag": 4
                        }
                    },
                    {
                        "name": "answers",
                        "type": "mapping(uint256 => struct Aggregator.Answer)",
                        "value": {
                            "pairs": [
                                {
                                    "key": "3014",
                                    "value": {
                                        "fields": [
                                            {
                                                "name": "responses",
                                                "type": "int256[]",
                                                "value": {
                                                    "elemType": "int256",
                                                    "elems": [
                                                        {
                                                            "index": 7,
                                                            "value": {
                                                                "current": "2309600290000000000",
                                                                "prev": "0",
                                                                "typeTag": 1
                                                            }
                                                        }
                                                    ],
                                                    "typeTag": 2
                                                }
                                            }
                                        ],
                                        "typeTag": 3
                                    }
                                }
                            ],
                            "typeTag": 4
                        }
                    }
                ]
            }
        ]
    }
}