{
    "balance_change": {
        "balanceChanges": [
            {
                "account": "0x0000000000000000000000000000000000000000",
                "assets": [
                    {
                        "address": "0x4ab4fb27052c1f6adbf81125379e54fe1e81efd4",
                        "amount": "1",
                        "iconUrl": "",
                        "isERC1155": false,
                        "isERC721": true,
                        "sign": false,
                        "tokenID": "188",
                        "value": ""
                    }
                ]
            },
            {
                "account": "0x02699d560087294571500b81fa94471b5b16f034",
                "assets": [
                    {
                        "address": "0x4ab4fb27052c1f6adbf81125379e54fe1e81efd4",
                        "amount": "1",
                        "iconUrl": "",
                        "isERC1155": false,
                        "isERC721": true,
                        "sign": true,
                        "tokenID": "188",
                        "value": ""
                    }
                ]
            }
        ]
    },
    "profile": {
        "basic_info": {
            "baseFee": "35.487525865",
            "blockNumber": 15122121,
            "callData": "0x7c928fe90000000000000000000000000000000000000000000000000000000000000001",
            "debugEnable": true,
            "errorInfo": "",
            "eventCount": 1,
            "feeRecipient": "0x1ad91ee08f21be3de0ba2ba6918e714da6b45836",
            "formatValue": "0",
            "gasLimit": 105475,
            "gasPrice": "37.587525865",
            "gasUsed": 87896,
            "intTxnCount": 0,
            "internalRevert": false,
            "internalRevertMessage": "",
            "isContractCreation": false,
            "isFlashloan": false,
            "maxFee": "62.772",
            "nonce": 114,
            "overwritedBlockNumber": -1,
            "priorityFee": "2.1",
            "receiver": "0x4ab4fb27052c1f6adbf81125379e54fe1e81efd4",
            "revertMessage": "",
            "sender": "0x02699d560087294571500b81fa94471b5b16f034",
            "simulationEnable": true,
            "sourceTxnHash": "0x613922c8b735723fedcf1737814535320fefffcdcda44b0aeb30a8d7961e8d8c",
            "status": true,
            "timestamp": "2022-07-11T15:28:20Z",
            "transactionFee": "0.00330379317343004",
            "txnHash": "0x613922c8b735723fedcf1737814535320fefffcdcda44b0aeb30a8d7961e8d8c",
            "txnIndex": 48,
            "type": 2,
            "value": "0"
        },
        "fund_flow": [
            {
                "amount": "1",
                "from": "0x0000000000000000000000000000000000000000",
                "id": 1,
                "isERC1155": false,
                "isERC721": true,
                "isReverted": false,
                "order": 1,
                "to": "0x02699d560087294571500b81fa94471b5b16f034",
                "token": "0x4ab4fb27052c1f6adbf81125379e54fe1e81efd4",
                "tokenID": "188"
            }
        ],
        "token_infos": [
            {
                "address": "0xc02aaa39b223fe8d0a0e5c4f27ead9083c756cc2",
                "decimals": 18
            },
            {
                "address": "0xeeeeeeeeeeeeeeeeeeeeeeeeeeeeeeeeeeeeeeee",
                "decimals": 18
            }
        ]
    },
    "address_label": {
        "labels": [
            {
                "address": "0xeeeeeeeeeeeeeeeeeeeeeeeeeeeeeeeeeeeeeeee",
                "label": "Ether"
            },
            {
                "address": "0x4ab4fb27052c1f6adbf81125379e54fe1e81efd4",
                "label": "CoxRider"
            },
            {
                "address": "0x0000000000000000000000000000000000000001",
                "label": "Precompiled"
            },
            {
                "address": "0x0000000000000000000000000000000000000002",
                "label": "Precompiled"
            },
            {
                "address": "0x0000000000000000000000000000000000000003",
                "label": "Precompiled"
            },
            {
                "address": "0x0000000000000000000000000000000000000004",
                "label": "Precompiled"
            }
        ]
    },
    "trace": {
        "accountLabels": null,
        "dataMap": {
            "-1": {
                "invocation": {
                    "address": "0x02699d560087294571500b81fa94471b5b16f034",
                    "callData": "",
                    "decodedMethod": null,
                    "errorInfo": "",
                    "fromAddress": "",
                    "gasUsed": 0,
                    "id": -1,
                    "methodDecoded": false,
                    "operation": "",
                    "output": "",
                    "revert": false,
                    "revertMessage": "",
                    "selector": "",
                    "status": false,
                    "value": ""
                },
                "nodeType": 0
            },
            "0": {
                "invocation": {
                    "address": "0x4ab4fb27052c1f6adbf81125379e54fe1e81efd4",
                    "callData": "0x0000000000000000000000000000000000000000000000000000000000000001",
                    "decodedMethod": {
                        "callParams": [
                            {
                                "name": "amount",
                                "type": "uint256",
                                "value": "1"
                            }
                        ],
                        "constructorArguments": "",
                        "name": "freeMint",
                        "returnParams": [],
                        "signature": "freeMint(uint256)"
                    },
                    "errorInfo": "",
                    "fromAddress": "0x02699d560087294571500b81fa94471b5b16f034",
                    "gasUsed": 87896,
                    "id": 0,
                    "methodDecoded": true,
                    "operation": "CALL",
                    "output": "",
                    "revert": false,
                    "revertMessage": "",
                    "selector": "0x7c928fe9",
                    "status": true,
                    "value": "0"
                },
                "nodeType": 0
            },
            "1": {
                "event": {
                    "contract": "0x4ab4fb27052c1f6adbf81125379e54fe1e81efd4",
                    "decodedLog": {
                        "name": "Transfer",
                        "params": [
                            {
                                "name": "from",
                                "type": "address",
                                "value": "0x0000000000000000000000000000000000000000"
                            },
                            {
                                "name": "to",
                                "type": "address",
                                "value": "0x02699d560087294571500b81fa94471b5b16f034"
                            },
                            {
                                "decimalAvailable": true,
                                "name": "tokenId",
                                "type": "uint256",
                                "value": "188"
                            }
                        ],
                        "signature": "Transfer(address,address,uint256)"
                    },
                    "id": 1,
                    "logData": "0x",
                    "logDecoded": true,
                    "operation": "EVENT",
                    "revert": false,
                    "status": true,
                    "topics": [
                        "0xddf252ad1be2c89b69c2b068fc378daa952ba7f163c4a11628f55a4df523b3ef",
                        "0x0000000000000000000000000000000000000000000000000000000000000000",
                        "0x00000000000000000000000002699d560087294571500b81fa94471b5b16f034",
                        "0x00000000000000000000000000000000000000000000000000000000000000bc"
                    ]
                },
                "nodeType": 1
            }
        },
        "gasFlame": [
            {
                "children": [
                    {
                        "children": [
                            {
                                "children": [],
                                "depth": 0,
                                "name": "Initial Gas",
                                "value": 21204
                            },
                            {
                                "children": [],
                                "depth": 0,
                                "name": "Executed Gas",
                                "value": 66692
                            }
                        ],
                        "depth": -1,
                        "name": "Actual Gas Used",
                        "value": 87896
                    },
                    {
                        "children": [],
                        "depth": -1,
                        "name": "Refunded Gas",
                        "value": 0
                    }
                ],
                "depth": -2,
                "name": "Total Gas",
                "value": 87896
            }
        ],
        "isConfirmed": true,
        "mainTrace": [
            {
                "children": [
                    {
                        "children": [
                            {
                                "children": [],
                                "depth": 1,
                                "id": 1,
                                "order": 1
                            }
                        ],
                        "depth": 0,
                        "id": 0,
                        "order": 0
                    }
                ],
                "depth": -1,
                "id": -1,
                "order": -1
            }
        ],
        "mainTraceNodeCount": 2,
        "parentIdMap": {
            "0": -1,
            "1": 0
        },
        "tidyTrace": [
            {
                "children": [
                    {
                        "children": [
                            {
                                "children": [],
                                "depth": 1,
                                "id": 1,
                                "order": 1
                            }
                        ],
                        "depth": 0,
                        "id": 0,
                        "order": 0
                    }
                ],
                "depth": -1,
                "id": -1,
                "order": -1
            }
        ],
        "tidyTraceNodeCount": 2
    },
    "state_change": {
        "stateChanges": [
            {
                "address": "0x4ab4fb27052c1f6adbf81125379e54fe1e81efd4",
                "erc": "ERC-721",
                "slots": [
                    {
                        "current": "0x00000000000000000000000000000000000000000000000000000000000000b2",
                        "key": "0x000000000000000000000000000000000000000000000000000000000000000f",
                        "prev": "0x00000000000000000000000000000000000000000000000000000000000000b1"
                    },
                    {
                        "current": "0x0000000000000000000000000000000000000000000000010000000000000001",
                        "key": "0x5a471ca142c2a07112bc6eb570f3a6cc5bdd232ec2a5f8d925b8d3a2ca46e2ca",
                        "prev": "0x0000000000000000000000000000000000000000000000000000000000000000"
                    },
                    {
                        "current": "0x000000000000000062cc419402699d560087294571500b81fa94471b5b16f034",
                        "key": "0xc2703d720eb96116f06b3847dd106727b39999b34f4d71ebec789ad3978c04e7",
                        "prev": "0x0000000000000000000000000000000000000000000000000000000000000000"
                    },
                    {
                        "current": "0x00000000000000000000000000000000000000000000000000000000000000bd",
                        "key": "0x0000000000000000000000000000000000000000000000000000000000000000",
                        "prev": "0x00000000000000000000000000000000000000000000000000000000000000bc"
                    }
                ],
                "storageVariables": [
                    {
                        "name": "freeMintCounter",
                        "type": "uint256",
                        "value": {
                            "current": "178",
                            "prev": "177",
                            "typeTag": 1
                        }
                    },
                    {
                        "name": "_addressData",
                        "type": "mapping(address => struct ERC721A.AddressData)",
                        "value": {
                            "pairs": [
                                {
                                    "key": "0x02699d560087294571500b81fa94471b5b16f034",
                                    "value": {
                                        "fields": [
                                            {
                                                "name": "balance",
                                                "type": "uint64",
                                                "value": {
                                                    "current": "1",
                                                    "prev": "0",
                                                    "typeTag": 1
                                                }
                                            },
                                            {
                                                "name": "numberMinted",
                                                "type": "uint64",
                                                "value": {
                                                    "current": "1",
                                                    "prev": "0",
                                                    "typeTag": 1
                                                }
                                            },
                                            {
                                                "name": "numberBurned",
                                                "type": "uint64",
                                                "value": {
                                                    "current": "0",
                                                    "prev": "0",
                                                    "typeTag": 1
                                                }
                                            },
                                            {
                                                "name": "aux",
                                                "type": "uint64",
                                                "value": {
                                                    "current": "0",
                                                    "prev": "0",
                                                    "typeTag": 1
                                                }
                                            }
                                        ],
                                        "typeTag": 3
                                    }
                                }
                            ],
                            "typeTag": 4
                        }
                    },
                    {
                        "name": "_ownerships",
                        "type": "mapping(uint256 => struct ERC721A.TokenOwnership)",
                        "value": {
                            "pairs": [
                                {
                                    "key": "188",
                                    "value": {
                                        "fields": [
                                            {
                                                "name": "addr",
                                                "type": "address",
                                                "value": {
                                                    "current": "0x02699d560087294571500b81fa94471b5b16f034",
                                                    "prev": "0x0000000000000000000000000000000000000000",
                                                    "typeTag": 1
                                                }
                                            },
                                            {
                                                "name": "startTimestamp",
                                                "type": "uint64",
                                                "value": {
                                                    "current": "1657553300",
                                                    "prev": "0",
                                                    "typeTag": 1
                                                }
                                            },
                                            {
                                                "name": "burned",
                                                "type": "bool",
                                                "value": {
                                                    "current": "false",
                                                    "prev": "false",
                                                    "typeTag": 1
                                                }
                                            }
                                        ],
                                        "typeTag": 3
                                    }
                                }
                            ],
                            "typeTag": 4
                        }
                    },
                    {
                        "name": "_currentIndex",
                        "type": "uint256",
                        "value": {
                            "current": "189",
                            "prev": "188",
                            "typeTag": 1
                        }
                    }
                ]
            }
        ]
    }
}