{
    "balance_change": {
        "balanceChanges": [
            {
                "account": "0x5b10854bc57ac78ec0eb4874df5a6bac0f140154",
                "assets": [
                    {
                        "address": "0xeeeeeeeeeeeeeeeeeeeeeeeeeeeeeeeeeeeeeeee",
                        "amount": "0.07",
                        "iconUrl": "https://assets.blocksec.com/image/1663669189317-3.png",
                        "isERC1155": false,
                        "isERC721": false,
                        "sign": false,
                        "value": "222.9318"
                    },
                    {
                        "address": "0x895bbc29f74df77279bf585116caa24ce33ed0ba",
                        "amount": "1",
                        "iconUrl": "",
                        "isERC1155": false,
                        "isERC721": true,
                        "sign": true,
                        "tokenID": "1264",
                        "value": ""
                    }
                ]
            },
            {
                "account": "0x0000000000000000000000000000000000000000",
                "assets": [
                    {
                        "address": "0x895bbc29f74df77279bf585116caa24ce33ed0ba",
                        "amount": "1",
                        "iconUrl": "",
                        "isERC1155": false,
                        "isERC721": true,
                        "sign": false,
                        "tokenID": "1264",
                        "value": ""
                    }
                ]
            },
            {
                "account": "0x963cddb2ed2c387c4904be883b2f1db2f367c913",
                "assets": [
                    {
                        "address": "0xeeeeeeeeeeeeeeeeeeeeeeeeeeeeeeeeeeeeeeee",
                        "amount": "0.07",
                        "iconUrl": "https://assets.blocksec.com/image/1663669189317-3.png",
                        "isERC1155": false,
                        "isERC721": false,
                        "sign": true,
                        "value": "222.9318"
                    }
                ]
            }
        ]
    },
    "profile": {
        "basic_info": {
            "baseFee": "248.192398902",
            "blockNumber": 13960270,
            "callData": "0xa0712d680000000000000000000000000000000000000000000000000000000000000001",
            "debugEnable": true,
            "errorInfo": "",
            "eventCount": 1,
            "feeRecipient": "0x829bd824b016326a401d083b33d092293333a830",
            "formatValue": "0.07",
            "gasLimit": 253960,
            "gasPrice": "249.675538384",
            "gasUsed": 167056,
            "intTxnCount": 1,
            "internalRevert": false,
            "internalRevertMessage": "",
            "isContractCreation": false,
            "isFlashloan": false,
            "maxFee": "249.675538384",
            "nonce": 3,
            "overwritedBlockNumber": -1,
            "priorityFee": "1.614419968",
            "receiver": "0x895bbc29f74df77279bf585116caa24ce33ed0ba",
            "revertMessage": "",
            "sender": "0x5b10854bc57ac78ec0eb4874df5a6bac0f140154",
            "simulationEnable": true,
            "sourceTxnHash": "0x6159274cbb3a552a76accbdfa6a7a9948868ff861a5941feffefe566b4b7eaa4",
            "status": true,
            "timestamp": "2022-01-07T19:50:17Z",
            "transactionFee": "0.041709796740277504",
            "txnHash": "0x6159274cbb3a552a76accbdfa6a7a9948868ff861a5941feffefe566b4b7eaa4",
            "txnIndex": 53,
            "type": 2,
            "value": "70000000000000000"
        },
        "fund_flow": [
            {
                "amount": "0.07",
                "from": "0x5b10854bc57ac78ec0eb4874df5a6bac0f140154",
                "id": 1,
                "isERC1155": false,
                "isERC721": false,
                "isReverted": false,
                "order": 1,
                "to": "0x895bbc29f74df77279bf585116caa24ce33ed0ba",
                "token": "0xeeeeeeeeeeeeeeeeeeeeeeeeeeeeeeeeeeeeeeee"
            },
            {
                "amount": "1",
                "from": "0x0000000000000000000000000000000000000000",
                "id": 2,
                "isERC1155": false,
                "isERC721": true,
                "isReverted": false,
                "order": 2,
                "to": "0x5b10854bc57ac78ec0eb4874df5a6bac0f140154",
                "token": "0x895bbc29f74df77279bf585116caa24ce33ed0ba",
                "tokenID": "1264"
            },
            {
                "amount": "0.07",
                "from": "0x895bbc29f74df77279bf585116caa24ce33ed0ba",
                "id": 3,
                "isERC1155": false,
                "isERC721": false,
                "isReverted": false,
                "order": 3,
                "to": "0x963cddb2ed2c387c4904be883b2f1db2f367c913",
                "token": "0xeeeeeeeeeeeeeeeeeeeeeeeeeeeeeeeeeeeeeeee"
            }
        ],
        "token_infos": [
            {
                "address": "0xc02aaa39b223fe8d0a0e5c4f27ead9083c756cc2",
                "decimals": 18
            },
            {
                "address": "0xeeeeeeeeeeeeeeeeeeeeeeeeeeeeeeeeeeeeeeee",
                "decimals": 18
            }
        ]
    },
    "address_label": {
        "labels": [
            {
                "address": "0x0000000000000000000000000000000000000003",
                "label": "Precompiled"
            },
            {
                "address": "0x0000000000000000000000000000000000000004",
                "label": "Precompiled"
            },
            {
                "address": "0xeeeeeeeeeeeeeeeeeeeeeeeeeeeeeeeeeeeeeeee",
                "label": "Ether"
            },
            {
                "address": "0x895bbc29f74df77279bf585116caa24ce33ed0ba",
                "label": "KangarooHeroesV2 (KangarooH...)"
            },
            {
                "address": "0x0000000000000000000000000000000000000001",
                "label": "Precompiled"
            },
            {
                "address": "0x0000000000000000000000000000000000000002",
                "label": "Precompiled"
            }
        ]
    },
    "trace": {
        "accountLabels": null,
        "dataMap": {
            "-1": {
                "invocation": {
                    "address": "0x5b10854bc57ac78ec0eb4874df5a6bac0f140154",
                    "callData": "",
                    "decodedMethod": null,
                    "errorInfo": "",
                    "fromAddress": "",
                    "gasUsed": 0,
                    "id": -1,
                    "methodDecoded": false,
                    "operation": "",
                    "output": "",
                    "revert": false,
                    "revertMessage": "",
                    "selector": "",
                    "status": false,
                    "value": ""
                },
                "nodeType": 0
            },
            "0": {
                "invocation": {
                    "address": "0x895bbc29f74df77279bf585116caa24ce33ed0ba",
                    "callData": "0x0000000000000000000000000000000000000000000000000000000000000001",
                    "decodedMethod": {
                        "callParams": [
                            {
                                "name": "numberOfTokens",
                                "type": "uint256",
                                "value": "1"
                            }
                        ],
                        "constructorArguments": "",
                        "name": "mint",
                        "returnParams": [],
                        "signature": "mint(uint256)"
                    },
                    "errorInfo": "",
                    "fromAddress": "0x5b10854bc57ac78ec0eb4874df5a6bac0f140154",
                    "gasUsed": 167056,
                    "id": 0,
                    "methodDecoded": true,
                    "operation": "CALL",
                    "output": "",
                    "revert": false,
                    "revertMessage": "",
                    "selector": "0xa0712d68",
                    "status": true,
                    "value": "0.07"
                },
                "nodeType": 0
            },
            "1": {
                "event": {
                    "contract": "0x895bbc29f74df77279bf585116caa24ce33ed0ba",
                    "decodedLog": {
                        "name": "Transfer",
                        "params": [
                            {
                                "name": "from",
                                "type": "address",
                                "value": "0x0000000000000000000000000000000000000000"
                            },
                            {
                                "name": "to",
                                "type": "address",
                                "value": "0x5b10854bc57ac78ec0eb4874df5a6bac0f140154"
                            },
                            {
                                "decimalAvailable": true,
                                "name": "tokenId",
                                "type": "uint256",
                                "value": "1,264"
                            }
                        ],
                        "signature": "Transfer(address,address,uint256)"
                    },
                    "id": 1,
                    "logData": "0x",
                    "logDecoded": true,
                    "operation": "EVENT",
                    "revert": false,
                    "status": true,
                    "topics": [
                        "0xddf252ad1be2c89b69c2b068fc378daa952ba7f163c4a11628f55a4df523b3ef",
                        "0x0000000000000000000000000000000000000000000000000000000000000000",
                        "0x0000000000000000000000005b10854bc57ac78ec0eb4874df5a6bac0f140154",
                        "0x00000000000000000000000000000000000000000000000000000000000004f0"
                    ]
                },
                "nodeType": 1
            },
            "2": {
                "invocation": {
                    "address": "0x963cddb2ed2c387c4904be883b2f1db2f367c913",
                    "callData": "0x",
                    "decodedMethod": null,
                    "errorInfo": "",
                    "fromAddress": "0x895bbc29f74df77279bf585116caa24ce33ed0ba",
                    "gasUsed": 0,
                    "id": 2,
                    "methodDecoded": false,
                    "operation": "CALL",
                    "output": "",
                    "revert": false,
                    "revertMessage": "",
                    "selector": "fallback",
                    "status": true,
                    "value": "0.07"
                },
                "nodeType": 0
            }
        },
        "gasFlame": [
            {
                "children": [
                    {
                        "children": [
                            {
                                "children": [],
                                "depth": 0,
                                "name": "Initial Gas",
                                "value": 21204
                            },
                            {
                                "children": [
                                    {
                                        "children": [],
                                        "depth": 1,
                                        "name": "fallback",
                                        "value": 0
                                    }
                                ],
                                "depth": 0,
                                "name": "Executed Gas",
                                "value": 145852
                            }
                        ],
                        "depth": -1,
                        "name": "Actual Gas Used",
                        "value": 167056
                    },
                    {
                        "children": [],
                        "depth": -1,
                        "name": "Refunded Gas",
                        "value": 0
                    }
                ],
                "depth": -2,
                "name": "Total Gas",
                "value": 167056
            }
        ],
        "isConfirmed": true,
        "mainTrace": [
            {
                "children": [
                    {
                        "children": [
                            {
                                "children": [],
                                "depth": 1,
                                "id": 1,
                                "order": 1
                            },
                            {
                                "children": [],
                                "depth": 1,
                                "id": 2,
                                "order": 2
                            }
                        ],
                        "depth": 0,
                        "id": 0,
                        "order": 0
                    }
                ],
                "depth": -1,
                "id": -1,
                "order": -1
            }
        ],
        "mainTraceNodeCount": 3,
        "parentIdMap": {
            "0": -1,
            "1": 0,
            "2": 0
        },
        "tidyTrace": [
            {
                "children": [
                    {
                        "children": [
                            {
                                "children": [],
                                "depth": 1,
                                "id": 1,
                                "order": 1
                            },
                            {
                                "children": [],
                                "depth": 1,
                                "id": 2,
                                "order": 2
                            }
                        ],
                        "depth": 0,
                        "id": 0,
                        "order": 0
                    }
                ],
                "depth": -1,
                "id": -1,
                "order": -1
            }
        ],
        "tidyTraceNodeCount": 3
    },
    "state_change": {
        "stateChanges": [
            {
                "address": "0x895bbc29f74df77279bf585116caa24ce33ed0ba",
                "erc": "ERC-721",
                "slots": [
                    {
                        "current": "0x0000000000000000000000000000000000000000000000000000000000000003",
                        "key": "0x7b84b92d1d6ea5232871b1def89ce80dd6f022b8290de5125f2c7b59dab21a6b",
                        "prev": "0x0000000000000000000000000000000000000000000000000000000000000000"
                    },
                    {
                        "current": "0x00000000000000000000000000000000000000000000000000000000000004f1",
                        "key": "0x0000000000000000000000000000000000000000000000000000000000000002",
                        "prev": "0x00000000000000000000000000000000000000000000000000000000000004f0"
                    },
                    {
                        "current": "0x00000000000000000000000000000000000000000000000000000000000004f0",
                        "key": "0x405787fa12a823e0f2b7631cc41b3ba8828b3321ca811111fa75cd3aa3bb64ae",
                        "prev": "0x0000000000000000000000000000000000000000000000000000000000000000"
                    },
                    {
                        "current": "0x0000000000000000000000005b10854bc57ac78ec0eb4874df5a6bac0f140154",
                        "key": "0x405787fa12a823e0f2b7631cc41b3ba8828b3321ca811111fa75cd3aa3bb64af",
                        "prev": "0x0000000000000000000000000000000000000000000000000000000000000000"
                    },
                    {
                        "current": "0x00000000000000000000000000000000000000000000000000000000000004f1",
                        "key": "0x2b85522e8370140ebb5f73ce9b8b287463542f72214380853a02ebe274de976b",
                        "prev": "0x0000000000000000000000000000000000000000000000000000000000000000"
                    },
                    {
                        "current": "0x0000000000000000000000000000000000000000000000000000000000000003",
                        "key": "0x2cf0e440f36fa18cd23f469d08e2a92226bc25caa0fc021a0218496e60e1b5d6",
                        "prev": "0x0000000000000000000000000000000000000000000000000000000000000002"
                    },
                    {
                        "current": "0x00000000000000000000000000000000000000000000000000000000000004f0",
                        "key": "0x02be8be0c1d7851dc2087d845ad1d8cfc0fc0025c0f8167773428e7aa345439f",
                        "prev": "0x0000000000000000000000000000000000000000000000000000000000000000"
                    }
                ],
                "storageVariables": [
                    {
                        "name": "_holderTokens",
                        "type": "mapping(address => struct EnumerableSet.UintSet)",
                        "value": {
                            "pairs": [
                                {
                                    "key": "0x5b10854bc57ac78ec0eb4874df5a6bac0f140154",
                                    "value": {
                                        "fields": [
                                            {
                                                "name": "_inner",
                                                "type": "struct EnumerableSet.Set",
                                                "value": {
                                                    "fields": [
                                                        {
                                                            "name": "_values",
                                                            "type": "bytes32[]",
                                                            "value": {
                                                                "elemType": "bytes32",
                                                                "elems": [
                                                                    {
                                                                        "index": 2,
                                                                        "value": {
                                                                            "current": "0x00000000000000000000000000000000000000000000000000000000000004f0",
                                                                            "prev": "0x0000000000000000000000000000000000000000000000000000000000000000",
                                                                            "typeTag": 1
                                                                        }
                                                                    }
                                                                ],
                                                                "typeTag": 2
                                                            }
                                                        },
                                                        {
                                                            "name": "_indexes",
                                                            "type": "mapping(bytes32 => uint256)",
                                                            "value": {
                                                                "pairs": [
                                                                    {
                                                                        "key": "0x00000000000000000000000000000000000000000000000000000000000004f0",
                                                                        "value": {
                                                                            "current": "3",
                                                                            "prev": "0",
                                                                            "typeTag": 1
                                                                        }
                                                                    }
                                                                ],
                                                                "typeTag": 4
                                                            }
                                                        }
                                                    ],
                                                    "typeTag": 3
                                                }
                                            }
                                        ],
                                        "typeTag": 3
                                    }
                                }
                            ],
                            "typeTag": 4
                        }
                    },
                    {
                        "name": "_tokenOwners",
                        "type": "struct EnumerableMap.UintToAddressMap",
                        "value": {
                            "fields": [
                                {
                                    "name": "_inner",
                                    "type": "struct EnumerableMap.Map",
                                    "value": {
                                        "fields": [
                                            {
                                                "name": "_entries",
                                                "type": "struct EnumerableMap.MapEntry[]",
                                                "value": {
                                                    "elemType": "struct EnumerableMap.MapEntry",
                                                    "elems": [
                                                        {
                                                            "index": 1264,
                                                            "value": {
                                                                "fields": [
                                                                    {
                                                                        "name": "_key",
                                                                        "type": "bytes32",
                                                                        "value": {
                                                                            "current": "0x00000000000000000000000000000000000000000000000000000000000004f0",
                                                                            "prev": "0x0000000000000000000000000000000000000000000000000000000000000000",
                                                                            "typeTag": 1
                                                                        }
                                                                    },
                                                                    {
                                                                        "name": "_value",
                                                                        "type": "bytes32",
                                                                        "value": {
                                                                            "current": "0x0000000000000000000000005b10854bc57ac78ec0eb4874df5a6bac0f140154",
                                                                            "prev": "0x0000000000000000000000000000000000000000000000000000000000000000",
                                                                            "typeTag": 1
                                                                        }
                                                                    }
                                                                ],
                                                                "typeTag": 3
                                                            }
                                                        }
                                                    ],
                                                    "typeTag": 2
                                                }
                                            },
                                            {
                                                "name": "_indexes",
                                                "type": "mapping(bytes32 => uint256)",
                                                "value": {
                                                    "pairs": [
                                                        {
                                                            "key": "0x00000000000000000000000000000000000000000000000000000000000004f0",
                                                            "value": {
                                                                "current": "1265",
                                                                "prev": "0",
                                                                "typeTag": 1
                                                            }
                                                        }
                                                    ],
                                                    "typeTag": 4
                                                }
                                            }
                                        ],
                                        "typeTag": 3
                                    }
                                }
                            ],
                            "typeTag": 3
                        }
                    }
                ]
            }
        ]
    }
}