{
    "balance_change": {
        "balanceChanges": [
            {
                "account": "0x21a31ee1afc51d94c2efccaa2092ad1028285549",
                "assets": [
                    {
                        "address": "0x8ce9137d39326ad0cd6491fb5cc0cba0e089b6a9",
                        "amount": "39,773",
                        "iconUrl": "https://assets.blocksec.com/icon/c68b883f9349347d4da9eb968ec35cf721ee7e3f33954751ef5cf0c53af48d85.png",
                        "isERC1155": false,
                        "isERC721": false,
                        "sign": false,
                        "value": "52978.46711"
                    }
                ]
            },
            {
                "account": "0x1cbd7d04c8ceea59fc1168d75b2dd90058bc6416",
                "assets": [
                    {
                        "address": "0x8ce9137d39326ad0cd6491fb5cc0cba0e089b6a9",
                        "amount": "39,773",
                        "iconUrl": "https://assets.blocksec.com/icon/c68b883f9349347d4da9eb968ec35cf721ee7e3f33954751ef5cf0c53af48d85.png",
                        "isERC1155": false,
                        "isERC721": false,
                        "sign": true,
                        "value": "52978.46711"
                    }
                ]
            }
        ]
    },
    "profile": {
        "basic_info": {
            "baseFee": "161.963186008",
            "blockNumber": 13359924,
            "callData": "0xa9059cbb0000000000000000000000001cbd7d04c8ceea59fc1168d75b2dd90058bc641600000000000000000000000000000000000000000000086c1941259d5b540000",
            "debugEnable": true,
            "errorInfo": "",
            "eventCount": 1,
            "feeRecipient": "0xc365c3315cf926351ccaf13fa7d19c8c4058c8e1",
            "formatValue": "0",
            "gasLimit": 207128,
            "gasPrice": "291",
            "gasUsed": 56226,
            "intTxnCount": 0,
            "internalRevert": false,
            "internalRevertMessage": "",
            "isContractCreation": false,
            "isFlashloan": false,
            "maxFee": "",
            "nonce": 1778668,
            "overwritedBlockNumber": -1,
            "priorityFee": "",
            "receiver": "0x8ce9137d39326ad0cd6491fb5cc0cba0e089b6a9",
            "revertMessage": "",
            "sender": "0x21a31ee1afc51d94c2efccaa2092ad1028285549",
            "simulationEnable": true,
            "sourceTxnHash": "0x614f62637b95d5341ebfffa44fb3c7e87db501fb641da030b0bfd41a4df4385a",
            "status": true,
            "timestamp": "2021-10-05T15:41:55Z",
            "transactionFee": "0.016361766",
            "txnHash": "0x614f62637b95d5341ebfffa44fb3c7e87db501fb641da030b0bfd41a4df4385a",
            "txnIndex": 3,
            "type": 0,
            "value": "0"
        },
        "fund_flow": [
            {
                "amount": "39,773",
                "from": "0x21a31ee1afc51d94c2efccaa2092ad1028285549",
                "id": 1,
                "isERC1155": false,
                "isERC721": false,
                "isReverted": false,
                "order": 1,
                "to": "0x1cbd7d04c8ceea59fc1168d75b2dd90058bc6416",
                "token": "0x8ce9137d39326ad0cd6491fb5cc0cba0e089b6a9"
            }
        ],
        "token_infos": [
            {
                "address": "0xc02aaa39b223fe8d0a0e5c4f27ead9083c756cc2",
                "decimals": 18
            },
            {
                "address": "0xeeeeeeeeeeeeeeeeeeeeeeeeeeeeeeeeeeeeeeee",
                "decimals": 18
            },
            {
                "address": "0x8ce9137d39326ad0cd6491fb5cc0cba0e089b6a9",
                "decimals": 18
            }
        ]
    },
    "address_label": {
        "labels": [
            {
                "address": "0x0000000000000000000000000000000000000002",
                "label": "Precompiled"
            },
            {
                "address": "0x0000000000000000000000000000000000000003",
                "label": "Precompiled"
            },
            {
                "address": "0x0000000000000000000000000000000000000004",
                "label": "Precompiled"
            },
            {
                "address": "0xeeeeeeeeeeeeeeeeeeeeeeeeeeeeeeeeeeeeeeee",
                "label": "Ether"
            },
            {
                "address": "0x8ce9137d39326ad0cd6491fb5cc0cba0e089b6a9",
                "label": "Swipe: SXP Token"
            },
            {
                "address": "0x21a31ee1afc51d94c2efccaa2092ad1028285549",
                "label": "Binance 15"
            },
            {
                "address": "0x0000000000000000000000000000000000000001",
                "label": "Precompiled"
            }
        ]
    },
    "trace": {
        "accountLabels": null,
        "dataMap": {
            "-1": {
                "invocation": {
                    "address": "0x21a31ee1afc51d94c2efccaa2092ad1028285549",
                    "callData": "",
                    "decodedMethod": null,
                    "errorInfo": "",
                    "fromAddress": "",
                    "gasUsed": 0,
                    "id": -1,
                    "methodDecoded": false,
                    "operation": "",
                    "output": "",
                    "revert": false,
                    "revertMessage": "",
                    "selector": "",
                    "status": false,
                    "value": ""
                },
                "nodeType": 0
            },
            "0": {
                "invocation": {
                    "address": "0x8ce9137d39326ad0cd6491fb5cc0cba0e089b6a9",
                    "callData": "0x0000000000000000000000001cbd7d04c8ceea59fc1168d75b2dd90058bc641600000000000000000000000000000000000000000000086c1941259d5b540000",
                    "decodedMethod": {
                        "callParams": [
                            {
                                "name": "to",
                                "type": "address",
                                "value": "0x1cbd7d04c8ceea59fc1168d75b2dd90058bc6416"
                            },
                            {
                                "decimalAvailable": true,
                                "name": "tokens",
                                "type": "uint256",
                                "value": "39,773,000,000,000,000,000,000"
                            }
                        ],
                        "constructorArguments": "",
                        "name": "transfer",
                        "returnParams": [
                            {
                                "name": "success",
                                "type": "bool",
                                "value": true
                            }
                        ],
                        "signature": "transfer(address,uint256)"
                    },
                    "errorInfo": "",
                    "fromAddress": "0x21a31ee1afc51d94c2efccaa2092ad1028285549",
                    "gasUsed": 56226,
                    "id": 0,
                    "methodDecoded": true,
                    "operation": "CALL",
                    "output": "0x0000000000000000000000000000000000000000000000000000000000000001",
                    "revert": false,
                    "revertMessage": "",
                    "selector": "0xa9059cbb",
                    "status": true,
                    "value": "0"
                },
                "nodeType": 0
            },
            "1": {
                "event": {
                    "contract": "0x8ce9137d39326ad0cd6491fb5cc0cba0e089b6a9",
                    "decodedLog": {
                        "name": "Transfer",
                        "params": [
                            {
                                "name": "from",
                                "type": "address",
                                "value": "0x21a31ee1afc51d94c2efccaa2092ad1028285549"
                            },
                            {
                                "name": "to",
                                "type": "address",
                                "value": "0x1cbd7d04c8ceea59fc1168d75b2dd90058bc6416"
                            },
                            {
                                "decimalAvailable": true,
                                "name": "tokens",
                                "type": "uint256",
                                "value": "39,773,000,000,000,000,000,000"
                            }
                        ],
                        "signature": "Transfer(address,address,uint256)"
                    },
                    "id": 1,
                    "logData": "0x00000000000000000000000000000000000000000000086c1941259d5b540000",
                    "logDecoded": true,
                    "operation": "EVENT",
                    "revert": false,
                    "status": true,
                    "topics": [
                        "0xddf252ad1be2c89b69c2b068fc378daa952ba7f163c4a11628f55a4df523b3ef",
                        "0x00000000000000000000000021a31ee1afc51d94c2efccaa2092ad1028285549",
                        "0x0000000000000000000000001cbd7d04c8ceea59fc1168d75b2dd90058bc6416"
                    ]
                },
                "nodeType": 1
            }
        },
        "gasFlame": [
            {
                "children": [
                    {
                        "children": [
                            {
                                "children": [],
                                "depth": 0,
                                "name": "Initial Gas",
                                "value": 21644
                            },
                            {
                                "children": [],
                                "depth": 0,
                                "name": "Executed Gas",
                                "value": 34582
                            }
                        ],
                        "depth": -1,
                        "name": "Actual Gas Used",
                        "value": 56226
                    },
                    {
                        "children": [],
                        "depth": -1,
                        "name": "Refunded Gas",
                        "value": 0
                    }
                ],
                "depth": -2,
                "name": "Total Gas",
                "value": 56226
            }
        ],
        "isConfirmed": true,
        "mainTrace": [
            {
                "children": [
                    {
                        "children": [
                            {
                                "children": [],
                                "depth": 1,
                                "id": 1,
                                "order": 1
                            }
                        ],
                        "depth": 0,
                        "id": 0,
                        "order": 0
                    }
                ],
                "depth": -1,
                "id": -1,
                "order": -1
            }
        ],
        "mainTraceNodeCount": 2,
        "parentIdMap": {
            "0": -1,
            "1": 0
        },
        "tidyTrace": [
            {
                "children": [
                    {
                        "children": [
                            {
                                "children": [],
                                "depth": 1,
                                "id": 1,
                                "order": 1
                            }
                        ],
                        "depth": 0,
                        "id": 0,
                        "order": 0
                    }
                ],
                "depth": -1,
                "id": -1,
                "order": -1
            }
        ],
        "tidyTraceNodeCount": 2
    },
    "state_change": {
        "stateChanges": [
            {
                "address": "0x8ce9137d39326ad0cd6491fb5cc0cba0e089b6a9",
                "erc": "ERC-20",
                "slots": [
                    {
                        "current": "0x000000000000000000000000000000000000000000008488f71a7037f1137000",
                        "key": "0xd8e9d8ea6f134d03da245979710275316370450c0e8a5afcfc4e8e535674cd77",
                        "prev": "0x000000000000000000000000000000000000000000008cf5105b95d54c677000"
                    },
                    {
                        "current": "0x00000000000000000000000000000000000000000000086c1941259d5b540000",
                        "key": "0x94c3790d3057ac3c9b960c380c3fbe2b4e8674263d50876ed87a553917f6719c",
                        "prev": "0x0000000000000000000000000000000000000000000000000000000000000000"
                    }
                ],
                "storageVariables": [
                    {
                        "name": "balances",
                        "type": "mapping(address => uint256)",
                        "value": {
                            "pairs": [
                                {
                                    "key": "0x1cbd7d04c8ceea59fc1168d75b2dd90058bc6416",
                                    "value": {
                                        "current": "39773000000000000000000",
                                        "prev": "0",
                                        "typeTag": 1
                                    }
                                },
                                {
                                    "key": "0x21a31ee1afc51d94c2efccaa2092ad1028285549",
                                    "value": {
                                        "current": "625878938600280000000000",
                                        "prev": "665651938600280000000000",
                                        "typeTag": 1
                                    }
                                }
                            ],
                            "typeTag": 4
                        }
                    }
                ]
            }
        ]
    }
}