{
    "balance_change": {
        "balanceChanges": [
            {
                "account": "0xddfc10739d7957b9885d5b2d8c6f37d9211a12e9",
                "assets": [
                    {
                        "address": "0xeeeeeeeeeeeeeeeeeeeeeeeeeeeeeeeeeeeeeeee",
                        "amount": "1.6",
                        "iconUrl": "https://assets.blocksec.com/image/1663669189317-3.png",
                        "isERC1155": false,
                        "isERC721": false,
                        "sign": false,
                        "value": "2891.3375152000000525"
                    },
                    {
                        "address": "0x5cc5b05a8a13e3fbdb0bb9fccd98d38e50f90c38",
                        "amount": "1",
                        "iconUrl": "https://assets.blocksec.com/nft/icon/nft_f6d81e10-1646-44cb-ba3e-7c360235388e.png",
                        "isERC1155": false,
                        "isERC721": true,
                        "sign": true,
                        "tokenID": "151922",
                        "value": ""
                    }
                ]
            },
            {
                "account": "0x08490bab11b0aa5b29d83a42d75a68e762496492",
                "assets": [
                    {
                        "address": "0xeeeeeeeeeeeeeeeeeeeeeeeeeeeeeeeeeeeeeeee",
                        "amount": "1.48",
                        "iconUrl": "https://assets.blocksec.com/image/1663669189317-3.png",
                        "isERC1155": false,
                        "isERC721": false,
                        "sign": true,
                        "value": "2674.4872015600000488"
                    },
                    {
                        "address": "0x5cc5b05a8a13e3fbdb0bb9fccd98d38e50f90c38",
                        "amount": "1",
                        "iconUrl": "https://assets.blocksec.com/nft/icon/nft_f6d81e10-1646-44cb-ba3e-7c360235388e.png",
                        "isERC1155": false,
                        "isERC721": true,
                        "sign": false,
                        "tokenID": "151922",
                        "value": ""
                    }
                ]
            },
            {
                "account": "0x5b3256965e7c3cf26e11fcaf296dfc8807c01073",
                "assets": [
                    {
                        "address": "0xeeeeeeeeeeeeeeeeeeeeeeeeeeeeeeeeeeeeeeee",
                        "amount": "0.12",
                        "iconUrl": "https://assets.blocksec.com/image/1663669189317-3.png",
                        "isERC1155": false,
                        "isERC721": false,
                        "sign": true,
                        "value": "216.85031364000000394"
                    }
                ]
            }
        ]
    },
    "profile": {
        "basic_info": {
            "baseFee": "43.948057029",
            "blockNumber": 14958033,
            "callData": "0xab834bab0000000000000000000000007f268357a8c2552623316e2562d90e642bb538e5000000000000000000000000ddfc10739d7957b9885d5b2d8c6f37d9211a12e900000000000000000000000008490bab11b0aa5b29d83a42d75a68e7624964920000000000000000000000000000000000000000000000000000000000000000000000000000000000000000baf2127b49fc93cbca6269fade0f7f31df4c88a7000000000000000000000000000000000000000000000000000000000000000000000000000000000000000000000000000000000000000000000000000000000000000000000000000000007f268357a8c2552623316e2562d90e642bb538e500000000000000000000000008490bab11b0aa5b29d83a42d75a68e76249649200000000000000000000000000000000000000000000000000000000000000000000000000000000000000005b3256965e7c3cf26e11fcaf296dfc8807c01073000000000000000000000000baf2127b49fc93cbca6269fade0f7f31df4c88a70000000000000000000000000000000000000000000000000000000000000000000000000000000000000000000000000000000000000000000000000000000000000000000000000000000000000000000000000000000000000000000002ee00000000000000000000000000000000000000000000000000000000000000000000000000000000000000000000000000000000000000000000000000000000000000000000000000000000000000000000000000000000000000000000000000000000000000000000000000000000000000000000000016345785d8a0000000000000000000000000000000000000000000000000000000000000000000000000000000000000000000000000000000000000000000000000000062a7a3050000000000000000000000000000000000000000000000000000000000000000a94c72e397b42e787c5d3a990c303776d0d05e8336b96e9a2478f4ed1f1c7ab000000000000000000000000000000000000000000000000000000000000002ee00000000000000000000000000000000000000000000000000000000000000000000000000000000000000000000000000000000000000000000000000000000000000000000000000000000000000000000000000000000000000000000000000000000000000000000000000000000000000000000000016345785d8a0000000000000000000000000000000000000000000000000000000000000000000000000000000000000000000000000000000000000000000000000000062a619d60000000000000000000000000000000000000000000000000000000062cda733d815d403d988a7e53e77f30dbc743f97aec011567d135b5e0c2c0dd5320a43ac0000000000000000000000000000000000000000000000000000000000000001000000000000000000000000000000000000000000000000000000000000000000000000000000000000000000000000000000000000000000000000000000000000000000000000000000000000000000000000000000000000000000000001000000000000000000000000000000000000000000000000000000000000000100000000000000000000000000000000000000000000000000000000000000010000000000000000000000000000000000000000000000000000000000000000000000000000000000000000000000000000000000000000000000000000000100000000000000000000000000000000000000000000000000000000000006a000000000000000000000000000000000000000000000000000000000000007c000000000000000000000000000000000000000000000000000000000000008e00000000000000000000000000000000000000000000000000000000000000a000000000000000000000000000000000000000000000000000000000000000b200000000000000000000000000000000000000000000000000000000000000b20000000000000000000000000000000000000000000000000000000000000001b000000000000000000000000000000000000000000000000000000000000001b279159aa462ea3fe694ce3ff38303283c0ae304dd2d6c9f991b0a7c1a8d555d05ff36a60ca2cb5705fd56a6df8a05251471c5bde6aa02dadaa85ef429a9a8f14279159aa462ea3fe694ce3ff38303283c0ae304dd2d6c9f991b0a7c1a8d555d05ff36a60ca2cb5705fd56a6df8a05251471c5bde6aa02dadaa85ef429a9a8f14000000000000000000000000000000000000000000000000000000000000000000000000000000000000000000000000000000000000000000000000000000e4fb16a5950000000000000000000000000000000000000000000000000000000000000000000000000000000000000000ddfc10739d7957b9885d5b2d8c6f37d9211a12e90000000000000000000000005cc5b05a8a13e3fbdb0bb9fccd98d38e50f90c380000000000000000000000000000000000000000000000000000000000025172000000000000000000000000000000000000000000000000000000000000000000000000000000000000000000000000000000000000000000000000000000c000000000000000000000000000000000000000000000000000000000000000000000000000000000000000000000000000000000000000000000000000000000000000000000000000000000000000000000000000000000000000e4fb16a59500000000000000000000000008490bab11b0aa5b29d83a42d75a68e76249649200000000000000000000000000000000000000000000000000000000000000000000000000000000000000005cc5b05a8a13e3fbdb0bb9fccd98d38e50f90c380000000000000000000000000000000000000000000000000000000000025172000000000000000000000000000000000000000000000000000000000000000000000000000000000000000000000000000000000000000000000000000000c000000000000000000000000000000000000000000000000000000000000000000000000000000000000000000000000000000000000000000000000000000000000000000000000000000000000000000000000000000000000000e400000000ffffffffffffffffffffffffffffffffffffffffffffffffffffffffffffffff0000000000000000000000000000000000000000000000000000000000000000000000000000000000000000000000000000000000000000000000000000000000000000000000000000000000000000000000000000000000000000000000000000000000000000000000000000000000000000000000000000000000000000000000000000000000000000000000000000000000000000000000000000000000000000000000000000000000000000000000000000000000000000000000000000000000000000000000000000000000000000000000000000000000000000000000000000000000000000000000000000000000000000000000e4000000000000000000000000000000000000000000000000000000000000000000000000ffffffffffffffffffffffffffffffffffffffffffffffffffffffffffffffff00000000000000000000000000000000000000000000000000000000000000000000000000000000000000000000000000000000000000000000000000000000000000000000000000000000000000000000000000000000000000000000000000000000000000000000000000000000000000000000000000000000000000000000000000000000000000000000000000000000000000000000000000000000000000000000000000000000000000000000000000000000000000000000000000000000000000000000000000000000000000000000000000000000",
            "debugEnable": true,
            "errorInfo": "",
            "eventCount": 2,
            "feeRecipient": "0x7f101fe45e6649a6fb8f3f8b43ed03d353f2b90c",
            "formatValue": "1.6",
            "gasLimit": 281031,
            "gasPrice": "45.448057029",
            "gasUsed": 206436,
            "intTxnCount": 12,
            "internalRevert": false,
            "internalRevertMessage": "",
            "isContractCreation": false,
            "isFlashloan": false,
            "maxFee": "62.576885624",
            "nonce": 6,
            "overwritedBlockNumber": -1,
            "priorityFee": "1.5",
            "receiver": "0x7f268357a8c2552623316e2562d90e642bb538e5",
            "revertMessage": "",
            "sender": "0xddfc10739d7957b9885d5b2d8c6f37d9211a12e9",
            "simulationEnable": true,
            "sourceTxnHash": "0x6107ca78bb6702816e4c47cd906bcc06702409bdbded915974ec29bbb2a984b6",
            "status": true,
            "timestamp": "2022-06-13T20:52:50Z",
            "transactionFee": "0.009382115100838644",
            "txnHash": "0x6107ca78bb6702816e4c47cd906bcc06702409bdbded915974ec29bbb2a984b6",
            "txnIndex": 35,
            "type": 2,
            "value": "1600000000000000000"
        },
        "fund_flow": [
            {
                "amount": "1.6",
                "from": "0xddfc10739d7957b9885d5b2d8c6f37d9211a12e9",
                "id": 1,
                "isERC1155": false,
                "isERC721": false,
                "isReverted": false,
                "order": 1,
                "to": "0x7f268357a8c2552623316e2562d90e642bb538e5",
                "token": "0xeeeeeeeeeeeeeeeeeeeeeeeeeeeeeeeeeeeeeeee"
            },
            {
                "amount": "0.12",
                "from": "0x7f268357a8c2552623316e2562d90e642bb538e5",
                "id": 2,
                "isERC1155": false,
                "isERC721": false,
                "isReverted": false,
                "order": 2,
                "to": "0x5b3256965e7c3cf26e11fcaf296dfc8807c01073",
                "token": "0xeeeeeeeeeeeeeeeeeeeeeeeeeeeeeeeeeeeeeeee"
            },
            {
                "amount": "1.48",
                "from": "0x7f268357a8c2552623316e2562d90e642bb538e5",
                "id": 3,
                "isERC1155": false,
                "isERC721": false,
                "isReverted": false,
                "order": 3,
                "to": "0x08490bab11b0aa5b29d83a42d75a68e762496492",
                "token": "0xeeeeeeeeeeeeeeeeeeeeeeeeeeeeeeeeeeeeeeee"
            },
            {
                "amount": "1",
                "from": "0x08490bab11b0aa5b29d83a42d75a68e762496492",
                "id": 4,
                "isERC1155": false,
                "isERC721": true,
                "isReverted": false,
                "order": 4,
                "to": "0xddfc10739d7957b9885d5b2d8c6f37d9211a12e9",
                "token": "0x5cc5b05a8a13e3fbdb0bb9fccd98d38e50f90c38",
                "tokenID": "151922"
            }
        ],
        "token_infos": [
            {
                "address": "0xc02aaa39b223fe8d0a0e5c4f27ead9083c756cc2",
                "decimals": 18
            },
            {
                "address": "0xeeeeeeeeeeeeeeeeeeeeeeeeeeeeeeeeeeeeeeee",
                "decimals": 18
            }
        ]
    },
    "address_label": {
        "labels": [
            {
                "address": "0x5b3256965e7c3cf26e11fcaf296dfc8807c01073",
                "label": "OpenSea: Wallet"
            },
            {
                "address": "0x0000000000000000000000000000000000000000",
                "label": "Null Address"
            },
            {
                "address": "0xf859e17efbcdf60ee9b951198aecd03b1cdd231c",
                "label": "Sandbox&#39;s LANDs (LAND)"
            },
            {
                "address": "0x0000000000000000000000000000000000000004",
                "label": "Precompiled"
            },
            {
                "address": "0xeeeeeeeeeeeeeeeeeeeeeeeeeeeeeeeeeeeeeeee",
                "label": "Ether"
            },
            {
                "address": "0xa5409ec958c83c3f309868babaca7c86dcb077c1",
                "label": "OpenSea: Registry"
            },
            {
                "address": "0xf9e266af4bca5890e2781812cc6a6e89495a79f2",
                "label": "AuthenticatedProxy"
            },
            {
                "address": "0x0000000000000000000000000000000000000003",
                "label": "Precompiled"
            },
            {
                "address": "0x7f268357a8c2552623316e2562d90e642bb538e5",
                "label": "OpenSea: Wyvern Exchange v2"
            },
            {
                "address": "0x5cc5b05a8a13e3fbdb0bb9fccd98d38e50f90c38",
                "label": "The Sandbox: LAND Token"
            },
            {
                "address": "0xed02958794d24efe4e9b7535e547568892188918",
                "label": "OwnableDelegateProxy"
            },
            {
                "address": "0xbaf2127b49fc93cbca6269fade0f7f31df4c88a7",
                "label": "MerkleValidator"
            },
            {
                "address": "0x0000000000000000000000000000000000000001",
                "label": "Precompiled"
            },
            {
                "address": "0x0000000000000000000000000000000000000002",
                "label": "Precompiled"
            }
        ]
    },
    "trace": {
        "accountLabels": null,
        "dataMap": {
            "-1": {
                "invocation": {
                    "address": "0xddfc10739d7957b9885d5b2d8c6f37d9211a12e9",
                    "callData": "",
                    "decodedMethod": null,
                    "errorInfo": "",
                    "fromAddress": "",
                    "gasUsed": 0,
                    "id": -1,
                    "methodDecoded": false,
                    "operation": "",
                    "output": "",
                    "revert": false,
                    "revertMessage": "",
                    "selector": "",
                    "status": false,
                    "value": ""
                },
                "nodeType": 0
            },
            "0": {
                "invocation": {
                    "address": "0x7f268357a8c2552623316e2562d90e642bb538e5",
                    "callData": "0x0000000000000000000000007f268357a8c2552623316e2562d90e642bb538e5000000000000000000000000ddfc10739d7957b9885d5b2d8c6f37d9211a12e900000000000000000000000008490bab11b0aa5b29d83a42d75a68e7624964920000000000000000000000000000000000000000000000000000000000000000000000000000000000000000baf2127b49fc93cbca6269fade0f7f31df4c88a7000000000000000000000000000000000000000000000000000000000000000000000000000000000000000000000000000000000000000000000000000000000000000000000000000000007f268357a8c2552623316e2562d90e642bb538e500000000000000000000000008490bab11b0aa5b29d83a42d75a68e76249649200000000000000000000000000000000000000000000000000000000000000000000000000000000000000005b3256965e7c3cf26e11fcaf296dfc8807c01073000000000000000000000000baf2127b49fc93cbca6269fade0f7f31df4c88a70000000000000000000000000000000000000000000000000000000000000000000000000000000000000000000000000000000000000000000000000000000000000000000000000000000000000000000000000000000000000000000002ee00000000000000000000000000000000000000000000000000000000000000000000000000000000000000000000000000000000000000000000000000000000000000000000000000000000000000000000000000000000000000000000000000000000000000000000000000000000000000000000000016345785d8a0000000000000000000000000000000000000000000000000000000000000000000000000000000000000000000000000000000000000000000000000000062a7a3050000000000000000000000000000000000000000000000000000000000000000a94c72e397b42e787c5d3a990c303776d0d05e8336b96e9a2478f4ed1f1c7ab000000000000000000000000000000000000000000000000000000000000002ee00000000000000000000000000000000000000000000000000000000000000000000000000000000000000000000000000000000000000000000000000000000000000000000000000000000000000000000000000000000000000000000000000000000000000000000000000000000000000000000000016345785d8a0000000000000000000000000000000000000000000000000000000000000000000000000000000000000000000000000000000000000000000000000000062a619d60000000000000000000000000000000000000000000000000000000062cda733d815d403d988a7e53e77f30dbc743f97aec011567d135b5e0c2c0dd5320a43ac0000000000000000000000000000000000000000000000000000000000000001000000000000000000000000000000000000000000000000000000000000000000000000000000000000000000000000000000000000000000000000000000000000000000000000000000000000000000000000000000000000000000000001000000000000000000000000000000000000000000000000000000000000000100000000000000000000000000000000000000000000000000000000000000010000000000000000000000000000000000000000000000000000000000000000000000000000000000000000000000000000000000000000000000000000000100000000000000000000000000000000000000000000000000000000000006a000000000000000000000000000000000000000000000000000000000000007c000000000000000000000000000000000000000000000000000000000000008e00000000000000000000000000000000000000000000000000000000000000a000000000000000000000000000000000000000000000000000000000000000b200000000000000000000000000000000000000000000000000000000000000b20000000000000000000000000000000000000000000000000000000000000001b000000000000000000000000000000000000000000000000000000000000001b279159aa462ea3fe694ce3ff38303283c0ae304dd2d6c9f991b0a7c1a8d555d05ff36a60ca2cb5705fd56a6df8a05251471c5bde6aa02dadaa85ef429a9a8f14279159aa462ea3fe694ce3ff38303283c0ae304dd2d6c9f991b0a7c1a8d555d05ff36a60ca2cb5705fd56a6df8a05251471c5bde6aa02dadaa85ef429a9a8f14000000000000000000000000000000000000000000000000000000000000000000000000000000000000000000000000000000000000000000000000000000e4fb16a5950000000000000000000000000000000000000000000000000000000000000000000000000000000000000000ddfc10739d7957b9885d5b2d8c6f37d9211a12e90000000000000000000000005cc5b05a8a13e3fbdb0bb9fccd98d38e50f90c380000000000000000000000000000000000000000000000000000000000025172000000000000000000000000000000000000000000000000000000000000000000000000000000000000000000000000000000000000000000000000000000c000000000000000000000000000000000000000000000000000000000000000000000000000000000000000000000000000000000000000000000000000000000000000000000000000000000000000000000000000000000000000e4fb16a59500000000000000000000000008490bab11b0aa5b29d83a42d75a68e76249649200000000000000000000000000000000000000000000000000000000000000000000000000000000000000005cc5b05a8a13e3fbdb0bb9fccd98d38e50f90c380000000000000000000000000000000000000000000000000000000000025172000000000000000000000000000000000000000000000000000000000000000000000000000000000000000000000000000000000000000000000000000000c000000000000000000000000000000000000000000000000000000000000000000000000000000000000000000000000000000000000000000000000000000000000000000000000000000000000000000000000000000000000000e400000000ffffffffffffffffffffffffffffffffffffffffffffffffffffffffffffffff0000000000000000000000000000000000000000000000000000000000000000000000000000000000000000000000000000000000000000000000000000000000000000000000000000000000000000000000000000000000000000000000000000000000000000000000000000000000000000000000000000000000000000000000000000000000000000000000000000000000000000000000000000000000000000000000000000000000000000000000000000000000000000000000000000000000000000000000000000000000000000000000000000000000000000000000000000000000000000000000000000000000000000000000e4000000000000000000000000000000000000000000000000000000000000000000000000ffffffffffffffffffffffffffffffffffffffffffffffffffffffffffffffff00000000000000000000000000000000000000000000000000000000000000000000000000000000000000000000000000000000000000000000000000000000000000000000000000000000000000000000000000000000000000000000000000000000000000000000000000000000000000000000000000000000000000000000000000000000000000000000000000000000000000000000000000000000000000000000000000000000000000000000000000000000000000000000000000000000000000000000000000000000000000000000000000000000",
                    "decodedMethod": {
                        "callParams": [
                            {
                                "name": "addrs",
                                "type": "address[14]",
                                "value": [
                                    "0x7f268357a8c2552623316e2562d90e642bb538e5",
                                    "0xddfc10739d7957b9885d5b2d8c6f37d9211a12e9",
                                    "0x08490bab11b0aa5b29d83a42d75a68e762496492",
                                    "0x0000000000000000000000000000000000000000",
                                    "0xbaf2127b49fc93cbca6269fade0f7f31df4c88a7",
                                    "0x0000000000000000000000000000000000000000",
                                    "0x0000000000000000000000000000000000000000",
                                    "0x7f268357a8c2552623316e2562d90e642bb538e5",
                                    "0x08490bab11b0aa5b29d83a42d75a68e762496492",
                                    "0x0000000000000000000000000000000000000000",
                                    "0x5b3256965e7c3cf26e11fcaf296dfc8807c01073",
                                    "0xbaf2127b49fc93cbca6269fade0f7f31df4c88a7",
                                    "0x0000000000000000000000000000000000000000",
                                    "0x0000000000000000000000000000000000000000"
                                ]
                            },
                            {
                                "name": "uints",
                                "type": "uint256[18]",
                                "value": [
                                    "750",
                                    "0",
                                    "0",
                                    "0",
                                    "1,600,000,000,000,000,000",
                                    "0",
                                    "1,655,153,413",
                                    "0",
                                    "76,575,944,722,462,882,834,090,348,964,480,626,425,794,055,756,856,767,464,665,823,592,430,360,623,792",
                                    "750",
                                    "0",
                                    "0",
                                    "0",
                                    "1,600,000,000,000,000,000",
                                    "0",
                                    "1,655,052,758",
                                    "1,657,644,851",
                                    "97,738,142,356,360,229,805,201,367,023,940,673,769,145,210,439,697,744,314,227,493,339,792,342,139,820"
                                ]
                            },
                            {
                                "name": "feeMethodsSidesKindsHowToCalls",
                                "type": "uint8[8]",
                                "value": [
                                    "1",
                                    "0",
                                    "0",
                                    "1",
                                    "1",
                                    "1",
                                    "0",
                                    "1"
                                ]
                            },
                            {
                                "name": "calldataBuy",
                                "type": "bytes",
                                "value": "0xfb16a5950000000000000000000000000000000000000000000000000000000000000000000000000000000000000000ddfc10739d7957b9885d5b2d8c6f37d9211a12e90000000000000000000000005cc5b05a8a13e3fbdb0bb9fccd98d38e50f90c380000000000000000000000000000000000000000000000000000000000025172000000000000000000000000000000000000000000000000000000000000000000000000000000000000000000000000000000000000000000000000000000c00000000000000000000000000000000000000000000000000000000000000000"
                            },
                            {
                                "name": "calldataSell",
                                "type": "bytes",
                                "value": "0xfb16a59500000000000000000000000008490bab11b0aa5b29d83a42d75a68e76249649200000000000000000000000000000000000000000000000000000000000000000000000000000000000000005cc5b05a8a13e3fbdb0bb9fccd98d38e50f90c380000000000000000000000000000000000000000000000000000000000025172000000000000000000000000000000000000000000000000000000000000000000000000000000000000000000000000000000000000000000000000000000c00000000000000000000000000000000000000000000000000000000000000000"
                            },
                            {
                                "name": "replacementPatternBuy",
                                "type": "bytes",
                                "value": "0x00000000ffffffffffffffffffffffffffffffffffffffffffffffffffffffffffffffff000000000000000000000000000000000000000000000000000000000000000000000000000000000000000000000000000000000000000000000000000000000000000000000000000000000000000000000000000000000000000000000000000000000000000000000000000000000000000000000000000000000000000000000000000000000000000000000000000000000000000000000000000000000000000000000000000000000000000000000000000000000000000000000000"
                            },
                            {
                                "name": "replacementPatternSell",
                                "type": "bytes",
                                "value": "0x000000000000000000000000000000000000000000000000000000000000000000000000ffffffffffffffffffffffffffffffffffffffffffffffffffffffffffffffff00000000000000000000000000000000000000000000000000000000000000000000000000000000000000000000000000000000000000000000000000000000000000000000000000000000000000000000000000000000000000000000000000000000000000000000000000000000000000000000000000000000000000000000000000000000000000000000000000000000000000000000000000000000"
                            },
                            {
                                "name": "staticExtradataBuy",
                                "type": "bytes",
                                "value": "0x"
                            },
                            {
                                "name": "staticExtradataSell",
                                "type": "bytes",
                                "value": "0x"
                            },
                            {
                                "name": "vs",
                                "type": "uint8[2]",
                                "value": [
                                    "27",
                                    "27"
                                ]
                            },
                            {
                                "name": "rssMetadata",
                                "type": "bytes32[5]",
                                "value": [
                                    "0x279159aa462ea3fe694ce3ff38303283c0ae304dd2d6c9f991b0a7c1a8d555d0",
                                    "0x5ff36a60ca2cb5705fd56a6df8a05251471c5bde6aa02dadaa85ef429a9a8f14",
                                    "0x279159aa462ea3fe694ce3ff38303283c0ae304dd2d6c9f991b0a7c1a8d555d0",
                                    "0x5ff36a60ca2cb5705fd56a6df8a05251471c5bde6aa02dadaa85ef429a9a8f14",
                                    "0x0000000000000000000000000000000000000000000000000000000000000000"
                                ]
                            }
                        ],
                        "constructorArguments": "",
                        "name": "atomicMatch_",
                        "returnParams": [],
                        "signature": "atomicMatch_(address[14],uint256[18],uint8[8],bytes,bytes,bytes,bytes,bytes,bytes,uint8[2],bytes32[5])"
                    },
                    "errorInfo": "",
                    "fromAddress": "0xddfc10739d7957b9885d5b2d8c6f37d9211a12e9",
                    "gasUsed": 206436,
                    "id": 0,
                    "methodDecoded": true,
                    "operation": "CALL",
                    "output": "",
                    "revert": false,
                    "revertMessage": "",
                    "selector": "0xab834bab",
                    "status": true,
                    "value": "1.6"
                },
                "nodeType": 0
            },
            "1": {
                "invocation": {
                    "address": "0x0000000000000000000000000000000000000001",
                    "callData": "0x5be3c7460836b52b5fa66384e64df3698386515722eaf9a0398e9051000000000000000000000000000000000000000000000000000000000000001b279159aa462ea3fe694ce3ff38303283c0ae304dd2d6c9f991b0a7c1a8d555d05ff36a60ca2cb5705fd56a6df8a05251471c5bde6aa02dadaa85ef429a9a8f14",
                    "decodedMethod": {
                        "callParams": [
                            {
                                "name": "hash",
                                "type": "bytes32",
                                "value": "0x7c3b30e15be3c7460836b52b5fa66384e64df3698386515722eaf9a0398e9051"
                            },
                            {
                                "name": "v",
                                "type": "uint256",
                                "value": "27"
                            },
                            {
                                "name": "r",
                                "type": "bytes32",
                                "value": "0x279159aa462ea3fe694ce3ff38303283c0ae304dd2d6c9f991b0a7c1a8d555d0"
                            },
                            {
                                "name": "s",
                                "type": "bytes32",
                                "value": "0x5ff36a60ca2cb5705fd56a6df8a05251471c5bde6aa02dadaa85ef429a9a8f14"
                            }
                        ],
                        "constructorArguments": "",
                        "name": "ecrecover",
                        "returnParams": [
                            {
                                "name": "",
                                "type": "address",
                                "value": "0x08490bab11b0aa5b29d83a42d75a68e762496492"
                            }
                        ],
                        "signature": "ecrecover(bytes32,uint256,bytes32,bytes32)"
                    },
                    "errorInfo": "",
                    "fromAddress": "0x7f268357a8c2552623316e2562d90e642bb538e5",
                    "gasUsed": 3000,
                    "id": 1,
                    "methodDecoded": true,
                    "operation": "CALL",
                    "output": "0x00000000000000000000000008490bab11b0aa5b29d83a42d75a68e762496492",
                    "revert": false,
                    "revertMessage": "",
                    "selector": "0x7c3b30e1",
                    "status": true,
                    "value": "0"
                },
                "nodeType": 0
            },
            "10": {
                "invocation": {
                    "address": "0xbaf2127b49fc93cbca6269fade0f7f31df4c88a7",
                    "callData": "0x00000000000000000000000008490bab11b0aa5b29d83a42d75a68e762496492000000000000000000000000ddfc10739d7957b9885d5b2d8c6f37d9211a12e90000000000000000000000005cc5b05a8a13e3fbdb0bb9fccd98d38e50f90c380000000000000000000000000000000000000000000000000000000000025172000000000000000000000000000000000000000000000000000000000000000000000000000000000000000000000000000000000000000000000000000000c0000000000000000000000000000000000000000000000000000000000000000000000000000000000000000000000000000000000000000000000000",
                    "decodedMethod": {
                        "callParams": [
                            {
                                "name": "from",
                                "type": "address",
                                "value": "0x08490bab11b0aa5b29d83a42d75a68e762496492"
                            },
                            {
                                "name": "to",
                                "type": "address",
                                "value": "0xddfc10739d7957b9885d5b2d8c6f37d9211a12e9"
                            },
                            {
                                "name": "token",
                                "type": "address",
                                "value": "0x5cc5b05a8a13e3fbdb0bb9fccd98d38e50f90c38"
                            },
                            {
                                "name": "tokenId",
                                "type": "uint256",
                                "value": "151,922"
                            },
                            {
                                "name": "root",
                                "type": "bytes32",
                                "value": "0x0000000000000000000000000000000000000000000000000000000000000000"
                            },
                            {
                                "name": "proof",
                                "type": "bytes32[]",
                                "value": []
                            }
                        ],
                        "constructorArguments": "",
                        "name": "matchERC721UsingCriteria",
                        "returnParams": [
                            {
                                "name": "",
                                "type": "bool",
                                "value": true
                            }
                        ],
                        "signature": "matchERC721UsingCriteria(address,address,address,uint256,bytes32,bytes32[])"
                    },
                    "errorInfo": "",
                    "fromAddress": "0xed02958794d24efe4e9b7535e547568892188918",
                    "gasUsed": 50965,
                    "id": 10,
                    "methodDecoded": true,
                    "operation": "DELEGATECALL",
                    "output": "0x0000000000000000000000000000000000000000000000000000000000000001",
                    "revert": false,
                    "revertMessage": "",
                    "selector": "0xfb16a595",
                    "status": true,
                    "value": "0"
                },
                "nodeType": 0
            },
            "11": {
                "invocation": {
                    "address": "0x5cc5b05a8a13e3fbdb0bb9fccd98d38e50f90c38",
                    "callData": "0x00000000000000000000000008490bab11b0aa5b29d83a42d75a68e762496492000000000000000000000000ddfc10739d7957b9885d5b2d8c6f37d9211a12e90000000000000000000000000000000000000000000000000000000000025172",
                    "decodedMethod": {
                        "callParams": [
                            {
                                "name": "from",
                                "type": "address",
                                "value": "0x08490bab11b0aa5b29d83a42d75a68e762496492"
                            },
                            {
                                "name": "to",
                                "type": "address",
                                "value": "0xddfc10739d7957b9885d5b2d8c6f37d9211a12e9"
                            },
                            {
                                "decimalAvailable": true,
                                "name": "id",
                                "type": "uint256",
                                "value": "151,922"
                            }
                        ],
                        "constructorArguments": "",
                        "name": "transferFrom",
                        "returnParams": [],
                        "signature": "transferFrom(address,address,uint256)"
                    },
                    "errorInfo": "",
                    "fromAddress": "0xed02958794d24efe4e9b7535e547568892188918",
                    "gasUsed": 47123,
                    "id": 11,
                    "methodDecoded": true,
                    "operation": "CALL",
                    "output": "",
                    "revert": false,
                    "revertMessage": "",
                    "selector": "0x23b872dd",
                    "status": true,
                    "value": "0"
                },
                "nodeType": 0
            },
            "12": {
                "invocation": {
                    "address": "0xf859e17efbcdf60ee9b951198aecd03b1cdd231c",
                    "callData": "0x00000000000000000000000008490bab11b0aa5b29d83a42d75a68e762496492000000000000000000000000ddfc10739d7957b9885d5b2d8c6f37d9211a12e90000000000000000000000000000000000000000000000000000000000025172",
                    "decodedMethod": {
                        "callParams": [
                            {
                                "name": "from",
                                "type": "address",
                                "value": "0x08490bab11b0aa5b29d83a42d75a68e762496492"
                            },
                            {
                                "name": "to",
                                "type": "address",
                                "value": "0xddfc10739d7957b9885d5b2d8c6f37d9211a12e9"
                            },
                            {
                                "decimalAvailable": true,
                                "name": "id",
                                "type": "uint256",
                                "value": "151,922"
                            }
                        ],
                        "constructorArguments": "",
                        "name": "transferFrom",
                        "returnParams": [],
                        "signature": "transferFrom(address,address,uint256)"
                    },
                    "errorInfo": "",
                    "fromAddress": "0x5cc5b05a8a13e3fbdb0bb9fccd98d38e50f90c38",
                    "gasUsed": 39941,
                    "id": 12,
                    "methodDecoded": true,
                    "operation": "DELEGATECALL",
                    "output": "",
                    "revert": false,
                    "revertMessage": "",
                    "selector": "0x23b872dd",
                    "status": true,
                    "value": "0"
                },
                "nodeType": 0
            },
            "13": {
                "event": {
                    "contract": "0x5cc5b05a8a13e3fbdb0bb9fccd98d38e50f90c38",
                    "decodedLog": {
                        "name": "Transfer",
                        "params": [
                            {
                                "name": "from",
                                "type": "address",
                                "value": "0x08490bab11b0aa5b29d83a42d75a68e762496492"
                            },
                            {
                                "name": "to",
                                "type": "address",
                                "value": "0xddfc10739d7957b9885d5b2d8c6f37d9211a12e9"
                            },
                            {
                                "decimalAvailable": true,
                                "name": "tokenId",
                                "type": "uint256",
                                "value": "151,922"
                            }
                        ],
                        "signature": "Transfer(address,address,uint256)"
                    },
                    "id": 13,
                    "logData": "0x",
                    "logDecoded": true,
                    "operation": "EVENT",
                    "revert": false,
                    "status": true,
                    "topics": [
                        "0xddf252ad1be2c89b69c2b068fc378daa952ba7f163c4a11628f55a4df523b3ef",
                        "0x00000000000000000000000008490bab11b0aa5b29d83a42d75a68e762496492",
                        "0x000000000000000000000000ddfc10739d7957b9885d5b2d8c6f37d9211a12e9",
                        "0x0000000000000000000000000000000000000000000000000000000000025172"
                    ]
                },
                "nodeType": 1
            },
            "14": {
                "event": {
                    "contract": "0x7f268357a8c2552623316e2562d90e642bb538e5",
                    "decodedLog": {
                        "name": "OrdersMatched",
                        "params": [
                            {
                                "name": "maker",
                                "type": "address",
                                "value": "0x08490bab11b0aa5b29d83a42d75a68e762496492"
                            },
                            {
                                "name": "taker",
                                "type": "address",
                                "value": "0xddfc10739d7957b9885d5b2d8c6f37d9211a12e9"
                            },
                            {
                                "name": "metadata",
                                "type": "bytes32",
                                "value": "0x0000000000000000000000000000000000000000000000000000000000000000"
                            },
                            {
                                "name": "buyHash",
                                "type": "bytes32",
                                "value": "0x0000000000000000000000000000000000000000000000000000000000000000"
                            },
                            {
                                "name": "sellHash",
                                "type": "bytes32",
                                "value": "0x7c3b30e15be3c7460836b52b5fa66384e64df3698386515722eaf9a0398e9051"
                            },
                            {
                                "name": "price",
                                "type": "uint256",
                                "value": "1,600,000,000,000,000,000"
                            }
                        ],
                        "signature": "OrdersMatched(bytes32,bytes32,address,address,uint256,bytes32)"
                    },
                    "id": 14,
                    "logData": "0x00000000000000000000000000000000000000000000000000000000000000007c3b30e15be3c7460836b52b5fa66384e64df3698386515722eaf9a0398e905100000000000000000000000000000000000000000000000016345785d8a00000",
                    "logDecoded": true,
                    "operation": "EVENT",
                    "revert": false,
                    "status": true,
                    "topics": [
                        "0xc4109843e0b7d514e4c093114b863f8e7d8d9a458c372cd51bfe526b588006c9",
                        "0x00000000000000000000000008490bab11b0aa5b29d83a42d75a68e762496492",
                        "0x000000000000000000000000ddfc10739d7957b9885d5b2d8c6f37d9211a12e9",
                        "0x0000000000000000000000000000000000000000000000000000000000000000"
                    ]
                },
                "nodeType": 1
            },
            "2": {
                "invocation": {
                    "address": "0xa5409ec958c83c3f309868babaca7c86dcb077c1",
                    "callData": "0x00000000000000000000000008490bab11b0aa5b29d83a42d75a68e762496492",
                    "decodedMethod": {
                        "callParams": [
                            {
                                "name": "",
                                "type": "address",
                                "value": "0x08490bab11b0aa5b29d83a42d75a68e762496492"
                            }
                        ],
                        "constructorArguments": "",
                        "name": "proxies",
                        "returnParams": [
                            {
                                "name": "",
                                "type": "address",
                                "value": "0xed02958794d24efe4e9b7535e547568892188918"
                            }
                        ],
                        "signature": "proxies(address)"
                    },
                    "errorInfo": "",
                    "fromAddress": "0x7f268357a8c2552623316e2562d90e642bb538e5",
                    "gasUsed": 2782,
                    "id": 2,
                    "methodDecoded": true,
                    "operation": "CALL",
                    "output": "0x000000000000000000000000ed02958794d24efe4e9b7535e547568892188918",
                    "revert": false,
                    "revertMessage": "",
                    "selector": "0xc4552791",
                    "status": true,
                    "value": "0"
                },
                "nodeType": 0
            },
            "3": {
                "invocation": {
                    "address": "0x5b3256965e7c3cf26e11fcaf296dfc8807c01073",
                    "callData": "0x",
                    "decodedMethod": null,
                    "errorInfo": "",
                    "fromAddress": "0x7f268357a8c2552623316e2562d90e642bb538e5",
                    "gasUsed": 0,
                    "id": 3,
                    "methodDecoded": false,
                    "operation": "CALL",
                    "output": "",
                    "revert": false,
                    "revertMessage": "",
                    "selector": "fallback",
                    "status": true,
                    "value": "0.12"
                },
                "nodeType": 0
            },
            "4": {
                "invocation": {
                    "address": "0x08490bab11b0aa5b29d83a42d75a68e762496492",
                    "callData": "0x",
                    "decodedMethod": null,
                    "errorInfo": "",
                    "fromAddress": "0x7f268357a8c2552623316e2562d90e642bb538e5",
                    "gasUsed": 0,
                    "id": 4,
                    "methodDecoded": false,
                    "operation": "CALL",
                    "output": "",
                    "revert": false,
                    "revertMessage": "",
                    "selector": "fallback",
                    "status": true,
                    "value": "1.48"
                },
                "nodeType": 0
            },
            "5": {
                "invocation": {
                    "address": "0xa5409ec958c83c3f309868babaca7c86dcb077c1",
                    "callData": "0x",
                    "decodedMethod": {
                        "callParams": [],
                        "constructorArguments": "",
                        "name": "delegateProxyImplementation",
                        "returnParams": [
                            {
                                "name": "",
                                "type": "address",
                                "value": "0xf9e266af4bca5890e2781812cc6a6e89495a79f2"
                            }
                        ],
                        "signature": "delegateProxyImplementation()"
                    },
                    "errorInfo": "",
                    "fromAddress": "0x7f268357a8c2552623316e2562d90e642bb538e5",
                    "gasUsed": 2613,
                    "id": 5,
                    "methodDecoded": true,
                    "operation": "CALL",
                    "output": "0x000000000000000000000000f9e266af4bca5890e2781812cc6a6e89495a79f2",
                    "revert": false,
                    "revertMessage": "",
                    "selector": "0x97204d8e",
                    "status": true,
                    "value": "0"
                },
                "nodeType": 0
            },
            "6": {
                "invocation": {
                    "address": "0xed02958794d24efe4e9b7535e547568892188918",
                    "callData": "0x",
                    "decodedMethod": {
                        "callParams": [],
                        "constructorArguments": "",
                        "name": "implementation",
                        "returnParams": [
                            {
                                "name": "",
                                "type": "address",
                                "value": "0xf9e266af4bca5890e2781812cc6a6e89495a79f2"
                            }
                        ],
                        "signature": "implementation()"
                    },
                    "errorInfo": "",
                    "fromAddress": "0x7f268357a8c2552623316e2562d90e642bb538e5",
                    "gasUsed": 2525,
                    "id": 6,
                    "methodDecoded": true,
                    "operation": "CALL",
                    "output": "0x000000000000000000000000f9e266af4bca5890e2781812cc6a6e89495a79f2",
                    "revert": false,
                    "revertMessage": "",
                    "selector": "0x5c60da1b",
                    "status": true,
                    "value": "0"
                },
                "nodeType": 0
            },
            "7": {
                "invocation": {
                    "address": "0xed02958794d24efe4e9b7535e547568892188918",
                    "callData": "0x000000000000000000000000baf2127b49fc93cbca6269fade0f7f31df4c88a70000000000000000000000000000000000000000000000000000000000000001000000000000000000000000000000000000000000000000000000000000006000000000000000000000000000000000000000000000000000000000000000e4fb16a59500000000000000000000000008490bab11b0aa5b29d83a42d75a68e762496492000000000000000000000000ddfc10739d7957b9885d5b2d8c6f37d9211a12e90000000000000000000000005cc5b05a8a13e3fbdb0bb9fccd98d38e50f90c380000000000000000000000000000000000000000000000000000000000025172000000000000000000000000000000000000000000000000000000000000000000000000000000000000000000000000000000000000000000000000000000c0000000000000000000000000000000000000000000000000000000000000000000000000000000000000000000000000000000000000000000000000",
                    "decodedMethod": {
                        "callParams": [
                            {
                                "name": "dest",
                                "type": "address",
                                "value": "0xbaf2127b49fc93cbca6269fade0f7f31df4c88a7"
                            },
                            {
                                "name": "howToCall",
                                "type": "uint8",
                                "value": "1"
                            },
                            {
                                "name": "calldata",
                                "type": "bytes",
                                "value": "0xfb16a59500000000000000000000000008490bab11b0aa5b29d83a42d75a68e762496492000000000000000000000000ddfc10739d7957b9885d5b2d8c6f37d9211a12e90000000000000000000000005cc5b05a8a13e3fbdb0bb9fccd98d38e50f90c380000000000000000000000000000000000000000000000000000000000025172000000000000000000000000000000000000000000000000000000000000000000000000000000000000000000000000000000000000000000000000000000c00000000000000000000000000000000000000000000000000000000000000000"
                            }
                        ],
                        "constructorArguments": "",
                        "name": "proxy",
                        "returnParams": [
                            {
                                "name": "result",
                                "type": "bool",
                                "value": true
                            }
                        ],
                        "signature": "proxy(address,uint8,bytes)"
                    },
                    "errorInfo": "",
                    "fromAddress": "0x7f268357a8c2552623316e2562d90e642bb538e5",
                    "gasUsed": 63485,
                    "id": 7,
                    "methodDecoded": true,
                    "operation": "CALL",
                    "output": "0x0000000000000000000000000000000000000000000000000000000000000001",
                    "revert": false,
                    "revertMessage": "",
                    "selector": "0x1b0f7ba9",
                    "status": true,
                    "value": "0"
                },
                "nodeType": 0
            },
            "8": {
                "invocation": {
                    "address": "0xf9e266af4bca5890e2781812cc6a6e89495a79f2",
                    "callData": "0x000000000000000000000000baf2127b49fc93cbca6269fade0f7f31df4c88a70000000000000000000000000000000000000000000000000000000000000001000000000000000000000000000000000000000000000000000000000000006000000000000000000000000000000000000000000000000000000000000000e4fb16a59500000000000000000000000008490bab11b0aa5b29d83a42d75a68e762496492000000000000000000000000ddfc10739d7957b9885d5b2d8c6f37d9211a12e90000000000000000000000005cc5b05a8a13e3fbdb0bb9fccd98d38e50f90c380000000000000000000000000000000000000000000000000000000000025172000000000000000000000000000000000000000000000000000000000000000000000000000000000000000000000000000000000000000000000000000000c0000000000000000000000000000000000000000000000000000000000000000000000000000000000000000000000000000000000000000000000000",
                    "decodedMethod": {
                        "callParams": [
                            {
                                "name": "dest",
                                "type": "address",
                                "value": "0xbaf2127b49fc93cbca6269fade0f7f31df4c88a7"
                            },
                            {
                                "name": "howToCall",
                                "type": "uint8",
                                "value": "1"
                            },
                            {
                                "name": "calldata",
                                "type": "bytes",
                                "value": "0xfb16a59500000000000000000000000008490bab11b0aa5b29d83a42d75a68e762496492000000000000000000000000ddfc10739d7957b9885d5b2d8c6f37d9211a12e90000000000000000000000005cc5b05a8a13e3fbdb0bb9fccd98d38e50f90c380000000000000000000000000000000000000000000000000000000000025172000000000000000000000000000000000000000000000000000000000000000000000000000000000000000000000000000000000000000000000000000000c00000000000000000000000000000000000000000000000000000000000000000"
                            }
                        ],
                        "constructorArguments": "",
                        "name": "proxy",
                        "returnParams": [
                            {
                                "name": "result",
                                "type": "bool",
                                "value": true
                            }
                        ],
                        "signature": "proxy(address,uint8,bytes)"
                    },
                    "errorInfo": "",
                    "fromAddress": "0xed02958794d24efe4e9b7535e547568892188918",
                    "gasUsed": 60201,
                    "id": 8,
                    "methodDecoded": true,
                    "operation": "DELEGATECALL",
                    "output": "0x0000000000000000000000000000000000000000000000000000000000000001",
                    "revert": false,
                    "revertMessage": "",
                    "selector": "0x1b0f7ba9",
                    "status": true,
                    "value": "0"
                },
                "nodeType": 0
            },
            "9": {
                "invocation": {
                    "address": "0xa5409ec958c83c3f309868babaca7c86dcb077c1",
                    "callData": "0x0000000000000000000000007f268357a8c2552623316e2562d90e642bb538e5",
                    "decodedMethod": {
                        "callParams": [
                            {
                                "name": "",
                                "type": "address",
                                "value": "0x7f268357a8c2552623316e2562d90e642bb538e5"
                            }
                        ],
                        "constructorArguments": "",
                        "name": "contracts",
                        "returnParams": [
                            {
                                "name": "",
                                "type": "bool",
                                "value": true
                            }
                        ],
                        "signature": "contracts(address)"
                    },
                    "errorInfo": "",
                    "fromAddress": "0xed02958794d24efe4e9b7535e547568892188918",
                    "gasUsed": 2553,
                    "id": 9,
                    "methodDecoded": true,
                    "operation": "CALL",
                    "output": "0x0000000000000000000000000000000000000000000000000000000000000001",
                    "revert": false,
                    "revertMessage": "",
                    "selector": "0x69dc9ff3",
                    "status": true,
                    "value": "0"
                },
                "nodeType": 0
            }
        },
        "gasFlame": [
            {
                "children": [
                    {
                        "children": [
                            {
                                "children": [],
                                "depth": 0,
                                "name": "Initial Gas",
                                "value": 39328
                            },
                            {
                                "children": [
                                    {
                                        "children": [],
                                        "depth": 1,
                                        "name": "ecrecover",
                                        "value": 3000
                                    },
                                    {
                                        "children": [],
                                        "depth": 1,
                                        "name": "proxies",
                                        "value": 2782
                                    },
                                    {
                                        "children": [],
                                        "depth": 1,
                                        "name": "fallback",
                                        "value": 0
                                    },
                                    {
                                        "children": [],
                                        "depth": 1,
                                        "name": "fallback",
                                        "value": 0
                                    },
                                    {
                                        "children": [],
                                        "depth": 1,
                                        "name": "delegateProxyImplementation",
                                        "value": 2613
                                    },
                                    {
                                        "children": [],
                                        "depth": 1,
                                        "name": "implementation",
                                        "value": 2525
                                    },
                                    {
                                        "children": [
                                            {
                                                "children": [
                                                    {
                                                        "children": [],
                                                        "depth": 3,
                                                        "name": "contracts",
                                                        "value": 2553
                                                    },
                                                    {
                                                        "children": [
                                                            {
                                                                "children": [
                                                                    {
                                                                        "children": [],
                                                                        "depth": 5,
                                                                        "name": "transferFrom",
                                                                        "value": 39941
                                                                    }
                                                                ],
                                                                "depth": 4,
                                                                "name": "transferFrom",
                                                                "value": 47123
                                                            }
                                                        ],
                                                        "depth": 3,
                                                        "name": "matchERC721UsingCriteria",
                                                        "value": 50965
                                                    }
                                                ],
                                                "depth": 2,
                                                "name": "proxy",
                                                "value": 60201
                                            }
                                        ],
                                        "depth": 1,
                                        "name": "proxy",
                                        "value": 63485
                                    }
                                ],
                                "depth": 0,
                                "name": "Executed Gas",
                                "value": 174708
                            }
                        ],
                        "depth": -1,
                        "name": "Actual Gas Used",
                        "value": 206436
                    },
                    {
                        "children": [],
                        "depth": -1,
                        "name": "Refunded Gas",
                        "value": 7600
                    }
                ],
                "depth": -2,
                "name": "Total Gas",
                "value": 214036
            }
        ],
        "isConfirmed": true,
        "mainTrace": [
            {
                "children": [
                    {
                        "children": [
                            {
                                "children": [],
                                "depth": 1,
                                "id": 1,
                                "order": 1
                            },
                            {
                                "children": [],
                                "depth": 1,
                                "id": 2,
                                "order": 2
                            },
                            {
                                "children": [],
                                "depth": 1,
                                "id": 3,
                                "order": 3
                            },
                            {
                                "children": [],
                                "depth": 1,
                                "id": 4,
                                "order": 4
                            },
                            {
                                "children": [],
                                "depth": 1,
                                "id": 5,
                                "order": 5
                            },
                            {
                                "children": [],
                                "depth": 1,
                                "id": 6,
                                "order": 6
                            },
                            {
                                "children": [
                                    {
                                        "children": [
                                            {
                                                "children": [],
                                                "depth": 3,
                                                "id": 9,
                                                "order": 9
                                            },
                                            {
                                                "children": [
                                                    {
                                                        "children": [
                                                            {
                                                                "children": [
                                                                    {
                                                                        "children": [],
                                                                        "depth": 6,
                                                                        "id": 13,
                                                                        "order": 13
                                                                    }
                                                                ],
                                                                "depth": 5,
                                                                "id": 12,
                                                                "order": 12
                                                            }
                                                        ],
                                                        "depth": 4,
                                                        "id": 11,
                                                        "order": 11
                                                    }
                                                ],
                                                "depth": 3,
                                                "id": 10,
                                                "order": 10
                                            }
                                        ],
                                        "depth": 2,
                                        "id": 8,
                                        "order": 8
                                    }
                                ],
                                "depth": 1,
                                "id": 7,
                                "order": 7
                            },
                            {
                                "children": [],
                                "depth": 1,
                                "id": 14,
                                "order": 14
                            }
                        ],
                        "depth": 0,
                        "id": 0,
                        "order": 0
                    }
                ],
                "depth": -1,
                "id": -1,
                "order": -1
            }
        ],
        "mainTraceNodeCount": 15,
        "parentIdMap": {
            "0": -1,
            "1": 0,
            "10": 8,
            "11": 10,
            "12": 11,
            "13": 12,
            "14": 0,
            "2": 0,
            "3": 0,
            "4": 0,
            "5": 0,
            "6": 0,
            "7": 0,
            "8": 7,
            "9": 8
        },
        "tidyTrace": [
            {
                "children": [
                    {
                        "children": [
                            {
                                "children": [],
                                "depth": 1,
                                "id": 1,
                                "order": 1
                            },
                            {
                                "children": [],
                                "depth": 1,
                                "id": 2,
                                "order": 2
                            },
                            {
                                "children": [],
                                "depth": 1,
                                "id": 3,
                                "order": 3
                            },
                            {
                                "children": [],
                                "depth": 1,
                                "id": 4,
                                "order": 4
                            },
                            {
                                "children": [],
                                "depth": 1,
                                "id": 5,
                                "order": 5
                            },
                            {
                                "children": [],
                                "depth": 1,
                                "id": 6,
                                "order": 6
                            },
                            {
                                "children": [
                                    {
                                        "children": [
                                            {
                                                "children": [],
                                                "depth": 3,
                                                "id": 9,
                                                "order": 9
                                            },
                                            {
                                                "children": [
                                                    {
                                                        "children": [
                                                            {
                                                                "children": [
                                                                    {
                                                                        "children": [],
                                                                        "depth": 6,
                                                                        "id": 13,
                                                                        "order": 13
                                                                    }
                                                                ],
                                                                "depth": 5,
                                                                "id": 12,
                                                                "order": 12
                                                            }
                                                        ],
                                                        "depth": 4,
                                                        "id": 11,
                                                        "order": 11
                                                    }
                                                ],
                                                "depth": 3,
                                                "id": 10,
                                                "order": 10
                                            }
                                        ],
                                        "depth": 2,
                                        "id": 8,
                                        "order": 8
                                    }
                                ],
                                "depth": 1,
                                "id": 7,
                                "order": 7
                            },
                            {
                                "children": [],
                                "depth": 1,
                                "id": 14,
                                "order": 14
                            }
                        ],
                        "depth": 0,
                        "id": 0,
                        "order": 0
                    }
                ],
                "depth": -1,
                "id": -1,
                "order": -1
            }
        ],
        "tidyTraceNodeCount": 15
    },
    "state_change": {
        "stateChanges": [
            {
                "address": "0x5cc5b05a8a13e3fbdb0bb9fccd98d38e50f90c38",
                "erc": "ERC-721",
                "slots": [
                    {
                        "current": "0x000000000000000000000000ddfc10739d7957b9885d5b2d8c6f37d9211a12e9",
                        "key": "0xadde92719bdc6ae88ded304b73bf48598b8de79c61cae2d5fc57edfd95e87968",
                        "prev": "0x00000000000000000000000008490bab11b0aa5b29d83a42d75a68e762496492"
                    },
                    {
                        "current": "0x0000000000000000000000000000000000000000000000000000000000000000",
                        "key": "0x83ca90d8eb1207f69ce9d9d98c82feac3abf0bfbc6192051e6c8a74d92fe2be3",
                        "prev": "0x0000000000000000000000000000000000000000000000000000000000000001"
                    },
                    {
                        "current": "0x0000000000000000000000000000000000000000000000000000000000000001",
                        "key": "0x53b4c348148ad2ee232c32c990130823fcdab9f8c574d28d890384ab179f98f1",
                        "prev": "0x0000000000000000000000000000000000000000000000000000000000000000"
                    }
                ],
                "storageVariables": [
                    {
                        "name": "_owners",
                        "type": "mapping(uint256 => uint256)",
                        "value": {
                            "pairs": [
                                {
                                    "key": "151922",
                                    "value": {
                                        "current": "1267308181280464198486224353304212102182025695977",
                                        "prev": "47300897013027619934179021150223306702518314130",
                                        "typeTag": 1
                                    }
                                }
                            ],
                            "typeTag": 4
                        }
                    },
                    {
                        "name": "_numNFTPerAddress",
                        "type": "mapping(address => uint256)",
                        "value": {
                            "pairs": [
                                {
                                    "key": "0x08490bab11b0aa5b29d83a42d75a68e762496492",
                                    "value": {
                                        "current": "0",
                                        "prev": "1",
                                        "typeTag": 1
                                    }
                                },
                                {
                                    "key": "0xddfc10739d7957b9885d5b2d8c6f37d9211a12e9",
                                    "value": {
                                        "current": "1",
                                        "prev": "0",
                                        "typeTag": 1
                                    }
                                }
                            ],
                            "typeTag": 4
                        }
                    }
                ]
            },
            {
                "address": "0x7f268357a8c2552623316e2562d90e642bb538e5",
                "erc": "",
                "slots": [
                    {
                        "current": "0x0000000000000000000000000000000000000000000000000000000000000001",
                        "key": "0xafe54247bc57665a16df5ad77eb0f4b4797bbd19b0493f91069c2a71c736a2d3",
                        "prev": "0x0000000000000000000000000000000000000000000000000000000000000000"
                    }
                ],
                "storageVariables": [
                    {
                        "name": "cancelledOrFinalized",
                        "type": "mapping(bytes32 => bool)",
                        "value": {
                            "pairs": [
                                {
                                    "key": "0x7c3b30e15be3c7460836b52b5fa66384e64df3698386515722eaf9a0398e9051",
                                    "value": {
                                        "current": "true",
                                        "prev": "false",
                                        "typeTag": 1
                                    }
                                }
                            ],
                            "typeTag": 4
                        }
                    }
                ]
            }
        ]
    }
}