{
    "balance_change": {
        "balanceChanges": [
            {
                "account": "0x324151fd0be17516708ad9e9156dbd0409d6861c",
                "assets": [
                    {
                        "address": "0x4f56221252d117f35e2f6ab937a3f77cad38934d",
                        "amount": "2,628.842067659534659897",
                        "iconUrl": "",
                        "isERC1155": false,
                        "isERC721": false,
                        "sign": false,
                        "value": ""
                    },
                    {
                        "address": "0xeeeeeeeeeeeeeeeeeeeeeeeeeeeeeeeeeeeeeeee",
                        "amount": "0.177401451857428477",
                        "iconUrl": "https://assets.blocksec.com/image/1663669189317-3.png",
                        "isERC1155": false,
                        "isERC721": false,
                        "sign": true,
                        "value": ""
                    }
                ]
            },
            {
                "account": "0xc02aaa39b223fe8d0a0e5c4f27ead9083c756cc2",
                "assets": [
                    {
                        "address": "0xeeeeeeeeeeeeeeeeeeeeeeeeeeeeeeeeeeeeeeee",
                        "amount": "0.177401451857428477",
                        "iconUrl": "https://assets.blocksec.com/image/1663669189317-3.png",
                        "isERC1155": false,
                        "isERC721": false,
                        "sign": false,
                        "value": ""
                    },
                    {
                        "address": "0xc02aaa39b223fe8d0a0e5c4f27ead9083c756cc2",
                        "amount": "0.177401451857428477",
                        "iconUrl": "https://assets.blocksec.com/icon/f1cb2d02c471d545bbc7722daf3277fd852d98e63d118771af7047bd8256c516.png",
                        "isERC1155": false,
                        "isERC721": false,
                        "sign": true,
                        "value": ""
                    }
                ]
            },
            {
                "account": "0xe644ae0d7640ed2838e97a3a0689e9bf50627eab",
                "assets": [
                    {
                        "address": "0x4f56221252d117f35e2f6ab937a3f77cad38934d",
                        "amount": "2,628.842067659534659897",
                        "iconUrl": "",
                        "isERC1155": false,
                        "isERC721": false,
                        "sign": true,
                        "value": ""
                    },
                    {
                        "address": "0xc02aaa39b223fe8d0a0e5c4f27ead9083c756cc2",
                        "amount": "0.177401451857428477",
                        "iconUrl": "https://assets.blocksec.com/icon/f1cb2d02c471d545bbc7722daf3277fd852d98e63d118771af7047bd8256c516.png",
                        "isERC1155": false,
                        "isERC721": false,
                        "sign": false,
                        "value": ""
                    }
                ]
            }
        ]
    },
    "profile": {
        "basic_info": {
            "baseFee": "",
            "blockNumber": 10344201,
            "callData": "0x18cbafe500000000000000000000000000000000000000000000008e82832c5589f8713900000000000000000000000000000000000000000000000002731ef73997b61e00000000000000000000000000000000000000000000000000000000000000a0000000000000000000000000324151fd0be17516708ad9e9156dbd0409d6861c000000000000000000000000000000000000000000000000000000005ef67ffb00000000000000000000000000000000000000000000000000000000000000020000000000000000000000004f56221252d117f35e2f6ab937a3f77cad38934d000000000000000000000000c02aaa39b223fe8d0a0e5c4f27ead9083c756cc2",
            "debugEnable": true,
            "errorInfo": "",
            "eventCount": 6,
            "feeRecipient": "0x04668ec2f57cc15c381b461b9fedab5d451c8f7f",
            "formatValue": "0",
            "gasLimit": 168329,
            "gasPrice": "24",
            "gasUsed": 112745,
            "intTxnCount": 9,
            "internalRevert": false,
            "internalRevertMessage": "",
            "isContractCreation": false,
            "isFlashloan": false,
            "maxFee": "",
            "nonce": 23,
            "overwritedBlockNumber": -1,
            "priorityFee": "",
            "receiver": "0x7a250d5630b4cf539739df2c5dacb4c659f2488d",
            "revertMessage": "",
            "sender": "0x324151fd0be17516708ad9e9156dbd0409d6861c",
            "simulationEnable": true,
            "sourceTxnHash": "0x62bf40e60fe1a5c02603377903d7b890118ad5d3d70ba6542420df2944909b69",
            "status": true,
            "timestamp": "2020-06-26T22:49:31Z",
            "transactionFee": "0.00270588",
            "txnHash": "0x62bf40e60fe1a5c02603377903d7b890118ad5d3d70ba6542420df2944909b69",
            "txnIndex": 115,
            "type": 0,
            "value": "0"
        },
        "fund_flow": [
            {
                "amount": "2,628.842067659534659897",
                "from": "0x324151fd0be17516708ad9e9156dbd0409d6861c",
                "id": 1,
                "isERC1155": false,
                "isERC721": false,
                "isReverted": false,
                "order": 1,
                "to": "0xe644ae0d7640ed2838e97a3a0689e9bf50627eab",
                "token": "0x4f56221252d117f35e2f6ab937a3f77cad38934d"
            },
            {
                "amount": "0.177401451857428477",
                "from": "0xe644ae0d7640ed2838e97a3a0689e9bf50627eab",
                "id": 2,
                "isERC1155": false,
                "isERC721": false,
                "isReverted": false,
                "order": 2,
                "to": "0x7a250d5630b4cf539739df2c5dacb4c659f2488d",
                "token": "0xc02aaa39b223fe8d0a0e5c4f27ead9083c756cc2"
            },
            {
                "amount": "0.177401451857428477",
                "from": "0xc02aaa39b223fe8d0a0e5c4f27ead9083c756cc2",
                "id": 3,
                "isERC1155": false,
                "isERC721": false,
                "isReverted": false,
                "order": 3,
                "to": "0x7a250d5630b4cf539739df2c5dacb4c659f2488d",
                "token": "0xeeeeeeeeeeeeeeeeeeeeeeeeeeeeeeeeeeeeeeee"
            },
            {
                "amount": "0.177401451857428477",
                "from": "0x7a250d5630b4cf539739df2c5dacb4c659f2488d",
                "id": 4,
                "isERC1155": false,
                "isERC721": false,
                "isReverted": false,
                "order": 4,
                "to": "0xc02aaa39b223fe8d0a0e5c4f27ead9083c756cc2",
                "token": "0xc02aaa39b223fe8d0a0e5c4f27ead9083c756cc2"
            },
            {
                "amount": "0.177401451857428477",
                "from": "0x7a250d5630b4cf539739df2c5dacb4c659f2488d",
                "id": 5,
                "isERC1155": false,
                "isERC721": false,
                "isReverted": false,
                "order": 5,
                "to": "0x324151fd0be17516708ad9e9156dbd0409d6861c",
                "token": "0xeeeeeeeeeeeeeeeeeeeeeeeeeeeeeeeeeeeeeeee"
            }
        ],
        "token_infos": [
            {
                "address": "0xc02aaa39b223fe8d0a0e5c4f27ead9083c756cc2",
                "decimals": 18
            },
            {
                "address": "0xeeeeeeeeeeeeeeeeeeeeeeeeeeeeeeeeeeeeeeee",
                "decimals": 18
            },
            {
                "address": "0x4f56221252d117f35e2f6ab937a3f77cad38934d",
                "decimals": 18
            }
        ]
    },
    "address_label": {
        "labels": [
            {
                "address": "0x0000000000000000000000000000000000000001",
                "label": "Precompiled"
            },
            {
                "address": "0x0000000000000000000000000000000000000002",
                "label": "Precompiled"
            },
            {
                "address": "0x0000000000000000000000000000000000000003",
                "label": "Precompiled"
            },
            {
                "address": "0xc02aaa39b223fe8d0a0e5c4f27ead9083c756cc2",
                "label": "Wrapped Ether (WETH)"
            },
            {
                "address": "0x7a250d5630b4cf539739df2c5dacb4c659f2488d",
                "label": "Uniswap V2: Router 2"
            },
            {
                "address": "0x4f56221252d117f35e2f6ab937a3f77cad38934d",
                "label": "CryptoCricketClub: 3Cs"
            },
            {
                "address": "0xe644ae0d7640ed2838e97a3a0689e9bf50627eab",
                "label": "Uniswap V2: 3Cs"
            },
            {
                "address": "0x0000000000000000000000000000000000000004",
                "label": "Precompiled"
            },
            {
                "address": "0xeeeeeeeeeeeeeeeeeeeeeeeeeeeeeeeeeeeeeeee",
                "label": "Ether"
            }
        ]
    },
    "trace": {
        "accountLabels": null,
        "dataMap": {
            "-1": {
                "invocation": {
                    "address": "0x324151fd0be17516708ad9e9156dbd0409d6861c",
                    "callData": "",
                    "decodedMethod": null,
                    "errorInfo": "",
                    "fromAddress": "",
                    "gasUsed": 0,
                    "id": -1,
                    "methodDecoded": false,
                    "operation": "",
                    "output": "",
                    "revert": false,
                    "revertMessage": "",
                    "selector": "",
                    "status": false,
                    "value": ""
                },
                "nodeType": 0
            },
            "0": {
                "invocation": {
                    "address": "0x7a250d5630b4cf539739df2c5dacb4c659f2488d",
                    "callData": "0x00000000000000000000000000000000000000000000008e82832c5589f8713900000000000000000000000000000000000000000000000002731ef73997b61e00000000000000000000000000000000000000000000000000000000000000a0000000000000000000000000324151fd0be17516708ad9e9156dbd0409d6861c000000000000000000000000000000000000000000000000000000005ef67ffb00000000000000000000000000000000000000000000000000000000000000020000000000000000000000004f56221252d117f35e2f6ab937a3f77cad38934d000000000000000000000000c02aaa39b223fe8d0a0e5c4f27ead9083c756cc2",
                    "decodedMethod": {
                        "callParams": [
                            {
                                "name": "amountIn",
                                "type": "uint256",
                                "value": "2,628,842,067,659,534,659,897"
                            },
                            {
                                "name": "amountOutMin",
                                "type": "uint256",
                                "value": "176,518,857,569,580,574"
                            },
                            {
                                "name": "path",
                                "type": "address[]",
                                "value": [
                                    "0x4f56221252d117f35e2f6ab937a3f77cad38934d",
                                    "0xc02aaa39b223fe8d0a0e5c4f27ead9083c756cc2"
                                ]
                            },
                            {
                                "name": "to",
                                "type": "address",
                                "value": "0x324151fd0be17516708ad9e9156dbd0409d6861c"
                            },
                            {
                                "name": "deadline",
                                "type": "uint256",
                                "value": "1,593,212,923"
                            }
                        ],
                        "constructorArguments": "",
                        "name": "swapExactTokensForETH",
                        "returnParams": [
                            {
                                "name": "amounts",
                                "type": "uint256[]",
                                "value": [
                                    "2,628,842,067,659,534,659,897",
                                    "177,401,451,857,428,477"
                                ]
                            }
                        ],
                        "signature": "swapExactTokensForETH(uint256,uint256,address[],address,uint256)"
                    },
                    "errorInfo": "",
                    "fromAddress": "0x324151fd0be17516708ad9e9156dbd0409d6861c",
                    "gasUsed": 112745,
                    "id": 0,
                    "methodDecoded": true,
                    "operation": "CALL",
                    "output": "0x0000000000000000000000000000000000000000000000000000000000000020000000000000000000000000000000000000000000000000000000000000000200000000000000000000000000000000000000000000008e82832c5589f87139000000000000000000000000000000000000000000000000027641ae3899bffd",
                    "revert": false,
                    "revertMessage": "",
                    "selector": "0x18cbafe5",
                    "status": true,
                    "value": "0"
                },
                "nodeType": 0
            },
            "1": {
                "invocation": {
                    "address": "0xe644ae0d7640ed2838e97a3a0689e9bf50627eab",
                    "callData": "0x",
                    "decodedMethod": {
                        "callParams": [],
                        "constructorArguments": "",
                        "name": "getReserves",
                        "returnParams": [
                            {
                                "name": "_reserve0",
                                "type": "uint112",
                                "value": "319,695,679,509,824,433,469,227"
                            },
                            {
                                "name": "_reserve1",
                                "type": "uint112",
                                "value": "21,816,256,747,385,179,850"
                            },
                            {
                                "name": "_blockTimestampLast",
                                "type": "uint32",
                                "value": "1,593,211,639"
                            }
                        ],
                        "signature": "getReserves()"
                    },
                    "errorInfo": "",
                    "fromAddress": "0x7a250d5630b4cf539739df2c5dacb4c659f2488d",
                    "gasUsed": 1204,
                    "id": 1,
                    "methodDecoded": true,
                    "operation": "STATICCALL",
                    "output": "0x0000000000000000000000000000000000000000000043b2bccda5e1a49ab72b0000000000000000000000000000000000000000000000012ec2e9ec9c9cceca000000000000000000000000000000000000000000000000000000005ef67af7",
                    "revert": false,
                    "revertMessage": "",
                    "selector": "0x0902f1ac",
                    "status": true,
                    "value": "0"
                },
                "nodeType": 0
            },
            "10": {
                "event": {
                    "contract": "0xe644ae0d7640ed2838e97a3a0689e9bf50627eab",
                    "decodedLog": {
                        "name": "Sync",
                        "params": [
                            {
                                "name": "reserve0",
                                "type": "uint112",
                                "value": "322,324,521,577,483,968,129,124"
                            },
                            {
                                "name": "reserve1",
                                "type": "uint112",
                                "value": "21,638,855,295,527,751,373"
                            }
                        ],
                        "signature": "Sync(uint112,uint112)"
                    },
                    "id": 10,
                    "logData": "0x0000000000000000000000000000000000000000000044413f50d2372e9328640000000000000000000000000000000000000000000000012c4ca83e64030ecd",
                    "logDecoded": true,
                    "operation": "EVENT",
                    "revert": false,
                    "status": true,
                    "topics": [
                        "0x1c411e9a96e071241c2f21f7726b17ae89e3cab4c78be50e062b03a9fffbbad1"
                    ]
                },
                "nodeType": 1
            },
            "11": {
                "event": {
                    "contract": "0xe644ae0d7640ed2838e97a3a0689e9bf50627eab",
                    "decodedLog": {
                        "name": "Swap",
                        "params": [
                            {
                                "name": "sender",
                                "type": "address",
                                "value": "0x7a250d5630b4cf539739df2c5dacb4c659f2488d"
                            },
                            {
                                "name": "to",
                                "type": "address",
                                "value": "0x7a250d5630b4cf539739df2c5dacb4c659f2488d"
                            },
                            {
                                "name": "amount0In",
                                "type": "uint256",
                                "value": "2,628,842,067,659,534,659,897"
                            },
                            {
                                "name": "amount1In",
                                "type": "uint256",
                                "value": "0"
                            },
                            {
                                "name": "amount0Out",
                                "type": "uint256",
                                "value": "0"
                            },
                            {
                                "name": "amount1Out",
                                "type": "uint256",
                                "value": "177,401,451,857,428,477"
                            }
                        ],
                        "signature": "Swap(address,uint256,uint256,uint256,uint256,address)"
                    },
                    "id": 11,
                    "logData": "0x00000000000000000000000000000000000000000000008e82832c5589f8713900000000000000000000000000000000000000000000000000000000000000000000000000000000000000000000000000000000000000000000000000000000000000000000000000000000000000000000000000000000027641ae3899bffd",
                    "logDecoded": true,
                    "operation": "EVENT",
                    "revert": false,
                    "status": true,
                    "topics": [
                        "0xd78ad95fa46c994b6551d0da85fc275fe613ce37657fb8d5e3d130840159d822",
                        "0x0000000000000000000000007a250d5630b4cf539739df2c5dacb4c659f2488d",
                        "0x0000000000000000000000007a250d5630b4cf539739df2c5dacb4c659f2488d"
                    ]
                },
                "nodeType": 1
            },
            "12": {
                "invocation": {
                    "address": "0xc02aaa39b223fe8d0a0e5c4f27ead9083c756cc2",
                    "callData": "0x000000000000000000000000000000000000000000000000027641ae3899bffd",
                    "decodedMethod": {
                        "callParams": [
                            {
                                "name": "wad",
                                "type": "uint256",
                                "value": "177,401,451,857,428,477"
                            }
                        ],
                        "constructorArguments": "",
                        "name": "withdraw",
                        "returnParams": [],
                        "signature": "withdraw(uint256)"
                    },
                    "errorInfo": "",
                    "fromAddress": "0x7a250d5630b4cf539739df2c5dacb4c659f2488d",
                    "gasUsed": 11923,
                    "id": 12,
                    "methodDecoded": true,
                    "operation": "CALL",
                    "output": "",
                    "revert": false,
                    "revertMessage": "",
                    "selector": "0x2e1a7d4d",
                    "status": true,
                    "value": "0"
                },
                "nodeType": 0
            },
            "13": {
                "invocation": {
                    "address": "0x7a250d5630b4cf539739df2c5dacb4c659f2488d",
                    "callData": "0x",
                    "decodedMethod": null,
                    "errorInfo": "",
                    "fromAddress": "0xc02aaa39b223fe8d0a0e5c4f27ead9083c756cc2",
                    "gasUsed": 83,
                    "id": 13,
                    "methodDecoded": false,
                    "operation": "CALL",
                    "output": "",
                    "revert": false,
                    "revertMessage": "",
                    "selector": "fallback",
                    "status": true,
                    "value": "0.177401451857428477"
                },
                "nodeType": 0
            },
            "14": {
                "event": {
                    "contract": "0xc02aaa39b223fe8d0a0e5c4f27ead9083c756cc2",
                    "decodedLog": {
                        "name": "Withdrawal",
                        "params": [
                            {
                                "name": "src",
                                "type": "address",
                                "value": "0x7a250d5630b4cf539739df2c5dacb4c659f2488d"
                            },
                            {
                                "name": "wad",
                                "type": "uint256",
                                "value": "177,401,451,857,428,477"
                            }
                        ],
                        "signature": "Withdrawal(address,uint256)"
                    },
                    "id": 14,
                    "logData": "0x000000000000000000000000000000000000000000000000027641ae3899bffd",
                    "logDecoded": true,
                    "operation": "EVENT",
                    "revert": false,
                    "status": true,
                    "topics": [
                        "0x7fcf532c15f0a6db0bd6d0e038bea71d30d808c7d98cb3bf7268a95bf5081b65",
                        "0x0000000000000000000000007a250d5630b4cf539739df2c5dacb4c659f2488d"
                    ]
                },
                "nodeType": 1
            },
            "15": {
                "invocation": {
                    "address": "0x324151fd0be17516708ad9e9156dbd0409d6861c",
                    "callData": "0x",
                    "decodedMethod": null,
                    "errorInfo": "",
                    "fromAddress": "0x7a250d5630b4cf539739df2c5dacb4c659f2488d",
                    "gasUsed": 0,
                    "id": 15,
                    "methodDecoded": false,
                    "operation": "CALL",
                    "output": "",
                    "revert": false,
                    "revertMessage": "",
                    "selector": "fallback",
                    "status": true,
                    "value": "0.177401451857428477"
                },
                "nodeType": 0
            },
            "2": {
                "invocation": {
                    "address": "0x4f56221252d117f35e2f6ab937a3f77cad38934d",
                    "callData": "0x000000000000000000000000324151fd0be17516708ad9e9156dbd0409d6861c000000000000000000000000e644ae0d7640ed2838e97a3a0689e9bf50627eab00000000000000000000000000000000000000000000008e82832c5589f87139",
                    "decodedMethod": {
                        "callParams": [
                            {
                                "name": "sender",
                                "type": "address",
                                "value": "0x324151fd0be17516708ad9e9156dbd0409d6861c"
                            },
                            {
                                "name": "recipient",
                                "type": "address",
                                "value": "0xe644ae0d7640ed2838e97a3a0689e9bf50627eab"
                            },
                            {
                                "decimalAvailable": true,
                                "name": "amount",
                                "type": "uint256",
                                "value": "2,628,842,067,659,534,659,897"
                            }
                        ],
                        "constructorArguments": "",
                        "name": "transferFrom",
                        "returnParams": [
                            {
                                "name": "",
                                "type": "bool",
                                "value": true
                            }
                        ],
                        "signature": "transferFrom(address,address,uint256)"
                    },
                    "errorInfo": "",
                    "fromAddress": "0x7a250d5630b4cf539739df2c5dacb4c659f2488d",
                    "gasUsed": 22851,
                    "id": 2,
                    "methodDecoded": true,
                    "operation": "CALL",
                    "output": "0x0000000000000000000000000000000000000000000000000000000000000001",
                    "revert": false,
                    "revertMessage": "",
                    "selector": "0x23b872dd",
                    "status": true,
                    "value": "0"
                },
                "nodeType": 0
            },
            "3": {
                "event": {
                    "contract": "0x4f56221252d117f35e2f6ab937a3f77cad38934d",
                    "decodedLog": {
                        "name": "Transfer",
                        "params": [
                            {
                                "name": "from",
                                "type": "address",
                                "value": "0x324151fd0be17516708ad9e9156dbd0409d6861c"
                            },
                            {
                                "name": "to",
                                "type": "address",
                                "value": "0xe644ae0d7640ed2838e97a3a0689e9bf50627eab"
                            },
                            {
                                "decimalAvailable": true,
                                "name": "value",
                                "type": "uint256",
                                "value": "2,628,842,067,659,534,659,897"
                            }
                        ],
                        "signature": "Transfer(address,address,uint256)"
                    },
                    "id": 3,
                    "logData": "0x00000000000000000000000000000000000000000000008e82832c5589f87139",
                    "logDecoded": true,
                    "operation": "EVENT",
                    "revert": false,
                    "status": true,
                    "topics": [
                        "0xddf252ad1be2c89b69c2b068fc378daa952ba7f163c4a11628f55a4df523b3ef",
                        "0x000000000000000000000000324151fd0be17516708ad9e9156dbd0409d6861c",
                        "0x000000000000000000000000e644ae0d7640ed2838e97a3a0689e9bf50627eab"
                    ]
                },
                "nodeType": 1
            },
            "4": {
                "event": {
                    "contract": "0x4f56221252d117f35e2f6ab937a3f77cad38934d",
                    "decodedLog": {
                        "name": "Approval",
                        "params": [
                            {
                                "name": "owner",
                                "type": "address",
                                "value": "0x324151fd0be17516708ad9e9156dbd0409d6861c"
                            },
                            {
                                "name": "spender",
                                "type": "address",
                                "value": "0x7a250d5630b4cf539739df2c5dacb4c659f2488d"
                            },
                            {
                                "decimalAvailable": true,
                                "name": "value",
                                "type": "uint256",
                                "value": "115,792,089,237,316,195,423,570,985,008,687,907,853,269,984,665,640,564,036,828,741,940,253,594,980,038"
                            }
                        ],
                        "signature": "Approval(address,address,uint256)"
                    },
                    "id": 4,
                    "logData": "0xffffffffffffffffffffffffffffffffffffffffffffff717d7cd3aa76078ec6",
                    "logDecoded": true,
                    "operation": "EVENT",
                    "revert": false,
                    "status": true,
                    "topics": [
                        "0x8c5be1e5ebec7d5bd14f71427d1e84f3dd0314c0f7b2291e5b200ac8c7c3b925",
                        "0x000000000000000000000000324151fd0be17516708ad9e9156dbd0409d6861c",
                        "0x0000000000000000000000007a250d5630b4cf539739df2c5dacb4c659f2488d"
                    ]
                },
                "nodeType": 1
            },
            "5": {
                "invocation": {
                    "address": "0xe644ae0d7640ed2838e97a3a0689e9bf50627eab",
                    "callData": "0x0000000000000000000000000000000000000000000000000000000000000000000000000000000000000000000000000000000000000000027641ae3899bffd0000000000000000000000007a250d5630b4cf539739df2c5dacb4c659f2488d00000000000000000000000000000000000000000000000000000000000000800000000000000000000000000000000000000000000000000000000000000000",
                    "decodedMethod": {
                        "callParams": [
                            {
                                "name": "amount0Out",
                                "type": "uint256",
                                "value": "0"
                            },
                            {
                                "name": "amount1Out",
                                "type": "uint256",
                                "value": "177,401,451,857,428,477"
                            },
                            {
                                "name": "to",
                                "type": "address",
                                "value": "0x7a250d5630b4cf539739df2c5dacb4c659f2488d"
                            },
                            {
                                "name": "data",
                                "type": "bytes",
                                "value": "0x"
                            }
                        ],
                        "constructorArguments": "",
                        "name": "swap",
                        "returnParams": [],
                        "signature": "swap(uint256,uint256,address,bytes)"
                    },
                    "errorInfo": "",
                    "fromAddress": "0x7a250d5630b4cf539739df2c5dacb4c659f2488d",
                    "gasUsed": 71758,
                    "id": 5,
                    "methodDecoded": true,
                    "operation": "CALL",
                    "output": "",
                    "revert": false,
                    "revertMessage": "",
                    "selector": "0x022c0d9f",
                    "status": true,
                    "value": "0"
                },
                "nodeType": 0
            },
            "6": {
                "invocation": {
                    "address": "0xc02aaa39b223fe8d0a0e5c4f27ead9083c756cc2",
                    "callData": "0x0000000000000000000000007a250d5630b4cf539739df2c5dacb4c659f2488d000000000000000000000000000000000000000000000000027641ae3899bffd",
                    "decodedMethod": {
                        "callParams": [
                            {
                                "name": "dst",
                                "type": "address",
                                "value": "0x7a250d5630b4cf539739df2c5dacb4c659f2488d"
                            },
                            {
                                "decimalAvailable": true,
                                "name": "wad",
                                "type": "uint256",
                                "value": "177,401,451,857,428,477"
                            }
                        ],
                        "constructorArguments": "",
                        "name": "transfer",
                        "returnParams": [
                            {
                                "name": "",
                                "type": "bool",
                                "value": true
                            }
                        ],
                        "signature": "transfer(address,uint256)"
                    },
                    "errorInfo": "",
                    "fromAddress": "0xe644ae0d7640ed2838e97a3a0689e9bf50627eab",
                    "gasUsed": 30162,
                    "id": 6,
                    "methodDecoded": true,
                    "operation": "CALL",
                    "output": "0x0000000000000000000000000000000000000000000000000000000000000001",
                    "revert": false,
                    "revertMessage": "",
                    "selector": "0xa9059cbb",
                    "status": true,
                    "value": "0"
                },
                "nodeType": 0
            },
            "7": {
                "event": {
                    "contract": "0xc02aaa39b223fe8d0a0e5c4f27ead9083c756cc2",
                    "decodedLog": {
                        "name": "Transfer",
                        "params": [
                            {
                                "name": "src",
                                "type": "address",
                                "value": "0xe644ae0d7640ed2838e97a3a0689e9bf50627eab"
                            },
                            {
                                "name": "dst",
                                "type": "address",
                                "value": "0x7a250d5630b4cf539739df2c5dacb4c659f2488d"
                            },
                            {
                                "decimalAvailable": true,
                                "name": "wad",
                                "type": "uint256",
                                "value": "177,401,451,857,428,477"
                            }
                        ],
                        "signature": "Transfer(address,address,uint256)"
                    },
                    "id": 7,
                    "logData": "0x000000000000000000000000000000000000000000000000027641ae3899bffd",
                    "logDecoded": true,
                    "operation": "EVENT",
                    "revert": false,
                    "status": true,
                    "topics": [
                        "0xddf252ad1be2c89b69c2b068fc378daa952ba7f163c4a11628f55a4df523b3ef",
                        "0x000000000000000000000000e644ae0d7640ed2838e97a3a0689e9bf50627eab",
                        "0x0000000000000000000000007a250d5630b4cf539739df2c5dacb4c659f2488d"
                    ]
                },
                "nodeType": 1
            },
            "8": {
                "invocation": {
                    "address": "0x4f56221252d117f35e2f6ab937a3f77cad38934d",
                    "callData": "0x000000000000000000000000e644ae0d7640ed2838e97a3a0689e9bf50627eab",
                    "decodedMethod": {
                        "callParams": [
                            {
                                "name": "account",
                                "type": "address",
                                "value": "0xe644ae0d7640ed2838e97a3a0689e9bf50627eab"
                            }
                        ],
                        "constructorArguments": "",
                        "name": "balanceOf",
                        "returnParams": [
                            {
                                "decimalAvailable": true,
                                "name": "",
                                "type": "uint256",
                                "value": "322,324,521,577,483,968,129,124"
                            }
                        ],
                        "signature": "balanceOf(address)"
                    },
                    "errorInfo": "",
                    "fromAddress": "0xe644ae0d7640ed2838e97a3a0689e9bf50627eab",
                    "gasUsed": 1339,
                    "id": 8,
                    "methodDecoded": true,
                    "operation": "STATICCALL",
                    "output": "0x0000000000000000000000000000000000000000000044413f50d2372e932864",
                    "revert": false,
                    "revertMessage": "",
                    "selector": "0x70a08231",
                    "status": true,
                    "value": "0"
                },
                "nodeType": 0
            },
            "9": {
                "invocation": {
                    "address": "0xc02aaa39b223fe8d0a0e5c4f27ead9083c756cc2",
                    "callData": "0x000000000000000000000000e644ae0d7640ed2838e97a3a0689e9bf50627eab",
                    "decodedMethod": {
                        "callParams": [
                            {
                                "name": "",
                                "type": "address",
                                "value": "0xe644ae0d7640ed2838e97a3a0689e9bf50627eab"
                            }
                        ],
                        "constructorArguments": "",
                        "name": "balanceOf",
                        "returnParams": [
                            {
                                "decimalAvailable": true,
                                "name": "",
                                "type": "uint256",
                                "value": "21,638,855,295,527,751,373"
                            }
                        ],
                        "signature": "balanceOf(address)"
                    },
                    "errorInfo": "",
                    "fromAddress": "0xe644ae0d7640ed2838e97a3a0689e9bf50627eab",
                    "gasUsed": 1234,
                    "id": 9,
                    "methodDecoded": true,
                    "operation": "STATICCALL",
                    "output": "0x0000000000000000000000000000000000000000000000012c4ca83e64030ecd",
                    "revert": false,
                    "revertMessage": "",
                    "selector": "0x70a08231",
                    "status": true,
                    "value": "0"
                },
                "nodeType": 0
            }
        },
        "gasFlame": [
            {
                "children": [
                    {
                        "children": [
                            {
                                "children": [],
                                "depth": 0,
                                "name": "Initial Gas",
                                "value": 23084
                            },
                            {
                                "children": [
                                    {
                                        "children": [],
                                        "depth": 1,
                                        "name": "getReserves",
                                        "value": 1204
                                    },
                                    {
                                        "children": [],
                                        "depth": 1,
                                        "name": "transferFrom",
                                        "value": 22851
                                    },
                                    {
                                        "children": [
                                            {
                                                "children": [],
                                                "depth": 2,
                                                "name": "transfer",
                                                "value": 30162
                                            },
                                            {
                                                "children": [],
                                                "depth": 2,
                                                "name": "balanceOf",
                                                "value": 1339
                                            },
                                            {
                                                "children": [],
                                                "depth": 2,
                                                "name": "balanceOf",
                                                "value": 1234
                                            }
                                        ],
                                        "depth": 1,
                                        "name": "swap",
                                        "value": 71758
                                    },
                                    {
                                        "children": [
                                            {
                                                "children": [],
                                                "depth": 2,
                                                "name": "fallback",
                                                "value": 83
                                            }
                                        ],
                                        "depth": 1,
                                        "name": "withdraw",
                                        "value": 11923
                                    },
                                    {
                                        "children": [],
                                        "depth": 1,
                                        "name": "fallback",
                                        "value": 0
                                    }
                                ],
                                "depth": 0,
                                "name": "Executed Gas",
                                "value": 128061
                            }
                        ],
                        "depth": -1,
                        "name": "Actual Gas Used",
                        "value": 112745
                    },
                    {
                        "children": [],
                        "depth": -1,
                        "name": "Refunded Gas",
                        "value": 38400
                    }
                ],
                "depth": -2,
                "name": "Total Gas",
                "value": 151145
            }
        ],
        "isConfirmed": true,
        "mainTrace": [
            {
                "children": [
                    {
                        "children": [
                            {
                                "children": [],
                                "depth": 1,
                                "id": 1,
                                "order": 1
                            },
                            {
                                "children": [
                                    {
                                        "children": [],
                                        "depth": 2,
                                        "id": 3,
                                        "order": 3
                                    },
                                    {
                                        "children": [],
                                        "depth": 2,
                                        "id": 4,
                                        "order": 4
                                    }
                                ],
                                "depth": 1,
                                "id": 2,
                                "order": 2
                            },
                            {
                                "children": [
                                    {
                                        "children": [
                                            {
                                                "children": [],
                                                "depth": 3,
                                                "id": 7,
                                                "order": 7
                                            }
                                        ],
                                        "depth": 2,
                                        "id": 6,
                                        "order": 6
                                    },
                                    {
                                        "children": [],
                                        "depth": 2,
                                        "id": 8,
                                        "order": 8
                                    },
                                    {
                                        "children": [],
                                        "depth": 2,
                                        "id": 9,
                                        "order": 9
                                    },
                                    {
                                        "children": [],
                                        "depth": 2,
                                        "id": 10,
                                        "order": 10
                                    },
                                    {
                                        "children": [],
                                        "depth": 2,
                                        "id": 11,
                                        "order": 11
                                    }
                                ],
                                "depth": 1,
                                "id": 5,
                                "order": 5
                            },
                            {
                                "children": [
                                    {
                                        "children": [],
                                        "depth": 2,
                                        "id": 13,
                                        "order": 13
                                    },
                                    {
                                        "children": [],
                                        "depth": 2,
                                        "id": 14,
                                        "order": 14
                                    }
                                ],
                                "depth": 1,
                                "id": 12,
                                "order": 12
                            },
                            {
                                "children": [],
                                "depth": 1,
                                "id": 15,
                                "order": 15
                            }
                        ],
                        "depth": 0,
                        "id": 0,
                        "order": 0
                    }
                ],
                "depth": -1,
                "id": -1,
                "order": -1
            }
        ],
        "mainTraceNodeCount": 16,
        "parentIdMap": {
            "0": -1,
            "1": 0,
            "10": 5,
            "11": 5,
            "12": 0,
            "13": 12,
            "14": 12,
            "15": 0,
            "2": 0,
            "3": 2,
            "4": 2,
            "5": 0,
            "6": 5,
            "7": 6,
            "8": 5,
            "9": 5
        },
        "tidyTrace": [
            {
                "children": [
                    {
                        "children": [
                            {
                                "children": [
                                    {
                                        "children": [],
                                        "depth": 2,
                                        "id": 3,
                                        "order": 3
                                    },
                                    {
                                        "children": [],
                                        "depth": 2,
                                        "id": 4,
                                        "order": 4
                                    }
                                ],
                                "depth": 1,
                                "id": 2,
                                "order": 2
                            },
                            {
                                "children": [
                                    {
                                        "children": [
                                            {
                                                "children": [],
                                                "depth": 3,
                                                "id": 7,
                                                "order": 7
                                            }
                                        ],
                                        "depth": 2,
                                        "id": 6,
                                        "order": 6
                                    },
                                    {
                                        "children": [],
                                        "depth": 2,
                                        "id": 10,
                                        "order": 10
                                    },
                                    {
                                        "children": [],
                                        "depth": 2,
                                        "id": 11,
                                        "order": 11
                                    }
                                ],
                                "depth": 1,
                                "id": 5,
                                "order": 5
                            },
                            {
                                "children": [
                                    {
                                        "children": [],
                                        "depth": 2,
                                        "id": 13,
                                        "order": 13
                                    },
                                    {
                                        "children": [],
                                        "depth": 2,
                                        "id": 14,
                                        "order": 14
                                    }
                                ],
                                "depth": 1,
                                "id": 12,
                                "order": 12
                            },
                            {
                                "children": [],
                                "depth": 1,
                                "id": 15,
                                "order": 15
                            }
                        ],
                        "depth": 0,
                        "id": 0,
                        "order": 0
                    }
                ],
                "depth": -1,
                "id": -1,
                "order": -1
            }
        ],
        "tidyTraceNodeCount": 13
    },
    "state_change": {
        "stateChanges": [
            {
                "address": "0x4f56221252d117f35e2f6ab937a3f77cad38934d",
                "erc": "ERC-20",
                "slots": [
                    {
                        "current": "0x0000000000000000000000000000000000000000000044413f50d2372e932864",
                        "key": "0x94cfe9b0f6e5500895674d05ad72373822c8129fad53c8b23aad70e3ef3b2cb9",
                        "prev": "0x0000000000000000000000000000000000000000000043b2bccda5e1a49ab72b"
                    },
                    {
                        "current": "0xffffffffffffffffffffffffffffffffffffffffffffff717d7cd3aa76078ec6",
                        "key": "0x2f712c1ead71ebd398b4fb8ebf8d03d747619d1f5d1ab3e6fed54bb4fa815b2b",
                        "prev": "0xffffffffffffffffffffffffffffffffffffffffffffffffffffffffffffffff"
                    },
                    {
                        "current": "0x0000000000000000000000000000000000000000000000000000000000000000",
                        "key": "0x04123ccb21867e54210642f5ee05a01dc8cebf46398e2dbdbb085da9b3676bdb",
                        "prev": "0x00000000000000000000000000000000000000000000008e82832c5589f87139"
                    }
                ],
                "storageVariables": [
                    {
                        "name": "_balances",
                        "type": "mapping(address => uint256)",
                        "value": {
                            "pairs": [
                                {
                                    "key": "0x324151fd0be17516708ad9e9156dbd0409d6861c",
                                    "value": {
                                        "current": "0",
                                        "prev": "2628842067659534659897",
                                        "typeTag": 1
                                    }
                                },
                                {
                                    "key": "0xe644ae0d7640ed2838e97a3a0689e9bf50627eab",
                                    "value": {
                                        "current": "322324521577483968129124",
                                        "prev": "319695679509824433469227",
                                        "typeTag": 1
                                    }
                                }
                            ],
                            "typeTag": 4
                        }
                    },
                    {
                        "name": "_allowances",
                        "type": "mapping(address => mapping(address => uint256))",
                        "value": {
                            "pairs": [
                                {
                                    "key": "0x324151fd0be17516708ad9e9156dbd0409d6861c",
                                    "value": {
                                        "pairs": [
                                            {
                                                "key": "0x7a250d5630b4cf539739df2c5dacb4c659f2488d",
                                                "value": {
                                                    "current": "115792089237316195423570985008687907853269984665640564036828741940253594980038",
                                                    "prev": "115792089237316195423570985008687907853269984665640564039457584007913129639935",
                                                    "typeTag": 1
                                                }
                                            }
                                        ],
                                        "typeTag": 4
                                    }
                                }
                            ],
                            "typeTag": 4
                        }
                    }
                ]
            },
            {
                "address": "0xc02aaa39b223fe8d0a0e5c4f27ead9083c756cc2",
                "erc": "ERC-20",
                "slots": [
                    {
                        "current": "0x0000000000000000000000000000000000000000000000012c4ca83e64030ecd",
                        "key": "0x4d10ce63b613732cbb6f9308960436248d712b1dfe04955446e1f8280b2ceb9d",
                        "prev": "0x0000000000000000000000000000000000000000000000012ec2e9ec9c9cceca"
                    }
                ],
                "storageVariables": [
                    {
                        "name": "balanceOf",
                        "type": "mapping(address => uint256)",
                        "value": {
                            "pairs": [
                                {
                                    "key": "0xe644ae0d7640ed2838e97a3a0689e9bf50627eab",
                                    "value": {
                                        "current": "21638855295527751373",
                                        "prev": "21816256747385179850",
                                        "typeTag": 1
                                    }
                                }
                            ],
                            "typeTag": 4
                        }
                    }
                ]
            },
            {
                "address": "0xe644ae0d7640ed2838e97a3a0689e9bf50627eab",
                "erc": "ERC-20",
                "slots": [
                    {
                        "current": "0x000000000000000000000000000000000056ebe38d8733d24af7f146d28538f1",
                        "key": "0x0000000000000000000000000000000000000000000000000000000000000009",
                        "prev": "0x000000000000000000000000000000000056e995382fb4b2c857e7f4619868a9"
                    },
                    {
                        "current": "0x000000000000000000000000000685e1f77a307cd96fe9b914fa11d559233fe3",
                        "key": "0x000000000000000000000000000000000000000000000000000000000000000a",
                        "prev": "0x000000000000000000000000000685c47380a866539afe986f499dcb81aa7707"
                    },
                    {
                        "current": "0x5ef67b7b0000000000012c4ca83e64030ecd0000000044413f50d2372e932864",
                        "key": "0x0000000000000000000000000000000000000000000000000000000000000008",
                        "prev": "0x5ef67af70000000000012ec2e9ec9c9cceca0000000043b2bccda5e1a49ab72b"
                    }
                ],
                "storageVariables": [
                    {
                        "name": "reserve0",
                        "type": "uint112",
                        "value": {
                            "current": "322324521577483968129124",
                            "prev": "319695679509824433469227",
                            "typeTag": 1
                        }
                    },
                    {
                        "name": "reserve1",
                        "type": "uint112",
                        "value": {
                            "current": "21638855295527751373",
                            "prev": "21816256747385179850",
                            "typeTag": 1
                        }
                    },
                    {
                        "name": "blockTimestampLast",
                        "type": "uint32",
                        "value": {
                            "current": "1593211771",
                            "prev": "1593211639",
                            "typeTag": 1
                        }
                    },
                    {
                        "name": "price0CumulativeLast",
                        "type": "uint256",
                        "value": {
                            "current": "451321924684580146974447047069219057",
                            "prev": "451275153656694028089539075503581353",
                            "typeTag": 1
                        }
                    },
                    {
                        "name": "price1CumulativeLast",
                        "type": "uint256",
                        "value": {
                            "current": "145467297706423685669632797194480918097772515",
                            "prev": "145457254093273420710460050079312581434701575",
                            "typeTag": 1
                        }
                    }
                ]
            }
        ]
    }
}