{
    "balance_change": {
        "balanceChanges": []
    },
    "profile": {
        "basic_info": {
            "baseFee": "",
            "blockNumber": 6109344,
            "callData": "0xbf6001c3000000000000000000000000dd9fd6b6f8f7ea932997992bbe67eabb3e316f3c00000000000000000000000000000000000000000000000000000000000057880000000000000000000000000000000000000000000000001d24b2dfac5200000000000000000000000000000000000000000000000000000000000000000001",
            "debugEnable": true,
            "errorInfo": "execution reverted",
            "eventCount": 0,
            "feeRecipient": "0xb2930b35844a230f00e51431acae96fe543a0347",
            "formatValue": "0",
            "gasLimit": 1250000,
            "gasPrice": "88",
            "gasUsed": 31247,
            "intTxnCount": 3,
            "internalRevert": true,
            "internalRevertMessage": "",
            "isContractCreation": false,
            "isFlashloan": false,
            "maxFee": "",
            "nonce": 638,
            "overwritedBlockNumber": -1,
            "priorityFee": "",
            "receiver": "0xdb91670cb86a36067a72a4e73b283bb5cdbd4e58",
            "revertMessage": "",
            "sender": "0x968cd00f12d1cd2c56a139d4fc8ba8fc177f0c3e",
            "simulationEnable": true,
            "sourceTxnHash": "0x62a2af96bb0d9b620e5637984b21a66ef04e3ddc476d5198f8ce818e3be7795e",
            "status": false,
            "timestamp": "2018-08-08T08:03:32Z",
            "transactionFee": "0.002749736",
            "txnHash": "0x62a2af96bb0d9b620e5637984b21a66ef04e3ddc476d5198f8ce818e3be7795e",
            "txnIndex": 14,
            "type": 0,
            "value": "0"
        },
        "fund_flow": [],
        "token_infos": [
            {
                "address": "0xc02aaa39b223fe8d0a0e5c4f27ead9083c756cc2",
                "decimals": 18
            },
            {
                "address": "0xeeeeeeeeeeeeeeeeeeeeeeeeeeeeeeeeeeeeeeee",
                "decimals": 18
            }
        ]
    },
    "address_label": {
        "labels": [
            {
                "address": "0xeeeeeeeeeeeeeeeeeeeeeeeeeeeeeeeeeeeeeeee",
                "label": "Ether"
            },
            {
                "address": "0x0000000000000000000000000000000000000001",
                "label": "Precompiled"
            },
            {
                "address": "0x0000000000000000000000000000000000000002",
                "label": "Precompiled"
            },
            {
                "address": "0x0000000000000000000000000000000000000003",
                "label": "Precompiled"
            },
            {
                "address": "0x0000000000000000000000000000000000000004",
                "label": "Precompiled"
            }
        ]
    },
    "trace": {
        "accountLabels": null,
        "dataMap": {
            "-1": {
                "invocation": {
                    "address": "0x968cd00f12d1cd2c56a139d4fc8ba8fc177f0c3e",
                    "callData": "",
                    "decodedMethod": null,
                    "errorInfo": "",
                    "fromAddress": "",
                    "gasUsed": 0,
                    "id": -1,
                    "methodDecoded": false,
                    "operation": "",
                    "output": "",
                    "revert": false,
                    "revertMessage": "",
                    "selector": "",
                    "status": false,
                    "value": ""
                },
                "nodeType": 0
            },
            "0": {
                "invocation": {
                    "address": "0xdb91670cb86a36067a72a4e73b283bb5cdbd4e58",
                    "callData": "0x000000000000000000000000dd9fd6b6f8f7ea932997992bbe67eabb3e316f3c00000000000000000000000000000000000000000000000000000000000057880000000000000000000000000000000000000000000000001d24b2dfac5200000000000000000000000000000000000000000000000000000000000000000001",
                    "decodedMethod": null,
                    "errorInfo": "execution reverted",
                    "fromAddress": "0x968cd00f12d1cd2c56a139d4fc8ba8fc177f0c3e",
                    "gasUsed": 31247,
                    "id": 0,
                    "methodDecoded": false,
                    "operation": "CALL",
                    "output": "",
                    "revert": true,
                    "revertMessage": "",
                    "selector": "0xbf6001c3",
                    "status": false,
                    "value": "0"
                },
                "nodeType": 0
            },
            "1": {
                "invocation": {
                    "address": "0xa6f1e2a0802163f76b458199494af5b57378b134",
                    "callData": "0x000000000000000000000000dd9fd6b6f8f7ea932997992bbe67eabb3e316f3c00000000000000000000000000000000000000000000000000000000000057880000000000000000000000000000000000000000000000001d24b2dfac5200000000000000000000000000000000000000000000000000000000000000000001",
                    "decodedMethod": null,
                    "errorInfo": "execution reverted",
                    "fromAddress": "0xdb91670cb86a36067a72a4e73b283bb5cdbd4e58",
                    "gasUsed": 6087,
                    "id": 1,
                    "methodDecoded": false,
                    "operation": "DELEGATECALL",
                    "output": "",
                    "revert": true,
                    "revertMessage": "",
                    "selector": "0xbf6001c3",
                    "status": false,
                    "value": "0"
                },
                "nodeType": 0
            },
            "2": {
                "invocation": {
                    "address": "0xdd9fd6b6f8f7ea932997992bbe67eabb3e316f3c",
                    "callData": "0x",
                    "decodedMethod": {
                        "callParams": [],
                        "constructorArguments": "",
                        "name": "airDropPot_",
                        "returnParams": [
                            {
                                "name": "",
                                "type": "uint256",
                                "value": "3,808,756,451,470,229,763"
                            }
                        ],
                        "signature": "airDropPot_()"
                    },
                    "errorInfo": "",
                    "fromAddress": "0xdb91670cb86a36067a72a4e73b283bb5cdbd4e58",
                    "gasUsed": 1352,
                    "id": 2,
                    "methodDecoded": true,
                    "operation": "CALL",
                    "output": "0x00000000000000000000000000000000000000000000000034db6bd01ddc4103",
                    "revert": true,
                    "revertMessage": "",
                    "selector": "0xd87574e0",
                    "status": true,
                    "value": "0"
                },
                "nodeType": 0
            },
            "3": {
                "invocation": {
                    "address": "0xdd9fd6b6f8f7ea932997992bbe67eabb3e316f3c",
                    "callData": "0x",
                    "decodedMethod": {
                        "callParams": [],
                        "constructorArguments": "",
                        "name": "airDropTracker_",
                        "returnParams": [
                            {
                                "name": "",
                                "type": "uint256",
                                "value": "0"
                            }
                        ],
                        "signature": "airDropTracker_()"
                    },
                    "errorInfo": "",
                    "fromAddress": "0xdb91670cb86a36067a72a4e73b283bb5cdbd4e58",
                    "gasUsed": 516,
                    "id": 3,
                    "methodDecoded": true,
                    "operation": "CALL",
                    "output": "0x0000000000000000000000000000000000000000000000000000000000000000",
                    "revert": true,
                    "revertMessage": "",
                    "selector": "0x11a09ae7",
                    "status": true,
                    "value": "0"
                },
                "nodeType": 0
            }
        },
        "gasFlame": [
            {
                "children": [
                    {
                        "children": [
                            {
                                "children": [],
                                "depth": 0,
                                "name": "Initial Gas",
                                "value": 23640
                            },
                            {
                                "children": [
                                    {
                                        "children": [
                                            {
                                                "children": [],
                                                "depth": 2,
                                                "name": "airDropPot_",
                                                "value": 1352
                                            },
                                            {
                                                "children": [],
                                                "depth": 2,
                                                "name": "airDropTracker_",
                                                "value": 516
                                            }
                                        ],
                                        "depth": 1,
                                        "name": "0xbf6001c3",
                                        "value": 6087
                                    }
                                ],
                                "depth": 0,
                                "name": "Executed Gas",
                                "value": 7607
                            }
                        ],
                        "depth": -1,
                        "name": "Actual Gas Used",
                        "value": 31247
                    },
                    {
                        "children": [],
                        "depth": -1,
                        "name": "Refunded Gas",
                        "value": 0
                    }
                ],
                "depth": -2,
                "name": "Total Gas",
                "value": 31247
            }
        ],
        "isConfirmed": true,
        "mainTrace": [
            {
                "children": [
                    {
                        "children": [
                            {
                                "children": [
                                    {
                                        "children": [],
                                        "depth": 2,
                                        "id": 2,
                                        "order": 2
                                    },
                                    {
                                        "children": [],
                                        "depth": 2,
                                        "id": 3,
                                        "order": 3
                                    }
                                ],
                                "depth": 1,
                                "id": 1,
                                "order": 1
                            }
                        ],
                        "depth": 0,
                        "id": 0,
                        "order": 0
                    }
                ],
                "depth": -1,
                "id": -1,
                "order": -1
            }
        ],
        "mainTraceNodeCount": 4,
        "parentIdMap": {
            "0": -1,
            "1": 0,
            "2": 1,
            "3": 1
        },
        "tidyTrace": [
            {
                "children": [
                    {
                        "children": [
                            {
                                "children": [
                                    {
                                        "children": [],
                                        "depth": 2,
                                        "id": 2,
                                        "order": 2
                                    },
                                    {
                                        "children": [],
                                        "depth": 2,
                                        "id": 3,
                                        "order": 3
                                    }
                                ],
                                "depth": 1,
                                "id": 1,
                                "order": 1
                            }
                        ],
                        "depth": 0,
                        "id": 0,
                        "order": 0
                    }
                ],
                "depth": -1,
                "id": -1,
                "order": -1
            }
        ],
        "tidyTraceNodeCount": 4
    },
    "state_change": {
        "stateChanges": []
    }
}