{
    "balance_change": {
        "balanceChanges": [
            {
                "account": "0xbf67b1e92a707fa92f5daa8ecad4adcb746b2fa8",
                "assets": [
                    {
                        "address": "0xeeeeeeeeeeeeeeeeeeeeeeeeeeeeeeeeeeeeeeee",
                        "amount": "0.05",
                        "iconUrl": "https://assets.blocksec.com/image/1663669189317-3.png",
                        "isERC1155": false,
                        "isERC721": false,
                        "sign": false,
                        "value": "17.76681358"
                    }
                ]
            },
            {
                "account": "0xeacb75de567a7be6a05170e8040b7396061e5079",
                "assets": [
                    {
                        "address": "0xeeeeeeeeeeeeeeeeeeeeeeeeeeeeeeeeeeeeeeee",
                        "amount": "0.05",
                        "iconUrl": "https://assets.blocksec.com/image/1663669189317-3.png",
                        "isERC1155": false,
                        "isERC721": false,
                        "sign": true,
                        "value": "17.76681358"
                    }
                ]
            }
        ]
    },
    "profile": {
        "basic_info": {
            "baseFee": "",
            "blockNumber": 10965885,
            "callData": "0xbe389d5700000000000000000000000000000000000000000000000000000000000000010000000000000000000000000000000000000000000000000000000000000002",
            "debugEnable": true,
            "errorInfo": "",
            "eventCount": 5,
            "feeRecipient": "0x5a0b54d5dc17e0aadc383d2db43b0a0d3e029c4c",
            "formatValue": "0.05",
            "gasLimit": 324832,
            "gasPrice": "79.000001459",
            "gasUsed": 216555,
            "intTxnCount": 2,
            "internalRevert": false,
            "internalRevertMessage": "",
            "isContractCreation": false,
            "isFlashloan": false,
            "maxFee": "",
            "nonce": 1,
            "overwritedBlockNumber": -1,
            "priorityFee": "",
            "receiver": "0x2454d66220d48a07306e03e6694f10eb4906b299",
            "revertMessage": "",
            "sender": "0xbf67b1e92a707fa92f5daa8ecad4adcb746b2fa8",
            "simulationEnable": true,
            "sourceTxnHash": "0x6216f8bd116fe64b40329e345da3e0d6c57fa54e1073ab7daef80e1093746e7c",
            "status": true,
            "timestamp": "2020-09-30T20:24:44Z",
            "transactionFee": "0.017107845315953745",
            "txnHash": "0x6216f8bd116fe64b40329e345da3e0d6c57fa54e1073ab7daef80e1093746e7c",
            "txnIndex": 45,
            "type": 0,
            "value": "50000000000000000"
        },
        "fund_flow": [
            {
                "amount": "0.05",
                "from": "0xbf67b1e92a707fa92f5daa8ecad4adcb746b2fa8",
                "id": 1,
                "isERC1155": false,
                "isERC721": false,
                "isReverted": false,
                "order": 1,
                "to": "0x2454d66220d48a07306e03e6694f10eb4906b299",
                "token": "0xeeeeeeeeeeeeeeeeeeeeeeeeeeeeeeeeeeeeeeee"
            },
            {
                "amount": "0.05",
                "from": "0x2454d66220d48a07306e03e6694f10eb4906b299",
                "id": 2,
                "isERC1155": false,
                "isERC721": false,
                "isReverted": false,
                "order": 2,
                "to": "0xeacb75de567a7be6a05170e8040b7396061e5079",
                "token": "0xeeeeeeeeeeeeeeeeeeeeeeeeeeeeeeeeeeeeeeee"
            }
        ],
        "token_infos": [
            {
                "address": "0xeeeeeeeeeeeeeeeeeeeeeeeeeeeeeeeeeeeeeeee",
                "decimals": 18
            },
            {
                "address": "0xc02aaa39b223fe8d0a0e5c4f27ead9083c756cc2",
                "decimals": 18
            }
        ]
    },
    "address_label": {
        "labels": [
            {
                "address": "0xeeeeeeeeeeeeeeeeeeeeeeeeeeeeeeeeeeeeeeee",
                "label": "Ether"
            },
            {
                "address": "0x2454d66220d48a07306e03e6694f10eb4906b299",
                "label": "DoradoWorld"
            },
            {
                "address": "0x0000000000000000000000000000000000000001",
                "label": "Precompiled"
            },
            {
                "address": "0x0000000000000000000000000000000000000002",
                "label": "Precompiled"
            },
            {
                "address": "0x0000000000000000000000000000000000000003",
                "label": "Precompiled"
            },
            {
                "address": "0x0000000000000000000000000000000000000004",
                "label": "Precompiled"
            }
        ]
    },
    "trace": {
        "accountLabels": null,
        "dataMap": {
            "-1": {
                "invocation": {
                    "address": "0xbf67b1e92a707fa92f5daa8ecad4adcb746b2fa8",
                    "callData": "",
                    "decodedMethod": null,
                    "errorInfo": "",
                    "fromAddress": "",
                    "gasUsed": 0,
                    "id": -1,
                    "methodDecoded": false,
                    "operation": "",
                    "output": "",
                    "revert": false,
                    "revertMessage": "",
                    "selector": "",
                    "status": false,
                    "value": ""
                },
                "nodeType": 0
            },
            "0": {
                "invocation": {
                    "address": "0x2454d66220d48a07306e03e6694f10eb4906b299",
                    "callData": "0x00000000000000000000000000000000000000000000000000000000000000010000000000000000000000000000000000000000000000000000000000000002",
                    "decodedMethod": {
                        "callParams": [
                            {
                                "name": "matrix",
                                "type": "uint8",
                                "value": "1"
                            },
                            {
                                "name": "level",
                                "type": "uint8",
                                "value": "2"
                            }
                        ],
                        "constructorArguments": "",
                        "name": "buyNewLevel",
                        "returnParams": [],
                        "signature": "buyNewLevel(uint8,uint8)"
                    },
                    "errorInfo": "",
                    "fromAddress": "0xbf67b1e92a707fa92f5daa8ecad4adcb746b2fa8",
                    "gasUsed": 216555,
                    "id": 0,
                    "methodDecoded": true,
                    "operation": "CALL",
                    "output": "",
                    "revert": false,
                    "revertMessage": "",
                    "selector": "0xbe389d57",
                    "status": true,
                    "value": "0.05"
                },
                "nodeType": 0
            },
            "1": {
                "event": {
                    "contract": "0x2454d66220d48a07306e03e6694f10eb4906b299",
                    "decodedLog": {
                        "name": "NewUserPlace",
                        "params": [
                            {
                                "name": "user",
                                "type": "address",
                                "value": "0xbf67b1e92a707fa92f5daa8ecad4adcb746b2fa8"
                            },
                            {
                                "name": "referrer",
                                "type": "address",
                                "value": "0xed5401dd1b5ce6962718aa080a5aa965aae357bb"
                            },
                            {
                                "name": "matrix",
                                "type": "uint8",
                                "value": "1"
                            },
                            {
                                "name": "level",
                                "type": "uint8",
                                "value": "2"
                            },
                            {
                                "name": "place",
                                "type": "uint256",
                                "value": "1"
                            }
                        ],
                        "signature": "NewUserPlace(address,address,uint8,uint8,uint256)"
                    },
                    "id": 1,
                    "logData": "0x000000000000000000000000000000000000000000000000000000000000000100000000000000000000000000000000000000000000000000000000000000020000000000000000000000000000000000000000000000000000000000000001",
                    "logDecoded": true,
                    "operation": "EVENT",
                    "revert": false,
                    "status": true,
                    "topics": [
                        "0x95caa9462a6fa73c29828905332060e4a953925253d8b989b555d4e271f86e09",
                        "0x000000000000000000000000bf67b1e92a707fa92f5daa8ecad4adcb746b2fa8",
                        "0x000000000000000000000000ed5401dd1b5ce6962718aa080a5aa965aae357bb"
                    ]
                },
                "nodeType": 1
            },
            "2": {
                "event": {
                    "contract": "0x2454d66220d48a07306e03e6694f10eb4906b299",
                    "decodedLog": {
                        "name": "NewD5Matrix",
                        "params": [
                            {
                                "name": "newid",
                                "type": "uint256",
                                "value": "16"
                            },
                            {
                                "name": "benid",
                                "type": "uint256",
                                "value": "1"
                            },
                            {
                                "name": "reentry",
                                "type": "bool",
                                "value": false
                            }
                        ],
                        "signature": "NewD5Matrix(uint256,uint256,bool)"
                    },
                    "id": 2,
                    "logData": "0x000000000000000000000000000000000000000000000000000000000000001000000000000000000000000000000000000000000000000000000000000000010000000000000000000000000000000000000000000000000000000000000000",
                    "logDecoded": true,
                    "operation": "EVENT",
                    "revert": false,
                    "status": true,
                    "topics": [
                        "0x7122a3b7e087fd953decd8ace0edda0923d5387371a84458b31c248ca6439838"
                    ]
                },
                "nodeType": 1
            },
            "3": {
                "event": {
                    "contract": "0x2454d66220d48a07306e03e6694f10eb4906b299",
                    "decodedLog": {
                        "name": "payout",
                        "params": [
                            {
                                "name": "benid",
                                "type": "uint256",
                                "value": "1"
                            },
                            {
                                "name": "receiver",
                                "type": "address",
                                "value": "0xeacb75de567a7be6a05170e8040b7396061e5079"
                            },
                            {
                                "name": "dividend",
                                "type": "uint256",
                                "value": "50,000,000,000,000,000"
                            },
                            {
                                "name": "matrix",
                                "type": "uint8",
                                "value": "3"
                            }
                        ],
                        "signature": "payout(uint256,address,uint256,uint8)"
                    },
                    "id": 3,
                    "logData": "0x0000000000000000000000000000000000000000000000000000000000000003",
                    "logDecoded": true,
                    "operation": "EVENT",
                    "revert": false,
                    "status": true,
                    "topics": [
                        "0x62a0be4e4f4dd5ce22161321c961172723682051fd068554e749b43b00abf43e",
                        "0x0000000000000000000000000000000000000000000000000000000000000001",
                        "0x000000000000000000000000eacb75de567a7be6a05170e8040b7396061e5079",
                        "0x00000000000000000000000000000000000000000000000000b1a2bc2ec50000"
                    ]
                },
                "nodeType": 1
            },
            "4": {
                "invocation": {
                    "address": "0xeacb75de567a7be6a05170e8040b7396061e5079",
                    "callData": "0x",
                    "decodedMethod": null,
                    "errorInfo": "",
                    "fromAddress": "0x2454d66220d48a07306e03e6694f10eb4906b299",
                    "gasUsed": 0,
                    "id": 4,
                    "methodDecoded": false,
                    "operation": "CALL",
                    "output": "",
                    "revert": false,
                    "revertMessage": "",
                    "selector": "fallback",
                    "status": true,
                    "value": "0.05"
                },
                "nodeType": 0
            },
            "5": {
                "event": {
                    "contract": "0x2454d66220d48a07306e03e6694f10eb4906b299",
                    "decodedLog": {
                        "name": "payout",
                        "params": [
                            {
                                "name": "benid",
                                "type": "uint256",
                                "value": "2"
                            },
                            {
                                "name": "receiver",
                                "type": "address",
                                "value": "0xed5401dd1b5ce6962718aa080a5aa965aae357bb"
                            },
                            {
                                "name": "dividend",
                                "type": "uint256",
                                "value": "0"
                            },
                            {
                                "name": "matrix",
                                "type": "uint8",
                                "value": "1"
                            }
                        ],
                        "signature": "payout(uint256,address,uint256,uint8)"
                    },
                    "id": 5,
                    "logData": "0x0000000000000000000000000000000000000000000000000000000000000001",
                    "logDecoded": true,
                    "operation": "EVENT",
                    "revert": false,
                    "status": true,
                    "topics": [
                        "0x62a0be4e4f4dd5ce22161321c961172723682051fd068554e749b43b00abf43e",
                        "0x0000000000000000000000000000000000000000000000000000000000000002",
                        "0x000000000000000000000000ed5401dd1b5ce6962718aa080a5aa965aae357bb",
                        "0x0000000000000000000000000000000000000000000000000000000000000000"
                    ]
                },
                "nodeType": 1
            },
            "6": {
                "invocation": {
                    "address": "0xed5401dd1b5ce6962718aa080a5aa965aae357bb",
                    "callData": "0x",
                    "decodedMethod": null,
                    "errorInfo": "",
                    "fromAddress": "0x2454d66220d48a07306e03e6694f10eb4906b299",
                    "gasUsed": 0,
                    "id": 6,
                    "methodDecoded": false,
                    "operation": "CALL",
                    "output": "",
                    "revert": false,
                    "revertMessage": "",
                    "selector": "fallback",
                    "status": true,
                    "value": "0"
                },
                "nodeType": 0
            },
            "7": {
                "event": {
                    "contract": "0x2454d66220d48a07306e03e6694f10eb4906b299",
                    "decodedLog": {
                        "name": "Upgrade",
                        "params": [
                            {
                                "name": "user",
                                "type": "address",
                                "value": "0xbf67b1e92a707fa92f5daa8ecad4adcb746b2fa8"
                            },
                            {
                                "name": "referrer",
                                "type": "address",
                                "value": "0xed5401dd1b5ce6962718aa080a5aa965aae357bb"
                            },
                            {
                                "name": "matrix",
                                "type": "uint8",
                                "value": "1"
                            },
                            {
                                "name": "level",
                                "type": "uint8",
                                "value": "2"
                            }
                        ],
                        "signature": "Upgrade(address,address,uint8,uint8)"
                    },
                    "id": 7,
                    "logData": "0x00000000000000000000000000000000000000000000000000000000000000010000000000000000000000000000000000000000000000000000000000000002",
                    "logDecoded": true,
                    "operation": "EVENT",
                    "revert": false,
                    "status": true,
                    "topics": [
                        "0x18a92df19fd94d6cfff209966673a5ca05a1c8e2bb68e097fce2bdc2ed811119",
                        "0x000000000000000000000000bf67b1e92a707fa92f5daa8ecad4adcb746b2fa8",
                        "0x000000000000000000000000ed5401dd1b5ce6962718aa080a5aa965aae357bb"
                    ]
                },
                "nodeType": 1
            }
        },
        "gasFlame": [
            {
                "children": [
                    {
                        "children": [
                            {
                                "children": [],
                                "depth": 0,
                                "name": "Initial Gas",
                                "value": 21344
                            },
                            {
                                "children": [
                                    {
                                        "children": [],
                                        "depth": 1,
                                        "name": "fallback",
                                        "value": 0
                                    },
                                    {
                                        "children": [],
                                        "depth": 1,
                                        "name": "fallback",
                                        "value": 0
                                    }
                                ],
                                "depth": 0,
                                "name": "Executed Gas",
                                "value": 195211
                            }
                        ],
                        "depth": -1,
                        "name": "Actual Gas Used",
                        "value": 216555
                    },
                    {
                        "children": [],
                        "depth": -1,
                        "name": "Refunded Gas",
                        "value": 0
                    }
                ],
                "depth": -2,
                "name": "Total Gas",
                "value": 216555
            }
        ],
        "isConfirmed": true,
        "mainTrace": [
            {
                "children": [
                    {
                        "children": [
                            {
                                "children": [],
                                "depth": 1,
                                "id": 1,
                                "order": 1
                            },
                            {
                                "children": [],
                                "depth": 1,
                                "id": 2,
                                "order": 2
                            },
                            {
                                "children": [],
                                "depth": 1,
                                "id": 3,
                                "order": 3
                            },
                            {
                                "children": [],
                                "depth": 1,
                                "id": 4,
                                "order": 4
                            },
                            {
                                "children": [],
                                "depth": 1,
                                "id": 5,
                                "order": 5
                            },
                            {
                                "children": [],
                                "depth": 1,
                                "id": 6,
                                "order": 6
                            },
                            {
                                "children": [],
                                "depth": 1,
                                "id": 7,
                                "order": 7
                            }
                        ],
                        "depth": 0,
                        "id": 0,
                        "order": 0
                    }
                ],
                "depth": -1,
                "id": -1,
                "order": -1
            }
        ],
        "mainTraceNodeCount": 8,
        "parentIdMap": {
            "0": -1,
            "1": 0,
            "2": 0,
            "3": 0,
            "4": 0,
            "5": 0,
            "6": 0,
            "7": 0
        },
        "tidyTrace": [
            {
                "children": [
                    {
                        "children": [
                            {
                                "children": [],
                                "depth": 1,
                                "id": 1,
                                "order": 1
                            },
                            {
                                "children": [],
                                "depth": 1,
                                "id": 2,
                                "order": 2
                            },
                            {
                                "children": [],
                                "depth": 1,
                                "id": 3,
                                "order": 3
                            },
                            {
                                "children": [],
                                "depth": 1,
                                "id": 4,
                                "order": 4
                            },
                            {
                                "children": [],
                                "depth": 1,
                                "id": 5,
                                "order": 5
                            },
                            {
                                "children": [],
                                "depth": 1,
                                "id": 6,
                                "order": 6
                            },
                            {
                                "children": [],
                                "depth": 1,
                                "id": 7,
                                "order": 7
                            }
                        ],
                        "depth": 0,
                        "id": 0,
                        "order": 0
                    }
                ],
                "depth": -1,
                "id": -1,
                "order": -1
            }
        ],
        "tidyTraceNodeCount": 8
    },
    "state_change": {
        "stateChanges": [
            {
                "address": "0x2454d66220d48a07306e03e6694f10eb4906b299",
                "erc": "",
                "slots": [
                    {
                        "current": "0x000000000000000000000000000000000000000000000000000000000000000f",
                        "key": "0xf5918152dffd4c0c585ca2588ca9b8191bd01a7fbff2737f8e5b9361e056219d",
                        "prev": "0x0000000000000000000000000000000000000000000000000000000000000000"
                    },
                    {
                        "current": "0x000000000000000000000000ed5401dd1b5ce6962718aa080a5aa965aae357bb",
                        "key": "0x50e3ee39f1eae846de29b7e9b405b8eb6c0ed8babace724cfa987b39e195566d",
                        "prev": "0x0000000000000000000000000000000000000000000000000000000000000000"
                    },
                    {
                        "current": "0x0000000000000000000000000000000000000000000000000000000000000001",
                        "key": "0x03379b92127a2fecd1ba51b119c7d9b135a775ad8a01a29c7ea6fa23061d7e9b",
                        "prev": "0x0000000000000000000000000000000000000000000000000000000000000000"
                    },
                    {
                        "current": "0x0000000000000000000000000000000000000000000000000000000000000001",
                        "key": "0xdcfcb605dc3e17bb60d4026a6f07085c2bae8b3f40cdd757cbe644a4655a933d",
                        "prev": "0x0000000000000000000000000000000000000000000000000000000000000000"
                    },
                    {
                        "current": "0x000000000000000000000000bf67b1e92a707fa92f5daa8ecad4adcb746b2fa8",
                        "key": "0x0763d2edbde67d4577334d24dd06b248b8c8959c1a71c126e98a867f37b505bb",
                        "prev": "0x0000000000000000000000000000000000000000000000000000000000000000"
                    },
                    {
                        "current": "0x0000000000000000000000000000000000000000000000000000000000000001",
                        "key": "0xc8cc8a808eb9cd8e23e09485ca24a305bbd85df7abe664a66cf313ace95b1d35",
                        "prev": "0x0000000000000000000000000000000000000000000000000000000000000000"
                    },
                    {
                        "current": "0x0000000000000000000000000000000000000000000000000000000000000010",
                        "key": "0xa8c1d155a8334877fd89ce1e429544969c019fe021ac620507a9a8373e5657c8",
                        "prev": "0x0000000000000000000000000000000000000000000000000000000000000000"
                    },
                    {
                        "current": "0x0000000000000000000000000000000000000000000000000000000000000010",
                        "key": "0x92e85d02570a8092d09a6e3a57665bc3815a2699a4074001bf1ccabf660f5a36",
                        "prev": "0x000000000000000000000000000000000000000000000000000000000000000f"
                    }
                ],
                "storageVariables": [
                    {
                        "name": "users",
                        "type": "mapping(address => struct DoradoWorld.User)",
                        "value": {
                            "pairs": [
                                {
                                    "key": "0xbf67b1e92a707fa92f5daa8ecad4adcb746b2fa8",
                                    "value": {
                                        "fields": [
                                            {
                                                "name": "activeD3Levels",
                                                "type": "mapping(uint8 => bool)",
                                                "value": {
                                                    "pairs": [
                                                        {
                                                            "key": "2",
                                                            "value": {
                                                                "current": "true",
                                                                "prev": "false",
                                                                "typeTag": 1
                                                            }
                                                        }
                                                    ],
                                                    "typeTag": 4
                                                }
                                            },
                                            {
                                                "name": "D3Matrix",
                                                "type": "mapping(uint8 => struct DoradoWorld.D3)",
                                                "value": {
                                                    "pairs": [
                                                        {
                                                            "key": "2",
                                                            "value": {
                                                                "fields": [
                                                                    {
                                                                        "name": "currentReferrer",
                                                                        "type": "address",
                                                                        "value": {
                                                                            "current": "0xed5401dd1b5ce6962718aa080a5aa965aae357bb",
                                                                            "prev": "0x0000000000000000000000000000000000000000",
                                                                            "typeTag": 1
                                                                        }
                                                                    }
                                                                ],
                                                                "typeTag": 3
                                                            }
                                                        }
                                                    ],
                                                    "typeTag": 4
                                                }
                                            }
                                        ],
                                        "typeTag": 3
                                    }
                                },
                                {
                                    "key": "0xed5401dd1b5ce6962718aa080a5aa965aae357bb",
                                    "value": {
                                        "fields": [
                                            {
                                                "name": "D3Matrix",
                                                "type": "mapping(uint8 => struct DoradoWorld.D3)",
                                                "value": {
                                                    "pairs": [
                                                        {
                                                            "key": "2",
                                                            "value": {
                                                                "fields": [
                                                                    {
                                                                        "name": "referrals",
                                                                        "type": "address[]",
                                                                        "value": {
                                                                            "elemType": "address",
                                                                            "elems": [
                                                                                {
                                                                                    "index": 0,
                                                                                    "value": {
                                                                                        "current": "0xbf67b1e92a707fa92f5daa8ecad4adcb746b2fa8",
                                                                                        "prev": "0x0000000000000000000000000000000000000000",
                                                                                        "typeTag": 1
                                                                                    }
                                                                                }
                                                                            ],
                                                                            "typeTag": 2
                                                                        }
                                                                    }
                                                                ],
                                                                "typeTag": 3
                                                            }
                                                        }
                                                    ],
                                                    "typeTag": 4
                                                }
                                            },
                                            {
                                                "name": "D5Matrix",
                                                "type": "mapping(uint8 => struct DoradoWorld.D5)",
                                                "value": {
                                                    "pairs": [
                                                        {
                                                            "key": "1",
                                                            "value": {
                                                                "fields": [
                                                                    {
                                                                        "name": "D5No",
                                                                        "type": "uint256[]",
                                                                        "value": {
                                                                            "elemType": "uint256",
                                                                            "elems": [
                                                                                {
                                                                                    "index": 0,
                                                                                    "value": {
                                                                                        "current": "16",
                                                                                        "prev": "0",
                                                                                        "typeTag": 1
                                                                                    }
                                                                                }
                                                                            ],
                                                                            "typeTag": 2
                                                                        }
                                                                    }
                                                                ],
                                                                "typeTag": 3
                                                            }
                                                        }
                                                    ],
                                                    "typeTag": 4
                                                }
                                            }
                                        ],
                                        "typeTag": 3
                                    }
                                }
                            ],
                            "typeTag": 4
                        }
                    },
                    {
                        "name": "L5Matrix",
                        "type": "mapping(uint8 => uint256[])",
                        "value": {
                            "pairs": [
                                {
                                    "key": "1",
                                    "value": {
                                        "elemType": "uint256",
                                        "elems": [
                                            {
                                                "index": 15,
                                                "value": {
                                                    "current": "15",
                                                    "prev": "0",
                                                    "typeTag": 1
                                                }
                                            }
                                        ],
                                        "typeTag": 2
                                    }
                                }
                            ],
                            "typeTag": 4
                        }
                    }
                ]
            }
        ]
    }
}