{
    "balance_change": {
        "balanceChanges": [
            {
                "account": "0x0db16c4e6d4e9d77baa9aadb71f38a61b7b7ef72",
                "assets": [
                    {
                        "address": "0x03cb0021808442ad5efb61197966aef72a1def96",
                        "amount": "0.01",
                        "iconUrl": "",
                        "isERC1155": false,
                        "isERC721": false,
                        "sign": false,
                        "value": ""
                    }
                ]
            },
            {
                "account": "0xae9b8e05c22bae74d1e8db82c4af122b18050bd4",
                "assets": [
                    {
                        "address": "0x03cb0021808442ad5efb61197966aef72a1def96",
                        "amount": "0.0091",
                        "iconUrl": "",
                        "isERC1155": false,
                        "isERC721": false,
                        "sign": true,
                        "value": ""
                    }
                ]
            },
            {
                "account": "0x62a364f7cba3be8fc9dcfdde12cabec8244af381",
                "assets": [
                    {
                        "address": "0x03cb0021808442ad5efb61197966aef72a1def96",
                        "amount": "0.0009",
                        "iconUrl": "",
                        "isERC1155": false,
                        "isERC721": false,
                        "sign": true,
                        "value": ""
                    }
                ]
            }
        ]
    },
    "profile": {
        "basic_info": {
            "baseFee": "",
            "blockNumber": 8546535,
            "callData": "0x29675f29000000000000000000000000000000000000000000000000002386f26fc1000000000000000000000000000000000000000000000000000000000000000000080000000000000000000000000000000000000000000000000000000000000001000000000000000000000000000000000000000000000000000000000000000a",
            "debugEnable": true,
            "errorInfo": "",
            "eventCount": 2,
            "feeRecipient": "0xea674fdde714fd979de3edf0f56aa9716b898ec8",
            "formatValue": "0",
            "gasLimit": 2000000,
            "gasPrice": "30",
            "gasUsed": 443640,
            "intTxnCount": 3,
            "internalRevert": false,
            "internalRevertMessage": "",
            "isContractCreation": false,
            "isFlashloan": false,
            "maxFee": "",
            "nonce": 1639,
            "overwritedBlockNumber": -1,
            "priorityFee": "",
            "receiver": "0xae9b8e05c22bae74d1e8db82c4af122b18050bd4",
            "revertMessage": "",
            "sender": "0x0db16c4e6d4e9d77baa9aadb71f38a61b7b7ef72",
            "simulationEnable": true,
            "sourceTxnHash": "0x629e6866b8adf3de3e3c1115fa815270d21851249015f740e4912f2f8ce048e7",
            "status": true,
            "timestamp": "2019-09-14T08:09:44Z",
            "transactionFee": "0.0133092",
            "txnHash": "0x629e6866b8adf3de3e3c1115fa815270d21851249015f740e4912f2f8ce048e7",
            "txnIndex": 32,
            "type": 0,
            "value": "0"
        },
        "fund_flow": [
            {
                "amount": "0.01",
                "from": "0x0db16c4e6d4e9d77baa9aadb71f38a61b7b7ef72",
                "id": 1,
                "isERC1155": false,
                "isERC721": false,
                "isReverted": false,
                "order": 1,
                "to": "0xae9b8e05c22bae74d1e8db82c4af122b18050bd4",
                "token": "0x03cb0021808442ad5efb61197966aef72a1def96"
            },
            {
                "amount": "0.0009",
                "from": "0xae9b8e05c22bae74d1e8db82c4af122b18050bd4",
                "id": 2,
                "isERC1155": false,
                "isERC721": false,
                "isReverted": false,
                "order": 2,
                "to": "0x62a364f7cba3be8fc9dcfdde12cabec8244af381",
                "token": "0x03cb0021808442ad5efb61197966aef72a1def96"
            }
        ],
        "token_infos": [
            {
                "address": "0x03cb0021808442ad5efb61197966aef72a1def96",
                "decimals": 18
            },
            {
                "address": "0xc02aaa39b223fe8d0a0e5c4f27ead9083c756cc2",
                "decimals": 18
            },
            {
                "address": "0xeeeeeeeeeeeeeeeeeeeeeeeeeeeeeeeeeeeeeeee",
                "decimals": 18
            }
        ]
    },
    "address_label": {
        "labels": [
            {
                "address": "0x0000000000000000000000000000000000000002",
                "label": "Precompiled"
            },
            {
                "address": "0x0000000000000000000000000000000000000003",
                "label": "Precompiled"
            },
            {
                "address": "0x0000000000000000000000000000000000000004",
                "label": "Precompiled"
            },
            {
                "address": "0xeeeeeeeeeeeeeeeeeeeeeeeeeeeeeeeeeeeeeeee",
                "label": "Ether"
            },
            {
                "address": "0xae9b8e05c22bae74d1e8db82c4af122b18050bd4",
                "label": "Biigo2"
            },
            {
                "address": "0x03cb0021808442ad5efb61197966aef72a1def96",
                "label": "coToken (coToken)"
            },
            {
                "address": "0x0000000000000000000000000000000000000001",
                "label": "Precompiled"
            }
        ]
    },
    "trace": {
        "accountLabels": null,
        "dataMap": {
            "-1": {
                "invocation": {
                    "address": "0x0db16c4e6d4e9d77baa9aadb71f38a61b7b7ef72",
                    "callData": "",
                    "decodedMethod": null,
                    "errorInfo": "",
                    "fromAddress": "",
                    "gasUsed": 0,
                    "id": -1,
                    "methodDecoded": false,
                    "operation": "",
                    "output": "",
                    "revert": false,
                    "revertMessage": "",
                    "selector": "",
                    "status": false,
                    "value": ""
                },
                "nodeType": 0
            },
            "0": {
                "invocation": {
                    "address": "0xae9b8e05c22bae74d1e8db82c4af122b18050bd4",
                    "callData": "0x000000000000000000000000000000000000000000000000002386f26fc1000000000000000000000000000000000000000000000000000000000000000000080000000000000000000000000000000000000000000000000000000000000001000000000000000000000000000000000000000000000000000000000000000a",
                    "decodedMethod": {
                        "callParams": [
                            {
                                "name": "tokenId",
                                "type": "uint256",
                                "value": "10,000,000,000,000,000"
                            },
                            {
                                "name": "price",
                                "type": "uint256",
                                "value": "8"
                            },
                            {
                                "name": "safe",
                                "type": "bool",
                                "value": true
                            },
                            {
                                "name": "hookCount",
                                "type": "uint256",
                                "value": "10"
                            }
                        ],
                        "constructorArguments": "",
                        "name": "buy",
                        "returnParams": [],
                        "signature": "buy(uint256,uint256,bool,uint256)"
                    },
                    "errorInfo": "",
                    "fromAddress": "0x0db16c4e6d4e9d77baa9aadb71f38a61b7b7ef72",
                    "gasUsed": 443640,
                    "id": 0,
                    "methodDecoded": true,
                    "operation": "CALL",
                    "output": "",
                    "revert": false,
                    "revertMessage": "",
                    "selector": "0x29675f29",
                    "status": true,
                    "value": "0"
                },
                "nodeType": 0
            },
            "1": {
                "invocation": {
                    "address": "0x03cb0021808442ad5efb61197966aef72a1def96",
                    "callData": "0x0000000000000000000000000db16c4e6d4e9d77baa9aadb71f38a61b7b7ef72000000000000000000000000000000000000000000000000002386f26fc10000",
                    "decodedMethod": {
                        "callParams": [
                            {
                                "name": "_to",
                                "type": "address",
                                "value": "0x0db16c4e6d4e9d77baa9aadb71f38a61b7b7ef72"
                            },
                            {
                                "name": "_value",
                                "type": "uint256",
                                "value": "10,000,000,000,000,000"
                            }
                        ],
                        "constructorArguments": "",
                        "name": "deduct",
                        "returnParams": [
                            {
                                "name": "success",
                                "type": "bool",
                                "value": true
                            }
                        ],
                        "signature": "deduct(address,uint256)"
                    },
                    "errorInfo": "",
                    "fromAddress": "0xae9b8e05c22bae74d1e8db82c4af122b18050bd4",
                    "gasUsed": 14038,
                    "id": 1,
                    "methodDecoded": true,
                    "operation": "CALL",
                    "output": "0x0000000000000000000000000000000000000000000000000000000000000001",
                    "revert": false,
                    "revertMessage": "",
                    "selector": "0x47055321",
                    "status": true,
                    "value": "0"
                },
                "nodeType": 0
            },
            "2": {
                "event": {
                    "contract": "0x03cb0021808442ad5efb61197966aef72a1def96",
                    "decodedLog": {
                        "name": "Transfer",
                        "params": [
                            {
                                "name": "from",
                                "type": "address",
                                "value": "0x0db16c4e6d4e9d77baa9aadb71f38a61b7b7ef72"
                            },
                            {
                                "name": "to",
                                "type": "address",
                                "value": "0xae9b8e05c22bae74d1e8db82c4af122b18050bd4"
                            },
                            {
                                "decimalAvailable": true,
                                "name": "value",
                                "type": "uint256",
                                "value": "10,000,000,000,000,000"
                            }
                        ],
                        "signature": "Transfer(address,address,uint256)"
                    },
                    "id": 2,
                    "logData": "0x000000000000000000000000000000000000000000000000002386f26fc10000",
                    "logDecoded": true,
                    "operation": "EVENT",
                    "revert": false,
                    "status": true,
                    "topics": [
                        "0xddf252ad1be2c89b69c2b068fc378daa952ba7f163c4a11628f55a4df523b3ef",
                        "0x0000000000000000000000000db16c4e6d4e9d77baa9aadb71f38a61b7b7ef72",
                        "0x000000000000000000000000ae9b8e05c22bae74d1e8db82c4af122b18050bd4"
                    ]
                },
                "nodeType": 1
            },
            "3": {
                "invocation": {
                    "address": "0x62a364f7cba3be8fc9dcfdde12cabec8244af381",
                    "callData": "0x77286ff0da7a37baaa19b71b6fdcbcfe95521b7242b9431f1505bf272a4fff18000000000000000000000000000000000000000000000000000221b262dd8000000000000000000000000000000000000000000000000000000110d9316ec000",
                    "decodedMethod": null,
                    "errorInfo": "",
                    "fromAddress": "0xae9b8e05c22bae74d1e8db82c4af122b18050bd4",
                    "gasUsed": 33340,
                    "id": 3,
                    "methodDecoded": false,
                    "operation": "CALL",
                    "output": "",
                    "revert": false,
                    "revertMessage": "",
                    "selector": "0x7f2dc9b5",
                    "status": true,
                    "value": "0"
                },
                "nodeType": 0
            },
            "4": {
                "invocation": {
                    "address": "0x03cb0021808442ad5efb61197966aef72a1def96",
                    "callData": "0x000000000000000000000000ae9b8e05c22bae74d1e8db82c4af122b18050bd40000000000000000000000000000000000000000000000000003328b944c4000",
                    "decodedMethod": {
                        "callParams": [
                            {
                                "name": "_to",
                                "type": "address",
                                "value": "0xae9b8e05c22bae74d1e8db82c4af122b18050bd4"
                            },
                            {
                                "name": "_value",
                                "type": "uint256",
                                "value": "900,000,000,000,000"
                            }
                        ],
                        "constructorArguments": "",
                        "name": "deduct",
                        "returnParams": [
                            {
                                "name": "success",
                                "type": "bool",
                                "value": true
                            }
                        ],
                        "signature": "deduct(address,uint256)"
                    },
                    "errorInfo": "",
                    "fromAddress": "0x62a364f7cba3be8fc9dcfdde12cabec8244af381",
                    "gasUsed": 14038,
                    "id": 4,
                    "methodDecoded": true,
                    "operation": "CALL",
                    "output": "0x0000000000000000000000000000000000000000000000000000000000000001",
                    "revert": false,
                    "revertMessage": "",
                    "selector": "0x47055321",
                    "status": true,
                    "value": "0"
                },
                "nodeType": 0
            },
            "5": {
                "event": {
                    "contract": "0x03cb0021808442ad5efb61197966aef72a1def96",
                    "decodedLog": {
                        "name": "Transfer",
                        "params": [
                            {
                                "name": "from",
                                "type": "address",
                                "value": "0xae9b8e05c22bae74d1e8db82c4af122b18050bd4"
                            },
                            {
                                "name": "to",
                                "type": "address",
                                "value": "0x62a364f7cba3be8fc9dcfdde12cabec8244af381"
                            },
                            {
                                "decimalAvailable": true,
                                "name": "value",
                                "type": "uint256",
                                "value": "900,000,000,000,000"
                            }
                        ],
                        "signature": "Transfer(address,address,uint256)"
                    },
                    "id": 5,
                    "logData": "0x0000000000000000000000000000000000000000000000000003328b944c4000",
                    "logDecoded": true,
                    "operation": "EVENT",
                    "revert": false,
                    "status": true,
                    "topics": [
                        "0xddf252ad1be2c89b69c2b068fc378daa952ba7f163c4a11628f55a4df523b3ef",
                        "0x000000000000000000000000ae9b8e05c22bae74d1e8db82c4af122b18050bd4",
                        "0x00000000000000000000000062a364f7cba3be8fc9dcfdde12cabec8244af381"
                    ]
                },
                "nodeType": 1
            }
        },
        "gasFlame": [
            {
                "children": [
                    {
                        "children": [
                            {
                                "children": [],
                                "depth": 0,
                                "name": "Initial Gas",
                                "value": 22296
                            },
                            {
                                "children": [
                                    {
                                        "children": [],
                                        "depth": 1,
                                        "name": "deduct",
                                        "value": 14038
                                    },
                                    {
                                        "children": [
                                            {
                                                "children": [],
                                                "depth": 2,
                                                "name": "deduct",
                                                "value": 14038
                                            }
                                        ],
                                        "depth": 1,
                                        "name": "0x7f2dc9b5",
                                        "value": 33340
                                    }
                                ],
                                "depth": 0,
                                "name": "Executed Gas",
                                "value": 421344
                            }
                        ],
                        "depth": -1,
                        "name": "Actual Gas Used",
                        "value": 443640
                    },
                    {
                        "children": [],
                        "depth": -1,
                        "name": "Refunded Gas",
                        "value": 0
                    }
                ],
                "depth": -2,
                "name": "Total Gas",
                "value": 443640
            }
        ],
        "isConfirmed": true,
        "mainTrace": [
            {
                "children": [
                    {
                        "children": [
                            {
                                "children": [
                                    {
                                        "children": [],
                                        "depth": 2,
                                        "id": 2,
                                        "order": 2
                                    }
                                ],
                                "depth": 1,
                                "id": 1,
                                "order": 1
                            },
                            {
                                "children": [
                                    {
                                        "children": [
                                            {
                                                "children": [],
                                                "depth": 3,
                                                "id": 5,
                                                "order": 5
                                            }
                                        ],
                                        "depth": 2,
                                        "id": 4,
                                        "order": 4
                                    }
                                ],
                                "depth": 1,
                                "id": 3,
                                "order": 3
                            }
                        ],
                        "depth": 0,
                        "id": 0,
                        "order": 0
                    }
                ],
                "depth": -1,
                "id": -1,
                "order": -1
            }
        ],
        "mainTraceNodeCount": 6,
        "parentIdMap": {
            "0": -1,
            "1": 0,
            "2": 1,
            "3": 0,
            "4": 3,
            "5": 4
        },
        "tidyTrace": [
            {
                "children": [
                    {
                        "children": [
                            {
                                "children": [
                                    {
                                        "children": [],
                                        "depth": 2,
                                        "id": 2,
                                        "order": 2
                                    }
                                ],
                                "depth": 1,
                                "id": 1,
                                "order": 1
                            },
                            {
                                "children": [
                                    {
                                        "children": [
                                            {
                                                "children": [],
                                                "depth": 3,
                                                "id": 5,
                                                "order": 5
                                            }
                                        ],
                                        "depth": 2,
                                        "id": 4,
                                        "order": 4
                                    }
                                ],
                                "depth": 1,
                                "id": 3,
                                "order": 3
                            }
                        ],
                        "depth": 0,
                        "id": 0,
                        "order": 0
                    }
                ],
                "depth": -1,
                "id": -1,
                "order": -1
            }
        ],
        "tidyTraceNodeCount": 6
    },
    "state_change": {
        "stateChanges": [
            {
                "address": "0x03cb0021808442ad5efb61197966aef72a1def96",
                "erc": "",
                "slots": [
                    {
                        "current": "0x0000000000000000000000000000000000000000000000000002ec30bfe8dbff",
                        "key": "0xd344ab34845cfda05aae1c8062f8a273653d21bf41c2cb1969d070794f3442d3",
                        "prev": "0x000000000000000000000000000000000000000000000000002673232fa9dbff"
                    },
                    {
                        "current": "0x00000000000000000000000000000000000000000000001a011c7cef31e48541",
                        "key": "0x185346adec82a13a5fc08c7d533e8c80399779c28b22f298647f4f0c87c5c363",
                        "prev": "0x00000000000000000000000000000000000000000000001a00fc2888566fc541"
                    },
                    {
                        "current": "0x000000000000000000000000000000000000000000000026012fd8b723f28000",
                        "key": "0x2ae1781e2b15e18335d21665ed35f55f4489bb9a28dc7e5c8dd1f7abd6dbaf1c",
                        "prev": "0x000000000000000000000000000000000000000000000026012ca62b8fa64000"
                    }
                ],
                "storageVariables": []
            },
            {
                "address": "0x62a364f7cba3be8fc9dcfdde12cabec8244af381",
                "erc": "",
                "slots": [
                    {
                        "current": "0x000000000000000000000000000000000000000000000000002cc3a21c2b8000",
                        "key": "0xb8a8a638ab72cfbdcc738dba726bcc5906e32621cdba6dcad6deb6ffa26f8e9a",
                        "prev": "0x000000000000000000000000000000000000000000000000002aa1efb94e0000"
                    },
                    {
                        "current": "0x000000000000000000000000000000000000000000000000011a70d42ba4c000",
                        "key": "0x904f3e7870bf623f7ecb940ab641150efffc0c3845c7a1660a1629f0797b2574",
                        "prev": "0x00000000000000000000000000000000000000000000000001195ffafa360000"
                    },
                    {
                        "current": "0x000000000000000000000000000000000000000000000001170151a980278000",
                        "key": "0xe56f3910cded587a8abfd5f36c0580fe8097b6211e492d6ea4ab044344a2e74d",
                        "prev": "0x00000000000000000000000000000000000000000000000116ff2ff71d4a0000"
                    }
                ],
                "storageVariables": []
            },
            {
                "address": "0xae9b8e05c22bae74d1e8db82c4af122b18050bd4",
                "erc": "",
                "slots": [
                    {
                        "current": "0x00000000000000000000000000000000000000000000000e13a5293599af0000",
                        "key": "0x17f8b0efd612c57465217ed644a1985def4f317a7b38176a318b5be39e154f21",
                        "prev": "0x00000000000000000000000000000000000000000000000e1381a24329ee0000"
                    },
                    {
                        "current": "0x000000000000000000000000000000000000000000000000000f0c0800003017",
                        "key": "0x8dcb741ffb567c8bad77f3302dbe954e7243d301b9391d110886095ce742da37",
                        "prev": "0x000000000000000000000000000000000000000000000000000e0b0700003016"
                    },
                    {
                        "current": "0x0000000000000000000000000000000100cc080d000000005d7ca04800003017",
                        "key": "0x9b15131f1b94cb6b0fdd220d3e705b075eb5f99d3945bf5bd590a25a2efb0604",
                        "prev": "0x0000000000000000000000000000000100020a15000000005d74a9e700002ef5"
                    },
                    {
                        "current": "0x0000000100cd00cc000030170db16c4e6d4e9d77baa9aadb71f38a61b7b7ef72",
                        "key": "0xd07a19c486cb747bd3d658edc655ff483f73e5ca945143237fdef1c0ac05f40f",
                        "prev": "0x0000006402bc025800002ff153157f0fe21628bb53d453ddbfd2d1d63067018d"
                    },
                    {
                        "current": "0x000000000000000000000000000000000000000700000000000000cd00002ff5",
                        "key": "0x0000000000000000000000000000000000000000000000000000000000000018",
                        "prev": "0x000000000000000000000000000000000000000600000000000000cc00002ff5"
                    },
                    {
                        "current": "0x0000000000000000000000000000000000000000000000000000000000000108",
                        "key": "0x0000000000000000000000000000000000000000000000000000000000000006",
                        "prev": "0x0000000000000000000000000000000000000000000000000000000000000107"
                    }
                ],
                "storageVariables": []
            }
        ]
    }
}