{
    "balance_change": {
        "balanceChanges": [
            {
                "account": "0x3c02290922a3618a4646e3bbca65853ea45fe7c6",
                "assets": [
                    {
                        "address": "0xba100000625a3754423978a60c9317c58a424e3d",
                        "amount": "105.105",
                        "iconUrl": "https://assets.blocksec.com/icon/c54e5d3686cfdcd5b83c30277395a4080808ff7cc373adffe8bd60843e2b8a99.png",
                        "isERC1155": false,
                        "isERC721": false,
                        "sign": false,
                        "value": ""
                    }
                ]
            },
            {
                "account": "0xb79892aa05d53b36f39c3cf9a338fc5f9d003159",
                "assets": [
                    {
                        "address": "0xba100000625a3754423978a60c9317c58a424e3d",
                        "amount": "105.105",
                        "iconUrl": "https://assets.blocksec.com/icon/c54e5d3686cfdcd5b83c30277395a4080808ff7cc373adffe8bd60843e2b8a99.png",
                        "isERC1155": false,
                        "isERC721": false,
                        "sign": true,
                        "value": ""
                    }
                ]
            }
        ]
    },
    "profile": {
        "basic_info": {
            "baseFee": "26.794405343",
            "blockNumber": 13067977,
            "callData": "0xa9059cbb000000000000000000000000b79892aa05d53b36f39c3cf9a338fc5f9d003159000000000000000000000000000000000000000000000005b29ff8a13d6e8000",
            "debugEnable": true,
            "errorInfo": "",
            "eventCount": 1,
            "feeRecipient": "0xb7e390864a90b7b923c9f9310c6f98aafe43f707",
            "formatValue": "0",
            "gasLimit": 110000,
            "gasPrice": "36.894405343",
            "gasUsed": 59455,
            "intTxnCount": 0,
            "internalRevert": false,
            "internalRevertMessage": "",
            "isContractCreation": false,
            "isFlashloan": false,
            "maxFee": "42.6",
            "nonce": 524772,
            "overwritedBlockNumber": -1,
            "priorityFee": "10.1",
            "receiver": "0xba100000625a3754423978a60c9317c58a424e3d",
            "revertMessage": "",
            "sender": "0x3c02290922a3618a4646e3bbca65853ea45fe7c6",
            "simulationEnable": true,
            "sourceTxnHash": "0x62613efa83e6d480b1bbcbb1f0860256cff667097567307c95232dd14aab5ce3",
            "status": true,
            "timestamp": "2021-08-21T10:06:58Z",
            "transactionFee": "0.002193556869668065",
            "txnHash": "0x62613efa83e6d480b1bbcbb1f0860256cff667097567307c95232dd14aab5ce3",
            "txnIndex": 30,
            "type": 2,
            "value": "0"
        },
        "fund_flow": [
            {
                "amount": "105.105",
                "from": "0x3c02290922a3618a4646e3bbca65853ea45fe7c6",
                "id": 1,
                "isERC1155": false,
                "isERC721": false,
                "isReverted": false,
                "order": 1,
                "to": "0xb79892aa05d53b36f39c3cf9a338fc5f9d003159",
                "token": "0xba100000625a3754423978a60c9317c58a424e3d"
            }
        ],
        "token_infos": [
            {
                "address": "0xba100000625a3754423978a60c9317c58a424e3d",
                "decimals": 18
            },
            {
                "address": "0xc02aaa39b223fe8d0a0e5c4f27ead9083c756cc2",
                "decimals": 18
            },
            {
                "address": "0xeeeeeeeeeeeeeeeeeeeeeeeeeeeeeeeeeeeeeeee",
                "decimals": 18
            }
        ]
    },
    "address_label": {
        "labels": [
            {
                "address": "0x0000000000000000000000000000000000000002",
                "label": "Precompiled"
            },
            {
                "address": "0x0000000000000000000000000000000000000003",
                "label": "Precompiled"
            },
            {
                "address": "0x0000000000000000000000000000000000000004",
                "label": "Precompiled"
            },
            {
                "address": "0xeeeeeeeeeeeeeeeeeeeeeeeeeeeeeeeeeeeeeeee",
                "label": "Ether"
            },
            {
                "address": "0xb79892aa05d53b36f39c3cf9a338fc5f9d003159",
                "label": "BINANCE"
            },
            {
                "address": "0xba100000625a3754423978a60c9317c58a424e3d",
                "label": "Balancer: BAL Token"
            },
            {
                "address": "0x3c02290922a3618a4646e3bbca65853ea45fe7c6",
                "label": "Indodax 5"
            },
            {
                "address": "0x0000000000000000000000000000000000000001",
                "label": "Precompiled"
            }
        ]
    },
    "trace": {
        "accountLabels": null,
        "dataMap": {
            "-1": {
                "invocation": {
                    "address": "0x3c02290922a3618a4646e3bbca65853ea45fe7c6",
                    "callData": "",
                    "decodedMethod": null,
                    "errorInfo": "",
                    "fromAddress": "",
                    "gasUsed": 0,
                    "id": -1,
                    "methodDecoded": false,
                    "operation": "",
                    "output": "",
                    "revert": false,
                    "revertMessage": "",
                    "selector": "",
                    "status": false,
                    "value": ""
                },
                "nodeType": 0
            },
            "0": {
                "invocation": {
                    "address": "0xba100000625a3754423978a60c9317c58a424e3d",
                    "callData": "0x000000000000000000000000b79892aa05d53b36f39c3cf9a338fc5f9d003159000000000000000000000000000000000000000000000005b29ff8a13d6e8000",
                    "decodedMethod": {
                        "callParams": [
                            {
                                "name": "recipient",
                                "type": "address",
                                "value": "0xb79892aa05d53b36f39c3cf9a338fc5f9d003159"
                            },
                            {
                                "decimalAvailable": true,
                                "name": "amount",
                                "type": "uint256",
                                "value": "105,105,000,000,000,000,000"
                            }
                        ],
                        "constructorArguments": "",
                        "name": "transfer",
                        "returnParams": [
                            {
                                "name": "",
                                "type": "bool",
                                "value": true
                            }
                        ],
                        "signature": "transfer(address,uint256)"
                    },
                    "errorInfo": "",
                    "fromAddress": "0x3c02290922a3618a4646e3bbca65853ea45fe7c6",
                    "gasUsed": 59455,
                    "id": 0,
                    "methodDecoded": true,
                    "operation": "CALL",
                    "output": "0x0000000000000000000000000000000000000000000000000000000000000001",
                    "revert": false,
                    "revertMessage": "",
                    "selector": "0xa9059cbb",
                    "status": true,
                    "value": "0"
                },
                "nodeType": 0
            },
            "1": {
                "event": {
                    "contract": "0xba100000625a3754423978a60c9317c58a424e3d",
                    "decodedLog": {
                        "name": "Transfer",
                        "params": [
                            {
                                "name": "from",
                                "type": "address",
                                "value": "0x3c02290922a3618a4646e3bbca65853ea45fe7c6"
                            },
                            {
                                "name": "to",
                                "type": "address",
                                "value": "0xb79892aa05d53b36f39c3cf9a338fc5f9d003159"
                            },
                            {
                                "decimalAvailable": true,
                                "name": "value",
                                "type": "uint256",
                                "value": "105,105,000,000,000,000,000"
                            }
                        ],
                        "signature": "Transfer(address,address,uint256)"
                    },
                    "id": 1,
                    "logData": "0x000000000000000000000000000000000000000000000005b29ff8a13d6e8000",
                    "logDecoded": true,
                    "operation": "EVENT",
                    "revert": false,
                    "status": true,
                    "topics": [
                        "0xddf252ad1be2c89b69c2b068fc378daa952ba7f163c4a11628f55a4df523b3ef",
                        "0x0000000000000000000000003c02290922a3618a4646e3bbca65853ea45fe7c6",
                        "0x000000000000000000000000b79892aa05d53b36f39c3cf9a338fc5f9d003159"
                    ]
                },
                "nodeType": 1
            }
        },
        "gasFlame": [
            {
                "children": [
                    {
                        "children": [
                            {
                                "children": [],
                                "depth": 0,
                                "name": "Initial Gas",
                                "value": 21644
                            },
                            {
                                "children": [],
                                "depth": 0,
                                "name": "Executed Gas",
                                "value": 37811
                            }
                        ],
                        "depth": -1,
                        "name": "Actual Gas Used",
                        "value": 59455
                    },
                    {
                        "children": [],
                        "depth": -1,
                        "name": "Refunded Gas",
                        "value": 0
                    }
                ],
                "depth": -2,
                "name": "Total Gas",
                "value": 59455
            }
        ],
        "isConfirmed": true,
        "mainTrace": [
            {
                "children": [
                    {
                        "children": [
                            {
                                "children": [],
                                "depth": 1,
                                "id": 1,
                                "order": 1
                            }
                        ],
                        "depth": 0,
                        "id": 0,
                        "order": 0
                    }
                ],
                "depth": -1,
                "id": -1,
                "order": -1
            }
        ],
        "mainTraceNodeCount": 2,
        "parentIdMap": {
            "0": -1,
            "1": 0
        },
        "tidyTrace": [
            {
                "children": [
                    {
                        "children": [
                            {
                                "children": [],
                                "depth": 1,
                                "id": 1,
                                "order": 1
                            }
                        ],
                        "depth": 0,
                        "id": 0,
                        "order": 0
                    }
                ],
                "depth": -1,
                "id": -1,
                "order": -1
            }
        ],
        "tidyTraceNodeCount": 2
    },
    "state_change": {
        "stateChanges": [
            {
                "address": "0xba100000625a3754423978a60c9317c58a424e3d",
                "erc": "ERC-20",
                "slots": [
                    {
                        "current": "0x00000000000000000000000000000000000000000000007fc4be312d97154c00",
                        "key": "0xee6816aebd1ef108c406d3e964fd5703c7d294df2edbb50a90ed6b5ce98897fb",
                        "prev": "0x000000000000000000000000000000000000000000000085775e29ced483cc00"
                    },
                    {
                        "current": "0x000000000000000000000000000000000000000000000005b29ff8a13d6e8000",
                        "key": "0x6beb9d8746742f7aaf813aa778c1df8ef1808cc06088d1e5a13c8cab07758d6a",
                        "prev": "0x0000000000000000000000000000000000000000000000000000000000000000"
                    }
                ],
                "storageVariables": [
                    {
                        "name": "_balances",
                        "type": "mapping(address => uint256)",
                        "value": {
                            "pairs": [
                                {
                                    "key": "0x3c02290922a3618a4646e3bbca65853ea45fe7c6",
                                    "value": {
                                        "current": "2356913320110000000000",
                                        "prev": "2462018320110000000000",
                                        "typeTag": 1
                                    }
                                },
                                {
                                    "key": "0xb79892aa05d53b36f39c3cf9a338fc5f9d003159",
                                    "value": {
                                        "current": "105105000000000000000",
                                        "prev": "0",
                                        "typeTag": 1
                                    }
                                }
                            ],
                            "typeTag": 4
                        }
                    }
                ]
            }
        ]
    }
}