{
    "balance_change": {
        "balanceChanges": [
            {
                "account": "0xe4e649745c3c1519eefad431fd164b37efbee35b",
                "assets": [
                    {
                        "address": "0xdac17f958d2ee523a2206206994597c13d831ec7",
                        "amount": "30",
                        "iconUrl": "https://assets.blocksec.com/icon/fcea71f3193ce895be44bfdf941f7e4c9381dd587f273c2d1a27f1263d84e4ea.png",
                        "isERC1155": false,
                        "isERC721": false,
                        "sign": false,
                        "value": "30"
                    },
                    {
                        "address": "0x3e985250cb137fc1ff55922116934c5982d29f85",
                        "amount": "765.664536135149713366",
                        "iconUrl": "",
                        "isERC1155": false,
                        "isERC721": false,
                        "sign": true,
                        "value": "29.72663699"
                    }
                ]
            },
            {
                "account": "0x135a410f1d6384ac86a448db8c1eaca4be02e6c2",
                "assets": [
                    {
                        "address": "0xdac17f958d2ee523a2206206994597c13d831ec7",
                        "amount": "30",
                        "iconUrl": "https://assets.blocksec.com/icon/fcea71f3193ce895be44bfdf941f7e4c9381dd587f273c2d1a27f1263d84e4ea.png",
                        "isERC1155": false,
                        "isERC721": false,
                        "sign": true,
                        "value": "30"
                    },
                    {
                        "address": "0x3e985250cb137fc1ff55922116934c5982d29f85",
                        "amount": "767.583494872330539715",
                        "iconUrl": "",
                        "isERC1155": false,
                        "isERC721": false,
                        "sign": false,
                        "value": "29.79544601"
                    }
                ]
            },
            {
                "account": "0x37a8f295612602f2774d331e562be9e61b83a327",
                "assets": [
                    {
                        "address": "0x3e985250cb137fc1ff55922116934c5982d29f85",
                        "amount": "1.918958737180826349",
                        "iconUrl": "",
                        "isERC1155": false,
                        "isERC721": false,
                        "sign": true,
                        "value": "0.08454633"
                    }
                ]
            }
        ]
    },
    "profile": {
        "basic_info": {
            "baseFee": "4.619777981",
            "blockNumber": 19757838,
            "callData": "0x3593564c000000000000000000000000000000000000000000000000000000000000006000000000000000000000000000000000000000000000000000000000000000a000000000000000000000000000000000000000000000000000000000662f00f3000000000000000000000000000000000000000000000000000000000000000308060400000000000000000000000000000000000000000000000000000000000000000000000000000000000000000000000000000000000000000000000003000000000000000000000000000000000000000000000000000000000000006000000000000000000000000000000000000000000000000000000000000001800000000000000000000000000000000000000000000000000000000000000200000000000000000000000000000000000000000000000000000000000000010000000000000000000000000000000000000000000000000000000000000000020000000000000000000000000000000000000000000000000000000001c9c380000000000000000000000000000000000000000000000027a11b07c4338e2a3f00000000000000000000000000000000000000000000000000000000000000a000000000000000000000000000000000000000000000000000000000000000010000000000000000000000000000000000000000000000000000000000000002000000000000000000000000dac17f958d2ee523a2206206994597c13d831ec70000000000000000000000003e985250cb137fc1ff55922116934c5982d29f8500000000000000000000000000000000000000000000000000000000000000600000000000000000000000003e985250cb137fc1ff55922116934c5982d29f8500000000000000000000000037a8f295612602f2774d331e562be9e61b83a327000000000000000000000000000000000000000000000000000000000000001900000000000000000000000000000000000000000000000000000000000000600000000000000000000000003e985250cb137fc1ff55922116934c5982d29f85000000000000000000000000000000000000000000000000000000000000000100000000000000000000000000000000000000000000002787be29aac039f838",
            "debugEnable": true,
            "errorInfo": "",
            "eventCount": 6,
            "feeRecipient": "0x1f9090aae28b8a3dceadf281b0f12828e676c326",
            "formatValue": "0",
            "gasLimit": 209464,
            "gasPrice": "4.623720078",
            "gasUsed": 145907,
            "intTxnCount": 14,
            "internalRevert": false,
            "internalRevertMessage": "",
            "isContractCreation": false,
            "isFlashloan": false,
            "maxFee": "6.479807282",
            "nonce": 84,
            "overwritedBlockNumber": -1,
            "priorityFee": "0.003942097",
            "receiver": "0x3fc91a3afd70395cd496c647d5a6cc9d4b2b7fad",
            "revertMessage": "",
            "sender": "0xe4e649745c3c1519eefad431fd164b37efbee35b",
            "simulationEnable": true,
            "sourceTxnHash": "0x629906c87146c2947f887441b400f3148ff6f20591f4d9b09239f1ee9a888719",
            "status": true,
            "timestamp": "2024-04-29T01:58:35Z",
            "transactionFee": "0.000674633125420746",
            "txnHash": "0x629906c87146c2947f887441b400f3148ff6f20591f4d9b09239f1ee9a888719",
            "txnIndex": 64,
            "type": 2,
            "value": "0"
        },
        "fund_flow": [
            {
                "amount": "30",
                "from": "0xe4e649745c3c1519eefad431fd164b37efbee35b",
                "id": 1,
                "isERC1155": false,
                "isERC721": false,
                "isReverted": false,
                "order": 1,
                "to": "0x135a410f1d6384ac86a448db8c1eaca4be02e6c2",
                "token": "0xdac17f958d2ee523a2206206994597c13d831ec7"
            },
            {
                "amount": "767.583494872330539715",
                "from": "0x135a410f1d6384ac86a448db8c1eaca4be02e6c2",
                "id": 2,
                "isERC1155": false,
                "isERC721": false,
                "isReverted": false,
                "order": 2,
                "to": "0x3fc91a3afd70395cd496c647d5a6cc9d4b2b7fad",
                "token": "0x3e985250cb137fc1ff55922116934c5982d29f85"
            },
            {
                "amount": "1.918958737180826349",
                "from": "0x3fc91a3afd70395cd496c647d5a6cc9d4b2b7fad",
                "id": 3,
                "isERC1155": false,
                "isERC721": false,
                "isReverted": false,
                "order": 3,
                "to": "0x37a8f295612602f2774d331e562be9e61b83a327",
                "token": "0x3e985250cb137fc1ff55922116934c5982d29f85"
            },
            {
                "amount": "765.664536135149713366",
                "from": "0x3fc91a3afd70395cd496c647d5a6cc9d4b2b7fad",
                "id": 4,
                "isERC1155": false,
                "isERC721": false,
                "isReverted": false,
                "order": 4,
                "to": "0xe4e649745c3c1519eefad431fd164b37efbee35b",
                "token": "0x3e985250cb137fc1ff55922116934c5982d29f85"
            }
        ],
        "token_infos": [
            {
                "address": "0xc02aaa39b223fe8d0a0e5c4f27ead9083c756cc2",
                "decimals": 18
            },
            {
                "address": "0xdac17f958d2ee523a2206206994597c13d831ec7",
                "decimals": 6
            },
            {
                "address": "0xeeeeeeeeeeeeeeeeeeeeeeeeeeeeeeeeeeeeeeee",
                "decimals": 18
            },
            {
                "address": "0x3e985250cb137fc1ff55922116934c5982d29f85",
                "decimals": 18
            }
        ]
    },
    "address_label": {
        "labels": [
            {
                "address": "0x0000000000000000000000000000000000000003",
                "label": "Precompiled"
            },
            {
                "address": "0x0000000000000000000000000000000000000004",
                "label": "Precompiled"
            },
            {
                "address": "0x3fc91a3afd70395cd496c647d5a6cc9d4b2b7fad",
                "label": "Uniswap: Universal Router"
            },
            {
                "address": "0xdac17f958d2ee523a2206206994597c13d831ec7",
                "label": "Tether: USDT Stablecoin"
            },
            {
                "address": "0x3e985250cb137fc1ff55922116934c5982d29f85",
                "label": "Zentu: ZENT Token"
            },
            {
                "address": "0x0000000000000000000000000000000000000001",
                "label": "Precompiled"
            },
            {
                "address": "0x0000000000000000000000000000000000000002",
                "label": "Precompiled"
            },
            {
                "address": "0xeeeeeeeeeeeeeeeeeeeeeeeeeeeeeeeeeeeeeeee",
                "label": "Ether"
            },
            {
                "address": "0x000000000022d473030f116ddee9f6b43ac78ba3",
                "label": "Permit2"
            },
            {
                "address": "0x135a410f1d6384ac86a448db8c1eaca4be02e6c2",
                "label": "Uniswap V2: ZENT-USDT"
            }
        ]
    },
    "trace": {
        "accountLabels": null,
        "dataMap": {
            "-1": {
                "invocation": {
                    "address": "0xe4e649745c3c1519eefad431fd164b37efbee35b",
                    "callData": "",
                    "decodedMethod": null,
                    "errorInfo": "",
                    "fromAddress": "",
                    "gasUsed": 0,
                    "id": -1,
                    "methodDecoded": false,
                    "operation": "",
                    "output": "",
                    "revert": false,
                    "revertMessage": "",
                    "selector": "",
                    "status": false,
                    "value": ""
                },
                "nodeType": 0
            },
            "0": {
                "invocation": {
                    "address": "0x3fc91a3afd70395cd496c647d5a6cc9d4b2b7fad",
                    "callData": "0x000000000000000000000000000000000000000000000000000000000000006000000000000000000000000000000000000000000000000000000000000000a000000000000000000000000000000000000000000000000000000000662f00f3000000000000000000000000000000000000000000000000000000000000000308060400000000000000000000000000000000000000000000000000000000000000000000000000000000000000000000000000000000000000000000000003000000000000000000000000000000000000000000000000000000000000006000000000000000000000000000000000000000000000000000000000000001800000000000000000000000000000000000000000000000000000000000000200000000000000000000000000000000000000000000000000000000000000010000000000000000000000000000000000000000000000000000000000000000020000000000000000000000000000000000000000000000000000000001c9c380000000000000000000000000000000000000000000000027a11b07c4338e2a3f00000000000000000000000000000000000000000000000000000000000000a000000000000000000000000000000000000000000000000000000000000000010000000000000000000000000000000000000000000000000000000000000002000000000000000000000000dac17f958d2ee523a2206206994597c13d831ec70000000000000000000000003e985250cb137fc1ff55922116934c5982d29f8500000000000000000000000000000000000000000000000000000000000000600000000000000000000000003e985250cb137fc1ff55922116934c5982d29f8500000000000000000000000037a8f295612602f2774d331e562be9e61b83a327000000000000000000000000000000000000000000000000000000000000001900000000000000000000000000000000000000000000000000000000000000600000000000000000000000003e985250cb137fc1ff55922116934c5982d29f85000000000000000000000000000000000000000000000000000000000000000100000000000000000000000000000000000000000000002787be29aac039f838",
                    "decodedMethod": {
                        "callParams": [
                            {
                                "name": "commands",
                                "type": "bytes",
                                "value": "0x080604"
                            },
                            {
                                "name": "inputs",
                                "type": "bytes[]",
                                "value": [
                                    "0x00000000000000000000000000000000000000000000000000000000000000020000000000000000000000000000000000000000000000000000000001c9c380000000000000000000000000000000000000000000000027a11b07c4338e2a3f00000000000000000000000000000000000000000000000000000000000000a000000000000000000000000000000000000000000000000000000000000000010000000000000000000000000000000000000000000000000000000000000002000000000000000000000000dac17f958d2ee523a2206206994597c13d831ec70000000000000000000000003e985250cb137fc1ff55922116934c5982d29f85",
                                    "0x0000000000000000000000003e985250cb137fc1ff55922116934c5982d29f8500000000000000000000000037a8f295612602f2774d331e562be9e61b83a3270000000000000000000000000000000000000000000000000000000000000019",
                                    "0x0000000000000000000000003e985250cb137fc1ff55922116934c5982d29f85000000000000000000000000000000000000000000000000000000000000000100000000000000000000000000000000000000000000002787be29aac039f838"
                                ]
                            },
                            {
                                "name": "deadline",
                                "type": "uint256",
                                "value": "1,714,356,467"
                            }
                        ],
                        "constructorArguments": "",
                        "name": "execute",
                        "returnParams": [],
                        "signature": "execute(bytes,bytes[],uint256)"
                    },
                    "errorInfo": "",
                    "fromAddress": "0xe4e649745c3c1519eefad431fd164b37efbee35b",
                    "gasUsed": 145907,
                    "id": 0,
                    "methodDecoded": true,
                    "operation": "CALL",
                    "output": "",
                    "revert": false,
                    "revertMessage": "",
                    "selector": "0x3593564c",
                    "status": true,
                    "value": "0"
                },
                "nodeType": 0
            },
            "1": {
                "invocation": {
                    "address": "0x000000000022d473030f116ddee9f6b43ac78ba3",
                    "callData": "0x000000000000000000000000e4e649745c3c1519eefad431fd164b37efbee35b000000000000000000000000135a410f1d6384ac86a448db8c1eaca4be02e6c20000000000000000000000000000000000000000000000000000000001c9c380000000000000000000000000dac17f958d2ee523a2206206994597c13d831ec7",
                    "decodedMethod": {
                        "callParams": [
                            {
                                "name": "from",
                                "type": "address",
                                "value": "0xe4e649745c3c1519eefad431fd164b37efbee35b"
                            },
                            {
                                "name": "to",
                                "type": "address",
                                "value": "0x135a410f1d6384ac86a448db8c1eaca4be02e6c2"
                            },
                            {
                                "name": "amount",
                                "type": "uint160",
                                "value": "30,000,000"
                            },
                            {
                                "name": "token",
                                "type": "address",
                                "value": "0xdac17f958d2ee523a2206206994597c13d831ec7"
                            }
                        ],
                        "constructorArguments": "",
                        "name": "transferFrom",
                        "returnParams": [],
                        "signature": "transferFrom(address,address,uint160,address)"
                    },
                    "errorInfo": "",
                    "fromAddress": "0x3fc91a3afd70395cd496c647d5a6cc9d4b2b7fad",
                    "gasUsed": 32237,
                    "id": 1,
                    "methodDecoded": true,
                    "operation": "CALL",
                    "output": "",
                    "revert": false,
                    "revertMessage": "",
                    "selector": "0x36c78516",
                    "status": true,
                    "value": "0"
                },
                "nodeType": 0
            },
            "10": {
                "invocation": {
                    "address": "0x3e985250cb137fc1ff55922116934c5982d29f85",
                    "callData": "0x000000000000000000000000135a410f1d6384ac86a448db8c1eaca4be02e6c2",
                    "decodedMethod": {
                        "callParams": [
                            {
                                "name": "account",
                                "type": "address",
                                "value": "0x135a410f1d6384ac86a448db8c1eaca4be02e6c2"
                            }
                        ],
                        "constructorArguments": "",
                        "name": "balanceOf",
                        "returnParams": [
                            {
                                "decimalAvailable": true,
                                "name": "",
                                "type": "uint256",
                                "value": "8,010,065,099,885,681,661,096,100"
                            }
                        ],
                        "signature": "balanceOf(address)"
                    },
                    "errorInfo": "",
                    "fromAddress": "0x135a410f1d6384ac86a448db8c1eaca4be02e6c2",
                    "gasUsed": 608,
                    "id": 10,
                    "methodDecoded": true,
                    "operation": "STATICCALL",
                    "output": "0x00000000000000000000000000000000000000000006a0327fc87244c832b0a4",
                    "revert": false,
                    "revertMessage": "",
                    "selector": "0x70a08231",
                    "status": true,
                    "value": "0"
                },
                "nodeType": 0
            },
            "11": {
                "invocation": {
                    "address": "0xdac17f958d2ee523a2206206994597c13d831ec7",
                    "callData": "0x000000000000000000000000135a410f1d6384ac86a448db8c1eaca4be02e6c2",
                    "decodedMethod": {
                        "callParams": [
                            {
                                "name": "who",
                                "type": "address",
                                "value": "0x135a410f1d6384ac86a448db8c1eaca4be02e6c2"
                            }
                        ],
                        "constructorArguments": "",
                        "name": "balanceOf",
                        "returnParams": [
                            {
                                "decimalAvailable": true,
                                "name": "",
                                "type": "uint256",
                                "value": "312,153,760,787"
                            }
                        ],
                        "signature": "balanceOf(address)"
                    },
                    "errorInfo": "",
                    "fromAddress": "0x135a410f1d6384ac86a448db8c1eaca4be02e6c2",
                    "gasUsed": 1031,
                    "id": 11,
                    "methodDecoded": true,
                    "operation": "STATICCALL",
                    "output": "0x00000000000000000000000000000000000000000000000000000048add06413",
                    "revert": false,
                    "revertMessage": "",
                    "selector": "0x70a08231",
                    "status": true,
                    "value": "0"
                },
                "nodeType": 0
            },
            "12": {
                "event": {
                    "contract": "0x135a410f1d6384ac86a448db8c1eaca4be02e6c2",
                    "decodedLog": {
                        "name": "Sync",
                        "params": [
                            {
                                "name": "reserve0",
                                "type": "uint112",
                                "value": "8,010,065,099,885,681,661,096,100"
                            },
                            {
                                "name": "reserve1",
                                "type": "uint112",
                                "value": "312,153,760,787"
                            }
                        ],
                        "signature": "Sync(uint112,uint112)"
                    },
                    "id": 12,
                    "logData": "0x00000000000000000000000000000000000000000006a0327fc87244c832b0a400000000000000000000000000000000000000000000000000000048add06413",
                    "logDecoded": true,
                    "operation": "EVENT",
                    "revert": false,
                    "status": true,
                    "topics": [
                        "0x1c411e9a96e071241c2f21f7726b17ae89e3cab4c78be50e062b03a9fffbbad1"
                    ]
                },
                "nodeType": 1
            },
            "13": {
                "event": {
                    "contract": "0x135a410f1d6384ac86a448db8c1eaca4be02e6c2",
                    "decodedLog": {
                        "name": "Swap",
                        "params": [
                            {
                                "name": "sender",
                                "type": "address",
                                "value": "0x3fc91a3afd70395cd496c647d5a6cc9d4b2b7fad"
                            },
                            {
                                "name": "to",
                                "type": "address",
                                "value": "0x3fc91a3afd70395cd496c647d5a6cc9d4b2b7fad"
                            },
                            {
                                "name": "amount0In",
                                "type": "uint256",
                                "value": "0"
                            },
                            {
                                "name": "amount1In",
                                "type": "uint256",
                                "value": "30,000,000"
                            },
                            {
                                "name": "amount0Out",
                                "type": "uint256",
                                "value": "767,583,494,872,330,539,715"
                            },
                            {
                                "name": "amount1Out",
                                "type": "uint256",
                                "value": "0"
                            }
                        ],
                        "signature": "Swap(address,uint256,uint256,uint256,uint256,address)"
                    },
                    "id": 13,
                    "logData": "0x00000000000000000000000000000000000000000000000000000000000000000000000000000000000000000000000000000000000000000000000001c9c3800000000000000000000000000000000000000000000000299c5c61c1362212c30000000000000000000000000000000000000000000000000000000000000000",
                    "logDecoded": true,
                    "operation": "EVENT",
                    "revert": false,
                    "status": true,
                    "topics": [
                        "0xd78ad95fa46c994b6551d0da85fc275fe613ce37657fb8d5e3d130840159d822",
                        "0x0000000000000000000000003fc91a3afd70395cd496c647d5a6cc9d4b2b7fad",
                        "0x0000000000000000000000003fc91a3afd70395cd496c647d5a6cc9d4b2b7fad"
                    ]
                },
                "nodeType": 1
            },
            "14": {
                "invocation": {
                    "address": "0x3e985250cb137fc1ff55922116934c5982d29f85",
                    "callData": "0x0000000000000000000000003fc91a3afd70395cd496c647d5a6cc9d4b2b7fad",
                    "decodedMethod": {
                        "callParams": [
                            {
                                "name": "account",
                                "type": "address",
                                "value": "0x3fc91a3afd70395cd496c647d5a6cc9d4b2b7fad"
                            }
                        ],
                        "constructorArguments": "",
                        "name": "balanceOf",
                        "returnParams": [
                            {
                                "decimalAvailable": true,
                                "name": "",
                                "type": "uint256",
                                "value": "767,583,494,872,330,539,715"
                            }
                        ],
                        "signature": "balanceOf(address)"
                    },
                    "errorInfo": "",
                    "fromAddress": "0x3fc91a3afd70395cd496c647d5a6cc9d4b2b7fad",
                    "gasUsed": 608,
                    "id": 14,
                    "methodDecoded": true,
                    "operation": "STATICCALL",
                    "output": "0x0000000000000000000000000000000000000000000000299c5c61c1362212c3",
                    "revert": false,
                    "revertMessage": "",
                    "selector": "0x70a08231",
                    "status": true,
                    "value": "0"
                },
                "nodeType": 0
            },
            "15": {
                "invocation": {
                    "address": "0x3e985250cb137fc1ff55922116934c5982d29f85",
                    "callData": "0x0000000000000000000000003fc91a3afd70395cd496c647d5a6cc9d4b2b7fad",
                    "decodedMethod": {
                        "callParams": [
                            {
                                "name": "account",
                                "type": "address",
                                "value": "0x3fc91a3afd70395cd496c647d5a6cc9d4b2b7fad"
                            }
                        ],
                        "constructorArguments": "",
                        "name": "balanceOf",
                        "returnParams": [
                            {
                                "decimalAvailable": true,
                                "name": "",
                                "type": "uint256",
                                "value": "767,583,494,872,330,539,715"
                            }
                        ],
                        "signature": "balanceOf(address)"
                    },
                    "errorInfo": "",
                    "fromAddress": "0x3fc91a3afd70395cd496c647d5a6cc9d4b2b7fad",
                    "gasUsed": 608,
                    "id": 15,
                    "methodDecoded": true,
                    "operation": "STATICCALL",
                    "output": "0x0000000000000000000000000000000000000000000000299c5c61c1362212c3",
                    "revert": false,
                    "revertMessage": "",
                    "selector": "0x70a08231",
                    "status": true,
                    "value": "0"
                },
                "nodeType": 0
            },
            "16": {
                "invocation": {
                    "address": "0x3e985250cb137fc1ff55922116934c5982d29f85",
                    "callData": "0x00000000000000000000000037a8f295612602f2774d331e562be9e61b83a3270000000000000000000000000000000000000000000000001aa182cdec4b9aed",
                    "decodedMethod": {
                        "callParams": [
                            {
                                "name": "to",
                                "type": "address",
                                "value": "0x37a8f295612602f2774d331e562be9e61b83a327"
                            },
                            {
                                "decimalAvailable": true,
                                "name": "value",
                                "type": "uint256",
                                "value": "1,918,958,737,180,826,349"
                            }
                        ],
                        "constructorArguments": "",
                        "name": "transfer",
                        "returnParams": [
                            {
                                "name": "",
                                "type": "bool",
                                "value": true
                            }
                        ],
                        "signature": "transfer(address,uint256)"
                    },
                    "errorInfo": "",
                    "fromAddress": "0x3fc91a3afd70395cd496c647d5a6cc9d4b2b7fad",
                    "gasUsed": 10310,
                    "id": 16,
                    "methodDecoded": true,
                    "operation": "CALL",
                    "output": "0x0000000000000000000000000000000000000000000000000000000000000001",
                    "revert": false,
                    "revertMessage": "",
                    "selector": "0xa9059cbb",
                    "status": true,
                    "value": "0"
                },
                "nodeType": 0
            },
            "17": {
                "event": {
                    "contract": "0x3e985250cb137fc1ff55922116934c5982d29f85",
                    "decodedLog": {
                        "name": "Transfer",
                        "params": [
                            {
                                "name": "from",
                                "type": "address",
                                "value": "0x3fc91a3afd70395cd496c647d5a6cc9d4b2b7fad"
                            },
                            {
                                "name": "to",
                                "type": "address",
                                "value": "0x37a8f295612602f2774d331e562be9e61b83a327"
                            },
                            {
                                "decimalAvailable": true,
                                "name": "value",
                                "type": "uint256",
                                "value": "1,918,958,737,180,826,349"
                            }
                        ],
                        "signature": "Transfer(address,address,uint256)"
                    },
                    "id": 17,
                    "logData": "0x0000000000000000000000000000000000000000000000001aa182cdec4b9aed",
                    "logDecoded": true,
                    "operation": "EVENT",
                    "revert": false,
                    "status": true,
                    "topics": [
                        "0xddf252ad1be2c89b69c2b068fc378daa952ba7f163c4a11628f55a4df523b3ef",
                        "0x0000000000000000000000003fc91a3afd70395cd496c647d5a6cc9d4b2b7fad",
                        "0x00000000000000000000000037a8f295612602f2774d331e562be9e61b83a327"
                    ]
                },
                "nodeType": 1
            },
            "18": {
                "invocation": {
                    "address": "0x3e985250cb137fc1ff55922116934c5982d29f85",
                    "callData": "0x0000000000000000000000003fc91a3afd70395cd496c647d5a6cc9d4b2b7fad",
                    "decodedMethod": {
                        "callParams": [
                            {
                                "name": "account",
                                "type": "address",
                                "value": "0x3fc91a3afd70395cd496c647d5a6cc9d4b2b7fad"
                            }
                        ],
                        "constructorArguments": "",
                        "name": "balanceOf",
                        "returnParams": [
                            {
                                "decimalAvailable": true,
                                "name": "",
                                "type": "uint256",
                                "value": "765,664,536,135,149,713,366"
                            }
                        ],
                        "signature": "balanceOf(address)"
                    },
                    "errorInfo": "",
                    "fromAddress": "0x3fc91a3afd70395cd496c647d5a6cc9d4b2b7fad",
                    "gasUsed": 608,
                    "id": 18,
                    "methodDecoded": true,
                    "operation": "STATICCALL",
                    "output": "0x00000000000000000000000000000000000000000000002981badef349d677d6",
                    "revert": false,
                    "revertMessage": "",
                    "selector": "0x70a08231",
                    "status": true,
                    "value": "0"
                },
                "nodeType": 0
            },
            "19": {
                "invocation": {
                    "address": "0x3e985250cb137fc1ff55922116934c5982d29f85",
                    "callData": "0x000000000000000000000000e4e649745c3c1519eefad431fd164b37efbee35b00000000000000000000000000000000000000000000002981badef349d677d6",
                    "decodedMethod": {
                        "callParams": [
                            {
                                "name": "to",
                                "type": "address",
                                "value": "0xe4e649745c3c1519eefad431fd164b37efbee35b"
                            },
                            {
                                "decimalAvailable": true,
                                "name": "value",
                                "type": "uint256",
                                "value": "765,664,536,135,149,713,366"
                            }
                        ],
                        "constructorArguments": "",
                        "name": "transfer",
                        "returnParams": [
                            {
                                "name": "",
                                "type": "bool",
                                "value": true
                            }
                        ],
                        "signature": "transfer(address,uint256)"
                    },
                    "errorInfo": "",
                    "fromAddress": "0x3fc91a3afd70395cd496c647d5a6cc9d4b2b7fad",
                    "gasUsed": 8310,
                    "id": 19,
                    "methodDecoded": true,
                    "operation": "CALL",
                    "output": "0x0000000000000000000000000000000000000000000000000000000000000001",
                    "revert": false,
                    "revertMessage": "",
                    "selector": "0xa9059cbb",
                    "status": true,
                    "value": "0"
                },
                "nodeType": 0
            },
            "2": {
                "invocation": {
                    "address": "0xdac17f958d2ee523a2206206994597c13d831ec7",
                    "callData": "0x000000000000000000000000e4e649745c3c1519eefad431fd164b37efbee35b000000000000000000000000135a410f1d6384ac86a448db8c1eaca4be02e6c20000000000000000000000000000000000000000000000000000000001c9c380",
                    "decodedMethod": {
                        "callParams": [
                            {
                                "name": "_from",
                                "type": "address",
                                "value": "0xe4e649745c3c1519eefad431fd164b37efbee35b"
                            },
                            {
                                "name": "_to",
                                "type": "address",
                                "value": "0x135a410f1d6384ac86a448db8c1eaca4be02e6c2"
                            },
                            {
                                "decimalAvailable": true,
                                "name": "_value",
                                "type": "uint256",
                                "value": "30,000,000"
                            }
                        ],
                        "constructorArguments": "",
                        "name": "transferFrom",
                        "returnParams": [],
                        "signature": "transferFrom(address,address,uint256)"
                    },
                    "errorInfo": "",
                    "fromAddress": "0x000000000022d473030f116ddee9f6b43ac78ba3",
                    "gasUsed": 26530,
                    "id": 2,
                    "methodDecoded": true,
                    "operation": "CALL",
                    "output": "",
                    "revert": false,
                    "revertMessage": "",
                    "selector": "0x23b872dd",
                    "status": true,
                    "value": "0"
                },
                "nodeType": 0
            },
            "20": {
                "event": {
                    "contract": "0x3e985250cb137fc1ff55922116934c5982d29f85",
                    "decodedLog": {
                        "name": "Transfer",
                        "params": [
                            {
                                "name": "from",
                                "type": "address",
                                "value": "0x3fc91a3afd70395cd496c647d5a6cc9d4b2b7fad"
                            },
                            {
                                "name": "to",
                                "type": "address",
                                "value": "0xe4e649745c3c1519eefad431fd164b37efbee35b"
                            },
                            {
                                "decimalAvailable": true,
                                "name": "value",
                                "type": "uint256",
                                "value": "765,664,536,135,149,713,366"
                            }
                        ],
                        "signature": "Transfer(address,address,uint256)"
                    },
                    "id": 20,
                    "logData": "0x00000000000000000000000000000000000000000000002981badef349d677d6",
                    "logDecoded": true,
                    "operation": "EVENT",
                    "revert": false,
                    "status": true,
                    "topics": [
                        "0xddf252ad1be2c89b69c2b068fc378daa952ba7f163c4a11628f55a4df523b3ef",
                        "0x0000000000000000000000003fc91a3afd70395cd496c647d5a6cc9d4b2b7fad",
                        "0x000000000000000000000000e4e649745c3c1519eefad431fd164b37efbee35b"
                    ]
                },
                "nodeType": 1
            },
            "3": {
                "event": {
                    "contract": "0xdac17f958d2ee523a2206206994597c13d831ec7",
                    "decodedLog": {
                        "name": "Transfer",
                        "params": [
                            {
                                "name": "from",
                                "type": "address",
                                "value": "0xe4e649745c3c1519eefad431fd164b37efbee35b"
                            },
                            {
                                "name": "to",
                                "type": "address",
                                "value": "0x135a410f1d6384ac86a448db8c1eaca4be02e6c2"
                            },
                            {
                                "decimalAvailable": true,
                                "name": "value",
                                "type": "uint256",
                                "value": "30,000,000"
                            }
                        ],
                        "signature": "Transfer(address,address,uint256)"
                    },
                    "id": 3,
                    "logData": "0x0000000000000000000000000000000000000000000000000000000001c9c380",
                    "logDecoded": true,
                    "operation": "EVENT",
                    "revert": false,
                    "status": true,
                    "topics": [
                        "0xddf252ad1be2c89b69c2b068fc378daa952ba7f163c4a11628f55a4df523b3ef",
                        "0x000000000000000000000000e4e649745c3c1519eefad431fd164b37efbee35b",
                        "0x000000000000000000000000135a410f1d6384ac86a448db8c1eaca4be02e6c2"
                    ]
                },
                "nodeType": 1
            },
            "4": {
                "invocation": {
                    "address": "0x3e985250cb137fc1ff55922116934c5982d29f85",
                    "callData": "0x0000000000000000000000003fc91a3afd70395cd496c647d5a6cc9d4b2b7fad",
                    "decodedMethod": {
                        "callParams": [
                            {
                                "name": "account",
                                "type": "address",
                                "value": "0x3fc91a3afd70395cd496c647d5a6cc9d4b2b7fad"
                            }
                        ],
                        "constructorArguments": "",
                        "name": "balanceOf",
                        "returnParams": [
                            {
                                "decimalAvailable": true,
                                "name": "",
                                "type": "uint256",
                                "value": "0"
                            }
                        ],
                        "signature": "balanceOf(address)"
                    },
                    "errorInfo": "",
                    "fromAddress": "0x3fc91a3afd70395cd496c647d5a6cc9d4b2b7fad",
                    "gasUsed": 2608,
                    "id": 4,
                    "methodDecoded": true,
                    "operation": "STATICCALL",
                    "output": "0x0000000000000000000000000000000000000000000000000000000000000000",
                    "revert": false,
                    "revertMessage": "",
                    "selector": "0x70a08231",
                    "status": true,
                    "value": "0"
                },
                "nodeType": 0
            },
            "5": {
                "invocation": {
                    "address": "0x135a410f1d6384ac86a448db8c1eaca4be02e6c2",
                    "callData": "0x",
                    "decodedMethod": {
                        "callParams": [],
                        "constructorArguments": "",
                        "name": "getReserves",
                        "returnParams": [
                            {
                                "name": "_reserve0",
                                "type": "uint112",
                                "value": "8,010,832,683,380,553,991,635,815"
                            },
                            {
                                "name": "_reserve1",
                                "type": "uint112",
                                "value": "312,123,760,787"
                            },
                            {
                                "name": "_blockTimestampLast",
                                "type": "uint32",
                                "value": "1,714,350,767"
                            }
                        ],
                        "signature": "getReserves()"
                    },
                    "errorInfo": "",
                    "fromAddress": "0x3fc91a3afd70395cd496c647d5a6cc9d4b2b7fad",
                    "gasUsed": 2504,
                    "id": 5,
                    "methodDecoded": true,
                    "operation": "STATICCALL",
                    "output": "0x00000000000000000000000000000000000000000006a05c1c24d405fe54c36700000000000000000000000000000000000000000000000000000048ac06a09300000000000000000000000000000000000000000000000000000000662eeaaf",
                    "revert": false,
                    "revertMessage": "",
                    "selector": "0x0902f1ac",
                    "status": true,
                    "value": "0"
                },
                "nodeType": 0
            },
            "6": {
                "invocation": {
                    "address": "0xdac17f958d2ee523a2206206994597c13d831ec7",
                    "callData": "0x000000000000000000000000135a410f1d6384ac86a448db8c1eaca4be02e6c2",
                    "decodedMethod": {
                        "callParams": [
                            {
                                "name": "who",
                                "type": "address",
                                "value": "0x135a410f1d6384ac86a448db8c1eaca4be02e6c2"
                            }
                        ],
                        "constructorArguments": "",
                        "name": "balanceOf",
                        "returnParams": [
                            {
                                "decimalAvailable": true,
                                "name": "",
                                "type": "uint256",
                                "value": "312,153,760,787"
                            }
                        ],
                        "signature": "balanceOf(address)"
                    },
                    "errorInfo": "",
                    "fromAddress": "0x3fc91a3afd70395cd496c647d5a6cc9d4b2b7fad",
                    "gasUsed": 1031,
                    "id": 6,
                    "methodDecoded": true,
                    "operation": "STATICCALL",
                    "output": "0x00000000000000000000000000000000000000000000000000000048add06413",
                    "revert": false,
                    "revertMessage": "",
                    "selector": "0x70a08231",
                    "status": true,
                    "value": "0"
                },
                "nodeType": 0
            },
            "7": {
                "invocation": {
                    "address": "0x135a410f1d6384ac86a448db8c1eaca4be02e6c2",
                    "callData": "0x0000000000000000000000000000000000000000000000299c5c61c1362212c300000000000000000000000000000000000000000000000000000000000000000000000000000000000000003fc91a3afd70395cd496c647d5a6cc9d4b2b7fad00000000000000000000000000000000000000000000000000000000000000800000000000000000000000000000000000000000000000000000000000000000",
                    "decodedMethod": {
                        "callParams": [
                            {
                                "name": "amount0Out",
                                "type": "uint256",
                                "value": "767,583,494,872,330,539,715"
                            },
                            {
                                "name": "amount1Out",
                                "type": "uint256",
                                "value": "0"
                            },
                            {
                                "name": "to",
                                "type": "address",
                                "value": "0x3fc91a3afd70395cd496c647d5a6cc9d4b2b7fad"
                            },
                            {
                                "name": "data",
                                "type": "bytes",
                                "value": "0x"
                            }
                        ],
                        "constructorArguments": "",
                        "name": "swap",
                        "returnParams": [],
                        "signature": "swap(uint256,uint256,address,bytes)"
                    },
                    "errorInfo": "",
                    "fromAddress": "0x3fc91a3afd70395cd496c647d5a6cc9d4b2b7fad",
                    "gasUsed": 63172,
                    "id": 7,
                    "methodDecoded": true,
                    "operation": "CALL",
                    "output": "",
                    "revert": false,
                    "revertMessage": "",
                    "selector": "0x022c0d9f",
                    "status": true,
                    "value": "0"
                },
                "nodeType": 0
            },
            "8": {
                "invocation": {
                    "address": "0x3e985250cb137fc1ff55922116934c5982d29f85",
                    "callData": "0x0000000000000000000000003fc91a3afd70395cd496c647d5a6cc9d4b2b7fad0000000000000000000000000000000000000000000000299c5c61c1362212c3",
                    "decodedMethod": {
                        "callParams": [
                            {
                                "name": "to",
                                "type": "address",
                                "value": "0x3fc91a3afd70395cd496c647d5a6cc9d4b2b7fad"
                            },
                            {
                                "decimalAvailable": true,
                                "name": "value",
                                "type": "uint256",
                                "value": "767,583,494,872,330,539,715"
                            }
                        ],
                        "constructorArguments": "",
                        "name": "transfer",
                        "returnParams": [
                            {
                                "name": "",
                                "type": "bool",
                                "value": true
                            }
                        ],
                        "signature": "transfer(address,uint256)"
                    },
                    "errorInfo": "",
                    "fromAddress": "0x135a410f1d6384ac86a448db8c1eaca4be02e6c2",
                    "gasUsed": 30210,
                    "id": 8,
                    "methodDecoded": true,
                    "operation": "CALL",
                    "output": "0x0000000000000000000000000000000000000000000000000000000000000001",
                    "revert": false,
                    "revertMessage": "",
                    "selector": "0xa9059cbb",
                    "status": true,
                    "value": "0"
                },
                "nodeType": 0
            },
            "9": {
                "event": {
                    "contract": "0x3e985250cb137fc1ff55922116934c5982d29f85",
                    "decodedLog": {
                        "name": "Transfer",
                        "params": [
                            {
                                "name": "from",
                                "type": "address",
                                "value": "0x135a410f1d6384ac86a448db8c1eaca4be02e6c2"
                            },
                            {
                                "name": "to",
                                "type": "address",
                                "value": "0x3fc91a3afd70395cd496c647d5a6cc9d4b2b7fad"
                            },
                            {
                                "decimalAvailable": true,
                                "name": "value",
                                "type": "uint256",
                                "value": "767,583,494,872,330,539,715"
                            }
                        ],
                        "signature": "Transfer(address,address,uint256)"
                    },
                    "id": 9,
                    "logData": "0x0000000000000000000000000000000000000000000000299c5c61c1362212c3",
                    "logDecoded": true,
                    "operation": "EVENT",
                    "revert": false,
                    "status": true,
                    "topics": [
                        "0xddf252ad1be2c89b69c2b068fc378daa952ba7f163c4a11628f55a4df523b3ef",
                        "0x000000000000000000000000135a410f1d6384ac86a448db8c1eaca4be02e6c2",
                        "0x0000000000000000000000003fc91a3afd70395cd496c647d5a6cc9d4b2b7fad"
                    ]
                },
                "nodeType": 1
            }
        },
        "gasFlame": [
            {
                "children": [
                    {
                        "children": [
                            {
                                "children": [],
                                "depth": 0,
                                "name": "Initial Gas",
                                "value": 26132
                            },
                            {
                                "children": [
                                    {
                                        "children": [
                                            {
                                                "children": [],
                                                "depth": 2,
                                                "name": "transferFrom",
                                                "value": 26530
                                            }
                                        ],
                                        "depth": 1,
                                        "name": "transferFrom",
                                        "value": 32237
                                    },
                                    {
                                        "children": [],
                                        "depth": 1,
                                        "name": "balanceOf",
                                        "value": 2608
                                    },
                                    {
                                        "children": [],
                                        "depth": 1,
                                        "name": "getReserves",
                                        "value": 2504
                                    },
                                    {
                                        "children": [],
                                        "depth": 1,
                                        "name": "balanceOf",
                                        "value": 1031
                                    },
                                    {
                                        "children": [
                                            {
                                                "children": [],
                                                "depth": 2,
                                                "name": "transfer",
                                                "value": 30210
                                            },
                                            {
                                                "children": [],
                                                "depth": 2,
                                                "name": "balanceOf",
                                                "value": 608
                                            },
                                            {
                                                "children": [],
                                                "depth": 2,
                                                "name": "balanceOf",
                                                "value": 1031
                                            }
                                        ],
                                        "depth": 1,
                                        "name": "swap",
                                        "value": 63172
                                    },
                                    {
                                        "children": [],
                                        "depth": 1,
                                        "name": "balanceOf",
                                        "value": 608
                                    },
                                    {
                                        "children": [],
                                        "depth": 1,
                                        "name": "balanceOf",
                                        "value": 608
                                    },
                                    {
                                        "children": [],
                                        "depth": 1,
                                        "name": "transfer",
                                        "value": 10310
                                    },
                                    {
                                        "children": [],
                                        "depth": 1,
                                        "name": "balanceOf",
                                        "value": 608
                                    },
                                    {
                                        "children": [],
                                        "depth": 1,
                                        "name": "transfer",
                                        "value": 8310
                                    }
                                ],
                                "depth": 0,
                                "name": "Executed Gas",
                                "value": 145275
                            }
                        ],
                        "depth": -1,
                        "name": "Actual Gas Used",
                        "value": 145907
                    },
                    {
                        "children": [],
                        "depth": -1,
                        "name": "Refunded Gas",
                        "value": 25500
                    }
                ],
                "depth": -2,
                "name": "Total Gas",
                "value": 171407
            }
        ],
        "isConfirmed": true,
        "mainTrace": [
            {
                "children": [
                    {
                        "children": [
                            {
                                "children": [
                                    {
                                        "children": [
                                            {
                                                "children": [],
                                                "depth": 3,
                                                "id": 3,
                                                "order": 3
                                            }
                                        ],
                                        "depth": 2,
                                        "id": 2,
                                        "order": 2
                                    }
                                ],
                                "depth": 1,
                                "id": 1,
                                "order": 1
                            },
                            {
                                "children": [],
                                "depth": 1,
                                "id": 4,
                                "order": 4
                            },
                            {
                                "children": [],
                                "depth": 1,
                                "id": 5,
                                "order": 5
                            },
                            {
                                "children": [],
                                "depth": 1,
                                "id": 6,
                                "order": 6
                            },
                            {
                                "children": [
                                    {
                                        "children": [
                                            {
                                                "children": [],
                                                "depth": 3,
                                                "id": 9,
                                                "order": 9
                                            }
                                        ],
                                        "depth": 2,
                                        "id": 8,
                                        "order": 8
                                    },
                                    {
                                        "children": [],
                                        "depth": 2,
                                        "id": 10,
                                        "order": 10
                                    },
                                    {
                                        "children": [],
                                        "depth": 2,
                                        "id": 11,
                                        "order": 11
                                    },
                                    {
                                        "children": [],
                                        "depth": 2,
                                        "id": 12,
                                        "order": 12
                                    },
                                    {
                                        "children": [],
                                        "depth": 2,
                                        "id": 13,
                                        "order": 13
                                    }
                                ],
                                "depth": 1,
                                "id": 7,
                                "order": 7
                            },
                            {
                                "children": [],
                                "depth": 1,
                                "id": 14,
                                "order": 14
                            },
                            {
                                "children": [],
                                "depth": 1,
                                "id": 15,
                                "order": 15
                            },
                            {
                                "children": [
                                    {
                                        "children": [],
                                        "depth": 2,
                                        "id": 17,
                                        "order": 17
                                    }
                                ],
                                "depth": 1,
                                "id": 16,
                                "order": 16
                            },
                            {
                                "children": [],
                                "depth": 1,
                                "id": 18,
                                "order": 18
                            },
                            {
                                "children": [
                                    {
                                        "children": [],
                                        "depth": 2,
                                        "id": 20,
                                        "order": 20
                                    }
                                ],
                                "depth": 1,
                                "id": 19,
                                "order": 19
                            }
                        ],
                        "depth": 0,
                        "id": 0,
                        "order": 0
                    }
                ],
                "depth": -1,
                "id": -1,
                "order": -1
            }
        ],
        "mainTraceNodeCount": 21,
        "parentIdMap": {
            "0": -1,
            "1": 0,
            "10": 7,
            "11": 7,
            "12": 7,
            "13": 7,
            "14": 0,
            "15": 0,
            "16": 0,
            "17": 16,
            "18": 0,
            "19": 0,
            "2": 1,
            "20": 19,
            "3": 2,
            "4": 0,
            "5": 0,
            "6": 0,
            "7": 0,
            "8": 7,
            "9": 8
        },
        "tidyTrace": [
            {
                "children": [
                    {
                        "children": [
                            {
                                "children": [
                                    {
                                        "children": [
                                            {
                                                "children": [],
                                                "depth": 3,
                                                "id": 3,
                                                "order": 3
                                            }
                                        ],
                                        "depth": 2,
                                        "id": 2,
                                        "order": 2
                                    }
                                ],
                                "depth": 1,
                                "id": 1,
                                "order": 1
                            },
                            {
                                "children": [
                                    {
                                        "children": [
                                            {
                                                "children": [],
                                                "depth": 3,
                                                "id": 9,
                                                "order": 9
                                            }
                                        ],
                                        "depth": 2,
                                        "id": 8,
                                        "order": 8
                                    },
                                    {
                                        "children": [],
                                        "depth": 2,
                                        "id": 12,
                                        "order": 12
                                    },
                                    {
                                        "children": [],
                                        "depth": 2,
                                        "id": 13,
                                        "order": 13
                                    }
                                ],
                                "depth": 1,
                                "id": 7,
                                "order": 7
                            },
                            {
                                "children": [
                                    {
                                        "children": [],
                                        "depth": 2,
                                        "id": 17,
                                        "order": 17
                                    }
                                ],
                                "depth": 1,
                                "id": 16,
                                "order": 16
                            },
                            {
                                "children": [
                                    {
                                        "children": [],
                                        "depth": 2,
                                        "id": 20,
                                        "order": 20
                                    }
                                ],
                                "depth": 1,
                                "id": 19,
                                "order": 19
                            }
                        ],
                        "depth": 0,
                        "id": 0,
                        "order": 0
                    }
                ],
                "depth": -1,
                "id": -1,
                "order": -1
            }
        ],
        "tidyTraceNodeCount": 13
    },
    "state_change": {
        "stateChanges": [
            {
                "address": "0x135a410f1d6384ac86a448db8c1eaca4be02e6c2",
                "erc": "ERC-20",
                "slots": [
                    {
                        "current": "0x00000000000000000002d063af5c951f09f9e668816c691651f874a300c71a08",
                        "key": "0x000000000000000000000000000000000000000000000000000000000000000a",
                        "prev": "0x00000000000000000002ce8e472a659c16e5e5c6a2f6a18afee82beaacf3650c"
                    },
                    {
                        "current": "0x662efecb00000000000000000048add0641300000006a0327fc87244c832b0a4",
                        "key": "0x0000000000000000000000000000000000000000000000000000000000000008",
                        "prev": "0x662eeaaf00000000000000000048ac06a09300000006a05c1c24d405fe54c367"
                    },
                    {
                        "current": "0x000000000000000000000000000000000000000002c981173f32b266a3d08f10",
                        "key": "0x0000000000000000000000000000000000000000000000000000000000000009",
                        "prev": "0x000000000000000000000000000000000000000002c8a48cfc47812c25bb47a4"
                    }
                ],
                "storageVariables": [
                    {
                        "name": "price1CumulativeLast",
                        "type": "uint256",
                        "value": {
                            "current": "269529671592971530326753362660666038585418531914324488",
                            "prev": "268843632470847073999519966070254048250743752098014476",
                            "typeTag": 1
                        }
                    },
                    {
                        "name": "reserve0",
                        "type": "uint112",
                        "value": {
                            "current": "8010065099885681661096100",
                            "prev": "8010832683380553991635815",
                            "typeTag": 1
                        }
                    },
                    {
                        "name": "reserve1",
                        "type": "uint112",
                        "value": {
                            "current": "312153760787",
                            "prev": "312123760787",
                            "typeTag": 1
                        }
                    },
                    {
                        "name": "blockTimestampLast",
                        "type": "uint32",
                        "value": {
                            "current": "1714355915",
                            "prev": "1714350767",
                            "typeTag": 1
                        }
                    },
                    {
                        "name": "price0CumulativeLast",
                        "type": "uint256",
                        "value": {
                            "current": "862573723490532808247512848",
                            "prev": "861532252391617361058940836",
                            "typeTag": 1
                        }
                    }
                ]
            },
            {
                "address": "0x3e985250cb137fc1ff55922116934c5982d29f85",
                "erc": "ERC-20",
                "slots": [
                    {
                        "current": "0x00000000000000000000000000000000000000000006a0327fc87244c832b0a4",
                        "key": "0x56f176fd28e156a6dedaea8c861604ccf46df94ff5acff2c7b754f3d4a853037",
                        "prev": "0x00000000000000000000000000000000000000000006a05c1c24d405fe54c367"
                    },
                    {
                        "current": "0x0000000000000000000000000000000000000000000000761ff36d6f8fb6cbc4",
                        "key": "0x91d26ef54ffadfa2490ae983880af5953e95e23922795e917991a184c9225c8a",
                        "prev": "0x0000000000000000000000000000000000000000000000760551eaa1a36b30d7"
                    },
                    {
                        "current": "0x00000000000000000000000000000000000000000000089bf6c6a6a9ef2ae757",
                        "key": "0x6cbd75eb6890079ed78dfd9fa5f15ed43d9f1072894841a0b6c88f0d5aa5d9f1",
                        "prev": "0x000000000000000000000000000000000000000000000872750bc7b6a5546f81"
                    }
                ],
                "storageVariables": [
                    {
                        "name": "_balances",
                        "type": "mapping(address => uint256)",
                        "value": {
                            "pairs": [
                                {
                                    "key": "0x135a410f1d6384ac86a448db8c1eaca4be02e6c2",
                                    "value": {
                                        "current": "8010065099885681661096100",
                                        "prev": "8010832683380553991635815",
                                        "typeTag": 1
                                    }
                                },
                                {
                                    "key": "0x37a8f295612602f2774d331e562be9e61b83a327",
                                    "value": {
                                        "current": "2179018104858163465156",
                                        "prev": "2177099146120982638807",
                                        "typeTag": 1
                                    }
                                },
                                {
                                    "key": "0xe4e649745c3c1519eefad431fd164b37efbee35b",
                                    "value": {
                                        "current": "40655959277809653442391",
                                        "prev": "39890294741674503729025",
                                        "typeTag": 1
                                    }
                                }
                            ],
                            "typeTag": 4
                        }
                    }
                ]
            },
            {
                "address": "0xdac17f958d2ee523a2206206994597c13d831ec7",
                "erc": "ERC-20",
                "slots": [
                    {
                        "current": "0x0000000000000000000000000000000000000000000000000000000002955ab4",
                        "key": "0x6b545f492a61b97c882c7086bef852e6d386097f2b9677528ecbb7767a2ce650",
                        "prev": "0x00000000000000000000000000000000000000000000000000000000045f1e34"
                    },
                    {
                        "current": "0x00000000000000000000000000000000000000000000000000000048add06413",
                        "key": "0xd0c75ae9e9abb56b93a44261a257d85e32213c6d7330eac3c6f0ccb581cb6fe3",
                        "prev": "0x00000000000000000000000000000000000000000000000000000048ac06a093"
                    }
                ],
                "storageVariables": [
                    {
                        "name": "balances",
                        "type": "mapping(address => uint256)",
                        "value": {
                            "pairs": [
                                {
                                    "key": "0x135a410f1d6384ac86a448db8c1eaca4be02e6c2",
                                    "value": {
                                        "current": "312153760787",
                                        "prev": "312123760787",
                                        "typeTag": 1
                                    }
                                },
                                {
                                    "key": "0xe4e649745c3c1519eefad431fd164b37efbee35b",
                                    "value": {
                                        "current": "43342516",
                                        "prev": "73342516",
                                        "typeTag": 1
                                    }
                                }
                            ],
                            "typeTag": 4
                        }
                    }
                ]
            }
        ]
    }
}