{
    "balance_change": {
        "balanceChanges": [
            {
                "account": "0x9aab3f81604c683a1a0d14019fbfe15bef7aa1ee",
                "assets": [
                    {
                        "address": "0xeeeeeeeeeeeeeeeeeeeeeeeeeeeeeeeeeeeeeeee",
                        "amount": "0.000000000000060679",
                        "iconUrl": "https://assets.blocksec.com/image/1663669189317-3.png",
                        "isERC1155": false,
                        "isERC721": false,
                        "sign": false,
                        "value": "0.00000000010965216817801300199"
                    }
                ]
            },
            {
                "account": "0x4cb18386e5d1f34dc6eea834bf3534a970a3f8e7",
                "assets": [
                    {
                        "address": "0xeeeeeeeeeeeeeeeeeeeeeeeeeeeeeeeeeeeeeeee",
                        "amount": "0.000000000000060679",
                        "iconUrl": "https://assets.blocksec.com/image/1663669189317-3.png",
                        "isERC1155": false,
                        "isERC721": false,
                        "sign": true,
                        "value": "0.00000000010965216817801300199"
                    }
                ]
            },
            {
                "account": "0x56178a0d5f301baf6cf3e1cd53d9863437345bf9",
                "assets": [
                    {
                        "address": "0xc02aaa39b223fe8d0a0e5c4f27ead9083c756cc2",
                        "amount": "73.25453266794893186",
                        "iconUrl": "https://assets.blocksec.com/icon/f1cb2d02c471d545bbc7722daf3277fd852d98e63d118771af7047bd8256c516.png",
                        "isERC1155": false,
                        "isERC721": false,
                        "sign": true,
                        "value": "132377.2365420093909"
                    },
                    {
                        "address": "0xa0b86991c6218b36c1d19d4a2e9eb0ce3606eb48",
                        "amount": "74,523.709981",
                        "iconUrl": "https://assets.blocksec.com/icon/0347a86cc07dbd03fdc5db01a4e5ac7e1217f90e0b6e4bb0f75cbcca09160989.png",
                        "isERC1155": false,
                        "isERC721": false,
                        "sign": false,
                        "value": "74596.29831"
                    }
                ]
            },
            {
                "account": "0x88e6a0c2ddd26feeb64f039a2c41296fcb3f5640",
                "assets": [
                    {
                        "address": "0xc02aaa39b223fe8d0a0e5c4f27ead9083c756cc2",
                        "amount": "73.25453266794893186",
                        "iconUrl": "https://assets.blocksec.com/icon/f1cb2d02c471d545bbc7722daf3277fd852d98e63d118771af7047bd8256c516.png",
                        "isERC1155": false,
                        "isERC721": false,
                        "sign": false,
                        "value": "132377.2365420093909"
                    },
                    {
                        "address": "0xa0b86991c6218b36c1d19d4a2e9eb0ce3606eb48",
                        "amount": "74,523.709981",
                        "iconUrl": "https://assets.blocksec.com/icon/0347a86cc07dbd03fdc5db01a4e5ac7e1217f90e0b6e4bb0f75cbcca09160989.png",
                        "isERC1155": false,
                        "isERC721": false,
                        "sign": true,
                        "value": "74596.29831"
                    }
                ]
            }
        ]
    },
    "profile": {
        "basic_info": {
            "baseFee": "47.439272941",
            "blockNumber": 15052251,
            "callData": "0x1cff79cd000000000000000000000000343933efdf64d2d6eeaf2dcd5fbd701541d64f67000000000000000000000000000000000000000000000000000000000000004000000000000000000000000000000000000000000000000000000000000000e4fcaf671c0000000000000000000000000000000000000000000000000000001159f5921d0000000000000000000000000000000000000000000000000e1f7596c6ceb0490000000000000000000000000000000000007a7b02f1e44f40bfe049c19597000000000000000000000000000000000000000000000000000de0b6b3a76400000000000000000000000000000000000000000000000000000000000062be031800000000000000000000000000000000000000000000000000000000000000000000000000000000000000000000000000007a834a40597aa07847e0ec07002b00000000000000000000000000000000000000000000000000000000",
            "debugEnable": true,
            "errorInfo": "",
            "eventCount": 3,
            "feeRecipient": "0xea674fdde714fd979de3edf0f56aa9716b898ec8",
            "formatValue": "0.000000000000060679",
            "gasLimit": 900000,
            "gasPrice": "48.939272942",
            "gasUsed": 129746,
            "intTxnCount": 11,
            "internalRevert": false,
            "internalRevertMessage": "",
            "isContractCreation": false,
            "isFlashloan": false,
            "maxFee": "58.42712753",
            "nonce": 59141,
            "overwritedBlockNumber": -1,
            "priorityFee": "1.500000001",
            "receiver": "0x4cb18386e5d1f34dc6eea834bf3534a970a3f8e7",
            "revertMessage": "",
            "sender": "0x9aab3f81604c683a1a0d14019fbfe15bef7aa1ee",
            "simulationEnable": true,
            "sourceTxnHash": "0x6313bcc54f45bfd551cbd1678531424e35a06e268da103b34292cf2f96264fb5",
            "status": true,
            "timestamp": "2022-06-30T20:08:50Z",
            "transactionFee": "0.006349674907132732",
            "txnHash": "0x6313bcc54f45bfd551cbd1678531424e35a06e268da103b34292cf2f96264fb5",
            "txnIndex": 112,
            "type": 2,
            "value": "60679"
        },
        "fund_flow": [
            {
                "amount": "0.000000000000060679",
                "from": "0x9aab3f81604c683a1a0d14019fbfe15bef7aa1ee",
                "id": 1,
                "isERC1155": false,
                "isERC721": false,
                "isReverted": false,
                "order": 1,
                "to": "0x4cb18386e5d1f34dc6eea834bf3534a970a3f8e7",
                "token": "0xeeeeeeeeeeeeeeeeeeeeeeeeeeeeeeeeeeeeeeee"
            },
            {
                "amount": "73.25453266794893186",
                "from": "0x88e6a0c2ddd26feeb64f039a2c41296fcb3f5640",
                "id": 2,
                "isERC1155": false,
                "isERC721": false,
                "isReverted": false,
                "order": 2,
                "to": "0x56178a0d5f301baf6cf3e1cd53d9863437345bf9",
                "token": "0xc02aaa39b223fe8d0a0e5c4f27ead9083c756cc2"
            },
            {
                "amount": "74,523.709981",
                "from": "0x56178a0d5f301baf6cf3e1cd53d9863437345bf9",
                "id": 3,
                "isERC1155": false,
                "isERC721": false,
                "isReverted": false,
                "order": 3,
                "to": "0x88e6a0c2ddd26feeb64f039a2c41296fcb3f5640",
                "token": "0xa0b86991c6218b36c1d19d4a2e9eb0ce3606eb48"
            }
        ],
        "token_infos": [
            {
                "address": "0xa0b86991c6218b36c1d19d4a2e9eb0ce3606eb48",
                "decimals": 6
            },
            {
                "address": "0xc02aaa39b223fe8d0a0e5c4f27ead9083c756cc2",
                "decimals": 18
            },
            {
                "address": "0xeeeeeeeeeeeeeeeeeeeeeeeeeeeeeeeeeeeeeeee",
                "decimals": 18
            }
        ]
    },
    "address_label": {
        "labels": [
            {
                "address": "0xeeeeeeeeeeeeeeeeeeeeeeeeeeeeeeeeeeeeeeee",
                "label": "Ether"
            },
            {
                "address": "0x4cb18386e5d1f34dc6eea834bf3534a970a3f8e7",
                "label": "MEV Bot: 0x4Cb...8e7"
            },
            {
                "address": "0xa2327a938febf5fec13bacfb16ae10ecbc4cbdcf",
                "label": "FiatTokenV2_1"
            },
            {
                "address": "0x0000000000000000000000000000000000000002",
                "label": "Precompiled"
            },
            {
                "address": "0x0000000000000000000000000000000000000004",
                "label": "Precompiled"
            },
            {
                "address": "0xc02aaa39b223fe8d0a0e5c4f27ead9083c756cc2",
                "label": "Wrapped Ether (WETH)"
            },
            {
                "address": "0x88e6a0c2ddd26feeb64f039a2c41296fcb3f5640",
                "label": "Uniswap V3: USDC 3"
            },
            {
                "address": "0xa0b86991c6218b36c1d19d4a2e9eb0ce3606eb48",
                "label": "Circle: USDC Token"
            },
            {
                "address": "0x0000000000000000000000000000000000000001",
                "label": "Precompiled"
            },
            {
                "address": "0x0000000000000000000000000000000000000003",
                "label": "Precompiled"
            }
        ]
    },
    "trace": {
        "accountLabels": null,
        "dataMap": {
            "-1": {
                "invocation": {
                    "address": "0x9aab3f81604c683a1a0d14019fbfe15bef7aa1ee",
                    "callData": "",
                    "decodedMethod": null,
                    "errorInfo": "",
                    "fromAddress": "",
                    "gasUsed": 0,
                    "id": -1,
                    "methodDecoded": false,
                    "operation": "",
                    "output": "",
                    "revert": false,
                    "revertMessage": "",
                    "selector": "",
                    "status": false,
                    "value": ""
                },
                "nodeType": 0
            },
            "0": {
                "invocation": {
                    "address": "0x4cb18386e5d1f34dc6eea834bf3534a970a3f8e7",
                    "callData": "0x000000000000000000000000343933efdf64d2d6eeaf2dcd5fbd701541d64f67000000000000000000000000000000000000000000000000000000000000004000000000000000000000000000000000000000000000000000000000000000e4fcaf671c0000000000000000000000000000000000000000000000000000001159f5921d0000000000000000000000000000000000000000000000000e1f7596c6ceb0490000000000000000000000000000000000007a7b02f1e44f40bfe049c19597000000000000000000000000000000000000000000000000000de0b6b3a76400000000000000000000000000000000000000000000000000000000000062be031800000000000000000000000000000000000000000000000000000000000000000000000000000000000000000000000000007a834a40597aa07847e0ec07002b00000000000000000000000000000000000000000000000000000000",
                    "decodedMethod": {
                        "callParams": [
                            {
                                "name": "_target",
                                "type": "address",
                                "value": "0x343933efdf64d2d6eeaf2dcd5fbd701541d64f67"
                            },
                            {
                                "name": "_data",
                                "type": "bytes",
                                "value": "0xfcaf671c0000000000000000000000000000000000000000000000000000001159f5921d0000000000000000000000000000000000000000000000000e1f7596c6ceb0490000000000000000000000000000000000007a7b02f1e44f40bfe049c19597000000000000000000000000000000000000000000000000000de0b6b3a76400000000000000000000000000000000000000000000000000000000000062be031800000000000000000000000000000000000000000000000000000000000000000000000000000000000000000000000000007a834a40597aa07847e0ec07002b"
                            }
                        ],
                        "constructorArguments": "",
                        "name": "execute",
                        "returnParams": [],
                        "signature": "execute(address,bytes)"
                    },
                    "errorInfo": "",
                    "fromAddress": "0x9aab3f81604c683a1a0d14019fbfe15bef7aa1ee",
                    "gasUsed": 129746,
                    "id": 0,
                    "methodDecoded": true,
                    "operation": "CALL",
                    "output": "",
                    "revert": false,
                    "revertMessage": "",
                    "selector": "0x1cff79cd",
                    "status": true,
                    "value": "0.000000000000060679"
                },
                "nodeType": 0
            },
            "1": {
                "invocation": {
                    "address": "0x343933efdf64d2d6eeaf2dcd5fbd701541d64f67",
                    "callData": "0x0000000000000000000000000000000000000000000000000000001159f5921d0000000000000000000000000000000000000000000000000e1f7596c6ceb0490000000000000000000000000000000000007a7b02f1e44f40bfe049c19597000000000000000000000000000000000000000000000000000de0b6b3a76400000000000000000000000000000000000000000000000000000000000062be031800000000000000000000000000000000000000000000000000000000000000000000000000000000000000000000000000007a834a40597aa07847e0ec07002b",
                    "decodedMethod": null,
                    "errorInfo": "",
                    "fromAddress": "0x4cb18386e5d1f34dc6eea834bf3534a970a3f8e7",
                    "gasUsed": 100774,
                    "id": 1,
                    "methodDecoded": false,
                    "operation": "DELEGATECALL",
                    "output": "0x0000000000000000000000000000000000000000000000000000001159f5921d0000000000000000000000000000000000000000000000000055dd09ec2cf01b",
                    "revert": false,
                    "revertMessage": "",
                    "selector": "0xfcaf671c",
                    "status": true,
                    "value": "0.000000000000060679"
                },
                "nodeType": 0
            },
            "10": {
                "invocation": {
                    "address": "0xa2327a938febf5fec13bacfb16ae10ecbc4cbdcf",
                    "callData": "0x00000000000000000000000056178a0d5f301baf6cf3e1cd53d9863437345bf900000000000000000000000088e6a0c2ddd26feeb64f039a2c41296fcb3f56400000000000000000000000000000000000000000000000000000001159f5921d",
                    "decodedMethod": {
                        "callParams": [
                            {
                                "name": "from",
                                "type": "address",
                                "value": "0x56178a0d5f301baf6cf3e1cd53d9863437345bf9"
                            },
                            {
                                "name": "to",
                                "type": "address",
                                "value": "0x88e6a0c2ddd26feeb64f039a2c41296fcb3f5640"
                            },
                            {
                                "decimalAvailable": true,
                                "name": "value",
                                "type": "uint256",
                                "value": "74,523,709,981"
                            }
                        ],
                        "constructorArguments": "",
                        "name": "transferFrom",
                        "returnParams": [
                            {
                                "name": "",
                                "type": "bool",
                                "value": true
                            }
                        ],
                        "signature": "transferFrom(address,address,uint256)"
                    },
                    "errorInfo": "",
                    "fromAddress": "0xa0b86991c6218b36c1d19d4a2e9eb0ce3606eb48",
                    "gasUsed": 25597,
                    "id": 10,
                    "methodDecoded": true,
                    "operation": "DELEGATECALL",
                    "output": "0x0000000000000000000000000000000000000000000000000000000000000001",
                    "revert": false,
                    "revertMessage": "",
                    "selector": "0x23b872dd",
                    "status": true,
                    "value": "0"
                },
                "nodeType": 0
            },
            "11": {
                "event": {
                    "contract": "0xa0b86991c6218b36c1d19d4a2e9eb0ce3606eb48",
                    "decodedLog": {
                        "name": "Transfer",
                        "params": [
                            {
                                "name": "from",
                                "type": "address",
                                "value": "0x56178a0d5f301baf6cf3e1cd53d9863437345bf9"
                            },
                            {
                                "name": "to",
                                "type": "address",
                                "value": "0x88e6a0c2ddd26feeb64f039a2c41296fcb3f5640"
                            },
                            {
                                "decimalAvailable": true,
                                "name": "value",
                                "type": "uint256",
                                "value": "74,523,709,981"
                            }
                        ],
                        "signature": "Transfer(address,address,uint256)"
                    },
                    "id": 11,
                    "logData": "0x0000000000000000000000000000000000000000000000000000001159f5921d",
                    "logDecoded": true,
                    "operation": "EVENT",
                    "revert": false,
                    "status": true,
                    "topics": [
                        "0xddf252ad1be2c89b69c2b068fc378daa952ba7f163c4a11628f55a4df523b3ef",
                        "0x00000000000000000000000056178a0d5f301baf6cf3e1cd53d9863437345bf9",
                        "0x00000000000000000000000088e6a0c2ddd26feeb64f039a2c41296fcb3f5640"
                    ]
                },
                "nodeType": 1
            },
            "12": {
                "invocation": {
                    "address": "0xa0b86991c6218b36c1d19d4a2e9eb0ce3606eb48",
                    "callData": "0x00000000000000000000000088e6a0c2ddd26feeb64f039a2c41296fcb3f5640",
                    "decodedMethod": {
                        "callParams": [
                            {
                                "name": "account",
                                "type": "address",
                                "value": "0x88e6a0c2ddd26feeb64f039a2c41296fcb3f5640"
                            }
                        ],
                        "constructorArguments": "",
                        "name": "balanceOf",
                        "returnParams": [
                            {
                                "decimalAvailable": true,
                                "name": "",
                                "type": "uint256",
                                "value": "29,569,943,545,491"
                            }
                        ],
                        "signature": "balanceOf(address)"
                    },
                    "errorInfo": "",
                    "fromAddress": "0x88e6a0c2ddd26feeb64f039a2c41296fcb3f5640",
                    "gasUsed": 1315,
                    "id": 12,
                    "methodDecoded": true,
                    "operation": "STATICCALL",
                    "output": "0x00000000000000000000000000000000000000000000000000001ae4c9fb2693",
                    "revert": false,
                    "revertMessage": "",
                    "selector": "0x70a08231",
                    "status": true,
                    "value": "0"
                },
                "nodeType": 0
            },
            "13": {
                "invocation": {
                    "address": "0xa2327a938febf5fec13bacfb16ae10ecbc4cbdcf",
                    "callData": "0x00000000000000000000000088e6a0c2ddd26feeb64f039a2c41296fcb3f5640",
                    "decodedMethod": {
                        "callParams": [
                            {
                                "name": "account",
                                "type": "address",
                                "value": "0x88e6a0c2ddd26feeb64f039a2c41296fcb3f5640"
                            }
                        ],
                        "constructorArguments": "",
                        "name": "balanceOf",
                        "returnParams": [
                            {
                                "decimalAvailable": true,
                                "name": "",
                                "type": "uint256",
                                "value": "29,569,943,545,491"
                            }
                        ],
                        "signature": "balanceOf(address)"
                    },
                    "errorInfo": "",
                    "fromAddress": "0xa0b86991c6218b36c1d19d4a2e9eb0ce3606eb48",
                    "gasUsed": 529,
                    "id": 13,
                    "methodDecoded": true,
                    "operation": "DELEGATECALL",
                    "output": "0x00000000000000000000000000000000000000000000000000001ae4c9fb2693",
                    "revert": false,
                    "revertMessage": "",
                    "selector": "0x70a08231",
                    "status": true,
                    "value": "0"
                },
                "nodeType": 0
            },
            "14": {
                "event": {
                    "contract": "0x88e6a0c2ddd26feeb64f039a2c41296fcb3f5640",
                    "decodedLog": {
                        "name": "Swap",
                        "params": [
                            {
                                "name": "sender",
                                "type": "address",
                                "value": "0x4cb18386e5d1f34dc6eea834bf3534a970a3f8e7"
                            },
                            {
                                "name": "recipient",
                                "type": "address",
                                "value": "0x56178a0d5f301baf6cf3e1cd53d9863437345bf9"
                            },
                            {
                                "name": "amount0",
                                "type": "int256",
                                "value": "74,523,709,981"
                            },
                            {
                                "name": "amount1",
                                "type": "int256",
                                "value": "-73,254,532,667,948,931,860"
                            },
                            {
                                "name": "sqrtPriceX96",
                                "type": "uint160",
                                "value": "2,484,199,947,034,061,991,631,787,644,000,000"
                            },
                            {
                                "name": "liquidity",
                                "type": "uint128",
                                "value": "7,078,980,064,845,022,809"
                            },
                            {
                                "name": "tick",
                                "type": "int24",
                                "value": "207,072"
                            }
                        ],
                        "signature": "Swap(address,address,int256,int256,uint160,uint128,int24)"
                    },
                    "id": 14,
                    "logData": "0x0000000000000000000000000000000000000000000000000000001159f5921dfffffffffffffffffffffffffffffffffffffffffffffffc07639ea85ba7e4ec0000000000000000000000000000000000007a7b02f1e44f40bfe049c1959700000000000000000000000000000000000000000000000000623d96dce928c65900000000000000000000000000000000000000000000000000000000000328e0",
                    "logDecoded": true,
                    "operation": "EVENT",
                    "revert": false,
                    "status": true,
                    "topics": [
                        "0xc42079f94a6350d7e6235f29174924f928cc2ac818eb64fed8004e115fbcca67",
                        "0x0000000000000000000000004cb18386e5d1f34dc6eea834bf3534a970a3f8e7",
                        "0x00000000000000000000000056178a0d5f301baf6cf3e1cd53d9863437345bf9"
                    ]
                },
                "nodeType": 1
            },
            "2": {
                "invocation": {
                    "address": "0x88e6a0c2ddd26feeb64f039a2c41296fcb3f5640",
                    "callData": "0x",
                    "decodedMethod": {
                        "callParams": [],
                        "constructorArguments": "",
                        "name": "slot0",
                        "returnParams": [
                            {
                                "name": "sqrtPriceX96",
                                "type": "uint160",
                                "value": "2,485,019,814,015,739,924,154,852,717,220,014"
                            },
                            {
                                "name": "tick",
                                "type": "int24",
                                "value": "207,079"
                            },
                            {
                                "name": "observationIndex",
                                "type": "uint16",
                                "value": "519"
                            },
                            {
                                "name": "observationCardinality",
                                "type": "uint16",
                                "value": "720"
                            },
                            {
                                "name": "observationCardinalityNext",
                                "type": "uint16",
                                "value": "720"
                            },
                            {
                                "name": "feeProtocol",
                                "type": "uint8",
                                "value": "0"
                            },
                            {
                                "name": "unlocked",
                                "type": "bool",
                                "value": true
                            }
                        ],
                        "signature": "slot0()"
                    },
                    "errorInfo": "",
                    "fromAddress": "0x4cb18386e5d1f34dc6eea834bf3534a970a3f8e7",
                    "gasUsed": 2696,
                    "id": 2,
                    "methodDecoded": true,
                    "operation": "CALL",
                    "output": "0x0000000000000000000000000000000000007a855c13f6c578666c1fd8b5d0ae00000000000000000000000000000000000000000000000000000000000328e7000000000000000000000000000000000000000000000000000000000000020700000000000000000000000000000000000000000000000000000000000002d000000000000000000000000000000000000000000000000000000000000002d000000000000000000000000000000000000000000000000000000000000000000000000000000000000000000000000000000000000000000000000000000001",
                    "revert": false,
                    "revertMessage": "",
                    "selector": "0x3850c7bd",
                    "status": true,
                    "value": "0"
                },
                "nodeType": 0
            },
            "3": {
                "invocation": {
                    "address": "0x88e6a0c2ddd26feeb64f039a2c41296fcb3f5640",
                    "callData": "0x00000000000000000000000056178a0d5f301baf6cf3e1cd53d9863437345bf900000000000000000000000000000000000000000000000000000000000000010000000000000000000000000000000000000000000000000000001159f5921d0000000000000000000000000000000000007a7b02f1e44f40bfe049c195970000000000000000000000000000000000000000000000000000000000000000a0000000000000000000000000000000000000000000000000000000000000006008374668a423750b443f65d645c5693995d43722b42cd84f7eeba28b008a40a200000000000000000000000056178a0d5f301baf6cf3e1cd53d9863437345bf9000000000000000000000000a0b86991c6218b36c1d19d4a2e9eb0ce3606eb48",
                    "decodedMethod": {
                        "callParams": [
                            {
                                "name": "recipient",
                                "type": "address",
                                "value": "0x56178a0d5f301baf6cf3e1cd53d9863437345bf9"
                            },
                            {
                                "name": "zeroForOne",
                                "type": "bool",
                                "value": true
                            },
                            {
                                "name": "amountSpecified",
                                "type": "int256",
                                "value": "74,523,709,981"
                            },
                            {
                                "name": "sqrtPriceLimitX96",
                                "type": "uint160",
                                "value": "2,484,199,947,034,061,991,631,787,644,000,000"
                            },
                            {
                                "name": "data",
                                "type": "bytes",
                                "value": "0x08374668a423750b443f65d645c5693995d43722b42cd84f7eeba28b008a40a200000000000000000000000056178a0d5f301baf6cf3e1cd53d9863437345bf9000000000000000000000000a0b86991c6218b36c1d19d4a2e9eb0ce3606eb48"
                            }
                        ],
                        "constructorArguments": "",
                        "name": "swap",
                        "returnParams": [
                            {
                                "name": "amount0",
                                "type": "int256",
                                "value": "74,523,709,981"
                            },
                            {
                                "name": "amount1",
                                "type": "int256",
                                "value": "-73,254,532,667,948,931,860"
                            }
                        ],
                        "signature": "swap(address,bool,int256,uint160,bytes)"
                    },
                    "errorInfo": "",
                    "fromAddress": "0x4cb18386e5d1f34dc6eea834bf3534a970a3f8e7",
                    "gasUsed": 94185,
                    "id": 3,
                    "methodDecoded": true,
                    "operation": "CALL",
                    "output": "0x0000000000000000000000000000000000000000000000000000001159f5921dfffffffffffffffffffffffffffffffffffffffffffffffc07639ea85ba7e4ec",
                    "revert": false,
                    "revertMessage": "",
                    "selector": "0x128acb08",
                    "status": true,
                    "value": "0"
                },
                "nodeType": 0
            },
            "4": {
                "invocation": {
                    "address": "0xc02aaa39b223fe8d0a0e5c4f27ead9083c756cc2",
                    "callData": "0x00000000000000000000000056178a0d5f301baf6cf3e1cd53d9863437345bf9000000000000000000000000000000000000000000000003f89c6157a4581b14",
                    "decodedMethod": {
                        "callParams": [
                            {
                                "name": "dst",
                                "type": "address",
                                "value": "0x56178a0d5f301baf6cf3e1cd53d9863437345bf9"
                            },
                            {
                                "decimalAvailable": true,
                                "name": "wad",
                                "type": "uint256",
                                "value": "73,254,532,667,948,931,860"
                            }
                        ],
                        "constructorArguments": "",
                        "name": "transfer",
                        "returnParams": [
                            {
                                "name": "",
                                "type": "bool",
                                "value": true
                            }
                        ],
                        "signature": "transfer(address,uint256)"
                    },
                    "errorInfo": "",
                    "fromAddress": "0x88e6a0c2ddd26feeb64f039a2c41296fcb3f5640",
                    "gasUsed": 12862,
                    "id": 4,
                    "methodDecoded": true,
                    "operation": "CALL",
                    "output": "0x0000000000000000000000000000000000000000000000000000000000000001",
                    "revert": false,
                    "revertMessage": "",
                    "selector": "0xa9059cbb",
                    "status": true,
                    "value": "0"
                },
                "nodeType": 0
            },
            "5": {
                "event": {
                    "contract": "0xc02aaa39b223fe8d0a0e5c4f27ead9083c756cc2",
                    "decodedLog": {
                        "name": "Transfer",
                        "params": [
                            {
                                "name": "src",
                                "type": "address",
                                "value": "0x88e6a0c2ddd26feeb64f039a2c41296fcb3f5640"
                            },
                            {
                                "name": "dst",
                                "type": "address",
                                "value": "0x56178a0d5f301baf6cf3e1cd53d9863437345bf9"
                            },
                            {
                                "decimalAvailable": true,
                                "name": "wad",
                                "type": "uint256",
                                "value": "73,254,532,667,948,931,860"
                            }
                        ],
                        "signature": "Transfer(address,address,uint256)"
                    },
                    "id": 5,
                    "logData": "0x000000000000000000000000000000000000000000000003f89c6157a4581b14",
                    "logDecoded": true,
                    "operation": "EVENT",
                    "revert": false,
                    "status": true,
                    "topics": [
                        "0xddf252ad1be2c89b69c2b068fc378daa952ba7f163c4a11628f55a4df523b3ef",
                        "0x00000000000000000000000088e6a0c2ddd26feeb64f039a2c41296fcb3f5640",
                        "0x00000000000000000000000056178a0d5f301baf6cf3e1cd53d9863437345bf9"
                    ]
                },
                "nodeType": 1
            },
            "6": {
                "invocation": {
                    "address": "0xa0b86991c6218b36c1d19d4a2e9eb0ce3606eb48",
                    "callData": "0x00000000000000000000000088e6a0c2ddd26feeb64f039a2c41296fcb3f5640",
                    "decodedMethod": {
                        "callParams": [
                            {
                                "name": "account",
                                "type": "address",
                                "value": "0x88e6a0c2ddd26feeb64f039a2c41296fcb3f5640"
                            }
                        ],
                        "constructorArguments": "",
                        "name": "balanceOf",
                        "returnParams": [
                            {
                                "decimalAvailable": true,
                                "name": "",
                                "type": "uint256",
                                "value": "29,495,419,835,510"
                            }
                        ],
                        "signature": "balanceOf(address)"
                    },
                    "errorInfo": "",
                    "fromAddress": "0x88e6a0c2ddd26feeb64f039a2c41296fcb3f5640",
                    "gasUsed": 9815,
                    "id": 6,
                    "methodDecoded": true,
                    "operation": "STATICCALL",
                    "output": "0x00000000000000000000000000000000000000000000000000001ad370059476",
                    "revert": false,
                    "revertMessage": "",
                    "selector": "0x70a08231",
                    "status": true,
                    "value": "0"
                },
                "nodeType": 0
            },
            "7": {
                "invocation": {
                    "address": "0xa2327a938febf5fec13bacfb16ae10ecbc4cbdcf",
                    "callData": "0x00000000000000000000000088e6a0c2ddd26feeb64f039a2c41296fcb3f5640",
                    "decodedMethod": {
                        "callParams": [
                            {
                                "name": "account",
                                "type": "address",
                                "value": "0x88e6a0c2ddd26feeb64f039a2c41296fcb3f5640"
                            }
                        ],
                        "constructorArguments": "",
                        "name": "balanceOf",
                        "returnParams": [
                            {
                                "decimalAvailable": true,
                                "name": "",
                                "type": "uint256",
                                "value": "29,495,419,835,510"
                            }
                        ],
                        "signature": "balanceOf(address)"
                    },
                    "errorInfo": "",
                    "fromAddress": "0xa0b86991c6218b36c1d19d4a2e9eb0ce3606eb48",
                    "gasUsed": 2529,
                    "id": 7,
                    "methodDecoded": true,
                    "operation": "DELEGATECALL",
                    "output": "0x00000000000000000000000000000000000000000000000000001ad370059476",
                    "revert": false,
                    "revertMessage": "",
                    "selector": "0x70a08231",
                    "status": true,
                    "value": "0"
                },
                "nodeType": 0
            },
            "8": {
                "invocation": {
                    "address": "0x4cb18386e5d1f34dc6eea834bf3534a970a3f8e7",
                    "callData": "0x0000000000000000000000000000000000000000000000000000001159f5921dfffffffffffffffffffffffffffffffffffffffffffffffc07639ea85ba7e4ec0000000000000000000000000000000000000000000000000000000000000060000000000000000000000000000000000000000000000000000000000000006008374668a423750b443f65d645c5693995d43722b42cd84f7eeba28b008a40a200000000000000000000000056178a0d5f301baf6cf3e1cd53d9863437345bf9000000000000000000000000a0b86991c6218b36c1d19d4a2e9eb0ce3606eb48",
                    "decodedMethod": {
                        "callParams": [
                            {
                                "name": "amount0Delta",
                                "type": "int256",
                                "value": "74,523,709,981"
                            },
                            {
                                "name": "amount1Delta",
                                "type": "int256",
                                "value": "-73,254,532,667,948,931,860"
                            },
                            {
                                "name": "data",
                                "type": "bytes",
                                "value": "0x08374668a423750b443f65d645c5693995d43722b42cd84f7eeba28b008a40a200000000000000000000000056178a0d5f301baf6cf3e1cd53d9863437345bf9000000000000000000000000a0b86991c6218b36c1d19d4a2e9eb0ce3606eb48"
                            }
                        ],
                        "constructorArguments": "",
                        "name": "uniswapV3SwapCallback",
                        "returnParams": [],
                        "signature": "uniswapV3SwapCallback(int256,int256,bytes)"
                    },
                    "errorInfo": "",
                    "fromAddress": "0x88e6a0c2ddd26feeb64f039a2c41296fcb3f5640",
                    "gasUsed": 26939,
                    "id": 8,
                    "methodDecoded": true,
                    "operation": "CALL",
                    "output": "",
                    "revert": false,
                    "revertMessage": "",
                    "selector": "0xfa461e33",
                    "status": true,
                    "value": "0"
                },
                "nodeType": 0
            },
            "9": {
                "invocation": {
                    "address": "0xa0b86991c6218b36c1d19d4a2e9eb0ce3606eb48",
                    "callData": "0x00000000000000000000000056178a0d5f301baf6cf3e1cd53d9863437345bf900000000000000000000000088e6a0c2ddd26feeb64f039a2c41296fcb3f56400000000000000000000000000000000000000000000000000000001159f5921d",
                    "decodedMethod": {
                        "callParams": [
                            {
                                "name": "from",
                                "type": "address",
                                "value": "0x56178a0d5f301baf6cf3e1cd53d9863437345bf9"
                            },
                            {
                                "name": "to",
                                "type": "address",
                                "value": "0x88e6a0c2ddd26feeb64f039a2c41296fcb3f5640"
                            },
                            {
                                "decimalAvailable": true,
                                "name": "value",
                                "type": "uint256",
                                "value": "74,523,709,981"
                            }
                        ],
                        "constructorArguments": "",
                        "name": "transferFrom",
                        "returnParams": [
                            {
                                "name": "",
                                "type": "bool",
                                "value": true
                            }
                        ],
                        "signature": "transferFrom(address,address,uint256)"
                    },
                    "errorInfo": "",
                    "fromAddress": "0x4cb18386e5d1f34dc6eea834bf3534a970a3f8e7",
                    "gasUsed": 26392,
                    "id": 9,
                    "methodDecoded": true,
                    "operation": "CALL",
                    "output": "0x0000000000000000000000000000000000000000000000000000000000000001",
                    "revert": false,
                    "revertMessage": "",
                    "selector": "0x23b872dd",
                    "status": true,
                    "value": "0"
                },
                "nodeType": 0
            }
        },
        "gasFlame": [
            {
                "children": [
                    {
                        "children": [
                            {
                                "children": [],
                                "depth": 0,
                                "name": "Initial Gas",
                                "value": 23372
                            },
                            {
                                "children": [
                                    {
                                        "children": [
                                            {
                                                "children": [],
                                                "depth": 2,
                                                "name": "slot0",
                                                "value": 2696
                                            },
                                            {
                                                "children": [
                                                    {
                                                        "children": [],
                                                        "depth": 3,
                                                        "name": "transfer",
                                                        "value": 12862
                                                    },
                                                    {
                                                        "children": [
                                                            {
                                                                "children": [],
                                                                "depth": 4,
                                                                "name": "balanceOf",
                                                                "value": 2529
                                                            }
                                                        ],
                                                        "depth": 3,
                                                        "name": "balanceOf",
                                                        "value": 9815
                                                    },
                                                    {
                                                        "children": [
                                                            {
                                                                "children": [
                                                                    {
                                                                        "children": [],
                                                                        "depth": 5,
                                                                        "name": "transferFrom",
                                                                        "value": 25597
                                                                    }
                                                                ],
                                                                "depth": 4,
                                                                "name": "transferFrom",
                                                                "value": 26392
                                                            }
                                                        ],
                                                        "depth": 3,
                                                        "name": "uniswapV3SwapCallback",
                                                        "value": 26939
                                                    },
                                                    {
                                                        "children": [
                                                            {
                                                                "children": [],
                                                                "depth": 4,
                                                                "name": "balanceOf",
                                                                "value": 529
                                                            }
                                                        ],
                                                        "depth": 3,
                                                        "name": "balanceOf",
                                                        "value": 1315
                                                    }
                                                ],
                                                "depth": 2,
                                                "name": "swap",
                                                "value": 94185
                                            }
                                        ],
                                        "depth": 1,
                                        "name": "0xfcaf671c",
                                        "value": 100774
                                    }
                                ],
                                "depth": 0,
                                "name": "Executed Gas",
                                "value": 106374
                            }
                        ],
                        "depth": -1,
                        "name": "Actual Gas Used",
                        "value": 129746
                    },
                    {
                        "children": [],
                        "depth": -1,
                        "name": "Refunded Gas",
                        "value": 0
                    }
                ],
                "depth": -2,
                "name": "Total Gas",
                "value": 129746
            }
        ],
        "isConfirmed": true,
        "mainTrace": [
            {
                "children": [
                    {
                        "children": [
                            {
                                "children": [
                                    {
                                        "children": [],
                                        "depth": 2,
                                        "id": 2,
                                        "order": 2
                                    },
                                    {
                                        "children": [
                                            {
                                                "children": [
                                                    {
                                                        "children": [],
                                                        "depth": 4,
                                                        "id": 5,
                                                        "order": 5
                                                    }
                                                ],
                                                "depth": 3,
                                                "id": 4,
                                                "order": 4
                                            },
                                            {
                                                "children": [
                                                    {
                                                        "children": [],
                                                        "depth": 4,
                                                        "id": 7,
                                                        "order": 7
                                                    }
                                                ],
                                                "depth": 3,
                                                "id": 6,
                                                "order": 6
                                            },
                                            {
                                                "children": [
                                                    {
                                                        "children": [
                                                            {
                                                                "children": [
                                                                    {
                                                                        "children": [],
                                                                        "depth": 6,
                                                                        "id": 11,
                                                                        "order": 11
                                                                    }
                                                                ],
                                                                "depth": 5,
                                                                "id": 10,
                                                                "order": 10
                                                            }
                                                        ],
                                                        "depth": 4,
                                                        "id": 9,
                                                        "order": 9
                                                    }
                                                ],
                                                "depth": 3,
                                                "id": 8,
                                                "order": 8
                                            },
                                            {
                                                "children": [
                                                    {
                                                        "children": [],
                                                        "depth": 4,
                                                        "id": 13,
                                                        "order": 13
                                                    }
                                                ],
                                                "depth": 3,
                                                "id": 12,
                                                "order": 12
                                            },
                                            {
                                                "children": [],
                                                "depth": 3,
                                                "id": 14,
                                                "order": 14
                                            }
                                        ],
                                        "depth": 2,
                                        "id": 3,
                                        "order": 3
                                    }
                                ],
                                "depth": 1,
                                "id": 1,
                                "order": 1
                            }
                        ],
                        "depth": 0,
                        "id": 0,
                        "order": 0
                    }
                ],
                "depth": -1,
                "id": -1,
                "order": -1
            }
        ],
        "mainTraceNodeCount": 15,
        "parentIdMap": {
            "0": -1,
            "1": 0,
            "10": 9,
            "11": 10,
            "12": 3,
            "13": 12,
            "14": 3,
            "2": 1,
            "3": 1,
            "4": 3,
            "5": 4,
            "6": 3,
            "7": 6,
            "8": 3,
            "9": 8
        },
        "tidyTrace": [
            {
                "children": [
                    {
                        "children": [
                            {
                                "children": [
                                    {
                                        "children": [],
                                        "depth": 2,
                                        "id": 2,
                                        "order": 2
                                    },
                                    {
                                        "children": [
                                            {
                                                "children": [
                                                    {
                                                        "children": [],
                                                        "depth": 4,
                                                        "id": 5,
                                                        "order": 5
                                                    }
                                                ],
                                                "depth": 3,
                                                "id": 4,
                                                "order": 4
                                            },
                                            {
                                                "children": [
                                                    {
                                                        "children": [
                                                            {
                                                                "children": [
                                                                    {
                                                                        "children": [],
                                                                        "depth": 6,
                                                                        "id": 11,
                                                                        "order": 11
                                                                    }
                                                                ],
                                                                "depth": 5,
                                                                "id": 10,
                                                                "order": 10
                                                            }
                                                        ],
                                                        "depth": 4,
                                                        "id": 9,
                                                        "order": 9
                                                    }
                                                ],
                                                "depth": 3,
                                                "id": 8,
                                                "order": 8
                                            },
                                            {
                                                "children": [],
                                                "depth": 3,
                                                "id": 14,
                                                "order": 14
                                            }
                                        ],
                                        "depth": 2,
                                        "id": 3,
                                        "order": 3
                                    }
                                ],
                                "depth": 1,
                                "id": 1,
                                "order": 1
                            }
                        ],
                        "depth": 0,
                        "id": 0,
                        "order": 0
                    }
                ],
                "depth": -1,
                "id": -1,
                "order": -1
            }
        ],
        "tidyTraceNodeCount": 11
    },
    "state_change": {
        "stateChanges": [
            {
                "address": "0x88e6a0c2ddd26feeb64f039a2c41296fcb3f5640",
                "erc": "",
                "slots": [
                    {
                        "current": "0x00010002d002d002080328e00000000000007a7b02f1e44f40bfe049c1959700",
                        "key": "0x0000000000000000000000000000000000000000000000000000000000000000",
                        "prev": "0x00010002d002d002070328e70000000000007a855c13f6c578666c1fd8b5d0ae"
                    },
                    {
                        "current": "0x010000000000000001e88e751e91ea258be1431182000682207e892d62be02d2",
                        "key": "0x0000000000000000000000000000000000000000000000000000000000000210",
                        "prev": "0x010000000000000001e88dedc9f227083d81867bdd00068103b323e462bda8a7"
                    },
                    {
                        "current": "0x0000000000000000000000000000000000005589ec65e0809472361bc0be11c2",
                        "key": "0x0000000000000000000000000000000000000000000000000000000000000001",
                        "prev": "0x0000000000000000000000000000000000005589e69c44a09f7c92884cf1d532"
                    }
                ],
                "storageVariables": []
            },
            {
                "address": "0xa0b86991c6218b36c1d19d4a2e9eb0ce3606eb48",
                "erc": "ERC-20",
                "slots": [
                    {
                        "current": "0x00000000000000000000000000000000000000000000000000001093ae2d1b14",
                        "key": "0x1646e11273b8bbc66c81bdda3290ed5d99ce9c5ecb39e7d6cdd5c1518d86e3d9",
                        "prev": "0x000000000000000000000000000000000000000000000000000010a50822ad31"
                    },
                    {
                        "current": "0x00000000000000000000000000000000000000000000000000001ae4c9fb2693",
                        "key": "0x1f21a62c4538bacf2aabeca410f0fe63151869f172e03c0e00357ba26a341eff",
                        "prev": "0x00000000000000000000000000000000000000000000000000001ad370059476"
                    },
                    {
                        "current": "0xffffffffffffffffffffffffffffffffffffffffffffffffffc800fd2772d153",
                        "key": "0x6ab77b7477cd2b75a83cf960f486e9cd86d25bb24816f85e89d913d3ffe46e91",
                        "prev": "0xffffffffffffffffffffffffffffffffffffffffffffffffffc8010e81686370"
                    }
                ],
                "storageVariables": [
                    {
                        "name": "balances",
                        "type": "mapping(address => uint256)",
                        "value": {
                            "pairs": [
                                {
                                    "key": "0x56178a0d5f301baf6cf3e1cd53d9863437345bf9",
                                    "value": {
                                        "current": "18226468428564",
                                        "prev": "18300992138545",
                                        "typeTag": 1
                                    }
                                },
                                {
                                    "key": "0x88e6a0c2ddd26feeb64f039a2c41296fcb3f5640",
                                    "value": {
                                        "current": "29569943545491",
                                        "prev": "29495419835510",
                                        "typeTag": 1
                                    }
                                }
                            ],
                            "typeTag": 4
                        }
                    },
                    {
                        "name": "allowed",
                        "type": "mapping(address => mapping(address => uint256))",
                        "value": {
                            "pairs": [
                                {
                                    "key": "0x56178a0d5f301baf6cf3e1cd53d9863437345bf9",
                                    "value": {
                                        "pairs": [
                                            {
                                                "key": "0x4cb18386e5d1f34dc6eea834bf3534a970a3f8e7",
                                                "value": {
                                                    "current": "115792089237316195423570985008687907853269984665640564039457568246401722405203",
                                                    "prev": "115792089237316195423570985008687907853269984665640564039457568246476246115184",
                                                    "typeTag": 1
                                                }
                                            }
                                        ],
                                        "typeTag": 4
                                    }
                                }
                            ],
                            "typeTag": 4
                        }
                    }
                ]
            },
            {
                "address": "0xc02aaa39b223fe8d0a0e5c4f27ead9083c756cc2",
                "erc": "ERC-20",
                "slots": [
                    {
                        "current": "0x00000000000000000000000000000000000000000000016ae0d7a80d37901106",
                        "key": "0x30bd84b96629f958113934633d3bd1b64c3d259a85c57ceac65da8c5ec9bf3a7",
                        "prev": "0x000000000000000000000000000000000000000000000166e83b46b59337f5f2"
                    },
                    {
                        "current": "0x000000000000000000000000000000000000000000001370fb9d9c1165ab2905",
                        "key": "0x390f6178407c9b8e95802b8659e6df8e34c1e3d4f8d6a49e6132bbcdd937b63a",
                        "prev": "0x000000000000000000000000000000000000000000001374f439fd690a034419"
                    }
                ],
                "storageVariables": [
                    {
                        "name": "balanceOf",
                        "type": "mapping(address => uint256)",
                        "value": {
                            "pairs": [
                                {
                                    "key": "0x56178a0d5f301baf6cf3e1cd53d9863437345bf9",
                                    "value": {
                                        "current": "6693922957642066563334",
                                        "prev": "6620668424974117631474",
                                        "typeTag": 1
                                    }
                                },
                                {
                                    "key": "0x88e6a0c2ddd26feeb64f039a2c41296fcb3f5640",
                                    "value": {
                                        "current": "91809129330052126419205",
                                        "prev": "91882383862720075351065",
                                        "typeTag": 1
                                    }
                                }
                            ],
                            "typeTag": 4
                        }
                    }
                ]
            }
        ]
    }
}