{
    "balance_change": {
        "balanceChanges": []
    },
    "profile": {
        "basic_info": {
            "baseFee": "",
            "blockNumber": 9338479,
            "callData": "0xb1e5e9280000000000000000000000000000000000000000000000008ac7230489e80000",
            "debugEnable": true,
            "errorInfo": "",
            "eventCount": 1,
            "feeRecipient": "0x5a0b54d5dc17e0aadc383d2db43b0a0d3e029c4c",
            "formatValue": "0",
            "gasLimit": 57106,
            "gasPrice": "1",
            "gasUsed": 57106,
            "intTxnCount": 0,
            "internalRevert": false,
            "internalRevertMessage": "",
            "isContractCreation": false,
            "isFlashloan": false,
            "maxFee": "",
            "nonce": 535,
            "overwritedBlockNumber": -1,
            "priorityFee": "",
            "receiver": "0x9a07fd8a116b7e3be9e6185861496af7a2041460",
            "revertMessage": "",
            "sender": "0x0482c847d2dbdf8c758449266284f6ccdc3b36fa",
            "simulationEnable": true,
            "sourceTxnHash": "0x630198edc852fc6ab269e08cf8b9c544c47388b0d39cc2fd8dbeb1bfaa9e1f13",
            "status": true,
            "timestamp": "2020-01-23T14:31:15Z",
            "transactionFee": "0.000057106",
            "txnHash": "0x630198edc852fc6ab269e08cf8b9c544c47388b0d39cc2fd8dbeb1bfaa9e1f13",
            "txnIndex": 103,
            "type": 0,
            "value": "0"
        },
        "fund_flow": [],
        "token_infos": [
            {
                "address": "0xc02aaa39b223fe8d0a0e5c4f27ead9083c756cc2",
                "decimals": 18
            },
            {
                "address": "0xeeeeeeeeeeeeeeeeeeeeeeeeeeeeeeeeeeeeeeee",
                "decimals": 18
            }
        ]
    },
    "address_label": {
        "labels": [
            {
                "address": "0xeeeeeeeeeeeeeeeeeeeeeeeeeeeeeeeeeeeeeeee",
                "label": "Ether"
            },
            {
                "address": "0x9a07fd8a116b7e3be9e6185861496af7a2041460",
                "label": "EmcoToken (EMCO)"
            },
            {
                "address": "0x0000000000000000000000000000000000000001",
                "label": "Precompiled"
            },
            {
                "address": "0x0000000000000000000000000000000000000002",
                "label": "Precompiled"
            },
            {
                "address": "0x0000000000000000000000000000000000000003",
                "label": "Precompiled"
            },
            {
                "address": "0x0000000000000000000000000000000000000004",
                "label": "Precompiled"
            }
        ]
    },
    "trace": {
        "accountLabels": null,
        "dataMap": {
            "-1": {
                "invocation": {
                    "address": "0x0482c847d2dbdf8c758449266284f6ccdc3b36fa",
                    "callData": "",
                    "decodedMethod": null,
                    "errorInfo": "",
                    "fromAddress": "",
                    "gasUsed": 0,
                    "id": -1,
                    "methodDecoded": false,
                    "operation": "",
                    "output": "",
                    "revert": false,
                    "revertMessage": "",
                    "selector": "",
                    "status": false,
                    "value": ""
                },
                "nodeType": 0
            },
            "0": {
                "invocation": {
                    "address": "0x9a07fd8a116b7e3be9e6185861496af7a2041460",
                    "callData": "0x0000000000000000000000000000000000000000000000008ac7230489e80000",
                    "decodedMethod": {
                        "callParams": [
                            {
                                "name": "_amount",
                                "type": "uint256",
                                "value": "10,000,000,000,000,000,000"
                            }
                        ],
                        "constructorArguments": "",
                        "name": "depositToMiningBalance",
                        "returnParams": [],
                        "signature": "depositToMiningBalance(uint256)"
                    },
                    "errorInfo": "",
                    "fromAddress": "0x0482c847d2dbdf8c758449266284f6ccdc3b36fa",
                    "gasUsed": 57106,
                    "id": 0,
                    "methodDecoded": true,
                    "operation": "CALL",
                    "output": "",
                    "revert": false,
                    "revertMessage": "",
                    "selector": "0xb1e5e928",
                    "status": true,
                    "value": "0"
                },
                "nodeType": 0
            },
            "1": {
                "event": {
                    "contract": "0x9a07fd8a116b7e3be9e6185861496af7a2041460",
                    "decodedLog": {
                        "name": "MiningBalanceUpdated",
                        "params": [
                            {
                                "name": "owner",
                                "type": "address",
                                "value": "0x0482c847d2dbdf8c758449266284f6ccdc3b36fa"
                            },
                            {
                                "name": "amount",
                                "type": "uint256",
                                "value": "10,000,000,000,000,000,000"
                            },
                            {
                                "name": "isDeposit",
                                "type": "bool",
                                "value": true
                            }
                        ],
                        "signature": "MiningBalanceUpdated(address,uint256,bool)"
                    },
                    "id": 1,
                    "logData": "0x0000000000000000000000000000000000000000000000008ac7230489e800000000000000000000000000000000000000000000000000000000000000000001",
                    "logDecoded": true,
                    "operation": "EVENT",
                    "revert": false,
                    "status": true,
                    "topics": [
                        "0x822ade8c81d527897e088fa789edb7c459003f063f4f89c9d7fe43a0b0da10f3",
                        "0x0000000000000000000000000482c847d2dbdf8c758449266284f6ccdc3b36fa"
                    ]
                },
                "nodeType": 1
            }
        },
        "gasFlame": [
            {
                "children": [
                    {
                        "children": [
                            {
                                "children": [],
                                "depth": 0,
                                "name": "Initial Gas",
                                "value": 21264
                            },
                            {
                                "children": [],
                                "depth": 0,
                                "name": "Executed Gas",
                                "value": 35842
                            }
                        ],
                        "depth": -1,
                        "name": "Actual Gas Used",
                        "value": 57106
                    },
                    {
                        "children": [],
                        "depth": -1,
                        "name": "Refunded Gas",
                        "value": 0
                    }
                ],
                "depth": -2,
                "name": "Total Gas",
                "value": 57106
            }
        ],
        "isConfirmed": true,
        "mainTrace": [
            {
                "children": [
                    {
                        "children": [
                            {
                                "children": [],
                                "depth": 1,
                                "id": 1,
                                "order": 1
                            }
                        ],
                        "depth": 0,
                        "id": 0,
                        "order": 0
                    }
                ],
                "depth": -1,
                "id": -1,
                "order": -1
            }
        ],
        "mainTraceNodeCount": 2,
        "parentIdMap": {
            "0": -1,
            "1": 0
        },
        "tidyTrace": [
            {
                "children": [
                    {
                        "children": [
                            {
                                "children": [],
                                "depth": 1,
                                "id": 1,
                                "order": 1
                            }
                        ],
                        "depth": 0,
                        "id": 0,
                        "order": 0
                    }
                ],
                "depth": -1,
                "id": -1,
                "order": -1
            }
        ],
        "tidyTraceNodeCount": 2
    },
    "state_change": {
        "stateChanges": [
            {
                "address": "0x9a07fd8a116b7e3be9e6185861496af7a2041460",
                "erc": "ERC-20",
                "slots": [
                    {
                        "current": "0x0000000000000000000000000000000000000000000002f5aa05288561349571",
                        "key": "0x14dbc1564fc418f972c5f857bed4670a0b69ab2a56cb5a599b4046ad88821794",
                        "prev": "0x0000000000000000000000000000000000000000000002f51f3e0580d74c9571"
                    },
                    {
                        "current": "0x00000000000000000000000000000000000000000002fa5461e30daa574ab2f6",
                        "key": "0x000000000000000000000000000000000000000000000000000000000000000a",
                        "prev": "0x00000000000000000000000000000000000000000002fa53d71beaa5cd62b2f6"
                    },
                    {
                        "current": "0x00000000000000000000000000000000000000000000032b530b6a8cc6560ae7",
                        "key": "0x0000000000000000000000000000000000000000000000000000000000000009",
                        "prev": "0x00000000000000000000000000000000000000000000032ac84447883c6e0ae7"
                    },
                    {
                        "current": "0x000000000000000000000000000000000000000000000000000000005e29ae33",
                        "key": "0xb9caeae43a0d58a0cf1ff8250d2a5231dfc485faa503fafc2d94f7ab241304b2",
                        "prev": "0x000000000000000000000000000000000000000000000000000000005e28f8f4"
                    },
                    {
                        "current": "0x0000000000000000000000000000000000000000000000c48e122e7fe16c3660",
                        "key": "0xa44f4aab77fb97c532c86a61413aeaf37edf01a5348ca7002850185a603ce1db",
                        "prev": "0x0000000000000000000000000000000000000000000000c518d951846b543660"
                    }
                ],
                "storageVariables": [
                    {
                        "name": "miningBalances",
                        "type": "mapping(address => uint256)",
                        "value": {
                            "pairs": [
                                {
                                    "key": "0x0482c847d2dbdf8c758449266284f6ccdc3b36fa",
                                    "value": {
                                        "current": "13976436506712788473201",
                                        "prev": "13966436506712788473201",
                                        "typeTag": 1
                                    }
                                }
                            ],
                            "typeTag": 4
                        }
                    },
                    {
                        "name": "miningTotalDeposited",
                        "type": "uint256",
                        "value": {
                            "current": "3599999839945327907615478",
                            "prev": "3599989839945327907615478",
                            "typeTag": 1
                        }
                    },
                    {
                        "name": "currentDayDeposited",
                        "type": "uint256",
                        "value": {
                            "current": "14966293437461193689831",
                            "prev": "14956293437461193689831",
                            "typeTag": 1
                        }
                    },
                    {
                        "name": "lastMiningBalanceUpdateTime",
                        "type": "mapping(address => uint256)",
                        "value": {
                            "pairs": [
                                {
                                    "key": "0x0482c847d2dbdf8c758449266284f6ccdc3b36fa",
                                    "value": {
                                        "current": "1579789875",
                                        "prev": "1579743476",
                                        "typeTag": 1
                                    }
                                }
                            ],
                            "typeTag": 4
                        }
                    },
                    {
                        "name": "balances",
                        "type": "mapping(address => uint256)",
                        "value": {
                            "pairs": [
                                {
                                    "key": "0x0482c847d2dbdf8c758449266284f6ccdc3b36fa",
                                    "value": {
                                        "current": "3625799134476816365152",
                                        "prev": "3635799134476816365152",
                                        "typeTag": 1
                                    }
                                }
                            ],
                            "typeTag": 4
                        }
                    }
                ]
            }
        ]
    }
}