{
    "balance_change": {
        "balanceChanges": [
            {
                "account": "0xab70ef776f6e70ba9a771bf9b13f171d60dffacb",
                "assets": [
                    {
                        "address": "0x9bb1db1445b83213a56d90d331894b3f26218e4e",
                        "amount": "189",
                        "iconUrl": "",
                        "isERC1155": false,
                        "isERC721": false,
                        "sign": false,
                        "value": ""
                    }
                ]
            },
            {
                "account": "0x4090f229c44ed0d3720bfc5cb828e218b22c8bab",
                "assets": [
                    {
                        "address": "0x9bb1db1445b83213a56d90d331894b3f26218e4e",
                        "amount": "189",
                        "iconUrl": "",
                        "isERC1155": false,
                        "isERC721": false,
                        "sign": true,
                        "value": ""
                    }
                ]
            }
        ]
    },
    "profile": {
        "basic_info": {
            "baseFee": "",
            "blockNumber": 6437105,
            "callData": "0xa9059cbb0000000000000000000000004090f229c44ed0d3720bfc5cb828e218b22c8bab00000000000000000000000000000000000000000000000a3ee6e2a294d40000",
            "debugEnable": true,
            "errorInfo": "",
            "eventCount": 1,
            "feeRecipient": "0x5a0b54d5dc17e0aadc383d2db43b0a0d3e029c4c",
            "formatValue": "0",
            "gasLimit": 60000,
            "gasPrice": "15.01",
            "gasUsed": 52441,
            "intTxnCount": 0,
            "internalRevert": false,
            "internalRevertMessage": "",
            "isContractCreation": false,
            "isFlashloan": false,
            "maxFee": "",
            "nonce": 3354,
            "overwritedBlockNumber": -1,
            "priorityFee": "",
            "receiver": "0x9bb1db1445b83213a56d90d331894b3f26218e4e",
            "revertMessage": "",
            "sender": "0xab70ef776f6e70ba9a771bf9b13f171d60dffacb",
            "simulationEnable": true,
            "sourceTxnHash": "0x6347f8b6cdbefca53e51ce4a119cbee7f9032cc7441dd1170d9c78561eb4a38f",
            "status": true,
            "timestamp": "2018-10-02T03:01:00Z",
            "transactionFee": "0.00078713941",
            "txnHash": "0x6347f8b6cdbefca53e51ce4a119cbee7f9032cc7441dd1170d9c78561eb4a38f",
            "txnIndex": 134,
            "type": 0,
            "value": "0"
        },
        "fund_flow": [
            {
                "amount": "189",
                "from": "0xab70ef776f6e70ba9a771bf9b13f171d60dffacb",
                "id": 1,
                "isERC1155": false,
                "isERC721": false,
                "isReverted": false,
                "order": 1,
                "to": "0x4090f229c44ed0d3720bfc5cb828e218b22c8bab",
                "token": "0x9bb1db1445b83213a56d90d331894b3f26218e4e"
            }
        ],
        "token_infos": [
            {
                "address": "0x9bb1db1445b83213a56d90d331894b3f26218e4e",
                "decimals": 18
            },
            {
                "address": "0xc02aaa39b223fe8d0a0e5c4f27ead9083c756cc2",
                "decimals": 18
            },
            {
                "address": "0xeeeeeeeeeeeeeeeeeeeeeeeeeeeeeeeeeeeeeeee",
                "decimals": 18
            }
        ]
    },
    "address_label": {
        "labels": [
            {
                "address": "0x9bb1db1445b83213a56d90d331894b3f26218e4e",
                "label": "HIBT"
            },
            {
                "address": "0x0000000000000000000000000000000000000001",
                "label": "Precompiled"
            },
            {
                "address": "0x0000000000000000000000000000000000000002",
                "label": "Precompiled"
            },
            {
                "address": "0x0000000000000000000000000000000000000003",
                "label": "Precompiled"
            },
            {
                "address": "0x0000000000000000000000000000000000000004",
                "label": "Precompiled"
            },
            {
                "address": "0xeeeeeeeeeeeeeeeeeeeeeeeeeeeeeeeeeeeeeeee",
                "label": "Ether"
            }
        ]
    },
    "trace": {
        "accountLabels": null,
        "dataMap": {
            "-1": {
                "invocation": {
                    "address": "0xab70ef776f6e70ba9a771bf9b13f171d60dffacb",
                    "callData": "",
                    "decodedMethod": null,
                    "errorInfo": "",
                    "fromAddress": "",
                    "gasUsed": 0,
                    "id": -1,
                    "methodDecoded": false,
                    "operation": "",
                    "output": "",
                    "revert": false,
                    "revertMessage": "",
                    "selector": "",
                    "status": false,
                    "value": ""
                },
                "nodeType": 0
            },
            "0": {
                "invocation": {
                    "address": "0x9bb1db1445b83213a56d90d331894b3f26218e4e",
                    "callData": "0x0000000000000000000000004090f229c44ed0d3720bfc5cb828e218b22c8bab00000000000000000000000000000000000000000000000a3ee6e2a294d40000",
                    "decodedMethod": {
                        "callParams": [
                            {
                                "name": "_to",
                                "type": "address",
                                "value": "0x4090f229c44ed0d3720bfc5cb828e218b22c8bab"
                            },
                            {
                                "decimalAvailable": true,
                                "name": "_value",
                                "type": "uint256",
                                "value": "189,000,000,000,000,000,000"
                            }
                        ],
                        "constructorArguments": "",
                        "name": "transfer",
                        "returnParams": [
                            {
                                "name": "",
                                "type": "bool",
                                "value": true
                            }
                        ],
                        "signature": "transfer(address,uint256)"
                    },
                    "errorInfo": "",
                    "fromAddress": "0xab70ef776f6e70ba9a771bf9b13f171d60dffacb",
                    "gasUsed": 52441,
                    "id": 0,
                    "methodDecoded": true,
                    "operation": "CALL",
                    "output": "0x0000000000000000000000000000000000000000000000000000000000000001",
                    "revert": false,
                    "revertMessage": "",
                    "selector": "0xa9059cbb",
                    "status": true,
                    "value": "0"
                },
                "nodeType": 0
            },
            "1": {
                "event": {
                    "contract": "0x9bb1db1445b83213a56d90d331894b3f26218e4e",
                    "decodedLog": {
                        "name": "Transfer",
                        "params": [
                            {
                                "name": "from",
                                "type": "address",
                                "value": "0xab70ef776f6e70ba9a771bf9b13f171d60dffacb"
                            },
                            {
                                "name": "to",
                                "type": "address",
                                "value": "0x4090f229c44ed0d3720bfc5cb828e218b22c8bab"
                            },
                            {
                                "decimalAvailable": true,
                                "name": "value",
                                "type": "uint256",
                                "value": "189,000,000,000,000,000,000"
                            }
                        ],
                        "signature": "Transfer(address,address,uint256)"
                    },
                    "id": 1,
                    "logData": "0x00000000000000000000000000000000000000000000000a3ee6e2a294d40000",
                    "logDecoded": true,
                    "operation": "EVENT",
                    "revert": false,
                    "status": true,
                    "topics": [
                        "0xddf252ad1be2c89b69c2b068fc378daa952ba7f163c4a11628f55a4df523b3ef",
                        "0x000000000000000000000000ab70ef776f6e70ba9a771bf9b13f171d60dffacb",
                        "0x0000000000000000000000004090f229c44ed0d3720bfc5cb828e218b22c8bab"
                    ]
                },
                "nodeType": 1
            }
        },
        "gasFlame": [
            {
                "children": [
                    {
                        "children": [
                            {
                                "children": [],
                                "depth": 0,
                                "name": "Initial Gas",
                                "value": 23256
                            },
                            {
                                "children": [],
                                "depth": 0,
                                "name": "Executed Gas",
                                "value": 29185
                            }
                        ],
                        "depth": -1,
                        "name": "Actual Gas Used",
                        "value": 52441
                    },
                    {
                        "children": [],
                        "depth": -1,
                        "name": "Refunded Gas",
                        "value": 0
                    }
                ],
                "depth": -2,
                "name": "Total Gas",
                "value": 52441
            }
        ],
        "isConfirmed": true,
        "mainTrace": [
            {
                "children": [
                    {
                        "children": [
                            {
                                "children": [],
                                "depth": 1,
                                "id": 1,
                                "order": 1
                            }
                        ],
                        "depth": 0,
                        "id": 0,
                        "order": 0
                    }
                ],
                "depth": -1,
                "id": -1,
                "order": -1
            }
        ],
        "mainTraceNodeCount": 2,
        "parentIdMap": {
            "0": -1,
            "1": 0
        },
        "tidyTrace": [
            {
                "children": [
                    {
                        "children": [
                            {
                                "children": [],
                                "depth": 1,
                                "id": 1,
                                "order": 1
                            }
                        ],
                        "depth": 0,
                        "id": 0,
                        "order": 0
                    }
                ],
                "depth": -1,
                "id": -1,
                "order": -1
            }
        ],
        "tidyTraceNodeCount": 2
    },
    "state_change": {
        "stateChanges": [
            {
                "address": "0x9bb1db1445b83213a56d90d331894b3f26218e4e",
                "erc": "ERC-20",
                "slots": [
                    {
                        "current": "0x0000000000000000000000000000000000000000009bd41de257ffee8bcc0000",
                        "key": "0x501b96c9d3a1a765e5c7a7e2fcd03147048fd749048b6ccd100d2c2b7becc59d",
                        "prev": "0x0000000000000000000000000000000000000000009bd428213ee29120a00000"
                    },
                    {
                        "current": "0x00000000000000000000000000000000000000000000000a3ee6e2a294d40000",
                        "key": "0xcbcb29ff55cae7ced0db7c2c39809be165509481afd26ed47c52beec0fc86164",
                        "prev": "0x0000000000000000000000000000000000000000000000000000000000000000"
                    }
                ],
                "storageVariables": [
                    {
                        "name": "balances",
                        "type": "mapping(address => uint256)",
                        "value": {
                            "pairs": [
                                {
                                    "key": "0x4090f229c44ed0d3720bfc5cb828e218b22c8bab",
                                    "value": {
                                        "current": "189000000000000000000",
                                        "prev": "0",
                                        "typeTag": 1
                                    }
                                },
                                {
                                    "key": "0xab70ef776f6e70ba9a771bf9b13f171d60dffacb",
                                    "value": {
                                        "current": "188385195000000000000000000",
                                        "prev": "188385384000000000000000000",
                                        "typeTag": 1
                                    }
                                }
                            ],
                            "typeTag": 4
                        }
                    }
                ]
            }
        ]
    }
}