{
    "balance_change": {
        "balanceChanges": [
            {
                "account": "0x3a7b874f2060d39909d9140a4d4ca9f02359177c",
                "assets": [
                    {
                        "address": "0xe25bcec5d3801ce3a794079bf94adf1b8ccd802d",
                        "amount": "0.0000000001677419",
                        "iconUrl": "https://assets.blocksec.com/icon/b37600c89169ae1ff9cdc59e01e9a5cebb010984b8581e099133b48da8c5a8bd.png",
                        "isERC1155": false,
                        "isERC721": false,
                        "sign": false,
                        "value": ""
                    }
                ]
            },
            {
                "account": "0xa27d3632a283c138c2f78ba21d1e473a500e4af3",
                "assets": [
                    {
                        "address": "0xe25bcec5d3801ce3a794079bf94adf1b8ccd802d",
                        "amount": "0.0000000001677419",
                        "iconUrl": "https://assets.blocksec.com/icon/b37600c89169ae1ff9cdc59e01e9a5cebb010984b8581e099133b48da8c5a8bd.png",
                        "isERC1155": false,
                        "isERC721": false,
                        "sign": true,
                        "value": ""
                    }
                ]
            }
        ]
    },
    "profile": {
        "basic_info": {
            "baseFee": "",
            "blockNumber": 7607474,
            "callData": "0xa9059cbb000000000000000000000000a27d3632a283c138c2f78ba21d1e473a500e4af30000000000000000000000000000000000000000000000000000000009ff89cc",
            "debugEnable": true,
            "errorInfo": "",
            "eventCount": 1,
            "feeRecipient": "0xea674fdde714fd979de3edf0f56aa9716b898ec8",
            "formatValue": "0",
            "gasLimit": 38500,
            "gasPrice": "1.558",
            "gasUsed": 23105,
            "intTxnCount": 0,
            "internalRevert": false,
            "internalRevertMessage": "",
            "isContractCreation": false,
            "isFlashloan": false,
            "maxFee": "",
            "nonce": 1,
            "overwritedBlockNumber": -1,
            "priorityFee": "",
            "receiver": "0xe25bcec5d3801ce3a794079bf94adf1b8ccd802d",
            "revertMessage": "",
            "sender": "0x3a7b874f2060d39909d9140a4d4ca9f02359177c",
            "simulationEnable": true,
            "sourceTxnHash": "0x63ddbb6dfa81de96a0b3f0cdfc323150346f7f57060109795b2d54697ec919db",
            "status": true,
            "timestamp": "2019-04-20T23:30:08Z",
            "transactionFee": "0.00003599759",
            "txnHash": "0x63ddbb6dfa81de96a0b3f0cdfc323150346f7f57060109795b2d54697ec919db",
            "txnIndex": 212,
            "type": 0,
            "value": "0"
        },
        "fund_flow": [
            {
                "amount": "0.0000000001677419",
                "from": "0x3a7b874f2060d39909d9140a4d4ca9f02359177c",
                "id": 1,
                "isERC1155": false,
                "isERC721": false,
                "isReverted": false,
                "order": 1,
                "to": "0xa27d3632a283c138c2f78ba21d1e473a500e4af3",
                "token": "0xe25bcec5d3801ce3a794079bf94adf1b8ccd802d"
            }
        ],
        "token_infos": [
            {
                "address": "0xc02aaa39b223fe8d0a0e5c4f27ead9083c756cc2",
                "decimals": 18
            },
            {
                "address": "0xe25bcec5d3801ce3a794079bf94adf1b8ccd802d",
                "decimals": 18
            },
            {
                "address": "0xeeeeeeeeeeeeeeeeeeeeeeeeeeeeeeeeeeeeeeee",
                "decimals": 18
            }
        ]
    },
    "address_label": {
        "labels": [
            {
                "address": "0x0000000000000000000000000000000000000002",
                "label": "Precompiled"
            },
            {
                "address": "0x0000000000000000000000000000000000000003",
                "label": "Precompiled"
            },
            {
                "address": "0x0000000000000000000000000000000000000004",
                "label": "Precompiled"
            },
            {
                "address": "0xeeeeeeeeeeeeeeeeeeeeeeeeeeeeeeeeeeeeeeee",
                "label": "Ether"
            },
            {
                "address": "0xe25bcec5d3801ce3a794079bf94adf1b8ccd802d",
                "label": "MATRIX AI Network: Old Token"
            },
            {
                "address": "0x0000000000000000000000000000000000000001",
                "label": "Precompiled"
            }
        ]
    },
    "trace": {
        "accountLabels": null,
        "dataMap": {
            "-1": {
                "invocation": {
                    "address": "0x3a7b874f2060d39909d9140a4d4ca9f02359177c",
                    "callData": "",
                    "decodedMethod": null,
                    "errorInfo": "",
                    "fromAddress": "",
                    "gasUsed": 0,
                    "id": -1,
                    "methodDecoded": false,
                    "operation": "",
                    "output": "",
                    "revert": false,
                    "revertMessage": "",
                    "selector": "",
                    "status": false,
                    "value": ""
                },
                "nodeType": 0
            },
            "0": {
                "invocation": {
                    "address": "0xe25bcec5d3801ce3a794079bf94adf1b8ccd802d",
                    "callData": "0x000000000000000000000000a27d3632a283c138c2f78ba21d1e473a500e4af30000000000000000000000000000000000000000000000000000000009ff89cc",
                    "decodedMethod": {
                        "callParams": [
                            {
                                "name": "_to",
                                "type": "address",
                                "value": "0xa27d3632a283c138c2f78ba21d1e473a500e4af3"
                            },
                            {
                                "decimalAvailable": true,
                                "name": "_value",
                                "type": "uint256",
                                "value": "167,741,900"
                            }
                        ],
                        "constructorArguments": "",
                        "name": "transfer",
                        "returnParams": [],
                        "signature": "transfer(address,uint256)"
                    },
                    "errorInfo": "",
                    "fromAddress": "0x3a7b874f2060d39909d9140a4d4ca9f02359177c",
                    "gasUsed": 23105,
                    "id": 0,
                    "methodDecoded": true,
                    "operation": "CALL",
                    "output": "",
                    "revert": false,
                    "revertMessage": "",
                    "selector": "0xa9059cbb",
                    "status": true,
                    "value": "0"
                },
                "nodeType": 0
            },
            "1": {
                "event": {
                    "contract": "0xe25bcec5d3801ce3a794079bf94adf1b8ccd802d",
                    "decodedLog": {
                        "name": "Transfer",
                        "params": [
                            {
                                "name": "from",
                                "type": "address",
                                "value": "0x3a7b874f2060d39909d9140a4d4ca9f02359177c"
                            },
                            {
                                "name": "to",
                                "type": "address",
                                "value": "0xa27d3632a283c138c2f78ba21d1e473a500e4af3"
                            },
                            {
                                "decimalAvailable": true,
                                "name": "value",
                                "type": "uint256",
                                "value": "167,741,900"
                            }
                        ],
                        "signature": "Transfer(address,address,uint256)"
                    },
                    "id": 1,
                    "logData": "0x0000000000000000000000000000000000000000000000000000000009ff89cc",
                    "logDecoded": true,
                    "operation": "EVENT",
                    "revert": false,
                    "status": true,
                    "topics": [
                        "0xddf252ad1be2c89b69c2b068fc378daa952ba7f163c4a11628f55a4df523b3ef",
                        "0x0000000000000000000000003a7b874f2060d39909d9140a4d4ca9f02359177c",
                        "0x000000000000000000000000a27d3632a283c138c2f78ba21d1e473a500e4af3"
                    ]
                },
                "nodeType": 1
            }
        },
        "gasFlame": [
            {
                "children": [
                    {
                        "children": [
                            {
                                "children": [],
                                "depth": 0,
                                "name": "Initial Gas",
                                "value": 23064
                            },
                            {
                                "children": [],
                                "depth": 0,
                                "name": "Executed Gas",
                                "value": 15041
                            }
                        ],
                        "depth": -1,
                        "name": "Actual Gas Used",
                        "value": 23105
                    },
                    {
                        "children": [],
                        "depth": -1,
                        "name": "Refunded Gas",
                        "value": 15000
                    }
                ],
                "depth": -2,
                "name": "Total Gas",
                "value": 38105
            }
        ],
        "isConfirmed": true,
        "mainTrace": [
            {
                "children": [
                    {
                        "children": [
                            {
                                "children": [],
                                "depth": 1,
                                "id": 1,
                                "order": 1
                            }
                        ],
                        "depth": 0,
                        "id": 0,
                        "order": 0
                    }
                ],
                "depth": -1,
                "id": -1,
                "order": -1
            }
        ],
        "mainTraceNodeCount": 2,
        "parentIdMap": {
            "0": -1,
            "1": 0
        },
        "tidyTrace": [
            {
                "children": [
                    {
                        "children": [
                            {
                                "children": [],
                                "depth": 1,
                                "id": 1,
                                "order": 1
                            }
                        ],
                        "depth": 0,
                        "id": 0,
                        "order": 0
                    }
                ],
                "depth": -1,
                "id": -1,
                "order": -1
            }
        ],
        "tidyTraceNodeCount": 2
    },
    "state_change": {
        "stateChanges": [
            {
                "address": "0xe25bcec5d3801ce3a794079bf94adf1b8ccd802d",
                "erc": "",
                "slots": [
                    {
                        "current": "0x0000000000000000000000000000000000000000001c0d1b5d608a5c0dbd8dd7",
                        "key": "0x6c9105ec4dcc8f7bdefc514a3bd619c01cc57113d9da62a8e24cd62555d60233",
                        "prev": "0x0000000000000000000000000000000000000000001c0d1b5d608a5c03be040b"
                    },
                    {
                        "current": "0x0000000000000000000000000000000000000000000000000000000000000000",
                        "key": "0xb444c781a35240347cded5beada140de5a534c655e378c1f7d10907c7fde67d9",
                        "prev": "0x0000000000000000000000000000000000000000000000000000000009ff89cc"
                    }
                ],
                "storageVariables": [
                    {
                        "name": "balanceOf",
                        "type": "mapping(address => uint256)",
                        "value": {
                            "pairs": [
                                {
                                    "key": "0x3a7b874f2060d39909d9140a4d4ca9f02359177c",
                                    "value": {
                                        "current": "0",
                                        "prev": "167741900",
                                        "typeTag": 1
                                    }
                                },
                                {
                                    "key": "0xa27d3632a283c138c2f78ba21d1e473a500e4af3",
                                    "value": {
                                        "current": "33911818504106883701116375",
                                        "prev": "33911818504106883533374475",
                                        "typeTag": 1
                                    }
                                }
                            ],
                            "typeTag": 4
                        }
                    }
                ]
            }
        ]
    }
}