{
    "balance_change": {
        "balanceChanges": []
    },
    "profile": {
        "basic_info": {
            "baseFee": "6.365116829",
            "blockNumber": 19772497,
            "callData": "0xb143044b00000000000000000000000000000000000000000000000000000000000000200000000000000000000000000000000000000000000000000000000000000001000000000000000000000000000000000000000000000000000000000000002000000000000000000000000000000000000000000000000000000000000000650000000000000000000000004d73adb72bc3dd368966edd0f0b2148401a178e200000000000000000000000000000000000000000000000000000000000000a0000000000000000000000000000000000000000000000000000000006632067b00000000000000000000000000000000000000000000000000000000000001600000000000000000000000000000000000000000000000000000000000000084704316e5000000000000000000000000000000000000000000000000000000000000006eac48ab2ab8da00faa5f737bdd0fb65bb77cda05bd1945354ea37a415eee0f0d40000000000000000000000000000000000000000000000000000000000000014ac48ab2ab8da00faa5f737bdd0fb65bb77cda05bd1945354ea37a415eee0f0d4000000000000000000000000000000000000000000000000000000000000000000000000000000000000000000000000000000000000000000000082480f57d400a42f10deaa4cd6bbae05997b10fafadd075463eb9a8cda638132df54b028cd71b140a6328884f1484cbb58834fd233e063fe44e1d49638a83e76371c66bf65ea570787db09872c846e4281abe68fadb27ea50103beae2c2e1e96a89e18dbdb1047504a116cb2e5c5884f1f8c77a076d390ed74907bbafc41c5b020701c000000000000000000000000000000000000000000000000000000000000",
            "debugEnable": true,
            "errorInfo": "",
            "eventCount": 1,
            "feeRecipient": "0x4838b106fce9647bdf1e7877bf73ce8b0bad5f97",
            "formatValue": "0",
            "gasLimit": 1786064,
            "gasPrice": "7.524403204",
            "gasUsed": 76018,
            "intTxnCount": 3,
            "internalRevert": false,
            "internalRevertMessage": "",
            "isContractCreation": false,
            "isFlashloan": false,
            "maxFee": "",
            "nonce": 230266,
            "overwritedBlockNumber": -1,
            "priorityFee": "",
            "receiver": "0xd56e4eab23cb81f43168f9f45211eb027b9ac7cc",
            "revertMessage": "",
            "sender": "0x21c3de23d98caddc406e3d31b25e807addf33633",
            "simulationEnable": true,
            "sourceTxnHash": "0x6353f13087024b44d637faec81a9073214a52e5fddfede6dc049c7eb6f81bdba",
            "status": true,
            "timestamp": "2024-05-01T03:08:23Z",
            "transactionFee": "0.000571990082761672",
            "txnHash": "0x6353f13087024b44d637faec81a9073214a52e5fddfede6dc049c7eb6f81bdba",
            "txnIndex": 22,
            "type": 0,
            "value": "0"
        },
        "fund_flow": [],
        "token_infos": [
            {
                "address": "0xc02aaa39b223fe8d0a0e5c4f27ead9083c756cc2",
                "decimals": 18
            },
            {
                "address": "0xeeeeeeeeeeeeeeeeeeeeeeeeeeeeeeeeeeeeeeee",
                "decimals": 18
            }
        ]
    },
    "address_label": {
        "labels": [
            {
                "address": "0x0000000000000000000000000000000000000004",
                "label": "Precompiled"
            },
            {
                "address": "0xeeeeeeeeeeeeeeeeeeeeeeeeeeeeeeeeeeeeeeee",
                "label": "Ether"
            },
            {
                "address": "0x4d73adb72bc3dd368966edd0f0b2148401a178e2",
                "label": "Layer Zero: Ultra Light Node v2"
            },
            {
                "address": "0xd56e4eab23cb81f43168f9f45211eb027b9ac7cc",
                "label": "VerifierNetwork"
            },
            {
                "address": "0x0000000000000000000000000000000000000001",
                "label": "Precompiled"
            },
            {
                "address": "0x0000000000000000000000000000000000000002",
                "label": "Precompiled"
            },
            {
                "address": "0x0000000000000000000000000000000000000003",
                "label": "Precompiled"
            }
        ]
    },
    "trace": {
        "accountLabels": null,
        "dataMap": {
            "-1": {
                "invocation": {
                    "address": "0x21c3de23d98caddc406e3d31b25e807addf33633",
                    "callData": "",
                    "decodedMethod": null,
                    "errorInfo": "",
                    "fromAddress": "",
                    "gasUsed": 0,
                    "id": -1,
                    "methodDecoded": false,
                    "operation": "",
                    "output": "",
                    "revert": false,
                    "revertMessage": "",
                    "selector": "",
                    "status": false,
                    "value": ""
                },
                "nodeType": 0
            },
            "0": {
                "invocation": {
                    "address": "0xd56e4eab23cb81f43168f9f45211eb027b9ac7cc",
                    "callData": "0x00000000000000000000000000000000000000000000000000000000000000200000000000000000000000000000000000000000000000000000000000000001000000000000000000000000000000000000000000000000000000000000002000000000000000000000000000000000000000000000000000000000000000650000000000000000000000004d73adb72bc3dd368966edd0f0b2148401a178e200000000000000000000000000000000000000000000000000000000000000a0000000000000000000000000000000000000000000000000000000006632067b00000000000000000000000000000000000000000000000000000000000001600000000000000000000000000000000000000000000000000000000000000084704316e5000000000000000000000000000000000000000000000000000000000000006eac48ab2ab8da00faa5f737bdd0fb65bb77cda05bd1945354ea37a415eee0f0d40000000000000000000000000000000000000000000000000000000000000014ac48ab2ab8da00faa5f737bdd0fb65bb77cda05bd1945354ea37a415eee0f0d4000000000000000000000000000000000000000000000000000000000000000000000000000000000000000000000000000000000000000000000082480f57d400a42f10deaa4cd6bbae05997b10fafadd075463eb9a8cda638132df54b028cd71b140a6328884f1484cbb58834fd233e063fe44e1d49638a83e76371c66bf65ea570787db09872c846e4281abe68fadb27ea50103beae2c2e1e96a89e18dbdb1047504a116cb2e5c5884f1f8c77a076d390ed74907bbafc41c5b020701c000000000000000000000000000000000000000000000000000000000000",
                    "decodedMethod": {
                        "callParams": [
                            {
                                "name": "_params",
                                "type": "(uint32,address,bytes,uint256,bytes)[]",
                                "value": [
                                    [
                                        {
                                            "name": "vid",
                                            "type": "uint32",
                                            "value": "101"
                                        },
                                        {
                                            "name": "target",
                                            "type": "address",
                                            "value": "0x4d73adb72bc3dd368966edd0f0b2148401a178e2"
                                        },
                                        {
                                            "name": "callData",
                                            "type": "bytes",
                                            "value": "0x704316e5000000000000000000000000000000000000000000000000000000000000006eac48ab2ab8da00faa5f737bdd0fb65bb77cda05bd1945354ea37a415eee0f0d40000000000000000000000000000000000000000000000000000000000000014ac48ab2ab8da00faa5f737bdd0fb65bb77cda05bd1945354ea37a415eee0f0d4"
                                        },
                                        {
                                            "name": "expiration",
                                            "type": "uint256",
                                            "value": "1,714,554,491"
                                        },
                                        {
                                            "name": "signatures",
                                            "type": "bytes",
                                            "value": "0x480f57d400a42f10deaa4cd6bbae05997b10fafadd075463eb9a8cda638132df54b028cd71b140a6328884f1484cbb58834fd233e063fe44e1d49638a83e76371c66bf65ea570787db09872c846e4281abe68fadb27ea50103beae2c2e1e96a89e18dbdb1047504a116cb2e5c5884f1f8c77a076d390ed74907bbafc41c5b020701c"
                                        }
                                    ]
                                ]
                            }
                        ],
                        "constructorArguments": "",
                        "name": "execute",
                        "returnParams": [],
                        "signature": "execute((uint32,address,bytes,uint256,bytes)[])"
                    },
                    "errorInfo": "",
                    "fromAddress": "0x21c3de23d98caddc406e3d31b25e807addf33633",
                    "gasUsed": 76018,
                    "id": 0,
                    "methodDecoded": true,
                    "operation": "CALL",
                    "output": "",
                    "revert": false,
                    "revertMessage": "",
                    "selector": "0xb143044b",
                    "status": true,
                    "value": "0"
                },
                "nodeType": 0
            },
            "1": {
                "invocation": {
                    "address": "0x0000000000000000000000000000000000000001",
                    "callData": "0x87fc6d3d2b4c5178608e37b9ba7402001690c5a71b0f01ec775de899000000000000000000000000000000000000000000000000000000000000001c480f57d400a42f10deaa4cd6bbae05997b10fafadd075463eb9a8cda638132df54b028cd71b140a6328884f1484cbb58834fd233e063fe44e1d49638a83e7637",
                    "decodedMethod": {
                        "callParams": [
                            {
                                "name": "hash",
                                "type": "bytes32",
                                "value": "0x7437e5f687fc6d3d2b4c5178608e37b9ba7402001690c5a71b0f01ec775de899"
                            },
                            {
                                "name": "v",
                                "type": "uint256",
                                "value": "28"
                            },
                            {
                                "name": "r",
                                "type": "bytes32",
                                "value": "0x480f57d400a42f10deaa4cd6bbae05997b10fafadd075463eb9a8cda638132df"
                            },
                            {
                                "name": "s",
                                "type": "bytes32",
                                "value": "0x54b028cd71b140a6328884f1484cbb58834fd233e063fe44e1d49638a83e7637"
                            }
                        ],
                        "constructorArguments": "",
                        "name": "ecrecover",
                        "returnParams": [
                            {
                                "name": "",
                                "type": "address",
                                "value": "0x0d099360a069359fe7c9503ab44cbcb9eb2a7466"
                            }
                        ],
                        "signature": "ecrecover(bytes32,uint256,bytes32,bytes32)"
                    },
                    "errorInfo": "",
                    "fromAddress": "0xd56e4eab23cb81f43168f9f45211eb027b9ac7cc",
                    "gasUsed": 3000,
                    "id": 1,
                    "methodDecoded": true,
                    "operation": "STATICCALL",
                    "output": "0x0000000000000000000000000d099360a069359fe7c9503ab44cbcb9eb2a7466",
                    "revert": false,
                    "revertMessage": "",
                    "selector": "0x7437e5f6",
                    "status": true,
                    "value": "0"
                },
                "nodeType": 0
            },
            "2": {
                "invocation": {
                    "address": "0x0000000000000000000000000000000000000001",
                    "callData": "0x87fc6d3d2b4c5178608e37b9ba7402001690c5a71b0f01ec775de899000000000000000000000000000000000000000000000000000000000000001c66bf65ea570787db09872c846e4281abe68fadb27ea50103beae2c2e1e96a89e18dbdb1047504a116cb2e5c5884f1f8c77a076d390ed74907bbafc41c5b02070",
                    "decodedMethod": {
                        "callParams": [
                            {
                                "name": "hash",
                                "type": "bytes32",
                                "value": "0x7437e5f687fc6d3d2b4c5178608e37b9ba7402001690c5a71b0f01ec775de899"
                            },
                            {
                                "name": "v",
                                "type": "uint256",
                                "value": "28"
                            },
                            {
                                "name": "r",
                                "type": "bytes32",
                                "value": "0x66bf65ea570787db09872c846e4281abe68fadb27ea50103beae2c2e1e96a89e"
                            },
                            {
                                "name": "s",
                                "type": "bytes32",
                                "value": "0x18dbdb1047504a116cb2e5c5884f1f8c77a076d390ed74907bbafc41c5b02070"
                            }
                        ],
                        "constructorArguments": "",
                        "name": "ecrecover",
                        "returnParams": [
                            {
                                "name": "",
                                "type": "address",
                                "value": "0x94bc8ba19b4cce7aac14e2679942fc567e027c67"
                            }
                        ],
                        "signature": "ecrecover(bytes32,uint256,bytes32,bytes32)"
                    },
                    "errorInfo": "",
                    "fromAddress": "0xd56e4eab23cb81f43168f9f45211eb027b9ac7cc",
                    "gasUsed": 3000,
                    "id": 2,
                    "methodDecoded": true,
                    "operation": "STATICCALL",
                    "output": "0x00000000000000000000000094bc8ba19b4cce7aac14e2679942fc567e027c67",
                    "revert": false,
                    "revertMessage": "",
                    "selector": "0x7437e5f6",
                    "status": true,
                    "value": "0"
                },
                "nodeType": 0
            },
            "3": {
                "invocation": {
                    "address": "0x4d73adb72bc3dd368966edd0f0b2148401a178e2",
                    "callData": "0x000000000000000000000000000000000000000000000000000000000000006eac48ab2ab8da00faa5f737bdd0fb65bb77cda05bd1945354ea37a415eee0f0d40000000000000000000000000000000000000000000000000000000000000014ac48ab2ab8da00faa5f737bdd0fb65bb77cda05bd1945354ea37a415eee0f0d4",
                    "decodedMethod": {
                        "callParams": [
                            {
                                "name": "_srcChainId",
                                "type": "uint16",
                                "value": "110"
                            },
                            {
                                "name": "_lookupHash",
                                "type": "bytes32",
                                "value": "0xac48ab2ab8da00faa5f737bdd0fb65bb77cda05bd1945354ea37a415eee0f0d4"
                            },
                            {
                                "name": "_confirmations",
                                "type": "uint256",
                                "value": "20"
                            },
                            {
                                "name": "_blockData",
                                "type": "bytes32",
                                "value": "0xac48ab2ab8da00faa5f737bdd0fb65bb77cda05bd1945354ea37a415eee0f0d4"
                            }
                        ],
                        "constructorArguments": "",
                        "name": "updateHash",
                        "returnParams": [],
                        "signature": "updateHash(uint16,bytes32,uint256,bytes32)"
                    },
                    "errorInfo": "",
                    "fromAddress": "0xd56e4eab23cb81f43168f9f45211eb027b9ac7cc",
                    "gasUsed": 25536,
                    "id": 3,
                    "methodDecoded": true,
                    "operation": "CALL",
                    "output": "",
                    "revert": false,
                    "revertMessage": "",
                    "selector": "0x704316e5",
                    "status": true,
                    "value": "0"
                },
                "nodeType": 0
            },
            "4": {
                "event": {
                    "contract": "0x4d73adb72bc3dd368966edd0f0b2148401a178e2",
                    "decodedLog": {
                        "name": "HashReceived",
                        "params": [
                            {
                                "name": "srcChainId",
                                "type": "uint16",
                                "value": "110"
                            },
                            {
                                "name": "oracle",
                                "type": "address",
                                "value": "0xd56e4eab23cb81f43168f9f45211eb027b9ac7cc"
                            },
                            {
                                "name": "lookupHash",
                                "type": "bytes32",
                                "value": "0xac48ab2ab8da00faa5f737bdd0fb65bb77cda05bd1945354ea37a415eee0f0d4"
                            },
                            {
                                "name": "blockData",
                                "type": "bytes32",
                                "value": "0xac48ab2ab8da00faa5f737bdd0fb65bb77cda05bd1945354ea37a415eee0f0d4"
                            },
                            {
                                "name": "confirmations",
                                "type": "uint256",
                                "value": "20"
                            }
                        ],
                        "signature": "HashReceived(uint16,address,bytes32,bytes32,uint256)"
                    },
                    "id": 4,
                    "logData": "0xac48ab2ab8da00faa5f737bdd0fb65bb77cda05bd1945354ea37a415eee0f0d4ac48ab2ab8da00faa5f737bdd0fb65bb77cda05bd1945354ea37a415eee0f0d40000000000000000000000000000000000000000000000000000000000000014",
                    "logDecoded": true,
                    "operation": "EVENT",
                    "revert": false,
                    "status": true,
                    "topics": [
                        "0x74bbc026808dcba59692d6a8bb20596849ca718e10e2432c6cdf48af865bc5d9",
                        "0x000000000000000000000000000000000000000000000000000000000000006e",
                        "0x000000000000000000000000d56e4eab23cb81f43168f9f45211eb027b9ac7cc"
                    ]
                },
                "nodeType": 1
            }
        },
        "gasFlame": [
            {
                "children": [
                    {
                        "children": [
                            {
                                "children": [],
                                "depth": 0,
                                "name": "Initial Gas",
                                "value": 26384
                            },
                            {
                                "children": [
                                    {
                                        "children": [],
                                        "depth": 1,
                                        "name": "ecrecover",
                                        "value": 3000
                                    },
                                    {
                                        "children": [],
                                        "depth": 1,
                                        "name": "ecrecover",
                                        "value": 3000
                                    },
                                    {
                                        "children": [],
                                        "depth": 1,
                                        "name": "updateHash",
                                        "value": 25536
                                    }
                                ],
                                "depth": 0,
                                "name": "Executed Gas",
                                "value": 49634
                            }
                        ],
                        "depth": -1,
                        "name": "Actual Gas Used",
                        "value": 76018
                    },
                    {
                        "children": [],
                        "depth": -1,
                        "name": "Refunded Gas",
                        "value": 0
                    }
                ],
                "depth": -2,
                "name": "Total Gas",
                "value": 76018
            }
        ],
        "isConfirmed": true,
        "mainTrace": [
            {
                "children": [
                    {
                        "children": [
                            {
                                "children": [],
                                "depth": 1,
                                "id": 1,
                                "order": 1
                            },
                            {
                                "children": [],
                                "depth": 1,
                                "id": 2,
                                "order": 2
                            },
                            {
                                "children": [
                                    {
                                        "children": [],
                                        "depth": 2,
                                        "id": 4,
                                        "order": 4
                                    }
                                ],
                                "depth": 1,
                                "id": 3,
                                "order": 3
                            }
                        ],
                        "depth": 0,
                        "id": 0,
                        "order": 0
                    }
                ],
                "depth": -1,
                "id": -1,
                "order": -1
            }
        ],
        "mainTraceNodeCount": 5,
        "parentIdMap": {
            "0": -1,
            "1": 0,
            "2": 0,
            "3": 0,
            "4": 3
        },
        "tidyTrace": [
            {
                "children": [
                    {
                        "children": [
                            {
                                "children": [
                                    {
                                        "children": [],
                                        "depth": 2,
                                        "id": 4,
                                        "order": 4
                                    }
                                ],
                                "depth": 1,
                                "id": 3,
                                "order": 3
                            }
                        ],
                        "depth": 0,
                        "id": 0,
                        "order": 0
                    }
                ],
                "depth": -1,
                "id": -1,
                "order": -1
            }
        ],
        "tidyTraceNodeCount": 3
    },
    "state_change": {
        "stateChanges": [
            {
                "address": "0x4d73adb72bc3dd368966edd0f0b2148401a178e2",
                "erc": "",
                "slots": [
                    {
                        "current": "0x0000000000000000000000000000000000000000000000000000000000000014",
                        "key": "0x8d2dad6c04752e97d68674abec93934fc225d87fd571236ab46767034a71eb66",
                        "prev": "0x0000000000000000000000000000000000000000000000000000000000000000"
                    }
                ],
                "storageVariables": [
                    {
                        "name": "hashLookup",
                        "type": "mapping(address => mapping(uint16 => mapping(bytes32 => mapping(bytes32 => uint256))))",
                        "value": {
                            "pairs": [
                                {
                                    "key": "0xd56e4eab23cb81f43168f9f45211eb027b9ac7cc",
                                    "value": {
                                        "pairs": [
                                            {
                                                "key": "110",
                                                "value": {
                                                    "pairs": [
                                                        {
                                                            "key": "0xac48ab2ab8da00faa5f737bdd0fb65bb77cda05bd1945354ea37a415eee0f0d4",
                                                            "value": {
                                                                "pairs": [
                                                                    {
                                                                        "key": "0xac48ab2ab8da00faa5f737bdd0fb65bb77cda05bd1945354ea37a415eee0f0d4",
                                                                        "value": {
                                                                            "current": "20",
                                                                            "prev": "0",
                                                                            "typeTag": 1
                                                                        }
                                                                    }
                                                                ],
                                                                "typeTag": 4
                                                            }
                                                        }
                                                    ],
                                                    "typeTag": 4
                                                }
                                            }
                                        ],
                                        "typeTag": 4
                                    }
                                }
                            ],
                            "typeTag": 4
                        }
                    }
                ]
            }
        ]
    }
}