{
    "balance_change": {
        "balanceChanges": [
            {
                "account": "0xab5c66752a9e8167967685f1450532fb96d5d24f",
                "assets": [
                    {
                        "address": "0xb62132e35a6c13ee1ee0f84dc5d40bad8d815206",
                        "amount": "7,873.98576443",
                        "iconUrl": "https://assets.blocksec.com/icon/fea86f969d2759a2ee2f170e71fc014cd439e415f97fa60c37db575eb46dfac5.png",
                        "isERC1155": false,
                        "isERC721": false,
                        "sign": false,
                        "value": "1907.871462"
                    }
                ]
            },
            {
                "account": "0x9f72e16dcea2b72787246a3784ba6a2cf97f8ffc",
                "assets": [
                    {
                        "address": "0xb62132e35a6c13ee1ee0f84dc5d40bad8d815206",
                        "amount": "7,873.98576443",
                        "iconUrl": "https://assets.blocksec.com/icon/fea86f969d2759a2ee2f170e71fc014cd439e415f97fa60c37db575eb46dfac5.png",
                        "isERC1155": false,
                        "isERC721": false,
                        "sign": true,
                        "value": "1907.871462"
                    }
                ]
            }
        ]
    },
    "profile": {
        "basic_info": {
            "baseFee": "",
            "blockNumber": 11346714,
            "callData": "0xa9059cbb0000000000000000000000009f72e16dcea2b72787246a3784ba6a2cf97f8ffc0000000000000000000000000000000000000000000001aad980ee95a4c18c00",
            "debugEnable": true,
            "errorInfo": "",
            "eventCount": 1,
            "feeRecipient": "0xea674fdde714fd979de3edf0f56aa9716b898ec8",
            "formatValue": "0",
            "gasLimit": 90000,
            "gasPrice": "31",
            "gasUsed": 37699,
            "intTxnCount": 0,
            "internalRevert": false,
            "internalRevertMessage": "",
            "isContractCreation": false,
            "isFlashloan": false,
            "maxFee": "",
            "nonce": 1521305,
            "overwritedBlockNumber": -1,
            "priorityFee": "",
            "receiver": "0xb62132e35a6c13ee1ee0f84dc5d40bad8d815206",
            "revertMessage": "",
            "sender": "0xab5c66752a9e8167967685f1450532fb96d5d24f",
            "simulationEnable": true,
            "sourceTxnHash": "0x6390872ff2e56a5794014fa93a1e319ad6d70f5f23bf1c97c494152839a7a424",
            "status": true,
            "timestamp": "2020-11-28T11:24:58Z",
            "transactionFee": "0.001168669",
            "txnHash": "0x6390872ff2e56a5794014fa93a1e319ad6d70f5f23bf1c97c494152839a7a424",
            "txnIndex": 17,
            "type": 0,
            "value": "0"
        },
        "fund_flow": [
            {
                "amount": "7,873.98576443",
                "from": "0xab5c66752a9e8167967685f1450532fb96d5d24f",
                "id": 1,
                "isERC1155": false,
                "isERC721": false,
                "isReverted": false,
                "order": 1,
                "to": "0x9f72e16dcea2b72787246a3784ba6a2cf97f8ffc",
                "token": "0xb62132e35a6c13ee1ee0f84dc5d40bad8d815206"
            }
        ],
        "token_infos": [
            {
                "address": "0xc02aaa39b223fe8d0a0e5c4f27ead9083c756cc2",
                "decimals": 18
            },
            {
                "address": "0xeeeeeeeeeeeeeeeeeeeeeeeeeeeeeeeeeeeeeeee",
                "decimals": 18
            },
            {
                "address": "0xb62132e35a6c13ee1ee0f84dc5d40bad8d815206",
                "decimals": 18
            }
        ]
    },
    "address_label": {
        "labels": [
            {
                "address": "0xeeeeeeeeeeeeeeeeeeeeeeeeeeeeeeeeeeeeeeee",
                "label": "Ether"
            },
            {
                "address": "0xb62132e35a6c13ee1ee0f84dc5d40bad8d815206",
                "label": "Nexo Token"
            },
            {
                "address": "0xab5c66752a9e8167967685f1450532fb96d5d24f",
                "label": "HTX 1"
            },
            {
                "address": "0x0000000000000000000000000000000000000001",
                "label": "Precompiled"
            },
            {
                "address": "0x0000000000000000000000000000000000000002",
                "label": "Precompiled"
            },
            {
                "address": "0x0000000000000000000000000000000000000003",
                "label": "Precompiled"
            },
            {
                "address": "0x0000000000000000000000000000000000000004",
                "label": "Precompiled"
            }
        ]
    },
    "trace": {
        "accountLabels": null,
        "dataMap": {
            "-1": {
                "invocation": {
                    "address": "0xab5c66752a9e8167967685f1450532fb96d5d24f",
                    "callData": "",
                    "decodedMethod": null,
                    "errorInfo": "",
                    "fromAddress": "",
                    "gasUsed": 0,
                    "id": -1,
                    "methodDecoded": false,
                    "operation": "",
                    "output": "",
                    "revert": false,
                    "revertMessage": "",
                    "selector": "",
                    "status": false,
                    "value": ""
                },
                "nodeType": 0
            },
            "0": {
                "invocation": {
                    "address": "0xb62132e35a6c13ee1ee0f84dc5d40bad8d815206",
                    "callData": "0x0000000000000000000000009f72e16dcea2b72787246a3784ba6a2cf97f8ffc0000000000000000000000000000000000000000000001aad980ee95a4c18c00",
                    "decodedMethod": {
                        "callParams": [
                            {
                                "name": "_to",
                                "type": "address",
                                "value": "0x9f72e16dcea2b72787246a3784ba6a2cf97f8ffc"
                            },
                            {
                                "decimalAvailable": true,
                                "name": "_value",
                                "type": "uint256",
                                "value": "7,873,985,764,430,000,000,000"
                            }
                        ],
                        "constructorArguments": "",
                        "name": "transfer",
                        "returnParams": [
                            {
                                "name": "success",
                                "type": "bool",
                                "value": true
                            }
                        ],
                        "signature": "transfer(address,uint256)"
                    },
                    "errorInfo": "",
                    "fromAddress": "0xab5c66752a9e8167967685f1450532fb96d5d24f",
                    "gasUsed": 37699,
                    "id": 0,
                    "methodDecoded": true,
                    "operation": "CALL",
                    "output": "0x0000000000000000000000000000000000000000000000000000000000000001",
                    "revert": false,
                    "revertMessage": "",
                    "selector": "0xa9059cbb",
                    "status": true,
                    "value": "0"
                },
                "nodeType": 0
            },
            "1": {
                "event": {
                    "contract": "0xb62132e35a6c13ee1ee0f84dc5d40bad8d815206",
                    "decodedLog": {
                        "name": "Transfer",
                        "params": [
                            {
                                "name": "from",
                                "type": "address",
                                "value": "0xab5c66752a9e8167967685f1450532fb96d5d24f"
                            },
                            {
                                "name": "to",
                                "type": "address",
                                "value": "0x9f72e16dcea2b72787246a3784ba6a2cf97f8ffc"
                            },
                            {
                                "decimalAvailable": true,
                                "name": "value",
                                "type": "uint256",
                                "value": "7,873,985,764,430,000,000,000"
                            }
                        ],
                        "signature": "Transfer(address,address,uint256)"
                    },
                    "id": 1,
                    "logData": "0x0000000000000000000000000000000000000000000001aad980ee95a4c18c00",
                    "logDecoded": true,
                    "operation": "EVENT",
                    "revert": false,
                    "status": true,
                    "topics": [
                        "0xddf252ad1be2c89b69c2b068fc378daa952ba7f163c4a11628f55a4df523b3ef",
                        "0x000000000000000000000000ab5c66752a9e8167967685f1450532fb96d5d24f",
                        "0x0000000000000000000000009f72e16dcea2b72787246a3784ba6a2cf97f8ffc"
                    ]
                },
                "nodeType": 1
            }
        },
        "gasFlame": [
            {
                "children": [
                    {
                        "children": [
                            {
                                "children": [],
                                "depth": 0,
                                "name": "Initial Gas",
                                "value": 21668
                            },
                            {
                                "children": [],
                                "depth": 0,
                                "name": "Executed Gas",
                                "value": 16031
                            }
                        ],
                        "depth": -1,
                        "name": "Actual Gas Used",
                        "value": 37699
                    },
                    {
                        "children": [],
                        "depth": -1,
                        "name": "Refunded Gas",
                        "value": 0
                    }
                ],
                "depth": -2,
                "name": "Total Gas",
                "value": 37699
            }
        ],
        "isConfirmed": true,
        "mainTrace": [
            {
                "children": [
                    {
                        "children": [
                            {
                                "children": [],
                                "depth": 1,
                                "id": 1,
                                "order": 1
                            }
                        ],
                        "depth": 0,
                        "id": 0,
                        "order": 0
                    }
                ],
                "depth": -1,
                "id": -1,
                "order": -1
            }
        ],
        "mainTraceNodeCount": 2,
        "parentIdMap": {
            "0": -1,
            "1": 0
        },
        "tidyTrace": [
            {
                "children": [
                    {
                        "children": [
                            {
                                "children": [],
                                "depth": 1,
                                "id": 1,
                                "order": 1
                            }
                        ],
                        "depth": 0,
                        "id": 0,
                        "order": 0
                    }
                ],
                "depth": -1,
                "id": -1,
                "order": -1
            }
        ],
        "tidyTraceNodeCount": 2
    },
    "state_change": {
        "stateChanges": [
            {
                "address": "0xb62132e35a6c13ee1ee0f84dc5d40bad8d815206",
                "erc": "ERC-20",
                "slots": [
                    {
                        "current": "0x00000000000000000000000000000000000000000000b1f1e798fd3075a2d600",
                        "key": "0xbf70a2f563fc18d7e4bafe71128fe9c263458f715d79b1a58a91c53e9b78c20e",
                        "prev": "0x00000000000000000000000000000000000000000000b39cc119ebc61a646200"
                    },
                    {
                        "current": "0x00000000000000000000000000000000000000000000025455bf641ecfc6ca05",
                        "key": "0x30d15d14fa938e45e8e5644dfdb8f70c3b582b90b343d55757be671748432246",
                        "prev": "0x0000000000000000000000000000000000000000000000a97c3e75892b053e05"
                    }
                ],
                "storageVariables": [
                    {
                        "name": "balances",
                        "type": "mapping(address => uint256)",
                        "value": {
                            "pairs": [
                                {
                                    "key": "0x9f72e16dcea2b72787246a3784ba6a2cf97f8ffc",
                                    "value": {
                                        "current": "11000438235228166081029",
                                        "prev": "3126452470798166081029",
                                        "typeTag": 1
                                    }
                                },
                                {
                                    "key": "0xab5c66752a9e8167967685f1450532fb96d5d24f",
                                    "value": {
                                        "current": "840321221156495000000000",
                                        "prev": "848195206920925000000000",
                                        "typeTag": 1
                                    }
                                }
                            ],
                            "typeTag": 4
                        }
                    }
                ]
            }
        ]
    }
}