{
    "balance_change": {
        "balanceChanges": [
            {
                "account": "0xdf8efb8a522561ea9bd8c55874dca4536ee5c618",
                "assets": [
                    {
                        "address": "0x037a54aab062628c9bbae1fdb1583c195585fe41",
                        "amount": "251,572.322162028012232729",
                        "iconUrl": "https://assets.blocksec.com/icon/d3978d45c2c571f9ca10320a73e71c61507b447fe96a03e9324370d21cd351ae.png",
                        "isERC1155": false,
                        "isERC721": false,
                        "sign": false,
                        "value": ""
                    }
                ]
            },
            {
                "account": "0x07adcdbab78b2bdeccae90b783d313e2cca8fef1",
                "assets": [
                    {
                        "address": "0x037a54aab062628c9bbae1fdb1583c195585fe41",
                        "amount": "251,572.322162028012232729",
                        "iconUrl": "https://assets.blocksec.com/icon/d3978d45c2c571f9ca10320a73e71c61507b447fe96a03e9324370d21cd351ae.png",
                        "isERC1155": false,
                        "isERC721": false,
                        "sign": true,
                        "value": ""
                    }
                ]
            }
        ]
    },
    "profile": {
        "basic_info": {
            "baseFee": "",
            "blockNumber": 10580837,
            "callData": "0xa9059cbb00000000000000000000000007adcdbab78b2bdeccae90b783d313e2cca8fef1000000000000000000000000000000000000000000003545c34e2713a219e019",
            "debugEnable": true,
            "errorInfo": "",
            "eventCount": 1,
            "feeRecipient": "0x829bd824b016326a401d083b33d092293333a830",
            "formatValue": "0",
            "gasLimit": 52225,
            "gasPrice": "85",
            "gasUsed": 36225,
            "intTxnCount": 0,
            "internalRevert": false,
            "internalRevertMessage": "",
            "isContractCreation": false,
            "isFlashloan": false,
            "maxFee": "",
            "nonce": 9067,
            "overwritedBlockNumber": -1,
            "priorityFee": "",
            "receiver": "0x037a54aab062628c9bbae1fdb1583c195585fe41",
            "revertMessage": "",
            "sender": "0xdf8efb8a522561ea9bd8c55874dca4536ee5c618",
            "simulationEnable": true,
            "sourceTxnHash": "0x647433590e0305026af01247cdeaa86c333f16217bfe362b1e791c04095c245f",
            "status": true,
            "timestamp": "2020-08-02T14:01:41Z",
            "transactionFee": "0.003079125",
            "txnHash": "0x647433590e0305026af01247cdeaa86c333f16217bfe362b1e791c04095c245f",
            "txnIndex": 52,
            "type": 0,
            "value": "0"
        },
        "fund_flow": [
            {
                "amount": "251,572.322162028012232729",
                "from": "0xdf8efb8a522561ea9bd8c55874dca4536ee5c618",
                "id": 1,
                "isERC1155": false,
                "isERC721": false,
                "isReverted": false,
                "order": 1,
                "to": "0x07adcdbab78b2bdeccae90b783d313e2cca8fef1",
                "token": "0x037a54aab062628c9bbae1fdb1583c195585fe41"
            }
        ],
        "token_infos": [
            {
                "address": "0x037a54aab062628c9bbae1fdb1583c195585fe41",
                "decimals": 18
            },
            {
                "address": "0xc02aaa39b223fe8d0a0e5c4f27ead9083c756cc2",
                "decimals": 18
            },
            {
                "address": "0xeeeeeeeeeeeeeeeeeeeeeeeeeeeeeeeeeeeeeeee",
                "decimals": 18
            }
        ]
    },
    "address_label": {
        "labels": [
            {
                "address": "0x0000000000000000000000000000000000000004",
                "label": "Precompiled"
            },
            {
                "address": "0xeeeeeeeeeeeeeeeeeeeeeeeeeeeeeeeeeeeeeeee",
                "label": "Ether"
            },
            {
                "address": "0x037a54aab062628c9bbae1fdb1583c195585fe41",
                "label": "LCX AG: LCX Token"
            },
            {
                "address": "0x0000000000000000000000000000000000000001",
                "label": "Precompiled"
            },
            {
                "address": "0x0000000000000000000000000000000000000002",
                "label": "Precompiled"
            },
            {
                "address": "0x0000000000000000000000000000000000000003",
                "label": "Precompiled"
            }
        ]
    },
    "trace": {
        "accountLabels": null,
        "dataMap": {
            "-1": {
                "invocation": {
                    "address": "0xdf8efb8a522561ea9bd8c55874dca4536ee5c618",
                    "callData": "",
                    "decodedMethod": null,
                    "errorInfo": "",
                    "fromAddress": "",
                    "gasUsed": 0,
                    "id": -1,
                    "methodDecoded": false,
                    "operation": "",
                    "output": "",
                    "revert": false,
                    "revertMessage": "",
                    "selector": "",
                    "status": false,
                    "value": ""
                },
                "nodeType": 0
            },
            "0": {
                "invocation": {
                    "address": "0x037a54aab062628c9bbae1fdb1583c195585fe41",
                    "callData": "0x00000000000000000000000007adcdbab78b2bdeccae90b783d313e2cca8fef1000000000000000000000000000000000000000000003545c34e2713a219e019",
                    "decodedMethod": {
                        "callParams": [
                            {
                                "name": "to",
                                "type": "address",
                                "value": "0x07adcdbab78b2bdeccae90b783d313e2cca8fef1"
                            },
                            {
                                "decimalAvailable": true,
                                "name": "value",
                                "type": "uint256",
                                "value": "251,572,322,162,028,012,232,729"
                            }
                        ],
                        "constructorArguments": "",
                        "name": "transfer",
                        "returnParams": [
                            {
                                "name": "",
                                "type": "bool",
                                "value": true
                            }
                        ],
                        "signature": "transfer(address,uint256)"
                    },
                    "errorInfo": "",
                    "fromAddress": "0xdf8efb8a522561ea9bd8c55874dca4536ee5c618",
                    "gasUsed": 36225,
                    "id": 0,
                    "methodDecoded": true,
                    "operation": "CALL",
                    "output": "0x0000000000000000000000000000000000000000000000000000000000000001",
                    "revert": false,
                    "revertMessage": "",
                    "selector": "0xa9059cbb",
                    "status": true,
                    "value": "0"
                },
                "nodeType": 0
            },
            "1": {
                "event": {
                    "contract": "0x037a54aab062628c9bbae1fdb1583c195585fe41",
                    "decodedLog": {
                        "name": "Transfer",
                        "params": [
                            {
                                "name": "from",
                                "type": "address",
                                "value": "0xdf8efb8a522561ea9bd8c55874dca4536ee5c618"
                            },
                            {
                                "name": "to",
                                "type": "address",
                                "value": "0x07adcdbab78b2bdeccae90b783d313e2cca8fef1"
                            },
                            {
                                "decimalAvailable": true,
                                "name": "value",
                                "type": "uint256",
                                "value": "251,572,322,162,028,012,232,729"
                            }
                        ],
                        "signature": "Transfer(address,address,uint256)"
                    },
                    "id": 1,
                    "logData": "0x000000000000000000000000000000000000000000003545c34e2713a219e019",
                    "logDecoded": true,
                    "operation": "EVENT",
                    "revert": false,
                    "status": true,
                    "topics": [
                        "0xddf252ad1be2c89b69c2b068fc378daa952ba7f163c4a11628f55a4df523b3ef",
                        "0x000000000000000000000000df8efb8a522561ea9bd8c55874dca4536ee5c618",
                        "0x00000000000000000000000007adcdbab78b2bdeccae90b783d313e2cca8fef1"
                    ]
                },
                "nodeType": 1
            }
        },
        "gasFlame": [
            {
                "children": [
                    {
                        "children": [
                            {
                                "children": [],
                                "depth": 0,
                                "name": "Initial Gas",
                                "value": 21680
                            },
                            {
                                "children": [],
                                "depth": 0,
                                "name": "Executed Gas",
                                "value": 29545
                            }
                        ],
                        "depth": -1,
                        "name": "Actual Gas Used",
                        "value": 36225
                    },
                    {
                        "children": [],
                        "depth": -1,
                        "name": "Refunded Gas",
                        "value": 15000
                    }
                ],
                "depth": -2,
                "name": "Total Gas",
                "value": 51225
            }
        ],
        "isConfirmed": true,
        "mainTrace": [
            {
                "children": [
                    {
                        "children": [
                            {
                                "children": [],
                                "depth": 1,
                                "id": 1,
                                "order": 1
                            }
                        ],
                        "depth": 0,
                        "id": 0,
                        "order": 0
                    }
                ],
                "depth": -1,
                "id": -1,
                "order": -1
            }
        ],
        "mainTraceNodeCount": 2,
        "parentIdMap": {
            "0": -1,
            "1": 0
        },
        "tidyTrace": [
            {
                "children": [
                    {
                        "children": [
                            {
                                "children": [],
                                "depth": 1,
                                "id": 1,
                                "order": 1
                            }
                        ],
                        "depth": 0,
                        "id": 0,
                        "order": 0
                    }
                ],
                "depth": -1,
                "id": -1,
                "order": -1
            }
        ],
        "tidyTraceNodeCount": 2
    },
    "state_change": {
        "stateChanges": [
            {
                "address": "0x037a54aab062628c9bbae1fdb1583c195585fe41",
                "erc": "ERC-20",
                "slots": [
                    {
                        "current": "0x000000000000000000000000000000000000000000003545c34e2713a219e019",
                        "key": "0x87e4979a3f3b634ca73fe7051d3a1a7c431bda11ba44345945ba956054035a91",
                        "prev": "0x0000000000000000000000000000000000000000000000000000000000000000"
                    },
                    {
                        "current": "0x0000000000000000000000000000000000000000000000000000000000000000",
                        "key": "0x594260138b4c87015081631abe1fb8a1e7bcb08ae3e25d0346159f4eed51d8b6",
                        "prev": "0x000000000000000000000000000000000000000000003545c34e2713a219e019"
                    }
                ],
                "storageVariables": [
                    {
                        "name": "_balances",
                        "type": "mapping(address => uint256)",
                        "value": {
                            "pairs": [
                                {
                                    "key": "0x07adcdbab78b2bdeccae90b783d313e2cca8fef1",
                                    "value": {
                                        "current": "251572322162028012232729",
                                        "prev": "0",
                                        "typeTag": 1
                                    }
                                },
                                {
                                    "key": "0xdf8efb8a522561ea9bd8c55874dca4536ee5c618",
                                    "value": {
                                        "current": "0",
                                        "prev": "251572322162028012232729",
                                        "typeTag": 1
                                    }
                                }
                            ],
                            "typeTag": 4
                        }
                    }
                ]
            }
        ]
    }
}