{
    "balance_change": {
        "balanceChanges": [
            {
                "account": "0x710bda329b2a6224e4b44833de30f38e7f81d564",
                "assets": [
                    {
                        "address": "0xeeeeeeeeeeeeeeeeeeeeeeeeeeeeeeeeeeeeeeee",
                        "amount": "0.000619816577275094",
                        "iconUrl": "https://assets.blocksec.com/image/1663669189317-3.png",
                        "isERC1155": false,
                        "isERC721": false,
                        "sign": true,
                        "value": "1.9684439191832853727"
                    }
                ]
            },
            {
                "account": "0xb8901acb165ed027e32754e0ffe830802919727f",
                "assets": [
                    {
                        "address": "0xeeeeeeeeeeeeeeeeeeeeeeeeeeeeeeeeeeeeeeee",
                        "amount": "0.074265634751935811",
                        "iconUrl": "https://assets.blocksec.com/image/1663669189317-3.png",
                        "isERC1155": false,
                        "isERC721": false,
                        "sign": false,
                        "value": "235.85644928171621813"
                    }
                ]
            },
            {
                "account": "0xe5cecc31e72f4eccd717a17b4e62cb6b4c5125df",
                "assets": [
                    {
                        "address": "0xeeeeeeeeeeeeeeeeeeeeeeeeeeeeeeeeeeeeeeee",
                        "amount": "0.073645818174660717",
                        "iconUrl": "https://assets.blocksec.com/image/1663669189317-3.png",
                        "isERC1155": false,
                        "isERC721": false,
                        "sign": true,
                        "value": "233.8880053539581402"
                    }
                ]
            }
        ]
    },
    "profile": {
        "basic_info": {
            "baseFee": "2.97761508",
            "blockNumber": 20383108,
            "callData": "0x23c452cd000000000000000000000000e5cecc31e72f4eccd717a17b4e62cb6b4c5125df0000000000000000000000000000000000000000000000000107d8338a687543f9322979574e69648ff8d40e3483a62b7bd49cb4d7e9d21de751bfe0528a217f000000000000000000000000000000000000000000000000000233b84aea14d6",
            "debugEnable": true,
            "errorInfo": "",
            "eventCount": 1,
            "feeRecipient": "0x388c818ca8b9251b393131c08a736a67ccb19297",
            "formatValue": "0",
            "gasLimit": 500000,
            "gasPrice": "3.04761508",
            "gasUsed": 115459,
            "intTxnCount": 2,
            "internalRevert": false,
            "internalRevertMessage": "",
            "isContractCreation": false,
            "isFlashloan": false,
            "maxFee": "7.198209076",
            "nonce": 970584,
            "overwritedBlockNumber": -1,
            "priorityFee": "0.07",
            "receiver": "0xb8901acb165ed027e32754e0ffe830802919727f",
            "revertMessage": "",
            "sender": "0x710bda329b2a6224e4b44833de30f38e7f81d564",
            "simulationEnable": true,
            "sourceTxnHash": "0x64f66f992cd673fd4e3fc386a414a0cb7d4eedd89dcba690a1198b50b5a8f529",
            "status": true,
            "timestamp": "2024-07-25T10:56:35Z",
            "transactionFee": "0.00035187458952172",
            "txnHash": "0x64f66f992cd673fd4e3fc386a414a0cb7d4eedd89dcba690a1198b50b5a8f529",
            "txnIndex": 72,
            "type": 2,
            "value": "0"
        },
        "fund_flow": [
            {
                "amount": "0.073645818174660717",
                "from": "0xb8901acb165ed027e32754e0ffe830802919727f",
                "id": 1,
                "isERC1155": false,
                "isERC721": false,
                "isReverted": false,
                "order": 1,
                "to": "0xe5cecc31e72f4eccd717a17b4e62cb6b4c5125df",
                "token": "0xeeeeeeeeeeeeeeeeeeeeeeeeeeeeeeeeeeeeeeee"
            },
            {
                "amount": "0.000619816577275094",
                "from": "0xb8901acb165ed027e32754e0ffe830802919727f",
                "id": 2,
                "isERC1155": false,
                "isERC721": false,
                "isReverted": false,
                "order": 2,
                "to": "0x710bda329b2a6224e4b44833de30f38e7f81d564",
                "token": "0xeeeeeeeeeeeeeeeeeeeeeeeeeeeeeeeeeeeeeeee"
            }
        ],
        "token_infos": [
            {
                "address": "0xc02aaa39b223fe8d0a0e5c4f27ead9083c756cc2",
                "decimals": 18
            },
            {
                "address": "0xeeeeeeeeeeeeeeeeeeeeeeeeeeeeeeeeeeeeeeee",
                "decimals": 18
            }
        ]
    },
    "address_label": {
        "labels": [
            {
                "address": "0x0000000000000000000000000000000000000003",
                "label": "Precompiled"
            },
            {
                "address": "0x0000000000000000000000000000000000000004",
                "label": "Precompiled"
            },
            {
                "address": "0xeeeeeeeeeeeeeeeeeeeeeeeeeeeeeeeeeeeeeeee",
                "label": "Ether"
            },
            {
                "address": "0xb8901acb165ed027e32754e0ffe830802919727f",
                "label": "Hop Protocol: Ethereum Bridge"
            },
            {
                "address": "0x710bda329b2a6224e4b44833de30f38e7f81d564",
                "label": "Hop Protocol: ETH Bonder"
            },
            {
                "address": "0x388c818ca8b9251b393131c08a736a67ccb19297",
                "label": "LidoExecutionLayerRewardsVault"
            },
            {
                "address": "0x0000000000000000000000000000000000000001",
                "label": "Precompiled"
            },
            {
                "address": "0x0000000000000000000000000000000000000002",
                "label": "Precompiled"
            }
        ]
    },
    "trace": {
        "accountLabels": null,
        "dataMap": {
            "-1": {
                "invocation": {
                    "address": "0x710bda329b2a6224e4b44833de30f38e7f81d564",
                    "callData": "",
                    "decodedMethod": null,
                    "errorInfo": "",
                    "fromAddress": "",
                    "gasUsed": 0,
                    "id": -1,
                    "methodDecoded": false,
                    "operation": "",
                    "output": "",
                    "revert": false,
                    "revertMessage": "",
                    "selector": "",
                    "status": false,
                    "value": ""
                },
                "nodeType": 0
            },
            "0": {
                "invocation": {
                    "address": "0xb8901acb165ed027e32754e0ffe830802919727f",
                    "callData": "0x000000000000000000000000e5cecc31e72f4eccd717a17b4e62cb6b4c5125df0000000000000000000000000000000000000000000000000107d8338a687543f9322979574e69648ff8d40e3483a62b7bd49cb4d7e9d21de751bfe0528a217f000000000000000000000000000000000000000000000000000233b84aea14d6",
                    "decodedMethod": {
                        "callParams": [
                            {
                                "name": "recipient",
                                "type": "address",
                                "value": "0xe5cecc31e72f4eccd717a17b4e62cb6b4c5125df"
                            },
                            {
                                "name": "amount",
                                "type": "uint256",
                                "value": "74,265,634,751,935,811"
                            },
                            {
                                "name": "transferNonce",
                                "type": "bytes32",
                                "value": "0xf9322979574e69648ff8d40e3483a62b7bd49cb4d7e9d21de751bfe0528a217f"
                            },
                            {
                                "name": "bonderFee",
                                "type": "uint256",
                                "value": "619,816,577,275,094"
                            }
                        ],
                        "constructorArguments": "",
                        "name": "bondWithdrawal",
                        "returnParams": [],
                        "signature": "bondWithdrawal(address,uint256,bytes32,uint256)"
                    },
                    "errorInfo": "",
                    "fromAddress": "0x710bda329b2a6224e4b44833de30f38e7f81d564",
                    "gasUsed": 115459,
                    "id": 0,
                    "methodDecoded": true,
                    "operation": "CALL",
                    "output": "",
                    "revert": false,
                    "revertMessage": "",
                    "selector": "0x23c452cd",
                    "status": true,
                    "value": "0"
                },
                "nodeType": 0
            },
            "1": {
                "event": {
                    "contract": "0xb8901acb165ed027e32754e0ffe830802919727f",
                    "decodedLog": {
                        "name": "WithdrawalBonded",
                        "params": [
                            {
                                "name": "transferId",
                                "type": "bytes32",
                                "value": "0x4865996f4b30212660567d75d58226266166b0d36dab7d24b8effa0c41370d8d"
                            },
                            {
                                "name": "amount",
                                "type": "uint256",
                                "value": "74,265,634,751,935,811"
                            }
                        ],
                        "signature": "WithdrawalBonded(bytes32,uint256)"
                    },
                    "id": 1,
                    "logData": "0x0000000000000000000000000000000000000000000000000107d8338a687543",
                    "logDecoded": true,
                    "operation": "EVENT",
                    "revert": false,
                    "status": true,
                    "topics": [
                        "0x0c3d250c7831051e78aa6a56679e590374c7c424415ffe4aa474491def2fe705",
                        "0x4865996f4b30212660567d75d58226266166b0d36dab7d24b8effa0c41370d8d"
                    ]
                },
                "nodeType": 1
            },
            "2": {
                "invocation": {
                    "address": "0xe5cecc31e72f4eccd717a17b4e62cb6b4c5125df",
                    "callData": "0x",
                    "decodedMethod": null,
                    "errorInfo": "",
                    "fromAddress": "0xb8901acb165ed027e32754e0ffe830802919727f",
                    "gasUsed": 0,
                    "id": 2,
                    "methodDecoded": false,
                    "operation": "CALL",
                    "output": "",
                    "revert": false,
                    "revertMessage": "",
                    "selector": "fallback",
                    "status": true,
                    "value": "0.073645818174660717"
                },
                "nodeType": 0
            },
            "3": {
                "invocation": {
                    "address": "0x710bda329b2a6224e4b44833de30f38e7f81d564",
                    "callData": "0x",
                    "decodedMethod": null,
                    "errorInfo": "",
                    "fromAddress": "0xb8901acb165ed027e32754e0ffe830802919727f",
                    "gasUsed": 0,
                    "id": 3,
                    "methodDecoded": false,
                    "operation": "CALL",
                    "output": "",
                    "revert": false,
                    "revertMessage": "",
                    "selector": "fallback",
                    "status": true,
                    "value": "0.000619816577275094"
                },
                "nodeType": 0
            }
        },
        "gasFlame": [
            {
                "children": [
                    {
                        "children": [
                            {
                                "children": [],
                                "depth": 0,
                                "name": "Initial Gas",
                                "value": 22380
                            },
                            {
                                "children": [
                                    {
                                        "children": [],
                                        "depth": 1,
                                        "name": "fallback",
                                        "value": 0
                                    },
                                    {
                                        "children": [],
                                        "depth": 1,
                                        "name": "fallback",
                                        "value": 0
                                    }
                                ],
                                "depth": 0,
                                "name": "Executed Gas",
                                "value": 95879
                            }
                        ],
                        "depth": -1,
                        "name": "Actual Gas Used",
                        "value": 115459
                    },
                    {
                        "children": [],
                        "depth": -1,
                        "name": "Refunded Gas",
                        "value": 2800
                    }
                ],
                "depth": -2,
                "name": "Total Gas",
                "value": 118259
            }
        ],
        "isConfirmed": true,
        "mainTrace": [
            {
                "children": [
                    {
                        "children": [
                            {
                                "children": [],
                                "depth": 1,
                                "id": 1,
                                "order": 1
                            },
                            {
                                "children": [],
                                "depth": 1,
                                "id": 2,
                                "order": 2
                            },
                            {
                                "children": [],
                                "depth": 1,
                                "id": 3,
                                "order": 3
                            }
                        ],
                        "depth": 0,
                        "id": 0,
                        "order": 0
                    }
                ],
                "depth": -1,
                "id": -1,
                "order": -1
            }
        ],
        "mainTraceNodeCount": 4,
        "parentIdMap": {
            "0": -1,
            "1": 0,
            "2": 0,
            "3": 0
        },
        "tidyTrace": [
            {
                "children": [
                    {
                        "children": [
                            {
                                "children": [],
                                "depth": 1,
                                "id": 1,
                                "order": 1
                            },
                            {
                                "children": [],
                                "depth": 1,
                                "id": 2,
                                "order": 2
                            },
                            {
                                "children": [],
                                "depth": 1,
                                "id": 3,
                                "order": 3
                            }
                        ],
                        "depth": 0,
                        "id": 0,
                        "order": 0
                    }
                ],
                "depth": -1,
                "id": -1,
                "order": -1
            }
        ],
        "tidyTraceNodeCount": 4
    },
    "state_change": {
        "stateChanges": [
            {
                "address": "0xb8901acb165ed027e32754e0ffe830802919727f",
                "erc": "",
                "slots": [
                    {
                        "current": "0x000000000000000000000000000000000000000000008c2cb54725d356a38d45",
                        "key": "0x812c8fc731d689ed5ded39e7869bf6693f18a74a2f3cb1feb1b6e33f7014843a",
                        "prev": "0x000000000000000000000000000000000000000000008c2cb43f4d9fcc3b1802"
                    },
                    {
                        "current": "0x0000000000000000000000000000000000000000000000000107d8338a687543",
                        "key": "0xfa9f8cbaa0c771fb9d1791ce00533bbce3181f57fecaee8ff4011de70cec51c1",
                        "prev": "0x0000000000000000000000000000000000000000000000000000000000000000"
                    },
                    {
                        "current": "0x0000000000000000000000000000000000000000000000000000000000000001",
                        "key": "0x3b44d5dece54eb0cf88882cc92d4acbd9f0fd31470cd5bcdbecab1880ef1e029",
                        "prev": "0x0000000000000000000000000000000000000000000000000000000000000000"
                    }
                ],
                "storageVariables": [
                    {
                        "name": "_debit",
                        "type": "mapping(address => uint256)",
                        "value": {
                            "pairs": [
                                {
                                    "key": "0x710bda329b2a6224e4b44833de30f38e7f81d564",
                                    "value": {
                                        "current": "661956026791827383487813",
                                        "prev": "661955952526192631552002",
                                        "typeTag": 1
                                    }
                                }
                            ],
                            "typeTag": 4
                        }
                    },
                    {
                        "name": "_bondedWithdrawalAmounts",
                        "type": "mapping(address => mapping(bytes32 => uint256))",
                        "value": {
                            "pairs": [
                                {
                                    "key": "0x710bda329b2a6224e4b44833de30f38e7f81d564",
                                    "value": {
                                        "pairs": [
                                            {
                                                "key": "0x4865996f4b30212660567d75d58226266166b0d36dab7d24b8effa0c41370d8d",
                                                "value": {
                                                    "current": "74265634751935811",
                                                    "prev": "0",
                                                    "typeTag": 1
                                                }
                                            }
                                        ],
                                        "typeTag": 4
                                    }
                                }
                            ],
                            "typeTag": 4
                        }
                    },
                    {
                        "name": "_spentTransferIds",
                        "type": "mapping(bytes32 => bool)",
                        "value": {
                            "pairs": [
                                {
                                    "key": "0x4865996f4b30212660567d75d58226266166b0d36dab7d24b8effa0c41370d8d",
                                    "value": {
                                        "current": "true",
                                        "prev": "false",
                                        "typeTag": 1
                                    }
                                }
                            ],
                            "typeTag": 4
                        }
                    }
                ]
            }
        ]
    }
}