{
    "balance_change": {
        "balanceChanges": []
    },
    "profile": {
        "basic_info": {
            "baseFee": "28.256110142",
            "blockNumber": 14459942,
            "callData": "0x9e53a69a000000000000000000000000000000000000000000000000000000000000002000000000000000000000000000000000000000000000000000000000000000010000000000000000000000000000000000000000000000000000000000000004",
            "debugEnable": true,
            "errorInfo": "",
            "eventCount": 1,
            "feeRecipient": "0x1ca43b645886c98d7eb7d27ec16ea59f509cbe1a",
            "formatValue": "0",
            "gasLimit": 63479,
            "gasPrice": "29.756110142",
            "gasUsed": 48830,
            "intTxnCount": 0,
            "internalRevert": false,
            "internalRevertMessage": "",
            "isContractCreation": false,
            "isFlashloan": false,
            "maxFee": "35.053685574",
            "nonce": 33,
            "overwritedBlockNumber": -1,
            "priorityFee": "1.5",
            "receiver": "0x59728544b08ab483533076417fbbb2fd0b17ce3a",
            "revertMessage": "",
            "sender": "0xaf5e0f1bc9acb3977a4727646adbb9bacbfa1263",
            "simulationEnable": true,
            "sourceTxnHash": "0x64cc1a9c7d01055048f2a5e841de3d4916147752967067e8d82da637dc61cf7a",
            "status": true,
            "timestamp": "2022-03-26T05:19:49Z",
            "transactionFee": "0.00145299085823386",
            "txnHash": "0x64cc1a9c7d01055048f2a5e841de3d4916147752967067e8d82da637dc61cf7a",
            "txnIndex": 273,
            "type": 2,
            "value": "0"
        },
        "fund_flow": [],
        "token_infos": [
            {
                "address": "0xc02aaa39b223fe8d0a0e5c4f27ead9083c756cc2",
                "decimals": 18
            },
            {
                "address": "0xeeeeeeeeeeeeeeeeeeeeeeeeeeeeeeeeeeeeeeee",
                "decimals": 18
            }
        ]
    },
    "address_label": {
        "labels": [
            {
                "address": "0x0000000000000000000000000000000000000004",
                "label": "Precompiled"
            },
            {
                "address": "0xeeeeeeeeeeeeeeeeeeeeeeeeeeeeeeeeeeeeeeee",
                "label": "Ether"
            },
            {
                "address": "0x59728544b08ab483533076417fbbb2fd0b17ce3a",
                "label": "LooksRare: Exchange"
            },
            {
                "address": "0x0000000000000000000000000000000000000001",
                "label": "Precompiled"
            },
            {
                "address": "0x0000000000000000000000000000000000000002",
                "label": "Precompiled"
            },
            {
                "address": "0x0000000000000000000000000000000000000003",
                "label": "Precompiled"
            }
        ]
    },
    "trace": {
        "accountLabels": null,
        "dataMap": {
            "-1": {
                "invocation": {
                    "address": "0xaf5e0f1bc9acb3977a4727646adbb9bacbfa1263",
                    "callData": "",
                    "decodedMethod": null,
                    "errorInfo": "",
                    "fromAddress": "",
                    "gasUsed": 0,
                    "id": -1,
                    "methodDecoded": false,
                    "operation": "",
                    "output": "",
                    "revert": false,
                    "revertMessage": "",
                    "selector": "",
                    "status": false,
                    "value": ""
                },
                "nodeType": 0
            },
            "0": {
                "invocation": {
                    "address": "0x59728544b08ab483533076417fbbb2fd0b17ce3a",
                    "callData": "0x000000000000000000000000000000000000000000000000000000000000002000000000000000000000000000000000000000000000000000000000000000010000000000000000000000000000000000000000000000000000000000000004",
                    "decodedMethod": {
                        "callParams": [
                            {
                                "name": "orderNonces",
                                "type": "uint256[]",
                                "value": [
                                    "4"
                                ]
                            }
                        ],
                        "constructorArguments": "",
                        "name": "cancelMultipleMakerOrders",
                        "returnParams": [],
                        "signature": "cancelMultipleMakerOrders(uint256[])"
                    },
                    "errorInfo": "",
                    "fromAddress": "0xaf5e0f1bc9acb3977a4727646adbb9bacbfa1263",
                    "gasUsed": 48830,
                    "id": 0,
                    "methodDecoded": true,
                    "operation": "CALL",
                    "output": "",
                    "revert": false,
                    "revertMessage": "",
                    "selector": "0x9e53a69a",
                    "status": true,
                    "value": "0"
                },
                "nodeType": 0
            },
            "1": {
                "event": {
                    "contract": "0x59728544b08ab483533076417fbbb2fd0b17ce3a",
                    "decodedLog": {
                        "name": "CancelMultipleOrders",
                        "params": [
                            {
                                "name": "user",
                                "type": "address",
                                "value": "0xaf5e0f1bc9acb3977a4727646adbb9bacbfa1263"
                            },
                            {
                                "name": "orderNonces",
                                "type": "uint256[]",
                                "value": [
                                    "4"
                                ]
                            }
                        ],
                        "signature": "CancelMultipleOrders(address,uint256[])"
                    },
                    "id": 1,
                    "logData": "0x000000000000000000000000000000000000000000000000000000000000002000000000000000000000000000000000000000000000000000000000000000010000000000000000000000000000000000000000000000000000000000000004",
                    "logDecoded": true,
                    "operation": "EVENT",
                    "revert": false,
                    "status": true,
                    "topics": [
                        "0xfa0ae5d80fe3763c880a3839fab0294171a6f730d1f82c4cd5392c6f67b41732",
                        "0x000000000000000000000000af5e0f1bc9acb3977a4727646adbb9bacbfa1263"
                    ]
                },
                "nodeType": 1
            }
        },
        "gasFlame": [
            {
                "children": [
                    {
                        "children": [
                            {
                                "children": [],
                                "depth": 0,
                                "name": "Initial Gas",
                                "value": 21484
                            },
                            {
                                "children": [],
                                "depth": 0,
                                "name": "Executed Gas",
                                "value": 27346
                            }
                        ],
                        "depth": -1,
                        "name": "Actual Gas Used",
                        "value": 48830
                    },
                    {
                        "children": [],
                        "depth": -1,
                        "name": "Refunded Gas",
                        "value": 0
                    }
                ],
                "depth": -2,
                "name": "Total Gas",
                "value": 48830
            }
        ],
        "isConfirmed": true,
        "mainTrace": [
            {
                "children": [
                    {
                        "children": [
                            {
                                "children": [],
                                "depth": 1,
                                "id": 1,
                                "order": 1
                            }
                        ],
                        "depth": 0,
                        "id": 0,
                        "order": 0
                    }
                ],
                "depth": -1,
                "id": -1,
                "order": -1
            }
        ],
        "mainTraceNodeCount": 2,
        "parentIdMap": {
            "0": -1,
            "1": 0
        },
        "tidyTrace": [
            {
                "children": [
                    {
                        "children": [
                            {
                                "children": [],
                                "depth": 1,
                                "id": 1,
                                "order": 1
                            }
                        ],
                        "depth": 0,
                        "id": 0,
                        "order": 0
                    }
                ],
                "depth": -1,
                "id": -1,
                "order": -1
            }
        ],
        "tidyTraceNodeCount": 2
    },
    "state_change": {
        "stateChanges": [
            {
                "address": "0x59728544b08ab483533076417fbbb2fd0b17ce3a",
                "erc": "",
                "slots": [
                    {
                        "current": "0x0000000000000000000000000000000000000000000000000000000000000001",
                        "key": "0xf6571f2e6dce0681183bd9df435d6c674e278e9c4a63fb3b3646d2445ce734b5",
                        "prev": "0x0000000000000000000000000000000000000000000000000000000000000000"
                    }
                ],
                "storageVariables": [
                    {
                        "name": "_isUserOrderNonceExecutedOrCancelled",
                        "type": "mapping(address => mapping(uint256 => bool))",
                        "value": {
                            "pairs": [
                                {
                                    "key": "0xaf5e0f1bc9acb3977a4727646adbb9bacbfa1263",
                                    "value": {
                                        "pairs": [
                                            {
                                                "key": "4",
                                                "value": {
                                                    "current": "true",
                                                    "prev": "false",
                                                    "typeTag": 1
                                                }
                                            }
                                        ],
                                        "typeTag": 4
                                    }
                                }
                            ],
                            "typeTag": 4
                        }
                    }
                ]
            }
        ]
    }
}