{
    "balance_change": {
        "balanceChanges": [
            {
                "account": "0xeb49f0309dd219846758d1d4b15a381542182825",
                "assets": [
                    {
                        "address": "0x473037de59cf9484632f4a27b509cfe8d4a31404",
                        "amount": "1",
                        "iconUrl": "",
                        "isERC1155": false,
                        "isERC721": false,
                        "sign": false,
                        "value": "1.05664577"
                    }
                ]
            },
            {
                "account": "0x0733842fcad9a2dc7b59c9475c100123641f53d5",
                "assets": [
                    {
                        "address": "0x473037de59cf9484632f4a27b509cfe8d4a31404",
                        "amount": "1",
                        "iconUrl": "",
                        "isERC1155": false,
                        "isERC721": false,
                        "sign": true,
                        "value": "1.05664577"
                    }
                ]
            }
        ]
    },
    "profile": {
        "basic_info": {
            "baseFee": "13.414643147",
            "blockNumber": 17560007,
            "callData": "0xa9059cbb0000000000000000000000000733842fcad9a2dc7b59c9475c100123641f53d50000000000000000000000000000000000000000000000000000000005f5e100",
            "debugEnable": true,
            "errorInfo": "",
            "eventCount": 1,
            "feeRecipient": "0xfeebabe6b0418ec13b30aadf129f5dcdd4f70cea",
            "formatValue": "0",
            "gasLimit": 100000,
            "gasPrice": "14.914643147",
            "gasUsed": 35235,
            "intTxnCount": 0,
            "internalRevert": false,
            "internalRevertMessage": "",
            "isContractCreation": false,
            "isFlashloan": false,
            "maxFee": "25.688915402",
            "nonce": 5421,
            "overwritedBlockNumber": -1,
            "priorityFee": "1.5",
            "receiver": "0x473037de59cf9484632f4a27b509cfe8d4a31404",
            "revertMessage": "",
            "sender": "0xeb49f0309dd219846758d1d4b15a381542182825",
            "simulationEnable": true,
            "sourceTxnHash": "0x6453746bd671b0eff8cf7c421bd9df3df7b85ccec876a4260e6bf005722a63b3",
            "status": true,
            "timestamp": "2023-06-26T00:19:59Z",
            "transactionFee": "0.000525517451284545",
            "txnHash": "0x6453746bd671b0eff8cf7c421bd9df3df7b85ccec876a4260e6bf005722a63b3",
            "txnIndex": 10,
            "type": 2,
            "value": "0"
        },
        "fund_flow": [
            {
                "amount": "1",
                "from": "0xeb49f0309dd219846758d1d4b15a381542182825",
                "id": 1,
                "isERC1155": false,
                "isERC721": false,
                "isReverted": false,
                "order": 1,
                "to": "0x0733842fcad9a2dc7b59c9475c100123641f53d5",
                "token": "0x473037de59cf9484632f4a27b509cfe8d4a31404"
            }
        ],
        "token_infos": [
            {
                "address": "0x473037de59cf9484632f4a27b509cfe8d4a31404",
                "decimals": 8
            },
            {
                "address": "0xc02aaa39b223fe8d0a0e5c4f27ead9083c756cc2",
                "decimals": 18
            },
            {
                "address": "0xeeeeeeeeeeeeeeeeeeeeeeeeeeeeeeeeeeeeeeee",
                "decimals": 18
            }
        ]
    },
    "address_label": {
        "labels": [
            {
                "address": "0x0000000000000000000000000000000000000004",
                "label": "Precompiled"
            },
            {
                "address": "0xeeeeeeeeeeeeeeeeeeeeeeeeeeeeeeeeeeeeeeee",
                "label": "Ether"
            },
            {
                "address": "0x473037de59cf9484632f4a27b509cfe8d4a31404",
                "label": "GreenSatoshiToken (GST)"
            },
            {
                "address": "0x0000000000000000000000000000000000000001",
                "label": "Precompiled"
            },
            {
                "address": "0x0000000000000000000000000000000000000002",
                "label": "Precompiled"
            },
            {
                "address": "0x0000000000000000000000000000000000000003",
                "label": "Precompiled"
            }
        ]
    },
    "trace": {
        "accountLabels": null,
        "dataMap": {
            "-1": {
                "invocation": {
                    "address": "0xeb49f0309dd219846758d1d4b15a381542182825",
                    "callData": "",
                    "decodedMethod": null,
                    "errorInfo": "",
                    "fromAddress": "",
                    "gasUsed": 0,
                    "id": -1,
                    "methodDecoded": false,
                    "operation": "",
                    "output": "",
                    "revert": false,
                    "revertMessage": "",
                    "selector": "",
                    "status": false,
                    "value": ""
                },
                "nodeType": 0
            },
            "0": {
                "invocation": {
                    "address": "0x473037de59cf9484632f4a27b509cfe8d4a31404",
                    "callData": "0x0000000000000000000000000733842fcad9a2dc7b59c9475c100123641f53d50000000000000000000000000000000000000000000000000000000005f5e100",
                    "decodedMethod": {
                        "callParams": [
                            {
                                "name": "to",
                                "type": "address",
                                "value": "0x0733842fcad9a2dc7b59c9475c100123641f53d5"
                            },
                            {
                                "decimalAvailable": true,
                                "name": "amount",
                                "type": "uint256",
                                "value": "100,000,000"
                            }
                        ],
                        "constructorArguments": "",
                        "name": "transfer",
                        "returnParams": [
                            {
                                "name": "",
                                "type": "bool",
                                "value": true
                            }
                        ],
                        "signature": "transfer(address,uint256)"
                    },
                    "errorInfo": "",
                    "fromAddress": "0xeb49f0309dd219846758d1d4b15a381542182825",
                    "gasUsed": 35235,
                    "id": 0,
                    "methodDecoded": true,
                    "operation": "CALL",
                    "output": "0x0000000000000000000000000000000000000000000000000000000000000001",
                    "revert": false,
                    "revertMessage": "",
                    "selector": "0xa9059cbb",
                    "status": true,
                    "value": "0"
                },
                "nodeType": 0
            },
            "1": {
                "event": {
                    "contract": "0x473037de59cf9484632f4a27b509cfe8d4a31404",
                    "decodedLog": {
                        "name": "Transfer",
                        "params": [
                            {
                                "name": "from",
                                "type": "address",
                                "value": "0xeb49f0309dd219846758d1d4b15a381542182825"
                            },
                            {
                                "name": "to",
                                "type": "address",
                                "value": "0x0733842fcad9a2dc7b59c9475c100123641f53d5"
                            },
                            {
                                "decimalAvailable": true,
                                "name": "value",
                                "type": "uint256",
                                "value": "100,000,000"
                            }
                        ],
                        "signature": "Transfer(address,address,uint256)"
                    },
                    "id": 1,
                    "logData": "0x0000000000000000000000000000000000000000000000000000000005f5e100",
                    "logDecoded": true,
                    "operation": "EVENT",
                    "revert": false,
                    "status": true,
                    "topics": [
                        "0xddf252ad1be2c89b69c2b068fc378daa952ba7f163c4a11628f55a4df523b3ef",
                        "0x000000000000000000000000eb49f0309dd219846758d1d4b15a381542182825",
                        "0x0000000000000000000000000733842fcad9a2dc7b59c9475c100123641f53d5"
                    ]
                },
                "nodeType": 1
            }
        },
        "gasFlame": [
            {
                "children": [
                    {
                        "children": [
                            {
                                "children": [],
                                "depth": 0,
                                "name": "Initial Gas",
                                "value": 21596
                            },
                            {
                                "children": [],
                                "depth": 0,
                                "name": "Executed Gas",
                                "value": 13639
                            }
                        ],
                        "depth": -1,
                        "name": "Actual Gas Used",
                        "value": 35235
                    },
                    {
                        "children": [],
                        "depth": -1,
                        "name": "Refunded Gas",
                        "value": 0
                    }
                ],
                "depth": -2,
                "name": "Total Gas",
                "value": 35235
            }
        ],
        "isConfirmed": true,
        "mainTrace": [
            {
                "children": [
                    {
                        "children": [
                            {
                                "children": [],
                                "depth": 1,
                                "id": 1,
                                "order": 1
                            }
                        ],
                        "depth": 0,
                        "id": 0,
                        "order": 0
                    }
                ],
                "depth": -1,
                "id": -1,
                "order": -1
            }
        ],
        "mainTraceNodeCount": 2,
        "parentIdMap": {
            "0": -1,
            "1": 0
        },
        "tidyTrace": [
            {
                "children": [
                    {
                        "children": [
                            {
                                "children": [],
                                "depth": 1,
                                "id": 1,
                                "order": 1
                            }
                        ],
                        "depth": 0,
                        "id": 0,
                        "order": 0
                    }
                ],
                "depth": -1,
                "id": -1,
                "order": -1
            }
        ],
        "tidyTraceNodeCount": 2
    },
    "state_change": {
        "stateChanges": [
            {
                "address": "0x473037de59cf9484632f4a27b509cfe8d4a31404",
                "erc": "ERC-20",
                "slots": [
                    {
                        "current": "0x0000000000000000000000000000000000000000000000000008bfe73ff4cae9",
                        "key": "0xf971a6ff39f526af1d8c27ed6497c9aa98c7c72b5705d75e7d41966b6c619c45",
                        "prev": "0x0000000000000000000000000000000000000000000000000008bfe745eaabe9"
                    },
                    {
                        "current": "0x000000000000000000000000000000000000000000000000000000000bebc200",
                        "key": "0x7f3a7d06762674737b1fa952f7238e5c4a764f1410ab997028989288ab388aba",
                        "prev": "0x0000000000000000000000000000000000000000000000000000000005f5e100"
                    }
                ],
                "storageVariables": [
                    {
                        "name": "_balances",
                        "type": "mapping(address => uint256)",
                        "value": {
                            "pairs": [
                                {
                                    "key": "0x0733842fcad9a2dc7b59c9475c100123641f53d5",
                                    "value": {
                                        "current": "200000000",
                                        "prev": "100000000",
                                        "typeTag": 1
                                    }
                                },
                                {
                                    "key": "0xeb49f0309dd219846758d1d4b15a381542182825",
                                    "value": {
                                        "current": "2462799745043177",
                                        "prev": "2462799845043177",
                                        "typeTag": 1
                                    }
                                }
                            ],
                            "typeTag": 4
                        }
                    }
                ]
            }
        ]
    }
}