{
    "balance_change": {
        "balanceChanges": [
            {
                "account": "0x5fbe7e14c40e5c6dcf9e5ad03dd17e3d496e9bd0",
                "assets": [
                    {
                        "address": "0xa7d81c86f9934b56dd00fa826c319330d628d31f",
                        "amount": "10",
                        "iconUrl": "",
                        "isERC1155": false,
                        "isERC721": false,
                        "sign": false,
                        "value": ""
                    }
                ]
            },
            {
                "account": "0x09f362339ec850ae23e49283804901c3d306d34a",
                "assets": [
                    {
                        "address": "0xa7d81c86f9934b56dd00fa826c319330d628d31f",
                        "amount": "10",
                        "iconUrl": "",
                        "isERC1155": false,
                        "isERC721": false,
                        "sign": true,
                        "value": ""
                    }
                ]
            }
        ]
    },
    "profile": {
        "basic_info": {
            "baseFee": "",
            "blockNumber": 5681846,
            "callData": "0xa9059cbb00000000000000000000000009f362339ec850ae23e49283804901c3d306d34a0000000000000000000000000000000000000000000000008ac7230489e80000",
            "debugEnable": true,
            "errorInfo": "",
            "eventCount": 1,
            "feeRecipient": "0xea674fdde714fd979de3edf0f56aa9716b898ec8",
            "formatValue": "0",
            "gasLimit": 60000,
            "gasPrice": "4",
            "gasUsed": 22562,
            "intTxnCount": 0,
            "internalRevert": false,
            "internalRevertMessage": "",
            "isContractCreation": false,
            "isFlashloan": false,
            "maxFee": "",
            "nonce": 6,
            "overwritedBlockNumber": -1,
            "priorityFee": "",
            "receiver": "0xa7d81c86f9934b56dd00fa826c319330d628d31f",
            "revertMessage": "",
            "sender": "0x5fbe7e14c40e5c6dcf9e5ad03dd17e3d496e9bd0",
            "simulationEnable": true,
            "sourceTxnHash": "0x64855f29fe5e9a65188b776f06a9eb699e849faf503b6946fc301d36a7aec455",
            "status": true,
            "timestamp": "2018-05-26T20:14:28Z",
            "transactionFee": "0.000090248",
            "txnHash": "0x64855f29fe5e9a65188b776f06a9eb699e849faf503b6946fc301d36a7aec455",
            "txnIndex": 140,
            "type": 0,
            "value": "0"
        },
        "fund_flow": [
            {
                "amount": "10",
                "from": "0x5fbe7e14c40e5c6dcf9e5ad03dd17e3d496e9bd0",
                "id": 1,
                "isERC1155": false,
                "isERC721": false,
                "isReverted": false,
                "order": 1,
                "to": "0x09f362339ec850ae23e49283804901c3d306d34a",
                "token": "0xa7d81c86f9934b56dd00fa826c319330d628d31f"
            }
        ],
        "token_infos": [
            {
                "address": "0xa7d81c86f9934b56dd00fa826c319330d628d31f",
                "decimals": 18
            },
            {
                "address": "0xc02aaa39b223fe8d0a0e5c4f27ead9083c756cc2",
                "decimals": 18
            },
            {
                "address": "0xeeeeeeeeeeeeeeeeeeeeeeeeeeeeeeeeeeeeeeee",
                "decimals": 18
            }
        ]
    },
    "address_label": {
        "labels": [
            {
                "address": "0xeeeeeeeeeeeeeeeeeeeeeeeeeeeeeeeeeeeeeeee",
                "label": "Ether"
            },
            {
                "address": "0xa7d81c86f9934b56dd00fa826c319330d628d31f",
                "label": "Beauty Coin (BEAUTY)"
            },
            {
                "address": "0x0000000000000000000000000000000000000001",
                "label": "Precompiled"
            },
            {
                "address": "0x0000000000000000000000000000000000000002",
                "label": "Precompiled"
            },
            {
                "address": "0x0000000000000000000000000000000000000003",
                "label": "Precompiled"
            },
            {
                "address": "0x0000000000000000000000000000000000000004",
                "label": "Precompiled"
            }
        ]
    },
    "trace": {
        "accountLabels": null,
        "dataMap": {
            "-1": {
                "invocation": {
                    "address": "0x5fbe7e14c40e5c6dcf9e5ad03dd17e3d496e9bd0",
                    "callData": "",
                    "decodedMethod": null,
                    "errorInfo": "",
                    "fromAddress": "",
                    "gasUsed": 0,
                    "id": -1,
                    "methodDecoded": false,
                    "operation": "",
                    "output": "",
                    "revert": false,
                    "revertMessage": "",
                    "selector": "",
                    "status": false,
                    "value": ""
                },
                "nodeType": 0
            },
            "0": {
                "invocation": {
                    "address": "0xa7d81c86f9934b56dd00fa826c319330d628d31f",
                    "callData": "0x00000000000000000000000009f362339ec850ae23e49283804901c3d306d34a0000000000000000000000000000000000000000000000008ac7230489e80000",
                    "decodedMethod": {
                        "callParams": [
                            {
                                "name": "_to",
                                "type": "address",
                                "value": "0x09f362339ec850ae23e49283804901c3d306d34a"
                            },
                            {
                                "decimalAvailable": true,
                                "name": "_value",
                                "type": "uint256",
                                "value": "10,000,000,000,000,000,000"
                            }
                        ],
                        "constructorArguments": "",
                        "name": "transfer",
                        "returnParams": [
                            {
                                "name": "",
                                "type": "bool",
                                "value": true
                            }
                        ],
                        "signature": "transfer(address,uint256)"
                    },
                    "errorInfo": "",
                    "fromAddress": "0x5fbe7e14c40e5c6dcf9e5ad03dd17e3d496e9bd0",
                    "gasUsed": 22562,
                    "id": 0,
                    "methodDecoded": true,
                    "operation": "CALL",
                    "output": "0x0000000000000000000000000000000000000000000000000000000000000001",
                    "revert": false,
                    "revertMessage": "",
                    "selector": "0xa9059cbb",
                    "status": true,
                    "value": "0"
                },
                "nodeType": 0
            },
            "1": {
                "event": {
                    "contract": "0xa7d81c86f9934b56dd00fa826c319330d628d31f",
                    "decodedLog": {
                        "name": "Transfer",
                        "params": [
                            {
                                "name": "_from",
                                "type": "address",
                                "value": "0x5fbe7e14c40e5c6dcf9e5ad03dd17e3d496e9bd0"
                            },
                            {
                                "name": "_to",
                                "type": "address",
                                "value": "0x09f362339ec850ae23e49283804901c3d306d34a"
                            },
                            {
                                "decimalAvailable": true,
                                "name": "_value",
                                "type": "uint256",
                                "value": "10,000,000,000,000,000,000"
                            }
                        ],
                        "signature": "Transfer(address,address,uint256)"
                    },
                    "id": 1,
                    "logData": "0x0000000000000000000000000000000000000000000000008ac7230489e80000",
                    "logDecoded": true,
                    "operation": "EVENT",
                    "revert": false,
                    "status": true,
                    "topics": [
                        "0xddf252ad1be2c89b69c2b068fc378daa952ba7f163c4a11628f55a4df523b3ef",
                        "0x0000000000000000000000005fbe7e14c40e5c6dcf9e5ad03dd17e3d496e9bd0",
                        "0x00000000000000000000000009f362339ec850ae23e49283804901c3d306d34a"
                    ]
                },
                "nodeType": 1
            }
        },
        "gasFlame": [
            {
                "children": [
                    {
                        "children": [
                            {
                                "children": [],
                                "depth": 0,
                                "name": "Initial Gas",
                                "value": 23192
                            },
                            {
                                "children": [],
                                "depth": 0,
                                "name": "Executed Gas",
                                "value": 14370
                            }
                        ],
                        "depth": -1,
                        "name": "Actual Gas Used",
                        "value": 22562
                    },
                    {
                        "children": [],
                        "depth": -1,
                        "name": "Refunded Gas",
                        "value": 15000
                    }
                ],
                "depth": -2,
                "name": "Total Gas",
                "value": 37562
            }
        ],
        "isConfirmed": true,
        "mainTrace": [
            {
                "children": [
                    {
                        "children": [
                            {
                                "children": [],
                                "depth": 1,
                                "id": 1,
                                "order": 1
                            }
                        ],
                        "depth": 0,
                        "id": 0,
                        "order": 0
                    }
                ],
                "depth": -1,
                "id": -1,
                "order": -1
            }
        ],
        "mainTraceNodeCount": 2,
        "parentIdMap": {
            "0": -1,
            "1": 0
        },
        "tidyTrace": [
            {
                "children": [
                    {
                        "children": [
                            {
                                "children": [],
                                "depth": 1,
                                "id": 1,
                                "order": 1
                            }
                        ],
                        "depth": 0,
                        "id": 0,
                        "order": 0
                    }
                ],
                "depth": -1,
                "id": -1,
                "order": -1
            }
        ],
        "tidyTraceNodeCount": 2
    },
    "state_change": {
        "stateChanges": [
            {
                "address": "0xa7d81c86f9934b56dd00fa826c319330d628d31f",
                "erc": "ERC-20",
                "slots": [
                    {
                        "current": "0x0000000000000000000000000000000000000000000014e79f365f0602800000",
                        "key": "0x140e38cd018d8ce6c70776257f81421b1910d3d05ac65a440bd047663cf18791",
                        "prev": "0x0000000000000000000000000000000000000000000014e7146f3c0178980000"
                    },
                    {
                        "current": "0x0000000000000000000000000000000000000000000000000000000000000000",
                        "key": "0x249a0ff55ba437d99f34eae95628c7d909ffec32e9da49ac91f1c2b59815d375",
                        "prev": "0x0000000000000000000000000000000000000000000000008ac7230489e80000"
                    }
                ],
                "storageVariables": [
                    {
                        "name": "balanceOf",
                        "type": "mapping(address => uint256)",
                        "value": {
                            "pairs": [
                                {
                                    "key": "0x09f362339ec850ae23e49283804901c3d306d34a",
                                    "value": {
                                        "current": "98720000000000000000000",
                                        "prev": "98710000000000000000000",
                                        "typeTag": 1
                                    }
                                },
                                {
                                    "key": "0x5fbe7e14c40e5c6dcf9e5ad03dd17e3d496e9bd0",
                                    "value": {
                                        "current": "0",
                                        "prev": "10000000000000000000",
                                        "typeTag": 1
                                    }
                                }
                            ],
                            "typeTag": 4
                        }
                    }
                ]
            }
        ]
    }
}