{
    "balance_change": {
        "balanceChanges": [
            {
                "account": "0x5b5181102412937dbbe2e3df5de6326cd76ed961",
                "assets": [
                    {
                        "address": "0x303d2c2b49fe7d0d5ed91927d3f4e25fec3b0322",
                        "amount": "800",
                        "iconUrl": "",
                        "isERC1155": false,
                        "isERC721": false,
                        "sign": false,
                        "value": ""
                    }
                ]
            },
            {
                "account": "0x0e304c77985e7df4f513edc5dc9a1b9f9264914f",
                "assets": [
                    {
                        "address": "0x303d2c2b49fe7d0d5ed91927d3f4e25fec3b0322",
                        "amount": "800",
                        "iconUrl": "",
                        "isERC1155": false,
                        "isERC721": false,
                        "sign": true,
                        "value": ""
                    }
                ]
            }
        ]
    },
    "profile": {
        "basic_info": {
            "baseFee": "",
            "blockNumber": 9007364,
            "callData": "0xa9059cbb0000000000000000000000000e304c77985e7df4f513edc5dc9a1b9f9264914f0000000000000000000000000000000000000000000000000b1a2bc2ec500000",
            "debugEnable": true,
            "errorInfo": "",
            "eventCount": 1,
            "feeRecipient": "0xea674fdde714fd979de3edf0f56aa9716b898ec8",
            "formatValue": "0",
            "gasLimit": 90000,
            "gasPrice": "20",
            "gasUsed": 37236,
            "intTxnCount": 0,
            "internalRevert": false,
            "internalRevertMessage": "",
            "isContractCreation": false,
            "isFlashloan": false,
            "maxFee": "",
            "nonce": 1497,
            "overwritedBlockNumber": -1,
            "priorityFee": "",
            "receiver": "0x303d2c2b49fe7d0d5ed91927d3f4e25fec3b0322",
            "revertMessage": "",
            "sender": "0x5b5181102412937dbbe2e3df5de6326cd76ed961",
            "simulationEnable": true,
            "sourceTxnHash": "0x64e4820e9aa4bd29ada33a3694400cf1ff5b28ce42bcfd47f68aeec40a2030cc",
            "status": true,
            "timestamp": "2019-11-27T01:57:49Z",
            "transactionFee": "0.00074472",
            "txnHash": "0x64e4820e9aa4bd29ada33a3694400cf1ff5b28ce42bcfd47f68aeec40a2030cc",
            "txnIndex": 22,
            "type": 0,
            "value": "0"
        },
        "fund_flow": [
            {
                "amount": "800",
                "from": "0x5b5181102412937dbbe2e3df5de6326cd76ed961",
                "id": 1,
                "isERC1155": false,
                "isERC721": false,
                "isReverted": false,
                "order": 1,
                "to": "0x0e304c77985e7df4f513edc5dc9a1b9f9264914f",
                "token": "0x303d2c2b49fe7d0d5ed91927d3f4e25fec3b0322"
            }
        ],
        "token_infos": [
            {
                "address": "0x303d2c2b49fe7d0d5ed91927d3f4e25fec3b0322",
                "decimals": 15
            },
            {
                "address": "0xc02aaa39b223fe8d0a0e5c4f27ead9083c756cc2",
                "decimals": 18
            },
            {
                "address": "0xeeeeeeeeeeeeeeeeeeeeeeeeeeeeeeeeeeeeeeee",
                "decimals": 18
            }
        ]
    },
    "address_label": {
        "labels": [
            {
                "address": "0xeeeeeeeeeeeeeeeeeeeeeeeeeeeeeeeeeeeeeeee",
                "label": "Ether"
            },
            {
                "address": "0x303d2c2b49fe7d0d5ed91927d3f4e25fec3b0322",
                "label": "LDC"
            },
            {
                "address": "0x0000000000000000000000000000000000000001",
                "label": "Precompiled"
            },
            {
                "address": "0x0000000000000000000000000000000000000002",
                "label": "Precompiled"
            },
            {
                "address": "0x0000000000000000000000000000000000000003",
                "label": "Precompiled"
            },
            {
                "address": "0x0000000000000000000000000000000000000004",
                "label": "Precompiled"
            }
        ]
    },
    "trace": {
        "accountLabels": null,
        "dataMap": {
            "-1": {
                "invocation": {
                    "address": "0x5b5181102412937dbbe2e3df5de6326cd76ed961",
                    "callData": "",
                    "decodedMethod": null,
                    "errorInfo": "",
                    "fromAddress": "",
                    "gasUsed": 0,
                    "id": -1,
                    "methodDecoded": false,
                    "operation": "",
                    "output": "",
                    "revert": false,
                    "revertMessage": "",
                    "selector": "",
                    "status": false,
                    "value": ""
                },
                "nodeType": 0
            },
            "0": {
                "invocation": {
                    "address": "0x303d2c2b49fe7d0d5ed91927d3f4e25fec3b0322",
                    "callData": "0x0000000000000000000000000e304c77985e7df4f513edc5dc9a1b9f9264914f0000000000000000000000000000000000000000000000000b1a2bc2ec500000",
                    "decodedMethod": {
                        "callParams": [
                            {
                                "name": "_to",
                                "type": "address",
                                "value": "0x0e304c77985e7df4f513edc5dc9a1b9f9264914f"
                            },
                            {
                                "decimalAvailable": true,
                                "name": "_value",
                                "type": "uint256",
                                "value": "800,000,000,000,000,000"
                            }
                        ],
                        "constructorArguments": "",
                        "name": "transfer",
                        "returnParams": [],
                        "signature": "transfer(address,uint256)"
                    },
                    "errorInfo": "",
                    "fromAddress": "0x5b5181102412937dbbe2e3df5de6326cd76ed961",
                    "gasUsed": 37236,
                    "id": 0,
                    "methodDecoded": true,
                    "operation": "CALL",
                    "output": "",
                    "revert": false,
                    "revertMessage": "",
                    "selector": "0xa9059cbb",
                    "status": true,
                    "value": "0"
                },
                "nodeType": 0
            },
            "1": {
                "event": {
                    "contract": "0x303d2c2b49fe7d0d5ed91927d3f4e25fec3b0322",
                    "decodedLog": {
                        "name": "Transfer",
                        "params": [
                            {
                                "name": "from",
                                "type": "address",
                                "value": "0x5b5181102412937dbbe2e3df5de6326cd76ed961"
                            },
                            {
                                "name": "to",
                                "type": "address",
                                "value": "0x0e304c77985e7df4f513edc5dc9a1b9f9264914f"
                            },
                            {
                                "decimalAvailable": true,
                                "name": "value",
                                "type": "uint256",
                                "value": "800,000,000,000,000,000"
                            }
                        ],
                        "signature": "Transfer(address,address,uint256)"
                    },
                    "id": 1,
                    "logData": "0x0000000000000000000000000000000000000000000000000b1a2bc2ec500000",
                    "logDecoded": true,
                    "operation": "EVENT",
                    "revert": false,
                    "status": true,
                    "topics": [
                        "0xddf252ad1be2c89b69c2b068fc378daa952ba7f163c4a11628f55a4df523b3ef",
                        "0x0000000000000000000000005b5181102412937dbbe2e3df5de6326cd76ed961",
                        "0x0000000000000000000000000e304c77985e7df4f513edc5dc9a1b9f9264914f"
                    ]
                },
                "nodeType": 1
            }
        },
        "gasFlame": [
            {
                "children": [
                    {
                        "children": [
                            {
                                "children": [],
                                "depth": 0,
                                "name": "Initial Gas",
                                "value": 23192
                            },
                            {
                                "children": [],
                                "depth": 0,
                                "name": "Executed Gas",
                                "value": 14044
                            }
                        ],
                        "depth": -1,
                        "name": "Actual Gas Used",
                        "value": 37236
                    },
                    {
                        "children": [],
                        "depth": -1,
                        "name": "Refunded Gas",
                        "value": 0
                    }
                ],
                "depth": -2,
                "name": "Total Gas",
                "value": 37236
            }
        ],
        "isConfirmed": true,
        "mainTrace": [
            {
                "children": [
                    {
                        "children": [
                            {
                                "children": [],
                                "depth": 1,
                                "id": 1,
                                "order": 1
                            }
                        ],
                        "depth": 0,
                        "id": 0,
                        "order": 0
                    }
                ],
                "depth": -1,
                "id": -1,
                "order": -1
            }
        ],
        "mainTraceNodeCount": 2,
        "parentIdMap": {
            "0": -1,
            "1": 0
        },
        "tidyTrace": [
            {
                "children": [
                    {
                        "children": [
                            {
                                "children": [],
                                "depth": 1,
                                "id": 1,
                                "order": 1
                            }
                        ],
                        "depth": 0,
                        "id": 0,
                        "order": 0
                    }
                ],
                "depth": -1,
                "id": -1,
                "order": -1
            }
        ],
        "tidyTraceNodeCount": 2
    },
    "state_change": {
        "stateChanges": [
            {
                "address": "0x303d2c2b49fe7d0d5ed91927d3f4e25fec3b0322",
                "erc": "",
                "slots": [
                    {
                        "current": "0x000000000000000000000000000000000000000000000092212b929ee5a50000",
                        "key": "0x5549e1accdcd8b89dcf9c63a257c216dfea22b7d6a8ca54a1505e4444bea992c",
                        "prev": "0x0000000000000000000000000000000000000000000000922c45be61d1f50000"
                    },
                    {
                        "current": "0x000000000000000000000000000000000000000000000000731dc28d1bdd8000",
                        "key": "0xe885336cb8513d769d33b6f0cdc2831474544365bbaad512b9a152c671903d12",
                        "prev": "0x000000000000000000000000000000000000000000000000680396ca2f8d8000"
                    }
                ],
                "storageVariables": []
            }
        ]
    }
}