{
    "balance_change": {
        "balanceChanges": []
    },
    "profile": {
        "basic_info": {
            "baseFee": "65.700068983",
            "blockNumber": 13215755,
            "callData": "0xa22cb465000000000000000000000000ae3502d7b1abe32070373202ff16564012f9a5620000000000000000000000000000000000000000000000000000000000000001",
            "debugEnable": true,
            "errorInfo": "",
            "eventCount": 1,
            "feeRecipient": "0x829bd824b016326a401d083b33d092293333a830",
            "formatValue": "0",
            "gasLimit": 46402,
            "gasPrice": "67.200068983",
            "gasUsed": 46402,
            "intTxnCount": 0,
            "internalRevert": false,
            "internalRevertMessage": "",
            "isContractCreation": false,
            "isFlashloan": false,
            "maxFee": "92.644539817",
            "nonce": 279,
            "overwritedBlockNumber": -1,
            "priorityFee": "1.5",
            "receiver": "0xe9e3f9cfc1a64dfca53614a0182cfad56c10624f",
            "revertMessage": "",
            "sender": "0x2d7e2df65c1b06fa60faf2a7d4c260738bb553d9",
            "simulationEnable": true,
            "sourceTxnHash": "0x6400bb61d53e1ec3010f61d0ccd59ee2646f215ebb4747d06b7dfd902ae258d8",
            "status": true,
            "timestamp": "2021-09-13T06:29:24Z",
            "transactionFee": "0.003118217600949166",
            "txnHash": "0x6400bb61d53e1ec3010f61d0ccd59ee2646f215ebb4747d06b7dfd902ae258d8",
            "txnIndex": 24,
            "type": 2,
            "value": "0"
        },
        "fund_flow": [],
        "token_infos": [
            {
                "address": "0xc02aaa39b223fe8d0a0e5c4f27ead9083c756cc2",
                "decimals": 18
            },
            {
                "address": "0xeeeeeeeeeeeeeeeeeeeeeeeeeeeeeeeeeeeeeeee",
                "decimals": 18
            }
        ]
    },
    "address_label": {
        "labels": [
            {
                "address": "0xeeeeeeeeeeeeeeeeeeeeeeeeeeeeeeeeeeeeeeee",
                "label": "Ether"
            },
            {
                "address": "0xe9e3f9cfc1a64dfca53614a0182cfad56c10624f",
                "label": "Su Squares: SU Token"
            },
            {
                "address": "0x0000000000000000000000000000000000000001",
                "label": "Precompiled"
            },
            {
                "address": "0x0000000000000000000000000000000000000002",
                "label": "Precompiled"
            },
            {
                "address": "0x0000000000000000000000000000000000000003",
                "label": "Precompiled"
            },
            {
                "address": "0x0000000000000000000000000000000000000004",
                "label": "Precompiled"
            }
        ]
    },
    "trace": {
        "accountLabels": null,
        "dataMap": {
            "-1": {
                "invocation": {
                    "address": "0x2d7e2df65c1b06fa60faf2a7d4c260738bb553d9",
                    "callData": "",
                    "decodedMethod": null,
                    "errorInfo": "",
                    "fromAddress": "",
                    "gasUsed": 0,
                    "id": -1,
                    "methodDecoded": false,
                    "operation": "",
                    "output": "",
                    "revert": false,
                    "revertMessage": "",
                    "selector": "",
                    "status": false,
                    "value": ""
                },
                "nodeType": 0
            },
            "0": {
                "invocation": {
                    "address": "0xe9e3f9cfc1a64dfca53614a0182cfad56c10624f",
                    "callData": "0x000000000000000000000000ae3502d7b1abe32070373202ff16564012f9a5620000000000000000000000000000000000000000000000000000000000000001",
                    "decodedMethod": {
                        "callParams": [
                            {
                                "name": "_operator",
                                "type": "address",
                                "value": "0xae3502d7b1abe32070373202ff16564012f9a562"
                            },
                            {
                                "name": "_approved",
                                "type": "bool",
                                "value": true
                            }
                        ],
                        "constructorArguments": "",
                        "name": "setApprovalForAll",
                        "returnParams": [],
                        "signature": "setApprovalForAll(address,bool)"
                    },
                    "errorInfo": "",
                    "fromAddress": "0x2d7e2df65c1b06fa60faf2a7d4c260738bb553d9",
                    "gasUsed": 46402,
                    "id": 0,
                    "methodDecoded": true,
                    "operation": "CALL",
                    "output": "",
                    "revert": false,
                    "revertMessage": "",
                    "selector": "0xa22cb465",
                    "status": true,
                    "value": "0"
                },
                "nodeType": 0
            },
            "1": {
                "event": {
                    "contract": "0xe9e3f9cfc1a64dfca53614a0182cfad56c10624f",
                    "decodedLog": {
                        "name": "ApprovalForAll",
                        "params": [
                            {
                                "name": "_owner",
                                "type": "address",
                                "value": "0x2d7e2df65c1b06fa60faf2a7d4c260738bb553d9"
                            },
                            {
                                "name": "_operator",
                                "type": "address",
                                "value": "0xae3502d7b1abe32070373202ff16564012f9a562"
                            },
                            {
                                "name": "_approved",
                                "type": "bool",
                                "value": true
                            }
                        ],
                        "signature": "ApprovalForAll(address,address,bool)"
                    },
                    "id": 1,
                    "logData": "0x0000000000000000000000000000000000000000000000000000000000000001",
                    "logDecoded": true,
                    "operation": "EVENT",
                    "revert": false,
                    "status": true,
                    "topics": [
                        "0x17307eab39ab6107e8899845ad3d59bd9653f200f220920489ca2b5937696c31",
                        "0x0000000000000000000000002d7e2df65c1b06fa60faf2a7d4c260738bb553d9",
                        "0x000000000000000000000000ae3502d7b1abe32070373202ff16564012f9a562"
                    ]
                },
                "nodeType": 1
            }
        },
        "gasFlame": [
            {
                "children": [
                    {
                        "children": [
                            {
                                "children": [],
                                "depth": 0,
                                "name": "Initial Gas",
                                "value": 21572
                            },
                            {
                                "children": [],
                                "depth": 0,
                                "name": "Executed Gas",
                                "value": 24830
                            }
                        ],
                        "depth": -1,
                        "name": "Actual Gas Used",
                        "value": 46402
                    },
                    {
                        "children": [],
                        "depth": -1,
                        "name": "Refunded Gas",
                        "value": 0
                    }
                ],
                "depth": -2,
                "name": "Total Gas",
                "value": 46402
            }
        ],
        "isConfirmed": true,
        "mainTrace": [
            {
                "children": [
                    {
                        "children": [
                            {
                                "children": [],
                                "depth": 1,
                                "id": 1,
                                "order": 1
                            }
                        ],
                        "depth": 0,
                        "id": 0,
                        "order": 0
                    }
                ],
                "depth": -1,
                "id": -1,
                "order": -1
            }
        ],
        "mainTraceNodeCount": 2,
        "parentIdMap": {
            "0": -1,
            "1": 0
        },
        "tidyTrace": [
            {
                "children": [
                    {
                        "children": [
                            {
                                "children": [],
                                "depth": 1,
                                "id": 1,
                                "order": 1
                            }
                        ],
                        "depth": 0,
                        "id": 0,
                        "order": 0
                    }
                ],
                "depth": -1,
                "id": -1,
                "order": -1
            }
        ],
        "tidyTraceNodeCount": 2
    },
    "state_change": {
        "stateChanges": [
            {
                "address": "0xe9e3f9cfc1a64dfca53614a0182cfad56c10624f",
                "erc": "ERC-721",
                "slots": [
                    {
                        "current": "0x0000000000000000000000000000000000000000000000000000000000000001",
                        "key": "0x63f5de4c50a037c84339bf0b07c72f1bb0d0157461e2564e9a997b83d5cf35c4",
                        "prev": "0x0000000000000000000000000000000000000000000000000000000000000000"
                    }
                ],
                "storageVariables": [
                    {
                        "name": "operatorApprovals",
                        "type": "mapping(address => mapping(address => bool))",
                        "value": {
                            "pairs": [
                                {
                                    "key": "0x2d7e2df65c1b06fa60faf2a7d4c260738bb553d9",
                                    "value": {
                                        "pairs": [
                                            {
                                                "key": "0xae3502d7b1abe32070373202ff16564012f9a562",
                                                "value": {
                                                    "current": "true",
                                                    "prev": "false",
                                                    "typeTag": 1
                                                }
                                            }
                                        ],
                                        "typeTag": 4
                                    }
                                }
                            ],
                            "typeTag": 4
                        }
                    }
                ]
            }
        ]
    }
}