{
    "balance_change": {
        "balanceChanges": []
    },
    "profile": {
        "basic_info": {
            "baseFee": "",
            "blockNumber": 6708511,
            "callData": "0x09bdaac300000000000000000000000000000000000000000000000000000000000014384b04ea0e8bfdd97048a0bd3ea0efdf34387050fbc640023a16c41f7c70c8d16800000000000000000000000000000000000000000000000000000000000000a0000000000000000000000000000000000000000000000000000000000000014000000000000000000000000000000000000000000000000000000000000001e00000000000000000000000000000000000000000000000000000000000000004000000000000000000000000000000000000000000000000000000000000001c000000000000000000000000000000000000000000000000000000000000001c000000000000000000000000000000000000000000000000000000000000001b000000000000000000000000000000000000000000000000000000000000001c0000000000000000000000000000000000000000000000000000000000000004fd51ec002ba0df9f581119a1b1dbbfe323d39d07feeee8a637d84af95e0164ea7170ec0d4d4f81b7ee3d9be8d7c4d82990d2ca447875002e0ac154cf4edcfd0da7e1fdfb4f4486b6e4fb3afe025e8c57be0e25031278329e1ddd7ba3c8616791a0007227ed57f2df8fc39f1c1993b23ba0a9799553fec08eb1c3e267f5ef99a800000000000000000000000000000000000000000000000000000000000000040b1f4c50c0244a48540414efdbb50a0ba3dcb6319893485e959a41bf47aa693e3ebd65e9df32209dae969fde1d0090f0e48b5f3840459b839bd527938230f8b61cefe5669d8976b8a505d56656410360983405e76258d52a1d007655e5ad912039c8b00b40c17cede5e1ed049a17cb71514d00fcd43e1668b236600065c38101",
            "debugEnable": true,
            "errorInfo": "",
            "eventCount": 1,
            "feeRecipient": "0xea674fdde714fd979de3edf0f56aa9716b898ec8",
            "formatValue": "0",
            "gasLimit": 110465,
            "gasPrice": "30",
            "gasUsed": 110465,
            "intTxnCount": 10,
            "internalRevert": false,
            "internalRevertMessage": "",
            "isContractCreation": false,
            "isFlashloan": false,
            "maxFee": "",
            "nonce": 5572,
            "overwritedBlockNumber": -1,
            "priorityFee": "",
            "receiver": "0xff6b1cdfd2d3e37977d7938aa06b6d89d6675e27",
            "revertMessage": "",
            "sender": "0x873d4687f017cd2401976833db9fb64af144d48a",
            "simulationEnable": true,
            "sourceTxnHash": "0x65bf6b36fb58ff993547dda2a51613f2f049bd259caac2dacc0b896ef804cb6a",
            "status": true,
            "timestamp": "2018-11-15T10:32:00Z",
            "transactionFee": "0.00331395",
            "txnHash": "0x65bf6b36fb58ff993547dda2a51613f2f049bd259caac2dacc0b896ef804cb6a",
            "txnIndex": 4,
            "type": 0,
            "value": "0"
        },
        "fund_flow": [],
        "token_infos": [
            {
                "address": "0xc02aaa39b223fe8d0a0e5c4f27ead9083c756cc2",
                "decimals": 18
            },
            {
                "address": "0xeeeeeeeeeeeeeeeeeeeeeeeeeeeeeeeeeeeeeeee",
                "decimals": 18
            }
        ]
    },
    "address_label": {
        "labels": [
            {
                "address": "0xeeeeeeeeeeeeeeeeeeeeeeeeeeeeeeeeeeeeeeee",
                "label": "Ether"
            },
            {
                "address": "0x0000000000000000000000000000000000000002",
                "label": "Precompiled"
            },
            {
                "address": "0xff6b1cdfd2d3e37977d7938aa06b6d89d6675e27",
                "label": "Allbit 2"
            },
            {
                "address": "0x0000000000000000000000000000000000000001",
                "label": "Precompiled"
            },
            {
                "address": "0x0000000000000000000000000000000000000003",
                "label": "Precompiled"
            },
            {
                "address": "0x0000000000000000000000000000000000000004",
                "label": "Precompiled"
            }
        ]
    },
    "trace": {
        "accountLabels": null,
        "dataMap": {
            "-1": {
                "invocation": {
                    "address": "0x873d4687f017cd2401976833db9fb64af144d48a",
                    "callData": "",
                    "decodedMethod": null,
                    "errorInfo": "",
                    "fromAddress": "",
                    "gasUsed": 0,
                    "id": -1,
                    "methodDecoded": false,
                    "operation": "",
                    "output": "",
                    "revert": false,
                    "revertMessage": "",
                    "selector": "",
                    "status": false,
                    "value": ""
                },
                "nodeType": 0
            },
            "0": {
                "invocation": {
                    "address": "0xff6b1cdfd2d3e37977d7938aa06b6d89d6675e27",
                    "callData": "0x00000000000000000000000000000000000000000000000000000000000014384b04ea0e8bfdd97048a0bd3ea0efdf34387050fbc640023a16c41f7c70c8d16800000000000000000000000000000000000000000000000000000000000000a0000000000000000000000000000000000000000000000000000000000000014000000000000000000000000000000000000000000000000000000000000001e00000000000000000000000000000000000000000000000000000000000000004000000000000000000000000000000000000000000000000000000000000001c000000000000000000000000000000000000000000000000000000000000001c000000000000000000000000000000000000000000000000000000000000001b000000000000000000000000000000000000000000000000000000000000001c0000000000000000000000000000000000000000000000000000000000000004fd51ec002ba0df9f581119a1b1dbbfe323d39d07feeee8a637d84af95e0164ea7170ec0d4d4f81b7ee3d9be8d7c4d82990d2ca447875002e0ac154cf4edcfd0da7e1fdfb4f4486b6e4fb3afe025e8c57be0e25031278329e1ddd7ba3c8616791a0007227ed57f2df8fc39f1c1993b23ba0a9799553fec08eb1c3e267f5ef99a800000000000000000000000000000000000000000000000000000000000000040b1f4c50c0244a48540414efdbb50a0ba3dcb6319893485e959a41bf47aa693e3ebd65e9df32209dae969fde1d0090f0e48b5f3840459b839bd527938230f8b61cefe5669d8976b8a505d56656410360983405e76258d52a1d007655e5ad912039c8b00b40c17cede5e1ed049a17cb71514d00fcd43e1668b236600065c38101",
                    "decodedMethod": null,
                    "errorInfo": "",
                    "fromAddress": "0x873d4687f017cd2401976833db9fb64af144d48a",
                    "gasUsed": 110465,
                    "id": 0,
                    "methodDecoded": false,
                    "operation": "CALL",
                    "output": "",
                    "revert": false,
                    "revertMessage": "",
                    "selector": "0x09bdaac3",
                    "status": true,
                    "value": "0"
                },
                "nodeType": 0
            },
            "1": {
                "invocation": {
                    "address": "0x0000000000000000000000000000000000000002",
                    "callData": "0x000000000000000000000000000000000000000000000000000014384b04ea0e8bfdd97048a0bd3ea0efdf34387050fbc640023a16c41f7c70c8d168",
                    "decodedMethod": {
                        "callParams": [
                            {
                                "name": "data",
                                "type": "bytes",
                                "value": "0x00000000000000000000000000000000000000000000000000000000000014384b04ea0e8bfdd97048a0bd3ea0efdf34387050fbc640023a16c41f7c70c8d168"
                            }
                        ],
                        "constructorArguments": "",
                        "name": "sha256hash",
                        "returnParams": [
                            {
                                "name": "hash",
                                "type": "bytes32",
                                "value": "0xb313a16533b4afb1b9b44de8442ece200400df372b8279b4063bdc6f2128a0b4"
                            }
                        ],
                        "signature": "sha256hash(bytes)"
                    },
                    "errorInfo": "",
                    "fromAddress": "0xff6b1cdfd2d3e37977d7938aa06b6d89d6675e27",
                    "gasUsed": 84,
                    "id": 1,
                    "methodDecoded": true,
                    "operation": "CALL",
                    "output": "0xb313a16533b4afb1b9b44de8442ece200400df372b8279b4063bdc6f2128a0b4",
                    "revert": false,
                    "revertMessage": "",
                    "selector": "0x00000000",
                    "status": true,
                    "value": "0"
                },
                "nodeType": 0
            },
            "10": {
                "invocation": {
                    "address": "0x9caad9847f9d9bda15cdaeb01a41316a27966784",
                    "callData": "0x",
                    "decodedMethod": {
                        "callParams": [],
                        "constructorArguments": "",
                        "name": "getValidatorCount",
                        "returnParams": [
                            {
                                "name": "",
                                "type": "uint256",
                                "value": "6"
                            }
                        ],
                        "signature": "getValidatorCount()"
                    },
                    "errorInfo": "",
                    "fromAddress": "0xff6b1cdfd2d3e37977d7938aa06b6d89d6675e27",
                    "gasUsed": 549,
                    "id": 10,
                    "methodDecoded": true,
                    "operation": "CALL",
                    "output": "0x0000000000000000000000000000000000000000000000000000000000000006",
                    "revert": false,
                    "revertMessage": "",
                    "selector": "0x7071688a",
                    "status": true,
                    "value": "0"
                },
                "nodeType": 0
            },
            "11": {
                "event": {
                    "contract": "0xff6b1cdfd2d3e37977d7938aa06b6d89d6675e27",
                    "decodedLog": null,
                    "id": 11,
                    "logData": "0x00000000000000000000000000000000000000000000000000000000000014384b04ea0e8bfdd97048a0bd3ea0efdf34387050fbc640023a16c41f7c70c8d168",
                    "logDecoded": false,
                    "operation": "EVENT",
                    "revert": false,
                    "status": true,
                    "topics": [
                        "0x8a2c9c8930a79989eb45c4e35c8170e02accc862347845fe45ee44867530e7b0"
                    ]
                },
                "nodeType": 1
            },
            "2": {
                "invocation": {
                    "address": "0x0000000000000000000000000000000000000001",
                    "callData": "0xfee62cf030975ebd979e1a74e80c6f35645fa60eb72db5ea163f99e5000000000000000000000000000000000000000000000000000000000000001cfd51ec002ba0df9f581119a1b1dbbfe323d39d07feeee8a637d84af95e0164ea0b1f4c50c0244a48540414efdbb50a0ba3dcb6319893485e959a41bf47aa693e",
                    "decodedMethod": {
                        "callParams": [
                            {
                                "name": "hash",
                                "type": "bytes32",
                                "value": "0xc8e5337efee62cf030975ebd979e1a74e80c6f35645fa60eb72db5ea163f99e5"
                            },
                            {
                                "name": "v",
                                "type": "uint256",
                                "value": "28"
                            },
                            {
                                "name": "r",
                                "type": "bytes32",
                                "value": "0xfd51ec002ba0df9f581119a1b1dbbfe323d39d07feeee8a637d84af95e0164ea"
                            },
                            {
                                "name": "s",
                                "type": "bytes32",
                                "value": "0x0b1f4c50c0244a48540414efdbb50a0ba3dcb6319893485e959a41bf47aa693e"
                            }
                        ],
                        "constructorArguments": "",
                        "name": "ecrecover",
                        "returnParams": [
                            {
                                "name": "",
                                "type": "address",
                                "value": "0xc887a7d7663055e31efcdc56d30d1c2cabcca673"
                            }
                        ],
                        "signature": "ecrecover(bytes32,uint256,bytes32,bytes32)"
                    },
                    "errorInfo": "",
                    "fromAddress": "0xff6b1cdfd2d3e37977d7938aa06b6d89d6675e27",
                    "gasUsed": 3000,
                    "id": 2,
                    "methodDecoded": true,
                    "operation": "CALL",
                    "output": "0x000000000000000000000000c887a7d7663055e31efcdc56d30d1c2cabcca673",
                    "revert": false,
                    "revertMessage": "",
                    "selector": "0xc8e5337e",
                    "status": true,
                    "value": "0"
                },
                "nodeType": 0
            },
            "3": {
                "invocation": {
                    "address": "0x9caad9847f9d9bda15cdaeb01a41316a27966784",
                    "callData": "0x000000000000000000000000c887a7d7663055e31efcdc56d30d1c2cabcca673",
                    "decodedMethod": {
                        "callParams": [
                            {
                                "name": "",
                                "type": "address",
                                "value": "0xc887a7d7663055e31efcdc56d30d1c2cabcca673"
                            }
                        ],
                        "constructorArguments": "",
                        "name": "isValidator",
                        "returnParams": [
                            {
                                "name": "",
                                "type": "bool",
                                "value": true
                            }
                        ],
                        "signature": "isValidator(address)"
                    },
                    "errorInfo": "",
                    "fromAddress": "0xff6b1cdfd2d3e37977d7938aa06b6d89d6675e27",
                    "gasUsed": 4472,
                    "id": 3,
                    "methodDecoded": true,
                    "operation": "CALL",
                    "output": "0x0000000000000000000000000000000000000000000000000000000000000001",
                    "revert": false,
                    "revertMessage": "",
                    "selector": "0xfacd743b",
                    "status": true,
                    "value": "0"
                },
                "nodeType": 0
            },
            "4": {
                "invocation": {
                    "address": "0x0000000000000000000000000000000000000001",
                    "callData": "0xfee62cf030975ebd979e1a74e80c6f35645fa60eb72db5ea163f99e5000000000000000000000000000000000000000000000000000000000000001c7170ec0d4d4f81b7ee3d9be8d7c4d82990d2ca447875002e0ac154cf4edcfd0d3ebd65e9df32209dae969fde1d0090f0e48b5f3840459b839bd527938230f8b6",
                    "decodedMethod": {
                        "callParams": [
                            {
                                "name": "hash",
                                "type": "bytes32",
                                "value": "0xc8e5337efee62cf030975ebd979e1a74e80c6f35645fa60eb72db5ea163f99e5"
                            },
                            {
                                "name": "v",
                                "type": "uint256",
                                "value": "28"
                            },
                            {
                                "name": "r",
                                "type": "bytes32",
                                "value": "0x7170ec0d4d4f81b7ee3d9be8d7c4d82990d2ca447875002e0ac154cf4edcfd0d"
                            },
                            {
                                "name": "s",
                                "type": "bytes32",
                                "value": "0x3ebd65e9df32209dae969fde1d0090f0e48b5f3840459b839bd527938230f8b6"
                            }
                        ],
                        "constructorArguments": "",
                        "name": "ecrecover",
                        "returnParams": [
                            {
                                "name": "",
                                "type": "address",
                                "value": "0xb8566374e6152b036451acd487fc7022258cb2a1"
                            }
                        ],
                        "signature": "ecrecover(bytes32,uint256,bytes32,bytes32)"
                    },
                    "errorInfo": "",
                    "fromAddress": "0xff6b1cdfd2d3e37977d7938aa06b6d89d6675e27",
                    "gasUsed": 3000,
                    "id": 4,
                    "methodDecoded": true,
                    "operation": "CALL",
                    "output": "0x000000000000000000000000b8566374e6152b036451acd487fc7022258cb2a1",
                    "revert": false,
                    "revertMessage": "",
                    "selector": "0xc8e5337e",
                    "status": true,
                    "value": "0"
                },
                "nodeType": 0
            },
            "5": {
                "invocation": {
                    "address": "0x9caad9847f9d9bda15cdaeb01a41316a27966784",
                    "callData": "0x000000000000000000000000b8566374e6152b036451acd487fc7022258cb2a1",
                    "decodedMethod": {
                        "callParams": [
                            {
                                "name": "",
                                "type": "address",
                                "value": "0xb8566374e6152b036451acd487fc7022258cb2a1"
                            }
                        ],
                        "constructorArguments": "",
                        "name": "isValidator",
                        "returnParams": [
                            {
                                "name": "",
                                "type": "bool",
                                "value": true
                            }
                        ],
                        "signature": "isValidator(address)"
                    },
                    "errorInfo": "",
                    "fromAddress": "0xff6b1cdfd2d3e37977d7938aa06b6d89d6675e27",
                    "gasUsed": 3204,
                    "id": 5,
                    "methodDecoded": true,
                    "operation": "CALL",
                    "output": "0x0000000000000000000000000000000000000000000000000000000000000001",
                    "revert": false,
                    "revertMessage": "",
                    "selector": "0xfacd743b",
                    "status": true,
                    "value": "0"
                },
                "nodeType": 0
            },
            "6": {
                "invocation": {
                    "address": "0x0000000000000000000000000000000000000001",
                    "callData": "0xfee62cf030975ebd979e1a74e80c6f35645fa60eb72db5ea163f99e5000000000000000000000000000000000000000000000000000000000000001ba7e1fdfb4f4486b6e4fb3afe025e8c57be0e25031278329e1ddd7ba3c86167911cefe5669d8976b8a505d56656410360983405e76258d52a1d007655e5ad9120",
                    "decodedMethod": {
                        "callParams": [
                            {
                                "name": "hash",
                                "type": "bytes32",
                                "value": "0xc8e5337efee62cf030975ebd979e1a74e80c6f35645fa60eb72db5ea163f99e5"
                            },
                            {
                                "name": "v",
                                "type": "uint256",
                                "value": "27"
                            },
                            {
                                "name": "r",
                                "type": "bytes32",
                                "value": "0xa7e1fdfb4f4486b6e4fb3afe025e8c57be0e25031278329e1ddd7ba3c8616791"
                            },
                            {
                                "name": "s",
                                "type": "bytes32",
                                "value": "0x1cefe5669d8976b8a505d56656410360983405e76258d52a1d007655e5ad9120"
                            }
                        ],
                        "constructorArguments": "",
                        "name": "ecrecover",
                        "returnParams": [
                            {
                                "name": "",
                                "type": "address",
                                "value": "0xe419ed93e4af874a9a911d23aaf4268a2c202d71"
                            }
                        ],
                        "signature": "ecrecover(bytes32,uint256,bytes32,bytes32)"
                    },
                    "errorInfo": "",
                    "fromAddress": "0xff6b1cdfd2d3e37977d7938aa06b6d89d6675e27",
                    "gasUsed": 3000,
                    "id": 6,
                    "methodDecoded": true,
                    "operation": "CALL",
                    "output": "0x000000000000000000000000e419ed93e4af874a9a911d23aaf4268a2c202d71",
                    "revert": false,
                    "revertMessage": "",
                    "selector": "0xc8e5337e",
                    "status": true,
                    "value": "0"
                },
                "nodeType": 0
            },
            "7": {
                "invocation": {
                    "address": "0x9caad9847f9d9bda15cdaeb01a41316a27966784",
                    "callData": "0x000000000000000000000000e419ed93e4af874a9a911d23aaf4268a2c202d71",
                    "decodedMethod": {
                        "callParams": [
                            {
                                "name": "",
                                "type": "address",
                                "value": "0xe419ed93e4af874a9a911d23aaf4268a2c202d71"
                            }
                        ],
                        "constructorArguments": "",
                        "name": "isValidator",
                        "returnParams": [
                            {
                                "name": "",
                                "type": "bool",
                                "value": true
                            }
                        ],
                        "signature": "isValidator(address)"
                    },
                    "errorInfo": "",
                    "fromAddress": "0xff6b1cdfd2d3e37977d7938aa06b6d89d6675e27",
                    "gasUsed": 1302,
                    "id": 7,
                    "methodDecoded": true,
                    "operation": "CALL",
                    "output": "0x0000000000000000000000000000000000000000000000000000000000000001",
                    "revert": false,
                    "revertMessage": "",
                    "selector": "0xfacd743b",
                    "status": true,
                    "value": "0"
                },
                "nodeType": 0
            },
            "8": {
                "invocation": {
                    "address": "0x0000000000000000000000000000000000000001",
                    "callData": "0xfee62cf030975ebd979e1a74e80c6f35645fa60eb72db5ea163f99e5000000000000000000000000000000000000000000000000000000000000001ca0007227ed57f2df8fc39f1c1993b23ba0a9799553fec08eb1c3e267f5ef99a839c8b00b40c17cede5e1ed049a17cb71514d00fcd43e1668b236600065c38101",
                    "decodedMethod": {
                        "callParams": [
                            {
                                "name": "hash",
                                "type": "bytes32",
                                "value": "0xc8e5337efee62cf030975ebd979e1a74e80c6f35645fa60eb72db5ea163f99e5"
                            },
                            {
                                "name": "v",
                                "type": "uint256",
                                "value": "28"
                            },
                            {
                                "name": "r",
                                "type": "bytes32",
                                "value": "0xa0007227ed57f2df8fc39f1c1993b23ba0a9799553fec08eb1c3e267f5ef99a8"
                            },
                            {
                                "name": "s",
                                "type": "bytes32",
                                "value": "0x39c8b00b40c17cede5e1ed049a17cb71514d00fcd43e1668b236600065c38101"
                            }
                        ],
                        "constructorArguments": "",
                        "name": "ecrecover",
                        "returnParams": [
                            {
                                "name": "",
                                "type": "address",
                                "value": "0x7970b476942dd83273898cd4d858bdc5229b5994"
                            }
                        ],
                        "signature": "ecrecover(bytes32,uint256,bytes32,bytes32)"
                    },
                    "errorInfo": "",
                    "fromAddress": "0xff6b1cdfd2d3e37977d7938aa06b6d89d6675e27",
                    "gasUsed": 3000,
                    "id": 8,
                    "methodDecoded": true,
                    "operation": "CALL",
                    "output": "0x0000000000000000000000007970b476942dd83273898cd4d858bdc5229b5994",
                    "revert": false,
                    "revertMessage": "",
                    "selector": "0xc8e5337e",
                    "status": true,
                    "value": "0"
                },
                "nodeType": 0
            },
            "9": {
                "invocation": {
                    "address": "0x9caad9847f9d9bda15cdaeb01a41316a27966784",
                    "callData": "0x0000000000000000000000007970b476942dd83273898cd4d858bdc5229b5994",
                    "decodedMethod": {
                        "callParams": [
                            {
                                "name": "",
                                "type": "address",
                                "value": "0x7970b476942dd83273898cd4d858bdc5229b5994"
                            }
                        ],
                        "constructorArguments": "",
                        "name": "isValidator",
                        "returnParams": [
                            {
                                "name": "",
                                "type": "bool",
                                "value": true
                            }
                        ],
                        "signature": "isValidator(address)"
                    },
                    "errorInfo": "",
                    "fromAddress": "0xff6b1cdfd2d3e37977d7938aa06b6d89d6675e27",
                    "gasUsed": 1936,
                    "id": 9,
                    "methodDecoded": true,
                    "operation": "CALL",
                    "output": "0x0000000000000000000000000000000000000000000000000000000000000001",
                    "revert": false,
                    "revertMessage": "",
                    "selector": "0xfacd743b",
                    "status": true,
                    "value": "0"
                },
                "nodeType": 0
            }
        },
        "gasFlame": [
            {
                "children": [
                    {
                        "children": [
                            {
                                "children": [],
                                "depth": 0,
                                "name": "Initial Gas",
                                "value": 42712
                            },
                            {
                                "children": [
                                    {
                                        "children": [],
                                        "depth": 1,
                                        "name": "sha256hash",
                                        "value": 84
                                    },
                                    {
                                        "children": [],
                                        "depth": 1,
                                        "name": "ecrecover",
                                        "value": 3000
                                    },
                                    {
                                        "children": [],
                                        "depth": 1,
                                        "name": "isValidator",
                                        "value": 4472
                                    },
                                    {
                                        "children": [],
                                        "depth": 1,
                                        "name": "ecrecover",
                                        "value": 3000
                                    },
                                    {
                                        "children": [],
                                        "depth": 1,
                                        "name": "isValidator",
                                        "value": 3204
                                    },
                                    {
                                        "children": [],
                                        "depth": 1,
                                        "name": "ecrecover",
                                        "value": 3000
                                    },
                                    {
                                        "children": [],
                                        "depth": 1,
                                        "name": "isValidator",
                                        "value": 1302
                                    },
                                    {
                                        "children": [],
                                        "depth": 1,
                                        "name": "ecrecover",
                                        "value": 3000
                                    },
                                    {
                                        "children": [],
                                        "depth": 1,
                                        "name": "isValidator",
                                        "value": 1936
                                    },
                                    {
                                        "children": [],
                                        "depth": 1,
                                        "name": "getValidatorCount",
                                        "value": 549
                                    }
                                ],
                                "depth": 0,
                                "name": "Executed Gas",
                                "value": 67753
                            }
                        ],
                        "depth": -1,
                        "name": "Actual Gas Used",
                        "value": 110465
                    },
                    {
                        "children": [],
                        "depth": -1,
                        "name": "Refunded Gas",
                        "value": 0
                    }
                ],
                "depth": -2,
                "name": "Total Gas",
                "value": 110465
            }
        ],
        "isConfirmed": true,
        "mainTrace": [
            {
                "children": [
                    {
                        "children": [
                            {
                                "children": [],
                                "depth": 1,
                                "id": 1,
                                "order": 1
                            },
                            {
                                "children": [],
                                "depth": 1,
                                "id": 2,
                                "order": 2
                            },
                            {
                                "children": [],
                                "depth": 1,
                                "id": 3,
                                "order": 3
                            },
                            {
                                "children": [],
                                "depth": 1,
                                "id": 4,
                                "order": 4
                            },
                            {
                                "children": [],
                                "depth": 1,
                                "id": 5,
                                "order": 5
                            },
                            {
                                "children": [],
                                "depth": 1,
                                "id": 6,
                                "order": 6
                            },
                            {
                                "children": [],
                                "depth": 1,
                                "id": 7,
                                "order": 7
                            },
                            {
                                "children": [],
                                "depth": 1,
                                "id": 8,
                                "order": 8
                            },
                            {
                                "children": [],
                                "depth": 1,
                                "id": 9,
                                "order": 9
                            },
                            {
                                "children": [],
                                "depth": 1,
                                "id": 10,
                                "order": 10
                            },
                            {
                                "children": [],
                                "depth": 1,
                                "id": 11,
                                "order": 11
                            }
                        ],
                        "depth": 0,
                        "id": 0,
                        "order": 0
                    }
                ],
                "depth": -1,
                "id": -1,
                "order": -1
            }
        ],
        "mainTraceNodeCount": 12,
        "parentIdMap": {
            "0": -1,
            "1": 0,
            "10": 0,
            "11": 0,
            "2": 0,
            "3": 0,
            "4": 0,
            "5": 0,
            "6": 0,
            "7": 0,
            "8": 0,
            "9": 0
        },
        "tidyTrace": [
            {
                "children": [
                    {
                        "children": [
                            {
                                "children": [],
                                "depth": 1,
                                "id": 1,
                                "order": 1
                            },
                            {
                                "children": [],
                                "depth": 1,
                                "id": 2,
                                "order": 2
                            },
                            {
                                "children": [],
                                "depth": 1,
                                "id": 3,
                                "order": 3
                            },
                            {
                                "children": [],
                                "depth": 1,
                                "id": 4,
                                "order": 4
                            },
                            {
                                "children": [],
                                "depth": 1,
                                "id": 5,
                                "order": 5
                            },
                            {
                                "children": [],
                                "depth": 1,
                                "id": 6,
                                "order": 6
                            },
                            {
                                "children": [],
                                "depth": 1,
                                "id": 7,
                                "order": 7
                            },
                            {
                                "children": [],
                                "depth": 1,
                                "id": 8,
                                "order": 8
                            },
                            {
                                "children": [],
                                "depth": 1,
                                "id": 9,
                                "order": 9
                            },
                            {
                                "children": [],
                                "depth": 1,
                                "id": 10,
                                "order": 10
                            },
                            {
                                "children": [],
                                "depth": 1,
                                "id": 11,
                                "order": 11
                            }
                        ],
                        "depth": 0,
                        "id": 0,
                        "order": 0
                    }
                ],
                "depth": -1,
                "id": -1,
                "order": -1
            }
        ],
        "tidyTraceNodeCount": 12
    },
    "state_change": {
        "stateChanges": [
            {
                "address": "0xff6b1cdfd2d3e37977d7938aa06b6d89d6675e27",
                "erc": "",
                "slots": [
                    {
                        "current": "0x4b04ea0e8bfdd97048a0bd3ea0efdf34387050fbc640023a16c41f7c70c8d168",
                        "key": "0xe0907c317f5e9534fb28e173f719d9149c002c14b7c6d7e0a8da87600de898b9",
                        "prev": "0x0000000000000000000000000000000000000000000000000000000000000000"
                    },
                    {
                        "current": "0x0000000000000000000000000000000000000000000000000000000000001438",
                        "key": "0x0000000000000000000000000000000000000000000000000000000000000007",
                        "prev": "0x0000000000000000000000000000000000000000000000000000000000001437"
                    }
                ],
                "storageVariables": []
            }
        ]
    }
}