{
    "balance_change": {
        "balanceChanges": [
            {
                "account": "0x25ccb4e943ee73569e8b063e32cc63c58d4fbe5a",
                "assets": [
                    {
                        "address": "0xccc8cb5229b0ac8069c51fd58367fd1e622afd97",
                        "amount": "384.6151",
                        "iconUrl": "",
                        "isERC1155": false,
                        "isERC721": false,
                        "sign": false,
                        "value": "2504.097144"
                    }
                ]
            },
            {
                "account": "0xd84fbfc5972bf3bc53308e3a6c78d82a450add4a",
                "assets": [
                    {
                        "address": "0xccc8cb5229b0ac8069c51fd58367fd1e622afd97",
                        "amount": "384.6151",
                        "iconUrl": "",
                        "isERC1155": false,
                        "isERC721": false,
                        "sign": true,
                        "value": "2504.097144"
                    }
                ]
            }
        ]
    },
    "profile": {
        "basic_info": {
            "baseFee": "209.587469682",
            "blockNumber": 13722458,
            "callData": "0xa9059cbb000000000000000000000000d84fbfc5972bf3bc53308e3a6c78d82a450add4a000000000000000000000000000000000000000000000014d99b53abff57c000",
            "debugEnable": true,
            "errorInfo": "",
            "eventCount": 1,
            "feeRecipient": "0x7f101fe45e6649a6fb8f3f8b43ed03d353f2b90c",
            "formatValue": "0",
            "gasLimit": 78787,
            "gasPrice": "211.063433325",
            "gasUsed": 47725,
            "intTxnCount": 0,
            "internalRevert": false,
            "internalRevertMessage": "",
            "isContractCreation": false,
            "isFlashloan": false,
            "maxFee": "211.063433325",
            "nonce": 1,
            "overwritedBlockNumber": -1,
            "priorityFee": "1.5",
            "receiver": "0xccc8cb5229b0ac8069c51fd58367fd1e622afd97",
            "revertMessage": "",
            "sender": "0x25ccb4e943ee73569e8b063e32cc63c58d4fbe5a",
            "simulationEnable": true,
            "sourceTxnHash": "0x65bdf491c9f037e4b7e5ea36c8c1208b562b33b3ea7d32ed719761eb16224622",
            "status": true,
            "timestamp": "2021-12-01T17:49:59Z",
            "transactionFee": "0.010073002355435625",
            "txnHash": "0x65bdf491c9f037e4b7e5ea36c8c1208b562b33b3ea7d32ed719761eb16224622",
            "txnIndex": 31,
            "type": 2,
            "value": "0"
        },
        "fund_flow": [
            {
                "amount": "384.6151",
                "from": "0x25ccb4e943ee73569e8b063e32cc63c58d4fbe5a",
                "id": 1,
                "isERC1155": false,
                "isERC721": false,
                "isReverted": false,
                "order": 1,
                "to": "0xd84fbfc5972bf3bc53308e3a6c78d82a450add4a",
                "token": "0xccc8cb5229b0ac8069c51fd58367fd1e622afd97"
            }
        ],
        "token_infos": [
            {
                "address": "0xc02aaa39b223fe8d0a0e5c4f27ead9083c756cc2",
                "decimals": 18
            },
            {
                "address": "0xccc8cb5229b0ac8069c51fd58367fd1e622afd97",
                "decimals": 18
            },
            {
                "address": "0xeeeeeeeeeeeeeeeeeeeeeeeeeeeeeeeeeeeeeeee",
                "decimals": 18
            }
        ]
    },
    "address_label": {
        "labels": [
            {
                "address": "0x0000000000000000000000000000000000000001",
                "label": "Precompiled"
            },
            {
                "address": "0x0000000000000000000000000000000000000002",
                "label": "Precompiled"
            },
            {
                "address": "0x0000000000000000000000000000000000000003",
                "label": "Precompiled"
            },
            {
                "address": "0x0000000000000000000000000000000000000004",
                "label": "Precompiled"
            },
            {
                "address": "0xeeeeeeeeeeeeeeeeeeeeeeeeeeeeeeeeeeeeeeee",
                "label": "Ether"
            },
            {
                "address": "0xd84fbfc5972bf3bc53308e3a6c78d82a450add4a",
                "label": "KUCOIN"
            },
            {
                "address": "0xccc8cb5229b0ac8069c51fd58367fd1e622afd97",
                "label": "Gods Unchained: GODS Token"
            }
        ]
    },
    "trace": {
        "accountLabels": null,
        "dataMap": {
            "-1": {
                "invocation": {
                    "address": "0x25ccb4e943ee73569e8b063e32cc63c58d4fbe5a",
                    "callData": "",
                    "decodedMethod": null,
                    "errorInfo": "",
                    "fromAddress": "",
                    "gasUsed": 0,
                    "id": -1,
                    "methodDecoded": false,
                    "operation": "",
                    "output": "",
                    "revert": false,
                    "revertMessage": "",
                    "selector": "",
                    "status": false,
                    "value": ""
                },
                "nodeType": 0
            },
            "0": {
                "invocation": {
                    "address": "0xccc8cb5229b0ac8069c51fd58367fd1e622afd97",
                    "callData": "0x000000000000000000000000d84fbfc5972bf3bc53308e3a6c78d82a450add4a000000000000000000000000000000000000000000000014d99b53abff57c000",
                    "decodedMethod": {
                        "callParams": [
                            {
                                "name": "recipient",
                                "type": "address",
                                "value": "0xd84fbfc5972bf3bc53308e3a6c78d82a450add4a"
                            },
                            {
                                "decimalAvailable": true,
                                "name": "amount",
                                "type": "uint256",
                                "value": "384,615,100,000,000,000,000"
                            }
                        ],
                        "constructorArguments": "",
                        "name": "transfer",
                        "returnParams": [
                            {
                                "name": "",
                                "type": "bool",
                                "value": true
                            }
                        ],
                        "signature": "transfer(address,uint256)"
                    },
                    "errorInfo": "",
                    "fromAddress": "0x25ccb4e943ee73569e8b063e32cc63c58d4fbe5a",
                    "gasUsed": 47725,
                    "id": 0,
                    "methodDecoded": true,
                    "operation": "CALL",
                    "output": "0x0000000000000000000000000000000000000000000000000000000000000001",
                    "revert": false,
                    "revertMessage": "",
                    "selector": "0xa9059cbb",
                    "status": true,
                    "value": "0"
                },
                "nodeType": 0
            },
            "1": {
                "event": {
                    "contract": "0xccc8cb5229b0ac8069c51fd58367fd1e622afd97",
                    "decodedLog": {
                        "name": "Transfer",
                        "params": [
                            {
                                "name": "from",
                                "type": "address",
                                "value": "0x25ccb4e943ee73569e8b063e32cc63c58d4fbe5a"
                            },
                            {
                                "name": "to",
                                "type": "address",
                                "value": "0xd84fbfc5972bf3bc53308e3a6c78d82a450add4a"
                            },
                            {
                                "decimalAvailable": true,
                                "name": "value",
                                "type": "uint256",
                                "value": "384,615,100,000,000,000,000"
                            }
                        ],
                        "signature": "Transfer(address,address,uint256)"
                    },
                    "id": 1,
                    "logData": "0x000000000000000000000000000000000000000000000014d99b53abff57c000",
                    "logDecoded": true,
                    "operation": "EVENT",
                    "revert": false,
                    "status": true,
                    "topics": [
                        "0xddf252ad1be2c89b69c2b068fc378daa952ba7f163c4a11628f55a4df523b3ef",
                        "0x00000000000000000000000025ccb4e943ee73569e8b063e32cc63c58d4fbe5a",
                        "0x000000000000000000000000d84fbfc5972bf3bc53308e3a6c78d82a450add4a"
                    ]
                },
                "nodeType": 1
            }
        },
        "gasFlame": [
            {
                "children": [
                    {
                        "children": [
                            {
                                "children": [],
                                "depth": 0,
                                "name": "Initial Gas",
                                "value": 21656
                            },
                            {
                                "children": [],
                                "depth": 0,
                                "name": "Executed Gas",
                                "value": 30869
                            }
                        ],
                        "depth": -1,
                        "name": "Actual Gas Used",
                        "value": 47725
                    },
                    {
                        "children": [],
                        "depth": -1,
                        "name": "Refunded Gas",
                        "value": 4800
                    }
                ],
                "depth": -2,
                "name": "Total Gas",
                "value": 52525
            }
        ],
        "isConfirmed": true,
        "mainTrace": [
            {
                "children": [
                    {
                        "children": [
                            {
                                "children": [],
                                "depth": 1,
                                "id": 1,
                                "order": 1
                            }
                        ],
                        "depth": 0,
                        "id": 0,
                        "order": 0
                    }
                ],
                "depth": -1,
                "id": -1,
                "order": -1
            }
        ],
        "mainTraceNodeCount": 2,
        "parentIdMap": {
            "0": -1,
            "1": 0
        },
        "tidyTrace": [
            {
                "children": [
                    {
                        "children": [
                            {
                                "children": [],
                                "depth": 1,
                                "id": 1,
                                "order": 1
                            }
                        ],
                        "depth": 0,
                        "id": 0,
                        "order": 0
                    }
                ],
                "depth": -1,
                "id": -1,
                "order": -1
            }
        ],
        "tidyTraceNodeCount": 2
    },
    "state_change": {
        "stateChanges": [
            {
                "address": "0xccc8cb5229b0ac8069c51fd58367fd1e622afd97",
                "erc": "ERC-20",
                "slots": [
                    {
                        "current": "0x0000000000000000000000000000000000000000000000000000000000000000",
                        "key": "0x84b8ef09c01b24a8a22efd92dbdb0d938398f20708fc65c88e3c8c7791ff55c7",
                        "prev": "0x000000000000000000000000000000000000000000000014d99b53abff57c000"
                    },
                    {
                        "current": "0x000000000000000000000000000000000000000000000014d99b53abff57c000",
                        "key": "0xf7fdbb69b1f3e02790ef1a1b6c1c1a41a4cf6bf31c8334abadb3c28e1826483e",
                        "prev": "0x0000000000000000000000000000000000000000000000000000000000000000"
                    }
                ],
                "storageVariables": [
                    {
                        "name": "_balances",
                        "type": "mapping(address => uint256)",
                        "value": {
                            "pairs": [
                                {
                                    "key": "0x25ccb4e943ee73569e8b063e32cc63c58d4fbe5a",
                                    "value": {
                                        "current": "0",
                                        "prev": "384615100000000000000",
                                        "typeTag": 1
                                    }
                                },
                                {
                                    "key": "0xd84fbfc5972bf3bc53308e3a6c78d82a450add4a",
                                    "value": {
                                        "current": "384615100000000000000",
                                        "prev": "0",
                                        "typeTag": 1
                                    }
                                }
                            ],
                            "typeTag": 4
                        }
                    }
                ]
            }
        ]
    }
}