{
    "balance_change": {
        "balanceChanges": [
            {
                "account": "0xfb69688d02a0212fa846b322787963127eb747d7",
                "assets": [
                    {
                        "address": "0xda605fd5e003e6de0f33f6474080623fa6483e3e",
                        "amount": "557.14285714",
                        "iconUrl": "",
                        "isERC1155": false,
                        "isERC721": false,
                        "sign": false,
                        "value": ""
                    }
                ]
            },
            {
                "account": "0xdc636c1d4c475f4b59cde0197b0184ea06d3ab33",
                "assets": [
                    {
                        "address": "0xda605fd5e003e6de0f33f6474080623fa6483e3e",
                        "amount": "557.14285714",
                        "iconUrl": "",
                        "isERC1155": false,
                        "isERC721": false,
                        "sign": true,
                        "value": ""
                    }
                ]
            }
        ]
    },
    "profile": {
        "basic_info": {
            "baseFee": "",
            "blockNumber": 9753545,
            "callData": "0xa9059cbb000000000000000000000000dc636c1d4c475f4b59cde0197b0184ea06d3ab330000000000000000000000000000000000000000000000000000000cf8d48892",
            "debugEnable": true,
            "errorInfo": "",
            "eventCount": 1,
            "feeRecipient": "0x52bc44d5378309ee2abf1539bf71de1b7d7be3b5",
            "formatValue": "0",
            "gasLimit": 80000,
            "gasPrice": "20",
            "gasUsed": 36709,
            "intTxnCount": 0,
            "internalRevert": false,
            "internalRevertMessage": "",
            "isContractCreation": false,
            "isFlashloan": false,
            "maxFee": "",
            "nonce": 4834,
            "overwritedBlockNumber": -1,
            "priorityFee": "",
            "receiver": "0xda605fd5e003e6de0f33f6474080623fa6483e3e",
            "revertMessage": "",
            "sender": "0xfb69688d02a0212fa846b322787963127eb747d7",
            "simulationEnable": true,
            "sourceTxnHash": "0x6501022099c1527505e5912d91e7fbd22ddcf0cdacbf37e2379b433fef267f25",
            "status": true,
            "timestamp": "2020-03-27T12:46:42Z",
            "transactionFee": "0.00073418",
            "txnHash": "0x6501022099c1527505e5912d91e7fbd22ddcf0cdacbf37e2379b433fef267f25",
            "txnIndex": 2,
            "type": 0,
            "value": "0"
        },
        "fund_flow": [
            {
                "amount": "557.14285714",
                "from": "0xfb69688d02a0212fa846b322787963127eb747d7",
                "id": 1,
                "isERC1155": false,
                "isERC721": false,
                "isReverted": false,
                "order": 1,
                "to": "0xdc636c1d4c475f4b59cde0197b0184ea06d3ab33",
                "token": "0xda605fd5e003e6de0f33f6474080623fa6483e3e"
            }
        ],
        "token_infos": [
            {
                "address": "0xc02aaa39b223fe8d0a0e5c4f27ead9083c756cc2",
                "decimals": 18
            },
            {
                "address": "0xda605fd5e003e6de0f33f6474080623fa6483e3e",
                "decimals": 8
            },
            {
                "address": "0xeeeeeeeeeeeeeeeeeeeeeeeeeeeeeeeeeeeeeeee",
                "decimals": 18
            }
        ]
    },
    "address_label": {
        "labels": [
            {
                "address": "0x0000000000000000000000000000000000000004",
                "label": "Precompiled"
            },
            {
                "address": "0xeeeeeeeeeeeeeeeeeeeeeeeeeeeeeeeeeeeeeeee",
                "label": "Ether"
            },
            {
                "address": "0xda605fd5e003e6de0f33f6474080623fa6483e3e",
                "label": "Capital Coin (CPTL)"
            },
            {
                "address": "0x0000000000000000000000000000000000000001",
                "label": "Precompiled"
            },
            {
                "address": "0x0000000000000000000000000000000000000002",
                "label": "Precompiled"
            },
            {
                "address": "0x0000000000000000000000000000000000000003",
                "label": "Precompiled"
            }
        ]
    },
    "trace": {
        "accountLabels": null,
        "dataMap": {
            "-1": {
                "invocation": {
                    "address": "0xfb69688d02a0212fa846b322787963127eb747d7",
                    "callData": "",
                    "decodedMethod": null,
                    "errorInfo": "",
                    "fromAddress": "",
                    "gasUsed": 0,
                    "id": -1,
                    "methodDecoded": false,
                    "operation": "",
                    "output": "",
                    "revert": false,
                    "revertMessage": "",
                    "selector": "",
                    "status": false,
                    "value": ""
                },
                "nodeType": 0
            },
            "0": {
                "invocation": {
                    "address": "0xda605fd5e003e6de0f33f6474080623fa6483e3e",
                    "callData": "0x000000000000000000000000dc636c1d4c475f4b59cde0197b0184ea06d3ab330000000000000000000000000000000000000000000000000000000cf8d48892",
                    "decodedMethod": {
                        "callParams": [
                            {
                                "name": "_to",
                                "type": "address",
                                "value": "0xdc636c1d4c475f4b59cde0197b0184ea06d3ab33"
                            },
                            {
                                "decimalAvailable": true,
                                "name": "_value",
                                "type": "uint256",
                                "value": "55,714,285,714"
                            }
                        ],
                        "constructorArguments": "",
                        "name": "transfer",
                        "returnParams": [
                            {
                                "name": "success",
                                "type": "bool",
                                "value": true
                            }
                        ],
                        "signature": "transfer(address,uint256)"
                    },
                    "errorInfo": "",
                    "fromAddress": "0xfb69688d02a0212fa846b322787963127eb747d7",
                    "gasUsed": 36709,
                    "id": 0,
                    "methodDecoded": true,
                    "operation": "CALL",
                    "output": "0x0000000000000000000000000000000000000000000000000000000000000001",
                    "revert": false,
                    "revertMessage": "",
                    "selector": "0xa9059cbb",
                    "status": true,
                    "value": "0"
                },
                "nodeType": 0
            },
            "1": {
                "event": {
                    "contract": "0xda605fd5e003e6de0f33f6474080623fa6483e3e",
                    "decodedLog": {
                        "name": "Transfer",
                        "params": [
                            {
                                "name": "_from",
                                "type": "address",
                                "value": "0xfb69688d02a0212fa846b322787963127eb747d7"
                            },
                            {
                                "name": "_to",
                                "type": "address",
                                "value": "0xdc636c1d4c475f4b59cde0197b0184ea06d3ab33"
                            },
                            {
                                "decimalAvailable": true,
                                "name": "_value",
                                "type": "uint256",
                                "value": "55,714,285,714"
                            }
                        ],
                        "signature": "Transfer(address,address,uint256)"
                    },
                    "id": 1,
                    "logData": "0x0000000000000000000000000000000000000000000000000000000cf8d48892",
                    "logDecoded": true,
                    "operation": "EVENT",
                    "revert": false,
                    "status": true,
                    "topics": [
                        "0xddf252ad1be2c89b69c2b068fc378daa952ba7f163c4a11628f55a4df523b3ef",
                        "0x000000000000000000000000fb69688d02a0212fa846b322787963127eb747d7",
                        "0x000000000000000000000000dc636c1d4c475f4b59cde0197b0184ea06d3ab33"
                    ]
                },
                "nodeType": 1
            }
        },
        "gasFlame": [
            {
                "children": [
                    {
                        "children": [
                            {
                                "children": [],
                                "depth": 0,
                                "name": "Initial Gas",
                                "value": 21620
                            },
                            {
                                "children": [],
                                "depth": 0,
                                "name": "Executed Gas",
                                "value": 15089
                            }
                        ],
                        "depth": -1,
                        "name": "Actual Gas Used",
                        "value": 36709
                    },
                    {
                        "children": [],
                        "depth": -1,
                        "name": "Refunded Gas",
                        "value": 0
                    }
                ],
                "depth": -2,
                "name": "Total Gas",
                "value": 36709
            }
        ],
        "isConfirmed": true,
        "mainTrace": [
            {
                "children": [
                    {
                        "children": [
                            {
                                "children": [],
                                "depth": 1,
                                "id": 1,
                                "order": 1
                            }
                        ],
                        "depth": 0,
                        "id": 0,
                        "order": 0
                    }
                ],
                "depth": -1,
                "id": -1,
                "order": -1
            }
        ],
        "mainTraceNodeCount": 2,
        "parentIdMap": {
            "0": -1,
            "1": 0
        },
        "tidyTrace": [
            {
                "children": [
                    {
                        "children": [
                            {
                                "children": [],
                                "depth": 1,
                                "id": 1,
                                "order": 1
                            }
                        ],
                        "depth": 0,
                        "id": 0,
                        "order": 0
                    }
                ],
                "depth": -1,
                "id": -1,
                "order": -1
            }
        ],
        "tidyTraceNodeCount": 2
    },
    "state_change": {
        "stateChanges": [
            {
                "address": "0xda605fd5e003e6de0f33f6474080623fa6483e3e",
                "erc": "ERC-20",
                "slots": [
                    {
                        "current": "0x0000000000000000000000000000000000000000000000000000018fc1869bd6",
                        "key": "0xc44116673fbef482abad24a4659b7ef43d89f5199edd55d0f9e009d26dac09d1",
                        "prev": "0x00000000000000000000000000000000000000000000000000000182c8b21344"
                    },
                    {
                        "current": "0x0000000000000000000000000000000000000000000000000001b4b69c035d21",
                        "key": "0xa1cfbe0a259e6ac812fccf88e7b8961207b90dc8810ec23976eee4848b4e42dc",
                        "prev": "0x0000000000000000000000000000000000000000000000000001b4c394d7e5b3"
                    }
                ],
                "storageVariables": []
            }
        ]
    }
}