{
    "balance_change": {
        "balanceChanges": [
            {
                "account": "0x93b39b7c7f8bd6f8e8c9afb24fd3836eb999437d",
                "assets": [
                    {
                        "address": "0x1f9840a85d5af5bf1d1762f925bdaddc4201f984",
                        "amount": "29.49794905",
                        "iconUrl": "https://assets.blocksec.com/icon/a11b26a37f84e146d773ae4914e43619075ce4c922ad0a1fa46464f3049bf839.png",
                        "isERC1155": false,
                        "isERC721": false,
                        "sign": false,
                        "value": "947.4539439"
                    }
                ]
            },
            {
                "account": "0xf76074d0eb4e3fd530bca58b92941758148d53a9",
                "assets": [
                    {
                        "address": "0x1f9840a85d5af5bf1d1762f925bdaddc4201f984",
                        "amount": "29.49794905",
                        "iconUrl": "https://assets.blocksec.com/icon/a11b26a37f84e146d773ae4914e43619075ce4c922ad0a1fa46464f3049bf839.png",
                        "isERC1155": false,
                        "isERC721": false,
                        "sign": true,
                        "value": "947.4539439"
                    }
                ]
            }
        ]
    },
    "profile": {
        "basic_info": {
            "baseFee": "",
            "blockNumber": 12269562,
            "callData": "0xa9059cbb000000000000000000000000f76074d0eb4e3fd530bca58b92941758148d53a9000000000000000000000000000000000000000000000001995dc45fc7d24400",
            "debugEnable": true,
            "errorInfo": "",
            "eventCount": 1,
            "feeRecipient": "0xea674fdde714fd979de3edf0f56aa9716b898ec8",
            "formatValue": "0",
            "gasLimit": 200000,
            "gasPrice": "192",
            "gasUsed": 25118,
            "intTxnCount": 0,
            "internalRevert": false,
            "internalRevertMessage": "",
            "isContractCreation": false,
            "isFlashloan": false,
            "maxFee": "",
            "nonce": 0,
            "overwritedBlockNumber": -1,
            "priorityFee": "",
            "receiver": "0x1f9840a85d5af5bf1d1762f925bdaddc4201f984",
            "revertMessage": "",
            "sender": "0x93b39b7c7f8bd6f8e8c9afb24fd3836eb999437d",
            "simulationEnable": true,
            "sourceTxnHash": "0x65335c1dcae5565a1f3ced62012356d6b765f4dbcdda2ac15428d202fff3ff14",
            "status": true,
            "timestamp": "2021-04-19T08:53:59Z",
            "transactionFee": "0.004822656",
            "txnHash": "0x65335c1dcae5565a1f3ced62012356d6b765f4dbcdda2ac15428d202fff3ff14",
            "txnIndex": 9,
            "type": 0,
            "value": "0"
        },
        "fund_flow": [
            {
                "amount": "29.49794905",
                "from": "0x93b39b7c7f8bd6f8e8c9afb24fd3836eb999437d",
                "id": 1,
                "isERC1155": false,
                "isERC721": false,
                "isReverted": false,
                "order": 1,
                "to": "0xf76074d0eb4e3fd530bca58b92941758148d53a9",
                "token": "0x1f9840a85d5af5bf1d1762f925bdaddc4201f984"
            }
        ],
        "token_infos": [
            {
                "address": "0x1f9840a85d5af5bf1d1762f925bdaddc4201f984",
                "decimals": 18
            },
            {
                "address": "0xc02aaa39b223fe8d0a0e5c4f27ead9083c756cc2",
                "decimals": 18
            },
            {
                "address": "0xeeeeeeeeeeeeeeeeeeeeeeeeeeeeeeeeeeeeeeee",
                "decimals": 18
            }
        ]
    },
    "address_label": {
        "labels": [
            {
                "address": "0xeeeeeeeeeeeeeeeeeeeeeeeeeeeeeeeeeeeeeeee",
                "label": "Ether"
            },
            {
                "address": "0x1f9840a85d5af5bf1d1762f925bdaddc4201f984",
                "label": "Uniswap Protocol: UNI token"
            },
            {
                "address": "0x0000000000000000000000000000000000000001",
                "label": "Precompiled"
            },
            {
                "address": "0x0000000000000000000000000000000000000002",
                "label": "Precompiled"
            },
            {
                "address": "0x0000000000000000000000000000000000000003",
                "label": "Precompiled"
            },
            {
                "address": "0x0000000000000000000000000000000000000004",
                "label": "Precompiled"
            }
        ]
    },
    "trace": {
        "accountLabels": null,
        "dataMap": {
            "-1": {
                "invocation": {
                    "address": "0x93b39b7c7f8bd6f8e8c9afb24fd3836eb999437d",
                    "callData": "",
                    "decodedMethod": null,
                    "errorInfo": "",
                    "fromAddress": "",
                    "gasUsed": 0,
                    "id": -1,
                    "methodDecoded": false,
                    "operation": "",
                    "output": "",
                    "revert": false,
                    "revertMessage": "",
                    "selector": "",
                    "status": false,
                    "value": ""
                },
                "nodeType": 0
            },
            "0": {
                "invocation": {
                    "address": "0x1f9840a85d5af5bf1d1762f925bdaddc4201f984",
                    "callData": "0x000000000000000000000000f76074d0eb4e3fd530bca58b92941758148d53a9000000000000000000000000000000000000000000000001995dc45fc7d24400",
                    "decodedMethod": {
                        "callParams": [
                            {
                                "name": "dst",
                                "type": "address",
                                "value": "0xf76074d0eb4e3fd530bca58b92941758148d53a9"
                            },
                            {
                                "decimalAvailable": true,
                                "name": "rawAmount",
                                "type": "uint256",
                                "value": "29,497,949,050,000,000,000"
                            }
                        ],
                        "constructorArguments": "",
                        "name": "transfer",
                        "returnParams": [
                            {
                                "name": "",
                                "type": "bool",
                                "value": true
                            }
                        ],
                        "signature": "transfer(address,uint256)"
                    },
                    "errorInfo": "",
                    "fromAddress": "0x93b39b7c7f8bd6f8e8c9afb24fd3836eb999437d",
                    "gasUsed": 25118,
                    "id": 0,
                    "methodDecoded": true,
                    "operation": "CALL",
                    "output": "0x0000000000000000000000000000000000000000000000000000000000000001",
                    "revert": false,
                    "revertMessage": "",
                    "selector": "0xa9059cbb",
                    "status": true,
                    "value": "0"
                },
                "nodeType": 0
            },
            "1": {
                "event": {
                    "contract": "0x1f9840a85d5af5bf1d1762f925bdaddc4201f984",
                    "decodedLog": {
                        "name": "Transfer",
                        "params": [
                            {
                                "name": "from",
                                "type": "address",
                                "value": "0x93b39b7c7f8bd6f8e8c9afb24fd3836eb999437d"
                            },
                            {
                                "name": "to",
                                "type": "address",
                                "value": "0xf76074d0eb4e3fd530bca58b92941758148d53a9"
                            },
                            {
                                "decimalAvailable": true,
                                "name": "amount",
                                "type": "uint256",
                                "value": "29,497,949,050,000,000,000"
                            }
                        ],
                        "signature": "Transfer(address,address,uint256)"
                    },
                    "id": 1,
                    "logData": "0x000000000000000000000000000000000000000000000001995dc45fc7d24400",
                    "logDecoded": true,
                    "operation": "EVENT",
                    "revert": false,
                    "status": true,
                    "topics": [
                        "0xddf252ad1be2c89b69c2b068fc378daa952ba7f163c4a11628f55a4df523b3ef",
                        "0x00000000000000000000000093b39b7c7f8bd6f8e8c9afb24fd3836eb999437d",
                        "0x000000000000000000000000f76074d0eb4e3fd530bca58b92941758148d53a9"
                    ]
                },
                "nodeType": 1
            }
        },
        "gasFlame": [
            {
                "children": [
                    {
                        "children": [
                            {
                                "children": [],
                                "depth": 0,
                                "name": "Initial Gas",
                                "value": 21656
                            },
                            {
                                "children": [],
                                "depth": 0,
                                "name": "Executed Gas",
                                "value": 18462
                            }
                        ],
                        "depth": -1,
                        "name": "Actual Gas Used",
                        "value": 25118
                    },
                    {
                        "children": [],
                        "depth": -1,
                        "name": "Refunded Gas",
                        "value": 15000
                    }
                ],
                "depth": -2,
                "name": "Total Gas",
                "value": 40118
            }
        ],
        "isConfirmed": true,
        "mainTrace": [
            {
                "children": [
                    {
                        "children": [
                            {
                                "children": [],
                                "depth": 1,
                                "id": 1,
                                "order": 1
                            }
                        ],
                        "depth": 0,
                        "id": 0,
                        "order": 0
                    }
                ],
                "depth": -1,
                "id": -1,
                "order": -1
            }
        ],
        "mainTraceNodeCount": 2,
        "parentIdMap": {
            "0": -1,
            "1": 0
        },
        "tidyTrace": [
            {
                "children": [
                    {
                        "children": [
                            {
                                "children": [],
                                "depth": 1,
                                "id": 1,
                                "order": 1
                            }
                        ],
                        "depth": 0,
                        "id": 0,
                        "order": 0
                    }
                ],
                "depth": -1,
                "id": -1,
                "order": -1
            }
        ],
        "tidyTraceNodeCount": 2
    },
    "state_change": {
        "stateChanges": [
            {
                "address": "0x1f9840a85d5af5bf1d1762f925bdaddc4201f984",
                "erc": "ERC-20",
                "slots": [
                    {
                        "current": "0x0000000000000000000000000000000000000000000000000000000000000000",
                        "key": "0xa89736e47545d54a0a28108a1b6abdf5836e81db63dd10ce270ae986194428b7",
                        "prev": "0x000000000000000000000000000000000000000000000001995dc45fc7d24400"
                    },
                    {
                        "current": "0x000000000000000000000000000000000000000000000240b6936a30711c722a",
                        "key": "0xe2e2e72b61f85fa94695c14738088f54bc24aed52cb916bd745b30239056c593",
                        "prev": "0x00000000000000000000000000000000000000000000023f1d35a5d0a94a2e2a"
                    }
                ],
                "storageVariables": [
                    {
                        "name": "balances",
                        "type": "mapping(address => uint96)",
                        "value": {
                            "pairs": [
                                {
                                    "key": "0x93b39b7c7f8bd6f8e8c9afb24fd3836eb999437d",
                                    "value": {
                                        "current": "0",
                                        "prev": "29497949050000000000",
                                        "typeTag": 1
                                    }
                                },
                                {
                                    "key": "0xf76074d0eb4e3fd530bca58b92941758148d53a9",
                                    "value": {
                                        "current": "10638480562149469745706",
                                        "prev": "10608982613099469745706",
                                        "typeTag": 1
                                    }
                                }
                            ],
                            "typeTag": 4
                        }
                    }
                ]
            }
        ]
    }
}