{
    "balance_change": {
        "balanceChanges": [
            {
                "account": "0x834c6d50083c9d333c01439b3df53eab72dbdf4d",
                "assets": [
                    {
                        "address": "0xb1f66997a5760428d3a87d68b90bfe0ae64121cc",
                        "amount": "10.880918165649855945",
                        "iconUrl": "",
                        "isERC1155": false,
                        "isERC721": false,
                        "sign": true,
                        "value": "0.33635198"
                    },
                    {
                        "address": "0x25a17a5a907941aaf6d6d1c7aae9c9cc3a38680c",
                        "amount": "0.000238039081747645",
                        "iconUrl": "",
                        "isERC1155": false,
                        "isERC721": false,
                        "sign": false,
                        "value": ""
                    }
                ]
            },
            {
                "account": "0xb67d7a6644d9e191cac4da2b88d6817351c7ff62",
                "assets": [
                    {
                        "address": "0x25a17a5a907941aaf6d6d1c7aae9c9cc3a38680c",
                        "amount": "0.000238039081747645",
                        "iconUrl": "",
                        "isERC1155": false,
                        "isERC721": false,
                        "sign": true,
                        "value": ""
                    },
                    {
                        "address": "0xb1f66997a5760428d3a87d68b90bfe0ae64121cc",
                        "amount": "1,876.476327337400576222",
                        "iconUrl": "",
                        "isERC1155": false,
                        "isERC721": false,
                        "sign": true,
                        "value": "76.83953827"
                    }
                ]
            },
            {
                "account": "0x0000000000000000000000000000000000000000",
                "assets": [
                    {
                        "address": "0xb1f66997a5760428d3a87d68b90bfe0ae64121cc",
                        "amount": "2,112",
                        "iconUrl": "",
                        "isERC1155": false,
                        "isERC721": false,
                        "sign": false,
                        "value": "198.825862"
                    }
                ]
            },
            {
                "account": "0x4855aecf5e4779156789e81f81591a4ac376e202",
                "assets": [
                    {
                        "address": "0xb1f66997a5760428d3a87d68b90bfe0ae64121cc",
                        "amount": "48",
                        "iconUrl": "",
                        "isERC1155": false,
                        "isERC721": false,
                        "sign": true,
                        "value": "2.78705429"
                    }
                ]
            },
            {
                "account": "0xb1f66997a5760428d3a87d68b90bfe0ae64121cc",
                "assets": [
                    {
                        "address": "0xb1f66997a5760428d3a87d68b90bfe0ae64121cc",
                        "amount": "176.642754496949567833",
                        "iconUrl": "",
                        "isERC1155": false,
                        "isERC721": false,
                        "sign": true,
                        "value": "9.8610399"
                    }
                ]
            }
        ]
    },
    "profile": {
        "basic_info": {
            "baseFee": "",
            "blockNumber": 11017412,
            "callData": "0xe2bbb15800000000000000000000000000000000000000000000000000000000000000030000000000000000000000000000000000000000000000000000d87ecae904bd",
            "debugEnable": true,
            "errorInfo": "",
            "eventCount": 10,
            "feeRecipient": "0x04668ec2f57cc15c381b461b9fedab5d451c8f7f",
            "formatValue": "0",
            "gasLimit": 338398,
            "gasPrice": "62",
            "gasUsed": 210599,
            "intTxnCount": 10,
            "internalRevert": false,
            "internalRevertMessage": "",
            "isContractCreation": false,
            "isFlashloan": false,
            "maxFee": "",
            "nonce": 681,
            "overwritedBlockNumber": -1,
            "priorityFee": "",
            "receiver": "0xb67d7a6644d9e191cac4da2b88d6817351c7ff62",
            "revertMessage": "",
            "sender": "0x834c6d50083c9d333c01439b3df53eab72dbdf4d",
            "simulationEnable": true,
            "sourceTxnHash": "0x6682bc5e1e560949086fd3c685ce552e5f74d9e96239fe805155c2e3e673cebc",
            "status": true,
            "timestamp": "2020-10-08T21:57:27Z",
            "transactionFee": "0.013057138",
            "txnHash": "0x6682bc5e1e560949086fd3c685ce552e5f74d9e96239fe805155c2e3e673cebc",
            "txnIndex": 77,
            "type": 0,
            "value": "0"
        },
        "fund_flow": [
            {
                "amount": "192",
                "from": "0x0000000000000000000000000000000000000000",
                "id": 1,
                "isERC1155": false,
                "isERC721": false,
                "isReverted": false,
                "order": 1,
                "to": "0x4855aecf5e4779156789e81f81591a4ac376e202",
                "token": "0xb1f66997a5760428d3a87d68b90bfe0ae64121cc"
            },
            {
                "amount": "144",
                "from": "0x4855aecf5e4779156789e81f81591a4ac376e202",
                "id": 2,
                "isERC1155": false,
                "isERC721": false,
                "isReverted": false,
                "order": 2,
                "to": "0xb1f66997a5760428d3a87d68b90bfe0ae64121cc",
                "token": "0xb1f66997a5760428d3a87d68b90bfe0ae64121cc"
            },
            {
                "amount": "1,920",
                "from": "0x0000000000000000000000000000000000000000",
                "id": 3,
                "isERC1155": false,
                "isERC721": false,
                "isReverted": false,
                "order": 3,
                "to": "0xb67d7a6644d9e191cac4da2b88d6817351c7ff62",
                "token": "0xb1f66997a5760428d3a87d68b90bfe0ae64121cc"
            },
            {
                "amount": "43.523672662599423778",
                "from": "0xb67d7a6644d9e191cac4da2b88d6817351c7ff62",
                "id": 4,
                "isERC1155": false,
                "isERC721": false,
                "isReverted": false,
                "order": 4,
                "to": "0x834c6d50083c9d333c01439b3df53eab72dbdf4d",
                "token": "0xb1f66997a5760428d3a87d68b90bfe0ae64121cc"
            },
            {
                "amount": "32.642754496949567832",
                "from": "0x834c6d50083c9d333c01439b3df53eab72dbdf4d",
                "id": 5,
                "isERC1155": false,
                "isERC721": false,
                "isReverted": false,
                "order": 5,
                "to": "0xb1f66997a5760428d3a87d68b90bfe0ae64121cc",
                "token": "0xb1f66997a5760428d3a87d68b90bfe0ae64121cc"
            },
            {
                "amount": "0.000238039081747645",
                "from": "0x834c6d50083c9d333c01439b3df53eab72dbdf4d",
                "id": 6,
                "isERC1155": false,
                "isERC721": false,
                "isReverted": false,
                "order": 6,
                "to": "0xb67d7a6644d9e191cac4da2b88d6817351c7ff62",
                "token": "0x25a17a5a907941aaf6d6d1c7aae9c9cc3a38680c"
            }
        ],
        "token_infos": [
            {
                "address": "0xc02aaa39b223fe8d0a0e5c4f27ead9083c756cc2",
                "decimals": 18
            },
            {
                "address": "0xeeeeeeeeeeeeeeeeeeeeeeeeeeeeeeeeeeeeeeee",
                "decimals": 18
            },
            {
                "address": "0x25a17a5a907941aaf6d6d1c7aae9c9cc3a38680c",
                "decimals": 18
            },
            {
                "address": "0xb1f66997a5760428d3a87d68b90bfe0ae64121cc",
                "decimals": 18
            }
        ]
    },
    "address_label": {
        "labels": [
            {
                "address": "0xb1f66997a5760428d3a87d68b90bfe0ae64121cc",
                "label": "LuaSwap: LUA Token"
            },
            {
                "address": "0xb67d7a6644d9e191cac4da2b88d6817351c7ff62",
                "label": "LuaSwap: Master Farmer LP Staking Pool"
            },
            {
                "address": "0x0000000000000000000000000000000000000001",
                "label": "Precompiled"
            },
            {
                "address": "0x0000000000000000000000000000000000000002",
                "label": "Precompiled"
            },
            {
                "address": "0x0000000000000000000000000000000000000003",
                "label": "Precompiled"
            },
            {
                "address": "0x0000000000000000000000000000000000000004",
                "label": "Precompiled"
            },
            {
                "address": "0xeeeeeeeeeeeeeeeeeeeeeeeeeeeeeeeeeeeeeeee",
                "label": "Ether"
            },
            {
                "address": "0x25a17a5a907941aaf6d6d1c7aae9c9cc3a38680c",
                "label": "Uniswap V2: USDC-LUA"
            }
        ]
    },
    "trace": {
        "accountLabels": null,
        "dataMap": {
            "-1": {
                "invocation": {
                    "address": "0x834c6d50083c9d333c01439b3df53eab72dbdf4d",
                    "callData": "",
                    "decodedMethod": null,
                    "errorInfo": "",
                    "fromAddress": "",
                    "gasUsed": 0,
                    "id": -1,
                    "methodDecoded": false,
                    "operation": "",
                    "output": "",
                    "revert": false,
                    "revertMessage": "",
                    "selector": "",
                    "status": false,
                    "value": ""
                },
                "nodeType": 0
            },
            "0": {
                "invocation": {
                    "address": "0xb67d7a6644d9e191cac4da2b88d6817351c7ff62",
                    "callData": "0x00000000000000000000000000000000000000000000000000000000000000030000000000000000000000000000000000000000000000000000d87ecae904bd",
                    "decodedMethod": {
                        "callParams": [
                            {
                                "name": "_pid",
                                "type": "uint256",
                                "value": "3"
                            },
                            {
                                "name": "_amount",
                                "type": "uint256",
                                "value": "238,039,081,747,645"
                            }
                        ],
                        "constructorArguments": "",
                        "name": "deposit",
                        "returnParams": [],
                        "signature": "deposit(uint256,uint256)"
                    },
                    "errorInfo": "",
                    "fromAddress": "0x834c6d50083c9d333c01439b3df53eab72dbdf4d",
                    "gasUsed": 210599,
                    "id": 0,
                    "methodDecoded": true,
                    "operation": "CALL",
                    "output": "",
                    "revert": false,
                    "revertMessage": "",
                    "selector": "0xe2bbb158",
                    "status": true,
                    "value": "0"
                },
                "nodeType": 0
            },
            "1": {
                "invocation": {
                    "address": "0x25a17a5a907941aaf6d6d1c7aae9c9cc3a38680c",
                    "callData": "0x000000000000000000000000b67d7a6644d9e191cac4da2b88d6817351c7ff62",
                    "decodedMethod": {
                        "callParams": [
                            {
                                "name": "",
                                "type": "address",
                                "value": "0xb67d7a6644d9e191cac4da2b88d6817351c7ff62"
                            }
                        ],
                        "constructorArguments": "",
                        "name": "balanceOf",
                        "returnParams": [
                            {
                                "decimalAvailable": true,
                                "name": "",
                                "type": "uint256",
                                "value": "3,180,593,233,647,434,698"
                            }
                        ],
                        "signature": "balanceOf(address)"
                    },
                    "errorInfo": "",
                    "fromAddress": "0xb67d7a6644d9e191cac4da2b88d6817351c7ff62",
                    "gasUsed": 1180,
                    "id": 1,
                    "methodDecoded": true,
                    "operation": "STATICCALL",
                    "output": "0x0000000000000000000000000000000000000000000000002c23bcb1ca90fbca",
                    "revert": false,
                    "revertMessage": "",
                    "selector": "0x70a08231",
                    "status": true,
                    "value": "0"
                },
                "nodeType": 0
            },
            "10": {
                "event": {
                    "contract": "0xb1f66997a5760428d3a87d68b90bfe0ae64121cc",
                    "decodedLog": {
                        "name": "Transfer",
                        "params": [
                            {
                                "name": "from",
                                "type": "address",
                                "value": "0x0000000000000000000000000000000000000000"
                            },
                            {
                                "name": "to",
                                "type": "address",
                                "value": "0xb67d7a6644d9e191cac4da2b88d6817351c7ff62"
                            },
                            {
                                "decimalAvailable": true,
                                "name": "value",
                                "type": "uint256",
                                "value": "1,920,000,000,000,000,000,000"
                            }
                        ],
                        "signature": "Transfer(address,address,uint256)"
                    },
                    "id": 10,
                    "logData": "0x000000000000000000000000000000000000000000000068155a43676e000000",
                    "logDecoded": true,
                    "operation": "EVENT",
                    "revert": false,
                    "status": true,
                    "topics": [
                        "0xddf252ad1be2c89b69c2b068fc378daa952ba7f163c4a11628f55a4df523b3ef",
                        "0x0000000000000000000000000000000000000000000000000000000000000000",
                        "0x000000000000000000000000b67d7a6644d9e191cac4da2b88d6817351c7ff62"
                    ]
                },
                "nodeType": 1
            },
            "11": {
                "invocation": {
                    "address": "0xb1f66997a5760428d3a87d68b90bfe0ae64121cc",
                    "callData": "0x000000000000000000000000b67d7a6644d9e191cac4da2b88d6817351c7ff62",
                    "decodedMethod": {
                        "callParams": [
                            {
                                "name": "account",
                                "type": "address",
                                "value": "0xb67d7a6644d9e191cac4da2b88d6817351c7ff62"
                            }
                        ],
                        "constructorArguments": "",
                        "name": "balanceOf",
                        "returnParams": [
                            {
                                "decimalAvailable": true,
                                "name": "",
                                "type": "uint256",
                                "value": "5,633,098,247,269,402,993,664,637"
                            }
                        ],
                        "signature": "balanceOf(address)"
                    },
                    "errorInfo": "",
                    "fromAddress": "0xb67d7a6644d9e191cac4da2b88d6817351c7ff62",
                    "gasUsed": 1242,
                    "id": 11,
                    "methodDecoded": true,
                    "operation": "STATICCALL",
                    "output": "0x00000000000000000000000000000000000000000004a8dade2d19e3f42aa27d",
                    "revert": false,
                    "revertMessage": "",
                    "selector": "0x70a08231",
                    "status": true,
                    "value": "0"
                },
                "nodeType": 0
            },
            "12": {
                "invocation": {
                    "address": "0xb1f66997a5760428d3a87d68b90bfe0ae64121cc",
                    "callData": "0x000000000000000000000000834c6d50083c9d333c01439b3df53eab72dbdf4d0000000000000000000000000000000000000000000000025c0325b0369e5722",
                    "decodedMethod": {
                        "callParams": [
                            {
                                "name": "recipient",
                                "type": "address",
                                "value": "0x834c6d50083c9d333c01439b3df53eab72dbdf4d"
                            },
                            {
                                "decimalAvailable": true,
                                "name": "amount",
                                "type": "uint256",
                                "value": "43,523,672,662,599,423,778"
                            }
                        ],
                        "constructorArguments": "",
                        "name": "transfer",
                        "returnParams": [
                            {
                                "name": "",
                                "type": "bool",
                                "value": true
                            }
                        ],
                        "signature": "transfer(address,uint256)"
                    },
                    "errorInfo": "",
                    "fromAddress": "0xb67d7a6644d9e191cac4da2b88d6817351c7ff62",
                    "gasUsed": 12620,
                    "id": 12,
                    "methodDecoded": true,
                    "operation": "CALL",
                    "output": "0x0000000000000000000000000000000000000000000000000000000000000001",
                    "revert": false,
                    "revertMessage": "",
                    "selector": "0xa9059cbb",
                    "status": true,
                    "value": "0"
                },
                "nodeType": 0
            },
            "13": {
                "event": {
                    "contract": "0xb1f66997a5760428d3a87d68b90bfe0ae64121cc",
                    "decodedLog": {
                        "name": "Transfer",
                        "params": [
                            {
                                "name": "from",
                                "type": "address",
                                "value": "0xb67d7a6644d9e191cac4da2b88d6817351c7ff62"
                            },
                            {
                                "name": "to",
                                "type": "address",
                                "value": "0x834c6d50083c9d333c01439b3df53eab72dbdf4d"
                            },
                            {
                                "decimalAvailable": true,
                                "name": "value",
                                "type": "uint256",
                                "value": "43,523,672,662,599,423,778"
                            }
                        ],
                        "signature": "Transfer(address,address,uint256)"
                    },
                    "id": 13,
                    "logData": "0x0000000000000000000000000000000000000000000000025c0325b0369e5722",
                    "logDecoded": true,
                    "operation": "EVENT",
                    "revert": false,
                    "status": true,
                    "topics": [
                        "0xddf252ad1be2c89b69c2b068fc378daa952ba7f163c4a11628f55a4df523b3ef",
                        "0x000000000000000000000000b67d7a6644d9e191cac4da2b88d6817351c7ff62",
                        "0x000000000000000000000000834c6d50083c9d333c01439b3df53eab72dbdf4d"
                    ]
                },
                "nodeType": 1
            },
            "14": {
                "invocation": {
                    "address": "0xb1f66997a5760428d3a87d68b90bfe0ae64121cc",
                    "callData": "0x000000000000000000000000834c6d50083c9d333c01439b3df53eab72dbdf4d000000000000000000000000000000000000000000000001c5025c4428f6c159",
                    "decodedMethod": {
                        "callParams": [
                            {
                                "name": "_holder",
                                "type": "address",
                                "value": "0x834c6d50083c9d333c01439b3df53eab72dbdf4d"
                            },
                            {
                                "name": "_amount",
                                "type": "uint256",
                                "value": "32,642,754,496,949,567,833"
                            }
                        ],
                        "constructorArguments": "",
                        "name": "lock",
                        "returnParams": [],
                        "signature": "lock(address,uint256)"
                    },
                    "errorInfo": "",
                    "fromAddress": "0xb67d7a6644d9e191cac4da2b88d6817351c7ff62",
                    "gasUsed": 21229,
                    "id": 14,
                    "methodDecoded": true,
                    "operation": "CALL",
                    "output": "",
                    "revert": false,
                    "revertMessage": "",
                    "selector": "0x282d3fdf",
                    "status": true,
                    "value": "0"
                },
                "nodeType": 0
            },
            "15": {
                "event": {
                    "contract": "0xb1f66997a5760428d3a87d68b90bfe0ae64121cc",
                    "decodedLog": {
                        "name": "Transfer",
                        "params": [
                            {
                                "name": "from",
                                "type": "address",
                                "value": "0x834c6d50083c9d333c01439b3df53eab72dbdf4d"
                            },
                            {
                                "name": "to",
                                "type": "address",
                                "value": "0xb1f66997a5760428d3a87d68b90bfe0ae64121cc"
                            },
                            {
                                "decimalAvailable": true,
                                "name": "value",
                                "type": "uint256",
                                "value": "32,642,754,496,949,567,833"
                            }
                        ],
                        "signature": "Transfer(address,address,uint256)"
                    },
                    "id": 15,
                    "logData": "0x000000000000000000000000000000000000000000000001c5025c4428f6c159",
                    "logDecoded": true,
                    "operation": "EVENT",
                    "revert": false,
                    "status": true,
                    "topics": [
                        "0xddf252ad1be2c89b69c2b068fc378daa952ba7f163c4a11628f55a4df523b3ef",
                        "0x000000000000000000000000834c6d50083c9d333c01439b3df53eab72dbdf4d",
                        "0x000000000000000000000000b1f66997a5760428d3a87d68b90bfe0ae64121cc"
                    ]
                },
                "nodeType": 1
            },
            "16": {
                "event": {
                    "contract": "0xb1f66997a5760428d3a87d68b90bfe0ae64121cc",
                    "decodedLog": {
                        "name": "Lock",
                        "params": [
                            {
                                "name": "to",
                                "type": "address",
                                "value": "0x834c6d50083c9d333c01439b3df53eab72dbdf4d"
                            },
                            {
                                "name": "value",
                                "type": "uint256",
                                "value": "32,642,754,496,949,567,833"
                            }
                        ],
                        "signature": "Lock(address,uint256)"
                    },
                    "id": 16,
                    "logData": "0x000000000000000000000000000000000000000000000001c5025c4428f6c159",
                    "logDecoded": true,
                    "operation": "EVENT",
                    "revert": false,
                    "status": true,
                    "topics": [
                        "0x625fed9875dada8643f2418b838ae0bc78d9a148a18eee4ee1979ff0f3f5d427",
                        "0x000000000000000000000000834c6d50083c9d333c01439b3df53eab72dbdf4d"
                    ]
                },
                "nodeType": 1
            },
            "17": {
                "event": {
                    "contract": "0xb67d7a6644d9e191cac4da2b88d6817351c7ff62",
                    "decodedLog": {
                        "name": "SendLuaReward",
                        "params": [
                            {
                                "name": "user",
                                "type": "address",
                                "value": "0x834c6d50083c9d333c01439b3df53eab72dbdf4d"
                            },
                            {
                                "name": "pid",
                                "type": "uint256",
                                "value": "3"
                            },
                            {
                                "name": "amount",
                                "type": "uint256",
                                "value": "43,523,672,662,599,423,778"
                            },
                            {
                                "name": "lockAmount",
                                "type": "uint256",
                                "value": "32,642,754,496,949,567,833"
                            }
                        ],
                        "signature": "SendLuaReward(address,uint256,uint256,uint256)"
                    },
                    "id": 17,
                    "logData": "0x0000000000000000000000000000000000000000000000025c0325b0369e5722000000000000000000000000000000000000000000000001c5025c4428f6c159",
                    "logDecoded": true,
                    "operation": "EVENT",
                    "revert": false,
                    "status": true,
                    "topics": [
                        "0x3bb524b60fb95aa2837f67787c90f9d177e8a0ed1b76b4d9a7769bb7186f4bd3",
                        "0x000000000000000000000000834c6d50083c9d333c01439b3df53eab72dbdf4d",
                        "0x0000000000000000000000000000000000000000000000000000000000000003"
                    ]
                },
                "nodeType": 1
            },
            "18": {
                "invocation": {
                    "address": "0x25a17a5a907941aaf6d6d1c7aae9c9cc3a38680c",
                    "callData": "0x000000000000000000000000834c6d50083c9d333c01439b3df53eab72dbdf4d000000000000000000000000b67d7a6644d9e191cac4da2b88d6817351c7ff620000000000000000000000000000000000000000000000000000d87ecae904bd",
                    "decodedMethod": {
                        "callParams": [
                            {
                                "name": "from",
                                "type": "address",
                                "value": "0x834c6d50083c9d333c01439b3df53eab72dbdf4d"
                            },
                            {
                                "name": "to",
                                "type": "address",
                                "value": "0xb67d7a6644d9e191cac4da2b88d6817351c7ff62"
                            },
                            {
                                "decimalAvailable": true,
                                "name": "value",
                                "type": "uint256",
                                "value": "238,039,081,747,645"
                            }
                        ],
                        "constructorArguments": "",
                        "name": "transferFrom",
                        "returnParams": [
                            {
                                "name": "",
                                "type": "bool",
                                "value": true
                            }
                        ],
                        "signature": "transferFrom(address,address,uint256)"
                    },
                    "errorInfo": "",
                    "fromAddress": "0xb67d7a6644d9e191cac4da2b88d6817351c7ff62",
                    "gasUsed": 15270,
                    "id": 18,
                    "methodDecoded": true,
                    "operation": "CALL",
                    "output": "0x0000000000000000000000000000000000000000000000000000000000000001",
                    "revert": false,
                    "revertMessage": "",
                    "selector": "0x23b872dd",
                    "status": true,
                    "value": "0"
                },
                "nodeType": 0
            },
            "19": {
                "event": {
                    "contract": "0x25a17a5a907941aaf6d6d1c7aae9c9cc3a38680c",
                    "decodedLog": {
                        "name": "Transfer",
                        "params": [
                            {
                                "name": "from",
                                "type": "address",
                                "value": "0x834c6d50083c9d333c01439b3df53eab72dbdf4d"
                            },
                            {
                                "name": "to",
                                "type": "address",
                                "value": "0xb67d7a6644d9e191cac4da2b88d6817351c7ff62"
                            },
                            {
                                "decimalAvailable": true,
                                "name": "value",
                                "type": "uint256",
                                "value": "238,039,081,747,645"
                            }
                        ],
                        "signature": "Transfer(address,address,uint256)"
                    },
                    "id": 19,
                    "logData": "0x0000000000000000000000000000000000000000000000000000d87ecae904bd",
                    "logDecoded": true,
                    "operation": "EVENT",
                    "revert": false,
                    "status": true,
                    "topics": [
                        "0xddf252ad1be2c89b69c2b068fc378daa952ba7f163c4a11628f55a4df523b3ef",
                        "0x000000000000000000000000834c6d50083c9d333c01439b3df53eab72dbdf4d",
                        "0x000000000000000000000000b67d7a6644d9e191cac4da2b88d6817351c7ff62"
                    ]
                },
                "nodeType": 1
            },
            "2": {
                "invocation": {
                    "address": "0xb1f66997a5760428d3a87d68b90bfe0ae64121cc",
                    "callData": "0x",
                    "decodedMethod": {
                        "callParams": [],
                        "constructorArguments": "",
                        "name": "totalSupply",
                        "returnParams": [
                            {
                                "name": "",
                                "type": "uint256",
                                "value": "93,997,612,342,857,142,857,142,368"
                            }
                        ],
                        "signature": "totalSupply()"
                    },
                    "errorInfo": "",
                    "fromAddress": "0xb67d7a6644d9e191cac4da2b88d6817351c7ff62",
                    "gasUsed": 1104,
                    "id": 2,
                    "methodDecoded": true,
                    "operation": "STATICCALL",
                    "output": "0x0000000000000000000000000000000000000000004dc0c4c6890e2cede49060",
                    "revert": false,
                    "revertMessage": "",
                    "selector": "0x18160ddd",
                    "status": true,
                    "value": "0"
                },
                "nodeType": 0
            },
            "20": {
                "event": {
                    "contract": "0xb67d7a6644d9e191cac4da2b88d6817351c7ff62",
                    "decodedLog": {
                        "name": "Deposit",
                        "params": [
                            {
                                "name": "user",
                                "type": "address",
                                "value": "0x834c6d50083c9d333c01439b3df53eab72dbdf4d"
                            },
                            {
                                "name": "pid",
                                "type": "uint256",
                                "value": "3"
                            },
                            {
                                "name": "amount",
                                "type": "uint256",
                                "value": "238,039,081,747,645"
                            }
                        ],
                        "signature": "Deposit(address,uint256,uint256)"
                    },
                    "id": 20,
                    "logData": "0x0000000000000000000000000000000000000000000000000000d87ecae904bd",
                    "logDecoded": true,
                    "operation": "EVENT",
                    "revert": false,
                    "status": true,
                    "topics": [
                        "0x90890809c654f11d6e72a28fa60149770a0d11ec6c92319d6ceb2bb0a4ea1a15",
                        "0x000000000000000000000000834c6d50083c9d333c01439b3df53eab72dbdf4d",
                        "0x0000000000000000000000000000000000000000000000000000000000000003"
                    ]
                },
                "nodeType": 1
            },
            "3": {
                "invocation": {
                    "address": "0xb1f66997a5760428d3a87d68b90bfe0ae64121cc",
                    "callData": "0x",
                    "decodedMethod": {
                        "callParams": [],
                        "constructorArguments": "",
                        "name": "cap",
                        "returnParams": [
                            {
                                "name": "",
                                "type": "uint256",
                                "value": "500,000,000,000,000,000,000,000,000"
                            }
                        ],
                        "signature": "cap()"
                    },
                    "errorInfo": "",
                    "fromAddress": "0xb67d7a6644d9e191cac4da2b88d6817351c7ff62",
                    "gasUsed": 1147,
                    "id": 3,
                    "methodDecoded": true,
                    "operation": "STATICCALL",
                    "output": "0x0000000000000000000000000000000000000000019d971e4fe8401e74000000",
                    "revert": false,
                    "revertMessage": "",
                    "selector": "0x355274ea",
                    "status": true,
                    "value": "0"
                },
                "nodeType": 0
            },
            "4": {
                "invocation": {
                    "address": "0xb1f66997a5760428d3a87d68b90bfe0ae64121cc",
                    "callData": "0x0000000000000000000000004855aecf5e4779156789e81f81591a4ac376e20200000000000000000000000000000000000000000000000a688906bd8b000000",
                    "decodedMethod": {
                        "callParams": [
                            {
                                "name": "_to",
                                "type": "address",
                                "value": "0x4855aecf5e4779156789e81f81591a4ac376e202"
                            },
                            {
                                "name": "_amount",
                                "type": "uint256",
                                "value": "192,000,000,000,000,000,000"
                            }
                        ],
                        "constructorArguments": "",
                        "name": "mint",
                        "returnParams": [],
                        "signature": "mint(address,uint256)"
                    },
                    "errorInfo": "",
                    "fromAddress": "0xb67d7a6644d9e191cac4da2b88d6817351c7ff62",
                    "gasUsed": 18150,
                    "id": 4,
                    "methodDecoded": true,
                    "operation": "CALL",
                    "output": "",
                    "revert": false,
                    "revertMessage": "",
                    "selector": "0x40c10f19",
                    "status": true,
                    "value": "0"
                },
                "nodeType": 0
            },
            "5": {
                "event": {
                    "contract": "0xb1f66997a5760428d3a87d68b90bfe0ae64121cc",
                    "decodedLog": {
                        "name": "Transfer",
                        "params": [
                            {
                                "name": "from",
                                "type": "address",
                                "value": "0x0000000000000000000000000000000000000000"
                            },
                            {
                                "name": "to",
                                "type": "address",
                                "value": "0x4855aecf5e4779156789e81f81591a4ac376e202"
                            },
                            {
                                "decimalAvailable": true,
                                "name": "value",
                                "type": "uint256",
                                "value": "192,000,000,000,000,000,000"
                            }
                        ],
                        "signature": "Transfer(address,address,uint256)"
                    },
                    "id": 5,
                    "logData": "0x00000000000000000000000000000000000000000000000a688906bd8b000000",
                    "logDecoded": true,
                    "operation": "EVENT",
                    "revert": false,
                    "status": true,
                    "topics": [
                        "0xddf252ad1be2c89b69c2b068fc378daa952ba7f163c4a11628f55a4df523b3ef",
                        "0x0000000000000000000000000000000000000000000000000000000000000000",
                        "0x0000000000000000000000004855aecf5e4779156789e81f81591a4ac376e202"
                    ]
                },
                "nodeType": 1
            },
            "6": {
                "invocation": {
                    "address": "0xb1f66997a5760428d3a87d68b90bfe0ae64121cc",
                    "callData": "0x0000000000000000000000004855aecf5e4779156789e81f81591a4ac376e202000000000000000000000000000000000000000000000007ce66c50e28400000",
                    "decodedMethod": {
                        "callParams": [
                            {
                                "name": "_holder",
                                "type": "address",
                                "value": "0x4855aecf5e4779156789e81f81591a4ac376e202"
                            },
                            {
                                "name": "_amount",
                                "type": "uint256",
                                "value": "144,000,000,000,000,000,000"
                            }
                        ],
                        "constructorArguments": "",
                        "name": "lock",
                        "returnParams": [],
                        "signature": "lock(address,uint256)"
                    },
                    "errorInfo": "",
                    "fromAddress": "0xb67d7a6644d9e191cac4da2b88d6817351c7ff62",
                    "gasUsed": 29629,
                    "id": 6,
                    "methodDecoded": true,
                    "operation": "CALL",
                    "output": "",
                    "revert": false,
                    "revertMessage": "",
                    "selector": "0x282d3fdf",
                    "status": true,
                    "value": "0"
                },
                "nodeType": 0
            },
            "7": {
                "event": {
                    "contract": "0xb1f66997a5760428d3a87d68b90bfe0ae64121cc",
                    "decodedLog": {
                        "name": "Transfer",
                        "params": [
                            {
                                "name": "from",
                                "type": "address",
                                "value": "0x4855aecf5e4779156789e81f81591a4ac376e202"
                            },
                            {
                                "name": "to",
                                "type": "address",
                                "value": "0xb1f66997a5760428d3a87d68b90bfe0ae64121cc"
                            },
                            {
                                "decimalAvailable": true,
                                "name": "value",
                                "type": "uint256",
                                "value": "144,000,000,000,000,000,000"
                            }
                        ],
                        "signature": "Transfer(address,address,uint256)"
                    },
                    "id": 7,
                    "logData": "0x000000000000000000000000000000000000000000000007ce66c50e28400000",
                    "logDecoded": true,
                    "operation": "EVENT",
                    "revert": false,
                    "status": true,
                    "topics": [
                        "0xddf252ad1be2c89b69c2b068fc378daa952ba7f163c4a11628f55a4df523b3ef",
                        "0x0000000000000000000000004855aecf5e4779156789e81f81591a4ac376e202",
                        "0x000000000000000000000000b1f66997a5760428d3a87d68b90bfe0ae64121cc"
                    ]
                },
                "nodeType": 1
            },
            "8": {
                "event": {
                    "contract": "0xb1f66997a5760428d3a87d68b90bfe0ae64121cc",
                    "decodedLog": {
                        "name": "Lock",
                        "params": [
                            {
                                "name": "to",
                                "type": "address",
                                "value": "0x4855aecf5e4779156789e81f81591a4ac376e202"
                            },
                            {
                                "name": "value",
                                "type": "uint256",
                                "value": "144,000,000,000,000,000,000"
                            }
                        ],
                        "signature": "Lock(address,uint256)"
                    },
                    "id": 8,
                    "logData": "0x000000000000000000000000000000000000000000000007ce66c50e28400000",
                    "logDecoded": true,
                    "operation": "EVENT",
                    "revert": false,
                    "status": true,
                    "topics": [
                        "0x625fed9875dada8643f2418b838ae0bc78d9a148a18eee4ee1979ff0f3f5d427",
                        "0x0000000000000000000000004855aecf5e4779156789e81f81591a4ac376e202"
                    ]
                },
                "nodeType": 1
            },
            "9": {
                "invocation": {
                    "address": "0xb1f66997a5760428d3a87d68b90bfe0ae64121cc",
                    "callData": "0x000000000000000000000000b67d7a6644d9e191cac4da2b88d6817351c7ff62000000000000000000000000000000000000000000000068155a43676e000000",
                    "decodedMethod": {
                        "callParams": [
                            {
                                "name": "_to",
                                "type": "address",
                                "value": "0xb67d7a6644d9e191cac4da2b88d6817351c7ff62"
                            },
                            {
                                "name": "_amount",
                                "type": "uint256",
                                "value": "1,920,000,000,000,000,000,000"
                            }
                        ],
                        "constructorArguments": "",
                        "name": "mint",
                        "returnParams": [],
                        "signature": "mint(address,uint256)"
                    },
                    "errorInfo": "",
                    "fromAddress": "0xb67d7a6644d9e191cac4da2b88d6817351c7ff62",
                    "gasUsed": 13950,
                    "id": 9,
                    "methodDecoded": true,
                    "operation": "CALL",
                    "output": "",
                    "revert": false,
                    "revertMessage": "",
                    "selector": "0x40c10f19",
                    "status": true,
                    "value": "0"
                },
                "nodeType": 0
            }
        },
        "gasFlame": [
            {
                "children": [
                    {
                        "children": [
                            {
                                "children": [],
                                "depth": 0,
                                "name": "Initial Gas",
                                "value": 21404
                            },
                            {
                                "children": [
                                    {
                                        "children": [],
                                        "depth": 1,
                                        "name": "balanceOf",
                                        "value": 1180
                                    },
                                    {
                                        "children": [],
                                        "depth": 1,
                                        "name": "totalSupply",
                                        "value": 1104
                                    },
                                    {
                                        "children": [],
                                        "depth": 1,
                                        "name": "cap",
                                        "value": 1147
                                    },
                                    {
                                        "children": [],
                                        "depth": 1,
                                        "name": "mint",
                                        "value": 18150
                                    },
                                    {
                                        "children": [],
                                        "depth": 1,
                                        "name": "lock",
                                        "value": 29629
                                    },
                                    {
                                        "children": [],
                                        "depth": 1,
                                        "name": "mint",
                                        "value": 13950
                                    },
                                    {
                                        "children": [],
                                        "depth": 1,
                                        "name": "balanceOf",
                                        "value": 1242
                                    },
                                    {
                                        "children": [],
                                        "depth": 1,
                                        "name": "transfer",
                                        "value": 12620
                                    },
                                    {
                                        "children": [],
                                        "depth": 1,
                                        "name": "lock",
                                        "value": 21229
                                    },
                                    {
                                        "children": [],
                                        "depth": 1,
                                        "name": "transferFrom",
                                        "value": 15270
                                    }
                                ],
                                "depth": 0,
                                "name": "Executed Gas",
                                "value": 204195
                            }
                        ],
                        "depth": -1,
                        "name": "Actual Gas Used",
                        "value": 210599
                    },
                    {
                        "children": [],
                        "depth": -1,
                        "name": "Refunded Gas",
                        "value": 15000
                    }
                ],
                "depth": -2,
                "name": "Total Gas",
                "value": 225599
            }
        ],
        "isConfirmed": true,
        "mainTrace": [
            {
                "children": [
                    {
                        "children": [
                            {
                                "children": [],
                                "depth": 1,
                                "id": 1,
                                "order": 1
                            },
                            {
                                "children": [],
                                "depth": 1,
                                "id": 2,
                                "order": 2
                            },
                            {
                                "children": [],
                                "depth": 1,
                                "id": 3,
                                "order": 3
                            },
                            {
                                "children": [
                                    {
                                        "children": [],
                                        "depth": 2,
                                        "id": 5,
                                        "order": 5
                                    }
                                ],
                                "depth": 1,
                                "id": 4,
                                "order": 4
                            },
                            {
                                "children": [
                                    {
                                        "children": [],
                                        "depth": 2,
                                        "id": 7,
                                        "order": 7
                                    },
                                    {
                                        "children": [],
                                        "depth": 2,
                                        "id": 8,
                                        "order": 8
                                    }
                                ],
                                "depth": 1,
                                "id": 6,
                                "order": 6
                            },
                            {
                                "children": [
                                    {
                                        "children": [],
                                        "depth": 2,
                                        "id": 10,
                                        "order": 10
                                    }
                                ],
                                "depth": 1,
                                "id": 9,
                                "order": 9
                            },
                            {
                                "children": [],
                                "depth": 1,
                                "id": 11,
                                "order": 11
                            },
                            {
                                "children": [
                                    {
                                        "children": [],
                                        "depth": 2,
                                        "id": 13,
                                        "order": 13
                                    }
                                ],
                                "depth": 1,
                                "id": 12,
                                "order": 12
                            },
                            {
                                "children": [
                                    {
                                        "children": [],
                                        "depth": 2,
                                        "id": 15,
                                        "order": 15
                                    },
                                    {
                                        "children": [],
                                        "depth": 2,
                                        "id": 16,
                                        "order": 16
                                    }
                                ],
                                "depth": 1,
                                "id": 14,
                                "order": 14
                            },
                            {
                                "children": [],
                                "depth": 1,
                                "id": 17,
                                "order": 17
                            },
                            {
                                "children": [
                                    {
                                        "children": [],
                                        "depth": 2,
                                        "id": 19,
                                        "order": 19
                                    }
                                ],
                                "depth": 1,
                                "id": 18,
                                "order": 18
                            },
                            {
                                "children": [],
                                "depth": 1,
                                "id": 20,
                                "order": 20
                            }
                        ],
                        "depth": 0,
                        "id": 0,
                        "order": 0
                    }
                ],
                "depth": -1,
                "id": -1,
                "order": -1
            }
        ],
        "mainTraceNodeCount": 21,
        "parentIdMap": {
            "0": -1,
            "1": 0,
            "10": 9,
            "11": 0,
            "12": 0,
            "13": 12,
            "14": 0,
            "15": 14,
            "16": 14,
            "17": 0,
            "18": 0,
            "19": 18,
            "2": 0,
            "20": 0,
            "3": 0,
            "4": 0,
            "5": 4,
            "6": 0,
            "7": 6,
            "8": 6,
            "9": 0
        },
        "tidyTrace": [
            {
                "children": [
                    {
                        "children": [
                            {
                                "children": [
                                    {
                                        "children": [],
                                        "depth": 2,
                                        "id": 5,
                                        "order": 5
                                    }
                                ],
                                "depth": 1,
                                "id": 4,
                                "order": 4
                            },
                            {
                                "children": [
                                    {
                                        "children": [],
                                        "depth": 2,
                                        "id": 7,
                                        "order": 7
                                    },
                                    {
                                        "children": [],
                                        "depth": 2,
                                        "id": 8,
                                        "order": 8
                                    }
                                ],
                                "depth": 1,
                                "id": 6,
                                "order": 6
                            },
                            {
                                "children": [
                                    {
                                        "children": [],
                                        "depth": 2,
                                        "id": 10,
                                        "order": 10
                                    }
                                ],
                                "depth": 1,
                                "id": 9,
                                "order": 9
                            },
                            {
                                "children": [
                                    {
                                        "children": [],
                                        "depth": 2,
                                        "id": 13,
                                        "order": 13
                                    }
                                ],
                                "depth": 1,
                                "id": 12,
                                "order": 12
                            },
                            {
                                "children": [
                                    {
                                        "children": [],
                                        "depth": 2,
                                        "id": 15,
                                        "order": 15
                                    },
                                    {
                                        "children": [],
                                        "depth": 2,
                                        "id": 16,
                                        "order": 16
                                    }
                                ],
                                "depth": 1,
                                "id": 14,
                                "order": 14
                            },
                            {
                                "children": [],
                                "depth": 1,
                                "id": 17,
                                "order": 17
                            },
                            {
                                "children": [
                                    {
                                        "children": [],
                                        "depth": 2,
                                        "id": 19,
                                        "order": 19
                                    }
                                ],
                                "depth": 1,
                                "id": 18,
                                "order": 18
                            },
                            {
                                "children": [],
                                "depth": 1,
                                "id": 20,
                                "order": 20
                            }
                        ],
                        "depth": 0,
                        "id": 0,
                        "order": 0
                    }
                ],
                "depth": -1,
                "id": -1,
                "order": -1
            }
        ],
        "tidyTraceNodeCount": 17
    },
    "state_change": {
        "stateChanges": [
            {
                "address": "0x25a17a5a907941aaf6d6d1c7aae9c9cc3a38680c",
                "erc": "ERC-20",
                "slots": [
                    {
                        "current": "0x0000000000000000000000000000000000000000000000000000000000000000",
                        "key": "0xb111dbe72c0e38804bfb33420bdfb79831070a82b147b63d05d2fc71880c7e53",
                        "prev": "0x0000000000000000000000000000000000000000000000000000d87ecae904bd"
                    },
                    {
                        "current": "0x0000000000000000000000000000000000000000000000002c249530957a0087",
                        "key": "0xc0eef8606163ada939a0c6eb7fd58954033256071dd326b89e484cb89ed7afd4",
                        "prev": "0x0000000000000000000000000000000000000000000000002c23bcb1ca90fbca"
                    }
                ],
                "storageVariables": [
                    {
                        "name": "balanceOf",
                        "type": "mapping(address => uint256)",
                        "value": {
                            "pairs": [
                                {
                                    "key": "0x834c6d50083c9d333c01439b3df53eab72dbdf4d",
                                    "value": {
                                        "current": "0",
                                        "prev": "238039081747645",
                                        "typeTag": 1
                                    }
                                },
                                {
                                    "key": "0xb67d7a6644d9e191cac4da2b88d6817351c7ff62",
                                    "value": {
                                        "current": "3180831272729182343",
                                        "prev": "3180593233647434698",
                                        "typeTag": 1
                                    }
                                }
                            ],
                            "typeTag": 4
                        }
                    }
                ]
            },
            {
                "address": "0xb1f66997a5760428d3a87d68b90bfe0ae64121cc",
                "erc": "ERC-20",
                "slots": [
                    {
                        "current": "0x00000000000000000000000000000000000000000036d24711b1cb169f02187e",
                        "key": "0x0000000000000000000000000000000000000000000000000000000000000007",
                        "prev": "0x00000000000000000000000000000000000000000036d23d7e48a9c44dcb5725"
                    },
                    {
                        "current": "0x00000000000000000000000000000000000000000004a8d88229f433bd8c4b5b",
                        "key": "0x8713e6a9040eca617dc2087945a3bec8c24bf806883cc159537921ce485fb60b",
                        "prev": "0x00000000000000000000000000000000000000000004a872c8d2d67c862aa27d"
                    },
                    {
                        "current": "0x0000000000000000000000000000000000000000000000009700ce620ebeef38",
                        "key": "0xf44c41b51c260ce928a84b4189443f662a519092b0ca8b589cafd1f74814bba5",
                        "prev": "0x000000000000000000000000000000000000000000000000000004f60117596f"
                    },
                    {
                        "current": "0x0000000000000000000000000000000000000000000024c9e39dd4017e612f9e",
                        "key": "0x61264f953379aa4c9067383dcfb00cf80d14a634dcd04f5d921e33d09cf5cbf4",
                        "prev": "0x0000000000000000000000000000000000000000000024c81e9b77bd556a6e45"
                    },
                    {
                        "current": "0x0000000000000000000000000000000000000000004dc137446c5851e6e49060",
                        "key": "0x0000000000000000000000000000000000000000000000000000000000000002",
                        "prev": "0x0000000000000000000000000000000000000000004dc0c4c6890e2cede49060"
                    },
                    {
                        "current": "0x00000000000000000000000000000000000000000001c4642a4847d350e24a19",
                        "key": "0x74f5bfe290170bea3ce2b45d722867648b3814d2fe7fbb9f5b06c20f15394da7",
                        "prev": "0x00000000000000000000000000000000000000000001c46190260623ee224a19"
                    },
                    {
                        "current": "0x00000000000000000000000000000000000000000036d24bc7b65e9a8199a33c",
                        "key": "0x3ae99177f67cc5194de4c70807b024cf7d824c024557ccb8795ec9bdd6949c8a",
                        "prev": "0x00000000000000000000000000000000000000000036d242344d3d483062e1e3"
                    },
                    {
                        "current": "0x000000000000000000000000000000000000000000054d2c7ed8d779f2a6d985",
                        "key": "0x7ede4f3e93809e9da7ace1e31819bb83beaefb7c5638737cabade6bc34939b2f",
                        "prev": "0x000000000000000000000000000000000000000000054d24b072126bca66d985"
                    }
                ],
                "storageVariables": [
                    {
                        "name": "_totalLock",
                        "type": "uint256",
                        "value": {
                            "current": "66275002214445301847169150",
                            "prev": "66274825571690804897601317",
                            "typeTag": 1
                        }
                    },
                    {
                        "name": "_totalSupply",
                        "type": "uint256",
                        "value": {
                            "current": "93999724342857142857142368",
                            "prev": "93997612342857142857142368",
                            "typeTag": 1
                        }
                    },
                    {
                        "name": "_balances",
                        "type": "mapping(address => uint256)",
                        "value": {
                            "pairs": [
                                {
                                    "key": "0x4855aecf5e4779156789e81f81591a4ac376e202",
                                    "value": {
                                        "current": "2136357371428571428571673",
                                        "prev": "2136309371428571428571673",
                                        "typeTag": 1
                                    }
                                },
                                {
                                    "key": "0x834c6d50083c9d333c01439b3df53eab72dbdf4d",
                                    "value": {
                                        "current": "10880923620276629304",
                                        "prev": "5454626773359",
                                        "typeTag": 1
                                    }
                                },
                                {
                                    "key": "0xb1f66997a5760428d3a87d68b90bfe0ae64121cc",
                                    "value": {
                                        "current": "66275089117191806146683708",
                                        "prev": "66274912474437309197115875",
                                        "typeTag": 1
                                    }
                                },
                                {
                                    "key": "0xb67d7a6644d9e191cac4da2b88d6817351c7ff62",
                                    "value": {
                                        "current": "5633054723596740394240859",
                                        "prev": "5631178247269402993664637",
                                        "typeTag": 1
                                    }
                                }
                            ],
                            "typeTag": 4
                        }
                    },
                    {
                        "name": "_locks",
                        "type": "mapping(address => uint256)",
                        "value": {
                            "pairs": [
                                {
                                    "key": "0x4855aecf5e4779156789e81f81591a4ac376e202",
                                    "value": {
                                        "current": "6409072114285714285713797",
                                        "prev": "6408928114285714285713797",
                                        "typeTag": 1
                                    }
                                },
                                {
                                    "key": "0x834c6d50083c9d333c01439b3df53eab72dbdf4d",
                                    "value": {
                                        "current": "173729390440643681136542",
                                        "prev": "173696747686146731568709",
                                        "typeTag": 1
                                    }
                                }
                            ],
                            "typeTag": 4
                        }
                    }
                ]
            },
            {
                "address": "0xb67d7a6644d9e191cac4da2b88d6817351c7ff62",
                "erc": "",
                "slots": [
                    {
                        "current": "0x0000000000000000000000000000000000000000000000000000000000a81cc4",
                        "key": "0x6e1540171b6c0c960b71a7020d9f60077f6af931a8bbf590da0223dacf75c7bd",
                        "prev": "0x0000000000000000000000000000000000000000000000000000000000a81cbe"
                    },
                    {
                        "current": "0x0000000000000000000000000000000000000000000000000000000000a81cc4",
                        "key": "0x0e883f18e44f427ecff9d1e5fc081198ff90f01abeb557d4ac5b7a564c6a8d94",
                        "prev": "0x0000000000000000000000000000000000000000000000000000000000a81cbb"
                    },
                    {
                        "current": "0x0000000000000000000000000000000000000000000058a7c2122139a46e1d61",
                        "key": "0x0e883f18e44f427ecff9d1e5fc081198ff90f01abeb557d4ac5b7a564c6a8d93",
                        "prev": "0x0000000000000000000000000000000000000000000058359137d800d366cdc4"
                    },
                    {
                        "current": "0x00000000000000000000000000000000000000000000000000aba0e49515b0a2",
                        "key": "0x0e883f18e44f427ecff9d1e5fc081198ff90f01abeb557d4ac5b7a564c6a8d92",
                        "prev": "0x00000000000000000000000000000000000000000000000000aac865ca2cabe5"
                    },
                    {
                        "current": "0x0000000000000000000000000000000000000000000000007844fdb04fa9d969",
                        "key": "0x6e1540171b6c0c960b71a7020d9f60077f6af931a8bbf590da0223dacf75c7be",
                        "prev": "0x0000000000000000000000000000000000000000000000007842d8a989eb0a07"
                    }
                ],
                "storageVariables": [
                    {
                        "name": "poolInfo",
                        "type": "struct LuaMasterFarmer.PoolInfo[]",
                        "value": {
                            "elemType": "struct LuaMasterFarmer.PoolInfo",
                            "elems": [
                                {
                                    "index": 3,
                                    "value": {
                                        "fields": [
                                            {
                                                "name": "lastRewardBlock",
                                                "type": "uint256",
                                                "value": {
                                                    "current": "11017412",
                                                    "prev": "11017406",
                                                    "typeTag": 1
                                                }
                                            },
                                            {
                                                "name": "accLuaPerShare",
                                                "type": "uint256",
                                                "value": {
                                                    "current": "8666330516660279657",
                                                    "prev": "8665726855689210375",
                                                    "typeTag": 1
                                                }
                                            }
                                        ],
                                        "typeTag": 3
                                    }
                                }
                            ],
                            "typeTag": 2
                        }
                    },
                    {
                        "name": "userInfo",
                        "type": "mapping(uint256 => mapping(address => struct LuaMasterFarmer.UserInfo))",
                        "value": {
                            "pairs": [
                                {
                                    "key": "3",
                                    "value": {
                                        "pairs": [
                                            {
                                                "key": "0x834c6d50083c9d333c01439b3df53eab72dbdf4d",
                                                "value": {
                                                    "fields": [
                                                        {
                                                            "name": "amount",
                                                            "type": "uint256",
                                                            "value": {
                                                                "current": "48309124631736482",
                                                                "prev": "48071085549988837",
                                                                "typeTag": 1
                                                            }
                                                        },
                                                        {
                                                            "name": "rewardDebt",
                                                            "type": "uint256",
                                                            "value": {
                                                                "current": "418662841029162668268897",
                                                                "prev": "416556391998192662007236",
                                                                "typeTag": 1
                                                            }
                                                        },
                                                        {
                                                            "name": "rewardDebtAtBlock",
                                                            "type": "uint256",
                                                            "value": {
                                                                "current": "11017412",
                                                                "prev": "11017403",
                                                                "typeTag": 1
                                                            }
                                                        }
                                                    ],
                                                    "typeTag": 3
                                                }
                                            }
                                        ],
                                        "typeTag": 4
                                    }
                                }
                            ],
                            "typeTag": 4
                        }
                    }
                ]
            }
        ]
    }
}