{
    "balance_change": {
        "balanceChanges": []
    },
    "profile": {
        "basic_info": {
            "baseFee": "",
            "blockNumber": 7369286,
            "callData": "0x9f7447450000000000000000000000006b1650b0b141f7f8a8fb9e73a60efc84d33549d300000000000000000000000040b469b080c4b034091448d0e59880d823b2fc1800000000000000000000000040b469b080c4b034091448d0e59880d823b2fc1800000000000000000000000000000000000000000000000000000000000000000000000000000000000000000000000000000000000000000000000000000120c306017cba3571294ea437b99e394be45f11bedd81dba49c8ebcca57745d781cf39bb2c7383b8a64e954760908fcaa0a07b542f89f149ee42d8bee21825505f300000000000000000000000000000000000000000000000000000000000001a0000000000000000000000000000000000000000000000000000000000000022000000000000000000000000000000000000000000000000000000000000000412751c0d0fc56eea7ec3530034f017fe4e2adb9db19441f0ba773a587a2eb65a825722cda9758dc4432a6b71e6563f6d3284166f0d28c6862f062686859df3f1d1c00000000000000000000000000000000000000000000000000000000000000000000000000000000000000000000000000000000000000000000000000004190312a2484052732c9b131e076514ae4956ede295c33e4df0bc5ac5162448a3c5a95672a8e88269e846d5100218792a6296b45a3b9ad2264262ea65769ee033d1b000000000000000000000000000000000000000000000000000000000000000000000000000000000000000000000000000000000000000000000000000041e9a010f36cf5a98fa1c69e2ba908a4ec2c87bb24fbf2319cf9951181a8cf7a8945c34b9262e51ee60c3faaac21fa5f50777eaf109a35252e45d51b81ffd1ddab1c00000000000000000000000000000000000000000000000000000000000000",
            "debugEnable": true,
            "errorInfo": "",
            "eventCount": 1,
            "feeRecipient": "0x9d6d492bd500da5b33cf95a5d610a73360fcaaa0",
            "formatValue": "0",
            "gasLimit": 500000,
            "gasPrice": "2",
            "gasUsed": 109229,
            "intTxnCount": 4,
            "internalRevert": false,
            "internalRevertMessage": "",
            "isContractCreation": false,
            "isFlashloan": false,
            "maxFee": "",
            "nonce": 102969,
            "overwritedBlockNumber": -1,
            "priorityFee": "",
            "receiver": "0xceec7aaa57e3a77c73a9954b9b7d5b32ab688318",
            "revertMessage": "",
            "sender": "0xa83996cace93b2af6c54222a51da5dbda8526172",
            "simulationEnable": true,
            "sourceTxnHash": "0x6631936ab75ff02b8b07bbbde2eb1ffee13a90c7f1dbc5381c7bef2858fd1bf2",
            "status": true,
            "timestamp": "2019-03-14T20:36:48Z",
            "transactionFee": "0.000218458",
            "txnHash": "0x6631936ab75ff02b8b07bbbde2eb1ffee13a90c7f1dbc5381c7bef2858fd1bf2",
            "txnIndex": 1,
            "type": 0,
            "value": "0"
        },
        "fund_flow": [],
        "token_infos": [
            {
                "address": "0xc02aaa39b223fe8d0a0e5c4f27ead9083c756cc2",
                "decimals": 18
            },
            {
                "address": "0xeeeeeeeeeeeeeeeeeeeeeeeeeeeeeeeeeeeeeeee",
                "decimals": 18
            }
        ]
    },
    "address_label": {
        "labels": [
            {
                "address": "0x0000000000000000000000000000000000000004",
                "label": "Precompiled"
            },
            {
                "address": "0xeeeeeeeeeeeeeeeeeeeeeeeeeeeeeeeeeeeeeeee",
                "label": "Ether"
            },
            {
                "address": "0xceec7aaa57e3a77c73a9954b9b7d5b32ab688318",
                "label": "Bloom: Attestation Logic"
            },
            {
                "address": "0x0000000000000000000000000000000000000001",
                "label": "Precompiled"
            },
            {
                "address": "0x0000000000000000000000000000000000000002",
                "label": "Precompiled"
            },
            {
                "address": "0x0000000000000000000000000000000000000003",
                "label": "Precompiled"
            }
        ]
    },
    "trace": {
        "accountLabels": null,
        "dataMap": {
            "-1": {
                "invocation": {
                    "address": "0xa83996cace93b2af6c54222a51da5dbda8526172",
                    "callData": "",
                    "decodedMethod": null,
                    "errorInfo": "",
                    "fromAddress": "",
                    "gasUsed": 0,
                    "id": -1,
                    "methodDecoded": false,
                    "operation": "",
                    "output": "",
                    "revert": false,
                    "revertMessage": "",
                    "selector": "",
                    "status": false,
                    "value": ""
                },
                "nodeType": 0
            },
            "0": {
                "invocation": {
                    "address": "0xceec7aaa57e3a77c73a9954b9b7d5b32ab688318",
                    "callData": "0x0000000000000000000000006b1650b0b141f7f8a8fb9e73a60efc84d33549d300000000000000000000000040b469b080c4b034091448d0e59880d823b2fc1800000000000000000000000040b469b080c4b034091448d0e59880d823b2fc1800000000000000000000000000000000000000000000000000000000000000000000000000000000000000000000000000000000000000000000000000000120c306017cba3571294ea437b99e394be45f11bedd81dba49c8ebcca57745d781cf39bb2c7383b8a64e954760908fcaa0a07b542f89f149ee42d8bee21825505f300000000000000000000000000000000000000000000000000000000000001a0000000000000000000000000000000000000000000000000000000000000022000000000000000000000000000000000000000000000000000000000000000412751c0d0fc56eea7ec3530034f017fe4e2adb9db19441f0ba773a587a2eb65a825722cda9758dc4432a6b71e6563f6d3284166f0d28c6862f062686859df3f1d1c00000000000000000000000000000000000000000000000000000000000000000000000000000000000000000000000000000000000000000000000000004190312a2484052732c9b131e076514ae4956ede295c33e4df0bc5ac5162448a3c5a95672a8e88269e846d5100218792a6296b45a3b9ad2264262ea65769ee033d1b000000000000000000000000000000000000000000000000000000000000000000000000000000000000000000000000000000000000000000000000000041e9a010f36cf5a98fa1c69e2ba908a4ec2c87bb24fbf2319cf9951181a8cf7a8945c34b9262e51ee60c3faaac21fa5f50777eaf109a35252e45d51b81ffd1ddab1c00000000000000000000000000000000000000000000000000000000000000",
                    "decodedMethod": {
                        "callParams": [
                            {
                                "name": "_subject",
                                "type": "address",
                                "value": "0x6b1650b0b141f7f8a8fb9e73a60efc84d33549d3"
                            },
                            {
                                "name": "_attester",
                                "type": "address",
                                "value": "0x40b469b080c4b034091448d0e59880d823b2fc18"
                            },
                            {
                                "name": "_requester",
                                "type": "address",
                                "value": "0x40b469b080c4b034091448d0e59880d823b2fc18"
                            },
                            {
                                "name": "_reward",
                                "type": "uint256",
                                "value": "0"
                            },
                            {
                                "name": "_requesterSig",
                                "type": "bytes",
                                "value": "0x2751c0d0fc56eea7ec3530034f017fe4e2adb9db19441f0ba773a587a2eb65a825722cda9758dc4432a6b71e6563f6d3284166f0d28c6862f062686859df3f1d1c"
                            },
                            {
                                "name": "_dataHash",
                                "type": "bytes32",
                                "value": "0xc306017cba3571294ea437b99e394be45f11bedd81dba49c8ebcca57745d781c"
                            },
                            {
                                "name": "_requestNonce",
                                "type": "bytes32",
                                "value": "0xf39bb2c7383b8a64e954760908fcaa0a07b542f89f149ee42d8bee21825505f3"
                            },
                            {
                                "name": "_subjectSig",
                                "type": "bytes",
                                "value": "0x90312a2484052732c9b131e076514ae4956ede295c33e4df0bc5ac5162448a3c5a95672a8e88269e846d5100218792a6296b45a3b9ad2264262ea65769ee033d1b"
                            },
                            {
                                "name": "_delegationSig",
                                "type": "bytes",
                                "value": "0xe9a010f36cf5a98fa1c69e2ba908a4ec2c87bb24fbf2319cf9951181a8cf7a8945c34b9262e51ee60c3faaac21fa5f50777eaf109a35252e45d51b81ffd1ddab1c"
                            }
                        ],
                        "constructorArguments": "",
                        "name": "attestFor",
                        "returnParams": [],
                        "signature": "attestFor(address,address,address,uint256,bytes,bytes32,bytes32,bytes,bytes)"
                    },
                    "errorInfo": "",
                    "fromAddress": "0xa83996cace93b2af6c54222a51da5dbda8526172",
                    "gasUsed": 109229,
                    "id": 0,
                    "methodDecoded": true,
                    "operation": "CALL",
                    "output": "",
                    "revert": false,
                    "revertMessage": "",
                    "selector": "0x9f744745",
                    "status": true,
                    "value": "0"
                },
                "nodeType": 0
            },
            "1": {
                "invocation": {
                    "address": "0x7a75cb349d9a9d4c2d3eb8a22cb3090222d8557b",
                    "callData": "0x368ae950d989577be190667fbc4abad0c2dadecd90d001b97ff8575719ba30be00000000000000000000000000000000000000000000000000000000000000400000000000000000000000000000000000000000000000000000000000000041e9a010f36cf5a98fa1c69e2ba908a4ec2c87bb24fbf2319cf9951181a8cf7a8945c34b9262e51ee60c3faaac21fa5f50777eaf109a35252e45d51b81ffd1ddab1c00000000000000000000000000000000000000000000000000000000000000",
                    "decodedMethod": {
                        "callParams": [
                            {
                                "name": "hash",
                                "type": "bytes32",
                                "value": "0x368ae950d989577be190667fbc4abad0c2dadecd90d001b97ff8575719ba30be"
                            },
                            {
                                "name": "signature",
                                "type": "bytes",
                                "value": "0xe9a010f36cf5a98fa1c69e2ba908a4ec2c87bb24fbf2319cf9951181a8cf7a8945c34b9262e51ee60c3faaac21fa5f50777eaf109a35252e45d51b81ffd1ddab1c"
                            }
                        ],
                        "constructorArguments": "",
                        "name": "recover",
                        "returnParams": [
                            {
                                "name": "",
                                "type": "address",
                                "value": "0x40b469b080c4b034091448d0e59880d823b2fc18"
                            }
                        ],
                        "signature": "recover(bytes32,bytes)"
                    },
                    "errorInfo": "",
                    "fromAddress": "0xceec7aaa57e3a77c73a9954b9b7d5b32ab688318",
                    "gasUsed": 4671,
                    "id": 1,
                    "methodDecoded": true,
                    "operation": "DELEGATECALL",
                    "output": "0x00000000000000000000000040b469b080c4b034091448d0e59880d823b2fc18",
                    "revert": false,
                    "revertMessage": "",
                    "selector": "0x19045a25",
                    "status": true,
                    "value": "0"
                },
                "nodeType": 0
            },
            "2": {
                "invocation": {
                    "address": "0x0000000000000000000000000000000000000001",
                    "callData": "0xd989577be190667fbc4abad0c2dadecd90d001b97ff8575719ba30be000000000000000000000000000000000000000000000000000000000000001ce9a010f36cf5a98fa1c69e2ba908a4ec2c87bb24fbf2319cf9951181a8cf7a8945c34b9262e51ee60c3faaac21fa5f50777eaf109a35252e45d51b81ffd1ddab",
                    "decodedMethod": {
                        "callParams": [
                            {
                                "name": "hash",
                                "type": "bytes32",
                                "value": "0x368ae950d989577be190667fbc4abad0c2dadecd90d001b97ff8575719ba30be"
                            },
                            {
                                "name": "v",
                                "type": "uint256",
                                "value": "28"
                            },
                            {
                                "name": "r",
                                "type": "bytes32",
                                "value": "0xe9a010f36cf5a98fa1c69e2ba908a4ec2c87bb24fbf2319cf9951181a8cf7a89"
                            },
                            {
                                "name": "s",
                                "type": "bytes32",
                                "value": "0x45c34b9262e51ee60c3faaac21fa5f50777eaf109a35252e45d51b81ffd1ddab"
                            }
                        ],
                        "constructorArguments": "",
                        "name": "ecrecover",
                        "returnParams": [
                            {
                                "name": "",
                                "type": "address",
                                "value": "0x40b469b080c4b034091448d0e59880d823b2fc18"
                            }
                        ],
                        "signature": "ecrecover(bytes32,uint256,bytes32,bytes32)"
                    },
                    "errorInfo": "",
                    "fromAddress": "0xceec7aaa57e3a77c73a9954b9b7d5b32ab688318",
                    "gasUsed": 3000,
                    "id": 2,
                    "methodDecoded": true,
                    "operation": "CALL",
                    "output": "0x00000000000000000000000040b469b080c4b034091448d0e59880d823b2fc18",
                    "revert": false,
                    "revertMessage": "",
                    "selector": "0x368ae950",
                    "status": true,
                    "value": "0"
                },
                "nodeType": 0
            },
            "3": {
                "invocation": {
                    "address": "0x7a75cb349d9a9d4c2d3eb8a22cb3090222d8557b",
                    "callData": "0x275d80f6ed7e1a891c8da17cc8ad9bd5b262f4db52449a5f5ced2f37928c8d480000000000000000000000000000000000000000000000000000000000000040000000000000000000000000000000000000000000000000000000000000004190312a2484052732c9b131e076514ae4956ede295c33e4df0bc5ac5162448a3c5a95672a8e88269e846d5100218792a6296b45a3b9ad2264262ea65769ee033d1b00000000000000000000000000000000000000000000000000000000000000",
                    "decodedMethod": {
                        "callParams": [
                            {
                                "name": "hash",
                                "type": "bytes32",
                                "value": "0x275d80f6ed7e1a891c8da17cc8ad9bd5b262f4db52449a5f5ced2f37928c8d48"
                            },
                            {
                                "name": "signature",
                                "type": "bytes",
                                "value": "0x90312a2484052732c9b131e076514ae4956ede295c33e4df0bc5ac5162448a3c5a95672a8e88269e846d5100218792a6296b45a3b9ad2264262ea65769ee033d1b"
                            }
                        ],
                        "constructorArguments": "",
                        "name": "recover",
                        "returnParams": [
                            {
                                "name": "",
                                "type": "address",
                                "value": "0x6b1650b0b141f7f8a8fb9e73a60efc84d33549d3"
                            }
                        ],
                        "signature": "recover(bytes32,bytes)"
                    },
                    "errorInfo": "",
                    "fromAddress": "0xceec7aaa57e3a77c73a9954b9b7d5b32ab688318",
                    "gasUsed": 4651,
                    "id": 3,
                    "methodDecoded": true,
                    "operation": "DELEGATECALL",
                    "output": "0x0000000000000000000000006b1650b0b141f7f8a8fb9e73a60efc84d33549d3",
                    "revert": false,
                    "revertMessage": "",
                    "selector": "0x19045a25",
                    "status": true,
                    "value": "0"
                },
                "nodeType": 0
            },
            "4": {
                "invocation": {
                    "address": "0x0000000000000000000000000000000000000001",
                    "callData": "0xed7e1a891c8da17cc8ad9bd5b262f4db52449a5f5ced2f37928c8d48000000000000000000000000000000000000000000000000000000000000001b90312a2484052732c9b131e076514ae4956ede295c33e4df0bc5ac5162448a3c5a95672a8e88269e846d5100218792a6296b45a3b9ad2264262ea65769ee033d",
                    "decodedMethod": {
                        "callParams": [
                            {
                                "name": "hash",
                                "type": "bytes32",
                                "value": "0x275d80f6ed7e1a891c8da17cc8ad9bd5b262f4db52449a5f5ced2f37928c8d48"
                            },
                            {
                                "name": "v",
                                "type": "uint256",
                                "value": "27"
                            },
                            {
                                "name": "r",
                                "type": "bytes32",
                                "value": "0x90312a2484052732c9b131e076514ae4956ede295c33e4df0bc5ac5162448a3c"
                            },
                            {
                                "name": "s",
                                "type": "bytes32",
                                "value": "0x5a95672a8e88269e846d5100218792a6296b45a3b9ad2264262ea65769ee033d"
                            }
                        ],
                        "constructorArguments": "",
                        "name": "ecrecover",
                        "returnParams": [
                            {
                                "name": "",
                                "type": "address",
                                "value": "0x6b1650b0b141f7f8a8fb9e73a60efc84d33549d3"
                            }
                        ],
                        "signature": "ecrecover(bytes32,uint256,bytes32,bytes32)"
                    },
                    "errorInfo": "",
                    "fromAddress": "0xceec7aaa57e3a77c73a9954b9b7d5b32ab688318",
                    "gasUsed": 3000,
                    "id": 4,
                    "methodDecoded": true,
                    "operation": "CALL",
                    "output": "0x0000000000000000000000006b1650b0b141f7f8a8fb9e73a60efc84d33549d3",
                    "revert": false,
                    "revertMessage": "",
                    "selector": "0x275d80f6",
                    "status": true,
                    "value": "0"
                },
                "nodeType": 0
            },
            "5": {
                "event": {
                    "contract": "0xceec7aaa57e3a77c73a9954b9b7d5b32ab688318",
                    "decodedLog": {
                        "name": "TraitAttested",
                        "params": [
                            {
                                "name": "subject",
                                "type": "address",
                                "value": "0x6b1650b0b141f7f8a8fb9e73a60efc84d33549d3"
                            },
                            {
                                "name": "attester",
                                "type": "address",
                                "value": "0x40b469b080c4b034091448d0e59880d823b2fc18"
                            },
                            {
                                "name": "requester",
                                "type": "address",
                                "value": "0x40b469b080c4b034091448d0e59880d823b2fc18"
                            },
                            {
                                "name": "dataHash",
                                "type": "bytes32",
                                "value": "0xc306017cba3571294ea437b99e394be45f11bedd81dba49c8ebcca57745d781c"
                            }
                        ],
                        "signature": "TraitAttested(address,address,address,bytes32)"
                    },
                    "id": 5,
                    "logData": "0x0000000000000000000000006b1650b0b141f7f8a8fb9e73a60efc84d33549d300000000000000000000000040b469b080c4b034091448d0e59880d823b2fc1800000000000000000000000040b469b080c4b034091448d0e59880d823b2fc18c306017cba3571294ea437b99e394be45f11bedd81dba49c8ebcca57745d781c",
                    "logDecoded": true,
                    "operation": "EVENT",
                    "revert": false,
                    "status": true,
                    "topics": [
                        "0x53931139c48182587fa8ce0ac76dd9cd86655899a636bffdce8138a0cdb2c1b5"
                    ]
                },
                "nodeType": 1
            }
        },
        "gasFlame": [
            {
                "children": [
                    {
                        "children": [
                            {
                                "children": [],
                                "depth": 0,
                                "name": "Initial Gas",
                                "value": 44888
                            },
                            {
                                "children": [
                                    {
                                        "children": [
                                            {
                                                "children": [],
                                                "depth": 2,
                                                "name": "ecrecover",
                                                "value": 3000
                                            }
                                        ],
                                        "depth": 1,
                                        "name": "recover",
                                        "value": 4671
                                    },
                                    {
                                        "children": [
                                            {
                                                "children": [],
                                                "depth": 2,
                                                "name": "ecrecover",
                                                "value": 3000
                                            }
                                        ],
                                        "depth": 1,
                                        "name": "recover",
                                        "value": 4651
                                    }
                                ],
                                "depth": 0,
                                "name": "Executed Gas",
                                "value": 64341
                            }
                        ],
                        "depth": -1,
                        "name": "Actual Gas Used",
                        "value": 109229
                    },
                    {
                        "children": [],
                        "depth": -1,
                        "name": "Refunded Gas",
                        "value": 0
                    }
                ],
                "depth": -2,
                "name": "Total Gas",
                "value": 109229
            }
        ],
        "isConfirmed": true,
        "mainTrace": [
            {
                "children": [
                    {
                        "children": [
                            {
                                "children": [
                                    {
                                        "children": [],
                                        "depth": 2,
                                        "id": 2,
                                        "order": 2
                                    }
                                ],
                                "depth": 1,
                                "id": 1,
                                "order": 1
                            },
                            {
                                "children": [
                                    {
                                        "children": [],
                                        "depth": 2,
                                        "id": 4,
                                        "order": 4
                                    }
                                ],
                                "depth": 1,
                                "id": 3,
                                "order": 3
                            },
                            {
                                "children": [],
                                "depth": 1,
                                "id": 5,
                                "order": 5
                            }
                        ],
                        "depth": 0,
                        "id": 0,
                        "order": 0
                    }
                ],
                "depth": -1,
                "id": -1,
                "order": -1
            }
        ],
        "mainTraceNodeCount": 6,
        "parentIdMap": {
            "0": -1,
            "1": 0,
            "2": 1,
            "3": 0,
            "4": 3,
            "5": 0
        },
        "tidyTrace": [
            {
                "children": [
                    {
                        "children": [
                            {
                                "children": [
                                    {
                                        "children": [],
                                        "depth": 2,
                                        "id": 2,
                                        "order": 2
                                    }
                                ],
                                "depth": 1,
                                "id": 1,
                                "order": 1
                            },
                            {
                                "children": [
                                    {
                                        "children": [],
                                        "depth": 2,
                                        "id": 4,
                                        "order": 4
                                    }
                                ],
                                "depth": 1,
                                "id": 3,
                                "order": 3
                            },
                            {
                                "children": [],
                                "depth": 1,
                                "id": 5,
                                "order": 5
                            }
                        ],
                        "depth": 0,
                        "id": 0,
                        "order": 0
                    }
                ],
                "depth": -1,
                "id": -1,
                "order": -1
            }
        ],
        "tidyTraceNodeCount": 6
    },
    "state_change": {
        "stateChanges": [
            {
                "address": "0xceec7aaa57e3a77c73a9954b9b7d5b32ab688318",
                "erc": "",
                "slots": [
                    {
                        "current": "0x0000000000000000000000000000000000000000000000000000000000000001",
                        "key": "0xd23cd2f30cb34355663ccf3f124937c2c8963e471fd4ae2ebe490d49ab2452a4",
                        "prev": "0x0000000000000000000000000000000000000000000000000000000000000000"
                    },
                    {
                        "current": "0x0000000000000000000000000000000000000000000000000000000000000001",
                        "key": "0x05c7c801d5804b035ca6436b048756838445e49aba6b3c72a2bc80fbf8370f1a",
                        "prev": "0x0000000000000000000000000000000000000000000000000000000000000000"
                    }
                ],
                "storageVariables": [
                    {
                        "name": "usedSignatures",
                        "type": "mapping(bytes32 => bool)",
                        "value": {
                            "pairs": [
                                {
                                    "key": "0x3bcded3397780cbb4be2f9c344844721bd4102bda914fa42f11585ad0a56d313",
                                    "value": {
                                        "current": "true",
                                        "prev": "false",
                                        "typeTag": 1
                                    }
                                },
                                {
                                    "key": "0x71f9b049a715a8a49030ac9aaccbfc24495c2392b163619b094142d1fcb0135f",
                                    "value": {
                                        "current": "true",
                                        "prev": "false",
                                        "typeTag": 1
                                    }
                                }
                            ],
                            "typeTag": 4
                        }
                    }
                ]
            }
        ]
    }
}