{
    "balance_change": {
        "balanceChanges": [
            {
                "account": "0xa1faf8b810839edd3e1bda3f02dada7b7fbcf7a0",
                "assets": [
                    {
                        "address": "0x0000000000004946c0e9f43f4dee607b0ef1fa1c",
                        "amount": "3",
                        "iconUrl": "https://assets.blocksec.com/icon/7dae71f87d4f3e4764f4c12474a5c7c8f4d0ca30c0645a61e6dc68e8de5b2087.png",
                        "isERC1155": false,
                        "isERC721": false,
                        "sign": false,
                        "value": "4.42210399"
                    },
                    {
                        "address": "0x0b38210ea11411557c13457d4da7dc6ea731b88a",
                        "amount": "2,845.4573",
                        "iconUrl": "",
                        "isERC1155": false,
                        "isERC721": false,
                        "sign": false,
                        "value": "8173.192867"
                    },
                    {
                        "address": "0xc02aaa39b223fe8d0a0e5c4f27ead9083c756cc2",
                        "amount": "6.654746816769278311",
                        "iconUrl": "https://assets.blocksec.com/icon/f1cb2d02c471d545bbc7722daf3277fd852d98e63d118771af7047bd8256c516.png",
                        "isERC1155": false,
                        "isERC721": false,
                        "sign": true,
                        "value": "8173.192867"
                    }
                ]
            },
            {
                "account": "0x0000000000000000000000000000000000000000",
                "assets": [
                    {
                        "address": "0x0000000000004946c0e9f43f4dee607b0ef1fa1c",
                        "amount": "3",
                        "iconUrl": "https://assets.blocksec.com/icon/7dae71f87d4f3e4764f4c12474a5c7c8f4d0ca30c0645a61e6dc68e8de5b2087.png",
                        "isERC1155": false,
                        "isERC721": false,
                        "sign": true,
                        "value": "4.42210399"
                    }
                ]
            },
            {
                "account": "0x4dd26482738be6c06c31467a19dcda9ad781e8c4",
                "assets": [
                    {
                        "address": "0x0b38210ea11411557c13457d4da7dc6ea731b88a",
                        "amount": "2,845.4573",
                        "iconUrl": "",
                        "isERC1155": false,
                        "isERC721": false,
                        "sign": true,
                        "value": "8173.192867"
                    },
                    {
                        "address": "0xc02aaa39b223fe8d0a0e5c4f27ead9083c756cc2",
                        "amount": "6.654746816769278311",
                        "iconUrl": "https://assets.blocksec.com/icon/f1cb2d02c471d545bbc7722daf3277fd852d98e63d118771af7047bd8256c516.png",
                        "isERC1155": false,
                        "isERC721": false,
                        "sign": false,
                        "value": "8173.192867"
                    }
                ]
            }
        ]
    },
    "profile": {
        "basic_info": {
            "baseFee": "",
            "blockNumber": 11669150,
            "callData": "0xa64f797600000000000000000000000000000000000000000000010e21c9e19af7ddffad0000000000000000000000000000000000000000000000009f8908df4ac50de40000000000000000000000000b38210ea11411557c13457d4da7dc6ea731b88a0000000000000000000000004dd26482738be6c06c31467a19dcda9ad781e8c40000000000000000000000000000000000000000000001ef8f7a485bc245509d",
            "debugEnable": true,
            "errorInfo": "",
            "eventCount": 5,
            "feeRecipient": "0x52bc44d5378309ee2abf1539bf71de1b7d7be3b5",
            "formatValue": "0",
            "gasLimit": 350000,
            "gasPrice": "534.361489839",
            "gasUsed": 90995,
            "intTxnCount": 13,
            "internalRevert": false,
            "internalRevertMessage": "",
            "isContractCreation": false,
            "isFlashloan": false,
            "maxFee": "",
            "nonce": 9199,
            "overwritedBlockNumber": -1,
            "priorityFee": "",
            "receiver": "0xa1faf8b810839edd3e1bda3f02dada7b7fbcf7a0",
            "revertMessage": "",
            "sender": "0x49bbeadb97230de446caf54315f310146b694622",
            "simulationEnable": true,
            "sourceTxnHash": "0x6638bf819befb2894e90a5c01341387797dad3d4286648a7b3e0dd63d9bd84bc",
            "status": true,
            "timestamp": "2021-01-16T23:12:01Z",
            "transactionFee": "0.048624223767899805",
            "txnHash": "0x6638bf819befb2894e90a5c01341387797dad3d4286648a7b3e0dd63d9bd84bc",
            "txnIndex": 3,
            "type": 0,
            "value": "0"
        },
        "fund_flow": [
            {
                "amount": "2,845.4573",
                "from": "0xa1faf8b810839edd3e1bda3f02dada7b7fbcf7a0",
                "id": 1,
                "isERC1155": false,
                "isERC721": false,
                "isReverted": false,
                "order": 1,
                "to": "0x4dd26482738be6c06c31467a19dcda9ad781e8c4",
                "token": "0x0b38210ea11411557c13457d4da7dc6ea731b88a"
            },
            {
                "amount": "6.654746816769278311",
                "from": "0x4dd26482738be6c06c31467a19dcda9ad781e8c4",
                "id": 2,
                "isERC1155": false,
                "isERC721": false,
                "isReverted": false,
                "order": 2,
                "to": "0xa1faf8b810839edd3e1bda3f02dada7b7fbcf7a0",
                "token": "0xc02aaa39b223fe8d0a0e5c4f27ead9083c756cc2"
            },
            {
                "amount": "3",
                "from": "0xa1faf8b810839edd3e1bda3f02dada7b7fbcf7a0",
                "id": 3,
                "isERC1155": false,
                "isERC721": false,
                "isReverted": false,
                "order": 3,
                "to": "0x0000000000000000000000000000000000000000",
                "token": "0x0000000000004946c0e9f43f4dee607b0ef1fa1c"
            }
        ],
        "token_infos": [
            {
                "address": "0x0b38210ea11411557c13457d4da7dc6ea731b88a",
                "decimals": 18
            },
            {
                "address": "0xc02aaa39b223fe8d0a0e5c4f27ead9083c756cc2",
                "decimals": 18
            },
            {
                "address": "0xeeeeeeeeeeeeeeeeeeeeeeeeeeeeeeeeeeeeeeee",
                "decimals": 18
            },
            {
                "address": "0x0000000000004946c0e9f43f4dee607b0ef1fa1c",
                "decimals": 0
            }
        ]
    },
    "address_label": {
        "labels": [
            {
                "address": "0xeeeeeeeeeeeeeeeeeeeeeeeeeeeeeeeeeeeeeeee",
                "label": "Ether"
            },
            {
                "address": "0x0b38210ea11411557c13457d4da7dc6ea731b88a",
                "label": "API3: API3 Token"
            },
            {
                "address": "0x0000000000004946c0e9f43f4dee607b0ef1fa1c",
                "label": "1inch: CHI Token"
            },
            {
                "address": "0x4dd26482738be6c06c31467a19dcda9ad781e8c4",
                "label": "Uniswap V2: API3 7"
            },
            {
                "address": "0x0000000000000000000000000000000000000003",
                "label": "Precompiled"
            },
            {
                "address": "0xc02aaa39b223fe8d0a0e5c4f27ead9083c756cc2",
                "label": "Wrapped Ether (WETH)"
            },
            {
                "address": "0x0000000000000000000000000000000000000001",
                "label": "Precompiled"
            },
            {
                "address": "0x0000000000000000000000000000000000000002",
                "label": "Precompiled"
            },
            {
                "address": "0x0000000000000000000000000000000000000004",
                "label": "Precompiled"
            }
        ]
    },
    "trace": {
        "accountLabels": null,
        "dataMap": {
            "-1": {
                "invocation": {
                    "address": "0x49bbeadb97230de446caf54315f310146b694622",
                    "callData": "",
                    "decodedMethod": null,
                    "errorInfo": "",
                    "fromAddress": "",
                    "gasUsed": 0,
                    "id": -1,
                    "methodDecoded": false,
                    "operation": "",
                    "output": "",
                    "revert": false,
                    "revertMessage": "",
                    "selector": "",
                    "status": false,
                    "value": ""
                },
                "nodeType": 0
            },
            "0": {
                "invocation": {
                    "address": "0xa1faf8b810839edd3e1bda3f02dada7b7fbcf7a0",
                    "callData": "0x00000000000000000000000000000000000000000000010e21c9e19af7ddffad0000000000000000000000000000000000000000000000009f8908df4ac50de40000000000000000000000000b38210ea11411557c13457d4da7dc6ea731b88a0000000000000000000000004dd26482738be6c06c31467a19dcda9ad781e8c40000000000000000000000000000000000000000000001ef8f7a485bc245509d",
                    "decodedMethod": null,
                    "errorInfo": "",
                    "fromAddress": "0x49bbeadb97230de446caf54315f310146b694622",
                    "gasUsed": 90995,
                    "id": 0,
                    "methodDecoded": false,
                    "operation": "CALL",
                    "output": "",
                    "revert": false,
                    "revertMessage": "",
                    "selector": "0xa64f7976",
                    "status": true,
                    "value": "0"
                },
                "nodeType": 0
            },
            "1": {
                "invocation": {
                    "address": "0x4dd26482738be6c06c31467a19dcda9ad781e8c4",
                    "callData": "0x",
                    "decodedMethod": {
                        "callParams": [],
                        "constructorArguments": "",
                        "name": "getReserves",
                        "returnParams": [
                            {
                                "name": "_reserve0",
                                "type": "uint112",
                                "value": "568,387,309,866,095,045,888,634"
                            },
                            {
                                "name": "_reserve1",
                                "type": "uint112",
                                "value": "1,339,957,202,855,515,514,838"
                            },
                            {
                                "name": "_blockTimestampLast",
                                "type": "uint32",
                                "value": "1,610,838,711"
                            }
                        ],
                        "signature": "getReserves()"
                    },
                    "errorInfo": "",
                    "fromAddress": "0xa1faf8b810839edd3e1bda3f02dada7b7fbcf7a0",
                    "gasUsed": 1204,
                    "id": 1,
                    "methodDecoded": true,
                    "operation": "STATICCALL",
                    "output": "0x00000000000000000000000000000000000000000000785c567a9e2e5a51ca7a000000000000000000000000000000000000000000000048a3a448997d09e7d600000000000000000000000000000000000000000000000000000000600372b7",
                    "revert": false,
                    "revertMessage": "",
                    "selector": "0x0902f1ac",
                    "status": true,
                    "value": "0"
                },
                "nodeType": 0
            },
            "10": {
                "event": {
                    "contract": "0x4dd26482738be6c06c31467a19dcda9ad781e8c4",
                    "decodedLog": {
                        "name": "Swap",
                        "params": [
                            {
                                "name": "sender",
                                "type": "address",
                                "value": "0xa1faf8b810839edd3e1bda3f02dada7b7fbcf7a0"
                            },
                            {
                                "name": "to",
                                "type": "address",
                                "value": "0xa1faf8b810839edd3e1bda3f02dada7b7fbcf7a0"
                            },
                            {
                                "name": "amount0In",
                                "type": "uint256",
                                "value": "2,845,457,300,000,000,000,000"
                            },
                            {
                                "name": "amount1In",
                                "type": "uint256",
                                "value": "0"
                            },
                            {
                                "name": "amount0Out",
                                "type": "uint256",
                                "value": "0"
                            },
                            {
                                "name": "amount1Out",
                                "type": "uint256",
                                "value": "6,654,746,816,769,278,311"
                            }
                        ],
                        "signature": "Swap(address,uint256,uint256,uint256,uint256,address)"
                    },
                    "id": 10,
                    "logData": "0x00000000000000000000000000000000000000000000009a40a712789a1d4000000000000000000000000000000000000000000000000000000000000000000000000000000000000000000000000000000000000000000000000000000000000000000000000000000000000000000000000000000000005c5a68f8b3b1c167",
                    "logDecoded": true,
                    "operation": "EVENT",
                    "revert": false,
                    "status": true,
                    "topics": [
                        "0xd78ad95fa46c994b6551d0da85fc275fe613ce37657fb8d5e3d130840159d822",
                        "0x000000000000000000000000a1faf8b810839edd3e1bda3f02dada7b7fbcf7a0",
                        "0x000000000000000000000000a1faf8b810839edd3e1bda3f02dada7b7fbcf7a0"
                    ]
                },
                "nodeType": 1
            },
            "11": {
                "invocation": {
                    "address": "0x0000000000004946c0e9f43f4dee607b0ef1fa1c",
                    "callData": "0x0000000000000000000000000000000000000000000000000000000000000003",
                    "decodedMethod": {
                        "callParams": [
                            {
                                "name": "value",
                                "type": "uint256",
                                "value": "3"
                            }
                        ],
                        "constructorArguments": "",
                        "name": "freeUpTo",
                        "returnParams": [
                            {
                                "name": "",
                                "type": "uint256",
                                "value": "3"
                            }
                        ],
                        "signature": "freeUpTo(uint256)"
                    },
                    "errorInfo": "",
                    "fromAddress": "0xa1faf8b810839edd3e1bda3f02dada7b7fbcf7a0",
                    "gasUsed": 33661,
                    "id": 11,
                    "methodDecoded": true,
                    "operation": "CALL",
                    "output": "0x0000000000000000000000000000000000000000000000000000000000000003",
                    "revert": false,
                    "revertMessage": "",
                    "selector": "0x6366b936",
                    "status": true,
                    "value": "0"
                },
                "nodeType": 0
            },
            "12": {
                "event": {
                    "contract": "0x0000000000004946c0e9f43f4dee607b0ef1fa1c",
                    "decodedLog": {
                        "name": "Transfer",
                        "params": [
                            {
                                "name": "from",
                                "type": "address",
                                "value": "0xa1faf8b810839edd3e1bda3f02dada7b7fbcf7a0"
                            },
                            {
                                "name": "to",
                                "type": "address",
                                "value": "0x0000000000000000000000000000000000000000"
                            },
                            {
                                "decimalAvailable": true,
                                "name": "value",
                                "type": "uint256",
                                "value": "3"
                            }
                        ],
                        "signature": "Transfer(address,address,uint256)"
                    },
                    "id": 12,
                    "logData": "0x0000000000000000000000000000000000000000000000000000000000000003",
                    "logDecoded": true,
                    "operation": "EVENT",
                    "revert": false,
                    "status": true,
                    "topics": [
                        "0xddf252ad1be2c89b69c2b068fc378daa952ba7f163c4a11628f55a4df523b3ef",
                        "0x000000000000000000000000a1faf8b810839edd3e1bda3f02dada7b7fbcf7a0",
                        "0x0000000000000000000000000000000000000000000000000000000000000000"
                    ]
                },
                "nodeType": 1
            },
            "13": {
                "invocation": {
                    "address": "0x0af442f1a714f1e9393f179d3d6129ceb26c1f51",
                    "callData": "0x",
                    "decodedMethod": null,
                    "errorInfo": "",
                    "fromAddress": "0x0000000000004946c0e9f43f4dee607b0ef1fa1c",
                    "gasUsed": 5022,
                    "id": 13,
                    "methodDecoded": false,
                    "operation": "CALL",
                    "output": "",
                    "revert": false,
                    "revertMessage": "",
                    "selector": "fallback",
                    "status": true,
                    "value": "0"
                },
                "nodeType": 0
            },
            "14": {
                "invocation": {
                    "address": "0x0000000000004946c0e9f43f4dee607b0ef1fa1c",
                    "callData": "",
                    "decodedMethod": null,
                    "errorInfo": "",
                    "fromAddress": "0x0af442f1a714f1e9393f179d3d6129ceb26c1f51",
                    "gasUsed": 0,
                    "id": 14,
                    "methodDecoded": false,
                    "operation": "SELFDESTRUCT",
                    "output": "",
                    "revert": false,
                    "revertMessage": "",
                    "selector": "",
                    "status": true,
                    "value": "0"
                },
                "nodeType": 0
            },
            "15": {
                "invocation": {
                    "address": "0xd3ddbc54b346d3cbf3c076da2916f830f2e2825a",
                    "callData": "0x",
                    "decodedMethod": null,
                    "errorInfo": "",
                    "fromAddress": "0x0000000000004946c0e9f43f4dee607b0ef1fa1c",
                    "gasUsed": 5022,
                    "id": 15,
                    "methodDecoded": false,
                    "operation": "CALL",
                    "output": "",
                    "revert": false,
                    "revertMessage": "",
                    "selector": "fallback",
                    "status": true,
                    "value": "0"
                },
                "nodeType": 0
            },
            "16": {
                "invocation": {
                    "address": "0x0000000000004946c0e9f43f4dee607b0ef1fa1c",
                    "callData": "",
                    "decodedMethod": null,
                    "errorInfo": "",
                    "fromAddress": "0xd3ddbc54b346d3cbf3c076da2916f830f2e2825a",
                    "gasUsed": 0,
                    "id": 16,
                    "methodDecoded": false,
                    "operation": "SELFDESTRUCT",
                    "output": "",
                    "revert": false,
                    "revertMessage": "",
                    "selector": "",
                    "status": true,
                    "value": "0"
                },
                "nodeType": 0
            },
            "17": {
                "invocation": {
                    "address": "0xa5d37ad5556767ae4cf4a49b8f8abd7731fffe13",
                    "callData": "0x",
                    "decodedMethod": null,
                    "errorInfo": "",
                    "fromAddress": "0x0000000000004946c0e9f43f4dee607b0ef1fa1c",
                    "gasUsed": 5022,
                    "id": 17,
                    "methodDecoded": false,
                    "operation": "CALL",
                    "output": "",
                    "revert": false,
                    "revertMessage": "",
                    "selector": "fallback",
                    "status": true,
                    "value": "0"
                },
                "nodeType": 0
            },
            "18": {
                "invocation": {
                    "address": "0x0000000000004946c0e9f43f4dee607b0ef1fa1c",
                    "callData": "",
                    "decodedMethod": null,
                    "errorInfo": "",
                    "fromAddress": "0xa5d37ad5556767ae4cf4a49b8f8abd7731fffe13",
                    "gasUsed": 0,
                    "id": 18,
                    "methodDecoded": false,
                    "operation": "SELFDESTRUCT",
                    "output": "",
                    "revert": false,
                    "revertMessage": "",
                    "selector": "",
                    "status": true,
                    "value": "0"
                },
                "nodeType": 0
            },
            "2": {
                "invocation": {
                    "address": "0x0b38210ea11411557c13457d4da7dc6ea731b88a",
                    "callData": "0x0000000000000000000000004dd26482738be6c06c31467a19dcda9ad781e8c400000000000000000000000000000000000000000000009a40a712789a1d4000",
                    "decodedMethod": {
                        "callParams": [
                            {
                                "name": "recipient",
                                "type": "address",
                                "value": "0x4dd26482738be6c06c31467a19dcda9ad781e8c4"
                            },
                            {
                                "decimalAvailable": true,
                                "name": "amount",
                                "type": "uint256",
                                "value": "2,845,457,300,000,000,000,000"
                            }
                        ],
                        "constructorArguments": "",
                        "name": "transfer",
                        "returnParams": [
                            {
                                "name": "",
                                "type": "bool",
                                "value": true
                            }
                        ],
                        "signature": "transfer(address,uint256)"
                    },
                    "errorInfo": "",
                    "fromAddress": "0xa1faf8b810839edd3e1bda3f02dada7b7fbcf7a0",
                    "gasUsed": 14546,
                    "id": 2,
                    "methodDecoded": true,
                    "operation": "CALL",
                    "output": "0x0000000000000000000000000000000000000000000000000000000000000001",
                    "revert": false,
                    "revertMessage": "",
                    "selector": "0xa9059cbb",
                    "status": true,
                    "value": "0"
                },
                "nodeType": 0
            },
            "3": {
                "event": {
                    "contract": "0x0b38210ea11411557c13457d4da7dc6ea731b88a",
                    "decodedLog": {
                        "name": "Transfer",
                        "params": [
                            {
                                "name": "from",
                                "type": "address",
                                "value": "0xa1faf8b810839edd3e1bda3f02dada7b7fbcf7a0"
                            },
                            {
                                "name": "to",
                                "type": "address",
                                "value": "0x4dd26482738be6c06c31467a19dcda9ad781e8c4"
                            },
                            {
                                "decimalAvailable": true,
                                "name": "value",
                                "type": "uint256",
                                "value": "2,845,457,300,000,000,000,000"
                            }
                        ],
                        "signature": "Transfer(address,address,uint256)"
                    },
                    "id": 3,
                    "logData": "0x00000000000000000000000000000000000000000000009a40a712789a1d4000",
                    "logDecoded": true,
                    "operation": "EVENT",
                    "revert": false,
                    "status": true,
                    "topics": [
                        "0xddf252ad1be2c89b69c2b068fc378daa952ba7f163c4a11628f55a4df523b3ef",
                        "0x000000000000000000000000a1faf8b810839edd3e1bda3f02dada7b7fbcf7a0",
                        "0x0000000000000000000000004dd26482738be6c06c31467a19dcda9ad781e8c4"
                    ]
                },
                "nodeType": 1
            },
            "4": {
                "invocation": {
                    "address": "0x4dd26482738be6c06c31467a19dcda9ad781e8c4",
                    "callData": "0x00000000000000000000000000000000000000000000000000000000000000000000000000000000000000000000000000000000000000005c5a68f8b3b1c167000000000000000000000000a1faf8b810839edd3e1bda3f02dada7b7fbcf7a000000000000000000000000000000000000000000000000000000000000000800000000000000000000000000000000000000000000000000000000000000000",
                    "decodedMethod": {
                        "callParams": [
                            {
                                "name": "amount0Out",
                                "type": "uint256",
                                "value": "0"
                            },
                            {
                                "name": "amount1Out",
                                "type": "uint256",
                                "value": "6,654,746,816,769,278,311"
                            },
                            {
                                "name": "to",
                                "type": "address",
                                "value": "0xa1faf8b810839edd3e1bda3f02dada7b7fbcf7a0"
                            },
                            {
                                "name": "data",
                                "type": "bytes",
                                "value": "0x"
                            }
                        ],
                        "constructorArguments": "",
                        "name": "swap",
                        "returnParams": [],
                        "signature": "swap(uint256,uint256,address,bytes)"
                    },
                    "errorInfo": "",
                    "fromAddress": "0xa1faf8b810839edd3e1bda3f02dada7b7fbcf7a0",
                    "gasUsed": 71631,
                    "id": 4,
                    "methodDecoded": true,
                    "operation": "CALL",
                    "output": "",
                    "revert": false,
                    "revertMessage": "",
                    "selector": "0x022c0d9f",
                    "status": true,
                    "value": "0"
                },
                "nodeType": 0
            },
            "5": {
                "invocation": {
                    "address": "0xc02aaa39b223fe8d0a0e5c4f27ead9083c756cc2",
                    "callData": "0x000000000000000000000000a1faf8b810839edd3e1bda3f02dada7b7fbcf7a00000000000000000000000000000000000000000000000005c5a68f8b3b1c167",
                    "decodedMethod": {
                        "callParams": [
                            {
                                "name": "dst",
                                "type": "address",
                                "value": "0xa1faf8b810839edd3e1bda3f02dada7b7fbcf7a0"
                            },
                            {
                                "decimalAvailable": true,
                                "name": "wad",
                                "type": "uint256",
                                "value": "6,654,746,816,769,278,311"
                            }
                        ],
                        "constructorArguments": "",
                        "name": "transfer",
                        "returnParams": [
                            {
                                "name": "",
                                "type": "bool",
                                "value": true
                            }
                        ],
                        "signature": "transfer(address,uint256)"
                    },
                    "errorInfo": "",
                    "fromAddress": "0x4dd26482738be6c06c31467a19dcda9ad781e8c4",
                    "gasUsed": 30162,
                    "id": 5,
                    "methodDecoded": true,
                    "operation": "CALL",
                    "output": "0x0000000000000000000000000000000000000000000000000000000000000001",
                    "revert": false,
                    "revertMessage": "",
                    "selector": "0xa9059cbb",
                    "status": true,
                    "value": "0"
                },
                "nodeType": 0
            },
            "6": {
                "event": {
                    "contract": "0xc02aaa39b223fe8d0a0e5c4f27ead9083c756cc2",
                    "decodedLog": {
                        "name": "Transfer",
                        "params": [
                            {
                                "name": "src",
                                "type": "address",
                                "value": "0x4dd26482738be6c06c31467a19dcda9ad781e8c4"
                            },
                            {
                                "name": "dst",
                                "type": "address",
                                "value": "0xa1faf8b810839edd3e1bda3f02dada7b7fbcf7a0"
                            },
                            {
                                "decimalAvailable": true,
                                "name": "wad",
                                "type": "uint256",
                                "value": "6,654,746,816,769,278,311"
                            }
                        ],
                        "signature": "Transfer(address,address,uint256)"
                    },
                    "id": 6,
                    "logData": "0x0000000000000000000000000000000000000000000000005c5a68f8b3b1c167",
                    "logDecoded": true,
                    "operation": "EVENT",
                    "revert": false,
                    "status": true,
                    "topics": [
                        "0xddf252ad1be2c89b69c2b068fc378daa952ba7f163c4a11628f55a4df523b3ef",
                        "0x0000000000000000000000004dd26482738be6c06c31467a19dcda9ad781e8c4",
                        "0x000000000000000000000000a1faf8b810839edd3e1bda3f02dada7b7fbcf7a0"
                    ]
                },
                "nodeType": 1
            },
            "7": {
                "invocation": {
                    "address": "0x0b38210ea11411557c13457d4da7dc6ea731b88a",
                    "callData": "0x0000000000000000000000004dd26482738be6c06c31467a19dcda9ad781e8c4",
                    "decodedMethod": {
                        "callParams": [
                            {
                                "name": "account",
                                "type": "address",
                                "value": "0x4dd26482738be6c06c31467a19dcda9ad781e8c4"
                            }
                        ],
                        "constructorArguments": "",
                        "name": "balanceOf",
                        "returnParams": [
                            {
                                "decimalAvailable": true,
                                "name": "",
                                "type": "uint256",
                                "value": "571,232,767,166,095,045,888,634"
                            }
                        ],
                        "signature": "balanceOf(address)"
                    },
                    "errorInfo": "",
                    "fromAddress": "0x4dd26482738be6c06c31467a19dcda9ad781e8c4",
                    "gasUsed": 1212,
                    "id": 7,
                    "methodDecoded": true,
                    "operation": "STATICCALL",
                    "output": "0x0000000000000000000000000000000000000000000078f69721b0a6f46f0a7a",
                    "revert": false,
                    "revertMessage": "",
                    "selector": "0x70a08231",
                    "status": true,
                    "value": "0"
                },
                "nodeType": 0
            },
            "8": {
                "invocation": {
                    "address": "0xc02aaa39b223fe8d0a0e5c4f27ead9083c756cc2",
                    "callData": "0x0000000000000000000000004dd26482738be6c06c31467a19dcda9ad781e8c4",
                    "decodedMethod": {
                        "callParams": [
                            {
                                "name": "",
                                "type": "address",
                                "value": "0x4dd26482738be6c06c31467a19dcda9ad781e8c4"
                            }
                        ],
                        "constructorArguments": "",
                        "name": "balanceOf",
                        "returnParams": [
                            {
                                "decimalAvailable": true,
                                "name": "",
                                "type": "uint256",
                                "value": "1,333,302,456,038,746,236,527"
                            }
                        ],
                        "signature": "balanceOf(address)"
                    },
                    "errorInfo": "",
                    "fromAddress": "0x4dd26482738be6c06c31467a19dcda9ad781e8c4",
                    "gasUsed": 1234,
                    "id": 8,
                    "methodDecoded": true,
                    "operation": "STATICCALL",
                    "output": "0x0000000000000000000000000000000000000000000000484749dfa0c958266f",
                    "revert": false,
                    "revertMessage": "",
                    "selector": "0x70a08231",
                    "status": true,
                    "value": "0"
                },
                "nodeType": 0
            },
            "9": {
                "event": {
                    "contract": "0x4dd26482738be6c06c31467a19dcda9ad781e8c4",
                    "decodedLog": {
                        "name": "Sync",
                        "params": [
                            {
                                "name": "reserve0",
                                "type": "uint112",
                                "value": "571,232,767,166,095,045,888,634"
                            },
                            {
                                "name": "reserve1",
                                "type": "uint112",
                                "value": "1,333,302,456,038,746,236,527"
                            }
                        ],
                        "signature": "Sync(uint112,uint112)"
                    },
                    "id": 9,
                    "logData": "0x0000000000000000000000000000000000000000000078f69721b0a6f46f0a7a0000000000000000000000000000000000000000000000484749dfa0c958266f",
                    "logDecoded": true,
                    "operation": "EVENT",
                    "revert": false,
                    "status": true,
                    "topics": [
                        "0x1c411e9a96e071241c2f21f7726b17ae89e3cab4c78be50e062b03a9fffbbad1"
                    ]
                },
                "nodeType": 1
            }
        },
        "gasFlame": [
            {
                "children": [
                    {
                        "children": [
                            {
                                "children": [],
                                "depth": 0,
                                "name": "Initial Gas",
                                "value": 22520
                            },
                            {
                                "children": [
                                    {
                                        "children": [],
                                        "depth": 1,
                                        "name": "getReserves",
                                        "value": 1204
                                    },
                                    {
                                        "children": [],
                                        "depth": 1,
                                        "name": "transfer",
                                        "value": 14546
                                    },
                                    {
                                        "children": [
                                            {
                                                "children": [],
                                                "depth": 2,
                                                "name": "transfer",
                                                "value": 30162
                                            },
                                            {
                                                "children": [],
                                                "depth": 2,
                                                "name": "balanceOf",
                                                "value": 1212
                                            },
                                            {
                                                "children": [],
                                                "depth": 2,
                                                "name": "balanceOf",
                                                "value": 1234
                                            }
                                        ],
                                        "depth": 1,
                                        "name": "swap",
                                        "value": 71631
                                    },
                                    {
                                        "children": [
                                            {
                                                "children": [
                                                    {
                                                        "children": [],
                                                        "depth": 3,
                                                        "name": "",
                                                        "value": 0
                                                    }
                                                ],
                                                "depth": 2,
                                                "name": "fallback",
                                                "value": 5022
                                            },
                                            {
                                                "children": [
                                                    {
                                                        "children": [],
                                                        "depth": 3,
                                                        "name": "",
                                                        "value": 0
                                                    }
                                                ],
                                                "depth": 2,
                                                "name": "fallback",
                                                "value": 5022
                                            },
                                            {
                                                "children": [
                                                    {
                                                        "children": [],
                                                        "depth": 3,
                                                        "name": "",
                                                        "value": 0
                                                    }
                                                ],
                                                "depth": 2,
                                                "name": "fallback",
                                                "value": 5022
                                            }
                                        ],
                                        "depth": 1,
                                        "name": "freeUpTo",
                                        "value": 33661
                                    }
                                ],
                                "depth": 0,
                                "name": "Executed Gas",
                                "value": 144675
                            }
                        ],
                        "depth": -1,
                        "name": "Actual Gas Used",
                        "value": 90995
                    },
                    {
                        "children": [],
                        "depth": -1,
                        "name": "Refunded Gas",
                        "value": 76200
                    }
                ],
                "depth": -2,
                "name": "Total Gas",
                "value": 167195
            }
        ],
        "isConfirmed": true,
        "mainTrace": [
            {
                "children": [
                    {
                        "children": [
                            {
                                "children": [],
                                "depth": 1,
                                "id": 1,
                                "order": 1
                            },
                            {
                                "children": [
                                    {
                                        "children": [],
                                        "depth": 2,
                                        "id": 3,
                                        "order": 3
                                    }
                                ],
                                "depth": 1,
                                "id": 2,
                                "order": 2
                            },
                            {
                                "children": [
                                    {
                                        "children": [
                                            {
                                                "children": [],
                                                "depth": 3,
                                                "id": 6,
                                                "order": 6
                                            }
                                        ],
                                        "depth": 2,
                                        "id": 5,
                                        "order": 5
                                    },
                                    {
                                        "children": [],
                                        "depth": 2,
                                        "id": 7,
                                        "order": 7
                                    },
                                    {
                                        "children": [],
                                        "depth": 2,
                                        "id": 8,
                                        "order": 8
                                    },
                                    {
                                        "children": [],
                                        "depth": 2,
                                        "id": 9,
                                        "order": 9
                                    },
                                    {
                                        "children": [],
                                        "depth": 2,
                                        "id": 10,
                                        "order": 10
                                    }
                                ],
                                "depth": 1,
                                "id": 4,
                                "order": 4
                            },
                            {
                                "children": [
                                    {
                                        "children": [],
                                        "depth": 2,
                                        "id": 12,
                                        "order": 12
                                    },
                                    {
                                        "children": [
                                            {
                                                "children": [],
                                                "depth": 3,
                                                "id": 14,
                                                "order": 14
                                            }
                                        ],
                                        "depth": 2,
                                        "id": 13,
                                        "order": 13
                                    },
                                    {
                                        "children": [
                                            {
                                                "children": [],
                                                "depth": 3,
                                                "id": 16,
                                                "order": 16
                                            }
                                        ],
                                        "depth": 2,
                                        "id": 15,
                                        "order": 15
                                    },
                                    {
                                        "children": [
                                            {
                                                "children": [],
                                                "depth": 3,
                                                "id": 18,
                                                "order": 18
                                            }
                                        ],
                                        "depth": 2,
                                        "id": 17,
                                        "order": 17
                                    }
                                ],
                                "depth": 1,
                                "id": 11,
                                "order": 11
                            }
                        ],
                        "depth": 0,
                        "id": 0,
                        "order": 0
                    }
                ],
                "depth": -1,
                "id": -1,
                "order": -1
            }
        ],
        "mainTraceNodeCount": 19,
        "parentIdMap": {
            "0": -1,
            "1": 0,
            "10": 4,
            "11": 0,
            "12": 11,
            "13": 11,
            "14": 13,
            "15": 11,
            "16": 15,
            "17": 11,
            "18": 17,
            "2": 0,
            "3": 2,
            "4": 0,
            "5": 4,
            "6": 5,
            "7": 4,
            "8": 4,
            "9": 4
        },
        "tidyTrace": [
            {
                "children": [
                    {
                        "children": [
                            {
                                "children": [
                                    {
                                        "children": [],
                                        "depth": 2,
                                        "id": 3,
                                        "order": 3
                                    }
                                ],
                                "depth": 1,
                                "id": 2,
                                "order": 2
                            },
                            {
                                "children": [
                                    {
                                        "children": [
                                            {
                                                "children": [],
                                                "depth": 3,
                                                "id": 6,
                                                "order": 6
                                            }
                                        ],
                                        "depth": 2,
                                        "id": 5,
                                        "order": 5
                                    },
                                    {
                                        "children": [],
                                        "depth": 2,
                                        "id": 9,
                                        "order": 9
                                    },
                                    {
                                        "children": [],
                                        "depth": 2,
                                        "id": 10,
                                        "order": 10
                                    }
                                ],
                                "depth": 1,
                                "id": 4,
                                "order": 4
                            },
                            {
                                "children": [
                                    {
                                        "children": [],
                                        "depth": 2,
                                        "id": 12,
                                        "order": 12
                                    },
                                    {
                                        "children": [
                                            {
                                                "children": [],
                                                "depth": 3,
                                                "id": 14,
                                                "order": 14
                                            }
                                        ],
                                        "depth": 2,
                                        "id": 13,
                                        "order": 13
                                    },
                                    {
                                        "children": [
                                            {
                                                "children": [],
                                                "depth": 3,
                                                "id": 16,
                                                "order": 16
                                            }
                                        ],
                                        "depth": 2,
                                        "id": 15,
                                        "order": 15
                                    },
                                    {
                                        "children": [
                                            {
                                                "children": [],
                                                "depth": 3,
                                                "id": 18,
                                                "order": 18
                                            }
                                        ],
                                        "depth": 2,
                                        "id": 17,
                                        "order": 17
                                    }
                                ],
                                "depth": 1,
                                "id": 11,
                                "order": 11
                            }
                        ],
                        "depth": 0,
                        "id": 0,
                        "order": 0
                    }
                ],
                "depth": -1,
                "id": -1,
                "order": -1
            }
        ],
        "tidyTraceNodeCount": 16
    },
    "state_change": {
        "stateChanges": [
            {
                "address": "0x0000000000004946c0e9f43f4dee607b0ef1fa1c",
                "erc": "ERC-20",
                "slots": [
                    {
                        "current": "0x00000000000000000000000000000000000000000000000000000000000000d2",
                        "key": "0xe40af170b80f83b9201b2a1f11da6de3d5fdd8d4fcd7c805acefa5b07b7f99f4",
                        "prev": "0x00000000000000000000000000000000000000000000000000000000000000d5"
                    },
                    {
                        "current": "0x00000000000000000000000000000000000000000000000000000000003d14fd",
                        "key": "0x0000000000000000000000000000000000000000000000000000000000000003",
                        "prev": "0x00000000000000000000000000000000000000000000000000000000003d14fa"
                    }
                ],
                "storageVariables": [
                    {
                        "name": "_balances",
                        "type": "mapping(address => uint256)",
                        "value": {
                            "pairs": [
                                {
                                    "key": "0xa1faf8b810839edd3e1bda3f02dada7b7fbcf7a0",
                                    "value": {
                                        "current": "210",
                                        "prev": "213",
                                        "typeTag": 1
                                    }
                                }
                            ],
                            "typeTag": 4
                        }
                    },
                    {
                        "name": "totalBurned",
                        "type": "uint256",
                        "value": {
                            "current": "4003069",
                            "prev": "4003066",
                            "typeTag": 1
                        }
                    }
                ]
            },
            {
                "address": "0x0b38210ea11411557c13457d4da7dc6ea731b88a",
                "erc": "ERC-20",
                "slots": [
                    {
                        "current": "0x0000000000000000000000000000000000000000000078f69721b0a6f46f0a7a",
                        "key": "0x204e986345894b5f64bd9d7f87b427c0d2b99ebf6632e519b6e613e8bd32d8f5",
                        "prev": "0x00000000000000000000000000000000000000000000785c567a9e2e5a51ca7a"
                    },
                    {
                        "current": "0x0000000000000000000000000000000000000000000001554ed335e32828109d",
                        "key": "0xe40af170b80f83b9201b2a1f11da6de3d5fdd8d4fcd7c805acefa5b07b7f99f4",
                        "prev": "0x0000000000000000000000000000000000000000000001ef8f7a485bc245509d"
                    }
                ],
                "storageVariables": [
                    {
                        "name": "_balances",
                        "type": "mapping(address => uint256)",
                        "value": {
                            "pairs": [
                                {
                                    "key": "0x4dd26482738be6c06c31467a19dcda9ad781e8c4",
                                    "value": {
                                        "current": "571232767166095045888634",
                                        "prev": "568387309866095045888634",
                                        "typeTag": 1
                                    }
                                },
                                {
                                    "key": "0xa1faf8b810839edd3e1bda3f02dada7b7fbcf7a0",
                                    "value": {
                                        "current": "6296019671939748991133",
                                        "prev": "9141476971939748991133",
                                        "typeTag": 1
                                    }
                                }
                            ],
                            "typeTag": 4
                        }
                    }
                ]
            },
            {
                "address": "0x4dd26482738be6c06c31467a19dcda9ad781e8c4",
                "erc": "ERC-20",
                "slots": [
                    {
                        "current": "0x000000000000000000000000000000002ea458d4138ae0ccf2d8321d847e31ff",
                        "key": "0x0000000000000000000000000000000000000000000000000000000000000009",
                        "prev": "0x000000000000000000000000000000002ea452cb155cd829a9c9fe3dd0293723"
                    },
                    {
                        "current": "0x00000000000000000000000000005adec655e1835ab29fa92ab024202adaca37",
                        "key": "0x000000000000000000000000000000000000000000000000000000000000000a",
                        "prev": "0x00000000000000000000000000005adeb5c40c914a0b89593a2a89bab6bbba0f"
                    },
                    {
                        "current": "0x600372c10000000000484749dfa0c958266f0000000078f69721b0a6f46f0a7a",
                        "key": "0x0000000000000000000000000000000000000000000000000000000000000008",
                        "prev": "0x600372b7000000000048a3a448997d09e7d600000000785c567a9e2e5a51ca7a"
                    }
                ],
                "storageVariables": [
                    {
                        "name": "reserve0",
                        "type": "uint112",
                        "value": {
                            "current": "571232767166095045888634",
                            "prev": "568387309866095045888634",
                            "typeTag": 1
                        }
                    },
                    {
                        "name": "reserve1",
                        "type": "uint112",
                        "value": {
                            "current": "1333302456038746236527",
                            "prev": "1339957202855515514838",
                            "typeTag": 1
                        }
                    },
                    {
                        "name": "blockTimestampLast",
                        "type": "uint32",
                        "value": {
                            "current": "1610838721",
                            "prev": "1610838711",
                            "typeTag": 1
                        }
                    },
                    {
                        "name": "price0CumulativeLast",
                        "type": "uint256",
                        "value": {
                            "current": "61997826145369524796130123783981642239",
                            "prev": "61997703738421758898653609931833947939",
                            "typeTag": 1
                        }
                    },
                    {
                        "name": "price1CumulativeLast",
                        "type": "uint256",
                        "value": {
                            "current": "7915912052377218045592854629563976325450295",
                            "prev": "7915890027527191794330140228156960636910095",
                            "typeTag": 1
                        }
                    }
                ]
            },
            {
                "address": "0xc02aaa39b223fe8d0a0e5c4f27ead9083c756cc2",
                "erc": "ERC-20",
                "slots": [
                    {
                        "current": "0x0000000000000000000000000000000000000000000000484749dfa0c958266f",
                        "key": "0x51d00a754b7961bd560b426780f914379d30803eb67d9f485fc58818d0eb18e7",
                        "prev": "0x000000000000000000000000000000000000000000000048a3a448997d09e7d6"
                    },
                    {
                        "current": "0x0000000000000000000000000000000000000000000000005c5a68f8b3b1c167",
                        "key": "0xb2b723f18a2901b923928d99f5f2042db3ca18548ad7e9c4ab52a970b09439bf",
                        "prev": "0x0000000000000000000000000000000000000000000000000000000000000000"
                    }
                ],
                "storageVariables": [
                    {
                        "name": "balanceOf",
                        "type": "mapping(address => uint256)",
                        "value": {
                            "pairs": [
                                {
                                    "key": "0x4dd26482738be6c06c31467a19dcda9ad781e8c4",
                                    "value": {
                                        "current": "1333302456038746236527",
                                        "prev": "1339957202855515514838",
                                        "typeTag": 1
                                    }
                                },
                                {
                                    "key": "0xa1faf8b810839edd3e1bda3f02dada7b7fbcf7a0",
                                    "value": {
                                        "current": "6654746816769278311",
                                        "prev": "0",
                                        "typeTag": 1
                                    }
                                }
                            ],
                            "typeTag": 4
                        }
                    }
                ]
            }
        ]
    }
}