{
    "balance_change": {
        "balanceChanges": []
    },
    "profile": {
        "basic_info": {
            "baseFee": "2.801306842",
            "blockNumber": 20358926,
            "callData": "0xeee3b7800000000000000000000000002b108f1aab6ed5d7c05573612ee110d847318149000000000000000000000000c02aaa39b223fe8d0a0e5c4f27ead9083c756cc200000000000000000000000000000000000000000000000000d529ae9e86000000000000000000000000000000000000000000000000000039cc73ba7088f000000000000000000000000000000000000000000000000000000000000000000a00000000000000000000000000000000000000000000000000000000000000e0000000000000000000000000000000000000000000000000008a21276cde0000000000000000000000000000000000000000000000000000000000000000000f000000000000000000000000da8324fbc7afbb13a0a12f99b5a32bda97d19f750000000000000000000000007f30bc6446d91c2945355a879271d7e51460501b0000000000000000000000002400be9fdc8a9045a8bb56dec82965cac5b8ea9f00000000000000000000000001c976ae9d96a9e83f796676b7f8a24e58664a1e0000000000000000000000006df05a8122b173480a5c5a9aaafe0b6c69485d3e000000000000000000000000f61cf87c23e92fd79b67a332b35d5ac7d070dcb20000000000000000000000004963034f57d1d4732560b696d83b4250a14ef987000000000000000000000000b0d47cd8e8390fea5b3c9f2512d026a2ce1803c600000000000000000000000065930db715594191ba6213cbb164e4d35f6873bf0000000000000000000000005206ff64cf9c9463f7440f356ee8666ed280167c00000000000000000000000052eddceaa53612e8825e9b912d5360d3196e81a70000000000000000000000008bb27745494e54ad9b5012985da3d54705a30e82000000000000000000000000333cceaff026d0b2a9212adfa6fc955109b278f20000000000000000000000003ece144fe13cf6cfe7ea453b58158daa3861edcd0000000000000000000000003d3ed460fc84070d01b9223b601addda817bcd7f",
            "debugEnable": true,
            "errorInfo": "execution reverted",
            "eventCount": 0,
            "feeRecipient": "0x95222290dd7278aa3ddd389cc1e1d165cc4bafe5",
            "formatValue": "0",
            "gasLimit": 2000000,
            "gasPrice": "5.901306842",
            "gasUsed": 43350,
            "intTxnCount": 1,
            "internalRevert": true,
            "internalRevertMessage": "",
            "isContractCreation": false,
            "isFlashloan": false,
            "maxFee": "100",
            "nonce": 7060,
            "overwritedBlockNumber": -1,
            "priorityFee": "3.1",
            "receiver": "0xe1f16b94e5f7df1b721f42945f72b153d3250693",
            "revertMessage": "pair",
            "sender": "0x74ea5865b17c3ae54b8c7fbfbb1dac038d949128",
            "simulationEnable": true,
            "sourceTxnHash": "0x6652b48226bfe66642322bd2799b4096834451338b7883dddcd555a263ae051f",
            "status": false,
            "timestamp": "2024-07-22T01:55:35Z",
            "transactionFee": "0.0002558216516007",
            "txnHash": "0x6652b48226bfe66642322bd2799b4096834451338b7883dddcd555a263ae051f",
            "txnIndex": 91,
            "type": 2,
            "value": "0"
        },
        "fund_flow": [],
        "token_infos": [
            {
                "address": "0xc02aaa39b223fe8d0a0e5c4f27ead9083c756cc2",
                "decimals": 18
            },
            {
                "address": "0xeeeeeeeeeeeeeeeeeeeeeeeeeeeeeeeeeeeeeeee",
                "decimals": 18
            }
        ]
    },
    "address_label": {
        "labels": [
            {
                "address": "0x0000000000000000000000000000000000000000",
                "label": "Null Address"
            },
            {
                "address": "0x0000000000000000000000000000000000000001",
                "label": "Precompiled"
            },
            {
                "address": "0x0000000000000000000000000000000000000002",
                "label": "Precompiled"
            },
            {
                "address": "0x0000000000000000000000000000000000000003",
                "label": "Precompiled"
            },
            {
                "address": "0x0000000000000000000000000000000000000004",
                "label": "Precompiled"
            },
            {
                "address": "0xeeeeeeeeeeeeeeeeeeeeeeeeeeeeeeeeeeeeeeee",
                "label": "Ether"
            },
            {
                "address": "0xc02aaa39b223fe8d0a0e5c4f27ead9083c756cc2",
                "label": "Wrapped Ether (WETH)"
            },
            {
                "address": "0x5c69bee701ef814a2b6a3edd4b1652cb9cc5aa6f",
                "label": "Uniswap V2: Factory Contract"
            }
        ]
    },
    "trace": {
        "accountLabels": null,
        "dataMap": {
            "-1": {
                "invocation": {
                    "address": "0x74ea5865b17c3ae54b8c7fbfbb1dac038d949128",
                    "callData": "",
                    "decodedMethod": null,
                    "errorInfo": "",
                    "fromAddress": "",
                    "gasUsed": 0,
                    "id": -1,
                    "methodDecoded": false,
                    "operation": "",
                    "output": "",
                    "revert": false,
                    "revertMessage": "",
                    "selector": "",
                    "status": false,
                    "value": ""
                },
                "nodeType": 0
            },
            "0": {
                "invocation": {
                    "address": "0xe1f16b94e5f7df1b721f42945f72b153d3250693",
                    "callData": "0x0000000000000000000000002b108f1aab6ed5d7c05573612ee110d847318149000000000000000000000000c02aaa39b223fe8d0a0e5c4f27ead9083c756cc200000000000000000000000000000000000000000000000000d529ae9e86000000000000000000000000000000000000000000000000000039cc73ba7088f000000000000000000000000000000000000000000000000000000000000000000a00000000000000000000000000000000000000000000000000000000000000e0000000000000000000000000000000000000000000000000008a21276cde0000000000000000000000000000000000000000000000000000000000000000000f000000000000000000000000da8324fbc7afbb13a0a12f99b5a32bda97d19f750000000000000000000000007f30bc6446d91c2945355a879271d7e51460501b0000000000000000000000002400be9fdc8a9045a8bb56dec82965cac5b8ea9f00000000000000000000000001c976ae9d96a9e83f796676b7f8a24e58664a1e0000000000000000000000006df05a8122b173480a5c5a9aaafe0b6c69485d3e000000000000000000000000f61cf87c23e92fd79b67a332b35d5ac7d070dcb20000000000000000000000004963034f57d1d4732560b696d83b4250a14ef987000000000000000000000000b0d47cd8e8390fea5b3c9f2512d026a2ce1803c600000000000000000000000065930db715594191ba6213cbb164e4d35f6873bf0000000000000000000000005206ff64cf9c9463f7440f356ee8666ed280167c00000000000000000000000052eddceaa53612e8825e9b912d5360d3196e81a70000000000000000000000008bb27745494e54ad9b5012985da3d54705a30e82000000000000000000000000333cceaff026d0b2a9212adfa6fc955109b278f20000000000000000000000003ece144fe13cf6cfe7ea453b58158daa3861edcd0000000000000000000000003d3ed460fc84070d01b9223b601addda817bcd7f",
                    "decodedMethod": null,
                    "errorInfo": "execution reverted",
                    "fromAddress": "0x74ea5865b17c3ae54b8c7fbfbb1dac038d949128",
                    "gasUsed": 43350,
                    "id": 0,
                    "methodDecoded": false,
                    "operation": "CALL",
                    "output": "0x08c379a0000000000000000000000000000000000000000000000000000000000000002000000000000000000000000000000000000000000000000000000000000000047061697200000000000000000000000000000000000000000000000000000000",
                    "revert": true,
                    "revertMessage": "pair",
                    "selector": "0xeee3b780",
                    "status": false,
                    "value": "0"
                },
                "nodeType": 0
            },
            "1": {
                "invocation": {
                    "address": "0x5c69bee701ef814a2b6a3edd4b1652cb9cc5aa6f",
                    "callData": "0x0000000000000000000000002b108f1aab6ed5d7c05573612ee110d847318149000000000000000000000000c02aaa39b223fe8d0a0e5c4f27ead9083c756cc2",
                    "decodedMethod": {
                        "callParams": [
                            {
                                "name": "",
                                "type": "address",
                                "value": "0x2b108f1aab6ed5d7c05573612ee110d847318149"
                            },
                            {
                                "name": "",
                                "type": "address",
                                "value": "0xc02aaa39b223fe8d0a0e5c4f27ead9083c756cc2"
                            }
                        ],
                        "constructorArguments": "",
                        "name": "getPair",
                        "returnParams": [
                            {
                                "name": "",
                                "type": "address",
                                "value": "0x0000000000000000000000000000000000000000"
                            }
                        ],
                        "signature": "getPair(address,address)"
                    },
                    "errorInfo": "",
                    "fromAddress": "0xe1f16b94e5f7df1b721f42945f72b153d3250693",
                    "gasUsed": 2564,
                    "id": 1,
                    "methodDecoded": true,
                    "operation": "STATICCALL",
                    "output": "0x0000000000000000000000000000000000000000000000000000000000000000",
                    "revert": true,
                    "revertMessage": "",
                    "selector": "0xe6a43905",
                    "status": true,
                    "value": "0"
                },
                "nodeType": 0
            }
        },
        "gasFlame": [
            {
                "children": [
                    {
                        "children": [
                            {
                                "children": [],
                                "depth": 0,
                                "name": "Initial Gas",
                                "value": 28316
                            },
                            {
                                "children": [
                                    {
                                        "children": [],
                                        "depth": 1,
                                        "name": "getPair",
                                        "value": 2564
                                    }
                                ],
                                "depth": 0,
                                "name": "Executed Gas",
                                "value": 15034
                            }
                        ],
                        "depth": -1,
                        "name": "Actual Gas Used",
                        "value": 43350
                    },
                    {
                        "children": [],
                        "depth": -1,
                        "name": "Refunded Gas",
                        "value": 0
                    }
                ],
                "depth": -2,
                "name": "Total Gas",
                "value": 43350
            }
        ],
        "isConfirmed": true,
        "mainTrace": [
            {
                "children": [
                    {
                        "children": [
                            {
                                "children": [],
                                "depth": 1,
                                "id": 1,
                                "order": 1
                            }
                        ],
                        "depth": 0,
                        "id": 0,
                        "order": 0
                    }
                ],
                "depth": -1,
                "id": -1,
                "order": -1
            }
        ],
        "mainTraceNodeCount": 2,
        "parentIdMap": {
            "0": -1,
            "1": 0
        },
        "tidyTrace": [
            {
                "children": [
                    {
                        "children": [],
                        "depth": 0,
                        "id": 0,
                        "order": 0
                    }
                ],
                "depth": -1,
                "id": -1,
                "order": -1
            }
        ],
        "tidyTraceNodeCount": 1
    },
    "state_change": {
        "stateChanges": []
    }
}