{
    "balance_change": {
        "balanceChanges": [
            {
                "account": "0x0000000000000000000000000000000000000000",
                "assets": [
                    {
                        "address": "0xf9afa20983e169879683582dbb60be9c354fa738",
                        "amount": "1",
                        "iconUrl": "",
                        "isERC1155": false,
                        "isERC721": true,
                        "sign": false,
                        "tokenID": "6066",
                        "value": ""
                    },
                    {
                        "address": "0xf9afa20983e169879683582dbb60be9c354fa738",
                        "amount": "1",
                        "iconUrl": "",
                        "isERC1155": false,
                        "isERC721": true,
                        "sign": false,
                        "tokenID": "6068",
                        "value": ""
                    },
                    {
                        "address": "0xf9afa20983e169879683582dbb60be9c354fa738",
                        "amount": "1",
                        "iconUrl": "",
                        "isERC1155": false,
                        "isERC721": true,
                        "sign": false,
                        "tokenID": "6067",
                        "value": ""
                    },
                    {
                        "address": "0xf9afa20983e169879683582dbb60be9c354fa738",
                        "amount": "1",
                        "iconUrl": "",
                        "isERC1155": false,
                        "isERC721": true,
                        "sign": false,
                        "tokenID": "6069",
                        "value": ""
                    },
                    {
                        "address": "0xf9afa20983e169879683582dbb60be9c354fa738",
                        "amount": "1",
                        "iconUrl": "",
                        "isERC1155": false,
                        "isERC721": true,
                        "sign": false,
                        "tokenID": "6070",
                        "value": ""
                    },
                    {
                        "address": "0xf9afa20983e169879683582dbb60be9c354fa738",
                        "amount": "1",
                        "iconUrl": "",
                        "isERC1155": false,
                        "isERC721": true,
                        "sign": false,
                        "tokenID": "6071",
                        "value": ""
                    },
                    {
                        "address": "0xf9afa20983e169879683582dbb60be9c354fa738",
                        "amount": "1",
                        "iconUrl": "",
                        "isERC1155": false,
                        "isERC721": true,
                        "sign": false,
                        "tokenID": "6072",
                        "value": ""
                    },
                    {
                        "address": "0xf9afa20983e169879683582dbb60be9c354fa738",
                        "amount": "1",
                        "iconUrl": "",
                        "isERC1155": false,
                        "isERC721": true,
                        "sign": false,
                        "tokenID": "6073",
                        "value": ""
                    },
                    {
                        "address": "0xf9afa20983e169879683582dbb60be9c354fa738",
                        "amount": "1",
                        "iconUrl": "",
                        "isERC1155": false,
                        "isERC721": true,
                        "sign": false,
                        "tokenID": "6074",
                        "value": ""
                    }
                ]
            },
            {
                "account": "0x9ba8a7c331769b70b8755573eda5027ee327bb9d",
                "assets": [
                    {
                        "address": "0xf9afa20983e169879683582dbb60be9c354fa738",
                        "amount": "1",
                        "iconUrl": "",
                        "isERC1155": false,
                        "isERC721": true,
                        "sign": true,
                        "tokenID": "6066",
                        "value": ""
                    },
                    {
                        "address": "0xf9afa20983e169879683582dbb60be9c354fa738",
                        "amount": "1",
                        "iconUrl": "",
                        "isERC1155": false,
                        "isERC721": true,
                        "sign": true,
                        "tokenID": "6068",
                        "value": ""
                    },
                    {
                        "address": "0xf9afa20983e169879683582dbb60be9c354fa738",
                        "amount": "1",
                        "iconUrl": "",
                        "isERC1155": false,
                        "isERC721": true,
                        "sign": true,
                        "tokenID": "6072",
                        "value": ""
                    },
                    {
                        "address": "0xf9afa20983e169879683582dbb60be9c354fa738",
                        "amount": "1",
                        "iconUrl": "",
                        "isERC1155": false,
                        "isERC721": true,
                        "sign": true,
                        "tokenID": "6073",
                        "value": ""
                    },
                    {
                        "address": "0xf9afa20983e169879683582dbb60be9c354fa738",
                        "amount": "1",
                        "iconUrl": "",
                        "isERC1155": false,
                        "isERC721": true,
                        "sign": true,
                        "tokenID": "6074",
                        "value": ""
                    },
                    {
                        "address": "0xf9afa20983e169879683582dbb60be9c354fa738",
                        "amount": "1",
                        "iconUrl": "",
                        "isERC1155": false,
                        "isERC721": true,
                        "sign": true,
                        "tokenID": "6067",
                        "value": ""
                    },
                    {
                        "address": "0xf9afa20983e169879683582dbb60be9c354fa738",
                        "amount": "1",
                        "iconUrl": "",
                        "isERC1155": false,
                        "isERC721": true,
                        "sign": true,
                        "tokenID": "6069",
                        "value": ""
                    },
                    {
                        "address": "0xf9afa20983e169879683582dbb60be9c354fa738",
                        "amount": "1",
                        "iconUrl": "",
                        "isERC1155": false,
                        "isERC721": true,
                        "sign": true,
                        "tokenID": "6070",
                        "value": ""
                    },
                    {
                        "address": "0xf9afa20983e169879683582dbb60be9c354fa738",
                        "amount": "1",
                        "iconUrl": "",
                        "isERC1155": false,
                        "isERC721": true,
                        "sign": true,
                        "tokenID": "6071",
                        "value": ""
                    }
                ]
            }
        ]
    },
    "profile": {
        "basic_info": {
            "baseFee": "97.356526041",
            "blockNumber": 13400500,
            "callData": "0x49964b3d0000000000000000000000000000000000000000000000000000000000000009",
            "debugEnable": true,
            "errorInfo": "",
            "eventCount": 10,
            "feeRecipient": "0xea674fdde714fd979de3edf0f56aa9716b898ec8",
            "formatValue": "0",
            "gasLimit": 408499,
            "gasPrice": "100.356526041",
            "gasUsed": 270272,
            "intTxnCount": 1,
            "internalRevert": false,
            "internalRevertMessage": "",
            "isContractCreation": false,
            "isFlashloan": false,
            "maxFee": "102",
            "nonce": 96,
            "overwritedBlockNumber": -1,
            "priorityFee": "3",
            "receiver": "0xf9afa20983e169879683582dbb60be9c354fa738",
            "revertMessage": "",
            "sender": "0x9ba8a7c331769b70b8755573eda5027ee327bb9d",
            "simulationEnable": true,
            "sourceTxnHash": "0x6668a8b7a266deee4101a3e611fc20308399c0612b3fe41f9b4ff6d9a998b24d",
            "status": true,
            "timestamp": "2021-10-12T00:25:40Z",
            "transactionFee": "0.027123559006153152",
            "txnHash": "0x6668a8b7a266deee4101a3e611fc20308399c0612b3fe41f9b4ff6d9a998b24d",
            "txnIndex": 47,
            "type": 2,
            "value": "0"
        },
        "fund_flow": [
            {
                "amount": "1",
                "from": "0x0000000000000000000000000000000000000000",
                "id": 1,
                "isERC1155": false,
                "isERC721": true,
                "isReverted": false,
                "order": 1,
                "to": "0x9ba8a7c331769b70b8755573eda5027ee327bb9d",
                "token": "0xf9afa20983e169879683582dbb60be9c354fa738",
                "tokenID": "6066"
            },
            {
                "amount": "1",
                "from": "0x0000000000000000000000000000000000000000",
                "id": 2,
                "isERC1155": false,
                "isERC721": true,
                "isReverted": false,
                "order": 2,
                "to": "0x9ba8a7c331769b70b8755573eda5027ee327bb9d",
                "token": "0xf9afa20983e169879683582dbb60be9c354fa738",
                "tokenID": "6067"
            },
            {
                "amount": "1",
                "from": "0x0000000000000000000000000000000000000000",
                "id": 3,
                "isERC1155": false,
                "isERC721": true,
                "isReverted": false,
                "order": 3,
                "to": "0x9ba8a7c331769b70b8755573eda5027ee327bb9d",
                "token": "0xf9afa20983e169879683582dbb60be9c354fa738",
                "tokenID": "6068"
            },
            {
                "amount": "1",
                "from": "0x0000000000000000000000000000000000000000",
                "id": 4,
                "isERC1155": false,
                "isERC721": true,
                "isReverted": false,
                "order": 4,
                "to": "0x9ba8a7c331769b70b8755573eda5027ee327bb9d",
                "token": "0xf9afa20983e169879683582dbb60be9c354fa738",
                "tokenID": "6069"
            },
            {
                "amount": "1",
                "from": "0x0000000000000000000000000000000000000000",
                "id": 5,
                "isERC1155": false,
                "isERC721": true,
                "isReverted": false,
                "order": 5,
                "to": "0x9ba8a7c331769b70b8755573eda5027ee327bb9d",
                "token": "0xf9afa20983e169879683582dbb60be9c354fa738",
                "tokenID": "6070"
            },
            {
                "amount": "1",
                "from": "0x0000000000000000000000000000000000000000",
                "id": 6,
                "isERC1155": false,
                "isERC721": true,
                "isReverted": false,
                "order": 6,
                "to": "0x9ba8a7c331769b70b8755573eda5027ee327bb9d",
                "token": "0xf9afa20983e169879683582dbb60be9c354fa738",
                "tokenID": "6071"
            },
            {
                "amount": "1",
                "from": "0x0000000000000000000000000000000000000000",
                "id": 7,
                "isERC1155": false,
                "isERC721": true,
                "isReverted": false,
                "order": 7,
                "to": "0x9ba8a7c331769b70b8755573eda5027ee327bb9d",
                "token": "0xf9afa20983e169879683582dbb60be9c354fa738",
                "tokenID": "6072"
            },
            {
                "amount": "1",
                "from": "0x0000000000000000000000000000000000000000",
                "id": 8,
                "isERC1155": false,
                "isERC721": true,
                "isReverted": false,
                "order": 8,
                "to": "0x9ba8a7c331769b70b8755573eda5027ee327bb9d",
                "token": "0xf9afa20983e169879683582dbb60be9c354fa738",
                "tokenID": "6073"
            },
            {
                "amount": "1",
                "from": "0x0000000000000000000000000000000000000000",
                "id": 9,
                "isERC1155": false,
                "isERC721": true,
                "isReverted": false,
                "order": 9,
                "to": "0x9ba8a7c331769b70b8755573eda5027ee327bb9d",
                "token": "0xf9afa20983e169879683582dbb60be9c354fa738",
                "tokenID": "6074"
            }
        ],
        "token_infos": [
            {
                "address": "0xc02aaa39b223fe8d0a0e5c4f27ead9083c756cc2",
                "decimals": 18
            },
            {
                "address": "0xeeeeeeeeeeeeeeeeeeeeeeeeeeeeeeeeeeeeeeee",
                "decimals": 18
            }
        ]
    },
    "address_label": {
        "labels": [
            {
                "address": "0xeeeeeeeeeeeeeeeeeeeeeeeeeeeeeeeeeeeeeeee",
                "label": "Ether"
            },
            {
                "address": "0xf9afa20983e169879683582dbb60be9c354fa738",
                "label": "Ready Playa One (RP1)"
            },
            {
                "address": "0x0000000000000000000000000000000000000001",
                "label": "Precompiled"
            },
            {
                "address": "0x0000000000000000000000000000000000000002",
                "label": "Precompiled"
            },
            {
                "address": "0x0000000000000000000000000000000000000003",
                "label": "Precompiled"
            },
            {
                "address": "0x0000000000000000000000000000000000000004",
                "label": "Precompiled"
            }
        ]
    },
    "trace": {
        "accountLabels": null,
        "dataMap": {
            "-1": {
                "invocation": {
                    "address": "0x9ba8a7c331769b70b8755573eda5027ee327bb9d",
                    "callData": "",
                    "decodedMethod": null,
                    "errorInfo": "",
                    "fromAddress": "",
                    "gasUsed": 0,
                    "id": -1,
                    "methodDecoded": false,
                    "operation": "",
                    "output": "",
                    "revert": false,
                    "revertMessage": "",
                    "selector": "",
                    "status": false,
                    "value": ""
                },
                "nodeType": 0
            },
            "0": {
                "invocation": {
                    "address": "0xf9afa20983e169879683582dbb60be9c354fa738",
                    "callData": "0x0000000000000000000000000000000000000000000000000000000000000009",
                    "decodedMethod": {
                        "callParams": [
                            {
                                "name": "_numberOfPlayas",
                                "type": "uint256",
                                "value": "9"
                            }
                        ],
                        "constructorArguments": "",
                        "name": "mintPlayas",
                        "returnParams": [],
                        "signature": "mintPlayas(uint256)"
                    },
                    "errorInfo": "",
                    "fromAddress": "0x9ba8a7c331769b70b8755573eda5027ee327bb9d",
                    "gasUsed": 270272,
                    "id": 0,
                    "methodDecoded": true,
                    "operation": "CALL",
                    "output": "",
                    "revert": false,
                    "revertMessage": "",
                    "selector": "0x49964b3d",
                    "status": true,
                    "value": "0"
                },
                "nodeType": 0
            },
            "1": {
                "invocation": {
                    "address": "0xf9afa20983e169879683582dbb60be9c354fa738",
                    "callData": "0x",
                    "decodedMethod": null,
                    "errorInfo": "",
                    "fromAddress": "0xf9afa20983e169879683582dbb60be9c354fa738",
                    "gasUsed": 1405,
                    "id": 1,
                    "methodDecoded": false,
                    "operation": "CALL",
                    "output": "",
                    "revert": false,
                    "revertMessage": "",
                    "selector": "fallback",
                    "status": true,
                    "value": "0"
                },
                "nodeType": 0
            },
            "10": {
                "event": {
                    "contract": "0xf9afa20983e169879683582dbb60be9c354fa738",
                    "decodedLog": {
                        "name": "Transfer",
                        "params": [
                            {
                                "name": "from",
                                "type": "address",
                                "value": "0x0000000000000000000000000000000000000000"
                            },
                            {
                                "name": "to",
                                "type": "address",
                                "value": "0x9ba8a7c331769b70b8755573eda5027ee327bb9d"
                            },
                            {
                                "decimalAvailable": true,
                                "name": "tokenId",
                                "type": "uint256",
                                "value": "6,073"
                            }
                        ],
                        "signature": "Transfer(address,address,uint256)"
                    },
                    "id": 10,
                    "logData": "0x",
                    "logDecoded": true,
                    "operation": "EVENT",
                    "revert": false,
                    "status": true,
                    "topics": [
                        "0xddf252ad1be2c89b69c2b068fc378daa952ba7f163c4a11628f55a4df523b3ef",
                        "0x0000000000000000000000000000000000000000000000000000000000000000",
                        "0x0000000000000000000000009ba8a7c331769b70b8755573eda5027ee327bb9d",
                        "0x00000000000000000000000000000000000000000000000000000000000017b9"
                    ]
                },
                "nodeType": 1
            },
            "11": {
                "event": {
                    "contract": "0xf9afa20983e169879683582dbb60be9c354fa738",
                    "decodedLog": {
                        "name": "Transfer",
                        "params": [
                            {
                                "name": "from",
                                "type": "address",
                                "value": "0x0000000000000000000000000000000000000000"
                            },
                            {
                                "name": "to",
                                "type": "address",
                                "value": "0x9ba8a7c331769b70b8755573eda5027ee327bb9d"
                            },
                            {
                                "decimalAvailable": true,
                                "name": "tokenId",
                                "type": "uint256",
                                "value": "6,074"
                            }
                        ],
                        "signature": "Transfer(address,address,uint256)"
                    },
                    "id": 11,
                    "logData": "0x",
                    "logDecoded": true,
                    "operation": "EVENT",
                    "revert": false,
                    "status": true,
                    "topics": [
                        "0xddf252ad1be2c89b69c2b068fc378daa952ba7f163c4a11628f55a4df523b3ef",
                        "0x0000000000000000000000000000000000000000000000000000000000000000",
                        "0x0000000000000000000000009ba8a7c331769b70b8755573eda5027ee327bb9d",
                        "0x00000000000000000000000000000000000000000000000000000000000017ba"
                    ]
                },
                "nodeType": 1
            },
            "2": {
                "event": {
                    "contract": "0xf9afa20983e169879683582dbb60be9c354fa738",
                    "decodedLog": {
                        "name": "PaymentReceived",
                        "params": [
                            {
                                "name": "from",
                                "type": "address",
                                "value": "0xf9afa20983e169879683582dbb60be9c354fa738"
                            },
                            {
                                "name": "amount",
                                "type": "uint256",
                                "value": "0"
                            }
                        ],
                        "signature": "PaymentReceived(address,uint256)"
                    },
                    "id": 2,
                    "logData": "0x000000000000000000000000f9afa20983e169879683582dbb60be9c354fa7380000000000000000000000000000000000000000000000000000000000000000",
                    "logDecoded": true,
                    "operation": "EVENT",
                    "revert": false,
                    "status": true,
                    "topics": [
                        "0x6ef95f06320e7a25a04a175ca677b7052bdd97131872c2192525a629f51be770"
                    ]
                },
                "nodeType": 1
            },
            "3": {
                "event": {
                    "contract": "0xf9afa20983e169879683582dbb60be9c354fa738",
                    "decodedLog": {
                        "name": "Transfer",
                        "params": [
                            {
                                "name": "from",
                                "type": "address",
                                "value": "0x0000000000000000000000000000000000000000"
                            },
                            {
                                "name": "to",
                                "type": "address",
                                "value": "0x9ba8a7c331769b70b8755573eda5027ee327bb9d"
                            },
                            {
                                "decimalAvailable": true,
                                "name": "tokenId",
                                "type": "uint256",
                                "value": "6,066"
                            }
                        ],
                        "signature": "Transfer(address,address,uint256)"
                    },
                    "id": 3,
                    "logData": "0x",
                    "logDecoded": true,
                    "operation": "EVENT",
                    "revert": false,
                    "status": true,
                    "topics": [
                        "0xddf252ad1be2c89b69c2b068fc378daa952ba7f163c4a11628f55a4df523b3ef",
                        "0x0000000000000000000000000000000000000000000000000000000000000000",
                        "0x0000000000000000000000009ba8a7c331769b70b8755573eda5027ee327bb9d",
                        "0x00000000000000000000000000000000000000000000000000000000000017b2"
                    ]
                },
                "nodeType": 1
            },
            "4": {
                "event": {
                    "contract": "0xf9afa20983e169879683582dbb60be9c354fa738",
                    "decodedLog": {
                        "name": "Transfer",
                        "params": [
                            {
                                "name": "from",
                                "type": "address",
                                "value": "0x0000000000000000000000000000000000000000"
                            },
                            {
                                "name": "to",
                                "type": "address",
                                "value": "0x9ba8a7c331769b70b8755573eda5027ee327bb9d"
                            },
                            {
                                "decimalAvailable": true,
                                "name": "tokenId",
                                "type": "uint256",
                                "value": "6,067"
                            }
                        ],
                        "signature": "Transfer(address,address,uint256)"
                    },
                    "id": 4,
                    "logData": "0x",
                    "logDecoded": true,
                    "operation": "EVENT",
                    "revert": false,
                    "status": true,
                    "topics": [
                        "0xddf252ad1be2c89b69c2b068fc378daa952ba7f163c4a11628f55a4df523b3ef",
                        "0x0000000000000000000000000000000000000000000000000000000000000000",
                        "0x0000000000000000000000009ba8a7c331769b70b8755573eda5027ee327bb9d",
                        "0x00000000000000000000000000000000000000000000000000000000000017b3"
                    ]
                },
                "nodeType": 1
            },
            "5": {
                "event": {
                    "contract": "0xf9afa20983e169879683582dbb60be9c354fa738",
                    "decodedLog": {
                        "name": "Transfer",
                        "params": [
                            {
                                "name": "from",
                                "type": "address",
                                "value": "0x0000000000000000000000000000000000000000"
                            },
                            {
                                "name": "to",
                                "type": "address",
                                "value": "0x9ba8a7c331769b70b8755573eda5027ee327bb9d"
                            },
                            {
                                "decimalAvailable": true,
                                "name": "tokenId",
                                "type": "uint256",
                                "value": "6,068"
                            }
                        ],
                        "signature": "Transfer(address,address,uint256)"
                    },
                    "id": 5,
                    "logData": "0x",
                    "logDecoded": true,
                    "operation": "EVENT",
                    "revert": false,
                    "status": true,
                    "topics": [
                        "0xddf252ad1be2c89b69c2b068fc378daa952ba7f163c4a11628f55a4df523b3ef",
                        "0x0000000000000000000000000000000000000000000000000000000000000000",
                        "0x0000000000000000000000009ba8a7c331769b70b8755573eda5027ee327bb9d",
                        "0x00000000000000000000000000000000000000000000000000000000000017b4"
                    ]
                },
                "nodeType": 1
            },
            "6": {
                "event": {
                    "contract": "0xf9afa20983e169879683582dbb60be9c354fa738",
                    "decodedLog": {
                        "name": "Transfer",
                        "params": [
                            {
                                "name": "from",
                                "type": "address",
                                "value": "0x0000000000000000000000000000000000000000"
                            },
                            {
                                "name": "to",
                                "type": "address",
                                "value": "0x9ba8a7c331769b70b8755573eda5027ee327bb9d"
                            },
                            {
                                "decimalAvailable": true,
                                "name": "tokenId",
                                "type": "uint256",
                                "value": "6,069"
                            }
                        ],
                        "signature": "Transfer(address,address,uint256)"
                    },
                    "id": 6,
                    "logData": "0x",
                    "logDecoded": true,
                    "operation": "EVENT",
                    "revert": false,
                    "status": true,
                    "topics": [
                        "0xddf252ad1be2c89b69c2b068fc378daa952ba7f163c4a11628f55a4df523b3ef",
                        "0x0000000000000000000000000000000000000000000000000000000000000000",
                        "0x0000000000000000000000009ba8a7c331769b70b8755573eda5027ee327bb9d",
                        "0x00000000000000000000000000000000000000000000000000000000000017b5"
                    ]
                },
                "nodeType": 1
            },
            "7": {
                "event": {
                    "contract": "0xf9afa20983e169879683582dbb60be9c354fa738",
                    "decodedLog": {
                        "name": "Transfer",
                        "params": [
                            {
                                "name": "from",
                                "type": "address",
                                "value": "0x0000000000000000000000000000000000000000"
                            },
                            {
                                "name": "to",
                                "type": "address",
                                "value": "0x9ba8a7c331769b70b8755573eda5027ee327bb9d"
                            },
                            {
                                "decimalAvailable": true,
                                "name": "tokenId",
                                "type": "uint256",
                                "value": "6,070"
                            }
                        ],
                        "signature": "Transfer(address,address,uint256)"
                    },
                    "id": 7,
                    "logData": "0x",
                    "logDecoded": true,
                    "operation": "EVENT",
                    "revert": false,
                    "status": true,
                    "topics": [
                        "0xddf252ad1be2c89b69c2b068fc378daa952ba7f163c4a11628f55a4df523b3ef",
                        "0x0000000000000000000000000000000000000000000000000000000000000000",
                        "0x0000000000000000000000009ba8a7c331769b70b8755573eda5027ee327bb9d",
                        "0x00000000000000000000000000000000000000000000000000000000000017b6"
                    ]
                },
                "nodeType": 1
            },
            "8": {
                "event": {
                    "contract": "0xf9afa20983e169879683582dbb60be9c354fa738",
                    "decodedLog": {
                        "name": "Transfer",
                        "params": [
                            {
                                "name": "from",
                                "type": "address",
                                "value": "0x0000000000000000000000000000000000000000"
                            },
                            {
                                "name": "to",
                                "type": "address",
                                "value": "0x9ba8a7c331769b70b8755573eda5027ee327bb9d"
                            },
                            {
                                "decimalAvailable": true,
                                "name": "tokenId",
                                "type": "uint256",
                                "value": "6,071"
                            }
                        ],
                        "signature": "Transfer(address,address,uint256)"
                    },
                    "id": 8,
                    "logData": "0x",
                    "logDecoded": true,
                    "operation": "EVENT",
                    "revert": false,
                    "status": true,
                    "topics": [
                        "0xddf252ad1be2c89b69c2b068fc378daa952ba7f163c4a11628f55a4df523b3ef",
                        "0x0000000000000000000000000000000000000000000000000000000000000000",
                        "0x0000000000000000000000009ba8a7c331769b70b8755573eda5027ee327bb9d",
                        "0x00000000000000000000000000000000000000000000000000000000000017b7"
                    ]
                },
                "nodeType": 1
            },
            "9": {
                "event": {
                    "contract": "0xf9afa20983e169879683582dbb60be9c354fa738",
                    "decodedLog": {
                        "name": "Transfer",
                        "params": [
                            {
                                "name": "from",
                                "type": "address",
                                "value": "0x0000000000000000000000000000000000000000"
                            },
                            {
                                "name": "to",
                                "type": "address",
                                "value": "0x9ba8a7c331769b70b8755573eda5027ee327bb9d"
                            },
                            {
                                "decimalAvailable": true,
                                "name": "tokenId",
                                "type": "uint256",
                                "value": "6,072"
                            }
                        ],
                        "signature": "Transfer(address,address,uint256)"
                    },
                    "id": 9,
                    "logData": "0x",
                    "logDecoded": true,
                    "operation": "EVENT",
                    "revert": false,
                    "status": true,
                    "topics": [
                        "0xddf252ad1be2c89b69c2b068fc378daa952ba7f163c4a11628f55a4df523b3ef",
                        "0x0000000000000000000000000000000000000000000000000000000000000000",
                        "0x0000000000000000000000009ba8a7c331769b70b8755573eda5027ee327bb9d",
                        "0x00000000000000000000000000000000000000000000000000000000000017b8"
                    ]
                },
                "nodeType": 1
            }
        },
        "gasFlame": [
            {
                "children": [
                    {
                        "children": [
                            {
                                "children": [],
                                "depth": 0,
                                "name": "Initial Gas",
                                "value": 21204
                            },
                            {
                                "children": [
                                    {
                                        "children": [],
                                        "depth": 1,
                                        "name": "fallback",
                                        "value": 1405
                                    }
                                ],
                                "depth": 0,
                                "name": "Executed Gas",
                                "value": 249068
                            }
                        ],
                        "depth": -1,
                        "name": "Actual Gas Used",
                        "value": 270272
                    },
                    {
                        "children": [],
                        "depth": -1,
                        "name": "Refunded Gas",
                        "value": 0
                    }
                ],
                "depth": -2,
                "name": "Total Gas",
                "value": 270272
            }
        ],
        "isConfirmed": true,
        "mainTrace": [
            {
                "children": [
                    {
                        "children": [
                            {
                                "children": [
                                    {
                                        "children": [],
                                        "depth": 2,
                                        "id": 2,
                                        "order": 2
                                    }
                                ],
                                "depth": 1,
                                "id": 1,
                                "order": 1
                            },
                            {
                                "children": [],
                                "depth": 1,
                                "id": 3,
                                "order": 3
                            },
                            {
                                "children": [],
                                "depth": 1,
                                "id": 4,
                                "order": 4
                            },
                            {
                                "children": [],
                                "depth": 1,
                                "id": 5,
                                "order": 5
                            },
                            {
                                "children": [],
                                "depth": 1,
                                "id": 6,
                                "order": 6
                            },
                            {
                                "children": [],
                                "depth": 1,
                                "id": 7,
                                "order": 7
                            },
                            {
                                "children": [],
                                "depth": 1,
                                "id": 8,
                                "order": 8
                            },
                            {
                                "children": [],
                                "depth": 1,
                                "id": 9,
                                "order": 9
                            },
                            {
                                "children": [],
                                "depth": 1,
                                "id": 10,
                                "order": 10
                            },
                            {
                                "children": [],
                                "depth": 1,
                                "id": 11,
                                "order": 11
                            }
                        ],
                        "depth": 0,
                        "id": 0,
                        "order": 0
                    }
                ],
                "depth": -1,
                "id": -1,
                "order": -1
            }
        ],
        "mainTraceNodeCount": 12,
        "parentIdMap": {
            "0": -1,
            "1": 0,
            "10": 0,
            "11": 0,
            "2": 1,
            "3": 0,
            "4": 0,
            "5": 0,
            "6": 0,
            "7": 0,
            "8": 0,
            "9": 0
        },
        "tidyTrace": [
            {
                "children": [
                    {
                        "children": [
                            {
                                "children": [
                                    {
                                        "children": [],
                                        "depth": 2,
                                        "id": 2,
                                        "order": 2
                                    }
                                ],
                                "depth": 1,
                                "id": 1,
                                "order": 1
                            },
                            {
                                "children": [],
                                "depth": 1,
                                "id": 3,
                                "order": 3
                            },
                            {
                                "children": [],
                                "depth": 1,
                                "id": 4,
                                "order": 4
                            },
                            {
                                "children": [],
                                "depth": 1,
                                "id": 5,
                                "order": 5
                            },
                            {
                                "children": [],
                                "depth": 1,
                                "id": 6,
                                "order": 6
                            },
                            {
                                "children": [],
                                "depth": 1,
                                "id": 7,
                                "order": 7
                            },
                            {
                                "children": [],
                                "depth": 1,
                                "id": 8,
                                "order": 8
                            },
                            {
                                "children": [],
                                "depth": 1,
                                "id": 9,
                                "order": 9
                            },
                            {
                                "children": [],
                                "depth": 1,
                                "id": 10,
                                "order": 10
                            },
                            {
                                "children": [],
                                "depth": 1,
                                "id": 11,
                                "order": 11
                            }
                        ],
                        "depth": 0,
                        "id": 0,
                        "order": 0
                    }
                ],
                "depth": -1,
                "id": -1,
                "order": -1
            }
        ],
        "tidyTraceNodeCount": 12
    },
    "state_change": {
        "stateChanges": [
            {
                "address": "0xf9afa20983e169879683582dbb60be9c354fa738",
                "erc": "ERC-721",
                "slots": [
                    {
                        "current": "0x0000000000000000000000009ba8a7c331769b70b8755573eda5027ee327bb9d",
                        "key": "0x365fe0ed9c36c5fcb26d57e1a0de4d565b3d865535d3ee11c70808174644c1d8",
                        "prev": "0x0000000000000000000000000000000000000000000000000000000000000000"
                    },
                    {
                        "current": "0x0000000000000000000000009ba8a7c331769b70b8755573eda5027ee327bb9d",
                        "key": "0x49c8a932bde5b44d160f91292a954339e9b783d1f72cb7a31baf82bbb41f6089",
                        "prev": "0x0000000000000000000000000000000000000000000000000000000000000000"
                    },
                    {
                        "current": "0x0000000000000000000000000000000000000000000000000000000000000013",
                        "key": "0x365e92143f730d6ac992563b42108a668f6f56a2538166c008cd237138be6219",
                        "prev": "0x000000000000000000000000000000000000000000000000000000000000000a"
                    },
                    {
                        "current": "0x0000000000000000000000009ba8a7c331769b70b8755573eda5027ee327bb9d",
                        "key": "0x56f9b2c4fdcb5fa7d42cf4328f0f63cee176b9ab6381dec762724b57b0e555c7",
                        "prev": "0x0000000000000000000000000000000000000000000000000000000000000000"
                    },
                    {
                        "current": "0x0000000000000000000000009ba8a7c331769b70b8755573eda5027ee327bb9d",
                        "key": "0x92d11069db335682b530c6c0499beb66381cc69211ed9cf0bb9691ea562c084a",
                        "prev": "0x0000000000000000000000000000000000000000000000000000000000000000"
                    },
                    {
                        "current": "0x0000000000000000000000009ba8a7c331769b70b8755573eda5027ee327bb9d",
                        "key": "0x9b56092cbee445c53d9c19cf799782a3cbcc74066cddb6851d62bd1625c8a10b",
                        "prev": "0x0000000000000000000000000000000000000000000000000000000000000000"
                    },
                    {
                        "current": "0x00000000000000000000000000000000000000000000000000000000000017ba",
                        "key": "0x000000000000000000000000000000000000000000000000000000000000000e",
                        "prev": "0x00000000000000000000000000000000000000000000000000000000000017b1"
                    },
                    {
                        "current": "0x0000000000000000000000009ba8a7c331769b70b8755573eda5027ee327bb9d",
                        "key": "0x0565990a1594d200bdc3d253fc6c45b822fde371e6f1f75108487faf8508dfe1",
                        "prev": "0x0000000000000000000000000000000000000000000000000000000000000000"
                    },
                    {
                        "current": "0x0000000000000000000000009ba8a7c331769b70b8755573eda5027ee327bb9d",
                        "key": "0x2fe3b35e8acc0abbfbdd7a0aa62465d7f5bcfe6ae6f55e5e8ec14d0e8b0b9d03",
                        "prev": "0x0000000000000000000000000000000000000000000000000000000000000000"
                    },
                    {
                        "current": "0x0000000000000000000000009ba8a7c331769b70b8755573eda5027ee327bb9d",
                        "key": "0x9a578af5a48d3f4002e49691f7d81837ef69a69d4cdb6c57e7b8b8cd335d6771",
                        "prev": "0x0000000000000000000000000000000000000000000000000000000000000000"
                    },
                    {
                        "current": "0x0000000000000000000000009ba8a7c331769b70b8755573eda5027ee327bb9d",
                        "key": "0x6a896625fc49ce4839b3324ac3b0bf9c0cc567043de24ec75950730734fd856e",
                        "prev": "0x0000000000000000000000000000000000000000000000000000000000000000"
                    }
                ],
                "storageVariables": [
                    {
                        "name": "_balances",
                        "type": "mapping(address => uint256)",
                        "value": {
                            "pairs": [
                                {
                                    "key": "0x9ba8a7c331769b70b8755573eda5027ee327bb9d",
                                    "value": {
                                        "current": "19",
                                        "prev": "10",
                                        "typeTag": 1
                                    }
                                }
                            ],
                            "typeTag": 4
                        }
                    },
                    {
                        "name": "_tokenIdCounter",
                        "type": "struct Counters.Counter",
                        "value": {
                            "fields": [
                                {
                                    "name": "_value",
                                    "type": "uint256",
                                    "value": {
                                        "current": "6074",
                                        "prev": "6065",
                                        "typeTag": 1
                                    }
                                }
                            ],
                            "typeTag": 3
                        }
                    },
                    {
                        "name": "_owners",
                        "type": "mapping(uint256 => address)",
                        "value": {
                            "pairs": [
                                {
                                    "key": "6066",
                                    "value": {
                                        "current": "0x9ba8a7c331769b70b8755573eda5027ee327bb9d",
                                        "prev": "0x0000000000000000000000000000000000000000",
                                        "typeTag": 1
                                    }
                                },
                                {
                                    "key": "6067",
                                    "value": {
                                        "current": "0x9ba8a7c331769b70b8755573eda5027ee327bb9d",
                                        "prev": "0x0000000000000000000000000000000000000000",
                                        "typeTag": 1
                                    }
                                },
                                {
                                    "key": "6068",
                                    "value": {
                                        "current": "0x9ba8a7c331769b70b8755573eda5027ee327bb9d",
                                        "prev": "0x0000000000000000000000000000000000000000",
                                        "typeTag": 1
                                    }
                                },
                                {
                                    "key": "6069",
                                    "value": {
                                        "current": "0x9ba8a7c331769b70b8755573eda5027ee327bb9d",
                                        "prev": "0x0000000000000000000000000000000000000000",
                                        "typeTag": 1
                                    }
                                },
                                {
                                    "key": "6070",
                                    "value": {
                                        "current": "0x9ba8a7c331769b70b8755573eda5027ee327bb9d",
                                        "prev": "0x0000000000000000000000000000000000000000",
                                        "typeTag": 1
                                    }
                                },
                                {
                                    "key": "6071",
                                    "value": {
                                        "current": "0x9ba8a7c331769b70b8755573eda5027ee327bb9d",
                                        "prev": "0x0000000000000000000000000000000000000000",
                                        "typeTag": 1
                                    }
                                },
                                {
                                    "key": "6072",
                                    "value": {
                                        "current": "0x9ba8a7c331769b70b8755573eda5027ee327bb9d",
                                        "prev": "0x0000000000000000000000000000000000000000",
                                        "typeTag": 1
                                    }
                                },
                                {
                                    "key": "6073",
                                    "value": {
                                        "current": "0x9ba8a7c331769b70b8755573eda5027ee327bb9d",
                                        "prev": "0x0000000000000000000000000000000000000000",
                                        "typeTag": 1
                                    }
                                },
                                {
                                    "key": "6074",
                                    "value": {
                                        "current": "0x9ba8a7c331769b70b8755573eda5027ee327bb9d",
                                        "prev": "0x0000000000000000000000000000000000000000",
                                        "typeTag": 1
                                    }
                                }
                            ],
                            "typeTag": 4
                        }
                    }
                ]
            }
        ]
    }
}