{
    "balance_change": {
        "balanceChanges": [
            {
                "account": "0x0a469d69f99f07804f74bcc1e3a6f8065132ea09",
                "assets": [
                    {
                        "address": "0xe99a894a69d7c2e3c92e61b64c505a6a57d2bc07",
                        "amount": "483.9274",
                        "iconUrl": "",
                        "isERC1155": false,
                        "isERC721": false,
                        "sign": false,
                        "value": ""
                    }
                ]
            },
            {
                "account": "0x8211d62e3132370978be129b7effc24753abc1c1",
                "assets": [
                    {
                        "address": "0xe99a894a69d7c2e3c92e61b64c505a6a57d2bc07",
                        "amount": "483.9274",
                        "iconUrl": "",
                        "isERC1155": false,
                        "isERC721": false,
                        "sign": true,
                        "value": ""
                    }
                ]
            }
        ]
    },
    "profile": {
        "basic_info": {
            "baseFee": "",
            "blockNumber": 10923019,
            "callData": "0xa9059cbb0000000000000000000000008211d62e3132370978be129b7effc24753abc1c100000000000000000000000000000000000000000000001a3bd77e57be5e8000",
            "debugEnable": true,
            "errorInfo": "",
            "eventCount": 1,
            "feeRecipient": "0x829bd824b016326a401d083b33d092293333a830",
            "formatValue": "0",
            "gasLimit": 64000,
            "gasPrice": "90",
            "gasUsed": 37153,
            "intTxnCount": 0,
            "internalRevert": false,
            "internalRevertMessage": "",
            "isContractCreation": false,
            "isFlashloan": false,
            "maxFee": "",
            "nonce": 1,
            "overwritedBlockNumber": -1,
            "priorityFee": "",
            "receiver": "0xe99a894a69d7c2e3c92e61b64c505a6a57d2bc07",
            "revertMessage": "",
            "sender": "0x0a469d69f99f07804f74bcc1e3a6f8065132ea09",
            "simulationEnable": true,
            "sourceTxnHash": "0x66e36caaaa5390d1bd4970cbfad5465d713f0a20ebf66c36f64070c19acc6403",
            "status": true,
            "timestamp": "2020-09-24T04:05:18Z",
            "transactionFee": "0.00334377",
            "txnHash": "0x66e36caaaa5390d1bd4970cbfad5465d713f0a20ebf66c36f64070c19acc6403",
            "txnIndex": 113,
            "type": 0,
            "value": "0"
        },
        "fund_flow": [
            {
                "amount": "483.9274",
                "from": "0x0a469d69f99f07804f74bcc1e3a6f8065132ea09",
                "id": 1,
                "isERC1155": false,
                "isERC721": false,
                "isReverted": false,
                "order": 1,
                "to": "0x8211d62e3132370978be129b7effc24753abc1c1",
                "token": "0xe99a894a69d7c2e3c92e61b64c505a6a57d2bc07"
            }
        ],
        "token_infos": [
            {
                "address": "0xc02aaa39b223fe8d0a0e5c4f27ead9083c756cc2",
                "decimals": 18
            },
            {
                "address": "0xe99a894a69d7c2e3c92e61b64c505a6a57d2bc07",
                "decimals": 18
            },
            {
                "address": "0xeeeeeeeeeeeeeeeeeeeeeeeeeeeeeeeeeeeeeeee",
                "decimals": 18
            }
        ]
    },
    "address_label": {
        "labels": [
            {
                "address": "0x0000000000000000000000000000000000000002",
                "label": "Precompiled"
            },
            {
                "address": "0x0000000000000000000000000000000000000003",
                "label": "Precompiled"
            },
            {
                "address": "0x0000000000000000000000000000000000000004",
                "label": "Precompiled"
            },
            {
                "address": "0xeeeeeeeeeeeeeeeeeeeeeeeeeeeeeeeeeeeeeeee",
                "label": "Ether"
            },
            {
                "address": "0xe99a894a69d7c2e3c92e61b64c505a6a57d2bc07",
                "label": "Hyperion: HYN Token"
            },
            {
                "address": "0x0000000000000000000000000000000000000001",
                "label": "Precompiled"
            }
        ]
    },
    "trace": {
        "accountLabels": null,
        "dataMap": {
            "-1": {
                "invocation": {
                    "address": "0x0a469d69f99f07804f74bcc1e3a6f8065132ea09",
                    "callData": "",
                    "decodedMethod": null,
                    "errorInfo": "",
                    "fromAddress": "",
                    "gasUsed": 0,
                    "id": -1,
                    "methodDecoded": false,
                    "operation": "",
                    "output": "",
                    "revert": false,
                    "revertMessage": "",
                    "selector": "",
                    "status": false,
                    "value": ""
                },
                "nodeType": 0
            },
            "0": {
                "invocation": {
                    "address": "0xe99a894a69d7c2e3c92e61b64c505a6a57d2bc07",
                    "callData": "0x0000000000000000000000008211d62e3132370978be129b7effc24753abc1c100000000000000000000000000000000000000000000001a3bd77e57be5e8000",
                    "decodedMethod": {
                        "callParams": [
                            {
                                "name": "_to",
                                "type": "address",
                                "value": "0x8211d62e3132370978be129b7effc24753abc1c1"
                            },
                            {
                                "decimalAvailable": true,
                                "name": "_value",
                                "type": "uint256",
                                "value": "483,927,400,000,000,000,000"
                            }
                        ],
                        "constructorArguments": "",
                        "name": "transfer",
                        "returnParams": [
                            {
                                "name": "",
                                "type": "bool",
                                "value": true
                            }
                        ],
                        "signature": "transfer(address,uint256)"
                    },
                    "errorInfo": "",
                    "fromAddress": "0x0a469d69f99f07804f74bcc1e3a6f8065132ea09",
                    "gasUsed": 37153,
                    "id": 0,
                    "methodDecoded": true,
                    "operation": "CALL",
                    "output": "0x0000000000000000000000000000000000000000000000000000000000000001",
                    "revert": false,
                    "revertMessage": "",
                    "selector": "0xa9059cbb",
                    "status": true,
                    "value": "0"
                },
                "nodeType": 0
            },
            "1": {
                "event": {
                    "contract": "0xe99a894a69d7c2e3c92e61b64c505a6a57d2bc07",
                    "decodedLog": {
                        "name": "Transfer",
                        "params": [
                            {
                                "name": "from",
                                "type": "address",
                                "value": "0x0a469d69f99f07804f74bcc1e3a6f8065132ea09"
                            },
                            {
                                "name": "to",
                                "type": "address",
                                "value": "0x8211d62e3132370978be129b7effc24753abc1c1"
                            },
                            {
                                "decimalAvailable": true,
                                "name": "value",
                                "type": "uint256",
                                "value": "483,927,400,000,000,000,000"
                            }
                        ],
                        "signature": "Transfer(address,address,uint256)"
                    },
                    "id": 1,
                    "logData": "0x00000000000000000000000000000000000000000000001a3bd77e57be5e8000",
                    "logDecoded": true,
                    "operation": "EVENT",
                    "revert": false,
                    "status": true,
                    "topics": [
                        "0xddf252ad1be2c89b69c2b068fc378daa952ba7f163c4a11628f55a4df523b3ef",
                        "0x0000000000000000000000000a469d69f99f07804f74bcc1e3a6f8065132ea09",
                        "0x0000000000000000000000008211d62e3132370978be129b7effc24753abc1c1"
                    ]
                },
                "nodeType": 1
            }
        },
        "gasFlame": [
            {
                "children": [
                    {
                        "children": [
                            {
                                "children": [],
                                "depth": 0,
                                "name": "Initial Gas",
                                "value": 21656
                            },
                            {
                                "children": [],
                                "depth": 0,
                                "name": "Executed Gas",
                                "value": 15497
                            }
                        ],
                        "depth": -1,
                        "name": "Actual Gas Used",
                        "value": 37153
                    },
                    {
                        "children": [],
                        "depth": -1,
                        "name": "Refunded Gas",
                        "value": 0
                    }
                ],
                "depth": -2,
                "name": "Total Gas",
                "value": 37153
            }
        ],
        "isConfirmed": true,
        "mainTrace": [
            {
                "children": [
                    {
                        "children": [
                            {
                                "children": [],
                                "depth": 1,
                                "id": 1,
                                "order": 1
                            }
                        ],
                        "depth": 0,
                        "id": 0,
                        "order": 0
                    }
                ],
                "depth": -1,
                "id": -1,
                "order": -1
            }
        ],
        "mainTraceNodeCount": 2,
        "parentIdMap": {
            "0": -1,
            "1": 0
        },
        "tidyTrace": [
            {
                "children": [
                    {
                        "children": [
                            {
                                "children": [],
                                "depth": 1,
                                "id": 1,
                                "order": 1
                            }
                        ],
                        "depth": 0,
                        "id": 0,
                        "order": 0
                    }
                ],
                "depth": -1,
                "id": -1,
                "order": -1
            }
        ],
        "tidyTraceNodeCount": 2
    },
    "state_change": {
        "stateChanges": [
            {
                "address": "0xe99a894a69d7c2e3c92e61b64c505a6a57d2bc07",
                "erc": "ERC-20",
                "slots": [
                    {
                        "current": "0x00000000000000000000000000000000000000000014e8556bf415c54c0df000",
                        "key": "0xae3a5c03efb5b2e1583f8988e60bc920dd40719789023fcb8d7a78e540c9840b",
                        "prev": "0x00000000000000000000000000000000000000000014e83b301c976d8daf7000"
                    },
                    {
                        "current": "0x00000000000000000000000000000000000000000000000083573cce9ac64000",
                        "key": "0x9471127face5ab47609e14c448c4ea302ed799f3e81dcf93692e4f0678db088d",
                        "prev": "0x00000000000000000000000000000000000000000000001abf2ebb265924c000"
                    }
                ],
                "storageVariables": [
                    {
                        "name": "balances",
                        "type": "mapping(address => uint256)",
                        "value": {
                            "pairs": [
                                {
                                    "key": "0x0a469d69f99f07804f74bcc1e3a6f8065132ea09",
                                    "value": {
                                        "current": "9464100000000000000",
                                        "prev": "493391500000000000000",
                                        "typeTag": 1
                                    }
                                },
                                {
                                    "key": "0x8211d62e3132370978be129b7effc24753abc1c1",
                                    "value": {
                                        "current": "25275681168431000000000000",
                                        "prev": "25275197241031000000000000",
                                        "typeTag": 1
                                    }
                                }
                            ],
                            "typeTag": 4
                        }
                    }
                ]
            }
        ]
    }
}