{
    "balance_change": {
        "balanceChanges": [
            {
                "account": "0xb04a2232ea59f903a36e3ed4b1d1c90c71dc5814",
                "assets": [
                    {
                        "address": "0x4e3fbd56cd56c3e72c1403e103b45db9da5b9d2b",
                        "amount": "548.628687382721179857",
                        "iconUrl": "https://assets.blocksec.com/icon/c870022230e65319e25914ab58f92928989e1731491307605ba26c0ea334b989.png",
                        "isERC1155": false,
                        "isERC721": false,
                        "sign": false,
                        "value": ""
                    }
                ]
            },
            {
                "account": "0xcf50b810e57ac33b91dcf525c6ddd9881b139332",
                "assets": [
                    {
                        "address": "0x4e3fbd56cd56c3e72c1403e103b45db9da5b9d2b",
                        "amount": "548.628687382721179857",
                        "iconUrl": "https://assets.blocksec.com/icon/c870022230e65319e25914ab58f92928989e1731491307605ba26c0ea334b989.png",
                        "isERC1155": false,
                        "isERC721": false,
                        "sign": true,
                        "value": ""
                    }
                ]
            }
        ]
    },
    "profile": {
        "basic_info": {
            "baseFee": "",
            "blockNumber": 12847678,
            "callData": "0xa694fc3a00000000000000000000000000000000000000000000001dbdc0a46a4bedb0d1",
            "debugEnable": true,
            "errorInfo": "",
            "eventCount": 3,
            "feeRecipient": "0xea674fdde714fd979de3edf0f56aa9716b898ec8",
            "formatValue": "0",
            "gasLimit": 156766,
            "gasPrice": "34",
            "gasUsed": 89511,
            "intTxnCount": 1,
            "internalRevert": false,
            "internalRevertMessage": "",
            "isContractCreation": false,
            "isFlashloan": false,
            "maxFee": "",
            "nonce": 937,
            "overwritedBlockNumber": -1,
            "priorityFee": "",
            "receiver": "0xcf50b810e57ac33b91dcf525c6ddd9881b139332",
            "revertMessage": "",
            "sender": "0xb04a2232ea59f903a36e3ed4b1d1c90c71dc5814",
            "simulationEnable": true,
            "sourceTxnHash": "0x66b9b36a10cf1759f56c4eea553ba078ae326995151e88434ba555692605f6c2",
            "status": true,
            "timestamp": "2021-07-18T01:22:53Z",
            "transactionFee": "0.003043374",
            "txnHash": "0x66b9b36a10cf1759f56c4eea553ba078ae326995151e88434ba555692605f6c2",
            "txnIndex": 181,
            "type": 0,
            "value": "0"
        },
        "fund_flow": [
            {
                "amount": "548.628687382721179857",
                "from": "0xb04a2232ea59f903a36e3ed4b1d1c90c71dc5814",
                "id": 1,
                "isERC1155": false,
                "isERC721": false,
                "isReverted": false,
                "order": 1,
                "to": "0xcf50b810e57ac33b91dcf525c6ddd9881b139332",
                "token": "0x4e3fbd56cd56c3e72c1403e103b45db9da5b9d2b"
            }
        ],
        "token_infos": [
            {
                "address": "0xc02aaa39b223fe8d0a0e5c4f27ead9083c756cc2",
                "decimals": 18
            },
            {
                "address": "0xeeeeeeeeeeeeeeeeeeeeeeeeeeeeeeeeeeeeeeee",
                "decimals": 18
            },
            {
                "address": "0x4e3fbd56cd56c3e72c1403e103b45db9da5b9d2b",
                "decimals": 18
            }
        ]
    },
    "address_label": {
        "labels": [
            {
                "address": "0x4e3fbd56cd56c3e72c1403e103b45db9da5b9d2b",
                "label": "Convex Finance: CVX Token"
            },
            {
                "address": "0x0000000000000000000000000000000000000001",
                "label": "Precompiled"
            },
            {
                "address": "0x0000000000000000000000000000000000000002",
                "label": "Precompiled"
            },
            {
                "address": "0x0000000000000000000000000000000000000003",
                "label": "Precompiled"
            },
            {
                "address": "0x0000000000000000000000000000000000000004",
                "label": "Precompiled"
            },
            {
                "address": "0xeeeeeeeeeeeeeeeeeeeeeeeeeeeeeeeeeeeeeeee",
                "label": "Ether"
            },
            {
                "address": "0xcf50b810e57ac33b91dcf525c6ddd9881b139332",
                "label": "Convex Finance: CVX Rewards"
            }
        ]
    },
    "trace": {
        "accountLabels": null,
        "dataMap": {
            "-1": {
                "invocation": {
                    "address": "0xb04a2232ea59f903a36e3ed4b1d1c90c71dc5814",
                    "callData": "",
                    "decodedMethod": null,
                    "errorInfo": "",
                    "fromAddress": "",
                    "gasUsed": 0,
                    "id": -1,
                    "methodDecoded": false,
                    "operation": "",
                    "output": "",
                    "revert": false,
                    "revertMessage": "",
                    "selector": "",
                    "status": false,
                    "value": ""
                },
                "nodeType": 0
            },
            "0": {
                "invocation": {
                    "address": "0xcf50b810e57ac33b91dcf525c6ddd9881b139332",
                    "callData": "0x00000000000000000000000000000000000000000000001dbdc0a46a4bedb0d1",
                    "decodedMethod": {
                        "callParams": [
                            {
                                "name": "_amount",
                                "type": "uint256",
                                "value": "548,628,687,382,721,179,857"
                            }
                        ],
                        "constructorArguments": "",
                        "name": "stake",
                        "returnParams": [],
                        "signature": "stake(uint256)"
                    },
                    "errorInfo": "",
                    "fromAddress": "0xb04a2232ea59f903a36e3ed4b1d1c90c71dc5814",
                    "gasUsed": 89511,
                    "id": 0,
                    "methodDecoded": true,
                    "operation": "CALL",
                    "output": "",
                    "revert": false,
                    "revertMessage": "",
                    "selector": "0xa694fc3a",
                    "status": true,
                    "value": "0"
                },
                "nodeType": 0
            },
            "1": {
                "invocation": {
                    "address": "0x4e3fbd56cd56c3e72c1403e103b45db9da5b9d2b",
                    "callData": "0x000000000000000000000000b04a2232ea59f903a36e3ed4b1d1c90c71dc5814000000000000000000000000cf50b810e57ac33b91dcf525c6ddd9881b13933200000000000000000000000000000000000000000000001dbdc0a46a4bedb0d1",
                    "decodedMethod": {
                        "callParams": [
                            {
                                "name": "sender",
                                "type": "address",
                                "value": "0xb04a2232ea59f903a36e3ed4b1d1c90c71dc5814"
                            },
                            {
                                "name": "recipient",
                                "type": "address",
                                "value": "0xcf50b810e57ac33b91dcf525c6ddd9881b139332"
                            },
                            {
                                "decimalAvailable": true,
                                "name": "amount",
                                "type": "uint256",
                                "value": "548,628,687,382,721,179,857"
                            }
                        ],
                        "constructorArguments": "",
                        "name": "transferFrom",
                        "returnParams": [
                            {
                                "name": "",
                                "type": "bool",
                                "value": true
                            }
                        ],
                        "signature": "transferFrom(address,address,uint256)"
                    },
                    "errorInfo": "",
                    "fromAddress": "0xcf50b810e57ac33b91dcf525c6ddd9881b139332",
                    "gasUsed": 20391,
                    "id": 1,
                    "methodDecoded": true,
                    "operation": "CALL",
                    "output": "0x0000000000000000000000000000000000000000000000000000000000000001",
                    "revert": false,
                    "revertMessage": "",
                    "selector": "0x23b872dd",
                    "status": true,
                    "value": "0"
                },
                "nodeType": 0
            },
            "2": {
                "event": {
                    "contract": "0x4e3fbd56cd56c3e72c1403e103b45db9da5b9d2b",
                    "decodedLog": {
                        "name": "Transfer",
                        "params": [
                            {
                                "name": "from",
                                "type": "address",
                                "value": "0xb04a2232ea59f903a36e3ed4b1d1c90c71dc5814"
                            },
                            {
                                "name": "to",
                                "type": "address",
                                "value": "0xcf50b810e57ac33b91dcf525c6ddd9881b139332"
                            },
                            {
                                "decimalAvailable": true,
                                "name": "value",
                                "type": "uint256",
                                "value": "548,628,687,382,721,179,857"
                            }
                        ],
                        "signature": "Transfer(address,address,uint256)"
                    },
                    "id": 2,
                    "logData": "0x00000000000000000000000000000000000000000000001dbdc0a46a4bedb0d1",
                    "logDecoded": true,
                    "operation": "EVENT",
                    "revert": false,
                    "status": true,
                    "topics": [
                        "0xddf252ad1be2c89b69c2b068fc378daa952ba7f163c4a11628f55a4df523b3ef",
                        "0x000000000000000000000000b04a2232ea59f903a36e3ed4b1d1c90c71dc5814",
                        "0x000000000000000000000000cf50b810e57ac33b91dcf525c6ddd9881b139332"
                    ]
                },
                "nodeType": 1
            },
            "3": {
                "event": {
                    "contract": "0x4e3fbd56cd56c3e72c1403e103b45db9da5b9d2b",
                    "decodedLog": {
                        "name": "Approval",
                        "params": [
                            {
                                "name": "owner",
                                "type": "address",
                                "value": "0xb04a2232ea59f903a36e3ed4b1d1c90c71dc5814"
                            },
                            {
                                "name": "spender",
                                "type": "address",
                                "value": "0xcf50b810e57ac33b91dcf525c6ddd9881b139332"
                            },
                            {
                                "decimalAvailable": true,
                                "name": "value",
                                "type": "uint256",
                                "value": "115,792,089,237,316,195,423,570,985,008,687,907,853,269,984,665,640,564,037,747,884,312,840,365,622,754"
                            }
                        ],
                        "signature": "Approval(address,address,uint256)"
                    },
                    "id": 3,
                    "logData": "0xffffffffffffffffffffffffffffffffffffffffffffffa3512681b5623b45e2",
                    "logDecoded": true,
                    "operation": "EVENT",
                    "revert": false,
                    "status": true,
                    "topics": [
                        "0x8c5be1e5ebec7d5bd14f71427d1e84f3dd0314c0f7b2291e5b200ac8c7c3b925",
                        "0x000000000000000000000000b04a2232ea59f903a36e3ed4b1d1c90c71dc5814",
                        "0x000000000000000000000000cf50b810e57ac33b91dcf525c6ddd9881b139332"
                    ]
                },
                "nodeType": 1
            },
            "4": {
                "event": {
                    "contract": "0xcf50b810e57ac33b91dcf525c6ddd9881b139332",
                    "decodedLog": {
                        "name": "Staked",
                        "params": [
                            {
                                "name": "user",
                                "type": "address",
                                "value": "0xb04a2232ea59f903a36e3ed4b1d1c90c71dc5814"
                            },
                            {
                                "name": "amount",
                                "type": "uint256",
                                "value": "548,628,687,382,721,179,857"
                            }
                        ],
                        "signature": "Staked(address,uint256)"
                    },
                    "id": 4,
                    "logData": "0x00000000000000000000000000000000000000000000001dbdc0a46a4bedb0d1",
                    "logDecoded": true,
                    "operation": "EVENT",
                    "revert": false,
                    "status": true,
                    "topics": [
                        "0x9e71bc8eea02a63969f509818f2dafb9254532904319f9dbda79b67bd34a5f3d",
                        "0x000000000000000000000000b04a2232ea59f903a36e3ed4b1d1c90c71dc5814"
                    ]
                },
                "nodeType": 1
            }
        },
        "gasFlame": [
            {
                "children": [
                    {
                        "children": [
                            {
                                "children": [],
                                "depth": 0,
                                "name": "Initial Gas",
                                "value": 21300
                            },
                            {
                                "children": [
                                    {
                                        "children": [],
                                        "depth": 1,
                                        "name": "transferFrom",
                                        "value": 20391
                                    }
                                ],
                                "depth": 0,
                                "name": "Executed Gas",
                                "value": 83211
                            }
                        ],
                        "depth": -1,
                        "name": "Actual Gas Used",
                        "value": 89511
                    },
                    {
                        "children": [],
                        "depth": -1,
                        "name": "Refunded Gas",
                        "value": 15000
                    }
                ],
                "depth": -2,
                "name": "Total Gas",
                "value": 104511
            }
        ],
        "isConfirmed": true,
        "mainTrace": [
            {
                "children": [
                    {
                        "children": [
                            {
                                "children": [
                                    {
                                        "children": [],
                                        "depth": 2,
                                        "id": 2,
                                        "order": 2
                                    },
                                    {
                                        "children": [],
                                        "depth": 2,
                                        "id": 3,
                                        "order": 3
                                    }
                                ],
                                "depth": 1,
                                "id": 1,
                                "order": 1
                            },
                            {
                                "children": [],
                                "depth": 1,
                                "id": 4,
                                "order": 4
                            }
                        ],
                        "depth": 0,
                        "id": 0,
                        "order": 0
                    }
                ],
                "depth": -1,
                "id": -1,
                "order": -1
            }
        ],
        "mainTraceNodeCount": 5,
        "parentIdMap": {
            "0": -1,
            "1": 0,
            "2": 1,
            "3": 1,
            "4": 0
        },
        "tidyTrace": [
            {
                "children": [
                    {
                        "children": [
                            {
                                "children": [
                                    {
                                        "children": [],
                                        "depth": 2,
                                        "id": 2,
                                        "order": 2
                                    },
                                    {
                                        "children": [],
                                        "depth": 2,
                                        "id": 3,
                                        "order": 3
                                    }
                                ],
                                "depth": 1,
                                "id": 1,
                                "order": 1
                            },
                            {
                                "children": [],
                                "depth": 1,
                                "id": 4,
                                "order": 4
                            }
                        ],
                        "depth": 0,
                        "id": 0,
                        "order": 0
                    }
                ],
                "depth": -1,
                "id": -1,
                "order": -1
            }
        ],
        "tidyTraceNodeCount": 5
    },
    "state_change": {
        "stateChanges": [
            {
                "address": "0x4e3fbd56cd56c3e72c1403e103b45db9da5b9d2b",
                "erc": "ERC-20",
                "slots": [
                    {
                        "current": "0xffffffffffffffffffffffffffffffffffffffffffffffa3512681b5623b45e2",
                        "key": "0x09d5a1944d9c8d70742ab5e5f66ca0732113998b535011258f0bbe12a317c289",
                        "prev": "0xffffffffffffffffffffffffffffffffffffffffffffffc10ee7261fae28f6b3"
                    },
                    {
                        "current": "0x0000000000000000000000000000000000000000000000000000000000000000",
                        "key": "0xa7f696e277ecb638c9bdc622538040d66934e6e6ae8a17af2c9dee1fbf992f41",
                        "prev": "0x00000000000000000000000000000000000000000000001dbdc0a46a4bedb0d1"
                    },
                    {
                        "current": "0x00000000000000000000000000000000000000000007426d5e948f353048c9ef",
                        "key": "0x488cee339953ca488f2f38afd15dbaf8abcdd4766196fc229fff5c843dd35899",
                        "prev": "0x00000000000000000000000000000000000000000007424fa0d3eacae45b191e"
                    }
                ],
                "storageVariables": [
                    {
                        "name": "_allowances",
                        "type": "mapping(address => mapping(address => uint256))",
                        "value": {
                            "pairs": [
                                {
                                    "key": "0xb04a2232ea59f903a36e3ed4b1d1c90c71dc5814",
                                    "value": {
                                        "pairs": [
                                            {
                                                "key": "0xcf50b810e57ac33b91dcf525c6ddd9881b139332",
                                                "value": {
                                                    "current": "115792089237316195423570985008687907853269984665640564037747884312840365622754",
                                                    "prev": "115792089237316195423570985008687907853269984665640564038296513000223086802611",
                                                    "typeTag": 1
                                                }
                                            }
                                        ],
                                        "typeTag": 4
                                    }
                                }
                            ],
                            "typeTag": 4
                        }
                    },
                    {
                        "name": "_balances",
                        "type": "mapping(address => uint256)",
                        "value": {
                            "pairs": [
                                {
                                    "key": "0xb04a2232ea59f903a36e3ed4b1d1c90c71dc5814",
                                    "value": {
                                        "current": "0",
                                        "prev": "548628687382721179857",
                                        "typeTag": 1
                                    }
                                },
                                {
                                    "key": "0xcf50b810e57ac33b91dcf525c6ddd9881b139332",
                                    "value": {
                                        "current": "8776174435505429872691695",
                                        "prev": "8775625806818047151511838",
                                        "typeTag": 1
                                    }
                                }
                            ],
                            "typeTag": 4
                        }
                    }
                ]
            },
            {
                "address": "0xcf50b810e57ac33b91dcf525c6ddd9881b139332",
                "erc": "",
                "slots": [
                    {
                        "current": "0x00000000000000000000000000000000000000000007426d5e948f353048c9ef",
                        "key": "0x0000000000000000000000000000000000000000000000000000000000000007",
                        "prev": "0x00000000000000000000000000000000000000000007424fa0d3eacae45b191e"
                    },
                    {
                        "current": "0x00000000000000000000000000000000000000000000005caed97e4a9dc4ba1d",
                        "key": "0x8024027cdcd3158060ecc582c642ee1d084ce245480df07c3cf9b44508aac27a",
                        "prev": "0x00000000000000000000000000000000000000000000003ef118d9e051d7094c"
                    },
                    {
                        "current": "0x0000000000000000000000000000000000000000000000000383b890242b54fb",
                        "key": "0x0000000000000000000000000000000000000000000000000000000000000003",
                        "prev": "0x0000000000000000000000000000000000000000000000000383b2a2888667ba"
                    },
                    {
                        "current": "0x0000000000000000000000000000000000000000000000000000000060f3826d",
                        "key": "0x0000000000000000000000000000000000000000000000000000000000000002",
                        "prev": "0x0000000000000000000000000000000000000000000000000000000060f3818f"
                    },
                    {
                        "current": "0x00000000000000000000000000000000000000000000000002a7d8931225d48d",
                        "key": "0x5d20d8bb48590168c86d963d0b9837819844e5e8089582fa2b6e8759408c92e4",
                        "prev": "0x0000000000000000000000000000000000000000000000000000000000000000"
                    },
                    {
                        "current": "0x0000000000000000000000000000000000000000000000000383b890242b54fb",
                        "key": "0xd6ebe7a55a4bf18ff6d81e059b63067863df96e2c49c18a0927ca957fe0e88b2",
                        "prev": "0x000000000000000000000000000000000000000000000000038322aa9dd4247f"
                    }
                ],
                "storageVariables": [
                    {
                        "name": "rewardPerTokenStored",
                        "type": "uint256",
                        "value": {
                            "current": "253248933284500731",
                            "prev": "253242415207835578",
                            "typeTag": 1
                        }
                    },
                    {
                        "name": "lastUpdateTime",
                        "type": "uint256",
                        "value": {
                            "current": "1626571373",
                            "prev": "1626571151",
                            "typeTag": 1
                        }
                    },
                    {
                        "name": "rewards",
                        "type": "mapping(address => uint256)",
                        "value": {
                            "pairs": [
                                {
                                    "key": "0xb04a2232ea59f903a36e3ed4b1d1c90c71dc5814",
                                    "value": {
                                        "current": "191359635362796685",
                                        "prev": "0",
                                        "typeTag": 1
                                    }
                                }
                            ],
                            "typeTag": 4
                        }
                    },
                    {
                        "name": "userRewardPerTokenPaid",
                        "type": "mapping(address => uint256)",
                        "value": {
                            "pairs": [
                                {
                                    "key": "0xb04a2232ea59f903a36e3ed4b1d1c90c71dc5814",
                                    "value": {
                                        "current": "253248933284500731",
                                        "prev": "253084120250590335",
                                        "typeTag": 1
                                    }
                                }
                            ],
                            "typeTag": 4
                        }
                    },
                    {
                        "name": "_totalSupply",
                        "type": "uint256",
                        "value": {
                            "current": "8776174435505429872691695",
                            "prev": "8775625806818047151511838",
                            "typeTag": 1
                        }
                    },
                    {
                        "name": "_balances",
                        "type": "mapping(address => uint256)",
                        "value": {
                            "pairs": [
                                {
                                    "key": "0xb04a2232ea59f903a36e3ed4b1d1c90c71dc5814",
                                    "value": {
                                        "current": "1709699695072764017181",
                                        "prev": "1161071007690042837324",
                                        "typeTag": 1
                                    }
                                }
                            ],
                            "typeTag": 4
                        }
                    }
                ]
            }
        ]
    }
}