{
    "balance_change": {
        "balanceChanges": [
            {
                "account": "0xbb5af2edd636434f3113da6d72da6e4d5da7f8bb",
                "assets": [
                    {
                        "address": "0x241ba672574a78a3a604cdd0a94429a73a84a324",
                        "amount": "154",
                        "iconUrl": "https://assets.blocksec.com/icon/b23f5f4c8100b2c7ee8464019299eee4467c5e6a8b401be1a97810389e7ba904.png",
                        "isERC1155": false,
                        "isERC721": false,
                        "sign": false,
                        "value": ""
                    }
                ]
            },
            {
                "account": "0x9e40865030fc04225236b89c1a0569a15245d905",
                "assets": [
                    {
                        "address": "0x241ba672574a78a3a604cdd0a94429a73a84a324",
                        "amount": "154",
                        "iconUrl": "https://assets.blocksec.com/icon/b23f5f4c8100b2c7ee8464019299eee4467c5e6a8b401be1a97810389e7ba904.png",
                        "isERC1155": false,
                        "isERC721": false,
                        "sign": true,
                        "value": ""
                    }
                ]
            }
        ]
    },
    "profile": {
        "basic_info": {
            "baseFee": "",
            "blockNumber": 6398794,
            "callData": "0xa9059cbb0000000000000000000000009e40865030fc04225236b89c1a0569a15245d905000000000000000000000000000000000000000000000008592de812b2280000",
            "debugEnable": true,
            "errorInfo": "",
            "eventCount": 1,
            "feeRecipient": "0x5a0b54d5dc17e0aadc383d2db43b0a0d3e029c4c",
            "formatValue": "0",
            "gasLimit": 135000,
            "gasPrice": "30",
            "gasUsed": 37485,
            "intTxnCount": 0,
            "internalRevert": false,
            "internalRevertMessage": "",
            "isContractCreation": false,
            "isFlashloan": false,
            "maxFee": "",
            "nonce": 75,
            "overwritedBlockNumber": -1,
            "priorityFee": "",
            "receiver": "0x241ba672574a78a3a604cdd0a94429a73a84a324",
            "revertMessage": "",
            "sender": "0xbb5af2edd636434f3113da6d72da6e4d5da7f8bb",
            "simulationEnable": true,
            "sourceTxnHash": "0x664b62636bb9fb4e3935efc2a0f5b4cf301f5a26995e5a8cc43684b69242ed13",
            "status": true,
            "timestamp": "2018-09-25T20:04:09Z",
            "transactionFee": "0.00112455",
            "txnHash": "0x664b62636bb9fb4e3935efc2a0f5b4cf301f5a26995e5a8cc43684b69242ed13",
            "txnIndex": 12,
            "type": 0,
            "value": "0"
        },
        "fund_flow": [
            {
                "amount": "154",
                "from": "0xbb5af2edd636434f3113da6d72da6e4d5da7f8bb",
                "id": 1,
                "isERC1155": false,
                "isERC721": false,
                "isReverted": false,
                "order": 1,
                "to": "0x9e40865030fc04225236b89c1a0569a15245d905",
                "token": "0x241ba672574a78a3a604cdd0a94429a73a84a324"
            }
        ],
        "token_infos": [
            {
                "address": "0x241ba672574a78a3a604cdd0a94429a73a84a324",
                "decimals": 18
            },
            {
                "address": "0xc02aaa39b223fe8d0a0e5c4f27ead9083c756cc2",
                "decimals": 18
            },
            {
                "address": "0xeeeeeeeeeeeeeeeeeeeeeeeeeeeeeeeeeeeeeeee",
                "decimals": 18
            }
        ]
    },
    "address_label": {
        "labels": [
            {
                "address": "0xeeeeeeeeeeeeeeeeeeeeeeeeeeeeeeeeeeeeeeee",
                "label": "Ether"
            },
            {
                "address": "0x241ba672574a78a3a604cdd0a94429a73a84a324",
                "label": "KWATT Token"
            },
            {
                "address": "0x0000000000000000000000000000000000000001",
                "label": "Precompiled"
            },
            {
                "address": "0x0000000000000000000000000000000000000002",
                "label": "Precompiled"
            },
            {
                "address": "0x0000000000000000000000000000000000000003",
                "label": "Precompiled"
            },
            {
                "address": "0x0000000000000000000000000000000000000004",
                "label": "Precompiled"
            }
        ]
    },
    "trace": {
        "accountLabels": null,
        "dataMap": {
            "-1": {
                "invocation": {
                    "address": "0xbb5af2edd636434f3113da6d72da6e4d5da7f8bb",
                    "callData": "",
                    "decodedMethod": null,
                    "errorInfo": "",
                    "fromAddress": "",
                    "gasUsed": 0,
                    "id": -1,
                    "methodDecoded": false,
                    "operation": "",
                    "output": "",
                    "revert": false,
                    "revertMessage": "",
                    "selector": "",
                    "status": false,
                    "value": ""
                },
                "nodeType": 0
            },
            "0": {
                "invocation": {
                    "address": "0x241ba672574a78a3a604cdd0a94429a73a84a324",
                    "callData": "0x0000000000000000000000009e40865030fc04225236b89c1a0569a15245d905000000000000000000000000000000000000000000000008592de812b2280000",
                    "decodedMethod": {
                        "callParams": [
                            {
                                "name": "_to",
                                "type": "address",
                                "value": "0x9e40865030fc04225236b89c1a0569a15245d905"
                            },
                            {
                                "decimalAvailable": true,
                                "name": "_value",
                                "type": "uint256",
                                "value": "154,000,000,000,000,000,000"
                            }
                        ],
                        "constructorArguments": "",
                        "name": "transfer",
                        "returnParams": [
                            {
                                "name": "",
                                "type": "bool",
                                "value": true
                            }
                        ],
                        "signature": "transfer(address,uint256)"
                    },
                    "errorInfo": "",
                    "fromAddress": "0xbb5af2edd636434f3113da6d72da6e4d5da7f8bb",
                    "gasUsed": 37485,
                    "id": 0,
                    "methodDecoded": true,
                    "operation": "CALL",
                    "output": "0x0000000000000000000000000000000000000000000000000000000000000001",
                    "revert": false,
                    "revertMessage": "",
                    "selector": "0xa9059cbb",
                    "status": true,
                    "value": "0"
                },
                "nodeType": 0
            },
            "1": {
                "event": {
                    "contract": "0x241ba672574a78a3a604cdd0a94429a73a84a324",
                    "decodedLog": {
                        "name": "Transfer",
                        "params": [
                            {
                                "name": "from",
                                "type": "address",
                                "value": "0xbb5af2edd636434f3113da6d72da6e4d5da7f8bb"
                            },
                            {
                                "name": "to",
                                "type": "address",
                                "value": "0x9e40865030fc04225236b89c1a0569a15245d905"
                            },
                            {
                                "decimalAvailable": true,
                                "name": "value",
                                "type": "uint256",
                                "value": "154,000,000,000,000,000,000"
                            }
                        ],
                        "signature": "Transfer(address,address,uint256)"
                    },
                    "id": 1,
                    "logData": "0x000000000000000000000000000000000000000000000008592de812b2280000",
                    "logDecoded": true,
                    "operation": "EVENT",
                    "revert": false,
                    "status": true,
                    "topics": [
                        "0xddf252ad1be2c89b69c2b068fc378daa952ba7f163c4a11628f55a4df523b3ef",
                        "0x000000000000000000000000bb5af2edd636434f3113da6d72da6e4d5da7f8bb",
                        "0x0000000000000000000000009e40865030fc04225236b89c1a0569a15245d905"
                    ]
                },
                "nodeType": 1
            }
        },
        "gasFlame": [
            {
                "children": [
                    {
                        "children": [
                            {
                                "children": [],
                                "depth": 0,
                                "name": "Initial Gas",
                                "value": 23256
                            },
                            {
                                "children": [],
                                "depth": 0,
                                "name": "Executed Gas",
                                "value": 29229
                            }
                        ],
                        "depth": -1,
                        "name": "Actual Gas Used",
                        "value": 37485
                    },
                    {
                        "children": [],
                        "depth": -1,
                        "name": "Refunded Gas",
                        "value": 15000
                    }
                ],
                "depth": -2,
                "name": "Total Gas",
                "value": 52485
            }
        ],
        "isConfirmed": true,
        "mainTrace": [
            {
                "children": [
                    {
                        "children": [
                            {
                                "children": [],
                                "depth": 1,
                                "id": 1,
                                "order": 1
                            }
                        ],
                        "depth": 0,
                        "id": 0,
                        "order": 0
                    }
                ],
                "depth": -1,
                "id": -1,
                "order": -1
            }
        ],
        "mainTraceNodeCount": 2,
        "parentIdMap": {
            "0": -1,
            "1": 0
        },
        "tidyTrace": [
            {
                "children": [
                    {
                        "children": [
                            {
                                "children": [],
                                "depth": 1,
                                "id": 1,
                                "order": 1
                            }
                        ],
                        "depth": 0,
                        "id": 0,
                        "order": 0
                    }
                ],
                "depth": -1,
                "id": -1,
                "order": -1
            }
        ],
        "tidyTraceNodeCount": 2
    },
    "state_change": {
        "stateChanges": [
            {
                "address": "0x241ba672574a78a3a604cdd0a94429a73a84a324",
                "erc": "ERC-20",
                "slots": [
                    {
                        "current": "0x0000000000000000000000000000000000000000000000000000000000000000",
                        "key": "0x9f29990c76977f9179a1eeb634ee92c7a05439ddad60d6814c32f8b430d7ca8b",
                        "prev": "0x000000000000000000000000000000000000000000000008592de812b2280000"
                    },
                    {
                        "current": "0x000000000000000000000000000000000000000000000008592de812b2280000",
                        "key": "0x1f4db9ce7c3ce51981a6f28959dc81df6326fa80803c488c5e824ae9b33e2e92",
                        "prev": "0x0000000000000000000000000000000000000000000000000000000000000000"
                    }
                ],
                "storageVariables": [
                    {
                        "name": "balances",
                        "type": "mapping(address => uint256)",
                        "value": {
                            "pairs": [
                                {
                                    "key": "0x9e40865030fc04225236b89c1a0569a15245d905",
                                    "value": {
                                        "current": "154000000000000000000",
                                        "prev": "0",
                                        "typeTag": 1
                                    }
                                },
                                {
                                    "key": "0xbb5af2edd636434f3113da6d72da6e4d5da7f8bb",
                                    "value": {
                                        "current": "0",
                                        "prev": "154000000000000000000",
                                        "typeTag": 1
                                    }
                                }
                            ],
                            "typeTag": 4
                        }
                    }
                ]
            }
        ]
    }
}