{
    "balance_change": {
        "balanceChanges": [
            {
                "account": "0xd614cafaf9ec3d0afad882e770d2bd8de4554968",
                "assets": [
                    {
                        "address": "0xeeeeeeeeeeeeeeeeeeeeeeeeeeeeeeeeeeeeeeee",
                        "amount": "0.032",
                        "iconUrl": "https://assets.blocksec.com/image/1663669189317-3.png",
                        "isERC1155": false,
                        "isERC721": false,
                        "sign": true,
                        "value": ""
                    }
                ]
            },
            {
                "account": "0x06012c8cf97bead5deae237070f9587f8e7a266d",
                "assets": [
                    {
                        "address": "0xeeeeeeeeeeeeeeeeeeeeeeeeeeeeeeeeeeeeeeee",
                        "amount": "0.032",
                        "iconUrl": "https://assets.blocksec.com/image/1663669189317-3.png",
                        "isERC1155": false,
                        "isERC721": false,
                        "sign": false,
                        "value": ""
                    }
                ]
            }
        ]
    },
    "profile": {
        "basic_info": {
            "baseFee": "",
            "blockNumber": 4797249,
            "callData": "0x43bb263400000000000000000000000000000000000000000000000000000000000000200000000000000000000000000000000000000000000000000000000000000004000000000000000000000000000000000000000000000000000000000006088300000000000000000000000000000000000000000000000000000000000613fb000000000000000000000000000000000000000000000000000000000006352a00000000000000000000000000000000000000000000000000000000000635a0",
            "debugEnable": true,
            "errorInfo": "",
            "eventCount": 8,
            "feeRecipient": "0xea674fdde714fd979de3edf0f56aa9716b898ec8",
            "formatValue": "0",
            "gasLimit": 1080000,
            "gasPrice": "11.41",
            "gasUsed": 991016,
            "intTxnCount": 16,
            "internalRevert": false,
            "internalRevertMessage": "",
            "isContractCreation": false,
            "isFlashloan": false,
            "maxFee": "",
            "nonce": 4010,
            "overwritedBlockNumber": -1,
            "priorityFee": "",
            "receiver": "0xd614cafaf9ec3d0afad882e770d2bd8de4554968",
            "revertMessage": "",
            "sender": "0x05be6e1f661dacd4630e1ebe2ffce5bfb962076f",
            "simulationEnable": true,
            "sourceTxnHash": "0x67138612fcf8db2b5008a5354ce44d8fa5026955e851d6a224e7d2c2ad19232c",
            "status": true,
            "timestamp": "2017-12-25T23:27:02Z",
            "transactionFee": "0.01130749256",
            "txnHash": "0x67138612fcf8db2b5008a5354ce44d8fa5026955e851d6a224e7d2c2ad19232c",
            "txnIndex": 12,
            "type": 0,
            "value": "0"
        },
        "fund_flow": [
            {
                "amount": "0.032",
                "from": "0x06012c8cf97bead5deae237070f9587f8e7a266d",
                "id": 1,
                "isERC1155": false,
                "isERC721": false,
                "isReverted": false,
                "order": 1,
                "to": "0xd614cafaf9ec3d0afad882e770d2bd8de4554968",
                "token": "0xeeeeeeeeeeeeeeeeeeeeeeeeeeeeeeeeeeeeeeee"
            }
        ],
        "token_infos": [
            {
                "address": "0xc02aaa39b223fe8d0a0e5c4f27ead9083c756cc2",
                "decimals": 18
            },
            {
                "address": "0xeeeeeeeeeeeeeeeeeeeeeeeeeeeeeeeeeeeeeeee",
                "decimals": 18
            }
        ]
    },
    "address_label": {
        "labels": [
            {
                "address": "0xf97e0a5b616dffc913e72455fde9ea8bbe946a2b",
                "label": "GeneScience"
            },
            {
                "address": "0x0000000000000000000000000000000000000001",
                "label": "Precompiled"
            },
            {
                "address": "0x0000000000000000000000000000000000000002",
                "label": "Precompiled"
            },
            {
                "address": "0x0000000000000000000000000000000000000003",
                "label": "Precompiled"
            },
            {
                "address": "0x0000000000000000000000000000000000000004",
                "label": "Precompiled"
            },
            {
                "address": "0xeeeeeeeeeeeeeeeeeeeeeeeeeeeeeeeeeeeeeeee",
                "label": "Ether"
            },
            {
                "address": "0x06012c8cf97bead5deae237070f9587f8e7a266d",
                "label": "CryptoKitties: Core"
            }
        ]
    },
    "trace": {
        "accountLabels": null,
        "dataMap": {
            "-1": {
                "invocation": {
                    "address": "0x05be6e1f661dacd4630e1ebe2ffce5bfb962076f",
                    "callData": "",
                    "decodedMethod": null,
                    "errorInfo": "",
                    "fromAddress": "",
                    "gasUsed": 0,
                    "id": -1,
                    "methodDecoded": false,
                    "operation": "",
                    "output": "",
                    "revert": false,
                    "revertMessage": "",
                    "selector": "",
                    "status": false,
                    "value": ""
                },
                "nodeType": 0
            },
            "0": {
                "invocation": {
                    "address": "0xd614cafaf9ec3d0afad882e770d2bd8de4554968",
                    "callData": "0x00000000000000000000000000000000000000000000000000000000000000200000000000000000000000000000000000000000000000000000000000000004000000000000000000000000000000000000000000000000000000000006088300000000000000000000000000000000000000000000000000000000000613fb000000000000000000000000000000000000000000000000000000000006352a00000000000000000000000000000000000000000000000000000000000635a0",
                    "decodedMethod": {
                        "callParams": [
                            {
                                "name": "apes",
                                "type": "uint256[]",
                                "value": [
                                    "395,395",
                                    "398,331",
                                    "406,826",
                                    "406,944"
                                ]
                            }
                        ],
                        "constructorArguments": "",
                        "name": "send",
                        "returnParams": [],
                        "signature": "send(uint256[])"
                    },
                    "errorInfo": "",
                    "fromAddress": "0x05be6e1f661dacd4630e1ebe2ffce5bfb962076f",
                    "gasUsed": 991016,
                    "id": 0,
                    "methodDecoded": true,
                    "operation": "CALL",
                    "output": "",
                    "revert": false,
                    "revertMessage": "",
                    "selector": "0x43bb2634",
                    "status": true,
                    "value": "0"
                },
                "nodeType": 0
            },
            "1": {
                "invocation": {
                    "address": "0x06012c8cf97bead5deae237070f9587f8e7a266d",
                    "callData": "0x0000000000000000000000000000000000000000000000000000000000060883",
                    "decodedMethod": {
                        "callParams": [
                            {
                                "name": "_kittyId",
                                "type": "uint256",
                                "value": "395,395"
                            }
                        ],
                        "constructorArguments": "",
                        "name": "isPregnant",
                        "returnParams": [
                            {
                                "name": "",
                                "type": "bool",
                                "value": true
                            }
                        ],
                        "signature": "isPregnant(uint256)"
                    },
                    "errorInfo": "",
                    "fromAddress": "0xd614cafaf9ec3d0afad882e770d2bd8de4554968",
                    "gasUsed": 1118,
                    "id": 1,
                    "methodDecoded": true,
                    "operation": "CALL",
                    "output": "0x0000000000000000000000000000000000000000000000000000000000000001",
                    "revert": false,
                    "revertMessage": "",
                    "selector": "0x1940a936",
                    "status": true,
                    "value": "0"
                },
                "nodeType": 0
            },
            "10": {
                "event": {
                    "contract": "0x06012c8cf97bead5deae237070f9587f8e7a266d",
                    "decodedLog": {
                        "name": "Birth",
                        "params": [
                            {
                                "name": "owner",
                                "type": "address",
                                "value": "0xa284230309987c1450890e446efc56f48d650dc3"
                            },
                            {
                                "name": "kittyId",
                                "type": "uint256",
                                "value": "409,776"
                            },
                            {
                                "name": "matronId",
                                "type": "uint256",
                                "value": "398,331"
                            },
                            {
                                "name": "sireId",
                                "type": "uint256",
                                "value": "390,007"
                            },
                            {
                                "name": "genes",
                                "type": "uint256",
                                "value": "678,600,613,444,484,296,785,670,718,925,908,256,499,719,067,695,400,604,788,072,521,875,667,351"
                            }
                        ],
                        "signature": "Birth(address,uint256,uint256,uint256,uint256)"
                    },
                    "id": 10,
                    "logData": "0x000000000000000000000000a284230309987c1450890e446efc56f48d650dc300000000000000000000000000000000000000000000000000000000000640b000000000000000000000000000000000000000000000000000000000000613fb000000000000000000000000000000000000000000000000000000000005f37700006252b218e718cc3781c928cec000d06994c3194030c71088654bdc953997",
                    "logDecoded": true,
                    "operation": "EVENT",
                    "revert": false,
                    "status": true,
                    "topics": [
                        "0x0a5311bd2a6608f08a180df2ee7c5946819a649b204b554bb8e39825b2c50ad5"
                    ]
                },
                "nodeType": 1
            },
            "11": {
                "event": {
                    "contract": "0x06012c8cf97bead5deae237070f9587f8e7a266d",
                    "decodedLog": {
                        "name": "Transfer",
                        "params": [
                            {
                                "name": "from",
                                "type": "address",
                                "value": "0x0000000000000000000000000000000000000000"
                            },
                            {
                                "name": "to",
                                "type": "address",
                                "value": "0xa284230309987c1450890e446efc56f48d650dc3"
                            },
                            {
                                "decimalAvailable": true,
                                "name": "tokenId",
                                "type": "uint256",
                                "value": "409,776"
                            }
                        ],
                        "signature": "Transfer(address,address,uint256)"
                    },
                    "id": 11,
                    "logData": "0x0000000000000000000000000000000000000000000000000000000000000000000000000000000000000000a284230309987c1450890e446efc56f48d650dc300000000000000000000000000000000000000000000000000000000000640b0",
                    "logDecoded": true,
                    "operation": "EVENT",
                    "revert": false,
                    "status": true,
                    "topics": [
                        "0xddf252ad1be2c89b69c2b068fc378daa952ba7f163c4a11628f55a4df523b3ef"
                    ]
                },
                "nodeType": 1
            },
            "12": {
                "invocation": {
                    "address": "0xd614cafaf9ec3d0afad882e770d2bd8de4554968",
                    "callData": "0x",
                    "decodedMethod": null,
                    "errorInfo": "",
                    "fromAddress": "0x06012c8cf97bead5deae237070f9587f8e7a266d",
                    "gasUsed": 40,
                    "id": 12,
                    "methodDecoded": false,
                    "operation": "CALL",
                    "output": "",
                    "revert": false,
                    "revertMessage": "",
                    "selector": "fallback",
                    "status": true,
                    "value": "0.008"
                },
                "nodeType": 0
            },
            "13": {
                "invocation": {
                    "address": "0x06012c8cf97bead5deae237070f9587f8e7a266d",
                    "callData": "0x000000000000000000000000000000000000000000000000000000000006352a",
                    "decodedMethod": {
                        "callParams": [
                            {
                                "name": "_kittyId",
                                "type": "uint256",
                                "value": "406,826"
                            }
                        ],
                        "constructorArguments": "",
                        "name": "isPregnant",
                        "returnParams": [
                            {
                                "name": "",
                                "type": "bool",
                                "value": true
                            }
                        ],
                        "signature": "isPregnant(uint256)"
                    },
                    "errorInfo": "",
                    "fromAddress": "0xd614cafaf9ec3d0afad882e770d2bd8de4554968",
                    "gasUsed": 1118,
                    "id": 13,
                    "methodDecoded": true,
                    "operation": "CALL",
                    "output": "0x0000000000000000000000000000000000000000000000000000000000000001",
                    "revert": false,
                    "revertMessage": "",
                    "selector": "0x1940a936",
                    "status": true,
                    "value": "0"
                },
                "nodeType": 0
            },
            "14": {
                "invocation": {
                    "address": "0x06012c8cf97bead5deae237070f9587f8e7a266d",
                    "callData": "0x000000000000000000000000000000000000000000000000000000000006352a",
                    "decodedMethod": {
                        "callParams": [
                            {
                                "name": "_matronId",
                                "type": "uint256",
                                "value": "406,826"
                            }
                        ],
                        "constructorArguments": "",
                        "name": "giveBirth",
                        "returnParams": [
                            {
                                "name": "",
                                "type": "uint256",
                                "value": "409,777"
                            }
                        ],
                        "signature": "giveBirth(uint256)"
                    },
                    "errorInfo": "",
                    "fromAddress": "0xd614cafaf9ec3d0afad882e770d2bd8de4554968",
                    "gasUsed": 238163,
                    "id": 14,
                    "methodDecoded": true,
                    "operation": "CALL",
                    "output": "0x00000000000000000000000000000000000000000000000000000000000640b1",
                    "revert": false,
                    "revertMessage": "",
                    "selector": "0x88c2a0bf",
                    "status": true,
                    "value": "0"
                },
                "nodeType": 0
            },
            "15": {
                "invocation": {
                    "address": "0xf97e0a5b616dffc913e72455fde9ea8bbe946a2b",
                    "callData": "0x000042d6b31ce7499ce4392e3b0ec0848752188294ca2886229ce74252f7bd8f000042568210b31a42373929380ec10400539cd3108431ca3394214a94a6bdef0000000000000000000000000000000000000000000000000000000000493340",
                    "decodedMethod": {
                        "callParams": [
                            {
                                "name": "_genes1",
                                "type": "uint256",
                                "value": "461,303,550,265,352,783,490,449,088,620,791,810,080,100,403,520,437,286,367,013,094,576,078,223"
                            },
                            {
                                "name": "_genes2",
                                "type": "uint256",
                                "value": "457,847,511,769,294,044,884,240,510,789,812,031,625,614,974,572,679,455,809,167,220,059,586,031"
                            },
                            {
                                "name": "_targetBlock",
                                "type": "uint256",
                                "value": "4,797,248"
                            }
                        ],
                        "constructorArguments": "",
                        "name": "mixGenes",
                        "returnParams": [
                            {
                                "name": "",
                                "type": "uint256",
                                "value": "461,298,490,338,830,912,635,539,487,933,701,956,939,384,507,562,118,784,701,348,008,165,883,375"
                            }
                        ],
                        "signature": "mixGenes(uint256,uint256,uint256)"
                    },
                    "errorInfo": "",
                    "fromAddress": "0x06012c8cf97bead5deae237070f9587f8e7a266d",
                    "gasUsed": 103864,
                    "id": 15,
                    "methodDecoded": true,
                    "operation": "CALL",
                    "output": "0x000042d68310e748523739ce39d8c08480721a8298853946329c274a54a7bdef",
                    "revert": false,
                    "revertMessage": "",
                    "selector": "0x0d9f5aed",
                    "status": true,
                    "value": "0"
                },
                "nodeType": 0
            },
            "16": {
                "event": {
                    "contract": "0x06012c8cf97bead5deae237070f9587f8e7a266d",
                    "decodedLog": {
                        "name": "Birth",
                        "params": [
                            {
                                "name": "owner",
                                "type": "address",
                                "value": "0x8abda881c2009f4de8688de9fdb7c03d5681df47"
                            },
                            {
                                "name": "kittyId",
                                "type": "uint256",
                                "value": "409,777"
                            },
                            {
                                "name": "matronId",
                                "type": "uint256",
                                "value": "406,826"
                            },
                            {
                                "name": "sireId",
                                "type": "uint256",
                                "value": "369,637"
                            },
                            {
                                "name": "genes",
                                "type": "uint256",
                                "value": "461,298,490,338,830,912,635,539,487,933,701,956,939,384,507,562,118,784,701,348,008,165,883,375"
                            }
                        ],
                        "signature": "Birth(address,uint256,uint256,uint256,uint256)"
                    },
                    "id": 16,
                    "logData": "0x0000000000000000000000008abda881c2009f4de8688de9fdb7c03d5681df4700000000000000000000000000000000000000000000000000000000000640b1000000000000000000000000000000000000000000000000000000000006352a000000000000000000000000000000000000000000000000000000000005a3e5000042d68310e748523739ce39d8c08480721a8298853946329c274a54a7bdef",
                    "logDecoded": true,
                    "operation": "EVENT",
                    "revert": false,
                    "status": true,
                    "topics": [
                        "0x0a5311bd2a6608f08a180df2ee7c5946819a649b204b554bb8e39825b2c50ad5"
                    ]
                },
                "nodeType": 1
            },
            "17": {
                "event": {
                    "contract": "0x06012c8cf97bead5deae237070f9587f8e7a266d",
                    "decodedLog": {
                        "name": "Transfer",
                        "params": [
                            {
                                "name": "from",
                                "type": "address",
                                "value": "0x0000000000000000000000000000000000000000"
                            },
                            {
                                "name": "to",
                                "type": "address",
                                "value": "0x8abda881c2009f4de8688de9fdb7c03d5681df47"
                            },
                            {
                                "decimalAvailable": true,
                                "name": "tokenId",
                                "type": "uint256",
                                "value": "409,777"
                            }
                        ],
                        "signature": "Transfer(address,address,uint256)"
                    },
                    "id": 17,
                    "logData": "0x00000000000000000000000000000000000000000000000000000000000000000000000000000000000000008abda881c2009f4de8688de9fdb7c03d5681df4700000000000000000000000000000000000000000000000000000000000640b1",
                    "logDecoded": true,
                    "operation": "EVENT",
                    "revert": false,
                    "status": true,
                    "topics": [
                        "0xddf252ad1be2c89b69c2b068fc378daa952ba7f163c4a11628f55a4df523b3ef"
                    ]
                },
                "nodeType": 1
            },
            "18": {
                "invocation": {
                    "address": "0xd614cafaf9ec3d0afad882e770d2bd8de4554968",
                    "callData": "0x",
                    "decodedMethod": null,
                    "errorInfo": "",
                    "fromAddress": "0x06012c8cf97bead5deae237070f9587f8e7a266d",
                    "gasUsed": 40,
                    "id": 18,
                    "methodDecoded": false,
                    "operation": "CALL",
                    "output": "",
                    "revert": false,
                    "revertMessage": "",
                    "selector": "fallback",
                    "status": true,
                    "value": "0.008"
                },
                "nodeType": 0
            },
            "19": {
                "invocation": {
                    "address": "0x06012c8cf97bead5deae237070f9587f8e7a266d",
                    "callData": "0x00000000000000000000000000000000000000000000000000000000000635a0",
                    "decodedMethod": {
                        "callParams": [
                            {
                                "name": "_kittyId",
                                "type": "uint256",
                                "value": "406,944"
                            }
                        ],
                        "constructorArguments": "",
                        "name": "isPregnant",
                        "returnParams": [
                            {
                                "name": "",
                                "type": "bool",
                                "value": true
                            }
                        ],
                        "signature": "isPregnant(uint256)"
                    },
                    "errorInfo": "",
                    "fromAddress": "0xd614cafaf9ec3d0afad882e770d2bd8de4554968",
                    "gasUsed": 1118,
                    "id": 19,
                    "methodDecoded": true,
                    "operation": "CALL",
                    "output": "0x0000000000000000000000000000000000000000000000000000000000000001",
                    "revert": false,
                    "revertMessage": "",
                    "selector": "0x1940a936",
                    "status": true,
                    "value": "0"
                },
                "nodeType": 0
            },
            "2": {
                "invocation": {
                    "address": "0x06012c8cf97bead5deae237070f9587f8e7a266d",
                    "callData": "0x0000000000000000000000000000000000000000000000000000000000060883",
                    "decodedMethod": {
                        "callParams": [
                            {
                                "name": "_matronId",
                                "type": "uint256",
                                "value": "395,395"
                            }
                        ],
                        "constructorArguments": "",
                        "name": "giveBirth",
                        "returnParams": [
                            {
                                "name": "",
                                "type": "uint256",
                                "value": "409,775"
                            }
                        ],
                        "signature": "giveBirth(uint256)"
                    },
                    "errorInfo": "",
                    "fromAddress": "0xd614cafaf9ec3d0afad882e770d2bd8de4554968",
                    "gasUsed": 237205,
                    "id": 2,
                    "methodDecoded": true,
                    "operation": "CALL",
                    "output": "0x00000000000000000000000000000000000000000000000000000000000640af",
                    "revert": false,
                    "revertMessage": "",
                    "selector": "0x88c2a0bf",
                    "status": true,
                    "value": "0"
                },
                "nodeType": 0
            },
            "20": {
                "invocation": {
                    "address": "0x06012c8cf97bead5deae237070f9587f8e7a266d",
                    "callData": "0x00000000000000000000000000000000000000000000000000000000000635a0",
                    "decodedMethod": {
                        "callParams": [
                            {
                                "name": "_matronId",
                                "type": "uint256",
                                "value": "406,944"
                            }
                        ],
                        "constructorArguments": "",
                        "name": "giveBirth",
                        "returnParams": [
                            {
                                "name": "",
                                "type": "uint256",
                                "value": "409,778"
                            }
                        ],
                        "signature": "giveBirth(uint256)"
                    },
                    "errorInfo": "",
                    "fromAddress": "0xd614cafaf9ec3d0afad882e770d2bd8de4554968",
                    "gasUsed": 238191,
                    "id": 20,
                    "methodDecoded": true,
                    "operation": "CALL",
                    "output": "0x00000000000000000000000000000000000000000000000000000000000640b2",
                    "revert": false,
                    "revertMessage": "",
                    "selector": "0x88c2a0bf",
                    "status": true,
                    "value": "0"
                },
                "nodeType": 0
            },
            "21": {
                "invocation": {
                    "address": "0xf97e0a5b616dffc913e72455fde9ea8bbe946a2b",
                    "callData": "0x00005ad29314a672423539e818d8031cc6335281946634cc6114c37b1157b98900004ad0c2948548c291dd2f18c00310476b18d080c4198d208ce342134631890000000000000000000000000000000000000000000000000000000000493340",
                    "decodedMethod": {
                        "callParams": [
                            {
                                "name": "_genes1",
                                "type": "uint256",
                                "value": "626,834,249,413,119,368,096,657,448,446,859,978,283,638,274,759,485,237,832,846,077,024,778,633"
                            },
                            {
                                "name": "_genes2",
                                "type": "uint256",
                                "value": "516,357,390,251,700,856,374,853,611,764,417,781,783,283,174,757,282,950,389,109,116,920,803,721"
                            },
                            {
                                "name": "_targetBlock",
                                "type": "uint256",
                                "value": "4,797,248"
                            }
                        ],
                        "constructorArguments": "",
                        "name": "mixGenes",
                        "returnParams": [
                            {
                                "name": "",
                                "type": "uint256",
                                "value": "621,770,781,771,682,255,769,218,043,125,343,967,869,729,678,348,289,695,109,609,071,910,993,196"
                            }
                        ],
                        "signature": "mixGenes(uint256,uint256,uint256)"
                    },
                    "errorInfo": "",
                    "fromAddress": "0x06012c8cf97bead5deae237070f9587f8e7a266d",
                    "gasUsed": 103598,
                    "id": 21,
                    "methodDecoded": true,
                    "operation": "CALL",
                    "output": "0x00005a16c294a548d21539e818d8031c466990928cc4198c628c434212863d2c",
                    "revert": false,
                    "revertMessage": "",
                    "selector": "0x0d9f5aed",
                    "status": true,
                    "value": "0"
                },
                "nodeType": 0
            },
            "22": {
                "event": {
                    "contract": "0x06012c8cf97bead5deae237070f9587f8e7a266d",
                    "decodedLog": {
                        "name": "Birth",
                        "params": [
                            {
                                "name": "owner",
                                "type": "address",
                                "value": "0x40de4de1fbf497b60412c10dc1fabae64f0f095f"
                            },
                            {
                                "name": "kittyId",
                                "type": "uint256",
                                "value": "409,778"
                            },
                            {
                                "name": "matronId",
                                "type": "uint256",
                                "value": "406,944"
                            },
                            {
                                "name": "sireId",
                                "type": "uint256",
                                "value": "406,923"
                            },
                            {
                                "name": "genes",
                                "type": "uint256",
                                "value": "621,770,781,771,682,255,769,218,043,125,343,967,869,729,678,348,289,695,109,609,071,910,993,196"
                            }
                        ],
                        "signature": "Birth(address,uint256,uint256,uint256,uint256)"
                    },
                    "id": 22,
                    "logData": "0x00000000000000000000000040de4de1fbf497b60412c10dc1fabae64f0f095f00000000000000000000000000000000000000000000000000000000000640b200000000000000000000000000000000000000000000000000000000000635a0000000000000000000000000000000000000000000000000000000000006358b00005a16c294a548d21539e818d8031c466990928cc4198c628c434212863d2c",
                    "logDecoded": true,
                    "operation": "EVENT",
                    "revert": false,
                    "status": true,
                    "topics": [
                        "0x0a5311bd2a6608f08a180df2ee7c5946819a649b204b554bb8e39825b2c50ad5"
                    ]
                },
                "nodeType": 1
            },
            "23": {
                "event": {
                    "contract": "0x06012c8cf97bead5deae237070f9587f8e7a266d",
                    "decodedLog": {
                        "name": "Transfer",
                        "params": [
                            {
                                "name": "from",
                                "type": "address",
                                "value": "0x0000000000000000000000000000000000000000"
                            },
                            {
                                "name": "to",
                                "type": "address",
                                "value": "0x40de4de1fbf497b60412c10dc1fabae64f0f095f"
                            },
                            {
                                "decimalAvailable": true,
                                "name": "tokenId",
                                "type": "uint256",
                                "value": "409,778"
                            }
                        ],
                        "signature": "Transfer(address,address,uint256)"
                    },
                    "id": 23,
                    "logData": "0x000000000000000000000000000000000000000000000000000000000000000000000000000000000000000040de4de1fbf497b60412c10dc1fabae64f0f095f00000000000000000000000000000000000000000000000000000000000640b2",
                    "logDecoded": true,
                    "operation": "EVENT",
                    "revert": false,
                    "status": true,
                    "topics": [
                        "0xddf252ad1be2c89b69c2b068fc378daa952ba7f163c4a11628f55a4df523b3ef"
                    ]
                },
                "nodeType": 1
            },
            "24": {
                "invocation": {
                    "address": "0xd614cafaf9ec3d0afad882e770d2bd8de4554968",
                    "callData": "0x",
                    "decodedMethod": null,
                    "errorInfo": "",
                    "fromAddress": "0x06012c8cf97bead5deae237070f9587f8e7a266d",
                    "gasUsed": 40,
                    "id": 24,
                    "methodDecoded": false,
                    "operation": "CALL",
                    "output": "",
                    "revert": false,
                    "revertMessage": "",
                    "selector": "fallback",
                    "status": true,
                    "value": "0.008"
                },
                "nodeType": 0
            },
            "3": {
                "invocation": {
                    "address": "0xf97e0a5b616dffc913e72455fde9ea8bbe946a2b",
                    "callData": "0x000062d8c314f3318664bc6a6140c20480728cb1988410c51118f15292a735ef00004a50c298e4498664246a600672044135166238ae108e3384476254c7aded0000000000000000000000000000000000000000000000000000000000493340",
                    "decodedMethod": {
                        "callParams": [
                            {
                                "name": "_genes1",
                                "type": "uint256",
                                "value": "682,215,034,980,774,762,680,690,410,935,103,939,554,322,177,715,490,935,556,624,637,026,055,663"
                            },
                            {
                                "name": "_genes2",
                                "type": "uint256",
                                "value": "512,906,518,876,474,047,533,688,716,868,555,473,580,263,075,010,495,190,136,637,352,036,511,213"
                            },
                            {
                                "name": "_targetBlock",
                                "type": "uint256",
                                "value": "4,797,248"
                            }
                        ],
                        "constructorArguments": "",
                        "name": "mixGenes",
                        "returnParams": [
                            {
                                "name": "",
                                "type": "uint256",
                                "value": "628,510,768,388,504,041,736,824,767,772,718,545,669,054,109,460,007,702,904,217,183,764,069,807"
                            }
                        ],
                        "signature": "mixGenes(uint256,uint256,uint256)"
                    },
                    "errorInfo": "",
                    "fromAddress": "0x06012c8cf97bead5deae237070f9587f8e7a266d",
                    "gasUsed": 102612,
                    "id": 3,
                    "methodDecoded": true,
                    "operation": "CALL",
                    "output": "0x00005b10c2948630cc340c6a60c072048072e86238ae10867118475294a7bdaf",
                    "revert": false,
                    "revertMessage": "",
                    "selector": "0x0d9f5aed",
                    "status": true,
                    "value": "0"
                },
                "nodeType": 0
            },
            "4": {
                "event": {
                    "contract": "0x06012c8cf97bead5deae237070f9587f8e7a266d",
                    "decodedLog": {
                        "name": "Birth",
                        "params": [
                            {
                                "name": "owner",
                                "type": "address",
                                "value": "0x73601fd195e1c6407e21845ed40b0c9d61c37ab1"
                            },
                            {
                                "name": "kittyId",
                                "type": "uint256",
                                "value": "409,775"
                            },
                            {
                                "name": "matronId",
                                "type": "uint256",
                                "value": "395,395"
                            },
                            {
                                "name": "sireId",
                                "type": "uint256",
                                "value": "409,255"
                            },
                            {
                                "name": "genes",
                                "type": "uint256",
                                "value": "628,510,768,388,504,041,736,824,767,772,718,545,669,054,109,460,007,702,904,217,183,764,069,807"
                            }
                        ],
                        "signature": "Birth(address,uint256,uint256,uint256,uint256)"
                    },
                    "id": 4,
                    "logData": "0x00000000000000000000000073601fd195e1c6407e21845ed40b0c9d61c37ab100000000000000000000000000000000000000000000000000000000000640af00000000000000000000000000000000000000000000000000000000000608830000000000000000000000000000000000000000000000000000000000063ea700005b10c2948630cc340c6a60c072048072e86238ae10867118475294a7bdaf",
                    "logDecoded": true,
                    "operation": "EVENT",
                    "revert": false,
                    "status": true,
                    "topics": [
                        "0x0a5311bd2a6608f08a180df2ee7c5946819a649b204b554bb8e39825b2c50ad5"
                    ]
                },
                "nodeType": 1
            },
            "5": {
                "event": {
                    "contract": "0x06012c8cf97bead5deae237070f9587f8e7a266d",
                    "decodedLog": {
                        "name": "Transfer",
                        "params": [
                            {
                                "name": "from",
                                "type": "address",
                                "value": "0x0000000000000000000000000000000000000000"
                            },
                            {
                                "name": "to",
                                "type": "address",
                                "value": "0x73601fd195e1c6407e21845ed40b0c9d61c37ab1"
                            },
                            {
                                "decimalAvailable": true,
                                "name": "tokenId",
                                "type": "uint256",
                                "value": "409,775"
                            }
                        ],
                        "signature": "Transfer(address,address,uint256)"
                    },
                    "id": 5,
                    "logData": "0x000000000000000000000000000000000000000000000000000000000000000000000000000000000000000073601fd195e1c6407e21845ed40b0c9d61c37ab100000000000000000000000000000000000000000000000000000000000640af",
                    "logDecoded": true,
                    "operation": "EVENT",
                    "revert": false,
                    "status": true,
                    "topics": [
                        "0xddf252ad1be2c89b69c2b068fc378daa952ba7f163c4a11628f55a4df523b3ef"
                    ]
                },
                "nodeType": 1
            },
            "6": {
                "invocation": {
                    "address": "0xd614cafaf9ec3d0afad882e770d2bd8de4554968",
                    "callData": "0x",
                    "decodedMethod": null,
                    "errorInfo": "",
                    "fromAddress": "0x06012c8cf97bead5deae237070f9587f8e7a266d",
                    "gasUsed": 40,
                    "id": 6,
                    "methodDecoded": false,
                    "operation": "CALL",
                    "output": "",
                    "revert": false,
                    "revertMessage": "",
                    "selector": "fallback",
                    "status": true,
                    "value": "0.008"
                },
                "nodeType": 0
            },
            "7": {
                "invocation": {
                    "address": "0x06012c8cf97bead5deae237070f9587f8e7a266d",
                    "callData": "0x00000000000000000000000000000000000000000000000000000000000613fb",
                    "decodedMethod": {
                        "callParams": [
                            {
                                "name": "_kittyId",
                                "type": "uint256",
                                "value": "398,331"
                            }
                        ],
                        "constructorArguments": "",
                        "name": "isPregnant",
                        "returnParams": [
                            {
                                "name": "",
                                "type": "bool",
                                "value": true
                            }
                        ],
                        "signature": "isPregnant(uint256)"
                    },
                    "errorInfo": "",
                    "fromAddress": "0xd614cafaf9ec3d0afad882e770d2bd8de4554968",
                    "gasUsed": 1118,
                    "id": 7,
                    "methodDecoded": true,
                    "operation": "CALL",
                    "output": "0x0000000000000000000000000000000000000000000000000000000000000001",
                    "revert": false,
                    "revertMessage": "",
                    "selector": "0x1940a936",
                    "status": true,
                    "value": "0"
                },
                "nodeType": 0
            },
            "8": {
                "invocation": {
                    "address": "0x06012c8cf97bead5deae237070f9587f8e7a266d",
                    "callData": "0x00000000000000000000000000000000000000000000000000000000000613fb",
                    "decodedMethod": {
                        "callParams": [
                            {
                                "name": "_matronId",
                                "type": "uint256",
                                "value": "398,331"
                            }
                        ],
                        "constructorArguments": "",
                        "name": "giveBirth",
                        "returnParams": [
                            {
                                "name": "",
                                "type": "uint256",
                                "value": "409,776"
                            }
                        ],
                        "signature": "giveBirth(uint256)"
                    },
                    "errorInfo": "",
                    "fromAddress": "0xd614cafaf9ec3d0afad882e770d2bd8de4554968",
                    "gasUsed": 233764,
                    "id": 8,
                    "methodDecoded": true,
                    "operation": "CALL",
                    "output": "0x00000000000000000000000000000000000000000000000000000000000640b0",
                    "revert": false,
                    "revertMessage": "",
                    "selector": "0x88c2a0bf",
                    "status": true,
                    "value": "0"
                },
                "nodeType": 0
            },
            "9": {
                "invocation": {
                    "address": "0xf97e0a5b616dffc913e72455fde9ea8bbe946a2b",
                    "callData": "0x00006256b218e51986678dce18c0c018d06998a5188031c633086763dd45259700004b129398e74a46103dc9194ec01800331ab328c010cb108ce54a9697b98b0000000000000000000000000000000000000000000000000000000000493340",
                    "decodedMethod": {
                        "callParams": [
                            {
                                "name": "_genes1",
                                "type": "uint256",
                                "value": "678,708,453,227,943,588,565,044,594,800,094,049,448,861,653,442,123,512,362,857,486,390,470,039"
                            },
                            {
                                "name": "_genes2",
                                "type": "uint256",
                                "value": "518,131,798,857,018,363,389,048,286,347,993,023,953,629,213,063,772,787,411,229,901,848,033,675"
                            },
                            {
                                "name": "_targetBlock",
                                "type": "uint256",
                                "value": "4,797,248"
                            }
                        ],
                        "constructorArguments": "",
                        "name": "mixGenes",
                        "returnParams": [
                            {
                                "name": "",
                                "type": "uint256",
                                "value": "678,600,613,444,484,296,785,670,718,925,908,256,499,719,067,695,400,604,788,072,521,875,667,351"
                            }
                        ],
                        "signature": "mixGenes(uint256,uint256,uint256)"
                    },
                    "errorInfo": "",
                    "fromAddress": "0x06012c8cf97bead5deae237070f9587f8e7a266d",
                    "gasUsed": 99465,
                    "id": 9,
                    "methodDecoded": true,
                    "operation": "CALL",
                    "output": "0x00006252b218e718cc3781c928cec000d06994c3194030c71088654bdc953997",
                    "revert": false,
                    "revertMessage": "",
                    "selector": "0x0d9f5aed",
                    "status": true,
                    "value": "0"
                },
                "nodeType": 0
            }
        },
        "gasFlame": [
            {
                "children": [
                    {
                        "children": [
                            {
                                "children": [],
                                "depth": 0,
                                "name": "Initial Gas",
                                "value": 22936
                            },
                            {
                                "children": [
                                    {
                                        "children": [],
                                        "depth": 1,
                                        "name": "isPregnant",
                                        "value": 1118
                                    },
                                    {
                                        "children": [
                                            {
                                                "children": [],
                                                "depth": 2,
                                                "name": "mixGenes",
                                                "value": 102612
                                            },
                                            {
                                                "children": [],
                                                "depth": 2,
                                                "name": "fallback",
                                                "value": 40
                                            }
                                        ],
                                        "depth": 1,
                                        "name": "giveBirth",
                                        "value": 237205
                                    },
                                    {
                                        "children": [],
                                        "depth": 1,
                                        "name": "isPregnant",
                                        "value": 1118
                                    },
                                    {
                                        "children": [
                                            {
                                                "children": [],
                                                "depth": 2,
                                                "name": "mixGenes",
                                                "value": 99465
                                            },
                                            {
                                                "children": [],
                                                "depth": 2,
                                                "name": "fallback",
                                                "value": 40
                                            }
                                        ],
                                        "depth": 1,
                                        "name": "giveBirth",
                                        "value": 233764
                                    },
                                    {
                                        "children": [],
                                        "depth": 1,
                                        "name": "isPregnant",
                                        "value": 1118
                                    },
                                    {
                                        "children": [
                                            {
                                                "children": [],
                                                "depth": 2,
                                                "name": "mixGenes",
                                                "value": 103864
                                            },
                                            {
                                                "children": [],
                                                "depth": 2,
                                                "name": "fallback",
                                                "value": 40
                                            }
                                        ],
                                        "depth": 1,
                                        "name": "giveBirth",
                                        "value": 238163
                                    },
                                    {
                                        "children": [],
                                        "depth": 1,
                                        "name": "isPregnant",
                                        "value": 1118
                                    },
                                    {
                                        "children": [
                                            {
                                                "children": [],
                                                "depth": 2,
                                                "name": "mixGenes",
                                                "value": 103598
                                            },
                                            {
                                                "children": [],
                                                "depth": 2,
                                                "name": "fallback",
                                                "value": 40
                                            }
                                        ],
                                        "depth": 1,
                                        "name": "giveBirth",
                                        "value": 238191
                                    }
                                ],
                                "depth": 0,
                                "name": "Executed Gas",
                                "value": 968080
                            }
                        ],
                        "depth": -1,
                        "name": "Actual Gas Used",
                        "value": 991016
                    },
                    {
                        "children": [],
                        "depth": -1,
                        "name": "Refunded Gas",
                        "value": 0
                    }
                ],
                "depth": -2,
                "name": "Total Gas",
                "value": 991016
            }
        ],
        "isConfirmed": true,
        "mainTrace": [
            {
                "children": [
                    {
                        "children": [
                            {
                                "children": [],
                                "depth": 1,
                                "id": 1,
                                "order": 1
                            },
                            {
                                "children": [
                                    {
                                        "children": [],
                                        "depth": 2,
                                        "id": 3,
                                        "order": 3
                                    },
                                    {
                                        "children": [],
                                        "depth": 2,
                                        "id": 4,
                                        "order": 4
                                    },
                                    {
                                        "children": [],
                                        "depth": 2,
                                        "id": 5,
                                        "order": 5
                                    },
                                    {
                                        "children": [],
                                        "depth": 2,
                                        "id": 6,
                                        "order": 6
                                    }
                                ],
                                "depth": 1,
                                "id": 2,
                                "order": 2
                            },
                            {
                                "children": [],
                                "depth": 1,
                                "id": 7,
                                "order": 7
                            },
                            {
                                "children": [
                                    {
                                        "children": [],
                                        "depth": 2,
                                        "id": 9,
                                        "order": 9
                                    },
                                    {
                                        "children": [],
                                        "depth": 2,
                                        "id": 10,
                                        "order": 10
                                    },
                                    {
                                        "children": [],
                                        "depth": 2,
                                        "id": 11,
                                        "order": 11
                                    },
                                    {
                                        "children": [],
                                        "depth": 2,
                                        "id": 12,
                                        "order": 12
                                    }
                                ],
                                "depth": 1,
                                "id": 8,
                                "order": 8
                            },
                            {
                                "children": [],
                                "depth": 1,
                                "id": 13,
                                "order": 13
                            },
                            {
                                "children": [
                                    {
                                        "children": [],
                                        "depth": 2,
                                        "id": 15,
                                        "order": 15
                                    },
                                    {
                                        "children": [],
                                        "depth": 2,
                                        "id": 16,
                                        "order": 16
                                    },
                                    {
                                        "children": [],
                                        "depth": 2,
                                        "id": 17,
                                        "order": 17
                                    },
                                    {
                                        "children": [],
                                        "depth": 2,
                                        "id": 18,
                                        "order": 18
                                    }
                                ],
                                "depth": 1,
                                "id": 14,
                                "order": 14
                            },
                            {
                                "children": [],
                                "depth": 1,
                                "id": 19,
                                "order": 19
                            },
                            {
                                "children": [
                                    {
                                        "children": [],
                                        "depth": 2,
                                        "id": 21,
                                        "order": 21
                                    },
                                    {
                                        "children": [],
                                        "depth": 2,
                                        "id": 22,
                                        "order": 22
                                    },
                                    {
                                        "children": [],
                                        "depth": 2,
                                        "id": 23,
                                        "order": 23
                                    },
                                    {
                                        "children": [],
                                        "depth": 2,
                                        "id": 24,
                                        "order": 24
                                    }
                                ],
                                "depth": 1,
                                "id": 20,
                                "order": 20
                            }
                        ],
                        "depth": 0,
                        "id": 0,
                        "order": 0
                    }
                ],
                "depth": -1,
                "id": -1,
                "order": -1
            }
        ],
        "mainTraceNodeCount": 25,
        "parentIdMap": {
            "0": -1,
            "1": 0,
            "10": 8,
            "11": 8,
            "12": 8,
            "13": 0,
            "14": 0,
            "15": 14,
            "16": 14,
            "17": 14,
            "18": 14,
            "19": 0,
            "2": 0,
            "20": 0,
            "21": 20,
            "22": 20,
            "23": 20,
            "24": 20,
            "3": 2,
            "4": 2,
            "5": 2,
            "6": 2,
            "7": 0,
            "8": 0,
            "9": 8
        },
        "tidyTrace": [
            {
                "children": [
                    {
                        "children": [
                            {
                                "children": [],
                                "depth": 1,
                                "id": 1,
                                "order": 1
                            },
                            {
                                "children": [
                                    {
                                        "children": [],
                                        "depth": 2,
                                        "id": 3,
                                        "order": 3
                                    },
                                    {
                                        "children": [],
                                        "depth": 2,
                                        "id": 4,
                                        "order": 4
                                    },
                                    {
                                        "children": [],
                                        "depth": 2,
                                        "id": 5,
                                        "order": 5
                                    },
                                    {
                                        "children": [],
                                        "depth": 2,
                                        "id": 6,
                                        "order": 6
                                    }
                                ],
                                "depth": 1,
                                "id": 2,
                                "order": 2
                            },
                            {
                                "children": [],
                                "depth": 1,
                                "id": 7,
                                "order": 7
                            },
                            {
                                "children": [
                                    {
                                        "children": [],
                                        "depth": 2,
                                        "id": 9,
                                        "order": 9
                                    },
                                    {
                                        "children": [],
                                        "depth": 2,
                                        "id": 10,
                                        "order": 10
                                    },
                                    {
                                        "children": [],
                                        "depth": 2,
                                        "id": 11,
                                        "order": 11
                                    },
                                    {
                                        "children": [],
                                        "depth": 2,
                                        "id": 12,
                                        "order": 12
                                    }
                                ],
                                "depth": 1,
                                "id": 8,
                                "order": 8
                            },
                            {
                                "children": [],
                                "depth": 1,
                                "id": 13,
                                "order": 13
                            },
                            {
                                "children": [
                                    {
                                        "children": [],
                                        "depth": 2,
                                        "id": 15,
                                        "order": 15
                                    },
                                    {
                                        "children": [],
                                        "depth": 2,
                                        "id": 16,
                                        "order": 16
                                    },
                                    {
                                        "children": [],
                                        "depth": 2,
                                        "id": 17,
                                        "order": 17
                                    },
                                    {
                                        "children": [],
                                        "depth": 2,
                                        "id": 18,
                                        "order": 18
                                    }
                                ],
                                "depth": 1,
                                "id": 14,
                                "order": 14
                            },
                            {
                                "children": [],
                                "depth": 1,
                                "id": 19,
                                "order": 19
                            },
                            {
                                "children": [
                                    {
                                        "children": [],
                                        "depth": 2,
                                        "id": 21,
                                        "order": 21
                                    },
                                    {
                                        "children": [],
                                        "depth": 2,
                                        "id": 22,
                                        "order": 22
                                    },
                                    {
                                        "children": [],
                                        "depth": 2,
                                        "id": 23,
                                        "order": 23
                                    },
                                    {
                                        "children": [],
                                        "depth": 2,
                                        "id": 24,
                                        "order": 24
                                    }
                                ],
                                "depth": 1,
                                "id": 20,
                                "order": 20
                            }
                        ],
                        "depth": 0,
                        "id": 0,
                        "order": 0
                    }
                ],
                "depth": -1,
                "id": -1,
                "order": -1
            }
        ],
        "tidyTraceNodeCount": 25
    },
    "state_change": {
        "stateChanges": [
            {
                "address": "0x06012c8cf97bead5deae237070f9587f8e7a266d",
                "erc": "",
                "slots": [
                    {
                        "current": "0x000000000000000000000000000000000000000000000000000000000000066e",
                        "key": "0x000000000000000000000000000000000000000000000000000000000000000f",
                        "prev": "0x0000000000000000000000000000000000000000000000000000000000000672"
                    },
                    {
                        "current": "0x0018000c000000000005f377000613fb0000000000000000000000005a418946",
                        "key": "0xf652222313e28459528d920b65115c16c04f3efc82aaedc97be59f3f37888ea0",
                        "prev": "0x0000000000000000000000000000000000000000000000000000000000000000"
                    },
                    {
                        "current": "0x000300030000000000063514000635100000000000493341000000005a40c17d",
                        "key": "0xf652222313e28459528d920b65115c16c04f3efc82aaedc97be59f3f37887794",
                        "prev": "0x000300030005a3e500063514000635100000000000493341000000005a40c17d"
                    },
                    {
                        "current": "0x00000000000000000000000000000000000000000000000000000000000000b3",
                        "key": "0x996f7449fe58aaf55cb604c2171b78c9e2b842e8269a0f0d57430a9a18fd88a6",
                        "prev": "0x00000000000000000000000000000000000000000000000000000000000000b2"
                    },
                    {
                        "current": "0x00005a16c294a548d21539e818d8031c466990928cc4198c628c434212863d2c",
                        "key": "0xf652222313e28459528d920b65115c16c04f3efc82aaedc97be59f3f37888ea3",
                        "prev": "0x0000000000000000000000000000000000000000000000000000000000000000"
                    },
                    {
                        "current": "0x00000000000000000000000073601fd195e1c6407e21845ed40b0c9d61c37ab1",
                        "key": "0x888c974c2fb2414821a38d48856567f35894d254db4650f2e64f36d7707a5741",
                        "prev": "0x0000000000000000000000000000000000000000000000000000000000000000"
                    },
                    {
                        "current": "0x000000000000000000000000a284230309987c1450890e446efc56f48d650dc3",
                        "key": "0x4154c66f3ec6cdb579a8179d5749ccea4b4dfa7b33d8132275b00cc40b625fba",
                        "prev": "0x0000000000000000000000000000000000000000000000000000000000000000"
                    },
                    {
                        "current": "0x00100009000000000006248100040ac90000000000493341000000005a40c944",
                        "key": "0xf652222313e28459528d920b65115c16c04f3efc82aaedc97be59f3f37887880",
                        "prev": "0x001000090006358b0006248100040ac90000000000493341000000005a40c944"
                    },
                    {
                        "current": "0x000000000000000000000000000000000000000000000000000000000000003c",
                        "key": "0x527a574a7b6c66394204357b3e1e2b84cc2669c1cc62dad8b41c7cb31b4e4af1",
                        "prev": "0x000000000000000000000000000000000000000000000000000000000000003b"
                    },
                    {
                        "current": "0x0000000000000000000000000000000000000000000000000000000000000030",
                        "key": "0xc10fb5af0a622d1555a156d75c9328a01f1fec1445e852edf4bf2a5cdf8e2334",
                        "prev": "0x000000000000000000000000000000000000000000000000000000000000002f"
                    },
                    {
                        "current": "0x0000000000000000000000008abda881c2009f4de8688de9fdb7c03d5681df47",
                        "key": "0x1a62ad966aeabaa5d8be62d6e7ae0ffbe674f5a89689c5504ea7a0eb89d7dca5",
                        "prev": "0x0000000000000000000000000000000000000000000000000000000000000000"
                    },
                    {
                        "current": "0x000042d68310e748523739ce39d8c08480721a8298853946329c274a54a7bdef",
                        "key": "0xf652222313e28459528d920b65115c16c04f3efc82aaedc97be59f3f37888ea1",
                        "prev": "0x0000000000000000000000000000000000000000000000000000000000000000"
                    },
                    {
                        "current": "0x00040002000000000005a3e50006352a0000000000000000000000005a418946",
                        "key": "0xf652222313e28459528d920b65115c16c04f3efc82aaedc97be59f3f37888ea2",
                        "prev": "0x0000000000000000000000000000000000000000000000000000000000000000"
                    },
                    {
                        "current": "0x0017000c000000000005ff5c0006137b0000000000493341000000005a3ef693",
                        "key": "0xf652222313e28459528d920b65115c16c04f3efc82aaedc97be59f3f37883536",
                        "prev": "0x0017000c0005f3770005ff5c0006137b0000000000493341000000005a3ef693"
                    },
                    {
                        "current": "0x000800040000000000063ea7000608830000000000000000000000005a418946",
                        "key": "0xf652222313e28459528d920b65115c16c04f3efc82aaedc97be59f3f37888e9e",
                        "prev": "0x0000000000000000000000000000000000000000000000000000000000000000"
                    },
                    {
                        "current": "0x00060006000000000005fbe70005405c0000000000493341000000005a3e7b57",
                        "key": "0xf652222313e28459528d920b65115c16c04f3efc82aaedc97be59f3f37881e46",
                        "prev": "0x0006000600063ea70005fbe70005405c0000000000493341000000005a3e7b57"
                    },
                    {
                        "current": "0x00000000000000000000000000000000000000000000000000000000000640b3",
                        "key": "0x0000000000000000000000000000000000000000000000000000000000000006",
                        "prev": "0x00000000000000000000000000000000000000000000000000000000000640af"
                    },
                    {
                        "current": "0x00006252b218e718cc3781c928cec000d06994c3194030c71088654bdc953997",
                        "key": "0xf652222313e28459528d920b65115c16c04f3efc82aaedc97be59f3f37888e9f",
                        "prev": "0x0000000000000000000000000000000000000000000000000000000000000000"
                    },
                    {
                        "current": "0x0000000000000000000000000000000000000000000000000000000000000005",
                        "key": "0xa1349dc04b786e8fcea824281e35acde15aa709484eeaf62773e922a2b68ee1d",
                        "prev": "0x0000000000000000000000000000000000000000000000000000000000000004"
                    },
                    {
                        "current": "0x00000000000000000000000040de4de1fbf497b60412c10dc1fabae64f0f095f",
                        "key": "0x9da01d74dd060150d14d6c3b01ac81adbf8d51eb04e9916073613eb984654972",
                        "prev": "0x0000000000000000000000000000000000000000000000000000000000000000"
                    },
                    {
                        "current": "0x00120009000000000006358b000635a00000000000000000000000005a418946",
                        "key": "0xf652222313e28459528d920b65115c16c04f3efc82aaedc97be59f3f37888ea4",
                        "prev": "0x0000000000000000000000000000000000000000000000000000000000000000"
                    },
                    {
                        "current": "0x00005b10c2948630cc340c6a60c072048072e86238ae10867118475294a7bdaf",
                        "key": "0xf652222313e28459528d920b65115c16c04f3efc82aaedc97be59f3f37888e9d",
                        "prev": "0x0000000000000000000000000000000000000000000000000000000000000000"
                    }
                ],
                "storageVariables": [
                    {
                        "name": "kittyIndexToOwner",
                        "type": "mapping(uint256 => address)",
                        "value": {
                            "pairs": [
                                {
                                    "key": "409775",
                                    "value": {
                                        "current": "0x73601fd195e1c6407e21845ed40b0c9d61c37ab1",
                                        "prev": "0x0000000000000000000000000000000000000000",
                                        "typeTag": 1
                                    }
                                },
                                {
                                    "key": "409776",
                                    "value": {
                                        "current": "0xa284230309987c1450890e446efc56f48d650dc3",
                                        "prev": "0x0000000000000000000000000000000000000000",
                                        "typeTag": 1
                                    }
                                },
                                {
                                    "key": "409777",
                                    "value": {
                                        "current": "0x8abda881c2009f4de8688de9fdb7c03d5681df47",
                                        "prev": "0x0000000000000000000000000000000000000000",
                                        "typeTag": 1
                                    }
                                },
                                {
                                    "key": "409778",
                                    "value": {
                                        "current": "0x40de4de1fbf497b60412c10dc1fabae64f0f095f",
                                        "prev": "0x0000000000000000000000000000000000000000",
                                        "typeTag": 1
                                    }
                                }
                            ],
                            "typeTag": 4
                        }
                    },
                    {
                        "name": "ownershipTokenCount",
                        "type": "mapping(address => uint256)",
                        "value": {
                            "pairs": [
                                {
                                    "key": "0x40de4de1fbf497b60412c10dc1fabae64f0f095f",
                                    "value": {
                                        "current": "60",
                                        "prev": "59",
                                        "typeTag": 1
                                    }
                                },
                                {
                                    "key": "0x73601fd195e1c6407e21845ed40b0c9d61c37ab1",
                                    "value": {
                                        "current": "48",
                                        "prev": "47",
                                        "typeTag": 1
                                    }
                                },
                                {
                                    "key": "0x8abda881c2009f4de8688de9fdb7c03d5681df47",
                                    "value": {
                                        "current": "179",
                                        "prev": "178",
                                        "typeTag": 1
                                    }
                                },
                                {
                                    "key": "0xa284230309987c1450890e446efc56f48d650dc3",
                                    "value": {
                                        "current": "5",
                                        "prev": "4",
                                        "typeTag": 1
                                    }
                                }
                            ],
                            "typeTag": 4
                        }
                    },
                    {
                        "name": "kitties",
                        "type": "struct KittyBase.Kitty[]",
                        "value": {
                            "elemType": "struct KittyBase.Kitty",
                            "elems": [
                                {
                                    "index": 395395,
                                    "value": {
                                        "fields": [
                                            {
                                                "name": "birthTime",
                                                "type": "uint64",
                                                "value": {
                                                    "current": "1514044247",
                                                    "prev": "1514044247",
                                                    "typeTag": 1
                                                }
                                            },
                                            {
                                                "name": "cooldownEndBlock",
                                                "type": "uint64",
                                                "value": {
                                                    "current": "4797249",
                                                    "prev": "4797249",
                                                    "typeTag": 1
                                                }
                                            },
                                            {
                                                "name": "matronId",
                                                "type": "uint32",
                                                "value": {
                                                    "current": "344156",
                                                    "prev": "344156",
                                                    "typeTag": 1
                                                }
                                            },
                                            {
                                                "name": "sireId",
                                                "type": "uint32",
                                                "value": {
                                                    "current": "392167",
                                                    "prev": "392167",
                                                    "typeTag": 1
                                                }
                                            },
                                            {
                                                "name": "siringWithId",
                                                "type": "uint32",
                                                "value": {
                                                    "current": "0",
                                                    "prev": "409255",
                                                    "typeTag": 1
                                                }
                                            },
                                            {
                                                "name": "cooldownIndex",
                                                "type": "uint16",
                                                "value": {
                                                    "current": "6",
                                                    "prev": "6",
                                                    "typeTag": 1
                                                }
                                            },
                                            {
                                                "name": "generation",
                                                "type": "uint16",
                                                "value": {
                                                    "current": "6",
                                                    "prev": "6",
                                                    "typeTag": 1
                                                }
                                            }
                                        ],
                                        "typeTag": 3
                                    }
                                },
                                {
                                    "index": 398331,
                                    "value": {
                                        "fields": [
                                            {
                                                "name": "birthTime",
                                                "type": "uint64",
                                                "value": {
                                                    "current": "1514075795",
                                                    "prev": "1514075795",
                                                    "typeTag": 1
                                                }
                                            },
                                            {
                                                "name": "cooldownEndBlock",
                                                "type": "uint64",
                                                "value": {
                                                    "current": "4797249",
                                                    "prev": "4797249",
                                                    "typeTag": 1
                                                }
                                            },
                                            {
                                                "name": "matronId",
                                                "type": "uint32",
                                                "value": {
                                                    "current": "398203",
                                                    "prev": "398203",
                                                    "typeTag": 1
                                                }
                                            },
                                            {
                                                "name": "sireId",
                                                "type": "uint32",
                                                "value": {
                                                    "current": "393052",
                                                    "prev": "393052",
                                                    "typeTag": 1
                                                }
                                            },
                                            {
                                                "name": "siringWithId",
                                                "type": "uint32",
                                                "value": {
                                                    "current": "0",
                                                    "prev": "390007",
                                                    "typeTag": 1
                                                }
                                            },
                                            {
                                                "name": "cooldownIndex",
                                                "type": "uint16",
                                                "value": {
                                                    "current": "12",
                                                    "prev": "12",
                                                    "typeTag": 1
                                                }
                                            },
                                            {
                                                "name": "generation",
                                                "type": "uint16",
                                                "value": {
                                                    "current": "23",
                                                    "prev": "23",
                                                    "typeTag": 1
                                                }
                                            }
                                        ],
                                        "typeTag": 3
                                    }
                                },
                                {
                                    "index": 406826,
                                    "value": {
                                        "fields": [
                                            {
                                                "name": "birthTime",
                                                "type": "uint64",
                                                "value": {
                                                    "current": "1514193277",
                                                    "prev": "1514193277",
                                                    "typeTag": 1
                                                }
                                            },
                                            {
                                                "name": "cooldownEndBlock",
                                                "type": "uint64",
                                                "value": {
                                                    "current": "4797249",
                                                    "prev": "4797249",
                                                    "typeTag": 1
                                                }
                                            },
                                            {
                                                "name": "matronId",
                                                "type": "uint32",
                                                "value": {
                                                    "current": "406800",
                                                    "prev": "406800",
                                                    "typeTag": 1
                                                }
                                            },
                                            {
                                                "name": "sireId",
                                                "type": "uint32",
                                                "value": {
                                                    "current": "406804",
                                                    "prev": "406804",
                                                    "typeTag": 1
                                                }
                                            },
                                            {
                                                "name": "siringWithId",
                                                "type": "uint32",
                                                "value": {
                                                    "current": "0",
                                                    "prev": "369637",
                                                    "typeTag": 1
                                                }
                                            },
                                            {
                                                "name": "cooldownIndex",
                                                "type": "uint16",
                                                "value": {
                                                    "current": "3",
                                                    "prev": "3",
                                                    "typeTag": 1
                                                }
                                            },
                                            {
                                                "name": "generation",
                                                "type": "uint16",
                                                "value": {
                                                    "current": "3",
                                                    "prev": "3",
                                                    "typeTag": 1
                                                }
                                            }
                                        ],
                                        "typeTag": 3
                                    }
                                },
                                {
                                    "index": 406944,
                                    "value": {
                                        "fields": [
                                            {
                                                "name": "birthTime",
                                                "type": "uint64",
                                                "value": {
                                                    "current": "1514195268",
                                                    "prev": "1514195268",
                                                    "typeTag": 1
                                                }
                                            },
                                            {
                                                "name": "cooldownEndBlock",
                                                "type": "uint64",
                                                "value": {
                                                    "current": "4797249",
                                                    "prev": "4797249",
                                                    "typeTag": 1
                                                }
                                            },
                                            {
                                                "name": "matronId",
                                                "type": "uint32",
                                                "value": {
                                                    "current": "264905",
                                                    "prev": "264905",
                                                    "typeTag": 1
                                                }
                                            },
                                            {
                                                "name": "sireId",
                                                "type": "uint32",
                                                "value": {
                                                    "current": "402561",
                                                    "prev": "402561",
                                                    "typeTag": 1
                                                }
                                            },
                                            {
                                                "name": "siringWithId",
                                                "type": "uint32",
                                                "value": {
                                                    "current": "0",
                                                    "prev": "406923",
                                                    "typeTag": 1
                                                }
                                            },
                                            {
                                                "name": "cooldownIndex",
                                                "type": "uint16",
                                                "value": {
                                                    "current": "9",
                                                    "prev": "9",
                                                    "typeTag": 1
                                                }
                                            },
                                            {
                                                "name": "generation",
                                                "type": "uint16",
                                                "value": {
                                                    "current": "16",
                                                    "prev": "16",
                                                    "typeTag": 1
                                                }
                                            }
                                        ],
                                        "typeTag": 3
                                    }
                                },
                                {
                                    "index": 409775,
                                    "value": {
                                        "fields": [
                                            {
                                                "name": "genes",
                                                "type": "uint256",
                                                "value": {
                                                    "current": "628510768388504041736824767772718545669054109460007702904217183764069807",
                                                    "prev": "0",
                                                    "typeTag": 1
                                                }
                                            },
                                            {
                                                "name": "birthTime",
                                                "type": "uint64",
                                                "value": {
                                                    "current": "1514244422",
                                                    "prev": "0",
                                                    "typeTag": 1
                                                }
                                            },
                                            {
                                                "name": "cooldownEndBlock",
                                                "type": "uint64",
                                                "value": {
                                                    "current": "0",
                                                    "prev": "0",
                                                    "typeTag": 1
                                                }
                                            },
                                            {
                                                "name": "matronId",
                                                "type": "uint32",
                                                "value": {
                                                    "current": "395395",
                                                    "prev": "0",
                                                    "typeTag": 1
                                                }
                                            },
                                            {
                                                "name": "sireId",
                                                "type": "uint32",
                                                "value": {
                                                    "current": "409255",
                                                    "prev": "0",
                                                    "typeTag": 1
                                                }
                                            },
                                            {
                                                "name": "siringWithId",
                                                "type": "uint32",
                                                "value": {
                                                    "current": "0",
                                                    "prev": "0",
                                                    "typeTag": 1
                                                }
                                            },
                                            {
                                                "name": "cooldownIndex",
                                                "type": "uint16",
                                                "value": {
                                                    "current": "4",
                                                    "prev": "0",
                                                    "typeTag": 1
                                                }
                                            },
                                            {
                                                "name": "generation",
                                                "type": "uint16",
                                                "value": {
                                                    "current": "8",
                                                    "prev": "0",
                                                    "typeTag": 1
                                                }
                                            }
                                        ],
                                        "typeTag": 3
                                    }
                                },
                                {
                                    "index": 409776,
                                    "value": {
                                        "fields": [
                                            {
                                                "name": "genes",
                                                "type": "uint256",
                                                "value": {
                                                    "current": "678600613444484296785670718925908256499719067695400604788072521875667351",
                                                    "prev": "0",
                                                    "typeTag": 1
                                                }
                                            },
                                            {
                                                "name": "birthTime",
                                                "type": "uint64",
                                                "value": {
                                                    "current": "1514244422",
                                                    "prev": "0",
                                                    "typeTag": 1
                                                }
                                            },
                                            {
                                                "name": "cooldownEndBlock",
                                                "type": "uint64",
                                                "value": {
                                                    "current": "0",
                                                    "prev": "0",
                                                    "typeTag": 1
                                                }
                                            },
                                            {
                                                "name": "matronId",
                                                "type": "uint32",
                                                "value": {
                                                    "current": "398331",
                                                    "prev": "0",
                                                    "typeTag": 1
                                                }
                                            },
                                            {
                                                "name": "sireId",
                                                "type": "uint32",
                                                "value": {
                                                    "current": "390007",
                                                    "prev": "0",
                                                    "typeTag": 1
                                                }
                                            },
                                            {
                                                "name": "siringWithId",
                                                "type": "uint32",
                                                "value": {
                                                    "current": "0",
                                                    "prev": "0",
                                                    "typeTag": 1
                                                }
                                            },
                                            {
                                                "name": "cooldownIndex",
                                                "type": "uint16",
                                                "value": {
                                                    "current": "12",
                                                    "prev": "0",
                                                    "typeTag": 1
                                                }
                                            },
                                            {
                                                "name": "generation",
                                                "type": "uint16",
                                                "value": {
                                                    "current": "24",
                                                    "prev": "0",
                                                    "typeTag": 1
                                                }
                                            }
                                        ],
                                        "typeTag": 3
                                    }
                                },
                                {
                                    "index": 409777,
                                    "value": {
                                        "fields": [
                                            {
                                                "name": "genes",
                                                "type": "uint256",
                                                "value": {
                                                    "current": "461298490338830912635539487933701956939384507562118784701348008165883375",
                                                    "prev": "0",
                                                    "typeTag": 1
                                                }
                                            },
                                            {
                                                "name": "birthTime",
                                                "type": "uint64",
                                                "value": {
                                                    "current": "1514244422",
                                                    "prev": "0",
                                                    "typeTag": 1
                                                }
                                            },
                                            {
                                                "name": "cooldownEndBlock",
                                                "type": "uint64",
                                                "value": {
                                                    "current": "0",
                                                    "prev": "0",
                                                    "typeTag": 1
                                                }
                                            },
                                            {
                                                "name": "matronId",
                                                "type": "uint32",
                                                "value": {
                                                    "current": "406826",
                                                    "prev": "0",
                                                    "typeTag": 1
                                                }
                                            },
                                            {
                                                "name": "sireId",
                                                "type": "uint32",
                                                "value": {
                                                    "current": "369637",
                                                    "prev": "0",
                                                    "typeTag": 1
                                                }
                                            },
                                            {
                                                "name": "siringWithId",
                                                "type": "uint32",
                                                "value": {
                                                    "current": "0",
                                                    "prev": "0",
                                                    "typeTag": 1
                                                }
                                            },
                                            {
                                                "name": "cooldownIndex",
                                                "type": "uint16",
                                                "value": {
                                                    "current": "2",
                                                    "prev": "0",
                                                    "typeTag": 1
                                                }
                                            },
                                            {
                                                "name": "generation",
                                                "type": "uint16",
                                                "value": {
                                                    "current": "4",
                                                    "prev": "0",
                                                    "typeTag": 1
                                                }
                                            }
                                        ],
                                        "typeTag": 3
                                    }
                                },
                                {
                                    "index": 409778,
                                    "value": {
                                        "fields": [
                                            {
                                                "name": "genes",
                                                "type": "uint256",
                                                "value": {
                                                    "current": "621770781771682255769218043125343967869729678348289695109609071910993196",
                                                    "prev": "0",
                                                    "typeTag": 1
                                                }
                                            },
                                            {
                                                "name": "birthTime",
                                                "type": "uint64",
                                                "value": {
                                                    "current": "1514244422",
                                                    "prev": "0",
                                                    "typeTag": 1
                                                }
                                            },
                                            {
                                                "name": "cooldownEndBlock",
                                                "type": "uint64",
                                                "value": {
                                                    "current": "0",
                                                    "prev": "0",
                                                    "typeTag": 1
                                                }
                                            },
                                            {
                                                "name": "matronId",
                                                "type": "uint32",
                                                "value": {
                                                    "current": "406944",
                                                    "prev": "0",
                                                    "typeTag": 1
                                                }
                                            },
                                            {
                                                "name": "sireId",
                                                "type": "uint32",
                                                "value": {
                                                    "current": "406923",
                                                    "prev": "0",
                                                    "typeTag": 1
                                                }
                                            },
                                            {
                                                "name": "siringWithId",
                                                "type": "uint32",
                                                "value": {
                                                    "current": "0",
                                                    "prev": "0",
                                                    "typeTag": 1
                                                }
                                            },
                                            {
                                                "name": "cooldownIndex",
                                                "type": "uint16",
                                                "value": {
                                                    "current": "9",
                                                    "prev": "0",
                                                    "typeTag": 1
                                                }
                                            },
                                            {
                                                "name": "generation",
                                                "type": "uint16",
                                                "value": {
                                                    "current": "18",
                                                    "prev": "0",
                                                    "typeTag": 1
                                                }
                                            }
                                        ],
                                        "typeTag": 3
                                    }
                                }
                            ],
                            "typeTag": 2
                        }
                    },
                    {
                        "name": "pregnantKitties",
                        "type": "uint256",
                        "value": {
                            "current": "1646",
                            "prev": "1650",
                            "typeTag": 1
                        }
                    }
                ]
            }
        ]
    }
}