{
    "balance_change": {
        "balanceChanges": [
            {
                "account": "0xb1ba5f91e4aa27cdbcbdaec6a8736ebe3c440be7",
                "assets": [
                    {
                        "address": "0xc7283b66eb1eb5fb86327f08e1b5816b0720212b",
                        "amount": "300",
                        "iconUrl": "https://assets.blocksec.com/icon/453aefac730062d97ac62d0d1af3190fd2c65918242e4fd4b3de7dc5cda77de0.png",
                        "isERC1155": false,
                        "isERC721": false,
                        "sign": false,
                        "value": "145.9499999999999964"
                    }
                ]
            },
            {
                "account": "0x28c6c06298d514db089934071355e5743bf21d60",
                "assets": [
                    {
                        "address": "0xc7283b66eb1eb5fb86327f08e1b5816b0720212b",
                        "amount": "300",
                        "iconUrl": "https://assets.blocksec.com/icon/453aefac730062d97ac62d0d1af3190fd2c65918242e4fd4b3de7dc5cda77de0.png",
                        "isERC1155": false,
                        "isERC721": false,
                        "sign": true,
                        "value": "145.9499999999999964"
                    }
                ]
            }
        ]
    },
    "profile": {
        "basic_info": {
            "baseFee": "4.784628973",
            "blockNumber": 20511657,
            "callData": "0xa9059cbb00000000000000000000000028c6c06298d514db089934071355e5743bf21d6000000000000000000000000000000000000000000000001043561a8829300000",
            "debugEnable": true,
            "errorInfo": "",
            "eventCount": 1,
            "feeRecipient": "0x388c818ca8b9251b393131c08a736a67ccb19297",
            "formatValue": "0",
            "gasLimit": 79860,
            "gasPrice": "6.184628973",
            "gasUsed": 35130,
            "intTxnCount": 0,
            "internalRevert": false,
            "internalRevertMessage": "",
            "isContractCreation": false,
            "isFlashloan": false,
            "maxFee": "24",
            "nonce": 2,
            "overwritedBlockNumber": -1,
            "priorityFee": "1.4",
            "receiver": "0xc7283b66eb1eb5fb86327f08e1b5816b0720212b",
            "revertMessage": "",
            "sender": "0xb1ba5f91e4aa27cdbcbdaec6a8736ebe3c440be7",
            "simulationEnable": true,
            "sourceTxnHash": "0x6740b77d24884000b7767467e459152fae288a70376f2c01e766695124dd9a17",
            "status": true,
            "timestamp": "2024-08-12T09:31:47Z",
            "transactionFee": "0.00021726601582149",
            "txnHash": "0x6740b77d24884000b7767467e459152fae288a70376f2c01e766695124dd9a17",
            "txnIndex": 96,
            "type": 2,
            "value": "0"
        },
        "fund_flow": [
            {
                "amount": "300",
                "from": "0xb1ba5f91e4aa27cdbcbdaec6a8736ebe3c440be7",
                "id": 1,
                "isERC1155": false,
                "isERC721": false,
                "isReverted": false,
                "order": 1,
                "to": "0x28c6c06298d514db089934071355e5743bf21d60",
                "token": "0xc7283b66eb1eb5fb86327f08e1b5816b0720212b"
            }
        ],
        "token_infos": [
            {
                "address": "0xc02aaa39b223fe8d0a0e5c4f27ead9083c756cc2",
                "decimals": 18
            },
            {
                "address": "0xc7283b66eb1eb5fb86327f08e1b5816b0720212b",
                "decimals": 18
            },
            {
                "address": "0xeeeeeeeeeeeeeeeeeeeeeeeeeeeeeeeeeeeeeeee",
                "decimals": 18
            }
        ]
    },
    "address_label": {
        "labels": [
            {
                "address": "0x388c818ca8b9251b393131c08a736a67ccb19297",
                "label": "LidoExecutionLayerRewardsVault"
            },
            {
                "address": "0x0000000000000000000000000000000000000002",
                "label": "Precompiled"
            },
            {
                "address": "0x0000000000000000000000000000000000000003",
                "label": "Precompiled"
            },
            {
                "address": "0xb1ba5f91e4aa27cdbcbdaec6a8736ebe3c440be7",
                "label": "BINANCE"
            },
            {
                "address": "0x28c6c06298d514db089934071355e5743bf21d60",
                "label": "Binance 14"
            },
            {
                "address": "0x0000000000000000000000000000000000000001",
                "label": "Precompiled"
            },
            {
                "address": "0x0000000000000000000000000000000000000004",
                "label": "Precompiled"
            },
            {
                "address": "0xeeeeeeeeeeeeeeeeeeeeeeeeeeeeeeeeeeeeeeee",
                "label": "Ether"
            },
            {
                "address": "0xc7283b66eb1eb5fb86327f08e1b5816b0720212b",
                "label": "Fei Protocol: Tribe"
            }
        ]
    },
    "trace": {
        "accountLabels": null,
        "dataMap": {
            "-1": {
                "invocation": {
                    "address": "0xb1ba5f91e4aa27cdbcbdaec6a8736ebe3c440be7",
                    "callData": "",
                    "decodedMethod": null,
                    "errorInfo": "",
                    "fromAddress": "",
                    "gasUsed": 0,
                    "id": -1,
                    "methodDecoded": false,
                    "operation": "",
                    "output": "",
                    "revert": false,
                    "revertMessage": "",
                    "selector": "",
                    "status": false,
                    "value": ""
                },
                "nodeType": 0
            },
            "0": {
                "invocation": {
                    "address": "0xc7283b66eb1eb5fb86327f08e1b5816b0720212b",
                    "callData": "0x00000000000000000000000028c6c06298d514db089934071355e5743bf21d6000000000000000000000000000000000000000000000001043561a8829300000",
                    "decodedMethod": {
                        "callParams": [
                            {
                                "name": "dst",
                                "type": "address",
                                "value": "0x28c6c06298d514db089934071355e5743bf21d60"
                            },
                            {
                                "decimalAvailable": true,
                                "name": "rawAmount",
                                "type": "uint256",
                                "value": "300,000,000,000,000,000,000"
                            }
                        ],
                        "constructorArguments": "",
                        "name": "transfer",
                        "returnParams": [
                            {
                                "name": "",
                                "type": "bool",
                                "value": true
                            }
                        ],
                        "signature": "transfer(address,uint256)"
                    },
                    "errorInfo": "",
                    "fromAddress": "0xb1ba5f91e4aa27cdbcbdaec6a8736ebe3c440be7",
                    "gasUsed": 35130,
                    "id": 0,
                    "methodDecoded": true,
                    "operation": "CALL",
                    "output": "0x0000000000000000000000000000000000000000000000000000000000000001",
                    "revert": false,
                    "revertMessage": "",
                    "selector": "0xa9059cbb",
                    "status": true,
                    "value": "0"
                },
                "nodeType": 0
            },
            "1": {
                "event": {
                    "contract": "0xc7283b66eb1eb5fb86327f08e1b5816b0720212b",
                    "decodedLog": {
                        "name": "Transfer",
                        "params": [
                            {
                                "name": "from",
                                "type": "address",
                                "value": "0xb1ba5f91e4aa27cdbcbdaec6a8736ebe3c440be7"
                            },
                            {
                                "name": "to",
                                "type": "address",
                                "value": "0x28c6c06298d514db089934071355e5743bf21d60"
                            },
                            {
                                "decimalAvailable": true,
                                "name": "amount",
                                "type": "uint256",
                                "value": "300,000,000,000,000,000,000"
                            }
                        ],
                        "signature": "Transfer(address,address,uint256)"
                    },
                    "id": 1,
                    "logData": "0x00000000000000000000000000000000000000000000001043561a8829300000",
                    "logDecoded": true,
                    "operation": "EVENT",
                    "revert": false,
                    "status": true,
                    "topics": [
                        "0xddf252ad1be2c89b69c2b068fc378daa952ba7f163c4a11628f55a4df523b3ef",
                        "0x000000000000000000000000b1ba5f91e4aa27cdbcbdaec6a8736ebe3c440be7",
                        "0x00000000000000000000000028c6c06298d514db089934071355e5743bf21d60"
                    ]
                },
                "nodeType": 1
            }
        },
        "gasFlame": [
            {
                "children": [
                    {
                        "children": [
                            {
                                "children": [],
                                "depth": 0,
                                "name": "Initial Gas",
                                "value": 21644
                            },
                            {
                                "children": [],
                                "depth": 0,
                                "name": "Executed Gas",
                                "value": 18286
                            }
                        ],
                        "depth": -1,
                        "name": "Actual Gas Used",
                        "value": 35130
                    },
                    {
                        "children": [],
                        "depth": -1,
                        "name": "Refunded Gas",
                        "value": 4800
                    }
                ],
                "depth": -2,
                "name": "Total Gas",
                "value": 39930
            }
        ],
        "isConfirmed": true,
        "mainTrace": [
            {
                "children": [
                    {
                        "children": [
                            {
                                "children": [],
                                "depth": 1,
                                "id": 1,
                                "order": 1
                            }
                        ],
                        "depth": 0,
                        "id": 0,
                        "order": 0
                    }
                ],
                "depth": -1,
                "id": -1,
                "order": -1
            }
        ],
        "mainTraceNodeCount": 2,
        "parentIdMap": {
            "0": -1,
            "1": 0
        },
        "tidyTrace": [
            {
                "children": [
                    {
                        "children": [
                            {
                                "children": [],
                                "depth": 1,
                                "id": 1,
                                "order": 1
                            }
                        ],
                        "depth": 0,
                        "id": 0,
                        "order": 0
                    }
                ],
                "depth": -1,
                "id": -1,
                "order": -1
            }
        ],
        "tidyTraceNodeCount": 2
    },
    "state_change": {
        "stateChanges": [
            {
                "address": "0xc7283b66eb1eb5fb86327f08e1b5816b0720212b",
                "erc": "ERC-20",
                "slots": [
                    {
                        "current": "0x0000000000000000000000000000000000000000000020f9e5d6691fb494c9a9",
                        "key": "0xdca77c2adfd7db987f63f9968b5a29d8cf2d5bee6727fb1e132443d4c5e6a94e",
                        "prev": "0x0000000000000000000000000000000000000000000020e9a2804e978b64c9a9"
                    },
                    {
                        "current": "0x0000000000000000000000000000000000000000000000000000000000000000",
                        "key": "0xf343f40c0050ab55706f252c5c5d6b344ec3fee669fb329f940fc4aa8317c2e9",
                        "prev": "0x00000000000000000000000000000000000000000000001043561a8829300000"
                    }
                ],
                "storageVariables": [
                    {
                        "name": "balances",
                        "type": "mapping(address => uint96)",
                        "value": {
                            "pairs": [
                                {
                                    "key": "0x28c6c06298d514db089934071355e5743bf21d60",
                                    "value": {
                                        "current": "155725528266446921320873",
                                        "prev": "155425528266446921320873",
                                        "typeTag": 1
                                    }
                                },
                                {
                                    "key": "0xb1ba5f91e4aa27cdbcbdaec6a8736ebe3c440be7",
                                    "value": {
                                        "current": "0",
                                        "prev": "300000000000000000000",
                                        "typeTag": 1
                                    }
                                }
                            ],
                            "typeTag": 4
                        }
                    }
                ]
            }
        ]
    }
}