{
    "balance_change": {
        "balanceChanges": [
            {
                "account": "0xfdf1946a9b40245224488f1a36f4a9ed4844a523",
                "assets": [
                    {
                        "address": "0xa37d94e80eab7a5bcb6d2e76b7666e341e4b58f6",
                        "amount": "4,954.81999999999934464",
                        "iconUrl": "",
                        "isERC1155": false,
                        "isERC721": false,
                        "sign": false,
                        "value": ""
                    }
                ]
            },
            {
                "account": "0x1908685724241292c2d71953ae9612ca65fad4d6",
                "assets": [
                    {
                        "address": "0xa37d94e80eab7a5bcb6d2e76b7666e341e4b58f6",
                        "amount": "4,954.81999999999934464",
                        "iconUrl": "",
                        "isERC1155": false,
                        "isERC721": false,
                        "sign": true,
                        "value": ""
                    }
                ]
            }
        ]
    },
    "profile": {
        "basic_info": {
            "baseFee": "",
            "blockNumber": 8507164,
            "callData": "0xa9059cbb0000000000000000000000001908685724241292c2d71953ae9612ca65fad4d600000000000000000000000000000000000000000000010c99f0ca3d10f00000",
            "debugEnable": true,
            "errorInfo": "",
            "eventCount": 1,
            "feeRecipient": "0x829bd824b016326a401d083b33d092293333a830",
            "formatValue": "0",
            "gasLimit": 80000,
            "gasPrice": "16.25",
            "gasUsed": 37261,
            "intTxnCount": 0,
            "internalRevert": false,
            "internalRevertMessage": "",
            "isContractCreation": false,
            "isFlashloan": false,
            "maxFee": "",
            "nonce": 300137,
            "overwritedBlockNumber": -1,
            "priorityFee": "",
            "receiver": "0xa37d94e80eab7a5bcb6d2e76b7666e341e4b58f6",
            "revertMessage": "",
            "sender": "0xfdf1946a9b40245224488f1a36f4a9ed4844a523",
            "simulationEnable": true,
            "sourceTxnHash": "0x677dda2896c4984435c948cb10897fe79a562974195b8652538656f874de6d00",
            "status": true,
            "timestamp": "2019-09-08T04:35:54Z",
            "transactionFee": "0.00060549125",
            "txnHash": "0x677dda2896c4984435c948cb10897fe79a562974195b8652538656f874de6d00",
            "txnIndex": 34,
            "type": 0,
            "value": "0"
        },
        "fund_flow": [
            {
                "amount": "4,954.81999999999934464",
                "from": "0xfdf1946a9b40245224488f1a36f4a9ed4844a523",
                "id": 1,
                "isERC1155": false,
                "isERC721": false,
                "isReverted": false,
                "order": 1,
                "to": "0x1908685724241292c2d71953ae9612ca65fad4d6",
                "token": "0xa37d94e80eab7a5bcb6d2e76b7666e341e4b58f6"
            }
        ],
        "token_infos": [
            {
                "address": "0xc02aaa39b223fe8d0a0e5c4f27ead9083c756cc2",
                "decimals": 18
            },
            {
                "address": "0xeeeeeeeeeeeeeeeeeeeeeeeeeeeeeeeeeeeeeeee",
                "decimals": 18
            },
            {
                "address": "0xa37d94e80eab7a5bcb6d2e76b7666e341e4b58f6",
                "decimals": 18
            }
        ]
    },
    "address_label": {
        "labels": [
            {
                "address": "0xeeeeeeeeeeeeeeeeeeeeeeeeeeeeeeeeeeeeeeee",
                "label": "Ether"
            },
            {
                "address": "0xa37d94e80eab7a5bcb6d2e76b7666e341e4b58f6",
                "label": "PFC"
            },
            {
                "address": "0x0000000000000000000000000000000000000001",
                "label": "Precompiled"
            },
            {
                "address": "0x0000000000000000000000000000000000000002",
                "label": "Precompiled"
            },
            {
                "address": "0x0000000000000000000000000000000000000003",
                "label": "Precompiled"
            },
            {
                "address": "0x0000000000000000000000000000000000000004",
                "label": "Precompiled"
            }
        ]
    },
    "trace": {
        "accountLabels": null,
        "dataMap": {
            "-1": {
                "invocation": {
                    "address": "0xfdf1946a9b40245224488f1a36f4a9ed4844a523",
                    "callData": "",
                    "decodedMethod": null,
                    "errorInfo": "",
                    "fromAddress": "",
                    "gasUsed": 0,
                    "id": -1,
                    "methodDecoded": false,
                    "operation": "",
                    "output": "",
                    "revert": false,
                    "revertMessage": "",
                    "selector": "",
                    "status": false,
                    "value": ""
                },
                "nodeType": 0
            },
            "0": {
                "invocation": {
                    "address": "0xa37d94e80eab7a5bcb6d2e76b7666e341e4b58f6",
                    "callData": "0x0000000000000000000000001908685724241292c2d71953ae9612ca65fad4d600000000000000000000000000000000000000000000010c99f0ca3d10f00000",
                    "decodedMethod": {
                        "callParams": [
                            {
                                "name": "dst",
                                "type": "address",
                                "value": "0x1908685724241292c2d71953ae9612ca65fad4d6"
                            },
                            {
                                "decimalAvailable": true,
                                "name": "wad",
                                "type": "uint256",
                                "value": "4,954,819,999,999,999,344,640"
                            }
                        ],
                        "constructorArguments": "",
                        "name": "transfer",
                        "returnParams": [
                            {
                                "name": "",
                                "type": "bool",
                                "value": true
                            }
                        ],
                        "signature": "transfer(address,uint256)"
                    },
                    "errorInfo": "",
                    "fromAddress": "0xfdf1946a9b40245224488f1a36f4a9ed4844a523",
                    "gasUsed": 37261,
                    "id": 0,
                    "methodDecoded": true,
                    "operation": "CALL",
                    "output": "0x0000000000000000000000000000000000000000000000000000000000000001",
                    "revert": false,
                    "revertMessage": "",
                    "selector": "0xa9059cbb",
                    "status": true,
                    "value": "0"
                },
                "nodeType": 0
            },
            "1": {
                "event": {
                    "contract": "0xa37d94e80eab7a5bcb6d2e76b7666e341e4b58f6",
                    "decodedLog": {
                        "name": "Transfer",
                        "params": [
                            {
                                "name": "from",
                                "type": "address",
                                "value": "0xfdf1946a9b40245224488f1a36f4a9ed4844a523"
                            },
                            {
                                "name": "to",
                                "type": "address",
                                "value": "0x1908685724241292c2d71953ae9612ca65fad4d6"
                            },
                            {
                                "decimalAvailable": true,
                                "name": "value",
                                "type": "uint256",
                                "value": "4,954,819,999,999,999,344,640"
                            }
                        ],
                        "signature": "Transfer(address,address,uint256)"
                    },
                    "id": 1,
                    "logData": "0x00000000000000000000000000000000000000000000010c99f0ca3d10f00000",
                    "logDecoded": true,
                    "operation": "EVENT",
                    "revert": false,
                    "status": true,
                    "topics": [
                        "0xddf252ad1be2c89b69c2b068fc378daa952ba7f163c4a11628f55a4df523b3ef",
                        "0x000000000000000000000000fdf1946a9b40245224488f1a36f4a9ed4844a523",
                        "0x0000000000000000000000001908685724241292c2d71953ae9612ca65fad4d6"
                    ]
                },
                "nodeType": 1
            }
        },
        "gasFlame": [
            {
                "children": [
                    {
                        "children": [
                            {
                                "children": [],
                                "depth": 0,
                                "name": "Initial Gas",
                                "value": 23320
                            },
                            {
                                "children": [],
                                "depth": 0,
                                "name": "Executed Gas",
                                "value": 13941
                            }
                        ],
                        "depth": -1,
                        "name": "Actual Gas Used",
                        "value": 37261
                    },
                    {
                        "children": [],
                        "depth": -1,
                        "name": "Refunded Gas",
                        "value": 0
                    }
                ],
                "depth": -2,
                "name": "Total Gas",
                "value": 37261
            }
        ],
        "isConfirmed": true,
        "mainTrace": [
            {
                "children": [
                    {
                        "children": [
                            {
                                "children": [],
                                "depth": 1,
                                "id": 1,
                                "order": 1
                            }
                        ],
                        "depth": 0,
                        "id": 0,
                        "order": 0
                    }
                ],
                "depth": -1,
                "id": -1,
                "order": -1
            }
        ],
        "mainTraceNodeCount": 2,
        "parentIdMap": {
            "0": -1,
            "1": 0
        },
        "tidyTrace": [
            {
                "children": [
                    {
                        "children": [
                            {
                                "children": [],
                                "depth": 1,
                                "id": 1,
                                "order": 1
                            }
                        ],
                        "depth": 0,
                        "id": 0,
                        "order": 0
                    }
                ],
                "depth": -1,
                "id": -1,
                "order": -1
            }
        ],
        "tidyTraceNodeCount": 2
    },
    "state_change": {
        "stateChanges": [
            {
                "address": "0xa37d94e80eab7a5bcb6d2e76b7666e341e4b58f6",
                "erc": "ERC-20",
                "slots": [
                    {
                        "current": "0x00000000000000000000000000000000000000000001ec2bbf1b69085040f100",
                        "key": "0x0a7448285f1da66068c4412e696a19270efe58758129b97d835508c10fc15f7c",
                        "prev": "0x00000000000000000000000000000000000000000001ed38590c33456130f100"
                    },
                    {
                        "current": "0x0000000000000000000000000000000000000000000001e97b274e8c7b580000",
                        "key": "0x0971d4280bac13a65e5ea78cd76e81f49b0f65a7f1a555952e58d60e2d8560ac",
                        "prev": "0x0000000000000000000000000000000000000000000000dce136844f6a680000"
                    }
                ],
                "storageVariables": [
                    {
                        "name": "_balances",
                        "type": "mapping(address => uint256)",
                        "value": {
                            "pairs": [
                                {
                                    "key": "0x1908685724241292c2d71953ae9612ca65fad4d6",
                                    "value": {
                                        "current": "9029331999999999344640",
                                        "prev": "4074512000000000000000",
                                        "typeTag": 1
                                    }
                                },
                                {
                                    "key": "0xfdf1946a9b40245224488f1a36f4a9ed4844a523",
                                    "value": {
                                        "current": "2324211290282804998369536",
                                        "prev": "2329166110282804997714176",
                                        "typeTag": 1
                                    }
                                }
                            ],
                            "typeTag": 4
                        }
                    }
                ]
            }
        ]
    }
}