{
    "balance_change": {
        "balanceChanges": [
            {
                "account": "0xcbe66a273f8d9b454a05801801fd7cd5d2eb6543",
                "assets": [
                    {
                        "address": "0x2b89bf8ba858cd2fcee1fada378d5cd6936968be",
                        "amount": "1",
                        "iconUrl": "",
                        "isERC1155": false,
                        "isERC721": false,
                        "sign": false,
                        "value": "1.76612176"
                    }
                ]
            },
            {
                "account": "0x0000000000000000000000000000000000000000",
                "assets": [
                    {
                        "address": "0x2b89bf8ba858cd2fcee1fada378d5cd6936968be",
                        "amount": "1",
                        "iconUrl": "",
                        "isERC1155": false,
                        "isERC721": false,
                        "sign": true,
                        "value": "1.76612176"
                    }
                ]
            }
        ]
    },
    "profile": {
        "basic_info": {
            "baseFee": "23.051876205",
            "blockNumber": 13069501,
            "callData": "0x20aeb817000000000000000000000000000000000000000000000000000000000000006000000000000000000000000000000000000000000000000000000000000f42400000000000000000000000002b89bf8ba858cd2fcee1fada378d5cd6936968be000000000000000000000000000000000000000000000000000000000000002d73656372657431656d76783836346834646e773736383475663064686b3770343965766875386b7565636a7a6500000000000000000000000000000000000000",
            "debugEnable": true,
            "errorInfo": "",
            "eventCount": 3,
            "feeRecipient": "0xea674fdde714fd979de3edf0f56aa9716b898ec8",
            "formatValue": "0",
            "gasLimit": 85053,
            "gasPrice": "24.366024906",
            "gasUsed": 65426,
            "intTxnCount": 1,
            "internalRevert": false,
            "internalRevertMessage": "",
            "isContractCreation": false,
            "isFlashloan": false,
            "maxFee": "24.366024906",
            "nonce": 74,
            "overwritedBlockNumber": -1,
            "priorityFee": "24.366024906",
            "receiver": "0xf4b00c937b4ec4bb5ac051c3c719036c668a31ec",
            "revertMessage": "",
            "sender": "0xcbe66a273f8d9b454a05801801fd7cd5d2eb6543",
            "simulationEnable": true,
            "sourceTxnHash": "0x67da7c6a02071537c32305200cff53c3f8bb6363f339c2bd5731996b00459ced",
            "status": true,
            "timestamp": "2021-08-21T15:40:49Z",
            "transactionFee": "0.001594171545499956",
            "txnHash": "0x67da7c6a02071537c32305200cff53c3f8bb6363f339c2bd5731996b00459ced",
            "txnIndex": 65,
            "type": 2,
            "value": "0"
        },
        "fund_flow": [
            {
                "amount": "1",
                "from": "0xcbe66a273f8d9b454a05801801fd7cd5d2eb6543",
                "id": 1,
                "isERC1155": false,
                "isERC721": false,
                "isReverted": false,
                "order": 1,
                "to": "0x0000000000000000000000000000000000000000",
                "token": "0x2b89bf8ba858cd2fcee1fada378d5cd6936968be"
            }
        ],
        "token_infos": [
            {
                "address": "0x2b89bf8ba858cd2fcee1fada378d5cd6936968be",
                "decimals": 6
            },
            {
                "address": "0xc02aaa39b223fe8d0a0e5c4f27ead9083c756cc2",
                "decimals": 18
            },
            {
                "address": "0xeeeeeeeeeeeeeeeeeeeeeeeeeeeeeeeeeeeeeeee",
                "decimals": 18
            }
        ]
    },
    "address_label": {
        "labels": [
            {
                "address": "0xf4b00c937b4ec4bb5ac051c3c719036c668a31ec",
                "label": "Secret Network: Bridge"
            },
            {
                "address": "0x2b89bf8ba858cd2fcee1fada378d5cd6936968be",
                "label": "Secret Network: WSCRT Token"
            },
            {
                "address": "0x0000000000000000000000000000000000000001",
                "label": "Precompiled"
            },
            {
                "address": "0x0000000000000000000000000000000000000002",
                "label": "Precompiled"
            },
            {
                "address": "0x0000000000000000000000000000000000000003",
                "label": "Precompiled"
            },
            {
                "address": "0x0000000000000000000000000000000000000004",
                "label": "Precompiled"
            },
            {
                "address": "0xeeeeeeeeeeeeeeeeeeeeeeeeeeeeeeeeeeeeeeee",
                "label": "Ether"
            }
        ]
    },
    "trace": {
        "accountLabels": null,
        "dataMap": {
            "-1": {
                "invocation": {
                    "address": "0xcbe66a273f8d9b454a05801801fd7cd5d2eb6543",
                    "callData": "",
                    "decodedMethod": null,
                    "errorInfo": "",
                    "fromAddress": "",
                    "gasUsed": 0,
                    "id": -1,
                    "methodDecoded": false,
                    "operation": "",
                    "output": "",
                    "revert": false,
                    "revertMessage": "",
                    "selector": "",
                    "status": false,
                    "value": ""
                },
                "nodeType": 0
            },
            "0": {
                "invocation": {
                    "address": "0xf4b00c937b4ec4bb5ac051c3c719036c668a31ec",
                    "callData": "0x000000000000000000000000000000000000000000000000000000000000006000000000000000000000000000000000000000000000000000000000000f42400000000000000000000000002b89bf8ba858cd2fcee1fada378d5cd6936968be000000000000000000000000000000000000000000000000000000000000002d73656372657431656d76783836346834646e773736383475663064686b3770343965766875386b7565636a7a6500000000000000000000000000000000000000",
                    "decodedMethod": null,
                    "errorInfo": "",
                    "fromAddress": "0xcbe66a273f8d9b454a05801801fd7cd5d2eb6543",
                    "gasUsed": 65426,
                    "id": 0,
                    "methodDecoded": false,
                    "operation": "CALL",
                    "output": "",
                    "revert": false,
                    "revertMessage": "",
                    "selector": "0x20aeb817",
                    "status": true,
                    "value": "0"
                },
                "nodeType": 0
            },
            "1": {
                "invocation": {
                    "address": "0x2b89bf8ba858cd2fcee1fada378d5cd6936968be",
                    "callData": "0x000000000000000000000000cbe66a273f8d9b454a05801801fd7cd5d2eb6543000000000000000000000000f4b00c937b4ec4bb5ac051c3c719036c668a31ec00000000000000000000000000000000000000000000000000000000000f4240",
                    "decodedMethod": {
                        "callParams": [
                            {
                                "name": "sender",
                                "type": "address",
                                "value": "0xcbe66a273f8d9b454a05801801fd7cd5d2eb6543"
                            },
                            {
                                "name": "recipient",
                                "type": "address",
                                "value": "0xf4b00c937b4ec4bb5ac051c3c719036c668a31ec"
                            },
                            {
                                "decimalAvailable": true,
                                "name": "amount",
                                "type": "uint256",
                                "value": "1,000,000"
                            }
                        ],
                        "constructorArguments": "",
                        "name": "transferFrom",
                        "returnParams": [
                            {
                                "name": "",
                                "type": "bool",
                                "value": true
                            }
                        ],
                        "signature": "transferFrom(address,address,uint256)"
                    },
                    "errorInfo": "",
                    "fromAddress": "0xf4b00c937b4ec4bb5ac051c3c719036c668a31ec",
                    "gasUsed": 27914,
                    "id": 1,
                    "methodDecoded": true,
                    "operation": "CALL",
                    "output": "0x0000000000000000000000000000000000000000000000000000000000000001",
                    "revert": false,
                    "revertMessage": "",
                    "selector": "0x23b872dd",
                    "status": true,
                    "value": "0"
                },
                "nodeType": 0
            },
            "2": {
                "event": {
                    "contract": "0x2b89bf8ba858cd2fcee1fada378d5cd6936968be",
                    "decodedLog": {
                        "name": "Transfer",
                        "params": [
                            {
                                "name": "from",
                                "type": "address",
                                "value": "0xcbe66a273f8d9b454a05801801fd7cd5d2eb6543"
                            },
                            {
                                "name": "to",
                                "type": "address",
                                "value": "0x0000000000000000000000000000000000000000"
                            },
                            {
                                "decimalAvailable": true,
                                "name": "value",
                                "type": "uint256",
                                "value": "1,000,000"
                            }
                        ],
                        "signature": "Transfer(address,address,uint256)"
                    },
                    "id": 2,
                    "logData": "0x00000000000000000000000000000000000000000000000000000000000f4240",
                    "logDecoded": true,
                    "operation": "EVENT",
                    "revert": false,
                    "status": true,
                    "topics": [
                        "0xddf252ad1be2c89b69c2b068fc378daa952ba7f163c4a11628f55a4df523b3ef",
                        "0x000000000000000000000000cbe66a273f8d9b454a05801801fd7cd5d2eb6543",
                        "0x0000000000000000000000000000000000000000000000000000000000000000"
                    ]
                },
                "nodeType": 1
            },
            "3": {
                "event": {
                    "contract": "0x2b89bf8ba858cd2fcee1fada378d5cd6936968be",
                    "decodedLog": {
                        "name": "Approval",
                        "params": [
                            {
                                "name": "owner",
                                "type": "address",
                                "value": "0xcbe66a273f8d9b454a05801801fd7cd5d2eb6543"
                            },
                            {
                                "name": "spender",
                                "type": "address",
                                "value": "0xf4b00c937b4ec4bb5ac051c3c719036c668a31ec"
                            },
                            {
                                "decimalAvailable": true,
                                "name": "value",
                                "type": "uint256",
                                "value": "115,792,089,237,316,195,423,570,985,008,687,907,853,269,984,665,640,564,039,457,584,007,913,127,639,935"
                            }
                        ],
                        "signature": "Approval(address,address,uint256)"
                    },
                    "id": 3,
                    "logData": "0xffffffffffffffffffffffffffffffffffffffffffffffffffffffffffe17b7f",
                    "logDecoded": true,
                    "operation": "EVENT",
                    "revert": false,
                    "status": true,
                    "topics": [
                        "0x8c5be1e5ebec7d5bd14f71427d1e84f3dd0314c0f7b2291e5b200ac8c7c3b925",
                        "0x000000000000000000000000cbe66a273f8d9b454a05801801fd7cd5d2eb6543",
                        "0x000000000000000000000000f4b00c937b4ec4bb5ac051c3c719036c668a31ec"
                    ]
                },
                "nodeType": 1
            },
            "4": {
                "event": {
                    "contract": "0xf4b00c937b4ec4bb5ac051c3c719036c668a31ec",
                    "decodedLog": null,
                    "id": 4,
                    "logData": "0x000000000000000000000000cbe66a273f8d9b454a05801801fd7cd5d2eb6543000000000000000000000000000000000000000000000000000000000000008000000000000000000000000000000000000000000000000000000000000f42400000000000000000000000002b89bf8ba858cd2fcee1fada378d5cd6936968be000000000000000000000000000000000000000000000000000000000000002d73656372657431656d76783836346834646e773736383475663064686b3770343965766875386b7565636a7a6500000000000000000000000000000000000000",
                    "logDecoded": false,
                    "operation": "EVENT",
                    "revert": false,
                    "status": true,
                    "topics": [
                        "0x7bad95c5817621d8789091ae63d99bf8f7bed9ea4963b10c3d3c6bb7273522b3"
                    ]
                },
                "nodeType": 1
            }
        },
        "gasFlame": [
            {
                "children": [
                    {
                        "children": [
                            {
                                "children": [],
                                "depth": 0,
                                "name": "Initial Gas",
                                "value": 22672
                            },
                            {
                                "children": [
                                    {
                                        "children": [],
                                        "depth": 1,
                                        "name": "transferFrom",
                                        "value": 27914
                                    }
                                ],
                                "depth": 0,
                                "name": "Executed Gas",
                                "value": 42754
                            }
                        ],
                        "depth": -1,
                        "name": "Actual Gas Used",
                        "value": 65426
                    },
                    {
                        "children": [],
                        "depth": -1,
                        "name": "Refunded Gas",
                        "value": 0
                    }
                ],
                "depth": -2,
                "name": "Total Gas",
                "value": 65426
            }
        ],
        "isConfirmed": true,
        "mainTrace": [
            {
                "children": [
                    {
                        "children": [
                            {
                                "children": [
                                    {
                                        "children": [],
                                        "depth": 2,
                                        "id": 2,
                                        "order": 2
                                    },
                                    {
                                        "children": [],
                                        "depth": 2,
                                        "id": 3,
                                        "order": 3
                                    }
                                ],
                                "depth": 1,
                                "id": 1,
                                "order": 1
                            },
                            {
                                "children": [],
                                "depth": 1,
                                "id": 4,
                                "order": 4
                            }
                        ],
                        "depth": 0,
                        "id": 0,
                        "order": 0
                    }
                ],
                "depth": -1,
                "id": -1,
                "order": -1
            }
        ],
        "mainTraceNodeCount": 5,
        "parentIdMap": {
            "0": -1,
            "1": 0,
            "2": 1,
            "3": 1,
            "4": 0
        },
        "tidyTrace": [
            {
                "children": [
                    {
                        "children": [
                            {
                                "children": [
                                    {
                                        "children": [],
                                        "depth": 2,
                                        "id": 2,
                                        "order": 2
                                    },
                                    {
                                        "children": [],
                                        "depth": 2,
                                        "id": 3,
                                        "order": 3
                                    }
                                ],
                                "depth": 1,
                                "id": 1,
                                "order": 1
                            },
                            {
                                "children": [],
                                "depth": 1,
                                "id": 4,
                                "order": 4
                            }
                        ],
                        "depth": 0,
                        "id": 0,
                        "order": 0
                    }
                ],
                "depth": -1,
                "id": -1,
                "order": -1
            }
        ],
        "tidyTraceNodeCount": 5
    },
    "state_change": {
        "stateChanges": [
            {
                "address": "0x2b89bf8ba858cd2fcee1fada378d5cd6936968be",
                "erc": "ERC-20",
                "slots": [
                    {
                        "current": "0x000000000000000000000000000000000000000000000000000000f5f837bcbe",
                        "key": "0x0000000000000000000000000000000000000000000000000000000000000003",
                        "prev": "0x000000000000000000000000000000000000000000000000000000f5f846fefe"
                    },
                    {
                        "current": "0xffffffffffffffffffffffffffffffffffffffffffffffffffffffffffe17b7f",
                        "key": "0x6f55163f14f3eb895e3694f729775e6b3292ca4136bf0ac3942ff299414f8859",
                        "prev": "0xfffffffffffffffffffffffffffffffffffffffffffffffffffffffffff0bdbf"
                    },
                    {
                        "current": "0x00000000000000000000000000000000000000000000000000000001ab5e0fd2",
                        "key": "0x40faec5bfc5caaa0d06eab6ba71764948b1c4ff860f15858c837600a0a5459aa",
                        "prev": "0x00000000000000000000000000000000000000000000000000000001ab6d5212"
                    }
                ],
                "storageVariables": [
                    {
                        "name": "_totalSupply",
                        "type": "uint256",
                        "value": {
                            "current": "1056431389886",
                            "prev": "1056432389886",
                            "typeTag": 1
                        }
                    },
                    {
                        "name": "_allowances",
                        "type": "mapping(address => mapping(address => uint256))",
                        "value": {
                            "pairs": [
                                {
                                    "key": "0xcbe66a273f8d9b454a05801801fd7cd5d2eb6543",
                                    "value": {
                                        "pairs": [
                                            {
                                                "key": "0xf4b00c937b4ec4bb5ac051c3c719036c668a31ec",
                                                "value": {
                                                    "current": "115792089237316195423570985008687907853269984665640564039457584007913127639935",
                                                    "prev": "115792089237316195423570985008687907853269984665640564039457584007913128639935",
                                                    "typeTag": 1
                                                }
                                            }
                                        ],
                                        "typeTag": 4
                                    }
                                }
                            ],
                            "typeTag": 4
                        }
                    },
                    {
                        "name": "_balances",
                        "type": "mapping(address => uint256)",
                        "value": {
                            "pairs": [
                                {
                                    "key": "0xcbe66a273f8d9b454a05801801fd7cd5d2eb6543",
                                    "value": {
                                        "current": "7170035666",
                                        "prev": "7171035666",
                                        "typeTag": 1
                                    }
                                }
                            ],
                            "typeTag": 4
                        }
                    }
                ]
            }
        ]
    }
}