{
    "balance_change": {
        "balanceChanges": [
            {
                "account": "0x6ceaa647f9e67faea9edb996cf1e971bfc35da05",
                "assets": [
                    {
                        "address": "0xd7b7d3c0bda57723fb54ab95fd8f9ea033af37f2",
                        "amount": "3.0440886103543859",
                        "iconUrl": "",
                        "isERC1155": false,
                        "isERC721": false,
                        "sign": false,
                        "value": "1410.936583"
                    }
                ]
            },
            {
                "account": "0x83229ca67b5a3546bbf0336c76bb9202bb639b11",
                "assets": [
                    {
                        "address": "0xd7b7d3c0bda57723fb54ab95fd8f9ea033af37f2",
                        "amount": "3.013647724250842041",
                        "iconUrl": "",
                        "isERC1155": false,
                        "isERC721": false,
                        "sign": true,
                        "value": "1382.02945"
                    }
                ]
            },
            {
                "account": "0x289026a9018d5aa8cb05f228dd9460c1229aaf81",
                "assets": [
                    {
                        "address": "0xd7b7d3c0bda57723fb54ab95fd8f9ea033af37f2",
                        "amount": "0.030440886103543859",
                        "iconUrl": "",
                        "isERC1155": false,
                        "isERC721": false,
                        "sign": true,
                        "value": "13.88547367"
                    }
                ]
            }
        ]
    },
    "profile": {
        "basic_info": {
            "baseFee": "",
            "blockNumber": 10874697,
            "callData": "0xa694fc3a0000000000000000000000000000000000000000000000002a3ec6767cfc543c",
            "debugEnable": true,
            "errorInfo": "",
            "eventCount": 3,
            "feeRecipient": "0x2a5994b501e6a560e727b6c2de5d856396aadd38",
            "formatValue": "0",
            "gasLimit": 200000,
            "gasPrice": "140",
            "gasUsed": 150297,
            "intTxnCount": 4,
            "internalRevert": false,
            "internalRevertMessage": "",
            "isContractCreation": false,
            "isFlashloan": false,
            "maxFee": "",
            "nonce": 57,
            "overwritedBlockNumber": -1,
            "priorityFee": "",
            "receiver": "0x83229ca67b5a3546bbf0336c76bb9202bb639b11",
            "revertMessage": "",
            "sender": "0x6ceaa647f9e67faea9edb996cf1e971bfc35da05",
            "simulationEnable": true,
            "sourceTxnHash": "0x6778db06a057794b6a1531ca45f857bf1d99dfa47722f1881d809ff7569dc310",
            "status": true,
            "timestamp": "2020-09-16T18:20:49Z",
            "transactionFee": "0.02104158",
            "txnHash": "0x6778db06a057794b6a1531ca45f857bf1d99dfa47722f1881d809ff7569dc310",
            "txnIndex": 58,
            "type": 0,
            "value": "0"
        },
        "fund_flow": [
            {
                "amount": "3.013647724250842041",
                "from": "0x6ceaa647f9e67faea9edb996cf1e971bfc35da05",
                "id": 1,
                "isERC1155": false,
                "isERC721": false,
                "isReverted": false,
                "order": 1,
                "to": "0x83229ca67b5a3546bbf0336c76bb9202bb639b11",
                "token": "0xd7b7d3c0bda57723fb54ab95fd8f9ea033af37f2"
            },
            {
                "amount": "0.030440886103543859",
                "from": "0x6ceaa647f9e67faea9edb996cf1e971bfc35da05",
                "id": 2,
                "isERC1155": false,
                "isERC721": false,
                "isReverted": false,
                "order": 2,
                "to": "0x289026a9018d5aa8cb05f228dd9460c1229aaf81",
                "token": "0xd7b7d3c0bda57723fb54ab95fd8f9ea033af37f2"
            }
        ],
        "token_infos": [
            {
                "address": "0xc02aaa39b223fe8d0a0e5c4f27ead9083c756cc2",
                "decimals": 18
            },
            {
                "address": "0xd7b7d3c0bda57723fb54ab95fd8f9ea033af37f2",
                "decimals": 18
            },
            {
                "address": "0xeeeeeeeeeeeeeeeeeeeeeeeeeeeeeeeeeeeeeeee",
                "decimals": 18
            }
        ]
    },
    "address_label": {
        "labels": [
            {
                "address": "0x83229ca67b5a3546bbf0336c76bb9202bb639b11",
                "label": "KASSIAHOTELPYLONPool"
            },
            {
                "address": "0x0000000000000000000000000000000000000001",
                "label": "Precompiled"
            },
            {
                "address": "0x0000000000000000000000000000000000000002",
                "label": "Precompiled"
            },
            {
                "address": "0x0000000000000000000000000000000000000003",
                "label": "Precompiled"
            },
            {
                "address": "0x0000000000000000000000000000000000000004",
                "label": "Precompiled"
            },
            {
                "address": "0xeeeeeeeeeeeeeeeeeeeeeeeeeeeeeeeeeeeeeeee",
                "label": "Ether"
            },
            {
                "address": "0xcaffd74f7b875ed032215f207eeb1bbce7fdea44",
                "label": "PYLON (PYLON)"
            },
            {
                "address": "0xd7b7d3c0bda57723fb54ab95fd8f9ea033af37f2",
                "label": "Pylon.Finance: PYLON Token"
            }
        ]
    },
    "trace": {
        "accountLabels": null,
        "dataMap": {
            "-1": {
                "invocation": {
                    "address": "0x6ceaa647f9e67faea9edb996cf1e971bfc35da05",
                    "callData": "",
                    "decodedMethod": null,
                    "errorInfo": "",
                    "fromAddress": "",
                    "gasUsed": 0,
                    "id": -1,
                    "methodDecoded": false,
                    "operation": "",
                    "output": "",
                    "revert": false,
                    "revertMessage": "",
                    "selector": "",
                    "status": false,
                    "value": ""
                },
                "nodeType": 0
            },
            "0": {
                "invocation": {
                    "address": "0x83229ca67b5a3546bbf0336c76bb9202bb639b11",
                    "callData": "0x0000000000000000000000000000000000000000000000002a3ec6767cfc543c",
                    "decodedMethod": {
                        "callParams": [
                            {
                                "name": "amount",
                                "type": "uint256",
                                "value": "3,044,088,610,354,385,980"
                            }
                        ],
                        "constructorArguments": "",
                        "name": "stake",
                        "returnParams": [],
                        "signature": "stake(uint256)"
                    },
                    "errorInfo": "",
                    "fromAddress": "0x6ceaa647f9e67faea9edb996cf1e971bfc35da05",
                    "gasUsed": 150297,
                    "id": 0,
                    "methodDecoded": true,
                    "operation": "CALL",
                    "output": "",
                    "revert": false,
                    "revertMessage": "",
                    "selector": "0xa694fc3a",
                    "status": true,
                    "value": "0"
                },
                "nodeType": 0
            },
            "1": {
                "invocation": {
                    "address": "0xd7b7d3c0bda57723fb54ab95fd8f9ea033af37f2",
                    "callData": "0x0000000000000000000000006ceaa647f9e67faea9edb996cf1e971bfc35da0500000000000000000000000083229ca67b5a3546bbf0336c76bb9202bb639b1100000000000000000000000000000000000000000000000029d2a0a36222c3b9",
                    "decodedMethod": {
                        "callParams": [
                            {
                                "name": "src",
                                "type": "address",
                                "value": "0x6ceaa647f9e67faea9edb996cf1e971bfc35da05"
                            },
                            {
                                "name": "dst",
                                "type": "address",
                                "value": "0x83229ca67b5a3546bbf0336c76bb9202bb639b11"
                            },
                            {
                                "decimalAvailable": true,
                                "name": "amount",
                                "type": "uint256",
                                "value": "3,013,647,724,250,842,041"
                            }
                        ],
                        "constructorArguments": "",
                        "name": "transferFrom",
                        "returnParams": [
                            {
                                "name": "",
                                "type": "bool",
                                "value": true
                            }
                        ],
                        "signature": "transferFrom(address,address,uint256)"
                    },
                    "errorInfo": "",
                    "fromAddress": "0x83229ca67b5a3546bbf0336c76bb9202bb639b11",
                    "gasUsed": 26548,
                    "id": 1,
                    "methodDecoded": true,
                    "operation": "CALL",
                    "output": "0x0000000000000000000000000000000000000000000000000000000000000001",
                    "revert": false,
                    "revertMessage": "",
                    "selector": "0x23b872dd",
                    "status": true,
                    "value": "0"
                },
                "nodeType": 0
            },
            "2": {
                "invocation": {
                    "address": "0xcaffd74f7b875ed032215f207eeb1bbce7fdea44",
                    "callData": "0x0000000000000000000000006ceaa647f9e67faea9edb996cf1e971bfc35da0500000000000000000000000083229ca67b5a3546bbf0336c76bb9202bb639b1100000000000000000000000000000000000000000000000029d2a0a36222c3b9",
                    "decodedMethod": {
                        "callParams": [
                            {
                                "name": "from",
                                "type": "address",
                                "value": "0x6ceaa647f9e67faea9edb996cf1e971bfc35da05"
                            },
                            {
                                "name": "to",
                                "type": "address",
                                "value": "0x83229ca67b5a3546bbf0336c76bb9202bb639b11"
                            },
                            {
                                "decimalAvailable": true,
                                "name": "value",
                                "type": "uint256",
                                "value": "3,013,647,724,250,842,041"
                            }
                        ],
                        "constructorArguments": "",
                        "name": "transferFrom",
                        "returnParams": [
                            {
                                "name": "",
                                "type": "bool",
                                "value": true
                            }
                        ],
                        "signature": "transferFrom(address,address,uint256)"
                    },
                    "errorInfo": "",
                    "fromAddress": "0xd7b7d3c0bda57723fb54ab95fd8f9ea033af37f2",
                    "gasUsed": 24299,
                    "id": 2,
                    "methodDecoded": true,
                    "operation": "DELEGATECALL",
                    "output": "0x0000000000000000000000000000000000000000000000000000000000000001",
                    "revert": false,
                    "revertMessage": "",
                    "selector": "0x23b872dd",
                    "status": true,
                    "value": "0"
                },
                "nodeType": 0
            },
            "3": {
                "event": {
                    "contract": "0xd7b7d3c0bda57723fb54ab95fd8f9ea033af37f2",
                    "decodedLog": {
                        "name": "Transfer",
                        "params": [
                            {
                                "name": "from",
                                "type": "address",
                                "value": "0x6ceaa647f9e67faea9edb996cf1e971bfc35da05"
                            },
                            {
                                "name": "to",
                                "type": "address",
                                "value": "0x83229ca67b5a3546bbf0336c76bb9202bb639b11"
                            },
                            {
                                "decimalAvailable": true,
                                "name": "amount",
                                "type": "uint256",
                                "value": "3,013,647,724,250,842,041"
                            }
                        ],
                        "signature": "Transfer(address,address,uint256)"
                    },
                    "id": 3,
                    "logData": "0x00000000000000000000000000000000000000000000000029d2a0a36222c3b9",
                    "logDecoded": true,
                    "operation": "EVENT",
                    "revert": false,
                    "status": true,
                    "topics": [
                        "0xddf252ad1be2c89b69c2b068fc378daa952ba7f163c4a11628f55a4df523b3ef",
                        "0x0000000000000000000000006ceaa647f9e67faea9edb996cf1e971bfc35da05",
                        "0x00000000000000000000000083229ca67b5a3546bbf0336c76bb9202bb639b11"
                    ]
                },
                "nodeType": 1
            },
            "4": {
                "invocation": {
                    "address": "0xd7b7d3c0bda57723fb54ab95fd8f9ea033af37f2",
                    "callData": "0x0000000000000000000000006ceaa647f9e67faea9edb996cf1e971bfc35da05000000000000000000000000289026a9018d5aa8cb05f228dd9460c1229aaf81000000000000000000000000000000000000000000000000006c25d31ad99033",
                    "decodedMethod": {
                        "callParams": [
                            {
                                "name": "src",
                                "type": "address",
                                "value": "0x6ceaa647f9e67faea9edb996cf1e971bfc35da05"
                            },
                            {
                                "name": "dst",
                                "type": "address",
                                "value": "0x289026a9018d5aa8cb05f228dd9460c1229aaf81"
                            },
                            {
                                "decimalAvailable": true,
                                "name": "amount",
                                "type": "uint256",
                                "value": "30,440,886,103,543,859"
                            }
                        ],
                        "constructorArguments": "",
                        "name": "transferFrom",
                        "returnParams": [
                            {
                                "name": "",
                                "type": "bool",
                                "value": true
                            }
                        ],
                        "signature": "transferFrom(address,address,uint256)"
                    },
                    "errorInfo": "",
                    "fromAddress": "0x83229ca67b5a3546bbf0336c76bb9202bb639b11",
                    "gasUsed": 18148,
                    "id": 4,
                    "methodDecoded": true,
                    "operation": "CALL",
                    "output": "0x0000000000000000000000000000000000000000000000000000000000000001",
                    "revert": false,
                    "revertMessage": "",
                    "selector": "0x23b872dd",
                    "status": true,
                    "value": "0"
                },
                "nodeType": 0
            },
            "5": {
                "invocation": {
                    "address": "0xcaffd74f7b875ed032215f207eeb1bbce7fdea44",
                    "callData": "0x0000000000000000000000006ceaa647f9e67faea9edb996cf1e971bfc35da05000000000000000000000000289026a9018d5aa8cb05f228dd9460c1229aaf81000000000000000000000000000000000000000000000000006c25d31ad99033",
                    "decodedMethod": {
                        "callParams": [
                            {
                                "name": "from",
                                "type": "address",
                                "value": "0x6ceaa647f9e67faea9edb996cf1e971bfc35da05"
                            },
                            {
                                "name": "to",
                                "type": "address",
                                "value": "0x289026a9018d5aa8cb05f228dd9460c1229aaf81"
                            },
                            {
                                "decimalAvailable": true,
                                "name": "value",
                                "type": "uint256",
                                "value": "30,440,886,103,543,859"
                            }
                        ],
                        "constructorArguments": "",
                        "name": "transferFrom",
                        "returnParams": [
                            {
                                "name": "",
                                "type": "bool",
                                "value": true
                            }
                        ],
                        "signature": "transferFrom(address,address,uint256)"
                    },
                    "errorInfo": "",
                    "fromAddress": "0xd7b7d3c0bda57723fb54ab95fd8f9ea033af37f2",
                    "gasUsed": 15899,
                    "id": 5,
                    "methodDecoded": true,
                    "operation": "DELEGATECALL",
                    "output": "0x0000000000000000000000000000000000000000000000000000000000000001",
                    "revert": false,
                    "revertMessage": "",
                    "selector": "0x23b872dd",
                    "status": true,
                    "value": "0"
                },
                "nodeType": 0
            },
            "6": {
                "event": {
                    "contract": "0xd7b7d3c0bda57723fb54ab95fd8f9ea033af37f2",
                    "decodedLog": {
                        "name": "Transfer",
                        "params": [
                            {
                                "name": "from",
                                "type": "address",
                                "value": "0x6ceaa647f9e67faea9edb996cf1e971bfc35da05"
                            },
                            {
                                "name": "to",
                                "type": "address",
                                "value": "0x289026a9018d5aa8cb05f228dd9460c1229aaf81"
                            },
                            {
                                "decimalAvailable": true,
                                "name": "amount",
                                "type": "uint256",
                                "value": "30,440,886,103,543,859"
                            }
                        ],
                        "signature": "Transfer(address,address,uint256)"
                    },
                    "id": 6,
                    "logData": "0x000000000000000000000000000000000000000000000000006c25d31ad99033",
                    "logDecoded": true,
                    "operation": "EVENT",
                    "revert": false,
                    "status": true,
                    "topics": [
                        "0xddf252ad1be2c89b69c2b068fc378daa952ba7f163c4a11628f55a4df523b3ef",
                        "0x0000000000000000000000006ceaa647f9e67faea9edb996cf1e971bfc35da05",
                        "0x000000000000000000000000289026a9018d5aa8cb05f228dd9460c1229aaf81"
                    ]
                },
                "nodeType": 1
            },
            "7": {
                "event": {
                    "contract": "0x83229ca67b5a3546bbf0336c76bb9202bb639b11",
                    "decodedLog": {
                        "name": "Staked",
                        "params": [
                            {
                                "name": "user",
                                "type": "address",
                                "value": "0x6ceaa647f9e67faea9edb996cf1e971bfc35da05"
                            },
                            {
                                "name": "amount",
                                "type": "uint256",
                                "value": "3,044,088,610,354,385,980"
                            }
                        ],
                        "signature": "Staked(address,uint256)"
                    },
                    "id": 7,
                    "logData": "0x0000000000000000000000000000000000000000000000002a3ec6767cfc543c",
                    "logDecoded": true,
                    "operation": "EVENT",
                    "revert": false,
                    "status": true,
                    "topics": [
                        "0x9e71bc8eea02a63969f509818f2dafb9254532904319f9dbda79b67bd34a5f3d",
                        "0x0000000000000000000000006ceaa647f9e67faea9edb996cf1e971bfc35da05"
                    ]
                },
                "nodeType": 1
            }
        },
        "gasFlame": [
            {
                "children": [
                    {
                        "children": [
                            {
                                "children": [],
                                "depth": 0,
                                "name": "Initial Gas",
                                "value": 21288
                            },
                            {
                                "children": [
                                    {
                                        "children": [
                                            {
                                                "children": [],
                                                "depth": 2,
                                                "name": "transferFrom",
                                                "value": 24299
                                            }
                                        ],
                                        "depth": 1,
                                        "name": "transferFrom",
                                        "value": 26548
                                    },
                                    {
                                        "children": [
                                            {
                                                "children": [],
                                                "depth": 2,
                                                "name": "transferFrom",
                                                "value": 15899
                                            }
                                        ],
                                        "depth": 1,
                                        "name": "transferFrom",
                                        "value": 18148
                                    }
                                ],
                                "depth": 0,
                                "name": "Executed Gas",
                                "value": 129009
                            }
                        ],
                        "depth": -1,
                        "name": "Actual Gas Used",
                        "value": 150297
                    },
                    {
                        "children": [],
                        "depth": -1,
                        "name": "Refunded Gas",
                        "value": 0
                    }
                ],
                "depth": -2,
                "name": "Total Gas",
                "value": 150297
            }
        ],
        "isConfirmed": true,
        "mainTrace": [
            {
                "children": [
                    {
                        "children": [
                            {
                                "children": [
                                    {
                                        "children": [
                                            {
                                                "children": [],
                                                "depth": 3,
                                                "id": 3,
                                                "order": 3
                                            }
                                        ],
                                        "depth": 2,
                                        "id": 2,
                                        "order": 2
                                    }
                                ],
                                "depth": 1,
                                "id": 1,
                                "order": 1
                            },
                            {
                                "children": [
                                    {
                                        "children": [
                                            {
                                                "children": [],
                                                "depth": 3,
                                                "id": 6,
                                                "order": 6
                                            }
                                        ],
                                        "depth": 2,
                                        "id": 5,
                                        "order": 5
                                    }
                                ],
                                "depth": 1,
                                "id": 4,
                                "order": 4
                            },
                            {
                                "children": [],
                                "depth": 1,
                                "id": 7,
                                "order": 7
                            }
                        ],
                        "depth": 0,
                        "id": 0,
                        "order": 0
                    }
                ],
                "depth": -1,
                "id": -1,
                "order": -1
            }
        ],
        "mainTraceNodeCount": 8,
        "parentIdMap": {
            "0": -1,
            "1": 0,
            "2": 1,
            "3": 2,
            "4": 0,
            "5": 4,
            "6": 5,
            "7": 0
        },
        "tidyTrace": [
            {
                "children": [
                    {
                        "children": [
                            {
                                "children": [
                                    {
                                        "children": [
                                            {
                                                "children": [],
                                                "depth": 3,
                                                "id": 3,
                                                "order": 3
                                            }
                                        ],
                                        "depth": 2,
                                        "id": 2,
                                        "order": 2
                                    }
                                ],
                                "depth": 1,
                                "id": 1,
                                "order": 1
                            },
                            {
                                "children": [
                                    {
                                        "children": [
                                            {
                                                "children": [],
                                                "depth": 3,
                                                "id": 6,
                                                "order": 6
                                            }
                                        ],
                                        "depth": 2,
                                        "id": 5,
                                        "order": 5
                                    }
                                ],
                                "depth": 1,
                                "id": 4,
                                "order": 4
                            },
                            {
                                "children": [],
                                "depth": 1,
                                "id": 7,
                                "order": 7
                            }
                        ],
                        "depth": 0,
                        "id": 0,
                        "order": 0
                    }
                ],
                "depth": -1,
                "id": -1,
                "order": -1
            }
        ],
        "tidyTraceNodeCount": 8
    },
    "state_change": {
        "stateChanges": [
            {
                "address": "0x83229ca67b5a3546bbf0336c76bb9202bb639b11",
                "erc": "",
                "slots": [
                    {
                        "current": "0x000000000000000000000000000000000000000000000000002727cfd2b35063",
                        "key": "0xf7bd7a3353284d0bb14a5289f8c0e565995f9d1ec5484f5d0e3971fb96314fd0",
                        "prev": "0x0000000000000000000000000000000000000000000000000000000000000000"
                    },
                    {
                        "current": "0x00000000000000000000000000000000000000000000006b7989d118f423593c",
                        "key": "0x0000000000000000000000000000000000000000000000000000000000000001",
                        "prev": "0x00000000000000000000000000000000000000000000006b4fb7307592009583"
                    },
                    {
                        "current": "0x00000000000000000000000000000000000000000000000029d2a0a36222c3b9",
                        "key": "0xc47e0b35cf0c3a04e374cf58ff71f16dcf328fa02b4d1c3167bbe6f471686e5b",
                        "prev": "0x0000000000000000000000000000000000000000000000000000000000000000"
                    },
                    {
                        "current": "0x000000000000000000000000000000000000000000000000002727cfd2b35063",
                        "key": "0x000000000000000000000000000000000000000000000000000000000000000a",
                        "prev": "0x0000000000000000000000000000000000000000000000000026ed5147ff62bf"
                    },
                    {
                        "current": "0x000000000000000000000000000000000000000000000000000000005f625781",
                        "key": "0x0000000000000000000000000000000000000000000000000000000000000009",
                        "prev": "0x000000000000000000000000000000000000000000000000000000005f625776"
                    }
                ],
                "storageVariables": [
                    {
                        "name": "rewardPerTokenStored",
                        "type": "uint256",
                        "value": {
                            "current": "11021297638396003",
                            "prev": "10956982471058111",
                            "typeTag": 1
                        }
                    },
                    {
                        "name": "lastUpdateTime",
                        "type": "uint256",
                        "value": {
                            "current": "1600280449",
                            "prev": "1600280438",
                            "typeTag": 1
                        }
                    },
                    {
                        "name": "userRewardPerTokenPaid",
                        "type": "mapping(address => uint256)",
                        "value": {
                            "pairs": [
                                {
                                    "key": "0x6ceaa647f9e67faea9edb996cf1e971bfc35da05",
                                    "value": {
                                        "current": "11021297638396003",
                                        "prev": "0",
                                        "typeTag": 1
                                    }
                                }
                            ],
                            "typeTag": 4
                        }
                    },
                    {
                        "name": "_totalSupply",
                        "type": "uint256",
                        "value": {
                            "current": "1982559376742426040636",
                            "prev": "1979545729018175198595",
                            "typeTag": 1
                        }
                    },
                    {
                        "name": "_balances",
                        "type": "mapping(address => uint256)",
                        "value": {
                            "pairs": [
                                {
                                    "key": "0x6ceaa647f9e67faea9edb996cf1e971bfc35da05",
                                    "value": {
                                        "current": "3013647724250842041",
                                        "prev": "0",
                                        "typeTag": 1
                                    }
                                }
                            ],
                            "typeTag": 4
                        }
                    }
                ]
            },
            {
                "address": "0xd7b7d3c0bda57723fb54ab95fd8f9ea033af37f2",
                "erc": "ERC-20",
                "slots": [
                    {
                        "current": "0xffffffffffffffffffffffffffffffffffffffffffffffffd5c139898303ac13",
                        "key": "0x262e7f22e1dfe9396a63acf3c2a5d2233a0e9fea0f69df154c260ce7c307d811",
                        "prev": "0xffffffffffffffffffffffffffffffffffffffffffffffffffffffffffffffff"
                    },
                    {
                        "current": "0x0000000000000000000000000000000000000000000000000000000004c4b400",
                        "key": "0xe9f0f2cf9547d11a3d4d6aef1209bd83b2b61544653e32aebf114d63d51bb796",
                        "prev": "0x00000000000000000000000000000000000000000002849c5fcd7ca13c508700"
                    },
                    {
                        "current": "0x00000000000000000000000000000000000000000667ef472ad30340605bc700",
                        "key": "0xb871ecb38eb1a8048687cad75f3048c17402035d7b321017b6a26d58ee323319",
                        "prev": "0x00000000000000000000000000000000000000000665711cff2dfb11695e26c0"
                    },
                    {
                        "current": "0x000000000000000000000000000000000000000000150cabfca4464bbd358280",
                        "key": "0x6c61e8e5fe61c1a7b24ab1595c4247d24e4d319d268ba6406beb728e92705c17",
                        "prev": "0x000000000000000000000000000000000000000000150639c87bd1d97ca74fc0"
                    }
                ],
                "storageVariables": [
                    {
                        "name": "_allowedFragments",
                        "type": "mapping(address => mapping(address => uint256))",
                        "value": {
                            "pairs": [
                                {
                                    "key": "0x6ceaa647f9e67faea9edb996cf1e971bfc35da05",
                                    "value": {
                                        "pairs": [
                                            {
                                                "key": "0x83229ca67b5a3546bbf0336c76bb9202bb639b11",
                                                "value": {
                                                    "current": "115792089237316195423570985008687907853269984665640564039454539919302775254035",
                                                    "prev": "115792089237316195423570985008687907853269984665640564039457584007913129639935",
                                                    "typeTag": 1
                                                }
                                            }
                                        ],
                                        "typeTag": 4
                                    }
                                }
                            ],
                            "typeTag": 4
                        }
                    },
                    {
                        "name": "_pylonBalances",
                        "type": "mapping(address => uint256)",
                        "value": {
                            "pairs": [
                                {
                                    "key": "0x289026a9018d5aa8cb05f228dd9460c1229aaf81",
                                    "value": {
                                        "current": "25447283207691137594000000",
                                        "prev": "25416842321587593735000000",
                                        "typeTag": 1
                                    }
                                },
                                {
                                    "key": "0x6ceaa647f9e67faea9edb996cf1e971bfc35da05",
                                    "value": {
                                        "current": "80000000",
                                        "prev": "3044088610354385980000000",
                                        "typeTag": 1
                                    }
                                },
                                {
                                    "key": "0x83229ca67b5a3546bbf0336c76bb9202bb639b11",
                                    "value": {
                                        "current": "1982559376742426040636000000",
                                        "prev": "1979545729018175198595000000",
                                        "typeTag": 1
                                    }
                                }
                            ],
                            "typeTag": 4
                        }
                    }
                ]
            }
        ]
    }
}