{
    "balance_change": {
        "balanceChanges": [
            {
                "account": "0x0a6c17dae9d5e950e61f0f9ed697d5ca8c4de005",
                "assets": [
                    {
                        "address": "0xeeeeeeeeeeeeeeeeeeeeeeeeeeeeeeeeeeeeeeee",
                        "amount": "0.021",
                        "iconUrl": "https://assets.blocksec.com/image/1663669189317-3.png",
                        "isERC1155": false,
                        "isERC721": false,
                        "sign": false,
                        "value": "41.778660000000000765"
                    }
                ]
            },
            {
                "account": "0xf08abbc809dc7348adf3d58488bdb1ebd005b2fd",
                "assets": [
                    {
                        "address": "0xeeeeeeeeeeeeeeeeeeeeeeeeeeeeeeeeeeeeeeee",
                        "amount": "0.021",
                        "iconUrl": "https://assets.blocksec.com/image/1663669189317-3.png",
                        "isERC1155": false,
                        "isERC721": false,
                        "sign": true,
                        "value": "41.778660000000000765"
                    }
                ]
            }
        ]
    },
    "profile": {
        "basic_info": {
            "baseFee": "10.338903306",
            "blockNumber": 14798923,
            "callData": "0xbeb9addf000000000000000000000000f08abbc809dc7348adf3d58488bdb1ebd005b2fd00000000000000000000000000000000000000000000000000000000000000005866e899599145a75fa6eb66f028f30a37ec6ef526b571e9c9d2bd4c4584eea76c910b8a6361d656698a4963066e82080d84d3062178ed0b74c6feba01c39266",
            "debugEnable": true,
            "errorInfo": "",
            "eventCount": 1,
            "feeRecipient": "0x1ad91ee08f21be3de0ba2ba6918e714da6b45836",
            "formatValue": "0.021",
            "gasLimit": 64247,
            "gasPrice": "11.838903306",
            "gasUsed": 62002,
            "intTxnCount": 1,
            "internalRevert": false,
            "internalRevertMessage": "",
            "isContractCreation": false,
            "isFlashloan": false,
            "maxFee": "14.523724929",
            "nonce": 9,
            "overwritedBlockNumber": -1,
            "priorityFee": "1.5",
            "receiver": "0xfb2dc580eed955b528407b4d36ffafe3da685401",
            "revertMessage": "",
            "sender": "0x0a6c17dae9d5e950e61f0f9ed697d5ca8c4de005",
            "simulationEnable": true,
            "sourceTxnHash": "0x673fe3b43b8ca446e309a791660cba3cd4cdfa7700ed1efa117901d021ae28c0",
            "status": true,
            "timestamp": "2022-05-18T12:45:26Z",
            "transactionFee": "0.000734035682778612",
            "txnHash": "0x673fe3b43b8ca446e309a791660cba3cd4cdfa7700ed1efa117901d021ae28c0",
            "txnIndex": 279,
            "type": 2,
            "value": "21000000000000000"
        },
        "fund_flow": [
            {
                "amount": "0.021",
                "from": "0x0a6c17dae9d5e950e61f0f9ed697d5ca8c4de005",
                "id": 1,
                "isERC1155": false,
                "isERC721": false,
                "isReverted": false,
                "order": 1,
                "to": "0xfb2dc580eed955b528407b4d36ffafe3da685401",
                "token": "0xeeeeeeeeeeeeeeeeeeeeeeeeeeeeeeeeeeeeeeee"
            },
            {
                "amount": "0.021",
                "from": "0xfb2dc580eed955b528407b4d36ffafe3da685401",
                "id": 2,
                "isERC1155": false,
                "isERC721": false,
                "isReverted": false,
                "order": 2,
                "to": "0xf08abbc809dc7348adf3d58488bdb1ebd005b2fd",
                "token": "0xeeeeeeeeeeeeeeeeeeeeeeeeeeeeeeeeeeeeeeee"
            }
        ],
        "token_infos": [
            {
                "address": "0xc02aaa39b223fe8d0a0e5c4f27ead9083c756cc2",
                "decimals": 18
            },
            {
                "address": "0xeeeeeeeeeeeeeeeeeeeeeeeeeeeeeeeeeeeeeeee",
                "decimals": 18
            }
        ]
    },
    "address_label": {
        "labels": [
            {
                "address": "0xeeeeeeeeeeeeeeeeeeeeeeeeeeeeeeeeeeeeeeee",
                "label": "Ether"
            },
            {
                "address": "0xfb2dc580eed955b528407b4d36ffafe3da685401",
                "label": "Umbra"
            },
            {
                "address": "0x0000000000000000000000000000000000000001",
                "label": "Precompiled"
            },
            {
                "address": "0x0000000000000000000000000000000000000002",
                "label": "Precompiled"
            },
            {
                "address": "0x0000000000000000000000000000000000000003",
                "label": "Precompiled"
            },
            {
                "address": "0x0000000000000000000000000000000000000004",
                "label": "Precompiled"
            }
        ]
    },
    "trace": {
        "accountLabels": null,
        "dataMap": {
            "-1": {
                "invocation": {
                    "address": "0x0a6c17dae9d5e950e61f0f9ed697d5ca8c4de005",
                    "callData": "",
                    "decodedMethod": null,
                    "errorInfo": "",
                    "fromAddress": "",
                    "gasUsed": 0,
                    "id": -1,
                    "methodDecoded": false,
                    "operation": "",
                    "output": "",
                    "revert": false,
                    "revertMessage": "",
                    "selector": "",
                    "status": false,
                    "value": ""
                },
                "nodeType": 0
            },
            "0": {
                "invocation": {
                    "address": "0xfb2dc580eed955b528407b4d36ffafe3da685401",
                    "callData": "0x000000000000000000000000f08abbc809dc7348adf3d58488bdb1ebd005b2fd00000000000000000000000000000000000000000000000000000000000000005866e899599145a75fa6eb66f028f30a37ec6ef526b571e9c9d2bd4c4584eea76c910b8a6361d656698a4963066e82080d84d3062178ed0b74c6feba01c39266",
                    "decodedMethod": {
                        "callParams": [
                            {
                                "name": "_receiver",
                                "type": "address",
                                "value": "0xf08abbc809dc7348adf3d58488bdb1ebd005b2fd"
                            },
                            {
                                "name": "_tollCommitment",
                                "type": "uint256",
                                "value": "0"
                            },
                            {
                                "name": "_pkx",
                                "type": "bytes32",
                                "value": "0x5866e899599145a75fa6eb66f028f30a37ec6ef526b571e9c9d2bd4c4584eea7"
                            },
                            {
                                "name": "_ciphertext",
                                "type": "bytes32",
                                "value": "0x6c910b8a6361d656698a4963066e82080d84d3062178ed0b74c6feba01c39266"
                            }
                        ],
                        "constructorArguments": "",
                        "name": "sendEth",
                        "returnParams": [],
                        "signature": "sendEth(address,uint256,bytes32,bytes32)"
                    },
                    "errorInfo": "",
                    "fromAddress": "0x0a6c17dae9d5e950e61f0f9ed697d5ca8c4de005",
                    "gasUsed": 62002,
                    "id": 0,
                    "methodDecoded": true,
                    "operation": "CALL",
                    "output": "",
                    "revert": false,
                    "revertMessage": "",
                    "selector": "0xbeb9addf",
                    "status": true,
                    "value": "0.021"
                },
                "nodeType": 0
            },
            "1": {
                "event": {
                    "contract": "0xfb2dc580eed955b528407b4d36ffafe3da685401",
                    "decodedLog": {
                        "name": "Announcement",
                        "params": [
                            {
                                "name": "receiver",
                                "type": "address",
                                "value": "0xf08abbc809dc7348adf3d58488bdb1ebd005b2fd"
                            },
                            {
                                "name": "token",
                                "type": "address",
                                "value": "0xeeeeeeeeeeeeeeeeeeeeeeeeeeeeeeeeeeeeeeee"
                            },
                            {
                                "name": "amount",
                                "type": "uint256",
                                "value": "21,000,000,000,000,000"
                            },
                            {
                                "name": "pkx",
                                "type": "bytes32",
                                "value": "0x5866e899599145a75fa6eb66f028f30a37ec6ef526b571e9c9d2bd4c4584eea7"
                            },
                            {
                                "name": "ciphertext",
                                "type": "bytes32",
                                "value": "0x6c910b8a6361d656698a4963066e82080d84d3062178ed0b74c6feba01c39266"
                            }
                        ],
                        "signature": "Announcement(address,uint256,address,bytes32,bytes32)"
                    },
                    "id": 1,
                    "logData": "0x000000000000000000000000000000000000000000000000004a9b63844880005866e899599145a75fa6eb66f028f30a37ec6ef526b571e9c9d2bd4c4584eea76c910b8a6361d656698a4963066e82080d84d3062178ed0b74c6feba01c39266",
                    "logDecoded": true,
                    "operation": "EVENT",
                    "revert": false,
                    "status": true,
                    "topics": [
                        "0x29877766fa2bfe3b90008d6d92f965eca91cbc5757ed775740e460799fb92219",
                        "0x000000000000000000000000f08abbc809dc7348adf3d58488bdb1ebd005b2fd",
                        "0x000000000000000000000000eeeeeeeeeeeeeeeeeeeeeeeeeeeeeeeeeeeeeeee"
                    ]
                },
                "nodeType": 1
            },
            "2": {
                "invocation": {
                    "address": "0xf08abbc809dc7348adf3d58488bdb1ebd005b2fd",
                    "callData": "0x",
                    "decodedMethod": null,
                    "errorInfo": "",
                    "fromAddress": "0xfb2dc580eed955b528407b4d36ffafe3da685401",
                    "gasUsed": 0,
                    "id": 2,
                    "methodDecoded": false,
                    "operation": "CALL",
                    "output": "",
                    "revert": false,
                    "revertMessage": "",
                    "selector": "fallback",
                    "status": true,
                    "value": "0.021"
                },
                "nodeType": 0
            }
        },
        "gasFlame": [
            {
                "children": [
                    {
                        "children": [
                            {
                                "children": [],
                                "depth": 0,
                                "name": "Initial Gas",
                                "value": 22584
                            },
                            {
                                "children": [
                                    {
                                        "children": [],
                                        "depth": 1,
                                        "name": "fallback",
                                        "value": 0
                                    }
                                ],
                                "depth": 0,
                                "name": "Executed Gas",
                                "value": 39418
                            }
                        ],
                        "depth": -1,
                        "name": "Actual Gas Used",
                        "value": 62002
                    },
                    {
                        "children": [],
                        "depth": -1,
                        "name": "Refunded Gas",
                        "value": 0
                    }
                ],
                "depth": -2,
                "name": "Total Gas",
                "value": 62002
            }
        ],
        "isConfirmed": true,
        "mainTrace": [
            {
                "children": [
                    {
                        "children": [
                            {
                                "children": [],
                                "depth": 1,
                                "id": 1,
                                "order": 1
                            },
                            {
                                "children": [],
                                "depth": 1,
                                "id": 2,
                                "order": 2
                            }
                        ],
                        "depth": 0,
                        "id": 0,
                        "order": 0
                    }
                ],
                "depth": -1,
                "id": -1,
                "order": -1
            }
        ],
        "mainTraceNodeCount": 3,
        "parentIdMap": {
            "0": -1,
            "1": 0,
            "2": 0
        },
        "tidyTrace": [
            {
                "children": [
                    {
                        "children": [
                            {
                                "children": [],
                                "depth": 1,
                                "id": 1,
                                "order": 1
                            },
                            {
                                "children": [],
                                "depth": 1,
                                "id": 2,
                                "order": 2
                            }
                        ],
                        "depth": 0,
                        "id": 0,
                        "order": 0
                    }
                ],
                "depth": -1,
                "id": -1,
                "order": -1
            }
        ],
        "tidyTraceNodeCount": 3
    },
    "state_change": {
        "stateChanges": []
    }
}