{
    "balance_change": {
        "balanceChanges": []
    },
    "profile": {
        "basic_info": {
            "baseFee": "97.428594604",
            "blockNumber": 13463693,
            "callData": "0xc98075390000000000000000000000000000000000000000000000000000000000000080000000000000000000000000000000000000000000000000000000000000032000000000000000000000000000000000000000000000000000000000000004000000010101010000000000000000000000000000000000000000000000000000000000000000000000000000000000000000000000000000000000000000028000000000000000000000009d436fac08b79151281708f3863c6ab900012c76020b080d060405010e0c0a0f07090302000000000000000000000000000000000000000000000000000000000000000000000000000000000000000000000000600000000000000000000000000000000000000000000000000000000000000010000000000000000000000000000000000000000000000000000000009cd7ccbd000000000000000000000000000000000000000000000000000000009cdf0bf3000000000000000000000000000000000000000000000000000000009cead71a000000000000000000000000000000000000000000000000000000009d0ee8c0000000000000000000000000000000000000000000000000000000009d0ee8c0000000000000000000000000000000000000000000000000000000009d0ee8c0000000000000000000000000000000000000000000000000000000009d0ee8c0000000000000000000000000000000000000000000000000000000009d0ee8c0000000000000000000000000000000000000000000000000000000009d0ee8c0000000000000000000000000000000000000000000000000000000009d1e1785000000000000000000000000000000000000000000000000000000009d2063ae000000000000000000000000000000000000000000000000000000009d2063ae000000000000000000000000000000000000000000000000000000009d31de9c000000000000000000000000000000000000000000000000000000009d31de9c000000000000000000000000000000000000000000000000000000009d31de9c000000000000000000000000000000000000000000000000000000009d34284300000000000000000000000000000000000000000000000000000000000000066fa311495983ff8da8a55e8ecf7c679f779116bf8a212682e03292a823e95d16825a349d676f7f9ca6a745cc8e3fdec81cfcda305fd6f63ee630e4843f5fb791df4f7f5cf2d9d68a05651c04543417d6a48159d57c7f26ab9ea3b9aeccd7b02bfa753fd66bd96248c5ca8fdbfd986081c2daff5b3fcb9b8e382f20e02fc44b37d8bfda99242827f6346e5d058a649e9bc66d461756da532256b619fdbd9a3dec78d5de53f1deba1948718b66f516fa7fc05d66cfa03e780fe62cecfeb35d98a20000000000000000000000000000000000000000000000000000000000000006362d43ebcdb88eff35631f0fae90bcf025180032497707afb874e852dbca54070f352ba6586a8d85841002e72336f675eb295e5fe2bf707eda3e2fbfa5a0ea771813894d32c894f2be3ececce57a6ecc6c37cdb6436ba6704953e83c387f92116ad4bf3d63169d70b31dff28a86de7d041a007465858985088172134dd277112046f7d9e8b1ea59fa573cdb07ea4a574590078e76616b88627587d1df3db8b4a219ea863ec4122e978c696c460ccab939f8964d1457e801a218810598d9ed5e9",
            "debugEnable": true,
            "errorInfo": "",
            "eventCount": 7,
            "feeRecipient": "0x829bd824b016326a401d083b33d092293333a830",
            "formatValue": "0",
            "gasLimit": 500000,
            "gasPrice": "111",
            "gasUsed": 264370,
            "intTxnCount": 14,
            "internalRevert": false,
            "internalRevertMessage": "",
            "isContractCreation": false,
            "isFlashloan": false,
            "maxFee": "",
            "nonce": 35523,
            "overwritedBlockNumber": -1,
            "priorityFee": "",
            "receiver": "0x68577f915131087199fe48913d8b416b3984fd38",
            "revertMessage": "",
            "sender": "0xb976d01275b809333e3efd76d1d31fe9264466d0",
            "simulationEnable": true,
            "sourceTxnHash": "0x67f33d3571e14d8a8e243aa2808c9b25c23832cd0ea23daee97003259ba325ba",
            "status": true,
            "timestamp": "2021-10-21T22:28:26Z",
            "transactionFee": "0.02934507",
            "txnHash": "0x67f33d3571e14d8a8e243aa2808c9b25c23832cd0ea23daee97003259ba325ba",
            "txnIndex": 45,
            "type": 0,
            "value": "0"
        },
        "fund_flow": [],
        "token_infos": [
            {
                "address": "0xc02aaa39b223fe8d0a0e5c4f27ead9083c756cc2",
                "decimals": 18
            },
            {
                "address": "0xeeeeeeeeeeeeeeeeeeeeeeeeeeeeeeeeeeeeeeee",
                "decimals": 18
            }
        ]
    },
    "address_label": {
        "labels": [
            {
                "address": "0x6d2299c48a8dd07a872fdd0f8233924872ad1071",
                "label": "UniswapAnchoredView"
            },
            {
                "address": "0x70f4d236fd678c9db41a52d28f90e299676d9d90",
                "label": "Chainlink: ValidatorProxy"
            },
            {
                "address": "0x0000000000000000000000000000000000000002",
                "label": "Precompiled"
            },
            {
                "address": "0x68577f915131087199fe48913d8b416b3984fd38",
                "label": "AccessControlledOffchainAggregator"
            },
            {
                "address": "0xd3d2e2692501a5c9ca623199d38826e513033a17",
                "label": "Uniswap V2: UNI 6"
            },
            {
                "address": "0xb4e16d0168e52d35cacd2c6185b44281ec28c9dc",
                "label": "Uniswap V2: USDC"
            },
            {
                "address": "0x0000000000000000000000000000000000000004",
                "label": "Precompiled"
            },
            {
                "address": "0xeeeeeeeeeeeeeeeeeeeeeeeeeeeeeeeeeeeeeeee",
                "label": "Ether"
            },
            {
                "address": "0x0000000000000000000000000000000000000001",
                "label": "Precompiled"
            },
            {
                "address": "0x0000000000000000000000000000000000000003",
                "label": "Precompiled"
            }
        ]
    },
    "trace": {
        "accountLabels": null,
        "dataMap": {
            "-1": {
                "invocation": {
                    "address": "0xb976d01275b809333e3efd76d1d31fe9264466d0",
                    "callData": "",
                    "decodedMethod": null,
                    "errorInfo": "",
                    "fromAddress": "",
                    "gasUsed": 0,
                    "id": -1,
                    "methodDecoded": false,
                    "operation": "",
                    "output": "",
                    "revert": false,
                    "revertMessage": "",
                    "selector": "",
                    "status": false,
                    "value": ""
                },
                "nodeType": 0
            },
            "0": {
                "invocation": {
                    "address": "0x68577f915131087199fe48913d8b416b3984fd38",
                    "callData": "0x0000000000000000000000000000000000000000000000000000000000000080000000000000000000000000000000000000000000000000000000000000032000000000000000000000000000000000000000000000000000000000000004000000010101010000000000000000000000000000000000000000000000000000000000000000000000000000000000000000000000000000000000000000028000000000000000000000009d436fac08b79151281708f3863c6ab900012c76020b080d060405010e0c0a0f07090302000000000000000000000000000000000000000000000000000000000000000000000000000000000000000000000000600000000000000000000000000000000000000000000000000000000000000010000000000000000000000000000000000000000000000000000000009cd7ccbd000000000000000000000000000000000000000000000000000000009cdf0bf3000000000000000000000000000000000000000000000000000000009cead71a000000000000000000000000000000000000000000000000000000009d0ee8c0000000000000000000000000000000000000000000000000000000009d0ee8c0000000000000000000000000000000000000000000000000000000009d0ee8c0000000000000000000000000000000000000000000000000000000009d0ee8c0000000000000000000000000000000000000000000000000000000009d0ee8c0000000000000000000000000000000000000000000000000000000009d0ee8c0000000000000000000000000000000000000000000000000000000009d1e1785000000000000000000000000000000000000000000000000000000009d2063ae000000000000000000000000000000000000000000000000000000009d2063ae000000000000000000000000000000000000000000000000000000009d31de9c000000000000000000000000000000000000000000000000000000009d31de9c000000000000000000000000000000000000000000000000000000009d31de9c000000000000000000000000000000000000000000000000000000009d34284300000000000000000000000000000000000000000000000000000000000000066fa311495983ff8da8a55e8ecf7c679f779116bf8a212682e03292a823e95d16825a349d676f7f9ca6a745cc8e3fdec81cfcda305fd6f63ee630e4843f5fb791df4f7f5cf2d9d68a05651c04543417d6a48159d57c7f26ab9ea3b9aeccd7b02bfa753fd66bd96248c5ca8fdbfd986081c2daff5b3fcb9b8e382f20e02fc44b37d8bfda99242827f6346e5d058a649e9bc66d461756da532256b619fdbd9a3dec78d5de53f1deba1948718b66f516fa7fc05d66cfa03e780fe62cecfeb35d98a20000000000000000000000000000000000000000000000000000000000000006362d43ebcdb88eff35631f0fae90bcf025180032497707afb874e852dbca54070f352ba6586a8d85841002e72336f675eb295e5fe2bf707eda3e2fbfa5a0ea771813894d32c894f2be3ececce57a6ecc6c37cdb6436ba6704953e83c387f92116ad4bf3d63169d70b31dff28a86de7d041a007465858985088172134dd277112046f7d9e8b1ea59fa573cdb07ea4a574590078e76616b88627587d1df3db8b4a219ea863ec4122e978c696c460ccab939f8964d1457e801a218810598d9ed5e9",
                    "decodedMethod": {
                        "callParams": [
                            {
                                "name": "_report",
                                "type": "bytes",
                                "value": "0x00000000000000000000009d436fac08b79151281708f3863c6ab900012c76020b080d060405010e0c0a0f07090302000000000000000000000000000000000000000000000000000000000000000000000000000000000000000000000000600000000000000000000000000000000000000000000000000000000000000010000000000000000000000000000000000000000000000000000000009cd7ccbd000000000000000000000000000000000000000000000000000000009cdf0bf3000000000000000000000000000000000000000000000000000000009cead71a000000000000000000000000000000000000000000000000000000009d0ee8c0000000000000000000000000000000000000000000000000000000009d0ee8c0000000000000000000000000000000000000000000000000000000009d0ee8c0000000000000000000000000000000000000000000000000000000009d0ee8c0000000000000000000000000000000000000000000000000000000009d0ee8c0000000000000000000000000000000000000000000000000000000009d0ee8c0000000000000000000000000000000000000000000000000000000009d1e1785000000000000000000000000000000000000000000000000000000009d2063ae000000000000000000000000000000000000000000000000000000009d2063ae000000000000000000000000000000000000000000000000000000009d31de9c000000000000000000000000000000000000000000000000000000009d31de9c000000000000000000000000000000000000000000000000000000009d31de9c000000000000000000000000000000000000000000000000000000009d342843"
                            },
                            {
                                "name": "_rs",
                                "type": "bytes32[]",
                                "value": [
                                    "0x6fa311495983ff8da8a55e8ecf7c679f779116bf8a212682e03292a823e95d16",
                                    "0x825a349d676f7f9ca6a745cc8e3fdec81cfcda305fd6f63ee630e4843f5fb791",
                                    "0xdf4f7f5cf2d9d68a05651c04543417d6a48159d57c7f26ab9ea3b9aeccd7b02b",
                                    "0xfa753fd66bd96248c5ca8fdbfd986081c2daff5b3fcb9b8e382f20e02fc44b37",
                                    "0xd8bfda99242827f6346e5d058a649e9bc66d461756da532256b619fdbd9a3dec",
                                    "0x78d5de53f1deba1948718b66f516fa7fc05d66cfa03e780fe62cecfeb35d98a2"
                                ]
                            },
                            {
                                "name": "_ss",
                                "type": "bytes32[]",
                                "value": [
                                    "0x362d43ebcdb88eff35631f0fae90bcf025180032497707afb874e852dbca5407",
                                    "0x0f352ba6586a8d85841002e72336f675eb295e5fe2bf707eda3e2fbfa5a0ea77",
                                    "0x1813894d32c894f2be3ececce57a6ecc6c37cdb6436ba6704953e83c387f9211",
                                    "0x6ad4bf3d63169d70b31dff28a86de7d041a007465858985088172134dd277112",
                                    "0x046f7d9e8b1ea59fa573cdb07ea4a574590078e76616b88627587d1df3db8b4a",
                                    "0x219ea863ec4122e978c696c460ccab939f8964d1457e801a218810598d9ed5e9"
                                ]
                            },
                            {
                                "name": "_rawVs",
                                "type": "bytes32",
                                "value": "0x0000010101010000000000000000000000000000000000000000000000000000"
                            }
                        ],
                        "constructorArguments": "",
                        "name": "transmit",
                        "returnParams": [],
                        "signature": "transmit(bytes,bytes32[],bytes32[],bytes32)"
                    },
                    "errorInfo": "",
                    "fromAddress": "0xb976d01275b809333e3efd76d1d31fe9264466d0",
                    "gasUsed": 264370,
                    "id": 0,
                    "methodDecoded": true,
                    "operation": "CALL",
                    "output": "",
                    "revert": false,
                    "revertMessage": "",
                    "selector": "0xc9807539",
                    "status": true,
                    "value": "0"
                },
                "nodeType": 0
            },
            "1": {
                "invocation": {
                    "address": "0x0000000000000000000000000000000000000001",
                    "callData": "0x6af66b5a4fa1a026b38acff5bbab5c19c4474ca72691ba5aa9c74008000000000000000000000000000000000000000000000000000000000000001b6fa311495983ff8da8a55e8ecf7c679f779116bf8a212682e03292a823e95d16362d43ebcdb88eff35631f0fae90bcf025180032497707afb874e852dbca5407",
                    "decodedMethod": {
                        "callParams": [
                            {
                                "name": "hash",
                                "type": "bytes32",
                                "value": "0xb5762df36af66b5a4fa1a026b38acff5bbab5c19c4474ca72691ba5aa9c74008"
                            },
                            {
                                "name": "v",
                                "type": "uint256",
                                "value": "27"
                            },
                            {
                                "name": "r",
                                "type": "bytes32",
                                "value": "0x6fa311495983ff8da8a55e8ecf7c679f779116bf8a212682e03292a823e95d16"
                            },
                            {
                                "name": "s",
                                "type": "bytes32",
                                "value": "0x362d43ebcdb88eff35631f0fae90bcf025180032497707afb874e852dbca5407"
                            }
                        ],
                        "constructorArguments": "",
                        "name": "ecrecover",
                        "returnParams": [
                            {
                                "name": "",
                                "type": "address",
                                "value": "0x03a67cd8467642a03d5ebd67f97157931d94fa32"
                            }
                        ],
                        "signature": "ecrecover(bytes32,uint256,bytes32,bytes32)"
                    },
                    "errorInfo": "",
                    "fromAddress": "0x68577f915131087199fe48913d8b416b3984fd38",
                    "gasUsed": 3000,
                    "id": 1,
                    "methodDecoded": true,
                    "operation": "STATICCALL",
                    "output": "0x00000000000000000000000003a67cd8467642a03d5ebd67f97157931d94fa32",
                    "revert": false,
                    "revertMessage": "",
                    "selector": "0xb5762df3",
                    "status": true,
                    "value": "0"
                },
                "nodeType": 0
            },
            "10": {
                "invocation": {
                    "address": "0x70f4d236fd678c9db41a52d28f90e299676d9d90",
                    "callData": "0x0000000000000000000000000000000000000000000000000000000000001907000000000000000000000000000000000000000000000000000000009d3502af0000000000000000000000000000000000000000000000000000000000001908000000000000000000000000000000000000000000000000000000009d0ee8c0",
                    "decodedMethod": {
                        "callParams": [
                            {
                                "name": "previousRoundId",
                                "type": "uint256",
                                "value": "6,407"
                            },
                            {
                                "name": "previousAnswer",
                                "type": "int256",
                                "value": "2,637,497,007"
                            },
                            {
                                "name": "currentRoundId",
                                "type": "uint256",
                                "value": "6,408"
                            },
                            {
                                "name": "currentAnswer",
                                "type": "int256",
                                "value": "2,635,000,000"
                            }
                        ],
                        "constructorArguments": "",
                        "name": "validate",
                        "returnParams": [
                            {
                                "name": "",
                                "type": "bool",
                                "value": true
                            }
                        ],
                        "signature": "validate(uint256,int256,uint256,int256)"
                    },
                    "errorInfo": "",
                    "fromAddress": "0x68577f915131087199fe48913d8b416b3984fd38",
                    "gasUsed": 82596,
                    "id": 10,
                    "methodDecoded": true,
                    "operation": "CALL",
                    "output": "0x0000000000000000000000000000000000000000000000000000000000000001",
                    "revert": false,
                    "revertMessage": "",
                    "selector": "0xbeed9b51",
                    "status": true,
                    "value": "0"
                },
                "nodeType": 0
            },
            "11": {
                "invocation": {
                    "address": "0x6d2299c48a8dd07a872fdd0f8233924872ad1071",
                    "callData": "0x0000000000000000000000000000000000000000000000000000000000001907000000000000000000000000000000000000000000000000000000009d3502af0000000000000000000000000000000000000000000000000000000000001908000000000000000000000000000000000000000000000000000000009d0ee8c0",
                    "decodedMethod": {
                        "callParams": [
                            {
                                "name": "",
                                "type": "uint256",
                                "value": "6,407"
                            },
                            {
                                "name": "",
                                "type": "int256",
                                "value": "2,637,497,007"
                            },
                            {
                                "name": "",
                                "type": "uint256",
                                "value": "6,408"
                            },
                            {
                                "name": "currentAnswer",
                                "type": "int256",
                                "value": "2,635,000,000"
                            }
                        ],
                        "constructorArguments": "",
                        "name": "validate",
                        "returnParams": [
                            {
                                "name": "valid",
                                "type": "bool",
                                "value": true
                            }
                        ],
                        "signature": "validate(uint256,int256,uint256,int256)"
                    },
                    "errorInfo": "",
                    "fromAddress": "0x70f4d236fd678c9db41a52d28f90e299676d9d90",
                    "gasUsed": 74249,
                    "id": 11,
                    "methodDecoded": true,
                    "operation": "CALL",
                    "output": "0x0000000000000000000000000000000000000000000000000000000000000001",
                    "revert": false,
                    "revertMessage": "",
                    "selector": "0xbeed9b51",
                    "status": true,
                    "value": "0"
                },
                "nodeType": 0
            },
            "12": {
                "invocation": {
                    "address": "0xb4e16d0168e52d35cacd2c6185b44281ec28c9dc",
                    "callData": "0x",
                    "decodedMethod": {
                        "callParams": [],
                        "constructorArguments": "",
                        "name": "price0CumulativeLast",
                        "returnParams": [
                            {
                                "name": "",
                                "type": "uint256",
                                "value": "392,133,188,881,125,388,290,393,994,017,009,635,758,125,838,628,748"
                            }
                        ],
                        "signature": "price0CumulativeLast()"
                    },
                    "errorInfo": "",
                    "fromAddress": "0x6d2299c48a8dd07a872fdd0f8233924872ad1071",
                    "gasUsed": 2387,
                    "id": 12,
                    "methodDecoded": true,
                    "operation": "STATICCALL",
                    "output": "0x00000000000000000000010c4ef4551d3ad729db6662ebbb0de1991a1ad1f78c",
                    "revert": false,
                    "revertMessage": "",
                    "selector": "0x5909c0d5",
                    "status": true,
                    "value": "0"
                },
                "nodeType": 0
            },
            "13": {
                "invocation": {
                    "address": "0xb4e16d0168e52d35cacd2c6185b44281ec28c9dc",
                    "callData": "0x",
                    "decodedMethod": {
                        "callParams": [],
                        "constructorArguments": "",
                        "name": "price1CumulativeLast",
                        "returnParams": [
                            {
                                "name": "",
                                "type": "uint256",
                                "value": "358,818,882,457,387,695,381,370,303,117,289"
                            }
                        ],
                        "signature": "price1CumulativeLast()"
                    },
                    "errorInfo": "",
                    "fromAddress": "0x6d2299c48a8dd07a872fdd0f8233924872ad1071",
                    "gasUsed": 2409,
                    "id": 13,
                    "methodDecoded": true,
                    "operation": "STATICCALL",
                    "output": "0x00000000000000000000000000000000000011b0ee56fc98079e6864022377e9",
                    "revert": false,
                    "revertMessage": "",
                    "selector": "0x5a3d5493",
                    "status": true,
                    "value": "0"
                },
                "nodeType": 0
            },
            "14": {
                "invocation": {
                    "address": "0xb4e16d0168e52d35cacd2c6185b44281ec28c9dc",
                    "callData": "0x",
                    "decodedMethod": {
                        "callParams": [],
                        "constructorArguments": "",
                        "name": "getReserves",
                        "returnParams": [
                            {
                                "name": "_reserve0",
                                "type": "uint112",
                                "value": "109,238,489,486,227"
                            },
                            {
                                "name": "_reserve1",
                                "type": "uint112",
                                "value": "26,644,618,030,828,291,217,155"
                            },
                            {
                                "name": "_blockTimestampLast",
                                "type": "uint32",
                                "value": "1,634,855,174"
                            }
                        ],
                        "signature": "getReserves()"
                    },
                    "errorInfo": "",
                    "fromAddress": "0x6d2299c48a8dd07a872fdd0f8233924872ad1071",
                    "gasUsed": 2504,
                    "id": 14,
                    "methodDecoded": true,
                    "operation": "STATICCALL",
                    "output": "0x0000000000000000000000000000000000000000000000000000635a115c93930000000000000000000000000000000000000000000005a4685af1cd4059d703000000000000000000000000000000000000000000000000000000006171e906",
                    "revert": false,
                    "revertMessage": "",
                    "selector": "0x0902f1ac",
                    "status": true,
                    "value": "0"
                },
                "nodeType": 0
            },
            "15": {
                "event": {
                    "contract": "0x6d2299c48a8dd07a872fdd0f8233924872ad1071",
                    "decodedLog": {
                        "name": "AnchorPriceUpdated",
                        "params": [
                            {
                                "name": "symbolHash",
                                "type": "bytes32",
                                "value": "0xaaaebeba3810b1e6b70781f14b2d72c1cb89c0b2b320c43bb67ff79f562f5ff4"
                            },
                            {
                                "name": "anchorPrice",
                                "type": "uint256",
                                "value": "4,098,471,205"
                            },
                            {
                                "name": "oldTimestamp",
                                "type": "uint256",
                                "value": "1,634,851,564"
                            },
                            {
                                "name": "newTimestamp",
                                "type": "uint256",
                                "value": "1,634,855,306"
                            }
                        ],
                        "signature": "AnchorPriceUpdated(bytes32,uint256,uint256,uint256)"
                    },
                    "id": 15,
                    "logData": "0x00000000000000000000000000000000000000000000000000000000f449b525000000000000000000000000000000000000000000000000000000006171daec000000000000000000000000000000000000000000000000000000006171e98a",
                    "logDecoded": true,
                    "operation": "EVENT",
                    "revert": false,
                    "status": true,
                    "topics": [
                        "0xac9b6bb0c67df7ef0d18e58e4bd539c4d6f780c4c8f341cd8e649109edeb5faf",
                        "0xaaaebeba3810b1e6b70781f14b2d72c1cb89c0b2b320c43bb67ff79f562f5ff4"
                    ]
                },
                "nodeType": 1
            },
            "16": {
                "invocation": {
                    "address": "0xd3d2e2692501a5c9ca623199d38826e513033a17",
                    "callData": "0x",
                    "decodedMethod": {
                        "callParams": [],
                        "constructorArguments": "",
                        "name": "price0CumulativeLast",
                        "returnParams": [
                            {
                                "name": "",
                                "type": "uint256",
                                "value": "1,752,944,330,106,722,053,619,590,302,764,113,251,576"
                            }
                        ],
                        "signature": "price0CumulativeLast()"
                    },
                    "errorInfo": "",
                    "fromAddress": "0x6d2299c48a8dd07a872fdd0f8233924872ad1071",
                    "gasUsed": 2387,
                    "id": 16,
                    "methodDecoded": true,
                    "operation": "STATICCALL",
                    "output": "0x0000000000000000000000000000000526c4cc30cceb19c67c21f557fcd2ccf8",
                    "revert": false,
                    "revertMessage": "",
                    "selector": "0x5909c0d5",
                    "status": true,
                    "value": "0"
                },
                "nodeType": 0
            },
            "17": {
                "invocation": {
                    "address": "0xd3d2e2692501a5c9ca623199d38826e513033a17",
                    "callData": "0x",
                    "decodedMethod": {
                        "callParams": [],
                        "constructorArguments": "",
                        "name": "price1CumulativeLast",
                        "returnParams": [
                            {
                                "name": "",
                                "type": "uint256",
                                "value": "20,640,444,271,765,130,743,635,820,789,502,658,535,824,386"
                            }
                        ],
                        "signature": "price1CumulativeLast()"
                    },
                    "errorInfo": "",
                    "fromAddress": "0x6d2299c48a8dd07a872fdd0f8233924872ad1071",
                    "gasUsed": 2409,
                    "id": 17,
                    "methodDecoded": true,
                    "operation": "STATICCALL",
                    "output": "0x0000000000000000000000000000ecf0d068d847d248b535a8b64ab2e1711c02",
                    "revert": false,
                    "revertMessage": "",
                    "selector": "0x5a3d5493",
                    "status": true,
                    "value": "0"
                },
                "nodeType": 0
            },
            "18": {
                "invocation": {
                    "address": "0xd3d2e2692501a5c9ca623199d38826e513033a17",
                    "callData": "0x",
                    "decodedMethod": {
                        "callParams": [],
                        "constructorArguments": "",
                        "name": "getReserves",
                        "returnParams": [
                            {
                                "name": "_reserve0",
                                "type": "uint112",
                                "value": "2,138,789,496,497,831,404,624,425"
                            },
                            {
                                "name": "_reserve1",
                                "type": "uint112",
                                "value": "13,709,638,832,628,600,507,642"
                            },
                            {
                                "name": "_blockTimestampLast",
                                "type": "uint32",
                                "value": "1,634,854,670"
                            }
                        ],
                        "signature": "getReserves()"
                    },
                    "errorInfo": "",
                    "fromAddress": "0x6d2299c48a8dd07a872fdd0f8233924872ad1071",
                    "gasUsed": 2504,
                    "id": 18,
                    "methodDecoded": true,
                    "operation": "STATICCALL",
                    "output": "0x00000000000000000000000000000000000000000001c4e802cc485dd413da290000000000000000000000000000000000000000000002e73375697f00bd8cfa000000000000000000000000000000000000000000000000000000006171e70e",
                    "revert": false,
                    "revertMessage": "",
                    "selector": "0x0902f1ac",
                    "status": true,
                    "value": "0"
                },
                "nodeType": 0
            },
            "19": {
                "event": {
                    "contract": "0x6d2299c48a8dd07a872fdd0f8233924872ad1071",
                    "decodedLog": {
                        "name": "UniswapWindowUpdated",
                        "params": [
                            {
                                "name": "symbolHash",
                                "type": "bytes32",
                                "value": "0xfba01d52a7cd84480d0573725899486a0b5e55c20ff45d6628874349375d1650"
                            },
                            {
                                "name": "oldTimestamp",
                                "type": "uint256",
                                "value": "1,634,851,564"
                            },
                            {
                                "name": "newTimestamp",
                                "type": "uint256",
                                "value": "1,634,855,306"
                            },
                            {
                                "name": "oldPrice",
                                "type": "uint256",
                                "value": "1,752,840,935,708,694,659,184,769,493,470,109,534,051"
                            },
                            {
                                "name": "newPrice",
                                "type": "uint256",
                                "value": "1,752,965,497,852,022,205,278,030,395,841,980,601,772"
                            }
                        ],
                        "signature": "UniswapWindowUpdated(bytes32,uint256,uint256,uint256,uint256)"
                    },
                    "id": 19,
                    "logData": "0x000000000000000000000000000000000000000000000000000000006171daec000000000000000000000000000000000000000000000000000000006171e98a0000000000000000000000000000000526b0e27406943fbe76a9e53c2a9c87630000000000000000000000000000000526c8dfd74ed6d8bb3209987eb69f15ac",
                    "logDecoded": true,
                    "operation": "EVENT",
                    "revert": false,
                    "status": true,
                    "topics": [
                        "0xe37d39315e3419c0937360f1ac88f2c52ecf67e3b22b367f82047ddb4591904a",
                        "0xfba01d52a7cd84480d0573725899486a0b5e55c20ff45d6628874349375d1650"
                    ]
                },
                "nodeType": 1
            },
            "2": {
                "invocation": {
                    "address": "0x0000000000000000000000000000000000000001",
                    "callData": "0x6af66b5a4fa1a026b38acff5bbab5c19c4474ca72691ba5aa9c74008000000000000000000000000000000000000000000000000000000000000001b825a349d676f7f9ca6a745cc8e3fdec81cfcda305fd6f63ee630e4843f5fb7910f352ba6586a8d85841002e72336f675eb295e5fe2bf707eda3e2fbfa5a0ea77",
                    "decodedMethod": {
                        "callParams": [
                            {
                                "name": "hash",
                                "type": "bytes32",
                                "value": "0xb5762df36af66b5a4fa1a026b38acff5bbab5c19c4474ca72691ba5aa9c74008"
                            },
                            {
                                "name": "v",
                                "type": "uint256",
                                "value": "27"
                            },
                            {
                                "name": "r",
                                "type": "bytes32",
                                "value": "0x825a349d676f7f9ca6a745cc8e3fdec81cfcda305fd6f63ee630e4843f5fb791"
                            },
                            {
                                "name": "s",
                                "type": "bytes32",
                                "value": "0x0f352ba6586a8d85841002e72336f675eb295e5fe2bf707eda3e2fbfa5a0ea77"
                            }
                        ],
                        "constructorArguments": "",
                        "name": "ecrecover",
                        "returnParams": [
                            {
                                "name": "",
                                "type": "address",
                                "value": "0xbd34530f411130fd7acb88b8251009a0829379aa"
                            }
                        ],
                        "signature": "ecrecover(bytes32,uint256,bytes32,bytes32)"
                    },
                    "errorInfo": "",
                    "fromAddress": "0x68577f915131087199fe48913d8b416b3984fd38",
                    "gasUsed": 3000,
                    "id": 2,
                    "methodDecoded": true,
                    "operation": "STATICCALL",
                    "output": "0x000000000000000000000000bd34530f411130fd7acb88b8251009a0829379aa",
                    "revert": false,
                    "revertMessage": "",
                    "selector": "0xb5762df3",
                    "status": true,
                    "value": "0"
                },
                "nodeType": 0
            },
            "20": {
                "event": {
                    "contract": "0x6d2299c48a8dd07a872fdd0f8233924872ad1071",
                    "decodedLog": {
                        "name": "AnchorPriceUpdated",
                        "params": [
                            {
                                "name": "symbolHash",
                                "type": "bytes32",
                                "value": "0xfba01d52a7cd84480d0573725899486a0b5e55c20ff45d6628874349375d1650"
                            },
                            {
                                "name": "anchorPrice",
                                "type": "uint256",
                                "value": "26,275,117"
                            },
                            {
                                "name": "oldTimestamp",
                                "type": "uint256",
                                "value": "1,634,851,564"
                            },
                            {
                                "name": "newTimestamp",
                                "type": "uint256",
                                "value": "1,634,855,306"
                            }
                        ],
                        "signature": "AnchorPriceUpdated(bytes32,uint256,uint256,uint256)"
                    },
                    "id": 20,
                    "logData": "0x000000000000000000000000000000000000000000000000000000000190ed2d000000000000000000000000000000000000000000000000000000006171daec000000000000000000000000000000000000000000000000000000006171e98a",
                    "logDecoded": true,
                    "operation": "EVENT",
                    "revert": false,
                    "status": true,
                    "topics": [
                        "0xac9b6bb0c67df7ef0d18e58e4bd539c4d6f780c4c8f341cd8e649109edeb5faf",
                        "0xfba01d52a7cd84480d0573725899486a0b5e55c20ff45d6628874349375d1650"
                    ]
                },
                "nodeType": 1
            },
            "21": {
                "event": {
                    "contract": "0x6d2299c48a8dd07a872fdd0f8233924872ad1071",
                    "decodedLog": {
                        "name": "PriceUpdated",
                        "params": [
                            {
                                "name": "symbolHash",
                                "type": "bytes32",
                                "value": "0xfba01d52a7cd84480d0573725899486a0b5e55c20ff45d6628874349375d1650"
                            },
                            {
                                "name": "price",
                                "type": "uint256",
                                "value": "26,350,000"
                            }
                        ],
                        "signature": "PriceUpdated(bytes32,uint256)"
                    },
                    "id": 21,
                    "logData": "0x00000000000000000000000000000000000000000000000000000000019211b0",
                    "logDecoded": true,
                    "operation": "EVENT",
                    "revert": false,
                    "status": true,
                    "topics": [
                        "0x46eec4e0eeeef5830de3472bb39db7e52b1c809286dc87c4b85b20e003cc70c3",
                        "0xfba01d52a7cd84480d0573725899486a0b5e55c20ff45d6628874349375d1650"
                    ]
                },
                "nodeType": 1
            },
            "3": {
                "invocation": {
                    "address": "0x0000000000000000000000000000000000000001",
                    "callData": "0x6af66b5a4fa1a026b38acff5bbab5c19c4474ca72691ba5aa9c74008000000000000000000000000000000000000000000000000000000000000001cdf4f7f5cf2d9d68a05651c04543417d6a48159d57c7f26ab9ea3b9aeccd7b02b1813894d32c894f2be3ececce57a6ecc6c37cdb6436ba6704953e83c387f9211",
                    "decodedMethod": {
                        "callParams": [
                            {
                                "name": "hash",
                                "type": "bytes32",
                                "value": "0xb5762df36af66b5a4fa1a026b38acff5bbab5c19c4474ca72691ba5aa9c74008"
                            },
                            {
                                "name": "v",
                                "type": "uint256",
                                "value": "28"
                            },
                            {
                                "name": "r",
                                "type": "bytes32",
                                "value": "0xdf4f7f5cf2d9d68a05651c04543417d6a48159d57c7f26ab9ea3b9aeccd7b02b"
                            },
                            {
                                "name": "s",
                                "type": "bytes32",
                                "value": "0x1813894d32c894f2be3ececce57a6ecc6c37cdb6436ba6704953e83c387f9211"
                            }
                        ],
                        "constructorArguments": "",
                        "name": "ecrecover",
                        "returnParams": [
                            {
                                "name": "",
                                "type": "address",
                                "value": "0xccfa2e19ad78df85b203fda0044c0f5f5d2f43f8"
                            }
                        ],
                        "signature": "ecrecover(bytes32,uint256,bytes32,bytes32)"
                    },
                    "errorInfo": "",
                    "fromAddress": "0x68577f915131087199fe48913d8b416b3984fd38",
                    "gasUsed": 3000,
                    "id": 3,
                    "methodDecoded": true,
                    "operation": "STATICCALL",
                    "output": "0x000000000000000000000000ccfa2e19ad78df85b203fda0044c0f5f5d2f43f8",
                    "revert": false,
                    "revertMessage": "",
                    "selector": "0xb5762df3",
                    "status": true,
                    "value": "0"
                },
                "nodeType": 0
            },
            "4": {
                "invocation": {
                    "address": "0x0000000000000000000000000000000000000001",
                    "callData": "0x6af66b5a4fa1a026b38acff5bbab5c19c4474ca72691ba5aa9c74008000000000000000000000000000000000000000000000000000000000000001cfa753fd66bd96248c5ca8fdbfd986081c2daff5b3fcb9b8e382f20e02fc44b376ad4bf3d63169d70b31dff28a86de7d041a007465858985088172134dd277112",
                    "decodedMethod": {
                        "callParams": [
                            {
                                "name": "hash",
                                "type": "bytes32",
                                "value": "0xb5762df36af66b5a4fa1a026b38acff5bbab5c19c4474ca72691ba5aa9c74008"
                            },
                            {
                                "name": "v",
                                "type": "uint256",
                                "value": "28"
                            },
                            {
                                "name": "r",
                                "type": "bytes32",
                                "value": "0xfa753fd66bd96248c5ca8fdbfd986081c2daff5b3fcb9b8e382f20e02fc44b37"
                            },
                            {
                                "name": "s",
                                "type": "bytes32",
                                "value": "0x6ad4bf3d63169d70b31dff28a86de7d041a007465858985088172134dd277112"
                            }
                        ],
                        "constructorArguments": "",
                        "name": "ecrecover",
                        "returnParams": [
                            {
                                "name": "",
                                "type": "address",
                                "value": "0x5007b477f939646b4e4416afcef6b00567f5f078"
                            }
                        ],
                        "signature": "ecrecover(bytes32,uint256,bytes32,bytes32)"
                    },
                    "errorInfo": "",
                    "fromAddress": "0x68577f915131087199fe48913d8b416b3984fd38",
                    "gasUsed": 3000,
                    "id": 4,
                    "methodDecoded": true,
                    "operation": "STATICCALL",
                    "output": "0x0000000000000000000000005007b477f939646b4e4416afcef6b00567f5f078",
                    "revert": false,
                    "revertMessage": "",
                    "selector": "0xb5762df3",
                    "status": true,
                    "value": "0"
                },
                "nodeType": 0
            },
            "5": {
                "invocation": {
                    "address": "0x0000000000000000000000000000000000000001",
                    "callData": "0x6af66b5a4fa1a026b38acff5bbab5c19c4474ca72691ba5aa9c74008000000000000000000000000000000000000000000000000000000000000001cd8bfda99242827f6346e5d058a649e9bc66d461756da532256b619fdbd9a3dec046f7d9e8b1ea59fa573cdb07ea4a574590078e76616b88627587d1df3db8b4a",
                    "decodedMethod": {
                        "callParams": [
                            {
                                "name": "hash",
                                "type": "bytes32",
                                "value": "0xb5762df36af66b5a4fa1a026b38acff5bbab5c19c4474ca72691ba5aa9c74008"
                            },
                            {
                                "name": "v",
                                "type": "uint256",
                                "value": "28"
                            },
                            {
                                "name": "r",
                                "type": "bytes32",
                                "value": "0xd8bfda99242827f6346e5d058a649e9bc66d461756da532256b619fdbd9a3dec"
                            },
                            {
                                "name": "s",
                                "type": "bytes32",
                                "value": "0x046f7d9e8b1ea59fa573cdb07ea4a574590078e76616b88627587d1df3db8b4a"
                            }
                        ],
                        "constructorArguments": "",
                        "name": "ecrecover",
                        "returnParams": [
                            {
                                "name": "",
                                "type": "address",
                                "value": "0x076b12d219a32613cd370ea9649a860114d3015e"
                            }
                        ],
                        "signature": "ecrecover(bytes32,uint256,bytes32,bytes32)"
                    },
                    "errorInfo": "",
                    "fromAddress": "0x68577f915131087199fe48913d8b416b3984fd38",
                    "gasUsed": 3000,
                    "id": 5,
                    "methodDecoded": true,
                    "operation": "STATICCALL",
                    "output": "0x000000000000000000000000076b12d219a32613cd370ea9649a860114d3015e",
                    "revert": false,
                    "revertMessage": "",
                    "selector": "0xb5762df3",
                    "status": true,
                    "value": "0"
                },
                "nodeType": 0
            },
            "6": {
                "invocation": {
                    "address": "0x0000000000000000000000000000000000000001",
                    "callData": "0x6af66b5a4fa1a026b38acff5bbab5c19c4474ca72691ba5aa9c74008000000000000000000000000000000000000000000000000000000000000001c78d5de53f1deba1948718b66f516fa7fc05d66cfa03e780fe62cecfeb35d98a2219ea863ec4122e978c696c460ccab939f8964d1457e801a218810598d9ed5e9",
                    "decodedMethod": {
                        "callParams": [
                            {
                                "name": "hash",
                                "type": "bytes32",
                                "value": "0xb5762df36af66b5a4fa1a026b38acff5bbab5c19c4474ca72691ba5aa9c74008"
                            },
                            {
                                "name": "v",
                                "type": "uint256",
                                "value": "28"
                            },
                            {
                                "name": "r",
                                "type": "bytes32",
                                "value": "0x78d5de53f1deba1948718b66f516fa7fc05d66cfa03e780fe62cecfeb35d98a2"
                            },
                            {
                                "name": "s",
                                "type": "bytes32",
                                "value": "0x219ea863ec4122e978c696c460ccab939f8964d1457e801a218810598d9ed5e9"
                            }
                        ],
                        "constructorArguments": "",
                        "name": "ecrecover",
                        "returnParams": [
                            {
                                "name": "",
                                "type": "address",
                                "value": "0x0afa6c004b3306e547107bba4eeab7d8c023e0ce"
                            }
                        ],
                        "signature": "ecrecover(bytes32,uint256,bytes32,bytes32)"
                    },
                    "errorInfo": "",
                    "fromAddress": "0x68577f915131087199fe48913d8b416b3984fd38",
                    "gasUsed": 3000,
                    "id": 6,
                    "methodDecoded": true,
                    "operation": "STATICCALL",
                    "output": "0x0000000000000000000000000afa6c004b3306e547107bba4eeab7d8c023e0ce",
                    "revert": false,
                    "revertMessage": "",
                    "selector": "0xb5762df3",
                    "status": true,
                    "value": "0"
                },
                "nodeType": 0
            },
            "7": {
                "event": {
                    "contract": "0x68577f915131087199fe48913d8b416b3984fd38",
                    "decodedLog": {
                        "name": "NewTransmission",
                        "params": [
                            {
                                "name": "aggregatorRoundId",
                                "type": "uint32",
                                "value": "6,408"
                            },
                            {
                                "name": "answer",
                                "type": "int192",
                                "value": "2,635,000,000"
                            },
                            {
                                "name": "transmitter",
                                "type": "address",
                                "value": "0xb976d01275b809333e3efd76d1d31fe9264466d0"
                            },
                            {
                                "name": "observations",
                                "type": "int192[]",
                                "value": [
                                    "2,631,388,349",
                                    "2,631,863,283",
                                    "2,632,636,186",
                                    "2,635,000,000",
                                    "2,635,000,000",
                                    "2,635,000,000",
                                    "2,635,000,000",
                                    "2,635,000,000",
                                    "2,635,000,000",
                                    "2,635,995,013",
                                    "2,636,145,582",
                                    "2,636,145,582",
                                    "2,637,291,164",
                                    "2,637,291,164",
                                    "2,637,291,164",
                                    "2,637,441,091"
                                ]
                            },
                            {
                                "name": "observers",
                                "type": "bytes",
                                "value": "0x0b080d060405010e0c0a0f0709030200"
                            },
                            {
                                "name": "rawReportContext",
                                "type": "bytes32",
                                "value": "0x00000000000000000000009d436fac08b79151281708f3863c6ab900012c7602"
                            }
                        ],
                        "signature": "NewTransmission(uint32,int192,address,int192[],bytes,bytes32)"
                    },
                    "id": 7,
                    "logData": "0x000000000000000000000000000000000000000000000000000000009d0ee8c0000000000000000000000000b976d01275b809333e3efd76d1d31fe9264466d000000000000000000000000000000000000000000000000000000000000000a000000000000000000000000000000000000000000000000000000000000002c000000000000000000000009d436fac08b79151281708f3863c6ab900012c76020000000000000000000000000000000000000000000000000000000000000010000000000000000000000000000000000000000000000000000000009cd7ccbd000000000000000000000000000000000000000000000000000000009cdf0bf3000000000000000000000000000000000000000000000000000000009cead71a000000000000000000000000000000000000000000000000000000009d0ee8c0000000000000000000000000000000000000000000000000000000009d0ee8c0000000000000000000000000000000000000000000000000000000009d0ee8c0000000000000000000000000000000000000000000000000000000009d0ee8c0000000000000000000000000000000000000000000000000000000009d0ee8c0000000000000000000000000000000000000000000000000000000009d0ee8c0000000000000000000000000000000000000000000000000000000009d1e1785000000000000000000000000000000000000000000000000000000009d2063ae000000000000000000000000000000000000000000000000000000009d2063ae000000000000000000000000000000000000000000000000000000009d31de9c000000000000000000000000000000000000000000000000000000009d31de9c000000000000000000000000000000000000000000000000000000009d31de9c000000000000000000000000000000000000000000000000000000009d34284300000000000000000000000000000000000000000000000000000000000000100b080d060405010e0c0a0f070903020000000000000000000000000000000000",
                    "logDecoded": true,
                    "operation": "EVENT",
                    "revert": false,
                    "status": true,
                    "topics": [
                        "0xf6a97944f31ea060dfde0566e4167c1a1082551e64b60ecb14d599a9d023d451",
                        "0x0000000000000000000000000000000000000000000000000000000000001908"
                    ]
                },
                "nodeType": 1
            },
            "8": {
                "event": {
                    "contract": "0x68577f915131087199fe48913d8b416b3984fd38",
                    "decodedLog": {
                        "name": "NewRound",
                        "params": [
                            {
                                "name": "roundId",
                                "type": "uint256",
                                "value": "6,408"
                            },
                            {
                                "name": "startedBy",
                                "type": "address",
                                "value": "0x0000000000000000000000000000000000000000"
                            },
                            {
                                "name": "startedAt",
                                "type": "uint256",
                                "value": "1,634,855,306"
                            }
                        ],
                        "signature": "NewRound(uint256,address,uint256)"
                    },
                    "id": 8,
                    "logData": "0x000000000000000000000000000000000000000000000000000000006171e98a",
                    "logDecoded": true,
                    "operation": "EVENT",
                    "revert": false,
                    "status": true,
                    "topics": [
                        "0x0109fc6f55cf40689f02fbaad7af7fe7bbac8a3d2186600afc7d3e10cac60271",
                        "0x0000000000000000000000000000000000000000000000000000000000001908",
                        "0x0000000000000000000000000000000000000000000000000000000000000000"
                    ]
                },
                "nodeType": 1
            },
            "9": {
                "event": {
                    "contract": "0x68577f915131087199fe48913d8b416b3984fd38",
                    "decodedLog": {
                        "name": "AnswerUpdated",
                        "params": [
                            {
                                "name": "current",
                                "type": "int256",
                                "value": "2,635,000,000"
                            },
                            {
                                "name": "roundId",
                                "type": "uint256",
                                "value": "6,408"
                            },
                            {
                                "name": "updatedAt",
                                "type": "uint256",
                                "value": "1,634,855,306"
                            }
                        ],
                        "signature": "AnswerUpdated(int256,uint256,uint256)"
                    },
                    "id": 9,
                    "logData": "0x000000000000000000000000000000000000000000000000000000006171e98a",
                    "logDecoded": true,
                    "operation": "EVENT",
                    "revert": false,
                    "status": true,
                    "topics": [
                        "0x0559884fd3a460db3073b7fc896cc77986f16e378210ded43186175bf646fc5f",
                        "0x000000000000000000000000000000000000000000000000000000009d0ee8c0",
                        "0x0000000000000000000000000000000000000000000000000000000000001908"
                    ]
                },
                "nodeType": 1
            }
        },
        "gasFlame": [
            {
                "children": [
                    {
                        "children": [
                            {
                                "children": [],
                                "depth": 0,
                                "name": "Initial Gas",
                                "value": 31996
                            },
                            {
                                "children": [
                                    {
                                        "children": [],
                                        "depth": 1,
                                        "name": "ecrecover",
                                        "value": 3000
                                    },
                                    {
                                        "children": [],
                                        "depth": 1,
                                        "name": "ecrecover",
                                        "value": 3000
                                    },
                                    {
                                        "children": [],
                                        "depth": 1,
                                        "name": "ecrecover",
                                        "value": 3000
                                    },
                                    {
                                        "children": [],
                                        "depth": 1,
                                        "name": "ecrecover",
                                        "value": 3000
                                    },
                                    {
                                        "children": [],
                                        "depth": 1,
                                        "name": "ecrecover",
                                        "value": 3000
                                    },
                                    {
                                        "children": [],
                                        "depth": 1,
                                        "name": "ecrecover",
                                        "value": 3000
                                    },
                                    {
                                        "children": [
                                            {
                                                "children": [
                                                    {
                                                        "children": [],
                                                        "depth": 3,
                                                        "name": "price0CumulativeLast",
                                                        "value": 2387
                                                    },
                                                    {
                                                        "children": [],
                                                        "depth": 3,
                                                        "name": "price1CumulativeLast",
                                                        "value": 2409
                                                    },
                                                    {
                                                        "children": [],
                                                        "depth": 3,
                                                        "name": "getReserves",
                                                        "value": 2504
                                                    },
                                                    {
                                                        "children": [],
                                                        "depth": 3,
                                                        "name": "price0CumulativeLast",
                                                        "value": 2387
                                                    },
                                                    {
                                                        "children": [],
                                                        "depth": 3,
                                                        "name": "price1CumulativeLast",
                                                        "value": 2409
                                                    },
                                                    {
                                                        "children": [],
                                                        "depth": 3,
                                                        "name": "getReserves",
                                                        "value": 2504
                                                    }
                                                ],
                                                "depth": 2,
                                                "name": "validate",
                                                "value": 74249
                                            }
                                        ],
                                        "depth": 1,
                                        "name": "validate",
                                        "value": 82596
                                    }
                                ],
                                "depth": 0,
                                "name": "Executed Gas",
                                "value": 232374
                            }
                        ],
                        "depth": -1,
                        "name": "Actual Gas Used",
                        "value": 264370
                    },
                    {
                        "children": [],
                        "depth": -1,
                        "name": "Refunded Gas",
                        "value": 0
                    }
                ],
                "depth": -2,
                "name": "Total Gas",
                "value": 264370
            }
        ],
        "isConfirmed": true,
        "mainTrace": [
            {
                "children": [
                    {
                        "children": [
                            {
                                "children": [],
                                "depth": 1,
                                "id": 1,
                                "order": 1
                            },
                            {
                                "children": [],
                                "depth": 1,
                                "id": 2,
                                "order": 2
                            },
                            {
                                "children": [],
                                "depth": 1,
                                "id": 3,
                                "order": 3
                            },
                            {
                                "children": [],
                                "depth": 1,
                                "id": 4,
                                "order": 4
                            },
                            {
                                "children": [],
                                "depth": 1,
                                "id": 5,
                                "order": 5
                            },
                            {
                                "children": [],
                                "depth": 1,
                                "id": 6,
                                "order": 6
                            },
                            {
                                "children": [],
                                "depth": 1,
                                "id": 7,
                                "order": 7
                            },
                            {
                                "children": [],
                                "depth": 1,
                                "id": 8,
                                "order": 8
                            },
                            {
                                "children": [],
                                "depth": 1,
                                "id": 9,
                                "order": 9
                            },
                            {
                                "children": [
                                    {
                                        "children": [
                                            {
                                                "children": [],
                                                "depth": 3,
                                                "id": 12,
                                                "order": 12
                                            },
                                            {
                                                "children": [],
                                                "depth": 3,
                                                "id": 13,
                                                "order": 13
                                            },
                                            {
                                                "children": [],
                                                "depth": 3,
                                                "id": 14,
                                                "order": 14
                                            },
                                            {
                                                "children": [],
                                                "depth": 3,
                                                "id": 15,
                                                "order": 15
                                            },
                                            {
                                                "children": [],
                                                "depth": 3,
                                                "id": 16,
                                                "order": 16
                                            },
                                            {
                                                "children": [],
                                                "depth": 3,
                                                "id": 17,
                                                "order": 17
                                            },
                                            {
                                                "children": [],
                                                "depth": 3,
                                                "id": 18,
                                                "order": 18
                                            },
                                            {
                                                "children": [],
                                                "depth": 3,
                                                "id": 19,
                                                "order": 19
                                            },
                                            {
                                                "children": [],
                                                "depth": 3,
                                                "id": 20,
                                                "order": 20
                                            },
                                            {
                                                "children": [],
                                                "depth": 3,
                                                "id": 21,
                                                "order": 21
                                            }
                                        ],
                                        "depth": 2,
                                        "id": 11,
                                        "order": 11
                                    }
                                ],
                                "depth": 1,
                                "id": 10,
                                "order": 10
                            }
                        ],
                        "depth": 0,
                        "id": 0,
                        "order": 0
                    }
                ],
                "depth": -1,
                "id": -1,
                "order": -1
            }
        ],
        "mainTraceNodeCount": 22,
        "parentIdMap": {
            "0": -1,
            "1": 0,
            "10": 0,
            "11": 10,
            "12": 11,
            "13": 11,
            "14": 11,
            "15": 11,
            "16": 11,
            "17": 11,
            "18": 11,
            "19": 11,
            "2": 0,
            "20": 11,
            "21": 11,
            "3": 0,
            "4": 0,
            "5": 0,
            "6": 0,
            "7": 0,
            "8": 0,
            "9": 0
        },
        "tidyTrace": [
            {
                "children": [
                    {
                        "children": [
                            {
                                "children": [],
                                "depth": 1,
                                "id": 7,
                                "order": 7
                            },
                            {
                                "children": [],
                                "depth": 1,
                                "id": 8,
                                "order": 8
                            },
                            {
                                "children": [],
                                "depth": 1,
                                "id": 9,
                                "order": 9
                            },
                            {
                                "children": [
                                    {
                                        "children": [
                                            {
                                                "children": [],
                                                "depth": 3,
                                                "id": 15,
                                                "order": 15
                                            },
                                            {
                                                "children": [],
                                                "depth": 3,
                                                "id": 19,
                                                "order": 19
                                            },
                                            {
                                                "children": [],
                                                "depth": 3,
                                                "id": 20,
                                                "order": 20
                                            },
                                            {
                                                "children": [],
                                                "depth": 3,
                                                "id": 21,
                                                "order": 21
                                            }
                                        ],
                                        "depth": 2,
                                        "id": 11,
                                        "order": 11
                                    }
                                ],
                                "depth": 1,
                                "id": 10,
                                "order": 10
                            }
                        ],
                        "depth": 0,
                        "id": 0,
                        "order": 0
                    }
                ],
                "depth": -1,
                "id": -1,
                "order": -1
            }
        ],
        "tidyTraceNodeCount": 10
    },
    "state_change": {
        "stateChanges": [
            {
                "address": "0x68577f915131087199fe48913d8b416b3984fd38",
                "erc": "",
                "slots": [
                    {
                        "current": "0x000000006171e98a00000000000000000000000000000000000000009d0ee8c0",
                        "key": "0x89f60b579b9229b48da10a8608389f92319134c74b4484ded57fb8b3898155bb",
                        "prev": "0x0000000000000000000000000000000000000000000000000000000000000000"
                    },
                    {
                        "current": "0x000000000000000019080500012c76029d436fac08b79151281708f3863c6ab9",
                        "key": "0x000000000000000000000000000000000000000000000000000000000000002a",
                        "prev": "0x000000000000000019070500012c61059d436fac08b79151281708f3863c6ab9"
                    },
                    {
                        "current": "0x0011001100110011001100110011001100100011001100110011001100110011",
                        "key": "0x0000000000000000000000000000000000000000000000000000000000000004",
                        "prev": "0x00100010001000100010001000100010000f0010001000100010001000100010"
                    },
                    {
                        "current": "0x0000000000000000000000000000000000000000000000009cdbcf8591cb2001",
                        "key": "0x000000000000000000000000000000000000000000000000000000000000000e",
                        "prev": "0x0000000000000000000000000000000000000000000000005e8772ce7c92f601"
                    }
                ],
                "storageVariables": [
                    {
                        "name": "s_hotVars",
                        "type": "struct OffchainAggregator.HotVars",
                        "value": {
                            "fields": [
                                {
                                    "name": "latestConfigDigest",
                                    "type": "bytes16",
                                    "value": {
                                        "current": "0x9d436fac08b79151281708f3863c6ab9",
                                        "prev": "0x9d436fac08b79151281708f3863c6ab9",
                                        "typeTag": 1
                                    }
                                },
                                {
                                    "name": "latestEpochAndRound",
                                    "type": "uint40",
                                    "value": {
                                        "current": "19691010",
                                        "prev": "19685637",
                                        "typeTag": 1
                                    }
                                },
                                {
                                    "name": "threshold",
                                    "type": "uint8",
                                    "value": {
                                        "current": "5",
                                        "prev": "5",
                                        "typeTag": 1
                                    }
                                },
                                {
                                    "name": "latestAggregatorRoundId",
                                    "type": "uint32",
                                    "value": {
                                        "current": "6408",
                                        "prev": "6407",
                                        "typeTag": 1
                                    }
                                }
                            ],
                            "typeTag": 3
                        }
                    },
                    {
                        "name": "s_oracleObservationsCounts",
                        "type": "uint16[31]",
                        "value": {
                            "elemType": "uint16",
                            "elems": [
                                {
                                    "index": 0,
                                    "value": {
                                        "current": "17",
                                        "prev": "16",
                                        "typeTag": 1
                                    }
                                },
                                {
                                    "index": 1,
                                    "value": {
                                        "current": "17",
                                        "prev": "16",
                                        "typeTag": 1
                                    }
                                },
                                {
                                    "index": 2,
                                    "value": {
                                        "current": "17",
                                        "prev": "16",
                                        "typeTag": 1
                                    }
                                },
                                {
                                    "index": 3,
                                    "value": {
                                        "current": "17",
                                        "prev": "16",
                                        "typeTag": 1
                                    }
                                },
                                {
                                    "index": 4,
                                    "value": {
                                        "current": "17",
                                        "prev": "16",
                                        "typeTag": 1
                                    }
                                },
                                {
                                    "index": 5,
                                    "value": {
                                        "current": "17",
                                        "prev": "16",
                                        "typeTag": 1
                                    }
                                },
                                {
                                    "index": 6,
                                    "value": {
                                        "current": "17",
                                        "prev": "16",
                                        "typeTag": 1
                                    }
                                },
                                {
                                    "index": 7,
                                    "value": {
                                        "current": "16",
                                        "prev": "15",
                                        "typeTag": 1
                                    }
                                },
                                {
                                    "index": 8,
                                    "value": {
                                        "current": "17",
                                        "prev": "16",
                                        "typeTag": 1
                                    }
                                },
                                {
                                    "index": 9,
                                    "value": {
                                        "current": "17",
                                        "prev": "16",
                                        "typeTag": 1
                                    }
                                },
                                {
                                    "index": 10,
                                    "value": {
                                        "current": "17",
                                        "prev": "16",
                                        "typeTag": 1
                                    }
                                },
                                {
                                    "index": 11,
                                    "value": {
                                        "current": "17",
                                        "prev": "16",
                                        "typeTag": 1
                                    }
                                },
                                {
                                    "index": 12,
                                    "value": {
                                        "current": "17",
                                        "prev": "16",
                                        "typeTag": 1
                                    }
                                },
                                {
                                    "index": 13,
                                    "value": {
                                        "current": "17",
                                        "prev": "16",
                                        "typeTag": 1
                                    }
                                },
                                {
                                    "index": 14,
                                    "value": {
                                        "current": "17",
                                        "prev": "16",
                                        "typeTag": 1
                                    }
                                }
                            ],
                            "typeTag": 2
                        }
                    },
                    {
                        "name": "s_transmissions",
                        "type": "mapping(uint32 => struct OffchainAggregator.Transmission)",
                        "value": {
                            "pairs": [
                                {
                                    "key": "6408",
                                    "value": {
                                        "fields": [
                                            {
                                                "name": "answer",
                                                "type": "int192",
                                                "value": {
                                                    "current": "2635000000",
                                                    "prev": "0",
                                                    "typeTag": 1
                                                }
                                            },
                                            {
                                                "name": "timestamp",
                                                "type": "uint64",
                                                "value": {
                                                    "current": "1634855306",
                                                    "prev": "0",
                                                    "typeTag": 1
                                                }
                                            }
                                        ],
                                        "typeTag": 3
                                    }
                                }
                            ],
                            "typeTag": 4
                        }
                    }
                ]
            },
            {
                "address": "0x6d2299c48a8dd07a872fdd0f8233924872ad1071",
                "erc": "",
                "slots": [
                    {
                        "current": "0x000000000000000000000000000000000000000000000000000000006171e98a",
                        "key": "0x8daa8c18f1424b9269c0785e056f4aece4790237772442d969ef6c556f457283",
                        "prev": "0x000000000000000000000000000000000000000000000000000000006171daec"
                    },
                    {
                        "current": "0x0000000000000000000000000000000526c8dfd74ed6d8bb3209987eb69f15ac",
                        "key": "0x8daa8c18f1424b9269c0785e056f4aece4790237772442d969ef6c556f457284",
                        "prev": "0x0000000000000000000000000000000526b0e27406943fbe76a9e53c2a9c8763"
                    },
                    {
                        "current": "0x00000000000000000000000000000000000000000000000000000000019211b0",
                        "key": "0xfc71e3328a68adc51a96702035b706f34b88300a62a0ddd0c1c7541558ea8e64",
                        "prev": "0x000000000000000000000000000000000000000000000000000000000192733a"
                    },
                    {
                        "current": "0x000000000000000000000000000000000000000000000000000000006171daec",
                        "key": "0xc6428015480bf6832872d99bc513113cabde908ead51ca7cb36d54c690d506b2",
                        "prev": "0x000000000000000000000000000000000000000000000000000000006171cc84"
                    },
                    {
                        "current": "0x0000000000000000000000000000000526b0e27406943fbe76a9e53c2a9c8763",
                        "key": "0xc6428015480bf6832872d99bc513113cabde908ead51ca7cb36d54c690d506b3",
                        "prev": "0x0000000000000000000000000000000526993b7f190759ad19c35264b0c94e0e"
                    }
                ],
                "storageVariables": [
                    {
                        "name": "oldObservations",
                        "type": "mapping(bytes32 => struct Observation)",
                        "value": {
                            "pairs": [
                                {
                                    "key": "0xfba01d52a7cd84480d0573725899486a0b5e55c20ff45d6628874349375d1650",
                                    "value": {
                                        "fields": [
                                            {
                                                "name": "timestamp",
                                                "type": "uint256",
                                                "value": {
                                                    "current": "1634851564",
                                                    "prev": "1634847876",
                                                    "typeTag": 1
                                                }
                                            },
                                            {
                                                "name": "acc",
                                                "type": "uint256",
                                                "value": {
                                                    "current": "1752840935708694659184769493470109534051",
                                                    "prev": "1752718126595764215084539805992114277902",
                                                    "typeTag": 1
                                                }
                                            }
                                        ],
                                        "typeTag": 3
                                    }
                                }
                            ],
                            "typeTag": 4
                        }
                    },
                    {
                        "name": "newObservations",
                        "type": "mapping(bytes32 => struct Observation)",
                        "value": {
                            "pairs": [
                                {
                                    "key": "0xfba01d52a7cd84480d0573725899486a0b5e55c20ff45d6628874349375d1650",
                                    "value": {
                                        "fields": [
                                            {
                                                "name": "timestamp",
                                                "type": "uint256",
                                                "value": {
                                                    "current": "1634855306",
                                                    "prev": "1634851564",
                                                    "typeTag": 1
                                                }
                                            },
                                            {
                                                "name": "acc",
                                                "type": "uint256",
                                                "value": {
                                                    "current": "1752965497852022205278030395841980601772",
                                                    "prev": "1752840935708694659184769493470109534051",
                                                    "typeTag": 1
                                                }
                                            }
                                        ],
                                        "typeTag": 3
                                    }
                                }
                            ],
                            "typeTag": 4
                        }
                    },
                    {
                        "name": "prices",
                        "type": "mapping(bytes32 => struct PriceData)",
                        "value": {
                            "pairs": [
                                {
                                    "key": "0xfba01d52a7cd84480d0573725899486a0b5e55c20ff45d6628874349375d1650",
                                    "value": {
                                        "fields": [
                                            {
                                                "name": "price",
                                                "type": "uint248",
                                                "value": {
                                                    "current": "26350000",
                                                    "prev": "26374970",
                                                    "typeTag": 1
                                                }
                                            },
                                            {
                                                "name": "failoverActive",
                                                "type": "bool",
                                                "value": {
                                                    "current": "false",
                                                    "prev": "false",
                                                    "typeTag": 1
                                                }
                                            }
                                        ],
                                        "typeTag": 3
                                    }
                                }
                            ],
                            "typeTag": 4
                        }
                    }
                ]
            }
        ]
    }
}