{
    "balance_change": {
        "balanceChanges": [
            {
                "account": "0x95a9bd206ae52c4ba8eecfc93d18eacdd41c88cc",
                "assets": [
                    {
                        "address": "0x95ad61b0a150d79219dcf64e1e6cc01f0b64c4ce",
                        "amount": "185,495.9348222",
                        "iconUrl": "https://assets.blocksec.com/icon/56235cdcac277d59ed89deae8cb8e206f4c4384e75186903e74565b748deabf5.png",
                        "isERC1155": false,
                        "isERC721": false,
                        "sign": false,
                        "value": "36.89170775"
                    }
                ]
            },
            {
                "account": "0x07b2aeef063161532c11abe13f1ce0b37541fb98",
                "assets": [
                    {
                        "address": "0x95ad61b0a150d79219dcf64e1e6cc01f0b64c4ce",
                        "amount": "185,495.9348222",
                        "iconUrl": "https://assets.blocksec.com/icon/56235cdcac277d59ed89deae8cb8e206f4c4384e75186903e74565b748deabf5.png",
                        "isERC1155": false,
                        "isERC721": false,
                        "sign": true,
                        "value": "36.89170775"
                    }
                ]
            }
        ]
    },
    "profile": {
        "basic_info": {
            "baseFee": "149.333717057",
            "blockNumber": 13678449,
            "callData": "0xa9059cbb00000000000000000000000007b2aeef063161532c11abe13f1ce0b37541fb98000000000000000000000000000000000000000000002747c139013513223000",
            "debugEnable": true,
            "errorInfo": "",
            "eventCount": 1,
            "feeRecipient": "0x829bd824b016326a401d083b33d092293333a830",
            "formatValue": "0",
            "gasLimit": 250000,
            "gasPrice": "151.333717057",
            "gasUsed": 34795,
            "intTxnCount": 0,
            "internalRevert": false,
            "internalRevertMessage": "",
            "isContractCreation": false,
            "isFlashloan": false,
            "maxFee": "285",
            "nonce": 561913,
            "overwritedBlockNumber": -1,
            "priorityFee": "2",
            "receiver": "0x95ad61b0a150d79219dcf64e1e6cc01f0b64c4ce",
            "revertMessage": "",
            "sender": "0x95a9bd206ae52c4ba8eecfc93d18eacdd41c88cc",
            "simulationEnable": true,
            "sourceTxnHash": "0x6705ba32c7bec852f4b09ac46f4ad971febecea30b82408c59ec82844241a675",
            "status": true,
            "timestamp": "2021-11-24T17:16:22Z",
            "transactionFee": "0.005265656684998315",
            "txnHash": "0x6705ba32c7bec852f4b09ac46f4ad971febecea30b82408c59ec82844241a675",
            "txnIndex": 146,
            "type": 2,
            "value": "0"
        },
        "fund_flow": [
            {
                "amount": "185,495.9348222",
                "from": "0x95a9bd206ae52c4ba8eecfc93d18eacdd41c88cc",
                "id": 1,
                "isERC1155": false,
                "isERC721": false,
                "isReverted": false,
                "order": 1,
                "to": "0x07b2aeef063161532c11abe13f1ce0b37541fb98",
                "token": "0x95ad61b0a150d79219dcf64e1e6cc01f0b64c4ce"
            }
        ],
        "token_infos": [
            {
                "address": "0x95ad61b0a150d79219dcf64e1e6cc01f0b64c4ce",
                "decimals": 18
            },
            {
                "address": "0xc02aaa39b223fe8d0a0e5c4f27ead9083c756cc2",
                "decimals": 18
            },
            {
                "address": "0xeeeeeeeeeeeeeeeeeeeeeeeeeeeeeeeeeeeeeeee",
                "decimals": 18
            }
        ]
    },
    "address_label": {
        "labels": [
            {
                "address": "0x0000000000000000000000000000000000000003",
                "label": "Precompiled"
            },
            {
                "address": "0x0000000000000000000000000000000000000004",
                "label": "Precompiled"
            },
            {
                "address": "0xeeeeeeeeeeeeeeeeeeeeeeeeeeeeeeeeeeeeeeee",
                "label": "Ether"
            },
            {
                "address": "0x95ad61b0a150d79219dcf64e1e6cc01f0b64c4ce",
                "label": "Shiba Inu: SHIB Token"
            },
            {
                "address": "0x07b2aeef063161532c11abe13f1ce0b37541fb98",
                "label": "BINANCE"
            },
            {
                "address": "0x95a9bd206ae52c4ba8eecfc93d18eacdd41c88cc",
                "label": "Coinbase 13"
            },
            {
                "address": "0x0000000000000000000000000000000000000001",
                "label": "Precompiled"
            },
            {
                "address": "0x0000000000000000000000000000000000000002",
                "label": "Precompiled"
            }
        ]
    },
    "trace": {
        "accountLabels": null,
        "dataMap": {
            "-1": {
                "invocation": {
                    "address": "0x95a9bd206ae52c4ba8eecfc93d18eacdd41c88cc",
                    "callData": "",
                    "decodedMethod": null,
                    "errorInfo": "",
                    "fromAddress": "",
                    "gasUsed": 0,
                    "id": -1,
                    "methodDecoded": false,
                    "operation": "",
                    "output": "",
                    "revert": false,
                    "revertMessage": "",
                    "selector": "",
                    "status": false,
                    "value": ""
                },
                "nodeType": 0
            },
            "0": {
                "invocation": {
                    "address": "0x95ad61b0a150d79219dcf64e1e6cc01f0b64c4ce",
                    "callData": "0x00000000000000000000000007b2aeef063161532c11abe13f1ce0b37541fb98000000000000000000000000000000000000000000002747c139013513223000",
                    "decodedMethod": {
                        "callParams": [
                            {
                                "name": "recipient",
                                "type": "address",
                                "value": "0x07b2aeef063161532c11abe13f1ce0b37541fb98"
                            },
                            {
                                "decimalAvailable": true,
                                "name": "amount",
                                "type": "uint256",
                                "value": "185,495,934,822,200,000,000,000"
                            }
                        ],
                        "constructorArguments": "",
                        "name": "transfer",
                        "returnParams": [
                            {
                                "name": "",
                                "type": "bool",
                                "value": true
                            }
                        ],
                        "signature": "transfer(address,uint256)"
                    },
                    "errorInfo": "",
                    "fromAddress": "0x95a9bd206ae52c4ba8eecfc93d18eacdd41c88cc",
                    "gasUsed": 34795,
                    "id": 0,
                    "methodDecoded": true,
                    "operation": "CALL",
                    "output": "0x0000000000000000000000000000000000000000000000000000000000000001",
                    "revert": false,
                    "revertMessage": "",
                    "selector": "0xa9059cbb",
                    "status": true,
                    "value": "0"
                },
                "nodeType": 0
            },
            "1": {
                "event": {
                    "contract": "0x95ad61b0a150d79219dcf64e1e6cc01f0b64c4ce",
                    "decodedLog": {
                        "name": "Transfer",
                        "params": [
                            {
                                "name": "from",
                                "type": "address",
                                "value": "0x95a9bd206ae52c4ba8eecfc93d18eacdd41c88cc"
                            },
                            {
                                "name": "to",
                                "type": "address",
                                "value": "0x07b2aeef063161532c11abe13f1ce0b37541fb98"
                            },
                            {
                                "decimalAvailable": true,
                                "name": "value",
                                "type": "uint256",
                                "value": "185,495,934,822,200,000,000,000"
                            }
                        ],
                        "signature": "Transfer(address,address,uint256)"
                    },
                    "id": 1,
                    "logData": "0x000000000000000000000000000000000000000000002747c139013513223000",
                    "logDecoded": true,
                    "operation": "EVENT",
                    "revert": false,
                    "status": true,
                    "topics": [
                        "0xddf252ad1be2c89b69c2b068fc378daa952ba7f163c4a11628f55a4df523b3ef",
                        "0x00000000000000000000000095a9bd206ae52c4ba8eecfc93d18eacdd41c88cc",
                        "0x00000000000000000000000007b2aeef063161532c11abe13f1ce0b37541fb98"
                    ]
                },
                "nodeType": 1
            }
        },
        "gasFlame": [
            {
                "children": [
                    {
                        "children": [
                            {
                                "children": [],
                                "depth": 0,
                                "name": "Initial Gas",
                                "value": 21668
                            },
                            {
                                "children": [],
                                "depth": 0,
                                "name": "Executed Gas",
                                "value": 13127
                            }
                        ],
                        "depth": -1,
                        "name": "Actual Gas Used",
                        "value": 34795
                    },
                    {
                        "children": [],
                        "depth": -1,
                        "name": "Refunded Gas",
                        "value": 0
                    }
                ],
                "depth": -2,
                "name": "Total Gas",
                "value": 34795
            }
        ],
        "isConfirmed": true,
        "mainTrace": [
            {
                "children": [
                    {
                        "children": [
                            {
                                "children": [],
                                "depth": 1,
                                "id": 1,
                                "order": 1
                            }
                        ],
                        "depth": 0,
                        "id": 0,
                        "order": 0
                    }
                ],
                "depth": -1,
                "id": -1,
                "order": -1
            }
        ],
        "mainTraceNodeCount": 2,
        "parentIdMap": {
            "0": -1,
            "1": 0
        },
        "tidyTrace": [
            {
                "children": [
                    {
                        "children": [
                            {
                                "children": [],
                                "depth": 1,
                                "id": 1,
                                "order": 1
                            }
                        ],
                        "depth": 0,
                        "id": 0,
                        "order": 0
                    }
                ],
                "depth": -1,
                "id": -1,
                "order": -1
            }
        ],
        "tidyTraceNodeCount": 2
    },
    "state_change": {
        "stateChanges": [
            {
                "address": "0x95ad61b0a150d79219dcf64e1e6cc01f0b64c4ce",
                "erc": "ERC-20",
                "slots": [
                    {
                        "current": "0x000000000000000000000000000000000000000003b78427904a82779df8d2e6",
                        "key": "0x5d7884dd8ffa2d3dcdbcd8b260f24860b9e90621a85d23ecbf1177303595e841",
                        "prev": "0x000000000000000000000000000000000000000003b7ab6f518383acb11b02e6"
                    },
                    {
                        "current": "0x000000000000000000000000000000000000000000020229089c29d694ec5c00",
                        "key": "0xcc96c59d3b1302d7b4db0f05da0738bc58c4aeca4cc7a2338c308a5a8dbfa4f2",
                        "prev": "0x00000000000000000000000000000000000000000001dae1476328a181ca2c00"
                    }
                ],
                "storageVariables": [
                    {
                        "name": "_balances",
                        "type": "mapping(address => uint256)",
                        "value": {
                            "pairs": [
                                {
                                    "key": "0x07b2aeef063161532c11abe13f1ce0b37541fb98",
                                    "value": {
                                        "current": "2428053309118870000000000",
                                        "prev": "2242557374296670000000000",
                                        "typeTag": 1
                                    }
                                },
                                {
                                    "key": "0x95a9bd206ae52c4ba8eecfc93d18eacdd41c88cc",
                                    "value": {
                                        "current": "1150312536649536152987554534",
                                        "prev": "1150498032584358352987554534",
                                        "typeTag": 1
                                    }
                                }
                            ],
                            "typeTag": 4
                        }
                    }
                ]
            }
        ]
    }
}