{
    "balance_change": {
        "balanceChanges": [
            {
                "account": "0x208b82b04449cd51803fae4b1561450ba13d9510",
                "assets": [
                    {
                        "address": "0xa0b86991c6218b36c1d19d4a2e9eb0ce3606eb48",
                        "amount": "257,251.962331",
                        "iconUrl": "https://assets.blocksec.com/icon/0347a86cc07dbd03fdc5db01a4e5ac7e1217f90e0b6e4bb0f75cbcca09160989.png",
                        "isERC1155": false,
                        "isERC721": false,
                        "sign": false,
                        "value": ""
                    }
                ]
            },
            {
                "account": "0x3dfd23a6c5e8bbcfc9581d2e864a68feb6a076d3",
                "assets": [
                    {
                        "address": "0xa0b86991c6218b36c1d19d4a2e9eb0ce3606eb48",
                        "amount": "257,251.962331",
                        "iconUrl": "https://assets.blocksec.com/icon/0347a86cc07dbd03fdc5db01a4e5ac7e1217f90e0b6e4bb0f75cbcca09160989.png",
                        "isERC1155": false,
                        "isERC721": false,
                        "sign": true,
                        "value": ""
                    }
                ]
            }
        ]
    },
    "profile": {
        "basic_info": {
            "baseFee": "",
            "blockNumber": 11689936,
            "callData": "0x5ceae9c4000000000000000000000000a0b86991c6218b36c1d19d4a2e9eb0ce3606eb480000000000000000000000000000000000000000000000000000003be5696ddb000000000000000000000000208b82b04449cd51803fae4b1561450ba13d9510",
            "debugEnable": true,
            "errorInfo": "",
            "eventCount": 3,
            "feeRecipient": "0xea674fdde714fd979de3edf0f56aa9716b898ec8",
            "formatValue": "0",
            "gasLimit": 262022,
            "gasPrice": "60.000000673",
            "gasUsed": 221724,
            "intTxnCount": 18,
            "internalRevert": false,
            "internalRevertMessage": "",
            "isContractCreation": false,
            "isFlashloan": false,
            "maxFee": "",
            "nonce": 5487,
            "overwritedBlockNumber": -1,
            "priorityFee": "",
            "receiver": "0x398ec7346dcd622edc5ae82352f02be94c62d119",
            "revertMessage": "",
            "sender": "0x208b82b04449cd51803fae4b1561450ba13d9510",
            "simulationEnable": true,
            "sourceTxnHash": "0x671b58aa4507206384bd55b01c59b8780e41f4bf9fbb4410ae3a4db16c5cdfe8",
            "status": true,
            "timestamp": "2021-01-20T03:53:23Z",
            "transactionFee": "0.013303440149220252",
            "txnHash": "0x671b58aa4507206384bd55b01c59b8780e41f4bf9fbb4410ae3a4db16c5cdfe8",
            "txnIndex": 128,
            "type": 0,
            "value": "0"
        },
        "fund_flow": [
            {
                "amount": "257,251.962331",
                "from": "0x208b82b04449cd51803fae4b1561450ba13d9510",
                "id": 1,
                "isERC1155": false,
                "isERC721": false,
                "isReverted": false,
                "order": 1,
                "to": "0x3dfd23a6c5e8bbcfc9581d2e864a68feb6a076d3",
                "token": "0xa0b86991c6218b36c1d19d4a2e9eb0ce3606eb48"
            }
        ],
        "token_infos": [
            {
                "address": "0xc02aaa39b223fe8d0a0e5c4f27ead9083c756cc2",
                "decimals": 18
            },
            {
                "address": "0xeeeeeeeeeeeeeeeeeeeeeeeeeeeeeeeeeeeeeeee",
                "decimals": 18
            },
            {
                "address": "0xa0b86991c6218b36c1d19d4a2e9eb0ce3606eb48",
                "decimals": 6
            }
        ]
    },
    "address_label": {
        "labels": [
            {
                "address": "0x5766067108e534419ce13f05899bc3e3f4344948",
                "label": "LendingPoolCore"
            },
            {
                "address": "0x3dfd23a6c5e8bbcfc9581d2e864a68feb6a076d3",
                "label": "Aave: Lending Pool Core V1"
            },
            {
                "address": "0x24a42fd28c976a61df5d00d0599c34c4f90748c8",
                "label": "Aave: Lending Pool Provider V1"
            },
            {
                "address": "0xb7277a6e95992041568d9391d09d0122023778a2",
                "label": "FiatTokenV2"
            },
            {
                "address": "0x0000000000000000000000000000000000000001",
                "label": "Precompiled"
            },
            {
                "address": "0xeeeeeeeeeeeeeeeeeeeeeeeeeeeeeeeeeeeeeeee",
                "label": "Ether"
            },
            {
                "address": "0x398ec7346dcd622edc5ae82352f02be94c62d119",
                "label": "Aave: Lending Pool V1"
            },
            {
                "address": "0x247227714bd121c528310e3bbff401ae34c9f9f6",
                "label": "OptimizedReserveInterestRateStrategy"
            },
            {
                "address": "0xa0b86991c6218b36c1d19d4a2e9eb0ce3606eb48",
                "label": "Circle: USDC Token"
            },
            {
                "address": "0x0000000000000000000000000000000000000002",
                "label": "Precompiled"
            },
            {
                "address": "0x0000000000000000000000000000000000000004",
                "label": "Precompiled"
            },
            {
                "address": "0x4d728a4496e4de35f218d5a214366bde3a62b51c",
                "label": "LendingRateOracle"
            },
            {
                "address": "0x017788dded30fdd859d295b90d4e41a19393f423",
                "label": "LendingPool"
            },
            {
                "address": "0x0000000000000000000000000000000000000003",
                "label": "Precompiled"
            }
        ]
    },
    "trace": {
        "accountLabels": null,
        "dataMap": {
            "-1": {
                "invocation": {
                    "address": "0x208b82b04449cd51803fae4b1561450ba13d9510",
                    "callData": "",
                    "decodedMethod": null,
                    "errorInfo": "",
                    "fromAddress": "",
                    "gasUsed": 0,
                    "id": -1,
                    "methodDecoded": false,
                    "operation": "",
                    "output": "",
                    "revert": false,
                    "revertMessage": "",
                    "selector": "",
                    "status": false,
                    "value": ""
                },
                "nodeType": 0
            },
            "0": {
                "invocation": {
                    "address": "0x398ec7346dcd622edc5ae82352f02be94c62d119",
                    "callData": "0x000000000000000000000000a0b86991c6218b36c1d19d4a2e9eb0ce3606eb480000000000000000000000000000000000000000000000000000003be5696ddb000000000000000000000000208b82b04449cd51803fae4b1561450ba13d9510",
                    "decodedMethod": {
                        "callParams": [
                            {
                                "name": "_reserve",
                                "type": "address",
                                "value": "0xa0b86991c6218b36c1d19d4a2e9eb0ce3606eb48"
                            },
                            {
                                "name": "_amount",
                                "type": "uint256",
                                "value": "257,251,962,331"
                            },
                            {
                                "name": "_onBehalfOf",
                                "type": "address",
                                "value": "0x208b82b04449cd51803fae4b1561450ba13d9510"
                            }
                        ],
                        "constructorArguments": "",
                        "name": "repay",
                        "returnParams": [],
                        "signature": "repay(address,uint256,address)"
                    },
                    "errorInfo": "",
                    "fromAddress": "0x208b82b04449cd51803fae4b1561450ba13d9510",
                    "gasUsed": 221724,
                    "id": 0,
                    "methodDecoded": true,
                    "operation": "CALL",
                    "output": "",
                    "revert": false,
                    "revertMessage": "",
                    "selector": "0x5ceae9c4",
                    "status": true,
                    "value": "0"
                },
                "nodeType": 0
            },
            "1": {
                "invocation": {
                    "address": "0x017788dded30fdd859d295b90d4e41a19393f423",
                    "callData": "0x000000000000000000000000a0b86991c6218b36c1d19d4a2e9eb0ce3606eb480000000000000000000000000000000000000000000000000000003be5696ddb000000000000000000000000208b82b04449cd51803fae4b1561450ba13d9510",
                    "decodedMethod": {
                        "callParams": [
                            {
                                "name": "_reserve",
                                "type": "address",
                                "value": "0xa0b86991c6218b36c1d19d4a2e9eb0ce3606eb48"
                            },
                            {
                                "name": "_amount",
                                "type": "uint256",
                                "value": "257,251,962,331"
                            },
                            {
                                "name": "_onBehalfOf",
                                "type": "address",
                                "value": "0x208b82b04449cd51803fae4b1561450ba13d9510"
                            }
                        ],
                        "constructorArguments": "",
                        "name": "repay",
                        "returnParams": [],
                        "signature": "repay(address,uint256,address)"
                    },
                    "errorInfo": "",
                    "fromAddress": "0x398ec7346dcd622edc5ae82352f02be94c62d119",
                    "gasUsed": 212019,
                    "id": 1,
                    "methodDecoded": true,
                    "operation": "DELEGATECALL",
                    "output": "",
                    "revert": false,
                    "revertMessage": "",
                    "selector": "0x5ceae9c4",
                    "status": true,
                    "value": "0"
                },
                "nodeType": 0
            },
            "10": {
                "invocation": {
                    "address": "0xa0b86991c6218b36c1d19d4a2e9eb0ce3606eb48",
                    "callData": "0x0000000000000000000000003dfd23a6c5e8bbcfc9581d2e864a68feb6a076d3",
                    "decodedMethod": {
                        "callParams": [
                            {
                                "name": "account",
                                "type": "address",
                                "value": "0x3dfd23a6c5e8bbcfc9581d2e864a68feb6a076d3"
                            }
                        ],
                        "constructorArguments": "",
                        "name": "balanceOf",
                        "returnParams": [
                            {
                                "decimalAvailable": true,
                                "name": "",
                                "type": "uint256",
                                "value": "9,859,037,643,505"
                            }
                        ],
                        "signature": "balanceOf(address)"
                    },
                    "errorInfo": "",
                    "fromAddress": "0x3dfd23a6c5e8bbcfc9581d2e864a68feb6a076d3",
                    "gasUsed": 3993,
                    "id": 10,
                    "methodDecoded": true,
                    "operation": "STATICCALL",
                    "output": "0x000000000000000000000000000000000000000000000000000008f77c6fc2f1",
                    "revert": false,
                    "revertMessage": "",
                    "selector": "0x70a08231",
                    "status": true,
                    "value": "0"
                },
                "nodeType": 0
            },
            "11": {
                "invocation": {
                    "address": "0xb7277a6e95992041568d9391d09d0122023778a2",
                    "callData": "0x0000000000000000000000003dfd23a6c5e8bbcfc9581d2e864a68feb6a076d3",
                    "decodedMethod": {
                        "callParams": [
                            {
                                "name": "account",
                                "type": "address",
                                "value": "0x3dfd23a6c5e8bbcfc9581d2e864a68feb6a076d3"
                            }
                        ],
                        "constructorArguments": "",
                        "name": "balanceOf",
                        "returnParams": [
                            {
                                "decimalAvailable": true,
                                "name": "",
                                "type": "uint256",
                                "value": "9,859,037,643,505"
                            }
                        ],
                        "signature": "balanceOf(address)"
                    },
                    "errorInfo": "",
                    "fromAddress": "0xa0b86991c6218b36c1d19d4a2e9eb0ce3606eb48",
                    "gasUsed": 1207,
                    "id": 11,
                    "methodDecoded": true,
                    "operation": "DELEGATECALL",
                    "output": "0x000000000000000000000000000000000000000000000000000008f77c6fc2f1",
                    "revert": false,
                    "revertMessage": "",
                    "selector": "0x70a08231",
                    "status": true,
                    "value": "0"
                },
                "nodeType": 0
            },
            "12": {
                "invocation": {
                    "address": "0x247227714bd121c528310e3bbff401ae34c9f9f6",
                    "callData": "0x000000000000000000000000a0b86991c6218b36c1d19d4a2e9eb0ce3606eb480000000000000000000000000000000000000000000000000000093361d930cc000000000000000000000000000000000000000000000000000030071e869c56000000000000000000000000000000000000000000000000000035971c5b7e5100000000000000000000000000000000000000000048d9e51243e2e6e261b6e4",
                    "decodedMethod": {
                        "callParams": [
                            {
                                "name": "_reserve",
                                "type": "address",
                                "value": "0xa0b86991c6218b36c1d19d4a2e9eb0ce3606eb48"
                            },
                            {
                                "name": "_availableLiquidity",
                                "type": "uint256",
                                "value": "10,116,289,605,836"
                            },
                            {
                                "name": "_totalBorrowsStable",
                                "type": "uint256",
                                "value": "52,807,135,042,646"
                            },
                            {
                                "name": "_totalBorrowsVariable",
                                "type": "uint256",
                                "value": "58,923,132,091,985"
                            },
                            {
                                "name": "_averageStableBorrowRate",
                                "type": "uint256",
                                "value": "88,071,638,159,573,890,468,263,652"
                            }
                        ],
                        "constructorArguments": "",
                        "name": "calculateInterestRates",
                        "returnParams": [
                            {
                                "name": "currentLiquidityRate",
                                "type": "uint256",
                                "value": "126,109,782,080,831,636,169,247,499"
                            },
                            {
                                "name": "currentStableBorrowRate",
                                "type": "uint256",
                                "value": "196,851,022,640,696,375,680,174,964"
                            },
                            {
                                "name": "currentVariableBorrowRate",
                                "type": "uint256",
                                "value": "181,851,022,640,696,375,680,174,964"
                            }
                        ],
                        "signature": "calculateInterestRates(address,uint256,uint256,uint256,uint256)"
                    },
                    "errorInfo": "",
                    "fromAddress": "0x3dfd23a6c5e8bbcfc9581d2e864a68feb6a076d3",
                    "gasUsed": 15640,
                    "id": 12,
                    "methodDecoded": true,
                    "operation": "STATICCALL",
                    "output": "0x0000000000000000000000000000000000000000006850c8fc351ef03c134b0b000000000000000000000000000000000000000000a2d4d351f578183dc40b74000000000000000000000000000000000000000000966c73b0d7762bcec40b74",
                    "revert": false,
                    "revertMessage": "",
                    "selector": "0x57e37af0",
                    "status": true,
                    "value": "0"
                },
                "nodeType": 0
            },
            "13": {
                "invocation": {
                    "address": "0x24a42fd28c976a61df5d00d0599c34c4f90748c8",
                    "callData": "0x",
                    "decodedMethod": {
                        "callParams": [],
                        "constructorArguments": "",
                        "name": "getLendingRateOracle",
                        "returnParams": [
                            {
                                "name": "",
                                "type": "address",
                                "value": "0x4d728a4496e4de35f218d5a214366bde3a62b51c"
                            }
                        ],
                        "signature": "getLendingRateOracle()"
                    },
                    "errorInfo": "",
                    "fromAddress": "0x247227714bd121c528310e3bbff401ae34c9f9f6",
                    "gasUsed": 1215,
                    "id": 13,
                    "methodDecoded": true,
                    "operation": "STATICCALL",
                    "output": "0x0000000000000000000000004d728a4496e4de35f218d5a214366bde3a62b51c",
                    "revert": false,
                    "revertMessage": "",
                    "selector": "0x3618abba",
                    "status": true,
                    "value": "0"
                },
                "nodeType": 0
            },
            "14": {
                "invocation": {
                    "address": "0x4d728a4496e4de35f218d5a214366bde3a62b51c",
                    "callData": "0x000000000000000000000000a0b86991c6218b36c1d19d4a2e9eb0ce3606eb48",
                    "decodedMethod": {
                        "callParams": [
                            {
                                "name": "_asset",
                                "type": "address",
                                "value": "0xa0b86991c6218b36c1d19d4a2e9eb0ce3606eb48"
                            }
                        ],
                        "constructorArguments": "",
                        "name": "getMarketBorrowRate",
                        "returnParams": [
                            {
                                "name": "",
                                "type": "uint256",
                                "value": "35,000,000,000,000,000,000,000,000"
                            }
                        ],
                        "signature": "getMarketBorrowRate(address)"
                    },
                    "errorInfo": "",
                    "fromAddress": "0x247227714bd121c528310e3bbff401ae34c9f9f6",
                    "gasUsed": 1164,
                    "id": 14,
                    "methodDecoded": true,
                    "operation": "STATICCALL",
                    "output": "0x0000000000000000000000000000000000000000001cf389cd46047d03000000",
                    "revert": false,
                    "revertMessage": "",
                    "selector": "0xbb85c0bb",
                    "status": true,
                    "value": "0"
                },
                "nodeType": 0
            },
            "15": {
                "event": {
                    "contract": "0x3dfd23a6c5e8bbcfc9581d2e864a68feb6a076d3",
                    "decodedLog": {
                        "name": "ReserveUpdated",
                        "params": [
                            {
                                "name": "reserve",
                                "type": "address",
                                "value": "0xa0b86991c6218b36c1d19d4a2e9eb0ce3606eb48"
                            },
                            {
                                "name": "liquidityRate",
                                "type": "uint256",
                                "value": "126,109,782,080,831,636,169,247,499"
                            },
                            {
                                "name": "stableBorrowRate",
                                "type": "uint256",
                                "value": "196,851,022,640,696,375,680,174,964"
                            },
                            {
                                "name": "variableBorrowRate",
                                "type": "uint256",
                                "value": "181,851,022,640,696,375,680,174,964"
                            },
                            {
                                "name": "liquidityIndex",
                                "type": "uint256",
                                "value": "1,047,524,553,597,755,388,736,773,862"
                            },
                            {
                                "name": "variableBorrowIndex",
                                "type": "uint256",
                                "value": "1,065,569,522,084,861,903,403,631,785"
                            }
                        ],
                        "signature": "ReserveUpdated(address,uint256,uint256,uint256,uint256,uint256)"
                    },
                    "id": 15,
                    "logData": "0x0000000000000000000000000000000000000000006850c8fc351ef03c134b0b000000000000000000000000000000000000000000a2d4d351f578183dc40b74000000000000000000000000000000000000000000966c73b0d7762bcec40b74000000000000000000000000000000000000000003627df3d64e2251a5bf1ee6000000000000000000000000000000000000000003716b1f89f7cd2583de44a9",
                    "logDecoded": true,
                    "operation": "EVENT",
                    "revert": false,
                    "status": true,
                    "topics": [
                        "0x04e4f521f16fcfd987978b05504262c2a2db223844977aab000e5accedb2d725",
                        "0x000000000000000000000000a0b86991c6218b36c1d19d4a2e9eb0ce3606eb48"
                    ]
                },
                "nodeType": 1
            },
            "16": {
                "invocation": {
                    "address": "0x3dfd23a6c5e8bbcfc9581d2e864a68feb6a076d3",
                    "callData": "0x000000000000000000000000a0b86991c6218b36c1d19d4a2e9eb0ce3606eb48000000000000000000000000208b82b04449cd51803fae4b1561450ba13d95100000000000000000000000000000000000000000000000000000003be5696ddb",
                    "decodedMethod": {
                        "callParams": [
                            {
                                "name": "_reserve",
                                "type": "address",
                                "value": "0xa0b86991c6218b36c1d19d4a2e9eb0ce3606eb48"
                            },
                            {
                                "name": "_user",
                                "type": "address",
                                "value": "0x208b82b04449cd51803fae4b1561450ba13d9510"
                            },
                            {
                                "name": "_amount",
                                "type": "uint256",
                                "value": "257,251,962,331"
                            }
                        ],
                        "constructorArguments": "",
                        "name": "transferToReserve",
                        "returnParams": [],
                        "signature": "transferToReserve(address,address,uint256)"
                    },
                    "errorInfo": "",
                    "fromAddress": "0x398ec7346dcd622edc5ae82352f02be94c62d119",
                    "gasUsed": 35616,
                    "id": 16,
                    "methodDecoded": true,
                    "operation": "CALL",
                    "output": "",
                    "revert": false,
                    "revertMessage": "",
                    "selector": "0x28fcf4d3",
                    "status": true,
                    "value": "0"
                },
                "nodeType": 0
            },
            "17": {
                "invocation": {
                    "address": "0x5766067108e534419ce13f05899bc3e3f4344948",
                    "callData": "0x000000000000000000000000a0b86991c6218b36c1d19d4a2e9eb0ce3606eb48000000000000000000000000208b82b04449cd51803fae4b1561450ba13d95100000000000000000000000000000000000000000000000000000003be5696ddb",
                    "decodedMethod": {
                        "callParams": [
                            {
                                "name": "_reserve",
                                "type": "address",
                                "value": "0xa0b86991c6218b36c1d19d4a2e9eb0ce3606eb48"
                            },
                            {
                                "name": "_user",
                                "type": "address",
                                "value": "0x208b82b04449cd51803fae4b1561450ba13d9510"
                            },
                            {
                                "name": "_amount",
                                "type": "uint256",
                                "value": "257,251,962,331"
                            }
                        ],
                        "constructorArguments": "",
                        "name": "transferToReserve",
                        "returnParams": [],
                        "signature": "transferToReserve(address,address,uint256)"
                    },
                    "errorInfo": "",
                    "fromAddress": "0x3dfd23a6c5e8bbcfc9581d2e864a68feb6a076d3",
                    "gasUsed": 32899,
                    "id": 17,
                    "methodDecoded": true,
                    "operation": "DELEGATECALL",
                    "output": "",
                    "revert": false,
                    "revertMessage": "",
                    "selector": "0x28fcf4d3",
                    "status": true,
                    "value": "0"
                },
                "nodeType": 0
            },
            "18": {
                "invocation": {
                    "address": "0xa0b86991c6218b36c1d19d4a2e9eb0ce3606eb48",
                    "callData": "0x000000000000000000000000208b82b04449cd51803fae4b1561450ba13d95100000000000000000000000003dfd23a6c5e8bbcfc9581d2e864a68feb6a076d30000000000000000000000000000000000000000000000000000003be5696ddb",
                    "decodedMethod": {
                        "callParams": [
                            {
                                "name": "from",
                                "type": "address",
                                "value": "0x208b82b04449cd51803fae4b1561450ba13d9510"
                            },
                            {
                                "name": "to",
                                "type": "address",
                                "value": "0x3dfd23a6c5e8bbcfc9581d2e864a68feb6a076d3"
                            },
                            {
                                "decimalAvailable": true,
                                "name": "value",
                                "type": "uint256",
                                "value": "257,251,962,331"
                            }
                        ],
                        "constructorArguments": "",
                        "name": "transferFrom",
                        "returnParams": [
                            {
                                "name": "",
                                "type": "bool",
                                "value": true
                            }
                        ],
                        "signature": "transferFrom(address,address,uint256)"
                    },
                    "errorInfo": "",
                    "fromAddress": "0x3dfd23a6c5e8bbcfc9581d2e864a68feb6a076d3",
                    "gasUsed": 29014,
                    "id": 18,
                    "methodDecoded": true,
                    "operation": "CALL",
                    "output": "0x0000000000000000000000000000000000000000000000000000000000000001",
                    "revert": false,
                    "revertMessage": "",
                    "selector": "0x23b872dd",
                    "status": true,
                    "value": "0"
                },
                "nodeType": 0
            },
            "19": {
                "invocation": {
                    "address": "0xb7277a6e95992041568d9391d09d0122023778a2",
                    "callData": "0x000000000000000000000000208b82b04449cd51803fae4b1561450ba13d95100000000000000000000000003dfd23a6c5e8bbcfc9581d2e864a68feb6a076d30000000000000000000000000000000000000000000000000000003be5696ddb",
                    "decodedMethod": {
                        "callParams": [
                            {
                                "name": "from",
                                "type": "address",
                                "value": "0x208b82b04449cd51803fae4b1561450ba13d9510"
                            },
                            {
                                "name": "to",
                                "type": "address",
                                "value": "0x3dfd23a6c5e8bbcfc9581d2e864a68feb6a076d3"
                            },
                            {
                                "decimalAvailable": true,
                                "name": "value",
                                "type": "uint256",
                                "value": "257,251,962,331"
                            }
                        ],
                        "constructorArguments": "",
                        "name": "transferFrom",
                        "returnParams": [
                            {
                                "name": "",
                                "type": "bool",
                                "value": true
                            }
                        ],
                        "signature": "transferFrom(address,address,uint256)"
                    },
                    "errorInfo": "",
                    "fromAddress": "0xa0b86991c6218b36c1d19d4a2e9eb0ce3606eb48",
                    "gasUsed": 26219,
                    "id": 19,
                    "methodDecoded": true,
                    "operation": "DELEGATECALL",
                    "output": "0x0000000000000000000000000000000000000000000000000000000000000001",
                    "revert": false,
                    "revertMessage": "",
                    "selector": "0x23b872dd",
                    "status": true,
                    "value": "0"
                },
                "nodeType": 0
            },
            "2": {
                "invocation": {
                    "address": "0x3dfd23a6c5e8bbcfc9581d2e864a68feb6a076d3",
                    "callData": "0x000000000000000000000000a0b86991c6218b36c1d19d4a2e9eb0ce3606eb48",
                    "decodedMethod": {
                        "callParams": [
                            {
                                "name": "_reserve",
                                "type": "address",
                                "value": "0xa0b86991c6218b36c1d19d4a2e9eb0ce3606eb48"
                            }
                        ],
                        "constructorArguments": "",
                        "name": "getReserveIsActive",
                        "returnParams": [
                            {
                                "name": "",
                                "type": "bool",
                                "value": true
                            }
                        ],
                        "signature": "getReserveIsActive(address)"
                    },
                    "errorInfo": "",
                    "fromAddress": "0x398ec7346dcd622edc5ae82352f02be94c62d119",
                    "gasUsed": 3958,
                    "id": 2,
                    "methodDecoded": true,
                    "operation": "STATICCALL",
                    "output": "0x0000000000000000000000000000000000000000000000000000000000000001",
                    "revert": false,
                    "revertMessage": "",
                    "selector": "0x05075d6e",
                    "status": true,
                    "value": "0"
                },
                "nodeType": 0
            },
            "20": {
                "event": {
                    "contract": "0xa0b86991c6218b36c1d19d4a2e9eb0ce3606eb48",
                    "decodedLog": {
                        "name": "Transfer",
                        "params": [
                            {
                                "name": "from",
                                "type": "address",
                                "value": "0x208b82b04449cd51803fae4b1561450ba13d9510"
                            },
                            {
                                "name": "to",
                                "type": "address",
                                "value": "0x3dfd23a6c5e8bbcfc9581d2e864a68feb6a076d3"
                            },
                            {
                                "decimalAvailable": true,
                                "name": "value",
                                "type": "uint256",
                                "value": "257,251,962,331"
                            }
                        ],
                        "signature": "Transfer(address,address,uint256)"
                    },
                    "id": 20,
                    "logData": "0x0000000000000000000000000000000000000000000000000000003be5696ddb",
                    "logDecoded": true,
                    "operation": "EVENT",
                    "revert": false,
                    "status": true,
                    "topics": [
                        "0xddf252ad1be2c89b69c2b068fc378daa952ba7f163c4a11628f55a4df523b3ef",
                        "0x000000000000000000000000208b82b04449cd51803fae4b1561450ba13d9510",
                        "0x0000000000000000000000003dfd23a6c5e8bbcfc9581d2e864a68feb6a076d3"
                    ]
                },
                "nodeType": 1
            },
            "21": {
                "event": {
                    "contract": "0x398ec7346dcd622edc5ae82352f02be94c62d119",
                    "decodedLog": {
                        "name": "Repay",
                        "params": [
                            {
                                "name": "_reserve",
                                "type": "address",
                                "value": "0xa0b86991c6218b36c1d19d4a2e9eb0ce3606eb48"
                            },
                            {
                                "name": "_user",
                                "type": "address",
                                "value": "0x208b82b04449cd51803fae4b1561450ba13d9510"
                            },
                            {
                                "name": "_repayer",
                                "type": "address",
                                "value": "0x208b82b04449cd51803fae4b1561450ba13d9510"
                            },
                            {
                                "name": "_amountMinusFees",
                                "type": "uint256",
                                "value": "257,251,962,331"
                            },
                            {
                                "name": "_fees",
                                "type": "uint256",
                                "value": "0"
                            },
                            {
                                "name": "_borrowBalanceIncrease",
                                "type": "uint256",
                                "value": "18,353,594"
                            },
                            {
                                "name": "_timestamp",
                                "type": "uint256",
                                "value": "1,611,114,803"
                            }
                        ],
                        "signature": "Repay(address,address,address,uint256,uint256,uint256,uint256)"
                    },
                    "id": 21,
                    "logData": "0x0000000000000000000000000000000000000000000000000000003be5696ddb00000000000000000000000000000000000000000000000000000000000000000000000000000000000000000000000000000000000000000000000001180dba000000000000000000000000000000000000000000000000000000006007a933",
                    "logDecoded": true,
                    "operation": "EVENT",
                    "revert": false,
                    "status": true,
                    "topics": [
                        "0xb718f0b14f03d8c3adf35b15e3da52421b042ac879e5a689011a8b1e0036773d",
                        "0x000000000000000000000000a0b86991c6218b36c1d19d4a2e9eb0ce3606eb48",
                        "0x000000000000000000000000208b82b04449cd51803fae4b1561450ba13d9510",
                        "0x000000000000000000000000208b82b04449cd51803fae4b1561450ba13d9510"
                    ]
                },
                "nodeType": 1
            },
            "3": {
                "invocation": {
                    "address": "0x5766067108e534419ce13f05899bc3e3f4344948",
                    "callData": "0x000000000000000000000000a0b86991c6218b36c1d19d4a2e9eb0ce3606eb48",
                    "decodedMethod": {
                        "callParams": [
                            {
                                "name": "_reserve",
                                "type": "address",
                                "value": "0xa0b86991c6218b36c1d19d4a2e9eb0ce3606eb48"
                            }
                        ],
                        "constructorArguments": "",
                        "name": "getReserveIsActive",
                        "returnParams": [
                            {
                                "name": "",
                                "type": "bool",
                                "value": true
                            }
                        ],
                        "signature": "getReserveIsActive(address)"
                    },
                    "errorInfo": "",
                    "fromAddress": "0x3dfd23a6c5e8bbcfc9581d2e864a68feb6a076d3",
                    "gasUsed": 1247,
                    "id": 3,
                    "methodDecoded": true,
                    "operation": "DELEGATECALL",
                    "output": "0x0000000000000000000000000000000000000000000000000000000000000001",
                    "revert": false,
                    "revertMessage": "",
                    "selector": "0x05075d6e",
                    "status": true,
                    "value": "0"
                },
                "nodeType": 0
            },
            "4": {
                "invocation": {
                    "address": "0x3dfd23a6c5e8bbcfc9581d2e864a68feb6a076d3",
                    "callData": "0x000000000000000000000000a0b86991c6218b36c1d19d4a2e9eb0ce3606eb48000000000000000000000000208b82b04449cd51803fae4b1561450ba13d9510",
                    "decodedMethod": {
                        "callParams": [
                            {
                                "name": "_reserve",
                                "type": "address",
                                "value": "0xa0b86991c6218b36c1d19d4a2e9eb0ce3606eb48"
                            },
                            {
                                "name": "_user",
                                "type": "address",
                                "value": "0x208b82b04449cd51803fae4b1561450ba13d9510"
                            }
                        ],
                        "constructorArguments": "",
                        "name": "getUserBorrowBalances",
                        "returnParams": [
                            {
                                "name": "",
                                "type": "uint256",
                                "value": "580,582,199,013"
                            },
                            {
                                "name": "",
                                "type": "uint256",
                                "value": "580,600,552,607"
                            },
                            {
                                "name": "",
                                "type": "uint256",
                                "value": "18,353,594"
                            }
                        ],
                        "signature": "getUserBorrowBalances(address,address)"
                    },
                    "errorInfo": "",
                    "fromAddress": "0x398ec7346dcd622edc5ae82352f02be94c62d119",
                    "gasUsed": 19678,
                    "id": 4,
                    "methodDecoded": true,
                    "operation": "STATICCALL",
                    "output": "0x000000000000000000000000000000000000000000000000000000872d654ee5000000000000000000000000000000000000000000000000000000872e7d5c9f0000000000000000000000000000000000000000000000000000000001180dba",
                    "revert": false,
                    "revertMessage": "",
                    "selector": "0x9fb8afcd",
                    "status": true,
                    "value": "0"
                },
                "nodeType": 0
            },
            "5": {
                "invocation": {
                    "address": "0x5766067108e534419ce13f05899bc3e3f4344948",
                    "callData": "0x000000000000000000000000a0b86991c6218b36c1d19d4a2e9eb0ce3606eb48000000000000000000000000208b82b04449cd51803fae4b1561450ba13d9510",
                    "decodedMethod": {
                        "callParams": [
                            {
                                "name": "_reserve",
                                "type": "address",
                                "value": "0xa0b86991c6218b36c1d19d4a2e9eb0ce3606eb48"
                            },
                            {
                                "name": "_user",
                                "type": "address",
                                "value": "0x208b82b04449cd51803fae4b1561450ba13d9510"
                            }
                        ],
                        "constructorArguments": "",
                        "name": "getUserBorrowBalances",
                        "returnParams": [
                            {
                                "name": "",
                                "type": "uint256",
                                "value": "580,582,199,013"
                            },
                            {
                                "name": "",
                                "type": "uint256",
                                "value": "580,600,552,607"
                            },
                            {
                                "name": "",
                                "type": "uint256",
                                "value": "18,353,594"
                            }
                        ],
                        "signature": "getUserBorrowBalances(address,address)"
                    },
                    "errorInfo": "",
                    "fromAddress": "0x3dfd23a6c5e8bbcfc9581d2e864a68feb6a076d3",
                    "gasUsed": 16926,
                    "id": 5,
                    "methodDecoded": true,
                    "operation": "DELEGATECALL",
                    "output": "0x000000000000000000000000000000000000000000000000000000872d654ee5000000000000000000000000000000000000000000000000000000872e7d5c9f0000000000000000000000000000000000000000000000000000000001180dba",
                    "revert": false,
                    "revertMessage": "",
                    "selector": "0x9fb8afcd",
                    "status": true,
                    "value": "0"
                },
                "nodeType": 0
            },
            "6": {
                "invocation": {
                    "address": "0x3dfd23a6c5e8bbcfc9581d2e864a68feb6a076d3",
                    "callData": "0x000000000000000000000000a0b86991c6218b36c1d19d4a2e9eb0ce3606eb48000000000000000000000000208b82b04449cd51803fae4b1561450ba13d9510",
                    "decodedMethod": {
                        "callParams": [
                            {
                                "name": "_reserve",
                                "type": "address",
                                "value": "0xa0b86991c6218b36c1d19d4a2e9eb0ce3606eb48"
                            },
                            {
                                "name": "_user",
                                "type": "address",
                                "value": "0x208b82b04449cd51803fae4b1561450ba13d9510"
                            }
                        ],
                        "constructorArguments": "",
                        "name": "getUserOriginationFee",
                        "returnParams": [
                            {
                                "name": "",
                                "type": "uint256",
                                "value": "0"
                            }
                        ],
                        "signature": "getUserOriginationFee(address,address)"
                    },
                    "errorInfo": "",
                    "fromAddress": "0x398ec7346dcd622edc5ae82352f02be94c62d119",
                    "gasUsed": 4157,
                    "id": 6,
                    "methodDecoded": true,
                    "operation": "STATICCALL",
                    "output": "0x0000000000000000000000000000000000000000000000000000000000000000",
                    "revert": false,
                    "revertMessage": "",
                    "selector": "0xfeab31ac",
                    "status": true,
                    "value": "0"
                },
                "nodeType": 0
            },
            "7": {
                "invocation": {
                    "address": "0x5766067108e534419ce13f05899bc3e3f4344948",
                    "callData": "0x000000000000000000000000a0b86991c6218b36c1d19d4a2e9eb0ce3606eb48000000000000000000000000208b82b04449cd51803fae4b1561450ba13d9510",
                    "decodedMethod": {
                        "callParams": [
                            {
                                "name": "_reserve",
                                "type": "address",
                                "value": "0xa0b86991c6218b36c1d19d4a2e9eb0ce3606eb48"
                            },
                            {
                                "name": "_user",
                                "type": "address",
                                "value": "0x208b82b04449cd51803fae4b1561450ba13d9510"
                            }
                        ],
                        "constructorArguments": "",
                        "name": "getUserOriginationFee",
                        "returnParams": [
                            {
                                "name": "",
                                "type": "uint256",
                                "value": "0"
                            }
                        ],
                        "signature": "getUserOriginationFee(address,address)"
                    },
                    "errorInfo": "",
                    "fromAddress": "0x3dfd23a6c5e8bbcfc9581d2e864a68feb6a076d3",
                    "gasUsed": 1411,
                    "id": 7,
                    "methodDecoded": true,
                    "operation": "DELEGATECALL",
                    "output": "0x0000000000000000000000000000000000000000000000000000000000000000",
                    "revert": false,
                    "revertMessage": "",
                    "selector": "0xfeab31ac",
                    "status": true,
                    "value": "0"
                },
                "nodeType": 0
            },
            "8": {
                "invocation": {
                    "address": "0x3dfd23a6c5e8bbcfc9581d2e864a68feb6a076d3",
                    "callData": "0x000000000000000000000000a0b86991c6218b36c1d19d4a2e9eb0ce3606eb48000000000000000000000000208b82b04449cd51803fae4b1561450ba13d95100000000000000000000000000000000000000000000000000000003be5696ddb00000000000000000000000000000000000000000000000000000000000000000000000000000000000000000000000000000000000000000000000001180dba0000000000000000000000000000000000000000000000000000000000000000",
                    "decodedMethod": {
                        "callParams": [
                            {
                                "name": "_reserve",
                                "type": "address",
                                "value": "0xa0b86991c6218b36c1d19d4a2e9eb0ce3606eb48"
                            },
                            {
                                "name": "_user",
                                "type": "address",
                                "value": "0x208b82b04449cd51803fae4b1561450ba13d9510"
                            },
                            {
                                "name": "_paybackAmountMinusFees",
                                "type": "uint256",
                                "value": "257,251,962,331"
                            },
                            {
                                "name": "_originationFeeRepaid",
                                "type": "uint256",
                                "value": "0"
                            },
                            {
                                "name": "_balanceIncrease",
                                "type": "uint256",
                                "value": "18,353,594"
                            },
                            {
                                "name": "_repaidWholeLoan",
                                "type": "bool",
                                "value": false
                            }
                        ],
                        "constructorArguments": "",
                        "name": "updateStateOnRepay",
                        "returnParams": [],
                        "signature": "updateStateOnRepay(address,address,uint256,uint256,uint256,bool)"
                    },
                    "errorInfo": "",
                    "fromAddress": "0x398ec7346dcd622edc5ae82352f02be94c62d119",
                    "gasUsed": 125173,
                    "id": 8,
                    "methodDecoded": true,
                    "operation": "CALL",
                    "output": "",
                    "revert": false,
                    "revertMessage": "",
                    "selector": "0xda12d96f",
                    "status": true,
                    "value": "0"
                },
                "nodeType": 0
            },
            "9": {
                "invocation": {
                    "address": "0x5766067108e534419ce13f05899bc3e3f4344948",
                    "callData": "0x000000000000000000000000a0b86991c6218b36c1d19d4a2e9eb0ce3606eb48000000000000000000000000208b82b04449cd51803fae4b1561450ba13d95100000000000000000000000000000000000000000000000000000003be5696ddb00000000000000000000000000000000000000000000000000000000000000000000000000000000000000000000000000000000000000000000000001180dba0000000000000000000000000000000000000000000000000000000000000000",
                    "decodedMethod": {
                        "callParams": [
                            {
                                "name": "_reserve",
                                "type": "address",
                                "value": "0xa0b86991c6218b36c1d19d4a2e9eb0ce3606eb48"
                            },
                            {
                                "name": "_user",
                                "type": "address",
                                "value": "0x208b82b04449cd51803fae4b1561450ba13d9510"
                            },
                            {
                                "name": "_paybackAmountMinusFees",
                                "type": "uint256",
                                "value": "257,251,962,331"
                            },
                            {
                                "name": "_originationFeeRepaid",
                                "type": "uint256",
                                "value": "0"
                            },
                            {
                                "name": "_balanceIncrease",
                                "type": "uint256",
                                "value": "18,353,594"
                            },
                            {
                                "name": "_repaidWholeLoan",
                                "type": "bool",
                                "value": false
                            }
                        ],
                        "constructorArguments": "",
                        "name": "updateStateOnRepay",
                        "returnParams": [],
                        "signature": "updateStateOnRepay(address,address,uint256,uint256,uint256,bool)"
                    },
                    "errorInfo": "",
                    "fromAddress": "0x3dfd23a6c5e8bbcfc9581d2e864a68feb6a076d3",
                    "gasUsed": 122406,
                    "id": 9,
                    "methodDecoded": true,
                    "operation": "DELEGATECALL",
                    "output": "",
                    "revert": false,
                    "revertMessage": "",
                    "selector": "0xda12d96f",
                    "status": true,
                    "value": "0"
                },
                "nodeType": 0
            }
        },
        "gasFlame": [
            {
                "children": [
                    {
                        "children": [
                            {
                                "children": [],
                                "depth": 0,
                                "name": "Initial Gas",
                                "value": 21988
                            },
                            {
                                "children": [
                                    {
                                        "children": [
                                            {
                                                "children": [
                                                    {
                                                        "children": [],
                                                        "depth": 3,
                                                        "name": "getReserveIsActive",
                                                        "value": 1247
                                                    }
                                                ],
                                                "depth": 2,
                                                "name": "getReserveIsActive",
                                                "value": 3958
                                            },
                                            {
                                                "children": [
                                                    {
                                                        "children": [],
                                                        "depth": 3,
                                                        "name": "getUserBorrowBalances",
                                                        "value": 16926
                                                    }
                                                ],
                                                "depth": 2,
                                                "name": "getUserBorrowBalances",
                                                "value": 19678
                                            },
                                            {
                                                "children": [
                                                    {
                                                        "children": [],
                                                        "depth": 3,
                                                        "name": "getUserOriginationFee",
                                                        "value": 1411
                                                    }
                                                ],
                                                "depth": 2,
                                                "name": "getUserOriginationFee",
                                                "value": 4157
                                            },
                                            {
                                                "children": [
                                                    {
                                                        "children": [
                                                            {
                                                                "children": [
                                                                    {
                                                                        "children": [],
                                                                        "depth": 5,
                                                                        "name": "balanceOf",
                                                                        "value": 1207
                                                                    }
                                                                ],
                                                                "depth": 4,
                                                                "name": "balanceOf",
                                                                "value": 3993
                                                            },
                                                            {
                                                                "children": [
                                                                    {
                                                                        "children": [],
                                                                        "depth": 5,
                                                                        "name": "getLendingRateOracle",
                                                                        "value": 1215
                                                                    },
                                                                    {
                                                                        "children": [],
                                                                        "depth": 5,
                                                                        "name": "getMarketBorrowRate",
                                                                        "value": 1164
                                                                    }
                                                                ],
                                                                "depth": 4,
                                                                "name": "calculateInterestRates",
                                                                "value": 15640
                                                            }
                                                        ],
                                                        "depth": 3,
                                                        "name": "updateStateOnRepay",
                                                        "value": 122406
                                                    }
                                                ],
                                                "depth": 2,
                                                "name": "updateStateOnRepay",
                                                "value": 125173
                                            },
                                            {
                                                "children": [
                                                    {
                                                        "children": [
                                                            {
                                                                "children": [
                                                                    {
                                                                        "children": [],
                                                                        "depth": 5,
                                                                        "name": "transferFrom",
                                                                        "value": 26219
                                                                    }
                                                                ],
                                                                "depth": 4,
                                                                "name": "transferFrom",
                                                                "value": 29014
                                                            }
                                                        ],
                                                        "depth": 3,
                                                        "name": "transferToReserve",
                                                        "value": 32899
                                                    }
                                                ],
                                                "depth": 2,
                                                "name": "transferToReserve",
                                                "value": 35616
                                            }
                                        ],
                                        "depth": 1,
                                        "name": "repay",
                                        "value": 212019
                                    }
                                ],
                                "depth": 0,
                                "name": "Executed Gas",
                                "value": 214736
                            }
                        ],
                        "depth": -1,
                        "name": "Actual Gas Used",
                        "value": 221724
                    },
                    {
                        "children": [],
                        "depth": -1,
                        "name": "Refunded Gas",
                        "value": 15000
                    }
                ],
                "depth": -2,
                "name": "Total Gas",
                "value": 236724
            }
        ],
        "isConfirmed": true,
        "mainTrace": [
            {
                "children": [
                    {
                        "children": [
                            {
                                "children": [
                                    {
                                        "children": [
                                            {
                                                "children": [],
                                                "depth": 3,
                                                "id": 3,
                                                "order": 3
                                            }
                                        ],
                                        "depth": 2,
                                        "id": 2,
                                        "order": 2
                                    },
                                    {
                                        "children": [
                                            {
                                                "children": [],
                                                "depth": 3,
                                                "id": 5,
                                                "order": 5
                                            }
                                        ],
                                        "depth": 2,
                                        "id": 4,
                                        "order": 4
                                    },
                                    {
                                        "children": [
                                            {
                                                "children": [],
                                                "depth": 3,
                                                "id": 7,
                                                "order": 7
                                            }
                                        ],
                                        "depth": 2,
                                        "id": 6,
                                        "order": 6
                                    },
                                    {
                                        "children": [
                                            {
                                                "children": [
                                                    {
                                                        "children": [
                                                            {
                                                                "children": [],
                                                                "depth": 5,
                                                                "id": 11,
                                                                "order": 11
                                                            }
                                                        ],
                                                        "depth": 4,
                                                        "id": 10,
                                                        "order": 10
                                                    },
                                                    {
                                                        "children": [
                                                            {
                                                                "children": [],
                                                                "depth": 5,
                                                                "id": 13,
                                                                "order": 13
                                                            },
                                                            {
                                                                "children": [],
                                                                "depth": 5,
                                                                "id": 14,
                                                                "order": 14
                                                            }
                                                        ],
                                                        "depth": 4,
                                                        "id": 12,
                                                        "order": 12
                                                    },
                                                    {
                                                        "children": [],
                                                        "depth": 4,
                                                        "id": 15,
                                                        "order": 15
                                                    }
                                                ],
                                                "depth": 3,
                                                "id": 9,
                                                "order": 9
                                            }
                                        ],
                                        "depth": 2,
                                        "id": 8,
                                        "order": 8
                                    },
                                    {
                                        "children": [
                                            {
                                                "children": [
                                                    {
                                                        "children": [
                                                            {
                                                                "children": [
                                                                    {
                                                                        "children": [],
                                                                        "depth": 6,
                                                                        "id": 20,
                                                                        "order": 20
                                                                    }
                                                                ],
                                                                "depth": 5,
                                                                "id": 19,
                                                                "order": 19
                                                            }
                                                        ],
                                                        "depth": 4,
                                                        "id": 18,
                                                        "order": 18
                                                    }
                                                ],
                                                "depth": 3,
                                                "id": 17,
                                                "order": 17
                                            }
                                        ],
                                        "depth": 2,
                                        "id": 16,
                                        "order": 16
                                    },
                                    {
                                        "children": [],
                                        "depth": 2,
                                        "id": 21,
                                        "order": 21
                                    }
                                ],
                                "depth": 1,
                                "id": 1,
                                "order": 1
                            }
                        ],
                        "depth": 0,
                        "id": 0,
                        "order": 0
                    }
                ],
                "depth": -1,
                "id": -1,
                "order": -1
            }
        ],
        "mainTraceNodeCount": 22,
        "parentIdMap": {
            "0": -1,
            "1": 0,
            "10": 9,
            "11": 10,
            "12": 9,
            "13": 12,
            "14": 12,
            "15": 9,
            "16": 1,
            "17": 16,
            "18": 17,
            "19": 18,
            "2": 1,
            "20": 19,
            "21": 1,
            "3": 2,
            "4": 1,
            "5": 4,
            "6": 1,
            "7": 6,
            "8": 1,
            "9": 8
        },
        "tidyTrace": [
            {
                "children": [
                    {
                        "children": [
                            {
                                "children": [
                                    {
                                        "children": [
                                            {
                                                "children": [
                                                    {
                                                        "children": [],
                                                        "depth": 4,
                                                        "id": 15,
                                                        "order": 15
                                                    }
                                                ],
                                                "depth": 3,
                                                "id": 9,
                                                "order": 9
                                            }
                                        ],
                                        "depth": 2,
                                        "id": 8,
                                        "order": 8
                                    },
                                    {
                                        "children": [
                                            {
                                                "children": [
                                                    {
                                                        "children": [
                                                            {
                                                                "children": [
                                                                    {
                                                                        "children": [],
                                                                        "depth": 6,
                                                                        "id": 20,
                                                                        "order": 20
                                                                    }
                                                                ],
                                                                "depth": 5,
                                                                "id": 19,
                                                                "order": 19
                                                            }
                                                        ],
                                                        "depth": 4,
                                                        "id": 18,
                                                        "order": 18
                                                    }
                                                ],
                                                "depth": 3,
                                                "id": 17,
                                                "order": 17
                                            }
                                        ],
                                        "depth": 2,
                                        "id": 16,
                                        "order": 16
                                    },
                                    {
                                        "children": [],
                                        "depth": 2,
                                        "id": 21,
                                        "order": 21
                                    }
                                ],
                                "depth": 1,
                                "id": 1,
                                "order": 1
                            }
                        ],
                        "depth": 0,
                        "id": 0,
                        "order": 0
                    }
                ],
                "depth": -1,
                "id": -1,
                "order": -1
            }
        ],
        "tidyTraceNodeCount": 11
    },
    "state_change": {
        "stateChanges": [
            {
                "address": "0x398ec7346dcd622edc5ae82352f02be94c62d119",
                "erc": "",
                "slots": [
                    {
                        "current": "0x000000000000000000000000000000000000000000000000000000000006591b",
                        "key": "0x0000000000000000000000000000000000000000000000000000000000000000",
                        "prev": "0x000000000000000000000000000000000000000000000000000000000006591a"
                    }
                ],
                "storageVariables": [
                    {
                        "name": "_guardCounter",
                        "type": "uint256",
                        "value": {
                            "current": "416027",
                            "prev": "416026",
                            "typeTag": 1
                        }
                    }
                ]
            },
            {
                "address": "0x3dfd23a6c5e8bbcfc9581d2e864a68feb6a076d3",
                "erc": "",
                "slots": [
                    {
                        "current": "0x0000000000000000000000000000000000000000000000000000004b4913eec4",
                        "key": "0x697dd60dc1bc5f4f40a795280ecaba453149e7a0f81be805e46be8d95c3049ff",
                        "prev": "0x000000000000000000000000000000000000000000000000000000872d654ee5"
                    },
                    {
                        "current": "0x000000000000000000000000000000000000000003716b1f89f7cd2583de44a9",
                        "key": "0x697dd60dc1bc5f4f40a795280ecaba453149e7a0f81be805e46be8d95c304a00",
                        "prev": "0x00000000000000000000000000000000000000000371627ebc11c56558ff8657"
                    },
                    {
                        "current": "0x000000000000000000000000000000000000000000000000000000006007a933",
                        "key": "0x697dd60dc1bc5f4f40a795280ecaba453149e7a0f81be805e46be8d95c304a03",
                        "prev": "0x0000000000000000000000000000000000000000000000000000000060079039"
                    },
                    {
                        "current": "0x000000000000000000000000000000000000000000a2d4d351f578183dc40b74",
                        "key": "0x68eff30acf612606fe432211b2305dbb3238e33424c1cd8003b822364a8d367c",
                        "prev": "0x000000000000000000000000000000000000000000ad4f4b08e75543f3a399a2"
                    },
                    {
                        "current": "0x000000000000000000000000000000000000000000966c73b0d7762bcec40b74",
                        "key": "0x68eff30acf612606fe432211b2305dbb3238e33424c1cd8003b822364a8d367b",
                        "prev": "0x000000000000000000000000000000000000000000a0e6eb67c9535784a399a2"
                    },
                    {
                        "current": "0x000000000000000000000000000000000000000003627df3d64e2251a5bf1ee6",
                        "key": "0x68eff30acf612606fe432211b2305dbb3238e33424c1cd8003b822364a8d3677",
                        "prev": "0x000000000000000000000000000000000000000003627d745e1a4a4ee0f23ce2"
                    },
                    {
                        "current": "0x000000000000000000000000000000000000000003716b1f89f7cd2583de44a9",
                        "key": "0x68eff30acf612606fe432211b2305dbb3238e33424c1cd8003b822364a8d367e",
                        "prev": "0x000000000000000000000000000000000000000003716a6146526897bf6b5e2b"
                    },
                    {
                        "current": "0x00000000000000000000000000000000000000000048d9e51243e2e6e261b6e4",
                        "key": "0x68eff30acf612606fe432211b2305dbb3238e33424c1cd8003b822364a8d367d",
                        "prev": "0x000000000000000000000000000000000000000000491f8926b265e7d302f95d"
                    },
                    {
                        "current": "0x00000001010101006007a933247227714bd121c528310e3bbff401ae34c9f9f6",
                        "key": "0x68eff30acf612606fe432211b2305dbb3238e33424c1cd8003b822364a8d3684",
                        "prev": "0x00000001010101006007a71d247227714bd121c528310e3bbff401ae34c9f9f6"
                    },
                    {
                        "current": "0x000000000000000000000000000000000000000000000000000030071e869c56",
                        "key": "0x68eff30acf612606fe432211b2305dbb3238e33424c1cd8003b822364a8d3679",
                        "prev": "0x0000000000000000000000000000000000000000000000000000304302d7fc77"
                    },
                    {
                        "current": "0x0000000000000000000000000000000000000000006850c8fc351ef03c134b0b",
                        "key": "0x68eff30acf612606fe432211b2305dbb3238e33424c1cd8003b822364a8d3678",
                        "prev": "0x0000000000000000000000000000000000000000006da7b0d256fd1ed92595a0"
                    }
                ],
                "storageVariables": [
                    {
                        "name": "reserves",
                        "type": "mapping(address => struct CoreLibrary.ReserveData)",
                        "value": {
                            "pairs": [
                                {
                                    "key": "0xa0b86991c6218b36c1d19d4a2e9eb0ce3606eb48",
                                    "value": {
                                        "fields": [
                                            {
                                                "name": "lastLiquidityCumulativeIndex",
                                                "type": "uint256",
                                                "value": {
                                                    "current": "1047524553597755388736773862",
                                                    "prev": "1047522202199754012856827106",
                                                    "typeTag": 1
                                                }
                                            },
                                            {
                                                "name": "currentLiquidityRate",
                                                "type": "uint256",
                                                "value": {
                                                    "current": "126109782080831636169247499",
                                                    "prev": "132564811324170688570693024",
                                                    "typeTag": 1
                                                }
                                            },
                                            {
                                                "name": "totalBorrowsStable",
                                                "type": "uint256",
                                                "value": {
                                                    "current": "52807135042646",
                                                    "prev": "53064368651383",
                                                    "typeTag": 1
                                                }
                                            },
                                            {
                                                "name": "currentVariableBorrowRate",
                                                "type": "uint256",
                                                "value": {
                                                    "current": "181851022640696375680174964",
                                                    "prev": "194518617892858299674761634",
                                                    "typeTag": 1
                                                }
                                            },
                                            {
                                                "name": "currentStableBorrowRate",
                                                "type": "uint256",
                                                "value": {
                                                    "current": "196851022640696375680174964",
                                                    "prev": "209518617892858299674761634",
                                                    "typeTag": 1
                                                }
                                            },
                                            {
                                                "name": "currentAverageStableBorrowRate",
                                                "type": "uint256",
                                                "value": {
                                                    "current": "88071638159573890468263652",
                                                    "prev": "88400508185178152611543389",
                                                    "typeTag": 1
                                                }
                                            },
                                            {
                                                "name": "lastVariableBorrowCumulativeIndex",
                                                "type": "uint256",
                                                "value": {
                                                    "current": "1065569522084861903403631785",
                                                    "prev": "1065566012329075166841364011",
                                                    "typeTag": 1
                                                }
                                            },
                                            {
                                                "name": "interestRateStrategyAddress",
                                                "type": "address",
                                                "value": {
                                                    "current": "0x247227714bd121c528310e3bbff401ae34c9f9f6",
                                                    "prev": "0x247227714bd121c528310e3bbff401ae34c9f9f6",
                                                    "typeTag": 1
                                                }
                                            },
                                            {
                                                "name": "lastUpdateTimestamp",
                                                "type": "uint40",
                                                "value": {
                                                    "current": "1611114803",
                                                    "prev": "1611114269",
                                                    "typeTag": 1
                                                }
                                            },
                                            {
                                                "name": "borrowingEnabled",
                                                "type": "bool",
                                                "value": {
                                                    "current": "true",
                                                    "prev": "true",
                                                    "typeTag": 1
                                                }
                                            },
                                            {
                                                "name": "usageAsCollateralEnabled",
                                                "type": "bool",
                                                "value": {
                                                    "current": "true",
                                                    "prev": "true",
                                                    "typeTag": 1
                                                }
                                            },
                                            {
                                                "name": "isStableBorrowRateEnabled",
                                                "type": "bool",
                                                "value": {
                                                    "current": "true",
                                                    "prev": "true",
                                                    "typeTag": 1
                                                }
                                            },
                                            {
                                                "name": "isActive",
                                                "type": "bool",
                                                "value": {
                                                    "current": "true",
                                                    "prev": "true",
                                                    "typeTag": 1
                                                }
                                            },
                                            {
                                                "name": "isFreezed",
                                                "type": "bool",
                                                "value": {
                                                    "current": "false",
                                                    "prev": "false",
                                                    "typeTag": 1
                                                }
                                            }
                                        ],
                                        "typeTag": 3
                                    }
                                }
                            ],
                            "typeTag": 4
                        }
                    },
                    {
                        "name": "usersReserveData",
                        "type": "mapping(address => mapping(address => struct CoreLibrary.UserReserveData))",
                        "value": {
                            "pairs": [
                                {
                                    "key": "0x208b82b04449cd51803fae4b1561450ba13d9510",
                                    "value": {
                                        "pairs": [
                                            {
                                                "key": "0xa0b86991c6218b36c1d19d4a2e9eb0ce3606eb48",
                                                "value": {
                                                    "fields": [
                                                        {
                                                            "name": "principalBorrowBalance",
                                                            "type": "uint256",
                                                            "value": {
                                                                "current": "323348590276",
                                                                "prev": "580582199013",
                                                                "typeTag": 1
                                                            }
                                                        },
                                                        {
                                                            "name": "lastVariableBorrowCumulativeIndex",
                                                            "type": "uint256",
                                                            "value": {
                                                                "current": "1065569522084861903403631785",
                                                                "prev": "1065528776837392608360629847",
                                                                "typeTag": 1
                                                            }
                                                        },
                                                        {
                                                            "name": "lastUpdateTimestamp",
                                                            "type": "uint40",
                                                            "value": {
                                                                "current": "1611114803",
                                                                "prev": "1611108409",
                                                                "typeTag": 1
                                                            }
                                                        },
                                                        {
                                                            "name": "useAsCollateral",
                                                            "type": "bool",
                                                            "value": {
                                                                "current": "false",
                                                                "prev": "false",
                                                                "typeTag": 1
                                                            }
                                                        }
                                                    ],
                                                    "typeTag": 3
                                                }
                                            }
                                        ],
                                        "typeTag": 4
                                    }
                                }
                            ],
                            "typeTag": 4
                        }
                    }
                ]
            },
            {
                "address": "0xa0b86991c6218b36c1d19d4a2e9eb0ce3606eb48",
                "erc": "ERC-20",
                "slots": [
                    {
                        "current": "0x0000000000000000000000000000000000000000000000000000000000000000",
                        "key": "0x6662945b25e39bd3923b4cf1dc6468653a4a2786ef894b9660ec49233e4e5b46",
                        "prev": "0x0000000000000000000000000000000000000000000000000000003be5696ddb"
                    },
                    {
                        "current": "0x0000000000000000000000000000000000000000000000000000093361d930cc",
                        "key": "0x2d7f087b374e02a5e5e10a5853470bd6505cacceb702ef783a6dceb78f3f3a17",
                        "prev": "0x000000000000000000000000000000000000000000000000000008f77c6fc2f1"
                    },
                    {
                        "current": "0x0000000000000000000000000000000000000000033b2e3c9fd07fdd6027fef4",
                        "key": "0x1d35a59c240b1173e340fa97d0f491fed58786747650200b860b3f9e292ca557",
                        "prev": "0x0000000000000000000000000000000000000000033b2e3c9fd0801945916ccf"
                    }
                ],
                "storageVariables": [
                    {
                        "name": "allowed",
                        "type": "mapping(address => mapping(address => uint256))",
                        "value": {
                            "pairs": [
                                {
                                    "key": "0x208b82b04449cd51803fae4b1561450ba13d9510",
                                    "value": {
                                        "pairs": [
                                            {
                                                "key": "0x3dfd23a6c5e8bbcfc9581d2e864a68feb6a076d3",
                                                "value": {
                                                    "current": "999999999999999589699026676",
                                                    "prev": "999999999999999846950989007",
                                                    "typeTag": 1
                                                }
                                            }
                                        ],
                                        "typeTag": 4
                                    }
                                }
                            ],
                            "typeTag": 4
                        }
                    },
                    {
                        "name": "balances",
                        "type": "mapping(address => uint256)",
                        "value": {
                            "pairs": [
                                {
                                    "key": "0x208b82b04449cd51803fae4b1561450ba13d9510",
                                    "value": {
                                        "current": "0",
                                        "prev": "257251962331",
                                        "typeTag": 1
                                    }
                                },
                                {
                                    "key": "0x3dfd23a6c5e8bbcfc9581d2e864a68feb6a076d3",
                                    "value": {
                                        "current": "10116289605836",
                                        "prev": "9859037643505",
                                        "typeTag": 1
                                    }
                                }
                            ],
                            "typeTag": 4
                        }
                    }
                ]
            }
        ]
    }
}