{
    "balance_change": {
        "balanceChanges": [
            {
                "account": "0xdd7d1f1ce4eb1d83ee5f217160cad890bdba0c86",
                "assets": [
                    {
                        "address": "0x0fb843d37aa2a99db8d81af9fe2f0a6485c7c002",
                        "amount": "100",
                        "iconUrl": "",
                        "isERC1155": false,
                        "isERC721": false,
                        "sign": false,
                        "value": ""
                    }
                ]
            },
            {
                "account": "0xfee302af220d8b087cfda878370e72fbf2525e11",
                "assets": [
                    {
                        "address": "0x0fb843d37aa2a99db8d81af9fe2f0a6485c7c002",
                        "amount": "100",
                        "iconUrl": "",
                        "isERC1155": false,
                        "isERC721": false,
                        "sign": true,
                        "value": ""
                    }
                ]
            }
        ]
    },
    "profile": {
        "basic_info": {
            "baseFee": "",
            "blockNumber": 6765522,
            "callData": "0xa9059cbb000000000000000000000000fee302af220d8b087cfda878370e72fbf2525e110000000000000000000000000000000000000000000000056bc75e2d63100000",
            "debugEnable": true,
            "errorInfo": "",
            "eventCount": 1,
            "feeRecipient": "0xea674fdde714fd979de3edf0f56aa9716b898ec8",
            "formatValue": "0",
            "gasLimit": 6700000,
            "gasPrice": "3",
            "gasUsed": 51765,
            "intTxnCount": 0,
            "internalRevert": false,
            "internalRevertMessage": "",
            "isContractCreation": false,
            "isFlashloan": false,
            "maxFee": "",
            "nonce": 11329,
            "overwritedBlockNumber": -1,
            "priorityFee": "",
            "receiver": "0x0fb843d37aa2a99db8d81af9fe2f0a6485c7c002",
            "revertMessage": "",
            "sender": "0xdd7d1f1ce4eb1d83ee5f217160cad890bdba0c86",
            "simulationEnable": true,
            "sourceTxnHash": "0x677a78d88dd34591148ca77a5aa5432c7bb633bf9f455da4a78eb41d1f56d574",
            "status": true,
            "timestamp": "2018-11-24T18:49:06Z",
            "transactionFee": "0.000155295",
            "txnHash": "0x677a78d88dd34591148ca77a5aa5432c7bb633bf9f455da4a78eb41d1f56d574",
            "txnIndex": 22,
            "type": 0,
            "value": "0"
        },
        "fund_flow": [
            {
                "amount": "100",
                "from": "0xdd7d1f1ce4eb1d83ee5f217160cad890bdba0c86",
                "id": 1,
                "isERC1155": false,
                "isERC721": false,
                "isReverted": false,
                "order": 1,
                "to": "0xfee302af220d8b087cfda878370e72fbf2525e11",
                "token": "0x0fb843d37aa2a99db8d81af9fe2f0a6485c7c002"
            }
        ],
        "token_infos": [
            {
                "address": "0x0fb843d37aa2a99db8d81af9fe2f0a6485c7c002",
                "decimals": 18
            },
            {
                "address": "0xc02aaa39b223fe8d0a0e5c4f27ead9083c756cc2",
                "decimals": 18
            },
            {
                "address": "0xeeeeeeeeeeeeeeeeeeeeeeeeeeeeeeeeeeeeeeee",
                "decimals": 18
            }
        ]
    },
    "address_label": {
        "labels": [
            {
                "address": "0x0000000000000000000000000000000000000002",
                "label": "Precompiled"
            },
            {
                "address": "0x0000000000000000000000000000000000000003",
                "label": "Precompiled"
            },
            {
                "address": "0x0000000000000000000000000000000000000004",
                "label": "Precompiled"
            },
            {
                "address": "0xeeeeeeeeeeeeeeeeeeeeeeeeeeeeeeeeeeeeeeee",
                "label": "Ether"
            },
            {
                "address": "0x0fb843d37aa2a99db8d81af9fe2f0a6485c7c002",
                "label": "CPROP (CPROP)"
            },
            {
                "address": "0x0000000000000000000000000000000000000001",
                "label": "Precompiled"
            }
        ]
    },
    "trace": {
        "accountLabels": null,
        "dataMap": {
            "-1": {
                "invocation": {
                    "address": "0xdd7d1f1ce4eb1d83ee5f217160cad890bdba0c86",
                    "callData": "",
                    "decodedMethod": null,
                    "errorInfo": "",
                    "fromAddress": "",
                    "gasUsed": 0,
                    "id": -1,
                    "methodDecoded": false,
                    "operation": "",
                    "output": "",
                    "revert": false,
                    "revertMessage": "",
                    "selector": "",
                    "status": false,
                    "value": ""
                },
                "nodeType": 0
            },
            "0": {
                "invocation": {
                    "address": "0x0fb843d37aa2a99db8d81af9fe2f0a6485c7c002",
                    "callData": "0x000000000000000000000000fee302af220d8b087cfda878370e72fbf2525e110000000000000000000000000000000000000000000000056bc75e2d63100000",
                    "decodedMethod": {
                        "callParams": [
                            {
                                "name": "_to",
                                "type": "address",
                                "value": "0xfee302af220d8b087cfda878370e72fbf2525e11"
                            },
                            {
                                "decimalAvailable": true,
                                "name": "_value",
                                "type": "uint256",
                                "value": "100,000,000,000,000,000,000"
                            }
                        ],
                        "constructorArguments": "",
                        "name": "transfer",
                        "returnParams": [],
                        "signature": "transfer(address,uint256)"
                    },
                    "errorInfo": "",
                    "fromAddress": "0xdd7d1f1ce4eb1d83ee5f217160cad890bdba0c86",
                    "gasUsed": 51765,
                    "id": 0,
                    "methodDecoded": true,
                    "operation": "CALL",
                    "output": "",
                    "revert": false,
                    "revertMessage": "",
                    "selector": "0xa9059cbb",
                    "status": true,
                    "value": "0"
                },
                "nodeType": 0
            },
            "1": {
                "event": {
                    "contract": "0x0fb843d37aa2a99db8d81af9fe2f0a6485c7c002",
                    "decodedLog": {
                        "name": "Transfer",
                        "params": [
                            {
                                "name": "from",
                                "type": "address",
                                "value": "0xdd7d1f1ce4eb1d83ee5f217160cad890bdba0c86"
                            },
                            {
                                "name": "to",
                                "type": "address",
                                "value": "0xfee302af220d8b087cfda878370e72fbf2525e11"
                            },
                            {
                                "decimalAvailable": true,
                                "name": "value",
                                "type": "uint256",
                                "value": "100,000,000,000,000,000,000"
                            }
                        ],
                        "signature": "Transfer(address,address,uint256)"
                    },
                    "id": 1,
                    "logData": "0x0000000000000000000000000000000000000000000000056bc75e2d63100000",
                    "logDecoded": true,
                    "operation": "EVENT",
                    "revert": false,
                    "status": true,
                    "topics": [
                        "0xddf252ad1be2c89b69c2b068fc378daa952ba7f163c4a11628f55a4df523b3ef",
                        "0x000000000000000000000000dd7d1f1ce4eb1d83ee5f217160cad890bdba0c86",
                        "0x000000000000000000000000fee302af220d8b087cfda878370e72fbf2525e11"
                    ]
                },
                "nodeType": 1
            }
        },
        "gasFlame": [
            {
                "children": [
                    {
                        "children": [
                            {
                                "children": [],
                                "depth": 0,
                                "name": "Initial Gas",
                                "value": 23256
                            },
                            {
                                "children": [],
                                "depth": 0,
                                "name": "Executed Gas",
                                "value": 28509
                            }
                        ],
                        "depth": -1,
                        "name": "Actual Gas Used",
                        "value": 51765
                    },
                    {
                        "children": [],
                        "depth": -1,
                        "name": "Refunded Gas",
                        "value": 0
                    }
                ],
                "depth": -2,
                "name": "Total Gas",
                "value": 51765
            }
        ],
        "isConfirmed": true,
        "mainTrace": [
            {
                "children": [
                    {
                        "children": [
                            {
                                "children": [],
                                "depth": 1,
                                "id": 1,
                                "order": 1
                            }
                        ],
                        "depth": 0,
                        "id": 0,
                        "order": 0
                    }
                ],
                "depth": -1,
                "id": -1,
                "order": -1
            }
        ],
        "mainTraceNodeCount": 2,
        "parentIdMap": {
            "0": -1,
            "1": 0
        },
        "tidyTrace": [
            {
                "children": [
                    {
                        "children": [
                            {
                                "children": [],
                                "depth": 1,
                                "id": 1,
                                "order": 1
                            }
                        ],
                        "depth": 0,
                        "id": 0,
                        "order": 0
                    }
                ],
                "depth": -1,
                "id": -1,
                "order": -1
            }
        ],
        "tidyTraceNodeCount": 2
    },
    "state_change": {
        "stateChanges": [
            {
                "address": "0x0fb843d37aa2a99db8d81af9fe2f0a6485c7c002",
                "erc": "ERC-20",
                "slots": [
                    {
                        "current": "0x00000000000000000000000000000000000000000001ae9169f31ae51dd00000",
                        "key": "0x11fd82c18af7ca17d188c5aa8f988d401636657beb7143ea957878b582170e72",
                        "prev": "0x00000000000000000000000000000000000000000001ae96d5ba791280e00000"
                    },
                    {
                        "current": "0x0000000000000000000000000000000000000000000000056bc75e2d63100000",
                        "key": "0xfd0ba63ea497d518dc7abdefeab4269fdd31152a950a713e872301b8d5253239",
                        "prev": "0x0000000000000000000000000000000000000000000000000000000000000000"
                    }
                ],
                "storageVariables": [
                    {
                        "name": "balanceOf",
                        "type": "mapping(address => uint256)",
                        "value": {
                            "pairs": [
                                {
                                    "key": "0xdd7d1f1ce4eb1d83ee5f217160cad890bdba0c86",
                                    "value": {
                                        "current": "2033300000000000000000000",
                                        "prev": "2033400000000000000000000",
                                        "typeTag": 1
                                    }
                                },
                                {
                                    "key": "0xfee302af220d8b087cfda878370e72fbf2525e11",
                                    "value": {
                                        "current": "100000000000000000000",
                                        "prev": "0",
                                        "typeTag": 1
                                    }
                                }
                            ],
                            "typeTag": 4
                        }
                    }
                ]
            }
        ]
    }
}