{
    "balance_change": {
        "balanceChanges": [
            {
                "account": "0xe7e816de502811bb78a6f91863d2fc02d5332daf",
                "assets": [
                    {
                        "address": "0x0000000000a39bb272e79075ade125fd351887ac",
                        "amount": "0.09",
                        "iconUrl": "",
                        "isERC1155": false,
                        "isERC721": false,
                        "sign": true,
                        "value": ""
                    }
                ]
            },
            {
                "account": "0x1711bc52bf7e0494325799717fe640f1924617b7",
                "assets": [
                    {
                        "address": "0x0000000000a39bb272e79075ade125fd351887ac",
                        "amount": "0.09",
                        "iconUrl": "",
                        "isERC1155": false,
                        "isERC721": false,
                        "sign": false,
                        "value": ""
                    }
                ]
            }
        ]
    },
    "profile": {
        "basic_info": {
            "baseFee": "16.183102123",
            "blockNumber": 17987078,
            "callData": "0x736da5ad000000000000000000000000e7e816de502811bb78a6f91863d2fc02d5332daf000000000000000000000000128b55ff0c075090e1773232cb3fdd8d4e2c45ec000000000000000000000000306b1ea3ecdf94ab739f1910bbda052ed4a9f94900000000000000000000000000000000000000000000000000000000000017f7000000000000000000000000000000000000000000000000013fbe85edc900000000000000000000000000000000000000000000000000000000000064e5ed9300000000000000000000000000000000000000000000000000000000000000000000000000000000000000000000000000000000000000000000000000000000000000000000000000000000000000000000000000000000000000000000232800000000000000000000000000000000000000000000000000000000000124920000000000000000000000001711bc52bf7e0494325799717fe640f1924617b7000000000000000000000000306b1ea3ecdf94ab739f1910bbda052ed4a9f949000000000000000000000000000000000000000000000004b75e170de2fc00000000000000000000000000000000000000000000000000000000000000000000000000000000000000000000000000000000000000000000016345785d8a00000000000000000000000000000000000000000000000000000000000000002328000000000000000000000000000000005447c6fa25efb316a4fa56616d152f4600000000000000000000000000000000000000000000000000000000650abba40000000000000000000000000000000000000000000000000000000000000000000000000000000000000000473ca1d29a136b935a96380ea342f296b4eea82c00000000000000000000000000000000000000000000000000000000000002a000000000000000000000000000000000000000000000000000000000000000a2c00bf522349f033e37126efa6bef5e4e636bd5f3c2413a494e00d17562df9b0b5b0d43c564a9e0e8097dcf40ed6c385720d1bfb69afce25def867df66254f9dc1c2d0ec0f5607083bf3d53c3640b38cf641564cc6e737536a8fa82c60d04978abd7b02a49e81a9e44a8139bcaed4430039d45756ada403ef2e15af1a81e0b1d8ec1b0000000000000000000000000000000000000000000000000000000001127601000000000000000000000000000000000000000000000000000000000000",
            "debugEnable": true,
            "errorInfo": "",
            "eventCount": 3,
            "feeRecipient": "0x333333f332a06ecb5d20d35da44ba07986d6e203",
            "formatValue": "0",
            "gasLimit": 121319,
            "gasPrice": "16.383102123",
            "gasUsed": 116308,
            "intTxnCount": 6,
            "internalRevert": false,
            "internalRevertMessage": "",
            "isContractCreation": false,
            "isFlashloan": false,
            "maxFee": "70",
            "nonce": 1370,
            "overwritedBlockNumber": -1,
            "priorityFee": "0.2",
            "receiver": "0x29469395eaf6f95920e59f858042f0e28d98a20b",
            "revertMessage": "",
            "sender": "0xe7e816de502811bb78a6f91863d2fc02d5332daf",
            "simulationEnable": true,
            "sourceTxnHash": "0x671900ba2348a00a27d3369d5ba0848f44943ace843d8d8ec3511dc026618654",
            "status": true,
            "timestamp": "2023-08-24T20:55:47Z",
            "transactionFee": "0.001905485841721884",
            "txnHash": "0x671900ba2348a00a27d3369d5ba0848f44943ace843d8d8ec3511dc026618654",
            "txnIndex": 85,
            "type": 2,
            "value": "0"
        },
        "fund_flow": [
            {
                "amount": "0.09",
                "from": "0x1711bc52bf7e0494325799717fe640f1924617b7",
                "id": 1,
                "isERC1155": false,
                "isERC721": false,
                "isReverted": false,
                "order": 1,
                "to": "0xe7e816de502811bb78a6f91863d2fc02d5332daf",
                "token": "0x0000000000a39bb272e79075ade125fd351887ac"
            }
        ],
        "token_infos": [
            {
                "address": "0xeeeeeeeeeeeeeeeeeeeeeeeeeeeeeeeeeeeeeeee",
                "decimals": 18
            },
            {
                "address": "0x0000000000a39bb272e79075ade125fd351887ac",
                "decimals": 18
            },
            {
                "address": "0xc02aaa39b223fe8d0a0e5c4f27ead9083c756cc2",
                "decimals": 18
            }
        ]
    },
    "address_label": {
        "labels": [
            {
                "address": "0x29469395eaf6f95920e59f858042f0e28d98a20b",
                "label": "Blur: Blend"
            },
            {
                "address": "0x0000000000000000000000000000000000000002",
                "label": "Precompiled"
            },
            {
                "address": "0x0000000000000000000000000000000000000004",
                "label": "Precompiled"
            },
            {
                "address": "0x0000000000000000000000000000000000000003",
                "label": "Precompiled"
            },
            {
                "address": "0xeeeeeeeeeeeeeeeeeeeeeeeeeeeeeeeeeeeeeeee",
                "label": "Ether"
            },
            {
                "address": "0x5c55cd67a6bd0d4c315b50cb6cd589bfb080017e",
                "label": "Helpers"
            },
            {
                "address": "0x306b1ea3ecdf94ab739f1910bbda052ed4a9f949",
                "label": "BEANZ Official: SMTH Token"
            },
            {
                "address": "0x0000000000a39bb272e79075ade125fd351887ac",
                "label": "Blur: Bidding"
            },
            {
                "address": "0x01a656024de4b89e2d0198bf4d468e8fd2358b17",
                "label": "Blur Pool"
            },
            {
                "address": "0xb258ca5559b11cd702f363796522b04d7722ea56",
                "label": "Blend"
            },
            {
                "address": "0x0000000000000000000000000000000000000001",
                "label": "Precompiled"
            }
        ]
    },
    "trace": {
        "accountLabels": null,
        "dataMap": {
            "-1": {
                "invocation": {
                    "address": "0xe7e816de502811bb78a6f91863d2fc02d5332daf",
                    "callData": "",
                    "decodedMethod": null,
                    "errorInfo": "",
                    "fromAddress": "",
                    "gasUsed": 0,
                    "id": -1,
                    "methodDecoded": false,
                    "operation": "",
                    "output": "",
                    "revert": false,
                    "revertMessage": "",
                    "selector": "",
                    "status": false,
                    "value": ""
                },
                "nodeType": 0
            },
            "0": {
                "invocation": {
                    "address": "0x29469395eaf6f95920e59f858042f0e28d98a20b",
                    "callData": "0x000000000000000000000000e7e816de502811bb78a6f91863d2fc02d5332daf000000000000000000000000128b55ff0c075090e1773232cb3fdd8d4e2c45ec000000000000000000000000306b1ea3ecdf94ab739f1910bbda052ed4a9f94900000000000000000000000000000000000000000000000000000000000017f7000000000000000000000000000000000000000000000000013fbe85edc900000000000000000000000000000000000000000000000000000000000064e5ed9300000000000000000000000000000000000000000000000000000000000000000000000000000000000000000000000000000000000000000000000000000000000000000000000000000000000000000000000000000000000000000000232800000000000000000000000000000000000000000000000000000000000124920000000000000000000000001711bc52bf7e0494325799717fe640f1924617b7000000000000000000000000306b1ea3ecdf94ab739f1910bbda052ed4a9f949000000000000000000000000000000000000000000000004b75e170de2fc00000000000000000000000000000000000000000000000000000000000000000000000000000000000000000000000000000000000000000000016345785d8a00000000000000000000000000000000000000000000000000000000000000002328000000000000000000000000000000005447c6fa25efb316a4fa56616d152f4600000000000000000000000000000000000000000000000000000000650abba40000000000000000000000000000000000000000000000000000000000000000000000000000000000000000473ca1d29a136b935a96380ea342f296b4eea82c00000000000000000000000000000000000000000000000000000000000002a000000000000000000000000000000000000000000000000000000000000000a2c00bf522349f033e37126efa6bef5e4e636bd5f3c2413a494e00d17562df9b0b5b0d43c564a9e0e8097dcf40ed6c385720d1bfb69afce25def867df66254f9dc1c2d0ec0f5607083bf3d53c3640b38cf641564cc6e737536a8fa82c60d04978abd7b02a49e81a9e44a8139bcaed4430039d45756ada403ef2e15af1a81e0b1d8ec1b0000000000000000000000000000000000000000000000000000000001127601000000000000000000000000000000000000000000000000000000000000",
                    "decodedMethod": {
                        "callParams": [
                            {
                                "name": "lien",
                                "type": "(address,address,address,uint256,uint256,uint256,uint256,uint256,uint256)",
                                "value": [
                                    {
                                        "name": "lender",
                                        "type": "address",
                                        "value": "0xe7e816de502811bb78a6f91863d2fc02d5332daf"
                                    },
                                    {
                                        "name": "borrower",
                                        "type": "address",
                                        "value": "0x128b55ff0c075090e1773232cb3fdd8d4e2c45ec"
                                    },
                                    {
                                        "name": "collection",
                                        "type": "address",
                                        "value": "0x306b1ea3ecdf94ab739f1910bbda052ed4a9f949"
                                    },
                                    {
                                        "name": "tokenId",
                                        "type": "uint256",
                                        "value": "6,135"
                                    },
                                    {
                                        "name": "amount",
                                        "type": "uint256",
                                        "value": "90,000,000,000,000,000"
                                    },
                                    {
                                        "name": "startTime",
                                        "type": "uint256",
                                        "value": "1,692,790,163"
                                    },
                                    {
                                        "name": "rate",
                                        "type": "uint256",
                                        "value": "0"
                                    },
                                    {
                                        "name": "auctionStartBlock",
                                        "type": "uint256",
                                        "value": "0"
                                    },
                                    {
                                        "name": "auctionDuration",
                                        "type": "uint256",
                                        "value": "9,000"
                                    }
                                ]
                            },
                            {
                                "name": "lienId",
                                "type": "uint256",
                                "value": "74,898"
                            },
                            {
                                "name": "offer",
                                "type": "(address,address,uint256,uint256,uint256,uint256,uint256,uint256,uint256,address)",
                                "value": [
                                    {
                                        "name": "lender",
                                        "type": "address",
                                        "value": "0x1711bc52bf7e0494325799717fe640f1924617b7"
                                    },
                                    {
                                        "name": "collection",
                                        "type": "address",
                                        "value": "0x306b1ea3ecdf94ab739f1910bbda052ed4a9f949"
                                    },
                                    {
                                        "name": "totalAmount",
                                        "type": "uint256",
                                        "value": "87,000,000,000,000,000,000"
                                    },
                                    {
                                        "name": "minAmount",
                                        "type": "uint256",
                                        "value": "0"
                                    },
                                    {
                                        "name": "maxAmount",
                                        "type": "uint256",
                                        "value": "100,000,000,000,000,000"
                                    },
                                    {
                                        "name": "auctionDuration",
                                        "type": "uint256",
                                        "value": "9,000"
                                    },
                                    {
                                        "name": "salt",
                                        "type": "uint256",
                                        "value": "112,027,840,458,771,782,037,968,174,591,180,615,494"
                                    },
                                    {
                                        "name": "expirationTime",
                                        "type": "uint256",
                                        "value": "1,695,202,212"
                                    },
                                    {
                                        "name": "rate",
                                        "type": "uint256",
                                        "value": "0"
                                    },
                                    {
                                        "name": "oracle",
                                        "type": "address",
                                        "value": "0x473ca1d29a136b935a96380ea342f296b4eea82c"
                                    }
                                ]
                            },
                            {
                                "name": "signature",
                                "type": "bytes",
                                "value": "0xc00bf522349f033e37126efa6bef5e4e636bd5f3c2413a494e00d17562df9b0b5b0d43c564a9e0e8097dcf40ed6c385720d1bfb69afce25def867df66254f9dc1c2d0ec0f5607083bf3d53c3640b38cf641564cc6e737536a8fa82c60d04978abd7b02a49e81a9e44a8139bcaed4430039d45756ada403ef2e15af1a81e0b1d8ec1b0000000000000000000000000000000000000000000000000000000001127601"
                            }
                        ],
                        "constructorArguments": "",
                        "name": "refinance",
                        "returnParams": [],
                        "signature": "refinance((address,address,address,uint256,uint256,uint256,uint256,uint256,uint256),uint256,(address,address,uint256,uint256,uint256,uint256,uint256,uint256,uint256,address),bytes)"
                    },
                    "errorInfo": "",
                    "fromAddress": "0xe7e816de502811bb78a6f91863d2fc02d5332daf",
                    "gasUsed": 116308,
                    "id": 0,
                    "methodDecoded": true,
                    "operation": "CALL",
                    "output": "",
                    "revert": false,
                    "revertMessage": "",
                    "selector": "0x736da5ad",
                    "status": true,
                    "value": "0"
                },
                "nodeType": 0
            },
            "1": {
                "invocation": {
                    "address": "0xb258ca5559b11cd702f363796522b04d7722ea56",
                    "callData": "0x000000000000000000000000e7e816de502811bb78a6f91863d2fc02d5332daf000000000000000000000000128b55ff0c075090e1773232cb3fdd8d4e2c45ec000000000000000000000000306b1ea3ecdf94ab739f1910bbda052ed4a9f94900000000000000000000000000000000000000000000000000000000000017f7000000000000000000000000000000000000000000000000013fbe85edc900000000000000000000000000000000000000000000000000000000000064e5ed9300000000000000000000000000000000000000000000000000000000000000000000000000000000000000000000000000000000000000000000000000000000000000000000000000000000000000000000000000000000000000000000232800000000000000000000000000000000000000000000000000000000000124920000000000000000000000001711bc52bf7e0494325799717fe640f1924617b7000000000000000000000000306b1ea3ecdf94ab739f1910bbda052ed4a9f949000000000000000000000000000000000000000000000004b75e170de2fc00000000000000000000000000000000000000000000000000000000000000000000000000000000000000000000000000000000000000000000016345785d8a00000000000000000000000000000000000000000000000000000000000000002328000000000000000000000000000000005447c6fa25efb316a4fa56616d152f4600000000000000000000000000000000000000000000000000000000650abba40000000000000000000000000000000000000000000000000000000000000000000000000000000000000000473ca1d29a136b935a96380ea342f296b4eea82c00000000000000000000000000000000000000000000000000000000000002a000000000000000000000000000000000000000000000000000000000000000a2c00bf522349f033e37126efa6bef5e4e636bd5f3c2413a494e00d17562df9b0b5b0d43c564a9e0e8097dcf40ed6c385720d1bfb69afce25def867df66254f9dc1c2d0ec0f5607083bf3d53c3640b38cf641564cc6e737536a8fa82c60d04978abd7b02a49e81a9e44a8139bcaed4430039d45756ada403ef2e15af1a81e0b1d8ec1b0000000000000000000000000000000000000000000000000000000001127601000000000000000000000000000000000000000000000000000000000000",
                    "decodedMethod": {
                        "callParams": [
                            {
                                "name": "lien",
                                "type": "(address,address,address,uint256,uint256,uint256,uint256,uint256,uint256)",
                                "value": [
                                    {
                                        "name": "lender",
                                        "type": "address",
                                        "value": "0xe7e816de502811bb78a6f91863d2fc02d5332daf"
                                    },
                                    {
                                        "name": "borrower",
                                        "type": "address",
                                        "value": "0x128b55ff0c075090e1773232cb3fdd8d4e2c45ec"
                                    },
                                    {
                                        "name": "collection",
                                        "type": "address",
                                        "value": "0x306b1ea3ecdf94ab739f1910bbda052ed4a9f949"
                                    },
                                    {
                                        "name": "tokenId",
                                        "type": "uint256",
                                        "value": "6,135"
                                    },
                                    {
                                        "name": "amount",
                                        "type": "uint256",
                                        "value": "90,000,000,000,000,000"
                                    },
                                    {
                                        "name": "startTime",
                                        "type": "uint256",
                                        "value": "1,692,790,163"
                                    },
                                    {
                                        "name": "rate",
                                        "type": "uint256",
                                        "value": "0"
                                    },
                                    {
                                        "name": "auctionStartBlock",
                                        "type": "uint256",
                                        "value": "0"
                                    },
                                    {
                                        "name": "auctionDuration",
                                        "type": "uint256",
                                        "value": "9,000"
                                    }
                                ]
                            },
                            {
                                "name": "lienId",
                                "type": "uint256",
                                "value": "74,898"
                            },
                            {
                                "name": "offer",
                                "type": "(address,address,uint256,uint256,uint256,uint256,uint256,uint256,uint256,address)",
                                "value": [
                                    {
                                        "name": "lender",
                                        "type": "address",
                                        "value": "0x1711bc52bf7e0494325799717fe640f1924617b7"
                                    },
                                    {
                                        "name": "collection",
                                        "type": "address",
                                        "value": "0x306b1ea3ecdf94ab739f1910bbda052ed4a9f949"
                                    },
                                    {
                                        "name": "totalAmount",
                                        "type": "uint256",
                                        "value": "87,000,000,000,000,000,000"
                                    },
                                    {
                                        "name": "minAmount",
                                        "type": "uint256",
                                        "value": "0"
                                    },
                                    {
                                        "name": "maxAmount",
                                        "type": "uint256",
                                        "value": "100,000,000,000,000,000"
                                    },
                                    {
                                        "name": "auctionDuration",
                                        "type": "uint256",
                                        "value": "9,000"
                                    },
                                    {
                                        "name": "salt",
                                        "type": "uint256",
                                        "value": "112,027,840,458,771,782,037,968,174,591,180,615,494"
                                    },
                                    {
                                        "name": "expirationTime",
                                        "type": "uint256",
                                        "value": "1,695,202,212"
                                    },
                                    {
                                        "name": "rate",
                                        "type": "uint256",
                                        "value": "0"
                                    },
                                    {
                                        "name": "oracle",
                                        "type": "address",
                                        "value": "0x473ca1d29a136b935a96380ea342f296b4eea82c"
                                    }
                                ]
                            },
                            {
                                "name": "signature",
                                "type": "bytes",
                                "value": "0xc00bf522349f033e37126efa6bef5e4e636bd5f3c2413a494e00d17562df9b0b5b0d43c564a9e0e8097dcf40ed6c385720d1bfb69afce25def867df66254f9dc1c2d0ec0f5607083bf3d53c3640b38cf641564cc6e737536a8fa82c60d04978abd7b02a49e81a9e44a8139bcaed4430039d45756ada403ef2e15af1a81e0b1d8ec1b0000000000000000000000000000000000000000000000000000000001127601"
                            }
                        ],
                        "constructorArguments": "",
                        "name": "refinance",
                        "returnParams": [],
                        "signature": "refinance((address,address,address,uint256,uint256,uint256,uint256,uint256,uint256),uint256,(address,address,uint256,uint256,uint256,uint256,uint256,uint256,uint256,address),bytes)"
                    },
                    "errorInfo": "",
                    "fromAddress": "0x29469395eaf6f95920e59f858042f0e28d98a20b",
                    "gasUsed": 82921,
                    "id": 1,
                    "methodDecoded": true,
                    "operation": "DELEGATECALL",
                    "output": "",
                    "revert": false,
                    "revertMessage": "",
                    "selector": "0x736da5ad",
                    "status": true,
                    "value": "0"
                },
                "nodeType": 0
            },
            "2": {
                "invocation": {
                    "address": "0x5c55cd67a6bd0d4c315b50cb6cd589bfb080017e",
                    "callData": "0x000000000000000000000000000000000000000000000000013fbe85edc9000000000000000000000000000000000000000000000000000000000000000000000000000000000000000000000000000000000000000000000000000064e5ed93",
                    "decodedMethod": {
                        "callParams": [
                            {
                                "name": "amount",
                                "type": "uint256",
                                "value": "90,000,000,000,000,000"
                            },
                            {
                                "name": "rate",
                                "type": "uint256",
                                "value": "0"
                            },
                            {
                                "name": "startTime",
                                "type": "uint256",
                                "value": "1,692,790,163"
                            }
                        ],
                        "constructorArguments": "",
                        "name": "computeCurrentDebt",
                        "returnParams": [
                            {
                                "name": "",
                                "type": "uint256",
                                "value": "90,000,000,000,000,000"
                            }
                        ],
                        "signature": "computeCurrentDebt(uint256,uint256,uint256)"
                    },
                    "errorInfo": "",
                    "fromAddress": "0x29469395eaf6f95920e59f858042f0e28d98a20b",
                    "gasUsed": 1468,
                    "id": 2,
                    "methodDecoded": true,
                    "operation": "DELEGATECALL",
                    "output": "0x000000000000000000000000000000000000000000000000013fbe85edc90000",
                    "revert": false,
                    "revertMessage": "",
                    "selector": "0x1b70b278",
                    "status": true,
                    "value": "0"
                },
                "nodeType": 0
            },
            "3": {
                "invocation": {
                    "address": "0x0000000000000000000000000000000000000001",
                    "callData": "0x30fb77462f90aec7bf1c29d48a296d342d89d80cb7891537cf71717a000000000000000000000000000000000000000000000000000000000000001cc00bf522349f033e37126efa6bef5e4e636bd5f3c2413a494e00d17562df9b0b5b0d43c564a9e0e8097dcf40ed6c385720d1bfb69afce25def867df66254f9dc",
                    "decodedMethod": {
                        "callParams": [
                            {
                                "name": "hash",
                                "type": "bytes32",
                                "value": "0x8f2cb26330fb77462f90aec7bf1c29d48a296d342d89d80cb7891537cf71717a"
                            },
                            {
                                "name": "v",
                                "type": "uint256",
                                "value": "28"
                            },
                            {
                                "name": "r",
                                "type": "bytes32",
                                "value": "0xc00bf522349f033e37126efa6bef5e4e636bd5f3c2413a494e00d17562df9b0b"
                            },
                            {
                                "name": "s",
                                "type": "bytes32",
                                "value": "0x5b0d43c564a9e0e8097dcf40ed6c385720d1bfb69afce25def867df66254f9dc"
                            }
                        ],
                        "constructorArguments": "",
                        "name": "ecrecover",
                        "returnParams": [
                            {
                                "name": "",
                                "type": "address",
                                "value": "0x1711bc52bf7e0494325799717fe640f1924617b7"
                            }
                        ],
                        "signature": "ecrecover(bytes32,uint256,bytes32,bytes32)"
                    },
                    "errorInfo": "",
                    "fromAddress": "0x29469395eaf6f95920e59f858042f0e28d98a20b",
                    "gasUsed": 3000,
                    "id": 3,
                    "methodDecoded": true,
                    "operation": "STATICCALL",
                    "output": "0x0000000000000000000000001711bc52bf7e0494325799717fe640f1924617b7",
                    "revert": false,
                    "revertMessage": "",
                    "selector": "0x8f2cb263",
                    "status": true,
                    "value": "0"
                },
                "nodeType": 0
            },
            "4": {
                "invocation": {
                    "address": "0x0000000000000000000000000000000000000001",
                    "callData": "0x4775ef9ad714b56639a457d89d98f04c242d15afd6aa73316a5b0b6f000000000000000000000000000000000000000000000000000000000000001b2d0ec0f5607083bf3d53c3640b38cf641564cc6e737536a8fa82c60d04978abd7b02a49e81a9e44a8139bcaed4430039d45756ada403ef2e15af1a81e0b1d8ec",
                    "decodedMethod": {
                        "callParams": [
                            {
                                "name": "hash",
                                "type": "bytes32",
                                "value": "0x35e3c1ce4775ef9ad714b56639a457d89d98f04c242d15afd6aa73316a5b0b6f"
                            },
                            {
                                "name": "v",
                                "type": "uint256",
                                "value": "27"
                            },
                            {
                                "name": "r",
                                "type": "bytes32",
                                "value": "0x2d0ec0f5607083bf3d53c3640b38cf641564cc6e737536a8fa82c60d04978abd"
                            },
                            {
                                "name": "s",
                                "type": "bytes32",
                                "value": "0x7b02a49e81a9e44a8139bcaed4430039d45756ada403ef2e15af1a81e0b1d8ec"
                            }
                        ],
                        "constructorArguments": "",
                        "name": "ecrecover",
                        "returnParams": [
                            {
                                "name": "",
                                "type": "address",
                                "value": "0x473ca1d29a136b935a96380ea342f296b4eea82c"
                            }
                        ],
                        "signature": "ecrecover(bytes32,uint256,bytes32,bytes32)"
                    },
                    "errorInfo": "",
                    "fromAddress": "0x29469395eaf6f95920e59f858042f0e28d98a20b",
                    "gasUsed": 3000,
                    "id": 4,
                    "methodDecoded": true,
                    "operation": "STATICCALL",
                    "output": "0x000000000000000000000000473ca1d29a136b935a96380ea342f296b4eea82c",
                    "revert": false,
                    "revertMessage": "",
                    "selector": "0x35e3c1ce",
                    "status": true,
                    "value": "0"
                },
                "nodeType": 0
            },
            "5": {
                "event": {
                    "contract": "0x29469395eaf6f95920e59f858042f0e28d98a20b",
                    "decodedLog": {
                        "name": "LoanOfferTaken",
                        "params": [
                            {
                                "name": "offerHash",
                                "type": "bytes32",
                                "value": "0x3a3fd694cf8a8d20e07951ff423164e9de1aaa00829f2d534a7f436aec819180"
                            },
                            {
                                "name": "lienId",
                                "type": "uint256",
                                "value": "74,898"
                            },
                            {
                                "name": "collection",
                                "type": "address",
                                "value": "0x306b1ea3ecdf94ab739f1910bbda052ed4a9f949"
                            },
                            {
                                "name": "lender",
                                "type": "address",
                                "value": "0x1711bc52bf7e0494325799717fe640f1924617b7"
                            },
                            {
                                "name": "borrower",
                                "type": "address",
                                "value": "0x128b55ff0c075090e1773232cb3fdd8d4e2c45ec"
                            },
                            {
                                "name": "loanAmount",
                                "type": "uint256",
                                "value": "90,000,000,000,000,000"
                            },
                            {
                                "name": "rate",
                                "type": "uint256",
                                "value": "0"
                            },
                            {
                                "name": "tokenId",
                                "type": "uint256",
                                "value": "6,135"
                            },
                            {
                                "name": "auctionDuration",
                                "type": "uint256",
                                "value": "9,000"
                            }
                        ],
                        "signature": "LoanOfferTaken(bytes32,uint256,address,address,address,uint256,uint256,uint256,uint256)"
                    },
                    "id": 5,
                    "logData": "0x3a3fd694cf8a8d20e07951ff423164e9de1aaa00829f2d534a7f436aec8191800000000000000000000000000000000000000000000000000000000000012492000000000000000000000000306b1ea3ecdf94ab739f1910bbda052ed4a9f9490000000000000000000000001711bc52bf7e0494325799717fe640f1924617b7000000000000000000000000128b55ff0c075090e1773232cb3fdd8d4e2c45ec000000000000000000000000000000000000000000000000013fbe85edc90000000000000000000000000000000000000000000000000000000000000000000000000000000000000000000000000000000000000000000000000000000017f70000000000000000000000000000000000000000000000000000000000002328",
                    "logDecoded": true,
                    "operation": "EVENT",
                    "revert": false,
                    "status": true,
                    "topics": [
                        "0x06a333c2d6fe967ca967f7a35be2eb45e8caeb6cf05e16f55d42b91b5fe31255"
                    ]
                },
                "nodeType": 1
            },
            "6": {
                "event": {
                    "contract": "0x29469395eaf6f95920e59f858042f0e28d98a20b",
                    "decodedLog": {
                        "name": "Refinance",
                        "params": [
                            {
                                "name": "loanId",
                                "type": "uint256",
                                "value": "74,898"
                            },
                            {
                                "name": "collateral",
                                "type": "address",
                                "value": "0x306b1ea3ecdf94ab739f1910bbda052ed4a9f949"
                            },
                            {
                                "name": "newLender",
                                "type": "address",
                                "value": "0x1711bc52bf7e0494325799717fe640f1924617b7"
                            },
                            {
                                "name": "newAmount",
                                "type": "uint256",
                                "value": "90,000,000,000,000,000"
                            },
                            {
                                "name": "newRate",
                                "type": "uint256",
                                "value": "0"
                            },
                            {
                                "name": "newAuctionDuration",
                                "type": "uint256",
                                "value": "9,000"
                            }
                        ],
                        "signature": "Refinance(uint256,address,address,uint256,uint256,uint256)"
                    },
                    "id": 6,
                    "logData": "0x0000000000000000000000000000000000000000000000000000000000012492000000000000000000000000306b1ea3ecdf94ab739f1910bbda052ed4a9f9490000000000000000000000001711bc52bf7e0494325799717fe640f1924617b7000000000000000000000000000000000000000000000000013fbe85edc9000000000000000000000000000000000000000000000000000000000000000000000000000000000000000000000000000000000000000000000000000000002328",
                    "logDecoded": true,
                    "operation": "EVENT",
                    "revert": false,
                    "status": true,
                    "topics": [
                        "0x558a9295c62e9e1b12a21c8fe816f4816a2e0269a53157edbfa16017b11b9ac9"
                    ]
                },
                "nodeType": 1
            },
            "7": {
                "invocation": {
                    "address": "0x0000000000a39bb272e79075ade125fd351887ac",
                    "callData": "0x0000000000000000000000001711bc52bf7e0494325799717fe640f1924617b7000000000000000000000000e7e816de502811bb78a6f91863d2fc02d5332daf000000000000000000000000000000000000000000000000013fbe85edc90000",
                    "decodedMethod": {
                        "callParams": [
                            {
                                "name": "from",
                                "type": "address",
                                "value": "0x1711bc52bf7e0494325799717fe640f1924617b7"
                            },
                            {
                                "name": "to",
                                "type": "address",
                                "value": "0xe7e816de502811bb78a6f91863d2fc02d5332daf"
                            },
                            {
                                "decimalAvailable": true,
                                "name": "amount",
                                "type": "uint256",
                                "value": "90,000,000,000,000,000"
                            }
                        ],
                        "constructorArguments": "",
                        "name": "transferFrom",
                        "returnParams": [
                            {
                                "name": "",
                                "type": "bool",
                                "value": true
                            }
                        ],
                        "signature": "transferFrom(address,address,uint256)"
                    },
                    "errorInfo": "",
                    "fromAddress": "0x29469395eaf6f95920e59f858042f0e28d98a20b",
                    "gasUsed": 17864,
                    "id": 7,
                    "methodDecoded": true,
                    "operation": "CALL",
                    "output": "0x0000000000000000000000000000000000000000000000000000000000000001",
                    "revert": false,
                    "revertMessage": "",
                    "selector": "0x23b872dd",
                    "status": true,
                    "value": "0"
                },
                "nodeType": 0
            },
            "8": {
                "invocation": {
                    "address": "0x01a656024de4b89e2d0198bf4d468e8fd2358b17",
                    "callData": "0x0000000000000000000000001711bc52bf7e0494325799717fe640f1924617b7000000000000000000000000e7e816de502811bb78a6f91863d2fc02d5332daf000000000000000000000000000000000000000000000000013fbe85edc90000",
                    "decodedMethod": {
                        "callParams": [
                            {
                                "name": "from",
                                "type": "address",
                                "value": "0x1711bc52bf7e0494325799717fe640f1924617b7"
                            },
                            {
                                "name": "to",
                                "type": "address",
                                "value": "0xe7e816de502811bb78a6f91863d2fc02d5332daf"
                            },
                            {
                                "decimalAvailable": true,
                                "name": "amount",
                                "type": "uint256",
                                "value": "90,000,000,000,000,000"
                            }
                        ],
                        "constructorArguments": "",
                        "name": "transferFrom",
                        "returnParams": [
                            {
                                "name": "",
                                "type": "bool",
                                "value": true
                            }
                        ],
                        "signature": "transferFrom(address,address,uint256)"
                    },
                    "errorInfo": "",
                    "fromAddress": "0x0000000000a39bb272e79075ade125fd351887ac",
                    "gasUsed": 12969,
                    "id": 8,
                    "methodDecoded": true,
                    "operation": "DELEGATECALL",
                    "output": "0x0000000000000000000000000000000000000000000000000000000000000001",
                    "revert": false,
                    "revertMessage": "",
                    "selector": "0x23b872dd",
                    "status": true,
                    "value": "0"
                },
                "nodeType": 0
            },
            "9": {
                "event": {
                    "contract": "0x0000000000a39bb272e79075ade125fd351887ac",
                    "decodedLog": {
                        "name": "Transfer",
                        "params": [
                            {
                                "name": "from",
                                "type": "address",
                                "value": "0x1711bc52bf7e0494325799717fe640f1924617b7"
                            },
                            {
                                "name": "to",
                                "type": "address",
                                "value": "0xe7e816de502811bb78a6f91863d2fc02d5332daf"
                            },
                            {
                                "decimalAvailable": true,
                                "name": "value",
                                "type": "uint256",
                                "value": "90,000,000,000,000,000"
                            }
                        ],
                        "signature": "Transfer(address,address,uint256)"
                    },
                    "id": 9,
                    "logData": "0x000000000000000000000000000000000000000000000000013fbe85edc90000",
                    "logDecoded": true,
                    "operation": "EVENT",
                    "revert": false,
                    "status": true,
                    "topics": [
                        "0xddf252ad1be2c89b69c2b068fc378daa952ba7f163c4a11628f55a4df523b3ef",
                        "0x0000000000000000000000001711bc52bf7e0494325799717fe640f1924617b7",
                        "0x000000000000000000000000e7e816de502811bb78a6f91863d2fc02d5332daf"
                    ]
                },
                "nodeType": 1
            }
        },
        "gasFlame": [
            {
                "children": [
                    {
                        "children": [
                            {
                                "children": [],
                                "depth": 0,
                                "name": "Initial Gas",
                                "value": 28332
                            },
                            {
                                "children": [
                                    {
                                        "children": [
                                            {
                                                "children": [],
                                                "depth": 2,
                                                "name": "computeCurrentDebt",
                                                "value": 1468
                                            },
                                            {
                                                "children": [],
                                                "depth": 2,
                                                "name": "ecrecover",
                                                "value": 3000
                                            },
                                            {
                                                "children": [],
                                                "depth": 2,
                                                "name": "ecrecover",
                                                "value": 3000
                                            },
                                            {
                                                "children": [
                                                    {
                                                        "children": [],
                                                        "depth": 3,
                                                        "name": "transferFrom",
                                                        "value": 12969
                                                    }
                                                ],
                                                "depth": 2,
                                                "name": "transferFrom",
                                                "value": 17864
                                            }
                                        ],
                                        "depth": 1,
                                        "name": "refinance",
                                        "value": 82921
                                    }
                                ],
                                "depth": 0,
                                "name": "Executed Gas",
                                "value": 87976
                            }
                        ],
                        "depth": -1,
                        "name": "Actual Gas Used",
                        "value": 116308
                    },
                    {
                        "children": [],
                        "depth": -1,
                        "name": "Refunded Gas",
                        "value": 0
                    }
                ],
                "depth": -2,
                "name": "Total Gas",
                "value": 116308
            }
        ],
        "isConfirmed": true,
        "mainTrace": [
            {
                "children": [
                    {
                        "children": [
                            {
                                "children": [
                                    {
                                        "children": [],
                                        "depth": 2,
                                        "id": 2,
                                        "order": 2
                                    },
                                    {
                                        "children": [],
                                        "depth": 2,
                                        "id": 3,
                                        "order": 3
                                    },
                                    {
                                        "children": [],
                                        "depth": 2,
                                        "id": 4,
                                        "order": 4
                                    },
                                    {
                                        "children": [],
                                        "depth": 2,
                                        "id": 5,
                                        "order": 5
                                    },
                                    {
                                        "children": [],
                                        "depth": 2,
                                        "id": 6,
                                        "order": 6
                                    },
                                    {
                                        "children": [
                                            {
                                                "children": [
                                                    {
                                                        "children": [],
                                                        "depth": 4,
                                                        "id": 9,
                                                        "order": 9
                                                    }
                                                ],
                                                "depth": 3,
                                                "id": 8,
                                                "order": 8
                                            }
                                        ],
                                        "depth": 2,
                                        "id": 7,
                                        "order": 7
                                    }
                                ],
                                "depth": 1,
                                "id": 1,
                                "order": 1
                            }
                        ],
                        "depth": 0,
                        "id": 0,
                        "order": 0
                    }
                ],
                "depth": -1,
                "id": -1,
                "order": -1
            }
        ],
        "mainTraceNodeCount": 10,
        "parentIdMap": {
            "0": -1,
            "1": 0,
            "2": 1,
            "3": 1,
            "4": 1,
            "5": 1,
            "6": 1,
            "7": 1,
            "8": 7,
            "9": 8
        },
        "tidyTrace": [
            {
                "children": [
                    {
                        "children": [
                            {
                                "children": [
                                    {
                                        "children": [],
                                        "depth": 2,
                                        "id": 2,
                                        "order": 2
                                    },
                                    {
                                        "children": [],
                                        "depth": 2,
                                        "id": 5,
                                        "order": 5
                                    },
                                    {
                                        "children": [],
                                        "depth": 2,
                                        "id": 6,
                                        "order": 6
                                    },
                                    {
                                        "children": [
                                            {
                                                "children": [
                                                    {
                                                        "children": [],
                                                        "depth": 4,
                                                        "id": 9,
                                                        "order": 9
                                                    }
                                                ],
                                                "depth": 3,
                                                "id": 8,
                                                "order": 8
                                            }
                                        ],
                                        "depth": 2,
                                        "id": 7,
                                        "order": 7
                                    }
                                ],
                                "depth": 1,
                                "id": 1,
                                "order": 1
                            }
                        ],
                        "depth": 0,
                        "id": 0,
                        "order": 0
                    }
                ],
                "depth": -1,
                "id": -1,
                "order": -1
            }
        ],
        "tidyTraceNodeCount": 8
    },
    "state_change": {
        "stateChanges": [
            {
                "address": "0x0000000000a39bb272e79075ade125fd351887ac",
                "erc": "",
                "slots": [
                    {
                        "current": "0x000000000000000000000000000000000000000000000003c609a45cc76eb5ee",
                        "key": "0xdfd09eef78dca4335bf4a67d9eee34f9a1a3c20867a5bae7689a50523e494ed4",
                        "prev": "0x000000000000000000000000000000000000000000000003c74962e2b537b5ee"
                    },
                    {
                        "current": "0x000000000000000000000000000000000000000000000000b1ffb811014ea1c1",
                        "key": "0x7e062fb61e54f2f5c99727fee9261c597dc17b27a59a0d165af752a54d25e0af",
                        "prev": "0x000000000000000000000000000000000000000000000000b0bff98b1385a1c1"
                    }
                ],
                "storageVariables": [
                    {
                        "name": "_balances",
                        "type": "mapping(address => uint256)",
                        "value": {
                            "pairs": [
                                {
                                    "key": "0x1711bc52bf7e0494325799717fe640f1924617b7",
                                    "value": {
                                        "current": "69610349833818650094",
                                        "prev": "69700349833818650094",
                                        "typeTag": 1
                                    }
                                },
                                {
                                    "key": "0xe7e816de502811bb78a6f91863d2fc02d5332daf",
                                    "value": {
                                        "current": "12826172646950347201",
                                        "prev": "12736172646950347201",
                                        "typeTag": 1
                                    }
                                }
                            ],
                            "typeTag": 4
                        }
                    }
                ]
            },
            {
                "address": "0x29469395eaf6f95920e59f858042f0e28d98a20b",
                "erc": "",
                "slots": [
                    {
                        "current": "0xe3563819436d25d51fa9c6557f83c4ad230e6d51dd1353391ae5d73dd9199f3d",
                        "key": "0xf44e39662939028334925cfe545663717772dbab8f9742b898e173c8850aae35",
                        "prev": "0x25914316b4c98bf54ab5b39ebb472d7884f4805bd1cb66c4617eaa624df0bfe9"
                    },
                    {
                        "current": "0x000000000000000000000000000000000000000000000000013fbe85edc90000",
                        "key": "0xc608d13be9382b0550a268635f58a5a10f66d400c62792e7cea08d25d32b6af4",
                        "prev": "0x0000000000000000000000000000000000000000000000000000000000000000"
                    }
                ],
                "storageVariables": [
                    {
                        "name": "amountTaken",
                        "type": "mapping(bytes32 => uint256)",
                        "value": {
                            "pairs": [
                                {
                                    "key": "0x3a3fd694cf8a8d20e07951ff423164e9de1aaa00829f2d534a7f436aec819180",
                                    "value": {
                                        "current": "90000000000000000",
                                        "prev": "0",
                                        "typeTag": 1
                                    }
                                }
                            ],
                            "typeTag": 4
                        }
                    },
                    {
                        "name": "liens",
                        "type": "mapping(uint256 => bytes32)",
                        "value": {
                            "pairs": [
                                {
                                    "key": "74898",
                                    "value": {
                                        "current": "0xe3563819436d25d51fa9c6557f83c4ad230e6d51dd1353391ae5d73dd9199f3d",
                                        "prev": "0x25914316b4c98bf54ab5b39ebb472d7884f4805bd1cb66c4617eaa624df0bfe9",
                                        "typeTag": 1
                                    }
                                }
                            ],
                            "typeTag": 4
                        }
                    }
                ]
            }
        ]
    }
}