{
    "balance_change": {
        "balanceChanges": [
            {
                "account": "0x2ea4889df9d2d8dd1a96d7db2b51dcb9b7a85172",
                "assets": [
                    {
                        "address": "0xf61f24c2d93bf2de187546b14425bf631f28d6dc",
                        "amount": "1",
                        "iconUrl": "https://assets.blocksec.com/nft/icon/nft_44f429b0-18dc-4c29-83d4-24c804380923.png",
                        "isERC1155": false,
                        "isERC721": true,
                        "sign": true,
                        "tokenID": "5102",
                        "value": ""
                    },
                    {
                        "address": "0xf61f24c2d93bf2de187546b14425bf631f28d6dc",
                        "amount": "1",
                        "iconUrl": "https://assets.blocksec.com/nft/icon/nft_44f429b0-18dc-4c29-83d4-24c804380923.png",
                        "isERC1155": false,
                        "isERC721": true,
                        "sign": true,
                        "tokenID": "3517",
                        "value": ""
                    },
                    {
                        "address": "0xf61f24c2d93bf2de187546b14425bf631f28d6dc",
                        "amount": "1",
                        "iconUrl": "https://assets.blocksec.com/nft/icon/nft_44f429b0-18dc-4c29-83d4-24c804380923.png",
                        "isERC1155": false,
                        "isERC721": true,
                        "sign": true,
                        "tokenID": "2970",
                        "value": ""
                    },
                    {
                        "address": "0xf61f24c2d93bf2de187546b14425bf631f28d6dc",
                        "amount": "1",
                        "iconUrl": "https://assets.blocksec.com/nft/icon/nft_44f429b0-18dc-4c29-83d4-24c804380923.png",
                        "isERC1155": false,
                        "isERC721": true,
                        "sign": true,
                        "tokenID": "9726",
                        "value": ""
                    }
                ]
            },
            {
                "account": "0x0000000000000000000000000000000000000000",
                "assets": [
                    {
                        "address": "0xf61f24c2d93bf2de187546b14425bf631f28d6dc",
                        "amount": "1",
                        "iconUrl": "https://assets.blocksec.com/nft/icon/nft_44f429b0-18dc-4c29-83d4-24c804380923.png",
                        "isERC1155": false,
                        "isERC721": true,
                        "sign": false,
                        "tokenID": "2970",
                        "value": ""
                    },
                    {
                        "address": "0xf61f24c2d93bf2de187546b14425bf631f28d6dc",
                        "amount": "1",
                        "iconUrl": "https://assets.blocksec.com/nft/icon/nft_44f429b0-18dc-4c29-83d4-24c804380923.png",
                        "isERC1155": false,
                        "isERC721": true,
                        "sign": false,
                        "tokenID": "9726",
                        "value": ""
                    },
                    {
                        "address": "0xf61f24c2d93bf2de187546b14425bf631f28d6dc",
                        "amount": "1",
                        "iconUrl": "https://assets.blocksec.com/nft/icon/nft_44f429b0-18dc-4c29-83d4-24c804380923.png",
                        "isERC1155": false,
                        "isERC721": true,
                        "sign": false,
                        "tokenID": "5102",
                        "value": ""
                    },
                    {
                        "address": "0xf61f24c2d93bf2de187546b14425bf631f28d6dc",
                        "amount": "1",
                        "iconUrl": "https://assets.blocksec.com/nft/icon/nft_44f429b0-18dc-4c29-83d4-24c804380923.png",
                        "isERC1155": false,
                        "isERC721": true,
                        "sign": false,
                        "tokenID": "3517",
                        "value": ""
                    }
                ]
            }
        ]
    },
    "profile": {
        "basic_info": {
            "baseFee": "48.539930911",
            "blockNumber": 14463362,
            "callData": "0xeb0b7b2f0000000000000000000000000000000000000000000000000000000000000020000000000000000000000000000000000000000000000000000000000000000400000000000000000000000000000000000000000000000000000000000013ee0000000000000000000000000000000000000000000000000000000000000dbd0000000000000000000000000000000000000000000000000000000000000b9a00000000000000000000000000000000000000000000000000000000000025fe",
            "debugEnable": true,
            "errorInfo": "",
            "eventCount": 4,
            "feeRecipient": "0x433022c4066558e7a32d850f02d2da5ca782174d",
            "formatValue": "0",
            "gasLimit": 627345,
            "gasPrice": "50.539930911",
            "gasUsed": 517800,
            "intTxnCount": 4,
            "internalRevert": false,
            "internalRevertMessage": "",
            "isContractCreation": false,
            "isFlashloan": false,
            "maxFee": "65",
            "nonce": 92,
            "overwritedBlockNumber": -1,
            "priorityFee": "2",
            "receiver": "0xf61f24c2d93bf2de187546b14425bf631f28d6dc",
            "revertMessage": "",
            "sender": "0x2ea4889df9d2d8dd1a96d7db2b51dcb9b7a85172",
            "simulationEnable": true,
            "sourceTxnHash": "0x67713662e2e067f4b5aff60d55e733bc60cdec9840d4a70801a44360b90bb605",
            "status": true,
            "timestamp": "2022-03-26T18:07:23Z",
            "transactionFee": "0.0261695762257158",
            "txnHash": "0x67713662e2e067f4b5aff60d55e733bc60cdec9840d4a70801a44360b90bb605",
            "txnIndex": 191,
            "type": 2,
            "value": "0"
        },
        "fund_flow": [
            {
                "amount": "1",
                "from": "0x0000000000000000000000000000000000000000",
                "id": 1,
                "isERC1155": false,
                "isERC721": true,
                "isReverted": false,
                "order": 1,
                "to": "0x2ea4889df9d2d8dd1a96d7db2b51dcb9b7a85172",
                "token": "0xf61f24c2d93bf2de187546b14425bf631f28d6dc",
                "tokenID": "5102"
            },
            {
                "amount": "1",
                "from": "0x0000000000000000000000000000000000000000",
                "id": 2,
                "isERC1155": false,
                "isERC721": true,
                "isReverted": false,
                "order": 2,
                "to": "0x2ea4889df9d2d8dd1a96d7db2b51dcb9b7a85172",
                "token": "0xf61f24c2d93bf2de187546b14425bf631f28d6dc",
                "tokenID": "3517"
            },
            {
                "amount": "1",
                "from": "0x0000000000000000000000000000000000000000",
                "id": 3,
                "isERC1155": false,
                "isERC721": true,
                "isReverted": false,
                "order": 3,
                "to": "0x2ea4889df9d2d8dd1a96d7db2b51dcb9b7a85172",
                "token": "0xf61f24c2d93bf2de187546b14425bf631f28d6dc",
                "tokenID": "2970"
            },
            {
                "amount": "1",
                "from": "0x0000000000000000000000000000000000000000",
                "id": 4,
                "isERC1155": false,
                "isERC721": true,
                "isReverted": false,
                "order": 4,
                "to": "0x2ea4889df9d2d8dd1a96d7db2b51dcb9b7a85172",
                "token": "0xf61f24c2d93bf2de187546b14425bf631f28d6dc",
                "tokenID": "9726"
            }
        ],
        "token_infos": [
            {
                "address": "0xeeeeeeeeeeeeeeeeeeeeeeeeeeeeeeeeeeeeeeee",
                "decimals": 18
            },
            {
                "address": "0xc02aaa39b223fe8d0a0e5c4f27ead9083c756cc2",
                "decimals": 18
            }
        ]
    },
    "address_label": {
        "labels": [
            {
                "address": "0x0000000000000000000000000000000000000003",
                "label": "Precompiled"
            },
            {
                "address": "0x0000000000000000000000000000000000000004",
                "label": "Precompiled"
            },
            {
                "address": "0xeeeeeeeeeeeeeeeeeeeeeeeeeeeeeeeeeeeeeeee",
                "label": "Ether"
            },
            {
                "address": "0xe785e82358879f061bc3dcac6f0444462d4b5330",
                "label": "World of Women: WOW Token"
            },
            {
                "address": "0xf61f24c2d93bf2de187546b14425bf631f28d6dc",
                "label": "World Of Women: WOWG Token"
            },
            {
                "address": "0x0000000000000000000000000000000000000001",
                "label": "Precompiled"
            },
            {
                "address": "0x0000000000000000000000000000000000000002",
                "label": "Precompiled"
            }
        ]
    },
    "trace": {
        "accountLabels": null,
        "dataMap": {
            "-1": {
                "invocation": {
                    "address": "0x2ea4889df9d2d8dd1a96d7db2b51dcb9b7a85172",
                    "callData": "",
                    "decodedMethod": null,
                    "errorInfo": "",
                    "fromAddress": "",
                    "gasUsed": 0,
                    "id": -1,
                    "methodDecoded": false,
                    "operation": "",
                    "output": "",
                    "revert": false,
                    "revertMessage": "",
                    "selector": "",
                    "status": false,
                    "value": ""
                },
                "nodeType": 0
            },
            "0": {
                "invocation": {
                    "address": "0xf61f24c2d93bf2de187546b14425bf631f28d6dc",
                    "callData": "0x0000000000000000000000000000000000000000000000000000000000000020000000000000000000000000000000000000000000000000000000000000000400000000000000000000000000000000000000000000000000000000000013ee0000000000000000000000000000000000000000000000000000000000000dbd0000000000000000000000000000000000000000000000000000000000000b9a00000000000000000000000000000000000000000000000000000000000025fe",
                    "decodedMethod": {
                        "callParams": [
                            {
                                "name": "_tokenIDs",
                                "type": "uint256[]",
                                "value": [
                                    "5,102",
                                    "3,517",
                                    "2,970",
                                    "9,726"
                                ]
                            }
                        ],
                        "constructorArguments": "",
                        "name": "freeClaimMint",
                        "returnParams": [],
                        "signature": "freeClaimMint(uint256[])"
                    },
                    "errorInfo": "",
                    "fromAddress": "0x2ea4889df9d2d8dd1a96d7db2b51dcb9b7a85172",
                    "gasUsed": 517800,
                    "id": 0,
                    "methodDecoded": true,
                    "operation": "CALL",
                    "output": "",
                    "revert": false,
                    "revertMessage": "",
                    "selector": "0xeb0b7b2f",
                    "status": true,
                    "value": "0"
                },
                "nodeType": 0
            },
            "1": {
                "invocation": {
                    "address": "0xe785e82358879f061bc3dcac6f0444462d4b5330",
                    "callData": "0x00000000000000000000000000000000000000000000000000000000000013ee",
                    "decodedMethod": {
                        "callParams": [
                            {
                                "name": "tokenId",
                                "type": "uint256",
                                "value": "5,102"
                            }
                        ],
                        "constructorArguments": "",
                        "name": "ownerOf",
                        "returnParams": [
                            {
                                "name": "",
                                "type": "address",
                                "value": "0x2ea4889df9d2d8dd1a96d7db2b51dcb9b7a85172"
                            }
                        ],
                        "signature": "ownerOf(uint256)"
                    },
                    "errorInfo": "",
                    "fromAddress": "0xf61f24c2d93bf2de187546b14425bf631f28d6dc",
                    "gasUsed": 3005,
                    "id": 1,
                    "methodDecoded": true,
                    "operation": "STATICCALL",
                    "output": "0x0000000000000000000000002ea4889df9d2d8dd1a96d7db2b51dcb9b7a85172",
                    "revert": false,
                    "revertMessage": "",
                    "selector": "0x6352211e",
                    "status": true,
                    "value": "0"
                },
                "nodeType": 0
            },
            "2": {
                "event": {
                    "contract": "0xf61f24c2d93bf2de187546b14425bf631f28d6dc",
                    "decodedLog": {
                        "name": "Transfer",
                        "params": [
                            {
                                "name": "from",
                                "type": "address",
                                "value": "0x0000000000000000000000000000000000000000"
                            },
                            {
                                "name": "to",
                                "type": "address",
                                "value": "0x2ea4889df9d2d8dd1a96d7db2b51dcb9b7a85172"
                            },
                            {
                                "decimalAvailable": true,
                                "name": "tokenId",
                                "type": "uint256",
                                "value": "5,102"
                            }
                        ],
                        "signature": "Transfer(address,address,uint256)"
                    },
                    "id": 2,
                    "logData": "0x",
                    "logDecoded": true,
                    "operation": "EVENT",
                    "revert": false,
                    "status": true,
                    "topics": [
                        "0xddf252ad1be2c89b69c2b068fc378daa952ba7f163c4a11628f55a4df523b3ef",
                        "0x0000000000000000000000000000000000000000000000000000000000000000",
                        "0x0000000000000000000000002ea4889df9d2d8dd1a96d7db2b51dcb9b7a85172",
                        "0x00000000000000000000000000000000000000000000000000000000000013ee"
                    ]
                },
                "nodeType": 1
            },
            "3": {
                "invocation": {
                    "address": "0xe785e82358879f061bc3dcac6f0444462d4b5330",
                    "callData": "0x0000000000000000000000000000000000000000000000000000000000000dbd",
                    "decodedMethod": {
                        "callParams": [
                            {
                                "name": "tokenId",
                                "type": "uint256",
                                "value": "3,517"
                            }
                        ],
                        "constructorArguments": "",
                        "name": "ownerOf",
                        "returnParams": [
                            {
                                "name": "",
                                "type": "address",
                                "value": "0x2ea4889df9d2d8dd1a96d7db2b51dcb9b7a85172"
                            }
                        ],
                        "signature": "ownerOf(uint256)"
                    },
                    "errorInfo": "",
                    "fromAddress": "0xf61f24c2d93bf2de187546b14425bf631f28d6dc",
                    "gasUsed": 3005,
                    "id": 3,
                    "methodDecoded": true,
                    "operation": "STATICCALL",
                    "output": "0x0000000000000000000000002ea4889df9d2d8dd1a96d7db2b51dcb9b7a85172",
                    "revert": false,
                    "revertMessage": "",
                    "selector": "0x6352211e",
                    "status": true,
                    "value": "0"
                },
                "nodeType": 0
            },
            "4": {
                "event": {
                    "contract": "0xf61f24c2d93bf2de187546b14425bf631f28d6dc",
                    "decodedLog": {
                        "name": "Transfer",
                        "params": [
                            {
                                "name": "from",
                                "type": "address",
                                "value": "0x0000000000000000000000000000000000000000"
                            },
                            {
                                "name": "to",
                                "type": "address",
                                "value": "0x2ea4889df9d2d8dd1a96d7db2b51dcb9b7a85172"
                            },
                            {
                                "decimalAvailable": true,
                                "name": "tokenId",
                                "type": "uint256",
                                "value": "3,517"
                            }
                        ],
                        "signature": "Transfer(address,address,uint256)"
                    },
                    "id": 4,
                    "logData": "0x",
                    "logDecoded": true,
                    "operation": "EVENT",
                    "revert": false,
                    "status": true,
                    "topics": [
                        "0xddf252ad1be2c89b69c2b068fc378daa952ba7f163c4a11628f55a4df523b3ef",
                        "0x0000000000000000000000000000000000000000000000000000000000000000",
                        "0x0000000000000000000000002ea4889df9d2d8dd1a96d7db2b51dcb9b7a85172",
                        "0x0000000000000000000000000000000000000000000000000000000000000dbd"
                    ]
                },
                "nodeType": 1
            },
            "5": {
                "invocation": {
                    "address": "0xe785e82358879f061bc3dcac6f0444462d4b5330",
                    "callData": "0x0000000000000000000000000000000000000000000000000000000000000b9a",
                    "decodedMethod": {
                        "callParams": [
                            {
                                "name": "tokenId",
                                "type": "uint256",
                                "value": "2,970"
                            }
                        ],
                        "constructorArguments": "",
                        "name": "ownerOf",
                        "returnParams": [
                            {
                                "name": "",
                                "type": "address",
                                "value": "0x2ea4889df9d2d8dd1a96d7db2b51dcb9b7a85172"
                            }
                        ],
                        "signature": "ownerOf(uint256)"
                    },
                    "errorInfo": "",
                    "fromAddress": "0xf61f24c2d93bf2de187546b14425bf631f28d6dc",
                    "gasUsed": 3005,
                    "id": 5,
                    "methodDecoded": true,
                    "operation": "STATICCALL",
                    "output": "0x0000000000000000000000002ea4889df9d2d8dd1a96d7db2b51dcb9b7a85172",
                    "revert": false,
                    "revertMessage": "",
                    "selector": "0x6352211e",
                    "status": true,
                    "value": "0"
                },
                "nodeType": 0
            },
            "6": {
                "event": {
                    "contract": "0xf61f24c2d93bf2de187546b14425bf631f28d6dc",
                    "decodedLog": {
                        "name": "Transfer",
                        "params": [
                            {
                                "name": "from",
                                "type": "address",
                                "value": "0x0000000000000000000000000000000000000000"
                            },
                            {
                                "name": "to",
                                "type": "address",
                                "value": "0x2ea4889df9d2d8dd1a96d7db2b51dcb9b7a85172"
                            },
                            {
                                "decimalAvailable": true,
                                "name": "tokenId",
                                "type": "uint256",
                                "value": "2,970"
                            }
                        ],
                        "signature": "Transfer(address,address,uint256)"
                    },
                    "id": 6,
                    "logData": "0x",
                    "logDecoded": true,
                    "operation": "EVENT",
                    "revert": false,
                    "status": true,
                    "topics": [
                        "0xddf252ad1be2c89b69c2b068fc378daa952ba7f163c4a11628f55a4df523b3ef",
                        "0x0000000000000000000000000000000000000000000000000000000000000000",
                        "0x0000000000000000000000002ea4889df9d2d8dd1a96d7db2b51dcb9b7a85172",
                        "0x0000000000000000000000000000000000000000000000000000000000000b9a"
                    ]
                },
                "nodeType": 1
            },
            "7": {
                "invocation": {
                    "address": "0xe785e82358879f061bc3dcac6f0444462d4b5330",
                    "callData": "0x00000000000000000000000000000000000000000000000000000000000025fe",
                    "decodedMethod": {
                        "callParams": [
                            {
                                "name": "tokenId",
                                "type": "uint256",
                                "value": "9,726"
                            }
                        ],
                        "constructorArguments": "",
                        "name": "ownerOf",
                        "returnParams": [
                            {
                                "name": "",
                                "type": "address",
                                "value": "0x2ea4889df9d2d8dd1a96d7db2b51dcb9b7a85172"
                            }
                        ],
                        "signature": "ownerOf(uint256)"
                    },
                    "errorInfo": "",
                    "fromAddress": "0xf61f24c2d93bf2de187546b14425bf631f28d6dc",
                    "gasUsed": 3005,
                    "id": 7,
                    "methodDecoded": true,
                    "operation": "STATICCALL",
                    "output": "0x0000000000000000000000002ea4889df9d2d8dd1a96d7db2b51dcb9b7a85172",
                    "revert": false,
                    "revertMessage": "",
                    "selector": "0x6352211e",
                    "status": true,
                    "value": "0"
                },
                "nodeType": 0
            },
            "8": {
                "event": {
                    "contract": "0xf61f24c2d93bf2de187546b14425bf631f28d6dc",
                    "decodedLog": {
                        "name": "Transfer",
                        "params": [
                            {
                                "name": "from",
                                "type": "address",
                                "value": "0x0000000000000000000000000000000000000000"
                            },
                            {
                                "name": "to",
                                "type": "address",
                                "value": "0x2ea4889df9d2d8dd1a96d7db2b51dcb9b7a85172"
                            },
                            {
                                "decimalAvailable": true,
                                "name": "tokenId",
                                "type": "uint256",
                                "value": "9,726"
                            }
                        ],
                        "signature": "Transfer(address,address,uint256)"
                    },
                    "id": 8,
                    "logData": "0x",
                    "logDecoded": true,
                    "operation": "EVENT",
                    "revert": false,
                    "status": true,
                    "topics": [
                        "0xddf252ad1be2c89b69c2b068fc378daa952ba7f163c4a11628f55a4df523b3ef",
                        "0x0000000000000000000000000000000000000000000000000000000000000000",
                        "0x0000000000000000000000002ea4889df9d2d8dd1a96d7db2b51dcb9b7a85172",
                        "0x00000000000000000000000000000000000000000000000000000000000025fe"
                    ]
                },
                "nodeType": 1
            }
        },
        "gasFlame": [
            {
                "children": [
                    {
                        "children": [
                            {
                                "children": [],
                                "depth": 0,
                                "name": "Initial Gas",
                                "value": 21952
                            },
                            {
                                "children": [
                                    {
                                        "children": [],
                                        "depth": 1,
                                        "name": "ownerOf",
                                        "value": 3005
                                    },
                                    {
                                        "children": [],
                                        "depth": 1,
                                        "name": "ownerOf",
                                        "value": 3005
                                    },
                                    {
                                        "children": [],
                                        "depth": 1,
                                        "name": "ownerOf",
                                        "value": 3005
                                    },
                                    {
                                        "children": [],
                                        "depth": 1,
                                        "name": "ownerOf",
                                        "value": 3005
                                    }
                                ],
                                "depth": 0,
                                "name": "Executed Gas",
                                "value": 498648
                            }
                        ],
                        "depth": -1,
                        "name": "Actual Gas Used",
                        "value": 517800
                    },
                    {
                        "children": [],
                        "depth": -1,
                        "name": "Refunded Gas",
                        "value": 2800
                    }
                ],
                "depth": -2,
                "name": "Total Gas",
                "value": 520600
            }
        ],
        "isConfirmed": true,
        "mainTrace": [
            {
                "children": [
                    {
                        "children": [
                            {
                                "children": [],
                                "depth": 1,
                                "id": 1,
                                "order": 1
                            },
                            {
                                "children": [],
                                "depth": 1,
                                "id": 2,
                                "order": 2
                            },
                            {
                                "children": [],
                                "depth": 1,
                                "id": 3,
                                "order": 3
                            },
                            {
                                "children": [],
                                "depth": 1,
                                "id": 4,
                                "order": 4
                            },
                            {
                                "children": [],
                                "depth": 1,
                                "id": 5,
                                "order": 5
                            },
                            {
                                "children": [],
                                "depth": 1,
                                "id": 6,
                                "order": 6
                            },
                            {
                                "children": [],
                                "depth": 1,
                                "id": 7,
                                "order": 7
                            },
                            {
                                "children": [],
                                "depth": 1,
                                "id": 8,
                                "order": 8
                            }
                        ],
                        "depth": 0,
                        "id": 0,
                        "order": 0
                    }
                ],
                "depth": -1,
                "id": -1,
                "order": -1
            }
        ],
        "mainTraceNodeCount": 9,
        "parentIdMap": {
            "0": -1,
            "1": 0,
            "2": 0,
            "3": 0,
            "4": 0,
            "5": 0,
            "6": 0,
            "7": 0,
            "8": 0
        },
        "tidyTrace": [
            {
                "children": [
                    {
                        "children": [
                            {
                                "children": [],
                                "depth": 1,
                                "id": 2,
                                "order": 2
                            },
                            {
                                "children": [],
                                "depth": 1,
                                "id": 4,
                                "order": 4
                            },
                            {
                                "children": [],
                                "depth": 1,
                                "id": 6,
                                "order": 6
                            },
                            {
                                "children": [],
                                "depth": 1,
                                "id": 8,
                                "order": 8
                            }
                        ],
                        "depth": 0,
                        "id": 0,
                        "order": 0
                    }
                ],
                "depth": -1,
                "id": -1,
                "order": -1
            }
        ],
        "tidyTraceNodeCount": 5
    },
    "state_change": {
        "stateChanges": [
            {
                "address": "0xf61f24c2d93bf2de187546b14425bf631f28d6dc",
                "erc": "ERC-721",
                "slots": [
                    {
                        "current": "0x0000000000000000000000002ea4889df9d2d8dd1a96d7db2b51dcb9b7a85172",
                        "key": "0x0d84ebe80c7b8fb872eab091e888d9851c2ecd4360da92305d8d60a6d5defaaa",
                        "prev": "0x0000000000000000000000000000000000000000000000000000000000000000"
                    },
                    {
                        "current": "0x0000000000000000000000000000000000000000000000000000000000000001",
                        "key": "0xe9195a5d6505b709e8555f1098121921b2f413a55468564aed07151ee33f1409",
                        "prev": "0x0000000000000000000000000000000000000000000000000000000000000000"
                    },
                    {
                        "current": "0x0000000000000000000000002ea4889df9d2d8dd1a96d7db2b51dcb9b7a85172",
                        "key": "0x23dacf1c88269f34faf1efb841798f9c2c2e8742270e8fe1cbe9a1eabcb3e17c",
                        "prev": "0x0000000000000000000000000000000000000000000000000000000000000000"
                    },
                    {
                        "current": "0x0000000000000000000000000000000000000000000000000000000000000374",
                        "key": "0x6e62fdc054d5af354160309da9da3fcb2a2a2da6e5c5b1a893147693d528fbdf",
                        "prev": "0x0000000000000000000000000000000000000000000000000000000000000000"
                    },
                    {
                        "current": "0x0000000000000000000000000000000000000000000000000000000000000003",
                        "key": "0xc08943d9a9e4d3e20650307fbbb955201436f75b6b33e426c75b72d7a5594385",
                        "prev": "0x0000000000000000000000000000000000000000000000000000000000000000"
                    },
                    {
                        "current": "0x0000000000000000000000000000000000000000000000000000000000000376",
                        "key": "0x0000000000000000000000000000000000000000000000000000000000000008",
                        "prev": "0x0000000000000000000000000000000000000000000000000000000000000372"
                    },
                    {
                        "current": "0x00000000000000000000000000000000000000000000000000000000000013ee",
                        "key": "0xa36ff0fb7d490c0461ff6fcbb4f5ba7d99c0562e9671b33dbb5695c80927fb68",
                        "prev": "0x0000000000000000000000000000000000000000000000000000000000000000"
                    },
                    {
                        "current": "0x00000000000000000000000000000000000000000000000000000000000025fe",
                        "key": "0xf3f7a9fe364faab93b216da50a3214154f22a0a2b415b23a84c8169e8b637258",
                        "prev": "0x0000000000000000000000000000000000000000000000000000000000000000"
                    },
                    {
                        "current": "0x0000000000000000000000000000000000000000000000000000000000000b9a",
                        "key": "0xa4238945c117301868984c94f18d186d88b5d32fca8cf07358a60f612bf328c7",
                        "prev": "0x0000000000000000000000000000000000000000000000000000000000000000"
                    },
                    {
                        "current": "0x0000000000000000000000000000000000000000000000000000000000000002",
                        "key": "0x4c90da181a7ada2d50d1057e1cea84e00af40d645e04bf5e845264e3cbe4bfbb",
                        "prev": "0x0000000000000000000000000000000000000000000000000000000000000000"
                    },
                    {
                        "current": "0x0000000000000000000000000000000000000000000000000000000000000375",
                        "key": "0x19a5e00cef3f7d296380732c5dd4b2a5d2b8f792d04d814d1d2a3570b3bace7c",
                        "prev": "0x0000000000000000000000000000000000000000000000000000000000000000"
                    },
                    {
                        "current": "0x00000000000000000000000000000000000000000000000000000000000025fe",
                        "key": "0xfcf22d3c6ec5c9ad8195ddb6cf08972b8d58114d5c2eda0f8790ddce82a359a0",
                        "prev": "0x0000000000000000000000000000000000000000000000000000000000000000"
                    },
                    {
                        "current": "0x0000000000000000000000002ea4889df9d2d8dd1a96d7db2b51dcb9b7a85172",
                        "key": "0xf68d159458120cff0b6258ee9332dc0d850910b9ded90693cbf7b05aa0a9ab18",
                        "prev": "0x0000000000000000000000000000000000000000000000000000000000000000"
                    },
                    {
                        "current": "0x0000000000000000000000000000000000000000000000000000000000000376",
                        "key": "0x000000000000000000000000000000000000000000000000000000000000001f",
                        "prev": "0x0000000000000000000000000000000000000000000000000000000000000372"
                    },
                    {
                        "current": "0x0000000000000000000000000000000000000000000000000000000000000dbd",
                        "key": "0xf3f7a9fe364faab93b216da50a3214154f22a0a2b415b23a84c8169e8b637256",
                        "prev": "0x0000000000000000000000000000000000000000000000000000000000000000"
                    },
                    {
                        "current": "0x0000000000000000000000000000000000000000000000000000000000000373",
                        "key": "0xaec7beb55c5013095f4567d59454fd27950dd46a0d8d0d160dd04a1a61104682",
                        "prev": "0x0000000000000000000000000000000000000000000000000000000000000000"
                    },
                    {
                        "current": "0x0000000000000000000000000000000000000000000000000000000000000dbd",
                        "key": "0x40fbaf766c141de3f2f7301f719695c62c7b589b01fc6ee92915ccf3ee1b805c",
                        "prev": "0x0000000000000000000000000000000000000000000000000000000000000000"
                    },
                    {
                        "current": "0x0000000000000000000000000000000000000000000000000000000000000b9a",
                        "key": "0xf3f7a9fe364faab93b216da50a3214154f22a0a2b415b23a84c8169e8b637257",
                        "prev": "0x0000000000000000000000000000000000000000000000000000000000000000"
                    },
                    {
                        "current": "0x0000000000000000000000002ea4889df9d2d8dd1a96d7db2b51dcb9b7a85172",
                        "key": "0xf116bbfa99bfc2073661f18cefa18943d0463f6b0110712b98bf0c311cfdbeb0",
                        "prev": "0x0000000000000000000000000000000000000000000000000000000000000000"
                    },
                    {
                        "current": "0x00000000000000000000000000000000000000000000000000000000000013ee",
                        "key": "0xf3f7a9fe364faab93b216da50a3214154f22a0a2b415b23a84c8169e8b637255",
                        "prev": "0x0000000000000000000000000000000000000000000000000000000000000000"
                    },
                    {
                        "current": "0x0000000000000000000000000000000000000000000000000000000000000004",
                        "key": "0xb3eb22fbf66669c282c96f3c6b42a868e509de8cca077f5e6af8fe61fd80c964",
                        "prev": "0x0000000000000000000000000000000000000000000000000000000000000000"
                    },
                    {
                        "current": "0x0000000000000000000000000000000000000000000000000000000000000372",
                        "key": "0xef1381ec7532a549a4bb9c64ac1d81bd0eaa3e65e1fd1a2697d3f9d06e5ede69",
                        "prev": "0x0000000000000000000000000000000000000000000000000000000000000000"
                    }
                ],
                "storageVariables": [
                    {
                        "name": "_allTokens",
                        "type": "uint256[]",
                        "value": {
                            "elemType": "uint256",
                            "elems": [
                                {
                                    "index": 882,
                                    "value": {
                                        "current": "5102",
                                        "prev": "0",
                                        "typeTag": 1
                                    }
                                },
                                {
                                    "index": 883,
                                    "value": {
                                        "current": "3517",
                                        "prev": "0",
                                        "typeTag": 1
                                    }
                                },
                                {
                                    "index": 884,
                                    "value": {
                                        "current": "2970",
                                        "prev": "0",
                                        "typeTag": 1
                                    }
                                },
                                {
                                    "index": 885,
                                    "value": {
                                        "current": "9726",
                                        "prev": "0",
                                        "typeTag": 1
                                    }
                                }
                            ],
                            "typeTag": 2
                        }
                    },
                    {
                        "name": "freeClaimTokensMinted",
                        "type": "uint256",
                        "value": {
                            "current": "886",
                            "prev": "882",
                            "typeTag": 1
                        }
                    },
                    {
                        "name": "_allTokensIndex",
                        "type": "mapping(uint256 => uint256)",
                        "value": {
                            "pairs": [
                                {
                                    "key": "2970",
                                    "value": {
                                        "current": "884",
                                        "prev": "0",
                                        "typeTag": 1
                                    }
                                },
                                {
                                    "key": "3517",
                                    "value": {
                                        "current": "883",
                                        "prev": "0",
                                        "typeTag": 1
                                    }
                                },
                                {
                                    "key": "5102",
                                    "value": {
                                        "current": "882",
                                        "prev": "0",
                                        "typeTag": 1
                                    }
                                },
                                {
                                    "key": "9726",
                                    "value": {
                                        "current": "885",
                                        "prev": "0",
                                        "typeTag": 1
                                    }
                                }
                            ],
                            "typeTag": 4
                        }
                    },
                    {
                        "name": "_balances",
                        "type": "mapping(address => uint256)",
                        "value": {
                            "pairs": [
                                {
                                    "key": "0x2ea4889df9d2d8dd1a96d7db2b51dcb9b7a85172",
                                    "value": {
                                        "current": "4",
                                        "prev": "0",
                                        "typeTag": 1
                                    }
                                }
                            ],
                            "typeTag": 4
                        }
                    },
                    {
                        "name": "_ownedTokens",
                        "type": "mapping(address => mapping(uint256 => uint256))",
                        "value": {
                            "pairs": [
                                {
                                    "key": "0x2ea4889df9d2d8dd1a96d7db2b51dcb9b7a85172",
                                    "value": {
                                        "pairs": [
                                            {
                                                "key": "0",
                                                "value": {
                                                    "current": "5102",
                                                    "prev": "0",
                                                    "typeTag": 1
                                                }
                                            },
                                            {
                                                "key": "1",
                                                "value": {
                                                    "current": "3517",
                                                    "prev": "0",
                                                    "typeTag": 1
                                                }
                                            },
                                            {
                                                "key": "2",
                                                "value": {
                                                    "current": "2970",
                                                    "prev": "0",
                                                    "typeTag": 1
                                                }
                                            },
                                            {
                                                "key": "3",
                                                "value": {
                                                    "current": "9726",
                                                    "prev": "0",
                                                    "typeTag": 1
                                                }
                                            }
                                        ],
                                        "typeTag": 4
                                    }
                                }
                            ],
                            "typeTag": 4
                        }
                    },
                    {
                        "name": "_ownedTokensIndex",
                        "type": "mapping(uint256 => uint256)",
                        "value": {
                            "pairs": [
                                {
                                    "key": "2970",
                                    "value": {
                                        "current": "2",
                                        "prev": "0",
                                        "typeTag": 1
                                    }
                                },
                                {
                                    "key": "3517",
                                    "value": {
                                        "current": "1",
                                        "prev": "0",
                                        "typeTag": 1
                                    }
                                },
                                {
                                    "key": "9726",
                                    "value": {
                                        "current": "3",
                                        "prev": "0",
                                        "typeTag": 1
                                    }
                                }
                            ],
                            "typeTag": 4
                        }
                    },
                    {
                        "name": "_owners",
                        "type": "mapping(uint256 => address)",
                        "value": {
                            "pairs": [
                                {
                                    "key": "2970",
                                    "value": {
                                        "current": "0x2ea4889df9d2d8dd1a96d7db2b51dcb9b7a85172",
                                        "prev": "0x0000000000000000000000000000000000000000",
                                        "typeTag": 1
                                    }
                                },
                                {
                                    "key": "3517",
                                    "value": {
                                        "current": "0x2ea4889df9d2d8dd1a96d7db2b51dcb9b7a85172",
                                        "prev": "0x0000000000000000000000000000000000000000",
                                        "typeTag": 1
                                    }
                                },
                                {
                                    "key": "5102",
                                    "value": {
                                        "current": "0x2ea4889df9d2d8dd1a96d7db2b51dcb9b7a85172",
                                        "prev": "0x0000000000000000000000000000000000000000",
                                        "typeTag": 1
                                    }
                                },
                                {
                                    "key": "9726",
                                    "value": {
                                        "current": "0x2ea4889df9d2d8dd1a96d7db2b51dcb9b7a85172",
                                        "prev": "0x0000000000000000000000000000000000000000",
                                        "typeTag": 1
                                    }
                                }
                            ],
                            "typeTag": 4
                        }
                    }
                ]
            }
        ]
    }
}