{
    "balance_change": {
        "balanceChanges": [
            {
                "account": "0x259ffb6ebf85754b32f858a527103b91409b0d1c",
                "assets": [
                    {
                        "address": "0xeeeeeeeeeeeeeeeeeeeeeeeeeeeeeeeeeeeeeeee",
                        "amount": "0.5",
                        "iconUrl": "https://assets.blocksec.com/image/1663669189317-3.png",
                        "isERC1155": false,
                        "isERC721": false,
                        "sign": false,
                        "value": ""
                    }
                ]
            },
            {
                "account": "0x18a672e11d637fffadccc99b152f4895da069601",
                "assets": [
                    {
                        "address": "0xeeeeeeeeeeeeeeeeeeeeeeeeeeeeeeeeeeeeeeee",
                        "amount": "0.5",
                        "iconUrl": "https://assets.blocksec.com/image/1663669189317-3.png",
                        "isERC1155": false,
                        "isERC721": false,
                        "sign": true,
                        "value": ""
                    }
                ]
            }
        ]
    },
    "profile": {
        "basic_info": {
            "baseFee": "",
            "blockNumber": 2078762,
            "callData": "0x5b7d47a900000000000000000000000000000000000000000000000000000000000000010000000000000000000000000000000000000000000000000000000000000000",
            "debugEnable": true,
            "errorInfo": "",
            "eventCount": 0,
            "feeRecipient": "0x4bb96091ee9d802ed039c4d1a5f6216f90f81b01",
            "formatValue": "0.5",
            "gasLimit": 300000,
            "gasPrice": "20",
            "gasUsed": 149246,
            "intTxnCount": 0,
            "internalRevert": false,
            "internalRevertMessage": "",
            "isContractCreation": false,
            "isFlashloan": false,
            "maxFee": "",
            "nonce": 20,
            "overwritedBlockNumber": -1,
            "priorityFee": "",
            "receiver": "0x18a672e11d637fffadccc99b152f4895da069601",
            "revertMessage": "",
            "sender": "0x259ffb6ebf85754b32f858a527103b91409b0d1c",
            "simulationEnable": true,
            "sourceTxnHash": "0x6871b837f07851a7092d820af518aa57ae4c07ee29b41a1ba8611624437d1b54",
            "status": true,
            "timestamp": "2016-08-15T21:40:01Z",
            "transactionFee": "0.00298492",
            "txnHash": "0x6871b837f07851a7092d820af518aa57ae4c07ee29b41a1ba8611624437d1b54",
            "txnIndex": 0,
            "type": 0,
            "value": "500000000000000000"
        },
        "fund_flow": [
            {
                "amount": "0.5",
                "from": "0x259ffb6ebf85754b32f858a527103b91409b0d1c",
                "id": 1,
                "isERC1155": false,
                "isERC721": false,
                "isReverted": false,
                "order": 1,
                "to": "0x18a672e11d637fffadccc99b152f4895da069601",
                "token": "0xeeeeeeeeeeeeeeeeeeeeeeeeeeeeeeeeeeeeeeee"
            }
        ],
        "token_infos": [
            {
                "address": "0xc02aaa39b223fe8d0a0e5c4f27ead9083c756cc2",
                "decimals": 18
            },
            {
                "address": "0xeeeeeeeeeeeeeeeeeeeeeeeeeeeeeeeeeeeeeeee",
                "decimals": 18
            }
        ]
    },
    "address_label": {
        "labels": [
            {
                "address": "0xeeeeeeeeeeeeeeeeeeeeeeeeeeeeeeeeeeeeeeee",
                "label": "Ether"
            },
            {
                "address": "0x18a672e11d637fffadccc99b152f4895da069601",
                "label": "Rouleth"
            },
            {
                "address": "0x0000000000000000000000000000000000000001",
                "label": "Precompiled"
            },
            {
                "address": "0x0000000000000000000000000000000000000002",
                "label": "Precompiled"
            },
            {
                "address": "0x0000000000000000000000000000000000000003",
                "label": "Precompiled"
            },
            {
                "address": "0x0000000000000000000000000000000000000004",
                "label": "Precompiled"
            }
        ]
    },
    "trace": {
        "accountLabels": null,
        "dataMap": {
            "-1": {
                "invocation": {
                    "address": "0x259ffb6ebf85754b32f858a527103b91409b0d1c",
                    "callData": "",
                    "decodedMethod": null,
                    "errorInfo": "",
                    "fromAddress": "",
                    "gasUsed": 0,
                    "id": -1,
                    "methodDecoded": false,
                    "operation": "",
                    "output": "",
                    "revert": false,
                    "revertMessage": "",
                    "selector": "",
                    "status": false,
                    "value": ""
                },
                "nodeType": 0
            },
            "0": {
                "invocation": {
                    "address": "0x18a672e11d637fffadccc99b152f4895da069601",
                    "callData": "0x00000000000000000000000000000000000000000000000000000000000000010000000000000000000000000000000000000000000000000000000000000000",
                    "decodedMethod": {
                        "callParams": [
                            {
                                "name": "Red",
                                "type": "bool",
                                "value": true
                            },
                            {
                                "name": "Black",
                                "type": "bool",
                                "value": false
                            }
                        ],
                        "constructorArguments": "",
                        "name": "betOnColor",
                        "returnParams": [],
                        "signature": "betOnColor(bool,bool)"
                    },
                    "errorInfo": "",
                    "fromAddress": "0x259ffb6ebf85754b32f858a527103b91409b0d1c",
                    "gasUsed": 149246,
                    "id": 0,
                    "methodDecoded": true,
                    "operation": "CALL",
                    "output": "",
                    "revert": false,
                    "revertMessage": "",
                    "selector": "0x5b7d47a9",
                    "status": true,
                    "value": "0.5"
                },
                "nodeType": 0
            }
        },
        "gasFlame": [
            {
                "children": [
                    {
                        "children": [
                            {
                                "children": [],
                                "depth": 0,
                                "name": "Initial Gas",
                                "value": 21592
                            },
                            {
                                "children": [],
                                "depth": 0,
                                "name": "Executed Gas",
                                "value": 127654
                            }
                        ],
                        "depth": -1,
                        "name": "Actual Gas Used",
                        "value": 149246
                    },
                    {
                        "children": [],
                        "depth": -1,
                        "name": "Refunded Gas",
                        "value": 0
                    }
                ],
                "depth": -2,
                "name": "Total Gas",
                "value": 149246
            }
        ],
        "isConfirmed": true,
        "mainTrace": [
            {
                "children": [
                    {
                        "children": [],
                        "depth": 0,
                        "id": 0,
                        "order": 0
                    }
                ],
                "depth": -1,
                "id": -1,
                "order": -1
            }
        ],
        "mainTraceNodeCount": 1,
        "parentIdMap": {
            "0": -1
        },
        "tidyTrace": [
            {
                "children": [
                    {
                        "children": [],
                        "depth": 0,
                        "id": 0,
                        "order": 0
                    }
                ],
                "depth": -1,
                "id": -1,
                "order": -1
            }
        ],
        "tidyTraceNodeCount": 1
    },
    "state_change": {
        "stateChanges": [
            {
                "address": "0x18a672e11d637fffadccc99b152f4895da069601",
                "erc": "",
                "slots": [
                    {
                        "current": "0x00000000000000000000000000000000000000000000000000000000001fb82a",
                        "key": "0xa66cc928b5edb82af9bd49922954155ab7b0942694bea4ce44661d9a8736fdb7",
                        "prev": "0x0000000000000000000000000000000000000000000000000000000000000000"
                    },
                    {
                        "current": "0x0000000000000000000000000000000000000000000000000000000000000025",
                        "key": "0xa66cc928b5edb82af9bd49922954155ab7b0942694bea4ce44661d9a8736fdb9",
                        "prev": "0x0000000000000000000000000000000000000000000000000000000000000000"
                    },
                    {
                        "current": "0x0000000000000000000000000000000000000000000000000000000000000001",
                        "key": "0xbd33dacc89160cf95b6ba58bcdce6f706f9a29102c1da2fdc06181711b45f506",
                        "prev": "0x0000000000000000000000000000000000000000000000000000000000000000"
                    },
                    {
                        "current": "0x0000000000000000000000000000000000000000000000000000000000000b09",
                        "key": "0xbe5ed9e5c199c8b5a886e128472138c9937bca8e1c71646ec0975e23f4a6318e",
                        "prev": "0x0000000000000000000000000000000000000000000000000000000000000b08"
                    },
                    {
                        "current": "0x0000000000000000000000000000000000000000000000000000000000000b0a",
                        "key": "0x0000000000000000000000000000000000000000000000000000000000000008",
                        "prev": "0x0000000000000000000000000000000000000000000000000000000000000b09"
                    },
                    {
                        "current": "0x0000000000000000000000000000000000000000000000000000000000000b0a",
                        "key": "0x0000000000000000000000000000000000000000000000000000000000000007",
                        "prev": "0x0000000000000000000000000000000000000000000000000000000000000b09"
                    },
                    {
                        "current": "0x000000000000000000010000259ffb6ebf85754b32f858a527103b91409b0d1c",
                        "key": "0xa66cc928b5edb82af9bd49922954155ab7b0942694bea4ce44661d9a8736fdb5",
                        "prev": "0x0000000000000000000000000000000000000000000000000000000000000000"
                    },
                    {
                        "current": "0x00000000000000000000000000000000000000000000000006f05b59d3b20000",
                        "key": "0xa66cc928b5edb82af9bd49922954155ab7b0942694bea4ce44661d9a8736fdb6",
                        "prev": "0x0000000000000000000000000000000000000000000000000000000000000000"
                    }
                ],
                "storageVariables": []
            }
        ]
    }
}