{
    "balance_change": {
        "balanceChanges": [
            {
                "account": "0xb8001c3ec9aa1985f6c747e25c28324e4a361ec1",
                "assets": [
                    {
                        "address": "0x820fdda87a6fae864d3da0c2d9819b9e50a87fc9",
                        "amount": "427",
                        "iconUrl": "",
                        "isERC1155": false,
                        "isERC721": false,
                        "sign": false,
                        "value": ""
                    }
                ]
            },
            {
                "account": "0xbc8b3152aaca36383142186828b563fcd5d66a25",
                "assets": [
                    {
                        "address": "0x820fdda87a6fae864d3da0c2d9819b9e50a87fc9",
                        "amount": "427",
                        "iconUrl": "",
                        "isERC1155": false,
                        "isERC721": false,
                        "sign": true,
                        "value": ""
                    }
                ]
            }
        ]
    },
    "profile": {
        "basic_info": {
            "baseFee": "",
            "blockNumber": 11183641,
            "callData": "0xa9059cbb000000000000000000000000bc8b3152aaca36383142186828b563fcd5d66a2500000000000000000000000000000000000000000000000000000000197380c0",
            "debugEnable": true,
            "errorInfo": "",
            "eventCount": 1,
            "feeRecipient": "0x99c85bb64564d9ef9a99621301f22c9993cb89e3",
            "formatValue": "0",
            "gasLimit": 61482,
            "gasPrice": "45",
            "gasUsed": 41482,
            "intTxnCount": 0,
            "internalRevert": false,
            "internalRevertMessage": "",
            "isContractCreation": false,
            "isFlashloan": false,
            "maxFee": "",
            "nonce": 222726,
            "overwritedBlockNumber": -1,
            "priorityFee": "",
            "receiver": "0x820fdda87a6fae864d3da0c2d9819b9e50a87fc9",
            "revertMessage": "",
            "sender": "0xb8001c3ec9aa1985f6c747e25c28324e4a361ec1",
            "simulationEnable": true,
            "sourceTxnHash": "0x680953194c2b541e8c619eb6ba6d264b530062c66c6c974ffbdff3241cb7d27a",
            "status": true,
            "timestamp": "2020-11-03T10:23:42Z",
            "transactionFee": "0.00186669",
            "txnHash": "0x680953194c2b541e8c619eb6ba6d264b530062c66c6c974ffbdff3241cb7d27a",
            "txnIndex": 72,
            "type": 0,
            "value": "0"
        },
        "fund_flow": [
            {
                "amount": "427",
                "from": "0xb8001c3ec9aa1985f6c747e25c28324e4a361ec1",
                "id": 1,
                "isERC1155": false,
                "isERC721": false,
                "isReverted": false,
                "order": 1,
                "to": "0xbc8b3152aaca36383142186828b563fcd5d66a25",
                "token": "0x820fdda87a6fae864d3da0c2d9819b9e50a87fc9"
            }
        ],
        "token_infos": [
            {
                "address": "0x820fdda87a6fae864d3da0c2d9819b9e50a87fc9",
                "decimals": 6
            },
            {
                "address": "0xc02aaa39b223fe8d0a0e5c4f27ead9083c756cc2",
                "decimals": 18
            },
            {
                "address": "0xeeeeeeeeeeeeeeeeeeeeeeeeeeeeeeeeeeeeeeee",
                "decimals": 18
            }
        ]
    },
    "address_label": {
        "labels": [
            {
                "address": "0xb8001c3ec9aa1985f6c747e25c28324e4a361ec1",
                "label": "Cobo: Custody"
            },
            {
                "address": "0x820fdda87a6fae864d3da0c2d9819b9e50a87fc9",
                "label": "SUN Token (SUNT)"
            },
            {
                "address": "0x0000000000000000000000000000000000000001",
                "label": "Precompiled"
            },
            {
                "address": "0x0000000000000000000000000000000000000002",
                "label": "Precompiled"
            },
            {
                "address": "0x0000000000000000000000000000000000000003",
                "label": "Precompiled"
            },
            {
                "address": "0x0000000000000000000000000000000000000004",
                "label": "Precompiled"
            },
            {
                "address": "0xeeeeeeeeeeeeeeeeeeeeeeeeeeeeeeeeeeeeeeee",
                "label": "Ether"
            }
        ]
    },
    "trace": {
        "accountLabels": null,
        "dataMap": {
            "-1": {
                "invocation": {
                    "address": "0xb8001c3ec9aa1985f6c747e25c28324e4a361ec1",
                    "callData": "",
                    "decodedMethod": null,
                    "errorInfo": "",
                    "fromAddress": "",
                    "gasUsed": 0,
                    "id": -1,
                    "methodDecoded": false,
                    "operation": "",
                    "output": "",
                    "revert": false,
                    "revertMessage": "",
                    "selector": "",
                    "status": false,
                    "value": ""
                },
                "nodeType": 0
            },
            "0": {
                "invocation": {
                    "address": "0x820fdda87a6fae864d3da0c2d9819b9e50a87fc9",
                    "callData": "0x000000000000000000000000bc8b3152aaca36383142186828b563fcd5d66a2500000000000000000000000000000000000000000000000000000000197380c0",
                    "decodedMethod": {
                        "callParams": [
                            {
                                "name": "_to",
                                "type": "address",
                                "value": "0xbc8b3152aaca36383142186828b563fcd5d66a25"
                            },
                            {
                                "decimalAvailable": true,
                                "name": "_value",
                                "type": "uint256",
                                "value": "427,000,000"
                            }
                        ],
                        "constructorArguments": "",
                        "name": "transfer",
                        "returnParams": [
                            {
                                "name": "success",
                                "type": "bool",
                                "value": true
                            }
                        ],
                        "signature": "transfer(address,uint256)"
                    },
                    "errorInfo": "",
                    "fromAddress": "0xb8001c3ec9aa1985f6c747e25c28324e4a361ec1",
                    "gasUsed": 41482,
                    "id": 0,
                    "methodDecoded": true,
                    "operation": "CALL",
                    "output": "0x0000000000000000000000000000000000000000000000000000000000000001",
                    "revert": false,
                    "revertMessage": "",
                    "selector": "0xa9059cbb",
                    "status": true,
                    "value": "0"
                },
                "nodeType": 0
            },
            "1": {
                "event": {
                    "contract": "0x820fdda87a6fae864d3da0c2d9819b9e50a87fc9",
                    "decodedLog": {
                        "name": "Transfer",
                        "params": [
                            {
                                "name": "_from",
                                "type": "address",
                                "value": "0xb8001c3ec9aa1985f6c747e25c28324e4a361ec1"
                            },
                            {
                                "name": "_to",
                                "type": "address",
                                "value": "0xbc8b3152aaca36383142186828b563fcd5d66a25"
                            },
                            {
                                "decimalAvailable": true,
                                "name": "_value",
                                "type": "uint256",
                                "value": "427,000,000"
                            }
                        ],
                        "signature": "Transfer(address,address,uint256)"
                    },
                    "id": 1,
                    "logData": "0x00000000000000000000000000000000000000000000000000000000197380c0",
                    "logDecoded": true,
                    "operation": "EVENT",
                    "revert": false,
                    "status": true,
                    "topics": [
                        "0xddf252ad1be2c89b69c2b068fc378daa952ba7f163c4a11628f55a4df523b3ef",
                        "0x000000000000000000000000b8001c3ec9aa1985f6c747e25c28324e4a361ec1",
                        "0x000000000000000000000000bc8b3152aaca36383142186828b563fcd5d66a25"
                    ]
                },
                "nodeType": 1
            }
        },
        "gasFlame": [
            {
                "children": [
                    {
                        "children": [
                            {
                                "children": [],
                                "depth": 0,
                                "name": "Initial Gas",
                                "value": 21608
                            },
                            {
                                "children": [],
                                "depth": 0,
                                "name": "Executed Gas",
                                "value": 19874
                            }
                        ],
                        "depth": -1,
                        "name": "Actual Gas Used",
                        "value": 41482
                    },
                    {
                        "children": [],
                        "depth": -1,
                        "name": "Refunded Gas",
                        "value": 0
                    }
                ],
                "depth": -2,
                "name": "Total Gas",
                "value": 41482
            }
        ],
        "isConfirmed": true,
        "mainTrace": [
            {
                "children": [
                    {
                        "children": [
                            {
                                "children": [],
                                "depth": 1,
                                "id": 1,
                                "order": 1
                            }
                        ],
                        "depth": 0,
                        "id": 0,
                        "order": 0
                    }
                ],
                "depth": -1,
                "id": -1,
                "order": -1
            }
        ],
        "mainTraceNodeCount": 2,
        "parentIdMap": {
            "0": -1,
            "1": 0
        },
        "tidyTrace": [
            {
                "children": [
                    {
                        "children": [
                            {
                                "children": [],
                                "depth": 1,
                                "id": 1,
                                "order": 1
                            }
                        ],
                        "depth": 0,
                        "id": 0,
                        "order": 0
                    }
                ],
                "depth": -1,
                "id": -1,
                "order": -1
            }
        ],
        "tidyTraceNodeCount": 2
    },
    "state_change": {
        "stateChanges": [
            {
                "address": "0x820fdda87a6fae864d3da0c2d9819b9e50a87fc9",
                "erc": "ERC-20",
                "slots": [
                    {
                        "current": "0x000000000000000000000000000000000000000000000000000000001f1d1680",
                        "key": "0xe3354c110ae3b5cd3fcccc710d33830b6bb425276dea274c4f70298615fbe917",
                        "prev": "0x0000000000000000000000000000000000000000000000000000000005a995c0"
                    },
                    {
                        "current": "0x000000000000000000000000000000000000000000000000000001b7e6e69461",
                        "key": "0xef12a80dbc451c1d12f8ff18fb6dd79919d5aabbe94b9afab342e3ce71010d3a",
                        "prev": "0x000000000000000000000000000000000000000000000000000001b8005a1521"
                    }
                ],
                "storageVariables": []
            }
        ]
    }
}