{
    "balance_change": {
        "balanceChanges": [
            {
                "account": "0xcb2f36b2846e645c58819ab3f8033dc9e129a679",
                "assets": [
                    {
                        "address": "0xeeeeeeeeeeeeeeeeeeeeeeeeeeeeeeeeeeeeeeee",
                        "amount": "1.33",
                        "iconUrl": "https://assets.blocksec.com/image/1663669189317-3.png",
                        "isERC1155": false,
                        "isERC721": false,
                        "sign": false,
                        "value": "2403.4243095100000438"
                    },
                    {
                        "address": "0xd497a414bb00803e846b53d07fcb742831b24906",
                        "amount": "1",
                        "iconUrl": "",
                        "isERC1155": false,
                        "isERC721": true,
                        "sign": true,
                        "tokenID": "744",
                        "value": ""
                    }
                ]
            },
            {
                "account": "0x2b9a9dfac4124e666d97ef748797169caeb3476d",
                "assets": [
                    {
                        "address": "0xd497a414bb00803e846b53d07fcb742831b24906",
                        "amount": "1",
                        "iconUrl": "",
                        "isERC1155": false,
                        "isERC721": true,
                        "sign": false,
                        "tokenID": "744",
                        "value": ""
                    },
                    {
                        "address": "0xeeeeeeeeeeeeeeeeeeeeeeeeeeeeeeeeeeeeeeee",
                        "amount": "1.16375",
                        "iconUrl": "https://assets.blocksec.com/image/1663669189317-3.png",
                        "isERC1155": false,
                        "isERC721": false,
                        "sign": true,
                        "value": "2102.9962708212500384"
                    }
                ]
            },
            {
                "account": "0x8de9c5a032463c561423387a9648c5c7bcc5bc90",
                "assets": [
                    {
                        "address": "0xeeeeeeeeeeeeeeeeeeeeeeeeeeeeeeeeeeeeeeee",
                        "amount": "0.03325",
                        "iconUrl": "https://assets.blocksec.com/image/1663669189317-3.png",
                        "isERC1155": false,
                        "isERC721": false,
                        "sign": true,
                        "value": "60.085607737750001096"
                    }
                ]
            },
            {
                "account": "0x9a766555d4b815393a58e665909dd230b3745efe",
                "assets": [
                    {
                        "address": "0xeeeeeeeeeeeeeeeeeeeeeeeeeeeeeeeeeeeeeeee",
                        "amount": "0.133",
                        "iconUrl": "https://assets.blocksec.com/image/1663669189317-3.png",
                        "isERC1155": false,
                        "isERC721": false,
                        "sign": true,
                        "value": "240.34243095100000438"
                    }
                ]
            }
        ]
    },
    "profile": {
        "basic_info": {
            "baseFee": "23.620131721",
            "blockNumber": 14999178,
            "callData": "0xfb0f3ee1000000000000000000000000000000000000000000000000000000000000002000000000000000000000000000000000000000000000000000000000000000000000000000000000000000000000000000000000000000000000000000000000000000000000000000000000000000000000000000000000102678758d5c60000000000000000000000000002b9a9dfac4124e666d97ef748797169caeb3476d000000000000000000000000004c00500000ad104d7dbd00e3ae0a5c00560c00000000000000000000000000d497a414bb00803e846b53d07fcb742831b2490600000000000000000000000000000000000000000000000000000000000002e8000000000000000000000000000000000000000000000000000000000000000100000000000000000000000000000000000000000000000000000000000000020000000000000000000000000000000000000000000000000000000062b06a990000000000000000000000000000000000000000000000000000000062bcfffc000000000000000000000000000000000000000000000000000000000000000000000000000000000000000000000000000000000000000000f8059c29c8764b0000007b02230091a7ed01230072f7006a004d60a8d4e71d599b8104250f00000000007b02230091a7ed01230072f7006a004d60a8d4e71d599b8104250f00000000000000000000000000000000000000000000000000000000000000000002000000000000000000000000000000000000000000000000000000000000024000000000000000000000000000000000000000000000000000000000000002e00000000000000000000000000000000000000000000000000000000000000002000000000000000000000000000000000000000000000000007620b2e6c820000000000000000000000000008de9c5a032463c561423387a9648c5c7bcc5bc9000000000000000000000000000000000000000000000000001d882cb9b2080000000000000000000000000009a766555d4b815393a58e665909dd230b3745efe00000000000000000000000000000000000000000000000000000000000000417f13c6d3d237680cbf9978fcdc771a484f5170fa725210738fc81afada4bd2f967a58ebf6a31e74aa07c2c0e56289b70ea69510e688905accba2fca2296e63281c00000000000000000000000000000000000000000000000000000000000000",
            "debugEnable": true,
            "errorInfo": "",
            "eventCount": 4,
            "feeRecipient": "0x1ad91ee08f21be3de0ba2ba6918e714da6b45836",
            "formatValue": "1.33",
            "gasLimit": 152956,
            "gasPrice": "26.120131721",
            "gasUsed": 143185,
            "intTxnCount": 8,
            "internalRevert": false,
            "internalRevertMessage": "",
            "isContractCreation": false,
            "isFlashloan": false,
            "maxFee": "41.497917662",
            "nonce": 7,
            "overwritedBlockNumber": -1,
            "priorityFee": "2.5",
            "receiver": "0x00000000006c3852cbef3e08e8df289169ede581",
            "revertMessage": "",
            "sender": "0xcb2f36b2846e645c58819ab3f8033dc9e129a679",
            "simulationEnable": true,
            "sourceTxnHash": "0x6804c500f08d1de454121117c9c8b1598aa6954c3e308e67682852e617bc6e1f",
            "status": true,
            "timestamp": "2022-06-20T23:14:05Z",
            "transactionFee": "0.003740011060471385",
            "txnHash": "0x6804c500f08d1de454121117c9c8b1598aa6954c3e308e67682852e617bc6e1f",
            "txnIndex": 5,
            "type": 2,
            "value": "1330000000000000000"
        },
        "fund_flow": [
            {
                "amount": "1.33",
                "from": "0xcb2f36b2846e645c58819ab3f8033dc9e129a679",
                "id": 1,
                "isERC1155": false,
                "isERC721": false,
                "isReverted": false,
                "order": 1,
                "to": "0x00000000006c3852cbef3e08e8df289169ede581",
                "token": "0xeeeeeeeeeeeeeeeeeeeeeeeeeeeeeeeeeeeeeeee"
            },
            {
                "amount": "1",
                "from": "0x2b9a9dfac4124e666d97ef748797169caeb3476d",
                "id": 2,
                "isERC1155": false,
                "isERC721": true,
                "isReverted": false,
                "order": 2,
                "to": "0xcb2f36b2846e645c58819ab3f8033dc9e129a679",
                "token": "0xd497a414bb00803e846b53d07fcb742831b24906",
                "tokenID": "744"
            },
            {
                "amount": "0.03325",
                "from": "0x00000000006c3852cbef3e08e8df289169ede581",
                "id": 3,
                "isERC1155": false,
                "isERC721": false,
                "isReverted": false,
                "order": 3,
                "to": "0x8de9c5a032463c561423387a9648c5c7bcc5bc90",
                "token": "0xeeeeeeeeeeeeeeeeeeeeeeeeeeeeeeeeeeeeeeee"
            },
            {
                "amount": "0.133",
                "from": "0x00000000006c3852cbef3e08e8df289169ede581",
                "id": 4,
                "isERC1155": false,
                "isERC721": false,
                "isReverted": false,
                "order": 4,
                "to": "0x9a766555d4b815393a58e665909dd230b3745efe",
                "token": "0xeeeeeeeeeeeeeeeeeeeeeeeeeeeeeeeeeeeeeeee"
            },
            {
                "amount": "1.16375",
                "from": "0x00000000006c3852cbef3e08e8df289169ede581",
                "id": 5,
                "isERC1155": false,
                "isERC721": false,
                "isReverted": false,
                "order": 5,
                "to": "0x2b9a9dfac4124e666d97ef748797169caeb3476d",
                "token": "0xeeeeeeeeeeeeeeeeeeeeeeeeeeeeeeeeeeeeeeee"
            }
        ],
        "token_infos": [
            {
                "address": "0xc02aaa39b223fe8d0a0e5c4f27ead9083c756cc2",
                "decimals": 18
            },
            {
                "address": "0xeeeeeeeeeeeeeeeeeeeeeeeeeeeeeeeeeeeeeeee",
                "decimals": 18
            }
        ]
    },
    "address_label": {
        "labels": [
            {
                "address": "0xd497a414bb00803e846b53d07fcb742831b24906",
                "label": "Tigerbob: TGRBOB Token"
            },
            {
                "address": "0x0000000000000000000000000000000000000003",
                "label": "Precompiled"
            },
            {
                "address": "0x8de9c5a032463c561423387a9648c5c7bcc5bc90",
                "label": "OpenSea: Fees"
            },
            {
                "address": "0xd9db270c1b5e3bd161e8c8503c55ceabee709552",
                "label": "Safe: Singleton 1.3.0"
            },
            {
                "address": "0x1e0049783f008a0085193e00003d00cd54003c71",
                "label": "OpenSea: Conduit"
            },
            {
                "address": "0x0000000000000000000000000000000000000001",
                "label": "Precompiled"
            },
            {
                "address": "0xeeeeeeeeeeeeeeeeeeeeeeeeeeeeeeeeeeeeeeee",
                "label": "Ether"
            },
            {
                "address": "0x0000000000000000000000000000000000000000",
                "label": "Null Address"
            },
            {
                "address": "0x004c00500000ad104d7dbd00e3ae0a5c00560c00",
                "label": "OpenSea: Pausable Zone"
            },
            {
                "address": "0x9a766555d4b815393a58e665909dd230b3745efe",
                "label": "GnosisSafeProxy_9a76_5efe"
            },
            {
                "address": "0x00000000006c3852cbef3e08e8df289169ede581",
                "label": "Seaport 1.1"
            },
            {
                "address": "0x0000000000000000000000000000000000000002",
                "label": "Precompiled"
            },
            {
                "address": "0x0000000000000000000000000000000000000004",
                "label": "Precompiled"
            }
        ]
    },
    "trace": {
        "accountLabels": null,
        "dataMap": {
            "-1": {
                "invocation": {
                    "address": "0xcb2f36b2846e645c58819ab3f8033dc9e129a679",
                    "callData": "",
                    "decodedMethod": null,
                    "errorInfo": "",
                    "fromAddress": "",
                    "gasUsed": 0,
                    "id": -1,
                    "methodDecoded": false,
                    "operation": "",
                    "output": "",
                    "revert": false,
                    "revertMessage": "",
                    "selector": "",
                    "status": false,
                    "value": ""
                },
                "nodeType": 0
            },
            "0": {
                "invocation": {
                    "address": "0x00000000006c3852cbef3e08e8df289169ede581",
                    "callData": "0x000000000000000000000000000000000000000000000000000000000000002000000000000000000000000000000000000000000000000000000000000000000000000000000000000000000000000000000000000000000000000000000000000000000000000000000000000000000000000000000000102678758d5c60000000000000000000000000002b9a9dfac4124e666d97ef748797169caeb3476d000000000000000000000000004c00500000ad104d7dbd00e3ae0a5c00560c00000000000000000000000000d497a414bb00803e846b53d07fcb742831b2490600000000000000000000000000000000000000000000000000000000000002e8000000000000000000000000000000000000000000000000000000000000000100000000000000000000000000000000000000000000000000000000000000020000000000000000000000000000000000000000000000000000000062b06a990000000000000000000000000000000000000000000000000000000062bcfffc000000000000000000000000000000000000000000000000000000000000000000000000000000000000000000000000000000000000000000f8059c29c8764b0000007b02230091a7ed01230072f7006a004d60a8d4e71d599b8104250f00000000007b02230091a7ed01230072f7006a004d60a8d4e71d599b8104250f00000000000000000000000000000000000000000000000000000000000000000002000000000000000000000000000000000000000000000000000000000000024000000000000000000000000000000000000000000000000000000000000002e00000000000000000000000000000000000000000000000000000000000000002000000000000000000000000000000000000000000000000007620b2e6c820000000000000000000000000008de9c5a032463c561423387a9648c5c7bcc5bc9000000000000000000000000000000000000000000000000001d882cb9b2080000000000000000000000000009a766555d4b815393a58e665909dd230b3745efe00000000000000000000000000000000000000000000000000000000000000417f13c6d3d237680cbf9978fcdc771a484f5170fa725210738fc81afada4bd2f967a58ebf6a31e74aa07c2c0e56289b70ea69510e688905accba2fca2296e63281c00000000000000000000000000000000000000000000000000000000000000",
                    "decodedMethod": {
                        "callParams": [
                            {
                                "name": "parameters",
                                "type": "(address,uint256,uint256,address,address,address,uint256,uint256,uint8,uint256,uint256,bytes32,uint256,bytes32,bytes32,uint256,(uint256,address)[],bytes)",
                                "value": [
                                    {
                                        "name": "considerationToken",
                                        "type": "address",
                                        "value": "0x0000000000000000000000000000000000000000"
                                    },
                                    {
                                        "name": "considerationIdentifier",
                                        "type": "uint256",
                                        "value": "0"
                                    },
                                    {
                                        "name": "considerationAmount",
                                        "type": "uint256",
                                        "value": "1,163,750,000,000,000,000"
                                    },
                                    {
                                        "name": "offerer",
                                        "type": "address",
                                        "value": "0x2b9a9dfac4124e666d97ef748797169caeb3476d"
                                    },
                                    {
                                        "name": "zone",
                                        "type": "address",
                                        "value": "0x004c00500000ad104d7dbd00e3ae0a5c00560c00"
                                    },
                                    {
                                        "name": "offerToken",
                                        "type": "address",
                                        "value": "0xd497a414bb00803e846b53d07fcb742831b24906"
                                    },
                                    {
                                        "name": "offerIdentifier",
                                        "type": "uint256",
                                        "value": "744"
                                    },
                                    {
                                        "name": "offerAmount",
                                        "type": "uint256",
                                        "value": "1"
                                    },
                                    {
                                        "name": "basicOrderType",
                                        "type": "uint8",
                                        "value": "2"
                                    },
                                    {
                                        "name": "startTime",
                                        "type": "uint256",
                                        "value": "1,655,728,793"
                                    },
                                    {
                                        "name": "endTime",
                                        "type": "uint256",
                                        "value": "1,656,553,468"
                                    },
                                    {
                                        "name": "zoneHash",
                                        "type": "bytes32",
                                        "value": "0x0000000000000000000000000000000000000000000000000000000000000000"
                                    },
                                    {
                                        "name": "salt",
                                        "type": "uint256",
                                        "value": "69,811,962,498,283,083"
                                    },
                                    {
                                        "name": "offererConduitKey",
                                        "type": "bytes32",
                                        "value": "0x0000007b02230091a7ed01230072f7006a004d60a8d4e71d599b8104250f0000"
                                    },
                                    {
                                        "name": "fulfillerConduitKey",
                                        "type": "bytes32",
                                        "value": "0x0000007b02230091a7ed01230072f7006a004d60a8d4e71d599b8104250f0000"
                                    },
                                    {
                                        "name": "totalOriginalAdditionalRecipients",
                                        "type": "uint256",
                                        "value": "2"
                                    },
                                    {
                                        "name": "additionalRecipients",
                                        "type": "(uint256,address)[]",
                                        "value": [
                                            [
                                                {
                                                    "name": "amount",
                                                    "type": "uint256",
                                                    "value": "33,250,000,000,000,000"
                                                },
                                                {
                                                    "name": "recipient",
                                                    "type": "address",
                                                    "value": "0x8de9c5a032463c561423387a9648c5c7bcc5bc90"
                                                }
                                            ],
                                            [
                                                {
                                                    "name": "amount",
                                                    "type": "uint256",
                                                    "value": "133,000,000,000,000,000"
                                                },
                                                {
                                                    "name": "recipient",
                                                    "type": "address",
                                                    "value": "0x9a766555d4b815393a58e665909dd230b3745efe"
                                                }
                                            ]
                                        ]
                                    },
                                    {
                                        "name": "signature",
                                        "type": "bytes",
                                        "value": "0x7f13c6d3d237680cbf9978fcdc771a484f5170fa725210738fc81afada4bd2f967a58ebf6a31e74aa07c2c0e56289b70ea69510e688905accba2fca2296e63281c"
                                    }
                                ]
                            }
                        ],
                        "constructorArguments": "",
                        "name": "fulfillBasicOrder",
                        "returnParams": [
                            {
                                "name": "fulfilled",
                                "type": "bool",
                                "value": true
                            }
                        ],
                        "signature": "fulfillBasicOrder((address,uint256,uint256,address,address,address,uint256,uint256,uint8,uint256,uint256,bytes32,uint256,bytes32,bytes32,uint256,(uint256,address)[],bytes))"
                    },
                    "errorInfo": "",
                    "fromAddress": "0xcb2f36b2846e645c58819ab3f8033dc9e129a679",
                    "gasUsed": 143185,
                    "id": 0,
                    "methodDecoded": true,
                    "operation": "CALL",
                    "output": "0x0000000000000000000000000000000000000000000000000000000000000001",
                    "revert": false,
                    "revertMessage": "",
                    "selector": "0xfb0f3ee1",
                    "status": true,
                    "value": "1.33"
                },
                "nodeType": 0
            },
            "1": {
                "event": {
                    "contract": "0x00000000006c3852cbef3e08e8df289169ede581",
                    "decodedLog": {
                        "name": "OrderFulfilled",
                        "params": [
                            {
                                "name": "offerer",
                                "type": "address",
                                "value": "0x2b9a9dfac4124e666d97ef748797169caeb3476d"
                            },
                            {
                                "name": "zone",
                                "type": "address",
                                "value": "0x004c00500000ad104d7dbd00e3ae0a5c00560c00"
                            },
                            {
                                "name": "orderHash",
                                "type": "bytes32",
                                "value": "0xa981403eac106ce2546e6b60ccda84f13970e3bde041355fd160e47ae6a58e76"
                            },
                            {
                                "name": "recipient",
                                "type": "address",
                                "value": "0xcb2f36b2846e645c58819ab3f8033dc9e129a679"
                            },
                            {
                                "name": "offer",
                                "type": "(uint8,address,uint256,uint256)[]",
                                "value": [
                                    [
                                        {
                                            "name": "itemType",
                                            "type": "uint8",
                                            "value": "2"
                                        },
                                        {
                                            "name": "token",
                                            "type": "address",
                                            "value": "0xd497a414bb00803e846b53d07fcb742831b24906"
                                        },
                                        {
                                            "name": "identifier",
                                            "type": "uint256",
                                            "value": "744"
                                        },
                                        {
                                            "name": "amount",
                                            "type": "uint256",
                                            "value": "1"
                                        }
                                    ]
                                ]
                            },
                            {
                                "name": "consideration",
                                "type": "(uint8,address,uint256,uint256,address)[]",
                                "value": [
                                    [
                                        {
                                            "name": "itemType",
                                            "type": "uint8",
                                            "value": "0"
                                        },
                                        {
                                            "name": "token",
                                            "type": "address",
                                            "value": "0x0000000000000000000000000000000000000000"
                                        },
                                        {
                                            "name": "identifier",
                                            "type": "uint256",
                                            "value": "0"
                                        },
                                        {
                                            "name": "amount",
                                            "type": "uint256",
                                            "value": "1,163,750,000,000,000,000"
                                        },
                                        {
                                            "name": "recipient",
                                            "type": "address",
                                            "value": "0x2b9a9dfac4124e666d97ef748797169caeb3476d"
                                        }
                                    ],
                                    [
                                        {
                                            "name": "itemType",
                                            "type": "uint8",
                                            "value": "0"
                                        },
                                        {
                                            "name": "token",
                                            "type": "address",
                                            "value": "0x0000000000000000000000000000000000000000"
                                        },
                                        {
                                            "name": "identifier",
                                            "type": "uint256",
                                            "value": "0"
                                        },
                                        {
                                            "name": "amount",
                                            "type": "uint256",
                                            "value": "33,250,000,000,000,000"
                                        },
                                        {
                                            "name": "recipient",
                                            "type": "address",
                                            "value": "0x8de9c5a032463c561423387a9648c5c7bcc5bc90"
                                        }
                                    ],
                                    [
                                        {
                                            "name": "itemType",
                                            "type": "uint8",
                                            "value": "0"
                                        },
                                        {
                                            "name": "token",
                                            "type": "address",
                                            "value": "0x0000000000000000000000000000000000000000"
                                        },
                                        {
                                            "name": "identifier",
                                            "type": "uint256",
                                            "value": "0"
                                        },
                                        {
                                            "name": "amount",
                                            "type": "uint256",
                                            "value": "133,000,000,000,000,000"
                                        },
                                        {
                                            "name": "recipient",
                                            "type": "address",
                                            "value": "0x9a766555d4b815393a58e665909dd230b3745efe"
                                        }
                                    ]
                                ]
                            }
                        ],
                        "signature": "OrderFulfilled(bytes32,address,address,address,(uint8,address,uint256,uint256)[],(uint8,address,uint256,uint256,address)[])"
                    },
                    "id": 1,
                    "logData": "0xa981403eac106ce2546e6b60ccda84f13970e3bde041355fd160e47ae6a58e76000000000000000000000000cb2f36b2846e645c58819ab3f8033dc9e129a6790000000000000000000000000000000000000000000000000000000000000080000000000000000000000000000000000000000000000000000000000000012000000000000000000000000000000000000000000000000000000000000000010000000000000000000000000000000000000000000000000000000000000002000000000000000000000000d497a414bb00803e846b53d07fcb742831b2490600000000000000000000000000000000000000000000000000000000000002e800000000000000000000000000000000000000000000000000000000000000010000000000000000000000000000000000000000000000000000000000000003000000000000000000000000000000000000000000000000000000000000000000000000000000000000000000000000000000000000000000000000000000000000000000000000000000000000000000000000000000000000000000000000000000000000000000000000000000000000000000000000102678758d5c60000000000000000000000000002b9a9dfac4124e666d97ef748797169caeb3476d000000000000000000000000000000000000000000000000000000000000000000000000000000000000000000000000000000000000000000000000000000000000000000000000000000000000000000000000000000000000000000000000000000000000000000000000000000000000000000000000007620b2e6c820000000000000000000000000008de9c5a032463c561423387a9648c5c7bcc5bc9000000000000000000000000000000000000000000000000000000000000000000000000000000000000000000000000000000000000000000000000000000000000000000000000000000000000000000000000000000000000000000000000000000000000000000000000000000000000000000000000001d882cb9b2080000000000000000000000000009a766555d4b815393a58e665909dd230b3745efe",
                    "logDecoded": true,
                    "operation": "EVENT",
                    "revert": false,
                    "status": true,
                    "topics": [
                        "0x9d9af8e38d66c62e2c12f0225249fd9d721c54b83f48d9352c97c6cacdcb6f31",
                        "0x0000000000000000000000002b9a9dfac4124e666d97ef748797169caeb3476d",
                        "0x000000000000000000000000004c00500000ad104d7dbd00e3ae0a5c00560c00"
                    ]
                },
                "nodeType": 1
            },
            "10": {
                "invocation": {
                    "address": "0xd9db270c1b5e3bd161e8c8503c55ceabee709552",
                    "callData": "0x",
                    "decodedMethod": null,
                    "errorInfo": "",
                    "fromAddress": "0x9a766555d4b815393a58e665909dd230b3745efe",
                    "gasUsed": 1504,
                    "id": 10,
                    "methodDecoded": false,
                    "operation": "DELEGATECALL",
                    "output": "",
                    "revert": false,
                    "revertMessage": "",
                    "selector": "fallback",
                    "status": true,
                    "value": "0.133"
                },
                "nodeType": 0
            },
            "11": {
                "event": {
                    "contract": "0x9a766555d4b815393a58e665909dd230b3745efe",
                    "decodedLog": {
                        "name": "SafeReceived",
                        "params": [
                            {
                                "name": "sender",
                                "type": "address",
                                "value": "0x00000000006c3852cbef3e08e8df289169ede581"
                            },
                            {
                                "name": "value",
                                "type": "uint256",
                                "value": "133,000,000,000,000,000"
                            }
                        ],
                        "signature": "SafeReceived(address,uint256)"
                    },
                    "id": 11,
                    "logData": "0x00000000000000000000000000000000000000000000000001d882cb9b208000",
                    "logDecoded": true,
                    "operation": "EVENT",
                    "revert": false,
                    "status": true,
                    "topics": [
                        "0x3d0ce9bfc3ed7d6862dbb28b2dea94561fe714a1b4d019aa8af39730d1ad7c3d",
                        "0x00000000000000000000000000000000006c3852cbef3e08e8df289169ede581"
                    ]
                },
                "nodeType": 1
            },
            "12": {
                "invocation": {
                    "address": "0x2b9a9dfac4124e666d97ef748797169caeb3476d",
                    "callData": "0x",
                    "decodedMethod": null,
                    "errorInfo": "",
                    "fromAddress": "0x00000000006c3852cbef3e08e8df289169ede581",
                    "gasUsed": 0,
                    "id": 12,
                    "methodDecoded": false,
                    "operation": "CALL",
                    "output": "",
                    "revert": false,
                    "revertMessage": "",
                    "selector": "fallback",
                    "status": true,
                    "value": "1.16375"
                },
                "nodeType": 0
            },
            "2": {
                "invocation": {
                    "address": "0x004c00500000ad104d7dbd00e3ae0a5c00560c00",
                    "callData": "0xa981403eac106ce2546e6b60ccda84f13970e3bde041355fd160e47ae6a58e76000000000000000000000000cb2f36b2846e645c58819ab3f8033dc9e129a6790000000000000000000000002b9a9dfac4124e666d97ef748797169caeb3476d0000000000000000000000000000000000000000000000000000000000000000",
                    "decodedMethod": {
                        "callParams": [
                            {
                                "name": "orderHash",
                                "type": "bytes32",
                                "value": "0xa981403eac106ce2546e6b60ccda84f13970e3bde041355fd160e47ae6a58e76"
                            },
                            {
                                "name": "caller",
                                "type": "address",
                                "value": "0xcb2f36b2846e645c58819ab3f8033dc9e129a679"
                            },
                            {
                                "name": "offerer",
                                "type": "address",
                                "value": "0x2b9a9dfac4124e666d97ef748797169caeb3476d"
                            },
                            {
                                "name": "zoneHash",
                                "type": "bytes32",
                                "value": "0x0000000000000000000000000000000000000000000000000000000000000000"
                            }
                        ],
                        "constructorArguments": "",
                        "name": "isValidOrder",
                        "returnParams": [
                            {
                                "name": "validOrderMagicValue",
                                "type": "bytes4",
                                "value": "0x0e1d31dc"
                            }
                        ],
                        "signature": "isValidOrder(bytes32,address,address,bytes32)"
                    },
                    "errorInfo": "",
                    "fromAddress": "0x00000000006c3852cbef3e08e8df289169ede581",
                    "gasUsed": 257,
                    "id": 2,
                    "methodDecoded": true,
                    "operation": "STATICCALL",
                    "output": "0x0e1d31dc00000000000000000000000000000000000000000000000000000000",
                    "revert": false,
                    "revertMessage": "",
                    "selector": "0x0e1d31dc",
                    "status": true,
                    "value": "0"
                },
                "nodeType": 0
            },
            "3": {
                "invocation": {
                    "address": "0x0000000000000000000000000000000000000001",
                    "callData": "0xb918e4bb6fe2b6f0e55e77545df2312fd078f8baf5658bc16490ea3b000000000000000000000000000000000000000000000000000000000000001c7f13c6d3d237680cbf9978fcdc771a484f5170fa725210738fc81afada4bd2f967a58ebf6a31e74aa07c2c0e56289b70ea69510e688905accba2fca2296e6328",
                    "decodedMethod": {
                        "callParams": [
                            {
                                "name": "hash",
                                "type": "bytes32",
                                "value": "0xd2d6d793b918e4bb6fe2b6f0e55e77545df2312fd078f8baf5658bc16490ea3b"
                            },
                            {
                                "name": "v",
                                "type": "uint256",
                                "value": "28"
                            },
                            {
                                "name": "r",
                                "type": "bytes32",
                                "value": "0x7f13c6d3d237680cbf9978fcdc771a484f5170fa725210738fc81afada4bd2f9"
                            },
                            {
                                "name": "s",
                                "type": "bytes32",
                                "value": "0x67a58ebf6a31e74aa07c2c0e56289b70ea69510e688905accba2fca2296e6328"
                            }
                        ],
                        "constructorArguments": "",
                        "name": "ecrecover",
                        "returnParams": [
                            {
                                "name": "",
                                "type": "address",
                                "value": "0x2b9a9dfac4124e666d97ef748797169caeb3476d"
                            }
                        ],
                        "signature": "ecrecover(bytes32,uint256,bytes32,bytes32)"
                    },
                    "errorInfo": "",
                    "fromAddress": "0x00000000006c3852cbef3e08e8df289169ede581",
                    "gasUsed": 3000,
                    "id": 3,
                    "methodDecoded": true,
                    "operation": "STATICCALL",
                    "output": "0x0000000000000000000000002b9a9dfac4124e666d97ef748797169caeb3476d",
                    "revert": false,
                    "revertMessage": "",
                    "selector": "0xd2d6d793",
                    "status": true,
                    "value": "0"
                },
                "nodeType": 0
            },
            "4": {
                "invocation": {
                    "address": "0x1e0049783f008a0085193e00003d00cd54003c71",
                    "callData": "0x000000000000000000000000000000000000000000000000000000000000002000000000000000000000000000000000000000000000000000000000000000010000000000000000000000000000000000000000000000000000000000000002000000000000000000000000d497a414bb00803e846b53d07fcb742831b249060000000000000000000000002b9a9dfac4124e666d97ef748797169caeb3476d000000000000000000000000cb2f36b2846e645c58819ab3f8033dc9e129a67900000000000000000000000000000000000000000000000000000000000002e80000000000000000000000000000000000000000000000000000000000000001",
                    "decodedMethod": {
                        "callParams": [
                            {
                                "name": "transfers",
                                "type": "(uint8,address,address,address,uint256,uint256)[]",
                                "value": [
                                    [
                                        {
                                            "name": "itemType",
                                            "type": "uint8",
                                            "value": "2"
                                        },
                                        {
                                            "name": "token",
                                            "type": "address",
                                            "value": "0xd497a414bb00803e846b53d07fcb742831b24906"
                                        },
                                        {
                                            "name": "from",
                                            "type": "address",
                                            "value": "0x2b9a9dfac4124e666d97ef748797169caeb3476d"
                                        },
                                        {
                                            "name": "to",
                                            "type": "address",
                                            "value": "0xcb2f36b2846e645c58819ab3f8033dc9e129a679"
                                        },
                                        {
                                            "name": "identifier",
                                            "type": "uint256",
                                            "value": "744"
                                        },
                                        {
                                            "name": "amount",
                                            "type": "uint256",
                                            "value": "1"
                                        }
                                    ]
                                ]
                            }
                        ],
                        "constructorArguments": "",
                        "name": "execute",
                        "returnParams": [
                            {
                                "name": "magicValue",
                                "type": "bytes4",
                                "value": "0x4ce34aa2"
                            }
                        ],
                        "signature": "execute((uint8,address,address,address,uint256,uint256)[])"
                    },
                    "errorInfo": "",
                    "fromAddress": "0x00000000006c3852cbef3e08e8df289169ede581",
                    "gasUsed": 35667,
                    "id": 4,
                    "methodDecoded": true,
                    "operation": "CALL",
                    "output": "0x4ce34aa200000000000000000000000000000000000000000000000000000000",
                    "revert": false,
                    "revertMessage": "",
                    "selector": "0x4ce34aa2",
                    "status": true,
                    "value": "0"
                },
                "nodeType": 0
            },
            "5": {
                "invocation": {
                    "address": "0xd497a414bb00803e846b53d07fcb742831b24906",
                    "callData": "0x0000000000000000000000002b9a9dfac4124e666d97ef748797169caeb3476d000000000000000000000000cb2f36b2846e645c58819ab3f8033dc9e129a67900000000000000000000000000000000000000000000000000000000000002e8",
                    "decodedMethod": {
                        "callParams": [
                            {
                                "name": "from",
                                "type": "address",
                                "value": "0x2b9a9dfac4124e666d97ef748797169caeb3476d"
                            },
                            {
                                "name": "to",
                                "type": "address",
                                "value": "0xcb2f36b2846e645c58819ab3f8033dc9e129a679"
                            },
                            {
                                "decimalAvailable": true,
                                "name": "tokenId",
                                "type": "uint256",
                                "value": "744"
                            }
                        ],
                        "constructorArguments": "",
                        "name": "transferFrom",
                        "returnParams": [],
                        "signature": "transferFrom(address,address,uint256)"
                    },
                    "errorInfo": "",
                    "fromAddress": "0x1e0049783f008a0085193e00003d00cd54003c71",
                    "gasUsed": 29551,
                    "id": 5,
                    "methodDecoded": true,
                    "operation": "CALL",
                    "output": "",
                    "revert": false,
                    "revertMessage": "",
                    "selector": "0x23b872dd",
                    "status": true,
                    "value": "0"
                },
                "nodeType": 0
            },
            "6": {
                "event": {
                    "contract": "0xd497a414bb00803e846b53d07fcb742831b24906",
                    "decodedLog": {
                        "name": "Approval",
                        "params": [
                            {
                                "name": "owner",
                                "type": "address",
                                "value": "0x2b9a9dfac4124e666d97ef748797169caeb3476d"
                            },
                            {
                                "name": "approved",
                                "type": "address",
                                "value": "0x0000000000000000000000000000000000000000"
                            },
                            {
                                "decimalAvailable": true,
                                "name": "tokenId",
                                "type": "uint256",
                                "value": "744"
                            }
                        ],
                        "signature": "Approval(address,address,uint256)"
                    },
                    "id": 6,
                    "logData": "0x",
                    "logDecoded": true,
                    "operation": "EVENT",
                    "revert": false,
                    "status": true,
                    "topics": [
                        "0x8c5be1e5ebec7d5bd14f71427d1e84f3dd0314c0f7b2291e5b200ac8c7c3b925",
                        "0x0000000000000000000000002b9a9dfac4124e666d97ef748797169caeb3476d",
                        "0x0000000000000000000000000000000000000000000000000000000000000000",
                        "0x00000000000000000000000000000000000000000000000000000000000002e8"
                    ]
                },
                "nodeType": 1
            },
            "7": {
                "event": {
                    "contract": "0xd497a414bb00803e846b53d07fcb742831b24906",
                    "decodedLog": {
                        "name": "Transfer",
                        "params": [
                            {
                                "name": "from",
                                "type": "address",
                                "value": "0x2b9a9dfac4124e666d97ef748797169caeb3476d"
                            },
                            {
                                "name": "to",
                                "type": "address",
                                "value": "0xcb2f36b2846e645c58819ab3f8033dc9e129a679"
                            },
                            {
                                "decimalAvailable": true,
                                "name": "tokenId",
                                "type": "uint256",
                                "value": "744"
                            }
                        ],
                        "signature": "Transfer(address,address,uint256)"
                    },
                    "id": 7,
                    "logData": "0x",
                    "logDecoded": true,
                    "operation": "EVENT",
                    "revert": false,
                    "status": true,
                    "topics": [
                        "0xddf252ad1be2c89b69c2b068fc378daa952ba7f163c4a11628f55a4df523b3ef",
                        "0x0000000000000000000000002b9a9dfac4124e666d97ef748797169caeb3476d",
                        "0x000000000000000000000000cb2f36b2846e645c58819ab3f8033dc9e129a679",
                        "0x00000000000000000000000000000000000000000000000000000000000002e8"
                    ]
                },
                "nodeType": 1
            },
            "8": {
                "invocation": {
                    "address": "0x8de9c5a032463c561423387a9648c5c7bcc5bc90",
                    "callData": "0x",
                    "decodedMethod": null,
                    "errorInfo": "",
                    "fromAddress": "0x00000000006c3852cbef3e08e8df289169ede581",
                    "gasUsed": 0,
                    "id": 8,
                    "methodDecoded": false,
                    "operation": "CALL",
                    "output": "",
                    "revert": false,
                    "revertMessage": "",
                    "selector": "fallback",
                    "status": true,
                    "value": "0.03325"
                },
                "nodeType": 0
            },
            "9": {
                "invocation": {
                    "address": "0x9a766555d4b815393a58e665909dd230b3745efe",
                    "callData": "0x",
                    "decodedMethod": null,
                    "errorInfo": "",
                    "fromAddress": "0x00000000006c3852cbef3e08e8df289169ede581",
                    "gasUsed": 6329,
                    "id": 9,
                    "methodDecoded": false,
                    "operation": "CALL",
                    "output": "",
                    "revert": false,
                    "revertMessage": "",
                    "selector": "fallback",
                    "status": true,
                    "value": "0.133"
                },
                "nodeType": 0
            }
        },
        "gasFlame": [
            {
                "children": [
                    {
                        "children": [
                            {
                                "children": [],
                                "depth": 0,
                                "name": "Initial Gas",
                                "value": 27648
                            },
                            {
                                "children": [
                                    {
                                        "children": [],
                                        "depth": 1,
                                        "name": "isValidOrder",
                                        "value": 257
                                    },
                                    {
                                        "children": [],
                                        "depth": 1,
                                        "name": "ecrecover",
                                        "value": 3000
                                    },
                                    {
                                        "children": [
                                            {
                                                "children": [],
                                                "depth": 2,
                                                "name": "transferFrom",
                                                "value": 29551
                                            }
                                        ],
                                        "depth": 1,
                                        "name": "execute",
                                        "value": 35667
                                    },
                                    {
                                        "children": [],
                                        "depth": 1,
                                        "name": "fallback",
                                        "value": 0
                                    },
                                    {
                                        "children": [
                                            {
                                                "children": [],
                                                "depth": 2,
                                                "name": "fallback",
                                                "value": 1504
                                            }
                                        ],
                                        "depth": 1,
                                        "name": "fallback",
                                        "value": 6329
                                    },
                                    {
                                        "children": [],
                                        "depth": 1,
                                        "name": "fallback",
                                        "value": 0
                                    }
                                ],
                                "depth": 0,
                                "name": "Executed Gas",
                                "value": 123137
                            }
                        ],
                        "depth": -1,
                        "name": "Actual Gas Used",
                        "value": 143185
                    },
                    {
                        "children": [],
                        "depth": -1,
                        "name": "Refunded Gas",
                        "value": 7600
                    }
                ],
                "depth": -2,
                "name": "Total Gas",
                "value": 150785
            }
        ],
        "isConfirmed": true,
        "mainTrace": [
            {
                "children": [
                    {
                        "children": [
                            {
                                "children": [],
                                "depth": 1,
                                "id": 1,
                                "order": 1
                            },
                            {
                                "children": [],
                                "depth": 1,
                                "id": 2,
                                "order": 2
                            },
                            {
                                "children": [],
                                "depth": 1,
                                "id": 3,
                                "order": 3
                            },
                            {
                                "children": [
                                    {
                                        "children": [
                                            {
                                                "children": [],
                                                "depth": 3,
                                                "id": 6,
                                                "order": 6
                                            },
                                            {
                                                "children": [],
                                                "depth": 3,
                                                "id": 7,
                                                "order": 7
                                            }
                                        ],
                                        "depth": 2,
                                        "id": 5,
                                        "order": 5
                                    }
                                ],
                                "depth": 1,
                                "id": 4,
                                "order": 4
                            },
                            {
                                "children": [],
                                "depth": 1,
                                "id": 8,
                                "order": 8
                            },
                            {
                                "children": [
                                    {
                                        "children": [
                                            {
                                                "children": [],
                                                "depth": 3,
                                                "id": 11,
                                                "order": 11
                                            }
                                        ],
                                        "depth": 2,
                                        "id": 10,
                                        "order": 10
                                    }
                                ],
                                "depth": 1,
                                "id": 9,
                                "order": 9
                            },
                            {
                                "children": [],
                                "depth": 1,
                                "id": 12,
                                "order": 12
                            }
                        ],
                        "depth": 0,
                        "id": 0,
                        "order": 0
                    }
                ],
                "depth": -1,
                "id": -1,
                "order": -1
            }
        ],
        "mainTraceNodeCount": 13,
        "parentIdMap": {
            "0": -1,
            "1": 0,
            "10": 9,
            "11": 10,
            "12": 0,
            "2": 0,
            "3": 0,
            "4": 0,
            "5": 4,
            "6": 5,
            "7": 5,
            "8": 0,
            "9": 0
        },
        "tidyTrace": [
            {
                "children": [
                    {
                        "children": [
                            {
                                "children": [],
                                "depth": 1,
                                "id": 1,
                                "order": 1
                            },
                            {
                                "children": [
                                    {
                                        "children": [
                                            {
                                                "children": [],
                                                "depth": 3,
                                                "id": 6,
                                                "order": 6
                                            },
                                            {
                                                "children": [],
                                                "depth": 3,
                                                "id": 7,
                                                "order": 7
                                            }
                                        ],
                                        "depth": 2,
                                        "id": 5,
                                        "order": 5
                                    }
                                ],
                                "depth": 1,
                                "id": 4,
                                "order": 4
                            },
                            {
                                "children": [],
                                "depth": 1,
                                "id": 8,
                                "order": 8
                            },
                            {
                                "children": [
                                    {
                                        "children": [
                                            {
                                                "children": [],
                                                "depth": 3,
                                                "id": 11,
                                                "order": 11
                                            }
                                        ],
                                        "depth": 2,
                                        "id": 10,
                                        "order": 10
                                    }
                                ],
                                "depth": 1,
                                "id": 9,
                                "order": 9
                            },
                            {
                                "children": [],
                                "depth": 1,
                                "id": 12,
                                "order": 12
                            }
                        ],
                        "depth": 0,
                        "id": 0,
                        "order": 0
                    }
                ],
                "depth": -1,
                "id": -1,
                "order": -1
            }
        ],
        "tidyTraceNodeCount": 11
    },
    "state_change": {
        "stateChanges": [
            {
                "address": "0x00000000006c3852cbef3e08e8df289169ede581",
                "erc": "",
                "slots": [
                    {
                        "current": "0x0000000000000000000000000000010000000000000000000000000000010001",
                        "key": "0x6679728cddf3941d9f0c6d066f6b8a63bb21a193ce53a1c62a549e8bf3d066ca",
                        "prev": "0x0000000000000000000000000000000000000000000000000000000000000000"
                    }
                ],
                "storageVariables": [
                    {
                        "name": "_orderStatus",
                        "type": "mapping(bytes32 => struct OrderStatus)",
                        "value": {
                            "pairs": [
                                {
                                    "key": "0xa981403eac106ce2546e6b60ccda84f13970e3bde041355fd160e47ae6a58e76",
                                    "value": {
                                        "fields": [
                                            {
                                                "name": "isValidated",
                                                "type": "bool",
                                                "value": {
                                                    "current": "true",
                                                    "prev": "false",
                                                    "typeTag": 1
                                                }
                                            },
                                            {
                                                "name": "isCancelled",
                                                "type": "bool",
                                                "value": {
                                                    "current": "false",
                                                    "prev": "false",
                                                    "typeTag": 1
                                                }
                                            },
                                            {
                                                "name": "numerator",
                                                "type": "uint120",
                                                "value": {
                                                    "current": "1",
                                                    "prev": "0",
                                                    "typeTag": 1
                                                }
                                            },
                                            {
                                                "name": "denominator",
                                                "type": "uint120",
                                                "value": {
                                                    "current": "1",
                                                    "prev": "0",
                                                    "typeTag": 1
                                                }
                                            }
                                        ],
                                        "typeTag": 3
                                    }
                                }
                            ],
                            "typeTag": 4
                        }
                    }
                ]
            },
            {
                "address": "0xd497a414bb00803e846b53d07fcb742831b24906",
                "erc": "ERC-721",
                "slots": [
                    {
                        "current": "0x000000000000000062b0ff3dcb2f36b2846e645c58819ab3f8033dc9e129a679",
                        "key": "0xdfd4c834c292a2c7659cb4a331ad032badb7aaa51a1635995a53e0d9d25bff66",
                        "prev": "0x0000000000000000629548302b9a9dfac4124e666d97ef748797169caeb3476d"
                    },
                    {
                        "current": "0x0000000000000000000000000000000000000000000000000000000000000000",
                        "key": "0x97cc2a6e02b8d2a22ad2741ca6f9d569b8c7449952f9099fdcf718c05ce7e5ff",
                        "prev": "0x0000000000000000000000000000000000000000000000000000000000000001"
                    },
                    {
                        "current": "0x0000000000000000000000000000000000000000000000000000000000000004",
                        "key": "0x72ddb2b6c6c38d2e6473dc567564f713e15c2462149389797d7facfafc840a01",
                        "prev": "0x0000000000000000000000000000000000000000000000000000000000000003"
                    }
                ],
                "storageVariables": [
                    {
                        "name": "_addressData",
                        "type": "mapping(address => struct IERC721A.AddressData)",
                        "value": {
                            "pairs": [
                                {
                                    "key": "0x2b9a9dfac4124e666d97ef748797169caeb3476d",
                                    "value": {
                                        "fields": [
                                            {
                                                "name": "balance",
                                                "type": "uint64",
                                                "value": {
                                                    "current": "0",
                                                    "prev": "1",
                                                    "typeTag": 1
                                                }
                                            },
                                            {
                                                "name": "numberMinted",
                                                "type": "uint64",
                                                "value": {
                                                    "current": "0",
                                                    "prev": "0",
                                                    "typeTag": 1
                                                }
                                            },
                                            {
                                                "name": "numberBurned",
                                                "type": "uint64",
                                                "value": {
                                                    "current": "0",
                                                    "prev": "0",
                                                    "typeTag": 1
                                                }
                                            },
                                            {
                                                "name": "aux",
                                                "type": "uint64",
                                                "value": {
                                                    "current": "0",
                                                    "prev": "0",
                                                    "typeTag": 1
                                                }
                                            }
                                        ],
                                        "typeTag": 3
                                    }
                                },
                                {
                                    "key": "0xcb2f36b2846e645c58819ab3f8033dc9e129a679",
                                    "value": {
                                        "fields": [
                                            {
                                                "name": "balance",
                                                "type": "uint64",
                                                "value": {
                                                    "current": "4",
                                                    "prev": "3",
                                                    "typeTag": 1
                                                }
                                            },
                                            {
                                                "name": "numberMinted",
                                                "type": "uint64",
                                                "value": {
                                                    "current": "0",
                                                    "prev": "0",
                                                    "typeTag": 1
                                                }
                                            },
                                            {
                                                "name": "numberBurned",
                                                "type": "uint64",
                                                "value": {
                                                    "current": "0",
                                                    "prev": "0",
                                                    "typeTag": 1
                                                }
                                            },
                                            {
                                                "name": "aux",
                                                "type": "uint64",
                                                "value": {
                                                    "current": "0",
                                                    "prev": "0",
                                                    "typeTag": 1
                                                }
                                            }
                                        ],
                                        "typeTag": 3
                                    }
                                }
                            ],
                            "typeTag": 4
                        }
                    },
                    {
                        "name": "_ownerships",
                        "type": "mapping(uint256 => struct IERC721A.TokenOwnership)",
                        "value": {
                            "pairs": [
                                {
                                    "key": "744",
                                    "value": {
                                        "fields": [
                                            {
                                                "name": "addr",
                                                "type": "address",
                                                "value": {
                                                    "current": "0xcb2f36b2846e645c58819ab3f8033dc9e129a679",
                                                    "prev": "0x2b9a9dfac4124e666d97ef748797169caeb3476d",
                                                    "typeTag": 1
                                                }
                                            },
                                            {
                                                "name": "startTimestamp",
                                                "type": "uint64",
                                                "value": {
                                                    "current": "1655766845",
                                                    "prev": "1653950512",
                                                    "typeTag": 1
                                                }
                                            },
                                            {
                                                "name": "burned",
                                                "type": "bool",
                                                "value": {
                                                    "current": "false",
                                                    "prev": "false",
                                                    "typeTag": 1
                                                }
                                            }
                                        ],
                                        "typeTag": 3
                                    }
                                }
                            ],
                            "typeTag": 4
                        }
                    }
                ]
            }
        ]
    }
}