{
    "balance_change": {
        "balanceChanges": [
            {
                "account": "0x9279c4cfb0e85e2dff8825ce141f9794c7c7170a",
                "assets": [
                    {
                        "address": "0x94e496474f1725f1c1824cb5bdb92d7691a4f03a",
                        "amount": "4,818.822222222222222222",
                        "iconUrl": "",
                        "isERC1155": false,
                        "isERC721": false,
                        "sign": true,
                        "value": "2324.1179576706000312"
                    }
                ]
            },
            {
                "account": "0x0000000000000000000000000000000000000000",
                "assets": [
                    {
                        "address": "0x94e496474f1725f1c1824cb5bdb92d7691a4f03a",
                        "amount": "4,818.822222222222222222",
                        "iconUrl": "",
                        "isERC1155": false,
                        "isERC721": false,
                        "sign": false,
                        "value": "2324.1179576706000312"
                    }
                ]
            }
        ]
    },
    "profile": {
        "basic_info": {
            "baseFee": "17.194215728",
            "blockNumber": 16811637,
            "callData": "0xfea99c4b00000000000000000000000094e496474f1725f1c1824cb5bdb92d7691a4f03a",
            "debugEnable": true,
            "errorInfo": "",
            "eventCount": 1,
            "feeRecipient": "0xdafea492d9c6733ae3d56b7ed1adb60692c98bc5",
            "formatValue": "0",
            "gasLimit": 130809,
            "gasPrice": "17.206598225",
            "gasUsed": 69678,
            "intTxnCount": 3,
            "internalRevert": false,
            "internalRevertMessage": "",
            "isContractCreation": false,
            "isFlashloan": false,
            "maxFee": "",
            "nonce": 1033,
            "overwritedBlockNumber": -1,
            "priorityFee": "",
            "receiver": "0x86cc33dbe3d2fb95bc6734e1e5920d287695215f",
            "revertMessage": "",
            "sender": "0x9279c4cfb0e85e2dff8825ce141f9794c7c7170a",
            "simulationEnable": true,
            "sourceTxnHash": "0x6888d0a6ae5cb78d517981e467cae5e6a2f0eef5931651f844753f99ea073f0b",
            "status": true,
            "timestamp": "2023-03-12T11:25:59Z",
            "transactionFee": "0.00119892135112155",
            "txnHash": "0x6888d0a6ae5cb78d517981e467cae5e6a2f0eef5931651f844753f99ea073f0b",
            "txnIndex": 91,
            "type": 0,
            "value": "0"
        },
        "fund_flow": [
            {
                "amount": "4,818.822222222222222222",
                "from": "0x0000000000000000000000000000000000000000",
                "id": 1,
                "isERC1155": false,
                "isERC721": false,
                "isReverted": false,
                "order": 1,
                "to": "0x9279c4cfb0e85e2dff8825ce141f9794c7c7170a",
                "token": "0x94e496474f1725f1c1824cb5bdb92d7691a4f03a"
            }
        ],
        "token_infos": [
            {
                "address": "0x94e496474f1725f1c1824cb5bdb92d7691a4f03a",
                "decimals": 18
            },
            {
                "address": "0xc02aaa39b223fe8d0a0e5c4f27ead9083c756cc2",
                "decimals": 18
            },
            {
                "address": "0xeeeeeeeeeeeeeeeeeeeeeeeeeeeeeeeeeeeeeeee",
                "decimals": 18
            }
        ]
    },
    "address_label": {
        "labels": [
            {
                "address": "0x0000000000000000000000000000000000000002",
                "label": "Precompiled"
            },
            {
                "address": "0x0000000000000000000000000000000000000003",
                "label": "Precompiled"
            },
            {
                "address": "0x0000000000000000000000000000000000000004",
                "label": "Precompiled"
            },
            {
                "address": "0xeeeeeeeeeeeeeeeeeeeeeeeeeeeeeeeeeeeeeeee",
                "label": "Ether"
            },
            {
                "address": "0x57a204aa1042f6e66dd7730813f4024114d74f37",
                "label": "CyberKongz: KONGZ Token"
            },
            {
                "address": "0x86cc33dbe3d2fb95bc6734e1e5920d287695215f",
                "label": "YieldHub"
            },
            {
                "address": "0x94e496474f1725f1c1824cb5bdb92d7691a4f03a",
                "label": "CyberKongZ: BANANA Token"
            },
            {
                "address": "0x0000000000000000000000000000000000000001",
                "label": "Precompiled"
            }
        ]
    },
    "trace": {
        "accountLabels": null,
        "dataMap": {
            "-1": {
                "invocation": {
                    "address": "0x9279c4cfb0e85e2dff8825ce141f9794c7c7170a",
                    "callData": "",
                    "decodedMethod": null,
                    "errorInfo": "",
                    "fromAddress": "",
                    "gasUsed": 0,
                    "id": -1,
                    "methodDecoded": false,
                    "operation": "",
                    "output": "",
                    "revert": false,
                    "revertMessage": "",
                    "selector": "",
                    "status": false,
                    "value": ""
                },
                "nodeType": 0
            },
            "0": {
                "invocation": {
                    "address": "0x86cc33dbe3d2fb95bc6734e1e5920d287695215f",
                    "callData": "0x00000000000000000000000094e496474f1725f1c1824cb5bdb92d7691a4f03a",
                    "decodedMethod": {
                        "callParams": [
                            {
                                "name": "_token",
                                "type": "address",
                                "value": "0x94e496474f1725f1c1824cb5bdb92d7691a4f03a"
                            }
                        ],
                        "constructorArguments": "",
                        "name": "getTokenReward",
                        "returnParams": [],
                        "signature": "getTokenReward(address)"
                    },
                    "errorInfo": "",
                    "fromAddress": "0x9279c4cfb0e85e2dff8825ce141f9794c7c7170a",
                    "gasUsed": 69678,
                    "id": 0,
                    "methodDecoded": true,
                    "operation": "CALL",
                    "output": "",
                    "revert": false,
                    "revertMessage": "",
                    "selector": "0xfea99c4b",
                    "status": true,
                    "value": "0"
                },
                "nodeType": 0
            },
            "1": {
                "invocation": {
                    "address": "0x57a204aa1042f6e66dd7730813f4024114d74f37",
                    "callData": "0x0000000000000000000000009279c4cfb0e85e2dff8825ce141f9794c7c7170a",
                    "decodedMethod": {
                        "callParams": [
                            {
                                "name": "owner",
                                "type": "address",
                                "value": "0x9279c4cfb0e85e2dff8825ce141f9794c7c7170a"
                            }
                        ],
                        "constructorArguments": "",
                        "name": "balanceOf",
                        "returnParams": [
                            {
                                "decimalAvailable": true,
                                "name": "",
                                "type": "uint256",
                                "value": "47"
                            }
                        ],
                        "signature": "balanceOf(address)"
                    },
                    "errorInfo": "",
                    "fromAddress": "0x86cc33dbe3d2fb95bc6734e1e5920d287695215f",
                    "gasUsed": 2852,
                    "id": 1,
                    "methodDecoded": true,
                    "operation": "STATICCALL",
                    "output": "0x000000000000000000000000000000000000000000000000000000000000002f",
                    "revert": false,
                    "revertMessage": "",
                    "selector": "0x70a08231",
                    "status": true,
                    "value": "0"
                },
                "nodeType": 0
            },
            "2": {
                "invocation": {
                    "address": "0x57a204aa1042f6e66dd7730813f4024114d74f37",
                    "callData": "0x0000000000000000000000009279c4cfb0e85e2dff8825ce141f9794c7c7170a",
                    "decodedMethod": {
                        "callParams": [
                            {
                                "name": "",
                                "type": "address",
                                "value": "0x9279c4cfb0e85e2dff8825ce141f9794c7c7170a"
                            }
                        ],
                        "constructorArguments": "",
                        "name": "balanceOG",
                        "returnParams": [
                            {
                                "name": "",
                                "type": "uint256",
                                "value": "38"
                            }
                        ],
                        "signature": "balanceOG(address)"
                    },
                    "errorInfo": "",
                    "fromAddress": "0x86cc33dbe3d2fb95bc6734e1e5920d287695215f",
                    "gasUsed": 2607,
                    "id": 2,
                    "methodDecoded": true,
                    "operation": "STATICCALL",
                    "output": "0x0000000000000000000000000000000000000000000000000000000000000026",
                    "revert": false,
                    "revertMessage": "",
                    "selector": "0x38712d8d",
                    "status": true,
                    "value": "0"
                },
                "nodeType": 0
            },
            "3": {
                "invocation": {
                    "address": "0x94e496474f1725f1c1824cb5bdb92d7691a4f03a",
                    "callData": "0x0000000000000000000000009279c4cfb0e85e2dff8825ce141f9794c7c7170a0000000000000000000000000000000000000000000001053a979fe59204e38e",
                    "decodedMethod": {
                        "callParams": [
                            {
                                "name": "_to",
                                "type": "address",
                                "value": "0x9279c4cfb0e85e2dff8825ce141f9794c7c7170a"
                            },
                            {
                                "name": "_amount",
                                "type": "uint256",
                                "value": "4,818,822,222,222,222,222,222"
                            }
                        ],
                        "constructorArguments": "",
                        "name": "mint",
                        "returnParams": [],
                        "signature": "mint(address,uint256)"
                    },
                    "errorInfo": "",
                    "fromAddress": "0x86cc33dbe3d2fb95bc6734e1e5920d287695215f",
                    "gasUsed": 12650,
                    "id": 3,
                    "methodDecoded": true,
                    "operation": "CALL",
                    "output": "",
                    "revert": false,
                    "revertMessage": "",
                    "selector": "0x40c10f19",
                    "status": true,
                    "value": "0"
                },
                "nodeType": 0
            },
            "4": {
                "event": {
                    "contract": "0x94e496474f1725f1c1824cb5bdb92d7691a4f03a",
                    "decodedLog": {
                        "name": "Transfer",
                        "params": [
                            {
                                "name": "from",
                                "type": "address",
                                "value": "0x0000000000000000000000000000000000000000"
                            },
                            {
                                "name": "to",
                                "type": "address",
                                "value": "0x9279c4cfb0e85e2dff8825ce141f9794c7c7170a"
                            },
                            {
                                "decimalAvailable": true,
                                "name": "value",
                                "type": "uint256",
                                "value": "4,818,822,222,222,222,222,222"
                            }
                        ],
                        "signature": "Transfer(address,address,uint256)"
                    },
                    "id": 4,
                    "logData": "0x0000000000000000000000000000000000000000000001053a979fe59204e38e",
                    "logDecoded": true,
                    "operation": "EVENT",
                    "revert": false,
                    "status": true,
                    "topics": [
                        "0xddf252ad1be2c89b69c2b068fc378daa952ba7f163c4a11628f55a4df523b3ef",
                        "0x0000000000000000000000000000000000000000000000000000000000000000",
                        "0x0000000000000000000000009279c4cfb0e85e2dff8825ce141f9794c7c7170a"
                    ]
                },
                "nodeType": 1
            }
        },
        "gasFlame": [
            {
                "children": [
                    {
                        "children": [
                            {
                                "children": [],
                                "depth": 0,
                                "name": "Initial Gas",
                                "value": 21432
                            },
                            {
                                "children": [
                                    {
                                        "children": [],
                                        "depth": 1,
                                        "name": "balanceOf",
                                        "value": 2852
                                    },
                                    {
                                        "children": [],
                                        "depth": 1,
                                        "name": "balanceOG",
                                        "value": 2607
                                    },
                                    {
                                        "children": [],
                                        "depth": 1,
                                        "name": "mint",
                                        "value": 12650
                                    }
                                ],
                                "depth": 0,
                                "name": "Executed Gas",
                                "value": 65665
                            }
                        ],
                        "depth": -1,
                        "name": "Actual Gas Used",
                        "value": 69678
                    },
                    {
                        "children": [],
                        "depth": -1,
                        "name": "Refunded Gas",
                        "value": 17419
                    }
                ],
                "depth": -2,
                "name": "Total Gas",
                "value": 87097
            }
        ],
        "isConfirmed": true,
        "mainTrace": [
            {
                "children": [
                    {
                        "children": [
                            {
                                "children": [],
                                "depth": 1,
                                "id": 1,
                                "order": 1
                            },
                            {
                                "children": [],
                                "depth": 1,
                                "id": 2,
                                "order": 2
                            },
                            {
                                "children": [
                                    {
                                        "children": [],
                                        "depth": 2,
                                        "id": 4,
                                        "order": 4
                                    }
                                ],
                                "depth": 1,
                                "id": 3,
                                "order": 3
                            }
                        ],
                        "depth": 0,
                        "id": 0,
                        "order": 0
                    }
                ],
                "depth": -1,
                "id": -1,
                "order": -1
            }
        ],
        "mainTraceNodeCount": 5,
        "parentIdMap": {
            "0": -1,
            "1": 0,
            "2": 0,
            "3": 0,
            "4": 3
        },
        "tidyTrace": [
            {
                "children": [
                    {
                        "children": [
                            {
                                "children": [
                                    {
                                        "children": [],
                                        "depth": 2,
                                        "id": 4,
                                        "order": 4
                                    }
                                ],
                                "depth": 1,
                                "id": 3,
                                "order": 3
                            }
                        ],
                        "depth": 0,
                        "id": 0,
                        "order": 0
                    }
                ],
                "depth": -1,
                "id": -1,
                "order": -1
            }
        ],
        "tidyTraceNodeCount": 3
    },
    "state_change": {
        "stateChanges": [
            {
                "address": "0x86cc33dbe3d2fb95bc6734e1e5920d287695215f",
                "erc": "",
                "slots": [
                    {
                        "current": "0x00000000000000000000000000000000000000000000000000000000640db6c7",
                        "key": "0x461b2aec4ba04a8008cd92d41b210ad83df2b6b18f855d973d8eb6775cfc0920",
                        "prev": "0x0000000000000000000000000000000000000000000000000000000063fcfee7"
                    }
                ],
                "storageVariables": [
                    {
                        "name": "userData",
                        "type": "mapping(address => mapping(address => struct YieldHub.UserData))",
                        "value": {
                            "pairs": [
                                {
                                    "key": "0x9279c4cfb0e85e2dff8825ce141f9794c7c7170a",
                                    "value": {
                                        "pairs": [
                                            {
                                                "key": "0x94e496474f1725f1c1824cb5bdb92d7691a4f03a",
                                                "value": {
                                                    "fields": [
                                                        {
                                                            "name": "lastUpdate",
                                                            "type": "uint256",
                                                            "value": {
                                                                "current": "1678620359",
                                                                "prev": "1677524711",
                                                                "typeTag": 1
                                                            }
                                                        }
                                                    ],
                                                    "typeTag": 3
                                                }
                                            }
                                        ],
                                        "typeTag": 4
                                    }
                                }
                            ],
                            "typeTag": 4
                        }
                    }
                ]
            },
            {
                "address": "0x94e496474f1725f1c1824cb5bdb92d7691a4f03a",
                "erc": "ERC-20",
                "slots": [
                    {
                        "current": "0x00000000000000000000000000000000000000000005a9b63694d7344c64ea18",
                        "key": "0x0000000000000000000000000000000000000000000000000000000000000002",
                        "prev": "0x00000000000000000000000000000000000000000005a8b0fbfd374eba60068a"
                    },
                    {
                        "current": "0x00000000000000000000000000000000000000000000030593d1eb3de2d1238b",
                        "key": "0x75f19b96779b6faba1ea4e2fa16b1a7219a7bd4a82fc2c22a2fafd54362c8126",
                        "prev": "0x000000000000000000000000000000000000000000000200593a4b5850cc3ffd"
                    }
                ],
                "storageVariables": [
                    {
                        "name": "_balances",
                        "type": "mapping(address => uint256)",
                        "value": {
                            "pairs": [
                                {
                                    "key": "0x9279c4cfb0e85e2dff8825ce141f9794c7c7170a",
                                    "value": {
                                        "current": "14269984722222222222219",
                                        "prev": "9451162499999999999997",
                                        "typeTag": 1
                                    }
                                }
                            ],
                            "typeTag": 4
                        }
                    },
                    {
                        "name": "_totalSupply",
                        "type": "uint256",
                        "value": {
                            "current": "6846070274104525274278424",
                            "prev": "6841251451882303052056202",
                            "typeTag": 1
                        }
                    }
                ]
            }
        ]
    }
}