{
    "balance_change": {
        "balanceChanges": []
    },
    "profile": {
        "basic_info": {
            "baseFee": "42.721155135",
            "blockNumber": 15075958,
            "callData": "0xf14fcbc8bd40027fe8a3724112aa74af2b39b00a7905c140c11691c6a234d5b672204995",
            "debugEnable": true,
            "errorInfo": "",
            "eventCount": 0,
            "feeRecipient": "0x829bd824b016326a401d083b33d092293333a830",
            "formatValue": "0",
            "gasLimit": 46267,
            "gasPrice": "44.221155135",
            "gasUsed": 46267,
            "intTxnCount": 0,
            "internalRevert": false,
            "internalRevertMessage": "",
            "isContractCreation": false,
            "isFlashloan": false,
            "maxFee": "62.488905677",
            "nonce": 543,
            "overwritedBlockNumber": -1,
            "priorityFee": "1.5",
            "receiver": "0x283af0b28c62c092c9727f1ee09c02ca627eb7f5",
            "revertMessage": "",
            "sender": "0x9d80b5cde9ba235a5abcb025e35613e00499d14e",
            "simulationEnable": true,
            "sourceTxnHash": "0x682c7c8a3b5c425f1a72884a79bc3c29e227763e6f65eb32a2f0adfd343a4e73",
            "status": true,
            "timestamp": "2022-07-04T12:08:06Z",
            "transactionFee": "0.002045980184631045",
            "txnHash": "0x682c7c8a3b5c425f1a72884a79bc3c29e227763e6f65eb32a2f0adfd343a4e73",
            "txnIndex": 79,
            "type": 2,
            "value": "0"
        },
        "fund_flow": [],
        "token_infos": [
            {
                "address": "0xc02aaa39b223fe8d0a0e5c4f27ead9083c756cc2",
                "decimals": 18
            },
            {
                "address": "0xeeeeeeeeeeeeeeeeeeeeeeeeeeeeeeeeeeeeeeee",
                "decimals": 18
            }
        ]
    },
    "address_label": {
        "labels": [
            {
                "address": "0xeeeeeeeeeeeeeeeeeeeeeeeeeeeeeeeeeeeeeeee",
                "label": "Ether"
            },
            {
                "address": "0x283af0b28c62c092c9727f1ee09c02ca627eb7f5",
                "label": "ENS: Old ETH Registrar Controller"
            },
            {
                "address": "0x0000000000000000000000000000000000000001",
                "label": "Precompiled"
            },
            {
                "address": "0x0000000000000000000000000000000000000002",
                "label": "Precompiled"
            },
            {
                "address": "0x0000000000000000000000000000000000000003",
                "label": "Precompiled"
            },
            {
                "address": "0x0000000000000000000000000000000000000004",
                "label": "Precompiled"
            }
        ]
    },
    "trace": {
        "accountLabels": null,
        "dataMap": {
            "-1": {
                "invocation": {
                    "address": "0x9d80b5cde9ba235a5abcb025e35613e00499d14e",
                    "callData": "",
                    "decodedMethod": null,
                    "errorInfo": "",
                    "fromAddress": "",
                    "gasUsed": 0,
                    "id": -1,
                    "methodDecoded": false,
                    "operation": "",
                    "output": "",
                    "revert": false,
                    "revertMessage": "",
                    "selector": "",
                    "status": false,
                    "value": ""
                },
                "nodeType": 0
            },
            "0": {
                "invocation": {
                    "address": "0x283af0b28c62c092c9727f1ee09c02ca627eb7f5",
                    "callData": "0xbd40027fe8a3724112aa74af2b39b00a7905c140c11691c6a234d5b672204995",
                    "decodedMethod": {
                        "callParams": [
                            {
                                "name": "commitment",
                                "type": "bytes32",
                                "value": "0xbd40027fe8a3724112aa74af2b39b00a7905c140c11691c6a234d5b672204995"
                            }
                        ],
                        "constructorArguments": "",
                        "name": "commit",
                        "returnParams": [],
                        "signature": "commit(bytes32)"
                    },
                    "errorInfo": "",
                    "fromAddress": "0x9d80b5cde9ba235a5abcb025e35613e00499d14e",
                    "gasUsed": 46267,
                    "id": 0,
                    "methodDecoded": true,
                    "operation": "CALL",
                    "output": "",
                    "revert": false,
                    "revertMessage": "",
                    "selector": "0xf14fcbc8",
                    "status": true,
                    "value": "0"
                },
                "nodeType": 0
            }
        },
        "gasFlame": [
            {
                "children": [
                    {
                        "children": [
                            {
                                "children": [],
                                "depth": 0,
                                "name": "Initial Gas",
                                "value": 21576
                            },
                            {
                                "children": [],
                                "depth": 0,
                                "name": "Executed Gas",
                                "value": 24691
                            }
                        ],
                        "depth": -1,
                        "name": "Actual Gas Used",
                        "value": 46267
                    },
                    {
                        "children": [],
                        "depth": -1,
                        "name": "Refunded Gas",
                        "value": 0
                    }
                ],
                "depth": -2,
                "name": "Total Gas",
                "value": 46267
            }
        ],
        "isConfirmed": true,
        "mainTrace": [
            {
                "children": [
                    {
                        "children": [],
                        "depth": 0,
                        "id": 0,
                        "order": 0
                    }
                ],
                "depth": -1,
                "id": -1,
                "order": -1
            }
        ],
        "mainTraceNodeCount": 1,
        "parentIdMap": {
            "0": -1
        },
        "tidyTrace": [
            {
                "children": [
                    {
                        "children": [],
                        "depth": 0,
                        "id": 0,
                        "order": 0
                    }
                ],
                "depth": -1,
                "id": -1,
                "order": -1
            }
        ],
        "tidyTraceNodeCount": 1
    },
    "state_change": {
        "stateChanges": [
            {
                "address": "0x283af0b28c62c092c9727f1ee09c02ca627eb7f5",
                "erc": "",
                "slots": [
                    {
                        "current": "0x0000000000000000000000000000000000000000000000000000000062c2d826",
                        "key": "0xa9421bb876d3babe3258f0565969d5b1826cb59de2988bd5628686bb70c0711a",
                        "prev": "0x0000000000000000000000000000000000000000000000000000000000000000"
                    }
                ],
                "storageVariables": [
                    {
                        "name": "commitments",
                        "type": "mapping(bytes32 => uint256)",
                        "value": {
                            "pairs": [
                                {
                                    "key": "0xbd40027fe8a3724112aa74af2b39b00a7905c140c11691c6a234d5b672204995",
                                    "value": {
                                        "current": "1656936486",
                                        "prev": "0",
                                        "typeTag": 1
                                    }
                                }
                            ],
                            "typeTag": 4
                        }
                    }
                ]
            }
        ]
    }
}