{
    "balance_change": {
        "balanceChanges": [
            {
                "account": "0x194d1ba9edb4bd849ca844870c05ac5cfb632b14",
                "assets": [
                    {
                        "address": "0xbb97e381f1d1e94ffa2a5844f6875e6146981009",
                        "amount": "439.2",
                        "iconUrl": "",
                        "isERC1155": false,
                        "isERC721": false,
                        "sign": true,
                        "value": "4.52142907"
                    }
                ]
            },
            {
                "account": "0x4e43eb83e92fb6e307f87ded63a87ce1dfcd6be4",
                "assets": [
                    {
                        "address": "0xbb97e381f1d1e94ffa2a5844f6875e6146981009",
                        "amount": "20,000",
                        "iconUrl": "",
                        "isERC1155": false,
                        "isERC721": false,
                        "sign": true,
                        "value": "152.0605404"
                    }
                ]
            },
            {
                "account": "0xc1ab0c708aa638ad492d99383217c033f0eeab95",
                "assets": [
                    {
                        "address": "0xbb97e381f1d1e94ffa2a5844f6875e6146981009",
                        "amount": "20,439.2",
                        "iconUrl": "",
                        "isERC1155": false,
                        "isERC721": false,
                        "sign": false,
                        "value": "328.7413802"
                    }
                ]
            }
        ]
    },
    "profile": {
        "basic_info": {
            "baseFee": "43.505060177",
            "blockNumber": 13777354,
            "callData": "0x33237989000000000000000000000000000000000000000000000000000000000000006000000000000000000000000000000000000000000000000000000000000000c0000000000000000000000000c1ab0c708aa638ad492d99383217c033f0eeab9500000000000000000000000000000000000000000000000000000000000000020000000000000000000000004e43eb83e92fb6e307f87ded63a87ce1dfcd6be4000000000000000000000000194d1ba9edb4bd849ca844870c05ac5cfb632b14000000000000000000000000000000000000000000000000000000000000000200000000000000000000000000000000000000000000043c33c1937564800000000000000000000000000000000000000000000000000015a4034cf29ff00000",
            "debugEnable": true,
            "errorInfo": "",
            "eventCount": 3,
            "feeRecipient": "0xea674fdde714fd979de3edf0f56aa9716b898ec8",
            "formatValue": "0",
            "gasLimit": 150000,
            "gasPrice": "46",
            "gasUsed": 61090,
            "intTxnCount": 0,
            "internalRevert": false,
            "internalRevertMessage": "",
            "isContractCreation": false,
            "isFlashloan": false,
            "maxFee": "",
            "nonce": 157244,
            "overwritedBlockNumber": -1,
            "priorityFee": "",
            "receiver": "0xbb97e381f1d1e94ffa2a5844f6875e6146981009",
            "revertMessage": "",
            "sender": "0x4261cdfea93118677c04f880380d9b86b79c9b6a",
            "simulationEnable": true,
            "sourceTxnHash": "0x68ec477d3cf6fb0a69cce411fb4775771947d9e52ccc2e798bec4e0e134f7059",
            "status": true,
            "timestamp": "2021-12-10T12:15:45Z",
            "transactionFee": "0.00281014",
            "txnHash": "0x68ec477d3cf6fb0a69cce411fb4775771947d9e52ccc2e798bec4e0e134f7059",
            "txnIndex": 61,
            "type": 0,
            "value": "0"
        },
        "fund_flow": [
            {
                "amount": "439.2",
                "from": "0xc1ab0c708aa638ad492d99383217c033f0eeab95",
                "id": 1,
                "isERC1155": false,
                "isERC721": false,
                "isReverted": false,
                "order": 1,
                "to": "0x194d1ba9edb4bd849ca844870c05ac5cfb632b14",
                "token": "0xbb97e381f1d1e94ffa2a5844f6875e6146981009"
            },
            {
                "amount": "20,000",
                "from": "0xc1ab0c708aa638ad492d99383217c033f0eeab95",
                "id": 2,
                "isERC1155": false,
                "isERC721": false,
                "isReverted": false,
                "order": 2,
                "to": "0x4e43eb83e92fb6e307f87ded63a87ce1dfcd6be4",
                "token": "0xbb97e381f1d1e94ffa2a5844f6875e6146981009"
            }
        ],
        "token_infos": [
            {
                "address": "0xbb97e381f1d1e94ffa2a5844f6875e6146981009",
                "decimals": 18
            },
            {
                "address": "0xc02aaa39b223fe8d0a0e5c4f27ead9083c756cc2",
                "decimals": 18
            },
            {
                "address": "0xeeeeeeeeeeeeeeeeeeeeeeeeeeeeeeeeeeeeeeee",
                "decimals": 18
            }
        ]
    },
    "address_label": {
        "labels": [
            {
                "address": "0xeeeeeeeeeeeeeeeeeeeeeeeeeeeeeeeeeeeeeeee",
                "label": "Ether"
            },
            {
                "address": "0x4261cdfea93118677c04f880380d9b86b79c9b6a",
                "label": "WiBX: Blockchain Handler"
            },
            {
                "address": "0xbb97e381f1d1e94ffa2a5844f6875e6146981009",
                "label": "WiBX: WBX Token"
            },
            {
                "address": "0x0000000000000000000000000000000000000001",
                "label": "Precompiled"
            },
            {
                "address": "0x0000000000000000000000000000000000000002",
                "label": "Precompiled"
            },
            {
                "address": "0x0000000000000000000000000000000000000003",
                "label": "Precompiled"
            },
            {
                "address": "0x0000000000000000000000000000000000000004",
                "label": "Precompiled"
            }
        ]
    },
    "trace": {
        "accountLabels": null,
        "dataMap": {
            "-1": {
                "invocation": {
                    "address": "0x4261cdfea93118677c04f880380d9b86b79c9b6a",
                    "callData": "",
                    "decodedMethod": null,
                    "errorInfo": "",
                    "fromAddress": "",
                    "gasUsed": 0,
                    "id": -1,
                    "methodDecoded": false,
                    "operation": "",
                    "output": "",
                    "revert": false,
                    "revertMessage": "",
                    "selector": "",
                    "status": false,
                    "value": ""
                },
                "nodeType": 0
            },
            "0": {
                "invocation": {
                    "address": "0xbb97e381f1d1e94ffa2a5844f6875e6146981009",
                    "callData": "0x000000000000000000000000000000000000000000000000000000000000006000000000000000000000000000000000000000000000000000000000000000c0000000000000000000000000c1ab0c708aa638ad492d99383217c033f0eeab9500000000000000000000000000000000000000000000000000000000000000020000000000000000000000004e43eb83e92fb6e307f87ded63a87ce1dfcd6be4000000000000000000000000194d1ba9edb4bd849ca844870c05ac5cfb632b14000000000000000000000000000000000000000000000000000000000000000200000000000000000000000000000000000000000000043c33c1937564800000000000000000000000000000000000000000000000000015a4034cf29ff00000",
                    "decodedMethod": {
                        "callParams": [
                            {
                                "name": "recipients",
                                "type": "address[]",
                                "value": [
                                    "0x4e43eb83e92fb6e307f87ded63a87ce1dfcd6be4",
                                    "0x194d1ba9edb4bd849ca844870c05ac5cfb632b14"
                                ]
                            },
                            {
                                "name": "values",
                                "type": "uint256[]",
                                "value": [
                                    "20,000,000,000,000,000,000,000",
                                    "399,200,000,000,000,000,000"
                                ]
                            },
                            {
                                "name": "from",
                                "type": "address",
                                "value": "0xc1ab0c708aa638ad492d99383217c033f0eeab95"
                            }
                        ],
                        "constructorArguments": "",
                        "name": "sendBatch",
                        "returnParams": [
                            {
                                "name": "",
                                "type": "bool",
                                "value": true
                            }
                        ],
                        "signature": "sendBatch(address[],uint256[],address)"
                    },
                    "errorInfo": "",
                    "fromAddress": "0x4261cdfea93118677c04f880380d9b86b79c9b6a",
                    "gasUsed": 61090,
                    "id": 0,
                    "methodDecoded": true,
                    "operation": "CALL",
                    "output": "0x0000000000000000000000000000000000000000000000000000000000000001",
                    "revert": false,
                    "revertMessage": "",
                    "selector": "0x33237989",
                    "status": true,
                    "value": "0"
                },
                "nodeType": 0
            },
            "1": {
                "event": {
                    "contract": "0xbb97e381f1d1e94ffa2a5844f6875e6146981009",
                    "decodedLog": {
                        "name": "Transfer",
                        "params": [
                            {
                                "name": "from",
                                "type": "address",
                                "value": "0xc1ab0c708aa638ad492d99383217c033f0eeab95"
                            },
                            {
                                "name": "to",
                                "type": "address",
                                "value": "0x194d1ba9edb4bd849ca844870c05ac5cfb632b14"
                            },
                            {
                                "decimalAvailable": true,
                                "name": "value",
                                "type": "uint256",
                                "value": "40,000,000,000,000,000,000"
                            }
                        ],
                        "signature": "Transfer(address,address,uint256)"
                    },
                    "id": 1,
                    "logData": "0x0000000000000000000000000000000000000000000000022b1c8c1227a00000",
                    "logDecoded": true,
                    "operation": "EVENT",
                    "revert": false,
                    "status": true,
                    "topics": [
                        "0xddf252ad1be2c89b69c2b068fc378daa952ba7f163c4a11628f55a4df523b3ef",
                        "0x000000000000000000000000c1ab0c708aa638ad492d99383217c033f0eeab95",
                        "0x000000000000000000000000194d1ba9edb4bd849ca844870c05ac5cfb632b14"
                    ]
                },
                "nodeType": 1
            },
            "2": {
                "event": {
                    "contract": "0xbb97e381f1d1e94ffa2a5844f6875e6146981009",
                    "decodedLog": {
                        "name": "Transfer",
                        "params": [
                            {
                                "name": "from",
                                "type": "address",
                                "value": "0xc1ab0c708aa638ad492d99383217c033f0eeab95"
                            },
                            {
                                "name": "to",
                                "type": "address",
                                "value": "0x4e43eb83e92fb6e307f87ded63a87ce1dfcd6be4"
                            },
                            {
                                "decimalAvailable": true,
                                "name": "value",
                                "type": "uint256",
                                "value": "20,000,000,000,000,000,000,000"
                            }
                        ],
                        "signature": "Transfer(address,address,uint256)"
                    },
                    "id": 2,
                    "logData": "0x00000000000000000000000000000000000000000000043c33c1937564800000",
                    "logDecoded": true,
                    "operation": "EVENT",
                    "revert": false,
                    "status": true,
                    "topics": [
                        "0xddf252ad1be2c89b69c2b068fc378daa952ba7f163c4a11628f55a4df523b3ef",
                        "0x000000000000000000000000c1ab0c708aa638ad492d99383217c033f0eeab95",
                        "0x0000000000000000000000004e43eb83e92fb6e307f87ded63a87ce1dfcd6be4"
                    ]
                },
                "nodeType": 1
            },
            "3": {
                "event": {
                    "contract": "0xbb97e381f1d1e94ffa2a5844f6875e6146981009",
                    "decodedLog": {
                        "name": "Transfer",
                        "params": [
                            {
                                "name": "from",
                                "type": "address",
                                "value": "0xc1ab0c708aa638ad492d99383217c033f0eeab95"
                            },
                            {
                                "name": "to",
                                "type": "address",
                                "value": "0x194d1ba9edb4bd849ca844870c05ac5cfb632b14"
                            },
                            {
                                "decimalAvailable": true,
                                "name": "value",
                                "type": "uint256",
                                "value": "399,200,000,000,000,000,000"
                            }
                        ],
                        "signature": "Transfer(address,address,uint256)"
                    },
                    "id": 3,
                    "logData": "0x000000000000000000000000000000000000000000000015a4034cf29ff00000",
                    "logDecoded": true,
                    "operation": "EVENT",
                    "revert": false,
                    "status": true,
                    "topics": [
                        "0xddf252ad1be2c89b69c2b068fc378daa952ba7f163c4a11628f55a4df523b3ef",
                        "0x000000000000000000000000c1ab0c708aa638ad492d99383217c033f0eeab95",
                        "0x000000000000000000000000194d1ba9edb4bd849ca844870c05ac5cfb632b14"
                    ]
                },
                "nodeType": 1
            }
        },
        "gasFlame": [
            {
                "children": [
                    {
                        "children": [
                            {
                                "children": [],
                                "depth": 0,
                                "name": "Initial Gas",
                                "value": 23164
                            },
                            {
                                "children": [],
                                "depth": 0,
                                "name": "Executed Gas",
                                "value": 37926
                            }
                        ],
                        "depth": -1,
                        "name": "Actual Gas Used",
                        "value": 61090
                    },
                    {
                        "children": [],
                        "depth": -1,
                        "name": "Refunded Gas",
                        "value": 0
                    }
                ],
                "depth": -2,
                "name": "Total Gas",
                "value": 61090
            }
        ],
        "isConfirmed": true,
        "mainTrace": [
            {
                "children": [
                    {
                        "children": [
                            {
                                "children": [],
                                "depth": 1,
                                "id": 1,
                                "order": 1
                            },
                            {
                                "children": [],
                                "depth": 1,
                                "id": 2,
                                "order": 2
                            },
                            {
                                "children": [],
                                "depth": 1,
                                "id": 3,
                                "order": 3
                            }
                        ],
                        "depth": 0,
                        "id": 0,
                        "order": 0
                    }
                ],
                "depth": -1,
                "id": -1,
                "order": -1
            }
        ],
        "mainTraceNodeCount": 4,
        "parentIdMap": {
            "0": -1,
            "1": 0,
            "2": 0,
            "3": 0
        },
        "tidyTrace": [
            {
                "children": [
                    {
                        "children": [
                            {
                                "children": [],
                                "depth": 1,
                                "id": 1,
                                "order": 1
                            },
                            {
                                "children": [],
                                "depth": 1,
                                "id": 2,
                                "order": 2
                            },
                            {
                                "children": [],
                                "depth": 1,
                                "id": 3,
                                "order": 3
                            }
                        ],
                        "depth": 0,
                        "id": 0,
                        "order": 0
                    }
                ],
                "depth": -1,
                "id": -1,
                "order": -1
            }
        ],
        "tidyTraceNodeCount": 4
    },
    "state_change": {
        "stateChanges": [
            {
                "address": "0xbb97e381f1d1e94ffa2a5844f6875e6146981009",
                "erc": "ERC-20",
                "slots": [
                    {
                        "current": "0x00000000000000000000000000000000000000000000043c33c1937564800001",
                        "key": "0x87a4a2b7abb07df8f29f9f9eb4d8a4de4593a16d293f7bb77f5ad4912b29237e",
                        "prev": "0x0000000000000000000000000000000000000000000000000000000000000001"
                    },
                    {
                        "current": "0x000000000000000000000000000000000000000000bf339c844b0e95697091bf",
                        "key": "0x1a2929d96684276a773378f6d631caad192f789fa7f3e854708cbcd9853acdea",
                        "prev": "0x000000000000000000000000000000000000000000bf37f0872c7b0f958091bf"
                    },
                    {
                        "current": "0x0000000000000000000000000000000000000000005ae592212fcd218cbefaf5",
                        "key": "0x62cc8fe5ab1f01a13b3a3c814096353b6229e50a1851c8e1bf4ad0188d465416",
                        "prev": "0x0000000000000000000000000000000000000000005ae57a520ff41cc52efaf5"
                    }
                ],
                "storageVariables": [
                    {
                        "name": "_balances",
                        "type": "mapping(address => uint256)",
                        "value": {
                            "pairs": [
                                {
                                    "key": "0x194d1ba9edb4bd849ca844870c05ac5cfb632b14",
                                    "value": {
                                        "current": "109887441305884007207992053",
                                        "prev": "109887002105884007207992053",
                                        "typeTag": 1
                                    }
                                },
                                {
                                    "key": "0x4e43eb83e92fb6e307f87ded63a87ce1dfcd6be4",
                                    "value": {
                                        "current": "20000000000000000000001",
                                        "prev": "1",
                                        "typeTag": 1
                                    }
                                },
                                {
                                    "key": "0xc1ab0c708aa638ad492d99383217c033f0eeab95",
                                    "value": {
                                        "current": "231148559461825094106517951",
                                        "prev": "231168998661825094106517951",
                                        "typeTag": 1
                                    }
                                }
                            ],
                            "typeTag": 4
                        }
                    }
                ]
            }
        ]
    }
}