{
    "balance_change": {
        "balanceChanges": [
            {
                "account": "0x0c181c41b3cb483db00733749d63006746de5ad2",
                "assets": [
                    {
                        "address": "0x1776e1f26f98b1a5df9cd347953a26dd3cb46671",
                        "amount": "1",
                        "iconUrl": "https://assets.blocksec.com/icon/e994479c0503113a9ee7bfc586c080c5c9b07aa1649a265110aeb6db8bde96df.png",
                        "isERC1155": false,
                        "isERC721": false,
                        "sign": false,
                        "value": ""
                    }
                ]
            },
            {
                "account": "0x62e6744d0822e1dfa5107bd9d8b583f564da7a33",
                "assets": [
                    {
                        "address": "0x1776e1f26f98b1a5df9cd347953a26dd3cb46671",
                        "amount": "1",
                        "iconUrl": "https://assets.blocksec.com/icon/e994479c0503113a9ee7bfc586c080c5c9b07aa1649a265110aeb6db8bde96df.png",
                        "isERC1155": false,
                        "isERC721": false,
                        "sign": true,
                        "value": ""
                    }
                ]
            }
        ]
    },
    "profile": {
        "basic_info": {
            "baseFee": "",
            "blockNumber": 9906307,
            "callData": "0xa9059cbb00000000000000000000000062e6744d0822e1dfa5107bd9d8b583f564da7a330000000000000000000000000000000000000000000000000de0b6b3a7640000",
            "debugEnable": true,
            "errorInfo": "",
            "eventCount": 1,
            "feeRecipient": "0xea674fdde714fd979de3edf0f56aa9716b898ec8",
            "formatValue": "0",
            "gasLimit": 53802,
            "gasPrice": "2.972695532",
            "gasUsed": 53802,
            "intTxnCount": 0,
            "internalRevert": false,
            "internalRevertMessage": "",
            "isContractCreation": false,
            "isFlashloan": false,
            "maxFee": "",
            "nonce": 9,
            "overwritedBlockNumber": -1,
            "priorityFee": "",
            "receiver": "0x1776e1f26f98b1a5df9cd347953a26dd3cb46671",
            "revertMessage": "",
            "sender": "0x0c181c41b3cb483db00733749d63006746de5ad2",
            "simulationEnable": true,
            "sourceTxnHash": "0x68360968d48ca93f0cb8b3eb7c401a5342ad23bbfaf9110c5434d2d533e63e19",
            "status": true,
            "timestamp": "2020-04-20T01:09:48Z",
            "transactionFee": "0.000159936965012664",
            "txnHash": "0x68360968d48ca93f0cb8b3eb7c401a5342ad23bbfaf9110c5434d2d533e63e19",
            "txnIndex": 67,
            "type": 0,
            "value": "0"
        },
        "fund_flow": [
            {
                "amount": "1",
                "from": "0x0c181c41b3cb483db00733749d63006746de5ad2",
                "id": 1,
                "isERC1155": false,
                "isERC721": false,
                "isReverted": false,
                "order": 1,
                "to": "0x62e6744d0822e1dfa5107bd9d8b583f564da7a33",
                "token": "0x1776e1f26f98b1a5df9cd347953a26dd3cb46671"
            }
        ],
        "token_infos": [
            {
                "address": "0x1776e1f26f98b1a5df9cd347953a26dd3cb46671",
                "decimals": 18
            },
            {
                "address": "0xc02aaa39b223fe8d0a0e5c4f27ead9083c756cc2",
                "decimals": 18
            },
            {
                "address": "0xeeeeeeeeeeeeeeeeeeeeeeeeeeeeeeeeeeeeeeee",
                "decimals": 18
            }
        ]
    },
    "address_label": {
        "labels": [
            {
                "address": "0x0000000000000000000000000000000000000003",
                "label": "Precompiled"
            },
            {
                "address": "0x0000000000000000000000000000000000000004",
                "label": "Precompiled"
            },
            {
                "address": "0xeeeeeeeeeeeeeeeeeeeeeeeeeeeeeeeeeeeeeeee",
                "label": "Ether"
            },
            {
                "address": "0x1776e1f26f98b1a5df9cd347953a26dd3cb46671",
                "label": "Numeraire: NMR Token"
            },
            {
                "address": "0x0000000000000000000000000000000000000001",
                "label": "Precompiled"
            },
            {
                "address": "0x0000000000000000000000000000000000000002",
                "label": "Precompiled"
            }
        ]
    },
    "trace": {
        "accountLabels": null,
        "dataMap": {
            "-1": {
                "invocation": {
                    "address": "0x0c181c41b3cb483db00733749d63006746de5ad2",
                    "callData": "",
                    "decodedMethod": null,
                    "errorInfo": "",
                    "fromAddress": "",
                    "gasUsed": 0,
                    "id": -1,
                    "methodDecoded": false,
                    "operation": "",
                    "output": "",
                    "revert": false,
                    "revertMessage": "",
                    "selector": "",
                    "status": false,
                    "value": ""
                },
                "nodeType": 0
            },
            "0": {
                "invocation": {
                    "address": "0x1776e1f26f98b1a5df9cd347953a26dd3cb46671",
                    "callData": "0x00000000000000000000000062e6744d0822e1dfa5107bd9d8b583f564da7a330000000000000000000000000000000000000000000000000de0b6b3a7640000",
                    "decodedMethod": {
                        "callParams": [
                            {
                                "name": "_to",
                                "type": "address",
                                "value": "0x62e6744d0822e1dfa5107bd9d8b583f564da7a33"
                            },
                            {
                                "decimalAvailable": true,
                                "name": "_value",
                                "type": "uint256",
                                "value": "1,000,000,000,000,000,000"
                            }
                        ],
                        "constructorArguments": "",
                        "name": "transfer",
                        "returnParams": [
                            {
                                "name": "ok",
                                "type": "bool",
                                "value": true
                            }
                        ],
                        "signature": "transfer(address,uint256)"
                    },
                    "errorInfo": "",
                    "fromAddress": "0x0c181c41b3cb483db00733749d63006746de5ad2",
                    "gasUsed": 53802,
                    "id": 0,
                    "methodDecoded": true,
                    "operation": "CALL",
                    "output": "0x0000000000000000000000000000000000000000000000000000000000000001",
                    "revert": false,
                    "revertMessage": "",
                    "selector": "0xa9059cbb",
                    "status": true,
                    "value": "0"
                },
                "nodeType": 0
            },
            "1": {
                "event": {
                    "contract": "0x1776e1f26f98b1a5df9cd347953a26dd3cb46671",
                    "decodedLog": {
                        "name": "Transfer",
                        "params": [
                            {
                                "name": "from",
                                "type": "address",
                                "value": "0x0c181c41b3cb483db00733749d63006746de5ad2"
                            },
                            {
                                "name": "to",
                                "type": "address",
                                "value": "0x62e6744d0822e1dfa5107bd9d8b583f564da7a33"
                            },
                            {
                                "decimalAvailable": true,
                                "name": "value",
                                "type": "uint256",
                                "value": "1,000,000,000,000,000,000"
                            }
                        ],
                        "signature": "Transfer(address,address,uint256)"
                    },
                    "id": 1,
                    "logData": "0x0000000000000000000000000000000000000000000000000de0b6b3a7640000",
                    "logDecoded": true,
                    "operation": "EVENT",
                    "revert": false,
                    "status": true,
                    "topics": [
                        "0xddf252ad1be2c89b69c2b068fc378daa952ba7f163c4a11628f55a4df523b3ef",
                        "0x0000000000000000000000000c181c41b3cb483db00733749d63006746de5ad2",
                        "0x00000000000000000000000062e6744d0822e1dfa5107bd9d8b583f564da7a33"
                    ]
                },
                "nodeType": 1
            }
        },
        "gasFlame": [
            {
                "children": [
                    {
                        "children": [
                            {
                                "children": [],
                                "depth": 0,
                                "name": "Initial Gas",
                                "value": 21632
                            },
                            {
                                "children": [],
                                "depth": 0,
                                "name": "Executed Gas",
                                "value": 32170
                            }
                        ],
                        "depth": -1,
                        "name": "Actual Gas Used",
                        "value": 53802
                    },
                    {
                        "children": [],
                        "depth": -1,
                        "name": "Refunded Gas",
                        "value": 0
                    }
                ],
                "depth": -2,
                "name": "Total Gas",
                "value": 53802
            }
        ],
        "isConfirmed": true,
        "mainTrace": [
            {
                "children": [
                    {
                        "children": [
                            {
                                "children": [],
                                "depth": 1,
                                "id": 1,
                                "order": 1
                            }
                        ],
                        "depth": 0,
                        "id": 0,
                        "order": 0
                    }
                ],
                "depth": -1,
                "id": -1,
                "order": -1
            }
        ],
        "mainTraceNodeCount": 2,
        "parentIdMap": {
            "0": -1,
            "1": 0
        },
        "tidyTrace": [
            {
                "children": [
                    {
                        "children": [
                            {
                                "children": [],
                                "depth": 1,
                                "id": 1,
                                "order": 1
                            }
                        ],
                        "depth": 0,
                        "id": 0,
                        "order": 0
                    }
                ],
                "depth": -1,
                "id": -1,
                "order": -1
            }
        ],
        "tidyTraceNodeCount": 2
    },
    "state_change": {
        "stateChanges": [
            {
                "address": "0x1776e1f26f98b1a5df9cd347953a26dd3cb46671",
                "erc": "ERC-20",
                "slots": [
                    {
                        "current": "0x0000000000000000000000000000000000000000000000018304491103160400",
                        "key": "0x2e9e7ae37180904abaccd9c137bce382f2dbda1bbfd2859dc26e13bd695ce156",
                        "prev": "0x00000000000000000000000000000000000000000000000190e4ffc4aa7a0400"
                    },
                    {
                        "current": "0x0000000000000000000000000000000000000000000000000de0b6b3a7640000",
                        "key": "0x604303caf6fd998686fc1069e32e972e01e32b4765e9201df40e2406179c6485",
                        "prev": "0x0000000000000000000000000000000000000000000000000000000000000000"
                    }
                ],
                "storageVariables": []
            }
        ]
    }
}