{
    "balance_change": {
        "balanceChanges": [
            {
                "account": "0x5a5a4c52f23d2297e90cac0893686e093f248fa2",
                "assets": [
                    {
                        "address": "0xdac17f958d2ee523a2206206994597c13d831ec7",
                        "amount": "644.596901",
                        "iconUrl": "https://assets.blocksec.com/icon/fcea71f3193ce895be44bfdf941f7e4c9381dd587f273c2d1a27f1263d84e4ea.png",
                        "isERC1155": false,
                        "isERC721": false,
                        "sign": true,
                        "value": "644.847546"
                    }
                ]
            },
            {
                "account": "0x4e68ccd3e89f51c3074ca5072bbac773960dfa36",
                "assets": [
                    {
                        "address": "0xdac17f958d2ee523a2206206994597c13d831ec7",
                        "amount": "644.596901",
                        "iconUrl": "https://assets.blocksec.com/icon/fcea71f3193ce895be44bfdf941f7e4c9381dd587f273c2d1a27f1263d84e4ea.png",
                        "isERC1155": false,
                        "isERC721": false,
                        "sign": false,
                        "value": "644.847546"
                    }
                ]
            }
        ]
    },
    "profile": {
        "basic_info": {
            "baseFee": "",
            "blockNumber": 12585155,
            "callData": "0xac9650d80000000000000000000000000000000000000000000000000000000000000020000000000000000000000000000000000000000000000000000000000000000400000000000000000000000000000000000000000000000000000000000000800000000000000000000000000000000000000000000000000000000000000160000000000000000000000000000000000000000000000000000000000000022000000000000000000000000000000000000000000000000000000000000002a000000000000000000000000000000000000000000000000000000000000000a40c49ccbe000000000000000000000000000000000000000000000000000000000000978c00000000000000000000000000000000000000000000000000019b61c7690a72000000000000000000000000000000000000000000000000000000000000000000000000000000000000000000000000000000000000000000000000266bc4a50000000000000000000000000000000000000000000000000000000060bd9e60000000000000000000000000000000000000000000000000000000000000000000000000000000000000000000000000000000000000000000000084fc6f7865000000000000000000000000000000000000000000000000000000000000978c000000000000000000000000000000000000000000000000000000000000000000000000000000000000000000000000ffffffffffffffffffffffffffffffff00000000000000000000000000000000ffffffffffffffffffffffffffffffff00000000000000000000000000000000000000000000000000000000000000000000000000000000000000000000000000000000000000000000004449404b7c00000000000000000000000000000000000000000000000000000000000000000000000000000000000000005a5a4c52f23d2297e90cac0893686e093f248fa2000000000000000000000000000000000000000000000000000000000000000000000000000000000000000000000000000000000000000000000064df2ab5bb000000000000000000000000dac17f958d2ee523a2206206994597c13d831ec700000000000000000000000000000000000000000000000000000000266bc4a50000000000000000000000005a5a4c52f23d2297e90cac0893686e093f248fa200000000000000000000000000000000000000000000000000000000",
            "debugEnable": true,
            "errorInfo": "",
            "eventCount": 6,
            "feeRecipient": "0xc8f595e2084db484f8a80109101d58625223b7c9",
            "formatValue": "0",
            "gasLimit": 352180,
            "gasPrice": "15",
            "gasUsed": 146742,
            "intTxnCount": 11,
            "internalRevert": false,
            "internalRevertMessage": "",
            "isContractCreation": false,
            "isFlashloan": false,
            "maxFee": "",
            "nonce": 354,
            "overwritedBlockNumber": -1,
            "priorityFee": "",
            "receiver": "0xc36442b4a4522e871399cd717abdd847ab11fe88",
            "revertMessage": "",
            "sender": "0x5a5a4c52f23d2297e90cac0893686e093f248fa2",
            "simulationEnable": true,
            "sourceTxnHash": "0x682a32babe009cfd441a80d4ddb79a71063e8b170285731bceaf8060eb7df7c1",
            "status": true,
            "timestamp": "2021-06-07T04:00:58Z",
            "transactionFee": "0.00220113",
            "txnHash": "0x682a32babe009cfd441a80d4ddb79a71063e8b170285731bceaf8060eb7df7c1",
            "txnIndex": 27,
            "type": 0,
            "value": "0"
        },
        "fund_flow": [
            {
                "amount": "644.596901",
                "from": "0x4e68ccd3e89f51c3074ca5072bbac773960dfa36",
                "id": 1,
                "isERC1155": false,
                "isERC721": false,
                "isReverted": false,
                "order": 1,
                "to": "0xc36442b4a4522e871399cd717abdd847ab11fe88",
                "token": "0xdac17f958d2ee523a2206206994597c13d831ec7"
            },
            {
                "amount": "644.596901",
                "from": "0xc36442b4a4522e871399cd717abdd847ab11fe88",
                "id": 2,
                "isERC1155": false,
                "isERC721": false,
                "isReverted": false,
                "order": 2,
                "to": "0x5a5a4c52f23d2297e90cac0893686e093f248fa2",
                "token": "0xdac17f958d2ee523a2206206994597c13d831ec7"
            }
        ],
        "token_infos": [
            {
                "address": "0xeeeeeeeeeeeeeeeeeeeeeeeeeeeeeeeeeeeeeeee",
                "decimals": 18
            },
            {
                "address": "0xc02aaa39b223fe8d0a0e5c4f27ead9083c756cc2",
                "decimals": 18
            },
            {
                "address": "0xdac17f958d2ee523a2206206994597c13d831ec7",
                "decimals": 6
            }
        ]
    },
    "address_label": {
        "labels": [
            {
                "address": "0xc36442b4a4522e871399cd717abdd847ab11fe88",
                "label": "Uniswap V3: Positions NFT"
            },
            {
                "address": "0x0000000000000000000000000000000000000001",
                "label": "Precompiled"
            },
            {
                "address": "0x0000000000000000000000000000000000000003",
                "label": "Precompiled"
            },
            {
                "address": "0x4e68ccd3e89f51c3074ca5072bbac773960dfa36",
                "label": "Uniswap V3: USDT"
            },
            {
                "address": "0xdac17f958d2ee523a2206206994597c13d831ec7",
                "label": "Tether: USDT Stablecoin"
            },
            {
                "address": "0x0000000000000000000000000000000000000000",
                "label": "Null Address"
            },
            {
                "address": "0x0000000000000000000000000000000000000004",
                "label": "Precompiled"
            },
            {
                "address": "0xeeeeeeeeeeeeeeeeeeeeeeeeeeeeeeeeeeeeeeee",
                "label": "Ether"
            },
            {
                "address": "0xc02aaa39b223fe8d0a0e5c4f27ead9083c756cc2",
                "label": "Wrapped Ether (WETH)"
            },
            {
                "address": "0x0000000000000000000000000000000000000002",
                "label": "Precompiled"
            }
        ]
    },
    "trace": {
        "accountLabels": null,
        "dataMap": {
            "-1": {
                "invocation": {
                    "address": "0x5a5a4c52f23d2297e90cac0893686e093f248fa2",
                    "callData": "",
                    "decodedMethod": null,
                    "errorInfo": "",
                    "fromAddress": "",
                    "gasUsed": 0,
                    "id": -1,
                    "methodDecoded": false,
                    "operation": "",
                    "output": "",
                    "revert": false,
                    "revertMessage": "",
                    "selector": "",
                    "status": false,
                    "value": ""
                },
                "nodeType": 0
            },
            "0": {
                "invocation": {
                    "address": "0xc36442b4a4522e871399cd717abdd847ab11fe88",
                    "callData": "0x0000000000000000000000000000000000000000000000000000000000000020000000000000000000000000000000000000000000000000000000000000000400000000000000000000000000000000000000000000000000000000000000800000000000000000000000000000000000000000000000000000000000000160000000000000000000000000000000000000000000000000000000000000022000000000000000000000000000000000000000000000000000000000000002a000000000000000000000000000000000000000000000000000000000000000a40c49ccbe000000000000000000000000000000000000000000000000000000000000978c00000000000000000000000000000000000000000000000000019b61c7690a72000000000000000000000000000000000000000000000000000000000000000000000000000000000000000000000000000000000000000000000000266bc4a50000000000000000000000000000000000000000000000000000000060bd9e60000000000000000000000000000000000000000000000000000000000000000000000000000000000000000000000000000000000000000000000084fc6f7865000000000000000000000000000000000000000000000000000000000000978c000000000000000000000000000000000000000000000000000000000000000000000000000000000000000000000000ffffffffffffffffffffffffffffffff00000000000000000000000000000000ffffffffffffffffffffffffffffffff00000000000000000000000000000000000000000000000000000000000000000000000000000000000000000000000000000000000000000000004449404b7c00000000000000000000000000000000000000000000000000000000000000000000000000000000000000005a5a4c52f23d2297e90cac0893686e093f248fa2000000000000000000000000000000000000000000000000000000000000000000000000000000000000000000000000000000000000000000000064df2ab5bb000000000000000000000000dac17f958d2ee523a2206206994597c13d831ec700000000000000000000000000000000000000000000000000000000266bc4a50000000000000000000000005a5a4c52f23d2297e90cac0893686e093f248fa200000000000000000000000000000000000000000000000000000000",
                    "decodedMethod": {
                        "callParams": [
                            {
                                "name": "data",
                                "type": "bytes[]",
                                "value": [
                                    "0x0c49ccbe000000000000000000000000000000000000000000000000000000000000978c00000000000000000000000000000000000000000000000000019b61c7690a72000000000000000000000000000000000000000000000000000000000000000000000000000000000000000000000000000000000000000000000000266bc4a50000000000000000000000000000000000000000000000000000000060bd9e60",
                                    "0xfc6f7865000000000000000000000000000000000000000000000000000000000000978c000000000000000000000000000000000000000000000000000000000000000000000000000000000000000000000000ffffffffffffffffffffffffffffffff00000000000000000000000000000000ffffffffffffffffffffffffffffffff",
                                    "0x49404b7c00000000000000000000000000000000000000000000000000000000000000000000000000000000000000005a5a4c52f23d2297e90cac0893686e093f248fa2",
                                    "0xdf2ab5bb000000000000000000000000dac17f958d2ee523a2206206994597c13d831ec700000000000000000000000000000000000000000000000000000000266bc4a50000000000000000000000005a5a4c52f23d2297e90cac0893686e093f248fa2"
                                ]
                            }
                        ],
                        "constructorArguments": "",
                        "name": "multicall",
                        "returnParams": [
                            {
                                "name": "results",
                                "type": "bytes[]",
                                "value": [
                                    "0x000000000000000000000000000000000000000000000000000000000000000000000000000000000000000000000000000000000000000000000000266bc4a5",
                                    "0x000000000000000000000000000000000000000000000000000000000000000000000000000000000000000000000000000000000000000000000000266bc4a5",
                                    "0x",
                                    "0x"
                                ]
                            }
                        ],
                        "signature": "multicall(bytes[])"
                    },
                    "errorInfo": "",
                    "fromAddress": "0x5a5a4c52f23d2297e90cac0893686e093f248fa2",
                    "gasUsed": 146742,
                    "id": 0,
                    "methodDecoded": true,
                    "operation": "CALL",
                    "output": "0x00000000000000000000000000000000000000000000000000000000000000200000000000000000000000000000000000000000000000000000000000000004000000000000000000000000000000000000000000000000000000000000008000000000000000000000000000000000000000000000000000000000000000e0000000000000000000000000000000000000000000000000000000000000014000000000000000000000000000000000000000000000000000000000000001600000000000000000000000000000000000000000000000000000000000000040000000000000000000000000000000000000000000000000000000000000000000000000000000000000000000000000000000000000000000000000266bc4a50000000000000000000000000000000000000000000000000000000000000040000000000000000000000000000000000000000000000000000000000000000000000000000000000000000000000000000000000000000000000000266bc4a500000000000000000000000000000000000000000000000000000000000000000000000000000000000000000000000000000000000000000000000000000000",
                    "revert": false,
                    "revertMessage": "",
                    "selector": "0xac9650d8",
                    "status": true,
                    "value": "0"
                },
                "nodeType": 0
            },
            "1": {
                "invocation": {
                    "address": "0xc36442b4a4522e871399cd717abdd847ab11fe88",
                    "callData": "0x000000000000000000000000000000000000000000000000000000000000978c00000000000000000000000000000000000000000000000000019b61c7690a72000000000000000000000000000000000000000000000000000000000000000000000000000000000000000000000000000000000000000000000000266bc4a50000000000000000000000000000000000000000000000000000000060bd9e60",
                    "decodedMethod": {
                        "callParams": [
                            {
                                "name": "params",
                                "type": "(uint256,uint128,uint256,uint256,uint256)",
                                "value": [
                                    {
                                        "name": "tokenId",
                                        "type": "uint256",
                                        "value": "38,796"
                                    },
                                    {
                                        "name": "liquidity",
                                        "type": "uint128",
                                        "value": "452,319,236,393,586"
                                    },
                                    {
                                        "name": "amount0Min",
                                        "type": "uint256",
                                        "value": "0"
                                    },
                                    {
                                        "name": "amount1Min",
                                        "type": "uint256",
                                        "value": "644,596,901"
                                    },
                                    {
                                        "name": "deadline",
                                        "type": "uint256",
                                        "value": "1,623,039,584"
                                    }
                                ]
                            }
                        ],
                        "constructorArguments": "",
                        "name": "decreaseLiquidity",
                        "returnParams": [
                            {
                                "name": "amount0",
                                "type": "uint256",
                                "value": "0"
                            },
                            {
                                "name": "amount1",
                                "type": "uint256",
                                "value": "644,596,901"
                            }
                        ],
                        "signature": "decreaseLiquidity((uint256,uint128,uint256,uint256,uint256))"
                    },
                    "errorInfo": "",
                    "fromAddress": "0xc36442b4a4522e871399cd717abdd847ab11fe88",
                    "gasUsed": 164014,
                    "id": 1,
                    "methodDecoded": true,
                    "operation": "DELEGATECALL",
                    "output": "0x000000000000000000000000000000000000000000000000000000000000000000000000000000000000000000000000000000000000000000000000266bc4a5",
                    "revert": false,
                    "revertMessage": "",
                    "selector": "0x0c49ccbe",
                    "status": true,
                    "value": "0"
                },
                "nodeType": 0
            },
            "10": {
                "event": {
                    "contract": "0x4e68ccd3e89f51c3074ca5072bbac773960dfa36",
                    "decodedLog": {
                        "name": "Collect",
                        "params": [
                            {
                                "name": "owner",
                                "type": "address",
                                "value": "0xc36442b4a4522e871399cd717abdd847ab11fe88"
                            },
                            {
                                "name": "tickLower",
                                "type": "int24",
                                "value": "-265,320"
                            },
                            {
                                "name": "tickUpper",
                                "type": "int24",
                                "value": "-253,320"
                            },
                            {
                                "name": "recipient",
                                "type": "address",
                                "value": "0xc36442b4a4522e871399cd717abdd847ab11fe88"
                            },
                            {
                                "name": "amount0",
                                "type": "uint128",
                                "value": "0"
                            },
                            {
                                "name": "amount1",
                                "type": "uint128",
                                "value": "644,596,901"
                            }
                        ],
                        "signature": "Collect(address,address,int24,int24,uint128,uint128)"
                    },
                    "id": 10,
                    "logData": "0x000000000000000000000000c36442b4a4522e871399cd717abdd847ab11fe88000000000000000000000000000000000000000000000000000000000000000000000000000000000000000000000000000000000000000000000000266bc4a5",
                    "logDecoded": true,
                    "operation": "EVENT",
                    "revert": false,
                    "status": true,
                    "topics": [
                        "0x70935338e69775456a85ddef226c395fb668b63fa0115f5f20610b388e6ca9c0",
                        "0x000000000000000000000000c36442b4a4522e871399cd717abdd847ab11fe88",
                        "0xfffffffffffffffffffffffffffffffffffffffffffffffffffffffffffbf398",
                        "0xfffffffffffffffffffffffffffffffffffffffffffffffffffffffffffc2278"
                    ]
                },
                "nodeType": 1
            },
            "11": {
                "event": {
                    "contract": "0xc36442b4a4522e871399cd717abdd847ab11fe88",
                    "decodedLog": {
                        "name": "Collect",
                        "params": [
                            {
                                "name": "tokenId",
                                "type": "uint256",
                                "value": "38,796"
                            },
                            {
                                "name": "recipient",
                                "type": "address",
                                "value": "0xc36442b4a4522e871399cd717abdd847ab11fe88"
                            },
                            {
                                "name": "amount0",
                                "type": "uint256",
                                "value": "0"
                            },
                            {
                                "name": "amount1",
                                "type": "uint256",
                                "value": "644,596,901"
                            }
                        ],
                        "signature": "Collect(uint256,address,uint256,uint256)"
                    },
                    "id": 11,
                    "logData": "0x000000000000000000000000c36442b4a4522e871399cd717abdd847ab11fe88000000000000000000000000000000000000000000000000000000000000000000000000000000000000000000000000000000000000000000000000266bc4a5",
                    "logDecoded": true,
                    "operation": "EVENT",
                    "revert": false,
                    "status": true,
                    "topics": [
                        "0x40d0efd1a53d60ecbf40971b9daf7dc90178c3aadc7aab1765632738fa8b8f01",
                        "0x000000000000000000000000000000000000000000000000000000000000978c"
                    ]
                },
                "nodeType": 1
            },
            "12": {
                "invocation": {
                    "address": "0xc36442b4a4522e871399cd717abdd847ab11fe88",
                    "callData": "0x00000000000000000000000000000000000000000000000000000000000000000000000000000000000000005a5a4c52f23d2297e90cac0893686e093f248fa2",
                    "decodedMethod": {
                        "callParams": [
                            {
                                "name": "amountMinimum",
                                "type": "uint256",
                                "value": "0"
                            },
                            {
                                "name": "recipient",
                                "type": "address",
                                "value": "0x5a5a4c52f23d2297e90cac0893686e093f248fa2"
                            }
                        ],
                        "constructorArguments": "",
                        "name": "unwrapWETH9",
                        "returnParams": [],
                        "signature": "unwrapWETH9(uint256,address)"
                    },
                    "errorInfo": "",
                    "fromAddress": "0xc36442b4a4522e871399cd717abdd847ab11fe88",
                    "gasUsed": 5899,
                    "id": 12,
                    "methodDecoded": true,
                    "operation": "DELEGATECALL",
                    "output": "",
                    "revert": false,
                    "revertMessage": "",
                    "selector": "0x49404b7c",
                    "status": true,
                    "value": "0"
                },
                "nodeType": 0
            },
            "13": {
                "invocation": {
                    "address": "0xc02aaa39b223fe8d0a0e5c4f27ead9083c756cc2",
                    "callData": "0x000000000000000000000000c36442b4a4522e871399cd717abdd847ab11fe88",
                    "decodedMethod": {
                        "callParams": [
                            {
                                "name": "",
                                "type": "address",
                                "value": "0xc36442b4a4522e871399cd717abdd847ab11fe88"
                            }
                        ],
                        "constructorArguments": "",
                        "name": "balanceOf",
                        "returnParams": [
                            {
                                "decimalAvailable": true,
                                "name": "",
                                "type": "uint256",
                                "value": "0"
                            }
                        ],
                        "signature": "balanceOf(address)"
                    },
                    "errorInfo": "",
                    "fromAddress": "0xc36442b4a4522e871399cd717abdd847ab11fe88",
                    "gasUsed": 2534,
                    "id": 13,
                    "methodDecoded": true,
                    "operation": "STATICCALL",
                    "output": "0x0000000000000000000000000000000000000000000000000000000000000000",
                    "revert": false,
                    "revertMessage": "",
                    "selector": "0x70a08231",
                    "status": true,
                    "value": "0"
                },
                "nodeType": 0
            },
            "14": {
                "invocation": {
                    "address": "0xc36442b4a4522e871399cd717abdd847ab11fe88",
                    "callData": "0x000000000000000000000000dac17f958d2ee523a2206206994597c13d831ec700000000000000000000000000000000000000000000000000000000266bc4a50000000000000000000000005a5a4c52f23d2297e90cac0893686e093f248fa2",
                    "decodedMethod": {
                        "callParams": [
                            {
                                "name": "token",
                                "type": "address",
                                "value": "0xdac17f958d2ee523a2206206994597c13d831ec7"
                            },
                            {
                                "name": "amountMinimum",
                                "type": "uint256",
                                "value": "644,596,901"
                            },
                            {
                                "name": "recipient",
                                "type": "address",
                                "value": "0x5a5a4c52f23d2297e90cac0893686e093f248fa2"
                            }
                        ],
                        "constructorArguments": "",
                        "name": "sweepToken",
                        "returnParams": [],
                        "signature": "sweepToken(address,uint256,address)"
                    },
                    "errorInfo": "",
                    "fromAddress": "0xc36442b4a4522e871399cd717abdd847ab11fe88",
                    "gasUsed": 31659,
                    "id": 14,
                    "methodDecoded": true,
                    "operation": "DELEGATECALL",
                    "output": "",
                    "revert": false,
                    "revertMessage": "",
                    "selector": "0xdf2ab5bb",
                    "status": true,
                    "value": "0"
                },
                "nodeType": 0
            },
            "15": {
                "invocation": {
                    "address": "0xdac17f958d2ee523a2206206994597c13d831ec7",
                    "callData": "0x000000000000000000000000c36442b4a4522e871399cd717abdd847ab11fe88",
                    "decodedMethod": {
                        "callParams": [
                            {
                                "name": "who",
                                "type": "address",
                                "value": "0xc36442b4a4522e871399cd717abdd847ab11fe88"
                            }
                        ],
                        "constructorArguments": "",
                        "name": "balanceOf",
                        "returnParams": [
                            {
                                "decimalAvailable": true,
                                "name": "",
                                "type": "uint256",
                                "value": "644,596,901"
                            }
                        ],
                        "signature": "balanceOf(address)"
                    },
                    "errorInfo": "",
                    "fromAddress": "0xc36442b4a4522e871399cd717abdd847ab11fe88",
                    "gasUsed": 1031,
                    "id": 15,
                    "methodDecoded": true,
                    "operation": "STATICCALL",
                    "output": "0x00000000000000000000000000000000000000000000000000000000266bc4a5",
                    "revert": false,
                    "revertMessage": "",
                    "selector": "0x70a08231",
                    "status": true,
                    "value": "0"
                },
                "nodeType": 0
            },
            "16": {
                "invocation": {
                    "address": "0xdac17f958d2ee523a2206206994597c13d831ec7",
                    "callData": "0x0000000000000000000000005a5a4c52f23d2297e90cac0893686e093f248fa200000000000000000000000000000000000000000000000000000000266bc4a5",
                    "decodedMethod": {
                        "callParams": [
                            {
                                "name": "_to",
                                "type": "address",
                                "value": "0x5a5a4c52f23d2297e90cac0893686e093f248fa2"
                            },
                            {
                                "decimalAvailable": true,
                                "name": "_value",
                                "type": "uint256",
                                "value": "644,596,901"
                            }
                        ],
                        "constructorArguments": "",
                        "name": "transfer",
                        "returnParams": [],
                        "signature": "transfer(address,uint256)"
                    },
                    "errorInfo": "",
                    "fromAddress": "0xc36442b4a4522e871399cd717abdd847ab11fe88",
                    "gasUsed": 28801,
                    "id": 16,
                    "methodDecoded": true,
                    "operation": "CALL",
                    "output": "",
                    "revert": false,
                    "revertMessage": "",
                    "selector": "0xa9059cbb",
                    "status": true,
                    "value": "0"
                },
                "nodeType": 0
            },
            "17": {
                "event": {
                    "contract": "0xdac17f958d2ee523a2206206994597c13d831ec7",
                    "decodedLog": {
                        "name": "Transfer",
                        "params": [
                            {
                                "name": "from",
                                "type": "address",
                                "value": "0xc36442b4a4522e871399cd717abdd847ab11fe88"
                            },
                            {
                                "name": "to",
                                "type": "address",
                                "value": "0x5a5a4c52f23d2297e90cac0893686e093f248fa2"
                            },
                            {
                                "decimalAvailable": true,
                                "name": "value",
                                "type": "uint256",
                                "value": "644,596,901"
                            }
                        ],
                        "signature": "Transfer(address,address,uint256)"
                    },
                    "id": 17,
                    "logData": "0x00000000000000000000000000000000000000000000000000000000266bc4a5",
                    "logDecoded": true,
                    "operation": "EVENT",
                    "revert": false,
                    "status": true,
                    "topics": [
                        "0xddf252ad1be2c89b69c2b068fc378daa952ba7f163c4a11628f55a4df523b3ef",
                        "0x000000000000000000000000c36442b4a4522e871399cd717abdd847ab11fe88",
                        "0x0000000000000000000000005a5a4c52f23d2297e90cac0893686e093f248fa2"
                    ]
                },
                "nodeType": 1
            },
            "2": {
                "invocation": {
                    "address": "0x4e68ccd3e89f51c3074ca5072bbac773960dfa36",
                    "callData": "0xfffffffffffffffffffffffffffffffffffffffffffffffffffffffffffbf398fffffffffffffffffffffffffffffffffffffffffffffffffffffffffffc227800000000000000000000000000000000000000000000000000019b61c7690a72",
                    "decodedMethod": {
                        "callParams": [
                            {
                                "name": "tickLower",
                                "type": "int24",
                                "value": "-265,320"
                            },
                            {
                                "name": "tickUpper",
                                "type": "int24",
                                "value": "-253,320"
                            },
                            {
                                "name": "amount",
                                "type": "uint128",
                                "value": "452,319,236,393,586"
                            }
                        ],
                        "constructorArguments": "",
                        "name": "burn",
                        "returnParams": [
                            {
                                "name": "amount0",
                                "type": "uint256",
                                "value": "0"
                            },
                            {
                                "name": "amount1",
                                "type": "uint256",
                                "value": "644,596,901"
                            }
                        ],
                        "signature": "burn(int24,int24,uint128)"
                    },
                    "errorInfo": "",
                    "fromAddress": "0xc36442b4a4522e871399cd717abdd847ab11fe88",
                    "gasUsed": 109770,
                    "id": 2,
                    "methodDecoded": true,
                    "operation": "CALL",
                    "output": "0x000000000000000000000000000000000000000000000000000000000000000000000000000000000000000000000000000000000000000000000000266bc4a5",
                    "revert": false,
                    "revertMessage": "",
                    "selector": "0xa34123a7",
                    "status": true,
                    "value": "0"
                },
                "nodeType": 0
            },
            "3": {
                "event": {
                    "contract": "0x4e68ccd3e89f51c3074ca5072bbac773960dfa36",
                    "decodedLog": {
                        "name": "Burn",
                        "params": [
                            {
                                "name": "owner",
                                "type": "address",
                                "value": "0xc36442b4a4522e871399cd717abdd847ab11fe88"
                            },
                            {
                                "name": "tickLower",
                                "type": "int24",
                                "value": "-265,320"
                            },
                            {
                                "name": "tickUpper",
                                "type": "int24",
                                "value": "-253,320"
                            },
                            {
                                "name": "amount",
                                "type": "uint128",
                                "value": "452,319,236,393,586"
                            },
                            {
                                "name": "amount0",
                                "type": "uint256",
                                "value": "0"
                            },
                            {
                                "name": "amount1",
                                "type": "uint256",
                                "value": "644,596,901"
                            }
                        ],
                        "signature": "Burn(address,int24,int24,uint128,uint256,uint256)"
                    },
                    "id": 3,
                    "logData": "0x00000000000000000000000000000000000000000000000000019b61c7690a72000000000000000000000000000000000000000000000000000000000000000000000000000000000000000000000000000000000000000000000000266bc4a5",
                    "logDecoded": true,
                    "operation": "EVENT",
                    "revert": false,
                    "status": true,
                    "topics": [
                        "0x0c396cd989a39f4459b5fa1aed6a9a8dcdbc45908acfd67e028cd568da98982c",
                        "0x000000000000000000000000c36442b4a4522e871399cd717abdd847ab11fe88",
                        "0xfffffffffffffffffffffffffffffffffffffffffffffffffffffffffffbf398",
                        "0xfffffffffffffffffffffffffffffffffffffffffffffffffffffffffffc2278"
                    ]
                },
                "nodeType": 1
            },
            "4": {
                "invocation": {
                    "address": "0x4e68ccd3e89f51c3074ca5072bbac773960dfa36",
                    "callData": "0xba33604a18fdd17b72550dc7734a6d02b86f6c2bcc5d02239d35c36fa03ee783",
                    "decodedMethod": {
                        "callParams": [
                            {
                                "name": "",
                                "type": "bytes32",
                                "value": "0xba33604a18fdd17b72550dc7734a6d02b86f6c2bcc5d02239d35c36fa03ee783"
                            }
                        ],
                        "constructorArguments": "",
                        "name": "positions",
                        "returnParams": [
                            {
                                "name": "liquidity",
                                "type": "uint128",
                                "value": "0"
                            },
                            {
                                "name": "feeGrowthInside0LastX128",
                                "type": "uint256",
                                "value": "0"
                            },
                            {
                                "name": "feeGrowthInside1LastX128",
                                "type": "uint256",
                                "value": "0"
                            },
                            {
                                "name": "tokensOwed0",
                                "type": "uint128",
                                "value": "0"
                            },
                            {
                                "name": "tokensOwed1",
                                "type": "uint128",
                                "value": "644,596,901"
                            }
                        ],
                        "signature": "positions(bytes32)"
                    },
                    "errorInfo": "",
                    "fromAddress": "0xc36442b4a4522e871399cd717abdd847ab11fe88",
                    "gasUsed": 1013,
                    "id": 4,
                    "methodDecoded": true,
                    "operation": "STATICCALL",
                    "output": "0x000000000000000000000000000000000000000000000000000000000000000000000000000000000000000000000000000000000000000000000000000000000000000000000000000000000000000000000000000000000000000000000000000000000000000000000000000000000000000000000000000000000000000000000000000000000000000000000000000000000000000000000000266bc4a5",
                    "revert": false,
                    "revertMessage": "",
                    "selector": "0x514ea4bf",
                    "status": true,
                    "value": "0"
                },
                "nodeType": 0
            },
            "5": {
                "event": {
                    "contract": "0xc36442b4a4522e871399cd717abdd847ab11fe88",
                    "decodedLog": {
                        "name": "DecreaseLiquidity",
                        "params": [
                            {
                                "name": "tokenId",
                                "type": "uint256",
                                "value": "38,796"
                            },
                            {
                                "name": "liquidity",
                                "type": "uint128",
                                "value": "452,319,236,393,586"
                            },
                            {
                                "name": "amount0",
                                "type": "uint256",
                                "value": "0"
                            },
                            {
                                "name": "amount1",
                                "type": "uint256",
                                "value": "644,596,901"
                            }
                        ],
                        "signature": "DecreaseLiquidity(uint256,uint128,uint256,uint256)"
                    },
                    "id": 5,
                    "logData": "0x00000000000000000000000000000000000000000000000000019b61c7690a72000000000000000000000000000000000000000000000000000000000000000000000000000000000000000000000000000000000000000000000000266bc4a5",
                    "logDecoded": true,
                    "operation": "EVENT",
                    "revert": false,
                    "status": true,
                    "topics": [
                        "0x26f6a048ee9138f2c0ce266f322cb99228e8d619ae2bff30c67f8dcf9d2377b4",
                        "0x000000000000000000000000000000000000000000000000000000000000978c"
                    ]
                },
                "nodeType": 1
            },
            "6": {
                "invocation": {
                    "address": "0xc36442b4a4522e871399cd717abdd847ab11fe88",
                    "callData": "0x000000000000000000000000000000000000000000000000000000000000978c000000000000000000000000000000000000000000000000000000000000000000000000000000000000000000000000ffffffffffffffffffffffffffffffff00000000000000000000000000000000ffffffffffffffffffffffffffffffff",
                    "decodedMethod": {
                        "callParams": [
                            {
                                "name": "params",
                                "type": "(uint256,address,uint128,uint128)",
                                "value": [
                                    {
                                        "name": "tokenId",
                                        "type": "uint256",
                                        "value": "38,796"
                                    },
                                    {
                                        "name": "recipient",
                                        "type": "address",
                                        "value": "0x0000000000000000000000000000000000000000"
                                    },
                                    {
                                        "name": "amount0Max",
                                        "type": "uint128",
                                        "value": "340,282,366,920,938,463,463,374,607,431,768,211,455"
                                    },
                                    {
                                        "name": "amount1Max",
                                        "type": "uint128",
                                        "value": "340,282,366,920,938,463,463,374,607,431,768,211,455"
                                    }
                                ]
                            }
                        ],
                        "constructorArguments": "",
                        "name": "collect",
                        "returnParams": [
                            {
                                "name": "amount0",
                                "type": "uint256",
                                "value": "0"
                            },
                            {
                                "name": "amount1",
                                "type": "uint256",
                                "value": "644,596,901"
                            }
                        ],
                        "signature": "collect((uint256,address,uint128,uint128))"
                    },
                    "errorInfo": "",
                    "fromAddress": "0xc36442b4a4522e871399cd717abdd847ab11fe88",
                    "gasUsed": 60281,
                    "id": 6,
                    "methodDecoded": true,
                    "operation": "DELEGATECALL",
                    "output": "0x000000000000000000000000000000000000000000000000000000000000000000000000000000000000000000000000000000000000000000000000266bc4a5",
                    "revert": false,
                    "revertMessage": "",
                    "selector": "0xfc6f7865",
                    "status": true,
                    "value": "0"
                },
                "nodeType": 0
            },
            "7": {
                "invocation": {
                    "address": "0x4e68ccd3e89f51c3074ca5072bbac773960dfa36",
                    "callData": "0x000000000000000000000000c36442b4a4522e871399cd717abdd847ab11fe88fffffffffffffffffffffffffffffffffffffffffffffffffffffffffffbf398fffffffffffffffffffffffffffffffffffffffffffffffffffffffffffc2278000000000000000000000000000000000000000000000000000000000000000000000000000000000000000000000000000000000000000000000000266bc4a5",
                    "decodedMethod": {
                        "callParams": [
                            {
                                "name": "recipient",
                                "type": "address",
                                "value": "0xc36442b4a4522e871399cd717abdd847ab11fe88"
                            },
                            {
                                "name": "tickLower",
                                "type": "int24",
                                "value": "-265,320"
                            },
                            {
                                "name": "tickUpper",
                                "type": "int24",
                                "value": "-253,320"
                            },
                            {
                                "name": "amount0Requested",
                                "type": "uint128",
                                "value": "0"
                            },
                            {
                                "name": "amount1Requested",
                                "type": "uint128",
                                "value": "644,596,901"
                            }
                        ],
                        "constructorArguments": "",
                        "name": "collect",
                        "returnParams": [
                            {
                                "name": "amount0",
                                "type": "uint128",
                                "value": "0"
                            },
                            {
                                "name": "amount1",
                                "type": "uint128",
                                "value": "644,596,901"
                            }
                        ],
                        "signature": "collect(address,int24,int24,uint128,uint128)"
                    },
                    "errorInfo": "",
                    "fromAddress": "0xc36442b4a4522e871399cd717abdd847ab11fe88",
                    "gasUsed": 52813,
                    "id": 7,
                    "methodDecoded": true,
                    "operation": "CALL",
                    "output": "0x000000000000000000000000000000000000000000000000000000000000000000000000000000000000000000000000000000000000000000000000266bc4a5",
                    "revert": false,
                    "revertMessage": "",
                    "selector": "0x4f1eb3d8",
                    "status": true,
                    "value": "0"
                },
                "nodeType": 0
            },
            "8": {
                "invocation": {
                    "address": "0xdac17f958d2ee523a2206206994597c13d831ec7",
                    "callData": "0x000000000000000000000000c36442b4a4522e871399cd717abdd847ab11fe8800000000000000000000000000000000000000000000000000000000266bc4a5",
                    "decodedMethod": {
                        "callParams": [
                            {
                                "name": "_to",
                                "type": "address",
                                "value": "0xc36442b4a4522e871399cd717abdd847ab11fe88"
                            },
                            {
                                "decimalAvailable": true,
                                "name": "_value",
                                "type": "uint256",
                                "value": "644,596,901"
                            }
                        ],
                        "constructorArguments": "",
                        "name": "transfer",
                        "returnParams": [],
                        "signature": "transfer(address,uint256)"
                    },
                    "errorInfo": "",
                    "fromAddress": "0x4e68ccd3e89f51c3074ca5072bbac773960dfa36",
                    "gasUsed": 41601,
                    "id": 8,
                    "methodDecoded": true,
                    "operation": "CALL",
                    "output": "",
                    "revert": false,
                    "revertMessage": "",
                    "selector": "0xa9059cbb",
                    "status": true,
                    "value": "0"
                },
                "nodeType": 0
            },
            "9": {
                "event": {
                    "contract": "0xdac17f958d2ee523a2206206994597c13d831ec7",
                    "decodedLog": {
                        "name": "Transfer",
                        "params": [
                            {
                                "name": "from",
                                "type": "address",
                                "value": "0x4e68ccd3e89f51c3074ca5072bbac773960dfa36"
                            },
                            {
                                "name": "to",
                                "type": "address",
                                "value": "0xc36442b4a4522e871399cd717abdd847ab11fe88"
                            },
                            {
                                "decimalAvailable": true,
                                "name": "value",
                                "type": "uint256",
                                "value": "644,596,901"
                            }
                        ],
                        "signature": "Transfer(address,address,uint256)"
                    },
                    "id": 9,
                    "logData": "0x00000000000000000000000000000000000000000000000000000000266bc4a5",
                    "logDecoded": true,
                    "operation": "EVENT",
                    "revert": false,
                    "status": true,
                    "topics": [
                        "0xddf252ad1be2c89b69c2b068fc378daa952ba7f163c4a11628f55a4df523b3ef",
                        "0x0000000000000000000000004e68ccd3e89f51c3074ca5072bbac773960dfa36",
                        "0x000000000000000000000000c36442b4a4522e871399cd717abdd847ab11fe88"
                    ]
                },
                "nodeType": 1
            }
        },
        "gasFlame": [
            {
                "children": [
                    {
                        "children": [
                            {
                                "children": [],
                                "depth": 0,
                                "name": "Initial Gas",
                                "value": 26376
                            },
                            {
                                "children": [
                                    {
                                        "children": [
                                            {
                                                "children": [],
                                                "depth": 2,
                                                "name": "burn",
                                                "value": 109770
                                            },
                                            {
                                                "children": [],
                                                "depth": 2,
                                                "name": "positions",
                                                "value": 1013
                                            }
                                        ],
                                        "depth": 1,
                                        "name": "decreaseLiquidity",
                                        "value": 164014
                                    },
                                    {
                                        "children": [
                                            {
                                                "children": [
                                                    {
                                                        "children": [],
                                                        "depth": 3,
                                                        "name": "transfer",
                                                        "value": 41601
                                                    }
                                                ],
                                                "depth": 2,
                                                "name": "collect",
                                                "value": 52813
                                            }
                                        ],
                                        "depth": 1,
                                        "name": "collect",
                                        "value": 60281
                                    },
                                    {
                                        "children": [
                                            {
                                                "children": [],
                                                "depth": 2,
                                                "name": "balanceOf",
                                                "value": 2534
                                            }
                                        ],
                                        "depth": 1,
                                        "name": "unwrapWETH9",
                                        "value": 5899
                                    },
                                    {
                                        "children": [
                                            {
                                                "children": [],
                                                "depth": 2,
                                                "name": "balanceOf",
                                                "value": 1031
                                            },
                                            {
                                                "children": [],
                                                "depth": 2,
                                                "name": "transfer",
                                                "value": 28801
                                            }
                                        ],
                                        "depth": 1,
                                        "name": "sweepToken",
                                        "value": 31659
                                    }
                                ],
                                "depth": 0,
                                "name": "Executed Gas",
                                "value": 267108
                            }
                        ],
                        "depth": -1,
                        "name": "Actual Gas Used",
                        "value": 146742
                    },
                    {
                        "children": [],
                        "depth": -1,
                        "name": "Refunded Gas",
                        "value": 146742
                    }
                ],
                "depth": -2,
                "name": "Total Gas",
                "value": 293484
            }
        ],
        "isConfirmed": true,
        "mainTrace": [
            {
                "children": [
                    {
                        "children": [
                            {
                                "children": [
                                    {
                                        "children": [
                                            {
                                                "children": [],
                                                "depth": 3,
                                                "id": 3,
                                                "order": 3
                                            }
                                        ],
                                        "depth": 2,
                                        "id": 2,
                                        "order": 2
                                    },
                                    {
                                        "children": [],
                                        "depth": 2,
                                        "id": 4,
                                        "order": 4
                                    },
                                    {
                                        "children": [],
                                        "depth": 2,
                                        "id": 5,
                                        "order": 5
                                    }
                                ],
                                "depth": 1,
                                "id": 1,
                                "order": 1
                            },
                            {
                                "children": [
                                    {
                                        "children": [
                                            {
                                                "children": [
                                                    {
                                                        "children": [],
                                                        "depth": 4,
                                                        "id": 9,
                                                        "order": 9
                                                    }
                                                ],
                                                "depth": 3,
                                                "id": 8,
                                                "order": 8
                                            },
                                            {
                                                "children": [],
                                                "depth": 3,
                                                "id": 10,
                                                "order": 10
                                            }
                                        ],
                                        "depth": 2,
                                        "id": 7,
                                        "order": 7
                                    },
                                    {
                                        "children": [],
                                        "depth": 2,
                                        "id": 11,
                                        "order": 11
                                    }
                                ],
                                "depth": 1,
                                "id": 6,
                                "order": 6
                            },
                            {
                                "children": [
                                    {
                                        "children": [],
                                        "depth": 2,
                                        "id": 13,
                                        "order": 13
                                    }
                                ],
                                "depth": 1,
                                "id": 12,
                                "order": 12
                            },
                            {
                                "children": [
                                    {
                                        "children": [],
                                        "depth": 2,
                                        "id": 15,
                                        "order": 15
                                    },
                                    {
                                        "children": [
                                            {
                                                "children": [],
                                                "depth": 3,
                                                "id": 17,
                                                "order": 17
                                            }
                                        ],
                                        "depth": 2,
                                        "id": 16,
                                        "order": 16
                                    }
                                ],
                                "depth": 1,
                                "id": 14,
                                "order": 14
                            }
                        ],
                        "depth": 0,
                        "id": 0,
                        "order": 0
                    }
                ],
                "depth": -1,
                "id": -1,
                "order": -1
            }
        ],
        "mainTraceNodeCount": 18,
        "parentIdMap": {
            "0": -1,
            "1": 0,
            "10": 7,
            "11": 6,
            "12": 0,
            "13": 12,
            "14": 0,
            "15": 14,
            "16": 14,
            "17": 16,
            "2": 1,
            "3": 2,
            "4": 1,
            "5": 1,
            "6": 0,
            "7": 6,
            "8": 7,
            "9": 8
        },
        "tidyTrace": [
            {
                "children": [
                    {
                        "children": [
                            {
                                "children": [
                                    {
                                        "children": [
                                            {
                                                "children": [],
                                                "depth": 3,
                                                "id": 3,
                                                "order": 3
                                            }
                                        ],
                                        "depth": 2,
                                        "id": 2,
                                        "order": 2
                                    },
                                    {
                                        "children": [],
                                        "depth": 2,
                                        "id": 5,
                                        "order": 5
                                    }
                                ],
                                "depth": 1,
                                "id": 1,
                                "order": 1
                            },
                            {
                                "children": [
                                    {
                                        "children": [
                                            {
                                                "children": [
                                                    {
                                                        "children": [],
                                                        "depth": 4,
                                                        "id": 9,
                                                        "order": 9
                                                    }
                                                ],
                                                "depth": 3,
                                                "id": 8,
                                                "order": 8
                                            },
                                            {
                                                "children": [],
                                                "depth": 3,
                                                "id": 10,
                                                "order": 10
                                            }
                                        ],
                                        "depth": 2,
                                        "id": 7,
                                        "order": 7
                                    },
                                    {
                                        "children": [],
                                        "depth": 2,
                                        "id": 11,
                                        "order": 11
                                    }
                                ],
                                "depth": 1,
                                "id": 6,
                                "order": 6
                            },
                            {
                                "children": [],
                                "depth": 1,
                                "id": 12,
                                "order": 12
                            },
                            {
                                "children": [
                                    {
                                        "children": [
                                            {
                                                "children": [],
                                                "depth": 3,
                                                "id": 17,
                                                "order": 17
                                            }
                                        ],
                                        "depth": 2,
                                        "id": 16,
                                        "order": 16
                                    }
                                ],
                                "depth": 1,
                                "id": 14,
                                "order": 14
                            }
                        ],
                        "depth": 0,
                        "id": 0,
                        "order": 0
                    }
                ],
                "depth": -1,
                "id": -1,
                "order": -1
            }
        ],
        "tidyTraceNodeCount": 15
    },
    "state_change": {
        "stateChanges": [
            {
                "address": "0x4e68ccd3e89f51c3074ca5072bbac773960dfa36",
                "erc": "",
                "slots": [
                    {
                        "current": "0x000000000000000000000000000000000000000000000000000000020000000e",
                        "key": "0x1b3e515da292a5fcddc203874d0bc77d136c2576e99ed26eb9593d7eb18cfa04",
                        "prev": "0x000000000000000004000000000000000000000000000000000000020000000e"
                    },
                    {
                        "current": "0x0000000000000000000000000000000000000000000000000000000000000000",
                        "key": "0x00143df307008379eb765d87f733f99590ddc64ea5b1e458c779a425ac6a1e2c",
                        "prev": "0x0000000000000000000000000000000000001c723b0d055bd37e8edb7516470e"
                    },
                    {
                        "current": "0x0000000000000000000000000000000000000000000000000000000000208000",
                        "key": "0xb8a3588e12a5c0db850e1354230f7d5a26b0e2a6421cea9dc03b322555a008f3",
                        "prev": "0x0000000000000000000000000000000400000000000000000000000000208000"
                    },
                    {
                        "current": "0x0000000000000000000000000000000000000000000000000000000000000000",
                        "key": "0x858b3144c7a89c3e34d86eea2bcb2f2d1893c494973c17e692c1e9c9b5e314f2",
                        "prev": "0x00000000000000000000000000000000000000000000000000019b61c7690a72"
                    },
                    {
                        "current": "0x0000000000000000000000000000000000000000000000000000000000000000",
                        "key": "0x00143df307008379eb765d87f733f99590ddc64ea5b1e458c779a425ac6a1e2d",
                        "prev": "0x0160bd987d00000000000000000205b94fcda742fc03e2e838ffff7fce996347"
                    },
                    {
                        "current": "0x0000000000000000000000000000000000000000000000000000000000000000",
                        "key": "0x6dd3119f9402b57043dfe8fe16c682d948ccc7914f4c94ea794647771f5cb01c",
                        "prev": "0x0160bd987d00000000000000000205b94fcda742fc03e2e838ffff7fce996347"
                    },
                    {
                        "current": "0x0000000000000000000000000000000000000000000000000000000000000000",
                        "key": "0x00143df307008379eb765d87f733f99590ddc64ea5b1e458c779a425ac6a1e2b",
                        "prev": "0x0000000000000000000000000000026f3ce39ca2755fe1a07c46541896f9d740"
                    },
                    {
                        "current": "0x0000000000000000000000000000000000000000000000000000000000000000",
                        "key": "0x6dd3119f9402b57043dfe8fe16c682d948ccc7914f4c94ea794647771f5cb01a",
                        "prev": "0x0000000000000000000000000000026f3ce39ca2755fe1a07c46541896f9d740"
                    },
                    {
                        "current": "0x0000000000000000000000000000000000000000000000000000000000000000",
                        "key": "0x00143df307008379eb765d87f733f99590ddc64ea5b1e458c779a425ac6a1e2a",
                        "prev": "0x000000000000000000019b61c7690a72000000000000000000019b61c7690a72"
                    },
                    {
                        "current": "0x0000000000000000000000000000000000000000000000000000000000000000",
                        "key": "0x6dd3119f9402b57043dfe8fe16c682d948ccc7914f4c94ea794647771f5cb019",
                        "prev": "0xfffffffffffffffffffe649e3896f58e000000000000000000019b61c7690a72"
                    },
                    {
                        "current": "0x0000000000000000000000000000000000000000000000000000000000000000",
                        "key": "0x6dd3119f9402b57043dfe8fe16c682d948ccc7914f4c94ea794647771f5cb01b",
                        "prev": "0x0000000000000000000000000000000000001c723b0d055bd37e8edb7516470e"
                    }
                ],
                "storageVariables": [
                    {
                        "name": "ticks",
                        "type": "mapping(int24 => struct Tick.Info)",
                        "value": {
                            "pairs": [
                                {
                                    "key": "-253320",
                                    "value": {
                                        "fields": [
                                            {
                                                "name": "liquidityGross",
                                                "type": "uint128",
                                                "value": {
                                                    "current": "0",
                                                    "prev": "452319236393586",
                                                    "typeTag": 1
                                                }
                                            },
                                            {
                                                "name": "liquidityNet",
                                                "type": "int128",
                                                "value": {
                                                    "current": "0",
                                                    "prev": "-452319236393586",
                                                    "typeTag": 1
                                                }
                                            },
                                            {
                                                "name": "feeGrowthOutside0X128",
                                                "type": "uint256",
                                                "value": {
                                                    "current": "0",
                                                    "prev": "212076850099805831252494547499850229471040",
                                                    "typeTag": 1
                                                }
                                            },
                                            {
                                                "name": "feeGrowthOutside1X128",
                                                "type": "uint256",
                                                "value": {
                                                    "current": "0",
                                                    "prev": "576957754785793746605739156588302",
                                                    "typeTag": 1
                                                }
                                            },
                                            {
                                                "name": "tickCumulativeOutside",
                                                "type": "int56",
                                                "value": {
                                                    "current": "0",
                                                    "prev": "-550584622265",
                                                    "typeTag": 1
                                                }
                                            },
                                            {
                                                "name": "secondsPerLiquidityOutsideX128",
                                                "type": "uint160",
                                                "value": {
                                                    "current": "0",
                                                    "prev": "625889758651762739792504888",
                                                    "typeTag": 1
                                                }
                                            },
                                            {
                                                "name": "secondsOutside",
                                                "type": "uint32",
                                                "value": {
                                                    "current": "0",
                                                    "prev": "1623038077",
                                                    "typeTag": 1
                                                }
                                            },
                                            {
                                                "name": "initialized",
                                                "type": "bool",
                                                "value": {
                                                    "current": "false",
                                                    "prev": "true",
                                                    "typeTag": 1
                                                }
                                            }
                                        ],
                                        "typeTag": 3
                                    }
                                },
                                {
                                    "key": "-265320",
                                    "value": {
                                        "fields": [
                                            {
                                                "name": "liquidityGross",
                                                "type": "uint128",
                                                "value": {
                                                    "current": "0",
                                                    "prev": "452319236393586",
                                                    "typeTag": 1
                                                }
                                            },
                                            {
                                                "name": "liquidityNet",
                                                "type": "int128",
                                                "value": {
                                                    "current": "0",
                                                    "prev": "452319236393586",
                                                    "typeTag": 1
                                                }
                                            },
                                            {
                                                "name": "feeGrowthOutside0X128",
                                                "type": "uint256",
                                                "value": {
                                                    "current": "0",
                                                    "prev": "212076850099805831252494547499850229471040",
                                                    "typeTag": 1
                                                }
                                            },
                                            {
                                                "name": "feeGrowthOutside1X128",
                                                "type": "uint256",
                                                "value": {
                                                    "current": "0",
                                                    "prev": "576957754785793746605739156588302",
                                                    "typeTag": 1
                                                }
                                            },
                                            {
                                                "name": "tickCumulativeOutside",
                                                "type": "int56",
                                                "value": {
                                                    "current": "0",
                                                    "prev": "-550584622265",
                                                    "typeTag": 1
                                                }
                                            },
                                            {
                                                "name": "secondsPerLiquidityOutsideX128",
                                                "type": "uint160",
                                                "value": {
                                                    "current": "0",
                                                    "prev": "625889758651762739792504888",
                                                    "typeTag": 1
                                                }
                                            },
                                            {
                                                "name": "secondsOutside",
                                                "type": "uint32",
                                                "value": {
                                                    "current": "0",
                                                    "prev": "1623038077",
                                                    "typeTag": 1
                                                }
                                            },
                                            {
                                                "name": "initialized",
                                                "type": "bool",
                                                "value": {
                                                    "current": "false",
                                                    "prev": "true",
                                                    "typeTag": 1
                                                }
                                            }
                                        ],
                                        "typeTag": 3
                                    }
                                }
                            ],
                            "typeTag": 4
                        }
                    },
                    {
                        "name": "tickBitmap",
                        "type": "mapping(int16 => uint256)",
                        "value": {
                            "pairs": [
                                {
                                    "key": "-17",
                                    "value": {
                                        "current": "2129920",
                                        "prev": "1361129467683753853853498429727074975744",
                                        "typeTag": 1
                                    }
                                },
                                {
                                    "key": "-18",
                                    "value": {
                                        "current": "8589934606",
                                        "prev": "98079714615416886934934209737619787751599303828340473870",
                                        "typeTag": 1
                                    }
                                }
                            ],
                            "typeTag": 4
                        }
                    },
                    {
                        "name": "positions",
                        "type": "mapping(bytes32 => struct Position.Info)",
                        "value": {
                            "pairs": [
                                {
                                    "key": "0xba33604a18fdd17b72550dc7734a6d02b86f6c2bcc5d02239d35c36fa03ee783",
                                    "value": {
                                        "fields": [
                                            {
                                                "name": "liquidity",
                                                "type": "uint128",
                                                "value": {
                                                    "current": "0",
                                                    "prev": "452319236393586",
                                                    "typeTag": 1
                                                }
                                            }
                                        ],
                                        "typeTag": 3
                                    }
                                }
                            ],
                            "typeTag": 4
                        }
                    }
                ]
            },
            {
                "address": "0xc36442b4a4522e871399cd717abdd847ab11fe88",
                "erc": "ERC-721",
                "slots": [
                    {
                        "current": "0x00000000000000000000000000000000fc2278fbf39800000000000000000015",
                        "key": "0x18b531c98487996dc21a662217c998a50819665995748e132c1970af9bbea61f",
                        "prev": "0x000000000000000000019b61c7690a72fc2278fbf39800000000000000000015"
                    }
                ],
                "storageVariables": [
                    {
                        "name": "_positions",
                        "type": "mapping(uint256 => struct NonfungiblePositionManager.Position)",
                        "value": {
                            "pairs": [
                                {
                                    "key": "38796",
                                    "value": {
                                        "fields": [
                                            {
                                                "name": "poolId",
                                                "type": "uint80",
                                                "value": {
                                                    "current": "21",
                                                    "prev": "21",
                                                    "typeTag": 1
                                                }
                                            },
                                            {
                                                "name": "tickLower",
                                                "type": "int24",
                                                "value": {
                                                    "current": "-265320",
                                                    "prev": "-265320",
                                                    "typeTag": 1
                                                }
                                            },
                                            {
                                                "name": "tickUpper",
                                                "type": "int24",
                                                "value": {
                                                    "current": "-253320",
                                                    "prev": "-253320",
                                                    "typeTag": 1
                                                }
                                            },
                                            {
                                                "name": "liquidity",
                                                "type": "uint128",
                                                "value": {
                                                    "current": "0",
                                                    "prev": "452319236393586",
                                                    "typeTag": 1
                                                }
                                            }
                                        ],
                                        "typeTag": 3
                                    }
                                }
                            ],
                            "typeTag": 4
                        }
                    }
                ]
            },
            {
                "address": "0xdac17f958d2ee523a2206206994597c13d831ec7",
                "erc": "ERC-20",
                "slots": [
                    {
                        "current": "0x00000000000000000000000000000000000000000000000000003e634b86422e",
                        "key": "0xf79325ef15d73bc873d975b0e4eedaf108f1a270300e4b40424347eae19bc685",
                        "prev": "0x00000000000000000000000000000000000000000000000000003e6371f206d3"
                    },
                    {
                        "current": "0x00000000000000000000000000000000000000000000000000000000266bc4a5",
                        "key": "0xf31964369de38e8cbd3064af6baca6f968c22151acb8977c52d41dd9d3a81b22",
                        "prev": "0x0000000000000000000000000000000000000000000000000000000000000000"
                    }
                ],
                "storageVariables": [
                    {
                        "name": "balances",
                        "type": "mapping(address => uint256)",
                        "value": {
                            "pairs": [
                                {
                                    "key": "0x4e68ccd3e89f51c3074ca5072bbac773960dfa36",
                                    "value": {
                                        "current": "68596189774382",
                                        "prev": "68596834371283",
                                        "typeTag": 1
                                    }
                                },
                                {
                                    "key": "0x5a5a4c52f23d2297e90cac0893686e093f248fa2",
                                    "value": {
                                        "current": "644596901",
                                        "prev": "0",
                                        "typeTag": 1
                                    }
                                }
                            ],
                            "typeTag": 4
                        }
                    }
                ]
            }
        ]
    }
}