{
    "balance_change": {
        "balanceChanges": [
            {
                "account": "0xb9ee1e551f538a464e8f8c41e9904498505b49b0",
                "assets": [
                    {
                        "address": "0x3845badade8e6dff049820680d1f14bd3903a5d0",
                        "amount": "383.7395696",
                        "iconUrl": "https://assets.blocksec.com/icon/7cbe910ee62b95d006cdf0f6bff21064470697470c1007c6bbb0744d19bfd504.png",
                        "isERC1155": false,
                        "isERC721": false,
                        "sign": false,
                        "value": "286.2252166"
                    }
                ]
            },
            {
                "account": "0xf9fe0cd3a7e9cfa2c5000925ca7bfe6fa461fc90",
                "assets": [
                    {
                        "address": "0x3845badade8e6dff049820680d1f14bd3903a5d0",
                        "amount": "383.7395696",
                        "iconUrl": "https://assets.blocksec.com/icon/7cbe910ee62b95d006cdf0f6bff21064470697470c1007c6bbb0744d19bfd504.png",
                        "isERC1155": false,
                        "isERC721": false,
                        "sign": true,
                        "value": "286.2252166"
                    }
                ]
            }
        ]
    },
    "profile": {
        "basic_info": {
            "baseFee": "54.612473861",
            "blockNumber": 13101261,
            "callData": "0xa9059cbb000000000000000000000000f9fe0cd3a7e9cfa2c5000925ca7bfe6fa461fc90000000000000000000000000000000000000000000000014cd74d1696d498000",
            "debugEnable": true,
            "errorInfo": "",
            "eventCount": 1,
            "feeRecipient": "0x8595dd9e0438640b5e1254f9df579ac12a86865f",
            "formatValue": "0",
            "gasLimit": 250000,
            "gasPrice": "64.254595685",
            "gasUsed": 34224,
            "intTxnCount": 0,
            "internalRevert": false,
            "internalRevertMessage": "",
            "isContractCreation": false,
            "isFlashloan": false,
            "maxFee": "",
            "nonce": 329486,
            "overwritedBlockNumber": -1,
            "priorityFee": "",
            "receiver": "0x3845badade8e6dff049820680d1f14bd3903a5d0",
            "revertMessage": "",
            "sender": "0xb9ee1e551f538a464e8f8c41e9904498505b49b0",
            "simulationEnable": true,
            "sourceTxnHash": "0x6929711247fba5284f4ed4ddf28216ecfd2aff73b5915c570cce73d248d17337",
            "status": true,
            "timestamp": "2021-08-26T13:30:04Z",
            "transactionFee": "0.00219904928272344",
            "txnHash": "0x6929711247fba5284f4ed4ddf28216ecfd2aff73b5915c570cce73d248d17337",
            "txnIndex": 23,
            "type": 0,
            "value": "0"
        },
        "fund_flow": [
            {
                "amount": "383.7395696",
                "from": "0xb9ee1e551f538a464e8f8c41e9904498505b49b0",
                "id": 1,
                "isERC1155": false,
                "isERC721": false,
                "isReverted": false,
                "order": 1,
                "to": "0xf9fe0cd3a7e9cfa2c5000925ca7bfe6fa461fc90",
                "token": "0x3845badade8e6dff049820680d1f14bd3903a5d0"
            }
        ],
        "token_infos": [
            {
                "address": "0xc02aaa39b223fe8d0a0e5c4f27ead9083c756cc2",
                "decimals": 18
            },
            {
                "address": "0xeeeeeeeeeeeeeeeeeeeeeeeeeeeeeeeeeeeeeeee",
                "decimals": 18
            },
            {
                "address": "0x3845badade8e6dff049820680d1f14bd3903a5d0",
                "decimals": 18
            }
        ]
    },
    "address_label": {
        "labels": [
            {
                "address": "0x0000000000000000000000000000000000000003",
                "label": "Precompiled"
            },
            {
                "address": "0x0000000000000000000000000000000000000004",
                "label": "Precompiled"
            },
            {
                "address": "0xeeeeeeeeeeeeeeeeeeeeeeeeeeeeeeeeeeeeeeee",
                "label": "Ether"
            },
            {
                "address": "0x3845badade8e6dff049820680d1f14bd3903a5d0",
                "label": "The Sandbox: SAND Token"
            },
            {
                "address": "0xb9ee1e551f538a464e8f8c41e9904498505b49b0",
                "label": "Coinex"
            },
            {
                "address": "0x0000000000000000000000000000000000000001",
                "label": "Precompiled"
            },
            {
                "address": "0x0000000000000000000000000000000000000002",
                "label": "Precompiled"
            }
        ]
    },
    "trace": {
        "accountLabels": null,
        "dataMap": {
            "-1": {
                "invocation": {
                    "address": "0xb9ee1e551f538a464e8f8c41e9904498505b49b0",
                    "callData": "",
                    "decodedMethod": null,
                    "errorInfo": "",
                    "fromAddress": "",
                    "gasUsed": 0,
                    "id": -1,
                    "methodDecoded": false,
                    "operation": "",
                    "output": "",
                    "revert": false,
                    "revertMessage": "",
                    "selector": "",
                    "status": false,
                    "value": ""
                },
                "nodeType": 0
            },
            "0": {
                "invocation": {
                    "address": "0x3845badade8e6dff049820680d1f14bd3903a5d0",
                    "callData": "0x000000000000000000000000f9fe0cd3a7e9cfa2c5000925ca7bfe6fa461fc90000000000000000000000000000000000000000000000014cd74d1696d498000",
                    "decodedMethod": {
                        "callParams": [
                            {
                                "name": "to",
                                "type": "address",
                                "value": "0xf9fe0cd3a7e9cfa2c5000925ca7bfe6fa461fc90"
                            },
                            {
                                "decimalAvailable": true,
                                "name": "amount",
                                "type": "uint256",
                                "value": "383,739,569,600,000,000,000"
                            }
                        ],
                        "constructorArguments": "",
                        "name": "transfer",
                        "returnParams": [
                            {
                                "name": "success",
                                "type": "bool",
                                "value": true
                            }
                        ],
                        "signature": "transfer(address,uint256)"
                    },
                    "errorInfo": "",
                    "fromAddress": "0xb9ee1e551f538a464e8f8c41e9904498505b49b0",
                    "gasUsed": 34224,
                    "id": 0,
                    "methodDecoded": true,
                    "operation": "CALL",
                    "output": "0x0000000000000000000000000000000000000000000000000000000000000001",
                    "revert": false,
                    "revertMessage": "",
                    "selector": "0xa9059cbb",
                    "status": true,
                    "value": "0"
                },
                "nodeType": 0
            },
            "1": {
                "event": {
                    "contract": "0x3845badade8e6dff049820680d1f14bd3903a5d0",
                    "decodedLog": {
                        "name": "Transfer",
                        "params": [
                            {
                                "name": "from",
                                "type": "address",
                                "value": "0xb9ee1e551f538a464e8f8c41e9904498505b49b0"
                            },
                            {
                                "name": "to",
                                "type": "address",
                                "value": "0xf9fe0cd3a7e9cfa2c5000925ca7bfe6fa461fc90"
                            },
                            {
                                "decimalAvailable": true,
                                "name": "value",
                                "type": "uint256",
                                "value": "383,739,569,600,000,000,000"
                            }
                        ],
                        "signature": "Transfer(address,address,uint256)"
                    },
                    "id": 1,
                    "logData": "0x000000000000000000000000000000000000000000000014cd74d1696d498000",
                    "logDecoded": true,
                    "operation": "EVENT",
                    "revert": false,
                    "status": true,
                    "topics": [
                        "0xddf252ad1be2c89b69c2b068fc378daa952ba7f163c4a11628f55a4df523b3ef",
                        "0x000000000000000000000000b9ee1e551f538a464e8f8c41e9904498505b49b0",
                        "0x000000000000000000000000f9fe0cd3a7e9cfa2c5000925ca7bfe6fa461fc90"
                    ]
                },
                "nodeType": 1
            }
        },
        "gasFlame": [
            {
                "children": [
                    {
                        "children": [
                            {
                                "children": [],
                                "depth": 0,
                                "name": "Initial Gas",
                                "value": 21644
                            },
                            {
                                "children": [],
                                "depth": 0,
                                "name": "Executed Gas",
                                "value": 12580
                            }
                        ],
                        "depth": -1,
                        "name": "Actual Gas Used",
                        "value": 34224
                    },
                    {
                        "children": [],
                        "depth": -1,
                        "name": "Refunded Gas",
                        "value": 0
                    }
                ],
                "depth": -2,
                "name": "Total Gas",
                "value": 34224
            }
        ],
        "isConfirmed": true,
        "mainTrace": [
            {
                "children": [
                    {
                        "children": [
                            {
                                "children": [],
                                "depth": 1,
                                "id": 1,
                                "order": 1
                            }
                        ],
                        "depth": 0,
                        "id": 0,
                        "order": 0
                    }
                ],
                "depth": -1,
                "id": -1,
                "order": -1
            }
        ],
        "mainTraceNodeCount": 2,
        "parentIdMap": {
            "0": -1,
            "1": 0
        },
        "tidyTrace": [
            {
                "children": [
                    {
                        "children": [
                            {
                                "children": [],
                                "depth": 1,
                                "id": 1,
                                "order": 1
                            }
                        ],
                        "depth": 0,
                        "id": 0,
                        "order": 0
                    }
                ],
                "depth": -1,
                "id": -1,
                "order": -1
            }
        ],
        "tidyTraceNodeCount": 2
    },
    "state_change": {
        "stateChanges": [
            {
                "address": "0x3845badade8e6dff049820680d1f14bd3903a5d0",
                "erc": "ERC-20",
                "slots": [
                    {
                        "current": "0x000000000000000000000000000000000000000000000a9b3be7f6e45f284c00",
                        "key": "0x1968428eb07f536769c4797c0002832af1c6a1355ad4501e0d3fc9f59a4984fe",
                        "prev": "0x000000000000000000000000000000000000000000000ab0095cc84dcc71cc00"
                    },
                    {
                        "current": "0x0000000000000000000000000000000000000000000000484d5ad0189a618000",
                        "key": "0x46a57aa2cd53cd20b3ca0221cb7aa0b36b2198daa1b283ff71c6b63667c8ffac",
                        "prev": "0x0000000000000000000000000000000000000000000000337fe5feaf2d180000"
                    }
                ],
                "storageVariables": [
                    {
                        "name": "_balances",
                        "type": "mapping(address => uint256)",
                        "value": {
                            "pairs": [
                                {
                                    "key": "0xb9ee1e551f538a464e8f8c41e9904498505b49b0",
                                    "value": {
                                        "current": "50087226850350000000000",
                                        "prev": "50470966419950000000000",
                                        "typeTag": 1
                                    }
                                },
                                {
                                    "key": "0xf9fe0cd3a7e9cfa2c5000925ca7bfe6fa461fc90",
                                    "value": {
                                        "current": "1333739569600000000000",
                                        "prev": "950000000000000000000",
                                        "typeTag": 1
                                    }
                                }
                            ],
                            "typeTag": 4
                        }
                    }
                ]
            }
        ]
    }
}