{
    "balance_change": {
        "balanceChanges": [
            {
                "account": "0x6401f5afc1f3a0bfbe5aed6ec5b1dc0df11b38fe",
                "assets": [
                    {
                        "address": "0x79650799e7899a802cb96c0bc33a6a8d4ce4936c",
                        "amount": "204,602.9455",
                        "iconUrl": "",
                        "isERC1155": false,
                        "isERC721": false,
                        "sign": false,
                        "value": ""
                    }
                ]
            },
            {
                "account": "0x915d7915f2b469bb654a7d903a5d4417cb8ea7df",
                "assets": [
                    {
                        "address": "0x79650799e7899a802cb96c0bc33a6a8d4ce4936c",
                        "amount": "204,602.9455",
                        "iconUrl": "",
                        "isERC1155": false,
                        "isERC721": false,
                        "sign": true,
                        "value": ""
                    }
                ]
            }
        ]
    },
    "profile": {
        "basic_info": {
            "baseFee": "",
            "blockNumber": 5978893,
            "callData": "0xa9059cbb000000000000000000000000915d7915f2b469bb654a7d903a5d4417cb8ea7df000000000000000000000000000000000000000000002b538c4333629bc9c000",
            "debugEnable": true,
            "errorInfo": "",
            "eventCount": 1,
            "feeRecipient": "0xb2930b35844a230f00e51431acae96fe543a0347",
            "formatValue": "0",
            "gasLimit": 100000,
            "gasPrice": "3",
            "gasUsed": 22968,
            "intTxnCount": 0,
            "internalRevert": false,
            "internalRevertMessage": "",
            "isContractCreation": false,
            "isFlashloan": false,
            "maxFee": "",
            "nonce": 3,
            "overwritedBlockNumber": -1,
            "priorityFee": "",
            "receiver": "0x79650799e7899a802cb96c0bc33a6a8d4ce4936c",
            "revertMessage": "",
            "sender": "0x6401f5afc1f3a0bfbe5aed6ec5b1dc0df11b38fe",
            "simulationEnable": true,
            "sourceTxnHash": "0x69902bf041bae5ed00d850e3720828306de1de6ab3a23df76d0659823974bd99",
            "status": true,
            "timestamp": "2018-07-17T05:36:38Z",
            "transactionFee": "0.000068904",
            "txnHash": "0x69902bf041bae5ed00d850e3720828306de1de6ab3a23df76d0659823974bd99",
            "txnIndex": 149,
            "type": 0,
            "value": "0"
        },
        "fund_flow": [
            {
                "amount": "204,602.9455",
                "from": "0x6401f5afc1f3a0bfbe5aed6ec5b1dc0df11b38fe",
                "id": 1,
                "isERC1155": false,
                "isERC721": false,
                "isReverted": false,
                "order": 1,
                "to": "0x915d7915f2b469bb654a7d903a5d4417cb8ea7df",
                "token": "0x79650799e7899a802cb96c0bc33a6a8d4ce4936c"
            }
        ],
        "token_infos": [
            {
                "address": "0x79650799e7899a802cb96c0bc33a6a8d4ce4936c",
                "decimals": 18
            },
            {
                "address": "0xc02aaa39b223fe8d0a0e5c4f27ead9083c756cc2",
                "decimals": 18
            },
            {
                "address": "0xeeeeeeeeeeeeeeeeeeeeeeeeeeeeeeeeeeeeeeee",
                "decimals": 18
            }
        ]
    },
    "address_label": {
        "labels": [
            {
                "address": "0xeeeeeeeeeeeeeeeeeeeeeeeeeeeeeeeeeeeeeeee",
                "label": "Ether"
            },
            {
                "address": "0x915d7915f2b469bb654a7d903a5d4417cb8ea7df",
                "label": "FCoin"
            },
            {
                "address": "0x79650799e7899a802cb96c0bc33a6a8d4ce4936c",
                "label": "AIT (AIT)"
            },
            {
                "address": "0x0000000000000000000000000000000000000001",
                "label": "Precompiled"
            },
            {
                "address": "0x0000000000000000000000000000000000000002",
                "label": "Precompiled"
            },
            {
                "address": "0x0000000000000000000000000000000000000003",
                "label": "Precompiled"
            },
            {
                "address": "0x0000000000000000000000000000000000000004",
                "label": "Precompiled"
            }
        ]
    },
    "trace": {
        "accountLabels": null,
        "dataMap": {
            "-1": {
                "invocation": {
                    "address": "0x6401f5afc1f3a0bfbe5aed6ec5b1dc0df11b38fe",
                    "callData": "",
                    "decodedMethod": null,
                    "errorInfo": "",
                    "fromAddress": "",
                    "gasUsed": 0,
                    "id": -1,
                    "methodDecoded": false,
                    "operation": "",
                    "output": "",
                    "revert": false,
                    "revertMessage": "",
                    "selector": "",
                    "status": false,
                    "value": ""
                },
                "nodeType": 0
            },
            "0": {
                "invocation": {
                    "address": "0x79650799e7899a802cb96c0bc33a6a8d4ce4936c",
                    "callData": "0x000000000000000000000000915d7915f2b469bb654a7d903a5d4417cb8ea7df000000000000000000000000000000000000000000002b538c4333629bc9c000",
                    "decodedMethod": {
                        "callParams": [
                            {
                                "name": "_to",
                                "type": "address",
                                "value": "0x915d7915f2b469bb654a7d903a5d4417cb8ea7df"
                            },
                            {
                                "decimalAvailable": true,
                                "name": "_value",
                                "type": "uint256",
                                "value": "204,602,945,500,000,000,000,000"
                            }
                        ],
                        "constructorArguments": "",
                        "name": "transfer",
                        "returnParams": [],
                        "signature": "transfer(address,uint256)"
                    },
                    "errorInfo": "",
                    "fromAddress": "0x6401f5afc1f3a0bfbe5aed6ec5b1dc0df11b38fe",
                    "gasUsed": 22968,
                    "id": 0,
                    "methodDecoded": true,
                    "operation": "CALL",
                    "output": "",
                    "revert": false,
                    "revertMessage": "",
                    "selector": "0xa9059cbb",
                    "status": true,
                    "value": "0"
                },
                "nodeType": 0
            },
            "1": {
                "event": {
                    "contract": "0x79650799e7899a802cb96c0bc33a6a8d4ce4936c",
                    "decodedLog": {
                        "name": "Transfer",
                        "params": [
                            {
                                "name": "from",
                                "type": "address",
                                "value": "0x6401f5afc1f3a0bfbe5aed6ec5b1dc0df11b38fe"
                            },
                            {
                                "name": "to",
                                "type": "address",
                                "value": "0x915d7915f2b469bb654a7d903a5d4417cb8ea7df"
                            },
                            {
                                "decimalAvailable": true,
                                "name": "value",
                                "type": "uint256",
                                "value": "204,602,945,500,000,000,000,000"
                            }
                        ],
                        "signature": "Transfer(address,address,uint256)"
                    },
                    "id": 1,
                    "logData": "0x000000000000000000000000000000000000000000002b538c4333629bc9c000",
                    "logDecoded": true,
                    "operation": "EVENT",
                    "revert": false,
                    "status": true,
                    "topics": [
                        "0xddf252ad1be2c89b69c2b068fc378daa952ba7f163c4a11628f55a4df523b3ef",
                        "0x0000000000000000000000006401f5afc1f3a0bfbe5aed6ec5b1dc0df11b38fe",
                        "0x000000000000000000000000915d7915f2b469bb654a7d903a5d4417cb8ea7df"
                    ]
                },
                "nodeType": 1
            }
        },
        "gasFlame": [
            {
                "children": [
                    {
                        "children": [
                            {
                                "children": [],
                                "depth": 0,
                                "name": "Initial Gas",
                                "value": 23384
                            },
                            {
                                "children": [],
                                "depth": 0,
                                "name": "Executed Gas",
                                "value": 14584
                            }
                        ],
                        "depth": -1,
                        "name": "Actual Gas Used",
                        "value": 22968
                    },
                    {
                        "children": [],
                        "depth": -1,
                        "name": "Refunded Gas",
                        "value": 15000
                    }
                ],
                "depth": -2,
                "name": "Total Gas",
                "value": 37968
            }
        ],
        "isConfirmed": true,
        "mainTrace": [
            {
                "children": [
                    {
                        "children": [
                            {
                                "children": [],
                                "depth": 1,
                                "id": 1,
                                "order": 1
                            }
                        ],
                        "depth": 0,
                        "id": 0,
                        "order": 0
                    }
                ],
                "depth": -1,
                "id": -1,
                "order": -1
            }
        ],
        "mainTraceNodeCount": 2,
        "parentIdMap": {
            "0": -1,
            "1": 0
        },
        "tidyTrace": [
            {
                "children": [
                    {
                        "children": [
                            {
                                "children": [],
                                "depth": 1,
                                "id": 1,
                                "order": 1
                            }
                        ],
                        "depth": 0,
                        "id": 0,
                        "order": 0
                    }
                ],
                "depth": -1,
                "id": -1,
                "order": -1
            }
        ],
        "tidyTraceNodeCount": 2
    },
    "state_change": {
        "stateChanges": [
            {
                "address": "0x79650799e7899a802cb96c0bc33a6a8d4ce4936c",
                "erc": "",
                "slots": [
                    {
                        "current": "0x00000000000000000000000000000000000000000004f5e0eb03fd29ad2f8c00",
                        "key": "0xeb9d435340ad1a9b6e03b90108afa51bf42259b04335b6e0356e9d5a0f1b1c6e",
                        "prev": "0x00000000000000000000000000000000000000000004ca8d5ec0c9c71165cc00"
                    },
                    {
                        "current": "0x0000000000000000000000000000000000000000000000000000000000000000",
                        "key": "0x82dbd9958657448e59fc600f0f2b11f917de17d1482b5735ff0d3bd3c75508ad",
                        "prev": "0x000000000000000000000000000000000000000000002b538c4333629bc9c000"
                    }
                ],
                "storageVariables": [
                    {
                        "name": "balanceOf",
                        "type": "mapping(address => uint256)",
                        "value": {
                            "pairs": [
                                {
                                    "key": "0x6401f5afc1f3a0bfbe5aed6ec5b1dc0df11b38fe",
                                    "value": {
                                        "current": "0",
                                        "prev": "204602945500000000000000",
                                        "typeTag": 1
                                    }
                                },
                                {
                                    "key": "0x915d7915f2b469bb654a7d903a5d4417cb8ea7df",
                                    "value": {
                                        "current": "5996832072091470000000000",
                                        "prev": "5792229126591470000000000",
                                        "typeTag": 1
                                    }
                                }
                            ],
                            "typeTag": 4
                        }
                    }
                ]
            }
        ]
    }
}