{
    "balance_change": {
        "balanceChanges": [
            {
                "account": "0x258f73a39043844489d1e8888e0e3f7ed5efdcb7",
                "assets": [
                    {
                        "address": "0xc5d105e63711398af9bbff092d4b6769c82f793d",
                        "amount": "8",
                        "iconUrl": "",
                        "isERC1155": false,
                        "isERC721": false,
                        "sign": false,
                        "value": ""
                    }
                ]
            },
            {
                "account": "0xeec141a50fc526110afaedcae0b4c7cf252fbd15",
                "assets": [
                    {
                        "address": "0xc5d105e63711398af9bbff092d4b6769c82f793d",
                        "amount": "8",
                        "iconUrl": "",
                        "isERC1155": false,
                        "isERC721": false,
                        "sign": true,
                        "value": ""
                    }
                ]
            }
        ]
    },
    "profile": {
        "basic_info": {
            "baseFee": "",
            "blockNumber": 5210235,
            "callData": "0xa9059cbb000000000000000000000000eec141a50fc526110afaedcae0b4c7cf252fbd150000000000000000000000000000000000000000000000006f05b59d3b200000",
            "debugEnable": true,
            "errorInfo": "",
            "eventCount": 1,
            "feeRecipient": "0xcc16e3c00dbbe76603fa833ec20a48f786dfe610",
            "formatValue": "0",
            "gasLimit": 60000,
            "gasPrice": "8",
            "gasUsed": 22340,
            "intTxnCount": 0,
            "internalRevert": false,
            "internalRevertMessage": "",
            "isContractCreation": false,
            "isFlashloan": false,
            "maxFee": "",
            "nonce": 0,
            "overwritedBlockNumber": -1,
            "priorityFee": "",
            "receiver": "0xc5d105e63711398af9bbff092d4b6769c82f793d",
            "revertMessage": "",
            "sender": "0x258f73a39043844489d1e8888e0e3f7ed5efdcb7",
            "simulationEnable": true,
            "sourceTxnHash": "0x697f8f5fbce4ed66a591ee1fcf2947444fa483a277ab0b9c6391509bf56280f9",
            "status": true,
            "timestamp": "2018-03-07T02:57:51Z",
            "transactionFee": "0.00017872",
            "txnHash": "0x697f8f5fbce4ed66a591ee1fcf2947444fa483a277ab0b9c6391509bf56280f9",
            "txnIndex": 56,
            "type": 0,
            "value": "0"
        },
        "fund_flow": [
            {
                "amount": "8",
                "from": "0x258f73a39043844489d1e8888e0e3f7ed5efdcb7",
                "id": 1,
                "isERC1155": false,
                "isERC721": false,
                "isReverted": false,
                "order": 1,
                "to": "0xeec141a50fc526110afaedcae0b4c7cf252fbd15",
                "token": "0xc5d105e63711398af9bbff092d4b6769c82f793d"
            }
        ],
        "token_infos": [
            {
                "address": "0xc5d105e63711398af9bbff092d4b6769c82f793d",
                "decimals": 18
            },
            {
                "address": "0xeeeeeeeeeeeeeeeeeeeeeeeeeeeeeeeeeeeeeeee",
                "decimals": 18
            },
            {
                "address": "0xc02aaa39b223fe8d0a0e5c4f27ead9083c756cc2",
                "decimals": 18
            }
        ]
    },
    "address_label": {
        "labels": [
            {
                "address": "0x0000000000000000000000000000000000000002",
                "label": "Precompiled"
            },
            {
                "address": "0x0000000000000000000000000000000000000003",
                "label": "Precompiled"
            },
            {
                "address": "0x0000000000000000000000000000000000000004",
                "label": "Precompiled"
            },
            {
                "address": "0xeeeeeeeeeeeeeeeeeeeeeeeeeeeeeeeeeeeeeeee",
                "label": "Ether"
            },
            {
                "address": "0xc5d105e63711398af9bbff092d4b6769c82f793d",
                "label": "Beauty Chain: BEC Token"
            },
            {
                "address": "0xeec141a50fc526110afaedcae0b4c7cf252fbd15",
                "label": "OKEX"
            },
            {
                "address": "0x0000000000000000000000000000000000000001",
                "label": "Precompiled"
            }
        ]
    },
    "trace": {
        "accountLabels": null,
        "dataMap": {
            "-1": {
                "invocation": {
                    "address": "0x258f73a39043844489d1e8888e0e3f7ed5efdcb7",
                    "callData": "",
                    "decodedMethod": null,
                    "errorInfo": "",
                    "fromAddress": "",
                    "gasUsed": 0,
                    "id": -1,
                    "methodDecoded": false,
                    "operation": "",
                    "output": "",
                    "revert": false,
                    "revertMessage": "",
                    "selector": "",
                    "status": false,
                    "value": ""
                },
                "nodeType": 0
            },
            "0": {
                "invocation": {
                    "address": "0xc5d105e63711398af9bbff092d4b6769c82f793d",
                    "callData": "0x000000000000000000000000eec141a50fc526110afaedcae0b4c7cf252fbd150000000000000000000000000000000000000000000000006f05b59d3b200000",
                    "decodedMethod": {
                        "callParams": [
                            {
                                "name": "_to",
                                "type": "address",
                                "value": "0xeec141a50fc526110afaedcae0b4c7cf252fbd15"
                            },
                            {
                                "decimalAvailable": true,
                                "name": "_value",
                                "type": "uint256",
                                "value": "8,000,000,000,000,000,000"
                            }
                        ],
                        "constructorArguments": "",
                        "name": "transfer",
                        "returnParams": [
                            {
                                "name": "",
                                "type": "bool",
                                "value": true
                            }
                        ],
                        "signature": "transfer(address,uint256)"
                    },
                    "errorInfo": "",
                    "fromAddress": "0x258f73a39043844489d1e8888e0e3f7ed5efdcb7",
                    "gasUsed": 22340,
                    "id": 0,
                    "methodDecoded": true,
                    "operation": "CALL",
                    "output": "0x0000000000000000000000000000000000000000000000000000000000000001",
                    "revert": false,
                    "revertMessage": "",
                    "selector": "0xa9059cbb",
                    "status": true,
                    "value": "0"
                },
                "nodeType": 0
            },
            "1": {
                "event": {
                    "contract": "0xc5d105e63711398af9bbff092d4b6769c82f793d",
                    "decodedLog": {
                        "name": "Transfer",
                        "params": [
                            {
                                "name": "from",
                                "type": "address",
                                "value": "0x258f73a39043844489d1e8888e0e3f7ed5efdcb7"
                            },
                            {
                                "name": "to",
                                "type": "address",
                                "value": "0xeec141a50fc526110afaedcae0b4c7cf252fbd15"
                            },
                            {
                                "decimalAvailable": true,
                                "name": "value",
                                "type": "uint256",
                                "value": "8,000,000,000,000,000,000"
                            }
                        ],
                        "signature": "Transfer(address,address,uint256)"
                    },
                    "id": 1,
                    "logData": "0x0000000000000000000000000000000000000000000000006f05b59d3b200000",
                    "logDecoded": true,
                    "operation": "EVENT",
                    "revert": false,
                    "status": true,
                    "topics": [
                        "0xddf252ad1be2c89b69c2b068fc378daa952ba7f163c4a11628f55a4df523b3ef",
                        "0x000000000000000000000000258f73a39043844489d1e8888e0e3f7ed5efdcb7",
                        "0x000000000000000000000000eec141a50fc526110afaedcae0b4c7cf252fbd15"
                    ]
                },
                "nodeType": 1
            }
        },
        "gasFlame": [
            {
                "children": [
                    {
                        "children": [
                            {
                                "children": [],
                                "depth": 0,
                                "name": "Initial Gas",
                                "value": 23192
                            },
                            {
                                "children": [],
                                "depth": 0,
                                "name": "Executed Gas",
                                "value": 14148
                            }
                        ],
                        "depth": -1,
                        "name": "Actual Gas Used",
                        "value": 22340
                    },
                    {
                        "children": [],
                        "depth": -1,
                        "name": "Refunded Gas",
                        "value": 15000
                    }
                ],
                "depth": -2,
                "name": "Total Gas",
                "value": 37340
            }
        ],
        "isConfirmed": true,
        "mainTrace": [
            {
                "children": [
                    {
                        "children": [
                            {
                                "children": [],
                                "depth": 1,
                                "id": 1,
                                "order": 1
                            }
                        ],
                        "depth": 0,
                        "id": 0,
                        "order": 0
                    }
                ],
                "depth": -1,
                "id": -1,
                "order": -1
            }
        ],
        "mainTraceNodeCount": 2,
        "parentIdMap": {
            "0": -1,
            "1": 0
        },
        "tidyTrace": [
            {
                "children": [
                    {
                        "children": [
                            {
                                "children": [],
                                "depth": 1,
                                "id": 1,
                                "order": 1
                            }
                        ],
                        "depth": 0,
                        "id": 0,
                        "order": 0
                    }
                ],
                "depth": -1,
                "id": -1,
                "order": -1
            }
        ],
        "tidyTraceNodeCount": 2
    },
    "state_change": {
        "stateChanges": [
            {
                "address": "0xc5d105e63711398af9bbff092d4b6769c82f793d",
                "erc": "ERC-20",
                "slots": [
                    {
                        "current": "0x0000000000000000000000000000000000000000000000000000000000000000",
                        "key": "0xc4ce14a040cca9e8588ee52ec21fc7699dc9ecb46cec20cb535e65308db8d40f",
                        "prev": "0x0000000000000000000000000000000000000000000000006f05b59d3b200000"
                    },
                    {
                        "current": "0x0000000000000000000000000000000000000000000000077b227cd83be80000",
                        "key": "0x58952434da3f06a98be61a472c7b80994e2f999e4f5c234ae15aa8517a6335e1",
                        "prev": "0x0000000000000000000000000000000000000000000000070c1cc73b00c80000"
                    }
                ],
                "storageVariables": [
                    {
                        "name": "balances",
                        "type": "mapping(address => uint256)",
                        "value": {
                            "pairs": [
                                {
                                    "key": "0x258f73a39043844489d1e8888e0e3f7ed5efdcb7",
                                    "value": {
                                        "current": "0",
                                        "prev": "8000000000000000000",
                                        "typeTag": 1
                                    }
                                },
                                {
                                    "key": "0xeec141a50fc526110afaedcae0b4c7cf252fbd15",
                                    "value": {
                                        "current": "138000000000000000000",
                                        "prev": "130000000000000000000",
                                        "typeTag": 1
                                    }
                                }
                            ],
                            "typeTag": 4
                        }
                    }
                ]
            }
        ]
    }
}