{
    "balance_change": {
        "balanceChanges": [
            {
                "account": "0x0982de14466faa8c27d468a482264cd3515c6262",
                "assets": [
                    {
                        "address": "0x4d6b4526399146b1ea898f596b39d97181b6edf5",
                        "amount": "66,101.0469",
                        "iconUrl": "",
                        "isERC1155": false,
                        "isERC721": false,
                        "sign": false,
                        "value": ""
                    }
                ]
            },
            {
                "account": "0x52a09c1515d4ba8cee2175b2e0821312cd3f40eb",
                "assets": [
                    {
                        "address": "0x4d6b4526399146b1ea898f596b39d97181b6edf5",
                        "amount": "66,101.0469",
                        "iconUrl": "",
                        "isERC1155": false,
                        "isERC721": false,
                        "sign": true,
                        "value": ""
                    }
                ]
            }
        ]
    },
    "profile": {
        "basic_info": {
            "baseFee": "",
            "blockNumber": 10013708,
            "callData": "0xa9059cbb00000000000000000000000052a09c1515d4ba8cee2175b2e0821312cd3f40eb000000000000000000000000000000000000000000000dff584d81319fab4000",
            "debugEnable": true,
            "errorInfo": "",
            "eventCount": 1,
            "feeRecipient": "0x5a0b54d5dc17e0aadc383d2db43b0a0d3e029c4c",
            "formatValue": "0",
            "gasLimit": 51754,
            "gasPrice": "22.5",
            "gasUsed": 51754,
            "intTxnCount": 0,
            "internalRevert": false,
            "internalRevertMessage": "",
            "isContractCreation": false,
            "isFlashloan": false,
            "maxFee": "",
            "nonce": 4144,
            "overwritedBlockNumber": -1,
            "priorityFee": "",
            "receiver": "0x4d6b4526399146b1ea898f596b39d97181b6edf5",
            "revertMessage": "",
            "sender": "0x0982de14466faa8c27d468a482264cd3515c6262",
            "simulationEnable": true,
            "sourceTxnHash": "0x697382209dc0dcbf510db0017b426131f0c28cb8a8d8bc9154aacaaf99c10c7e",
            "status": true,
            "timestamp": "2020-05-06T16:13:21Z",
            "transactionFee": "0.001164465",
            "txnHash": "0x697382209dc0dcbf510db0017b426131f0c28cb8a8d8bc9154aacaaf99c10c7e",
            "txnIndex": 30,
            "type": 0,
            "value": "0"
        },
        "fund_flow": [
            {
                "amount": "66,101.0469",
                "from": "0x0982de14466faa8c27d468a482264cd3515c6262",
                "id": 1,
                "isERC1155": false,
                "isERC721": false,
                "isReverted": false,
                "order": 1,
                "to": "0x52a09c1515d4ba8cee2175b2e0821312cd3f40eb",
                "token": "0x4d6b4526399146b1ea898f596b39d97181b6edf5"
            }
        ],
        "token_infos": [
            {
                "address": "0xc02aaa39b223fe8d0a0e5c4f27ead9083c756cc2",
                "decimals": 18
            },
            {
                "address": "0xeeeeeeeeeeeeeeeeeeeeeeeeeeeeeeeeeeeeeeee",
                "decimals": 18
            },
            {
                "address": "0x4d6b4526399146b1ea898f596b39d97181b6edf5",
                "decimals": 18
            }
        ]
    },
    "address_label": {
        "labels": [
            {
                "address": "0xeeeeeeeeeeeeeeeeeeeeeeeeeeeeeeeeeeeeeeee",
                "label": "Ether"
            },
            {
                "address": "0x4d6b4526399146b1ea898f596b39d97181b6edf5",
                "label": "AncToken (ANC)"
            },
            {
                "address": "0x0000000000000000000000000000000000000001",
                "label": "Precompiled"
            },
            {
                "address": "0x0000000000000000000000000000000000000002",
                "label": "Precompiled"
            },
            {
                "address": "0x0000000000000000000000000000000000000003",
                "label": "Precompiled"
            },
            {
                "address": "0x0000000000000000000000000000000000000004",
                "label": "Precompiled"
            }
        ]
    },
    "trace": {
        "accountLabels": null,
        "dataMap": {
            "-1": {
                "invocation": {
                    "address": "0x0982de14466faa8c27d468a482264cd3515c6262",
                    "callData": "",
                    "decodedMethod": null,
                    "errorInfo": "",
                    "fromAddress": "",
                    "gasUsed": 0,
                    "id": -1,
                    "methodDecoded": false,
                    "operation": "",
                    "output": "",
                    "revert": false,
                    "revertMessage": "",
                    "selector": "",
                    "status": false,
                    "value": ""
                },
                "nodeType": 0
            },
            "0": {
                "invocation": {
                    "address": "0x4d6b4526399146b1ea898f596b39d97181b6edf5",
                    "callData": "0x00000000000000000000000052a09c1515d4ba8cee2175b2e0821312cd3f40eb000000000000000000000000000000000000000000000dff584d81319fab4000",
                    "decodedMethod": {
                        "callParams": [
                            {
                                "name": "_to",
                                "type": "address",
                                "value": "0x52a09c1515d4ba8cee2175b2e0821312cd3f40eb"
                            },
                            {
                                "decimalAvailable": true,
                                "name": "_value",
                                "type": "uint256",
                                "value": "66,101,046,900,000,000,000,000"
                            }
                        ],
                        "constructorArguments": "",
                        "name": "transfer",
                        "returnParams": [
                            {
                                "name": "success",
                                "type": "bool",
                                "value": true
                            }
                        ],
                        "signature": "transfer(address,uint256)"
                    },
                    "errorInfo": "",
                    "fromAddress": "0x0982de14466faa8c27d468a482264cd3515c6262",
                    "gasUsed": 51754,
                    "id": 0,
                    "methodDecoded": true,
                    "operation": "CALL",
                    "output": "0x0000000000000000000000000000000000000000000000000000000000000001",
                    "revert": false,
                    "revertMessage": "",
                    "selector": "0xa9059cbb",
                    "status": true,
                    "value": "0"
                },
                "nodeType": 0
            },
            "1": {
                "event": {
                    "contract": "0x4d6b4526399146b1ea898f596b39d97181b6edf5",
                    "decodedLog": {
                        "name": "Transfer",
                        "params": [
                            {
                                "name": "_from",
                                "type": "address",
                                "value": "0x0982de14466faa8c27d468a482264cd3515c6262"
                            },
                            {
                                "name": "_to",
                                "type": "address",
                                "value": "0x52a09c1515d4ba8cee2175b2e0821312cd3f40eb"
                            },
                            {
                                "decimalAvailable": true,
                                "name": "_value",
                                "type": "uint256",
                                "value": "66,101,046,900,000,000,000,000"
                            }
                        ],
                        "signature": "Transfer(address,address,uint256)"
                    },
                    "id": 1,
                    "logData": "0x000000000000000000000000000000000000000000000dff584d81319fab4000",
                    "logDecoded": true,
                    "operation": "EVENT",
                    "revert": false,
                    "status": true,
                    "topics": [
                        "0xddf252ad1be2c89b69c2b068fc378daa952ba7f163c4a11628f55a4df523b3ef",
                        "0x0000000000000000000000000982de14466faa8c27d468a482264cd3515c6262",
                        "0x00000000000000000000000052a09c1515d4ba8cee2175b2e0821312cd3f40eb"
                    ]
                },
                "nodeType": 1
            }
        },
        "gasFlame": [
            {
                "children": [
                    {
                        "children": [
                            {
                                "children": [],
                                "depth": 0,
                                "name": "Initial Gas",
                                "value": 21668
                            },
                            {
                                "children": [],
                                "depth": 0,
                                "name": "Executed Gas",
                                "value": 30086
                            }
                        ],
                        "depth": -1,
                        "name": "Actual Gas Used",
                        "value": 51754
                    },
                    {
                        "children": [],
                        "depth": -1,
                        "name": "Refunded Gas",
                        "value": 0
                    }
                ],
                "depth": -2,
                "name": "Total Gas",
                "value": 51754
            }
        ],
        "isConfirmed": true,
        "mainTrace": [
            {
                "children": [
                    {
                        "children": [
                            {
                                "children": [],
                                "depth": 1,
                                "id": 1,
                                "order": 1
                            }
                        ],
                        "depth": 0,
                        "id": 0,
                        "order": 0
                    }
                ],
                "depth": -1,
                "id": -1,
                "order": -1
            }
        ],
        "mainTraceNodeCount": 2,
        "parentIdMap": {
            "0": -1,
            "1": 0
        },
        "tidyTrace": [
            {
                "children": [
                    {
                        "children": [
                            {
                                "children": [],
                                "depth": 1,
                                "id": 1,
                                "order": 1
                            }
                        ],
                        "depth": 0,
                        "id": 0,
                        "order": 0
                    }
                ],
                "depth": -1,
                "id": -1,
                "order": -1
            }
        ],
        "tidyTraceNodeCount": 2
    },
    "state_change": {
        "stateChanges": [
            {
                "address": "0x4d6b4526399146b1ea898f596b39d97181b6edf5",
                "erc": "ERC-20",
                "slots": [
                    {
                        "current": "0x00000000000000000000000000000000000000000054a7db41e4cce18852f000",
                        "key": "0x8d8e8b86604020f470cfafe388f69389e8dffd8c2d5e50e41a40c98bd0066ba1",
                        "prev": "0x00000000000000000000000000000000000000000054b5da9a324e1327fe3000"
                    },
                    {
                        "current": "0x000000000000000000000000000000000000000000000dff584d81319fab4000",
                        "key": "0x43cd5c2573ce2fbb9e3bb8c8a2082483a74cdb0679fb92a9a6602d2407a9ae63",
                        "prev": "0x0000000000000000000000000000000000000000000000000000000000000000"
                    }
                ],
                "storageVariables": [
                    {
                        "name": "balances",
                        "type": "mapping(address => uint256)",
                        "value": {
                            "pairs": [
                                {
                                    "key": "0x0982de14466faa8c27d468a482264cd3515c6262",
                                    "value": {
                                        "current": "102342448635365400000000000",
                                        "prev": "102408549682265400000000000",
                                        "typeTag": 1
                                    }
                                },
                                {
                                    "key": "0x52a09c1515d4ba8cee2175b2e0821312cd3f40eb",
                                    "value": {
                                        "current": "66101046900000000000000",
                                        "prev": "0",
                                        "typeTag": 1
                                    }
                                }
                            ],
                            "typeTag": 4
                        }
                    }
                ]
            }
        ]
    }
}