{
    "balance_change": {
        "balanceChanges": [
            {
                "account": "0xc5d4ec9300be6da89a3db305c415c7cd3cbb7e8e",
                "assets": [
                    {
                        "address": "0xc02aaa39b223fe8d0a0e5c4f27ead9083c756cc2",
                        "amount": "1.500908633041591905",
                        "iconUrl": "https://assets.blocksec.com/icon/f1cb2d02c471d545bbc7722daf3277fd852d98e63d118771af7047bd8256c516.png",
                        "isERC1155": false,
                        "isERC721": false,
                        "sign": true,
                        "value": "3918.6322953817202186"
                    },
                    {
                        "address": "0x9e32b13ce7f2e80a01932b42553652e053d6ed8e",
                        "amount": "37.970678319999999999",
                        "iconUrl": "",
                        "isERC1155": false,
                        "isERC721": false,
                        "sign": false,
                        "value": "3912.8784008759998922"
                    }
                ]
            },
            {
                "account": "0x1c98562a2fab5af19d8fb3291a36ac3c618835d9",
                "assets": [
                    {
                        "address": "0x9e32b13ce7f2e80a01932b42553652e053d6ed8e",
                        "amount": "37.970678319999999999",
                        "iconUrl": "",
                        "isERC1155": false,
                        "isERC721": false,
                        "sign": true,
                        "value": "3912.8784008759998922"
                    },
                    {
                        "address": "0xc02aaa39b223fe8d0a0e5c4f27ead9083c756cc2",
                        "amount": "1.500908633041591905",
                        "iconUrl": "https://assets.blocksec.com/icon/f1cb2d02c471d545bbc7722daf3277fd852d98e63d118771af7047bd8256c516.png",
                        "isERC1155": false,
                        "isERC721": false,
                        "sign": false,
                        "value": "3918.6322953817202186"
                    }
                ]
            }
        ]
    },
    "profile": {
        "basic_info": {
            "baseFee": "57.58008973",
            "blockNumber": 18984688,
            "callData": "0x5a7b05e8000000000000000000000000000000000000000000000000000000000000002000000000000000000000000000000000000000000000000000000000000000880000000000000000000000000000000000000000000000020ef2f2c13839dfff00000000000000000000000000000000000000000000000014d43ecc858088310000000000000000000000001c98562a2fab5af19d8fb3291a36ac3c618835d9c5d4ec9300be6da89a3db305c415c7cd3cbb7e8e000000000000000032fd25db067c891903b0576a000000000000000000000000000000000000000000000000",
            "debugEnable": true,
            "errorInfo": "",
            "eventCount": 4,
            "feeRecipient": "0x1f9090aae28b8a3dceadf281b0f12828e676c326",
            "formatValue": "0",
            "gasLimit": 300000,
            "gasPrice": "58.5",
            "gasUsed": 144684,
            "intTxnCount": 10,
            "internalRevert": false,
            "internalRevertMessage": "",
            "isContractCreation": false,
            "isFlashloan": false,
            "maxFee": "116.08008973",
            "nonce": 33187,
            "overwritedBlockNumber": -1,
            "priorityFee": "0.91991027",
            "receiver": "0x99b1817acb40e76c309e26b2face9da9eff55317",
            "revertMessage": "",
            "sender": "0xc5d4ec9300be6da89a3db305c415c7cd3cbb7e8e",
            "simulationEnable": true,
            "sourceTxnHash": "0x69d0e1b8e7fc7c06478d127d4c8b6ef51154d01ab90d22273a0720458cc4395a",
            "status": true,
            "timestamp": "2024-01-11T15:51:23Z",
            "transactionFee": "0.008464014",
            "txnHash": "0x69d0e1b8e7fc7c06478d127d4c8b6ef51154d01ab90d22273a0720458cc4395a",
            "txnIndex": 58,
            "type": 2,
            "value": "0"
        },
        "fund_flow": [
            {
                "amount": "1.500908633041591905",
                "from": "0x1c98562a2fab5af19d8fb3291a36ac3c618835d9",
                "id": 1,
                "isERC1155": false,
                "isERC721": false,
                "isReverted": false,
                "order": 1,
                "to": "0xc5d4ec9300be6da89a3db305c415c7cd3cbb7e8e",
                "token": "0xc02aaa39b223fe8d0a0e5c4f27ead9083c756cc2"
            },
            {
                "amount": "37.970678319999999999",
                "from": "0xc5d4ec9300be6da89a3db305c415c7cd3cbb7e8e",
                "id": 2,
                "isERC1155": false,
                "isERC721": false,
                "isReverted": false,
                "order": 2,
                "to": "0x1c98562a2fab5af19d8fb3291a36ac3c618835d9",
                "token": "0x9e32b13ce7f2e80a01932b42553652e053d6ed8e"
            }
        ],
        "token_infos": [
            {
                "address": "0x9e32b13ce7f2e80a01932b42553652e053d6ed8e",
                "decimals": 18
            },
            {
                "address": "0xc02aaa39b223fe8d0a0e5c4f27ead9083c756cc2",
                "decimals": 18
            },
            {
                "address": "0xeeeeeeeeeeeeeeeeeeeeeeeeeeeeeeeeeeeeeeee",
                "decimals": 18
            }
        ]
    },
    "address_label": {
        "labels": [
            {
                "address": "0xc02aaa39b223fe8d0a0e5c4f27ead9083c756cc2",
                "label": "Wrapped Ether (WETH)"
            },
            {
                "address": "0x1c98562a2fab5af19d8fb3291a36ac3c618835d9",
                "label": "Uniswap V3: Metis"
            },
            {
                "address": "0x9e32b13ce7f2e80a01932b42553652e053d6ed8e",
                "label": "Metis Andromeda: Metis Token"
            },
            {
                "address": "0x0000000000000000000000000000000000000001",
                "label": "Precompiled"
            },
            {
                "address": "0x0000000000000000000000000000000000000002",
                "label": "Precompiled"
            },
            {
                "address": "0x0000000000000000000000000000000000000003",
                "label": "Precompiled"
            },
            {
                "address": "0x0000000000000000000000000000000000000004",
                "label": "Precompiled"
            },
            {
                "address": "0xeeeeeeeeeeeeeeeeeeeeeeeeeeeeeeeeeeeeeeee",
                "label": "Ether"
            }
        ]
    },
    "trace": {
        "accountLabels": null,
        "dataMap": {
            "-1": {
                "invocation": {
                    "address": "0xc5d4ec9300be6da89a3db305c415c7cd3cbb7e8e",
                    "callData": "",
                    "decodedMethod": null,
                    "errorInfo": "",
                    "fromAddress": "",
                    "gasUsed": 0,
                    "id": -1,
                    "methodDecoded": false,
                    "operation": "",
                    "output": "",
                    "revert": false,
                    "revertMessage": "",
                    "selector": "",
                    "status": false,
                    "value": ""
                },
                "nodeType": 0
            },
            "0": {
                "invocation": {
                    "address": "0x99b1817acb40e76c309e26b2face9da9eff55317",
                    "callData": "0x000000000000000000000000000000000000000000000000000000000000002000000000000000000000000000000000000000000000000000000000000000880000000000000000000000000000000000000000000000020ef2f2c13839dfff00000000000000000000000000000000000000000000000014d43ecc858088310000000000000000000000001c98562a2fab5af19d8fb3291a36ac3c618835d9c5d4ec9300be6da89a3db305c415c7cd3cbb7e8e000000000000000032fd25db067c891903b0576a000000000000000000000000000000000000000000000000",
                    "decodedMethod": null,
                    "errorInfo": "",
                    "fromAddress": "0xc5d4ec9300be6da89a3db305c415c7cd3cbb7e8e",
                    "gasUsed": 144684,
                    "id": 0,
                    "methodDecoded": false,
                    "operation": "CALL",
                    "output": "0x00000000000000000000000000000000000000000000000014d44c7318c2de61",
                    "revert": false,
                    "revertMessage": "",
                    "selector": "0x5a7b05e8",
                    "status": true,
                    "value": "0"
                },
                "nodeType": 0
            },
            "1": {
                "invocation": {
                    "address": "0x1c98562a2fab5af19d8fb3291a36ac3c618835d9",
                    "callData": "0x",
                    "decodedMethod": {
                        "callParams": [],
                        "constructorArguments": "",
                        "name": "slot0",
                        "returnParams": [
                            {
                                "name": "sqrtPriceX96",
                                "type": "uint160",
                                "value": "15,780,287,491,293,972,138,573,191,018"
                            },
                            {
                                "name": "tick",
                                "type": "int24",
                                "value": "-32,274"
                            },
                            {
                                "name": "observationIndex",
                                "type": "uint16",
                                "value": "57"
                            },
                            {
                                "name": "observationCardinality",
                                "type": "uint16",
                                "value": "80"
                            },
                            {
                                "name": "observationCardinalityNext",
                                "type": "uint16",
                                "value": "80"
                            },
                            {
                                "name": "feeProtocol",
                                "type": "uint8",
                                "value": "0"
                            },
                            {
                                "name": "unlocked",
                                "type": "bool",
                                "value": true
                            }
                        ],
                        "signature": "slot0()"
                    },
                    "errorInfo": "",
                    "fromAddress": "0x99b1817acb40e76c309e26b2face9da9eff55317",
                    "gasUsed": 2696,
                    "id": 1,
                    "methodDecoded": true,
                    "operation": "STATICCALL",
                    "output": "0x000000000000000000000000000000000000000032fd25db067c891903b0576affffffffffffffffffffffffffffffffffffffffffffffffffffffffffff81ee00000000000000000000000000000000000000000000000000000000000000390000000000000000000000000000000000000000000000000000000000000050000000000000000000000000000000000000000000000000000000000000005000000000000000000000000000000000000000000000000000000000000000000000000000000000000000000000000000000000000000000000000000000001",
                    "revert": false,
                    "revertMessage": "",
                    "selector": "0x3850c7bd",
                    "status": true,
                    "value": "0"
                },
                "nodeType": 0
            },
            "10": {
                "invocation": {
                    "address": "0x9e32b13ce7f2e80a01932b42553652e053d6ed8e",
                    "callData": "0x000000000000000000000000c5d4ec9300be6da89a3db305c415c7cd3cbb7e8e0000000000000000000000001c98562a2fab5af19d8fb3291a36ac3c618835d90000000000000000000000000000000000000000000000020ef2f2c13839dfff",
                    "decodedMethod": {
                        "callParams": [
                            {
                                "name": "sender",
                                "type": "address",
                                "value": "0xc5d4ec9300be6da89a3db305c415c7cd3cbb7e8e"
                            },
                            {
                                "name": "recipient",
                                "type": "address",
                                "value": "0x1c98562a2fab5af19d8fb3291a36ac3c618835d9"
                            },
                            {
                                "decimalAvailable": true,
                                "name": "amount",
                                "type": "uint256",
                                "value": "37,970,678,319,999,999,999"
                            }
                        ],
                        "constructorArguments": "",
                        "name": "transferFrom",
                        "returnParams": [
                            {
                                "name": "",
                                "type": "bool",
                                "value": true
                            }
                        ],
                        "signature": "transferFrom(address,address,uint256)"
                    },
                    "errorInfo": "",
                    "fromAddress": "0x99b1817acb40e76c309e26b2face9da9eff55317",
                    "gasUsed": 18672,
                    "id": 10,
                    "methodDecoded": true,
                    "operation": "CALL",
                    "output": "0x0000000000000000000000000000000000000000000000000000000000000001",
                    "revert": false,
                    "revertMessage": "",
                    "selector": "0x23b872dd",
                    "status": true,
                    "value": "0"
                },
                "nodeType": 0
            },
            "11": {
                "event": {
                    "contract": "0x9e32b13ce7f2e80a01932b42553652e053d6ed8e",
                    "decodedLog": {
                        "name": "Transfer",
                        "params": [
                            {
                                "name": "from",
                                "type": "address",
                                "value": "0xc5d4ec9300be6da89a3db305c415c7cd3cbb7e8e"
                            },
                            {
                                "name": "to",
                                "type": "address",
                                "value": "0x1c98562a2fab5af19d8fb3291a36ac3c618835d9"
                            },
                            {
                                "decimalAvailable": true,
                                "name": "value",
                                "type": "uint256",
                                "value": "37,970,678,319,999,999,999"
                            }
                        ],
                        "signature": "Transfer(address,address,uint256)"
                    },
                    "id": 11,
                    "logData": "0x0000000000000000000000000000000000000000000000020ef2f2c13839dfff",
                    "logDecoded": true,
                    "operation": "EVENT",
                    "revert": false,
                    "status": true,
                    "topics": [
                        "0xddf252ad1be2c89b69c2b068fc378daa952ba7f163c4a11628f55a4df523b3ef",
                        "0x000000000000000000000000c5d4ec9300be6da89a3db305c415c7cd3cbb7e8e",
                        "0x0000000000000000000000001c98562a2fab5af19d8fb3291a36ac3c618835d9"
                    ]
                },
                "nodeType": 1
            },
            "12": {
                "event": {
                    "contract": "0x9e32b13ce7f2e80a01932b42553652e053d6ed8e",
                    "decodedLog": {
                        "name": "Approval",
                        "params": [
                            {
                                "name": "owner",
                                "type": "address",
                                "value": "0xc5d4ec9300be6da89a3db305c415c7cd3cbb7e8e"
                            },
                            {
                                "name": "spender",
                                "type": "address",
                                "value": "0x99b1817acb40e76c309e26b2face9da9eff55317"
                            },
                            {
                                "decimalAvailable": true,
                                "name": "value",
                                "type": "uint256",
                                "value": "115,792,089,237,316,195,423,570,985,008,687,907,853,269,984,665,640,563,853,886,514,878,413,129,640,647"
                            }
                        ],
                        "signature": "Approval(address,address,uint256)"
                    },
                    "id": 12,
                    "logData": "0xffffffffffffffffffffffffffffffffffffffffffffd8b42c145061c753eac7",
                    "logDecoded": true,
                    "operation": "EVENT",
                    "revert": false,
                    "status": true,
                    "topics": [
                        "0x8c5be1e5ebec7d5bd14f71427d1e84f3dd0314c0f7b2291e5b200ac8c7c3b925",
                        "0x000000000000000000000000c5d4ec9300be6da89a3db305c415c7cd3cbb7e8e",
                        "0x00000000000000000000000099b1817acb40e76c309e26b2face9da9eff55317"
                    ]
                },
                "nodeType": 1
            },
            "13": {
                "invocation": {
                    "address": "0x9e32b13ce7f2e80a01932b42553652e053d6ed8e",
                    "callData": "0x0000000000000000000000001c98562a2fab5af19d8fb3291a36ac3c618835d9",
                    "decodedMethod": {
                        "callParams": [
                            {
                                "name": "account",
                                "type": "address",
                                "value": "0x1c98562a2fab5af19d8fb3291a36ac3c618835d9"
                            }
                        ],
                        "constructorArguments": "",
                        "name": "balanceOf",
                        "returnParams": [
                            {
                                "decimalAvailable": true,
                                "name": "",
                                "type": "uint256",
                                "value": "31,252,008,438,183,030,351,407"
                            }
                        ],
                        "signature": "balanceOf(address)"
                    },
                    "errorInfo": "",
                    "fromAddress": "0x1c98562a2fab5af19d8fb3291a36ac3c618835d9",
                    "gasUsed": 607,
                    "id": 13,
                    "methodDecoded": true,
                    "operation": "STATICCALL",
                    "output": "0x00000000000000000000000000000000000000000000069e2cbdde4a51e2e62f",
                    "revert": false,
                    "revertMessage": "",
                    "selector": "0x70a08231",
                    "status": true,
                    "value": "0"
                },
                "nodeType": 0
            },
            "14": {
                "event": {
                    "contract": "0x1c98562a2fab5af19d8fb3291a36ac3c618835d9",
                    "decodedLog": {
                        "name": "Swap",
                        "params": [
                            {
                                "name": "sender",
                                "type": "address",
                                "value": "0x99b1817acb40e76c309e26b2face9da9eff55317"
                            },
                            {
                                "name": "recipient",
                                "type": "address",
                                "value": "0xc5d4ec9300be6da89a3db305c415c7cd3cbb7e8e"
                            },
                            {
                                "name": "amount0",
                                "type": "int256",
                                "value": "37,970,678,319,999,999,999"
                            },
                            {
                                "name": "amount1",
                                "type": "int256",
                                "value": "-1,500,908,633,041,591,905"
                            },
                            {
                                "name": "sqrtPriceX96",
                                "type": "uint160",
                                "value": "15,770,846,260,949,694,026,423,392,968"
                            },
                            {
                                "name": "liquidity",
                                "type": "uint128",
                                "value": "12,595,205,164,825,089,794,174"
                            },
                            {
                                "name": "tick",
                                "type": "int24",
                                "value": "-32,285"
                            }
                        ],
                        "signature": "Swap(address,address,int256,int256,uint160,uint128,int24)"
                    },
                    "id": 14,
                    "logData": "0x0000000000000000000000000000000000000000000000020ef2f2c13839dfffffffffffffffffffffffffffffffffffffffffffffffffffeb2bb38ce73d219f000000000000000000000000000000000000000032f55698e71fb65b0296dac80000000000000000000000000000000000000000000002aac995ad26c4cde07effffffffffffffffffffffffffffffffffffffffffffffffffffffffffff81e3",
                    "logDecoded": true,
                    "operation": "EVENT",
                    "revert": false,
                    "status": true,
                    "topics": [
                        "0xc42079f94a6350d7e6235f29174924f928cc2ac818eb64fed8004e115fbcca67",
                        "0x00000000000000000000000099b1817acb40e76c309e26b2face9da9eff55317",
                        "0x000000000000000000000000c5d4ec9300be6da89a3db305c415c7cd3cbb7e8e"
                    ]
                },
                "nodeType": 1
            },
            "2": {
                "invocation": {
                    "address": "0x1c98562a2fab5af19d8fb3291a36ac3c618835d9",
                    "callData": "0x000000000000000000000000c5d4ec9300be6da89a3db305c415c7cd3cbb7e8e00000000000000000000000000000000000000000000000000000000000000010000000000000000000000000000000000000000000000020ef2f2c13839dfff00000000000000000000000000000000000000000000000000000001000276a400000000000000000000000000000000000000000000000000000000000000a00000000000000000000000000000000000000000000000000000000000000020000000000000000000000000c5d4ec9300be6da89a3db305c415c7cd3cbb7e8e",
                    "decodedMethod": {
                        "callParams": [
                            {
                                "name": "recipient",
                                "type": "address",
                                "value": "0xc5d4ec9300be6da89a3db305c415c7cd3cbb7e8e"
                            },
                            {
                                "name": "zeroForOne",
                                "type": "bool",
                                "value": true
                            },
                            {
                                "name": "amountSpecified",
                                "type": "int256",
                                "value": "37,970,678,319,999,999,999"
                            },
                            {
                                "name": "sqrtPriceLimitX96",
                                "type": "uint160",
                                "value": "4,295,128,740"
                            },
                            {
                                "name": "data",
                                "type": "bytes",
                                "value": "0x000000000000000000000000c5d4ec9300be6da89a3db305c415c7cd3cbb7e8e"
                            }
                        ],
                        "constructorArguments": "",
                        "name": "swap",
                        "returnParams": [
                            {
                                "name": "amount0",
                                "type": "int256",
                                "value": "37,970,678,319,999,999,999"
                            },
                            {
                                "name": "amount1",
                                "type": "int256",
                                "value": "-1,500,908,633,041,591,905"
                            }
                        ],
                        "signature": "swap(address,bool,int256,uint160,bytes)"
                    },
                    "errorInfo": "",
                    "fromAddress": "0x99b1817acb40e76c309e26b2face9da9eff55317",
                    "gasUsed": 111576,
                    "id": 2,
                    "methodDecoded": true,
                    "operation": "CALL",
                    "output": "0x0000000000000000000000000000000000000000000000020ef2f2c13839dfffffffffffffffffffffffffffffffffffffffffffffffffffeb2bb38ce73d219f",
                    "revert": false,
                    "revertMessage": "",
                    "selector": "0x128acb08",
                    "status": true,
                    "value": "0"
                },
                "nodeType": 0
            },
            "3": {
                "invocation": {
                    "address": "0xc02aaa39b223fe8d0a0e5c4f27ead9083c756cc2",
                    "callData": "0x000000000000000000000000c5d4ec9300be6da89a3db305c415c7cd3cbb7e8e00000000000000000000000000000000000000000000000014d44c7318c2de61",
                    "decodedMethod": {
                        "callParams": [
                            {
                                "name": "dst",
                                "type": "address",
                                "value": "0xc5d4ec9300be6da89a3db305c415c7cd3cbb7e8e"
                            },
                            {
                                "decimalAvailable": true,
                                "name": "wad",
                                "type": "uint256",
                                "value": "1,500,908,633,041,591,905"
                            }
                        ],
                        "constructorArguments": "",
                        "name": "transfer",
                        "returnParams": [
                            {
                                "name": "",
                                "type": "bool",
                                "value": true
                            }
                        ],
                        "signature": "transfer(address,uint256)"
                    },
                    "errorInfo": "",
                    "fromAddress": "0x1c98562a2fab5af19d8fb3291a36ac3c618835d9",
                    "gasUsed": 12862,
                    "id": 3,
                    "methodDecoded": true,
                    "operation": "CALL",
                    "output": "0x0000000000000000000000000000000000000000000000000000000000000001",
                    "revert": false,
                    "revertMessage": "",
                    "selector": "0xa9059cbb",
                    "status": true,
                    "value": "0"
                },
                "nodeType": 0
            },
            "4": {
                "event": {
                    "contract": "0xc02aaa39b223fe8d0a0e5c4f27ead9083c756cc2",
                    "decodedLog": {
                        "name": "Transfer",
                        "params": [
                            {
                                "name": "src",
                                "type": "address",
                                "value": "0x1c98562a2fab5af19d8fb3291a36ac3c618835d9"
                            },
                            {
                                "name": "dst",
                                "type": "address",
                                "value": "0xc5d4ec9300be6da89a3db305c415c7cd3cbb7e8e"
                            },
                            {
                                "decimalAvailable": true,
                                "name": "wad",
                                "type": "uint256",
                                "value": "1,500,908,633,041,591,905"
                            }
                        ],
                        "signature": "Transfer(address,address,uint256)"
                    },
                    "id": 4,
                    "logData": "0x00000000000000000000000000000000000000000000000014d44c7318c2de61",
                    "logDecoded": true,
                    "operation": "EVENT",
                    "revert": false,
                    "status": true,
                    "topics": [
                        "0xddf252ad1be2c89b69c2b068fc378daa952ba7f163c4a11628f55a4df523b3ef",
                        "0x0000000000000000000000001c98562a2fab5af19d8fb3291a36ac3c618835d9",
                        "0x000000000000000000000000c5d4ec9300be6da89a3db305c415c7cd3cbb7e8e"
                    ]
                },
                "nodeType": 1
            },
            "5": {
                "invocation": {
                    "address": "0x9e32b13ce7f2e80a01932b42553652e053d6ed8e",
                    "callData": "0x0000000000000000000000001c98562a2fab5af19d8fb3291a36ac3c618835d9",
                    "decodedMethod": {
                        "callParams": [
                            {
                                "name": "account",
                                "type": "address",
                                "value": "0x1c98562a2fab5af19d8fb3291a36ac3c618835d9"
                            }
                        ],
                        "constructorArguments": "",
                        "name": "balanceOf",
                        "returnParams": [
                            {
                                "decimalAvailable": true,
                                "name": "",
                                "type": "uint256",
                                "value": "31,214,037,759,863,030,351,408"
                            }
                        ],
                        "signature": "balanceOf(address)"
                    },
                    "errorInfo": "",
                    "fromAddress": "0x1c98562a2fab5af19d8fb3291a36ac3c618835d9",
                    "gasUsed": 2607,
                    "id": 5,
                    "methodDecoded": true,
                    "operation": "STATICCALL",
                    "output": "0x00000000000000000000000000000000000000000000069c1dcaeb8919a90630",
                    "revert": false,
                    "revertMessage": "",
                    "selector": "0x70a08231",
                    "status": true,
                    "value": "0"
                },
                "nodeType": 0
            },
            "6": {
                "invocation": {
                    "address": "0x99b1817acb40e76c309e26b2face9da9eff55317",
                    "callData": "0x0000000000000000000000000000000000000000000000020ef2f2c13839dfffffffffffffffffffffffffffffffffffffffffffffffffffeb2bb38ce73d219f00000000000000000000000000000000000000000000000000000000000000600000000000000000000000000000000000000000000000000000000000000020000000000000000000000000c5d4ec9300be6da89a3db305c415c7cd3cbb7e8e",
                    "decodedMethod": {
                        "callParams": [
                            {
                                "name": "amount0Delta",
                                "type": "int256",
                                "value": "37,970,678,319,999,999,999"
                            },
                            {
                                "name": "amount1Delta",
                                "type": "int256",
                                "value": "-1,500,908,633,041,591,905"
                            },
                            {
                                "name": "data",
                                "type": "bytes",
                                "value": "0x000000000000000000000000c5d4ec9300be6da89a3db305c415c7cd3cbb7e8e"
                            }
                        ],
                        "constructorArguments": "",
                        "name": "uniswapV3SwapCallback",
                        "returnParams": [],
                        "signature": "uniswapV3SwapCallback(int256,int256,bytes)"
                    },
                    "errorInfo": "",
                    "fromAddress": "0x1c98562a2fab5af19d8fb3291a36ac3c618835d9",
                    "gasUsed": 21298,
                    "id": 6,
                    "methodDecoded": true,
                    "operation": "CALL",
                    "output": "",
                    "revert": false,
                    "revertMessage": "",
                    "selector": "0xfa461e33",
                    "status": true,
                    "value": "0"
                },
                "nodeType": 0
            },
            "7": {
                "invocation": {
                    "address": "0x1c98562a2fab5af19d8fb3291a36ac3c618835d9",
                    "callData": "0x",
                    "decodedMethod": {
                        "callParams": [],
                        "constructorArguments": "",
                        "name": "token0",
                        "returnParams": [
                            {
                                "name": "",
                                "type": "address",
                                "value": "0x9e32b13ce7f2e80a01932b42553652e053d6ed8e"
                            }
                        ],
                        "signature": "token0()"
                    },
                    "errorInfo": "",
                    "fromAddress": "0x99b1817acb40e76c309e26b2face9da9eff55317",
                    "gasUsed": 266,
                    "id": 7,
                    "methodDecoded": true,
                    "operation": "STATICCALL",
                    "output": "0x0000000000000000000000009e32b13ce7f2e80a01932b42553652e053d6ed8e",
                    "revert": false,
                    "revertMessage": "",
                    "selector": "0x0dfe1681",
                    "status": true,
                    "value": "0"
                },
                "nodeType": 0
            },
            "8": {
                "invocation": {
                    "address": "0x1c98562a2fab5af19d8fb3291a36ac3c618835d9",
                    "callData": "0x",
                    "decodedMethod": {
                        "callParams": [],
                        "constructorArguments": "",
                        "name": "token1",
                        "returnParams": [
                            {
                                "name": "",
                                "type": "address",
                                "value": "0xc02aaa39b223fe8d0a0e5c4f27ead9083c756cc2"
                            }
                        ],
                        "signature": "token1()"
                    },
                    "errorInfo": "",
                    "fromAddress": "0x99b1817acb40e76c309e26b2face9da9eff55317",
                    "gasUsed": 308,
                    "id": 8,
                    "methodDecoded": true,
                    "operation": "STATICCALL",
                    "output": "0x000000000000000000000000c02aaa39b223fe8d0a0e5c4f27ead9083c756cc2",
                    "revert": false,
                    "revertMessage": "",
                    "selector": "0xd21220a7",
                    "status": true,
                    "value": "0"
                },
                "nodeType": 0
            },
            "9": {
                "invocation": {
                    "address": "0x1c98562a2fab5af19d8fb3291a36ac3c618835d9",
                    "callData": "0x",
                    "decodedMethod": {
                        "callParams": [],
                        "constructorArguments": "",
                        "name": "fee",
                        "returnParams": [
                            {
                                "name": "",
                                "type": "uint24",
                                "value": "3,000"
                            }
                        ],
                        "signature": "fee()"
                    },
                    "errorInfo": "",
                    "fromAddress": "0x99b1817acb40e76c309e26b2face9da9eff55317",
                    "gasUsed": 251,
                    "id": 9,
                    "methodDecoded": true,
                    "operation": "STATICCALL",
                    "output": "0x0000000000000000000000000000000000000000000000000000000000000bb8",
                    "revert": false,
                    "revertMessage": "",
                    "selector": "0xddca3f43",
                    "status": true,
                    "value": "0"
                },
                "nodeType": 0
            }
        },
        "gasFlame": [
            {
                "children": [
                    {
                        "children": [
                            {
                                "children": [],
                                "depth": 0,
                                "name": "Initial Gas",
                                "value": 22800
                            },
                            {
                                "children": [
                                    {
                                        "children": [],
                                        "depth": 1,
                                        "name": "slot0",
                                        "value": 2696
                                    },
                                    {
                                        "children": [
                                            {
                                                "children": [],
                                                "depth": 2,
                                                "name": "transfer",
                                                "value": 12862
                                            },
                                            {
                                                "children": [],
                                                "depth": 2,
                                                "name": "balanceOf",
                                                "value": 2607
                                            },
                                            {
                                                "children": [
                                                    {
                                                        "children": [],
                                                        "depth": 3,
                                                        "name": "token0",
                                                        "value": 266
                                                    },
                                                    {
                                                        "children": [],
                                                        "depth": 3,
                                                        "name": "token1",
                                                        "value": 308
                                                    },
                                                    {
                                                        "children": [],
                                                        "depth": 3,
                                                        "name": "fee",
                                                        "value": 251
                                                    },
                                                    {
                                                        "children": [],
                                                        "depth": 3,
                                                        "name": "transferFrom",
                                                        "value": 18672
                                                    }
                                                ],
                                                "depth": 2,
                                                "name": "uniswapV3SwapCallback",
                                                "value": 21298
                                            },
                                            {
                                                "children": [],
                                                "depth": 2,
                                                "name": "balanceOf",
                                                "value": 607
                                            }
                                        ],
                                        "depth": 1,
                                        "name": "swap",
                                        "value": 111576
                                    }
                                ],
                                "depth": 0,
                                "name": "Executed Gas",
                                "value": 121884
                            }
                        ],
                        "depth": -1,
                        "name": "Actual Gas Used",
                        "value": 144684
                    },
                    {
                        "children": [],
                        "depth": -1,
                        "name": "Refunded Gas",
                        "value": 0
                    }
                ],
                "depth": -2,
                "name": "Total Gas",
                "value": 144684
            }
        ],
        "isConfirmed": true,
        "mainTrace": [
            {
                "children": [
                    {
                        "children": [
                            {
                                "children": [],
                                "depth": 1,
                                "id": 1,
                                "order": 1
                            },
                            {
                                "children": [
                                    {
                                        "children": [
                                            {
                                                "children": [],
                                                "depth": 3,
                                                "id": 4,
                                                "order": 4
                                            }
                                        ],
                                        "depth": 2,
                                        "id": 3,
                                        "order": 3
                                    },
                                    {
                                        "children": [],
                                        "depth": 2,
                                        "id": 5,
                                        "order": 5
                                    },
                                    {
                                        "children": [
                                            {
                                                "children": [],
                                                "depth": 3,
                                                "id": 7,
                                                "order": 7
                                            },
                                            {
                                                "children": [],
                                                "depth": 3,
                                                "id": 8,
                                                "order": 8
                                            },
                                            {
                                                "children": [],
                                                "depth": 3,
                                                "id": 9,
                                                "order": 9
                                            },
                                            {
                                                "children": [
                                                    {
                                                        "children": [],
                                                        "depth": 4,
                                                        "id": 11,
                                                        "order": 11
                                                    },
                                                    {
                                                        "children": [],
                                                        "depth": 4,
                                                        "id": 12,
                                                        "order": 12
                                                    }
                                                ],
                                                "depth": 3,
                                                "id": 10,
                                                "order": 10
                                            }
                                        ],
                                        "depth": 2,
                                        "id": 6,
                                        "order": 6
                                    },
                                    {
                                        "children": [],
                                        "depth": 2,
                                        "id": 13,
                                        "order": 13
                                    },
                                    {
                                        "children": [],
                                        "depth": 2,
                                        "id": 14,
                                        "order": 14
                                    }
                                ],
                                "depth": 1,
                                "id": 2,
                                "order": 2
                            }
                        ],
                        "depth": 0,
                        "id": 0,
                        "order": 0
                    }
                ],
                "depth": -1,
                "id": -1,
                "order": -1
            }
        ],
        "mainTraceNodeCount": 15,
        "parentIdMap": {
            "0": -1,
            "1": 0,
            "10": 6,
            "11": 10,
            "12": 10,
            "13": 2,
            "14": 2,
            "2": 0,
            "3": 2,
            "4": 3,
            "5": 2,
            "6": 2,
            "7": 6,
            "8": 6,
            "9": 6
        },
        "tidyTrace": [
            {
                "children": [
                    {
                        "children": [
                            {
                                "children": [
                                    {
                                        "children": [
                                            {
                                                "children": [],
                                                "depth": 3,
                                                "id": 4,
                                                "order": 4
                                            }
                                        ],
                                        "depth": 2,
                                        "id": 3,
                                        "order": 3
                                    },
                                    {
                                        "children": [
                                            {
                                                "children": [
                                                    {
                                                        "children": [],
                                                        "depth": 4,
                                                        "id": 11,
                                                        "order": 11
                                                    },
                                                    {
                                                        "children": [],
                                                        "depth": 4,
                                                        "id": 12,
                                                        "order": 12
                                                    }
                                                ],
                                                "depth": 3,
                                                "id": 10,
                                                "order": 10
                                            }
                                        ],
                                        "depth": 2,
                                        "id": 6,
                                        "order": 6
                                    },
                                    {
                                        "children": [],
                                        "depth": 2,
                                        "id": 14,
                                        "order": 14
                                    }
                                ],
                                "depth": 1,
                                "id": 2,
                                "order": 2
                            }
                        ],
                        "depth": 0,
                        "id": 0,
                        "order": 0
                    }
                ],
                "depth": -1,
                "id": -1,
                "order": -1
            }
        ],
        "tidyTraceNodeCount": 9
    },
    "state_change": {
        "stateChanges": [
            {
                "address": "0x1c98562a2fab5af19d8fb3291a36ac3c618835d9",
                "erc": "",
                "slots": [
                    {
                        "current": "0x010000000000000000000a95f208403ac4c0b3d4edfffcb272abaa3065a00e7b",
                        "key": "0x0000000000000000000000000000000000000000000000000000000000000042",
                        "prev": "0x010000000000000000000a95e45ae57012ba7ab93efffcb284736400659fea03"
                    },
                    {
                        "current": "0x0000000000000000000000000000000000000000000002aac995ad26c4cde07e",
                        "key": "0x0000000000000000000000000000000000000000000000000000000000000004",
                        "prev": "0x0000000000000000000000000000000000000000000002aac9959d26c4cde07e"
                    },
                    {
                        "current": "0x00000000000000000000000000000006c476b472610ca53f5de07aad500e2d39",
                        "key": "0x0000000000000000000000000000000000000000000000000000000000000001",
                        "prev": "0x00000000000000000000000000000006c4761cb65aa1b8238bd58595ee9f4e7c"
                    },
                    {
                        "current": "0x00010000500050003aff81e3000000000000000032f55698e71fb65b0296dac8",
                        "key": "0x0000000000000000000000000000000000000000000000000000000000000000",
                        "prev": "0x000100005000500039ff81ee000000000000000032fd25db067c891903b0576a"
                    },
                    {
                        "current": "0x000000000000000000000000000000000419faca2325d3f3ff031a08247dbeec",
                        "key": "0xdd347b3961df89c3c62db56c83af72c21b301ae90d1a0f886947a312799c0792",
                        "prev": "0x00000000000000000000000000000006c05c7a666e05a34f84b33a3d4fe29b0c"
                    },
                    {
                        "current": "0x00000000000000000000000000000000002b215c91220d02e7731aa3704cc886",
                        "key": "0xdd347b3961df89c3c62db56c83af72c21b301ae90d1a0f886947a312799c0793",
                        "prev": "0x00000000000000000000000000000000220c17575e3a9c3735e7c6f52a6755a8"
                    },
                    {
                        "current": "0x01000228a80000000000000000000000cbf802e9ec5c6ea770fffffef293c7a4",
                        "key": "0xdd347b3961df89c3c62db56c83af72c21b301ae90d1a0f886947a312799c0794",
                        "prev": "0x01659de5d30000000000000000000a9526103d50d864452d7dfffcb38017e28c"
                    }
                ],
                "storageVariables": []
            },
            {
                "address": "0x9e32b13ce7f2e80a01932b42553652e053d6ed8e",
                "erc": "ERC-20",
                "slots": [
                    {
                        "current": "0x00000000000000000000000000000000000000000000002f2befc00d1ef2a6c8",
                        "key": "0x77ec85202c97b615e1a77879198d2e480402ee422a193e09728fe47299bea09f",
                        "prev": "0x0000000000000000000000000000000000000000000000313ae2b2ce572c86c7"
                    },
                    {
                        "current": "0x00000000000000000000000000000000000000000000069e2cbdde4a51e2e62f",
                        "key": "0x7783e0979ae10dc9a52376541aa862a6ece32c7c19d42600912da6f689efc293",
                        "prev": "0x00000000000000000000000000000000000000000000069c1dcaeb8919a90630"
                    },
                    {
                        "current": "0xffffffffffffffffffffffffffffffffffffffffffffd8b42c145061c753eac7",
                        "key": "0x434e160981be0c6799f652324a1175eb271aaaf02b00e297a93aeb94b5d694b4",
                        "prev": "0xffffffffffffffffffffffffffffffffffffffffffffd8b63b074322ff8dcac6"
                    }
                ],
                "storageVariables": [
                    {
                        "name": "_balances",
                        "type": "mapping(address => uint256)",
                        "value": {
                            "pairs": [
                                {
                                    "key": "0x1c98562a2fab5af19d8fb3291a36ac3c618835d9",
                                    "value": {
                                        "current": "31252008438183030351407",
                                        "prev": "31214037759863030351408",
                                        "typeTag": 1
                                    }
                                },
                                {
                                    "key": "0xc5d4ec9300be6da89a3db305c415c7cd3cbb7e8e",
                                    "value": {
                                        "current": "870162931690000000712",
                                        "prev": "908133610010000000711",
                                        "typeTag": 1
                                    }
                                }
                            ],
                            "typeTag": 4
                        }
                    },
                    {
                        "name": "_allowances",
                        "type": "mapping(address => mapping(address => uint256))",
                        "value": {
                            "pairs": [
                                {
                                    "key": "0xc5d4ec9300be6da89a3db305c415c7cd3cbb7e8e",
                                    "value": {
                                        "pairs": [
                                            {
                                                "key": "0x99b1817acb40e76c309e26b2face9da9eff55317",
                                                "value": {
                                                    "current": "115792089237316195423570985008687907853269984665640563853886514878413129640647",
                                                    "prev": "115792089237316195423570985008687907853269984665640563853924485556733129640646",
                                                    "typeTag": 1
                                                }
                                            }
                                        ],
                                        "typeTag": 4
                                    }
                                }
                            ],
                            "typeTag": 4
                        }
                    }
                ]
            },
            {
                "address": "0xc02aaa39b223fe8d0a0e5c4f27ead9083c756cc2",
                "erc": "ERC-20",
                "slots": [
                    {
                        "current": "0x000000000000000000000000000000000000000000000001d175531ca90b3e83",
                        "key": "0xaf0f95b8d4a9cd896f16273f268aaf6b1b983a7dd46fc90a4c8dc7ae04ed0f98",
                        "prev": "0x000000000000000000000000000000000000000000000001bca106a990486022"
                    },
                    {
                        "current": "0x00000000000000000000000000000000000000000000003d24db379bb1ad9e5e",
                        "key": "0x97396b6b99745726caa6c49125ad6a29a6e463aab929d4551c71908db42469e2",
                        "prev": "0x00000000000000000000000000000000000000000000003d39af840eca707cbf"
                    }
                ],
                "storageVariables": [
                    {
                        "name": "balanceOf",
                        "type": "mapping(address => uint256)",
                        "value": {
                            "pairs": [
                                {
                                    "key": "0x1c98562a2fab5af19d8fb3291a36ac3c618835d9",
                                    "value": {
                                        "current": "1127907166043388091998",
                                        "prev": "1129408074676429683903",
                                        "typeTag": 1
                                    }
                                },
                                {
                                    "key": "0xc5d4ec9300be6da89a3db305c415c7cd3cbb7e8e",
                                    "value": {
                                        "current": "33539805182471913091",
                                        "prev": "32038896549430321186",
                                        "typeTag": 1
                                    }
                                }
                            ],
                            "typeTag": 4
                        }
                    }
                ]
            }
        ]
    }
}