{
    "balance_change": {
        "balanceChanges": [
            {
                "account": "0x3f5ce5fbfe3e9af3971dd833d26ba9b5c936f0be",
                "assets": [
                    {
                        "address": "0x744d70fdbe2ba4cf95131626614a1763df805b9e",
                        "amount": "9,947.7662",
                        "iconUrl": "https://assets.blocksec.com/icon/122cbce3f18317d2e72ada02bb0ad90b741b42246dc91c7b27b8eb5443557bd4.png",
                        "isERC1155": false,
                        "isERC721": false,
                        "sign": false,
                        "value": ""
                    }
                ]
            },
            {
                "account": "0x26afbfff695e4ec52ec956fd0b9c5e636580064f",
                "assets": [
                    {
                        "address": "0x744d70fdbe2ba4cf95131626614a1763df805b9e",
                        "amount": "9,947.7662",
                        "iconUrl": "https://assets.blocksec.com/icon/122cbce3f18317d2e72ada02bb0ad90b741b42246dc91c7b27b8eb5443557bd4.png",
                        "isERC1155": false,
                        "isERC721": false,
                        "sign": true,
                        "value": ""
                    }
                ]
            }
        ]
    },
    "profile": {
        "basic_info": {
            "baseFee": "",
            "blockNumber": 9729935,
            "callData": "0xa9059cbb00000000000000000000000026afbfff695e4ec52ec956fd0b9c5e636580064f00000000000000000000000000000000000000000000021b44fd0d6035738000",
            "debugEnable": true,
            "errorInfo": "",
            "eventCount": 1,
            "feeRecipient": "0x00192fb10df37c9fb26829eb2cc623cd1bf599e8",
            "formatValue": "0",
            "gasLimit": 207128,
            "gasPrice": "80",
            "gasUsed": 118711,
            "intTxnCount": 1,
            "internalRevert": false,
            "internalRevertMessage": "",
            "isContractCreation": false,
            "isFlashloan": false,
            "maxFee": "",
            "nonce": 3895452,
            "overwritedBlockNumber": -1,
            "priorityFee": "",
            "receiver": "0x744d70fdbe2ba4cf95131626614a1763df805b9e",
            "revertMessage": "",
            "sender": "0x3f5ce5fbfe3e9af3971dd833d26ba9b5c936f0be",
            "simulationEnable": true,
            "sourceTxnHash": "0x698398f6a18ab51a43421b5c1673ba74e64d6b42ba1ae9be5b16a6ae38b405a4",
            "status": true,
            "timestamp": "2020-03-23T20:41:21Z",
            "transactionFee": "0.00949688",
            "txnHash": "0x698398f6a18ab51a43421b5c1673ba74e64d6b42ba1ae9be5b16a6ae38b405a4",
            "txnIndex": 7,
            "type": 0,
            "value": "0"
        },
        "fund_flow": [
            {
                "amount": "9,947.7662",
                "from": "0x3f5ce5fbfe3e9af3971dd833d26ba9b5c936f0be",
                "id": 1,
                "isERC1155": false,
                "isERC721": false,
                "isReverted": false,
                "order": 1,
                "to": "0x26afbfff695e4ec52ec956fd0b9c5e636580064f",
                "token": "0x744d70fdbe2ba4cf95131626614a1763df805b9e"
            }
        ],
        "token_infos": [
            {
                "address": "0xeeeeeeeeeeeeeeeeeeeeeeeeeeeeeeeeeeeeeeee",
                "decimals": 18
            },
            {
                "address": "0x744d70fdbe2ba4cf95131626614a1763df805b9e",
                "decimals": 18
            },
            {
                "address": "0xc02aaa39b223fe8d0a0e5c4f27ead9083c756cc2",
                "decimals": 18
            }
        ]
    },
    "address_label": {
        "labels": [
            {
                "address": "0x52ae2b53c847327f95a5084a7c38c0adb12fd302",
                "label": "SNTPlaceHolder"
            },
            {
                "address": "0x744d70fdbe2ba4cf95131626614a1763df805b9e",
                "label": "Status Network: SNT Token"
            },
            {
                "address": "0x3f5ce5fbfe3e9af3971dd833d26ba9b5c936f0be",
                "label": "Binance"
            },
            {
                "address": "0x0000000000000000000000000000000000000001",
                "label": "Precompiled"
            },
            {
                "address": "0x0000000000000000000000000000000000000002",
                "label": "Precompiled"
            },
            {
                "address": "0x0000000000000000000000000000000000000003",
                "label": "Precompiled"
            },
            {
                "address": "0x0000000000000000000000000000000000000004",
                "label": "Precompiled"
            },
            {
                "address": "0xeeeeeeeeeeeeeeeeeeeeeeeeeeeeeeeeeeeeeeee",
                "label": "Ether"
            }
        ]
    },
    "trace": {
        "accountLabels": null,
        "dataMap": {
            "-1": {
                "invocation": {
                    "address": "0x3f5ce5fbfe3e9af3971dd833d26ba9b5c936f0be",
                    "callData": "",
                    "decodedMethod": null,
                    "errorInfo": "",
                    "fromAddress": "",
                    "gasUsed": 0,
                    "id": -1,
                    "methodDecoded": false,
                    "operation": "",
                    "output": "",
                    "revert": false,
                    "revertMessage": "",
                    "selector": "",
                    "status": false,
                    "value": ""
                },
                "nodeType": 0
            },
            "0": {
                "invocation": {
                    "address": "0x744d70fdbe2ba4cf95131626614a1763df805b9e",
                    "callData": "0x00000000000000000000000026afbfff695e4ec52ec956fd0b9c5e636580064f00000000000000000000000000000000000000000000021b44fd0d6035738000",
                    "decodedMethod": {
                        "callParams": [
                            {
                                "name": "_to",
                                "type": "address",
                                "value": "0x26afbfff695e4ec52ec956fd0b9c5e636580064f"
                            },
                            {
                                "decimalAvailable": true,
                                "name": "_amount",
                                "type": "uint256",
                                "value": "9,947,766,200,000,000,000,000"
                            }
                        ],
                        "constructorArguments": "",
                        "name": "transfer",
                        "returnParams": [
                            {
                                "name": "success",
                                "type": "bool",
                                "value": true
                            }
                        ],
                        "signature": "transfer(address,uint256)"
                    },
                    "errorInfo": "",
                    "fromAddress": "0x3f5ce5fbfe3e9af3971dd833d26ba9b5c936f0be",
                    "gasUsed": 118711,
                    "id": 0,
                    "methodDecoded": true,
                    "operation": "CALL",
                    "output": "0x0000000000000000000000000000000000000000000000000000000000000001",
                    "revert": false,
                    "revertMessage": "",
                    "selector": "0xa9059cbb",
                    "status": true,
                    "value": "0"
                },
                "nodeType": 0
            },
            "1": {
                "invocation": {
                    "address": "0x52ae2b53c847327f95a5084a7c38c0adb12fd302",
                    "callData": "0x0000000000000000000000003f5ce5fbfe3e9af3971dd833d26ba9b5c936f0be00000000000000000000000026afbfff695e4ec52ec956fd0b9c5e636580064f00000000000000000000000000000000000000000000021b44fd0d6035738000",
                    "decodedMethod": {
                        "callParams": [
                            {
                                "name": "_from",
                                "type": "address",
                                "value": "0x3f5ce5fbfe3e9af3971dd833d26ba9b5c936f0be"
                            },
                            {
                                "name": "",
                                "type": "address",
                                "value": "0x26afbfff695e4ec52ec956fd0b9c5e636580064f"
                            },
                            {
                                "name": "",
                                "type": "uint256",
                                "value": "9,947,766,200,000,000,000,000"
                            }
                        ],
                        "constructorArguments": "",
                        "name": "onTransfer",
                        "returnParams": [
                            {
                                "name": "",
                                "type": "bool",
                                "value": true
                            }
                        ],
                        "signature": "onTransfer(address,address,uint256)"
                    },
                    "errorInfo": "",
                    "fromAddress": "0x744d70fdbe2ba4cf95131626614a1763df805b9e",
                    "gasUsed": 2069,
                    "id": 1,
                    "methodDecoded": true,
                    "operation": "CALL",
                    "output": "0x0000000000000000000000000000000000000000000000000000000000000001",
                    "revert": false,
                    "revertMessage": "",
                    "selector": "0x4a393149",
                    "status": true,
                    "value": "0"
                },
                "nodeType": 0
            },
            "2": {
                "event": {
                    "contract": "0x744d70fdbe2ba4cf95131626614a1763df805b9e",
                    "decodedLog": {
                        "name": "Transfer",
                        "params": [
                            {
                                "name": "_from",
                                "type": "address",
                                "value": "0x3f5ce5fbfe3e9af3971dd833d26ba9b5c936f0be"
                            },
                            {
                                "name": "_to",
                                "type": "address",
                                "value": "0x26afbfff695e4ec52ec956fd0b9c5e636580064f"
                            },
                            {
                                "decimalAvailable": true,
                                "name": "_amount",
                                "type": "uint256",
                                "value": "9,947,766,200,000,000,000,000"
                            }
                        ],
                        "signature": "Transfer(address,address,uint256)"
                    },
                    "id": 2,
                    "logData": "0x00000000000000000000000000000000000000000000021b44fd0d6035738000",
                    "logDecoded": true,
                    "operation": "EVENT",
                    "revert": false,
                    "status": true,
                    "topics": [
                        "0xddf252ad1be2c89b69c2b068fc378daa952ba7f163c4a11628f55a4df523b3ef",
                        "0x0000000000000000000000003f5ce5fbfe3e9af3971dd833d26ba9b5c936f0be",
                        "0x00000000000000000000000026afbfff695e4ec52ec956fd0b9c5e636580064f"
                    ]
                },
                "nodeType": 1
            }
        },
        "gasFlame": [
            {
                "children": [
                    {
                        "children": [
                            {
                                "children": [],
                                "depth": 0,
                                "name": "Initial Gas",
                                "value": 21668
                            },
                            {
                                "children": [
                                    {
                                        "children": [],
                                        "depth": 1,
                                        "name": "onTransfer",
                                        "value": 2069
                                    }
                                ],
                                "depth": 0,
                                "name": "Executed Gas",
                                "value": 97043
                            }
                        ],
                        "depth": -1,
                        "name": "Actual Gas Used",
                        "value": 118711
                    },
                    {
                        "children": [],
                        "depth": -1,
                        "name": "Refunded Gas",
                        "value": 0
                    }
                ],
                "depth": -2,
                "name": "Total Gas",
                "value": 118711
            }
        ],
        "isConfirmed": true,
        "mainTrace": [
            {
                "children": [
                    {
                        "children": [
                            {
                                "children": [],
                                "depth": 1,
                                "id": 1,
                                "order": 1
                            },
                            {
                                "children": [],
                                "depth": 1,
                                "id": 2,
                                "order": 2
                            }
                        ],
                        "depth": 0,
                        "id": 0,
                        "order": 0
                    }
                ],
                "depth": -1,
                "id": -1,
                "order": -1
            }
        ],
        "mainTraceNodeCount": 3,
        "parentIdMap": {
            "0": -1,
            "1": 0,
            "2": 0
        },
        "tidyTrace": [
            {
                "children": [
                    {
                        "children": [
                            {
                                "children": [],
                                "depth": 1,
                                "id": 1,
                                "order": 1
                            },
                            {
                                "children": [],
                                "depth": 1,
                                "id": 2,
                                "order": 2
                            }
                        ],
                        "depth": 0,
                        "id": 0,
                        "order": 0
                    }
                ],
                "depth": -1,
                "id": -1,
                "order": -1
            }
        ],
        "tidyTraceNodeCount": 3
    },
    "state_change": {
        "stateChanges": [
            {
                "address": "0x744d70fdbe2ba4cf95131626614a1763df805b9e",
                "erc": "ERC-20",
                "slots": [
                    {
                        "current": "0x00000000000c1ba7fa4e7f4ac6c9f5250000000000000000000000000094778f",
                        "key": "0x31f44d42cfb92ddefa5c163b50199441fb1bc29b3b92956d9008f3c3293d0d2f",
                        "prev": "0x0000000000000000000000000000000000000000000000000000000000000000"
                    },
                    {
                        "current": "0x0000000000000000000000000000000000000000000000000000000000000001",
                        "key": "0xe18d199ffc21c9f7c9045c4795948d4b9d62138f2fe0e8e8660e324530d3a99e",
                        "prev": "0x0000000000000000000000000000000000000000000000000000000000000000"
                    },
                    {
                        "current": "0x000000000000021b44fd0d60357380000000000000000000000000000094778f",
                        "key": "0xedd02cf6d980cfdc3c63671b8631342f657260d7961fa04c2feb0c1c7c669e90",
                        "prev": "0x0000000000000000000000000000000000000000000000000000000000000000"
                    },
                    {
                        "current": "0x000000000000000000000000000000000000000000000000000000000000a0e8",
                        "key": "0xc820bd960974b013d8f77904ec9b2cdb83c5b044cc11ab585fd408745ae25782",
                        "prev": "0x000000000000000000000000000000000000000000000000000000000000a0e7"
                    }
                ],
                "storageVariables": []
            }
        ]
    }
}