{
    "balance_change": {
        "balanceChanges": []
    },
    "profile": {
        "basic_info": {
            "baseFee": "",
            "blockNumber": 10550721,
            "callData": "0x4ab0d190fae5051b002b69c8b10571a82d93194e53c0a20a8d8fcae48071cf1794cf9bbf0000000000000000000000000000000000000000000000000de0b6b3a7640000000000000000000000000000f79d6afbb6da890132f9d7c355e3015f15f3406f6a9705b400000000000000000000000000000000000000000000000000000000000000000000000000000000000000000000000000000000000000005f20a86b00000000000000000000000000000000000000000000000000000007693e3180",
            "debugEnable": true,
            "errorInfo": "",
            "eventCount": 2,
            "feeRecipient": "0x5a0b54d5dc17e0aadc383d2db43b0a0d3e029c4c",
            "formatValue": "0",
            "gasLimit": 500000,
            "gasPrice": "44.1",
            "gasUsed": 42385,
            "intTxnCount": 1,
            "internalRevert": false,
            "internalRevertMessage": "",
            "isContractCreation": false,
            "isFlashloan": false,
            "maxFee": "",
            "nonce": 115696,
            "overwritedBlockNumber": -1,
            "priorityFee": "",
            "receiver": "0x8cfb1d4269f0daa003cdea567ac8f76c0647764a",
            "revertMessage": "",
            "sender": "0xaaeed1e72a10214c705467316779272e4ba78433",
            "simulationEnable": true,
            "sourceTxnHash": "0x698a6bee0187c6607e0b527921ced612da09e6694fae0e56e91365dd0ecbe4b7",
            "status": true,
            "timestamp": "2020-07-28T22:31:35Z",
            "transactionFee": "0.0018691785",
            "txnHash": "0x698a6bee0187c6607e0b527921ced612da09e6694fae0e56e91365dd0ecbe4b7",
            "txnIndex": 35,
            "type": 0,
            "value": "0"
        },
        "fund_flow": [],
        "token_infos": [
            {
                "address": "0xeeeeeeeeeeeeeeeeeeeeeeeeeeeeeeeeeeeeeeee",
                "decimals": 18
            },
            {
                "address": "0xc02aaa39b223fe8d0a0e5c4f27ead9083c756cc2",
                "decimals": 18
            }
        ]
    },
    "address_label": {
        "labels": [
            {
                "address": "0x0000000000000000000000000000000000000004",
                "label": "Precompiled"
            },
            {
                "address": "0xeeeeeeeeeeeeeeeeeeeeeeeeeeeeeeeeeeeeeeee",
                "label": "Ether"
            },
            {
                "address": "0xf79d6afbb6da890132f9d7c355e3015f15f3406f",
                "label": "Chainlink: ETH / USD Aggregator"
            },
            {
                "address": "0x8cfb1d4269f0daa003cdea567ac8f76c0647764a",
                "label": "Oracle"
            },
            {
                "address": "0x0000000000000000000000000000000000000001",
                "label": "Precompiled"
            },
            {
                "address": "0x0000000000000000000000000000000000000002",
                "label": "Precompiled"
            },
            {
                "address": "0x0000000000000000000000000000000000000003",
                "label": "Precompiled"
            }
        ]
    },
    "trace": {
        "accountLabels": null,
        "dataMap": {
            "-1": {
                "invocation": {
                    "address": "0xaaeed1e72a10214c705467316779272e4ba78433",
                    "callData": "",
                    "decodedMethod": null,
                    "errorInfo": "",
                    "fromAddress": "",
                    "gasUsed": 0,
                    "id": -1,
                    "methodDecoded": false,
                    "operation": "",
                    "output": "",
                    "revert": false,
                    "revertMessage": "",
                    "selector": "",
                    "status": false,
                    "value": ""
                },
                "nodeType": 0
            },
            "0": {
                "invocation": {
                    "address": "0x8cfb1d4269f0daa003cdea567ac8f76c0647764a",
                    "callData": "0xfae5051b002b69c8b10571a82d93194e53c0a20a8d8fcae48071cf1794cf9bbf0000000000000000000000000000000000000000000000000de0b6b3a7640000000000000000000000000000f79d6afbb6da890132f9d7c355e3015f15f3406f6a9705b400000000000000000000000000000000000000000000000000000000000000000000000000000000000000000000000000000000000000005f20a86b00000000000000000000000000000000000000000000000000000007693e3180",
                    "decodedMethod": {
                        "callParams": [
                            {
                                "name": "_requestId",
                                "type": "bytes32",
                                "value": "0xfae5051b002b69c8b10571a82d93194e53c0a20a8d8fcae48071cf1794cf9bbf"
                            },
                            {
                                "name": "_payment",
                                "type": "uint256",
                                "value": "1,000,000,000,000,000,000"
                            },
                            {
                                "name": "_callbackAddress",
                                "type": "address",
                                "value": "0xf79d6afbb6da890132f9d7c355e3015f15f3406f"
                            },
                            {
                                "name": "_callbackFunctionId",
                                "type": "bytes4",
                                "value": "0x6a9705b4"
                            },
                            {
                                "name": "_expiration",
                                "type": "uint256",
                                "value": "1,595,975,787"
                            },
                            {
                                "name": "_data",
                                "type": "bytes32",
                                "value": "0x00000000000000000000000000000000000000000000000000000007693e3180"
                            }
                        ],
                        "constructorArguments": "",
                        "name": "fulfillOracleRequest",
                        "returnParams": [
                            {
                                "name": "",
                                "type": "bool",
                                "value": true
                            }
                        ],
                        "signature": "fulfillOracleRequest(bytes32,uint256,address,bytes4,uint256,bytes32)"
                    },
                    "errorInfo": "",
                    "fromAddress": "0xaaeed1e72a10214c705467316779272e4ba78433",
                    "gasUsed": 42385,
                    "id": 0,
                    "methodDecoded": true,
                    "operation": "CALL",
                    "output": "0x0000000000000000000000000000000000000000000000000000000000000001",
                    "revert": false,
                    "revertMessage": "",
                    "selector": "0x4ab0d190",
                    "status": true,
                    "value": "0"
                },
                "nodeType": 0
            },
            "1": {
                "invocation": {
                    "address": "0xf79d6afbb6da890132f9d7c355e3015f15f3406f",
                    "callData": "0xfae5051b002b69c8b10571a82d93194e53c0a20a8d8fcae48071cf1794cf9bbf00000000000000000000000000000000000000000000000000000007693e3180",
                    "decodedMethod": {
                        "callParams": [
                            {
                                "name": "_clRequestId",
                                "type": "bytes32",
                                "value": "0xfae5051b002b69c8b10571a82d93194e53c0a20a8d8fcae48071cf1794cf9bbf"
                            },
                            {
                                "name": "_response",
                                "type": "int256",
                                "value": "31,830,454,656"
                            }
                        ],
                        "constructorArguments": "",
                        "name": "chainlinkCallback",
                        "returnParams": [],
                        "signature": "chainlinkCallback(bytes32,int256)"
                    },
                    "errorInfo": "",
                    "fromAddress": "0x8cfb1d4269f0daa003cdea567ac8f76c0647764a",
                    "gasUsed": 46292,
                    "id": 1,
                    "methodDecoded": true,
                    "operation": "CALL",
                    "output": "",
                    "revert": false,
                    "revertMessage": "",
                    "selector": "0x6a9705b4",
                    "status": true,
                    "value": "0"
                },
                "nodeType": 0
            },
            "2": {
                "event": {
                    "contract": "0xf79d6afbb6da890132f9d7c355e3015f15f3406f",
                    "decodedLog": {
                        "name": "ChainlinkFulfilled",
                        "params": [
                            {
                                "name": "id",
                                "type": "bytes32",
                                "value": "0xfae5051b002b69c8b10571a82d93194e53c0a20a8d8fcae48071cf1794cf9bbf"
                            }
                        ],
                        "signature": "ChainlinkFulfilled(bytes32)"
                    },
                    "id": 2,
                    "logData": "0x",
                    "logDecoded": true,
                    "operation": "EVENT",
                    "revert": false,
                    "status": true,
                    "topics": [
                        "0x7cc135e0cebb02c3480ae5d74d377283180a2601f8f644edf7987b009316c63a",
                        "0xfae5051b002b69c8b10571a82d93194e53c0a20a8d8fcae48071cf1794cf9bbf"
                    ]
                },
                "nodeType": 1
            },
            "3": {
                "event": {
                    "contract": "0xf79d6afbb6da890132f9d7c355e3015f15f3406f",
                    "decodedLog": {
                        "name": "ResponseReceived",
                        "params": [
                            {
                                "name": "response",
                                "type": "int256",
                                "value": "31,830,454,656"
                            },
                            {
                                "name": "answerId",
                                "type": "uint256",
                                "value": "2,668"
                            },
                            {
                                "name": "sender",
                                "type": "address",
                                "value": "0x8cfb1d4269f0daa003cdea567ac8f76c0647764a"
                            }
                        ],
                        "signature": "ResponseReceived(int256,uint256,address)"
                    },
                    "id": 3,
                    "logData": "0x",
                    "logDecoded": true,
                    "operation": "EVENT",
                    "revert": false,
                    "status": true,
                    "topics": [
                        "0xb51168059c83c860caf5b830c5d2e64c2172c6fb2fe9f25447d9838e18d93b60",
                        "0x00000000000000000000000000000000000000000000000000000007693e3180",
                        "0x0000000000000000000000000000000000000000000000000000000000000a6c",
                        "0x0000000000000000000000008cfb1d4269f0daa003cdea567ac8f76c0647764a"
                    ]
                },
                "nodeType": 1
            }
        },
        "gasFlame": [
            {
                "children": [
                    {
                        "children": [
                            {
                                "children": [],
                                "depth": 0,
                                "name": "Initial Gas",
                                "value": 22672
                            },
                            {
                                "children": [
                                    {
                                        "children": [],
                                        "depth": 1,
                                        "name": "chainlinkCallback",
                                        "value": 46292
                                    }
                                ],
                                "depth": 0,
                                "name": "Executed Gas",
                                "value": 62098
                            }
                        ],
                        "depth": -1,
                        "name": "Actual Gas Used",
                        "value": 42385
                    },
                    {
                        "children": [],
                        "depth": -1,
                        "name": "Refunded Gas",
                        "value": 42385
                    }
                ],
                "depth": -2,
                "name": "Total Gas",
                "value": 84770
            }
        ],
        "isConfirmed": true,
        "mainTrace": [
            {
                "children": [
                    {
                        "children": [
                            {
                                "children": [
                                    {
                                        "children": [],
                                        "depth": 2,
                                        "id": 2,
                                        "order": 2
                                    },
                                    {
                                        "children": [],
                                        "depth": 2,
                                        "id": 3,
                                        "order": 3
                                    }
                                ],
                                "depth": 1,
                                "id": 1,
                                "order": 1
                            }
                        ],
                        "depth": 0,
                        "id": 0,
                        "order": 0
                    }
                ],
                "depth": -1,
                "id": -1,
                "order": -1
            }
        ],
        "mainTraceNodeCount": 4,
        "parentIdMap": {
            "0": -1,
            "1": 0,
            "2": 1,
            "3": 1
        },
        "tidyTrace": [
            {
                "children": [
                    {
                        "children": [
                            {
                                "children": [
                                    {
                                        "children": [],
                                        "depth": 2,
                                        "id": 2,
                                        "order": 2
                                    },
                                    {
                                        "children": [],
                                        "depth": 2,
                                        "id": 3,
                                        "order": 3
                                    }
                                ],
                                "depth": 1,
                                "id": 1,
                                "order": 1
                            }
                        ],
                        "depth": 0,
                        "id": 0,
                        "order": 0
                    }
                ],
                "depth": -1,
                "id": -1,
                "order": -1
            }
        ],
        "tidyTraceNodeCount": 4
    },
    "state_change": {
        "stateChanges": [
            {
                "address": "0x8cfb1d4269f0daa003cdea567ac8f76c0647764a",
                "erc": "",
                "slots": [
                    {
                        "current": "0x0000000000000000000000000000000000000000000000807d80b35590deabb7",
                        "key": "0x0000000000000000000000000000000000000000000000000000000000000004",
                        "prev": "0x0000000000000000000000000000000000000000000000806f9ffca1e97aabb7"
                    },
                    {
                        "current": "0x0000000000000000000000000000000000000000000000000000000000000000",
                        "key": "0xd5defc042ec14b05ae553c16a3af0f9fd1d29faf179c20e25597bce2c7ef9176",
                        "prev": "0x4889c16b47f73b6d518e076eebfde87546cc035e5b41fc80a291979fd9579a26"
                    }
                ],
                "storageVariables": [
                    {
                        "name": "commitments",
                        "type": "mapping(bytes32 => bytes32)",
                        "value": {
                            "pairs": [
                                {
                                    "key": "0xfae5051b002b69c8b10571a82d93194e53c0a20a8d8fcae48071cf1794cf9bbf",
                                    "value": {
                                        "current": "0x0000000000000000000000000000000000000000000000000000000000000000",
                                        "prev": "0x4889c16b47f73b6d518e076eebfde87546cc035e5b41fc80a291979fd9579a26",
                                        "typeTag": 1
                                    }
                                }
                            ],
                            "typeTag": 4
                        }
                    },
                    {
                        "name": "withdrawableTokens",
                        "type": "uint256",
                        "value": {
                            "current": "2370226666666666666935",
                            "prev": "2369226666666666666935",
                            "typeTag": 1
                        }
                    }
                ]
            },
            {
                "address": "0xf79d6afbb6da890132f9d7c355e3015f15f3406f",
                "erc": "",
                "slots": [
                    {
                        "current": "0x0000000000000000000000000000000000000000000000000000000000000000",
                        "key": "0x4edc4132dc944d310e6aae60492efe32a6024c116e6c6090a3224c58ec7d2165",
                        "prev": "0x0000000000000000000000008cfb1d4269f0daa003cdea567ac8f76c0647764a"
                    },
                    {
                        "current": "0x0000000000000000000000000000000000000000000000000000000000000000",
                        "key": "0xe4a53190602d307b406e422fd099bdd22d356157369ae4949448f07423c42304",
                        "prev": "0x0000000000000000000000000000000000000000000000000000000000000a6c"
                    },
                    {
                        "current": "0x0000000000000000000000000000000000000000000000000000000000000004",
                        "key": "0xa6e0bbcab53137685436cdc20d71bae42fd873645a6758d156cf9d6e0c1df792",
                        "prev": "0x0000000000000000000000000000000000000000000000000000000000000003"
                    },
                    {
                        "current": "0x00000000000000000000000000000000000000000000000000000007693e3180",
                        "key": "0x964b2151d6270513836ef614256a89a93f8e73fde62e36a9597307d068dd6371",
                        "prev": "0x0000000000000000000000000000000000000000000000000000000000000000"
                    }
                ],
                "storageVariables": [
                    {
                        "name": "requestAnswers",
                        "type": "mapping(bytes32 => uint256)",
                        "value": {
                            "pairs": [
                                {
                                    "key": "0xfae5051b002b69c8b10571a82d93194e53c0a20a8d8fcae48071cf1794cf9bbf",
                                    "value": {
                                        "current": "0",
                                        "prev": "2668",
                                        "typeTag": 1
                                    }
                                }
                            ],
                            "typeTag": 4
                        }
                    },
                    {
                        "name": "answers",
                        "type": "mapping(uint256 => struct Aggregator.Answer)",
                        "value": {
                            "pairs": [
                                {
                                    "key": "2668",
                                    "value": {
                                        "fields": [
                                            {
                                                "name": "responses",
                                                "type": "int256[]",
                                                "value": {
                                                    "elemType": "int256",
                                                    "elems": [
                                                        {
                                                            "index": 3,
                                                            "value": {
                                                                "current": "31830454656",
                                                                "prev": "0",
                                                                "typeTag": 1
                                                            }
                                                        }
                                                    ],
                                                    "typeTag": 2
                                                }
                                            }
                                        ],
                                        "typeTag": 3
                                    }
                                }
                            ],
                            "typeTag": 4
                        }
                    },
                    {
                        "name": "pendingRequests",
                        "type": "mapping(bytes32 => address)",
                        "value": {
                            "pairs": [
                                {
                                    "key": "0xfae5051b002b69c8b10571a82d93194e53c0a20a8d8fcae48071cf1794cf9bbf",
                                    "value": {
                                        "current": "0x0000000000000000000000000000000000000000",
                                        "prev": "0x8cfb1d4269f0daa003cdea567ac8f76c0647764a",
                                        "typeTag": 1
                                    }
                                }
                            ],
                            "typeTag": 4
                        }
                    }
                ]
            }
        ]
    }
}