{
    "balance_change": {
        "balanceChanges": [
            {
                "account": "0x4f901c69c9f7d2fd2e6f1e931557b7339da043d5",
                "assets": [
                    {
                        "address": "0x891f460176f180836f53b729ffb27cfcc7d74d71",
                        "amount": "9,238.202",
                        "iconUrl": "",
                        "isERC1155": false,
                        "isERC721": false,
                        "sign": false,
                        "value": ""
                    }
                ]
            },
            {
                "account": "0xb11c411b2e646a2f9ccd8e32902def97b7d96b93",
                "assets": [
                    {
                        "address": "0x891f460176f180836f53b729ffb27cfcc7d74d71",
                        "amount": "9,238.202",
                        "iconUrl": "",
                        "isERC1155": false,
                        "isERC721": false,
                        "sign": true,
                        "value": ""
                    }
                ]
            }
        ]
    },
    "profile": {
        "basic_info": {
            "baseFee": "",
            "blockNumber": 6863980,
            "callData": "0xa9059cbb000000000000000000000000b11c411b2e646a2f9ccd8e32902def97b7d96b930000000000000000000000000000000000000000000001f4cdce9ce877390000",
            "debugEnable": true,
            "errorInfo": "",
            "eventCount": 1,
            "feeRecipient": "0x5a0b54d5dc17e0aadc383d2db43b0a0d3e029c4c",
            "formatValue": "0",
            "gasLimit": 90000,
            "gasPrice": "5",
            "gasUsed": 21706,
            "intTxnCount": 0,
            "internalRevert": false,
            "internalRevertMessage": "",
            "isContractCreation": false,
            "isFlashloan": false,
            "maxFee": "",
            "nonce": 0,
            "overwritedBlockNumber": -1,
            "priorityFee": "",
            "receiver": "0x891f460176f180836f53b729ffb27cfcc7d74d71",
            "revertMessage": "",
            "sender": "0x4f901c69c9f7d2fd2e6f1e931557b7339da043d5",
            "simulationEnable": true,
            "sourceTxnHash": "0x69efc5aef2d04c987eed8544f72769910af03f30123900119e10b698c2a0236f",
            "status": true,
            "timestamp": "2018-12-11T00:50:20Z",
            "transactionFee": "0.00010853",
            "txnHash": "0x69efc5aef2d04c987eed8544f72769910af03f30123900119e10b698c2a0236f",
            "txnIndex": 96,
            "type": 0,
            "value": "0"
        },
        "fund_flow": [
            {
                "amount": "9,238.202",
                "from": "0x4f901c69c9f7d2fd2e6f1e931557b7339da043d5",
                "id": 1,
                "isERC1155": false,
                "isERC721": false,
                "isReverted": false,
                "order": 1,
                "to": "0xb11c411b2e646a2f9ccd8e32902def97b7d96b93",
                "token": "0x891f460176f180836f53b729ffb27cfcc7d74d71"
            }
        ],
        "token_infos": [
            {
                "address": "0x891f460176f180836f53b729ffb27cfcc7d74d71",
                "decimals": 18
            },
            {
                "address": "0xc02aaa39b223fe8d0a0e5c4f27ead9083c756cc2",
                "decimals": 18
            },
            {
                "address": "0xeeeeeeeeeeeeeeeeeeeeeeeeeeeeeeeeeeeeeeee",
                "decimals": 18
            }
        ]
    },
    "address_label": {
        "labels": [
            {
                "address": "0x0000000000000000000000000000000000000004",
                "label": "Precompiled"
            },
            {
                "address": "0xeeeeeeeeeeeeeeeeeeeeeeeeeeeeeeeeeeeeeeee",
                "label": "Ether"
            },
            {
                "address": "0x891f460176f180836f53b729ffb27cfcc7d74d71",
                "label": "VRT CHAIN TOKEN (VRT)"
            },
            {
                "address": "0x0000000000000000000000000000000000000001",
                "label": "Precompiled"
            },
            {
                "address": "0x0000000000000000000000000000000000000002",
                "label": "Precompiled"
            },
            {
                "address": "0x0000000000000000000000000000000000000003",
                "label": "Precompiled"
            }
        ]
    },
    "trace": {
        "accountLabels": null,
        "dataMap": {
            "-1": {
                "invocation": {
                    "address": "0x4f901c69c9f7d2fd2e6f1e931557b7339da043d5",
                    "callData": "",
                    "decodedMethod": null,
                    "errorInfo": "",
                    "fromAddress": "",
                    "gasUsed": 0,
                    "id": -1,
                    "methodDecoded": false,
                    "operation": "",
                    "output": "",
                    "revert": false,
                    "revertMessage": "",
                    "selector": "",
                    "status": false,
                    "value": ""
                },
                "nodeType": 0
            },
            "0": {
                "invocation": {
                    "address": "0x891f460176f180836f53b729ffb27cfcc7d74d71",
                    "callData": "0x000000000000000000000000b11c411b2e646a2f9ccd8e32902def97b7d96b930000000000000000000000000000000000000000000001f4cdce9ce877390000",
                    "decodedMethod": {
                        "callParams": [
                            {
                                "name": "_to",
                                "type": "address",
                                "value": "0xb11c411b2e646a2f9ccd8e32902def97b7d96b93"
                            },
                            {
                                "decimalAvailable": true,
                                "name": "_value",
                                "type": "uint256",
                                "value": "9,238,202,000,000,000,000,000"
                            }
                        ],
                        "constructorArguments": "",
                        "name": "transfer",
                        "returnParams": [
                            {
                                "name": "success",
                                "type": "bool",
                                "value": true
                            }
                        ],
                        "signature": "transfer(address,uint256)"
                    },
                    "errorInfo": "",
                    "fromAddress": "0x4f901c69c9f7d2fd2e6f1e931557b7339da043d5",
                    "gasUsed": 21706,
                    "id": 0,
                    "methodDecoded": true,
                    "operation": "CALL",
                    "output": "0x0000000000000000000000000000000000000000000000000000000000000001",
                    "revert": false,
                    "revertMessage": "",
                    "selector": "0xa9059cbb",
                    "status": true,
                    "value": "0"
                },
                "nodeType": 0
            },
            "1": {
                "event": {
                    "contract": "0x891f460176f180836f53b729ffb27cfcc7d74d71",
                    "decodedLog": {
                        "name": "Transfer",
                        "params": [
                            {
                                "name": "_from",
                                "type": "address",
                                "value": "0x4f901c69c9f7d2fd2e6f1e931557b7339da043d5"
                            },
                            {
                                "name": "_to",
                                "type": "address",
                                "value": "0xb11c411b2e646a2f9ccd8e32902def97b7d96b93"
                            },
                            {
                                "decimalAvailable": true,
                                "name": "_value",
                                "type": "uint256",
                                "value": "9,238,202,000,000,000,000,000"
                            }
                        ],
                        "signature": "Transfer(address,address,uint256)"
                    },
                    "id": 1,
                    "logData": "0x0000000000000000000000000000000000000000000001f4cdce9ce877390000",
                    "logDecoded": true,
                    "operation": "EVENT",
                    "revert": false,
                    "status": true,
                    "topics": [
                        "0xddf252ad1be2c89b69c2b068fc378daa952ba7f163c4a11628f55a4df523b3ef",
                        "0x0000000000000000000000004f901c69c9f7d2fd2e6f1e931557b7339da043d5",
                        "0x000000000000000000000000b11c411b2e646a2f9ccd8e32902def97b7d96b93"
                    ]
                },
                "nodeType": 1
            }
        },
        "gasFlame": [
            {
                "children": [
                    {
                        "children": [
                            {
                                "children": [],
                                "depth": 0,
                                "name": "Initial Gas",
                                "value": 23320
                            },
                            {
                                "children": [],
                                "depth": 0,
                                "name": "Executed Gas",
                                "value": 13386
                            }
                        ],
                        "depth": -1,
                        "name": "Actual Gas Used",
                        "value": 21706
                    },
                    {
                        "children": [],
                        "depth": -1,
                        "name": "Refunded Gas",
                        "value": 15000
                    }
                ],
                "depth": -2,
                "name": "Total Gas",
                "value": 36706
            }
        ],
        "isConfirmed": true,
        "mainTrace": [
            {
                "children": [
                    {
                        "children": [
                            {
                                "children": [],
                                "depth": 1,
                                "id": 1,
                                "order": 1
                            }
                        ],
                        "depth": 0,
                        "id": 0,
                        "order": 0
                    }
                ],
                "depth": -1,
                "id": -1,
                "order": -1
            }
        ],
        "mainTraceNodeCount": 2,
        "parentIdMap": {
            "0": -1,
            "1": 0
        },
        "tidyTrace": [
            {
                "children": [
                    {
                        "children": [
                            {
                                "children": [],
                                "depth": 1,
                                "id": 1,
                                "order": 1
                            }
                        ],
                        "depth": 0,
                        "id": 0,
                        "order": 0
                    }
                ],
                "depth": -1,
                "id": -1,
                "order": -1
            }
        ],
        "tidyTraceNodeCount": 2
    },
    "state_change": {
        "stateChanges": [
            {
                "address": "0x891f460176f180836f53b729ffb27cfcc7d74d71",
                "erc": "ERC-20",
                "slots": [
                    {
                        "current": "0x0000000000000000000000000000000000000000000000000000000000000000",
                        "key": "0x55f2483734b805b47f5eb365132e443e74fe61bb4c60f021abede4203026699f",
                        "prev": "0x0000000000000000000000000000000000000000000001f4cdce9ce877390000"
                    },
                    {
                        "current": "0x000000000000000000000000000000000000000000c40d8531a25771f2a6fea6",
                        "key": "0x6be5bd847f1d1c3ae2d36a694e5708968032453b05ec1f0a67b78d56f7ac6593",
                        "prev": "0x000000000000000000000000000000000000000000c40b9063d3ba897b6dfea6"
                    }
                ],
                "storageVariables": [
                    {
                        "name": "balances",
                        "type": "mapping(address => uint256)",
                        "value": {
                            "pairs": [
                                {
                                    "key": "0x4f901c69c9f7d2fd2e6f1e931557b7339da043d5",
                                    "value": {
                                        "current": "0",
                                        "prev": "9238202000000000000000",
                                        "typeTag": 1
                                    }
                                },
                                {
                                    "key": "0xb11c411b2e646a2f9ccd8e32902def97b7d96b93",
                                    "value": {
                                        "current": "237013308402223628000100006",
                                        "prev": "237004070200223628000100006",
                                        "typeTag": 1
                                    }
                                }
                            ],
                            "typeTag": 4
                        }
                    }
                ]
            }
        ]
    }
}