{
    "balance_change": {
        "balanceChanges": [
            {
                "account": "0x34769f2cbc2061df35b3c5940631256e350e77bf",
                "assets": [
                    {
                        "address": "0x69c4bb240cf05d51eeab6985bab35527d04a8c64",
                        "amount": "194.4851",
                        "iconUrl": "",
                        "isERC1155": false,
                        "isERC721": false,
                        "sign": false,
                        "value": ""
                    }
                ]
            },
            {
                "account": "0xbc1568f0ab7521afe99bca7965dd381dddc4472d",
                "assets": [
                    {
                        "address": "0x69c4bb240cf05d51eeab6985bab35527d04a8c64",
                        "amount": "194.4851",
                        "iconUrl": "",
                        "isERC1155": false,
                        "isERC721": false,
                        "sign": true,
                        "value": ""
                    }
                ]
            }
        ]
    },
    "profile": {
        "basic_info": {
            "baseFee": "",
            "blockNumber": 5858341,
            "callData": "0xa9059cbb000000000000000000000000bc1568f0ab7521afe99bca7965dd381dddc4472d000000000000000000000000000000000000000000000000000000048738b630",
            "debugEnable": true,
            "errorInfo": "",
            "eventCount": 1,
            "feeRecipient": "0xea674fdde714fd979de3edf0f56aa9716b898ec8",
            "formatValue": "0",
            "gasLimit": 75000,
            "gasPrice": "5",
            "gasUsed": 51983,
            "intTxnCount": 0,
            "internalRevert": false,
            "internalRevertMessage": "",
            "isContractCreation": false,
            "isFlashloan": false,
            "maxFee": "",
            "nonce": 43,
            "overwritedBlockNumber": -1,
            "priorityFee": "",
            "receiver": "0x69c4bb240cf05d51eeab6985bab35527d04a8c64",
            "revertMessage": "",
            "sender": "0x34769f2cbc2061df35b3c5940631256e350e77bf",
            "simulationEnable": true,
            "sourceTxnHash": "0x692269952d16545a0e65f87c7f178974fa9be513edde02162e7e502c11f8e6a1",
            "status": true,
            "timestamp": "2018-06-26T16:09:03Z",
            "transactionFee": "0.000259915",
            "txnHash": "0x692269952d16545a0e65f87c7f178974fa9be513edde02162e7e502c11f8e6a1",
            "txnIndex": 121,
            "type": 0,
            "value": "0"
        },
        "fund_flow": [
            {
                "amount": "194.4851",
                "from": "0x34769f2cbc2061df35b3c5940631256e350e77bf",
                "id": 1,
                "isERC1155": false,
                "isERC721": false,
                "isReverted": false,
                "order": 1,
                "to": "0xbc1568f0ab7521afe99bca7965dd381dddc4472d",
                "token": "0x69c4bb240cf05d51eeab6985bab35527d04a8c64"
            }
        ],
        "token_infos": [
            {
                "address": "0x69c4bb240cf05d51eeab6985bab35527d04a8c64",
                "decimals": 8
            },
            {
                "address": "0xc02aaa39b223fe8d0a0e5c4f27ead9083c756cc2",
                "decimals": 18
            },
            {
                "address": "0xeeeeeeeeeeeeeeeeeeeeeeeeeeeeeeeeeeeeeeee",
                "decimals": 18
            }
        ]
    },
    "address_label": {
        "labels": [
            {
                "address": "0xeeeeeeeeeeeeeeeeeeeeeeeeeeeeeeeeeeeeeeee",
                "label": "Ether"
            },
            {
                "address": "0x69c4bb240cf05d51eeab6985bab35527d04a8c64",
                "label": "Open Chain: Old Token"
            },
            {
                "address": "0x0000000000000000000000000000000000000001",
                "label": "Precompiled"
            },
            {
                "address": "0x0000000000000000000000000000000000000002",
                "label": "Precompiled"
            },
            {
                "address": "0x0000000000000000000000000000000000000003",
                "label": "Precompiled"
            },
            {
                "address": "0x0000000000000000000000000000000000000004",
                "label": "Precompiled"
            }
        ]
    },
    "trace": {
        "accountLabels": null,
        "dataMap": {
            "-1": {
                "invocation": {
                    "address": "0x34769f2cbc2061df35b3c5940631256e350e77bf",
                    "callData": "",
                    "decodedMethod": null,
                    "errorInfo": "",
                    "fromAddress": "",
                    "gasUsed": 0,
                    "id": -1,
                    "methodDecoded": false,
                    "operation": "",
                    "output": "",
                    "revert": false,
                    "revertMessage": "",
                    "selector": "",
                    "status": false,
                    "value": ""
                },
                "nodeType": 0
            },
            "0": {
                "invocation": {
                    "address": "0x69c4bb240cf05d51eeab6985bab35527d04a8c64",
                    "callData": "0x000000000000000000000000bc1568f0ab7521afe99bca7965dd381dddc4472d000000000000000000000000000000000000000000000000000000048738b630",
                    "decodedMethod": {
                        "callParams": [
                            {
                                "name": "_to",
                                "type": "address",
                                "value": "0xbc1568f0ab7521afe99bca7965dd381dddc4472d"
                            },
                            {
                                "decimalAvailable": true,
                                "name": "_value",
                                "type": "uint256",
                                "value": "19,448,510,000"
                            }
                        ],
                        "constructorArguments": "",
                        "name": "transfer",
                        "returnParams": [
                            {
                                "name": "",
                                "type": "bool",
                                "value": true
                            }
                        ],
                        "signature": "transfer(address,uint256)"
                    },
                    "errorInfo": "",
                    "fromAddress": "0x34769f2cbc2061df35b3c5940631256e350e77bf",
                    "gasUsed": 51983,
                    "id": 0,
                    "methodDecoded": true,
                    "operation": "CALL",
                    "output": "0x0000000000000000000000000000000000000000000000000000000000000001",
                    "revert": false,
                    "revertMessage": "",
                    "selector": "0xa9059cbb",
                    "status": true,
                    "value": "0"
                },
                "nodeType": 0
            },
            "1": {
                "event": {
                    "contract": "0x69c4bb240cf05d51eeab6985bab35527d04a8c64",
                    "decodedLog": {
                        "name": "Transfer",
                        "params": [
                            {
                                "name": "from",
                                "type": "address",
                                "value": "0x34769f2cbc2061df35b3c5940631256e350e77bf"
                            },
                            {
                                "name": "to",
                                "type": "address",
                                "value": "0xbc1568f0ab7521afe99bca7965dd381dddc4472d"
                            },
                            {
                                "decimalAvailable": true,
                                "name": "value",
                                "type": "uint256",
                                "value": "19,448,510,000"
                            }
                        ],
                        "signature": "Transfer(address,address,uint256)"
                    },
                    "id": 1,
                    "logData": "0x000000000000000000000000000000000000000000000000000000048738b630",
                    "logDecoded": true,
                    "operation": "EVENT",
                    "revert": false,
                    "status": true,
                    "topics": [
                        "0xddf252ad1be2c89b69c2b068fc378daa952ba7f163c4a11628f55a4df523b3ef",
                        "0x00000000000000000000000034769f2cbc2061df35b3c5940631256e350e77bf",
                        "0x000000000000000000000000bc1568f0ab7521afe99bca7965dd381dddc4472d"
                    ]
                },
                "nodeType": 1
            }
        },
        "gasFlame": [
            {
                "children": [
                    {
                        "children": [
                            {
                                "children": [],
                                "depth": 0,
                                "name": "Initial Gas",
                                "value": 23128
                            },
                            {
                                "children": [],
                                "depth": 0,
                                "name": "Executed Gas",
                                "value": 28855
                            }
                        ],
                        "depth": -1,
                        "name": "Actual Gas Used",
                        "value": 51983
                    },
                    {
                        "children": [],
                        "depth": -1,
                        "name": "Refunded Gas",
                        "value": 0
                    }
                ],
                "depth": -2,
                "name": "Total Gas",
                "value": 51983
            }
        ],
        "isConfirmed": true,
        "mainTrace": [
            {
                "children": [
                    {
                        "children": [
                            {
                                "children": [],
                                "depth": 1,
                                "id": 1,
                                "order": 1
                            }
                        ],
                        "depth": 0,
                        "id": 0,
                        "order": 0
                    }
                ],
                "depth": -1,
                "id": -1,
                "order": -1
            }
        ],
        "mainTraceNodeCount": 2,
        "parentIdMap": {
            "0": -1,
            "1": 0
        },
        "tidyTrace": [
            {
                "children": [
                    {
                        "children": [
                            {
                                "children": [],
                                "depth": 1,
                                "id": 1,
                                "order": 1
                            }
                        ],
                        "depth": 0,
                        "id": 0,
                        "order": 0
                    }
                ],
                "depth": -1,
                "id": -1,
                "order": -1
            }
        ],
        "tidyTraceNodeCount": 2
    },
    "state_change": {
        "stateChanges": [
            {
                "address": "0x69c4bb240cf05d51eeab6985bab35527d04a8c64",
                "erc": "ERC-20",
                "slots": [
                    {
                        "current": "0x00000000000000000000000000000000000000000000000000000168a39c3530",
                        "key": "0x30e554382c7a7f772b7be0b7010a341cef982527635b3d8d98bdbc76643d718c",
                        "prev": "0x0000000000000000000000000000000000000000000000000000016d2ad4eb60"
                    },
                    {
                        "current": "0x000000000000000000000000000000000000000000000000000000048738b630",
                        "key": "0x93579432400877f7462f1b5eaef6c85d0068a8237ebf0a5846248a940ad20e3a",
                        "prev": "0x0000000000000000000000000000000000000000000000000000000000000000"
                    }
                ],
                "storageVariables": [
                    {
                        "name": "balances",
                        "type": "mapping(address => uint256)",
                        "value": {
                            "pairs": [
                                {
                                    "key": "0x34769f2cbc2061df35b3c5940631256e350e77bf",
                                    "value": {
                                        "current": "1548933150000",
                                        "prev": "1568381660000",
                                        "typeTag": 1
                                    }
                                },
                                {
                                    "key": "0xbc1568f0ab7521afe99bca7965dd381dddc4472d",
                                    "value": {
                                        "current": "19448510000",
                                        "prev": "0",
                                        "typeTag": 1
                                    }
                                }
                            ],
                            "typeTag": 4
                        }
                    }
                ]
            }
        ]
    }
}