{
    "balance_change": {
        "balanceChanges": [
            {
                "account": "0xac050b4aadd13a7f61e62c0aacb28bbff75e7eca",
                "assets": [
                    {
                        "address": "0xf6993caf303752dd53a6ebb1cf802d2e6fee6f47",
                        "amount": "100,000,000",
                        "iconUrl": "",
                        "isERC1155": false,
                        "isERC721": false,
                        "sign": true,
                        "value": ""
                    }
                ]
            },
            {
                "account": "0xf6993caf303752dd53a6ebb1cf802d2e6fee6f47",
                "assets": [
                    {
                        "address": "0xf6993caf303752dd53a6ebb1cf802d2e6fee6f47",
                        "amount": "100,000,000",
                        "iconUrl": "",
                        "isERC1155": false,
                        "isERC721": false,
                        "sign": false,
                        "value": ""
                    }
                ]
            }
        ]
    },
    "profile": {
        "basic_info": {
            "baseFee": "",
            "blockNumber": 9112509,
            "callData": "0x069f5bdd0000000000000000000000000000000000000000000000000000000000000000",
            "debugEnable": true,
            "errorInfo": "",
            "eventCount": 1,
            "feeRecipient": "0x04668ec2f57cc15c381b461b9fedab5d451c8f7f",
            "formatValue": "0",
            "gasLimit": 52947,
            "gasPrice": "3",
            "gasUsed": 47947,
            "intTxnCount": 0,
            "internalRevert": false,
            "internalRevertMessage": "",
            "isContractCreation": false,
            "isFlashloan": false,
            "maxFee": "",
            "nonce": 53,
            "overwritedBlockNumber": -1,
            "priorityFee": "",
            "receiver": "0xf6993caf303752dd53a6ebb1cf802d2e6fee6f47",
            "revertMessage": "",
            "sender": "0xac050b4aadd13a7f61e62c0aacb28bbff75e7eca",
            "simulationEnable": true,
            "sourceTxnHash": "0x6a45fd5731832799e36d2f5366ec58c656e1fb28d83ef6c8e65bba8104c2e085",
            "status": true,
            "timestamp": "2019-12-15T22:23:25Z",
            "transactionFee": "0.000143841",
            "txnHash": "0x6a45fd5731832799e36d2f5366ec58c656e1fb28d83ef6c8e65bba8104c2e085",
            "txnIndex": 2,
            "type": 0,
            "value": "0"
        },
        "fund_flow": [
            {
                "amount": "100,000,000",
                "from": "0xf6993caf303752dd53a6ebb1cf802d2e6fee6f47",
                "id": 1,
                "isERC1155": false,
                "isERC721": false,
                "isReverted": false,
                "order": 1,
                "to": "0xac050b4aadd13a7f61e62c0aacb28bbff75e7eca",
                "token": "0xf6993caf303752dd53a6ebb1cf802d2e6fee6f47"
            }
        ],
        "token_infos": [
            {
                "address": "0xc02aaa39b223fe8d0a0e5c4f27ead9083c756cc2",
                "decimals": 18
            },
            {
                "address": "0xf6993caf303752dd53a6ebb1cf802d2e6fee6f47",
                "decimals": 6
            },
            {
                "address": "0xeeeeeeeeeeeeeeeeeeeeeeeeeeeeeeeeeeeeeeee",
                "decimals": 18
            }
        ]
    },
    "address_label": {
        "labels": [
            {
                "address": "0x0000000000000000000000000000000000000003",
                "label": "Precompiled"
            },
            {
                "address": "0x0000000000000000000000000000000000000004",
                "label": "Precompiled"
            },
            {
                "address": "0xeeeeeeeeeeeeeeeeeeeeeeeeeeeeeeeeeeeeeeee",
                "label": "Ether"
            },
            {
                "address": "0x0000000000000000000000000000000000000000",
                "label": "Null Address"
            },
            {
                "address": "0xf6993caf303752dd53a6ebb1cf802d2e6fee6f47",
                "label": "VXRC"
            },
            {
                "address": "0x0000000000000000000000000000000000000001",
                "label": "Precompiled"
            },
            {
                "address": "0x0000000000000000000000000000000000000002",
                "label": "Precompiled"
            }
        ]
    },
    "trace": {
        "accountLabels": null,
        "dataMap": {
            "-1": {
                "invocation": {
                    "address": "0xac050b4aadd13a7f61e62c0aacb28bbff75e7eca",
                    "callData": "",
                    "decodedMethod": null,
                    "errorInfo": "",
                    "fromAddress": "",
                    "gasUsed": 0,
                    "id": -1,
                    "methodDecoded": false,
                    "operation": "",
                    "output": "",
                    "revert": false,
                    "revertMessage": "",
                    "selector": "",
                    "status": false,
                    "value": ""
                },
                "nodeType": 0
            },
            "0": {
                "invocation": {
                    "address": "0xf6993caf303752dd53a6ebb1cf802d2e6fee6f47",
                    "callData": "0x0000000000000000000000000000000000000000000000000000000000000000",
                    "decodedMethod": {
                        "callParams": [
                            {
                                "name": "_refer",
                                "type": "address",
                                "value": "0x0000000000000000000000000000000000000000"
                            }
                        ],
                        "constructorArguments": "",
                        "name": "getAirdrop",
                        "returnParams": [
                            {
                                "name": "success",
                                "type": "bool",
                                "value": true
                            }
                        ],
                        "signature": "getAirdrop(address)"
                    },
                    "errorInfo": "",
                    "fromAddress": "0xac050b4aadd13a7f61e62c0aacb28bbff75e7eca",
                    "gasUsed": 47947,
                    "id": 0,
                    "methodDecoded": true,
                    "operation": "CALL",
                    "output": "0x0000000000000000000000000000000000000000000000000000000000000001",
                    "revert": false,
                    "revertMessage": "",
                    "selector": "0x069f5bdd",
                    "status": true,
                    "value": "0"
                },
                "nodeType": 0
            },
            "1": {
                "event": {
                    "contract": "0xf6993caf303752dd53a6ebb1cf802d2e6fee6f47",
                    "decodedLog": {
                        "name": "Transfer",
                        "params": [
                            {
                                "name": "from",
                                "type": "address",
                                "value": "0xf6993caf303752dd53a6ebb1cf802d2e6fee6f47"
                            },
                            {
                                "name": "to",
                                "type": "address",
                                "value": "0xac050b4aadd13a7f61e62c0aacb28bbff75e7eca"
                            },
                            {
                                "decimalAvailable": true,
                                "name": "tokens",
                                "type": "uint256",
                                "value": "100,000,000,000,000"
                            }
                        ],
                        "signature": "Transfer(address,address,uint256)"
                    },
                    "id": 1,
                    "logData": "0x00000000000000000000000000000000000000000000000000005af3107a4000",
                    "logDecoded": true,
                    "operation": "EVENT",
                    "revert": false,
                    "status": true,
                    "topics": [
                        "0xddf252ad1be2c89b69c2b068fc378daa952ba7f163c4a11628f55a4df523b3ef",
                        "0x000000000000000000000000f6993caf303752dd53a6ebb1cf802d2e6fee6f47",
                        "0x000000000000000000000000ac050b4aadd13a7f61e62c0aacb28bbff75e7eca"
                    ]
                },
                "nodeType": 1
            }
        },
        "gasFlame": [
            {
                "children": [
                    {
                        "children": [
                            {
                                "children": [],
                                "depth": 0,
                                "name": "Initial Gas",
                                "value": 21192
                            },
                            {
                                "children": [],
                                "depth": 0,
                                "name": "Executed Gas",
                                "value": 26755
                            }
                        ],
                        "depth": -1,
                        "name": "Actual Gas Used",
                        "value": 47947
                    },
                    {
                        "children": [],
                        "depth": -1,
                        "name": "Refunded Gas",
                        "value": 0
                    }
                ],
                "depth": -2,
                "name": "Total Gas",
                "value": 47947
            }
        ],
        "isConfirmed": true,
        "mainTrace": [
            {
                "children": [
                    {
                        "children": [
                            {
                                "children": [],
                                "depth": 1,
                                "id": 1,
                                "order": 1
                            }
                        ],
                        "depth": 0,
                        "id": 0,
                        "order": 0
                    }
                ],
                "depth": -1,
                "id": -1,
                "order": -1
            }
        ],
        "mainTraceNodeCount": 2,
        "parentIdMap": {
            "0": -1,
            "1": 0
        },
        "tidyTrace": [
            {
                "children": [
                    {
                        "children": [
                            {
                                "children": [],
                                "depth": 1,
                                "id": 1,
                                "order": 1
                            }
                        ],
                        "depth": 0,
                        "id": 0,
                        "order": 0
                    }
                ],
                "depth": -1,
                "id": -1,
                "order": -1
            }
        ],
        "tidyTraceNodeCount": 2
    },
    "state_change": {
        "stateChanges": [
            {
                "address": "0xf6993caf303752dd53a6ebb1cf802d2e6fee6f47",
                "erc": "ERC-20",
                "slots": [
                    {
                        "current": "0x000000000000000000000000000000000000000000000000000000000000077c",
                        "key": "0x000000000000000000000000000000000000000000000000000000000000000b",
                        "prev": "0x000000000000000000000000000000000000000000000000000000000000077b"
                    },
                    {
                        "current": "0x000000000000000000000000000000000000000000c9f2c8acce36dc5e7e0000",
                        "key": "0xd4ef5c347c0c57651b48aa0ddb1fa34811da5afb3deda7c44533539fed91c3ac",
                        "prev": "0x000000000000000000000000000000000000000000c9f2c8acce91cf6ef84000"
                    },
                    {
                        "current": "0x0000000000000000000000000000000000000000000000000003328b944c4000",
                        "key": "0x3f98c2652336c457f931edef141c5922f3c795e255e9c21ac0c2a56cbd20512e",
                        "prev": "0x0000000000000000000000000000000000000000000000000002d79883d20000"
                    }
                ],
                "storageVariables": [
                    {
                        "name": "aTot",
                        "type": "uint256",
                        "value": {
                            "current": "1916",
                            "prev": "1915",
                            "typeTag": 1
                        }
                    },
                    {
                        "name": "balances",
                        "type": "mapping(address => uint256)",
                        "value": {
                            "pairs": [
                                {
                                    "key": "0xac050b4aadd13a7f61e62c0aacb28bbff75e7eca",
                                    "value": {
                                        "current": "900000000000000",
                                        "prev": "800000000000000",
                                        "typeTag": 1
                                    }
                                },
                                {
                                    "key": "0xf6993caf303752dd53a6ebb1cf802d2e6fee6f47",
                                    "value": {
                                        "current": "244140604232160000000000000",
                                        "prev": "244140604232260000000000000",
                                        "typeTag": 1
                                    }
                                }
                            ],
                            "typeTag": 4
                        }
                    }
                ]
            }
        ]
    }
}