{
    "balance_change": {
        "balanceChanges": [
            {
                "account": "0xaf01d0e71ce300df968a83922b721fee7afe6174",
                "assets": [
                    {
                        "address": "0x14fee680690900ba0cccfc76ad70fd1b95d10e16",
                        "amount": "6,169.683807069",
                        "iconUrl": "",
                        "isERC1155": false,
                        "isERC721": false,
                        "sign": false,
                        "value": "147.4554429873000068"
                    },
                    {
                        "address": "0x6d8f7ac13e8c2944d27e0f9bc6aa0122f2ec1384",
                        "amount": "8,448.32117342214227999",
                        "iconUrl": "",
                        "isERC1155": false,
                        "isERC721": false,
                        "sign": true,
                        "value": "136.0007692"
                    }
                ]
            },
            {
                "account": "0x14fee680690900ba0cccfc76ad70fd1b95d10e16",
                "assets": [
                    {
                        "address": "0x14fee680690900ba0cccfc76ad70fd1b95d10e16",
                        "amount": "246.787352282",
                        "iconUrl": "",
                        "isERC1155": false,
                        "isERC721": false,
                        "sign": true,
                        "value": "5.8982177199700002728"
                    }
                ]
            },
            {
                "account": "0x2a6c340bcbb0a79d3deecd3bc5cbc2605ea9259f",
                "assets": [
                    {
                        "address": "0x14fee680690900ba0cccfc76ad70fd1b95d10e16",
                        "amount": "5,922.896454787",
                        "iconUrl": "",
                        "isERC1155": false,
                        "isERC721": false,
                        "sign": true,
                        "value": "141.55722527450000654"
                    },
                    {
                        "address": "0xc02aaa39b223fe8d0a0e5c4f27ead9083c756cc2",
                        "amount": "0.089356216799306204",
                        "iconUrl": "https://assets.blocksec.com/icon/f1cb2d02c471d545bbc7722daf3277fd852d98e63d118771af7047bd8256c516.png",
                        "isERC1155": false,
                        "isERC721": false,
                        "sign": false,
                        "value": "144.96616476331199268"
                    }
                ]
            },
            {
                "account": "0x6d8f7ac13e8c2944d27e0f9bc6aa0122f2ec1384",
                "assets": [
                    {
                        "address": "0x6d8f7ac13e8c2944d27e0f9bc6aa0122f2ec1384",
                        "amount": "444.648482811691698946",
                        "iconUrl": "",
                        "isERC1155": false,
                        "isERC721": false,
                        "sign": true,
                        "value": "7.10959101"
                    }
                ]
            },
            {
                "account": "0xef9a557f2e29512c6954036b3147a4f35558488a",
                "assets": [
                    {
                        "address": "0xc02aaa39b223fe8d0a0e5c4f27ead9083c756cc2",
                        "amount": "0.089356216799306204",
                        "iconUrl": "https://assets.blocksec.com/icon/f1cb2d02c471d545bbc7722daf3277fd852d98e63d118771af7047bd8256c516.png",
                        "isERC1155": false,
                        "isERC721": false,
                        "sign": true,
                        "value": "144.96616476331199268"
                    },
                    {
                        "address": "0x6d8f7ac13e8c2944d27e0f9bc6aa0122f2ec1384",
                        "amount": "8,892.969656233833978936",
                        "iconUrl": "",
                        "isERC1155": false,
                        "isERC721": false,
                        "sign": false,
                        "value": "142.5295422"
                    }
                ]
            }
        ]
    },
    "profile": {
        "basic_info": {
            "baseFee": "9.336189797",
            "blockNumber": 18108454,
            "callData": "0x3593564c000000000000000000000000000000000000000000000000000000000000006000000000000000000000000000000000000000000000000000000000000000a00000000000000000000000000000000000000000000000000000000064fe303b0000000000000000000000000000000000000000000000000000000000000001080000000000000000000000000000000000000000000000000000000000000000000000000000000000000000000000000000000000000000000000000000010000000000000000000000000000000000000000000000000000000000000020000000000000000000000000000000000000000000000000000000000000012000000000000000000000000000000000000000000000000000000000000000010000000000000000000000000000000000000000000000000000059c7dcfcb5d0000000000000000000000000000000000000000000001ba65ffb3af948b5d2900000000000000000000000000000000000000000000000000000000000000a00000000000000000000000000000000000000000000000000000000000000001000000000000000000000000000000000000000000000000000000000000000300000000000000000000000014fee680690900ba0cccfc76ad70fd1b95d10e16000000000000000000000000c02aaa39b223fe8d0a0e5c4f27ead9083c756cc20000000000000000000000006d8f7ac13e8c2944d27e0f9bc6aa0122f2ec1384",
            "debugEnable": true,
            "errorInfo": "",
            "eventCount": 9,
            "feeRecipient": "0xdafea492d9c6733ae3d56b7ed1adb60692c98bc5",
            "formatValue": "0",
            "gasLimit": 316670,
            "gasPrice": "9.436189797",
            "gasUsed": 248494,
            "intTxnCount": 16,
            "internalRevert": false,
            "internalRevertMessage": "",
            "isContractCreation": false,
            "isFlashloan": false,
            "maxFee": "12.601164941",
            "nonce": 427,
            "overwritedBlockNumber": -1,
            "priorityFee": "0.1",
            "receiver": "0x3fc91a3afd70395cd496c647d5a6cc9d4b2b7fad",
            "revertMessage": "",
            "sender": "0xaf01d0e71ce300df968a83922b721fee7afe6174",
            "simulationEnable": true,
            "sourceTxnHash": "0x6af358534138eb9cd190938b9b943bec0a50d3763477527fc5bcc4b89f444a52",
            "status": true,
            "timestamp": "2023-09-10T20:48:59Z",
            "transactionFee": "0.002344836547415718",
            "txnHash": "0x6af358534138eb9cd190938b9b943bec0a50d3763477527fc5bcc4b89f444a52",
            "txnIndex": 54,
            "type": 2,
            "value": "0"
        },
        "fund_flow": [
            {
                "amount": "246.787352282",
                "from": "0xaf01d0e71ce300df968a83922b721fee7afe6174",
                "id": 1,
                "isERC1155": false,
                "isERC721": false,
                "isReverted": false,
                "order": 1,
                "to": "0x14fee680690900ba0cccfc76ad70fd1b95d10e16",
                "token": "0x14fee680690900ba0cccfc76ad70fd1b95d10e16"
            },
            {
                "amount": "5,922.896454787",
                "from": "0xaf01d0e71ce300df968a83922b721fee7afe6174",
                "id": 2,
                "isERC1155": false,
                "isERC721": false,
                "isReverted": false,
                "order": 2,
                "to": "0x2a6c340bcbb0a79d3deecd3bc5cbc2605ea9259f",
                "token": "0x14fee680690900ba0cccfc76ad70fd1b95d10e16"
            },
            {
                "amount": "0.089356216799306204",
                "from": "0x2a6c340bcbb0a79d3deecd3bc5cbc2605ea9259f",
                "id": 3,
                "isERC1155": false,
                "isERC721": false,
                "isReverted": false,
                "order": 3,
                "to": "0xef9a557f2e29512c6954036b3147a4f35558488a",
                "token": "0xc02aaa39b223fe8d0a0e5c4f27ead9083c756cc2"
            },
            {
                "amount": "444.648482811691698946",
                "from": "0xef9a557f2e29512c6954036b3147a4f35558488a",
                "id": 4,
                "isERC1155": false,
                "isERC721": false,
                "isReverted": false,
                "order": 4,
                "to": "0x6d8f7ac13e8c2944d27e0f9bc6aa0122f2ec1384",
                "token": "0x6d8f7ac13e8c2944d27e0f9bc6aa0122f2ec1384"
            },
            {
                "amount": "8,448.32117342214227999",
                "from": "0xef9a557f2e29512c6954036b3147a4f35558488a",
                "id": 5,
                "isERC1155": false,
                "isERC721": false,
                "isReverted": false,
                "order": 5,
                "to": "0xaf01d0e71ce300df968a83922b721fee7afe6174",
                "token": "0x6d8f7ac13e8c2944d27e0f9bc6aa0122f2ec1384"
            }
        ],
        "token_infos": [
            {
                "address": "0x14fee680690900ba0cccfc76ad70fd1b95d10e16",
                "decimals": 9
            },
            {
                "address": "0x6d8f7ac13e8c2944d27e0f9bc6aa0122f2ec1384",
                "decimals": 18
            },
            {
                "address": "0xc02aaa39b223fe8d0a0e5c4f27ead9083c756cc2",
                "decimals": 18
            },
            {
                "address": "0xeeeeeeeeeeeeeeeeeeeeeeeeeeeeeeeeeeeeeeee",
                "decimals": 18
            }
        ]
    },
    "address_label": {
        "labels": [
            {
                "address": "0x6d8f7ac13e8c2944d27e0f9bc6aa0122f2ec1384",
                "label": "SuperMarket (SUPER)"
            },
            {
                "address": "0x0000000000000000000000000000000000000004",
                "label": "Precompiled"
            },
            {
                "address": "0x000000000022d473030f116ddee9f6b43ac78ba3",
                "label": "Permit2"
            },
            {
                "address": "0x3fc91a3afd70395cd496c647d5a6cc9d4b2b7fad",
                "label": "Uniswap: Universal Router"
            },
            {
                "address": "0x14fee680690900ba0cccfc76ad70fd1b95d10e16",
                "label": "Paal AI: $PAAL Token"
            },
            {
                "address": "0x2a6c340bcbb0a79d3deecd3bc5cbc2605ea9259f",
                "label": "Uniswap V2: $PAAL"
            },
            {
                "address": "0x0000000000000000000000000000000000000002",
                "label": "Precompiled"
            },
            {
                "address": "0x0000000000000000000000000000000000000003",
                "label": "Precompiled"
            },
            {
                "address": "0xeeeeeeeeeeeeeeeeeeeeeeeeeeeeeeeeeeeeeeee",
                "label": "Ether"
            },
            {
                "address": "0xc02aaa39b223fe8d0a0e5c4f27ead9083c756cc2",
                "label": "Wrapped Ether (WETH)"
            },
            {
                "address": "0xef9a557f2e29512c6954036b3147a4f35558488a",
                "label": "Uniswap V2 (UNI-V2)"
            },
            {
                "address": "0x0000000000000000000000000000000000000001",
                "label": "Precompiled"
            }
        ]
    },
    "trace": {
        "accountLabels": null,
        "dataMap": {
            "-1": {
                "invocation": {
                    "address": "0xaf01d0e71ce300df968a83922b721fee7afe6174",
                    "callData": "",
                    "decodedMethod": null,
                    "errorInfo": "",
                    "fromAddress": "",
                    "gasUsed": 0,
                    "id": -1,
                    "methodDecoded": false,
                    "operation": "",
                    "output": "",
                    "revert": false,
                    "revertMessage": "",
                    "selector": "",
                    "status": false,
                    "value": ""
                },
                "nodeType": 0
            },
            "0": {
                "invocation": {
                    "address": "0x3fc91a3afd70395cd496c647d5a6cc9d4b2b7fad",
                    "callData": "0x000000000000000000000000000000000000000000000000000000000000006000000000000000000000000000000000000000000000000000000000000000a00000000000000000000000000000000000000000000000000000000064fe303b0000000000000000000000000000000000000000000000000000000000000001080000000000000000000000000000000000000000000000000000000000000000000000000000000000000000000000000000000000000000000000000000010000000000000000000000000000000000000000000000000000000000000020000000000000000000000000000000000000000000000000000000000000012000000000000000000000000000000000000000000000000000000000000000010000000000000000000000000000000000000000000000000000059c7dcfcb5d0000000000000000000000000000000000000000000001ba65ffb3af948b5d2900000000000000000000000000000000000000000000000000000000000000a00000000000000000000000000000000000000000000000000000000000000001000000000000000000000000000000000000000000000000000000000000000300000000000000000000000014fee680690900ba0cccfc76ad70fd1b95d10e16000000000000000000000000c02aaa39b223fe8d0a0e5c4f27ead9083c756cc20000000000000000000000006d8f7ac13e8c2944d27e0f9bc6aa0122f2ec1384",
                    "decodedMethod": {
                        "callParams": [
                            {
                                "name": "commands",
                                "type": "bytes",
                                "value": "0x08"
                            },
                            {
                                "name": "inputs",
                                "type": "bytes[]",
                                "value": [
                                    "0x00000000000000000000000000000000000000000000000000000000000000010000000000000000000000000000000000000000000000000000059c7dcfcb5d0000000000000000000000000000000000000000000001ba65ffb3af948b5d2900000000000000000000000000000000000000000000000000000000000000a00000000000000000000000000000000000000000000000000000000000000001000000000000000000000000000000000000000000000000000000000000000300000000000000000000000014fee680690900ba0cccfc76ad70fd1b95d10e16000000000000000000000000c02aaa39b223fe8d0a0e5c4f27ead9083c756cc20000000000000000000000006d8f7ac13e8c2944d27e0f9bc6aa0122f2ec1384"
                                ]
                            },
                            {
                                "name": "deadline",
                                "type": "uint256",
                                "value": "1,694,380,091"
                            }
                        ],
                        "constructorArguments": "",
                        "name": "execute",
                        "returnParams": [],
                        "signature": "execute(bytes,bytes[],uint256)"
                    },
                    "errorInfo": "",
                    "fromAddress": "0xaf01d0e71ce300df968a83922b721fee7afe6174",
                    "gasUsed": 248494,
                    "id": 0,
                    "methodDecoded": true,
                    "operation": "CALL",
                    "output": "",
                    "revert": false,
                    "revertMessage": "",
                    "selector": "0x3593564c",
                    "status": true,
                    "value": "0"
                },
                "nodeType": 0
            },
            "1": {
                "invocation": {
                    "address": "0x000000000022d473030f116ddee9f6b43ac78ba3",
                    "callData": "0x000000000000000000000000af01d0e71ce300df968a83922b721fee7afe61740000000000000000000000002a6c340bcbb0a79d3deecd3bc5cbc2605ea9259f0000000000000000000000000000000000000000000000000000059c7dcfcb5d00000000000000000000000014fee680690900ba0cccfc76ad70fd1b95d10e16",
                    "decodedMethod": {
                        "callParams": [
                            {
                                "name": "from",
                                "type": "address",
                                "value": "0xaf01d0e71ce300df968a83922b721fee7afe6174"
                            },
                            {
                                "name": "to",
                                "type": "address",
                                "value": "0x2a6c340bcbb0a79d3deecd3bc5cbc2605ea9259f"
                            },
                            {
                                "name": "amount",
                                "type": "uint160",
                                "value": "6,169,683,807,069"
                            },
                            {
                                "name": "token",
                                "type": "address",
                                "value": "0x14fee680690900ba0cccfc76ad70fd1b95d10e16"
                            }
                        ],
                        "constructorArguments": "",
                        "name": "transferFrom",
                        "returnParams": [],
                        "signature": "transferFrom(address,address,uint160,address)"
                    },
                    "errorInfo": "",
                    "fromAddress": "0x3fc91a3afd70395cd496c647d5a6cc9d4b2b7fad",
                    "gasUsed": 57222,
                    "id": 1,
                    "methodDecoded": true,
                    "operation": "CALL",
                    "output": "",
                    "revert": false,
                    "revertMessage": "",
                    "selector": "0x36c78516",
                    "status": true,
                    "value": "0"
                },
                "nodeType": 0
            },
            "10": {
                "event": {
                    "contract": "0xc02aaa39b223fe8d0a0e5c4f27ead9083c756cc2",
                    "decodedLog": {
                        "name": "Transfer",
                        "params": [
                            {
                                "name": "src",
                                "type": "address",
                                "value": "0x2a6c340bcbb0a79d3deecd3bc5cbc2605ea9259f"
                            },
                            {
                                "name": "dst",
                                "type": "address",
                                "value": "0xef9a557f2e29512c6954036b3147a4f35558488a"
                            },
                            {
                                "decimalAvailable": true,
                                "name": "wad",
                                "type": "uint256",
                                "value": "89,356,216,799,306,204"
                            }
                        ],
                        "signature": "Transfer(address,address,uint256)"
                    },
                    "id": 10,
                    "logData": "0x000000000000000000000000000000000000000000000000013d750178cba1dc",
                    "logDecoded": true,
                    "operation": "EVENT",
                    "revert": false,
                    "status": true,
                    "topics": [
                        "0xddf252ad1be2c89b69c2b068fc378daa952ba7f163c4a11628f55a4df523b3ef",
                        "0x0000000000000000000000002a6c340bcbb0a79d3deecd3bc5cbc2605ea9259f",
                        "0x000000000000000000000000ef9a557f2e29512c6954036b3147a4f35558488a"
                    ]
                },
                "nodeType": 1
            },
            "11": {
                "invocation": {
                    "address": "0x14fee680690900ba0cccfc76ad70fd1b95d10e16",
                    "callData": "0x0000000000000000000000002a6c340bcbb0a79d3deecd3bc5cbc2605ea9259f",
                    "decodedMethod": {
                        "callParams": [
                            {
                                "name": "account",
                                "type": "address",
                                "value": "0x2a6c340bcbb0a79d3deecd3bc5cbc2605ea9259f"
                            }
                        ],
                        "constructorArguments": "",
                        "name": "balanceOf",
                        "returnParams": [
                            {
                                "decimalAvailable": true,
                                "name": "",
                                "type": "uint256",
                                "value": "19,782,343,793,934,899"
                            }
                        ],
                        "signature": "balanceOf(address)"
                    },
                    "errorInfo": "",
                    "fromAddress": "0x2a6c340bcbb0a79d3deecd3bc5cbc2605ea9259f",
                    "gasUsed": 602,
                    "id": 11,
                    "methodDecoded": true,
                    "operation": "STATICCALL",
                    "output": "0x000000000000000000000000000000000000000000000000004647efd6a98233",
                    "revert": false,
                    "revertMessage": "",
                    "selector": "0x70a08231",
                    "status": true,
                    "value": "0"
                },
                "nodeType": 0
            },
            "12": {
                "invocation": {
                    "address": "0xc02aaa39b223fe8d0a0e5c4f27ead9083c756cc2",
                    "callData": "0x0000000000000000000000002a6c340bcbb0a79d3deecd3bc5cbc2605ea9259f",
                    "decodedMethod": {
                        "callParams": [
                            {
                                "name": "",
                                "type": "address",
                                "value": "0x2a6c340bcbb0a79d3deecd3bc5cbc2605ea9259f"
                            }
                        ],
                        "constructorArguments": "",
                        "name": "balanceOf",
                        "returnParams": [
                            {
                                "decimalAvailable": true,
                                "name": "",
                                "type": "uint256",
                                "value": "299,256,209,760,109,284,756"
                            }
                        ],
                        "signature": "balanceOf(address)"
                    },
                    "errorInfo": "",
                    "fromAddress": "0x2a6c340bcbb0a79d3deecd3bc5cbc2605ea9259f",
                    "gasUsed": 534,
                    "id": 12,
                    "methodDecoded": true,
                    "operation": "STATICCALL",
                    "output": "0x0000000000000000000000000000000000000000000000103903a13fdd194d94",
                    "revert": false,
                    "revertMessage": "",
                    "selector": "0x70a08231",
                    "status": true,
                    "value": "0"
                },
                "nodeType": 0
            },
            "13": {
                "event": {
                    "contract": "0x2a6c340bcbb0a79d3deecd3bc5cbc2605ea9259f",
                    "decodedLog": {
                        "name": "Sync",
                        "params": [
                            {
                                "name": "reserve0",
                                "type": "uint112",
                                "value": "19,782,343,793,934,899"
                            },
                            {
                                "name": "reserve1",
                                "type": "uint112",
                                "value": "299,256,209,760,109,284,756"
                            }
                        ],
                        "signature": "Sync(uint112,uint112)"
                    },
                    "id": 13,
                    "logData": "0x000000000000000000000000000000000000000000000000004647efd6a982330000000000000000000000000000000000000000000000103903a13fdd194d94",
                    "logDecoded": true,
                    "operation": "EVENT",
                    "revert": false,
                    "status": true,
                    "topics": [
                        "0x1c411e9a96e071241c2f21f7726b17ae89e3cab4c78be50e062b03a9fffbbad1"
                    ]
                },
                "nodeType": 1
            },
            "14": {
                "event": {
                    "contract": "0x2a6c340bcbb0a79d3deecd3bc5cbc2605ea9259f",
                    "decodedLog": {
                        "name": "Swap",
                        "params": [
                            {
                                "name": "sender",
                                "type": "address",
                                "value": "0x3fc91a3afd70395cd496c647d5a6cc9d4b2b7fad"
                            },
                            {
                                "name": "to",
                                "type": "address",
                                "value": "0xef9a557f2e29512c6954036b3147a4f35558488a"
                            },
                            {
                                "name": "amount0In",
                                "type": "uint256",
                                "value": "5,922,896,454,787"
                            },
                            {
                                "name": "amount1In",
                                "type": "uint256",
                                "value": "0"
                            },
                            {
                                "name": "amount0Out",
                                "type": "uint256",
                                "value": "0"
                            },
                            {
                                "name": "amount1Out",
                                "type": "uint256",
                                "value": "89,356,216,799,306,204"
                            }
                        ],
                        "signature": "Swap(address,uint256,uint256,uint256,uint256,address)"
                    },
                    "id": 14,
                    "logData": "0x000000000000000000000000000000000000000000000000000005630823a48300000000000000000000000000000000000000000000000000000000000000000000000000000000000000000000000000000000000000000000000000000000000000000000000000000000000000000000000000000000013d750178cba1dc",
                    "logDecoded": true,
                    "operation": "EVENT",
                    "revert": false,
                    "status": true,
                    "topics": [
                        "0xd78ad95fa46c994b6551d0da85fc275fe613ce37657fb8d5e3d130840159d822",
                        "0x0000000000000000000000003fc91a3afd70395cd496c647d5a6cc9d4b2b7fad",
                        "0x000000000000000000000000ef9a557f2e29512c6954036b3147a4f35558488a"
                    ]
                },
                "nodeType": 1
            },
            "15": {
                "invocation": {
                    "address": "0xef9a557f2e29512c6954036b3147a4f35558488a",
                    "callData": "0x",
                    "decodedMethod": {
                        "callParams": [],
                        "constructorArguments": "",
                        "name": "getReserves",
                        "returnParams": [
                            {
                                "name": "_reserve0",
                                "type": "uint112",
                                "value": "3,922,428,675,377,883,238,005,412"
                            },
                            {
                                "name": "_reserve1",
                                "type": "uint112",
                                "value": "39,205,086,963,607,779,477"
                            },
                            {
                                "name": "_blockTimestampLast",
                                "type": "uint32",
                                "value": "1,694,378,711"
                            }
                        ],
                        "signature": "getReserves()"
                    },
                    "errorInfo": "",
                    "fromAddress": "0x3fc91a3afd70395cd496c647d5a6cc9d4b2b7fad",
                    "gasUsed": 2504,
                    "id": 15,
                    "methodDecoded": true,
                    "operation": "STATICCALL",
                    "output": "0x000000000000000000000000000000000000000000033e9b48d92263cdfe7aa4000000000000000000000000000000000000000000000002201472e03e23b8950000000000000000000000000000000000000000000000000000000064fe2ad7",
                    "revert": false,
                    "revertMessage": "",
                    "selector": "0x0902f1ac",
                    "status": true,
                    "value": "0"
                },
                "nodeType": 0
            },
            "16": {
                "invocation": {
                    "address": "0xc02aaa39b223fe8d0a0e5c4f27ead9083c756cc2",
                    "callData": "0x000000000000000000000000ef9a557f2e29512c6954036b3147a4f35558488a",
                    "decodedMethod": {
                        "callParams": [
                            {
                                "name": "",
                                "type": "address",
                                "value": "0xef9a557f2e29512c6954036b3147a4f35558488a"
                            }
                        ],
                        "constructorArguments": "",
                        "name": "balanceOf",
                        "returnParams": [
                            {
                                "decimalAvailable": true,
                                "name": "",
                                "type": "uint256",
                                "value": "39,294,443,180,407,085,681"
                            }
                        ],
                        "signature": "balanceOf(address)"
                    },
                    "errorInfo": "",
                    "fromAddress": "0x3fc91a3afd70395cd496c647d5a6cc9d4b2b7fad",
                    "gasUsed": 534,
                    "id": 16,
                    "methodDecoded": true,
                    "operation": "STATICCALL",
                    "output": "0x0000000000000000000000000000000000000000000000022151e7e1b6ef5a71",
                    "revert": false,
                    "revertMessage": "",
                    "selector": "0x70a08231",
                    "status": true,
                    "value": "0"
                },
                "nodeType": 0
            },
            "17": {
                "invocation": {
                    "address": "0xef9a557f2e29512c6954036b3147a4f35558488a",
                    "callData": "0x0000000000000000000000000000000000000000000001e216bef15f415adc380000000000000000000000000000000000000000000000000000000000000000000000000000000000000000af01d0e71ce300df968a83922b721fee7afe617400000000000000000000000000000000000000000000000000000000000000800000000000000000000000000000000000000000000000000000000000000000",
                    "decodedMethod": {
                        "callParams": [
                            {
                                "name": "amount0Out",
                                "type": "uint256",
                                "value": "8,892,969,656,233,833,978,936"
                            },
                            {
                                "name": "amount1Out",
                                "type": "uint256",
                                "value": "0"
                            },
                            {
                                "name": "to",
                                "type": "address",
                                "value": "0xaf01d0e71ce300df968a83922b721fee7afe6174"
                            },
                            {
                                "name": "data",
                                "type": "bytes",
                                "value": "0x"
                            }
                        ],
                        "constructorArguments": "",
                        "name": "swap",
                        "returnParams": [],
                        "signature": "swap(uint256,uint256,address,bytes)"
                    },
                    "errorInfo": "",
                    "fromAddress": "0x3fc91a3afd70395cd496c647d5a6cc9d4b2b7fad",
                    "gasUsed": 96238,
                    "id": 17,
                    "methodDecoded": true,
                    "operation": "CALL",
                    "output": "",
                    "revert": false,
                    "revertMessage": "",
                    "selector": "0x022c0d9f",
                    "status": true,
                    "value": "0"
                },
                "nodeType": 0
            },
            "18": {
                "invocation": {
                    "address": "0x6d8f7ac13e8c2944d27e0f9bc6aa0122f2ec1384",
                    "callData": "0x000000000000000000000000af01d0e71ce300df968a83922b721fee7afe61740000000000000000000000000000000000000000000001e216bef15f415adc38",
                    "decodedMethod": {
                        "callParams": [
                            {
                                "name": "recipient",
                                "type": "address",
                                "value": "0xaf01d0e71ce300df968a83922b721fee7afe6174"
                            },
                            {
                                "decimalAvailable": true,
                                "name": "amount",
                                "type": "uint256",
                                "value": "8,892,969,656,233,833,978,936"
                            }
                        ],
                        "constructorArguments": "",
                        "name": "transfer",
                        "returnParams": [
                            {
                                "name": "",
                                "type": "bool",
                                "value": true
                            }
                        ],
                        "signature": "transfer(address,uint256)"
                    },
                    "errorInfo": "",
                    "fromAddress": "0xef9a557f2e29512c6954036b3147a4f35558488a",
                    "gasUsed": 63429,
                    "id": 18,
                    "methodDecoded": true,
                    "operation": "CALL",
                    "output": "0x0000000000000000000000000000000000000000000000000000000000000001",
                    "revert": false,
                    "revertMessage": "",
                    "selector": "0xa9059cbb",
                    "status": true,
                    "value": "0"
                },
                "nodeType": 0
            },
            "19": {
                "event": {
                    "contract": "0x6d8f7ac13e8c2944d27e0f9bc6aa0122f2ec1384",
                    "decodedLog": {
                        "name": "Transfer",
                        "params": [
                            {
                                "name": "from",
                                "type": "address",
                                "value": "0xef9a557f2e29512c6954036b3147a4f35558488a"
                            },
                            {
                                "name": "to",
                                "type": "address",
                                "value": "0x6d8f7ac13e8c2944d27e0f9bc6aa0122f2ec1384"
                            },
                            {
                                "decimalAvailable": true,
                                "name": "value",
                                "type": "uint256",
                                "value": "444,648,482,811,691,698,946"
                            }
                        ],
                        "signature": "Transfer(address,address,uint256)"
                    },
                    "id": 19,
                    "logData": "0x0000000000000000000000000000000000000000000000181abcbf44c3448b02",
                    "logDecoded": true,
                    "operation": "EVENT",
                    "revert": false,
                    "status": true,
                    "topics": [
                        "0xddf252ad1be2c89b69c2b068fc378daa952ba7f163c4a11628f55a4df523b3ef",
                        "0x000000000000000000000000ef9a557f2e29512c6954036b3147a4f35558488a",
                        "0x0000000000000000000000006d8f7ac13e8c2944d27e0f9bc6aa0122f2ec1384"
                    ]
                },
                "nodeType": 1
            },
            "2": {
                "invocation": {
                    "address": "0x14fee680690900ba0cccfc76ad70fd1b95d10e16",
                    "callData": "0x000000000000000000000000af01d0e71ce300df968a83922b721fee7afe61740000000000000000000000002a6c340bcbb0a79d3deecd3bc5cbc2605ea9259f0000000000000000000000000000000000000000000000000000059c7dcfcb5d",
                    "decodedMethod": {
                        "callParams": [
                            {
                                "name": "sender",
                                "type": "address",
                                "value": "0xaf01d0e71ce300df968a83922b721fee7afe6174"
                            },
                            {
                                "name": "recipient",
                                "type": "address",
                                "value": "0x2a6c340bcbb0a79d3deecd3bc5cbc2605ea9259f"
                            },
                            {
                                "decimalAvailable": true,
                                "name": "amount",
                                "type": "uint256",
                                "value": "6,169,683,807,069"
                            }
                        ],
                        "constructorArguments": "",
                        "name": "transferFrom",
                        "returnParams": [
                            {
                                "name": "",
                                "type": "bool",
                                "value": true
                            }
                        ],
                        "signature": "transferFrom(address,address,uint256)"
                    },
                    "errorInfo": "",
                    "fromAddress": "0x000000000022d473030f116ddee9f6b43ac78ba3",
                    "gasUsed": 51515,
                    "id": 2,
                    "methodDecoded": true,
                    "operation": "CALL",
                    "output": "0x0000000000000000000000000000000000000000000000000000000000000001",
                    "revert": false,
                    "revertMessage": "",
                    "selector": "0x23b872dd",
                    "status": true,
                    "value": "0"
                },
                "nodeType": 0
            },
            "20": {
                "event": {
                    "contract": "0x6d8f7ac13e8c2944d27e0f9bc6aa0122f2ec1384",
                    "decodedLog": {
                        "name": "Transfer",
                        "params": [
                            {
                                "name": "from",
                                "type": "address",
                                "value": "0xef9a557f2e29512c6954036b3147a4f35558488a"
                            },
                            {
                                "name": "to",
                                "type": "address",
                                "value": "0xaf01d0e71ce300df968a83922b721fee7afe6174"
                            },
                            {
                                "decimalAvailable": true,
                                "name": "value",
                                "type": "uint256",
                                "value": "8,448,321,173,422,142,279,990"
                            }
                        ],
                        "signature": "Transfer(address,address,uint256)"
                    },
                    "id": 20,
                    "logData": "0x0000000000000000000000000000000000000000000001c9fc02321a7e165136",
                    "logDecoded": true,
                    "operation": "EVENT",
                    "revert": false,
                    "status": true,
                    "topics": [
                        "0xddf252ad1be2c89b69c2b068fc378daa952ba7f163c4a11628f55a4df523b3ef",
                        "0x000000000000000000000000ef9a557f2e29512c6954036b3147a4f35558488a",
                        "0x000000000000000000000000af01d0e71ce300df968a83922b721fee7afe6174"
                    ]
                },
                "nodeType": 1
            },
            "21": {
                "invocation": {
                    "address": "0x6d8f7ac13e8c2944d27e0f9bc6aa0122f2ec1384",
                    "callData": "0x000000000000000000000000ef9a557f2e29512c6954036b3147a4f35558488a",
                    "decodedMethod": {
                        "callParams": [
                            {
                                "name": "account",
                                "type": "address",
                                "value": "0xef9a557f2e29512c6954036b3147a4f35558488a"
                            }
                        ],
                        "constructorArguments": "",
                        "name": "balanceOf",
                        "returnParams": [
                            {
                                "decimalAvailable": true,
                                "name": "",
                                "type": "uint256",
                                "value": "3,913,535,705,721,649,404,026,476"
                            }
                        ],
                        "signature": "balanceOf(address)"
                    },
                    "errorInfo": "",
                    "fromAddress": "0xef9a557f2e29512c6954036b3147a4f35558488a",
                    "gasUsed": 952,
                    "id": 21,
                    "methodDecoded": true,
                    "operation": "STATICCALL",
                    "output": "0x000000000000000000000000000000000000000000033cb9321a31048ca39e6c",
                    "revert": false,
                    "revertMessage": "",
                    "selector": "0x70a08231",
                    "status": true,
                    "value": "0"
                },
                "nodeType": 0
            },
            "22": {
                "invocation": {
                    "address": "0xc02aaa39b223fe8d0a0e5c4f27ead9083c756cc2",
                    "callData": "0x000000000000000000000000ef9a557f2e29512c6954036b3147a4f35558488a",
                    "decodedMethod": {
                        "callParams": [
                            {
                                "name": "",
                                "type": "address",
                                "value": "0xef9a557f2e29512c6954036b3147a4f35558488a"
                            }
                        ],
                        "constructorArguments": "",
                        "name": "balanceOf",
                        "returnParams": [
                            {
                                "decimalAvailable": true,
                                "name": "",
                                "type": "uint256",
                                "value": "39,294,443,180,407,085,681"
                            }
                        ],
                        "signature": "balanceOf(address)"
                    },
                    "errorInfo": "",
                    "fromAddress": "0xef9a557f2e29512c6954036b3147a4f35558488a",
                    "gasUsed": 534,
                    "id": 22,
                    "methodDecoded": true,
                    "operation": "STATICCALL",
                    "output": "0x0000000000000000000000000000000000000000000000022151e7e1b6ef5a71",
                    "revert": false,
                    "revertMessage": "",
                    "selector": "0x70a08231",
                    "status": true,
                    "value": "0"
                },
                "nodeType": 0
            },
            "23": {
                "event": {
                    "contract": "0xef9a557f2e29512c6954036b3147a4f35558488a",
                    "decodedLog": {
                        "name": "Sync",
                        "params": [
                            {
                                "name": "reserve0",
                                "type": "uint112",
                                "value": "3,913,535,705,721,649,404,026,476"
                            },
                            {
                                "name": "reserve1",
                                "type": "uint112",
                                "value": "39,294,443,180,407,085,681"
                            }
                        ],
                        "signature": "Sync(uint112,uint112)"
                    },
                    "id": 23,
                    "logData": "0x000000000000000000000000000000000000000000033cb9321a31048ca39e6c0000000000000000000000000000000000000000000000022151e7e1b6ef5a71",
                    "logDecoded": true,
                    "operation": "EVENT",
                    "revert": false,
                    "status": true,
                    "topics": [
                        "0x1c411e9a96e071241c2f21f7726b17ae89e3cab4c78be50e062b03a9fffbbad1"
                    ]
                },
                "nodeType": 1
            },
            "24": {
                "event": {
                    "contract": "0xef9a557f2e29512c6954036b3147a4f35558488a",
                    "decodedLog": {
                        "name": "Swap",
                        "params": [
                            {
                                "name": "sender",
                                "type": "address",
                                "value": "0x3fc91a3afd70395cd496c647d5a6cc9d4b2b7fad"
                            },
                            {
                                "name": "to",
                                "type": "address",
                                "value": "0xaf01d0e71ce300df968a83922b721fee7afe6174"
                            },
                            {
                                "name": "amount0In",
                                "type": "uint256",
                                "value": "0"
                            },
                            {
                                "name": "amount1In",
                                "type": "uint256",
                                "value": "89,356,216,799,306,204"
                            },
                            {
                                "name": "amount0Out",
                                "type": "uint256",
                                "value": "8,892,969,656,233,833,978,936"
                            },
                            {
                                "name": "amount1Out",
                                "type": "uint256",
                                "value": "0"
                            }
                        ],
                        "signature": "Swap(address,uint256,uint256,uint256,uint256,address)"
                    },
                    "id": 24,
                    "logData": "0x0000000000000000000000000000000000000000000000000000000000000000000000000000000000000000000000000000000000000000013d750178cba1dc0000000000000000000000000000000000000000000001e216bef15f415adc380000000000000000000000000000000000000000000000000000000000000000",
                    "logDecoded": true,
                    "operation": "EVENT",
                    "revert": false,
                    "status": true,
                    "topics": [
                        "0xd78ad95fa46c994b6551d0da85fc275fe613ce37657fb8d5e3d130840159d822",
                        "0x0000000000000000000000003fc91a3afd70395cd496c647d5a6cc9d4b2b7fad",
                        "0x000000000000000000000000af01d0e71ce300df968a83922b721fee7afe6174"
                    ]
                },
                "nodeType": 1
            },
            "25": {
                "invocation": {
                    "address": "0x6d8f7ac13e8c2944d27e0f9bc6aa0122f2ec1384",
                    "callData": "0x000000000000000000000000af01d0e71ce300df968a83922b721fee7afe6174",
                    "decodedMethod": {
                        "callParams": [
                            {
                                "name": "account",
                                "type": "address",
                                "value": "0xaf01d0e71ce300df968a83922b721fee7afe6174"
                            }
                        ],
                        "constructorArguments": "",
                        "name": "balanceOf",
                        "returnParams": [
                            {
                                "decimalAvailable": true,
                                "name": "",
                                "type": "uint256",
                                "value": "8,448,321,173,422,142,279,990"
                            }
                        ],
                        "signature": "balanceOf(address)"
                    },
                    "errorInfo": "",
                    "fromAddress": "0x3fc91a3afd70395cd496c647d5a6cc9d4b2b7fad",
                    "gasUsed": 952,
                    "id": 25,
                    "methodDecoded": true,
                    "operation": "STATICCALL",
                    "output": "0x0000000000000000000000000000000000000000000001c9fc02321a7e165136",
                    "revert": false,
                    "revertMessage": "",
                    "selector": "0x70a08231",
                    "status": true,
                    "value": "0"
                },
                "nodeType": 0
            },
            "3": {
                "event": {
                    "contract": "0x14fee680690900ba0cccfc76ad70fd1b95d10e16",
                    "decodedLog": {
                        "name": "Transfer",
                        "params": [
                            {
                                "name": "from",
                                "type": "address",
                                "value": "0xaf01d0e71ce300df968a83922b721fee7afe6174"
                            },
                            {
                                "name": "to",
                                "type": "address",
                                "value": "0x14fee680690900ba0cccfc76ad70fd1b95d10e16"
                            },
                            {
                                "decimalAvailable": true,
                                "name": "value",
                                "type": "uint256",
                                "value": "246,787,352,282"
                            }
                        ],
                        "signature": "Transfer(address,address,uint256)"
                    },
                    "id": 3,
                    "logData": "0x0000000000000000000000000000000000000000000000000000003975ac26da",
                    "logDecoded": true,
                    "operation": "EVENT",
                    "revert": false,
                    "status": true,
                    "topics": [
                        "0xddf252ad1be2c89b69c2b068fc378daa952ba7f163c4a11628f55a4df523b3ef",
                        "0x000000000000000000000000af01d0e71ce300df968a83922b721fee7afe6174",
                        "0x00000000000000000000000014fee680690900ba0cccfc76ad70fd1b95d10e16"
                    ]
                },
                "nodeType": 1
            },
            "4": {
                "event": {
                    "contract": "0x14fee680690900ba0cccfc76ad70fd1b95d10e16",
                    "decodedLog": {
                        "name": "Transfer",
                        "params": [
                            {
                                "name": "from",
                                "type": "address",
                                "value": "0xaf01d0e71ce300df968a83922b721fee7afe6174"
                            },
                            {
                                "name": "to",
                                "type": "address",
                                "value": "0x2a6c340bcbb0a79d3deecd3bc5cbc2605ea9259f"
                            },
                            {
                                "decimalAvailable": true,
                                "name": "value",
                                "type": "uint256",
                                "value": "5,922,896,454,787"
                            }
                        ],
                        "signature": "Transfer(address,address,uint256)"
                    },
                    "id": 4,
                    "logData": "0x000000000000000000000000000000000000000000000000000005630823a483",
                    "logDecoded": true,
                    "operation": "EVENT",
                    "revert": false,
                    "status": true,
                    "topics": [
                        "0xddf252ad1be2c89b69c2b068fc378daa952ba7f163c4a11628f55a4df523b3ef",
                        "0x000000000000000000000000af01d0e71ce300df968a83922b721fee7afe6174",
                        "0x0000000000000000000000002a6c340bcbb0a79d3deecd3bc5cbc2605ea9259f"
                    ]
                },
                "nodeType": 1
            },
            "5": {
                "invocation": {
                    "address": "0x6d8f7ac13e8c2944d27e0f9bc6aa0122f2ec1384",
                    "callData": "0x000000000000000000000000af01d0e71ce300df968a83922b721fee7afe6174",
                    "decodedMethod": {
                        "callParams": [
                            {
                                "name": "account",
                                "type": "address",
                                "value": "0xaf01d0e71ce300df968a83922b721fee7afe6174"
                            }
                        ],
                        "constructorArguments": "",
                        "name": "balanceOf",
                        "returnParams": [
                            {
                                "decimalAvailable": true,
                                "name": "",
                                "type": "uint256",
                                "value": "0"
                            }
                        ],
                        "signature": "balanceOf(address)"
                    },
                    "errorInfo": "",
                    "fromAddress": "0x3fc91a3afd70395cd496c647d5a6cc9d4b2b7fad",
                    "gasUsed": 2952,
                    "id": 5,
                    "methodDecoded": true,
                    "operation": "STATICCALL",
                    "output": "0x0000000000000000000000000000000000000000000000000000000000000000",
                    "revert": false,
                    "revertMessage": "",
                    "selector": "0x70a08231",
                    "status": true,
                    "value": "0"
                },
                "nodeType": 0
            },
            "6": {
                "invocation": {
                    "address": "0x2a6c340bcbb0a79d3deecd3bc5cbc2605ea9259f",
                    "callData": "0x",
                    "decodedMethod": {
                        "callParams": [],
                        "constructorArguments": "",
                        "name": "getReserves",
                        "returnParams": [
                            {
                                "name": "_reserve0",
                                "type": "uint112",
                                "value": "19,776,420,897,480,112"
                            },
                            {
                                "name": "_reserve1",
                                "type": "uint112",
                                "value": "299,345,565,976,908,590,960"
                            },
                            {
                                "name": "_blockTimestampLast",
                                "type": "uint32",
                                "value": "1,694,378,747"
                            }
                        ],
                        "signature": "getReserves()"
                    },
                    "errorInfo": "",
                    "fromAddress": "0x3fc91a3afd70395cd496c647d5a6cc9d4b2b7fad",
                    "gasUsed": 2504,
                    "id": 6,
                    "methodDecoded": true,
                    "operation": "STATICCALL",
                    "output": "0x0000000000000000000000000000000000000000000000000046428cce85ddb00000000000000000000000000000000000000000000000103a41164155e4ef700000000000000000000000000000000000000000000000000000000064fe2afb",
                    "revert": false,
                    "revertMessage": "",
                    "selector": "0x0902f1ac",
                    "status": true,
                    "value": "0"
                },
                "nodeType": 0
            },
            "7": {
                "invocation": {
                    "address": "0x14fee680690900ba0cccfc76ad70fd1b95d10e16",
                    "callData": "0x0000000000000000000000002a6c340bcbb0a79d3deecd3bc5cbc2605ea9259f",
                    "decodedMethod": {
                        "callParams": [
                            {
                                "name": "account",
                                "type": "address",
                                "value": "0x2a6c340bcbb0a79d3deecd3bc5cbc2605ea9259f"
                            }
                        ],
                        "constructorArguments": "",
                        "name": "balanceOf",
                        "returnParams": [
                            {
                                "decimalAvailable": true,
                                "name": "",
                                "type": "uint256",
                                "value": "19,782,343,793,934,899"
                            }
                        ],
                        "signature": "balanceOf(address)"
                    },
                    "errorInfo": "",
                    "fromAddress": "0x3fc91a3afd70395cd496c647d5a6cc9d4b2b7fad",
                    "gasUsed": 602,
                    "id": 7,
                    "methodDecoded": true,
                    "operation": "STATICCALL",
                    "output": "0x000000000000000000000000000000000000000000000000004647efd6a98233",
                    "revert": false,
                    "revertMessage": "",
                    "selector": "0x70a08231",
                    "status": true,
                    "value": "0"
                },
                "nodeType": 0
            },
            "8": {
                "invocation": {
                    "address": "0x2a6c340bcbb0a79d3deecd3bc5cbc2605ea9259f",
                    "callData": "0x0000000000000000000000000000000000000000000000000000000000000000000000000000000000000000000000000000000000000000013d750178cba1dc000000000000000000000000ef9a557f2e29512c6954036b3147a4f35558488a00000000000000000000000000000000000000000000000000000000000000800000000000000000000000000000000000000000000000000000000000000000",
                    "decodedMethod": {
                        "callParams": [
                            {
                                "name": "amount0Out",
                                "type": "uint256",
                                "value": "0"
                            },
                            {
                                "name": "amount1Out",
                                "type": "uint256",
                                "value": "89,356,216,799,306,204"
                            },
                            {
                                "name": "to",
                                "type": "address",
                                "value": "0xef9a557f2e29512c6954036b3147a4f35558488a"
                            },
                            {
                                "name": "data",
                                "type": "bytes",
                                "value": "0x"
                            }
                        ],
                        "constructorArguments": "",
                        "name": "swap",
                        "returnParams": [],
                        "signature": "swap(uint256,uint256,address,bytes)"
                    },
                    "errorInfo": "",
                    "fromAddress": "0x3fc91a3afd70395cd496c647d5a6cc9d4b2b7fad",
                    "gasUsed": 47821,
                    "id": 8,
                    "methodDecoded": true,
                    "operation": "CALL",
                    "output": "",
                    "revert": false,
                    "revertMessage": "",
                    "selector": "0x022c0d9f",
                    "status": true,
                    "value": "0"
                },
                "nodeType": 0
            },
            "9": {
                "invocation": {
                    "address": "0xc02aaa39b223fe8d0a0e5c4f27ead9083c756cc2",
                    "callData": "0x000000000000000000000000ef9a557f2e29512c6954036b3147a4f35558488a000000000000000000000000000000000000000000000000013d750178cba1dc",
                    "decodedMethod": {
                        "callParams": [
                            {
                                "name": "dst",
                                "type": "address",
                                "value": "0xef9a557f2e29512c6954036b3147a4f35558488a"
                            },
                            {
                                "decimalAvailable": true,
                                "name": "wad",
                                "type": "uint256",
                                "value": "89,356,216,799,306,204"
                            }
                        ],
                        "constructorArguments": "",
                        "name": "transfer",
                        "returnParams": [
                            {
                                "name": "",
                                "type": "bool",
                                "value": true
                            }
                        ],
                        "signature": "transfer(address,uint256)"
                    },
                    "errorInfo": "",
                    "fromAddress": "0x2a6c340bcbb0a79d3deecd3bc5cbc2605ea9259f",
                    "gasUsed": 12862,
                    "id": 9,
                    "methodDecoded": true,
                    "operation": "CALL",
                    "output": "0x0000000000000000000000000000000000000000000000000000000000000001",
                    "revert": false,
                    "revertMessage": "",
                    "selector": "0xa9059cbb",
                    "status": true,
                    "value": "0"
                },
                "nodeType": 0
            }
        },
        "gasFlame": [
            {
                "children": [
                    {
                        "children": [
                            {
                                "children": [],
                                "depth": 0,
                                "name": "Initial Gas",
                                "value": 24332
                            },
                            {
                                "children": [
                                    {
                                        "children": [
                                            {
                                                "children": [],
                                                "depth": 2,
                                                "name": "transferFrom",
                                                "value": 51515
                                            }
                                        ],
                                        "depth": 1,
                                        "name": "transferFrom",
                                        "value": 57222
                                    },
                                    {
                                        "children": [],
                                        "depth": 1,
                                        "name": "balanceOf",
                                        "value": 2952
                                    },
                                    {
                                        "children": [],
                                        "depth": 1,
                                        "name": "getReserves",
                                        "value": 2504
                                    },
                                    {
                                        "children": [],
                                        "depth": 1,
                                        "name": "balanceOf",
                                        "value": 602
                                    },
                                    {
                                        "children": [
                                            {
                                                "children": [],
                                                "depth": 2,
                                                "name": "transfer",
                                                "value": 12862
                                            },
                                            {
                                                "children": [],
                                                "depth": 2,
                                                "name": "balanceOf",
                                                "value": 602
                                            },
                                            {
                                                "children": [],
                                                "depth": 2,
                                                "name": "balanceOf",
                                                "value": 534
                                            }
                                        ],
                                        "depth": 1,
                                        "name": "swap",
                                        "value": 47821
                                    },
                                    {
                                        "children": [],
                                        "depth": 1,
                                        "name": "getReserves",
                                        "value": 2504
                                    },
                                    {
                                        "children": [],
                                        "depth": 1,
                                        "name": "balanceOf",
                                        "value": 534
                                    },
                                    {
                                        "children": [
                                            {
                                                "children": [],
                                                "depth": 2,
                                                "name": "transfer",
                                                "value": 63429
                                            },
                                            {
                                                "children": [],
                                                "depth": 2,
                                                "name": "balanceOf",
                                                "value": 952
                                            },
                                            {
                                                "children": [],
                                                "depth": 2,
                                                "name": "balanceOf",
                                                "value": 534
                                            }
                                        ],
                                        "depth": 1,
                                        "name": "swap",
                                        "value": 96238
                                    },
                                    {
                                        "children": [],
                                        "depth": 1,
                                        "name": "balanceOf",
                                        "value": 952
                                    }
                                ],
                                "depth": 0,
                                "name": "Executed Gas",
                                "value": 237362
                            }
                        ],
                        "depth": -1,
                        "name": "Actual Gas Used",
                        "value": 248494
                    },
                    {
                        "children": [],
                        "depth": -1,
                        "name": "Refunded Gas",
                        "value": 13200
                    }
                ],
                "depth": -2,
                "name": "Total Gas",
                "value": 261694
            }
        ],
        "isConfirmed": true,
        "mainTrace": [
            {
                "children": [
                    {
                        "children": [
                            {
                                "children": [
                                    {
                                        "children": [
                                            {
                                                "children": [],
                                                "depth": 3,
                                                "id": 3,
                                                "order": 3
                                            },
                                            {
                                                "children": [],
                                                "depth": 3,
                                                "id": 4,
                                                "order": 4
                                            }
                                        ],
                                        "depth": 2,
                                        "id": 2,
                                        "order": 2
                                    }
                                ],
                                "depth": 1,
                                "id": 1,
                                "order": 1
                            },
                            {
                                "children": [],
                                "depth": 1,
                                "id": 5,
                                "order": 5
                            },
                            {
                                "children": [],
                                "depth": 1,
                                "id": 6,
                                "order": 6
                            },
                            {
                                "children": [],
                                "depth": 1,
                                "id": 7,
                                "order": 7
                            },
                            {
                                "children": [
                                    {
                                        "children": [
                                            {
                                                "children": [],
                                                "depth": 3,
                                                "id": 10,
                                                "order": 10
                                            }
                                        ],
                                        "depth": 2,
                                        "id": 9,
                                        "order": 9
                                    },
                                    {
                                        "children": [],
                                        "depth": 2,
                                        "id": 11,
                                        "order": 11
                                    },
                                    {
                                        "children": [],
                                        "depth": 2,
                                        "id": 12,
                                        "order": 12
                                    },
                                    {
                                        "children": [],
                                        "depth": 2,
                                        "id": 13,
                                        "order": 13
                                    },
                                    {
                                        "children": [],
                                        "depth": 2,
                                        "id": 14,
                                        "order": 14
                                    }
                                ],
                                "depth": 1,
                                "id": 8,
                                "order": 8
                            },
                            {
                                "children": [],
                                "depth": 1,
                                "id": 15,
                                "order": 15
                            },
                            {
                                "children": [],
                                "depth": 1,
                                "id": 16,
                                "order": 16
                            },
                            {
                                "children": [
                                    {
                                        "children": [
                                            {
                                                "children": [],
                                                "depth": 3,
                                                "id": 19,
                                                "order": 19
                                            },
                                            {
                                                "children": [],
                                                "depth": 3,
                                                "id": 20,
                                                "order": 20
                                            }
                                        ],
                                        "depth": 2,
                                        "id": 18,
                                        "order": 18
                                    },
                                    {
                                        "children": [],
                                        "depth": 2,
                                        "id": 21,
                                        "order": 21
                                    },
                                    {
                                        "children": [],
                                        "depth": 2,
                                        "id": 22,
                                        "order": 22
                                    },
                                    {
                                        "children": [],
                                        "depth": 2,
                                        "id": 23,
                                        "order": 23
                                    },
                                    {
                                        "children": [],
                                        "depth": 2,
                                        "id": 24,
                                        "order": 24
                                    }
                                ],
                                "depth": 1,
                                "id": 17,
                                "order": 17
                            },
                            {
                                "children": [],
                                "depth": 1,
                                "id": 25,
                                "order": 25
                            }
                        ],
                        "depth": 0,
                        "id": 0,
                        "order": 0
                    }
                ],
                "depth": -1,
                "id": -1,
                "order": -1
            }
        ],
        "mainTraceNodeCount": 26,
        "parentIdMap": {
            "0": -1,
            "1": 0,
            "10": 9,
            "11": 8,
            "12": 8,
            "13": 8,
            "14": 8,
            "15": 0,
            "16": 0,
            "17": 0,
            "18": 17,
            "19": 18,
            "2": 1,
            "20": 18,
            "21": 17,
            "22": 17,
            "23": 17,
            "24": 17,
            "25": 0,
            "3": 2,
            "4": 2,
            "5": 0,
            "6": 0,
            "7": 0,
            "8": 0,
            "9": 8
        },
        "tidyTrace": [
            {
                "children": [
                    {
                        "children": [
                            {
                                "children": [
                                    {
                                        "children": [
                                            {
                                                "children": [],
                                                "depth": 3,
                                                "id": 3,
                                                "order": 3
                                            },
                                            {
                                                "children": [],
                                                "depth": 3,
                                                "id": 4,
                                                "order": 4
                                            }
                                        ],
                                        "depth": 2,
                                        "id": 2,
                                        "order": 2
                                    }
                                ],
                                "depth": 1,
                                "id": 1,
                                "order": 1
                            },
                            {
                                "children": [
                                    {
                                        "children": [
                                            {
                                                "children": [],
                                                "depth": 3,
                                                "id": 10,
                                                "order": 10
                                            }
                                        ],
                                        "depth": 2,
                                        "id": 9,
                                        "order": 9
                                    },
                                    {
                                        "children": [],
                                        "depth": 2,
                                        "id": 13,
                                        "order": 13
                                    },
                                    {
                                        "children": [],
                                        "depth": 2,
                                        "id": 14,
                                        "order": 14
                                    }
                                ],
                                "depth": 1,
                                "id": 8,
                                "order": 8
                            },
                            {
                                "children": [
                                    {
                                        "children": [
                                            {
                                                "children": [],
                                                "depth": 3,
                                                "id": 19,
                                                "order": 19
                                            },
                                            {
                                                "children": [],
                                                "depth": 3,
                                                "id": 20,
                                                "order": 20
                                            }
                                        ],
                                        "depth": 2,
                                        "id": 18,
                                        "order": 18
                                    },
                                    {
                                        "children": [],
                                        "depth": 2,
                                        "id": 23,
                                        "order": 23
                                    },
                                    {
                                        "children": [],
                                        "depth": 2,
                                        "id": 24,
                                        "order": 24
                                    }
                                ],
                                "depth": 1,
                                "id": 17,
                                "order": 17
                            }
                        ],
                        "depth": 0,
                        "id": 0,
                        "order": 0
                    }
                ],
                "depth": -1,
                "id": -1,
                "order": -1
            }
        ],
        "tidyTraceNodeCount": 16
    },
    "state_change": {
        "stateChanges": [
            {
                "address": "0x14fee680690900ba0cccfc76ad70fd1b95d10e16",
                "erc": "ERC-20",
                "slots": [
                    {
                        "current": "0x00000000000000000000000000000000000000000000000000006739643a2b47",
                        "key": "0x0b21dc06bad3a38a9d0eb94b74efb2cb4cdb0064568386589daf142a8022b00e",
                        "prev": "0x00000000000000000000000000000000000000000000000000006cd5e209f6a4"
                    },
                    {
                        "current": "0x0000000000000000000000000000000000000000000000000000000000000000",
                        "key": "0xde4a4f9a100aa87554cbb9407ad0029f0dbe5d836d17e29c23ffcc8abf88b333",
                        "prev": "0x0000000000000000000000000000000000000000000000000000059c7dcfcb5d"
                    },
                    {
                        "current": "0x00000000000000000000000000000000000000000000000000002fae0e4ff9f9",
                        "key": "0xe1f3481cc1cc08ca8b96f84bacacbfbef93dd199915348b58ef03e1eebfee0ac",
                        "prev": "0x00000000000000000000000000000000000000000000000000002f7498a3d31f"
                    },
                    {
                        "current": "0x000000000000000000000000000000000000000000000000004647efd6a98233",
                        "key": "0x171077983b0d94252738b0c9aee9d5d33901cbb8c3d538b9b66d6d86144a1d61",
                        "prev": "0x0000000000000000000000000000000000000000000000000046428cce85ddb0"
                    }
                ],
                "storageVariables": [
                    {
                        "name": "_allowances",
                        "type": "mapping(address => mapping(address => uint256))",
                        "value": {
                            "pairs": [
                                {
                                    "key": "0xaf01d0e71ce300df968a83922b721fee7afe6174",
                                    "value": {
                                        "pairs": [
                                            {
                                                "key": "0x000000000022d473030f116ddee9f6b43ac78ba3",
                                                "value": {
                                                    "current": "113496192330567",
                                                    "prev": "119665876137636",
                                                    "typeTag": 1
                                                }
                                            }
                                        ],
                                        "typeTag": 4
                                    }
                                }
                            ],
                            "typeTag": 4
                        }
                    },
                    {
                        "name": "_tOwned",
                        "type": "mapping(address => uint256)",
                        "value": {
                            "pairs": [
                                {
                                    "key": "0x14fee680690900ba0cccfc76ad70fd1b95d10e16",
                                    "value": {
                                        "current": "52424610937337",
                                        "prev": "52177823585055",
                                        "typeTag": 1
                                    }
                                },
                                {
                                    "key": "0x2a6c340bcbb0a79d3deecd3bc5cbc2605ea9259f",
                                    "value": {
                                        "current": "19782343793934899",
                                        "prev": "19776420897480112",
                                        "typeTag": 1
                                    }
                                },
                                {
                                    "key": "0xaf01d0e71ce300df968a83922b721fee7afe6174",
                                    "value": {
                                        "current": "0",
                                        "prev": "6169683807069",
                                        "typeTag": 1
                                    }
                                }
                            ],
                            "typeTag": 4
                        }
                    }
                ]
            },
            {
                "address": "0x2a6c340bcbb0a79d3deecd3bc5cbc2605ea9259f",
                "erc": "ERC-20",
                "slots": [
                    {
                        "current": "0x000000000000000000000000000dd63ed59e6d56f4b5c89d036acc6d6a95cefc",
                        "key": "0x0000000000000000000000000000000000000000000000000000000000000009",
                        "prev": "0x000000000000000000000000000dd6127d40a656880e2d26bdf8e131d7515bbc"
                    },
                    {
                        "current": "0x000000000000000000000000000000000657a36cfc25b6570b4c589134e19d10",
                        "key": "0x000000000000000000000000000000000000000000000000000000000000000a",
                        "prev": "0x000000000000000000000000000000000657a02db034f98a0b6c4e5fe7a01650"
                    },
                    {
                        "current": "0x64fe2bbb0000000000103903a13fdd194d94000000000000004647efd6a98233",
                        "key": "0x0000000000000000000000000000000000000000000000000000000000000008",
                        "prev": "0x64fe2afb0000000000103a41164155e4ef700000000000000046428cce85ddb0"
                    }
                ],
                "storageVariables": [
                    {
                        "name": "price0CumulativeLast",
                        "type": "uint256",
                        "value": {
                            "current": "308573098225207569645539873331669064670891772",
                            "prev": "308558008342079578298679196340623811296713660",
                            "typeTag": 1
                        }
                    },
                    {
                        "name": "price1CumulativeLast",
                        "type": "uint256",
                        "value": {
                            "current": "8430412468844785810617997346627230992",
                            "prev": "8430346606739326937172747343947109968",
                            "typeTag": 1
                        }
                    },
                    {
                        "name": "reserve0",
                        "type": "uint112",
                        "value": {
                            "current": "19782343793934899",
                            "prev": "19776420897480112",
                            "typeTag": 1
                        }
                    },
                    {
                        "name": "reserve1",
                        "type": "uint112",
                        "value": {
                            "current": "299256209760109284756",
                            "prev": "299345565976908590960",
                            "typeTag": 1
                        }
                    },
                    {
                        "name": "blockTimestampLast",
                        "type": "uint32",
                        "value": {
                            "current": "1694378939",
                            "prev": "1694378747",
                            "typeTag": 1
                        }
                    }
                ]
            },
            {
                "address": "0x6d8f7ac13e8c2944d27e0f9bc6aa0122f2ec1384",
                "erc": "ERC-20",
                "slots": [
                    {
                        "current": "0x0000000000000000000000000000000000000000000001c9fc02321a7e165136",
                        "key": "0xde4a4f9a100aa87554cbb9407ad0029f0dbe5d836d17e29c23ffcc8abf88b333",
                        "prev": "0x0000000000000000000000000000000000000000000000000000000000000000"
                    },
                    {
                        "current": "0x000000000000000000000000000000000000000000033cb9321a31048ca39e6c",
                        "key": "0x57e2a718687a9b54e65f4a73f9c955e41972573526efe992d9ee396382b92375",
                        "prev": "0x000000000000000000000000000000000000000000033e9b48d92263cdfe7aa4"
                    },
                    {
                        "current": "0x000000000000000000000000000000000000000000000968c1dc07a6743f2bc4",
                        "key": "0x0745fb8b0c510ce2b46a0adb10cec17e5e32bb4d91dec5cea6080dc2655f7f79",
                        "prev": "0x000000000000000000000000000000000000000000000950a71f4861b0faa0c2"
                    }
                ],
                "storageVariables": [
                    {
                        "name": "_balances",
                        "type": "mapping(address => uint256)",
                        "value": {
                            "pairs": [
                                {
                                    "key": "0x6d8f7ac13e8c2944d27e0f9bc6aa0122f2ec1384",
                                    "value": {
                                        "current": "44433728778048292989892",
                                        "prev": "43989080295236601290946",
                                        "typeTag": 1
                                    }
                                },
                                {
                                    "key": "0xaf01d0e71ce300df968a83922b721fee7afe6174",
                                    "value": {
                                        "current": "8448321173422142279990",
                                        "prev": "0",
                                        "typeTag": 1
                                    }
                                },
                                {
                                    "key": "0xef9a557f2e29512c6954036b3147a4f35558488a",
                                    "value": {
                                        "current": "3913535705721649404026476",
                                        "prev": "3922428675377883238005412",
                                        "typeTag": 1
                                    }
                                }
                            ],
                            "typeTag": 4
                        }
                    }
                ]
            },
            {
                "address": "0xc02aaa39b223fe8d0a0e5c4f27ead9083c756cc2",
                "erc": "ERC-20",
                "slots": [
                    {
                        "current": "0x0000000000000000000000000000000000000000000000103903a13fdd194d94",
                        "key": "0x6502030e53436768c950066ada82ae089c1157a69c2a7f5ad1290400fac771a4",
                        "prev": "0x0000000000000000000000000000000000000000000000103a41164155e4ef70"
                    },
                    {
                        "current": "0x0000000000000000000000000000000000000000000000022151e7e1b6ef5a71",
                        "key": "0x1bd4562398e648f88d5376ab8cb7cff5968846648322112d5207aca57d256696",
                        "prev": "0x000000000000000000000000000000000000000000000002201472e03e23b895"
                    }
                ],
                "storageVariables": [
                    {
                        "name": "balanceOf",
                        "type": "mapping(address => uint256)",
                        "value": {
                            "pairs": [
                                {
                                    "key": "0x2a6c340bcbb0a79d3deecd3bc5cbc2605ea9259f",
                                    "value": {
                                        "current": "299256209760109284756",
                                        "prev": "299345565976908590960",
                                        "typeTag": 1
                                    }
                                },
                                {
                                    "key": "0xef9a557f2e29512c6954036b3147a4f35558488a",
                                    "value": {
                                        "current": "39294443180407085681",
                                        "prev": "39205086963607779477",
                                        "typeTag": 1
                                    }
                                }
                            ],
                            "typeTag": 4
                        }
                    }
                ]
            },
            {
                "address": "0xef9a557f2e29512c6954036b3147a4f35558488a",
                "erc": "ERC-20",
                "slots": [
                    {
                        "current": "0x000000000000000000000000000dca525e2bbe1ed286aeaf9dde9ffdc14f1118",
                        "key": "0x000000000000000000000000000000000000000000000000000000000000000a",
                        "prev": "0x000000000000000000000000000dc8f64c0df77c3aa8384b985588bb1f7a1764"
                    },
                    {
                        "current": "0x64fe2bbb0000000000022151e7e1b6ef5a71000000033cb9321a31048ca39e6c",
                        "key": "0x0000000000000000000000000000000000000000000000000000000000000008",
                        "prev": "0x64fe2ad7000000000002201472e03e23b895000000033e9b48d92263cdfe7aa4"
                    },
                    {
                        "current": "0x000000000000000000000000000000000009413f02b91e51b445766293293148",
                        "key": "0x0000000000000000000000000000000000000000000000000000000000000009",
                        "prev": "0x00000000000000000000000000000000000940a9a9650018c42c049545a67f8c"
                    }
                ],
                "storageVariables": [
                    {
                        "name": "price1CumulativeLast",
                        "type": "uint256",
                        "value": {
                            "current": "307534397667757656139918301891865074950148376",
                            "prev": "307415955323359837463609893170120970877933412",
                            "typeTag": 1
                        }
                    },
                    {
                        "name": "reserve0",
                        "type": "uint112",
                        "value": {
                            "current": "3913535705721649404026476",
                            "prev": "3922428675377883238005412",
                            "typeTag": 1
                        }
                    },
                    {
                        "name": "reserve1",
                        "type": "uint112",
                        "value": {
                            "current": "39294443180407085681",
                            "prev": "39205086963607779477",
                            "typeTag": 1
                        }
                    },
                    {
                        "name": "blockTimestampLast",
                        "type": "uint32",
                        "value": {
                            "current": "1694378939",
                            "prev": "1694378711",
                            "typeTag": 1
                        }
                    },
                    {
                        "name": "price0CumulativeLast",
                        "type": "uint256",
                        "value": {
                            "current": "48054020568053680329670892133626184",
                            "prev": "48042187925980690682890699709775756",
                            "typeTag": 1
                        }
                    }
                ]
            }
        ]
    }
}