{
    "balance_change": {
        "balanceChanges": [
            {
                "account": "0xbfa75b1c7d4db7600a0cf958556eff2f2e3de424",
                "assets": [
                    {
                        "address": "0xf4b6f2ab709703aa1a3e47fa0183ec700017c62b",
                        "amount": "1",
                        "iconUrl": "",
                        "isERC1155": false,
                        "isERC721": true,
                        "sign": true,
                        "tokenID": "1541",
                        "value": ""
                    },
                    {
                        "address": "0xeeeeeeeeeeeeeeeeeeeeeeeeeeeeeeeeeeeeeeee",
                        "amount": "0.25",
                        "iconUrl": "https://assets.blocksec.com/image/1663669189317-3.png",
                        "isERC1155": false,
                        "isERC721": false,
                        "sign": false,
                        "value": "577.9199999999999591"
                    }
                ]
            },
            {
                "account": "0x0000000000000000000000000000000000000000",
                "assets": [
                    {
                        "address": "0xf4b6f2ab709703aa1a3e47fa0183ec700017c62b",
                        "amount": "1",
                        "iconUrl": "",
                        "isERC1155": false,
                        "isERC721": true,
                        "sign": false,
                        "tokenID": "1541",
                        "value": ""
                    }
                ]
            },
            {
                "account": "0xb6ad42d615759e50c8087849a2f6f0e2032f7085",
                "assets": [
                    {
                        "address": "0xeeeeeeeeeeeeeeeeeeeeeeeeeeeeeeeeeeeeeeee",
                        "amount": "0.25",
                        "iconUrl": "https://assets.blocksec.com/image/1663669189317-3.png",
                        "isERC1155": false,
                        "isERC721": false,
                        "sign": true,
                        "value": "577.9199999999999591"
                    }
                ]
            }
        ]
    },
    "profile": {
        "basic_info": {
            "baseFee": "40.507798541",
            "blockNumber": 18840693,
            "callData": "0x28fccf970000000000000000000000000000000000000000000000000000000000000001000000000000000000000000bfa75b1c7d4db7600a0cf958556eff2f2e3de4240000000000000000000000000000000000000000000000000000000000000001000000000000000000000000bfa75b1c7d4db7600a0cf958556eff2f2e3de42400000000000000000000000000000000000000000000000000000000000000a00000000000000000000000000000000000000000000000000000000000000000",
            "debugEnable": true,
            "errorInfo": "",
            "eventCount": 1,
            "feeRecipient": "0xb279d48442aafcf8f2af6d9e7d5d9c23f63b4e16",
            "formatValue": "0.25",
            "gasLimit": 262822,
            "gasPrice": "43.007798541",
            "gasUsed": 175215,
            "intTxnCount": 1,
            "internalRevert": false,
            "internalRevertMessage": "",
            "isContractCreation": false,
            "isFlashloan": false,
            "maxFee": "77.792256556",
            "nonce": 44,
            "overwritedBlockNumber": -1,
            "priorityFee": "2.5",
            "receiver": "0xf4b6f2ab709703aa1a3e47fa0183ec700017c62b",
            "revertMessage": "",
            "sender": "0xbfa75b1c7d4db7600a0cf958556eff2f2e3de424",
            "simulationEnable": true,
            "sourceTxnHash": "0x6a340aa510539b43cd2d871fa85b599532c52c262fba7a7f93cf794d005d237e",
            "status": true,
            "timestamp": "2023-12-22T10:08:59Z",
            "transactionFee": "0.007535611421361315",
            "txnHash": "0x6a340aa510539b43cd2d871fa85b599532c52c262fba7a7f93cf794d005d237e",
            "txnIndex": 26,
            "type": 2,
            "value": "250000000000000000"
        },
        "fund_flow": [
            {
                "amount": "0.25",
                "from": "0xbfa75b1c7d4db7600a0cf958556eff2f2e3de424",
                "id": 1,
                "isERC1155": false,
                "isERC721": false,
                "isReverted": false,
                "order": 1,
                "to": "0xf4b6f2ab709703aa1a3e47fa0183ec700017c62b",
                "token": "0xeeeeeeeeeeeeeeeeeeeeeeeeeeeeeeeeeeeeeeee"
            },
            {
                "amount": "0.25",
                "from": "0xf4b6f2ab709703aa1a3e47fa0183ec700017c62b",
                "id": 2,
                "isERC1155": false,
                "isERC721": false,
                "isReverted": false,
                "order": 2,
                "to": "0xb6ad42d615759e50c8087849a2f6f0e2032f7085",
                "token": "0xeeeeeeeeeeeeeeeeeeeeeeeeeeeeeeeeeeeeeeee"
            },
            {
                "amount": "1",
                "from": "0x0000000000000000000000000000000000000000",
                "id": 3,
                "isERC1155": false,
                "isERC721": true,
                "isReverted": false,
                "order": 3,
                "to": "0xbfa75b1c7d4db7600a0cf958556eff2f2e3de424",
                "token": "0xf4b6f2ab709703aa1a3e47fa0183ec700017c62b",
                "tokenID": "1541"
            }
        ],
        "token_infos": [
            {
                "address": "0xc02aaa39b223fe8d0a0e5c4f27ead9083c756cc2",
                "decimals": 18
            },
            {
                "address": "0xeeeeeeeeeeeeeeeeeeeeeeeeeeeeeeeeeeeeeeee",
                "decimals": 18
            }
        ]
    },
    "address_label": {
        "labels": [
            {
                "address": "0x0000000000000000000000000000000000000004",
                "label": "Precompiled"
            },
            {
                "address": "0xeeeeeeeeeeeeeeeeeeeeeeeeeeeeeeeeeeeeeeee",
                "label": "Ether"
            },
            {
                "address": "0xf4b6f2ab709703aa1a3e47fa0183ec700017c62b",
                "label": "Yield Hacker PASS (YHP)"
            },
            {
                "address": "0x0000000000000000000000000000000000000001",
                "label": "Precompiled"
            },
            {
                "address": "0x0000000000000000000000000000000000000002",
                "label": "Precompiled"
            },
            {
                "address": "0x0000000000000000000000000000000000000003",
                "label": "Precompiled"
            }
        ]
    },
    "trace": {
        "accountLabels": null,
        "dataMap": {
            "-1": {
                "invocation": {
                    "address": "0xbfa75b1c7d4db7600a0cf958556eff2f2e3de424",
                    "callData": "",
                    "decodedMethod": null,
                    "errorInfo": "",
                    "fromAddress": "",
                    "gasUsed": 0,
                    "id": -1,
                    "methodDecoded": false,
                    "operation": "",
                    "output": "",
                    "revert": false,
                    "revertMessage": "",
                    "selector": "",
                    "status": false,
                    "value": ""
                },
                "nodeType": 0
            },
            "0": {
                "invocation": {
                    "address": "0xf4b6f2ab709703aa1a3e47fa0183ec700017c62b",
                    "callData": "0x0000000000000000000000000000000000000000000000000000000000000001000000000000000000000000bfa75b1c7d4db7600a0cf958556eff2f2e3de4240000000000000000000000000000000000000000000000000000000000000001000000000000000000000000bfa75b1c7d4db7600a0cf958556eff2f2e3de42400000000000000000000000000000000000000000000000000000000000000a00000000000000000000000000000000000000000000000000000000000000000",
                    "decodedMethod": {
                        "callParams": [
                            {
                                "name": "_mintAmount",
                                "type": "uint256",
                                "value": "1"
                            },
                            {
                                "name": "_recommendedBy",
                                "type": "address",
                                "value": "0xbfa75b1c7d4db7600a0cf958556eff2f2e3de424"
                            },
                            {
                                "name": "_indicationType",
                                "type": "uint256",
                                "value": "1"
                            },
                            {
                                "name": "endUser",
                                "type": "address",
                                "value": "0xbfa75b1c7d4db7600a0cf958556eff2f2e3de424"
                            },
                            {
                                "name": "proof",
                                "type": "bytes32[]",
                                "value": []
                            }
                        ],
                        "constructorArguments": "",
                        "name": "mintWhitelist",
                        "returnParams": [],
                        "signature": "mintWhitelist(uint256,address,uint256,address,bytes32[])"
                    },
                    "errorInfo": "",
                    "fromAddress": "0xbfa75b1c7d4db7600a0cf958556eff2f2e3de424",
                    "gasUsed": 175215,
                    "id": 0,
                    "methodDecoded": true,
                    "operation": "CALL",
                    "output": "",
                    "revert": false,
                    "revertMessage": "",
                    "selector": "0x28fccf97",
                    "status": true,
                    "value": "0.25"
                },
                "nodeType": 0
            },
            "1": {
                "invocation": {
                    "address": "0xb6ad42d615759e50c8087849a2f6f0e2032f7085",
                    "callData": "0x",
                    "decodedMethod": null,
                    "errorInfo": "",
                    "fromAddress": "0xf4b6f2ab709703aa1a3e47fa0183ec700017c62b",
                    "gasUsed": 0,
                    "id": 1,
                    "methodDecoded": false,
                    "operation": "CALL",
                    "output": "",
                    "revert": false,
                    "revertMessage": "",
                    "selector": "fallback",
                    "status": true,
                    "value": "0.25"
                },
                "nodeType": 0
            },
            "2": {
                "event": {
                    "contract": "0xf4b6f2ab709703aa1a3e47fa0183ec700017c62b",
                    "decodedLog": {
                        "name": "Transfer",
                        "params": [
                            {
                                "name": "from",
                                "type": "address",
                                "value": "0x0000000000000000000000000000000000000000"
                            },
                            {
                                "name": "to",
                                "type": "address",
                                "value": "0xbfa75b1c7d4db7600a0cf958556eff2f2e3de424"
                            },
                            {
                                "decimalAvailable": true,
                                "name": "tokenId",
                                "type": "uint256",
                                "value": "1,541"
                            }
                        ],
                        "signature": "Transfer(address,address,uint256)"
                    },
                    "id": 2,
                    "logData": "0x",
                    "logDecoded": true,
                    "operation": "EVENT",
                    "revert": false,
                    "status": true,
                    "topics": [
                        "0xddf252ad1be2c89b69c2b068fc378daa952ba7f163c4a11628f55a4df523b3ef",
                        "0x0000000000000000000000000000000000000000000000000000000000000000",
                        "0x000000000000000000000000bfa75b1c7d4db7600a0cf958556eff2f2e3de424",
                        "0x0000000000000000000000000000000000000000000000000000000000000605"
                    ]
                },
                "nodeType": 1
            }
        },
        "gasFlame": [
            {
                "children": [
                    {
                        "children": [
                            {
                                "children": [],
                                "depth": 0,
                                "name": "Initial Gas",
                                "value": 22348
                            },
                            {
                                "children": [
                                    {
                                        "children": [],
                                        "depth": 1,
                                        "name": "fallback",
                                        "value": 0
                                    }
                                ],
                                "depth": 0,
                                "name": "Executed Gas",
                                "value": 152867
                            }
                        ],
                        "depth": -1,
                        "name": "Actual Gas Used",
                        "value": 175215
                    },
                    {
                        "children": [],
                        "depth": -1,
                        "name": "Refunded Gas",
                        "value": 0
                    }
                ],
                "depth": -2,
                "name": "Total Gas",
                "value": 175215
            }
        ],
        "isConfirmed": true,
        "mainTrace": [
            {
                "children": [
                    {
                        "children": [
                            {
                                "children": [],
                                "depth": 1,
                                "id": 1,
                                "order": 1
                            },
                            {
                                "children": [],
                                "depth": 1,
                                "id": 2,
                                "order": 2
                            }
                        ],
                        "depth": 0,
                        "id": 0,
                        "order": 0
                    }
                ],
                "depth": -1,
                "id": -1,
                "order": -1
            }
        ],
        "mainTraceNodeCount": 3,
        "parentIdMap": {
            "0": -1,
            "1": 0,
            "2": 0
        },
        "tidyTrace": [
            {
                "children": [
                    {
                        "children": [
                            {
                                "children": [],
                                "depth": 1,
                                "id": 1,
                                "order": 1
                            },
                            {
                                "children": [],
                                "depth": 1,
                                "id": 2,
                                "order": 2
                            }
                        ],
                        "depth": 0,
                        "id": 0,
                        "order": 0
                    }
                ],
                "depth": -1,
                "id": -1,
                "order": -1
            }
        ],
        "tidyTraceNodeCount": 3
    },
    "state_change": {
        "stateChanges": [
            {
                "address": "0xf4b6f2ab709703aa1a3e47fa0183ec700017c62b",
                "erc": "ERC-721",
                "slots": [
                    {
                        "current": "0x0000000000000000000000000000000000000000000000010000000000000001",
                        "key": "0x4b288c3f615e41fe424166fc43ba4b83202aa6249a2110e1fa5d381b9b690113",
                        "prev": "0x0000000000000000000000000000000000000000000000000000000000000000"
                    },
                    {
                        "current": "0x00000000000000006585603bbfa75b1c7d4db7600a0cf958556eff2f2e3de424",
                        "key": "0xf10af2ac400f6734f64f386be39562651658f5176d87bf7264a2c9fd0befbe3c",
                        "prev": "0x0000000000000000000000000000000000000000000000000000000000000000"
                    },
                    {
                        "current": "0x0000000000000000000000000000000000000000000000000000000000000606",
                        "key": "0x0000000000000000000000000000000000000000000000000000000000000000",
                        "prev": "0x0000000000000000000000000000000000000000000000000000000000000605"
                    },
                    {
                        "current": "0x0000000000000000000000000000000000000000000000000000000000000001",
                        "key": "0x4b8257251d971ec5c133a148e25cf597974f0316d0f31d21593a4d4992932407",
                        "prev": "0x0000000000000000000000000000000000000000000000000000000000000000"
                    },
                    {
                        "current": "0x00000000000000000000000000000000000000000000000000000000000001cb",
                        "key": "0x0000000000000000000000000000000000000000000000000000000000000016",
                        "prev": "0x00000000000000000000000000000000000000000000000000000000000001cc"
                    },
                    {
                        "current": "0x0000000000000000000000000000000000000000000000000000000000000001",
                        "key": "0xb7896a0410ce66fb06cbbfc6515e433529a532144b1fd960c5144e54a64993f2",
                        "prev": "0x0000000000000000000000000000000000000000000000000000000000000000"
                    }
                ],
                "storageVariables": [
                    {
                        "name": "_ownerships",
                        "type": "mapping(uint256 => struct ERC721A.TokenOwnership)",
                        "value": {
                            "pairs": [
                                {
                                    "key": "1541",
                                    "value": {
                                        "fields": [
                                            {
                                                "name": "addr",
                                                "type": "address",
                                                "value": {
                                                    "current": "0xbfa75b1c7d4db7600a0cf958556eff2f2e3de424",
                                                    "prev": "0x0000000000000000000000000000000000000000",
                                                    "typeTag": 1
                                                }
                                            },
                                            {
                                                "name": "startTimestamp",
                                                "type": "uint64",
                                                "value": {
                                                    "current": "1703239739",
                                                    "prev": "0",
                                                    "typeTag": 1
                                                }
                                            },
                                            {
                                                "name": "burned",
                                                "type": "bool",
                                                "value": {
                                                    "current": "false",
                                                    "prev": "false",
                                                    "typeTag": 1
                                                }
                                            }
                                        ],
                                        "typeTag": 3
                                    }
                                }
                            ],
                            "typeTag": 4
                        }
                    },
                    {
                        "name": "_currentIndex",
                        "type": "uint256",
                        "value": {
                            "current": "1542",
                            "prev": "1541",
                            "typeTag": 1
                        }
                    },
                    {
                        "name": "_addressLastMintedTokenId",
                        "type": "mapping(address => uint256)",
                        "value": {
                            "pairs": [
                                {
                                    "key": "0xbfa75b1c7d4db7600a0cf958556eff2f2e3de424",
                                    "value": {
                                        "current": "1",
                                        "prev": "0",
                                        "typeTag": 1
                                    }
                                }
                            ],
                            "typeTag": 4
                        }
                    },
                    {
                        "name": "_numAvailableTokens",
                        "type": "uint256",
                        "value": {
                            "current": "459",
                            "prev": "460",
                            "typeTag": 1
                        }
                    },
                    {
                        "name": "addressMintedBalance",
                        "type": "mapping(address => uint256)",
                        "value": {
                            "pairs": [
                                {
                                    "key": "0xbfa75b1c7d4db7600a0cf958556eff2f2e3de424",
                                    "value": {
                                        "current": "1",
                                        "prev": "0",
                                        "typeTag": 1
                                    }
                                }
                            ],
                            "typeTag": 4
                        }
                    },
                    {
                        "name": "_addressData",
                        "type": "mapping(address => struct ERC721A.AddressData)",
                        "value": {
                            "pairs": [
                                {
                                    "key": "0xbfa75b1c7d4db7600a0cf958556eff2f2e3de424",
                                    "value": {
                                        "fields": [
                                            {
                                                "name": "balance",
                                                "type": "uint64",
                                                "value": {
                                                    "current": "1",
                                                    "prev": "0",
                                                    "typeTag": 1
                                                }
                                            },
                                            {
                                                "name": "numberMinted",
                                                "type": "uint64",
                                                "value": {
                                                    "current": "1",
                                                    "prev": "0",
                                                    "typeTag": 1
                                                }
                                            },
                                            {
                                                "name": "numberBurned",
                                                "type": "uint64",
                                                "value": {
                                                    "current": "0",
                                                    "prev": "0",
                                                    "typeTag": 1
                                                }
                                            },
                                            {
                                                "name": "aux",
                                                "type": "uint64",
                                                "value": {
                                                    "current": "0",
                                                    "prev": "0",
                                                    "typeTag": 1
                                                }
                                            }
                                        ],
                                        "typeTag": 3
                                    }
                                }
                            ],
                            "typeTag": 4
                        }
                    }
                ]
            }
        ]
    }
}