{
    "balance_change": {
        "balanceChanges": [
            {
                "account": "0xc5341278a92e2bd8203ab931c6780c15d367713f",
                "assets": [
                    {
                        "address": "0x8e766f57f7d16ca50b4a0b90b88f6468a09b0439",
                        "amount": "29,500",
                        "iconUrl": "",
                        "isERC1155": false,
                        "isERC721": false,
                        "sign": false,
                        "value": ""
                    }
                ]
            },
            {
                "account": "0x9334167971fd0db554771b3c9f254bdf8d268e36",
                "assets": [
                    {
                        "address": "0x8e766f57f7d16ca50b4a0b90b88f6468a09b0439",
                        "amount": "29,500",
                        "iconUrl": "",
                        "isERC1155": false,
                        "isERC721": false,
                        "sign": true,
                        "value": ""
                    }
                ]
            }
        ]
    },
    "profile": {
        "basic_info": {
            "baseFee": "",
            "blockNumber": 8224408,
            "callData": "0xa9059cbb0000000000000000000000009334167971fd0db554771b3c9f254bdf8d268e3600000000000000000000000000000000000000000000063f32bd864d27700000",
            "debugEnable": true,
            "errorInfo": "",
            "eventCount": 1,
            "feeRecipient": "0xb2930b35844a230f00e51431acae96fe543a0347",
            "formatValue": "0",
            "gasLimit": 90000,
            "gasPrice": "33.333333333",
            "gasUsed": 38360,
            "intTxnCount": 0,
            "internalRevert": false,
            "internalRevertMessage": "",
            "isContractCreation": false,
            "isFlashloan": false,
            "maxFee": "",
            "nonce": 372943,
            "overwritedBlockNumber": -1,
            "priorityFee": "",
            "receiver": "0x8e766f57f7d16ca50b4a0b90b88f6468a09b0439",
            "revertMessage": "",
            "sender": "0xc5341278a92e2bd8203ab931c6780c15d367713f",
            "simulationEnable": true,
            "sourceTxnHash": "0x6a54763c545ae317c9879a96c48ca991e4c83f90d786d2b2df228793b8bed0f9",
            "status": true,
            "timestamp": "2019-07-26T05:55:40Z",
            "transactionFee": "0.00127866666665388",
            "txnHash": "0x6a54763c545ae317c9879a96c48ca991e4c83f90d786d2b2df228793b8bed0f9",
            "txnIndex": 13,
            "type": 0,
            "value": "0"
        },
        "fund_flow": [
            {
                "amount": "29,500",
                "from": "0xc5341278a92e2bd8203ab931c6780c15d367713f",
                "id": 1,
                "isERC1155": false,
                "isERC721": false,
                "isReverted": false,
                "order": 1,
                "to": "0x9334167971fd0db554771b3c9f254bdf8d268e36",
                "token": "0x8e766f57f7d16ca50b4a0b90b88f6468a09b0439"
            }
        ],
        "token_infos": [
            {
                "address": "0x8e766f57f7d16ca50b4a0b90b88f6468a09b0439",
                "decimals": 18
            },
            {
                "address": "0xc02aaa39b223fe8d0a0e5c4f27ead9083c756cc2",
                "decimals": 18
            },
            {
                "address": "0xeeeeeeeeeeeeeeeeeeeeeeeeeeeeeeeeeeeeeeee",
                "decimals": 18
            }
        ]
    },
    "address_label": {
        "labels": [
            {
                "address": "0x0000000000000000000000000000000000000002",
                "label": "Precompiled"
            },
            {
                "address": "0x0000000000000000000000000000000000000003",
                "label": "Precompiled"
            },
            {
                "address": "0x0000000000000000000000000000000000000004",
                "label": "Precompiled"
            },
            {
                "address": "0xeeeeeeeeeeeeeeeeeeeeeeeeeeeeeeeeeeeeeeee",
                "label": "Ether"
            },
            {
                "address": "0x8e766f57f7d16ca50b4a0b90b88f6468a09b0439",
                "label": "MaxiMine Coin"
            },
            {
                "address": "0x0000000000000000000000000000000000000001",
                "label": "Precompiled"
            }
        ]
    },
    "trace": {
        "accountLabels": null,
        "dataMap": {
            "-1": {
                "invocation": {
                    "address": "0xc5341278a92e2bd8203ab931c6780c15d367713f",
                    "callData": "",
                    "decodedMethod": null,
                    "errorInfo": "",
                    "fromAddress": "",
                    "gasUsed": 0,
                    "id": -1,
                    "methodDecoded": false,
                    "operation": "",
                    "output": "",
                    "revert": false,
                    "revertMessage": "",
                    "selector": "",
                    "status": false,
                    "value": ""
                },
                "nodeType": 0
            },
            "0": {
                "invocation": {
                    "address": "0x8e766f57f7d16ca50b4a0b90b88f6468a09b0439",
                    "callData": "0x0000000000000000000000009334167971fd0db554771b3c9f254bdf8d268e3600000000000000000000000000000000000000000000063f32bd864d27700000",
                    "decodedMethod": {
                        "callParams": [
                            {
                                "name": "_to",
                                "type": "address",
                                "value": "0x9334167971fd0db554771b3c9f254bdf8d268e36"
                            },
                            {
                                "decimalAvailable": true,
                                "name": "_value",
                                "type": "uint256",
                                "value": "29,500,000,000,000,000,000,000"
                            }
                        ],
                        "constructorArguments": "",
                        "name": "transfer",
                        "returnParams": [],
                        "signature": "transfer(address,uint256)"
                    },
                    "errorInfo": "",
                    "fromAddress": "0xc5341278a92e2bd8203ab931c6780c15d367713f",
                    "gasUsed": 38360,
                    "id": 0,
                    "methodDecoded": true,
                    "operation": "CALL",
                    "output": "",
                    "revert": false,
                    "revertMessage": "",
                    "selector": "0xa9059cbb",
                    "status": true,
                    "value": "0"
                },
                "nodeType": 0
            },
            "1": {
                "event": {
                    "contract": "0x8e766f57f7d16ca50b4a0b90b88f6468a09b0439",
                    "decodedLog": {
                        "name": "Transfer",
                        "params": [
                            {
                                "name": "from",
                                "type": "address",
                                "value": "0xc5341278a92e2bd8203ab931c6780c15d367713f"
                            },
                            {
                                "name": "to",
                                "type": "address",
                                "value": "0x9334167971fd0db554771b3c9f254bdf8d268e36"
                            },
                            {
                                "decimalAvailable": true,
                                "name": "value",
                                "type": "uint256",
                                "value": "29,500,000,000,000,000,000,000"
                            }
                        ],
                        "signature": "Transfer(address,address,uint256)"
                    },
                    "id": 1,
                    "logData": "0x00000000000000000000000000000000000000000000063f32bd864d27700000",
                    "logDecoded": true,
                    "operation": "EVENT",
                    "revert": false,
                    "status": true,
                    "topics": [
                        "0xddf252ad1be2c89b69c2b068fc378daa952ba7f163c4a11628f55a4df523b3ef",
                        "0x000000000000000000000000c5341278a92e2bd8203ab931c6780c15d367713f",
                        "0x0000000000000000000000009334167971fd0db554771b3c9f254bdf8d268e36"
                    ]
                },
                "nodeType": 1
            }
        },
        "gasFlame": [
            {
                "children": [
                    {
                        "children": [
                            {
                                "children": [],
                                "depth": 0,
                                "name": "Initial Gas",
                                "value": 23320
                            },
                            {
                                "children": [],
                                "depth": 0,
                                "name": "Executed Gas",
                                "value": 15040
                            }
                        ],
                        "depth": -1,
                        "name": "Actual Gas Used",
                        "value": 38360
                    },
                    {
                        "children": [],
                        "depth": -1,
                        "name": "Refunded Gas",
                        "value": 0
                    }
                ],
                "depth": -2,
                "name": "Total Gas",
                "value": 38360
            }
        ],
        "isConfirmed": true,
        "mainTrace": [
            {
                "children": [
                    {
                        "children": [
                            {
                                "children": [],
                                "depth": 1,
                                "id": 1,
                                "order": 1
                            }
                        ],
                        "depth": 0,
                        "id": 0,
                        "order": 0
                    }
                ],
                "depth": -1,
                "id": -1,
                "order": -1
            }
        ],
        "mainTraceNodeCount": 2,
        "parentIdMap": {
            "0": -1,
            "1": 0
        },
        "tidyTrace": [
            {
                "children": [
                    {
                        "children": [
                            {
                                "children": [],
                                "depth": 1,
                                "id": 1,
                                "order": 1
                            }
                        ],
                        "depth": 0,
                        "id": 0,
                        "order": 0
                    }
                ],
                "depth": -1,
                "id": -1,
                "order": -1
            }
        ],
        "tidyTraceNodeCount": 2
    },
    "state_change": {
        "stateChanges": [
            {
                "address": "0x8e766f57f7d16ca50b4a0b90b88f6468a09b0439",
                "erc": "",
                "slots": [
                    {
                        "current": "0x0000000000000000000000000000000000000000000f214ecdbc6bb672329c00",
                        "key": "0x8b36b727c4f8a4b24b3c1937a2dfba95ac4845ef8f866daf788be00b57345ecc",
                        "prev": "0x0000000000000000000000000000000000000000000f278e0079f20399a29c00"
                    },
                    {
                        "current": "0x000000000000000000000000000000000000000000000c328093e61ee4000000",
                        "key": "0x5d04d1189ce986266e98786561db0523d0a3d1e3ba8ab4066b592c06c93acfcb",
                        "prev": "0x0000000000000000000000000000000000000000000005f34dd65fd1bc900000"
                    }
                ],
                "storageVariables": [
                    {
                        "name": "balanceOf",
                        "type": "mapping(address => uint256)",
                        "value": {
                            "pairs": [
                                {
                                    "key": "0x9334167971fd0db554771b3c9f254bdf8d268e36",
                                    "value": {
                                        "current": "57600000000000000000000",
                                        "prev": "28100000000000000000000",
                                        "typeTag": 1
                                    }
                                },
                                {
                                    "key": "0xc5341278a92e2bd8203ab931c6780c15d367713f",
                                    "value": {
                                        "current": "18291179059034389998640128",
                                        "prev": "18320679059034389998640128",
                                        "typeTag": 1
                                    }
                                }
                            ],
                            "typeTag": 4
                        }
                    }
                ]
            }
        ]
    }
}