{
    "balance_change": {
        "balanceChanges": [
            {
                "account": "0xde32e13deb6d5e6d3fe82d4ea31c57f991e553f3",
                "assets": [
                    {
                        "address": "0xea819d7df063323a83d0741fba5ec442998265d2",
                        "amount": "34,278,000",
                        "iconUrl": "",
                        "isERC1155": false,
                        "isERC721": false,
                        "sign": true,
                        "value": ""
                    }
                ]
            },
            {
                "account": "0xbc9cbcc43305ca3fbb85793eafd16508e70a260f",
                "assets": [
                    {
                        "address": "0xea819d7df063323a83d0741fba5ec442998265d2",
                        "amount": "34,278,000",
                        "iconUrl": "",
                        "isERC1155": false,
                        "isERC721": false,
                        "sign": false,
                        "value": ""
                    }
                ]
            }
        ]
    },
    "profile": {
        "basic_info": {
            "baseFee": "",
            "blockNumber": 9254203,
            "callData": "0xa9059cbb000000000000000000000000de32e13deb6d5e6d3fe82d4ea31c57f991e553f300000000000000000000000000000000000000000000000000000000020b0a70",
            "debugEnable": true,
            "errorInfo": "",
            "eventCount": 1,
            "feeRecipient": "0x829bd824b016326a401d083b33d092293333a830",
            "formatValue": "0",
            "gasLimit": 100000,
            "gasPrice": "20",
            "gasUsed": 37619,
            "intTxnCount": 0,
            "internalRevert": false,
            "internalRevertMessage": "",
            "isContractCreation": false,
            "isFlashloan": false,
            "maxFee": "",
            "nonce": 669,
            "overwritedBlockNumber": -1,
            "priorityFee": "",
            "receiver": "0xea819d7df063323a83d0741fba5ec442998265d2",
            "revertMessage": "",
            "sender": "0xbc9cbcc43305ca3fbb85793eafd16508e70a260f",
            "simulationEnable": true,
            "sourceTxnHash": "0x6abf441d0feb7591ba5d8120e0e36ae04e07ec3206adc3687f80da507e7b86cc",
            "status": true,
            "timestamp": "2020-01-10T16:41:56Z",
            "transactionFee": "0.00075238",
            "txnHash": "0x6abf441d0feb7591ba5d8120e0e36ae04e07ec3206adc3687f80da507e7b86cc",
            "txnIndex": 29,
            "type": 0,
            "value": "0"
        },
        "fund_flow": [
            {
                "amount": "34,278,000",
                "from": "0xbc9cbcc43305ca3fbb85793eafd16508e70a260f",
                "id": 1,
                "isERC1155": false,
                "isERC721": false,
                "isReverted": false,
                "order": 1,
                "to": "0xde32e13deb6d5e6d3fe82d4ea31c57f991e553f3",
                "token": "0xea819d7df063323a83d0741fba5ec442998265d2"
            }
        ],
        "token_infos": [
            {
                "address": "0xeeeeeeeeeeeeeeeeeeeeeeeeeeeeeeeeeeeeeeee",
                "decimals": 18
            },
            {
                "address": "0xc02aaa39b223fe8d0a0e5c4f27ead9083c756cc2",
                "decimals": 18
            }
        ]
    },
    "address_label": {
        "labels": [
            {
                "address": "0xeeeeeeeeeeeeeeeeeeeeeeeeeeeeeeeeeeeeeeee",
                "label": "Ether"
            },
            {
                "address": "0xea819d7df063323a83d0741fba5ec442998265d2",
                "label": "AUDT"
            },
            {
                "address": "0x0000000000000000000000000000000000000001",
                "label": "Precompiled"
            },
            {
                "address": "0x0000000000000000000000000000000000000002",
                "label": "Precompiled"
            },
            {
                "address": "0x0000000000000000000000000000000000000003",
                "label": "Precompiled"
            },
            {
                "address": "0x0000000000000000000000000000000000000004",
                "label": "Precompiled"
            }
        ]
    },
    "trace": {
        "accountLabels": null,
        "dataMap": {
            "-1": {
                "invocation": {
                    "address": "0xbc9cbcc43305ca3fbb85793eafd16508e70a260f",
                    "callData": "",
                    "decodedMethod": null,
                    "errorInfo": "",
                    "fromAddress": "",
                    "gasUsed": 0,
                    "id": -1,
                    "methodDecoded": false,
                    "operation": "",
                    "output": "",
                    "revert": false,
                    "revertMessage": "",
                    "selector": "",
                    "status": false,
                    "value": ""
                },
                "nodeType": 0
            },
            "0": {
                "invocation": {
                    "address": "0xea819d7df063323a83d0741fba5ec442998265d2",
                    "callData": "0x000000000000000000000000de32e13deb6d5e6d3fe82d4ea31c57f991e553f300000000000000000000000000000000000000000000000000000000020b0a70",
                    "decodedMethod": {
                        "callParams": [
                            {
                                "name": "to",
                                "type": "address",
                                "value": "0xde32e13deb6d5e6d3fe82d4ea31c57f991e553f3"
                            },
                            {
                                "decimalAvailable": true,
                                "name": "value",
                                "type": "uint256",
                                "value": "34,278,000"
                            }
                        ],
                        "constructorArguments": "",
                        "name": "transfer",
                        "returnParams": [
                            {
                                "name": "",
                                "type": "bool",
                                "value": true
                            }
                        ],
                        "signature": "transfer(address,uint256)"
                    },
                    "errorInfo": "",
                    "fromAddress": "0xbc9cbcc43305ca3fbb85793eafd16508e70a260f",
                    "gasUsed": 37619,
                    "id": 0,
                    "methodDecoded": true,
                    "operation": "CALL",
                    "output": "0x0000000000000000000000000000000000000000000000000000000000000001",
                    "revert": false,
                    "revertMessage": "",
                    "selector": "0xa9059cbb",
                    "status": true,
                    "value": "0"
                },
                "nodeType": 0
            },
            "1": {
                "event": {
                    "contract": "0xea819d7df063323a83d0741fba5ec442998265d2",
                    "decodedLog": {
                        "name": "Transfer",
                        "params": [
                            {
                                "name": "from",
                                "type": "address",
                                "value": "0xbc9cbcc43305ca3fbb85793eafd16508e70a260f"
                            },
                            {
                                "name": "to",
                                "type": "address",
                                "value": "0xde32e13deb6d5e6d3fe82d4ea31c57f991e553f3"
                            },
                            {
                                "decimalAvailable": true,
                                "name": "value",
                                "type": "uint256",
                                "value": "34,278,000"
                            }
                        ],
                        "signature": "Transfer(address,address,uint256)"
                    },
                    "id": 1,
                    "logData": "0x00000000000000000000000000000000000000000000000000000000020b0a70",
                    "logDecoded": true,
                    "operation": "EVENT",
                    "revert": false,
                    "status": true,
                    "topics": [
                        "0xddf252ad1be2c89b69c2b068fc378daa952ba7f163c4a11628f55a4df523b3ef",
                        "0x000000000000000000000000bc9cbcc43305ca3fbb85793eafd16508e70a260f",
                        "0x000000000000000000000000de32e13deb6d5e6d3fe82d4ea31c57f991e553f3"
                    ]
                },
                "nodeType": 1
            }
        },
        "gasFlame": [
            {
                "children": [
                    {
                        "children": [
                            {
                                "children": [],
                                "depth": 0,
                                "name": "Initial Gas",
                                "value": 21608
                            },
                            {
                                "children": [],
                                "depth": 0,
                                "name": "Executed Gas",
                                "value": 16011
                            }
                        ],
                        "depth": -1,
                        "name": "Actual Gas Used",
                        "value": 37619
                    },
                    {
                        "children": [],
                        "depth": -1,
                        "name": "Refunded Gas",
                        "value": 0
                    }
                ],
                "depth": -2,
                "name": "Total Gas",
                "value": 37619
            }
        ],
        "isConfirmed": true,
        "mainTrace": [
            {
                "children": [
                    {
                        "children": [
                            {
                                "children": [],
                                "depth": 1,
                                "id": 1,
                                "order": 1
                            }
                        ],
                        "depth": 0,
                        "id": 0,
                        "order": 0
                    }
                ],
                "depth": -1,
                "id": -1,
                "order": -1
            }
        ],
        "mainTraceNodeCount": 2,
        "parentIdMap": {
            "0": -1,
            "1": 0
        },
        "tidyTrace": [
            {
                "children": [
                    {
                        "children": [
                            {
                                "children": [],
                                "depth": 1,
                                "id": 1,
                                "order": 1
                            }
                        ],
                        "depth": 0,
                        "id": 0,
                        "order": 0
                    }
                ],
                "depth": -1,
                "id": -1,
                "order": -1
            }
        ],
        "tidyTraceNodeCount": 2
    },
    "state_change": {
        "stateChanges": [
            {
                "address": "0xea819d7df063323a83d0741fba5ec442998265d2",
                "erc": "ERC-20",
                "slots": [
                    {
                        "current": "0x000000000000000000000000000000000000000000000000000000041d806170",
                        "key": "0x346d1a48140c4f5a38a3414c156dad5e961bc6b273752b95313263ff78189a92",
                        "prev": "0x000000000000000000000000000000000000000000000000000000041f8b6be0"
                    },
                    {
                        "current": "0x000000000000000000000000000000000000000000000000000000000bf470a8",
                        "key": "0x70b5fc90a76039c2fe91686a8179ea8cddf2e4e120714939250a272bbaec7c7c",
                        "prev": "0x0000000000000000000000000000000000000000000000000000000009e96638"
                    }
                ],
                "storageVariables": [
                    {
                        "name": "_balances",
                        "type": "mapping(address => uint256)",
                        "value": {
                            "pairs": [
                                {
                                    "key": "0xbc9cbcc43305ca3fbb85793eafd16508e70a260f",
                                    "value": {
                                        "current": "17674822000",
                                        "prev": "17709100000",
                                        "typeTag": 1
                                    }
                                },
                                {
                                    "key": "0xde32e13deb6d5e6d3fe82d4ea31c57f991e553f3",
                                    "value": {
                                        "current": "200569000",
                                        "prev": "166291000",
                                        "typeTag": 1
                                    }
                                }
                            ],
                            "typeTag": 4
                        }
                    }
                ]
            }
        ]
    }
}