{
    "balance_change": {
        "balanceChanges": [
            {
                "account": "0xfd99377a6caae4c3f74e25087250f164e328d35d",
                "assets": [
                    {
                        "address": "0xa487eed32c0f46db016d7b847d8d36cf8d63b2c3",
                        "amount": "31,781,110.08",
                        "iconUrl": "",
                        "isERC1155": false,
                        "isERC721": false,
                        "sign": false,
                        "value": "256.9388125"
                    },
                    {
                        "address": "0xeeeeeeeeeeeeeeeeeeeeeeeeeeeeeeeeeeeeeeee",
                        "amount": "0.213195106920091119",
                        "iconUrl": "https://assets.blocksec.com/image/1663669189317-3.png",
                        "isERC1155": false,
                        "isERC721": false,
                        "sign": true,
                        "value": "322.2645915"
                    }
                ]
            },
            {
                "account": "0x39ddf1cfdc2405888de7ac1c863de712252b508b",
                "assets": [
                    {
                        "address": "0xa487eed32c0f46db016d7b847d8d36cf8d63b2c3",
                        "amount": "32,289,415.76",
                        "iconUrl": "",
                        "isERC1155": false,
                        "isERC721": false,
                        "sign": true,
                        "value": "326.8387807"
                    },
                    {
                        "address": "0xc02aaa39b223fe8d0a0e5c4f27ead9083c756cc2",
                        "amount": "0.217038261747074781",
                        "iconUrl": "https://assets.blocksec.com/icon/f1cb2d02c471d545bbc7722daf3277fd852d98e63d118771af7047bd8256c516.png",
                        "isERC1155": false,
                        "isERC721": false,
                        "sign": false,
                        "value": "328.0738839"
                    }
                ]
            },
            {
                "account": "0x76475b766de295db3bdd1069843582206c2980f4",
                "assets": [
                    {
                        "address": "0xeeeeeeeeeeeeeeeeeeeeeeeeeeeeeeeeeeeeeeee",
                        "amount": "0.003843154826983662",
                        "iconUrl": "https://assets.blocksec.com/image/1663669189317-3.png",
                        "isERC1155": false,
                        "isERC721": false,
                        "sign": true,
                        "value": "5.80929242"
                    }
                ]
            },
            {
                "account": "0xa487eed32c0f46db016d7b847d8d36cf8d63b2c3",
                "assets": [
                    {
                        "address": "0xa487eed32c0f46db016d7b847d8d36cf8d63b2c3",
                        "amount": "508,305.68",
                        "iconUrl": "",
                        "isERC1155": false,
                        "isERC721": false,
                        "sign": false,
                        "value": "5.80929242"
                    }
                ]
            },
            {
                "account": "0xc02aaa39b223fe8d0a0e5c4f27ead9083c756cc2",
                "assets": [
                    {
                        "address": "0xeeeeeeeeeeeeeeeeeeeeeeeeeeeeeeeeeeeeeeee",
                        "amount": "0.217038261747074781",
                        "iconUrl": "https://assets.blocksec.com/image/1663669189317-3.png",
                        "isERC1155": false,
                        "isERC721": false,
                        "sign": false,
                        "value": "328.0738839"
                    },
                    {
                        "address": "0xc02aaa39b223fe8d0a0e5c4f27ead9083c756cc2",
                        "amount": "0.217038261747074781",
                        "iconUrl": "https://assets.blocksec.com/icon/f1cb2d02c471d545bbc7722daf3277fd852d98e63d118771af7047bd8256c516.png",
                        "isERC1155": false,
                        "isERC721": false,
                        "sign": true,
                        "value": "328.0738839"
                    }
                ]
            }
        ]
    },
    "profile": {
        "basic_info": {
            "baseFee": "21.689906532",
            "blockNumber": 16601460,
            "callData": "0x791ac94700000000000000000000000000000000000000000000000000759d1da996ee0000000000000000000000000000000000000000000000000002782bfcb284dae300000000000000000000000000000000000000000000000000000000000000a0000000000000000000000000fd99377a6caae4c3f74e25087250f164e328d35d0000000000000000000000000000000000000000000000000000000063e6cb0b0000000000000000000000000000000000000000000000000000000000000002000000000000000000000000a487eed32c0f46db016d7b847d8d36cf8d63b2c3000000000000000000000000c02aaa39b223fe8d0a0e5c4f27ead9083c756cc2",
            "debugEnable": true,
            "errorInfo": "",
            "eventCount": 13,
            "feeRecipient": "0x95222290dd7278aa3ddd389cc1e1d165cc4bafe5",
            "formatValue": "0",
            "gasLimit": 529755,
            "gasPrice": "24.689906532",
            "gasUsed": 272121,
            "intTxnCount": 25,
            "internalRevert": false,
            "internalRevertMessage": "",
            "isContractCreation": false,
            "isFlashloan": false,
            "maxFee": "35.534859798",
            "nonce": 39,
            "overwritedBlockNumber": -1,
            "priorityFee": "3",
            "receiver": "0x7a250d5630b4cf539739df2c5dacb4c659f2488d",
            "revertMessage": "",
            "sender": "0xfd99377a6caae4c3f74e25087250f164e328d35d",
            "simulationEnable": true,
            "sourceTxnHash": "0x6ae6204cb42eee6c3fb7225c16aa33ce886bee30d1279d658fd88d5ef45d9643",
            "status": true,
            "timestamp": "2023-02-10T22:52:11Z",
            "transactionFee": "0.006718642055394372",
            "txnHash": "0x6ae6204cb42eee6c3fb7225c16aa33ce886bee30d1279d658fd88d5ef45d9643",
            "txnIndex": 59,
            "type": 2,
            "value": "0"
        },
        "fund_flow": [
            {
                "amount": "508,305.68",
                "from": "0xa487eed32c0f46db016d7b847d8d36cf8d63b2c3",
                "id": 1,
                "isERC1155": false,
                "isERC721": false,
                "isReverted": false,
                "order": 1,
                "to": "0x39ddf1cfdc2405888de7ac1c863de712252b508b",
                "token": "0xa487eed32c0f46db016d7b847d8d36cf8d63b2c3"
            },
            {
                "amount": "0.217038261747074781",
                "from": "0x39ddf1cfdc2405888de7ac1c863de712252b508b",
                "id": 2,
                "isERC1155": false,
                "isERC721": false,
                "isReverted": false,
                "order": 2,
                "to": "0x7a250d5630b4cf539739df2c5dacb4c659f2488d",
                "token": "0xc02aaa39b223fe8d0a0e5c4f27ead9083c756cc2"
            },
            {
                "amount": "0.217038261747074781",
                "from": "0xc02aaa39b223fe8d0a0e5c4f27ead9083c756cc2",
                "id": 3,
                "isERC1155": false,
                "isERC721": false,
                "isReverted": false,
                "order": 3,
                "to": "0x7a250d5630b4cf539739df2c5dacb4c659f2488d",
                "token": "0xeeeeeeeeeeeeeeeeeeeeeeeeeeeeeeeeeeeeeeee"
            },
            {
                "amount": "0.217038261747074781",
                "from": "0x7a250d5630b4cf539739df2c5dacb4c659f2488d",
                "id": 4,
                "isERC1155": false,
                "isERC721": false,
                "isReverted": false,
                "order": 4,
                "to": "0xc02aaa39b223fe8d0a0e5c4f27ead9083c756cc2",
                "token": "0xc02aaa39b223fe8d0a0e5c4f27ead9083c756cc2"
            },
            {
                "amount": "0.003843154826983662",
                "from": "0x7a250d5630b4cf539739df2c5dacb4c659f2488d",
                "id": 5,
                "isERC1155": false,
                "isERC721": false,
                "isReverted": false,
                "order": 5,
                "to": "0xa487eed32c0f46db016d7b847d8d36cf8d63b2c3",
                "token": "0xeeeeeeeeeeeeeeeeeeeeeeeeeeeeeeeeeeeeeeee"
            },
            {
                "amount": "0.003843154826983662",
                "from": "0xa487eed32c0f46db016d7b847d8d36cf8d63b2c3",
                "id": 6,
                "isERC1155": false,
                "isERC721": false,
                "isReverted": false,
                "order": 6,
                "to": "0x76475b766de295db3bdd1069843582206c2980f4",
                "token": "0xeeeeeeeeeeeeeeeeeeeeeeeeeeeeeeeeeeeeeeee"
            },
            {
                "amount": "31,781,110.08",
                "from": "0xfd99377a6caae4c3f74e25087250f164e328d35d",
                "id": 7,
                "isERC1155": false,
                "isERC721": false,
                "isReverted": false,
                "order": 7,
                "to": "0x39ddf1cfdc2405888de7ac1c863de712252b508b",
                "token": "0xa487eed32c0f46db016d7b847d8d36cf8d63b2c3"
            },
            {
                "amount": "0.213195106920091119",
                "from": "0x7a250d5630b4cf539739df2c5dacb4c659f2488d",
                "id": 8,
                "isERC1155": false,
                "isERC721": false,
                "isReverted": false,
                "order": 8,
                "to": "0xfd99377a6caae4c3f74e25087250f164e328d35d",
                "token": "0xeeeeeeeeeeeeeeeeeeeeeeeeeeeeeeeeeeeeeeee"
            }
        ],
        "token_infos": [
            {
                "address": "0xa487eed32c0f46db016d7b847d8d36cf8d63b2c3",
                "decimals": 9
            },
            {
                "address": "0xc02aaa39b223fe8d0a0e5c4f27ead9083c756cc2",
                "decimals": 18
            },
            {
                "address": "0xeeeeeeeeeeeeeeeeeeeeeeeeeeeeeeeeeeeeeeee",
                "decimals": 18
            }
        ]
    },
    "address_label": {
        "labels": [
            {
                "address": "0x7a250d5630b4cf539739df2c5dacb4c659f2488d",
                "label": "Uniswap V2: Router 2"
            },
            {
                "address": "0xc02aaa39b223fe8d0a0e5c4f27ead9083c756cc2",
                "label": "Wrapped Ether (WETH)"
            },
            {
                "address": "0xa487eed32c0f46db016d7b847d8d36cf8d63b2c3",
                "label": "BridgeSwap Bot (BSB)"
            },
            {
                "address": "0x0000000000000000000000000000000000000003",
                "label": "Precompiled"
            },
            {
                "address": "0x0000000000000000000000000000000000000004",
                "label": "Precompiled"
            },
            {
                "address": "0xeeeeeeeeeeeeeeeeeeeeeeeeeeeeeeeeeeeeeeee",
                "label": "Ether"
            },
            {
                "address": "0x39ddf1cfdc2405888de7ac1c863de712252b508b",
                "label": "Uniswap V2: BSB 4"
            },
            {
                "address": "0x0000000000000000000000000000000000000001",
                "label": "Precompiled"
            },
            {
                "address": "0x0000000000000000000000000000000000000002",
                "label": "Precompiled"
            }
        ]
    },
    "trace": {
        "accountLabels": null,
        "dataMap": {
            "-1": {
                "invocation": {
                    "address": "0xfd99377a6caae4c3f74e25087250f164e328d35d",
                    "callData": "",
                    "decodedMethod": null,
                    "errorInfo": "",
                    "fromAddress": "",
                    "gasUsed": 0,
                    "id": -1,
                    "methodDecoded": false,
                    "operation": "",
                    "output": "",
                    "revert": false,
                    "revertMessage": "",
                    "selector": "",
                    "status": false,
                    "value": ""
                },
                "nodeType": 0
            },
            "0": {
                "invocation": {
                    "address": "0x7a250d5630b4cf539739df2c5dacb4c659f2488d",
                    "callData": "0x00000000000000000000000000000000000000000000000000759d1da996ee0000000000000000000000000000000000000000000000000002782bfcb284dae300000000000000000000000000000000000000000000000000000000000000a0000000000000000000000000fd99377a6caae4c3f74e25087250f164e328d35d0000000000000000000000000000000000000000000000000000000063e6cb0b0000000000000000000000000000000000000000000000000000000000000002000000000000000000000000a487eed32c0f46db016d7b847d8d36cf8d63b2c3000000000000000000000000c02aaa39b223fe8d0a0e5c4f27ead9083c756cc2",
                    "decodedMethod": {
                        "callParams": [
                            {
                                "name": "amountIn",
                                "type": "uint256",
                                "value": "33,105,323,000,000,000"
                            },
                            {
                                "name": "amountOutMin",
                                "type": "uint256",
                                "value": "177,940,549,607,938,787"
                            },
                            {
                                "name": "path",
                                "type": "address[]",
                                "value": [
                                    "0xa487eed32c0f46db016d7b847d8d36cf8d63b2c3",
                                    "0xc02aaa39b223fe8d0a0e5c4f27ead9083c756cc2"
                                ]
                            },
                            {
                                "name": "to",
                                "type": "address",
                                "value": "0xfd99377a6caae4c3f74e25087250f164e328d35d"
                            },
                            {
                                "name": "deadline",
                                "type": "uint256",
                                "value": "1,676,069,643"
                            }
                        ],
                        "constructorArguments": "",
                        "name": "swapExactTokensForETHSupportingFeeOnTransferTokens",
                        "returnParams": [],
                        "signature": "swapExactTokensForETHSupportingFeeOnTransferTokens(uint256,uint256,address[],address,uint256)"
                    },
                    "errorInfo": "",
                    "fromAddress": "0xfd99377a6caae4c3f74e25087250f164e328d35d",
                    "gasUsed": 272121,
                    "id": 0,
                    "methodDecoded": true,
                    "operation": "CALL",
                    "output": "",
                    "revert": false,
                    "revertMessage": "",
                    "selector": "0x791ac947",
                    "status": true,
                    "value": "0"
                },
                "nodeType": 0
            },
            "1": {
                "invocation": {
                    "address": "0xa487eed32c0f46db016d7b847d8d36cf8d63b2c3",
                    "callData": "0x000000000000000000000000fd99377a6caae4c3f74e25087250f164e328d35d00000000000000000000000039ddf1cfdc2405888de7ac1c863de712252b508b00000000000000000000000000000000000000000000000000759d1da996ee00",
                    "decodedMethod": {
                        "callParams": [
                            {
                                "name": "sender",
                                "type": "address",
                                "value": "0xfd99377a6caae4c3f74e25087250f164e328d35d"
                            },
                            {
                                "name": "recipient",
                                "type": "address",
                                "value": "0x39ddf1cfdc2405888de7ac1c863de712252b508b"
                            },
                            {
                                "decimalAvailable": true,
                                "name": "amount",
                                "type": "uint256",
                                "value": "33,105,323,000,000,000"
                            }
                        ],
                        "constructorArguments": "",
                        "name": "transferFrom",
                        "returnParams": [
                            {
                                "name": "",
                                "type": "bool",
                                "value": true
                            }
                        ],
                        "signature": "transferFrom(address,address,uint256)"
                    },
                    "errorInfo": "",
                    "fromAddress": "0x7a250d5630b4cf539739df2c5dacb4c659f2488d",
                    "gasUsed": 249138,
                    "id": 1,
                    "methodDecoded": true,
                    "operation": "CALL",
                    "output": "0x0000000000000000000000000000000000000000000000000000000000000001",
                    "revert": false,
                    "revertMessage": "",
                    "selector": "0x23b872dd",
                    "status": true,
                    "value": "0"
                },
                "nodeType": 0
            },
            "10": {
                "invocation": {
                    "address": "0x39ddf1cfdc2405888de7ac1c863de712252b508b",
                    "callData": "0x0000000000000000000000000000000000000000000000000000000000000000000000000000000000000000000000000000000000000000000da754364778ee0000000000000000000000007a250d5630b4cf539739df2c5dacb4c659f2488d00000000000000000000000000000000000000000000000000000000000000800000000000000000000000000000000000000000000000000000000000000000",
                    "decodedMethod": {
                        "callParams": [
                            {
                                "name": "amount0Out",
                                "type": "uint256",
                                "value": "0"
                            },
                            {
                                "name": "amount1Out",
                                "type": "uint256",
                                "value": "3,843,154,826,983,662"
                            },
                            {
                                "name": "to",
                                "type": "address",
                                "value": "0x7a250d5630b4cf539739df2c5dacb4c659f2488d"
                            },
                            {
                                "name": "data",
                                "type": "bytes",
                                "value": "0x"
                            }
                        ],
                        "constructorArguments": "",
                        "name": "swap",
                        "returnParams": [],
                        "signature": "swap(uint256,uint256,address,bytes)"
                    },
                    "errorInfo": "",
                    "fromAddress": "0x7a250d5630b4cf539739df2c5dacb4c659f2488d",
                    "gasUsed": 66951,
                    "id": 10,
                    "methodDecoded": true,
                    "operation": "CALL",
                    "output": "",
                    "revert": false,
                    "revertMessage": "",
                    "selector": "0x022c0d9f",
                    "status": true,
                    "value": "0"
                },
                "nodeType": 0
            },
            "11": {
                "invocation": {
                    "address": "0xc02aaa39b223fe8d0a0e5c4f27ead9083c756cc2",
                    "callData": "0x0000000000000000000000007a250d5630b4cf539739df2c5dacb4c659f2488d000000000000000000000000000000000000000000000000000da754364778ee",
                    "decodedMethod": {
                        "callParams": [
                            {
                                "name": "dst",
                                "type": "address",
                                "value": "0x7a250d5630b4cf539739df2c5dacb4c659f2488d"
                            },
                            {
                                "decimalAvailable": true,
                                "name": "wad",
                                "type": "uint256",
                                "value": "3,843,154,826,983,662"
                            }
                        ],
                        "constructorArguments": "",
                        "name": "transfer",
                        "returnParams": [
                            {
                                "name": "",
                                "type": "bool",
                                "value": true
                            }
                        ],
                        "signature": "transfer(address,uint256)"
                    },
                    "errorInfo": "",
                    "fromAddress": "0x39ddf1cfdc2405888de7ac1c863de712252b508b",
                    "gasUsed": 29962,
                    "id": 11,
                    "methodDecoded": true,
                    "operation": "CALL",
                    "output": "0x0000000000000000000000000000000000000000000000000000000000000001",
                    "revert": false,
                    "revertMessage": "",
                    "selector": "0xa9059cbb",
                    "status": true,
                    "value": "0"
                },
                "nodeType": 0
            },
            "12": {
                "event": {
                    "contract": "0xc02aaa39b223fe8d0a0e5c4f27ead9083c756cc2",
                    "decodedLog": {
                        "name": "Transfer",
                        "params": [
                            {
                                "name": "src",
                                "type": "address",
                                "value": "0x39ddf1cfdc2405888de7ac1c863de712252b508b"
                            },
                            {
                                "name": "dst",
                                "type": "address",
                                "value": "0x7a250d5630b4cf539739df2c5dacb4c659f2488d"
                            },
                            {
                                "decimalAvailable": true,
                                "name": "wad",
                                "type": "uint256",
                                "value": "3,843,154,826,983,662"
                            }
                        ],
                        "signature": "Transfer(address,address,uint256)"
                    },
                    "id": 12,
                    "logData": "0x000000000000000000000000000000000000000000000000000da754364778ee",
                    "logDecoded": true,
                    "operation": "EVENT",
                    "revert": false,
                    "status": true,
                    "topics": [
                        "0xddf252ad1be2c89b69c2b068fc378daa952ba7f163c4a11628f55a4df523b3ef",
                        "0x00000000000000000000000039ddf1cfdc2405888de7ac1c863de712252b508b",
                        "0x0000000000000000000000007a250d5630b4cf539739df2c5dacb4c659f2488d"
                    ]
                },
                "nodeType": 1
            },
            "13": {
                "invocation": {
                    "address": "0xa487eed32c0f46db016d7b847d8d36cf8d63b2c3",
                    "callData": "0x00000000000000000000000039ddf1cfdc2405888de7ac1c863de712252b508b",
                    "decodedMethod": {
                        "callParams": [
                            {
                                "name": "account",
                                "type": "address",
                                "value": "0x39ddf1cfdc2405888de7ac1c863de712252b508b"
                            }
                        ],
                        "constructorArguments": "",
                        "name": "balanceOf",
                        "returnParams": [
                            {
                                "decimalAvailable": true,
                                "name": "",
                                "type": "uint256",
                                "value": "253,845,332,484,936,303"
                            }
                        ],
                        "signature": "balanceOf(address)"
                    },
                    "errorInfo": "",
                    "fromAddress": "0x39ddf1cfdc2405888de7ac1c863de712252b508b",
                    "gasUsed": 2632,
                    "id": 13,
                    "methodDecoded": true,
                    "operation": "STATICCALL",
                    "output": "0x0000000000000000000000000000000000000000000000000385d6fc26a7d26f",
                    "revert": false,
                    "revertMessage": "",
                    "selector": "0x70a08231",
                    "status": true,
                    "value": "0"
                },
                "nodeType": 0
            },
            "14": {
                "invocation": {
                    "address": "0xc02aaa39b223fe8d0a0e5c4f27ead9083c756cc2",
                    "callData": "0x00000000000000000000000039ddf1cfdc2405888de7ac1c863de712252b508b",
                    "decodedMethod": {
                        "callParams": [
                            {
                                "name": "",
                                "type": "address",
                                "value": "0x39ddf1cfdc2405888de7ac1c863de712252b508b"
                            }
                        ],
                        "constructorArguments": "",
                        "name": "balanceOf",
                        "returnParams": [
                            {
                                "decimalAvailable": true,
                                "name": "",
                                "type": "uint256",
                                "value": "1,921,172,800,112,634,399"
                            }
                        ],
                        "signature": "balanceOf(address)"
                    },
                    "errorInfo": "",
                    "fromAddress": "0x39ddf1cfdc2405888de7ac1c863de712252b508b",
                    "gasUsed": 534,
                    "id": 14,
                    "methodDecoded": true,
                    "operation": "STATICCALL",
                    "output": "0x0000000000000000000000000000000000000000000000001aa9607b9edb2a1f",
                    "revert": false,
                    "revertMessage": "",
                    "selector": "0x70a08231",
                    "status": true,
                    "value": "0"
                },
                "nodeType": 0
            },
            "15": {
                "event": {
                    "contract": "0x39ddf1cfdc2405888de7ac1c863de712252b508b",
                    "decodedLog": {
                        "name": "Sync",
                        "params": [
                            {
                                "name": "reserve0",
                                "type": "uint112",
                                "value": "253,845,332,484,936,303"
                            },
                            {
                                "name": "reserve1",
                                "type": "uint112",
                                "value": "1,921,172,800,112,634,399"
                            }
                        ],
                        "signature": "Sync(uint112,uint112)"
                    },
                    "id": 15,
                    "logData": "0x0000000000000000000000000000000000000000000000000385d6fc26a7d26f0000000000000000000000000000000000000000000000001aa9607b9edb2a1f",
                    "logDecoded": true,
                    "operation": "EVENT",
                    "revert": false,
                    "status": true,
                    "topics": [
                        "0x1c411e9a96e071241c2f21f7726b17ae89e3cab4c78be50e062b03a9fffbbad1"
                    ]
                },
                "nodeType": 1
            },
            "16": {
                "event": {
                    "contract": "0x39ddf1cfdc2405888de7ac1c863de712252b508b",
                    "decodedLog": {
                        "name": "Swap",
                        "params": [
                            {
                                "name": "sender",
                                "type": "address",
                                "value": "0x7a250d5630b4cf539739df2c5dacb4c659f2488d"
                            },
                            {
                                "name": "to",
                                "type": "address",
                                "value": "0x7a250d5630b4cf539739df2c5dacb4c659f2488d"
                            },
                            {
                                "name": "amount0In",
                                "type": "uint256",
                                "value": "508,305,680,000,000"
                            },
                            {
                                "name": "amount1In",
                                "type": "uint256",
                                "value": "0"
                            },
                            {
                                "name": "amount0Out",
                                "type": "uint256",
                                "value": "0"
                            },
                            {
                                "name": "amount1Out",
                                "type": "uint256",
                                "value": "3,843,154,826,983,662"
                            }
                        ],
                        "signature": "Swap(address,uint256,uint256,uint256,uint256,address)"
                    },
                    "id": 16,
                    "logData": "0x0000000000000000000000000000000000000000000000000001ce4d237e640000000000000000000000000000000000000000000000000000000000000000000000000000000000000000000000000000000000000000000000000000000000000000000000000000000000000000000000000000000000000da754364778ee",
                    "logDecoded": true,
                    "operation": "EVENT",
                    "revert": false,
                    "status": true,
                    "topics": [
                        "0xd78ad95fa46c994b6551d0da85fc275fe613ce37657fb8d5e3d130840159d822",
                        "0x0000000000000000000000007a250d5630b4cf539739df2c5dacb4c659f2488d",
                        "0x0000000000000000000000007a250d5630b4cf539739df2c5dacb4c659f2488d"
                    ]
                },
                "nodeType": 1
            },
            "17": {
                "invocation": {
                    "address": "0xc02aaa39b223fe8d0a0e5c4f27ead9083c756cc2",
                    "callData": "0x0000000000000000000000007a250d5630b4cf539739df2c5dacb4c659f2488d",
                    "decodedMethod": {
                        "callParams": [
                            {
                                "name": "",
                                "type": "address",
                                "value": "0x7a250d5630b4cf539739df2c5dacb4c659f2488d"
                            }
                        ],
                        "constructorArguments": "",
                        "name": "balanceOf",
                        "returnParams": [
                            {
                                "decimalAvailable": true,
                                "name": "",
                                "type": "uint256",
                                "value": "3,843,154,826,983,662"
                            }
                        ],
                        "signature": "balanceOf(address)"
                    },
                    "errorInfo": "",
                    "fromAddress": "0x7a250d5630b4cf539739df2c5dacb4c659f2488d",
                    "gasUsed": 534,
                    "id": 17,
                    "methodDecoded": true,
                    "operation": "STATICCALL",
                    "output": "0x000000000000000000000000000000000000000000000000000da754364778ee",
                    "revert": false,
                    "revertMessage": "",
                    "selector": "0x70a08231",
                    "status": true,
                    "value": "0"
                },
                "nodeType": 0
            },
            "18": {
                "invocation": {
                    "address": "0xc02aaa39b223fe8d0a0e5c4f27ead9083c756cc2",
                    "callData": "0x000000000000000000000000000000000000000000000000000da754364778ee",
                    "decodedMethod": {
                        "callParams": [
                            {
                                "name": "wad",
                                "type": "uint256",
                                "value": "3,843,154,826,983,662"
                            }
                        ],
                        "constructorArguments": "",
                        "name": "withdraw",
                        "returnParams": [],
                        "signature": "withdraw(uint256)"
                    },
                    "errorInfo": "",
                    "fromAddress": "0x7a250d5630b4cf539739df2c5dacb4c659f2488d",
                    "gasUsed": 9223,
                    "id": 18,
                    "methodDecoded": true,
                    "operation": "CALL",
                    "output": "",
                    "revert": false,
                    "revertMessage": "",
                    "selector": "0x2e1a7d4d",
                    "status": true,
                    "value": "0"
                },
                "nodeType": 0
            },
            "19": {
                "invocation": {
                    "address": "0x7a250d5630b4cf539739df2c5dacb4c659f2488d",
                    "callData": "0x",
                    "decodedMethod": null,
                    "errorInfo": "",
                    "fromAddress": "0xc02aaa39b223fe8d0a0e5c4f27ead9083c756cc2",
                    "gasUsed": 83,
                    "id": 19,
                    "methodDecoded": false,
                    "operation": "CALL",
                    "output": "",
                    "revert": false,
                    "revertMessage": "",
                    "selector": "fallback",
                    "status": true,
                    "value": "0.003843154826983662"
                },
                "nodeType": 0
            },
            "2": {
                "invocation": {
                    "address": "0x7a250d5630b4cf539739df2c5dacb4c659f2488d",
                    "callData": "0x",
                    "decodedMethod": {
                        "callParams": [],
                        "constructorArguments": "",
                        "name": "WETH",
                        "returnParams": [
                            {
                                "name": "",
                                "type": "address",
                                "value": "0xc02aaa39b223fe8d0a0e5c4f27ead9083c756cc2"
                            }
                        ],
                        "signature": "WETH()"
                    },
                    "errorInfo": "",
                    "fromAddress": "0xa487eed32c0f46db016d7b847d8d36cf8d63b2c3",
                    "gasUsed": 275,
                    "id": 2,
                    "methodDecoded": true,
                    "operation": "STATICCALL",
                    "output": "0x000000000000000000000000c02aaa39b223fe8d0a0e5c4f27ead9083c756cc2",
                    "revert": false,
                    "revertMessage": "",
                    "selector": "0xad5c4648",
                    "status": true,
                    "value": "0"
                },
                "nodeType": 0
            },
            "20": {
                "event": {
                    "contract": "0xc02aaa39b223fe8d0a0e5c4f27ead9083c756cc2",
                    "decodedLog": {
                        "name": "Withdrawal",
                        "params": [
                            {
                                "name": "src",
                                "type": "address",
                                "value": "0x7a250d5630b4cf539739df2c5dacb4c659f2488d"
                            },
                            {
                                "name": "wad",
                                "type": "uint256",
                                "value": "3,843,154,826,983,662"
                            }
                        ],
                        "signature": "Withdrawal(address,uint256)"
                    },
                    "id": 20,
                    "logData": "0x000000000000000000000000000000000000000000000000000da754364778ee",
                    "logDecoded": true,
                    "operation": "EVENT",
                    "revert": false,
                    "status": true,
                    "topics": [
                        "0x7fcf532c15f0a6db0bd6d0e038bea71d30d808c7d98cb3bf7268a95bf5081b65",
                        "0x0000000000000000000000007a250d5630b4cf539739df2c5dacb4c659f2488d"
                    ]
                },
                "nodeType": 1
            },
            "21": {
                "invocation": {
                    "address": "0xa487eed32c0f46db016d7b847d8d36cf8d63b2c3",
                    "callData": "0x",
                    "decodedMethod": null,
                    "errorInfo": "",
                    "fromAddress": "0x7a250d5630b4cf539739df2c5dacb4c659f2488d",
                    "gasUsed": 55,
                    "id": 21,
                    "methodDecoded": false,
                    "operation": "CALL",
                    "output": "",
                    "revert": false,
                    "revertMessage": "",
                    "selector": "fallback",
                    "status": true,
                    "value": "0.003843154826983662"
                },
                "nodeType": 0
            },
            "22": {
                "invocation": {
                    "address": "0x76475b766de295db3bdd1069843582206c2980f4",
                    "callData": "0x",
                    "decodedMethod": null,
                    "errorInfo": "",
                    "fromAddress": "0xa487eed32c0f46db016d7b847d8d36cf8d63b2c3",
                    "gasUsed": 0,
                    "id": 22,
                    "methodDecoded": false,
                    "operation": "CALL",
                    "output": "",
                    "revert": false,
                    "revertMessage": "",
                    "selector": "fallback",
                    "status": true,
                    "value": "0.003843154826983662"
                },
                "nodeType": 0
            },
            "23": {
                "event": {
                    "contract": "0xa487eed32c0f46db016d7b847d8d36cf8d63b2c3",
                    "decodedLog": {
                        "name": "Transfer",
                        "params": [
                            {
                                "name": "from",
                                "type": "address",
                                "value": "0xfd99377a6caae4c3f74e25087250f164e328d35d"
                            },
                            {
                                "name": "to",
                                "type": "address",
                                "value": "0x39ddf1cfdc2405888de7ac1c863de712252b508b"
                            },
                            {
                                "decimalAvailable": true,
                                "name": "value",
                                "type": "uint256",
                                "value": "31,781,110,080,000,000"
                            }
                        ],
                        "signature": "Transfer(address,address,uint256)"
                    },
                    "id": 23,
                    "logData": "0x0000000000000000000000000000000000000000000000000070e8c050e2d000",
                    "logDecoded": true,
                    "operation": "EVENT",
                    "revert": false,
                    "status": true,
                    "topics": [
                        "0xddf252ad1be2c89b69c2b068fc378daa952ba7f163c4a11628f55a4df523b3ef",
                        "0x000000000000000000000000fd99377a6caae4c3f74e25087250f164e328d35d",
                        "0x00000000000000000000000039ddf1cfdc2405888de7ac1c863de712252b508b"
                    ]
                },
                "nodeType": 1
            },
            "24": {
                "event": {
                    "contract": "0xa487eed32c0f46db016d7b847d8d36cf8d63b2c3",
                    "decodedLog": {
                        "name": "Approval",
                        "params": [
                            {
                                "name": "owner",
                                "type": "address",
                                "value": "0xfd99377a6caae4c3f74e25087250f164e328d35d"
                            },
                            {
                                "name": "spender",
                                "type": "address",
                                "value": "0x7a250d5630b4cf539739df2c5dacb4c659f2488d"
                            },
                            {
                                "decimalAvailable": true,
                                "name": "value",
                                "type": "uint256",
                                "value": "115,792,089,237,316,195,423,570,985,008,687,907,853,269,984,665,640,564,039,457,550,902,590,129,639,935"
                            }
                        ],
                        "signature": "Approval(address,address,uint256)"
                    },
                    "id": 24,
                    "logData": "0xffffffffffffffffffffffffffffffffffffffffffffffffff8a62e2566911ff",
                    "logDecoded": true,
                    "operation": "EVENT",
                    "revert": false,
                    "status": true,
                    "topics": [
                        "0x8c5be1e5ebec7d5bd14f71427d1e84f3dd0314c0f7b2291e5b200ac8c7c3b925",
                        "0x000000000000000000000000fd99377a6caae4c3f74e25087250f164e328d35d",
                        "0x0000000000000000000000007a250d5630b4cf539739df2c5dacb4c659f2488d"
                    ]
                },
                "nodeType": 1
            },
            "25": {
                "invocation": {
                    "address": "0x39ddf1cfdc2405888de7ac1c863de712252b508b",
                    "callData": "0x",
                    "decodedMethod": {
                        "callParams": [],
                        "constructorArguments": "",
                        "name": "getReserves",
                        "returnParams": [
                            {
                                "name": "_reserve0",
                                "type": "uint112",
                                "value": "253,845,332,484,936,303"
                            },
                            {
                                "name": "_reserve1",
                                "type": "uint112",
                                "value": "1,921,172,800,112,634,399"
                            },
                            {
                                "name": "_blockTimestampLast",
                                "type": "uint32",
                                "value": "1,676,069,531"
                            }
                        ],
                        "signature": "getReserves()"
                    },
                    "errorInfo": "",
                    "fromAddress": "0x7a250d5630b4cf539739df2c5dacb4c659f2488d",
                    "gasUsed": 504,
                    "id": 25,
                    "methodDecoded": true,
                    "operation": "STATICCALL",
                    "output": "0x0000000000000000000000000000000000000000000000000385d6fc26a7d26f0000000000000000000000000000000000000000000000001aa9607b9edb2a1f0000000000000000000000000000000000000000000000000000000063e6ca9b",
                    "revert": false,
                    "revertMessage": "",
                    "selector": "0x0902f1ac",
                    "status": true,
                    "value": "0"
                },
                "nodeType": 0
            },
            "26": {
                "invocation": {
                    "address": "0xa487eed32c0f46db016d7b847d8d36cf8d63b2c3",
                    "callData": "0x00000000000000000000000039ddf1cfdc2405888de7ac1c863de712252b508b",
                    "decodedMethod": {
                        "callParams": [
                            {
                                "name": "account",
                                "type": "address",
                                "value": "0x39ddf1cfdc2405888de7ac1c863de712252b508b"
                            }
                        ],
                        "constructorArguments": "",
                        "name": "balanceOf",
                        "returnParams": [
                            {
                                "decimalAvailable": true,
                                "name": "",
                                "type": "uint256",
                                "value": "285,626,442,564,936,303"
                            }
                        ],
                        "signature": "balanceOf(address)"
                    },
                    "errorInfo": "",
                    "fromAddress": "0x7a250d5630b4cf539739df2c5dacb4c659f2488d",
                    "gasUsed": 2632,
                    "id": 26,
                    "methodDecoded": true,
                    "operation": "STATICCALL",
                    "output": "0x00000000000000000000000000000000000000000000000003f6bfbc778aa26f",
                    "revert": false,
                    "revertMessage": "",
                    "selector": "0x70a08231",
                    "status": true,
                    "value": "0"
                },
                "nodeType": 0
            },
            "27": {
                "invocation": {
                    "address": "0x39ddf1cfdc2405888de7ac1c863de712252b508b",
                    "callData": "0x000000000000000000000000000000000000000000000000000000000000000000000000000000000000000000000000000000000000000002f56bd1f7d2cdef0000000000000000000000007a250d5630b4cf539739df2c5dacb4c659f2488d00000000000000000000000000000000000000000000000000000000000000800000000000000000000000000000000000000000000000000000000000000000",
                    "decodedMethod": {
                        "callParams": [
                            {
                                "name": "amount0Out",
                                "type": "uint256",
                                "value": "0"
                            },
                            {
                                "name": "amount1Out",
                                "type": "uint256",
                                "value": "213,195,106,920,091,119"
                            },
                            {
                                "name": "to",
                                "type": "address",
                                "value": "0x7a250d5630b4cf539739df2c5dacb4c659f2488d"
                            },
                            {
                                "name": "data",
                                "type": "bytes",
                                "value": "0x"
                            }
                        ],
                        "constructorArguments": "",
                        "name": "swap",
                        "returnParams": [],
                        "signature": "swap(uint256,uint256,address,bytes)"
                    },
                    "errorInfo": "",
                    "fromAddress": "0x7a250d5630b4cf539739df2c5dacb4c659f2488d",
                    "gasUsed": 38435,
                    "id": 27,
                    "methodDecoded": true,
                    "operation": "CALL",
                    "output": "",
                    "revert": false,
                    "revertMessage": "",
                    "selector": "0x022c0d9f",
                    "status": true,
                    "value": "0"
                },
                "nodeType": 0
            },
            "28": {
                "invocation": {
                    "address": "0xc02aaa39b223fe8d0a0e5c4f27ead9083c756cc2",
                    "callData": "0x0000000000000000000000007a250d5630b4cf539739df2c5dacb4c659f2488d00000000000000000000000000000000000000000000000002f56bd1f7d2cdef",
                    "decodedMethod": {
                        "callParams": [
                            {
                                "name": "dst",
                                "type": "address",
                                "value": "0x7a250d5630b4cf539739df2c5dacb4c659f2488d"
                            },
                            {
                                "decimalAvailable": true,
                                "name": "wad",
                                "type": "uint256",
                                "value": "213,195,106,920,091,119"
                            }
                        ],
                        "constructorArguments": "",
                        "name": "transfer",
                        "returnParams": [
                            {
                                "name": "",
                                "type": "bool",
                                "value": true
                            }
                        ],
                        "signature": "transfer(address,uint256)"
                    },
                    "errorInfo": "",
                    "fromAddress": "0x39ddf1cfdc2405888de7ac1c863de712252b508b",
                    "gasUsed": 23162,
                    "id": 28,
                    "methodDecoded": true,
                    "operation": "CALL",
                    "output": "0x0000000000000000000000000000000000000000000000000000000000000001",
                    "revert": false,
                    "revertMessage": "",
                    "selector": "0xa9059cbb",
                    "status": true,
                    "value": "0"
                },
                "nodeType": 0
            },
            "29": {
                "event": {
                    "contract": "0xc02aaa39b223fe8d0a0e5c4f27ead9083c756cc2",
                    "decodedLog": {
                        "name": "Transfer",
                        "params": [
                            {
                                "name": "src",
                                "type": "address",
                                "value": "0x39ddf1cfdc2405888de7ac1c863de712252b508b"
                            },
                            {
                                "name": "dst",
                                "type": "address",
                                "value": "0x7a250d5630b4cf539739df2c5dacb4c659f2488d"
                            },
                            {
                                "decimalAvailable": true,
                                "name": "wad",
                                "type": "uint256",
                                "value": "213,195,106,920,091,119"
                            }
                        ],
                        "signature": "Transfer(address,address,uint256)"
                    },
                    "id": 29,
                    "logData": "0x00000000000000000000000000000000000000000000000002f56bd1f7d2cdef",
                    "logDecoded": true,
                    "operation": "EVENT",
                    "revert": false,
                    "status": true,
                    "topics": [
                        "0xddf252ad1be2c89b69c2b068fc378daa952ba7f163c4a11628f55a4df523b3ef",
                        "0x00000000000000000000000039ddf1cfdc2405888de7ac1c863de712252b508b",
                        "0x0000000000000000000000007a250d5630b4cf539739df2c5dacb4c659f2488d"
                    ]
                },
                "nodeType": 1
            },
            "3": {
                "event": {
                    "contract": "0xa487eed32c0f46db016d7b847d8d36cf8d63b2c3",
                    "decodedLog": {
                        "name": "Approval",
                        "params": [
                            {
                                "name": "owner",
                                "type": "address",
                                "value": "0xa487eed32c0f46db016d7b847d8d36cf8d63b2c3"
                            },
                            {
                                "name": "spender",
                                "type": "address",
                                "value": "0x7a250d5630b4cf539739df2c5dacb4c659f2488d"
                            },
                            {
                                "decimalAvailable": true,
                                "name": "value",
                                "type": "uint256",
                                "value": "508,305,680,000,000"
                            }
                        ],
                        "signature": "Approval(address,address,uint256)"
                    },
                    "id": 3,
                    "logData": "0x0000000000000000000000000000000000000000000000000001ce4d237e6400",
                    "logDecoded": true,
                    "operation": "EVENT",
                    "revert": false,
                    "status": true,
                    "topics": [
                        "0x8c5be1e5ebec7d5bd14f71427d1e84f3dd0314c0f7b2291e5b200ac8c7c3b925",
                        "0x000000000000000000000000a487eed32c0f46db016d7b847d8d36cf8d63b2c3",
                        "0x0000000000000000000000007a250d5630b4cf539739df2c5dacb4c659f2488d"
                    ]
                },
                "nodeType": 1
            },
            "30": {
                "invocation": {
                    "address": "0xa487eed32c0f46db016d7b847d8d36cf8d63b2c3",
                    "callData": "0x00000000000000000000000039ddf1cfdc2405888de7ac1c863de712252b508b",
                    "decodedMethod": {
                        "callParams": [
                            {
                                "name": "account",
                                "type": "address",
                                "value": "0x39ddf1cfdc2405888de7ac1c863de712252b508b"
                            }
                        ],
                        "constructorArguments": "",
                        "name": "balanceOf",
                        "returnParams": [
                            {
                                "decimalAvailable": true,
                                "name": "",
                                "type": "uint256",
                                "value": "285,626,442,564,936,303"
                            }
                        ],
                        "signature": "balanceOf(address)"
                    },
                    "errorInfo": "",
                    "fromAddress": "0x39ddf1cfdc2405888de7ac1c863de712252b508b",
                    "gasUsed": 2632,
                    "id": 30,
                    "methodDecoded": true,
                    "operation": "STATICCALL",
                    "output": "0x00000000000000000000000000000000000000000000000003f6bfbc778aa26f",
                    "revert": false,
                    "revertMessage": "",
                    "selector": "0x70a08231",
                    "status": true,
                    "value": "0"
                },
                "nodeType": 0
            },
            "31": {
                "invocation": {
                    "address": "0xc02aaa39b223fe8d0a0e5c4f27ead9083c756cc2",
                    "callData": "0x00000000000000000000000039ddf1cfdc2405888de7ac1c863de712252b508b",
                    "decodedMethod": {
                        "callParams": [
                            {
                                "name": "",
                                "type": "address",
                                "value": "0x39ddf1cfdc2405888de7ac1c863de712252b508b"
                            }
                        ],
                        "constructorArguments": "",
                        "name": "balanceOf",
                        "returnParams": [
                            {
                                "decimalAvailable": true,
                                "name": "",
                                "type": "uint256",
                                "value": "1,707,977,693,192,543,280"
                            }
                        ],
                        "signature": "balanceOf(address)"
                    },
                    "errorInfo": "",
                    "fromAddress": "0x39ddf1cfdc2405888de7ac1c863de712252b508b",
                    "gasUsed": 534,
                    "id": 31,
                    "methodDecoded": true,
                    "operation": "STATICCALL",
                    "output": "0x00000000000000000000000000000000000000000000000017b3f4a9a7085c30",
                    "revert": false,
                    "revertMessage": "",
                    "selector": "0x70a08231",
                    "status": true,
                    "value": "0"
                },
                "nodeType": 0
            },
            "32": {
                "event": {
                    "contract": "0x39ddf1cfdc2405888de7ac1c863de712252b508b",
                    "decodedLog": {
                        "name": "Sync",
                        "params": [
                            {
                                "name": "reserve0",
                                "type": "uint112",
                                "value": "285,626,442,564,936,303"
                            },
                            {
                                "name": "reserve1",
                                "type": "uint112",
                                "value": "1,707,977,693,192,543,280"
                            }
                        ],
                        "signature": "Sync(uint112,uint112)"
                    },
                    "id": 32,
                    "logData": "0x00000000000000000000000000000000000000000000000003f6bfbc778aa26f00000000000000000000000000000000000000000000000017b3f4a9a7085c30",
                    "logDecoded": true,
                    "operation": "EVENT",
                    "revert": false,
                    "status": true,
                    "topics": [
                        "0x1c411e9a96e071241c2f21f7726b17ae89e3cab4c78be50e062b03a9fffbbad1"
                    ]
                },
                "nodeType": 1
            },
            "33": {
                "event": {
                    "contract": "0x39ddf1cfdc2405888de7ac1c863de712252b508b",
                    "decodedLog": {
                        "name": "Swap",
                        "params": [
                            {
                                "name": "sender",
                                "type": "address",
                                "value": "0x7a250d5630b4cf539739df2c5dacb4c659f2488d"
                            },
                            {
                                "name": "to",
                                "type": "address",
                                "value": "0x7a250d5630b4cf539739df2c5dacb4c659f2488d"
                            },
                            {
                                "name": "amount0In",
                                "type": "uint256",
                                "value": "31,781,110,080,000,000"
                            },
                            {
                                "name": "amount1In",
                                "type": "uint256",
                                "value": "0"
                            },
                            {
                                "name": "amount0Out",
                                "type": "uint256",
                                "value": "0"
                            },
                            {
                                "name": "amount1Out",
                                "type": "uint256",
                                "value": "213,195,106,920,091,119"
                            }
                        ],
                        "signature": "Swap(address,uint256,uint256,uint256,uint256,address)"
                    },
                    "id": 33,
                    "logData": "0x0000000000000000000000000000000000000000000000000070e8c050e2d0000000000000000000000000000000000000000000000000000000000000000000000000000000000000000000000000000000000000000000000000000000000000000000000000000000000000000000000000000000000002f56bd1f7d2cdef",
                    "logDecoded": true,
                    "operation": "EVENT",
                    "revert": false,
                    "status": true,
                    "topics": [
                        "0xd78ad95fa46c994b6551d0da85fc275fe613ce37657fb8d5e3d130840159d822",
                        "0x0000000000000000000000007a250d5630b4cf539739df2c5dacb4c659f2488d",
                        "0x0000000000000000000000007a250d5630b4cf539739df2c5dacb4c659f2488d"
                    ]
                },
                "nodeType": 1
            },
            "34": {
                "invocation": {
                    "address": "0xc02aaa39b223fe8d0a0e5c4f27ead9083c756cc2",
                    "callData": "0x0000000000000000000000007a250d5630b4cf539739df2c5dacb4c659f2488d",
                    "decodedMethod": {
                        "callParams": [
                            {
                                "name": "",
                                "type": "address",
                                "value": "0x7a250d5630b4cf539739df2c5dacb4c659f2488d"
                            }
                        ],
                        "constructorArguments": "",
                        "name": "balanceOf",
                        "returnParams": [
                            {
                                "decimalAvailable": true,
                                "name": "",
                                "type": "uint256",
                                "value": "213,195,106,920,091,119"
                            }
                        ],
                        "signature": "balanceOf(address)"
                    },
                    "errorInfo": "",
                    "fromAddress": "0x7a250d5630b4cf539739df2c5dacb4c659f2488d",
                    "gasUsed": 534,
                    "id": 34,
                    "methodDecoded": true,
                    "operation": "STATICCALL",
                    "output": "0x00000000000000000000000000000000000000000000000002f56bd1f7d2cdef",
                    "revert": false,
                    "revertMessage": "",
                    "selector": "0x70a08231",
                    "status": true,
                    "value": "0"
                },
                "nodeType": 0
            },
            "35": {
                "invocation": {
                    "address": "0xc02aaa39b223fe8d0a0e5c4f27ead9083c756cc2",
                    "callData": "0x00000000000000000000000000000000000000000000000002f56bd1f7d2cdef",
                    "decodedMethod": {
                        "callParams": [
                            {
                                "name": "wad",
                                "type": "uint256",
                                "value": "213,195,106,920,091,119"
                            }
                        ],
                        "constructorArguments": "",
                        "name": "withdraw",
                        "returnParams": [],
                        "signature": "withdraw(uint256)"
                    },
                    "errorInfo": "",
                    "fromAddress": "0x7a250d5630b4cf539739df2c5dacb4c659f2488d",
                    "gasUsed": 9223,
                    "id": 35,
                    "methodDecoded": true,
                    "operation": "CALL",
                    "output": "",
                    "revert": false,
                    "revertMessage": "",
                    "selector": "0x2e1a7d4d",
                    "status": true,
                    "value": "0"
                },
                "nodeType": 0
            },
            "36": {
                "invocation": {
                    "address": "0x7a250d5630b4cf539739df2c5dacb4c659f2488d",
                    "callData": "0x",
                    "decodedMethod": null,
                    "errorInfo": "",
                    "fromAddress": "0xc02aaa39b223fe8d0a0e5c4f27ead9083c756cc2",
                    "gasUsed": 83,
                    "id": 36,
                    "methodDecoded": false,
                    "operation": "CALL",
                    "output": "",
                    "revert": false,
                    "revertMessage": "",
                    "selector": "fallback",
                    "status": true,
                    "value": "0.213195106920091119"
                },
                "nodeType": 0
            },
            "37": {
                "event": {
                    "contract": "0xc02aaa39b223fe8d0a0e5c4f27ead9083c756cc2",
                    "decodedLog": {
                        "name": "Withdrawal",
                        "params": [
                            {
                                "name": "src",
                                "type": "address",
                                "value": "0x7a250d5630b4cf539739df2c5dacb4c659f2488d"
                            },
                            {
                                "name": "wad",
                                "type": "uint256",
                                "value": "213,195,106,920,091,119"
                            }
                        ],
                        "signature": "Withdrawal(address,uint256)"
                    },
                    "id": 37,
                    "logData": "0x00000000000000000000000000000000000000000000000002f56bd1f7d2cdef",
                    "logDecoded": true,
                    "operation": "EVENT",
                    "revert": false,
                    "status": true,
                    "topics": [
                        "0x7fcf532c15f0a6db0bd6d0e038bea71d30d808c7d98cb3bf7268a95bf5081b65",
                        "0x0000000000000000000000007a250d5630b4cf539739df2c5dacb4c659f2488d"
                    ]
                },
                "nodeType": 1
            },
            "38": {
                "invocation": {
                    "address": "0xfd99377a6caae4c3f74e25087250f164e328d35d",
                    "callData": "0x",
                    "decodedMethod": null,
                    "errorInfo": "",
                    "fromAddress": "0x7a250d5630b4cf539739df2c5dacb4c659f2488d",
                    "gasUsed": 0,
                    "id": 38,
                    "methodDecoded": false,
                    "operation": "CALL",
                    "output": "",
                    "revert": false,
                    "revertMessage": "",
                    "selector": "fallback",
                    "status": true,
                    "value": "0.213195106920091119"
                },
                "nodeType": 0
            },
            "4": {
                "invocation": {
                    "address": "0x7a250d5630b4cf539739df2c5dacb4c659f2488d",
                    "callData": "0x0000000000000000000000000000000000000000000000000001ce4d237e6400000000000000000000000000000000000000000000000000000000000000000000000000000000000000000000000000000000000000000000000000000000a0000000000000000000000000a487eed32c0f46db016d7b847d8d36cf8d63b2c30000000000000000000000000000000000000000000000000000000063e6ca9b0000000000000000000000000000000000000000000000000000000000000002000000000000000000000000a487eed32c0f46db016d7b847d8d36cf8d63b2c3000000000000000000000000c02aaa39b223fe8d0a0e5c4f27ead9083c756cc2",
                    "decodedMethod": {
                        "callParams": [
                            {
                                "name": "amountIn",
                                "type": "uint256",
                                "value": "508,305,680,000,000"
                            },
                            {
                                "name": "amountOutMin",
                                "type": "uint256",
                                "value": "0"
                            },
                            {
                                "name": "path",
                                "type": "address[]",
                                "value": [
                                    "0xa487eed32c0f46db016d7b847d8d36cf8d63b2c3",
                                    "0xc02aaa39b223fe8d0a0e5c4f27ead9083c756cc2"
                                ]
                            },
                            {
                                "name": "to",
                                "type": "address",
                                "value": "0xa487eed32c0f46db016d7b847d8d36cf8d63b2c3"
                            },
                            {
                                "name": "deadline",
                                "type": "uint256",
                                "value": "1,676,069,531"
                            }
                        ],
                        "constructorArguments": "",
                        "name": "swapExactTokensForETHSupportingFeeOnTransferTokens",
                        "returnParams": [],
                        "signature": "swapExactTokensForETHSupportingFeeOnTransferTokens(uint256,uint256,address[],address,uint256)"
                    },
                    "errorInfo": "",
                    "fromAddress": "0xa487eed32c0f46db016d7b847d8d36cf8d63b2c3",
                    "gasUsed": 145948,
                    "id": 4,
                    "methodDecoded": true,
                    "operation": "CALL",
                    "output": "",
                    "revert": false,
                    "revertMessage": "",
                    "selector": "0x791ac947",
                    "status": true,
                    "value": "0"
                },
                "nodeType": 0
            },
            "5": {
                "invocation": {
                    "address": "0xa487eed32c0f46db016d7b847d8d36cf8d63b2c3",
                    "callData": "0x000000000000000000000000a487eed32c0f46db016d7b847d8d36cf8d63b2c300000000000000000000000039ddf1cfdc2405888de7ac1c863de712252b508b0000000000000000000000000000000000000000000000000001ce4d237e6400",
                    "decodedMethod": {
                        "callParams": [
                            {
                                "name": "sender",
                                "type": "address",
                                "value": "0xa487eed32c0f46db016d7b847d8d36cf8d63b2c3"
                            },
                            {
                                "name": "recipient",
                                "type": "address",
                                "value": "0x39ddf1cfdc2405888de7ac1c863de712252b508b"
                            },
                            {
                                "decimalAvailable": true,
                                "name": "amount",
                                "type": "uint256",
                                "value": "508,305,680,000,000"
                            }
                        ],
                        "constructorArguments": "",
                        "name": "transferFrom",
                        "returnParams": [
                            {
                                "name": "",
                                "type": "bool",
                                "value": true
                            }
                        ],
                        "signature": "transferFrom(address,address,uint256)"
                    },
                    "errorInfo": "",
                    "fromAddress": "0x7a250d5630b4cf539739df2c5dacb4c659f2488d",
                    "gasUsed": 47412,
                    "id": 5,
                    "methodDecoded": true,
                    "operation": "CALL",
                    "output": "0x0000000000000000000000000000000000000000000000000000000000000001",
                    "revert": false,
                    "revertMessage": "",
                    "selector": "0x23b872dd",
                    "status": true,
                    "value": "0"
                },
                "nodeType": 0
            },
            "6": {
                "event": {
                    "contract": "0xa487eed32c0f46db016d7b847d8d36cf8d63b2c3",
                    "decodedLog": {
                        "name": "Transfer",
                        "params": [
                            {
                                "name": "from",
                                "type": "address",
                                "value": "0xa487eed32c0f46db016d7b847d8d36cf8d63b2c3"
                            },
                            {
                                "name": "to",
                                "type": "address",
                                "value": "0x39ddf1cfdc2405888de7ac1c863de712252b508b"
                            },
                            {
                                "decimalAvailable": true,
                                "name": "value",
                                "type": "uint256",
                                "value": "508,305,680,000,000"
                            }
                        ],
                        "signature": "Transfer(address,address,uint256)"
                    },
                    "id": 6,
                    "logData": "0x0000000000000000000000000000000000000000000000000001ce4d237e6400",
                    "logDecoded": true,
                    "operation": "EVENT",
                    "revert": false,
                    "status": true,
                    "topics": [
                        "0xddf252ad1be2c89b69c2b068fc378daa952ba7f163c4a11628f55a4df523b3ef",
                        "0x000000000000000000000000a487eed32c0f46db016d7b847d8d36cf8d63b2c3",
                        "0x00000000000000000000000039ddf1cfdc2405888de7ac1c863de712252b508b"
                    ]
                },
                "nodeType": 1
            },
            "7": {
                "event": {
                    "contract": "0xa487eed32c0f46db016d7b847d8d36cf8d63b2c3",
                    "decodedLog": {
                        "name": "Approval",
                        "params": [
                            {
                                "name": "owner",
                                "type": "address",
                                "value": "0xa487eed32c0f46db016d7b847d8d36cf8d63b2c3"
                            },
                            {
                                "name": "spender",
                                "type": "address",
                                "value": "0x7a250d5630b4cf539739df2c5dacb4c659f2488d"
                            },
                            {
                                "decimalAvailable": true,
                                "name": "value",
                                "type": "uint256",
                                "value": "0"
                            }
                        ],
                        "signature": "Approval(address,address,uint256)"
                    },
                    "id": 7,
                    "logData": "0x0000000000000000000000000000000000000000000000000000000000000000",
                    "logDecoded": true,
                    "operation": "EVENT",
                    "revert": false,
                    "status": true,
                    "topics": [
                        "0x8c5be1e5ebec7d5bd14f71427d1e84f3dd0314c0f7b2291e5b200ac8c7c3b925",
                        "0x000000000000000000000000a487eed32c0f46db016d7b847d8d36cf8d63b2c3",
                        "0x0000000000000000000000007a250d5630b4cf539739df2c5dacb4c659f2488d"
                    ]
                },
                "nodeType": 1
            },
            "8": {
                "invocation": {
                    "address": "0x39ddf1cfdc2405888de7ac1c863de712252b508b",
                    "callData": "0x",
                    "decodedMethod": {
                        "callParams": [],
                        "constructorArguments": "",
                        "name": "getReserves",
                        "returnParams": [
                            {
                                "name": "_reserve0",
                                "type": "uint112",
                                "value": "253,337,026,804,936,303"
                            },
                            {
                                "name": "_reserve1",
                                "type": "uint112",
                                "value": "1,925,015,954,939,618,061"
                            },
                            {
                                "name": "_blockTimestampLast",
                                "type": "uint32",
                                "value": "1,676,069,519"
                            }
                        ],
                        "signature": "getReserves()"
                    },
                    "errorInfo": "",
                    "fromAddress": "0x7a250d5630b4cf539739df2c5dacb4c659f2488d",
                    "gasUsed": 2504,
                    "id": 8,
                    "methodDecoded": true,
                    "operation": "STATICCALL",
                    "output": "0x000000000000000000000000000000000000000000000000038408af03296e6f0000000000000000000000000000000000000000000000001ab707cfd522a30d0000000000000000000000000000000000000000000000000000000063e6ca8f",
                    "revert": false,
                    "revertMessage": "",
                    "selector": "0x0902f1ac",
                    "status": true,
                    "value": "0"
                },
                "nodeType": 0
            },
            "9": {
                "invocation": {
                    "address": "0xa487eed32c0f46db016d7b847d8d36cf8d63b2c3",
                    "callData": "0x00000000000000000000000039ddf1cfdc2405888de7ac1c863de712252b508b",
                    "decodedMethod": {
                        "callParams": [
                            {
                                "name": "account",
                                "type": "address",
                                "value": "0x39ddf1cfdc2405888de7ac1c863de712252b508b"
                            }
                        ],
                        "constructorArguments": "",
                        "name": "balanceOf",
                        "returnParams": [
                            {
                                "decimalAvailable": true,
                                "name": "",
                                "type": "uint256",
                                "value": "253,845,332,484,936,303"
                            }
                        ],
                        "signature": "balanceOf(address)"
                    },
                    "errorInfo": "",
                    "fromAddress": "0x7a250d5630b4cf539739df2c5dacb4c659f2488d",
                    "gasUsed": 2632,
                    "id": 9,
                    "methodDecoded": true,
                    "operation": "STATICCALL",
                    "output": "0x0000000000000000000000000000000000000000000000000385d6fc26a7d26f",
                    "revert": false,
                    "revertMessage": "",
                    "selector": "0x70a08231",
                    "status": true,
                    "value": "0"
                },
                "nodeType": 0
            }
        },
        "gasFlame": [
            {
                "children": [
                    {
                        "children": [
                            {
                                "children": [],
                                "depth": 0,
                                "name": "Initial Gas",
                                "value": 23048
                            },
                            {
                                "children": [
                                    {
                                        "children": [
                                            {
                                                "children": [],
                                                "depth": 2,
                                                "name": "WETH",
                                                "value": 275
                                            },
                                            {
                                                "children": [
                                                    {
                                                        "children": [],
                                                        "depth": 3,
                                                        "name": "transferFrom",
                                                        "value": 47412
                                                    },
                                                    {
                                                        "children": [],
                                                        "depth": 3,
                                                        "name": "getReserves",
                                                        "value": 2504
                                                    },
                                                    {
                                                        "children": [],
                                                        "depth": 3,
                                                        "name": "balanceOf",
                                                        "value": 2632
                                                    },
                                                    {
                                                        "children": [
                                                            {
                                                                "children": [],
                                                                "depth": 4,
                                                                "name": "transfer",
                                                                "value": 29962
                                                            },
                                                            {
                                                                "children": [],
                                                                "depth": 4,
                                                                "name": "balanceOf",
                                                                "value": 2632
                                                            },
                                                            {
                                                                "children": [],
                                                                "depth": 4,
                                                                "name": "balanceOf",
                                                                "value": 534
                                                            }
                                                        ],
                                                        "depth": 3,
                                                        "name": "swap",
                                                        "value": 66951
                                                    },
                                                    {
                                                        "children": [],
                                                        "depth": 3,
                                                        "name": "balanceOf",
                                                        "value": 534
                                                    },
                                                    {
                                                        "children": [
                                                            {
                                                                "children": [],
                                                                "depth": 4,
                                                                "name": "fallback",
                                                                "value": 83
                                                            }
                                                        ],
                                                        "depth": 3,
                                                        "name": "withdraw",
                                                        "value": 9223
                                                    },
                                                    {
                                                        "children": [],
                                                        "depth": 3,
                                                        "name": "fallback",
                                                        "value": 55
                                                    }
                                                ],
                                                "depth": 2,
                                                "name": "swapExactTokensForETHSupportingFeeOnTransferTokens",
                                                "value": 145948
                                            },
                                            {
                                                "children": [],
                                                "depth": 2,
                                                "name": "fallback",
                                                "value": 0
                                            }
                                        ],
                                        "depth": 1,
                                        "name": "transferFrom",
                                        "value": 249138
                                    },
                                    {
                                        "children": [],
                                        "depth": 1,
                                        "name": "getReserves",
                                        "value": 504
                                    },
                                    {
                                        "children": [],
                                        "depth": 1,
                                        "name": "balanceOf",
                                        "value": 2632
                                    },
                                    {
                                        "children": [
                                            {
                                                "children": [],
                                                "depth": 2,
                                                "name": "transfer",
                                                "value": 23162
                                            },
                                            {
                                                "children": [],
                                                "depth": 2,
                                                "name": "balanceOf",
                                                "value": 2632
                                            },
                                            {
                                                "children": [],
                                                "depth": 2,
                                                "name": "balanceOf",
                                                "value": 534
                                            }
                                        ],
                                        "depth": 1,
                                        "name": "swap",
                                        "value": 38435
                                    },
                                    {
                                        "children": [],
                                        "depth": 1,
                                        "name": "balanceOf",
                                        "value": 534
                                    },
                                    {
                                        "children": [
                                            {
                                                "children": [],
                                                "depth": 2,
                                                "name": "fallback",
                                                "value": 83
                                            }
                                        ],
                                        "depth": 1,
                                        "name": "withdraw",
                                        "value": 9223
                                    },
                                    {
                                        "children": [],
                                        "depth": 1,
                                        "name": "fallback",
                                        "value": 0
                                    }
                                ],
                                "depth": 0,
                                "name": "Executed Gas",
                                "value": 317103
                            }
                        ],
                        "depth": -1,
                        "name": "Actual Gas Used",
                        "value": 272121
                    },
                    {
                        "children": [],
                        "depth": -1,
                        "name": "Refunded Gas",
                        "value": 68030
                    }
                ],
                "depth": -2,
                "name": "Total Gas",
                "value": 340151
            }
        ],
        "isConfirmed": true,
        "mainTrace": [
            {
                "children": [
                    {
                        "children": [
                            {
                                "children": [
                                    {
                                        "children": [],
                                        "depth": 2,
                                        "id": 2,
                                        "order": 2
                                    },
                                    {
                                        "children": [],
                                        "depth": 2,
                                        "id": 3,
                                        "order": 3
                                    },
                                    {
                                        "children": [
                                            {
                                                "children": [
                                                    {
                                                        "children": [],
                                                        "depth": 4,
                                                        "id": 6,
                                                        "order": 6
                                                    },
                                                    {
                                                        "children": [],
                                                        "depth": 4,
                                                        "id": 7,
                                                        "order": 7
                                                    }
                                                ],
                                                "depth": 3,
                                                "id": 5,
                                                "order": 5
                                            },
                                            {
                                                "children": [],
                                                "depth": 3,
                                                "id": 8,
                                                "order": 8
                                            },
                                            {
                                                "children": [],
                                                "depth": 3,
                                                "id": 9,
                                                "order": 9
                                            },
                                            {
                                                "children": [
                                                    {
                                                        "children": [
                                                            {
                                                                "children": [],
                                                                "depth": 5,
                                                                "id": 12,
                                                                "order": 12
                                                            }
                                                        ],
                                                        "depth": 4,
                                                        "id": 11,
                                                        "order": 11
                                                    },
                                                    {
                                                        "children": [],
                                                        "depth": 4,
                                                        "id": 13,
                                                        "order": 13
                                                    },
                                                    {
                                                        "children": [],
                                                        "depth": 4,
                                                        "id": 14,
                                                        "order": 14
                                                    },
                                                    {
                                                        "children": [],
                                                        "depth": 4,
                                                        "id": 15,
                                                        "order": 15
                                                    },
                                                    {
                                                        "children": [],
                                                        "depth": 4,
                                                        "id": 16,
                                                        "order": 16
                                                    }
                                                ],
                                                "depth": 3,
                                                "id": 10,
                                                "order": 10
                                            },
                                            {
                                                "children": [],
                                                "depth": 3,
                                                "id": 17,
                                                "order": 17
                                            },
                                            {
                                                "children": [
                                                    {
                                                        "children": [],
                                                        "depth": 4,
                                                        "id": 19,
                                                        "order": 19
                                                    },
                                                    {
                                                        "children": [],
                                                        "depth": 4,
                                                        "id": 20,
                                                        "order": 20
                                                    }
                                                ],
                                                "depth": 3,
                                                "id": 18,
                                                "order": 18
                                            },
                                            {
                                                "children": [],
                                                "depth": 3,
                                                "id": 21,
                                                "order": 21
                                            }
                                        ],
                                        "depth": 2,
                                        "id": 4,
                                        "order": 4
                                    },
                                    {
                                        "children": [],
                                        "depth": 2,
                                        "id": 22,
                                        "order": 22
                                    },
                                    {
                                        "children": [],
                                        "depth": 2,
                                        "id": 23,
                                        "order": 23
                                    },
                                    {
                                        "children": [],
                                        "depth": 2,
                                        "id": 24,
                                        "order": 24
                                    }
                                ],
                                "depth": 1,
                                "id": 1,
                                "order": 1
                            },
                            {
                                "children": [],
                                "depth": 1,
                                "id": 25,
                                "order": 25
                            },
                            {
                                "children": [],
                                "depth": 1,
                                "id": 26,
                                "order": 26
                            },
                            {
                                "children": [
                                    {
                                        "children": [
                                            {
                                                "children": [],
                                                "depth": 3,
                                                "id": 29,
                                                "order": 29
                                            }
                                        ],
                                        "depth": 2,
                                        "id": 28,
                                        "order": 28
                                    },
                                    {
                                        "children": [],
                                        "depth": 2,
                                        "id": 30,
                                        "order": 30
                                    },
                                    {
                                        "children": [],
                                        "depth": 2,
                                        "id": 31,
                                        "order": 31
                                    },
                                    {
                                        "children": [],
                                        "depth": 2,
                                        "id": 32,
                                        "order": 32
                                    },
                                    {
                                        "children": [],
                                        "depth": 2,
                                        "id": 33,
                                        "order": 33
                                    }
                                ],
                                "depth": 1,
                                "id": 27,
                                "order": 27
                            },
                            {
                                "children": [],
                                "depth": 1,
                                "id": 34,
                                "order": 34
                            },
                            {
                                "children": [
                                    {
                                        "children": [],
                                        "depth": 2,
                                        "id": 36,
                                        "order": 36
                                    },
                                    {
                                        "children": [],
                                        "depth": 2,
                                        "id": 37,
                                        "order": 37
                                    }
                                ],
                                "depth": 1,
                                "id": 35,
                                "order": 35
                            },
                            {
                                "children": [],
                                "depth": 1,
                                "id": 38,
                                "order": 38
                            }
                        ],
                        "depth": 0,
                        "id": 0,
                        "order": 0
                    }
                ],
                "depth": -1,
                "id": -1,
                "order": -1
            }
        ],
        "mainTraceNodeCount": 39,
        "parentIdMap": {
            "0": -1,
            "1": 0,
            "10": 4,
            "11": 10,
            "12": 11,
            "13": 10,
            "14": 10,
            "15": 10,
            "16": 10,
            "17": 4,
            "18": 4,
            "19": 18,
            "2": 1,
            "20": 18,
            "21": 4,
            "22": 1,
            "23": 1,
            "24": 1,
            "25": 0,
            "26": 0,
            "27": 0,
            "28": 27,
            "29": 28,
            "3": 1,
            "30": 27,
            "31": 27,
            "32": 27,
            "33": 27,
            "34": 0,
            "35": 0,
            "36": 35,
            "37": 35,
            "38": 0,
            "4": 1,
            "5": 4,
            "6": 5,
            "7": 5,
            "8": 4,
            "9": 4
        },
        "tidyTrace": [
            {
                "children": [
                    {
                        "children": [
                            {
                                "children": [
                                    {
                                        "children": [],
                                        "depth": 2,
                                        "id": 3,
                                        "order": 3
                                    },
                                    {
                                        "children": [
                                            {
                                                "children": [
                                                    {
                                                        "children": [],
                                                        "depth": 4,
                                                        "id": 6,
                                                        "order": 6
                                                    },
                                                    {
                                                        "children": [],
                                                        "depth": 4,
                                                        "id": 7,
                                                        "order": 7
                                                    }
                                                ],
                                                "depth": 3,
                                                "id": 5,
                                                "order": 5
                                            },
                                            {
                                                "children": [
                                                    {
                                                        "children": [
                                                            {
                                                                "children": [],
                                                                "depth": 5,
                                                                "id": 12,
                                                                "order": 12
                                                            }
                                                        ],
                                                        "depth": 4,
                                                        "id": 11,
                                                        "order": 11
                                                    },
                                                    {
                                                        "children": [],
                                                        "depth": 4,
                                                        "id": 15,
                                                        "order": 15
                                                    },
                                                    {
                                                        "children": [],
                                                        "depth": 4,
                                                        "id": 16,
                                                        "order": 16
                                                    }
                                                ],
                                                "depth": 3,
                                                "id": 10,
                                                "order": 10
                                            },
                                            {
                                                "children": [
                                                    {
                                                        "children": [],
                                                        "depth": 4,
                                                        "id": 19,
                                                        "order": 19
                                                    },
                                                    {
                                                        "children": [],
                                                        "depth": 4,
                                                        "id": 20,
                                                        "order": 20
                                                    }
                                                ],
                                                "depth": 3,
                                                "id": 18,
                                                "order": 18
                                            },
                                            {
                                                "children": [],
                                                "depth": 3,
                                                "id": 21,
                                                "order": 21
                                            }
                                        ],
                                        "depth": 2,
                                        "id": 4,
                                        "order": 4
                                    },
                                    {
                                        "children": [],
                                        "depth": 2,
                                        "id": 22,
                                        "order": 22
                                    },
                                    {
                                        "children": [],
                                        "depth": 2,
                                        "id": 23,
                                        "order": 23
                                    },
                                    {
                                        "children": [],
                                        "depth": 2,
                                        "id": 24,
                                        "order": 24
                                    }
                                ],
                                "depth": 1,
                                "id": 1,
                                "order": 1
                            },
                            {
                                "children": [
                                    {
                                        "children": [
                                            {
                                                "children": [],
                                                "depth": 3,
                                                "id": 29,
                                                "order": 29
                                            }
                                        ],
                                        "depth": 2,
                                        "id": 28,
                                        "order": 28
                                    },
                                    {
                                        "children": [],
                                        "depth": 2,
                                        "id": 32,
                                        "order": 32
                                    },
                                    {
                                        "children": [],
                                        "depth": 2,
                                        "id": 33,
                                        "order": 33
                                    }
                                ],
                                "depth": 1,
                                "id": 27,
                                "order": 27
                            },
                            {
                                "children": [
                                    {
                                        "children": [],
                                        "depth": 2,
                                        "id": 36,
                                        "order": 36
                                    },
                                    {
                                        "children": [],
                                        "depth": 2,
                                        "id": 37,
                                        "order": 37
                                    }
                                ],
                                "depth": 1,
                                "id": 35,
                                "order": 35
                            },
                            {
                                "children": [],
                                "depth": 1,
                                "id": 38,
                                "order": 38
                            }
                        ],
                        "depth": 0,
                        "id": 0,
                        "order": 0
                    }
                ],
                "depth": -1,
                "id": -1,
                "order": -1
            }
        ],
        "tidyTraceNodeCount": 28
    },
    "state_change": {
        "stateChanges": [
            {
                "address": "0x39ddf1cfdc2405888de7ac1c863de712252b508b",
                "erc": "ERC-20",
                "slots": [
                    {
                        "current": "0x63e6ca9b00000000000017b3f4a9a7085c3000000000000003f6bfbc778aa26f",
                        "key": "0x0000000000000000000000000000000000000000000000000000000000000008",
                        "prev": "0x63e6ca8f0000000000001ab707cfd522a30d000000000000038408af03296e6f"
                    },
                    {
                        "current": "0x00000000000000000000000000000000bb45e1661f00f8013512b3e5a2d0b164",
                        "key": "0x0000000000000000000000000000000000000000000000000000000000000009",
                        "prev": "0x00000000000000000000000000000000baeab2634b7ac68623a44c63f2cf3e10"
                    },
                    {
                        "current": "0x000000000000000000000000000000000adc3a0f0c85f5c91d7bf02148c74e24",
                        "key": "0x000000000000000000000000000000000000000000000000000000000000000a",
                        "prev": "0x000000000000000000000000000000000adaa5c695b6fa39136a57053b9a8e08"
                    }
                ],
                "storageVariables": [
                    {
                        "name": "reserve0",
                        "type": "uint112",
                        "value": {
                            "current": "285626442564936303",
                            "prev": "253337026804936303",
                            "typeTag": 1
                        }
                    },
                    {
                        "name": "reserve1",
                        "type": "uint112",
                        "value": {
                            "current": "1707977693192543280",
                            "prev": "1925015954939618061",
                            "typeTag": 1
                        }
                    },
                    {
                        "name": "blockTimestampLast",
                        "type": "uint32",
                        "value": {
                            "current": "1676069531",
                            "prev": "1676069519",
                            "typeTag": 1
                        }
                    },
                    {
                        "name": "price0CumulativeLast",
                        "type": "uint256",
                        "value": {
                            "current": "248928475328046775893808856900805112164",
                            "prev": "248455022816748843124278574384933715472",
                            "typeTag": 1
                        }
                    },
                    {
                        "name": "price1CumulativeLast",
                        "type": "uint256",
                        "value": {
                            "current": "14435762838782038259737736697577164324",
                            "prev": "14427563004105004109050947297512951304",
                            "typeTag": 1
                        }
                    }
                ]
            },
            {
                "address": "0xa487eed32c0f46db016d7b847d8d36cf8d63b2c3",
                "erc": "ERC-20",
                "slots": [
                    {
                        "current": "0x00000000073723ba8bca9e61ebf4217e13a428044da2da0dd275f8a1f300f2f6",
                        "key": "0xe828fd23772d1fb341975923c46b86966301efe89f33858783bcf9936b21abbd",
                        "prev": "0x08799727a2fee24cfa9a01587dadbf3b75bc4279bc314f7e640c1e721a47a0f6"
                    },
                    {
                        "current": "0xffffffffffffffffffffffffffffffffffffffffffffffffff8a62e2566911ff",
                        "key": "0x4d5e349d042bc3de36a0569f4221d1423b7f0bc6215ba4b09c3a13e95be01d45",
                        "prev": "0xffffffffffffffffffffffffffffffffffffffffffffffffffffffffffffffff"
                    },
                    {
                        "current": "0x0056c89b2f30f32493cadaff9f6dd31c0e29ec940ea989d14d80e2cae2d9de00",
                        "key": "0x0acc6a9c7678a94d174f2061f06a71b5330f33e46cccc628a17449936d6588a6",
                        "prev": "0x00214ff4459fe4e7c1b4dc914911b98a5397330d4aa2afd29efd64615966e400"
                    },
                    {
                        "current": "0x491ed085b070f830e1ceefddefe0930975db4fdc588897b71cadd6029a1c614f",
                        "key": "0x7ae1d3df8b6fe117d66fa5591059d0e35c664ed09e816153c78f5fc37244728b",
                        "prev": "0x40dab204fe3a47db45158b55b4830eddce55eeedae00fc45399b2e9bfc48ad4f"
                    }
                ],
                "storageVariables": [
                    {
                        "name": "_rOwned",
                        "type": "mapping(address => uint256)",
                        "value": {
                            "pairs": [
                                {
                                    "key": "0x39ddf1cfdc2405888de7ac1c863de712252b508b",
                                    "value": {
                                        "current": "33073282526016273338186764467084577537429933328872485555336921897279583707471",
                                        "prev": "29334423614913549397573671628266326468671129718474792796345989779637263707471",
                                        "typeTag": 1
                                    }
                                },
                                {
                                    "key": "0xa487eed32c0f46db016d7b847d8d36cf8d63b2c3",
                                    "value": {
                                        "current": "153333380601847052105137570885630839827069577942443114977136349184440000000",
                                        "prev": "58857776658394690089791137563110912909133739779057999539659737215760000000",
                                        "typeTag": 1
                                    }
                                },
                                {
                                    "key": "0xfd99377a6caae4c3f74e25087250f164e328d35d",
                                    "value": {
                                        "current": "759869143143215833567434442039643161604169110030443680548842959606",
                                        "prev": "3833334515806045445771655105708205437716382610165246984458852410159842959606",
                                        "typeTag": 1
                                    }
                                }
                            ],
                            "typeTag": 4
                        }
                    },
                    {
                        "name": "_allowances",
                        "type": "mapping(address => mapping(address => uint256))",
                        "value": {
                            "pairs": [
                                {
                                    "key": "0xfd99377a6caae4c3f74e25087250f164e328d35d",
                                    "value": {
                                        "pairs": [
                                            {
                                                "key": "0x7a250d5630b4cf539739df2c5dacb4c659f2488d",
                                                "value": {
                                                    "current": "115792089237316195423570985008687907853269984665640564039457550902590129639935",
                                                    "prev": "115792089237316195423570985008687907853269984665640564039457584007913129639935",
                                                    "typeTag": 1
                                                }
                                            }
                                        ],
                                        "typeTag": 4
                                    }
                                }
                            ],
                            "typeTag": 4
                        }
                    }
                ]
            },
            {
                "address": "0xc02aaa39b223fe8d0a0e5c4f27ead9083c756cc2",
                "erc": "ERC-20",
                "slots": [
                    {
                        "current": "0x00000000000000000000000000000000000000000000000017b3f4a9a7085c30",
                        "key": "0x6edda53d08f8f6d8faedf762f714d4bfc15c3a74f2f697f6962c9db01e06fc30",
                        "prev": "0x0000000000000000000000000000000000000000000000001ab707cfd522a30d"
                    }
                ],
                "storageVariables": [
                    {
                        "name": "balanceOf",
                        "type": "mapping(address => uint256)",
                        "value": {
                            "pairs": [
                                {
                                    "key": "0x39ddf1cfdc2405888de7ac1c863de712252b508b",
                                    "value": {
                                        "current": "1707977693192543280",
                                        "prev": "1925015954939618061",
                                        "typeTag": 1
                                    }
                                }
                            ],
                            "typeTag": 4
                        }
                    }
                ]
            }
        ]
    }
}