{
    "balance_change": {
        "balanceChanges": [
            {
                "account": "0x433192cf95fae6b7a9f07b6bfb27c77e558825b1",
                "assets": [
                    {
                        "address": "0xc77b230f31b517f1ef362e59c173c2be6540b5e8",
                        "amount": "125,997.336",
                        "iconUrl": "",
                        "isERC1155": false,
                        "isERC721": false,
                        "sign": false,
                        "value": ""
                    }
                ]
            },
            {
                "account": "0x46705dfff24256421a05d056c29e81bdc09723b8",
                "assets": [
                    {
                        "address": "0xc77b230f31b517f1ef362e59c173c2be6540b5e8",
                        "amount": "125,997.336",
                        "iconUrl": "",
                        "isERC1155": false,
                        "isERC721": false,
                        "sign": true,
                        "value": ""
                    }
                ]
            }
        ]
    },
    "profile": {
        "basic_info": {
            "baseFee": "",
            "blockNumber": 10403001,
            "callData": "0xa9059cbb00000000000000000000000046705dfff24256421a05d056c29e81bdc09723b8000000000000000000000000000000000000000000001aae544b1980e11c0000",
            "debugEnable": true,
            "errorInfo": "",
            "eventCount": 1,
            "feeRecipient": "0xea674fdde714fd979de3edf0f56aa9716b898ec8",
            "formatValue": "0",
            "gasLimit": 140000,
            "gasPrice": "24",
            "gasUsed": 38245,
            "intTxnCount": 0,
            "internalRevert": false,
            "internalRevertMessage": "",
            "isContractCreation": false,
            "isFlashloan": false,
            "maxFee": "",
            "nonce": 150,
            "overwritedBlockNumber": -1,
            "priorityFee": "",
            "receiver": "0xc77b230f31b517f1ef362e59c173c2be6540b5e8",
            "revertMessage": "",
            "sender": "0x433192cf95fae6b7a9f07b6bfb27c77e558825b1",
            "simulationEnable": true,
            "sourceTxnHash": "0x6a991252078724d0547751c5f49b7ca1de6c491e7fd87da5331ff78eafbb5ee2",
            "status": true,
            "timestamp": "2020-07-06T01:47:01Z",
            "transactionFee": "0.00091788",
            "txnHash": "0x6a991252078724d0547751c5f49b7ca1de6c491e7fd87da5331ff78eafbb5ee2",
            "txnIndex": 151,
            "type": 0,
            "value": "0"
        },
        "fund_flow": [
            {
                "amount": "125,997.336",
                "from": "0x433192cf95fae6b7a9f07b6bfb27c77e558825b1",
                "id": 1,
                "isERC1155": false,
                "isERC721": false,
                "isReverted": false,
                "order": 1,
                "to": "0x46705dfff24256421a05d056c29e81bdc09723b8",
                "token": "0xc77b230f31b517f1ef362e59c173c2be6540b5e8"
            }
        ],
        "token_infos": [
            {
                "address": "0xc02aaa39b223fe8d0a0e5c4f27ead9083c756cc2",
                "decimals": 18
            },
            {
                "address": "0xc77b230f31b517f1ef362e59c173c2be6540b5e8",
                "decimals": 18
            },
            {
                "address": "0xeeeeeeeeeeeeeeeeeeeeeeeeeeeeeeeeeeeeeeee",
                "decimals": 18
            }
        ]
    },
    "address_label": {
        "labels": [
            {
                "address": "0x0000000000000000000000000000000000000001",
                "label": "Precompiled"
            },
            {
                "address": "0x0000000000000000000000000000000000000002",
                "label": "Precompiled"
            },
            {
                "address": "0x0000000000000000000000000000000000000003",
                "label": "Precompiled"
            },
            {
                "address": "0x0000000000000000000000000000000000000004",
                "label": "Precompiled"
            },
            {
                "address": "0xeeeeeeeeeeeeeeeeeeeeeeeeeeeeeeeeeeeeeeee",
                "label": "Ether"
            },
            {
                "address": "0x433192cf95fae6b7a9f07b6bfb27c77e558825b1",
                "label": "HUOBI"
            },
            {
                "address": "0x46705dfff24256421a05d056c29e81bdc09723b8",
                "label": "HTX 12"
            },
            {
                "address": "0xc77b230f31b517f1ef362e59c173c2be6540b5e8",
                "label": "Vidy Coin"
            }
        ]
    },
    "trace": {
        "accountLabels": null,
        "dataMap": {
            "-1": {
                "invocation": {
                    "address": "0x433192cf95fae6b7a9f07b6bfb27c77e558825b1",
                    "callData": "",
                    "decodedMethod": null,
                    "errorInfo": "",
                    "fromAddress": "",
                    "gasUsed": 0,
                    "id": -1,
                    "methodDecoded": false,
                    "operation": "",
                    "output": "",
                    "revert": false,
                    "revertMessage": "",
                    "selector": "",
                    "status": false,
                    "value": ""
                },
                "nodeType": 0
            },
            "0": {
                "invocation": {
                    "address": "0xc77b230f31b517f1ef362e59c173c2be6540b5e8",
                    "callData": "0x00000000000000000000000046705dfff24256421a05d056c29e81bdc09723b8000000000000000000000000000000000000000000001aae544b1980e11c0000",
                    "decodedMethod": {
                        "callParams": [
                            {
                                "name": "_to",
                                "type": "address",
                                "value": "0x46705dfff24256421a05d056c29e81bdc09723b8"
                            },
                            {
                                "decimalAvailable": true,
                                "name": "_value",
                                "type": "uint256",
                                "value": "125,997,336,000,000,000,000,000"
                            }
                        ],
                        "constructorArguments": "",
                        "name": "transfer",
                        "returnParams": [
                            {
                                "name": "",
                                "type": "bool",
                                "value": true
                            }
                        ],
                        "signature": "transfer(address,uint256)"
                    },
                    "errorInfo": "",
                    "fromAddress": "0x433192cf95fae6b7a9f07b6bfb27c77e558825b1",
                    "gasUsed": 38245,
                    "id": 0,
                    "methodDecoded": true,
                    "operation": "CALL",
                    "output": "0x0000000000000000000000000000000000000000000000000000000000000001",
                    "revert": false,
                    "revertMessage": "",
                    "selector": "0xa9059cbb",
                    "status": true,
                    "value": "0"
                },
                "nodeType": 0
            },
            "1": {
                "event": {
                    "contract": "0xc77b230f31b517f1ef362e59c173c2be6540b5e8",
                    "decodedLog": {
                        "name": "Transfer",
                        "params": [
                            {
                                "name": "from",
                                "type": "address",
                                "value": "0x433192cf95fae6b7a9f07b6bfb27c77e558825b1"
                            },
                            {
                                "name": "to",
                                "type": "address",
                                "value": "0x46705dfff24256421a05d056c29e81bdc09723b8"
                            },
                            {
                                "decimalAvailable": true,
                                "name": "value",
                                "type": "uint256",
                                "value": "125,997,336,000,000,000,000,000"
                            }
                        ],
                        "signature": "Transfer(address,address,uint256)"
                    },
                    "id": 1,
                    "logData": "0x000000000000000000000000000000000000000000001aae544b1980e11c0000",
                    "logDecoded": true,
                    "operation": "EVENT",
                    "revert": false,
                    "status": true,
                    "topics": [
                        "0xddf252ad1be2c89b69c2b068fc378daa952ba7f163c4a11628f55a4df523b3ef",
                        "0x000000000000000000000000433192cf95fae6b7a9f07b6bfb27c77e558825b1",
                        "0x00000000000000000000000046705dfff24256421a05d056c29e81bdc09723b8"
                    ]
                },
                "nodeType": 1
            }
        },
        "gasFlame": [
            {
                "children": [
                    {
                        "children": [
                            {
                                "children": [],
                                "depth": 0,
                                "name": "Initial Gas",
                                "value": 21656
                            },
                            {
                                "children": [],
                                "depth": 0,
                                "name": "Executed Gas",
                                "value": 16589
                            }
                        ],
                        "depth": -1,
                        "name": "Actual Gas Used",
                        "value": 38245
                    },
                    {
                        "children": [],
                        "depth": -1,
                        "name": "Refunded Gas",
                        "value": 0
                    }
                ],
                "depth": -2,
                "name": "Total Gas",
                "value": 38245
            }
        ],
        "isConfirmed": true,
        "mainTrace": [
            {
                "children": [
                    {
                        "children": [
                            {
                                "children": [],
                                "depth": 1,
                                "id": 1,
                                "order": 1
                            }
                        ],
                        "depth": 0,
                        "id": 0,
                        "order": 0
                    }
                ],
                "depth": -1,
                "id": -1,
                "order": -1
            }
        ],
        "mainTraceNodeCount": 2,
        "parentIdMap": {
            "0": -1,
            "1": 0
        },
        "tidyTrace": [
            {
                "children": [
                    {
                        "children": [
                            {
                                "children": [],
                                "depth": 1,
                                "id": 1,
                                "order": 1
                            }
                        ],
                        "depth": 0,
                        "id": 0,
                        "order": 0
                    }
                ],
                "depth": -1,
                "id": -1,
                "order": -1
            }
        ],
        "tidyTraceNodeCount": 2
    },
    "state_change": {
        "stateChanges": [
            {
                "address": "0xc77b230f31b517f1ef362e59c173c2be6540b5e8",
                "erc": "ERC-20",
                "slots": [
                    {
                        "current": "0x0000000000000000000000000000000000000000036aa6a46fc6ec480f291c00",
                        "key": "0xa49b5fd756fc3263fac9ca9691899da74f8148d1ba75dcd517dd93265ff05f44",
                        "prev": "0x0000000000000000000000000000000000000000036a8bf61b7bd2c72e0d1c00"
                    },
                    {
                        "current": "0x00000000000000000000000000000000000000000000000000000001dc6b8040",
                        "key": "0x5a8d3e3cda589d3c6680b1880d4c10163c6bf1ef786fd34876bb115b38a32887",
                        "prev": "0x000000000000000000000000000000000000000000001aae544b1982bd878040"
                    }
                ],
                "storageVariables": [
                    {
                        "name": "balances",
                        "type": "mapping(address => uint256)",
                        "value": {
                            "pairs": [
                                {
                                    "key": "0x433192cf95fae6b7a9f07b6bfb27c77e558825b1",
                                    "value": {
                                        "current": "7993000000",
                                        "prev": "125997336000007993000000",
                                        "typeTag": 1
                                    }
                                },
                                {
                                    "key": "0x46705dfff24256421a05d056c29e81bdc09723b8",
                                    "value": {
                                        "current": "1057388112499755126000000000",
                                        "prev": "1057262115163755126000000000",
                                        "typeTag": 1
                                    }
                                }
                            ],
                            "typeTag": 4
                        }
                    }
                ]
            }
        ]
    }
}