{
    "balance_change": {
        "balanceChanges": [
            {
                "account": "0xfdd87178e0ee23c3f6c1698aa208c4c316c7b90c",
                "assets": [
                    {
                        "address": "0xff9c1b15b16263c61d017ee9f65c50e4ae0113d7",
                        "amount": "1",
                        "iconUrl": "",
                        "isERC1155": false,
                        "isERC721": true,
                        "sign": false,
                        "tokenID": "7590",
                        "value": ""
                    }
                ]
            },
            {
                "account": "0xdcf809bba1d9ee75c6991f1e2974163cf2555418",
                "assets": [
                    {
                        "address": "0xff9c1b15b16263c61d017ee9f65c50e4ae0113d7",
                        "amount": "1",
                        "iconUrl": "",
                        "isERC1155": false,
                        "isERC721": true,
                        "sign": true,
                        "tokenID": "7590",
                        "value": ""
                    }
                ]
            }
        ]
    },
    "profile": {
        "basic_info": {
            "baseFee": "133.610245726",
            "blockNumber": 13177624,
            "callData": "0x598b8e71000000000000000000000000000000000000000000000000000000000000002000000000000000000000000000000000000000000000000000000000000000010000000000000000000000000000000000000000000000000000000000001da6",
            "debugEnable": true,
            "errorInfo": "",
            "eventCount": 2,
            "feeRecipient": "0xea674fdde714fd979de3edf0f56aa9716b898ec8",
            "formatValue": "0",
            "gasLimit": 195532,
            "gasPrice": "136.027186895",
            "gasUsed": 185932,
            "intTxnCount": 2,
            "internalRevert": false,
            "internalRevertMessage": "",
            "isContractCreation": false,
            "isFlashloan": false,
            "maxFee": "151.768881077",
            "nonce": 38,
            "overwritedBlockNumber": -1,
            "priorityFee": "2.416941169",
            "receiver": "0xdcf809bba1d9ee75c6991f1e2974163cf2555418",
            "revertMessage": "",
            "sender": "0xfdd87178e0ee23c3f6c1698aa208c4c316c7b90c",
            "simulationEnable": true,
            "sourceTxnHash": "0x6a77bf0074d29f1c478dd290587e8bfa39c0ed5b71063d2452920f9ef3fe2be7",
            "status": true,
            "timestamp": "2021-09-07T08:40:06Z",
            "transactionFee": "0.02529180691376114",
            "txnHash": "0x6a77bf0074d29f1c478dd290587e8bfa39c0ed5b71063d2452920f9ef3fe2be7",
            "txnIndex": 90,
            "type": 2,
            "value": "0"
        },
        "fund_flow": [
            {
                "amount": "1",
                "from": "0xfdd87178e0ee23c3f6c1698aa208c4c316c7b90c",
                "id": 1,
                "isERC1155": false,
                "isERC721": true,
                "isReverted": false,
                "order": 1,
                "to": "0xdcf809bba1d9ee75c6991f1e2974163cf2555418",
                "token": "0xff9c1b15b16263c61d017ee9f65c50e4ae0113d7",
                "tokenID": "7590"
            }
        ],
        "token_infos": [
            {
                "address": "0xc02aaa39b223fe8d0a0e5c4f27ead9083c756cc2",
                "decimals": 18
            },
            {
                "address": "0xeeeeeeeeeeeeeeeeeeeeeeeeeeeeeeeeeeeeeeee",
                "decimals": 18
            }
        ]
    },
    "address_label": {
        "labels": [
            {
                "address": "0x0000000000000000000000000000000000000003",
                "label": "Precompiled"
            },
            {
                "address": "0x0000000000000000000000000000000000000004",
                "label": "Precompiled"
            },
            {
                "address": "0xeeeeeeeeeeeeeeeeeeeeeeeeeeeeeeeeeeeeeeee",
                "label": "Ether"
            },
            {
                "address": "0xdcf809bba1d9ee75c6991f1e2974163cf2555418",
                "label": "ERC721Farm"
            },
            {
                "address": "0xff9c1b15b16263c61d017ee9f65c50e4ae0113d7",
                "label": "Loot: LOOT Token"
            },
            {
                "address": "0x0000000000000000000000000000000000000001",
                "label": "Precompiled"
            },
            {
                "address": "0x0000000000000000000000000000000000000002",
                "label": "Precompiled"
            }
        ]
    },
    "trace": {
        "accountLabels": null,
        "dataMap": {
            "-1": {
                "invocation": {
                    "address": "0xfdd87178e0ee23c3f6c1698aa208c4c316c7b90c",
                    "callData": "",
                    "decodedMethod": null,
                    "errorInfo": "",
                    "fromAddress": "",
                    "gasUsed": 0,
                    "id": -1,
                    "methodDecoded": false,
                    "operation": "",
                    "output": "",
                    "revert": false,
                    "revertMessage": "",
                    "selector": "",
                    "status": false,
                    "value": ""
                },
                "nodeType": 0
            },
            "0": {
                "invocation": {
                    "address": "0xdcf809bba1d9ee75c6991f1e2974163cf2555418",
                    "callData": "0x000000000000000000000000000000000000000000000000000000000000002000000000000000000000000000000000000000000000000000000000000000010000000000000000000000000000000000000000000000000000000000001da6",
                    "decodedMethod": {
                        "callParams": [
                            {
                                "name": "tokenIds",
                                "type": "uint256[]",
                                "value": [
                                    "7,590"
                                ]
                            }
                        ],
                        "constructorArguments": "",
                        "name": "deposit",
                        "returnParams": [],
                        "signature": "deposit(uint256[])"
                    },
                    "errorInfo": "",
                    "fromAddress": "0xfdd87178e0ee23c3f6c1698aa208c4c316c7b90c",
                    "gasUsed": 185932,
                    "id": 0,
                    "methodDecoded": true,
                    "operation": "CALL",
                    "output": "",
                    "revert": false,
                    "revertMessage": "",
                    "selector": "0x598b8e71",
                    "status": true,
                    "value": "0"
                },
                "nodeType": 0
            },
            "1": {
                "invocation": {
                    "address": "0xff9c1b15b16263c61d017ee9f65c50e4ae0113d7",
                    "callData": "0x000000000000000000000000fdd87178e0ee23c3f6c1698aa208c4c316c7b90c000000000000000000000000dcf809bba1d9ee75c6991f1e2974163cf25554180000000000000000000000000000000000000000000000000000000000001da600000000000000000000000000000000000000000000000000000000000000800000000000000000000000000000000000000000000000000000000000000000",
                    "decodedMethod": {
                        "callParams": [
                            {
                                "name": "from",
                                "type": "address",
                                "value": "0xfdd87178e0ee23c3f6c1698aa208c4c316c7b90c"
                            },
                            {
                                "name": "to",
                                "type": "address",
                                "value": "0xdcf809bba1d9ee75c6991f1e2974163cf2555418"
                            },
                            {
                                "name": "tokenId",
                                "type": "uint256",
                                "value": "7,590"
                            },
                            {
                                "name": "_data",
                                "type": "bytes",
                                "value": "0x"
                            }
                        ],
                        "constructorArguments": "",
                        "name": "safeTransferFrom",
                        "returnParams": [],
                        "signature": "safeTransferFrom(address,address,uint256,bytes)"
                    },
                    "errorInfo": "",
                    "fromAddress": "0xdcf809bba1d9ee75c6991f1e2974163cf2555418",
                    "gasUsed": 79232,
                    "id": 1,
                    "methodDecoded": true,
                    "operation": "CALL",
                    "output": "",
                    "revert": false,
                    "revertMessage": "",
                    "selector": "0xb88d4fde",
                    "status": true,
                    "value": "0"
                },
                "nodeType": 0
            },
            "2": {
                "event": {
                    "contract": "0xff9c1b15b16263c61d017ee9f65c50e4ae0113d7",
                    "decodedLog": {
                        "name": "Approval",
                        "params": [
                            {
                                "name": "owner",
                                "type": "address",
                                "value": "0xfdd87178e0ee23c3f6c1698aa208c4c316c7b90c"
                            },
                            {
                                "name": "approved",
                                "type": "address",
                                "value": "0x0000000000000000000000000000000000000000"
                            },
                            {
                                "decimalAvailable": true,
                                "name": "tokenId",
                                "type": "uint256",
                                "value": "7,590"
                            }
                        ],
                        "signature": "Approval(address,address,uint256)"
                    },
                    "id": 2,
                    "logData": "0x",
                    "logDecoded": true,
                    "operation": "EVENT",
                    "revert": false,
                    "status": true,
                    "topics": [
                        "0x8c5be1e5ebec7d5bd14f71427d1e84f3dd0314c0f7b2291e5b200ac8c7c3b925",
                        "0x000000000000000000000000fdd87178e0ee23c3f6c1698aa208c4c316c7b90c",
                        "0x0000000000000000000000000000000000000000000000000000000000000000",
                        "0x0000000000000000000000000000000000000000000000000000000000001da6"
                    ]
                },
                "nodeType": 1
            },
            "3": {
                "event": {
                    "contract": "0xff9c1b15b16263c61d017ee9f65c50e4ae0113d7",
                    "decodedLog": {
                        "name": "Transfer",
                        "params": [
                            {
                                "name": "from",
                                "type": "address",
                                "value": "0xfdd87178e0ee23c3f6c1698aa208c4c316c7b90c"
                            },
                            {
                                "name": "to",
                                "type": "address",
                                "value": "0xdcf809bba1d9ee75c6991f1e2974163cf2555418"
                            },
                            {
                                "decimalAvailable": true,
                                "name": "tokenId",
                                "type": "uint256",
                                "value": "7,590"
                            }
                        ],
                        "signature": "Transfer(address,address,uint256)"
                    },
                    "id": 3,
                    "logData": "0x",
                    "logDecoded": true,
                    "operation": "EVENT",
                    "revert": false,
                    "status": true,
                    "topics": [
                        "0xddf252ad1be2c89b69c2b068fc378daa952ba7f163c4a11628f55a4df523b3ef",
                        "0x000000000000000000000000fdd87178e0ee23c3f6c1698aa208c4c316c7b90c",
                        "0x000000000000000000000000dcf809bba1d9ee75c6991f1e2974163cf2555418",
                        "0x0000000000000000000000000000000000000000000000000000000000001da6"
                    ]
                },
                "nodeType": 1
            },
            "4": {
                "invocation": {
                    "address": "0xdcf809bba1d9ee75c6991f1e2974163cf2555418",
                    "callData": "0x000000000000000000000000dcf809bba1d9ee75c6991f1e2974163cf2555418000000000000000000000000fdd87178e0ee23c3f6c1698aa208c4c316c7b90c0000000000000000000000000000000000000000000000000000000000001da600000000000000000000000000000000000000000000000000000000000000800000000000000000000000000000000000000000000000000000000000000000",
                    "decodedMethod": {
                        "callParams": [
                            {
                                "name": "",
                                "type": "address",
                                "value": "0xdcf809bba1d9ee75c6991f1e2974163cf2555418"
                            },
                            {
                                "name": "",
                                "type": "address",
                                "value": "0xfdd87178e0ee23c3f6c1698aa208c4c316c7b90c"
                            },
                            {
                                "name": "",
                                "type": "uint256",
                                "value": "7,590"
                            },
                            {
                                "name": "",
                                "type": "bytes",
                                "value": "0x"
                            }
                        ],
                        "constructorArguments": "",
                        "name": "onERC721Received",
                        "returnParams": [
                            {
                                "name": "",
                                "type": "bytes4",
                                "value": "0x150b7a02"
                            }
                        ],
                        "signature": "onERC721Received(address,address,uint256,bytes)"
                    },
                    "errorInfo": "",
                    "fromAddress": "0xff9c1b15b16263c61d017ee9f65c50e4ae0113d7",
                    "gasUsed": 753,
                    "id": 4,
                    "methodDecoded": true,
                    "operation": "CALL",
                    "output": "0x150b7a0200000000000000000000000000000000000000000000000000000000",
                    "revert": false,
                    "revertMessage": "",
                    "selector": "0x150b7a02",
                    "status": true,
                    "value": "0"
                },
                "nodeType": 0
            }
        },
        "gasFlame": [
            {
                "children": [
                    {
                        "children": [
                            {
                                "children": [],
                                "depth": 0,
                                "name": "Initial Gas",
                                "value": 21496
                            },
                            {
                                "children": [
                                    {
                                        "children": [
                                            {
                                                "children": [],
                                                "depth": 2,
                                                "name": "onERC721Received",
                                                "value": 753
                                            }
                                        ],
                                        "depth": 1,
                                        "name": "safeTransferFrom",
                                        "value": 79232
                                    }
                                ],
                                "depth": 0,
                                "name": "Executed Gas",
                                "value": 174036
                            }
                        ],
                        "depth": -1,
                        "name": "Actual Gas Used",
                        "value": 185932
                    },
                    {
                        "children": [],
                        "depth": -1,
                        "name": "Refunded Gas",
                        "value": 9600
                    }
                ],
                "depth": -2,
                "name": "Total Gas",
                "value": 195532
            }
        ],
        "isConfirmed": true,
        "mainTrace": [
            {
                "children": [
                    {
                        "children": [
                            {
                                "children": [
                                    {
                                        "children": [],
                                        "depth": 2,
                                        "id": 2,
                                        "order": 2
                                    },
                                    {
                                        "children": [],
                                        "depth": 2,
                                        "id": 3,
                                        "order": 3
                                    },
                                    {
                                        "children": [],
                                        "depth": 2,
                                        "id": 4,
                                        "order": 4
                                    }
                                ],
                                "depth": 1,
                                "id": 1,
                                "order": 1
                            }
                        ],
                        "depth": 0,
                        "id": 0,
                        "order": 0
                    }
                ],
                "depth": -1,
                "id": -1,
                "order": -1
            }
        ],
        "mainTraceNodeCount": 5,
        "parentIdMap": {
            "0": -1,
            "1": 0,
            "2": 1,
            "3": 1,
            "4": 1
        },
        "tidyTrace": [
            {
                "children": [
                    {
                        "children": [
                            {
                                "children": [
                                    {
                                        "children": [],
                                        "depth": 2,
                                        "id": 2,
                                        "order": 2
                                    },
                                    {
                                        "children": [],
                                        "depth": 2,
                                        "id": 3,
                                        "order": 3
                                    },
                                    {
                                        "children": [],
                                        "depth": 2,
                                        "id": 4,
                                        "order": 4
                                    }
                                ],
                                "depth": 1,
                                "id": 1,
                                "order": 1
                            }
                        ],
                        "depth": 0,
                        "id": 0,
                        "order": 0
                    }
                ],
                "depth": -1,
                "id": -1,
                "order": -1
            }
        ],
        "tidyTraceNodeCount": 5
    },
    "state_change": {
        "stateChanges": [
            {
                "address": "0xdcf809bba1d9ee75c6991f1e2974163cf2555418",
                "erc": "",
                "slots": [
                    {
                        "current": "0x0000000000000000000000000000000000000000000000000000000000000001",
                        "key": "0x29d1c18bd4cf24b59b922bf293f0d290393609a557328ba55f40603d585b9306",
                        "prev": "0x0000000000000000000000000000000000000000000000000000000000000000"
                    },
                    {
                        "current": "0x0000000000000000000000000000000000000000000000000000000000c91318",
                        "key": "0x726dcad4470cba7662b9f5dd1e089471bca32845c8263fdeeb994689a03e397f",
                        "prev": "0x0000000000000000000000000000000000000000000000000000000000000000"
                    },
                    {
                        "current": "0x0000000000000000000000000000000000000000000000000000000000000001",
                        "key": "0x2b603f7fc0f19cd3e4e499f27a5166aa408a5ea450220bef964902e6302f2f8f",
                        "prev": "0x0000000000000000000000000000000000000000000000000000000000000000"
                    },
                    {
                        "current": "0x0000000000000000000000000000000000000000000000000000000000001da6",
                        "key": "0xaa4f4a6c41a12ff918af8539d37b1afdb6d2ed538282912a851a08c72d93155c",
                        "prev": "0x0000000000000000000000000000000000000000000000000000000000000000"
                    }
                ],
                "storageVariables": [
                    {
                        "name": "_deposits",
                        "type": "mapping(address => struct EnumerableSet.UintSet)",
                        "value": {
                            "pairs": [
                                {
                                    "key": "0xfdd87178e0ee23c3f6c1698aa208c4c316c7b90c",
                                    "value": {
                                        "fields": [
                                            {
                                                "name": "_inner",
                                                "type": "struct EnumerableSet.Set",
                                                "value": {
                                                    "fields": [
                                                        {
                                                            "name": "_values",
                                                            "type": "bytes32[]",
                                                            "value": {
                                                                "elemType": "bytes32",
                                                                "elems": [
                                                                    {
                                                                        "index": 0,
                                                                        "value": {
                                                                            "current": "0x0000000000000000000000000000000000000000000000000000000000001da6",
                                                                            "prev": "0x0000000000000000000000000000000000000000000000000000000000000000",
                                                                            "typeTag": 1
                                                                        }
                                                                    }
                                                                ],
                                                                "typeTag": 2
                                                            }
                                                        },
                                                        {
                                                            "name": "_indexes",
                                                            "type": "mapping(bytes32 => uint256)",
                                                            "value": {
                                                                "pairs": [
                                                                    {
                                                                        "key": "0x0000000000000000000000000000000000000000000000000000000000001da6",
                                                                        "value": {
                                                                            "current": "1",
                                                                            "prev": "0",
                                                                            "typeTag": 1
                                                                        }
                                                                    }
                                                                ],
                                                                "typeTag": 4
                                                            }
                                                        }
                                                    ],
                                                    "typeTag": 3
                                                }
                                            }
                                        ],
                                        "typeTag": 3
                                    }
                                }
                            ],
                            "typeTag": 4
                        }
                    },
                    {
                        "name": "depositBlocks",
                        "type": "mapping(address => mapping(uint256 => uint256))",
                        "value": {
                            "pairs": [
                                {
                                    "key": "0xfdd87178e0ee23c3f6c1698aa208c4c316c7b90c",
                                    "value": {
                                        "pairs": [
                                            {
                                                "key": "7590",
                                                "value": {
                                                    "current": "13177624",
                                                    "prev": "0",
                                                    "typeTag": 1
                                                }
                                            }
                                        ],
                                        "typeTag": 4
                                    }
                                }
                            ],
                            "typeTag": 4
                        }
                    }
                ]
            },
            {
                "address": "0xff9c1b15b16263c61d017ee9f65c50e4ae0113d7",
                "erc": "ERC-721",
                "slots": [
                    {
                        "current": "0x0000000000000000000000000000000000000000000000000000000000000000",
                        "key": "0x17c5130a046d64bf25a0a6ebd821d90a62846e5321a0688cfbacdb85a324ff25",
                        "prev": "0x0000000000000000000000000000000000000000000000000000000000001da6"
                    },
                    {
                        "current": "0x0000000000000000000000000000000000000000000000000000000000001da6",
                        "key": "0xcb97fc609a1fef24fa114374f5c803f65d2c1dc97f1c96bdbcba9c22a168d7ae",
                        "prev": "0x0000000000000000000000000000000000000000000000000000000000000000"
                    },
                    {
                        "current": "0x0000000000000000000000000000000000000000000000000000000000000053",
                        "key": "0xc4a086bb5b07e15e78dc302ed43bceadbde242a8a0f7a07f0e065c5ef6df17c5",
                        "prev": "0x0000000000000000000000000000000000000000000000000000000000000000"
                    },
                    {
                        "current": "0x0000000000000000000000000000000000000000000000000000000000000000",
                        "key": "0x7fc1a29bb8ba11e23e44e96d4db6018565e8bdf8cad2085d42011796c7564d5d",
                        "prev": "0x0000000000000000000000000000000000000000000000000000000000000001"
                    },
                    {
                        "current": "0x0000000000000000000000000000000000000000000000000000000000000054",
                        "key": "0x98dce511d19ef5801ac2e8a817ec65b211e90303f5abfc340dce9f8d1f185cdd",
                        "prev": "0x0000000000000000000000000000000000000000000000000000000000000053"
                    },
                    {
                        "current": "0x000000000000000000000000dcf809bba1d9ee75c6991f1e2974163cf2555418",
                        "key": "0xa3afb11ecd2836c5beef0dd9f61b80a0b2effbcdd99d637230e8f2974224333b",
                        "prev": "0x000000000000000000000000fdd87178e0ee23c3f6c1698aa208c4c316c7b90c"
                    }
                ],
                "storageVariables": [
                    {
                        "name": "_balances",
                        "type": "mapping(address => uint256)",
                        "value": {
                            "pairs": [
                                {
                                    "key": "0xdcf809bba1d9ee75c6991f1e2974163cf2555418",
                                    "value": {
                                        "current": "84",
                                        "prev": "83",
                                        "typeTag": 1
                                    }
                                },
                                {
                                    "key": "0xfdd87178e0ee23c3f6c1698aa208c4c316c7b90c",
                                    "value": {
                                        "current": "0",
                                        "prev": "1",
                                        "typeTag": 1
                                    }
                                }
                            ],
                            "typeTag": 4
                        }
                    },
                    {
                        "name": "_owners",
                        "type": "mapping(uint256 => address)",
                        "value": {
                            "pairs": [
                                {
                                    "key": "7590",
                                    "value": {
                                        "current": "0xdcf809bba1d9ee75c6991f1e2974163cf2555418",
                                        "prev": "0xfdd87178e0ee23c3f6c1698aa208c4c316c7b90c",
                                        "typeTag": 1
                                    }
                                }
                            ],
                            "typeTag": 4
                        }
                    },
                    {
                        "name": "_ownedTokens",
                        "type": "mapping(address => mapping(uint256 => uint256))",
                        "value": {
                            "pairs": [
                                {
                                    "key": "0xdcf809bba1d9ee75c6991f1e2974163cf2555418",
                                    "value": {
                                        "pairs": [
                                            {
                                                "key": "83",
                                                "value": {
                                                    "current": "7590",
                                                    "prev": "0",
                                                    "typeTag": 1
                                                }
                                            }
                                        ],
                                        "typeTag": 4
                                    }
                                },
                                {
                                    "key": "0xfdd87178e0ee23c3f6c1698aa208c4c316c7b90c",
                                    "value": {
                                        "pairs": [
                                            {
                                                "key": "0",
                                                "value": {
                                                    "current": "0",
                                                    "prev": "7590",
                                                    "typeTag": 1
                                                }
                                            }
                                        ],
                                        "typeTag": 4
                                    }
                                }
                            ],
                            "typeTag": 4
                        }
                    },
                    {
                        "name": "_ownedTokensIndex",
                        "type": "mapping(uint256 => uint256)",
                        "value": {
                            "pairs": [
                                {
                                    "key": "7590",
                                    "value": {
                                        "current": "83",
                                        "prev": "0",
                                        "typeTag": 1
                                    }
                                }
                            ],
                            "typeTag": 4
                        }
                    }
                ]
            }
        ]
    }
}