{
    "balance_change": {
        "balanceChanges": [
            {
                "account": "0x0000000000000000000000000000000000000000",
                "assets": [
                    {
                        "address": "0xe4605d46fd0b3f8329d936a8b258d69276cba264",
                        "amount": "1",
                        "iconUrl": "",
                        "isERC1155": true,
                        "isERC721": false,
                        "sign": false,
                        "tokenID": "6",
                        "value": ""
                    }
                ]
            },
            {
                "account": "0xaff3f8719a070f92cf7aa90129aced9406178003",
                "assets": [
                    {
                        "address": "0xe4605d46fd0b3f8329d936a8b258d69276cba264",
                        "amount": "1",
                        "iconUrl": "",
                        "isERC1155": true,
                        "isERC721": false,
                        "sign": true,
                        "tokenID": "6",
                        "value": ""
                    }
                ]
            }
        ]
    },
    "profile": {
        "basic_info": {
            "baseFee": "",
            "blockNumber": 10791234,
            "callData": "0xdb006a750000000000000000000000000000000000000000000000000000000000000006",
            "debugEnable": true,
            "errorInfo": "",
            "eventCount": 2,
            "feeRecipient": "0x52bc44d5378309ee2abf1539bf71de1b7d7be3b5",
            "formatValue": "0",
            "gasLimit": 200000,
            "gasPrice": "199",
            "gasUsed": 101354,
            "intTxnCount": 3,
            "internalRevert": false,
            "internalRevertMessage": "",
            "isContractCreation": false,
            "isFlashloan": false,
            "maxFee": "",
            "nonce": 2,
            "overwritedBlockNumber": -1,
            "priorityFee": "",
            "receiver": "0xad97c2fcca6bc28dd2dd20f6c28ab76ab35d3601",
            "revertMessage": "",
            "sender": "0xaff3f8719a070f92cf7aa90129aced9406178003",
            "simulationEnable": true,
            "sourceTxnHash": "0x6ad035e21893b42964dadb310e9e2d48757348c9abe7fa655982210cd15c9a95",
            "status": true,
            "timestamp": "2020-09-03T23:14:26Z",
            "transactionFee": "0.020169446",
            "txnHash": "0x6ad035e21893b42964dadb310e9e2d48757348c9abe7fa655982210cd15c9a95",
            "txnIndex": 108,
            "type": 0,
            "value": "0"
        },
        "fund_flow": [
            {
                "amount": "1",
                "from": "0x0000000000000000000000000000000000000000",
                "id": 1,
                "isERC1155": true,
                "isERC721": false,
                "isReverted": false,
                "order": 1,
                "to": "0xaff3f8719a070f92cf7aa90129aced9406178003",
                "token": "0xe4605d46fd0b3f8329d936a8b258d69276cba264",
                "tokenID": "6"
            }
        ],
        "token_infos": [
            {
                "address": "0xeeeeeeeeeeeeeeeeeeeeeeeeeeeeeeeeeeeeeeee",
                "decimals": 18
            },
            {
                "address": "0xc02aaa39b223fe8d0a0e5c4f27ead9083c756cc2",
                "decimals": 18
            }
        ]
    },
    "address_label": {
        "labels": [
            {
                "address": "0x0000000000000000000000000000000000000002",
                "label": "Precompiled"
            },
            {
                "address": "0x0000000000000000000000000000000000000003",
                "label": "Precompiled"
            },
            {
                "address": "0x0000000000000000000000000000000000000004",
                "label": "Precompiled"
            },
            {
                "address": "0xeeeeeeeeeeeeeeeeeeeeeeeeeeeeeeeeeeeeeeee",
                "label": "Ether"
            },
            {
                "address": "0xe4605d46fd0b3f8329d936a8b258d69276cba264",
                "label": "0xe4605d46fd0b3f8329d936a8b258d69276cba264"
            },
            {
                "address": "0xad97c2fcca6bc28dd2dd20f6c28ab76ab35d3601",
                "label": "GenesisPool"
            },
            {
                "address": "0x0000000000000000000000000000000000000001",
                "label": "Precompiled"
            }
        ]
    },
    "trace": {
        "accountLabels": null,
        "dataMap": {
            "-1": {
                "invocation": {
                    "address": "0xaff3f8719a070f92cf7aa90129aced9406178003",
                    "callData": "",
                    "decodedMethod": null,
                    "errorInfo": "",
                    "fromAddress": "",
                    "gasUsed": 0,
                    "id": -1,
                    "methodDecoded": false,
                    "operation": "",
                    "output": "",
                    "revert": false,
                    "revertMessage": "",
                    "selector": "",
                    "status": false,
                    "value": ""
                },
                "nodeType": 0
            },
            "0": {
                "invocation": {
                    "address": "0xad97c2fcca6bc28dd2dd20f6c28ab76ab35d3601",
                    "callData": "0x0000000000000000000000000000000000000000000000000000000000000006",
                    "decodedMethod": {
                        "callParams": [
                            {
                                "name": "card",
                                "type": "uint256",
                                "value": "6"
                            }
                        ],
                        "constructorArguments": "",
                        "name": "redeem",
                        "returnParams": [],
                        "signature": "redeem(uint256)"
                    },
                    "errorInfo": "",
                    "fromAddress": "0xaff3f8719a070f92cf7aa90129aced9406178003",
                    "gasUsed": 101354,
                    "id": 0,
                    "methodDecoded": true,
                    "operation": "CALL",
                    "output": "",
                    "revert": false,
                    "revertMessage": "",
                    "selector": "0xdb006a75",
                    "status": true,
                    "value": "0"
                },
                "nodeType": 0
            },
            "1": {
                "invocation": {
                    "address": "0xe4605d46fd0b3f8329d936a8b258d69276cba264",
                    "callData": "0x0000000000000000000000000000000000000000000000000000000000000006",
                    "decodedMethod": {
                        "callParams": [
                            {
                                "name": "_id",
                                "type": "uint256",
                                "value": "6"
                            }
                        ],
                        "constructorArguments": "",
                        "name": "maxSupply",
                        "returnParams": [
                            {
                                "name": "",
                                "type": "uint256",
                                "value": "100"
                            }
                        ],
                        "signature": "maxSupply(uint256)"
                    },
                    "errorInfo": "",
                    "fromAddress": "0xad97c2fcca6bc28dd2dd20f6c28ab76ab35d3601",
                    "gasUsed": 1152,
                    "id": 1,
                    "methodDecoded": true,
                    "operation": "STATICCALL",
                    "output": "0x0000000000000000000000000000000000000000000000000000000000000064",
                    "revert": false,
                    "revertMessage": "",
                    "selector": "0x869f7594",
                    "status": true,
                    "value": "0"
                },
                "nodeType": 0
            },
            "2": {
                "invocation": {
                    "address": "0xe4605d46fd0b3f8329d936a8b258d69276cba264",
                    "callData": "0x0000000000000000000000000000000000000000000000000000000000000006",
                    "decodedMethod": {
                        "callParams": [
                            {
                                "name": "_id",
                                "type": "uint256",
                                "value": "6"
                            }
                        ],
                        "constructorArguments": "",
                        "name": "totalSupply",
                        "returnParams": [
                            {
                                "name": "",
                                "type": "uint256",
                                "value": "28"
                            }
                        ],
                        "signature": "totalSupply(uint256)"
                    },
                    "errorInfo": "",
                    "fromAddress": "0xad97c2fcca6bc28dd2dd20f6c28ab76ab35d3601",
                    "gasUsed": 1195,
                    "id": 2,
                    "methodDecoded": true,
                    "operation": "STATICCALL",
                    "output": "0x000000000000000000000000000000000000000000000000000000000000001c",
                    "revert": false,
                    "revertMessage": "",
                    "selector": "0xbd85b039",
                    "status": true,
                    "value": "0"
                },
                "nodeType": 0
            },
            "3": {
                "invocation": {
                    "address": "0xe4605d46fd0b3f8329d936a8b258d69276cba264",
                    "callData": "0x000000000000000000000000aff3f8719a070f92cf7aa90129aced940617800300000000000000000000000000000000000000000000000000000000000000060000000000000000000000000000000000000000000000000000000000000001000000000000000000000000000000000000000000000000000000000000008000000000000000000000000000000000000000000000000000000000000000000000000000000000000000000000000000000000000000000000000000000000",
                    "decodedMethod": {
                        "callParams": [
                            {
                                "name": "_to",
                                "type": "address",
                                "value": "0xaff3f8719a070f92cf7aa90129aced9406178003"
                            },
                            {
                                "name": "_id",
                                "type": "uint256",
                                "value": "6"
                            },
                            {
                                "name": "_quantity",
                                "type": "uint256",
                                "value": "1"
                            },
                            {
                                "name": "_data",
                                "type": "bytes",
                                "value": "0x"
                            }
                        ],
                        "constructorArguments": "",
                        "name": "mint",
                        "returnParams": [],
                        "signature": "mint(address,uint256,uint256,bytes)"
                    },
                    "errorInfo": "",
                    "fromAddress": "0xad97c2fcca6bc28dd2dd20f6c28ab76ab35d3601",
                    "gasUsed": 34090,
                    "id": 3,
                    "methodDecoded": true,
                    "operation": "CALL",
                    "output": "",
                    "revert": false,
                    "revertMessage": "",
                    "selector": "0x731133e9",
                    "status": true,
                    "value": "0"
                },
                "nodeType": 0
            },
            "4": {
                "event": {
                    "contract": "0xe4605d46fd0b3f8329d936a8b258d69276cba264",
                    "decodedLog": {
                        "name": "TransferSingle",
                        "params": [
                            {
                                "name": "_operator",
                                "type": "address",
                                "value": "0xad97c2fcca6bc28dd2dd20f6c28ab76ab35d3601"
                            },
                            {
                                "name": "_from",
                                "type": "address",
                                "value": "0x0000000000000000000000000000000000000000"
                            },
                            {
                                "name": "_to",
                                "type": "address",
                                "value": "0xaff3f8719a070f92cf7aa90129aced9406178003"
                            },
                            {
                                "name": "_id",
                                "type": "uint256",
                                "value": "6"
                            },
                            {
                                "name": "_amount",
                                "type": "uint256",
                                "value": "1"
                            }
                        ],
                        "signature": "TransferSingle(address,address,address,uint256,uint256)"
                    },
                    "id": 4,
                    "logData": "0x00000000000000000000000000000000000000000000000000000000000000060000000000000000000000000000000000000000000000000000000000000001",
                    "logDecoded": true,
                    "operation": "EVENT",
                    "revert": false,
                    "status": true,
                    "topics": [
                        "0xc3d58168c5ae7397731d063d5bbf3d657854427343f4c083240f7aacaa2d0f62",
                        "0x000000000000000000000000ad97c2fcca6bc28dd2dd20f6c28ab76ab35d3601",
                        "0x0000000000000000000000000000000000000000000000000000000000000000",
                        "0x000000000000000000000000aff3f8719a070f92cf7aa90129aced9406178003"
                    ]
                },
                "nodeType": 1
            },
            "5": {
                "event": {
                    "contract": "0xad97c2fcca6bc28dd2dd20f6c28ab76ab35d3601",
                    "decodedLog": {
                        "name": "Redeemed",
                        "params": [
                            {
                                "name": "user",
                                "type": "address",
                                "value": "0xaff3f8719a070f92cf7aa90129aced9406178003"
                            },
                            {
                                "name": "amount",
                                "type": "uint256",
                                "value": "30,000,000,000,000,000,000"
                            }
                        ],
                        "signature": "Redeemed(address,uint256)"
                    },
                    "id": 5,
                    "logData": "0x000000000000000000000000000000000000000000000001a055690d9db80000",
                    "logDecoded": true,
                    "operation": "EVENT",
                    "revert": false,
                    "status": true,
                    "topics": [
                        "0x4896181ff8f4543cc00db9fe9b6fb7e6f032b7eb772c72ab1ec1b4d2e03b9369",
                        "0x000000000000000000000000aff3f8719a070f92cf7aa90129aced9406178003"
                    ]
                },
                "nodeType": 1
            }
        },
        "gasFlame": [
            {
                "children": [
                    {
                        "children": [
                            {
                                "children": [],
                                "depth": 0,
                                "name": "Initial Gas",
                                "value": 21192
                            },
                            {
                                "children": [
                                    {
                                        "children": [],
                                        "depth": 1,
                                        "name": "maxSupply",
                                        "value": 1152
                                    },
                                    {
                                        "children": [],
                                        "depth": 1,
                                        "name": "totalSupply",
                                        "value": 1195
                                    },
                                    {
                                        "children": [],
                                        "depth": 1,
                                        "name": "mint",
                                        "value": 34090
                                    }
                                ],
                                "depth": 0,
                                "name": "Executed Gas",
                                "value": 80162
                            }
                        ],
                        "depth": -1,
                        "name": "Actual Gas Used",
                        "value": 101354
                    },
                    {
                        "children": [],
                        "depth": -1,
                        "name": "Refunded Gas",
                        "value": 0
                    }
                ],
                "depth": -2,
                "name": "Total Gas",
                "value": 101354
            }
        ],
        "isConfirmed": true,
        "mainTrace": [
            {
                "children": [
                    {
                        "children": [
                            {
                                "children": [],
                                "depth": 1,
                                "id": 1,
                                "order": 1
                            },
                            {
                                "children": [],
                                "depth": 1,
                                "id": 2,
                                "order": 2
                            },
                            {
                                "children": [
                                    {
                                        "children": [],
                                        "depth": 2,
                                        "id": 4,
                                        "order": 4
                                    }
                                ],
                                "depth": 1,
                                "id": 3,
                                "order": 3
                            },
                            {
                                "children": [],
                                "depth": 1,
                                "id": 5,
                                "order": 5
                            }
                        ],
                        "depth": 0,
                        "id": 0,
                        "order": 0
                    }
                ],
                "depth": -1,
                "id": -1,
                "order": -1
            }
        ],
        "mainTraceNodeCount": 6,
        "parentIdMap": {
            "0": -1,
            "1": 0,
            "2": 0,
            "3": 0,
            "4": 3,
            "5": 0
        },
        "tidyTrace": [
            {
                "children": [
                    {
                        "children": [
                            {
                                "children": [
                                    {
                                        "children": [],
                                        "depth": 2,
                                        "id": 4,
                                        "order": 4
                                    }
                                ],
                                "depth": 1,
                                "id": 3,
                                "order": 3
                            },
                            {
                                "children": [],
                                "depth": 1,
                                "id": 5,
                                "order": 5
                            }
                        ],
                        "depth": 0,
                        "id": 0,
                        "order": 0
                    }
                ],
                "depth": -1,
                "id": -1,
                "order": -1
            }
        ],
        "tidyTraceNodeCount": 4
    },
    "state_change": {
        "stateChanges": [
            {
                "address": "0xad97c2fcca6bc28dd2dd20f6c28ab76ab35d3601",
                "erc": "",
                "slots": [
                    {
                        "current": "0x00000000000000000000000000000000000000000000000090d1a2e74e1ea425",
                        "key": "0x13499f473bad158a648d5153280a915e0af6998adffd81e9c2757899e28a519e",
                        "prev": "0x0000000000000000000000000000000000000000000000000000000000000000"
                    },
                    {
                        "current": "0x000000000000000000000000000000000000000000000000000000005f5178d2",
                        "key": "0xf8546d74a2a110e272a71327c7cdd9a47597302508916f601dbb9d3411634648",
                        "prev": "0x000000000000000000000000000000000000000000000000000000005f46cf70"
                    }
                ],
                "storageVariables": [
                    {
                        "name": "points",
                        "type": "mapping(address => uint256)",
                        "value": {
                            "pairs": [
                                {
                                    "key": "0xaff3f8719a070f92cf7aa90129aced9406178003",
                                    "value": {
                                        "current": "10435300925925925925",
                                        "prev": "0",
                                        "typeTag": 1
                                    }
                                }
                            ],
                            "typeTag": 4
                        }
                    },
                    {
                        "name": "lastUpdateTime",
                        "type": "mapping(address => uint256)",
                        "value": {
                            "pairs": [
                                {
                                    "key": "0xaff3f8719a070f92cf7aa90129aced9406178003",
                                    "value": {
                                        "current": "1599174866",
                                        "prev": "1598476144",
                                        "typeTag": 1
                                    }
                                }
                            ],
                            "typeTag": 4
                        }
                    }
                ]
            },
            {
                "address": "0xe4605d46fd0b3f8329d936a8b258d69276cba264",
                "erc": "ERC-1155",
                "slots": [
                    {
                        "current": "0x0000000000000000000000000000000000000000000000000000000000000001",
                        "key": "0xd4b863be8c88b40ae8b6f38b0003a92d96c7dd615f9cda2f449c30cedf44dfa9",
                        "prev": "0x0000000000000000000000000000000000000000000000000000000000000000"
                    },
                    {
                        "current": "0x000000000000000000000000000000000000000000000000000000000000001d",
                        "key": "0xbb6daa0c283751197dfdc76590680f9005e97d6f23870deb1164ab60b28b9f5f",
                        "prev": "0x000000000000000000000000000000000000000000000000000000000000001c"
                    }
                ],
                "storageVariables": [
                    {
                        "name": "balances",
                        "type": "mapping(address => mapping(uint256 => uint256))",
                        "value": {
                            "pairs": [
                                {
                                    "key": "0xaff3f8719a070f92cf7aa90129aced9406178003",
                                    "value": {
                                        "pairs": [
                                            {
                                                "key": "6",
                                                "value": {
                                                    "current": "1",
                                                    "prev": "0",
                                                    "typeTag": 1
                                                }
                                            }
                                        ],
                                        "typeTag": 4
                                    }
                                }
                            ],
                            "typeTag": 4
                        }
                    },
                    {
                        "name": "tokenSupply",
                        "type": "mapping(uint256 => uint256)",
                        "value": {
                            "pairs": [
                                {
                                    "key": "6",
                                    "value": {
                                        "current": "29",
                                        "prev": "28",
                                        "typeTag": 1
                                    }
                                }
                            ],
                            "typeTag": 4
                        }
                    }
                ]
            }
        ]
    }
}