{
    "balance_change": {
        "balanceChanges": []
    },
    "profile": {
        "basic_info": {
            "baseFee": "1.379068912",
            "blockNumber": 20307262,
            "callData": "0xef16e845000000000000000000000000000000000000000000000000000000000000004000000000000000000000000000000000000000000000000000000000000001e0000000000000000000000000000000000000000000000000000000000000018000000000000000000000000000000000000000000000000000000000000000200000000000000000000000000000000000000000000000000000000000000000000000000000000000000000000000633b68f5d8d3a86593ebb815b4663bcbe0302e31382e302d64657600000000000000000000000000000000000000000000000000000000000000000000000000000000000000000000000000000000000000000000000000000000000000000000000000000000000000000000000000c000000000000000000000000000000000000000000000000000000000000000e000000000000000000000000000000000000000000000000000000000000000000000000000000000000000000000000000000000000000000000000000000041fb668b621edb8a5f08fa45cb76d00801a3b40922c62553e84ee9974c18be2c7552fadfd7484ee1bf37016a3cc3bcd212ae7405b877e4a121d8a3ca9dc2effd331c000000000000000000000000000000000000000000000000000000000000000000000000000000000000000000000000000000000000000000000000000000",
            "debugEnable": true,
            "errorInfo": "",
            "eventCount": 3,
            "feeRecipient": "0x95222290dd7278aa3ddd389cc1e1d165cc4bafe5",
            "formatValue": "0",
            "gasLimit": 3000000,
            "gasPrice": "4.379068912",
            "gasUsed": 167830,
            "intTxnCount": 11,
            "internalRevert": false,
            "internalRevertMessage": "",
            "isContractCreation": false,
            "isFlashloan": false,
            "maxFee": "33",
            "nonce": 168667,
            "overwritedBlockNumber": -1,
            "priorityFee": "3",
            "receiver": "0x68d30f47f19c07bccef4ac7fae2dc12fca3e0dc9",
            "revertMessage": "",
            "sender": "0x000000633b68f5d8d3a86593ebb815b4663bcbe0",
            "simulationEnable": true,
            "sourceTxnHash": "0x6ab1376f424aafb5ce721aee5215f47da12664db721655122928d0bc67ee4904",
            "status": true,
            "timestamp": "2024-07-14T20:54:47Z",
            "transactionFee": "0.00073493913550096",
            "txnHash": "0x6ab1376f424aafb5ce721aee5215f47da12664db721655122928d0bc67ee4904",
            "txnIndex": 59,
            "type": 3,
            "value": "0"
        },
        "fund_flow": [],
        "token_infos": [
            {
                "address": "0xc02aaa39b223fe8d0a0e5c4f27ead9083c756cc2",
                "decimals": 18
            },
            {
                "address": "0xeeeeeeeeeeeeeeeeeeeeeeeeeeeeeeeeeeeeeeee",
                "decimals": 18
            }
        ]
    },
    "address_label": {
        "labels": [
            {
                "address": "0x6e997f1f22c40ba37f633b08f3b07e10ed43155a",
                "label": "TierRouter"
            },
            {
                "address": "0x0000000000000000000000000000000000000004",
                "label": "Precompiled"
            },
            {
                "address": "0x000000633b68f5d8d3a86593ebb815b4663bcbe0",
                "label": "Taikobeat Proposer"
            },
            {
                "address": "0x579f40d0be111b823962043702cabe6aaa290780",
                "label": "Taiko: Rollup Address Manager"
            },
            {
                "address": "0x68d30f47f19c07bccef4ac7fae2dc12fca3e0dc9",
                "label": "Taiko: LabProver"
            },
            {
                "address": "0x3a1a900680baadb889202faf12915f7e47b71ddd",
                "label": "TierProviderV2"
            },
            {
                "address": "0x29a88d60246c76e4f28806b9c8a42d2183154900",
                "label": "L1RollupAddressManager"
            },
            {
                "address": "0xcee590facd976b9bde87bc1b7620b284c5edd2c3",
                "label": "TaikoL1"
            },
            {
                "address": "0x06a9ab27c7e2255df1815e6cc0168d7755feb19a",
                "label": "Taiko: L1"
            },
            {
                "address": "0x518845daa8870be2c59e49620fc262ad48953c9a",
                "label": "ProverSet"
            },
            {
                "address": "0x0000000000000000000000000000000000000001",
                "label": "Precompiled"
            },
            {
                "address": "0xeeeeeeeeeeeeeeeeeeeeeeeeeeeeeeeeeeeeeeee",
                "label": "Ether"
            },
            {
                "address": "0x0000000000000000000000000000000000000002",
                "label": "Precompiled"
            },
            {
                "address": "0x0000000000000000000000000000000000000003",
                "label": "Precompiled"
            }
        ]
    },
    "trace": {
        "accountLabels": null,
        "dataMap": {
            "-1": {
                "invocation": {
                    "address": "0x000000633b68f5d8d3a86593ebb815b4663bcbe0",
                    "callData": "",
                    "decodedMethod": null,
                    "errorInfo": "",
                    "fromAddress": "",
                    "gasUsed": 0,
                    "id": -1,
                    "methodDecoded": false,
                    "operation": "",
                    "output": "",
                    "revert": false,
                    "revertMessage": "",
                    "selector": "",
                    "status": false,
                    "value": ""
                },
                "nodeType": 0
            },
            "0": {
                "invocation": {
                    "address": "0x68d30f47f19c07bccef4ac7fae2dc12fca3e0dc9",
                    "callData": "0x000000000000000000000000000000000000000000000000000000000000004000000000000000000000000000000000000000000000000000000000000001e0000000000000000000000000000000000000000000000000000000000000018000000000000000000000000000000000000000000000000000000000000000200000000000000000000000000000000000000000000000000000000000000000000000000000000000000000000000633b68f5d8d3a86593ebb815b4663bcbe0302e31382e302d64657600000000000000000000000000000000000000000000000000000000000000000000000000000000000000000000000000000000000000000000000000000000000000000000000000000000000000000000000000c000000000000000000000000000000000000000000000000000000000000000e000000000000000000000000000000000000000000000000000000000000000000000000000000000000000000000000000000000000000000000000000000041fb668b621edb8a5f08fa45cb76d00801a3b40922c62553e84ee9974c18be2c7552fadfd7484ee1bf37016a3cc3bcd212ae7405b877e4a121d8a3ca9dc2effd331c000000000000000000000000000000000000000000000000000000000000000000000000000000000000000000000000000000000000000000000000000000",
                    "decodedMethod": {
                        "callParams": [
                            {
                                "name": "_params",
                                "type": "bytes",
                                "value": "0x00000000000000000000000000000000000000000000000000000000000000200000000000000000000000000000000000000000000000000000000000000000000000000000000000000000000000633b68f5d8d3a86593ebb815b4663bcbe0302e31382e302d64657600000000000000000000000000000000000000000000000000000000000000000000000000000000000000000000000000000000000000000000000000000000000000000000000000000000000000000000000000c000000000000000000000000000000000000000000000000000000000000000e000000000000000000000000000000000000000000000000000000000000000000000000000000000000000000000000000000000000000000000000000000041fb668b621edb8a5f08fa45cb76d00801a3b40922c62553e84ee9974c18be2c7552fadfd7484ee1bf37016a3cc3bcd212ae7405b877e4a121d8a3ca9dc2effd331c00000000000000000000000000000000000000000000000000000000000000"
                            },
                            {
                                "name": "_txList",
                                "type": "bytes",
                                "value": "0x"
                            }
                        ],
                        "constructorArguments": "",
                        "name": "proposeBlock",
                        "returnParams": [],
                        "signature": "proposeBlock(bytes,bytes)"
                    },
                    "errorInfo": "",
                    "fromAddress": "0x000000633b68f5d8d3a86593ebb815b4663bcbe0",
                    "gasUsed": 167830,
                    "id": 0,
                    "methodDecoded": true,
                    "operation": "CALL",
                    "output": "",
                    "revert": false,
                    "revertMessage": "",
                    "selector": "0xef16e845",
                    "status": true,
                    "value": "0"
                },
                "nodeType": 0
            },
            "1": {
                "invocation": {
                    "address": "0x518845daa8870be2c59e49620fc262ad48953c9a",
                    "callData": "0x000000000000000000000000000000000000000000000000000000000000004000000000000000000000000000000000000000000000000000000000000001e0000000000000000000000000000000000000000000000000000000000000018000000000000000000000000000000000000000000000000000000000000000200000000000000000000000000000000000000000000000000000000000000000000000000000000000000000000000633b68f5d8d3a86593ebb815b4663bcbe0302e31382e302d64657600000000000000000000000000000000000000000000000000000000000000000000000000000000000000000000000000000000000000000000000000000000000000000000000000000000000000000000000000c000000000000000000000000000000000000000000000000000000000000000e000000000000000000000000000000000000000000000000000000000000000000000000000000000000000000000000000000000000000000000000000000041fb668b621edb8a5f08fa45cb76d00801a3b40922c62553e84ee9974c18be2c7552fadfd7484ee1bf37016a3cc3bcd212ae7405b877e4a121d8a3ca9dc2effd331c000000000000000000000000000000000000000000000000000000000000000000000000000000000000000000000000000000000000000000000000000000",
                    "decodedMethod": {
                        "callParams": [
                            {
                                "name": "_params",
                                "type": "bytes",
                                "value": "0x00000000000000000000000000000000000000000000000000000000000000200000000000000000000000000000000000000000000000000000000000000000000000000000000000000000000000633b68f5d8d3a86593ebb815b4663bcbe0302e31382e302d64657600000000000000000000000000000000000000000000000000000000000000000000000000000000000000000000000000000000000000000000000000000000000000000000000000000000000000000000000000c000000000000000000000000000000000000000000000000000000000000000e000000000000000000000000000000000000000000000000000000000000000000000000000000000000000000000000000000000000000000000000000000041fb668b621edb8a5f08fa45cb76d00801a3b40922c62553e84ee9974c18be2c7552fadfd7484ee1bf37016a3cc3bcd212ae7405b877e4a121d8a3ca9dc2effd331c00000000000000000000000000000000000000000000000000000000000000"
                            },
                            {
                                "name": "_txList",
                                "type": "bytes",
                                "value": "0x"
                            }
                        ],
                        "constructorArguments": "",
                        "name": "proposeBlock",
                        "returnParams": [],
                        "signature": "proposeBlock(bytes,bytes)"
                    },
                    "errorInfo": "",
                    "fromAddress": "0x68d30f47f19c07bccef4ac7fae2dc12fca3e0dc9",
                    "gasUsed": 138530,
                    "id": 1,
                    "methodDecoded": true,
                    "operation": "DELEGATECALL",
                    "output": "",
                    "revert": false,
                    "revertMessage": "",
                    "selector": "0xef16e845",
                    "status": true,
                    "value": "0"
                },
                "nodeType": 0
            },
            "10": {
                "invocation": {
                    "address": "0x6e997f1f22c40ba37f633b08f3b07e10ed43155a",
                    "callData": "0x00000000000000000000000000000000000000000000000000000000000295e5",
                    "decodedMethod": {
                        "callParams": [
                            {
                                "name": "",
                                "type": "uint256",
                                "value": "169,445"
                            }
                        ],
                        "constructorArguments": "",
                        "name": "getProvider",
                        "returnParams": [
                            {
                                "name": "",
                                "type": "address",
                                "value": "0x3a1a900680baadb889202faf12915f7e47b71ddd"
                            }
                        ],
                        "signature": "getProvider(uint256)"
                    },
                    "errorInfo": "",
                    "fromAddress": "0x06a9ab27c7e2255df1815e6cc0168d7755feb19a",
                    "gasUsed": 259,
                    "id": 10,
                    "methodDecoded": true,
                    "operation": "STATICCALL",
                    "output": "0x0000000000000000000000003a1a900680baadb889202faf12915f7e47b71ddd",
                    "revert": false,
                    "revertMessage": "",
                    "selector": "0x5c42d079",
                    "status": true,
                    "value": "0"
                },
                "nodeType": 0
            },
            "11": {
                "invocation": {
                    "address": "0x3a1a900680baadb889202faf12915f7e47b71ddd",
                    "callData": "0x95bc9cc0866c2aac1865db93b3d6a92934af7356c318603bd588e839b7b09ba1",
                    "decodedMethod": {
                        "callParams": [
                            {
                                "name": "",
                                "type": "uint256",
                                "value": "67,727,863,549,981,231,820,752,567,460,508,278,188,003,140,619,157,102,974,456,643,305,876,770,298,785"
                            }
                        ],
                        "constructorArguments": "",
                        "name": "getMinTier",
                        "returnParams": [
                            {
                                "name": "",
                                "type": "uint16",
                                "value": "200"
                            }
                        ],
                        "signature": "getMinTier(uint256)"
                    },
                    "errorInfo": "",
                    "fromAddress": "0x06a9ab27c7e2255df1815e6cc0168d7755feb19a",
                    "gasUsed": 281,
                    "id": 11,
                    "methodDecoded": true,
                    "operation": "STATICCALL",
                    "output": "0x00000000000000000000000000000000000000000000000000000000000000c8",
                    "revert": false,
                    "revertMessage": "",
                    "selector": "0x59ab4e23",
                    "status": true,
                    "value": "0"
                },
                "nodeType": 0
            },
            "12": {
                "event": {
                    "contract": "0x06a9ab27c7e2255df1815e6cc0168d7755feb19a",
                    "decodedLog": {
                        "name": "BondDebited",
                        "params": [
                            {
                                "name": "user",
                                "type": "address",
                                "value": "0x68d30f47f19c07bccef4ac7fae2dc12fca3e0dc9"
                            },
                            {
                                "name": "amount",
                                "type": "uint256",
                                "value": "125,000,000,000,000,000,000"
                            }
                        ],
                        "signature": "BondDebited(address,uint256)"
                    },
                    "id": 12,
                    "logData": "0x000000000000000000000000000000000000000000000006c6b935b8bbd40000",
                    "logDecoded": true,
                    "operation": "EVENT",
                    "revert": false,
                    "status": true,
                    "topics": [
                        "0x85f32beeaff2d0019a8d196f06790c9a652191759c46643311344fd38920423c",
                        "0x00000000000000000000000068d30f47f19c07bccef4ac7fae2dc12fca3e0dc9"
                    ]
                },
                "nodeType": 1
            },
            "13": {
                "event": {
                    "contract": "0x06a9ab27c7e2255df1815e6cc0168d7755feb19a",
                    "decodedLog": {
                        "name": "BlockProposed",
                        "params": [
                            {
                                "name": "blockId",
                                "type": "uint256",
                                "value": "169,445"
                            },
                            {
                                "name": "assignedProver",
                                "type": "address",
                                "value": "0x68d30f47f19c07bccef4ac7fae2dc12fca3e0dc9"
                            },
                            {
                                "name": "livenessBond",
                                "type": "uint96",
                                "value": "125,000,000,000,000,000,000"
                            },
                            {
                                "name": "meta",
                                "type": "(bytes32,bytes32,bytes32,bytes32,bytes32,address,uint64,uint32,uint64,uint64,uint16,bool,bytes32,address)",
                                "value": [
                                    {
                                        "name": "l1Hash",
                                        "type": "bytes32",
                                        "value": "0x439c9c85b420adcaf1643c11fe2fccd90d84c37461d82a22d84fa40a9a74baef"
                                    },
                                    {
                                        "name": "difficulty",
                                        "type": "bytes32",
                                        "value": "0x95bc9cc0866c2aac1865db93b3d6a92934af7356c318603bd588e839b7b09ba1"
                                    },
                                    {
                                        "name": "blobHash",
                                        "type": "bytes32",
                                        "value": "0x010efe10b0cdaff1adf40fe47a9e2daaf7c8455714fab8899d7536dcc7a8eb44"
                                    },
                                    {
                                        "name": "extraData",
                                        "type": "bytes32",
                                        "value": "0x302e31382e302d64657600000000000000000000000000000000000000000000"
                                    },
                                    {
                                        "name": "depositsHash",
                                        "type": "bytes32",
                                        "value": "0x569e75fc77c1a856f6daaf9e69d8a9566ca34aa47f9133711ce065a571af0cfd"
                                    },
                                    {
                                        "name": "coinbase",
                                        "type": "address",
                                        "value": "0x000000633b68f5d8d3a86593ebb815b4663bcbe0"
                                    },
                                    {
                                        "name": "id",
                                        "type": "uint64",
                                        "value": "169,445"
                                    },
                                    {
                                        "name": "gasLimit",
                                        "type": "uint32",
                                        "value": "240,000,000"
                                    },
                                    {
                                        "name": "timestamp",
                                        "type": "uint64",
                                        "value": "1,720,990,487"
                                    },
                                    {
                                        "name": "l1Height",
                                        "type": "uint64",
                                        "value": "20,307,261"
                                    },
                                    {
                                        "name": "minTier",
                                        "type": "uint16",
                                        "value": "200"
                                    },
                                    {
                                        "name": "blobUsed",
                                        "type": "bool",
                                        "value": true
                                    },
                                    {
                                        "name": "parentMetaHash",
                                        "type": "bytes32",
                                        "value": "0x6664054b85464735341b2538ab15d69f530927883032905152fd31829d48c92a"
                                    },
                                    {
                                        "name": "sender",
                                        "type": "address",
                                        "value": "0x68d30f47f19c07bccef4ac7fae2dc12fca3e0dc9"
                                    }
                                ]
                            },
                            {
                                "name": "depositsProcessed",
                                "type": "(address,uint96,uint64)[]",
                                "value": []
                            }
                        ],
                        "signature": "BlockProposed(uint256,address,uint96,(bytes32,bytes32,bytes32,bytes32,bytes32,address,uint64,uint32,uint64,uint64,uint16,bool,bytes32,address),(address,uint96,uint64)[])"
                    },
                    "id": 13,
                    "logData": "0x000000000000000000000000000000000000000000000006c6b935b8bbd40000439c9c85b420adcaf1643c11fe2fccd90d84c37461d82a22d84fa40a9a74baef95bc9cc0866c2aac1865db93b3d6a92934af7356c318603bd588e839b7b09ba1010efe10b0cdaff1adf40fe47a9e2daaf7c8455714fab8899d7536dcc7a8eb44302e31382e302d64657600000000000000000000000000000000000000000000569e75fc77c1a856f6daaf9e69d8a9566ca34aa47f9133711ce065a571af0cfd000000000000000000000000000000633b68f5d8d3a86593ebb815b4663bcbe000000000000000000000000000000000000000000000000000000000000295e5000000000000000000000000000000000000000000000000000000000e4e1c000000000000000000000000000000000000000000000000000000000066943b17000000000000000000000000000000000000000000000000000000000135dd3d00000000000000000000000000000000000000000000000000000000000000c800000000000000000000000000000000000000000000000000000000000000016664054b85464735341b2538ab15d69f530927883032905152fd31829d48c92a00000000000000000000000068d30f47f19c07bccef4ac7fae2dc12fca3e0dc900000000000000000000000000000000000000000000000000000000000002000000000000000000000000000000000000000000000000000000000000000000",
                    "logDecoded": true,
                    "operation": "EVENT",
                    "revert": false,
                    "status": true,
                    "topics": [
                        "0xcda4e564245eb15494bc6da29f6a42e1941cf57f5314bf35bab8a1fca0a9c60a",
                        "0x00000000000000000000000000000000000000000000000000000000000295e5",
                        "0x00000000000000000000000068d30f47f19c07bccef4ac7fae2dc12fca3e0dc9"
                    ]
                },
                "nodeType": 1
            },
            "14": {
                "event": {
                    "contract": "0x06a9ab27c7e2255df1815e6cc0168d7755feb19a",
                    "decodedLog": {
                        "name": "StateVariablesUpdated",
                        "params": [
                            {
                                "name": "slotB",
                                "type": "(uint64,uint64,bool,uint8,uint16,uint32,uint64)",
                                "value": [
                                    {
                                        "name": "numBlocks",
                                        "type": "uint64",
                                        "value": "169,446"
                                    },
                                    {
                                        "name": "lastVerifiedBlockId",
                                        "type": "uint64",
                                        "value": "165,512"
                                    },
                                    {
                                        "name": "provingPaused",
                                        "type": "bool",
                                        "value": false
                                    },
                                    {
                                        "name": "__reservedB1",
                                        "type": "uint8",
                                        "value": "0"
                                    },
                                    {
                                        "name": "__reservedB2",
                                        "type": "uint16",
                                        "value": "0"
                                    },
                                    {
                                        "name": "__reservedB3",
                                        "type": "uint32",
                                        "value": "0"
                                    },
                                    {
                                        "name": "lastUnpausedAt",
                                        "type": "uint64",
                                        "value": "1,716,571,955"
                                    }
                                ]
                            }
                        ],
                        "signature": "StateVariablesUpdated((uint64,uint64,bool,uint8,uint16,uint32,uint64))"
                    },
                    "id": 14,
                    "logData": "0x00000000000000000000000000000000000000000000000000000000000295e600000000000000000000000000000000000000000000000000000000000286880000000000000000000000000000000000000000000000000000000000000000000000000000000000000000000000000000000000000000000000000000000000000000000000000000000000000000000000000000000000000000000000000000000000000000000000000000000000000000000000000000000000000000000000000000000000000000000000000000000000000000000000006650cf33",
                    "logDecoded": true,
                    "operation": "EVENT",
                    "revert": false,
                    "status": true,
                    "topics": [
                        "0xdf66aee38ea9fe523cfd238705d455a354305a646748dbb931898b51cee4727b"
                    ]
                },
                "nodeType": 1
            },
            "2": {
                "invocation": {
                    "address": "0x579f40d0be111b823962043702cabe6aaa290780",
                    "callData": "0x00000000000000000000000000000000000000000000000000000000000000017461696b6f000000000000000000000000000000000000000000000000000000",
                    "decodedMethod": {
                        "callParams": [
                            {
                                "name": "_chainId",
                                "type": "uint64",
                                "value": "1"
                            },
                            {
                                "name": "_name",
                                "type": "bytes32",
                                "value": "0x7461696b6f000000000000000000000000000000000000000000000000000000"
                            }
                        ],
                        "constructorArguments": "",
                        "name": "getAddress",
                        "returnParams": [
                            {
                                "name": "",
                                "type": "address",
                                "value": "0x06a9ab27c7e2255df1815e6cc0168d7755feb19a"
                            }
                        ],
                        "signature": "getAddress(uint64,bytes32)"
                    },
                    "errorInfo": "",
                    "fromAddress": "0x68d30f47f19c07bccef4ac7fae2dc12fca3e0dc9",
                    "gasUsed": 5615,
                    "id": 2,
                    "methodDecoded": true,
                    "operation": "STATICCALL",
                    "output": "0x00000000000000000000000006a9ab27c7e2255df1815e6cc0168d7755feb19a",
                    "revert": false,
                    "revertMessage": "",
                    "selector": "0x28f713cc",
                    "status": true,
                    "value": "0"
                },
                "nodeType": 0
            },
            "3": {
                "invocation": {
                    "address": "0x29a88d60246c76e4f28806b9c8a42d2183154900",
                    "callData": "0x00000000000000000000000000000000000000000000000000000000000000017461696b6f000000000000000000000000000000000000000000000000000000",
                    "decodedMethod": {
                        "callParams": [
                            {
                                "name": "_chainId",
                                "type": "uint64",
                                "value": "1"
                            },
                            {
                                "name": "_name",
                                "type": "bytes32",
                                "value": "0x7461696b6f000000000000000000000000000000000000000000000000000000"
                            }
                        ],
                        "constructorArguments": "",
                        "name": "getAddress",
                        "returnParams": [
                            {
                                "name": "",
                                "type": "address",
                                "value": "0x06a9ab27c7e2255df1815e6cc0168d7755feb19a"
                            }
                        ],
                        "signature": "getAddress(uint64,bytes32)"
                    },
                    "errorInfo": "",
                    "fromAddress": "0x579f40d0be111b823962043702cabe6aaa290780",
                    "gasUsed": 720,
                    "id": 3,
                    "methodDecoded": true,
                    "operation": "DELEGATECALL",
                    "output": "0x00000000000000000000000006a9ab27c7e2255df1815e6cc0168d7755feb19a",
                    "revert": false,
                    "revertMessage": "",
                    "selector": "0x28f713cc",
                    "status": true,
                    "value": "0"
                },
                "nodeType": 0
            },
            "4": {
                "invocation": {
                    "address": "0x06a9ab27c7e2255df1815e6cc0168d7755feb19a",
                    "callData": "0x000000000000000000000000000000000000000000000000000000000000004000000000000000000000000000000000000000000000000000000000000001e0000000000000000000000000000000000000000000000000000000000000018000000000000000000000000000000000000000000000000000000000000000200000000000000000000000000000000000000000000000000000000000000000000000000000000000000000000000633b68f5d8d3a86593ebb815b4663bcbe0302e31382e302d64657600000000000000000000000000000000000000000000000000000000000000000000000000000000000000000000000000000000000000000000000000000000000000000000000000000000000000000000000000c000000000000000000000000000000000000000000000000000000000000000e000000000000000000000000000000000000000000000000000000000000000000000000000000000000000000000000000000000000000000000000000000041fb668b621edb8a5f08fa45cb76d00801a3b40922c62553e84ee9974c18be2c7552fadfd7484ee1bf37016a3cc3bcd212ae7405b877e4a121d8a3ca9dc2effd331c000000000000000000000000000000000000000000000000000000000000000000000000000000000000000000000000000000000000000000000000000000",
                    "decodedMethod": {
                        "callParams": [
                            {
                                "name": "_params",
                                "type": "bytes",
                                "value": "0x00000000000000000000000000000000000000000000000000000000000000200000000000000000000000000000000000000000000000000000000000000000000000000000000000000000000000633b68f5d8d3a86593ebb815b4663bcbe0302e31382e302d64657600000000000000000000000000000000000000000000000000000000000000000000000000000000000000000000000000000000000000000000000000000000000000000000000000000000000000000000000000c000000000000000000000000000000000000000000000000000000000000000e000000000000000000000000000000000000000000000000000000000000000000000000000000000000000000000000000000000000000000000000000000041fb668b621edb8a5f08fa45cb76d00801a3b40922c62553e84ee9974c18be2c7552fadfd7484ee1bf37016a3cc3bcd212ae7405b877e4a121d8a3ca9dc2effd331c00000000000000000000000000000000000000000000000000000000000000"
                            },
                            {
                                "name": "_txList",
                                "type": "bytes",
                                "value": "0x"
                            }
                        ],
                        "constructorArguments": "",
                        "name": "proposeBlock",
                        "returnParams": [],
                        "signature": "proposeBlock(bytes,bytes)"
                    },
                    "errorInfo": "",
                    "fromAddress": "0x68d30f47f19c07bccef4ac7fae2dc12fca3e0dc9",
                    "gasUsed": 118794,
                    "id": 4,
                    "methodDecoded": true,
                    "operation": "CALL",
                    "output": "0x439c9c85b420adcaf1643c11fe2fccd90d84c37461d82a22d84fa40a9a74baef95bc9cc0866c2aac1865db93b3d6a92934af7356c318603bd588e839b7b09ba1010efe10b0cdaff1adf40fe47a9e2daaf7c8455714fab8899d7536dcc7a8eb44302e31382e302d64657600000000000000000000000000000000000000000000569e75fc77c1a856f6daaf9e69d8a9566ca34aa47f9133711ce065a571af0cfd000000000000000000000000000000633b68f5d8d3a86593ebb815b4663bcbe000000000000000000000000000000000000000000000000000000000000295e5000000000000000000000000000000000000000000000000000000000e4e1c000000000000000000000000000000000000000000000000000000000066943b17000000000000000000000000000000000000000000000000000000000135dd3d00000000000000000000000000000000000000000000000000000000000000c800000000000000000000000000000000000000000000000000000000000000016664054b85464735341b2538ab15d69f530927883032905152fd31829d48c92a00000000000000000000000068d30f47f19c07bccef4ac7fae2dc12fca3e0dc900000000000000000000000000000000000000000000000000000000000001e00000000000000000000000000000000000000000000000000000000000000000",
                    "revert": false,
                    "revertMessage": "",
                    "selector": "0xef16e845",
                    "status": true,
                    "value": "0"
                },
                "nodeType": 0
            },
            "5": {
                "invocation": {
                    "address": "0xcee590facd976b9bde87bc1b7620b284c5edd2c3",
                    "callData": "0x000000000000000000000000000000000000000000000000000000000000004000000000000000000000000000000000000000000000000000000000000001e0000000000000000000000000000000000000000000000000000000000000018000000000000000000000000000000000000000000000000000000000000000200000000000000000000000000000000000000000000000000000000000000000000000000000000000000000000000633b68f5d8d3a86593ebb815b4663bcbe0302e31382e302d64657600000000000000000000000000000000000000000000000000000000000000000000000000000000000000000000000000000000000000000000000000000000000000000000000000000000000000000000000000c000000000000000000000000000000000000000000000000000000000000000e000000000000000000000000000000000000000000000000000000000000000000000000000000000000000000000000000000000000000000000000000000041fb668b621edb8a5f08fa45cb76d00801a3b40922c62553e84ee9974c18be2c7552fadfd7484ee1bf37016a3cc3bcd212ae7405b877e4a121d8a3ca9dc2effd331c000000000000000000000000000000000000000000000000000000000000000000000000000000000000000000000000000000000000000000000000000000",
                    "decodedMethod": {
                        "callParams": [
                            {
                                "name": "_params",
                                "type": "bytes",
                                "value": "0x00000000000000000000000000000000000000000000000000000000000000200000000000000000000000000000000000000000000000000000000000000000000000000000000000000000000000633b68f5d8d3a86593ebb815b4663bcbe0302e31382e302d64657600000000000000000000000000000000000000000000000000000000000000000000000000000000000000000000000000000000000000000000000000000000000000000000000000000000000000000000000000c000000000000000000000000000000000000000000000000000000000000000e000000000000000000000000000000000000000000000000000000000000000000000000000000000000000000000000000000000000000000000000000000041fb668b621edb8a5f08fa45cb76d00801a3b40922c62553e84ee9974c18be2c7552fadfd7484ee1bf37016a3cc3bcd212ae7405b877e4a121d8a3ca9dc2effd331c00000000000000000000000000000000000000000000000000000000000000"
                            },
                            {
                                "name": "_txList",
                                "type": "bytes",
                                "value": "0x"
                            }
                        ],
                        "constructorArguments": "",
                        "name": "proposeBlock",
                        "returnParams": [
                            {
                                "name": "meta_",
                                "type": "(bytes32,bytes32,bytes32,bytes32,bytes32,address,uint64,uint32,uint64,uint64,uint16,bool,bytes32,address)",
                                "value": [
                                    {
                                        "name": "l1Hash",
                                        "type": "bytes32",
                                        "value": "0x439c9c85b420adcaf1643c11fe2fccd90d84c37461d82a22d84fa40a9a74baef"
                                    },
                                    {
                                        "name": "difficulty",
                                        "type": "bytes32",
                                        "value": "0x95bc9cc0866c2aac1865db93b3d6a92934af7356c318603bd588e839b7b09ba1"
                                    },
                                    {
                                        "name": "blobHash",
                                        "type": "bytes32",
                                        "value": "0x010efe10b0cdaff1adf40fe47a9e2daaf7c8455714fab8899d7536dcc7a8eb44"
                                    },
                                    {
                                        "name": "extraData",
                                        "type": "bytes32",
                                        "value": "0x302e31382e302d64657600000000000000000000000000000000000000000000"
                                    },
                                    {
                                        "name": "depositsHash",
                                        "type": "bytes32",
                                        "value": "0x569e75fc77c1a856f6daaf9e69d8a9566ca34aa47f9133711ce065a571af0cfd"
                                    },
                                    {
                                        "name": "coinbase",
                                        "type": "address",
                                        "value": "0x000000633b68f5d8d3a86593ebb815b4663bcbe0"
                                    },
                                    {
                                        "name": "id",
                                        "type": "uint64",
                                        "value": "169,445"
                                    },
                                    {
                                        "name": "gasLimit",
                                        "type": "uint32",
                                        "value": "240,000,000"
                                    },
                                    {
                                        "name": "timestamp",
                                        "type": "uint64",
                                        "value": "1,720,990,487"
                                    },
                                    {
                                        "name": "l1Height",
                                        "type": "uint64",
                                        "value": "20,307,261"
                                    },
                                    {
                                        "name": "minTier",
                                        "type": "uint16",
                                        "value": "200"
                                    },
                                    {
                                        "name": "blobUsed",
                                        "type": "bool",
                                        "value": true
                                    },
                                    {
                                        "name": "parentMetaHash",
                                        "type": "bytes32",
                                        "value": "0x6664054b85464735341b2538ab15d69f530927883032905152fd31829d48c92a"
                                    },
                                    {
                                        "name": "sender",
                                        "type": "address",
                                        "value": "0x68d30f47f19c07bccef4ac7fae2dc12fca3e0dc9"
                                    }
                                ]
                            },
                            {
                                "name": "deposits_",
                                "type": "(address,uint96,uint64)[]",
                                "value": []
                            }
                        ],
                        "signature": "proposeBlock(bytes,bytes)"
                    },
                    "errorInfo": "",
                    "fromAddress": "0x06a9ab27c7e2255df1815e6cc0168d7755feb19a",
                    "gasUsed": 113770,
                    "id": 5,
                    "methodDecoded": true,
                    "operation": "DELEGATECALL",
                    "output": "0x439c9c85b420adcaf1643c11fe2fccd90d84c37461d82a22d84fa40a9a74baef95bc9cc0866c2aac1865db93b3d6a92934af7356c318603bd588e839b7b09ba1010efe10b0cdaff1adf40fe47a9e2daaf7c8455714fab8899d7536dcc7a8eb44302e31382e302d64657600000000000000000000000000000000000000000000569e75fc77c1a856f6daaf9e69d8a9566ca34aa47f9133711ce065a571af0cfd000000000000000000000000000000633b68f5d8d3a86593ebb815b4663bcbe000000000000000000000000000000000000000000000000000000000000295e5000000000000000000000000000000000000000000000000000000000e4e1c000000000000000000000000000000000000000000000000000000000066943b17000000000000000000000000000000000000000000000000000000000135dd3d00000000000000000000000000000000000000000000000000000000000000c800000000000000000000000000000000000000000000000000000000000000016664054b85464735341b2538ab15d69f530927883032905152fd31829d48c92a00000000000000000000000068d30f47f19c07bccef4ac7fae2dc12fca3e0dc900000000000000000000000000000000000000000000000000000000000001e00000000000000000000000000000000000000000000000000000000000000000",
                    "revert": false,
                    "revertMessage": "",
                    "selector": "0xef16e845",
                    "status": true,
                    "value": "0"
                },
                "nodeType": 0
            },
            "6": {
                "invocation": {
                    "address": "0x06a9ab27c7e2255df1815e6cc0168d7755feb19a",
                    "callData": "0x746965725f726f757465720000000000000000000000000000000000000000000000000000000000000000000000000000000000000000000000000000000000",
                    "decodedMethod": {
                        "callParams": [
                            {
                                "name": "_name",
                                "type": "bytes32",
                                "value": "0x746965725f726f75746572000000000000000000000000000000000000000000"
                            },
                            {
                                "name": "_allowZeroAddress",
                                "type": "bool",
                                "value": false
                            }
                        ],
                        "constructorArguments": "",
                        "name": "resolve",
                        "returnParams": [
                            {
                                "name": "",
                                "type": "address",
                                "value": "0x6e997f1f22c40ba37f633b08f3b07e10ed43155a"
                            }
                        ],
                        "signature": "resolve(bytes32,bool)"
                    },
                    "errorInfo": "",
                    "fromAddress": "0x06a9ab27c7e2255df1815e6cc0168d7755feb19a",
                    "gasUsed": 4881,
                    "id": 6,
                    "methodDecoded": true,
                    "operation": "STATICCALL",
                    "output": "0x0000000000000000000000006e997f1f22c40ba37f633b08f3b07e10ed43155a",
                    "revert": false,
                    "revertMessage": "",
                    "selector": "0xa86f9d9e",
                    "status": true,
                    "value": "0"
                },
                "nodeType": 0
            },
            "7": {
                "invocation": {
                    "address": "0xcee590facd976b9bde87bc1b7620b284c5edd2c3",
                    "callData": "0x746965725f726f757465720000000000000000000000000000000000000000000000000000000000000000000000000000000000000000000000000000000000",
                    "decodedMethod": {
                        "callParams": [
                            {
                                "name": "_name",
                                "type": "bytes32",
                                "value": "0x746965725f726f75746572000000000000000000000000000000000000000000"
                            },
                            {
                                "name": "_allowZeroAddress",
                                "type": "bool",
                                "value": false
                            }
                        ],
                        "constructorArguments": "",
                        "name": "resolve",
                        "returnParams": [
                            {
                                "name": "",
                                "type": "address",
                                "value": "0x6e997f1f22c40ba37f633b08f3b07e10ed43155a"
                            }
                        ],
                        "signature": "resolve(bytes32,bool)"
                    },
                    "errorInfo": "",
                    "fromAddress": "0x06a9ab27c7e2255df1815e6cc0168d7755feb19a",
                    "gasUsed": 4486,
                    "id": 7,
                    "methodDecoded": true,
                    "operation": "DELEGATECALL",
                    "output": "0x0000000000000000000000006e997f1f22c40ba37f633b08f3b07e10ed43155a",
                    "revert": false,
                    "revertMessage": "",
                    "selector": "0xa86f9d9e",
                    "status": true,
                    "value": "0"
                },
                "nodeType": 0
            },
            "8": {
                "invocation": {
                    "address": "0x579f40d0be111b823962043702cabe6aaa290780",
                    "callData": "0x0000000000000000000000000000000000000000000000000000000000000001746965725f726f75746572000000000000000000000000000000000000000000",
                    "decodedMethod": {
                        "callParams": [
                            {
                                "name": "_chainId",
                                "type": "uint64",
                                "value": "1"
                            },
                            {
                                "name": "_name",
                                "type": "bytes32",
                                "value": "0x746965725f726f75746572000000000000000000000000000000000000000000"
                            }
                        ],
                        "constructorArguments": "",
                        "name": "getAddress",
                        "returnParams": [
                            {
                                "name": "",
                                "type": "address",
                                "value": "0x6e997f1f22c40ba37f633b08f3b07e10ed43155a"
                            }
                        ],
                        "signature": "getAddress(uint64,bytes32)"
                    },
                    "errorInfo": "",
                    "fromAddress": "0x06a9ab27c7e2255df1815e6cc0168d7755feb19a",
                    "gasUsed": 1254,
                    "id": 8,
                    "methodDecoded": true,
                    "operation": "STATICCALL",
                    "output": "0x0000000000000000000000006e997f1f22c40ba37f633b08f3b07e10ed43155a",
                    "revert": false,
                    "revertMessage": "",
                    "selector": "0x28f713cc",
                    "status": true,
                    "value": "0"
                },
                "nodeType": 0
            },
            "9": {
                "invocation": {
                    "address": "0x29a88d60246c76e4f28806b9c8a42d2183154900",
                    "callData": "0x0000000000000000000000000000000000000000000000000000000000000001746965725f726f75746572000000000000000000000000000000000000000000",
                    "decodedMethod": {
                        "callParams": [
                            {
                                "name": "_chainId",
                                "type": "uint64",
                                "value": "1"
                            },
                            {
                                "name": "_name",
                                "type": "bytes32",
                                "value": "0x746965725f726f75746572000000000000000000000000000000000000000000"
                            }
                        ],
                        "constructorArguments": "",
                        "name": "getAddress",
                        "returnParams": [
                            {
                                "name": "",
                                "type": "address",
                                "value": "0x6e997f1f22c40ba37f633b08f3b07e10ed43155a"
                            }
                        ],
                        "signature": "getAddress(uint64,bytes32)"
                    },
                    "errorInfo": "",
                    "fromAddress": "0x579f40d0be111b823962043702cabe6aaa290780",
                    "gasUsed": 859,
                    "id": 9,
                    "methodDecoded": true,
                    "operation": "DELEGATECALL",
                    "output": "0x0000000000000000000000006e997f1f22c40ba37f633b08f3b07e10ed43155a",
                    "revert": false,
                    "revertMessage": "",
                    "selector": "0x28f713cc",
                    "status": true,
                    "value": "0"
                },
                "nodeType": 0
            }
        },
        "gasFlame": [
            {
                "children": [
                    {
                        "children": [
                            {
                                "children": [],
                                "depth": 0,
                                "name": "Initial Gas",
                                "value": 24324
                            },
                            {
                                "children": [
                                    {
                                        "children": [
                                            {
                                                "children": [
                                                    {
                                                        "children": [],
                                                        "depth": 3,
                                                        "name": "getAddress",
                                                        "value": 720
                                                    }
                                                ],
                                                "depth": 2,
                                                "name": "getAddress",
                                                "value": 5615
                                            },
                                            {
                                                "children": [
                                                    {
                                                        "children": [
                                                            {
                                                                "children": [
                                                                    {
                                                                        "children": [
                                                                            {
                                                                                "children": [
                                                                                    {
                                                                                        "children": [],
                                                                                        "depth": 7,
                                                                                        "name": "getAddress",
                                                                                        "value": 859
                                                                                    }
                                                                                ],
                                                                                "depth": 6,
                                                                                "name": "getAddress",
                                                                                "value": 1254
                                                                            }
                                                                        ],
                                                                        "depth": 5,
                                                                        "name": "resolve",
                                                                        "value": 4486
                                                                    }
                                                                ],
                                                                "depth": 4,
                                                                "name": "resolve",
                                                                "value": 4881
                                                            },
                                                            {
                                                                "children": [],
                                                                "depth": 4,
                                                                "name": "getProvider",
                                                                "value": 259
                                                            },
                                                            {
                                                                "children": [],
                                                                "depth": 4,
                                                                "name": "getMinTier",
                                                                "value": 281
                                                            }
                                                        ],
                                                        "depth": 3,
                                                        "name": "proposeBlock",
                                                        "value": 113770
                                                    }
                                                ],
                                                "depth": 2,
                                                "name": "proposeBlock",
                                                "value": 118794
                                            }
                                        ],
                                        "depth": 1,
                                        "name": "proposeBlock",
                                        "value": 138530
                                    }
                                ],
                                "depth": 0,
                                "name": "Executed Gas",
                                "value": 143506
                            }
                        ],
                        "depth": -1,
                        "name": "Actual Gas Used",
                        "value": 167830
                    },
                    {
                        "children": [],
                        "depth": -1,
                        "name": "Refunded Gas",
                        "value": 0
                    }
                ],
                "depth": -2,
                "name": "Total Gas",
                "value": 167830
            }
        ],
        "isConfirmed": true,
        "mainTrace": [
            {
                "children": [
                    {
                        "children": [
                            {
                                "children": [
                                    {
                                        "children": [
                                            {
                                                "children": [],
                                                "depth": 3,
                                                "id": 3,
                                                "order": 3
                                            }
                                        ],
                                        "depth": 2,
                                        "id": 2,
                                        "order": 2
                                    },
                                    {
                                        "children": [
                                            {
                                                "children": [
                                                    {
                                                        "children": [
                                                            {
                                                                "children": [
                                                                    {
                                                                        "children": [
                                                                            {
                                                                                "children": [],
                                                                                "depth": 7,
                                                                                "id": 9,
                                                                                "order": 9
                                                                            }
                                                                        ],
                                                                        "depth": 6,
                                                                        "id": 8,
                                                                        "order": 8
                                                                    }
                                                                ],
                                                                "depth": 5,
                                                                "id": 7,
                                                                "order": 7
                                                            }
                                                        ],
                                                        "depth": 4,
                                                        "id": 6,
                                                        "order": 6
                                                    },
                                                    {
                                                        "children": [],
                                                        "depth": 4,
                                                        "id": 10,
                                                        "order": 10
                                                    },
                                                    {
                                                        "children": [],
                                                        "depth": 4,
                                                        "id": 11,
                                                        "order": 11
                                                    },
                                                    {
                                                        "children": [],
                                                        "depth": 4,
                                                        "id": 12,
                                                        "order": 12
                                                    },
                                                    {
                                                        "children": [],
                                                        "depth": 4,
                                                        "id": 13,
                                                        "order": 13
                                                    },
                                                    {
                                                        "children": [],
                                                        "depth": 4,
                                                        "id": 14,
                                                        "order": 14
                                                    }
                                                ],
                                                "depth": 3,
                                                "id": 5,
                                                "order": 5
                                            }
                                        ],
                                        "depth": 2,
                                        "id": 4,
                                        "order": 4
                                    }
                                ],
                                "depth": 1,
                                "id": 1,
                                "order": 1
                            }
                        ],
                        "depth": 0,
                        "id": 0,
                        "order": 0
                    }
                ],
                "depth": -1,
                "id": -1,
                "order": -1
            }
        ],
        "mainTraceNodeCount": 15,
        "parentIdMap": {
            "0": -1,
            "1": 0,
            "10": 5,
            "11": 5,
            "12": 5,
            "13": 5,
            "14": 5,
            "2": 1,
            "3": 2,
            "4": 1,
            "5": 4,
            "6": 5,
            "7": 6,
            "8": 7,
            "9": 8
        },
        "tidyTrace": [
            {
                "children": [
                    {
                        "children": [
                            {
                                "children": [
                                    {
                                        "children": [
                                            {
                                                "children": [
                                                    {
                                                        "children": [],
                                                        "depth": 4,
                                                        "id": 12,
                                                        "order": 12
                                                    },
                                                    {
                                                        "children": [],
                                                        "depth": 4,
                                                        "id": 13,
                                                        "order": 13
                                                    },
                                                    {
                                                        "children": [],
                                                        "depth": 4,
                                                        "id": 14,
                                                        "order": 14
                                                    }
                                                ],
                                                "depth": 3,
                                                "id": 5,
                                                "order": 5
                                            }
                                        ],
                                        "depth": 2,
                                        "id": 4,
                                        "order": 4
                                    }
                                ],
                                "depth": 1,
                                "id": 1,
                                "order": 1
                            }
                        ],
                        "depth": 0,
                        "id": 0,
                        "order": 0
                    }
                ],
                "depth": -1,
                "id": -1,
                "order": -1
            }
        ],
        "tidyTraceNodeCount": 7
    },
    "state_change": {
        "stateChanges": [
            {
                "address": "0x06a9ab27c7e2255df1815e6cc0168d7755feb19a",
                "erc": "",
                "slots": [
                    {
                        "current": "0x000000006650cf330000000000000000000000000002868800000000000295e6",
                        "key": "0x0000000000000000000000000000000000000000000000000000000000000100",
                        "prev": "0x000000006650cf330000000000000000000000000002868800000000000295e5"
                    },
                    {
                        "current": "0x00000000000000000000000000000000000000000004f6b54f300fe62cf80000",
                        "key": "0xd3261c54692ebd9a15c613e88b3175f34e3d6dc8a6f220561ca7b4fb97aa8787",
                        "prev": "0x00000000000000000000000000000000000000000004f6bc15e9459ee8cc0000"
                    },
                    {
                        "current": "0xbf9febf2ddbcc647070439b95a49cf7f8c67e531424f805cbe28ea8676ca7b12",
                        "key": "0x691ba2c52fe003eac00737e5828cac1a59c773c2cbe631be6e1642cc603f8b9a",
                        "prev": "0x0000000000000000000000000000000000000000000000000000000000000000"
                    },
                    {
                        "current": "0x00000006c6b935b8bbd400000000000000000000000000000000000000000000",
                        "key": "0x691ba2c52fe003eac00737e5828cac1a59c773c2cbe631be6e1642cc603f8b9b",
                        "prev": "0x0000000000000000000000000000000000000000000000000000000000000000"
                    },
                    {
                        "current": "0x0000000000000001000000000135dd3e0000000066943b1700000000000295e5",
                        "key": "0x691ba2c52fe003eac00737e5828cac1a59c773c2cbe631be6e1642cc603f8b9c",
                        "prev": "0x0000000000000000000000000000000000000000000000000000000000000000"
                    }
                ],
                "storageVariables": [
                    {
                        "name": "state",
                        "type": "struct TaikoData.State",
                        "value": {
                            "fields": [
                                {
                                    "name": "blocks",
                                    "type": "mapping(uint64 => struct TaikoData.Block)",
                                    "value": {
                                        "pairs": [
                                            {
                                                "key": "169445",
                                                "value": {
                                                    "fields": [
                                                        {
                                                            "name": "metaHash",
                                                            "type": "bytes32",
                                                            "value": {
                                                                "current": "0xbf9febf2ddbcc647070439b95a49cf7f8c67e531424f805cbe28ea8676ca7b12",
                                                                "prev": "0x0000000000000000000000000000000000000000000000000000000000000000",
                                                                "typeTag": 1
                                                            }
                                                        },
                                                        {
                                                            "name": "assignedProver",
                                                            "type": "address",
                                                            "value": {
                                                                "current": "0x0000000000000000000000000000000000000000",
                                                                "prev": "0x0000000000000000000000000000000000000000",
                                                                "typeTag": 1
                                                            }
                                                        },
                                                        {
                                                            "name": "livenessBond",
                                                            "type": "uint96",
                                                            "value": {
                                                                "current": "125000000000000000000",
                                                                "prev": "0",
                                                                "typeTag": 1
                                                            }
                                                        },
                                                        {
                                                            "name": "blockId",
                                                            "type": "uint64",
                                                            "value": {
                                                                "current": "169445",
                                                                "prev": "0",
                                                                "typeTag": 1
                                                            }
                                                        },
                                                        {
                                                            "name": "proposedAt",
                                                            "type": "uint64",
                                                            "value": {
                                                                "current": "1720990487",
                                                                "prev": "0",
                                                                "typeTag": 1
                                                            }
                                                        },
                                                        {
                                                            "name": "proposedIn",
                                                            "type": "uint64",
                                                            "value": {
                                                                "current": "20307262",
                                                                "prev": "0",
                                                                "typeTag": 1
                                                            }
                                                        },
                                                        {
                                                            "name": "nextTransitionId",
                                                            "type": "uint32",
                                                            "value": {
                                                                "current": "1",
                                                                "prev": "0",
                                                                "typeTag": 1
                                                            }
                                                        },
                                                        {
                                                            "name": "verifiedTransitionId",
                                                            "type": "uint32",
                                                            "value": {
                                                                "current": "0",
                                                                "prev": "0",
                                                                "typeTag": 1
                                                            }
                                                        }
                                                    ],
                                                    "typeTag": 3
                                                }
                                            }
                                        ],
                                        "typeTag": 4
                                    }
                                },
                                {
                                    "name": "slotB",
                                    "type": "struct TaikoData.SlotB",
                                    "value": {
                                        "fields": [
                                            {
                                                "name": "numBlocks",
                                                "type": "uint64",
                                                "value": {
                                                    "current": "169446",
                                                    "prev": "169445",
                                                    "typeTag": 1
                                                }
                                            },
                                            {
                                                "name": "lastVerifiedBlockId",
                                                "type": "uint64",
                                                "value": {
                                                    "current": "165512",
                                                    "prev": "165512",
                                                    "typeTag": 1
                                                }
                                            },
                                            {
                                                "name": "provingPaused",
                                                "type": "bool",
                                                "value": {
                                                    "current": "false",
                                                    "prev": "false",
                                                    "typeTag": 1
                                                }
                                            },
                                            {
                                                "name": "__reservedB1",
                                                "type": "uint8",
                                                "value": {
                                                    "current": "0",
                                                    "prev": "0",
                                                    "typeTag": 1
                                                }
                                            },
                                            {
                                                "name": "__reservedB2",
                                                "type": "uint16",
                                                "value": {
                                                    "current": "0",
                                                    "prev": "0",
                                                    "typeTag": 1
                                                }
                                            },
                                            {
                                                "name": "__reservedB3",
                                                "type": "uint32",
                                                "value": {
                                                    "current": "0",
                                                    "prev": "0",
                                                    "typeTag": 1
                                                }
                                            },
                                            {
                                                "name": "lastUnpausedAt",
                                                "type": "uint64",
                                                "value": {
                                                    "current": "1716571955",
                                                    "prev": "1716571955",
                                                    "typeTag": 1
                                                }
                                            }
                                        ],
                                        "typeTag": 3
                                    }
                                },
                                {
                                    "name": "bondBalance",
                                    "type": "mapping(address => uint256)",
                                    "value": {
                                        "pairs": [
                                            {
                                                "key": "0x68d30f47f19c07bccef4ac7fae2dc12fca3e0dc9",
                                                "value": {
                                                    "current": "6000750000000000000000000",
                                                    "prev": "6000875000000000000000000",
                                                    "typeTag": 1
                                                }
                                            }
                                        ],
                                        "typeTag": 4
                                    }
                                }
                            ],
                            "typeTag": 3
                        }
                    }
                ]
            }
        ]
    }
}