{
    "balance_change": {
        "balanceChanges": [
            {
                "account": "0x81129458dc2acf4965e508086990e4332c64cd4f",
                "assets": [
                    {
                        "address": "0xeeeeeeeeeeeeeeeeeeeeeeeeeeeeeeeeeeeeeeee",
                        "amount": "0.2",
                        "iconUrl": "https://assets.blocksec.com/image/1663669189317-3.png",
                        "isERC1155": false,
                        "isERC721": false,
                        "sign": false,
                        "value": "441.81400000000003275"
                    }
                ]
            },
            {
                "account": "0xe87753eb91d6a61ea342bb9044a97764366cc7b2",
                "assets": [
                    {
                        "address": "0xeeeeeeeeeeeeeeeeeeeeeeeeeeeeeeeeeeeeeeee",
                        "amount": "0.2",
                        "iconUrl": "https://assets.blocksec.com/image/1663669189317-3.png",
                        "isERC1155": false,
                        "isERC721": false,
                        "sign": true,
                        "value": "441.81400000000003275"
                    }
                ]
            }
        ]
    },
    "profile": {
        "basic_info": {
            "baseFee": "29.984653115",
            "blockNumber": 18958361,
            "callData": "0x8f1e376700000000000000000000000081129458dc2acf4965e508086990e4332c64cd4f00000000000000000000000000000000000000000000000000000000000000021cc4ccd116d584aec49195d93a6b8d996d570baac6739ced4bf4b2cc895c2b3d000000000000000000000000000000000000000000000000000000000000008000000000000000000000000000000000000000000000000000000000000000410479f363ba40adcf9c7ee1450bda267b9337c836baa8fda12174dd124cf3ff0d6acb42f42940e62c7a47da638e305462053983e39c769a915e96fd36b0c492631b00000000000000000000000000000000000000000000000000000000000000",
            "debugEnable": true,
            "errorInfo": "",
            "eventCount": 1,
            "feeRecipient": "0x95222290dd7278aa3ddd389cc1e1d165cc4bafe5",
            "formatValue": "0.2",
            "gasLimit": 148545,
            "gasPrice": "30.034653115",
            "gasUsed": 93028,
            "intTxnCount": 2,
            "internalRevert": false,
            "internalRevertMessage": "",
            "isContractCreation": false,
            "isFlashloan": false,
            "maxFee": "32",
            "nonce": 4,
            "overwritedBlockNumber": -1,
            "priorityFee": "0.05",
            "receiver": "0xe87753eb91d6a61ea342bb9044a97764366cc7b2",
            "revertMessage": "",
            "sender": "0x81129458dc2acf4965e508086990e4332c64cd4f",
            "simulationEnable": true,
            "sourceTxnHash": "0x6a2685f7168f0d4b37f68b02adc6e9e1acdde65d58cd2dc345bfd7986ca29e76",
            "status": true,
            "timestamp": "2024-01-07T23:07:47Z",
            "transactionFee": "0.00279406370998222",
            "txnHash": "0x6a2685f7168f0d4b37f68b02adc6e9e1acdde65d58cd2dc345bfd7986ca29e76",
            "txnIndex": 140,
            "type": 2,
            "value": "200000000000000000"
        },
        "fund_flow": [
            {
                "amount": "0.2",
                "from": "0x81129458dc2acf4965e508086990e4332c64cd4f",
                "id": 1,
                "isERC1155": false,
                "isERC721": false,
                "isReverted": false,
                "order": 1,
                "to": "0xe87753eb91d6a61ea342bb9044a97764366cc7b2",
                "token": "0xeeeeeeeeeeeeeeeeeeeeeeeeeeeeeeeeeeeeeeee"
            }
        ],
        "token_infos": [
            {
                "address": "0xc02aaa39b223fe8d0a0e5c4f27ead9083c756cc2",
                "decimals": 18
            },
            {
                "address": "0xeeeeeeeeeeeeeeeeeeeeeeeeeeeeeeeeeeeeeeee",
                "decimals": 18
            }
        ]
    },
    "address_label": {
        "labels": [
            {
                "address": "0x289656792b971ee0e81d467316f0849d8f74ba44",
                "label": "TinfunReserve"
            },
            {
                "address": "0xe87753eb91d6a61ea342bb9044a97764366cc7b2",
                "label": "TransparentUpgradeableProxy"
            },
            {
                "address": "0x0000000000000000000000000000000000000001",
                "label": "Precompiled"
            },
            {
                "address": "0x0000000000000000000000000000000000000002",
                "label": "Precompiled"
            },
            {
                "address": "0x0000000000000000000000000000000000000003",
                "label": "Precompiled"
            },
            {
                "address": "0x0000000000000000000000000000000000000004",
                "label": "Precompiled"
            },
            {
                "address": "0xeeeeeeeeeeeeeeeeeeeeeeeeeeeeeeeeeeeeeeee",
                "label": "Ether"
            }
        ]
    },
    "trace": {
        "accountLabels": null,
        "dataMap": {
            "-1": {
                "invocation": {
                    "address": "0x81129458dc2acf4965e508086990e4332c64cd4f",
                    "callData": "",
                    "decodedMethod": null,
                    "errorInfo": "",
                    "fromAddress": "",
                    "gasUsed": 0,
                    "id": -1,
                    "methodDecoded": false,
                    "operation": "",
                    "output": "",
                    "revert": false,
                    "revertMessage": "",
                    "selector": "",
                    "status": false,
                    "value": ""
                },
                "nodeType": 0
            },
            "0": {
                "invocation": {
                    "address": "0xe87753eb91d6a61ea342bb9044a97764366cc7b2",
                    "callData": "0x00000000000000000000000081129458dc2acf4965e508086990e4332c64cd4f00000000000000000000000000000000000000000000000000000000000000021cc4ccd116d584aec49195d93a6b8d996d570baac6739ced4bf4b2cc895c2b3d000000000000000000000000000000000000000000000000000000000000008000000000000000000000000000000000000000000000000000000000000000410479f363ba40adcf9c7ee1450bda267b9337c836baa8fda12174dd124cf3ff0d6acb42f42940e62c7a47da638e305462053983e39c769a915e96fd36b0c492631b00000000000000000000000000000000000000000000000000000000000000",
                    "decodedMethod": {
                        "callParams": [
                            {
                                "name": "_guest",
                                "type": "address",
                                "value": "0x81129458dc2acf4965e508086990e4332c64cd4f"
                            },
                            {
                                "name": "_amount",
                                "type": "uint256",
                                "value": "2"
                            },
                            {
                                "name": "_nonce",
                                "type": "bytes32",
                                "value": "0x1cc4ccd116d584aec49195d93a6b8d996d570baac6739ced4bf4b2cc895c2b3d"
                            },
                            {
                                "name": "_signature",
                                "type": "bytes",
                                "value": "0x0479f363ba40adcf9c7ee1450bda267b9337c836baa8fda12174dd124cf3ff0d6acb42f42940e62c7a47da638e305462053983e39c769a915e96fd36b0c492631b"
                            }
                        ],
                        "constructorArguments": "",
                        "name": "publicReserve",
                        "returnParams": [],
                        "signature": "publicReserve(address,uint256,bytes32,bytes)"
                    },
                    "errorInfo": "",
                    "fromAddress": "0x81129458dc2acf4965e508086990e4332c64cd4f",
                    "gasUsed": 93028,
                    "id": 0,
                    "methodDecoded": true,
                    "operation": "CALL",
                    "output": "",
                    "revert": false,
                    "revertMessage": "",
                    "selector": "0x8f1e3767",
                    "status": true,
                    "value": "0.2"
                },
                "nodeType": 0
            },
            "1": {
                "invocation": {
                    "address": "0x289656792b971ee0e81d467316f0849d8f74ba44",
                    "callData": "0x00000000000000000000000081129458dc2acf4965e508086990e4332c64cd4f00000000000000000000000000000000000000000000000000000000000000021cc4ccd116d584aec49195d93a6b8d996d570baac6739ced4bf4b2cc895c2b3d000000000000000000000000000000000000000000000000000000000000008000000000000000000000000000000000000000000000000000000000000000410479f363ba40adcf9c7ee1450bda267b9337c836baa8fda12174dd124cf3ff0d6acb42f42940e62c7a47da638e305462053983e39c769a915e96fd36b0c492631b00000000000000000000000000000000000000000000000000000000000000",
                    "decodedMethod": {
                        "callParams": [
                            {
                                "name": "_guest",
                                "type": "address",
                                "value": "0x81129458dc2acf4965e508086990e4332c64cd4f"
                            },
                            {
                                "name": "_amount",
                                "type": "uint256",
                                "value": "2"
                            },
                            {
                                "name": "_nonce",
                                "type": "bytes32",
                                "value": "0x1cc4ccd116d584aec49195d93a6b8d996d570baac6739ced4bf4b2cc895c2b3d"
                            },
                            {
                                "name": "_signature",
                                "type": "bytes",
                                "value": "0x0479f363ba40adcf9c7ee1450bda267b9337c836baa8fda12174dd124cf3ff0d6acb42f42940e62c7a47da638e305462053983e39c769a915e96fd36b0c492631b"
                            }
                        ],
                        "constructorArguments": "",
                        "name": "publicReserve",
                        "returnParams": [],
                        "signature": "publicReserve(address,uint256,bytes32,bytes)"
                    },
                    "errorInfo": "",
                    "fromAddress": "0xe87753eb91d6a61ea342bb9044a97764366cc7b2",
                    "gasUsed": 65104,
                    "id": 1,
                    "methodDecoded": true,
                    "operation": "DELEGATECALL",
                    "output": "",
                    "revert": false,
                    "revertMessage": "",
                    "selector": "0x8f1e3767",
                    "status": true,
                    "value": "0.2"
                },
                "nodeType": 0
            },
            "2": {
                "invocation": {
                    "address": "0x0000000000000000000000000000000000000001",
                    "callData": "0x9fc52e9507b14ea11c77470fdbb4f9bdffe8fce7f5e2f41bf6dca13c000000000000000000000000000000000000000000000000000000000000001b0479f363ba40adcf9c7ee1450bda267b9337c836baa8fda12174dd124cf3ff0d6acb42f42940e62c7a47da638e305462053983e39c769a915e96fd36b0c49263",
                    "decodedMethod": {
                        "callParams": [
                            {
                                "name": "hash",
                                "type": "bytes32",
                                "value": "0xc331f9ce9fc52e9507b14ea11c77470fdbb4f9bdffe8fce7f5e2f41bf6dca13c"
                            },
                            {
                                "name": "v",
                                "type": "uint256",
                                "value": "27"
                            },
                            {
                                "name": "r",
                                "type": "bytes32",
                                "value": "0x0479f363ba40adcf9c7ee1450bda267b9337c836baa8fda12174dd124cf3ff0d"
                            },
                            {
                                "name": "s",
                                "type": "bytes32",
                                "value": "0x6acb42f42940e62c7a47da638e305462053983e39c769a915e96fd36b0c49263"
                            }
                        ],
                        "constructorArguments": "",
                        "name": "ecrecover",
                        "returnParams": [
                            {
                                "name": "",
                                "type": "address",
                                "value": "0x886b461dc88f1a6ba38f1e727f3898d464268b08"
                            }
                        ],
                        "signature": "ecrecover(bytes32,uint256,bytes32,bytes32)"
                    },
                    "errorInfo": "",
                    "fromAddress": "0xe87753eb91d6a61ea342bb9044a97764366cc7b2",
                    "gasUsed": 3000,
                    "id": 2,
                    "methodDecoded": true,
                    "operation": "STATICCALL",
                    "output": "0x000000000000000000000000886b461dc88f1a6ba38f1e727f3898d464268b08",
                    "revert": false,
                    "revertMessage": "",
                    "selector": "0xc331f9ce",
                    "status": true,
                    "value": "0"
                },
                "nodeType": 0
            },
            "3": {
                "event": {
                    "contract": "0xe87753eb91d6a61ea342bb9044a97764366cc7b2",
                    "decodedLog": {
                        "name": "PublicReserved",
                        "params": [
                            {
                                "name": "guest",
                                "type": "address",
                                "value": "0x81129458dc2acf4965e508086990e4332c64cd4f"
                            },
                            {
                                "name": "amount",
                                "type": "uint256",
                                "value": "200,000,000,000,000,000"
                            }
                        ],
                        "signature": "PublicReserved(address,uint256)"
                    },
                    "id": 3,
                    "logData": "0x00000000000000000000000000000000000000000000000002c68af0bb140000",
                    "logDecoded": true,
                    "operation": "EVENT",
                    "revert": false,
                    "status": true,
                    "topics": [
                        "0x692fa538b2bd81fa33eeab6a237e93b6a15b5a541f30f4b60a39d63d0654b5fa",
                        "0x00000000000000000000000081129458dc2acf4965e508086990e4332c64cd4f"
                    ]
                },
                "nodeType": 1
            }
        },
        "gasFlame": [
            {
                "children": [
                    {
                        "children": [
                            {
                                "children": [],
                                "depth": 0,
                                "name": "Initial Gas",
                                "value": 23528
                            },
                            {
                                "children": [
                                    {
                                        "children": [
                                            {
                                                "children": [],
                                                "depth": 2,
                                                "name": "ecrecover",
                                                "value": 3000
                                            }
                                        ],
                                        "depth": 1,
                                        "name": "publicReserve",
                                        "value": 65104
                                    }
                                ],
                                "depth": 0,
                                "name": "Executed Gas",
                                "value": 72300
                            }
                        ],
                        "depth": -1,
                        "name": "Actual Gas Used",
                        "value": 93028
                    },
                    {
                        "children": [],
                        "depth": -1,
                        "name": "Refunded Gas",
                        "value": 2800
                    }
                ],
                "depth": -2,
                "name": "Total Gas",
                "value": 95828
            }
        ],
        "isConfirmed": true,
        "mainTrace": [
            {
                "children": [
                    {
                        "children": [
                            {
                                "children": [
                                    {
                                        "children": [],
                                        "depth": 2,
                                        "id": 2,
                                        "order": 2
                                    },
                                    {
                                        "children": [],
                                        "depth": 2,
                                        "id": 3,
                                        "order": 3
                                    }
                                ],
                                "depth": 1,
                                "id": 1,
                                "order": 1
                            }
                        ],
                        "depth": 0,
                        "id": 0,
                        "order": 0
                    }
                ],
                "depth": -1,
                "id": -1,
                "order": -1
            }
        ],
        "mainTraceNodeCount": 4,
        "parentIdMap": {
            "0": -1,
            "1": 0,
            "2": 1,
            "3": 1
        },
        "tidyTrace": [
            {
                "children": [
                    {
                        "children": [
                            {
                                "children": [
                                    {
                                        "children": [],
                                        "depth": 2,
                                        "id": 3,
                                        "order": 3
                                    }
                                ],
                                "depth": 1,
                                "id": 1,
                                "order": 1
                            }
                        ],
                        "depth": 0,
                        "id": 0,
                        "order": 0
                    }
                ],
                "depth": -1,
                "id": -1,
                "order": -1
            }
        ],
        "tidyTraceNodeCount": 3
    },
    "state_change": {
        "stateChanges": [
            {
                "address": "0xe87753eb91d6a61ea342bb9044a97764366cc7b2",
                "erc": "",
                "slots": [
                    {
                        "current": "0x0000000000000000000000000000000000000000000000000000000000000001",
                        "key": "0xb9259694ef27644ad47d9fdc7815099d9d3d188c000d570e4245e9ab1ba3d18d",
                        "prev": "0x0000000000000000000000000000000000000000000000000000000000000000"
                    },
                    {
                        "current": "0x00000000000000000000000000000000000000000000000002c68af0bb140000",
                        "key": "0xf5caf990743b1a1d5895bc23ee9c470330805e6aa98cb64caca246cc9c37ac0d",
                        "prev": "0x0000000000000000000000000000000000000000000000000000000000000000"
                    }
                ],
                "storageVariables": [
                    {
                        "name": "nonceUsed",
                        "type": "mapping(bytes32 => bool)",
                        "value": {
                            "pairs": [
                                {
                                    "key": "0x1cc4ccd116d584aec49195d93a6b8d996d570baac6739ced4bf4b2cc895c2b3d",
                                    "value": {
                                        "current": "true",
                                        "prev": "false",
                                        "typeTag": 1
                                    }
                                }
                            ],
                            "typeTag": 4
                        }
                    },
                    {
                        "name": "depositBalances",
                        "type": "mapping(address => uint256)",
                        "value": {
                            "pairs": [
                                {
                                    "key": "0x81129458dc2acf4965e508086990e4332c64cd4f",
                                    "value": {
                                        "current": "200000000000000000",
                                        "prev": "0",
                                        "typeTag": 1
                                    }
                                }
                            ],
                            "typeTag": 4
                        }
                    }
                ]
            }
        ]
    }
}