{
    "balance_change": {
        "balanceChanges": []
    },
    "profile": {
        "basic_info": {
            "baseFee": "42.722666441",
            "blockNumber": 19612690,
            "callData": "0x095ea7b3000000000000000000000000b6d149c8dda37aaaa2f8ad0934f2e5682c35890b00000000000000000000000000000000000000000000087a317ab4135ce40000",
            "debugEnable": true,
            "errorInfo": "",
            "eventCount": 1,
            "feeRecipient": "0x95222290dd7278aa3ddd389cc1e1d165cc4bafe5",
            "formatValue": "0",
            "gasLimit": 46801,
            "gasPrice": "42.742511621",
            "gasUsed": 46418,
            "intTxnCount": 0,
            "internalRevert": false,
            "internalRevertMessage": "",
            "isContractCreation": false,
            "isFlashloan": false,
            "maxFee": "43.306634354",
            "nonce": 38,
            "overwritedBlockNumber": -1,
            "priorityFee": "0.01984518",
            "receiver": "0x8457ca5040ad67fdebbcc8edce889a335bc0fbfb",
            "revertMessage": "",
            "sender": "0x2ca291f998bc5faed40c681a092114bf6a2615a7",
            "simulationEnable": true,
            "sourceTxnHash": "0x6bd423a5cb9a71eb3c0c4c0fba0125104590ed36f9078a52ee6806e2730adcad",
            "status": true,
            "timestamp": "2024-04-08T18:19:59Z",
            "transactionFee": "0.001984021904423578",
            "txnHash": "0x6bd423a5cb9a71eb3c0c4c0fba0125104590ed36f9078a52ee6806e2730adcad",
            "txnIndex": 159,
            "type": 2,
            "value": "0"
        },
        "fund_flow": [],
        "token_infos": [
            {
                "address": "0xc02aaa39b223fe8d0a0e5c4f27ead9083c756cc2",
                "decimals": 18
            },
            {
                "address": "0xeeeeeeeeeeeeeeeeeeeeeeeeeeeeeeeeeeeeeeee",
                "decimals": 18
            }
        ]
    },
    "address_label": {
        "labels": [
            {
                "address": "0xeeeeeeeeeeeeeeeeeeeeeeeeeeeeeeeeeeeeeeee",
                "label": "Ether"
            },
            {
                "address": "0xb6d149c8dda37aaaa2f8ad0934f2e5682c35890b",
                "label": "AltLayer: STALT Token"
            },
            {
                "address": "0x2ca291f998bc5faed40c681a092114bf6a2615a7",
                "label": "nicotine777888.nft"
            },
            {
                "address": "0x8457ca5040ad67fdebbcc8edce889a335bc0fbfb",
                "label": "AltLayer: ALT Token"
            },
            {
                "address": "0x0000000000000000000000000000000000000001",
                "label": "Precompiled"
            },
            {
                "address": "0x0000000000000000000000000000000000000002",
                "label": "Precompiled"
            },
            {
                "address": "0x0000000000000000000000000000000000000003",
                "label": "Precompiled"
            },
            {
                "address": "0x0000000000000000000000000000000000000004",
                "label": "Precompiled"
            }
        ]
    },
    "trace": {
        "accountLabels": null,
        "dataMap": {
            "-1": {
                "invocation": {
                    "address": "0x2ca291f998bc5faed40c681a092114bf6a2615a7",
                    "callData": "",
                    "decodedMethod": null,
                    "errorInfo": "",
                    "fromAddress": "",
                    "gasUsed": 0,
                    "id": -1,
                    "methodDecoded": false,
                    "operation": "",
                    "output": "",
                    "revert": false,
                    "revertMessage": "",
                    "selector": "",
                    "status": false,
                    "value": ""
                },
                "nodeType": 0
            },
            "0": {
                "invocation": {
                    "address": "0x8457ca5040ad67fdebbcc8edce889a335bc0fbfb",
                    "callData": "0x000000000000000000000000b6d149c8dda37aaaa2f8ad0934f2e5682c35890b00000000000000000000000000000000000000000000087a317ab4135ce40000",
                    "decodedMethod": {
                        "callParams": [
                            {
                                "name": "spender",
                                "type": "address",
                                "value": "0xb6d149c8dda37aaaa2f8ad0934f2e5682c35890b"
                            },
                            {
                                "decimalAvailable": true,
                                "name": "value",
                                "type": "uint256",
                                "value": "40,033,000,000,000,000,000,000"
                            }
                        ],
                        "constructorArguments": "",
                        "name": "approve",
                        "returnParams": [
                            {
                                "name": "",
                                "type": "bool",
                                "value": true
                            }
                        ],
                        "signature": "approve(address,uint256)"
                    },
                    "errorInfo": "",
                    "fromAddress": "0x2ca291f998bc5faed40c681a092114bf6a2615a7",
                    "gasUsed": 46418,
                    "id": 0,
                    "methodDecoded": true,
                    "operation": "CALL",
                    "output": "0x0000000000000000000000000000000000000000000000000000000000000001",
                    "revert": false,
                    "revertMessage": "",
                    "selector": "0x095ea7b3",
                    "status": true,
                    "value": "0"
                },
                "nodeType": 0
            },
            "1": {
                "event": {
                    "contract": "0x8457ca5040ad67fdebbcc8edce889a335bc0fbfb",
                    "decodedLog": {
                        "name": "Approval",
                        "params": [
                            {
                                "name": "owner",
                                "type": "address",
                                "value": "0x2ca291f998bc5faed40c681a092114bf6a2615a7"
                            },
                            {
                                "name": "spender",
                                "type": "address",
                                "value": "0xb6d149c8dda37aaaa2f8ad0934f2e5682c35890b"
                            },
                            {
                                "decimalAvailable": true,
                                "name": "value",
                                "type": "uint256",
                                "value": "40,033,000,000,000,000,000,000"
                            }
                        ],
                        "signature": "Approval(address,address,uint256)"
                    },
                    "id": 1,
                    "logData": "0x00000000000000000000000000000000000000000000087a317ab4135ce40000",
                    "logDecoded": true,
                    "operation": "EVENT",
                    "revert": false,
                    "status": true,
                    "topics": [
                        "0x8c5be1e5ebec7d5bd14f71427d1e84f3dd0314c0f7b2291e5b200ac8c7c3b925",
                        "0x0000000000000000000000002ca291f998bc5faed40c681a092114bf6a2615a7",
                        "0x000000000000000000000000b6d149c8dda37aaaa2f8ad0934f2e5682c35890b"
                    ]
                },
                "nodeType": 1
            }
        },
        "gasFlame": [
            {
                "children": [
                    {
                        "children": [
                            {
                                "children": [],
                                "depth": 0,
                                "name": "Initial Gas",
                                "value": 21656
                            },
                            {
                                "children": [],
                                "depth": 0,
                                "name": "Executed Gas",
                                "value": 24762
                            }
                        ],
                        "depth": -1,
                        "name": "Actual Gas Used",
                        "value": 46418
                    },
                    {
                        "children": [],
                        "depth": -1,
                        "name": "Refunded Gas",
                        "value": 0
                    }
                ],
                "depth": -2,
                "name": "Total Gas",
                "value": 46418
            }
        ],
        "isConfirmed": true,
        "mainTrace": [
            {
                "children": [
                    {
                        "children": [
                            {
                                "children": [],
                                "depth": 1,
                                "id": 1,
                                "order": 1
                            }
                        ],
                        "depth": 0,
                        "id": 0,
                        "order": 0
                    }
                ],
                "depth": -1,
                "id": -1,
                "order": -1
            }
        ],
        "mainTraceNodeCount": 2,
        "parentIdMap": {
            "0": -1,
            "1": 0
        },
        "tidyTrace": [
            {
                "children": [
                    {
                        "children": [
                            {
                                "children": [],
                                "depth": 1,
                                "id": 1,
                                "order": 1
                            }
                        ],
                        "depth": 0,
                        "id": 0,
                        "order": 0
                    }
                ],
                "depth": -1,
                "id": -1,
                "order": -1
            }
        ],
        "tidyTraceNodeCount": 2
    },
    "state_change": {
        "stateChanges": [
            {
                "address": "0x8457ca5040ad67fdebbcc8edce889a335bc0fbfb",
                "erc": "ERC-20",
                "slots": [
                    {
                        "current": "0x00000000000000000000000000000000000000000000087a317ab4135ce40000",
                        "key": "0x203ebd9c3a0a71db740964cdfd465338ab026108adfeb3e84cf1cbad8f0c5d5a",
                        "prev": "0x0000000000000000000000000000000000000000000000000000000000000000"
                    }
                ],
                "storageVariables": [
                    {
                        "name": "_allowances",
                        "type": "mapping(address => mapping(address => uint256))",
                        "value": {
                            "pairs": [
                                {
                                    "key": "0x2ca291f998bc5faed40c681a092114bf6a2615a7",
                                    "value": {
                                        "pairs": [
                                            {
                                                "key": "0xb6d149c8dda37aaaa2f8ad0934f2e5682c35890b",
                                                "value": {
                                                    "current": "40033000000000000000000",
                                                    "prev": "0",
                                                    "typeTag": 1
                                                }
                                            }
                                        ],
                                        "typeTag": 4
                                    }
                                }
                            ],
                            "typeTag": 4
                        }
                    }
                ]
            }
        ]
    }
}