{
    "balance_change": {
        "balanceChanges": [
            {
                "account": "0x93f635372008b7c5d770aaa6ff313454c8dc498c",
                "assets": [
                    {
                        "address": "0xeeeeeeeeeeeeeeeeeeeeeeeeeeeeeeeeeeeeeeee",
                        "amount": "0.00000000000004992",
                        "iconUrl": "https://assets.blocksec.com/image/1663669189317-3.png",
                        "isERC1155": false,
                        "isERC721": false,
                        "sign": false,
                        "value": "0.000000000093598003200000001815"
                    }
                ]
            },
            {
                "account": "0xa69babef1ca67a37ffaf7a485dfff3382056e78c",
                "assets": [
                    {
                        "address": "0xeeeeeeeeeeeeeeeeeeeeeeeeeeeeeeeeeeeeeeee",
                        "amount": "0.000213851111094638",
                        "iconUrl": "https://assets.blocksec.com/image/1663669189317-3.png",
                        "isERC1155": false,
                        "isERC721": false,
                        "sign": false,
                        "value": "0.40096227926805600778"
                    },
                    {
                        "address": "0xc02aaa39b223fe8d0a0e5c4f27ead9083c756cc2",
                        "amount": "1.024537107082043503",
                        "iconUrl": "https://assets.blocksec.com/icon/f1cb2d02c471d545bbc7722daf3277fd852d98e63d118771af7047bd8256c516.png",
                        "isERC1155": false,
                        "isERC721": false,
                        "sign": true,
                        "value": "1920.9660941407200372"
                    },
                    {
                        "address": "0xf57e7e7c23978c3caec3c3548e3d615c346e79ff",
                        "amount": "2,500.8530129813010935",
                        "iconUrl": "",
                        "isERC1155": false,
                        "isERC721": false,
                        "sign": false,
                        "value": "1910.9017872333000035"
                    }
                ]
            },
            {
                "account": "0x81fbbc40cf075fd7de6afce1bc72eda1bb0e13aa",
                "assets": [
                    {
                        "address": "0xc02aaa39b223fe8d0a0e5c4f27ead9083c756cc2",
                        "amount": "1.024537107082043503",
                        "iconUrl": "https://assets.blocksec.com/icon/f1cb2d02c471d545bbc7722daf3277fd852d98e63d118771af7047bd8256c516.png",
                        "isERC1155": false,
                        "isERC721": false,
                        "sign": false,
                        "value": "1920.9660941407200372"
                    },
                    {
                        "address": "0xf57e7e7c23978c3caec3c3548e3d615c346e79ff",
                        "amount": "2,500.8530129813010935",
                        "iconUrl": "",
                        "isERC1155": false,
                        "isERC721": false,
                        "sign": true,
                        "value": "1910.9017872333000035"
                    }
                ]
            },
            {
                "account": "0x95222290dd7278aa3ddd389cc1e1d165cc4bafe5",
                "assets": [
                    {
                        "address": "0xeeeeeeeeeeeeeeeeeeeeeeeeeeeeeeeeeeeeeeee",
                        "amount": "0.000213851111144558",
                        "iconUrl": "https://assets.blocksec.com/image/1663669189317-3.png",
                        "isERC1155": false,
                        "isERC721": false,
                        "sign": true,
                        "value": "0.40096227926805600778"
                    }
                ]
            }
        ]
    },
    "profile": {
        "basic_info": {
            "baseFee": "16.227840178",
            "blockNumber": 17804337,
            "callData": "0x78e111f6000000000000000000000000a9aaaad8a72cdef71d728bb661f2b8ef83f44db4000000000000000000000000000000000000000000000000000000000000004000000000000000000000000000000000000000000000000000000000000000c42f1c6b50000000000000000000000000000000000000000000000087924eb53827cfa47c000000000000000000000000000000000000000000005693d695777e88000000000000000000000000000000000000000000003161b11887e7d64739ba1ee2ef0000000000000000000000000000000000000000000000000001735570a5ad8f0000000000000000000000000000000000000000000000000000000064c60fdfff8000000000000000000000000000000000000000000000000000000000fd8300000000000000000000000000000000000000000000000000000000",
            "debugEnable": true,
            "errorInfo": "",
            "eventCount": 3,
            "feeRecipient": "0x95222290dd7278aa3ddd389cc1e1d165cc4bafe5",
            "formatValue": "0.00000000000004992",
            "gasLimit": 219212,
            "gasPrice": "16.227840178",
            "gasUsed": 109561,
            "intTxnCount": 8,
            "internalRevert": false,
            "internalRevertMessage": "",
            "isContractCreation": false,
            "isFlashloan": false,
            "maxFee": "24.341760267",
            "nonce": 174722,
            "overwritedBlockNumber": -1,
            "priorityFee": "0",
            "receiver": "0xa69babef1ca67a37ffaf7a485dfff3382056e78c",
            "revertMessage": "",
            "sender": "0x93f635372008b7c5d770aaa6ff313454c8dc498c",
            "simulationEnable": true,
            "sourceTxnHash": "0x6b9cd766bf67ab71ebad4e60f8b24a340f86aa4f65c9c40746391d6ab9ff15be",
            "status": true,
            "timestamp": "2023-07-30T07:23:11Z",
            "transactionFee": "0.001777938397741858",
            "txnHash": "0x6b9cd766bf67ab71ebad4e60f8b24a340f86aa4f65c9c40746391d6ab9ff15be",
            "txnIndex": 9,
            "type": 2,
            "value": "49920"
        },
        "fund_flow": [
            {
                "amount": "0.00000000000004992",
                "from": "0x93f635372008b7c5d770aaa6ff313454c8dc498c",
                "id": 1,
                "isERC1155": false,
                "isERC721": false,
                "isReverted": false,
                "order": 1,
                "to": "0xa69babef1ca67a37ffaf7a485dfff3382056e78c",
                "token": "0xeeeeeeeeeeeeeeeeeeeeeeeeeeeeeeeeeeeeeeee"
            },
            {
                "amount": "1.024537107082043503",
                "from": "0x81fbbc40cf075fd7de6afce1bc72eda1bb0e13aa",
                "id": 2,
                "isERC1155": false,
                "isERC721": false,
                "isReverted": false,
                "order": 2,
                "to": "0xa69babef1ca67a37ffaf7a485dfff3382056e78c",
                "token": "0xc02aaa39b223fe8d0a0e5c4f27ead9083c756cc2"
            },
            {
                "amount": "2,500.8530129813010935",
                "from": "0xa69babef1ca67a37ffaf7a485dfff3382056e78c",
                "id": 3,
                "isERC1155": false,
                "isERC721": false,
                "isReverted": false,
                "order": 3,
                "to": "0x81fbbc40cf075fd7de6afce1bc72eda1bb0e13aa",
                "token": "0xf57e7e7c23978c3caec3c3548e3d615c346e79ff"
            },
            {
                "amount": "0.000213851111144558",
                "from": "0xa69babef1ca67a37ffaf7a485dfff3382056e78c",
                "id": 4,
                "isERC1155": false,
                "isERC721": false,
                "isReverted": false,
                "order": 4,
                "to": "0x95222290dd7278aa3ddd389cc1e1d165cc4bafe5",
                "token": "0xeeeeeeeeeeeeeeeeeeeeeeeeeeeeeeeeeeeeeeee"
            }
        ],
        "token_infos": [
            {
                "address": "0xc02aaa39b223fe8d0a0e5c4f27ead9083c756cc2",
                "decimals": 18
            },
            {
                "address": "0xf57e7e7c23978c3caec3c3548e3d615c346e79ff",
                "decimals": 18
            },
            {
                "address": "0xeeeeeeeeeeeeeeeeeeeeeeeeeeeeeeeeeeeeeeee",
                "decimals": 18
            }
        ]
    },
    "address_label": {
        "labels": [
            {
                "address": "0xeeeeeeeeeeeeeeeeeeeeeeeeeeeeeeeeeeeeeeee",
                "label": "Ether"
            },
            {
                "address": "0xf57e7e7c23978c3caec3c3548e3d615c346e79ff",
                "label": "IMMUTABLE X: IMX Token"
            },
            {
                "address": "0x81fbbc40cf075fd7de6afce1bc72eda1bb0e13aa",
                "label": "Uniswap V3: IMX 3"
            },
            {
                "address": "0x0000000000000000000000000000000000000001",
                "label": "Precompiled"
            },
            {
                "address": "0x0000000000000000000000000000000000000003",
                "label": "Precompiled"
            },
            {
                "address": "0x0000000000000000000000000000000000000004",
                "label": "Precompiled"
            },
            {
                "address": "0xa69babef1ca67a37ffaf7a485dfff3382056e78c",
                "label": "MEV Bot: 0xA69...78C"
            },
            {
                "address": "0xc02aaa39b223fe8d0a0e5c4f27ead9083c756cc2",
                "label": "Wrapped Ether (WETH)"
            },
            {
                "address": "0x95222290dd7278aa3ddd389cc1e1d165cc4bafe5",
                "label": "beaverbuild"
            },
            {
                "address": "0x0000000000000000000000000000000000000002",
                "label": "Precompiled"
            }
        ]
    },
    "trace": {
        "accountLabels": null,
        "dataMap": {
            "-1": {
                "invocation": {
                    "address": "0x93f635372008b7c5d770aaa6ff313454c8dc498c",
                    "callData": "",
                    "decodedMethod": null,
                    "errorInfo": "",
                    "fromAddress": "",
                    "gasUsed": 0,
                    "id": -1,
                    "methodDecoded": false,
                    "operation": "",
                    "output": "",
                    "revert": false,
                    "revertMessage": "",
                    "selector": "",
                    "status": false,
                    "value": ""
                },
                "nodeType": 0
            },
            "0": {
                "invocation": {
                    "address": "0xa69babef1ca67a37ffaf7a485dfff3382056e78c",
                    "callData": "0x000000000000000000000000a9aaaad8a72cdef71d728bb661f2b8ef83f44db4000000000000000000000000000000000000000000000000000000000000004000000000000000000000000000000000000000000000000000000000000000c42f1c6b50000000000000000000000000000000000000000000000087924eb53827cfa47c000000000000000000000000000000000000000000005693d695777e88000000000000000000000000000000000000000000003161b11887e7d64739ba1ee2ef0000000000000000000000000000000000000000000000000001735570a5ad8f0000000000000000000000000000000000000000000000000000000064c60fdfff8000000000000000000000000000000000000000000000000000000000fd8300000000000000000000000000000000000000000000000000000000",
                    "decodedMethod": {
                        "callParams": [
                            {
                                "name": "_address",
                                "type": "address",
                                "value": "0xa9aaaad8a72cdef71d728bb661f2b8ef83f44db4"
                            },
                            {
                                "name": "_bytes",
                                "type": "bytes",
                                "value": "0x2f1c6b50000000000000000000000000000000000000000000000087924eb53827cfa47c000000000000000000000000000000000000000000005693d695777e88000000000000000000000000000000000000000000003161b11887e7d64739ba1ee2ef0000000000000000000000000000000000000000000000000001735570a5ad8f0000000000000000000000000000000000000000000000000000000064c60fdfff8000000000000000000000000000000000000000000000000000000000fd83"
                            }
                        ],
                        "constructorArguments": "",
                        "name": "executeFFsYo",
                        "returnParams": [],
                        "signature": "executeFFsYo(address,bytes)"
                    },
                    "errorInfo": "",
                    "fromAddress": "0x93f635372008b7c5d770aaa6ff313454c8dc498c",
                    "gasUsed": 109561,
                    "id": 0,
                    "methodDecoded": true,
                    "operation": "CALL",
                    "output": "0x00000000000000000000000000000000000000000000000000000000000000200000000000000000000000000000000000000000000000000000000000000040000000000000000000000000000000000000000000000087924eb53827cfa47c0000000000000000000000000000000000000000000000000007508948dd59fc",
                    "revert": false,
                    "revertMessage": "",
                    "selector": "0x78e111f6",
                    "status": true,
                    "value": "0.00000000000004992"
                },
                "nodeType": 0
            },
            "1": {
                "invocation": {
                    "address": "0xa9aaaad8a72cdef71d728bb661f2b8ef83f44db4",
                    "callData": "0x000000000000000000000000000000000000000000000087924eb53827cfa47c000000000000000000000000000000000000000000005693d695777e88000000000000000000000000000000000000000000003161b11887e7d64739ba1ee2ef0000000000000000000000000000000000000000000000000001735570a5ad8f0000000000000000000000000000000000000000000000000000000064c60fdfff8000000000000000000000000000000000000000000000000000000000fd83",
                    "decodedMethod": null,
                    "errorInfo": "",
                    "fromAddress": "0xa69babef1ca67a37ffaf7a485dfff3382056e78c",
                    "gasUsed": 55987,
                    "id": 1,
                    "methodDecoded": false,
                    "operation": "DELEGATECALL",
                    "output": "0x000000000000000000000000000000000000000000000087924eb53827cfa47c0000000000000000000000000000000000000000000000000007508948dd59fc",
                    "revert": false,
                    "revertMessage": "",
                    "selector": "0x2f1c6b50",
                    "status": true,
                    "value": "0.00000000000004992"
                },
                "nodeType": 0
            },
            "10": {
                "event": {
                    "contract": "0x81fbbc40cf075fd7de6afce1bc72eda1bb0e13aa",
                    "decodedLog": {
                        "name": "Swap",
                        "params": [
                            {
                                "name": "sender",
                                "type": "address",
                                "value": "0xa69babef1ca67a37ffaf7a485dfff3382056e78c"
                            },
                            {
                                "name": "recipient",
                                "type": "address",
                                "value": "0xa69babef1ca67a37ffaf7a485dfff3382056e78c"
                            },
                            {
                                "name": "amount0",
                                "type": "int256",
                                "value": "-1,024,537,107,082,043,503"
                            },
                            {
                                "name": "amount1",
                                "type": "int256",
                                "value": "2,500,853,012,981,301,093,500"
                            },
                            {
                                "name": "sqrtPriceX96",
                                "type": "uint160",
                                "value": "3,911,055,017,348,073,947,155,146,967,914"
                            },
                            {
                                "name": "liquidity",
                                "type": "uint128",
                                "value": "38,304,257,645,179,605,660,123"
                            },
                            {
                                "name": "tick",
                                "type": "int24",
                                "value": "77,988"
                            }
                        ],
                        "signature": "Swap(address,address,int256,int256,uint160,uint128,int24)"
                    },
                    "id": 10,
                    "logData": "0xfffffffffffffffffffffffffffffffffffffffffffffffff1c81cede92b1f91000000000000000000000000000000000000000000000087924eb53827cfa47c00000000000000000000000000000000000000315d4ce28df4a8c670fe3f8b6a00000000000000000000000000000000000000000000081c7a5c17a2d2fcb1db00000000000000000000000000000000000000000000000000000000000130a4",
                    "logDecoded": true,
                    "operation": "EVENT",
                    "revert": false,
                    "status": true,
                    "topics": [
                        "0xc42079f94a6350d7e6235f29174924f928cc2ac818eb64fed8004e115fbcca67",
                        "0x000000000000000000000000a69babef1ca67a37ffaf7a485dfff3382056e78c",
                        "0x000000000000000000000000a69babef1ca67a37ffaf7a485dfff3382056e78c"
                    ]
                },
                "nodeType": 1
            },
            "11": {
                "invocation": {
                    "address": "0x95222290dd7278aa3ddd389cc1e1d165cc4bafe5",
                    "callData": "0x",
                    "decodedMethod": null,
                    "errorInfo": "",
                    "fromAddress": "0xa69babef1ca67a37ffaf7a485dfff3382056e78c",
                    "gasUsed": 0,
                    "id": 11,
                    "methodDecoded": false,
                    "operation": "CALL",
                    "output": "",
                    "revert": false,
                    "revertMessage": "",
                    "selector": "fallback",
                    "status": true,
                    "value": "0.000213851111144558"
                },
                "nodeType": 0
            },
            "2": {
                "invocation": {
                    "address": "0x81fbbc40cf075fd7de6afce1bc72eda1bb0e13aa",
                    "callData": "0x000000000000000000000000a69babef1ca67a37ffaf7a485dfff3382056e78c0000000000000000000000000000000000000000000000000000000000000000000000000000000000000000000000000000000000000087924eb53827cfa47c000000000000000000000000000000000000003161b11887e7d64739ba1ee2ef00000000000000000000000000000000000000000000000000000000000000a0000000000000000000000000000000000000000000000000000000000000006007d0fa8260d4de58d3aeb9b675c09e5354c1c4ed73ec3a3fd2198b59a329d1a6000000000000000000000000a69babef1ca67a37ffaf7a485dfff3382056e78c000000000000000000000000f57e7e7c23978c3caec3c3548e3d615c346e79ff",
                    "decodedMethod": {
                        "callParams": [
                            {
                                "name": "recipient",
                                "type": "address",
                                "value": "0xa69babef1ca67a37ffaf7a485dfff3382056e78c"
                            },
                            {
                                "name": "zeroForOne",
                                "type": "bool",
                                "value": false
                            },
                            {
                                "name": "amountSpecified",
                                "type": "int256",
                                "value": "2,500,853,012,981,301,093,500"
                            },
                            {
                                "name": "sqrtPriceLimitX96",
                                "type": "uint160",
                                "value": "3,912,414,104,865,506,460,117,193,646,831"
                            },
                            {
                                "name": "data",
                                "type": "bytes",
                                "value": "0x07d0fa8260d4de58d3aeb9b675c09e5354c1c4ed73ec3a3fd2198b59a329d1a6000000000000000000000000a69babef1ca67a37ffaf7a485dfff3382056e78c000000000000000000000000f57e7e7c23978c3caec3c3548e3d615c346e79ff"
                            }
                        ],
                        "constructorArguments": "",
                        "name": "swap",
                        "returnParams": [
                            {
                                "name": "amount0",
                                "type": "int256",
                                "value": "-1,024,537,107,082,043,503"
                            },
                            {
                                "name": "amount1",
                                "type": "int256",
                                "value": "2,500,853,012,981,301,093,500"
                            }
                        ],
                        "signature": "swap(address,bool,int256,uint160,bytes)"
                    },
                    "errorInfo": "",
                    "fromAddress": "0xa69babef1ca67a37ffaf7a485dfff3382056e78c",
                    "gasUsed": 47778,
                    "id": 2,
                    "methodDecoded": true,
                    "operation": "CALL",
                    "output": "0xfffffffffffffffffffffffffffffffffffffffffffffffff1c81cede92b1f91000000000000000000000000000000000000000000000087924eb53827cfa47c",
                    "revert": false,
                    "revertMessage": "",
                    "selector": "0x128acb08",
                    "status": true,
                    "value": "0"
                },
                "nodeType": 0
            },
            "3": {
                "invocation": {
                    "address": "0xc02aaa39b223fe8d0a0e5c4f27ead9083c756cc2",
                    "callData": "0x000000000000000000000000a69babef1ca67a37ffaf7a485dfff3382056e78c0000000000000000000000000000000000000000000000000e37e31216d4e06f",
                    "decodedMethod": {
                        "callParams": [
                            {
                                "name": "dst",
                                "type": "address",
                                "value": "0xa69babef1ca67a37ffaf7a485dfff3382056e78c"
                            },
                            {
                                "decimalAvailable": true,
                                "name": "wad",
                                "type": "uint256",
                                "value": "1,024,537,107,082,043,503"
                            }
                        ],
                        "constructorArguments": "",
                        "name": "transfer",
                        "returnParams": [
                            {
                                "name": "",
                                "type": "bool",
                                "value": true
                            }
                        ],
                        "signature": "transfer(address,uint256)"
                    },
                    "errorInfo": "",
                    "fromAddress": "0x81fbbc40cf075fd7de6afce1bc72eda1bb0e13aa",
                    "gasUsed": 8862,
                    "id": 3,
                    "methodDecoded": true,
                    "operation": "CALL",
                    "output": "0x0000000000000000000000000000000000000000000000000000000000000001",
                    "revert": false,
                    "revertMessage": "",
                    "selector": "0xa9059cbb",
                    "status": true,
                    "value": "0"
                },
                "nodeType": 0
            },
            "4": {
                "event": {
                    "contract": "0xc02aaa39b223fe8d0a0e5c4f27ead9083c756cc2",
                    "decodedLog": {
                        "name": "Transfer",
                        "params": [
                            {
                                "name": "src",
                                "type": "address",
                                "value": "0x81fbbc40cf075fd7de6afce1bc72eda1bb0e13aa"
                            },
                            {
                                "name": "dst",
                                "type": "address",
                                "value": "0xa69babef1ca67a37ffaf7a485dfff3382056e78c"
                            },
                            {
                                "decimalAvailable": true,
                                "name": "wad",
                                "type": "uint256",
                                "value": "1,024,537,107,082,043,503"
                            }
                        ],
                        "signature": "Transfer(address,address,uint256)"
                    },
                    "id": 4,
                    "logData": "0x0000000000000000000000000000000000000000000000000e37e31216d4e06f",
                    "logDecoded": true,
                    "operation": "EVENT",
                    "revert": false,
                    "status": true,
                    "topics": [
                        "0xddf252ad1be2c89b69c2b068fc378daa952ba7f163c4a11628f55a4df523b3ef",
                        "0x00000000000000000000000081fbbc40cf075fd7de6afce1bc72eda1bb0e13aa",
                        "0x000000000000000000000000a69babef1ca67a37ffaf7a485dfff3382056e78c"
                    ]
                },
                "nodeType": 1
            },
            "5": {
                "invocation": {
                    "address": "0xf57e7e7c23978c3caec3c3548e3d615c346e79ff",
                    "callData": "0x00000000000000000000000081fbbc40cf075fd7de6afce1bc72eda1bb0e13aa",
                    "decodedMethod": {
                        "callParams": [
                            {
                                "name": "account",
                                "type": "address",
                                "value": "0x81fbbc40cf075fd7de6afce1bc72eda1bb0e13aa"
                            }
                        ],
                        "constructorArguments": "",
                        "name": "balanceOf",
                        "returnParams": [
                            {
                                "decimalAvailable": true,
                                "name": "",
                                "type": "uint256",
                                "value": "956,696,553,182,316,801,652,261"
                            }
                        ],
                        "signature": "balanceOf(address)"
                    },
                    "errorInfo": "",
                    "fromAddress": "0x81fbbc40cf075fd7de6afce1bc72eda1bb0e13aa",
                    "gasUsed": 640,
                    "id": 5,
                    "methodDecoded": true,
                    "operation": "STATICCALL",
                    "output": "0x00000000000000000000000000000000000000000000ca969fc2f3bd565d7625",
                    "revert": false,
                    "revertMessage": "",
                    "selector": "0x70a08231",
                    "status": true,
                    "value": "0"
                },
                "nodeType": 0
            },
            "6": {
                "invocation": {
                    "address": "0xa69babef1ca67a37ffaf7a485dfff3382056e78c",
                    "callData": "0xfffffffffffffffffffffffffffffffffffffffffffffffff1c81cede92b1f91000000000000000000000000000000000000000000000087924eb53827cfa47c0000000000000000000000000000000000000000000000000000000000000060000000000000000000000000000000000000000000000000000000000000006007d0fa8260d4de58d3aeb9b675c09e5354c1c4ed73ec3a3fd2198b59a329d1a6000000000000000000000000a69babef1ca67a37ffaf7a485dfff3382056e78c000000000000000000000000f57e7e7c23978c3caec3c3548e3d615c346e79ff",
                    "decodedMethod": {
                        "callParams": [
                            {
                                "name": "amount0Delta",
                                "type": "int256",
                                "value": "-1,024,537,107,082,043,503"
                            },
                            {
                                "name": "amount1Delta",
                                "type": "int256",
                                "value": "2,500,853,012,981,301,093,500"
                            },
                            {
                                "name": "data",
                                "type": "bytes",
                                "value": "0x07d0fa8260d4de58d3aeb9b675c09e5354c1c4ed73ec3a3fd2198b59a329d1a6000000000000000000000000a69babef1ca67a37ffaf7a485dfff3382056e78c000000000000000000000000f57e7e7c23978c3caec3c3548e3d615c346e79ff"
                            }
                        ],
                        "constructorArguments": "",
                        "name": "uniswapV3SwapCallback",
                        "returnParams": [],
                        "signature": "uniswapV3SwapCallback(int256,int256,bytes)"
                    },
                    "errorInfo": "",
                    "fromAddress": "0x81fbbc40cf075fd7de6afce1bc72eda1bb0e13aa",
                    "gasUsed": 9620,
                    "id": 6,
                    "methodDecoded": true,
                    "operation": "CALL",
                    "output": "",
                    "revert": false,
                    "revertMessage": "",
                    "selector": "0xfa461e33",
                    "status": true,
                    "value": "0"
                },
                "nodeType": 0
            },
            "7": {
                "invocation": {
                    "address": "0xf57e7e7c23978c3caec3c3548e3d615c346e79ff",
                    "callData": "0x00000000000000000000000081fbbc40cf075fd7de6afce1bc72eda1bb0e13aa000000000000000000000000000000000000000000000087924eb53827cfa47c",
                    "decodedMethod": {
                        "callParams": [
                            {
                                "name": "recipient",
                                "type": "address",
                                "value": "0x81fbbc40cf075fd7de6afce1bc72eda1bb0e13aa"
                            },
                            {
                                "decimalAvailable": true,
                                "name": "amount",
                                "type": "uint256",
                                "value": "2,500,853,012,981,301,093,500"
                            }
                        ],
                        "constructorArguments": "",
                        "name": "transfer",
                        "returnParams": [
                            {
                                "name": "",
                                "type": "bool",
                                "value": true
                            }
                        ],
                        "signature": "transfer(address,uint256)"
                    },
                    "errorInfo": "",
                    "fromAddress": "0xa69babef1ca67a37ffaf7a485dfff3382056e78c",
                    "gasUsed": 9000,
                    "id": 7,
                    "methodDecoded": true,
                    "operation": "CALL",
                    "output": "0x0000000000000000000000000000000000000000000000000000000000000001",
                    "revert": false,
                    "revertMessage": "",
                    "selector": "0xa9059cbb",
                    "status": true,
                    "value": "0"
                },
                "nodeType": 0
            },
            "8": {
                "event": {
                    "contract": "0xf57e7e7c23978c3caec3c3548e3d615c346e79ff",
                    "decodedLog": {
                        "name": "Transfer",
                        "params": [
                            {
                                "name": "from",
                                "type": "address",
                                "value": "0xa69babef1ca67a37ffaf7a485dfff3382056e78c"
                            },
                            {
                                "name": "to",
                                "type": "address",
                                "value": "0x81fbbc40cf075fd7de6afce1bc72eda1bb0e13aa"
                            },
                            {
                                "decimalAvailable": true,
                                "name": "value",
                                "type": "uint256",
                                "value": "2,500,853,012,981,301,093,500"
                            }
                        ],
                        "signature": "Transfer(address,address,uint256)"
                    },
                    "id": 8,
                    "logData": "0x000000000000000000000000000000000000000000000087924eb53827cfa47c",
                    "logDecoded": true,
                    "operation": "EVENT",
                    "revert": false,
                    "status": true,
                    "topics": [
                        "0xddf252ad1be2c89b69c2b068fc378daa952ba7f163c4a11628f55a4df523b3ef",
                        "0x000000000000000000000000a69babef1ca67a37ffaf7a485dfff3382056e78c",
                        "0x00000000000000000000000081fbbc40cf075fd7de6afce1bc72eda1bb0e13aa"
                    ]
                },
                "nodeType": 1
            },
            "9": {
                "invocation": {
                    "address": "0xf57e7e7c23978c3caec3c3548e3d615c346e79ff",
                    "callData": "0x00000000000000000000000081fbbc40cf075fd7de6afce1bc72eda1bb0e13aa",
                    "decodedMethod": {
                        "callParams": [
                            {
                                "name": "account",
                                "type": "address",
                                "value": "0x81fbbc40cf075fd7de6afce1bc72eda1bb0e13aa"
                            }
                        ],
                        "constructorArguments": "",
                        "name": "balanceOf",
                        "returnParams": [
                            {
                                "decimalAvailable": true,
                                "name": "",
                                "type": "uint256",
                                "value": "959,197,406,195,298,102,745,761"
                            }
                        ],
                        "signature": "balanceOf(address)"
                    },
                    "errorInfo": "",
                    "fromAddress": "0x81fbbc40cf075fd7de6afce1bc72eda1bb0e13aa",
                    "gasUsed": 640,
                    "id": 9,
                    "methodDecoded": true,
                    "operation": "STATICCALL",
                    "output": "0x00000000000000000000000000000000000000000000cb1e3211a8f57e2d1aa1",
                    "revert": false,
                    "revertMessage": "",
                    "selector": "0x70a08231",
                    "status": true,
                    "value": "0"
                },
                "nodeType": 0
            }
        },
        "gasFlame": [
            {
                "children": [
                    {
                        "children": [
                            {
                                "children": [],
                                "depth": 0,
                                "name": "Initial Gas",
                                "value": 51784
                            },
                            {
                                "children": [
                                    {
                                        "children": [
                                            {
                                                "children": [
                                                    {
                                                        "children": [],
                                                        "depth": 3,
                                                        "name": "transfer",
                                                        "value": 8862
                                                    },
                                                    {
                                                        "children": [],
                                                        "depth": 3,
                                                        "name": "balanceOf",
                                                        "value": 640
                                                    },
                                                    {
                                                        "children": [
                                                            {
                                                                "children": [],
                                                                "depth": 4,
                                                                "name": "transfer",
                                                                "value": 9000
                                                            }
                                                        ],
                                                        "depth": 3,
                                                        "name": "uniswapV3SwapCallback",
                                                        "value": 9620
                                                    },
                                                    {
                                                        "children": [],
                                                        "depth": 3,
                                                        "name": "balanceOf",
                                                        "value": 640
                                                    }
                                                ],
                                                "depth": 2,
                                                "name": "swap",
                                                "value": 47778
                                            },
                                            {
                                                "children": [],
                                                "depth": 2,
                                                "name": "fallback",
                                                "value": 0
                                            }
                                        ],
                                        "depth": 1,
                                        "name": "0x2f1c6b50",
                                        "value": 55987
                                    }
                                ],
                                "depth": 0,
                                "name": "Executed Gas",
                                "value": 57777
                            }
                        ],
                        "depth": -1,
                        "name": "Actual Gas Used",
                        "value": 109561
                    },
                    {
                        "children": [],
                        "depth": -1,
                        "name": "Refunded Gas",
                        "value": 0
                    }
                ],
                "depth": -2,
                "name": "Total Gas",
                "value": 109561
            }
        ],
        "isConfirmed": true,
        "mainTrace": [
            {
                "children": [
                    {
                        "children": [
                            {
                                "children": [
                                    {
                                        "children": [
                                            {
                                                "children": [
                                                    {
                                                        "children": [],
                                                        "depth": 4,
                                                        "id": 4,
                                                        "order": 4
                                                    }
                                                ],
                                                "depth": 3,
                                                "id": 3,
                                                "order": 3
                                            },
                                            {
                                                "children": [],
                                                "depth": 3,
                                                "id": 5,
                                                "order": 5
                                            },
                                            {
                                                "children": [
                                                    {
                                                        "children": [
                                                            {
                                                                "children": [],
                                                                "depth": 5,
                                                                "id": 8,
                                                                "order": 8
                                                            }
                                                        ],
                                                        "depth": 4,
                                                        "id": 7,
                                                        "order": 7
                                                    }
                                                ],
                                                "depth": 3,
                                                "id": 6,
                                                "order": 6
                                            },
                                            {
                                                "children": [],
                                                "depth": 3,
                                                "id": 9,
                                                "order": 9
                                            },
                                            {
                                                "children": [],
                                                "depth": 3,
                                                "id": 10,
                                                "order": 10
                                            }
                                        ],
                                        "depth": 2,
                                        "id": 2,
                                        "order": 2
                                    },
                                    {
                                        "children": [],
                                        "depth": 2,
                                        "id": 11,
                                        "order": 11
                                    }
                                ],
                                "depth": 1,
                                "id": 1,
                                "order": 1
                            }
                        ],
                        "depth": 0,
                        "id": 0,
                        "order": 0
                    }
                ],
                "depth": -1,
                "id": -1,
                "order": -1
            }
        ],
        "mainTraceNodeCount": 12,
        "parentIdMap": {
            "0": -1,
            "1": 0,
            "10": 2,
            "11": 1,
            "2": 1,
            "3": 2,
            "4": 3,
            "5": 2,
            "6": 2,
            "7": 6,
            "8": 7,
            "9": 2
        },
        "tidyTrace": [
            {
                "children": [
                    {
                        "children": [
                            {
                                "children": [
                                    {
                                        "children": [
                                            {
                                                "children": [
                                                    {
                                                        "children": [],
                                                        "depth": 4,
                                                        "id": 4,
                                                        "order": 4
                                                    }
                                                ],
                                                "depth": 3,
                                                "id": 3,
                                                "order": 3
                                            },
                                            {
                                                "children": [
                                                    {
                                                        "children": [
                                                            {
                                                                "children": [],
                                                                "depth": 5,
                                                                "id": 8,
                                                                "order": 8
                                                            }
                                                        ],
                                                        "depth": 4,
                                                        "id": 7,
                                                        "order": 7
                                                    }
                                                ],
                                                "depth": 3,
                                                "id": 6,
                                                "order": 6
                                            },
                                            {
                                                "children": [],
                                                "depth": 3,
                                                "id": 10,
                                                "order": 10
                                            }
                                        ],
                                        "depth": 2,
                                        "id": 2,
                                        "order": 2
                                    },
                                    {
                                        "children": [],
                                        "depth": 2,
                                        "id": 11,
                                        "order": 11
                                    }
                                ],
                                "depth": 1,
                                "id": 1,
                                "order": 1
                            }
                        ],
                        "depth": 0,
                        "id": 0,
                        "order": 0
                    }
                ],
                "depth": -1,
                "id": -1,
                "order": -1
            }
        ],
        "tidyTraceNodeCount": 10
    },
    "state_change": {
        "stateChanges": [
            {
                "address": "0x81fbbc40cf075fd7de6afce1bc72eda1bb0e13aa",
                "erc": "",
                "slots": [
                    {
                        "current": "0x00010000c800c800430130a400000000000000315d4ce28df4a8c670fe3f8b6a",
                        "key": "0x0000000000000000000000000000000000000000000000000000000000000000",
                        "prev": "0x00010000c800c8004201308a00000000000000314ca2ee3c43664c06ecbbae65"
                    },
                    {
                        "current": "0x010000000000000000000cae1c592d4bcec2feb84d00010e59e15c4464c60fdf",
                        "key": "0x000000000000000000000000000000000000000000000000000000000000004b",
                        "prev": "0x010000000000000000000cadb61aef1f3e4360110100010afe0a634064c33dcf"
                    },
                    {
                        "current": "0x0000000000000000000000000000000204cb9b1b03536083ec6a100f33cc5969",
                        "key": "0x0000000000000000000000000000000000000000000000000000000000000002",
                        "prev": "0x0000000000000000000000000000000204bec4fe85bec3845fd8aeb3fb8bd77d"
                    }
                ],
                "storageVariables": []
            },
            {
                "address": "0xc02aaa39b223fe8d0a0e5c4f27ead9083c756cc2",
                "erc": "ERC-20",
                "slots": [
                    {
                        "current": "0x00000000000000000000000000000000000000000000015df070fa3b1df0b44d",
                        "key": "0x75245230289a9f0bf73a6c59aef6651b98b3833a62a3c0bd9ab6b0dec8ed4d8f",
                        "prev": "0x00000000000000000000000000000000000000000000015de2391729071bd3de"
                    },
                    {
                        "current": "0x0000000000000000000000000000000000000000000000061fd16d60b1cdaf50",
                        "key": "0x9f1d5dea854e2c042bc278eb5a97bf6f2719b211c1573ff4a547184486fd6909",
                        "prev": "0x0000000000000000000000000000000000000000000000062e095072c8a28fbf"
                    }
                ],
                "storageVariables": [
                    {
                        "name": "balanceOf",
                        "type": "mapping(address => uint256)",
                        "value": {
                            "pairs": [
                                {
                                    "key": "0x81fbbc40cf075fd7de6afce1bc72eda1bb0e13aa",
                                    "value": {
                                        "current": "112973198389632937808",
                                        "prev": "113997735496714981311",
                                        "typeTag": 1
                                    }
                                },
                                {
                                    "key": "0xa69babef1ca67a37ffaf7a485dfff3382056e78c",
                                    "value": {
                                        "current": "6455239304622940140621",
                                        "prev": "6454214767515858097118",
                                        "typeTag": 1
                                    }
                                }
                            ],
                            "typeTag": 4
                        }
                    }
                ]
            },
            {
                "address": "0xf57e7e7c23978c3caec3c3548e3d615c346e79ff",
                "erc": "ERC-20",
                "slots": [
                    {
                        "current": "0x00000000000000000000000000000000000000000000130e50f773575f068ac0",
                        "key": "0x99713ceb4322a7b2d063a2b1e90a212070b8c507ea9c7afebed78f66997ae15e",
                        "prev": "0x000000000000000000000000000000000000000000001395e346288f86d62f3c"
                    },
                    {
                        "current": "0x00000000000000000000000000000000000000000000cb1e3211a8f57e2d1aa1",
                        "key": "0x8349b61bcc6f505571d304c175b667b043f17dc0ea1d9bb02b1088323ab2b40d",
                        "prev": "0x00000000000000000000000000000000000000000000ca969fc2f3bd565d7625"
                    }
                ],
                "storageVariables": [
                    {
                        "name": "_balances",
                        "type": "mapping(address => uint256)",
                        "value": {
                            "pairs": [
                                {
                                    "key": "0x81fbbc40cf075fd7de6afce1bc72eda1bb0e13aa",
                                    "value": {
                                        "current": "959197406195298102745761",
                                        "prev": "956696553182316801652261",
                                        "typeTag": 1
                                    }
                                },
                                {
                                    "key": "0xa69babef1ca67a37ffaf7a485dfff3382056e78c",
                                    "value": {
                                        "current": "89989051850216568163008",
                                        "prev": "92489904863197869256508",
                                        "typeTag": 1
                                    }
                                }
                            ],
                            "typeTag": 4
                        }
                    }
                ]
            }
        ]
    }
}