{
    "balance_change": {
        "balanceChanges": []
    },
    "profile": {
        "basic_info": {
            "baseFee": "16.681617087",
            "blockNumber": 16494863,
            "callData": "0xa22cb465000000000000000000000000b7bceb36c5f0f8ec1fb67aaeeed2d7252112ea210000000000000000000000000000000000000000000000000000000000000000",
            "debugEnable": true,
            "errorInfo": "",
            "eventCount": 1,
            "feeRecipient": "0x690b9a9e9aa1c9db991c7721a92d351db4fac990",
            "formatValue": "0",
            "gasLimit": 29613,
            "gasPrice": "18.181617087",
            "gasUsed": 24813,
            "intTxnCount": 0,
            "internalRevert": false,
            "internalRevertMessage": "",
            "isContractCreation": false,
            "isFlashloan": false,
            "maxFee": "23.422816361",
            "nonce": 645,
            "overwritedBlockNumber": -1,
            "priorityFee": "1.5",
            "receiver": "0x5ab21ec0bfa0b29545230395e3adaca7d552c948",
            "revertMessage": "",
            "sender": "0x7c3018a930e2d0d060069ac1ec38dbf9619e20be",
            "simulationEnable": true,
            "sourceTxnHash": "0x6b1b0a05b661c6a8e2e63a1af348ba44f3e5e8be38f4d677b382deff58e9e585",
            "status": true,
            "timestamp": "2023-01-27T01:25:47Z",
            "transactionFee": "0.000451140464779731",
            "txnHash": "0x6b1b0a05b661c6a8e2e63a1af348ba44f3e5e8be38f4d677b382deff58e9e585",
            "txnIndex": 53,
            "type": 2,
            "value": "0"
        },
        "fund_flow": [],
        "token_infos": [
            {
                "address": "0xc02aaa39b223fe8d0a0e5c4f27ead9083c756cc2",
                "decimals": 18
            },
            {
                "address": "0xeeeeeeeeeeeeeeeeeeeeeeeeeeeeeeeeeeeeeeee",
                "decimals": 18
            }
        ]
    },
    "address_label": {
        "labels": [
            {
                "address": "0x5ab21ec0bfa0b29545230395e3adaca7d552c948",
                "label": "PUNKS Comic: COMIC Token"
            },
            {
                "address": "0x0000000000000000000000000000000000000001",
                "label": "Precompiled"
            },
            {
                "address": "0x0000000000000000000000000000000000000002",
                "label": "Precompiled"
            },
            {
                "address": "0x0000000000000000000000000000000000000003",
                "label": "Precompiled"
            },
            {
                "address": "0x0000000000000000000000000000000000000004",
                "label": "Precompiled"
            },
            {
                "address": "0xeeeeeeeeeeeeeeeeeeeeeeeeeeeeeeeeeeeeeeee",
                "label": "Ether"
            },
            {
                "address": "0x7c3018a930e2d0d060069ac1ec38dbf9619e20be",
                "label": "Mark Constantine Inducil"
            },
            {
                "address": "0xb7bceb36c5f0f8ec1fb67aaeeed2d7252112ea21",
                "label": "ComicStaking"
            }
        ]
    },
    "trace": {
        "accountLabels": null,
        "dataMap": {
            "-1": {
                "invocation": {
                    "address": "0x7c3018a930e2d0d060069ac1ec38dbf9619e20be",
                    "callData": "",
                    "decodedMethod": null,
                    "errorInfo": "",
                    "fromAddress": "",
                    "gasUsed": 0,
                    "id": -1,
                    "methodDecoded": false,
                    "operation": "",
                    "output": "",
                    "revert": false,
                    "revertMessage": "",
                    "selector": "",
                    "status": false,
                    "value": ""
                },
                "nodeType": 0
            },
            "0": {
                "invocation": {
                    "address": "0x5ab21ec0bfa0b29545230395e3adaca7d552c948",
                    "callData": "0x000000000000000000000000b7bceb36c5f0f8ec1fb67aaeeed2d7252112ea210000000000000000000000000000000000000000000000000000000000000000",
                    "decodedMethod": {
                        "callParams": [
                            {
                                "name": "operator",
                                "type": "address",
                                "value": "0xb7bceb36c5f0f8ec1fb67aaeeed2d7252112ea21"
                            },
                            {
                                "name": "approved",
                                "type": "bool",
                                "value": false
                            }
                        ],
                        "constructorArguments": "",
                        "name": "setApprovalForAll",
                        "returnParams": [],
                        "signature": "setApprovalForAll(address,bool)"
                    },
                    "errorInfo": "",
                    "fromAddress": "0x7c3018a930e2d0d060069ac1ec38dbf9619e20be",
                    "gasUsed": 24813,
                    "id": 0,
                    "methodDecoded": true,
                    "operation": "CALL",
                    "output": "",
                    "revert": false,
                    "revertMessage": "",
                    "selector": "0xa22cb465",
                    "status": true,
                    "value": "0"
                },
                "nodeType": 0
            },
            "1": {
                "event": {
                    "contract": "0x5ab21ec0bfa0b29545230395e3adaca7d552c948",
                    "decodedLog": {
                        "name": "ApprovalForAll",
                        "params": [
                            {
                                "name": "owner",
                                "type": "address",
                                "value": "0x7c3018a930e2d0d060069ac1ec38dbf9619e20be"
                            },
                            {
                                "name": "operator",
                                "type": "address",
                                "value": "0xb7bceb36c5f0f8ec1fb67aaeeed2d7252112ea21"
                            },
                            {
                                "name": "approved",
                                "type": "bool",
                                "value": false
                            }
                        ],
                        "signature": "ApprovalForAll(address,address,bool)"
                    },
                    "id": 1,
                    "logData": "0x0000000000000000000000000000000000000000000000000000000000000000",
                    "logDecoded": true,
                    "operation": "EVENT",
                    "revert": false,
                    "status": true,
                    "topics": [
                        "0x17307eab39ab6107e8899845ad3d59bd9653f200f220920489ca2b5937696c31",
                        "0x0000000000000000000000007c3018a930e2d0d060069ac1ec38dbf9619e20be",
                        "0x000000000000000000000000b7bceb36c5f0f8ec1fb67aaeeed2d7252112ea21"
                    ]
                },
                "nodeType": 1
            }
        },
        "gasFlame": [
            {
                "children": [
                    {
                        "children": [
                            {
                                "children": [],
                                "depth": 0,
                                "name": "Initial Gas",
                                "value": 21560
                            },
                            {
                                "children": [],
                                "depth": 0,
                                "name": "Executed Gas",
                                "value": 8053
                            }
                        ],
                        "depth": -1,
                        "name": "Actual Gas Used",
                        "value": 24813
                    },
                    {
                        "children": [],
                        "depth": -1,
                        "name": "Refunded Gas",
                        "value": 4800
                    }
                ],
                "depth": -2,
                "name": "Total Gas",
                "value": 29613
            }
        ],
        "isConfirmed": true,
        "mainTrace": [
            {
                "children": [
                    {
                        "children": [
                            {
                                "children": [],
                                "depth": 1,
                                "id": 1,
                                "order": 1
                            }
                        ],
                        "depth": 0,
                        "id": 0,
                        "order": 0
                    }
                ],
                "depth": -1,
                "id": -1,
                "order": -1
            }
        ],
        "mainTraceNodeCount": 2,
        "parentIdMap": {
            "0": -1,
            "1": 0
        },
        "tidyTrace": [
            {
                "children": [
                    {
                        "children": [
                            {
                                "children": [],
                                "depth": 1,
                                "id": 1,
                                "order": 1
                            }
                        ],
                        "depth": 0,
                        "id": 0,
                        "order": 0
                    }
                ],
                "depth": -1,
                "id": -1,
                "order": -1
            }
        ],
        "tidyTraceNodeCount": 2
    },
    "state_change": {
        "stateChanges": [
            {
                "address": "0x5ab21ec0bfa0b29545230395e3adaca7d552c948",
                "erc": "ERC-721",
                "slots": [
                    {
                        "current": "0x0000000000000000000000000000000000000000000000000000000000000000",
                        "key": "0x38c03336c42acac4e6054dd4dd07fd4fa3ab2ad659e79bbe724bfcad02f2a8c0",
                        "prev": "0x0000000000000000000000000000000000000000000000000000000000000001"
                    }
                ],
                "storageVariables": [
                    {
                        "name": "_operatorApprovals",
                        "type": "mapping(address => mapping(address => bool))",
                        "value": {
                            "pairs": [
                                {
                                    "key": "0x7c3018a930e2d0d060069ac1ec38dbf9619e20be",
                                    "value": {
                                        "pairs": [
                                            {
                                                "key": "0xb7bceb36c5f0f8ec1fb67aaeeed2d7252112ea21",
                                                "value": {
                                                    "current": "false",
                                                    "prev": "true",
                                                    "typeTag": 1
                                                }
                                            }
                                        ],
                                        "typeTag": 4
                                    }
                                }
                            ],
                            "typeTag": 4
                        }
                    }
                ]
            }
        ]
    }
}