{
    "balance_change": {
        "balanceChanges": [
            {
                "account": "0x19cf388796c31fa7a583270d82659ecd2b4fd490",
                "assets": [
                    {
                        "address": "0x6b3595068778dd592e39a122f4f5a5cf09c90fe2",
                        "amount": "37.780555292974555136",
                        "iconUrl": "https://assets.blocksec.com/icon/bb0cf8c867431b5b96b5fc72143d2d0ff0fb06e17664ccb128080b416f067159.png",
                        "isERC1155": false,
                        "isERC721": false,
                        "sign": true,
                        "value": "270.0018881"
                    }
                ]
            },
            {
                "account": "0xcbe6b83e77cdc011cc18f6f0df8444e5783ed982",
                "assets": [
                    {
                        "address": "0x6b3595068778dd592e39a122f4f5a5cf09c90fe2",
                        "amount": "37.780555292974555136",
                        "iconUrl": "https://assets.blocksec.com/icon/bb0cf8c867431b5b96b5fc72143d2d0ff0fb06e17664ccb128080b416f067159.png",
                        "isERC1155": false,
                        "isERC721": false,
                        "sign": false,
                        "value": "270.0018881"
                    }
                ]
            }
        ]
    },
    "profile": {
        "basic_info": {
            "baseFee": "",
            "blockNumber": 12844919,
            "callData": "0x2e7ba6ef000000000000000000000000000000000000000000000000000000000000046800000000000000000000000019cf388796c31fa7a583270d82659ecd2b4fd4900000000000000000000000000000000000000000000000020c4f7ede76c0a0000000000000000000000000000000000000000000000000000000000000000080000000000000000000000000000000000000000000000000000000000000000deb920f3b97563e8dc833934c3c5cb3ff984a21e20521825b680fc502b437d4fd3dc2d4dfb467a308f1c89003f1d28e0170f328553930c8a799760b94ba67679c7fd96022a6004b57d4ba716e953a5aa5ca1a13b95908121c38f8fc3c83e82b975931839fdb19814ccd682c1b602e36986558a466e69ed026fd80ed0eb0de62811711cd59f1c9975c8ddfee9ddbe5e9d1a01912f8690f2f2354570d4e828b7a2b3260bac1a013c5f3631a3406931571505e4a6bc91670bc7275a0852a6593552c1ed9246a04d61d400df26aff58180fa196e4a47cfa35bfeeb8d372ea14eb290dca48a9dc12087c631b085373f429d77ee57ec076b66078871e9a0b065c074baef678d35b78e8d8213b3c94e38f8bd0506768496004e802924848a21ef61ffe136867c8db214cb82a898d17d1ff66480c697f67a702c966e3089f17e060affb4e28236c6d1983081c4e16dce3bf7a40f6418642318ee093e7db70d85a2b5fe5bd7ca8e19d7224c0ec49762de90ee9ff3e70b91a0b1f721ba778eab8515525de8bfc7dc122bb79d8ab3a130c7ae54f7cf665443f87196928b83a1939f6132e5492",
            "debugEnable": true,
            "errorInfo": "",
            "eventCount": 2,
            "feeRecipient": "0x5a0b54d5dc17e0aadc383d2db43b0a0d3e029c4c",
            "formatValue": "0",
            "gasLimit": 94720,
            "gasPrice": "21",
            "gasUsed": 78934,
            "intTxnCount": 1,
            "internalRevert": false,
            "internalRevertMessage": "",
            "isContractCreation": false,
            "isFlashloan": false,
            "maxFee": "",
            "nonce": 1091,
            "overwritedBlockNumber": -1,
            "priorityFee": "",
            "receiver": "0xcbe6b83e77cdc011cc18f6f0df8444e5783ed982",
            "revertMessage": "",
            "sender": "0x19cf388796c31fa7a583270d82659ecd2b4fd490",
            "simulationEnable": true,
            "sourceTxnHash": "0x6b3f560c2517fff655d25078d3e634a1b7ed20142b31e3926d3a43428de68726",
            "status": true,
            "timestamp": "2021-07-17T15:02:18Z",
            "transactionFee": "0.001657614",
            "txnHash": "0x6b3f560c2517fff655d25078d3e634a1b7ed20142b31e3926d3a43428de68726",
            "txnIndex": 124,
            "type": 0,
            "value": "0"
        },
        "fund_flow": [
            {
                "amount": "37.780555292974555136",
                "from": "0xcbe6b83e77cdc011cc18f6f0df8444e5783ed982",
                "id": 1,
                "isERC1155": false,
                "isERC721": false,
                "isReverted": false,
                "order": 1,
                "to": "0x19cf388796c31fa7a583270d82659ecd2b4fd490",
                "token": "0x6b3595068778dd592e39a122f4f5a5cf09c90fe2"
            }
        ],
        "token_infos": [
            {
                "address": "0xeeeeeeeeeeeeeeeeeeeeeeeeeeeeeeeeeeeeeeee",
                "decimals": 18
            },
            {
                "address": "0x6b3595068778dd592e39a122f4f5a5cf09c90fe2",
                "decimals": 18
            },
            {
                "address": "0xc02aaa39b223fe8d0a0e5c4f27ead9083c756cc2",
                "decimals": 18
            }
        ]
    },
    "address_label": {
        "labels": [
            {
                "address": "0xcbe6b83e77cdc011cc18f6f0df8444e5783ed982",
                "label": "SushiSwap: Merkle Distributor"
            },
            {
                "address": "0x0000000000000000000000000000000000000001",
                "label": "Precompiled"
            },
            {
                "address": "0x0000000000000000000000000000000000000002",
                "label": "Precompiled"
            },
            {
                "address": "0x0000000000000000000000000000000000000003",
                "label": "Precompiled"
            },
            {
                "address": "0x0000000000000000000000000000000000000004",
                "label": "Precompiled"
            },
            {
                "address": "0xeeeeeeeeeeeeeeeeeeeeeeeeeeeeeeeeeeeeeeee",
                "label": "Ether"
            },
            {
                "address": "0x6b3595068778dd592e39a122f4f5a5cf09c90fe2",
                "label": "SushiSwap: SUSHI Token"
            }
        ]
    },
    "trace": {
        "accountLabels": null,
        "dataMap": {
            "-1": {
                "invocation": {
                    "address": "0x19cf388796c31fa7a583270d82659ecd2b4fd490",
                    "callData": "",
                    "decodedMethod": null,
                    "errorInfo": "",
                    "fromAddress": "",
                    "gasUsed": 0,
                    "id": -1,
                    "methodDecoded": false,
                    "operation": "",
                    "output": "",
                    "revert": false,
                    "revertMessage": "",
                    "selector": "",
                    "status": false,
                    "value": ""
                },
                "nodeType": 0
            },
            "0": {
                "invocation": {
                    "address": "0xcbe6b83e77cdc011cc18f6f0df8444e5783ed982",
                    "callData": "0x000000000000000000000000000000000000000000000000000000000000046800000000000000000000000019cf388796c31fa7a583270d82659ecd2b4fd4900000000000000000000000000000000000000000000000020c4f7ede76c0a0000000000000000000000000000000000000000000000000000000000000000080000000000000000000000000000000000000000000000000000000000000000deb920f3b97563e8dc833934c3c5cb3ff984a21e20521825b680fc502b437d4fd3dc2d4dfb467a308f1c89003f1d28e0170f328553930c8a799760b94ba67679c7fd96022a6004b57d4ba716e953a5aa5ca1a13b95908121c38f8fc3c83e82b975931839fdb19814ccd682c1b602e36986558a466e69ed026fd80ed0eb0de62811711cd59f1c9975c8ddfee9ddbe5e9d1a01912f8690f2f2354570d4e828b7a2b3260bac1a013c5f3631a3406931571505e4a6bc91670bc7275a0852a6593552c1ed9246a04d61d400df26aff58180fa196e4a47cfa35bfeeb8d372ea14eb290dca48a9dc12087c631b085373f429d77ee57ec076b66078871e9a0b065c074baef678d35b78e8d8213b3c94e38f8bd0506768496004e802924848a21ef61ffe136867c8db214cb82a898d17d1ff66480c697f67a702c966e3089f17e060affb4e28236c6d1983081c4e16dce3bf7a40f6418642318ee093e7db70d85a2b5fe5bd7ca8e19d7224c0ec49762de90ee9ff3e70b91a0b1f721ba778eab8515525de8bfc7dc122bb79d8ab3a130c7ae54f7cf665443f87196928b83a1939f6132e5492",
                    "decodedMethod": {
                        "callParams": [
                            {
                                "name": "index",
                                "type": "uint256",
                                "value": "1,128"
                            },
                            {
                                "name": "account",
                                "type": "address",
                                "value": "0x19cf388796c31fa7a583270d82659ecd2b4fd490"
                            },
                            {
                                "name": "amount",
                                "type": "uint256",
                                "value": "37,780,555,292,974,555,136"
                            },
                            {
                                "name": "merkleProof",
                                "type": "bytes32[]",
                                "value": [
                                    "0xeb920f3b97563e8dc833934c3c5cb3ff984a21e20521825b680fc502b437d4fd",
                                    "0x3dc2d4dfb467a308f1c89003f1d28e0170f328553930c8a799760b94ba67679c",
                                    "0x7fd96022a6004b57d4ba716e953a5aa5ca1a13b95908121c38f8fc3c83e82b97",
                                    "0x5931839fdb19814ccd682c1b602e36986558a466e69ed026fd80ed0eb0de6281",
                                    "0x1711cd59f1c9975c8ddfee9ddbe5e9d1a01912f8690f2f2354570d4e828b7a2b",
                                    "0x3260bac1a013c5f3631a3406931571505e4a6bc91670bc7275a0852a6593552c",
                                    "0x1ed9246a04d61d400df26aff58180fa196e4a47cfa35bfeeb8d372ea14eb290d",
                                    "0xca48a9dc12087c631b085373f429d77ee57ec076b66078871e9a0b065c074bae",
                                    "0xf678d35b78e8d8213b3c94e38f8bd0506768496004e802924848a21ef61ffe13",
                                    "0x6867c8db214cb82a898d17d1ff66480c697f67a702c966e3089f17e060affb4e",
                                    "0x28236c6d1983081c4e16dce3bf7a40f6418642318ee093e7db70d85a2b5fe5bd",
                                    "0x7ca8e19d7224c0ec49762de90ee9ff3e70b91a0b1f721ba778eab8515525de8b",
                                    "0xfc7dc122bb79d8ab3a130c7ae54f7cf665443f87196928b83a1939f6132e5492"
                                ]
                            }
                        ],
                        "constructorArguments": "",
                        "name": "claim",
                        "returnParams": [],
                        "signature": "claim(uint256,address,uint256,bytes32[])"
                    },
                    "errorInfo": "",
                    "fromAddress": "0x19cf388796c31fa7a583270d82659ecd2b4fd490",
                    "gasUsed": 78934,
                    "id": 0,
                    "methodDecoded": true,
                    "operation": "CALL",
                    "output": "",
                    "revert": false,
                    "revertMessage": "",
                    "selector": "0x2e7ba6ef",
                    "status": true,
                    "value": "0"
                },
                "nodeType": 0
            },
            "1": {
                "invocation": {
                    "address": "0x6b3595068778dd592e39a122f4f5a5cf09c90fe2",
                    "callData": "0x00000000000000000000000019cf388796c31fa7a583270d82659ecd2b4fd4900000000000000000000000000000000000000000000000020c4f7ede76c0a000",
                    "decodedMethod": {
                        "callParams": [
                            {
                                "name": "recipient",
                                "type": "address",
                                "value": "0x19cf388796c31fa7a583270d82659ecd2b4fd490"
                            },
                            {
                                "decimalAvailable": true,
                                "name": "amount",
                                "type": "uint256",
                                "value": "37,780,555,292,974,555,136"
                            }
                        ],
                        "constructorArguments": "",
                        "name": "transfer",
                        "returnParams": [
                            {
                                "name": "",
                                "type": "bool",
                                "value": true
                            }
                        ],
                        "signature": "transfer(address,uint256)"
                    },
                    "errorInfo": "",
                    "fromAddress": "0xcbe6b83e77cdc011cc18f6f0df8444e5783ed982",
                    "gasUsed": 30025,
                    "id": 1,
                    "methodDecoded": true,
                    "operation": "CALL",
                    "output": "0x0000000000000000000000000000000000000000000000000000000000000001",
                    "revert": false,
                    "revertMessage": "",
                    "selector": "0xa9059cbb",
                    "status": true,
                    "value": "0"
                },
                "nodeType": 0
            },
            "2": {
                "event": {
                    "contract": "0x6b3595068778dd592e39a122f4f5a5cf09c90fe2",
                    "decodedLog": {
                        "name": "Transfer",
                        "params": [
                            {
                                "name": "from",
                                "type": "address",
                                "value": "0xcbe6b83e77cdc011cc18f6f0df8444e5783ed982"
                            },
                            {
                                "name": "to",
                                "type": "address",
                                "value": "0x19cf388796c31fa7a583270d82659ecd2b4fd490"
                            },
                            {
                                "decimalAvailable": true,
                                "name": "value",
                                "type": "uint256",
                                "value": "37,780,555,292,974,555,136"
                            }
                        ],
                        "signature": "Transfer(address,address,uint256)"
                    },
                    "id": 2,
                    "logData": "0x0000000000000000000000000000000000000000000000020c4f7ede76c0a000",
                    "logDecoded": true,
                    "operation": "EVENT",
                    "revert": false,
                    "status": true,
                    "topics": [
                        "0xddf252ad1be2c89b69c2b068fc378daa952ba7f163c4a11628f55a4df523b3ef",
                        "0x000000000000000000000000cbe6b83e77cdc011cc18f6f0df8444e5783ed982",
                        "0x00000000000000000000000019cf388796c31fa7a583270d82659ecd2b4fd490"
                    ]
                },
                "nodeType": 1
            },
            "3": {
                "event": {
                    "contract": "0xcbe6b83e77cdc011cc18f6f0df8444e5783ed982",
                    "decodedLog": {
                        "name": "Claimed",
                        "params": [
                            {
                                "name": "account",
                                "type": "address",
                                "value": "0x19cf388796c31fa7a583270d82659ecd2b4fd490"
                            },
                            {
                                "name": "week",
                                "type": "uint256",
                                "value": "14"
                            },
                            {
                                "name": "index",
                                "type": "uint256",
                                "value": "1,128"
                            },
                            {
                                "name": "amount",
                                "type": "uint256",
                                "value": "37,780,555,292,974,555,136"
                            }
                        ],
                        "signature": "Claimed(uint256,uint256,address,uint256)"
                    },
                    "id": 3,
                    "logData": "0x00000000000000000000000000000000000000000000000000000000000004680000000000000000000000000000000000000000000000020c4f7ede76c0a000",
                    "logDecoded": true,
                    "operation": "EVENT",
                    "revert": false,
                    "status": true,
                    "topics": [
                        "0xb94bf7f9302edf52a596286915a69b4b0685574cffdedd0712e3c62f2550f0ba",
                        "0x00000000000000000000000019cf388796c31fa7a583270d82659ecd2b4fd490",
                        "0x000000000000000000000000000000000000000000000000000000000000000e"
                    ]
                },
                "nodeType": 1
            }
        },
        "gasFlame": [
            {
                "children": [
                    {
                        "children": [
                            {
                                "children": [],
                                "depth": 0,
                                "name": "Initial Gas",
                                "value": 28732
                            },
                            {
                                "children": [
                                    {
                                        "children": [],
                                        "depth": 1,
                                        "name": "transfer",
                                        "value": 30025
                                    }
                                ],
                                "depth": 0,
                                "name": "Executed Gas",
                                "value": 50202
                            }
                        ],
                        "depth": -1,
                        "name": "Actual Gas Used",
                        "value": 78934
                    },
                    {
                        "children": [],
                        "depth": -1,
                        "name": "Refunded Gas",
                        "value": 0
                    }
                ],
                "depth": -2,
                "name": "Total Gas",
                "value": 78934
            }
        ],
        "isConfirmed": true,
        "mainTrace": [
            {
                "children": [
                    {
                        "children": [
                            {
                                "children": [
                                    {
                                        "children": [],
                                        "depth": 2,
                                        "id": 2,
                                        "order": 2
                                    }
                                ],
                                "depth": 1,
                                "id": 1,
                                "order": 1
                            },
                            {
                                "children": [],
                                "depth": 1,
                                "id": 3,
                                "order": 3
                            }
                        ],
                        "depth": 0,
                        "id": 0,
                        "order": 0
                    }
                ],
                "depth": -1,
                "id": -1,
                "order": -1
            }
        ],
        "mainTraceNodeCount": 4,
        "parentIdMap": {
            "0": -1,
            "1": 0,
            "2": 1,
            "3": 0
        },
        "tidyTrace": [
            {
                "children": [
                    {
                        "children": [
                            {
                                "children": [
                                    {
                                        "children": [],
                                        "depth": 2,
                                        "id": 2,
                                        "order": 2
                                    }
                                ],
                                "depth": 1,
                                "id": 1,
                                "order": 1
                            },
                            {
                                "children": [],
                                "depth": 1,
                                "id": 3,
                                "order": 3
                            }
                        ],
                        "depth": 0,
                        "id": 0,
                        "order": 0
                    }
                ],
                "depth": -1,
                "id": -1,
                "order": -1
            }
        ],
        "tidyTraceNodeCount": 4
    },
    "state_change": {
        "stateChanges": [
            {
                "address": "0x6b3595068778dd592e39a122f4f5a5cf09c90fe2",
                "erc": "ERC-20",
                "slots": [
                    {
                        "current": "0x000000000000000000000000000000000000000000087b92ecb6d08d98336398",
                        "key": "0xf07ce58461fb3ab6a043897730a983b1c6f95e07baf794bebc95716291e1441a",
                        "prev": "0x000000000000000000000000000000000000000000087b94f9064f6c0ef40398"
                    },
                    {
                        "current": "0x0000000000000000000000000000000000000000000000020c4f7ede76c0a000",
                        "key": "0x087eb20094e29f69be478309066042b0e06703197ca8235c0014fe63ba6d8113",
                        "prev": "0x0000000000000000000000000000000000000000000000000000000000000000"
                    }
                ],
                "storageVariables": [
                    {
                        "name": "_balances",
                        "type": "mapping(address => uint256)",
                        "value": {
                            "pairs": [
                                {
                                    "key": "0x19cf388796c31fa7a583270d82659ecd2b4fd490",
                                    "value": {
                                        "current": "37780555292974555136",
                                        "prev": "0",
                                        "typeTag": 1
                                    }
                                },
                                {
                                    "key": "0xcbe6b83e77cdc011cc18f6f0df8444e5783ed982",
                                    "value": {
                                        "current": "10254967915994706628273048",
                                        "prev": "10255005696549999602828184",
                                        "typeTag": 1
                                    }
                                }
                            ],
                            "typeTag": 4
                        }
                    }
                ]
            },
            {
                "address": "0xcbe6b83e77cdc011cc18f6f0df8444e5783ed982",
                "erc": "",
                "slots": [
                    {
                        "current": "0x0080000000020000000000000000000000000100020000000020000000800000",
                        "key": "0xb48e03911c6ca0f62c7ff402b7fdfdbd45323e878e9bc50f31da17125674a094",
                        "prev": "0x0080000000020000000000000000000000000000020000000020000000800000"
                    }
                ],
                "storageVariables": [
                    {
                        "name": "claimedBitMap",
                        "type": "mapping(uint256 => mapping(uint256 => uint256))",
                        "value": {
                            "pairs": [
                                {
                                    "key": "14",
                                    "value": {
                                        "pairs": [
                                            {
                                                "key": "4",
                                                "value": {
                                                    "current": "226156424292455946465322683116171054617196634335599168243704504981093613568",
                                                    "prev": "226156424292455946465322683116171054617196614053189564592034081033842327552",
                                                    "typeTag": 1
                                                }
                                            }
                                        ],
                                        "typeTag": 4
                                    }
                                }
                            ],
                            "typeTag": 4
                        }
                    }
                ]
            }
        ]
    }
}