{
    "balance_change": {
        "balanceChanges": []
    },
    "profile": {
        "basic_info": {
            "baseFee": "",
            "blockNumber": 12006123,
            "callData": "0x38ed1739000000000000000000000000000000000000000000000000000000003b9aca000000000000000000000000000000000000000000000000cd5fdd4aff0f7c837500000000000000000000000000000000000000000000000000000000000000a000000000000000000000000063d2c2ae3294b2288ad7bcd31addf49f25c1bcd1000000000000000000000000000000000000000000000000000000006047bba40000000000000000000000000000000000000000000000000000000000000003000000000000000000000000dac17f958d2ee523a2206206994597c13d831ec7000000000000000000000000c02aaa39b223fe8d0a0e5c4f27ead9083c756cc2000000000000000000000000f0939011a9bb95c3b791f0cb546377ed2693a574",
            "debugEnable": true,
            "errorInfo": "execution reverted",
            "eventCount": 0,
            "feeRecipient": "0x829bd824b016326a401d083b33d092293333a830",
            "formatValue": "0",
            "gasLimit": 214361,
            "gasPrice": "97.9",
            "gasUsed": 24014,
            "intTxnCount": 0,
            "internalRevert": false,
            "internalRevertMessage": "",
            "isContractCreation": false,
            "isFlashloan": false,
            "maxFee": "",
            "nonce": 19,
            "overwritedBlockNumber": -1,
            "priorityFee": "",
            "receiver": "0x7a250d5630b4cf539739df2c5dacb4c659f2488d",
            "revertMessage": "UniswapV2Router: EXPIRED",
            "sender": "0x63d2c2ae3294b2288ad7bcd31addf49f25c1bcd1",
            "simulationEnable": true,
            "sourceTxnHash": "0x6b7c2e47735ff2bfadba1074aff81622406c318663788c06039f3c6354650083",
            "status": false,
            "timestamp": "2021-03-09T19:12:26Z",
            "transactionFee": "0.0023509706",
            "txnHash": "0x6b7c2e47735ff2bfadba1074aff81622406c318663788c06039f3c6354650083",
            "txnIndex": 122,
            "type": 0,
            "value": "0"
        },
        "fund_flow": [],
        "token_infos": [
            {
                "address": "0xc02aaa39b223fe8d0a0e5c4f27ead9083c756cc2",
                "decimals": 18
            },
            {
                "address": "0xeeeeeeeeeeeeeeeeeeeeeeeeeeeeeeeeeeeeeeee",
                "decimals": 18
            }
        ]
    },
    "address_label": {
        "labels": [
            {
                "address": "0x0000000000000000000000000000000000000003",
                "label": "Precompiled"
            },
            {
                "address": "0x0000000000000000000000000000000000000004",
                "label": "Precompiled"
            },
            {
                "address": "0xeeeeeeeeeeeeeeeeeeeeeeeeeeeeeeeeeeeeeeee",
                "label": "Ether"
            },
            {
                "address": "0x7a250d5630b4cf539739df2c5dacb4c659f2488d",
                "label": "Uniswap V2: Router 2"
            },
            {
                "address": "0xdac17f958d2ee523a2206206994597c13d831ec7",
                "label": "Tether: USDT Stablecoin"
            },
            {
                "address": "0xf0939011a9bb95c3b791f0cb546377ed2693a574",
                "label": "Zero Exchange: ZERO Token"
            },
            {
                "address": "0x0000000000000000000000000000000000000001",
                "label": "Precompiled"
            },
            {
                "address": "0xc02aaa39b223fe8d0a0e5c4f27ead9083c756cc2",
                "label": "Wrapped Ether (WETH)"
            },
            {
                "address": "0x0000000000000000000000000000000000000002",
                "label": "Precompiled"
            }
        ]
    },
    "trace": {
        "accountLabels": null,
        "dataMap": {
            "-1": {
                "invocation": {
                    "address": "0x63d2c2ae3294b2288ad7bcd31addf49f25c1bcd1",
                    "callData": "",
                    "decodedMethod": null,
                    "errorInfo": "",
                    "fromAddress": "",
                    "gasUsed": 0,
                    "id": -1,
                    "methodDecoded": false,
                    "operation": "",
                    "output": "",
                    "revert": false,
                    "revertMessage": "",
                    "selector": "",
                    "status": false,
                    "value": ""
                },
                "nodeType": 0
            },
            "0": {
                "invocation": {
                    "address": "0x7a250d5630b4cf539739df2c5dacb4c659f2488d",
                    "callData": "0x000000000000000000000000000000000000000000000000000000003b9aca000000000000000000000000000000000000000000000000cd5fdd4aff0f7c837500000000000000000000000000000000000000000000000000000000000000a000000000000000000000000063d2c2ae3294b2288ad7bcd31addf49f25c1bcd1000000000000000000000000000000000000000000000000000000006047bba40000000000000000000000000000000000000000000000000000000000000003000000000000000000000000dac17f958d2ee523a2206206994597c13d831ec7000000000000000000000000c02aaa39b223fe8d0a0e5c4f27ead9083c756cc2000000000000000000000000f0939011a9bb95c3b791f0cb546377ed2693a574",
                    "decodedMethod": {
                        "callParams": [
                            {
                                "name": "amountIn",
                                "type": "uint256",
                                "value": "1,000,000,000"
                            },
                            {
                                "name": "amountOutMin",
                                "type": "uint256",
                                "value": "3,788,490,294,973,251,224,437"
                            },
                            {
                                "name": "path",
                                "type": "address[]",
                                "value": [
                                    "0xdac17f958d2ee523a2206206994597c13d831ec7",
                                    "0xc02aaa39b223fe8d0a0e5c4f27ead9083c756cc2",
                                    "0xf0939011a9bb95c3b791f0cb546377ed2693a574"
                                ]
                            },
                            {
                                "name": "to",
                                "type": "address",
                                "value": "0x63d2c2ae3294b2288ad7bcd31addf49f25c1bcd1"
                            },
                            {
                                "name": "deadline",
                                "type": "uint256",
                                "value": "1,615,313,828"
                            }
                        ],
                        "constructorArguments": "",
                        "name": "swapExactTokensForTokens",
                        "returnParams": [],
                        "signature": "swapExactTokensForTokens(uint256,uint256,address[],address,uint256)"
                    },
                    "errorInfo": "execution reverted",
                    "fromAddress": "0x63d2c2ae3294b2288ad7bcd31addf49f25c1bcd1",
                    "gasUsed": 24014,
                    "id": 0,
                    "methodDecoded": true,
                    "operation": "CALL",
                    "output": "0x08c379a000000000000000000000000000000000000000000000000000000000000000200000000000000000000000000000000000000000000000000000000000000018556e69737761705632526f757465723a20455850495245440000000000000000",
                    "revert": true,
                    "revertMessage": "UniswapV2Router: EXPIRED",
                    "selector": "0x38ed1739",
                    "status": false,
                    "value": "0"
                },
                "nodeType": 0
            }
        },
        "gasFlame": [
            {
                "children": [
                    {
                        "children": [
                            {
                                "children": [],
                                "depth": 0,
                                "name": "Initial Gas",
                                "value": 23392
                            },
                            {
                                "children": [],
                                "depth": 0,
                                "name": "Executed Gas",
                                "value": 622
                            }
                        ],
                        "depth": -1,
                        "name": "Actual Gas Used",
                        "value": 24014
                    },
                    {
                        "children": [],
                        "depth": -1,
                        "name": "Refunded Gas",
                        "value": 0
                    }
                ],
                "depth": -2,
                "name": "Total Gas",
                "value": 24014
            }
        ],
        "isConfirmed": true,
        "mainTrace": [
            {
                "children": [
                    {
                        "children": [],
                        "depth": 0,
                        "id": 0,
                        "order": 0
                    }
                ],
                "depth": -1,
                "id": -1,
                "order": -1
            }
        ],
        "mainTraceNodeCount": 1,
        "parentIdMap": {
            "0": -1
        },
        "tidyTrace": [
            {
                "children": [
                    {
                        "children": [],
                        "depth": 0,
                        "id": 0,
                        "order": 0
                    }
                ],
                "depth": -1,
                "id": -1,
                "order": -1
            }
        ],
        "tidyTraceNodeCount": 1
    },
    "state_change": {
        "stateChanges": []
    }
}