{
    "balance_change": {
        "balanceChanges": [
            {
                "account": "0x91f4df529151bf84b2f8b7bdeb8ad139f543ab6b",
                "assets": [
                    {
                        "address": "0xeeeeeeeeeeeeeeeeeeeeeeeeeeeeeeeeeeeeeeee",
                        "amount": "0.02062",
                        "iconUrl": "https://assets.blocksec.com/image/1663669189317-3.png",
                        "isERC1155": false,
                        "isERC721": false,
                        "sign": false,
                        "value": "32.16740619999999981"
                    },
                    {
                        "address": "0xca93c4cdfbea225fb32c828bb9a81f141d165f26",
                        "amount": "1",
                        "iconUrl": "",
                        "isERC1155": false,
                        "isERC721": true,
                        "sign": true,
                        "tokenID": "679",
                        "value": ""
                    },
                    {
                        "address": "0xca93c4cdfbea225fb32c828bb9a81f141d165f26",
                        "amount": "1",
                        "iconUrl": "",
                        "isERC1155": false,
                        "isERC721": true,
                        "sign": true,
                        "tokenID": "680",
                        "value": ""
                    }
                ]
            },
            {
                "account": "0xca93c4cdfbea225fb32c828bb9a81f141d165f26",
                "assets": [
                    {
                        "address": "0xeeeeeeeeeeeeeeeeeeeeeeeeeeeeeeeeeeeeeeee",
                        "amount": "0.02062",
                        "iconUrl": "https://assets.blocksec.com/image/1663669189317-3.png",
                        "isERC1155": false,
                        "isERC721": false,
                        "sign": true,
                        "value": "32.16740619999999981"
                    }
                ]
            },
            {
                "account": "0x0000000000000000000000000000000000000000",
                "assets": [
                    {
                        "address": "0xca93c4cdfbea225fb32c828bb9a81f141d165f26",
                        "amount": "1",
                        "iconUrl": "",
                        "isERC1155": false,
                        "isERC721": true,
                        "sign": false,
                        "tokenID": "679",
                        "value": ""
                    },
                    {
                        "address": "0xca93c4cdfbea225fb32c828bb9a81f141d165f26",
                        "amount": "1",
                        "iconUrl": "",
                        "isERC1155": false,
                        "isERC721": true,
                        "sign": false,
                        "tokenID": "680",
                        "value": ""
                    }
                ]
            }
        ]
    },
    "profile": {
        "basic_info": {
            "baseFee": "5.956977952",
            "blockNumber": 18357421,
            "callData": "0x6ecd23060000000000000000000000000000000000000000000000000000000000000002",
            "debugEnable": true,
            "errorInfo": "",
            "eventCount": 3,
            "feeRecipient": "0x1f9090aae28b8a3dceadf281b0f12828e676c326",
            "formatValue": "0.02062",
            "gasLimit": 85141,
            "gasPrice": "6.056977952",
            "gasUsed": 85141,
            "intTxnCount": 0,
            "internalRevert": false,
            "internalRevertMessage": "",
            "isContractCreation": false,
            "isFlashloan": false,
            "maxFee": "7.295313642",
            "nonce": 829,
            "overwritedBlockNumber": -1,
            "priorityFee": "0.1",
            "receiver": "0xca93c4cdfbea225fb32c828bb9a81f141d165f26",
            "revertMessage": "",
            "sender": "0x91f4df529151bf84b2f8b7bdeb8ad139f543ab6b",
            "simulationEnable": true,
            "sourceTxnHash": "0x6bd7baabdbdae32c89f7a351432627f7046192f39987f9efa9120f6100ca26c1",
            "status": true,
            "timestamp": "2023-10-15T17:59:23Z",
            "transactionFee": "0.000515697159811232",
            "txnHash": "0x6bd7baabdbdae32c89f7a351432627f7046192f39987f9efa9120f6100ca26c1",
            "txnIndex": 70,
            "type": 2,
            "value": "20620000000000000"
        },
        "fund_flow": [
            {
                "amount": "0.02062",
                "from": "0x91f4df529151bf84b2f8b7bdeb8ad139f543ab6b",
                "id": 1,
                "isERC1155": false,
                "isERC721": false,
                "isReverted": false,
                "order": 1,
                "to": "0xca93c4cdfbea225fb32c828bb9a81f141d165f26",
                "token": "0xeeeeeeeeeeeeeeeeeeeeeeeeeeeeeeeeeeeeeeee"
            },
            {
                "amount": "1",
                "from": "0x0000000000000000000000000000000000000000",
                "id": 2,
                "isERC1155": false,
                "isERC721": true,
                "isReverted": false,
                "order": 2,
                "to": "0x91f4df529151bf84b2f8b7bdeb8ad139f543ab6b",
                "token": "0xca93c4cdfbea225fb32c828bb9a81f141d165f26",
                "tokenID": "679"
            },
            {
                "amount": "1",
                "from": "0x0000000000000000000000000000000000000000",
                "id": 3,
                "isERC1155": false,
                "isERC721": true,
                "isReverted": false,
                "order": 3,
                "to": "0x91f4df529151bf84b2f8b7bdeb8ad139f543ab6b",
                "token": "0xca93c4cdfbea225fb32c828bb9a81f141d165f26",
                "tokenID": "680"
            }
        ],
        "token_infos": [
            {
                "address": "0xc02aaa39b223fe8d0a0e5c4f27ead9083c756cc2",
                "decimals": 18
            },
            {
                "address": "0xeeeeeeeeeeeeeeeeeeeeeeeeeeeeeeeeeeeeeeee",
                "decimals": 18
            }
        ]
    },
    "address_label": {
        "labels": [
            {
                "address": "0xeeeeeeeeeeeeeeeeeeeeeeeeeeeeeeeeeeeeeeee",
                "label": "Ether"
            },
            {
                "address": "0xca93c4cdfbea225fb32c828bb9a81f141d165f26",
                "label": "Hype Beasts [OG] (HYPEBEASTS)"
            },
            {
                "address": "0x0000000000000000000000000000000000000001",
                "label": "Precompiled"
            },
            {
                "address": "0x0000000000000000000000000000000000000002",
                "label": "Precompiled"
            },
            {
                "address": "0x0000000000000000000000000000000000000003",
                "label": "Precompiled"
            },
            {
                "address": "0x0000000000000000000000000000000000000004",
                "label": "Precompiled"
            }
        ]
    },
    "trace": {
        "accountLabels": null,
        "dataMap": {
            "-1": {
                "invocation": {
                    "address": "0x91f4df529151bf84b2f8b7bdeb8ad139f543ab6b",
                    "callData": "",
                    "decodedMethod": null,
                    "errorInfo": "",
                    "fromAddress": "",
                    "gasUsed": 0,
                    "id": -1,
                    "methodDecoded": false,
                    "operation": "",
                    "output": "",
                    "revert": false,
                    "revertMessage": "",
                    "selector": "",
                    "status": false,
                    "value": ""
                },
                "nodeType": 0
            },
            "0": {
                "invocation": {
                    "address": "0xca93c4cdfbea225fb32c828bb9a81f141d165f26",
                    "callData": "0x0000000000000000000000000000000000000000000000000000000000000002",
                    "decodedMethod": {
                        "callParams": [
                            {
                                "name": "_mintAmount",
                                "type": "uint8",
                                "value": "2"
                            }
                        ],
                        "constructorArguments": "",
                        "name": "mint",
                        "returnParams": [],
                        "signature": "mint(uint8)"
                    },
                    "errorInfo": "",
                    "fromAddress": "0x91f4df529151bf84b2f8b7bdeb8ad139f543ab6b",
                    "gasUsed": 85141,
                    "id": 0,
                    "methodDecoded": true,
                    "operation": "CALL",
                    "output": "",
                    "revert": false,
                    "revertMessage": "",
                    "selector": "0x6ecd2306",
                    "status": true,
                    "value": "0.02062"
                },
                "nodeType": 0
            },
            "1": {
                "event": {
                    "contract": "0xca93c4cdfbea225fb32c828bb9a81f141d165f26",
                    "decodedLog": {
                        "name": "Transfer",
                        "params": [
                            {
                                "name": "from",
                                "type": "address",
                                "value": "0x0000000000000000000000000000000000000000"
                            },
                            {
                                "name": "to",
                                "type": "address",
                                "value": "0x91f4df529151bf84b2f8b7bdeb8ad139f543ab6b"
                            },
                            {
                                "decimalAvailable": true,
                                "name": "tokenId",
                                "type": "uint256",
                                "value": "679"
                            }
                        ],
                        "signature": "Transfer(address,address,uint256)"
                    },
                    "id": 1,
                    "logData": "0x",
                    "logDecoded": true,
                    "operation": "EVENT",
                    "revert": false,
                    "status": true,
                    "topics": [
                        "0xddf252ad1be2c89b69c2b068fc378daa952ba7f163c4a11628f55a4df523b3ef",
                        "0x0000000000000000000000000000000000000000000000000000000000000000",
                        "0x00000000000000000000000091f4df529151bf84b2f8b7bdeb8ad139f543ab6b",
                        "0x00000000000000000000000000000000000000000000000000000000000002a7"
                    ]
                },
                "nodeType": 1
            },
            "2": {
                "event": {
                    "contract": "0xca93c4cdfbea225fb32c828bb9a81f141d165f26",
                    "decodedLog": {
                        "name": "Transfer",
                        "params": [
                            {
                                "name": "from",
                                "type": "address",
                                "value": "0x0000000000000000000000000000000000000000"
                            },
                            {
                                "name": "to",
                                "type": "address",
                                "value": "0x91f4df529151bf84b2f8b7bdeb8ad139f543ab6b"
                            },
                            {
                                "decimalAvailable": true,
                                "name": "tokenId",
                                "type": "uint256",
                                "value": "680"
                            }
                        ],
                        "signature": "Transfer(address,address,uint256)"
                    },
                    "id": 2,
                    "logData": "0x",
                    "logDecoded": true,
                    "operation": "EVENT",
                    "revert": false,
                    "status": true,
                    "topics": [
                        "0xddf252ad1be2c89b69c2b068fc378daa952ba7f163c4a11628f55a4df523b3ef",
                        "0x0000000000000000000000000000000000000000000000000000000000000000",
                        "0x00000000000000000000000091f4df529151bf84b2f8b7bdeb8ad139f543ab6b",
                        "0x00000000000000000000000000000000000000000000000000000000000002a8"
                    ]
                },
                "nodeType": 1
            },
            "3": {
                "event": {
                    "contract": "0xca93c4cdfbea225fb32c828bb9a81f141d165f26",
                    "decodedLog": {
                        "name": "TokenMinted",
                        "params": [
                            {
                                "name": "supply",
                                "type": "uint256",
                                "value": "681"
                            }
                        ],
                        "signature": "TokenMinted(uint256)"
                    },
                    "id": 3,
                    "logData": "0x00000000000000000000000000000000000000000000000000000000000002a9",
                    "logDecoded": true,
                    "operation": "EVENT",
                    "revert": false,
                    "status": true,
                    "topics": [
                        "0xf00d28232b285f24f2e38415deb2ceb31069e70d4505838b3911b4f02058502e"
                    ]
                },
                "nodeType": 1
            }
        },
        "gasFlame": [
            {
                "children": [
                    {
                        "children": [
                            {
                                "children": [],
                                "depth": 0,
                                "name": "Initial Gas",
                                "value": 21204
                            },
                            {
                                "children": [],
                                "depth": 0,
                                "name": "Executed Gas",
                                "value": 63937
                            }
                        ],
                        "depth": -1,
                        "name": "Actual Gas Used",
                        "value": 85141
                    },
                    {
                        "children": [],
                        "depth": -1,
                        "name": "Refunded Gas",
                        "value": 0
                    }
                ],
                "depth": -2,
                "name": "Total Gas",
                "value": 85141
            }
        ],
        "isConfirmed": true,
        "mainTrace": [
            {
                "children": [
                    {
                        "children": [
                            {
                                "children": [],
                                "depth": 1,
                                "id": 1,
                                "order": 1
                            },
                            {
                                "children": [],
                                "depth": 1,
                                "id": 2,
                                "order": 2
                            },
                            {
                                "children": [],
                                "depth": 1,
                                "id": 3,
                                "order": 3
                            }
                        ],
                        "depth": 0,
                        "id": 0,
                        "order": 0
                    }
                ],
                "depth": -1,
                "id": -1,
                "order": -1
            }
        ],
        "mainTraceNodeCount": 4,
        "parentIdMap": {
            "0": -1,
            "1": 0,
            "2": 0,
            "3": 0
        },
        "tidyTrace": [
            {
                "children": [
                    {
                        "children": [
                            {
                                "children": [],
                                "depth": 1,
                                "id": 1,
                                "order": 1
                            },
                            {
                                "children": [],
                                "depth": 1,
                                "id": 2,
                                "order": 2
                            },
                            {
                                "children": [],
                                "depth": 1,
                                "id": 3,
                                "order": 3
                            }
                        ],
                        "depth": 0,
                        "id": 0,
                        "order": 0
                    }
                ],
                "depth": -1,
                "id": -1,
                "order": -1
            }
        ],
        "tidyTraceNodeCount": 4
    },
    "state_change": {
        "stateChanges": [
            {
                "address": "0xca93c4cdfbea225fb32c828bb9a81f141d165f26",
                "erc": "",
                "slots": [
                    {
                        "current": "0x0000000000000000000000000000000000000000000000020000000000000002",
                        "key": "0x61b505df819a619be0c96183faa00ed1b70062edd5093e7795dc222ed3c71ffa",
                        "prev": "0x0000000000000000000000000000000000000000000000000000000000000000"
                    },
                    {
                        "current": "0x0000000000000000652c287b91f4df529151bf84b2f8b7bdeb8ad139f543ab6b",
                        "key": "0x09d88cbfd4104e22897e82e7057f717de959bbc6237b794db9a0124e30247090",
                        "prev": "0x0000000000000000000000000000000000000000000000000000000000000000"
                    },
                    {
                        "current": "0x00000000000000000000000000000000000000000000000000000000000002a9",
                        "key": "0x0000000000000000000000000000000000000000000000000000000000000000",
                        "prev": "0x00000000000000000000000000000000000000000000000000000000000002a7"
                    }
                ],
                "storageVariables": []
            }
        ]
    }
}