{
    "balance_change": {
        "balanceChanges": [
            {
                "account": "0x6992c66c4480404571c80924d0c41c4b08a3af03",
                "assets": [
                    {
                        "address": "0x36f3fd68e7325a35eb768f1aedaae9ea0689d723",
                        "amount": "20,000",
                        "iconUrl": "https://assets.blocksec.com/icon/9deefe74df31a392ff2a3c466cdd61303eb3a41ed70e91ef6bace3b845e62986.png",
                        "isERC1155": false,
                        "isERC721": false,
                        "sign": false,
                        "value": "18265.05272"
                    }
                ]
            },
            {
                "account": "0x7ce048e578fdbdc55bb5163ccbe3213261fe9cf0",
                "assets": [
                    {
                        "address": "0x36f3fd68e7325a35eb768f1aedaae9ea0689d723",
                        "amount": "20,000",
                        "iconUrl": "https://assets.blocksec.com/icon/9deefe74df31a392ff2a3c466cdd61303eb3a41ed70e91ef6bace3b845e62986.png",
                        "isERC1155": false,
                        "isERC721": false,
                        "sign": true,
                        "value": "18265.05272"
                    }
                ]
            }
        ]
    },
    "profile": {
        "basic_info": {
            "baseFee": "",
            "blockNumber": 11559445,
            "callData": "0xa9059cbb0000000000000000000000007ce048e578fdbdc55bb5163ccbe3213261fe9cf000000000000000000000000000000000000000000000043c33c1937564800000",
            "debugEnable": true,
            "errorInfo": "",
            "eventCount": 1,
            "feeRecipient": "0xea674fdde714fd979de3edf0f56aa9716b898ec8",
            "formatValue": "0",
            "gasLimit": 51752,
            "gasPrice": "90",
            "gasUsed": 51752,
            "intTxnCount": 0,
            "internalRevert": false,
            "internalRevertMessage": "",
            "isContractCreation": false,
            "isFlashloan": false,
            "maxFee": "",
            "nonce": 1601,
            "overwritedBlockNumber": -1,
            "priorityFee": "",
            "receiver": "0x36f3fd68e7325a35eb768f1aedaae9ea0689d723",
            "revertMessage": "",
            "sender": "0x6992c66c4480404571c80924d0c41c4b08a3af03",
            "simulationEnable": true,
            "sourceTxnHash": "0x6bb51b34ec07ad63333689601628fa8043808017b60345b0d52613c1bc41fcea",
            "status": true,
            "timestamp": "2020-12-31T03:21:57Z",
            "transactionFee": "0.00465768",
            "txnHash": "0x6bb51b34ec07ad63333689601628fa8043808017b60345b0d52613c1bc41fcea",
            "txnIndex": 125,
            "type": 0,
            "value": "0"
        },
        "fund_flow": [
            {
                "amount": "20,000",
                "from": "0x6992c66c4480404571c80924d0c41c4b08a3af03",
                "id": 1,
                "isERC1155": false,
                "isERC721": false,
                "isReverted": false,
                "order": 1,
                "to": "0x7ce048e578fdbdc55bb5163ccbe3213261fe9cf0",
                "token": "0x36f3fd68e7325a35eb768f1aedaae9ea0689d723"
            }
        ],
        "token_infos": [
            {
                "address": "0xc02aaa39b223fe8d0a0e5c4f27ead9083c756cc2",
                "decimals": 18
            },
            {
                "address": "0xeeeeeeeeeeeeeeeeeeeeeeeeeeeeeeeeeeeeeeee",
                "decimals": 18
            },
            {
                "address": "0x36f3fd68e7325a35eb768f1aedaae9ea0689d723",
                "decimals": 18
            }
        ]
    },
    "address_label": {
        "labels": [
            {
                "address": "0x0000000000000000000000000000000000000004",
                "label": "Precompiled"
            },
            {
                "address": "0xeeeeeeeeeeeeeeeeeeeeeeeeeeeeeeeeeeeeeeee",
                "label": "Ether"
            },
            {
                "address": "0x36f3fd68e7325a35eb768f1aedaae9ea0689d723",
                "label": "Empty Set Dollar: ESD Token"
            },
            {
                "address": "0x0000000000000000000000000000000000000001",
                "label": "Precompiled"
            },
            {
                "address": "0x0000000000000000000000000000000000000002",
                "label": "Precompiled"
            },
            {
                "address": "0x0000000000000000000000000000000000000003",
                "label": "Precompiled"
            }
        ]
    },
    "trace": {
        "accountLabels": null,
        "dataMap": {
            "-1": {
                "invocation": {
                    "address": "0x6992c66c4480404571c80924d0c41c4b08a3af03",
                    "callData": "",
                    "decodedMethod": null,
                    "errorInfo": "",
                    "fromAddress": "",
                    "gasUsed": 0,
                    "id": -1,
                    "methodDecoded": false,
                    "operation": "",
                    "output": "",
                    "revert": false,
                    "revertMessage": "",
                    "selector": "",
                    "status": false,
                    "value": ""
                },
                "nodeType": 0
            },
            "0": {
                "invocation": {
                    "address": "0x36f3fd68e7325a35eb768f1aedaae9ea0689d723",
                    "callData": "0x0000000000000000000000007ce048e578fdbdc55bb5163ccbe3213261fe9cf000000000000000000000000000000000000000000000043c33c1937564800000",
                    "decodedMethod": {
                        "callParams": [
                            {
                                "name": "recipient",
                                "type": "address",
                                "value": "0x7ce048e578fdbdc55bb5163ccbe3213261fe9cf0"
                            },
                            {
                                "decimalAvailable": true,
                                "name": "amount",
                                "type": "uint256",
                                "value": "20,000,000,000,000,000,000,000"
                            }
                        ],
                        "constructorArguments": "",
                        "name": "transfer",
                        "returnParams": [
                            {
                                "name": "",
                                "type": "bool",
                                "value": true
                            }
                        ],
                        "signature": "transfer(address,uint256)"
                    },
                    "errorInfo": "",
                    "fromAddress": "0x6992c66c4480404571c80924d0c41c4b08a3af03",
                    "gasUsed": 51752,
                    "id": 0,
                    "methodDecoded": true,
                    "operation": "CALL",
                    "output": "0x0000000000000000000000000000000000000000000000000000000000000001",
                    "revert": false,
                    "revertMessage": "",
                    "selector": "0xa9059cbb",
                    "status": true,
                    "value": "0"
                },
                "nodeType": 0
            },
            "1": {
                "event": {
                    "contract": "0x36f3fd68e7325a35eb768f1aedaae9ea0689d723",
                    "decodedLog": {
                        "name": "Transfer",
                        "params": [
                            {
                                "name": "from",
                                "type": "address",
                                "value": "0x6992c66c4480404571c80924d0c41c4b08a3af03"
                            },
                            {
                                "name": "to",
                                "type": "address",
                                "value": "0x7ce048e578fdbdc55bb5163ccbe3213261fe9cf0"
                            },
                            {
                                "decimalAvailable": true,
                                "name": "value",
                                "type": "uint256",
                                "value": "20,000,000,000,000,000,000,000"
                            }
                        ],
                        "signature": "Transfer(address,address,uint256)"
                    },
                    "id": 1,
                    "logData": "0x00000000000000000000000000000000000000000000043c33c1937564800000",
                    "logDecoded": true,
                    "operation": "EVENT",
                    "revert": false,
                    "status": true,
                    "topics": [
                        "0xddf252ad1be2c89b69c2b068fc378daa952ba7f163c4a11628f55a4df523b3ef",
                        "0x0000000000000000000000006992c66c4480404571c80924d0c41c4b08a3af03",
                        "0x0000000000000000000000007ce048e578fdbdc55bb5163ccbe3213261fe9cf0"
                    ]
                },
                "nodeType": 1
            }
        },
        "gasFlame": [
            {
                "children": [
                    {
                        "children": [
                            {
                                "children": [],
                                "depth": 0,
                                "name": "Initial Gas",
                                "value": 21656
                            },
                            {
                                "children": [],
                                "depth": 0,
                                "name": "Executed Gas",
                                "value": 30096
                            }
                        ],
                        "depth": -1,
                        "name": "Actual Gas Used",
                        "value": 51752
                    },
                    {
                        "children": [],
                        "depth": -1,
                        "name": "Refunded Gas",
                        "value": 0
                    }
                ],
                "depth": -2,
                "name": "Total Gas",
                "value": 51752
            }
        ],
        "isConfirmed": true,
        "mainTrace": [
            {
                "children": [
                    {
                        "children": [
                            {
                                "children": [],
                                "depth": 1,
                                "id": 1,
                                "order": 1
                            }
                        ],
                        "depth": 0,
                        "id": 0,
                        "order": 0
                    }
                ],
                "depth": -1,
                "id": -1,
                "order": -1
            }
        ],
        "mainTraceNodeCount": 2,
        "parentIdMap": {
            "0": -1,
            "1": 0
        },
        "tidyTrace": [
            {
                "children": [
                    {
                        "children": [
                            {
                                "children": [],
                                "depth": 1,
                                "id": 1,
                                "order": 1
                            }
                        ],
                        "depth": 0,
                        "id": 0,
                        "order": 0
                    }
                ],
                "depth": -1,
                "id": -1,
                "order": -1
            }
        ],
        "tidyTraceNodeCount": 2
    },
    "state_change": {
        "stateChanges": [
            {
                "address": "0x36f3fd68e7325a35eb768f1aedaae9ea0689d723",
                "erc": "ERC-20",
                "slots": [
                    {
                        "current": "0x00000000000000000000000000000000000000000000043c33c19385034de8f3",
                        "key": "0x93ac502820344c63561b16c144be46959c1672e6f39f85eb59fb98089cd53c68",
                        "prev": "0x000000000000000000000000000000000000000000000878678326fa67cde8f3"
                    },
                    {
                        "current": "0x00000000000000000000000000000000000000000000043c33c1937564800000",
                        "key": "0x2b521e3df1e4e67bd0f2441b47f2e1d5d29f92ebd34e07f883df2308c9d57411",
                        "prev": "0x0000000000000000000000000000000000000000000000000000000000000000"
                    }
                ],
                "storageVariables": [
                    {
                        "name": "_balances",
                        "type": "mapping(address => uint256)",
                        "value": {
                            "pairs": [
                                {
                                    "key": "0x6992c66c4480404571c80924d0c41c4b08a3af03",
                                    "value": {
                                        "current": "20000000000067088804083",
                                        "prev": "40000000000067088804083",
                                        "typeTag": 1
                                    }
                                },
                                {
                                    "key": "0x7ce048e578fdbdc55bb5163ccbe3213261fe9cf0",
                                    "value": {
                                        "current": "20000000000000000000000",
                                        "prev": "0",
                                        "typeTag": 1
                                    }
                                }
                            ],
                            "typeTag": 4
                        }
                    }
                ]
            }
        ]
    }
}