{
    "balance_change": {
        "balanceChanges": [
            {
                "account": "0x7354c2be97de61ccd9970913a88c88a7b80e7c84",
                "assets": [
                    {
                        "address": "0x15e6e0d4ebeac120f9a97e71faa6a0235b85ed12",
                        "amount": "799.849009945321698536",
                        "iconUrl": "",
                        "isERC1155": false,
                        "isERC721": false,
                        "sign": false,
                        "value": "6538.7024678607174506"
                    },
                    {
                        "address": "0xeeeeeeeeeeeeeeeeeeeeeeeeeeeeeeeeeeeeeeee",
                        "amount": "1.95292855823365448",
                        "iconUrl": "https://assets.blocksec.com/image/1663669189317-3.png",
                        "isERC1155": false,
                        "isERC721": false,
                        "sign": true,
                        "value": "7694.1011601694357847"
                    }
                ]
            },
            {
                "account": "0xad9ef19e289dcbc9ab27b83d2df53cdeff60f02d",
                "assets": [
                    {
                        "address": "0xc02aaa39b223fe8d0a0e5c4f27ead9083c756cc2",
                        "amount": "1.970167524069260509",
                        "iconUrl": "https://assets.blocksec.com/icon/f1cb2d02c471d545bbc7722daf3277fd852d98e63d118771af7047bd8256c516.png",
                        "isERC1155": false,
                        "isERC721": false,
                        "sign": false,
                        "value": "7762.0188255430000837"
                    },
                    {
                        "address": "0x15e6e0d4ebeac120f9a97e71faa6a0235b85ed12",
                        "amount": "799.849009945321698536",
                        "iconUrl": "",
                        "isERC1155": false,
                        "isERC721": false,
                        "sign": true,
                        "value": "6538.7024678607174506"
                    }
                ]
            },
            {
                "account": "0xc02aaa39b223fe8d0a0e5c4f27ead9083c756cc2",
                "assets": [
                    {
                        "address": "0xeeeeeeeeeeeeeeeeeeeeeeeeeeeeeeeeeeeeeeee",
                        "amount": "1.970167524069260509",
                        "iconUrl": "https://assets.blocksec.com/image/1663669189317-3.png",
                        "isERC1155": false,
                        "isERC721": false,
                        "sign": false,
                        "value": "7762.0188255430000837"
                    },
                    {
                        "address": "0xc02aaa39b223fe8d0a0e5c4f27ead9083c756cc2",
                        "amount": "1.970167524069260509",
                        "iconUrl": "https://assets.blocksec.com/icon/f1cb2d02c471d545bbc7722daf3277fd852d98e63d118771af7047bd8256c516.png",
                        "isERC1155": false,
                        "isERC721": false,
                        "sign": true,
                        "value": "7762.0188255430000837"
                    }
                ]
            },
            {
                "account": "0xf326e4de8f66a0bdc0970b79e0924e33c79f1915",
                "assets": [
                    {
                        "address": "0xeeeeeeeeeeeeeeeeeeeeeeeeeeeeeeeeeeeeeeee",
                        "amount": "0.017238965835606029",
                        "iconUrl": "https://assets.blocksec.com/image/1663669189317-3.png",
                        "isERC1155": false,
                        "isERC721": false,
                        "sign": true,
                        "value": "67.91766474320013098"
                    }
                ]
            }
        ]
    },
    "profile": {
        "basic_info": {
            "baseFee": "43.354173847",
            "blockNumber": 19394891,
            "callData": "0x5f575529000000000000000000000000000000000000000000000000000000000000008000000000000000000000000015e6e0d4ebeac120f9a97e71faa6a0235b85ed1200000000000000000000000000000000000000000000002b5c2284c37ac874e800000000000000000000000000000000000000000000000000000000000000c000000000000000000000000000000000000000000000000000000000000000136f6e65496e6368563546656544796e616d69630000000000000000000000000000000000000000000000000000000000000000000000000000000000000001e000000000000000000000000015e6e0d4ebeac120f9a97e71faa6a0235b85ed12000000000000000000000000000000000000000000000000000000000000000000000000000000000000000000000000000000000000002b5c2284c37ac874e80000000000000000000000000000000000000000000000001a8f6e9cf587308e0000000000000000000000000000000000000000000000000000000000000120000000000000000000000000000000000000000000000000003d3ebf82ed280d000000000000000000000000f326e4de8f66a0bdc0970b79e0924e33c79f1915000000000000000000000000000000000000000000000000000000000000000100000000000000000000000000000000000000000000000000000000000000a8e449022e00000000000000000000000000000000000000000000002b5c2284c37ac874e80000000000000000000000000000000000000000000000001acb73c947c185e200000000000000000000000000000000000000000000000000000000000000600000000000000000000000000000000000000000000000000000000000000001200000000000000000000000ad9ef19e289dcbc9ab27b83d2df53cdeff60f02dab4991fe0000000000000000000000000000000000000000000000000089",
            "debugEnable": true,
            "errorInfo": "",
            "eventCount": 7,
            "feeRecipient": "0x4838b106fce9647bdf1e7877bf73ce8b0bad5f97",
            "formatValue": "0",
            "gasLimit": 226575,
            "gasPrice": "43.403173847",
            "gasUsed": 177811,
            "intTxnCount": 21,
            "internalRevert": false,
            "internalRevertMessage": "",
            "isContractCreation": false,
            "isFlashloan": false,
            "maxFee": "70.495650714",
            "nonce": 229,
            "overwritedBlockNumber": -1,
            "priorityFee": "0.049",
            "receiver": "0x881d40237659c251811cec9c364ef91dc08d300c",
            "revertMessage": "",
            "sender": "0x7354c2be97de61ccd9970913a88c88a7b80e7c84",
            "simulationEnable": true,
            "sourceTxnHash": "0x6c110eea37d376cbb0fce5d459181cfeff4cb5dac16914d94499bf54a4a797b6",
            "status": true,
            "timestamp": "2024-03-09T03:34:59Z",
            "transactionFee": "0.007717561744908917",
            "txnHash": "0x6c110eea37d376cbb0fce5d459181cfeff4cb5dac16914d94499bf54a4a797b6",
            "txnIndex": 112,
            "type": 2,
            "value": "0"
        },
        "fund_flow": [
            {
                "amount": "799.849009945321698536",
                "from": "0x7354c2be97de61ccd9970913a88c88a7b80e7c84",
                "id": 1,
                "isERC1155": false,
                "isERC721": false,
                "isReverted": false,
                "order": 1,
                "to": "0x74de5d4fcbf63e00296fd95d33236b9794016631",
                "token": "0x15e6e0d4ebeac120f9a97e71faa6a0235b85ed12"
            },
            {
                "amount": "1.970167524069260509",
                "from": "0xad9ef19e289dcbc9ab27b83d2df53cdeff60f02d",
                "id": 2,
                "isERC1155": false,
                "isERC721": false,
                "isReverted": false,
                "order": 2,
                "to": "0x1111111254eeb25477b68fb85ed929f73a960582",
                "token": "0xc02aaa39b223fe8d0a0e5c4f27ead9083c756cc2"
            },
            {
                "amount": "799.849009945321698536",
                "from": "0x74de5d4fcbf63e00296fd95d33236b9794016631",
                "id": 3,
                "isERC1155": false,
                "isERC721": false,
                "isReverted": false,
                "order": 3,
                "to": "0xad9ef19e289dcbc9ab27b83d2df53cdeff60f02d",
                "token": "0x15e6e0d4ebeac120f9a97e71faa6a0235b85ed12"
            },
            {
                "amount": "1.970167524069260509",
                "from": "0xc02aaa39b223fe8d0a0e5c4f27ead9083c756cc2",
                "id": 4,
                "isERC1155": false,
                "isERC721": false,
                "isReverted": false,
                "order": 4,
                "to": "0x1111111254eeb25477b68fb85ed929f73a960582",
                "token": "0xeeeeeeeeeeeeeeeeeeeeeeeeeeeeeeeeeeeeeeee"
            },
            {
                "amount": "1.970167524069260509",
                "from": "0x1111111254eeb25477b68fb85ed929f73a960582",
                "id": 5,
                "isERC1155": false,
                "isERC721": false,
                "isReverted": false,
                "order": 5,
                "to": "0xc02aaa39b223fe8d0a0e5c4f27ead9083c756cc2",
                "token": "0xc02aaa39b223fe8d0a0e5c4f27ead9083c756cc2"
            },
            {
                "amount": "1.970167524069260509",
                "from": "0x1111111254eeb25477b68fb85ed929f73a960582",
                "id": 6,
                "isERC1155": false,
                "isERC721": false,
                "isReverted": false,
                "order": 6,
                "to": "0x74de5d4fcbf63e00296fd95d33236b9794016631",
                "token": "0xeeeeeeeeeeeeeeeeeeeeeeeeeeeeeeeeeeeeeeee"
            },
            {
                "amount": "0.017238965835606029",
                "from": "0x74de5d4fcbf63e00296fd95d33236b9794016631",
                "id": 7,
                "isERC1155": false,
                "isERC721": false,
                "isReverted": false,
                "order": 7,
                "to": "0xf326e4de8f66a0bdc0970b79e0924e33c79f1915",
                "token": "0xeeeeeeeeeeeeeeeeeeeeeeeeeeeeeeeeeeeeeeee"
            },
            {
                "amount": "1.95292855823365448",
                "from": "0x74de5d4fcbf63e00296fd95d33236b9794016631",
                "id": 8,
                "isERC1155": false,
                "isERC721": false,
                "isReverted": false,
                "order": 8,
                "to": "0x7354c2be97de61ccd9970913a88c88a7b80e7c84",
                "token": "0xeeeeeeeeeeeeeeeeeeeeeeeeeeeeeeeeeeeeeeee"
            }
        ],
        "token_infos": [
            {
                "address": "0xeeeeeeeeeeeeeeeeeeeeeeeeeeeeeeeeeeeeeeee",
                "decimals": 18
            },
            {
                "address": "0x15e6e0d4ebeac120f9a97e71faa6a0235b85ed12",
                "decimals": 18
            },
            {
                "address": "0xc02aaa39b223fe8d0a0e5c4f27ead9083c756cc2",
                "decimals": 18
            }
        ]
    },
    "address_label": {
        "labels": [
            {
                "address": "0x74de5d4fcbf63e00296fd95d33236b9794016631",
                "label": "MetaMask: Swaps Spender"
            },
            {
                "address": "0x881d40237659c251811cec9c364ef91dc08d300c",
                "label": "Metamask: Swap Router"
            },
            {
                "address": "0x0000000000000000000000000000000000000001",
                "label": "Precompiled"
            },
            {
                "address": "0x0000000000000000000000000000000000000002",
                "label": "Precompiled"
            },
            {
                "address": "0xeeeeeeeeeeeeeeeeeeeeeeeeeeeeeeeeeeeeeeee",
                "label": "Ether"
            },
            {
                "address": "0xf326e4de8f66a0bdc0970b79e0924e33c79f1915",
                "label": "MetaMask: DS Proxy"
            },
            {
                "address": "0xad9ef19e289dcbc9ab27b83d2df53cdeff60f02d",
                "label": "Uniswap V3: SAVM"
            },
            {
                "address": "0x0000000000000000000000000000000000000004",
                "label": "Precompiled"
            },
            {
                "address": "0x15e6e0d4ebeac120f9a97e71faa6a0235b85ed12",
                "label": "SatoshiVM: SAVM Token"
            },
            {
                "address": "0x1111111254eeb25477b68fb85ed929f73a960582",
                "label": "Aggregation Router V5"
            },
            {
                "address": "0xd9db270c1b5e3bd161e8c8503c55ceabee709552",
                "label": "Safe: Singleton 1.3.0"
            },
            {
                "address": "0xc02aaa39b223fe8d0a0e5c4f27ead9083c756cc2",
                "label": "Wrapped Ether (WETH)"
            },
            {
                "address": "0x0000000000000000000000000000000000000003",
                "label": "Precompiled"
            }
        ]
    },
    "trace": {
        "accountLabels": null,
        "dataMap": {
            "-1": {
                "invocation": {
                    "address": "0x7354c2be97de61ccd9970913a88c88a7b80e7c84",
                    "callData": "",
                    "decodedMethod": null,
                    "errorInfo": "",
                    "fromAddress": "",
                    "gasUsed": 0,
                    "id": -1,
                    "methodDecoded": false,
                    "operation": "",
                    "output": "",
                    "revert": false,
                    "revertMessage": "",
                    "selector": "",
                    "status": false,
                    "value": ""
                },
                "nodeType": 0
            },
            "0": {
                "invocation": {
                    "address": "0x881d40237659c251811cec9c364ef91dc08d300c",
                    "callData": "0x000000000000000000000000000000000000000000000000000000000000008000000000000000000000000015e6e0d4ebeac120f9a97e71faa6a0235b85ed1200000000000000000000000000000000000000000000002b5c2284c37ac874e800000000000000000000000000000000000000000000000000000000000000c000000000000000000000000000000000000000000000000000000000000000136f6e65496e6368563546656544796e616d69630000000000000000000000000000000000000000000000000000000000000000000000000000000000000001e000000000000000000000000015e6e0d4ebeac120f9a97e71faa6a0235b85ed12000000000000000000000000000000000000000000000000000000000000000000000000000000000000000000000000000000000000002b5c2284c37ac874e80000000000000000000000000000000000000000000000001a8f6e9cf587308e0000000000000000000000000000000000000000000000000000000000000120000000000000000000000000000000000000000000000000003d3ebf82ed280d000000000000000000000000f326e4de8f66a0bdc0970b79e0924e33c79f1915000000000000000000000000000000000000000000000000000000000000000100000000000000000000000000000000000000000000000000000000000000a8e449022e00000000000000000000000000000000000000000000002b5c2284c37ac874e80000000000000000000000000000000000000000000000001acb73c947c185e200000000000000000000000000000000000000000000000000000000000000600000000000000000000000000000000000000000000000000000000000000001200000000000000000000000ad9ef19e289dcbc9ab27b83d2df53cdeff60f02dab4991fe0000000000000000000000000000000000000000000000000089",
                    "decodedMethod": {
                        "callParams": [
                            {
                                "name": "aggregatorId",
                                "type": "string",
                                "value": "oneInchV5FeeDynamic"
                            },
                            {
                                "name": "tokenFrom",
                                "type": "address",
                                "value": "0x15e6e0d4ebeac120f9a97e71faa6a0235b85ed12"
                            },
                            {
                                "name": "amount",
                                "type": "uint256",
                                "value": "799,849,009,945,321,698,536"
                            },
                            {
                                "name": "data",
                                "type": "bytes",
                                "value": "0x00000000000000000000000015e6e0d4ebeac120f9a97e71faa6a0235b85ed12000000000000000000000000000000000000000000000000000000000000000000000000000000000000000000000000000000000000002b5c2284c37ac874e80000000000000000000000000000000000000000000000001a8f6e9cf587308e0000000000000000000000000000000000000000000000000000000000000120000000000000000000000000000000000000000000000000003d3ebf82ed280d000000000000000000000000f326e4de8f66a0bdc0970b79e0924e33c79f1915000000000000000000000000000000000000000000000000000000000000000100000000000000000000000000000000000000000000000000000000000000a8e449022e00000000000000000000000000000000000000000000002b5c2284c37ac874e80000000000000000000000000000000000000000000000001acb73c947c185e200000000000000000000000000000000000000000000000000000000000000600000000000000000000000000000000000000000000000000000000000000001200000000000000000000000ad9ef19e289dcbc9ab27b83d2df53cdeff60f02dab4991fe000000000000000000000000000000000000000000000000"
                            }
                        ],
                        "constructorArguments": "",
                        "name": "swap",
                        "returnParams": [],
                        "signature": "swap(string,address,uint256,bytes)"
                    },
                    "errorInfo": "",
                    "fromAddress": "0x7354c2be97de61ccd9970913a88c88a7b80e7c84",
                    "gasUsed": 177811,
                    "id": 0,
                    "methodDecoded": true,
                    "operation": "CALL",
                    "output": "",
                    "revert": false,
                    "revertMessage": "",
                    "selector": "0x5f575529",
                    "status": true,
                    "value": "0"
                },
                "nodeType": 0
            },
            "1": {
                "invocation": {
                    "address": "0x15e6e0d4ebeac120f9a97e71faa6a0235b85ed12",
                    "callData": "0x0000000000000000000000007354c2be97de61ccd9970913a88c88a7b80e7c8400000000000000000000000074de5d4fcbf63e00296fd95d33236b979401663100000000000000000000000000000000000000000000002b5c2284c37ac874e8",
                    "decodedMethod": {
                        "callParams": [
                            {
                                "name": "from",
                                "type": "address",
                                "value": "0x7354c2be97de61ccd9970913a88c88a7b80e7c84"
                            },
                            {
                                "name": "to",
                                "type": "address",
                                "value": "0x74de5d4fcbf63e00296fd95d33236b9794016631"
                            },
                            {
                                "decimalAvailable": true,
                                "name": "amount",
                                "type": "uint256",
                                "value": "799,849,009,945,321,698,536"
                            }
                        ],
                        "constructorArguments": "",
                        "name": "transferFrom",
                        "returnParams": [
                            {
                                "name": "",
                                "type": "bool",
                                "value": true
                            }
                        ],
                        "signature": "transferFrom(address,address,uint256)"
                    },
                    "errorInfo": "",
                    "fromAddress": "0x881d40237659c251811cec9c364ef91dc08d300c",
                    "gasUsed": 32073,
                    "id": 1,
                    "methodDecoded": true,
                    "operation": "CALL",
                    "output": "0x0000000000000000000000000000000000000000000000000000000000000001",
                    "revert": false,
                    "revertMessage": "",
                    "selector": "0x23b872dd",
                    "status": true,
                    "value": "0"
                },
                "nodeType": 0
            },
            "10": {
                "invocation": {
                    "address": "0x15e6e0d4ebeac120f9a97e71faa6a0235b85ed12",
                    "callData": "0x000000000000000000000000ad9ef19e289dcbc9ab27b83d2df53cdeff60f02d",
                    "decodedMethod": {
                        "callParams": [
                            {
                                "name": "",
                                "type": "address",
                                "value": "0xad9ef19e289dcbc9ab27b83d2df53cdeff60f02d"
                            }
                        ],
                        "constructorArguments": "",
                        "name": "balanceOf",
                        "returnParams": [
                            {
                                "decimalAvailable": true,
                                "name": "",
                                "type": "uint256",
                                "value": "448,260,986,712,017,165,210,016"
                            }
                        ],
                        "signature": "balanceOf(address)"
                    },
                    "errorInfo": "",
                    "fromAddress": "0xad9ef19e289dcbc9ab27b83d2df53cdeff60f02d",
                    "gasUsed": 2586,
                    "id": 10,
                    "methodDecoded": true,
                    "operation": "STATICCALL",
                    "output": "0x000000000000000000000000000000000000000000005eec46db2a15a84dd1a0",
                    "revert": false,
                    "revertMessage": "",
                    "selector": "0x70a08231",
                    "status": true,
                    "value": "0"
                },
                "nodeType": 0
            },
            "11": {
                "invocation": {
                    "address": "0x1111111254eeb25477b68fb85ed929f73a960582",
                    "callData": "0x00000000000000000000000000000000000000000000002b5c2284c37ac874e8ffffffffffffffffffffffffffffffffffffffffffffffffe4a88f1343d743230000000000000000000000000000000000000000000000000000000000000060000000000000000000000000000000000000000000000000000000000000002000000000000000000000000074de5d4fcbf63e00296fd95d33236b9794016631",
                    "decodedMethod": {
                        "callParams": [
                            {
                                "name": "amount0Delta",
                                "type": "int256",
                                "value": "799,849,009,945,321,698,536"
                            },
                            {
                                "name": "amount1Delta",
                                "type": "int256",
                                "value": "-1,970,167,524,069,260,509"
                            },
                            {
                                "name": "",
                                "type": "bytes",
                                "value": "0x00000000000000000000000074de5d4fcbf63e00296fd95d33236b9794016631"
                            }
                        ],
                        "constructorArguments": "",
                        "name": "uniswapV3SwapCallback",
                        "returnParams": [],
                        "signature": "uniswapV3SwapCallback(int256,int256,bytes)"
                    },
                    "errorInfo": "",
                    "fromAddress": "0xad9ef19e289dcbc9ab27b83d2df53cdeff60f02d",
                    "gasUsed": 8640,
                    "id": 11,
                    "methodDecoded": true,
                    "operation": "CALL",
                    "output": "",
                    "revert": false,
                    "revertMessage": "",
                    "selector": "0xfa461e33",
                    "status": true,
                    "value": "0"
                },
                "nodeType": 0
            },
            "12": {
                "invocation": {
                    "address": "0xad9ef19e289dcbc9ab27b83d2df53cdeff60f02d",
                    "callData": "0x",
                    "decodedMethod": {
                        "callParams": [],
                        "constructorArguments": "",
                        "name": "token0",
                        "returnParams": [
                            {
                                "name": "",
                                "type": "address",
                                "value": "0x15e6e0d4ebeac120f9a97e71faa6a0235b85ed12"
                            }
                        ],
                        "signature": "token0()"
                    },
                    "errorInfo": "",
                    "fromAddress": "0x1111111254eeb25477b68fb85ed929f73a960582",
                    "gasUsed": 266,
                    "id": 12,
                    "methodDecoded": true,
                    "operation": "STATICCALL",
                    "output": "0x00000000000000000000000015e6e0d4ebeac120f9a97e71faa6a0235b85ed12",
                    "revert": false,
                    "revertMessage": "",
                    "selector": "0x0dfe1681",
                    "status": true,
                    "value": "0"
                },
                "nodeType": 0
            },
            "13": {
                "invocation": {
                    "address": "0xad9ef19e289dcbc9ab27b83d2df53cdeff60f02d",
                    "callData": "0x",
                    "decodedMethod": {
                        "callParams": [],
                        "constructorArguments": "",
                        "name": "token1",
                        "returnParams": [
                            {
                                "name": "",
                                "type": "address",
                                "value": "0xc02aaa39b223fe8d0a0e5c4f27ead9083c756cc2"
                            }
                        ],
                        "signature": "token1()"
                    },
                    "errorInfo": "",
                    "fromAddress": "0x1111111254eeb25477b68fb85ed929f73a960582",
                    "gasUsed": 308,
                    "id": 13,
                    "methodDecoded": true,
                    "operation": "STATICCALL",
                    "output": "0x000000000000000000000000c02aaa39b223fe8d0a0e5c4f27ead9083c756cc2",
                    "revert": false,
                    "revertMessage": "",
                    "selector": "0xd21220a7",
                    "status": true,
                    "value": "0"
                },
                "nodeType": 0
            },
            "14": {
                "invocation": {
                    "address": "0xad9ef19e289dcbc9ab27b83d2df53cdeff60f02d",
                    "callData": "0x",
                    "decodedMethod": {
                        "callParams": [],
                        "constructorArguments": "",
                        "name": "fee",
                        "returnParams": [
                            {
                                "name": "",
                                "type": "uint24",
                                "value": "10,000"
                            }
                        ],
                        "signature": "fee()"
                    },
                    "errorInfo": "",
                    "fromAddress": "0x1111111254eeb25477b68fb85ed929f73a960582",
                    "gasUsed": 251,
                    "id": 14,
                    "methodDecoded": true,
                    "operation": "STATICCALL",
                    "output": "0x0000000000000000000000000000000000000000000000000000000000002710",
                    "revert": false,
                    "revertMessage": "",
                    "selector": "0xddca3f43",
                    "status": true,
                    "value": "0"
                },
                "nodeType": 0
            },
            "15": {
                "invocation": {
                    "address": "0x15e6e0d4ebeac120f9a97e71faa6a0235b85ed12",
                    "callData": "0x00000000000000000000000074de5d4fcbf63e00296fd95d33236b9794016631000000000000000000000000ad9ef19e289dcbc9ab27b83d2df53cdeff60f02d00000000000000000000000000000000000000000000002b5c2284c37ac874e8",
                    "decodedMethod": {
                        "callParams": [
                            {
                                "name": "from",
                                "type": "address",
                                "value": "0x74de5d4fcbf63e00296fd95d33236b9794016631"
                            },
                            {
                                "name": "to",
                                "type": "address",
                                "value": "0xad9ef19e289dcbc9ab27b83d2df53cdeff60f02d"
                            },
                            {
                                "decimalAvailable": true,
                                "name": "amount",
                                "type": "uint256",
                                "value": "799,849,009,945,321,698,536"
                            }
                        ],
                        "constructorArguments": "",
                        "name": "transferFrom",
                        "returnParams": [
                            {
                                "name": "",
                                "type": "bool",
                                "value": true
                            }
                        ],
                        "signature": "transferFrom(address,address,uint256)"
                    },
                    "errorInfo": "",
                    "fromAddress": "0x1111111254eeb25477b68fb85ed929f73a960582",
                    "gasUsed": 6173,
                    "id": 15,
                    "methodDecoded": true,
                    "operation": "CALL",
                    "output": "0x0000000000000000000000000000000000000000000000000000000000000001",
                    "revert": false,
                    "revertMessage": "",
                    "selector": "0x23b872dd",
                    "status": true,
                    "value": "0"
                },
                "nodeType": 0
            },
            "16": {
                "event": {
                    "contract": "0x15e6e0d4ebeac120f9a97e71faa6a0235b85ed12",
                    "decodedLog": {
                        "name": "Transfer",
                        "params": [
                            {
                                "name": "from",
                                "type": "address",
                                "value": "0x74de5d4fcbf63e00296fd95d33236b9794016631"
                            },
                            {
                                "name": "to",
                                "type": "address",
                                "value": "0xad9ef19e289dcbc9ab27b83d2df53cdeff60f02d"
                            },
                            {
                                "decimalAvailable": true,
                                "name": "value",
                                "type": "uint256",
                                "value": "799,849,009,945,321,698,536"
                            }
                        ],
                        "signature": "Transfer(address,address,uint256)"
                    },
                    "id": 16,
                    "logData": "0x00000000000000000000000000000000000000000000002b5c2284c37ac874e8",
                    "logDecoded": true,
                    "operation": "EVENT",
                    "revert": false,
                    "status": true,
                    "topics": [
                        "0xddf252ad1be2c89b69c2b068fc378daa952ba7f163c4a11628f55a4df523b3ef",
                        "0x00000000000000000000000074de5d4fcbf63e00296fd95d33236b9794016631",
                        "0x000000000000000000000000ad9ef19e289dcbc9ab27b83d2df53cdeff60f02d"
                    ]
                },
                "nodeType": 1
            },
            "17": {
                "invocation": {
                    "address": "0x15e6e0d4ebeac120f9a97e71faa6a0235b85ed12",
                    "callData": "0x000000000000000000000000ad9ef19e289dcbc9ab27b83d2df53cdeff60f02d",
                    "decodedMethod": {
                        "callParams": [
                            {
                                "name": "",
                                "type": "address",
                                "value": "0xad9ef19e289dcbc9ab27b83d2df53cdeff60f02d"
                            }
                        ],
                        "constructorArguments": "",
                        "name": "balanceOf",
                        "returnParams": [
                            {
                                "decimalAvailable": true,
                                "name": "",
                                "type": "uint256",
                                "value": "449,060,835,721,962,486,908,552"
                            }
                        ],
                        "signature": "balanceOf(address)"
                    },
                    "errorInfo": "",
                    "fromAddress": "0xad9ef19e289dcbc9ab27b83d2df53cdeff60f02d",
                    "gasUsed": 586,
                    "id": 17,
                    "methodDecoded": true,
                    "operation": "STATICCALL",
                    "output": "0x000000000000000000000000000000000000000000005f17a2fdaed923164688",
                    "revert": false,
                    "revertMessage": "",
                    "selector": "0x70a08231",
                    "status": true,
                    "value": "0"
                },
                "nodeType": 0
            },
            "18": {
                "event": {
                    "contract": "0xad9ef19e289dcbc9ab27b83d2df53cdeff60f02d",
                    "decodedLog": {
                        "name": "Swap",
                        "params": [
                            {
                                "name": "sender",
                                "type": "address",
                                "value": "0x1111111254eeb25477b68fb85ed929f73a960582"
                            },
                            {
                                "name": "recipient",
                                "type": "address",
                                "value": "0x1111111254eeb25477b68fb85ed929f73a960582"
                            },
                            {
                                "name": "amount0",
                                "type": "int256",
                                "value": "799,849,009,945,321,698,536"
                            },
                            {
                                "name": "amount1",
                                "type": "int256",
                                "value": "-1,970,167,524,069,260,509"
                            },
                            {
                                "name": "sqrtPriceX96",
                                "type": "uint160",
                                "value": "3,949,468,278,260,122,237,078,391,613"
                            },
                            {
                                "name": "liquidity",
                                "type": "uint128",
                                "value": "31,657,200,480,684,775,294,169"
                            },
                            {
                                "name": "tick",
                                "type": "int24",
                                "value": "-59,979"
                            }
                        ],
                        "signature": "Swap(address,address,int256,int256,uint160,uint128,int24)"
                    },
                    "id": 18,
                    "logData": "0x00000000000000000000000000000000000000000000002b5c2284c37ac874e8ffffffffffffffffffffffffffffffffffffffffffffffffe4a88f1343d7432300000000000000000000000000000000000000000cc2ec705f63663b3354cb3d0000000000000000000000000000000000000000000006b423e92e256d5fc4d9ffffffffffffffffffffffffffffffffffffffffffffffffffffffffffff15b5",
                    "logDecoded": true,
                    "operation": "EVENT",
                    "revert": false,
                    "status": true,
                    "topics": [
                        "0xc42079f94a6350d7e6235f29174924f928cc2ac818eb64fed8004e115fbcca67",
                        "0x0000000000000000000000001111111254eeb25477b68fb85ed929f73a960582",
                        "0x0000000000000000000000001111111254eeb25477b68fb85ed929f73a960582"
                    ]
                },
                "nodeType": 1
            },
            "19": {
                "invocation": {
                    "address": "0xc02aaa39b223fe8d0a0e5c4f27ead9083c756cc2",
                    "callData": "0x0000000000000000000000000000000000000000000000001b5770ecbc28bcdd",
                    "decodedMethod": {
                        "callParams": [
                            {
                                "name": "wad",
                                "type": "uint256",
                                "value": "1,970,167,524,069,260,509"
                            }
                        ],
                        "constructorArguments": "",
                        "name": "withdraw",
                        "returnParams": [],
                        "signature": "withdraw(uint256)"
                    },
                    "errorInfo": "",
                    "fromAddress": "0x1111111254eeb25477b68fb85ed929f73a960582",
                    "gasUsed": 9264,
                    "id": 19,
                    "methodDecoded": true,
                    "operation": "CALL",
                    "output": "",
                    "revert": false,
                    "revertMessage": "",
                    "selector": "0x2e1a7d4d",
                    "status": true,
                    "value": "0"
                },
                "nodeType": 0
            },
            "2": {
                "event": {
                    "contract": "0x15e6e0d4ebeac120f9a97e71faa6a0235b85ed12",
                    "decodedLog": {
                        "name": "Transfer",
                        "params": [
                            {
                                "name": "from",
                                "type": "address",
                                "value": "0x7354c2be97de61ccd9970913a88c88a7b80e7c84"
                            },
                            {
                                "name": "to",
                                "type": "address",
                                "value": "0x74de5d4fcbf63e00296fd95d33236b9794016631"
                            },
                            {
                                "decimalAvailable": true,
                                "name": "value",
                                "type": "uint256",
                                "value": "799,849,009,945,321,698,536"
                            }
                        ],
                        "signature": "Transfer(address,address,uint256)"
                    },
                    "id": 2,
                    "logData": "0x00000000000000000000000000000000000000000000002b5c2284c37ac874e8",
                    "logDecoded": true,
                    "operation": "EVENT",
                    "revert": false,
                    "status": true,
                    "topics": [
                        "0xddf252ad1be2c89b69c2b068fc378daa952ba7f163c4a11628f55a4df523b3ef",
                        "0x0000000000000000000000007354c2be97de61ccd9970913a88c88a7b80e7c84",
                        "0x00000000000000000000000074de5d4fcbf63e00296fd95d33236b9794016631"
                    ]
                },
                "nodeType": 1
            },
            "20": {
                "invocation": {
                    "address": "0x1111111254eeb25477b68fb85ed929f73a960582",
                    "callData": "0x",
                    "decodedMethod": null,
                    "errorInfo": "",
                    "fromAddress": "0xc02aaa39b223fe8d0a0e5c4f27ead9083c756cc2",
                    "gasUsed": 124,
                    "id": 20,
                    "methodDecoded": false,
                    "operation": "CALL",
                    "output": "",
                    "revert": false,
                    "revertMessage": "",
                    "selector": "fallback",
                    "status": true,
                    "value": "1.970167524069260509"
                },
                "nodeType": 0
            },
            "21": {
                "event": {
                    "contract": "0xc02aaa39b223fe8d0a0e5c4f27ead9083c756cc2",
                    "decodedLog": {
                        "name": "Withdrawal",
                        "params": [
                            {
                                "name": "src",
                                "type": "address",
                                "value": "0x1111111254eeb25477b68fb85ed929f73a960582"
                            },
                            {
                                "name": "wad",
                                "type": "uint256",
                                "value": "1,970,167,524,069,260,509"
                            }
                        ],
                        "signature": "Withdrawal(address,uint256)"
                    },
                    "id": 21,
                    "logData": "0x0000000000000000000000000000000000000000000000001b5770ecbc28bcdd",
                    "logDecoded": true,
                    "operation": "EVENT",
                    "revert": false,
                    "status": true,
                    "topics": [
                        "0x7fcf532c15f0a6db0bd6d0e038bea71d30d808c7d98cb3bf7268a95bf5081b65",
                        "0x0000000000000000000000001111111254eeb25477b68fb85ed929f73a960582"
                    ]
                },
                "nodeType": 1
            },
            "22": {
                "invocation": {
                    "address": "0x74de5d4fcbf63e00296fd95d33236b9794016631",
                    "callData": "0x",
                    "decodedMethod": null,
                    "errorInfo": "",
                    "fromAddress": "0x1111111254eeb25477b68fb85ed929f73a960582",
                    "gasUsed": 40,
                    "id": 22,
                    "methodDecoded": false,
                    "operation": "CALL",
                    "output": "",
                    "revert": false,
                    "revertMessage": "",
                    "selector": "fallback",
                    "status": true,
                    "value": "1.970167524069260509"
                },
                "nodeType": 0
            },
            "23": {
                "invocation": {
                    "address": "0xf326e4de8f66a0bdc0970b79e0924e33c79f1915",
                    "callData": "0x",
                    "decodedMethod": null,
                    "errorInfo": "",
                    "fromAddress": "0x74de5d4fcbf63e00296fd95d33236b9794016631",
                    "gasUsed": 6329,
                    "id": 23,
                    "methodDecoded": false,
                    "operation": "CALL",
                    "output": "",
                    "revert": false,
                    "revertMessage": "",
                    "selector": "fallback",
                    "status": true,
                    "value": "0.017238965835606029"
                },
                "nodeType": 0
            },
            "24": {
                "invocation": {
                    "address": "0xd9db270c1b5e3bd161e8c8503c55ceabee709552",
                    "callData": "0x",
                    "decodedMethod": null,
                    "errorInfo": "",
                    "fromAddress": "0xf326e4de8f66a0bdc0970b79e0924e33c79f1915",
                    "gasUsed": 1504,
                    "id": 24,
                    "methodDecoded": false,
                    "operation": "DELEGATECALL",
                    "output": "",
                    "revert": false,
                    "revertMessage": "",
                    "selector": "fallback",
                    "status": true,
                    "value": "0.017238965835606029"
                },
                "nodeType": 0
            },
            "25": {
                "event": {
                    "contract": "0xf326e4de8f66a0bdc0970b79e0924e33c79f1915",
                    "decodedLog": {
                        "name": "SafeReceived",
                        "params": [
                            {
                                "name": "sender",
                                "type": "address",
                                "value": "0x74de5d4fcbf63e00296fd95d33236b9794016631"
                            },
                            {
                                "name": "value",
                                "type": "uint256",
                                "value": "17,238,965,835,606,029"
                            }
                        ],
                        "signature": "SafeReceived(address,uint256)"
                    },
                    "id": 25,
                    "logData": "0x000000000000000000000000000000000000000000000000003d3ebf82ed280d",
                    "logDecoded": true,
                    "operation": "EVENT",
                    "revert": false,
                    "status": true,
                    "topics": [
                        "0x3d0ce9bfc3ed7d6862dbb28b2dea94561fe714a1b4d019aa8af39730d1ad7c3d",
                        "0x00000000000000000000000074de5d4fcbf63e00296fd95d33236b9794016631"
                    ]
                },
                "nodeType": 1
            },
            "26": {
                "invocation": {
                    "address": "0x15e6e0d4ebeac120f9a97e71faa6a0235b85ed12",
                    "callData": "0x00000000000000000000000074de5d4fcbf63e00296fd95d33236b9794016631",
                    "decodedMethod": {
                        "callParams": [
                            {
                                "name": "",
                                "type": "address",
                                "value": "0x74de5d4fcbf63e00296fd95d33236b9794016631"
                            }
                        ],
                        "constructorArguments": "",
                        "name": "balanceOf",
                        "returnParams": [
                            {
                                "decimalAvailable": true,
                                "name": "",
                                "type": "uint256",
                                "value": "0"
                            }
                        ],
                        "signature": "balanceOf(address)"
                    },
                    "errorInfo": "",
                    "fromAddress": "0x74de5d4fcbf63e00296fd95d33236b9794016631",
                    "gasUsed": 586,
                    "id": 26,
                    "methodDecoded": true,
                    "operation": "STATICCALL",
                    "output": "0x0000000000000000000000000000000000000000000000000000000000000000",
                    "revert": false,
                    "revertMessage": "",
                    "selector": "0x70a08231",
                    "status": true,
                    "value": "0"
                },
                "nodeType": 0
            },
            "27": {
                "invocation": {
                    "address": "0x7354c2be97de61ccd9970913a88c88a7b80e7c84",
                    "callData": "0x",
                    "decodedMethod": null,
                    "errorInfo": "",
                    "fromAddress": "0x74de5d4fcbf63e00296fd95d33236b9794016631",
                    "gasUsed": 0,
                    "id": 27,
                    "methodDecoded": false,
                    "operation": "CALL",
                    "output": "",
                    "revert": false,
                    "revertMessage": "",
                    "selector": "fallback",
                    "status": true,
                    "value": "1.95292855823365448"
                },
                "nodeType": 0
            },
            "28": {
                "event": {
                    "contract": "0x881d40237659c251811cec9c364ef91dc08d300c",
                    "decodedLog": {
                        "name": "Swap",
                        "params": [
                            {
                                "name": "aggregatorId",
                                "type": "string",
                                "value": "0xf35f348d53012d52a5d39f9390d246956ac932d5778d2bb49e359dba4fa0896d"
                            },
                            {
                                "name": "sender",
                                "type": "address",
                                "value": "0x7354c2be97de61ccd9970913a88c88a7b80e7c84"
                            }
                        ],
                        "signature": "Swap(string,address)"
                    },
                    "id": 28,
                    "logData": "0x",
                    "logDecoded": true,
                    "operation": "EVENT",
                    "revert": false,
                    "status": true,
                    "topics": [
                        "0xbeee1e6e7fe307ddcf84b0a16137a4430ad5e2480fc4f4a8e250ab56ccd7630d",
                        "0xf35f348d53012d52a5d39f9390d246956ac932d5778d2bb49e359dba4fa0896d",
                        "0x0000000000000000000000007354c2be97de61ccd9970913a88c88a7b80e7c84"
                    ]
                },
                "nodeType": 1
            },
            "3": {
                "invocation": {
                    "address": "0x74de5d4fcbf63e00296fd95d33236b9794016631",
                    "callData": "0x0000000000000000000000007cdf68ce9a05413cbb76cb7f80eaf415a826e3130000000000000000000000000000000000000000000000000000000000000040000000000000000000000000000000000000000000000000000000000000020492f5f0370000000000000000000000007354c2be97de61ccd9970913a88c88a7b80e7c8400000000000000000000000015e6e0d4ebeac120f9a97e71faa6a0235b85ed12000000000000000000000000000000000000000000000000000000000000000000000000000000000000000000000000000000000000002b5c2284c37ac874e80000000000000000000000000000000000000000000000001a8f6e9cf587308e0000000000000000000000000000000000000000000000000000000000000120000000000000000000000000000000000000000000000000003d3ebf82ed280d000000000000000000000000f326e4de8f66a0bdc0970b79e0924e33c79f1915000000000000000000000000000000000000000000000000000000000000000100000000000000000000000000000000000000000000000000000000000000a8e449022e00000000000000000000000000000000000000000000002b5c2284c37ac874e80000000000000000000000000000000000000000000000001acb73c947c185e200000000000000000000000000000000000000000000000000000000000000600000000000000000000000000000000000000000000000000000000000000001200000000000000000000000ad9ef19e289dcbc9ab27b83d2df53cdeff60f02dab4991fe00000000000000000000000000000000000000000000000000000000000000000000000000000000000000000000000000000000",
                    "decodedMethod": {
                        "callParams": [
                            {
                                "name": "adapter",
                                "type": "address",
                                "value": "0x7cdf68ce9a05413cbb76cb7f80eaf415a826e313"
                            },
                            {
                                "name": "data",
                                "type": "bytes",
                                "value": "0x92f5f0370000000000000000000000007354c2be97de61ccd9970913a88c88a7b80e7c8400000000000000000000000015e6e0d4ebeac120f9a97e71faa6a0235b85ed12000000000000000000000000000000000000000000000000000000000000000000000000000000000000000000000000000000000000002b5c2284c37ac874e80000000000000000000000000000000000000000000000001a8f6e9cf587308e0000000000000000000000000000000000000000000000000000000000000120000000000000000000000000000000000000000000000000003d3ebf82ed280d000000000000000000000000f326e4de8f66a0bdc0970b79e0924e33c79f1915000000000000000000000000000000000000000000000000000000000000000100000000000000000000000000000000000000000000000000000000000000a8e449022e00000000000000000000000000000000000000000000002b5c2284c37ac874e80000000000000000000000000000000000000000000000001acb73c947c185e200000000000000000000000000000000000000000000000000000000000000600000000000000000000000000000000000000000000000000000000000000001200000000000000000000000ad9ef19e289dcbc9ab27b83d2df53cdeff60f02dab4991fe000000000000000000000000000000000000000000000000"
                            }
                        ],
                        "constructorArguments": "",
                        "name": "swap",
                        "returnParams": [],
                        "signature": "swap(address,bytes)"
                    },
                    "errorInfo": "",
                    "fromAddress": "0x881d40237659c251811cec9c364ef91dc08d300c",
                    "gasUsed": 127149,
                    "id": 3,
                    "methodDecoded": true,
                    "operation": "CALL",
                    "output": "",
                    "revert": false,
                    "revertMessage": "",
                    "selector": "0xe3547335",
                    "status": true,
                    "value": "0"
                },
                "nodeType": 0
            },
            "4": {
                "invocation": {
                    "address": "0x7cdf68ce9a05413cbb76cb7f80eaf415a826e313",
                    "callData": "0x0000000000000000000000007354c2be97de61ccd9970913a88c88a7b80e7c8400000000000000000000000015e6e0d4ebeac120f9a97e71faa6a0235b85ed12000000000000000000000000000000000000000000000000000000000000000000000000000000000000000000000000000000000000002b5c2284c37ac874e80000000000000000000000000000000000000000000000001a8f6e9cf587308e0000000000000000000000000000000000000000000000000000000000000120000000000000000000000000000000000000000000000000003d3ebf82ed280d000000000000000000000000f326e4de8f66a0bdc0970b79e0924e33c79f1915000000000000000000000000000000000000000000000000000000000000000100000000000000000000000000000000000000000000000000000000000000a8e449022e00000000000000000000000000000000000000000000002b5c2284c37ac874e80000000000000000000000000000000000000000000000001acb73c947c185e200000000000000000000000000000000000000000000000000000000000000600000000000000000000000000000000000000000000000000000000000000001200000000000000000000000ad9ef19e289dcbc9ab27b83d2df53cdeff60f02dab4991fe000000000000000000000000000000000000000000000000",
                    "decodedMethod": null,
                    "errorInfo": "",
                    "fromAddress": "0x74de5d4fcbf63e00296fd95d33236b9794016631",
                    "gasUsed": 122113,
                    "id": 4,
                    "methodDecoded": false,
                    "operation": "DELEGATECALL",
                    "output": "",
                    "revert": false,
                    "revertMessage": "",
                    "selector": "0x92f5f037",
                    "status": true,
                    "value": "0"
                },
                "nodeType": 0
            },
            "5": {
                "invocation": {
                    "address": "0x15e6e0d4ebeac120f9a97e71faa6a0235b85ed12",
                    "callData": "0x00000000000000000000000074de5d4fcbf63e00296fd95d33236b97940166310000000000000000000000001111111254eeb25477b68fb85ed929f73a960582",
                    "decodedMethod": {
                        "callParams": [
                            {
                                "name": "",
                                "type": "address",
                                "value": "0x74de5d4fcbf63e00296fd95d33236b9794016631"
                            },
                            {
                                "name": "",
                                "type": "address",
                                "value": "0x1111111254eeb25477b68fb85ed929f73a960582"
                            }
                        ],
                        "constructorArguments": "",
                        "name": "allowance",
                        "returnParams": [
                            {
                                "decimalAvailable": true,
                                "name": "",
                                "type": "uint256",
                                "value": "115,792,089,237,316,195,423,570,985,008,687,907,853,269,984,665,640,564,039,457,584,007,913,129,639,935"
                            }
                        ],
                        "signature": "allowance(address,address)"
                    },
                    "errorInfo": "",
                    "fromAddress": "0x74de5d4fcbf63e00296fd95d33236b9794016631",
                    "gasUsed": 2803,
                    "id": 5,
                    "methodDecoded": true,
                    "operation": "STATICCALL",
                    "output": "0xffffffffffffffffffffffffffffffffffffffffffffffffffffffffffffffff",
                    "revert": false,
                    "revertMessage": "",
                    "selector": "0xdd62ed3e",
                    "status": true,
                    "value": "0"
                },
                "nodeType": 0
            },
            "6": {
                "invocation": {
                    "address": "0x1111111254eeb25477b68fb85ed929f73a960582",
                    "callData": "0x00000000000000000000000000000000000000000000002b5c2284c37ac874e80000000000000000000000000000000000000000000000001acb73c947c185e200000000000000000000000000000000000000000000000000000000000000600000000000000000000000000000000000000000000000000000000000000001200000000000000000000000ad9ef19e289dcbc9ab27b83d2df53cdeff60f02dab4991fe",
                    "decodedMethod": {
                        "callParams": [
                            {
                                "name": "amount",
                                "type": "uint256",
                                "value": "799,849,009,945,321,698,536"
                            },
                            {
                                "name": "minReturn",
                                "type": "uint256",
                                "value": "1,930,764,173,587,875,298"
                            },
                            {
                                "name": "pools",
                                "type": "uint256[]",
                                "value": [
                                    "14,474,011,154,664,524,427,946,373,127,077,188,450,632,152,130,826,652,867,191,765,482,834,363,478,061"
                                ]
                            }
                        ],
                        "constructorArguments": "",
                        "name": "uniswapV3Swap",
                        "returnParams": [
                            {
                                "name": "returnAmount",
                                "type": "uint256",
                                "value": "1,970,167,524,069,260,509"
                            }
                        ],
                        "signature": "uniswapV3Swap(uint256,uint256,uint256[])"
                    },
                    "errorInfo": "",
                    "fromAddress": "0x74de5d4fcbf63e00296fd95d33236b9794016631",
                    "gasUsed": 89869,
                    "id": 6,
                    "methodDecoded": true,
                    "operation": "CALL",
                    "output": "0x0000000000000000000000000000000000000000000000001b5770ecbc28bcdd",
                    "revert": false,
                    "revertMessage": "",
                    "selector": "0xe449022e",
                    "status": true,
                    "value": "0"
                },
                "nodeType": 0
            },
            "7": {
                "invocation": {
                    "address": "0xad9ef19e289dcbc9ab27b83d2df53cdeff60f02d",
                    "callData": "0x0000000000000000000000001111111254eeb25477b68fb85ed929f73a960582000000000000000000000000000000000000000000000000000000000000000100000000000000000000000000000000000000000000002b5c2284c37ac874e800000000000000000000000000000000000000000000000000000001000276a400000000000000000000000000000000000000000000000000000000000000a0000000000000000000000000000000000000000000000000000000000000002000000000000000000000000074de5d4fcbf63e00296fd95d33236b9794016631",
                    "decodedMethod": {
                        "callParams": [
                            {
                                "name": "recipient",
                                "type": "address",
                                "value": "0x1111111254eeb25477b68fb85ed929f73a960582"
                            },
                            {
                                "name": "zeroForOne",
                                "type": "bool",
                                "value": true
                            },
                            {
                                "name": "amountSpecified",
                                "type": "int256",
                                "value": "799,849,009,945,321,698,536"
                            },
                            {
                                "name": "sqrtPriceLimitX96",
                                "type": "uint160",
                                "value": "4,295,128,740"
                            },
                            {
                                "name": "data",
                                "type": "bytes",
                                "value": "0x00000000000000000000000074de5d4fcbf63e00296fd95d33236b9794016631"
                            }
                        ],
                        "constructorArguments": "",
                        "name": "swap",
                        "returnParams": [
                            {
                                "name": "amount0",
                                "type": "int256",
                                "value": "799,849,009,945,321,698,536"
                            },
                            {
                                "name": "amount1",
                                "type": "int256",
                                "value": "-1,970,167,524,069,260,509"
                            }
                        ],
                        "signature": "swap(address,bool,int256,uint160,bytes)"
                    },
                    "errorInfo": "",
                    "fromAddress": "0x1111111254eeb25477b68fb85ed929f73a960582",
                    "gasUsed": 68436,
                    "id": 7,
                    "methodDecoded": true,
                    "operation": "CALL",
                    "output": "0x00000000000000000000000000000000000000000000002b5c2284c37ac874e8ffffffffffffffffffffffffffffffffffffffffffffffffe4a88f1343d74323",
                    "revert": false,
                    "revertMessage": "",
                    "selector": "0x128acb08",
                    "status": true,
                    "value": "0"
                },
                "nodeType": 0
            },
            "8": {
                "invocation": {
                    "address": "0xc02aaa39b223fe8d0a0e5c4f27ead9083c756cc2",
                    "callData": "0x0000000000000000000000001111111254eeb25477b68fb85ed929f73a9605820000000000000000000000000000000000000000000000001b5770ecbc28bcdd",
                    "decodedMethod": {
                        "callParams": [
                            {
                                "name": "dst",
                                "type": "address",
                                "value": "0x1111111254eeb25477b68fb85ed929f73a960582"
                            },
                            {
                                "decimalAvailable": true,
                                "name": "wad",
                                "type": "uint256",
                                "value": "1,970,167,524,069,260,509"
                            }
                        ],
                        "constructorArguments": "",
                        "name": "transfer",
                        "returnParams": [
                            {
                                "name": "",
                                "type": "bool",
                                "value": true
                            }
                        ],
                        "signature": "transfer(address,uint256)"
                    },
                    "errorInfo": "",
                    "fromAddress": "0xad9ef19e289dcbc9ab27b83d2df53cdeff60f02d",
                    "gasUsed": 12862,
                    "id": 8,
                    "methodDecoded": true,
                    "operation": "CALL",
                    "output": "0x0000000000000000000000000000000000000000000000000000000000000001",
                    "revert": false,
                    "revertMessage": "",
                    "selector": "0xa9059cbb",
                    "status": true,
                    "value": "0"
                },
                "nodeType": 0
            },
            "9": {
                "event": {
                    "contract": "0xc02aaa39b223fe8d0a0e5c4f27ead9083c756cc2",
                    "decodedLog": {
                        "name": "Transfer",
                        "params": [
                            {
                                "name": "src",
                                "type": "address",
                                "value": "0xad9ef19e289dcbc9ab27b83d2df53cdeff60f02d"
                            },
                            {
                                "name": "dst",
                                "type": "address",
                                "value": "0x1111111254eeb25477b68fb85ed929f73a960582"
                            },
                            {
                                "decimalAvailable": true,
                                "name": "wad",
                                "type": "uint256",
                                "value": "1,970,167,524,069,260,509"
                            }
                        ],
                        "signature": "Transfer(address,address,uint256)"
                    },
                    "id": 9,
                    "logData": "0x0000000000000000000000000000000000000000000000001b5770ecbc28bcdd",
                    "logDecoded": true,
                    "operation": "EVENT",
                    "revert": false,
                    "status": true,
                    "topics": [
                        "0xddf252ad1be2c89b69c2b068fc378daa952ba7f163c4a11628f55a4df523b3ef",
                        "0x000000000000000000000000ad9ef19e289dcbc9ab27b83d2df53cdeff60f02d",
                        "0x0000000000000000000000001111111254eeb25477b68fb85ed929f73a960582"
                    ]
                },
                "nodeType": 1
            }
        },
        "gasFlame": [
            {
                "children": [
                    {
                        "children": [
                            {
                                "children": [],
                                "depth": 0,
                                "name": "Initial Gas",
                                "value": 25928
                            },
                            {
                                "children": [
                                    {
                                        "children": [],
                                        "depth": 1,
                                        "name": "transferFrom",
                                        "value": 32073
                                    },
                                    {
                                        "children": [
                                            {
                                                "children": [
                                                    {
                                                        "children": [],
                                                        "depth": 3,
                                                        "name": "allowance",
                                                        "value": 2803
                                                    },
                                                    {
                                                        "children": [
                                                            {
                                                                "children": [
                                                                    {
                                                                        "children": [],
                                                                        "depth": 5,
                                                                        "name": "transfer",
                                                                        "value": 12862
                                                                    },
                                                                    {
                                                                        "children": [],
                                                                        "depth": 5,
                                                                        "name": "balanceOf",
                                                                        "value": 2586
                                                                    },
                                                                    {
                                                                        "children": [
                                                                            {
                                                                                "children": [],
                                                                                "depth": 6,
                                                                                "name": "token0",
                                                                                "value": 266
                                                                            },
                                                                            {
                                                                                "children": [],
                                                                                "depth": 6,
                                                                                "name": "token1",
                                                                                "value": 308
                                                                            },
                                                                            {
                                                                                "children": [],
                                                                                "depth": 6,
                                                                                "name": "fee",
                                                                                "value": 251
                                                                            },
                                                                            {
                                                                                "children": [],
                                                                                "depth": 6,
                                                                                "name": "transferFrom",
                                                                                "value": 6173
                                                                            }
                                                                        ],
                                                                        "depth": 5,
                                                                        "name": "uniswapV3SwapCallback",
                                                                        "value": 8640
                                                                    },
                                                                    {
                                                                        "children": [],
                                                                        "depth": 5,
                                                                        "name": "balanceOf",
                                                                        "value": 586
                                                                    }
                                                                ],
                                                                "depth": 4,
                                                                "name": "swap",
                                                                "value": 68436
                                                            },
                                                            {
                                                                "children": [
                                                                    {
                                                                        "children": [],
                                                                        "depth": 5,
                                                                        "name": "fallback",
                                                                        "value": 124
                                                                    }
                                                                ],
                                                                "depth": 4,
                                                                "name": "withdraw",
                                                                "value": 9264
                                                            },
                                                            {
                                                                "children": [],
                                                                "depth": 4,
                                                                "name": "fallback",
                                                                "value": 40
                                                            }
                                                        ],
                                                        "depth": 3,
                                                        "name": "uniswapV3Swap",
                                                        "value": 89869
                                                    },
                                                    {
                                                        "children": [
                                                            {
                                                                "children": [],
                                                                "depth": 4,
                                                                "name": "fallback",
                                                                "value": 1504
                                                            }
                                                        ],
                                                        "depth": 3,
                                                        "name": "fallback",
                                                        "value": 6329
                                                    },
                                                    {
                                                        "children": [],
                                                        "depth": 3,
                                                        "name": "balanceOf",
                                                        "value": 586
                                                    },
                                                    {
                                                        "children": [],
                                                        "depth": 3,
                                                        "name": "fallback",
                                                        "value": 0
                                                    }
                                                ],
                                                "depth": 2,
                                                "name": "0x92f5f037",
                                                "value": 122113
                                            }
                                        ],
                                        "depth": 1,
                                        "name": "swap",
                                        "value": 127149
                                    }
                                ],
                                "depth": 0,
                                "name": "Executed Gas",
                                "value": 182183
                            }
                        ],
                        "depth": -1,
                        "name": "Actual Gas Used",
                        "value": 177811
                    },
                    {
                        "children": [],
                        "depth": -1,
                        "name": "Refunded Gas",
                        "value": 30300
                    }
                ],
                "depth": -2,
                "name": "Total Gas",
                "value": 208111
            }
        ],
        "isConfirmed": true,
        "mainTrace": [
            {
                "children": [
                    {
                        "children": [
                            {
                                "children": [
                                    {
                                        "children": [],
                                        "depth": 2,
                                        "id": 2,
                                        "order": 2
                                    }
                                ],
                                "depth": 1,
                                "id": 1,
                                "order": 1
                            },
                            {
                                "children": [
                                    {
                                        "children": [
                                            {
                                                "children": [],
                                                "depth": 3,
                                                "id": 5,
                                                "order": 5
                                            },
                                            {
                                                "children": [
                                                    {
                                                        "children": [
                                                            {
                                                                "children": [
                                                                    {
                                                                        "children": [],
                                                                        "depth": 6,
                                                                        "id": 9,
                                                                        "order": 9
                                                                    }
                                                                ],
                                                                "depth": 5,
                                                                "id": 8,
                                                                "order": 8
                                                            },
                                                            {
                                                                "children": [],
                                                                "depth": 5,
                                                                "id": 10,
                                                                "order": 10
                                                            },
                                                            {
                                                                "children": [
                                                                    {
                                                                        "children": [],
                                                                        "depth": 6,
                                                                        "id": 12,
                                                                        "order": 12
                                                                    },
                                                                    {
                                                                        "children": [],
                                                                        "depth": 6,
                                                                        "id": 13,
                                                                        "order": 13
                                                                    },
                                                                    {
                                                                        "children": [],
                                                                        "depth": 6,
                                                                        "id": 14,
                                                                        "order": 14
                                                                    },
                                                                    {
                                                                        "children": [
                                                                            {
                                                                                "children": [],
                                                                                "depth": 7,
                                                                                "id": 16,
                                                                                "order": 16
                                                                            }
                                                                        ],
                                                                        "depth": 6,
                                                                        "id": 15,
                                                                        "order": 15
                                                                    }
                                                                ],
                                                                "depth": 5,
                                                                "id": 11,
                                                                "order": 11
                                                            },
                                                            {
                                                                "children": [],
                                                                "depth": 5,
                                                                "id": 17,
                                                                "order": 17
                                                            },
                                                            {
                                                                "children": [],
                                                                "depth": 5,
                                                                "id": 18,
                                                                "order": 18
                                                            }
                                                        ],
                                                        "depth": 4,
                                                        "id": 7,
                                                        "order": 7
                                                    },
                                                    {
                                                        "children": [
                                                            {
                                                                "children": [],
                                                                "depth": 5,
                                                                "id": 20,
                                                                "order": 20
                                                            },
                                                            {
                                                                "children": [],
                                                                "depth": 5,
                                                                "id": 21,
                                                                "order": 21
                                                            }
                                                        ],
                                                        "depth": 4,
                                                        "id": 19,
                                                        "order": 19
                                                    },
                                                    {
                                                        "children": [],
                                                        "depth": 4,
                                                        "id": 22,
                                                        "order": 22
                                                    }
                                                ],
                                                "depth": 3,
                                                "id": 6,
                                                "order": 6
                                            },
                                            {
                                                "children": [
                                                    {
                                                        "children": [
                                                            {
                                                                "children": [],
                                                                "depth": 5,
                                                                "id": 25,
                                                                "order": 25
                                                            }
                                                        ],
                                                        "depth": 4,
                                                        "id": 24,
                                                        "order": 24
                                                    }
                                                ],
                                                "depth": 3,
                                                "id": 23,
                                                "order": 23
                                            },
                                            {
                                                "children": [],
                                                "depth": 3,
                                                "id": 26,
                                                "order": 26
                                            },
                                            {
                                                "children": [],
                                                "depth": 3,
                                                "id": 27,
                                                "order": 27
                                            }
                                        ],
                                        "depth": 2,
                                        "id": 4,
                                        "order": 4
                                    }
                                ],
                                "depth": 1,
                                "id": 3,
                                "order": 3
                            },
                            {
                                "children": [],
                                "depth": 1,
                                "id": 28,
                                "order": 28
                            }
                        ],
                        "depth": 0,
                        "id": 0,
                        "order": 0
                    }
                ],
                "depth": -1,
                "id": -1,
                "order": -1
            }
        ],
        "mainTraceNodeCount": 29,
        "parentIdMap": {
            "0": -1,
            "1": 0,
            "10": 7,
            "11": 7,
            "12": 11,
            "13": 11,
            "14": 11,
            "15": 11,
            "16": 15,
            "17": 7,
            "18": 7,
            "19": 6,
            "2": 1,
            "20": 19,
            "21": 19,
            "22": 6,
            "23": 4,
            "24": 23,
            "25": 24,
            "26": 4,
            "27": 4,
            "28": 0,
            "3": 0,
            "4": 3,
            "5": 4,
            "6": 4,
            "7": 6,
            "8": 7,
            "9": 8
        },
        "tidyTrace": [
            {
                "children": [
                    {
                        "children": [
                            {
                                "children": [
                                    {
                                        "children": [],
                                        "depth": 2,
                                        "id": 2,
                                        "order": 2
                                    }
                                ],
                                "depth": 1,
                                "id": 1,
                                "order": 1
                            },
                            {
                                "children": [
                                    {
                                        "children": [
                                            {
                                                "children": [
                                                    {
                                                        "children": [
                                                            {
                                                                "children": [
                                                                    {
                                                                        "children": [],
                                                                        "depth": 6,
                                                                        "id": 9,
                                                                        "order": 9
                                                                    }
                                                                ],
                                                                "depth": 5,
                                                                "id": 8,
                                                                "order": 8
                                                            },
                                                            {
                                                                "children": [
                                                                    {
                                                                        "children": [
                                                                            {
                                                                                "children": [],
                                                                                "depth": 7,
                                                                                "id": 16,
                                                                                "order": 16
                                                                            }
                                                                        ],
                                                                        "depth": 6,
                                                                        "id": 15,
                                                                        "order": 15
                                                                    }
                                                                ],
                                                                "depth": 5,
                                                                "id": 11,
                                                                "order": 11
                                                            },
                                                            {
                                                                "children": [],
                                                                "depth": 5,
                                                                "id": 18,
                                                                "order": 18
                                                            }
                                                        ],
                                                        "depth": 4,
                                                        "id": 7,
                                                        "order": 7
                                                    },
                                                    {
                                                        "children": [
                                                            {
                                                                "children": [],
                                                                "depth": 5,
                                                                "id": 20,
                                                                "order": 20
                                                            },
                                                            {
                                                                "children": [],
                                                                "depth": 5,
                                                                "id": 21,
                                                                "order": 21
                                                            }
                                                        ],
                                                        "depth": 4,
                                                        "id": 19,
                                                        "order": 19
                                                    },
                                                    {
                                                        "children": [],
                                                        "depth": 4,
                                                        "id": 22,
                                                        "order": 22
                                                    }
                                                ],
                                                "depth": 3,
                                                "id": 6,
                                                "order": 6
                                            },
                                            {
                                                "children": [
                                                    {
                                                        "children": [
                                                            {
                                                                "children": [],
                                                                "depth": 5,
                                                                "id": 25,
                                                                "order": 25
                                                            }
                                                        ],
                                                        "depth": 4,
                                                        "id": 24,
                                                        "order": 24
                                                    }
                                                ],
                                                "depth": 3,
                                                "id": 23,
                                                "order": 23
                                            },
                                            {
                                                "children": [],
                                                "depth": 3,
                                                "id": 27,
                                                "order": 27
                                            }
                                        ],
                                        "depth": 2,
                                        "id": 4,
                                        "order": 4
                                    }
                                ],
                                "depth": 1,
                                "id": 3,
                                "order": 3
                            },
                            {
                                "children": [],
                                "depth": 1,
                                "id": 28,
                                "order": 28
                            }
                        ],
                        "depth": 0,
                        "id": 0,
                        "order": 0
                    }
                ],
                "depth": -1,
                "id": -1,
                "order": -1
            }
        ],
        "tidyTraceNodeCount": 22
    },
    "state_change": {
        "stateChanges": [
            {
                "address": "0x15e6e0d4ebeac120f9a97e71faa6a0235b85ed12",
                "erc": "ERC-20",
                "slots": [
                    {
                        "current": "0x000000000000000000000000000000000000000000005f17a2fdaed923164688",
                        "key": "0x809c641d903a067a4f7a70b7f50a7da60ece9384b0ba6bb998905971c3252454",
                        "prev": "0x000000000000000000000000000000000000000000005eec46db2a15a84dd1a0"
                    },
                    {
                        "current": "0x0000000000000000000000000000000000000000000000000000000000000000",
                        "key": "0xefd53af718f29cbdae0929b6e249197bfe2340dbb0964e45a4b06dea15063a0c",
                        "prev": "0x00000000000000000000000000000000000000000000002b5c2284c37ac874e8"
                    }
                ],
                "storageVariables": [
                    {
                        "name": "balanceOf",
                        "type": "mapping(address => uint256)",
                        "value": {
                            "pairs": [
                                {
                                    "key": "0x7354c2be97de61ccd9970913a88c88a7b80e7c84",
                                    "value": {
                                        "current": "0",
                                        "prev": "799849009945321698536",
                                        "typeTag": 1
                                    }
                                },
                                {
                                    "key": "0xad9ef19e289dcbc9ab27b83d2df53cdeff60f02d",
                                    "value": {
                                        "current": "449060835721962486908552",
                                        "prev": "448260986712017165210016",
                                        "typeTag": 1
                                    }
                                }
                            ],
                            "typeTag": 4
                        }
                    }
                ]
            },
            {
                "address": "0xad9ef19e289dcbc9ab27b83d2df53cdeff60f02d",
                "erc": "",
                "slots": [
                    {
                        "current": "0x00000000000000000000000000000009dc72adda6bce9c1d3e5197b81260218d",
                        "key": "0x0000000000000000000000000000000000000000000000000000000000000001",
                        "prev": "0x00000000000000000000000000000009dc621eee73261a80e8a8336f6ae9b0dd"
                    },
                    {
                        "current": "0x000100004000400027ff15b500000000000000000cc2ec705f63663b3354cb3d",
                        "key": "0x0000000000000000000000000000000000000000000000000000000000000000",
                        "prev": "0x000100004000400026ff15ce00000000000000000cc7008f2c4a05effa04d44b"
                    },
                    {
                        "current": "0x01000000000000000000000a0efaa9b61132ff7fc2ffffc050c7ed5865ebd8e3",
                        "key": "0x000000000000000000000000000000000000000000000000000000000000002f",
                        "prev": "0x01000000000000000000000a021defd70fea4cadfbffffc09ebed57c65eb83ab"
                    }
                ],
                "storageVariables": []
            },
            {
                "address": "0xc02aaa39b223fe8d0a0e5c4f27ead9083c756cc2",
                "erc": "ERC-20",
                "slots": [
                    {
                        "current": "0x0000000000000000000000000000000000000000000000386dfa1de3c4149e50",
                        "key": "0x809c641d903a067a4f7a70b7f50a7da60ece9384b0ba6bb998905971c3252454",
                        "prev": "0x00000000000000000000000000000000000000000000003889518ed0803d5b2d"
                    }
                ],
                "storageVariables": [
                    {
                        "name": "balanceOf",
                        "type": "mapping(address => uint256)",
                        "value": {
                            "pairs": [
                                {
                                    "key": "0xad9ef19e289dcbc9ab27b83d2df53cdeff60f02d",
                                    "value": {
                                        "current": "1040942347486131166800",
                                        "prev": "1042912515010200427309",
                                        "typeTag": 1
                                    }
                                }
                            ],
                            "typeTag": 4
                        }
                    }
                ]
            }
        ]
    }
}