{
    "balance_change": {
        "balanceChanges": [
            {
                "account": "0x2cd05cef7b1a01773e63ef3ce2a84b773e7a13bd",
                "assets": [
                    {
                        "address": "0xc555d625828c4527d477e595ff1dd5801b4a600e",
                        "amount": "104.754558731469150089",
                        "iconUrl": "",
                        "isERC1155": false,
                        "isERC721": false,
                        "sign": false,
                        "value": "35.06786817"
                    }
                ]
            },
            {
                "account": "0x76d1f3957f1c6bc98ff3209f881a720772d624fd",
                "assets": [
                    {
                        "address": "0xc555d625828c4527d477e595ff1dd5801b4a600e",
                        "amount": "104.754558731469150089",
                        "iconUrl": "",
                        "isERC1155": false,
                        "isERC721": false,
                        "sign": true,
                        "value": "35.06786817"
                    }
                ]
            }
        ]
    },
    "profile": {
        "basic_info": {
            "baseFee": "5.51437438",
            "blockNumber": 20046762,
            "callData": "0xa9059cbb00000000000000000000000076d1f3957f1c6bc98ff3209f881a720772d624fd000000000000000000000000000000000000000000000005adc2f42720035789",
            "debugEnable": true,
            "errorInfo": "",
            "eventCount": 1,
            "feeRecipient": "0x4838b106fce9647bdf1e7877bf73ce8b0bad5f97",
            "formatValue": "0",
            "gasLimit": 89448,
            "gasPrice": "6.01437438",
            "gasUsed": 54084,
            "intTxnCount": 1,
            "internalRevert": false,
            "internalRevertMessage": "",
            "isContractCreation": false,
            "isFlashloan": false,
            "maxFee": "8.276176782",
            "nonce": 15,
            "overwritedBlockNumber": -1,
            "priorityFee": "0.5",
            "receiver": "0xc555d625828c4527d477e595ff1dd5801b4a600e",
            "revertMessage": "",
            "sender": "0x2cd05cef7b1a01773e63ef3ce2a84b773e7a13bd",
            "simulationEnable": true,
            "sourceTxnHash": "0x6c8d7fa430ba6dca637e33da1ae049f0d016f4d866826edc5b5b825100f80499",
            "status": true,
            "timestamp": "2024-06-08T11:17:47Z",
            "transactionFee": "0.00032528142396792",
            "txnHash": "0x6c8d7fa430ba6dca637e33da1ae049f0d016f4d866826edc5b5b825100f80499",
            "txnIndex": 47,
            "type": 2,
            "value": "0"
        },
        "fund_flow": [
            {
                "amount": "104.754558731469150089",
                "from": "0x2cd05cef7b1a01773e63ef3ce2a84b773e7a13bd",
                "id": 1,
                "isERC1155": false,
                "isERC721": false,
                "isReverted": false,
                "order": 1,
                "to": "0x76d1f3957f1c6bc98ff3209f881a720772d624fd",
                "token": "0xc555d625828c4527d477e595ff1dd5801b4a600e"
            }
        ],
        "token_infos": [
            {
                "address": "0xc02aaa39b223fe8d0a0e5c4f27ead9083c756cc2",
                "decimals": 18
            },
            {
                "address": "0xc555d625828c4527d477e595ff1dd5801b4a600e",
                "decimals": 18
            },
            {
                "address": "0xeeeeeeeeeeeeeeeeeeeeeeeeeeeeeeeeeeeeeeee",
                "decimals": 18
            }
        ]
    },
    "address_label": {
        "labels": [
            {
                "address": "0x0000000000000000000000000000000000000004",
                "label": "Precompiled"
            },
            {
                "address": "0xeeeeeeeeeeeeeeeeeeeeeeeeeeeeeeeeeeeeeeee",
                "label": "Ether"
            },
            {
                "address": "0xc555d625828c4527d477e595ff1dd5801b4a600e",
                "label": "MON Protocol: MON Token"
            },
            {
                "address": "0xd81acd9d8e1fc645d679905549b2b76def4adde5",
                "label": "Mon"
            },
            {
                "address": "0x0000000000000000000000000000000000000001",
                "label": "Precompiled"
            },
            {
                "address": "0x0000000000000000000000000000000000000002",
                "label": "Precompiled"
            },
            {
                "address": "0x0000000000000000000000000000000000000003",
                "label": "Precompiled"
            }
        ]
    },
    "trace": {
        "accountLabels": null,
        "dataMap": {
            "-1": {
                "invocation": {
                    "address": "0x2cd05cef7b1a01773e63ef3ce2a84b773e7a13bd",
                    "callData": "",
                    "decodedMethod": null,
                    "errorInfo": "",
                    "fromAddress": "",
                    "gasUsed": 0,
                    "id": -1,
                    "methodDecoded": false,
                    "operation": "",
                    "output": "",
                    "revert": false,
                    "revertMessage": "",
                    "selector": "",
                    "status": false,
                    "value": ""
                },
                "nodeType": 0
            },
            "0": {
                "invocation": {
                    "address": "0xc555d625828c4527d477e595ff1dd5801b4a600e",
                    "callData": "0x00000000000000000000000076d1f3957f1c6bc98ff3209f881a720772d624fd000000000000000000000000000000000000000000000005adc2f42720035789",
                    "decodedMethod": {
                        "callParams": [
                            {
                                "name": "to",
                                "type": "address",
                                "value": "0x76d1f3957f1c6bc98ff3209f881a720772d624fd"
                            },
                            {
                                "decimalAvailable": true,
                                "name": "value",
                                "type": "uint256",
                                "value": "104,754,558,731,469,150,089"
                            }
                        ],
                        "constructorArguments": "",
                        "name": "transfer",
                        "returnParams": [
                            {
                                "name": "",
                                "type": "bool",
                                "value": true
                            }
                        ],
                        "signature": "transfer(address,uint256)"
                    },
                    "errorInfo": "",
                    "fromAddress": "0x2cd05cef7b1a01773e63ef3ce2a84b773e7a13bd",
                    "gasUsed": 54084,
                    "id": 0,
                    "methodDecoded": true,
                    "operation": "CALL",
                    "output": "0x0000000000000000000000000000000000000000000000000000000000000001",
                    "revert": false,
                    "revertMessage": "",
                    "selector": "0xa9059cbb",
                    "status": true,
                    "value": "0"
                },
                "nodeType": 0
            },
            "1": {
                "invocation": {
                    "address": "0xd81acd9d8e1fc645d679905549b2b76def4adde5",
                    "callData": "0x00000000000000000000000076d1f3957f1c6bc98ff3209f881a720772d624fd000000000000000000000000000000000000000000000005adc2f42720035789",
                    "decodedMethod": {
                        "callParams": [
                            {
                                "name": "to",
                                "type": "address",
                                "value": "0x76d1f3957f1c6bc98ff3209f881a720772d624fd"
                            },
                            {
                                "decimalAvailable": true,
                                "name": "value",
                                "type": "uint256",
                                "value": "104,754,558,731,469,150,089"
                            }
                        ],
                        "constructorArguments": "",
                        "name": "transfer",
                        "returnParams": [
                            {
                                "name": "",
                                "type": "bool",
                                "value": true
                            }
                        ],
                        "signature": "transfer(address,uint256)"
                    },
                    "errorInfo": "",
                    "fromAddress": "0xc555d625828c4527d477e595ff1dd5801b4a600e",
                    "gasUsed": 32265,
                    "id": 1,
                    "methodDecoded": true,
                    "operation": "DELEGATECALL",
                    "output": "0x0000000000000000000000000000000000000000000000000000000000000001",
                    "revert": false,
                    "revertMessage": "",
                    "selector": "0xa9059cbb",
                    "status": true,
                    "value": "0"
                },
                "nodeType": 0
            },
            "2": {
                "event": {
                    "contract": "0xc555d625828c4527d477e595ff1dd5801b4a600e",
                    "decodedLog": {
                        "name": "Transfer",
                        "params": [
                            {
                                "name": "from",
                                "type": "address",
                                "value": "0x2cd05cef7b1a01773e63ef3ce2a84b773e7a13bd"
                            },
                            {
                                "name": "to",
                                "type": "address",
                                "value": "0x76d1f3957f1c6bc98ff3209f881a720772d624fd"
                            },
                            {
                                "decimalAvailable": true,
                                "name": "value",
                                "type": "uint256",
                                "value": "104,754,558,731,469,150,089"
                            }
                        ],
                        "signature": "Transfer(address,address,uint256)"
                    },
                    "id": 2,
                    "logData": "0x000000000000000000000000000000000000000000000005adc2f42720035789",
                    "logDecoded": true,
                    "operation": "EVENT",
                    "revert": false,
                    "status": true,
                    "topics": [
                        "0xddf252ad1be2c89b69c2b068fc378daa952ba7f163c4a11628f55a4df523b3ef",
                        "0x0000000000000000000000002cd05cef7b1a01773e63ef3ce2a84b773e7a13bd",
                        "0x00000000000000000000000076d1f3957f1c6bc98ff3209f881a720772d624fd"
                    ]
                },
                "nodeType": 1
            }
        },
        "gasFlame": [
            {
                "children": [
                    {
                        "children": [
                            {
                                "children": [],
                                "depth": 0,
                                "name": "Initial Gas",
                                "value": 21668
                            },
                            {
                                "children": [
                                    {
                                        "children": [],
                                        "depth": 1,
                                        "name": "transfer",
                                        "value": 32265
                                    }
                                ],
                                "depth": 0,
                                "name": "Executed Gas",
                                "value": 37216
                            }
                        ],
                        "depth": -1,
                        "name": "Actual Gas Used",
                        "value": 54084
                    },
                    {
                        "children": [],
                        "depth": -1,
                        "name": "Refunded Gas",
                        "value": 4800
                    }
                ],
                "depth": -2,
                "name": "Total Gas",
                "value": 58884
            }
        ],
        "isConfirmed": true,
        "mainTrace": [
            {
                "children": [
                    {
                        "children": [
                            {
                                "children": [
                                    {
                                        "children": [],
                                        "depth": 2,
                                        "id": 2,
                                        "order": 2
                                    }
                                ],
                                "depth": 1,
                                "id": 1,
                                "order": 1
                            }
                        ],
                        "depth": 0,
                        "id": 0,
                        "order": 0
                    }
                ],
                "depth": -1,
                "id": -1,
                "order": -1
            }
        ],
        "mainTraceNodeCount": 3,
        "parentIdMap": {
            "0": -1,
            "1": 0,
            "2": 1
        },
        "tidyTrace": [
            {
                "children": [
                    {
                        "children": [
                            {
                                "children": [
                                    {
                                        "children": [],
                                        "depth": 2,
                                        "id": 2,
                                        "order": 2
                                    }
                                ],
                                "depth": 1,
                                "id": 1,
                                "order": 1
                            }
                        ],
                        "depth": 0,
                        "id": 0,
                        "order": 0
                    }
                ],
                "depth": -1,
                "id": -1,
                "order": -1
            }
        ],
        "tidyTraceNodeCount": 3
    },
    "state_change": {
        "stateChanges": [
            {
                "address": "0xc555d625828c4527d477e595ff1dd5801b4a600e",
                "erc": "ERC-20",
                "slots": [
                    {
                        "current": "0x0000000000000000000000000000000000000000000000000000000000000000",
                        "key": "0x439865771f8df29cf4170e899d898f3ddf8ebb9c933e5e5a75c9df043b220d5f",
                        "prev": "0x000000000000000000000000000000000000000000000005adc2f42720035789"
                    },
                    {
                        "current": "0x000000000000000000000000000000000000000000000005adc2f42720035789",
                        "key": "0x6a3ec81fedb4dc5be07a15189553cb9f1de0814bb7792d69a4ad1261fa478dde",
                        "prev": "0x0000000000000000000000000000000000000000000000000000000000000000"
                    }
                ],
                "storageVariables": []
            }
        ]
    }
}