{
    "balance_change": {
        "balanceChanges": [
            {
                "account": "0x0702c3d8fba3a889f178a108da5af3c714c228a3",
                "assets": [
                    {
                        "address": "0x6b175474e89094c44da98b954eedeac495271d0f",
                        "amount": "295.328353311669109929",
                        "iconUrl": "https://assets.blocksec.com/icon/39aead569b9c011cb6f69734d9abbc9ab6a80049fe93bbd12bb473a3e0e859a3.png",
                        "isERC1155": false,
                        "isERC721": false,
                        "sign": false,
                        "value": "297.1169268"
                    },
                    {
                        "address": "0x73d9e335669462cbdd6aa3adafe9efee86a37fe9",
                        "amount": "79.239952092052934365",
                        "iconUrl": "",
                        "isERC1155": false,
                        "isERC721": false,
                        "sign": true,
                        "value": "295.2507743"
                    }
                ]
            },
            {
                "account": "0x26b4b107dce673c00d59d71152136327cf6dfebf",
                "assets": [
                    {
                        "address": "0x6b175474e89094c44da98b954eedeac495271d0f",
                        "amount": "295.328353311669109929",
                        "iconUrl": "https://assets.blocksec.com/icon/39aead569b9c011cb6f69734d9abbc9ab6a80049fe93bbd12bb473a3e0e859a3.png",
                        "isERC1155": false,
                        "isERC721": false,
                        "sign": true,
                        "value": "297.1169268"
                    },
                    {
                        "address": "0x73d9e335669462cbdd6aa3adafe9efee86a37fe9",
                        "amount": "79.239952092052934365",
                        "iconUrl": "",
                        "isERC1155": false,
                        "isERC721": false,
                        "sign": false,
                        "value": "295.2507743"
                    }
                ]
            }
        ]
    },
    "profile": {
        "basic_info": {
            "baseFee": "",
            "blockNumber": 11639055,
            "callData": "0x38ed17390000000000000000000000000000000000000000000000100281149ecb1844a9000000000000000000000000000000000000000000000004361cec597715acb000000000000000000000000000000000000000000000000000000000000000a00000000000000000000000000702c3d8fba3a889f178a108da5af3c714c228a3000000000000000000000000000000000000000000000000000000005ffd61f000000000000000000000000000000000000000000000000000000000000000020000000000000000000000006b175474e89094c44da98b954eedeac495271d0f00000000000000000000000073d9e335669462cbdd6aa3adafe9efee86a37fe9",
            "debugEnable": true,
            "errorInfo": "",
            "eventCount": 4,
            "feeRecipient": "0x5a0b54d5dc17e0aadc383d2db43b0a0d3e029c4c",
            "formatValue": "0",
            "gasLimit": 138019,
            "gasPrice": "69",
            "gasUsed": 104093,
            "intTxnCount": 6,
            "internalRevert": false,
            "internalRevertMessage": "",
            "isContractCreation": false,
            "isFlashloan": false,
            "maxFee": "",
            "nonce": 630,
            "overwritedBlockNumber": -1,
            "priorityFee": "",
            "receiver": "0x7a250d5630b4cf539739df2c5dacb4c659f2488d",
            "revertMessage": "",
            "sender": "0x0702c3d8fba3a889f178a108da5af3c714c228a3",
            "simulationEnable": true,
            "sourceTxnHash": "0x6c131a5c0c00e239bf1a41d3254fc1c1ca48e4f3ac5998eea2537c768cde20f2",
            "status": true,
            "timestamp": "2021-01-12T08:27:10Z",
            "transactionFee": "0.007182417",
            "txnHash": "0x6c131a5c0c00e239bf1a41d3254fc1c1ca48e4f3ac5998eea2537c768cde20f2",
            "txnIndex": 179,
            "type": 0,
            "value": "0"
        },
        "fund_flow": [
            {
                "amount": "295.328353311669109929",
                "from": "0x0702c3d8fba3a889f178a108da5af3c714c228a3",
                "id": 1,
                "isERC1155": false,
                "isERC721": false,
                "isReverted": false,
                "order": 1,
                "to": "0x26b4b107dce673c00d59d71152136327cf6dfebf",
                "token": "0x6b175474e89094c44da98b954eedeac495271d0f"
            },
            {
                "amount": "79.239952092052934365",
                "from": "0x26b4b107dce673c00d59d71152136327cf6dfebf",
                "id": 2,
                "isERC1155": false,
                "isERC721": false,
                "isReverted": false,
                "order": 2,
                "to": "0x0702c3d8fba3a889f178a108da5af3c714c228a3",
                "token": "0x73d9e335669462cbdd6aa3adafe9efee86a37fe9"
            }
        ],
        "token_infos": [
            {
                "address": "0x6b175474e89094c44da98b954eedeac495271d0f",
                "decimals": 18
            },
            {
                "address": "0x73d9e335669462cbdd6aa3adafe9efee86a37fe9",
                "decimals": 18
            },
            {
                "address": "0xc02aaa39b223fe8d0a0e5c4f27ead9083c756cc2",
                "decimals": 18
            },
            {
                "address": "0xeeeeeeeeeeeeeeeeeeeeeeeeeeeeeeeeeeeeeeee",
                "decimals": 18
            }
        ]
    },
    "address_label": {
        "labels": [
            {
                "address": "0x0000000000000000000000000000000000000003",
                "label": "Precompiled"
            },
            {
                "address": "0x7a250d5630b4cf539739df2c5dacb4c659f2488d",
                "label": "Uniswap V2: Router 2"
            },
            {
                "address": "0x0000000000000000000000000000000000000001",
                "label": "Precompiled"
            },
            {
                "address": "0x0000000000000000000000000000000000000002",
                "label": "Precompiled"
            },
            {
                "address": "0x26b4b107dce673c00d59d71152136327cf6dfebf",
                "label": "Uniswap V2: DAI-DAIQ"
            },
            {
                "address": "0x0000000000000000000000000000000000000004",
                "label": "Precompiled"
            },
            {
                "address": "0xeeeeeeeeeeeeeeeeeeeeeeeeeeeeeeeeeeeeeeee",
                "label": "Ether"
            },
            {
                "address": "0x73d9e335669462cbdd6aa3adafe9efee86a37fe9",
                "label": "Daiquilibrium: DAIQ Token"
            },
            {
                "address": "0x6b175474e89094c44da98b954eedeac495271d0f",
                "label": "Sky: Dai Stablecoin"
            }
        ]
    },
    "trace": {
        "accountLabels": null,
        "dataMap": {
            "-1": {
                "invocation": {
                    "address": "0x0702c3d8fba3a889f178a108da5af3c714c228a3",
                    "callData": "",
                    "decodedMethod": null,
                    "errorInfo": "",
                    "fromAddress": "",
                    "gasUsed": 0,
                    "id": -1,
                    "methodDecoded": false,
                    "operation": "",
                    "output": "",
                    "revert": false,
                    "revertMessage": "",
                    "selector": "",
                    "status": false,
                    "value": ""
                },
                "nodeType": 0
            },
            "0": {
                "invocation": {
                    "address": "0x7a250d5630b4cf539739df2c5dacb4c659f2488d",
                    "callData": "0x0000000000000000000000000000000000000000000000100281149ecb1844a9000000000000000000000000000000000000000000000004361cec597715acb000000000000000000000000000000000000000000000000000000000000000a00000000000000000000000000702c3d8fba3a889f178a108da5af3c714c228a3000000000000000000000000000000000000000000000000000000005ffd61f000000000000000000000000000000000000000000000000000000000000000020000000000000000000000006b175474e89094c44da98b954eedeac495271d0f00000000000000000000000073d9e335669462cbdd6aa3adafe9efee86a37fe9",
                    "decodedMethod": {
                        "callParams": [
                            {
                                "name": "amountIn",
                                "type": "uint256",
                                "value": "295,328,353,311,669,109,929"
                            },
                            {
                                "name": "amountOutMin",
                                "type": "uint256",
                                "value": "77,686,227,541,228,367,024"
                            },
                            {
                                "name": "path",
                                "type": "address[]",
                                "value": [
                                    "0x6b175474e89094c44da98b954eedeac495271d0f",
                                    "0x73d9e335669462cbdd6aa3adafe9efee86a37fe9"
                                ]
                            },
                            {
                                "name": "to",
                                "type": "address",
                                "value": "0x0702c3d8fba3a889f178a108da5af3c714c228a3"
                            },
                            {
                                "name": "deadline",
                                "type": "uint256",
                                "value": "1,610,441,200"
                            }
                        ],
                        "constructorArguments": "",
                        "name": "swapExactTokensForTokens",
                        "returnParams": [
                            {
                                "name": "amounts",
                                "type": "uint256[]",
                                "value": [
                                    "295,328,353,311,669,109,929",
                                    "79,239,952,092,052,934,365"
                                ]
                            }
                        ],
                        "signature": "swapExactTokensForTokens(uint256,uint256,address[],address,uint256)"
                    },
                    "errorInfo": "",
                    "fromAddress": "0x0702c3d8fba3a889f178a108da5af3c714c228a3",
                    "gasUsed": 104093,
                    "id": 0,
                    "methodDecoded": true,
                    "operation": "CALL",
                    "output": "0x000000000000000000000000000000000000000000000000000000000000002000000000000000000000000000000000000000000000000000000000000000020000000000000000000000000000000000000000000000100281149ecb1844a90000000000000000000000000000000000000000000000044bacdc98b1c94edd",
                    "revert": false,
                    "revertMessage": "",
                    "selector": "0x38ed1739",
                    "status": true,
                    "value": "0"
                },
                "nodeType": 0
            },
            "1": {
                "invocation": {
                    "address": "0x26b4b107dce673c00d59d71152136327cf6dfebf",
                    "callData": "0x",
                    "decodedMethod": {
                        "callParams": [],
                        "constructorArguments": "",
                        "name": "getReserves",
                        "returnParams": [
                            {
                                "name": "_reserve0",
                                "type": "uint112",
                                "value": "2,015,766,150,448,986,077,125,166"
                            },
                            {
                                "name": "_reserve1",
                                "type": "uint112",
                                "value": "542,559,638,200,345,538,359,775"
                            },
                            {
                                "name": "_blockTimestampLast",
                                "type": "uint32",
                                "value": "1,610,439,751"
                            }
                        ],
                        "signature": "getReserves()"
                    },
                    "errorInfo": "",
                    "fromAddress": "0x7a250d5630b4cf539739df2c5dacb4c659f2488d",
                    "gasUsed": 1204,
                    "id": 1,
                    "methodDecoded": true,
                    "operation": "STATICCALL",
                    "output": "0x00000000000000000000000000000000000000000001aadae6e7f6906e89da2e0000000000000000000000000000000000000000000072e43788330d157471df000000000000000000000000000000000000000000000000000000005ffd5c47",
                    "revert": false,
                    "revertMessage": "",
                    "selector": "0x0902f1ac",
                    "status": true,
                    "value": "0"
                },
                "nodeType": 0
            },
            "10": {
                "event": {
                    "contract": "0x26b4b107dce673c00d59d71152136327cf6dfebf",
                    "decodedLog": {
                        "name": "Swap",
                        "params": [
                            {
                                "name": "sender",
                                "type": "address",
                                "value": "0x7a250d5630b4cf539739df2c5dacb4c659f2488d"
                            },
                            {
                                "name": "to",
                                "type": "address",
                                "value": "0x0702c3d8fba3a889f178a108da5af3c714c228a3"
                            },
                            {
                                "name": "amount0In",
                                "type": "uint256",
                                "value": "295,328,353,311,669,109,929"
                            },
                            {
                                "name": "amount1In",
                                "type": "uint256",
                                "value": "0"
                            },
                            {
                                "name": "amount0Out",
                                "type": "uint256",
                                "value": "0"
                            },
                            {
                                "name": "amount1Out",
                                "type": "uint256",
                                "value": "79,239,952,092,052,934,365"
                            }
                        ],
                        "signature": "Swap(address,uint256,uint256,uint256,uint256,address)"
                    },
                    "id": 10,
                    "logData": "0x0000000000000000000000000000000000000000000000100281149ecb1844a9000000000000000000000000000000000000000000000000000000000000000000000000000000000000000000000000000000000000000000000000000000000000000000000000000000000000000000000000000000044bacdc98b1c94edd",
                    "logDecoded": true,
                    "operation": "EVENT",
                    "revert": false,
                    "status": true,
                    "topics": [
                        "0xd78ad95fa46c994b6551d0da85fc275fe613ce37657fb8d5e3d130840159d822",
                        "0x0000000000000000000000007a250d5630b4cf539739df2c5dacb4c659f2488d",
                        "0x0000000000000000000000000702c3d8fba3a889f178a108da5af3c714c228a3"
                    ]
                },
                "nodeType": 1
            },
            "2": {
                "invocation": {
                    "address": "0x6b175474e89094c44da98b954eedeac495271d0f",
                    "callData": "0x0000000000000000000000000702c3d8fba3a889f178a108da5af3c714c228a300000000000000000000000026b4b107dce673c00d59d71152136327cf6dfebf0000000000000000000000000000000000000000000000100281149ecb1844a9",
                    "decodedMethod": {
                        "callParams": [
                            {
                                "name": "src",
                                "type": "address",
                                "value": "0x0702c3d8fba3a889f178a108da5af3c714c228a3"
                            },
                            {
                                "name": "dst",
                                "type": "address",
                                "value": "0x26b4b107dce673c00d59d71152136327cf6dfebf"
                            },
                            {
                                "decimalAvailable": true,
                                "name": "wad",
                                "type": "uint256",
                                "value": "295,328,353,311,669,109,929"
                            }
                        ],
                        "constructorArguments": "",
                        "name": "transferFrom",
                        "returnParams": [
                            {
                                "name": "",
                                "type": "bool",
                                "value": true
                            }
                        ],
                        "signature": "transferFrom(address,address,uint256)"
                    },
                    "errorInfo": "",
                    "fromAddress": "0x7a250d5630b4cf539739df2c5dacb4c659f2488d",
                    "gasUsed": 16418,
                    "id": 2,
                    "methodDecoded": true,
                    "operation": "CALL",
                    "output": "0x0000000000000000000000000000000000000000000000000000000000000001",
                    "revert": false,
                    "revertMessage": "",
                    "selector": "0x23b872dd",
                    "status": true,
                    "value": "0"
                },
                "nodeType": 0
            },
            "3": {
                "event": {
                    "contract": "0x6b175474e89094c44da98b954eedeac495271d0f",
                    "decodedLog": {
                        "name": "Transfer",
                        "params": [
                            {
                                "name": "src",
                                "type": "address",
                                "value": "0x0702c3d8fba3a889f178a108da5af3c714c228a3"
                            },
                            {
                                "name": "dst",
                                "type": "address",
                                "value": "0x26b4b107dce673c00d59d71152136327cf6dfebf"
                            },
                            {
                                "decimalAvailable": true,
                                "name": "wad",
                                "type": "uint256",
                                "value": "295,328,353,311,669,109,929"
                            }
                        ],
                        "signature": "Transfer(address,address,uint256)"
                    },
                    "id": 3,
                    "logData": "0x0000000000000000000000000000000000000000000000100281149ecb1844a9",
                    "logDecoded": true,
                    "operation": "EVENT",
                    "revert": false,
                    "status": true,
                    "topics": [
                        "0xddf252ad1be2c89b69c2b068fc378daa952ba7f163c4a11628f55a4df523b3ef",
                        "0x0000000000000000000000000702c3d8fba3a889f178a108da5af3c714c228a3",
                        "0x00000000000000000000000026b4b107dce673c00d59d71152136327cf6dfebf"
                    ]
                },
                "nodeType": 1
            },
            "4": {
                "invocation": {
                    "address": "0x26b4b107dce673c00d59d71152136327cf6dfebf",
                    "callData": "0x00000000000000000000000000000000000000000000000000000000000000000000000000000000000000000000000000000000000000044bacdc98b1c94edd0000000000000000000000000702c3d8fba3a889f178a108da5af3c714c228a300000000000000000000000000000000000000000000000000000000000000800000000000000000000000000000000000000000000000000000000000000000",
                    "decodedMethod": {
                        "callParams": [
                            {
                                "name": "amount0Out",
                                "type": "uint256",
                                "value": "0"
                            },
                            {
                                "name": "amount1Out",
                                "type": "uint256",
                                "value": "79,239,952,092,052,934,365"
                            },
                            {
                                "name": "to",
                                "type": "address",
                                "value": "0x0702c3d8fba3a889f178a108da5af3c714c228a3"
                            },
                            {
                                "name": "data",
                                "type": "bytes",
                                "value": "0x"
                            }
                        ],
                        "constructorArguments": "",
                        "name": "swap",
                        "returnParams": [],
                        "signature": "swap(uint256,uint256,address,bytes)"
                    },
                    "errorInfo": "",
                    "fromAddress": "0x7a250d5630b4cf539739df2c5dacb4c659f2488d",
                    "gasUsed": 71826,
                    "id": 4,
                    "methodDecoded": true,
                    "operation": "CALL",
                    "output": "",
                    "revert": false,
                    "revertMessage": "",
                    "selector": "0x022c0d9f",
                    "status": true,
                    "value": "0"
                },
                "nodeType": 0
            },
            "5": {
                "invocation": {
                    "address": "0x73d9e335669462cbdd6aa3adafe9efee86a37fe9",
                    "callData": "0x0000000000000000000000000702c3d8fba3a889f178a108da5af3c714c228a30000000000000000000000000000000000000000000000044bacdc98b1c94edd",
                    "decodedMethod": {
                        "callParams": [
                            {
                                "name": "recipient",
                                "type": "address",
                                "value": "0x0702c3d8fba3a889f178a108da5af3c714c228a3"
                            },
                            {
                                "decimalAvailable": true,
                                "name": "amount",
                                "type": "uint256",
                                "value": "79,239,952,092,052,934,365"
                            }
                        ],
                        "constructorArguments": "",
                        "name": "transfer",
                        "returnParams": [
                            {
                                "name": "",
                                "type": "bool",
                                "value": true
                            }
                        ],
                        "signature": "transfer(address,uint256)"
                    },
                    "errorInfo": "",
                    "fromAddress": "0x26b4b107dce673c00d59d71152136327cf6dfebf",
                    "gasUsed": 30002,
                    "id": 5,
                    "methodDecoded": true,
                    "operation": "CALL",
                    "output": "0x0000000000000000000000000000000000000000000000000000000000000001",
                    "revert": false,
                    "revertMessage": "",
                    "selector": "0xa9059cbb",
                    "status": true,
                    "value": "0"
                },
                "nodeType": 0
            },
            "6": {
                "event": {
                    "contract": "0x73d9e335669462cbdd6aa3adafe9efee86a37fe9",
                    "decodedLog": {
                        "name": "Transfer",
                        "params": [
                            {
                                "name": "from",
                                "type": "address",
                                "value": "0x26b4b107dce673c00d59d71152136327cf6dfebf"
                            },
                            {
                                "name": "to",
                                "type": "address",
                                "value": "0x0702c3d8fba3a889f178a108da5af3c714c228a3"
                            },
                            {
                                "decimalAvailable": true,
                                "name": "value",
                                "type": "uint256",
                                "value": "79,239,952,092,052,934,365"
                            }
                        ],
                        "signature": "Transfer(address,address,uint256)"
                    },
                    "id": 6,
                    "logData": "0x0000000000000000000000000000000000000000000000044bacdc98b1c94edd",
                    "logDecoded": true,
                    "operation": "EVENT",
                    "revert": false,
                    "status": true,
                    "topics": [
                        "0xddf252ad1be2c89b69c2b068fc378daa952ba7f163c4a11628f55a4df523b3ef",
                        "0x00000000000000000000000026b4b107dce673c00d59d71152136327cf6dfebf",
                        "0x0000000000000000000000000702c3d8fba3a889f178a108da5af3c714c228a3"
                    ]
                },
                "nodeType": 1
            },
            "7": {
                "invocation": {
                    "address": "0x6b175474e89094c44da98b954eedeac495271d0f",
                    "callData": "0x00000000000000000000000026b4b107dce673c00d59d71152136327cf6dfebf",
                    "decodedMethod": {
                        "callParams": [
                            {
                                "name": "",
                                "type": "address",
                                "value": "0x26b4b107dce673c00d59d71152136327cf6dfebf"
                            }
                        ],
                        "constructorArguments": "",
                        "name": "balanceOf",
                        "returnParams": [
                            {
                                "decimalAvailable": true,
                                "name": "",
                                "type": "uint256",
                                "value": "2,016,061,478,802,297,746,235,095"
                            }
                        ],
                        "signature": "balanceOf(address)"
                    },
                    "errorInfo": "",
                    "fromAddress": "0x26b4b107dce673c00d59d71152136327cf6dfebf",
                    "gasUsed": 1302,
                    "id": 7,
                    "methodDecoded": true,
                    "operation": "STATICCALL",
                    "output": "0x00000000000000000000000000000000000000000001aaeae9690b2f39a21ed7",
                    "revert": false,
                    "revertMessage": "",
                    "selector": "0x70a08231",
                    "status": true,
                    "value": "0"
                },
                "nodeType": 0
            },
            "8": {
                "invocation": {
                    "address": "0x73d9e335669462cbdd6aa3adafe9efee86a37fe9",
                    "callData": "0x00000000000000000000000026b4b107dce673c00d59d71152136327cf6dfebf",
                    "decodedMethod": {
                        "callParams": [
                            {
                                "name": "account",
                                "type": "address",
                                "value": "0x26b4b107dce673c00d59d71152136327cf6dfebf"
                            }
                        ],
                        "constructorArguments": "",
                        "name": "balanceOf",
                        "returnParams": [
                            {
                                "decimalAvailable": true,
                                "name": "",
                                "type": "uint256",
                                "value": "542,480,398,248,253,485,425,410"
                            }
                        ],
                        "signature": "balanceOf(address)"
                    },
                    "errorInfo": "",
                    "fromAddress": "0x26b4b107dce673c00d59d71152136327cf6dfebf",
                    "gasUsed": 1499,
                    "id": 8,
                    "methodDecoded": true,
                    "operation": "STATICCALL",
                    "output": "0x0000000000000000000000000000000000000000000072dfebdb567463ab2302",
                    "revert": false,
                    "revertMessage": "",
                    "selector": "0x70a08231",
                    "status": true,
                    "value": "0"
                },
                "nodeType": 0
            },
            "9": {
                "event": {
                    "contract": "0x26b4b107dce673c00d59d71152136327cf6dfebf",
                    "decodedLog": {
                        "name": "Sync",
                        "params": [
                            {
                                "name": "reserve0",
                                "type": "uint112",
                                "value": "2,016,061,478,802,297,746,235,095"
                            },
                            {
                                "name": "reserve1",
                                "type": "uint112",
                                "value": "542,480,398,248,253,485,425,410"
                            }
                        ],
                        "signature": "Sync(uint112,uint112)"
                    },
                    "id": 9,
                    "logData": "0x00000000000000000000000000000000000000000001aaeae9690b2f39a21ed70000000000000000000000000000000000000000000072dfebdb567463ab2302",
                    "logDecoded": true,
                    "operation": "EVENT",
                    "revert": false,
                    "status": true,
                    "topics": [
                        "0x1c411e9a96e071241c2f21f7726b17ae89e3cab4c78be50e062b03a9fffbbad1"
                    ]
                },
                "nodeType": 1
            }
        },
        "gasFlame": [
            {
                "children": [
                    {
                        "children": [
                            {
                                "children": [],
                                "depth": 0,
                                "name": "Initial Gas",
                                "value": 23096
                            },
                            {
                                "children": [
                                    {
                                        "children": [],
                                        "depth": 1,
                                        "name": "getReserves",
                                        "value": 1204
                                    },
                                    {
                                        "children": [],
                                        "depth": 1,
                                        "name": "transferFrom",
                                        "value": 16418
                                    },
                                    {
                                        "children": [
                                            {
                                                "children": [],
                                                "depth": 2,
                                                "name": "transfer",
                                                "value": 30002
                                            },
                                            {
                                                "children": [],
                                                "depth": 2,
                                                "name": "balanceOf",
                                                "value": 1302
                                            },
                                            {
                                                "children": [],
                                                "depth": 2,
                                                "name": "balanceOf",
                                                "value": 1499
                                            }
                                        ],
                                        "depth": 1,
                                        "name": "swap",
                                        "value": 71826
                                    }
                                ],
                                "depth": 0,
                                "name": "Executed Gas",
                                "value": 100197
                            }
                        ],
                        "depth": -1,
                        "name": "Actual Gas Used",
                        "value": 104093
                    },
                    {
                        "children": [],
                        "depth": -1,
                        "name": "Refunded Gas",
                        "value": 19200
                    }
                ],
                "depth": -2,
                "name": "Total Gas",
                "value": 123293
            }
        ],
        "isConfirmed": true,
        "mainTrace": [
            {
                "children": [
                    {
                        "children": [
                            {
                                "children": [],
                                "depth": 1,
                                "id": 1,
                                "order": 1
                            },
                            {
                                "children": [
                                    {
                                        "children": [],
                                        "depth": 2,
                                        "id": 3,
                                        "order": 3
                                    }
                                ],
                                "depth": 1,
                                "id": 2,
                                "order": 2
                            },
                            {
                                "children": [
                                    {
                                        "children": [
                                            {
                                                "children": [],
                                                "depth": 3,
                                                "id": 6,
                                                "order": 6
                                            }
                                        ],
                                        "depth": 2,
                                        "id": 5,
                                        "order": 5
                                    },
                                    {
                                        "children": [],
                                        "depth": 2,
                                        "id": 7,
                                        "order": 7
                                    },
                                    {
                                        "children": [],
                                        "depth": 2,
                                        "id": 8,
                                        "order": 8
                                    },
                                    {
                                        "children": [],
                                        "depth": 2,
                                        "id": 9,
                                        "order": 9
                                    },
                                    {
                                        "children": [],
                                        "depth": 2,
                                        "id": 10,
                                        "order": 10
                                    }
                                ],
                                "depth": 1,
                                "id": 4,
                                "order": 4
                            }
                        ],
                        "depth": 0,
                        "id": 0,
                        "order": 0
                    }
                ],
                "depth": -1,
                "id": -1,
                "order": -1
            }
        ],
        "mainTraceNodeCount": 11,
        "parentIdMap": {
            "0": -1,
            "1": 0,
            "10": 4,
            "2": 0,
            "3": 2,
            "4": 0,
            "5": 4,
            "6": 5,
            "7": 4,
            "8": 4,
            "9": 4
        },
        "tidyTrace": [
            {
                "children": [
                    {
                        "children": [
                            {
                                "children": [
                                    {
                                        "children": [],
                                        "depth": 2,
                                        "id": 3,
                                        "order": 3
                                    }
                                ],
                                "depth": 1,
                                "id": 2,
                                "order": 2
                            },
                            {
                                "children": [
                                    {
                                        "children": [
                                            {
                                                "children": [],
                                                "depth": 3,
                                                "id": 6,
                                                "order": 6
                                            }
                                        ],
                                        "depth": 2,
                                        "id": 5,
                                        "order": 5
                                    },
                                    {
                                        "children": [],
                                        "depth": 2,
                                        "id": 9,
                                        "order": 9
                                    },
                                    {
                                        "children": [],
                                        "depth": 2,
                                        "id": 10,
                                        "order": 10
                                    }
                                ],
                                "depth": 1,
                                "id": 4,
                                "order": 4
                            }
                        ],
                        "depth": 0,
                        "id": 0,
                        "order": 0
                    }
                ],
                "depth": -1,
                "id": -1,
                "order": -1
            }
        ],
        "tidyTraceNodeCount": 8
    },
    "state_change": {
        "stateChanges": [
            {
                "address": "0x26b4b107dce673c00d59d71152136327cf6dfebf",
                "erc": "ERC-20",
                "slots": [
                    {
                        "current": "0x5ffd5d5e0000000072dfebdb567463ab230200000001aaeae9690b2f39a21ed7",
                        "key": "0x0000000000000000000000000000000000000000000000000000000000000008",
                        "prev": "0x5ffd5c470000000072e43788330d157471df00000001aadae6e7f6906e89da2e"
                    },
                    {
                        "current": "0x0000000000000000000000000000000154c57635b270f94c97d83e65f68fcefc",
                        "key": "0x0000000000000000000000000000000000000000000000000000000000000009",
                        "prev": "0x00000000000000000000000000000001547a5dddecdd9993128c8042d4a4143b"
                    },
                    {
                        "current": "0x00000000000000000000000000000003038f42b5976ff435f70d9317dede50d6",
                        "key": "0x000000000000000000000000000000000000000000000000000000000000000a",
                        "prev": "0x00000000000000000000000000000002ff82b1de76a46d862d6fa19723c3b733"
                    }
                ],
                "storageVariables": [
                    {
                        "name": "price0CumulativeLast",
                        "type": "uint256",
                        "value": {
                            "current": "452962798626653510705379435252162744060",
                            "prev": "452572882630436061174795267686690722875",
                            "typeTag": 1
                        }
                    },
                    {
                        "name": "price1CumulativeLast",
                        "type": "uint256",
                        "value": {
                            "current": "1025578636227139454953709821349934813398",
                            "prev": "1020196478970509938827696833275275491123",
                            "typeTag": 1
                        }
                    },
                    {
                        "name": "reserve0",
                        "type": "uint112",
                        "value": {
                            "current": "2016061478802297746235095",
                            "prev": "2015766150448986077125166",
                            "typeTag": 1
                        }
                    },
                    {
                        "name": "reserve1",
                        "type": "uint112",
                        "value": {
                            "current": "542480398248253485425410",
                            "prev": "542559638200345538359775",
                            "typeTag": 1
                        }
                    },
                    {
                        "name": "blockTimestampLast",
                        "type": "uint32",
                        "value": {
                            "current": "1610440030",
                            "prev": "1610439751",
                            "typeTag": 1
                        }
                    }
                ]
            },
            {
                "address": "0x6b175474e89094c44da98b954eedeac495271d0f",
                "erc": "ERC-20",
                "slots": [
                    {
                        "current": "0x00000000000000000000000000000000000000000001aaeae9690b2f39a21ed7",
                        "key": "0x3a9ba3506cb9e878f821da6e0dadec3d831e4a17c52ba7ad072a308d0b7ab494",
                        "prev": "0x00000000000000000000000000000000000000000001aadae6e7f6906e89da2e"
                    },
                    {
                        "current": "0x0000000000000000000000000000000000000000000000000000000000000000",
                        "key": "0x6272da604f4d19ed32c19e9f530d6ee3654d72b5397762f33a05c326b9a0c793",
                        "prev": "0x0000000000000000000000000000000000000000000000100281149ecb1844a9"
                    }
                ],
                "storageVariables": [
                    {
                        "name": "balanceOf",
                        "type": "mapping(address => uint256)",
                        "value": {
                            "pairs": [
                                {
                                    "key": "0x0702c3d8fba3a889f178a108da5af3c714c228a3",
                                    "value": {
                                        "current": "0",
                                        "prev": "295328353311669109929",
                                        "typeTag": 1
                                    }
                                },
                                {
                                    "key": "0x26b4b107dce673c00d59d71152136327cf6dfebf",
                                    "value": {
                                        "current": "2016061478802297746235095",
                                        "prev": "2015766150448986077125166",
                                        "typeTag": 1
                                    }
                                }
                            ],
                            "typeTag": 4
                        }
                    }
                ]
            },
            {
                "address": "0x73d9e335669462cbdd6aa3adafe9efee86a37fe9",
                "erc": "ERC-20",
                "slots": [
                    {
                        "current": "0x0000000000000000000000000000000000000000000072dfebdb567463ab2302",
                        "key": "0x6289e1cf444d4db20b4ad99503cca6a6ad4677b9aa2c73440d359d6526dd6015",
                        "prev": "0x0000000000000000000000000000000000000000000072e43788330d157471df"
                    },
                    {
                        "current": "0x0000000000000000000000000000000000000000000000044bacdc98b1c94edd",
                        "key": "0x2e07d245a7b5d67d0cd99aa7d1d9077b0107a3b42457684b6dac90197ccdc99b",
                        "prev": "0x0000000000000000000000000000000000000000000000000000000000000000"
                    }
                ],
                "storageVariables": [
                    {
                        "name": "_balances",
                        "type": "mapping(address => uint256)",
                        "value": {
                            "pairs": [
                                {
                                    "key": "0x0702c3d8fba3a889f178a108da5af3c714c228a3",
                                    "value": {
                                        "current": "79239952092052934365",
                                        "prev": "0",
                                        "typeTag": 1
                                    }
                                },
                                {
                                    "key": "0x26b4b107dce673c00d59d71152136327cf6dfebf",
                                    "value": {
                                        "current": "542480398248253485425410",
                                        "prev": "542559638200345538359775",
                                        "typeTag": 1
                                    }
                                }
                            ],
                            "typeTag": 4
                        }
                    }
                ]
            }
        ]
    }
}