{
    "balance_change": {
        "balanceChanges": [
            {
                "account": "0x58edf78281334335effa23101bbe3371b6a36a51",
                "assets": [
                    {
                        "address": "0x628a3b2e302c7e896acc432d2d0dd22b6cb9bc88",
                        "amount": "11,965.6",
                        "iconUrl": "",
                        "isERC1155": false,
                        "isERC721": false,
                        "sign": false,
                        "value": "5006.4070399999999297"
                    }
                ]
            },
            {
                "account": "0x4f4d87162376e51194a6d03731eae0604f1a9c3c",
                "assets": [
                    {
                        "address": "0x628a3b2e302c7e896acc432d2d0dd22b6cb9bc88",
                        "amount": "11,965.6",
                        "iconUrl": "",
                        "isERC1155": false,
                        "isERC721": false,
                        "sign": true,
                        "value": "5006.4070399999999297"
                    }
                ]
            }
        ]
    },
    "profile": {
        "basic_info": {
            "baseFee": "17.535116687",
            "blockNumber": 19098543,
            "callData": "0xa9059cbb0000000000000000000000004f4d87162376e51194a6d03731eae0604f1a9c3c000000000000000000000000000000000000000000000288a80ecb88be100000",
            "debugEnable": true,
            "errorInfo": "",
            "eventCount": 1,
            "feeRecipient": "0xdafea492d9c6733ae3d56b7ed1adb60692c98bc5",
            "formatValue": "0",
            "gasLimit": 100000,
            "gasPrice": "18.535116687",
            "gasUsed": 56475,
            "intTxnCount": 0,
            "internalRevert": false,
            "internalRevertMessage": "",
            "isContractCreation": false,
            "isFlashloan": false,
            "maxFee": "38.98912477",
            "nonce": 155958,
            "overwritedBlockNumber": -1,
            "priorityFee": "1",
            "receiver": "0x628a3b2e302c7e896acc432d2d0dd22b6cb9bc88",
            "revertMessage": "",
            "sender": "0x58edf78281334335effa23101bbe3371b6a36a51",
            "simulationEnable": true,
            "sourceTxnHash": "0x6c946e8903ce17d117ebbc8b34522d5b952e497934a88f2f00c0a32d7aa59ef7",
            "status": true,
            "timestamp": "2024-01-27T14:34:35Z",
            "transactionFee": "0.001046770714898325",
            "txnHash": "0x6c946e8903ce17d117ebbc8b34522d5b952e497934a88f2f00c0a32d7aa59ef7",
            "txnIndex": 54,
            "type": 2,
            "value": "0"
        },
        "fund_flow": [
            {
                "amount": "11,965.6",
                "from": "0x58edf78281334335effa23101bbe3371b6a36a51",
                "id": 1,
                "isERC1155": false,
                "isERC721": false,
                "isReverted": false,
                "order": 1,
                "to": "0x4f4d87162376e51194a6d03731eae0604f1a9c3c",
                "token": "0x628a3b2e302c7e896acc432d2d0dd22b6cb9bc88"
            }
        ],
        "token_infos": [
            {
                "address": "0xc02aaa39b223fe8d0a0e5c4f27ead9083c756cc2",
                "decimals": 18
            },
            {
                "address": "0xeeeeeeeeeeeeeeeeeeeeeeeeeeeeeeeeeeeeeeee",
                "decimals": 18
            },
            {
                "address": "0x628a3b2e302c7e896acc432d2d0dd22b6cb9bc88",
                "decimals": 18
            }
        ]
    },
    "address_label": {
        "labels": [
            {
                "address": "0x0000000000000000000000000000000000000004",
                "label": "Precompiled"
            },
            {
                "address": "0xeeeeeeeeeeeeeeeeeeeeeeeeeeeeeeeeeeeeeeee",
                "label": "Ether"
            },
            {
                "address": "0x628a3b2e302c7e896acc432d2d0dd22b6cb9bc88",
                "label": "LimeWire: LMWR Token"
            },
            {
                "address": "0x4f4d87162376e51194a6d03731eae0604f1a9c3c",
                "label": "BYBIT"
            },
            {
                "address": "0x58edf78281334335effa23101bbe3371b6a36a51",
                "label": "KuCoin 20"
            },
            {
                "address": "0x0000000000000000000000000000000000000001",
                "label": "Precompiled"
            },
            {
                "address": "0x0000000000000000000000000000000000000002",
                "label": "Precompiled"
            },
            {
                "address": "0x0000000000000000000000000000000000000003",
                "label": "Precompiled"
            }
        ]
    },
    "trace": {
        "accountLabels": null,
        "dataMap": {
            "-1": {
                "invocation": {
                    "address": "0x58edf78281334335effa23101bbe3371b6a36a51",
                    "callData": "",
                    "decodedMethod": null,
                    "errorInfo": "",
                    "fromAddress": "",
                    "gasUsed": 0,
                    "id": -1,
                    "methodDecoded": false,
                    "operation": "",
                    "output": "",
                    "revert": false,
                    "revertMessage": "",
                    "selector": "",
                    "status": false,
                    "value": ""
                },
                "nodeType": 0
            },
            "0": {
                "invocation": {
                    "address": "0x628a3b2e302c7e896acc432d2d0dd22b6cb9bc88",
                    "callData": "0x0000000000000000000000004f4d87162376e51194a6d03731eae0604f1a9c3c000000000000000000000000000000000000000000000288a80ecb88be100000",
                    "decodedMethod": {
                        "callParams": [
                            {
                                "name": "to",
                                "type": "address",
                                "value": "0x4f4d87162376e51194a6d03731eae0604f1a9c3c"
                            },
                            {
                                "decimalAvailable": true,
                                "name": "amount",
                                "type": "uint256",
                                "value": "11,965,600,000,000,000,000,000"
                            }
                        ],
                        "constructorArguments": "",
                        "name": "transfer",
                        "returnParams": [
                            {
                                "name": "",
                                "type": "bool",
                                "value": true
                            }
                        ],
                        "signature": "transfer(address,uint256)"
                    },
                    "errorInfo": "",
                    "fromAddress": "0x58edf78281334335effa23101bbe3371b6a36a51",
                    "gasUsed": 56475,
                    "id": 0,
                    "methodDecoded": true,
                    "operation": "CALL",
                    "output": "0x0000000000000000000000000000000000000000000000000000000000000001",
                    "revert": false,
                    "revertMessage": "",
                    "selector": "0xa9059cbb",
                    "status": true,
                    "value": "0"
                },
                "nodeType": 0
            },
            "1": {
                "event": {
                    "contract": "0x628a3b2e302c7e896acc432d2d0dd22b6cb9bc88",
                    "decodedLog": {
                        "name": "Transfer",
                        "params": [
                            {
                                "name": "from",
                                "type": "address",
                                "value": "0x58edf78281334335effa23101bbe3371b6a36a51"
                            },
                            {
                                "name": "to",
                                "type": "address",
                                "value": "0x4f4d87162376e51194a6d03731eae0604f1a9c3c"
                            },
                            {
                                "decimalAvailable": true,
                                "name": "value",
                                "type": "uint256",
                                "value": "11,965,600,000,000,000,000,000"
                            }
                        ],
                        "signature": "Transfer(address,address,uint256)"
                    },
                    "id": 1,
                    "logData": "0x000000000000000000000000000000000000000000000288a80ecb88be100000",
                    "logDecoded": true,
                    "operation": "EVENT",
                    "revert": false,
                    "status": true,
                    "topics": [
                        "0xddf252ad1be2c89b69c2b068fc378daa952ba7f163c4a11628f55a4df523b3ef",
                        "0x00000000000000000000000058edf78281334335effa23101bbe3371b6a36a51",
                        "0x0000000000000000000000004f4d87162376e51194a6d03731eae0604f1a9c3c"
                    ]
                },
                "nodeType": 1
            }
        },
        "gasFlame": [
            {
                "children": [
                    {
                        "children": [
                            {
                                "children": [],
                                "depth": 0,
                                "name": "Initial Gas",
                                "value": 21656
                            },
                            {
                                "children": [],
                                "depth": 0,
                                "name": "Executed Gas",
                                "value": 34819
                            }
                        ],
                        "depth": -1,
                        "name": "Actual Gas Used",
                        "value": 56475
                    },
                    {
                        "children": [],
                        "depth": -1,
                        "name": "Refunded Gas",
                        "value": 0
                    }
                ],
                "depth": -2,
                "name": "Total Gas",
                "value": 56475
            }
        ],
        "isConfirmed": true,
        "mainTrace": [
            {
                "children": [
                    {
                        "children": [
                            {
                                "children": [],
                                "depth": 1,
                                "id": 1,
                                "order": 1
                            }
                        ],
                        "depth": 0,
                        "id": 0,
                        "order": 0
                    }
                ],
                "depth": -1,
                "id": -1,
                "order": -1
            }
        ],
        "mainTraceNodeCount": 2,
        "parentIdMap": {
            "0": -1,
            "1": 0
        },
        "tidyTrace": [
            {
                "children": [
                    {
                        "children": [
                            {
                                "children": [],
                                "depth": 1,
                                "id": 1,
                                "order": 1
                            }
                        ],
                        "depth": 0,
                        "id": 0,
                        "order": 0
                    }
                ],
                "depth": -1,
                "id": -1,
                "order": -1
            }
        ],
        "tidyTraceNodeCount": 2
    },
    "state_change": {
        "stateChanges": [
            {
                "address": "0x628a3b2e302c7e896acc432d2d0dd22b6cb9bc88",
                "erc": "ERC-20",
                "slots": [
                    {
                        "current": "0x000000000000000000000000000000000000000000000288a80ecb88be100000",
                        "key": "0x5aec79e62e44501af52e70f2dd3de28e6a8d8ca1e42ed4c6832e8e6f4475191e",
                        "prev": "0x0000000000000000000000000000000000000000000000000000000000000000"
                    },
                    {
                        "current": "0x000000000000000000000000000000000000000000000dd6dd15d86f722d7a75",
                        "key": "0xfd552f91b7c6f6cf7c162367a465f9580d4cba7e35f4a0854e7c549b782cdde9",
                        "prev": "0x00000000000000000000000000000000000000000000105f8524a3f8303d7a75"
                    }
                ],
                "storageVariables": [
                    {
                        "name": "_balances",
                        "type": "mapping(address => uint256)",
                        "value": {
                            "pairs": [
                                {
                                    "key": "0x4f4d87162376e51194a6d03731eae0604f1a9c3c",
                                    "value": {
                                        "current": "11965600000000000000000",
                                        "prev": "0",
                                        "typeTag": 1
                                    }
                                },
                                {
                                    "key": "0x58edf78281334335effa23101bbe3371b6a36a51",
                                    "value": {
                                        "current": "65354298386309293374069",
                                        "prev": "77319898386309293374069",
                                        "typeTag": 1
                                    }
                                }
                            ],
                            "typeTag": 4
                        }
                    }
                ]
            }
        ]
    }
}