{
    "balance_change": {
        "balanceChanges": [
            {
                "account": "0x63a43456ebf4df1a5e3631019ddd991094cb42c3",
                "assets": [
                    {
                        "address": "0xab456bdb0a373bbac6c4a76176e9f159cacd5752",
                        "amount": "794,206,654.43851124",
                        "iconUrl": "",
                        "isERC1155": false,
                        "isERC721": false,
                        "sign": true,
                        "value": "205.8361443"
                    },
                    {
                        "address": "0xc02aaa39b223fe8d0a0e5c4f27ead9083c756cc2",
                        "amount": "0.07904294426656966",
                        "iconUrl": "https://assets.blocksec.com/icon/f1cb2d02c471d545bbc7722daf3277fd852d98e63d118771af7047bd8256c516.png",
                        "isERC1155": false,
                        "isERC721": false,
                        "sign": false,
                        "value": "222.63314726032471005"
                    }
                ]
            },
            {
                "account": "0xab3da691942b259f529f3a3c034adc64f0469a00",
                "assets": [
                    {
                        "address": "0xc02aaa39b223fe8d0a0e5c4f27ead9083c756cc2",
                        "amount": "0.07904294426656966",
                        "iconUrl": "https://assets.blocksec.com/icon/f1cb2d02c471d545bbc7722daf3277fd852d98e63d118771af7047bd8256c516.png",
                        "isERC1155": false,
                        "isERC721": false,
                        "sign": true,
                        "value": "222.63314726032471005"
                    },
                    {
                        "address": "0xab456bdb0a373bbac6c4a76176e9f159cacd5752",
                        "amount": "794,206,654.43851124",
                        "iconUrl": "",
                        "isERC1155": false,
                        "isERC721": false,
                        "sign": false,
                        "value": "205.8361443"
                    }
                ]
            }
        ]
    },
    "profile": {
        "basic_info": {
            "baseFee": "",
            "blockNumber": 12509973,
            "callData": "0x38ed17390000000000000000000000000000000000000000000000000118d123970287bc0000000000000000000000000000000000000000000000000a72b36aea0cd96c00000000000000000000000000000000000000000000000000000000000000a000000000000000000000000063a43456ebf4df1a5e3631019ddd991094cb42c30000000000000000000000000000000000000000000000000000000060ae452e0000000000000000000000000000000000000000000000000000000000000002000000000000000000000000c02aaa39b223fe8d0a0e5c4f27ead9083c756cc2000000000000000000000000ab456bdb0a373bbac6c4a76176e9f159cacd5752",
            "debugEnable": true,
            "errorInfo": "",
            "eventCount": 4,
            "feeRecipient": "0xea674fdde714fd979de3edf0f56aa9716b898ec8",
            "formatValue": "0",
            "gasLimit": 208249,
            "gasPrice": "29",
            "gasUsed": 152141,
            "intTxnCount": 6,
            "internalRevert": false,
            "internalRevertMessage": "",
            "isContractCreation": false,
            "isFlashloan": false,
            "maxFee": "",
            "nonce": 3310,
            "overwritedBlockNumber": -1,
            "priorityFee": "",
            "receiver": "0x7a250d5630b4cf539739df2c5dacb4c659f2488d",
            "revertMessage": "",
            "sender": "0x63a43456ebf4df1a5e3631019ddd991094cb42c3",
            "simulationEnable": true,
            "sourceTxnHash": "0x6c619b7f0574c1f445da45e9e083e9a2b6936095c7e9449d8d8c7b312e14fc31",
            "status": true,
            "timestamp": "2021-05-26T12:36:35Z",
            "transactionFee": "0.004412089",
            "txnHash": "0x6c619b7f0574c1f445da45e9e083e9a2b6936095c7e9449d8d8c7b312e14fc31",
            "txnIndex": 67,
            "type": 0,
            "value": "0"
        },
        "fund_flow": [
            {
                "amount": "0.07904294426656966",
                "from": "0x63a43456ebf4df1a5e3631019ddd991094cb42c3",
                "id": 1,
                "isERC1155": false,
                "isERC721": false,
                "isReverted": false,
                "order": 1,
                "to": "0xab3da691942b259f529f3a3c034adc64f0469a00",
                "token": "0xc02aaa39b223fe8d0a0e5c4f27ead9083c756cc2"
            },
            {
                "amount": "794,206,654.43851124",
                "from": "0xab3da691942b259f529f3a3c034adc64f0469a00",
                "id": 2,
                "isERC1155": false,
                "isERC721": false,
                "isReverted": false,
                "order": 2,
                "to": "0x63a43456ebf4df1a5e3631019ddd991094cb42c3",
                "token": "0xab456bdb0a373bbac6c4a76176e9f159cacd5752"
            }
        ],
        "token_infos": [
            {
                "address": "0xab456bdb0a373bbac6c4a76176e9f159cacd5752",
                "decimals": 9
            },
            {
                "address": "0xc02aaa39b223fe8d0a0e5c4f27ead9083c756cc2",
                "decimals": 18
            },
            {
                "address": "0xeeeeeeeeeeeeeeeeeeeeeeeeeeeeeeeeeeeeeeee",
                "decimals": 18
            }
        ]
    },
    "address_label": {
        "labels": [
            {
                "address": "0x0000000000000000000000000000000000000001",
                "label": "Precompiled"
            },
            {
                "address": "0x0000000000000000000000000000000000000003",
                "label": "Precompiled"
            },
            {
                "address": "0xc02aaa39b223fe8d0a0e5c4f27ead9083c756cc2",
                "label": "Wrapped Ether (WETH)"
            },
            {
                "address": "0xab3da691942b259f529f3a3c034adc64f0469a00",
                "label": "Uniswap V2: SGE"
            },
            {
                "address": "0xab456bdb0a373bbac6c4a76176e9f159cacd5752",
                "label": "SGE: SGE Token"
            },
            {
                "address": "0x0000000000000000000000000000000000000002",
                "label": "Precompiled"
            },
            {
                "address": "0x0000000000000000000000000000000000000004",
                "label": "Precompiled"
            },
            {
                "address": "0xeeeeeeeeeeeeeeeeeeeeeeeeeeeeeeeeeeeeeeee",
                "label": "Ether"
            },
            {
                "address": "0x7a250d5630b4cf539739df2c5dacb4c659f2488d",
                "label": "Uniswap V2: Router 2"
            }
        ]
    },
    "trace": {
        "accountLabels": null,
        "dataMap": {
            "-1": {
                "invocation": {
                    "address": "0x63a43456ebf4df1a5e3631019ddd991094cb42c3",
                    "callData": "",
                    "decodedMethod": null,
                    "errorInfo": "",
                    "fromAddress": "",
                    "gasUsed": 0,
                    "id": -1,
                    "methodDecoded": false,
                    "operation": "",
                    "output": "",
                    "revert": false,
                    "revertMessage": "",
                    "selector": "",
                    "status": false,
                    "value": ""
                },
                "nodeType": 0
            },
            "0": {
                "invocation": {
                    "address": "0x7a250d5630b4cf539739df2c5dacb4c659f2488d",
                    "callData": "0x0000000000000000000000000000000000000000000000000118d123970287bc0000000000000000000000000000000000000000000000000a72b36aea0cd96c00000000000000000000000000000000000000000000000000000000000000a000000000000000000000000063a43456ebf4df1a5e3631019ddd991094cb42c30000000000000000000000000000000000000000000000000000000060ae452e0000000000000000000000000000000000000000000000000000000000000002000000000000000000000000c02aaa39b223fe8d0a0e5c4f27ead9083c756cc2000000000000000000000000ab456bdb0a373bbac6c4a76176e9f159cacd5752",
                    "decodedMethod": {
                        "callParams": [
                            {
                                "name": "amountIn",
                                "type": "uint256",
                                "value": "79,042,944,266,569,660"
                            },
                            {
                                "name": "amountOutMin",
                                "type": "uint256",
                                "value": "752,861,359,498,910,060"
                            },
                            {
                                "name": "path",
                                "type": "address[]",
                                "value": [
                                    "0xc02aaa39b223fe8d0a0e5c4f27ead9083c756cc2",
                                    "0xab456bdb0a373bbac6c4a76176e9f159cacd5752"
                                ]
                            },
                            {
                                "name": "to",
                                "type": "address",
                                "value": "0x63a43456ebf4df1a5e3631019ddd991094cb42c3"
                            },
                            {
                                "name": "deadline",
                                "type": "uint256",
                                "value": "1,622,033,710"
                            }
                        ],
                        "constructorArguments": "",
                        "name": "swapExactTokensForTokens",
                        "returnParams": [
                            {
                                "name": "amounts",
                                "type": "uint256[]",
                                "value": [
                                    "79,042,944,266,569,660",
                                    "863,268,102,650,555,694"
                                ]
                            }
                        ],
                        "signature": "swapExactTokensForTokens(uint256,uint256,address[],address,uint256)"
                    },
                    "errorInfo": "",
                    "fromAddress": "0x63a43456ebf4df1a5e3631019ddd991094cb42c3",
                    "gasUsed": 152141,
                    "id": 0,
                    "methodDecoded": true,
                    "operation": "CALL",
                    "output": "0x000000000000000000000000000000000000000000000000000000000000002000000000000000000000000000000000000000000000000000000000000000020000000000000000000000000000000000000000000000000118d123970287bc0000000000000000000000000000000000000000000000000bfaf1c3fc696d2e",
                    "revert": false,
                    "revertMessage": "",
                    "selector": "0x38ed1739",
                    "status": true,
                    "value": "0"
                },
                "nodeType": 0
            },
            "1": {
                "invocation": {
                    "address": "0xab3da691942b259f529f3a3c034adc64f0469a00",
                    "callData": "0x",
                    "decodedMethod": {
                        "callParams": [],
                        "constructorArguments": "",
                        "name": "getReserves",
                        "returnParams": [
                            {
                                "name": "_reserve0",
                                "type": "uint112",
                                "value": "1,275,706,883,093,667,205,805"
                            },
                            {
                                "name": "_reserve1",
                                "type": "uint112",
                                "value": "116,377,623,963,443,990,725"
                            },
                            {
                                "name": "_blockTimestampLast",
                                "type": "uint32",
                                "value": "1,622,032,594"
                            }
                        ],
                        "signature": "getReserves()"
                    },
                    "errorInfo": "",
                    "fromAddress": "0x7a250d5630b4cf539739df2c5dacb4c659f2488d",
                    "gasUsed": 2504,
                    "id": 1,
                    "methodDecoded": true,
                    "operation": "STATICCALL",
                    "output": "0x00000000000000000000000000000000000000000000004527fd4b305ecf52ad0000000000000000000000000000000000000000000000064f106066511110c50000000000000000000000000000000000000000000000000000000060ae40d2",
                    "revert": false,
                    "revertMessage": "",
                    "selector": "0x0902f1ac",
                    "status": true,
                    "value": "0"
                },
                "nodeType": 0
            },
            "10": {
                "event": {
                    "contract": "0xab3da691942b259f529f3a3c034adc64f0469a00",
                    "decodedLog": {
                        "name": "Swap",
                        "params": [
                            {
                                "name": "sender",
                                "type": "address",
                                "value": "0x7a250d5630b4cf539739df2c5dacb4c659f2488d"
                            },
                            {
                                "name": "to",
                                "type": "address",
                                "value": "0x63a43456ebf4df1a5e3631019ddd991094cb42c3"
                            },
                            {
                                "name": "amount0In",
                                "type": "uint256",
                                "value": "330,159,634,111,726"
                            },
                            {
                                "name": "amount1In",
                                "type": "uint256",
                                "value": "79,042,944,266,569,660"
                            },
                            {
                                "name": "amount0Out",
                                "type": "uint256",
                                "value": "863,268,102,650,555,694"
                            },
                            {
                                "name": "amount1Out",
                                "type": "uint256",
                                "value": "0"
                            }
                        ],
                        "signature": "Swap(address,uint256,uint256,uint256,uint256,address)"
                    },
                    "id": 10,
                    "logData": "0x00000000000000000000000000000000000000000000000000012c4747b5dcee0000000000000000000000000000000000000000000000000118d123970287bc0000000000000000000000000000000000000000000000000bfaf1c3fc696d2e0000000000000000000000000000000000000000000000000000000000000000",
                    "logDecoded": true,
                    "operation": "EVENT",
                    "revert": false,
                    "status": true,
                    "topics": [
                        "0xd78ad95fa46c994b6551d0da85fc275fe613ce37657fb8d5e3d130840159d822",
                        "0x0000000000000000000000007a250d5630b4cf539739df2c5dacb4c659f2488d",
                        "0x00000000000000000000000063a43456ebf4df1a5e3631019ddd991094cb42c3"
                    ]
                },
                "nodeType": 1
            },
            "2": {
                "invocation": {
                    "address": "0xc02aaa39b223fe8d0a0e5c4f27ead9083c756cc2",
                    "callData": "0x00000000000000000000000063a43456ebf4df1a5e3631019ddd991094cb42c3000000000000000000000000ab3da691942b259f529f3a3c034adc64f0469a000000000000000000000000000000000000000000000000000118d123970287bc",
                    "decodedMethod": {
                        "callParams": [
                            {
                                "name": "src",
                                "type": "address",
                                "value": "0x63a43456ebf4df1a5e3631019ddd991094cb42c3"
                            },
                            {
                                "name": "dst",
                                "type": "address",
                                "value": "0xab3da691942b259f529f3a3c034adc64f0469a00"
                            },
                            {
                                "decimalAvailable": true,
                                "name": "wad",
                                "type": "uint256",
                                "value": "79,042,944,266,569,660"
                            }
                        ],
                        "constructorArguments": "",
                        "name": "transferFrom",
                        "returnParams": [
                            {
                                "name": "",
                                "type": "bool",
                                "value": true
                            }
                        ],
                        "signature": "transferFrom(address,address,uint256)"
                    },
                    "errorInfo": "",
                    "fromAddress": "0x7a250d5630b4cf539739df2c5dacb4c659f2488d",
                    "gasUsed": 15025,
                    "id": 2,
                    "methodDecoded": true,
                    "operation": "CALL",
                    "output": "0x0000000000000000000000000000000000000000000000000000000000000001",
                    "revert": false,
                    "revertMessage": "",
                    "selector": "0x23b872dd",
                    "status": true,
                    "value": "0"
                },
                "nodeType": 0
            },
            "3": {
                "event": {
                    "contract": "0xc02aaa39b223fe8d0a0e5c4f27ead9083c756cc2",
                    "decodedLog": {
                        "name": "Transfer",
                        "params": [
                            {
                                "name": "src",
                                "type": "address",
                                "value": "0x63a43456ebf4df1a5e3631019ddd991094cb42c3"
                            },
                            {
                                "name": "dst",
                                "type": "address",
                                "value": "0xab3da691942b259f529f3a3c034adc64f0469a00"
                            },
                            {
                                "decimalAvailable": true,
                                "name": "wad",
                                "type": "uint256",
                                "value": "79,042,944,266,569,660"
                            }
                        ],
                        "signature": "Transfer(address,address,uint256)"
                    },
                    "id": 3,
                    "logData": "0x0000000000000000000000000000000000000000000000000118d123970287bc",
                    "logDecoded": true,
                    "operation": "EVENT",
                    "revert": false,
                    "status": true,
                    "topics": [
                        "0xddf252ad1be2c89b69c2b068fc378daa952ba7f163c4a11628f55a4df523b3ef",
                        "0x00000000000000000000000063a43456ebf4df1a5e3631019ddd991094cb42c3",
                        "0x000000000000000000000000ab3da691942b259f529f3a3c034adc64f0469a00"
                    ]
                },
                "nodeType": 1
            },
            "4": {
                "invocation": {
                    "address": "0xab3da691942b259f529f3a3c034adc64f0469a00",
                    "callData": "0x0000000000000000000000000000000000000000000000000bfaf1c3fc696d2e000000000000000000000000000000000000000000000000000000000000000000000000000000000000000063a43456ebf4df1a5e3631019ddd991094cb42c300000000000000000000000000000000000000000000000000000000000000800000000000000000000000000000000000000000000000000000000000000000",
                    "decodedMethod": {
                        "callParams": [
                            {
                                "name": "amount0Out",
                                "type": "uint256",
                                "value": "863,268,102,650,555,694"
                            },
                            {
                                "name": "amount1Out",
                                "type": "uint256",
                                "value": "0"
                            },
                            {
                                "name": "to",
                                "type": "address",
                                "value": "0x63a43456ebf4df1a5e3631019ddd991094cb42c3"
                            },
                            {
                                "name": "data",
                                "type": "bytes",
                                "value": "0x"
                            }
                        ],
                        "constructorArguments": "",
                        "name": "swap",
                        "returnParams": [],
                        "signature": "swap(uint256,uint256,address,bytes)"
                    },
                    "errorInfo": "",
                    "fromAddress": "0x7a250d5630b4cf539739df2c5dacb4c659f2488d",
                    "gasUsed": 116521,
                    "id": 4,
                    "methodDecoded": true,
                    "operation": "CALL",
                    "output": "",
                    "revert": false,
                    "revertMessage": "",
                    "selector": "0x022c0d9f",
                    "status": true,
                    "value": "0"
                },
                "nodeType": 0
            },
            "5": {
                "invocation": {
                    "address": "0xab456bdb0a373bbac6c4a76176e9f159cacd5752",
                    "callData": "0x00000000000000000000000063a43456ebf4df1a5e3631019ddd991094cb42c30000000000000000000000000000000000000000000000000bfaf1c3fc696d2e",
                    "decodedMethod": {
                        "callParams": [
                            {
                                "name": "recipient",
                                "type": "address",
                                "value": "0x63a43456ebf4df1a5e3631019ddd991094cb42c3"
                            },
                            {
                                "decimalAvailable": true,
                                "name": "amount",
                                "type": "uint256",
                                "value": "863,268,102,650,555,694"
                            }
                        ],
                        "constructorArguments": "",
                        "name": "transfer",
                        "returnParams": [
                            {
                                "name": "",
                                "type": "bool",
                                "value": true
                            }
                        ],
                        "signature": "transfer(address,uint256)"
                    },
                    "errorInfo": "",
                    "fromAddress": "0xab3da691942b259f529f3a3c034adc64f0469a00",
                    "gasUsed": 77369,
                    "id": 5,
                    "methodDecoded": true,
                    "operation": "CALL",
                    "output": "0x0000000000000000000000000000000000000000000000000000000000000001",
                    "revert": false,
                    "revertMessage": "",
                    "selector": "0xa9059cbb",
                    "status": true,
                    "value": "0"
                },
                "nodeType": 0
            },
            "6": {
                "event": {
                    "contract": "0xab456bdb0a373bbac6c4a76176e9f159cacd5752",
                    "decodedLog": {
                        "name": "Transfer",
                        "params": [
                            {
                                "name": "from",
                                "type": "address",
                                "value": "0xab3da691942b259f529f3a3c034adc64f0469a00"
                            },
                            {
                                "name": "to",
                                "type": "address",
                                "value": "0x63a43456ebf4df1a5e3631019ddd991094cb42c3"
                            },
                            {
                                "decimalAvailable": true,
                                "name": "value",
                                "type": "uint256",
                                "value": "794,206,654,438,511,240"
                            }
                        ],
                        "signature": "Transfer(address,address,uint256)"
                    },
                    "id": 6,
                    "logData": "0x0000000000000000000000000000000000000000000000000b0596be8c0f1288",
                    "logDecoded": true,
                    "operation": "EVENT",
                    "revert": false,
                    "status": true,
                    "topics": [
                        "0xddf252ad1be2c89b69c2b068fc378daa952ba7f163c4a11628f55a4df523b3ef",
                        "0x000000000000000000000000ab3da691942b259f529f3a3c034adc64f0469a00",
                        "0x00000000000000000000000063a43456ebf4df1a5e3631019ddd991094cb42c3"
                    ]
                },
                "nodeType": 1
            },
            "7": {
                "invocation": {
                    "address": "0xab456bdb0a373bbac6c4a76176e9f159cacd5752",
                    "callData": "0x000000000000000000000000ab3da691942b259f529f3a3c034adc64f0469a00",
                    "decodedMethod": {
                        "callParams": [
                            {
                                "name": "account",
                                "type": "address",
                                "value": "0xab3da691942b259f529f3a3c034adc64f0469a00"
                            }
                        ],
                        "constructorArguments": "",
                        "name": "balanceOf",
                        "returnParams": [
                            {
                                "decimalAvailable": true,
                                "name": "",
                                "type": "uint256",
                                "value": "1,274,843,945,150,650,761,837"
                            }
                        ],
                        "signature": "balanceOf(address)"
                    },
                    "errorInfo": "",
                    "fromAddress": "0xab3da691942b259f529f3a3c034adc64f0469a00",
                    "gasUsed": 4798,
                    "id": 7,
                    "methodDecoded": true,
                    "operation": "STATICCALL",
                    "output": "0x0000000000000000000000000000000000000000000000451c0385b3aa1bc26d",
                    "revert": false,
                    "revertMessage": "",
                    "selector": "0x70a08231",
                    "status": true,
                    "value": "0"
                },
                "nodeType": 0
            },
            "8": {
                "invocation": {
                    "address": "0xc02aaa39b223fe8d0a0e5c4f27ead9083c756cc2",
                    "callData": "0x000000000000000000000000ab3da691942b259f529f3a3c034adc64f0469a00",
                    "decodedMethod": {
                        "callParams": [
                            {
                                "name": "",
                                "type": "address",
                                "value": "0xab3da691942b259f529f3a3c034adc64f0469a00"
                            }
                        ],
                        "constructorArguments": "",
                        "name": "balanceOf",
                        "returnParams": [
                            {
                                "decimalAvailable": true,
                                "name": "",
                                "type": "uint256",
                                "value": "116,456,666,907,710,560,385"
                            }
                        ],
                        "signature": "balanceOf(address)"
                    },
                    "errorInfo": "",
                    "fromAddress": "0xab3da691942b259f529f3a3c034adc64f0469a00",
                    "gasUsed": 534,
                    "id": 8,
                    "methodDecoded": true,
                    "operation": "STATICCALL",
                    "output": "0x00000000000000000000000000000000000000000000000650293189e8139881",
                    "revert": false,
                    "revertMessage": "",
                    "selector": "0x70a08231",
                    "status": true,
                    "value": "0"
                },
                "nodeType": 0
            },
            "9": {
                "event": {
                    "contract": "0xab3da691942b259f529f3a3c034adc64f0469a00",
                    "decodedLog": {
                        "name": "Sync",
                        "params": [
                            {
                                "name": "reserve0",
                                "type": "uint112",
                                "value": "1,274,843,945,150,650,761,837"
                            },
                            {
                                "name": "reserve1",
                                "type": "uint112",
                                "value": "116,456,666,907,710,560,385"
                            }
                        ],
                        "signature": "Sync(uint112,uint112)"
                    },
                    "id": 9,
                    "logData": "0x0000000000000000000000000000000000000000000000451c0385b3aa1bc26d00000000000000000000000000000000000000000000000650293189e8139881",
                    "logDecoded": true,
                    "operation": "EVENT",
                    "revert": false,
                    "status": true,
                    "topics": [
                        "0x1c411e9a96e071241c2f21f7726b17ae89e3cab4c78be50e062b03a9fffbbad1"
                    ]
                },
                "nodeType": 1
            }
        },
        "gasFlame": [
            {
                "children": [
                    {
                        "children": [
                            {
                                "children": [],
                                "depth": 0,
                                "name": "Initial Gas",
                                "value": 23072
                            },
                            {
                                "children": [
                                    {
                                        "children": [],
                                        "depth": 1,
                                        "name": "getReserves",
                                        "value": 2504
                                    },
                                    {
                                        "children": [],
                                        "depth": 1,
                                        "name": "transferFrom",
                                        "value": 15025
                                    },
                                    {
                                        "children": [
                                            {
                                                "children": [],
                                                "depth": 2,
                                                "name": "transfer",
                                                "value": 77369
                                            },
                                            {
                                                "children": [],
                                                "depth": 2,
                                                "name": "balanceOf",
                                                "value": 4798
                                            },
                                            {
                                                "children": [],
                                                "depth": 2,
                                                "name": "balanceOf",
                                                "value": 534
                                            }
                                        ],
                                        "depth": 1,
                                        "name": "swap",
                                        "value": 116521
                                    }
                                ],
                                "depth": 0,
                                "name": "Executed Gas",
                                "value": 146869
                            }
                        ],
                        "depth": -1,
                        "name": "Actual Gas Used",
                        "value": 152141
                    },
                    {
                        "children": [],
                        "depth": -1,
                        "name": "Refunded Gas",
                        "value": 17800
                    }
                ],
                "depth": -2,
                "name": "Total Gas",
                "value": 169941
            }
        ],
        "isConfirmed": true,
        "mainTrace": [
            {
                "children": [
                    {
                        "children": [
                            {
                                "children": [],
                                "depth": 1,
                                "id": 1,
                                "order": 1
                            },
                            {
                                "children": [
                                    {
                                        "children": [],
                                        "depth": 2,
                                        "id": 3,
                                        "order": 3
                                    }
                                ],
                                "depth": 1,
                                "id": 2,
                                "order": 2
                            },
                            {
                                "children": [
                                    {
                                        "children": [
                                            {
                                                "children": [],
                                                "depth": 3,
                                                "id": 6,
                                                "order": 6
                                            }
                                        ],
                                        "depth": 2,
                                        "id": 5,
                                        "order": 5
                                    },
                                    {
                                        "children": [],
                                        "depth": 2,
                                        "id": 7,
                                        "order": 7
                                    },
                                    {
                                        "children": [],
                                        "depth": 2,
                                        "id": 8,
                                        "order": 8
                                    },
                                    {
                                        "children": [],
                                        "depth": 2,
                                        "id": 9,
                                        "order": 9
                                    },
                                    {
                                        "children": [],
                                        "depth": 2,
                                        "id": 10,
                                        "order": 10
                                    }
                                ],
                                "depth": 1,
                                "id": 4,
                                "order": 4
                            }
                        ],
                        "depth": 0,
                        "id": 0,
                        "order": 0
                    }
                ],
                "depth": -1,
                "id": -1,
                "order": -1
            }
        ],
        "mainTraceNodeCount": 11,
        "parentIdMap": {
            "0": -1,
            "1": 0,
            "10": 4,
            "2": 0,
            "3": 2,
            "4": 0,
            "5": 4,
            "6": 5,
            "7": 4,
            "8": 4,
            "9": 4
        },
        "tidyTrace": [
            {
                "children": [
                    {
                        "children": [
                            {
                                "children": [
                                    {
                                        "children": [],
                                        "depth": 2,
                                        "id": 3,
                                        "order": 3
                                    }
                                ],
                                "depth": 1,
                                "id": 2,
                                "order": 2
                            },
                            {
                                "children": [
                                    {
                                        "children": [
                                            {
                                                "children": [],
                                                "depth": 3,
                                                "id": 6,
                                                "order": 6
                                            }
                                        ],
                                        "depth": 2,
                                        "id": 5,
                                        "order": 5
                                    },
                                    {
                                        "children": [],
                                        "depth": 2,
                                        "id": 9,
                                        "order": 9
                                    },
                                    {
                                        "children": [],
                                        "depth": 2,
                                        "id": 10,
                                        "order": 10
                                    }
                                ],
                                "depth": 1,
                                "id": 4,
                                "order": 4
                            }
                        ],
                        "depth": 0,
                        "id": 0,
                        "order": 0
                    }
                ],
                "depth": -1,
                "id": -1,
                "order": -1
            }
        ],
        "tidyTraceNodeCount": 8
    },
    "state_change": {
        "stateChanges": [
            {
                "address": "0xab3da691942b259f529f3a3c034adc64f0469a00",
                "erc": "ERC-20",
                "slots": [
                    {
                        "current": "0x0000000000000000000000000000000099776389fb57ff7ac9b4978d96418f64",
                        "key": "0x0000000000000000000000000000000000000000000000000000000000000009",
                        "prev": "0x0000000000000000000000000000000099774c2f65325f08755f72245e957efb"
                    },
                    {
                        "current": "0x0000000000000000000000000000007c1ab13c50a82922af6eaa4d43576701d6",
                        "key": "0x000000000000000000000000000000000000000000000000000000000000000a",
                        "prev": "0x0000000000000000000000000000007c1aa64618e530a214c5204b610ea5bb9a"
                    },
                    {
                        "current": "0x60ae40d300000000000650293189e81398810000000000451c0385b3aa1bc26d",
                        "key": "0x0000000000000000000000000000000000000000000000000000000000000008",
                        "prev": "0x60ae40d20000000000064f106066511110c500000000004527fd4b305ecf52ad"
                    }
                ],
                "storageVariables": [
                    {
                        "name": "reserve0",
                        "type": "uint112",
                        "value": {
                            "current": "1274843945150650761837",
                            "prev": "1275706883093667205805",
                            "typeTag": 1
                        }
                    },
                    {
                        "name": "reserve1",
                        "type": "uint112",
                        "value": {
                            "current": "116456666907710560385",
                            "prev": "116377623963443990725",
                            "typeTag": 1
                        }
                    },
                    {
                        "name": "blockTimestampLast",
                        "type": "uint32",
                        "value": {
                            "current": "1622032595",
                            "prev": "1622032594",
                            "typeTag": 1
                        }
                    },
                    {
                        "name": "price0CumulativeLast",
                        "type": "uint256",
                        "value": {
                            "current": "203991785571853919491618232651481190244",
                            "prev": "203991311899430169803237708905399549691",
                            "typeTag": 1
                        }
                    },
                    {
                        "name": "price1CumulativeLast",
                        "type": "uint256",
                        "value": {
                            "current": "42230493685965610378290777720126284693974",
                            "prev": "42230436769106373080594499211449875151770",
                            "typeTag": 1
                        }
                    }
                ]
            },
            {
                "address": "0xab456bdb0a373bbac6c4a76176e9f159cacd5752",
                "erc": "ERC-20",
                "slots": [
                    {
                        "current": "0x002be2020d1b4a9a6405dd44ff4820e16cdf4a1b5cf7ed1f43cf46350c26848b",
                        "key": "0x4891f0e54d5091395d7ed16b4952ca335c4ebc78adfaad0b8cebc227c41e3fd5",
                        "prev": "0x002bdaca7a27c9b65e16eba3b2c41f648d83fab2a7f319e1f31cc6884808f3cb"
                    },
                    {
                        "current": "0xff21f94387d9bd570c39eb81a894e9cf8286a42885b640bad9b5f355b05a4bb4",
                        "key": "0x000000000000000000000000000000000000000000000000000000000000000a",
                        "prev": "0xff21fd981338a44642f7aabcf5998532c7453e6de9e2d29b465d611b453a5c44"
                    },
                    {
                        "current": "0x0000000000000000000000000000000000000000000000126594f3b70789d66d",
                        "key": "0x000000000000000000000000000000000000000000000000000000000000000b",
                        "prev": "0x0000000000000000000000000000000000000000000000126538f194fd67f46f"
                    },
                    {
                        "current": "0x0340a6b797641bd3e1084266824ab22fc17d93a62f13ea46644a96a8c6650789",
                        "key": "0xc94f23e6086413013f2663481d288faf660b039a06308d1c5a9dfe05009dede1",
                        "prev": "0x0341370f126a2da4585bd0203bcdb09d210e33ee7ac1cd6975fd0750d47ef299"
                    },
                    {
                        "current": "0x000197037302086813c1a4565cff6fe713583b52ddc9e2a9bdeedc3f6bad8c6c",
                        "key": "0x216081d02f094b56ed944d6bbcabde9e8f3e9d0fab67a9100827653b02667fb3",
                        "prev": "0x00010b00835add86d32bd5d7f0810cdcf886354ff648916718e3d95cf273b1ec"
                    }
                ],
                "storageVariables": [
                    {
                        "name": "_rTotal",
                        "type": "uint256",
                        "value": {
                            "current": "115399802697334125522737745495376329294122846327481628041400396900250871810996",
                            "prev": "115399832583632481721992879903747327392360042310744056898629903003401062079556",
                            "typeTag": 1
                        }
                    },
                    {
                        "name": "_tFeeTotal",
                        "type": "uint256",
                        "value": {
                            "current": "339361136588586866285",
                            "prev": "339335238545507349615",
                            "typeTag": 1
                        }
                    },
                    {
                        "name": "_rOwned",
                        "type": "mapping(address => uint256)",
                        "value": {
                            "pairs": [
                                {
                                    "key": "0x63a43456ebf4df1a5e3631019ddd991094cb42c3",
                                    "value": {
                                        "current": "2809103754733563883502812845377550667007829901952716478987470086018534508",
                                        "prev": "1842780107883121269280987943579495993659650576395396571045056664929808876",
                                        "typeTag": 1
                                    }
                                },
                                {
                                    "key": "0xab3da691942b259f529f3a3c034adc64f0469a00",
                                    "value": {
                                        "current": "1471167397402761457567701654157883090908399948207664440020218526994878760841",
                                        "prev": "1472163607347968099437057887430679243818944110795650617157667043566157755033",
                                        "typeTag": 1
                                    }
                                },
                                {
                                    "key": "0xab456bdb0a373bbac6c4a76176e9f159cacd5752",
                                    "value": {
                                        "current": "77534273760025357883980176375647315570741883840435760351821778044523545739",
                                        "prev": "77484463262765025791320163540092935297268625870362682786695872512134804427",
                                        "typeTag": 1
                                    }
                                }
                            ],
                            "typeTag": 4
                        }
                    }
                ]
            },
            {
                "address": "0xc02aaa39b223fe8d0a0e5c4f27ead9083c756cc2",
                "erc": "ERC-20",
                "slots": [
                    {
                        "current": "0x0000000000000000000000000000000000000000000000000000000000000000",
                        "key": "0x216081d02f094b56ed944d6bbcabde9e8f3e9d0fab67a9100827653b02667fb3",
                        "prev": "0x0000000000000000000000000000000000000000000000000118d123970287bc"
                    },
                    {
                        "current": "0x00000000000000000000000000000000000000000000000650293189e8139881",
                        "key": "0xc94f23e6086413013f2663481d288faf660b039a06308d1c5a9dfe05009dede1",
                        "prev": "0x0000000000000000000000000000000000000000000000064f106066511110c5"
                    }
                ],
                "storageVariables": [
                    {
                        "name": "balanceOf",
                        "type": "mapping(address => uint256)",
                        "value": {
                            "pairs": [
                                {
                                    "key": "0x63a43456ebf4df1a5e3631019ddd991094cb42c3",
                                    "value": {
                                        "current": "0",
                                        "prev": "79042944266569660",
                                        "typeTag": 1
                                    }
                                },
                                {
                                    "key": "0xab3da691942b259f529f3a3c034adc64f0469a00",
                                    "value": {
                                        "current": "116456666907710560385",
                                        "prev": "116377623963443990725",
                                        "typeTag": 1
                                    }
                                }
                            ],
                            "typeTag": 4
                        }
                    }
                ]
            }
        ]
    }
}