{
    "balance_change": {
        "balanceChanges": [
            {
                "account": "0x884999214c56091853765b9d4323cf8bb9f7e699",
                "assets": [
                    {
                        "address": "0xd13c7342e1ef687c5ad21b27c2b65d772cab5c8c",
                        "amount": "840.6136",
                        "iconUrl": "",
                        "isERC1155": false,
                        "isERC721": false,
                        "sign": true,
                        "value": "250.390653"
                    },
                    {
                        "address": "0x83e6f1e41cdd28eaceb20cb649155049fac3d5aa",
                        "amount": "50",
                        "iconUrl": "",
                        "isERC1155": false,
                        "isERC721": false,
                        "sign": false,
                        "value": "252.1300351"
                    }
                ]
            },
            {
                "account": "0x42d52847be255eacee8c3f96b3b223c0b3cc0438",
                "assets": [
                    {
                        "address": "0xc02aaa39b223fe8d0a0e5c4f27ead9083c756cc2",
                        "amount": "0.153114460144362914",
                        "iconUrl": "https://assets.blocksec.com/icon/f1cb2d02c471d545bbc7722daf3277fd852d98e63d118771af7047bd8256c516.png",
                        "isERC1155": false,
                        "isERC721": false,
                        "sign": true,
                        "value": "252.130035"
                    },
                    {
                        "address": "0xd13c7342e1ef687c5ad21b27c2b65d772cab5c8c",
                        "amount": "840.6136",
                        "iconUrl": "",
                        "isERC1155": false,
                        "isERC721": false,
                        "sign": false,
                        "value": "250.390653"
                    }
                ]
            },
            {
                "account": "0xffa98a091331df4600f87c9164cd27e8a5cd2405",
                "assets": [
                    {
                        "address": "0x83e6f1e41cdd28eaceb20cb649155049fac3d5aa",
                        "amount": "50",
                        "iconUrl": "",
                        "isERC1155": false,
                        "isERC721": false,
                        "sign": true,
                        "value": "252.1300351"
                    },
                    {
                        "address": "0xc02aaa39b223fe8d0a0e5c4f27ead9083c756cc2",
                        "amount": "0.153114460144362914",
                        "iconUrl": "https://assets.blocksec.com/icon/f1cb2d02c471d545bbc7722daf3277fd852d98e63d118771af7047bd8256c516.png",
                        "isERC1155": false,
                        "isERC721": false,
                        "sign": false,
                        "value": "252.130035"
                    }
                ]
            }
        ]
    },
    "profile": {
        "basic_info": {
            "baseFee": "",
            "blockNumber": 11926647,
            "callData": "0x38ed1739000000000000000000000000000000000000000000000002b5e3af16b188000000000000000000000000000000000000000000000000000000000000007fa11a00000000000000000000000000000000000000000000000000000000000000a0000000000000000000000000884999214c56091853765b9d4323cf8bb9f7e699000000000000000000000000000000000000000000000000000000006037aca1000000000000000000000000000000000000000000000000000000000000000300000000000000000000000083e6f1e41cdd28eaceb20cb649155049fac3d5aa000000000000000000000000c02aaa39b223fe8d0a0e5c4f27ead9083c756cc2000000000000000000000000d13c7342e1ef687c5ad21b27c2b65d772cab5c8c",
            "debugEnable": true,
            "errorInfo": "",
            "eventCount": 7,
            "feeRecipient": "0x04668ec2f57cc15c381b461b9fedab5d451c8f7f",
            "formatValue": "0",
            "gasLimit": 218350,
            "gasPrice": "196",
            "gasUsed": 187985,
            "intTxnCount": 11,
            "internalRevert": false,
            "internalRevertMessage": "",
            "isContractCreation": false,
            "isFlashloan": false,
            "maxFee": "",
            "nonce": 34,
            "overwritedBlockNumber": -1,
            "priorityFee": "",
            "receiver": "0x7a250d5630b4cf539739df2c5dacb4c659f2488d",
            "revertMessage": "",
            "sender": "0x884999214c56091853765b9d4323cf8bb9f7e699",
            "simulationEnable": true,
            "sourceTxnHash": "0x6c492bb3e6065c644f81ee9aef48ac4eb97a03c216c59d5d427d6b80d79453f1",
            "status": true,
            "timestamp": "2021-02-25T13:37:51Z",
            "transactionFee": "0.03684506",
            "txnHash": "0x6c492bb3e6065c644f81ee9aef48ac4eb97a03c216c59d5d427d6b80d79453f1",
            "txnIndex": 92,
            "type": 0,
            "value": "0"
        },
        "fund_flow": [
            {
                "amount": "50",
                "from": "0x884999214c56091853765b9d4323cf8bb9f7e699",
                "id": 1,
                "isERC1155": false,
                "isERC721": false,
                "isReverted": false,
                "order": 1,
                "to": "0xffa98a091331df4600f87c9164cd27e8a5cd2405",
                "token": "0x83e6f1e41cdd28eaceb20cb649155049fac3d5aa"
            },
            {
                "amount": "0.153114460144362914",
                "from": "0xffa98a091331df4600f87c9164cd27e8a5cd2405",
                "id": 2,
                "isERC1155": false,
                "isERC721": false,
                "isReverted": false,
                "order": 2,
                "to": "0x42d52847be255eacee8c3f96b3b223c0b3cc0438",
                "token": "0xc02aaa39b223fe8d0a0e5c4f27ead9083c756cc2"
            },
            {
                "amount": "840.6136",
                "from": "0x42d52847be255eacee8c3f96b3b223c0b3cc0438",
                "id": 3,
                "isERC1155": false,
                "isERC721": false,
                "isReverted": false,
                "order": 3,
                "to": "0x884999214c56091853765b9d4323cf8bb9f7e699",
                "token": "0xd13c7342e1ef687c5ad21b27c2b65d772cab5c8c"
            }
        ],
        "token_infos": [
            {
                "address": "0xd13c7342e1ef687c5ad21b27c2b65d772cab5c8c",
                "decimals": 4
            },
            {
                "address": "0xeeeeeeeeeeeeeeeeeeeeeeeeeeeeeeeeeeeeeeee",
                "decimals": 18
            },
            {
                "address": "0x83e6f1e41cdd28eaceb20cb649155049fac3d5aa",
                "decimals": 18
            },
            {
                "address": "0xc02aaa39b223fe8d0a0e5c4f27ead9083c756cc2",
                "decimals": 18
            }
        ]
    },
    "address_label": {
        "labels": [
            {
                "address": "0x83e6f1e41cdd28eaceb20cb649155049fac3d5aa",
                "label": "Polkastarter: POLS Token"
            },
            {
                "address": "0xffa98a091331df4600f87c9164cd27e8a5cd2405",
                "label": "Uniswap V2: POLS 13"
            },
            {
                "address": "0xd13c7342e1ef687c5ad21b27c2b65d772cab5c8c",
                "label": "Ultra: UOS Token"
            },
            {
                "address": "0x0000000000000000000000000000000000000001",
                "label": "Precompiled"
            },
            {
                "address": "0x0000000000000000000000000000000000000004",
                "label": "Precompiled"
            },
            {
                "address": "0x42d52847be255eacee8c3f96b3b223c0b3cc0438",
                "label": "Uniswap V2: UOS"
            },
            {
                "address": "0x7a250d5630b4cf539739df2c5dacb4c659f2488d",
                "label": "Uniswap V2: Router 2"
            },
            {
                "address": "0xc02aaa39b223fe8d0a0e5c4f27ead9083c756cc2",
                "label": "Wrapped Ether (WETH)"
            },
            {
                "address": "0xeeeeeeeeeeeeeeeeeeeeeeeeeeeeeeeeeeeeeeee",
                "label": "Ether"
            },
            {
                "address": "0x0000000000000000000000000000000000000002",
                "label": "Precompiled"
            },
            {
                "address": "0x0000000000000000000000000000000000000003",
                "label": "Precompiled"
            }
        ]
    },
    "trace": {
        "accountLabels": null,
        "dataMap": {
            "-1": {
                "invocation": {
                    "address": "0x884999214c56091853765b9d4323cf8bb9f7e699",
                    "callData": "",
                    "decodedMethod": null,
                    "errorInfo": "",
                    "fromAddress": "",
                    "gasUsed": 0,
                    "id": -1,
                    "methodDecoded": false,
                    "operation": "",
                    "output": "",
                    "revert": false,
                    "revertMessage": "",
                    "selector": "",
                    "status": false,
                    "value": ""
                },
                "nodeType": 0
            },
            "0": {
                "invocation": {
                    "address": "0x7a250d5630b4cf539739df2c5dacb4c659f2488d",
                    "callData": "0x000000000000000000000000000000000000000000000002b5e3af16b188000000000000000000000000000000000000000000000000000000000000007fa11a00000000000000000000000000000000000000000000000000000000000000a0000000000000000000000000884999214c56091853765b9d4323cf8bb9f7e699000000000000000000000000000000000000000000000000000000006037aca1000000000000000000000000000000000000000000000000000000000000000300000000000000000000000083e6f1e41cdd28eaceb20cb649155049fac3d5aa000000000000000000000000c02aaa39b223fe8d0a0e5c4f27ead9083c756cc2000000000000000000000000d13c7342e1ef687c5ad21b27c2b65d772cab5c8c",
                    "decodedMethod": {
                        "callParams": [
                            {
                                "name": "amountIn",
                                "type": "uint256",
                                "value": "50,000,000,000,000,000,000"
                            },
                            {
                                "name": "amountOutMin",
                                "type": "uint256",
                                "value": "8,364,314"
                            },
                            {
                                "name": "path",
                                "type": "address[]",
                                "value": [
                                    "0x83e6f1e41cdd28eaceb20cb649155049fac3d5aa",
                                    "0xc02aaa39b223fe8d0a0e5c4f27ead9083c756cc2",
                                    "0xd13c7342e1ef687c5ad21b27c2b65d772cab5c8c"
                                ]
                            },
                            {
                                "name": "to",
                                "type": "address",
                                "value": "0x884999214c56091853765b9d4323cf8bb9f7e699"
                            },
                            {
                                "name": "deadline",
                                "type": "uint256",
                                "value": "1,614,261,409"
                            }
                        ],
                        "constructorArguments": "",
                        "name": "swapExactTokensForTokens",
                        "returnParams": [
                            {
                                "name": "amounts",
                                "type": "uint256[]",
                                "value": [
                                    "50,000,000,000,000,000,000",
                                    "153,114,460,144,362,914",
                                    "8,406,136"
                                ]
                            }
                        ],
                        "signature": "swapExactTokensForTokens(uint256,uint256,address[],address,uint256)"
                    },
                    "errorInfo": "",
                    "fromAddress": "0x884999214c56091853765b9d4323cf8bb9f7e699",
                    "gasUsed": 187985,
                    "id": 0,
                    "methodDecoded": true,
                    "operation": "CALL",
                    "output": "0x00000000000000000000000000000000000000000000000000000000000000200000000000000000000000000000000000000000000000000000000000000003000000000000000000000000000000000000000000000002b5e3af16b1880000000000000000000000000000000000000000000000000000021ff8ca4ee165a20000000000000000000000000000000000000000000000000000000000804478",
                    "revert": false,
                    "revertMessage": "",
                    "selector": "0x38ed1739",
                    "status": true,
                    "value": "0"
                },
                "nodeType": 0
            },
            "1": {
                "invocation": {
                    "address": "0xffa98a091331df4600f87c9164cd27e8a5cd2405",
                    "callData": "0x",
                    "decodedMethod": {
                        "callParams": [],
                        "constructorArguments": "",
                        "name": "getReserves",
                        "returnParams": [
                            {
                                "name": "_reserve0",
                                "type": "uint112",
                                "value": "2,396,220,038,298,699,491,997,637"
                            },
                            {
                                "name": "_reserve1",
                                "type": "uint112",
                                "value": "7,360,151,861,726,142,331,679"
                            },
                            {
                                "name": "_blockTimestampLast",
                                "type": "uint32",
                                "value": "1,614,260,209"
                            }
                        ],
                        "signature": "getReserves()"
                    },
                    "errorInfo": "",
                    "fromAddress": "0x7a250d5630b4cf539739df2c5dacb4c659f2488d",
                    "gasUsed": 1204,
                    "id": 1,
                    "methodDecoded": true,
                    "operation": "STATICCALL",
                    "output": "0x00000000000000000000000000000000000000000001fb6b593b7aca560477c500000000000000000000000000000000000000000000018efea0327becb0fb1f000000000000000000000000000000000000000000000000000000006037a7f1",
                    "revert": false,
                    "revertMessage": "",
                    "selector": "0x0902f1ac",
                    "status": true,
                    "value": "0"
                },
                "nodeType": 0
            },
            "10": {
                "event": {
                    "contract": "0xffa98a091331df4600f87c9164cd27e8a5cd2405",
                    "decodedLog": {
                        "name": "Sync",
                        "params": [
                            {
                                "name": "reserve0",
                                "type": "uint112",
                                "value": "2,396,270,038,298,699,491,997,637"
                            },
                            {
                                "name": "reserve1",
                                "type": "uint112",
                                "value": "7,359,998,747,265,997,968,765"
                            }
                        ],
                        "signature": "Sync(uint112,uint112)"
                    },
                    "id": 10,
                    "logData": "0x00000000000000000000000000000000000000000001fb6e0f1f29e1078c77c500000000000000000000000000000000000000000000018efc8039b19dcf957d",
                    "logDecoded": true,
                    "operation": "EVENT",
                    "revert": false,
                    "status": true,
                    "topics": [
                        "0x1c411e9a96e071241c2f21f7726b17ae89e3cab4c78be50e062b03a9fffbbad1"
                    ]
                },
                "nodeType": 1
            },
            "11": {
                "event": {
                    "contract": "0xffa98a091331df4600f87c9164cd27e8a5cd2405",
                    "decodedLog": {
                        "name": "Swap",
                        "params": [
                            {
                                "name": "sender",
                                "type": "address",
                                "value": "0x7a250d5630b4cf539739df2c5dacb4c659f2488d"
                            },
                            {
                                "name": "to",
                                "type": "address",
                                "value": "0x42d52847be255eacee8c3f96b3b223c0b3cc0438"
                            },
                            {
                                "name": "amount0In",
                                "type": "uint256",
                                "value": "50,000,000,000,000,000,000"
                            },
                            {
                                "name": "amount1In",
                                "type": "uint256",
                                "value": "0"
                            },
                            {
                                "name": "amount0Out",
                                "type": "uint256",
                                "value": "0"
                            },
                            {
                                "name": "amount1Out",
                                "type": "uint256",
                                "value": "153,114,460,144,362,914"
                            }
                        ],
                        "signature": "Swap(address,uint256,uint256,uint256,uint256,address)"
                    },
                    "id": 11,
                    "logData": "0x000000000000000000000000000000000000000000000002b5e3af16b188000000000000000000000000000000000000000000000000000000000000000000000000000000000000000000000000000000000000000000000000000000000000000000000000000000000000000000000000000000000000021ff8ca4ee165a2",
                    "logDecoded": true,
                    "operation": "EVENT",
                    "revert": false,
                    "status": true,
                    "topics": [
                        "0xd78ad95fa46c994b6551d0da85fc275fe613ce37657fb8d5e3d130840159d822",
                        "0x0000000000000000000000007a250d5630b4cf539739df2c5dacb4c659f2488d",
                        "0x00000000000000000000000042d52847be255eacee8c3f96b3b223c0b3cc0438"
                    ]
                },
                "nodeType": 1
            },
            "12": {
                "invocation": {
                    "address": "0x42d52847be255eacee8c3f96b3b223c0b3cc0438",
                    "callData": "0x00000000000000000000000000000000000000000000000000000000000000000000000000000000000000000000000000000000000000000000000000804478000000000000000000000000884999214c56091853765b9d4323cf8bb9f7e69900000000000000000000000000000000000000000000000000000000000000800000000000000000000000000000000000000000000000000000000000000000",
                    "decodedMethod": {
                        "callParams": [
                            {
                                "name": "amount0Out",
                                "type": "uint256",
                                "value": "0"
                            },
                            {
                                "name": "amount1Out",
                                "type": "uint256",
                                "value": "8,406,136"
                            },
                            {
                                "name": "to",
                                "type": "address",
                                "value": "0x884999214c56091853765b9d4323cf8bb9f7e699"
                            },
                            {
                                "name": "data",
                                "type": "bytes",
                                "value": "0x"
                            }
                        ],
                        "constructorArguments": "",
                        "name": "swap",
                        "returnParams": [],
                        "signature": "swap(uint256,uint256,address,bytes)"
                    },
                    "errorInfo": "",
                    "fromAddress": "0x7a250d5630b4cf539739df2c5dacb4c659f2488d",
                    "gasUsed": 71985,
                    "id": 12,
                    "methodDecoded": true,
                    "operation": "CALL",
                    "output": "",
                    "revert": false,
                    "revertMessage": "",
                    "selector": "0x022c0d9f",
                    "status": true,
                    "value": "0"
                },
                "nodeType": 0
            },
            "13": {
                "invocation": {
                    "address": "0xd13c7342e1ef687c5ad21b27c2b65d772cab5c8c",
                    "callData": "0x000000000000000000000000884999214c56091853765b9d4323cf8bb9f7e6990000000000000000000000000000000000000000000000000000000000804478",
                    "decodedMethod": {
                        "callParams": [
                            {
                                "name": "to",
                                "type": "address",
                                "value": "0x884999214c56091853765b9d4323cf8bb9f7e699"
                            },
                            {
                                "decimalAvailable": true,
                                "name": "value",
                                "type": "uint256",
                                "value": "8,406,136"
                            }
                        ],
                        "constructorArguments": "",
                        "name": "transfer",
                        "returnParams": [
                            {
                                "name": "",
                                "type": "bool",
                                "value": true
                            }
                        ],
                        "signature": "transfer(address,uint256)"
                    },
                    "errorInfo": "",
                    "fromAddress": "0x42d52847be255eacee8c3f96b3b223c0b3cc0438",
                    "gasUsed": 30465,
                    "id": 13,
                    "methodDecoded": true,
                    "operation": "CALL",
                    "output": "0x0000000000000000000000000000000000000000000000000000000000000001",
                    "revert": false,
                    "revertMessage": "",
                    "selector": "0xa9059cbb",
                    "status": true,
                    "value": "0"
                },
                "nodeType": 0
            },
            "14": {
                "event": {
                    "contract": "0xd13c7342e1ef687c5ad21b27c2b65d772cab5c8c",
                    "decodedLog": {
                        "name": "Transfer",
                        "params": [
                            {
                                "name": "from",
                                "type": "address",
                                "value": "0x42d52847be255eacee8c3f96b3b223c0b3cc0438"
                            },
                            {
                                "name": "to",
                                "type": "address",
                                "value": "0x884999214c56091853765b9d4323cf8bb9f7e699"
                            },
                            {
                                "decimalAvailable": true,
                                "name": "value",
                                "type": "uint256",
                                "value": "8,406,136"
                            }
                        ],
                        "signature": "Transfer(address,address,uint256)"
                    },
                    "id": 14,
                    "logData": "0x0000000000000000000000000000000000000000000000000000000000804478",
                    "logDecoded": true,
                    "operation": "EVENT",
                    "revert": false,
                    "status": true,
                    "topics": [
                        "0xddf252ad1be2c89b69c2b068fc378daa952ba7f163c4a11628f55a4df523b3ef",
                        "0x00000000000000000000000042d52847be255eacee8c3f96b3b223c0b3cc0438",
                        "0x000000000000000000000000884999214c56091853765b9d4323cf8bb9f7e699"
                    ]
                },
                "nodeType": 1
            },
            "15": {
                "invocation": {
                    "address": "0xc02aaa39b223fe8d0a0e5c4f27ead9083c756cc2",
                    "callData": "0x00000000000000000000000042d52847be255eacee8c3f96b3b223c0b3cc0438",
                    "decodedMethod": {
                        "callParams": [
                            {
                                "name": "",
                                "type": "address",
                                "value": "0x42d52847be255eacee8c3f96b3b223c0b3cc0438"
                            }
                        ],
                        "constructorArguments": "",
                        "name": "balanceOf",
                        "returnParams": [
                            {
                                "decimalAvailable": true,
                                "name": "",
                                "type": "uint256",
                                "value": "333,706,102,721,613,330,027"
                            }
                        ],
                        "signature": "balanceOf(address)"
                    },
                    "errorInfo": "",
                    "fromAddress": "0x42d52847be255eacee8c3f96b3b223c0b3cc0438",
                    "gasUsed": 1234,
                    "id": 15,
                    "methodDecoded": true,
                    "operation": "STATICCALL",
                    "output": "0x000000000000000000000000000000000000000000000012171a3c5fe5c6f66b",
                    "revert": false,
                    "revertMessage": "",
                    "selector": "0x70a08231",
                    "status": true,
                    "value": "0"
                },
                "nodeType": 0
            },
            "16": {
                "invocation": {
                    "address": "0xd13c7342e1ef687c5ad21b27c2b65d772cab5c8c",
                    "callData": "0x00000000000000000000000042d52847be255eacee8c3f96b3b223c0b3cc0438",
                    "decodedMethod": {
                        "callParams": [
                            {
                                "name": "account",
                                "type": "address",
                                "value": "0x42d52847be255eacee8c3f96b3b223c0b3cc0438"
                            }
                        ],
                        "constructorArguments": "",
                        "name": "balanceOf",
                        "returnParams": [
                            {
                                "decimalAvailable": true,
                                "name": "",
                                "type": "uint256",
                                "value": "18,367,494,823"
                            }
                        ],
                        "signature": "balanceOf(address)"
                    },
                    "errorInfo": "",
                    "fromAddress": "0x42d52847be255eacee8c3f96b3b223c0b3cc0438",
                    "gasUsed": 1263,
                    "id": 16,
                    "methodDecoded": true,
                    "operation": "STATICCALL",
                    "output": "0x0000000000000000000000000000000000000000000000000000000446c9baa7",
                    "revert": false,
                    "revertMessage": "",
                    "selector": "0x70a08231",
                    "status": true,
                    "value": "0"
                },
                "nodeType": 0
            },
            "17": {
                "event": {
                    "contract": "0x42d52847be255eacee8c3f96b3b223c0b3cc0438",
                    "decodedLog": {
                        "name": "Sync",
                        "params": [
                            {
                                "name": "reserve0",
                                "type": "uint112",
                                "value": "333,706,102,721,613,330,027"
                            },
                            {
                                "name": "reserve1",
                                "type": "uint112",
                                "value": "18,367,494,823"
                            }
                        ],
                        "signature": "Sync(uint112,uint112)"
                    },
                    "id": 17,
                    "logData": "0x000000000000000000000000000000000000000000000012171a3c5fe5c6f66b0000000000000000000000000000000000000000000000000000000446c9baa7",
                    "logDecoded": true,
                    "operation": "EVENT",
                    "revert": false,
                    "status": true,
                    "topics": [
                        "0x1c411e9a96e071241c2f21f7726b17ae89e3cab4c78be50e062b03a9fffbbad1"
                    ]
                },
                "nodeType": 1
            },
            "18": {
                "event": {
                    "contract": "0x42d52847be255eacee8c3f96b3b223c0b3cc0438",
                    "decodedLog": {
                        "name": "Swap",
                        "params": [
                            {
                                "name": "sender",
                                "type": "address",
                                "value": "0x7a250d5630b4cf539739df2c5dacb4c659f2488d"
                            },
                            {
                                "name": "to",
                                "type": "address",
                                "value": "0x884999214c56091853765b9d4323cf8bb9f7e699"
                            },
                            {
                                "name": "amount0In",
                                "type": "uint256",
                                "value": "153,114,460,144,362,914"
                            },
                            {
                                "name": "amount1In",
                                "type": "uint256",
                                "value": "0"
                            },
                            {
                                "name": "amount0Out",
                                "type": "uint256",
                                "value": "0"
                            },
                            {
                                "name": "amount1Out",
                                "type": "uint256",
                                "value": "8,406,136"
                            }
                        ],
                        "signature": "Swap(address,uint256,uint256,uint256,uint256,address)"
                    },
                    "id": 18,
                    "logData": "0x000000000000000000000000000000000000000000000000021ff8ca4ee165a2000000000000000000000000000000000000000000000000000000000000000000000000000000000000000000000000000000000000000000000000000000000000000000000000000000000000000000000000000000000000000000804478",
                    "logDecoded": true,
                    "operation": "EVENT",
                    "revert": false,
                    "status": true,
                    "topics": [
                        "0xd78ad95fa46c994b6551d0da85fc275fe613ce37657fb8d5e3d130840159d822",
                        "0x0000000000000000000000007a250d5630b4cf539739df2c5dacb4c659f2488d",
                        "0x000000000000000000000000884999214c56091853765b9d4323cf8bb9f7e699"
                    ]
                },
                "nodeType": 1
            },
            "2": {
                "invocation": {
                    "address": "0x42d52847be255eacee8c3f96b3b223c0b3cc0438",
                    "callData": "0x",
                    "decodedMethod": {
                        "callParams": [],
                        "constructorArguments": "",
                        "name": "getReserves",
                        "returnParams": [
                            {
                                "name": "_reserve0",
                                "type": "uint112",
                                "value": "333,552,988,261,468,967,113"
                            },
                            {
                                "name": "_reserve1",
                                "type": "uint112",
                                "value": "18,375,900,959"
                            },
                            {
                                "name": "_blockTimestampLast",
                                "type": "uint32",
                                "value": "1,614,259,593"
                            }
                        ],
                        "signature": "getReserves()"
                    },
                    "errorInfo": "",
                    "fromAddress": "0x7a250d5630b4cf539739df2c5dacb4c659f2488d",
                    "gasUsed": 1204,
                    "id": 2,
                    "methodDecoded": true,
                    "operation": "STATICCALL",
                    "output": "0x00000000000000000000000000000000000000000000001214fa439596e590c9000000000000000000000000000000000000000000000000000000044749ff1f000000000000000000000000000000000000000000000000000000006037a589",
                    "revert": false,
                    "revertMessage": "",
                    "selector": "0x0902f1ac",
                    "status": true,
                    "value": "0"
                },
                "nodeType": 0
            },
            "3": {
                "invocation": {
                    "address": "0x83e6f1e41cdd28eaceb20cb649155049fac3d5aa",
                    "callData": "0x000000000000000000000000884999214c56091853765b9d4323cf8bb9f7e699000000000000000000000000ffa98a091331df4600f87c9164cd27e8a5cd2405000000000000000000000000000000000000000000000002b5e3af16b1880000",
                    "decodedMethod": {
                        "callParams": [
                            {
                                "name": "_from",
                                "type": "address",
                                "value": "0x884999214c56091853765b9d4323cf8bb9f7e699"
                            },
                            {
                                "name": "_to",
                                "type": "address",
                                "value": "0xffa98a091331df4600f87c9164cd27e8a5cd2405"
                            },
                            {
                                "decimalAvailable": true,
                                "name": "_value",
                                "type": "uint256",
                                "value": "50,000,000,000,000,000,000"
                            }
                        ],
                        "constructorArguments": "",
                        "name": "transferFrom",
                        "returnParams": [
                            {
                                "name": "",
                                "type": "bool",
                                "value": true
                            }
                        ],
                        "signature": "transferFrom(address,address,uint256)"
                    },
                    "errorInfo": "",
                    "fromAddress": "0x7a250d5630b4cf539739df2c5dacb4c659f2488d",
                    "gasUsed": 23864,
                    "id": 3,
                    "methodDecoded": true,
                    "operation": "CALL",
                    "output": "0x0000000000000000000000000000000000000000000000000000000000000001",
                    "revert": false,
                    "revertMessage": "",
                    "selector": "0x23b872dd",
                    "status": true,
                    "value": "0"
                },
                "nodeType": 0
            },
            "4": {
                "event": {
                    "contract": "0x83e6f1e41cdd28eaceb20cb649155049fac3d5aa",
                    "decodedLog": {
                        "name": "Transfer",
                        "params": [
                            {
                                "name": "from",
                                "type": "address",
                                "value": "0x884999214c56091853765b9d4323cf8bb9f7e699"
                            },
                            {
                                "name": "to",
                                "type": "address",
                                "value": "0xffa98a091331df4600f87c9164cd27e8a5cd2405"
                            },
                            {
                                "decimalAvailable": true,
                                "name": "value",
                                "type": "uint256",
                                "value": "50,000,000,000,000,000,000"
                            }
                        ],
                        "signature": "Transfer(address,address,uint256)"
                    },
                    "id": 4,
                    "logData": "0x000000000000000000000000000000000000000000000002b5e3af16b1880000",
                    "logDecoded": true,
                    "operation": "EVENT",
                    "revert": false,
                    "status": true,
                    "topics": [
                        "0xddf252ad1be2c89b69c2b068fc378daa952ba7f163c4a11628f55a4df523b3ef",
                        "0x000000000000000000000000884999214c56091853765b9d4323cf8bb9f7e699",
                        "0x000000000000000000000000ffa98a091331df4600f87c9164cd27e8a5cd2405"
                    ]
                },
                "nodeType": 1
            },
            "5": {
                "invocation": {
                    "address": "0xffa98a091331df4600f87c9164cd27e8a5cd2405",
                    "callData": "0x0000000000000000000000000000000000000000000000000000000000000000000000000000000000000000000000000000000000000000021ff8ca4ee165a200000000000000000000000042d52847be255eacee8c3f96b3b223c0b3cc043800000000000000000000000000000000000000000000000000000000000000800000000000000000000000000000000000000000000000000000000000000000",
                    "decodedMethod": {
                        "callParams": [
                            {
                                "name": "amount0Out",
                                "type": "uint256",
                                "value": "0"
                            },
                            {
                                "name": "amount1Out",
                                "type": "uint256",
                                "value": "153,114,460,144,362,914"
                            },
                            {
                                "name": "to",
                                "type": "address",
                                "value": "0x42d52847be255eacee8c3f96b3b223c0b3cc0438"
                            },
                            {
                                "name": "data",
                                "type": "bytes",
                                "value": "0x"
                            }
                        ],
                        "constructorArguments": "",
                        "name": "swap",
                        "returnParams": [],
                        "signature": "swap(uint256,uint256,address,bytes)"
                    },
                    "errorInfo": "",
                    "fromAddress": "0x7a250d5630b4cf539739df2c5dacb4c659f2488d",
                    "gasUsed": 56682,
                    "id": 5,
                    "methodDecoded": true,
                    "operation": "CALL",
                    "output": "",
                    "revert": false,
                    "revertMessage": "",
                    "selector": "0x022c0d9f",
                    "status": true,
                    "value": "0"
                },
                "nodeType": 0
            },
            "6": {
                "invocation": {
                    "address": "0xc02aaa39b223fe8d0a0e5c4f27ead9083c756cc2",
                    "callData": "0x00000000000000000000000042d52847be255eacee8c3f96b3b223c0b3cc0438000000000000000000000000000000000000000000000000021ff8ca4ee165a2",
                    "decodedMethod": {
                        "callParams": [
                            {
                                "name": "dst",
                                "type": "address",
                                "value": "0x42d52847be255eacee8c3f96b3b223c0b3cc0438"
                            },
                            {
                                "decimalAvailable": true,
                                "name": "wad",
                                "type": "uint256",
                                "value": "153,114,460,144,362,914"
                            }
                        ],
                        "constructorArguments": "",
                        "name": "transfer",
                        "returnParams": [
                            {
                                "name": "",
                                "type": "bool",
                                "value": true
                            }
                        ],
                        "signature": "transfer(address,uint256)"
                    },
                    "errorInfo": "",
                    "fromAddress": "0xffa98a091331df4600f87c9164cd27e8a5cd2405",
                    "gasUsed": 15162,
                    "id": 6,
                    "methodDecoded": true,
                    "operation": "CALL",
                    "output": "0x0000000000000000000000000000000000000000000000000000000000000001",
                    "revert": false,
                    "revertMessage": "",
                    "selector": "0xa9059cbb",
                    "status": true,
                    "value": "0"
                },
                "nodeType": 0
            },
            "7": {
                "event": {
                    "contract": "0xc02aaa39b223fe8d0a0e5c4f27ead9083c756cc2",
                    "decodedLog": {
                        "name": "Transfer",
                        "params": [
                            {
                                "name": "src",
                                "type": "address",
                                "value": "0xffa98a091331df4600f87c9164cd27e8a5cd2405"
                            },
                            {
                                "name": "dst",
                                "type": "address",
                                "value": "0x42d52847be255eacee8c3f96b3b223c0b3cc0438"
                            },
                            {
                                "decimalAvailable": true,
                                "name": "wad",
                                "type": "uint256",
                                "value": "153,114,460,144,362,914"
                            }
                        ],
                        "signature": "Transfer(address,address,uint256)"
                    },
                    "id": 7,
                    "logData": "0x000000000000000000000000000000000000000000000000021ff8ca4ee165a2",
                    "logDecoded": true,
                    "operation": "EVENT",
                    "revert": false,
                    "status": true,
                    "topics": [
                        "0xddf252ad1be2c89b69c2b068fc378daa952ba7f163c4a11628f55a4df523b3ef",
                        "0x000000000000000000000000ffa98a091331df4600f87c9164cd27e8a5cd2405",
                        "0x00000000000000000000000042d52847be255eacee8c3f96b3b223c0b3cc0438"
                    ]
                },
                "nodeType": 1
            },
            "8": {
                "invocation": {
                    "address": "0x83e6f1e41cdd28eaceb20cb649155049fac3d5aa",
                    "callData": "0x000000000000000000000000ffa98a091331df4600f87c9164cd27e8a5cd2405",
                    "decodedMethod": {
                        "callParams": [
                            {
                                "name": "_owner",
                                "type": "address",
                                "value": "0xffa98a091331df4600f87c9164cd27e8a5cd2405"
                            }
                        ],
                        "constructorArguments": "",
                        "name": "balanceOf",
                        "returnParams": [
                            {
                                "decimalAvailable": true,
                                "name": "",
                                "type": "uint256",
                                "value": "2,396,270,038,298,699,491,997,637"
                            }
                        ],
                        "signature": "balanceOf(address)"
                    },
                    "errorInfo": "",
                    "fromAddress": "0xffa98a091331df4600f87c9164cd27e8a5cd2405",
                    "gasUsed": 1263,
                    "id": 8,
                    "methodDecoded": true,
                    "operation": "STATICCALL",
                    "output": "0x00000000000000000000000000000000000000000001fb6e0f1f29e1078c77c5",
                    "revert": false,
                    "revertMessage": "",
                    "selector": "0x70a08231",
                    "status": true,
                    "value": "0"
                },
                "nodeType": 0
            },
            "9": {
                "invocation": {
                    "address": "0xc02aaa39b223fe8d0a0e5c4f27ead9083c756cc2",
                    "callData": "0x000000000000000000000000ffa98a091331df4600f87c9164cd27e8a5cd2405",
                    "decodedMethod": {
                        "callParams": [
                            {
                                "name": "",
                                "type": "address",
                                "value": "0xffa98a091331df4600f87c9164cd27e8a5cd2405"
                            }
                        ],
                        "constructorArguments": "",
                        "name": "balanceOf",
                        "returnParams": [
                            {
                                "decimalAvailable": true,
                                "name": "",
                                "type": "uint256",
                                "value": "7,359,998,747,265,997,968,765"
                            }
                        ],
                        "signature": "balanceOf(address)"
                    },
                    "errorInfo": "",
                    "fromAddress": "0xffa98a091331df4600f87c9164cd27e8a5cd2405",
                    "gasUsed": 1234,
                    "id": 9,
                    "methodDecoded": true,
                    "operation": "STATICCALL",
                    "output": "0x00000000000000000000000000000000000000000000018efc8039b19dcf957d",
                    "revert": false,
                    "revertMessage": "",
                    "selector": "0x70a08231",
                    "status": true,
                    "value": "0"
                },
                "nodeType": 0
            }
        },
        "gasFlame": [
            {
                "children": [
                    {
                        "children": [
                            {
                                "children": [],
                                "depth": 0,
                                "name": "Initial Gas",
                                "value": 23368
                            },
                            {
                                "children": [
                                    {
                                        "children": [],
                                        "depth": 1,
                                        "name": "getReserves",
                                        "value": 1204
                                    },
                                    {
                                        "children": [],
                                        "depth": 1,
                                        "name": "getReserves",
                                        "value": 1204
                                    },
                                    {
                                        "children": [],
                                        "depth": 1,
                                        "name": "transferFrom",
                                        "value": 23864
                                    },
                                    {
                                        "children": [
                                            {
                                                "children": [],
                                                "depth": 2,
                                                "name": "transfer",
                                                "value": 15162
                                            },
                                            {
                                                "children": [],
                                                "depth": 2,
                                                "name": "balanceOf",
                                                "value": 1263
                                            },
                                            {
                                                "children": [],
                                                "depth": 2,
                                                "name": "balanceOf",
                                                "value": 1234
                                            }
                                        ],
                                        "depth": 1,
                                        "name": "swap",
                                        "value": 56682
                                    },
                                    {
                                        "children": [
                                            {
                                                "children": [],
                                                "depth": 2,
                                                "name": "transfer",
                                                "value": 30465
                                            },
                                            {
                                                "children": [],
                                                "depth": 2,
                                                "name": "balanceOf",
                                                "value": 1234
                                            },
                                            {
                                                "children": [],
                                                "depth": 2,
                                                "name": "balanceOf",
                                                "value": 1263
                                            }
                                        ],
                                        "depth": 1,
                                        "name": "swap",
                                        "value": 71985
                                    }
                                ],
                                "depth": 0,
                                "name": "Executed Gas",
                                "value": 173017
                            }
                        ],
                        "depth": -1,
                        "name": "Actual Gas Used",
                        "value": 187985
                    },
                    {
                        "children": [],
                        "depth": -1,
                        "name": "Refunded Gas",
                        "value": 8400
                    }
                ],
                "depth": -2,
                "name": "Total Gas",
                "value": 196385
            }
        ],
        "isConfirmed": true,
        "mainTrace": [
            {
                "children": [
                    {
                        "children": [
                            {
                                "children": [],
                                "depth": 1,
                                "id": 1,
                                "order": 1
                            },
                            {
                                "children": [],
                                "depth": 1,
                                "id": 2,
                                "order": 2
                            },
                            {
                                "children": [
                                    {
                                        "children": [],
                                        "depth": 2,
                                        "id": 4,
                                        "order": 4
                                    }
                                ],
                                "depth": 1,
                                "id": 3,
                                "order": 3
                            },
                            {
                                "children": [
                                    {
                                        "children": [
                                            {
                                                "children": [],
                                                "depth": 3,
                                                "id": 7,
                                                "order": 7
                                            }
                                        ],
                                        "depth": 2,
                                        "id": 6,
                                        "order": 6
                                    },
                                    {
                                        "children": [],
                                        "depth": 2,
                                        "id": 8,
                                        "order": 8
                                    },
                                    {
                                        "children": [],
                                        "depth": 2,
                                        "id": 9,
                                        "order": 9
                                    },
                                    {
                                        "children": [],
                                        "depth": 2,
                                        "id": 10,
                                        "order": 10
                                    },
                                    {
                                        "children": [],
                                        "depth": 2,
                                        "id": 11,
                                        "order": 11
                                    }
                                ],
                                "depth": 1,
                                "id": 5,
                                "order": 5
                            },
                            {
                                "children": [
                                    {
                                        "children": [
                                            {
                                                "children": [],
                                                "depth": 3,
                                                "id": 14,
                                                "order": 14
                                            }
                                        ],
                                        "depth": 2,
                                        "id": 13,
                                        "order": 13
                                    },
                                    {
                                        "children": [],
                                        "depth": 2,
                                        "id": 15,
                                        "order": 15
                                    },
                                    {
                                        "children": [],
                                        "depth": 2,
                                        "id": 16,
                                        "order": 16
                                    },
                                    {
                                        "children": [],
                                        "depth": 2,
                                        "id": 17,
                                        "order": 17
                                    },
                                    {
                                        "children": [],
                                        "depth": 2,
                                        "id": 18,
                                        "order": 18
                                    }
                                ],
                                "depth": 1,
                                "id": 12,
                                "order": 12
                            }
                        ],
                        "depth": 0,
                        "id": 0,
                        "order": 0
                    }
                ],
                "depth": -1,
                "id": -1,
                "order": -1
            }
        ],
        "mainTraceNodeCount": 19,
        "parentIdMap": {
            "0": -1,
            "1": 0,
            "10": 5,
            "11": 5,
            "12": 0,
            "13": 12,
            "14": 13,
            "15": 12,
            "16": 12,
            "17": 12,
            "18": 12,
            "2": 0,
            "3": 0,
            "4": 3,
            "5": 0,
            "6": 5,
            "7": 6,
            "8": 5,
            "9": 5
        },
        "tidyTrace": [
            {
                "children": [
                    {
                        "children": [
                            {
                                "children": [
                                    {
                                        "children": [],
                                        "depth": 2,
                                        "id": 4,
                                        "order": 4
                                    }
                                ],
                                "depth": 1,
                                "id": 3,
                                "order": 3
                            },
                            {
                                "children": [
                                    {
                                        "children": [
                                            {
                                                "children": [],
                                                "depth": 3,
                                                "id": 7,
                                                "order": 7
                                            }
                                        ],
                                        "depth": 2,
                                        "id": 6,
                                        "order": 6
                                    },
                                    {
                                        "children": [],
                                        "depth": 2,
                                        "id": 10,
                                        "order": 10
                                    },
                                    {
                                        "children": [],
                                        "depth": 2,
                                        "id": 11,
                                        "order": 11
                                    }
                                ],
                                "depth": 1,
                                "id": 5,
                                "order": 5
                            },
                            {
                                "children": [
                                    {
                                        "children": [
                                            {
                                                "children": [],
                                                "depth": 3,
                                                "id": 14,
                                                "order": 14
                                            }
                                        ],
                                        "depth": 2,
                                        "id": 13,
                                        "order": 13
                                    },
                                    {
                                        "children": [],
                                        "depth": 2,
                                        "id": 17,
                                        "order": 17
                                    },
                                    {
                                        "children": [],
                                        "depth": 2,
                                        "id": 18,
                                        "order": 18
                                    }
                                ],
                                "depth": 1,
                                "id": 12,
                                "order": 12
                            }
                        ],
                        "depth": 0,
                        "id": 0,
                        "order": 0
                    }
                ],
                "depth": -1,
                "id": -1,
                "order": -1
            }
        ],
        "tidyTraceNodeCount": 13
    },
    "state_change": {
        "stateChanges": [
            {
                "address": "0x42d52847be255eacee8c3f96b3b223c0b3cc0438",
                "erc": "ERC-20",
                "slots": [
                    {
                        "current": "0x6037a82f0000000000000000000446c9baa7000000000012171a3c5fe5c6f66b",
                        "key": "0x0000000000000000000000000000000000000000000000000000000000000008",
                        "prev": "0x6037a589000000000000000000044749ff1f00000000001214fa439596e590c9"
                    },
                    {
                        "current": "0x00000000000000000000000000000000000001c727037b94da960f3bd6057266",
                        "key": "0x0000000000000000000000000000000000000000000000000000000000000009",
                        "prev": "0x00000000000000000000000000000000000001c726630ea845be10bdf6e56304"
                    },
                    {
                        "current": "0x00000000000000000001c5349fd22673c6d3abbd0b646d0d21583d9dd4a4f0ad",
                        "key": "0x000000000000000000000000000000000000000000000000000000000000000a",
                        "prev": "0x00000000000000000001c53494a0bec04291d8afca8c7659e363f30e4ea17da1"
                    }
                ],
                "storageVariables": [
                    {
                        "name": "reserve0",
                        "type": "uint112",
                        "value": {
                            "current": "333706102721613330027",
                            "prev": "333552988261468967113",
                            "typeTag": 1
                        }
                    },
                    {
                        "name": "reserve1",
                        "type": "uint112",
                        "value": {
                            "current": "18367494823",
                            "prev": "18375900959",
                            "typeTag": 1
                        }
                    },
                    {
                        "name": "blockTimestampLast",
                        "type": "uint32",
                        "value": {
                            "current": "1614260271",
                            "prev": "1614259593",
                            "typeTag": 1
                        }
                    },
                    {
                        "name": "price0CumulativeLast",
                        "type": "uint256",
                        "value": {
                            "current": "36060888069747711216002105963110",
                            "prev": "36060694127236835803162841801476",
                            "typeTag": 1
                        }
                    },
                    {
                        "name": "price1CumulativeLast",
                        "type": "uint256",
                        "value": {
                            "current": "169564332379170072875710596634864325665830236858937517",
                            "prev": "169564268478501427290949764871202373402447658417749409",
                            "typeTag": 1
                        }
                    }
                ]
            },
            {
                "address": "0x83e6f1e41cdd28eaceb20cb649155049fac3d5aa",
                "erc": "ERC-20",
                "slots": [
                    {
                        "current": "0x00000000000000000000000000000000000000000001fb6e0f1f29e1078c77c5",
                        "key": "0x517313a419aa2ecd2d81b1726218564c7f0e0ab3a7f7ab9d34edc89c63e5f354",
                        "prev": "0x00000000000000000000000000000000000000000001fb6b593b7aca560477c5"
                    },
                    {
                        "current": "0xffffffffffffffffffffffffffffffffffffffffffffffea50e2874a73bfffff",
                        "key": "0x0019241ed3553a193b3333f098c11beadc6483dc4c470764f7955e36548da382",
                        "prev": "0xffffffffffffffffffffffffffffffffffffffffffffffed06c636612547ffff"
                    },
                    {
                        "current": "0x00000000000000000000000000000000000000000000001043561a8829300000",
                        "key": "0xb4705e222bb9a7ae6b6b8da5c265ada6487754e0c0ac8e5a9dc0a1b5bf530a4e",
                        "prev": "0x000000000000000000000000000000000000000000000012f939c99edab80000"
                    }
                ],
                "storageVariables": [
                    {
                        "name": "balances",
                        "type": "mapping(address => uint256)",
                        "value": {
                            "pairs": [
                                {
                                    "key": "0x884999214c56091853765b9d4323cf8bb9f7e699",
                                    "value": {
                                        "current": "300000000000000000000",
                                        "prev": "350000000000000000000",
                                        "typeTag": 1
                                    }
                                },
                                {
                                    "key": "0xffa98a091331df4600f87c9164cd27e8a5cd2405",
                                    "value": {
                                        "current": "2396270038298699491997637",
                                        "prev": "2396220038298699491997637",
                                        "typeTag": 1
                                    }
                                }
                            ],
                            "typeTag": 4
                        }
                    },
                    {
                        "name": "allowed",
                        "type": "mapping(address => mapping(address => uint256))",
                        "value": {
                            "pairs": [
                                {
                                    "key": "0x884999214c56091853765b9d4323cf8bb9f7e699",
                                    "value": {
                                        "pairs": [
                                            {
                                                "key": "0x7a250d5630b4cf539739df2c5dacb4c659f2488d",
                                                "value": {
                                                    "current": "115792089237316195423570985008687907853269984665640564039057584007913129639935",
                                                    "prev": "115792089237316195423570985008687907853269984665640564039107584007913129639935",
                                                    "typeTag": 1
                                                }
                                            }
                                        ],
                                        "typeTag": 4
                                    }
                                }
                            ],
                            "typeTag": 4
                        }
                    }
                ]
            },
            {
                "address": "0xc02aaa39b223fe8d0a0e5c4f27ead9083c756cc2",
                "erc": "ERC-20",
                "slots": [
                    {
                        "current": "0x00000000000000000000000000000000000000000000018efc8039b19dcf957d",
                        "key": "0x732054380c06f66b946fe3c55339b1fc707995878c89c46f3c874fa55acf3188",
                        "prev": "0x00000000000000000000000000000000000000000000018efea0327becb0fb1f"
                    },
                    {
                        "current": "0x000000000000000000000000000000000000000000000012171a3c5fe5c6f66b",
                        "key": "0x9729c7b2fec1c8c4ce6a49fbeee1d52433367a26c17367b1804c3b3ffad288b5",
                        "prev": "0x00000000000000000000000000000000000000000000001214fa439596e590c9"
                    }
                ],
                "storageVariables": [
                    {
                        "name": "balanceOf",
                        "type": "mapping(address => uint256)",
                        "value": {
                            "pairs": [
                                {
                                    "key": "0x42d52847be255eacee8c3f96b3b223c0b3cc0438",
                                    "value": {
                                        "current": "333706102721613330027",
                                        "prev": "333552988261468967113",
                                        "typeTag": 1
                                    }
                                },
                                {
                                    "key": "0xffa98a091331df4600f87c9164cd27e8a5cd2405",
                                    "value": {
                                        "current": "7359998747265997968765",
                                        "prev": "7360151861726142331679",
                                        "typeTag": 1
                                    }
                                }
                            ],
                            "typeTag": 4
                        }
                    }
                ]
            },
            {
                "address": "0xd13c7342e1ef687c5ad21b27c2b65d772cab5c8c",
                "erc": "ERC-20",
                "slots": [
                    {
                        "current": "0x0000000000000000000000000000000000000000000000000000000446c9baa7",
                        "key": "0x2e64dc953bd9b7ca2b47ceea630550983be8aaef5eeed1177c3856a46b81da61",
                        "prev": "0x000000000000000000000000000000000000000000000000000000044749ff1f"
                    },
                    {
                        "current": "0x0000000000000000000000000000000000000000000000000000000000804478",
                        "key": "0xb4705e222bb9a7ae6b6b8da5c265ada6487754e0c0ac8e5a9dc0a1b5bf530a4e",
                        "prev": "0x0000000000000000000000000000000000000000000000000000000000000000"
                    }
                ],
                "storageVariables": [
                    {
                        "name": "_balances",
                        "type": "mapping(address => uint256)",
                        "value": {
                            "pairs": [
                                {
                                    "key": "0x42d52847be255eacee8c3f96b3b223c0b3cc0438",
                                    "value": {
                                        "current": "18367494823",
                                        "prev": "18375900959",
                                        "typeTag": 1
                                    }
                                },
                                {
                                    "key": "0x884999214c56091853765b9d4323cf8bb9f7e699",
                                    "value": {
                                        "current": "8406136",
                                        "prev": "0",
                                        "typeTag": 1
                                    }
                                }
                            ],
                            "typeTag": 4
                        }
                    }
                ]
            },
            {
                "address": "0xffa98a091331df4600f87c9164cd27e8a5cd2405",
                "erc": "ERC-20",
                "slots": [
                    {
                        "current": "0x00000000000000000000000000000000317875855ee38eba5ed740d72eb0eb13",
                        "key": "0x0000000000000000000000000000000000000000000000000000000000000009",
                        "prev": "0x00000000000000000000000000000000317844c4e0fc1ec10bf950ce544342ad"
                    },
                    {
                        "current": "0x00000000000000000000000000040fa361bb26b2ab7e3ba74de9275a32c9437b",
                        "key": "0x000000000000000000000000000000000000000000000000000000000000000a",
                        "prev": "0x00000000000000000000000000040fa312e204b6e54f2f5d6d9d8600e0e512df"
                    },
                    {
                        "current": "0x6037a82f00000000018efc8039b19dcf957d00000001fb6e0f1f29e1078c77c5",
                        "key": "0x0000000000000000000000000000000000000000000000000000000000000008",
                        "prev": "0x6037a7f100000000018efea0327becb0fb1f00000001fb6b593b7aca560477c5"
                    }
                ],
                "storageVariables": [
                    {
                        "name": "price0CumulativeLast",
                        "type": "uint256",
                        "value": {
                            "current": "65757631025120989828534632017877330707",
                            "prev": "65756642218687394935712286173347136173",
                            "typeTag": 1
                        }
                    },
                    {
                        "name": "price1CumulativeLast",
                        "type": "uint256",
                        "value": {
                            "current": "90565261015767000170648540941093446663881595",
                            "prev": "90565156208565643524531784259786714527371999",
                            "typeTag": 1
                        }
                    },
                    {
                        "name": "reserve0",
                        "type": "uint112",
                        "value": {
                            "current": "2396270038298699491997637",
                            "prev": "2396220038298699491997637",
                            "typeTag": 1
                        }
                    },
                    {
                        "name": "reserve1",
                        "type": "uint112",
                        "value": {
                            "current": "7359998747265997968765",
                            "prev": "7360151861726142331679",
                            "typeTag": 1
                        }
                    },
                    {
                        "name": "blockTimestampLast",
                        "type": "uint32",
                        "value": {
                            "current": "1614260271",
                            "prev": "1614260209",
                            "typeTag": 1
                        }
                    }
                ]
            }
        ]
    }
}