{
    "balance_change": {
        "balanceChanges": [
            {
                "account": "0xa71c8bae673f99ac6c0f32c56efc89a8ddb9a501",
                "assets": [
                    {
                        "address": "0x2e65e12b5f0fd1d58738c6f38da7d57f5f183d1c",
                        "amount": "80.51",
                        "iconUrl": "",
                        "isERC1155": false,
                        "isERC721": false,
                        "sign": false,
                        "value": ""
                    }
                ]
            },
            {
                "account": "0xf7e65b8832b1a4c42bde2af0cb4f37099c096d88",
                "assets": [
                    {
                        "address": "0x2e65e12b5f0fd1d58738c6f38da7d57f5f183d1c",
                        "amount": "80.51",
                        "iconUrl": "",
                        "isERC1155": false,
                        "isERC721": false,
                        "sign": true,
                        "value": ""
                    }
                ]
            }
        ]
    },
    "profile": {
        "basic_info": {
            "baseFee": "",
            "blockNumber": 8557573,
            "callData": "0xa9059cbb000000000000000000000000f7e65b8832b1a4c42bde2af0cb4f37099c096d8800000000000000000000000000000000000000000000000000000001dfe082c0",
            "debugEnable": true,
            "errorInfo": "",
            "eventCount": 1,
            "feeRecipient": "0xea674fdde714fd979de3edf0f56aa9716b898ec8",
            "formatValue": "0",
            "gasLimit": 80000,
            "gasPrice": "30",
            "gasUsed": 36441,
            "intTxnCount": 0,
            "internalRevert": false,
            "internalRevertMessage": "",
            "isContractCreation": false,
            "isFlashloan": false,
            "maxFee": "",
            "nonce": 10291,
            "overwritedBlockNumber": -1,
            "priorityFee": "",
            "receiver": "0x2e65e12b5f0fd1d58738c6f38da7d57f5f183d1c",
            "revertMessage": "",
            "sender": "0xa71c8bae673f99ac6c0f32c56efc89a8ddb9a501",
            "simulationEnable": true,
            "sourceTxnHash": "0x6cf526736d1782cdd16777368aa9c4b6627e68f00728482ac595832de7082cab",
            "status": true,
            "timestamp": "2019-09-16T01:37:28Z",
            "transactionFee": "0.00109323",
            "txnHash": "0x6cf526736d1782cdd16777368aa9c4b6627e68f00728482ac595832de7082cab",
            "txnIndex": 207,
            "type": 0,
            "value": "0"
        },
        "fund_flow": [
            {
                "amount": "80.51",
                "from": "0xa71c8bae673f99ac6c0f32c56efc89a8ddb9a501",
                "id": 1,
                "isERC1155": false,
                "isERC721": false,
                "isReverted": false,
                "order": 1,
                "to": "0xf7e65b8832b1a4c42bde2af0cb4f37099c096d88",
                "token": "0x2e65e12b5f0fd1d58738c6f38da7d57f5f183d1c"
            }
        ],
        "token_infos": [
            {
                "address": "0x2e65e12b5f0fd1d58738c6f38da7d57f5f183d1c",
                "decimals": 8
            },
            {
                "address": "0xc02aaa39b223fe8d0a0e5c4f27ead9083c756cc2",
                "decimals": 18
            },
            {
                "address": "0xeeeeeeeeeeeeeeeeeeeeeeeeeeeeeeeeeeeeeeee",
                "decimals": 18
            }
        ]
    },
    "address_label": {
        "labels": [
            {
                "address": "0x0000000000000000000000000000000000000003",
                "label": "Precompiled"
            },
            {
                "address": "0x0000000000000000000000000000000000000004",
                "label": "Precompiled"
            },
            {
                "address": "0xeeeeeeeeeeeeeeeeeeeeeeeeeeeeeeeeeeeeeeee",
                "label": "Ether"
            },
            {
                "address": "0x2e65e12b5f0fd1d58738c6f38da7d57f5f183d1c",
                "label": "Tepleton Token"
            },
            {
                "address": "0x0000000000000000000000000000000000000001",
                "label": "Precompiled"
            },
            {
                "address": "0x0000000000000000000000000000000000000002",
                "label": "Precompiled"
            }
        ]
    },
    "trace": {
        "accountLabels": null,
        "dataMap": {
            "-1": {
                "invocation": {
                    "address": "0xa71c8bae673f99ac6c0f32c56efc89a8ddb9a501",
                    "callData": "",
                    "decodedMethod": null,
                    "errorInfo": "",
                    "fromAddress": "",
                    "gasUsed": 0,
                    "id": -1,
                    "methodDecoded": false,
                    "operation": "",
                    "output": "",
                    "revert": false,
                    "revertMessage": "",
                    "selector": "",
                    "status": false,
                    "value": ""
                },
                "nodeType": 0
            },
            "0": {
                "invocation": {
                    "address": "0x2e65e12b5f0fd1d58738c6f38da7d57f5f183d1c",
                    "callData": "0x000000000000000000000000f7e65b8832b1a4c42bde2af0cb4f37099c096d8800000000000000000000000000000000000000000000000000000001dfe082c0",
                    "decodedMethod": {
                        "callParams": [
                            {
                                "name": "recipient",
                                "type": "address",
                                "value": "0xf7e65b8832b1a4c42bde2af0cb4f37099c096d88"
                            },
                            {
                                "decimalAvailable": true,
                                "name": "amount",
                                "type": "uint256",
                                "value": "8,051,000,000"
                            }
                        ],
                        "constructorArguments": "",
                        "name": "transfer",
                        "returnParams": [
                            {
                                "name": "",
                                "type": "bool",
                                "value": true
                            }
                        ],
                        "signature": "transfer(address,uint256)"
                    },
                    "errorInfo": "",
                    "fromAddress": "0xa71c8bae673f99ac6c0f32c56efc89a8ddb9a501",
                    "gasUsed": 36441,
                    "id": 0,
                    "methodDecoded": true,
                    "operation": "CALL",
                    "output": "0x0000000000000000000000000000000000000000000000000000000000000001",
                    "revert": false,
                    "revertMessage": "",
                    "selector": "0xa9059cbb",
                    "status": true,
                    "value": "0"
                },
                "nodeType": 0
            },
            "1": {
                "event": {
                    "contract": "0x2e65e12b5f0fd1d58738c6f38da7d57f5f183d1c",
                    "decodedLog": {
                        "name": "Transfer",
                        "params": [
                            {
                                "name": "from",
                                "type": "address",
                                "value": "0xa71c8bae673f99ac6c0f32c56efc89a8ddb9a501"
                            },
                            {
                                "name": "to",
                                "type": "address",
                                "value": "0xf7e65b8832b1a4c42bde2af0cb4f37099c096d88"
                            },
                            {
                                "decimalAvailable": true,
                                "name": "value",
                                "type": "uint256",
                                "value": "8,051,000,000"
                            }
                        ],
                        "signature": "Transfer(address,address,uint256)"
                    },
                    "id": 1,
                    "logData": "0x00000000000000000000000000000000000000000000000000000001dfe082c0",
                    "logDecoded": true,
                    "operation": "EVENT",
                    "revert": false,
                    "status": true,
                    "topics": [
                        "0xddf252ad1be2c89b69c2b068fc378daa952ba7f163c4a11628f55a4df523b3ef",
                        "0x000000000000000000000000a71c8bae673f99ac6c0f32c56efc89a8ddb9a501",
                        "0x000000000000000000000000f7e65b8832b1a4c42bde2af0cb4f37099c096d88"
                    ]
                },
                "nodeType": 1
            }
        },
        "gasFlame": [
            {
                "children": [
                    {
                        "children": [
                            {
                                "children": [],
                                "depth": 0,
                                "name": "Initial Gas",
                                "value": 23128
                            },
                            {
                                "children": [],
                                "depth": 0,
                                "name": "Executed Gas",
                                "value": 13313
                            }
                        ],
                        "depth": -1,
                        "name": "Actual Gas Used",
                        "value": 36441
                    },
                    {
                        "children": [],
                        "depth": -1,
                        "name": "Refunded Gas",
                        "value": 0
                    }
                ],
                "depth": -2,
                "name": "Total Gas",
                "value": 36441
            }
        ],
        "isConfirmed": true,
        "mainTrace": [
            {
                "children": [
                    {
                        "children": [
                            {
                                "children": [],
                                "depth": 1,
                                "id": 1,
                                "order": 1
                            }
                        ],
                        "depth": 0,
                        "id": 0,
                        "order": 0
                    }
                ],
                "depth": -1,
                "id": -1,
                "order": -1
            }
        ],
        "mainTraceNodeCount": 2,
        "parentIdMap": {
            "0": -1,
            "1": 0
        },
        "tidyTrace": [
            {
                "children": [
                    {
                        "children": [
                            {
                                "children": [],
                                "depth": 1,
                                "id": 1,
                                "order": 1
                            }
                        ],
                        "depth": 0,
                        "id": 0,
                        "order": 0
                    }
                ],
                "depth": -1,
                "id": -1,
                "order": -1
            }
        ],
        "tidyTraceNodeCount": 2
    },
    "state_change": {
        "stateChanges": [
            {
                "address": "0x2e65e12b5f0fd1d58738c6f38da7d57f5f183d1c",
                "erc": "ERC-20",
                "slots": [
                    {
                        "current": "0x0000000000000000000000000000000000000000000000000000640def2a989a",
                        "key": "0x033a6c23fd2f4bb4d599b607b7251cbafdeb6cd9e0859c7d7bd3d55c69a715cc",
                        "prev": "0x0000000000000000000000000000000000000000000000000000640fcf0b1b5a"
                    },
                    {
                        "current": "0x000000000000000000000000000000000000000000000000000000029a45f2d0",
                        "key": "0xb4a8de9a4e3650678780b593d0bb261ca8edf677b31a33b7318d2b786e9b8c7c",
                        "prev": "0x00000000000000000000000000000000000000000000000000000000ba657010"
                    }
                ],
                "storageVariables": [
                    {
                        "name": "_balances",
                        "type": "mapping(address => uint256)",
                        "value": {
                            "pairs": [
                                {
                                    "key": "0xa71c8bae673f99ac6c0f32c56efc89a8ddb9a501",
                                    "value": {
                                        "current": "110011009898650",
                                        "prev": "110019060898650",
                                        "typeTag": 1
                                    }
                                },
                                {
                                    "key": "0xf7e65b8832b1a4c42bde2af0cb4f37099c096d88",
                                    "value": {
                                        "current": "11178210000",
                                        "prev": "3127210000",
                                        "typeTag": 1
                                    }
                                }
                            ],
                            "typeTag": 4
                        }
                    }
                ]
            }
        ]
    }
}