{
    "balance_change": {
        "balanceChanges": [
            {
                "account": "0x0d6b5a54f940bf3d52e438cab785981aaefdf40c",
                "assets": [
                    {
                        "address": "0xd850942ef8811f2a866692a623011bde52a462c1",
                        "amount": "324.5",
                        "iconUrl": "https://assets.blocksec.com/icon/7f2e21b6d80840ce19582c227c84ccaf9799adac6a8fd2ac081b2a79cc5e8dfd.png",
                        "isERC1155": false,
                        "isERC721": false,
                        "sign": false,
                        "value": ""
                    }
                ]
            },
            {
                "account": "0x36999640fbf0eba356f8c6a73f07e0879a7ad5ac",
                "assets": [
                    {
                        "address": "0xd850942ef8811f2a866692a623011bde52a462c1",
                        "amount": "324.5",
                        "iconUrl": "https://assets.blocksec.com/icon/7f2e21b6d80840ce19582c227c84ccaf9799adac6a8fd2ac081b2a79cc5e8dfd.png",
                        "isERC1155": false,
                        "isERC721": false,
                        "sign": true,
                        "value": ""
                    }
                ]
            }
        ]
    },
    "profile": {
        "basic_info": {
            "baseFee": "",
            "blockNumber": 5138305,
            "callData": "0xa9059cbb00000000000000000000000036999640fbf0eba356f8c6a73f07e0879a7ad5ac000000000000000000000000000000000000000000000011975796b9ae420000",
            "debugEnable": true,
            "errorInfo": "",
            "eventCount": 1,
            "feeRecipient": "0x829bd824b016326a401d083b33d092293333a830",
            "formatValue": "0",
            "gasLimit": 350000,
            "gasPrice": "30",
            "gasUsed": 54771,
            "intTxnCount": 0,
            "internalRevert": false,
            "internalRevertMessage": "",
            "isContractCreation": false,
            "isFlashloan": false,
            "maxFee": "",
            "nonce": 78358,
            "overwritedBlockNumber": -1,
            "priorityFee": "",
            "receiver": "0xd850942ef8811f2a866692a623011bde52a462c1",
            "revertMessage": "",
            "sender": "0x0d6b5a54f940bf3d52e438cab785981aaefdf40c",
            "simulationEnable": true,
            "sourceTxnHash": "0x6cc04613ae24bfdb06eb478ac671af48545e26356ea1fa054cbec23ed16bdfbd",
            "status": true,
            "timestamp": "2018-02-22T21:26:08Z",
            "transactionFee": "0.00164313",
            "txnHash": "0x6cc04613ae24bfdb06eb478ac671af48545e26356ea1fa054cbec23ed16bdfbd",
            "txnIndex": 2,
            "type": 0,
            "value": "0"
        },
        "fund_flow": [
            {
                "amount": "324.5",
                "from": "0x0d6b5a54f940bf3d52e438cab785981aaefdf40c",
                "id": 1,
                "isERC1155": false,
                "isERC721": false,
                "isReverted": false,
                "order": 1,
                "to": "0x36999640fbf0eba356f8c6a73f07e0879a7ad5ac",
                "token": "0xd850942ef8811f2a866692a623011bde52a462c1"
            }
        ],
        "token_infos": [
            {
                "address": "0xc02aaa39b223fe8d0a0e5c4f27ead9083c756cc2",
                "decimals": 18
            },
            {
                "address": "0xd850942ef8811f2a866692a623011bde52a462c1",
                "decimals": 18
            },
            {
                "address": "0xeeeeeeeeeeeeeeeeeeeeeeeeeeeeeeeeeeeeeeee",
                "decimals": 18
            }
        ]
    },
    "address_label": {
        "labels": [
            {
                "address": "0x0d6b5a54f940bf3d52e438cab785981aaefdf40c",
                "label": "COSS.io 1"
            },
            {
                "address": "0x0000000000000000000000000000000000000001",
                "label": "Precompiled"
            },
            {
                "address": "0x0000000000000000000000000000000000000002",
                "label": "Precompiled"
            },
            {
                "address": "0x0000000000000000000000000000000000000003",
                "label": "Precompiled"
            },
            {
                "address": "0x0000000000000000000000000000000000000004",
                "label": "Precompiled"
            },
            {
                "address": "0xeeeeeeeeeeeeeeeeeeeeeeeeeeeeeeeeeeeeeeee",
                "label": "Ether"
            },
            {
                "address": "0xd850942ef8811f2a866692a623011bde52a462c1",
                "label": "VeChain: Old Token"
            },
            {
                "address": "0x36999640fbf0eba356f8c6a73f07e0879a7ad5ac",
                "label": "BINANCE"
            }
        ]
    },
    "trace": {
        "accountLabels": null,
        "dataMap": {
            "-1": {
                "invocation": {
                    "address": "0x0d6b5a54f940bf3d52e438cab785981aaefdf40c",
                    "callData": "",
                    "decodedMethod": null,
                    "errorInfo": "",
                    "fromAddress": "",
                    "gasUsed": 0,
                    "id": -1,
                    "methodDecoded": false,
                    "operation": "",
                    "output": "",
                    "revert": false,
                    "revertMessage": "",
                    "selector": "",
                    "status": false,
                    "value": ""
                },
                "nodeType": 0
            },
            "0": {
                "invocation": {
                    "address": "0xd850942ef8811f2a866692a623011bde52a462c1",
                    "callData": "0x00000000000000000000000036999640fbf0eba356f8c6a73f07e0879a7ad5ac000000000000000000000000000000000000000000000011975796b9ae420000",
                    "decodedMethod": {
                        "callParams": [
                            {
                                "name": "_to",
                                "type": "address",
                                "value": "0x36999640fbf0eba356f8c6a73f07e0879a7ad5ac"
                            },
                            {
                                "decimalAvailable": true,
                                "name": "_amount",
                                "type": "uint256",
                                "value": "324,500,000,000,000,000,000"
                            }
                        ],
                        "constructorArguments": "",
                        "name": "transfer",
                        "returnParams": [
                            {
                                "name": "success",
                                "type": "bool",
                                "value": true
                            }
                        ],
                        "signature": "transfer(address,uint256)"
                    },
                    "errorInfo": "",
                    "fromAddress": "0x0d6b5a54f940bf3d52e438cab785981aaefdf40c",
                    "gasUsed": 54771,
                    "id": 0,
                    "methodDecoded": true,
                    "operation": "CALL",
                    "output": "0x0000000000000000000000000000000000000000000000000000000000000001",
                    "revert": false,
                    "revertMessage": "",
                    "selector": "0xa9059cbb",
                    "status": true,
                    "value": "0"
                },
                "nodeType": 0
            },
            "1": {
                "event": {
                    "contract": "0xd850942ef8811f2a866692a623011bde52a462c1",
                    "decodedLog": {
                        "name": "Transfer",
                        "params": [
                            {
                                "name": "_from",
                                "type": "address",
                                "value": "0x0d6b5a54f940bf3d52e438cab785981aaefdf40c"
                            },
                            {
                                "name": "_to",
                                "type": "address",
                                "value": "0x36999640fbf0eba356f8c6a73f07e0879a7ad5ac"
                            },
                            {
                                "decimalAvailable": true,
                                "name": "_value",
                                "type": "uint256",
                                "value": "324,500,000,000,000,000,000"
                            }
                        ],
                        "signature": "Transfer(address,address,uint256)"
                    },
                    "id": 1,
                    "logData": "0x000000000000000000000000000000000000000000000011975796b9ae420000",
                    "logDecoded": true,
                    "operation": "EVENT",
                    "revert": false,
                    "status": true,
                    "topics": [
                        "0xddf252ad1be2c89b69c2b068fc378daa952ba7f163c4a11628f55a4df523b3ef",
                        "0x0000000000000000000000000d6b5a54f940bf3d52e438cab785981aaefdf40c",
                        "0x00000000000000000000000036999640fbf0eba356f8c6a73f07e0879a7ad5ac"
                    ]
                },
                "nodeType": 1
            }
        },
        "gasFlame": [
            {
                "children": [
                    {
                        "children": [
                            {
                                "children": [],
                                "depth": 0,
                                "name": "Initial Gas",
                                "value": 23256
                            },
                            {
                                "children": [],
                                "depth": 0,
                                "name": "Executed Gas",
                                "value": 31515
                            }
                        ],
                        "depth": -1,
                        "name": "Actual Gas Used",
                        "value": 54771
                    },
                    {
                        "children": [],
                        "depth": -1,
                        "name": "Refunded Gas",
                        "value": 0
                    }
                ],
                "depth": -2,
                "name": "Total Gas",
                "value": 54771
            }
        ],
        "isConfirmed": true,
        "mainTrace": [
            {
                "children": [
                    {
                        "children": [
                            {
                                "children": [],
                                "depth": 1,
                                "id": 1,
                                "order": 1
                            }
                        ],
                        "depth": 0,
                        "id": 0,
                        "order": 0
                    }
                ],
                "depth": -1,
                "id": -1,
                "order": -1
            }
        ],
        "mainTraceNodeCount": 2,
        "parentIdMap": {
            "0": -1,
            "1": 0
        },
        "tidyTrace": [
            {
                "children": [
                    {
                        "children": [
                            {
                                "children": [],
                                "depth": 1,
                                "id": 1,
                                "order": 1
                            }
                        ],
                        "depth": 0,
                        "id": 0,
                        "order": 0
                    }
                ],
                "depth": -1,
                "id": -1,
                "order": -1
            }
        ],
        "tidyTraceNodeCount": 2
    },
    "state_change": {
        "stateChanges": [
            {
                "address": "0xd850942ef8811f2a866692a623011bde52a462c1",
                "erc": "ERC-20",
                "slots": [
                    {
                        "current": "0x0000000000000000000000000000000000000000000008e7e14aa5252f090400",
                        "key": "0xf2208f05656f7b2eb326ac8e99df00fca77b8a3cad0b367460e4ddf792cd0525",
                        "prev": "0x0000000000000000000000000000000000000000000008f978a23bdedd4b0400"
                    },
                    {
                        "current": "0x000000000000000000000000000000000000000000000011975796b9ae420000",
                        "key": "0x4e306f9a52f895aa24b21e4d78082228824d1ae3e199f1d4d5eeaaebd23934f6",
                        "prev": "0x0000000000000000000000000000000000000000000000000000000000000000"
                    }
                ],
                "storageVariables": []
            }
        ]
    }
}