{
    "balance_change": {
        "balanceChanges": [
            {
                "account": "0x3bd367d02d7611d54392b904acb222d6f990b7eb",
                "assets": [
                    {
                        "address": "0x3506424f91fd33084466f402d5d97f05f8e3b4af",
                        "amount": "163,829.52655674",
                        "iconUrl": "https://assets.blocksec.com/icon/206fcc9fb6f1bc7fad1ab78e1cd3e44539d71743a172be83828afbe05b6ada6c.png",
                        "isERC1155": false,
                        "isERC721": false,
                        "sign": false,
                        "value": ""
                    }
                ]
            },
            {
                "account": "0x3f5ce5fbfe3e9af3971dd833d26ba9b5c936f0be",
                "assets": [
                    {
                        "address": "0x3506424f91fd33084466f402d5d97f05f8e3b4af",
                        "amount": "163,829.52655674",
                        "iconUrl": "https://assets.blocksec.com/icon/206fcc9fb6f1bc7fad1ab78e1cd3e44539d71743a172be83828afbe05b6ada6c.png",
                        "isERC1155": false,
                        "isERC721": false,
                        "sign": true,
                        "value": ""
                    }
                ]
            }
        ]
    },
    "profile": {
        "basic_info": {
            "baseFee": "",
            "blockNumber": 9968810,
            "callData": "0xa9059cbb0000000000000000000000003f5ce5fbfe3e9af3971dd833d26ba9b5c936f0be0000000000000000000000000000000000000000000022b13767fd52807da800",
            "debugEnable": true,
            "errorInfo": "",
            "eventCount": 1,
            "feeRecipient": "0x829bd824b016326a401d083b33d092293333a830",
            "formatValue": "0",
            "gasLimit": 76534,
            "gasPrice": "21",
            "gasUsed": 23267,
            "intTxnCount": 0,
            "internalRevert": false,
            "internalRevertMessage": "",
            "isContractCreation": false,
            "isFlashloan": false,
            "maxFee": "",
            "nonce": 15,
            "overwritedBlockNumber": -1,
            "priorityFee": "",
            "receiver": "0x3506424f91fd33084466f402d5d97f05f8e3b4af",
            "revertMessage": "",
            "sender": "0x3bd367d02d7611d54392b904acb222d6f990b7eb",
            "simulationEnable": true,
            "sourceTxnHash": "0x6c7f43aa929f2b08c7afb226983fb39cb44977b9eb850682e16e6ec26a24763c",
            "status": true,
            "timestamp": "2020-04-29T17:30:47Z",
            "transactionFee": "0.000488607",
            "txnHash": "0x6c7f43aa929f2b08c7afb226983fb39cb44977b9eb850682e16e6ec26a24763c",
            "txnIndex": 238,
            "type": 0,
            "value": "0"
        },
        "fund_flow": [
            {
                "amount": "163,829.52655674",
                "from": "0x3bd367d02d7611d54392b904acb222d6f990b7eb",
                "id": 1,
                "isERC1155": false,
                "isERC721": false,
                "isReverted": false,
                "order": 1,
                "to": "0x3f5ce5fbfe3e9af3971dd833d26ba9b5c936f0be",
                "token": "0x3506424f91fd33084466f402d5d97f05f8e3b4af"
            }
        ],
        "token_infos": [
            {
                "address": "0x3506424f91fd33084466f402d5d97f05f8e3b4af",
                "decimals": 18
            },
            {
                "address": "0xc02aaa39b223fe8d0a0e5c4f27ead9083c756cc2",
                "decimals": 18
            },
            {
                "address": "0xeeeeeeeeeeeeeeeeeeeeeeeeeeeeeeeeeeeeeeee",
                "decimals": 18
            }
        ]
    },
    "address_label": {
        "labels": [
            {
                "address": "0x3506424f91fd33084466f402d5d97f05f8e3b4af",
                "label": "Chiliz: CHZ Token"
            },
            {
                "address": "0x3bd367d02d7611d54392b904acb222d6f990b7eb",
                "label": "BINANCE"
            },
            {
                "address": "0x0000000000000000000000000000000000000001",
                "label": "Precompiled"
            },
            {
                "address": "0x0000000000000000000000000000000000000002",
                "label": "Precompiled"
            },
            {
                "address": "0x0000000000000000000000000000000000000003",
                "label": "Precompiled"
            },
            {
                "address": "0x0000000000000000000000000000000000000004",
                "label": "Precompiled"
            },
            {
                "address": "0xeeeeeeeeeeeeeeeeeeeeeeeeeeeeeeeeeeeeeeee",
                "label": "Ether"
            },
            {
                "address": "0x3f5ce5fbfe3e9af3971dd833d26ba9b5c936f0be",
                "label": "Binance"
            }
        ]
    },
    "trace": {
        "accountLabels": null,
        "dataMap": {
            "-1": {
                "invocation": {
                    "address": "0x3bd367d02d7611d54392b904acb222d6f990b7eb",
                    "callData": "",
                    "decodedMethod": null,
                    "errorInfo": "",
                    "fromAddress": "",
                    "gasUsed": 0,
                    "id": -1,
                    "methodDecoded": false,
                    "operation": "",
                    "output": "",
                    "revert": false,
                    "revertMessage": "",
                    "selector": "",
                    "status": false,
                    "value": ""
                },
                "nodeType": 0
            },
            "0": {
                "invocation": {
                    "address": "0x3506424f91fd33084466f402d5d97f05f8e3b4af",
                    "callData": "0x0000000000000000000000003f5ce5fbfe3e9af3971dd833d26ba9b5c936f0be0000000000000000000000000000000000000000000022b13767fd52807da800",
                    "decodedMethod": {
                        "callParams": [
                            {
                                "name": "to",
                                "type": "address",
                                "value": "0x3f5ce5fbfe3e9af3971dd833d26ba9b5c936f0be"
                            },
                            {
                                "decimalAvailable": true,
                                "name": "value",
                                "type": "uint256",
                                "value": "163,829,526,556,740,000,000,000"
                            }
                        ],
                        "constructorArguments": "",
                        "name": "transfer",
                        "returnParams": [
                            {
                                "name": "",
                                "type": "bool",
                                "value": true
                            }
                        ],
                        "signature": "transfer(address,uint256)"
                    },
                    "errorInfo": "",
                    "fromAddress": "0x3bd367d02d7611d54392b904acb222d6f990b7eb",
                    "gasUsed": 23267,
                    "id": 0,
                    "methodDecoded": true,
                    "operation": "CALL",
                    "output": "0x0000000000000000000000000000000000000000000000000000000000000001",
                    "revert": false,
                    "revertMessage": "",
                    "selector": "0xa9059cbb",
                    "status": true,
                    "value": "0"
                },
                "nodeType": 0
            },
            "1": {
                "event": {
                    "contract": "0x3506424f91fd33084466f402d5d97f05f8e3b4af",
                    "decodedLog": {
                        "name": "Transfer",
                        "params": [
                            {
                                "name": "from",
                                "type": "address",
                                "value": "0x3bd367d02d7611d54392b904acb222d6f990b7eb"
                            },
                            {
                                "name": "to",
                                "type": "address",
                                "value": "0x3f5ce5fbfe3e9af3971dd833d26ba9b5c936f0be"
                            },
                            {
                                "decimalAvailable": true,
                                "name": "value",
                                "type": "uint256",
                                "value": "163,829,526,556,740,000,000,000"
                            }
                        ],
                        "signature": "Transfer(address,address,uint256)"
                    },
                    "id": 1,
                    "logData": "0x0000000000000000000000000000000000000000000022b13767fd52807da800",
                    "logDecoded": true,
                    "operation": "EVENT",
                    "revert": false,
                    "status": true,
                    "topics": [
                        "0xddf252ad1be2c89b69c2b068fc378daa952ba7f163c4a11628f55a4df523b3ef",
                        "0x0000000000000000000000003bd367d02d7611d54392b904acb222d6f990b7eb",
                        "0x0000000000000000000000003f5ce5fbfe3e9af3971dd833d26ba9b5c936f0be"
                    ]
                },
                "nodeType": 1
            }
        },
        "gasFlame": [
            {
                "children": [
                    {
                        "children": [
                            {
                                "children": [],
                                "depth": 0,
                                "name": "Initial Gas",
                                "value": 21668
                            },
                            {
                                "children": [],
                                "depth": 0,
                                "name": "Executed Gas",
                                "value": 16599
                            }
                        ],
                        "depth": -1,
                        "name": "Actual Gas Used",
                        "value": 23267
                    },
                    {
                        "children": [],
                        "depth": -1,
                        "name": "Refunded Gas",
                        "value": 15000
                    }
                ],
                "depth": -2,
                "name": "Total Gas",
                "value": 38267
            }
        ],
        "isConfirmed": true,
        "mainTrace": [
            {
                "children": [
                    {
                        "children": [
                            {
                                "children": [],
                                "depth": 1,
                                "id": 1,
                                "order": 1
                            }
                        ],
                        "depth": 0,
                        "id": 0,
                        "order": 0
                    }
                ],
                "depth": -1,
                "id": -1,
                "order": -1
            }
        ],
        "mainTraceNodeCount": 2,
        "parentIdMap": {
            "0": -1,
            "1": 0
        },
        "tidyTrace": [
            {
                "children": [
                    {
                        "children": [
                            {
                                "children": [],
                                "depth": 1,
                                "id": 1,
                                "order": 1
                            }
                        ],
                        "depth": 0,
                        "id": 0,
                        "order": 0
                    }
                ],
                "depth": -1,
                "id": -1,
                "order": -1
            }
        ],
        "tidyTraceNodeCount": 2
    },
    "state_change": {
        "stateChanges": [
            {
                "address": "0x3506424f91fd33084466f402d5d97f05f8e3b4af",
                "erc": "ERC-20",
                "slots": [
                    {
                        "current": "0x000000000000000000000000000000000000000000c6ae23be0c17376ca9bb42",
                        "key": "0x94722b8224a09e66096a21233cb81502abc4895d374fc3f1bf153481ba2b210a",
                        "prev": "0x000000000000000000000000000000000000000000c68b7286a419e4ec2c1342"
                    },
                    {
                        "current": "0x0000000000000000000000000000000000000000000000000000000000000000",
                        "key": "0xe1bf4f1c1868f7c6cf3ebf3105321f71d387103533e2ae7e6a6157e99b4f46cc",
                        "prev": "0x0000000000000000000000000000000000000000000022b13767fd52807da800"
                    }
                ],
                "storageVariables": [
                    {
                        "name": "_balances",
                        "type": "mapping(address => uint256)",
                        "value": {
                            "pairs": [
                                {
                                    "key": "0x3bd367d02d7611d54392b904acb222d6f990b7eb",
                                    "value": {
                                        "current": "0",
                                        "prev": "163829526556740000000000",
                                        "typeTag": 1
                                    }
                                },
                                {
                                    "key": "0x3f5ce5fbfe3e9af3971dd833d26ba9b5c936f0be",
                                    "value": {
                                        "current": "240189663382104568433851202",
                                        "prev": "240025833855547828433851202",
                                        "typeTag": 1
                                    }
                                }
                            ],
                            "typeTag": 4
                        }
                    }
                ]
            }
        ]
    }
}