{
    "balance_change": {
        "balanceChanges": []
    },
    "profile": {
        "basic_info": {
            "baseFee": "",
            "blockNumber": 11740987,
            "callData": "0x4ab0d19008f37d65d9588163e4413a0519352e1694952f2e13aa563e4571260fc79158da0000000000000000000000000000000000000000000000000a688906bd8b0000000000000000000000000000c6ee0d4943dc43bd462145aa6ac95e9c0c8b462f6a9705b400000000000000000000000000000000000000000000000000000000000000000000000000000000000000000000000000000000000000006012011100000000000000000000000000000000000000000000000000000002dc752a41",
            "debugEnable": true,
            "errorInfo": "",
            "eventCount": 3,
            "feeRecipient": "0xea674fdde714fd979de3edf0f56aa9716b898ec8",
            "formatValue": "0",
            "gasLimit": 500000,
            "gasPrice": "138",
            "gasUsed": 110141,
            "intTxnCount": 1,
            "internalRevert": false,
            "internalRevertMessage": "",
            "isContractCreation": false,
            "isFlashloan": false,
            "maxFee": "",
            "nonce": 312113,
            "overwritedBlockNumber": -1,
            "priorityFee": "",
            "receiver": "0x240bae5a27233fd3ac5440b5a598467725f7d1cd",
            "revertMessage": "",
            "sender": "0x501698a6f6f762c79e4d28e3815c135e3f9af996",
            "simulationEnable": true,
            "sourceTxnHash": "0x6cead2516d3532a6f44b62e4b0381c0ff9ac21cfc3a01cb7fa95f369e2bb9d17",
            "status": true,
            "timestamp": "2021-01-28T00:06:08Z",
            "transactionFee": "0.015199458",
            "txnHash": "0x6cead2516d3532a6f44b62e4b0381c0ff9ac21cfc3a01cb7fa95f369e2bb9d17",
            "txnIndex": 148,
            "type": 0,
            "value": "0"
        },
        "fund_flow": [],
        "token_infos": [
            {
                "address": "0xeeeeeeeeeeeeeeeeeeeeeeeeeeeeeeeeeeeeeeee",
                "decimals": 18
            },
            {
                "address": "0xc02aaa39b223fe8d0a0e5c4f27ead9083c756cc2",
                "decimals": 18
            }
        ]
    },
    "address_label": {
        "labels": [
            {
                "address": "0x0000000000000000000000000000000000000001",
                "label": "Precompiled"
            },
            {
                "address": "0x0000000000000000000000000000000000000002",
                "label": "Precompiled"
            },
            {
                "address": "0x0000000000000000000000000000000000000003",
                "label": "Precompiled"
            },
            {
                "address": "0x0000000000000000000000000000000000000004",
                "label": "Precompiled"
            },
            {
                "address": "0xeeeeeeeeeeeeeeeeeeeeeeeeeeeeeeeeeeeeeeee",
                "label": "Ether"
            },
            {
                "address": "0x240bae5a27233fd3ac5440b5a598467725f7d1cd",
                "label": "Oracle"
            },
            {
                "address": "0xc6ee0d4943dc43bd462145aa6ac95e9c0c8b462f",
                "label": "Aggregator"
            }
        ]
    },
    "trace": {
        "accountLabels": null,
        "dataMap": {
            "-1": {
                "invocation": {
                    "address": "0x501698a6f6f762c79e4d28e3815c135e3f9af996",
                    "callData": "",
                    "decodedMethod": null,
                    "errorInfo": "",
                    "fromAddress": "",
                    "gasUsed": 0,
                    "id": -1,
                    "methodDecoded": false,
                    "operation": "",
                    "output": "",
                    "revert": false,
                    "revertMessage": "",
                    "selector": "",
                    "status": false,
                    "value": ""
                },
                "nodeType": 0
            },
            "0": {
                "invocation": {
                    "address": "0x240bae5a27233fd3ac5440b5a598467725f7d1cd",
                    "callData": "0x08f37d65d9588163e4413a0519352e1694952f2e13aa563e4571260fc79158da0000000000000000000000000000000000000000000000000a688906bd8b0000000000000000000000000000c6ee0d4943dc43bd462145aa6ac95e9c0c8b462f6a9705b400000000000000000000000000000000000000000000000000000000000000000000000000000000000000000000000000000000000000006012011100000000000000000000000000000000000000000000000000000002dc752a41",
                    "decodedMethod": {
                        "callParams": [
                            {
                                "name": "_requestId",
                                "type": "bytes32",
                                "value": "0x08f37d65d9588163e4413a0519352e1694952f2e13aa563e4571260fc79158da"
                            },
                            {
                                "name": "_payment",
                                "type": "uint256",
                                "value": "750,000,000,000,000,000"
                            },
                            {
                                "name": "_callbackAddress",
                                "type": "address",
                                "value": "0xc6ee0d4943dc43bd462145aa6ac95e9c0c8b462f"
                            },
                            {
                                "name": "_callbackFunctionId",
                                "type": "bytes4",
                                "value": "0x6a9705b4"
                            },
                            {
                                "name": "_expiration",
                                "type": "uint256",
                                "value": "1,611,792,657"
                            },
                            {
                                "name": "_data",
                                "type": "bytes32",
                                "value": "0x00000000000000000000000000000000000000000000000000000002dc752a41"
                            }
                        ],
                        "constructorArguments": "",
                        "name": "fulfillOracleRequest",
                        "returnParams": [
                            {
                                "name": "",
                                "type": "bool",
                                "value": true
                            }
                        ],
                        "signature": "fulfillOracleRequest(bytes32,uint256,address,bytes4,uint256,bytes32)"
                    },
                    "errorInfo": "",
                    "fromAddress": "0x501698a6f6f762c79e4d28e3815c135e3f9af996",
                    "gasUsed": 110141,
                    "id": 0,
                    "methodDecoded": true,
                    "operation": "CALL",
                    "output": "0x0000000000000000000000000000000000000000000000000000000000000001",
                    "revert": false,
                    "revertMessage": "",
                    "selector": "0x4ab0d190",
                    "status": true,
                    "value": "0"
                },
                "nodeType": 0
            },
            "1": {
                "invocation": {
                    "address": "0xc6ee0d4943dc43bd462145aa6ac95e9c0c8b462f",
                    "callData": "0x08f37d65d9588163e4413a0519352e1694952f2e13aa563e4571260fc79158da00000000000000000000000000000000000000000000000000000002dc752a41",
                    "decodedMethod": {
                        "callParams": [
                            {
                                "name": "_clRequestId",
                                "type": "bytes32",
                                "value": "0x08f37d65d9588163e4413a0519352e1694952f2e13aa563e4571260fc79158da"
                            },
                            {
                                "name": "_response",
                                "type": "int256",
                                "value": "12,288,600,641"
                            }
                        ],
                        "constructorArguments": "",
                        "name": "chainlinkCallback",
                        "returnParams": [],
                        "signature": "chainlinkCallback(bytes32,int256)"
                    },
                    "errorInfo": "",
                    "fromAddress": "0x240bae5a27233fd3ac5440b5a598467725f7d1cd",
                    "gasUsed": 116516,
                    "id": 1,
                    "methodDecoded": true,
                    "operation": "CALL",
                    "output": "",
                    "revert": false,
                    "revertMessage": "",
                    "selector": "0x6a9705b4",
                    "status": true,
                    "value": "0"
                },
                "nodeType": 0
            },
            "2": {
                "event": {
                    "contract": "0xc6ee0d4943dc43bd462145aa6ac95e9c0c8b462f",
                    "decodedLog": {
                        "name": "ChainlinkFulfilled",
                        "params": [
                            {
                                "name": "id",
                                "type": "bytes32",
                                "value": "0x08f37d65d9588163e4413a0519352e1694952f2e13aa563e4571260fc79158da"
                            }
                        ],
                        "signature": "ChainlinkFulfilled(bytes32)"
                    },
                    "id": 2,
                    "logData": "0x",
                    "logDecoded": true,
                    "operation": "EVENT",
                    "revert": false,
                    "status": true,
                    "topics": [
                        "0x7cc135e0cebb02c3480ae5d74d377283180a2601f8f644edf7987b009316c63a",
                        "0x08f37d65d9588163e4413a0519352e1694952f2e13aa563e4571260fc79158da"
                    ]
                },
                "nodeType": 1
            },
            "3": {
                "event": {
                    "contract": "0xc6ee0d4943dc43bd462145aa6ac95e9c0c8b462f",
                    "decodedLog": {
                        "name": "ResponseReceived",
                        "params": [
                            {
                                "name": "response",
                                "type": "int256",
                                "value": "12,288,600,641"
                            },
                            {
                                "name": "answerId",
                                "type": "uint256",
                                "value": "825"
                            },
                            {
                                "name": "sender",
                                "type": "address",
                                "value": "0x240bae5a27233fd3ac5440b5a598467725f7d1cd"
                            }
                        ],
                        "signature": "ResponseReceived(int256,uint256,address)"
                    },
                    "id": 3,
                    "logData": "0x",
                    "logDecoded": true,
                    "operation": "EVENT",
                    "revert": false,
                    "status": true,
                    "topics": [
                        "0xb51168059c83c860caf5b830c5d2e64c2172c6fb2fe9f25447d9838e18d93b60",
                        "0x00000000000000000000000000000000000000000000000000000002dc752a41",
                        "0x0000000000000000000000000000000000000000000000000000000000000339",
                        "0x000000000000000000000000240bae5a27233fd3ac5440b5a598467725f7d1cd"
                    ]
                },
                "nodeType": 1
            },
            "4": {
                "event": {
                    "contract": "0xc6ee0d4943dc43bd462145aa6ac95e9c0c8b462f",
                    "decodedLog": {
                        "name": "AnswerUpdated",
                        "params": [
                            {
                                "name": "current",
                                "type": "int256",
                                "value": "12,288,600,641"
                            },
                            {
                                "name": "roundId",
                                "type": "uint256",
                                "value": "825"
                            },
                            {
                                "name": "timestamp",
                                "type": "uint256",
                                "value": "1,611,792,368"
                            }
                        ],
                        "signature": "AnswerUpdated(int256,uint256,uint256)"
                    },
                    "id": 4,
                    "logData": "0x000000000000000000000000000000000000000000000000000000006011fff0",
                    "logDecoded": true,
                    "operation": "EVENT",
                    "revert": false,
                    "status": true,
                    "topics": [
                        "0x0559884fd3a460db3073b7fc896cc77986f16e378210ded43186175bf646fc5f",
                        "0x00000000000000000000000000000000000000000000000000000002dc752a41",
                        "0x0000000000000000000000000000000000000000000000000000000000000339"
                    ]
                },
                "nodeType": 1
            }
        },
        "gasFlame": [
            {
                "children": [
                    {
                        "children": [
                            {
                                "children": [],
                                "depth": 0,
                                "name": "Initial Gas",
                                "value": 22684
                            },
                            {
                                "children": [
                                    {
                                        "children": [],
                                        "depth": 1,
                                        "name": "chainlinkCallback",
                                        "value": 116516
                                    }
                                ],
                                "depth": 0,
                                "name": "Executed Gas",
                                "value": 132457
                            }
                        ],
                        "depth": -1,
                        "name": "Actual Gas Used",
                        "value": 110141
                    },
                    {
                        "children": [],
                        "depth": -1,
                        "name": "Refunded Gas",
                        "value": 45000
                    }
                ],
                "depth": -2,
                "name": "Total Gas",
                "value": 155141
            }
        ],
        "isConfirmed": true,
        "mainTrace": [
            {
                "children": [
                    {
                        "children": [
                            {
                                "children": [
                                    {
                                        "children": [],
                                        "depth": 2,
                                        "id": 2,
                                        "order": 2
                                    },
                                    {
                                        "children": [],
                                        "depth": 2,
                                        "id": 3,
                                        "order": 3
                                    },
                                    {
                                        "children": [],
                                        "depth": 2,
                                        "id": 4,
                                        "order": 4
                                    }
                                ],
                                "depth": 1,
                                "id": 1,
                                "order": 1
                            }
                        ],
                        "depth": 0,
                        "id": 0,
                        "order": 0
                    }
                ],
                "depth": -1,
                "id": -1,
                "order": -1
            }
        ],
        "mainTraceNodeCount": 5,
        "parentIdMap": {
            "0": -1,
            "1": 0,
            "2": 1,
            "3": 1,
            "4": 1
        },
        "tidyTrace": [
            {
                "children": [
                    {
                        "children": [
                            {
                                "children": [
                                    {
                                        "children": [],
                                        "depth": 2,
                                        "id": 2,
                                        "order": 2
                                    },
                                    {
                                        "children": [],
                                        "depth": 2,
                                        "id": 3,
                                        "order": 3
                                    },
                                    {
                                        "children": [],
                                        "depth": 2,
                                        "id": 4,
                                        "order": 4
                                    }
                                ],
                                "depth": 1,
                                "id": 1,
                                "order": 1
                            }
                        ],
                        "depth": 0,
                        "id": 0,
                        "order": 0
                    }
                ],
                "depth": -1,
                "id": -1,
                "order": -1
            }
        ],
        "tidyTraceNodeCount": 5
    },
    "state_change": {
        "stateChanges": [
            {
                "address": "0x240bae5a27233fd3ac5440b5a598467725f7d1cd",
                "erc": "",
                "slots": [
                    {
                        "current": "0x00000000000000000000000000000000000000000000000598be2902d3540000",
                        "key": "0x0000000000000000000000000000000000000000000000000000000000000004",
                        "prev": "0x0000000000000000000000000000000000000000000000058e559ffc15c90000"
                    },
                    {
                        "current": "0x0000000000000000000000000000000000000000000000000000000000000000",
                        "key": "0xb84f28b11af89e046b8c2515cdb79ccf849bb75eeced14ea4e4c0042ddafbb18",
                        "prev": "0x9862edf6b5b35827fc0bafebf2904cca3d3d0c1d9613ebd3f441f671627ee553"
                    }
                ],
                "storageVariables": [
                    {
                        "name": "withdrawableTokens",
                        "type": "uint256",
                        "value": {
                            "current": "103240000000000000000",
                            "prev": "102490000000000000000",
                            "typeTag": 1
                        }
                    },
                    {
                        "name": "commitments",
                        "type": "mapping(bytes32 => bytes32)",
                        "value": {
                            "pairs": [
                                {
                                    "key": "0x08f37d65d9588163e4413a0519352e1694952f2e13aa563e4571260fc79158da",
                                    "value": {
                                        "current": "0x0000000000000000000000000000000000000000000000000000000000000000",
                                        "prev": "0x9862edf6b5b35827fc0bafebf2904cca3d3d0c1d9613ebd3f441f671627ee553",
                                        "typeTag": 1
                                    }
                                }
                            ],
                            "typeTag": 4
                        }
                    }
                ]
            },
            {
                "address": "0xc6ee0d4943dc43bd462145aa6ac95e9c0c8b462f",
                "erc": "",
                "slots": [
                    {
                        "current": "0x000000000000000000000000000000000000000000000000000000006011fff0",
                        "key": "0x0000000000000000000000000000000000000000000000000000000000000008",
                        "prev": "0x000000000000000000000000000000000000000000000000000000006010b0a0"
                    },
                    {
                        "current": "0x0000000000000000000000000000000000000000000000000000000000000005",
                        "key": "0xe57acdf6439fc21ec4dfd66bc6ee3231872c8d159ca949269318b3f3da534885",
                        "prev": "0x0000000000000000000000000000000000000000000000000000000000000004"
                    },
                    {
                        "current": "0x000000000000000000000000000000000000000000000000000000006011fff0",
                        "key": "0xc6ec342c800fa68d6301ac037d19160529fc51b00c5ad094c516d5e3f77b1fab",
                        "prev": "0x0000000000000000000000000000000000000000000000000000000000000000"
                    },
                    {
                        "current": "0x00000000000000000000000000000000000000000000000000000002dc752a41",
                        "key": "0x0000000000000000000000000000000000000000000000000000000000000007",
                        "prev": "0x000000000000000000000000000000000000000000000000000000031c6f6b3a"
                    },
                    {
                        "current": "0x00000000000000000000000000000000000000000000000000000002dc752a41",
                        "key": "0x5d1e87bac7c6165831bccf8777d0b9dbc4605c689b0f5a46e88e259697fd1ecb",
                        "prev": "0x0000000000000000000000000000000000000000000000000000000000000000"
                    },
                    {
                        "current": "0x0000000000000000000000000000000000000000000000000000000000000000",
                        "key": "0x0b0a373f82a08c5428d49cc084294fd68555ea7c17142d241dbda0fd4d5ea6fa",
                        "prev": "0x000000000000000000000000240bae5a27233fd3ac5440b5a598467725f7d1cd"
                    },
                    {
                        "current": "0x0000000000000000000000000000000000000000000000000000000000000339",
                        "key": "0x0000000000000000000000000000000000000000000000000000000000000009",
                        "prev": "0x0000000000000000000000000000000000000000000000000000000000000338"
                    },
                    {
                        "current": "0x0000000000000000000000000000000000000000000000000000000000000000",
                        "key": "0x67bf745d73d3ef5446497d34ab38044a6426ee50cb798e092dfed98ccd9ea68a",
                        "prev": "0x0000000000000000000000000000000000000000000000000000000000000339"
                    },
                    {
                        "current": "0x00000000000000000000000000000000000000000000000000000002dc752a41",
                        "key": "0x6db2b5ed914dc66eb2829b6451d3f82df080e111f8babe8d66dcd868ebf3b3c2",
                        "prev": "0x0000000000000000000000000000000000000000000000000000000000000000"
                    }
                ],
                "storageVariables": [
                    {
                        "name": "updatedTimestamps",
                        "type": "mapping(uint256 => uint256)",
                        "value": {
                            "pairs": [
                                {
                                    "key": "825",
                                    "value": {
                                        "current": "1611792368",
                                        "prev": "0",
                                        "typeTag": 1
                                    }
                                }
                            ],
                            "typeTag": 4
                        }
                    },
                    {
                        "name": "currentAnswerValue",
                        "type": "int256",
                        "value": {
                            "current": "12288600641",
                            "prev": "13361965882",
                            "typeTag": 1
                        }
                    },
                    {
                        "name": "currentAnswers",
                        "type": "mapping(uint256 => int256)",
                        "value": {
                            "pairs": [
                                {
                                    "key": "825",
                                    "value": {
                                        "current": "12288600641",
                                        "prev": "0",
                                        "typeTag": 1
                                    }
                                }
                            ],
                            "typeTag": 4
                        }
                    },
                    {
                        "name": "answers",
                        "type": "mapping(uint256 => struct Aggregator.Answer)",
                        "value": {
                            "pairs": [
                                {
                                    "key": "825",
                                    "value": {
                                        "fields": [
                                            {
                                                "name": "responses",
                                                "type": "int256[]",
                                                "value": {
                                                    "elemType": "int256",
                                                    "elems": [
                                                        {
                                                            "index": 4,
                                                            "value": {
                                                                "current": "12288600641",
                                                                "prev": "0",
                                                                "typeTag": 1
                                                            }
                                                        }
                                                    ],
                                                    "typeTag": 2
                                                }
                                            }
                                        ],
                                        "typeTag": 3
                                    }
                                }
                            ],
                            "typeTag": 4
                        }
                    },
                    {
                        "name": "pendingRequests",
                        "type": "mapping(bytes32 => address)",
                        "value": {
                            "pairs": [
                                {
                                    "key": "0x08f37d65d9588163e4413a0519352e1694952f2e13aa563e4571260fc79158da",
                                    "value": {
                                        "current": "0x0000000000000000000000000000000000000000",
                                        "prev": "0x240bae5a27233fd3ac5440b5a598467725f7d1cd",
                                        "typeTag": 1
                                    }
                                }
                            ],
                            "typeTag": 4
                        }
                    },
                    {
                        "name": "latestCompletedAnswer",
                        "type": "uint256",
                        "value": {
                            "current": "825",
                            "prev": "824",
                            "typeTag": 1
                        }
                    },
                    {
                        "name": "requestAnswers",
                        "type": "mapping(bytes32 => uint256)",
                        "value": {
                            "pairs": [
                                {
                                    "key": "0x08f37d65d9588163e4413a0519352e1694952f2e13aa563e4571260fc79158da",
                                    "value": {
                                        "current": "0",
                                        "prev": "825",
                                        "typeTag": 1
                                    }
                                }
                            ],
                            "typeTag": 4
                        }
                    },
                    {
                        "name": "updatedTimestampValue",
                        "type": "uint256",
                        "value": {
                            "current": "1611792368",
                            "prev": "1611706528",
                            "typeTag": 1
                        }
                    }
                ]
            }
        ]
    }
}