{
    "balance_change": {
        "balanceChanges": [
            {
                "account": "0x395b9853e95be2369af37653481c4e2dd09919b0",
                "assets": [
                    {
                        "address": "0x761d38e5ddf6ccf6cf7c55759d5210750b5d60f3",
                        "amount": "36,007,451,053.629496221852378437",
                        "iconUrl": "https://assets.blocksec.com/icon/e661c8e13a6b9a258a0c32a2cad80431048d2a7336799e313d684c2e3986e59c.png",
                        "isERC1155": false,
                        "isERC721": false,
                        "sign": false,
                        "value": ""
                    }
                ]
            },
            {
                "account": "0xef055c6dca75019f7634585051ebe347cc356bbc",
                "assets": [
                    {
                        "address": "0x761d38e5ddf6ccf6cf7c55759d5210750b5d60f3",
                        "amount": "36,007,451,053.629496221852378437",
                        "iconUrl": "https://assets.blocksec.com/icon/e661c8e13a6b9a258a0c32a2cad80431048d2a7336799e313d684c2e3986e59c.png",
                        "isERC1155": false,
                        "isERC721": false,
                        "sign": true,
                        "value": ""
                    }
                ]
            }
        ]
    },
    "profile": {
        "basic_info": {
            "baseFee": "19.572546679",
            "blockNumber": 19543996,
            "callData": "0xa9059cbb000000000000000000000000ef055c6dca75019f7634585051ebe347cc356bbc00000000000000000000000000000000000000007458aa58e6890553658a2545",
            "debugEnable": true,
            "errorInfo": "",
            "eventCount": 1,
            "feeRecipient": "0x95222290dd7278aa3ddd389cc1e1d165cc4bafe5",
            "formatValue": "0",
            "gasLimit": 52011,
            "gasPrice": "20.262546679",
            "gasUsed": 29871,
            "intTxnCount": 0,
            "internalRevert": false,
            "internalRevertMessage": "",
            "isContractCreation": false,
            "isFlashloan": false,
            "maxFee": "28.419",
            "nonce": 2003,
            "overwritedBlockNumber": -1,
            "priorityFee": "0.69",
            "receiver": "0x761d38e5ddf6ccf6cf7c55759d5210750b5d60f3",
            "revertMessage": "",
            "sender": "0x395b9853e95be2369af37653481c4e2dd09919b0",
            "simulationEnable": true,
            "sourceTxnHash": "0x6d50d044c0c9504b62a475239b660aa99caf95716021a6e057ba9bb108e17a9b",
            "status": true,
            "timestamp": "2024-03-30T03:06:47Z",
            "transactionFee": "0.000605262531848409",
            "txnHash": "0x6d50d044c0c9504b62a475239b660aa99caf95716021a6e057ba9bb108e17a9b",
            "txnIndex": 170,
            "type": 2,
            "value": "0"
        },
        "fund_flow": [
            {
                "amount": "36,007,451,053.629496221852378437",
                "from": "0x395b9853e95be2369af37653481c4e2dd09919b0",
                "id": 1,
                "isERC1155": false,
                "isERC721": false,
                "isReverted": false,
                "order": 1,
                "to": "0xef055c6dca75019f7634585051ebe347cc356bbc",
                "token": "0x761d38e5ddf6ccf6cf7c55759d5210750b5d60f3"
            }
        ],
        "token_infos": [
            {
                "address": "0x761d38e5ddf6ccf6cf7c55759d5210750b5d60f3",
                "decimals": 18
            },
            {
                "address": "0xc02aaa39b223fe8d0a0e5c4f27ead9083c756cc2",
                "decimals": 18
            },
            {
                "address": "0xeeeeeeeeeeeeeeeeeeeeeeeeeeeeeeeeeeeeeeee",
                "decimals": 18
            }
        ]
    },
    "address_label": {
        "labels": [
            {
                "address": "0x0000000000000000000000000000000000000001",
                "label": "Precompiled"
            },
            {
                "address": "0x0000000000000000000000000000000000000002",
                "label": "Precompiled"
            },
            {
                "address": "0x0000000000000000000000000000000000000003",
                "label": "Precompiled"
            },
            {
                "address": "0x0000000000000000000000000000000000000004",
                "label": "Precompiled"
            },
            {
                "address": "0xeeeeeeeeeeeeeeeeeeeeeeeeeeeeeeeeeeeeeeee",
                "label": "Ether"
            },
            {
                "address": "0x761d38e5ddf6ccf6cf7c55759d5210750b5d60f3",
                "label": "Dogelon: ELON Token"
            }
        ]
    },
    "trace": {
        "accountLabels": null,
        "dataMap": {
            "-1": {
                "invocation": {
                    "address": "0x395b9853e95be2369af37653481c4e2dd09919b0",
                    "callData": "",
                    "decodedMethod": null,
                    "errorInfo": "",
                    "fromAddress": "",
                    "gasUsed": 0,
                    "id": -1,
                    "methodDecoded": false,
                    "operation": "",
                    "output": "",
                    "revert": false,
                    "revertMessage": "",
                    "selector": "",
                    "status": false,
                    "value": ""
                },
                "nodeType": 0
            },
            "0": {
                "invocation": {
                    "address": "0x761d38e5ddf6ccf6cf7c55759d5210750b5d60f3",
                    "callData": "0x000000000000000000000000ef055c6dca75019f7634585051ebe347cc356bbc00000000000000000000000000000000000000007458aa58e6890553658a2545",
                    "decodedMethod": {
                        "callParams": [
                            {
                                "name": "recipient",
                                "type": "address",
                                "value": "0xef055c6dca75019f7634585051ebe347cc356bbc"
                            },
                            {
                                "decimalAvailable": true,
                                "name": "amount",
                                "type": "uint256",
                                "value": "36,007,451,053,629,496,221,852,378,437"
                            }
                        ],
                        "constructorArguments": "",
                        "name": "transfer",
                        "returnParams": [
                            {
                                "name": "",
                                "type": "bool",
                                "value": true
                            }
                        ],
                        "signature": "transfer(address,uint256)"
                    },
                    "errorInfo": "",
                    "fromAddress": "0x395b9853e95be2369af37653481c4e2dd09919b0",
                    "gasUsed": 29871,
                    "id": 0,
                    "methodDecoded": true,
                    "operation": "CALL",
                    "output": "0x0000000000000000000000000000000000000000000000000000000000000001",
                    "revert": false,
                    "revertMessage": "",
                    "selector": "0xa9059cbb",
                    "status": true,
                    "value": "0"
                },
                "nodeType": 0
            },
            "1": {
                "event": {
                    "contract": "0x761d38e5ddf6ccf6cf7c55759d5210750b5d60f3",
                    "decodedLog": {
                        "name": "Transfer",
                        "params": [
                            {
                                "name": "from",
                                "type": "address",
                                "value": "0x395b9853e95be2369af37653481c4e2dd09919b0"
                            },
                            {
                                "name": "to",
                                "type": "address",
                                "value": "0xef055c6dca75019f7634585051ebe347cc356bbc"
                            },
                            {
                                "decimalAvailable": true,
                                "name": "value",
                                "type": "uint256",
                                "value": "36,007,451,053,629,496,221,852,378,437"
                            }
                        ],
                        "signature": "Transfer(address,address,uint256)"
                    },
                    "id": 1,
                    "logData": "0x00000000000000000000000000000000000000007458aa58e6890553658a2545",
                    "logDecoded": true,
                    "operation": "EVENT",
                    "revert": false,
                    "status": true,
                    "topics": [
                        "0xddf252ad1be2c89b69c2b068fc378daa952ba7f163c4a11628f55a4df523b3ef",
                        "0x000000000000000000000000395b9853e95be2369af37653481c4e2dd09919b0",
                        "0x000000000000000000000000ef055c6dca75019f7634585051ebe347cc356bbc"
                    ]
                },
                "nodeType": 1
            }
        },
        "gasFlame": [
            {
                "children": [
                    {
                        "children": [
                            {
                                "children": [],
                                "depth": 0,
                                "name": "Initial Gas",
                                "value": 21704
                            },
                            {
                                "children": [],
                                "depth": 0,
                                "name": "Executed Gas",
                                "value": 12967
                            }
                        ],
                        "depth": -1,
                        "name": "Actual Gas Used",
                        "value": 29871
                    },
                    {
                        "children": [],
                        "depth": -1,
                        "name": "Refunded Gas",
                        "value": 4800
                    }
                ],
                "depth": -2,
                "name": "Total Gas",
                "value": 34671
            }
        ],
        "isConfirmed": true,
        "mainTrace": [
            {
                "children": [
                    {
                        "children": [
                            {
                                "children": [],
                                "depth": 1,
                                "id": 1,
                                "order": 1
                            }
                        ],
                        "depth": 0,
                        "id": 0,
                        "order": 0
                    }
                ],
                "depth": -1,
                "id": -1,
                "order": -1
            }
        ],
        "mainTraceNodeCount": 2,
        "parentIdMap": {
            "0": -1,
            "1": 0
        },
        "tidyTrace": [
            {
                "children": [
                    {
                        "children": [
                            {
                                "children": [],
                                "depth": 1,
                                "id": 1,
                                "order": 1
                            }
                        ],
                        "depth": 0,
                        "id": 0,
                        "order": 0
                    }
                ],
                "depth": -1,
                "id": -1,
                "order": -1
            }
        ],
        "tidyTraceNodeCount": 2
    },
    "state_change": {
        "stateChanges": [
            {
                "address": "0x761d38e5ddf6ccf6cf7c55759d5210750b5d60f3",
                "erc": "ERC-20",
                "slots": [
                    {
                        "current": "0x00000000000000000000000000000000000000007458aa58e68905554bf302a8",
                        "key": "0xac3dc334bb41b7b072ca51913e560c46956e58fac8663e3e6d7f8e9b6574c000",
                        "prev": "0x00000000000000000000000000000000000000000000000000000001e668dd63"
                    },
                    {
                        "current": "0x0000000000000000000000000000000000000000000000000000000000000000",
                        "key": "0x16c0fedb225de0c0f8033cbc72d1841dbc11ad93d4de6c0b46ed4574ceafd535",
                        "prev": "0x00000000000000000000000000000000000000007458aa58e6890553658a2545"
                    }
                ],
                "storageVariables": [
                    {
                        "name": "_balances",
                        "type": "mapping(address => uint256)",
                        "value": {
                            "pairs": [
                                {
                                    "key": "0x395b9853e95be2369af37653481c4e2dd09919b0",
                                    "value": {
                                        "current": "0",
                                        "prev": "36007451053629496221852378437",
                                        "typeTag": 1
                                    }
                                },
                                {
                                    "key": "0xef055c6dca75019f7634585051ebe347cc356bbc",
                                    "value": {
                                        "current": "36007451053629496230012977832",
                                        "prev": "8160599395",
                                        "typeTag": 1
                                    }
                                }
                            ],
                            "typeTag": 4
                        }
                    }
                ]
            }
        ]
    }
}