{
    "balance_change": {
        "balanceChanges": [
            {
                "account": "0x92472d32a8ad5182594f5b0b022aa5571dade0ae",
                "assets": [
                    {
                        "address": "0x67b6d479c7bb412c54e03dca8e1bc6740ce6b99c",
                        "amount": "3,633.753646616458592053",
                        "iconUrl": "",
                        "isERC1155": false,
                        "isERC721": false,
                        "sign": false,
                        "value": "2737.867827"
                    },
                    {
                        "address": "0xdac17f958d2ee523a2206206994597c13d831ec7",
                        "amount": "2,699.633735",
                        "iconUrl": "https://assets.blocksec.com/icon/fcea71f3193ce895be44bfdf941f7e4c9381dd587f273c2d1a27f1263d84e4ea.png",
                        "isERC1155": false,
                        "isERC721": false,
                        "sign": true,
                        "value": "2701.64696"
                    }
                ]
            },
            {
                "account": "0x0d4a11d5eeaac28ec3f61d100daf4d40471f1852",
                "assets": [
                    {
                        "address": "0xc02aaa39b223fe8d0a0e5c4f27ead9083c756cc2",
                        "amount": "1.100457360464000087",
                        "iconUrl": "https://assets.blocksec.com/icon/f1cb2d02c471d545bbc7722daf3277fd852d98e63d118771af7047bd8256c516.png",
                        "isERC1155": false,
                        "isERC721": false,
                        "sign": true,
                        "value": "2713.948725"
                    },
                    {
                        "address": "0xdac17f958d2ee523a2206206994597c13d831ec7",
                        "amount": "2,699.633735",
                        "iconUrl": "https://assets.blocksec.com/icon/fcea71f3193ce895be44bfdf941f7e4c9381dd587f273c2d1a27f1263d84e4ea.png",
                        "isERC1155": false,
                        "isERC721": false,
                        "sign": false,
                        "value": "2701.64696"
                    }
                ]
            },
            {
                "account": "0x11ededebf63bef0ea2d2d071bdf88f71543ec6fb",
                "assets": [
                    {
                        "address": "0x67b6d479c7bb412c54e03dca8e1bc6740ce6b99c",
                        "amount": "31.79534440789401268",
                        "iconUrl": "",
                        "isERC1155": false,
                        "isERC721": false,
                        "sign": true,
                        "value": "23.91833062"
                    }
                ]
            },
            {
                "account": "0xc60c479f3cc66f1654a4113f4949c98ce77a9995",
                "assets": [
                    {
                        "address": "0x67b6d479c7bb412c54e03dca8e1bc6740ce6b99c",
                        "amount": "3,601.958302208564579373",
                        "iconUrl": "",
                        "isERC1155": false,
                        "isERC721": false,
                        "sign": true,
                        "value": "2705.362144"
                    },
                    {
                        "address": "0xc02aaa39b223fe8d0a0e5c4f27ead9083c756cc2",
                        "amount": "1.100457360464000087",
                        "iconUrl": "https://assets.blocksec.com/icon/f1cb2d02c471d545bbc7722daf3277fd852d98e63d118771af7047bd8256c516.png",
                        "isERC1155": false,
                        "isERC721": false,
                        "sign": false,
                        "value": "2713.948725"
                    }
                ]
            }
        ]
    },
    "profile": {
        "basic_info": {
            "baseFee": "",
            "blockNumber": 12313826,
            "callData": "0x5f575529000000000000000000000000000000000000000000000000000000000000008000000000000000000000000067b6d479c7bb412c54e03dca8e1bc6740ce6b99c0000000000000000000000000000000000000000000000c4fc7649254e547f3500000000000000000000000000000000000000000000000000000000000000c000000000000000000000000000000000000000000000000000000000000000096f6e65496e636856330000000000000000000000000000000000000000000000000000000000000000000000000000000000000000000000000000000000020000000000000000000000000067b6d479c7bb412c54e03dca8e1bc6740ce6b99c000000000000000000000000dac17f958d2ee523a2206206994597c13d831ec70000000000000000000000000000000000000000000000c3433687dd9e9acc2d000000000000000000000000000000000000000000000000000000009dbf1c130000000000000000000000000000000000000000000000000000000000000100000000000000000000000000000000000000000000000001b93fc147afb9b30800000000000000000000000011ededebf63bef0ea2d2d071bdf88f71543ec6fb00000000000000000000000000000000000000000000000000000000000000e42e95b6c800000000000000000000000067b6d479c7bb412c54e03dca8e1bc6740ce6b99c0000000000000000000000000000000000000000000000c3433687dd9e9acc2d000000000000000000000000000000000000000000000000000000009dbf1c130000000000000000000000000000000000000000000000000000000000000080000000000000000000000000000000000000000000000000000000000000000200000000000000003b6d0340c60c479f3cc66f1654a4113f4949c98ce77a999500000000000000003b6d03400d4a11d5eeaac28ec3f61d100daf4d40471f18520000000000000000000000000000000000000000000000000000000064",
            "debugEnable": true,
            "errorInfo": "",
            "eventCount": 13,
            "feeRecipient": "0x99c85bb64564d9ef9a99621301f22c9993cb89e3",
            "formatValue": "0",
            "gasLimit": 326624,
            "gasPrice": "51",
            "gasUsed": 229218,
            "intTxnCount": 20,
            "internalRevert": false,
            "internalRevertMessage": "",
            "isContractCreation": false,
            "isFlashloan": false,
            "maxFee": "",
            "nonce": 109,
            "overwritedBlockNumber": -1,
            "priorityFee": "",
            "receiver": "0x881d40237659c251811cec9c364ef91dc08d300c",
            "revertMessage": "",
            "sender": "0x92472d32a8ad5182594f5b0b022aa5571dade0ae",
            "simulationEnable": true,
            "sourceTxnHash": "0x6d7ace6e8d0b2b1d450c8113daf1d5737b1f53c518e900ac23188158d00da5db",
            "status": true,
            "timestamp": "2021-04-26T04:40:41Z",
            "transactionFee": "0.011690118",
            "txnHash": "0x6d7ace6e8d0b2b1d450c8113daf1d5737b1f53c518e900ac23188158d00da5db",
            "txnIndex": 50,
            "type": 0,
            "value": "0"
        },
        "fund_flow": [
            {
                "amount": "3,633.753646616458592053",
                "from": "0x92472d32a8ad5182594f5b0b022aa5571dade0ae",
                "id": 1,
                "isERC1155": false,
                "isERC721": false,
                "isReverted": false,
                "order": 1,
                "to": "0x74de5d4fcbf63e00296fd95d33236b9794016631",
                "token": "0x67b6d479c7bb412c54e03dca8e1bc6740ce6b99c"
            },
            {
                "amount": "31.79534440789401268",
                "from": "0x74de5d4fcbf63e00296fd95d33236b9794016631",
                "id": 2,
                "isERC1155": false,
                "isERC721": false,
                "isReverted": false,
                "order": 2,
                "to": "0x11ededebf63bef0ea2d2d071bdf88f71543ec6fb",
                "token": "0x67b6d479c7bb412c54e03dca8e1bc6740ce6b99c"
            },
            {
                "amount": "3,601.958302208564579373",
                "from": "0x74de5d4fcbf63e00296fd95d33236b9794016631",
                "id": 3,
                "isERC1155": false,
                "isERC721": false,
                "isReverted": false,
                "order": 3,
                "to": "0xc60c479f3cc66f1654a4113f4949c98ce77a9995",
                "token": "0x67b6d479c7bb412c54e03dca8e1bc6740ce6b99c"
            },
            {
                "amount": "1.100457360464000087",
                "from": "0xc60c479f3cc66f1654a4113f4949c98ce77a9995",
                "id": 4,
                "isERC1155": false,
                "isERC721": false,
                "isReverted": false,
                "order": 4,
                "to": "0x0d4a11d5eeaac28ec3f61d100daf4d40471f1852",
                "token": "0xc02aaa39b223fe8d0a0e5c4f27ead9083c756cc2"
            },
            {
                "amount": "2,699.633735",
                "from": "0x0d4a11d5eeaac28ec3f61d100daf4d40471f1852",
                "id": 5,
                "isERC1155": false,
                "isERC721": false,
                "isReverted": false,
                "order": 5,
                "to": "0x74de5d4fcbf63e00296fd95d33236b9794016631",
                "token": "0xdac17f958d2ee523a2206206994597c13d831ec7"
            },
            {
                "amount": "2,699.633735",
                "from": "0x74de5d4fcbf63e00296fd95d33236b9794016631",
                "id": 6,
                "isERC1155": false,
                "isERC721": false,
                "isReverted": false,
                "order": 6,
                "to": "0x92472d32a8ad5182594f5b0b022aa5571dade0ae",
                "token": "0xdac17f958d2ee523a2206206994597c13d831ec7"
            }
        ],
        "token_infos": [
            {
                "address": "0xc02aaa39b223fe8d0a0e5c4f27ead9083c756cc2",
                "decimals": 18
            },
            {
                "address": "0xdac17f958d2ee523a2206206994597c13d831ec7",
                "decimals": 6
            },
            {
                "address": "0xeeeeeeeeeeeeeeeeeeeeeeeeeeeeeeeeeeeeeeee",
                "decimals": 18
            },
            {
                "address": "0x67b6d479c7bb412c54e03dca8e1bc6740ce6b99c",
                "decimals": 18
            }
        ]
    },
    "address_label": {
        "labels": [
            {
                "address": "0x11ededebf63bef0ea2d2d071bdf88f71543ec6fb",
                "label": "Metamask: Fees"
            },
            {
                "address": "0x74de5d4fcbf63e00296fd95d33236b9794016631",
                "label": "MetaMask: Swaps Spender"
            },
            {
                "address": "0x881d40237659c251811cec9c364ef91dc08d300c",
                "label": "Metamask: Swap Router"
            },
            {
                "address": "0x0d4a11d5eeaac28ec3f61d100daf4d40471f1852",
                "label": "Uniswap V2: USDT"
            },
            {
                "address": "0x0000000000000000000000000000000000000001",
                "label": "Precompiled"
            },
            {
                "address": "0x0000000000000000000000000000000000000002",
                "label": "Precompiled"
            },
            {
                "address": "0xeeeeeeeeeeeeeeeeeeeeeeeeeeeeeeeeeeeeeeee",
                "label": "Ether"
            },
            {
                "address": "0x67b6d479c7bb412c54e03dca8e1bc6740ce6b99c",
                "label": "Kylin Network: Old KYL Token 2"
            },
            {
                "address": "0xc02aaa39b223fe8d0a0e5c4f27ead9083c756cc2",
                "label": "Wrapped Ether (WETH)"
            },
            {
                "address": "0x0000000000000000000000000000000000000003",
                "label": "Precompiled"
            },
            {
                "address": "0xc60c479f3cc66f1654a4113f4949c98ce77a9995",
                "label": "Uniswap V2: KYL 6"
            },
            {
                "address": "0x0000000000000000000000000000000000000004",
                "label": "Precompiled"
            },
            {
                "address": "0x11111112542d85b3ef69ae05771c2dccff4faa26",
                "label": "1inch v3: Aggregation Router"
            },
            {
                "address": "0xdac17f958d2ee523a2206206994597c13d831ec7",
                "label": "Tether: USDT Stablecoin"
            }
        ]
    },
    "trace": {
        "accountLabels": null,
        "dataMap": {
            "-1": {
                "invocation": {
                    "address": "0x92472d32a8ad5182594f5b0b022aa5571dade0ae",
                    "callData": "",
                    "decodedMethod": null,
                    "errorInfo": "",
                    "fromAddress": "",
                    "gasUsed": 0,
                    "id": -1,
                    "methodDecoded": false,
                    "operation": "",
                    "output": "",
                    "revert": false,
                    "revertMessage": "",
                    "selector": "",
                    "status": false,
                    "value": ""
                },
                "nodeType": 0
            },
            "0": {
                "invocation": {
                    "address": "0x881d40237659c251811cec9c364ef91dc08d300c",
                    "callData": "0x000000000000000000000000000000000000000000000000000000000000008000000000000000000000000067b6d479c7bb412c54e03dca8e1bc6740ce6b99c0000000000000000000000000000000000000000000000c4fc7649254e547f3500000000000000000000000000000000000000000000000000000000000000c000000000000000000000000000000000000000000000000000000000000000096f6e65496e636856330000000000000000000000000000000000000000000000000000000000000000000000000000000000000000000000000000000000020000000000000000000000000067b6d479c7bb412c54e03dca8e1bc6740ce6b99c000000000000000000000000dac17f958d2ee523a2206206994597c13d831ec70000000000000000000000000000000000000000000000c3433687dd9e9acc2d000000000000000000000000000000000000000000000000000000009dbf1c130000000000000000000000000000000000000000000000000000000000000100000000000000000000000000000000000000000000000001b93fc147afb9b30800000000000000000000000011ededebf63bef0ea2d2d071bdf88f71543ec6fb00000000000000000000000000000000000000000000000000000000000000e42e95b6c800000000000000000000000067b6d479c7bb412c54e03dca8e1bc6740ce6b99c0000000000000000000000000000000000000000000000c3433687dd9e9acc2d000000000000000000000000000000000000000000000000000000009dbf1c130000000000000000000000000000000000000000000000000000000000000080000000000000000000000000000000000000000000000000000000000000000200000000000000003b6d0340c60c479f3cc66f1654a4113f4949c98ce77a999500000000000000003b6d03400d4a11d5eeaac28ec3f61d100daf4d40471f18520000000000000000000000000000000000000000000000000000000064",
                    "decodedMethod": {
                        "callParams": [
                            {
                                "name": "aggregatorId",
                                "type": "string",
                                "value": "oneInchV3"
                            },
                            {
                                "name": "tokenFrom",
                                "type": "address",
                                "value": "0x67b6d479c7bb412c54e03dca8e1bc6740ce6b99c"
                            },
                            {
                                "name": "amount",
                                "type": "uint256",
                                "value": "3,633,753,646,616,458,592,053"
                            },
                            {
                                "name": "data",
                                "type": "bytes",
                                "value": "0x00000000000000000000000067b6d479c7bb412c54e03dca8e1bc6740ce6b99c000000000000000000000000dac17f958d2ee523a2206206994597c13d831ec70000000000000000000000000000000000000000000000c3433687dd9e9acc2d000000000000000000000000000000000000000000000000000000009dbf1c130000000000000000000000000000000000000000000000000000000000000100000000000000000000000000000000000000000000000001b93fc147afb9b30800000000000000000000000011ededebf63bef0ea2d2d071bdf88f71543ec6fb00000000000000000000000000000000000000000000000000000000000000e42e95b6c800000000000000000000000067b6d479c7bb412c54e03dca8e1bc6740ce6b99c0000000000000000000000000000000000000000000000c3433687dd9e9acc2d000000000000000000000000000000000000000000000000000000009dbf1c130000000000000000000000000000000000000000000000000000000000000080000000000000000000000000000000000000000000000000000000000000000200000000000000003b6d0340c60c479f3cc66f1654a4113f4949c98ce77a999500000000000000003b6d03400d4a11d5eeaac28ec3f61d100daf4d40471f185200000000000000000000000000000000000000000000000000000000"
                            }
                        ],
                        "constructorArguments": "",
                        "name": "swap",
                        "returnParams": [],
                        "signature": "swap(string,address,uint256,bytes)"
                    },
                    "errorInfo": "",
                    "fromAddress": "0x92472d32a8ad5182594f5b0b022aa5571dade0ae",
                    "gasUsed": 229218,
                    "id": 0,
                    "methodDecoded": true,
                    "operation": "CALL",
                    "output": "",
                    "revert": false,
                    "revertMessage": "",
                    "selector": "0x5f575529",
                    "status": true,
                    "value": "0"
                },
                "nodeType": 0
            },
            "1": {
                "invocation": {
                    "address": "0x67b6d479c7bb412c54e03dca8e1bc6740ce6b99c",
                    "callData": "0x00000000000000000000000092472d32a8ad5182594f5b0b022aa5571dade0ae00000000000000000000000074de5d4fcbf63e00296fd95d33236b97940166310000000000000000000000000000000000000000000000c4fc7649254e547f35",
                    "decodedMethod": {
                        "callParams": [
                            {
                                "name": "sender",
                                "type": "address",
                                "value": "0x92472d32a8ad5182594f5b0b022aa5571dade0ae"
                            },
                            {
                                "name": "recipient",
                                "type": "address",
                                "value": "0x74de5d4fcbf63e00296fd95d33236b9794016631"
                            },
                            {
                                "decimalAvailable": true,
                                "name": "amount",
                                "type": "uint256",
                                "value": "3,633,753,646,616,458,592,053"
                            }
                        ],
                        "constructorArguments": "",
                        "name": "transferFrom",
                        "returnParams": [
                            {
                                "name": "",
                                "type": "bool",
                                "value": true
                            }
                        ],
                        "signature": "transferFrom(address,address,uint256)"
                    },
                    "errorInfo": "",
                    "fromAddress": "0x881d40237659c251811cec9c364ef91dc08d300c",
                    "gasUsed": 42152,
                    "id": 1,
                    "methodDecoded": true,
                    "operation": "CALL",
                    "output": "0x0000000000000000000000000000000000000000000000000000000000000001",
                    "revert": false,
                    "revertMessage": "",
                    "selector": "0x23b872dd",
                    "status": true,
                    "value": "0"
                },
                "nodeType": 0
            },
            "10": {
                "invocation": {
                    "address": "0x67b6d479c7bb412c54e03dca8e1bc6740ce6b99c",
                    "callData": "0x00000000000000000000000074de5d4fcbf63e00296fd95d33236b9794016631000000000000000000000000c60c479f3cc66f1654a4113f4949c98ce77a99950000000000000000000000000000000000000000000000c3433687dd9e9acc2d",
                    "decodedMethod": {
                        "callParams": [
                            {
                                "name": "sender",
                                "type": "address",
                                "value": "0x74de5d4fcbf63e00296fd95d33236b9794016631"
                            },
                            {
                                "name": "recipient",
                                "type": "address",
                                "value": "0xc60c479f3cc66f1654a4113f4949c98ce77a9995"
                            },
                            {
                                "decimalAvailable": true,
                                "name": "amount",
                                "type": "uint256",
                                "value": "3,601,958,302,208,564,579,373"
                            }
                        ],
                        "constructorArguments": "",
                        "name": "transferFrom",
                        "returnParams": [
                            {
                                "name": "",
                                "type": "bool",
                                "value": true
                            }
                        ],
                        "signature": "transferFrom(address,address,uint256)"
                    },
                    "errorInfo": "",
                    "fromAddress": "0x11111112542d85b3ef69ae05771c2dccff4faa26",
                    "gasUsed": 16252,
                    "id": 10,
                    "methodDecoded": true,
                    "operation": "CALL",
                    "output": "0x0000000000000000000000000000000000000000000000000000000000000001",
                    "revert": false,
                    "revertMessage": "",
                    "selector": "0x23b872dd",
                    "status": true,
                    "value": "0"
                },
                "nodeType": 0
            },
            "11": {
                "event": {
                    "contract": "0x67b6d479c7bb412c54e03dca8e1bc6740ce6b99c",
                    "decodedLog": {
                        "name": "Transfer",
                        "params": [
                            {
                                "name": "from",
                                "type": "address",
                                "value": "0x74de5d4fcbf63e00296fd95d33236b9794016631"
                            },
                            {
                                "name": "to",
                                "type": "address",
                                "value": "0xc60c479f3cc66f1654a4113f4949c98ce77a9995"
                            },
                            {
                                "decimalAvailable": true,
                                "name": "value",
                                "type": "uint256",
                                "value": "3,601,958,302,208,564,579,373"
                            }
                        ],
                        "signature": "Transfer(address,address,uint256)"
                    },
                    "id": 11,
                    "logData": "0x0000000000000000000000000000000000000000000000c3433687dd9e9acc2d",
                    "logDecoded": true,
                    "operation": "EVENT",
                    "revert": false,
                    "status": true,
                    "topics": [
                        "0xddf252ad1be2c89b69c2b068fc378daa952ba7f163c4a11628f55a4df523b3ef",
                        "0x00000000000000000000000074de5d4fcbf63e00296fd95d33236b9794016631",
                        "0x000000000000000000000000c60c479f3cc66f1654a4113f4949c98ce77a9995"
                    ]
                },
                "nodeType": 1
            },
            "12": {
                "event": {
                    "contract": "0x67b6d479c7bb412c54e03dca8e1bc6740ce6b99c",
                    "decodedLog": {
                        "name": "Approval",
                        "params": [
                            {
                                "name": "owner",
                                "type": "address",
                                "value": "0x74de5d4fcbf63e00296fd95d33236b9794016631"
                            },
                            {
                                "name": "spender",
                                "type": "address",
                                "value": "0x11111112542d85b3ef69ae05771c2dccff4faa26"
                            },
                            {
                                "decimalAvailable": true,
                                "name": "value",
                                "type": "uint256",
                                "value": "115,792,089,237,316,195,423,570,985,008,687,907,853,269,984,665,640,562,753,741,315,121,577,560,191,673"
                            }
                        ],
                        "signature": "Approval(address,address,uint256)"
                    },
                    "id": 12,
                    "logData": "0xfffffffffffffffffffffffffffffffffffffffffffeefbd2e70789ec69d32b9",
                    "logDecoded": true,
                    "operation": "EVENT",
                    "revert": false,
                    "status": true,
                    "topics": [
                        "0x8c5be1e5ebec7d5bd14f71427d1e84f3dd0314c0f7b2291e5b200ac8c7c3b925",
                        "0x00000000000000000000000074de5d4fcbf63e00296fd95d33236b9794016631",
                        "0x00000000000000000000000011111112542d85b3ef69ae05771c2dccff4faa26"
                    ]
                },
                "nodeType": 1
            },
            "13": {
                "invocation": {
                    "address": "0xc60c479f3cc66f1654a4113f4949c98ce77a9995",
                    "callData": "0x",
                    "decodedMethod": {
                        "callParams": [],
                        "constructorArguments": "",
                        "name": "getReserves",
                        "returnParams": [
                            {
                                "name": "_reserve0",
                                "type": "uint112",
                                "value": "2,306,365,459,358,288,111,487,875"
                            },
                            {
                                "name": "_reserve1",
                                "type": "uint112",
                                "value": "707,853,205,134,421,595,881"
                            },
                            {
                                "name": "_blockTimestampLast",
                                "type": "uint32",
                                "value": "1,619,411,595"
                            }
                        ],
                        "signature": "getReserves()"
                    },
                    "errorInfo": "",
                    "fromAddress": "0x11111112542d85b3ef69ae05771c2dccff4faa26",
                    "gasUsed": 2504,
                    "id": 13,
                    "methodDecoded": true,
                    "operation": "STATICCALL",
                    "output": "0x00000000000000000000000000000000000000000001e8645273c672ea584b830000000000000000000000000000000000000000000000265f6fc3b3e6e916e9000000000000000000000000000000000000000000000000000000006086428b",
                    "revert": false,
                    "revertMessage": "",
                    "selector": "0x0902f1ac",
                    "status": true,
                    "value": "0"
                },
                "nodeType": 0
            },
            "14": {
                "invocation": {
                    "address": "0xc60c479f3cc66f1654a4113f4949c98ce77a9995",
                    "callData": "0x00000000000000000000000000000000000000000000000000000000000000000000000000000000000000000000000000000000000000000f459c238cebb4570000000000000000000000000d4a11d5eeaac28ec3f61d100daf4d40471f185200000000000000000000000000000000000000000000000000000000000000800000000000000000000000000000000000000000000000000000000000000000",
                    "decodedMethod": {
                        "callParams": [
                            {
                                "name": "amount0Out",
                                "type": "uint256",
                                "value": "0"
                            },
                            {
                                "name": "amount1Out",
                                "type": "uint256",
                                "value": "1,100,457,360,464,000,087"
                            },
                            {
                                "name": "to",
                                "type": "address",
                                "value": "0x0d4a11d5eeaac28ec3f61d100daf4d40471f1852"
                            },
                            {
                                "name": "data",
                                "type": "bytes",
                                "value": "0x"
                            }
                        ],
                        "constructorArguments": "",
                        "name": "swap",
                        "returnParams": [],
                        "signature": "swap(uint256,uint256,address,bytes)"
                    },
                    "errorInfo": "",
                    "fromAddress": "0x11111112542d85b3ef69ae05771c2dccff4faa26",
                    "gasUsed": 47738,
                    "id": 14,
                    "methodDecoded": true,
                    "operation": "CALL",
                    "output": "",
                    "revert": false,
                    "revertMessage": "",
                    "selector": "0x022c0d9f",
                    "status": true,
                    "value": "0"
                },
                "nodeType": 0
            },
            "15": {
                "invocation": {
                    "address": "0xc02aaa39b223fe8d0a0e5c4f27ead9083c756cc2",
                    "callData": "0x0000000000000000000000000d4a11d5eeaac28ec3f61d100daf4d40471f18520000000000000000000000000000000000000000000000000f459c238cebb457",
                    "decodedMethod": {
                        "callParams": [
                            {
                                "name": "dst",
                                "type": "address",
                                "value": "0x0d4a11d5eeaac28ec3f61d100daf4d40471f1852"
                            },
                            {
                                "decimalAvailable": true,
                                "name": "wad",
                                "type": "uint256",
                                "value": "1,100,457,360,464,000,087"
                            }
                        ],
                        "constructorArguments": "",
                        "name": "transfer",
                        "returnParams": [
                            {
                                "name": "",
                                "type": "bool",
                                "value": true
                            }
                        ],
                        "signature": "transfer(address,uint256)"
                    },
                    "errorInfo": "",
                    "fromAddress": "0xc60c479f3cc66f1654a4113f4949c98ce77a9995",
                    "gasUsed": 12862,
                    "id": 15,
                    "methodDecoded": true,
                    "operation": "CALL",
                    "output": "0x0000000000000000000000000000000000000000000000000000000000000001",
                    "revert": false,
                    "revertMessage": "",
                    "selector": "0xa9059cbb",
                    "status": true,
                    "value": "0"
                },
                "nodeType": 0
            },
            "16": {
                "event": {
                    "contract": "0xc02aaa39b223fe8d0a0e5c4f27ead9083c756cc2",
                    "decodedLog": {
                        "name": "Transfer",
                        "params": [
                            {
                                "name": "src",
                                "type": "address",
                                "value": "0xc60c479f3cc66f1654a4113f4949c98ce77a9995"
                            },
                            {
                                "name": "dst",
                                "type": "address",
                                "value": "0x0d4a11d5eeaac28ec3f61d100daf4d40471f1852"
                            },
                            {
                                "decimalAvailable": true,
                                "name": "wad",
                                "type": "uint256",
                                "value": "1,100,457,360,464,000,087"
                            }
                        ],
                        "signature": "Transfer(address,address,uint256)"
                    },
                    "id": 16,
                    "logData": "0x0000000000000000000000000000000000000000000000000f459c238cebb457",
                    "logDecoded": true,
                    "operation": "EVENT",
                    "revert": false,
                    "status": true,
                    "topics": [
                        "0xddf252ad1be2c89b69c2b068fc378daa952ba7f163c4a11628f55a4df523b3ef",
                        "0x000000000000000000000000c60c479f3cc66f1654a4113f4949c98ce77a9995",
                        "0x0000000000000000000000000d4a11d5eeaac28ec3f61d100daf4d40471f1852"
                    ]
                },
                "nodeType": 1
            },
            "17": {
                "invocation": {
                    "address": "0x67b6d479c7bb412c54e03dca8e1bc6740ce6b99c",
                    "callData": "0x000000000000000000000000c60c479f3cc66f1654a4113f4949c98ce77a9995",
                    "decodedMethod": {
                        "callParams": [
                            {
                                "name": "account",
                                "type": "address",
                                "value": "0xc60c479f3cc66f1654a4113f4949c98ce77a9995"
                            }
                        ],
                        "constructorArguments": "",
                        "name": "balanceOf",
                        "returnParams": [
                            {
                                "decimalAvailable": true,
                                "name": "",
                                "type": "uint256",
                                "value": "2,309,967,417,660,496,676,067,248"
                            }
                        ],
                        "signature": "balanceOf(address)"
                    },
                    "errorInfo": "",
                    "fromAddress": "0xc60c479f3cc66f1654a4113f4949c98ce77a9995",
                    "gasUsed": 519,
                    "id": 17,
                    "methodDecoded": true,
                    "operation": "STATICCALL",
                    "output": "0x00000000000000000000000000000000000000000001e92795aa4e5088f317b0",
                    "revert": false,
                    "revertMessage": "",
                    "selector": "0x70a08231",
                    "status": true,
                    "value": "0"
                },
                "nodeType": 0
            },
            "18": {
                "invocation": {
                    "address": "0xc02aaa39b223fe8d0a0e5c4f27ead9083c756cc2",
                    "callData": "0x000000000000000000000000c60c479f3cc66f1654a4113f4949c98ce77a9995",
                    "decodedMethod": {
                        "callParams": [
                            {
                                "name": "",
                                "type": "address",
                                "value": "0xc60c479f3cc66f1654a4113f4949c98ce77a9995"
                            }
                        ],
                        "constructorArguments": "",
                        "name": "balanceOf",
                        "returnParams": [
                            {
                                "decimalAvailable": true,
                                "name": "",
                                "type": "uint256",
                                "value": "706,752,747,773,957,595,794"
                            }
                        ],
                        "signature": "balanceOf(address)"
                    },
                    "errorInfo": "",
                    "fromAddress": "0xc60c479f3cc66f1654a4113f4949c98ce77a9995",
                    "gasUsed": 534,
                    "id": 18,
                    "methodDecoded": true,
                    "operation": "STATICCALL",
                    "output": "0x000000000000000000000000000000000000000000000026502a279059fd6292",
                    "revert": false,
                    "revertMessage": "",
                    "selector": "0x70a08231",
                    "status": true,
                    "value": "0"
                },
                "nodeType": 0
            },
            "19": {
                "event": {
                    "contract": "0xc60c479f3cc66f1654a4113f4949c98ce77a9995",
                    "decodedLog": {
                        "name": "Sync",
                        "params": [
                            {
                                "name": "reserve0",
                                "type": "uint112",
                                "value": "2,309,967,417,660,496,676,067,248"
                            },
                            {
                                "name": "reserve1",
                                "type": "uint112",
                                "value": "706,752,747,773,957,595,794"
                            }
                        ],
                        "signature": "Sync(uint112,uint112)"
                    },
                    "id": 19,
                    "logData": "0x00000000000000000000000000000000000000000001e92795aa4e5088f317b0000000000000000000000000000000000000000000000026502a279059fd6292",
                    "logDecoded": true,
                    "operation": "EVENT",
                    "revert": false,
                    "status": true,
                    "topics": [
                        "0x1c411e9a96e071241c2f21f7726b17ae89e3cab4c78be50e062b03a9fffbbad1"
                    ]
                },
                "nodeType": 1
            },
            "2": {
                "event": {
                    "contract": "0x67b6d479c7bb412c54e03dca8e1bc6740ce6b99c",
                    "decodedLog": {
                        "name": "Transfer",
                        "params": [
                            {
                                "name": "from",
                                "type": "address",
                                "value": "0x92472d32a8ad5182594f5b0b022aa5571dade0ae"
                            },
                            {
                                "name": "to",
                                "type": "address",
                                "value": "0x74de5d4fcbf63e00296fd95d33236b9794016631"
                            },
                            {
                                "decimalAvailable": true,
                                "name": "value",
                                "type": "uint256",
                                "value": "3,633,753,646,616,458,592,053"
                            }
                        ],
                        "signature": "Transfer(address,address,uint256)"
                    },
                    "id": 2,
                    "logData": "0x0000000000000000000000000000000000000000000000c4fc7649254e547f35",
                    "logDecoded": true,
                    "operation": "EVENT",
                    "revert": false,
                    "status": true,
                    "topics": [
                        "0xddf252ad1be2c89b69c2b068fc378daa952ba7f163c4a11628f55a4df523b3ef",
                        "0x00000000000000000000000092472d32a8ad5182594f5b0b022aa5571dade0ae",
                        "0x00000000000000000000000074de5d4fcbf63e00296fd95d33236b9794016631"
                    ]
                },
                "nodeType": 1
            },
            "20": {
                "event": {
                    "contract": "0xc60c479f3cc66f1654a4113f4949c98ce77a9995",
                    "decodedLog": {
                        "name": "Swap",
                        "params": [
                            {
                                "name": "sender",
                                "type": "address",
                                "value": "0x11111112542d85b3ef69ae05771c2dccff4faa26"
                            },
                            {
                                "name": "to",
                                "type": "address",
                                "value": "0x0d4a11d5eeaac28ec3f61d100daf4d40471f1852"
                            },
                            {
                                "name": "amount0In",
                                "type": "uint256",
                                "value": "3,601,958,302,208,564,579,373"
                            },
                            {
                                "name": "amount1In",
                                "type": "uint256",
                                "value": "0"
                            },
                            {
                                "name": "amount0Out",
                                "type": "uint256",
                                "value": "0"
                            },
                            {
                                "name": "amount1Out",
                                "type": "uint256",
                                "value": "1,100,457,360,464,000,087"
                            }
                        ],
                        "signature": "Swap(address,uint256,uint256,uint256,uint256,address)"
                    },
                    "id": 20,
                    "logData": "0x0000000000000000000000000000000000000000000000c3433687dd9e9acc2d000000000000000000000000000000000000000000000000000000000000000000000000000000000000000000000000000000000000000000000000000000000000000000000000000000000000000000000000000000000f459c238cebb457",
                    "logDecoded": true,
                    "operation": "EVENT",
                    "revert": false,
                    "status": true,
                    "topics": [
                        "0xd78ad95fa46c994b6551d0da85fc275fe613ce37657fb8d5e3d130840159d822",
                        "0x00000000000000000000000011111112542d85b3ef69ae05771c2dccff4faa26",
                        "0x0000000000000000000000000d4a11d5eeaac28ec3f61d100daf4d40471f1852"
                    ]
                },
                "nodeType": 1
            },
            "21": {
                "invocation": {
                    "address": "0x0d4a11d5eeaac28ec3f61d100daf4d40471f1852",
                    "callData": "0x",
                    "decodedMethod": {
                        "callParams": [],
                        "constructorArguments": "",
                        "name": "getReserves",
                        "returnParams": [
                            {
                                "name": "_reserve0",
                                "type": "uint112",
                                "value": "64,659,928,934,303,548,477,809"
                            },
                            {
                                "name": "_reserve1",
                                "type": "uint112",
                                "value": "159,103,253,540,232"
                            },
                            {
                                "name": "_blockTimestampLast",
                                "type": "uint32",
                                "value": "1,619,412,041"
                            }
                        ],
                        "signature": "getReserves()"
                    },
                    "errorInfo": "",
                    "fromAddress": "0x11111112542d85b3ef69ae05771c2dccff4faa26",
                    "gasUsed": 2504,
                    "id": 21,
                    "methodDecoded": true,
                    "operation": "STATICCALL",
                    "output": "0x000000000000000000000000000000000000000000000db138c5fec35d1a9171000000000000000000000000000000000000000000000000000090b41ce8ed880000000000000000000000000000000000000000000000000000000060864449",
                    "revert": false,
                    "revertMessage": "",
                    "selector": "0x0902f1ac",
                    "status": true,
                    "value": "0"
                },
                "nodeType": 0
            },
            "22": {
                "invocation": {
                    "address": "0x0d4a11d5eeaac28ec3f61d100daf4d40471f1852",
                    "callData": "0x000000000000000000000000000000000000000000000000000000000000000000000000000000000000000000000000000000000000000000000000a0e9244700000000000000000000000074de5d4fcbf63e00296fd95d33236b979401663100000000000000000000000000000000000000000000000000000000000000800000000000000000000000000000000000000000000000000000000000000000",
                    "decodedMethod": {
                        "callParams": [
                            {
                                "name": "amount0Out",
                                "type": "uint256",
                                "value": "0"
                            },
                            {
                                "name": "amount1Out",
                                "type": "uint256",
                                "value": "2,699,633,735"
                            },
                            {
                                "name": "to",
                                "type": "address",
                                "value": "0x74de5d4fcbf63e00296fd95d33236b9794016631"
                            },
                            {
                                "name": "data",
                                "type": "bytes",
                                "value": "0x"
                            }
                        ],
                        "constructorArguments": "",
                        "name": "swap",
                        "returnParams": [],
                        "signature": "swap(uint256,uint256,address,bytes)"
                    },
                    "errorInfo": "",
                    "fromAddress": "0x11111112542d85b3ef69ae05771c2dccff4faa26",
                    "gasUsed": 66446,
                    "id": 22,
                    "methodDecoded": true,
                    "operation": "CALL",
                    "output": "",
                    "revert": false,
                    "revertMessage": "",
                    "selector": "0x022c0d9f",
                    "status": true,
                    "value": "0"
                },
                "nodeType": 0
            },
            "23": {
                "invocation": {
                    "address": "0xdac17f958d2ee523a2206206994597c13d831ec7",
                    "callData": "0x00000000000000000000000074de5d4fcbf63e00296fd95d33236b979401663100000000000000000000000000000000000000000000000000000000a0e92447",
                    "decodedMethod": {
                        "callParams": [
                            {
                                "name": "_to",
                                "type": "address",
                                "value": "0x74de5d4fcbf63e00296fd95d33236b9794016631"
                            },
                            {
                                "decimalAvailable": true,
                                "name": "_value",
                                "type": "uint256",
                                "value": "2,699,633,735"
                            }
                        ],
                        "constructorArguments": "",
                        "name": "transfer",
                        "returnParams": [],
                        "signature": "transfer(address,uint256)"
                    },
                    "errorInfo": "",
                    "fromAddress": "0x0d4a11d5eeaac28ec3f61d100daf4d40471f1852",
                    "gasUsed": 41601,
                    "id": 23,
                    "methodDecoded": true,
                    "operation": "CALL",
                    "output": "",
                    "revert": false,
                    "revertMessage": "",
                    "selector": "0xa9059cbb",
                    "status": true,
                    "value": "0"
                },
                "nodeType": 0
            },
            "24": {
                "event": {
                    "contract": "0xdac17f958d2ee523a2206206994597c13d831ec7",
                    "decodedLog": {
                        "name": "Transfer",
                        "params": [
                            {
                                "name": "from",
                                "type": "address",
                                "value": "0x0d4a11d5eeaac28ec3f61d100daf4d40471f1852"
                            },
                            {
                                "name": "to",
                                "type": "address",
                                "value": "0x74de5d4fcbf63e00296fd95d33236b9794016631"
                            },
                            {
                                "decimalAvailable": true,
                                "name": "value",
                                "type": "uint256",
                                "value": "2,699,633,735"
                            }
                        ],
                        "signature": "Transfer(address,address,uint256)"
                    },
                    "id": 24,
                    "logData": "0x00000000000000000000000000000000000000000000000000000000a0e92447",
                    "logDecoded": true,
                    "operation": "EVENT",
                    "revert": false,
                    "status": true,
                    "topics": [
                        "0xddf252ad1be2c89b69c2b068fc378daa952ba7f163c4a11628f55a4df523b3ef",
                        "0x0000000000000000000000000d4a11d5eeaac28ec3f61d100daf4d40471f1852",
                        "0x00000000000000000000000074de5d4fcbf63e00296fd95d33236b9794016631"
                    ]
                },
                "nodeType": 1
            },
            "25": {
                "invocation": {
                    "address": "0xc02aaa39b223fe8d0a0e5c4f27ead9083c756cc2",
                    "callData": "0x0000000000000000000000000d4a11d5eeaac28ec3f61d100daf4d40471f1852",
                    "decodedMethod": {
                        "callParams": [
                            {
                                "name": "",
                                "type": "address",
                                "value": "0x0d4a11d5eeaac28ec3f61d100daf4d40471f1852"
                            }
                        ],
                        "constructorArguments": "",
                        "name": "balanceOf",
                        "returnParams": [
                            {
                                "decimalAvailable": true,
                                "name": "",
                                "type": "uint256",
                                "value": "64,661,029,391,664,012,477,896"
                            }
                        ],
                        "signature": "balanceOf(address)"
                    },
                    "errorInfo": "",
                    "fromAddress": "0x0d4a11d5eeaac28ec3f61d100daf4d40471f1852",
                    "gasUsed": 534,
                    "id": 25,
                    "methodDecoded": true,
                    "operation": "STATICCALL",
                    "output": "0x000000000000000000000000000000000000000000000db1480b9ae6ea0645c8",
                    "revert": false,
                    "revertMessage": "",
                    "selector": "0x70a08231",
                    "status": true,
                    "value": "0"
                },
                "nodeType": 0
            },
            "26": {
                "invocation": {
                    "address": "0xdac17f958d2ee523a2206206994597c13d831ec7",
                    "callData": "0x0000000000000000000000000d4a11d5eeaac28ec3f61d100daf4d40471f1852",
                    "decodedMethod": {
                        "callParams": [
                            {
                                "name": "who",
                                "type": "address",
                                "value": "0x0d4a11d5eeaac28ec3f61d100daf4d40471f1852"
                            }
                        ],
                        "constructorArguments": "",
                        "name": "balanceOf",
                        "returnParams": [
                            {
                                "decimalAvailable": true,
                                "name": "",
                                "type": "uint256",
                                "value": "159,100,553,906,497"
                            }
                        ],
                        "signature": "balanceOf(address)"
                    },
                    "errorInfo": "",
                    "fromAddress": "0x0d4a11d5eeaac28ec3f61d100daf4d40471f1852",
                    "gasUsed": 1031,
                    "id": 26,
                    "methodDecoded": true,
                    "operation": "STATICCALL",
                    "output": "0x000000000000000000000000000000000000000000000000000090b37bffc941",
                    "revert": false,
                    "revertMessage": "",
                    "selector": "0x70a08231",
                    "status": true,
                    "value": "0"
                },
                "nodeType": 0
            },
            "27": {
                "event": {
                    "contract": "0x0d4a11d5eeaac28ec3f61d100daf4d40471f1852",
                    "decodedLog": {
                        "name": "Sync",
                        "params": [
                            {
                                "name": "reserve0",
                                "type": "uint112",
                                "value": "64,661,029,391,664,012,477,896"
                            },
                            {
                                "name": "reserve1",
                                "type": "uint112",
                                "value": "159,100,553,906,497"
                            }
                        ],
                        "signature": "Sync(uint112,uint112)"
                    },
                    "id": 27,
                    "logData": "0x000000000000000000000000000000000000000000000db1480b9ae6ea0645c8000000000000000000000000000000000000000000000000000090b37bffc941",
                    "logDecoded": true,
                    "operation": "EVENT",
                    "revert": false,
                    "status": true,
                    "topics": [
                        "0x1c411e9a96e071241c2f21f7726b17ae89e3cab4c78be50e062b03a9fffbbad1"
                    ]
                },
                "nodeType": 1
            },
            "28": {
                "event": {
                    "contract": "0x0d4a11d5eeaac28ec3f61d100daf4d40471f1852",
                    "decodedLog": {
                        "name": "Swap",
                        "params": [
                            {
                                "name": "sender",
                                "type": "address",
                                "value": "0x11111112542d85b3ef69ae05771c2dccff4faa26"
                            },
                            {
                                "name": "to",
                                "type": "address",
                                "value": "0x74de5d4fcbf63e00296fd95d33236b9794016631"
                            },
                            {
                                "name": "amount0In",
                                "type": "uint256",
                                "value": "1,100,457,360,464,000,087"
                            },
                            {
                                "name": "amount1In",
                                "type": "uint256",
                                "value": "0"
                            },
                            {
                                "name": "amount0Out",
                                "type": "uint256",
                                "value": "0"
                            },
                            {
                                "name": "amount1Out",
                                "type": "uint256",
                                "value": "2,699,633,735"
                            }
                        ],
                        "signature": "Swap(address,uint256,uint256,uint256,uint256,address)"
                    },
                    "id": 28,
                    "logData": "0x0000000000000000000000000000000000000000000000000f459c238cebb4570000000000000000000000000000000000000000000000000000000000000000000000000000000000000000000000000000000000000000000000000000000000000000000000000000000000000000000000000000000000000000a0e92447",
                    "logDecoded": true,
                    "operation": "EVENT",
                    "revert": false,
                    "status": true,
                    "topics": [
                        "0xd78ad95fa46c994b6551d0da85fc275fe613ce37657fb8d5e3d130840159d822",
                        "0x00000000000000000000000011111112542d85b3ef69ae05771c2dccff4faa26",
                        "0x00000000000000000000000074de5d4fcbf63e00296fd95d33236b9794016631"
                    ]
                },
                "nodeType": 1
            },
            "29": {
                "invocation": {
                    "address": "0x67b6d479c7bb412c54e03dca8e1bc6740ce6b99c",
                    "callData": "0x00000000000000000000000074de5d4fcbf63e00296fd95d33236b9794016631",
                    "decodedMethod": {
                        "callParams": [
                            {
                                "name": "account",
                                "type": "address",
                                "value": "0x74de5d4fcbf63e00296fd95d33236b9794016631"
                            }
                        ],
                        "constructorArguments": "",
                        "name": "balanceOf",
                        "returnParams": [
                            {
                                "decimalAvailable": true,
                                "name": "",
                                "type": "uint256",
                                "value": "0"
                            }
                        ],
                        "signature": "balanceOf(address)"
                    },
                    "errorInfo": "",
                    "fromAddress": "0x74de5d4fcbf63e00296fd95d33236b9794016631",
                    "gasUsed": 519,
                    "id": 29,
                    "methodDecoded": true,
                    "operation": "STATICCALL",
                    "output": "0x0000000000000000000000000000000000000000000000000000000000000000",
                    "revert": false,
                    "revertMessage": "",
                    "selector": "0x70a08231",
                    "status": true,
                    "value": "0"
                },
                "nodeType": 0
            },
            "3": {
                "event": {
                    "contract": "0x67b6d479c7bb412c54e03dca8e1bc6740ce6b99c",
                    "decodedLog": {
                        "name": "Approval",
                        "params": [
                            {
                                "name": "owner",
                                "type": "address",
                                "value": "0x92472d32a8ad5182594f5b0b022aa5571dade0ae"
                            },
                            {
                                "name": "spender",
                                "type": "address",
                                "value": "0x881d40237659c251811cec9c364ef91dc08d300c"
                            },
                            {
                                "decimalAvailable": true,
                                "name": "value",
                                "type": "uint256",
                                "value": "90,061,758,793,763,293,541,407,947"
                            }
                        ],
                        "signature": "Approval(address,address,uint256)"
                    },
                    "id": 3,
                    "logData": "0x0000000000000000000000000000000000000000004a7f51ba236f24d37f9ccb",
                    "logDecoded": true,
                    "operation": "EVENT",
                    "revert": false,
                    "status": true,
                    "topics": [
                        "0x8c5be1e5ebec7d5bd14f71427d1e84f3dd0314c0f7b2291e5b200ac8c7c3b925",
                        "0x00000000000000000000000092472d32a8ad5182594f5b0b022aa5571dade0ae",
                        "0x000000000000000000000000881d40237659c251811cec9c364ef91dc08d300c"
                    ]
                },
                "nodeType": 1
            },
            "30": {
                "invocation": {
                    "address": "0xdac17f958d2ee523a2206206994597c13d831ec7",
                    "callData": "0x00000000000000000000000074de5d4fcbf63e00296fd95d33236b9794016631",
                    "decodedMethod": {
                        "callParams": [
                            {
                                "name": "who",
                                "type": "address",
                                "value": "0x74de5d4fcbf63e00296fd95d33236b9794016631"
                            }
                        ],
                        "constructorArguments": "",
                        "name": "balanceOf",
                        "returnParams": [
                            {
                                "decimalAvailable": true,
                                "name": "",
                                "type": "uint256",
                                "value": "2,699,633,735"
                            }
                        ],
                        "signature": "balanceOf(address)"
                    },
                    "errorInfo": "",
                    "fromAddress": "0x74de5d4fcbf63e00296fd95d33236b9794016631",
                    "gasUsed": 1031,
                    "id": 30,
                    "methodDecoded": true,
                    "operation": "STATICCALL",
                    "output": "0x00000000000000000000000000000000000000000000000000000000a0e92447",
                    "revert": false,
                    "revertMessage": "",
                    "selector": "0x70a08231",
                    "status": true,
                    "value": "0"
                },
                "nodeType": 0
            },
            "31": {
                "invocation": {
                    "address": "0xdac17f958d2ee523a2206206994597c13d831ec7",
                    "callData": "0x00000000000000000000000092472d32a8ad5182594f5b0b022aa5571dade0ae00000000000000000000000000000000000000000000000000000000a0e92447",
                    "decodedMethod": {
                        "callParams": [
                            {
                                "name": "_to",
                                "type": "address",
                                "value": "0x92472d32a8ad5182594f5b0b022aa5571dade0ae"
                            },
                            {
                                "decimalAvailable": true,
                                "name": "_value",
                                "type": "uint256",
                                "value": "2,699,633,735"
                            }
                        ],
                        "constructorArguments": "",
                        "name": "transfer",
                        "returnParams": [],
                        "signature": "transfer(address,uint256)"
                    },
                    "errorInfo": "",
                    "fromAddress": "0x74de5d4fcbf63e00296fd95d33236b9794016631",
                    "gasUsed": 28801,
                    "id": 31,
                    "methodDecoded": true,
                    "operation": "CALL",
                    "output": "",
                    "revert": false,
                    "revertMessage": "",
                    "selector": "0xa9059cbb",
                    "status": true,
                    "value": "0"
                },
                "nodeType": 0
            },
            "32": {
                "event": {
                    "contract": "0xdac17f958d2ee523a2206206994597c13d831ec7",
                    "decodedLog": {
                        "name": "Transfer",
                        "params": [
                            {
                                "name": "from",
                                "type": "address",
                                "value": "0x74de5d4fcbf63e00296fd95d33236b9794016631"
                            },
                            {
                                "name": "to",
                                "type": "address",
                                "value": "0x92472d32a8ad5182594f5b0b022aa5571dade0ae"
                            },
                            {
                                "decimalAvailable": true,
                                "name": "value",
                                "type": "uint256",
                                "value": "2,699,633,735"
                            }
                        ],
                        "signature": "Transfer(address,address,uint256)"
                    },
                    "id": 32,
                    "logData": "0x00000000000000000000000000000000000000000000000000000000a0e92447",
                    "logDecoded": true,
                    "operation": "EVENT",
                    "revert": false,
                    "status": true,
                    "topics": [
                        "0xddf252ad1be2c89b69c2b068fc378daa952ba7f163c4a11628f55a4df523b3ef",
                        "0x00000000000000000000000074de5d4fcbf63e00296fd95d33236b9794016631",
                        "0x00000000000000000000000092472d32a8ad5182594f5b0b022aa5571dade0ae"
                    ]
                },
                "nodeType": 1
            },
            "33": {
                "event": {
                    "contract": "0x881d40237659c251811cec9c364ef91dc08d300c",
                    "decodedLog": {
                        "name": "Swap",
                        "params": [
                            {
                                "name": "aggregatorId",
                                "type": "string",
                                "value": "0x52b2a8c72019cec70fe7744816057066b2cdc539fd8cffc80a6d5fb10b6410a1"
                            },
                            {
                                "name": "sender",
                                "type": "address",
                                "value": "0x92472d32a8ad5182594f5b0b022aa5571dade0ae"
                            }
                        ],
                        "signature": "Swap(string,address)"
                    },
                    "id": 33,
                    "logData": "0x",
                    "logDecoded": true,
                    "operation": "EVENT",
                    "revert": false,
                    "status": true,
                    "topics": [
                        "0xbeee1e6e7fe307ddcf84b0a16137a4430ad5e2480fc4f4a8e250ab56ccd7630d",
                        "0x52b2a8c72019cec70fe7744816057066b2cdc539fd8cffc80a6d5fb10b6410a1",
                        "0x00000000000000000000000092472d32a8ad5182594f5b0b022aa5571dade0ae"
                    ]
                },
                "nodeType": 1
            },
            "4": {
                "invocation": {
                    "address": "0x74de5d4fcbf63e00296fd95d33236b9794016631",
                    "callData": "0x000000000000000000000000d2742961d645218fbe0b50227c9b074d4fec493700000000000000000000000000000000000000000000000000000000000000400000000000000000000000000000000000000000000000000000000000000224242fb09f00000000000000000000000092472d32a8ad5182594f5b0b022aa5571dade0ae00000000000000000000000067b6d479c7bb412c54e03dca8e1bc6740ce6b99c000000000000000000000000dac17f958d2ee523a2206206994597c13d831ec70000000000000000000000000000000000000000000000c3433687dd9e9acc2d000000000000000000000000000000000000000000000000000000009dbf1c130000000000000000000000000000000000000000000000000000000000000100000000000000000000000000000000000000000000000001b93fc147afb9b30800000000000000000000000011ededebf63bef0ea2d2d071bdf88f71543ec6fb00000000000000000000000000000000000000000000000000000000000000e42e95b6c800000000000000000000000067b6d479c7bb412c54e03dca8e1bc6740ce6b99c0000000000000000000000000000000000000000000000c3433687dd9e9acc2d000000000000000000000000000000000000000000000000000000009dbf1c130000000000000000000000000000000000000000000000000000000000000080000000000000000000000000000000000000000000000000000000000000000200000000000000003b6d0340c60c479f3cc66f1654a4113f4949c98ce77a999500000000000000003b6d03400d4a11d5eeaac28ec3f61d100daf4d40471f18520000000000000000000000000000000000000000000000000000000000000000000000000000000000000000000000000000000000000000",
                    "decodedMethod": {
                        "callParams": [
                            {
                                "name": "adapter",
                                "type": "address",
                                "value": "0xd2742961d645218fbe0b50227c9b074d4fec4937"
                            },
                            {
                                "name": "data",
                                "type": "bytes",
                                "value": "0x242fb09f00000000000000000000000092472d32a8ad5182594f5b0b022aa5571dade0ae00000000000000000000000067b6d479c7bb412c54e03dca8e1bc6740ce6b99c000000000000000000000000dac17f958d2ee523a2206206994597c13d831ec70000000000000000000000000000000000000000000000c3433687dd9e9acc2d000000000000000000000000000000000000000000000000000000009dbf1c130000000000000000000000000000000000000000000000000000000000000100000000000000000000000000000000000000000000000001b93fc147afb9b30800000000000000000000000011ededebf63bef0ea2d2d071bdf88f71543ec6fb00000000000000000000000000000000000000000000000000000000000000e42e95b6c800000000000000000000000067b6d479c7bb412c54e03dca8e1bc6740ce6b99c0000000000000000000000000000000000000000000000c3433687dd9e9acc2d000000000000000000000000000000000000000000000000000000009dbf1c130000000000000000000000000000000000000000000000000000000000000080000000000000000000000000000000000000000000000000000000000000000200000000000000003b6d0340c60c479f3cc66f1654a4113f4949c98ce77a999500000000000000003b6d03400d4a11d5eeaac28ec3f61d100daf4d40471f185200000000000000000000000000000000000000000000000000000000"
                            }
                        ],
                        "constructorArguments": "",
                        "name": "swap",
                        "returnParams": [],
                        "signature": "swap(address,bytes)"
                    },
                    "errorInfo": "",
                    "fromAddress": "0x881d40237659c251811cec9c364ef91dc08d300c",
                    "gasUsed": 200649,
                    "id": 4,
                    "methodDecoded": true,
                    "operation": "CALL",
                    "output": "",
                    "revert": false,
                    "revertMessage": "",
                    "selector": "0xe3547335",
                    "status": true,
                    "value": "0"
                },
                "nodeType": 0
            },
            "5": {
                "invocation": {
                    "address": "0xd2742961d645218fbe0b50227c9b074d4fec4937",
                    "callData": "0x00000000000000000000000092472d32a8ad5182594f5b0b022aa5571dade0ae00000000000000000000000067b6d479c7bb412c54e03dca8e1bc6740ce6b99c000000000000000000000000dac17f958d2ee523a2206206994597c13d831ec70000000000000000000000000000000000000000000000c3433687dd9e9acc2d000000000000000000000000000000000000000000000000000000009dbf1c130000000000000000000000000000000000000000000000000000000000000100000000000000000000000000000000000000000000000001b93fc147afb9b30800000000000000000000000011ededebf63bef0ea2d2d071bdf88f71543ec6fb00000000000000000000000000000000000000000000000000000000000000e42e95b6c800000000000000000000000067b6d479c7bb412c54e03dca8e1bc6740ce6b99c0000000000000000000000000000000000000000000000c3433687dd9e9acc2d000000000000000000000000000000000000000000000000000000009dbf1c130000000000000000000000000000000000000000000000000000000000000080000000000000000000000000000000000000000000000000000000000000000200000000000000003b6d0340c60c479f3cc66f1654a4113f4949c98ce77a999500000000000000003b6d03400d4a11d5eeaac28ec3f61d100daf4d40471f185200000000000000000000000000000000000000000000000000000000",
                    "decodedMethod": null,
                    "errorInfo": "",
                    "fromAddress": "0x74de5d4fcbf63e00296fd95d33236b9794016631",
                    "gasUsed": 195525,
                    "id": 5,
                    "methodDecoded": false,
                    "operation": "DELEGATECALL",
                    "output": "",
                    "revert": false,
                    "revertMessage": "",
                    "selector": "0x242fb09f",
                    "status": true,
                    "value": "0"
                },
                "nodeType": 0
            },
            "6": {
                "invocation": {
                    "address": "0x67b6d479c7bb412c54e03dca8e1bc6740ce6b99c",
                    "callData": "0x00000000000000000000000011ededebf63bef0ea2d2d071bdf88f71543ec6fb000000000000000000000000000000000000000000000001b93fc147afb9b308",
                    "decodedMethod": {
                        "callParams": [
                            {
                                "name": "recipient",
                                "type": "address",
                                "value": "0x11ededebf63bef0ea2d2d071bdf88f71543ec6fb"
                            },
                            {
                                "decimalAvailable": true,
                                "name": "amount",
                                "type": "uint256",
                                "value": "31,795,344,407,894,012,680"
                            }
                        ],
                        "constructorArguments": "",
                        "name": "transfer",
                        "returnParams": [
                            {
                                "name": "",
                                "type": "bool",
                                "value": true
                            }
                        ],
                        "signature": "transfer(address,uint256)"
                    },
                    "errorInfo": "",
                    "fromAddress": "0x74de5d4fcbf63e00296fd95d33236b9794016631",
                    "gasUsed": 10690,
                    "id": 6,
                    "methodDecoded": true,
                    "operation": "CALL",
                    "output": "0x0000000000000000000000000000000000000000000000000000000000000001",
                    "revert": false,
                    "revertMessage": "",
                    "selector": "0xa9059cbb",
                    "status": true,
                    "value": "0"
                },
                "nodeType": 0
            },
            "7": {
                "event": {
                    "contract": "0x67b6d479c7bb412c54e03dca8e1bc6740ce6b99c",
                    "decodedLog": {
                        "name": "Transfer",
                        "params": [
                            {
                                "name": "from",
                                "type": "address",
                                "value": "0x74de5d4fcbf63e00296fd95d33236b9794016631"
                            },
                            {
                                "name": "to",
                                "type": "address",
                                "value": "0x11ededebf63bef0ea2d2d071bdf88f71543ec6fb"
                            },
                            {
                                "decimalAvailable": true,
                                "name": "value",
                                "type": "uint256",
                                "value": "31,795,344,407,894,012,680"
                            }
                        ],
                        "signature": "Transfer(address,address,uint256)"
                    },
                    "id": 7,
                    "logData": "0x000000000000000000000000000000000000000000000001b93fc147afb9b308",
                    "logDecoded": true,
                    "operation": "EVENT",
                    "revert": false,
                    "status": true,
                    "topics": [
                        "0xddf252ad1be2c89b69c2b068fc378daa952ba7f163c4a11628f55a4df523b3ef",
                        "0x00000000000000000000000074de5d4fcbf63e00296fd95d33236b9794016631",
                        "0x00000000000000000000000011ededebf63bef0ea2d2d071bdf88f71543ec6fb"
                    ]
                },
                "nodeType": 1
            },
            "8": {
                "invocation": {
                    "address": "0x67b6d479c7bb412c54e03dca8e1bc6740ce6b99c",
                    "callData": "0x00000000000000000000000074de5d4fcbf63e00296fd95d33236b979401663100000000000000000000000011111112542d85b3ef69ae05771c2dccff4faa26",
                    "decodedMethod": {
                        "callParams": [
                            {
                                "name": "owner",
                                "type": "address",
                                "value": "0x74de5d4fcbf63e00296fd95d33236b9794016631"
                            },
                            {
                                "name": "spender",
                                "type": "address",
                                "value": "0x11111112542d85b3ef69ae05771c2dccff4faa26"
                            }
                        ],
                        "constructorArguments": "",
                        "name": "allowance",
                        "returnParams": [
                            {
                                "decimalAvailable": true,
                                "name": "",
                                "type": "uint256",
                                "value": "115,792,089,237,316,195,423,570,985,008,687,907,853,269,984,665,640,562,757,343,273,423,786,124,771,046"
                            }
                        ],
                        "signature": "allowance(address,address)"
                    },
                    "errorInfo": "",
                    "fromAddress": "0x74de5d4fcbf63e00296fd95d33236b9794016631",
                    "gasUsed": 2687,
                    "id": 8,
                    "methodDecoded": true,
                    "operation": "STATICCALL",
                    "output": "0xfffffffffffffffffffffffffffffffffffffffffffef08071a7007c6537fee6",
                    "revert": false,
                    "revertMessage": "",
                    "selector": "0xdd62ed3e",
                    "status": true,
                    "value": "0"
                },
                "nodeType": 0
            },
            "9": {
                "invocation": {
                    "address": "0x11111112542d85b3ef69ae05771c2dccff4faa26",
                    "callData": "0x00000000000000000000000067b6d479c7bb412c54e03dca8e1bc6740ce6b99c0000000000000000000000000000000000000000000000c3433687dd9e9acc2d000000000000000000000000000000000000000000000000000000009dbf1c130000000000000000000000000000000000000000000000000000000000000080000000000000000000000000000000000000000000000000000000000000000200000000000000003b6d0340c60c479f3cc66f1654a4113f4949c98ce77a999500000000000000003b6d03400d4a11d5eeaac28ec3f61d100daf4d40471f1852",
                    "decodedMethod": {
                        "callParams": [
                            {
                                "name": "srcToken",
                                "type": "address",
                                "value": "0x67b6d479c7bb412c54e03dca8e1bc6740ce6b99c"
                            },
                            {
                                "name": "amount",
                                "type": "uint256",
                                "value": "3,601,958,302,208,564,579,373"
                            },
                            {
                                "name": "minReturn",
                                "type": "uint256",
                                "value": "2,646,547,475"
                            },
                            {
                                "name": "",
                                "type": "bytes32[]",
                                "value": [
                                    "0x00000000000000003b6d0340c60c479f3cc66f1654a4113f4949c98ce77a9995",
                                    "0x00000000000000003b6d03400d4a11d5eeaac28ec3f61d100daf4d40471f1852"
                                ]
                            }
                        ],
                        "constructorArguments": "",
                        "name": "unoswap",
                        "returnParams": [
                            {
                                "name": "returnAmount",
                                "type": "uint256",
                                "value": "2,699,633,735"
                            }
                        ],
                        "signature": "unoswap(address,uint256,uint256,bytes32[])"
                    },
                    "errorInfo": "",
                    "fromAddress": "0x74de5d4fcbf63e00296fd95d33236b9794016631",
                    "gasUsed": 142762,
                    "id": 9,
                    "methodDecoded": true,
                    "operation": "CALL",
                    "output": "0x00000000000000000000000000000000000000000000000000000000a0e92447",
                    "revert": false,
                    "revertMessage": "",
                    "selector": "0x2e95b6c8",
                    "status": true,
                    "value": "0"
                },
                "nodeType": 0
            }
        },
        "gasFlame": [
            {
                "children": [
                    {
                        "children": [
                            {
                                "children": [],
                                "depth": 0,
                                "name": "Initial Gas",
                                "value": 26580
                            },
                            {
                                "children": [
                                    {
                                        "children": [],
                                        "depth": 1,
                                        "name": "transferFrom",
                                        "value": 42152
                                    },
                                    {
                                        "children": [
                                            {
                                                "children": [
                                                    {
                                                        "children": [],
                                                        "depth": 3,
                                                        "name": "transfer",
                                                        "value": 10690
                                                    },
                                                    {
                                                        "children": [],
                                                        "depth": 3,
                                                        "name": "allowance",
                                                        "value": 2687
                                                    },
                                                    {
                                                        "children": [
                                                            {
                                                                "children": [],
                                                                "depth": 4,
                                                                "name": "transferFrom",
                                                                "value": 16252
                                                            },
                                                            {
                                                                "children": [],
                                                                "depth": 4,
                                                                "name": "getReserves",
                                                                "value": 2504
                                                            },
                                                            {
                                                                "children": [
                                                                    {
                                                                        "children": [],
                                                                        "depth": 5,
                                                                        "name": "transfer",
                                                                        "value": 12862
                                                                    },
                                                                    {
                                                                        "children": [],
                                                                        "depth": 5,
                                                                        "name": "balanceOf",
                                                                        "value": 519
                                                                    },
                                                                    {
                                                                        "children": [],
                                                                        "depth": 5,
                                                                        "name": "balanceOf",
                                                                        "value": 534
                                                                    }
                                                                ],
                                                                "depth": 4,
                                                                "name": "swap",
                                                                "value": 47738
                                                            },
                                                            {
                                                                "children": [],
                                                                "depth": 4,
                                                                "name": "getReserves",
                                                                "value": 2504
                                                            },
                                                            {
                                                                "children": [
                                                                    {
                                                                        "children": [],
                                                                        "depth": 5,
                                                                        "name": "transfer",
                                                                        "value": 41601
                                                                    },
                                                                    {
                                                                        "children": [],
                                                                        "depth": 5,
                                                                        "name": "balanceOf",
                                                                        "value": 534
                                                                    },
                                                                    {
                                                                        "children": [],
                                                                        "depth": 5,
                                                                        "name": "balanceOf",
                                                                        "value": 1031
                                                                    }
                                                                ],
                                                                "depth": 4,
                                                                "name": "swap",
                                                                "value": 66446
                                                            }
                                                        ],
                                                        "depth": 3,
                                                        "name": "unoswap",
                                                        "value": 142762
                                                    },
                                                    {
                                                        "children": [],
                                                        "depth": 3,
                                                        "name": "balanceOf",
                                                        "value": 519
                                                    },
                                                    {
                                                        "children": [],
                                                        "depth": 3,
                                                        "name": "balanceOf",
                                                        "value": 1031
                                                    },
                                                    {
                                                        "children": [],
                                                        "depth": 3,
                                                        "name": "transfer",
                                                        "value": 28801
                                                    }
                                                ],
                                                "depth": 2,
                                                "name": "0x242fb09f",
                                                "value": 195525
                                            }
                                        ],
                                        "depth": 1,
                                        "name": "swap",
                                        "value": 200649
                                    }
                                ],
                                "depth": 0,
                                "name": "Executed Gas",
                                "value": 265838
                            }
                        ],
                        "depth": -1,
                        "name": "Actual Gas Used",
                        "value": 229218
                    },
                    {
                        "children": [],
                        "depth": -1,
                        "name": "Refunded Gas",
                        "value": 63200
                    }
                ],
                "depth": -2,
                "name": "Total Gas",
                "value": 292418
            }
        ],
        "isConfirmed": true,
        "mainTrace": [
            {
                "children": [
                    {
                        "children": [
                            {
                                "children": [
                                    {
                                        "children": [],
                                        "depth": 2,
                                        "id": 2,
                                        "order": 2
                                    },
                                    {
                                        "children": [],
                                        "depth": 2,
                                        "id": 3,
                                        "order": 3
                                    }
                                ],
                                "depth": 1,
                                "id": 1,
                                "order": 1
                            },
                            {
                                "children": [
                                    {
                                        "children": [
                                            {
                                                "children": [
                                                    {
                                                        "children": [],
                                                        "depth": 4,
                                                        "id": 7,
                                                        "order": 7
                                                    }
                                                ],
                                                "depth": 3,
                                                "id": 6,
                                                "order": 6
                                            },
                                            {
                                                "children": [],
                                                "depth": 3,
                                                "id": 8,
                                                "order": 8
                                            },
                                            {
                                                "children": [
                                                    {
                                                        "children": [
                                                            {
                                                                "children": [],
                                                                "depth": 5,
                                                                "id": 11,
                                                                "order": 11
                                                            },
                                                            {
                                                                "children": [],
                                                                "depth": 5,
                                                                "id": 12,
                                                                "order": 12
                                                            }
                                                        ],
                                                        "depth": 4,
                                                        "id": 10,
                                                        "order": 10
                                                    },
                                                    {
                                                        "children": [],
                                                        "depth": 4,
                                                        "id": 13,
                                                        "order": 13
                                                    },
                                                    {
                                                        "children": [
                                                            {
                                                                "children": [
                                                                    {
                                                                        "children": [],
                                                                        "depth": 6,
                                                                        "id": 16,
                                                                        "order": 16
                                                                    }
                                                                ],
                                                                "depth": 5,
                                                                "id": 15,
                                                                "order": 15
                                                            },
                                                            {
                                                                "children": [],
                                                                "depth": 5,
                                                                "id": 17,
                                                                "order": 17
                                                            },
                                                            {
                                                                "children": [],
                                                                "depth": 5,
                                                                "id": 18,
                                                                "order": 18
                                                            },
                                                            {
                                                                "children": [],
                                                                "depth": 5,
                                                                "id": 19,
                                                                "order": 19
                                                            },
                                                            {
                                                                "children": [],
                                                                "depth": 5,
                                                                "id": 20,
                                                                "order": 20
                                                            }
                                                        ],
                                                        "depth": 4,
                                                        "id": 14,
                                                        "order": 14
                                                    },
                                                    {
                                                        "children": [],
                                                        "depth": 4,
                                                        "id": 21,
                                                        "order": 21
                                                    },
                                                    {
                                                        "children": [
                                                            {
                                                                "children": [
                                                                    {
                                                                        "children": [],
                                                                        "depth": 6,
                                                                        "id": 24,
                                                                        "order": 24
                                                                    }
                                                                ],
                                                                "depth": 5,
                                                                "id": 23,
                                                                "order": 23
                                                            },
                                                            {
                                                                "children": [],
                                                                "depth": 5,
                                                                "id": 25,
                                                                "order": 25
                                                            },
                                                            {
                                                                "children": [],
                                                                "depth": 5,
                                                                "id": 26,
                                                                "order": 26
                                                            },
                                                            {
                                                                "children": [],
                                                                "depth": 5,
                                                                "id": 27,
                                                                "order": 27
                                                            },
                                                            {
                                                                "children": [],
                                                                "depth": 5,
                                                                "id": 28,
                                                                "order": 28
                                                            }
                                                        ],
                                                        "depth": 4,
                                                        "id": 22,
                                                        "order": 22
                                                    }
                                                ],
                                                "depth": 3,
                                                "id": 9,
                                                "order": 9
                                            },
                                            {
                                                "children": [],
                                                "depth": 3,
                                                "id": 29,
                                                "order": 29
                                            },
                                            {
                                                "children": [],
                                                "depth": 3,
                                                "id": 30,
                                                "order": 30
                                            },
                                            {
                                                "children": [
                                                    {
                                                        "children": [],
                                                        "depth": 4,
                                                        "id": 32,
                                                        "order": 32
                                                    }
                                                ],
                                                "depth": 3,
                                                "id": 31,
                                                "order": 31
                                            }
                                        ],
                                        "depth": 2,
                                        "id": 5,
                                        "order": 5
                                    }
                                ],
                                "depth": 1,
                                "id": 4,
                                "order": 4
                            },
                            {
                                "children": [],
                                "depth": 1,
                                "id": 33,
                                "order": 33
                            }
                        ],
                        "depth": 0,
                        "id": 0,
                        "order": 0
                    }
                ],
                "depth": -1,
                "id": -1,
                "order": -1
            }
        ],
        "mainTraceNodeCount": 34,
        "parentIdMap": {
            "0": -1,
            "1": 0,
            "10": 9,
            "11": 10,
            "12": 10,
            "13": 9,
            "14": 9,
            "15": 14,
            "16": 15,
            "17": 14,
            "18": 14,
            "19": 14,
            "2": 1,
            "20": 14,
            "21": 9,
            "22": 9,
            "23": 22,
            "24": 23,
            "25": 22,
            "26": 22,
            "27": 22,
            "28": 22,
            "29": 5,
            "3": 1,
            "30": 5,
            "31": 5,
            "32": 31,
            "33": 0,
            "4": 0,
            "5": 4,
            "6": 5,
            "7": 6,
            "8": 5,
            "9": 5
        },
        "tidyTrace": [
            {
                "children": [
                    {
                        "children": [
                            {
                                "children": [
                                    {
                                        "children": [],
                                        "depth": 2,
                                        "id": 2,
                                        "order": 2
                                    },
                                    {
                                        "children": [],
                                        "depth": 2,
                                        "id": 3,
                                        "order": 3
                                    }
                                ],
                                "depth": 1,
                                "id": 1,
                                "order": 1
                            },
                            {
                                "children": [
                                    {
                                        "children": [
                                            {
                                                "children": [
                                                    {
                                                        "children": [],
                                                        "depth": 4,
                                                        "id": 7,
                                                        "order": 7
                                                    }
                                                ],
                                                "depth": 3,
                                                "id": 6,
                                                "order": 6
                                            },
                                            {
                                                "children": [
                                                    {
                                                        "children": [
                                                            {
                                                                "children": [],
                                                                "depth": 5,
                                                                "id": 11,
                                                                "order": 11
                                                            },
                                                            {
                                                                "children": [],
                                                                "depth": 5,
                                                                "id": 12,
                                                                "order": 12
                                                            }
                                                        ],
                                                        "depth": 4,
                                                        "id": 10,
                                                        "order": 10
                                                    },
                                                    {
                                                        "children": [
                                                            {
                                                                "children": [
                                                                    {
                                                                        "children": [],
                                                                        "depth": 6,
                                                                        "id": 16,
                                                                        "order": 16
                                                                    }
                                                                ],
                                                                "depth": 5,
                                                                "id": 15,
                                                                "order": 15
                                                            },
                                                            {
                                                                "children": [],
                                                                "depth": 5,
                                                                "id": 19,
                                                                "order": 19
                                                            },
                                                            {
                                                                "children": [],
                                                                "depth": 5,
                                                                "id": 20,
                                                                "order": 20
                                                            }
                                                        ],
                                                        "depth": 4,
                                                        "id": 14,
                                                        "order": 14
                                                    },
                                                    {
                                                        "children": [
                                                            {
                                                                "children": [
                                                                    {
                                                                        "children": [],
                                                                        "depth": 6,
                                                                        "id": 24,
                                                                        "order": 24
                                                                    }
                                                                ],
                                                                "depth": 5,
                                                                "id": 23,
                                                                "order": 23
                                                            },
                                                            {
                                                                "children": [],
                                                                "depth": 5,
                                                                "id": 27,
                                                                "order": 27
                                                            },
                                                            {
                                                                "children": [],
                                                                "depth": 5,
                                                                "id": 28,
                                                                "order": 28
                                                            }
                                                        ],
                                                        "depth": 4,
                                                        "id": 22,
                                                        "order": 22
                                                    }
                                                ],
                                                "depth": 3,
                                                "id": 9,
                                                "order": 9
                                            },
                                            {
                                                "children": [
                                                    {
                                                        "children": [],
                                                        "depth": 4,
                                                        "id": 32,
                                                        "order": 32
                                                    }
                                                ],
                                                "depth": 3,
                                                "id": 31,
                                                "order": 31
                                            }
                                        ],
                                        "depth": 2,
                                        "id": 5,
                                        "order": 5
                                    }
                                ],
                                "depth": 1,
                                "id": 4,
                                "order": 4
                            },
                            {
                                "children": [],
                                "depth": 1,
                                "id": 33,
                                "order": 33
                            }
                        ],
                        "depth": 0,
                        "id": 0,
                        "order": 0
                    }
                ],
                "depth": -1,
                "id": -1,
                "order": -1
            }
        ],
        "tidyTraceNodeCount": 25
    },
    "state_change": {
        "stateChanges": [
            {
                "address": "0x0d4a11d5eeaac28ec3f61d100daf4d40471f1852",
                "erc": "ERC-20",
                "slots": [
                    {
                        "current": "0x60864449000000000000000090b37bffc941000000000db1480b9ae6ea0645c8",
                        "key": "0x0000000000000000000000000000000000000000000000000000000000000008",
                        "prev": "0x60864449000000000000000090b41ce8ed88000000000db138c5fec35d1a9171"
                    }
                ],
                "storageVariables": [
                    {
                        "name": "reserve0",
                        "type": "uint112",
                        "value": {
                            "current": "64661029391664012477896",
                            "prev": "64659928934303548477809",
                            "typeTag": 1
                        }
                    },
                    {
                        "name": "reserve1",
                        "type": "uint112",
                        "value": {
                            "current": "159100553906497",
                            "prev": "159103253540232",
                            "typeTag": 1
                        }
                    },
                    {
                        "name": "blockTimestampLast",
                        "type": "uint32",
                        "value": {
                            "current": "1619412041",
                            "prev": "1619412041",
                            "typeTag": 1
                        }
                    }
                ]
            },
            {
                "address": "0x67b6d479c7bb412c54e03dca8e1bc6740ce6b99c",
                "erc": "ERC-20",
                "slots": [
                    {
                        "current": "0x0000000000000000000000000000000000000000000000000000000000000000",
                        "key": "0x47e919b67c4c1d728a42e72c3a69694e6fe396ea2ffc4f5bbb03a50280d03a7b",
                        "prev": "0x0000000000000000000000000000000000000000000000c4fc7649254e547f35"
                    },
                    {
                        "current": "0x0000000000000000000000000000000000000000004a7f51ba236f24d37f9ccb",
                        "key": "0xade8f31298b9ccf76a751ab79152297c1107ccf7117db7ac260860d0d343a9e3",
                        "prev": "0x0000000000000000000000000000000000000000004a8016b699b84a21d41c00"
                    },
                    {
                        "current": "0x00000000000000000000000000000000000000000000046136e8b5f9bc24fab1",
                        "key": "0x474473a1a6db0ebd6ab4ed19396fc8d9341e391abb443c14850b87beefd3d2e1",
                        "prev": "0x00000000000000000000000000000000000000000000045f7da8f4b20c6b47a9"
                    },
                    {
                        "current": "0x00000000000000000000000000000000000000000001e92795aa4e5088f317b0",
                        "key": "0xb36f19f25470b80c4317e4415992b90048db2a0f08f6f1744cbbe6a825755468",
                        "prev": "0x00000000000000000000000000000000000000000001e8645273c672ea584b83"
                    },
                    {
                        "current": "0xfffffffffffffffffffffffffffffffffffffffffffeefbd2e70789ec69d32b9",
                        "key": "0x9e68c15b64b0dfce0b56e715189f0def57872d7c12245b58cb1fb33050b6f4be",
                        "prev": "0xfffffffffffffffffffffffffffffffffffffffffffef08071a7007c6537fee6"
                    }
                ],
                "storageVariables": [
                    {
                        "name": "_allowances",
                        "type": "mapping(address => mapping(address => uint256))",
                        "value": {
                            "pairs": [
                                {
                                    "key": "0x74de5d4fcbf63e00296fd95d33236b9794016631",
                                    "value": {
                                        "pairs": [
                                            {
                                                "key": "0x11111112542d85b3ef69ae05771c2dccff4faa26",
                                                "value": {
                                                    "current": "115792089237316195423570985008687907853269984665640562753741315121577560191673",
                                                    "prev": "115792089237316195423570985008687907853269984665640562757343273423786124771046",
                                                    "typeTag": 1
                                                }
                                            }
                                        ],
                                        "typeTag": 4
                                    }
                                },
                                {
                                    "key": "0x92472d32a8ad5182594f5b0b022aa5571dade0ae",
                                    "value": {
                                        "pairs": [
                                            {
                                                "key": "0x881d40237659c251811cec9c364ef91dc08d300c",
                                                "value": {
                                                    "current": "90061758793763293541407947",
                                                    "prev": "90065392547409910000000000",
                                                    "typeTag": 1
                                                }
                                            }
                                        ],
                                        "typeTag": 4
                                    }
                                }
                            ],
                            "typeTag": 4
                        }
                    },
                    {
                        "name": "_balances",
                        "type": "mapping(address => uint256)",
                        "value": {
                            "pairs": [
                                {
                                    "key": "0x11ededebf63bef0ea2d2d071bdf88f71543ec6fb",
                                    "value": {
                                        "current": "20682756718985260366513",
                                        "prev": "20650961374577366353833",
                                        "typeTag": 1
                                    }
                                },
                                {
                                    "key": "0x92472d32a8ad5182594f5b0b022aa5571dade0ae",
                                    "value": {
                                        "current": "0",
                                        "prev": "3633753646616458592053",
                                        "typeTag": 1
                                    }
                                },
                                {
                                    "key": "0xc60c479f3cc66f1654a4113f4949c98ce77a9995",
                                    "value": {
                                        "current": "2309967417660496676067248",
                                        "prev": "2306365459358288111487875",
                                        "typeTag": 1
                                    }
                                }
                            ],
                            "typeTag": 4
                        }
                    }
                ]
            },
            {
                "address": "0xc02aaa39b223fe8d0a0e5c4f27ead9083c756cc2",
                "erc": "ERC-20",
                "slots": [
                    {
                        "current": "0x000000000000000000000000000000000000000000000db1480b9ae6ea0645c8",
                        "key": "0xaced72359d8708e95d2112ba70e71fa267967a5588d15e7c78c1904e0debe410",
                        "prev": "0x000000000000000000000000000000000000000000000db138c5fec35d1a9171"
                    },
                    {
                        "current": "0x000000000000000000000000000000000000000000000026502a279059fd6292",
                        "key": "0xdcbfeb79ad7d53093f530c3753b7069804447e01511004a38fccc4d747a23a96",
                        "prev": "0x0000000000000000000000000000000000000000000000265f6fc3b3e6e916e9"
                    }
                ],
                "storageVariables": [
                    {
                        "name": "balanceOf",
                        "type": "mapping(address => uint256)",
                        "value": {
                            "pairs": [
                                {
                                    "key": "0x0d4a11d5eeaac28ec3f61d100daf4d40471f1852",
                                    "value": {
                                        "current": "64661029391664012477896",
                                        "prev": "64659928934303548477809",
                                        "typeTag": 1
                                    }
                                },
                                {
                                    "key": "0xc60c479f3cc66f1654a4113f4949c98ce77a9995",
                                    "value": {
                                        "current": "706752747773957595794",
                                        "prev": "707853205134421595881",
                                        "typeTag": 1
                                    }
                                }
                            ],
                            "typeTag": 4
                        }
                    }
                ]
            },
            {
                "address": "0xc60c479f3cc66f1654a4113f4949c98ce77a9995",
                "erc": "ERC-20",
                "slots": [
                    {
                        "current": "0x000000000000000000000000000000000afba36f2f7e57c5daf4351cdf9df55c",
                        "key": "0x0000000000000000000000000000000000000000000000000000000000000009",
                        "prev": "0x000000000000000000000000000000000afb8064699b88daea0d51ecb7a94222"
                    },
                    {
                        "current": "0x00000000000000000000000000035cdc6548b08e38b9fc408240e6ff63b19c56",
                        "key": "0x000000000000000000000000000000000000000000000000000000000000000a",
                        "prev": "0x00000000000000000000000000035cc638cb7461c1e0aa57dfe03648f0a09d98"
                    },
                    {
                        "current": "0x60864449000000000026502a279059fd629200000001e92795aa4e5088f317b0",
                        "key": "0x0000000000000000000000000000000000000000000000000000000000000008",
                        "prev": "0x6086428b0000000000265f6fc3b3e6e916e900000001e8645273c672ea584b83"
                    }
                ],
                "storageVariables": [
                    {
                        "name": "price0CumulativeLast",
                        "type": "uint256",
                        "value": {
                            "current": "14598861311131369379964348945481463132",
                            "prev": "14598150573270875117425854119317946914",
                            "typeTag": 1
                        }
                    },
                    {
                        "name": "price1CumulativeLast",
                        "type": "uint256",
                        "value": {
                            "current": "74991562651490338714392021010164623843892310",
                            "prev": "74984017303128688817719372773311168561323416",
                            "typeTag": 1
                        }
                    },
                    {
                        "name": "reserve0",
                        "type": "uint112",
                        "value": {
                            "current": "2309967417660496676067248",
                            "prev": "2306365459358288111487875",
                            "typeTag": 1
                        }
                    },
                    {
                        "name": "reserve1",
                        "type": "uint112",
                        "value": {
                            "current": "706752747773957595794",
                            "prev": "707853205134421595881",
                            "typeTag": 1
                        }
                    },
                    {
                        "name": "blockTimestampLast",
                        "type": "uint32",
                        "value": {
                            "current": "1619412041",
                            "prev": "1619411595",
                            "typeTag": 1
                        }
                    }
                ]
            },
            {
                "address": "0xdac17f958d2ee523a2206206994597c13d831ec7",
                "erc": "ERC-20",
                "slots": [
                    {
                        "current": "0x00000000000000000000000000000000000000000000000000000000a0e92447",
                        "key": "0x41151d600078d84079280d3cbdd6fc28a9ac6e0bc82dff9e501983ccb16e4f4b",
                        "prev": "0x0000000000000000000000000000000000000000000000000000000000000000"
                    },
                    {
                        "current": "0x000000000000000000000000000000000000000000000000000090b37bffc941",
                        "key": "0x45b1147656da4d940c556082f0e09e91e3d046c1c84468f8ead64d8fdc1c749a",
                        "prev": "0x000000000000000000000000000000000000000000000000000090b41ce8ed88"
                    }
                ],
                "storageVariables": [
                    {
                        "name": "balances",
                        "type": "mapping(address => uint256)",
                        "value": {
                            "pairs": [
                                {
                                    "key": "0x0d4a11d5eeaac28ec3f61d100daf4d40471f1852",
                                    "value": {
                                        "current": "159100553906497",
                                        "prev": "159103253540232",
                                        "typeTag": 1
                                    }
                                },
                                {
                                    "key": "0x92472d32a8ad5182594f5b0b022aa5571dade0ae",
                                    "value": {
                                        "current": "2699633735",
                                        "prev": "0",
                                        "typeTag": 1
                                    }
                                }
                            ],
                            "typeTag": 4
                        }
                    }
                ]
            }
        ]
    }
}