{
    "balance_change": {
        "balanceChanges": [
            {
                "account": "0xf69a29a1ee8ecd58b5f3abeab23b813a2ca18110",
                "assets": [
                    {
                        "address": "0x32a2d1acc97a454d726233d9a13d12dfa494ff33",
                        "amount": "10.5",
                        "iconUrl": "",
                        "isERC1155": false,
                        "isERC721": false,
                        "sign": false,
                        "value": ""
                    }
                ]
            },
            {
                "account": "0xa32040f86a4f6983dcc06ce6ca2889713b8b580c",
                "assets": [
                    {
                        "address": "0x32a2d1acc97a454d726233d9a13d12dfa494ff33",
                        "amount": "10.5",
                        "iconUrl": "",
                        "isERC1155": false,
                        "isERC721": false,
                        "sign": true,
                        "value": ""
                    }
                ]
            }
        ]
    },
    "profile": {
        "basic_info": {
            "baseFee": "",
            "blockNumber": 6691949,
            "callData": "0xa9059cbb000000000000000000000000a32040f86a4f6983dcc06ce6ca2889713b8b580c000000000000000000000000000000000000000000000000000000003e95ba80",
            "debugEnable": true,
            "errorInfo": "",
            "eventCount": 1,
            "feeRecipient": "0x5a0b54d5dc17e0aadc383d2db43b0a0d3e029c4c",
            "formatValue": "0",
            "gasLimit": 37163,
            "gasPrice": "5",
            "gasUsed": 37163,
            "intTxnCount": 0,
            "internalRevert": false,
            "internalRevertMessage": "",
            "isContractCreation": false,
            "isFlashloan": false,
            "maxFee": "",
            "nonce": 15,
            "overwritedBlockNumber": -1,
            "priorityFee": "",
            "receiver": "0x32a2d1acc97a454d726233d9a13d12dfa494ff33",
            "revertMessage": "",
            "sender": "0xf69a29a1ee8ecd58b5f3abeab23b813a2ca18110",
            "simulationEnable": true,
            "sourceTxnHash": "0x6d3819a2d7f7a5acf75775e766398c3adc67b5a3e4ab7d927f0a0230d8b360df",
            "status": true,
            "timestamp": "2018-11-12T17:19:39Z",
            "transactionFee": "0.000185815",
            "txnHash": "0x6d3819a2d7f7a5acf75775e766398c3adc67b5a3e4ab7d927f0a0230d8b360df",
            "txnIndex": 11,
            "type": 0,
            "value": "0"
        },
        "fund_flow": [
            {
                "amount": "10.5",
                "from": "0xf69a29a1ee8ecd58b5f3abeab23b813a2ca18110",
                "id": 1,
                "isERC1155": false,
                "isERC721": false,
                "isReverted": false,
                "order": 1,
                "to": "0xa32040f86a4f6983dcc06ce6ca2889713b8b580c",
                "token": "0x32a2d1acc97a454d726233d9a13d12dfa494ff33"
            }
        ],
        "token_infos": [
            {
                "address": "0x32a2d1acc97a454d726233d9a13d12dfa494ff33",
                "decimals": 8
            },
            {
                "address": "0xc02aaa39b223fe8d0a0e5c4f27ead9083c756cc2",
                "decimals": 18
            },
            {
                "address": "0xeeeeeeeeeeeeeeeeeeeeeeeeeeeeeeeeeeeeeeee",
                "decimals": 18
            }
        ]
    },
    "address_label": {
        "labels": [
            {
                "address": "0xeeeeeeeeeeeeeeeeeeeeeeeeeeeeeeeeeeeeeeee",
                "label": "Ether"
            },
            {
                "address": "0x32a2d1acc97a454d726233d9a13d12dfa494ff33",
                "label": "IDC"
            },
            {
                "address": "0x0000000000000000000000000000000000000001",
                "label": "Precompiled"
            },
            {
                "address": "0x0000000000000000000000000000000000000002",
                "label": "Precompiled"
            },
            {
                "address": "0x0000000000000000000000000000000000000003",
                "label": "Precompiled"
            },
            {
                "address": "0x0000000000000000000000000000000000000004",
                "label": "Precompiled"
            }
        ]
    },
    "trace": {
        "accountLabels": null,
        "dataMap": {
            "-1": {
                "invocation": {
                    "address": "0xf69a29a1ee8ecd58b5f3abeab23b813a2ca18110",
                    "callData": "",
                    "decodedMethod": null,
                    "errorInfo": "",
                    "fromAddress": "",
                    "gasUsed": 0,
                    "id": -1,
                    "methodDecoded": false,
                    "operation": "",
                    "output": "",
                    "revert": false,
                    "revertMessage": "",
                    "selector": "",
                    "status": false,
                    "value": ""
                },
                "nodeType": 0
            },
            "0": {
                "invocation": {
                    "address": "0x32a2d1acc97a454d726233d9a13d12dfa494ff33",
                    "callData": "0x000000000000000000000000a32040f86a4f6983dcc06ce6ca2889713b8b580c000000000000000000000000000000000000000000000000000000003e95ba80",
                    "decodedMethod": {
                        "callParams": [
                            {
                                "name": "_to",
                                "type": "address",
                                "value": "0xa32040f86a4f6983dcc06ce6ca2889713b8b580c"
                            },
                            {
                                "decimalAvailable": true,
                                "name": "_amount",
                                "type": "uint256",
                                "value": "1,050,000,000"
                            }
                        ],
                        "constructorArguments": "",
                        "name": "transfer",
                        "returnParams": [
                            {
                                "name": "success",
                                "type": "bool",
                                "value": true
                            }
                        ],
                        "signature": "transfer(address,uint256)"
                    },
                    "errorInfo": "",
                    "fromAddress": "0xf69a29a1ee8ecd58b5f3abeab23b813a2ca18110",
                    "gasUsed": 37163,
                    "id": 0,
                    "methodDecoded": true,
                    "operation": "CALL",
                    "output": "0x0000000000000000000000000000000000000000000000000000000000000001",
                    "revert": false,
                    "revertMessage": "",
                    "selector": "0xa9059cbb",
                    "status": true,
                    "value": "0"
                },
                "nodeType": 0
            },
            "1": {
                "event": {
                    "contract": "0x32a2d1acc97a454d726233d9a13d12dfa494ff33",
                    "decodedLog": {
                        "name": "Transfer",
                        "params": [
                            {
                                "name": "_from",
                                "type": "address",
                                "value": "0xf69a29a1ee8ecd58b5f3abeab23b813a2ca18110"
                            },
                            {
                                "name": "_to",
                                "type": "address",
                                "value": "0xa32040f86a4f6983dcc06ce6ca2889713b8b580c"
                            },
                            {
                                "decimalAvailable": true,
                                "name": "_value",
                                "type": "uint256",
                                "value": "1,050,000,000"
                            }
                        ],
                        "signature": "Transfer(address,address,uint256)"
                    },
                    "id": 1,
                    "logData": "0x000000000000000000000000000000000000000000000000000000003e95ba80",
                    "logDecoded": true,
                    "operation": "EVENT",
                    "revert": false,
                    "status": true,
                    "topics": [
                        "0xddf252ad1be2c89b69c2b068fc378daa952ba7f163c4a11628f55a4df523b3ef",
                        "0x000000000000000000000000f69a29a1ee8ecd58b5f3abeab23b813a2ca18110",
                        "0x000000000000000000000000a32040f86a4f6983dcc06ce6ca2889713b8b580c"
                    ]
                },
                "nodeType": 1
            }
        },
        "gasFlame": [
            {
                "children": [
                    {
                        "children": [
                            {
                                "children": [],
                                "depth": 0,
                                "name": "Initial Gas",
                                "value": 23064
                            },
                            {
                                "children": [],
                                "depth": 0,
                                "name": "Executed Gas",
                                "value": 14099
                            }
                        ],
                        "depth": -1,
                        "name": "Actual Gas Used",
                        "value": 37163
                    },
                    {
                        "children": [],
                        "depth": -1,
                        "name": "Refunded Gas",
                        "value": 0
                    }
                ],
                "depth": -2,
                "name": "Total Gas",
                "value": 37163
            }
        ],
        "isConfirmed": true,
        "mainTrace": [
            {
                "children": [
                    {
                        "children": [
                            {
                                "children": [],
                                "depth": 1,
                                "id": 1,
                                "order": 1
                            }
                        ],
                        "depth": 0,
                        "id": 0,
                        "order": 0
                    }
                ],
                "depth": -1,
                "id": -1,
                "order": -1
            }
        ],
        "mainTraceNodeCount": 2,
        "parentIdMap": {
            "0": -1,
            "1": 0
        },
        "tidyTrace": [
            {
                "children": [
                    {
                        "children": [
                            {
                                "children": [],
                                "depth": 1,
                                "id": 1,
                                "order": 1
                            }
                        ],
                        "depth": 0,
                        "id": 0,
                        "order": 0
                    }
                ],
                "depth": -1,
                "id": -1,
                "order": -1
            }
        ],
        "tidyTraceNodeCount": 2
    },
    "state_change": {
        "stateChanges": [
            {
                "address": "0x32a2d1acc97a454d726233d9a13d12dfa494ff33",
                "erc": "ERC-20",
                "slots": [
                    {
                        "current": "0x00000000000000000000000000000000000000000000000000001e4d45db9455",
                        "key": "0xeb88a2da7cf5fbc955de073d55c574be384b4b88615785899e725db40523138c",
                        "prev": "0x00000000000000000000000000000000000000000000000000001e4d84714ed5"
                    },
                    {
                        "current": "0x00000000000000000000000000000000000000000000000000000003bfa28100",
                        "key": "0xc2946a08c262a532e773524eedf6d9bfcc0e31430533f13613817ecf4117b0b4",
                        "prev": "0x00000000000000000000000000000000000000000000000000000003810cc680"
                    }
                ],
                "storageVariables": [
                    {
                        "name": "balances",
                        "type": "mapping(address => uint256)",
                        "value": {
                            "pairs": [
                                {
                                    "key": "0xa32040f86a4f6983dcc06ce6ca2889713b8b580c",
                                    "value": {
                                        "current": "16100000000",
                                        "prev": "15050000000",
                                        "typeTag": 1
                                    }
                                },
                                {
                                    "key": "0xf69a29a1ee8ecd58b5f3abeab23b813a2ca18110",
                                    "value": {
                                        "current": "33317233333333",
                                        "prev": "33318283333333",
                                        "typeTag": 1
                                    }
                                }
                            ],
                            "typeTag": 4
                        }
                    }
                ]
            }
        ]
    }
}