{
    "balance_change": {
        "balanceChanges": []
    },
    "profile": {
        "basic_info": {
            "baseFee": "",
            "blockNumber": 7683787,
            "callData": "0xeb59a04f00000000000000000000000000000000000000000000000000000000007d31640000000000000000000000000000000000000000000000000000000000000140000000000000000000000000000000000000000000000000000000005cd0df98000000000000000000000000000000000000000000000000000000005cd102c00000000000000000000000000000000000000000000000000000000000000084000000000000000000000000000000000000000000000000000000000000000200000000000000000000000000000000000000000000000000000000000001a0000000000000000000000000000000000000000000000000000000000000000000000000000000000000000000000000000000000000000000000000000001e000000000000000000000000000000000000000000000000000000000000000000000000000000000000000000000000000000000000000000000000000000027486f7573746f6e20526f636b657473202d20476f6c64656e2053746174652057617272696f727300000000000000000000000000000000000000000000000000000000000000000000000000000000000000000000000000000000000000000657696e6e657200000000000000000000000000000000000000000000000000000000000000000000000000000000000000000000000000000000000000000002486f7573746f6e20526f636b6574730000000000000000000000000000000000476f6c64656e2053746174652057617272696f72730000000000000000000000",
            "debugEnable": true,
            "errorInfo": "",
            "eventCount": 1,
            "feeRecipient": "0xb2930b35844a230f00e51431acae96fe543a0347",
            "formatValue": "0",
            "gasLimit": 347249,
            "gasPrice": "1",
            "gasUsed": 347249,
            "intTxnCount": 0,
            "internalRevert": false,
            "internalRevertMessage": "",
            "isContractCreation": false,
            "isFlashloan": false,
            "maxFee": "",
            "nonce": 3667,
            "overwritedBlockNumber": -1,
            "priorityFee": "",
            "receiver": "0x47e437a8a1d35529814835a55e97dbce10bd522f",
            "revertMessage": "",
            "sender": "0xd316413c82bc4a23c2b52d43504f91c15f906208",
            "simulationEnable": true,
            "sourceTxnHash": "0x6de146a3f671870c69670568a6c3c151add7082b60c0f448363f0777b6d4fea5",
            "status": true,
            "timestamp": "2019-05-02T20:27:49Z",
            "transactionFee": "0.000347249",
            "txnHash": "0x6de146a3f671870c69670568a6c3c151add7082b60c0f448363f0777b6d4fea5",
            "txnIndex": 20,
            "type": 0,
            "value": "0"
        },
        "fund_flow": [],
        "token_infos": [
            {
                "address": "0xc02aaa39b223fe8d0a0e5c4f27ead9083c756cc2",
                "decimals": 18
            },
            {
                "address": "0xeeeeeeeeeeeeeeeeeeeeeeeeeeeeeeeeeeeeeeee",
                "decimals": 18
            }
        ]
    },
    "address_label": {
        "labels": [
            {
                "address": "0xeeeeeeeeeeeeeeeeeeeeeeeeeeeeeeeeeeeeeeee",
                "label": "Ether"
            },
            {
                "address": "0x47e437a8a1d35529814835a55e97dbce10bd522f",
                "label": "Oracle"
            },
            {
                "address": "0x0000000000000000000000000000000000000001",
                "label": "Precompiled"
            },
            {
                "address": "0x0000000000000000000000000000000000000002",
                "label": "Precompiled"
            },
            {
                "address": "0x0000000000000000000000000000000000000003",
                "label": "Precompiled"
            },
            {
                "address": "0x0000000000000000000000000000000000000004",
                "label": "Precompiled"
            }
        ]
    },
    "trace": {
        "accountLabels": null,
        "dataMap": {
            "-1": {
                "invocation": {
                    "address": "0xd316413c82bc4a23c2b52d43504f91c15f906208",
                    "callData": "",
                    "decodedMethod": null,
                    "errorInfo": "",
                    "fromAddress": "",
                    "gasUsed": 0,
                    "id": -1,
                    "methodDecoded": false,
                    "operation": "",
                    "output": "",
                    "revert": false,
                    "revertMessage": "",
                    "selector": "",
                    "status": false,
                    "value": ""
                },
                "nodeType": 0
            },
            "0": {
                "invocation": {
                    "address": "0x47e437a8a1d35529814835a55e97dbce10bd522f",
                    "callData": "0x00000000000000000000000000000000000000000000000000000000007d31640000000000000000000000000000000000000000000000000000000000000140000000000000000000000000000000000000000000000000000000005cd0df98000000000000000000000000000000000000000000000000000000005cd102c00000000000000000000000000000000000000000000000000000000000000084000000000000000000000000000000000000000000000000000000000000000200000000000000000000000000000000000000000000000000000000000001a0000000000000000000000000000000000000000000000000000000000000000000000000000000000000000000000000000000000000000000000000000001e000000000000000000000000000000000000000000000000000000000000000000000000000000000000000000000000000000000000000000000000000000027486f7573746f6e20526f636b657473202d20476f6c64656e2053746174652057617272696f727300000000000000000000000000000000000000000000000000000000000000000000000000000000000000000000000000000000000000000657696e6e657200000000000000000000000000000000000000000000000000000000000000000000000000000000000000000000000000000000000000000002486f7573746f6e20526f636b6574730000000000000000000000000000000000476f6c64656e2053746174652057617272696f72730000000000000000000000",
                    "decodedMethod": {
                        "callParams": [
                            {
                                "name": "id",
                                "type": "uint256",
                                "value": "8,204,644"
                            },
                            {
                                "name": "title",
                                "type": "string",
                                "value": "Houston Rockets - Golden State Warriors"
                            },
                            {
                                "name": "startDateTime",
                                "type": "uint256",
                                "value": "1,557,192,600"
                            },
                            {
                                "name": "endDateTime",
                                "type": "uint256",
                                "value": "1,557,201,600"
                            },
                            {
                                "name": "subcategoryId",
                                "type": "uint256",
                                "value": "132"
                            },
                            {
                                "name": "categoryId",
                                "type": "uint256",
                                "value": "2"
                            },
                            {
                                "name": "outputTitle",
                                "type": "string",
                                "value": "Winner"
                            },
                            {
                                "name": "eventOutputType",
                                "type": "uint8",
                                "value": "0"
                            },
                            {
                                "name": "_possibleResults",
                                "type": "bytes32[]",
                                "value": [
                                    "0x486f7573746f6e20526f636b6574730000000000000000000000000000000000",
                                    "0x476f6c64656e2053746174652057617272696f72730000000000000000000000"
                                ]
                            },
                            {
                                "name": "decimals",
                                "type": "uint256",
                                "value": "0"
                            }
                        ],
                        "constructorArguments": "",
                        "name": "addUpcomingEvent",
                        "returnParams": [],
                        "signature": "addUpcomingEvent(uint256,string,uint256,uint256,uint256,uint256,string,uint8,bytes32[],uint256)"
                    },
                    "errorInfo": "",
                    "fromAddress": "0xd316413c82bc4a23c2b52d43504f91c15f906208",
                    "gasUsed": 347249,
                    "id": 0,
                    "methodDecoded": true,
                    "operation": "CALL",
                    "output": "",
                    "revert": false,
                    "revertMessage": "",
                    "selector": "0xeb59a04f",
                    "status": true,
                    "value": "0"
                },
                "nodeType": 0
            },
            "1": {
                "event": {
                    "contract": "0x47e437a8a1d35529814835a55e97dbce10bd522f",
                    "decodedLog": {
                        "name": "UpcomingEventUpdated",
                        "params": [
                            {
                                "name": "id",
                                "type": "uint256",
                                "value": "8,204,644"
                            },
                            {
                                "name": "closeDateTime",
                                "type": "uint256",
                                "value": "1,557,190,800"
                            }
                        ],
                        "signature": "UpcomingEventUpdated(uint256,uint256)"
                    },
                    "id": 1,
                    "logData": "0x00000000000000000000000000000000000000000000000000000000007d3164000000000000000000000000000000000000000000000000000000005cd0d890",
                    "logDecoded": true,
                    "operation": "EVENT",
                    "revert": false,
                    "status": true,
                    "topics": [
                        "0xcbdb04540d8f14087e74276214426a1c57d1d9b3fe36f3095092e99ea1453d94"
                    ]
                },
                "nodeType": 1
            }
        },
        "gasFlame": [
            {
                "children": [
                    {
                        "children": [
                            {
                                "children": [],
                                "depth": 0,
                                "name": "Initial Gas",
                                "value": 30168
                            },
                            {
                                "children": [],
                                "depth": 0,
                                "name": "Executed Gas",
                                "value": 317081
                            }
                        ],
                        "depth": -1,
                        "name": "Actual Gas Used",
                        "value": 347249
                    },
                    {
                        "children": [],
                        "depth": -1,
                        "name": "Refunded Gas",
                        "value": 0
                    }
                ],
                "depth": -2,
                "name": "Total Gas",
                "value": 347249
            }
        ],
        "isConfirmed": true,
        "mainTrace": [
            {
                "children": [
                    {
                        "children": [
                            {
                                "children": [],
                                "depth": 1,
                                "id": 1,
                                "order": 1
                            }
                        ],
                        "depth": 0,
                        "id": 0,
                        "order": 0
                    }
                ],
                "depth": -1,
                "id": -1,
                "order": -1
            }
        ],
        "mainTraceNodeCount": 2,
        "parentIdMap": {
            "0": -1,
            "1": 0
        },
        "tidyTrace": [
            {
                "children": [
                    {
                        "children": [
                            {
                                "children": [],
                                "depth": 1,
                                "id": 1,
                                "order": 1
                            }
                        ],
                        "depth": 0,
                        "id": 0,
                        "order": 0
                    }
                ],
                "depth": -1,
                "id": -1,
                "order": -1
            }
        ],
        "tidyTraceNodeCount": 2
    },
    "state_change": {
        "stateChanges": [
            {
                "address": "0x47e437a8a1d35529814835a55e97dbce10bd522f",
                "erc": "",
                "slots": [
                    {
                        "current": "0x000000000000000000000000000000000000000000000000000000005cd0df98",
                        "key": "0xcb5193f6cba6cb43ffc48d7e290202fbeae193b027a592dfc9fbdb163087e74e",
                        "prev": "0x0000000000000000000000000000000000000000000000000000000000000000"
                    },
                    {
                        "current": "0x0000000000000000000000000000000000000000000000000000000000000002",
                        "key": "0xcb5193f6cba6cb43ffc48d7e290202fbeae193b027a592dfc9fbdb163087e751",
                        "prev": "0x0000000000000000000000000000000000000000000000000000000000000000"
                    },
                    {
                        "current": "0x00000000000000000000000000000000000000000000000000000000007d3164",
                        "key": "0xcb5193f6cba6cb43ffc48d7e290202fbeae193b027a592dfc9fbdb163087e74c",
                        "prev": "0x0000000000000000000000000000000000000000000000000000000000000000"
                    },
                    {
                        "current": "0x000000000000000000000000000000000000000000000000000000005cd102c0",
                        "key": "0xcb5193f6cba6cb43ffc48d7e290202fbeae193b027a592dfc9fbdb163087e74f",
                        "prev": "0x0000000000000000000000000000000000000000000000000000000000000000"
                    },
                    {
                        "current": "0x0000000000000000000000000000000000000000000000000000000000000002",
                        "key": "0xbbbccb06b06966a62704b20c27951c2fc35d4cf107ac8f789faeb0fdba1ad916",
                        "prev": "0x0000000000000000000000000000000000000000000000000000000000000000"
                    },
                    {
                        "current": "0x486f7573746f6e20526f636b657473202d20476f6c64656e2053746174652057",
                        "key": "0x83071c1e5f6addc8bde79cf595115e8febfbef7c0d9e961f2abb7d7ebee60869",
                        "prev": "0x0000000000000000000000000000000000000000000000000000000000000000"
                    },
                    {
                        "current": "0x486f7573746f6e20526f636b6574730000000000000000000000000000000000",
                        "key": "0x300cb791f6dcedec7d728823054da6a1775711ab43b78cc09d879fa547977bf4",
                        "prev": "0x0000000000000000000000000000000000000000000000000000000000000000"
                    },
                    {
                        "current": "0x57696e6e6572000000000000000000000000000000000000000000000000000c",
                        "key": "0xbbbccb06b06966a62704b20c27951c2fc35d4cf107ac8f789faeb0fdba1ad915",
                        "prev": "0x0000000000000000000000000000000000000000000000000000000000000000"
                    },
                    {
                        "current": "0x000000000000000000000000000000000000000000000000000000000000004f",
                        "key": "0xcb5193f6cba6cb43ffc48d7e290202fbeae193b027a592dfc9fbdb163087e74d",
                        "prev": "0x0000000000000000000000000000000000000000000000000000000000000000"
                    },
                    {
                        "current": "0x0000000000000000000000000000000000000000000000000000000000000084",
                        "key": "0xcb5193f6cba6cb43ffc48d7e290202fbeae193b027a592dfc9fbdb163087e750",
                        "prev": "0x0000000000000000000000000000000000000000000000000000000000000000"
                    },
                    {
                        "current": "0x0000000000000000000000000000000000000000000000000000000000000001",
                        "key": "0xcb5193f6cba6cb43ffc48d7e290202fbeae193b027a592dfc9fbdb163087e756",
                        "prev": "0x0000000000000000000000000000000000000000000000000000000000000000"
                    },
                    {
                        "current": "0x476f6c64656e2053746174652057617272696f72730000000000000000000000",
                        "key": "0x17cca2cdb5e55d86f162a966bc380a2703a52a3f29cca8908e5a35bca61fe512",
                        "prev": "0x0000000000000000000000000000000000000000000000000000000000000000"
                    },
                    {
                        "current": "0x000000000000000000000000000000000000000000000000000000005cd1ab80",
                        "key": "0xcb5193f6cba6cb43ffc48d7e290202fbeae193b027a592dfc9fbdb163087e753",
                        "prev": "0x0000000000000000000000000000000000000000000000000000000000000000"
                    },
                    {
                        "current": "0x000000000000000000000000000000000000000000000000000000005cd0d890",
                        "key": "0xcb5193f6cba6cb43ffc48d7e290202fbeae193b027a592dfc9fbdb163087e752",
                        "prev": "0x0000000000000000000000000000000000000000000000000000000000000000"
                    },
                    {
                        "current": "0x617272696f727300000000000000000000000000000000000000000000000000",
                        "key": "0x83071c1e5f6addc8bde79cf595115e8febfbef7c0d9e961f2abb7d7ebee6086a",
                        "prev": "0x0000000000000000000000000000000000000000000000000000000000000000"
                    }
                ],
                "storageVariables": [
                    {
                        "name": "events",
                        "type": "mapping(uint256 => struct Oracle.Event)",
                        "value": {
                            "pairs": [
                                {
                                    "key": "8204644",
                                    "value": {
                                        "fields": [
                                            {
                                                "name": "id",
                                                "type": "uint256",
                                                "value": {
                                                    "current": "8204644",
                                                    "prev": "0",
                                                    "typeTag": 1
                                                }
                                            },
                                            {
                                                "name": "title",
                                                "type": "string",
                                                "value": {
                                                    "current": "Houston Rockets - Golden State Warriors",
                                                    "prev": "",
                                                    "typeTag": 1
                                                }
                                            },
                                            {
                                                "name": "startDateTime",
                                                "type": "uint256",
                                                "value": {
                                                    "current": "1557192600",
                                                    "prev": "0",
                                                    "typeTag": 1
                                                }
                                            },
                                            {
                                                "name": "endDateTime",
                                                "type": "uint256",
                                                "value": {
                                                    "current": "1557201600",
                                                    "prev": "0",
                                                    "typeTag": 1
                                                }
                                            },
                                            {
                                                "name": "subcategoryId",
                                                "type": "uint256",
                                                "value": {
                                                    "current": "132",
                                                    "prev": "0",
                                                    "typeTag": 1
                                                }
                                            },
                                            {
                                                "name": "categoryId",
                                                "type": "uint256",
                                                "value": {
                                                    "current": "2",
                                                    "prev": "0",
                                                    "typeTag": 1
                                                }
                                            },
                                            {
                                                "name": "closeDateTime",
                                                "type": "uint256",
                                                "value": {
                                                    "current": "1557190800",
                                                    "prev": "0",
                                                    "typeTag": 1
                                                }
                                            },
                                            {
                                                "name": "freezeDateTime",
                                                "type": "uint256",
                                                "value": {
                                                    "current": "1557244800",
                                                    "prev": "0",
                                                    "typeTag": 1
                                                }
                                            },
                                            {
                                                "name": "totalAvailableOutputs",
                                                "type": "uint256",
                                                "value": {
                                                    "current": "1",
                                                    "prev": "0",
                                                    "typeTag": 1
                                                }
                                            }
                                        ],
                                        "typeTag": 3
                                    }
                                }
                            ],
                            "typeTag": 4
                        }
                    },
                    {
                        "name": "eventOutputs",
                        "type": "mapping(uint256 => mapping(uint256 => struct Oracle.EventOutput))",
                        "value": {
                            "pairs": [
                                {
                                    "key": "8204644",
                                    "value": {
                                        "pairs": [
                                            {
                                                "key": "0",
                                                "value": {
                                                    "fields": [
                                                        {
                                                            "name": "title",
                                                            "type": "string",
                                                            "value": {
                                                                "current": "Winner",
                                                                "prev": "",
                                                                "typeTag": 1
                                                            }
                                                        },
                                                        {
                                                            "name": "possibleResultsCount",
                                                            "type": "uint256",
                                                            "value": {
                                                                "current": "2",
                                                                "prev": "0",
                                                                "typeTag": 1
                                                            }
                                                        }
                                                    ],
                                                    "typeTag": 3
                                                }
                                            }
                                        ],
                                        "typeTag": 4
                                    }
                                }
                            ],
                            "typeTag": 4
                        }
                    },
                    {
                        "name": "eventOutputPossibleResults",
                        "type": "mapping(uint256 => mapping(uint256 => mapping(uint256 => bytes32)))",
                        "value": {
                            "pairs": [
                                {
                                    "key": "8204644",
                                    "value": {
                                        "pairs": [
                                            {
                                                "key": "0",
                                                "value": {
                                                    "pairs": [
                                                        {
                                                            "key": "0",
                                                            "value": {
                                                                "current": "0x486f7573746f6e20526f636b6574730000000000000000000000000000000000",
                                                                "prev": "0x0000000000000000000000000000000000000000000000000000000000000000",
                                                                "typeTag": 1
                                                            }
                                                        },
                                                        {
                                                            "key": "1",
                                                            "value": {
                                                                "current": "0x476f6c64656e2053746174652057617272696f72730000000000000000000000",
                                                                "prev": "0x0000000000000000000000000000000000000000000000000000000000000000",
                                                                "typeTag": 1
                                                            }
                                                        }
                                                    ],
                                                    "typeTag": 4
                                                }
                                            }
                                        ],
                                        "typeTag": 4
                                    }
                                }
                            ],
                            "typeTag": 4
                        }
                    }
                ]
            }
        ]
    }
}