{
    "balance_change": {
        "balanceChanges": [
            {
                "account": "0x0093e5f2a850268c0ca3093c7ea53731296487eb",
                "assets": [
                    {
                        "address": "0x006699d34aa3013605d468d2755a2fe59a16b12b",
                        "amount": "52.91360617",
                        "iconUrl": "",
                        "isERC1155": false,
                        "isERC721": false,
                        "sign": false,
                        "value": "5862.221314"
                    }
                ]
            },
            {
                "account": "0xc060b387cbf06f926f783d01c1f40bc5c6ceb80f",
                "assets": [
                    {
                        "address": "0x006699d34aa3013605d468d2755a2fe59a16b12b",
                        "amount": "52.91360617",
                        "iconUrl": "",
                        "isERC1155": false,
                        "isERC721": false,
                        "sign": true,
                        "value": "5862.221314"
                    }
                ]
            }
        ]
    },
    "profile": {
        "basic_info": {
            "baseFee": "",
            "blockNumber": 11865131,
            "callData": "0xa9059cbb000000000000000000000000c060b387cbf06f926f783d01c1f40bc5c6ceb80f000000000000000000000000000000000000000000000002de52e4769bc48400",
            "debugEnable": true,
            "errorInfo": "",
            "eventCount": 1,
            "feeRecipient": "0x829bd824b016326a401d083b33d092293333a830",
            "formatValue": "0",
            "gasLimit": 93000,
            "gasPrice": "269",
            "gasUsed": 38416,
            "intTxnCount": 0,
            "internalRevert": false,
            "internalRevertMessage": "",
            "isContractCreation": false,
            "isFlashloan": false,
            "maxFee": "",
            "nonce": 58616,
            "overwritedBlockNumber": -1,
            "priorityFee": "",
            "receiver": "0x006699d34aa3013605d468d2755a2fe59a16b12b",
            "revertMessage": "",
            "sender": "0x0093e5f2a850268c0ca3093c7ea53731296487eb",
            "simulationEnable": true,
            "sourceTxnHash": "0x6d9ebafd9cd360f1310678303c40338152b6eb0cb49e8e9addbc7bd240115a66",
            "status": true,
            "timestamp": "2021-02-16T02:37:53Z",
            "transactionFee": "0.010333904",
            "txnHash": "0x6d9ebafd9cd360f1310678303c40338152b6eb0cb49e8e9addbc7bd240115a66",
            "txnIndex": 16,
            "type": 0,
            "value": "0"
        },
        "fund_flow": [
            {
                "amount": "52.91360617",
                "from": "0x0093e5f2a850268c0ca3093c7ea53731296487eb",
                "id": 1,
                "isERC1155": false,
                "isERC721": false,
                "isReverted": false,
                "order": 1,
                "to": "0xc060b387cbf06f926f783d01c1f40bc5c6ceb80f",
                "token": "0x006699d34aa3013605d468d2755a2fe59a16b12b"
            }
        ],
        "token_infos": [
            {
                "address": "0x006699d34aa3013605d468d2755a2fe59a16b12b",
                "decimals": 18
            },
            {
                "address": "0xc02aaa39b223fe8d0a0e5c4f27ead9083c756cc2",
                "decimals": 18
            },
            {
                "address": "0xeeeeeeeeeeeeeeeeeeeeeeeeeeeeeeeeeeeeeeee",
                "decimals": 18
            }
        ]
    },
    "address_label": {
        "labels": [
            {
                "address": "0x0093e5f2a850268c0ca3093c7ea53731296487eb",
                "label": "Hoo.com 5"
            },
            {
                "address": "0x0000000000000000000000000000000000000001",
                "label": "Precompiled"
            },
            {
                "address": "0x0000000000000000000000000000000000000002",
                "label": "Precompiled"
            },
            {
                "address": "0x0000000000000000000000000000000000000003",
                "label": "Precompiled"
            },
            {
                "address": "0x0000000000000000000000000000000000000004",
                "label": "Precompiled"
            },
            {
                "address": "0xeeeeeeeeeeeeeeeeeeeeeeeeeeeeeeeeeeeeeeee",
                "label": "Ether"
            },
            {
                "address": "0x006699d34aa3013605d468d2755a2fe59a16b12b",
                "label": "Zild Protocol: ZILD Token"
            }
        ]
    },
    "trace": {
        "accountLabels": null,
        "dataMap": {
            "-1": {
                "invocation": {
                    "address": "0x0093e5f2a850268c0ca3093c7ea53731296487eb",
                    "callData": "",
                    "decodedMethod": null,
                    "errorInfo": "",
                    "fromAddress": "",
                    "gasUsed": 0,
                    "id": -1,
                    "methodDecoded": false,
                    "operation": "",
                    "output": "",
                    "revert": false,
                    "revertMessage": "",
                    "selector": "",
                    "status": false,
                    "value": ""
                },
                "nodeType": 0
            },
            "0": {
                "invocation": {
                    "address": "0x006699d34aa3013605d468d2755a2fe59a16b12b",
                    "callData": "0x000000000000000000000000c060b387cbf06f926f783d01c1f40bc5c6ceb80f000000000000000000000000000000000000000000000002de52e4769bc48400",
                    "decodedMethod": {
                        "callParams": [
                            {
                                "name": "to",
                                "type": "address",
                                "value": "0xc060b387cbf06f926f783d01c1f40bc5c6ceb80f"
                            },
                            {
                                "decimalAvailable": true,
                                "name": "amount",
                                "type": "uint256",
                                "value": "52,913,606,170,000,000,000"
                            }
                        ],
                        "constructorArguments": "",
                        "name": "transfer",
                        "returnParams": [
                            {
                                "name": "",
                                "type": "bool",
                                "value": true
                            }
                        ],
                        "signature": "transfer(address,uint256)"
                    },
                    "errorInfo": "",
                    "fromAddress": "0x0093e5f2a850268c0ca3093c7ea53731296487eb",
                    "gasUsed": 38416,
                    "id": 0,
                    "methodDecoded": true,
                    "operation": "CALL",
                    "output": "0x0000000000000000000000000000000000000000000000000000000000000001",
                    "revert": false,
                    "revertMessage": "",
                    "selector": "0xa9059cbb",
                    "status": true,
                    "value": "0"
                },
                "nodeType": 0
            },
            "1": {
                "event": {
                    "contract": "0x006699d34aa3013605d468d2755a2fe59a16b12b",
                    "decodedLog": {
                        "name": "Transfer",
                        "params": [
                            {
                                "name": "from",
                                "type": "address",
                                "value": "0x0093e5f2a850268c0ca3093c7ea53731296487eb"
                            },
                            {
                                "name": "to",
                                "type": "address",
                                "value": "0xc060b387cbf06f926f783d01c1f40bc5c6ceb80f"
                            },
                            {
                                "decimalAvailable": true,
                                "name": "value",
                                "type": "uint256",
                                "value": "52,913,606,170,000,000,000"
                            }
                        ],
                        "signature": "Transfer(address,address,uint256)"
                    },
                    "id": 1,
                    "logData": "0x000000000000000000000000000000000000000000000002de52e4769bc48400",
                    "logDecoded": true,
                    "operation": "EVENT",
                    "revert": false,
                    "status": true,
                    "topics": [
                        "0xddf252ad1be2c89b69c2b068fc378daa952ba7f163c4a11628f55a4df523b3ef",
                        "0x0000000000000000000000000093e5f2a850268c0ca3093c7ea53731296487eb",
                        "0x000000000000000000000000c060b387cbf06f926f783d01c1f40bc5c6ceb80f"
                    ]
                },
                "nodeType": 1
            }
        },
        "gasFlame": [
            {
                "children": [
                    {
                        "children": [
                            {
                                "children": [],
                                "depth": 0,
                                "name": "Initial Gas",
                                "value": 21656
                            },
                            {
                                "children": [],
                                "depth": 0,
                                "name": "Executed Gas",
                                "value": 16760
                            }
                        ],
                        "depth": -1,
                        "name": "Actual Gas Used",
                        "value": 38416
                    },
                    {
                        "children": [],
                        "depth": -1,
                        "name": "Refunded Gas",
                        "value": 0
                    }
                ],
                "depth": -2,
                "name": "Total Gas",
                "value": 38416
            }
        ],
        "isConfirmed": true,
        "mainTrace": [
            {
                "children": [
                    {
                        "children": [
                            {
                                "children": [],
                                "depth": 1,
                                "id": 1,
                                "order": 1
                            }
                        ],
                        "depth": 0,
                        "id": 0,
                        "order": 0
                    }
                ],
                "depth": -1,
                "id": -1,
                "order": -1
            }
        ],
        "mainTraceNodeCount": 2,
        "parentIdMap": {
            "0": -1,
            "1": 0
        },
        "tidyTrace": [
            {
                "children": [
                    {
                        "children": [
                            {
                                "children": [],
                                "depth": 1,
                                "id": 1,
                                "order": 1
                            }
                        ],
                        "depth": 0,
                        "id": 0,
                        "order": 0
                    }
                ],
                "depth": -1,
                "id": -1,
                "order": -1
            }
        ],
        "tidyTraceNodeCount": 2
    },
    "state_change": {
        "stateChanges": [
            {
                "address": "0x006699d34aa3013605d468d2755a2fe59a16b12b",
                "erc": "ERC-20",
                "slots": [
                    {
                        "current": "0x000000000000000000000000000000000000000000000002de52e4a9d4ca1c00",
                        "key": "0x8cc176edfb9f5c6ed670c966587cf775b75910219529e0301c10d19b8603939d",
                        "prev": "0x0000000000000000000000000000000000000000000000000000003339059800"
                    },
                    {
                        "current": "0x0000000000000000000000000000000000000000000001034107007dc40aeed6",
                        "key": "0x6676ddc6e30eed3dbd4062a3ef83c0481ebb6dcabb70a78040860837de9c41dc",
                        "prev": "0x0000000000000000000000000000000000000000000001061f59e4f45fcf72d6"
                    }
                ],
                "storageVariables": [
                    {
                        "name": "_balances",
                        "type": "mapping(address => uint256)",
                        "value": {
                            "pairs": [
                                {
                                    "key": "0x0093e5f2a850268c0ca3093c7ea53731296487eb",
                                    "value": {
                                        "current": "4782392429568236121814",
                                        "prev": "4835306035738236121814",
                                        "typeTag": 1
                                    }
                                },
                                {
                                    "key": "0xc060b387cbf06f926f783d01c1f40bc5c6ceb80f",
                                    "value": {
                                        "current": "52913606390000000000",
                                        "prev": "220000000000",
                                        "typeTag": 1
                                    }
                                }
                            ],
                            "typeTag": 4
                        }
                    }
                ]
            }
        ]
    }
}