{
    "balance_change": {
        "balanceChanges": [
            {
                "account": "0x81f50807faf5238db4c329c7bacae2676dd13f10",
                "assets": [
                    {
                        "address": "0x0425e5bf7f52591a04fbe24c454ac004179c4318",
                        "amount": "70,365.926261735957389297",
                        "iconUrl": "",
                        "isERC1155": false,
                        "isERC721": false,
                        "sign": false,
                        "value": "38.79605939"
                    }
                ]
            },
            {
                "account": "0x75a39a62eb818155e1365acf3d8d7163df0ea7e7",
                "assets": [
                    {
                        "address": "0x0425e5bf7f52591a04fbe24c454ac004179c4318",
                        "amount": "70,365.926261735957389297",
                        "iconUrl": "",
                        "isERC1155": false,
                        "isERC721": false,
                        "sign": true,
                        "value": "38.79605939"
                    }
                ]
            }
        ]
    },
    "profile": {
        "basic_info": {
            "baseFee": "6.965126846",
            "blockNumber": 18404395,
            "callData": "0xa9059cbb00000000000000000000000075a39a62eb818155e1365acf3d8d7163df0ea7e7000000000000000000000000000000000000000000000ee68b64c064b61adff2",
            "debugEnable": true,
            "errorInfo": "",
            "eventCount": 1,
            "feeRecipient": "0xdafea492d9c6733ae3d56b7ed1adb60692c98bc5",
            "formatValue": "0",
            "gasLimit": 67190,
            "gasPrice": "6.975126846",
            "gasUsed": 51685,
            "intTxnCount": 0,
            "internalRevert": false,
            "internalRevertMessage": "",
            "isContractCreation": false,
            "isFlashloan": false,
            "maxFee": "8.477959236",
            "nonce": 0,
            "overwritedBlockNumber": -1,
            "priorityFee": "0.01",
            "receiver": "0x0425e5bf7f52591a04fbe24c454ac004179c4318",
            "revertMessage": "",
            "sender": "0x81f50807faf5238db4c329c7bacae2676dd13f10",
            "simulationEnable": true,
            "sourceTxnHash": "0x6d24802091f22613b3732a098cf5b39ea2d9442da49e4c2429fd6efc3324ee49",
            "status": true,
            "timestamp": "2023-10-22T07:37:11Z",
            "transactionFee": "0.00036050943103551",
            "txnHash": "0x6d24802091f22613b3732a098cf5b39ea2d9442da49e4c2429fd6efc3324ee49",
            "txnIndex": 155,
            "type": 2,
            "value": "0"
        },
        "fund_flow": [
            {
                "amount": "70,365.926261735957389297",
                "from": "0x81f50807faf5238db4c329c7bacae2676dd13f10",
                "id": 1,
                "isERC1155": false,
                "isERC721": false,
                "isReverted": false,
                "order": 1,
                "to": "0x75a39a62eb818155e1365acf3d8d7163df0ea7e7",
                "token": "0x0425e5bf7f52591a04fbe24c454ac004179c4318"
            }
        ],
        "token_infos": [
            {
                "address": "0x0425e5bf7f52591a04fbe24c454ac004179c4318",
                "decimals": 18
            },
            {
                "address": "0xc02aaa39b223fe8d0a0e5c4f27ead9083c756cc2",
                "decimals": 18
            },
            {
                "address": "0xeeeeeeeeeeeeeeeeeeeeeeeeeeeeeeeeeeeeeeee",
                "decimals": 18
            }
        ]
    },
    "address_label": {
        "labels": [
            {
                "address": "0x0000000000000000000000000000000000000001",
                "label": "Precompiled"
            },
            {
                "address": "0x0000000000000000000000000000000000000002",
                "label": "Precompiled"
            },
            {
                "address": "0x0000000000000000000000000000000000000003",
                "label": "Precompiled"
            },
            {
                "address": "0x0000000000000000000000000000000000000004",
                "label": "Precompiled"
            },
            {
                "address": "0xeeeeeeeeeeeeeeeeeeeeeeeeeeeeeeeeeeeeeeee",
                "label": "Ether"
            },
            {
                "address": "0x0425e5bf7f52591a04fbe24c454ac004179c4318",
                "label": "ALL BEST ICO: ALLBI Token"
            },
            {
                "address": "0x75a39a62eb818155e1365acf3d8d7163df0ea7e7",
                "label": "COINBASE"
            }
        ]
    },
    "trace": {
        "accountLabels": null,
        "dataMap": {
            "-1": {
                "invocation": {
                    "address": "0x81f50807faf5238db4c329c7bacae2676dd13f10",
                    "callData": "",
                    "decodedMethod": null,
                    "errorInfo": "",
                    "fromAddress": "",
                    "gasUsed": 0,
                    "id": -1,
                    "methodDecoded": false,
                    "operation": "",
                    "output": "",
                    "revert": false,
                    "revertMessage": "",
                    "selector": "",
                    "status": false,
                    "value": ""
                },
                "nodeType": 0
            },
            "0": {
                "invocation": {
                    "address": "0x0425e5bf7f52591a04fbe24c454ac004179c4318",
                    "callData": "0x00000000000000000000000075a39a62eb818155e1365acf3d8d7163df0ea7e7000000000000000000000000000000000000000000000ee68b64c064b61adff2",
                    "decodedMethod": {
                        "callParams": [
                            {
                                "name": "to",
                                "type": "address",
                                "value": "0x75a39a62eb818155e1365acf3d8d7163df0ea7e7"
                            },
                            {
                                "decimalAvailable": true,
                                "name": "tokens",
                                "type": "uint256",
                                "value": "70,365,926,261,735,957,389,298"
                            }
                        ],
                        "constructorArguments": "",
                        "name": "transfer",
                        "returnParams": [
                            {
                                "name": "success",
                                "type": "bool",
                                "value": true
                            }
                        ],
                        "signature": "transfer(address,uint256)"
                    },
                    "errorInfo": "",
                    "fromAddress": "0x81f50807faf5238db4c329c7bacae2676dd13f10",
                    "gasUsed": 51685,
                    "id": 0,
                    "methodDecoded": true,
                    "operation": "CALL",
                    "output": "0x0000000000000000000000000000000000000000000000000000000000000001",
                    "revert": false,
                    "revertMessage": "",
                    "selector": "0xa9059cbb",
                    "status": true,
                    "value": "0"
                },
                "nodeType": 0
            },
            "1": {
                "event": {
                    "contract": "0x0425e5bf7f52591a04fbe24c454ac004179c4318",
                    "decodedLog": {
                        "name": "Transfer",
                        "params": [
                            {
                                "name": "from",
                                "type": "address",
                                "value": "0x81f50807faf5238db4c329c7bacae2676dd13f10"
                            },
                            {
                                "name": "to",
                                "type": "address",
                                "value": "0x75a39a62eb818155e1365acf3d8d7163df0ea7e7"
                            },
                            {
                                "decimalAvailable": true,
                                "name": "tokens",
                                "type": "uint256",
                                "value": "70,365,926,261,735,957,389,298"
                            }
                        ],
                        "signature": "Transfer(address,address,uint256)"
                    },
                    "id": 1,
                    "logData": "0x000000000000000000000000000000000000000000000ee68b64c064b61adff2",
                    "logDecoded": true,
                    "operation": "EVENT",
                    "revert": false,
                    "status": true,
                    "topics": [
                        "0xddf252ad1be2c89b69c2b068fc378daa952ba7f163c4a11628f55a4df523b3ef",
                        "0x00000000000000000000000081f50807faf5238db4c329c7bacae2676dd13f10",
                        "0x00000000000000000000000075a39a62eb818155e1365acf3d8d7163df0ea7e7"
                    ]
                },
                "nodeType": 1
            }
        },
        "gasFlame": [
            {
                "children": [
                    {
                        "children": [
                            {
                                "children": [],
                                "depth": 0,
                                "name": "Initial Gas",
                                "value": 21680
                            },
                            {
                                "children": [],
                                "depth": 0,
                                "name": "Executed Gas",
                                "value": 30005
                            }
                        ],
                        "depth": -1,
                        "name": "Actual Gas Used",
                        "value": 51685
                    },
                    {
                        "children": [],
                        "depth": -1,
                        "name": "Refunded Gas",
                        "value": 0
                    }
                ],
                "depth": -2,
                "name": "Total Gas",
                "value": 51685
            }
        ],
        "isConfirmed": true,
        "mainTrace": [
            {
                "children": [
                    {
                        "children": [
                            {
                                "children": [],
                                "depth": 1,
                                "id": 1,
                                "order": 1
                            }
                        ],
                        "depth": 0,
                        "id": 0,
                        "order": 0
                    }
                ],
                "depth": -1,
                "id": -1,
                "order": -1
            }
        ],
        "mainTraceNodeCount": 2,
        "parentIdMap": {
            "0": -1,
            "1": 0
        },
        "tidyTrace": [
            {
                "children": [
                    {
                        "children": [
                            {
                                "children": [],
                                "depth": 1,
                                "id": 1,
                                "order": 1
                            }
                        ],
                        "depth": 0,
                        "id": 0,
                        "order": 0
                    }
                ],
                "depth": -1,
                "id": -1,
                "order": -1
            }
        ],
        "tidyTraceNodeCount": 2
    },
    "state_change": {
        "stateChanges": [
            {
                "address": "0x0425e5bf7f52591a04fbe24c454ac004179c4318",
                "erc": "ERC-20",
                "slots": [
                    {
                        "current": "0x00000000000000000000000000000000000000000000011bfbe0d88fd93a600e",
                        "key": "0x6d98de6ebbb20a0ce0c9780b93bdf9bcaab8c7665aee691f5c234bbd7046070c",
                        "prev": "0x000000000000000000000000000000000000000000001002874598f48f554000"
                    },
                    {
                        "current": "0x000000000000000000000000000000000000000000000ee68b64c064b61adff2",
                        "key": "0xbdf20e0b6f81be6fefd0688d23d279d09a4da54f63c41991e8f992ff1990a4e3",
                        "prev": "0x0000000000000000000000000000000000000000000000000000000000000000"
                    }
                ],
                "storageVariables": [
                    {
                        "name": "balances",
                        "type": "mapping(address => uint256)",
                        "value": {
                            "pairs": [
                                {
                                    "key": "0x75a39a62eb818155e1365acf3d8d7163df0ea7e7",
                                    "value": {
                                        "current": "70365926261735957389298",
                                        "prev": "0",
                                        "typeTag": 1
                                    }
                                },
                                {
                                    "key": "0x81f50807faf5238db4c329c7bacae2676dd13f10",
                                    "value": {
                                        "current": "5238578317470442610702",
                                        "prev": "75604504579206400000000",
                                        "typeTag": 1
                                    }
                                }
                            ],
                            "typeTag": 4
                        }
                    }
                ]
            }
        ]
    }
}