{
    "balance_change": {
        "balanceChanges": [
            {
                "account": "0x52bc5c8704d3a7c50636f5b56a22b4daf7337a8a",
                "assets": [
                    {
                        "address": "0xe36df5bb57e80629cfc28a31e5f794071c085eca",
                        "amount": "3,740.625",
                        "iconUrl": "",
                        "isERC1155": false,
                        "isERC721": false,
                        "sign": false,
                        "value": ""
                    }
                ]
            },
            {
                "account": "0x8821fbae8726d62a16f216f167c4fa2557743b4a",
                "assets": [
                    {
                        "address": "0xe36df5bb57e80629cfc28a31e5f794071c085eca",
                        "amount": "3,740.625",
                        "iconUrl": "",
                        "isERC1155": false,
                        "isERC721": false,
                        "sign": true,
                        "value": ""
                    }
                ]
            }
        ]
    },
    "profile": {
        "basic_info": {
            "baseFee": "",
            "blockNumber": 6694719,
            "callData": "0xa9059cbb0000000000000000000000008821fbae8726d62a16f216f167c4fa2557743b4a0000000000000000000000000000000000000000000000cac7999ad1c18e8000",
            "debugEnable": true,
            "errorInfo": "",
            "eventCount": 1,
            "feeRecipient": "0x5a0b54d5dc17e0aadc383d2db43b0a0d3e029c4c",
            "formatValue": "0",
            "gasLimit": 60000,
            "gasPrice": "7.1",
            "gasUsed": 36624,
            "intTxnCount": 0,
            "internalRevert": false,
            "internalRevertMessage": "",
            "isContractCreation": false,
            "isFlashloan": false,
            "maxFee": "",
            "nonce": 0,
            "overwritedBlockNumber": -1,
            "priorityFee": "",
            "receiver": "0xe36df5bb57e80629cfc28a31e5f794071c085eca",
            "revertMessage": "",
            "sender": "0x52bc5c8704d3a7c50636f5b56a22b4daf7337a8a",
            "simulationEnable": true,
            "sourceTxnHash": "0x6d30b3eec920691093414d181ebfeaf5d6e07bbd192370acae9e17da87e9ec5a",
            "status": true,
            "timestamp": "2018-11-13T04:02:39Z",
            "transactionFee": "0.0002600304",
            "txnHash": "0x6d30b3eec920691093414d181ebfeaf5d6e07bbd192370acae9e17da87e9ec5a",
            "txnIndex": 85,
            "type": 0,
            "value": "0"
        },
        "fund_flow": [
            {
                "amount": "3,740.625",
                "from": "0x52bc5c8704d3a7c50636f5b56a22b4daf7337a8a",
                "id": 1,
                "isERC1155": false,
                "isERC721": false,
                "isReverted": false,
                "order": 1,
                "to": "0x8821fbae8726d62a16f216f167c4fa2557743b4a",
                "token": "0xe36df5bb57e80629cfc28a31e5f794071c085eca"
            }
        ],
        "token_infos": [
            {
                "address": "0xc02aaa39b223fe8d0a0e5c4f27ead9083c756cc2",
                "decimals": 18
            },
            {
                "address": "0xe36df5bb57e80629cfc28a31e5f794071c085eca",
                "decimals": 18
            },
            {
                "address": "0xeeeeeeeeeeeeeeeeeeeeeeeeeeeeeeeeeeeeeeee",
                "decimals": 18
            }
        ]
    },
    "address_label": {
        "labels": [
            {
                "address": "0x0000000000000000000000000000000000000002",
                "label": "Precompiled"
            },
            {
                "address": "0x0000000000000000000000000000000000000003",
                "label": "Precompiled"
            },
            {
                "address": "0x0000000000000000000000000000000000000004",
                "label": "Precompiled"
            },
            {
                "address": "0xeeeeeeeeeeeeeeeeeeeeeeeeeeeeeeeeeeeeeeee",
                "label": "Ether"
            },
            {
                "address": "0xe36df5bb57e80629cfc28a31e5f794071c085eca",
                "label": "BCAChain: Old Token"
            },
            {
                "address": "0x0000000000000000000000000000000000000001",
                "label": "Precompiled"
            }
        ]
    },
    "trace": {
        "accountLabels": null,
        "dataMap": {
            "-1": {
                "invocation": {
                    "address": "0x52bc5c8704d3a7c50636f5b56a22b4daf7337a8a",
                    "callData": "",
                    "decodedMethod": null,
                    "errorInfo": "",
                    "fromAddress": "",
                    "gasUsed": 0,
                    "id": -1,
                    "methodDecoded": false,
                    "operation": "",
                    "output": "",
                    "revert": false,
                    "revertMessage": "",
                    "selector": "",
                    "status": false,
                    "value": ""
                },
                "nodeType": 0
            },
            "0": {
                "invocation": {
                    "address": "0xe36df5bb57e80629cfc28a31e5f794071c085eca",
                    "callData": "0x0000000000000000000000008821fbae8726d62a16f216f167c4fa2557743b4a0000000000000000000000000000000000000000000000cac7999ad1c18e8000",
                    "decodedMethod": {
                        "callParams": [
                            {
                                "name": "to",
                                "type": "address",
                                "value": "0x8821fbae8726d62a16f216f167c4fa2557743b4a"
                            },
                            {
                                "decimalAvailable": true,
                                "name": "tokens",
                                "type": "uint256",
                                "value": "3,740,625,000,000,000,000,000"
                            }
                        ],
                        "constructorArguments": "",
                        "name": "transfer",
                        "returnParams": [
                            {
                                "name": "success",
                                "type": "bool",
                                "value": true
                            }
                        ],
                        "signature": "transfer(address,uint256)"
                    },
                    "errorInfo": "",
                    "fromAddress": "0x52bc5c8704d3a7c50636f5b56a22b4daf7337a8a",
                    "gasUsed": 36624,
                    "id": 0,
                    "methodDecoded": true,
                    "operation": "CALL",
                    "output": "0x0000000000000000000000000000000000000000000000000000000000000001",
                    "revert": false,
                    "revertMessage": "",
                    "selector": "0xa9059cbb",
                    "status": true,
                    "value": "0"
                },
                "nodeType": 0
            },
            "1": {
                "event": {
                    "contract": "0xe36df5bb57e80629cfc28a31e5f794071c085eca",
                    "decodedLog": {
                        "name": "Transfer",
                        "params": [
                            {
                                "name": "from",
                                "type": "address",
                                "value": "0x52bc5c8704d3a7c50636f5b56a22b4daf7337a8a"
                            },
                            {
                                "name": "to",
                                "type": "address",
                                "value": "0x8821fbae8726d62a16f216f167c4fa2557743b4a"
                            },
                            {
                                "decimalAvailable": true,
                                "name": "tokens",
                                "type": "uint256",
                                "value": "3,740,625,000,000,000,000,000"
                            }
                        ],
                        "signature": "Transfer(address,address,uint256)"
                    },
                    "id": 1,
                    "logData": "0x0000000000000000000000000000000000000000000000cac7999ad1c18e8000",
                    "logDecoded": true,
                    "operation": "EVENT",
                    "revert": false,
                    "status": true,
                    "topics": [
                        "0xddf252ad1be2c89b69c2b068fc378daa952ba7f163c4a11628f55a4df523b3ef",
                        "0x00000000000000000000000052bc5c8704d3a7c50636f5b56a22b4daf7337a8a",
                        "0x0000000000000000000000008821fbae8726d62a16f216f167c4fa2557743b4a"
                    ]
                },
                "nodeType": 1
            }
        },
        "gasFlame": [
            {
                "children": [
                    {
                        "children": [
                            {
                                "children": [],
                                "depth": 0,
                                "name": "Initial Gas",
                                "value": 23320
                            },
                            {
                                "children": [],
                                "depth": 0,
                                "name": "Executed Gas",
                                "value": 28304
                            }
                        ],
                        "depth": -1,
                        "name": "Actual Gas Used",
                        "value": 36624
                    },
                    {
                        "children": [],
                        "depth": -1,
                        "name": "Refunded Gas",
                        "value": 15000
                    }
                ],
                "depth": -2,
                "name": "Total Gas",
                "value": 51624
            }
        ],
        "isConfirmed": true,
        "mainTrace": [
            {
                "children": [
                    {
                        "children": [
                            {
                                "children": [],
                                "depth": 1,
                                "id": 1,
                                "order": 1
                            }
                        ],
                        "depth": 0,
                        "id": 0,
                        "order": 0
                    }
                ],
                "depth": -1,
                "id": -1,
                "order": -1
            }
        ],
        "mainTraceNodeCount": 2,
        "parentIdMap": {
            "0": -1,
            "1": 0
        },
        "tidyTrace": [
            {
                "children": [
                    {
                        "children": [
                            {
                                "children": [],
                                "depth": 1,
                                "id": 1,
                                "order": 1
                            }
                        ],
                        "depth": 0,
                        "id": 0,
                        "order": 0
                    }
                ],
                "depth": -1,
                "id": -1,
                "order": -1
            }
        ],
        "tidyTraceNodeCount": 2
    },
    "state_change": {
        "stateChanges": [
            {
                "address": "0xe36df5bb57e80629cfc28a31e5f794071c085eca",
                "erc": "ERC-20",
                "slots": [
                    {
                        "current": "0x0000000000000000000000000000000000000000000000000000000000000000",
                        "key": "0x9b0295b6bd8a3ee2b94c74f05e21914621b236114c7cd131aa0f8f0f735ddea5",
                        "prev": "0x0000000000000000000000000000000000000000000000cac7999ad1c18e8000"
                    },
                    {
                        "current": "0x0000000000000000000000000000000000000000000000cac7999ad1c18e8000",
                        "key": "0xb297195c284997829db64e802c6b27315a0016e348616b9d3b5b9b9b294ed4b4",
                        "prev": "0x0000000000000000000000000000000000000000000000000000000000000000"
                    }
                ],
                "storageVariables": [
                    {
                        "name": "balances",
                        "type": "mapping(address => uint256)",
                        "value": {
                            "pairs": [
                                {
                                    "key": "0x52bc5c8704d3a7c50636f5b56a22b4daf7337a8a",
                                    "value": {
                                        "current": "0",
                                        "prev": "3740625000000000000000",
                                        "typeTag": 1
                                    }
                                },
                                {
                                    "key": "0x8821fbae8726d62a16f216f167c4fa2557743b4a",
                                    "value": {
                                        "current": "3740625000000000000000",
                                        "prev": "0",
                                        "typeTag": 1
                                    }
                                }
                            ],
                            "typeTag": 4
                        }
                    }
                ]
            }
        ]
    }
}