{
    "balance_change": {
        "balanceChanges": [
            {
                "account": "0x3c4a40be0c5871ff5e150701c031a27aaa750d16",
                "assets": [
                    {
                        "address": "0xdc97c8a2aeb281af14a755d8f6b0c6bd7debbdf7",
                        "amount": "100",
                        "iconUrl": "",
                        "isERC1155": false,
                        "isERC721": false,
                        "sign": false,
                        "value": ""
                    }
                ]
            },
            {
                "account": "0xd83cf49d787dc9a56147b246d44c6622b6703fef",
                "assets": [
                    {
                        "address": "0xdc97c8a2aeb281af14a755d8f6b0c6bd7debbdf7",
                        "amount": "100",
                        "iconUrl": "",
                        "isERC1155": false,
                        "isERC721": false,
                        "sign": true,
                        "value": ""
                    }
                ]
            }
        ]
    },
    "profile": {
        "basic_info": {
            "baseFee": "",
            "blockNumber": 8681728,
            "callData": "0xa9059cbb000000000000000000000000d83cf49d787dc9a56147b246d44c6622b6703fef0000000000000000000000000000000000000000000000056bc75e2d63100000",
            "debugEnable": true,
            "errorInfo": "",
            "eventCount": 1,
            "feeRecipient": "0x52bc44d5378309ee2abf1539bf71de1b7d7be3b5",
            "formatValue": "0",
            "gasLimit": 100000,
            "gasPrice": "0.2",
            "gasUsed": 22928,
            "intTxnCount": 0,
            "internalRevert": false,
            "internalRevertMessage": "",
            "isContractCreation": false,
            "isFlashloan": false,
            "maxFee": "",
            "nonce": 40,
            "overwritedBlockNumber": -1,
            "priorityFee": "",
            "receiver": "0xdc97c8a2aeb281af14a755d8f6b0c6bd7debbdf7",
            "revertMessage": "",
            "sender": "0x3c4a40be0c5871ff5e150701c031a27aaa750d16",
            "simulationEnable": true,
            "sourceTxnHash": "0x6dd7fbf192c2fd720cd62c10a54413d58ab3115d284c1d16ef528b1280d93504",
            "status": true,
            "timestamp": "2019-10-05T11:12:34Z",
            "transactionFee": "0.0000045856",
            "txnHash": "0x6dd7fbf192c2fd720cd62c10a54413d58ab3115d284c1d16ef528b1280d93504",
            "txnIndex": 14,
            "type": 0,
            "value": "0"
        },
        "fund_flow": [
            {
                "amount": "100",
                "from": "0x3c4a40be0c5871ff5e150701c031a27aaa750d16",
                "id": 1,
                "isERC1155": false,
                "isERC721": false,
                "isReverted": false,
                "order": 1,
                "to": "0xd83cf49d787dc9a56147b246d44c6622b6703fef",
                "token": "0xdc97c8a2aeb281af14a755d8f6b0c6bd7debbdf7"
            }
        ],
        "token_infos": [
            {
                "address": "0xc02aaa39b223fe8d0a0e5c4f27ead9083c756cc2",
                "decimals": 18
            },
            {
                "address": "0xdc97c8a2aeb281af14a755d8f6b0c6bd7debbdf7",
                "decimals": 18
            },
            {
                "address": "0xeeeeeeeeeeeeeeeeeeeeeeeeeeeeeeeeeeeeeeee",
                "decimals": 18
            }
        ]
    },
    "address_label": {
        "labels": [
            {
                "address": "0xeeeeeeeeeeeeeeeeeeeeeeeeeeeeeeeeeeeeeeee",
                "label": "Ether"
            },
            {
                "address": "0xdc97c8a2aeb281af14a755d8f6b0c6bd7debbdf7",
                "label": "UZ"
            },
            {
                "address": "0x0000000000000000000000000000000000000001",
                "label": "Precompiled"
            },
            {
                "address": "0x0000000000000000000000000000000000000002",
                "label": "Precompiled"
            },
            {
                "address": "0x0000000000000000000000000000000000000003",
                "label": "Precompiled"
            },
            {
                "address": "0x0000000000000000000000000000000000000004",
                "label": "Precompiled"
            }
        ]
    },
    "trace": {
        "accountLabels": null,
        "dataMap": {
            "-1": {
                "invocation": {
                    "address": "0x3c4a40be0c5871ff5e150701c031a27aaa750d16",
                    "callData": "",
                    "decodedMethod": null,
                    "errorInfo": "",
                    "fromAddress": "",
                    "gasUsed": 0,
                    "id": -1,
                    "methodDecoded": false,
                    "operation": "",
                    "output": "",
                    "revert": false,
                    "revertMessage": "",
                    "selector": "",
                    "status": false,
                    "value": ""
                },
                "nodeType": 0
            },
            "0": {
                "invocation": {
                    "address": "0xdc97c8a2aeb281af14a755d8f6b0c6bd7debbdf7",
                    "callData": "0x000000000000000000000000d83cf49d787dc9a56147b246d44c6622b6703fef0000000000000000000000000000000000000000000000056bc75e2d63100000",
                    "decodedMethod": {
                        "callParams": [
                            {
                                "name": "_to",
                                "type": "address",
                                "value": "0xd83cf49d787dc9a56147b246d44c6622b6703fef"
                            },
                            {
                                "decimalAvailable": true,
                                "name": "_value",
                                "type": "uint256",
                                "value": "100,000,000,000,000,000,000"
                            }
                        ],
                        "constructorArguments": "",
                        "name": "transfer",
                        "returnParams": [],
                        "signature": "transfer(address,uint256)"
                    },
                    "errorInfo": "",
                    "fromAddress": "0x3c4a40be0c5871ff5e150701c031a27aaa750d16",
                    "gasUsed": 22928,
                    "id": 0,
                    "methodDecoded": true,
                    "operation": "CALL",
                    "output": "",
                    "revert": false,
                    "revertMessage": "",
                    "selector": "0xa9059cbb",
                    "status": true,
                    "value": "0"
                },
                "nodeType": 0
            },
            "1": {
                "event": {
                    "contract": "0xdc97c8a2aeb281af14a755d8f6b0c6bd7debbdf7",
                    "decodedLog": {
                        "name": "Transfer",
                        "params": [
                            {
                                "name": "from",
                                "type": "address",
                                "value": "0x3c4a40be0c5871ff5e150701c031a27aaa750d16"
                            },
                            {
                                "name": "to",
                                "type": "address",
                                "value": "0xd83cf49d787dc9a56147b246d44c6622b6703fef"
                            },
                            {
                                "decimalAvailable": true,
                                "name": "value",
                                "type": "uint256",
                                "value": "100,000,000,000,000,000,000"
                            }
                        ],
                        "signature": "Transfer(address,address,uint256)"
                    },
                    "id": 1,
                    "logData": "0x0000000000000000000000000000000000000000000000056bc75e2d63100000",
                    "logDecoded": true,
                    "operation": "EVENT",
                    "revert": false,
                    "status": true,
                    "topics": [
                        "0xddf252ad1be2c89b69c2b068fc378daa952ba7f163c4a11628f55a4df523b3ef",
                        "0x0000000000000000000000003c4a40be0c5871ff5e150701c031a27aaa750d16",
                        "0x000000000000000000000000d83cf49d787dc9a56147b246d44c6622b6703fef"
                    ]
                },
                "nodeType": 1
            }
        },
        "gasFlame": [
            {
                "children": [
                    {
                        "children": [
                            {
                                "children": [],
                                "depth": 0,
                                "name": "Initial Gas",
                                "value": 23256
                            },
                            {
                                "children": [],
                                "depth": 0,
                                "name": "Executed Gas",
                                "value": 14672
                            }
                        ],
                        "depth": -1,
                        "name": "Actual Gas Used",
                        "value": 22928
                    },
                    {
                        "children": [],
                        "depth": -1,
                        "name": "Refunded Gas",
                        "value": 15000
                    }
                ],
                "depth": -2,
                "name": "Total Gas",
                "value": 37928
            }
        ],
        "isConfirmed": true,
        "mainTrace": [
            {
                "children": [
                    {
                        "children": [
                            {
                                "children": [],
                                "depth": 1,
                                "id": 1,
                                "order": 1
                            }
                        ],
                        "depth": 0,
                        "id": 0,
                        "order": 0
                    }
                ],
                "depth": -1,
                "id": -1,
                "order": -1
            }
        ],
        "mainTraceNodeCount": 2,
        "parentIdMap": {
            "0": -1,
            "1": 0
        },
        "tidyTrace": [
            {
                "children": [
                    {
                        "children": [
                            {
                                "children": [],
                                "depth": 1,
                                "id": 1,
                                "order": 1
                            }
                        ],
                        "depth": 0,
                        "id": 0,
                        "order": 0
                    }
                ],
                "depth": -1,
                "id": -1,
                "order": -1
            }
        ],
        "tidyTraceNodeCount": 2
    },
    "state_change": {
        "stateChanges": [
            {
                "address": "0xdc97c8a2aeb281af14a755d8f6b0c6bd7debbdf7",
                "erc": "",
                "slots": [
                    {
                        "current": "0x0000000000000000000000000000000000000000000000000000000000000000",
                        "key": "0xec139637c2e6aa1ccecef2a2c009c17baa9141120cb459fb016e4f1b90ebc865",
                        "prev": "0x0000000000000000000000000000000000000000000000056bc75e2d63100000"
                    },
                    {
                        "current": "0x000000000000000000000000000000000000000000001849e642f55ad8b00000",
                        "key": "0x05513620041220242e753bfc30aa5ec2a7fe40f00dff21e6a84d893300fe6601",
                        "prev": "0x0000000000000000000000000000000000000000000018447a7b972d75a00000"
                    }
                ],
                "storageVariables": []
            }
        ]
    }
}