{
    "balance_change": {
        "balanceChanges": [
            {
                "account": "0xab782bc7d4a2b306825de5a7730034f8f63ee1bc",
                "assets": [
                    {
                        "address": "0xc03fbf20a586fa89c2a5f6f941458e1fbc40c661",
                        "amount": "49,039.41",
                        "iconUrl": "",
                        "isERC1155": false,
                        "isERC721": false,
                        "sign": false,
                        "value": "54.46728813"
                    }
                ]
            },
            {
                "account": "0x29984d1f9055cafb02dcdd53c54b727902e44975",
                "assets": [
                    {
                        "address": "0xc03fbf20a586fa89c2a5f6f941458e1fbc40c661",
                        "amount": "49,039.41",
                        "iconUrl": "",
                        "isERC1155": false,
                        "isERC721": false,
                        "sign": true,
                        "value": "54.46728813"
                    }
                ]
            }
        ]
    },
    "profile": {
        "basic_info": {
            "baseFee": "19.967143548",
            "blockNumber": 20032589,
            "callData": "0xa9059cbb00000000000000000000000029984d1f9055cafb02dcdd53c54b727902e44975000000000000000000000000000000000000000000000a626e86b51202c50000",
            "debugEnable": true,
            "errorInfo": "",
            "eventCount": 1,
            "feeRecipient": "0x11533081d7352cef5cd40a401ce220e76936f0c5",
            "formatValue": "0",
            "gasLimit": 68013,
            "gasPrice": "25.426893856",
            "gasUsed": 55873,
            "intTxnCount": 0,
            "internalRevert": false,
            "internalRevertMessage": "",
            "isContractCreation": false,
            "isFlashloan": false,
            "maxFee": "29.365041436",
            "nonce": 352356,
            "overwritedBlockNumber": -1,
            "priorityFee": "5.459750308",
            "receiver": "0xc03fbf20a586fa89c2a5f6f941458e1fbc40c661",
            "revertMessage": "",
            "sender": "0xab782bc7d4a2b306825de5a7730034f8f63ee1bc",
            "simulationEnable": true,
            "sourceTxnHash": "0x6d86190fef6101346c5f55915501cbe99aeb552b09b6b66d9128e52ce64977fa",
            "status": true,
            "timestamp": "2024-06-06T11:48:35Z",
            "transactionFee": "0.001420676840416288",
            "txnHash": "0x6d86190fef6101346c5f55915501cbe99aeb552b09b6b66d9128e52ce64977fa",
            "txnIndex": 45,
            "type": 2,
            "value": "0"
        },
        "fund_flow": [
            {
                "amount": "49,039.41",
                "from": "0xab782bc7d4a2b306825de5a7730034f8f63ee1bc",
                "id": 1,
                "isERC1155": false,
                "isERC721": false,
                "isReverted": false,
                "order": 1,
                "to": "0x29984d1f9055cafb02dcdd53c54b727902e44975",
                "token": "0xc03fbf20a586fa89c2a5f6f941458e1fbc40c661"
            }
        ],
        "token_infos": [
            {
                "address": "0xc02aaa39b223fe8d0a0e5c4f27ead9083c756cc2",
                "decimals": 18
            },
            {
                "address": "0xc03fbf20a586fa89c2a5f6f941458e1fbc40c661",
                "decimals": 18
            },
            {
                "address": "0xeeeeeeeeeeeeeeeeeeeeeeeeeeeeeeeeeeeeeeee",
                "decimals": 18
            }
        ]
    },
    "address_label": {
        "labels": [
            {
                "address": "0x0000000000000000000000000000000000000004",
                "label": "Precompiled"
            },
            {
                "address": "0xeeeeeeeeeeeeeeeeeeeeeeeeeeeeeeeeeeeeeeee",
                "label": "Ether"
            },
            {
                "address": "0xab782bc7d4a2b306825de5a7730034f8f63ee1bc",
                "label": "Bitvavo: Hot 3"
            },
            {
                "address": "0xc03fbf20a586fa89c2a5f6f941458e1fbc40c661",
                "label": "Combo Network: COMBO Token"
            },
            {
                "address": "0x29984d1f9055cafb02dcdd53c54b727902e44975",
                "label": "BINANCE"
            },
            {
                "address": "0x0000000000000000000000000000000000000001",
                "label": "Precompiled"
            },
            {
                "address": "0x0000000000000000000000000000000000000002",
                "label": "Precompiled"
            },
            {
                "address": "0x0000000000000000000000000000000000000003",
                "label": "Precompiled"
            }
        ]
    },
    "trace": {
        "accountLabels": null,
        "dataMap": {
            "-1": {
                "invocation": {
                    "address": "0xab782bc7d4a2b306825de5a7730034f8f63ee1bc",
                    "callData": "",
                    "decodedMethod": null,
                    "errorInfo": "",
                    "fromAddress": "",
                    "gasUsed": 0,
                    "id": -1,
                    "methodDecoded": false,
                    "operation": "",
                    "output": "",
                    "revert": false,
                    "revertMessage": "",
                    "selector": "",
                    "status": false,
                    "value": ""
                },
                "nodeType": 0
            },
            "0": {
                "invocation": {
                    "address": "0xc03fbf20a586fa89c2a5f6f941458e1fbc40c661",
                    "callData": "0x00000000000000000000000029984d1f9055cafb02dcdd53c54b727902e44975000000000000000000000000000000000000000000000a626e86b51202c50000",
                    "decodedMethod": {
                        "callParams": [
                            {
                                "name": "to",
                                "type": "address",
                                "value": "0x29984d1f9055cafb02dcdd53c54b727902e44975"
                            },
                            {
                                "decimalAvailable": true,
                                "name": "amount",
                                "type": "uint256",
                                "value": "49,039,410,000,000,000,000,000"
                            }
                        ],
                        "constructorArguments": "",
                        "name": "transfer",
                        "returnParams": [
                            {
                                "name": "",
                                "type": "bool",
                                "value": true
                            }
                        ],
                        "signature": "transfer(address,uint256)"
                    },
                    "errorInfo": "",
                    "fromAddress": "0xab782bc7d4a2b306825de5a7730034f8f63ee1bc",
                    "gasUsed": 55873,
                    "id": 0,
                    "methodDecoded": true,
                    "operation": "CALL",
                    "output": "0x0000000000000000000000000000000000000000000000000000000000000001",
                    "revert": false,
                    "revertMessage": "",
                    "selector": "0xa9059cbb",
                    "status": true,
                    "value": "0"
                },
                "nodeType": 0
            },
            "1": {
                "event": {
                    "contract": "0xc03fbf20a586fa89c2a5f6f941458e1fbc40c661",
                    "decodedLog": {
                        "name": "Transfer",
                        "params": [
                            {
                                "name": "from",
                                "type": "address",
                                "value": "0xab782bc7d4a2b306825de5a7730034f8f63ee1bc"
                            },
                            {
                                "name": "to",
                                "type": "address",
                                "value": "0x29984d1f9055cafb02dcdd53c54b727902e44975"
                            },
                            {
                                "decimalAvailable": true,
                                "name": "value",
                                "type": "uint256",
                                "value": "49,039,410,000,000,000,000,000"
                            }
                        ],
                        "signature": "Transfer(address,address,uint256)"
                    },
                    "id": 1,
                    "logData": "0x000000000000000000000000000000000000000000000a626e86b51202c50000",
                    "logDecoded": true,
                    "operation": "EVENT",
                    "revert": false,
                    "status": true,
                    "topics": [
                        "0xddf252ad1be2c89b69c2b068fc378daa952ba7f163c4a11628f55a4df523b3ef",
                        "0x000000000000000000000000ab782bc7d4a2b306825de5a7730034f8f63ee1bc",
                        "0x00000000000000000000000029984d1f9055cafb02dcdd53c54b727902e44975"
                    ]
                },
                "nodeType": 1
            }
        },
        "gasFlame": [
            {
                "children": [
                    {
                        "children": [
                            {
                                "children": [],
                                "depth": 0,
                                "name": "Initial Gas",
                                "value": 21656
                            },
                            {
                                "children": [],
                                "depth": 0,
                                "name": "Executed Gas",
                                "value": 34217
                            }
                        ],
                        "depth": -1,
                        "name": "Actual Gas Used",
                        "value": 55873
                    },
                    {
                        "children": [],
                        "depth": -1,
                        "name": "Refunded Gas",
                        "value": 0
                    }
                ],
                "depth": -2,
                "name": "Total Gas",
                "value": 55873
            }
        ],
        "isConfirmed": true,
        "mainTrace": [
            {
                "children": [
                    {
                        "children": [
                            {
                                "children": [],
                                "depth": 1,
                                "id": 1,
                                "order": 1
                            }
                        ],
                        "depth": 0,
                        "id": 0,
                        "order": 0
                    }
                ],
                "depth": -1,
                "id": -1,
                "order": -1
            }
        ],
        "mainTraceNodeCount": 2,
        "parentIdMap": {
            "0": -1,
            "1": 0
        },
        "tidyTrace": [
            {
                "children": [
                    {
                        "children": [
                            {
                                "children": [],
                                "depth": 1,
                                "id": 1,
                                "order": 1
                            }
                        ],
                        "depth": 0,
                        "id": 0,
                        "order": 0
                    }
                ],
                "depth": -1,
                "id": -1,
                "order": -1
            }
        ],
        "tidyTraceNodeCount": 2
    },
    "state_change": {
        "stateChanges": [
            {
                "address": "0xc03fbf20a586fa89c2a5f6f941458e1fbc40c661",
                "erc": "ERC-20",
                "slots": [
                    {
                        "current": "0x000000000000000000000000000000000000000000000a626e86b51202c50000",
                        "key": "0x72db6ac7b69ff68c17267e48544d1af8aa2c02361292d0080129dec9ede2dcd7",
                        "prev": "0x0000000000000000000000000000000000000000000000000000000000000000"
                    },
                    {
                        "current": "0x0000000000000000000000000000000000000000000091bc158a28f29c140000",
                        "key": "0xdd377f47cdf583be2b4c0b4a46bbaf300ddb345d0269cb36df453bd31a452bad",
                        "prev": "0x000000000000000000000000000000000000000000009c1e8410de049ed90000"
                    }
                ],
                "storageVariables": [
                    {
                        "name": "_balances",
                        "type": "mapping(address => uint256)",
                        "value": {
                            "pairs": [
                                {
                                    "key": "0x29984d1f9055cafb02dcdd53c54b727902e44975",
                                    "value": {
                                        "current": "49039410000000000000000",
                                        "prev": "0",
                                        "typeTag": 1
                                    }
                                },
                                {
                                    "key": "0xab782bc7d4a2b306825de5a7730034f8f63ee1bc",
                                    "value": {
                                        "current": "688212680000000000000000",
                                        "prev": "737252090000000000000000",
                                        "typeTag": 1
                                    }
                                }
                            ],
                            "typeTag": 4
                        }
                    }
                ]
            }
        ]
    }
}