{
    "balance_change": {
        "balanceChanges": [
            {
                "account": "0x9ac1e6b22de0f29d94eb38ba94c4d079f8042dcd",
                "assets": [
                    {
                        "address": "0xbb340a2eaf55c5e67a5a05fe5ceed9b9702d76f4",
                        "amount": "25.8770475",
                        "iconUrl": "",
                        "isERC1155": false,
                        "isERC721": false,
                        "sign": false,
                        "value": ""
                    }
                ]
            },
            {
                "account": "0x5b3edb75eda1a03c304570c2a94f6ee453ad249f",
                "assets": [
                    {
                        "address": "0xbb340a2eaf55c5e67a5a05fe5ceed9b9702d76f4",
                        "amount": "25.8770475",
                        "iconUrl": "",
                        "isERC1155": false,
                        "isERC721": false,
                        "sign": true,
                        "value": ""
                    }
                ]
            }
        ]
    },
    "profile": {
        "basic_info": {
            "baseFee": "",
            "blockNumber": 7452147,
            "callData": "0xa9059cbb0000000000000000000000005b3edb75eda1a03c304570c2a94f6ee453ad249f000000000000000000000000000000000000000000000000000000009a3d3dae",
            "debugEnable": true,
            "errorInfo": "",
            "eventCount": 1,
            "feeRecipient": "0x829bd824b016326a401d083b33d092293333a830",
            "formatValue": "0",
            "gasLimit": 57789,
            "gasPrice": "15",
            "gasUsed": 52535,
            "intTxnCount": 0,
            "internalRevert": false,
            "internalRevertMessage": "",
            "isContractCreation": false,
            "isFlashloan": false,
            "maxFee": "",
            "nonce": 230,
            "overwritedBlockNumber": -1,
            "priorityFee": "",
            "receiver": "0xbb340a2eaf55c5e67a5a05fe5ceed9b9702d76f4",
            "revertMessage": "",
            "sender": "0x9ac1e6b22de0f29d94eb38ba94c4d079f8042dcd",
            "simulationEnable": true,
            "sourceTxnHash": "0x6dc25c75895b464511b4811a858defadb2d50a866e2687417a638cb0f9000736",
            "status": true,
            "timestamp": "2019-03-27T18:10:18Z",
            "transactionFee": "0.000788025",
            "txnHash": "0x6dc25c75895b464511b4811a858defadb2d50a866e2687417a638cb0f9000736",
            "txnIndex": 8,
            "type": 0,
            "value": "0"
        },
        "fund_flow": [
            {
                "amount": "25.8770475",
                "from": "0x9ac1e6b22de0f29d94eb38ba94c4d079f8042dcd",
                "id": 1,
                "isERC1155": false,
                "isERC721": false,
                "isReverted": false,
                "order": 1,
                "to": "0x5b3edb75eda1a03c304570c2a94f6ee453ad249f",
                "token": "0xbb340a2eaf55c5e67a5a05fe5ceed9b9702d76f4"
            }
        ],
        "token_infos": [
            {
                "address": "0xbb340a2eaf55c5e67a5a05fe5ceed9b9702d76f4",
                "decimals": 8
            },
            {
                "address": "0xc02aaa39b223fe8d0a0e5c4f27ead9083c756cc2",
                "decimals": 18
            },
            {
                "address": "0xeeeeeeeeeeeeeeeeeeeeeeeeeeeeeeeeeeeeeeee",
                "decimals": 18
            }
        ]
    },
    "address_label": {
        "labels": [
            {
                "address": "0x0000000000000000000000000000000000000004",
                "label": "Precompiled"
            },
            {
                "address": "0xeeeeeeeeeeeeeeeeeeeeeeeeeeeeeeeeeeeeeeee",
                "label": "Ether"
            },
            {
                "address": "0xbb340a2eaf55c5e67a5a05fe5ceed9b9702d76f4",
                "label": "Bolttcoin.io: BOLTT Token"
            },
            {
                "address": "0x0000000000000000000000000000000000000001",
                "label": "Precompiled"
            },
            {
                "address": "0x0000000000000000000000000000000000000002",
                "label": "Precompiled"
            },
            {
                "address": "0x0000000000000000000000000000000000000003",
                "label": "Precompiled"
            }
        ]
    },
    "trace": {
        "accountLabels": null,
        "dataMap": {
            "-1": {
                "invocation": {
                    "address": "0x9ac1e6b22de0f29d94eb38ba94c4d079f8042dcd",
                    "callData": "",
                    "decodedMethod": null,
                    "errorInfo": "",
                    "fromAddress": "",
                    "gasUsed": 0,
                    "id": -1,
                    "methodDecoded": false,
                    "operation": "",
                    "output": "",
                    "revert": false,
                    "revertMessage": "",
                    "selector": "",
                    "status": false,
                    "value": ""
                },
                "nodeType": 0
            },
            "0": {
                "invocation": {
                    "address": "0xbb340a2eaf55c5e67a5a05fe5ceed9b9702d76f4",
                    "callData": "0x0000000000000000000000005b3edb75eda1a03c304570c2a94f6ee453ad249f000000000000000000000000000000000000000000000000000000009a3d3dae",
                    "decodedMethod": {
                        "callParams": [
                            {
                                "name": "_to",
                                "type": "address",
                                "value": "0x5b3edb75eda1a03c304570c2a94f6ee453ad249f"
                            },
                            {
                                "decimalAvailable": true,
                                "name": "_value",
                                "type": "uint256",
                                "value": "2,587,704,750"
                            }
                        ],
                        "constructorArguments": "",
                        "name": "transfer",
                        "returnParams": [
                            {
                                "name": "success",
                                "type": "bool",
                                "value": true
                            }
                        ],
                        "signature": "transfer(address,uint256)"
                    },
                    "errorInfo": "",
                    "fromAddress": "0x9ac1e6b22de0f29d94eb38ba94c4d079f8042dcd",
                    "gasUsed": 52535,
                    "id": 0,
                    "methodDecoded": true,
                    "operation": "CALL",
                    "output": "0x0000000000000000000000000000000000000000000000000000000000000001",
                    "revert": false,
                    "revertMessage": "",
                    "selector": "0xa9059cbb",
                    "status": true,
                    "value": "0"
                },
                "nodeType": 0
            },
            "1": {
                "event": {
                    "contract": "0xbb340a2eaf55c5e67a5a05fe5ceed9b9702d76f4",
                    "decodedLog": {
                        "name": "Transfer",
                        "params": [
                            {
                                "name": "from",
                                "type": "address",
                                "value": "0x9ac1e6b22de0f29d94eb38ba94c4d079f8042dcd"
                            },
                            {
                                "name": "to",
                                "type": "address",
                                "value": "0x5b3edb75eda1a03c304570c2a94f6ee453ad249f"
                            },
                            {
                                "decimalAvailable": true,
                                "name": "value",
                                "type": "uint256",
                                "value": "2,587,704,750"
                            }
                        ],
                        "signature": "Transfer(address,address,uint256)"
                    },
                    "id": 1,
                    "logData": "0x000000000000000000000000000000000000000000000000000000009a3d3dae",
                    "logDecoded": true,
                    "operation": "EVENT",
                    "revert": false,
                    "status": true,
                    "topics": [
                        "0xddf252ad1be2c89b69c2b068fc378daa952ba7f163c4a11628f55a4df523b3ef",
                        "0x0000000000000000000000009ac1e6b22de0f29d94eb38ba94c4d079f8042dcd",
                        "0x0000000000000000000000005b3edb75eda1a03c304570c2a94f6ee453ad249f"
                    ]
                },
                "nodeType": 1
            }
        },
        "gasFlame": [
            {
                "children": [
                    {
                        "children": [
                            {
                                "children": [],
                                "depth": 0,
                                "name": "Initial Gas",
                                "value": 23064
                            },
                            {
                                "children": [],
                                "depth": 0,
                                "name": "Executed Gas",
                                "value": 29471
                            }
                        ],
                        "depth": -1,
                        "name": "Actual Gas Used",
                        "value": 52535
                    },
                    {
                        "children": [],
                        "depth": -1,
                        "name": "Refunded Gas",
                        "value": 0
                    }
                ],
                "depth": -2,
                "name": "Total Gas",
                "value": 52535
            }
        ],
        "isConfirmed": true,
        "mainTrace": [
            {
                "children": [
                    {
                        "children": [
                            {
                                "children": [],
                                "depth": 1,
                                "id": 1,
                                "order": 1
                            }
                        ],
                        "depth": 0,
                        "id": 0,
                        "order": 0
                    }
                ],
                "depth": -1,
                "id": -1,
                "order": -1
            }
        ],
        "mainTraceNodeCount": 2,
        "parentIdMap": {
            "0": -1,
            "1": 0
        },
        "tidyTrace": [
            {
                "children": [
                    {
                        "children": [
                            {
                                "children": [],
                                "depth": 1,
                                "id": 1,
                                "order": 1
                            }
                        ],
                        "depth": 0,
                        "id": 0,
                        "order": 0
                    }
                ],
                "depth": -1,
                "id": -1,
                "order": -1
            }
        ],
        "tidyTraceNodeCount": 2
    },
    "state_change": {
        "stateChanges": [
            {
                "address": "0xbb340a2eaf55c5e67a5a05fe5ceed9b9702d76f4",
                "erc": "ERC-20",
                "slots": [
                    {
                        "current": "0x0000000000000000000000000000000000000000000000000000008054657c69",
                        "key": "0x39258d015de92fb1fc841b8b1450b2115d110cff4f1e4780330eedb540f25556",
                        "prev": "0x00000000000000000000000000000000000000000000000000000080eea2ba17"
                    },
                    {
                        "current": "0x000000000000000000000000000000000000000000000000000000009a3d3dae",
                        "key": "0x01cad0c582ef7ae5b0c26b994412c3fd118bdaa850bf31ed41f23dc924756006",
                        "prev": "0x0000000000000000000000000000000000000000000000000000000000000000"
                    }
                ],
                "storageVariables": [
                    {
                        "name": "balances",
                        "type": "mapping(address => uint256)",
                        "value": {
                            "pairs": [
                                {
                                    "key": "0x5b3edb75eda1a03c304570c2a94f6ee453ad249f",
                                    "value": {
                                        "current": "2587704750",
                                        "prev": "0",
                                        "typeTag": 1
                                    }
                                },
                                {
                                    "key": "0x9ac1e6b22de0f29d94eb38ba94c4d079f8042dcd",
                                    "value": {
                                        "current": "551171751017",
                                        "prev": "553759455767",
                                        "typeTag": 1
                                    }
                                }
                            ],
                            "typeTag": 4
                        }
                    }
                ]
            }
        ]
    }
}