{
    "balance_change": {
        "balanceChanges": []
    },
    "profile": {
        "basic_info": {
            "baseFee": "",
            "blockNumber": 12888256,
            "callData": "0x2036a94dcccccccc2862b8cb21caedb8706d7f8b3445d8dfc790c524e3990ef014e7c578000000000000000000000000706d7f8b3445d8dfc790c524e3990ef014e7c578000000000000000000000000706d7f8b3445d8dfc790c524e3990ef014e7c57800000000000000000000000000000000000000000000000868e15a4b8e477d0a00000000000000000000000000000000000000000000000000000000000000c000000000000000000000000000000000000000000000000000000000000001200000000000000000000000000000000000000000000000000000000000000040ffffffffffffffffffffffffffffffffffffffffffffffffffffffffffffffffccccccccd6bbe6bf0c2471ba706d7f8b3445d8dfc790c524e3990ef014e7c57800000000000000000000000000000000000000000000000000000000000001a0aaaaaaaaaaaaaaaaaaaaaaaaaaaaaaaaaaaaaaaaaaaaaaaaaaaaaaaaaaaaaaaa00000000000000000000000003245fc24d3764aaeee7f877188ee6a30eb4e790000000000000000000000000000000000000000000000000000000000000000000000000000000000000000000000000000000000000000000000000000000800000000000000000000000000000000000000000000000000000000000000008329c49dadc3c280231da4cea97539d036f1bc3882c2e29e615f8851ca1ace2f3fcfdb4f90af42cb08c4151734a53fa42c375e1cde48ed118e508635c3a03ee2c0eed6f9d365a7c36663f08669d7b9704160afd8f07098db9ae7ffc189882c9027a1474a2bbe51666e629046cf919961f6f30baa7883f8441da067942b7af05b5906a40ca8bb54021e8158456bb44650a89e25b87f8f835d2f9ec51df9f5cf860c374d1bbc62f8935503c67f4ef90294b51cb286955b731bc25243799b4bc1dad1be571ec9f6eac10549ab684d60ecd5eeaafdf30537f329f189527af1f089a2692281ebeda1c4cc8b5fcb70d212b670388b9f737e34905902da76ce594209f63",
            "debugEnable": true,
            "errorInfo": "",
            "eventCount": 5,
            "feeRecipient": "0x3ecef08d0e2dad803847e052249bb4f8bff2d5bb",
            "formatValue": "0",
            "gasLimit": 272770,
            "gasPrice": "13",
            "gasUsed": 269970,
            "intTxnCount": 12,
            "internalRevert": false,
            "internalRevertMessage": "",
            "isContractCreation": false,
            "isFlashloan": false,
            "maxFee": "",
            "nonce": 4,
            "overwritedBlockNumber": -1,
            "priorityFee": "",
            "receiver": "0xff20817765cb7f73d4bde2e66e067e58d11095c2",
            "revertMessage": "",
            "sender": "0x03245fc24d3764aaeee7f877188ee6a30eb4e790",
            "simulationEnable": true,
            "sourceTxnHash": "0x6e96aafb2282a58dab619f7b277365583fbdf0f837563149fcc4394b457286a7",
            "status": true,
            "timestamp": "2021-07-24T09:47:07Z",
            "transactionFee": "0.00350961",
            "txnHash": "0x6e96aafb2282a58dab619f7b277365583fbdf0f837563149fcc4394b457286a7",
            "txnIndex": 122,
            "type": 0,
            "value": "0"
        },
        "fund_flow": [
            {
                "amount": "155.13137351993691265",
                "from": "0x706d7f8b3445d8dfc790c524e3990ef014e7c578",
                "id": 1,
                "isERC1155": false,
                "isERC721": false,
                "isReverted": false,
                "order": 1,
                "to": "0x706d7f8b3445d8dfc790c524e3990ef014e7c578",
                "token": "0xff20817765cb7f73d4bde2e66e067e58d11095c2"
            }
        ],
        "token_infos": [
            {
                "address": "0xff20817765cb7f73d4bde2e66e067e58d11095c2",
                "decimals": 18
            },
            {
                "address": "0xeeeeeeeeeeeeeeeeeeeeeeeeeeeeeeeeeeeeeeee",
                "decimals": 18
            },
            {
                "address": "0xc02aaa39b223fe8d0a0e5c4f27ead9083c756cc2",
                "decimals": 18
            }
        ]
    },
    "address_label": {
        "labels": [
            {
                "address": "0x0000000000000000000000000000000000000003",
                "label": "Precompiled"
            },
            {
                "address": "0x0000000000000000000000000000000000000004",
                "label": "Precompiled"
            },
            {
                "address": "0xeeeeeeeeeeeeeeeeeeeeeeeeeeeeeeeeeeeeeeee",
                "label": "Ether"
            },
            {
                "address": "0x1820a4b7618bde71dce8cdc73aab6c95905fad24",
                "label": "ERC1820Registry"
            },
            {
                "address": "0xff20817765cb7f73d4bde2e66e067e58d11095c2",
                "label": "Amp: AMP Token"
            },
            {
                "address": "0x455a3b78cfe4b88268dbee2119eb06fb1d3f1f61",
                "label": "CollateralPoolPartitionValidator"
            },
            {
                "address": "0x0000000000000000000000000000000000000001",
                "label": "Precompiled"
            },
            {
                "address": "0x0000000000000000000000000000000000000002",
                "label": "Precompiled"
            },
            {
                "address": "0x706d7f8b3445d8dfc790c524e3990ef014e7c578",
                "label": "Flexa: Staking"
            }
        ]
    },
    "trace": {
        "accountLabels": null,
        "dataMap": {
            "-1": {
                "invocation": {
                    "address": "0x03245fc24d3764aaeee7f877188ee6a30eb4e790",
                    "callData": "",
                    "decodedMethod": null,
                    "errorInfo": "",
                    "fromAddress": "",
                    "gasUsed": 0,
                    "id": -1,
                    "methodDecoded": false,
                    "operation": "",
                    "output": "",
                    "revert": false,
                    "revertMessage": "",
                    "selector": "",
                    "status": false,
                    "value": ""
                },
                "nodeType": 0
            },
            "0": {
                "invocation": {
                    "address": "0xff20817765cb7f73d4bde2e66e067e58d11095c2",
                    "callData": "0xcccccccc2862b8cb21caedb8706d7f8b3445d8dfc790c524e3990ef014e7c578000000000000000000000000706d7f8b3445d8dfc790c524e3990ef014e7c578000000000000000000000000706d7f8b3445d8dfc790c524e3990ef014e7c57800000000000000000000000000000000000000000000000868e15a4b8e477d0a00000000000000000000000000000000000000000000000000000000000000c000000000000000000000000000000000000000000000000000000000000001200000000000000000000000000000000000000000000000000000000000000040ffffffffffffffffffffffffffffffffffffffffffffffffffffffffffffffffccccccccd6bbe6bf0c2471ba706d7f8b3445d8dfc790c524e3990ef014e7c57800000000000000000000000000000000000000000000000000000000000001a0aaaaaaaaaaaaaaaaaaaaaaaaaaaaaaaaaaaaaaaaaaaaaaaaaaaaaaaaaaaaaaaa00000000000000000000000003245fc24d3764aaeee7f877188ee6a30eb4e790000000000000000000000000000000000000000000000000000000000000000000000000000000000000000000000000000000000000000000000000000000800000000000000000000000000000000000000000000000000000000000000008329c49dadc3c280231da4cea97539d036f1bc3882c2e29e615f8851ca1ace2f3fcfdb4f90af42cb08c4151734a53fa42c375e1cde48ed118e508635c3a03ee2c0eed6f9d365a7c36663f08669d7b9704160afd8f07098db9ae7ffc189882c9027a1474a2bbe51666e629046cf919961f6f30baa7883f8441da067942b7af05b5906a40ca8bb54021e8158456bb44650a89e25b87f8f835d2f9ec51df9f5cf860c374d1bbc62f8935503c67f4ef90294b51cb286955b731bc25243799b4bc1dad1be571ec9f6eac10549ab684d60ecd5eeaafdf30537f329f189527af1f089a2692281ebeda1c4cc8b5fcb70d212b670388b9f737e34905902da76ce594209f63",
                    "decodedMethod": {
                        "callParams": [
                            {
                                "name": "_partition",
                                "type": "bytes32",
                                "value": "0xcccccccc2862b8cb21caedb8706d7f8b3445d8dfc790c524e3990ef014e7c578"
                            },
                            {
                                "name": "_from",
                                "type": "address",
                                "value": "0x706d7f8b3445d8dfc790c524e3990ef014e7c578"
                            },
                            {
                                "name": "_to",
                                "type": "address",
                                "value": "0x706d7f8b3445d8dfc790c524e3990ef014e7c578"
                            },
                            {
                                "name": "_value",
                                "type": "uint256",
                                "value": "155,131,373,519,936,912,650"
                            },
                            {
                                "name": "_data",
                                "type": "bytes",
                                "value": "0xffffffffffffffffffffffffffffffffffffffffffffffffffffffffffffffffccccccccd6bbe6bf0c2471ba706d7f8b3445d8dfc790c524e3990ef014e7c578"
                            },
                            {
                                "name": "_operatorData",
                                "type": "bytes",
                                "value": "0xaaaaaaaaaaaaaaaaaaaaaaaaaaaaaaaaaaaaaaaaaaaaaaaaaaaaaaaaaaaaaaaa00000000000000000000000003245fc24d3764aaeee7f877188ee6a30eb4e790000000000000000000000000000000000000000000000000000000000000000000000000000000000000000000000000000000000000000000000000000000800000000000000000000000000000000000000000000000000000000000000008329c49dadc3c280231da4cea97539d036f1bc3882c2e29e615f8851ca1ace2f3fcfdb4f90af42cb08c4151734a53fa42c375e1cde48ed118e508635c3a03ee2c0eed6f9d365a7c36663f08669d7b9704160afd8f07098db9ae7ffc189882c9027a1474a2bbe51666e629046cf919961f6f30baa7883f8441da067942b7af05b5906a40ca8bb54021e8158456bb44650a89e25b87f8f835d2f9ec51df9f5cf860c374d1bbc62f8935503c67f4ef90294b51cb286955b731bc25243799b4bc1dad1be571ec9f6eac10549ab684d60ecd5eeaafdf30537f329f189527af1f089a2692281ebeda1c4cc8b5fcb70d212b670388b9f737e34905902da76ce594209f63"
                            }
                        ],
                        "constructorArguments": "",
                        "name": "transferByPartition",
                        "returnParams": [
                            {
                                "name": "",
                                "type": "bytes32",
                                "value": "0xccccccccd6bbe6bf0c2471ba706d7f8b3445d8dfc790c524e3990ef014e7c578"
                            }
                        ],
                        "signature": "transferByPartition(bytes32,address,address,uint256,bytes,bytes)"
                    },
                    "errorInfo": "",
                    "fromAddress": "0x03245fc24d3764aaeee7f877188ee6a30eb4e790",
                    "gasUsed": 269970,
                    "id": 0,
                    "methodDecoded": true,
                    "operation": "CALL",
                    "output": "0xccccccccd6bbe6bf0c2471ba706d7f8b3445d8dfc790c524e3990ef014e7c578",
                    "revert": false,
                    "revertMessage": "",
                    "selector": "0x2036a94d",
                    "status": true,
                    "value": "0"
                },
                "nodeType": 0
            },
            "1": {
                "invocation": {
                    "address": "0x1820a4b7618bde71dce8cdc73aab6c95905fad24",
                    "callData": "0x000000000000000000000000ff20817765cb7f73d4bde2e66e067e58d11095c22c8f2151d082d980bc6c06d28b364b16371b6c228f9552bb0254f1658050629d",
                    "decodedMethod": {
                        "callParams": [
                            {
                                "name": "_addr",
                                "type": "address",
                                "value": "0xff20817765cb7f73d4bde2e66e067e58d11095c2"
                            },
                            {
                                "name": "_interfaceHash",
                                "type": "bytes32",
                                "value": "0x2c8f2151d082d980bc6c06d28b364b16371b6c228f9552bb0254f1658050629d"
                            }
                        ],
                        "constructorArguments": "",
                        "name": "getInterfaceImplementer",
                        "returnParams": [
                            {
                                "name": "",
                                "type": "address",
                                "value": "0x455a3b78cfe4b88268dbee2119eb06fb1d3f1f61"
                            }
                        ],
                        "signature": "getInterfaceImplementer(address,bytes32)"
                    },
                    "errorInfo": "",
                    "fromAddress": "0xff20817765cb7f73d4bde2e66e067e58d11095c2",
                    "gasUsed": 2942,
                    "id": 1,
                    "methodDecoded": true,
                    "operation": "STATICCALL",
                    "output": "0x000000000000000000000000455a3b78cfe4b88268dbee2119eb06fb1d3f1f61",
                    "revert": false,
                    "revertMessage": "",
                    "selector": "0xaabbb8ca",
                    "status": true,
                    "value": "0"
                },
                "nodeType": 0
            },
            "10": {
                "invocation": {
                    "address": "0x455a3b78cfe4b88268dbee2119eb06fb1d3f1f61",
                    "callData": "0x2036a94d00000000000000000000000000000000000000000000000000000000ccccccccd6bbe6bf0c2471ba706d7f8b3445d8dfc790c524e3990ef014e7c57800000000000000000000000003245fc24d3764aaeee7f877188ee6a30eb4e790000000000000000000000000706d7f8b3445d8dfc790c524e3990ef014e7c578000000000000000000000000706d7f8b3445d8dfc790c524e3990ef014e7c57800000000000000000000000000000000000000000000000868e15a4b8e477d0a000000000000000000000000000000000000000000000000000000000000010000000000000000000000000000000000000000000000000000000000000001600000000000000000000000000000000000000000000000000000000000000040ffffffffffffffffffffffffffffffffffffffffffffffffffffffffffffffffccccccccd6bbe6bf0c2471ba706d7f8b3445d8dfc790c524e3990ef014e7c57800000000000000000000000000000000000000000000000000000000000001a0aaaaaaaaaaaaaaaaaaaaaaaaaaaaaaaaaaaaaaaaaaaaaaaaaaaaaaaaaaaaaaaa00000000000000000000000003245fc24d3764aaeee7f877188ee6a30eb4e790000000000000000000000000000000000000000000000000000000000000000000000000000000000000000000000000000000000000000000000000000000800000000000000000000000000000000000000000000000000000000000000008329c49dadc3c280231da4cea97539d036f1bc3882c2e29e615f8851ca1ace2f3fcfdb4f90af42cb08c4151734a53fa42c375e1cde48ed118e508635c3a03ee2c0eed6f9d365a7c36663f08669d7b9704160afd8f07098db9ae7ffc189882c9027a1474a2bbe51666e629046cf919961f6f30baa7883f8441da067942b7af05b5906a40ca8bb54021e8158456bb44650a89e25b87f8f835d2f9ec51df9f5cf860c374d1bbc62f8935503c67f4ef90294b51cb286955b731bc25243799b4bc1dad1be571ec9f6eac10549ab684d60ecd5eeaafdf30537f329f189527af1f089a2692281ebeda1c4cc8b5fcb70d212b670388b9f737e34905902da76ce594209f63",
                    "decodedMethod": {
                        "callParams": [
                            {
                                "name": "",
                                "type": "bytes4",
                                "value": "0x2036a94d"
                            },
                            {
                                "name": "_toPartition",
                                "type": "bytes32",
                                "value": "0xccccccccd6bbe6bf0c2471ba706d7f8b3445d8dfc790c524e3990ef014e7c578"
                            },
                            {
                                "name": "",
                                "type": "address",
                                "value": "0x03245fc24d3764aaeee7f877188ee6a30eb4e790"
                            },
                            {
                                "name": "",
                                "type": "address",
                                "value": "0x706d7f8b3445d8dfc790c524e3990ef014e7c578"
                            },
                            {
                                "name": "_to",
                                "type": "address",
                                "value": "0x706d7f8b3445d8dfc790c524e3990ef014e7c578"
                            },
                            {
                                "name": "",
                                "type": "uint256",
                                "value": "155,131,373,519,936,912,650"
                            },
                            {
                                "name": "",
                                "type": "bytes",
                                "value": "0xffffffffffffffffffffffffffffffffffffffffffffffffffffffffffffffffccccccccd6bbe6bf0c2471ba706d7f8b3445d8dfc790c524e3990ef014e7c578"
                            },
                            {
                                "name": "",
                                "type": "bytes",
                                "value": "0xaaaaaaaaaaaaaaaaaaaaaaaaaaaaaaaaaaaaaaaaaaaaaaaaaaaaaaaaaaaaaaaa00000000000000000000000003245fc24d3764aaeee7f877188ee6a30eb4e790000000000000000000000000000000000000000000000000000000000000000000000000000000000000000000000000000000000000000000000000000000800000000000000000000000000000000000000000000000000000000000000008329c49dadc3c280231da4cea97539d036f1bc3882c2e29e615f8851ca1ace2f3fcfdb4f90af42cb08c4151734a53fa42c375e1cde48ed118e508635c3a03ee2c0eed6f9d365a7c36663f08669d7b9704160afd8f07098db9ae7ffc189882c9027a1474a2bbe51666e629046cf919961f6f30baa7883f8441da067942b7af05b5906a40ca8bb54021e8158456bb44650a89e25b87f8f835d2f9ec51df9f5cf860c374d1bbc62f8935503c67f4ef90294b51cb286955b731bc25243799b4bc1dad1be571ec9f6eac10549ab684d60ecd5eeaafdf30537f329f189527af1f089a2692281ebeda1c4cc8b5fcb70d212b670388b9f737e34905902da76ce594209f63"
                            }
                        ],
                        "constructorArguments": "",
                        "name": "tokensToPartitionToValidate",
                        "returnParams": [],
                        "signature": "tokensToPartitionToValidate(bytes4,bytes32,address,address,address,uint256,bytes,bytes)"
                    },
                    "errorInfo": "",
                    "fromAddress": "0xff20817765cb7f73d4bde2e66e067e58d11095c2",
                    "gasUsed": 2207,
                    "id": 10,
                    "methodDecoded": true,
                    "operation": "CALL",
                    "output": "",
                    "revert": false,
                    "revertMessage": "",
                    "selector": "0xb3c46f42",
                    "status": true,
                    "value": "0"
                },
                "nodeType": 0
            },
            "11": {
                "invocation": {
                    "address": "0xff20817765cb7f73d4bde2e66e067e58d11095c2",
                    "callData": "0x000000000000000000000000706d7f8b3445d8dfc790c524e3990ef014e7c578",
                    "decodedMethod": {
                        "callParams": [
                            {
                                "name": "_collateralManager",
                                "type": "address",
                                "value": "0x706d7f8b3445d8dfc790c524e3990ef014e7c578"
                            }
                        ],
                        "constructorArguments": "",
                        "name": "isCollateralManager",
                        "returnParams": [
                            {
                                "name": "",
                                "type": "bool",
                                "value": true
                            }
                        ],
                        "signature": "isCollateralManager(address)"
                    },
                    "errorInfo": "",
                    "fromAddress": "0x455a3b78cfe4b88268dbee2119eb06fb1d3f1f61",
                    "gasUsed": 567,
                    "id": 11,
                    "methodDecoded": true,
                    "operation": "STATICCALL",
                    "output": "0x0000000000000000000000000000000000000000000000000000000000000001",
                    "revert": false,
                    "revertMessage": "",
                    "selector": "0x0e0e923b",
                    "status": true,
                    "value": "0"
                },
                "nodeType": 0
            },
            "12": {
                "invocation": {
                    "address": "0x1820a4b7618bde71dce8cdc73aab6c95905fad24",
                    "callData": "0x000000000000000000000000706d7f8b3445d8dfc790c524e3990ef014e7c578fa352d6368bbc643bcf9d528ffaba5dd3e826137bc42f935045c6c227bd4c72a",
                    "decodedMethod": {
                        "callParams": [
                            {
                                "name": "_addr",
                                "type": "address",
                                "value": "0x706d7f8b3445d8dfc790c524e3990ef014e7c578"
                            },
                            {
                                "name": "_interfaceHash",
                                "type": "bytes32",
                                "value": "0xfa352d6368bbc643bcf9d528ffaba5dd3e826137bc42f935045c6c227bd4c72a"
                            }
                        ],
                        "constructorArguments": "",
                        "name": "getInterfaceImplementer",
                        "returnParams": [
                            {
                                "name": "",
                                "type": "address",
                                "value": "0x706d7f8b3445d8dfc790c524e3990ef014e7c578"
                            }
                        ],
                        "signature": "getInterfaceImplementer(address,bytes32)"
                    },
                    "errorInfo": "",
                    "fromAddress": "0xff20817765cb7f73d4bde2e66e067e58d11095c2",
                    "gasUsed": 2942,
                    "id": 12,
                    "methodDecoded": true,
                    "operation": "STATICCALL",
                    "output": "0x000000000000000000000000706d7f8b3445d8dfc790c524e3990ef014e7c578",
                    "revert": false,
                    "revertMessage": "",
                    "selector": "0xaabbb8ca",
                    "status": true,
                    "value": "0"
                },
                "nodeType": 0
            },
            "13": {
                "invocation": {
                    "address": "0x706d7f8b3445d8dfc790c524e3990ef014e7c578",
                    "callData": "0x2036a94d00000000000000000000000000000000000000000000000000000000ccccccccd6bbe6bf0c2471ba706d7f8b3445d8dfc790c524e3990ef014e7c57800000000000000000000000003245fc24d3764aaeee7f877188ee6a30eb4e790000000000000000000000000706d7f8b3445d8dfc790c524e3990ef014e7c578000000000000000000000000706d7f8b3445d8dfc790c524e3990ef014e7c57800000000000000000000000000000000000000000000000868e15a4b8e477d0a000000000000000000000000000000000000000000000000000000000000010000000000000000000000000000000000000000000000000000000000000001600000000000000000000000000000000000000000000000000000000000000040ffffffffffffffffffffffffffffffffffffffffffffffffffffffffffffffffccccccccd6bbe6bf0c2471ba706d7f8b3445d8dfc790c524e3990ef014e7c57800000000000000000000000000000000000000000000000000000000000001a0aaaaaaaaaaaaaaaaaaaaaaaaaaaaaaaaaaaaaaaaaaaaaaaaaaaaaaaaaaaaaaaa00000000000000000000000003245fc24d3764aaeee7f877188ee6a30eb4e790000000000000000000000000000000000000000000000000000000000000000000000000000000000000000000000000000000000000000000000000000000800000000000000000000000000000000000000000000000000000000000000008329c49dadc3c280231da4cea97539d036f1bc3882c2e29e615f8851ca1ace2f3fcfdb4f90af42cb08c4151734a53fa42c375e1cde48ed118e508635c3a03ee2c0eed6f9d365a7c36663f08669d7b9704160afd8f07098db9ae7ffc189882c9027a1474a2bbe51666e629046cf919961f6f30baa7883f8441da067942b7af05b5906a40ca8bb54021e8158456bb44650a89e25b87f8f835d2f9ec51df9f5cf860c374d1bbc62f8935503c67f4ef90294b51cb286955b731bc25243799b4bc1dad1be571ec9f6eac10549ab684d60ecd5eeaafdf30537f329f189527af1f089a2692281ebeda1c4cc8b5fcb70d212b670388b9f737e34905902da76ce594209f63",
                    "decodedMethod": {
                        "callParams": [
                            {
                                "name": "",
                                "type": "bytes4",
                                "value": "0x2036a94d"
                            },
                            {
                                "name": "_partition",
                                "type": "bytes32",
                                "value": "0xccccccccd6bbe6bf0c2471ba706d7f8b3445d8dfc790c524e3990ef014e7c578"
                            },
                            {
                                "name": "_operator",
                                "type": "address",
                                "value": "0x03245fc24d3764aaeee7f877188ee6a30eb4e790"
                            },
                            {
                                "name": "",
                                "type": "address",
                                "value": "0x706d7f8b3445d8dfc790c524e3990ef014e7c578"
                            },
                            {
                                "name": "_to",
                                "type": "address",
                                "value": "0x706d7f8b3445d8dfc790c524e3990ef014e7c578"
                            },
                            {
                                "name": "_value",
                                "type": "uint256",
                                "value": "155,131,373,519,936,912,650"
                            },
                            {
                                "name": "_data",
                                "type": "bytes",
                                "value": "0xffffffffffffffffffffffffffffffffffffffffffffffffffffffffffffffffccccccccd6bbe6bf0c2471ba706d7f8b3445d8dfc790c524e3990ef014e7c578"
                            },
                            {
                                "name": "",
                                "type": "bytes",
                                "value": "0xaaaaaaaaaaaaaaaaaaaaaaaaaaaaaaaaaaaaaaaaaaaaaaaaaaaaaaaaaaaaaaaa00000000000000000000000003245fc24d3764aaeee7f877188ee6a30eb4e790000000000000000000000000000000000000000000000000000000000000000000000000000000000000000000000000000000000000000000000000000000800000000000000000000000000000000000000000000000000000000000000008329c49dadc3c280231da4cea97539d036f1bc3882c2e29e615f8851ca1ace2f3fcfdb4f90af42cb08c4151734a53fa42c375e1cde48ed118e508635c3a03ee2c0eed6f9d365a7c36663f08669d7b9704160afd8f07098db9ae7ffc189882c9027a1474a2bbe51666e629046cf919961f6f30baa7883f8441da067942b7af05b5906a40ca8bb54021e8158456bb44650a89e25b87f8f835d2f9ec51df9f5cf860c374d1bbc62f8935503c67f4ef90294b51cb286955b731bc25243799b4bc1dad1be571ec9f6eac10549ab684d60ecd5eeaafdf30537f329f189527af1f089a2692281ebeda1c4cc8b5fcb70d212b670388b9f737e34905902da76ce594209f63"
                            }
                        ],
                        "constructorArguments": "",
                        "name": "tokensReceived",
                        "returnParams": [],
                        "signature": "tokensReceived(bytes4,bytes32,address,address,address,uint256,bytes,bytes)"
                    },
                    "errorInfo": "",
                    "fromAddress": "0xff20817765cb7f73d4bde2e66e067e58d11095c2",
                    "gasUsed": 78147,
                    "id": 13,
                    "methodDecoded": true,
                    "operation": "CALL",
                    "output": "",
                    "revert": false,
                    "revertMessage": "",
                    "selector": "0x8240ef48",
                    "status": true,
                    "value": "0"
                },
                "nodeType": 0
            },
            "14": {
                "event": {
                    "contract": "0x706d7f8b3445d8dfc790c524e3990ef014e7c578",
                    "decodedLog": {
                        "name": "SupplyReceipt",
                        "params": [
                            {
                                "name": "supplier",
                                "type": "address",
                                "value": "0x03245fc24d3764aaeee7f877188ee6a30eb4e790"
                            },
                            {
                                "name": "partition",
                                "type": "bytes32",
                                "value": "0xccccccccd6bbe6bf0c2471ba706d7f8b3445d8dfc790c524e3990ef014e7c578"
                            },
                            {
                                "name": "nonce",
                                "type": "uint256",
                                "value": "15,776"
                            },
                            {
                                "name": "amount",
                                "type": "uint256",
                                "value": "155,131,373,519,936,912,650"
                            }
                        ],
                        "signature": "SupplyReceipt(address,bytes32,uint256,uint256)"
                    },
                    "id": 14,
                    "logData": "0x00000000000000000000000000000000000000000000000868e15a4b8e477d0a",
                    "logDecoded": true,
                    "operation": "EVENT",
                    "revert": false,
                    "status": true,
                    "topics": [
                        "0xa5521f7d015e07af98ded530ac91a9ccef09b2b0fe09f6a0c8742f40d88e00d1",
                        "0x00000000000000000000000003245fc24d3764aaeee7f877188ee6a30eb4e790",
                        "0xccccccccd6bbe6bf0c2471ba706d7f8b3445d8dfc790c524e3990ef014e7c578",
                        "0x0000000000000000000000000000000000000000000000000000000000003da0"
                    ]
                },
                "nodeType": 1
            },
            "15": {
                "event": {
                    "contract": "0xff20817765cb7f73d4bde2e66e067e58d11095c2",
                    "decodedLog": {
                        "name": "Transfer",
                        "params": [
                            {
                                "name": "from",
                                "type": "address",
                                "value": "0x706d7f8b3445d8dfc790c524e3990ef014e7c578"
                            },
                            {
                                "name": "to",
                                "type": "address",
                                "value": "0x706d7f8b3445d8dfc790c524e3990ef014e7c578"
                            },
                            {
                                "decimalAvailable": true,
                                "name": "value",
                                "type": "uint256",
                                "value": "155,131,373,519,936,912,650"
                            }
                        ],
                        "signature": "Transfer(address,address,uint256)"
                    },
                    "id": 15,
                    "logData": "0x00000000000000000000000000000000000000000000000868e15a4b8e477d0a",
                    "logDecoded": true,
                    "operation": "EVENT",
                    "revert": false,
                    "status": true,
                    "topics": [
                        "0xddf252ad1be2c89b69c2b068fc378daa952ba7f163c4a11628f55a4df523b3ef",
                        "0x000000000000000000000000706d7f8b3445d8dfc790c524e3990ef014e7c578",
                        "0x000000000000000000000000706d7f8b3445d8dfc790c524e3990ef014e7c578"
                    ]
                },
                "nodeType": 1
            },
            "16": {
                "event": {
                    "contract": "0xff20817765cb7f73d4bde2e66e067e58d11095c2",
                    "decodedLog": {
                        "name": "TransferByPartition",
                        "params": [
                            {
                                "name": "fromPartition",
                                "type": "bytes32",
                                "value": "0xcccccccc2862b8cb21caedb8706d7f8b3445d8dfc790c524e3990ef014e7c578"
                            },
                            {
                                "name": "from",
                                "type": "address",
                                "value": "0x706d7f8b3445d8dfc790c524e3990ef014e7c578"
                            },
                            {
                                "name": "to",
                                "type": "address",
                                "value": "0x706d7f8b3445d8dfc790c524e3990ef014e7c578"
                            },
                            {
                                "name": "operator",
                                "type": "address",
                                "value": "0x03245fc24d3764aaeee7f877188ee6a30eb4e790"
                            },
                            {
                                "name": "value",
                                "type": "uint256",
                                "value": "155,131,373,519,936,912,650"
                            },
                            {
                                "name": "data",
                                "type": "bytes",
                                "value": "0xffffffffffffffffffffffffffffffffffffffffffffffffffffffffffffffffccccccccd6bbe6bf0c2471ba706d7f8b3445d8dfc790c524e3990ef014e7c578"
                            },
                            {
                                "name": "operatorData",
                                "type": "bytes",
                                "value": "0xaaaaaaaaaaaaaaaaaaaaaaaaaaaaaaaaaaaaaaaaaaaaaaaaaaaaaaaaaaaaaaaa00000000000000000000000003245fc24d3764aaeee7f877188ee6a30eb4e790000000000000000000000000000000000000000000000000000000000000000000000000000000000000000000000000000000000000000000000000000000800000000000000000000000000000000000000000000000000000000000000008329c49dadc3c280231da4cea97539d036f1bc3882c2e29e615f8851ca1ace2f3fcfdb4f90af42cb08c4151734a53fa42c375e1cde48ed118e508635c3a03ee2c0eed6f9d365a7c36663f08669d7b9704160afd8f07098db9ae7ffc189882c9027a1474a2bbe51666e629046cf919961f6f30baa7883f8441da067942b7af05b5906a40ca8bb54021e8158456bb44650a89e25b87f8f835d2f9ec51df9f5cf860c374d1bbc62f8935503c67f4ef90294b51cb286955b731bc25243799b4bc1dad1be571ec9f6eac10549ab684d60ecd5eeaafdf30537f329f189527af1f089a2692281ebeda1c4cc8b5fcb70d212b670388b9f737e34905902da76ce594209f63"
                            }
                        ],
                        "signature": "TransferByPartition(bytes32,address,address,address,uint256,bytes,bytes)"
                    },
                    "id": 16,
                    "logData": "0x00000000000000000000000003245fc24d3764aaeee7f877188ee6a30eb4e79000000000000000000000000000000000000000000000000868e15a4b8e477d0a000000000000000000000000000000000000000000000000000000000000008000000000000000000000000000000000000000000000000000000000000000e00000000000000000000000000000000000000000000000000000000000000040ffffffffffffffffffffffffffffffffffffffffffffffffffffffffffffffffccccccccd6bbe6bf0c2471ba706d7f8b3445d8dfc790c524e3990ef014e7c57800000000000000000000000000000000000000000000000000000000000001a0aaaaaaaaaaaaaaaaaaaaaaaaaaaaaaaaaaaaaaaaaaaaaaaaaaaaaaaaaaaaaaaa00000000000000000000000003245fc24d3764aaeee7f877188ee6a30eb4e790000000000000000000000000000000000000000000000000000000000000000000000000000000000000000000000000000000000000000000000000000000800000000000000000000000000000000000000000000000000000000000000008329c49dadc3c280231da4cea97539d036f1bc3882c2e29e615f8851ca1ace2f3fcfdb4f90af42cb08c4151734a53fa42c375e1cde48ed118e508635c3a03ee2c0eed6f9d365a7c36663f08669d7b9704160afd8f07098db9ae7ffc189882c9027a1474a2bbe51666e629046cf919961f6f30baa7883f8441da067942b7af05b5906a40ca8bb54021e8158456bb44650a89e25b87f8f835d2f9ec51df9f5cf860c374d1bbc62f8935503c67f4ef90294b51cb286955b731bc25243799b4bc1dad1be571ec9f6eac10549ab684d60ecd5eeaafdf30537f329f189527af1f089a2692281ebeda1c4cc8b5fcb70d212b670388b9f737e34905902da76ce594209f63",
                    "logDecoded": true,
                    "operation": "EVENT",
                    "revert": false,
                    "status": true,
                    "topics": [
                        "0xff4e9a26af4eb73b8bacfaa4abd4fea03d9448e7b912dc5ff4019048875aa2d4",
                        "0xcccccccc2862b8cb21caedb8706d7f8b3445d8dfc790c524e3990ef014e7c578",
                        "0x000000000000000000000000706d7f8b3445d8dfc790c524e3990ef014e7c578",
                        "0x000000000000000000000000706d7f8b3445d8dfc790c524e3990ef014e7c578"
                    ]
                },
                "nodeType": 1
            },
            "17": {
                "event": {
                    "contract": "0xff20817765cb7f73d4bde2e66e067e58d11095c2",
                    "decodedLog": {
                        "name": "ChangedPartition",
                        "params": [
                            {
                                "name": "fromPartition",
                                "type": "bytes32",
                                "value": "0xcccccccc2862b8cb21caedb8706d7f8b3445d8dfc790c524e3990ef014e7c578"
                            },
                            {
                                "name": "toPartition",
                                "type": "bytes32",
                                "value": "0xccccccccd6bbe6bf0c2471ba706d7f8b3445d8dfc790c524e3990ef014e7c578"
                            },
                            {
                                "name": "value",
                                "type": "uint256",
                                "value": "155,131,373,519,936,912,650"
                            }
                        ],
                        "signature": "ChangedPartition(bytes32,bytes32,uint256)"
                    },
                    "id": 17,
                    "logData": "0x00000000000000000000000000000000000000000000000868e15a4b8e477d0a",
                    "logDecoded": true,
                    "operation": "EVENT",
                    "revert": false,
                    "status": true,
                    "topics": [
                        "0x67c8ba31d2dd11f1384577b3405b04ed91eed1231e408432ad2458cab37b2fa1",
                        "0xcccccccc2862b8cb21caedb8706d7f8b3445d8dfc790c524e3990ef014e7c578",
                        "0xccccccccd6bbe6bf0c2471ba706d7f8b3445d8dfc790c524e3990ef014e7c578"
                    ]
                },
                "nodeType": 1
            },
            "2": {
                "invocation": {
                    "address": "0x455a3b78cfe4b88268dbee2119eb06fb1d3f1f61",
                    "callData": "0xcccccccc2862b8cb21caedb8706d7f8b3445d8dfc790c524e3990ef014e7c57800000000000000000000000003245fc24d3764aaeee7f877188ee6a30eb4e790000000000000000000000000706d7f8b3445d8dfc790c524e3990ef014e7c578",
                    "decodedMethod": {
                        "callParams": [
                            {
                                "name": "_partition",
                                "type": "bytes32",
                                "value": "0xcccccccc2862b8cb21caedb8706d7f8b3445d8dfc790c524e3990ef014e7c578"
                            },
                            {
                                "name": "",
                                "type": "address",
                                "value": "0x03245fc24d3764aaeee7f877188ee6a30eb4e790"
                            },
                            {
                                "name": "_tokenHolder",
                                "type": "address",
                                "value": "0x706d7f8b3445d8dfc790c524e3990ef014e7c578"
                            }
                        ],
                        "constructorArguments": "",
                        "name": "isOperatorForPartitionScope",
                        "returnParams": [
                            {
                                "name": "",
                                "type": "bool",
                                "value": true
                            }
                        ],
                        "signature": "isOperatorForPartitionScope(bytes32,address,address)"
                    },
                    "errorInfo": "",
                    "fromAddress": "0xff20817765cb7f73d4bde2e66e067e58d11095c2",
                    "gasUsed": 5751,
                    "id": 2,
                    "methodDecoded": true,
                    "operation": "STATICCALL",
                    "output": "0x0000000000000000000000000000000000000000000000000000000000000001",
                    "revert": false,
                    "revertMessage": "",
                    "selector": "0x3f0413df",
                    "status": true,
                    "value": "0"
                },
                "nodeType": 0
            },
            "3": {
                "invocation": {
                    "address": "0xff20817765cb7f73d4bde2e66e067e58d11095c2",
                    "callData": "0x000000000000000000000000706d7f8b3445d8dfc790c524e3990ef014e7c578",
                    "decodedMethod": {
                        "callParams": [
                            {
                                "name": "_collateralManager",
                                "type": "address",
                                "value": "0x706d7f8b3445d8dfc790c524e3990ef014e7c578"
                            }
                        ],
                        "constructorArguments": "",
                        "name": "isCollateralManager",
                        "returnParams": [
                            {
                                "name": "",
                                "type": "bool",
                                "value": true
                            }
                        ],
                        "signature": "isCollateralManager(address)"
                    },
                    "errorInfo": "",
                    "fromAddress": "0x455a3b78cfe4b88268dbee2119eb06fb1d3f1f61",
                    "gasUsed": 2567,
                    "id": 3,
                    "methodDecoded": true,
                    "operation": "STATICCALL",
                    "output": "0x0000000000000000000000000000000000000000000000000000000000000001",
                    "revert": false,
                    "revertMessage": "",
                    "selector": "0x0e0e923b",
                    "status": true,
                    "value": "0"
                },
                "nodeType": 0
            },
            "4": {
                "invocation": {
                    "address": "0x1820a4b7618bde71dce8cdc73aab6c95905fad24",
                    "callData": "0x000000000000000000000000706d7f8b3445d8dfc790c524e3990ef014e7c57860881b58a7ad1ebd3bc0e92b8277996363a67ded0f43bd95d11c320bab72b5a4",
                    "decodedMethod": {
                        "callParams": [
                            {
                                "name": "_addr",
                                "type": "address",
                                "value": "0x706d7f8b3445d8dfc790c524e3990ef014e7c578"
                            },
                            {
                                "name": "_interfaceHash",
                                "type": "bytes32",
                                "value": "0x60881b58a7ad1ebd3bc0e92b8277996363a67ded0f43bd95d11c320bab72b5a4"
                            }
                        ],
                        "constructorArguments": "",
                        "name": "getInterfaceImplementer",
                        "returnParams": [
                            {
                                "name": "",
                                "type": "address",
                                "value": "0x706d7f8b3445d8dfc790c524e3990ef014e7c578"
                            }
                        ],
                        "signature": "getInterfaceImplementer(address,bytes32)"
                    },
                    "errorInfo": "",
                    "fromAddress": "0xff20817765cb7f73d4bde2e66e067e58d11095c2",
                    "gasUsed": 2942,
                    "id": 4,
                    "methodDecoded": true,
                    "operation": "STATICCALL",
                    "output": "0x000000000000000000000000706d7f8b3445d8dfc790c524e3990ef014e7c578",
                    "revert": false,
                    "revertMessage": "",
                    "selector": "0xaabbb8ca",
                    "status": true,
                    "value": "0"
                },
                "nodeType": 0
            },
            "5": {
                "invocation": {
                    "address": "0x706d7f8b3445d8dfc790c524e3990ef014e7c578",
                    "callData": "0x2036a94d00000000000000000000000000000000000000000000000000000000cccccccc2862b8cb21caedb8706d7f8b3445d8dfc790c524e3990ef014e7c57800000000000000000000000003245fc24d3764aaeee7f877188ee6a30eb4e790000000000000000000000000706d7f8b3445d8dfc790c524e3990ef014e7c578000000000000000000000000706d7f8b3445d8dfc790c524e3990ef014e7c57800000000000000000000000000000000000000000000000868e15a4b8e477d0a000000000000000000000000000000000000000000000000000000000000010000000000000000000000000000000000000000000000000000000000000001600000000000000000000000000000000000000000000000000000000000000040ffffffffffffffffffffffffffffffffffffffffffffffffffffffffffffffffccccccccd6bbe6bf0c2471ba706d7f8b3445d8dfc790c524e3990ef014e7c57800000000000000000000000000000000000000000000000000000000000001a0aaaaaaaaaaaaaaaaaaaaaaaaaaaaaaaaaaaaaaaaaaaaaaaaaaaaaaaaaaaaaaaa00000000000000000000000003245fc24d3764aaeee7f877188ee6a30eb4e790000000000000000000000000000000000000000000000000000000000000000000000000000000000000000000000000000000000000000000000000000000800000000000000000000000000000000000000000000000000000000000000008329c49dadc3c280231da4cea97539d036f1bc3882c2e29e615f8851ca1ace2f3fcfdb4f90af42cb08c4151734a53fa42c375e1cde48ed118e508635c3a03ee2c0eed6f9d365a7c36663f08669d7b9704160afd8f07098db9ae7ffc189882c9027a1474a2bbe51666e629046cf919961f6f30baa7883f8441da067942b7af05b5906a40ca8bb54021e8158456bb44650a89e25b87f8f835d2f9ec51df9f5cf860c374d1bbc62f8935503c67f4ef90294b51cb286955b731bc25243799b4bc1dad1be571ec9f6eac10549ab684d60ecd5eeaafdf30537f329f189527af1f089a2692281ebeda1c4cc8b5fcb70d212b670388b9f737e34905902da76ce594209f63",
                    "decodedMethod": {
                        "callParams": [
                            {
                                "name": "",
                                "type": "bytes4",
                                "value": "0x2036a94d"
                            },
                            {
                                "name": "_partition",
                                "type": "bytes32",
                                "value": "0xcccccccc2862b8cb21caedb8706d7f8b3445d8dfc790c524e3990ef014e7c578"
                            },
                            {
                                "name": "_operator",
                                "type": "address",
                                "value": "0x03245fc24d3764aaeee7f877188ee6a30eb4e790"
                            },
                            {
                                "name": "_from",
                                "type": "address",
                                "value": "0x706d7f8b3445d8dfc790c524e3990ef014e7c578"
                            },
                            {
                                "name": "_to",
                                "type": "address",
                                "value": "0x706d7f8b3445d8dfc790c524e3990ef014e7c578"
                            },
                            {
                                "name": "_value",
                                "type": "uint256",
                                "value": "155,131,373,519,936,912,650"
                            },
                            {
                                "name": "_data",
                                "type": "bytes",
                                "value": "0xffffffffffffffffffffffffffffffffffffffffffffffffffffffffffffffffccccccccd6bbe6bf0c2471ba706d7f8b3445d8dfc790c524e3990ef014e7c578"
                            },
                            {
                                "name": "_operatorData",
                                "type": "bytes",
                                "value": "0xaaaaaaaaaaaaaaaaaaaaaaaaaaaaaaaaaaaaaaaaaaaaaaaaaaaaaaaaaaaaaaaa00000000000000000000000003245fc24d3764aaeee7f877188ee6a30eb4e790000000000000000000000000000000000000000000000000000000000000000000000000000000000000000000000000000000000000000000000000000000800000000000000000000000000000000000000000000000000000000000000008329c49dadc3c280231da4cea97539d036f1bc3882c2e29e615f8851ca1ace2f3fcfdb4f90af42cb08c4151734a53fa42c375e1cde48ed118e508635c3a03ee2c0eed6f9d365a7c36663f08669d7b9704160afd8f07098db9ae7ffc189882c9027a1474a2bbe51666e629046cf919961f6f30baa7883f8441da067942b7af05b5906a40ca8bb54021e8158456bb44650a89e25b87f8f835d2f9ec51df9f5cf860c374d1bbc62f8935503c67f4ef90294b51cb286955b731bc25243799b4bc1dad1be571ec9f6eac10549ab684d60ecd5eeaafdf30537f329f189527af1f089a2692281ebeda1c4cc8b5fcb70d212b670388b9f737e34905902da76ce594209f63"
                            }
                        ],
                        "constructorArguments": "",
                        "name": "tokensToTransfer",
                        "returnParams": [],
                        "signature": "tokensToTransfer(bytes4,bytes32,address,address,address,uint256,bytes,bytes)"
                    },
                    "errorInfo": "",
                    "fromAddress": "0xff20817765cb7f73d4bde2e66e067e58d11095c2",
                    "gasUsed": 67680,
                    "id": 5,
                    "methodDecoded": true,
                    "operation": "CALL",
                    "output": "",
                    "revert": false,
                    "revertMessage": "",
                    "selector": "0xec3bb288",
                    "status": true,
                    "value": "0"
                },
                "nodeType": 0
            },
            "6": {
                "event": {
                    "contract": "0x706d7f8b3445d8dfc790c524e3990ef014e7c578",
                    "decodedLog": {
                        "name": "Withdrawal",
                        "params": [
                            {
                                "name": "supplier",
                                "type": "address",
                                "value": "0x03245fc24d3764aaeee7f877188ee6a30eb4e790"
                            },
                            {
                                "name": "partition",
                                "type": "bytes32",
                                "value": "0xcccccccc2862b8cb21caedb8706d7f8b3445d8dfc790c524e3990ef014e7c578"
                            },
                            {
                                "name": "rootNonce",
                                "type": "uint256",
                                "value": "3,276"
                            },
                            {
                                "name": "amount",
                                "type": "uint256",
                                "value": "155,131,373,519,936,912,650"
                            },
                            {
                                "name": "authorizedAccountNonce",
                                "type": "uint256",
                                "value": "0"
                            }
                        ],
                        "signature": "Withdrawal(address,bytes32,uint256,uint256,uint256)"
                    },
                    "id": 6,
                    "logData": "0x00000000000000000000000000000000000000000000000868e15a4b8e477d0a0000000000000000000000000000000000000000000000000000000000000000",
                    "logDecoded": true,
                    "operation": "EVENT",
                    "revert": false,
                    "status": true,
                    "topics": [
                        "0x7c05df8754d2754df450658e6ef9fd7bc12dedd9979acddebdd93ac086b42419",
                        "0x00000000000000000000000003245fc24d3764aaeee7f877188ee6a30eb4e790",
                        "0xcccccccc2862b8cb21caedb8706d7f8b3445d8dfc790c524e3990ef014e7c578",
                        "0x0000000000000000000000000000000000000000000000000000000000000ccc"
                    ]
                },
                "nodeType": 1
            },
            "7": {
                "invocation": {
                    "address": "0x1820a4b7618bde71dce8cdc73aab6c95905fad24",
                    "callData": "0x000000000000000000000000ff20817765cb7f73d4bde2e66e067e58d11095c22c8f2151d082d980bc6c06d28b364b16371b6c228f9552bb0254f1658050629d",
                    "decodedMethod": {
                        "callParams": [
                            {
                                "name": "_addr",
                                "type": "address",
                                "value": "0xff20817765cb7f73d4bde2e66e067e58d11095c2"
                            },
                            {
                                "name": "_interfaceHash",
                                "type": "bytes32",
                                "value": "0x2c8f2151d082d980bc6c06d28b364b16371b6c228f9552bb0254f1658050629d"
                            }
                        ],
                        "constructorArguments": "",
                        "name": "getInterfaceImplementer",
                        "returnParams": [
                            {
                                "name": "",
                                "type": "address",
                                "value": "0x455a3b78cfe4b88268dbee2119eb06fb1d3f1f61"
                            }
                        ],
                        "signature": "getInterfaceImplementer(address,bytes32)"
                    },
                    "errorInfo": "",
                    "fromAddress": "0xff20817765cb7f73d4bde2e66e067e58d11095c2",
                    "gasUsed": 942,
                    "id": 7,
                    "methodDecoded": true,
                    "operation": "STATICCALL",
                    "output": "0x000000000000000000000000455a3b78cfe4b88268dbee2119eb06fb1d3f1f61",
                    "revert": false,
                    "revertMessage": "",
                    "selector": "0xaabbb8ca",
                    "status": true,
                    "value": "0"
                },
                "nodeType": 0
            },
            "8": {
                "invocation": {
                    "address": "0x455a3b78cfe4b88268dbee2119eb06fb1d3f1f61",
                    "callData": "0x2036a94d00000000000000000000000000000000000000000000000000000000cccccccc2862b8cb21caedb8706d7f8b3445d8dfc790c524e3990ef014e7c57800000000000000000000000003245fc24d3764aaeee7f877188ee6a30eb4e790000000000000000000000000706d7f8b3445d8dfc790c524e3990ef014e7c578000000000000000000000000706d7f8b3445d8dfc790c524e3990ef014e7c57800000000000000000000000000000000000000000000000868e15a4b8e477d0a000000000000000000000000000000000000000000000000000000000000010000000000000000000000000000000000000000000000000000000000000001600000000000000000000000000000000000000000000000000000000000000040ffffffffffffffffffffffffffffffffffffffffffffffffffffffffffffffffccccccccd6bbe6bf0c2471ba706d7f8b3445d8dfc790c524e3990ef014e7c57800000000000000000000000000000000000000000000000000000000000001a0aaaaaaaaaaaaaaaaaaaaaaaaaaaaaaaaaaaaaaaaaaaaaaaaaaaaaaaaaaaaaaaa00000000000000000000000003245fc24d3764aaeee7f877188ee6a30eb4e790000000000000000000000000000000000000000000000000000000000000000000000000000000000000000000000000000000000000000000000000000000800000000000000000000000000000000000000000000000000000000000000008329c49dadc3c280231da4cea97539d036f1bc3882c2e29e615f8851ca1ace2f3fcfdb4f90af42cb08c4151734a53fa42c375e1cde48ed118e508635c3a03ee2c0eed6f9d365a7c36663f08669d7b9704160afd8f07098db9ae7ffc189882c9027a1474a2bbe51666e629046cf919961f6f30baa7883f8441da067942b7af05b5906a40ca8bb54021e8158456bb44650a89e25b87f8f835d2f9ec51df9f5cf860c374d1bbc62f8935503c67f4ef90294b51cb286955b731bc25243799b4bc1dad1be571ec9f6eac10549ab684d60ecd5eeaafdf30537f329f189527af1f089a2692281ebeda1c4cc8b5fcb70d212b670388b9f737e34905902da76ce594209f63",
                    "decodedMethod": {
                        "callParams": [
                            {
                                "name": "",
                                "type": "bytes4",
                                "value": "0x2036a94d"
                            },
                            {
                                "name": "",
                                "type": "bytes32",
                                "value": "0xcccccccc2862b8cb21caedb8706d7f8b3445d8dfc790c524e3990ef014e7c578"
                            },
                            {
                                "name": "",
                                "type": "address",
                                "value": "0x03245fc24d3764aaeee7f877188ee6a30eb4e790"
                            },
                            {
                                "name": "",
                                "type": "address",
                                "value": "0x706d7f8b3445d8dfc790c524e3990ef014e7c578"
                            },
                            {
                                "name": "",
                                "type": "address",
                                "value": "0x706d7f8b3445d8dfc790c524e3990ef014e7c578"
                            },
                            {
                                "name": "",
                                "type": "uint256",
                                "value": "155,131,373,519,936,912,650"
                            },
                            {
                                "name": "",
                                "type": "bytes",
                                "value": "0xffffffffffffffffffffffffffffffffffffffffffffffffffffffffffffffffccccccccd6bbe6bf0c2471ba706d7f8b3445d8dfc790c524e3990ef014e7c578"
                            },
                            {
                                "name": "",
                                "type": "bytes",
                                "value": "0xaaaaaaaaaaaaaaaaaaaaaaaaaaaaaaaaaaaaaaaaaaaaaaaaaaaaaaaaaaaaaaaa00000000000000000000000003245fc24d3764aaeee7f877188ee6a30eb4e790000000000000000000000000000000000000000000000000000000000000000000000000000000000000000000000000000000000000000000000000000000800000000000000000000000000000000000000000000000000000000000000008329c49dadc3c280231da4cea97539d036f1bc3882c2e29e615f8851ca1ace2f3fcfdb4f90af42cb08c4151734a53fa42c375e1cde48ed118e508635c3a03ee2c0eed6f9d365a7c36663f08669d7b9704160afd8f07098db9ae7ffc189882c9027a1474a2bbe51666e629046cf919961f6f30baa7883f8441da067942b7af05b5906a40ca8bb54021e8158456bb44650a89e25b87f8f835d2f9ec51df9f5cf860c374d1bbc62f8935503c67f4ef90294b51cb286955b731bc25243799b4bc1dad1be571ec9f6eac10549ab684d60ecd5eeaafdf30537f329f189527af1f089a2692281ebeda1c4cc8b5fcb70d212b670388b9f737e34905902da76ce594209f63"
                            }
                        ],
                        "constructorArguments": "",
                        "name": "tokensFromPartitionToValidate",
                        "returnParams": [],
                        "signature": "tokensFromPartitionToValidate(bytes4,bytes32,address,address,address,uint256,bytes,bytes)"
                    },
                    "errorInfo": "",
                    "fromAddress": "0xff20817765cb7f73d4bde2e66e067e58d11095c2",
                    "gasUsed": 803,
                    "id": 8,
                    "methodDecoded": true,
                    "operation": "CALL",
                    "output": "",
                    "revert": false,
                    "revertMessage": "",
                    "selector": "0xdc86ad7a",
                    "status": true,
                    "value": "0"
                },
                "nodeType": 0
            },
            "9": {
                "invocation": {
                    "address": "0x1820a4b7618bde71dce8cdc73aab6c95905fad24",
                    "callData": "0x000000000000000000000000ff20817765cb7f73d4bde2e66e067e58d11095c22c8f2151d082d980bc6c06d28b364b16371b6c228f9552bb0254f1658050629d",
                    "decodedMethod": {
                        "callParams": [
                            {
                                "name": "_addr",
                                "type": "address",
                                "value": "0xff20817765cb7f73d4bde2e66e067e58d11095c2"
                            },
                            {
                                "name": "_interfaceHash",
                                "type": "bytes32",
                                "value": "0x2c8f2151d082d980bc6c06d28b364b16371b6c228f9552bb0254f1658050629d"
                            }
                        ],
                        "constructorArguments": "",
                        "name": "getInterfaceImplementer",
                        "returnParams": [
                            {
                                "name": "",
                                "type": "address",
                                "value": "0x455a3b78cfe4b88268dbee2119eb06fb1d3f1f61"
                            }
                        ],
                        "signature": "getInterfaceImplementer(address,bytes32)"
                    },
                    "errorInfo": "",
                    "fromAddress": "0xff20817765cb7f73d4bde2e66e067e58d11095c2",
                    "gasUsed": 942,
                    "id": 9,
                    "methodDecoded": true,
                    "operation": "STATICCALL",
                    "output": "0x000000000000000000000000455a3b78cfe4b88268dbee2119eb06fb1d3f1f61",
                    "revert": false,
                    "revertMessage": "",
                    "selector": "0xaabbb8ca",
                    "status": true,
                    "value": "0"
                },
                "nodeType": 0
            }
        },
        "gasFlame": [
            {
                "children": [
                    {
                        "children": [
                            {
                                "children": [],
                                "depth": 0,
                                "name": "Initial Gas",
                                "value": 29540
                            },
                            {
                                "children": [
                                    {
                                        "children": [],
                                        "depth": 1,
                                        "name": "getInterfaceImplementer",
                                        "value": 2942
                                    },
                                    {
                                        "children": [
                                            {
                                                "children": [],
                                                "depth": 2,
                                                "name": "isCollateralManager",
                                                "value": 2567
                                            }
                                        ],
                                        "depth": 1,
                                        "name": "isOperatorForPartitionScope",
                                        "value": 5751
                                    },
                                    {
                                        "children": [],
                                        "depth": 1,
                                        "name": "getInterfaceImplementer",
                                        "value": 2942
                                    },
                                    {
                                        "children": [],
                                        "depth": 1,
                                        "name": "tokensToTransfer",
                                        "value": 67680
                                    },
                                    {
                                        "children": [],
                                        "depth": 1,
                                        "name": "getInterfaceImplementer",
                                        "value": 942
                                    },
                                    {
                                        "children": [],
                                        "depth": 1,
                                        "name": "tokensFromPartitionToValidate",
                                        "value": 803
                                    },
                                    {
                                        "children": [],
                                        "depth": 1,
                                        "name": "getInterfaceImplementer",
                                        "value": 942
                                    },
                                    {
                                        "children": [
                                            {
                                                "children": [],
                                                "depth": 2,
                                                "name": "isCollateralManager",
                                                "value": 567
                                            }
                                        ],
                                        "depth": 1,
                                        "name": "tokensToPartitionToValidate",
                                        "value": 2207
                                    },
                                    {
                                        "children": [],
                                        "depth": 1,
                                        "name": "getInterfaceImplementer",
                                        "value": 2942
                                    },
                                    {
                                        "children": [],
                                        "depth": 1,
                                        "name": "tokensReceived",
                                        "value": 78147
                                    }
                                ],
                                "depth": 0,
                                "name": "Executed Gas",
                                "value": 243230
                            }
                        ],
                        "depth": -1,
                        "name": "Actual Gas Used",
                        "value": 269970
                    },
                    {
                        "children": [],
                        "depth": -1,
                        "name": "Refunded Gas",
                        "value": 2800
                    }
                ],
                "depth": -2,
                "name": "Total Gas",
                "value": 272770
            }
        ],
        "isConfirmed": true,
        "mainTrace": [
            {
                "children": [
                    {
                        "children": [
                            {
                                "children": [],
                                "depth": 1,
                                "id": 1,
                                "order": 1
                            },
                            {
                                "children": [
                                    {
                                        "children": [],
                                        "depth": 2,
                                        "id": 3,
                                        "order": 3
                                    }
                                ],
                                "depth": 1,
                                "id": 2,
                                "order": 2
                            },
                            {
                                "children": [],
                                "depth": 1,
                                "id": 4,
                                "order": 4
                            },
                            {
                                "children": [
                                    {
                                        "children": [],
                                        "depth": 2,
                                        "id": 6,
                                        "order": 6
                                    }
                                ],
                                "depth": 1,
                                "id": 5,
                                "order": 5
                            },
                            {
                                "children": [],
                                "depth": 1,
                                "id": 7,
                                "order": 7
                            },
                            {
                                "children": [],
                                "depth": 1,
                                "id": 8,
                                "order": 8
                            },
                            {
                                "children": [],
                                "depth": 1,
                                "id": 9,
                                "order": 9
                            },
                            {
                                "children": [
                                    {
                                        "children": [],
                                        "depth": 2,
                                        "id": 11,
                                        "order": 11
                                    }
                                ],
                                "depth": 1,
                                "id": 10,
                                "order": 10
                            },
                            {
                                "children": [],
                                "depth": 1,
                                "id": 12,
                                "order": 12
                            },
                            {
                                "children": [
                                    {
                                        "children": [],
                                        "depth": 2,
                                        "id": 14,
                                        "order": 14
                                    }
                                ],
                                "depth": 1,
                                "id": 13,
                                "order": 13
                            },
                            {
                                "children": [],
                                "depth": 1,
                                "id": 15,
                                "order": 15
                            },
                            {
                                "children": [],
                                "depth": 1,
                                "id": 16,
                                "order": 16
                            },
                            {
                                "children": [],
                                "depth": 1,
                                "id": 17,
                                "order": 17
                            }
                        ],
                        "depth": 0,
                        "id": 0,
                        "order": 0
                    }
                ],
                "depth": -1,
                "id": -1,
                "order": -1
            }
        ],
        "mainTraceNodeCount": 18,
        "parentIdMap": {
            "0": -1,
            "1": 0,
            "10": 0,
            "11": 10,
            "12": 0,
            "13": 0,
            "14": 13,
            "15": 0,
            "16": 0,
            "17": 0,
            "2": 0,
            "3": 2,
            "4": 0,
            "5": 0,
            "6": 5,
            "7": 0,
            "8": 0,
            "9": 0
        },
        "tidyTrace": [
            {
                "children": [
                    {
                        "children": [
                            {
                                "children": [
                                    {
                                        "children": [],
                                        "depth": 2,
                                        "id": 6,
                                        "order": 6
                                    }
                                ],
                                "depth": 1,
                                "id": 5,
                                "order": 5
                            },
                            {
                                "children": [],
                                "depth": 1,
                                "id": 8,
                                "order": 8
                            },
                            {
                                "children": [],
                                "depth": 1,
                                "id": 10,
                                "order": 10
                            },
                            {
                                "children": [
                                    {
                                        "children": [],
                                        "depth": 2,
                                        "id": 14,
                                        "order": 14
                                    }
                                ],
                                "depth": 1,
                                "id": 13,
                                "order": 13
                            },
                            {
                                "children": [],
                                "depth": 1,
                                "id": 15,
                                "order": 15
                            },
                            {
                                "children": [],
                                "depth": 1,
                                "id": 16,
                                "order": 16
                            },
                            {
                                "children": [],
                                "depth": 1,
                                "id": 17,
                                "order": 17
                            }
                        ],
                        "depth": 0,
                        "id": 0,
                        "order": 0
                    }
                ],
                "depth": -1,
                "id": -1,
                "order": -1
            }
        ],
        "tidyTraceNodeCount": 10
    },
    "state_change": {
        "stateChanges": [
            {
                "address": "0x706d7f8b3445d8dfc790c524e3990ef014e7c578",
                "erc": "",
                "slots": [
                    {
                        "current": "0x00000000000000000000000000000000000000000000000868e15a4b8e477d0a",
                        "key": "0x24c4b1e15a0af3c0a50eeaa96db73ad5730b5c28165d4c4bf2d0036dcfa689a3",
                        "prev": "0x0000000000000000000000000000000000000000000000000000000000000000"
                    },
                    {
                        "current": "0x0000000000000000000000000000000000000000000000000000000000000ccc",
                        "key": "0x221e1c01ae9d909fafb5d15fcdc7de6f832f6dc40905968c1f1d6d9ab7297121",
                        "prev": "0x0000000000000000000000000000000000000000000000000000000000000000"
                    },
                    {
                        "current": "0x000000000000000000000000000000000000000001874a6e55d0db2441e55fed",
                        "key": "0x000000000000000000000000000000000000000000000000000000000000000b",
                        "prev": "0x000000000000000000000000000000000000000001874a76beb2356fd02cdcf7"
                    },
                    {
                        "current": "0x0000000000000000000000000000000000000000000000000000000000003da0",
                        "key": "0x0000000000000000000000000000000000000000000000000000000000000009",
                        "prev": "0x0000000000000000000000000000000000000000000000000000000000003d9f"
                    },
                    {
                        "current": "0x00000000000000000000000003245fc24d3764aaeee7f877188ee6a30eb4e790",
                        "key": "0x98650778c4e6ae519c94252b32ab0234be307c7b53fd888c9dab1f9882720f0b",
                        "prev": "0x0000000000000000000000000000000000000000000000000000000000000000"
                    },
                    {
                        "current": "0xccccccccd6bbe6bf0c2471ba706d7f8b3445d8dfc790c524e3990ef014e7c578",
                        "key": "0x98650778c4e6ae519c94252b32ab0234be307c7b53fd888c9dab1f9882720f0c",
                        "prev": "0x0000000000000000000000000000000000000000000000000000000000000000"
                    },
                    {
                        "current": "0x00000000000000000000000000000000000000000000000868e15a4b8e477d0a",
                        "key": "0x98650778c4e6ae519c94252b32ab0234be307c7b53fd888c9dab1f9882720f0d",
                        "prev": "0x0000000000000000000000000000000000000000000000000000000000000000"
                    }
                ],
                "storageVariables": [
                    {
                        "name": "supplyNonce",
                        "type": "uint256",
                        "value": {
                            "current": "15776",
                            "prev": "15775",
                            "typeTag": 1
                        }
                    },
                    {
                        "name": "nonceToSupply",
                        "type": "mapping(uint256 => struct FlexaCollateralManager.Supply)",
                        "value": {
                            "pairs": [
                                {
                                    "key": "15776",
                                    "value": {
                                        "fields": [
                                            {
                                                "name": "supplier",
                                                "type": "address",
                                                "value": {
                                                    "current": "0x03245fc24d3764aaeee7f877188ee6a30eb4e790",
                                                    "prev": "0x0000000000000000000000000000000000000000",
                                                    "typeTag": 1
                                                }
                                            },
                                            {
                                                "name": "partition",
                                                "type": "bytes32",
                                                "value": {
                                                    "current": "0xccccccccd6bbe6bf0c2471ba706d7f8b3445d8dfc790c524e3990ef014e7c578",
                                                    "prev": "0x0000000000000000000000000000000000000000000000000000000000000000",
                                                    "typeTag": 1
                                                }
                                            },
                                            {
                                                "name": "amount",
                                                "type": "uint256",
                                                "value": {
                                                    "current": "155131373519936912650",
                                                    "prev": "0",
                                                    "typeTag": 1
                                                }
                                            }
                                        ],
                                        "typeTag": 3
                                    }
                                }
                            ],
                            "typeTag": 4
                        }
                    },
                    {
                        "name": "addressToCumulativeAmountWithdrawn",
                        "type": "mapping(bytes32 => mapping(address => uint256))",
                        "value": {
                            "pairs": [
                                {
                                    "key": "0xcccccccc2862b8cb21caedb8706d7f8b3445d8dfc790c524e3990ef014e7c578",
                                    "value": {
                                        "pairs": [
                                            {
                                                "key": "0x03245fc24d3764aaeee7f877188ee6a30eb4e790",
                                                "value": {
                                                    "current": "155131373519936912650",
                                                    "prev": "0",
                                                    "typeTag": 1
                                                }
                                            }
                                        ],
                                        "typeTag": 4
                                    }
                                }
                            ],
                            "typeTag": 4
                        }
                    },
                    {
                        "name": "addressToWithdrawalNonce",
                        "type": "mapping(bytes32 => mapping(address => uint256))",
                        "value": {
                            "pairs": [
                                {
                                    "key": "0xcccccccc2862b8cb21caedb8706d7f8b3445d8dfc790c524e3990ef014e7c578",
                                    "value": {
                                        "pairs": [
                                            {
                                                "key": "0x03245fc24d3764aaeee7f877188ee6a30eb4e790",
                                                "value": {
                                                    "current": "3276",
                                                    "prev": "0",
                                                    "typeTag": 1
                                                }
                                            }
                                        ],
                                        "typeTag": 4
                                    }
                                }
                            ],
                            "typeTag": 4
                        }
                    },
                    {
                        "name": "withdrawalLimit",
                        "type": "uint256",
                        "value": {
                            "current": "473041485914583706257154029",
                            "prev": "473041641045957226194066679",
                            "typeTag": 1
                        }
                    }
                ]
            },
            {
                "address": "0xff20817765cb7f73d4bde2e66e067e58d11095c2",
                "erc": "ERC-20",
                "slots": [
                    {
                        "current": "0x00000000000000000000000000000000000000003f1b682f7b3486d6f8d60063",
                        "key": "0xa827b062a14ef6b8cc80402da77cab5eeeec959b7954ca64b1034670f6453e2b",
                        "prev": "0x00000000000000000000000000000000000000003f1b6837e415e122871d7d6d"
                    },
                    {
                        "current": "0x00000000000000000000000000000000000000003f1b682f7b3486d6f8d60063",
                        "key": "0x5cb3cc2cadc9d0e60d81d60ed58447a5904256276eb2e9d8db43c4b347cb1d9a",
                        "prev": "0x00000000000000000000000000000000000000003f1b6837e415e122871d7d6d"
                    },
                    {
                        "current": "0x00000000000000000000000000000000000000000d5c179e97ddd353377b9cb1",
                        "key": "0xc30561a91d933364b49c9b1fcd269854915d128b5b54343a803ec5802add4db7",
                        "prev": "0x00000000000000000000000000000000000000000d5c17962efc7907a9341fa7"
                    },
                    {
                        "current": "0x00000000000000000000000000000000000000000d5c179e97ddd353377b9cb1",
                        "key": "0x6d1a9315f7f3e36df77d3ae9b0c7a65561321821340046e50d7f1d5c1ffda18a",
                        "prev": "0x00000000000000000000000000000000000000000d5c17962efc7907a9341fa7"
                    }
                ],
                "storageVariables": [
                    {
                        "name": "_balanceOfByPartition",
                        "type": "mapping(address => mapping(bytes32 => uint256))",
                        "value": {
                            "pairs": [
                                {
                                    "key": "0x706d7f8b3445d8dfc790c524e3990ef014e7c578",
                                    "value": {
                                        "pairs": [
                                            {
                                                "key": "0xcccccccc2862b8cb21caedb8706d7f8b3445d8dfc790c524e3990ef014e7c578",
                                                "value": {
                                                    "current": "19530688617863393248139411555",
                                                    "prev": "19530688772994766768076324205",
                                                    "typeTag": 1
                                                }
                                            },
                                            {
                                                "key": "0xccccccccd6bbe6bf0c2471ba706d7f8b3445d8dfc790c524e3990ef014e7c578",
                                                "value": {
                                                    "current": "4134637843039836449390959793",
                                                    "prev": "4134637687908462929454047143",
                                                    "typeTag": 1
                                                }
                                            }
                                        ],
                                        "typeTag": 4
                                    }
                                }
                            ],
                            "typeTag": 4
                        }
                    },
                    {
                        "name": "totalSupplyByPartition",
                        "type": "mapping(bytes32 => uint256)",
                        "value": {
                            "pairs": [
                                {
                                    "key": "0xcccccccc2862b8cb21caedb8706d7f8b3445d8dfc790c524e3990ef014e7c578",
                                    "value": {
                                        "current": "19530688617863393248139411555",
                                        "prev": "19530688772994766768076324205",
                                        "typeTag": 1
                                    }
                                },
                                {
                                    "key": "0xccccccccd6bbe6bf0c2471ba706d7f8b3445d8dfc790c524e3990ef014e7c578",
                                    "value": {
                                        "current": "4134637843039836449390959793",
                                        "prev": "4134637687908462929454047143",
                                        "typeTag": 1
                                    }
                                }
                            ],
                            "typeTag": 4
                        }
                    }
                ]
            }
        ]
    }
}