{
    "balance_change": {
        "balanceChanges": [
            {
                "account": "0x201930f7b5a5fa20496fe90411f7babef35e94dc",
                "assets": [
                    {
                        "address": "0x6b175474e89094c44da98b954eedeac495271d0f",
                        "amount": "4,755.11",
                        "iconUrl": "https://assets.blocksec.com/icon/39aead569b9c011cb6f69734d9abbc9ab6a80049fe93bbd12bb473a3e0e859a3.png",
                        "isERC1155": false,
                        "isERC721": false,
                        "sign": false,
                        "value": "4762.5381"
                    }
                ]
            },
            {
                "account": "0x0000000000000000000000000000000000000000",
                "assets": [
                    {
                        "address": "0x6b175474e89094c44da98b954eedeac495271d0f",
                        "amount": "4,755.11",
                        "iconUrl": "https://assets.blocksec.com/icon/39aead569b9c011cb6f69734d9abbc9ab6a80049fe93bbd12bb473a3e0e859a3.png",
                        "isERC1155": false,
                        "isERC721": false,
                        "sign": true,
                        "value": "4762.5381"
                    }
                ]
            }
        ]
    },
    "profile": {
        "basic_info": {
            "baseFee": "",
            "blockNumber": 12489233,
            "callData": "0x1cff79cd00000000000000000000000082ecd135dce65fbc6dbdd0e4237e0af93ffd5038000000000000000000000000000000000000000000000000000000000000004000000000000000000000000000000000000000000000000000000000000000844b6661990000000000000000000000005ef30b9986345249bc32d8928b7ee64de9435e390000000000000000000000009759a6ac90977b93b58547b4a71c78317f391a280000000000000000000000000000000000000000000000000000000000002e87000000000000000000000000000000000000000000000101c6685758f3b7000000000000000000000000000000000000000000000000000000000000",
            "debugEnable": true,
            "errorInfo": "",
            "eventCount": 8,
            "feeRecipient": "0x1ad91ee08f21be3de0ba2ba6918e714da6b45836",
            "formatValue": "0",
            "gasLimit": 316884,
            "gasPrice": "44",
            "gasUsed": 168305,
            "intTxnCount": 17,
            "internalRevert": false,
            "internalRevertMessage": "",
            "isContractCreation": false,
            "isFlashloan": false,
            "maxFee": "",
            "nonce": 308,
            "overwritedBlockNumber": -1,
            "priorityFee": "",
            "receiver": "0x27f75682b99c1b35d165ee9a768e5f37fadca54d",
            "revertMessage": "",
            "sender": "0x201930f7b5a5fa20496fe90411f7babef35e94dc",
            "simulationEnable": true,
            "sourceTxnHash": "0x6ee7d82d42abe3889b5ac1d5845a6f36c63fc88d9fa78e4a2ab74022ca93f890",
            "status": true,
            "timestamp": "2021-05-23T07:23:51Z",
            "transactionFee": "0.00740542",
            "txnHash": "0x6ee7d82d42abe3889b5ac1d5845a6f36c63fc88d9fa78e4a2ab74022ca93f890",
            "txnIndex": 128,
            "type": 0,
            "value": "0"
        },
        "fund_flow": [
            {
                "amount": "4,755.11",
                "from": "0x201930f7b5a5fa20496fe90411f7babef35e94dc",
                "id": 1,
                "isERC1155": false,
                "isERC721": false,
                "isReverted": false,
                "order": 1,
                "to": "0x27f75682b99c1b35d165ee9a768e5f37fadca54d",
                "token": "0x6b175474e89094c44da98b954eedeac495271d0f"
            },
            {
                "amount": "4,755.11",
                "from": "0x27f75682b99c1b35d165ee9a768e5f37fadca54d",
                "id": 2,
                "isERC1155": false,
                "isERC721": false,
                "isReverted": false,
                "order": 2,
                "to": "0x0000000000000000000000000000000000000000",
                "token": "0x6b175474e89094c44da98b954eedeac495271d0f"
            }
        ],
        "token_infos": [
            {
                "address": "0x6b175474e89094c44da98b954eedeac495271d0f",
                "decimals": 18
            },
            {
                "address": "0xc02aaa39b223fe8d0a0e5c4f27ead9083c756cc2",
                "decimals": 18
            },
            {
                "address": "0xeeeeeeeeeeeeeeeeeeeeeeeeeeeeeeeeeeeeeeee",
                "decimals": 18
            }
        ]
    },
    "address_label": {
        "labels": [
            {
                "address": "0x0000000000000000000000000000000000000004",
                "label": "Precompiled"
            },
            {
                "address": "0x6b175474e89094c44da98b954eedeac495271d0f",
                "label": "Sky: Dai Stablecoin"
            },
            {
                "address": "0x82ecd135dce65fbc6dbdd0e4237e0af93ffd5038",
                "label": "Maker: Proxy Actions"
            },
            {
                "address": "0x5ef30b9986345249bc32d8928b7ee64de9435e39",
                "label": "Sky: CDP Manager"
            },
            {
                "address": "0x35d1b3f3d7966a1dfe207aa4514c12a259a0492b",
                "label": "Sky: MCD Vat"
            },
            {
                "address": "0x9759a6ac90977b93b58547b4a71c78317f391a28",
                "label": "Sky: MCD Join DAI"
            },
            {
                "address": "0x0000000000000000000000000000000000000003",
                "label": "Precompiled"
            },
            {
                "address": "0xeeeeeeeeeeeeeeeeeeeeeeeeeeeeeeeeeeeeeeee",
                "label": "Ether"
            },
            {
                "address": "0x27f75682b99c1b35d165ee9a768e5f37fadca54d",
                "label": "DSProxy"
            },
            {
                "address": "0x0000000000000000000000000000000000000001",
                "label": "Precompiled"
            },
            {
                "address": "0x0000000000000000000000000000000000000002",
                "label": "Precompiled"
            }
        ]
    },
    "trace": {
        "accountLabels": null,
        "dataMap": {
            "-1": {
                "invocation": {
                    "address": "0x201930f7b5a5fa20496fe90411f7babef35e94dc",
                    "callData": "",
                    "decodedMethod": null,
                    "errorInfo": "",
                    "fromAddress": "",
                    "gasUsed": 0,
                    "id": -1,
                    "methodDecoded": false,
                    "operation": "",
                    "output": "",
                    "revert": false,
                    "revertMessage": "",
                    "selector": "",
                    "status": false,
                    "value": ""
                },
                "nodeType": 0
            },
            "0": {
                "invocation": {
                    "address": "0x27f75682b99c1b35d165ee9a768e5f37fadca54d",
                    "callData": "0x00000000000000000000000082ecd135dce65fbc6dbdd0e4237e0af93ffd5038000000000000000000000000000000000000000000000000000000000000004000000000000000000000000000000000000000000000000000000000000000844b6661990000000000000000000000005ef30b9986345249bc32d8928b7ee64de9435e390000000000000000000000009759a6ac90977b93b58547b4a71c78317f391a280000000000000000000000000000000000000000000000000000000000002e87000000000000000000000000000000000000000000000101c6685758f3b7000000000000000000000000000000000000000000000000000000000000",
                    "decodedMethod": {
                        "callParams": [
                            {
                                "name": "_target",
                                "type": "address",
                                "value": "0x82ecd135dce65fbc6dbdd0e4237e0af93ffd5038"
                            },
                            {
                                "name": "_data",
                                "type": "bytes",
                                "value": "0x4b6661990000000000000000000000005ef30b9986345249bc32d8928b7ee64de9435e390000000000000000000000009759a6ac90977b93b58547b4a71c78317f391a280000000000000000000000000000000000000000000000000000000000002e87000000000000000000000000000000000000000000000101c6685758f3b70000"
                            }
                        ],
                        "constructorArguments": "",
                        "name": "execute",
                        "returnParams": [
                            {
                                "name": "response",
                                "type": "bytes32",
                                "value": "0x0000000000000000000000000000000000000000000000000000000000000000"
                            }
                        ],
                        "signature": "execute(address,bytes)"
                    },
                    "errorInfo": "",
                    "fromAddress": "0x201930f7b5a5fa20496fe90411f7babef35e94dc",
                    "gasUsed": 168305,
                    "id": 0,
                    "methodDecoded": true,
                    "operation": "CALL",
                    "output": "0x0000000000000000000000000000000000000000000000000000000000000000",
                    "revert": false,
                    "revertMessage": "",
                    "selector": "0x1cff79cd",
                    "status": true,
                    "value": "0"
                },
                "nodeType": 0
            },
            "1": {
                "event": {
                    "contract": "0x27f75682b99c1b35d165ee9a768e5f37fadca54d",
                    "decodedLog": null,
                    "id": 1,
                    "logData": "0x0000000000000000000000000000000000000000000000000000000000000000000000000000000000000000000000000000000000000000000000000000004000000000000000000000000000000000000000000000000000000000000001041cff79cd00000000000000000000000082ecd135dce65fbc6dbdd0e4237e0af93ffd5038000000000000000000000000000000000000000000000000000000000000004000000000000000000000000000000000000000000000000000000000000000844b6661990000000000000000000000005ef30b9986345249bc32d8928b7ee64de9435e390000000000000000000000009759a6ac90977b93b58547b4a71c78317f391a280000000000000000000000000000000000000000000000000000000000002e87000000000000000000000000000000000000000000000101c6685758f3b7000000000000000000000000000000000000000000000000000000000000",
                    "logDecoded": false,
                    "operation": "EVENT",
                    "revert": false,
                    "status": true,
                    "topics": [
                        "0x1cff79cd00000000000000000000000000000000000000000000000000000000",
                        "0x000000000000000000000000201930f7b5a5fa20496fe90411f7babef35e94dc",
                        "0x00000000000000000000000082ecd135dce65fbc6dbdd0e4237e0af93ffd5038",
                        "0x0000000000000000000000000000000000000000000000000000000000000040"
                    ]
                },
                "nodeType": 1
            },
            "10": {
                "invocation": {
                    "address": "0x9759a6ac90977b93b58547b4a71c78317f391a28",
                    "callData": "0x",
                    "decodedMethod": {
                        "callParams": [],
                        "constructorArguments": "",
                        "name": "dai",
                        "returnParams": [
                            {
                                "name": "",
                                "type": "address",
                                "value": "0x6b175474e89094c44da98b954eedeac495271d0f"
                            }
                        ],
                        "signature": "dai()"
                    },
                    "errorInfo": "",
                    "fromAddress": "0x27f75682b99c1b35d165ee9a768e5f37fadca54d",
                    "gasUsed": 441,
                    "id": 10,
                    "methodDecoded": true,
                    "operation": "CALL",
                    "output": "0x0000000000000000000000006b175474e89094c44da98b954eedeac495271d0f",
                    "revert": false,
                    "revertMessage": "",
                    "selector": "0xf4b9fa75",
                    "status": true,
                    "value": "0"
                },
                "nodeType": 0
            },
            "11": {
                "invocation": {
                    "address": "0x6b175474e89094c44da98b954eedeac495271d0f",
                    "callData": "0x0000000000000000000000009759a6ac90977b93b58547b4a71c78317f391a28000000000000000000000000000000000000000000000101c6685758f3b70000",
                    "decodedMethod": {
                        "callParams": [
                            {
                                "name": "usr",
                                "type": "address",
                                "value": "0x9759a6ac90977b93b58547b4a71c78317f391a28"
                            },
                            {
                                "decimalAvailable": true,
                                "name": "wad",
                                "type": "uint256",
                                "value": "4,755,110,000,000,000,000,000"
                            }
                        ],
                        "constructorArguments": "",
                        "name": "approve",
                        "returnParams": [
                            {
                                "name": "",
                                "type": "bool",
                                "value": true
                            }
                        ],
                        "signature": "approve(address,uint256)"
                    },
                    "errorInfo": "",
                    "fromAddress": "0x27f75682b99c1b35d165ee9a768e5f37fadca54d",
                    "gasUsed": 24514,
                    "id": 11,
                    "methodDecoded": true,
                    "operation": "CALL",
                    "output": "0x0000000000000000000000000000000000000000000000000000000000000001",
                    "revert": false,
                    "revertMessage": "",
                    "selector": "0x095ea7b3",
                    "status": true,
                    "value": "0"
                },
                "nodeType": 0
            },
            "12": {
                "event": {
                    "contract": "0x6b175474e89094c44da98b954eedeac495271d0f",
                    "decodedLog": {
                        "name": "Approval",
                        "params": [
                            {
                                "name": "src",
                                "type": "address",
                                "value": "0x27f75682b99c1b35d165ee9a768e5f37fadca54d"
                            },
                            {
                                "name": "guy",
                                "type": "address",
                                "value": "0x9759a6ac90977b93b58547b4a71c78317f391a28"
                            },
                            {
                                "decimalAvailable": true,
                                "name": "wad",
                                "type": "uint256",
                                "value": "4,755,110,000,000,000,000,000"
                            }
                        ],
                        "signature": "Approval(address,address,uint256)"
                    },
                    "id": 12,
                    "logData": "0x000000000000000000000000000000000000000000000101c6685758f3b70000",
                    "logDecoded": true,
                    "operation": "EVENT",
                    "revert": false,
                    "status": true,
                    "topics": [
                        "0x8c5be1e5ebec7d5bd14f71427d1e84f3dd0314c0f7b2291e5b200ac8c7c3b925",
                        "0x00000000000000000000000027f75682b99c1b35d165ee9a768e5f37fadca54d",
                        "0x0000000000000000000000009759a6ac90977b93b58547b4a71c78317f391a28"
                    ]
                },
                "nodeType": 1
            },
            "13": {
                "invocation": {
                    "address": "0x9759a6ac90977b93b58547b4a71c78317f391a28",
                    "callData": "0x000000000000000000000000b981535c5caa085bafa63c1c0cc62aafc26a5795000000000000000000000000000000000000000000000101c6685758f3b70000",
                    "decodedMethod": {
                        "callParams": [
                            {
                                "name": "usr",
                                "type": "address",
                                "value": "0xb981535c5caa085bafa63c1c0cc62aafc26a5795"
                            },
                            {
                                "name": "wad",
                                "type": "uint256",
                                "value": "4,755,110,000,000,000,000,000"
                            }
                        ],
                        "constructorArguments": "",
                        "name": "join",
                        "returnParams": [],
                        "signature": "join(address,uint256)"
                    },
                    "errorInfo": "",
                    "fromAddress": "0x27f75682b99c1b35d165ee9a768e5f37fadca54d",
                    "gasUsed": 37293,
                    "id": 13,
                    "methodDecoded": true,
                    "operation": "CALL",
                    "output": "",
                    "revert": false,
                    "revertMessage": "",
                    "selector": "0x3b4da69f",
                    "status": true,
                    "value": "0"
                },
                "nodeType": 0
            },
            "14": {
                "invocation": {
                    "address": "0x35d1b3f3d7966a1dfe207aa4514c12a259a0492b",
                    "callData": "0x0000000000000000000000009759a6ac90977b93b58547b4a71c78317f391a28000000000000000000000000b981535c5caa085bafa63c1c0cc62aafc26a579500000000000000000000000340ea81c458aee86080782f8d3bc1d80000000000",
                    "decodedMethod": {
                        "callParams": [
                            {
                                "name": "src",
                                "type": "address",
                                "value": "0x9759a6ac90977b93b58547b4a71c78317f391a28"
                            },
                            {
                                "name": "dst",
                                "type": "address",
                                "value": "0xb981535c5caa085bafa63c1c0cc62aafc26a5795"
                            },
                            {
                                "name": "rad",
                                "type": "uint256",
                                "value": "4,755,110,000,000,000,000,000,000,000,000,000,000,000,000,000,000"
                            }
                        ],
                        "constructorArguments": "",
                        "name": "move",
                        "returnParams": [],
                        "signature": "move(address,address,uint256)"
                    },
                    "errorInfo": "",
                    "fromAddress": "0x9759a6ac90977b93b58547b4a71c78317f391a28",
                    "gasUsed": 17643,
                    "id": 14,
                    "methodDecoded": true,
                    "operation": "CALL",
                    "output": "",
                    "revert": false,
                    "revertMessage": "",
                    "selector": "0xbb35783b",
                    "status": true,
                    "value": "0"
                },
                "nodeType": 0
            },
            "15": {
                "event": {
                    "contract": "0x35d1b3f3d7966a1dfe207aa4514c12a259a0492b",
                    "decodedLog": null,
                    "id": 15,
                    "logData": "0x000000000000000000000000000000000000000000000000000000000000002000000000000000000000000000000000000000000000000000000000000000e0bb35783b0000000000000000000000009759a6ac90977b93b58547b4a71c78317f391a28000000000000000000000000b981535c5caa085bafa63c1c0cc62aafc26a579500000000000000000000000340ea81c458aee86080782f8d3bc1d8000000000000000000000000000000000000000000000000000000000000000000000000000000000000000000000000000000000000000000000000000000000000000000000000000000000000000000000000000000000000000000000000000000000000000000000000000000000000000000000000000000000000000000",
                    "logDecoded": false,
                    "operation": "EVENT",
                    "revert": false,
                    "status": true,
                    "topics": [
                        "0xbb35783b00000000000000000000000000000000000000000000000000000000",
                        "0x0000000000000000000000009759a6ac90977b93b58547b4a71c78317f391a28",
                        "0x000000000000000000000000b981535c5caa085bafa63c1c0cc62aafc26a5795",
                        "0x00000000000000000000000340ea81c458aee86080782f8d3bc1d80000000000"
                    ]
                },
                "nodeType": 1
            },
            "16": {
                "invocation": {
                    "address": "0x6b175474e89094c44da98b954eedeac495271d0f",
                    "callData": "0x00000000000000000000000027f75682b99c1b35d165ee9a768e5f37fadca54d000000000000000000000000000000000000000000000101c6685758f3b70000",
                    "decodedMethod": {
                        "callParams": [
                            {
                                "name": "usr",
                                "type": "address",
                                "value": "0x27f75682b99c1b35d165ee9a768e5f37fadca54d"
                            },
                            {
                                "name": "wad",
                                "type": "uint256",
                                "value": "4,755,110,000,000,000,000,000"
                            }
                        ],
                        "constructorArguments": "",
                        "name": "burn",
                        "returnParams": [],
                        "signature": "burn(address,uint256)"
                    },
                    "errorInfo": "",
                    "fromAddress": "0x9759a6ac90977b93b58547b4a71c78317f391a28",
                    "gasUsed": 9303,
                    "id": 16,
                    "methodDecoded": true,
                    "operation": "CALL",
                    "output": "",
                    "revert": false,
                    "revertMessage": "",
                    "selector": "0x9dc29fac",
                    "status": true,
                    "value": "0"
                },
                "nodeType": 0
            },
            "17": {
                "event": {
                    "contract": "0x6b175474e89094c44da98b954eedeac495271d0f",
                    "decodedLog": {
                        "name": "Transfer",
                        "params": [
                            {
                                "name": "src",
                                "type": "address",
                                "value": "0x27f75682b99c1b35d165ee9a768e5f37fadca54d"
                            },
                            {
                                "name": "dst",
                                "type": "address",
                                "value": "0x0000000000000000000000000000000000000000"
                            },
                            {
                                "decimalAvailable": true,
                                "name": "wad",
                                "type": "uint256",
                                "value": "4,755,110,000,000,000,000,000"
                            }
                        ],
                        "signature": "Transfer(address,address,uint256)"
                    },
                    "id": 17,
                    "logData": "0x000000000000000000000000000000000000000000000101c6685758f3b70000",
                    "logDecoded": true,
                    "operation": "EVENT",
                    "revert": false,
                    "status": true,
                    "topics": [
                        "0xddf252ad1be2c89b69c2b068fc378daa952ba7f163c4a11628f55a4df523b3ef",
                        "0x00000000000000000000000027f75682b99c1b35d165ee9a768e5f37fadca54d",
                        "0x0000000000000000000000000000000000000000000000000000000000000000"
                    ]
                },
                "nodeType": 1
            },
            "18": {
                "event": {
                    "contract": "0x9759a6ac90977b93b58547b4a71c78317f391a28",
                    "decodedLog": null,
                    "id": 18,
                    "logData": "0x000000000000000000000000000000000000000000000000000000000000002000000000000000000000000000000000000000000000000000000000000000e03b4da69f000000000000000000000000b981535c5caa085bafa63c1c0cc62aafc26a5795000000000000000000000000000000000000000000000101c6685758f3b70000000000000000000000000000000000000000000000000000000000000000000000000000000000000000000000000000000000000000000000000000000000000000000000000000000000000000000000000000000000000000000000000000000000000000000000000000000000000000000000000000000000000000000000000000000000000000000000000000000000000000000000000000",
                    "logDecoded": false,
                    "operation": "EVENT",
                    "revert": false,
                    "status": true,
                    "topics": [
                        "0x3b4da69f00000000000000000000000000000000000000000000000000000000",
                        "0x00000000000000000000000027f75682b99c1b35d165ee9a768e5f37fadca54d",
                        "0x000000000000000000000000b981535c5caa085bafa63c1c0cc62aafc26a5795",
                        "0x000000000000000000000000000000000000000000000101c6685758f3b70000"
                    ]
                },
                "nodeType": 1
            },
            "19": {
                "invocation": {
                    "address": "0x35d1b3f3d7966a1dfe207aa4514c12a259a0492b",
                    "callData": "0x000000000000000000000000b981535c5caa085bafa63c1c0cc62aafc26a5795",
                    "decodedMethod": {
                        "callParams": [
                            {
                                "name": "",
                                "type": "address",
                                "value": "0xb981535c5caa085bafa63c1c0cc62aafc26a5795"
                            }
                        ],
                        "constructorArguments": "",
                        "name": "dai",
                        "returnParams": [
                            {
                                "name": "",
                                "type": "uint256",
                                "value": "4,755,110,000,000,000,000,000,510,062,917,556,947,896,620,769,613"
                            }
                        ],
                        "signature": "dai(address)"
                    },
                    "errorInfo": "",
                    "fromAddress": "0x27f75682b99c1b35d165ee9a768e5f37fadca54d",
                    "gasUsed": 536,
                    "id": 19,
                    "methodDecoded": true,
                    "operation": "STATICCALL",
                    "output": "0x00000000000000000000000340ea81c458aee860821e1993663f4e02826f614d",
                    "revert": false,
                    "revertMessage": "",
                    "selector": "0x6c25b346",
                    "status": true,
                    "value": "0"
                },
                "nodeType": 0
            },
            "2": {
                "invocation": {
                    "address": "0x82ecd135dce65fbc6dbdd0e4237e0af93ffd5038",
                    "callData": "0x0000000000000000000000005ef30b9986345249bc32d8928b7ee64de9435e390000000000000000000000009759a6ac90977b93b58547b4a71c78317f391a280000000000000000000000000000000000000000000000000000000000002e87000000000000000000000000000000000000000000000101c6685758f3b70000",
                    "decodedMethod": {
                        "callParams": [
                            {
                                "name": "manager",
                                "type": "address",
                                "value": "0x5ef30b9986345249bc32d8928b7ee64de9435e39"
                            },
                            {
                                "name": "daiJoin",
                                "type": "address",
                                "value": "0x9759a6ac90977b93b58547b4a71c78317f391a28"
                            },
                            {
                                "name": "cdp",
                                "type": "uint256",
                                "value": "11,911"
                            },
                            {
                                "name": "wad",
                                "type": "uint256",
                                "value": "4,755,110,000,000,000,000,000"
                            }
                        ],
                        "constructorArguments": "",
                        "name": "wipe",
                        "returnParams": [],
                        "signature": "wipe(address,address,uint256,uint256)"
                    },
                    "errorInfo": "",
                    "fromAddress": "0x27f75682b99c1b35d165ee9a768e5f37fadca54d",
                    "gasUsed": 174164,
                    "id": 2,
                    "methodDecoded": true,
                    "operation": "DELEGATECALL",
                    "output": "",
                    "revert": false,
                    "revertMessage": "",
                    "selector": "0x4b666199",
                    "status": true,
                    "value": "0"
                },
                "nodeType": 0
            },
            "20": {
                "invocation": {
                    "address": "0x35d1b3f3d7966a1dfe207aa4514c12a259a0492b",
                    "callData": "0x4554482d41000000000000000000000000000000000000000000000000000000",
                    "decodedMethod": {
                        "callParams": [
                            {
                                "name": "",
                                "type": "bytes32",
                                "value": "0x4554482d41000000000000000000000000000000000000000000000000000000"
                            }
                        ],
                        "constructorArguments": "",
                        "name": "ilks",
                        "returnParams": [
                            {
                                "name": "Art",
                                "type": "uint256",
                                "value": "2,077,421,630,922,512,863,425,905,125"
                            },
                            {
                                "name": "rate",
                                "type": "uint256",
                                "value": "1,043,574,536,524,755,990,270,250,130"
                            },
                            {
                                "name": "spot",
                                "type": "uint256",
                                "value": "1,500,348,764,360,000,000,000,000,000,000"
                            },
                            {
                                "name": "line",
                                "type": "uint256",
                                "value": "2,324,174,309,079,422,104,858,191,317,971,771,887,436,494,291,907,631,384"
                            },
                            {
                                "name": "dust",
                                "type": "uint256",
                                "value": "5,000,000,000,000,000,000,000,000,000,000,000,000,000,000,000,000"
                            }
                        ],
                        "signature": "ilks(bytes32)"
                    },
                    "errorInfo": "",
                    "fromAddress": "0x27f75682b99c1b35d165ee9a768e5f37fadca54d",
                    "gasUsed": 11094,
                    "id": 20,
                    "methodDecoded": true,
                    "operation": "STATICCALL",
                    "output": "0x000000000000000000000000000000000000000006b66724454e75080f72c1e50000000000000000000000000000000000000000035f3980fb8764c190f10c920000000000000000000000000000000000000012efe368f240b17f0e062000000000000000000000001843f898445ba4b72ee7d9f0a86533b704882c19ffd9180000000000000000000000036bcfc1194751ed30f03375d97c45000000000000",
                    "revert": false,
                    "revertMessage": "",
                    "selector": "0xd9638d36",
                    "status": true,
                    "value": "0"
                },
                "nodeType": 0
            },
            "21": {
                "invocation": {
                    "address": "0x35d1b3f3d7966a1dfe207aa4514c12a259a0492b",
                    "callData": "0x4554482d41000000000000000000000000000000000000000000000000000000000000000000000000000000b981535c5caa085bafa63c1c0cc62aafc26a5795",
                    "decodedMethod": {
                        "callParams": [
                            {
                                "name": "",
                                "type": "bytes32",
                                "value": "0x4554482d41000000000000000000000000000000000000000000000000000000"
                            },
                            {
                                "name": "",
                                "type": "address",
                                "value": "0xb981535c5caa085bafa63c1c0cc62aafc26a5795"
                            }
                        ],
                        "constructorArguments": "",
                        "name": "urns",
                        "returnParams": [
                            {
                                "name": "ink",
                                "type": "uint256",
                                "value": "6,850,000,000,000,000,000"
                            },
                            {
                                "name": "art",
                                "type": "uint256",
                                "value": "9,347,793,029,367,853,279,337"
                            }
                        ],
                        "signature": "urns(bytes32,address)"
                    },
                    "errorInfo": "",
                    "fromAddress": "0x27f75682b99c1b35d165ee9a768e5f37fadca54d",
                    "gasUsed": 4753,
                    "id": 21,
                    "methodDecoded": true,
                    "operation": "STATICCALL",
                    "output": "0x0000000000000000000000000000000000000000000000005f1016b5076d00000000000000000000000000000000000000000000000001fabeb0297adf84e869",
                    "revert": false,
                    "revertMessage": "",
                    "selector": "0x2424be5c",
                    "status": true,
                    "value": "0"
                },
                "nodeType": 0
            },
            "22": {
                "invocation": {
                    "address": "0x5ef30b9986345249bc32d8928b7ee64de9435e39",
                    "callData": "0x0000000000000000000000000000000000000000000000000000000000002e870000000000000000000000000000000000000000000000000000000000000000ffffffffffffffffffffffffffffffffffffffffffffff08fd06ed1a497901e6",
                    "decodedMethod": {
                        "callParams": [
                            {
                                "name": "cdp",
                                "type": "uint256",
                                "value": "11,911"
                            },
                            {
                                "name": "dink",
                                "type": "int256",
                                "value": "0"
                            },
                            {
                                "name": "dart",
                                "type": "int256",
                                "value": "-4,556,560,009,441,355,169,306"
                            }
                        ],
                        "constructorArguments": "",
                        "name": "frob",
                        "returnParams": [],
                        "signature": "frob(uint256,int256,int256)"
                    },
                    "errorInfo": "",
                    "fromAddress": "0x27f75682b99c1b35d165ee9a768e5f37fadca54d",
                    "gasUsed": 36840,
                    "id": 22,
                    "methodDecoded": true,
                    "operation": "CALL",
                    "output": "",
                    "revert": false,
                    "revertMessage": "",
                    "selector": "0x45e6bdcd",
                    "status": true,
                    "value": "0"
                },
                "nodeType": 0
            },
            "23": {
                "invocation": {
                    "address": "0x35d1b3f3d7966a1dfe207aa4514c12a259a0492b",
                    "callData": "0x4554482d41000000000000000000000000000000000000000000000000000000000000000000000000000000b981535c5caa085bafa63c1c0cc62aafc26a5795000000000000000000000000b981535c5caa085bafa63c1c0cc62aafc26a5795000000000000000000000000b981535c5caa085bafa63c1c0cc62aafc26a57950000000000000000000000000000000000000000000000000000000000000000ffffffffffffffffffffffffffffffffffffffffffffff08fd06ed1a497901e6",
                    "decodedMethod": {
                        "callParams": [
                            {
                                "name": "i",
                                "type": "bytes32",
                                "value": "0x4554482d41000000000000000000000000000000000000000000000000000000"
                            },
                            {
                                "name": "u",
                                "type": "address",
                                "value": "0xb981535c5caa085bafa63c1c0cc62aafc26a5795"
                            },
                            {
                                "name": "v",
                                "type": "address",
                                "value": "0xb981535c5caa085bafa63c1c0cc62aafc26a5795"
                            },
                            {
                                "name": "w",
                                "type": "address",
                                "value": "0xb981535c5caa085bafa63c1c0cc62aafc26a5795"
                            },
                            {
                                "name": "dink",
                                "type": "int256",
                                "value": "0"
                            },
                            {
                                "name": "dart",
                                "type": "int256",
                                "value": "-4,556,560,009,441,355,169,306"
                            }
                        ],
                        "constructorArguments": "",
                        "name": "frob",
                        "returnParams": [],
                        "signature": "frob(bytes32,address,address,address,int256,int256)"
                    },
                    "errorInfo": "",
                    "fromAddress": "0x5ef30b9986345249bc32d8928b7ee64de9435e39",
                    "gasUsed": 30829,
                    "id": 23,
                    "methodDecoded": true,
                    "operation": "CALL",
                    "output": "",
                    "revert": false,
                    "revertMessage": "",
                    "selector": "0x76088703",
                    "status": true,
                    "value": "0"
                },
                "nodeType": 0
            },
            "24": {
                "event": {
                    "contract": "0x35d1b3f3d7966a1dfe207aa4514c12a259a0492b",
                    "decodedLog": null,
                    "id": 24,
                    "logData": "0x000000000000000000000000000000000000000000000000000000000000002000000000000000000000000000000000000000000000000000000000000000e0760887034554482d41000000000000000000000000000000000000000000000000000000000000000000000000000000b981535c5caa085bafa63c1c0cc62aafc26a5795000000000000000000000000b981535c5caa085bafa63c1c0cc62aafc26a5795000000000000000000000000b981535c5caa085bafa63c1c0cc62aafc26a57950000000000000000000000000000000000000000000000000000000000000000ffffffffffffffffffffffffffffffffffffffffffffff08fd06ed1a497901e600000000000000000000000000000000000000000000000000000000",
                    "logDecoded": false,
                    "operation": "EVENT",
                    "revert": false,
                    "status": true,
                    "topics": [
                        "0x7608870300000000000000000000000000000000000000000000000000000000",
                        "0x4554482d41000000000000000000000000000000000000000000000000000000",
                        "0x000000000000000000000000b981535c5caa085bafa63c1c0cc62aafc26a5795",
                        "0x000000000000000000000000b981535c5caa085bafa63c1c0cc62aafc26a5795"
                    ]
                },
                "nodeType": 1
            },
            "25": {
                "event": {
                    "contract": "0x5ef30b9986345249bc32d8928b7ee64de9435e39",
                    "decodedLog": null,
                    "id": 25,
                    "logData": "0x000000000000000000000000000000000000000000000000000000000000002000000000000000000000000000000000000000000000000000000000000000e045e6bdcd0000000000000000000000000000000000000000000000000000000000002e870000000000000000000000000000000000000000000000000000000000000000ffffffffffffffffffffffffffffffffffffffffffffff08fd06ed1a497901e600000000000000000000000000000000000000000000000000000000000000000000000000000000000000000000000000000000000000000000000000000000000000000000000000000000000000000000000000000000000000000000000000000000000000000000000000000000000000000000000000000000",
                    "logDecoded": false,
                    "operation": "EVENT",
                    "revert": false,
                    "status": true,
                    "topics": [
                        "0x45e6bdcd00000000000000000000000000000000000000000000000000000000",
                        "0x00000000000000000000000027f75682b99c1b35d165ee9a768e5f37fadca54d",
                        "0x0000000000000000000000000000000000000000000000000000000000002e87",
                        "0x0000000000000000000000000000000000000000000000000000000000000000"
                    ]
                },
                "nodeType": 1
            },
            "3": {
                "invocation": {
                    "address": "0x5ef30b9986345249bc32d8928b7ee64de9435e39",
                    "callData": "0x",
                    "decodedMethod": {
                        "callParams": [],
                        "constructorArguments": "",
                        "name": "vat",
                        "returnParams": [
                            {
                                "name": "",
                                "type": "address",
                                "value": "0x35d1b3f3d7966a1dfe207aa4514c12a259a0492b"
                            }
                        ],
                        "signature": "vat()"
                    },
                    "errorInfo": "",
                    "fromAddress": "0x27f75682b99c1b35d165ee9a768e5f37fadca54d",
                    "gasUsed": 2398,
                    "id": 3,
                    "methodDecoded": true,
                    "operation": "STATICCALL",
                    "output": "0x00000000000000000000000035d1b3f3d7966a1dfe207aa4514c12a259a0492b",
                    "revert": false,
                    "revertMessage": "",
                    "selector": "0x36569e77",
                    "status": true,
                    "value": "0"
                },
                "nodeType": 0
            },
            "4": {
                "invocation": {
                    "address": "0x5ef30b9986345249bc32d8928b7ee64de9435e39",
                    "callData": "0x0000000000000000000000000000000000000000000000000000000000002e87",
                    "decodedMethod": {
                        "callParams": [
                            {
                                "name": "",
                                "type": "uint256",
                                "value": "11,911"
                            }
                        ],
                        "constructorArguments": "",
                        "name": "urns",
                        "returnParams": [
                            {
                                "name": "",
                                "type": "address",
                                "value": "0xb981535c5caa085bafa63c1c0cc62aafc26a5795"
                            }
                        ],
                        "signature": "urns(uint256)"
                    },
                    "errorInfo": "",
                    "fromAddress": "0x27f75682b99c1b35d165ee9a768e5f37fadca54d",
                    "gasUsed": 2612,
                    "id": 4,
                    "methodDecoded": true,
                    "operation": "STATICCALL",
                    "output": "0x000000000000000000000000b981535c5caa085bafa63c1c0cc62aafc26a5795",
                    "revert": false,
                    "revertMessage": "",
                    "selector": "0x2726b073",
                    "status": true,
                    "value": "0"
                },
                "nodeType": 0
            },
            "5": {
                "invocation": {
                    "address": "0x5ef30b9986345249bc32d8928b7ee64de9435e39",
                    "callData": "0x0000000000000000000000000000000000000000000000000000000000002e87",
                    "decodedMethod": {
                        "callParams": [
                            {
                                "name": "",
                                "type": "uint256",
                                "value": "11,911"
                            }
                        ],
                        "constructorArguments": "",
                        "name": "ilks",
                        "returnParams": [
                            {
                                "name": "",
                                "type": "bytes32",
                                "value": "0x4554482d41000000000000000000000000000000000000000000000000000000"
                            }
                        ],
                        "signature": "ilks(uint256)"
                    },
                    "errorInfo": "",
                    "fromAddress": "0x27f75682b99c1b35d165ee9a768e5f37fadca54d",
                    "gasUsed": 2486,
                    "id": 5,
                    "methodDecoded": true,
                    "operation": "STATICCALL",
                    "output": "0x4554482d41000000000000000000000000000000000000000000000000000000",
                    "revert": false,
                    "revertMessage": "",
                    "selector": "0x2c2cb9fd",
                    "status": true,
                    "value": "0"
                },
                "nodeType": 0
            },
            "6": {
                "invocation": {
                    "address": "0x5ef30b9986345249bc32d8928b7ee64de9435e39",
                    "callData": "0x0000000000000000000000000000000000000000000000000000000000002e87",
                    "decodedMethod": {
                        "callParams": [
                            {
                                "name": "",
                                "type": "uint256",
                                "value": "11,911"
                            }
                        ],
                        "constructorArguments": "",
                        "name": "owns",
                        "returnParams": [
                            {
                                "name": "",
                                "type": "address",
                                "value": "0x27f75682b99c1b35d165ee9a768e5f37fadca54d"
                            }
                        ],
                        "signature": "owns(uint256)"
                    },
                    "errorInfo": "",
                    "fromAddress": "0x27f75682b99c1b35d165ee9a768e5f37fadca54d",
                    "gasUsed": 2545,
                    "id": 6,
                    "methodDecoded": true,
                    "operation": "STATICCALL",
                    "output": "0x00000000000000000000000027f75682b99c1b35d165ee9a768e5f37fadca54d",
                    "revert": false,
                    "revertMessage": "",
                    "selector": "0x8161b120",
                    "status": true,
                    "value": "0"
                },
                "nodeType": 0
            },
            "7": {
                "invocation": {
                    "address": "0x9759a6ac90977b93b58547b4a71c78317f391a28",
                    "callData": "0x",
                    "decodedMethod": {
                        "callParams": [],
                        "constructorArguments": "",
                        "name": "dai",
                        "returnParams": [
                            {
                                "name": "",
                                "type": "address",
                                "value": "0x6b175474e89094c44da98b954eedeac495271d0f"
                            }
                        ],
                        "signature": "dai()"
                    },
                    "errorInfo": "",
                    "fromAddress": "0x27f75682b99c1b35d165ee9a768e5f37fadca54d",
                    "gasUsed": 2441,
                    "id": 7,
                    "methodDecoded": true,
                    "operation": "CALL",
                    "output": "0x0000000000000000000000006b175474e89094c44da98b954eedeac495271d0f",
                    "revert": false,
                    "revertMessage": "",
                    "selector": "0xf4b9fa75",
                    "status": true,
                    "value": "0"
                },
                "nodeType": 0
            },
            "8": {
                "invocation": {
                    "address": "0x6b175474e89094c44da98b954eedeac495271d0f",
                    "callData": "0x000000000000000000000000201930f7b5a5fa20496fe90411f7babef35e94dc00000000000000000000000027f75682b99c1b35d165ee9a768e5f37fadca54d000000000000000000000000000000000000000000000101c6685758f3b70000",
                    "decodedMethod": {
                        "callParams": [
                            {
                                "name": "src",
                                "type": "address",
                                "value": "0x201930f7b5a5fa20496fe90411f7babef35e94dc"
                            },
                            {
                                "name": "dst",
                                "type": "address",
                                "value": "0x27f75682b99c1b35d165ee9a768e5f37fadca54d"
                            },
                            {
                                "decimalAvailable": true,
                                "name": "wad",
                                "type": "uint256",
                                "value": "4,755,110,000,000,000,000,000"
                            }
                        ],
                        "constructorArguments": "",
                        "name": "transferFrom",
                        "returnParams": [
                            {
                                "name": "",
                                "type": "bool",
                                "value": true
                            }
                        ],
                        "signature": "transferFrom(address,address,uint256)"
                    },
                    "errorInfo": "",
                    "fromAddress": "0x27f75682b99c1b35d165ee9a768e5f37fadca54d",
                    "gasUsed": 32518,
                    "id": 8,
                    "methodDecoded": true,
                    "operation": "CALL",
                    "output": "0x0000000000000000000000000000000000000000000000000000000000000001",
                    "revert": false,
                    "revertMessage": "",
                    "selector": "0x23b872dd",
                    "status": true,
                    "value": "0"
                },
                "nodeType": 0
            },
            "9": {
                "event": {
                    "contract": "0x6b175474e89094c44da98b954eedeac495271d0f",
                    "decodedLog": {
                        "name": "Transfer",
                        "params": [
                            {
                                "name": "src",
                                "type": "address",
                                "value": "0x201930f7b5a5fa20496fe90411f7babef35e94dc"
                            },
                            {
                                "name": "dst",
                                "type": "address",
                                "value": "0x27f75682b99c1b35d165ee9a768e5f37fadca54d"
                            },
                            {
                                "decimalAvailable": true,
                                "name": "wad",
                                "type": "uint256",
                                "value": "4,755,110,000,000,000,000,000"
                            }
                        ],
                        "signature": "Transfer(address,address,uint256)"
                    },
                    "id": 9,
                    "logData": "0x000000000000000000000000000000000000000000000101c6685758f3b70000",
                    "logDecoded": true,
                    "operation": "EVENT",
                    "revert": false,
                    "status": true,
                    "topics": [
                        "0xddf252ad1be2c89b69c2b068fc378daa952ba7f163c4a11628f55a4df523b3ef",
                        "0x000000000000000000000000201930f7b5a5fa20496fe90411f7babef35e94dc",
                        "0x00000000000000000000000027f75682b99c1b35d165ee9a768e5f37fadca54d"
                    ]
                },
                "nodeType": 1
            }
        },
        "gasFlame": [
            {
                "children": [
                    {
                        "children": [
                            {
                                "children": [],
                                "depth": 0,
                                "name": "Initial Gas",
                                "value": 23000
                            },
                            {
                                "children": [
                                    {
                                        "children": [
                                            {
                                                "children": [],
                                                "depth": 2,
                                                "name": "vat",
                                                "value": 2398
                                            },
                                            {
                                                "children": [],
                                                "depth": 2,
                                                "name": "urns",
                                                "value": 2612
                                            },
                                            {
                                                "children": [],
                                                "depth": 2,
                                                "name": "ilks",
                                                "value": 2486
                                            },
                                            {
                                                "children": [],
                                                "depth": 2,
                                                "name": "owns",
                                                "value": 2545
                                            },
                                            {
                                                "children": [],
                                                "depth": 2,
                                                "name": "dai",
                                                "value": 2441
                                            },
                                            {
                                                "children": [],
                                                "depth": 2,
                                                "name": "transferFrom",
                                                "value": 32518
                                            },
                                            {
                                                "children": [],
                                                "depth": 2,
                                                "name": "dai",
                                                "value": 441
                                            },
                                            {
                                                "children": [],
                                                "depth": 2,
                                                "name": "approve",
                                                "value": 24514
                                            },
                                            {
                                                "children": [
                                                    {
                                                        "children": [],
                                                        "depth": 3,
                                                        "name": "move",
                                                        "value": 17643
                                                    },
                                                    {
                                                        "children": [],
                                                        "depth": 3,
                                                        "name": "burn",
                                                        "value": 9303
                                                    }
                                                ],
                                                "depth": 2,
                                                "name": "join",
                                                "value": 37293
                                            },
                                            {
                                                "children": [],
                                                "depth": 2,
                                                "name": "dai",
                                                "value": 536
                                            },
                                            {
                                                "children": [],
                                                "depth": 2,
                                                "name": "ilks",
                                                "value": 11094
                                            },
                                            {
                                                "children": [],
                                                "depth": 2,
                                                "name": "urns",
                                                "value": 4753
                                            },
                                            {
                                                "children": [
                                                    {
                                                        "children": [],
                                                        "depth": 3,
                                                        "name": "frob",
                                                        "value": 30829
                                                    }
                                                ],
                                                "depth": 2,
                                                "name": "frob",
                                                "value": 36840
                                            }
                                        ],
                                        "depth": 1,
                                        "name": "wipe",
                                        "value": 174164
                                    }
                                ],
                                "depth": 0,
                                "name": "Executed Gas",
                                "value": 185105
                            }
                        ],
                        "depth": -1,
                        "name": "Actual Gas Used",
                        "value": 168305
                    },
                    {
                        "children": [],
                        "depth": -1,
                        "name": "Refunded Gas",
                        "value": 39800
                    }
                ],
                "depth": -2,
                "name": "Total Gas",
                "value": 208105
            }
        ],
        "isConfirmed": true,
        "mainTrace": [
            {
                "children": [
                    {
                        "children": [
                            {
                                "children": [],
                                "depth": 1,
                                "id": 1,
                                "order": 1
                            },
                            {
                                "children": [
                                    {
                                        "children": [],
                                        "depth": 2,
                                        "id": 3,
                                        "order": 3
                                    },
                                    {
                                        "children": [],
                                        "depth": 2,
                                        "id": 4,
                                        "order": 4
                                    },
                                    {
                                        "children": [],
                                        "depth": 2,
                                        "id": 5,
                                        "order": 5
                                    },
                                    {
                                        "children": [],
                                        "depth": 2,
                                        "id": 6,
                                        "order": 6
                                    },
                                    {
                                        "children": [],
                                        "depth": 2,
                                        "id": 7,
                                        "order": 7
                                    },
                                    {
                                        "children": [
                                            {
                                                "children": [],
                                                "depth": 3,
                                                "id": 9,
                                                "order": 9
                                            }
                                        ],
                                        "depth": 2,
                                        "id": 8,
                                        "order": 8
                                    },
                                    {
                                        "children": [],
                                        "depth": 2,
                                        "id": 10,
                                        "order": 10
                                    },
                                    {
                                        "children": [
                                            {
                                                "children": [],
                                                "depth": 3,
                                                "id": 12,
                                                "order": 12
                                            }
                                        ],
                                        "depth": 2,
                                        "id": 11,
                                        "order": 11
                                    },
                                    {
                                        "children": [
                                            {
                                                "children": [
                                                    {
                                                        "children": [],
                                                        "depth": 4,
                                                        "id": 15,
                                                        "order": 15
                                                    }
                                                ],
                                                "depth": 3,
                                                "id": 14,
                                                "order": 14
                                            },
                                            {
                                                "children": [
                                                    {
                                                        "children": [],
                                                        "depth": 4,
                                                        "id": 17,
                                                        "order": 17
                                                    }
                                                ],
                                                "depth": 3,
                                                "id": 16,
                                                "order": 16
                                            },
                                            {
                                                "children": [],
                                                "depth": 3,
                                                "id": 18,
                                                "order": 18
                                            }
                                        ],
                                        "depth": 2,
                                        "id": 13,
                                        "order": 13
                                    },
                                    {
                                        "children": [],
                                        "depth": 2,
                                        "id": 19,
                                        "order": 19
                                    },
                                    {
                                        "children": [],
                                        "depth": 2,
                                        "id": 20,
                                        "order": 20
                                    },
                                    {
                                        "children": [],
                                        "depth": 2,
                                        "id": 21,
                                        "order": 21
                                    },
                                    {
                                        "children": [
                                            {
                                                "children": [
                                                    {
                                                        "children": [],
                                                        "depth": 4,
                                                        "id": 24,
                                                        "order": 24
                                                    }
                                                ],
                                                "depth": 3,
                                                "id": 23,
                                                "order": 23
                                            },
                                            {
                                                "children": [],
                                                "depth": 3,
                                                "id": 25,
                                                "order": 25
                                            }
                                        ],
                                        "depth": 2,
                                        "id": 22,
                                        "order": 22
                                    }
                                ],
                                "depth": 1,
                                "id": 2,
                                "order": 2
                            }
                        ],
                        "depth": 0,
                        "id": 0,
                        "order": 0
                    }
                ],
                "depth": -1,
                "id": -1,
                "order": -1
            }
        ],
        "mainTraceNodeCount": 26,
        "parentIdMap": {
            "0": -1,
            "1": 0,
            "10": 2,
            "11": 2,
            "12": 11,
            "13": 2,
            "14": 13,
            "15": 14,
            "16": 13,
            "17": 16,
            "18": 13,
            "19": 2,
            "2": 0,
            "20": 2,
            "21": 2,
            "22": 2,
            "23": 22,
            "24": 23,
            "25": 22,
            "3": 2,
            "4": 2,
            "5": 2,
            "6": 2,
            "7": 2,
            "8": 2,
            "9": 8
        },
        "tidyTrace": [
            {
                "children": [
                    {
                        "children": [
                            {
                                "children": [],
                                "depth": 1,
                                "id": 1,
                                "order": 1
                            },
                            {
                                "children": [
                                    {
                                        "children": [],
                                        "depth": 2,
                                        "id": 7,
                                        "order": 7
                                    },
                                    {
                                        "children": [
                                            {
                                                "children": [],
                                                "depth": 3,
                                                "id": 9,
                                                "order": 9
                                            }
                                        ],
                                        "depth": 2,
                                        "id": 8,
                                        "order": 8
                                    },
                                    {
                                        "children": [],
                                        "depth": 2,
                                        "id": 10,
                                        "order": 10
                                    },
                                    {
                                        "children": [
                                            {
                                                "children": [],
                                                "depth": 3,
                                                "id": 12,
                                                "order": 12
                                            }
                                        ],
                                        "depth": 2,
                                        "id": 11,
                                        "order": 11
                                    },
                                    {
                                        "children": [
                                            {
                                                "children": [
                                                    {
                                                        "children": [],
                                                        "depth": 4,
                                                        "id": 15,
                                                        "order": 15
                                                    }
                                                ],
                                                "depth": 3,
                                                "id": 14,
                                                "order": 14
                                            },
                                            {
                                                "children": [
                                                    {
                                                        "children": [],
                                                        "depth": 4,
                                                        "id": 17,
                                                        "order": 17
                                                    }
                                                ],
                                                "depth": 3,
                                                "id": 16,
                                                "order": 16
                                            },
                                            {
                                                "children": [],
                                                "depth": 3,
                                                "id": 18,
                                                "order": 18
                                            }
                                        ],
                                        "depth": 2,
                                        "id": 13,
                                        "order": 13
                                    },
                                    {
                                        "children": [
                                            {
                                                "children": [
                                                    {
                                                        "children": [],
                                                        "depth": 4,
                                                        "id": 24,
                                                        "order": 24
                                                    }
                                                ],
                                                "depth": 3,
                                                "id": 23,
                                                "order": 23
                                            },
                                            {
                                                "children": [],
                                                "depth": 3,
                                                "id": 25,
                                                "order": 25
                                            }
                                        ],
                                        "depth": 2,
                                        "id": 22,
                                        "order": 22
                                    }
                                ],
                                "depth": 1,
                                "id": 2,
                                "order": 2
                            }
                        ],
                        "depth": 0,
                        "id": 0,
                        "order": 0
                    }
                ],
                "depth": -1,
                "id": -1,
                "order": -1
            }
        ],
        "tidyTraceNodeCount": 19
    },
    "state_change": {
        "stateChanges": [
            {
                "address": "0x35d1b3f3d7966a1dfe207aa4514c12a259a0492b",
                "erc": "",
                "slots": [
                    {
                        "current": "0x0000000000000000002c1c68bd63eccc66e11f536fe93c65353c4cdb70000000",
                        "key": "0x7adce341587c7ad28f80a9ef54da0d2f0bfd917b11856be2d246a8c66685b1a0",
                        "prev": "0x0000000000000000002c1c6bfe4e6e90bf9007b3f0616bf270fe24db70000000"
                    },
                    {
                        "current": "0x000000000000000000000000000000000000000001e0a3a531a544d43f0f3e79",
                        "key": "0x0ff62a6d5b2e1a68a899583fae83f245d22d3e513be95f7fe526b4c991fb273d",
                        "prev": "0x000000000000000000000000000000000000000001a5ea062a7d7602826f614d"
                    },
                    {
                        "current": "0x0000000000000000002e40bd8063bb5731b03fe23985f90d5f0908ca4f694598",
                        "key": "0x0000000000000000000000000000000000000000000000000000000000000007",
                        "prev": "0x0000000000000000002e40c0c14e3d1b8a5f2842b9c36efb93a311f892c9686c"
                    },
                    {
                        "current": "0x000000000000000000000000000000000000000000000103bbb7169528fdea4f",
                        "key": "0x76e24c6790f06ed8c014ef9d6551f1f6047f018d2e10e5eefd32bb114cb32151",
                        "prev": "0x0000000000000000000000000000000000000000000001fabeb0297adf84e869"
                    },
                    {
                        "current": "0x000000000000000000000000000000000000000006b6662d4255622258ebc3cb",
                        "key": "0x5cd43a2b0a7e767504a508ed07c6f6d26130368a2a5ce573193b4c24eba603bb",
                        "prev": "0x000000000000000000000000000000000000000006b66724454e75080f72c1e5"
                    }
                ],
                "storageVariables": [
                    {
                        "name": "dai",
                        "type": "mapping(address => uint256)",
                        "value": {
                            "pairs": [
                                {
                                    "key": "0x9759a6ac90977b93b58547b4a71c78317f391a28",
                                    "value": {
                                        "current": "4224991858515522200699738310000000000000000000000000000",
                                        "prev": "4224996613625522200699738310000000000000000000000000000",
                                        "typeTag": 1
                                    }
                                },
                                {
                                    "key": "0xb981535c5caa085bafa63c1c0cc62aafc26a5795",
                                    "value": {
                                        "current": "581057186441843075502259833",
                                        "prev": "510062917556947896620769613",
                                        "typeTag": 1
                                    }
                                }
                            ],
                            "typeTag": 4
                        }
                    },
                    {
                        "name": "debt",
                        "type": "uint256",
                        "value": {
                            "current": "4430146879599827630032101208148812834940405131300652440",
                            "prev": "4430151634709827630032101208077818566055509952419162220",
                            "typeTag": 1
                        }
                    },
                    {
                        "name": "urns",
                        "type": "mapping(bytes32 => mapping(address => struct Vat.Urn))",
                        "value": {
                            "pairs": [
                                {
                                    "key": "0x4554482d41000000000000000000000000000000000000000000000000000000",
                                    "value": {
                                        "pairs": [
                                            {
                                                "key": "0xb981535c5caa085bafa63c1c0cc62aafc26a5795",
                                                "value": {
                                                    "fields": [
                                                        {
                                                            "name": "art",
                                                            "type": "uint256",
                                                            "value": {
                                                                "current": "4791233019926498110031",
                                                                "prev": "9347793029367853279337",
                                                                "typeTag": 1
                                                            }
                                                        }
                                                    ],
                                                    "typeTag": 3
                                                }
                                            }
                                        ],
                                        "typeTag": 4
                                    }
                                }
                            ],
                            "typeTag": 4
                        }
                    },
                    {
                        "name": "ilks",
                        "type": "mapping(bytes32 => struct Vat.Ilk)",
                        "value": {
                            "pairs": [
                                {
                                    "key": "0x4554482d41000000000000000000000000000000000000000000000000000000",
                                    "value": {
                                        "fields": [
                                            {
                                                "name": "Art",
                                                "type": "uint256",
                                                "value": {
                                                    "current": "2077417074362503422070735819",
                                                    "prev": "2077421630922512863425905125",
                                                    "typeTag": 1
                                                }
                                            }
                                        ],
                                        "typeTag": 3
                                    }
                                }
                            ],
                            "typeTag": 4
                        }
                    }
                ]
            },
            {
                "address": "0x6b175474e89094c44da98b954eedeac495271d0f",
                "erc": "ERC-20",
                "slots": [
                    {
                        "current": "0x00000000000000000000000000000000000000000000005dfc1e56dd3c8c0a23",
                        "key": "0xb74caed48831d996ebc6dc917ebd4c4013ba97ee5005331004e80952a8905a45",
                        "prev": "0x00000000000000000000000000000000000000000000015fc286ae3630430a23"
                    },
                    {
                        "current": "0x00000000000000000000000000000000000000000da6d4d388e85085333e4cc6",
                        "key": "0x0000000000000000000000000000000000000000000000000000000000000001",
                        "prev": "0x00000000000000000000000000000000000000000da6d5d54f50a7de26f54cc6"
                    }
                ],
                "storageVariables": [
                    {
                        "name": "balanceOf",
                        "type": "mapping(address => uint256)",
                        "value": {
                            "pairs": [
                                {
                                    "key": "0x201930f7b5a5fa20496fe90411f7babef35e94dc",
                                    "value": {
                                        "current": "1733714252310051031587",
                                        "prev": "6488824252310051031587",
                                        "typeTag": 1
                                    }
                                }
                            ],
                            "typeTag": 4
                        }
                    },
                    {
                        "name": "totalSupply",
                        "type": "uint256",
                        "value": {
                            "current": "4224991857556105770699738310",
                            "prev": "4224996612666105770699738310",
                            "typeTag": 1
                        }
                    }
                ]
            }
        ]
    }
}