{
    "balance_change": {
        "balanceChanges": [
            {
                "account": "0x4aba73bf21ceadc76962ea7d9c6ada2f26c7cfa7",
                "assets": [
                    {
                        "address": "0x6969dd6fd01b42f3b9004ae9482296a67657a1ad",
                        "amount": "163,881,683,623,440,627,522",
                        "iconUrl": "",
                        "isERC1155": false,
                        "isERC721": false,
                        "sign": false,
                        "value": ""
                    },
                    {
                        "address": "0xeeeeeeeeeeeeeeeeeeeeeeeeeeeeeeeeeeeeeeee",
                        "amount": "0.006413684733280192",
                        "iconUrl": "https://assets.blocksec.com/image/1663669189317-3.png",
                        "isERC1155": false,
                        "isERC721": false,
                        "sign": true,
                        "value": "21.747778740045720933"
                    }
                ]
            },
            {
                "account": "0x8c0c79c3e6a21b983fcfec7fa62b2875169c1a00",
                "assets": [
                    {
                        "address": "0x6969dd6fd01b42f3b9004ae9482296a67657a1ad",
                        "amount": "163,881,683,623,440,627,522",
                        "iconUrl": "",
                        "isERC1155": false,
                        "isERC721": false,
                        "sign": true,
                        "value": ""
                    },
                    {
                        "address": "0xc02aaa39b223fe8d0a0e5c4f27ead9083c756cc2",
                        "amount": "0.006413684733280192",
                        "iconUrl": "https://assets.blocksec.com/icon/f1cb2d02c471d545bbc7722daf3277fd852d98e63d118771af7047bd8256c516.png",
                        "isERC1155": false,
                        "isERC721": false,
                        "sign": false,
                        "value": "21.747778740045720933"
                    }
                ]
            },
            {
                "account": "0xc02aaa39b223fe8d0a0e5c4f27ead9083c756cc2",
                "assets": [
                    {
                        "address": "0xeeeeeeeeeeeeeeeeeeeeeeeeeeeeeeeeeeeeeeee",
                        "amount": "0.006413684733280192",
                        "iconUrl": "https://assets.blocksec.com/image/1663669189317-3.png",
                        "isERC1155": false,
                        "isERC721": false,
                        "sign": false,
                        "value": "21.747778740045720933"
                    },
                    {
                        "address": "0xc02aaa39b223fe8d0a0e5c4f27ead9083c756cc2",
                        "amount": "0.006413684733280192",
                        "iconUrl": "https://assets.blocksec.com/icon/f1cb2d02c471d545bbc7722daf3277fd852d98e63d118771af7047bd8256c516.png",
                        "isERC1155": false,
                        "isERC721": false,
                        "sign": true,
                        "value": "21.747778740045720933"
                    }
                ]
            }
        ]
    },
    "profile": {
        "basic_info": {
            "baseFee": "3.244973463",
            "blockNumber": 20205159,
            "callData": "0x9871efa40000000000000000000000006969dd6fd01b42f3b9004ae9482296a67657a1ad000000000000000000000000000000000000000000000008e250b2f92021374200000000000000000000000000000000000000000000000000168ee15239e9fe0000000000000000000000000000000000000000000000000000000000000080000000000000000000000000000000000000000000000000000000000000000170000000000000003b6d03408c0c79c3e6a21b983fcfec7fa62b2875169c1a00",
            "debugEnable": true,
            "errorInfo": "",
            "eventCount": 8,
            "feeRecipient": "0x1f9090aae28b8a3dceadf281b0f12828e676c326",
            "formatValue": "0",
            "gasLimit": 264911,
            "gasPrice": "4.127636447",
            "gasUsed": 153387,
            "intTxnCount": 13,
            "internalRevert": false,
            "internalRevertMessage": "",
            "isContractCreation": false,
            "isFlashloan": false,
            "maxFee": "4.655560833",
            "nonce": 264,
            "overwritedBlockNumber": -1,
            "priorityFee": "0.882662984",
            "receiver": "0xf3de3c0d654fda23dad170f0f320a92172509127",
            "revertMessage": "",
            "sender": "0x4aba73bf21ceadc76962ea7d9c6ada2f26c7cfa7",
            "simulationEnable": true,
            "sourceTxnHash": "0x6e09cffbab485b5c8286a61eabb24385083b67d70c36fd193ff56009b2678791",
            "status": true,
            "timestamp": "2024-06-30T14:40:35Z",
            "transactionFee": "0.000633125771695989",
            "txnHash": "0x6e09cffbab485b5c8286a61eabb24385083b67d70c36fd193ff56009b2678791",
            "txnIndex": 70,
            "type": 2,
            "value": "0"
        },
        "fund_flow": [
            {
                "amount": "163,881,683,623,440,627,522",
                "from": "0x4aba73bf21ceadc76962ea7d9c6ada2f26c7cfa7",
                "id": 1,
                "isERC1155": false,
                "isERC721": false,
                "isReverted": false,
                "order": 1,
                "to": "0x8c0c79c3e6a21b983fcfec7fa62b2875169c1a00",
                "token": "0x6969dd6fd01b42f3b9004ae9482296a67657a1ad"
            },
            {
                "amount": "0.006413684733280192",
                "from": "0x8c0c79c3e6a21b983fcfec7fa62b2875169c1a00",
                "id": 2,
                "isERC1155": false,
                "isERC721": false,
                "isReverted": false,
                "order": 2,
                "to": "0xf3de3c0d654fda23dad170f0f320a92172509127",
                "token": "0xc02aaa39b223fe8d0a0e5c4f27ead9083c756cc2"
            },
            {
                "amount": "0.006413684733280192",
                "from": "0xc02aaa39b223fe8d0a0e5c4f27ead9083c756cc2",
                "id": 3,
                "isERC1155": false,
                "isERC721": false,
                "isReverted": false,
                "order": 3,
                "to": "0xf3de3c0d654fda23dad170f0f320a92172509127",
                "token": "0xeeeeeeeeeeeeeeeeeeeeeeeeeeeeeeeeeeeeeeee"
            },
            {
                "amount": "0.006413684733280192",
                "from": "0xf3de3c0d654fda23dad170f0f320a92172509127",
                "id": 4,
                "isERC1155": false,
                "isERC721": false,
                "isReverted": false,
                "order": 4,
                "to": "0xc02aaa39b223fe8d0a0e5c4f27ead9083c756cc2",
                "token": "0xc02aaa39b223fe8d0a0e5c4f27ead9083c756cc2"
            },
            {
                "amount": "0.006413684733280192",
                "from": "0xf3de3c0d654fda23dad170f0f320a92172509127",
                "id": 5,
                "isERC1155": false,
                "isERC721": false,
                "isReverted": false,
                "order": 5,
                "to": "0x4aba73bf21ceadc76962ea7d9c6ada2f26c7cfa7",
                "token": "0xeeeeeeeeeeeeeeeeeeeeeeeeeeeeeeeeeeeeeeee"
            }
        ],
        "token_infos": [
            {
                "address": "0x6969dd6fd01b42f3b9004ae9482296a67657a1ad",
                "decimals": 0
            },
            {
                "address": "0xc02aaa39b223fe8d0a0e5c4f27ead9083c756cc2",
                "decimals": 18
            },
            {
                "address": "0xeeeeeeeeeeeeeeeeeeeeeeeeeeeeeeeeeeeeeeee",
                "decimals": 18
            }
        ]
    },
    "address_label": {
        "labels": [
            {
                "address": "0xeeeeeeeeeeeeeeeeeeeeeeeeeeeeeeeeeeeeeeee",
                "label": "Ether"
            },
            {
                "address": "0x6969dd6fd01b42f3b9004ae9482296a67657a1ad",
                "label": "PEPLICATOR"
            },
            {
                "address": "0x0000000000000000000000000000000000000001",
                "label": "Precompiled"
            },
            {
                "address": "0x0000000000000000000000000000000000000003",
                "label": "Precompiled"
            },
            {
                "address": "0x8c0c79c3e6a21b983fcfec7fa62b2875169c1a00",
                "label": "Uniswap V2: PEPLICATOR 17"
            },
            {
                "address": "0xc02aaa39b223fe8d0a0e5c4f27ead9083c756cc2",
                "label": "Wrapped Ether (WETH)"
            },
            {
                "address": "0x40aa958dd87fc8305b97f2ba922cddca374bcd7f",
                "label": "OKX DEX: TokenApprove"
            },
            {
                "address": "0x0000000000000000000000000000000000000002",
                "label": "Precompiled"
            },
            {
                "address": "0x0000000000000000000000000000000000000004",
                "label": "Precompiled"
            }
        ]
    },
    "trace": {
        "accountLabels": null,
        "dataMap": {
            "-1": {
                "invocation": {
                    "address": "0x4aba73bf21ceadc76962ea7d9c6ada2f26c7cfa7",
                    "callData": "",
                    "decodedMethod": null,
                    "errorInfo": "",
                    "fromAddress": "",
                    "gasUsed": 0,
                    "id": -1,
                    "methodDecoded": false,
                    "operation": "",
                    "output": "",
                    "revert": false,
                    "revertMessage": "",
                    "selector": "",
                    "status": false,
                    "value": ""
                },
                "nodeType": 0
            },
            "0": {
                "invocation": {
                    "address": "0xf3de3c0d654fda23dad170f0f320a92172509127",
                    "callData": "0x0000000000000000000000006969dd6fd01b42f3b9004ae9482296a67657a1ad000000000000000000000000000000000000000000000008e250b2f92021374200000000000000000000000000000000000000000000000000168ee15239e9fe0000000000000000000000000000000000000000000000000000000000000080000000000000000000000000000000000000000000000000000000000000000170000000000000003b6d03408c0c79c3e6a21b983fcfec7fa62b2875169c1a00",
                    "decodedMethod": null,
                    "errorInfo": "",
                    "fromAddress": "0x4aba73bf21ceadc76962ea7d9c6ada2f26c7cfa7",
                    "gasUsed": 153387,
                    "id": 0,
                    "methodDecoded": false,
                    "operation": "CALL",
                    "output": "0x0000000000000000000000000000000000000000000000000016c936583a7fc0",
                    "revert": false,
                    "revertMessage": "",
                    "selector": "0x9871efa4",
                    "status": true,
                    "value": "0"
                },
                "nodeType": 0
            },
            "1": {
                "event": {
                    "contract": "0xf3de3c0d654fda23dad170f0f320a92172509127",
                    "decodedLog": null,
                    "id": 1,
                    "logData": "0x0000000000000000000000000000000000000000000000000000000000000000",
                    "logDecoded": false,
                    "operation": "EVENT",
                    "revert": false,
                    "status": true,
                    "topics": [
                        "0x7724394874fdd8ad13292ec739b441f85c6559f10dc4141b8d4c0fa4cbf55bdb"
                    ]
                },
                "nodeType": 1
            },
            "10": {
                "invocation": {
                    "address": "0x8c0c79c3e6a21b983fcfec7fa62b2875169c1a00",
                    "callData": "0x00000000000000000000000000000000000000000000000000000000000000000000000000000000000000000000000000000000000000000016c936583a7fc0000000000000000000000000f3de3c0d654fda23dad170f0f320a9217250912700000000000000000000000000000000000000000000000000000000000000800000000000000000000000000000000000000000000000000000000000000000",
                    "decodedMethod": {
                        "callParams": [
                            {
                                "name": "amount0Out",
                                "type": "uint256",
                                "value": "0"
                            },
                            {
                                "name": "amount1Out",
                                "type": "uint256",
                                "value": "6,413,684,733,280,192"
                            },
                            {
                                "name": "to",
                                "type": "address",
                                "value": "0xf3de3c0d654fda23dad170f0f320a92172509127"
                            },
                            {
                                "name": "data",
                                "type": "bytes",
                                "value": "0x"
                            }
                        ],
                        "constructorArguments": "",
                        "name": "swap",
                        "returnParams": [],
                        "signature": "swap(uint256,uint256,address,bytes)"
                    },
                    "errorInfo": "",
                    "fromAddress": "0xf3de3c0d654fda23dad170f0f320a92172509127",
                    "gasUsed": 46181,
                    "id": 10,
                    "methodDecoded": true,
                    "operation": "CALL",
                    "output": "",
                    "revert": false,
                    "revertMessage": "",
                    "selector": "0x022c0d9f",
                    "status": true,
                    "value": "0"
                },
                "nodeType": 0
            },
            "11": {
                "invocation": {
                    "address": "0xc02aaa39b223fe8d0a0e5c4f27ead9083c756cc2",
                    "callData": "0x000000000000000000000000f3de3c0d654fda23dad170f0f320a921725091270000000000000000000000000000000000000000000000000016c936583a7fc0",
                    "decodedMethod": {
                        "callParams": [
                            {
                                "name": "dst",
                                "type": "address",
                                "value": "0xf3de3c0d654fda23dad170f0f320a92172509127"
                            },
                            {
                                "decimalAvailable": true,
                                "name": "wad",
                                "type": "uint256",
                                "value": "6,413,684,733,280,192"
                            }
                        ],
                        "constructorArguments": "",
                        "name": "transfer",
                        "returnParams": [
                            {
                                "name": "",
                                "type": "bool",
                                "value": true
                            }
                        ],
                        "signature": "transfer(address,uint256)"
                    },
                    "errorInfo": "",
                    "fromAddress": "0x8c0c79c3e6a21b983fcfec7fa62b2875169c1a00",
                    "gasUsed": 12862,
                    "id": 11,
                    "methodDecoded": true,
                    "operation": "CALL",
                    "output": "0x0000000000000000000000000000000000000000000000000000000000000001",
                    "revert": false,
                    "revertMessage": "",
                    "selector": "0xa9059cbb",
                    "status": true,
                    "value": "0"
                },
                "nodeType": 0
            },
            "12": {
                "event": {
                    "contract": "0xc02aaa39b223fe8d0a0e5c4f27ead9083c756cc2",
                    "decodedLog": {
                        "name": "Transfer",
                        "params": [
                            {
                                "name": "src",
                                "type": "address",
                                "value": "0x8c0c79c3e6a21b983fcfec7fa62b2875169c1a00"
                            },
                            {
                                "name": "dst",
                                "type": "address",
                                "value": "0xf3de3c0d654fda23dad170f0f320a92172509127"
                            },
                            {
                                "decimalAvailable": true,
                                "name": "wad",
                                "type": "uint256",
                                "value": "6,413,684,733,280,192"
                            }
                        ],
                        "signature": "Transfer(address,address,uint256)"
                    },
                    "id": 12,
                    "logData": "0x0000000000000000000000000000000000000000000000000016c936583a7fc0",
                    "logDecoded": true,
                    "operation": "EVENT",
                    "revert": false,
                    "status": true,
                    "topics": [
                        "0xddf252ad1be2c89b69c2b068fc378daa952ba7f163c4a11628f55a4df523b3ef",
                        "0x0000000000000000000000008c0c79c3e6a21b983fcfec7fa62b2875169c1a00",
                        "0x000000000000000000000000f3de3c0d654fda23dad170f0f320a92172509127"
                    ]
                },
                "nodeType": 1
            },
            "13": {
                "invocation": {
                    "address": "0x6969dd6fd01b42f3b9004ae9482296a67657a1ad",
                    "callData": "0x0000000000000000000000008c0c79c3e6a21b983fcfec7fa62b2875169c1a00",
                    "decodedMethod": {
                        "callParams": [
                            {
                                "name": "account",
                                "type": "address",
                                "value": "0x8c0c79c3e6a21b983fcfec7fa62b2875169c1a00"
                            }
                        ],
                        "constructorArguments": "",
                        "name": "balanceOf",
                        "returnParams": [
                            {
                                "decimalAvailable": true,
                                "name": "",
                                "type": "uint256",
                                "value": "100,725,075,069,550,487,085,313"
                            }
                        ],
                        "signature": "balanceOf(address)"
                    },
                    "errorInfo": "",
                    "fromAddress": "0x8c0c79c3e6a21b983fcfec7fa62b2875169c1a00",
                    "gasUsed": 962,
                    "id": 13,
                    "methodDecoded": true,
                    "operation": "STATICCALL",
                    "output": "0x0000000000000000000000000000000000000000000015545137ff6fc6ef2101",
                    "revert": false,
                    "revertMessage": "",
                    "selector": "0x70a08231",
                    "status": true,
                    "value": "0"
                },
                "nodeType": 0
            },
            "14": {
                "invocation": {
                    "address": "0xc02aaa39b223fe8d0a0e5c4f27ead9083c756cc2",
                    "callData": "0x0000000000000000000000008c0c79c3e6a21b983fcfec7fa62b2875169c1a00",
                    "decodedMethod": {
                        "callParams": [
                            {
                                "name": "",
                                "type": "address",
                                "value": "0x8c0c79c3e6a21b983fcfec7fa62b2875169c1a00"
                            }
                        ],
                        "constructorArguments": "",
                        "name": "balanceOf",
                        "returnParams": [
                            {
                                "decimalAvailable": true,
                                "name": "",
                                "type": "uint256",
                                "value": "3,947,411,950,045,488,804"
                            }
                        ],
                        "signature": "balanceOf(address)"
                    },
                    "errorInfo": "",
                    "fromAddress": "0x8c0c79c3e6a21b983fcfec7fa62b2875169c1a00",
                    "gasUsed": 534,
                    "id": 14,
                    "methodDecoded": true,
                    "operation": "STATICCALL",
                    "output": "0x00000000000000000000000000000000000000000000000036c806411897e6a4",
                    "revert": false,
                    "revertMessage": "",
                    "selector": "0x70a08231",
                    "status": true,
                    "value": "0"
                },
                "nodeType": 0
            },
            "15": {
                "event": {
                    "contract": "0x8c0c79c3e6a21b983fcfec7fa62b2875169c1a00",
                    "decodedLog": {
                        "name": "Sync",
                        "params": [
                            {
                                "name": "reserve0",
                                "type": "uint112",
                                "value": "100,725,075,069,550,487,085,313"
                            },
                            {
                                "name": "reserve1",
                                "type": "uint112",
                                "value": "3,947,411,950,045,488,804"
                            }
                        ],
                        "signature": "Sync(uint112,uint112)"
                    },
                    "id": 15,
                    "logData": "0x0000000000000000000000000000000000000000000015545137ff6fc6ef210100000000000000000000000000000000000000000000000036c806411897e6a4",
                    "logDecoded": true,
                    "operation": "EVENT",
                    "revert": false,
                    "status": true,
                    "topics": [
                        "0x1c411e9a96e071241c2f21f7726b17ae89e3cab4c78be50e062b03a9fffbbad1"
                    ]
                },
                "nodeType": 1
            },
            "16": {
                "event": {
                    "contract": "0x8c0c79c3e6a21b983fcfec7fa62b2875169c1a00",
                    "decodedLog": {
                        "name": "Swap",
                        "params": [
                            {
                                "name": "sender",
                                "type": "address",
                                "value": "0xf3de3c0d654fda23dad170f0f320a92172509127"
                            },
                            {
                                "name": "to",
                                "type": "address",
                                "value": "0xf3de3c0d654fda23dad170f0f320a92172509127"
                            },
                            {
                                "name": "amount0In",
                                "type": "uint256",
                                "value": "163,881,683,623,440,627,522"
                            },
                            {
                                "name": "amount1In",
                                "type": "uint256",
                                "value": "0"
                            },
                            {
                                "name": "amount0Out",
                                "type": "uint256",
                                "value": "0"
                            },
                            {
                                "name": "amount1Out",
                                "type": "uint256",
                                "value": "6,413,684,733,280,192"
                            }
                        ],
                        "signature": "Swap(address,uint256,uint256,uint256,uint256,address)"
                    },
                    "id": 16,
                    "logData": "0x000000000000000000000000000000000000000000000008e250b2f920213742000000000000000000000000000000000000000000000000000000000000000000000000000000000000000000000000000000000000000000000000000000000000000000000000000000000000000000000000000000000016c936583a7fc0",
                    "logDecoded": true,
                    "operation": "EVENT",
                    "revert": false,
                    "status": true,
                    "topics": [
                        "0xd78ad95fa46c994b6551d0da85fc275fe613ce37657fb8d5e3d130840159d822",
                        "0x000000000000000000000000f3de3c0d654fda23dad170f0f320a92172509127",
                        "0x000000000000000000000000f3de3c0d654fda23dad170f0f320a92172509127"
                    ]
                },
                "nodeType": 1
            },
            "17": {
                "invocation": {
                    "address": "0xc02aaa39b223fe8d0a0e5c4f27ead9083c756cc2",
                    "callData": "0x0000000000000000000000000000000000000000000000000016c936583a7fc0",
                    "decodedMethod": {
                        "callParams": [
                            {
                                "name": "wad",
                                "type": "uint256",
                                "value": "6,413,684,733,280,192"
                            }
                        ],
                        "constructorArguments": "",
                        "name": "withdraw",
                        "returnParams": [],
                        "signature": "withdraw(uint256)"
                    },
                    "errorInfo": "",
                    "fromAddress": "0xf3de3c0d654fda23dad170f0f320a92172509127",
                    "gasUsed": 9216,
                    "id": 17,
                    "methodDecoded": true,
                    "operation": "CALL",
                    "output": "",
                    "revert": false,
                    "revertMessage": "",
                    "selector": "0x2e1a7d4d",
                    "status": true,
                    "value": "0"
                },
                "nodeType": 0
            },
            "18": {
                "invocation": {
                    "address": "0xf3de3c0d654fda23dad170f0f320a92172509127",
                    "callData": "0x",
                    "decodedMethod": null,
                    "errorInfo": "",
                    "fromAddress": "0xc02aaa39b223fe8d0a0e5c4f27ead9083c756cc2",
                    "gasUsed": 76,
                    "id": 18,
                    "methodDecoded": false,
                    "operation": "CALL",
                    "output": "",
                    "revert": false,
                    "revertMessage": "",
                    "selector": "fallback",
                    "status": true,
                    "value": "0.006413684733280192"
                },
                "nodeType": 0
            },
            "19": {
                "event": {
                    "contract": "0xc02aaa39b223fe8d0a0e5c4f27ead9083c756cc2",
                    "decodedLog": {
                        "name": "Withdrawal",
                        "params": [
                            {
                                "name": "src",
                                "type": "address",
                                "value": "0xf3de3c0d654fda23dad170f0f320a92172509127"
                            },
                            {
                                "name": "wad",
                                "type": "uint256",
                                "value": "6,413,684,733,280,192"
                            }
                        ],
                        "signature": "Withdrawal(address,uint256)"
                    },
                    "id": 19,
                    "logData": "0x0000000000000000000000000000000000000000000000000016c936583a7fc0",
                    "logDecoded": true,
                    "operation": "EVENT",
                    "revert": false,
                    "status": true,
                    "topics": [
                        "0x7fcf532c15f0a6db0bd6d0e038bea71d30d808c7d98cb3bf7268a95bf5081b65",
                        "0x000000000000000000000000f3de3c0d654fda23dad170f0f320a92172509127"
                    ]
                },
                "nodeType": 1
            },
            "2": {
                "invocation": {
                    "address": "0x70cbb871e8f30fc8ce23609e9e0ea87b6b222f58",
                    "callData": "0x0000000000000000000000006969dd6fd01b42f3b9004ae9482296a67657a1ad0000000000000000000000004aba73bf21ceadc76962ea7d9c6ada2f26c7cfa70000000000000000000000008c0c79c3e6a21b983fcfec7fa62b2875169c1a00000000000000000000000000000000000000000000000008e250b2f920213742",
                    "decodedMethod": {
                        "callParams": [
                            {
                                "name": "token",
                                "type": "address",
                                "value": "0x6969dd6fd01b42f3b9004ae9482296a67657a1ad"
                            },
                            {
                                "name": "who",
                                "type": "address",
                                "value": "0x4aba73bf21ceadc76962ea7d9c6ada2f26c7cfa7"
                            },
                            {
                                "name": "dest",
                                "type": "address",
                                "value": "0x8c0c79c3e6a21b983fcfec7fa62b2875169c1a00"
                            },
                            {
                                "name": "amount",
                                "type": "uint256",
                                "value": "163,881,683,623,440,627,522"
                            }
                        ],
                        "constructorArguments": "",
                        "name": "claimTokens",
                        "returnParams": [],
                        "signature": "claimTokens(address,address,address,uint256)"
                    },
                    "errorInfo": "",
                    "fromAddress": "0xf3de3c0d654fda23dad170f0f320a92172509127",
                    "gasUsed": 62298,
                    "id": 2,
                    "methodDecoded": true,
                    "operation": "CALL",
                    "output": "",
                    "revert": false,
                    "revertMessage": "",
                    "selector": "0x0a5ea466",
                    "status": true,
                    "value": "0"
                },
                "nodeType": 0
            },
            "20": {
                "invocation": {
                    "address": "0x4aba73bf21ceadc76962ea7d9c6ada2f26c7cfa7",
                    "callData": "0x",
                    "decodedMethod": null,
                    "errorInfo": "",
                    "fromAddress": "0xf3de3c0d654fda23dad170f0f320a92172509127",
                    "gasUsed": 0,
                    "id": 20,
                    "methodDecoded": false,
                    "operation": "CALL",
                    "output": "",
                    "revert": false,
                    "revertMessage": "",
                    "selector": "fallback",
                    "status": true,
                    "value": "0.006413684733280192"
                },
                "nodeType": 0
            },
            "21": {
                "event": {
                    "contract": "0xf3de3c0d654fda23dad170f0f320a92172509127",
                    "decodedLog": {
                        "name": "OrderRecord",
                        "params": [
                            {
                                "name": "fromToken",
                                "type": "address",
                                "value": "0x6969dd6fd01b42f3b9004ae9482296a67657a1ad"
                            },
                            {
                                "name": "toToken",
                                "type": "address",
                                "value": "0x0000000000000000000000000000000000000000"
                            },
                            {
                                "name": "sender",
                                "type": "address",
                                "value": "0x4aba73bf21ceadc76962ea7d9c6ada2f26c7cfa7"
                            },
                            {
                                "name": "fromAmount",
                                "type": "uint256",
                                "value": "163,881,683,623,440,627,522"
                            },
                            {
                                "name": "returnAmount",
                                "type": "uint256",
                                "value": "6,413,684,733,280,192"
                            }
                        ],
                        "signature": "OrderRecord(address,address,address,uint256,uint256)"
                    },
                    "id": 21,
                    "logData": "0x0000000000000000000000006969dd6fd01b42f3b9004ae9482296a67657a1ad00000000000000000000000000000000000000000000000000000000000000000000000000000000000000004aba73bf21ceadc76962ea7d9c6ada2f26c7cfa7000000000000000000000000000000000000000000000008e250b2f9202137420000000000000000000000000000000000000000000000000016c936583a7fc0",
                    "logDecoded": true,
                    "operation": "EVENT",
                    "revert": false,
                    "status": true,
                    "topics": [
                        "0x1bb43f2da90e35f7b0cf38521ca95a49e68eb42fac49924930a5bd73cdf7576c"
                    ]
                },
                "nodeType": 1
            },
            "3": {
                "invocation": {
                    "address": "0x40aa958dd87fc8305b97f2ba922cddca374bcd7f",
                    "callData": "0x0000000000000000000000006969dd6fd01b42f3b9004ae9482296a67657a1ad0000000000000000000000004aba73bf21ceadc76962ea7d9c6ada2f26c7cfa70000000000000000000000008c0c79c3e6a21b983fcfec7fa62b2875169c1a00000000000000000000000000000000000000000000000008e250b2f920213742",
                    "decodedMethod": {
                        "callParams": [
                            {
                                "name": "_token",
                                "type": "address",
                                "value": "0x6969dd6fd01b42f3b9004ae9482296a67657a1ad"
                            },
                            {
                                "name": "_who",
                                "type": "address",
                                "value": "0x4aba73bf21ceadc76962ea7d9c6ada2f26c7cfa7"
                            },
                            {
                                "name": "_dest",
                                "type": "address",
                                "value": "0x8c0c79c3e6a21b983fcfec7fa62b2875169c1a00"
                            },
                            {
                                "name": "_amount",
                                "type": "uint256",
                                "value": "163,881,683,623,440,627,522"
                            }
                        ],
                        "constructorArguments": "",
                        "name": "claimTokens",
                        "returnParams": [],
                        "signature": "claimTokens(address,address,address,uint256)"
                    },
                    "errorInfo": "",
                    "fromAddress": "0x70cbb871e8f30fc8ce23609e9e0ea87b6b222f58",
                    "gasUsed": 54527,
                    "id": 3,
                    "methodDecoded": true,
                    "operation": "CALL",
                    "output": "",
                    "revert": false,
                    "revertMessage": "",
                    "selector": "0x0a5ea466",
                    "status": true,
                    "value": "0"
                },
                "nodeType": 0
            },
            "4": {
                "invocation": {
                    "address": "0x6969dd6fd01b42f3b9004ae9482296a67657a1ad",
                    "callData": "0x0000000000000000000000004aba73bf21ceadc76962ea7d9c6ada2f26c7cfa70000000000000000000000008c0c79c3e6a21b983fcfec7fa62b2875169c1a00000000000000000000000000000000000000000000000008e250b2f920213742",
                    "decodedMethod": {
                        "callParams": [
                            {
                                "name": "sender",
                                "type": "address",
                                "value": "0x4aba73bf21ceadc76962ea7d9c6ada2f26c7cfa7"
                            },
                            {
                                "name": "recipient",
                                "type": "address",
                                "value": "0x8c0c79c3e6a21b983fcfec7fa62b2875169c1a00"
                            },
                            {
                                "decimalAvailable": true,
                                "name": "amount",
                                "type": "uint256",
                                "value": "163,881,683,623,440,627,522"
                            }
                        ],
                        "constructorArguments": "",
                        "name": "transferFrom",
                        "returnParams": [
                            {
                                "name": "",
                                "type": "bool",
                                "value": true
                            }
                        ],
                        "signature": "transferFrom(address,address,uint256)"
                    },
                    "errorInfo": "",
                    "fromAddress": "0x40aa958dd87fc8305b97f2ba922cddca374bcd7f",
                    "gasUsed": 47885,
                    "id": 4,
                    "methodDecoded": true,
                    "operation": "CALL",
                    "output": "0x0000000000000000000000000000000000000000000000000000000000000001",
                    "revert": false,
                    "revertMessage": "",
                    "selector": "0x23b872dd",
                    "status": true,
                    "value": "0"
                },
                "nodeType": 0
            },
            "5": {
                "event": {
                    "contract": "0x6969dd6fd01b42f3b9004ae9482296a67657a1ad",
                    "decodedLog": {
                        "name": "Transfer",
                        "params": [
                            {
                                "name": "from",
                                "type": "address",
                                "value": "0x4aba73bf21ceadc76962ea7d9c6ada2f26c7cfa7"
                            },
                            {
                                "name": "to",
                                "type": "address",
                                "value": "0x8c0c79c3e6a21b983fcfec7fa62b2875169c1a00"
                            },
                            {
                                "decimalAvailable": true,
                                "name": "value",
                                "type": "uint256",
                                "value": "163,881,683,623,440,627,522"
                            }
                        ],
                        "signature": "Transfer(address,address,uint256)"
                    },
                    "id": 5,
                    "logData": "0x000000000000000000000000000000000000000000000008e250b2f920213742",
                    "logDecoded": true,
                    "operation": "EVENT",
                    "revert": false,
                    "status": true,
                    "topics": [
                        "0xddf252ad1be2c89b69c2b068fc378daa952ba7f163c4a11628f55a4df523b3ef",
                        "0x0000000000000000000000004aba73bf21ceadc76962ea7d9c6ada2f26c7cfa7",
                        "0x0000000000000000000000008c0c79c3e6a21b983fcfec7fa62b2875169c1a00"
                    ]
                },
                "nodeType": 1
            },
            "6": {
                "event": {
                    "contract": "0x6969dd6fd01b42f3b9004ae9482296a67657a1ad",
                    "decodedLog": {
                        "name": "Approval",
                        "params": [
                            {
                                "name": "owner",
                                "type": "address",
                                "value": "0x4aba73bf21ceadc76962ea7d9c6ada2f26c7cfa7"
                            },
                            {
                                "name": "spender",
                                "type": "address",
                                "value": "0x40aa958dd87fc8305b97f2ba922cddca374bcd7f"
                            },
                            {
                                "decimalAvailable": true,
                                "name": "value",
                                "type": "uint256",
                                "value": "115,792,089,237,316,195,423,570,985,008,687,907,853,269,984,665,640,564,039,293,702,324,289,689,012,413"
                            }
                        ],
                        "signature": "Approval(address,address,uint256)"
                    },
                    "id": 6,
                    "logData": "0xfffffffffffffffffffffffffffffffffffffffffffffff71daf4d06dfdec8bd",
                    "logDecoded": true,
                    "operation": "EVENT",
                    "revert": false,
                    "status": true,
                    "topics": [
                        "0x8c5be1e5ebec7d5bd14f71427d1e84f3dd0314c0f7b2291e5b200ac8c7c3b925",
                        "0x0000000000000000000000004aba73bf21ceadc76962ea7d9c6ada2f26c7cfa7",
                        "0x00000000000000000000000040aa958dd87fc8305b97f2ba922cddca374bcd7f"
                    ]
                },
                "nodeType": 1
            },
            "7": {
                "invocation": {
                    "address": "0x8c0c79c3e6a21b983fcfec7fa62b2875169c1a00",
                    "callData": "0x",
                    "decodedMethod": {
                        "callParams": [],
                        "constructorArguments": "",
                        "name": "getReserves",
                        "returnParams": [
                            {
                                "name": "_reserve0",
                                "type": "uint112",
                                "value": "100,561,193,385,927,046,457,791"
                            },
                            {
                                "name": "_reserve1",
                                "type": "uint112",
                                "value": "3,953,825,634,778,768,996"
                            },
                            {
                                "name": "_blockTimestampLast",
                                "type": "uint32",
                                "value": "1,719,757,571"
                            }
                        ],
                        "signature": "getReserves()"
                    },
                    "errorInfo": "",
                    "fromAddress": "0xf3de3c0d654fda23dad170f0f320a92172509127",
                    "gasUsed": 2504,
                    "id": 7,
                    "methodDecoded": true,
                    "operation": "STATICCALL",
                    "output": "0x00000000000000000000000000000000000000000000154b6ee74c76a6cde9bf00000000000000000000000000000000000000000000000036decf7770d266640000000000000000000000000000000000000000000000000000000066816b03",
                    "revert": false,
                    "revertMessage": "",
                    "selector": "0x0902f1ac",
                    "status": true,
                    "value": "0"
                },
                "nodeType": 0
            },
            "8": {
                "invocation": {
                    "address": "0x8c0c79c3e6a21b983fcfec7fa62b2875169c1a00",
                    "callData": "0x",
                    "decodedMethod": {
                        "callParams": [],
                        "constructorArguments": "",
                        "name": "token0",
                        "returnParams": [
                            {
                                "name": "",
                                "type": "address",
                                "value": "0x6969dd6fd01b42f3b9004ae9482296a67657a1ad"
                            }
                        ],
                        "signature": "token0()"
                    },
                    "errorInfo": "",
                    "fromAddress": "0xf3de3c0d654fda23dad170f0f320a92172509127",
                    "gasUsed": 2381,
                    "id": 8,
                    "methodDecoded": true,
                    "operation": "STATICCALL",
                    "output": "0x0000000000000000000000006969dd6fd01b42f3b9004ae9482296a67657a1ad",
                    "revert": false,
                    "revertMessage": "",
                    "selector": "0x0dfe1681",
                    "status": true,
                    "value": "0"
                },
                "nodeType": 0
            },
            "9": {
                "invocation": {
                    "address": "0x6969dd6fd01b42f3b9004ae9482296a67657a1ad",
                    "callData": "0x0000000000000000000000008c0c79c3e6a21b983fcfec7fa62b2875169c1a00",
                    "decodedMethod": {
                        "callParams": [
                            {
                                "name": "account",
                                "type": "address",
                                "value": "0x8c0c79c3e6a21b983fcfec7fa62b2875169c1a00"
                            }
                        ],
                        "constructorArguments": "",
                        "name": "balanceOf",
                        "returnParams": [
                            {
                                "decimalAvailable": true,
                                "name": "",
                                "type": "uint256",
                                "value": "100,725,075,069,550,487,085,313"
                            }
                        ],
                        "signature": "balanceOf(address)"
                    },
                    "errorInfo": "",
                    "fromAddress": "0xf3de3c0d654fda23dad170f0f320a92172509127",
                    "gasUsed": 962,
                    "id": 9,
                    "methodDecoded": true,
                    "operation": "STATICCALL",
                    "output": "0x0000000000000000000000000000000000000000000015545137ff6fc6ef2101",
                    "revert": false,
                    "revertMessage": "",
                    "selector": "0x70a08231",
                    "status": true,
                    "value": "0"
                },
                "nodeType": 0
            }
        },
        "gasFlame": [
            {
                "children": [
                    {
                        "children": [
                            {
                                "children": [],
                                "depth": 0,
                                "name": "Initial Gas",
                                "value": 22564
                            },
                            {
                                "children": [
                                    {
                                        "children": [
                                            {
                                                "children": [
                                                    {
                                                        "children": [],
                                                        "depth": 3,
                                                        "name": "transferFrom",
                                                        "value": 47885
                                                    }
                                                ],
                                                "depth": 2,
                                                "name": "claimTokens",
                                                "value": 54527
                                            }
                                        ],
                                        "depth": 1,
                                        "name": "claimTokens",
                                        "value": 62298
                                    },
                                    {
                                        "children": [],
                                        "depth": 1,
                                        "name": "getReserves",
                                        "value": 2504
                                    },
                                    {
                                        "children": [],
                                        "depth": 1,
                                        "name": "token0",
                                        "value": 2381
                                    },
                                    {
                                        "children": [],
                                        "depth": 1,
                                        "name": "balanceOf",
                                        "value": 962
                                    },
                                    {
                                        "children": [
                                            {
                                                "children": [],
                                                "depth": 2,
                                                "name": "transfer",
                                                "value": 12862
                                            },
                                            {
                                                "children": [],
                                                "depth": 2,
                                                "name": "balanceOf",
                                                "value": 962
                                            },
                                            {
                                                "children": [],
                                                "depth": 2,
                                                "name": "balanceOf",
                                                "value": 534
                                            }
                                        ],
                                        "depth": 1,
                                        "name": "swap",
                                        "value": 46181
                                    },
                                    {
                                        "children": [
                                            {
                                                "children": [],
                                                "depth": 2,
                                                "name": "fallback",
                                                "value": 76
                                            }
                                        ],
                                        "depth": 1,
                                        "name": "withdraw",
                                        "value": 9216
                                    },
                                    {
                                        "children": [],
                                        "depth": 1,
                                        "name": "fallback",
                                        "value": 0
                                    }
                                ],
                                "depth": 0,
                                "name": "Executed Gas",
                                "value": 141223
                            }
                        ],
                        "depth": -1,
                        "name": "Actual Gas Used",
                        "value": 153387
                    },
                    {
                        "children": [],
                        "depth": -1,
                        "name": "Refunded Gas",
                        "value": 10400
                    }
                ],
                "depth": -2,
                "name": "Total Gas",
                "value": 163787
            }
        ],
        "isConfirmed": true,
        "mainTrace": [
            {
                "children": [
                    {
                        "children": [
                            {
                                "children": [],
                                "depth": 1,
                                "id": 1,
                                "order": 1
                            },
                            {
                                "children": [
                                    {
                                        "children": [
                                            {
                                                "children": [
                                                    {
                                                        "children": [],
                                                        "depth": 4,
                                                        "id": 5,
                                                        "order": 5
                                                    },
                                                    {
                                                        "children": [],
                                                        "depth": 4,
                                                        "id": 6,
                                                        "order": 6
                                                    }
                                                ],
                                                "depth": 3,
                                                "id": 4,
                                                "order": 4
                                            }
                                        ],
                                        "depth": 2,
                                        "id": 3,
                                        "order": 3
                                    }
                                ],
                                "depth": 1,
                                "id": 2,
                                "order": 2
                            },
                            {
                                "children": [],
                                "depth": 1,
                                "id": 7,
                                "order": 7
                            },
                            {
                                "children": [],
                                "depth": 1,
                                "id": 8,
                                "order": 8
                            },
                            {
                                "children": [],
                                "depth": 1,
                                "id": 9,
                                "order": 9
                            },
                            {
                                "children": [
                                    {
                                        "children": [
                                            {
                                                "children": [],
                                                "depth": 3,
                                                "id": 12,
                                                "order": 12
                                            }
                                        ],
                                        "depth": 2,
                                        "id": 11,
                                        "order": 11
                                    },
                                    {
                                        "children": [],
                                        "depth": 2,
                                        "id": 13,
                                        "order": 13
                                    },
                                    {
                                        "children": [],
                                        "depth": 2,
                                        "id": 14,
                                        "order": 14
                                    },
                                    {
                                        "children": [],
                                        "depth": 2,
                                        "id": 15,
                                        "order": 15
                                    },
                                    {
                                        "children": [],
                                        "depth": 2,
                                        "id": 16,
                                        "order": 16
                                    }
                                ],
                                "depth": 1,
                                "id": 10,
                                "order": 10
                            },
                            {
                                "children": [
                                    {
                                        "children": [],
                                        "depth": 2,
                                        "id": 18,
                                        "order": 18
                                    },
                                    {
                                        "children": [],
                                        "depth": 2,
                                        "id": 19,
                                        "order": 19
                                    }
                                ],
                                "depth": 1,
                                "id": 17,
                                "order": 17
                            },
                            {
                                "children": [],
                                "depth": 1,
                                "id": 20,
                                "order": 20
                            },
                            {
                                "children": [],
                                "depth": 1,
                                "id": 21,
                                "order": 21
                            }
                        ],
                        "depth": 0,
                        "id": 0,
                        "order": 0
                    }
                ],
                "depth": -1,
                "id": -1,
                "order": -1
            }
        ],
        "mainTraceNodeCount": 22,
        "parentIdMap": {
            "0": -1,
            "1": 0,
            "10": 0,
            "11": 10,
            "12": 11,
            "13": 10,
            "14": 10,
            "15": 10,
            "16": 10,
            "17": 0,
            "18": 17,
            "19": 17,
            "2": 0,
            "20": 0,
            "21": 0,
            "3": 2,
            "4": 3,
            "5": 4,
            "6": 4,
            "7": 0,
            "8": 0,
            "9": 0
        },
        "tidyTrace": [
            {
                "children": [
                    {
                        "children": [
                            {
                                "children": [],
                                "depth": 1,
                                "id": 1,
                                "order": 1
                            },
                            {
                                "children": [
                                    {
                                        "children": [
                                            {
                                                "children": [
                                                    {
                                                        "children": [],
                                                        "depth": 4,
                                                        "id": 5,
                                                        "order": 5
                                                    },
                                                    {
                                                        "children": [],
                                                        "depth": 4,
                                                        "id": 6,
                                                        "order": 6
                                                    }
                                                ],
                                                "depth": 3,
                                                "id": 4,
                                                "order": 4
                                            }
                                        ],
                                        "depth": 2,
                                        "id": 3,
                                        "order": 3
                                    }
                                ],
                                "depth": 1,
                                "id": 2,
                                "order": 2
                            },
                            {
                                "children": [
                                    {
                                        "children": [
                                            {
                                                "children": [],
                                                "depth": 3,
                                                "id": 12,
                                                "order": 12
                                            }
                                        ],
                                        "depth": 2,
                                        "id": 11,
                                        "order": 11
                                    },
                                    {
                                        "children": [],
                                        "depth": 2,
                                        "id": 15,
                                        "order": 15
                                    },
                                    {
                                        "children": [],
                                        "depth": 2,
                                        "id": 16,
                                        "order": 16
                                    }
                                ],
                                "depth": 1,
                                "id": 10,
                                "order": 10
                            },
                            {
                                "children": [
                                    {
                                        "children": [],
                                        "depth": 2,
                                        "id": 18,
                                        "order": 18
                                    },
                                    {
                                        "children": [],
                                        "depth": 2,
                                        "id": 19,
                                        "order": 19
                                    }
                                ],
                                "depth": 1,
                                "id": 17,
                                "order": 17
                            },
                            {
                                "children": [],
                                "depth": 1,
                                "id": 20,
                                "order": 20
                            },
                            {
                                "children": [],
                                "depth": 1,
                                "id": 21,
                                "order": 21
                            }
                        ],
                        "depth": 0,
                        "id": 0,
                        "order": 0
                    }
                ],
                "depth": -1,
                "id": -1,
                "order": -1
            }
        ],
        "tidyTraceNodeCount": 17
    },
    "state_change": {
        "stateChanges": [
            {
                "address": "0x6969dd6fd01b42f3b9004ae9482296a67657a1ad",
                "erc": "ERC-20",
                "slots": [
                    {
                        "current": "0xfffffffffffffffffffffffffffffffffffffffffffffff71daf4d06dfdec8bd",
                        "key": "0x1ef65452befcb2da16f92248181d4dbbc0239c5df6bd1786534aec970c7aa08c",
                        "prev": "0xffffffffffffffffffffffffffffffffffffffffffffffffffffffffffffffff"
                    },
                    {
                        "current": "0x0000000000000000000000000000000000000000000000000000000000000000",
                        "key": "0x55fa8f7d49802cf880323938d2f3e180450beb115fa3d4cd4fe46e592eae07b3",
                        "prev": "0x000000000000000000000000000000000000000000000008e250b2f920213742"
                    },
                    {
                        "current": "0x0000000000000000000000000000000000000000000015545137ff6fc6ef2101",
                        "key": "0x7455de965ed194943a47f06a4e9f12526f27e3c64a482b6e3ae1bb349fbf2cd9",
                        "prev": "0x00000000000000000000000000000000000000000000154b6ee74c76a6cde9bf"
                    }
                ],
                "storageVariables": [
                    {
                        "name": "_allowances",
                        "type": "mapping(address => mapping(address => uint256))",
                        "value": {
                            "pairs": [
                                {
                                    "key": "0x4aba73bf21ceadc76962ea7d9c6ada2f26c7cfa7",
                                    "value": {
                                        "pairs": [
                                            {
                                                "key": "0x40aa958dd87fc8305b97f2ba922cddca374bcd7f",
                                                "value": {
                                                    "current": "115792089237316195423570985008687907853269984665640564039293702324289689012413",
                                                    "prev": "115792089237316195423570985008687907853269984665640564039457584007913129639935",
                                                    "typeTag": 1
                                                }
                                            }
                                        ],
                                        "typeTag": 4
                                    }
                                }
                            ],
                            "typeTag": 4
                        }
                    },
                    {
                        "name": "_balances",
                        "type": "mapping(address => uint256)",
                        "value": {
                            "pairs": [
                                {
                                    "key": "0x4aba73bf21ceadc76962ea7d9c6ada2f26c7cfa7",
                                    "value": {
                                        "current": "0",
                                        "prev": "163881683623440627522",
                                        "typeTag": 1
                                    }
                                },
                                {
                                    "key": "0x8c0c79c3e6a21b983fcfec7fa62b2875169c1a00",
                                    "value": {
                                        "current": "100725075069550487085313",
                                        "prev": "100561193385927046457791",
                                        "typeTag": 1
                                    }
                                }
                            ],
                            "typeTag": 4
                        }
                    }
                ]
            },
            {
                "address": "0x8c0c79c3e6a21b983fcfec7fa62b2875169c1a00",
                "erc": "ERC-20",
                "slots": [
                    {
                        "current": "0x0000000000000000000000000002e384b784486aa05cb06b486f4a7d599a92fc",
                        "key": "0x000000000000000000000000000000000000000000000000000000000000000a",
                        "prev": "0x0000000000000000000000000002e235681d65f9b209e9d48cfd14212602881c"
                    },
                    {
                        "current": "0x66816e6300000000000036c806411897e6a40000000015545137ff6fc6ef2101",
                        "key": "0x0000000000000000000000000000000000000000000000000000000000000008",
                        "prev": "0x66816b0300000000000036decf7770d2666400000000154b6ee74c76a6cde9bf"
                    },
                    {
                        "current": "0x0000000000000000000000000000000000174d4520ab094697a0e286fb19e004",
                        "key": "0x0000000000000000000000000000000000000000000000000000000000000009",
                        "prev": "0x0000000000000000000000000000000000174492d7b2dda16cc87d8cf1903484"
                    }
                ],
                "storageVariables": [
                    {
                        "name": "price1CumulativeLast",
                        "type": "uint256",
                        "value": {
                            "current": "64421140511579581421579510175409515129377532",
                            "prev": "64307040375442348575283963278765732260907036",
                            "typeTag": 1
                        }
                    },
                    {
                        "name": "reserve0",
                        "type": "uint112",
                        "value": {
                            "current": "100725075069550487085313",
                            "prev": "100561193385927046457791",
                            "typeTag": 1
                        }
                    },
                    {
                        "name": "reserve1",
                        "type": "uint112",
                        "value": {
                            "current": "3947411950045488804",
                            "prev": "3953825634778768996",
                            "typeTag": 1
                        }
                    },
                    {
                        "name": "blockTimestampLast",
                        "type": "uint32",
                        "value": {
                            "current": "1719758435",
                            "prev": "1719757571",
                            "typeTag": 1
                        }
                    },
                    {
                        "name": "price0CumulativeLast",
                        "type": "uint256",
                        "value": {
                            "current": "120990050139286131251695848364040196",
                            "prev": "120813665666588959876075509571925124",
                            "typeTag": 1
                        }
                    }
                ]
            },
            {
                "address": "0xc02aaa39b223fe8d0a0e5c4f27ead9083c756cc2",
                "erc": "ERC-20",
                "slots": [
                    {
                        "current": "0x00000000000000000000000000000000000000000000000036c806411897e6a4",
                        "key": "0x38c6f613820c4219540ca84e2e906bf4f29fc0478a9e83c3c2d1718d18f51e5f",
                        "prev": "0x00000000000000000000000000000000000000000000000036decf7770d26664"
                    }
                ],
                "storageVariables": [
                    {
                        "name": "balanceOf",
                        "type": "mapping(address => uint256)",
                        "value": {
                            "pairs": [
                                {
                                    "key": "0x8c0c79c3e6a21b983fcfec7fa62b2875169c1a00",
                                    "value": {
                                        "current": "3947411950045488804",
                                        "prev": "3953825634778768996",
                                        "typeTag": 1
                                    }
                                }
                            ],
                            "typeTag": 4
                        }
                    }
                ]
            }
        ]
    }
}