{
    "balance_change": {
        "balanceChanges": [
            {
                "account": "0x1f995faad6c818d53dc1a02b6b609255f0f46ac8",
                "assets": [
                    {
                        "address": "0x2dc059881eef90b12e4d770364f4b14af82c5b9c",
                        "amount": "736.6265451",
                        "iconUrl": "",
                        "isERC1155": false,
                        "isERC721": false,
                        "sign": false,
                        "value": ""
                    }
                ]
            },
            {
                "account": "0x0fa2ef470d565c7679f0e5450698056d8dbee9ef",
                "assets": [
                    {
                        "address": "0x2dc059881eef90b12e4d770364f4b14af82c5b9c",
                        "amount": "736.6265451",
                        "iconUrl": "",
                        "isERC1155": false,
                        "isERC721": false,
                        "sign": true,
                        "value": ""
                    }
                ]
            }
        ]
    },
    "profile": {
        "basic_info": {
            "baseFee": "",
            "blockNumber": 6843985,
            "callData": "0xa9059cbb0000000000000000000000000fa2ef470d565c7679f0e5450698056d8dbee9ef000000000000000000000000000000000000000000000027eebf33f428c2f800",
            "debugEnable": true,
            "errorInfo": "",
            "eventCount": 1,
            "feeRecipient": "0x52bc44d5378309ee2abf1539bf71de1b7d7be3b5",
            "formatValue": "0",
            "gasLimit": 60000,
            "gasPrice": "10",
            "gasUsed": 37022,
            "intTxnCount": 0,
            "internalRevert": false,
            "internalRevertMessage": "",
            "isContractCreation": false,
            "isFlashloan": false,
            "maxFee": "",
            "nonce": 824,
            "overwritedBlockNumber": -1,
            "priorityFee": "",
            "receiver": "0x2dc059881eef90b12e4d770364f4b14af82c5b9c",
            "revertMessage": "",
            "sender": "0x1f995faad6c818d53dc1a02b6b609255f0f46ac8",
            "simulationEnable": true,
            "sourceTxnHash": "0x6fd4d25a71f80e27de57669ab90479051b189c4faf9618e766698ace9dc32447",
            "status": true,
            "timestamp": "2018-12-07T17:56:30Z",
            "transactionFee": "0.00037022",
            "txnHash": "0x6fd4d25a71f80e27de57669ab90479051b189c4faf9618e766698ace9dc32447",
            "txnIndex": 38,
            "type": 0,
            "value": "0"
        },
        "fund_flow": [
            {
                "amount": "736.6265451",
                "from": "0x1f995faad6c818d53dc1a02b6b609255f0f46ac8",
                "id": 1,
                "isERC1155": false,
                "isERC721": false,
                "isReverted": false,
                "order": 1,
                "to": "0x0fa2ef470d565c7679f0e5450698056d8dbee9ef",
                "token": "0x2dc059881eef90b12e4d770364f4b14af82c5b9c"
            }
        ],
        "token_infos": [
            {
                "address": "0xeeeeeeeeeeeeeeeeeeeeeeeeeeeeeeeeeeeeeeee",
                "decimals": 18
            },
            {
                "address": "0x2dc059881eef90b12e4d770364f4b14af82c5b9c",
                "decimals": 18
            },
            {
                "address": "0xc02aaa39b223fe8d0a0e5c4f27ead9083c756cc2",
                "decimals": 18
            }
        ]
    },
    "address_label": {
        "labels": [
            {
                "address": "0x0000000000000000000000000000000000000004",
                "label": "Precompiled"
            },
            {
                "address": "0xeeeeeeeeeeeeeeeeeeeeeeeeeeeeeeeeeeeeeeee",
                "label": "Ether"
            },
            {
                "address": "0x2dc059881eef90b12e4d770364f4b14af82c5b9c",
                "label": "Module Token (MODL)"
            },
            {
                "address": "0x0000000000000000000000000000000000000001",
                "label": "Precompiled"
            },
            {
                "address": "0x0000000000000000000000000000000000000002",
                "label": "Precompiled"
            },
            {
                "address": "0x0000000000000000000000000000000000000003",
                "label": "Precompiled"
            }
        ]
    },
    "trace": {
        "accountLabels": null,
        "dataMap": {
            "-1": {
                "invocation": {
                    "address": "0x1f995faad6c818d53dc1a02b6b609255f0f46ac8",
                    "callData": "",
                    "decodedMethod": null,
                    "errorInfo": "",
                    "fromAddress": "",
                    "gasUsed": 0,
                    "id": -1,
                    "methodDecoded": false,
                    "operation": "",
                    "output": "",
                    "revert": false,
                    "revertMessage": "",
                    "selector": "",
                    "status": false,
                    "value": ""
                },
                "nodeType": 0
            },
            "0": {
                "invocation": {
                    "address": "0x2dc059881eef90b12e4d770364f4b14af82c5b9c",
                    "callData": "0x0000000000000000000000000fa2ef470d565c7679f0e5450698056d8dbee9ef000000000000000000000000000000000000000000000027eebf33f428c2f800",
                    "decodedMethod": {
                        "callParams": [
                            {
                                "name": "_to",
                                "type": "address",
                                "value": "0x0fa2ef470d565c7679f0e5450698056d8dbee9ef"
                            },
                            {
                                "decimalAvailable": true,
                                "name": "_value",
                                "type": "uint256",
                                "value": "736,626,545,100,000,000,000"
                            }
                        ],
                        "constructorArguments": "",
                        "name": "transfer",
                        "returnParams": [
                            {
                                "name": "",
                                "type": "bool",
                                "value": true
                            }
                        ],
                        "signature": "transfer(address,uint256)"
                    },
                    "errorInfo": "",
                    "fromAddress": "0x1f995faad6c818d53dc1a02b6b609255f0f46ac8",
                    "gasUsed": 37022,
                    "id": 0,
                    "methodDecoded": true,
                    "operation": "CALL",
                    "output": "0x0000000000000000000000000000000000000000000000000000000000000001",
                    "revert": false,
                    "revertMessage": "",
                    "selector": "0xa9059cbb",
                    "status": true,
                    "value": "0"
                },
                "nodeType": 0
            },
            "1": {
                "event": {
                    "contract": "0x2dc059881eef90b12e4d770364f4b14af82c5b9c",
                    "decodedLog": {
                        "name": "Transfer",
                        "params": [
                            {
                                "name": "_from",
                                "type": "address",
                                "value": "0x1f995faad6c818d53dc1a02b6b609255f0f46ac8"
                            },
                            {
                                "name": "_to",
                                "type": "address",
                                "value": "0x0fa2ef470d565c7679f0e5450698056d8dbee9ef"
                            },
                            {
                                "decimalAvailable": true,
                                "name": "_value",
                                "type": "uint256",
                                "value": "736,626,545,100,000,000,000"
                            }
                        ],
                        "signature": "Transfer(address,address,uint256)"
                    },
                    "id": 1,
                    "logData": "0x000000000000000000000000000000000000000000000027eebf33f428c2f800",
                    "logDecoded": true,
                    "operation": "EVENT",
                    "revert": false,
                    "status": true,
                    "topics": [
                        "0xddf252ad1be2c89b69c2b068fc378daa952ba7f163c4a11628f55a4df523b3ef",
                        "0x0000000000000000000000001f995faad6c818d53dc1a02b6b609255f0f46ac8",
                        "0x0000000000000000000000000fa2ef470d565c7679f0e5450698056d8dbee9ef"
                    ]
                },
                "nodeType": 1
            }
        },
        "gasFlame": [
            {
                "children": [
                    {
                        "children": [
                            {
                                "children": [],
                                "depth": 0,
                                "name": "Initial Gas",
                                "value": 23320
                            },
                            {
                                "children": [],
                                "depth": 0,
                                "name": "Executed Gas",
                                "value": 13702
                            }
                        ],
                        "depth": -1,
                        "name": "Actual Gas Used",
                        "value": 37022
                    },
                    {
                        "children": [],
                        "depth": -1,
                        "name": "Refunded Gas",
                        "value": 0
                    }
                ],
                "depth": -2,
                "name": "Total Gas",
                "value": 37022
            }
        ],
        "isConfirmed": true,
        "mainTrace": [
            {
                "children": [
                    {
                        "children": [
                            {
                                "children": [],
                                "depth": 1,
                                "id": 1,
                                "order": 1
                            }
                        ],
                        "depth": 0,
                        "id": 0,
                        "order": 0
                    }
                ],
                "depth": -1,
                "id": -1,
                "order": -1
            }
        ],
        "mainTraceNodeCount": 2,
        "parentIdMap": {
            "0": -1,
            "1": 0
        },
        "tidyTrace": [
            {
                "children": [
                    {
                        "children": [
                            {
                                "children": [],
                                "depth": 1,
                                "id": 1,
                                "order": 1
                            }
                        ],
                        "depth": 0,
                        "id": 0,
                        "order": 0
                    }
                ],
                "depth": -1,
                "id": -1,
                "order": -1
            }
        ],
        "tidyTraceNodeCount": 2
    },
    "state_change": {
        "stateChanges": [
            {
                "address": "0x2dc059881eef90b12e4d770364f4b14af82c5b9c",
                "erc": "ERC-20",
                "slots": [
                    {
                        "current": "0x00000000000000000000000000000000000000000000005922fe1e60304a0000",
                        "key": "0xdd1e5840aeed87ef326440ed9a1023add7718580cd1988d5837d305df5c8b106",
                        "prev": "0x000000000000000000000000000000000000000000000031343eea6c07870800"
                    },
                    {
                        "current": "0x00000000000000000000000000000000000000000000ed6b1ed19eb8a5bf9000",
                        "key": "0x43859a4fd6e8fdeb95fa36ea30351c806bfe5b470603fa023ac9dfe0f5ce9f7f",
                        "prev": "0x00000000000000000000000000000000000000000000ed930d90d2acce828800"
                    }
                ],
                "storageVariables": [
                    {
                        "name": "balances",
                        "type": "mapping(address => uint256)",
                        "value": {
                            "pairs": [
                                {
                                    "key": "0x0fa2ef470d565c7679f0e5450698056d8dbee9ef",
                                    "value": {
                                        "current": "1644281708800000000000",
                                        "prev": "907655163700000000000",
                                        "typeTag": 1
                                    }
                                },
                                {
                                    "key": "0x1f995faad6c818d53dc1a02b6b609255f0f46ac8",
                                    "value": {
                                        "current": "1121176878786600000000000",
                                        "prev": "1121913505331700000000000",
                                        "typeTag": 1
                                    }
                                }
                            ],
                            "typeTag": 4
                        }
                    }
                ]
            }
        ]
    }
}