{
    "balance_change": {
        "balanceChanges": [
            {
                "account": "0xe3607814cc1319f4327fca9147aa6cea97584581",
                "assets": [
                    {
                        "address": "0x320c45f90fcdb0167ac5473bbef88283716887fe",
                        "amount": "47,100",
                        "iconUrl": "",
                        "isERC1155": false,
                        "isERC721": false,
                        "sign": false,
                        "value": ""
                    }
                ]
            },
            {
                "account": "0x0e9193f0d180bc7e8b19b782a5dbfc891b23b1a0",
                "assets": [
                    {
                        "address": "0x320c45f90fcdb0167ac5473bbef88283716887fe",
                        "amount": "47,100",
                        "iconUrl": "",
                        "isERC1155": false,
                        "isERC721": false,
                        "sign": true,
                        "value": ""
                    }
                ]
            }
        ]
    },
    "profile": {
        "basic_info": {
            "baseFee": "",
            "blockNumber": 6913222,
            "callData": "0xa9059cbb0000000000000000000000000e9193f0d180bc7e8b19b782a5dbfc891b23b1a00000000000000000000000000000000000000000000009f94bce458142700000",
            "debugEnable": true,
            "errorInfo": "",
            "eventCount": 1,
            "feeRecipient": "0x52bc44d5378309ee2abf1539bf71de1b7d7be3b5",
            "formatValue": "0",
            "gasLimit": 36618,
            "gasPrice": "22.5",
            "gasUsed": 21618,
            "intTxnCount": 0,
            "internalRevert": false,
            "internalRevertMessage": "",
            "isContractCreation": false,
            "isFlashloan": false,
            "maxFee": "",
            "nonce": 0,
            "overwritedBlockNumber": -1,
            "priorityFee": "",
            "receiver": "0x320c45f90fcdb0167ac5473bbef88283716887fe",
            "revertMessage": "",
            "sender": "0xe3607814cc1319f4327fca9147aa6cea97584581",
            "simulationEnable": true,
            "sourceTxnHash": "0x6f164c7d7939204ffeb1e3aa4733c2454b3936f8771f7071a83dd10e577f6d8d",
            "status": true,
            "timestamp": "2018-12-19T05:28:24Z",
            "transactionFee": "0.000486405",
            "txnHash": "0x6f164c7d7939204ffeb1e3aa4733c2454b3936f8771f7071a83dd10e577f6d8d",
            "txnIndex": 15,
            "type": 0,
            "value": "0"
        },
        "fund_flow": [
            {
                "amount": "47,100",
                "from": "0xe3607814cc1319f4327fca9147aa6cea97584581",
                "id": 1,
                "isERC1155": false,
                "isERC721": false,
                "isReverted": false,
                "order": 1,
                "to": "0x0e9193f0d180bc7e8b19b782a5dbfc891b23b1a0",
                "token": "0x320c45f90fcdb0167ac5473bbef88283716887fe"
            }
        ],
        "token_infos": [
            {
                "address": "0xeeeeeeeeeeeeeeeeeeeeeeeeeeeeeeeeeeeeeeee",
                "decimals": 18
            },
            {
                "address": "0x320c45f90fcdb0167ac5473bbef88283716887fe",
                "decimals": 18
            },
            {
                "address": "0xc02aaa39b223fe8d0a0e5c4f27ead9083c756cc2",
                "decimals": 18
            }
        ]
    },
    "address_label": {
        "labels": [
            {
                "address": "0xeeeeeeeeeeeeeeeeeeeeeeeeeeeeeeeeeeeeeeee",
                "label": "Ether"
            },
            {
                "address": "0x320c45f90fcdb0167ac5473bbef88283716887fe",
                "label": "JF"
            },
            {
                "address": "0x0000000000000000000000000000000000000001",
                "label": "Precompiled"
            },
            {
                "address": "0x0000000000000000000000000000000000000002",
                "label": "Precompiled"
            },
            {
                "address": "0x0000000000000000000000000000000000000003",
                "label": "Precompiled"
            },
            {
                "address": "0x0000000000000000000000000000000000000004",
                "label": "Precompiled"
            }
        ]
    },
    "trace": {
        "accountLabels": null,
        "dataMap": {
            "-1": {
                "invocation": {
                    "address": "0xe3607814cc1319f4327fca9147aa6cea97584581",
                    "callData": "",
                    "decodedMethod": null,
                    "errorInfo": "",
                    "fromAddress": "",
                    "gasUsed": 0,
                    "id": -1,
                    "methodDecoded": false,
                    "operation": "",
                    "output": "",
                    "revert": false,
                    "revertMessage": "",
                    "selector": "",
                    "status": false,
                    "value": ""
                },
                "nodeType": 0
            },
            "0": {
                "invocation": {
                    "address": "0x320c45f90fcdb0167ac5473bbef88283716887fe",
                    "callData": "0x0000000000000000000000000e9193f0d180bc7e8b19b782a5dbfc891b23b1a00000000000000000000000000000000000000000000009f94bce458142700000",
                    "decodedMethod": {
                        "callParams": [
                            {
                                "name": "recipient",
                                "type": "address",
                                "value": "0x0e9193f0d180bc7e8b19b782a5dbfc891b23b1a0"
                            },
                            {
                                "decimalAvailable": true,
                                "name": "amount",
                                "type": "uint256",
                                "value": "47,100,000,000,000,000,000,000"
                            }
                        ],
                        "constructorArguments": "",
                        "name": "transfer",
                        "returnParams": [
                            {
                                "name": "",
                                "type": "bool",
                                "value": true
                            }
                        ],
                        "signature": "transfer(address,uint256)"
                    },
                    "errorInfo": "",
                    "fromAddress": "0xe3607814cc1319f4327fca9147aa6cea97584581",
                    "gasUsed": 21618,
                    "id": 0,
                    "methodDecoded": true,
                    "operation": "CALL",
                    "output": "0x0000000000000000000000000000000000000000000000000000000000000001",
                    "revert": false,
                    "revertMessage": "",
                    "selector": "0xa9059cbb",
                    "status": true,
                    "value": "0"
                },
                "nodeType": 0
            },
            "1": {
                "event": {
                    "contract": "0x320c45f90fcdb0167ac5473bbef88283716887fe",
                    "decodedLog": {
                        "name": "Transfer",
                        "params": [
                            {
                                "name": "from",
                                "type": "address",
                                "value": "0xe3607814cc1319f4327fca9147aa6cea97584581"
                            },
                            {
                                "name": "to",
                                "type": "address",
                                "value": "0x0e9193f0d180bc7e8b19b782a5dbfc891b23b1a0"
                            },
                            {
                                "decimalAvailable": true,
                                "name": "value",
                                "type": "uint256",
                                "value": "47,100,000,000,000,000,000,000"
                            }
                        ],
                        "signature": "Transfer(address,address,uint256)"
                    },
                    "id": 1,
                    "logData": "0x0000000000000000000000000000000000000000000009f94bce458142700000",
                    "logDecoded": true,
                    "operation": "EVENT",
                    "revert": false,
                    "status": true,
                    "topics": [
                        "0xddf252ad1be2c89b69c2b068fc378daa952ba7f163c4a11628f55a4df523b3ef",
                        "0x000000000000000000000000e3607814cc1319f4327fca9147aa6cea97584581",
                        "0x0000000000000000000000000e9193f0d180bc7e8b19b782a5dbfc891b23b1a0"
                    ]
                },
                "nodeType": 1
            }
        },
        "gasFlame": [
            {
                "children": [
                    {
                        "children": [
                            {
                                "children": [],
                                "depth": 0,
                                "name": "Initial Gas",
                                "value": 23320
                            },
                            {
                                "children": [],
                                "depth": 0,
                                "name": "Executed Gas",
                                "value": 13298
                            }
                        ],
                        "depth": -1,
                        "name": "Actual Gas Used",
                        "value": 21618
                    },
                    {
                        "children": [],
                        "depth": -1,
                        "name": "Refunded Gas",
                        "value": 15000
                    }
                ],
                "depth": -2,
                "name": "Total Gas",
                "value": 36618
            }
        ],
        "isConfirmed": true,
        "mainTrace": [
            {
                "children": [
                    {
                        "children": [
                            {
                                "children": [],
                                "depth": 1,
                                "id": 1,
                                "order": 1
                            }
                        ],
                        "depth": 0,
                        "id": 0,
                        "order": 0
                    }
                ],
                "depth": -1,
                "id": -1,
                "order": -1
            }
        ],
        "mainTraceNodeCount": 2,
        "parentIdMap": {
            "0": -1,
            "1": 0
        },
        "tidyTrace": [
            {
                "children": [
                    {
                        "children": [
                            {
                                "children": [],
                                "depth": 1,
                                "id": 1,
                                "order": 1
                            }
                        ],
                        "depth": 0,
                        "id": 0,
                        "order": 0
                    }
                ],
                "depth": -1,
                "id": -1,
                "order": -1
            }
        ],
        "tidyTraceNodeCount": 2
    },
    "state_change": {
        "stateChanges": [
            {
                "address": "0x320c45f90fcdb0167ac5473bbef88283716887fe",
                "erc": "",
                "slots": [
                    {
                        "current": "0x000000000000000000000000000000000000000004c76e312f71c7c648ec3dc0",
                        "key": "0xe548b4dbc2273f5eabc6b8b94c21829e9f164425062a0633c8098b1e9ab05024",
                        "prev": "0x000000000000000000000000000000000000000004c76437e3a38245067c3dc0"
                    },
                    {
                        "current": "0x0000000000000000000000000000000000000000000000000000000000000000",
                        "key": "0xaf20a5df813c65207e434b0bf4737e11d954df702dddb888116db108f0a625f0",
                        "prev": "0x0000000000000000000000000000000000000000000009f94bce458142700000"
                    }
                ],
                "storageVariables": []
            }
        ]
    }
}