{
    "balance_change": {
        "balanceChanges": [
            {
                "account": "0xe1691c5069f811782324ea5e7f54ccfaa216a686",
                "assets": [
                    {
                        "address": "0xeeeeeeeeeeeeeeeeeeeeeeeeeeeeeeeeeeeeeeee",
                        "amount": "5",
                        "iconUrl": "https://assets.blocksec.com/image/1663669189317-3.png",
                        "isERC1155": false,
                        "isERC721": false,
                        "sign": false,
                        "value": "3112.65"
                    },
                    {
                        "address": "0x111111111117dc0aa78b770fa6a738034120c302",
                        "amount": "1,453.970937156044835079",
                        "iconUrl": "https://assets.blocksec.com/icon/ca85cbb46dd840dad943ce8d71a6933f6860da2d672e673851deb5beb229ca96.png",
                        "isERC1155": false,
                        "isERC721": false,
                        "sign": true,
                        "value": ""
                    }
                ]
            },
            {
                "account": "0x0000000000000000000000000000000000000000",
                "assets": [
                    {
                        "address": "0x812b40c2ca7fabbac756475593fc8b1c313434fa",
                        "amount": "0.061850931275907772",
                        "iconUrl": "",
                        "isERC1155": false,
                        "isERC721": false,
                        "sign": false,
                        "value": ""
                    }
                ]
            },
            {
                "account": "0x4dfa40fdaa7694676899f8887a45603922609af4",
                "assets": [
                    {
                        "address": "0x812b40c2ca7fabbac756475593fc8b1c313434fa",
                        "amount": "0.028373900479990946",
                        "iconUrl": "",
                        "isERC1155": false,
                        "isERC721": false,
                        "sign": true,
                        "value": ""
                    }
                ]
            },
            {
                "account": "0x735247fb0a604c0adc6cab38ace16d0dba31295f",
                "assets": [
                    {
                        "address": "0x812b40c2ca7fabbac756475593fc8b1c313434fa",
                        "amount": "0.033477030795916826",
                        "iconUrl": "",
                        "isERC1155": false,
                        "isERC721": false,
                        "sign": true,
                        "value": ""
                    }
                ]
            },
            {
                "account": "0x812b40c2ca7fabbac756475593fc8b1c313434fa",
                "assets": [
                    {
                        "address": "0xeeeeeeeeeeeeeeeeeeeeeeeeeeeeeeeeeeeeeeee",
                        "amount": "5",
                        "iconUrl": "https://assets.blocksec.com/image/1663669189317-3.png",
                        "isERC1155": false,
                        "isERC721": false,
                        "sign": true,
                        "value": "3112.65"
                    },
                    {
                        "address": "0x111111111117dc0aa78b770fa6a738034120c302",
                        "amount": "1,453.970937156044835079",
                        "iconUrl": "https://assets.blocksec.com/icon/ca85cbb46dd840dad943ce8d71a6933f6860da2d672e673851deb5beb229ca96.png",
                        "isERC1155": false,
                        "isERC721": false,
                        "sign": false,
                        "value": ""
                    }
                ]
            }
        ]
    },
    "profile": {
        "basic_info": {
            "baseFee": "",
            "blockNumber": 11526284,
            "callData": "0x90411a32000000000000000000000000d47140f6ab73f6d6b6675fb1610bb5e9b5d96fe5000000000000000000000000000000000000000000000000000000000000006000000000000000000000000000000000000000000000000000000000000001c0000000000000000000000000eeeeeeeeeeeeeeeeeeeeeeeeeeeeeeeeeeeeeeee000000000000000000000000111111111117dc0aa78b770fa6a738034120c302000000000000000000000000d47140f6ab73f6d6b6675fb1610bb5e9b5d96fe5000000000000000000000000e1691c5069f811782324ea5e7f54ccfaa216a6860000000000000000000000000000000000000000000000004563918244f4000000000000000000000000000000000000000000000000004c6e9db340ae88bb0900000000000000000000000000000000000000000000004ecbc4e305fb30969800000000000000000000000000000000000000000000000000000000000000000000000000000000000000000000000000000000000000000000000000000000000000000000000000000000000000000000000000000000000000000000014000000000000000000000000000000000000000000000000000000000000000000000000000000000000000000000000000000000000000000000000000000002000000000000000000000000000000000000000000000000000000000000004000000000000000000000000000000000000000000000000000000000000001c0800000000000000000000000812b40c2ca7fabbac756475593fc8b1c313434fa00000000000000000000000000000000000000000000000000000000000000000000000000000000000000000000000000000000000000004563918244f40000000000000000000000000000000000000000000000000000000000000000008000000000000000000000000000000000000000000000000000000000000000c4e331d0390000000000000000000000000000000000000000000000000000000000000000000000000000000000000000111111111117dc0aa78b770fa6a738034120c3020000000000000000000000000000000000000000000000004563918244f40000000000000000000000000000000000000000000000000000000000000000000100000000000000000000000068a17b587caf4f9329f0e372e3a78d23a46de6b5000000000000000000000000e1691c5069f811782324ea5e7f54ccfaa216a68600000000000000000000000000000000000000000000000000000000000000000000000000000000000000000000000000000000000000000000000000000000000000000000000000000000000000000000000000000000000000000000000000000000000000000000000000000000000000000000000000000000000000000000000000000000000000000000000000000000000000000000008000000000000000000000000000000000000000000000000000000000000002647f8fe7a000000000000000000000000000000000000000000000000000000000000000808000000000000000000000000000000000000000000000000000000000000044000000000000000000000000d47140f6ab73f6d6b6675fb1610bb5e9b5d96fe500000000000000000000000000000000000000000000000000000000000001e0000000000000000000000000000000000000000000000000000000000000000000000000000000000000000000000000000000000000000000000000000000000000000000000000000000000000000000000000000000000000000000000000000000000000000000000000000000000000000000000000000000000000008000000000000000000000000000000000000000000000000000000000000000a405971224000000000000000000000000111111111117dc0aa78b770fa6a738034120c30200000000000000000000000000000000000000000000000000000000000000000000000000000000000000000000000000000000000000000000000000000001000000000000000000000000000000010000000000000000000000000000000100000000000000000000000000000000000000000000000032bb074559ad7eaf00000000000000000000000000000000000000000000000000000000000000000000000000000000000000000000000000000000000000000000004470bdb947000000000000000000000000111111111117dc0aa78b770fa6a738034120c30200000000000000000000000000000000000000000000004ecbc4e305fb3096980000000000000000000000000000000000000000000000000000000000000000000000000000000000000000000000000000000000000000",
            "debugEnable": true,
            "errorInfo": "",
            "eventCount": 6,
            "feeRecipient": "0x5a0b54d5dc17e0aadc383d2db43b0a0d3e029c4c",
            "formatValue": "5",
            "gasLimit": 315815,
            "gasPrice": "79",
            "gasUsed": 229737,
            "intTxnCount": 15,
            "internalRevert": false,
            "internalRevertMessage": "",
            "isContractCreation": false,
            "isFlashloan": false,
            "maxFee": "",
            "nonce": 5,
            "overwritedBlockNumber": -1,
            "priorityFee": "",
            "receiver": "0x111111125434b319222cdbf8c261674adb56f3ae",
            "revertMessage": "",
            "sender": "0xe1691c5069f811782324ea5e7f54ccfaa216a686",
            "simulationEnable": true,
            "sourceTxnHash": "0x6fd3e1d81f93159cab79ba0abbbd118076047eef09a7e75153a4b637116b22a3",
            "status": true,
            "timestamp": "2020-12-26T01:28:07Z",
            "transactionFee": "0.018149223",
            "txnHash": "0x6fd3e1d81f93159cab79ba0abbbd118076047eef09a7e75153a4b637116b22a3",
            "txnIndex": 36,
            "type": 0,
            "value": "5000000000000000000"
        },
        "fund_flow": [
            {
                "amount": "5",
                "from": "0xe1691c5069f811782324ea5e7f54ccfaa216a686",
                "id": 1,
                "isERC1155": false,
                "isERC721": false,
                "isReverted": false,
                "order": 1,
                "to": "0x111111125434b319222cdbf8c261674adb56f3ae",
                "token": "0xeeeeeeeeeeeeeeeeeeeeeeeeeeeeeeeeeeeeeeee"
            },
            {
                "amount": "5",
                "from": "0x111111125434b319222cdbf8c261674adb56f3ae",
                "id": 2,
                "isERC1155": false,
                "isERC721": false,
                "isReverted": false,
                "order": 2,
                "to": "0xd47140f6ab73f6d6b6675fb1610bb5e9b5d96fe5",
                "token": "0xeeeeeeeeeeeeeeeeeeeeeeeeeeeeeeeeeeeeeeee"
            },
            {
                "amount": "5",
                "from": "0xd47140f6ab73f6d6b6675fb1610bb5e9b5d96fe5",
                "id": 3,
                "isERC1155": false,
                "isERC721": false,
                "isReverted": false,
                "order": 3,
                "to": "0x812b40c2ca7fabbac756475593fc8b1c313434fa",
                "token": "0xeeeeeeeeeeeeeeeeeeeeeeeeeeeeeeeeeeeeeeee"
            },
            {
                "amount": "1,453.970937156044835079",
                "from": "0x812b40c2ca7fabbac756475593fc8b1c313434fa",
                "id": 4,
                "isERC1155": false,
                "isERC721": false,
                "isReverted": false,
                "order": 4,
                "to": "0xe1691c5069f811782324ea5e7f54ccfaa216a686",
                "token": "0x111111111117dc0aa78b770fa6a738034120c302"
            },
            {
                "amount": "0.033477030795916826",
                "from": "0x0000000000000000000000000000000000000000",
                "id": 5,
                "isERC1155": false,
                "isERC721": false,
                "isReverted": false,
                "order": 5,
                "to": "0x735247fb0a604c0adc6cab38ace16d0dba31295f",
                "token": "0x812b40c2ca7fabbac756475593fc8b1c313434fa"
            },
            {
                "amount": "0.028373900479990946",
                "from": "0x0000000000000000000000000000000000000000",
                "id": 6,
                "isERC1155": false,
                "isERC721": false,
                "isReverted": false,
                "order": 6,
                "to": "0x4dfa40fdaa7694676899f8887a45603922609af4",
                "token": "0x812b40c2ca7fabbac756475593fc8b1c313434fa"
            }
        ],
        "token_infos": [
            {
                "address": "0x111111111117dc0aa78b770fa6a738034120c302",
                "decimals": 18
            },
            {
                "address": "0x812b40c2ca7fabbac756475593fc8b1c313434fa",
                "decimals": 18
            },
            {
                "address": "0xc02aaa39b223fe8d0a0e5c4f27ead9083c756cc2",
                "decimals": 18
            },
            {
                "address": "0xeeeeeeeeeeeeeeeeeeeeeeeeeeeeeeeeeeeeeeee",
                "decimals": 18
            }
        ]
    },
    "address_label": {
        "labels": [
            {
                "address": "0xd47140f6ab73f6d6b6675fb1610bb5e9b5d96fe5",
                "label": "1inch: Old Router V2"
            },
            {
                "address": "0x111111111117dc0aa78b770fa6a738034120c302",
                "label": "1inch: 1INCH Token"
            },
            {
                "address": "0xc4a8b7e29e3c8ec560cd4945c1cf3461a85a148d",
                "label": "MooniswapFactory"
            },
            {
                "address": "0x735247fb0a604c0adc6cab38ace16d0dba31295f",
                "label": "ReferralFeeReceiver"
            },
            {
                "address": "0x0000000000000000000000000000000000000001",
                "label": "Precompiled"
            },
            {
                "address": "0x0000000000000000000000000000000000000002",
                "label": "Precompiled"
            },
            {
                "address": "0xeeeeeeeeeeeeeeeeeeeeeeeeeeeeeeeeeeeeeeee",
                "label": "Ether"
            },
            {
                "address": "0x812b40c2ca7fabbac756475593fc8b1c313434fa",
                "label": "1inch Liquidity Pool (ETH-1INCH) (1LP-ETH-1...)"
            },
            {
                "address": "0x0000000000000000000000000000000000000000",
                "label": "Null Address"
            },
            {
                "address": "0x111111125434b319222cdbf8c261674adb56f3ae",
                "label": "1inch v2: Aggregation Router"
            },
            {
                "address": "0x0000000000000000000000000000000000000003",
                "label": "Precompiled"
            },
            {
                "address": "0x0000000000000000000000000000000000000004",
                "label": "Precompiled"
            }
        ]
    },
    "trace": {
        "accountLabels": null,
        "dataMap": {
            "-1": {
                "invocation": {
                    "address": "0xe1691c5069f811782324ea5e7f54ccfaa216a686",
                    "callData": "",
                    "decodedMethod": null,
                    "errorInfo": "",
                    "fromAddress": "",
                    "gasUsed": 0,
                    "id": -1,
                    "methodDecoded": false,
                    "operation": "",
                    "output": "",
                    "revert": false,
                    "revertMessage": "",
                    "selector": "",
                    "status": false,
                    "value": ""
                },
                "nodeType": 0
            },
            "0": {
                "invocation": {
                    "address": "0x111111125434b319222cdbf8c261674adb56f3ae",
                    "callData": "0x000000000000000000000000d47140f6ab73f6d6b6675fb1610bb5e9b5d96fe5000000000000000000000000000000000000000000000000000000000000006000000000000000000000000000000000000000000000000000000000000001c0000000000000000000000000eeeeeeeeeeeeeeeeeeeeeeeeeeeeeeeeeeeeeeee000000000000000000000000111111111117dc0aa78b770fa6a738034120c302000000000000000000000000d47140f6ab73f6d6b6675fb1610bb5e9b5d96fe5000000000000000000000000e1691c5069f811782324ea5e7f54ccfaa216a6860000000000000000000000000000000000000000000000004563918244f4000000000000000000000000000000000000000000000000004c6e9db340ae88bb0900000000000000000000000000000000000000000000004ecbc4e305fb30969800000000000000000000000000000000000000000000000000000000000000000000000000000000000000000000000000000000000000000000000000000000000000000000000000000000000000000000000000000000000000000000014000000000000000000000000000000000000000000000000000000000000000000000000000000000000000000000000000000000000000000000000000000002000000000000000000000000000000000000000000000000000000000000004000000000000000000000000000000000000000000000000000000000000001c0800000000000000000000000812b40c2ca7fabbac756475593fc8b1c313434fa00000000000000000000000000000000000000000000000000000000000000000000000000000000000000000000000000000000000000004563918244f40000000000000000000000000000000000000000000000000000000000000000008000000000000000000000000000000000000000000000000000000000000000c4e331d0390000000000000000000000000000000000000000000000000000000000000000000000000000000000000000111111111117dc0aa78b770fa6a738034120c3020000000000000000000000000000000000000000000000004563918244f40000000000000000000000000000000000000000000000000000000000000000000100000000000000000000000068a17b587caf4f9329f0e372e3a78d23a46de6b5000000000000000000000000e1691c5069f811782324ea5e7f54ccfaa216a68600000000000000000000000000000000000000000000000000000000000000000000000000000000000000000000000000000000000000000000000000000000000000000000000000000000000000000000000000000000000000000000000000000000000000000000000000000000000000000000000000000000000000000000000000000000000000000000000000000000000000000000008000000000000000000000000000000000000000000000000000000000000002647f8fe7a000000000000000000000000000000000000000000000000000000000000000808000000000000000000000000000000000000000000000000000000000000044000000000000000000000000d47140f6ab73f6d6b6675fb1610bb5e9b5d96fe500000000000000000000000000000000000000000000000000000000000001e0000000000000000000000000000000000000000000000000000000000000000000000000000000000000000000000000000000000000000000000000000000000000000000000000000000000000000000000000000000000000000000000000000000000000000000000000000000000000000000000000000000000000008000000000000000000000000000000000000000000000000000000000000000a405971224000000000000000000000000111111111117dc0aa78b770fa6a738034120c30200000000000000000000000000000000000000000000000000000000000000000000000000000000000000000000000000000000000000000000000000000001000000000000000000000000000000010000000000000000000000000000000100000000000000000000000000000000000000000000000032bb074559ad7eaf00000000000000000000000000000000000000000000000000000000000000000000000000000000000000000000000000000000000000000000004470bdb947000000000000000000000000111111111117dc0aa78b770fa6a738034120c30200000000000000000000000000000000000000000000004ecbc4e305fb3096980000000000000000000000000000000000000000000000000000000000000000000000000000000000000000000000000000000000000000",
                    "decodedMethod": {
                        "callParams": [
                            {
                                "name": "caller",
                                "type": "address",
                                "value": "0xd47140f6ab73f6d6b6675fb1610bb5e9b5d96fe5"
                            },
                            {
                                "name": "desc",
                                "type": "(address,address,address,address,uint256,uint256,uint256,uint256,address,bytes)",
                                "value": [
                                    {
                                        "name": "srcToken",
                                        "type": "address",
                                        "value": "0xeeeeeeeeeeeeeeeeeeeeeeeeeeeeeeeeeeeeeeee"
                                    },
                                    {
                                        "name": "dstToken",
                                        "type": "address",
                                        "value": "0x111111111117dc0aa78b770fa6a738034120c302"
                                    },
                                    {
                                        "name": "srcReceiver",
                                        "type": "address",
                                        "value": "0xd47140f6ab73f6d6b6675fb1610bb5e9b5d96fe5"
                                    },
                                    {
                                        "name": "dstReceiver",
                                        "type": "address",
                                        "value": "0xe1691c5069f811782324ea5e7f54ccfaa216a686"
                                    },
                                    {
                                        "name": "amount",
                                        "type": "uint256",
                                        "value": "5,000,000,000,000,000,000"
                                    },
                                    {
                                        "name": "minReturnAmount",
                                        "type": "uint256",
                                        "value": "1,409,923,273,607,829,043,977"
                                    },
                                    {
                                        "name": "guaranteedAmount",
                                        "type": "uint256",
                                        "value": "1,453,529,148,049,308,292,760"
                                    },
                                    {
                                        "name": "flags",
                                        "type": "uint256",
                                        "value": "0"
                                    },
                                    {
                                        "name": "referrer",
                                        "type": "address",
                                        "value": "0x0000000000000000000000000000000000000000"
                                    },
                                    {
                                        "name": "permit",
                                        "type": "bytes",
                                        "value": "0x"
                                    }
                                ]
                            },
                            {
                                "name": "calls",
                                "type": "(uint256,uint256,uint256,bytes)[]",
                                "value": [
                                    [
                                        {
                                            "name": "targetWithMandatory",
                                            "type": "uint256",
                                            "value": "57,896,044,618,658,097,711,785,492,505,081,378,309,585,050,223,499,050,114,640,490,672,084,099,544,314"
                                        },
                                        {
                                            "name": "gasLimit",
                                            "type": "uint256",
                                            "value": "0"
                                        },
                                        {
                                            "name": "value",
                                            "type": "uint256",
                                            "value": "5,000,000,000,000,000,000"
                                        },
                                        {
                                            "name": "data",
                                            "type": "bytes",
                                            "value": "0xe331d0390000000000000000000000000000000000000000000000000000000000000000000000000000000000000000111111111117dc0aa78b770fa6a738034120c3020000000000000000000000000000000000000000000000004563918244f40000000000000000000000000000000000000000000000000000000000000000000100000000000000000000000068a17b587caf4f9329f0e372e3a78d23a46de6b5000000000000000000000000e1691c5069f811782324ea5e7f54ccfaa216a686"
                                        }
                                    ],
                                    [
                                        {
                                            "name": "targetWithMandatory",
                                            "type": "uint256",
                                            "value": "0"
                                        },
                                        {
                                            "name": "gasLimit",
                                            "type": "uint256",
                                            "value": "0"
                                        },
                                        {
                                            "name": "value",
                                            "type": "uint256",
                                            "value": "0"
                                        },
                                        {
                                            "name": "data",
                                            "type": "bytes",
                                            "value": "0x7f8fe7a000000000000000000000000000000000000000000000000000000000000000808000000000000000000000000000000000000000000000000000000000000044000000000000000000000000d47140f6ab73f6d6b6675fb1610bb5e9b5d96fe500000000000000000000000000000000000000000000000000000000000001e0000000000000000000000000000000000000000000000000000000000000000000000000000000000000000000000000000000000000000000000000000000000000000000000000000000000000000000000000000000000000000000000000000000000000000000000000000000000000000000000000000000000000008000000000000000000000000000000000000000000000000000000000000000a405971224000000000000000000000000111111111117dc0aa78b770fa6a738034120c30200000000000000000000000000000000000000000000000000000000000000000000000000000000000000000000000000000000000000000000000000000001000000000000000000000000000000010000000000000000000000000000000100000000000000000000000000000000000000000000000032bb074559ad7eaf00000000000000000000000000000000000000000000000000000000000000000000000000000000000000000000000000000000000000000000004470bdb947000000000000000000000000111111111117dc0aa78b770fa6a738034120c30200000000000000000000000000000000000000000000004ecbc4e305fb30969800000000000000000000000000000000000000000000000000000000"
                                        }
                                    ]
                                ]
                            }
                        ],
                        "constructorArguments": "",
                        "name": "swap",
                        "returnParams": [
                            {
                                "name": "returnAmount",
                                "type": "uint256",
                                "value": "1,453,970,937,156,044,835,079"
                            }
                        ],
                        "signature": "swap(address,(address,address,address,address,uint256,uint256,uint256,uint256,address,bytes),(uint256,uint256,uint256,bytes)[])"
                    },
                    "errorInfo": "",
                    "fromAddress": "0xe1691c5069f811782324ea5e7f54ccfaa216a686",
                    "gasUsed": 229737,
                    "id": 0,
                    "methodDecoded": true,
                    "operation": "CALL",
                    "output": "0x00000000000000000000000000000000000000000000004ed1e66fe00fdbc907",
                    "revert": false,
                    "revertMessage": "",
                    "selector": "0x90411a32",
                    "status": true,
                    "value": "5"
                },
                "nodeType": 0
            },
            "1": {
                "invocation": {
                    "address": "0x111111111117dc0aa78b770fa6a738034120c302",
                    "callData": "0x000000000000000000000000e1691c5069f811782324ea5e7f54ccfaa216a686",
                    "decodedMethod": {
                        "callParams": [
                            {
                                "name": "account",
                                "type": "address",
                                "value": "0xe1691c5069f811782324ea5e7f54ccfaa216a686"
                            }
                        ],
                        "constructorArguments": "",
                        "name": "balanceOf",
                        "returnParams": [
                            {
                                "decimalAvailable": true,
                                "name": "",
                                "type": "uint256",
                                "value": "7,641,874,377,401,482,275,646"
                            }
                        ],
                        "signature": "balanceOf(address)"
                    },
                    "errorInfo": "",
                    "fromAddress": "0x111111125434b319222cdbf8c261674adb56f3ae",
                    "gasUsed": 1210,
                    "id": 1,
                    "methodDecoded": true,
                    "operation": "STATICCALL",
                    "output": "0x00000000000000000000000000000000000000000000019e444fa1dc66beeb3e",
                    "revert": false,
                    "revertMessage": "",
                    "selector": "0x70a08231",
                    "status": true,
                    "value": "0"
                },
                "nodeType": 0
            },
            "10": {
                "invocation": {
                    "address": "0xc4a8b7e29e3c8ec560cd4945c1cf3461a85a148d",
                    "callData": "0x000000000000000000000000735247fb0a604c0adc6cab38ace16d0dba31295f",
                    "decodedMethod": {
                        "callParams": [
                            {
                                "name": "",
                                "type": "address",
                                "value": "0x735247fb0a604c0adc6cab38ace16d0dba31295f"
                            }
                        ],
                        "constructorArguments": "",
                        "name": "isFeeReceiver",
                        "returnParams": [
                            {
                                "name": "",
                                "type": "bool",
                                "value": true
                            }
                        ],
                        "signature": "isFeeReceiver(address)"
                    },
                    "errorInfo": "",
                    "fromAddress": "0x812b40c2ca7fabbac756475593fc8b1c313434fa",
                    "gasUsed": 1203,
                    "id": 10,
                    "methodDecoded": true,
                    "operation": "STATICCALL",
                    "output": "0x0000000000000000000000000000000000000000000000000000000000000001",
                    "revert": false,
                    "revertMessage": "",
                    "selector": "0xb278110f",
                    "status": true,
                    "value": "0"
                },
                "nodeType": 0
            },
            "11": {
                "event": {
                    "contract": "0x812b40c2ca7fabbac756475593fc8b1c313434fa",
                    "decodedLog": {
                        "name": "Transfer",
                        "params": [
                            {
                                "name": "from",
                                "type": "address",
                                "value": "0x0000000000000000000000000000000000000000"
                            },
                            {
                                "name": "to",
                                "type": "address",
                                "value": "0x735247fb0a604c0adc6cab38ace16d0dba31295f"
                            },
                            {
                                "decimalAvailable": true,
                                "name": "value",
                                "type": "uint256",
                                "value": "33,477,030,795,916,826"
                            }
                        ],
                        "signature": "Transfer(address,address,uint256)"
                    },
                    "id": 11,
                    "logData": "0x0000000000000000000000000000000000000000000000000076ef2ea0b9b61a",
                    "logDecoded": true,
                    "operation": "EVENT",
                    "revert": false,
                    "status": true,
                    "topics": [
                        "0xddf252ad1be2c89b69c2b068fc378daa952ba7f163c4a11628f55a4df523b3ef",
                        "0x0000000000000000000000000000000000000000000000000000000000000000",
                        "0x000000000000000000000000735247fb0a604c0adc6cab38ace16d0dba31295f"
                    ]
                },
                "nodeType": 1
            },
            "12": {
                "invocation": {
                    "address": "0x735247fb0a604c0adc6cab38ace16d0dba31295f",
                    "callData": "0x00000000000000000000000068a17b587caf4f9329f0e372e3a78d23a46de6b50000000000000000000000000000000000000000000000000076ef2ea0b9b61a",
                    "decodedMethod": {
                        "callParams": [
                            {
                                "name": "referral",
                                "type": "address",
                                "value": "0x68a17b587caf4f9329f0e372e3a78d23a46de6b5"
                            },
                            {
                                "name": "amount",
                                "type": "uint256",
                                "value": "33,477,030,795,916,826"
                            }
                        ],
                        "constructorArguments": "",
                        "name": "updateReward",
                        "returnParams": [],
                        "signature": "updateReward(address,uint256)"
                    },
                    "errorInfo": "",
                    "fromAddress": "0x812b40c2ca7fabbac756475593fc8b1c313434fa",
                    "gasUsed": 17381,
                    "id": 12,
                    "methodDecoded": true,
                    "operation": "CALL",
                    "output": "",
                    "revert": false,
                    "revertMessage": "",
                    "selector": "0x1a399125",
                    "status": true,
                    "value": "0"
                },
                "nodeType": 0
            },
            "13": {
                "invocation": {
                    "address": "0xc4a8b7e29e3c8ec560cd4945c1cf3461a85a148d",
                    "callData": "0x0000000000000000000000004dfa40fdaa7694676899f8887a45603922609af4",
                    "decodedMethod": {
                        "callParams": [
                            {
                                "name": "",
                                "type": "address",
                                "value": "0x4dfa40fdaa7694676899f8887a45603922609af4"
                            }
                        ],
                        "constructorArguments": "",
                        "name": "isFeeReceiver",
                        "returnParams": [
                            {
                                "name": "",
                                "type": "bool",
                                "value": true
                            }
                        ],
                        "signature": "isFeeReceiver(address)"
                    },
                    "errorInfo": "",
                    "fromAddress": "0x812b40c2ca7fabbac756475593fc8b1c313434fa",
                    "gasUsed": 1203,
                    "id": 13,
                    "methodDecoded": true,
                    "operation": "STATICCALL",
                    "output": "0x0000000000000000000000000000000000000000000000000000000000000001",
                    "revert": false,
                    "revertMessage": "",
                    "selector": "0xb278110f",
                    "status": true,
                    "value": "0"
                },
                "nodeType": 0
            },
            "14": {
                "event": {
                    "contract": "0x812b40c2ca7fabbac756475593fc8b1c313434fa",
                    "decodedLog": {
                        "name": "Transfer",
                        "params": [
                            {
                                "name": "from",
                                "type": "address",
                                "value": "0x0000000000000000000000000000000000000000"
                            },
                            {
                                "name": "to",
                                "type": "address",
                                "value": "0x4dfa40fdaa7694676899f8887a45603922609af4"
                            },
                            {
                                "decimalAvailable": true,
                                "name": "value",
                                "type": "uint256",
                                "value": "28,373,900,479,990,946"
                            }
                        ],
                        "signature": "Transfer(address,address,uint256)"
                    },
                    "id": 14,
                    "logData": "0x0000000000000000000000000000000000000000000000000064cde983008ca2",
                    "logDecoded": true,
                    "operation": "EVENT",
                    "revert": false,
                    "status": true,
                    "topics": [
                        "0xddf252ad1be2c89b69c2b068fc378daa952ba7f163c4a11628f55a4df523b3ef",
                        "0x0000000000000000000000000000000000000000000000000000000000000000",
                        "0x0000000000000000000000004dfa40fdaa7694676899f8887a45603922609af4"
                    ]
                },
                "nodeType": 1
            },
            "15": {
                "event": {
                    "contract": "0x812b40c2ca7fabbac756475593fc8b1c313434fa",
                    "decodedLog": {
                        "name": "Sync",
                        "params": [
                            {
                                "name": "srcBalance",
                                "type": "uint256",
                                "value": "13,868,053,334,326,187,114,356"
                            },
                            {
                                "name": "dstBalance",
                                "type": "uint256",
                                "value": "4,038,455,766,398,084,699,325,905"
                            },
                            {
                                "name": "fee",
                                "type": "uint256",
                                "value": "450,460,759,618,540"
                            },
                            {
                                "name": "slippageFee",
                                "type": "uint256",
                                "value": "949,932,742,501,030,261"
                            },
                            {
                                "name": "referralShare",
                                "type": "uint256",
                                "value": "33,477,030,795,916,826"
                            },
                            {
                                "name": "governanceShare",
                                "type": "uint256",
                                "value": "28,373,900,479,990,946"
                            }
                        ],
                        "signature": "Sync(uint256,uint256,uint256,uint256,uint256,uint256)"
                    },
                    "id": 15,
                    "logData": "0x0000000000000000000000000000000000000000000002efc9e6c7795be7bf7400000000000000000000000000000000000000000003572d203283636d8705d1000000000000000000000000000000000000000000000000000199b1118ff3ec0000000000000000000000000000000000000000000000000d2ed6cbdd4959750000000000000000000000000000000000000000000000000076ef2ea0b9b61a0000000000000000000000000000000000000000000000000064cde983008ca2",
                    "logDecoded": true,
                    "operation": "EVENT",
                    "revert": false,
                    "status": true,
                    "topics": [
                        "0x2a368c7f33bb86e2d999940a3989d849031aff29b750f67947e6b8e8c3d2ffd6"
                    ]
                },
                "nodeType": 1
            },
            "16": {
                "invocation": {
                    "address": "0xd47140f6ab73f6d6b6675fb1610bb5e9b5d96fe5",
                    "callData": "0x00000000000000000000000000000000000000000000000000000000000000808000000000000000000000000000000000000000000000000000000000000044000000000000000000000000d47140f6ab73f6d6b6675fb1610bb5e9b5d96fe500000000000000000000000000000000000000000000000000000000000001e0000000000000000000000000000000000000000000000000000000000000000000000000000000000000000000000000000000000000000000000000000000000000000000000000000000000000000000000000000000000000000000000000000000000000000000000000000000000000000000000000000000000000008000000000000000000000000000000000000000000000000000000000000000a405971224000000000000000000000000111111111117dc0aa78b770fa6a738034120c30200000000000000000000000000000000000000000000000000000000000000000000000000000000000000000000000000000000000000000000000000000001000000000000000000000000000000010000000000000000000000000000000100000000000000000000000000000000000000000000000032bb074559ad7eaf00000000000000000000000000000000000000000000000000000000000000000000000000000000000000000000000000000000000000000000004470bdb947000000000000000000000000111111111117dc0aa78b770fa6a738034120c30200000000000000000000000000000000000000000000004ecbc4e305fb30969800000000000000000000000000000000000000000000000000000000",
                    "decodedMethod": null,
                    "errorInfo": "",
                    "fromAddress": "0xd47140f6ab73f6d6b6675fb1610bb5e9b5d96fe5",
                    "gasUsed": 8648,
                    "id": 16,
                    "methodDecoded": false,
                    "operation": "CALL",
                    "output": "",
                    "revert": false,
                    "revertMessage": "",
                    "selector": "0x7f8fe7a0",
                    "status": true,
                    "value": "0"
                },
                "nodeType": 0
            },
            "17": {
                "invocation": {
                    "address": "0xd47140f6ab73f6d6b6675fb1610bb5e9b5d96fe5",
                    "callData": "0x000000000000000000000000111111111117dc0aa78b770fa6a738034120c30200000000000000000000000000000000000000000000004ecbc4e305fb309698",
                    "decodedMethod": null,
                    "errorInfo": "",
                    "fromAddress": "0xd47140f6ab73f6d6b6675fb1610bb5e9b5d96fe5",
                    "gasUsed": 3601,
                    "id": 17,
                    "methodDecoded": false,
                    "operation": "STATICCALL",
                    "output": "0x0000000000000000000000000000000000000000000000000000000000000000",
                    "revert": false,
                    "revertMessage": "",
                    "selector": "0x70bdb947",
                    "status": true,
                    "value": "0"
                },
                "nodeType": 0
            },
            "18": {
                "invocation": {
                    "address": "0x111111111117dc0aa78b770fa6a738034120c302",
                    "callData": "0x000000000000000000000000d47140f6ab73f6d6b6675fb1610bb5e9b5d96fe5",
                    "decodedMethod": {
                        "callParams": [
                            {
                                "name": "account",
                                "type": "address",
                                "value": "0xd47140f6ab73f6d6b6675fb1610bb5e9b5d96fe5"
                            }
                        ],
                        "constructorArguments": "",
                        "name": "balanceOf",
                        "returnParams": [
                            {
                                "decimalAvailable": true,
                                "name": "",
                                "type": "uint256",
                                "value": "0"
                            }
                        ],
                        "signature": "balanceOf(address)"
                    },
                    "errorInfo": "",
                    "fromAddress": "0xd47140f6ab73f6d6b6675fb1610bb5e9b5d96fe5",
                    "gasUsed": 1210,
                    "id": 18,
                    "methodDecoded": true,
                    "operation": "STATICCALL",
                    "output": "0x0000000000000000000000000000000000000000000000000000000000000000",
                    "revert": false,
                    "revertMessage": "",
                    "selector": "0x70a08231",
                    "status": true,
                    "value": "0"
                },
                "nodeType": 0
            },
            "19": {
                "invocation": {
                    "address": "0xd47140f6ab73f6d6b6675fb1610bb5e9b5d96fe5",
                    "callData": "0x000000000000000000000000111111111117dc0aa78b770fa6a738034120c30200000000000000000000000000000000000000000000000000000000000000000000000000000000000000000000000000000000000000000000000000000000000000000000000000000000000000010000000000000000000000000000000100000000000000000000000000000000000000000000000032bb074559ad7eaf",
                    "decodedMethod": null,
                    "errorInfo": "",
                    "fromAddress": "0xd47140f6ab73f6d6b6675fb1610bb5e9b5d96fe5",
                    "gasUsed": 755,
                    "id": 19,
                    "methodDecoded": false,
                    "operation": "CALL",
                    "output": "",
                    "revert": false,
                    "revertMessage": "",
                    "selector": "0x05971224",
                    "status": true,
                    "value": "0"
                },
                "nodeType": 0
            },
            "2": {
                "invocation": {
                    "address": "0xd47140f6ab73f6d6b6675fb1610bb5e9b5d96fe5",
                    "callData": "0x00000000000000000000000000000000000000000000000000000000000000200000000000000000000000000000000000000000000000000000000000000002000000000000000000000000000000000000000000000000000000000000004000000000000000000000000000000000000000000000000000000000000001c0800000000000000000000000812b40c2ca7fabbac756475593fc8b1c313434fa00000000000000000000000000000000000000000000000000000000000000000000000000000000000000000000000000000000000000004563918244f40000000000000000000000000000000000000000000000000000000000000000008000000000000000000000000000000000000000000000000000000000000000c4e331d0390000000000000000000000000000000000000000000000000000000000000000000000000000000000000000111111111117dc0aa78b770fa6a738034120c3020000000000000000000000000000000000000000000000004563918244f40000000000000000000000000000000000000000000000000000000000000000000100000000000000000000000068a17b587caf4f9329f0e372e3a78d23a46de6b5000000000000000000000000e1691c5069f811782324ea5e7f54ccfaa216a68600000000000000000000000000000000000000000000000000000000000000000000000000000000000000000000000000000000000000000000000000000000000000000000000000000000000000000000000000000000000000000000000000000000000000000000000000000000000000000000000000000000000000000000000000000000000000000000000000000000000000000000008000000000000000000000000000000000000000000000000000000000000002647f8fe7a000000000000000000000000000000000000000000000000000000000000000808000000000000000000000000000000000000000000000000000000000000044000000000000000000000000d47140f6ab73f6d6b6675fb1610bb5e9b5d96fe500000000000000000000000000000000000000000000000000000000000001e0000000000000000000000000000000000000000000000000000000000000000000000000000000000000000000000000000000000000000000000000000000000000000000000000000000000000000000000000000000000000000000000000000000000000000000000000000000000000000000000000000000000000008000000000000000000000000000000000000000000000000000000000000000a405971224000000000000000000000000111111111117dc0aa78b770fa6a738034120c30200000000000000000000000000000000000000000000000000000000000000000000000000000000000000000000000000000000000000000000000000000001000000000000000000000000000000010000000000000000000000000000000100000000000000000000000000000000000000000000000032bb074559ad7eaf00000000000000000000000000000000000000000000000000000000000000000000000000000000000000000000000000000000000000000000004470bdb947000000000000000000000000111111111117dc0aa78b770fa6a738034120c30200000000000000000000000000000000000000000000004ecbc4e305fb3096980000000000000000000000000000000000000000000000000000000000000000000000000000000000000000000000000000000000000000",
                    "decodedMethod": {
                        "callParams": [
                            {
                                "name": "desc",
                                "type": "(uint256,uint256,uint256,bytes)[]",
                                "value": [
                                    [
                                        {
                                            "name": "target",
                                            "type": "uint256",
                                            "value": "57,896,044,618,658,097,711,785,492,505,081,378,309,585,050,223,499,050,114,640,490,672,084,099,544,314"
                                        },
                                        {
                                            "name": "gasLimit",
                                            "type": "uint256",
                                            "value": "0"
                                        },
                                        {
                                            "name": "value",
                                            "type": "uint256",
                                            "value": "5,000,000,000,000,000,000"
                                        },
                                        {
                                            "name": "data",
                                            "type": "bytes",
                                            "value": "0xe331d0390000000000000000000000000000000000000000000000000000000000000000000000000000000000000000111111111117dc0aa78b770fa6a738034120c3020000000000000000000000000000000000000000000000004563918244f40000000000000000000000000000000000000000000000000000000000000000000100000000000000000000000068a17b587caf4f9329f0e372e3a78d23a46de6b5000000000000000000000000e1691c5069f811782324ea5e7f54ccfaa216a686"
                                        }
                                    ],
                                    [
                                        {
                                            "name": "target",
                                            "type": "uint256",
                                            "value": "0"
                                        },
                                        {
                                            "name": "gasLimit",
                                            "type": "uint256",
                                            "value": "0"
                                        },
                                        {
                                            "name": "value",
                                            "type": "uint256",
                                            "value": "0"
                                        },
                                        {
                                            "name": "data",
                                            "type": "bytes",
                                            "value": "0x7f8fe7a000000000000000000000000000000000000000000000000000000000000000808000000000000000000000000000000000000000000000000000000000000044000000000000000000000000d47140f6ab73f6d6b6675fb1610bb5e9b5d96fe500000000000000000000000000000000000000000000000000000000000001e0000000000000000000000000000000000000000000000000000000000000000000000000000000000000000000000000000000000000000000000000000000000000000000000000000000000000000000000000000000000000000000000000000000000000000000000000000000000000000000000000000000000000008000000000000000000000000000000000000000000000000000000000000000a405971224000000000000000000000000111111111117dc0aa78b770fa6a738034120c30200000000000000000000000000000000000000000000000000000000000000000000000000000000000000000000000000000000000000000000000000000001000000000000000000000000000000010000000000000000000000000000000100000000000000000000000000000000000000000000000032bb074559ad7eaf00000000000000000000000000000000000000000000000000000000000000000000000000000000000000000000000000000000000000000000004470bdb947000000000000000000000000111111111117dc0aa78b770fa6a738034120c30200000000000000000000000000000000000000000000004ecbc4e305fb30969800000000000000000000000000000000000000000000000000000000"
                                        }
                                    ]
                                ]
                            }
                        ],
                        "constructorArguments": "",
                        "name": "makeCalls",
                        "returnParams": [],
                        "signature": "makeCalls((uint256,uint256,uint256,bytes)[])"
                    },
                    "errorInfo": "",
                    "fromAddress": "0x111111125434b319222cdbf8c261674adb56f3ae",
                    "gasUsed": 179060,
                    "id": 2,
                    "methodDecoded": true,
                    "operation": "CALL",
                    "output": "",
                    "revert": false,
                    "revertMessage": "",
                    "selector": "0xa8920d2b",
                    "status": true,
                    "value": "5"
                },
                "nodeType": 0
            },
            "20": {
                "invocation": {
                    "address": "0x111111111117dc0aa78b770fa6a738034120c302",
                    "callData": "0x000000000000000000000000e1691c5069f811782324ea5e7f54ccfaa216a686",
                    "decodedMethod": {
                        "callParams": [
                            {
                                "name": "account",
                                "type": "address",
                                "value": "0xe1691c5069f811782324ea5e7f54ccfaa216a686"
                            }
                        ],
                        "constructorArguments": "",
                        "name": "balanceOf",
                        "returnParams": [
                            {
                                "decimalAvailable": true,
                                "name": "",
                                "type": "uint256",
                                "value": "9,095,845,314,557,527,110,725"
                            }
                        ],
                        "signature": "balanceOf(address)"
                    },
                    "errorInfo": "",
                    "fromAddress": "0x111111125434b319222cdbf8c261674adb56f3ae",
                    "gasUsed": 1210,
                    "id": 20,
                    "methodDecoded": true,
                    "operation": "STATICCALL",
                    "output": "0x0000000000000000000000000000000000000000000001ed163611bc769ab445",
                    "revert": false,
                    "revertMessage": "",
                    "selector": "0x70a08231",
                    "status": true,
                    "value": "0"
                },
                "nodeType": 0
            },
            "21": {
                "event": {
                    "contract": "0x111111125434b319222cdbf8c261674adb56f3ae",
                    "decodedLog": {
                        "name": "Swapped",
                        "params": [
                            {
                                "name": "sender",
                                "type": "address",
                                "value": "0xe1691c5069f811782324ea5e7f54ccfaa216a686"
                            },
                            {
                                "name": "srcToken",
                                "type": "address",
                                "value": "0xeeeeeeeeeeeeeeeeeeeeeeeeeeeeeeeeeeeeeeee"
                            },
                            {
                                "name": "dstToken",
                                "type": "address",
                                "value": "0x111111111117dc0aa78b770fa6a738034120c302"
                            },
                            {
                                "name": "dstReceiver",
                                "type": "address",
                                "value": "0xe1691c5069f811782324ea5e7f54ccfaa216a686"
                            },
                            {
                                "name": "amount",
                                "type": "uint256",
                                "value": "5,000,000,000,000,000,000"
                            },
                            {
                                "name": "spentAmount",
                                "type": "uint256",
                                "value": "5,000,000,000,000,000,000"
                            },
                            {
                                "name": "returnAmount",
                                "type": "uint256",
                                "value": "1,453,970,937,156,044,835,079"
                            },
                            {
                                "name": "minReturnAmount",
                                "type": "uint256",
                                "value": "1,409,923,273,607,829,043,977"
                            },
                            {
                                "name": "guaranteedAmount",
                                "type": "uint256",
                                "value": "1,453,529,148,049,308,292,760"
                            },
                            {
                                "name": "referrer",
                                "type": "address",
                                "value": "0x0000000000000000000000000000000000000000"
                            }
                        ],
                        "signature": "Swapped(address,address,address,address,uint256,uint256,uint256,uint256,uint256,address)"
                    },
                    "id": 21,
                    "logData": "0x000000000000000000000000e1691c5069f811782324ea5e7f54ccfaa216a6860000000000000000000000000000000000000000000000004563918244f400000000000000000000000000000000000000000000000000004563918244f4000000000000000000000000000000000000000000000000004ed1e66fe00fdbc90700000000000000000000000000000000000000000000004c6e9db340ae88bb0900000000000000000000000000000000000000000000004ecbc4e305fb3096980000000000000000000000000000000000000000000000000000000000000000",
                    "logDecoded": true,
                    "operation": "EVENT",
                    "revert": false,
                    "status": true,
                    "topics": [
                        "0x76af224a143865a50b41496e1a73622698692c565c1214bc862f18e22d829c5e",
                        "0x000000000000000000000000e1691c5069f811782324ea5e7f54ccfaa216a686",
                        "0x000000000000000000000000eeeeeeeeeeeeeeeeeeeeeeeeeeeeeeeeeeeeeeee",
                        "0x000000000000000000000000111111111117dc0aa78b770fa6a738034120c302"
                    ]
                },
                "nodeType": 1
            },
            "3": {
                "invocation": {
                    "address": "0x812b40c2ca7fabbac756475593fc8b1c313434fa",
                    "callData": "0x0000000000000000000000000000000000000000000000000000000000000000000000000000000000000000111111111117dc0aa78b770fa6a738034120c3020000000000000000000000000000000000000000000000004563918244f40000000000000000000000000000000000000000000000000000000000000000000100000000000000000000000068a17b587caf4f9329f0e372e3a78d23a46de6b5000000000000000000000000e1691c5069f811782324ea5e7f54ccfaa216a686",
                    "decodedMethod": {
                        "callParams": [
                            {
                                "name": "src",
                                "type": "address",
                                "value": "0x0000000000000000000000000000000000000000"
                            },
                            {
                                "name": "dst",
                                "type": "address",
                                "value": "0x111111111117dc0aa78b770fa6a738034120c302"
                            },
                            {
                                "name": "amount",
                                "type": "uint256",
                                "value": "5,000,000,000,000,000,000"
                            },
                            {
                                "name": "minReturn",
                                "type": "uint256",
                                "value": "1"
                            },
                            {
                                "name": "referral",
                                "type": "address",
                                "value": "0x68a17b587caf4f9329f0e372e3a78d23a46de6b5"
                            },
                            {
                                "name": "receiver",
                                "type": "address",
                                "value": "0xe1691c5069f811782324ea5e7f54ccfaa216a686"
                            }
                        ],
                        "constructorArguments": "",
                        "name": "swapFor",
                        "returnParams": [
                            {
                                "name": "result",
                                "type": "uint256",
                                "value": "1,453,970,937,156,044,835,079"
                            }
                        ],
                        "signature": "swapFor(address,address,uint256,uint256,address,address)"
                    },
                    "errorInfo": "",
                    "fromAddress": "0xd47140f6ab73f6d6b6675fb1610bb5e9b5d96fe5",
                    "gasUsed": 160084,
                    "id": 3,
                    "methodDecoded": true,
                    "operation": "CALL",
                    "output": "0x00000000000000000000000000000000000000000000004ed1e66fe00fdbc907",
                    "revert": false,
                    "revertMessage": "",
                    "selector": "0xe331d039",
                    "status": true,
                    "value": "5"
                },
                "nodeType": 0
            },
            "4": {
                "invocation": {
                    "address": "0xc4a8b7e29e3c8ec560cd4945c1cf3461a85a148d",
                    "callData": "0x",
                    "decodedMethod": {
                        "callParams": [],
                        "constructorArguments": "",
                        "name": "isActive",
                        "returnParams": [
                            {
                                "name": "",
                                "type": "bool",
                                "value": true
                            }
                        ],
                        "signature": "isActive()"
                    },
                    "errorInfo": "",
                    "fromAddress": "0x812b40c2ca7fabbac756475593fc8b1c313434fa",
                    "gasUsed": 1172,
                    "id": 4,
                    "methodDecoded": true,
                    "operation": "STATICCALL",
                    "output": "0x0000000000000000000000000000000000000000000000000000000000000001",
                    "revert": false,
                    "revertMessage": "",
                    "selector": "0x22f3e2d4",
                    "status": true,
                    "value": "0"
                },
                "nodeType": 0
            },
            "5": {
                "invocation": {
                    "address": "0x111111111117dc0aa78b770fa6a738034120c302",
                    "callData": "0x000000000000000000000000812b40c2ca7fabbac756475593fc8b1c313434fa",
                    "decodedMethod": {
                        "callParams": [
                            {
                                "name": "account",
                                "type": "address",
                                "value": "0x812b40c2ca7fabbac756475593fc8b1c313434fa"
                            }
                        ],
                        "constructorArguments": "",
                        "name": "balanceOf",
                        "returnParams": [
                            {
                                "decimalAvailable": true,
                                "name": "",
                                "type": "uint256",
                                "value": "4,038,455,766,398,084,699,325,905"
                            }
                        ],
                        "signature": "balanceOf(address)"
                    },
                    "errorInfo": "",
                    "fromAddress": "0x812b40c2ca7fabbac756475593fc8b1c313434fa",
                    "gasUsed": 1210,
                    "id": 5,
                    "methodDecoded": true,
                    "operation": "STATICCALL",
                    "output": "0x00000000000000000000000000000000000000000003572d203283636d8705d1",
                    "revert": false,
                    "revertMessage": "",
                    "selector": "0x70a08231",
                    "status": true,
                    "value": "0"
                },
                "nodeType": 0
            },
            "6": {
                "invocation": {
                    "address": "0x111111111117dc0aa78b770fa6a738034120c302",
                    "callData": "0x000000000000000000000000e1691c5069f811782324ea5e7f54ccfaa216a68600000000000000000000000000000000000000000000004ed1e66fe00fdbc907",
                    "decodedMethod": {
                        "callParams": [
                            {
                                "name": "recipient",
                                "type": "address",
                                "value": "0xe1691c5069f811782324ea5e7f54ccfaa216a686"
                            },
                            {
                                "decimalAvailable": true,
                                "name": "amount",
                                "type": "uint256",
                                "value": "1,453,970,937,156,044,835,079"
                            }
                        ],
                        "constructorArguments": "",
                        "name": "transfer",
                        "returnParams": [
                            {
                                "name": "",
                                "type": "bool",
                                "value": true
                            }
                        ],
                        "signature": "transfer(address,uint256)"
                    },
                    "errorInfo": "",
                    "fromAddress": "0x812b40c2ca7fabbac756475593fc8b1c313434fa",
                    "gasUsed": 14474,
                    "id": 6,
                    "methodDecoded": true,
                    "operation": "CALL",
                    "output": "0x0000000000000000000000000000000000000000000000000000000000000001",
                    "revert": false,
                    "revertMessage": "",
                    "selector": "0xa9059cbb",
                    "status": true,
                    "value": "0"
                },
                "nodeType": 0
            },
            "7": {
                "event": {
                    "contract": "0x111111111117dc0aa78b770fa6a738034120c302",
                    "decodedLog": {
                        "name": "Transfer",
                        "params": [
                            {
                                "name": "from",
                                "type": "address",
                                "value": "0x812b40c2ca7fabbac756475593fc8b1c313434fa"
                            },
                            {
                                "name": "to",
                                "type": "address",
                                "value": "0xe1691c5069f811782324ea5e7f54ccfaa216a686"
                            },
                            {
                                "decimalAvailable": true,
                                "name": "value",
                                "type": "uint256",
                                "value": "1,453,970,937,156,044,835,079"
                            }
                        ],
                        "signature": "Transfer(address,address,uint256)"
                    },
                    "id": 7,
                    "logData": "0x00000000000000000000000000000000000000000000004ed1e66fe00fdbc907",
                    "logDecoded": true,
                    "operation": "EVENT",
                    "revert": false,
                    "status": true,
                    "topics": [
                        "0xddf252ad1be2c89b69c2b068fc378daa952ba7f163c4a11628f55a4df523b3ef",
                        "0x000000000000000000000000812b40c2ca7fabbac756475593fc8b1c313434fa",
                        "0x000000000000000000000000e1691c5069f811782324ea5e7f54ccfaa216a686"
                    ]
                },
                "nodeType": 1
            },
            "8": {
                "event": {
                    "contract": "0x812b40c2ca7fabbac756475593fc8b1c313434fa",
                    "decodedLog": {
                        "name": "Swapped",
                        "params": [
                            {
                                "name": "sender",
                                "type": "address",
                                "value": "0xd47140f6ab73f6d6b6675fb1610bb5e9b5d96fe5"
                            },
                            {
                                "name": "receiver",
                                "type": "address",
                                "value": "0xe1691c5069f811782324ea5e7f54ccfaa216a686"
                            },
                            {
                                "name": "srcToken",
                                "type": "address",
                                "value": "0x0000000000000000000000000000000000000000"
                            },
                            {
                                "name": "dstToken",
                                "type": "address",
                                "value": "0x111111111117dc0aa78b770fa6a738034120c302"
                            },
                            {
                                "name": "amount",
                                "type": "uint256",
                                "value": "5,000,000,000,000,000,000"
                            },
                            {
                                "name": "result",
                                "type": "uint256",
                                "value": "1,453,970,937,156,044,835,079"
                            },
                            {
                                "name": "srcAdditionBalance",
                                "type": "uint256",
                                "value": "13,869,863,873,249,549,777,792"
                            },
                            {
                                "name": "dstRemovalBalance",
                                "type": "uint256",
                                "value": "4,037,929,064,353,502,257,894,365"
                            },
                            {
                                "name": "referral",
                                "type": "address",
                                "value": "0x68a17b587caf4f9329f0e372e3a78d23a46de6b5"
                            }
                        ],
                        "signature": "Swapped(address,address,address,address,uint256,uint256,uint256,uint256,address)"
                    },
                    "id": 8,
                    "logData": "0x000000000000000000000000111111111117dc0aa78b770fa6a738034120c3020000000000000000000000000000000000000000000000004563918244f4000000000000000000000000000000000000000000000000004ed1e66fe00fdbc9070000000000000000000000000000000000000000000002efe3071b083ef47b8000000000000000000000000000000000000000000003571092bcf46d7d2653dd00000000000000000000000068a17b587caf4f9329f0e372e3a78d23a46de6b5",
                    "logDecoded": true,
                    "operation": "EVENT",
                    "revert": false,
                    "status": true,
                    "topics": [
                        "0xbd99c6719f088aa0abd9e7b7a4a635d1f931601e9f304b538dc42be25d8c65c6",
                        "0x000000000000000000000000d47140f6ab73f6d6b6675fb1610bb5e9b5d96fe5",
                        "0x000000000000000000000000e1691c5069f811782324ea5e7f54ccfaa216a686",
                        "0x0000000000000000000000000000000000000000000000000000000000000000"
                    ]
                },
                "nodeType": 1
            },
            "9": {
                "invocation": {
                    "address": "0xc4a8b7e29e3c8ec560cd4945c1cf3461a85a148d",
                    "callData": "0x",
                    "decodedMethod": {
                        "callParams": [],
                        "constructorArguments": "",
                        "name": "shareParameters",
                        "returnParams": [
                            {
                                "name": "",
                                "type": "uint256",
                                "value": "64,279,499,186,881,442"
                            },
                            {
                                "name": "",
                                "type": "uint256",
                                "value": "54,480,940,198,994,234"
                            },
                            {
                                "name": "",
                                "type": "address",
                                "value": "0x4dfa40fdaa7694676899f8887a45603922609af4"
                            },
                            {
                                "name": "",
                                "type": "address",
                                "value": "0x735247fb0a604c0adc6cab38ace16d0dba31295f"
                            }
                        ],
                        "signature": "shareParameters()"
                    },
                    "errorInfo": "",
                    "fromAddress": "0x812b40c2ca7fabbac756475593fc8b1c313434fa",
                    "gasUsed": 6059,
                    "id": 9,
                    "methodDecoded": true,
                    "operation": "STATICCALL",
                    "output": "0x00000000000000000000000000000000000000000000000000e45ddd2b5fc3a200000000000000000000000000000000000000000000000000c18e205f97213a0000000000000000000000004dfa40fdaa7694676899f8887a45603922609af4000000000000000000000000735247fb0a604c0adc6cab38ace16d0dba31295f",
                    "revert": false,
                    "revertMessage": "",
                    "selector": "0x172886e7",
                    "status": true,
                    "value": "0"
                },
                "nodeType": 0
            }
        },
        "gasFlame": [
            {
                "children": [
                    {
                        "children": [
                            {
                                "children": [],
                                "depth": 0,
                                "name": "Initial Gas",
                                "value": 32008
                            },
                            {
                                "children": [
                                    {
                                        "children": [],
                                        "depth": 1,
                                        "name": "balanceOf",
                                        "value": 1210
                                    },
                                    {
                                        "children": [
                                            {
                                                "children": [
                                                    {
                                                        "children": [],
                                                        "depth": 3,
                                                        "name": "isActive",
                                                        "value": 1172
                                                    },
                                                    {
                                                        "children": [],
                                                        "depth": 3,
                                                        "name": "balanceOf",
                                                        "value": 1210
                                                    },
                                                    {
                                                        "children": [],
                                                        "depth": 3,
                                                        "name": "transfer",
                                                        "value": 14474
                                                    },
                                                    {
                                                        "children": [],
                                                        "depth": 3,
                                                        "name": "shareParameters",
                                                        "value": 6059
                                                    },
                                                    {
                                                        "children": [],
                                                        "depth": 3,
                                                        "name": "isFeeReceiver",
                                                        "value": 1203
                                                    },
                                                    {
                                                        "children": [],
                                                        "depth": 3,
                                                        "name": "updateReward",
                                                        "value": 17381
                                                    },
                                                    {
                                                        "children": [],
                                                        "depth": 3,
                                                        "name": "isFeeReceiver",
                                                        "value": 1203
                                                    }
                                                ],
                                                "depth": 2,
                                                "name": "swapFor",
                                                "value": 160084
                                            },
                                            {
                                                "children": [
                                                    {
                                                        "children": [
                                                            {
                                                                "children": [],
                                                                "depth": 4,
                                                                "name": "balanceOf",
                                                                "value": 1210
                                                            }
                                                        ],
                                                        "depth": 3,
                                                        "name": "0x70bdb947",
                                                        "value": 3601
                                                    },
                                                    {
                                                        "children": [],
                                                        "depth": 3,
                                                        "name": "0x05971224",
                                                        "value": 755
                                                    }
                                                ],
                                                "depth": 2,
                                                "name": "0x7f8fe7a0",
                                                "value": 8648
                                            }
                                        ],
                                        "depth": 1,
                                        "name": "makeCalls",
                                        "value": 179060
                                    },
                                    {
                                        "children": [],
                                        "depth": 1,
                                        "name": "balanceOf",
                                        "value": 1210
                                    }
                                ],
                                "depth": 0,
                                "name": "Executed Gas",
                                "value": 201929
                            }
                        ],
                        "depth": -1,
                        "name": "Actual Gas Used",
                        "value": 229737
                    },
                    {
                        "children": [],
                        "depth": -1,
                        "name": "Refunded Gas",
                        "value": 4200
                    }
                ],
                "depth": -2,
                "name": "Total Gas",
                "value": 233937
            }
        ],
        "isConfirmed": true,
        "mainTrace": [
            {
                "children": [
                    {
                        "children": [
                            {
                                "children": [],
                                "depth": 1,
                                "id": 1,
                                "order": 1
                            },
                            {
                                "children": [
                                    {
                                        "children": [
                                            {
                                                "children": [],
                                                "depth": 3,
                                                "id": 4,
                                                "order": 4
                                            },
                                            {
                                                "children": [],
                                                "depth": 3,
                                                "id": 5,
                                                "order": 5
                                            },
                                            {
                                                "children": [
                                                    {
                                                        "children": [],
                                                        "depth": 4,
                                                        "id": 7,
                                                        "order": 7
                                                    }
                                                ],
                                                "depth": 3,
                                                "id": 6,
                                                "order": 6
                                            },
                                            {
                                                "children": [],
                                                "depth": 3,
                                                "id": 8,
                                                "order": 8
                                            },
                                            {
                                                "children": [],
                                                "depth": 3,
                                                "id": 9,
                                                "order": 9
                                            },
                                            {
                                                "children": [],
                                                "depth": 3,
                                                "id": 10,
                                                "order": 10
                                            },
                                            {
                                                "children": [],
                                                "depth": 3,
                                                "id": 11,
                                                "order": 11
                                            },
                                            {
                                                "children": [],
                                                "depth": 3,
                                                "id": 12,
                                                "order": 12
                                            },
                                            {
                                                "children": [],
                                                "depth": 3,
                                                "id": 13,
                                                "order": 13
                                            },
                                            {
                                                "children": [],
                                                "depth": 3,
                                                "id": 14,
                                                "order": 14
                                            },
                                            {
                                                "children": [],
                                                "depth": 3,
                                                "id": 15,
                                                "order": 15
                                            }
                                        ],
                                        "depth": 2,
                                        "id": 3,
                                        "order": 3
                                    },
                                    {
                                        "children": [
                                            {
                                                "children": [
                                                    {
                                                        "children": [],
                                                        "depth": 4,
                                                        "id": 18,
                                                        "order": 18
                                                    }
                                                ],
                                                "depth": 3,
                                                "id": 17,
                                                "order": 17
                                            },
                                            {
                                                "children": [],
                                                "depth": 3,
                                                "id": 19,
                                                "order": 19
                                            }
                                        ],
                                        "depth": 2,
                                        "id": 16,
                                        "order": 16
                                    }
                                ],
                                "depth": 1,
                                "id": 2,
                                "order": 2
                            },
                            {
                                "children": [],
                                "depth": 1,
                                "id": 20,
                                "order": 20
                            },
                            {
                                "children": [],
                                "depth": 1,
                                "id": 21,
                                "order": 21
                            }
                        ],
                        "depth": 0,
                        "id": 0,
                        "order": 0
                    }
                ],
                "depth": -1,
                "id": -1,
                "order": -1
            }
        ],
        "mainTraceNodeCount": 22,
        "parentIdMap": {
            "0": -1,
            "1": 0,
            "10": 3,
            "11": 3,
            "12": 3,
            "13": 3,
            "14": 3,
            "15": 3,
            "16": 2,
            "17": 16,
            "18": 17,
            "19": 16,
            "2": 0,
            "20": 0,
            "21": 0,
            "3": 2,
            "4": 3,
            "5": 3,
            "6": 3,
            "7": 6,
            "8": 3,
            "9": 3
        },
        "tidyTrace": [
            {
                "children": [
                    {
                        "children": [
                            {
                                "children": [
                                    {
                                        "children": [
                                            {
                                                "children": [
                                                    {
                                                        "children": [],
                                                        "depth": 4,
                                                        "id": 7,
                                                        "order": 7
                                                    }
                                                ],
                                                "depth": 3,
                                                "id": 6,
                                                "order": 6
                                            },
                                            {
                                                "children": [],
                                                "depth": 3,
                                                "id": 8,
                                                "order": 8
                                            },
                                            {
                                                "children": [],
                                                "depth": 3,
                                                "id": 11,
                                                "order": 11
                                            },
                                            {
                                                "children": [],
                                                "depth": 3,
                                                "id": 12,
                                                "order": 12
                                            },
                                            {
                                                "children": [],
                                                "depth": 3,
                                                "id": 14,
                                                "order": 14
                                            },
                                            {
                                                "children": [],
                                                "depth": 3,
                                                "id": 15,
                                                "order": 15
                                            }
                                        ],
                                        "depth": 2,
                                        "id": 3,
                                        "order": 3
                                    },
                                    {
                                        "children": [
                                            {
                                                "children": [],
                                                "depth": 3,
                                                "id": 19,
                                                "order": 19
                                            }
                                        ],
                                        "depth": 2,
                                        "id": 16,
                                        "order": 16
                                    }
                                ],
                                "depth": 1,
                                "id": 2,
                                "order": 2
                            },
                            {
                                "children": [],
                                "depth": 1,
                                "id": 21,
                                "order": 21
                            }
                        ],
                        "depth": 0,
                        "id": 0,
                        "order": 0
                    }
                ],
                "depth": -1,
                "id": -1,
                "order": -1
            }
        ],
        "tidyTraceNodeCount": 13
    },
    "state_change": {
        "stateChanges": [
            {
                "address": "0x111111111117dc0aa78b770fa6a738034120c302",
                "erc": "ERC-20",
                "slots": [
                    {
                        "current": "0x0000000000000000000000000000000000000000000356de4e4c13835dab3cca",
                        "key": "0xb07e6336b4b8af1ead7b8002f0c3362979ba7dddda83749f83c648c249689100",
                        "prev": "0x00000000000000000000000000000000000000000003572d203283636d8705d1"
                    },
                    {
                        "current": "0x0000000000000000000000000000000000000000000001ed163611bc769ab445",
                        "key": "0x28e036d5a365252f0e40afb563cc42025e406d68cc0ab1a31993835670106adb",
                        "prev": "0x00000000000000000000000000000000000000000000019e444fa1dc66beeb3e"
                    }
                ],
                "storageVariables": [
                    {
                        "name": "_balances",
                        "type": "mapping(address => uint256)",
                        "value": {
                            "pairs": [
                                {
                                    "key": "0x812b40c2ca7fabbac756475593fc8b1c313434fa",
                                    "value": {
                                        "current": "4037001795460928654490826",
                                        "prev": "4038455766398084699325905",
                                        "typeTag": 1
                                    }
                                },
                                {
                                    "key": "0xe1691c5069f811782324ea5e7f54ccfaa216a686",
                                    "value": {
                                        "current": "9095845314557527110725",
                                        "prev": "7641874377401482275646",
                                        "typeTag": 1
                                    }
                                }
                            ],
                            "typeTag": 4
                        }
                    }
                ]
            },
            {
                "address": "0x735247fb0a604c0adc6cab38ace16d0dba31295f",
                "erc": "",
                "slots": [
                    {
                        "current": "0x00000000000000000000000000000000000000000000007408022b2d4a8f1bb7",
                        "key": "0x44d2aba67442e65ef893cca8d7762a7fa0ba22bf2204209c1c32b09183debe7a",
                        "prev": "0x000000000000000000000000000000000000000000000074078b3bfea9d5659d"
                    },
                    {
                        "current": "0x00000000000000000000000000000000000000000000007577661007975fab34",
                        "key": "0xec7d8b31e93ab558d9c5048b91aefb095cc0ae9c66e64098957d16969cad37af",
                        "prev": "0x00000000000000000000000000000000000000000000007576ef20d8f6a5f51a"
                    }
                ],
                "storageVariables": [
                    {
                        "name": "userInfo",
                        "type": "mapping(address => struct ReferralFeeReceiver.UserInfo)",
                        "value": {
                            "pairs": [
                                {
                                    "key": "0x68a17b587caf4f9329f0e372e3a78d23a46de6b5",
                                    "value": {
                                        "fields": [
                                            {
                                                "name": "share",
                                                "type": "mapping(contract IERC20 => mapping(uint256 => uint256))",
                                                "value": {
                                                    "pairs": [
                                                        {
                                                            "key": "0x812b40c2ca7fabbac756475593fc8b1c313434fa",
                                                            "value": {
                                                                "pairs": [
                                                                    {
                                                                        "key": "0",
                                                                        "value": {
                                                                            "current": "2140399383726089247671",
                                                                            "prev": "2140365906695293330845",
                                                                            "typeTag": 1
                                                                        }
                                                                    }
                                                                ],
                                                                "typeTag": 4
                                                            }
                                                        }
                                                    ],
                                                    "typeTag": 4
                                                }
                                            }
                                        ],
                                        "typeTag": 3
                                    }
                                }
                            ],
                            "typeTag": 4
                        }
                    },
                    {
                        "name": "tokenInfo",
                        "type": "mapping(contract IERC20 => struct ReferralFeeReceiver.TokenInfo)",
                        "value": {
                            "pairs": [
                                {
                                    "key": "0x812b40c2ca7fabbac756475593fc8b1c313434fa",
                                    "value": {
                                        "fields": [
                                            {
                                                "name": "epochBalance",
                                                "type": "mapping(uint256 => struct ReferralFeeReceiver.EpochBalance)",
                                                "value": {
                                                    "pairs": [
                                                        {
                                                            "key": "0",
                                                            "value": {
                                                                "fields": [
                                                                    {
                                                                        "name": "totalSupply",
                                                                        "type": "uint256",
                                                                        "value": {
                                                                            "current": "2166872638386945895220",
                                                                            "prev": "2166839161356149978394",
                                                                            "typeTag": 1
                                                                        }
                                                                    }
                                                                ],
                                                                "typeTag": 3
                                                            }
                                                        }
                                                    ],
                                                    "typeTag": 4
                                                }
                                            }
                                        ],
                                        "typeTag": 3
                                    }
                                }
                            ],
                            "typeTag": 4
                        }
                    }
                ]
            },
            {
                "address": "0x812b40c2ca7fabbac756475593fc8b1c313434fa",
                "erc": "",
                "slots": [
                    {
                        "current": "0x005fe691a7000000000000000000000000000000000002f0286aac8a83e87b80",
                        "key": "0xa31547ce6245cdb9ecea19cf8c7eb9f5974025bb4075011409251ae855b30aed",
                        "prev": "0x005fe691a3000000000000000000000000000000000002efe4bb320d981c658a"
                    },
                    {
                        "current": "0x005fe691a7000000000000000000000000000000000356c1c0d6848d6d4a8ad6",
                        "key": "0x31ef400aef72fdfcd92bf0c230f48427b1ab3e4c11453408125355801f7da119",
                        "prev": "0x005fe691a30000000000000000000000000000000003570ea32e79ec0060db53"
                    },
                    {
                        "current": "0x0000000000000000000000000000000000000000000244fb22135a20d7811bda",
                        "key": "0x0000000000000000000000000000000000000000000000000000000000000002",
                        "prev": "0x0000000000000000000000000000000000000000000244fb21379d08b3c6d91e"
                    },
                    {
                        "current": "0x005fe691a7000000000000000000000000000000000002efd108a621e13836f9",
                        "key": "0x0263c2b778d062355049effc2dece97bc6547ff8a88a3258daa512061c2153dd",
                        "prev": "0x005fe691a3000000000000000000000000000000000002efd1846fcdd8e6e3f5"
                    },
                    {
                        "current": "0x005fe691a70000000000000000000000000000000003572500e7de4b6caeba0c",
                        "key": "0x6ffed785b2fdf9bbb03432c449c688bcdb63421372b1fa037545b883ed09ad9f",
                        "prev": "0x005fe691a30000000000000000000000000000000003572473efd31a1181b093"
                    },
                    {
                        "current": "0x00000000000000000000000000000000000000000000007577661007975fab34",
                        "key": "0x79b33e1436315762e202ffee75f7983ef374d53d42e9d3466c5498da85e059d5",
                        "prev": "0x00000000000000000000000000000000000000000000007576ef20d8f6a5f51a"
                    },
                    {
                        "current": "0x00000000000000000000000000000000000000000000001ee222e0dd71439a0d",
                        "key": "0x99e13e72542f950caf05546e1d903a29168cac44e360cdb666f63da07351dfb9",
                        "prev": "0x00000000000000000000000000000000000000000000001ee1be12f3ee430d6b"
                    },
                    {
                        "current": "0x000000000002d2e0474b0c761920cc8d00000000000002b8d7ff407bf5d2766a",
                        "key": "0x4f26c3876aa9f4b92579780beea1161a61f87ebf1ec6ee865b299e447ecba99c",
                        "prev": "0x000000000002d29175649c960945038600000000000002b8929baef9b0de766a"
                    }
                ],
                "storageVariables": []
            }
        ]
    }
}