{
    "balance_change": {
        "balanceChanges": [
            {
                "account": "0x957d543535efd9356411c7e1529732d285cb067c",
                "assets": [
                    {
                        "address": "0xeeeeeeeeeeeeeeeeeeeeeeeeeeeeeeeeeeeeeeee",
                        "amount": "0.05",
                        "iconUrl": "https://assets.blocksec.com/image/1663669189317-3.png",
                        "isERC1155": false,
                        "isERC721": false,
                        "sign": false,
                        "value": ""
                    }
                ]
            },
            {
                "account": "0x5bf6f1caba8ec98ad9c65998ead2af6cd23e5ce8",
                "assets": [
                    {
                        "address": "0xeeeeeeeeeeeeeeeeeeeeeeeeeeeeeeeeeeeeeeee",
                        "amount": "0.05",
                        "iconUrl": "https://assets.blocksec.com/image/1663669189317-3.png",
                        "isERC1155": false,
                        "isERC721": false,
                        "sign": true,
                        "value": ""
                    }
                ]
            }
        ]
    },
    "profile": {
        "basic_info": {
            "baseFee": "",
            "blockNumber": 10348996,
            "callData": "0x797eee240000000000000000000000005bf6f1caba8ec98ad9c65998ead2af6cd23e5ce8",
            "debugEnable": true,
            "errorInfo": "",
            "eventCount": 4,
            "feeRecipient": "0xea674fdde714fd979de3edf0f56aa9716b898ec8",
            "formatValue": "0.05",
            "gasLimit": 495796,
            "gasPrice": "36",
            "gasUsed": 381382,
            "intTxnCount": 2,
            "internalRevert": false,
            "internalRevertMessage": "",
            "isContractCreation": false,
            "isFlashloan": false,
            "maxFee": "",
            "nonce": 0,
            "overwritedBlockNumber": -1,
            "priorityFee": "",
            "receiver": "0x5acc84a3e955bdd76467d3348077d003f00ffb97",
            "revertMessage": "",
            "sender": "0x957d543535efd9356411c7e1529732d285cb067c",
            "simulationEnable": true,
            "sourceTxnHash": "0x6fe86f62e5864fb97b013a8b02c62c67bf64ee9dd45072aed00419e1fceebeb3",
            "status": true,
            "timestamp": "2020-06-27T16:55:05Z",
            "transactionFee": "0.013729752",
            "txnHash": "0x6fe86f62e5864fb97b013a8b02c62c67bf64ee9dd45072aed00419e1fceebeb3",
            "txnIndex": 20,
            "type": 0,
            "value": "50000000000000000"
        },
        "fund_flow": [
            {
                "amount": "0.05",
                "from": "0x957d543535efd9356411c7e1529732d285cb067c",
                "id": 1,
                "isERC1155": false,
                "isERC721": false,
                "isReverted": false,
                "order": 1,
                "to": "0x5acc84a3e955bdd76467d3348077d003f00ffb97",
                "token": "0xeeeeeeeeeeeeeeeeeeeeeeeeeeeeeeeeeeeeeeee"
            },
            {
                "amount": "0.05",
                "from": "0x5acc84a3e955bdd76467d3348077d003f00ffb97",
                "id": 2,
                "isERC1155": false,
                "isERC721": false,
                "isReverted": false,
                "order": 2,
                "to": "0x5bf6f1caba8ec98ad9c65998ead2af6cd23e5ce8",
                "token": "0xeeeeeeeeeeeeeeeeeeeeeeeeeeeeeeeeeeeeeeee"
            }
        ],
        "token_infos": [
            {
                "address": "0xc02aaa39b223fe8d0a0e5c4f27ead9083c756cc2",
                "decimals": 18
            },
            {
                "address": "0xeeeeeeeeeeeeeeeeeeeeeeeeeeeeeeeeeeeeeeee",
                "decimals": 18
            }
        ]
    },
    "address_label": {
        "labels": [
            {
                "address": "0xeeeeeeeeeeeeeeeeeeeeeeeeeeeeeeeeeeeeeeee",
                "label": "Ether"
            },
            {
                "address": "0x5acc84a3e955bdd76467d3348077d003f00ffb97",
                "label": "Forsage.io"
            },
            {
                "address": "0x0000000000000000000000000000000000000001",
                "label": "Precompiled"
            },
            {
                "address": "0x0000000000000000000000000000000000000002",
                "label": "Precompiled"
            },
            {
                "address": "0x0000000000000000000000000000000000000003",
                "label": "Precompiled"
            },
            {
                "address": "0x0000000000000000000000000000000000000004",
                "label": "Precompiled"
            }
        ]
    },
    "trace": {
        "accountLabels": null,
        "dataMap": {
            "-1": {
                "invocation": {
                    "address": "0x957d543535efd9356411c7e1529732d285cb067c",
                    "callData": "",
                    "decodedMethod": null,
                    "errorInfo": "",
                    "fromAddress": "",
                    "gasUsed": 0,
                    "id": -1,
                    "methodDecoded": false,
                    "operation": "",
                    "output": "",
                    "revert": false,
                    "revertMessage": "",
                    "selector": "",
                    "status": false,
                    "value": ""
                },
                "nodeType": 0
            },
            "0": {
                "invocation": {
                    "address": "0x5acc84a3e955bdd76467d3348077d003f00ffb97",
                    "callData": "0x0000000000000000000000005bf6f1caba8ec98ad9c65998ead2af6cd23e5ce8",
                    "decodedMethod": {
                        "callParams": [
                            {
                                "name": "referrerAddress",
                                "type": "address",
                                "value": "0x5bf6f1caba8ec98ad9c65998ead2af6cd23e5ce8"
                            }
                        ],
                        "constructorArguments": "",
                        "name": "registrationExt",
                        "returnParams": [],
                        "signature": "registrationExt(address)"
                    },
                    "errorInfo": "",
                    "fromAddress": "0x957d543535efd9356411c7e1529732d285cb067c",
                    "gasUsed": 381382,
                    "id": 0,
                    "methodDecoded": true,
                    "operation": "CALL",
                    "output": "",
                    "revert": false,
                    "revertMessage": "",
                    "selector": "0x797eee24",
                    "status": true,
                    "value": "0.05"
                },
                "nodeType": 0
            },
            "1": {
                "event": {
                    "contract": "0x5acc84a3e955bdd76467d3348077d003f00ffb97",
                    "decodedLog": {
                        "name": "NewUserPlace",
                        "params": [
                            {
                                "name": "user",
                                "type": "address",
                                "value": "0x957d543535efd9356411c7e1529732d285cb067c"
                            },
                            {
                                "name": "referrer",
                                "type": "address",
                                "value": "0x5bf6f1caba8ec98ad9c65998ead2af6cd23e5ce8"
                            },
                            {
                                "name": "matrix",
                                "type": "uint8",
                                "value": "1"
                            },
                            {
                                "name": "level",
                                "type": "uint8",
                                "value": "1"
                            },
                            {
                                "name": "place",
                                "type": "uint8",
                                "value": "2"
                            }
                        ],
                        "signature": "NewUserPlace(address,address,uint8,uint8,uint8)"
                    },
                    "id": 1,
                    "logData": "0x000000000000000000000000000000000000000000000000000000000000000100000000000000000000000000000000000000000000000000000000000000010000000000000000000000000000000000000000000000000000000000000002",
                    "logDecoded": true,
                    "operation": "EVENT",
                    "revert": false,
                    "status": true,
                    "topics": [
                        "0x68062c5925c4317adf3a7095478d28b33fd8b41458bc7620b61bc46bf1b24d82",
                        "0x000000000000000000000000957d543535efd9356411c7e1529732d285cb067c",
                        "0x0000000000000000000000005bf6f1caba8ec98ad9c65998ead2af6cd23e5ce8"
                    ]
                },
                "nodeType": 1
            },
            "2": {
                "invocation": {
                    "address": "0x5bf6f1caba8ec98ad9c65998ead2af6cd23e5ce8",
                    "callData": "0x",
                    "decodedMethod": null,
                    "errorInfo": "",
                    "fromAddress": "0x5acc84a3e955bdd76467d3348077d003f00ffb97",
                    "gasUsed": 0,
                    "id": 2,
                    "methodDecoded": false,
                    "operation": "CALL",
                    "output": "",
                    "revert": false,
                    "revertMessage": "",
                    "selector": "fallback",
                    "status": true,
                    "value": "0.025"
                },
                "nodeType": 0
            },
            "3": {
                "event": {
                    "contract": "0x5acc84a3e955bdd76467d3348077d003f00ffb97",
                    "decodedLog": {
                        "name": "NewUserPlace",
                        "params": [
                            {
                                "name": "user",
                                "type": "address",
                                "value": "0x957d543535efd9356411c7e1529732d285cb067c"
                            },
                            {
                                "name": "referrer",
                                "type": "address",
                                "value": "0xb91c8d9316f93fd4d30a79123ce86e25493407dc"
                            },
                            {
                                "name": "matrix",
                                "type": "uint8",
                                "value": "2"
                            },
                            {
                                "name": "level",
                                "type": "uint8",
                                "value": "1"
                            },
                            {
                                "name": "place",
                                "type": "uint8",
                                "value": "1"
                            }
                        ],
                        "signature": "NewUserPlace(address,address,uint8,uint8,uint8)"
                    },
                    "id": 3,
                    "logData": "0x000000000000000000000000000000000000000000000000000000000000000200000000000000000000000000000000000000000000000000000000000000010000000000000000000000000000000000000000000000000000000000000001",
                    "logDecoded": true,
                    "operation": "EVENT",
                    "revert": false,
                    "status": true,
                    "topics": [
                        "0x68062c5925c4317adf3a7095478d28b33fd8b41458bc7620b61bc46bf1b24d82",
                        "0x000000000000000000000000957d543535efd9356411c7e1529732d285cb067c",
                        "0x000000000000000000000000b91c8d9316f93fd4d30a79123ce86e25493407dc"
                    ]
                },
                "nodeType": 1
            },
            "4": {
                "event": {
                    "contract": "0x5acc84a3e955bdd76467d3348077d003f00ffb97",
                    "decodedLog": {
                        "name": "NewUserPlace",
                        "params": [
                            {
                                "name": "user",
                                "type": "address",
                                "value": "0x957d543535efd9356411c7e1529732d285cb067c"
                            },
                            {
                                "name": "referrer",
                                "type": "address",
                                "value": "0x5bf6f1caba8ec98ad9c65998ead2af6cd23e5ce8"
                            },
                            {
                                "name": "matrix",
                                "type": "uint8",
                                "value": "2"
                            },
                            {
                                "name": "level",
                                "type": "uint8",
                                "value": "1"
                            },
                            {
                                "name": "place",
                                "type": "uint8",
                                "value": "3"
                            }
                        ],
                        "signature": "NewUserPlace(address,address,uint8,uint8,uint8)"
                    },
                    "id": 4,
                    "logData": "0x000000000000000000000000000000000000000000000000000000000000000200000000000000000000000000000000000000000000000000000000000000010000000000000000000000000000000000000000000000000000000000000003",
                    "logDecoded": true,
                    "operation": "EVENT",
                    "revert": false,
                    "status": true,
                    "topics": [
                        "0x68062c5925c4317adf3a7095478d28b33fd8b41458bc7620b61bc46bf1b24d82",
                        "0x000000000000000000000000957d543535efd9356411c7e1529732d285cb067c",
                        "0x0000000000000000000000005bf6f1caba8ec98ad9c65998ead2af6cd23e5ce8"
                    ]
                },
                "nodeType": 1
            },
            "5": {
                "invocation": {
                    "address": "0x5bf6f1caba8ec98ad9c65998ead2af6cd23e5ce8",
                    "callData": "0x",
                    "decodedMethod": null,
                    "errorInfo": "",
                    "fromAddress": "0x5acc84a3e955bdd76467d3348077d003f00ffb97",
                    "gasUsed": 0,
                    "id": 5,
                    "methodDecoded": false,
                    "operation": "CALL",
                    "output": "",
                    "revert": false,
                    "revertMessage": "",
                    "selector": "fallback",
                    "status": true,
                    "value": "0.025"
                },
                "nodeType": 0
            },
            "6": {
                "event": {
                    "contract": "0x5acc84a3e955bdd76467d3348077d003f00ffb97",
                    "decodedLog": {
                        "name": "Registration",
                        "params": [
                            {
                                "name": "user",
                                "type": "address",
                                "value": "0x957d543535efd9356411c7e1529732d285cb067c"
                            },
                            {
                                "name": "referrer",
                                "type": "address",
                                "value": "0x5bf6f1caba8ec98ad9c65998ead2af6cd23e5ce8"
                            },
                            {
                                "name": "userId",
                                "type": "uint256",
                                "value": "381,837"
                            },
                            {
                                "name": "referrerId",
                                "type": "uint256",
                                "value": "301,130"
                            }
                        ],
                        "signature": "Registration(address,address,uint256,uint256)"
                    },
                    "id": 6,
                    "logData": "0x000000000000000000000000000000000000000000000000000000000004984a",
                    "logDecoded": true,
                    "operation": "EVENT",
                    "revert": false,
                    "status": true,
                    "topics": [
                        "0x309bb360e8b69c23937ccc5fb01f9aeeead1c95a99604e175113ff82f2b1723a",
                        "0x000000000000000000000000957d543535efd9356411c7e1529732d285cb067c",
                        "0x0000000000000000000000005bf6f1caba8ec98ad9c65998ead2af6cd23e5ce8",
                        "0x000000000000000000000000000000000000000000000000000000000005d38d"
                    ]
                },
                "nodeType": 1
            }
        },
        "gasFlame": [
            {
                "children": [
                    {
                        "children": [
                            {
                                "children": [],
                                "depth": 0,
                                "name": "Initial Gas",
                                "value": 21432
                            },
                            {
                                "children": [
                                    {
                                        "children": [],
                                        "depth": 1,
                                        "name": "fallback",
                                        "value": 0
                                    },
                                    {
                                        "children": [],
                                        "depth": 1,
                                        "name": "fallback",
                                        "value": 0
                                    }
                                ],
                                "depth": 0,
                                "name": "Executed Gas",
                                "value": 359950
                            }
                        ],
                        "depth": -1,
                        "name": "Actual Gas Used",
                        "value": 381382
                    },
                    {
                        "children": [],
                        "depth": -1,
                        "name": "Refunded Gas",
                        "value": 0
                    }
                ],
                "depth": -2,
                "name": "Total Gas",
                "value": 381382
            }
        ],
        "isConfirmed": true,
        "mainTrace": [
            {
                "children": [
                    {
                        "children": [
                            {
                                "children": [],
                                "depth": 1,
                                "id": 1,
                                "order": 1
                            },
                            {
                                "children": [],
                                "depth": 1,
                                "id": 2,
                                "order": 2
                            },
                            {
                                "children": [],
                                "depth": 1,
                                "id": 3,
                                "order": 3
                            },
                            {
                                "children": [],
                                "depth": 1,
                                "id": 4,
                                "order": 4
                            },
                            {
                                "children": [],
                                "depth": 1,
                                "id": 5,
                                "order": 5
                            },
                            {
                                "children": [],
                                "depth": 1,
                                "id": 6,
                                "order": 6
                            }
                        ],
                        "depth": 0,
                        "id": 0,
                        "order": 0
                    }
                ],
                "depth": -1,
                "id": -1,
                "order": -1
            }
        ],
        "mainTraceNodeCount": 7,
        "parentIdMap": {
            "0": -1,
            "1": 0,
            "2": 0,
            "3": 0,
            "4": 0,
            "5": 0,
            "6": 0
        },
        "tidyTrace": [
            {
                "children": [
                    {
                        "children": [
                            {
                                "children": [],
                                "depth": 1,
                                "id": 1,
                                "order": 1
                            },
                            {
                                "children": [],
                                "depth": 1,
                                "id": 2,
                                "order": 2
                            },
                            {
                                "children": [],
                                "depth": 1,
                                "id": 3,
                                "order": 3
                            },
                            {
                                "children": [],
                                "depth": 1,
                                "id": 4,
                                "order": 4
                            },
                            {
                                "children": [],
                                "depth": 1,
                                "id": 5,
                                "order": 5
                            },
                            {
                                "children": [],
                                "depth": 1,
                                "id": 6,
                                "order": 6
                            }
                        ],
                        "depth": 0,
                        "id": 0,
                        "order": 0
                    }
                ],
                "depth": -1,
                "id": -1,
                "order": -1
            }
        ],
        "tidyTraceNodeCount": 7
    },
    "state_change": {
        "stateChanges": [
            {
                "address": "0x5acc84a3e955bdd76467d3348077d003f00ffb97",
                "erc": "",
                "slots": [
                    {
                        "current": "0x0000000000000000000000000000000000000000000000000000000000000001",
                        "key": "0x957859d39c6da0a3df54f4fc383040bde4f2cb154a7f21faf999512276fa5eb4",
                        "prev": "0x0000000000000000000000000000000000000000000000000000000000000000"
                    },
                    {
                        "current": "0x0000000000000000000000000000000000000000000000000000000000000001",
                        "key": "0x04544f3351b511956eae01b4631505469ccf8ff4146cacdafa12a52508fc0ab4",
                        "prev": "0x0000000000000000000000000000000000000000000000000000000000000000"
                    },
                    {
                        "current": "0x0000000000000000000000000000000000000000000000000000000000000001",
                        "key": "0x783546cef55c913268bafe8d48db8e4261da006120373298b594cd2b66a234b4",
                        "prev": "0x0000000000000000000000000000000000000000000000000000000000000000"
                    },
                    {
                        "current": "0x000000000000000000000000b91c8d9316f93fd4d30a79123ce86e25493407dc",
                        "key": "0x645f019eb9098de4e3095271fd0851b0ca4d4608ab7645bc33fcdf2e3275f436",
                        "prev": "0x0000000000000000000000000000000000000000000000000000000000000000"
                    },
                    {
                        "current": "0x000000000000000000000000957d543535efd9356411c7e1529732d285cb067c",
                        "key": "0x8bbb8458aa143445e52c51fa7ed73e04075ec6c215586182f640017f4c312e04",
                        "prev": "0x0000000000000000000000000000000000000000000000000000000000000000"
                    },
                    {
                        "current": "0x000000000000000000000000957d543535efd9356411c7e1529732d285cb067c",
                        "key": "0xfdc95bda389bbe483f4c15e26082b6e5e36fcf277fcf415b75963fc2528bb6ca",
                        "prev": "0x0000000000000000000000000000000000000000000000000000000000000000"
                    },
                    {
                        "current": "0x0000000000000000000000005bf6f1caba8ec98ad9c65998ead2af6cd23e5ce8",
                        "key": "0xc967c3b04f250d8c9a899375b79aec8ad24c3c23fc3a9bd5704fb49999516af3",
                        "prev": "0x0000000000000000000000000000000000000000000000000000000000000000"
                    },
                    {
                        "current": "0x000000000000000000000000957d543535efd9356411c7e1529732d285cb067c",
                        "key": "0x9e564540e7f017a493ba2d1cd208b35e3d6001c1a261d55dff3d957d8b82e621",
                        "prev": "0x0000000000000000000000000000000000000000000000000000000000000000"
                    },
                    {
                        "current": "0x000000000000000000000000957d543535efd9356411c7e1529732d285cb067c",
                        "key": "0xc0df51839e333db4c22dae4360eb00fba6d345ab4ce7a74f65d5e07bb226fa4f",
                        "prev": "0x0000000000000000000000000000000000000000000000000000000000000000"
                    },
                    {
                        "current": "0x0000000000000000000000000000000000000000000000000000000000000002",
                        "key": "0x5c201e8b9860614aae40c9bcbdbbf51e4b53a14e987a0f2d1262a9fc3b58d6e7",
                        "prev": "0x0000000000000000000000000000000000000000000000000000000000000001"
                    },
                    {
                        "current": "0x0000000000000000000000000000000000000000000000000000000000000001",
                        "key": "0xa1c42eb96b528c49762a2aec4d50506390af72770b84839e525fa42038672303",
                        "prev": "0x0000000000000000000000000000000000000000000000000000000000000000"
                    },
                    {
                        "current": "0x000000000000000000000000000000000000000000000000000000000005d38e",
                        "key": "0x0000000000000000000000000000000000000000000000000000000000000004",
                        "prev": "0x000000000000000000000000000000000000000000000000000000000005d38d"
                    },
                    {
                        "current": "0x000000000000000000000000957d543535efd9356411c7e1529732d285cb067c",
                        "key": "0xe53415e5d9bbaf3870fdf81d7d71101837d7785c6819c3432668c0fd2ff18a86",
                        "prev": "0x0000000000000000000000000000000000000000000000000000000000000000"
                    },
                    {
                        "current": "0x000000000000000000000000000000000000000000000000000000000005d38d",
                        "key": "0x3b1bd194b9cc071a07e4af1486793a0c6aae3d4376a6542cb95a8a2c864ee471",
                        "prev": "0x0000000000000000000000000000000000000000000000000000000000000000"
                    },
                    {
                        "current": "0x0000000000000000000000000000000000000000000000000000000000000002",
                        "key": "0x702521fa7eac86ab49ac99995369e30524203248eb3c031460285b79a94a3b8d",
                        "prev": "0x0000000000000000000000000000000000000000000000000000000000000001"
                    },
                    {
                        "current": "0x0000000000000000000000005bf6f1caba8ec98ad9c65998ead2af6cd23e5ce8",
                        "key": "0x3b1bd194b9cc071a07e4af1486793a0c6aae3d4376a6542cb95a8a2c864ee472",
                        "prev": "0x0000000000000000000000000000000000000000000000000000000000000000"
                    }
                ],
                "storageVariables": [
                    {
                        "name": "lastUserId",
                        "type": "uint256",
                        "value": {
                            "current": "381838",
                            "prev": "381837",
                            "typeTag": 1
                        }
                    },
                    {
                        "name": "users",
                        "type": "mapping(address => struct SmartMatrixForsage.User)",
                        "value": {
                            "pairs": [
                                {
                                    "key": "0x5bf6f1caba8ec98ad9c65998ead2af6cd23e5ce8",
                                    "value": {
                                        "fields": [
                                            {
                                                "name": "partnersCount",
                                                "type": "uint256",
                                                "value": {
                                                    "current": "2",
                                                    "prev": "1",
                                                    "typeTag": 1
                                                }
                                            },
                                            {
                                                "name": "x3Matrix",
                                                "type": "mapping(uint8 => struct SmartMatrixForsage.X3)",
                                                "value": {
                                                    "pairs": [
                                                        {
                                                            "key": "1",
                                                            "value": {
                                                                "fields": [
                                                                    {
                                                                        "name": "referrals",
                                                                        "type": "address[]",
                                                                        "value": {
                                                                            "elemType": "address",
                                                                            "elems": [
                                                                                {
                                                                                    "index": 1,
                                                                                    "value": {
                                                                                        "current": "0x957d543535efd9356411c7e1529732d285cb067c",
                                                                                        "prev": "0x0000000000000000000000000000000000000000",
                                                                                        "typeTag": 1
                                                                                    }
                                                                                }
                                                                            ],
                                                                            "typeTag": 2
                                                                        }
                                                                    }
                                                                ],
                                                                "typeTag": 3
                                                            }
                                                        }
                                                    ],
                                                    "typeTag": 4
                                                }
                                            },
                                            {
                                                "name": "x6Matrix",
                                                "type": "mapping(uint8 => struct SmartMatrixForsage.X6)",
                                                "value": {
                                                    "pairs": [
                                                        {
                                                            "key": "1",
                                                            "value": {
                                                                "fields": [
                                                                    {
                                                                        "name": "secondLevelReferrals",
                                                                        "type": "address[]",
                                                                        "value": {
                                                                            "elemType": "address",
                                                                            "elems": [
                                                                                {
                                                                                    "index": 0,
                                                                                    "value": {
                                                                                        "current": "0x957d543535efd9356411c7e1529732d285cb067c",
                                                                                        "prev": "0x0000000000000000000000000000000000000000",
                                                                                        "typeTag": 1
                                                                                    }
                                                                                }
                                                                            ],
                                                                            "typeTag": 2
                                                                        }
                                                                    }
                                                                ],
                                                                "typeTag": 3
                                                            }
                                                        }
                                                    ],
                                                    "typeTag": 4
                                                }
                                            }
                                        ],
                                        "typeTag": 3
                                    }
                                },
                                {
                                    "key": "0x957d543535efd9356411c7e1529732d285cb067c",
                                    "value": {
                                        "fields": [
                                            {
                                                "name": "id",
                                                "type": "uint256",
                                                "value": {
                                                    "current": "381837",
                                                    "prev": "0",
                                                    "typeTag": 1
                                                }
                                            },
                                            {
                                                "name": "referrer",
                                                "type": "address",
                                                "value": {
                                                    "current": "0x5bf6f1caba8ec98ad9c65998ead2af6cd23e5ce8",
                                                    "prev": "0x0000000000000000000000000000000000000000",
                                                    "typeTag": 1
                                                }
                                            },
                                            {
                                                "name": "activeX3Levels",
                                                "type": "mapping(uint8 => bool)",
                                                "value": {
                                                    "pairs": [
                                                        {
                                                            "key": "1",
                                                            "value": {
                                                                "current": "true",
                                                                "prev": "false",
                                                                "typeTag": 1
                                                            }
                                                        }
                                                    ],
                                                    "typeTag": 4
                                                }
                                            },
                                            {
                                                "name": "activeX6Levels",
                                                "type": "mapping(uint8 => bool)",
                                                "value": {
                                                    "pairs": [
                                                        {
                                                            "key": "1",
                                                            "value": {
                                                                "current": "true",
                                                                "prev": "false",
                                                                "typeTag": 1
                                                            }
                                                        }
                                                    ],
                                                    "typeTag": 4
                                                }
                                            },
                                            {
                                                "name": "x3Matrix",
                                                "type": "mapping(uint8 => struct SmartMatrixForsage.X3)",
                                                "value": {
                                                    "pairs": [
                                                        {
                                                            "key": "1",
                                                            "value": {
                                                                "fields": [
                                                                    {
                                                                        "name": "currentReferrer",
                                                                        "type": "address",
                                                                        "value": {
                                                                            "current": "0x5bf6f1caba8ec98ad9c65998ead2af6cd23e5ce8",
                                                                            "prev": "0x0000000000000000000000000000000000000000",
                                                                            "typeTag": 1
                                                                        }
                                                                    }
                                                                ],
                                                                "typeTag": 3
                                                            }
                                                        }
                                                    ],
                                                    "typeTag": 4
                                                }
                                            },
                                            {
                                                "name": "x6Matrix",
                                                "type": "mapping(uint8 => struct SmartMatrixForsage.X6)",
                                                "value": {
                                                    "pairs": [
                                                        {
                                                            "key": "1",
                                                            "value": {
                                                                "fields": [
                                                                    {
                                                                        "name": "currentReferrer",
                                                                        "type": "address",
                                                                        "value": {
                                                                            "current": "0xb91c8d9316f93fd4d30a79123ce86e25493407dc",
                                                                            "prev": "0x0000000000000000000000000000000000000000",
                                                                            "typeTag": 1
                                                                        }
                                                                    }
                                                                ],
                                                                "typeTag": 3
                                                            }
                                                        }
                                                    ],
                                                    "typeTag": 4
                                                }
                                            }
                                        ],
                                        "typeTag": 3
                                    }
                                },
                                {
                                    "key": "0xb91c8d9316f93fd4d30a79123ce86e25493407dc",
                                    "value": {
                                        "fields": [
                                            {
                                                "name": "x6Matrix",
                                                "type": "mapping(uint8 => struct SmartMatrixForsage.X6)",
                                                "value": {
                                                    "pairs": [
                                                        {
                                                            "key": "1",
                                                            "value": {
                                                                "fields": [
                                                                    {
                                                                        "name": "firstLevelReferrals",
                                                                        "type": "address[]",
                                                                        "value": {
                                                                            "elemType": "address",
                                                                            "elems": [
                                                                                {
                                                                                    "index": 0,
                                                                                    "value": {
                                                                                        "current": "0x957d543535efd9356411c7e1529732d285cb067c",
                                                                                        "prev": "0x0000000000000000000000000000000000000000",
                                                                                        "typeTag": 1
                                                                                    }
                                                                                }
                                                                            ],
                                                                            "typeTag": 2
                                                                        }
                                                                    }
                                                                ],
                                                                "typeTag": 3
                                                            }
                                                        }
                                                    ],
                                                    "typeTag": 4
                                                }
                                            }
                                        ],
                                        "typeTag": 3
                                    }
                                }
                            ],
                            "typeTag": 4
                        }
                    },
                    {
                        "name": "idToAddress",
                        "type": "mapping(uint256 => address)",
                        "value": {
                            "pairs": [
                                {
                                    "key": "381837",
                                    "value": {
                                        "current": "0x957d543535efd9356411c7e1529732d285cb067c",
                                        "prev": "0x0000000000000000000000000000000000000000",
                                        "typeTag": 1
                                    }
                                }
                            ],
                            "typeTag": 4
                        }
                    },
                    {
                        "name": "userIds",
                        "type": "mapping(uint256 => address)",
                        "value": {
                            "pairs": [
                                {
                                    "key": "381837",
                                    "value": {
                                        "current": "0x957d543535efd9356411c7e1529732d285cb067c",
                                        "prev": "0x0000000000000000000000000000000000000000",
                                        "typeTag": 1
                                    }
                                }
                            ],
                            "typeTag": 4
                        }
                    }
                ]
            }
        ]
    }
}