{
    "balance_change": {
        "balanceChanges": [
            {
                "account": "0x63a2e901b7727cee58d0922dbdc27b327a8f5277",
                "assets": [
                    {
                        "address": "0xba7435a4b4c747e0101780073eeda872a69bdcd4",
                        "amount": "100",
                        "iconUrl": "",
                        "isERC1155": false,
                        "isERC721": false,
                        "sign": false,
                        "value": ""
                    }
                ]
            },
            {
                "account": "0x77245457d4365ab2c5deca1307ca6ea0e1f4c113",
                "assets": [
                    {
                        "address": "0xba7435a4b4c747e0101780073eeda872a69bdcd4",
                        "amount": "100",
                        "iconUrl": "",
                        "isERC1155": false,
                        "isERC721": false,
                        "sign": true,
                        "value": ""
                    }
                ]
            }
        ]
    },
    "profile": {
        "basic_info": {
            "baseFee": "",
            "blockNumber": 5837567,
            "callData": "0xa9059cbb00000000000000000000000077245457d4365ab2c5deca1307ca6ea0e1f4c1130000000000000000000000000000000000000000000000056bc75e2d63100000",
            "debugEnable": true,
            "errorInfo": "",
            "eventCount": 1,
            "feeRecipient": "0xea674fdde714fd979de3edf0f56aa9716b898ec8",
            "formatValue": "0",
            "gasLimit": 180000,
            "gasPrice": "1.1",
            "gasUsed": 99035,
            "intTxnCount": 0,
            "internalRevert": false,
            "internalRevertMessage": "",
            "isContractCreation": false,
            "isFlashloan": false,
            "maxFee": "",
            "nonce": 0,
            "overwritedBlockNumber": -1,
            "priorityFee": "",
            "receiver": "0xba7435a4b4c747e0101780073eeda872a69bdcd4",
            "revertMessage": "",
            "sender": "0x63a2e901b7727cee58d0922dbdc27b327a8f5277",
            "simulationEnable": true,
            "sourceTxnHash": "0x6f892677040dcf038aa5c9169415d84b270bff1da4cde5d1962e129add3a0aa1",
            "status": true,
            "timestamp": "2018-06-23T02:19:39Z",
            "transactionFee": "0.0001089385",
            "txnHash": "0x6f892677040dcf038aa5c9169415d84b270bff1da4cde5d1962e129add3a0aa1",
            "txnIndex": 140,
            "type": 0,
            "value": "0"
        },
        "fund_flow": [
            {
                "amount": "100",
                "from": "0x63a2e901b7727cee58d0922dbdc27b327a8f5277",
                "id": 1,
                "isERC1155": false,
                "isERC721": false,
                "isReverted": false,
                "order": 1,
                "to": "0x77245457d4365ab2c5deca1307ca6ea0e1f4c113",
                "token": "0xba7435a4b4c747e0101780073eeda872a69bdcd4"
            }
        ],
        "token_infos": [
            {
                "address": "0xba7435a4b4c747e0101780073eeda872a69bdcd4",
                "decimals": 18
            },
            {
                "address": "0xc02aaa39b223fe8d0a0e5c4f27ead9083c756cc2",
                "decimals": 18
            },
            {
                "address": "0xeeeeeeeeeeeeeeeeeeeeeeeeeeeeeeeeeeeeeeee",
                "decimals": 18
            }
        ]
    },
    "address_label": {
        "labels": [
            {
                "address": "0x0000000000000000000000000000000000000002",
                "label": "Precompiled"
            },
            {
                "address": "0x0000000000000000000000000000000000000003",
                "label": "Precompiled"
            },
            {
                "address": "0x0000000000000000000000000000000000000004",
                "label": "Precompiled"
            },
            {
                "address": "0xeeeeeeeeeeeeeeeeeeeeeeeeeeeeeeeeeeeeeeee",
                "label": "Ether"
            },
            {
                "address": "0xba7435a4b4c747e0101780073eeda872a69bdcd4",
                "label": "Fake_Phishing391767"
            },
            {
                "address": "0x0000000000000000000000000000000000000001",
                "label": "Precompiled"
            }
        ]
    },
    "trace": {
        "accountLabels": null,
        "dataMap": {
            "-1": {
                "invocation": {
                    "address": "0x63a2e901b7727cee58d0922dbdc27b327a8f5277",
                    "callData": "",
                    "decodedMethod": null,
                    "errorInfo": "",
                    "fromAddress": "",
                    "gasUsed": 0,
                    "id": -1,
                    "methodDecoded": false,
                    "operation": "",
                    "output": "",
                    "revert": false,
                    "revertMessage": "",
                    "selector": "",
                    "status": false,
                    "value": ""
                },
                "nodeType": 0
            },
            "0": {
                "invocation": {
                    "address": "0xba7435a4b4c747e0101780073eeda872a69bdcd4",
                    "callData": "0x00000000000000000000000077245457d4365ab2c5deca1307ca6ea0e1f4c1130000000000000000000000000000000000000000000000056bc75e2d63100000",
                    "decodedMethod": {
                        "callParams": [
                            {
                                "name": "recipient",
                                "type": "address",
                                "value": "0x77245457d4365ab2c5deca1307ca6ea0e1f4c113"
                            },
                            {
                                "decimalAvailable": true,
                                "name": "amount",
                                "type": "uint256",
                                "value": "100,000,000,000,000,000,000"
                            }
                        ],
                        "constructorArguments": "",
                        "name": "transfer",
                        "returnParams": [
                            {
                                "name": "",
                                "type": "bool",
                                "value": true
                            }
                        ],
                        "signature": "transfer(address,uint256)"
                    },
                    "errorInfo": "",
                    "fromAddress": "0x63a2e901b7727cee58d0922dbdc27b327a8f5277",
                    "gasUsed": 99035,
                    "id": 0,
                    "methodDecoded": true,
                    "operation": "CALL",
                    "output": "0x0000000000000000000000000000000000000000000000000000000000000001",
                    "revert": false,
                    "revertMessage": "",
                    "selector": "0xa9059cbb",
                    "status": true,
                    "value": "0"
                },
                "nodeType": 0
            },
            "1": {
                "event": {
                    "contract": "0xba7435a4b4c747e0101780073eeda872a69bdcd4",
                    "decodedLog": {
                        "name": "Transfer",
                        "params": [
                            {
                                "name": "from",
                                "type": "address",
                                "value": "0x63a2e901b7727cee58d0922dbdc27b327a8f5277"
                            },
                            {
                                "name": "to",
                                "type": "address",
                                "value": "0x77245457d4365ab2c5deca1307ca6ea0e1f4c113"
                            },
                            {
                                "decimalAvailable": true,
                                "name": "value",
                                "type": "uint256",
                                "value": "100,000,000,000,000,000,000"
                            }
                        ],
                        "signature": "Transfer(address,address,uint256)"
                    },
                    "id": 1,
                    "logData": "0x0000000000000000000000000000000000000000000000056bc75e2d63100000",
                    "logDecoded": true,
                    "operation": "EVENT",
                    "revert": false,
                    "status": true,
                    "topics": [
                        "0xddf252ad1be2c89b69c2b068fc378daa952ba7f163c4a11628f55a4df523b3ef",
                        "0x00000000000000000000000063a2e901b7727cee58d0922dbdc27b327a8f5277",
                        "0x00000000000000000000000077245457d4365ab2c5deca1307ca6ea0e1f4c113"
                    ]
                },
                "nodeType": 1
            }
        },
        "gasFlame": [
            {
                "children": [
                    {
                        "children": [
                            {
                                "children": [],
                                "depth": 0,
                                "name": "Initial Gas",
                                "value": 23256
                            },
                            {
                                "children": [],
                                "depth": 0,
                                "name": "Executed Gas",
                                "value": 75779
                            }
                        ],
                        "depth": -1,
                        "name": "Actual Gas Used",
                        "value": 99035
                    },
                    {
                        "children": [],
                        "depth": -1,
                        "name": "Refunded Gas",
                        "value": 0
                    }
                ],
                "depth": -2,
                "name": "Total Gas",
                "value": 99035
            }
        ],
        "isConfirmed": true,
        "mainTrace": [
            {
                "children": [
                    {
                        "children": [
                            {
                                "children": [],
                                "depth": 1,
                                "id": 1,
                                "order": 1
                            }
                        ],
                        "depth": 0,
                        "id": 0,
                        "order": 0
                    }
                ],
                "depth": -1,
                "id": -1,
                "order": -1
            }
        ],
        "mainTraceNodeCount": 2,
        "parentIdMap": {
            "0": -1,
            "1": 0
        },
        "tidyTrace": [
            {
                "children": [
                    {
                        "children": [
                            {
                                "children": [],
                                "depth": 1,
                                "id": 1,
                                "order": 1
                            }
                        ],
                        "depth": 0,
                        "id": 0,
                        "order": 0
                    }
                ],
                "depth": -1,
                "id": -1,
                "order": -1
            }
        ],
        "tidyTraceNodeCount": 2
    },
    "state_change": {
        "stateChanges": [
            {
                "address": "0xba7435a4b4c747e0101780073eeda872a69bdcd4",
                "erc": "",
                "slots": [
                    {
                        "current": "0x0000000000000000000000000000000000000000000001fe7ccf925f02b6d9f2",
                        "key": "0x93ac56d7bed897cd6b0f25a4d3efbcca027eccd733d2347127af4a6fb2fd8999",
                        "prev": "0x00000000000000000000000000000000000000000000014aae8170d09ad00000"
                    },
                    {
                        "current": "0x00000000000000000000000000000000000000000000005c9d09beee12d07037",
                        "key": "0x0000000000000000000000000000000000000000000000000000000000000005",
                        "prev": "0x00000000000000000000000000000000000000000000005c9d0bc0cdb82669bb"
                    },
                    {
                        "current": "0x0000000000000000000000000000000000000000e71d417eecbec5410b90747a",
                        "key": "0x0000000000000000000000000000000000000000000000000000000000000004",
                        "prev": "0x0000000000000000000000000000000000000000e71d3f806ff134c1ae2f940c"
                    },
                    {
                        "current": "0x0000000000000000000000000000000000000000000000000000000000000001",
                        "key": "0x8bfb9c3447d7efb2ef3ebbe9273e3f9c4af9792329b639e6f93b5e635ac91fa9",
                        "prev": "0x0000000000000000000000000000000000000000000000000000000000000000"
                    },
                    {
                        "current": "0x0000000000000000000000000000000000000000000001fe7db46829ed1b0b66",
                        "key": "0xb2e8d787187a03b215d32d9ef6919532326e106dd99642b9478d7261bfbcab57",
                        "prev": "0x0000000000000000000000000000000000000000000000b3cf32f759524b0b66"
                    }
                ],
                "storageVariables": []
            }
        ]
    }
}