{
    "balance_change": {
        "balanceChanges": []
    },
    "profile": {
        "basic_info": {
            "baseFee": "",
            "blockNumber": 4451912,
            "callData": "0x0a19b14a000000000000000000000000000000000000000000000000000000000000000000000000000000000000000000000000000000000000000000b1a2bc2ec50000000000000000000000000000539efe69bcdd21a83efd9122571a64cc25e0282b000000000000000000000000000000000000000000000000000000174876e80000000000000000000000000000000000000000000000000000000000004407cb00000000000000000000000000000000000000000000000000000000b7c74d190000000000000000000000006b0e64941c86f362f0df00a9b6bf30fb9fdd65f0000000000000000000000000000000000000000000000000000000000000001beb861f3108516fd6a6af37649612ba5bf6aa15c2858729869586c9801954b1e86c8e5f1082de83122fe2a47830efa11d7ac9b95ecd79b717f01688ee00a41ea500000000000000000000000000000000000000000000000000b1a2bc2ec50000",
            "debugEnable": true,
            "errorInfo": "",
            "eventCount": 1,
            "feeRecipient": "0x6a7a43be33ba930fe58f34e07d0ad6ba7adb9b1f",
            "formatValue": "0",
            "gasLimit": 250000,
            "gasPrice": "60",
            "gasUsed": 92602,
            "intTxnCount": 2,
            "internalRevert": false,
            "internalRevertMessage": "",
            "isContractCreation": false,
            "isFlashloan": false,
            "maxFee": "",
            "nonce": 29,
            "overwritedBlockNumber": -1,
            "priorityFee": "",
            "receiver": "0x8d12a197cb00d4747a1fe03395095ce2a5cc6819",
            "revertMessage": "",
            "sender": "0xdc37dc8464153bcd37297bb311976832f31e2ab2",
            "simulationEnable": true,
            "sourceTxnHash": "0x6f47b1e2ef3e9806f5b161e37e85a4c220af40d50032517eee006c5394a07f0f",
            "status": true,
            "timestamp": "2017-10-29T13:37:57Z",
            "transactionFee": "0.00555612",
            "txnHash": "0x6f47b1e2ef3e9806f5b161e37e85a4c220af40d50032517eee006c5394a07f0f",
            "txnIndex": 5,
            "type": 0,
            "value": "0"
        },
        "fund_flow": [],
        "token_infos": [
            {
                "address": "0xc02aaa39b223fe8d0a0e5c4f27ead9083c756cc2",
                "decimals": 18
            },
            {
                "address": "0xeeeeeeeeeeeeeeeeeeeeeeeeeeeeeeeeeeeeeeee",
                "decimals": 18
            }
        ]
    },
    "address_label": {
        "labels": [
            {
                "address": "0xeeeeeeeeeeeeeeeeeeeeeeeeeeeeeeeeeeeeeeee",
                "label": "Ether"
            },
            {
                "address": "0x8d12a197cb00d4747a1fe03395095ce2a5cc6819",
                "label": "EtherDelta"
            },
            {
                "address": "0x0000000000000000000000000000000000000002",
                "label": "Precompiled"
            },
            {
                "address": "0x0000000000000000000000000000000000000000",
                "label": "Null Address"
            },
            {
                "address": "0x539efe69bcdd21a83efd9122571a64cc25e0282b",
                "label": "Ethereum Blue Token"
            },
            {
                "address": "0x0000000000000000000000000000000000000001",
                "label": "Precompiled"
            },
            {
                "address": "0x0000000000000000000000000000000000000003",
                "label": "Precompiled"
            },
            {
                "address": "0x0000000000000000000000000000000000000004",
                "label": "Precompiled"
            }
        ]
    },
    "trace": {
        "accountLabels": null,
        "dataMap": {
            "-1": {
                "invocation": {
                    "address": "0xdc37dc8464153bcd37297bb311976832f31e2ab2",
                    "callData": "",
                    "decodedMethod": null,
                    "errorInfo": "",
                    "fromAddress": "",
                    "gasUsed": 0,
                    "id": -1,
                    "methodDecoded": false,
                    "operation": "",
                    "output": "",
                    "revert": false,
                    "revertMessage": "",
                    "selector": "",
                    "status": false,
                    "value": ""
                },
                "nodeType": 0
            },
            "0": {
                "invocation": {
                    "address": "0x8d12a197cb00d4747a1fe03395095ce2a5cc6819",
                    "callData": "0x000000000000000000000000000000000000000000000000000000000000000000000000000000000000000000000000000000000000000000b1a2bc2ec50000000000000000000000000000539efe69bcdd21a83efd9122571a64cc25e0282b000000000000000000000000000000000000000000000000000000174876e80000000000000000000000000000000000000000000000000000000000004407cb00000000000000000000000000000000000000000000000000000000b7c74d190000000000000000000000006b0e64941c86f362f0df00a9b6bf30fb9fdd65f0000000000000000000000000000000000000000000000000000000000000001beb861f3108516fd6a6af37649612ba5bf6aa15c2858729869586c9801954b1e86c8e5f1082de83122fe2a47830efa11d7ac9b95ecd79b717f01688ee00a41ea500000000000000000000000000000000000000000000000000b1a2bc2ec50000",
                    "decodedMethod": {
                        "callParams": [
                            {
                                "name": "tokenGet",
                                "type": "address",
                                "value": "0x0000000000000000000000000000000000000000"
                            },
                            {
                                "name": "amountGet",
                                "type": "uint256",
                                "value": "50,000,000,000,000,000"
                            },
                            {
                                "name": "tokenGive",
                                "type": "address",
                                "value": "0x539efe69bcdd21a83efd9122571a64cc25e0282b"
                            },
                            {
                                "name": "amountGive",
                                "type": "uint256",
                                "value": "100,000,000,000"
                            },
                            {
                                "name": "expires",
                                "type": "uint256",
                                "value": "4,458,443"
                            },
                            {
                                "name": "nonce",
                                "type": "uint256",
                                "value": "3,083,291,929"
                            },
                            {
                                "name": "user",
                                "type": "address",
                                "value": "0x6b0e64941c86f362f0df00a9b6bf30fb9fdd65f0"
                            },
                            {
                                "name": "v",
                                "type": "uint8",
                                "value": "27"
                            },
                            {
                                "name": "r",
                                "type": "bytes32",
                                "value": "0xeb861f3108516fd6a6af37649612ba5bf6aa15c2858729869586c9801954b1e8"
                            },
                            {
                                "name": "s",
                                "type": "bytes32",
                                "value": "0x6c8e5f1082de83122fe2a47830efa11d7ac9b95ecd79b717f01688ee00a41ea5"
                            },
                            {
                                "name": "amount",
                                "type": "uint256",
                                "value": "50,000,000,000,000,000"
                            }
                        ],
                        "constructorArguments": "",
                        "name": "trade",
                        "returnParams": [],
                        "signature": "trade(address,uint256,address,uint256,uint256,uint256,address,uint8,bytes32,bytes32,uint256)"
                    },
                    "errorInfo": "",
                    "fromAddress": "0xdc37dc8464153bcd37297bb311976832f31e2ab2",
                    "gasUsed": 92602,
                    "id": 0,
                    "methodDecoded": true,
                    "operation": "CALL",
                    "output": "",
                    "revert": false,
                    "revertMessage": "",
                    "selector": "0x0a19b14a",
                    "status": true,
                    "value": "0"
                },
                "nodeType": 0
            },
            "1": {
                "invocation": {
                    "address": "0x0000000000000000000000000000000000000002",
                    "callData": "0xcb00d4747a1fe03395095ce2a5cc6819000000000000000000000000000000000000000000000000000000000000000000000000000000000000000000b1a2bc2ec50000539efe69bcdd21a83efd9122571a64cc25e0282b000000000000000000000000000000000000000000000000000000174876e80000000000000000000000000000000000000000000000000000000000004407cb00000000000000000000000000000000000000000000000000000000b7c74d19",
                    "decodedMethod": {
                        "callParams": [
                            {
                                "name": "data",
                                "type": "bytes",
                                "value": "0x8d12a197cb00d4747a1fe03395095ce2a5cc6819000000000000000000000000000000000000000000000000000000000000000000000000000000000000000000b1a2bc2ec50000539efe69bcdd21a83efd9122571a64cc25e0282b000000000000000000000000000000000000000000000000000000174876e80000000000000000000000000000000000000000000000000000000000004407cb00000000000000000000000000000000000000000000000000000000b7c74d19"
                            }
                        ],
                        "constructorArguments": "",
                        "name": "sha256hash",
                        "returnParams": [
                            {
                                "name": "hash",
                                "type": "bytes32",
                                "value": "0x124f5ca3d5f14296e3ad38b062ae60ce98a23fe537e37d9b6f0c29e07e202c91"
                            }
                        ],
                        "signature": "sha256hash(bytes)"
                    },
                    "errorInfo": "",
                    "fromAddress": "0x8d12a197cb00d4747a1fe03395095ce2a5cc6819",
                    "gasUsed": 132,
                    "id": 1,
                    "methodDecoded": true,
                    "operation": "CALL",
                    "output": "0x124f5ca3d5f14296e3ad38b062ae60ce98a23fe537e37d9b6f0c29e07e202c91",
                    "revert": false,
                    "revertMessage": "",
                    "selector": "0x8d12a197",
                    "status": true,
                    "value": "0"
                },
                "nodeType": 0
            },
            "2": {
                "invocation": {
                    "address": "0x0000000000000000000000000000000000000001",
                    "callData": "0xc613f66a8bb01c44697e2fa335b9e82c4b9ed7494c999a670dcc9fd6000000000000000000000000000000000000000000000000000000000000001beb861f3108516fd6a6af37649612ba5bf6aa15c2858729869586c9801954b1e86c8e5f1082de83122fe2a47830efa11d7ac9b95ecd79b717f01688ee00a41ea5",
                    "decodedMethod": {
                        "callParams": [
                            {
                                "name": "hash",
                                "type": "bytes32",
                                "value": "0x3f3e4a0bc613f66a8bb01c44697e2fa335b9e82c4b9ed7494c999a670dcc9fd6"
                            },
                            {
                                "name": "v",
                                "type": "uint256",
                                "value": "27"
                            },
                            {
                                "name": "r",
                                "type": "bytes32",
                                "value": "0xeb861f3108516fd6a6af37649612ba5bf6aa15c2858729869586c9801954b1e8"
                            },
                            {
                                "name": "s",
                                "type": "bytes32",
                                "value": "0x6c8e5f1082de83122fe2a47830efa11d7ac9b95ecd79b717f01688ee00a41ea5"
                            }
                        ],
                        "constructorArguments": "",
                        "name": "ecrecover",
                        "returnParams": [
                            {
                                "name": "",
                                "type": "address",
                                "value": "0x6b0e64941c86f362f0df00a9b6bf30fb9fdd65f0"
                            }
                        ],
                        "signature": "ecrecover(bytes32,uint256,bytes32,bytes32)"
                    },
                    "errorInfo": "",
                    "fromAddress": "0x8d12a197cb00d4747a1fe03395095ce2a5cc6819",
                    "gasUsed": 3000,
                    "id": 2,
                    "methodDecoded": true,
                    "operation": "CALL",
                    "output": "0x0000000000000000000000006b0e64941c86f362f0df00a9b6bf30fb9fdd65f0",
                    "revert": false,
                    "revertMessage": "",
                    "selector": "0x3f3e4a0b",
                    "status": true,
                    "value": "0"
                },
                "nodeType": 0
            },
            "3": {
                "event": {
                    "contract": "0x8d12a197cb00d4747a1fe03395095ce2a5cc6819",
                    "decodedLog": {
                        "name": "Trade",
                        "params": [
                            {
                                "name": "tokenGet",
                                "type": "address",
                                "value": "0x0000000000000000000000000000000000000000"
                            },
                            {
                                "name": "amountGet",
                                "type": "uint256",
                                "value": "50,000,000,000,000,000"
                            },
                            {
                                "name": "tokenGive",
                                "type": "address",
                                "value": "0x539efe69bcdd21a83efd9122571a64cc25e0282b"
                            },
                            {
                                "name": "amountGive",
                                "type": "uint256",
                                "value": "100,000,000,000"
                            },
                            {
                                "name": "get",
                                "type": "address",
                                "value": "0x6b0e64941c86f362f0df00a9b6bf30fb9fdd65f0"
                            },
                            {
                                "name": "give",
                                "type": "address",
                                "value": "0xdc37dc8464153bcd37297bb311976832f31e2ab2"
                            }
                        ],
                        "signature": "Trade(address,uint256,address,uint256,address,address)"
                    },
                    "id": 3,
                    "logData": "0x000000000000000000000000000000000000000000000000000000000000000000000000000000000000000000000000000000000000000000b1a2bc2ec50000000000000000000000000000539efe69bcdd21a83efd9122571a64cc25e0282b000000000000000000000000000000000000000000000000000000174876e8000000000000000000000000006b0e64941c86f362f0df00a9b6bf30fb9fdd65f0000000000000000000000000dc37dc8464153bcd37297bb311976832f31e2ab2",
                    "logDecoded": true,
                    "operation": "EVENT",
                    "revert": false,
                    "status": true,
                    "topics": [
                        "0x6effdda786735d5033bfad5f53e5131abcced9e52be6c507b62d639685fbed6d"
                    ]
                },
                "nodeType": 1
            }
        },
        "gasFlame": [
            {
                "children": [
                    {
                        "children": [
                            {
                                "children": [],
                                "depth": 0,
                                "name": "Initial Gas",
                                "value": 30616
                            },
                            {
                                "children": [
                                    {
                                        "children": [],
                                        "depth": 1,
                                        "name": "sha256hash",
                                        "value": 132
                                    },
                                    {
                                        "children": [],
                                        "depth": 1,
                                        "name": "ecrecover",
                                        "value": 3000
                                    }
                                ],
                                "depth": 0,
                                "name": "Executed Gas",
                                "value": 76986
                            }
                        ],
                        "depth": -1,
                        "name": "Actual Gas Used",
                        "value": 92602
                    },
                    {
                        "children": [],
                        "depth": -1,
                        "name": "Refunded Gas",
                        "value": 15000
                    }
                ],
                "depth": -2,
                "name": "Total Gas",
                "value": 107602
            }
        ],
        "isConfirmed": true,
        "mainTrace": [
            {
                "children": [
                    {
                        "children": [
                            {
                                "children": [],
                                "depth": 1,
                                "id": 1,
                                "order": 1
                            },
                            {
                                "children": [],
                                "depth": 1,
                                "id": 2,
                                "order": 2
                            },
                            {
                                "children": [],
                                "depth": 1,
                                "id": 3,
                                "order": 3
                            }
                        ],
                        "depth": 0,
                        "id": 0,
                        "order": 0
                    }
                ],
                "depth": -1,
                "id": -1,
                "order": -1
            }
        ],
        "mainTraceNodeCount": 4,
        "parentIdMap": {
            "0": -1,
            "1": 0,
            "2": 0,
            "3": 0
        },
        "tidyTrace": [
            {
                "children": [
                    {
                        "children": [
                            {
                                "children": [],
                                "depth": 1,
                                "id": 1,
                                "order": 1
                            },
                            {
                                "children": [],
                                "depth": 1,
                                "id": 2,
                                "order": 2
                            },
                            {
                                "children": [],
                                "depth": 1,
                                "id": 3,
                                "order": 3
                            }
                        ],
                        "depth": 0,
                        "id": 0,
                        "order": 0
                    }
                ],
                "depth": -1,
                "id": -1,
                "order": -1
            }
        ],
        "tidyTraceNodeCount": 4
    },
    "state_change": {
        "stateChanges": [
            {
                "address": "0x8d12a197cb00d4747a1fe03395095ce2a5cc6819",
                "erc": "",
                "slots": [
                    {
                        "current": "0x00000000000000000000000000000000000000000000000000b1a2bc2ec50000",
                        "key": "0x5bd6378f1cda3de64637277cc7bdd0ae6fadd1ccc8736ebd97b1f835a9928021",
                        "prev": "0x0000000000000000000000000000000000000000000000000000000000000000"
                    },
                    {
                        "current": "0x0000000000000000000000000000000000000000000000002d083feb91ea0572",
                        "key": "0x9e5bfce8d4482ba79cddfa5c24e11fe5b0a17dbf32d8796271882d27ca9dd801",
                        "prev": "0x0000000000000000000000000000000000000000000000002dba6b1459666572"
                    },
                    {
                        "current": "0x00000000000000000000000000000000000000000000000000b1a2bc2ec50000",
                        "key": "0x9e657aa10df1c34946e7e0b3f4b1a59e4a4716aea66365d812ada8dfefafc742",
                        "prev": "0x0000000000000000000000000000000000000000000000000000000000000000"
                    },
                    {
                        "current": "0x00000000000000000000000000000000000000000000000128efb4e777104b3f",
                        "key": "0x9db71ea29ae27159ae6b0bc7608a91ca5e83d8e7e559f64559591e0344fb950e",
                        "prev": "0x00000000000000000000000000000000000000000000000128ef2c7ade58eb3f"
                    },
                    {
                        "current": "0x0000000000000000000000000000000000000000000000000000000000000000",
                        "key": "0x3565d637ebf50ab2db1734fcd9aad55113d402b37d1bdd82a6896ce8ec08f994",
                        "prev": "0x000000000000000000000000000000000000000000000000000000174876e800"
                    },
                    {
                        "current": "0x000000000000000000000000000000000000000000000000000002dd06dcbc0d",
                        "key": "0xa83ffdaf3b811c457cf4e288f2fb1d0c9b381317dbee5963b3a4e4c5097f460c",
                        "prev": "0x000000000000000000000000000000000000000000000000000002c5be65d40d"
                    }
                ],
                "storageVariables": []
            }
        ]
    }
}