{
    "balance_change": {
        "balanceChanges": [
            {
                "account": "0x22f65b617ab464ec3a98ef59073d47efaab38082",
                "assets": [
                    {
                        "address": "0x5ba27d17821f9ac041b648fe9f90ec40abb8c3c2",
                        "amount": "1",
                        "iconUrl": "",
                        "isERC1155": true,
                        "isERC721": false,
                        "sign": true,
                        "tokenID": "30",
                        "value": ""
                    }
                ]
            },
            {
                "account": "0x0000000000000000000000000000000000000000",
                "assets": [
                    {
                        "address": "0x5ba27d17821f9ac041b648fe9f90ec40abb8c3c2",
                        "amount": "1",
                        "iconUrl": "",
                        "isERC1155": true,
                        "isERC721": false,
                        "sign": false,
                        "tokenID": "30",
                        "value": ""
                    }
                ]
            }
        ]
    },
    "profile": {
        "basic_info": {
            "baseFee": "34.379043598",
            "blockNumber": 16686677,
            "callData": "0xfa2b068f0000000000000000000000005ba27d17821f9ac041b648fe9f90ec40abb8c3c200000000000000000000000000000000000000000000000000000000207758f0000000000000000000000000000000000000000000000000000000000000005d00000000000000000000000000000000000000000000000000000000000000a000000000000000000000000022f65b617ab464ec3a98ef59073d47efaab38082000000000000000000000000000000000000000000000000000000000000000cfcda4db9dfebc0ccfae59ae6eefb28e0bd23e9b45464da33dd55c026cf88d4a1e4f6c12088eb77c7f653098fdfa5f1177e0f882944b243a6fd1290fe63d9be875edb37946e2cf7942ea72c6db9196b711ea26219e7c387b2d12a3877b0c02b8185aa10127ab89a695b510f68e0e24cf7311531a2d633f3aafef1609abe96a7b446b2e8a4a7e3c8c6656df0fc77e0fe3bb0da756c18753921a612a35108172b2e596a1649cc88d99bbcd760e70beaed25de341d0ae34e0b1515047c0340b73fccb06b856360152b93070622356037494664eb5b5896794d70cd5b0ce294b3cc523811fd6302406741fadf18f0ff901bc06da2b04941bd201a23c9d12dc779b429088b398e5c05b939257b485368ab3e3a781f1b6701095deb3728434e71b77f5c28b60552f42f14f3605b43f5d15cee58153e1578f7d173f9c9fb4d98d5c85e5225a990474f22ecb72f55d989ec5ad1aef85a51127ffd74e2be4ecf172623f0d816f0b8c59d1dad049ffc417a38a7d95d207d07816f9fc5848b9ef1e6e00a50f6",
            "debugEnable": true,
            "errorInfo": "",
            "eventCount": 2,
            "feeRecipient": "0x9f4b4ceca7ace96834bd2fcc961c772de7cb481a",
            "formatValue": "0",
            "gasLimit": 156213,
            "gasPrice": "34.879043598",
            "gasUsed": 117195,
            "intTxnCount": 3,
            "internalRevert": false,
            "internalRevertMessage": "",
            "isContractCreation": false,
            "isFlashloan": false,
            "maxFee": "50.06101275",
            "nonce": 65,
            "overwritedBlockNumber": -1,
            "priorityFee": "0.5",
            "receiver": "0x44e94034afce2dd3cd5eb62528f239686fc8f162",
            "revertMessage": "",
            "sender": "0x22f65b617ab464ec3a98ef59073d47efaab38082",
            "simulationEnable": true,
            "sourceTxnHash": "0x70f7209f754219bdc55cc1f33ea754c3d7726f76d706fd9f592dbf0d3b5f2077",
            "status": true,
            "timestamp": "2023-02-22T21:34:59Z",
            "transactionFee": "0.00408764951446761",
            "txnHash": "0x70f7209f754219bdc55cc1f33ea754c3d7726f76d706fd9f592dbf0d3b5f2077",
            "txnIndex": 9,
            "type": 2,
            "value": "0"
        },
        "fund_flow": [
            {
                "amount": "1",
                "from": "0x0000000000000000000000000000000000000000",
                "id": 1,
                "isERC1155": true,
                "isERC721": false,
                "isReverted": false,
                "order": 1,
                "to": "0x22f65b617ab464ec3a98ef59073d47efaab38082",
                "token": "0x5ba27d17821f9ac041b648fe9f90ec40abb8c3c2",
                "tokenID": "30"
            }
        ],
        "token_infos": [
            {
                "address": "0xeeeeeeeeeeeeeeeeeeeeeeeeeeeeeeeeeeeeeeee",
                "decimals": 18
            },
            {
                "address": "0xc02aaa39b223fe8d0a0e5c4f27ead9083c756cc2",
                "decimals": 18
            }
        ]
    },
    "address_label": {
        "labels": [
            {
                "address": "0x02eb75be1e72e988de64f0088d654d8ea1081e87",
                "label": "XRAY by SABET: Deployer"
            },
            {
                "address": "0x44e94034afce2dd3cd5eb62528f239686fc8f162",
                "label": "Manifold: Lazy Claim"
            },
            {
                "address": "0x0000000000000000000000000000000000000001",
                "label": "Precompiled"
            },
            {
                "address": "0x0000000000000000000000000000000000000002",
                "label": "Precompiled"
            },
            {
                "address": "0xeeeeeeeeeeeeeeeeeeeeeeeeeeeeeeeeeeeeeeee",
                "label": "Ether"
            },
            {
                "address": "0x5ba27d17821f9ac041b648fe9f90ec40abb8c3c2",
                "label": "ERC1155"
            },
            {
                "address": "0x142fd5b9d67721efda3a5e2e9be47a96c9b724a4",
                "label": "ERC1155CreatorImplementation"
            },
            {
                "address": "0x0000000000000000000000000000000000000003",
                "label": "Precompiled"
            },
            {
                "address": "0x0000000000000000000000000000000000000004",
                "label": "Precompiled"
            }
        ]
    },
    "trace": {
        "accountLabels": null,
        "dataMap": {
            "-1": {
                "invocation": {
                    "address": "0x22f65b617ab464ec3a98ef59073d47efaab38082",
                    "callData": "",
                    "decodedMethod": null,
                    "errorInfo": "",
                    "fromAddress": "",
                    "gasUsed": 0,
                    "id": -1,
                    "methodDecoded": false,
                    "operation": "",
                    "output": "",
                    "revert": false,
                    "revertMessage": "",
                    "selector": "",
                    "status": false,
                    "value": ""
                },
                "nodeType": 0
            },
            "0": {
                "invocation": {
                    "address": "0x44e94034afce2dd3cd5eb62528f239686fc8f162",
                    "callData": "0x0000000000000000000000005ba27d17821f9ac041b648fe9f90ec40abb8c3c200000000000000000000000000000000000000000000000000000000207758f0000000000000000000000000000000000000000000000000000000000000005d00000000000000000000000000000000000000000000000000000000000000a000000000000000000000000022f65b617ab464ec3a98ef59073d47efaab38082000000000000000000000000000000000000000000000000000000000000000cfcda4db9dfebc0ccfae59ae6eefb28e0bd23e9b45464da33dd55c026cf88d4a1e4f6c12088eb77c7f653098fdfa5f1177e0f882944b243a6fd1290fe63d9be875edb37946e2cf7942ea72c6db9196b711ea26219e7c387b2d12a3877b0c02b8185aa10127ab89a695b510f68e0e24cf7311531a2d633f3aafef1609abe96a7b446b2e8a4a7e3c8c6656df0fc77e0fe3bb0da756c18753921a612a35108172b2e596a1649cc88d99bbcd760e70beaed25de341d0ae34e0b1515047c0340b73fccb06b856360152b93070622356037494664eb5b5896794d70cd5b0ce294b3cc523811fd6302406741fadf18f0ff901bc06da2b04941bd201a23c9d12dc779b429088b398e5c05b939257b485368ab3e3a781f1b6701095deb3728434e71b77f5c28b60552f42f14f3605b43f5d15cee58153e1578f7d173f9c9fb4d98d5c85e5225a990474f22ecb72f55d989ec5ad1aef85a51127ffd74e2be4ecf172623f0d816f0b8c59d1dad049ffc417a38a7d95d207d07816f9fc5848b9ef1e6e00a50f6",
                    "decodedMethod": {
                        "callParams": [
                            {
                                "name": "creatorContractAddress",
                                "type": "address",
                                "value": "0x5ba27d17821f9ac041b648fe9f90ec40abb8c3c2"
                            },
                            {
                                "name": "claimIndex",
                                "type": "uint256",
                                "value": "544,692,464"
                            },
                            {
                                "name": "mintIndex",
                                "type": "uint32",
                                "value": "93"
                            },
                            {
                                "name": "merkleProof",
                                "type": "bytes32[]",
                                "value": [
                                    "0xfcda4db9dfebc0ccfae59ae6eefb28e0bd23e9b45464da33dd55c026cf88d4a1",
                                    "0xe4f6c12088eb77c7f653098fdfa5f1177e0f882944b243a6fd1290fe63d9be87",
                                    "0x5edb37946e2cf7942ea72c6db9196b711ea26219e7c387b2d12a3877b0c02b81",
                                    "0x85aa10127ab89a695b510f68e0e24cf7311531a2d633f3aafef1609abe96a7b4",
                                    "0x46b2e8a4a7e3c8c6656df0fc77e0fe3bb0da756c18753921a612a35108172b2e",
                                    "0x596a1649cc88d99bbcd760e70beaed25de341d0ae34e0b1515047c0340b73fcc",
                                    "0xb06b856360152b93070622356037494664eb5b5896794d70cd5b0ce294b3cc52",
                                    "0x3811fd6302406741fadf18f0ff901bc06da2b04941bd201a23c9d12dc779b429",
                                    "0x088b398e5c05b939257b485368ab3e3a781f1b6701095deb3728434e71b77f5c",
                                    "0x28b60552f42f14f3605b43f5d15cee58153e1578f7d173f9c9fb4d98d5c85e52",
                                    "0x25a990474f22ecb72f55d989ec5ad1aef85a51127ffd74e2be4ecf172623f0d8",
                                    "0x16f0b8c59d1dad049ffc417a38a7d95d207d07816f9fc5848b9ef1e6e00a50f6"
                                ]
                            },
                            {
                                "name": "mintFor",
                                "type": "address",
                                "value": "0x22f65b617ab464ec3a98ef59073d47efaab38082"
                            }
                        ],
                        "constructorArguments": "",
                        "name": "mint",
                        "returnParams": [],
                        "signature": "mint(address,uint256,uint32,bytes32[],address)"
                    },
                    "errorInfo": "",
                    "fromAddress": "0x22f65b617ab464ec3a98ef59073d47efaab38082",
                    "gasUsed": 117195,
                    "id": 0,
                    "methodDecoded": true,
                    "operation": "CALL",
                    "output": "",
                    "revert": false,
                    "revertMessage": "",
                    "selector": "0xfa2b068f",
                    "status": true,
                    "value": "0"
                },
                "nodeType": 0
            },
            "1": {
                "invocation": {
                    "address": "0x5ba27d17821f9ac041b648fe9f90ec40abb8c3c2",
                    "callData": "0x000000000000000000000000000000000000000000000000000000000000006000000000000000000000000000000000000000000000000000000000000000a000000000000000000000000000000000000000000000000000000000000000e0000000000000000000000000000000000000000000000000000000000000000100000000000000000000000022f65b617ab464ec3a98ef59073d47efaab380820000000000000000000000000000000000000000000000000000000000000001000000000000000000000000000000000000000000000000000000000000001e00000000000000000000000000000000000000000000000000000000000000010000000000000000000000000000000000000000000000000000000000000001",
                    "decodedMethod": {
                        "callParams": [
                            {
                                "name": "to",
                                "type": "address[]",
                                "value": [
                                    "0x22f65b617ab464ec3a98ef59073d47efaab38082"
                                ]
                            },
                            {
                                "name": "tokenIds",
                                "type": "uint256[]",
                                "value": [
                                    "30"
                                ]
                            },
                            {
                                "name": "amounts",
                                "type": "uint256[]",
                                "value": [
                                    "1"
                                ]
                            }
                        ],
                        "constructorArguments": "",
                        "name": "mintExtensionExisting",
                        "returnParams": [],
                        "signature": "mintExtensionExisting(address[],uint256[],uint256[])"
                    },
                    "errorInfo": "",
                    "fromAddress": "0x44e94034afce2dd3cd5eb62528f239686fc8f162",
                    "gasUsed": 52910,
                    "id": 1,
                    "methodDecoded": true,
                    "operation": "CALL",
                    "output": "",
                    "revert": false,
                    "revertMessage": "",
                    "selector": "0xe6c884dc",
                    "status": true,
                    "value": "0"
                },
                "nodeType": 0
            },
            "2": {
                "invocation": {
                    "address": "0x142fd5b9d67721efda3a5e2e9be47a96c9b724a4",
                    "callData": "0x000000000000000000000000000000000000000000000000000000000000006000000000000000000000000000000000000000000000000000000000000000a000000000000000000000000000000000000000000000000000000000000000e0000000000000000000000000000000000000000000000000000000000000000100000000000000000000000022f65b617ab464ec3a98ef59073d47efaab380820000000000000000000000000000000000000000000000000000000000000001000000000000000000000000000000000000000000000000000000000000001e00000000000000000000000000000000000000000000000000000000000000010000000000000000000000000000000000000000000000000000000000000001",
                    "decodedMethod": {
                        "callParams": [
                            {
                                "name": "to",
                                "type": "address[]",
                                "value": [
                                    "0x22f65b617ab464ec3a98ef59073d47efaab38082"
                                ]
                            },
                            {
                                "name": "tokenIds",
                                "type": "uint256[]",
                                "value": [
                                    "30"
                                ]
                            },
                            {
                                "name": "amounts",
                                "type": "uint256[]",
                                "value": [
                                    "1"
                                ]
                            }
                        ],
                        "constructorArguments": "",
                        "name": "mintExtensionExisting",
                        "returnParams": [],
                        "signature": "mintExtensionExisting(address[],uint256[],uint256[])"
                    },
                    "errorInfo": "",
                    "fromAddress": "0x5ba27d17821f9ac041b648fe9f90ec40abb8c3c2",
                    "gasUsed": 47943,
                    "id": 2,
                    "methodDecoded": true,
                    "operation": "DELEGATECALL",
                    "output": "",
                    "revert": false,
                    "revertMessage": "",
                    "selector": "0xe6c884dc",
                    "status": true,
                    "value": "0"
                },
                "nodeType": 0
            },
            "3": {
                "event": {
                    "contract": "0x5ba27d17821f9ac041b648fe9f90ec40abb8c3c2",
                    "decodedLog": {
                        "name": "TransferSingle",
                        "params": [
                            {
                                "name": "operator",
                                "type": "address",
                                "value": "0x44e94034afce2dd3cd5eb62528f239686fc8f162"
                            },
                            {
                                "name": "from",
                                "type": "address",
                                "value": "0x0000000000000000000000000000000000000000"
                            },
                            {
                                "name": "to",
                                "type": "address",
                                "value": "0x22f65b617ab464ec3a98ef59073d47efaab38082"
                            },
                            {
                                "name": "id",
                                "type": "uint256",
                                "value": "30"
                            },
                            {
                                "name": "value",
                                "type": "uint256",
                                "value": "1"
                            }
                        ],
                        "signature": "TransferSingle(address,address,address,uint256,uint256)"
                    },
                    "id": 3,
                    "logData": "0x000000000000000000000000000000000000000000000000000000000000001e0000000000000000000000000000000000000000000000000000000000000001",
                    "logDecoded": true,
                    "operation": "EVENT",
                    "revert": false,
                    "status": true,
                    "topics": [
                        "0xc3d58168c5ae7397731d063d5bbf3d657854427343f4c083240f7aacaa2d0f62",
                        "0x00000000000000000000000044e94034afce2dd3cd5eb62528f239686fc8f162",
                        "0x0000000000000000000000000000000000000000000000000000000000000000",
                        "0x00000000000000000000000022f65b617ab464ec3a98ef59073d47efaab38082"
                    ]
                },
                "nodeType": 1
            },
            "4": {
                "invocation": {
                    "address": "0x02eb75be1e72e988de64f0088d654d8ea1081e87",
                    "callData": "0x",
                    "decodedMethod": null,
                    "errorInfo": "",
                    "fromAddress": "0x44e94034afce2dd3cd5eb62528f239686fc8f162",
                    "gasUsed": 0,
                    "id": 4,
                    "methodDecoded": false,
                    "operation": "CALL",
                    "output": "",
                    "revert": false,
                    "revertMessage": "",
                    "selector": "fallback",
                    "status": true,
                    "value": "0"
                },
                "nodeType": 0
            },
            "5": {
                "event": {
                    "contract": "0x44e94034afce2dd3cd5eb62528f239686fc8f162",
                    "decodedLog": {
                        "name": "ClaimMint",
                        "params": [
                            {
                                "name": "creatorContract",
                                "type": "address",
                                "value": "0x5ba27d17821f9ac041b648fe9f90ec40abb8c3c2"
                            },
                            {
                                "name": "claimIndex",
                                "type": "uint256",
                                "value": "0"
                            }
                        ],
                        "signature": "ClaimMint(address,uint256)"
                    },
                    "id": 5,
                    "logData": "0x",
                    "logDecoded": true,
                    "operation": "EVENT",
                    "revert": false,
                    "status": true,
                    "topics": [
                        "0x5d404f369772cfab2b65717fca9bc2077efeab89a0dbec036bf0c13783154eb1",
                        "0x0000000000000000000000005ba27d17821f9ac041b648fe9f90ec40abb8c3c2",
                        "0x0000000000000000000000000000000000000000000000000000000000000000"
                    ]
                },
                "nodeType": 1
            }
        },
        "gasFlame": [
            {
                "children": [
                    {
                        "children": [
                            {
                                "children": [],
                                "depth": 0,
                                "name": "Initial Gas",
                                "value": 28540
                            },
                            {
                                "children": [
                                    {
                                        "children": [
                                            {
                                                "children": [],
                                                "depth": 2,
                                                "name": "mintExtensionExisting",
                                                "value": 47943
                                            }
                                        ],
                                        "depth": 1,
                                        "name": "mintExtensionExisting",
                                        "value": 52910
                                    },
                                    {
                                        "children": [],
                                        "depth": 1,
                                        "name": "fallback",
                                        "value": 0
                                    }
                                ],
                                "depth": 0,
                                "name": "Executed Gas",
                                "value": 94255
                            }
                        ],
                        "depth": -1,
                        "name": "Actual Gas Used",
                        "value": 117195
                    },
                    {
                        "children": [],
                        "depth": -1,
                        "name": "Refunded Gas",
                        "value": 5600
                    }
                ],
                "depth": -2,
                "name": "Total Gas",
                "value": 122795
            }
        ],
        "isConfirmed": true,
        "mainTrace": [
            {
                "children": [
                    {
                        "children": [
                            {
                                "children": [
                                    {
                                        "children": [
                                            {
                                                "children": [],
                                                "depth": 3,
                                                "id": 3,
                                                "order": 3
                                            }
                                        ],
                                        "depth": 2,
                                        "id": 2,
                                        "order": 2
                                    }
                                ],
                                "depth": 1,
                                "id": 1,
                                "order": 1
                            },
                            {
                                "children": [],
                                "depth": 1,
                                "id": 4,
                                "order": 4
                            },
                            {
                                "children": [],
                                "depth": 1,
                                "id": 5,
                                "order": 5
                            }
                        ],
                        "depth": 0,
                        "id": 0,
                        "order": 0
                    }
                ],
                "depth": -1,
                "id": -1,
                "order": -1
            }
        ],
        "mainTraceNodeCount": 6,
        "parentIdMap": {
            "0": -1,
            "1": 0,
            "2": 1,
            "3": 2,
            "4": 0,
            "5": 0
        },
        "tidyTrace": [
            {
                "children": [
                    {
                        "children": [
                            {
                                "children": [
                                    {
                                        "children": [
                                            {
                                                "children": [],
                                                "depth": 3,
                                                "id": 3,
                                                "order": 3
                                            }
                                        ],
                                        "depth": 2,
                                        "id": 2,
                                        "order": 2
                                    }
                                ],
                                "depth": 1,
                                "id": 1,
                                "order": 1
                            },
                            {
                                "children": [],
                                "depth": 1,
                                "id": 4,
                                "order": 4
                            },
                            {
                                "children": [],
                                "depth": 1,
                                "id": 5,
                                "order": 5
                            }
                        ],
                        "depth": 0,
                        "id": 0,
                        "order": 0
                    }
                ],
                "depth": -1,
                "id": -1,
                "order": -1
            }
        ],
        "tidyTraceNodeCount": 6
    },
    "state_change": {
        "stateChanges": [
            {
                "address": "0x44e94034afce2dd3cd5eb62528f239686fc8f162",
                "erc": "",
                "slots": [
                    {
                        "current": "0x1000200000200000040025001011000040000011200600084040141500432451",
                        "key": "0xf40623919e3806769b77ac6b7c518782bdce6b3495b9ea8b7d087a1f78a693af",
                        "prev": "0x1000200000200000040025001011000040000011000600084040141500432451"
                    },
                    {
                        "current": "0x0000000000000002000063f71d00000000000000000000000000000000000099",
                        "key": "0xffd698860e17e3dbaed90d422bad33fb2fecf5970e56ffcceab2f7acc53b3642",
                        "prev": "0x0000000000000002000063f71d00000000000000000000000000000000000098"
                    }
                ],
                "storageVariables": [
                    {
                        "name": "_claimMintIndices",
                        "type": "mapping(address => mapping(uint256 => mapping(uint256 => uint256)))",
                        "value": {
                            "pairs": [
                                {
                                    "key": "0x5ba27d17821f9ac041b648fe9f90ec40abb8c3c2",
                                    "value": {
                                        "pairs": [
                                            {
                                                "key": "544692464",
                                                "value": {
                                                    "pairs": [
                                                        {
                                                            "key": "0",
                                                            "value": {
                                                                "current": "7237226433228523548571047681618475509438313762238022430030438831872891102289",
                                                                "prev": "7237226433228523548571047681618475509438313762228118909716155789673698108497",
                                                                "typeTag": 1
                                                            }
                                                        }
                                                    ],
                                                    "typeTag": 4
                                                }
                                            }
                                        ],
                                        "typeTag": 4
                                    }
                                }
                            ],
                            "typeTag": 4
                        }
                    },
                    {
                        "name": "_claims",
                        "type": "mapping(address => mapping(uint256 => struct IERC1155LazyPayableClaim.Claim))",
                        "value": {
                            "pairs": [
                                {
                                    "key": "0x5ba27d17821f9ac041b648fe9f90ec40abb8c3c2",
                                    "value": {
                                        "pairs": [
                                            {
                                                "key": "544692464",
                                                "value": {
                                                    "fields": [
                                                        {
                                                            "name": "total",
                                                            "type": "uint32",
                                                            "value": {
                                                                "current": "153",
                                                                "prev": "152",
                                                                "typeTag": 1
                                                            }
                                                        },
                                                        {
                                                            "name": "totalMax",
                                                            "type": "uint32",
                                                            "value": {
                                                                "current": "0",
                                                                "prev": "0",
                                                                "typeTag": 1
                                                            }
                                                        },
                                                        {
                                                            "name": "walletMax",
                                                            "type": "uint32",
                                                            "value": {
                                                                "current": "0",
                                                                "prev": "0",
                                                                "typeTag": 1
                                                            }
                                                        },
                                                        {
                                                            "name": "startDate",
                                                            "type": "uint48",
                                                            "value": {
                                                                "current": "0",
                                                                "prev": "0",
                                                                "typeTag": 1
                                                            }
                                                        },
                                                        {
                                                            "name": "endDate",
                                                            "type": "uint48",
                                                            "value": {
                                                                "current": "1677139200",
                                                                "prev": "1677139200",
                                                                "typeTag": 1
                                                            }
                                                        },
                                                        {
                                                            "name": "storageProtocol",
                                                            "type": "enum IERC1155LazyPayableClaim.StorageProtocol",
                                                            "value": {
                                                                "current": "2",
                                                                "prev": "2",
                                                                "typeTag": 1
                                                            }
                                                        },
                                                        {
                                                            "name": "location",
                                                            "type": "string",
                                                            "value": {
                                                                "current": "ymvwJ_saa017roISxi3xDyR05PRucdsz95zMuml_5Tc",
                                                                "prev": "ymvwJ_saa017roISxi3xDyR05PRucdsz95zMuml_5Tc",
                                                                "typeTag": 1
                                                            }
                                                        }
                                                    ],
                                                    "typeTag": 3
                                                }
                                            }
                                        ],
                                        "typeTag": 4
                                    }
                                }
                            ],
                            "typeTag": 4
                        }
                    }
                ]
            },
            {
                "address": "0x5ba27d17821f9ac041b648fe9f90ec40abb8c3c2",
                "erc": "ERC-1155",
                "slots": [
                    {
                        "current": "0x0000000000000000000000000000000000000000000000000000000000000001",
                        "key": "0x1f1bfdbdf5562854b8c8a384939bd867dd3d8f636295b9fa78a95d5763d5d0b7",
                        "prev": "0x0000000000000000000000000000000000000000000000000000000000000000"
                    },
                    {
                        "current": "0x0000000000000000000000000000000000000000000000000000000000000099",
                        "key": "0xc419deefad1a9a30bb5bd13475ab053a0ecf66bb76835955bd05a323e46739eb",
                        "prev": "0x0000000000000000000000000000000000000000000000000000000000000098"
                    }
                ],
                "storageVariables": [
                    {
                        "name": "_balances",
                        "type": "mapping(uint256 => mapping(address => uint256))",
                        "value": {
                            "pairs": [
                                {
                                    "key": "30",
                                    "value": {
                                        "pairs": [
                                            {
                                                "key": "0x22f65b617ab464ec3a98ef59073d47efaab38082",
                                                "value": {
                                                    "current": "1",
                                                    "prev": "0",
                                                    "typeTag": 1
                                                }
                                            }
                                        ],
                                        "typeTag": 4
                                    }
                                }
                            ],
                            "typeTag": 4
                        }
                    },
                    {
                        "name": "_totalSupply",
                        "type": "mapping(uint256 => uint256)",
                        "value": {
                            "pairs": [
                                {
                                    "key": "30",
                                    "value": {
                                        "current": "153",
                                        "prev": "152",
                                        "typeTag": 1
                                    }
                                }
                            ],
                            "typeTag": 4
                        }
                    }
                ]
            }
        ]
    }
}