{
    "balance_change": {
        "balanceChanges": [
            {
                "account": "0x9d67b95cfabd472779ce799478c801b065e6b870",
                "assets": [
                    {
                        "address": "0x608f006b6813f97097372d0d31fb0f11d1ca3e4e",
                        "amount": "0.1",
                        "iconUrl": "",
                        "isERC1155": false,
                        "isERC721": false,
                        "sign": false,
                        "value": ""
                    }
                ]
            },
            {
                "account": "0xc82b4b8031281888f19754c3afcf7251a7f37636",
                "assets": [
                    {
                        "address": "0x608f006b6813f97097372d0d31fb0f11d1ca3e4e",
                        "amount": "0.1",
                        "iconUrl": "",
                        "isERC1155": false,
                        "isERC721": false,
                        "sign": true,
                        "value": ""
                    }
                ]
            }
        ]
    },
    "profile": {
        "basic_info": {
            "baseFee": "",
            "blockNumber": 9897456,
            "callData": "0xa9059cbb000000000000000000000000c82b4b8031281888f19754c3afcf7251a7f37636000000000000000000000000000000000000000000000000016345785d8a0000",
            "debugEnable": true,
            "errorInfo": "",
            "eventCount": 1,
            "feeRecipient": "0x5a0b54d5dc17e0aadc383d2db43b0a0d3e029c4c",
            "formatValue": "0",
            "gasLimit": 200000,
            "gasPrice": "8.4",
            "gasUsed": 36959,
            "intTxnCount": 0,
            "internalRevert": false,
            "internalRevertMessage": "",
            "isContractCreation": false,
            "isFlashloan": false,
            "maxFee": "",
            "nonce": 69844,
            "overwritedBlockNumber": -1,
            "priorityFee": "",
            "receiver": "0x608f006b6813f97097372d0d31fb0f11d1ca3e4e",
            "revertMessage": "",
            "sender": "0x9d67b95cfabd472779ce799478c801b065e6b870",
            "simulationEnable": true,
            "sourceTxnHash": "0x70ef1757b7e989133254fe5183e16fa74dc3e0402ebf0aeb3c4335e2af74b130",
            "status": true,
            "timestamp": "2020-04-18T16:23:25Z",
            "transactionFee": "0.0003104556",
            "txnHash": "0x70ef1757b7e989133254fe5183e16fa74dc3e0402ebf0aeb3c4335e2af74b130",
            "txnIndex": 91,
            "type": 0,
            "value": "0"
        },
        "fund_flow": [
            {
                "amount": "0.1",
                "from": "0x9d67b95cfabd472779ce799478c801b065e6b870",
                "id": 1,
                "isERC1155": false,
                "isERC721": false,
                "isReverted": false,
                "order": 1,
                "to": "0xc82b4b8031281888f19754c3afcf7251a7f37636",
                "token": "0x608f006b6813f97097372d0d31fb0f11d1ca3e4e"
            }
        ],
        "token_infos": [
            {
                "address": "0x608f006b6813f97097372d0d31fb0f11d1ca3e4e",
                "decimals": 18
            },
            {
                "address": "0xc02aaa39b223fe8d0a0e5c4f27ead9083c756cc2",
                "decimals": 18
            },
            {
                "address": "0xeeeeeeeeeeeeeeeeeeeeeeeeeeeeeeeeeeeeeeee",
                "decimals": 18
            }
        ]
    },
    "address_label": {
        "labels": [
            {
                "address": "0xeeeeeeeeeeeeeeeeeeeeeeeeeeeeeeeeeeeeeeee",
                "label": "Ether"
            },
            {
                "address": "0x608f006b6813f97097372d0d31fb0f11d1ca3e4e",
                "label": "CryptoAds: Crad Cash"
            },
            {
                "address": "0x0000000000000000000000000000000000000001",
                "label": "Precompiled"
            },
            {
                "address": "0x0000000000000000000000000000000000000002",
                "label": "Precompiled"
            },
            {
                "address": "0x0000000000000000000000000000000000000003",
                "label": "Precompiled"
            },
            {
                "address": "0x0000000000000000000000000000000000000004",
                "label": "Precompiled"
            }
        ]
    },
    "trace": {
        "accountLabels": null,
        "dataMap": {
            "-1": {
                "invocation": {
                    "address": "0x9d67b95cfabd472779ce799478c801b065e6b870",
                    "callData": "",
                    "decodedMethod": null,
                    "errorInfo": "",
                    "fromAddress": "",
                    "gasUsed": 0,
                    "id": -1,
                    "methodDecoded": false,
                    "operation": "",
                    "output": "",
                    "revert": false,
                    "revertMessage": "",
                    "selector": "",
                    "status": false,
                    "value": ""
                },
                "nodeType": 0
            },
            "0": {
                "invocation": {
                    "address": "0x608f006b6813f97097372d0d31fb0f11d1ca3e4e",
                    "callData": "0x000000000000000000000000c82b4b8031281888f19754c3afcf7251a7f37636000000000000000000000000000000000000000000000000016345785d8a0000",
                    "decodedMethod": {
                        "callParams": [
                            {
                                "name": "_to",
                                "type": "address",
                                "value": "0xc82b4b8031281888f19754c3afcf7251a7f37636"
                            },
                            {
                                "decimalAvailable": true,
                                "name": "_value",
                                "type": "uint256",
                                "value": "100,000,000,000,000,000"
                            }
                        ],
                        "constructorArguments": "",
                        "name": "transfer",
                        "returnParams": [
                            {
                                "name": "",
                                "type": "bool",
                                "value": true
                            }
                        ],
                        "signature": "transfer(address,uint256)"
                    },
                    "errorInfo": "",
                    "fromAddress": "0x9d67b95cfabd472779ce799478c801b065e6b870",
                    "gasUsed": 36959,
                    "id": 0,
                    "methodDecoded": true,
                    "operation": "CALL",
                    "output": "0x0000000000000000000000000000000000000000000000000000000000000001",
                    "revert": false,
                    "revertMessage": "",
                    "selector": "0xa9059cbb",
                    "status": true,
                    "value": "0"
                },
                "nodeType": 0
            },
            "1": {
                "event": {
                    "contract": "0x608f006b6813f97097372d0d31fb0f11d1ca3e4e",
                    "decodedLog": {
                        "name": "Transfer",
                        "params": [
                            {
                                "name": "from",
                                "type": "address",
                                "value": "0x9d67b95cfabd472779ce799478c801b065e6b870"
                            },
                            {
                                "name": "to",
                                "type": "address",
                                "value": "0xc82b4b8031281888f19754c3afcf7251a7f37636"
                            },
                            {
                                "decimalAvailable": true,
                                "name": "value",
                                "type": "uint256",
                                "value": "100,000,000,000,000,000"
                            }
                        ],
                        "signature": "Transfer(address,address,uint256)"
                    },
                    "id": 1,
                    "logData": "0x000000000000000000000000000000000000000000000000016345785d8a0000",
                    "logDecoded": true,
                    "operation": "EVENT",
                    "revert": false,
                    "status": true,
                    "topics": [
                        "0xddf252ad1be2c89b69c2b068fc378daa952ba7f163c4a11628f55a4df523b3ef",
                        "0x0000000000000000000000009d67b95cfabd472779ce799478c801b065e6b870",
                        "0x000000000000000000000000c82b4b8031281888f19754c3afcf7251a7f37636"
                    ]
                },
                "nodeType": 1
            }
        },
        "gasFlame": [
            {
                "children": [
                    {
                        "children": [
                            {
                                "children": [],
                                "depth": 0,
                                "name": "Initial Gas",
                                "value": 21632
                            },
                            {
                                "children": [],
                                "depth": 0,
                                "name": "Executed Gas",
                                "value": 15327
                            }
                        ],
                        "depth": -1,
                        "name": "Actual Gas Used",
                        "value": 36959
                    },
                    {
                        "children": [],
                        "depth": -1,
                        "name": "Refunded Gas",
                        "value": 0
                    }
                ],
                "depth": -2,
                "name": "Total Gas",
                "value": 36959
            }
        ],
        "isConfirmed": true,
        "mainTrace": [
            {
                "children": [
                    {
                        "children": [
                            {
                                "children": [],
                                "depth": 1,
                                "id": 1,
                                "order": 1
                            }
                        ],
                        "depth": 0,
                        "id": 0,
                        "order": 0
                    }
                ],
                "depth": -1,
                "id": -1,
                "order": -1
            }
        ],
        "mainTraceNodeCount": 2,
        "parentIdMap": {
            "0": -1,
            "1": 0
        },
        "tidyTrace": [
            {
                "children": [
                    {
                        "children": [
                            {
                                "children": [],
                                "depth": 1,
                                "id": 1,
                                "order": 1
                            }
                        ],
                        "depth": 0,
                        "id": 0,
                        "order": 0
                    }
                ],
                "depth": -1,
                "id": -1,
                "order": -1
            }
        ],
        "tidyTraceNodeCount": 2
    },
    "state_change": {
        "stateChanges": [
            {
                "address": "0x608f006b6813f97097372d0d31fb0f11d1ca3e4e",
                "erc": "ERC-20",
                "slots": [
                    {
                        "current": "0x0000000000000000000000000000000000000000000010eea8beef6e64d0d7bd",
                        "key": "0x6a4745196625b3492941bee06b02abfa42ee291398292b79dd82b6800b347a73",
                        "prev": "0x0000000000000000000000000000000000000000000010eeaa2234e6c25ad7bd"
                    },
                    {
                        "current": "0x000000000000000000000000000000000000000000000007cba03a1d6d2c0000",
                        "key": "0xf292f9de148e735fd8e8a008d1da42bf09f9f14565c7f06df1c0244d6c446721",
                        "prev": "0x000000000000000000000000000000000000000000000007ca3cf4a50fa20000"
                    }
                ],
                "storageVariables": []
            }
        ]
    }
}