{
    "balance_change": {
        "balanceChanges": [
            {
                "account": "0xf16e9b0d03470827a95cdfd0cb8a8a3b46969b91",
                "assets": [
                    {
                        "address": "0x6b3595068778dd592e39a122f4f5a5cf09c90fe2",
                        "amount": "6,298.58175635",
                        "iconUrl": "https://assets.blocksec.com/icon/bb0cf8c867431b5b96b5fc72143d2d0ff0fb06e17664ccb128080b416f067159.png",
                        "isERC1155": false,
                        "isERC721": false,
                        "sign": false,
                        "value": "3906.3804050711998332"
                    }
                ]
            },
            {
                "account": "0xee061ca01de08903d93accff293bed1584340bf7",
                "assets": [
                    {
                        "address": "0x6b3595068778dd592e39a122f4f5a5cf09c90fe2",
                        "amount": "6,298.58175635",
                        "iconUrl": "https://assets.blocksec.com/icon/bb0cf8c867431b5b96b5fc72143d2d0ff0fb06e17664ccb128080b416f067159.png",
                        "isERC1155": false,
                        "isERC721": false,
                        "sign": true,
                        "value": "3906.3804050711998332"
                    }
                ]
            }
        ]
    },
    "profile": {
        "basic_info": {
            "baseFee": "14.845983033",
            "blockNumber": 17497474,
            "callData": "0xa9059cbb000000000000000000000000ee061ca01de08903d93accff293bed1584340bf7000000000000000000000000000000000000000000000155726190157dbbec00",
            "debugEnable": true,
            "errorInfo": "",
            "eventCount": 1,
            "feeRecipient": "0x6b333b20fbae3c5c0969dd02176e30802e2fbbdb",
            "formatValue": "0",
            "gasLimit": 100000,
            "gasPrice": "17.490979851",
            "gasUsed": 51693,
            "intTxnCount": 0,
            "internalRevert": false,
            "internalRevertMessage": "",
            "isContractCreation": false,
            "isFlashloan": false,
            "maxFee": "34",
            "nonce": 1905805,
            "overwritedBlockNumber": -1,
            "priorityFee": "2.644996818",
            "receiver": "0x6b3595068778dd592e39a122f4f5a5cf09c90fe2",
            "revertMessage": "",
            "sender": "0xf16e9b0d03470827a95cdfd0cb8a8a3b46969b91",
            "simulationEnable": true,
            "sourceTxnHash": "0x70da797ec0ff3b20d79aab5152a13a584471408f81cbe809a072010c9a233a76",
            "status": true,
            "timestamp": "2023-06-17T05:33:59Z",
            "transactionFee": "0.000904161221437743",
            "txnHash": "0x70da797ec0ff3b20d79aab5152a13a584471408f81cbe809a072010c9a233a76",
            "txnIndex": 6,
            "type": 2,
            "value": "0"
        },
        "fund_flow": [
            {
                "amount": "6,298.58175635",
                "from": "0xf16e9b0d03470827a95cdfd0cb8a8a3b46969b91",
                "id": 1,
                "isERC1155": false,
                "isERC721": false,
                "isReverted": false,
                "order": 1,
                "to": "0xee061ca01de08903d93accff293bed1584340bf7",
                "token": "0x6b3595068778dd592e39a122f4f5a5cf09c90fe2"
            }
        ],
        "token_infos": [
            {
                "address": "0x6b3595068778dd592e39a122f4f5a5cf09c90fe2",
                "decimals": 18
            },
            {
                "address": "0xc02aaa39b223fe8d0a0e5c4f27ead9083c756cc2",
                "decimals": 18
            },
            {
                "address": "0xeeeeeeeeeeeeeeeeeeeeeeeeeeeeeeeeeeeeeeee",
                "decimals": 18
            }
        ]
    },
    "address_label": {
        "labels": [
            {
                "address": "0xeeeeeeeeeeeeeeeeeeeeeeeeeeeeeeeeeeeeeeee",
                "label": "Ether"
            },
            {
                "address": "0xf16e9b0d03470827a95cdfd0cb8a8a3b46969b91",
                "label": "KuCoin 9"
            },
            {
                "address": "0x6b3595068778dd592e39a122f4f5a5cf09c90fe2",
                "label": "SushiSwap: SUSHI Token"
            },
            {
                "address": "0x6b333b20fbae3c5c0969dd02176e30802e2fbbdb",
                "label": "FeesEscrow"
            },
            {
                "address": "0x0000000000000000000000000000000000000001",
                "label": "Precompiled"
            },
            {
                "address": "0x0000000000000000000000000000000000000002",
                "label": "Precompiled"
            },
            {
                "address": "0x0000000000000000000000000000000000000003",
                "label": "Precompiled"
            },
            {
                "address": "0x0000000000000000000000000000000000000004",
                "label": "Precompiled"
            }
        ]
    },
    "trace": {
        "accountLabels": null,
        "dataMap": {
            "-1": {
                "invocation": {
                    "address": "0xf16e9b0d03470827a95cdfd0cb8a8a3b46969b91",
                    "callData": "",
                    "decodedMethod": null,
                    "errorInfo": "",
                    "fromAddress": "",
                    "gasUsed": 0,
                    "id": -1,
                    "methodDecoded": false,
                    "operation": "",
                    "output": "",
                    "revert": false,
                    "revertMessage": "",
                    "selector": "",
                    "status": false,
                    "value": ""
                },
                "nodeType": 0
            },
            "0": {
                "invocation": {
                    "address": "0x6b3595068778dd592e39a122f4f5a5cf09c90fe2",
                    "callData": "0x000000000000000000000000ee061ca01de08903d93accff293bed1584340bf7000000000000000000000000000000000000000000000155726190157dbbec00",
                    "decodedMethod": {
                        "callParams": [
                            {
                                "name": "recipient",
                                "type": "address",
                                "value": "0xee061ca01de08903d93accff293bed1584340bf7"
                            },
                            {
                                "decimalAvailable": true,
                                "name": "amount",
                                "type": "uint256",
                                "value": "6,298,581,756,350,000,000,000"
                            }
                        ],
                        "constructorArguments": "",
                        "name": "transfer",
                        "returnParams": [
                            {
                                "name": "",
                                "type": "bool",
                                "value": true
                            }
                        ],
                        "signature": "transfer(address,uint256)"
                    },
                    "errorInfo": "",
                    "fromAddress": "0xf16e9b0d03470827a95cdfd0cb8a8a3b46969b91",
                    "gasUsed": 51693,
                    "id": 0,
                    "methodDecoded": true,
                    "operation": "CALL",
                    "output": "0x0000000000000000000000000000000000000000000000000000000000000001",
                    "revert": false,
                    "revertMessage": "",
                    "selector": "0xa9059cbb",
                    "status": true,
                    "value": "0"
                },
                "nodeType": 0
            },
            "1": {
                "event": {
                    "contract": "0x6b3595068778dd592e39a122f4f5a5cf09c90fe2",
                    "decodedLog": {
                        "name": "Transfer",
                        "params": [
                            {
                                "name": "from",
                                "type": "address",
                                "value": "0xf16e9b0d03470827a95cdfd0cb8a8a3b46969b91"
                            },
                            {
                                "name": "to",
                                "type": "address",
                                "value": "0xee061ca01de08903d93accff293bed1584340bf7"
                            },
                            {
                                "decimalAvailable": true,
                                "name": "value",
                                "type": "uint256",
                                "value": "6,298,581,756,350,000,000,000"
                            }
                        ],
                        "signature": "Transfer(address,address,uint256)"
                    },
                    "id": 1,
                    "logData": "0x000000000000000000000000000000000000000000000155726190157dbbec00",
                    "logDecoded": true,
                    "operation": "EVENT",
                    "revert": false,
                    "status": true,
                    "topics": [
                        "0xddf252ad1be2c89b69c2b068fc378daa952ba7f163c4a11628f55a4df523b3ef",
                        "0x000000000000000000000000f16e9b0d03470827a95cdfd0cb8a8a3b46969b91",
                        "0x000000000000000000000000ee061ca01de08903d93accff293bed1584340bf7"
                    ]
                },
                "nodeType": 1
            }
        },
        "gasFlame": [
            {
                "children": [
                    {
                        "children": [
                            {
                                "children": [],
                                "depth": 0,
                                "name": "Initial Gas",
                                "value": 21668
                            },
                            {
                                "children": [],
                                "depth": 0,
                                "name": "Executed Gas",
                                "value": 30025
                            }
                        ],
                        "depth": -1,
                        "name": "Actual Gas Used",
                        "value": 51693
                    },
                    {
                        "children": [],
                        "depth": -1,
                        "name": "Refunded Gas",
                        "value": 0
                    }
                ],
                "depth": -2,
                "name": "Total Gas",
                "value": 51693
            }
        ],
        "isConfirmed": true,
        "mainTrace": [
            {
                "children": [
                    {
                        "children": [
                            {
                                "children": [],
                                "depth": 1,
                                "id": 1,
                                "order": 1
                            }
                        ],
                        "depth": 0,
                        "id": 0,
                        "order": 0
                    }
                ],
                "depth": -1,
                "id": -1,
                "order": -1
            }
        ],
        "mainTraceNodeCount": 2,
        "parentIdMap": {
            "0": -1,
            "1": 0
        },
        "tidyTrace": [
            {
                "children": [
                    {
                        "children": [
                            {
                                "children": [],
                                "depth": 1,
                                "id": 1,
                                "order": 1
                            }
                        ],
                        "depth": 0,
                        "id": 0,
                        "order": 0
                    }
                ],
                "depth": -1,
                "id": -1,
                "order": -1
            }
        ],
        "tidyTraceNodeCount": 2
    },
    "state_change": {
        "stateChanges": [
            {
                "address": "0x6b3595068778dd592e39a122f4f5a5cf09c90fe2",
                "erc": "ERC-20",
                "slots": [
                    {
                        "current": "0x0000000000000000000000000000000000000000000006abbc47d55fedfb542e",
                        "key": "0xe22997ad676795e3318786248f6e5790f07b3bc90ff54b119652dd6b4e49e832",
                        "prev": "0x0000000000000000000000000000000000000000000008012ea965756bb7402e"
                    },
                    {
                        "current": "0x000000000000000000000000000000000000000000000155726190157dbbec00",
                        "key": "0x80300281baef85589964a3421c5756cc5ebe23f4fc48acc1181275e31a85902b",
                        "prev": "0x0000000000000000000000000000000000000000000000000000000000000000"
                    }
                ],
                "storageVariables": [
                    {
                        "name": "_balances",
                        "type": "mapping(address => uint256)",
                        "value": {
                            "pairs": [
                                {
                                    "key": "0xee061ca01de08903d93accff293bed1584340bf7",
                                    "value": {
                                        "current": "6298581756350000000000",
                                        "prev": "0",
                                        "typeTag": 1
                                    }
                                },
                                {
                                    "key": "0xf16e9b0d03470827a95cdfd0cb8a8a3b46969b91",
                                    "value": {
                                        "current": "31502159180832672797742",
                                        "prev": "37800740937182672797742",
                                        "typeTag": 1
                                    }
                                }
                            ],
                            "typeTag": 4
                        }
                    }
                ]
            }
        ]
    }
}