{
    "balance_change": {
        "balanceChanges": [
            {
                "account": "0x6c0b51971650d28821ce30b15b02b9826a20b129",
                "assets": [
                    {
                        "address": "0x084da5a9c0e3f086532b98d8568432349b89d9df",
                        "amount": "378,199.18712474",
                        "iconUrl": "",
                        "isERC1155": false,
                        "isERC721": false,
                        "sign": false,
                        "value": ""
                    }
                ]
            },
            {
                "account": "0x099ffe8a6b3a0e5b4e68c02f4046139b54e8d98f",
                "assets": [
                    {
                        "address": "0x084da5a9c0e3f086532b98d8568432349b89d9df",
                        "amount": "378,199.18712474",
                        "iconUrl": "",
                        "isERC1155": false,
                        "isERC721": false,
                        "sign": true,
                        "value": ""
                    }
                ]
            }
        ]
    },
    "profile": {
        "basic_info": {
            "baseFee": "",
            "blockNumber": 11231293,
            "callData": "0xc01a8c840000000000000000000000000000000000000000000000000000000000000513",
            "debugEnable": true,
            "errorInfo": "",
            "eventCount": 3,
            "feeRecipient": "0x04668ec2f57cc15c381b461b9fedab5d451c8f7f",
            "formatValue": "0",
            "gasLimit": 320000,
            "gasPrice": "90",
            "gasUsed": 121200,
            "intTxnCount": 1,
            "internalRevert": false,
            "internalRevertMessage": "",
            "isContractCreation": false,
            "isFlashloan": false,
            "maxFee": "",
            "nonce": 1281,
            "overwritedBlockNumber": -1,
            "priorityFee": "",
            "receiver": "0x6c0b51971650d28821ce30b15b02b9826a20b129",
            "revertMessage": "",
            "sender": "0x095273adb73e55a8710e448c49eaee16fe115527",
            "simulationEnable": true,
            "sourceTxnHash": "0x703f669d6650707c6f95a48ff83ab73fa3d1fee693aeef612ab80eea893d2b60",
            "status": true,
            "timestamp": "2020-11-10T18:03:41Z",
            "transactionFee": "0.010908",
            "txnHash": "0x703f669d6650707c6f95a48ff83ab73fa3d1fee693aeef612ab80eea893d2b60",
            "txnIndex": 6,
            "type": 0,
            "value": "0"
        },
        "fund_flow": [
            {
                "amount": "378,199.18712474",
                "from": "0x6c0b51971650d28821ce30b15b02b9826a20b129",
                "id": 1,
                "isERC1155": false,
                "isERC721": false,
                "isReverted": false,
                "order": 1,
                "to": "0x099ffe8a6b3a0e5b4e68c02f4046139b54e8d98f",
                "token": "0x084da5a9c0e3f086532b98d8568432349b89d9df"
            }
        ],
        "token_infos": [
            {
                "address": "0x084da5a9c0e3f086532b98d8568432349b89d9df",
                "decimals": 18
            },
            {
                "address": "0xc02aaa39b223fe8d0a0e5c4f27ead9083c756cc2",
                "decimals": 18
            },
            {
                "address": "0xeeeeeeeeeeeeeeeeeeeeeeeeeeeeeeeeeeeeeeee",
                "decimals": 18
            }
        ]
    },
    "address_label": {
        "labels": [
            {
                "address": "0x0000000000000000000000000000000000000002",
                "label": "Precompiled"
            },
            {
                "address": "0x0000000000000000000000000000000000000003",
                "label": "Precompiled"
            },
            {
                "address": "0x0000000000000000000000000000000000000004",
                "label": "Precompiled"
            },
            {
                "address": "0xeeeeeeeeeeeeeeeeeeeeeeeeeeeeeeeeeeeeeeee",
                "label": "Ether"
            },
            {
                "address": "0x084da5a9c0e3f086532b98d8568432349b89d9df",
                "label": "FUUPAY: FPT Token"
            },
            {
                "address": "0x0000000000000000000000000000000000000001",
                "label": "Precompiled"
            }
        ]
    },
    "trace": {
        "accountLabels": null,
        "dataMap": {
            "-1": {
                "invocation": {
                    "address": "0x095273adb73e55a8710e448c49eaee16fe115527",
                    "callData": "",
                    "decodedMethod": null,
                    "errorInfo": "",
                    "fromAddress": "",
                    "gasUsed": 0,
                    "id": -1,
                    "methodDecoded": false,
                    "operation": "",
                    "output": "",
                    "revert": false,
                    "revertMessage": "",
                    "selector": "",
                    "status": false,
                    "value": ""
                },
                "nodeType": 0
            },
            "0": {
                "invocation": {
                    "address": "0x6c0b51971650d28821ce30b15b02b9826a20b129",
                    "callData": "0x0000000000000000000000000000000000000000000000000000000000000513",
                    "decodedMethod": {
                        "callParams": [
                            {
                                "name": "transactionId",
                                "type": "uint256",
                                "value": "1,299"
                            }
                        ],
                        "constructorArguments": "",
                        "name": "confirmTransaction",
                        "returnParams": [],
                        "signature": "confirmTransaction(uint256)"
                    },
                    "errorInfo": "",
                    "fromAddress": "0x095273adb73e55a8710e448c49eaee16fe115527",
                    "gasUsed": 121200,
                    "id": 0,
                    "methodDecoded": true,
                    "operation": "CALL",
                    "output": "",
                    "revert": false,
                    "revertMessage": "",
                    "selector": "0xc01a8c84",
                    "status": true,
                    "value": "0"
                },
                "nodeType": 0
            },
            "1": {
                "event": {
                    "contract": "0x6c0b51971650d28821ce30b15b02b9826a20b129",
                    "decodedLog": {
                        "name": "Confirmation",
                        "params": [
                            {
                                "name": "sender",
                                "type": "address",
                                "value": "0x095273adb73e55a8710e448c49eaee16fe115527"
                            },
                            {
                                "name": "transactionId",
                                "type": "uint256",
                                "value": "1,299"
                            }
                        ],
                        "signature": "Confirmation(address,uint256)"
                    },
                    "id": 1,
                    "logData": "0x",
                    "logDecoded": true,
                    "operation": "EVENT",
                    "revert": false,
                    "status": true,
                    "topics": [
                        "0x4a504a94899432a9846e1aa406dceb1bcfd538bb839071d49d1e5e23f5be30ef",
                        "0x000000000000000000000000095273adb73e55a8710e448c49eaee16fe115527",
                        "0x0000000000000000000000000000000000000000000000000000000000000513"
                    ]
                },
                "nodeType": 1
            },
            "2": {
                "invocation": {
                    "address": "0x084da5a9c0e3f086532b98d8568432349b89d9df",
                    "callData": "0x000000000000000000000000099ffe8a6b3a0e5b4e68c02f4046139b54e8d98f000000000000000000000000000000000000000000005016381168c77f5f2800",
                    "decodedMethod": {
                        "callParams": [
                            {
                                "name": "to",
                                "type": "address",
                                "value": "0x099ffe8a6b3a0e5b4e68c02f4046139b54e8d98f"
                            },
                            {
                                "decimalAvailable": true,
                                "name": "value",
                                "type": "uint256",
                                "value": "378,199,187,124,740,000,000,000"
                            }
                        ],
                        "constructorArguments": "",
                        "name": "transfer",
                        "returnParams": [
                            {
                                "name": "",
                                "type": "bool",
                                "value": true
                            }
                        ],
                        "signature": "transfer(address,uint256)"
                    },
                    "errorInfo": "",
                    "fromAddress": "0x6c0b51971650d28821ce30b15b02b9826a20b129",
                    "gasUsed": 32065,
                    "id": 2,
                    "methodDecoded": true,
                    "operation": "CALL",
                    "output": "0x0000000000000000000000000000000000000000000000000000000000000001",
                    "revert": false,
                    "revertMessage": "",
                    "selector": "0xa9059cbb",
                    "status": true,
                    "value": "0"
                },
                "nodeType": 0
            },
            "3": {
                "event": {
                    "contract": "0x084da5a9c0e3f086532b98d8568432349b89d9df",
                    "decodedLog": {
                        "name": "Transfer",
                        "params": [
                            {
                                "name": "from",
                                "type": "address",
                                "value": "0x6c0b51971650d28821ce30b15b02b9826a20b129"
                            },
                            {
                                "name": "to",
                                "type": "address",
                                "value": "0x099ffe8a6b3a0e5b4e68c02f4046139b54e8d98f"
                            },
                            {
                                "decimalAvailable": true,
                                "name": "value",
                                "type": "uint256",
                                "value": "378,199,187,124,740,000,000,000"
                            }
                        ],
                        "signature": "Transfer(address,address,uint256)"
                    },
                    "id": 3,
                    "logData": "0x000000000000000000000000000000000000000000005016381168c77f5f2800",
                    "logDecoded": true,
                    "operation": "EVENT",
                    "revert": false,
                    "status": true,
                    "topics": [
                        "0xddf252ad1be2c89b69c2b068fc378daa952ba7f163c4a11628f55a4df523b3ef",
                        "0x0000000000000000000000006c0b51971650d28821ce30b15b02b9826a20b129",
                        "0x000000000000000000000000099ffe8a6b3a0e5b4e68c02f4046139b54e8d98f"
                    ]
                },
                "nodeType": 1
            },
            "4": {
                "event": {
                    "contract": "0x6c0b51971650d28821ce30b15b02b9826a20b129",
                    "decodedLog": {
                        "name": "Execution",
                        "params": [
                            {
                                "name": "transactionId",
                                "type": "uint256",
                                "value": "1,299"
                            }
                        ],
                        "signature": "Execution(uint256)"
                    },
                    "id": 4,
                    "logData": "0x",
                    "logDecoded": true,
                    "operation": "EVENT",
                    "revert": false,
                    "status": true,
                    "topics": [
                        "0x33e13ecb54c3076d8e8bb8c2881800a4d972b792045ffae98fdf46df365fed75",
                        "0x0000000000000000000000000000000000000000000000000000000000000513"
                    ]
                },
                "nodeType": 1
            }
        },
        "gasFlame": [
            {
                "children": [
                    {
                        "children": [
                            {
                                "children": [],
                                "depth": 0,
                                "name": "Initial Gas",
                                "value": 21216
                            },
                            {
                                "children": [
                                    {
                                        "children": [],
                                        "depth": 1,
                                        "name": "transfer",
                                        "value": 32065
                                    }
                                ],
                                "depth": 0,
                                "name": "Executed Gas",
                                "value": 99984
                            }
                        ],
                        "depth": -1,
                        "name": "Actual Gas Used",
                        "value": 121200
                    },
                    {
                        "children": [],
                        "depth": -1,
                        "name": "Refunded Gas",
                        "value": 0
                    }
                ],
                "depth": -2,
                "name": "Total Gas",
                "value": 121200
            }
        ],
        "isConfirmed": true,
        "mainTrace": [
            {
                "children": [
                    {
                        "children": [
                            {
                                "children": [],
                                "depth": 1,
                                "id": 1,
                                "order": 1
                            },
                            {
                                "children": [
                                    {
                                        "children": [],
                                        "depth": 2,
                                        "id": 3,
                                        "order": 3
                                    }
                                ],
                                "depth": 1,
                                "id": 2,
                                "order": 2
                            },
                            {
                                "children": [],
                                "depth": 1,
                                "id": 4,
                                "order": 4
                            }
                        ],
                        "depth": 0,
                        "id": 0,
                        "order": 0
                    }
                ],
                "depth": -1,
                "id": -1,
                "order": -1
            }
        ],
        "mainTraceNodeCount": 5,
        "parentIdMap": {
            "0": -1,
            "1": 0,
            "2": 0,
            "3": 2,
            "4": 0
        },
        "tidyTrace": [
            {
                "children": [
                    {
                        "children": [
                            {
                                "children": [],
                                "depth": 1,
                                "id": 1,
                                "order": 1
                            },
                            {
                                "children": [
                                    {
                                        "children": [],
                                        "depth": 2,
                                        "id": 3,
                                        "order": 3
                                    }
                                ],
                                "depth": 1,
                                "id": 2,
                                "order": 2
                            },
                            {
                                "children": [],
                                "depth": 1,
                                "id": 4,
                                "order": 4
                            }
                        ],
                        "depth": 0,
                        "id": 0,
                        "order": 0
                    }
                ],
                "depth": -1,
                "id": -1,
                "order": -1
            }
        ],
        "tidyTraceNodeCount": 5
    },
    "state_change": {
        "stateChanges": [
            {
                "address": "0x084da5a9c0e3f086532b98d8568432349b89d9df",
                "erc": "ERC-20",
                "slots": [
                    {
                        "current": "0x000000000000000000000000000000000000000000005016381168c77f5f2800",
                        "key": "0xe1eb931eb6a92e968de82198aaf612afa8a73e4633722524a02a9e860985cb46",
                        "prev": "0x0000000000000000000000000000000000000000000000000000000000000000"
                    },
                    {
                        "current": "0x0000000000000000000000000000000000000000000975c5327a714dd50de000",
                        "key": "0x02eaa433b2cd496339d945085a6cddc8425ad0d55fbed439fc028e6102d27416",
                        "prev": "0x00000000000000000000000000000000000000000009c5db6a8bda15546d0800"
                    }
                ],
                "storageVariables": [
                    {
                        "name": "_balances",
                        "type": "mapping(address => uint256)",
                        "value": {
                            "pairs": [
                                {
                                    "key": "0x099ffe8a6b3a0e5b4e68c02f4046139b54e8d98f",
                                    "value": {
                                        "current": "378199187124740000000000",
                                        "prev": "0",
                                        "typeTag": 1
                                    }
                                },
                                {
                                    "key": "0x6c0b51971650d28821ce30b15b02b9826a20b129",
                                    "value": {
                                        "current": "11436486900954160000000000",
                                        "prev": "11814686088078900000000000",
                                        "typeTag": 1
                                    }
                                }
                            ],
                            "typeTag": 4
                        }
                    }
                ]
            },
            {
                "address": "0x6c0b51971650d28821ce30b15b02b9826a20b129",
                "erc": "",
                "slots": [
                    {
                        "current": "0x0000000000000000000000000000000000000000000000000000000000000001",
                        "key": "0xc4da15e93b9cc24439d3c7a4909c34c23514ecfead3ec6b5f4fe6d02555afe89",
                        "prev": "0x0000000000000000000000000000000000000000000000000000000000000000"
                    },
                    {
                        "current": "0x0000000000000000000000000000000000000000000000000000000000000001",
                        "key": "0x20c1bf178466fc6792f9e95757d66b48f052884c8c262b64deb6856e983958df",
                        "prev": "0x0000000000000000000000000000000000000000000000000000000000000000"
                    }
                ],
                "storageVariables": []
            }
        ]
    }
}