{
    "balance_change": {
        "balanceChanges": [
            {
                "account": "0x08cd1d19874a17d820249a6839ce8e71a0885338",
                "assets": [
                    {
                        "address": "0x9c64bbbf75a77fd98c028bb1fd9e1d76730449f8",
                        "amount": "2",
                        "iconUrl": "",
                        "isERC1155": false,
                        "isERC721": false,
                        "sign": false,
                        "value": ""
                    }
                ]
            },
            {
                "account": "0x05026afd1a1bd04666b126c537eacf1df1f07b29",
                "assets": [
                    {
                        "address": "0x9c64bbbf75a77fd98c028bb1fd9e1d76730449f8",
                        "amount": "2",
                        "iconUrl": "",
                        "isERC1155": false,
                        "isERC721": false,
                        "sign": true,
                        "value": ""
                    }
                ]
            }
        ]
    },
    "profile": {
        "basic_info": {
            "baseFee": "",
            "blockNumber": 10282304,
            "callData": "0xa9059cbb00000000000000000000000005026afd1a1bd04666b126c537eacf1df1f07b290000000000000000000000000000000000000000000000001bc16d674ec80000",
            "debugEnable": true,
            "errorInfo": "",
            "eventCount": 1,
            "feeRecipient": "0x5a0b54d5dc17e0aadc383d2db43b0a0d3e029c4c",
            "formatValue": "0",
            "gasLimit": 60000,
            "gasPrice": "30",
            "gasUsed": 24027,
            "intTxnCount": 0,
            "internalRevert": false,
            "internalRevertMessage": "",
            "isContractCreation": false,
            "isFlashloan": false,
            "maxFee": "",
            "nonce": 23,
            "overwritedBlockNumber": -1,
            "priorityFee": "",
            "receiver": "0x9c64bbbf75a77fd98c028bb1fd9e1d76730449f8",
            "revertMessage": "",
            "sender": "0x08cd1d19874a17d820249a6839ce8e71a0885338",
            "simulationEnable": true,
            "sourceTxnHash": "0x708965bc4fd11cdcd0741aef9f72087c6b15787fe186c8ecc40dda89f96423f5",
            "status": true,
            "timestamp": "2020-06-17T09:01:38Z",
            "transactionFee": "0.00072081",
            "txnHash": "0x708965bc4fd11cdcd0741aef9f72087c6b15787fe186c8ecc40dda89f96423f5",
            "txnIndex": 122,
            "type": 0,
            "value": "0"
        },
        "fund_flow": [
            {
                "amount": "2",
                "from": "0x08cd1d19874a17d820249a6839ce8e71a0885338",
                "id": 1,
                "isERC1155": false,
                "isERC721": false,
                "isReverted": false,
                "order": 1,
                "to": "0x05026afd1a1bd04666b126c537eacf1df1f07b29",
                "token": "0x9c64bbbf75a77fd98c028bb1fd9e1d76730449f8"
            }
        ],
        "token_infos": [
            {
                "address": "0x9c64bbbf75a77fd98c028bb1fd9e1d76730449f8",
                "decimals": 18
            },
            {
                "address": "0xc02aaa39b223fe8d0a0e5c4f27ead9083c756cc2",
                "decimals": 18
            },
            {
                "address": "0xeeeeeeeeeeeeeeeeeeeeeeeeeeeeeeeeeeeeeeee",
                "decimals": 18
            }
        ]
    },
    "address_label": {
        "labels": [
            {
                "address": "0x0000000000000000000000000000000000000001",
                "label": "Precompiled"
            },
            {
                "address": "0x0000000000000000000000000000000000000002",
                "label": "Precompiled"
            },
            {
                "address": "0x0000000000000000000000000000000000000003",
                "label": "Precompiled"
            },
            {
                "address": "0x0000000000000000000000000000000000000004",
                "label": "Precompiled"
            },
            {
                "address": "0xeeeeeeeeeeeeeeeeeeeeeeeeeeeeeeeeeeeeeeee",
                "label": "Ether"
            },
            {
                "address": "0x9c64bbbf75a77fd98c028bb1fd9e1d76730449f8",
                "label": "MocaCoin (MCC)"
            }
        ]
    },
    "trace": {
        "accountLabels": null,
        "dataMap": {
            "-1": {
                "invocation": {
                    "address": "0x08cd1d19874a17d820249a6839ce8e71a0885338",
                    "callData": "",
                    "decodedMethod": null,
                    "errorInfo": "",
                    "fromAddress": "",
                    "gasUsed": 0,
                    "id": -1,
                    "methodDecoded": false,
                    "operation": "",
                    "output": "",
                    "revert": false,
                    "revertMessage": "",
                    "selector": "",
                    "status": false,
                    "value": ""
                },
                "nodeType": 0
            },
            "0": {
                "invocation": {
                    "address": "0x9c64bbbf75a77fd98c028bb1fd9e1d76730449f8",
                    "callData": "0x00000000000000000000000005026afd1a1bd04666b126c537eacf1df1f07b290000000000000000000000000000000000000000000000001bc16d674ec80000",
                    "decodedMethod": {
                        "callParams": [
                            {
                                "name": "_to",
                                "type": "address",
                                "value": "0x05026afd1a1bd04666b126c537eacf1df1f07b29"
                            },
                            {
                                "decimalAvailable": true,
                                "name": "_value",
                                "type": "uint256",
                                "value": "2,000,000,000,000,000,000"
                            }
                        ],
                        "constructorArguments": "",
                        "name": "transfer",
                        "returnParams": [
                            {
                                "name": "",
                                "type": "bool",
                                "value": true
                            }
                        ],
                        "signature": "transfer(address,uint256)"
                    },
                    "errorInfo": "",
                    "fromAddress": "0x08cd1d19874a17d820249a6839ce8e71a0885338",
                    "gasUsed": 24027,
                    "id": 0,
                    "methodDecoded": true,
                    "operation": "CALL",
                    "output": "0x0000000000000000000000000000000000000000000000000000000000000001",
                    "revert": false,
                    "revertMessage": "",
                    "selector": "0xa9059cbb",
                    "status": true,
                    "value": "0"
                },
                "nodeType": 0
            },
            "1": {
                "event": {
                    "contract": "0x9c64bbbf75a77fd98c028bb1fd9e1d76730449f8",
                    "decodedLog": {
                        "name": "Transfer",
                        "params": [
                            {
                                "name": "from",
                                "type": "address",
                                "value": "0x08cd1d19874a17d820249a6839ce8e71a0885338"
                            },
                            {
                                "name": "to",
                                "type": "address",
                                "value": "0x05026afd1a1bd04666b126c537eacf1df1f07b29"
                            },
                            {
                                "decimalAvailable": true,
                                "name": "value",
                                "type": "uint256",
                                "value": "2,000,000,000,000,000,000"
                            }
                        ],
                        "signature": "Transfer(address,address,uint256)"
                    },
                    "id": 1,
                    "logData": "0x0000000000000000000000000000000000000000000000001bc16d674ec80000",
                    "logDecoded": true,
                    "operation": "EVENT",
                    "revert": false,
                    "status": true,
                    "topics": [
                        "0xddf252ad1be2c89b69c2b068fc378daa952ba7f163c4a11628f55a4df523b3ef",
                        "0x00000000000000000000000008cd1d19874a17d820249a6839ce8e71a0885338",
                        "0x00000000000000000000000005026afd1a1bd04666b126c537eacf1df1f07b29"
                    ]
                },
                "nodeType": 1
            }
        },
        "gasFlame": [
            {
                "children": [
                    {
                        "children": [
                            {
                                "children": [],
                                "depth": 0,
                                "name": "Initial Gas",
                                "value": 21632
                            },
                            {
                                "children": [],
                                "depth": 0,
                                "name": "Executed Gas",
                                "value": 17395
                            }
                        ],
                        "depth": -1,
                        "name": "Actual Gas Used",
                        "value": 24027
                    },
                    {
                        "children": [],
                        "depth": -1,
                        "name": "Refunded Gas",
                        "value": 15000
                    }
                ],
                "depth": -2,
                "name": "Total Gas",
                "value": 39027
            }
        ],
        "isConfirmed": true,
        "mainTrace": [
            {
                "children": [
                    {
                        "children": [
                            {
                                "children": [],
                                "depth": 1,
                                "id": 1,
                                "order": 1
                            }
                        ],
                        "depth": 0,
                        "id": 0,
                        "order": 0
                    }
                ],
                "depth": -1,
                "id": -1,
                "order": -1
            }
        ],
        "mainTraceNodeCount": 2,
        "parentIdMap": {
            "0": -1,
            "1": 0
        },
        "tidyTrace": [
            {
                "children": [
                    {
                        "children": [
                            {
                                "children": [],
                                "depth": 1,
                                "id": 1,
                                "order": 1
                            }
                        ],
                        "depth": 0,
                        "id": 0,
                        "order": 0
                    }
                ],
                "depth": -1,
                "id": -1,
                "order": -1
            }
        ],
        "tidyTraceNodeCount": 2
    },
    "state_change": {
        "stateChanges": [
            {
                "address": "0x9c64bbbf75a77fd98c028bb1fd9e1d76730449f8",
                "erc": "ERC-20",
                "slots": [
                    {
                        "current": "0x000000000000000000000000000000000000000000000001a055690d9db80000",
                        "key": "0x22263283218604e742f236f0b42d101cda8f3467df7e29f4c49009ebbd387206",
                        "prev": "0x0000000000000000000000000000000000000000000000018493fba64ef00000"
                    },
                    {
                        "current": "0x0000000000000000000000000000000000000000000000000000000000000000",
                        "key": "0x7e2a0bfb698e8130ce7b8cdc84ee25f521361b97de96c2a5875c6e85cd1ee2bf",
                        "prev": "0x0000000000000000000000000000000000000000000000001bc16d674ec80000"
                    }
                ],
                "storageVariables": [
                    {
                        "name": "_balances",
                        "type": "mapping(address => uint256)",
                        "value": {
                            "pairs": [
                                {
                                    "key": "0x05026afd1a1bd04666b126c537eacf1df1f07b29",
                                    "value": {
                                        "current": "30000000000000000000",
                                        "prev": "28000000000000000000",
                                        "typeTag": 1
                                    }
                                },
                                {
                                    "key": "0x08cd1d19874a17d820249a6839ce8e71a0885338",
                                    "value": {
                                        "current": "0",
                                        "prev": "2000000000000000000",
                                        "typeTag": 1
                                    }
                                }
                            ],
                            "typeTag": 4
                        }
                    }
                ]
            }
        ]
    }
}