{
    "balance_change": {
        "balanceChanges": [
            {
                "account": "0x51925cdef71a5dc7cd8c4729f053460d0027c915",
                "assets": [
                    {
                        "address": "0xa0b86991c6218b36c1d19d4a2e9eb0ce3606eb48",
                        "amount": "20,242.400597",
                        "iconUrl": "https://assets.blocksec.com/icon/0347a86cc07dbd03fdc5db01a4e5ac7e1217f90e0b6e4bb0f75cbcca09160989.png",
                        "isERC1155": false,
                        "isERC721": false,
                        "sign": false,
                        "value": "20252.81511"
                    },
                    {
                        "address": "0x0391d2021f89dc339f60fff84546ea23e337750f",
                        "amount": "453.179666145417720691",
                        "iconUrl": "https://assets.blocksec.com/icon/c04c088302f7a8dd4f5090edabce20425b1b654e42d89a37c86837d2d48bf55d.png",
                        "isERC1155": false,
                        "isERC721": false,
                        "sign": true,
                        "value": "20084.45575"
                    }
                ]
            },
            {
                "account": "0x6591c4bcd6d7a1eb4e537da8b78676c1576ba244",
                "assets": [
                    {
                        "address": "0xa0b86991c6218b36c1d19d4a2e9eb0ce3606eb48",
                        "amount": "20,242.400597",
                        "iconUrl": "https://assets.blocksec.com/icon/0347a86cc07dbd03fdc5db01a4e5ac7e1217f90e0b6e4bb0f75cbcca09160989.png",
                        "isERC1155": false,
                        "isERC721": false,
                        "sign": true,
                        "value": "20252.81511"
                    },
                    {
                        "address": "0x0391d2021f89dc339f60fff84546ea23e337750f",
                        "amount": "453.179666145417720691",
                        "iconUrl": "https://assets.blocksec.com/icon/c04c088302f7a8dd4f5090edabce20425b1b654e42d89a37c86837d2d48bf55d.png",
                        "isERC1155": false,
                        "isERC721": false,
                        "sign": false,
                        "value": "20084.45575"
                    }
                ]
            }
        ]
    },
    "profile": {
        "basic_info": {
            "baseFee": "",
            "blockNumber": 12226236,
            "callData": "0x38ed173900000000000000000000000000000000000000000000000000000004b68a855500000000000000000000000000000000000000000000001871d78fa1dfbdc83500000000000000000000000000000000000000000000000000000000000000a000000000000000000000000051925cdef71a5dc7cd8c4729f053460d0027c915000000000000000000000000000000000000000000000000000000006074772c0000000000000000000000000000000000000000000000000000000000000002000000000000000000000000a0b86991c6218b36c1d19d4a2e9eb0ce3606eb480000000000000000000000000391d2021f89dc339f60fff84546ea23e337750f",
            "debugEnable": true,
            "errorInfo": "",
            "eventCount": 4,
            "feeRecipient": "0x5a0b54d5dc17e0aadc383d2db43b0a0d3e029c4c",
            "formatValue": "0",
            "gasLimit": 154037,
            "gasPrice": "171",
            "gasUsed": 118624,
            "intTxnCount": 8,
            "internalRevert": false,
            "internalRevertMessage": "",
            "isContractCreation": false,
            "isFlashloan": false,
            "maxFee": "",
            "nonce": 11,
            "overwritedBlockNumber": -1,
            "priorityFee": "",
            "receiver": "0x7a250d5630b4cf539739df2c5dacb4c659f2488d",
            "revertMessage": "",
            "sender": "0x51925cdef71a5dc7cd8c4729f053460d0027c915",
            "simulationEnable": true,
            "sourceTxnHash": "0x70c843f3a170bcd780cbcb3137c3b7665c61c22aa2b0026478f0a8f676959dbb",
            "status": true,
            "timestamp": "2021-04-12T16:18:48Z",
            "transactionFee": "0.020284704",
            "txnHash": "0x70c843f3a170bcd780cbcb3137c3b7665c61c22aa2b0026478f0a8f676959dbb",
            "txnIndex": 121,
            "type": 0,
            "value": "0"
        },
        "fund_flow": [
            {
                "amount": "20,242.400597",
                "from": "0x51925cdef71a5dc7cd8c4729f053460d0027c915",
                "id": 1,
                "isERC1155": false,
                "isERC721": false,
                "isReverted": false,
                "order": 1,
                "to": "0x6591c4bcd6d7a1eb4e537da8b78676c1576ba244",
                "token": "0xa0b86991c6218b36c1d19d4a2e9eb0ce3606eb48"
            },
            {
                "amount": "453.179666145417720691",
                "from": "0x6591c4bcd6d7a1eb4e537da8b78676c1576ba244",
                "id": 2,
                "isERC1155": false,
                "isERC721": false,
                "isReverted": false,
                "order": 2,
                "to": "0x51925cdef71a5dc7cd8c4729f053460d0027c915",
                "token": "0x0391d2021f89dc339f60fff84546ea23e337750f"
            }
        ],
        "token_infos": [
            {
                "address": "0x0391d2021f89dc339f60fff84546ea23e337750f",
                "decimals": 18
            },
            {
                "address": "0xa0b86991c6218b36c1d19d4a2e9eb0ce3606eb48",
                "decimals": 6
            },
            {
                "address": "0xc02aaa39b223fe8d0a0e5c4f27ead9083c756cc2",
                "decimals": 18
            },
            {
                "address": "0xeeeeeeeeeeeeeeeeeeeeeeeeeeeeeeeeeeeeeeee",
                "decimals": 18
            }
        ]
    },
    "address_label": {
        "labels": [
            {
                "address": "0xeeeeeeeeeeeeeeeeeeeeeeeeeeeeeeeeeeeeeeee",
                "label": "Ether"
            },
            {
                "address": "0x6591c4bcd6d7a1eb4e537da8b78676c1576ba244",
                "label": "Uniswap V2: BOND-USDC"
            },
            {
                "address": "0x0391d2021f89dc339f60fff84546ea23e337750f",
                "label": "BarnBridge: BOND Token"
            },
            {
                "address": "0xa0b86991c6218b36c1d19d4a2e9eb0ce3606eb48",
                "label": "Circle: USDC Token"
            },
            {
                "address": "0x0000000000000000000000000000000000000001",
                "label": "Precompiled"
            },
            {
                "address": "0x0000000000000000000000000000000000000002",
                "label": "Precompiled"
            },
            {
                "address": "0x0000000000000000000000000000000000000004",
                "label": "Precompiled"
            },
            {
                "address": "0x7a250d5630b4cf539739df2c5dacb4c659f2488d",
                "label": "Uniswap V2: Router 2"
            },
            {
                "address": "0xb7277a6e95992041568d9391d09d0122023778a2",
                "label": "FiatTokenV2"
            },
            {
                "address": "0x0000000000000000000000000000000000000003",
                "label": "Precompiled"
            }
        ]
    },
    "trace": {
        "accountLabels": null,
        "dataMap": {
            "-1": {
                "invocation": {
                    "address": "0x51925cdef71a5dc7cd8c4729f053460d0027c915",
                    "callData": "",
                    "decodedMethod": null,
                    "errorInfo": "",
                    "fromAddress": "",
                    "gasUsed": 0,
                    "id": -1,
                    "methodDecoded": false,
                    "operation": "",
                    "output": "",
                    "revert": false,
                    "revertMessage": "",
                    "selector": "",
                    "status": false,
                    "value": ""
                },
                "nodeType": 0
            },
            "0": {
                "invocation": {
                    "address": "0x7a250d5630b4cf539739df2c5dacb4c659f2488d",
                    "callData": "0x00000000000000000000000000000000000000000000000000000004b68a855500000000000000000000000000000000000000000000001871d78fa1dfbdc83500000000000000000000000000000000000000000000000000000000000000a000000000000000000000000051925cdef71a5dc7cd8c4729f053460d0027c915000000000000000000000000000000000000000000000000000000006074772c0000000000000000000000000000000000000000000000000000000000000002000000000000000000000000a0b86991c6218b36c1d19d4a2e9eb0ce3606eb480000000000000000000000000391d2021f89dc339f60fff84546ea23e337750f",
                    "decodedMethod": {
                        "callParams": [
                            {
                                "name": "amountIn",
                                "type": "uint256",
                                "value": "20,242,400,597"
                            },
                            {
                                "name": "amountOutMin",
                                "type": "uint256",
                                "value": "450,925,040,940,714,149,941"
                            },
                            {
                                "name": "path",
                                "type": "address[]",
                                "value": [
                                    "0xa0b86991c6218b36c1d19d4a2e9eb0ce3606eb48",
                                    "0x0391d2021f89dc339f60fff84546ea23e337750f"
                                ]
                            },
                            {
                                "name": "to",
                                "type": "address",
                                "value": "0x51925cdef71a5dc7cd8c4729f053460d0027c915"
                            },
                            {
                                "name": "deadline",
                                "type": "uint256",
                                "value": "1,618,245,420"
                            }
                        ],
                        "constructorArguments": "",
                        "name": "swapExactTokensForTokens",
                        "returnParams": [
                            {
                                "name": "amounts",
                                "type": "uint256[]",
                                "value": [
                                    "20,242,400,597",
                                    "453,179,666,145,417,720,691"
                                ]
                            }
                        ],
                        "signature": "swapExactTokensForTokens(uint256,uint256,address[],address,uint256)"
                    },
                    "errorInfo": "",
                    "fromAddress": "0x51925cdef71a5dc7cd8c4729f053460d0027c915",
                    "gasUsed": 118624,
                    "id": 0,
                    "methodDecoded": true,
                    "operation": "CALL",
                    "output": "0x0000000000000000000000000000000000000000000000000000000000000020000000000000000000000000000000000000000000000000000000000000000200000000000000000000000000000000000000000000000000000004b68a85550000000000000000000000000000000000000000000000189121994f7bbd7373",
                    "revert": false,
                    "revertMessage": "",
                    "selector": "0x38ed1739",
                    "status": true,
                    "value": "0"
                },
                "nodeType": 0
            },
            "1": {
                "invocation": {
                    "address": "0x6591c4bcd6d7a1eb4e537da8b78676c1576ba244",
                    "callData": "0x",
                    "decodedMethod": {
                        "callParams": [],
                        "constructorArguments": "",
                        "name": "getReserves",
                        "returnParams": [
                            {
                                "name": "_reserve0",
                                "type": "uint112",
                                "value": "386,982,175,161,665,033,413,965"
                            },
                            {
                                "name": "_reserve1",
                                "type": "uint112",
                                "value": "17,213,486,234,322"
                            },
                            {
                                "name": "_blockTimestampLast",
                                "type": "uint32",
                                "value": "1,618,244,072"
                            }
                        ],
                        "signature": "getReserves()"
                    },
                    "errorInfo": "",
                    "fromAddress": "0x7a250d5630b4cf539739df2c5dacb4c659f2488d",
                    "gasUsed": 1204,
                    "id": 1,
                    "methodDecoded": true,
                    "operation": "STATICCALL",
                    "output": "0x0000000000000000000000000000000000000000000051f258832618fd6d254d00000000000000000000000000000000000000000000000000000fa7d3bb7ad200000000000000000000000000000000000000000000000000000000607471e8",
                    "revert": false,
                    "revertMessage": "",
                    "selector": "0x0902f1ac",
                    "status": true,
                    "value": "0"
                },
                "nodeType": 0
            },
            "10": {
                "invocation": {
                    "address": "0xb7277a6e95992041568d9391d09d0122023778a2",
                    "callData": "0x0000000000000000000000006591c4bcd6d7a1eb4e537da8b78676c1576ba244",
                    "decodedMethod": {
                        "callParams": [
                            {
                                "name": "account",
                                "type": "address",
                                "value": "0x6591c4bcd6d7a1eb4e537da8b78676c1576ba244"
                            }
                        ],
                        "constructorArguments": "",
                        "name": "balanceOf",
                        "returnParams": [
                            {
                                "decimalAvailable": true,
                                "name": "",
                                "type": "uint256",
                                "value": "17,233,728,634,919"
                            }
                        ],
                        "signature": "balanceOf(address)"
                    },
                    "errorInfo": "",
                    "fromAddress": "0xa0b86991c6218b36c1d19d4a2e9eb0ce3606eb48",
                    "gasUsed": 1207,
                    "id": 10,
                    "methodDecoded": true,
                    "operation": "DELEGATECALL",
                    "output": "0x00000000000000000000000000000000000000000000000000000fac8a460027",
                    "revert": false,
                    "revertMessage": "",
                    "selector": "0x70a08231",
                    "status": true,
                    "value": "0"
                },
                "nodeType": 0
            },
            "11": {
                "event": {
                    "contract": "0x6591c4bcd6d7a1eb4e537da8b78676c1576ba244",
                    "decodedLog": {
                        "name": "Sync",
                        "params": [
                            {
                                "name": "reserve0",
                                "type": "uint112",
                                "value": "386,528,995,495,519,615,693,274"
                            },
                            {
                                "name": "reserve1",
                                "type": "uint112",
                                "value": "17,233,728,634,919"
                            }
                        ],
                        "signature": "Sync(uint112,uint112)"
                    },
                    "id": 11,
                    "logData": "0x0000000000000000000000000000000000000000000051d9c7618cc981afb1da00000000000000000000000000000000000000000000000000000fac8a460027",
                    "logDecoded": true,
                    "operation": "EVENT",
                    "revert": false,
                    "status": true,
                    "topics": [
                        "0x1c411e9a96e071241c2f21f7726b17ae89e3cab4c78be50e062b03a9fffbbad1"
                    ]
                },
                "nodeType": 1
            },
            "12": {
                "event": {
                    "contract": "0x6591c4bcd6d7a1eb4e537da8b78676c1576ba244",
                    "decodedLog": {
                        "name": "Swap",
                        "params": [
                            {
                                "name": "sender",
                                "type": "address",
                                "value": "0x7a250d5630b4cf539739df2c5dacb4c659f2488d"
                            },
                            {
                                "name": "to",
                                "type": "address",
                                "value": "0x51925cdef71a5dc7cd8c4729f053460d0027c915"
                            },
                            {
                                "name": "amount0In",
                                "type": "uint256",
                                "value": "0"
                            },
                            {
                                "name": "amount1In",
                                "type": "uint256",
                                "value": "20,242,400,597"
                            },
                            {
                                "name": "amount0Out",
                                "type": "uint256",
                                "value": "453,179,666,145,417,720,691"
                            },
                            {
                                "name": "amount1Out",
                                "type": "uint256",
                                "value": "0"
                            }
                        ],
                        "signature": "Swap(address,uint256,uint256,uint256,uint256,address)"
                    },
                    "id": 12,
                    "logData": "0x000000000000000000000000000000000000000000000000000000000000000000000000000000000000000000000000000000000000000000000004b68a85550000000000000000000000000000000000000000000000189121994f7bbd73730000000000000000000000000000000000000000000000000000000000000000",
                    "logDecoded": true,
                    "operation": "EVENT",
                    "revert": false,
                    "status": true,
                    "topics": [
                        "0xd78ad95fa46c994b6551d0da85fc275fe613ce37657fb8d5e3d130840159d822",
                        "0x0000000000000000000000007a250d5630b4cf539739df2c5dacb4c659f2488d",
                        "0x00000000000000000000000051925cdef71a5dc7cd8c4729f053460d0027c915"
                    ]
                },
                "nodeType": 1
            },
            "2": {
                "invocation": {
                    "address": "0xa0b86991c6218b36c1d19d4a2e9eb0ce3606eb48",
                    "callData": "0x00000000000000000000000051925cdef71a5dc7cd8c4729f053460d0027c9150000000000000000000000006591c4bcd6d7a1eb4e537da8b78676c1576ba24400000000000000000000000000000000000000000000000000000004b68a8555",
                    "decodedMethod": {
                        "callParams": [
                            {
                                "name": "from",
                                "type": "address",
                                "value": "0x51925cdef71a5dc7cd8c4729f053460d0027c915"
                            },
                            {
                                "name": "to",
                                "type": "address",
                                "value": "0x6591c4bcd6d7a1eb4e537da8b78676c1576ba244"
                            },
                            {
                                "decimalAvailable": true,
                                "name": "value",
                                "type": "uint256",
                                "value": "20,242,400,597"
                            }
                        ],
                        "constructorArguments": "",
                        "name": "transferFrom",
                        "returnParams": [
                            {
                                "name": "",
                                "type": "bool",
                                "value": true
                            }
                        ],
                        "signature": "transferFrom(address,address,uint256)"
                    },
                    "errorInfo": "",
                    "fromAddress": "0x7a250d5630b4cf539739df2c5dacb4c659f2488d",
                    "gasUsed": 29014,
                    "id": 2,
                    "methodDecoded": true,
                    "operation": "CALL",
                    "output": "0x0000000000000000000000000000000000000000000000000000000000000001",
                    "revert": false,
                    "revertMessage": "",
                    "selector": "0x23b872dd",
                    "status": true,
                    "value": "0"
                },
                "nodeType": 0
            },
            "3": {
                "invocation": {
                    "address": "0xb7277a6e95992041568d9391d09d0122023778a2",
                    "callData": "0x00000000000000000000000051925cdef71a5dc7cd8c4729f053460d0027c9150000000000000000000000006591c4bcd6d7a1eb4e537da8b78676c1576ba24400000000000000000000000000000000000000000000000000000004b68a8555",
                    "decodedMethod": {
                        "callParams": [
                            {
                                "name": "from",
                                "type": "address",
                                "value": "0x51925cdef71a5dc7cd8c4729f053460d0027c915"
                            },
                            {
                                "name": "to",
                                "type": "address",
                                "value": "0x6591c4bcd6d7a1eb4e537da8b78676c1576ba244"
                            },
                            {
                                "decimalAvailable": true,
                                "name": "value",
                                "type": "uint256",
                                "value": "20,242,400,597"
                            }
                        ],
                        "constructorArguments": "",
                        "name": "transferFrom",
                        "returnParams": [
                            {
                                "name": "",
                                "type": "bool",
                                "value": true
                            }
                        ],
                        "signature": "transferFrom(address,address,uint256)"
                    },
                    "errorInfo": "",
                    "fromAddress": "0xa0b86991c6218b36c1d19d4a2e9eb0ce3606eb48",
                    "gasUsed": 26219,
                    "id": 3,
                    "methodDecoded": true,
                    "operation": "DELEGATECALL",
                    "output": "0x0000000000000000000000000000000000000000000000000000000000000001",
                    "revert": false,
                    "revertMessage": "",
                    "selector": "0x23b872dd",
                    "status": true,
                    "value": "0"
                },
                "nodeType": 0
            },
            "4": {
                "event": {
                    "contract": "0xa0b86991c6218b36c1d19d4a2e9eb0ce3606eb48",
                    "decodedLog": {
                        "name": "Transfer",
                        "params": [
                            {
                                "name": "from",
                                "type": "address",
                                "value": "0x51925cdef71a5dc7cd8c4729f053460d0027c915"
                            },
                            {
                                "name": "to",
                                "type": "address",
                                "value": "0x6591c4bcd6d7a1eb4e537da8b78676c1576ba244"
                            },
                            {
                                "decimalAvailable": true,
                                "name": "value",
                                "type": "uint256",
                                "value": "20,242,400,597"
                            }
                        ],
                        "signature": "Transfer(address,address,uint256)"
                    },
                    "id": 4,
                    "logData": "0x00000000000000000000000000000000000000000000000000000004b68a8555",
                    "logDecoded": true,
                    "operation": "EVENT",
                    "revert": false,
                    "status": true,
                    "topics": [
                        "0xddf252ad1be2c89b69c2b068fc378daa952ba7f163c4a11628f55a4df523b3ef",
                        "0x00000000000000000000000051925cdef71a5dc7cd8c4729f053460d0027c915",
                        "0x0000000000000000000000006591c4bcd6d7a1eb4e537da8b78676c1576ba244"
                    ]
                },
                "nodeType": 1
            },
            "5": {
                "invocation": {
                    "address": "0x6591c4bcd6d7a1eb4e537da8b78676c1576ba244",
                    "callData": "0x0000000000000000000000000000000000000000000000189121994f7bbd7373000000000000000000000000000000000000000000000000000000000000000000000000000000000000000051925cdef71a5dc7cd8c4729f053460d0027c91500000000000000000000000000000000000000000000000000000000000000800000000000000000000000000000000000000000000000000000000000000000",
                    "decodedMethod": {
                        "callParams": [
                            {
                                "name": "amount0Out",
                                "type": "uint256",
                                "value": "453,179,666,145,417,720,691"
                            },
                            {
                                "name": "amount1Out",
                                "type": "uint256",
                                "value": "0"
                            },
                            {
                                "name": "to",
                                "type": "address",
                                "value": "0x51925cdef71a5dc7cd8c4729f053460d0027c915"
                            },
                            {
                                "name": "data",
                                "type": "bytes",
                                "value": "0x"
                            }
                        ],
                        "constructorArguments": "",
                        "name": "swap",
                        "returnParams": [],
                        "signature": "swap(uint256,uint256,address,bytes)"
                    },
                    "errorInfo": "",
                    "fromAddress": "0x7a250d5630b4cf539739df2c5dacb4c659f2488d",
                    "gasUsed": 73751,
                    "id": 5,
                    "methodDecoded": true,
                    "operation": "CALL",
                    "output": "",
                    "revert": false,
                    "revertMessage": "",
                    "selector": "0x022c0d9f",
                    "status": true,
                    "value": "0"
                },
                "nodeType": 0
            },
            "6": {
                "invocation": {
                    "address": "0x0391d2021f89dc339f60fff84546ea23e337750f",
                    "callData": "0x00000000000000000000000051925cdef71a5dc7cd8c4729f053460d0027c9150000000000000000000000000000000000000000000000189121994f7bbd7373",
                    "decodedMethod": {
                        "callParams": [
                            {
                                "name": "recipient",
                                "type": "address",
                                "value": "0x51925cdef71a5dc7cd8c4729f053460d0027c915"
                            },
                            {
                                "decimalAvailable": true,
                                "name": "amount",
                                "type": "uint256",
                                "value": "453,179,666,145,417,720,691"
                            }
                        ],
                        "constructorArguments": "",
                        "name": "transfer",
                        "returnParams": [
                            {
                                "name": "",
                                "type": "bool",
                                "value": true
                            }
                        ],
                        "signature": "transfer(address,uint256)"
                    },
                    "errorInfo": "",
                    "fromAddress": "0x6591c4bcd6d7a1eb4e537da8b78676c1576ba244",
                    "gasUsed": 29545,
                    "id": 6,
                    "methodDecoded": true,
                    "operation": "CALL",
                    "output": "0x0000000000000000000000000000000000000000000000000000000000000001",
                    "revert": false,
                    "revertMessage": "",
                    "selector": "0xa9059cbb",
                    "status": true,
                    "value": "0"
                },
                "nodeType": 0
            },
            "7": {
                "event": {
                    "contract": "0x0391d2021f89dc339f60fff84546ea23e337750f",
                    "decodedLog": {
                        "name": "Transfer",
                        "params": [
                            {
                                "name": "from",
                                "type": "address",
                                "value": "0x6591c4bcd6d7a1eb4e537da8b78676c1576ba244"
                            },
                            {
                                "name": "to",
                                "type": "address",
                                "value": "0x51925cdef71a5dc7cd8c4729f053460d0027c915"
                            },
                            {
                                "decimalAvailable": true,
                                "name": "value",
                                "type": "uint256",
                                "value": "453,179,666,145,417,720,691"
                            }
                        ],
                        "signature": "Transfer(address,address,uint256)"
                    },
                    "id": 7,
                    "logData": "0x0000000000000000000000000000000000000000000000189121994f7bbd7373",
                    "logDecoded": true,
                    "operation": "EVENT",
                    "revert": false,
                    "status": true,
                    "topics": [
                        "0xddf252ad1be2c89b69c2b068fc378daa952ba7f163c4a11628f55a4df523b3ef",
                        "0x0000000000000000000000006591c4bcd6d7a1eb4e537da8b78676c1576ba244",
                        "0x00000000000000000000000051925cdef71a5dc7cd8c4729f053460d0027c915"
                    ]
                },
                "nodeType": 1
            },
            "8": {
                "invocation": {
                    "address": "0x0391d2021f89dc339f60fff84546ea23e337750f",
                    "callData": "0x0000000000000000000000006591c4bcd6d7a1eb4e537da8b78676c1576ba244",
                    "decodedMethod": {
                        "callParams": [
                            {
                                "name": "account",
                                "type": "address",
                                "value": "0x6591c4bcd6d7a1eb4e537da8b78676c1576ba244"
                            }
                        ],
                        "constructorArguments": "",
                        "name": "balanceOf",
                        "returnParams": [
                            {
                                "decimalAvailable": true,
                                "name": "",
                                "type": "uint256",
                                "value": "386,528,995,495,519,615,693,274"
                            }
                        ],
                        "signature": "balanceOf(address)"
                    },
                    "errorInfo": "",
                    "fromAddress": "0x6591c4bcd6d7a1eb4e537da8b78676c1576ba244",
                    "gasUsed": 1190,
                    "id": 8,
                    "methodDecoded": true,
                    "operation": "STATICCALL",
                    "output": "0x0000000000000000000000000000000000000000000051d9c7618cc981afb1da",
                    "revert": false,
                    "revertMessage": "",
                    "selector": "0x70a08231",
                    "status": true,
                    "value": "0"
                },
                "nodeType": 0
            },
            "9": {
                "invocation": {
                    "address": "0xa0b86991c6218b36c1d19d4a2e9eb0ce3606eb48",
                    "callData": "0x0000000000000000000000006591c4bcd6d7a1eb4e537da8b78676c1576ba244",
                    "decodedMethod": {
                        "callParams": [
                            {
                                "name": "account",
                                "type": "address",
                                "value": "0x6591c4bcd6d7a1eb4e537da8b78676c1576ba244"
                            }
                        ],
                        "constructorArguments": "",
                        "name": "balanceOf",
                        "returnParams": [
                            {
                                "decimalAvailable": true,
                                "name": "",
                                "type": "uint256",
                                "value": "17,233,728,634,919"
                            }
                        ],
                        "signature": "balanceOf(address)"
                    },
                    "errorInfo": "",
                    "fromAddress": "0x6591c4bcd6d7a1eb4e537da8b78676c1576ba244",
                    "gasUsed": 3993,
                    "id": 9,
                    "methodDecoded": true,
                    "operation": "STATICCALL",
                    "output": "0x00000000000000000000000000000000000000000000000000000fac8a460027",
                    "revert": false,
                    "revertMessage": "",
                    "selector": "0x70a08231",
                    "status": true,
                    "value": "0"
                },
                "nodeType": 0
            }
        },
        "gasFlame": [
            {
                "children": [
                    {
                        "children": [
                            {
                                "children": [],
                                "depth": 0,
                                "name": "Initial Gas",
                                "value": 23036
                            },
                            {
                                "children": [
                                    {
                                        "children": [],
                                        "depth": 1,
                                        "name": "getReserves",
                                        "value": 1204
                                    },
                                    {
                                        "children": [
                                            {
                                                "children": [],
                                                "depth": 2,
                                                "name": "transferFrom",
                                                "value": 26219
                                            }
                                        ],
                                        "depth": 1,
                                        "name": "transferFrom",
                                        "value": 29014
                                    },
                                    {
                                        "children": [
                                            {
                                                "children": [],
                                                "depth": 2,
                                                "name": "transfer",
                                                "value": 29545
                                            },
                                            {
                                                "children": [],
                                                "depth": 2,
                                                "name": "balanceOf",
                                                "value": 1190
                                            },
                                            {
                                                "children": [
                                                    {
                                                        "children": [],
                                                        "depth": 3,
                                                        "name": "balanceOf",
                                                        "value": 1207
                                                    }
                                                ],
                                                "depth": 2,
                                                "name": "balanceOf",
                                                "value": 3993
                                            }
                                        ],
                                        "depth": 1,
                                        "name": "swap",
                                        "value": 73751
                                    }
                                ],
                                "depth": 0,
                                "name": "Executed Gas",
                                "value": 114788
                            }
                        ],
                        "depth": -1,
                        "name": "Actual Gas Used",
                        "value": 118624
                    },
                    {
                        "children": [],
                        "depth": -1,
                        "name": "Refunded Gas",
                        "value": 19200
                    }
                ],
                "depth": -2,
                "name": "Total Gas",
                "value": 137824
            }
        ],
        "isConfirmed": true,
        "mainTrace": [
            {
                "children": [
                    {
                        "children": [
                            {
                                "children": [],
                                "depth": 1,
                                "id": 1,
                                "order": 1
                            },
                            {
                                "children": [
                                    {
                                        "children": [
                                            {
                                                "children": [],
                                                "depth": 3,
                                                "id": 4,
                                                "order": 4
                                            }
                                        ],
                                        "depth": 2,
                                        "id": 3,
                                        "order": 3
                                    }
                                ],
                                "depth": 1,
                                "id": 2,
                                "order": 2
                            },
                            {
                                "children": [
                                    {
                                        "children": [
                                            {
                                                "children": [],
                                                "depth": 3,
                                                "id": 7,
                                                "order": 7
                                            }
                                        ],
                                        "depth": 2,
                                        "id": 6,
                                        "order": 6
                                    },
                                    {
                                        "children": [],
                                        "depth": 2,
                                        "id": 8,
                                        "order": 8
                                    },
                                    {
                                        "children": [
                                            {
                                                "children": [],
                                                "depth": 3,
                                                "id": 10,
                                                "order": 10
                                            }
                                        ],
                                        "depth": 2,
                                        "id": 9,
                                        "order": 9
                                    },
                                    {
                                        "children": [],
                                        "depth": 2,
                                        "id": 11,
                                        "order": 11
                                    },
                                    {
                                        "children": [],
                                        "depth": 2,
                                        "id": 12,
                                        "order": 12
                                    }
                                ],
                                "depth": 1,
                                "id": 5,
                                "order": 5
                            }
                        ],
                        "depth": 0,
                        "id": 0,
                        "order": 0
                    }
                ],
                "depth": -1,
                "id": -1,
                "order": -1
            }
        ],
        "mainTraceNodeCount": 13,
        "parentIdMap": {
            "0": -1,
            "1": 0,
            "10": 9,
            "11": 5,
            "12": 5,
            "2": 0,
            "3": 2,
            "4": 3,
            "5": 0,
            "6": 5,
            "7": 6,
            "8": 5,
            "9": 5
        },
        "tidyTrace": [
            {
                "children": [
                    {
                        "children": [
                            {
                                "children": [
                                    {
                                        "children": [
                                            {
                                                "children": [],
                                                "depth": 3,
                                                "id": 4,
                                                "order": 4
                                            }
                                        ],
                                        "depth": 2,
                                        "id": 3,
                                        "order": 3
                                    }
                                ],
                                "depth": 1,
                                "id": 2,
                                "order": 2
                            },
                            {
                                "children": [
                                    {
                                        "children": [
                                            {
                                                "children": [],
                                                "depth": 3,
                                                "id": 7,
                                                "order": 7
                                            }
                                        ],
                                        "depth": 2,
                                        "id": 6,
                                        "order": 6
                                    },
                                    {
                                        "children": [],
                                        "depth": 2,
                                        "id": 11,
                                        "order": 11
                                    },
                                    {
                                        "children": [],
                                        "depth": 2,
                                        "id": 12,
                                        "order": 12
                                    }
                                ],
                                "depth": 1,
                                "id": 5,
                                "order": 5
                            }
                        ],
                        "depth": 0,
                        "id": 0,
                        "order": 0
                    }
                ],
                "depth": -1,
                "id": -1,
                "order": -1
            }
        ],
        "tidyTraceNodeCount": 9
    },
    "state_change": {
        "stateChanges": [
            {
                "address": "0x0391d2021f89dc339f60fff84546ea23e337750f",
                "erc": "ERC-20",
                "slots": [
                    {
                        "current": "0x0000000000000000000000000000000000000000000051d9c7618cc981afb1da",
                        "key": "0x38639a5457d8b81370a9e8d4ba92de04f4649af5e6d51c35e2a994a3ef5ce555",
                        "prev": "0x0000000000000000000000000000000000000000000051f258832618fd6d254d"
                    },
                    {
                        "current": "0x0000000000000000000000000000000000000000000000189121994f7bbd7373",
                        "key": "0x8afd6c56a60856658e81290b39e5f2eb36450baecc18bba9a3ab8f052d0ed92b",
                        "prev": "0x0000000000000000000000000000000000000000000000000000000000000000"
                    }
                ],
                "storageVariables": [
                    {
                        "name": "_balances",
                        "type": "mapping(address => uint256)",
                        "value": {
                            "pairs": [
                                {
                                    "key": "0x51925cdef71a5dc7cd8c4729f053460d0027c915",
                                    "value": {
                                        "current": "453179666145417720691",
                                        "prev": "0",
                                        "typeTag": 1
                                    }
                                },
                                {
                                    "key": "0x6591c4bcd6d7a1eb4e537da8b78676c1576ba244",
                                    "value": {
                                        "current": "386528995495519615693274",
                                        "prev": "386982175161665033413965",
                                        "typeTag": 1
                                    }
                                }
                            ],
                            "typeTag": 4
                        }
                    }
                ]
            },
            {
                "address": "0x6591c4bcd6d7a1eb4e537da8b78676c1576ba244",
                "erc": "ERC-20",
                "slots": [
                    {
                        "current": "0x000000000000000000000000000000000000002b65ec15f584813e24685c49dd",
                        "key": "0x0000000000000000000000000000000000000000000000000000000000000009",
                        "prev": "0x000000000000000000000000000000000000002b65bb2d931458e6b1ced7efdd"
                    },
                    {
                        "current": "0x0000000000000000000005961fbd183462930dc1881a9b37a71efc7a71631424",
                        "key": "0x000000000000000000000000000000000000000000000000000000000000000a",
                        "prev": "0x0000000000000000000005961a811a3bf4e1e67e2c614196599fd072ad2b7a24"
                    },
                    {
                        "current": "0x607472e800000000000000000fac8a4600270000000051d9c7618cc981afb1da",
                        "key": "0x0000000000000000000000000000000000000000000000000000000000000008",
                        "prev": "0x607471e800000000000000000fa7d3bb7ad20000000051f258832618fd6d254d"
                    }
                ],
                "storageVariables": [
                    {
                        "name": "price1CumulativeLast",
                        "type": "uint256",
                        "value": {
                            "current": "2090128537046449807676658616828650184452802183631908",
                            "prev": "2090098654224684801756101794831175511383380796865060",
                            "typeTag": 1
                        }
                    },
                    {
                        "name": "reserve0",
                        "type": "uint112",
                        "value": {
                            "current": "386528995495519615693274",
                            "prev": "386982175161665033413965",
                            "typeTag": 1
                        }
                    },
                    {
                        "name": "reserve1",
                        "type": "uint112",
                        "value": {
                            "current": "17233728634919",
                            "prev": "17213486234322",
                            "typeTag": 1
                        }
                    },
                    {
                        "name": "blockTimestampLast",
                        "type": "uint32",
                        "value": {
                            "current": "1618244328",
                            "prev": "1618244072",
                            "typeTag": 1
                        }
                    },
                    {
                        "name": "price0CumulativeLast",
                        "type": "uint256",
                        "value": {
                            "current": "3438354384297447840281305827805",
                            "prev": "3438295258453219587418664464349",
                            "typeTag": 1
                        }
                    }
                ]
            },
            {
                "address": "0xa0b86991c6218b36c1d19d4a2e9eb0ce3606eb48",
                "erc": "ERC-20",
                "slots": [
                    {
                        "current": "0xfffffffffffffffffffffffffffffffffffffffffffffffffffffffb49757aaa",
                        "key": "0x7810c6ef4dc18a6e696834da09876104a9afb39577469bf9d2bc516f756880dc",
                        "prev": "0xffffffffffffffffffffffffffffffffffffffffffffffffffffffffffffffff"
                    },
                    {
                        "current": "0x0000000000000000000000000000000000000000000000000000000000000000",
                        "key": "0xf4776c65fe26c1ee9e1bb6f89a7d1710cf6cd745f76e3139b327c61eaa9b35bb",
                        "prev": "0x00000000000000000000000000000000000000000000000000000004b68a8555"
                    },
                    {
                        "current": "0x00000000000000000000000000000000000000000000000000000fac8a460027",
                        "key": "0x683d3cb36ecdb60f071c193e8f0573f935c7bf56cd04c24a3dd0bede8959c948",
                        "prev": "0x00000000000000000000000000000000000000000000000000000fa7d3bb7ad2"
                    }
                ],
                "storageVariables": [
                    {
                        "name": "allowed",
                        "type": "mapping(address => mapping(address => uint256))",
                        "value": {
                            "pairs": [
                                {
                                    "key": "0x51925cdef71a5dc7cd8c4729f053460d0027c915",
                                    "value": {
                                        "pairs": [
                                            {
                                                "key": "0x7a250d5630b4cf539739df2c5dacb4c659f2488d",
                                                "value": {
                                                    "current": "115792089237316195423570985008687907853269984665640564039457584007892887239338",
                                                    "prev": "115792089237316195423570985008687907853269984665640564039457584007913129639935",
                                                    "typeTag": 1
                                                }
                                            }
                                        ],
                                        "typeTag": 4
                                    }
                                }
                            ],
                            "typeTag": 4
                        }
                    },
                    {
                        "name": "balances",
                        "type": "mapping(address => uint256)",
                        "value": {
                            "pairs": [
                                {
                                    "key": "0x51925cdef71a5dc7cd8c4729f053460d0027c915",
                                    "value": {
                                        "current": "0",
                                        "prev": "20242400597",
                                        "typeTag": 1
                                    }
                                },
                                {
                                    "key": "0x6591c4bcd6d7a1eb4e537da8b78676c1576ba244",
                                    "value": {
                                        "current": "17233728634919",
                                        "prev": "17213486234322",
                                        "typeTag": 1
                                    }
                                }
                            ],
                            "typeTag": 4
                        }
                    }
                ]
            }
        ]
    }
}