{
    "balance_change": {
        "balanceChanges": [
            {
                "account": "0x14d8dea7badc9dd1d7ce550bc8a60f1655f16304",
                "assets": [
                    {
                        "address": "0x6890d42431d526bd77533dd2e92274c08561da3a",
                        "amount": "50,000,000,000,000,000,000",
                        "iconUrl": "",
                        "isERC1155": false,
                        "isERC721": false,
                        "sign": false,
                        "value": ""
                    }
                ]
            },
            {
                "account": "0xae874ebc948543e055d2e938dcfb4e33af7fa2f5",
                "assets": [
                    {
                        "address": "0x6890d42431d526bd77533dd2e92274c08561da3a",
                        "amount": "50,000,000,000,000,000,000",
                        "iconUrl": "",
                        "isERC1155": false,
                        "isERC721": false,
                        "sign": true,
                        "value": ""
                    }
                ]
            }
        ]
    },
    "profile": {
        "basic_info": {
            "baseFee": "",
            "blockNumber": 6660817,
            "callData": "0xa9059cbb000000000000000000000000ae874ebc948543e055d2e938dcfb4e33af7fa2f5000000000000000000000000000000000000000000000002b5e3af16b1880000",
            "debugEnable": true,
            "errorInfo": "",
            "eventCount": 1,
            "feeRecipient": "0x5a0b54d5dc17e0aadc383d2db43b0a0d3e029c4c",
            "formatValue": "0",
            "gasLimit": 60000,
            "gasPrice": "50",
            "gasUsed": 21802,
            "intTxnCount": 0,
            "internalRevert": false,
            "internalRevertMessage": "",
            "isContractCreation": false,
            "isFlashloan": false,
            "maxFee": "",
            "nonce": 9,
            "overwritedBlockNumber": -1,
            "priorityFee": "",
            "receiver": "0x6890d42431d526bd77533dd2e92274c08561da3a",
            "revertMessage": "",
            "sender": "0x14d8dea7badc9dd1d7ce550bc8a60f1655f16304",
            "simulationEnable": true,
            "sourceTxnHash": "0x707e68d114124b787d0734de4d714a251108adf62cc687c8aa7f17ed65a542c8",
            "status": true,
            "timestamp": "2018-11-07T15:10:49Z",
            "transactionFee": "0.0010901",
            "txnHash": "0x707e68d114124b787d0734de4d714a251108adf62cc687c8aa7f17ed65a542c8",
            "txnIndex": 101,
            "type": 0,
            "value": "0"
        },
        "fund_flow": [
            {
                "amount": "50,000,000,000,000,000,000",
                "from": "0x14d8dea7badc9dd1d7ce550bc8a60f1655f16304",
                "id": 1,
                "isERC1155": false,
                "isERC721": false,
                "isReverted": false,
                "order": 1,
                "to": "0xae874ebc948543e055d2e938dcfb4e33af7fa2f5",
                "token": "0x6890d42431d526bd77533dd2e92274c08561da3a"
            }
        ],
        "token_infos": [
            {
                "address": "0xc02aaa39b223fe8d0a0e5c4f27ead9083c756cc2",
                "decimals": 18
            },
            {
                "address": "0xeeeeeeeeeeeeeeeeeeeeeeeeeeeeeeeeeeeeeeee",
                "decimals": 18
            }
        ]
    },
    "address_label": {
        "labels": [
            {
                "address": "0xeeeeeeeeeeeeeeeeeeeeeeeeeeeeeeeeeeeeeeee",
                "label": "Ether"
            },
            {
                "address": "0x0000000000000000000000000000000000000001",
                "label": "Precompiled"
            },
            {
                "address": "0x0000000000000000000000000000000000000002",
                "label": "Precompiled"
            },
            {
                "address": "0x0000000000000000000000000000000000000003",
                "label": "Precompiled"
            },
            {
                "address": "0x0000000000000000000000000000000000000004",
                "label": "Precompiled"
            }
        ]
    },
    "trace": {
        "accountLabels": null,
        "dataMap": {
            "-1": {
                "invocation": {
                    "address": "0x14d8dea7badc9dd1d7ce550bc8a60f1655f16304",
                    "callData": "",
                    "decodedMethod": null,
                    "errorInfo": "",
                    "fromAddress": "",
                    "gasUsed": 0,
                    "id": -1,
                    "methodDecoded": false,
                    "operation": "",
                    "output": "",
                    "revert": false,
                    "revertMessage": "",
                    "selector": "",
                    "status": false,
                    "value": ""
                },
                "nodeType": 0
            },
            "0": {
                "invocation": {
                    "address": "0x6890d42431d526bd77533dd2e92274c08561da3a",
                    "callData": "0x000000000000000000000000ae874ebc948543e055d2e938dcfb4e33af7fa2f5000000000000000000000000000000000000000000000002b5e3af16b1880000",
                    "decodedMethod": {
                        "callParams": [
                            {
                                "name": "_to",
                                "type": "address",
                                "value": "0xae874ebc948543e055d2e938dcfb4e33af7fa2f5"
                            },
                            {
                                "decimalAvailable": true,
                                "name": "_value",
                                "type": "uint256",
                                "value": "50,000,000,000,000,000,000"
                            }
                        ],
                        "constructorArguments": "",
                        "name": "transfer",
                        "returnParams": [],
                        "signature": "transfer(address,uint256)"
                    },
                    "errorInfo": "",
                    "fromAddress": "0x14d8dea7badc9dd1d7ce550bc8a60f1655f16304",
                    "gasUsed": 21802,
                    "id": 0,
                    "methodDecoded": true,
                    "operation": "CALL",
                    "output": "",
                    "revert": false,
                    "revertMessage": "",
                    "selector": "0xa9059cbb",
                    "status": true,
                    "value": "0"
                },
                "nodeType": 0
            },
            "1": {
                "event": {
                    "contract": "0x6890d42431d526bd77533dd2e92274c08561da3a",
                    "decodedLog": {
                        "name": "Transfer",
                        "params": [
                            {
                                "name": "from",
                                "type": "address",
                                "value": "0x14d8dea7badc9dd1d7ce550bc8a60f1655f16304"
                            },
                            {
                                "name": "to",
                                "type": "address",
                                "value": "0xae874ebc948543e055d2e938dcfb4e33af7fa2f5"
                            },
                            {
                                "decimalAvailable": true,
                                "name": "value",
                                "type": "uint256",
                                "value": "50,000,000,000,000,000,000"
                            }
                        ],
                        "signature": "Transfer(address,address,uint256)"
                    },
                    "id": 1,
                    "logData": "0x000000000000000000000000000000000000000000000002b5e3af16b1880000",
                    "logDecoded": true,
                    "operation": "EVENT",
                    "revert": false,
                    "status": true,
                    "topics": [
                        "0xddf252ad1be2c89b69c2b068fc378daa952ba7f163c4a11628f55a4df523b3ef",
                        "0x00000000000000000000000014d8dea7badc9dd1d7ce550bc8a60f1655f16304",
                        "0x000000000000000000000000ae874ebc948543e055d2e938dcfb4e33af7fa2f5"
                    ]
                },
                "nodeType": 1
            }
        },
        "gasFlame": [
            {
                "children": [
                    {
                        "children": [
                            {
                                "children": [],
                                "depth": 0,
                                "name": "Initial Gas",
                                "value": 23256
                            },
                            {
                                "children": [],
                                "depth": 0,
                                "name": "Executed Gas",
                                "value": 13546
                            }
                        ],
                        "depth": -1,
                        "name": "Actual Gas Used",
                        "value": 21802
                    },
                    {
                        "children": [],
                        "depth": -1,
                        "name": "Refunded Gas",
                        "value": 15000
                    }
                ],
                "depth": -2,
                "name": "Total Gas",
                "value": 36802
            }
        ],
        "isConfirmed": true,
        "mainTrace": [
            {
                "children": [
                    {
                        "children": [
                            {
                                "children": [],
                                "depth": 1,
                                "id": 1,
                                "order": 1
                            }
                        ],
                        "depth": 0,
                        "id": 0,
                        "order": 0
                    }
                ],
                "depth": -1,
                "id": -1,
                "order": -1
            }
        ],
        "mainTraceNodeCount": 2,
        "parentIdMap": {
            "0": -1,
            "1": 0
        },
        "tidyTrace": [
            {
                "children": [
                    {
                        "children": [
                            {
                                "children": [],
                                "depth": 1,
                                "id": 1,
                                "order": 1
                            }
                        ],
                        "depth": 0,
                        "id": 0,
                        "order": 0
                    }
                ],
                "depth": -1,
                "id": -1,
                "order": -1
            }
        ],
        "tidyTraceNodeCount": 2
    },
    "state_change": {
        "stateChanges": [
            {
                "address": "0x6890d42431d526bd77533dd2e92274c08561da3a",
                "erc": "",
                "slots": [
                    {
                        "current": "0x0000000000000000000000000000000000000000000000000000000000000000",
                        "key": "0x1492496daaca9fd8d64372baa5ba2c0c3bab0dea535e2792a983db6bd876a909",
                        "prev": "0x000000000000000000000000000000000000000000000002b5e3af16b1880000"
                    },
                    {
                        "current": "0x00000000000000000000000000000000000000000000006449e84e47a8a80000",
                        "key": "0x7c733eb11b10ad0f562a9d5956affe5c1add6af0fb88496a32978e3e0c815576",
                        "prev": "0x00000000000000000000000000000000000000000000006194049f30f7200000"
                    }
                ],
                "storageVariables": []
            }
        ]
    }
}