{
    "balance_change": {
        "balanceChanges": [
            {
                "account": "0xc998b6d025967d0d4243ebe0cfc006c98c73fbef",
                "assets": [
                    {
                        "address": "0xce1d3da32e3a45d27dc841781f09e40c41cac677",
                        "amount": "71,097",
                        "iconUrl": "",
                        "isERC1155": false,
                        "isERC721": false,
                        "sign": false,
                        "value": ""
                    }
                ]
            },
            {
                "account": "0xd15f70c11155f1f140c3b92d707767b1c20b0332",
                "assets": [
                    {
                        "address": "0xce1d3da32e3a45d27dc841781f09e40c41cac677",
                        "amount": "71,097",
                        "iconUrl": "",
                        "isERC1155": false,
                        "isERC721": false,
                        "sign": true,
                        "value": ""
                    }
                ]
            }
        ]
    },
    "profile": {
        "basic_info": {
            "baseFee": "",
            "blockNumber": 6672262,
            "callData": "0xa9059cbb000000000000000000000000d15f70c11155f1f140c3b92d707767b1c20b0332000000000000000000000000000000000000000000000f0e2d146bf32b440000",
            "debugEnable": true,
            "errorInfo": "",
            "eventCount": 1,
            "feeRecipient": "0x5a0b54d5dc17e0aadc383d2db43b0a0d3e029c4c",
            "formatValue": "0",
            "gasLimit": 51684,
            "gasPrice": "20",
            "gasUsed": 51684,
            "intTxnCount": 0,
            "internalRevert": false,
            "internalRevertMessage": "",
            "isContractCreation": false,
            "isFlashloan": false,
            "maxFee": "",
            "nonce": 2298,
            "overwritedBlockNumber": -1,
            "priorityFee": "",
            "receiver": "0xce1d3da32e3a45d27dc841781f09e40c41cac677",
            "revertMessage": "",
            "sender": "0xc998b6d025967d0d4243ebe0cfc006c98c73fbef",
            "simulationEnable": true,
            "sourceTxnHash": "0x7107a2b523cf31a9ef798886f7852446b2607cb9496040e5c94624d7fd6de617",
            "status": true,
            "timestamp": "2018-11-09T12:06:55Z",
            "transactionFee": "0.00103368",
            "txnHash": "0x7107a2b523cf31a9ef798886f7852446b2607cb9496040e5c94624d7fd6de617",
            "txnIndex": 27,
            "type": 0,
            "value": "0"
        },
        "fund_flow": [
            {
                "amount": "71,097",
                "from": "0xc998b6d025967d0d4243ebe0cfc006c98c73fbef",
                "id": 1,
                "isERC1155": false,
                "isERC721": false,
                "isReverted": false,
                "order": 1,
                "to": "0xd15f70c11155f1f140c3b92d707767b1c20b0332",
                "token": "0xce1d3da32e3a45d27dc841781f09e40c41cac677"
            }
        ],
        "token_infos": [
            {
                "address": "0xce1d3da32e3a45d27dc841781f09e40c41cac677",
                "decimals": 18
            },
            {
                "address": "0xeeeeeeeeeeeeeeeeeeeeeeeeeeeeeeeeeeeeeeee",
                "decimals": 18
            },
            {
                "address": "0xc02aaa39b223fe8d0a0e5c4f27ead9083c756cc2",
                "decimals": 18
            }
        ]
    },
    "address_label": {
        "labels": [
            {
                "address": "0xeeeeeeeeeeeeeeeeeeeeeeeeeeeeeeeeeeeeeeee",
                "label": "Ether"
            },
            {
                "address": "0xce1d3da32e3a45d27dc841781f09e40c41cac677",
                "label": "Data link base (DLB)"
            },
            {
                "address": "0x0000000000000000000000000000000000000001",
                "label": "Precompiled"
            },
            {
                "address": "0x0000000000000000000000000000000000000002",
                "label": "Precompiled"
            },
            {
                "address": "0x0000000000000000000000000000000000000003",
                "label": "Precompiled"
            },
            {
                "address": "0x0000000000000000000000000000000000000004",
                "label": "Precompiled"
            }
        ]
    },
    "trace": {
        "accountLabels": null,
        "dataMap": {
            "-1": {
                "invocation": {
                    "address": "0xc998b6d025967d0d4243ebe0cfc006c98c73fbef",
                    "callData": "",
                    "decodedMethod": null,
                    "errorInfo": "",
                    "fromAddress": "",
                    "gasUsed": 0,
                    "id": -1,
                    "methodDecoded": false,
                    "operation": "",
                    "output": "",
                    "revert": false,
                    "revertMessage": "",
                    "selector": "",
                    "status": false,
                    "value": ""
                },
                "nodeType": 0
            },
            "0": {
                "invocation": {
                    "address": "0xce1d3da32e3a45d27dc841781f09e40c41cac677",
                    "callData": "0x000000000000000000000000d15f70c11155f1f140c3b92d707767b1c20b0332000000000000000000000000000000000000000000000f0e2d146bf32b440000",
                    "decodedMethod": {
                        "callParams": [
                            {
                                "name": "_to",
                                "type": "address",
                                "value": "0xd15f70c11155f1f140c3b92d707767b1c20b0332"
                            },
                            {
                                "decimalAvailable": true,
                                "name": "_value",
                                "type": "uint256",
                                "value": "71,097,000,000,000,000,000,000"
                            }
                        ],
                        "constructorArguments": "",
                        "name": "transfer",
                        "returnParams": [
                            {
                                "name": "success",
                                "type": "bool",
                                "value": true
                            }
                        ],
                        "signature": "transfer(address,uint256)"
                    },
                    "errorInfo": "",
                    "fromAddress": "0xc998b6d025967d0d4243ebe0cfc006c98c73fbef",
                    "gasUsed": 51684,
                    "id": 0,
                    "methodDecoded": true,
                    "operation": "CALL",
                    "output": "0x0000000000000000000000000000000000000000000000000000000000000001",
                    "revert": false,
                    "revertMessage": "",
                    "selector": "0xa9059cbb",
                    "status": true,
                    "value": "0"
                },
                "nodeType": 0
            },
            "1": {
                "event": {
                    "contract": "0xce1d3da32e3a45d27dc841781f09e40c41cac677",
                    "decodedLog": {
                        "name": "Transfer",
                        "params": [
                            {
                                "name": "_from",
                                "type": "address",
                                "value": "0xc998b6d025967d0d4243ebe0cfc006c98c73fbef"
                            },
                            {
                                "name": "_to",
                                "type": "address",
                                "value": "0xd15f70c11155f1f140c3b92d707767b1c20b0332"
                            },
                            {
                                "decimalAvailable": true,
                                "name": "_value",
                                "type": "uint256",
                                "value": "71,097,000,000,000,000,000,000"
                            }
                        ],
                        "signature": "Transfer(address,address,uint256)"
                    },
                    "id": 1,
                    "logData": "0x000000000000000000000000000000000000000000000f0e2d146bf32b440000",
                    "logDecoded": true,
                    "operation": "EVENT",
                    "revert": false,
                    "status": true,
                    "topics": [
                        "0xddf252ad1be2c89b69c2b068fc378daa952ba7f163c4a11628f55a4df523b3ef",
                        "0x000000000000000000000000c998b6d025967d0d4243ebe0cfc006c98c73fbef",
                        "0x000000000000000000000000d15f70c11155f1f140c3b92d707767b1c20b0332"
                    ]
                },
                "nodeType": 1
            }
        },
        "gasFlame": [
            {
                "children": [
                    {
                        "children": [
                            {
                                "children": [],
                                "depth": 0,
                                "name": "Initial Gas",
                                "value": 23320
                            },
                            {
                                "children": [],
                                "depth": 0,
                                "name": "Executed Gas",
                                "value": 28364
                            }
                        ],
                        "depth": -1,
                        "name": "Actual Gas Used",
                        "value": 51684
                    },
                    {
                        "children": [],
                        "depth": -1,
                        "name": "Refunded Gas",
                        "value": 0
                    }
                ],
                "depth": -2,
                "name": "Total Gas",
                "value": 51684
            }
        ],
        "isConfirmed": true,
        "mainTrace": [
            {
                "children": [
                    {
                        "children": [
                            {
                                "children": [],
                                "depth": 1,
                                "id": 1,
                                "order": 1
                            }
                        ],
                        "depth": 0,
                        "id": 0,
                        "order": 0
                    }
                ],
                "depth": -1,
                "id": -1,
                "order": -1
            }
        ],
        "mainTraceNodeCount": 2,
        "parentIdMap": {
            "0": -1,
            "1": 0
        },
        "tidyTrace": [
            {
                "children": [
                    {
                        "children": [
                            {
                                "children": [],
                                "depth": 1,
                                "id": 1,
                                "order": 1
                            }
                        ],
                        "depth": 0,
                        "id": 0,
                        "order": 0
                    }
                ],
                "depth": -1,
                "id": -1,
                "order": -1
            }
        ],
        "tidyTraceNodeCount": 2
    },
    "state_change": {
        "stateChanges": [
            {
                "address": "0xce1d3da32e3a45d27dc841781f09e40c41cac677",
                "erc": "ERC-20",
                "slots": [
                    {
                        "current": "0x0000000000000000000000000000000000000000000dd1c3cb19f30aba380000",
                        "key": "0x4c1b6502b88793da7dc9bfa0cc31e18731b0e5efa9cdb42d82bd5b37b8cd3671",
                        "prev": "0x0000000000000000000000000000000000000000000de0d1f82e5efde57c0000"
                    },
                    {
                        "current": "0x000000000000000000000000000000000000000000000f0e2d146bf32b440000",
                        "key": "0xf27fcce32e72c13e52e1de4e8d9b883ff03981f446c74768b59897e9bbb5bef5",
                        "prev": "0x0000000000000000000000000000000000000000000000000000000000000000"
                    }
                ],
                "storageVariables": [
                    {
                        "name": "balances",
                        "type": "mapping(address => uint256)",
                        "value": {
                            "pairs": [
                                {
                                    "key": "0xc998b6d025967d0d4243ebe0cfc006c98c73fbef",
                                    "value": {
                                        "current": "16706622000000000000000000",
                                        "prev": "16777719000000000000000000",
                                        "typeTag": 1
                                    }
                                },
                                {
                                    "key": "0xd15f70c11155f1f140c3b92d707767b1c20b0332",
                                    "value": {
                                        "current": "71097000000000000000000",
                                        "prev": "0",
                                        "typeTag": 1
                                    }
                                }
                            ],
                            "typeTag": 4
                        }
                    }
                ]
            }
        ]
    }
}