{
    "balance_change": {
        "balanceChanges": [
            {
                "account": "0x10a0916ddb7356baf8a2552dbec660bf6de93769",
                "assets": [
                    {
                        "address": "0x74a499a6e541a9a69f7d9cbd8aefbb6218050aa5",
                        "amount": "266.05434097",
                        "iconUrl": "",
                        "isERC1155": false,
                        "isERC721": false,
                        "sign": false,
                        "value": ""
                    }
                ]
            },
            {
                "account": "0x80f64b865b8385ef4d0c4a94d662783401020339",
                "assets": [
                    {
                        "address": "0x74a499a6e541a9a69f7d9cbd8aefbb6218050aa5",
                        "amount": "266.05434097",
                        "iconUrl": "",
                        "isERC1155": false,
                        "isERC721": false,
                        "sign": true,
                        "value": ""
                    }
                ]
            }
        ]
    },
    "profile": {
        "basic_info": {
            "baseFee": "",
            "blockNumber": 8868582,
            "callData": "0xa9059cbb00000000000000000000000080f64b865b8385ef4d0c4a94d66278340102033900000000000000000000000000000000000000000000000e6c3ee57ef381a400",
            "debugEnable": true,
            "errorInfo": "",
            "eventCount": 1,
            "feeRecipient": "0x3e7420f95c4bff6d2d855656df1e8c53e1ea5216",
            "formatValue": "0",
            "gasLimit": 60000,
            "gasPrice": "15",
            "gasUsed": 38559,
            "intTxnCount": 0,
            "internalRevert": false,
            "internalRevertMessage": "",
            "isContractCreation": false,
            "isFlashloan": false,
            "maxFee": "",
            "nonce": 13561,
            "overwritedBlockNumber": -1,
            "priorityFee": "",
            "receiver": "0x74a499a6e541a9a69f7d9cbd8aefbb6218050aa5",
            "revertMessage": "",
            "sender": "0x10a0916ddb7356baf8a2552dbec660bf6de93769",
            "simulationEnable": true,
            "sourceTxnHash": "0x718627eb27bfe85f50018bd91423772336e101dac7ee00135974656744c05729",
            "status": true,
            "timestamp": "2019-11-04T01:34:38Z",
            "transactionFee": "0.000578385",
            "txnHash": "0x718627eb27bfe85f50018bd91423772336e101dac7ee00135974656744c05729",
            "txnIndex": 26,
            "type": 0,
            "value": "0"
        },
        "fund_flow": [
            {
                "amount": "266.05434097",
                "from": "0x10a0916ddb7356baf8a2552dbec660bf6de93769",
                "id": 1,
                "isERC1155": false,
                "isERC721": false,
                "isReverted": false,
                "order": 1,
                "to": "0x80f64b865b8385ef4d0c4a94d662783401020339",
                "token": "0x74a499a6e541a9a69f7d9cbd8aefbb6218050aa5"
            }
        ],
        "token_infos": [
            {
                "address": "0xc02aaa39b223fe8d0a0e5c4f27ead9083c756cc2",
                "decimals": 18
            },
            {
                "address": "0xeeeeeeeeeeeeeeeeeeeeeeeeeeeeeeeeeeeeeeee",
                "decimals": 18
            },
            {
                "address": "0x74a499a6e541a9a69f7d9cbd8aefbb6218050aa5",
                "decimals": 18
            }
        ]
    },
    "address_label": {
        "labels": [
            {
                "address": "0x74a499a6e541a9a69f7d9cbd8aefbb6218050aa5",
                "label": "VERSUSPK"
            },
            {
                "address": "0x0000000000000000000000000000000000000001",
                "label": "Precompiled"
            },
            {
                "address": "0x0000000000000000000000000000000000000002",
                "label": "Precompiled"
            },
            {
                "address": "0x0000000000000000000000000000000000000003",
                "label": "Precompiled"
            },
            {
                "address": "0x0000000000000000000000000000000000000004",
                "label": "Precompiled"
            },
            {
                "address": "0xeeeeeeeeeeeeeeeeeeeeeeeeeeeeeeeeeeeeeeee",
                "label": "Ether"
            }
        ]
    },
    "trace": {
        "accountLabels": null,
        "dataMap": {
            "-1": {
                "invocation": {
                    "address": "0x10a0916ddb7356baf8a2552dbec660bf6de93769",
                    "callData": "",
                    "decodedMethod": null,
                    "errorInfo": "",
                    "fromAddress": "",
                    "gasUsed": 0,
                    "id": -1,
                    "methodDecoded": false,
                    "operation": "",
                    "output": "",
                    "revert": false,
                    "revertMessage": "",
                    "selector": "",
                    "status": false,
                    "value": ""
                },
                "nodeType": 0
            },
            "0": {
                "invocation": {
                    "address": "0x74a499a6e541a9a69f7d9cbd8aefbb6218050aa5",
                    "callData": "0x00000000000000000000000080f64b865b8385ef4d0c4a94d66278340102033900000000000000000000000000000000000000000000000e6c3ee57ef381a400",
                    "decodedMethod": {
                        "callParams": [
                            {
                                "name": "_to",
                                "type": "address",
                                "value": "0x80f64b865b8385ef4d0c4a94d662783401020339"
                            },
                            {
                                "decimalAvailable": true,
                                "name": "_value",
                                "type": "uint256",
                                "value": "266,054,340,970,000,000,000"
                            }
                        ],
                        "constructorArguments": "",
                        "name": "transfer",
                        "returnParams": [
                            {
                                "name": "success",
                                "type": "bool",
                                "value": true
                            }
                        ],
                        "signature": "transfer(address,uint256)"
                    },
                    "errorInfo": "",
                    "fromAddress": "0x10a0916ddb7356baf8a2552dbec660bf6de93769",
                    "gasUsed": 38559,
                    "id": 0,
                    "methodDecoded": true,
                    "operation": "CALL",
                    "output": "0x0000000000000000000000000000000000000000000000000000000000000001",
                    "revert": false,
                    "revertMessage": "",
                    "selector": "0xa9059cbb",
                    "status": true,
                    "value": "0"
                },
                "nodeType": 0
            },
            "1": {
                "event": {
                    "contract": "0x74a499a6e541a9a69f7d9cbd8aefbb6218050aa5",
                    "decodedLog": {
                        "name": "Transfer",
                        "params": [
                            {
                                "name": "from",
                                "type": "address",
                                "value": "0x10a0916ddb7356baf8a2552dbec660bf6de93769"
                            },
                            {
                                "name": "to",
                                "type": "address",
                                "value": "0x80f64b865b8385ef4d0c4a94d662783401020339"
                            },
                            {
                                "decimalAvailable": true,
                                "name": "value",
                                "type": "uint256",
                                "value": "266,054,340,970,000,000,000"
                            }
                        ],
                        "signature": "Transfer(address,address,uint256)"
                    },
                    "id": 1,
                    "logData": "0x00000000000000000000000000000000000000000000000e6c3ee57ef381a400",
                    "logDecoded": true,
                    "operation": "EVENT",
                    "revert": false,
                    "status": true,
                    "topics": [
                        "0xddf252ad1be2c89b69c2b068fc378daa952ba7f163c4a11628f55a4df523b3ef",
                        "0x00000000000000000000000010a0916ddb7356baf8a2552dbec660bf6de93769",
                        "0x00000000000000000000000080f64b865b8385ef4d0c4a94d662783401020339"
                    ]
                },
                "nodeType": 1
            }
        },
        "gasFlame": [
            {
                "children": [
                    {
                        "children": [
                            {
                                "children": [],
                                "depth": 0,
                                "name": "Initial Gas",
                                "value": 23320
                            },
                            {
                                "children": [],
                                "depth": 0,
                                "name": "Executed Gas",
                                "value": 15239
                            }
                        ],
                        "depth": -1,
                        "name": "Actual Gas Used",
                        "value": 38559
                    },
                    {
                        "children": [],
                        "depth": -1,
                        "name": "Refunded Gas",
                        "value": 0
                    }
                ],
                "depth": -2,
                "name": "Total Gas",
                "value": 38559
            }
        ],
        "isConfirmed": true,
        "mainTrace": [
            {
                "children": [
                    {
                        "children": [
                            {
                                "children": [],
                                "depth": 1,
                                "id": 1,
                                "order": 1
                            }
                        ],
                        "depth": 0,
                        "id": 0,
                        "order": 0
                    }
                ],
                "depth": -1,
                "id": -1,
                "order": -1
            }
        ],
        "mainTraceNodeCount": 2,
        "parentIdMap": {
            "0": -1,
            "1": 0
        },
        "tidyTrace": [
            {
                "children": [
                    {
                        "children": [
                            {
                                "children": [],
                                "depth": 1,
                                "id": 1,
                                "order": 1
                            }
                        ],
                        "depth": 0,
                        "id": 0,
                        "order": 0
                    }
                ],
                "depth": -1,
                "id": -1,
                "order": -1
            }
        ],
        "tidyTraceNodeCount": 2
    },
    "state_change": {
        "stateChanges": [
            {
                "address": "0x74a499a6e541a9a69f7d9cbd8aefbb6218050aa5",
                "erc": "ERC-20",
                "slots": [
                    {
                        "current": "0x0000000000000000000000000000000000000000000006989d90d87526ed3000",
                        "key": "0xd3b7e01a69466212959a045ad9fabdc993bcea06883d3e0ff2b323c1da9661eb",
                        "prev": "0x00000000000000000000000000000000000000000000068a3151f2f6336b8c00"
                    },
                    {
                        "current": "0x00000000000000000000000000000000000000000041eaf10b781535da490400",
                        "key": "0x1c44f6b5f824a947bb05c2d3148f014255db9a1b3049f6beba139ca196e63c4c",
                        "prev": "0x00000000000000000000000000000000000000000041eaff77b6fab4cdcaa800"
                    }
                ],
                "storageVariables": [
                    {
                        "name": "balanceOf",
                        "type": "mapping(address => uint256)",
                        "value": {
                            "pairs": [
                                {
                                    "key": "0x10a0916ddb7356baf8a2552dbec660bf6de93769",
                                    "value": {
                                        "current": "79689658523698010000000000",
                                        "prev": "79689924578038980000000000",
                                        "typeTag": 1
                                    }
                                },
                                {
                                    "key": "0x80f64b865b8385ef4d0c4a94d662783401020339",
                                    "value": {
                                        "current": "31149457809080000000000",
                                        "prev": "30883403468110000000000",
                                        "typeTag": 1
                                    }
                                }
                            ],
                            "typeTag": 4
                        }
                    }
                ]
            }
        ]
    }
}