{
    "balance_change": {
        "balanceChanges": []
    },
    "profile": {
        "basic_info": {
            "baseFee": "",
            "blockNumber": 12767995,
            "callData": "0x095ea7b300000000000000000000000057136542bdc53aaf53bf519a6d28a6c8f7ceeb1c00000000000000000000000000000000000000000000006c6c7102eb98cc6d40",
            "debugEnable": true,
            "errorInfo": "",
            "eventCount": 1,
            "feeRecipient": "0xea674fdde714fd979de3edf0f56aa9716b898ec8",
            "formatValue": "0",
            "gasLimit": 69445,
            "gasPrice": "12",
            "gasUsed": 46297,
            "intTxnCount": 0,
            "internalRevert": false,
            "internalRevertMessage": "",
            "isContractCreation": false,
            "isFlashloan": false,
            "maxFee": "",
            "nonce": 52,
            "overwritedBlockNumber": -1,
            "priorityFee": "",
            "receiver": "0xe1fc4455f62a6e89476f1072530c20cf1a0622da",
            "revertMessage": "",
            "sender": "0x8b2237eeaf999887d870b7e9eaecddaf6a8e6056",
            "simulationEnable": true,
            "sourceTxnHash": "0x71763b10c3f985082838a81170c245f0515857027e79acbea42492be0341ff3b",
            "status": true,
            "timestamp": "2021-07-05T14:23:57Z",
            "transactionFee": "0.000555564",
            "txnHash": "0x71763b10c3f985082838a81170c245f0515857027e79acbea42492be0341ff3b",
            "txnIndex": 116,
            "type": 0,
            "value": "0"
        },
        "fund_flow": [],
        "token_infos": [
            {
                "address": "0xc02aaa39b223fe8d0a0e5c4f27ead9083c756cc2",
                "decimals": 18
            },
            {
                "address": "0xeeeeeeeeeeeeeeeeeeeeeeeeeeeeeeeeeeeeeeee",
                "decimals": 18
            }
        ]
    },
    "address_label": {
        "labels": [
            {
                "address": "0x0000000000000000000000000000000000000003",
                "label": "Precompiled"
            },
            {
                "address": "0x0000000000000000000000000000000000000004",
                "label": "Precompiled"
            },
            {
                "address": "0xeeeeeeeeeeeeeeeeeeeeeeeeeeeeeeeeeeeeeeee",
                "label": "Ether"
            },
            {
                "address": "0xe1fc4455f62a6e89476f1072530c20cf1a0622da",
                "label": "Phuture Finance: PHTR Token"
            },
            {
                "address": "0x0000000000000000000000000000000000000001",
                "label": "Precompiled"
            },
            {
                "address": "0x0000000000000000000000000000000000000002",
                "label": "Precompiled"
            }
        ]
    },
    "trace": {
        "accountLabels": null,
        "dataMap": {
            "-1": {
                "invocation": {
                    "address": "0x8b2237eeaf999887d870b7e9eaecddaf6a8e6056",
                    "callData": "",
                    "decodedMethod": null,
                    "errorInfo": "",
                    "fromAddress": "",
                    "gasUsed": 0,
                    "id": -1,
                    "methodDecoded": false,
                    "operation": "",
                    "output": "",
                    "revert": false,
                    "revertMessage": "",
                    "selector": "",
                    "status": false,
                    "value": ""
                },
                "nodeType": 0
            },
            "0": {
                "invocation": {
                    "address": "0xe1fc4455f62a6e89476f1072530c20cf1a0622da",
                    "callData": "0x00000000000000000000000057136542bdc53aaf53bf519a6d28a6c8f7ceeb1c00000000000000000000000000000000000000000000006c6c7102eb98cc6d40",
                    "decodedMethod": {
                        "callParams": [
                            {
                                "name": "spender",
                                "type": "address",
                                "value": "0x57136542bdc53aaf53bf519a6d28a6c8f7ceeb1c"
                            },
                            {
                                "decimalAvailable": true,
                                "name": "amount",
                                "type": "uint256",
                                "value": "2,000,062,390,000,000,200,000"
                            }
                        ],
                        "constructorArguments": "",
                        "name": "approve",
                        "returnParams": [
                            {
                                "name": "",
                                "type": "bool",
                                "value": true
                            }
                        ],
                        "signature": "approve(address,uint256)"
                    },
                    "errorInfo": "",
                    "fromAddress": "0x8b2237eeaf999887d870b7e9eaecddaf6a8e6056",
                    "gasUsed": 46297,
                    "id": 0,
                    "methodDecoded": true,
                    "operation": "CALL",
                    "output": "0x0000000000000000000000000000000000000000000000000000000000000001",
                    "revert": false,
                    "revertMessage": "",
                    "selector": "0x095ea7b3",
                    "status": true,
                    "value": "0"
                },
                "nodeType": 0
            },
            "1": {
                "event": {
                    "contract": "0xe1fc4455f62a6e89476f1072530c20cf1a0622da",
                    "decodedLog": {
                        "name": "Approval",
                        "params": [
                            {
                                "name": "owner",
                                "type": "address",
                                "value": "0x8b2237eeaf999887d870b7e9eaecddaf6a8e6056"
                            },
                            {
                                "name": "spender",
                                "type": "address",
                                "value": "0x57136542bdc53aaf53bf519a6d28a6c8f7ceeb1c"
                            },
                            {
                                "decimalAvailable": true,
                                "name": "value",
                                "type": "uint256",
                                "value": "2,000,062,390,000,000,200,000"
                            }
                        ],
                        "signature": "Approval(address,address,uint256)"
                    },
                    "id": 1,
                    "logData": "0x00000000000000000000000000000000000000000000006c6c7102eb98cc6d40",
                    "logDecoded": true,
                    "operation": "EVENT",
                    "revert": false,
                    "status": true,
                    "topics": [
                        "0x8c5be1e5ebec7d5bd14f71427d1e84f3dd0314c0f7b2291e5b200ac8c7c3b925",
                        "0x0000000000000000000000008b2237eeaf999887d870b7e9eaecddaf6a8e6056",
                        "0x00000000000000000000000057136542bdc53aaf53bf519a6d28a6c8f7ceeb1c"
                    ]
                },
                "nodeType": 1
            }
        },
        "gasFlame": [
            {
                "children": [
                    {
                        "children": [
                            {
                                "children": [],
                                "depth": 0,
                                "name": "Initial Gas",
                                "value": 21668
                            },
                            {
                                "children": [],
                                "depth": 0,
                                "name": "Executed Gas",
                                "value": 24629
                            }
                        ],
                        "depth": -1,
                        "name": "Actual Gas Used",
                        "value": 46297
                    },
                    {
                        "children": [],
                        "depth": -1,
                        "name": "Refunded Gas",
                        "value": 0
                    }
                ],
                "depth": -2,
                "name": "Total Gas",
                "value": 46297
            }
        ],
        "isConfirmed": true,
        "mainTrace": [
            {
                "children": [
                    {
                        "children": [
                            {
                                "children": [],
                                "depth": 1,
                                "id": 1,
                                "order": 1
                            }
                        ],
                        "depth": 0,
                        "id": 0,
                        "order": 0
                    }
                ],
                "depth": -1,
                "id": -1,
                "order": -1
            }
        ],
        "mainTraceNodeCount": 2,
        "parentIdMap": {
            "0": -1,
            "1": 0
        },
        "tidyTrace": [
            {
                "children": [
                    {
                        "children": [
                            {
                                "children": [],
                                "depth": 1,
                                "id": 1,
                                "order": 1
                            }
                        ],
                        "depth": 0,
                        "id": 0,
                        "order": 0
                    }
                ],
                "depth": -1,
                "id": -1,
                "order": -1
            }
        ],
        "tidyTraceNodeCount": 2
    },
    "state_change": {
        "stateChanges": [
            {
                "address": "0xe1fc4455f62a6e89476f1072530c20cf1a0622da",
                "erc": "ERC-20",
                "slots": [
                    {
                        "current": "0x00000000000000000000000000000000000000000000006c6c7102eb98cc6d40",
                        "key": "0xaba5328f38064e8a772d1c71f61c8bd5c8f469b4a0253107db449e1977112c3e",
                        "prev": "0x0000000000000000000000000000000000000000000000000000000000000000"
                    }
                ],
                "storageVariables": [
                    {
                        "name": "_allowances",
                        "type": "mapping(address => mapping(address => uint256))",
                        "value": {
                            "pairs": [
                                {
                                    "key": "0x8b2237eeaf999887d870b7e9eaecddaf6a8e6056",
                                    "value": {
                                        "pairs": [
                                            {
                                                "key": "0x57136542bdc53aaf53bf519a6d28a6c8f7ceeb1c",
                                                "value": {
                                                    "current": "2000062390000000200000",
                                                    "prev": "0",
                                                    "typeTag": 1
                                                }
                                            }
                                        ],
                                        "typeTag": 4
                                    }
                                }
                            ],
                            "typeTag": 4
                        }
                    }
                ]
            }
        ]
    }
}