{
    "balance_change": {
        "balanceChanges": [
            {
                "account": "0x925ea5af075bde17811e4bcdc198dc5d3675e466",
                "assets": [
                    {
                        "address": "0x4672bad527107471cb5067a887f4656d585a8a31",
                        "amount": "1,500",
                        "iconUrl": "",
                        "isERC1155": false,
                        "isERC721": false,
                        "sign": false,
                        "value": ""
                    }
                ]
            },
            {
                "account": "0x32f6979310983c8b06ab2d7d295a7e2c5331450e",
                "assets": [
                    {
                        "address": "0x4672bad527107471cb5067a887f4656d585a8a31",
                        "amount": "1,500",
                        "iconUrl": "",
                        "isERC1155": false,
                        "isERC721": false,
                        "sign": true,
                        "value": ""
                    }
                ]
            }
        ]
    },
    "profile": {
        "basic_info": {
            "baseFee": "",
            "blockNumber": 5281934,
            "callData": "0xa9059cbb00000000000000000000000032f6979310983c8b06ab2d7d295a7e2c5331450e00000000000000000000000000000000000000000000005150ae84a8cdf00000",
            "debugEnable": true,
            "errorInfo": "",
            "eventCount": 1,
            "feeRecipient": "0x52bc44d5378309ee2abf1539bf71de1b7d7be3b5",
            "formatValue": "0",
            "gasLimit": 36721,
            "gasPrice": "4",
            "gasUsed": 36721,
            "intTxnCount": 0,
            "internalRevert": false,
            "internalRevertMessage": "",
            "isContractCreation": false,
            "isFlashloan": false,
            "maxFee": "",
            "nonce": 43663,
            "overwritedBlockNumber": -1,
            "priorityFee": "",
            "receiver": "0x4672bad527107471cb5067a887f4656d585a8a31",
            "revertMessage": "",
            "sender": "0x925ea5af075bde17811e4bcdc198dc5d3675e466",
            "simulationEnable": true,
            "sourceTxnHash": "0x71a69f5a7a66b4b1156d4710c9ebcdc897d4796f1da52f629d7c18ba9d30ae36",
            "status": true,
            "timestamp": "2018-03-19T07:07:52Z",
            "transactionFee": "0.000146884",
            "txnHash": "0x71a69f5a7a66b4b1156d4710c9ebcdc897d4796f1da52f629d7c18ba9d30ae36",
            "txnIndex": 129,
            "type": 0,
            "value": "0"
        },
        "fund_flow": [
            {
                "amount": "1,500",
                "from": "0x925ea5af075bde17811e4bcdc198dc5d3675e466",
                "id": 1,
                "isERC1155": false,
                "isERC721": false,
                "isReverted": false,
                "order": 1,
                "to": "0x32f6979310983c8b06ab2d7d295a7e2c5331450e",
                "token": "0x4672bad527107471cb5067a887f4656d585a8a31"
            }
        ],
        "token_infos": [
            {
                "address": "0xeeeeeeeeeeeeeeeeeeeeeeeeeeeeeeeeeeeeeeee",
                "decimals": 18
            },
            {
                "address": "0x4672bad527107471cb5067a887f4656d585a8a31",
                "decimals": 18
            },
            {
                "address": "0xc02aaa39b223fe8d0a0e5c4f27ead9083c756cc2",
                "decimals": 18
            }
        ]
    },
    "address_label": {
        "labels": [
            {
                "address": "0x0000000000000000000000000000000000000001",
                "label": "Precompiled"
            },
            {
                "address": "0x0000000000000000000000000000000000000002",
                "label": "Precompiled"
            },
            {
                "address": "0x0000000000000000000000000000000000000003",
                "label": "Precompiled"
            },
            {
                "address": "0x0000000000000000000000000000000000000004",
                "label": "Precompiled"
            },
            {
                "address": "0xeeeeeeeeeeeeeeeeeeeeeeeeeeeeeeeeeeeeeeee",
                "label": "Ether"
            },
            {
                "address": "0x4672bad527107471cb5067a887f4656d585a8a31",
                "label": "Dropil (DROP)"
            }
        ]
    },
    "trace": {
        "accountLabels": null,
        "dataMap": {
            "-1": {
                "invocation": {
                    "address": "0x925ea5af075bde17811e4bcdc198dc5d3675e466",
                    "callData": "",
                    "decodedMethod": null,
                    "errorInfo": "",
                    "fromAddress": "",
                    "gasUsed": 0,
                    "id": -1,
                    "methodDecoded": false,
                    "operation": "",
                    "output": "",
                    "revert": false,
                    "revertMessage": "",
                    "selector": "",
                    "status": false,
                    "value": ""
                },
                "nodeType": 0
            },
            "0": {
                "invocation": {
                    "address": "0x4672bad527107471cb5067a887f4656d585a8a31",
                    "callData": "0x00000000000000000000000032f6979310983c8b06ab2d7d295a7e2c5331450e00000000000000000000000000000000000000000000005150ae84a8cdf00000",
                    "decodedMethod": {
                        "callParams": [
                            {
                                "name": "to",
                                "type": "address",
                                "value": "0x32f6979310983c8b06ab2d7d295a7e2c5331450e"
                            },
                            {
                                "decimalAvailable": true,
                                "name": "tokens",
                                "type": "uint256",
                                "value": "1,500,000,000,000,000,000,000"
                            }
                        ],
                        "constructorArguments": "",
                        "name": "transfer",
                        "returnParams": [
                            {
                                "name": "success",
                                "type": "bool",
                                "value": true
                            }
                        ],
                        "signature": "transfer(address,uint256)"
                    },
                    "errorInfo": "",
                    "fromAddress": "0x925ea5af075bde17811e4bcdc198dc5d3675e466",
                    "gasUsed": 36721,
                    "id": 0,
                    "methodDecoded": true,
                    "operation": "CALL",
                    "output": "0x0000000000000000000000000000000000000000000000000000000000000001",
                    "revert": false,
                    "revertMessage": "",
                    "selector": "0xa9059cbb",
                    "status": true,
                    "value": "0"
                },
                "nodeType": 0
            },
            "1": {
                "event": {
                    "contract": "0x4672bad527107471cb5067a887f4656d585a8a31",
                    "decodedLog": {
                        "name": "Transfer",
                        "params": [
                            {
                                "name": "from",
                                "type": "address",
                                "value": "0x925ea5af075bde17811e4bcdc198dc5d3675e466"
                            },
                            {
                                "name": "to",
                                "type": "address",
                                "value": "0x32f6979310983c8b06ab2d7d295a7e2c5331450e"
                            },
                            {
                                "decimalAvailable": true,
                                "name": "tokens",
                                "type": "uint256",
                                "value": "1,500,000,000,000,000,000,000"
                            }
                        ],
                        "signature": "Transfer(address,address,uint256)"
                    },
                    "id": 1,
                    "logData": "0x00000000000000000000000000000000000000000000005150ae84a8cdf00000",
                    "logDecoded": true,
                    "operation": "EVENT",
                    "revert": false,
                    "status": true,
                    "topics": [
                        "0xddf252ad1be2c89b69c2b068fc378daa952ba7f163c4a11628f55a4df523b3ef",
                        "0x000000000000000000000000925ea5af075bde17811e4bcdc198dc5d3675e466",
                        "0x00000000000000000000000032f6979310983c8b06ab2d7d295a7e2c5331450e"
                    ]
                },
                "nodeType": 1
            }
        },
        "gasFlame": [
            {
                "children": [
                    {
                        "children": [
                            {
                                "children": [],
                                "depth": 0,
                                "name": "Initial Gas",
                                "value": 23256
                            },
                            {
                                "children": [],
                                "depth": 0,
                                "name": "Executed Gas",
                                "value": 13465
                            }
                        ],
                        "depth": -1,
                        "name": "Actual Gas Used",
                        "value": 36721
                    },
                    {
                        "children": [],
                        "depth": -1,
                        "name": "Refunded Gas",
                        "value": 0
                    }
                ],
                "depth": -2,
                "name": "Total Gas",
                "value": 36721
            }
        ],
        "isConfirmed": true,
        "mainTrace": [
            {
                "children": [
                    {
                        "children": [
                            {
                                "children": [],
                                "depth": 1,
                                "id": 1,
                                "order": 1
                            }
                        ],
                        "depth": 0,
                        "id": 0,
                        "order": 0
                    }
                ],
                "depth": -1,
                "id": -1,
                "order": -1
            }
        ],
        "mainTraceNodeCount": 2,
        "parentIdMap": {
            "0": -1,
            "1": 0
        },
        "tidyTrace": [
            {
                "children": [
                    {
                        "children": [
                            {
                                "children": [],
                                "depth": 1,
                                "id": 1,
                                "order": 1
                            }
                        ],
                        "depth": 0,
                        "id": 0,
                        "order": 0
                    }
                ],
                "depth": -1,
                "id": -1,
                "order": -1
            }
        ],
        "tidyTraceNodeCount": 2
    },
    "state_change": {
        "stateChanges": [
            {
                "address": "0x4672bad527107471cb5067a887f4656d585a8a31",
                "erc": "ERC-20",
                "slots": [
                    {
                        "current": "0x000000000000000000000000000000000000000000000b6f588aa7bcf5c00000",
                        "key": "0x9cdf1c30ee366bebc1be59e6cf01d9571f759afbc87e581a59bd94ce1c00b5c9",
                        "prev": "0x000000000000000000000000000000000000000000000b1e07dc231427d00000"
                    },
                    {
                        "current": "0x000000000000000000000000000000000000000026d8092169084081899a2a00",
                        "key": "0x21761dd2378177dfe63291454369ce1c3b8b2b5d2f81ddfb1d9be453a5328228",
                        "prev": "0x000000000000000000000000000000000000000026d80972b9b6c52a578a2a00"
                    }
                ],
                "storageVariables": [
                    {
                        "name": "balances",
                        "type": "mapping(address => uint256)",
                        "value": {
                            "pairs": [
                                {
                                    "key": "0x32f6979310983c8b06ab2d7d295a7e2c5331450e",
                                    "value": {
                                        "current": "54000000000000000000000",
                                        "prev": "52500000000000000000000",
                                        "typeTag": 1
                                    }
                                },
                                {
                                    "key": "0x925ea5af075bde17811e4bcdc198dc5d3675e466",
                                    "value": {
                                        "current": "12021601467857142871400000000",
                                        "prev": "12021602967857142871400000000",
                                        "typeTag": 1
                                    }
                                }
                            ],
                            "typeTag": 4
                        }
                    }
                ]
            }
        ]
    }
}