{
    "balance_change": {
        "balanceChanges": [
            {
                "account": "0x6a9fd3fbce86d1ba217288c1c9303649091b7729",
                "assets": [
                    {
                        "address": "0xeeeeeeeeeeeeeeeeeeeeeeeeeeeeeeeeeeeeeeee",
                        "amount": "0.319321255510936068",
                        "iconUrl": "https://assets.blocksec.com/image/1663669189317-3.png",
                        "isERC1155": false,
                        "isERC721": false,
                        "sign": false,
                        "value": "120.6970481"
                    },
                    {
                        "address": "0x20945ca1df56d237fd40036d47e866c7dccd2114",
                        "amount": "300",
                        "iconUrl": "",
                        "isERC1155": false,
                        "isERC721": false,
                        "sign": true,
                        "value": "42.49510589"
                    }
                ]
            },
            {
                "account": "0x8a649274e4d777ffc6851f13d23a86bbfa2f2fbf",
                "assets": [
                    {
                        "address": "0xc02aaa39b223fe8d0a0e5c4f27ead9083c756cc2",
                        "amount": "0.319321255510936068",
                        "iconUrl": "https://assets.blocksec.com/icon/f1cb2d02c471d545bbc7722daf3277fd852d98e63d118771af7047bd8256c516.png",
                        "isERC1155": false,
                        "isERC721": false,
                        "sign": true,
                        "value": "120.6970481"
                    },
                    {
                        "address": "0xa0b86991c6218b36c1d19d4a2e9eb0ce3606eb48",
                        "amount": "119.659641",
                        "iconUrl": "https://assets.blocksec.com/icon/0347a86cc07dbd03fdc5db01a4e5ac7e1217f90e0b6e4bb0f75cbcca09160989.png",
                        "isERC1155": false,
                        "isERC721": false,
                        "sign": false,
                        "value": ""
                    }
                ]
            },
            {
                "account": "0x9403d141047422fbf43724fcb985b1e96196c84f",
                "assets": [
                    {
                        "address": "0xa0b86991c6218b36c1d19d4a2e9eb0ce3606eb48",
                        "amount": "119.659641",
                        "iconUrl": "https://assets.blocksec.com/icon/0347a86cc07dbd03fdc5db01a4e5ac7e1217f90e0b6e4bb0f75cbcca09160989.png",
                        "isERC1155": false,
                        "isERC721": false,
                        "sign": true,
                        "value": ""
                    },
                    {
                        "address": "0x20945ca1df56d237fd40036d47e866c7dccd2114",
                        "amount": "300",
                        "iconUrl": "",
                        "isERC1155": false,
                        "isERC721": false,
                        "sign": false,
                        "value": "42.49510589"
                    }
                ]
            },
            {
                "account": "0xc02aaa39b223fe8d0a0e5c4f27ead9083c756cc2",
                "assets": [
                    {
                        "address": "0xeeeeeeeeeeeeeeeeeeeeeeeeeeeeeeeeeeeeeeee",
                        "amount": "0.319321255510936068",
                        "iconUrl": "https://assets.blocksec.com/image/1663669189317-3.png",
                        "isERC1155": false,
                        "isERC721": false,
                        "sign": true,
                        "value": "120.6970481"
                    },
                    {
                        "address": "0xc02aaa39b223fe8d0a0e5c4f27ead9083c756cc2",
                        "amount": "0.319321255510936068",
                        "iconUrl": "https://assets.blocksec.com/icon/f1cb2d02c471d545bbc7722daf3277fd852d98e63d118771af7047bd8256c516.png",
                        "isERC1155": false,
                        "isERC721": false,
                        "sign": false,
                        "value": "120.6970481"
                    }
                ]
            }
        ]
    },
    "profile": {
        "basic_info": {
            "baseFee": "",
            "blockNumber": 11157585,
            "callData": "0x86b2ecc40000000000000000000000000000000000000000000000000000000000000080000000000000000000000000eeeeeeeeeeeeeeeeeeeeeeeeeeeeeeeeeeeeeeee00000000000000000000000020945ca1df56d237fd40036d47e866c7dccd21140000000000000000000000000000000000000000000000000479ccd7c07498440000000000000000000000000000000000000000000000000000000000000001000000000000000000000000000000000000000000000000000000000000002000000000000000000000000000000000000000000000000000000000000000020000000000000000000000008a649274e4d777ffc6851f13d23a86bbfa2f2fbf000000000000000000000000c02aaa39b223fe8d0a0e5c4f27ead9083c756cc2000000000000000000000000a0b86991c6218b36c1d19d4a2e9eb0ce3606eb48000000000000000000000000000000000000000000000000000000000721dc79ffffffffffffffffffffffffffffffffffffffffffffffffffffffffffffffffffffffffffffffffffffffffffffffffffffffffffffffffffffffffffffffff0000000000000000000000009403d141047422fbf43724fcb985b1e96196c84f000000000000000000000000a0b86991c6218b36c1d19d4a2e9eb0ce3606eb4800000000000000000000000020945ca1df56d237fd40036d47e866c7dccd211400000000000000000000000000000000000000000000001043561a8829300000ffffffffffffffffffffffffffffffffffffffffffffffffffffffffffffffffffffffffffffffffffffffffffffffffffffffffffffffffffffffffffffffff",
            "debugEnable": true,
            "errorInfo": "",
            "eventCount": 13,
            "feeRecipient": "0x4c549990a7ef3fea8784406c1eecc98bf4211fa5",
            "formatValue": "0.322514075352602692",
            "gasLimit": 432897,
            "gasPrice": "73",
            "gasUsed": 364870,
            "intTxnCount": 27,
            "internalRevert": false,
            "internalRevertMessage": "",
            "isContractCreation": false,
            "isFlashloan": false,
            "maxFee": "",
            "nonce": 5,
            "overwritedBlockNumber": -1,
            "priorityFee": "",
            "receiver": "0x3e66b66fd1d0b02fda6c811da9e0547970db2f21",
            "revertMessage": "",
            "sender": "0x6a9fd3fbce86d1ba217288c1c9303649091b7729",
            "simulationEnable": true,
            "sourceTxnHash": "0x7112317ebef08094712b3ad970d5514cadace8564eec20d0f1e95798993c650b",
            "status": true,
            "timestamp": "2020-10-30T10:20:15Z",
            "transactionFee": "0.02663551",
            "txnHash": "0x7112317ebef08094712b3ad970d5514cadace8564eec20d0f1e95798993c650b",
            "txnIndex": 32,
            "type": 0,
            "value": "322514075352602692"
        },
        "fund_flow": [
            {
                "amount": "0.322514075352602692",
                "from": "0x6a9fd3fbce86d1ba217288c1c9303649091b7729",
                "id": 1,
                "isERC1155": false,
                "isERC721": false,
                "isReverted": false,
                "order": 1,
                "to": "0x3e66b66fd1d0b02fda6c811da9e0547970db2f21",
                "token": "0xeeeeeeeeeeeeeeeeeeeeeeeeeeeeeeeeeeeeeeee"
            },
            {
                "amount": "0.322514075352602692",
                "from": "0x3e66b66fd1d0b02fda6c811da9e0547970db2f21",
                "id": 2,
                "isERC1155": false,
                "isERC721": false,
                "isReverted": false,
                "order": 2,
                "to": "0xc02aaa39b223fe8d0a0e5c4f27ead9083c756cc2",
                "token": "0xeeeeeeeeeeeeeeeeeeeeeeeeeeeeeeeeeeeeeeee"
            },
            {
                "amount": "0.322514075352602692",
                "from": "0xc02aaa39b223fe8d0a0e5c4f27ead9083c756cc2",
                "id": 3,
                "isERC1155": false,
                "isERC721": false,
                "isReverted": false,
                "order": 3,
                "to": "0x3e66b66fd1d0b02fda6c811da9e0547970db2f21",
                "token": "0xc02aaa39b223fe8d0a0e5c4f27ead9083c756cc2"
            },
            {
                "amount": "0.319321255510936068",
                "from": "0x3e66b66fd1d0b02fda6c811da9e0547970db2f21",
                "id": 4,
                "isERC1155": false,
                "isERC721": false,
                "isReverted": false,
                "order": 4,
                "to": "0x8a649274e4d777ffc6851f13d23a86bbfa2f2fbf",
                "token": "0xc02aaa39b223fe8d0a0e5c4f27ead9083c756cc2"
            },
            {
                "amount": "119.659641",
                "from": "0x8a649274e4d777ffc6851f13d23a86bbfa2f2fbf",
                "id": 5,
                "isERC1155": false,
                "isERC721": false,
                "isReverted": false,
                "order": 5,
                "to": "0x3e66b66fd1d0b02fda6c811da9e0547970db2f21",
                "token": "0xa0b86991c6218b36c1d19d4a2e9eb0ce3606eb48"
            },
            {
                "amount": "119.659641",
                "from": "0x3e66b66fd1d0b02fda6c811da9e0547970db2f21",
                "id": 6,
                "isERC1155": false,
                "isERC721": false,
                "isReverted": false,
                "order": 6,
                "to": "0x9403d141047422fbf43724fcb985b1e96196c84f",
                "token": "0xa0b86991c6218b36c1d19d4a2e9eb0ce3606eb48"
            },
            {
                "amount": "300",
                "from": "0x9403d141047422fbf43724fcb985b1e96196c84f",
                "id": 7,
                "isERC1155": false,
                "isERC721": false,
                "isReverted": false,
                "order": 7,
                "to": "0x3e66b66fd1d0b02fda6c811da9e0547970db2f21",
                "token": "0x20945ca1df56d237fd40036d47e866c7dccd2114"
            },
            {
                "amount": "300",
                "from": "0x3e66b66fd1d0b02fda6c811da9e0547970db2f21",
                "id": 8,
                "isERC1155": false,
                "isERC721": false,
                "isReverted": false,
                "order": 8,
                "to": "0x6a9fd3fbce86d1ba217288c1c9303649091b7729",
                "token": "0x20945ca1df56d237fd40036d47e866c7dccd2114"
            },
            {
                "amount": "0.003192819841666624",
                "from": "0xc02aaa39b223fe8d0a0e5c4f27ead9083c756cc2",
                "id": 9,
                "isERC1155": false,
                "isERC721": false,
                "isReverted": false,
                "order": 9,
                "to": "0x3e66b66fd1d0b02fda6c811da9e0547970db2f21",
                "token": "0xeeeeeeeeeeeeeeeeeeeeeeeeeeeeeeeeeeeeeeee"
            },
            {
                "amount": "0.003192819841666624",
                "from": "0x3e66b66fd1d0b02fda6c811da9e0547970db2f21",
                "id": 10,
                "isERC1155": false,
                "isERC721": false,
                "isReverted": false,
                "order": 10,
                "to": "0xc02aaa39b223fe8d0a0e5c4f27ead9083c756cc2",
                "token": "0xc02aaa39b223fe8d0a0e5c4f27ead9083c756cc2"
            },
            {
                "amount": "0.003192819841666624",
                "from": "0x3e66b66fd1d0b02fda6c811da9e0547970db2f21",
                "id": 11,
                "isERC1155": false,
                "isERC721": false,
                "isReverted": false,
                "order": 11,
                "to": "0x6a9fd3fbce86d1ba217288c1c9303649091b7729",
                "token": "0xeeeeeeeeeeeeeeeeeeeeeeeeeeeeeeeeeeeeeeee"
            }
        ],
        "token_infos": [
            {
                "address": "0x20945ca1df56d237fd40036d47e866c7dccd2114",
                "decimals": 18
            },
            {
                "address": "0xa0b86991c6218b36c1d19d4a2e9eb0ce3606eb48",
                "decimals": 6
            },
            {
                "address": "0xc02aaa39b223fe8d0a0e5c4f27ead9083c756cc2",
                "decimals": 18
            },
            {
                "address": "0xeeeeeeeeeeeeeeeeeeeeeeeeeeeeeeeeeeeeeeee",
                "decimals": 18
            }
        ]
    },
    "address_label": {
        "labels": [
            {
                "address": "0xeeeeeeeeeeeeeeeeeeeeeeeeeeeeeeeeeeeeeeee",
                "label": "Ether"
            },
            {
                "address": "0x3e66b66fd1d0b02fda6c811da9e0547970db2f21",
                "label": "Balancer: Exchange Proxy 2"
            },
            {
                "address": "0x8a649274e4d777ffc6851f13d23a86bbfa2f2fbf",
                "label": "Balancer: ETH/USDC 50/50 #13"
            },
            {
                "address": "0xb7277a6e95992041568d9391d09d0122023778a2",
                "label": "FiatTokenV2"
            },
            {
                "address": "0x20945ca1df56d237fd40036d47e866c7dccd2114",
                "label": "Nsure.network: NSURE Token"
            },
            {
                "address": "0x0000000000000000000000000000000000000003",
                "label": "Precompiled"
            },
            {
                "address": "0xc02aaa39b223fe8d0a0e5c4f27ead9083c756cc2",
                "label": "Wrapped Ether (WETH)"
            },
            {
                "address": "0xa0b86991c6218b36c1d19d4a2e9eb0ce3606eb48",
                "label": "Circle: USDC Token"
            },
            {
                "address": "0x9403d141047422fbf43724fcb985b1e96196c84f",
                "label": "BPool"
            },
            {
                "address": "0x0000000000000000000000000000000000000001",
                "label": "Precompiled"
            },
            {
                "address": "0x0000000000000000000000000000000000000002",
                "label": "Precompiled"
            },
            {
                "address": "0x0000000000000000000000000000000000000004",
                "label": "Precompiled"
            }
        ]
    },
    "trace": {
        "accountLabels": null,
        "dataMap": {
            "-1": {
                "invocation": {
                    "address": "0x6a9fd3fbce86d1ba217288c1c9303649091b7729",
                    "callData": "",
                    "decodedMethod": null,
                    "errorInfo": "",
                    "fromAddress": "",
                    "gasUsed": 0,
                    "id": -1,
                    "methodDecoded": false,
                    "operation": "",
                    "output": "",
                    "revert": false,
                    "revertMessage": "",
                    "selector": "",
                    "status": false,
                    "value": ""
                },
                "nodeType": 0
            },
            "0": {
                "invocation": {
                    "address": "0x3e66b66fd1d0b02fda6c811da9e0547970db2f21",
                    "callData": "0x0000000000000000000000000000000000000000000000000000000000000080000000000000000000000000eeeeeeeeeeeeeeeeeeeeeeeeeeeeeeeeeeeeeeee00000000000000000000000020945ca1df56d237fd40036d47e866c7dccd21140000000000000000000000000000000000000000000000000479ccd7c07498440000000000000000000000000000000000000000000000000000000000000001000000000000000000000000000000000000000000000000000000000000002000000000000000000000000000000000000000000000000000000000000000020000000000000000000000008a649274e4d777ffc6851f13d23a86bbfa2f2fbf000000000000000000000000c02aaa39b223fe8d0a0e5c4f27ead9083c756cc2000000000000000000000000a0b86991c6218b36c1d19d4a2e9eb0ce3606eb48000000000000000000000000000000000000000000000000000000000721dc79ffffffffffffffffffffffffffffffffffffffffffffffffffffffffffffffffffffffffffffffffffffffffffffffffffffffffffffffffffffffffffffffff0000000000000000000000009403d141047422fbf43724fcb985b1e96196c84f000000000000000000000000a0b86991c6218b36c1d19d4a2e9eb0ce3606eb4800000000000000000000000020945ca1df56d237fd40036d47e866c7dccd211400000000000000000000000000000000000000000000001043561a8829300000ffffffffffffffffffffffffffffffffffffffffffffffffffffffffffffffffffffffffffffffffffffffffffffffffffffffffffffffffffffffffffffffff",
                    "decodedMethod": {
                        "callParams": [
                            {
                                "name": "swapSequences",
                                "type": "(address,address,address,uint256,uint256,uint256)[][]",
                                "value": [
                                    [
                                        [
                                            {
                                                "name": "pool",
                                                "type": "address",
                                                "value": "0x8a649274e4d777ffc6851f13d23a86bbfa2f2fbf"
                                            },
                                            {
                                                "name": "tokenIn",
                                                "type": "address",
                                                "value": "0xc02aaa39b223fe8d0a0e5c4f27ead9083c756cc2"
                                            },
                                            {
                                                "name": "tokenOut",
                                                "type": "address",
                                                "value": "0xa0b86991c6218b36c1d19d4a2e9eb0ce3606eb48"
                                            },
                                            {
                                                "name": "swapAmount",
                                                "type": "uint256",
                                                "value": "119,659,641"
                                            },
                                            {
                                                "name": "limitReturnAmount",
                                                "type": "uint256",
                                                "value": "115,792,089,237,316,195,423,570,985,008,687,907,853,269,984,665,640,564,039,457,584,007,913,129,639,935"
                                            },
                                            {
                                                "name": "maxPrice",
                                                "type": "uint256",
                                                "value": "115,792,089,237,316,195,423,570,985,008,687,907,853,269,984,665,640,564,039,457,584,007,913,129,639,935"
                                            }
                                        ],
                                        [
                                            {
                                                "name": "pool",
                                                "type": "address",
                                                "value": "0x9403d141047422fbf43724fcb985b1e96196c84f"
                                            },
                                            {
                                                "name": "tokenIn",
                                                "type": "address",
                                                "value": "0xa0b86991c6218b36c1d19d4a2e9eb0ce3606eb48"
                                            },
                                            {
                                                "name": "tokenOut",
                                                "type": "address",
                                                "value": "0x20945ca1df56d237fd40036d47e866c7dccd2114"
                                            },
                                            {
                                                "name": "swapAmount",
                                                "type": "uint256",
                                                "value": "300,000,000,000,000,000,000"
                                            },
                                            {
                                                "name": "limitReturnAmount",
                                                "type": "uint256",
                                                "value": "115,792,089,237,316,195,423,570,985,008,687,907,853,269,984,665,640,564,039,457,584,007,913,129,639,935"
                                            },
                                            {
                                                "name": "maxPrice",
                                                "type": "uint256",
                                                "value": "115,792,089,237,316,195,423,570,985,008,687,907,853,269,984,665,640,564,039,457,584,007,913,129,639,935"
                                            }
                                        ]
                                    ]
                                ]
                            },
                            {
                                "name": "tokenIn",
                                "type": "address",
                                "value": "0xeeeeeeeeeeeeeeeeeeeeeeeeeeeeeeeeeeeeeeee"
                            },
                            {
                                "name": "tokenOut",
                                "type": "address",
                                "value": "0x20945ca1df56d237fd40036d47e866c7dccd2114"
                            },
                            {
                                "name": "maxTotalAmountIn",
                                "type": "uint256",
                                "value": "322,514,075,352,602,692"
                            }
                        ],
                        "constructorArguments": "",
                        "name": "multihopBatchSwapExactOut",
                        "returnParams": [
                            {
                                "name": "totalAmountIn",
                                "type": "uint256",
                                "value": "319,321,255,510,936,068"
                            }
                        ],
                        "signature": "multihopBatchSwapExactOut((address,address,address,uint256,uint256,uint256)[][],address,address,uint256)"
                    },
                    "errorInfo": "",
                    "fromAddress": "0x6a9fd3fbce86d1ba217288c1c9303649091b7729",
                    "gasUsed": 364870,
                    "id": 0,
                    "methodDecoded": true,
                    "operation": "CALL",
                    "output": "0x000000000000000000000000000000000000000000000000046e74fd73f60a04",
                    "revert": false,
                    "revertMessage": "",
                    "selector": "0x86b2ecc4",
                    "status": true,
                    "value": "0.322514075352602692"
                },
                "nodeType": 0
            },
            "1": {
                "invocation": {
                    "address": "0xc02aaa39b223fe8d0a0e5c4f27ead9083c756cc2",
                    "callData": "0x",
                    "decodedMethod": {
                        "callParams": [],
                        "constructorArguments": "",
                        "name": "deposit",
                        "returnParams": [],
                        "signature": "deposit()"
                    },
                    "errorInfo": "",
                    "fromAddress": "0x3e66b66fd1d0b02fda6c811da9e0547970db2f21",
                    "gasUsed": 22674,
                    "id": 1,
                    "methodDecoded": true,
                    "operation": "CALL",
                    "output": "",
                    "revert": false,
                    "revertMessage": "",
                    "selector": "0xd0e30db0",
                    "status": true,
                    "value": "0.322514075352602692"
                },
                "nodeType": 0
            },
            "10": {
                "invocation": {
                    "address": "0xc02aaa39b223fe8d0a0e5c4f27ead9083c756cc2",
                    "callData": "0x0000000000000000000000008a649274e4d777ffc6851f13d23a86bbfa2f2fbfffffffffffffffffffffffffffffffffffffffffffffffffffffffffffffffff",
                    "decodedMethod": {
                        "callParams": [
                            {
                                "name": "guy",
                                "type": "address",
                                "value": "0x8a649274e4d777ffc6851f13d23a86bbfa2f2fbf"
                            },
                            {
                                "decimalAvailable": true,
                                "name": "wad",
                                "type": "uint256",
                                "value": "115,792,089,237,316,195,423,570,985,008,687,907,853,269,984,665,640,564,039,457,584,007,913,129,639,935"
                            }
                        ],
                        "constructorArguments": "",
                        "name": "approve",
                        "returnParams": [
                            {
                                "name": "",
                                "type": "bool",
                                "value": true
                            }
                        ],
                        "signature": "approve(address,uint256)"
                    },
                    "errorInfo": "",
                    "fromAddress": "0x3e66b66fd1d0b02fda6c811da9e0547970db2f21",
                    "gasUsed": 22320,
                    "id": 10,
                    "methodDecoded": true,
                    "operation": "CALL",
                    "output": "0x0000000000000000000000000000000000000000000000000000000000000001",
                    "revert": false,
                    "revertMessage": "",
                    "selector": "0x095ea7b3",
                    "status": true,
                    "value": "0"
                },
                "nodeType": 0
            },
            "11": {
                "event": {
                    "contract": "0xc02aaa39b223fe8d0a0e5c4f27ead9083c756cc2",
                    "decodedLog": {
                        "name": "Approval",
                        "params": [
                            {
                                "name": "src",
                                "type": "address",
                                "value": "0x3e66b66fd1d0b02fda6c811da9e0547970db2f21"
                            },
                            {
                                "name": "guy",
                                "type": "address",
                                "value": "0x8a649274e4d777ffc6851f13d23a86bbfa2f2fbf"
                            },
                            {
                                "decimalAvailable": true,
                                "name": "wad",
                                "type": "uint256",
                                "value": "115,792,089,237,316,195,423,570,985,008,687,907,853,269,984,665,640,564,039,457,584,007,913,129,639,935"
                            }
                        ],
                        "signature": "Approval(address,address,uint256)"
                    },
                    "id": 11,
                    "logData": "0xffffffffffffffffffffffffffffffffffffffffffffffffffffffffffffffff",
                    "logDecoded": true,
                    "operation": "EVENT",
                    "revert": false,
                    "status": true,
                    "topics": [
                        "0x8c5be1e5ebec7d5bd14f71427d1e84f3dd0314c0f7b2291e5b200ac8c7c3b925",
                        "0x0000000000000000000000003e66b66fd1d0b02fda6c811da9e0547970db2f21",
                        "0x0000000000000000000000008a649274e4d777ffc6851f13d23a86bbfa2f2fbf"
                    ]
                },
                "nodeType": 1
            },
            "12": {
                "invocation": {
                    "address": "0x8a649274e4d777ffc6851f13d23a86bbfa2f2fbf",
                    "callData": "0x000000000000000000000000c02aaa39b223fe8d0a0e5c4f27ead9083c756cc2ffffffffffffffffffffffffffffffffffffffffffffffffffffffffffffffff000000000000000000000000a0b86991c6218b36c1d19d4a2e9eb0ce3606eb48000000000000000000000000000000000000000000000000000000000721dc79ffffffffffffffffffffffffffffffffffffffffffffffffffffffffffffffff",
                    "decodedMethod": {
                        "callParams": [
                            {
                                "name": "tokenIn",
                                "type": "address",
                                "value": "0xc02aaa39b223fe8d0a0e5c4f27ead9083c756cc2"
                            },
                            {
                                "name": "maxAmountIn",
                                "type": "uint256",
                                "value": "115,792,089,237,316,195,423,570,985,008,687,907,853,269,984,665,640,564,039,457,584,007,913,129,639,935"
                            },
                            {
                                "name": "tokenOut",
                                "type": "address",
                                "value": "0xa0b86991c6218b36c1d19d4a2e9eb0ce3606eb48"
                            },
                            {
                                "name": "tokenAmountOut",
                                "type": "uint256",
                                "value": "119,659,641"
                            },
                            {
                                "name": "maxPrice",
                                "type": "uint256",
                                "value": "115,792,089,237,316,195,423,570,985,008,687,907,853,269,984,665,640,564,039,457,584,007,913,129,639,935"
                            }
                        ],
                        "constructorArguments": "",
                        "name": "swapExactAmountOut",
                        "returnParams": [
                            {
                                "name": "tokenAmountIn",
                                "type": "uint256",
                                "value": "319,321,255,510,936,068"
                            },
                            {
                                "name": "spotPriceAfter",
                                "type": "uint256",
                                "value": "2,668,606,368,916,238,106,991,363,856"
                            }
                        ],
                        "signature": "swapExactAmountOut(address,uint256,address,uint256,uint256)"
                    },
                    "errorInfo": "",
                    "fromAddress": "0x3e66b66fd1d0b02fda6c811da9e0547970db2f21",
                    "gasUsed": 97969,
                    "id": 12,
                    "methodDecoded": true,
                    "operation": "CALL",
                    "output": "0x000000000000000000000000000000000000000000000000046e74fd73f60a040000000000000000000000000000000000000000089f6b612266dae3bb658710",
                    "revert": false,
                    "revertMessage": "",
                    "selector": "0x7c5e9ea4",
                    "status": true,
                    "value": "0"
                },
                "nodeType": 0
            },
            "13": {
                "event": {
                    "contract": "0x8a649274e4d777ffc6851f13d23a86bbfa2f2fbf",
                    "decodedLog": null,
                    "id": 13,
                    "logData": "0x000000000000000000000000000000000000000000000000000000000000002000000000000000000000000000000000000000000000000000000000000000a47c5e9ea4000000000000000000000000c02aaa39b223fe8d0a0e5c4f27ead9083c756cc2ffffffffffffffffffffffffffffffffffffffffffffffffffffffffffffffff000000000000000000000000a0b86991c6218b36c1d19d4a2e9eb0ce3606eb48000000000000000000000000000000000000000000000000000000000721dc79ffffffffffffffffffffffffffffffffffffffffffffffffffffffffffffffff00000000000000000000000000000000000000000000000000000000",
                    "logDecoded": false,
                    "operation": "EVENT",
                    "revert": false,
                    "status": true,
                    "topics": [
                        "0x7c5e9ea400000000000000000000000000000000000000000000000000000000",
                        "0x0000000000000000000000003e66b66fd1d0b02fda6c811da9e0547970db2f21"
                    ]
                },
                "nodeType": 1
            },
            "14": {
                "event": {
                    "contract": "0x8a649274e4d777ffc6851f13d23a86bbfa2f2fbf",
                    "decodedLog": {
                        "name": "LOG_SWAP",
                        "params": [
                            {
                                "name": "caller",
                                "type": "address",
                                "value": "0x3e66b66fd1d0b02fda6c811da9e0547970db2f21"
                            },
                            {
                                "name": "tokenIn",
                                "type": "address",
                                "value": "0xc02aaa39b223fe8d0a0e5c4f27ead9083c756cc2"
                            },
                            {
                                "name": "tokenOut",
                                "type": "address",
                                "value": "0xa0b86991c6218b36c1d19d4a2e9eb0ce3606eb48"
                            },
                            {
                                "name": "tokenAmountIn",
                                "type": "uint256",
                                "value": "319,321,255,510,936,068"
                            },
                            {
                                "name": "tokenAmountOut",
                                "type": "uint256",
                                "value": "119,659,641"
                            }
                        ],
                        "signature": "LOG_SWAP(address,address,address,uint256,uint256)"
                    },
                    "id": 14,
                    "logData": "0x000000000000000000000000000000000000000000000000046e74fd73f60a04000000000000000000000000000000000000000000000000000000000721dc79",
                    "logDecoded": true,
                    "operation": "EVENT",
                    "revert": false,
                    "status": true,
                    "topics": [
                        "0x908fb5ee8f16c6bc9bc3690973819f32a4d4b10188134543c88706e0e1d43378",
                        "0x0000000000000000000000003e66b66fd1d0b02fda6c811da9e0547970db2f21",
                        "0x000000000000000000000000c02aaa39b223fe8d0a0e5c4f27ead9083c756cc2",
                        "0x000000000000000000000000a0b86991c6218b36c1d19d4a2e9eb0ce3606eb48"
                    ]
                },
                "nodeType": 1
            },
            "15": {
                "invocation": {
                    "address": "0xc02aaa39b223fe8d0a0e5c4f27ead9083c756cc2",
                    "callData": "0x0000000000000000000000003e66b66fd1d0b02fda6c811da9e0547970db2f210000000000000000000000008a649274e4d777ffc6851f13d23a86bbfa2f2fbf000000000000000000000000000000000000000000000000046e74fd73f60a04",
                    "decodedMethod": {
                        "callParams": [
                            {
                                "name": "src",
                                "type": "address",
                                "value": "0x3e66b66fd1d0b02fda6c811da9e0547970db2f21"
                            },
                            {
                                "name": "dst",
                                "type": "address",
                                "value": "0x8a649274e4d777ffc6851f13d23a86bbfa2f2fbf"
                            },
                            {
                                "decimalAvailable": true,
                                "name": "wad",
                                "type": "uint256",
                                "value": "319,321,255,510,936,068"
                            }
                        ],
                        "constructorArguments": "",
                        "name": "transferFrom",
                        "returnParams": [
                            {
                                "name": "",
                                "type": "bool",
                                "value": true
                            }
                        ],
                        "signature": "transferFrom(address,address,uint256)"
                    },
                    "errorInfo": "",
                    "fromAddress": "0x8a649274e4d777ffc6851f13d23a86bbfa2f2fbf",
                    "gasUsed": 11825,
                    "id": 15,
                    "methodDecoded": true,
                    "operation": "CALL",
                    "output": "0x0000000000000000000000000000000000000000000000000000000000000001",
                    "revert": false,
                    "revertMessage": "",
                    "selector": "0x23b872dd",
                    "status": true,
                    "value": "0"
                },
                "nodeType": 0
            },
            "16": {
                "event": {
                    "contract": "0xc02aaa39b223fe8d0a0e5c4f27ead9083c756cc2",
                    "decodedLog": {
                        "name": "Transfer",
                        "params": [
                            {
                                "name": "src",
                                "type": "address",
                                "value": "0x3e66b66fd1d0b02fda6c811da9e0547970db2f21"
                            },
                            {
                                "name": "dst",
                                "type": "address",
                                "value": "0x8a649274e4d777ffc6851f13d23a86bbfa2f2fbf"
                            },
                            {
                                "decimalAvailable": true,
                                "name": "wad",
                                "type": "uint256",
                                "value": "319,321,255,510,936,068"
                            }
                        ],
                        "signature": "Transfer(address,address,uint256)"
                    },
                    "id": 16,
                    "logData": "0x000000000000000000000000000000000000000000000000046e74fd73f60a04",
                    "logDecoded": true,
                    "operation": "EVENT",
                    "revert": false,
                    "status": true,
                    "topics": [
                        "0xddf252ad1be2c89b69c2b068fc378daa952ba7f163c4a11628f55a4df523b3ef",
                        "0x0000000000000000000000003e66b66fd1d0b02fda6c811da9e0547970db2f21",
                        "0x0000000000000000000000008a649274e4d777ffc6851f13d23a86bbfa2f2fbf"
                    ]
                },
                "nodeType": 1
            },
            "17": {
                "invocation": {
                    "address": "0xa0b86991c6218b36c1d19d4a2e9eb0ce3606eb48",
                    "callData": "0x0000000000000000000000003e66b66fd1d0b02fda6c811da9e0547970db2f21000000000000000000000000000000000000000000000000000000000721dc79",
                    "decodedMethod": {
                        "callParams": [
                            {
                                "name": "to",
                                "type": "address",
                                "value": "0x3e66b66fd1d0b02fda6c811da9e0547970db2f21"
                            },
                            {
                                "decimalAvailable": true,
                                "name": "value",
                                "type": "uint256",
                                "value": "119,659,641"
                            }
                        ],
                        "constructorArguments": "",
                        "name": "transfer",
                        "returnParams": [
                            {
                                "name": "",
                                "type": "bool",
                                "value": true
                            }
                        ],
                        "signature": "transfer(address,uint256)"
                    },
                    "errorInfo": "",
                    "fromAddress": "0x8a649274e4d777ffc6851f13d23a86bbfa2f2fbf",
                    "gasUsed": 35773,
                    "id": 17,
                    "methodDecoded": true,
                    "operation": "CALL",
                    "output": "0x0000000000000000000000000000000000000000000000000000000000000001",
                    "revert": false,
                    "revertMessage": "",
                    "selector": "0xa9059cbb",
                    "status": true,
                    "value": "0"
                },
                "nodeType": 0
            },
            "18": {
                "invocation": {
                    "address": "0xb7277a6e95992041568d9391d09d0122023778a2",
                    "callData": "0x0000000000000000000000003e66b66fd1d0b02fda6c811da9e0547970db2f21000000000000000000000000000000000000000000000000000000000721dc79",
                    "decodedMethod": {
                        "callParams": [
                            {
                                "name": "to",
                                "type": "address",
                                "value": "0x3e66b66fd1d0b02fda6c811da9e0547970db2f21"
                            },
                            {
                                "decimalAvailable": true,
                                "name": "value",
                                "type": "uint256",
                                "value": "119,659,641"
                            }
                        ],
                        "constructorArguments": "",
                        "name": "transfer",
                        "returnParams": [
                            {
                                "name": "",
                                "type": "bool",
                                "value": true
                            }
                        ],
                        "signature": "transfer(address,uint256)"
                    },
                    "errorInfo": "",
                    "fromAddress": "0xa0b86991c6218b36c1d19d4a2e9eb0ce3606eb48",
                    "gasUsed": 32984,
                    "id": 18,
                    "methodDecoded": true,
                    "operation": "DELEGATECALL",
                    "output": "0x0000000000000000000000000000000000000000000000000000000000000001",
                    "revert": false,
                    "revertMessage": "",
                    "selector": "0xa9059cbb",
                    "status": true,
                    "value": "0"
                },
                "nodeType": 0
            },
            "19": {
                "event": {
                    "contract": "0xa0b86991c6218b36c1d19d4a2e9eb0ce3606eb48",
                    "decodedLog": {
                        "name": "Transfer",
                        "params": [
                            {
                                "name": "from",
                                "type": "address",
                                "value": "0x8a649274e4d777ffc6851f13d23a86bbfa2f2fbf"
                            },
                            {
                                "name": "to",
                                "type": "address",
                                "value": "0x3e66b66fd1d0b02fda6c811da9e0547970db2f21"
                            },
                            {
                                "decimalAvailable": true,
                                "name": "value",
                                "type": "uint256",
                                "value": "119,659,641"
                            }
                        ],
                        "signature": "Transfer(address,address,uint256)"
                    },
                    "id": 19,
                    "logData": "0x000000000000000000000000000000000000000000000000000000000721dc79",
                    "logDecoded": true,
                    "operation": "EVENT",
                    "revert": false,
                    "status": true,
                    "topics": [
                        "0xddf252ad1be2c89b69c2b068fc378daa952ba7f163c4a11628f55a4df523b3ef",
                        "0x0000000000000000000000008a649274e4d777ffc6851f13d23a86bbfa2f2fbf",
                        "0x0000000000000000000000003e66b66fd1d0b02fda6c811da9e0547970db2f21"
                    ]
                },
                "nodeType": 1
            },
            "2": {
                "event": {
                    "contract": "0xc02aaa39b223fe8d0a0e5c4f27ead9083c756cc2",
                    "decodedLog": {
                        "name": "Deposit",
                        "params": [
                            {
                                "name": "dst",
                                "type": "address",
                                "value": "0x3e66b66fd1d0b02fda6c811da9e0547970db2f21"
                            },
                            {
                                "name": "wad",
                                "type": "uint256",
                                "value": "322,514,075,352,602,692"
                            }
                        ],
                        "signature": "Deposit(address,uint256)"
                    },
                    "id": 2,
                    "logData": "0x0000000000000000000000000000000000000000000000000479ccd7c0749844",
                    "logDecoded": true,
                    "operation": "EVENT",
                    "revert": false,
                    "status": true,
                    "topics": [
                        "0xe1fffcc4923d04b559f4d29a8bfc6cda04eb5b0d3c460751c2402c5c5cc9109c",
                        "0x0000000000000000000000003e66b66fd1d0b02fda6c811da9e0547970db2f21"
                    ]
                },
                "nodeType": 1
            },
            "20": {
                "invocation": {
                    "address": "0xa0b86991c6218b36c1d19d4a2e9eb0ce3606eb48",
                    "callData": "0x0000000000000000000000003e66b66fd1d0b02fda6c811da9e0547970db2f210000000000000000000000009403d141047422fbf43724fcb985b1e96196c84f",
                    "decodedMethod": {
                        "callParams": [
                            {
                                "name": "owner",
                                "type": "address",
                                "value": "0x3e66b66fd1d0b02fda6c811da9e0547970db2f21"
                            },
                            {
                                "name": "spender",
                                "type": "address",
                                "value": "0x9403d141047422fbf43724fcb985b1e96196c84f"
                            }
                        ],
                        "constructorArguments": "",
                        "name": "allowance",
                        "returnParams": [
                            {
                                "decimalAvailable": true,
                                "name": "",
                                "type": "uint256",
                                "value": "0"
                            }
                        ],
                        "signature": "allowance(address,address)"
                    },
                    "errorInfo": "",
                    "fromAddress": "0x3e66b66fd1d0b02fda6c811da9e0547970db2f21",
                    "gasUsed": 4126,
                    "id": 20,
                    "methodDecoded": true,
                    "operation": "STATICCALL",
                    "output": "0x0000000000000000000000000000000000000000000000000000000000000000",
                    "revert": false,
                    "revertMessage": "",
                    "selector": "0xdd62ed3e",
                    "status": true,
                    "value": "0"
                },
                "nodeType": 0
            },
            "21": {
                "invocation": {
                    "address": "0xb7277a6e95992041568d9391d09d0122023778a2",
                    "callData": "0x0000000000000000000000003e66b66fd1d0b02fda6c811da9e0547970db2f210000000000000000000000009403d141047422fbf43724fcb985b1e96196c84f",
                    "decodedMethod": {
                        "callParams": [
                            {
                                "name": "owner",
                                "type": "address",
                                "value": "0x3e66b66fd1d0b02fda6c811da9e0547970db2f21"
                            },
                            {
                                "name": "spender",
                                "type": "address",
                                "value": "0x9403d141047422fbf43724fcb985b1e96196c84f"
                            }
                        ],
                        "constructorArguments": "",
                        "name": "allowance",
                        "returnParams": [
                            {
                                "decimalAvailable": true,
                                "name": "",
                                "type": "uint256",
                                "value": "0"
                            }
                        ],
                        "signature": "allowance(address,address)"
                    },
                    "errorInfo": "",
                    "fromAddress": "0xa0b86991c6218b36c1d19d4a2e9eb0ce3606eb48",
                    "gasUsed": 1337,
                    "id": 21,
                    "methodDecoded": true,
                    "operation": "DELEGATECALL",
                    "output": "0x0000000000000000000000000000000000000000000000000000000000000000",
                    "revert": false,
                    "revertMessage": "",
                    "selector": "0xdd62ed3e",
                    "status": true,
                    "value": "0"
                },
                "nodeType": 0
            },
            "22": {
                "invocation": {
                    "address": "0xa0b86991c6218b36c1d19d4a2e9eb0ce3606eb48",
                    "callData": "0x0000000000000000000000009403d141047422fbf43724fcb985b1e96196c84fffffffffffffffffffffffffffffffffffffffffffffffffffffffffffffffff",
                    "decodedMethod": {
                        "callParams": [
                            {
                                "name": "spender",
                                "type": "address",
                                "value": "0x9403d141047422fbf43724fcb985b1e96196c84f"
                            },
                            {
                                "decimalAvailable": true,
                                "name": "value",
                                "type": "uint256",
                                "value": "115,792,089,237,316,195,423,570,985,008,687,907,853,269,984,665,640,564,039,457,584,007,913,129,639,935"
                            }
                        ],
                        "constructorArguments": "",
                        "name": "approve",
                        "returnParams": [
                            {
                                "name": "",
                                "type": "bool",
                                "value": true
                            }
                        ],
                        "signature": "approve(address,uint256)"
                    },
                    "errorInfo": "",
                    "fromAddress": "0x3e66b66fd1d0b02fda6c811da9e0547970db2f21",
                    "gasUsed": 27867,
                    "id": 22,
                    "methodDecoded": true,
                    "operation": "CALL",
                    "output": "0x0000000000000000000000000000000000000000000000000000000000000001",
                    "revert": false,
                    "revertMessage": "",
                    "selector": "0x095ea7b3",
                    "status": true,
                    "value": "0"
                },
                "nodeType": 0
            },
            "23": {
                "invocation": {
                    "address": "0xb7277a6e95992041568d9391d09d0122023778a2",
                    "callData": "0x0000000000000000000000009403d141047422fbf43724fcb985b1e96196c84fffffffffffffffffffffffffffffffffffffffffffffffffffffffffffffffff",
                    "decodedMethod": {
                        "callParams": [
                            {
                                "name": "spender",
                                "type": "address",
                                "value": "0x9403d141047422fbf43724fcb985b1e96196c84f"
                            },
                            {
                                "decimalAvailable": true,
                                "name": "value",
                                "type": "uint256",
                                "value": "115,792,089,237,316,195,423,570,985,008,687,907,853,269,984,665,640,564,039,457,584,007,913,129,639,935"
                            }
                        ],
                        "constructorArguments": "",
                        "name": "approve",
                        "returnParams": [
                            {
                                "name": "",
                                "type": "bool",
                                "value": true
                            }
                        ],
                        "signature": "approve(address,uint256)"
                    },
                    "errorInfo": "",
                    "fromAddress": "0xa0b86991c6218b36c1d19d4a2e9eb0ce3606eb48",
                    "gasUsed": 25078,
                    "id": 23,
                    "methodDecoded": true,
                    "operation": "DELEGATECALL",
                    "output": "0x0000000000000000000000000000000000000000000000000000000000000001",
                    "revert": false,
                    "revertMessage": "",
                    "selector": "0x095ea7b3",
                    "status": true,
                    "value": "0"
                },
                "nodeType": 0
            },
            "24": {
                "event": {
                    "contract": "0xa0b86991c6218b36c1d19d4a2e9eb0ce3606eb48",
                    "decodedLog": {
                        "name": "Approval",
                        "params": [
                            {
                                "name": "owner",
                                "type": "address",
                                "value": "0x3e66b66fd1d0b02fda6c811da9e0547970db2f21"
                            },
                            {
                                "name": "spender",
                                "type": "address",
                                "value": "0x9403d141047422fbf43724fcb985b1e96196c84f"
                            },
                            {
                                "decimalAvailable": true,
                                "name": "value",
                                "type": "uint256",
                                "value": "115,792,089,237,316,195,423,570,985,008,687,907,853,269,984,665,640,564,039,457,584,007,913,129,639,935"
                            }
                        ],
                        "signature": "Approval(address,address,uint256)"
                    },
                    "id": 24,
                    "logData": "0xffffffffffffffffffffffffffffffffffffffffffffffffffffffffffffffff",
                    "logDecoded": true,
                    "operation": "EVENT",
                    "revert": false,
                    "status": true,
                    "topics": [
                        "0x8c5be1e5ebec7d5bd14f71427d1e84f3dd0314c0f7b2291e5b200ac8c7c3b925",
                        "0x0000000000000000000000003e66b66fd1d0b02fda6c811da9e0547970db2f21",
                        "0x0000000000000000000000009403d141047422fbf43724fcb985b1e96196c84f"
                    ]
                },
                "nodeType": 1
            },
            "25": {
                "invocation": {
                    "address": "0x9403d141047422fbf43724fcb985b1e96196c84f",
                    "callData": "0x000000000000000000000000a0b86991c6218b36c1d19d4a2e9eb0ce3606eb48ffffffffffffffffffffffffffffffffffffffffffffffffffffffffffffffff00000000000000000000000020945ca1df56d237fd40036d47e866c7dccd211400000000000000000000000000000000000000000000001043561a8829300000ffffffffffffffffffffffffffffffffffffffffffffffffffffffffffffffff",
                    "decodedMethod": {
                        "callParams": [
                            {
                                "name": "tokenIn",
                                "type": "address",
                                "value": "0xa0b86991c6218b36c1d19d4a2e9eb0ce3606eb48"
                            },
                            {
                                "name": "maxAmountIn",
                                "type": "uint256",
                                "value": "115,792,089,237,316,195,423,570,985,008,687,907,853,269,984,665,640,564,039,457,584,007,913,129,639,935"
                            },
                            {
                                "name": "tokenOut",
                                "type": "address",
                                "value": "0x20945ca1df56d237fd40036d47e866c7dccd2114"
                            },
                            {
                                "name": "tokenAmountOut",
                                "type": "uint256",
                                "value": "300,000,000,000,000,000,000"
                            },
                            {
                                "name": "maxPrice",
                                "type": "uint256",
                                "value": "115,792,089,237,316,195,423,570,985,008,687,907,853,269,984,665,640,564,039,457,584,007,913,129,639,935"
                            }
                        ],
                        "constructorArguments": "",
                        "name": "swapExactAmountOut",
                        "returnParams": [
                            {
                                "name": "tokenAmountIn",
                                "type": "uint256",
                                "value": "119,659,641"
                            },
                            {
                                "name": "spotPriceAfter",
                                "type": "uint256",
                                "value": "398,911"
                            }
                        ],
                        "signature": "swapExactAmountOut(address,uint256,address,uint256,uint256)"
                    },
                    "errorInfo": "",
                    "fromAddress": "0x3e66b66fd1d0b02fda6c811da9e0547970db2f21",
                    "gasUsed": 106507,
                    "id": 25,
                    "methodDecoded": true,
                    "operation": "CALL",
                    "output": "0x000000000000000000000000000000000000000000000000000000000721dc79000000000000000000000000000000000000000000000000000000000006163f",
                    "revert": false,
                    "revertMessage": "",
                    "selector": "0x7c5e9ea4",
                    "status": true,
                    "value": "0"
                },
                "nodeType": 0
            },
            "26": {
                "event": {
                    "contract": "0x9403d141047422fbf43724fcb985b1e96196c84f",
                    "decodedLog": null,
                    "id": 26,
                    "logData": "0x000000000000000000000000000000000000000000000000000000000000002000000000000000000000000000000000000000000000000000000000000000a47c5e9ea4000000000000000000000000a0b86991c6218b36c1d19d4a2e9eb0ce3606eb48ffffffffffffffffffffffffffffffffffffffffffffffffffffffffffffffff00000000000000000000000020945ca1df56d237fd40036d47e866c7dccd211400000000000000000000000000000000000000000000001043561a8829300000ffffffffffffffffffffffffffffffffffffffffffffffffffffffffffffffff00000000000000000000000000000000000000000000000000000000",
                    "logDecoded": false,
                    "operation": "EVENT",
                    "revert": false,
                    "status": true,
                    "topics": [
                        "0x7c5e9ea400000000000000000000000000000000000000000000000000000000",
                        "0x0000000000000000000000003e66b66fd1d0b02fda6c811da9e0547970db2f21"
                    ]
                },
                "nodeType": 1
            },
            "27": {
                "event": {
                    "contract": "0x9403d141047422fbf43724fcb985b1e96196c84f",
                    "decodedLog": {
                        "name": "LOG_SWAP",
                        "params": [
                            {
                                "name": "caller",
                                "type": "address",
                                "value": "0x3e66b66fd1d0b02fda6c811da9e0547970db2f21"
                            },
                            {
                                "name": "tokenIn",
                                "type": "address",
                                "value": "0xa0b86991c6218b36c1d19d4a2e9eb0ce3606eb48"
                            },
                            {
                                "name": "tokenOut",
                                "type": "address",
                                "value": "0x20945ca1df56d237fd40036d47e866c7dccd2114"
                            },
                            {
                                "name": "tokenAmountIn",
                                "type": "uint256",
                                "value": "119,659,641"
                            },
                            {
                                "name": "tokenAmountOut",
                                "type": "uint256",
                                "value": "300,000,000,000,000,000,000"
                            }
                        ],
                        "signature": "LOG_SWAP(address,address,address,uint256,uint256)"
                    },
                    "id": 27,
                    "logData": "0x000000000000000000000000000000000000000000000000000000000721dc7900000000000000000000000000000000000000000000001043561a8829300000",
                    "logDecoded": true,
                    "operation": "EVENT",
                    "revert": false,
                    "status": true,
                    "topics": [
                        "0x908fb5ee8f16c6bc9bc3690973819f32a4d4b10188134543c88706e0e1d43378",
                        "0x0000000000000000000000003e66b66fd1d0b02fda6c811da9e0547970db2f21",
                        "0x000000000000000000000000a0b86991c6218b36c1d19d4a2e9eb0ce3606eb48",
                        "0x00000000000000000000000020945ca1df56d237fd40036d47e866c7dccd2114"
                    ]
                },
                "nodeType": 1
            },
            "28": {
                "invocation": {
                    "address": "0xa0b86991c6218b36c1d19d4a2e9eb0ce3606eb48",
                    "callData": "0x0000000000000000000000003e66b66fd1d0b02fda6c811da9e0547970db2f210000000000000000000000009403d141047422fbf43724fcb985b1e96196c84f000000000000000000000000000000000000000000000000000000000721dc79",
                    "decodedMethod": {
                        "callParams": [
                            {
                                "name": "from",
                                "type": "address",
                                "value": "0x3e66b66fd1d0b02fda6c811da9e0547970db2f21"
                            },
                            {
                                "name": "to",
                                "type": "address",
                                "value": "0x9403d141047422fbf43724fcb985b1e96196c84f"
                            },
                            {
                                "decimalAvailable": true,
                                "name": "value",
                                "type": "uint256",
                                "value": "119,659,641"
                            }
                        ],
                        "constructorArguments": "",
                        "name": "transferFrom",
                        "returnParams": [
                            {
                                "name": "",
                                "type": "bool",
                                "value": true
                            }
                        ],
                        "signature": "transferFrom(address,address,uint256)"
                    },
                    "errorInfo": "",
                    "fromAddress": "0x9403d141047422fbf43724fcb985b1e96196c84f",
                    "gasUsed": 20614,
                    "id": 28,
                    "methodDecoded": true,
                    "operation": "CALL",
                    "output": "0x0000000000000000000000000000000000000000000000000000000000000001",
                    "revert": false,
                    "revertMessage": "",
                    "selector": "0x23b872dd",
                    "status": true,
                    "value": "0"
                },
                "nodeType": 0
            },
            "29": {
                "invocation": {
                    "address": "0xb7277a6e95992041568d9391d09d0122023778a2",
                    "callData": "0x0000000000000000000000003e66b66fd1d0b02fda6c811da9e0547970db2f210000000000000000000000009403d141047422fbf43724fcb985b1e96196c84f000000000000000000000000000000000000000000000000000000000721dc79",
                    "decodedMethod": {
                        "callParams": [
                            {
                                "name": "from",
                                "type": "address",
                                "value": "0x3e66b66fd1d0b02fda6c811da9e0547970db2f21"
                            },
                            {
                                "name": "to",
                                "type": "address",
                                "value": "0x9403d141047422fbf43724fcb985b1e96196c84f"
                            },
                            {
                                "decimalAvailable": true,
                                "name": "value",
                                "type": "uint256",
                                "value": "119,659,641"
                            }
                        ],
                        "constructorArguments": "",
                        "name": "transferFrom",
                        "returnParams": [
                            {
                                "name": "",
                                "type": "bool",
                                "value": true
                            }
                        ],
                        "signature": "transferFrom(address,address,uint256)"
                    },
                    "errorInfo": "",
                    "fromAddress": "0xa0b86991c6218b36c1d19d4a2e9eb0ce3606eb48",
                    "gasUsed": 17819,
                    "id": 29,
                    "methodDecoded": true,
                    "operation": "DELEGATECALL",
                    "output": "0x0000000000000000000000000000000000000000000000000000000000000001",
                    "revert": false,
                    "revertMessage": "",
                    "selector": "0x23b872dd",
                    "status": true,
                    "value": "0"
                },
                "nodeType": 0
            },
            "3": {
                "invocation": {
                    "address": "0x9403d141047422fbf43724fcb985b1e96196c84f",
                    "callData": "0x000000000000000000000000a0b86991c6218b36c1d19d4a2e9eb0ce3606eb48",
                    "decodedMethod": {
                        "callParams": [
                            {
                                "name": "token",
                                "type": "address",
                                "value": "0xa0b86991c6218b36c1d19d4a2e9eb0ce3606eb48"
                            }
                        ],
                        "constructorArguments": "",
                        "name": "getBalance",
                        "returnParams": [
                            {
                                "name": "",
                                "type": "uint256",
                                "value": "1,157,320,165,811"
                            }
                        ],
                        "signature": "getBalance(address)"
                    },
                    "errorInfo": "",
                    "fromAddress": "0x3e66b66fd1d0b02fda6c811da9e0547970db2f21",
                    "gasUsed": 2991,
                    "id": 3,
                    "methodDecoded": true,
                    "operation": "STATICCALL",
                    "output": "0x0000000000000000000000000000000000000000000000000000010d75a849b3",
                    "revert": false,
                    "revertMessage": "",
                    "selector": "0xf8b2cb4f",
                    "status": true,
                    "value": "0"
                },
                "nodeType": 0
            },
            "30": {
                "event": {
                    "contract": "0xa0b86991c6218b36c1d19d4a2e9eb0ce3606eb48",
                    "decodedLog": {
                        "name": "Transfer",
                        "params": [
                            {
                                "name": "from",
                                "type": "address",
                                "value": "0x3e66b66fd1d0b02fda6c811da9e0547970db2f21"
                            },
                            {
                                "name": "to",
                                "type": "address",
                                "value": "0x9403d141047422fbf43724fcb985b1e96196c84f"
                            },
                            {
                                "decimalAvailable": true,
                                "name": "value",
                                "type": "uint256",
                                "value": "119,659,641"
                            }
                        ],
                        "signature": "Transfer(address,address,uint256)"
                    },
                    "id": 30,
                    "logData": "0x000000000000000000000000000000000000000000000000000000000721dc79",
                    "logDecoded": true,
                    "operation": "EVENT",
                    "revert": false,
                    "status": true,
                    "topics": [
                        "0xddf252ad1be2c89b69c2b068fc378daa952ba7f163c4a11628f55a4df523b3ef",
                        "0x0000000000000000000000003e66b66fd1d0b02fda6c811da9e0547970db2f21",
                        "0x0000000000000000000000009403d141047422fbf43724fcb985b1e96196c84f"
                    ]
                },
                "nodeType": 1
            },
            "31": {
                "invocation": {
                    "address": "0x20945ca1df56d237fd40036d47e866c7dccd2114",
                    "callData": "0x0000000000000000000000003e66b66fd1d0b02fda6c811da9e0547970db2f2100000000000000000000000000000000000000000000001043561a8829300000",
                    "decodedMethod": {
                        "callParams": [
                            {
                                "name": "recipient",
                                "type": "address",
                                "value": "0x3e66b66fd1d0b02fda6c811da9e0547970db2f21"
                            },
                            {
                                "decimalAvailable": true,
                                "name": "amount",
                                "type": "uint256",
                                "value": "300,000,000,000,000,000,000"
                            }
                        ],
                        "constructorArguments": "",
                        "name": "transfer",
                        "returnParams": [
                            {
                                "name": "",
                                "type": "bool",
                                "value": true
                            }
                        ],
                        "signature": "transfer(address,uint256)"
                    },
                    "errorInfo": "",
                    "fromAddress": "0x9403d141047422fbf43724fcb985b1e96196c84f",
                    "gasUsed": 31625,
                    "id": 31,
                    "methodDecoded": true,
                    "operation": "CALL",
                    "output": "0x0000000000000000000000000000000000000000000000000000000000000001",
                    "revert": false,
                    "revertMessage": "",
                    "selector": "0xa9059cbb",
                    "status": true,
                    "value": "0"
                },
                "nodeType": 0
            },
            "32": {
                "event": {
                    "contract": "0x20945ca1df56d237fd40036d47e866c7dccd2114",
                    "decodedLog": {
                        "name": "Transfer",
                        "params": [
                            {
                                "name": "from",
                                "type": "address",
                                "value": "0x9403d141047422fbf43724fcb985b1e96196c84f"
                            },
                            {
                                "name": "to",
                                "type": "address",
                                "value": "0x3e66b66fd1d0b02fda6c811da9e0547970db2f21"
                            },
                            {
                                "decimalAvailable": true,
                                "name": "value",
                                "type": "uint256",
                                "value": "300,000,000,000,000,000,000"
                            }
                        ],
                        "signature": "Transfer(address,address,uint256)"
                    },
                    "id": 32,
                    "logData": "0x00000000000000000000000000000000000000000000001043561a8829300000",
                    "logDecoded": true,
                    "operation": "EVENT",
                    "revert": false,
                    "status": true,
                    "topics": [
                        "0xddf252ad1be2c89b69c2b068fc378daa952ba7f163c4a11628f55a4df523b3ef",
                        "0x0000000000000000000000009403d141047422fbf43724fcb985b1e96196c84f",
                        "0x0000000000000000000000003e66b66fd1d0b02fda6c811da9e0547970db2f21"
                    ]
                },
                "nodeType": 1
            },
            "33": {
                "invocation": {
                    "address": "0x20945ca1df56d237fd40036d47e866c7dccd2114",
                    "callData": "0x0000000000000000000000003e66b66fd1d0b02fda6c811da9e0547970db2f21",
                    "decodedMethod": {
                        "callParams": [
                            {
                                "name": "account",
                                "type": "address",
                                "value": "0x3e66b66fd1d0b02fda6c811da9e0547970db2f21"
                            }
                        ],
                        "constructorArguments": "",
                        "name": "balanceOf",
                        "returnParams": [
                            {
                                "decimalAvailable": true,
                                "name": "",
                                "type": "uint256",
                                "value": "300,000,000,000,000,000,000"
                            }
                        ],
                        "signature": "balanceOf(address)"
                    },
                    "errorInfo": "",
                    "fromAddress": "0x3e66b66fd1d0b02fda6c811da9e0547970db2f21",
                    "gasUsed": 1367,
                    "id": 33,
                    "methodDecoded": true,
                    "operation": "STATICCALL",
                    "output": "0x00000000000000000000000000000000000000000000001043561a8829300000",
                    "revert": false,
                    "revertMessage": "",
                    "selector": "0x70a08231",
                    "status": true,
                    "value": "0"
                },
                "nodeType": 0
            },
            "34": {
                "invocation": {
                    "address": "0x20945ca1df56d237fd40036d47e866c7dccd2114",
                    "callData": "0x0000000000000000000000006a9fd3fbce86d1ba217288c1c9303649091b772900000000000000000000000000000000000000000000001043561a8829300000",
                    "decodedMethod": {
                        "callParams": [
                            {
                                "name": "recipient",
                                "type": "address",
                                "value": "0x6a9fd3fbce86d1ba217288c1c9303649091b7729"
                            },
                            {
                                "decimalAvailable": true,
                                "name": "amount",
                                "type": "uint256",
                                "value": "300,000,000,000,000,000,000"
                            }
                        ],
                        "constructorArguments": "",
                        "name": "transfer",
                        "returnParams": [
                            {
                                "name": "",
                                "type": "bool",
                                "value": true
                            }
                        ],
                        "signature": "transfer(address,uint256)"
                    },
                    "errorInfo": "",
                    "fromAddress": "0x3e66b66fd1d0b02fda6c811da9e0547970db2f21",
                    "gasUsed": 27425,
                    "id": 34,
                    "methodDecoded": true,
                    "operation": "CALL",
                    "output": "0x0000000000000000000000000000000000000000000000000000000000000001",
                    "revert": false,
                    "revertMessage": "",
                    "selector": "0xa9059cbb",
                    "status": true,
                    "value": "0"
                },
                "nodeType": 0
            },
            "35": {
                "event": {
                    "contract": "0x20945ca1df56d237fd40036d47e866c7dccd2114",
                    "decodedLog": {
                        "name": "Transfer",
                        "params": [
                            {
                                "name": "from",
                                "type": "address",
                                "value": "0x3e66b66fd1d0b02fda6c811da9e0547970db2f21"
                            },
                            {
                                "name": "to",
                                "type": "address",
                                "value": "0x6a9fd3fbce86d1ba217288c1c9303649091b7729"
                            },
                            {
                                "decimalAvailable": true,
                                "name": "value",
                                "type": "uint256",
                                "value": "300,000,000,000,000,000,000"
                            }
                        ],
                        "signature": "Transfer(address,address,uint256)"
                    },
                    "id": 35,
                    "logData": "0x00000000000000000000000000000000000000000000001043561a8829300000",
                    "logDecoded": true,
                    "operation": "EVENT",
                    "revert": false,
                    "status": true,
                    "topics": [
                        "0xddf252ad1be2c89b69c2b068fc378daa952ba7f163c4a11628f55a4df523b3ef",
                        "0x0000000000000000000000003e66b66fd1d0b02fda6c811da9e0547970db2f21",
                        "0x0000000000000000000000006a9fd3fbce86d1ba217288c1c9303649091b7729"
                    ]
                },
                "nodeType": 1
            },
            "36": {
                "invocation": {
                    "address": "0xc02aaa39b223fe8d0a0e5c4f27ead9083c756cc2",
                    "callData": "0x0000000000000000000000003e66b66fd1d0b02fda6c811da9e0547970db2f21",
                    "decodedMethod": {
                        "callParams": [
                            {
                                "name": "",
                                "type": "address",
                                "value": "0x3e66b66fd1d0b02fda6c811da9e0547970db2f21"
                            }
                        ],
                        "constructorArguments": "",
                        "name": "balanceOf",
                        "returnParams": [
                            {
                                "decimalAvailable": true,
                                "name": "",
                                "type": "uint256",
                                "value": "3,192,819,841,666,624"
                            }
                        ],
                        "signature": "balanceOf(address)"
                    },
                    "errorInfo": "",
                    "fromAddress": "0x3e66b66fd1d0b02fda6c811da9e0547970db2f21",
                    "gasUsed": 1234,
                    "id": 36,
                    "methodDecoded": true,
                    "operation": "STATICCALL",
                    "output": "0x000000000000000000000000000000000000000000000000000b57da4c7e8e40",
                    "revert": false,
                    "revertMessage": "",
                    "selector": "0x70a08231",
                    "status": true,
                    "value": "0"
                },
                "nodeType": 0
            },
            "37": {
                "invocation": {
                    "address": "0xc02aaa39b223fe8d0a0e5c4f27ead9083c756cc2",
                    "callData": "0x000000000000000000000000000000000000000000000000000b57da4c7e8e40",
                    "decodedMethod": {
                        "callParams": [
                            {
                                "name": "wad",
                                "type": "uint256",
                                "value": "3,192,819,841,666,624"
                            }
                        ],
                        "constructorArguments": "",
                        "name": "withdraw",
                        "returnParams": [],
                        "signature": "withdraw(uint256)"
                    },
                    "errorInfo": "",
                    "fromAddress": "0x3e66b66fd1d0b02fda6c811da9e0547970db2f21",
                    "gasUsed": 11880,
                    "id": 37,
                    "methodDecoded": true,
                    "operation": "CALL",
                    "output": "",
                    "revert": false,
                    "revertMessage": "",
                    "selector": "0x2e1a7d4d",
                    "status": true,
                    "value": "0"
                },
                "nodeType": 0
            },
            "38": {
                "invocation": {
                    "address": "0x3e66b66fd1d0b02fda6c811da9e0547970db2f21",
                    "callData": "0x",
                    "decodedMethod": null,
                    "errorInfo": "",
                    "fromAddress": "0xc02aaa39b223fe8d0a0e5c4f27ead9083c756cc2",
                    "gasUsed": 40,
                    "id": 38,
                    "methodDecoded": false,
                    "operation": "CALL",
                    "output": "",
                    "revert": false,
                    "revertMessage": "",
                    "selector": "fallback",
                    "status": true,
                    "value": "0.003192819841666624"
                },
                "nodeType": 0
            },
            "39": {
                "event": {
                    "contract": "0xc02aaa39b223fe8d0a0e5c4f27ead9083c756cc2",
                    "decodedLog": {
                        "name": "Withdrawal",
                        "params": [
                            {
                                "name": "src",
                                "type": "address",
                                "value": "0x3e66b66fd1d0b02fda6c811da9e0547970db2f21"
                            },
                            {
                                "name": "wad",
                                "type": "uint256",
                                "value": "3,192,819,841,666,624"
                            }
                        ],
                        "signature": "Withdrawal(address,uint256)"
                    },
                    "id": 39,
                    "logData": "0x000000000000000000000000000000000000000000000000000b57da4c7e8e40",
                    "logDecoded": true,
                    "operation": "EVENT",
                    "revert": false,
                    "status": true,
                    "topics": [
                        "0x7fcf532c15f0a6db0bd6d0e038bea71d30d808c7d98cb3bf7268a95bf5081b65",
                        "0x0000000000000000000000003e66b66fd1d0b02fda6c811da9e0547970db2f21"
                    ]
                },
                "nodeType": 1
            },
            "4": {
                "invocation": {
                    "address": "0x9403d141047422fbf43724fcb985b1e96196c84f",
                    "callData": "0x000000000000000000000000a0b86991c6218b36c1d19d4a2e9eb0ce3606eb48",
                    "decodedMethod": {
                        "callParams": [
                            {
                                "name": "token",
                                "type": "address",
                                "value": "0xa0b86991c6218b36c1d19d4a2e9eb0ce3606eb48"
                            }
                        ],
                        "constructorArguments": "",
                        "name": "getDenormalizedWeight",
                        "returnParams": [
                            {
                                "name": "",
                                "type": "uint256",
                                "value": "26,025,520,615,384,615,385"
                            }
                        ],
                        "signature": "getDenormalizedWeight(address)"
                    },
                    "errorInfo": "",
                    "fromAddress": "0x3e66b66fd1d0b02fda6c811da9e0547970db2f21",
                    "gasUsed": 2971,
                    "id": 4,
                    "methodDecoded": true,
                    "operation": "STATICCALL",
                    "output": "0x000000000000000000000000000000000000000000000001692d391c4e9b09d9",
                    "revert": false,
                    "revertMessage": "",
                    "selector": "0x948d8ce6",
                    "status": true,
                    "value": "0"
                },
                "nodeType": 0
            },
            "40": {
                "invocation": {
                    "address": "0x6a9fd3fbce86d1ba217288c1c9303649091b7729",
                    "callData": "0x",
                    "decodedMethod": null,
                    "errorInfo": "",
                    "fromAddress": "0x3e66b66fd1d0b02fda6c811da9e0547970db2f21",
                    "gasUsed": 0,
                    "id": 40,
                    "methodDecoded": false,
                    "operation": "CALL",
                    "output": "",
                    "revert": false,
                    "revertMessage": "",
                    "selector": "fallback",
                    "status": true,
                    "value": "0.003192819841666624"
                },
                "nodeType": 0
            },
            "5": {
                "invocation": {
                    "address": "0x9403d141047422fbf43724fcb985b1e96196c84f",
                    "callData": "0x00000000000000000000000020945ca1df56d237fd40036d47e866c7dccd2114",
                    "decodedMethod": {
                        "callParams": [
                            {
                                "name": "token",
                                "type": "address",
                                "value": "0x20945ca1df56d237fd40036d47e866c7dccd2114"
                            }
                        ],
                        "constructorArguments": "",
                        "name": "getBalance",
                        "returnParams": [
                            {
                                "name": "",
                                "type": "uint256",
                                "value": "2,452,617,107,068,252,374,125,888"
                            }
                        ],
                        "signature": "getBalance(address)"
                    },
                    "errorInfo": "",
                    "fromAddress": "0x3e66b66fd1d0b02fda6c811da9e0547970db2f21",
                    "gasUsed": 2991,
                    "id": 5,
                    "methodDecoded": true,
                    "operation": "STATICCALL",
                    "output": "0x00000000000000000000000000000000000000000002075ca3c92438e1ff4d40",
                    "revert": false,
                    "revertMessage": "",
                    "selector": "0xf8b2cb4f",
                    "status": true,
                    "value": "0"
                },
                "nodeType": 0
            },
            "6": {
                "invocation": {
                    "address": "0x9403d141047422fbf43724fcb985b1e96196c84f",
                    "callData": "0x00000000000000000000000020945ca1df56d237fd40036d47e866c7dccd2114",
                    "decodedMethod": {
                        "callParams": [
                            {
                                "name": "token",
                                "type": "address",
                                "value": "0x20945ca1df56d237fd40036d47e866c7dccd2114"
                            }
                        ],
                        "constructorArguments": "",
                        "name": "getDenormalizedWeight",
                        "returnParams": [
                            {
                                "name": "",
                                "type": "uint256",
                                "value": "21,974,479,384,615,384,615"
                            }
                        ],
                        "signature": "getDenormalizedWeight(address)"
                    },
                    "errorInfo": "",
                    "fromAddress": "0x3e66b66fd1d0b02fda6c811da9e0547970db2f21",
                    "gasUsed": 2971,
                    "id": 6,
                    "methodDecoded": true,
                    "operation": "STATICCALL",
                    "output": "0x00000000000000000000000000000000000000000000000130f508931424f627",
                    "revert": false,
                    "revertMessage": "",
                    "selector": "0x948d8ce6",
                    "status": true,
                    "value": "0"
                },
                "nodeType": 0
            },
            "7": {
                "invocation": {
                    "address": "0x9403d141047422fbf43724fcb985b1e96196c84f",
                    "callData": "0x",
                    "decodedMethod": {
                        "callParams": [],
                        "constructorArguments": "",
                        "name": "getSwapFee",
                        "returnParams": [
                            {
                                "name": "",
                                "type": "uint256",
                                "value": "1,000,000,000,000,000"
                            }
                        ],
                        "signature": "getSwapFee()"
                    },
                    "errorInfo": "",
                    "fromAddress": "0x3e66b66fd1d0b02fda6c811da9e0547970db2f21",
                    "gasUsed": 1976,
                    "id": 7,
                    "methodDecoded": true,
                    "operation": "STATICCALL",
                    "output": "0x00000000000000000000000000000000000000000000000000038d7ea4c68000",
                    "revert": false,
                    "revertMessage": "",
                    "selector": "0xd4cadf68",
                    "status": true,
                    "value": "0"
                },
                "nodeType": 0
            },
            "8": {
                "invocation": {
                    "address": "0x9403d141047422fbf43724fcb985b1e96196c84f",
                    "callData": "0x0000000000000000000000000000000000000000000000000000010d75a849b3000000000000000000000000000000000000000000000001692d391c4e9b09d900000000000000000000000000000000000000000002075ca3c92438e1ff4d4000000000000000000000000000000000000000000000000130f508931424f62700000000000000000000000000000000000000000000001043561a882930000000000000000000000000000000000000000000000000000000038d7ea4c68000",
                    "decodedMethod": {
                        "callParams": [
                            {
                                "name": "tokenBalanceIn",
                                "type": "uint256",
                                "value": "1,157,320,165,811"
                            },
                            {
                                "name": "tokenWeightIn",
                                "type": "uint256",
                                "value": "26,025,520,615,384,615,385"
                            },
                            {
                                "name": "tokenBalanceOut",
                                "type": "uint256",
                                "value": "2,452,617,107,068,252,374,125,888"
                            },
                            {
                                "name": "tokenWeightOut",
                                "type": "uint256",
                                "value": "21,974,479,384,615,384,615"
                            },
                            {
                                "name": "tokenAmountOut",
                                "type": "uint256",
                                "value": "300,000,000,000,000,000,000"
                            },
                            {
                                "name": "swapFee",
                                "type": "uint256",
                                "value": "1,000,000,000,000,000"
                            }
                        ],
                        "constructorArguments": "",
                        "name": "calcInGivenOut",
                        "returnParams": [
                            {
                                "name": "tokenAmountIn",
                                "type": "uint256",
                                "value": "119,659,641"
                            }
                        ],
                        "signature": "calcInGivenOut(uint256,uint256,uint256,uint256,uint256,uint256)"
                    },
                    "errorInfo": "",
                    "fromAddress": "0x3e66b66fd1d0b02fda6c811da9e0547970db2f21",
                    "gasUsed": 6382,
                    "id": 8,
                    "methodDecoded": true,
                    "operation": "STATICCALL",
                    "output": "0x000000000000000000000000000000000000000000000000000000000721dc79",
                    "revert": false,
                    "revertMessage": "",
                    "selector": "0xf8d6aed4",
                    "status": true,
                    "value": "0"
                },
                "nodeType": 0
            },
            "9": {
                "invocation": {
                    "address": "0xc02aaa39b223fe8d0a0e5c4f27ead9083c756cc2",
                    "callData": "0x0000000000000000000000003e66b66fd1d0b02fda6c811da9e0547970db2f210000000000000000000000008a649274e4d777ffc6851f13d23a86bbfa2f2fbf",
                    "decodedMethod": {
                        "callParams": [
                            {
                                "name": "",
                                "type": "address",
                                "value": "0x3e66b66fd1d0b02fda6c811da9e0547970db2f21"
                            },
                            {
                                "name": "",
                                "type": "address",
                                "value": "0x8a649274e4d777ffc6851f13d23a86bbfa2f2fbf"
                            }
                        ],
                        "constructorArguments": "",
                        "name": "allowance",
                        "returnParams": [
                            {
                                "decimalAvailable": true,
                                "name": "",
                                "type": "uint256",
                                "value": "0"
                            }
                        ],
                        "signature": "allowance(address,address)"
                    },
                    "errorInfo": "",
                    "fromAddress": "0x3e66b66fd1d0b02fda6c811da9e0547970db2f21",
                    "gasUsed": 1417,
                    "id": 9,
                    "methodDecoded": true,
                    "operation": "STATICCALL",
                    "output": "0x0000000000000000000000000000000000000000000000000000000000000000",
                    "revert": false,
                    "revertMessage": "",
                    "selector": "0xdd62ed3e",
                    "status": true,
                    "value": "0"
                },
                "nodeType": 0
            }
        },
        "gasFlame": [
            {
                "children": [
                    {
                        "children": [
                            {
                                "children": [],
                                "depth": 0,
                                "name": "Initial Gas",
                                "value": 27228
                            },
                            {
                                "children": [
                                    {
                                        "children": [],
                                        "depth": 1,
                                        "name": "deposit",
                                        "value": 22674
                                    },
                                    {
                                        "children": [],
                                        "depth": 1,
                                        "name": "getBalance",
                                        "value": 2991
                                    },
                                    {
                                        "children": [],
                                        "depth": 1,
                                        "name": "getDenormalizedWeight",
                                        "value": 2971
                                    },
                                    {
                                        "children": [],
                                        "depth": 1,
                                        "name": "getBalance",
                                        "value": 2991
                                    },
                                    {
                                        "children": [],
                                        "depth": 1,
                                        "name": "getDenormalizedWeight",
                                        "value": 2971
                                    },
                                    {
                                        "children": [],
                                        "depth": 1,
                                        "name": "getSwapFee",
                                        "value": 1976
                                    },
                                    {
                                        "children": [],
                                        "depth": 1,
                                        "name": "calcInGivenOut",
                                        "value": 6382
                                    },
                                    {
                                        "children": [],
                                        "depth": 1,
                                        "name": "allowance",
                                        "value": 1417
                                    },
                                    {
                                        "children": [],
                                        "depth": 1,
                                        "name": "approve",
                                        "value": 22320
                                    },
                                    {
                                        "children": [
                                            {
                                                "children": [],
                                                "depth": 2,
                                                "name": "transferFrom",
                                                "value": 11825
                                            },
                                            {
                                                "children": [
                                                    {
                                                        "children": [],
                                                        "depth": 3,
                                                        "name": "transfer",
                                                        "value": 32984
                                                    }
                                                ],
                                                "depth": 2,
                                                "name": "transfer",
                                                "value": 35773
                                            }
                                        ],
                                        "depth": 1,
                                        "name": "swapExactAmountOut",
                                        "value": 97969
                                    },
                                    {
                                        "children": [
                                            {
                                                "children": [],
                                                "depth": 2,
                                                "name": "allowance",
                                                "value": 1337
                                            }
                                        ],
                                        "depth": 1,
                                        "name": "allowance",
                                        "value": 4126
                                    },
                                    {
                                        "children": [
                                            {
                                                "children": [],
                                                "depth": 2,
                                                "name": "approve",
                                                "value": 25078
                                            }
                                        ],
                                        "depth": 1,
                                        "name": "approve",
                                        "value": 27867
                                    },
                                    {
                                        "children": [
                                            {
                                                "children": [
                                                    {
                                                        "children": [],
                                                        "depth": 3,
                                                        "name": "transferFrom",
                                                        "value": 17819
                                                    }
                                                ],
                                                "depth": 2,
                                                "name": "transferFrom",
                                                "value": 20614
                                            },
                                            {
                                                "children": [],
                                                "depth": 2,
                                                "name": "transfer",
                                                "value": 31625
                                            }
                                        ],
                                        "depth": 1,
                                        "name": "swapExactAmountOut",
                                        "value": 106507
                                    },
                                    {
                                        "children": [],
                                        "depth": 1,
                                        "name": "balanceOf",
                                        "value": 1367
                                    },
                                    {
                                        "children": [],
                                        "depth": 1,
                                        "name": "transfer",
                                        "value": 27425
                                    },
                                    {
                                        "children": [],
                                        "depth": 1,
                                        "name": "balanceOf",
                                        "value": 1234
                                    },
                                    {
                                        "children": [
                                            {
                                                "children": [],
                                                "depth": 2,
                                                "name": "fallback",
                                                "value": 40
                                            }
                                        ],
                                        "depth": 1,
                                        "name": "withdraw",
                                        "value": 11880
                                    },
                                    {
                                        "children": [],
                                        "depth": 1,
                                        "name": "fallback",
                                        "value": 0
                                    }
                                ],
                                "depth": 0,
                                "name": "Executed Gas",
                                "value": 403642
                            }
                        ],
                        "depth": -1,
                        "name": "Actual Gas Used",
                        "value": 364870
                    },
                    {
                        "children": [],
                        "depth": -1,
                        "name": "Refunded Gas",
                        "value": 66000
                    }
                ],
                "depth": -2,
                "name": "Total Gas",
                "value": 430870
            }
        ],
        "isConfirmed": true,
        "mainTrace": [
            {
                "children": [
                    {
                        "children": [
                            {
                                "children": [
                                    {
                                        "children": [],
                                        "depth": 2,
                                        "id": 2,
                                        "order": 2
                                    }
                                ],
                                "depth": 1,
                                "id": 1,
                                "order": 1
                            },
                            {
                                "children": [],
                                "depth": 1,
                                "id": 3,
                                "order": 3
                            },
                            {
                                "children": [],
                                "depth": 1,
                                "id": 4,
                                "order": 4
                            },
                            {
                                "children": [],
                                "depth": 1,
                                "id": 5,
                                "order": 5
                            },
                            {
                                "children": [],
                                "depth": 1,
                                "id": 6,
                                "order": 6
                            },
                            {
                                "children": [],
                                "depth": 1,
                                "id": 7,
                                "order": 7
                            },
                            {
                                "children": [],
                                "depth": 1,
                                "id": 8,
                                "order": 8
                            },
                            {
                                "children": [],
                                "depth": 1,
                                "id": 9,
                                "order": 9
                            },
                            {
                                "children": [
                                    {
                                        "children": [],
                                        "depth": 2,
                                        "id": 11,
                                        "order": 11
                                    }
                                ],
                                "depth": 1,
                                "id": 10,
                                "order": 10
                            },
                            {
                                "children": [
                                    {
                                        "children": [],
                                        "depth": 2,
                                        "id": 13,
                                        "order": 13
                                    },
                                    {
                                        "children": [],
                                        "depth": 2,
                                        "id": 14,
                                        "order": 14
                                    },
                                    {
                                        "children": [
                                            {
                                                "children": [],
                                                "depth": 3,
                                                "id": 16,
                                                "order": 16
                                            }
                                        ],
                                        "depth": 2,
                                        "id": 15,
                                        "order": 15
                                    },
                                    {
                                        "children": [
                                            {
                                                "children": [
                                                    {
                                                        "children": [],
                                                        "depth": 4,
                                                        "id": 19,
                                                        "order": 19
                                                    }
                                                ],
                                                "depth": 3,
                                                "id": 18,
                                                "order": 18
                                            }
                                        ],
                                        "depth": 2,
                                        "id": 17,
                                        "order": 17
                                    }
                                ],
                                "depth": 1,
                                "id": 12,
                                "order": 12
                            },
                            {
                                "children": [
                                    {
                                        "children": [],
                                        "depth": 2,
                                        "id": 21,
                                        "order": 21
                                    }
                                ],
                                "depth": 1,
                                "id": 20,
                                "order": 20
                            },
                            {
                                "children": [
                                    {
                                        "children": [
                                            {
                                                "children": [],
                                                "depth": 3,
                                                "id": 24,
                                                "order": 24
                                            }
                                        ],
                                        "depth": 2,
                                        "id": 23,
                                        "order": 23
                                    }
                                ],
                                "depth": 1,
                                "id": 22,
                                "order": 22
                            },
                            {
                                "children": [
                                    {
                                        "children": [],
                                        "depth": 2,
                                        "id": 26,
                                        "order": 26
                                    },
                                    {
                                        "children": [],
                                        "depth": 2,
                                        "id": 27,
                                        "order": 27
                                    },
                                    {
                                        "children": [
                                            {
                                                "children": [
                                                    {
                                                        "children": [],
                                                        "depth": 4,
                                                        "id": 30,
                                                        "order": 30
                                                    }
                                                ],
                                                "depth": 3,
                                                "id": 29,
                                                "order": 29
                                            }
                                        ],
                                        "depth": 2,
                                        "id": 28,
                                        "order": 28
                                    },
                                    {
                                        "children": [
                                            {
                                                "children": [],
                                                "depth": 3,
                                                "id": 32,
                                                "order": 32
                                            }
                                        ],
                                        "depth": 2,
                                        "id": 31,
                                        "order": 31
                                    }
                                ],
                                "depth": 1,
                                "id": 25,
                                "order": 25
                            },
                            {
                                "children": [],
                                "depth": 1,
                                "id": 33,
                                "order": 33
                            },
                            {
                                "children": [
                                    {
                                        "children": [],
                                        "depth": 2,
                                        "id": 35,
                                        "order": 35
                                    }
                                ],
                                "depth": 1,
                                "id": 34,
                                "order": 34
                            },
                            {
                                "children": [],
                                "depth": 1,
                                "id": 36,
                                "order": 36
                            },
                            {
                                "children": [
                                    {
                                        "children": [],
                                        "depth": 2,
                                        "id": 38,
                                        "order": 38
                                    },
                                    {
                                        "children": [],
                                        "depth": 2,
                                        "id": 39,
                                        "order": 39
                                    }
                                ],
                                "depth": 1,
                                "id": 37,
                                "order": 37
                            },
                            {
                                "children": [],
                                "depth": 1,
                                "id": 40,
                                "order": 40
                            }
                        ],
                        "depth": 0,
                        "id": 0,
                        "order": 0
                    }
                ],
                "depth": -1,
                "id": -1,
                "order": -1
            }
        ],
        "mainTraceNodeCount": 41,
        "parentIdMap": {
            "0": -1,
            "1": 0,
            "10": 0,
            "11": 10,
            "12": 0,
            "13": 12,
            "14": 12,
            "15": 12,
            "16": 15,
            "17": 12,
            "18": 17,
            "19": 18,
            "2": 1,
            "20": 0,
            "21": 20,
            "22": 0,
            "23": 22,
            "24": 23,
            "25": 0,
            "26": 25,
            "27": 25,
            "28": 25,
            "29": 28,
            "3": 0,
            "30": 29,
            "31": 25,
            "32": 31,
            "33": 0,
            "34": 0,
            "35": 34,
            "36": 0,
            "37": 0,
            "38": 37,
            "39": 37,
            "4": 0,
            "40": 0,
            "5": 0,
            "6": 0,
            "7": 0,
            "8": 0,
            "9": 0
        },
        "tidyTrace": [
            {
                "children": [
                    {
                        "children": [
                            {
                                "children": [
                                    {
                                        "children": [],
                                        "depth": 2,
                                        "id": 2,
                                        "order": 2
                                    }
                                ],
                                "depth": 1,
                                "id": 1,
                                "order": 1
                            },
                            {
                                "children": [
                                    {
                                        "children": [],
                                        "depth": 2,
                                        "id": 11,
                                        "order": 11
                                    }
                                ],
                                "depth": 1,
                                "id": 10,
                                "order": 10
                            },
                            {
                                "children": [
                                    {
                                        "children": [],
                                        "depth": 2,
                                        "id": 13,
                                        "order": 13
                                    },
                                    {
                                        "children": [],
                                        "depth": 2,
                                        "id": 14,
                                        "order": 14
                                    },
                                    {
                                        "children": [
                                            {
                                                "children": [],
                                                "depth": 3,
                                                "id": 16,
                                                "order": 16
                                            }
                                        ],
                                        "depth": 2,
                                        "id": 15,
                                        "order": 15
                                    },
                                    {
                                        "children": [
                                            {
                                                "children": [
                                                    {
                                                        "children": [],
                                                        "depth": 4,
                                                        "id": 19,
                                                        "order": 19
                                                    }
                                                ],
                                                "depth": 3,
                                                "id": 18,
                                                "order": 18
                                            }
                                        ],
                                        "depth": 2,
                                        "id": 17,
                                        "order": 17
                                    }
                                ],
                                "depth": 1,
                                "id": 12,
                                "order": 12
                            },
                            {
                                "children": [
                                    {
                                        "children": [
                                            {
                                                "children": [],
                                                "depth": 3,
                                                "id": 24,
                                                "order": 24
                                            }
                                        ],
                                        "depth": 2,
                                        "id": 23,
                                        "order": 23
                                    }
                                ],
                                "depth": 1,
                                "id": 22,
                                "order": 22
                            },
                            {
                                "children": [
                                    {
                                        "children": [],
                                        "depth": 2,
                                        "id": 26,
                                        "order": 26
                                    },
                                    {
                                        "children": [],
                                        "depth": 2,
                                        "id": 27,
                                        "order": 27
                                    },
                                    {
                                        "children": [
                                            {
                                                "children": [
                                                    {
                                                        "children": [],
                                                        "depth": 4,
                                                        "id": 30,
                                                        "order": 30
                                                    }
                                                ],
                                                "depth": 3,
                                                "id": 29,
                                                "order": 29
                                            }
                                        ],
                                        "depth": 2,
                                        "id": 28,
                                        "order": 28
                                    },
                                    {
                                        "children": [
                                            {
                                                "children": [],
                                                "depth": 3,
                                                "id": 32,
                                                "order": 32
                                            }
                                        ],
                                        "depth": 2,
                                        "id": 31,
                                        "order": 31
                                    }
                                ],
                                "depth": 1,
                                "id": 25,
                                "order": 25
                            },
                            {
                                "children": [
                                    {
                                        "children": [],
                                        "depth": 2,
                                        "id": 35,
                                        "order": 35
                                    }
                                ],
                                "depth": 1,
                                "id": 34,
                                "order": 34
                            },
                            {
                                "children": [
                                    {
                                        "children": [],
                                        "depth": 2,
                                        "id": 38,
                                        "order": 38
                                    },
                                    {
                                        "children": [],
                                        "depth": 2,
                                        "id": 39,
                                        "order": 39
                                    }
                                ],
                                "depth": 1,
                                "id": 37,
                                "order": 37
                            },
                            {
                                "children": [],
                                "depth": 1,
                                "id": 40,
                                "order": 40
                            }
                        ],
                        "depth": 0,
                        "id": 0,
                        "order": 0
                    }
                ],
                "depth": -1,
                "id": -1,
                "order": -1
            }
        ],
        "tidyTraceNodeCount": 30
    },
    "state_change": {
        "stateChanges": [
            {
                "address": "0x20945ca1df56d237fd40036d47e866c7dccd2114",
                "erc": "ERC-20",
                "slots": [
                    {
                        "current": "0x00000000000000000000000000000000000000000002074c607309b0b8cf4d40",
                        "key": "0x19ed8b7e5184e975147058dd3d3101c38970e0261da0b3252b37a5b44e41a5a9",
                        "prev": "0x00000000000000000000000000000000000000000002075ca3c92438e1ff4d40"
                    },
                    {
                        "current": "0x00000000000000000000000000000000000000000000001043561a8829300000",
                        "key": "0x5c26dceec73772cdd086e7b37ddd2e56b3a7bef7a2078eae124d1e5b87f585db",
                        "prev": "0x0000000000000000000000000000000000000000000000000000000000000000"
                    }
                ],
                "storageVariables": [
                    {
                        "name": "_balances",
                        "type": "mapping(address => uint256)",
                        "value": {
                            "pairs": [
                                {
                                    "key": "0x6a9fd3fbce86d1ba217288c1c9303649091b7729",
                                    "value": {
                                        "current": "300000000000000000000",
                                        "prev": "0",
                                        "typeTag": 1
                                    }
                                },
                                {
                                    "key": "0x9403d141047422fbf43724fcb985b1e96196c84f",
                                    "value": {
                                        "current": "2452317107068252374125888",
                                        "prev": "2452617107068252374125888",
                                        "typeTag": 1
                                    }
                                }
                            ],
                            "typeTag": 4
                        }
                    }
                ]
            },
            {
                "address": "0x8a649274e4d777ffc6851f13d23a86bbfa2f2fbf",
                "erc": "ERC-20",
                "slots": [
                    {
                        "current": "0x0000000000000000000000000000000000000000000006b23b235162c2d7b9de",
                        "key": "0xd0bcf4df132c65dad73803c5e5e1c826f151a3342680034a8a4c8e5f8eb0c13f",
                        "prev": "0x0000000000000000000000000000000000000000000006b236b4dc654ee1afda"
                    },
                    {
                        "current": "0x00000000000000000000000000000000000000000000000000000add3481932d",
                        "key": "0x49f94b4a8474e5f2d79309e607b8ef752c9cd6053f7950596c1f47950b798b5c",
                        "prev": "0x00000000000000000000000000000000000000000000000000000add3ba36fa6"
                    }
                ],
                "storageVariables": [
                    {
                        "name": "_records",
                        "type": "mapping(address => struct BPool.Record)",
                        "value": {
                            "pairs": [
                                {
                                    "key": "0xa0b86991c6218b36c1d19d4a2e9eb0ce3606eb48",
                                    "value": {
                                        "fields": [
                                            {
                                                "name": "balance",
                                                "type": "uint256",
                                                "value": {
                                                    "current": "11945184957229",
                                                    "prev": "11945304616870",
                                                    "typeTag": 1
                                                }
                                            }
                                        ],
                                        "typeTag": 3
                                    }
                                },
                                {
                                    "key": "0xc02aaa39b223fe8d0a0e5c4f27ead9083c756cc2",
                                    "value": {
                                        "fields": [
                                            {
                                                "name": "balance",
                                                "type": "uint256",
                                                "value": {
                                                    "current": "31621980681495211653598",
                                                    "prev": "31621661360239700717530",
                                                    "typeTag": 1
                                                }
                                            }
                                        ],
                                        "typeTag": 3
                                    }
                                }
                            ],
                            "typeTag": 4
                        }
                    }
                ]
            },
            {
                "address": "0x9403d141047422fbf43724fcb985b1e96196c84f",
                "erc": "ERC-20",
                "slots": [
                    {
                        "current": "0x0000000000000000000000000000000000000000000000000000010d7cca262c",
                        "key": "0x49f94b4a8474e5f2d79309e607b8ef752c9cd6053f7950596c1f47950b798b5c",
                        "prev": "0x0000000000000000000000000000000000000000000000000000010d75a849b3"
                    },
                    {
                        "current": "0x00000000000000000000000000000000000000000002074c607309b0b8cf4d40",
                        "key": "0x13764c08def7f7fc5d45ed2f9efe1f42dee78d76d2d8c8da894f1e5c71e16938",
                        "prev": "0x00000000000000000000000000000000000000000002075ca3c92438e1ff4d40"
                    }
                ],
                "storageVariables": [
                    {
                        "name": "_records",
                        "type": "mapping(address => struct BPool.Record)",
                        "value": {
                            "pairs": [
                                {
                                    "key": "0x20945ca1df56d237fd40036d47e866c7dccd2114",
                                    "value": {
                                        "fields": [
                                            {
                                                "name": "balance",
                                                "type": "uint256",
                                                "value": {
                                                    "current": "2452317107068252374125888",
                                                    "prev": "2452617107068252374125888",
                                                    "typeTag": 1
                                                }
                                            }
                                        ],
                                        "typeTag": 3
                                    }
                                },
                                {
                                    "key": "0xa0b86991c6218b36c1d19d4a2e9eb0ce3606eb48",
                                    "value": {
                                        "fields": [
                                            {
                                                "name": "balance",
                                                "type": "uint256",
                                                "value": {
                                                    "current": "1157439825452",
                                                    "prev": "1157320165811",
                                                    "typeTag": 1
                                                }
                                            }
                                        ],
                                        "typeTag": 3
                                    }
                                }
                            ],
                            "typeTag": 4
                        }
                    }
                ]
            },
            {
                "address": "0xa0b86991c6218b36c1d19d4a2e9eb0ce3606eb48",
                "erc": "ERC-20",
                "slots": [
                    {
                        "current": "0xfffffffffffffffffffffffffffffffffffffffffffffffffffffffff8de2386",
                        "key": "0xa90fd324d38f0074ac743ffd3fdc3b3aaae1c1679c225ebeb5a4cd99ba7a70f8",
                        "prev": "0x0000000000000000000000000000000000000000000000000000000000000000"
                    },
                    {
                        "current": "0x0000000000000000000000000000000000000000000000000000010d7cca262c",
                        "key": "0xdeb47a204a29d2f5358391a0c4fa31e4e2fd52e039fcdd3b22002f66ce5370d3",
                        "prev": "0x0000000000000000000000000000000000000000000000000000010d75a849b3"
                    },
                    {
                        "current": "0x00000000000000000000000000000000000000000000000000000add3481932d",
                        "key": "0x340ec039a4dd879800c23bc986e0d2e22156631ce65ec2ec0156c1545e39400a",
                        "prev": "0x00000000000000000000000000000000000000000000000000000add3ba36fa6"
                    }
                ],
                "storageVariables": [
                    {
                        "name": "allowed",
                        "type": "mapping(address => mapping(address => uint256))",
                        "value": {
                            "pairs": [
                                {
                                    "key": "0x3e66b66fd1d0b02fda6c811da9e0547970db2f21",
                                    "value": {
                                        "pairs": [
                                            {
                                                "key": "0x9403d141047422fbf43724fcb985b1e96196c84f",
                                                "value": {
                                                    "current": "115792089237316195423570985008687907853269984665640564039457584007913009980294",
                                                    "prev": "0",
                                                    "typeTag": 1
                                                }
                                            }
                                        ],
                                        "typeTag": 4
                                    }
                                }
                            ],
                            "typeTag": 4
                        }
                    },
                    {
                        "name": "balances",
                        "type": "mapping(address => uint256)",
                        "value": {
                            "pairs": [
                                {
                                    "key": "0x8a649274e4d777ffc6851f13d23a86bbfa2f2fbf",
                                    "value": {
                                        "current": "11945184957229",
                                        "prev": "11945304616870",
                                        "typeTag": 1
                                    }
                                },
                                {
                                    "key": "0x9403d141047422fbf43724fcb985b1e96196c84f",
                                    "value": {
                                        "current": "1157439825452",
                                        "prev": "1157320165811",
                                        "typeTag": 1
                                    }
                                }
                            ],
                            "typeTag": 4
                        }
                    }
                ]
            },
            {
                "address": "0xc02aaa39b223fe8d0a0e5c4f27ead9083c756cc2",
                "erc": "ERC-20",
                "slots": [
                    {
                        "current": "0x0000000000000000000000000000000000000000000006b23b235162c2d7b9de",
                        "key": "0xe9469786b1472b8ac7e41bd88043e18cc373094e6d3487b062f7b4e77b210ac0",
                        "prev": "0x0000000000000000000000000000000000000000000006b236b4dc654ee1afda"
                    },
                    {
                        "current": "0xffffffffffffffffffffffffffffffffffffffffffffffffffffffffffffffff",
                        "key": "0x3a4c43ab9ec33a4c9b400aefb612b3b4a6e1da1222f10b4ede96dd18c40f6a79",
                        "prev": "0x0000000000000000000000000000000000000000000000000000000000000000"
                    }
                ],
                "storageVariables": [
                    {
                        "name": "allowance",
                        "type": "mapping(address => mapping(address => uint256))",
                        "value": {
                            "pairs": [
                                {
                                    "key": "0x3e66b66fd1d0b02fda6c811da9e0547970db2f21",
                                    "value": {
                                        "pairs": [
                                            {
                                                "key": "0x8a649274e4d777ffc6851f13d23a86bbfa2f2fbf",
                                                "value": {
                                                    "current": "115792089237316195423570985008687907853269984665640564039457584007913129639935",
                                                    "prev": "0",
                                                    "typeTag": 1
                                                }
                                            }
                                        ],
                                        "typeTag": 4
                                    }
                                }
                            ],
                            "typeTag": 4
                        }
                    },
                    {
                        "name": "balanceOf",
                        "type": "mapping(address => uint256)",
                        "value": {
                            "pairs": [
                                {
                                    "key": "0x8a649274e4d777ffc6851f13d23a86bbfa2f2fbf",
                                    "value": {
                                        "current": "31621980681495211653598",
                                        "prev": "31621661360239700717530",
                                        "typeTag": 1
                                    }
                                }
                            ],
                            "typeTag": 4
                        }
                    }
                ]
            }
        ]
    }
}