{
    "balance_change": {
        "balanceChanges": [
            {
                "account": "0xa71c8bae673f99ac6c0f32c56efc89a8ddb9a501",
                "assets": [
                    {
                        "address": "0xd7cc16500d0b0ac3d0ba156a584865a43b0b0050",
                        "amount": "116.4",
                        "iconUrl": "",
                        "isERC1155": false,
                        "isERC721": false,
                        "sign": false,
                        "value": ""
                    }
                ]
            },
            {
                "account": "0x1574cf1cfed34983058268c02d5e08730a852645",
                "assets": [
                    {
                        "address": "0xd7cc16500d0b0ac3d0ba156a584865a43b0b0050",
                        "amount": "116.4",
                        "iconUrl": "",
                        "isERC1155": false,
                        "isERC721": false,
                        "sign": true,
                        "value": ""
                    }
                ]
            }
        ]
    },
    "profile": {
        "basic_info": {
            "baseFee": "",
            "blockNumber": 9922603,
            "callData": "0xa9059cbb0000000000000000000000001574cf1cfed34983058268c02d5e08730a85264500000000000000000000000000000000000000000000000000000002b5cc4e00",
            "debugEnable": true,
            "errorInfo": "",
            "eventCount": 1,
            "feeRecipient": "0x829bd824b016326a401d083b33d092293333a830",
            "formatValue": "0",
            "gasLimit": 80000,
            "gasPrice": "30",
            "gasUsed": 36919,
            "intTxnCount": 0,
            "internalRevert": false,
            "internalRevertMessage": "",
            "isContractCreation": false,
            "isFlashloan": false,
            "maxFee": "",
            "nonce": 794540,
            "overwritedBlockNumber": -1,
            "priorityFee": "",
            "receiver": "0xd7cc16500d0b0ac3d0ba156a584865a43b0b0050",
            "revertMessage": "",
            "sender": "0xa71c8bae673f99ac6c0f32c56efc89a8ddb9a501",
            "simulationEnable": true,
            "sourceTxnHash": "0x7183a9833a60b7936fbe30feedb8a516ee0d6c6bfb909cf34a75bc854261ec99",
            "status": true,
            "timestamp": "2020-04-22T13:49:05Z",
            "transactionFee": "0.00110757",
            "txnHash": "0x7183a9833a60b7936fbe30feedb8a516ee0d6c6bfb909cf34a75bc854261ec99",
            "txnIndex": 7,
            "type": 0,
            "value": "0"
        },
        "fund_flow": [
            {
                "amount": "116.4",
                "from": "0xa71c8bae673f99ac6c0f32c56efc89a8ddb9a501",
                "id": 1,
                "isERC1155": false,
                "isERC721": false,
                "isReverted": false,
                "order": 1,
                "to": "0x1574cf1cfed34983058268c02d5e08730a852645",
                "token": "0xd7cc16500d0b0ac3d0ba156a584865a43b0b0050"
            }
        ],
        "token_infos": [
            {
                "address": "0xc02aaa39b223fe8d0a0e5c4f27ead9083c756cc2",
                "decimals": 18
            },
            {
                "address": "0xd7cc16500d0b0ac3d0ba156a584865a43b0b0050",
                "decimals": 8
            },
            {
                "address": "0xeeeeeeeeeeeeeeeeeeeeeeeeeeeeeeeeeeeeeeee",
                "decimals": 18
            }
        ]
    },
    "address_label": {
        "labels": [
            {
                "address": "0x0000000000000000000000000000000000000003",
                "label": "Precompiled"
            },
            {
                "address": "0x0000000000000000000000000000000000000004",
                "label": "Precompiled"
            },
            {
                "address": "0xeeeeeeeeeeeeeeeeeeeeeeeeeeeeeeeeeeeeeeee",
                "label": "Ether"
            },
            {
                "address": "0xd7cc16500d0b0ac3d0ba156a584865a43b0b0050",
                "label": "Tepleton (TEP)"
            },
            {
                "address": "0x0000000000000000000000000000000000000001",
                "label": "Precompiled"
            },
            {
                "address": "0x0000000000000000000000000000000000000002",
                "label": "Precompiled"
            }
        ]
    },
    "trace": {
        "accountLabels": null,
        "dataMap": {
            "-1": {
                "invocation": {
                    "address": "0xa71c8bae673f99ac6c0f32c56efc89a8ddb9a501",
                    "callData": "",
                    "decodedMethod": null,
                    "errorInfo": "",
                    "fromAddress": "",
                    "gasUsed": 0,
                    "id": -1,
                    "methodDecoded": false,
                    "operation": "",
                    "output": "",
                    "revert": false,
                    "revertMessage": "",
                    "selector": "",
                    "status": false,
                    "value": ""
                },
                "nodeType": 0
            },
            "0": {
                "invocation": {
                    "address": "0xd7cc16500d0b0ac3d0ba156a584865a43b0b0050",
                    "callData": "0x0000000000000000000000001574cf1cfed34983058268c02d5e08730a85264500000000000000000000000000000000000000000000000000000002b5cc4e00",
                    "decodedMethod": {
                        "callParams": [
                            {
                                "name": "to",
                                "type": "address",
                                "value": "0x1574cf1cfed34983058268c02d5e08730a852645"
                            },
                            {
                                "decimalAvailable": true,
                                "name": "value",
                                "type": "uint256",
                                "value": "11,640,000,000"
                            }
                        ],
                        "constructorArguments": "",
                        "name": "transfer",
                        "returnParams": [
                            {
                                "name": "",
                                "type": "bool",
                                "value": true
                            }
                        ],
                        "signature": "transfer(address,uint256)"
                    },
                    "errorInfo": "",
                    "fromAddress": "0xa71c8bae673f99ac6c0f32c56efc89a8ddb9a501",
                    "gasUsed": 36919,
                    "id": 0,
                    "methodDecoded": true,
                    "operation": "CALL",
                    "output": "0x0000000000000000000000000000000000000000000000000000000000000001",
                    "revert": false,
                    "revertMessage": "",
                    "selector": "0xa9059cbb",
                    "status": true,
                    "value": "0"
                },
                "nodeType": 0
            },
            "1": {
                "event": {
                    "contract": "0xd7cc16500d0b0ac3d0ba156a584865a43b0b0050",
                    "decodedLog": {
                        "name": "Transfer",
                        "params": [
                            {
                                "name": "from",
                                "type": "address",
                                "value": "0xa71c8bae673f99ac6c0f32c56efc89a8ddb9a501"
                            },
                            {
                                "name": "to",
                                "type": "address",
                                "value": "0x1574cf1cfed34983058268c02d5e08730a852645"
                            },
                            {
                                "decimalAvailable": true,
                                "name": "value",
                                "type": "uint256",
                                "value": "11,640,000,000"
                            }
                        ],
                        "signature": "Transfer(address,address,uint256)"
                    },
                    "id": 1,
                    "logData": "0x00000000000000000000000000000000000000000000000000000002b5cc4e00",
                    "logDecoded": true,
                    "operation": "EVENT",
                    "revert": false,
                    "status": true,
                    "topics": [
                        "0xddf252ad1be2c89b69c2b068fc378daa952ba7f163c4a11628f55a4df523b3ef",
                        "0x000000000000000000000000a71c8bae673f99ac6c0f32c56efc89a8ddb9a501",
                        "0x0000000000000000000000001574cf1cfed34983058268c02d5e08730a852645"
                    ]
                },
                "nodeType": 1
            }
        },
        "gasFlame": [
            {
                "children": [
                    {
                        "children": [
                            {
                                "children": [],
                                "depth": 0,
                                "name": "Initial Gas",
                                "value": 21608
                            },
                            {
                                "children": [],
                                "depth": 0,
                                "name": "Executed Gas",
                                "value": 15311
                            }
                        ],
                        "depth": -1,
                        "name": "Actual Gas Used",
                        "value": 36919
                    },
                    {
                        "children": [],
                        "depth": -1,
                        "name": "Refunded Gas",
                        "value": 0
                    }
                ],
                "depth": -2,
                "name": "Total Gas",
                "value": 36919
            }
        ],
        "isConfirmed": true,
        "mainTrace": [
            {
                "children": [
                    {
                        "children": [
                            {
                                "children": [],
                                "depth": 1,
                                "id": 1,
                                "order": 1
                            }
                        ],
                        "depth": 0,
                        "id": 0,
                        "order": 0
                    }
                ],
                "depth": -1,
                "id": -1,
                "order": -1
            }
        ],
        "mainTraceNodeCount": 2,
        "parentIdMap": {
            "0": -1,
            "1": 0
        },
        "tidyTrace": [
            {
                "children": [
                    {
                        "children": [
                            {
                                "children": [],
                                "depth": 1,
                                "id": 1,
                                "order": 1
                            }
                        ],
                        "depth": 0,
                        "id": 0,
                        "order": 0
                    }
                ],
                "depth": -1,
                "id": -1,
                "order": -1
            }
        ],
        "tidyTraceNodeCount": 2
    },
    "state_change": {
        "stateChanges": [
            {
                "address": "0xd7cc16500d0b0ac3d0ba156a584865a43b0b0050",
                "erc": "ERC-20",
                "slots": [
                    {
                        "current": "0x0000000000000000000000000000000000000000000000000000e97b42295e67",
                        "key": "0x033a6c23fd2f4bb4d599b607b7251cbafdeb6cd9e0859c7d7bd3d55c69a715cc",
                        "prev": "0x0000000000000000000000000000000000000000000000000000e97df7f5ac67"
                    },
                    {
                        "current": "0x00000000000000000000000000000000000000000000000000000003557a99c0",
                        "key": "0x940b2a4012dde81595d661502191e12a4ca6139d80f0792ff27c41bac497d0b8",
                        "prev": "0x000000000000000000000000000000000000000000000000000000009fae4bc0"
                    }
                ],
                "storageVariables": [
                    {
                        "name": "_balances",
                        "type": "mapping(address => uint256)",
                        "value": {
                            "pairs": [
                                {
                                    "key": "0x1574cf1cfed34983058268c02d5e08730a852645",
                                    "value": {
                                        "current": "14319000000",
                                        "prev": "2679000000",
                                        "typeTag": 1
                                    }
                                },
                                {
                                    "key": "0xa71c8bae673f99ac6c0f32c56efc89a8ddb9a501",
                                    "value": {
                                        "current": "256715600256615",
                                        "prev": "256727240256615",
                                        "typeTag": 1
                                    }
                                }
                            ],
                            "typeTag": 4
                        }
                    }
                ]
            }
        ]
    }
}