{
    "balance_change": {
        "balanceChanges": [
            {
                "account": "0xc6a3800779be69635792871d6a6b205c0a289630",
                "assets": [
                    {
                        "address": "0xeeeeeeeeeeeeeeeeeeeeeeeeeeeeeeeeeeeeeeee",
                        "amount": "0.05",
                        "iconUrl": "https://assets.blocksec.com/image/1663669189317-3.png",
                        "isERC1155": false,
                        "isERC721": false,
                        "sign": false,
                        "value": "90.849500000000000456"
                    },
                    {
                        "address": "0x386fe6bf31ddbfb5896efaa295d308f6ed633bd8",
                        "amount": "2,695,303.971503935986565861",
                        "iconUrl": "",
                        "isERC1155": false,
                        "isERC721": false,
                        "sign": true,
                        "value": "82.76433876"
                    }
                ]
            },
            {
                "account": "0x000000000000000000000000000000000000dead",
                "assets": [
                    {
                        "address": "0x386fe6bf31ddbfb5896efaa295d308f6ed633bd8",
                        "amount": "27,786.638881483876150163",
                        "iconUrl": "",
                        "isERC1155": false,
                        "isERC721": false,
                        "sign": true,
                        "value": "0.86300027"
                    }
                ]
            },
            {
                "account": "0x386fe6bf31ddbfb5896efaa295d308f6ed633bd8",
                "assets": [
                    {
                        "address": "0x386fe6bf31ddbfb5896efaa295d308f6ed633bd8",
                        "amount": "55,573.277762967752300327",
                        "iconUrl": "",
                        "isERC1155": false,
                        "isERC721": false,
                        "sign": true,
                        "value": "1.72660624"
                    }
                ]
            },
            {
                "account": "0x3ef7ffa246206caa95629a1c85917fadcbab6a22",
                "assets": [
                    {
                        "address": "0xc02aaa39b223fe8d0a0e5c4f27ead9083c756cc2",
                        "amount": "0.0495",
                        "iconUrl": "https://assets.blocksec.com/icon/f1cb2d02c471d545bbc7722daf3277fd852d98e63d118771af7047bd8256c516.png",
                        "isERC1155": false,
                        "isERC721": false,
                        "sign": true,
                        "value": "89.94100500000000045"
                    },
                    {
                        "address": "0x386fe6bf31ddbfb5896efaa295d308f6ed633bd8",
                        "amount": "2,778,663.888148387615016351",
                        "iconUrl": "",
                        "isERC1155": false,
                        "isERC721": false,
                        "sign": false,
                        "value": "87.37355149"
                    }
                ]
            },
            {
                "account": "0xc02aaa39b223fe8d0a0e5c4f27ead9083c756cc2",
                "assets": [
                    {
                        "address": "0xeeeeeeeeeeeeeeeeeeeeeeeeeeeeeeeeeeeeeeee",
                        "amount": "0.0495",
                        "iconUrl": "https://assets.blocksec.com/image/1663669189317-3.png",
                        "isERC1155": false,
                        "isERC721": false,
                        "sign": true,
                        "value": "89.94100500000000045"
                    },
                    {
                        "address": "0xc02aaa39b223fe8d0a0e5c4f27ead9083c756cc2",
                        "amount": "0.0495",
                        "iconUrl": "https://assets.blocksec.com/icon/f1cb2d02c471d545bbc7722daf3277fd852d98e63d118771af7047bd8256c516.png",
                        "isERC1155": false,
                        "isERC721": false,
                        "sign": false,
                        "value": "89.94100500000000045"
                    }
                ]
            },
            {
                "account": "0xda43c1079430f1379721a2ff96528ed71d61d52a",
                "assets": [
                    {
                        "address": "0xeeeeeeeeeeeeeeeeeeeeeeeeeeeeeeeeeeeeeeee",
                        "amount": "0.0005",
                        "iconUrl": "https://assets.blocksec.com/image/1663669189317-3.png",
                        "isERC1155": false,
                        "isERC721": false,
                        "sign": true,
                        "value": "0.90849500000000000453"
                    }
                ]
            }
        ]
    },
    "profile": {
        "basic_info": {
            "baseFee": "17.586978777",
            "blockNumber": 16893817,
            "callData": "0x7ff36ab5000000000000000000000000000000000000000000019f201c1af391aae12a4b0000000000000000000000000000000000000000000000000000000000000080000000000000000000000000c6a3800779be69635792871d6a6b205c0a28963000000000000000000000000000000000000000000000000000000000641cf6930000000000000000000000000000000000000000000000000000000000000002000000000000000000000000c02aaa39b223fe8d0a0e5c4f27ead9083c756cc2000000000000000000000000386fe6bf31ddbfb5896efaa295d308f6ed633bd8",
            "debugEnable": true,
            "errorInfo": "",
            "eventCount": 7,
            "feeRecipient": "0x690b9a9e9aa1c9db991c7721a92d351db4fac990",
            "formatValue": "0.05",
            "gasLimit": 276700,
            "gasPrice": "24",
            "gasUsed": 198400,
            "intTxnCount": 8,
            "internalRevert": false,
            "internalRevertMessage": "",
            "isContractCreation": false,
            "isFlashloan": false,
            "maxFee": "",
            "nonce": 1882,
            "overwritedBlockNumber": -1,
            "priorityFee": "",
            "receiver": "0x11a2e73bada26f184e3d508186085c72217dc014",
            "revertMessage": "",
            "sender": "0xc6a3800779be69635792871d6a6b205c0a289630",
            "simulationEnable": true,
            "sourceTxnHash": "0x713cad921e43faf0f37e7ac46dbad132e72a07d0952537bf8ac73f1b808013ee",
            "status": true,
            "timestamp": "2023-03-24T00:32:35Z",
            "transactionFee": "0.0047616",
            "txnHash": "0x713cad921e43faf0f37e7ac46dbad132e72a07d0952537bf8ac73f1b808013ee",
            "txnIndex": 10,
            "type": 0,
            "value": "50000000000000000"
        },
        "fund_flow": [
            {
                "amount": "0.05",
                "from": "0xc6a3800779be69635792871d6a6b205c0a289630",
                "id": 1,
                "isERC1155": false,
                "isERC721": false,
                "isReverted": false,
                "order": 1,
                "to": "0x11a2e73bada26f184e3d508186085c72217dc014",
                "token": "0xeeeeeeeeeeeeeeeeeeeeeeeeeeeeeeeeeeeeeeee"
            },
            {
                "amount": "0.0495",
                "from": "0x11a2e73bada26f184e3d508186085c72217dc014",
                "id": 2,
                "isERC1155": false,
                "isERC721": false,
                "isReverted": false,
                "order": 2,
                "to": "0xc02aaa39b223fe8d0a0e5c4f27ead9083c756cc2",
                "token": "0xeeeeeeeeeeeeeeeeeeeeeeeeeeeeeeeeeeeeeeee"
            },
            {
                "amount": "0.0495",
                "from": "0xc02aaa39b223fe8d0a0e5c4f27ead9083c756cc2",
                "id": 3,
                "isERC1155": false,
                "isERC721": false,
                "isReverted": false,
                "order": 3,
                "to": "0x11a2e73bada26f184e3d508186085c72217dc014",
                "token": "0xc02aaa39b223fe8d0a0e5c4f27ead9083c756cc2"
            },
            {
                "amount": "0.0495",
                "from": "0x11a2e73bada26f184e3d508186085c72217dc014",
                "id": 4,
                "isERC1155": false,
                "isERC721": false,
                "isReverted": false,
                "order": 4,
                "to": "0x3ef7ffa246206caa95629a1c85917fadcbab6a22",
                "token": "0xc02aaa39b223fe8d0a0e5c4f27ead9083c756cc2"
            },
            {
                "amount": "55,573.277762967752300327",
                "from": "0x3ef7ffa246206caa95629a1c85917fadcbab6a22",
                "id": 5,
                "isERC1155": false,
                "isERC721": false,
                "isReverted": false,
                "order": 5,
                "to": "0x386fe6bf31ddbfb5896efaa295d308f6ed633bd8",
                "token": "0x386fe6bf31ddbfb5896efaa295d308f6ed633bd8"
            },
            {
                "amount": "27,786.638881483876150163",
                "from": "0x3ef7ffa246206caa95629a1c85917fadcbab6a22",
                "id": 6,
                "isERC1155": false,
                "isERC721": false,
                "isReverted": false,
                "order": 6,
                "to": "0x000000000000000000000000000000000000dead",
                "token": "0x386fe6bf31ddbfb5896efaa295d308f6ed633bd8"
            },
            {
                "amount": "2,695,303.971503935986565861",
                "from": "0x3ef7ffa246206caa95629a1c85917fadcbab6a22",
                "id": 7,
                "isERC1155": false,
                "isERC721": false,
                "isReverted": false,
                "order": 7,
                "to": "0xc6a3800779be69635792871d6a6b205c0a289630",
                "token": "0x386fe6bf31ddbfb5896efaa295d308f6ed633bd8"
            },
            {
                "amount": "0.0005",
                "from": "0x11a2e73bada26f184e3d508186085c72217dc014",
                "id": 8,
                "isERC1155": false,
                "isERC721": false,
                "isReverted": false,
                "order": 8,
                "to": "0xda43c1079430f1379721a2ff96528ed71d61d52a",
                "token": "0xeeeeeeeeeeeeeeeeeeeeeeeeeeeeeeeeeeeeeeee"
            }
        ],
        "token_infos": [
            {
                "address": "0x386fe6bf31ddbfb5896efaa295d308f6ed633bd8",
                "decimals": 18
            },
            {
                "address": "0xc02aaa39b223fe8d0a0e5c4f27ead9083c756cc2",
                "decimals": 18
            },
            {
                "address": "0xeeeeeeeeeeeeeeeeeeeeeeeeeeeeeeeeeeeeeeee",
                "decimals": 18
            }
        ]
    },
    "address_label": {
        "labels": [
            {
                "address": "0xc02aaa39b223fe8d0a0e5c4f27ead9083c756cc2",
                "label": "Wrapped Ether (WETH)"
            },
            {
                "address": "0x386fe6bf31ddbfb5896efaa295d308f6ed633bd8",
                "label": "ZK BURN (ZKBURN)"
            },
            {
                "address": "0x3ef7ffa246206caa95629a1c85917fadcbab6a22",
                "label": "Uniswap V2: ZKBURN"
            },
            {
                "address": "0x0000000000000000000000000000000000000001",
                "label": "Precompiled"
            },
            {
                "address": "0x0000000000000000000000000000000000000002",
                "label": "Precompiled"
            },
            {
                "address": "0x0000000000000000000000000000000000000003",
                "label": "Precompiled"
            },
            {
                "address": "0x0000000000000000000000000000000000000004",
                "label": "Precompiled"
            },
            {
                "address": "0xeeeeeeeeeeeeeeeeeeeeeeeeeeeeeeeeeeeeeeee",
                "label": "Ether"
            }
        ]
    },
    "trace": {
        "accountLabels": null,
        "dataMap": {
            "-1": {
                "invocation": {
                    "address": "0xc6a3800779be69635792871d6a6b205c0a289630",
                    "callData": "",
                    "decodedMethod": null,
                    "errorInfo": "",
                    "fromAddress": "",
                    "gasUsed": 0,
                    "id": -1,
                    "methodDecoded": false,
                    "operation": "",
                    "output": "",
                    "revert": false,
                    "revertMessage": "",
                    "selector": "",
                    "status": false,
                    "value": ""
                },
                "nodeType": 0
            },
            "0": {
                "invocation": {
                    "address": "0x11a2e73bada26f184e3d508186085c72217dc014",
                    "callData": "0x000000000000000000000000000000000000000000019f201c1af391aae12a4b0000000000000000000000000000000000000000000000000000000000000080000000000000000000000000c6a3800779be69635792871d6a6b205c0a28963000000000000000000000000000000000000000000000000000000000641cf6930000000000000000000000000000000000000000000000000000000000000002000000000000000000000000c02aaa39b223fe8d0a0e5c4f27ead9083c756cc2000000000000000000000000386fe6bf31ddbfb5896efaa295d308f6ed633bd8",
                    "decodedMethod": {
                        "callParams": [
                            {
                                "name": "amountOutMin",
                                "type": "uint256",
                                "value": "1,960,374,411,400,050,888,485,451"
                            },
                            {
                                "name": "path",
                                "type": "address[]",
                                "value": [
                                    "0xc02aaa39b223fe8d0a0e5c4f27ead9083c756cc2",
                                    "0x386fe6bf31ddbfb5896efaa295d308f6ed633bd8"
                                ]
                            },
                            {
                                "name": "to",
                                "type": "address",
                                "value": "0xc6a3800779be69635792871d6a6b205c0a289630"
                            },
                            {
                                "name": "deadline",
                                "type": "uint256",
                                "value": "1,679,619,731"
                            }
                        ],
                        "constructorArguments": "",
                        "name": "swapExactETHForTokens",
                        "returnParams": [
                            {
                                "name": "amounts",
                                "type": "uint256[]",
                                "value": [
                                    "49,500,000,000,000,000",
                                    "2,778,663,888,148,387,615,016,351"
                                ]
                            }
                        ],
                        "signature": "swapExactETHForTokens(uint256,address[],address,uint256)"
                    },
                    "errorInfo": "",
                    "fromAddress": "0xc6a3800779be69635792871d6a6b205c0a289630",
                    "gasUsed": 198400,
                    "id": 0,
                    "methodDecoded": true,
                    "operation": "CALL",
                    "output": "0x0000000000000000000000000000000000000000000000000000000000000020000000000000000000000000000000000000000000000000000000000000000200000000000000000000000000000000000000000000000000afdbfcdc61c000000000000000000000000000000000000000000000024c67abd436b917dd059f",
                    "revert": false,
                    "revertMessage": "",
                    "selector": "0x7ff36ab5",
                    "status": true,
                    "value": "0.05"
                },
                "nodeType": 0
            },
            "1": {
                "invocation": {
                    "address": "0x3ef7ffa246206caa95629a1c85917fadcbab6a22",
                    "callData": "0x",
                    "decodedMethod": {
                        "callParams": [],
                        "constructorArguments": "",
                        "name": "getReserves",
                        "returnParams": [
                            {
                                "name": "_reserve0",
                                "type": "uint112",
                                "value": "234,525,510,998,330,962,893,469,614"
                            },
                            {
                                "name": "_reserve1",
                                "type": "uint112",
                                "value": "4,116,026,617,663,160,846"
                            },
                            {
                                "name": "_blockTimestampLast",
                                "type": "uint32",
                                "value": "1,679,617,943"
                            }
                        ],
                        "signature": "getReserves()"
                    },
                    "errorInfo": "",
                    "fromAddress": "0x11a2e73bada26f184e3d508186085c72217dc014",
                    "gasUsed": 2504,
                    "id": 1,
                    "methodDecoded": true,
                    "operation": "STATICCALL",
                    "output": "0x000000000000000000000000000000000000000000c1feb56d27729edce1f7ae000000000000000000000000000000000000000000000000391f1066afdd820e00000000000000000000000000000000000000000000000000000000641cef97",
                    "revert": false,
                    "revertMessage": "",
                    "selector": "0x0902f1ac",
                    "status": true,
                    "value": "0"
                },
                "nodeType": 0
            },
            "10": {
                "event": {
                    "contract": "0x386fe6bf31ddbfb5896efaa295d308f6ed633bd8",
                    "decodedLog": {
                        "name": "Transfer",
                        "params": [
                            {
                                "name": "from",
                                "type": "address",
                                "value": "0x3ef7ffa246206caa95629a1c85917fadcbab6a22"
                            },
                            {
                                "name": "to",
                                "type": "address",
                                "value": "0xc6a3800779be69635792871d6a6b205c0a289630"
                            },
                            {
                                "decimalAvailable": true,
                                "name": "value",
                                "type": "uint256",
                                "value": "2,695,303,971,503,935,986,565,861"
                            }
                        ],
                        "signature": "Transfer(address,address,uint256)"
                    },
                    "id": 10,
                    "logData": "0x000000000000000000000000000000000000000000023ac0b898165c801b82e5",
                    "logDecoded": true,
                    "operation": "EVENT",
                    "revert": false,
                    "status": true,
                    "topics": [
                        "0xddf252ad1be2c89b69c2b068fc378daa952ba7f163c4a11628f55a4df523b3ef",
                        "0x0000000000000000000000003ef7ffa246206caa95629a1c85917fadcbab6a22",
                        "0x000000000000000000000000c6a3800779be69635792871d6a6b205c0a289630"
                    ]
                },
                "nodeType": 1
            },
            "11": {
                "invocation": {
                    "address": "0x386fe6bf31ddbfb5896efaa295d308f6ed633bd8",
                    "callData": "0x0000000000000000000000003ef7ffa246206caa95629a1c85917fadcbab6a22",
                    "decodedMethod": {
                        "callParams": [
                            {
                                "name": "account",
                                "type": "address",
                                "value": "0x3ef7ffa246206caa95629a1c85917fadcbab6a22"
                            }
                        ],
                        "constructorArguments": "",
                        "name": "balanceOf",
                        "returnParams": [
                            {
                                "decimalAvailable": true,
                                "name": "",
                                "type": "uint256",
                                "value": "231,746,847,110,182,575,278,453,263"
                            }
                        ],
                        "signature": "balanceOf(address)"
                    },
                    "errorInfo": "",
                    "fromAddress": "0x3ef7ffa246206caa95629a1c85917fadcbab6a22",
                    "gasUsed": 975,
                    "id": 11,
                    "methodDecoded": true,
                    "operation": "STATICCALL",
                    "output": "0x000000000000000000000000000000000000000000bfb24dc1533be5c504f20f",
                    "revert": false,
                    "revertMessage": "",
                    "selector": "0x70a08231",
                    "status": true,
                    "value": "0"
                },
                "nodeType": 0
            },
            "12": {
                "invocation": {
                    "address": "0xc02aaa39b223fe8d0a0e5c4f27ead9083c756cc2",
                    "callData": "0x0000000000000000000000003ef7ffa246206caa95629a1c85917fadcbab6a22",
                    "decodedMethod": {
                        "callParams": [
                            {
                                "name": "",
                                "type": "address",
                                "value": "0x3ef7ffa246206caa95629a1c85917fadcbab6a22"
                            }
                        ],
                        "constructorArguments": "",
                        "name": "balanceOf",
                        "returnParams": [
                            {
                                "decimalAvailable": true,
                                "name": "",
                                "type": "uint256",
                                "value": "4,165,526,617,663,160,846"
                            }
                        ],
                        "signature": "balanceOf(address)"
                    },
                    "errorInfo": "",
                    "fromAddress": "0x3ef7ffa246206caa95629a1c85917fadcbab6a22",
                    "gasUsed": 534,
                    "id": 12,
                    "methodDecoded": true,
                    "operation": "STATICCALL",
                    "output": "0x00000000000000000000000000000000000000000000000039ceec638c3f420e",
                    "revert": false,
                    "revertMessage": "",
                    "selector": "0x70a08231",
                    "status": true,
                    "value": "0"
                },
                "nodeType": 0
            },
            "13": {
                "event": {
                    "contract": "0x3ef7ffa246206caa95629a1c85917fadcbab6a22",
                    "decodedLog": {
                        "name": "Sync",
                        "params": [
                            {
                                "name": "reserve0",
                                "type": "uint112",
                                "value": "231,746,847,110,182,575,278,453,263"
                            },
                            {
                                "name": "reserve1",
                                "type": "uint112",
                                "value": "4,165,526,617,663,160,846"
                            }
                        ],
                        "signature": "Sync(uint112,uint112)"
                    },
                    "id": 13,
                    "logData": "0x000000000000000000000000000000000000000000bfb24dc1533be5c504f20f00000000000000000000000000000000000000000000000039ceec638c3f420e",
                    "logDecoded": true,
                    "operation": "EVENT",
                    "revert": false,
                    "status": true,
                    "topics": [
                        "0x1c411e9a96e071241c2f21f7726b17ae89e3cab4c78be50e062b03a9fffbbad1"
                    ]
                },
                "nodeType": 1
            },
            "14": {
                "event": {
                    "contract": "0x3ef7ffa246206caa95629a1c85917fadcbab6a22",
                    "decodedLog": {
                        "name": "Swap",
                        "params": [
                            {
                                "name": "sender",
                                "type": "address",
                                "value": "0x11a2e73bada26f184e3d508186085c72217dc014"
                            },
                            {
                                "name": "to",
                                "type": "address",
                                "value": "0xc6a3800779be69635792871d6a6b205c0a289630"
                            },
                            {
                                "name": "amount0In",
                                "type": "uint256",
                                "value": "0"
                            },
                            {
                                "name": "amount1In",
                                "type": "uint256",
                                "value": "49,500,000,000,000,000"
                            },
                            {
                                "name": "amount0Out",
                                "type": "uint256",
                                "value": "2,778,663,888,148,387,615,016,351"
                            },
                            {
                                "name": "amount1Out",
                                "type": "uint256",
                                "value": "0"
                            }
                        ],
                        "signature": "Swap(address,uint256,uint256,uint256,uint256,address)"
                    },
                    "id": 14,
                    "logData": "0x000000000000000000000000000000000000000000000000000000000000000000000000000000000000000000000000000000000000000000afdbfcdc61c000000000000000000000000000000000000000000000024c67abd436b917dd059f0000000000000000000000000000000000000000000000000000000000000000",
                    "logDecoded": true,
                    "operation": "EVENT",
                    "revert": false,
                    "status": true,
                    "topics": [
                        "0xd78ad95fa46c994b6551d0da85fc275fe613ce37657fb8d5e3d130840159d822",
                        "0x00000000000000000000000011a2e73bada26f184e3d508186085c72217dc014",
                        "0x000000000000000000000000c6a3800779be69635792871d6a6b205c0a289630"
                    ]
                },
                "nodeType": 1
            },
            "15": {
                "invocation": {
                    "address": "0xda43c1079430f1379721a2ff96528ed71d61d52a",
                    "callData": "0x",
                    "decodedMethod": null,
                    "errorInfo": "",
                    "fromAddress": "0x11a2e73bada26f184e3d508186085c72217dc014",
                    "gasUsed": 0,
                    "id": 15,
                    "methodDecoded": false,
                    "operation": "CALL",
                    "output": "",
                    "revert": false,
                    "revertMessage": "",
                    "selector": "fallback",
                    "status": true,
                    "value": "0.0005"
                },
                "nodeType": 0
            },
            "2": {
                "invocation": {
                    "address": "0xc02aaa39b223fe8d0a0e5c4f27ead9083c756cc2",
                    "callData": "0x",
                    "decodedMethod": {
                        "callParams": [],
                        "constructorArguments": "",
                        "name": "deposit",
                        "returnParams": [],
                        "signature": "deposit()"
                    },
                    "errorInfo": "",
                    "fromAddress": "0x11a2e73bada26f184e3d508186085c72217dc014",
                    "gasUsed": 23974,
                    "id": 2,
                    "methodDecoded": true,
                    "operation": "CALL",
                    "output": "",
                    "revert": false,
                    "revertMessage": "",
                    "selector": "0xd0e30db0",
                    "status": true,
                    "value": "0.0495"
                },
                "nodeType": 0
            },
            "3": {
                "event": {
                    "contract": "0xc02aaa39b223fe8d0a0e5c4f27ead9083c756cc2",
                    "decodedLog": {
                        "name": "Deposit",
                        "params": [
                            {
                                "name": "dst",
                                "type": "address",
                                "value": "0x11a2e73bada26f184e3d508186085c72217dc014"
                            },
                            {
                                "name": "wad",
                                "type": "uint256",
                                "value": "49,500,000,000,000,000"
                            }
                        ],
                        "signature": "Deposit(address,uint256)"
                    },
                    "id": 3,
                    "logData": "0x00000000000000000000000000000000000000000000000000afdbfcdc61c000",
                    "logDecoded": true,
                    "operation": "EVENT",
                    "revert": false,
                    "status": true,
                    "topics": [
                        "0xe1fffcc4923d04b559f4d29a8bfc6cda04eb5b0d3c460751c2402c5c5cc9109c",
                        "0x00000000000000000000000011a2e73bada26f184e3d508186085c72217dc014"
                    ]
                },
                "nodeType": 1
            },
            "4": {
                "invocation": {
                    "address": "0xc02aaa39b223fe8d0a0e5c4f27ead9083c756cc2",
                    "callData": "0x0000000000000000000000003ef7ffa246206caa95629a1c85917fadcbab6a2200000000000000000000000000000000000000000000000000afdbfcdc61c000",
                    "decodedMethod": {
                        "callParams": [
                            {
                                "name": "dst",
                                "type": "address",
                                "value": "0x3ef7ffa246206caa95629a1c85917fadcbab6a22"
                            },
                            {
                                "decimalAvailable": true,
                                "name": "wad",
                                "type": "uint256",
                                "value": "49,500,000,000,000,000"
                            }
                        ],
                        "constructorArguments": "",
                        "name": "transfer",
                        "returnParams": [
                            {
                                "name": "",
                                "type": "bool",
                                "value": true
                            }
                        ],
                        "signature": "transfer(address,uint256)"
                    },
                    "errorInfo": "",
                    "fromAddress": "0x11a2e73bada26f184e3d508186085c72217dc014",
                    "gasUsed": 8062,
                    "id": 4,
                    "methodDecoded": true,
                    "operation": "CALL",
                    "output": "0x0000000000000000000000000000000000000000000000000000000000000001",
                    "revert": false,
                    "revertMessage": "",
                    "selector": "0xa9059cbb",
                    "status": true,
                    "value": "0"
                },
                "nodeType": 0
            },
            "5": {
                "event": {
                    "contract": "0xc02aaa39b223fe8d0a0e5c4f27ead9083c756cc2",
                    "decodedLog": {
                        "name": "Transfer",
                        "params": [
                            {
                                "name": "src",
                                "type": "address",
                                "value": "0x11a2e73bada26f184e3d508186085c72217dc014"
                            },
                            {
                                "name": "dst",
                                "type": "address",
                                "value": "0x3ef7ffa246206caa95629a1c85917fadcbab6a22"
                            },
                            {
                                "decimalAvailable": true,
                                "name": "wad",
                                "type": "uint256",
                                "value": "49,500,000,000,000,000"
                            }
                        ],
                        "signature": "Transfer(address,address,uint256)"
                    },
                    "id": 5,
                    "logData": "0x00000000000000000000000000000000000000000000000000afdbfcdc61c000",
                    "logDecoded": true,
                    "operation": "EVENT",
                    "revert": false,
                    "status": true,
                    "topics": [
                        "0xddf252ad1be2c89b69c2b068fc378daa952ba7f163c4a11628f55a4df523b3ef",
                        "0x00000000000000000000000011a2e73bada26f184e3d508186085c72217dc014",
                        "0x0000000000000000000000003ef7ffa246206caa95629a1c85917fadcbab6a22"
                    ]
                },
                "nodeType": 1
            },
            "6": {
                "invocation": {
                    "address": "0x3ef7ffa246206caa95629a1c85917fadcbab6a22",
                    "callData": "0x000000000000000000000000000000000000000000024c67abd436b917dd059f0000000000000000000000000000000000000000000000000000000000000000000000000000000000000000c6a3800779be69635792871d6a6b205c0a28963000000000000000000000000000000000000000000000000000000000000000800000000000000000000000000000000000000000000000000000000000000000",
                    "decodedMethod": {
                        "callParams": [
                            {
                                "name": "amount0Out",
                                "type": "uint256",
                                "value": "2,778,663,888,148,387,615,016,351"
                            },
                            {
                                "name": "amount1Out",
                                "type": "uint256",
                                "value": "0"
                            },
                            {
                                "name": "to",
                                "type": "address",
                                "value": "0xc6a3800779be69635792871d6a6b205c0a289630"
                            },
                            {
                                "name": "data",
                                "type": "bytes",
                                "value": "0x"
                            }
                        ],
                        "constructorArguments": "",
                        "name": "swap",
                        "returnParams": [],
                        "signature": "swap(uint256,uint256,address,bytes)"
                    },
                    "errorInfo": "",
                    "fromAddress": "0x11a2e73bada26f184e3d508186085c72217dc014",
                    "gasUsed": 146292,
                    "id": 6,
                    "methodDecoded": true,
                    "operation": "CALL",
                    "output": "",
                    "revert": false,
                    "revertMessage": "",
                    "selector": "0x022c0d9f",
                    "status": true,
                    "value": "0"
                },
                "nodeType": 0
            },
            "7": {
                "invocation": {
                    "address": "0x386fe6bf31ddbfb5896efaa295d308f6ed633bd8",
                    "callData": "0x000000000000000000000000c6a3800779be69635792871d6a6b205c0a289630000000000000000000000000000000000000000000024c67abd436b917dd059f",
                    "decodedMethod": {
                        "callParams": [
                            {
                                "name": "recipient",
                                "type": "address",
                                "value": "0xc6a3800779be69635792871d6a6b205c0a289630"
                            },
                            {
                                "decimalAvailable": true,
                                "name": "amount",
                                "type": "uint256",
                                "value": "2,778,663,888,148,387,615,016,351"
                            }
                        ],
                        "constructorArguments": "",
                        "name": "transfer",
                        "returnParams": [
                            {
                                "name": "",
                                "type": "bool",
                                "value": true
                            }
                        ],
                        "signature": "transfer(address,uint256)"
                    },
                    "errorInfo": "",
                    "fromAddress": "0x3ef7ffa246206caa95629a1c85917fadcbab6a22",
                    "gasUsed": 110960,
                    "id": 7,
                    "methodDecoded": true,
                    "operation": "CALL",
                    "output": "0x0000000000000000000000000000000000000000000000000000000000000001",
                    "revert": false,
                    "revertMessage": "",
                    "selector": "0xa9059cbb",
                    "status": true,
                    "value": "0"
                },
                "nodeType": 0
            },
            "8": {
                "event": {
                    "contract": "0x386fe6bf31ddbfb5896efaa295d308f6ed633bd8",
                    "decodedLog": {
                        "name": "Transfer",
                        "params": [
                            {
                                "name": "from",
                                "type": "address",
                                "value": "0x3ef7ffa246206caa95629a1c85917fadcbab6a22"
                            },
                            {
                                "name": "to",
                                "type": "address",
                                "value": "0x386fe6bf31ddbfb5896efaa295d308f6ed633bd8"
                            },
                            {
                                "decimalAvailable": true,
                                "name": "value",
                                "type": "uint256",
                                "value": "55,573,277,762,967,752,300,327"
                            }
                        ],
                        "signature": "Transfer(address,address,uint256)"
                    },
                    "id": 8,
                    "logData": "0x000000000000000000000000000000000000000000000bc4a22815930fd65727",
                    "logDecoded": true,
                    "operation": "EVENT",
                    "revert": false,
                    "status": true,
                    "topics": [
                        "0xddf252ad1be2c89b69c2b068fc378daa952ba7f163c4a11628f55a4df523b3ef",
                        "0x0000000000000000000000003ef7ffa246206caa95629a1c85917fadcbab6a22",
                        "0x000000000000000000000000386fe6bf31ddbfb5896efaa295d308f6ed633bd8"
                    ]
                },
                "nodeType": 1
            },
            "9": {
                "event": {
                    "contract": "0x386fe6bf31ddbfb5896efaa295d308f6ed633bd8",
                    "decodedLog": {
                        "name": "Transfer",
                        "params": [
                            {
                                "name": "from",
                                "type": "address",
                                "value": "0x3ef7ffa246206caa95629a1c85917fadcbab6a22"
                            },
                            {
                                "name": "to",
                                "type": "address",
                                "value": "0x000000000000000000000000000000000000dead"
                            },
                            {
                                "decimalAvailable": true,
                                "name": "value",
                                "type": "uint256",
                                "value": "27,786,638,881,483,876,150,163"
                            }
                        ],
                        "signature": "Transfer(address,address,uint256)"
                    },
                    "id": 9,
                    "logData": "0x0000000000000000000000000000000000000000000005e251140ac987eb2b93",
                    "logDecoded": true,
                    "operation": "EVENT",
                    "revert": false,
                    "status": true,
                    "topics": [
                        "0xddf252ad1be2c89b69c2b068fc378daa952ba7f163c4a11628f55a4df523b3ef",
                        "0x0000000000000000000000003ef7ffa246206caa95629a1c85917fadcbab6a22",
                        "0x000000000000000000000000000000000000000000000000000000000000dead"
                    ]
                },
                "nodeType": 1
            }
        },
        "gasFlame": [
            {
                "children": [
                    {
                        "children": [
                            {
                                "children": [],
                                "depth": 0,
                                "name": "Initial Gas",
                                "value": 22884
                            },
                            {
                                "children": [
                                    {
                                        "children": [],
                                        "depth": 1,
                                        "name": "getReserves",
                                        "value": 2504
                                    },
                                    {
                                        "children": [],
                                        "depth": 1,
                                        "name": "deposit",
                                        "value": 23974
                                    },
                                    {
                                        "children": [],
                                        "depth": 1,
                                        "name": "transfer",
                                        "value": 8062
                                    },
                                    {
                                        "children": [
                                            {
                                                "children": [],
                                                "depth": 2,
                                                "name": "transfer",
                                                "value": 110960
                                            },
                                            {
                                                "children": [],
                                                "depth": 2,
                                                "name": "balanceOf",
                                                "value": 975
                                            },
                                            {
                                                "children": [],
                                                "depth": 2,
                                                "name": "balanceOf",
                                                "value": 534
                                            }
                                        ],
                                        "depth": 1,
                                        "name": "swap",
                                        "value": 146292
                                    },
                                    {
                                        "children": [],
                                        "depth": 1,
                                        "name": "fallback",
                                        "value": 0
                                    }
                                ],
                                "depth": 0,
                                "name": "Executed Gas",
                                "value": 218116
                            }
                        ],
                        "depth": -1,
                        "name": "Actual Gas Used",
                        "value": 198400
                    },
                    {
                        "children": [],
                        "depth": -1,
                        "name": "Refunded Gas",
                        "value": 42600
                    }
                ],
                "depth": -2,
                "name": "Total Gas",
                "value": 241000
            }
        ],
        "isConfirmed": true,
        "mainTrace": [
            {
                "children": [
                    {
                        "children": [
                            {
                                "children": [],
                                "depth": 1,
                                "id": 1,
                                "order": 1
                            },
                            {
                                "children": [
                                    {
                                        "children": [],
                                        "depth": 2,
                                        "id": 3,
                                        "order": 3
                                    }
                                ],
                                "depth": 1,
                                "id": 2,
                                "order": 2
                            },
                            {
                                "children": [
                                    {
                                        "children": [],
                                        "depth": 2,
                                        "id": 5,
                                        "order": 5
                                    }
                                ],
                                "depth": 1,
                                "id": 4,
                                "order": 4
                            },
                            {
                                "children": [
                                    {
                                        "children": [
                                            {
                                                "children": [],
                                                "depth": 3,
                                                "id": 8,
                                                "order": 8
                                            },
                                            {
                                                "children": [],
                                                "depth": 3,
                                                "id": 9,
                                                "order": 9
                                            },
                                            {
                                                "children": [],
                                                "depth": 3,
                                                "id": 10,
                                                "order": 10
                                            }
                                        ],
                                        "depth": 2,
                                        "id": 7,
                                        "order": 7
                                    },
                                    {
                                        "children": [],
                                        "depth": 2,
                                        "id": 11,
                                        "order": 11
                                    },
                                    {
                                        "children": [],
                                        "depth": 2,
                                        "id": 12,
                                        "order": 12
                                    },
                                    {
                                        "children": [],
                                        "depth": 2,
                                        "id": 13,
                                        "order": 13
                                    },
                                    {
                                        "children": [],
                                        "depth": 2,
                                        "id": 14,
                                        "order": 14
                                    }
                                ],
                                "depth": 1,
                                "id": 6,
                                "order": 6
                            },
                            {
                                "children": [],
                                "depth": 1,
                                "id": 15,
                                "order": 15
                            }
                        ],
                        "depth": 0,
                        "id": 0,
                        "order": 0
                    }
                ],
                "depth": -1,
                "id": -1,
                "order": -1
            }
        ],
        "mainTraceNodeCount": 16,
        "parentIdMap": {
            "0": -1,
            "1": 0,
            "10": 7,
            "11": 6,
            "12": 6,
            "13": 6,
            "14": 6,
            "15": 0,
            "2": 0,
            "3": 2,
            "4": 0,
            "5": 4,
            "6": 0,
            "7": 6,
            "8": 7,
            "9": 7
        },
        "tidyTrace": [
            {
                "children": [
                    {
                        "children": [
                            {
                                "children": [
                                    {
                                        "children": [],
                                        "depth": 2,
                                        "id": 3,
                                        "order": 3
                                    }
                                ],
                                "depth": 1,
                                "id": 2,
                                "order": 2
                            },
                            {
                                "children": [
                                    {
                                        "children": [],
                                        "depth": 2,
                                        "id": 5,
                                        "order": 5
                                    }
                                ],
                                "depth": 1,
                                "id": 4,
                                "order": 4
                            },
                            {
                                "children": [
                                    {
                                        "children": [
                                            {
                                                "children": [],
                                                "depth": 3,
                                                "id": 8,
                                                "order": 8
                                            },
                                            {
                                                "children": [],
                                                "depth": 3,
                                                "id": 9,
                                                "order": 9
                                            },
                                            {
                                                "children": [],
                                                "depth": 3,
                                                "id": 10,
                                                "order": 10
                                            }
                                        ],
                                        "depth": 2,
                                        "id": 7,
                                        "order": 7
                                    },
                                    {
                                        "children": [],
                                        "depth": 2,
                                        "id": 13,
                                        "order": 13
                                    },
                                    {
                                        "children": [],
                                        "depth": 2,
                                        "id": 14,
                                        "order": 14
                                    }
                                ],
                                "depth": 1,
                                "id": 6,
                                "order": 6
                            },
                            {
                                "children": [],
                                "depth": 1,
                                "id": 15,
                                "order": 15
                            }
                        ],
                        "depth": 0,
                        "id": 0,
                        "order": 0
                    }
                ],
                "depth": -1,
                "id": -1,
                "order": -1
            }
        ],
        "tidyTraceNodeCount": 13
    },
    "state_change": {
        "stateChanges": [
            {
                "address": "0x11a2e73bada26f184e3d508186085c72217dc014",
                "erc": "",
                "slots": [
                    {
                        "current": "0x00000000000000000000000000000000000000000000012e96052a04357e8545",
                        "key": "0x0000000000000000000000000000000000000000000000000000000000000001",
                        "prev": "0x00000000000000000000000000000000000000000000012e95554e07591cc545"
                    }
                ],
                "storageVariables": []
            },
            {
                "address": "0x386fe6bf31ddbfb5896efaa295d308f6ed633bd8",
                "erc": "ERC-20",
                "slots": [
                    {
                        "current": "0x000000000000000000000000000000000000000000bfb24dc1533be5c504f20f",
                        "key": "0x77bdfc1eb1e4831a1c6f6e5fb340fc5e72f5ae90a60033fd53eccfb43effd86f",
                        "prev": "0x000000000000000000000000000000000000000000c1feb56d27729edce1f7ae"
                    },
                    {
                        "current": "0x00000000000000000000000000000000000000000000282b5fe42893e45b329c",
                        "key": "0x26884895dcb2ea8e54a0692e64c1a83f4a425bde9a6d14fc57fd2b9458c47706",
                        "prev": "0x000000000000000000000000000000000000000000001c66bdbc1300d484db75"
                    },
                    {
                        "current": "0x000000000000000000000000000000000000000000117c99f170575794c5f214",
                        "key": "0x44ad89ba62b98ff34f51403ac22759b55759460c0bb5521eb4b6ee3cff49cf83",
                        "prev": "0x0000000000000000000000000000000000000000001176b7a05c4c8e0cdac681"
                    },
                    {
                        "current": "0x000000000000000000000000000000000000000000023ac0b898165c801b82e5",
                        "key": "0xe6d0510ad29d9437f159c16bde888f03a771331d0ef56baad1cc3350bf156afd",
                        "prev": "0x0000000000000000000000000000000000000000000000000000000000000000"
                    },
                    {
                        "current": "0x00000000000000000000000000000000000000000000282b5fe42893e45b329c",
                        "key": "0x0000000000000000000000000000000000000000000000000000000000000014",
                        "prev": "0x000000000000000000000000000000000000000000001c66bdbc1300d484db75"
                    }
                ],
                "storageVariables": [
                    {
                        "name": "_balances",
                        "type": "mapping(address => uint256)",
                        "value": {
                            "pairs": [
                                {
                                    "key": "0x000000000000000000000000000000000000dead",
                                    "value": {
                                        "current": "21140152126669203739898388",
                                        "prev": "21112365487787719863748225",
                                        "typeTag": 1
                                    }
                                },
                                {
                                    "key": "0x386fe6bf31ddbfb5896efaa295d308f6ed633bd8",
                                    "value": {
                                        "current": "189694779002299268936348",
                                        "prev": "134121501239331516636021",
                                        "typeTag": 1
                                    }
                                },
                                {
                                    "key": "0x3ef7ffa246206caa95629a1c85917fadcbab6a22",
                                    "value": {
                                        "current": "231746847110182575278453263",
                                        "prev": "234525510998330962893469614",
                                        "typeTag": 1
                                    }
                                },
                                {
                                    "key": "0xc6a3800779be69635792871d6a6b205c0a289630",
                                    "value": {
                                        "current": "2695303971503935986565861",
                                        "prev": "0",
                                        "typeTag": 1
                                    }
                                }
                            ],
                            "typeTag": 4
                        }
                    },
                    {
                        "name": "tokensForMarketing",
                        "type": "uint256",
                        "value": {
                            "current": "189694779002299268936348",
                            "prev": "134121501239331516636021",
                            "typeTag": 1
                        }
                    }
                ]
            },
            {
                "address": "0x3ef7ffa246206caa95629a1c85917fadcbab6a22",
                "erc": "ERC-20",
                "slots": [
                    {
                        "current": "0x0000000000000000000000000000000000000003360702860a8c23c0f572c270",
                        "key": "0x0000000000000000000000000000000000000000000000000000000000000009",
                        "prev": "0x0000000000000000000000000000000000000003327e77878e24135c569e678c"
                    },
                    {
                        "current": "0x0000000000000000000000000047beb0ebac291d25aa72d9b825533513c5fca8",
                        "key": "0x000000000000000000000000000000000000000000000000000000000000000a",
                        "prev": "0x000000000000000000000000004795efd2ec5e5d536e6c4cb82750e5037bd65c"
                    },
                    {
                        "current": "0x641cefa300000000000039ceec638c3f420e000000bfb24dc1533be5c504f20f",
                        "key": "0x0000000000000000000000000000000000000000000000000000000000000008",
                        "prev": "0x641cef97000000000000391f1066afdd820e000000c1feb56d27729edce1f7ae"
                    }
                ],
                "storageVariables": [
                    {
                        "name": "price1CumulativeLast",
                        "type": "uint256",
                        "value": {
                            "current": "1599964446381774732272152327565368450110323880",
                            "prev": "1596414247550375738081309504782627468551640668",
                            "typeTag": 1
                        }
                    },
                    {
                        "name": "reserve0",
                        "type": "uint112",
                        "value": {
                            "current": "231746847110182575278453263",
                            "prev": "234525510998330962893469614",
                            "typeTag": 1
                        }
                    },
                    {
                        "name": "reserve1",
                        "type": "uint112",
                        "value": {
                            "current": "4165526617663160846",
                            "prev": "4116026617663160846",
                            "typeTag": 1
                        }
                    },
                    {
                        "name": "blockTimestampLast",
                        "type": "uint32",
                        "value": {
                            "current": "1679617955",
                            "prev": "1679617943",
                            "typeTag": 1
                        }
                    },
                    {
                        "name": "price0CumulativeLast",
                        "type": "uint256",
                        "value": {
                            "current": "254405152471239642261140718192",
                            "prev": "253311627149295953671312271244",
                            "typeTag": 1
                        }
                    }
                ]
            },
            {
                "address": "0xc02aaa39b223fe8d0a0e5c4f27ead9083c756cc2",
                "erc": "ERC-20",
                "slots": [
                    {
                        "current": "0x00000000000000000000000000000000000000000000000039ceec638c3f420e",
                        "key": "0xc1c861490d27b636fe20df79fe77c7c879a87004a792da66b456c8405ee3ba21",
                        "prev": "0x000000000000000000000000000000000000000000000000391f1066afdd820e"
                    }
                ],
                "storageVariables": [
                    {
                        "name": "balanceOf",
                        "type": "mapping(address => uint256)",
                        "value": {
                            "pairs": [
                                {
                                    "key": "0x3ef7ffa246206caa95629a1c85917fadcbab6a22",
                                    "value": {
                                        "current": "4165526617663160846",
                                        "prev": "4116026617663160846",
                                        "typeTag": 1
                                    }
                                }
                            ],
                            "typeTag": 4
                        }
                    }
                ]
            }
        ]
    }
}