{
    "balance_change": {
        "balanceChanges": [
            {
                "account": "0x15a139c4d00ed0928640503960e656984cd80703",
                "assets": [
                    {
                        "address": "0xba7435a4b4c747e0101780073eeda872a69bdcd4",
                        "amount": "30,000",
                        "iconUrl": "",
                        "isERC1155": false,
                        "isERC721": false,
                        "sign": false,
                        "value": ""
                    }
                ]
            },
            {
                "account": "0x71bec06e9539c2b62752598e44a2216a9d210c3f",
                "assets": [
                    {
                        "address": "0xba7435a4b4c747e0101780073eeda872a69bdcd4",
                        "amount": "30,000",
                        "iconUrl": "",
                        "isERC1155": false,
                        "isERC721": false,
                        "sign": true,
                        "value": ""
                    }
                ]
            }
        ]
    },
    "profile": {
        "basic_info": {
            "baseFee": "",
            "blockNumber": 5753728,
            "callData": "0xa9059cbb00000000000000000000000071bec06e9539c2b62752598e44a2216a9d210c3f00000000000000000000000000000000000000000000065a4da25d3016c00000",
            "debugEnable": true,
            "errorInfo": "",
            "eventCount": 1,
            "feeRecipient": "0xfa927f196a46067ca3aee3edcaaabce7ef77bb26",
            "formatValue": "0",
            "gasLimit": 54536,
            "gasPrice": "6",
            "gasUsed": 37518,
            "intTxnCount": 0,
            "internalRevert": false,
            "internalRevertMessage": "",
            "isContractCreation": false,
            "isFlashloan": false,
            "maxFee": "",
            "nonce": 34,
            "overwritedBlockNumber": -1,
            "priorityFee": "",
            "receiver": "0xba7435a4b4c747e0101780073eeda872a69bdcd4",
            "revertMessage": "",
            "sender": "0x15a139c4d00ed0928640503960e656984cd80703",
            "simulationEnable": true,
            "sourceTxnHash": "0x71a49f37d53f6c9d83eb1c74dd431bc814847ecc7e7d50709b5fd1bbc996700f",
            "status": true,
            "timestamp": "2018-06-08T14:15:45Z",
            "transactionFee": "0.000225108",
            "txnHash": "0x71a49f37d53f6c9d83eb1c74dd431bc814847ecc7e7d50709b5fd1bbc996700f",
            "txnIndex": 45,
            "type": 0,
            "value": "0"
        },
        "fund_flow": [
            {
                "amount": "30,000",
                "from": "0x15a139c4d00ed0928640503960e656984cd80703",
                "id": 1,
                "isERC1155": false,
                "isERC721": false,
                "isReverted": false,
                "order": 1,
                "to": "0x71bec06e9539c2b62752598e44a2216a9d210c3f",
                "token": "0xba7435a4b4c747e0101780073eeda872a69bdcd4"
            }
        ],
        "token_infos": [
            {
                "address": "0xeeeeeeeeeeeeeeeeeeeeeeeeeeeeeeeeeeeeeeee",
                "decimals": 18
            },
            {
                "address": "0xba7435a4b4c747e0101780073eeda872a69bdcd4",
                "decimals": 18
            },
            {
                "address": "0xc02aaa39b223fe8d0a0e5c4f27ead9083c756cc2",
                "decimals": 18
            }
        ]
    },
    "address_label": {
        "labels": [
            {
                "address": "0x0000000000000000000000000000000000000004",
                "label": "Precompiled"
            },
            {
                "address": "0xeeeeeeeeeeeeeeeeeeeeeeeeeeeeeeeeeeeeeeee",
                "label": "Ether"
            },
            {
                "address": "0xba7435a4b4c747e0101780073eeda872a69bdcd4",
                "label": "Fake_Phishing391767"
            },
            {
                "address": "0x0000000000000000000000000000000000000001",
                "label": "Precompiled"
            },
            {
                "address": "0x0000000000000000000000000000000000000002",
                "label": "Precompiled"
            },
            {
                "address": "0x0000000000000000000000000000000000000003",
                "label": "Precompiled"
            }
        ]
    },
    "trace": {
        "accountLabels": null,
        "dataMap": {
            "-1": {
                "invocation": {
                    "address": "0x15a139c4d00ed0928640503960e656984cd80703",
                    "callData": "",
                    "decodedMethod": null,
                    "errorInfo": "",
                    "fromAddress": "",
                    "gasUsed": 0,
                    "id": -1,
                    "methodDecoded": false,
                    "operation": "",
                    "output": "",
                    "revert": false,
                    "revertMessage": "",
                    "selector": "",
                    "status": false,
                    "value": ""
                },
                "nodeType": 0
            },
            "0": {
                "invocation": {
                    "address": "0xba7435a4b4c747e0101780073eeda872a69bdcd4",
                    "callData": "0x00000000000000000000000071bec06e9539c2b62752598e44a2216a9d210c3f00000000000000000000000000000000000000000000065a4da25d3016c00000",
                    "decodedMethod": {
                        "callParams": [
                            {
                                "name": "recipient",
                                "type": "address",
                                "value": "0x71bec06e9539c2b62752598e44a2216a9d210c3f"
                            },
                            {
                                "decimalAvailable": true,
                                "name": "amount",
                                "type": "uint256",
                                "value": "30,000,000,000,000,000,000,000"
                            }
                        ],
                        "constructorArguments": "",
                        "name": "transfer",
                        "returnParams": [
                            {
                                "name": "",
                                "type": "bool",
                                "value": true
                            }
                        ],
                        "signature": "transfer(address,uint256)"
                    },
                    "errorInfo": "",
                    "fromAddress": "0x15a139c4d00ed0928640503960e656984cd80703",
                    "gasUsed": 37518,
                    "id": 0,
                    "methodDecoded": true,
                    "operation": "CALL",
                    "output": "0x0000000000000000000000000000000000000000000000000000000000000001",
                    "revert": false,
                    "revertMessage": "",
                    "selector": "0xa9059cbb",
                    "status": true,
                    "value": "0"
                },
                "nodeType": 0
            },
            "1": {
                "event": {
                    "contract": "0xba7435a4b4c747e0101780073eeda872a69bdcd4",
                    "decodedLog": {
                        "name": "Transfer",
                        "params": [
                            {
                                "name": "from",
                                "type": "address",
                                "value": "0x15a139c4d00ed0928640503960e656984cd80703"
                            },
                            {
                                "name": "to",
                                "type": "address",
                                "value": "0x71bec06e9539c2b62752598e44a2216a9d210c3f"
                            },
                            {
                                "decimalAvailable": true,
                                "name": "value",
                                "type": "uint256",
                                "value": "30,000,000,000,000,000,000,000"
                            }
                        ],
                        "signature": "Transfer(address,address,uint256)"
                    },
                    "id": 1,
                    "logData": "0x00000000000000000000000000000000000000000000065a4da25d3016c00000",
                    "logDecoded": true,
                    "operation": "EVENT",
                    "revert": false,
                    "status": true,
                    "topics": [
                        "0xddf252ad1be2c89b69c2b068fc378daa952ba7f163c4a11628f55a4df523b3ef",
                        "0x00000000000000000000000015a139c4d00ed0928640503960e656984cd80703",
                        "0x00000000000000000000000071bec06e9539c2b62752598e44a2216a9d210c3f"
                    ]
                },
                "nodeType": 1
            }
        },
        "gasFlame": [
            {
                "children": [
                    {
                        "children": [
                            {
                                "children": [],
                                "depth": 0,
                                "name": "Initial Gas",
                                "value": 23320
                            },
                            {
                                "children": [],
                                "depth": 0,
                                "name": "Executed Gas",
                                "value": 14198
                            }
                        ],
                        "depth": -1,
                        "name": "Actual Gas Used",
                        "value": 37518
                    },
                    {
                        "children": [],
                        "depth": -1,
                        "name": "Refunded Gas",
                        "value": 0
                    }
                ],
                "depth": -2,
                "name": "Total Gas",
                "value": 37518
            }
        ],
        "isConfirmed": true,
        "mainTrace": [
            {
                "children": [
                    {
                        "children": [
                            {
                                "children": [],
                                "depth": 1,
                                "id": 1,
                                "order": 1
                            }
                        ],
                        "depth": 0,
                        "id": 0,
                        "order": 0
                    }
                ],
                "depth": -1,
                "id": -1,
                "order": -1
            }
        ],
        "mainTraceNodeCount": 2,
        "parentIdMap": {
            "0": -1,
            "1": 0
        },
        "tidyTrace": [
            {
                "children": [
                    {
                        "children": [
                            {
                                "children": [],
                                "depth": 1,
                                "id": 1,
                                "order": 1
                            }
                        ],
                        "depth": 0,
                        "id": 0,
                        "order": 0
                    }
                ],
                "depth": -1,
                "id": -1,
                "order": -1
            }
        ],
        "tidyTraceNodeCount": 2
    },
    "state_change": {
        "stateChanges": [
            {
                "address": "0xba7435a4b4c747e0101780073eeda872a69bdcd4",
                "erc": "",
                "slots": [
                    {
                        "current": "0x000000000000000000000000000000000000000000002c781f708c5113580d5d",
                        "key": "0x93cac278a1fd7525a6f675c458ac14abf21cafec0831e5f3bb75ff2507577637",
                        "prev": "0x00000000000000000000000000000000000000000000261dd1ce2f20fc980d5d"
                    },
                    {
                        "current": "0x00000000000000000000000000000000000000000008bc7c80c458678ff1e991",
                        "key": "0x7ca1690a2ba8aded397a2d767ad99ab29e49b83d4309e8dd6d8f03a0bf43ef48",
                        "prev": "0x00000000000000000000000000000000000000000008c2d6ce66b597a6b1e991"
                    }
                ],
                "storageVariables": []
            }
        ]
    }
}