{
    "balance_change": {
        "balanceChanges": [
            {
                "account": "0x3a014022a43f397cabdc67e323996e2d20201a8d",
                "assets": [
                    {
                        "address": "0x3a014022a43f397cabdc67e323996e2d20201a8d",
                        "amount": "10",
                        "iconUrl": "",
                        "isERC1155": false,
                        "isERC721": false,
                        "sign": false,
                        "value": ""
                    }
                ]
            },
            {
                "account": "0x4b4a201e0a61408e911d45745ee98767d5e3eaae",
                "assets": [
                    {
                        "address": "0x3a014022a43f397cabdc67e323996e2d20201a8d",
                        "amount": "10",
                        "iconUrl": "",
                        "isERC1155": false,
                        "isERC721": false,
                        "sign": true,
                        "value": ""
                    }
                ]
            }
        ]
    },
    "profile": {
        "basic_info": {
            "baseFee": "",
            "blockNumber": 7734846,
            "callData": "0xa9059cbb0000000000000000000000004b4a201e0a61408e911d45745ee98767d5e3eaae000000000000000000000000000000000000000000000000000000003b9aca00",
            "debugEnable": true,
            "errorInfo": "",
            "eventCount": 1,
            "feeRecipient": "0x5a0b54d5dc17e0aadc383d2db43b0a0d3e029c4c",
            "formatValue": "0",
            "gasLimit": 1500000,
            "gasPrice": "1",
            "gasUsed": 52364,
            "intTxnCount": 0,
            "internalRevert": false,
            "internalRevertMessage": "",
            "isContractCreation": false,
            "isFlashloan": false,
            "maxFee": "",
            "nonce": 3969,
            "overwritedBlockNumber": -1,
            "priorityFee": "",
            "receiver": "0x3a014022a43f397cabdc67e323996e2d20201a8d",
            "revertMessage": "",
            "sender": "0x5f38f36a600da4181cdcf38b25c5a9bf068817ba",
            "simulationEnable": true,
            "sourceTxnHash": "0x72d0f5038554a9145d0c9421fae9754ee345403b979f199dc3b314cd6c6103af",
            "status": true,
            "timestamp": "2019-05-10T20:09:45Z",
            "transactionFee": "0.000052364",
            "txnHash": "0x72d0f5038554a9145d0c9421fae9754ee345403b979f199dc3b314cd6c6103af",
            "txnIndex": 82,
            "type": 0,
            "value": "0"
        },
        "fund_flow": [
            {
                "amount": "10",
                "from": "0x3a014022a43f397cabdc67e323996e2d20201a8d",
                "id": 1,
                "isERC1155": false,
                "isERC721": false,
                "isReverted": false,
                "order": 1,
                "to": "0x4b4a201e0a61408e911d45745ee98767d5e3eaae",
                "token": "0x3a014022a43f397cabdc67e323996e2d20201a8d"
            }
        ],
        "token_infos": [
            {
                "address": "0x3a014022a43f397cabdc67e323996e2d20201a8d",
                "decimals": 8
            },
            {
                "address": "0xc02aaa39b223fe8d0a0e5c4f27ead9083c756cc2",
                "decimals": 18
            },
            {
                "address": "0xeeeeeeeeeeeeeeeeeeeeeeeeeeeeeeeeeeeeeeee",
                "decimals": 18
            }
        ]
    },
    "address_label": {
        "labels": [
            {
                "address": "0x3a014022a43f397cabdc67e323996e2d20201a8d",
                "label": "COT"
            },
            {
                "address": "0x0000000000000000000000000000000000000001",
                "label": "Precompiled"
            },
            {
                "address": "0x0000000000000000000000000000000000000002",
                "label": "Precompiled"
            },
            {
                "address": "0x0000000000000000000000000000000000000003",
                "label": "Precompiled"
            },
            {
                "address": "0x0000000000000000000000000000000000000004",
                "label": "Precompiled"
            },
            {
                "address": "0xeeeeeeeeeeeeeeeeeeeeeeeeeeeeeeeeeeeeeeee",
                "label": "Ether"
            }
        ]
    },
    "trace": {
        "accountLabels": null,
        "dataMap": {
            "-1": {
                "invocation": {
                    "address": "0x5f38f36a600da4181cdcf38b25c5a9bf068817ba",
                    "callData": "",
                    "decodedMethod": null,
                    "errorInfo": "",
                    "fromAddress": "",
                    "gasUsed": 0,
                    "id": -1,
                    "methodDecoded": false,
                    "operation": "",
                    "output": "",
                    "revert": false,
                    "revertMessage": "",
                    "selector": "",
                    "status": false,
                    "value": ""
                },
                "nodeType": 0
            },
            "0": {
                "invocation": {
                    "address": "0x3a014022a43f397cabdc67e323996e2d20201a8d",
                    "callData": "0x0000000000000000000000004b4a201e0a61408e911d45745ee98767d5e3eaae000000000000000000000000000000000000000000000000000000003b9aca00",
                    "decodedMethod": {
                        "callParams": [
                            {
                                "name": "_to",
                                "type": "address",
                                "value": "0x4b4a201e0a61408e911d45745ee98767d5e3eaae"
                            },
                            {
                                "decimalAvailable": true,
                                "name": "_value",
                                "type": "uint256",
                                "value": "1,000,000,000"
                            }
                        ],
                        "constructorArguments": "",
                        "name": "transfer",
                        "returnParams": [
                            {
                                "name": "success",
                                "type": "bool",
                                "value": true
                            }
                        ],
                        "signature": "transfer(address,uint256)"
                    },
                    "errorInfo": "",
                    "fromAddress": "0x5f38f36a600da4181cdcf38b25c5a9bf068817ba",
                    "gasUsed": 52364,
                    "id": 0,
                    "methodDecoded": true,
                    "operation": "CALL",
                    "output": "0x0000000000000000000000000000000000000000000000000000000000000001",
                    "revert": false,
                    "revertMessage": "",
                    "selector": "0xa9059cbb",
                    "status": true,
                    "value": "0"
                },
                "nodeType": 0
            },
            "1": {
                "event": {
                    "contract": "0x3a014022a43f397cabdc67e323996e2d20201a8d",
                    "decodedLog": {
                        "name": "Transfer",
                        "params": [
                            {
                                "name": "_from",
                                "type": "address",
                                "value": "0x3a014022a43f397cabdc67e323996e2d20201a8d"
                            },
                            {
                                "name": "_to",
                                "type": "address",
                                "value": "0x4b4a201e0a61408e911d45745ee98767d5e3eaae"
                            },
                            {
                                "decimalAvailable": true,
                                "name": "_value",
                                "type": "uint256",
                                "value": "1,000,000,000"
                            }
                        ],
                        "signature": "Transfer(address,address,uint256)"
                    },
                    "id": 1,
                    "logData": "0x000000000000000000000000000000000000000000000000000000003b9aca00",
                    "logDecoded": true,
                    "operation": "EVENT",
                    "revert": false,
                    "status": true,
                    "topics": [
                        "0xddf252ad1be2c89b69c2b068fc378daa952ba7f163c4a11628f55a4df523b3ef",
                        "0x0000000000000000000000003a014022a43f397cabdc67e323996e2d20201a8d",
                        "0x0000000000000000000000004b4a201e0a61408e911d45745ee98767d5e3eaae"
                    ]
                },
                "nodeType": 1
            }
        },
        "gasFlame": [
            {
                "children": [
                    {
                        "children": [
                            {
                                "children": [],
                                "depth": 0,
                                "name": "Initial Gas",
                                "value": 23000
                            },
                            {
                                "children": [],
                                "depth": 0,
                                "name": "Executed Gas",
                                "value": 29364
                            }
                        ],
                        "depth": -1,
                        "name": "Actual Gas Used",
                        "value": 52364
                    },
                    {
                        "children": [],
                        "depth": -1,
                        "name": "Refunded Gas",
                        "value": 0
                    }
                ],
                "depth": -2,
                "name": "Total Gas",
                "value": 52364
            }
        ],
        "isConfirmed": true,
        "mainTrace": [
            {
                "children": [
                    {
                        "children": [
                            {
                                "children": [],
                                "depth": 1,
                                "id": 1,
                                "order": 1
                            }
                        ],
                        "depth": 0,
                        "id": 0,
                        "order": 0
                    }
                ],
                "depth": -1,
                "id": -1,
                "order": -1
            }
        ],
        "mainTraceNodeCount": 2,
        "parentIdMap": {
            "0": -1,
            "1": 0
        },
        "tidyTrace": [
            {
                "children": [
                    {
                        "children": [
                            {
                                "children": [],
                                "depth": 1,
                                "id": 1,
                                "order": 1
                            }
                        ],
                        "depth": 0,
                        "id": 0,
                        "order": 0
                    }
                ],
                "depth": -1,
                "id": -1,
                "order": -1
            }
        ],
        "tidyTraceNodeCount": 2
    },
    "state_change": {
        "stateChanges": [
            {
                "address": "0x3a014022a43f397cabdc67e323996e2d20201a8d",
                "erc": "ERC-20",
                "slots": [
                    {
                        "current": "0x000000000000000000000000000000000000000000000000015d44f555a92cee",
                        "key": "0x556c76622b760538004e37c606e315c0d2952135303de3cad64d29a8ee613830",
                        "prev": "0x000000000000000000000000000000000000000000000000015d44f59143f6ee"
                    },
                    {
                        "current": "0x000000000000000000000000000000000000000000000000000000003b9aca00",
                        "key": "0x725b3e415cf563c32d7a3adc382f331c8f3e20566acbfb11a9a8f80a841553db",
                        "prev": "0x0000000000000000000000000000000000000000000000000000000000000000"
                    }
                ],
                "storageVariables": [
                    {
                        "name": "balances",
                        "type": "mapping(address => uint256)",
                        "value": {
                            "pairs": [
                                {
                                    "key": "0x4b4a201e0a61408e911d45745ee98767d5e3eaae",
                                    "value": {
                                        "current": "1000000000",
                                        "prev": "0",
                                        "typeTag": 1
                                    }
                                },
                                {
                                    "key": "0x5f38f36a600da4181cdcf38b25c5a9bf068817ba",
                                    "value": {
                                        "current": "98310587366845678",
                                        "prev": "98310588366845678",
                                        "typeTag": 1
                                    }
                                }
                            ],
                            "typeTag": 4
                        }
                    }
                ]
            }
        ]
    }
}