{
    "balance_change": {
        "balanceChanges": [
            {
                "account": "0x414a26eaa23583715d71b3294f0bf5eabdd2eaa8",
                "assets": [
                    {
                        "address": "0xeeeeeeeeeeeeeeeeeeeeeeeeeeeeeeeeeeeeeeee",
                        "amount": "0.183138137977610313",
                        "iconUrl": "https://assets.blocksec.com/image/1663669189317-3.png",
                        "isERC1155": false,
                        "isERC721": false,
                        "sign": true,
                        "value": "769.3079554"
                    },
                    {
                        "address": "0x949d48eca67b17269629c7194f4b727d4ef9e5d6",
                        "amount": "226,242.27757103175295563",
                        "iconUrl": "",
                        "isERC1155": false,
                        "isERC721": false,
                        "sign": true,
                        "value": "1361218.201"
                    }
                ]
            },
            {
                "account": "0xc02aaa39b223fe8d0a0e5c4f27ead9083c756cc2",
                "assets": [
                    {
                        "address": "0xeeeeeeeeeeeeeeeeeeeeeeeeeeeeeeeeeeeeeeee",
                        "amount": "0.183138137977610313",
                        "iconUrl": "https://assets.blocksec.com/image/1663669189317-3.png",
                        "isERC1155": false,
                        "isERC721": false,
                        "sign": false,
                        "value": "769.3079554"
                    },
                    {
                        "address": "0xc02aaa39b223fe8d0a0e5c4f27ead9083c756cc2",
                        "amount": "0.183138137977610313",
                        "iconUrl": "https://assets.blocksec.com/icon/f1cb2d02c471d545bbc7722daf3277fd852d98e63d118771af7047bd8256c516.png",
                        "isERC1155": false,
                        "isERC721": false,
                        "sign": true,
                        "value": "769.3079554"
                    }
                ]
            },
            {
                "account": "0xe9e12db15d8a0ec338f148ffd9dc9606312a6b28",
                "assets": [
                    {
                        "address": "0x949d48eca67b17269629c7194f4b727d4ef9e5d6",
                        "amount": "226,242.27757103175295563",
                        "iconUrl": "",
                        "isERC1155": false,
                        "isERC721": false,
                        "sign": false,
                        "value": "1361218.201"
                    },
                    {
                        "address": "0xc02aaa39b223fe8d0a0e5c4f27ead9083c756cc2",
                        "amount": "0.183138137977610313",
                        "iconUrl": "https://assets.blocksec.com/icon/f1cb2d02c471d545bbc7722daf3277fd852d98e63d118771af7047bd8256c516.png",
                        "isERC1155": false,
                        "isERC721": false,
                        "sign": false,
                        "value": "769.3079554"
                    }
                ]
            }
        ]
    },
    "profile": {
        "basic_info": {
            "baseFee": "107.233428454",
            "blockNumber": 13748842,
            "callData": "0xac9650d80000000000000000000000000000000000000000000000000000000000000020000000000000000000000000000000000000000000000000000000000000000400000000000000000000000000000000000000000000000000000000000000800000000000000000000000000000000000000000000000000000000000000160000000000000000000000000000000000000000000000000000000000000022000000000000000000000000000000000000000000000000000000000000002a000000000000000000000000000000000000000000000000000000000000000a40c49ccbe0000000000000000000000000000000000000000000000000000000000027d06000000000000000000000000000000000000000000000b0f0c3d8ed6190d8590000000000000000000000000000000000000000000002fe26b6b03808f85c96700000000000000000000000000000000000000000000000000000000000000000000000000000000000000000000000000000000000000000000000061ad4ff0000000000000000000000000000000000000000000000000000000000000000000000000000000000000000000000000000000000000000000000084fc6f78650000000000000000000000000000000000000000000000000000000000027d06000000000000000000000000000000000000000000000000000000000000000000000000000000000000000000000000ffffffffffffffffffffffffffffffff00000000000000000000000000000000ffffffffffffffffffffffffffffffff00000000000000000000000000000000000000000000000000000000000000000000000000000000000000000000000000000000000000000000004449404b7c000000000000000000000000000000000000000000000000028aa32a8afb6049000000000000000000000000414a26eaa23583715d71b3294f0bf5eabdd2eaa8000000000000000000000000000000000000000000000000000000000000000000000000000000000000000000000000000000000000000000000064df2ab5bb000000000000000000000000949d48eca67b17269629c7194f4b727d4ef9e5d6000000000000000000000000000000000000000000002fe89e523fe4c15ad6ee000000000000000000000000414a26eaa23583715d71b3294f0bf5eabdd2eaa800000000000000000000000000000000000000000000000000000000",
            "debugEnable": true,
            "errorInfo": "",
            "eventCount": 8,
            "feeRecipient": "0xea674fdde714fd979de3edf0f56aa9716b898ec8",
            "formatValue": "0",
            "gasLimit": 352087,
            "gasPrice": "111",
            "gasUsed": 234725,
            "intTxnCount": 15,
            "internalRevert": false,
            "internalRevertMessage": "",
            "isContractCreation": false,
            "isFlashloan": false,
            "maxFee": "",
            "nonce": 2997,
            "overwritedBlockNumber": -1,
            "priorityFee": "",
            "receiver": "0xc36442b4a4522e871399cd717abdd847ab11fe88",
            "revertMessage": "",
            "sender": "0x414a26eaa23583715d71b3294f0bf5eabdd2eaa8",
            "simulationEnable": true,
            "sourceTxnHash": "0x733efcf33b7381bb9e0c4aa79e4cead00597d6ceb7b2df73440fb35db74b0581",
            "status": true,
            "timestamp": "2021-12-05T23:21:25Z",
            "transactionFee": "0.026054475",
            "txnHash": "0x733efcf33b7381bb9e0c4aa79e4cead00597d6ceb7b2df73440fb35db74b0581",
            "txnIndex": 37,
            "type": 0,
            "value": "0"
        },
        "fund_flow": [
            {
                "amount": "226,242.27757103175295563",
                "from": "0xe9e12db15d8a0ec338f148ffd9dc9606312a6b28",
                "id": 1,
                "isERC1155": false,
                "isERC721": false,
                "isReverted": false,
                "order": 1,
                "to": "0xc36442b4a4522e871399cd717abdd847ab11fe88",
                "token": "0x949d48eca67b17269629c7194f4b727d4ef9e5d6"
            },
            {
                "amount": "0.183138137977610313",
                "from": "0xe9e12db15d8a0ec338f148ffd9dc9606312a6b28",
                "id": 2,
                "isERC1155": false,
                "isERC721": false,
                "isReverted": false,
                "order": 2,
                "to": "0xc36442b4a4522e871399cd717abdd847ab11fe88",
                "token": "0xc02aaa39b223fe8d0a0e5c4f27ead9083c756cc2"
            },
            {
                "amount": "0.183138137977610313",
                "from": "0xc02aaa39b223fe8d0a0e5c4f27ead9083c756cc2",
                "id": 3,
                "isERC1155": false,
                "isERC721": false,
                "isReverted": false,
                "order": 3,
                "to": "0xc36442b4a4522e871399cd717abdd847ab11fe88",
                "token": "0xeeeeeeeeeeeeeeeeeeeeeeeeeeeeeeeeeeeeeeee"
            },
            {
                "amount": "0.183138137977610313",
                "from": "0xc36442b4a4522e871399cd717abdd847ab11fe88",
                "id": 4,
                "isERC1155": false,
                "isERC721": false,
                "isReverted": false,
                "order": 4,
                "to": "0xc02aaa39b223fe8d0a0e5c4f27ead9083c756cc2",
                "token": "0xc02aaa39b223fe8d0a0e5c4f27ead9083c756cc2"
            },
            {
                "amount": "0.183138137977610313",
                "from": "0xc36442b4a4522e871399cd717abdd847ab11fe88",
                "id": 5,
                "isERC1155": false,
                "isERC721": false,
                "isReverted": false,
                "order": 5,
                "to": "0x414a26eaa23583715d71b3294f0bf5eabdd2eaa8",
                "token": "0xeeeeeeeeeeeeeeeeeeeeeeeeeeeeeeeeeeeeeeee"
            },
            {
                "amount": "226,242.27757103175295563",
                "from": "0xc36442b4a4522e871399cd717abdd847ab11fe88",
                "id": 6,
                "isERC1155": false,
                "isERC721": false,
                "isReverted": false,
                "order": 6,
                "to": "0x414a26eaa23583715d71b3294f0bf5eabdd2eaa8",
                "token": "0x949d48eca67b17269629c7194f4b727d4ef9e5d6"
            }
        ],
        "token_infos": [
            {
                "address": "0x949d48eca67b17269629c7194f4b727d4ef9e5d6",
                "decimals": 18
            },
            {
                "address": "0xc02aaa39b223fe8d0a0e5c4f27ead9083c756cc2",
                "decimals": 18
            },
            {
                "address": "0xeeeeeeeeeeeeeeeeeeeeeeeeeeeeeeeeeeeeeeee",
                "decimals": 18
            }
        ]
    },
    "address_label": {
        "labels": [
            {
                "address": "0x0000000000000000000000000000000000000001",
                "label": "Precompiled"
            },
            {
                "address": "0x0000000000000000000000000000000000000004",
                "label": "Precompiled"
            },
            {
                "address": "0xeeeeeeeeeeeeeeeeeeeeeeeeeeeeeeeeeeeeeeee",
                "label": "Ether"
            },
            {
                "address": "0xe9e12db15d8a0ec338f148ffd9dc9606312a6b28",
                "label": "Uniswap V3: MC"
            },
            {
                "address": "0xc36442b4a4522e871399cd717abdd847ab11fe88",
                "label": "Uniswap V3: Positions NFT"
            },
            {
                "address": "0x0000000000000000000000000000000000000002",
                "label": "Precompiled"
            },
            {
                "address": "0x0000000000000000000000000000000000000003",
                "label": "Precompiled"
            },
            {
                "address": "0x949d48eca67b17269629c7194f4b727d4ef9e5d6",
                "label": "Merit Circle: Old MC Token"
            },
            {
                "address": "0xc02aaa39b223fe8d0a0e5c4f27ead9083c756cc2",
                "label": "Wrapped Ether (WETH)"
            },
            {
                "address": "0x0000000000000000000000000000000000000000",
                "label": "Null Address"
            }
        ]
    },
    "trace": {
        "accountLabels": null,
        "dataMap": {
            "-1": {
                "invocation": {
                    "address": "0x414a26eaa23583715d71b3294f0bf5eabdd2eaa8",
                    "callData": "",
                    "decodedMethod": null,
                    "errorInfo": "",
                    "fromAddress": "",
                    "gasUsed": 0,
                    "id": -1,
                    "methodDecoded": false,
                    "operation": "",
                    "output": "",
                    "revert": false,
                    "revertMessage": "",
                    "selector": "",
                    "status": false,
                    "value": ""
                },
                "nodeType": 0
            },
            "0": {
                "invocation": {
                    "address": "0xc36442b4a4522e871399cd717abdd847ab11fe88",
                    "callData": "0x0000000000000000000000000000000000000000000000000000000000000020000000000000000000000000000000000000000000000000000000000000000400000000000000000000000000000000000000000000000000000000000000800000000000000000000000000000000000000000000000000000000000000160000000000000000000000000000000000000000000000000000000000000022000000000000000000000000000000000000000000000000000000000000002a000000000000000000000000000000000000000000000000000000000000000a40c49ccbe0000000000000000000000000000000000000000000000000000000000027d06000000000000000000000000000000000000000000000b0f0c3d8ed6190d8590000000000000000000000000000000000000000000002fe26b6b03808f85c96700000000000000000000000000000000000000000000000000000000000000000000000000000000000000000000000000000000000000000000000061ad4ff0000000000000000000000000000000000000000000000000000000000000000000000000000000000000000000000000000000000000000000000084fc6f78650000000000000000000000000000000000000000000000000000000000027d06000000000000000000000000000000000000000000000000000000000000000000000000000000000000000000000000ffffffffffffffffffffffffffffffff00000000000000000000000000000000ffffffffffffffffffffffffffffffff00000000000000000000000000000000000000000000000000000000000000000000000000000000000000000000000000000000000000000000004449404b7c000000000000000000000000000000000000000000000000028aa32a8afb6049000000000000000000000000414a26eaa23583715d71b3294f0bf5eabdd2eaa8000000000000000000000000000000000000000000000000000000000000000000000000000000000000000000000000000000000000000000000064df2ab5bb000000000000000000000000949d48eca67b17269629c7194f4b727d4ef9e5d6000000000000000000000000000000000000000000002fe89e523fe4c15ad6ee000000000000000000000000414a26eaa23583715d71b3294f0bf5eabdd2eaa800000000000000000000000000000000000000000000000000000000",
                    "decodedMethod": {
                        "callParams": [
                            {
                                "name": "data",
                                "type": "bytes[]",
                                "value": [
                                    "0x0c49ccbe0000000000000000000000000000000000000000000000000000000000027d06000000000000000000000000000000000000000000000b0f0c3d8ed6190d8590000000000000000000000000000000000000000000002fe26b6b03808f85c96700000000000000000000000000000000000000000000000000000000000000000000000000000000000000000000000000000000000000000000000061ad4ff0",
                                    "0xfc6f78650000000000000000000000000000000000000000000000000000000000027d06000000000000000000000000000000000000000000000000000000000000000000000000000000000000000000000000ffffffffffffffffffffffffffffffff00000000000000000000000000000000ffffffffffffffffffffffffffffffff",
                                    "0x49404b7c000000000000000000000000000000000000000000000000028aa32a8afb6049000000000000000000000000414a26eaa23583715d71b3294f0bf5eabdd2eaa8",
                                    "0xdf2ab5bb000000000000000000000000949d48eca67b17269629c7194f4b727d4ef9e5d6000000000000000000000000000000000000000000002fe89e523fe4c15ad6ee000000000000000000000000414a26eaa23583715d71b3294f0bf5eabdd2eaa8"
                                ]
                            }
                        ],
                        "constructorArguments": "",
                        "name": "multicall",
                        "returnParams": [
                            {
                                "name": "results",
                                "type": "bytes[]",
                                "value": [
                                    "0x000000000000000000000000000000000000000000002fe26b6b03808f85c9670000000000000000000000000000000000000000000000000000000000000000",
                                    "0x000000000000000000000000000000000000000000002fe89e523fe4c15ad6ee000000000000000000000000000000000000000000000000028aa32a8afb6049",
                                    "0x",
                                    "0x"
                                ]
                            }
                        ],
                        "signature": "multicall(bytes[])"
                    },
                    "errorInfo": "",
                    "fromAddress": "0x414a26eaa23583715d71b3294f0bf5eabdd2eaa8",
                    "gasUsed": 234725,
                    "id": 0,
                    "methodDecoded": true,
                    "operation": "CALL",
                    "output": "0x00000000000000000000000000000000000000000000000000000000000000200000000000000000000000000000000000000000000000000000000000000004000000000000000000000000000000000000000000000000000000000000008000000000000000000000000000000000000000000000000000000000000000e0000000000000000000000000000000000000000000000000000000000000014000000000000000000000000000000000000000000000000000000000000001600000000000000000000000000000000000000000000000000000000000000040000000000000000000000000000000000000000000002fe26b6b03808f85c96700000000000000000000000000000000000000000000000000000000000000000000000000000000000000000000000000000000000000000000000000000040000000000000000000000000000000000000000000002fe89e523fe4c15ad6ee000000000000000000000000000000000000000000000000028aa32a8afb604900000000000000000000000000000000000000000000000000000000000000000000000000000000000000000000000000000000000000000000000000000000",
                    "revert": false,
                    "revertMessage": "",
                    "selector": "0xac9650d8",
                    "status": true,
                    "value": "0"
                },
                "nodeType": 0
            },
            "1": {
                "invocation": {
                    "address": "0xc36442b4a4522e871399cd717abdd847ab11fe88",
                    "callData": "0x0000000000000000000000000000000000000000000000000000000000027d06000000000000000000000000000000000000000000000b0f0c3d8ed6190d8590000000000000000000000000000000000000000000002fe26b6b03808f85c96700000000000000000000000000000000000000000000000000000000000000000000000000000000000000000000000000000000000000000000000061ad4ff0",
                    "decodedMethod": {
                        "callParams": [
                            {
                                "name": "params",
                                "type": "(uint256,uint128,uint256,uint256,uint256)",
                                "value": [
                                    {
                                        "name": "tokenId",
                                        "type": "uint256",
                                        "value": "163,078"
                                    },
                                    {
                                        "name": "liquidity",
                                        "type": "uint128",
                                        "value": "52,223,614,490,823,969,572,240"
                                    },
                                    {
                                        "name": "amount0Min",
                                        "type": "uint256",
                                        "value": "226,127,929,139,766,948,645,223"
                                    },
                                    {
                                        "name": "amount1Min",
                                        "type": "uint256",
                                        "value": "0"
                                    },
                                    {
                                        "name": "deadline",
                                        "type": "uint256",
                                        "value": "1,638,748,144"
                                    }
                                ]
                            }
                        ],
                        "constructorArguments": "",
                        "name": "decreaseLiquidity",
                        "returnParams": [
                            {
                                "name": "amount0",
                                "type": "uint256",
                                "value": "226,127,929,139,766,948,645,223"
                            },
                            {
                                "name": "amount1",
                                "type": "uint256",
                                "value": "0"
                            }
                        ],
                        "signature": "decreaseLiquidity((uint256,uint128,uint256,uint256,uint256))"
                    },
                    "errorInfo": "",
                    "fromAddress": "0xc36442b4a4522e871399cd717abdd847ab11fe88",
                    "gasUsed": 143011,
                    "id": 1,
                    "methodDecoded": true,
                    "operation": "DELEGATECALL",
                    "output": "0x000000000000000000000000000000000000000000002fe26b6b03808f85c9670000000000000000000000000000000000000000000000000000000000000000",
                    "revert": false,
                    "revertMessage": "",
                    "selector": "0x0c49ccbe",
                    "status": true,
                    "value": "0"
                },
                "nodeType": 0
            },
            "10": {
                "invocation": {
                    "address": "0xc02aaa39b223fe8d0a0e5c4f27ead9083c756cc2",
                    "callData": "0x000000000000000000000000c36442b4a4522e871399cd717abdd847ab11fe88000000000000000000000000000000000000000000000000028aa32a8afb6049",
                    "decodedMethod": {
                        "callParams": [
                            {
                                "name": "dst",
                                "type": "address",
                                "value": "0xc36442b4a4522e871399cd717abdd847ab11fe88"
                            },
                            {
                                "decimalAvailable": true,
                                "name": "wad",
                                "type": "uint256",
                                "value": "183,138,137,977,610,313"
                            }
                        ],
                        "constructorArguments": "",
                        "name": "transfer",
                        "returnParams": [
                            {
                                "name": "",
                                "type": "bool",
                                "value": true
                            }
                        ],
                        "signature": "transfer(address,uint256)"
                    },
                    "errorInfo": "",
                    "fromAddress": "0xe9e12db15d8a0ec338f148ffd9dc9606312a6b28",
                    "gasUsed": 29962,
                    "id": 10,
                    "methodDecoded": true,
                    "operation": "CALL",
                    "output": "0x0000000000000000000000000000000000000000000000000000000000000001",
                    "revert": false,
                    "revertMessage": "",
                    "selector": "0xa9059cbb",
                    "status": true,
                    "value": "0"
                },
                "nodeType": 0
            },
            "11": {
                "event": {
                    "contract": "0xc02aaa39b223fe8d0a0e5c4f27ead9083c756cc2",
                    "decodedLog": {
                        "name": "Transfer",
                        "params": [
                            {
                                "name": "src",
                                "type": "address",
                                "value": "0xe9e12db15d8a0ec338f148ffd9dc9606312a6b28"
                            },
                            {
                                "name": "dst",
                                "type": "address",
                                "value": "0xc36442b4a4522e871399cd717abdd847ab11fe88"
                            },
                            {
                                "decimalAvailable": true,
                                "name": "wad",
                                "type": "uint256",
                                "value": "183,138,137,977,610,313"
                            }
                        ],
                        "signature": "Transfer(address,address,uint256)"
                    },
                    "id": 11,
                    "logData": "0x000000000000000000000000000000000000000000000000028aa32a8afb6049",
                    "logDecoded": true,
                    "operation": "EVENT",
                    "revert": false,
                    "status": true,
                    "topics": [
                        "0xddf252ad1be2c89b69c2b068fc378daa952ba7f163c4a11628f55a4df523b3ef",
                        "0x000000000000000000000000e9e12db15d8a0ec338f148ffd9dc9606312a6b28",
                        "0x000000000000000000000000c36442b4a4522e871399cd717abdd847ab11fe88"
                    ]
                },
                "nodeType": 1
            },
            "12": {
                "event": {
                    "contract": "0xe9e12db15d8a0ec338f148ffd9dc9606312a6b28",
                    "decodedLog": {
                        "name": "Collect",
                        "params": [
                            {
                                "name": "owner",
                                "type": "address",
                                "value": "0xc36442b4a4522e871399cd717abdd847ab11fe88"
                            },
                            {
                                "name": "tickLower",
                                "type": "int24",
                                "value": "-64,400"
                            },
                            {
                                "name": "tickUpper",
                                "type": "int24",
                                "value": "-60,600"
                            },
                            {
                                "name": "recipient",
                                "type": "address",
                                "value": "0xc36442b4a4522e871399cd717abdd847ab11fe88"
                            },
                            {
                                "name": "amount0",
                                "type": "uint128",
                                "value": "226,242,277,571,031,752,955,630"
                            },
                            {
                                "name": "amount1",
                                "type": "uint128",
                                "value": "183,138,137,977,610,313"
                            }
                        ],
                        "signature": "Collect(address,address,int24,int24,uint128,uint128)"
                    },
                    "id": 12,
                    "logData": "0x000000000000000000000000c36442b4a4522e871399cd717abdd847ab11fe88000000000000000000000000000000000000000000002fe89e523fe4c15ad6ee000000000000000000000000000000000000000000000000028aa32a8afb6049",
                    "logDecoded": true,
                    "operation": "EVENT",
                    "revert": false,
                    "status": true,
                    "topics": [
                        "0x70935338e69775456a85ddef226c395fb668b63fa0115f5f20610b388e6ca9c0",
                        "0x000000000000000000000000c36442b4a4522e871399cd717abdd847ab11fe88",
                        "0xffffffffffffffffffffffffffffffffffffffffffffffffffffffffffff0470",
                        "0xffffffffffffffffffffffffffffffffffffffffffffffffffffffffffff1348"
                    ]
                },
                "nodeType": 1
            },
            "13": {
                "event": {
                    "contract": "0xc36442b4a4522e871399cd717abdd847ab11fe88",
                    "decodedLog": {
                        "name": "Collect",
                        "params": [
                            {
                                "name": "tokenId",
                                "type": "uint256",
                                "value": "163,078"
                            },
                            {
                                "name": "recipient",
                                "type": "address",
                                "value": "0xc36442b4a4522e871399cd717abdd847ab11fe88"
                            },
                            {
                                "name": "amount0",
                                "type": "uint256",
                                "value": "226,242,277,571,031,752,955,630"
                            },
                            {
                                "name": "amount1",
                                "type": "uint256",
                                "value": "183,138,137,977,610,313"
                            }
                        ],
                        "signature": "Collect(uint256,address,uint256,uint256)"
                    },
                    "id": 13,
                    "logData": "0x000000000000000000000000c36442b4a4522e871399cd717abdd847ab11fe88000000000000000000000000000000000000000000002fe89e523fe4c15ad6ee000000000000000000000000000000000000000000000000028aa32a8afb6049",
                    "logDecoded": true,
                    "operation": "EVENT",
                    "revert": false,
                    "status": true,
                    "topics": [
                        "0x40d0efd1a53d60ecbf40971b9daf7dc90178c3aadc7aab1765632738fa8b8f01",
                        "0x0000000000000000000000000000000000000000000000000000000000027d06"
                    ]
                },
                "nodeType": 1
            },
            "14": {
                "invocation": {
                    "address": "0xc36442b4a4522e871399cd717abdd847ab11fe88",
                    "callData": "0x000000000000000000000000000000000000000000000000028aa32a8afb6049000000000000000000000000414a26eaa23583715d71b3294f0bf5eabdd2eaa8",
                    "decodedMethod": {
                        "callParams": [
                            {
                                "name": "amountMinimum",
                                "type": "uint256",
                                "value": "183,138,137,977,610,313"
                            },
                            {
                                "name": "recipient",
                                "type": "address",
                                "value": "0x414a26eaa23583715d71b3294f0bf5eabdd2eaa8"
                            }
                        ],
                        "constructorArguments": "",
                        "name": "unwrapWETH9",
                        "returnParams": [],
                        "signature": "unwrapWETH9(uint256,address)"
                    },
                    "errorInfo": "",
                    "fromAddress": "0xc36442b4a4522e871399cd717abdd847ab11fe88",
                    "gasUsed": 18222,
                    "id": 14,
                    "methodDecoded": true,
                    "operation": "DELEGATECALL",
                    "output": "",
                    "revert": false,
                    "revertMessage": "",
                    "selector": "0x49404b7c",
                    "status": true,
                    "value": "0"
                },
                "nodeType": 0
            },
            "15": {
                "invocation": {
                    "address": "0xc02aaa39b223fe8d0a0e5c4f27ead9083c756cc2",
                    "callData": "0x000000000000000000000000c36442b4a4522e871399cd717abdd847ab11fe88",
                    "decodedMethod": {
                        "callParams": [
                            {
                                "name": "",
                                "type": "address",
                                "value": "0xc36442b4a4522e871399cd717abdd847ab11fe88"
                            }
                        ],
                        "constructorArguments": "",
                        "name": "balanceOf",
                        "returnParams": [
                            {
                                "decimalAvailable": true,
                                "name": "",
                                "type": "uint256",
                                "value": "183,138,137,977,610,313"
                            }
                        ],
                        "signature": "balanceOf(address)"
                    },
                    "errorInfo": "",
                    "fromAddress": "0xc36442b4a4522e871399cd717abdd847ab11fe88",
                    "gasUsed": 534,
                    "id": 15,
                    "methodDecoded": true,
                    "operation": "STATICCALL",
                    "output": "0x000000000000000000000000000000000000000000000000028aa32a8afb6049",
                    "revert": false,
                    "revertMessage": "",
                    "selector": "0x70a08231",
                    "status": true,
                    "value": "0"
                },
                "nodeType": 0
            },
            "16": {
                "invocation": {
                    "address": "0xc02aaa39b223fe8d0a0e5c4f27ead9083c756cc2",
                    "callData": "0x000000000000000000000000000000000000000000000000028aa32a8afb6049",
                    "decodedMethod": {
                        "callParams": [
                            {
                                "name": "wad",
                                "type": "uint256",
                                "value": "183,138,137,977,610,313"
                            }
                        ],
                        "constructorArguments": "",
                        "name": "withdraw",
                        "returnParams": [],
                        "signature": "withdraw(uint256)"
                    },
                    "errorInfo": "",
                    "fromAddress": "0xc36442b4a4522e871399cd717abdd847ab11fe88",
                    "gasUsed": 9235,
                    "id": 16,
                    "methodDecoded": true,
                    "operation": "CALL",
                    "output": "",
                    "revert": false,
                    "revertMessage": "",
                    "selector": "0x2e1a7d4d",
                    "status": true,
                    "value": "0"
                },
                "nodeType": 0
            },
            "17": {
                "invocation": {
                    "address": "0xc36442b4a4522e871399cd717abdd847ab11fe88",
                    "callData": "0x",
                    "decodedMethod": null,
                    "errorInfo": "",
                    "fromAddress": "0xc02aaa39b223fe8d0a0e5c4f27ead9083c756cc2",
                    "gasUsed": 95,
                    "id": 17,
                    "methodDecoded": false,
                    "operation": "CALL",
                    "output": "",
                    "revert": false,
                    "revertMessage": "",
                    "selector": "fallback",
                    "status": true,
                    "value": "0.183138137977610313"
                },
                "nodeType": 0
            },
            "18": {
                "event": {
                    "contract": "0xc02aaa39b223fe8d0a0e5c4f27ead9083c756cc2",
                    "decodedLog": {
                        "name": "Withdrawal",
                        "params": [
                            {
                                "name": "src",
                                "type": "address",
                                "value": "0xc36442b4a4522e871399cd717abdd847ab11fe88"
                            },
                            {
                                "name": "wad",
                                "type": "uint256",
                                "value": "183,138,137,977,610,313"
                            }
                        ],
                        "signature": "Withdrawal(address,uint256)"
                    },
                    "id": 18,
                    "logData": "0x000000000000000000000000000000000000000000000000028aa32a8afb6049",
                    "logDecoded": true,
                    "operation": "EVENT",
                    "revert": false,
                    "status": true,
                    "topics": [
                        "0x7fcf532c15f0a6db0bd6d0e038bea71d30d808c7d98cb3bf7268a95bf5081b65",
                        "0x000000000000000000000000c36442b4a4522e871399cd717abdd847ab11fe88"
                    ]
                },
                "nodeType": 1
            },
            "19": {
                "invocation": {
                    "address": "0x414a26eaa23583715d71b3294f0bf5eabdd2eaa8",
                    "callData": "0x",
                    "decodedMethod": null,
                    "errorInfo": "",
                    "fromAddress": "0xc36442b4a4522e871399cd717abdd847ab11fe88",
                    "gasUsed": 0,
                    "id": 19,
                    "methodDecoded": false,
                    "operation": "CALL",
                    "output": "",
                    "revert": false,
                    "revertMessage": "",
                    "selector": "fallback",
                    "status": true,
                    "value": "0.183138137977610313"
                },
                "nodeType": 0
            },
            "2": {
                "invocation": {
                    "address": "0xe9e12db15d8a0ec338f148ffd9dc9606312a6b28",
                    "callData": "0xffffffffffffffffffffffffffffffffffffffffffffffffffffffffffff0470ffffffffffffffffffffffffffffffffffffffffffffffffffffffffffff1348000000000000000000000000000000000000000000000b0f0c3d8ed6190d8590",
                    "decodedMethod": {
                        "callParams": [
                            {
                                "name": "tickLower",
                                "type": "int24",
                                "value": "-64,400"
                            },
                            {
                                "name": "tickUpper",
                                "type": "int24",
                                "value": "-60,600"
                            },
                            {
                                "name": "amount",
                                "type": "uint128",
                                "value": "52,223,614,490,823,969,572,240"
                            }
                        ],
                        "constructorArguments": "",
                        "name": "burn",
                        "returnParams": [
                            {
                                "name": "amount0",
                                "type": "uint256",
                                "value": "226,127,929,139,766,948,645,223"
                            },
                            {
                                "name": "amount1",
                                "type": "uint256",
                                "value": "0"
                            }
                        ],
                        "signature": "burn(int24,int24,uint128)"
                    },
                    "errorInfo": "",
                    "fromAddress": "0xc36442b4a4522e871399cd717abdd847ab11fe88",
                    "gasUsed": 83167,
                    "id": 2,
                    "methodDecoded": true,
                    "operation": "CALL",
                    "output": "0x000000000000000000000000000000000000000000002fe26b6b03808f85c9670000000000000000000000000000000000000000000000000000000000000000",
                    "revert": false,
                    "revertMessage": "",
                    "selector": "0xa34123a7",
                    "status": true,
                    "value": "0"
                },
                "nodeType": 0
            },
            "20": {
                "invocation": {
                    "address": "0xc36442b4a4522e871399cd717abdd847ab11fe88",
                    "callData": "0x000000000000000000000000949d48eca67b17269629c7194f4b727d4ef9e5d6000000000000000000000000000000000000000000002fe89e523fe4c15ad6ee000000000000000000000000414a26eaa23583715d71b3294f0bf5eabdd2eaa8",
                    "decodedMethod": {
                        "callParams": [
                            {
                                "name": "token",
                                "type": "address",
                                "value": "0x949d48eca67b17269629c7194f4b727d4ef9e5d6"
                            },
                            {
                                "name": "amountMinimum",
                                "type": "uint256",
                                "value": "226,242,277,571,031,752,955,630"
                            },
                            {
                                "name": "recipient",
                                "type": "address",
                                "value": "0x414a26eaa23583715d71b3294f0bf5eabdd2eaa8"
                            }
                        ],
                        "constructorArguments": "",
                        "name": "sweepToken",
                        "returnParams": [],
                        "signature": "sweepToken(address,uint256,address)"
                    },
                    "errorInfo": "",
                    "fromAddress": "0xc36442b4a4522e871399cd717abdd847ab11fe88",
                    "gasUsed": 13159,
                    "id": 20,
                    "methodDecoded": true,
                    "operation": "DELEGATECALL",
                    "output": "",
                    "revert": false,
                    "revertMessage": "",
                    "selector": "0xdf2ab5bb",
                    "status": true,
                    "value": "0"
                },
                "nodeType": 0
            },
            "21": {
                "invocation": {
                    "address": "0x949d48eca67b17269629c7194f4b727d4ef9e5d6",
                    "callData": "0x000000000000000000000000c36442b4a4522e871399cd717abdd847ab11fe88",
                    "decodedMethod": {
                        "callParams": [
                            {
                                "name": "account",
                                "type": "address",
                                "value": "0xc36442b4a4522e871399cd717abdd847ab11fe88"
                            }
                        ],
                        "constructorArguments": "",
                        "name": "balanceOf",
                        "returnParams": [
                            {
                                "decimalAvailable": true,
                                "name": "",
                                "type": "uint256",
                                "value": "226,242,277,571,031,752,955,630"
                            }
                        ],
                        "signature": "balanceOf(address)"
                    },
                    "errorInfo": "",
                    "fromAddress": "0xc36442b4a4522e871399cd717abdd847ab11fe88",
                    "gasUsed": 583,
                    "id": 21,
                    "methodDecoded": true,
                    "operation": "STATICCALL",
                    "output": "0x000000000000000000000000000000000000000000002fe89e523fe4c15ad6ee",
                    "revert": false,
                    "revertMessage": "",
                    "selector": "0x70a08231",
                    "status": true,
                    "value": "0"
                },
                "nodeType": 0
            },
            "22": {
                "invocation": {
                    "address": "0x949d48eca67b17269629c7194f4b727d4ef9e5d6",
                    "callData": "0x000000000000000000000000414a26eaa23583715d71b3294f0bf5eabdd2eaa8000000000000000000000000000000000000000000002fe89e523fe4c15ad6ee",
                    "decodedMethod": {
                        "callParams": [
                            {
                                "name": "recipient",
                                "type": "address",
                                "value": "0x414a26eaa23583715d71b3294f0bf5eabdd2eaa8"
                            },
                            {
                                "decimalAvailable": true,
                                "name": "amount",
                                "type": "uint256",
                                "value": "226,242,277,571,031,752,955,630"
                            }
                        ],
                        "constructorArguments": "",
                        "name": "transfer",
                        "returnParams": [
                            {
                                "name": "",
                                "type": "bool",
                                "value": true
                            }
                        ],
                        "signature": "transfer(address,uint256)"
                    },
                    "errorInfo": "",
                    "fromAddress": "0xc36442b4a4522e871399cd717abdd847ab11fe88",
                    "gasUsed": 10628,
                    "id": 22,
                    "methodDecoded": true,
                    "operation": "CALL",
                    "output": "0x0000000000000000000000000000000000000000000000000000000000000001",
                    "revert": false,
                    "revertMessage": "",
                    "selector": "0xa9059cbb",
                    "status": true,
                    "value": "0"
                },
                "nodeType": 0
            },
            "23": {
                "event": {
                    "contract": "0x949d48eca67b17269629c7194f4b727d4ef9e5d6",
                    "decodedLog": {
                        "name": "Transfer",
                        "params": [
                            {
                                "name": "from",
                                "type": "address",
                                "value": "0xc36442b4a4522e871399cd717abdd847ab11fe88"
                            },
                            {
                                "name": "to",
                                "type": "address",
                                "value": "0x414a26eaa23583715d71b3294f0bf5eabdd2eaa8"
                            },
                            {
                                "decimalAvailable": true,
                                "name": "value",
                                "type": "uint256",
                                "value": "226,242,277,571,031,752,955,630"
                            }
                        ],
                        "signature": "Transfer(address,address,uint256)"
                    },
                    "id": 23,
                    "logData": "0x000000000000000000000000000000000000000000002fe89e523fe4c15ad6ee",
                    "logDecoded": true,
                    "operation": "EVENT",
                    "revert": false,
                    "status": true,
                    "topics": [
                        "0xddf252ad1be2c89b69c2b068fc378daa952ba7f163c4a11628f55a4df523b3ef",
                        "0x000000000000000000000000c36442b4a4522e871399cd717abdd847ab11fe88",
                        "0x000000000000000000000000414a26eaa23583715d71b3294f0bf5eabdd2eaa8"
                    ]
                },
                "nodeType": 1
            },
            "3": {
                "event": {
                    "contract": "0xe9e12db15d8a0ec338f148ffd9dc9606312a6b28",
                    "decodedLog": {
                        "name": "Burn",
                        "params": [
                            {
                                "name": "owner",
                                "type": "address",
                                "value": "0xc36442b4a4522e871399cd717abdd847ab11fe88"
                            },
                            {
                                "name": "tickLower",
                                "type": "int24",
                                "value": "-64,400"
                            },
                            {
                                "name": "tickUpper",
                                "type": "int24",
                                "value": "-60,600"
                            },
                            {
                                "name": "amount",
                                "type": "uint128",
                                "value": "52,223,614,490,823,969,572,240"
                            },
                            {
                                "name": "amount0",
                                "type": "uint256",
                                "value": "226,127,929,139,766,948,645,223"
                            },
                            {
                                "name": "amount1",
                                "type": "uint256",
                                "value": "0"
                            }
                        ],
                        "signature": "Burn(address,int24,int24,uint128,uint256,uint256)"
                    },
                    "id": 3,
                    "logData": "0x000000000000000000000000000000000000000000000b0f0c3d8ed6190d8590000000000000000000000000000000000000000000002fe26b6b03808f85c9670000000000000000000000000000000000000000000000000000000000000000",
                    "logDecoded": true,
                    "operation": "EVENT",
                    "revert": false,
                    "status": true,
                    "topics": [
                        "0x0c396cd989a39f4459b5fa1aed6a9a8dcdbc45908acfd67e028cd568da98982c",
                        "0x000000000000000000000000c36442b4a4522e871399cd717abdd847ab11fe88",
                        "0xffffffffffffffffffffffffffffffffffffffffffffffffffffffffffff0470",
                        "0xffffffffffffffffffffffffffffffffffffffffffffffffffffffffffff1348"
                    ]
                },
                "nodeType": 1
            },
            "4": {
                "invocation": {
                    "address": "0xe9e12db15d8a0ec338f148ffd9dc9606312a6b28",
                    "callData": "0xce41939e79db32f454569d12074ac4ea5d2cfa8860a6e2dc74aec633e525c450",
                    "decodedMethod": {
                        "callParams": [
                            {
                                "name": "",
                                "type": "bytes32",
                                "value": "0xce41939e79db32f454569d12074ac4ea5d2cfa8860a6e2dc74aec633e525c450"
                            }
                        ],
                        "constructorArguments": "",
                        "name": "positions",
                        "returnParams": [
                            {
                                "name": "liquidity",
                                "type": "uint128",
                                "value": "905,284,652,007,519,769,017"
                            },
                            {
                                "name": "feeGrowthInside0LastX128",
                                "type": "uint256",
                                "value": "255,926,934,277,563,497,068,196,160,337,436,776,665"
                            },
                            {
                                "name": "feeGrowthInside1LastX128",
                                "type": "uint256",
                                "value": "524,186,048,151,547,076,598,986,707,775,303,027"
                            },
                            {
                                "name": "tokensOwed0",
                                "type": "uint128",
                                "value": "226,244,259,775,458,130,852,777"
                            },
                            {
                                "name": "tokensOwed1",
                                "type": "uint128",
                                "value": "186,312,796,551,606,506"
                            }
                        ],
                        "signature": "positions(bytes32)"
                    },
                    "errorInfo": "",
                    "fromAddress": "0xc36442b4a4522e871399cd717abdd847ab11fe88",
                    "gasUsed": 1013,
                    "id": 4,
                    "methodDecoded": true,
                    "operation": "STATICCALL",
                    "output": "0x00000000000000000000000000000000000000000000003113592a98e15551b900000000000000000000000000000000c089bc10b6d56dc425b1ffe8e62098d9000000000000000000000000000000000064f45e1651bf60cfc2b29d0eb0ad73000000000000000000000000000000000000000000002fe8b9d4745133d0fba90000000000000000000000000000000000000000000000000295ea80579170ea",
                    "revert": false,
                    "revertMessage": "",
                    "selector": "0x514ea4bf",
                    "status": true,
                    "value": "0"
                },
                "nodeType": 0
            },
            "5": {
                "event": {
                    "contract": "0xc36442b4a4522e871399cd717abdd847ab11fe88",
                    "decodedLog": {
                        "name": "DecreaseLiquidity",
                        "params": [
                            {
                                "name": "tokenId",
                                "type": "uint256",
                                "value": "163,078"
                            },
                            {
                                "name": "liquidity",
                                "type": "uint128",
                                "value": "52,223,614,490,823,969,572,240"
                            },
                            {
                                "name": "amount0",
                                "type": "uint256",
                                "value": "226,127,929,139,766,948,645,223"
                            },
                            {
                                "name": "amount1",
                                "type": "uint256",
                                "value": "0"
                            }
                        ],
                        "signature": "DecreaseLiquidity(uint256,uint128,uint256,uint256)"
                    },
                    "id": 5,
                    "logData": "0x000000000000000000000000000000000000000000000b0f0c3d8ed6190d8590000000000000000000000000000000000000000000002fe26b6b03808f85c9670000000000000000000000000000000000000000000000000000000000000000",
                    "logDecoded": true,
                    "operation": "EVENT",
                    "revert": false,
                    "status": true,
                    "topics": [
                        "0x26f6a048ee9138f2c0ce266f322cb99228e8d619ae2bff30c67f8dcf9d2377b4",
                        "0x0000000000000000000000000000000000000000000000000000000000027d06"
                    ]
                },
                "nodeType": 1
            },
            "6": {
                "invocation": {
                    "address": "0xc36442b4a4522e871399cd717abdd847ab11fe88",
                    "callData": "0x0000000000000000000000000000000000000000000000000000000000027d06000000000000000000000000000000000000000000000000000000000000000000000000000000000000000000000000ffffffffffffffffffffffffffffffff00000000000000000000000000000000ffffffffffffffffffffffffffffffff",
                    "decodedMethod": {
                        "callParams": [
                            {
                                "name": "params",
                                "type": "(uint256,address,uint128,uint128)",
                                "value": [
                                    {
                                        "name": "tokenId",
                                        "type": "uint256",
                                        "value": "163,078"
                                    },
                                    {
                                        "name": "recipient",
                                        "type": "address",
                                        "value": "0x0000000000000000000000000000000000000000"
                                    },
                                    {
                                        "name": "amount0Max",
                                        "type": "uint128",
                                        "value": "340,282,366,920,938,463,463,374,607,431,768,211,455"
                                    },
                                    {
                                        "name": "amount1Max",
                                        "type": "uint128",
                                        "value": "340,282,366,920,938,463,463,374,607,431,768,211,455"
                                    }
                                ]
                            }
                        ],
                        "constructorArguments": "",
                        "name": "collect",
                        "returnParams": [
                            {
                                "name": "amount0",
                                "type": "uint256",
                                "value": "226,242,277,571,031,752,955,630"
                            },
                            {
                                "name": "amount1",
                                "type": "uint256",
                                "value": "183,138,137,977,610,313"
                            }
                        ],
                        "signature": "collect((uint256,address,uint128,uint128))"
                    },
                    "errorInfo": "",
                    "fromAddress": "0xc36442b4a4522e871399cd717abdd847ab11fe88",
                    "gasUsed": 87083,
                    "id": 6,
                    "methodDecoded": true,
                    "operation": "DELEGATECALL",
                    "output": "0x000000000000000000000000000000000000000000002fe89e523fe4c15ad6ee000000000000000000000000000000000000000000000000028aa32a8afb6049",
                    "revert": false,
                    "revertMessage": "",
                    "selector": "0xfc6f7865",
                    "status": true,
                    "value": "0"
                },
                "nodeType": 0
            },
            "7": {
                "invocation": {
                    "address": "0xe9e12db15d8a0ec338f148ffd9dc9606312a6b28",
                    "callData": "0x000000000000000000000000c36442b4a4522e871399cd717abdd847ab11fe88ffffffffffffffffffffffffffffffffffffffffffffffffffffffffffff0470ffffffffffffffffffffffffffffffffffffffffffffffffffffffffffff1348000000000000000000000000000000000000000000002fe89e523fe4c15ad6ee000000000000000000000000000000000000000000000000028aa32a8afb6049",
                    "decodedMethod": {
                        "callParams": [
                            {
                                "name": "recipient",
                                "type": "address",
                                "value": "0xc36442b4a4522e871399cd717abdd847ab11fe88"
                            },
                            {
                                "name": "tickLower",
                                "type": "int24",
                                "value": "-64,400"
                            },
                            {
                                "name": "tickUpper",
                                "type": "int24",
                                "value": "-60,600"
                            },
                            {
                                "name": "amount0Requested",
                                "type": "uint128",
                                "value": "226,242,277,571,031,752,955,630"
                            },
                            {
                                "name": "amount1Requested",
                                "type": "uint128",
                                "value": "183,138,137,977,610,313"
                            }
                        ],
                        "constructorArguments": "",
                        "name": "collect",
                        "returnParams": [
                            {
                                "name": "amount0",
                                "type": "uint128",
                                "value": "226,242,277,571,031,752,955,630"
                            },
                            {
                                "name": "amount1",
                                "type": "uint128",
                                "value": "183,138,137,977,610,313"
                            }
                        ],
                        "signature": "collect(address,int24,int24,uint128,uint128)"
                    },
                    "errorInfo": "",
                    "fromAddress": "0xc36442b4a4522e871399cd717abdd847ab11fe88",
                    "gasUsed": 79615,
                    "id": 7,
                    "methodDecoded": true,
                    "operation": "CALL",
                    "output": "0x000000000000000000000000000000000000000000002fe89e523fe4c15ad6ee000000000000000000000000000000000000000000000000028aa32a8afb6049",
                    "revert": false,
                    "revertMessage": "",
                    "selector": "0x4f1eb3d8",
                    "status": true,
                    "value": "0"
                },
                "nodeType": 0
            },
            "8": {
                "invocation": {
                    "address": "0x949d48eca67b17269629c7194f4b727d4ef9e5d6",
                    "callData": "0x000000000000000000000000c36442b4a4522e871399cd717abdd847ab11fe88000000000000000000000000000000000000000000002fe89e523fe4c15ad6ee",
                    "decodedMethod": {
                        "callParams": [
                            {
                                "name": "recipient",
                                "type": "address",
                                "value": "0xc36442b4a4522e871399cd717abdd847ab11fe88"
                            },
                            {
                                "decimalAvailable": true,
                                "name": "amount",
                                "type": "uint256",
                                "value": "226,242,277,571,031,752,955,630"
                            }
                        ],
                        "constructorArguments": "",
                        "name": "transfer",
                        "returnParams": [
                            {
                                "name": "",
                                "type": "bool",
                                "value": true
                            }
                        ],
                        "signature": "transfer(address,uint256)"
                    },
                    "errorInfo": "",
                    "fromAddress": "0xe9e12db15d8a0ec338f148ffd9dc9606312a6b28",
                    "gasUsed": 34528,
                    "id": 8,
                    "methodDecoded": true,
                    "operation": "CALL",
                    "output": "0x0000000000000000000000000000000000000000000000000000000000000001",
                    "revert": false,
                    "revertMessage": "",
                    "selector": "0xa9059cbb",
                    "status": true,
                    "value": "0"
                },
                "nodeType": 0
            },
            "9": {
                "event": {
                    "contract": "0x949d48eca67b17269629c7194f4b727d4ef9e5d6",
                    "decodedLog": {
                        "name": "Transfer",
                        "params": [
                            {
                                "name": "from",
                                "type": "address",
                                "value": "0xe9e12db15d8a0ec338f148ffd9dc9606312a6b28"
                            },
                            {
                                "name": "to",
                                "type": "address",
                                "value": "0xc36442b4a4522e871399cd717abdd847ab11fe88"
                            },
                            {
                                "decimalAvailable": true,
                                "name": "value",
                                "type": "uint256",
                                "value": "226,242,277,571,031,752,955,630"
                            }
                        ],
                        "signature": "Transfer(address,address,uint256)"
                    },
                    "id": 9,
                    "logData": "0x000000000000000000000000000000000000000000002fe89e523fe4c15ad6ee",
                    "logDecoded": true,
                    "operation": "EVENT",
                    "revert": false,
                    "status": true,
                    "topics": [
                        "0xddf252ad1be2c89b69c2b068fc378daa952ba7f163c4a11628f55a4df523b3ef",
                        "0x000000000000000000000000e9e12db15d8a0ec338f148ffd9dc9606312a6b28",
                        "0x000000000000000000000000c36442b4a4522e871399cd717abdd847ab11fe88"
                    ]
                },
                "nodeType": 1
            }
        },
        "gasFlame": [
            {
                "children": [
                    {
                        "children": [
                            {
                                "children": [],
                                "depth": 0,
                                "name": "Initial Gas",
                                "value": 26676
                            },
                            {
                                "children": [
                                    {
                                        "children": [
                                            {
                                                "children": [],
                                                "depth": 2,
                                                "name": "burn",
                                                "value": 83167
                                            },
                                            {
                                                "children": [],
                                                "depth": 2,
                                                "name": "positions",
                                                "value": 1013
                                            }
                                        ],
                                        "depth": 1,
                                        "name": "decreaseLiquidity",
                                        "value": 143011
                                    },
                                    {
                                        "children": [
                                            {
                                                "children": [
                                                    {
                                                        "children": [],
                                                        "depth": 3,
                                                        "name": "transfer",
                                                        "value": 34528
                                                    },
                                                    {
                                                        "children": [],
                                                        "depth": 3,
                                                        "name": "transfer",
                                                        "value": 29962
                                                    }
                                                ],
                                                "depth": 2,
                                                "name": "collect",
                                                "value": 79615
                                            }
                                        ],
                                        "depth": 1,
                                        "name": "collect",
                                        "value": 87083
                                    },
                                    {
                                        "children": [
                                            {
                                                "children": [],
                                                "depth": 2,
                                                "name": "balanceOf",
                                                "value": 534
                                            },
                                            {
                                                "children": [
                                                    {
                                                        "children": [],
                                                        "depth": 3,
                                                        "name": "fallback",
                                                        "value": 95
                                                    }
                                                ],
                                                "depth": 2,
                                                "name": "withdraw",
                                                "value": 9235
                                            },
                                            {
                                                "children": [],
                                                "depth": 2,
                                                "name": "fallback",
                                                "value": 0
                                            }
                                        ],
                                        "depth": 1,
                                        "name": "unwrapWETH9",
                                        "value": 18222
                                    },
                                    {
                                        "children": [
                                            {
                                                "children": [],
                                                "depth": 2,
                                                "name": "balanceOf",
                                                "value": 583
                                            },
                                            {
                                                "children": [],
                                                "depth": 2,
                                                "name": "transfer",
                                                "value": 10628
                                            }
                                        ],
                                        "depth": 1,
                                        "name": "sweepToken",
                                        "value": 13159
                                    }
                                ],
                                "depth": 0,
                                "name": "Executed Gas",
                                "value": 266730
                            }
                        ],
                        "depth": -1,
                        "name": "Actual Gas Used",
                        "value": 234725
                    },
                    {
                        "children": [],
                        "depth": -1,
                        "name": "Refunded Gas",
                        "value": 58681
                    }
                ],
                "depth": -2,
                "name": "Total Gas",
                "value": 293406
            }
        ],
        "isConfirmed": true,
        "mainTrace": [
            {
                "children": [
                    {
                        "children": [
                            {
                                "children": [
                                    {
                                        "children": [
                                            {
                                                "children": [],
                                                "depth": 3,
                                                "id": 3,
                                                "order": 3
                                            }
                                        ],
                                        "depth": 2,
                                        "id": 2,
                                        "order": 2
                                    },
                                    {
                                        "children": [],
                                        "depth": 2,
                                        "id": 4,
                                        "order": 4
                                    },
                                    {
                                        "children": [],
                                        "depth": 2,
                                        "id": 5,
                                        "order": 5
                                    }
                                ],
                                "depth": 1,
                                "id": 1,
                                "order": 1
                            },
                            {
                                "children": [
                                    {
                                        "children": [
                                            {
                                                "children": [
                                                    {
                                                        "children": [],
                                                        "depth": 4,
                                                        "id": 9,
                                                        "order": 9
                                                    }
                                                ],
                                                "depth": 3,
                                                "id": 8,
                                                "order": 8
                                            },
                                            {
                                                "children": [
                                                    {
                                                        "children": [],
                                                        "depth": 4,
                                                        "id": 11,
                                                        "order": 11
                                                    }
                                                ],
                                                "depth": 3,
                                                "id": 10,
                                                "order": 10
                                            },
                                            {
                                                "children": [],
                                                "depth": 3,
                                                "id": 12,
                                                "order": 12
                                            }
                                        ],
                                        "depth": 2,
                                        "id": 7,
                                        "order": 7
                                    },
                                    {
                                        "children": [],
                                        "depth": 2,
                                        "id": 13,
                                        "order": 13
                                    }
                                ],
                                "depth": 1,
                                "id": 6,
                                "order": 6
                            },
                            {
                                "children": [
                                    {
                                        "children": [],
                                        "depth": 2,
                                        "id": 15,
                                        "order": 15
                                    },
                                    {
                                        "children": [
                                            {
                                                "children": [],
                                                "depth": 3,
                                                "id": 17,
                                                "order": 17
                                            },
                                            {
                                                "children": [],
                                                "depth": 3,
                                                "id": 18,
                                                "order": 18
                                            }
                                        ],
                                        "depth": 2,
                                        "id": 16,
                                        "order": 16
                                    },
                                    {
                                        "children": [],
                                        "depth": 2,
                                        "id": 19,
                                        "order": 19
                                    }
                                ],
                                "depth": 1,
                                "id": 14,
                                "order": 14
                            },
                            {
                                "children": [
                                    {
                                        "children": [],
                                        "depth": 2,
                                        "id": 21,
                                        "order": 21
                                    },
                                    {
                                        "children": [
                                            {
                                                "children": [],
                                                "depth": 3,
                                                "id": 23,
                                                "order": 23
                                            }
                                        ],
                                        "depth": 2,
                                        "id": 22,
                                        "order": 22
                                    }
                                ],
                                "depth": 1,
                                "id": 20,
                                "order": 20
                            }
                        ],
                        "depth": 0,
                        "id": 0,
                        "order": 0
                    }
                ],
                "depth": -1,
                "id": -1,
                "order": -1
            }
        ],
        "mainTraceNodeCount": 24,
        "parentIdMap": {
            "0": -1,
            "1": 0,
            "10": 7,
            "11": 10,
            "12": 7,
            "13": 6,
            "14": 0,
            "15": 14,
            "16": 14,
            "17": 16,
            "18": 16,
            "19": 14,
            "2": 1,
            "20": 0,
            "21": 20,
            "22": 20,
            "23": 22,
            "3": 2,
            "4": 1,
            "5": 1,
            "6": 0,
            "7": 6,
            "8": 7,
            "9": 8
        },
        "tidyTrace": [
            {
                "children": [
                    {
                        "children": [
                            {
                                "children": [
                                    {
                                        "children": [
                                            {
                                                "children": [],
                                                "depth": 3,
                                                "id": 3,
                                                "order": 3
                                            }
                                        ],
                                        "depth": 2,
                                        "id": 2,
                                        "order": 2
                                    },
                                    {
                                        "children": [],
                                        "depth": 2,
                                        "id": 5,
                                        "order": 5
                                    }
                                ],
                                "depth": 1,
                                "id": 1,
                                "order": 1
                            },
                            {
                                "children": [
                                    {
                                        "children": [
                                            {
                                                "children": [
                                                    {
                                                        "children": [],
                                                        "depth": 4,
                                                        "id": 9,
                                                        "order": 9
                                                    }
                                                ],
                                                "depth": 3,
                                                "id": 8,
                                                "order": 8
                                            },
                                            {
                                                "children": [
                                                    {
                                                        "children": [],
                                                        "depth": 4,
                                                        "id": 11,
                                                        "order": 11
                                                    }
                                                ],
                                                "depth": 3,
                                                "id": 10,
                                                "order": 10
                                            },
                                            {
                                                "children": [],
                                                "depth": 3,
                                                "id": 12,
                                                "order": 12
                                            }
                                        ],
                                        "depth": 2,
                                        "id": 7,
                                        "order": 7
                                    },
                                    {
                                        "children": [],
                                        "depth": 2,
                                        "id": 13,
                                        "order": 13
                                    }
                                ],
                                "depth": 1,
                                "id": 6,
                                "order": 6
                            },
                            {
                                "children": [
                                    {
                                        "children": [
                                            {
                                                "children": [],
                                                "depth": 3,
                                                "id": 17,
                                                "order": 17
                                            },
                                            {
                                                "children": [],
                                                "depth": 3,
                                                "id": 18,
                                                "order": 18
                                            }
                                        ],
                                        "depth": 2,
                                        "id": 16,
                                        "order": 16
                                    },
                                    {
                                        "children": [],
                                        "depth": 2,
                                        "id": 19,
                                        "order": 19
                                    }
                                ],
                                "depth": 1,
                                "id": 14,
                                "order": 14
                            },
                            {
                                "children": [
                                    {
                                        "children": [
                                            {
                                                "children": [],
                                                "depth": 3,
                                                "id": 23,
                                                "order": 23
                                            }
                                        ],
                                        "depth": 2,
                                        "id": 22,
                                        "order": 22
                                    }
                                ],
                                "depth": 1,
                                "id": 20,
                                "order": 20
                            }
                        ],
                        "depth": 0,
                        "id": 0,
                        "order": 0
                    }
                ],
                "depth": -1,
                "id": -1,
                "order": -1
            }
        ],
        "tidyTraceNodeCount": 21
    },
    "state_change": {
        "stateChanges": [
            {
                "address": "0x949d48eca67b17269629c7194f4b727d4ef9e5d6",
                "erc": "ERC-20",
                "slots": [
                    {
                        "current": "0x000000000000000000000000000000000000000000002fe89e523fe4c15ad6f1",
                        "key": "0xe592dc37c0b231dd7b345993edc646e9006e501818c8b5f546d07e03b10c0ee3",
                        "prev": "0x0000000000000000000000000000000000000000000000000000000000000003"
                    },
                    {
                        "current": "0x0000000000000000000000000000000000000000000054591ea77453582f3c07",
                        "key": "0x1dbf7f2c5d0a1fc36ee328e7c7505f3152fabc4a9d9ef9f97396ba74f42b5ec3",
                        "prev": "0x000000000000000000000000000000000000000000008441bcf9b438198a12f5"
                    }
                ],
                "storageVariables": [
                    {
                        "name": "_balances",
                        "type": "mapping(address => uint256)",
                        "value": {
                            "pairs": [
                                {
                                    "key": "0x414a26eaa23583715d71b3294f0bf5eabdd2eaa8",
                                    "value": {
                                        "current": "226242277571031752955633",
                                        "prev": "3",
                                        "typeTag": 1
                                    }
                                },
                                {
                                    "key": "0xe9e12db15d8a0ec338f148ffd9dc9606312a6b28",
                                    "value": {
                                        "current": "398322753645653907160071",
                                        "prev": "624565031216685660115701",
                                        "typeTag": 1
                                    }
                                }
                            ],
                            "typeTag": 4
                        }
                    }
                ]
            },
            {
                "address": "0xc02aaa39b223fe8d0a0e5c4f27ead9083c756cc2",
                "erc": "ERC-20",
                "slots": [
                    {
                        "current": "0x000000000000000000000000000000000000000000000006028693b5754697d0",
                        "key": "0xcc4fea3be0962c16527ef984b76f7f271578db64c32e8a06b3096abd3aa39542",
                        "prev": "0x000000000000000000000000000000000000000000000006051136e00041f819"
                    }
                ],
                "storageVariables": [
                    {
                        "name": "balanceOf",
                        "type": "mapping(address => uint256)",
                        "value": {
                            "pairs": [
                                {
                                    "key": "0xe9e12db15d8a0ec338f148ffd9dc9606312a6b28",
                                    "value": {
                                        "current": "110862459684778317776",
                                        "prev": "111045597822755928089",
                                        "typeTag": 1
                                    }
                                }
                            ],
                            "typeTag": 4
                        }
                    }
                ]
            },
            {
                "address": "0xc36442b4a4522e871399cd717abdd847ab11fe88",
                "erc": "ERC-721",
                "slots": [
                    {
                        "current": "0x00000000000000000000000000000000c089bc10b6d56dc425b1ffe8e62098d9",
                        "key": "0xf1a3cfe3ea54d7633150e6f3edb6b2c7509675995ee2b946e5869f20b4a827aa",
                        "prev": "0x00000000000000000000000000000000bffa3ccccf76d2bcf2c5159c8802d063"
                    },
                    {
                        "current": "0x000000000000000000000000000000000064f45e1651bf60cfc2b29d0eb0ad73",
                        "key": "0xf1a3cfe3ea54d7633150e6f3edb6b2c7509675995ee2b946e5869f20b4a827ab",
                        "prev": "0x000000000000000000000000000000000064b988773914531564e6ff2b3dcf5b"
                    },
                    {
                        "current": "0x00000000000000000000000000000000ff1348ff0470000000000000000012b7",
                        "key": "0xf1a3cfe3ea54d7633150e6f3edb6b2c7509675995ee2b946e5869f20b4a827a9",
                        "prev": "0x0000000000000b0f0c3d8ed6190d8590ff1348ff0470000000000000000012b7"
                    }
                ],
                "storageVariables": [
                    {
                        "name": "_positions",
                        "type": "mapping(uint256 => struct NonfungiblePositionManager.Position)",
                        "value": {
                            "pairs": [
                                {
                                    "key": "163078",
                                    "value": {
                                        "fields": [
                                            {
                                                "name": "poolId",
                                                "type": "uint80",
                                                "value": {
                                                    "current": "4791",
                                                    "prev": "4791",
                                                    "typeTag": 1
                                                }
                                            },
                                            {
                                                "name": "tickLower",
                                                "type": "int24",
                                                "value": {
                                                    "current": "-64400",
                                                    "prev": "-64400",
                                                    "typeTag": 1
                                                }
                                            },
                                            {
                                                "name": "tickUpper",
                                                "type": "int24",
                                                "value": {
                                                    "current": "-60600",
                                                    "prev": "-60600",
                                                    "typeTag": 1
                                                }
                                            },
                                            {
                                                "name": "liquidity",
                                                "type": "uint128",
                                                "value": {
                                                    "current": "0",
                                                    "prev": "52223614490823969572240",
                                                    "typeTag": 1
                                                }
                                            },
                                            {
                                                "name": "feeGrowthInside0LastX128",
                                                "type": "uint256",
                                                "value": {
                                                    "current": "255926934277563497068196160337436776665",
                                                    "prev": "255181854580881056104085734555060981859",
                                                    "typeTag": 1
                                                }
                                            },
                                            {
                                                "name": "feeGrowthInside1LastX128",
                                                "type": "uint256",
                                                "value": {
                                                    "current": "524186048151547076598986707775303027",
                                                    "prev": "522992743557981182240516104475496283",
                                                    "typeTag": 1
                                                }
                                            }
                                        ],
                                        "typeTag": 3
                                    }
                                }
                            ],
                            "typeTag": 4
                        }
                    }
                ]
            },
            {
                "address": "0xe9e12db15d8a0ec338f148ffd9dc9606312a6b28",
                "erc": "",
                "slots": [
                    {
                        "current": "0x000000000000005fbe935a303d1735e9000000000000005fbe935a303d1735e9",
                        "key": "0x5299c70b030779b44e666701f4a8a5d8920788e09fdb7ec6abfe50816bc2ecf7",
                        "prev": "0x0000000000000b6ecad0e9065624bb790000000000000b6ecad0e9065624bb79"
                    },
                    {
                        "current": "0xffffffffffffff4c3fde6ab22a9a8c0500000000000000b3c021954dd56573fb",
                        "key": "0xb0f8f9f4a9e77857d04f0465cc243c900e3f6a35ee9aeb038ed05e5989423211",
                        "prev": "0xfffffffffffff43d33a0dbdc118d06750000000000000bc2cc5f2423ee72f98b"
                    },
                    {
                        "current": "0x00000000000000000000000000000000000000000000003113592a98e15551b9",
                        "key": "0x7312d2bbb71fcf6645860a09d37aa3cb607b6ce83794c6727a7bd49863353219",
                        "prev": "0x000000000000000000000000000000000000000000000b401f96b96efa62d749"
                    },
                    {
                        "current": "0x00000000000000000000000000000000c089bc10b6d56dc425b1ffe8e62098d9",
                        "key": "0x7312d2bbb71fcf6645860a09d37aa3cb607b6ce83794c6727a7bd4986335321a",
                        "prev": "0x00000000000000000000000000000000bffa3ccccf76d2bcf2c5159c8802d063"
                    },
                    {
                        "current": "0x000000000000000000000000000000000064f45e1651bf60cfc2b29d0eb0ad73",
                        "key": "0x7312d2bbb71fcf6645860a09d37aa3cb607b6ce83794c6727a7bd4986335321b",
                        "prev": "0x000000000000000000000000000000000064b988773914531564e6ff2b3dcf5b"
                    },
                    {
                        "current": "0x0000000000000000000b4755cc9610a100000000000000001b82346c727624bb",
                        "key": "0x7312d2bbb71fcf6645860a09d37aa3cb607b6ce83794c6727a7bd4986335321c",
                        "prev": "0x0000000000000000000000000000000000000000000000000000000000000000"
                    }
                ],
                "storageVariables": []
            }
        ]
    }
}