{
    "balance_change": {
        "balanceChanges": [
            {
                "account": "0x3446a0e1b13eebe0464db49607c49776fbbf2b00",
                "assets": [
                    {
                        "address": "0xca6d7604ae55ba1ba864c26692a91979f25cdb96",
                        "amount": "1",
                        "iconUrl": "",
                        "isERC1155": false,
                        "isERC721": true,
                        "sign": true,
                        "tokenID": "4505",
                        "value": ""
                    }
                ]
            },
            {
                "account": "0x0000000000000000000000000000000000000000",
                "assets": [
                    {
                        "address": "0xca6d7604ae55ba1ba864c26692a91979f25cdb96",
                        "amount": "1",
                        "iconUrl": "",
                        "isERC1155": false,
                        "isERC721": true,
                        "sign": false,
                        "tokenID": "4505",
                        "value": ""
                    }
                ]
            }
        ]
    },
    "profile": {
        "basic_info": {
            "baseFee": "10.475761316",
            "blockNumber": 16090251,
            "callData": "0x962cb60200000000000000000000000000000000000000000000000000000000000000200000000000000000000000000000000000000000000000000000000000000041820923c4e6928297f855fe3367773f9c86881b2e6d4540093850391f22abf8035abcc17309f40ca8ce371d5574698adcb3d3198e54b330496ecd81e7d48eafba1b00000000000000000000000000000000000000000000000000000000000000",
            "debugEnable": true,
            "errorInfo": "",
            "eventCount": 1,
            "feeRecipient": "0xfeebabe6b0418ec13b30aadf129f5dcdd4f70cea",
            "formatValue": "0",
            "gasLimit": 58896,
            "gasPrice": "11.975761316",
            "gasUsed": 53470,
            "intTxnCount": 2,
            "internalRevert": false,
            "internalRevertMessage": "",
            "isContractCreation": false,
            "isFlashloan": false,
            "maxFee": "15.321434146",
            "nonce": 9,
            "overwritedBlockNumber": -1,
            "priorityFee": "1.5",
            "receiver": "0xca6d7604ae55ba1ba864c26692a91979f25cdb96",
            "revertMessage": "",
            "sender": "0x3446a0e1b13eebe0464db49607c49776fbbf2b00",
            "simulationEnable": true,
            "sourceTxnHash": "0x73a36aaf2eddcd63af2ab2be53f51607511a8fc4ec3813f1945f932c7ac76b51",
            "status": true,
            "timestamp": "2022-12-01T13:27:35Z",
            "transactionFee": "0.00064034395756652",
            "txnHash": "0x73a36aaf2eddcd63af2ab2be53f51607511a8fc4ec3813f1945f932c7ac76b51",
            "txnIndex": 102,
            "type": 2,
            "value": "0"
        },
        "fund_flow": [
            {
                "amount": "1",
                "from": "0x0000000000000000000000000000000000000000",
                "id": 1,
                "isERC1155": false,
                "isERC721": true,
                "isReverted": false,
                "order": 1,
                "to": "0x3446a0e1b13eebe0464db49607c49776fbbf2b00",
                "token": "0xca6d7604ae55ba1ba864c26692a91979f25cdb96",
                "tokenID": "4505"
            }
        ],
        "token_infos": [
            {
                "address": "0xc02aaa39b223fe8d0a0e5c4f27ead9083c756cc2",
                "decimals": 18
            },
            {
                "address": "0xeeeeeeeeeeeeeeeeeeeeeeeeeeeeeeeeeeeeeeee",
                "decimals": 18
            }
        ]
    },
    "address_label": {
        "labels": [
            {
                "address": "0xca6d7604ae55ba1ba864c26692a91979f25cdb96",
                "label": "Daily Cargo: DC Token"
            },
            {
                "address": "0x27427a8f21a499b766a51a4b6efa547d943fe6fd",
                "label": "FreeNFTDailyCargo"
            },
            {
                "address": "0x0000000000000000000000000000000000000001",
                "label": "Precompiled"
            },
            {
                "address": "0x0000000000000000000000000000000000000002",
                "label": "Precompiled"
            },
            {
                "address": "0x0000000000000000000000000000000000000003",
                "label": "Precompiled"
            },
            {
                "address": "0x0000000000000000000000000000000000000004",
                "label": "Precompiled"
            },
            {
                "address": "0xeeeeeeeeeeeeeeeeeeeeeeeeeeeeeeeeeeeeeeee",
                "label": "Ether"
            }
        ]
    },
    "trace": {
        "accountLabels": null,
        "dataMap": {
            "-1": {
                "invocation": {
                    "address": "0x3446a0e1b13eebe0464db49607c49776fbbf2b00",
                    "callData": "",
                    "decodedMethod": null,
                    "errorInfo": "",
                    "fromAddress": "",
                    "gasUsed": 0,
                    "id": -1,
                    "methodDecoded": false,
                    "operation": "",
                    "output": "",
                    "revert": false,
                    "revertMessage": "",
                    "selector": "",
                    "status": false,
                    "value": ""
                },
                "nodeType": 0
            },
            "0": {
                "invocation": {
                    "address": "0xca6d7604ae55ba1ba864c26692a91979f25cdb96",
                    "callData": "0x00000000000000000000000000000000000000000000000000000000000000200000000000000000000000000000000000000000000000000000000000000041820923c4e6928297f855fe3367773f9c86881b2e6d4540093850391f22abf8035abcc17309f40ca8ce371d5574698adcb3d3198e54b330496ecd81e7d48eafba1b00000000000000000000000000000000000000000000000000000000000000",
                    "decodedMethod": {
                        "callParams": [
                            {
                                "name": "_signature",
                                "type": "bytes",
                                "value": "0x820923c4e6928297f855fe3367773f9c86881b2e6d4540093850391f22abf8035abcc17309f40ca8ce371d5574698adcb3d3198e54b330496ecd81e7d48eafba1b"
                            }
                        ],
                        "constructorArguments": "",
                        "name": "getDailyCargo",
                        "returnParams": [],
                        "signature": "getDailyCargo(bytes)"
                    },
                    "errorInfo": "",
                    "fromAddress": "0x3446a0e1b13eebe0464db49607c49776fbbf2b00",
                    "gasUsed": 53470,
                    "id": 0,
                    "methodDecoded": true,
                    "operation": "CALL",
                    "output": "",
                    "revert": false,
                    "revertMessage": "",
                    "selector": "0x962cb602",
                    "status": true,
                    "value": "0"
                },
                "nodeType": 0
            },
            "1": {
                "invocation": {
                    "address": "0x27427a8f21a499b766a51a4b6efa547d943fe6fd",
                    "callData": "0x00000000000000000000000000000000000000000000000000000000000000200000000000000000000000000000000000000000000000000000000000000041820923c4e6928297f855fe3367773f9c86881b2e6d4540093850391f22abf8035abcc17309f40ca8ce371d5574698adcb3d3198e54b330496ecd81e7d48eafba1b00000000000000000000000000000000000000000000000000000000000000",
                    "decodedMethod": {
                        "callParams": [
                            {
                                "name": "_signature",
                                "type": "bytes",
                                "value": "0x820923c4e6928297f855fe3367773f9c86881b2e6d4540093850391f22abf8035abcc17309f40ca8ce371d5574698adcb3d3198e54b330496ecd81e7d48eafba1b"
                            }
                        ],
                        "constructorArguments": "",
                        "name": "getDailyCargo",
                        "returnParams": [],
                        "signature": "getDailyCargo(bytes)"
                    },
                    "errorInfo": "",
                    "fromAddress": "0xca6d7604ae55ba1ba864c26692a91979f25cdb96",
                    "gasUsed": 28715,
                    "id": 1,
                    "methodDecoded": true,
                    "operation": "DELEGATECALL",
                    "output": "",
                    "revert": false,
                    "revertMessage": "",
                    "selector": "0x962cb602",
                    "status": true,
                    "value": "0"
                },
                "nodeType": 0
            },
            "2": {
                "invocation": {
                    "address": "0x0000000000000000000000000000000000000001",
                    "callData": "0x15795453136e4669d8c45c9bbe56812c3f760747bc5cde70de3288ca000000000000000000000000000000000000000000000000000000000000001b820923c4e6928297f855fe3367773f9c86881b2e6d4540093850391f22abf8035abcc17309f40ca8ce371d5574698adcb3d3198e54b330496ecd81e7d48eafba",
                    "decodedMethod": {
                        "callParams": [
                            {
                                "name": "hash",
                                "type": "bytes32",
                                "value": "0x4f669a8415795453136e4669d8c45c9bbe56812c3f760747bc5cde70de3288ca"
                            },
                            {
                                "name": "v",
                                "type": "uint256",
                                "value": "27"
                            },
                            {
                                "name": "r",
                                "type": "bytes32",
                                "value": "0x820923c4e6928297f855fe3367773f9c86881b2e6d4540093850391f22abf803"
                            },
                            {
                                "name": "s",
                                "type": "bytes32",
                                "value": "0x5abcc17309f40ca8ce371d5574698adcb3d3198e54b330496ecd81e7d48eafba"
                            }
                        ],
                        "constructorArguments": "",
                        "name": "ecrecover",
                        "returnParams": [
                            {
                                "name": "",
                                "type": "address",
                                "value": "0x600fcd40bd2ee94e2113f617cb28c977a9c1008d"
                            }
                        ],
                        "signature": "ecrecover(bytes32,uint256,bytes32,bytes32)"
                    },
                    "errorInfo": "",
                    "fromAddress": "0xca6d7604ae55ba1ba864c26692a91979f25cdb96",
                    "gasUsed": 3000,
                    "id": 2,
                    "methodDecoded": true,
                    "operation": "STATICCALL",
                    "output": "0x000000000000000000000000600fcd40bd2ee94e2113f617cb28c977a9c1008d",
                    "revert": false,
                    "revertMessage": "",
                    "selector": "0x4f669a84",
                    "status": true,
                    "value": "0"
                },
                "nodeType": 0
            },
            "3": {
                "event": {
                    "contract": "0xca6d7604ae55ba1ba864c26692a91979f25cdb96",
                    "decodedLog": {
                        "name": "Transfer",
                        "params": [
                            {
                                "name": "from",
                                "type": "address",
                                "value": "0x0000000000000000000000000000000000000000"
                            },
                            {
                                "name": "to",
                                "type": "address",
                                "value": "0x3446a0e1b13eebe0464db49607c49776fbbf2b00"
                            },
                            {
                                "decimalAvailable": true,
                                "name": "tokenId",
                                "type": "uint256",
                                "value": "4,505"
                            }
                        ],
                        "signature": "Transfer(address,address,uint256)"
                    },
                    "id": 3,
                    "logData": "0x",
                    "logDecoded": true,
                    "operation": "EVENT",
                    "revert": false,
                    "status": true,
                    "topics": [
                        "0xddf252ad1be2c89b69c2b068fc378daa952ba7f163c4a11628f55a4df523b3ef",
                        "0x0000000000000000000000000000000000000000000000000000000000000000",
                        "0x0000000000000000000000003446a0e1b13eebe0464db49607c49776fbbf2b00",
                        "0x0000000000000000000000000000000000000000000000000000000000001199"
                    ]
                },
                "nodeType": 1
            }
        },
        "gasFlame": [
            {
                "children": [
                    {
                        "children": [
                            {
                                "children": [],
                                "depth": 0,
                                "name": "Initial Gas",
                                "value": 22508
                            },
                            {
                                "children": [
                                    {
                                        "children": [
                                            {
                                                "children": [],
                                                "depth": 2,
                                                "name": "ecrecover",
                                                "value": 3000
                                            }
                                        ],
                                        "depth": 1,
                                        "name": "getDailyCargo",
                                        "value": 28715
                                    }
                                ],
                                "depth": 0,
                                "name": "Executed Gas",
                                "value": 33762
                            }
                        ],
                        "depth": -1,
                        "name": "Actual Gas Used",
                        "value": 53470
                    },
                    {
                        "children": [],
                        "depth": -1,
                        "name": "Refunded Gas",
                        "value": 2800
                    }
                ],
                "depth": -2,
                "name": "Total Gas",
                "value": 56270
            }
        ],
        "isConfirmed": true,
        "mainTrace": [
            {
                "children": [
                    {
                        "children": [
                            {
                                "children": [
                                    {
                                        "children": [],
                                        "depth": 2,
                                        "id": 2,
                                        "order": 2
                                    },
                                    {
                                        "children": [],
                                        "depth": 2,
                                        "id": 3,
                                        "order": 3
                                    }
                                ],
                                "depth": 1,
                                "id": 1,
                                "order": 1
                            }
                        ],
                        "depth": 0,
                        "id": 0,
                        "order": 0
                    }
                ],
                "depth": -1,
                "id": -1,
                "order": -1
            }
        ],
        "mainTraceNodeCount": 4,
        "parentIdMap": {
            "0": -1,
            "1": 0,
            "2": 1,
            "3": 1
        },
        "tidyTrace": [
            {
                "children": [
                    {
                        "children": [
                            {
                                "children": [
                                    {
                                        "children": [],
                                        "depth": 2,
                                        "id": 3,
                                        "order": 3
                                    }
                                ],
                                "depth": 1,
                                "id": 1,
                                "order": 1
                            }
                        ],
                        "depth": 0,
                        "id": 0,
                        "order": 0
                    }
                ],
                "depth": -1,
                "id": -1,
                "order": -1
            }
        ],
        "tidyTraceNodeCount": 3
    },
    "state_change": {
        "stateChanges": [
            {
                "address": "0xca6d7604ae55ba1ba864c26692a91979f25cdb96",
                "erc": "ERC-721",
                "slots": [
                    {
                        "current": "0x000000000000000000000000000011990000000000000006000000006388abc7",
                        "key": "0x263d5c5762d8f204bb22698df88bf79ddcb2a3eb415ad62c36377eb35f392323",
                        "prev": "0x00000000000000000000000000001199000000000000000500000000638758af"
                    },
                    {
                        "current": "0x0000000000000000000000000000000000000000000000000000000000000006",
                        "key": "0xb954bb8cfec6411b9d2d9b6384931db015aa54261bd0981ef0a331a96686570f",
                        "prev": "0x0000000000000000000000000000000000000000000000000000000000000005"
                    }
                ],
                "storageVariables": [
                    {
                        "name": "players",
                        "type": "mapping(address => struct FreeNFTDailyCargo.Player)",
                        "value": {
                            "pairs": [
                                {
                                    "key": "0x3446a0e1b13eebe0464db49607c49776fbbf2b00",
                                    "value": {
                                        "fields": [
                                            {
                                                "name": "lastClaimed",
                                                "type": "uint64",
                                                "value": {
                                                    "current": "1669901255",
                                                    "prev": "1669814447",
                                                    "typeTag": 1
                                                }
                                            },
                                            {
                                                "name": "streak",
                                                "type": "uint64",
                                                "value": {
                                                    "current": "6",
                                                    "prev": "5",
                                                    "typeTag": 1
                                                }
                                            },
                                            {
                                                "name": "activeCargoId",
                                                "type": "uint128",
                                                "value": {
                                                    "current": "4505",
                                                    "prev": "4505",
                                                    "typeTag": 1
                                                }
                                            }
                                        ],
                                        "typeTag": 3
                                    }
                                }
                            ],
                            "typeTag": 4
                        }
                    },
                    {
                        "name": "cargoStreak",
                        "type": "mapping(uint256 => uint256)",
                        "value": {
                            "pairs": [
                                {
                                    "key": "4505",
                                    "value": {
                                        "current": "6",
                                        "prev": "5",
                                        "typeTag": 1
                                    }
                                }
                            ],
                            "typeTag": 4
                        }
                    }
                ]
            }
        ]
    }
}