{
    "balance_change": {
        "balanceChanges": [
            {
                "account": "0xc3af5614cef392f6a05d0e7117d6f64f95ba2ae2",
                "assets": [
                    {
                        "address": "0x31c8eacbffdd875c74b94b077895bd78cf1e64a3",
                        "amount": "340.876397",
                        "iconUrl": "",
                        "isERC1155": false,
                        "isERC721": false,
                        "sign": false,
                        "value": "846.2064704"
                    }
                ]
            },
            {
                "account": "0x0d0707963952f2fba59dd06f2b425ace40b492fe",
                "assets": [
                    {
                        "address": "0x31c8eacbffdd875c74b94b077895bd78cf1e64a3",
                        "amount": "340.876397",
                        "iconUrl": "",
                        "isERC1155": false,
                        "isERC721": false,
                        "sign": true,
                        "value": "846.2064704"
                    }
                ]
            }
        ]
    },
    "profile": {
        "basic_info": {
            "baseFee": "46.405432471",
            "blockNumber": 15491295,
            "callData": "0xa9059cbb0000000000000000000000000d0707963952f2fba59dd06f2b425ace40b492fe0000000000000000000000000000000000000000000000127a9c3d07ec07d000",
            "debugEnable": true,
            "errorInfo": "",
            "eventCount": 1,
            "feeRecipient": "0xab3b229eb4bcff881275e7ea2f0fd24eeac8c83a",
            "formatValue": "0",
            "gasLimit": 56169,
            "gasPrice": "48.405432471",
            "gasUsed": 35157,
            "intTxnCount": 0,
            "internalRevert": false,
            "internalRevertMessage": "",
            "isContractCreation": false,
            "isFlashloan": false,
            "maxFee": "51.808723298",
            "nonce": 4,
            "overwritedBlockNumber": -1,
            "priorityFee": "2",
            "receiver": "0x31c8eacbffdd875c74b94b077895bd78cf1e64a3",
            "revertMessage": "",
            "sender": "0xc3af5614cef392f6a05d0e7117d6f64f95ba2ae2",
            "simulationEnable": true,
            "sourceTxnHash": "0x731e5c5a9d8f63196d3412e3b20c2790f87a86f01ce8533d10dff56abf8c6079",
            "status": true,
            "timestamp": "2022-09-07T16:15:53Z",
            "transactionFee": "0.001701789789382947",
            "txnHash": "0x731e5c5a9d8f63196d3412e3b20c2790f87a86f01ce8533d10dff56abf8c6079",
            "txnIndex": 4,
            "type": 2,
            "value": "0"
        },
        "fund_flow": [
            {
                "amount": "340.876397",
                "from": "0xc3af5614cef392f6a05d0e7117d6f64f95ba2ae2",
                "id": 1,
                "isERC1155": false,
                "isERC721": false,
                "isReverted": false,
                "order": 1,
                "to": "0x0d0707963952f2fba59dd06f2b425ace40b492fe",
                "token": "0x31c8eacbffdd875c74b94b077895bd78cf1e64a3"
            }
        ],
        "token_infos": [
            {
                "address": "0x31c8eacbffdd875c74b94b077895bd78cf1e64a3",
                "decimals": 18
            },
            {
                "address": "0xc02aaa39b223fe8d0a0e5c4f27ead9083c756cc2",
                "decimals": 18
            },
            {
                "address": "0xeeeeeeeeeeeeeeeeeeeeeeeeeeeeeeeeeeeeeeee",
                "decimals": 18
            }
        ]
    },
    "address_label": {
        "labels": [
            {
                "address": "0x0000000000000000000000000000000000000001",
                "label": "Precompiled"
            },
            {
                "address": "0x0000000000000000000000000000000000000002",
                "label": "Precompiled"
            },
            {
                "address": "0x0000000000000000000000000000000000000003",
                "label": "Precompiled"
            },
            {
                "address": "0x0000000000000000000000000000000000000004",
                "label": "Precompiled"
            },
            {
                "address": "0xeeeeeeeeeeeeeeeeeeeeeeeeeeeeeeeeeeeeeeee",
                "label": "Ether"
            },
            {
                "address": "0xc3af5614cef392f6a05d0e7117d6f64f95ba2ae2",
                "label": "GATE.IO"
            },
            {
                "address": "0x0d0707963952f2fba59dd06f2b425ace40b492fe",
                "label": "Gate.io"
            },
            {
                "address": "0x31c8eacbffdd875c74b94b077895bd78cf1e64a3",
                "label": "Radicle (RAD)"
            }
        ]
    },
    "trace": {
        "accountLabels": null,
        "dataMap": {
            "-1": {
                "invocation": {
                    "address": "0xc3af5614cef392f6a05d0e7117d6f64f95ba2ae2",
                    "callData": "",
                    "decodedMethod": null,
                    "errorInfo": "",
                    "fromAddress": "",
                    "gasUsed": 0,
                    "id": -1,
                    "methodDecoded": false,
                    "operation": "",
                    "output": "",
                    "revert": false,
                    "revertMessage": "",
                    "selector": "",
                    "status": false,
                    "value": ""
                },
                "nodeType": 0
            },
            "0": {
                "invocation": {
                    "address": "0x31c8eacbffdd875c74b94b077895bd78cf1e64a3",
                    "callData": "0x0000000000000000000000000d0707963952f2fba59dd06f2b425ace40b492fe0000000000000000000000000000000000000000000000127a9c3d07ec07d000",
                    "decodedMethod": {
                        "callParams": [
                            {
                                "name": "dst",
                                "type": "address",
                                "value": "0x0d0707963952f2fba59dd06f2b425ace40b492fe"
                            },
                            {
                                "decimalAvailable": true,
                                "name": "rawAmount",
                                "type": "uint256",
                                "value": "340,876,397,000,000,000,000"
                            }
                        ],
                        "constructorArguments": "",
                        "name": "transfer",
                        "returnParams": [
                            {
                                "name": "",
                                "type": "bool",
                                "value": true
                            }
                        ],
                        "signature": "transfer(address,uint256)"
                    },
                    "errorInfo": "",
                    "fromAddress": "0xc3af5614cef392f6a05d0e7117d6f64f95ba2ae2",
                    "gasUsed": 35157,
                    "id": 0,
                    "methodDecoded": true,
                    "operation": "CALL",
                    "output": "0x0000000000000000000000000000000000000000000000000000000000000001",
                    "revert": false,
                    "revertMessage": "",
                    "selector": "0xa9059cbb",
                    "status": true,
                    "value": "0"
                },
                "nodeType": 0
            },
            "1": {
                "event": {
                    "contract": "0x31c8eacbffdd875c74b94b077895bd78cf1e64a3",
                    "decodedLog": {
                        "name": "Transfer",
                        "params": [
                            {
                                "name": "from",
                                "type": "address",
                                "value": "0xc3af5614cef392f6a05d0e7117d6f64f95ba2ae2"
                            },
                            {
                                "name": "to",
                                "type": "address",
                                "value": "0x0d0707963952f2fba59dd06f2b425ace40b492fe"
                            },
                            {
                                "decimalAvailable": true,
                                "name": "amount",
                                "type": "uint256",
                                "value": "340,876,397,000,000,000,000"
                            }
                        ],
                        "signature": "Transfer(address,address,uint256)"
                    },
                    "id": 1,
                    "logData": "0x0000000000000000000000000000000000000000000000127a9c3d07ec07d000",
                    "logDecoded": true,
                    "operation": "EVENT",
                    "revert": false,
                    "status": true,
                    "topics": [
                        "0xddf252ad1be2c89b69c2b068fc378daa952ba7f163c4a11628f55a4df523b3ef",
                        "0x000000000000000000000000c3af5614cef392f6a05d0e7117d6f64f95ba2ae2",
                        "0x0000000000000000000000000d0707963952f2fba59dd06f2b425ace40b492fe"
                    ]
                },
                "nodeType": 1
            }
        },
        "gasFlame": [
            {
                "children": [
                    {
                        "children": [
                            {
                                "children": [],
                                "depth": 0,
                                "name": "Initial Gas",
                                "value": 21656
                            },
                            {
                                "children": [],
                                "depth": 0,
                                "name": "Executed Gas",
                                "value": 18301
                            }
                        ],
                        "depth": -1,
                        "name": "Actual Gas Used",
                        "value": 35157
                    },
                    {
                        "children": [],
                        "depth": -1,
                        "name": "Refunded Gas",
                        "value": 4800
                    }
                ],
                "depth": -2,
                "name": "Total Gas",
                "value": 39957
            }
        ],
        "isConfirmed": true,
        "mainTrace": [
            {
                "children": [
                    {
                        "children": [
                            {
                                "children": [],
                                "depth": 1,
                                "id": 1,
                                "order": 1
                            }
                        ],
                        "depth": 0,
                        "id": 0,
                        "order": 0
                    }
                ],
                "depth": -1,
                "id": -1,
                "order": -1
            }
        ],
        "mainTraceNodeCount": 2,
        "parentIdMap": {
            "0": -1,
            "1": 0
        },
        "tidyTrace": [
            {
                "children": [
                    {
                        "children": [
                            {
                                "children": [],
                                "depth": 1,
                                "id": 1,
                                "order": 1
                            }
                        ],
                        "depth": 0,
                        "id": 0,
                        "order": 0
                    }
                ],
                "depth": -1,
                "id": -1,
                "order": -1
            }
        ],
        "tidyTraceNodeCount": 2
    },
    "state_change": {
        "stateChanges": [
            {
                "address": "0x31c8eacbffdd875c74b94b077895bd78cf1e64a3",
                "erc": "ERC-20",
                "slots": [
                    {
                        "current": "0x0000000000000000000000000000000000000000000000000000000000000000",
                        "key": "0xafe0baa4c6eba8ed6473c1c11884cf5bdb6e600cc66e2747d1d56be83ff544eb",
                        "prev": "0x0000000000000000000000000000000000000000000000127a9c3d07ec07d000"
                    },
                    {
                        "current": "0x00000000000000000000000000000000000000000000200f20aa48d691aecd85",
                        "key": "0x67376c8e9d774341c054e74367f227a86816ea930b1c3e9811eb20f762da1bd0",
                        "prev": "0x000000000000000000000000000000000000000000001ffca60e0bcea5a6fd85"
                    }
                ],
                "storageVariables": [
                    {
                        "name": "balances",
                        "type": "mapping(address => uint96)",
                        "value": {
                            "pairs": [
                                {
                                    "key": "0x0d0707963952f2fba59dd06f2b425ace40b492fe",
                                    "value": {
                                        "current": "151394782386775948971397",
                                        "prev": "151053905989775948971397",
                                        "typeTag": 1
                                    }
                                },
                                {
                                    "key": "0xc3af5614cef392f6a05d0e7117d6f64f95ba2ae2",
                                    "value": {
                                        "current": "0",
                                        "prev": "340876397000000000000",
                                        "typeTag": 1
                                    }
                                }
                            ],
                            "typeTag": 4
                        }
                    }
                ]
            }
        ]
    }
}