{
    "balance_change": {
        "balanceChanges": [
            {
                "account": "0x409c6c5ec5c479673f4c09fb80d0f182fcff643e",
                "assets": [
                    {
                        "address": "0xd533a949740bb3306d119cc777fa900ba034cd52",
                        "amount": "820.930074483789901784",
                        "iconUrl": "",
                        "isERC1155": false,
                        "isERC721": false,
                        "sign": false,
                        "value": "582.2604254"
                    },
                    {
                        "address": "0xed4064f376cb8d68f770fb1ff088a3d0f3ff5c4d",
                        "amount": "9.555113756401715094",
                        "iconUrl": "",
                        "isERC1155": false,
                        "isERC721": false,
                        "sign": true,
                        "value": ""
                    }
                ]
            },
            {
                "account": "0x8301ae4fc9c624d1d396cbdaa1ed877821d7c511",
                "assets": [
                    {
                        "address": "0xd533a949740bb3306d119cc777fa900ba034cd52",
                        "amount": "820.930074483789901784",
                        "iconUrl": "",
                        "isERC1155": false,
                        "isERC721": false,
                        "sign": true,
                        "value": "582.2604254"
                    }
                ]
            },
            {
                "account": "0x0000000000000000000000000000000000000000",
                "assets": [
                    {
                        "address": "0xed4064f376cb8d68f770fb1ff088a3d0f3ff5c4d",
                        "amount": "9.555113756401715094",
                        "iconUrl": "",
                        "isERC1155": false,
                        "isERC721": false,
                        "sign": false,
                        "value": ""
                    }
                ]
            }
        ]
    },
    "profile": {
        "basic_info": {
            "baseFee": "9.332720948",
            "blockNumber": 16059168,
            "callData": "0xee22be23000000000000000000000000000000000000000000000000000000000000000000000000000000000000000000000000000000000000002c80b18144e143afd80000000000000000000000000000000000000000000000008478a302cd88a74e0000000000000000000000000000000000000000000000000000000000000001",
            "debugEnable": true,
            "errorInfo": "",
            "eventCount": 3,
            "feeRecipient": "0x690b9a9e9aa1c9db991c7721a92d351db4fac990",
            "formatValue": "0",
            "gasLimit": 295441,
            "gasPrice": "10.832720948",
            "gasUsed": 201018,
            "intTxnCount": 4,
            "internalRevert": false,
            "internalRevertMessage": "",
            "isContractCreation": false,
            "isFlashloan": false,
            "maxFee": "14.30509478",
            "nonce": 2068,
            "overwritedBlockNumber": -1,
            "priorityFee": "1.5",
            "receiver": "0x8301ae4fc9c624d1d396cbdaa1ed877821d7c511",
            "revertMessage": "",
            "sender": "0x409c6c5ec5c479673f4c09fb80d0f182fcff643e",
            "simulationEnable": true,
            "sourceTxnHash": "0x73e4358e9d5ccec102f031a1254acd2c8fe86251178d5ba8cd990aa15097c962",
            "status": true,
            "timestamp": "2022-11-27T05:15:47Z",
            "transactionFee": "0.002177571899525064",
            "txnHash": "0x73e4358e9d5ccec102f031a1254acd2c8fe86251178d5ba8cd990aa15097c962",
            "txnIndex": 68,
            "type": 2,
            "value": "0"
        },
        "fund_flow": [
            {
                "amount": "820.930074483789901784",
                "from": "0x409c6c5ec5c479673f4c09fb80d0f182fcff643e",
                "id": 1,
                "isERC1155": false,
                "isERC721": false,
                "isReverted": false,
                "order": 1,
                "to": "0x8301ae4fc9c624d1d396cbdaa1ed877821d7c511",
                "token": "0xd533a949740bb3306d119cc777fa900ba034cd52"
            },
            {
                "amount": "9.555113756401715094",
                "from": "0x0000000000000000000000000000000000000000",
                "id": 2,
                "isERC1155": false,
                "isERC721": false,
                "isReverted": false,
                "order": 2,
                "to": "0x409c6c5ec5c479673f4c09fb80d0f182fcff643e",
                "token": "0xed4064f376cb8d68f770fb1ff088a3d0f3ff5c4d"
            }
        ],
        "token_infos": [
            {
                "address": "0xd533a949740bb3306d119cc777fa900ba034cd52",
                "decimals": 18
            },
            {
                "address": "0xed4064f376cb8d68f770fb1ff088a3d0f3ff5c4d",
                "decimals": 18
            },
            {
                "address": "0xeeeeeeeeeeeeeeeeeeeeeeeeeeeeeeeeeeeeeeee",
                "decimals": 18
            },
            {
                "address": "0xc02aaa39b223fe8d0a0e5c4f27ead9083c756cc2",
                "decimals": 18
            }
        ]
    },
    "address_label": {
        "labels": [
            {
                "address": "0x0000000000000000000000000000000000000001",
                "label": "Precompiled"
            },
            {
                "address": "0x0000000000000000000000000000000000000002",
                "label": "Precompiled"
            },
            {
                "address": "0x0000000000000000000000000000000000000003",
                "label": "Precompiled"
            },
            {
                "address": "0x0000000000000000000000000000000000000004",
                "label": "Precompiled"
            },
            {
                "address": "0xeeeeeeeeeeeeeeeeeeeeeeeeeeeeeeeeeeeeeeee",
                "label": "Ether"
            },
            {
                "address": "0xed4064f376cb8d68f770fb1ff088a3d0f3ff5c4d",
                "label": "Curve CRV-ETH (crvCRVETH)"
            },
            {
                "address": "0x8301ae4fc9c624d1d396cbdaa1ed877821d7c511",
                "label": "Curve.fi: CRV-ETH"
            },
            {
                "address": "0xd533a949740bb3306d119cc777fa900ba034cd52",
                "label": "Curve.fi: CRV Token"
            }
        ]
    },
    "trace": {
        "accountLabels": null,
        "dataMap": {
            "-1": {
                "invocation": {
                    "address": "0x409c6c5ec5c479673f4c09fb80d0f182fcff643e",
                    "callData": "",
                    "decodedMethod": null,
                    "errorInfo": "",
                    "fromAddress": "",
                    "gasUsed": 0,
                    "id": -1,
                    "methodDecoded": false,
                    "operation": "",
                    "output": "",
                    "revert": false,
                    "revertMessage": "",
                    "selector": "",
                    "status": false,
                    "value": ""
                },
                "nodeType": 0
            },
            "0": {
                "invocation": {
                    "address": "0x8301ae4fc9c624d1d396cbdaa1ed877821d7c511",
                    "callData": "0x000000000000000000000000000000000000000000000000000000000000000000000000000000000000000000000000000000000000002c80b18144e143afd80000000000000000000000000000000000000000000000008478a302cd88a74e0000000000000000000000000000000000000000000000000000000000000001",
                    "decodedMethod": {
                        "callParams": [
                            {
                                "name": "amounts",
                                "type": "uint256[2]",
                                "value": [
                                    "0",
                                    "820,930,074,483,789,901,784"
                                ]
                            },
                            {
                                "name": "min_mint_amount",
                                "type": "uint256",
                                "value": "9,545,558,642,645,313,358"
                            },
                            {
                                "name": "use_eth",
                                "type": "bool",
                                "value": true
                            }
                        ],
                        "constructorArguments": "",
                        "name": "add_liquidity",
                        "returnParams": [
                            {
                                "name": "",
                                "type": "uint256",
                                "value": "9,555,113,756,401,715,094"
                            }
                        ],
                        "signature": "add_liquidity(uint256[2],uint256,bool)"
                    },
                    "errorInfo": "",
                    "fromAddress": "0x409c6c5ec5c479673f4c09fb80d0f182fcff643e",
                    "gasUsed": 201018,
                    "id": 0,
                    "methodDecoded": true,
                    "operation": "CALL",
                    "output": "0x000000000000000000000000000000000000000000000000849a955616c5c796",
                    "revert": false,
                    "revertMessage": "",
                    "selector": "0xee22be23",
                    "status": true,
                    "value": "0"
                },
                "nodeType": 0
            },
            "1": {
                "invocation": {
                    "address": "0xd533a949740bb3306d119cc777fa900ba034cd52",
                    "callData": "0x000000000000000000000000409c6c5ec5c479673f4c09fb80d0f182fcff643e0000000000000000000000008301ae4fc9c624d1d396cbdaa1ed877821d7c51100000000000000000000000000000000000000000000002c80b18144e143afd8",
                    "decodedMethod": {
                        "callParams": [
                            {
                                "name": "sender",
                                "type": "address",
                                "value": "0x409c6c5ec5c479673f4c09fb80d0f182fcff643e"
                            },
                            {
                                "name": "recipient",
                                "type": "address",
                                "value": "0x8301ae4fc9c624d1d396cbdaa1ed877821d7c511"
                            },
                            {
                                "decimalAvailable": true,
                                "name": "amount",
                                "type": "uint256",
                                "value": "820,930,074,483,789,901,784"
                            }
                        ],
                        "constructorArguments": "",
                        "name": "transferFrom",
                        "returnParams": [
                            {
                                "name": "",
                                "type": "bool",
                                "value": true
                            }
                        ],
                        "signature": "transferFrom(address,address,uint256)"
                    },
                    "errorInfo": "",
                    "fromAddress": "0x8301ae4fc9c624d1d396cbdaa1ed877821d7c511",
                    "gasUsed": 17842,
                    "id": 1,
                    "methodDecoded": true,
                    "operation": "CALL",
                    "output": "0x0000000000000000000000000000000000000000000000000000000000000001",
                    "revert": false,
                    "revertMessage": "",
                    "selector": "0x23b872dd",
                    "status": true,
                    "value": "0"
                },
                "nodeType": 0
            },
            "2": {
                "event": {
                    "contract": "0xd533a949740bb3306d119cc777fa900ba034cd52",
                    "decodedLog": {
                        "name": "Transfer",
                        "params": [
                            {
                                "name": "from",
                                "type": "address",
                                "value": "0x409c6c5ec5c479673f4c09fb80d0f182fcff643e"
                            },
                            {
                                "name": "to",
                                "type": "address",
                                "value": "0x8301ae4fc9c624d1d396cbdaa1ed877821d7c511"
                            },
                            {
                                "decimalAvailable": true,
                                "name": "value",
                                "type": "uint256",
                                "value": "820,930,074,483,789,901,784"
                            }
                        ],
                        "signature": "Transfer(address,address,uint256)"
                    },
                    "id": 2,
                    "logData": "0x00000000000000000000000000000000000000000000002c80b18144e143afd8",
                    "logDecoded": true,
                    "operation": "EVENT",
                    "revert": false,
                    "status": true,
                    "topics": [
                        "0xddf252ad1be2c89b69c2b068fc378daa952ba7f163c4a11628f55a4df523b3ef",
                        "0x000000000000000000000000409c6c5ec5c479673f4c09fb80d0f182fcff643e",
                        "0x0000000000000000000000008301ae4fc9c624d1d396cbdaa1ed877821d7c511"
                    ]
                },
                "nodeType": 1
            },
            "3": {
                "invocation": {
                    "address": "0xed4064f376cb8d68f770fb1ff088a3d0f3ff5c4d",
                    "callData": "0x",
                    "decodedMethod": {
                        "callParams": [],
                        "constructorArguments": "",
                        "name": "totalSupply",
                        "returnParams": [
                            {
                                "name": "",
                                "type": "uint256",
                                "value": "592,800,984,156,208,248,504,860"
                            }
                        ],
                        "signature": "totalSupply()"
                    },
                    "errorInfo": "",
                    "fromAddress": "0x8301ae4fc9c624d1d396cbdaa1ed877821d7c511",
                    "gasUsed": 2624,
                    "id": 3,
                    "methodDecoded": true,
                    "operation": "STATICCALL",
                    "output": "0x000000000000000000000000000000000000000000007d87ce4537d956a5c21c",
                    "revert": false,
                    "revertMessage": "",
                    "selector": "0x18160ddd",
                    "status": true,
                    "value": "0"
                },
                "nodeType": 0
            },
            "4": {
                "invocation": {
                    "address": "0xed4064f376cb8d68f770fb1ff088a3d0f3ff5c4d",
                    "callData": "0x000000000000000000000000409c6c5ec5c479673f4c09fb80d0f182fcff643e000000000000000000000000000000000000000000000000849a955616c5c796",
                    "decodedMethod": {
                        "callParams": [
                            {
                                "name": "to",
                                "type": "address",
                                "value": "0x409c6c5ec5c479673f4c09fb80d0f182fcff643e"
                            },
                            {
                                "name": "amount",
                                "type": "uint256",
                                "value": "9,555,113,756,401,715,094"
                            }
                        ],
                        "constructorArguments": "",
                        "name": "mint",
                        "returnParams": [],
                        "signature": "mint(address,uint256)"
                    },
                    "errorInfo": "",
                    "fromAddress": "0x8301ae4fc9c624d1d396cbdaa1ed877821d7c511",
                    "gasUsed": 29539,
                    "id": 4,
                    "methodDecoded": true,
                    "operation": "CALL",
                    "output": "0x0000000000000000000000000000000000000000000000000000000000000001",
                    "revert": false,
                    "revertMessage": "",
                    "selector": "0x40c10f19",
                    "status": true,
                    "value": "0"
                },
                "nodeType": 0
            },
            "5": {
                "event": {
                    "contract": "0xed4064f376cb8d68f770fb1ff088a3d0f3ff5c4d",
                    "decodedLog": {
                        "name": "Transfer",
                        "params": [
                            {
                                "name": "from",
                                "type": "address",
                                "value": "0x0000000000000000000000000000000000000000"
                            },
                            {
                                "name": "to",
                                "type": "address",
                                "value": "0x409c6c5ec5c479673f4c09fb80d0f182fcff643e"
                            },
                            {
                                "decimalAvailable": true,
                                "name": "value",
                                "type": "uint256",
                                "value": "9,555,113,756,401,715,094"
                            }
                        ],
                        "signature": "Transfer(address,address,uint256)"
                    },
                    "id": 5,
                    "logData": "0x000000000000000000000000000000000000000000000000849a955616c5c796",
                    "logDecoded": true,
                    "operation": "EVENT",
                    "revert": false,
                    "status": true,
                    "topics": [
                        "0xddf252ad1be2c89b69c2b068fc378daa952ba7f163c4a11628f55a4df523b3ef",
                        "0x0000000000000000000000000000000000000000000000000000000000000000",
                        "0x000000000000000000000000409c6c5ec5c479673f4c09fb80d0f182fcff643e"
                    ]
                },
                "nodeType": 1
            },
            "6": {
                "invocation": {
                    "address": "0xed4064f376cb8d68f770fb1ff088a3d0f3ff5c4d",
                    "callData": "0x",
                    "decodedMethod": {
                        "callParams": [],
                        "constructorArguments": "",
                        "name": "totalSupply",
                        "returnParams": [
                            {
                                "name": "",
                                "type": "uint256",
                                "value": "592,810,539,269,964,650,219,954"
                            }
                        ],
                        "signature": "totalSupply()"
                    },
                    "errorInfo": "",
                    "fromAddress": "0x8301ae4fc9c624d1d396cbdaa1ed877821d7c511",
                    "gasUsed": 624,
                    "id": 6,
                    "methodDecoded": true,
                    "operation": "STATICCALL",
                    "output": "0x000000000000000000000000000000000000000000007d8852dfcd2f6d6b89b2",
                    "revert": false,
                    "revertMessage": "",
                    "selector": "0x18160ddd",
                    "status": true,
                    "value": "0"
                },
                "nodeType": 0
            },
            "7": {
                "event": {
                    "contract": "0x8301ae4fc9c624d1d396cbdaa1ed877821d7c511",
                    "decodedLog": {
                        "name": "AddLiquidity",
                        "params": [
                            {
                                "name": "provider",
                                "type": "address",
                                "value": "0x409c6c5ec5c479673f4c09fb80d0f182fcff643e"
                            },
                            {
                                "name": "token_amounts",
                                "type": "uint256[2]",
                                "value": [
                                    "0",
                                    "820,930,074,483,789,901,784"
                                ]
                            },
                            {
                                "name": "fee",
                                "type": "uint256",
                                "value": "12,553,186,611,845,564"
                            },
                            {
                                "name": "token_supply",
                                "type": "uint256",
                                "value": "592,810,539,269,964,650,219,954"
                            }
                        ],
                        "signature": "AddLiquidity(address,uint256[2],uint256,uint256)"
                    },
                    "id": 7,
                    "logData": "0x000000000000000000000000000000000000000000000000000000000000000000000000000000000000000000000000000000000000002c80b18144e143afd8000000000000000000000000000000000000000000000000002c990e84cc59bc000000000000000000000000000000000000000000007d8852dfcd2f6d6b89b2",
                    "logDecoded": true,
                    "operation": "EVENT",
                    "revert": false,
                    "status": true,
                    "topics": [
                        "0x540ab385f9b5d450a27404172caade516b3ba3f4be88239ac56a2ad1de2a1f5a",
                        "0x000000000000000000000000409c6c5ec5c479673f4c09fb80d0f182fcff643e"
                    ]
                },
                "nodeType": 1
            }
        },
        "gasFlame": [
            {
                "children": [
                    {
                        "children": [
                            {
                                "children": [],
                                "depth": 0,
                                "name": "Initial Gas",
                                "value": 21792
                            },
                            {
                                "children": [
                                    {
                                        "children": [],
                                        "depth": 1,
                                        "name": "transferFrom",
                                        "value": 17842
                                    },
                                    {
                                        "children": [],
                                        "depth": 1,
                                        "name": "totalSupply",
                                        "value": 2624
                                    },
                                    {
                                        "children": [],
                                        "depth": 1,
                                        "name": "mint",
                                        "value": 29539
                                    },
                                    {
                                        "children": [],
                                        "depth": 1,
                                        "name": "totalSupply",
                                        "value": 624
                                    }
                                ],
                                "depth": 0,
                                "name": "Executed Gas",
                                "value": 203926
                            }
                        ],
                        "depth": -1,
                        "name": "Actual Gas Used",
                        "value": 201018
                    },
                    {
                        "children": [],
                        "depth": -1,
                        "name": "Refunded Gas",
                        "value": 24700
                    }
                ],
                "depth": -2,
                "name": "Total Gas",
                "value": 225718
            }
        ],
        "isConfirmed": true,
        "mainTrace": [
            {
                "children": [
                    {
                        "children": [
                            {
                                "children": [
                                    {
                                        "children": [],
                                        "depth": 2,
                                        "id": 2,
                                        "order": 2
                                    }
                                ],
                                "depth": 1,
                                "id": 1,
                                "order": 1
                            },
                            {
                                "children": [],
                                "depth": 1,
                                "id": 3,
                                "order": 3
                            },
                            {
                                "children": [
                                    {
                                        "children": [],
                                        "depth": 2,
                                        "id": 5,
                                        "order": 5
                                    }
                                ],
                                "depth": 1,
                                "id": 4,
                                "order": 4
                            },
                            {
                                "children": [],
                                "depth": 1,
                                "id": 6,
                                "order": 6
                            },
                            {
                                "children": [],
                                "depth": 1,
                                "id": 7,
                                "order": 7
                            }
                        ],
                        "depth": 0,
                        "id": 0,
                        "order": 0
                    }
                ],
                "depth": -1,
                "id": -1,
                "order": -1
            }
        ],
        "mainTraceNodeCount": 8,
        "parentIdMap": {
            "0": -1,
            "1": 0,
            "2": 1,
            "3": 0,
            "4": 0,
            "5": 4,
            "6": 0,
            "7": 0
        },
        "tidyTrace": [
            {
                "children": [
                    {
                        "children": [
                            {
                                "children": [
                                    {
                                        "children": [],
                                        "depth": 2,
                                        "id": 2,
                                        "order": 2
                                    }
                                ],
                                "depth": 1,
                                "id": 1,
                                "order": 1
                            },
                            {
                                "children": [
                                    {
                                        "children": [],
                                        "depth": 2,
                                        "id": 5,
                                        "order": 5
                                    }
                                ],
                                "depth": 1,
                                "id": 4,
                                "order": 4
                            },
                            {
                                "children": [],
                                "depth": 1,
                                "id": 7,
                                "order": 7
                            }
                        ],
                        "depth": 0,
                        "id": 0,
                        "order": 0
                    }
                ],
                "depth": -1,
                "id": -1,
                "order": -1
            }
        ],
        "tidyTraceNodeCount": 6
    },
    "state_change": {
        "stateChanges": [
            {
                "address": "0x8301ae4fc9c624d1d396cbdaa1ed877821d7c511",
                "erc": "",
                "slots": [
                    {
                        "current": "0x00000000000000000000000000000000000000000000000000020fd8d33826e9",
                        "key": "0x0000000000000000000000000000000000000000000000000000000000000009",
                        "prev": "0x00000000000000000000000000000000000000000000000000020fcf11adb2dd"
                    },
                    {
                        "current": "0x0000000000000000000000000000000000000000000000000ed303e01188faed",
                        "key": "0x0000000000000000000000000000000000000000000000000000000000000022",
                        "prev": "0x0000000000000000000000000000000000000000000000000ed303dacd482781"
                    },
                    {
                        "current": "0x0000000000000000000000000000000000000000001505e5cf843317ca1c99c7",
                        "key": "0x000000000000000000000000000000000000000000000000000000000000001e",
                        "prev": "0x0000000000000000000000000000000000000000001505b94ed2b1d2e8d8e9ef"
                    },
                    {
                        "current": "0x0000000000000000000000000000000000000000000000000002103486884843",
                        "key": "0x0000000000000000000000000000000000000000000000000000000000000008",
                        "prev": "0x000000000000000000000000000000000000000000000000000211881819c400"
                    },
                    {
                        "current": "0x000000000000000000000000000000000000000000000000000000006382f283",
                        "key": "0x000000000000000000000000000000000000000000000000000000000000000a",
                        "prev": "0x000000000000000000000000000000000000000000000000000000006382ed8b"
                    },
                    {
                        "current": "0x00000000000000000000000000000000000000000000000000021118f3bd816a",
                        "key": "0x0000000000000000000000000000000000000000000000000000000000000007",
                        "prev": "0x000000000000000000000000000000000000000000000000000211325535326f"
                    },
                    {
                        "current": "0x0000000000000000000000000000000000000000000006444e940670f804ab10",
                        "key": "0x000000000000000000000000000000000000000000000000000000000000001f",
                        "prev": "0x0000000000000000000000000000000000000000000006446e66224cd2e078a9"
                    },
                    {
                        "current": "0x0000000000000000000000000000000000000000000000000e5ca98464f8c9b6",
                        "key": "0x0000000000000000000000000000000000000000000000000000000000000024",
                        "prev": "0x0000000000000000000000000000000000000000000000000e5ca96f297f2bbd"
                    }
                ],
                "storageVariables": []
            },
            {
                "address": "0xd533a949740bb3306d119cc777fa900ba034cd52",
                "erc": "",
                "slots": [
                    {
                        "current": "0x0000000000000000000000000000000000000000000000000000000000000000",
                        "key": "0xa93af3a6bbcd5dc7f6984460a345746f0f91c38f315e2533ea167859047e88d2",
                        "prev": "0x00000000000000000000000000000000000000000000002c80b18144e143afd8"
                    },
                    {
                        "current": "0x0000000000000000000000000000000000000000001505e5cf843317ca1c99c7",
                        "key": "0x4c2ec9b74112486dec3402da1e7125b2a4e984ca7ae4b64fac98431a0e408980",
                        "prev": "0x0000000000000000000000000000000000000000001505b94ed2b1d2e8d8e9ef"
                    },
                    {
                        "current": "0xfffffffffffffffffffffffffffffffffffffffffffffbc0aaacba176c142827",
                        "key": "0x98c30a6d78e6b2d7a7f4fbd3b22c80d621d77a73b068efc18bae4378e6401eab",
                        "prev": "0xfffffffffffffffffffffffffffffffffffffffffffffbed2b5e3b5c4d57d7ff"
                    }
                ],
                "storageVariables": []
            },
            {
                "address": "0xed4064f376cb8d68f770fb1ff088a3d0f3ff5c4d",
                "erc": "",
                "slots": [
                    {
                        "current": "0x000000000000000000000000000000000000000000007d8852dfcd2f6d6b89b2",
                        "key": "0x0000000000000000000000000000000000000000000000000000000000000007",
                        "prev": "0x000000000000000000000000000000000000000000007d87ce4537d956a5c21c"
                    },
                    {
                        "current": "0x000000000000000000000000000000000000000000000000849a955616c5c796",
                        "key": "0x8b1f62b1c0d06d1562922035e6fb173f90ef4f92e956d973b25ca807f84b6f72",
                        "prev": "0x0000000000000000000000000000000000000000000000000000000000000000"
                    }
                ],
                "storageVariables": []
            }
        ]
    }
}