{
    "balance_change": {
        "balanceChanges": [
            {
                "account": "0x5d17b355538a9ea9b45a0018e11b36947fc16376",
                "assets": [
                    {
                        "address": "0xe6f51e892046cb5b437e0033d990b527ea4367c8",
                        "amount": "100.014276744403",
                        "iconUrl": "",
                        "isERC1155": false,
                        "isERC721": false,
                        "sign": false,
                        "value": ""
                    }
                ]
            },
            {
                "account": "0x3e044de76926a599554701573804699f9e235107",
                "assets": [
                    {
                        "address": "0xe6f51e892046cb5b437e0033d990b527ea4367c8",
                        "amount": "100.014276744403",
                        "iconUrl": "",
                        "isERC1155": false,
                        "isERC721": false,
                        "sign": true,
                        "value": ""
                    }
                ]
            }
        ]
    },
    "profile": {
        "basic_info": {
            "baseFee": "",
            "blockNumber": 11748960,
            "callData": "0xa694fc3a0000000000000000000000000000000000000000000000056bfa16ccf9c09ac0",
            "debugEnable": true,
            "errorInfo": "",
            "eventCount": 2,
            "feeRecipient": "0xd224ca0c819e8e97ba0136b3b95ceff503b79f53",
            "formatValue": "0",
            "gasLimit": 214450,
            "gasPrice": "61.000001459",
            "gasUsed": 142967,
            "intTxnCount": 1,
            "internalRevert": false,
            "internalRevertMessage": "",
            "isContractCreation": false,
            "isFlashloan": false,
            "maxFee": "",
            "nonce": 68,
            "overwritedBlockNumber": -1,
            "priorityFee": "",
            "receiver": "0x3e044de76926a599554701573804699f9e235107",
            "revertMessage": "",
            "sender": "0x5d17b355538a9ea9b45a0018e11b36947fc16376",
            "simulationEnable": true,
            "sourceTxnHash": "0x73de45b74855f7a7a612f4b08065ad8887189f78652780b8e8c4db4591b1931b",
            "status": true,
            "timestamp": "2021-01-29T05:37:53Z",
            "transactionFee": "0.008720987208588853",
            "txnHash": "0x73de45b74855f7a7a612f4b08065ad8887189f78652780b8e8c4db4591b1931b",
            "txnIndex": 28,
            "type": 0,
            "value": "0"
        },
        "fund_flow": [
            {
                "amount": "100.014276744403",
                "from": "0x5d17b355538a9ea9b45a0018e11b36947fc16376",
                "id": 1,
                "isERC1155": false,
                "isERC721": false,
                "isReverted": false,
                "order": 1,
                "to": "0x3e044de76926a599554701573804699f9e235107",
                "token": "0xe6f51e892046cb5b437e0033d990b527ea4367c8"
            }
        ],
        "token_infos": [
            {
                "address": "0xc02aaa39b223fe8d0a0e5c4f27ead9083c756cc2",
                "decimals": 18
            },
            {
                "address": "0xe6f51e892046cb5b437e0033d990b527ea4367c8",
                "decimals": 18
            },
            {
                "address": "0xeeeeeeeeeeeeeeeeeeeeeeeeeeeeeeeeeeeeeeee",
                "decimals": 18
            }
        ]
    },
    "address_label": {
        "labels": [
            {
                "address": "0x0000000000000000000000000000000000000001",
                "label": "Precompiled"
            },
            {
                "address": "0x0000000000000000000000000000000000000002",
                "label": "Precompiled"
            },
            {
                "address": "0x0000000000000000000000000000000000000003",
                "label": "Precompiled"
            },
            {
                "address": "0x0000000000000000000000000000000000000004",
                "label": "Precompiled"
            },
            {
                "address": "0xeeeeeeeeeeeeeeeeeeeeeeeeeeeeeeeeeeeeeeee",
                "label": "Ether"
            },
            {
                "address": "0xe6f51e892046cb5b437e0033d990b527ea4367c8",
                "label": "Uniswap V2: B20"
            },
            {
                "address": "0x3e044de76926a599554701573804699f9e235107",
                "label": "B20ETHUNIV2B20Pool"
            }
        ]
    },
    "trace": {
        "accountLabels": null,
        "dataMap": {
            "-1": {
                "invocation": {
                    "address": "0x5d17b355538a9ea9b45a0018e11b36947fc16376",
                    "callData": "",
                    "decodedMethod": null,
                    "errorInfo": "",
                    "fromAddress": "",
                    "gasUsed": 0,
                    "id": -1,
                    "methodDecoded": false,
                    "operation": "",
                    "output": "",
                    "revert": false,
                    "revertMessage": "",
                    "selector": "",
                    "status": false,
                    "value": ""
                },
                "nodeType": 0
            },
            "0": {
                "invocation": {
                    "address": "0x3e044de76926a599554701573804699f9e235107",
                    "callData": "0x0000000000000000000000000000000000000000000000056bfa16ccf9c09ac0",
                    "decodedMethod": {
                        "callParams": [
                            {
                                "name": "amount",
                                "type": "uint256",
                                "value": "100,014,276,744,403,000,000"
                            }
                        ],
                        "constructorArguments": "",
                        "name": "stake",
                        "returnParams": [],
                        "signature": "stake(uint256)"
                    },
                    "errorInfo": "",
                    "fromAddress": "0x5d17b355538a9ea9b45a0018e11b36947fc16376",
                    "gasUsed": 142967,
                    "id": 0,
                    "methodDecoded": true,
                    "operation": "CALL",
                    "output": "",
                    "revert": false,
                    "revertMessage": "",
                    "selector": "0xa694fc3a",
                    "status": true,
                    "value": "0"
                },
                "nodeType": 0
            },
            "1": {
                "invocation": {
                    "address": "0xe6f51e892046cb5b437e0033d990b527ea4367c8",
                    "callData": "0x0000000000000000000000005d17b355538a9ea9b45a0018e11b36947fc163760000000000000000000000003e044de76926a599554701573804699f9e2351070000000000000000000000000000000000000000000000056bfa16ccf9c09ac0",
                    "decodedMethod": {
                        "callParams": [
                            {
                                "name": "from",
                                "type": "address",
                                "value": "0x5d17b355538a9ea9b45a0018e11b36947fc16376"
                            },
                            {
                                "name": "to",
                                "type": "address",
                                "value": "0x3e044de76926a599554701573804699f9e235107"
                            },
                            {
                                "decimalAvailable": true,
                                "name": "value",
                                "type": "uint256",
                                "value": "100,014,276,744,403,000,000"
                            }
                        ],
                        "constructorArguments": "",
                        "name": "transferFrom",
                        "returnParams": [
                            {
                                "name": "",
                                "type": "bool",
                                "value": true
                            }
                        ],
                        "signature": "transferFrom(address,address,uint256)"
                    },
                    "errorInfo": "",
                    "fromAddress": "0x3e044de76926a599554701573804699f9e235107",
                    "gasUsed": 21449,
                    "id": 1,
                    "methodDecoded": true,
                    "operation": "CALL",
                    "output": "0x0000000000000000000000000000000000000000000000000000000000000001",
                    "revert": false,
                    "revertMessage": "",
                    "selector": "0x23b872dd",
                    "status": true,
                    "value": "0"
                },
                "nodeType": 0
            },
            "2": {
                "event": {
                    "contract": "0xe6f51e892046cb5b437e0033d990b527ea4367c8",
                    "decodedLog": {
                        "name": "Transfer",
                        "params": [
                            {
                                "name": "from",
                                "type": "address",
                                "value": "0x5d17b355538a9ea9b45a0018e11b36947fc16376"
                            },
                            {
                                "name": "to",
                                "type": "address",
                                "value": "0x3e044de76926a599554701573804699f9e235107"
                            },
                            {
                                "decimalAvailable": true,
                                "name": "value",
                                "type": "uint256",
                                "value": "100,014,276,744,403,000,000"
                            }
                        ],
                        "signature": "Transfer(address,address,uint256)"
                    },
                    "id": 2,
                    "logData": "0x0000000000000000000000000000000000000000000000056bfa16ccf9c09ac0",
                    "logDecoded": true,
                    "operation": "EVENT",
                    "revert": false,
                    "status": true,
                    "topics": [
                        "0xddf252ad1be2c89b69c2b068fc378daa952ba7f163c4a11628f55a4df523b3ef",
                        "0x0000000000000000000000005d17b355538a9ea9b45a0018e11b36947fc16376",
                        "0x0000000000000000000000003e044de76926a599554701573804699f9e235107"
                    ]
                },
                "nodeType": 1
            },
            "3": {
                "event": {
                    "contract": "0x3e044de76926a599554701573804699f9e235107",
                    "decodedLog": {
                        "name": "Staked",
                        "params": [
                            {
                                "name": "user",
                                "type": "address",
                                "value": "0x5d17b355538a9ea9b45a0018e11b36947fc16376"
                            },
                            {
                                "name": "amount",
                                "type": "uint256",
                                "value": "100,014,276,744,403,000,000"
                            }
                        ],
                        "signature": "Staked(address,uint256)"
                    },
                    "id": 3,
                    "logData": "0x0000000000000000000000000000000000000000000000056bfa16ccf9c09ac0",
                    "logDecoded": true,
                    "operation": "EVENT",
                    "revert": false,
                    "status": true,
                    "topics": [
                        "0x9e71bc8eea02a63969f509818f2dafb9254532904319f9dbda79b67bd34a5f3d",
                        "0x0000000000000000000000005d17b355538a9ea9b45a0018e11b36947fc16376"
                    ]
                },
                "nodeType": 1
            }
        },
        "gasFlame": [
            {
                "children": [
                    {
                        "children": [
                            {
                                "children": [],
                                "depth": 0,
                                "name": "Initial Gas",
                                "value": 21300
                            },
                            {
                                "children": [
                                    {
                                        "children": [],
                                        "depth": 1,
                                        "name": "transferFrom",
                                        "value": 21449
                                    }
                                ],
                                "depth": 0,
                                "name": "Executed Gas",
                                "value": 121667
                            }
                        ],
                        "depth": -1,
                        "name": "Actual Gas Used",
                        "value": 142967
                    },
                    {
                        "children": [],
                        "depth": -1,
                        "name": "Refunded Gas",
                        "value": 0
                    }
                ],
                "depth": -2,
                "name": "Total Gas",
                "value": 142967
            }
        ],
        "isConfirmed": true,
        "mainTrace": [
            {
                "children": [
                    {
                        "children": [
                            {
                                "children": [
                                    {
                                        "children": [],
                                        "depth": 2,
                                        "id": 2,
                                        "order": 2
                                    }
                                ],
                                "depth": 1,
                                "id": 1,
                                "order": 1
                            },
                            {
                                "children": [],
                                "depth": 1,
                                "id": 3,
                                "order": 3
                            }
                        ],
                        "depth": 0,
                        "id": 0,
                        "order": 0
                    }
                ],
                "depth": -1,
                "id": -1,
                "order": -1
            }
        ],
        "mainTraceNodeCount": 4,
        "parentIdMap": {
            "0": -1,
            "1": 0,
            "2": 1,
            "3": 0
        },
        "tidyTrace": [
            {
                "children": [
                    {
                        "children": [
                            {
                                "children": [
                                    {
                                        "children": [],
                                        "depth": 2,
                                        "id": 2,
                                        "order": 2
                                    }
                                ],
                                "depth": 1,
                                "id": 1,
                                "order": 1
                            },
                            {
                                "children": [],
                                "depth": 1,
                                "id": 3,
                                "order": 3
                            }
                        ],
                        "depth": 0,
                        "id": 0,
                        "order": 0
                    }
                ],
                "depth": -1,
                "id": -1,
                "order": -1
            }
        ],
        "tidyTraceNodeCount": 4
    },
    "state_change": {
        "stateChanges": [
            {
                "address": "0x3e044de76926a599554701573804699f9e235107",
                "erc": "",
                "slots": [
                    {
                        "current": "0x00000000000000000000000000000000000000000000001d34b1cfd5d9143700",
                        "key": "0x0000000000000000000000000000000000000000000000000000000000000001",
                        "prev": "0x000000000000000000000000000000000000000000000017c8b7b908df539c40"
                    },
                    {
                        "current": "0x0000000000000000000000000000000000000000000000056bfa16ccf9c09ac0",
                        "key": "0x8a5785dfd2d1ff4a87d5fae3568f3b02c4312938a0cded7f8f856bea9f19da56",
                        "prev": "0x0000000000000000000000000000000000000000000000000000000000000000"
                    },
                    {
                        "current": "0x00000000000000000000000000000000000000000000000082466843d8a13794",
                        "key": "0x0000000000000000000000000000000000000000000000000000000000000006",
                        "prev": "0x000000000000000000000000000000000000000000000000814d690a75ebe848"
                    },
                    {
                        "current": "0x0000000000000000000000000000000000000000000000000000000060139f31",
                        "key": "0x0000000000000000000000000000000000000000000000000000000000000005",
                        "prev": "0x0000000000000000000000000000000000000000000000000000000060139548"
                    },
                    {
                        "current": "0x00000000000000000000000000000000000000000000000082466843d8a13794",
                        "key": "0x030862c74b15ffd5fc0b133a4249c18eb2003e3249d68189ed9824f7a7c7fd51",
                        "prev": "0x0000000000000000000000000000000000000000000000000000000000000000"
                    },
                    {
                        "current": "0x00000000000000000000000000000000000000000000000000000000000000a3",
                        "key": "0x304644dc0049abfd89e12fb52917e033c618484dcce2d1cc5ab88a869ff2b3c9",
                        "prev": "0x0000000000000000000000000000000000000000000000000000000000000000"
                    }
                ],
                "storageVariables": [
                    {
                        "name": "_totalSupply",
                        "type": "uint256",
                        "value": {
                            "current": "538752622615804000000",
                            "prev": "438738345871401000000",
                            "typeTag": 1
                        }
                    },
                    {
                        "name": "_balances",
                        "type": "mapping(address => uint256)",
                        "value": {
                            "pairs": [
                                {
                                    "key": "0x5d17b355538a9ea9b45a0018e11b36947fc16376",
                                    "value": {
                                        "current": "100014276744403000000",
                                        "prev": "0",
                                        "typeTag": 1
                                    }
                                }
                            ],
                            "typeTag": 4
                        }
                    },
                    {
                        "name": "cachedRewardPerStake",
                        "type": "uint256",
                        "value": {
                            "current": "9387305113906919316",
                            "prev": "9317218697748408392",
                            "typeTag": 1
                        }
                    },
                    {
                        "name": "lastUpdateTime",
                        "type": "uint256",
                        "value": {
                            "current": "1611898673",
                            "prev": "1611896136",
                            "typeTag": 1
                        }
                    },
                    {
                        "name": "userRewardPerStakePaid",
                        "type": "mapping(address => uint256)",
                        "value": {
                            "pairs": [
                                {
                                    "key": "0x5d17b355538a9ea9b45a0018e11b36947fc16376",
                                    "value": {
                                        "current": "9387305113906919316",
                                        "prev": "0",
                                        "typeTag": 1
                                    }
                                }
                            ],
                            "typeTag": 4
                        }
                    },
                    {
                        "name": "lastEpochStaked",
                        "type": "mapping(address => uint256)",
                        "value": {
                            "pairs": [
                                {
                                    "key": "0x5d17b355538a9ea9b45a0018e11b36947fc16376",
                                    "value": {
                                        "current": "163",
                                        "prev": "0",
                                        "typeTag": 1
                                    }
                                }
                            ],
                            "typeTag": 4
                        }
                    }
                ]
            },
            {
                "address": "0xe6f51e892046cb5b437e0033d990b527ea4367c8",
                "erc": "ERC-20",
                "slots": [
                    {
                        "current": "0x000000000000000000000000000000000000000000000000000000000008fa61",
                        "key": "0x7b8ca81365e754b509218b6edff930569da57a9cda053e17cbbf487fe35570d5",
                        "prev": "0x0000000000000000000000000000000000000000000000056bfa16ccf9c99521"
                    },
                    {
                        "current": "0x00000000000000000000000000000000000000000000001d34b1cfd5d9143700",
                        "key": "0xdfac30402b06da9f89fafa15cfd4f70f7918c7b6b626d9bdd9e9114eb772bc05",
                        "prev": "0x000000000000000000000000000000000000000000000017c8b7b908df539c40"
                    },
                    {
                        "current": "0x00000000000000000000000000000000000000000052b7cd70cdf605ea3f6540",
                        "key": "0x8f9461d79f5e1f6939acdcc0ce8c9d2339ee0a477ca03125f489e1a6be62ee55",
                        "prev": "0x00000000000000000000000000000000000000000052b7d2dcc80cd2e4000000"
                    }
                ],
                "storageVariables": [
                    {
                        "name": "balanceOf",
                        "type": "mapping(address => uint256)",
                        "value": {
                            "pairs": [
                                {
                                    "key": "0x3e044de76926a599554701573804699f9e235107",
                                    "value": {
                                        "current": "538752622615804000000",
                                        "prev": "438738345871401000000",
                                        "typeTag": 1
                                    }
                                },
                                {
                                    "key": "0x5d17b355538a9ea9b45a0018e11b36947fc16376",
                                    "value": {
                                        "current": "588385",
                                        "prev": "100014276744403588385",
                                        "typeTag": 1
                                    }
                                }
                            ],
                            "typeTag": 4
                        }
                    },
                    {
                        "name": "allowance",
                        "type": "mapping(address => mapping(address => uint256))",
                        "value": {
                            "pairs": [
                                {
                                    "key": "0x5d17b355538a9ea9b45a0018e11b36947fc16376",
                                    "value": {
                                        "pairs": [
                                            {
                                                "key": "0x3e044de76926a599554701573804699f9e235107",
                                                "value": {
                                                    "current": "99999899985723255597000000",
                                                    "prev": "100000000000000000000000000",
                                                    "typeTag": 1
                                                }
                                            }
                                        ],
                                        "typeTag": 4
                                    }
                                }
                            ],
                            "typeTag": 4
                        }
                    }
                ]
            }
        ]
    }
}