{
    "balance_change": {
        "balanceChanges": []
    },
    "profile": {
        "basic_info": {
            "baseFee": "37.521331618",
            "blockNumber": 13077409,
            "callData": "0x40cfe0b100000000000000000000000000000000000000000000000000000000000004e900000000000000000000000000000000000000000000000000000000000000020000000000000000000000000000000000000000000000000000000000000001",
            "debugEnable": true,
            "errorInfo": "out of gas",
            "eventCount": 0,
            "feeRecipient": "0x01ca8a0ba4a80d12a8fb6e3655688f57b16608cf",
            "formatValue": "0.02",
            "gasLimit": 100000,
            "gasPrice": "39.461331618",
            "gasUsed": 100000,
            "intTxnCount": 3,
            "internalRevert": true,
            "internalRevertMessage": "",
            "isContractCreation": false,
            "isFlashloan": false,
            "maxFee": "58.054824898",
            "nonce": 8,
            "overwritedBlockNumber": -1,
            "priorityFee": "1.94",
            "receiver": "0x9c0ffc9088abeb2ea220d642218874639229fa7a",
            "revertMessage": "",
            "sender": "0xacb456934139ab6309579eece93b76ebd3d95dcd",
            "simulationEnable": true,
            "sourceTxnHash": "0x73869ff3e9f2bdbedc9db5e5d7ea345ff42adc5850863c0cafc3e496126f9ea3",
            "status": false,
            "timestamp": "2021-08-22T20:56:01Z",
            "transactionFee": "0.0039461331618",
            "txnHash": "0x73869ff3e9f2bdbedc9db5e5d7ea345ff42adc5850863c0cafc3e496126f9ea3",
            "txnIndex": 81,
            "type": 2,
            "value": "20000000000000000"
        },
        "fund_flow": [],
        "token_infos": [
            {
                "address": "0xc02aaa39b223fe8d0a0e5c4f27ead9083c756cc2",
                "decimals": 18
            },
            {
                "address": "0xeeeeeeeeeeeeeeeeeeeeeeeeeeeeeeeeeeeeeeee",
                "decimals": 18
            }
        ]
    },
    "address_label": {
        "labels": [
            {
                "address": "0x0000000000000000000000000000000000000002",
                "label": "Precompiled"
            },
            {
                "address": "0x0000000000000000000000000000000000000003",
                "label": "Precompiled"
            },
            {
                "address": "0x0000000000000000000000000000000000000004",
                "label": "Precompiled"
            },
            {
                "address": "0xeeeeeeeeeeeeeeeeeeeeeeeeeeeeeeeeeeeeeeee",
                "label": "Ether"
            },
            {
                "address": "0xcab65c60d9dc47e1d450c7e9074f73f1ff75f181",
                "label": "Proof of Steak: STEAK Token"
            },
            {
                "address": "0x9c0ffc9088abeb2ea220d642218874639229fa7a",
                "label": "Dogs Unchained: DOGU Token"
            },
            {
                "address": "0x0000000000000000000000000000000000000001",
                "label": "Precompiled"
            }
        ]
    },
    "trace": {
        "accountLabels": null,
        "dataMap": {
            "-1": {
                "invocation": {
                    "address": "0xacb456934139ab6309579eece93b76ebd3d95dcd",
                    "callData": "",
                    "decodedMethod": null,
                    "errorInfo": "",
                    "fromAddress": "",
                    "gasUsed": 0,
                    "id": -1,
                    "methodDecoded": false,
                    "operation": "",
                    "output": "",
                    "revert": false,
                    "revertMessage": "",
                    "selector": "",
                    "status": false,
                    "value": ""
                },
                "nodeType": 0
            },
            "0": {
                "invocation": {
                    "address": "0x9c0ffc9088abeb2ea220d642218874639229fa7a",
                    "callData": "0x00000000000000000000000000000000000000000000000000000000000004e900000000000000000000000000000000000000000000000000000000000000020000000000000000000000000000000000000000000000000000000000000001",
                    "decodedMethod": {
                        "callParams": [
                            {
                                "name": "steakId",
                                "type": "uint256",
                                "value": "1,257"
                            },
                            {
                                "name": "quantity",
                                "type": "uint256",
                                "value": "2"
                            },
                            {
                                "name": "charitable",
                                "type": "bool",
                                "value": true
                            }
                        ],
                        "constructorArguments": "",
                        "name": "redeemSteak",
                        "returnParams": [],
                        "signature": "redeemSteak(uint256,uint256,bool)"
                    },
                    "errorInfo": "out of gas",
                    "fromAddress": "0xacb456934139ab6309579eece93b76ebd3d95dcd",
                    "gasUsed": 100000,
                    "id": 0,
                    "methodDecoded": true,
                    "operation": "CALL",
                    "output": "",
                    "revert": true,
                    "revertMessage": "",
                    "selector": "0x40cfe0b1",
                    "status": false,
                    "value": "0.02"
                },
                "nodeType": 0
            },
            "1": {
                "invocation": {
                    "address": "0xcab65c60d9dc47e1d450c7e9074f73f1ff75f181",
                    "callData": "0x000000000000000000000000acb456934139ab6309579eece93b76ebd3d95dcd00000000000000000000000000000000000000000000000000000000000004e90000000000000000000000000000000000000000000000000000000000000002",
                    "decodedMethod": {
                        "callParams": [
                            {
                                "name": "sender",
                                "type": "address",
                                "value": "0xacb456934139ab6309579eece93b76ebd3d95dcd"
                            },
                            {
                                "name": "tokenId",
                                "type": "uint256",
                                "value": "1,257"
                            },
                            {
                                "name": "quantity",
                                "type": "uint256",
                                "value": "2"
                            }
                        ],
                        "constructorArguments": "",
                        "name": "redeem",
                        "returnParams": [],
                        "signature": "redeem(address,uint256,uint256)"
                    },
                    "errorInfo": "",
                    "fromAddress": "0x9c0ffc9088abeb2ea220d642218874639229fa7a",
                    "gasUsed": 14698,
                    "id": 1,
                    "methodDecoded": true,
                    "operation": "CALL",
                    "output": "",
                    "revert": true,
                    "revertMessage": "",
                    "selector": "0x2b83cccd",
                    "status": true,
                    "value": "0"
                },
                "nodeType": 0
            },
            "2": {
                "invocation": {
                    "address": "0x44b6766a242f97edc835586a897f3925e2eaeb3b",
                    "callData": "0x000000000000000000000000acb456934139ab6309579eece93b76ebd3d95dcd0000000000000000000000000000000000000000000000000000000000000eb600000000000000000000000000000000000000000000000000000000000004e0",
                    "decodedMethod": {
                        "callParams": [
                            {
                                "name": "tokenRecipient",
                                "type": "address",
                                "value": "0xacb456934139ab6309579eece93b76ebd3d95dcd"
                            },
                            {
                                "name": "tokenId",
                                "type": "uint256",
                                "value": "3,766"
                            },
                            {
                                "name": "deodAmount",
                                "type": "uint256",
                                "value": "1,248"
                            }
                        ],
                        "constructorArguments": "",
                        "name": "generate",
                        "returnParams": [],
                        "signature": "generate(address,uint256,uint256)"
                    },
                    "errorInfo": "",
                    "fromAddress": "0x9c0ffc9088abeb2ea220d642218874639229fa7a",
                    "gasUsed": 2933,
                    "id": 2,
                    "methodDecoded": true,
                    "operation": "STATICCALL",
                    "output": "0x2c6a1d0445e8109627e5e6f121a9a1a85d237eeacaba64907d5778f71ec2fc8d",
                    "revert": true,
                    "revertMessage": "",
                    "selector": "0xbc94b39c",
                    "status": true,
                    "value": "0"
                },
                "nodeType": 0
            },
            "3": {
                "invocation": {
                    "address": "0x44b6766a242f97edc835586a897f3925e2eaeb3b",
                    "callData": "0x000000000000000000000000acb456934139ab6309579eece93b76ebd3d95dcd00000000000000000000000000000000000000000000000000000000000002d20000000000000000000000000000000000000000000000000000000000000000",
                    "decodedMethod": {
                        "callParams": [
                            {
                                "name": "tokenRecipient",
                                "type": "address",
                                "value": "0xacb456934139ab6309579eece93b76ebd3d95dcd"
                            },
                            {
                                "name": "tokenId",
                                "type": "uint256",
                                "value": "722"
                            },
                            {
                                "name": "deodAmount",
                                "type": "uint256",
                                "value": "0"
                            }
                        ],
                        "constructorArguments": "",
                        "name": "generate",
                        "returnParams": [],
                        "signature": "generate(address,uint256,uint256)"
                    },
                    "errorInfo": "",
                    "fromAddress": "0x9c0ffc9088abeb2ea220d642218874639229fa7a",
                    "gasUsed": 933,
                    "id": 3,
                    "methodDecoded": true,
                    "operation": "STATICCALL",
                    "output": "0x56731fb494464d2580f6654001029715f08bd8a188e329b2afe6368ff8b224b8",
                    "revert": true,
                    "revertMessage": "",
                    "selector": "0xbc94b39c",
                    "status": true,
                    "value": "0"
                },
                "nodeType": 0
            }
        },
        "gasFlame": [
            {
                "children": [
                    {
                        "children": [
                            {
                                "children": [],
                                "depth": 0,
                                "name": "Initial Gas",
                                "value": 21496
                            },
                            {
                                "children": [
                                    {
                                        "children": [],
                                        "depth": 1,
                                        "name": "redeem",
                                        "value": 14698
                                    },
                                    {
                                        "children": [],
                                        "depth": 1,
                                        "name": "generate",
                                        "value": 2933
                                    },
                                    {
                                        "children": [],
                                        "depth": 1,
                                        "name": "generate",
                                        "value": 933
                                    }
                                ],
                                "depth": 0,
                                "name": "Executed Gas",
                                "value": 78504
                            }
                        ],
                        "depth": -1,
                        "name": "Actual Gas Used",
                        "value": 100000
                    },
                    {
                        "children": [],
                        "depth": -1,
                        "name": "Refunded Gas",
                        "value": 0
                    }
                ],
                "depth": -2,
                "name": "Total Gas",
                "value": 100000
            }
        ],
        "isConfirmed": true,
        "mainTrace": [
            {
                "children": [
                    {
                        "children": [
                            {
                                "children": [],
                                "depth": 1,
                                "id": 1,
                                "order": 1
                            },
                            {
                                "children": [],
                                "depth": 1,
                                "id": 2,
                                "order": 2
                            },
                            {
                                "children": [],
                                "depth": 1,
                                "id": 3,
                                "order": 3
                            }
                        ],
                        "depth": 0,
                        "id": 0,
                        "order": 0
                    }
                ],
                "depth": -1,
                "id": -1,
                "order": -1
            }
        ],
        "mainTraceNodeCount": 4,
        "parentIdMap": {
            "0": -1,
            "1": 0,
            "2": 0,
            "3": 0
        },
        "tidyTrace": [
            {
                "children": [
                    {
                        "children": [
                            {
                                "children": [],
                                "depth": 1,
                                "id": 1,
                                "order": 1
                            }
                        ],
                        "depth": 0,
                        "id": 0,
                        "order": 0
                    }
                ],
                "depth": -1,
                "id": -1,
                "order": -1
            }
        ],
        "tidyTraceNodeCount": 2
    },
    "state_change": {
        "stateChanges": []
    }
}