{
    "balance_change": {
        "balanceChanges": [
            {
                "account": "0x73d98c089070f9774f404015161edf7b297171e0",
                "assets": [
                    {
                        "address": "0xf57e7e7c23978c3caec3c3548e3d615c346e79ff",
                        "amount": "929.69368",
                        "iconUrl": "",
                        "isERC1155": false,
                        "isERC721": false,
                        "sign": false,
                        "value": "804.3709719359999713"
                    }
                ]
            },
            {
                "account": "0x63b85a1b7b842a0b33f577d7c303d85ad2fb07ee",
                "assets": [
                    {
                        "address": "0xf57e7e7c23978c3caec3c3548e3d615c346e79ff",
                        "amount": "929.69368",
                        "iconUrl": "",
                        "isERC1155": false,
                        "isERC721": false,
                        "sign": true,
                        "value": "804.3709719359999713"
                    }
                ]
            }
        ]
    },
    "profile": {
        "basic_info": {
            "baseFee": "11.791450119",
            "blockNumber": 18502220,
            "callData": "0xa9059cbb00000000000000000000000063b85a1b7b842a0b33f577d7c303d85ad2fb07ee0000000000000000000000000000000000000000000000326617743b55af0000",
            "debugEnable": true,
            "errorInfo": "",
            "eventCount": 1,
            "feeRecipient": "0x4838b106fce9647bdf1e7877bf73ce8b0bad5f97",
            "formatValue": "0",
            "gasLimit": 35000,
            "gasPrice": "13.791450119",
            "gasUsed": 29844,
            "intTxnCount": 0,
            "internalRevert": false,
            "internalRevertMessage": "",
            "isContractCreation": false,
            "isFlashloan": false,
            "maxFee": "22.006814603",
            "nonce": 9,
            "overwritedBlockNumber": -1,
            "priorityFee": "2",
            "receiver": "0xf57e7e7c23978c3caec3c3548e3d615c346e79ff",
            "revertMessage": "",
            "sender": "0x73d98c089070f9774f404015161edf7b297171e0",
            "simulationEnable": true,
            "sourceTxnHash": "0x731d5c8a272f124b4edb66630412dab8d0f6510a25fc199b52fc5725052a186f",
            "status": true,
            "timestamp": "2023-11-05T00:24:23Z",
            "transactionFee": "0.000411592037351436",
            "txnHash": "0x731d5c8a272f124b4edb66630412dab8d0f6510a25fc199b52fc5725052a186f",
            "txnIndex": 198,
            "type": 2,
            "value": "0"
        },
        "fund_flow": [
            {
                "amount": "929.69368",
                "from": "0x73d98c089070f9774f404015161edf7b297171e0",
                "id": 1,
                "isERC1155": false,
                "isERC721": false,
                "isReverted": false,
                "order": 1,
                "to": "0x63b85a1b7b842a0b33f577d7c303d85ad2fb07ee",
                "token": "0xf57e7e7c23978c3caec3c3548e3d615c346e79ff"
            }
        ],
        "token_infos": [
            {
                "address": "0xc02aaa39b223fe8d0a0e5c4f27ead9083c756cc2",
                "decimals": 18
            },
            {
                "address": "0xf57e7e7c23978c3caec3c3548e3d615c346e79ff",
                "decimals": 18
            },
            {
                "address": "0xeeeeeeeeeeeeeeeeeeeeeeeeeeeeeeeeeeeeeeee",
                "decimals": 18
            }
        ]
    },
    "address_label": {
        "labels": [
            {
                "address": "0x0000000000000000000000000000000000000002",
                "label": "Precompiled"
            },
            {
                "address": "0x0000000000000000000000000000000000000003",
                "label": "Precompiled"
            },
            {
                "address": "0x0000000000000000000000000000000000000004",
                "label": "Precompiled"
            },
            {
                "address": "0xeeeeeeeeeeeeeeeeeeeeeeeeeeeeeeeeeeeeeeee",
                "label": "Ether"
            },
            {
                "address": "0xf57e7e7c23978c3caec3c3548e3d615c346e79ff",
                "label": "IMMUTABLE X: IMX Token"
            },
            {
                "address": "0x0000000000000000000000000000000000000001",
                "label": "Precompiled"
            }
        ]
    },
    "trace": {
        "accountLabels": null,
        "dataMap": {
            "-1": {
                "invocation": {
                    "address": "0x73d98c089070f9774f404015161edf7b297171e0",
                    "callData": "",
                    "decodedMethod": null,
                    "errorInfo": "",
                    "fromAddress": "",
                    "gasUsed": 0,
                    "id": -1,
                    "methodDecoded": false,
                    "operation": "",
                    "output": "",
                    "revert": false,
                    "revertMessage": "",
                    "selector": "",
                    "status": false,
                    "value": ""
                },
                "nodeType": 0
            },
            "0": {
                "invocation": {
                    "address": "0xf57e7e7c23978c3caec3c3548e3d615c346e79ff",
                    "callData": "0x00000000000000000000000063b85a1b7b842a0b33f577d7c303d85ad2fb07ee0000000000000000000000000000000000000000000000326617743b55af0000",
                    "decodedMethod": {
                        "callParams": [
                            {
                                "name": "recipient",
                                "type": "address",
                                "value": "0x63b85a1b7b842a0b33f577d7c303d85ad2fb07ee"
                            },
                            {
                                "decimalAvailable": true,
                                "name": "amount",
                                "type": "uint256",
                                "value": "929,693,680,000,000,000,000"
                            }
                        ],
                        "constructorArguments": "",
                        "name": "transfer",
                        "returnParams": [
                            {
                                "name": "",
                                "type": "bool",
                                "value": true
                            }
                        ],
                        "signature": "transfer(address,uint256)"
                    },
                    "errorInfo": "",
                    "fromAddress": "0x73d98c089070f9774f404015161edf7b297171e0",
                    "gasUsed": 29844,
                    "id": 0,
                    "methodDecoded": true,
                    "operation": "CALL",
                    "output": "0x0000000000000000000000000000000000000000000000000000000000000001",
                    "revert": false,
                    "revertMessage": "",
                    "selector": "0xa9059cbb",
                    "status": true,
                    "value": "0"
                },
                "nodeType": 0
            },
            "1": {
                "event": {
                    "contract": "0xf57e7e7c23978c3caec3c3548e3d615c346e79ff",
                    "decodedLog": {
                        "name": "Transfer",
                        "params": [
                            {
                                "name": "from",
                                "type": "address",
                                "value": "0x73d98c089070f9774f404015161edf7b297171e0"
                            },
                            {
                                "name": "to",
                                "type": "address",
                                "value": "0x63b85a1b7b842a0b33f577d7c303d85ad2fb07ee"
                            },
                            {
                                "decimalAvailable": true,
                                "name": "value",
                                "type": "uint256",
                                "value": "929,693,680,000,000,000,000"
                            }
                        ],
                        "signature": "Transfer(address,address,uint256)"
                    },
                    "id": 1,
                    "logData": "0x0000000000000000000000000000000000000000000000326617743b55af0000",
                    "logDecoded": true,
                    "operation": "EVENT",
                    "revert": false,
                    "status": true,
                    "topics": [
                        "0xddf252ad1be2c89b69c2b068fc378daa952ba7f163c4a11628f55a4df523b3ef",
                        "0x00000000000000000000000073d98c089070f9774f404015161edf7b297171e0",
                        "0x00000000000000000000000063b85a1b7b842a0b33f577d7c303d85ad2fb07ee"
                    ]
                },
                "nodeType": 1
            }
        },
        "gasFlame": [
            {
                "children": [
                    {
                        "children": [
                            {
                                "children": [],
                                "depth": 0,
                                "name": "Initial Gas",
                                "value": 21644
                            },
                            {
                                "children": [],
                                "depth": 0,
                                "name": "Executed Gas",
                                "value": 13000
                            }
                        ],
                        "depth": -1,
                        "name": "Actual Gas Used",
                        "value": 29844
                    },
                    {
                        "children": [],
                        "depth": -1,
                        "name": "Refunded Gas",
                        "value": 4800
                    }
                ],
                "depth": -2,
                "name": "Total Gas",
                "value": 34644
            }
        ],
        "isConfirmed": true,
        "mainTrace": [
            {
                "children": [
                    {
                        "children": [
                            {
                                "children": [],
                                "depth": 1,
                                "id": 1,
                                "order": 1
                            }
                        ],
                        "depth": 0,
                        "id": 0,
                        "order": 0
                    }
                ],
                "depth": -1,
                "id": -1,
                "order": -1
            }
        ],
        "mainTraceNodeCount": 2,
        "parentIdMap": {
            "0": -1,
            "1": 0
        },
        "tidyTrace": [
            {
                "children": [
                    {
                        "children": [
                            {
                                "children": [],
                                "depth": 1,
                                "id": 1,
                                "order": 1
                            }
                        ],
                        "depth": 0,
                        "id": 0,
                        "order": 0
                    }
                ],
                "depth": -1,
                "id": -1,
                "order": -1
            }
        ],
        "tidyTraceNodeCount": 2
    },
    "state_change": {
        "stateChanges": [
            {
                "address": "0xf57e7e7c23978c3caec3c3548e3d615c346e79ff",
                "erc": "ERC-20",
                "slots": [
                    {
                        "current": "0x0000000000000000000000000000000000000000000000000000000000000000",
                        "key": "0x8a9dd86469fecd054d34227900885e07332265ec6770f278edc889782cbf4b68",
                        "prev": "0x0000000000000000000000000000000000000000000000326617743b55af0000"
                    },
                    {
                        "current": "0x00000000000000000000000000000000000000000001ae292e3bcde6d41fc82c",
                        "key": "0x4ce7b3fb2f8557bb01b2ba3432cd22d3d9ac9a5c005b7db6d6de12e04376c5ec",
                        "prev": "0x00000000000000000000000000000000000000000001adf6c82459ab7e70c82c"
                    }
                ],
                "storageVariables": [
                    {
                        "name": "_balances",
                        "type": "mapping(address => uint256)",
                        "value": {
                            "pairs": [
                                {
                                    "key": "0x63b85a1b7b842a0b33f577d7c303d85ad2fb07ee",
                                    "value": {
                                        "current": "2031377235623710189144108",
                                        "prev": "2030447541943710189144108",
                                        "typeTag": 1
                                    }
                                },
                                {
                                    "key": "0x73d98c089070f9774f404015161edf7b297171e0",
                                    "value": {
                                        "current": "0",
                                        "prev": "929693680000000000000",
                                        "typeTag": 1
                                    }
                                }
                            ],
                            "typeTag": 4
                        }
                    }
                ]
            }
        ]
    }
}