{
    "balance_change": {
        "balanceChanges": [
            {
                "account": "0x710bda329b2a6224e4b44833de30f38e7f81d564",
                "assets": [
                    {
                        "address": "0xeeeeeeeeeeeeeeeeeeeeeeeeeeeeeeeeeeeeeeee",
                        "amount": "0.008467862997382123",
                        "iconUrl": "https://assets.blocksec.com/image/1663669189317-3.png",
                        "isERC1155": false,
                        "isERC721": false,
                        "sign": true,
                        "value": "15.653776214884169153"
                    }
                ]
            },
            {
                "account": "0xb8901acb165ed027e32754e0ffe830802919727f",
                "assets": [
                    {
                        "address": "0xeeeeeeeeeeeeeeeeeeeeeeeeeeeeeeeeeeeeeeee",
                        "amount": "0.479549326936357749",
                        "iconUrl": "https://assets.blocksec.com/image/1663669189317-3.png",
                        "isERC1155": false,
                        "isERC721": false,
                        "sign": false,
                        "value": "886.499681200608952"
                    }
                ]
            },
            {
                "account": "0x540873d253ef75f62520075e48ddf8a1112b0750",
                "assets": [
                    {
                        "address": "0xeeeeeeeeeeeeeeeeeeeeeeeeeeeeeeeeeeeeeeee",
                        "amount": "0.471081463938975626",
                        "iconUrl": "https://assets.blocksec.com/image/1663669189317-3.png",
                        "isERC1155": false,
                        "isERC721": false,
                        "sign": true,
                        "value": "870.8459049801789528"
                    }
                ]
            }
        ]
    },
    "profile": {
        "basic_info": {
            "baseFee": "65.347592468",
            "blockNumber": 14915940,
            "callData": "0x23c452cd000000000000000000000000540873d253ef75f62520075e48ddf8a1112b075000000000000000000000000000000000000000000000000006a7b3927451bb75f0335e6d5bb8bfc31859d591b310cb9b21b978e05e2f5e143182de9a70f8ff64000000000000000000000000000000000000000000000000001e1579fdf733eb",
            "debugEnable": true,
            "errorInfo": "",
            "eventCount": 1,
            "feeRecipient": "0x829bd824b016326a401d083b33d092293333a830",
            "formatValue": "0",
            "gasLimit": 168259,
            "gasPrice": "69.347592468",
            "gasUsed": 115459,
            "intTxnCount": 2,
            "internalRevert": false,
            "internalRevertMessage": "",
            "isContractCreation": false,
            "isFlashloan": false,
            "maxFee": "135.225590946",
            "nonce": 68280,
            "overwritedBlockNumber": -1,
            "priorityFee": "4",
            "receiver": "0xb8901acb165ed027e32754e0ffe830802919727f",
            "revertMessage": "",
            "sender": "0x710bda329b2a6224e4b44833de30f38e7f81d564",
            "simulationEnable": true,
            "sourceTxnHash": "0x739279bd4c990984bdea2f62aed6a03f03a8f806ef1ef2f962e138b24e37e4c6",
            "status": true,
            "timestamp": "2022-06-06T16:34:36Z",
            "transactionFee": "0.008006803678762812",
            "txnHash": "0x739279bd4c990984bdea2f62aed6a03f03a8f806ef1ef2f962e138b24e37e4c6",
            "txnIndex": 22,
            "type": 2,
            "value": "0"
        },
        "fund_flow": [
            {
                "amount": "0.471081463938975626",
                "from": "0xb8901acb165ed027e32754e0ffe830802919727f",
                "id": 1,
                "isERC1155": false,
                "isERC721": false,
                "isReverted": false,
                "order": 1,
                "to": "0x540873d253ef75f62520075e48ddf8a1112b0750",
                "token": "0xeeeeeeeeeeeeeeeeeeeeeeeeeeeeeeeeeeeeeeee"
            },
            {
                "amount": "0.008467862997382123",
                "from": "0xb8901acb165ed027e32754e0ffe830802919727f",
                "id": 2,
                "isERC1155": false,
                "isERC721": false,
                "isReverted": false,
                "order": 2,
                "to": "0x710bda329b2a6224e4b44833de30f38e7f81d564",
                "token": "0xeeeeeeeeeeeeeeeeeeeeeeeeeeeeeeeeeeeeeeee"
            }
        ],
        "token_infos": [
            {
                "address": "0xc02aaa39b223fe8d0a0e5c4f27ead9083c756cc2",
                "decimals": 18
            },
            {
                "address": "0xeeeeeeeeeeeeeeeeeeeeeeeeeeeeeeeeeeeeeeee",
                "decimals": 18
            }
        ]
    },
    "address_label": {
        "labels": [
            {
                "address": "0x0000000000000000000000000000000000000002",
                "label": "Precompiled"
            },
            {
                "address": "0x0000000000000000000000000000000000000003",
                "label": "Precompiled"
            },
            {
                "address": "0x0000000000000000000000000000000000000004",
                "label": "Precompiled"
            },
            {
                "address": "0xeeeeeeeeeeeeeeeeeeeeeeeeeeeeeeeeeeeeeeee",
                "label": "Ether"
            },
            {
                "address": "0xb8901acb165ed027e32754e0ffe830802919727f",
                "label": "Hop Protocol: Ethereum Bridge"
            },
            {
                "address": "0x710bda329b2a6224e4b44833de30f38e7f81d564",
                "label": "Hop Protocol: ETH Bonder"
            },
            {
                "address": "0x0000000000000000000000000000000000000001",
                "label": "Precompiled"
            }
        ]
    },
    "trace": {
        "accountLabels": null,
        "dataMap": {
            "-1": {
                "invocation": {
                    "address": "0x710bda329b2a6224e4b44833de30f38e7f81d564",
                    "callData": "",
                    "decodedMethod": null,
                    "errorInfo": "",
                    "fromAddress": "",
                    "gasUsed": 0,
                    "id": -1,
                    "methodDecoded": false,
                    "operation": "",
                    "output": "",
                    "revert": false,
                    "revertMessage": "",
                    "selector": "",
                    "status": false,
                    "value": ""
                },
                "nodeType": 0
            },
            "0": {
                "invocation": {
                    "address": "0xb8901acb165ed027e32754e0ffe830802919727f",
                    "callData": "0x000000000000000000000000540873d253ef75f62520075e48ddf8a1112b075000000000000000000000000000000000000000000000000006a7b3927451bb75f0335e6d5bb8bfc31859d591b310cb9b21b978e05e2f5e143182de9a70f8ff64000000000000000000000000000000000000000000000000001e1579fdf733eb",
                    "decodedMethod": {
                        "callParams": [
                            {
                                "name": "recipient",
                                "type": "address",
                                "value": "0x540873d253ef75f62520075e48ddf8a1112b0750"
                            },
                            {
                                "name": "amount",
                                "type": "uint256",
                                "value": "479,549,326,936,357,749"
                            },
                            {
                                "name": "transferNonce",
                                "type": "bytes32",
                                "value": "0xf0335e6d5bb8bfc31859d591b310cb9b21b978e05e2f5e143182de9a70f8ff64"
                            },
                            {
                                "name": "bonderFee",
                                "type": "uint256",
                                "value": "8,467,862,997,382,123"
                            }
                        ],
                        "constructorArguments": "",
                        "name": "bondWithdrawal",
                        "returnParams": [],
                        "signature": "bondWithdrawal(address,uint256,bytes32,uint256)"
                    },
                    "errorInfo": "",
                    "fromAddress": "0x710bda329b2a6224e4b44833de30f38e7f81d564",
                    "gasUsed": 115459,
                    "id": 0,
                    "methodDecoded": true,
                    "operation": "CALL",
                    "output": "",
                    "revert": false,
                    "revertMessage": "",
                    "selector": "0x23c452cd",
                    "status": true,
                    "value": "0"
                },
                "nodeType": 0
            },
            "1": {
                "event": {
                    "contract": "0xb8901acb165ed027e32754e0ffe830802919727f",
                    "decodedLog": {
                        "name": "WithdrawalBonded",
                        "params": [
                            {
                                "name": "transferId",
                                "type": "bytes32",
                                "value": "0x46834ead56a12dde8f383f9f9a4acef68d32241899f2f8dcc277e42d604fe239"
                            },
                            {
                                "name": "amount",
                                "type": "uint256",
                                "value": "479,549,326,936,357,749"
                            }
                        ],
                        "signature": "WithdrawalBonded(bytes32,uint256)"
                    },
                    "id": 1,
                    "logData": "0x00000000000000000000000000000000000000000000000006a7b3927451bb75",
                    "logDecoded": true,
                    "operation": "EVENT",
                    "revert": false,
                    "status": true,
                    "topics": [
                        "0x0c3d250c7831051e78aa6a56679e590374c7c424415ffe4aa474491def2fe705",
                        "0x46834ead56a12dde8f383f9f9a4acef68d32241899f2f8dcc277e42d604fe239"
                    ]
                },
                "nodeType": 1
            },
            "2": {
                "invocation": {
                    "address": "0x540873d253ef75f62520075e48ddf8a1112b0750",
                    "callData": "0x",
                    "decodedMethod": null,
                    "errorInfo": "",
                    "fromAddress": "0xb8901acb165ed027e32754e0ffe830802919727f",
                    "gasUsed": 0,
                    "id": 2,
                    "methodDecoded": false,
                    "operation": "CALL",
                    "output": "",
                    "revert": false,
                    "revertMessage": "",
                    "selector": "fallback",
                    "status": true,
                    "value": "0.471081463938975626"
                },
                "nodeType": 0
            },
            "3": {
                "invocation": {
                    "address": "0x710bda329b2a6224e4b44833de30f38e7f81d564",
                    "callData": "0x",
                    "decodedMethod": null,
                    "errorInfo": "",
                    "fromAddress": "0xb8901acb165ed027e32754e0ffe830802919727f",
                    "gasUsed": 0,
                    "id": 3,
                    "methodDecoded": false,
                    "operation": "CALL",
                    "output": "",
                    "revert": false,
                    "revertMessage": "",
                    "selector": "fallback",
                    "status": true,
                    "value": "0.008467862997382123"
                },
                "nodeType": 0
            }
        },
        "gasFlame": [
            {
                "children": [
                    {
                        "children": [
                            {
                                "children": [],
                                "depth": 0,
                                "name": "Initial Gas",
                                "value": 22380
                            },
                            {
                                "children": [
                                    {
                                        "children": [],
                                        "depth": 1,
                                        "name": "fallback",
                                        "value": 0
                                    },
                                    {
                                        "children": [],
                                        "depth": 1,
                                        "name": "fallback",
                                        "value": 0
                                    }
                                ],
                                "depth": 0,
                                "name": "Executed Gas",
                                "value": 95879
                            }
                        ],
                        "depth": -1,
                        "name": "Actual Gas Used",
                        "value": 115459
                    },
                    {
                        "children": [],
                        "depth": -1,
                        "name": "Refunded Gas",
                        "value": 2800
                    }
                ],
                "depth": -2,
                "name": "Total Gas",
                "value": 118259
            }
        ],
        "isConfirmed": true,
        "mainTrace": [
            {
                "children": [
                    {
                        "children": [
                            {
                                "children": [],
                                "depth": 1,
                                "id": 1,
                                "order": 1
                            },
                            {
                                "children": [],
                                "depth": 1,
                                "id": 2,
                                "order": 2
                            },
                            {
                                "children": [],
                                "depth": 1,
                                "id": 3,
                                "order": 3
                            }
                        ],
                        "depth": 0,
                        "id": 0,
                        "order": 0
                    }
                ],
                "depth": -1,
                "id": -1,
                "order": -1
            }
        ],
        "mainTraceNodeCount": 4,
        "parentIdMap": {
            "0": -1,
            "1": 0,
            "2": 0,
            "3": 0
        },
        "tidyTrace": [
            {
                "children": [
                    {
                        "children": [
                            {
                                "children": [],
                                "depth": 1,
                                "id": 1,
                                "order": 1
                            },
                            {
                                "children": [],
                                "depth": 1,
                                "id": 2,
                                "order": 2
                            },
                            {
                                "children": [],
                                "depth": 1,
                                "id": 3,
                                "order": 3
                            }
                        ],
                        "depth": 0,
                        "id": 0,
                        "order": 0
                    }
                ],
                "depth": -1,
                "id": -1,
                "order": -1
            }
        ],
        "tidyTraceNodeCount": 4
    },
    "state_change": {
        "stateChanges": [
            {
                "address": "0xb8901acb165ed027e32754e0ffe830802919727f",
                "erc": "",
                "slots": [
                    {
                        "current": "0x000000000000000000000000000000000000000000001f2db6e573f4a45e2eb9",
                        "key": "0x812c8fc731d689ed5ded39e7869bf6693f18a74a2f3cb1feb1b6e33f7014843a",
                        "prev": "0x000000000000000000000000000000000000000000001f2db03dc062300c7344"
                    },
                    {
                        "current": "0x00000000000000000000000000000000000000000000000006a7b3927451bb75",
                        "key": "0x6797e3faa0336a8dcb434d72b4f305d4d38f7d334bbca084067d557f2ecc4f44",
                        "prev": "0x0000000000000000000000000000000000000000000000000000000000000000"
                    },
                    {
                        "current": "0x0000000000000000000000000000000000000000000000000000000000000001",
                        "key": "0x9e66c132f094a4b6fdf2ae1b256f20796030fa4700cbc9fbcf19579b28bef467",
                        "prev": "0x0000000000000000000000000000000000000000000000000000000000000000"
                    }
                ],
                "storageVariables": [
                    {
                        "name": "_debit",
                        "type": "mapping(address => uint256)",
                        "value": {
                            "pairs": [
                                {
                                    "key": "0x710bda329b2a6224e4b44833de30f38e7f81d564",
                                    "value": {
                                        "current": "147236643519655067922105",
                                        "prev": "147236163970328131564356",
                                        "typeTag": 1
                                    }
                                }
                            ],
                            "typeTag": 4
                        }
                    },
                    {
                        "name": "_bondedWithdrawalAmounts",
                        "type": "mapping(address => mapping(bytes32 => uint256))",
                        "value": {
                            "pairs": [
                                {
                                    "key": "0x710bda329b2a6224e4b44833de30f38e7f81d564",
                                    "value": {
                                        "pairs": [
                                            {
                                                "key": "0x46834ead56a12dde8f383f9f9a4acef68d32241899f2f8dcc277e42d604fe239",
                                                "value": {
                                                    "current": "479549326936357749",
                                                    "prev": "0",
                                                    "typeTag": 1
                                                }
                                            }
                                        ],
                                        "typeTag": 4
                                    }
                                }
                            ],
                            "typeTag": 4
                        }
                    },
                    {
                        "name": "_spentTransferIds",
                        "type": "mapping(bytes32 => bool)",
                        "value": {
                            "pairs": [
                                {
                                    "key": "0x46834ead56a12dde8f383f9f9a4acef68d32241899f2f8dcc277e42d604fe239",
                                    "value": {
                                        "current": "true",
                                        "prev": "false",
                                        "typeTag": 1
                                    }
                                }
                            ],
                            "typeTag": 4
                        }
                    }
                ]
            }
        ]
    }
}