{
    "balance_change": {
        "balanceChanges": [
            {
                "account": "0xbc273efc16046e388e739046f43de281a547b04d",
                "assets": [
                    {
                        "address": "0xeeeeeeeeeeeeeeeeeeeeeeeeeeeeeeeeeeeeeeee",
                        "amount": "0.6",
                        "iconUrl": "https://assets.blocksec.com/image/1663669189317-3.png",
                        "isERC1155": false,
                        "isERC721": false,
                        "sign": false,
                        "value": "2126.886"
                    },
                    {
                        "address": "0x960987eb8f00b8ea75fdea8ccc3eb2eeaf10f978",
                        "amount": "3",
                        "iconUrl": "",
                        "isERC1155": true,
                        "isERC721": false,
                        "sign": true,
                        "tokenID": "2",
                        "value": ""
                    }
                ]
            },
            {
                "account": "0x960987eb8f00b8ea75fdea8ccc3eb2eeaf10f978",
                "assets": [
                    {
                        "address": "0xeeeeeeeeeeeeeeeeeeeeeeeeeeeeeeeeeeeeeeee",
                        "amount": "0.6",
                        "iconUrl": "https://assets.blocksec.com/image/1663669189317-3.png",
                        "isERC1155": false,
                        "isERC721": false,
                        "sign": true,
                        "value": "2126.886"
                    }
                ]
            },
            {
                "account": "0x0000000000000000000000000000000000000000",
                "assets": [
                    {
                        "address": "0x960987eb8f00b8ea75fdea8ccc3eb2eeaf10f978",
                        "amount": "3",
                        "iconUrl": "",
                        "isERC1155": true,
                        "isERC721": false,
                        "sign": false,
                        "tokenID": "2",
                        "value": ""
                    }
                ]
            }
        ]
    },
    "profile": {
        "basic_info": {
            "baseFee": "46.741891572",
            "blockNumber": 13391117,
            "callData": "0xab00492f0000000000000000000000000000000000000000000000000000000000000002",
            "debugEnable": true,
            "errorInfo": "",
            "eventCount": 2,
            "feeRecipient": "0x99c85bb64564d9ef9a99621301f22c9993cb89e3",
            "formatValue": "0.6",
            "gasLimit": 71214,
            "gasPrice": "97",
            "gasUsed": 71214,
            "intTxnCount": 0,
            "internalRevert": false,
            "internalRevertMessage": "",
            "isContractCreation": false,
            "isFlashloan": false,
            "maxFee": "97",
            "nonce": 261,
            "overwritedBlockNumber": -1,
            "priorityFee": "97",
            "receiver": "0x960987eb8f00b8ea75fdea8ccc3eb2eeaf10f978",
            "revertMessage": "",
            "sender": "0xbc273efc16046e388e739046f43de281a547b04d",
            "simulationEnable": true,
            "sourceTxnHash": "0x749829eb7b0aabeb7ee22e35e26da2f79f98d5027fcecea622fe4988c5009810",
            "status": true,
            "timestamp": "2021-10-10T13:22:20Z",
            "transactionFee": "0.006907758",
            "txnHash": "0x749829eb7b0aabeb7ee22e35e26da2f79f98d5027fcecea622fe4988c5009810",
            "txnIndex": 1,
            "type": 2,
            "value": "600000000000000000"
        },
        "fund_flow": [
            {
                "amount": "0.6",
                "from": "0xbc273efc16046e388e739046f43de281a547b04d",
                "id": 1,
                "isERC1155": false,
                "isERC721": false,
                "isReverted": false,
                "order": 1,
                "to": "0x960987eb8f00b8ea75fdea8ccc3eb2eeaf10f978",
                "token": "0xeeeeeeeeeeeeeeeeeeeeeeeeeeeeeeeeeeeeeeee"
            },
            {
                "amount": "3",
                "from": "0x0000000000000000000000000000000000000000",
                "id": 2,
                "isERC1155": true,
                "isERC721": false,
                "isReverted": false,
                "order": 2,
                "to": "0xbc273efc16046e388e739046f43de281a547b04d",
                "token": "0x960987eb8f00b8ea75fdea8ccc3eb2eeaf10f978",
                "tokenID": "2"
            }
        ],
        "token_infos": [
            {
                "address": "0xeeeeeeeeeeeeeeeeeeeeeeeeeeeeeeeeeeeeeeee",
                "decimals": 18
            },
            {
                "address": "0xc02aaa39b223fe8d0a0e5c4f27ead9083c756cc2",
                "decimals": 18
            }
        ]
    },
    "address_label": {
        "labels": [
            {
                "address": "0xeeeeeeeeeeeeeeeeeeeeeeeeeeeeeeeeeeeeeeee",
                "label": "Ether"
            },
            {
                "address": "0x960987eb8f00b8ea75fdea8ccc3eb2eeaf10f978",
                "label": "SIDUS NFT HEROES - Galaxy Modifica..."
            },
            {
                "address": "0x0000000000000000000000000000000000000001",
                "label": "Precompiled"
            },
            {
                "address": "0x0000000000000000000000000000000000000002",
                "label": "Precompiled"
            },
            {
                "address": "0x0000000000000000000000000000000000000003",
                "label": "Precompiled"
            },
            {
                "address": "0x0000000000000000000000000000000000000004",
                "label": "Precompiled"
            }
        ]
    },
    "trace": {
        "accountLabels": null,
        "dataMap": {
            "-1": {
                "invocation": {
                    "address": "0xbc273efc16046e388e739046f43de281a547b04d",
                    "callData": "",
                    "decodedMethod": null,
                    "errorInfo": "",
                    "fromAddress": "",
                    "gasUsed": 0,
                    "id": -1,
                    "methodDecoded": false,
                    "operation": "",
                    "output": "",
                    "revert": false,
                    "revertMessage": "",
                    "selector": "",
                    "status": false,
                    "value": ""
                },
                "nodeType": 0
            },
            "0": {
                "invocation": {
                    "address": "0x960987eb8f00b8ea75fdea8ccc3eb2eeaf10f978",
                    "callData": "0x0000000000000000000000000000000000000000000000000000000000000002",
                    "decodedMethod": {
                        "callParams": [
                            {
                                "name": "tokenID",
                                "type": "uint256",
                                "value": "2"
                            }
                        ],
                        "constructorArguments": "",
                        "name": "multiMint",
                        "returnParams": [],
                        "signature": "multiMint(uint256)"
                    },
                    "errorInfo": "",
                    "fromAddress": "0xbc273efc16046e388e739046f43de281a547b04d",
                    "gasUsed": 71214,
                    "id": 0,
                    "methodDecoded": true,
                    "operation": "CALL",
                    "output": "",
                    "revert": false,
                    "revertMessage": "",
                    "selector": "0xab00492f",
                    "status": true,
                    "value": "0.6"
                },
                "nodeType": 0
            },
            "1": {
                "event": {
                    "contract": "0x960987eb8f00b8ea75fdea8ccc3eb2eeaf10f978",
                    "decodedLog": {
                        "name": "TransferSingle",
                        "params": [
                            {
                                "name": "operator",
                                "type": "address",
                                "value": "0xbc273efc16046e388e739046f43de281a547b04d"
                            },
                            {
                                "name": "from",
                                "type": "address",
                                "value": "0x0000000000000000000000000000000000000000"
                            },
                            {
                                "name": "to",
                                "type": "address",
                                "value": "0xbc273efc16046e388e739046f43de281a547b04d"
                            },
                            {
                                "name": "id",
                                "type": "uint256",
                                "value": "2"
                            },
                            {
                                "name": "value",
                                "type": "uint256",
                                "value": "3"
                            }
                        ],
                        "signature": "TransferSingle(address,address,address,uint256,uint256)"
                    },
                    "id": 1,
                    "logData": "0x00000000000000000000000000000000000000000000000000000000000000020000000000000000000000000000000000000000000000000000000000000003",
                    "logDecoded": true,
                    "operation": "EVENT",
                    "revert": false,
                    "status": true,
                    "topics": [
                        "0xc3d58168c5ae7397731d063d5bbf3d657854427343f4c083240f7aacaa2d0f62",
                        "0x000000000000000000000000bc273efc16046e388e739046f43de281a547b04d",
                        "0x0000000000000000000000000000000000000000000000000000000000000000",
                        "0x000000000000000000000000bc273efc16046e388e739046f43de281a547b04d"
                    ]
                },
                "nodeType": 1
            },
            "2": {
                "event": {
                    "contract": "0x960987eb8f00b8ea75fdea8ccc3eb2eeaf10f978",
                    "decodedLog": {
                        "name": "MintSource",
                        "params": [
                            {
                                "name": "tokenId",
                                "type": "uint256",
                                "value": "2"
                            },
                            {
                                "name": "amount",
                                "type": "uint256",
                                "value": "3"
                            },
                            {
                                "name": "channel",
                                "type": "uint8",
                                "value": "2"
                            }
                        ],
                        "signature": "MintSource(uint256,uint256,uint8)"
                    },
                    "id": 2,
                    "logData": "0x000000000000000000000000000000000000000000000000000000000000000200000000000000000000000000000000000000000000000000000000000000030000000000000000000000000000000000000000000000000000000000000002",
                    "logDecoded": true,
                    "operation": "EVENT",
                    "revert": false,
                    "status": true,
                    "topics": [
                        "0x7b881d936ff51ac84a956af91b7db25c1b7d9bd61372534c809254750233592d"
                    ]
                },
                "nodeType": 1
            }
        },
        "gasFlame": [
            {
                "children": [
                    {
                        "children": [
                            {
                                "children": [],
                                "depth": 0,
                                "name": "Initial Gas",
                                "value": 21192
                            },
                            {
                                "children": [],
                                "depth": 0,
                                "name": "Executed Gas",
                                "value": 50022
                            }
                        ],
                        "depth": -1,
                        "name": "Actual Gas Used",
                        "value": 71214
                    },
                    {
                        "children": [],
                        "depth": -1,
                        "name": "Refunded Gas",
                        "value": 0
                    }
                ],
                "depth": -2,
                "name": "Total Gas",
                "value": 71214
            }
        ],
        "isConfirmed": true,
        "mainTrace": [
            {
                "children": [
                    {
                        "children": [
                            {
                                "children": [],
                                "depth": 1,
                                "id": 1,
                                "order": 1
                            },
                            {
                                "children": [],
                                "depth": 1,
                                "id": 2,
                                "order": 2
                            }
                        ],
                        "depth": 0,
                        "id": 0,
                        "order": 0
                    }
                ],
                "depth": -1,
                "id": -1,
                "order": -1
            }
        ],
        "mainTraceNodeCount": 3,
        "parentIdMap": {
            "0": -1,
            "1": 0,
            "2": 0
        },
        "tidyTrace": [
            {
                "children": [
                    {
                        "children": [
                            {
                                "children": [],
                                "depth": 1,
                                "id": 1,
                                "order": 1
                            },
                            {
                                "children": [],
                                "depth": 1,
                                "id": 2,
                                "order": 2
                            }
                        ],
                        "depth": 0,
                        "id": 0,
                        "order": 0
                    }
                ],
                "depth": -1,
                "id": -1,
                "order": -1
            }
        ],
        "tidyTraceNodeCount": 3
    },
    "state_change": {
        "stateChanges": [
            {
                "address": "0x960987eb8f00b8ea75fdea8ccc3eb2eeaf10f978",
                "erc": "ERC-1155",
                "slots": [
                    {
                        "current": "0x00000000000000000000000000000000000000000000000000000000000005ba",
                        "key": "0xc3a24b0501bd2c13a7e57f2db4369ec4c223447539fc0724a9d55ac4a06ebd4d",
                        "prev": "0x00000000000000000000000000000000000000000000000000000000000005b7"
                    },
                    {
                        "current": "0x0000000000000000000000000000000000000000000000000000000000000003",
                        "key": "0x30775096910d28871284bb4c8569588da4738d980fa6d823b52ceadab0b09a19",
                        "prev": "0x0000000000000000000000000000000000000000000000000000000000000000"
                    }
                ],
                "storageVariables": [
                    {
                        "name": "_totalSupply",
                        "type": "mapping(uint256 => uint256)",
                        "value": {
                            "pairs": [
                                {
                                    "key": "2",
                                    "value": {
                                        "current": "1466",
                                        "prev": "1463",
                                        "typeTag": 1
                                    }
                                }
                            ],
                            "typeTag": 4
                        }
                    },
                    {
                        "name": "_balances",
                        "type": "mapping(uint256 => mapping(address => uint256))",
                        "value": {
                            "pairs": [
                                {
                                    "key": "2",
                                    "value": {
                                        "pairs": [
                                            {
                                                "key": "0xbc273efc16046e388e739046f43de281a547b04d",
                                                "value": {
                                                    "current": "3",
                                                    "prev": "0",
                                                    "typeTag": 1
                                                }
                                            }
                                        ],
                                        "typeTag": 4
                                    }
                                }
                            ],
                            "typeTag": 4
                        }
                    }
                ]
            }
        ]
    }
}