{
    "balance_change": {
        "balanceChanges": [
            {
                "account": "0x2da14f186b60c0de6af288114a820767b25a3c39",
                "assets": [
                    {
                        "address": "0xbb9fd9fa4863c03c574007ff3370787b9ce65ff6",
                        "amount": "50,387.756551256606609447",
                        "iconUrl": "",
                        "isERC1155": false,
                        "isERC721": false,
                        "sign": false,
                        "value": "2424.936291"
                    }
                ]
            },
            {
                "account": "0xcfbb29d5dd75b3182ad1da5060a9c3d734180be2",
                "assets": [
                    {
                        "address": "0xbb9fd9fa4863c03c574007ff3370787b9ce65ff6",
                        "amount": "50,387.756551256606609447",
                        "iconUrl": "",
                        "isERC1155": false,
                        "isERC721": false,
                        "sign": true,
                        "value": "2424.936291"
                    }
                ]
            }
        ]
    },
    "profile": {
        "basic_info": {
            "baseFee": "60.323563052",
            "blockNumber": 17771803,
            "callData": "0xa9059cbb000000000000000000000000cfbb29d5dd75b3182ad1da5060a9c3d734180be2000000000000000000000000000000000000000000000aab8697f1978fd59027",
            "debugEnable": true,
            "errorInfo": "",
            "eventCount": 1,
            "feeRecipient": "0x95222290dd7278aa3ddd389cc1e1d165cc4bafe5",
            "formatValue": "0",
            "gasLimit": 97858,
            "gasPrice": "60.423563052",
            "gasUsed": 60439,
            "intTxnCount": 0,
            "internalRevert": false,
            "internalRevertMessage": "",
            "isContractCreation": false,
            "isFlashloan": false,
            "maxFee": "80.69152064",
            "nonce": 85,
            "overwritedBlockNumber": -1,
            "priorityFee": "0.1",
            "receiver": "0xbb9fd9fa4863c03c574007ff3370787b9ce65ff6",
            "revertMessage": "",
            "sender": "0x2da14f186b60c0de6af288114a820767b25a3c39",
            "simulationEnable": true,
            "sourceTxnHash": "0x74aa52feb0fa0386fbf219e41624a03e268fd4b1de80f55d273914be26edfbe9",
            "status": true,
            "timestamp": "2023-07-25T18:09:47Z",
            "transactionFee": "0.003651939727299828",
            "txnHash": "0x74aa52feb0fa0386fbf219e41624a03e268fd4b1de80f55d273914be26edfbe9",
            "txnIndex": 99,
            "type": 2,
            "value": "0"
        },
        "fund_flow": [
            {
                "amount": "50,387.756551256606609447",
                "from": "0x2da14f186b60c0de6af288114a820767b25a3c39",
                "id": 1,
                "isERC1155": false,
                "isERC721": false,
                "isReverted": false,
                "order": 1,
                "to": "0xcfbb29d5dd75b3182ad1da5060a9c3d734180be2",
                "token": "0xbb9fd9fa4863c03c574007ff3370787b9ce65ff6"
            }
        ],
        "token_infos": [
            {
                "address": "0xbb9fd9fa4863c03c574007ff3370787b9ce65ff6",
                "decimals": 18
            },
            {
                "address": "0xc02aaa39b223fe8d0a0e5c4f27ead9083c756cc2",
                "decimals": 18
            },
            {
                "address": "0xeeeeeeeeeeeeeeeeeeeeeeeeeeeeeeeeeeeeeeee",
                "decimals": 18
            }
        ]
    },
    "address_label": {
        "labels": [
            {
                "address": "0xeeeeeeeeeeeeeeeeeeeeeeeeeeeeeeeeeeeeeeee",
                "label": "Ether"
            },
            {
                "address": "0xbb9fd9fa4863c03c574007ff3370787b9ce65ff6",
                "label": "HILO: HILO Token"
            },
            {
                "address": "0x0000000000000000000000000000000000000001",
                "label": "Precompiled"
            },
            {
                "address": "0x0000000000000000000000000000000000000002",
                "label": "Precompiled"
            },
            {
                "address": "0x0000000000000000000000000000000000000003",
                "label": "Precompiled"
            },
            {
                "address": "0x0000000000000000000000000000000000000004",
                "label": "Precompiled"
            }
        ]
    },
    "trace": {
        "accountLabels": null,
        "dataMap": {
            "-1": {
                "invocation": {
                    "address": "0x2da14f186b60c0de6af288114a820767b25a3c39",
                    "callData": "",
                    "decodedMethod": null,
                    "errorInfo": "",
                    "fromAddress": "",
                    "gasUsed": 0,
                    "id": -1,
                    "methodDecoded": false,
                    "operation": "",
                    "output": "",
                    "revert": false,
                    "revertMessage": "",
                    "selector": "",
                    "status": false,
                    "value": ""
                },
                "nodeType": 0
            },
            "0": {
                "invocation": {
                    "address": "0xbb9fd9fa4863c03c574007ff3370787b9ce65ff6",
                    "callData": "0x000000000000000000000000cfbb29d5dd75b3182ad1da5060a9c3d734180be2000000000000000000000000000000000000000000000aab8697f1978fd59027",
                    "decodedMethod": {
                        "callParams": [
                            {
                                "name": "recipient",
                                "type": "address",
                                "value": "0xcfbb29d5dd75b3182ad1da5060a9c3d734180be2"
                            },
                            {
                                "decimalAvailable": true,
                                "name": "amount",
                                "type": "uint256",
                                "value": "50,387,756,551,256,606,609,447"
                            }
                        ],
                        "constructorArguments": "",
                        "name": "transfer",
                        "returnParams": [
                            {
                                "name": "",
                                "type": "bool",
                                "value": true
                            }
                        ],
                        "signature": "transfer(address,uint256)"
                    },
                    "errorInfo": "",
                    "fromAddress": "0x2da14f186b60c0de6af288114a820767b25a3c39",
                    "gasUsed": 60439,
                    "id": 0,
                    "methodDecoded": true,
                    "operation": "CALL",
                    "output": "0x0000000000000000000000000000000000000000000000000000000000000001",
                    "revert": false,
                    "revertMessage": "",
                    "selector": "0xa9059cbb",
                    "status": true,
                    "value": "0"
                },
                "nodeType": 0
            },
            "1": {
                "event": {
                    "contract": "0xbb9fd9fa4863c03c574007ff3370787b9ce65ff6",
                    "decodedLog": {
                        "name": "Transfer",
                        "params": [
                            {
                                "name": "from",
                                "type": "address",
                                "value": "0x2da14f186b60c0de6af288114a820767b25a3c39"
                            },
                            {
                                "name": "to",
                                "type": "address",
                                "value": "0xcfbb29d5dd75b3182ad1da5060a9c3d734180be2"
                            },
                            {
                                "decimalAvailable": true,
                                "name": "value",
                                "type": "uint256",
                                "value": "50,387,756,551,256,606,609,447"
                            }
                        ],
                        "signature": "Transfer(address,address,uint256)"
                    },
                    "id": 1,
                    "logData": "0x000000000000000000000000000000000000000000000aab8697f1978fd59027",
                    "logDecoded": true,
                    "operation": "EVENT",
                    "revert": false,
                    "status": true,
                    "topics": [
                        "0xddf252ad1be2c89b69c2b068fc378daa952ba7f163c4a11628f55a4df523b3ef",
                        "0x0000000000000000000000002da14f186b60c0de6af288114a820767b25a3c39",
                        "0x000000000000000000000000cfbb29d5dd75b3182ad1da5060a9c3d734180be2"
                    ]
                },
                "nodeType": 1
            }
        },
        "gasFlame": [
            {
                "children": [
                    {
                        "children": [
                            {
                                "children": [],
                                "depth": 0,
                                "name": "Initial Gas",
                                "value": 21680
                            },
                            {
                                "children": [],
                                "depth": 0,
                                "name": "Executed Gas",
                                "value": 43559
                            }
                        ],
                        "depth": -1,
                        "name": "Actual Gas Used",
                        "value": 60439
                    },
                    {
                        "children": [],
                        "depth": -1,
                        "name": "Refunded Gas",
                        "value": 4800
                    }
                ],
                "depth": -2,
                "name": "Total Gas",
                "value": 65239
            }
        ],
        "isConfirmed": true,
        "mainTrace": [
            {
                "children": [
                    {
                        "children": [
                            {
                                "children": [],
                                "depth": 1,
                                "id": 1,
                                "order": 1
                            }
                        ],
                        "depth": 0,
                        "id": 0,
                        "order": 0
                    }
                ],
                "depth": -1,
                "id": -1,
                "order": -1
            }
        ],
        "mainTraceNodeCount": 2,
        "parentIdMap": {
            "0": -1,
            "1": 0
        },
        "tidyTrace": [
            {
                "children": [
                    {
                        "children": [
                            {
                                "children": [],
                                "depth": 1,
                                "id": 1,
                                "order": 1
                            }
                        ],
                        "depth": 0,
                        "id": 0,
                        "order": 0
                    }
                ],
                "depth": -1,
                "id": -1,
                "order": -1
            }
        ],
        "tidyTraceNodeCount": 2
    },
    "state_change": {
        "stateChanges": [
            {
                "address": "0xbb9fd9fa4863c03c574007ff3370787b9ce65ff6",
                "erc": "ERC-20",
                "slots": [
                    {
                        "current": "0x0000000000000000000000000000000000000000000000000000000000000000",
                        "key": "0xf02e1b5d3dbba986ff5e608fc49ff7ca2fe3d28f4e117831bb704bda069c5d40",
                        "prev": "0x000000000000000000000000000000000000000000000aab8697f1978fd59027"
                    },
                    {
                        "current": "0x000000000000000000000000000000000000000000000aab8697f1978fd59027",
                        "key": "0x6b5e8465cc5ac799c18b1d4d83d94dadbd4da1abe0ba807c1259c249ef87628f",
                        "prev": "0x0000000000000000000000000000000000000000000000000000000000000000"
                    }
                ],
                "storageVariables": [
                    {
                        "name": "_balances",
                        "type": "mapping(address => uint256)",
                        "value": {
                            "pairs": [
                                {
                                    "key": "0x2da14f186b60c0de6af288114a820767b25a3c39",
                                    "value": {
                                        "current": "0",
                                        "prev": "50387756551256606609447",
                                        "typeTag": 1
                                    }
                                },
                                {
                                    "key": "0xcfbb29d5dd75b3182ad1da5060a9c3d734180be2",
                                    "value": {
                                        "current": "50387756551256606609447",
                                        "prev": "0",
                                        "typeTag": 1
                                    }
                                }
                            ],
                            "typeTag": 4
                        }
                    }
                ]
            }
        ]
    }
}