{
    "balance_change": {
        "balanceChanges": [
            {
                "account": "0xedc90995bc6e3b57783cb801cd67d68e73ec8a12",
                "assets": [
                    {
                        "address": "0x5da8d37485b4374fc338fc1f1ea31d07eb7bedd3",
                        "amount": "91",
                        "iconUrl": "",
                        "isERC1155": false,
                        "isERC721": false,
                        "sign": false,
                        "value": ""
                    }
                ]
            },
            {
                "account": "0x0000000000000000000000000000000000000000",
                "assets": [
                    {
                        "address": "0x5da8d37485b4374fc338fc1f1ea31d07eb7bedd3",
                        "amount": "58.422",
                        "iconUrl": "",
                        "isERC1155": false,
                        "isERC721": false,
                        "sign": true,
                        "value": ""
                    }
                ]
            },
            {
                "account": "0x2dc5a03407e21828af96fcdb7cc372b2e09c71f1",
                "assets": [
                    {
                        "address": "0x5da8d37485b4374fc338fc1f1ea31d07eb7bedd3",
                        "amount": "32.578",
                        "iconUrl": "",
                        "isERC1155": false,
                        "isERC721": false,
                        "sign": true,
                        "value": ""
                    }
                ]
            }
        ]
    },
    "profile": {
        "basic_info": {
            "baseFee": "",
            "blockNumber": 6621394,
            "callData": "0xd2a3899c00000000000000000000000000000000000000000000000000044364de959bbb000000000000000000000000000000000000000000000000000000021e66fb00000000000000000000000000000000000000000000000000000000015c38e5c0",
            "debugEnable": true,
            "errorInfo": "",
            "eventCount": 4,
            "feeRecipient": "0xb2930b35844a230f00e51431acae96fe543a0347",
            "formatValue": "0",
            "gasLimit": 100000,
            "gasPrice": "18",
            "gasUsed": 54963,
            "intTxnCount": 0,
            "internalRevert": false,
            "internalRevertMessage": "",
            "isContractCreation": false,
            "isFlashloan": false,
            "maxFee": "",
            "nonce": 803,
            "overwritedBlockNumber": -1,
            "priorityFee": "",
            "receiver": "0x5da8d37485b4374fc338fc1f1ea31d07eb7bedd3",
            "revertMessage": "",
            "sender": "0xedc90995bc6e3b57783cb801cd67d68e73ec8a12",
            "simulationEnable": true,
            "sourceTxnHash": "0x74d1a97ffff45fcbeb8edbe753f6fe7a062744a77b8a4ee30fc5afee70f7cf5f",
            "status": true,
            "timestamp": "2018-11-01T03:45:30Z",
            "transactionFee": "0.000989334",
            "txnHash": "0x74d1a97ffff45fcbeb8edbe753f6fe7a062744a77b8a4ee30fc5afee70f7cf5f",
            "txnIndex": 43,
            "type": 0,
            "value": "0"
        },
        "fund_flow": [
            {
                "amount": "32.578",
                "from": "0xedc90995bc6e3b57783cb801cd67d68e73ec8a12",
                "id": 1,
                "isERC1155": false,
                "isERC721": false,
                "isReverted": false,
                "order": 1,
                "to": "0x2dc5a03407e21828af96fcdb7cc372b2e09c71f1",
                "token": "0x5da8d37485b4374fc338fc1f1ea31d07eb7bedd3"
            },
            {
                "amount": "58.422",
                "from": "0xedc90995bc6e3b57783cb801cd67d68e73ec8a12",
                "id": 2,
                "isERC1155": false,
                "isERC721": false,
                "isReverted": false,
                "order": 2,
                "to": "0x0000000000000000000000000000000000000000",
                "token": "0x5da8d37485b4374fc338fc1f1ea31d07eb7bedd3"
            }
        ],
        "token_infos": [
            {
                "address": "0x5da8d37485b4374fc338fc1f1ea31d07eb7bedd3",
                "decimals": 8
            },
            {
                "address": "0xc02aaa39b223fe8d0a0e5c4f27ead9083c756cc2",
                "decimals": 18
            },
            {
                "address": "0xeeeeeeeeeeeeeeeeeeeeeeeeeeeeeeeeeeeeeeee",
                "decimals": 18
            }
        ]
    },
    "address_label": {
        "labels": [
            {
                "address": "0x5da8d37485b4374fc338fc1f1ea31d07eb7bedd3",
                "label": "Tuzy Coin (TUC)"
            },
            {
                "address": "0x0000000000000000000000000000000000000001",
                "label": "Precompiled"
            },
            {
                "address": "0x0000000000000000000000000000000000000002",
                "label": "Precompiled"
            },
            {
                "address": "0x0000000000000000000000000000000000000003",
                "label": "Precompiled"
            },
            {
                "address": "0x0000000000000000000000000000000000000004",
                "label": "Precompiled"
            },
            {
                "address": "0xeeeeeeeeeeeeeeeeeeeeeeeeeeeeeeeeeeeeeeee",
                "label": "Ether"
            }
        ]
    },
    "trace": {
        "accountLabels": null,
        "dataMap": {
            "-1": {
                "invocation": {
                    "address": "0xedc90995bc6e3b57783cb801cd67d68e73ec8a12",
                    "callData": "",
                    "decodedMethod": null,
                    "errorInfo": "",
                    "fromAddress": "",
                    "gasUsed": 0,
                    "id": -1,
                    "methodDecoded": false,
                    "operation": "",
                    "output": "",
                    "revert": false,
                    "revertMessage": "",
                    "selector": "",
                    "status": false,
                    "value": ""
                },
                "nodeType": 0
            },
            "0": {
                "invocation": {
                    "address": "0x5da8d37485b4374fc338fc1f1ea31d07eb7bedd3",
                    "callData": "0x00000000000000000000000000000000000000000000000000044364de959bbb000000000000000000000000000000000000000000000000000000021e66fb00000000000000000000000000000000000000000000000000000000015c38e5c0",
                    "decodedMethod": {
                        "callParams": [
                            {
                                "name": "_orderId",
                                "type": "uint256",
                                "value": "1,200,000,416,979,899"
                            },
                            {
                                "name": "_amount",
                                "type": "uint256",
                                "value": "9,100,000,000"
                            },
                            {
                                "name": "_burnAmount",
                                "type": "uint256",
                                "value": "5,842,200,000"
                            }
                        ],
                        "constructorArguments": "",
                        "name": "payOrder",
                        "returnParams": [],
                        "signature": "payOrder(uint256,uint256,uint256)"
                    },
                    "errorInfo": "",
                    "fromAddress": "0xedc90995bc6e3b57783cb801cd67d68e73ec8a12",
                    "gasUsed": 54963,
                    "id": 0,
                    "methodDecoded": true,
                    "operation": "CALL",
                    "output": "",
                    "revert": false,
                    "revertMessage": "",
                    "selector": "0xd2a3899c",
                    "status": true,
                    "value": "0"
                },
                "nodeType": 0
            },
            "1": {
                "event": {
                    "contract": "0x5da8d37485b4374fc338fc1f1ea31d07eb7bedd3",
                    "decodedLog": {
                        "name": "Transfer",
                        "params": [
                            {
                                "name": "from",
                                "type": "address",
                                "value": "0xedc90995bc6e3b57783cb801cd67d68e73ec8a12"
                            },
                            {
                                "name": "to",
                                "type": "address",
                                "value": "0x2dc5a03407e21828af96fcdb7cc372b2e09c71f1"
                            },
                            {
                                "decimalAvailable": true,
                                "name": "value",
                                "type": "uint256",
                                "value": "3,257,800,000"
                            }
                        ],
                        "signature": "Transfer(address,address,uint256)"
                    },
                    "id": 1,
                    "logData": "0x00000000000000000000000000000000000000000000000000000000c22e1540",
                    "logDecoded": true,
                    "operation": "EVENT",
                    "revert": false,
                    "status": true,
                    "topics": [
                        "0xddf252ad1be2c89b69c2b068fc378daa952ba7f163c4a11628f55a4df523b3ef",
                        "0x000000000000000000000000edc90995bc6e3b57783cb801cd67d68e73ec8a12",
                        "0x0000000000000000000000002dc5a03407e21828af96fcdb7cc372b2e09c71f1"
                    ]
                },
                "nodeType": 1
            },
            "2": {
                "event": {
                    "contract": "0x5da8d37485b4374fc338fc1f1ea31d07eb7bedd3",
                    "decodedLog": {
                        "name": "Burn",
                        "params": [
                            {
                                "name": "burner",
                                "type": "address",
                                "value": "0xedc90995bc6e3b57783cb801cd67d68e73ec8a12"
                            },
                            {
                                "name": "value",
                                "type": "uint256",
                                "value": "5,842,200,000"
                            }
                        ],
                        "signature": "Burn(address,uint256)"
                    },
                    "id": 2,
                    "logData": "0x000000000000000000000000000000000000000000000000000000015c38e5c0",
                    "logDecoded": true,
                    "operation": "EVENT",
                    "revert": false,
                    "status": true,
                    "topics": [
                        "0xcc16f5dbb4873280815c1ee09dbd06736cffcc184412cf7a71a0fdb75d397ca5",
                        "0x000000000000000000000000edc90995bc6e3b57783cb801cd67d68e73ec8a12"
                    ]
                },
                "nodeType": 1
            },
            "3": {
                "event": {
                    "contract": "0x5da8d37485b4374fc338fc1f1ea31d07eb7bedd3",
                    "decodedLog": {
                        "name": "Transfer",
                        "params": [
                            {
                                "name": "from",
                                "type": "address",
                                "value": "0xedc90995bc6e3b57783cb801cd67d68e73ec8a12"
                            },
                            {
                                "name": "to",
                                "type": "address",
                                "value": "0x0000000000000000000000000000000000000000"
                            },
                            {
                                "decimalAvailable": true,
                                "name": "value",
                                "type": "uint256",
                                "value": "5,842,200,000"
                            }
                        ],
                        "signature": "Transfer(address,address,uint256)"
                    },
                    "id": 3,
                    "logData": "0x000000000000000000000000000000000000000000000000000000015c38e5c0",
                    "logDecoded": true,
                    "operation": "EVENT",
                    "revert": false,
                    "status": true,
                    "topics": [
                        "0xddf252ad1be2c89b69c2b068fc378daa952ba7f163c4a11628f55a4df523b3ef",
                        "0x000000000000000000000000edc90995bc6e3b57783cb801cd67d68e73ec8a12",
                        "0x0000000000000000000000000000000000000000000000000000000000000000"
                    ]
                },
                "nodeType": 1
            },
            "4": {
                "event": {
                    "contract": "0x5da8d37485b4374fc338fc1f1ea31d07eb7bedd3",
                    "decodedLog": {
                        "name": "Pay",
                        "params": [
                            {
                                "name": "owner",
                                "type": "address",
                                "value": "0xedc90995bc6e3b57783cb801cd67d68e73ec8a12"
                            },
                            {
                                "name": "orderId",
                                "type": "uint256",
                                "value": "1,200,000,416,979,899"
                            },
                            {
                                "name": "amount",
                                "type": "uint256",
                                "value": "9,100,000,000"
                            },
                            {
                                "name": "burnAmount",
                                "type": "uint256",
                                "value": "5,842,200,000"
                            }
                        ],
                        "signature": "Pay(address,uint256,uint256,uint256)"
                    },
                    "id": 4,
                    "logData": "0x00000000000000000000000000000000000000000000000000044364de959bbb000000000000000000000000000000000000000000000000000000021e66fb00000000000000000000000000000000000000000000000000000000015c38e5c0",
                    "logDecoded": true,
                    "operation": "EVENT",
                    "revert": false,
                    "status": true,
                    "topics": [
                        "0xd133b80671e5a3f860649b812b907a135bacbba732b668f4f223f4ea55c34b1e",
                        "0x000000000000000000000000edc90995bc6e3b57783cb801cd67d68e73ec8a12"
                    ]
                },
                "nodeType": 1
            }
        },
        "gasFlame": [
            {
                "children": [
                    {
                        "children": [
                            {
                                "children": [],
                                "depth": 0,
                                "name": "Initial Gas",
                                "value": 22680
                            },
                            {
                                "children": [],
                                "depth": 0,
                                "name": "Executed Gas",
                                "value": 32283
                            }
                        ],
                        "depth": -1,
                        "name": "Actual Gas Used",
                        "value": 54963
                    },
                    {
                        "children": [],
                        "depth": -1,
                        "name": "Refunded Gas",
                        "value": 0
                    }
                ],
                "depth": -2,
                "name": "Total Gas",
                "value": 54963
            }
        ],
        "isConfirmed": true,
        "mainTrace": [
            {
                "children": [
                    {
                        "children": [
                            {
                                "children": [],
                                "depth": 1,
                                "id": 1,
                                "order": 1
                            },
                            {
                                "children": [],
                                "depth": 1,
                                "id": 2,
                                "order": 2
                            },
                            {
                                "children": [],
                                "depth": 1,
                                "id": 3,
                                "order": 3
                            },
                            {
                                "children": [],
                                "depth": 1,
                                "id": 4,
                                "order": 4
                            }
                        ],
                        "depth": 0,
                        "id": 0,
                        "order": 0
                    }
                ],
                "depth": -1,
                "id": -1,
                "order": -1
            }
        ],
        "mainTraceNodeCount": 5,
        "parentIdMap": {
            "0": -1,
            "1": 0,
            "2": 0,
            "3": 0,
            "4": 0
        },
        "tidyTrace": [
            {
                "children": [
                    {
                        "children": [
                            {
                                "children": [],
                                "depth": 1,
                                "id": 1,
                                "order": 1
                            },
                            {
                                "children": [],
                                "depth": 1,
                                "id": 2,
                                "order": 2
                            },
                            {
                                "children": [],
                                "depth": 1,
                                "id": 3,
                                "order": 3
                            },
                            {
                                "children": [],
                                "depth": 1,
                                "id": 4,
                                "order": 4
                            }
                        ],
                        "depth": 0,
                        "id": 0,
                        "order": 0
                    }
                ],
                "depth": -1,
                "id": -1,
                "order": -1
            }
        ],
        "tidyTraceNodeCount": 5
    },
    "state_change": {
        "stateChanges": [
            {
                "address": "0x5da8d37485b4374fc338fc1f1ea31d07eb7bedd3",
                "erc": "ERC-20",
                "slots": [
                    {
                        "current": "0x0000000000000000000000000000000000000000000000000000005147fb4300",
                        "key": "0x4a2f3a2aecdef0b10a830ec2728d45ce3c8fa08ee811c418783fac1efc8e4ed8",
                        "prev": "0x0000000000000000000000000000000000000000000000000000005366623e00"
                    },
                    {
                        "current": "0x0000000000000000000000000000000000000000000000000004cede50c6a21d",
                        "key": "0x3a00729d3a81af077063d782b30df5e4b2e0c3450341047543a57a9af4a6050b",
                        "prev": "0x0000000000000000000000000000000000000000000000000004cedd8e988cdd"
                    },
                    {
                        "current": "0x000000000000000000000000000000000000000000000000022edb3117957c1d",
                        "key": "0x0000000000000000000000000000000000000000000000000000000000000001",
                        "prev": "0x000000000000000000000000000000000000000000000000022edb3273ce61dd"
                    }
                ],
                "storageVariables": [
                    {
                        "name": "balances",
                        "type": "mapping(address => uint256)",
                        "value": {
                            "pairs": [
                                {
                                    "key": "0x2dc5a03407e21828af96fcdb7cc372b2e09c71f1",
                                    "value": {
                                        "current": "1353354140099101",
                                        "prev": "1353350882299101",
                                        "typeTag": 1
                                    }
                                },
                                {
                                    "key": "0xedc90995bc6e3b57783cb801cd67d68e73ec8a12",
                                    "value": {
                                        "current": "349100000000",
                                        "prev": "358200000000",
                                        "typeTag": 1
                                    }
                                }
                            ],
                            "typeTag": 4
                        }
                    },
                    {
                        "name": "totalSupply_",
                        "type": "uint256",
                        "value": {
                            "current": "157304040900099101",
                            "prev": "157304046742299101",
                            "typeTag": 1
                        }
                    }
                ]
            }
        ]
    }
}