{
    "balance_change": {
        "balanceChanges": [
            {
                "account": "0x5f65f7b609678448494de4c87521cdf6cef1e932",
                "assets": [
                    {
                        "address": "0x056fd409e1d7a124bd7017459dfea2f387b6d5cd",
                        "amount": "8,795.96",
                        "iconUrl": "https://assets.blocksec.com/icon/4c7792fcd8cb91fc5b0ecaf5a0d4fcfa25994c9d5c4a7b9bab72f85ea3ffc566.png",
                        "isERC1155": false,
                        "isERC721": false,
                        "sign": true,
                        "value": "7439.219287"
                    }
                ]
            },
            {
                "account": "0x7701918d4a42535a3fc20da04c3335eddb2668c4",
                "assets": [
                    {
                        "address": "0x056fd409e1d7a124bd7017459dfea2f387b6d5cd",
                        "amount": "8,795.96",
                        "iconUrl": "https://assets.blocksec.com/icon/4c7792fcd8cb91fc5b0ecaf5a0d4fcfa25994c9d5c4a7b9bab72f85ea3ffc566.png",
                        "isERC1155": false,
                        "isERC721": false,
                        "sign": false,
                        "value": "7439.219287"
                    }
                ]
            }
        ]
    },
    "profile": {
        "basic_info": {
            "baseFee": "6.357045404",
            "blockNumber": 19741946,
            "callData": "0x2e2d726c000000000000000000000000056fd409e1d7a124bd7017459dfea2f387b6d5cd000000000000000000000000000000000000000000000000000000000000004000000000000000000000000000000000000000000000000000000000000000010000000000000000000000007701918d4a42535a3fc20da04c3335eddb2668c4",
            "debugEnable": true,
            "errorInfo": "",
            "eventCount": 2,
            "feeRecipient": "0x95222290dd7278aa3ddd389cc1e1d165cc4bafe5",
            "formatValue": "0",
            "gasLimit": 469436,
            "gasPrice": "6.789935188",
            "gasUsed": 96122,
            "intTxnCount": 15,
            "internalRevert": false,
            "internalRevertMessage": "",
            "isContractCreation": false,
            "isFlashloan": false,
            "maxFee": "500",
            "nonce": 4425967,
            "overwritedBlockNumber": -1,
            "priorityFee": "0.432889784",
            "receiver": "0x5f65f7b609678448494de4c87521cdf6cef1e932",
            "revertMessage": "",
            "sender": "0xd24400ae8bfebb18ca49be86258a3c749cf46853",
            "simulationEnable": true,
            "sourceTxnHash": "0x745ac2575c7ea01af29e9b06d2650611cd002856d435c74e507390324c277ef2",
            "status": true,
            "timestamp": "2024-04-26T20:36:59Z",
            "transactionFee": "0.000652662150140936",
            "txnHash": "0x745ac2575c7ea01af29e9b06d2650611cd002856d435c74e507390324c277ef2",
            "txnIndex": 56,
            "type": 2,
            "value": "0"
        },
        "fund_flow": [
            {
                "amount": "8,795.96",
                "from": "0x7701918d4a42535a3fc20da04c3335eddb2668c4",
                "id": 1,
                "isERC1155": false,
                "isERC721": false,
                "isReverted": false,
                "order": 1,
                "to": "0x5f65f7b609678448494de4c87521cdf6cef1e932",
                "token": "0x056fd409e1d7a124bd7017459dfea2f387b6d5cd"
            }
        ],
        "token_infos": [
            {
                "address": "0x056fd409e1d7a124bd7017459dfea2f387b6d5cd",
                "decimals": 2
            },
            {
                "address": "0xc02aaa39b223fe8d0a0e5c4f27ead9083c756cc2",
                "decimals": 18
            },
            {
                "address": "0xeeeeeeeeeeeeeeeeeeeeeeeeeeeeeeeeeeeeeeee",
                "decimals": 18
            }
        ]
    },
    "address_label": {
        "labels": [
            {
                "address": "0xeeeeeeeeeeeeeeeeeeeeeeeeeeeeeeeeeeeeeeee",
                "label": "Ether"
            },
            {
                "address": "0xd24400ae8bfebb18ca49be86258a3c749cf46853",
                "label": "Gemini"
            },
            {
                "address": "0x6704ba24b8640bccee6bf2fd276a6a1b8edf4ade",
                "label": "ERC20Impl"
            },
            {
                "address": "0x0000000000000000000000000000000000000001",
                "label": "Precompiled"
            },
            {
                "address": "0x0000000000000000000000000000000000000003",
                "label": "Precompiled"
            },
            {
                "address": "0x5f65f7b609678448494de4c87521cdf6cef1e932",
                "label": "GEMINI"
            },
            {
                "address": "0x056fd409e1d7a124bd7017459dfea2f387b6d5cd",
                "label": "Gemini: GUSD Token"
            },
            {
                "address": "0xc42b14e49744538e3c239f8ae48a1eaaf35e68a0",
                "label": "ERC20Store"
            },
            {
                "address": "0x0000000000000000000000000000000000000002",
                "label": "Precompiled"
            },
            {
                "address": "0x0000000000000000000000000000000000000004",
                "label": "Precompiled"
            }
        ]
    },
    "trace": {
        "accountLabels": null,
        "dataMap": {
            "-1": {
                "invocation": {
                    "address": "0xd24400ae8bfebb18ca49be86258a3c749cf46853",
                    "callData": "",
                    "decodedMethod": null,
                    "errorInfo": "",
                    "fromAddress": "",
                    "gasUsed": 0,
                    "id": -1,
                    "methodDecoded": false,
                    "operation": "",
                    "output": "",
                    "revert": false,
                    "revertMessage": "",
                    "selector": "",
                    "status": false,
                    "value": ""
                },
                "nodeType": 0
            },
            "0": {
                "invocation": {
                    "address": "0x5f65f7b609678448494de4c87521cdf6cef1e932",
                    "callData": "0x000000000000000000000000056fd409e1d7a124bd7017459dfea2f387b6d5cd000000000000000000000000000000000000000000000000000000000000004000000000000000000000000000000000000000000000000000000000000000010000000000000000000000007701918d4a42535a3fc20da04c3335eddb2668c4",
                    "decodedMethod": null,
                    "errorInfo": "",
                    "fromAddress": "0xd24400ae8bfebb18ca49be86258a3c749cf46853",
                    "gasUsed": 96122,
                    "id": 0,
                    "methodDecoded": false,
                    "operation": "CALL",
                    "output": "",
                    "revert": false,
                    "revertMessage": "",
                    "selector": "0x2e2d726c",
                    "status": true,
                    "value": "0"
                },
                "nodeType": 0
            },
            "1": {
                "invocation": {
                    "address": "0x7701918d4a42535a3fc20da04c3335eddb2668c4",
                    "callData": "0x000000000000000000000000056fd409e1d7a124bd7017459dfea2f387b6d5cd",
                    "decodedMethod": {
                        "callParams": [
                            {
                                "name": "_fromToken",
                                "type": "address",
                                "value": "0x056fd409e1d7a124bd7017459dfea2f387b6d5cd"
                            }
                        ],
                        "constructorArguments": "",
                        "name": "sweepERC20",
                        "returnParams": [],
                        "signature": "sweepERC20(address)"
                    },
                    "errorInfo": "",
                    "fromAddress": "0x5f65f7b609678448494de4c87521cdf6cef1e932",
                    "gasUsed": 48025,
                    "id": 1,
                    "methodDecoded": true,
                    "operation": "CALL",
                    "output": "",
                    "revert": false,
                    "revertMessage": "",
                    "selector": "0xe00af4a7",
                    "status": true,
                    "value": "0"
                },
                "nodeType": 0
            },
            "10": {
                "invocation": {
                    "address": "0xc42b14e49744538e3c239f8ae48a1eaaf35e68a0",
                    "callData": "0x0000000000000000000000005f65f7b609678448494de4c87521cdf6cef1e93200000000000000000000000000000000000000000000000000000000000d6bec",
                    "decodedMethod": {
                        "callParams": [
                            {
                                "name": "_owner",
                                "type": "address",
                                "value": "0x5f65f7b609678448494de4c87521cdf6cef1e932"
                            },
                            {
                                "name": "_balanceIncrease",
                                "type": "uint256",
                                "value": "879,596"
                            }
                        ],
                        "constructorArguments": "",
                        "name": "addBalance",
                        "returnParams": [],
                        "signature": "addBalance(address,uint256)"
                    },
                    "errorInfo": "",
                    "fromAddress": "0x6704ba24b8640bccee6bf2fd276a6a1b8edf4ade",
                    "gasUsed": 3630,
                    "id": 10,
                    "methodDecoded": true,
                    "operation": "CALL",
                    "output": "",
                    "revert": false,
                    "revertMessage": "",
                    "selector": "0x21e5383a",
                    "status": true,
                    "value": "0"
                },
                "nodeType": 0
            },
            "11": {
                "invocation": {
                    "address": "0x056fd409e1d7a124bd7017459dfea2f387b6d5cd",
                    "callData": "0x0000000000000000000000007701918d4a42535a3fc20da04c3335eddb2668c40000000000000000000000005f65f7b609678448494de4c87521cdf6cef1e93200000000000000000000000000000000000000000000000000000000000d6bec",
                    "decodedMethod": {
                        "callParams": [
                            {
                                "name": "_from",
                                "type": "address",
                                "value": "0x7701918d4a42535a3fc20da04c3335eddb2668c4"
                            },
                            {
                                "name": "_to",
                                "type": "address",
                                "value": "0x5f65f7b609678448494de4c87521cdf6cef1e932"
                            },
                            {
                                "name": "_value",
                                "type": "uint256",
                                "value": "879,596"
                            }
                        ],
                        "constructorArguments": "",
                        "name": "emitTransfer",
                        "returnParams": [],
                        "signature": "emitTransfer(address,address,uint256)"
                    },
                    "errorInfo": "",
                    "fromAddress": "0x6704ba24b8640bccee6bf2fd276a6a1b8edf4ade",
                    "gasUsed": 2575,
                    "id": 11,
                    "methodDecoded": true,
                    "operation": "CALL",
                    "output": "",
                    "revert": false,
                    "revertMessage": "",
                    "selector": "0x23de6651",
                    "status": true,
                    "value": "0"
                },
                "nodeType": 0
            },
            "12": {
                "event": {
                    "contract": "0x056fd409e1d7a124bd7017459dfea2f387b6d5cd",
                    "decodedLog": {
                        "name": "Transfer",
                        "params": [
                            {
                                "name": "_from",
                                "type": "address",
                                "value": "0x7701918d4a42535a3fc20da04c3335eddb2668c4"
                            },
                            {
                                "name": "_to",
                                "type": "address",
                                "value": "0x5f65f7b609678448494de4c87521cdf6cef1e932"
                            },
                            {
                                "decimalAvailable": true,
                                "name": "_value",
                                "type": "uint256",
                                "value": "879,596"
                            }
                        ],
                        "signature": "Transfer(address,address,uint256)"
                    },
                    "id": 12,
                    "logData": "0x00000000000000000000000000000000000000000000000000000000000d6bec",
                    "logDecoded": true,
                    "operation": "EVENT",
                    "revert": false,
                    "status": true,
                    "topics": [
                        "0xddf252ad1be2c89b69c2b068fc378daa952ba7f163c4a11628f55a4df523b3ef",
                        "0x0000000000000000000000007701918d4a42535a3fc20da04c3335eddb2668c4",
                        "0x0000000000000000000000005f65f7b609678448494de4c87521cdf6cef1e932"
                    ]
                },
                "nodeType": 1
            },
            "13": {
                "invocation": {
                    "address": "0x056fd409e1d7a124bd7017459dfea2f387b6d5cd",
                    "callData": "0x0000000000000000000000005f65f7b609678448494de4c87521cdf6cef1e932ffffffffffffffffffffffffffffffffffffffffffffffffffffffffffffffff",
                    "decodedMethod": {
                        "callParams": [
                            {
                                "name": "_spender",
                                "type": "address",
                                "value": "0x5f65f7b609678448494de4c87521cdf6cef1e932"
                            },
                            {
                                "decimalAvailable": true,
                                "name": "_value",
                                "type": "uint256",
                                "value": "115,792,089,237,316,195,423,570,985,008,687,907,853,269,984,665,640,564,039,457,584,007,913,129,639,935"
                            }
                        ],
                        "constructorArguments": "",
                        "name": "approve",
                        "returnParams": [
                            {
                                "name": "success",
                                "type": "bool",
                                "value": true
                            }
                        ],
                        "signature": "approve(address,uint256)"
                    },
                    "errorInfo": "",
                    "fromAddress": "0x7701918d4a42535a3fc20da04c3335eddb2668c4",
                    "gasUsed": 27129,
                    "id": 13,
                    "methodDecoded": true,
                    "operation": "CALL",
                    "output": "0x0000000000000000000000000000000000000000000000000000000000000001",
                    "revert": false,
                    "revertMessage": "",
                    "selector": "0x095ea7b3",
                    "status": true,
                    "value": "0"
                },
                "nodeType": 0
            },
            "14": {
                "invocation": {
                    "address": "0x6704ba24b8640bccee6bf2fd276a6a1b8edf4ade",
                    "callData": "0x0000000000000000000000007701918d4a42535a3fc20da04c3335eddb2668c40000000000000000000000005f65f7b609678448494de4c87521cdf6cef1e932ffffffffffffffffffffffffffffffffffffffffffffffffffffffffffffffff",
                    "decodedMethod": {
                        "callParams": [
                            {
                                "name": "_sender",
                                "type": "address",
                                "value": "0x7701918d4a42535a3fc20da04c3335eddb2668c4"
                            },
                            {
                                "name": "_spender",
                                "type": "address",
                                "value": "0x5f65f7b609678448494de4c87521cdf6cef1e932"
                            },
                            {
                                "name": "_value",
                                "type": "uint256",
                                "value": "115,792,089,237,316,195,423,570,985,008,687,907,853,269,984,665,640,564,039,457,584,007,913,129,639,935"
                            }
                        ],
                        "constructorArguments": "",
                        "name": "approveWithSender",
                        "returnParams": [
                            {
                                "name": "success",
                                "type": "bool",
                                "value": true
                            }
                        ],
                        "signature": "approveWithSender(address,address,uint256)"
                    },
                    "errorInfo": "",
                    "fromAddress": "0x056fd409e1d7a124bd7017459dfea2f387b6d5cd",
                    "gasUsed": 26040,
                    "id": 14,
                    "methodDecoded": true,
                    "operation": "CALL",
                    "output": "0x0000000000000000000000000000000000000000000000000000000000000001",
                    "revert": false,
                    "revertMessage": "",
                    "selector": "0x89064fd2",
                    "status": true,
                    "value": "0"
                },
                "nodeType": 0
            },
            "15": {
                "invocation": {
                    "address": "0xc42b14e49744538e3c239f8ae48a1eaaf35e68a0",
                    "callData": "0x0000000000000000000000007701918d4a42535a3fc20da04c3335eddb2668c40000000000000000000000005f65f7b609678448494de4c87521cdf6cef1e932ffffffffffffffffffffffffffffffffffffffffffffffffffffffffffffffff",
                    "decodedMethod": {
                        "callParams": [
                            {
                                "name": "_owner",
                                "type": "address",
                                "value": "0x7701918d4a42535a3fc20da04c3335eddb2668c4"
                            },
                            {
                                "name": "_spender",
                                "type": "address",
                                "value": "0x5f65f7b609678448494de4c87521cdf6cef1e932"
                            },
                            {
                                "name": "_value",
                                "type": "uint256",
                                "value": "115,792,089,237,316,195,423,570,985,008,687,907,853,269,984,665,640,564,039,457,584,007,913,129,639,935"
                            }
                        ],
                        "constructorArguments": "",
                        "name": "setAllowance",
                        "returnParams": [],
                        "signature": "setAllowance(address,address,uint256)"
                    },
                    "errorInfo": "",
                    "fromAddress": "0x6704ba24b8640bccee6bf2fd276a6a1b8edf4ade",
                    "gasUsed": 20959,
                    "id": 15,
                    "methodDecoded": true,
                    "operation": "CALL",
                    "output": "",
                    "revert": false,
                    "revertMessage": "",
                    "selector": "0xda46098c",
                    "status": true,
                    "value": "0"
                },
                "nodeType": 0
            },
            "16": {
                "invocation": {
                    "address": "0x056fd409e1d7a124bd7017459dfea2f387b6d5cd",
                    "callData": "0x0000000000000000000000007701918d4a42535a3fc20da04c3335eddb2668c40000000000000000000000005f65f7b609678448494de4c87521cdf6cef1e932ffffffffffffffffffffffffffffffffffffffffffffffffffffffffffffffff",
                    "decodedMethod": {
                        "callParams": [
                            {
                                "name": "_owner",
                                "type": "address",
                                "value": "0x7701918d4a42535a3fc20da04c3335eddb2668c4"
                            },
                            {
                                "name": "_spender",
                                "type": "address",
                                "value": "0x5f65f7b609678448494de4c87521cdf6cef1e932"
                            },
                            {
                                "name": "_value",
                                "type": "uint256",
                                "value": "115,792,089,237,316,195,423,570,985,008,687,907,853,269,984,665,640,564,039,457,584,007,913,129,639,935"
                            }
                        ],
                        "constructorArguments": "",
                        "name": "emitApproval",
                        "returnParams": [],
                        "signature": "emitApproval(address,address,uint256)"
                    },
                    "errorInfo": "",
                    "fromAddress": "0x6704ba24b8640bccee6bf2fd276a6a1b8edf4ade",
                    "gasUsed": 2707,
                    "id": 16,
                    "methodDecoded": true,
                    "operation": "CALL",
                    "output": "",
                    "revert": false,
                    "revertMessage": "",
                    "selector": "0x5687f2b8",
                    "status": true,
                    "value": "0"
                },
                "nodeType": 0
            },
            "17": {
                "event": {
                    "contract": "0x056fd409e1d7a124bd7017459dfea2f387b6d5cd",
                    "decodedLog": {
                        "name": "Approval",
                        "params": [
                            {
                                "name": "_owner",
                                "type": "address",
                                "value": "0x7701918d4a42535a3fc20da04c3335eddb2668c4"
                            },
                            {
                                "name": "_spender",
                                "type": "address",
                                "value": "0x5f65f7b609678448494de4c87521cdf6cef1e932"
                            },
                            {
                                "decimalAvailable": true,
                                "name": "_value",
                                "type": "uint256",
                                "value": "115,792,089,237,316,195,423,570,985,008,687,907,853,269,984,665,640,564,039,457,584,007,913,129,639,935"
                            }
                        ],
                        "signature": "Approval(address,address,uint256)"
                    },
                    "id": 17,
                    "logData": "0xffffffffffffffffffffffffffffffffffffffffffffffffffffffffffffffff",
                    "logDecoded": true,
                    "operation": "EVENT",
                    "revert": false,
                    "status": true,
                    "topics": [
                        "0x8c5be1e5ebec7d5bd14f71427d1e84f3dd0314c0f7b2291e5b200ac8c7c3b925",
                        "0x0000000000000000000000007701918d4a42535a3fc20da04c3335eddb2668c4",
                        "0x0000000000000000000000005f65f7b609678448494de4c87521cdf6cef1e932"
                    ]
                },
                "nodeType": 1
            },
            "2": {
                "invocation": {
                    "address": "0x39778bc77bd7a9456655b19fd4c5d0bf2071104e",
                    "callData": "0x000000000000000000000000056fd409e1d7a124bd7017459dfea2f387b6d5cd",
                    "decodedMethod": {
                        "callParams": [
                            {
                                "name": "_fromToken",
                                "type": "address",
                                "value": "0x056fd409e1d7a124bd7017459dfea2f387b6d5cd"
                            }
                        ],
                        "constructorArguments": "",
                        "name": "sweepERC20",
                        "returnParams": [],
                        "signature": "sweepERC20(address)"
                    },
                    "errorInfo": "",
                    "fromAddress": "0x7701918d4a42535a3fc20da04c3335eddb2668c4",
                    "gasUsed": 47856,
                    "id": 2,
                    "methodDecoded": true,
                    "operation": "DELEGATECALL",
                    "output": "",
                    "revert": false,
                    "revertMessage": "",
                    "selector": "0xe00af4a7",
                    "status": true,
                    "value": "0"
                },
                "nodeType": 0
            },
            "3": {
                "invocation": {
                    "address": "0x056fd409e1d7a124bd7017459dfea2f387b6d5cd",
                    "callData": "0x0000000000000000000000007701918d4a42535a3fc20da04c3335eddb2668c4",
                    "decodedMethod": {
                        "callParams": [
                            {
                                "name": "_owner",
                                "type": "address",
                                "value": "0x7701918d4a42535a3fc20da04c3335eddb2668c4"
                            }
                        ],
                        "constructorArguments": "",
                        "name": "balanceOf",
                        "returnParams": [
                            {
                                "decimalAvailable": true,
                                "name": "balance",
                                "type": "uint256",
                                "value": "879,596"
                            }
                        ],
                        "signature": "balanceOf(address)"
                    },
                    "errorInfo": "",
                    "fromAddress": "0x7701918d4a42535a3fc20da04c3335eddb2668c4",
                    "gasUsed": 2986,
                    "id": 3,
                    "methodDecoded": true,
                    "operation": "STATICCALL",
                    "output": "0x00000000000000000000000000000000000000000000000000000000000d6bec",
                    "revert": false,
                    "revertMessage": "",
                    "selector": "0x70a08231",
                    "status": true,
                    "value": "0"
                },
                "nodeType": 0
            },
            "4": {
                "invocation": {
                    "address": "0x6704ba24b8640bccee6bf2fd276a6a1b8edf4ade",
                    "callData": "0x0000000000000000000000007701918d4a42535a3fc20da04c3335eddb2668c4",
                    "decodedMethod": {
                        "callParams": [
                            {
                                "name": "_owner",
                                "type": "address",
                                "value": "0x7701918d4a42535a3fc20da04c3335eddb2668c4"
                            }
                        ],
                        "constructorArguments": "",
                        "name": "balanceOf",
                        "returnParams": [
                            {
                                "decimalAvailable": true,
                                "name": "balance",
                                "type": "uint256",
                                "value": "879,596"
                            }
                        ],
                        "signature": "balanceOf(address)"
                    },
                    "errorInfo": "",
                    "fromAddress": "0x056fd409e1d7a124bd7017459dfea2f387b6d5cd",
                    "gasUsed": 1703,
                    "id": 4,
                    "methodDecoded": true,
                    "operation": "CALL",
                    "output": "0x00000000000000000000000000000000000000000000000000000000000d6bec",
                    "revert": false,
                    "revertMessage": "",
                    "selector": "0x70a08231",
                    "status": true,
                    "value": "0"
                },
                "nodeType": 0
            },
            "5": {
                "invocation": {
                    "address": "0xc42b14e49744538e3c239f8ae48a1eaaf35e68a0",
                    "callData": "0x0000000000000000000000007701918d4a42535a3fc20da04c3335eddb2668c4",
                    "decodedMethod": {
                        "callParams": [
                            {
                                "name": "",
                                "type": "address",
                                "value": "0x7701918d4a42535a3fc20da04c3335eddb2668c4"
                            }
                        ],
                        "constructorArguments": "",
                        "name": "balances",
                        "returnParams": [
                            {
                                "name": "",
                                "type": "uint256",
                                "value": "879,596"
                            }
                        ],
                        "signature": "balances(address)"
                    },
                    "errorInfo": "",
                    "fromAddress": "0x6704ba24b8640bccee6bf2fd276a6a1b8edf4ade",
                    "gasUsed": 486,
                    "id": 5,
                    "methodDecoded": true,
                    "operation": "CALL",
                    "output": "0x00000000000000000000000000000000000000000000000000000000000d6bec",
                    "revert": false,
                    "revertMessage": "",
                    "selector": "0x27e235e3",
                    "status": true,
                    "value": "0"
                },
                "nodeType": 0
            },
            "6": {
                "invocation": {
                    "address": "0x056fd409e1d7a124bd7017459dfea2f387b6d5cd",
                    "callData": "0x0000000000000000000000005f65f7b609678448494de4c87521cdf6cef1e93200000000000000000000000000000000000000000000000000000000000d6bec",
                    "decodedMethod": {
                        "callParams": [
                            {
                                "name": "_to",
                                "type": "address",
                                "value": "0x5f65f7b609678448494de4c87521cdf6cef1e932"
                            },
                            {
                                "decimalAvailable": true,
                                "name": "_value",
                                "type": "uint256",
                                "value": "879,596"
                            }
                        ],
                        "constructorArguments": "",
                        "name": "transfer",
                        "returnParams": [
                            {
                                "name": "success",
                                "type": "bool",
                                "value": true
                            }
                        ],
                        "signature": "transfer(address,uint256)"
                    },
                    "errorInfo": "",
                    "fromAddress": "0x7701918d4a42535a3fc20da04c3335eddb2668c4",
                    "gasUsed": 15786,
                    "id": 6,
                    "methodDecoded": true,
                    "operation": "CALL",
                    "output": "0x0000000000000000000000000000000000000000000000000000000000000001",
                    "revert": false,
                    "revertMessage": "",
                    "selector": "0xa9059cbb",
                    "status": true,
                    "value": "0"
                },
                "nodeType": 0
            },
            "7": {
                "invocation": {
                    "address": "0x6704ba24b8640bccee6bf2fd276a6a1b8edf4ade",
                    "callData": "0x0000000000000000000000007701918d4a42535a3fc20da04c3335eddb2668c40000000000000000000000005f65f7b609678448494de4c87521cdf6cef1e93200000000000000000000000000000000000000000000000000000000000d6bec",
                    "decodedMethod": {
                        "callParams": [
                            {
                                "name": "_sender",
                                "type": "address",
                                "value": "0x7701918d4a42535a3fc20da04c3335eddb2668c4"
                            },
                            {
                                "name": "_to",
                                "type": "address",
                                "value": "0x5f65f7b609678448494de4c87521cdf6cef1e932"
                            },
                            {
                                "name": "_value",
                                "type": "uint256",
                                "value": "879,596"
                            }
                        ],
                        "constructorArguments": "",
                        "name": "transferWithSender",
                        "returnParams": [
                            {
                                "name": "success",
                                "type": "bool",
                                "value": true
                            }
                        ],
                        "signature": "transferWithSender(address,address,uint256)"
                    },
                    "errorInfo": "",
                    "fromAddress": "0x056fd409e1d7a124bd7017459dfea2f387b6d5cd",
                    "gasUsed": 14367,
                    "id": 7,
                    "methodDecoded": true,
                    "operation": "CALL",
                    "output": "0x0000000000000000000000000000000000000000000000000000000000000001",
                    "revert": false,
                    "revertMessage": "",
                    "selector": "0xdfe0f0ca",
                    "status": true,
                    "value": "0"
                },
                "nodeType": 0
            },
            "8": {
                "invocation": {
                    "address": "0xc42b14e49744538e3c239f8ae48a1eaaf35e68a0",
                    "callData": "0x0000000000000000000000007701918d4a42535a3fc20da04c3335eddb2668c4",
                    "decodedMethod": {
                        "callParams": [
                            {
                                "name": "",
                                "type": "address",
                                "value": "0x7701918d4a42535a3fc20da04c3335eddb2668c4"
                            }
                        ],
                        "constructorArguments": "",
                        "name": "balances",
                        "returnParams": [
                            {
                                "name": "",
                                "type": "uint256",
                                "value": "879,596"
                            }
                        ],
                        "signature": "balances(address)"
                    },
                    "errorInfo": "",
                    "fromAddress": "0x6704ba24b8640bccee6bf2fd276a6a1b8edf4ade",
                    "gasUsed": 486,
                    "id": 8,
                    "methodDecoded": true,
                    "operation": "CALL",
                    "output": "0x00000000000000000000000000000000000000000000000000000000000d6bec",
                    "revert": false,
                    "revertMessage": "",
                    "selector": "0x27e235e3",
                    "status": true,
                    "value": "0"
                },
                "nodeType": 0
            },
            "9": {
                "invocation": {
                    "address": "0xc42b14e49744538e3c239f8ae48a1eaaf35e68a0",
                    "callData": "0x0000000000000000000000007701918d4a42535a3fc20da04c3335eddb2668c40000000000000000000000000000000000000000000000000000000000000000",
                    "decodedMethod": {
                        "callParams": [
                            {
                                "name": "_owner",
                                "type": "address",
                                "value": "0x7701918d4a42535a3fc20da04c3335eddb2668c4"
                            },
                            {
                                "name": "_newBalance",
                                "type": "uint256",
                                "value": "0"
                            }
                        ],
                        "constructorArguments": "",
                        "name": "setBalance",
                        "returnParams": [],
                        "signature": "setBalance(address,uint256)"
                    },
                    "errorInfo": "",
                    "fromAddress": "0x6704ba24b8640bccee6bf2fd276a6a1b8edf4ade",
                    "gasUsed": 3779,
                    "id": 9,
                    "methodDecoded": true,
                    "operation": "CALL",
                    "output": "",
                    "revert": false,
                    "revertMessage": "",
                    "selector": "0xe30443bc",
                    "status": true,
                    "value": "0"
                },
                "nodeType": 0
            }
        },
        "gasFlame": [
            {
                "children": [
                    {
                        "children": [
                            {
                                "children": [],
                                "depth": 0,
                                "name": "Initial Gas",
                                "value": 51680
                            },
                            {
                                "children": [
                                    {
                                        "children": [
                                            {
                                                "children": [
                                                    {
                                                        "children": [
                                                            {
                                                                "children": [
                                                                    {
                                                                        "children": [],
                                                                        "depth": 5,
                                                                        "name": "balances",
                                                                        "value": 486
                                                                    }
                                                                ],
                                                                "depth": 4,
                                                                "name": "balanceOf",
                                                                "value": 1703
                                                            }
                                                        ],
                                                        "depth": 3,
                                                        "name": "balanceOf",
                                                        "value": 2986
                                                    },
                                                    {
                                                        "children": [
                                                            {
                                                                "children": [
                                                                    {
                                                                        "children": [],
                                                                        "depth": 5,
                                                                        "name": "balances",
                                                                        "value": 486
                                                                    },
                                                                    {
                                                                        "children": [],
                                                                        "depth": 5,
                                                                        "name": "setBalance",
                                                                        "value": 3779
                                                                    },
                                                                    {
                                                                        "children": [],
                                                                        "depth": 5,
                                                                        "name": "addBalance",
                                                                        "value": 3630
                                                                    },
                                                                    {
                                                                        "children": [],
                                                                        "depth": 5,
                                                                        "name": "emitTransfer",
                                                                        "value": 2575
                                                                    }
                                                                ],
                                                                "depth": 4,
                                                                "name": "transferWithSender",
                                                                "value": 14367
                                                            }
                                                        ],
                                                        "depth": 3,
                                                        "name": "transfer",
                                                        "value": 15786
                                                    },
                                                    {
                                                        "children": [
                                                            {
                                                                "children": [
                                                                    {
                                                                        "children": [],
                                                                        "depth": 5,
                                                                        "name": "setAllowance",
                                                                        "value": 20959
                                                                    },
                                                                    {
                                                                        "children": [],
                                                                        "depth": 5,
                                                                        "name": "emitApproval",
                                                                        "value": 2707
                                                                    }
                                                                ],
                                                                "depth": 4,
                                                                "name": "approveWithSender",
                                                                "value": 26040
                                                            }
                                                        ],
                                                        "depth": 3,
                                                        "name": "approve",
                                                        "value": 27129
                                                    }
                                                ],
                                                "depth": 2,
                                                "name": "sweepERC20",
                                                "value": 47856
                                            }
                                        ],
                                        "depth": 1,
                                        "name": "sweepERC20",
                                        "value": 48025
                                    }
                                ],
                                "depth": 0,
                                "name": "Executed Gas",
                                "value": 49242
                            }
                        ],
                        "depth": -1,
                        "name": "Actual Gas Used",
                        "value": 96122
                    },
                    {
                        "children": [],
                        "depth": -1,
                        "name": "Refunded Gas",
                        "value": 4800
                    }
                ],
                "depth": -2,
                "name": "Total Gas",
                "value": 100922
            }
        ],
        "isConfirmed": true,
        "mainTrace": [
            {
                "children": [
                    {
                        "children": [
                            {
                                "children": [
                                    {
                                        "children": [
                                            {
                                                "children": [
                                                    {
                                                        "children": [
                                                            {
                                                                "children": [],
                                                                "depth": 5,
                                                                "id": 5,
                                                                "order": 5
                                                            }
                                                        ],
                                                        "depth": 4,
                                                        "id": 4,
                                                        "order": 4
                                                    }
                                                ],
                                                "depth": 3,
                                                "id": 3,
                                                "order": 3
                                            },
                                            {
                                                "children": [
                                                    {
                                                        "children": [
                                                            {
                                                                "children": [],
                                                                "depth": 5,
                                                                "id": 8,
                                                                "order": 8
                                                            },
                                                            {
                                                                "children": [],
                                                                "depth": 5,
                                                                "id": 9,
                                                                "order": 9
                                                            },
                                                            {
                                                                "children": [],
                                                                "depth": 5,
                                                                "id": 10,
                                                                "order": 10
                                                            },
                                                            {
                                                                "children": [
                                                                    {
                                                                        "children": [],
                                                                        "depth": 6,
                                                                        "id": 12,
                                                                        "order": 12
                                                                    }
                                                                ],
                                                                "depth": 5,
                                                                "id": 11,
                                                                "order": 11
                                                            }
                                                        ],
                                                        "depth": 4,
                                                        "id": 7,
                                                        "order": 7
                                                    }
                                                ],
                                                "depth": 3,
                                                "id": 6,
                                                "order": 6
                                            },
                                            {
                                                "children": [
                                                    {
                                                        "children": [
                                                            {
                                                                "children": [],
                                                                "depth": 5,
                                                                "id": 15,
                                                                "order": 15
                                                            },
                                                            {
                                                                "children": [
                                                                    {
                                                                        "children": [],
                                                                        "depth": 6,
                                                                        "id": 17,
                                                                        "order": 17
                                                                    }
                                                                ],
                                                                "depth": 5,
                                                                "id": 16,
                                                                "order": 16
                                                            }
                                                        ],
                                                        "depth": 4,
                                                        "id": 14,
                                                        "order": 14
                                                    }
                                                ],
                                                "depth": 3,
                                                "id": 13,
                                                "order": 13
                                            }
                                        ],
                                        "depth": 2,
                                        "id": 2,
                                        "order": 2
                                    }
                                ],
                                "depth": 1,
                                "id": 1,
                                "order": 1
                            }
                        ],
                        "depth": 0,
                        "id": 0,
                        "order": 0
                    }
                ],
                "depth": -1,
                "id": -1,
                "order": -1
            }
        ],
        "mainTraceNodeCount": 18,
        "parentIdMap": {
            "0": -1,
            "1": 0,
            "10": 7,
            "11": 7,
            "12": 11,
            "13": 2,
            "14": 13,
            "15": 14,
            "16": 14,
            "17": 16,
            "2": 1,
            "3": 2,
            "4": 3,
            "5": 4,
            "6": 2,
            "7": 6,
            "8": 7,
            "9": 7
        },
        "tidyTrace": [
            {
                "children": [
                    {
                        "children": [
                            {
                                "children": [
                                    {
                                        "children": [
                                            {
                                                "children": [
                                                    {
                                                        "children": [
                                                            {
                                                                "children": [],
                                                                "depth": 5,
                                                                "id": 8,
                                                                "order": 8
                                                            },
                                                            {
                                                                "children": [],
                                                                "depth": 5,
                                                                "id": 9,
                                                                "order": 9
                                                            },
                                                            {
                                                                "children": [],
                                                                "depth": 5,
                                                                "id": 10,
                                                                "order": 10
                                                            },
                                                            {
                                                                "children": [
                                                                    {
                                                                        "children": [],
                                                                        "depth": 6,
                                                                        "id": 12,
                                                                        "order": 12
                                                                    }
                                                                ],
                                                                "depth": 5,
                                                                "id": 11,
                                                                "order": 11
                                                            }
                                                        ],
                                                        "depth": 4,
                                                        "id": 7,
                                                        "order": 7
                                                    }
                                                ],
                                                "depth": 3,
                                                "id": 6,
                                                "order": 6
                                            },
                                            {
                                                "children": [
                                                    {
                                                        "children": [
                                                            {
                                                                "children": [],
                                                                "depth": 5,
                                                                "id": 15,
                                                                "order": 15
                                                            },
                                                            {
                                                                "children": [
                                                                    {
                                                                        "children": [],
                                                                        "depth": 6,
                                                                        "id": 17,
                                                                        "order": 17
                                                                    }
                                                                ],
                                                                "depth": 5,
                                                                "id": 16,
                                                                "order": 16
                                                            }
                                                        ],
                                                        "depth": 4,
                                                        "id": 14,
                                                        "order": 14
                                                    }
                                                ],
                                                "depth": 3,
                                                "id": 13,
                                                "order": 13
                                            }
                                        ],
                                        "depth": 2,
                                        "id": 2,
                                        "order": 2
                                    }
                                ],
                                "depth": 1,
                                "id": 1,
                                "order": 1
                            }
                        ],
                        "depth": 0,
                        "id": 0,
                        "order": 0
                    }
                ],
                "depth": -1,
                "id": -1,
                "order": -1
            }
        ],
        "tidyTraceNodeCount": 15
    },
    "state_change": {
        "stateChanges": [
            {
                "address": "0xc42b14e49744538e3c239f8ae48a1eaaf35e68a0",
                "erc": "",
                "slots": [
                    {
                        "current": "0x0000000000000000000000000000000000000000000000000000000000000000",
                        "key": "0xa6f2ba1c7fd582977f0f5b6cb0fcf5753966533409c29d30ff8594c006330df1",
                        "prev": "0x00000000000000000000000000000000000000000000000000000000000d6bec"
                    },
                    {
                        "current": "0x0000000000000000000000000000000000000000000000000000000027b2f5db",
                        "key": "0x035be0d39a5534456489529c35c3c44bd7195bfc55064df50a2433509ec67a29",
                        "prev": "0x0000000000000000000000000000000000000000000000000000000027a589ef"
                    },
                    {
                        "current": "0xffffffffffffffffffffffffffffffffffffffffffffffffffffffffffffffff",
                        "key": "0x783d16e8a71524ac9b0dede8c8f43ee4743794dbf82cf032478bc0a64ef370fe",
                        "prev": "0x0000000000000000000000000000000000000000000000000000000000000000"
                    }
                ],
                "storageVariables": [
                    {
                        "name": "allowed",
                        "type": "mapping(address => mapping(address => uint256))",
                        "value": {
                            "pairs": [
                                {
                                    "key": "0x7701918d4a42535a3fc20da04c3335eddb2668c4",
                                    "value": {
                                        "pairs": [
                                            {
                                                "key": "0x5f65f7b609678448494de4c87521cdf6cef1e932",
                                                "value": {
                                                    "current": "115792089237316195423570985008687907853269984665640564039457584007913129639935",
                                                    "prev": "0",
                                                    "typeTag": 1
                                                }
                                            }
                                        ],
                                        "typeTag": 4
                                    }
                                }
                            ],
                            "typeTag": 4
                        }
                    },
                    {
                        "name": "balances",
                        "type": "mapping(address => uint256)",
                        "value": {
                            "pairs": [
                                {
                                    "key": "0x5f65f7b609678448494de4c87521cdf6cef1e932",
                                    "value": {
                                        "current": "666039771",
                                        "prev": "665160175",
                                        "typeTag": 1
                                    }
                                },
                                {
                                    "key": "0x7701918d4a42535a3fc20da04c3335eddb2668c4",
                                    "value": {
                                        "current": "0",
                                        "prev": "879596",
                                        "typeTag": 1
                                    }
                                }
                            ],
                            "typeTag": 4
                        }
                    }
                ]
            }
        ]
    }
}