{
    "balance_change": {
        "balanceChanges": [
            {
                "account": "0xb7f830845e9f385372ae6fb160aa968908f5bfbc",
                "assets": [
                    {
                        "address": "0x95ad61b0a150d79219dcf64e1e6cc01f0b64c4ce",
                        "amount": "1,552,356.08500108",
                        "iconUrl": "https://assets.blocksec.com/icon/56235cdcac277d59ed89deae8cb8e206f4c4384e75186903e74565b748deabf5.png",
                        "isERC1155": false,
                        "isERC721": false,
                        "sign": false,
                        "value": "98.67059524"
                    }
                ]
            },
            {
                "account": "0x3cc36cde4b5d6f8e2f164fad74db073f64c414a2",
                "assets": [
                    {
                        "address": "0x95ad61b0a150d79219dcf64e1e6cc01f0b64c4ce",
                        "amount": "1,552,356.08500108",
                        "iconUrl": "https://assets.blocksec.com/icon/56235cdcac277d59ed89deae8cb8e206f4c4384e75186903e74565b748deabf5.png",
                        "isERC1155": false,
                        "isERC721": false,
                        "sign": true,
                        "value": "98.67059524"
                    }
                ]
            }
        ]
    },
    "profile": {
        "basic_info": {
            "baseFee": "84.166496506",
            "blockNumber": 13559126,
            "callData": "0xa9059cbb0000000000000000000000003cc36cde4b5d6f8e2f164fad74db073f64c414a20000000000000000000000000000000000000000000148b964598d729bfcb000",
            "debugEnable": true,
            "errorInfo": "",
            "eventCount": 1,
            "feeRecipient": "0x1ad91ee08f21be3de0ba2ba6918e714da6b45836",
            "formatValue": "0",
            "gasLimit": 34807,
            "gasPrice": "88.116496506",
            "gasUsed": 34807,
            "intTxnCount": 0,
            "internalRevert": false,
            "internalRevertMessage": "",
            "isContractCreation": false,
            "isFlashloan": false,
            "maxFee": "91",
            "nonce": 172720,
            "overwritedBlockNumber": -1,
            "priorityFee": "3.95",
            "receiver": "0x95ad61b0a150d79219dcf64e1e6cc01f0b64c4ce",
            "revertMessage": "",
            "sender": "0xb7f830845e9f385372ae6fb160aa968908f5bfbc",
            "simulationEnable": true,
            "sourceTxnHash": "0x74d6423bb8bfd17b0dfd5661f1bf60dcae9bc50c849037c3fa6bf4b48ef78a03",
            "status": true,
            "timestamp": "2021-11-05T21:54:23Z",
            "transactionFee": "0.003067070893884342",
            "txnHash": "0x74d6423bb8bfd17b0dfd5661f1bf60dcae9bc50c849037c3fa6bf4b48ef78a03",
            "txnIndex": 24,
            "type": 2,
            "value": "0"
        },
        "fund_flow": [
            {
                "amount": "1,552,356.08500108",
                "from": "0xb7f830845e9f385372ae6fb160aa968908f5bfbc",
                "id": 1,
                "isERC1155": false,
                "isERC721": false,
                "isReverted": false,
                "order": 1,
                "to": "0x3cc36cde4b5d6f8e2f164fad74db073f64c414a2",
                "token": "0x95ad61b0a150d79219dcf64e1e6cc01f0b64c4ce"
            }
        ],
        "token_infos": [
            {
                "address": "0x95ad61b0a150d79219dcf64e1e6cc01f0b64c4ce",
                "decimals": 18
            },
            {
                "address": "0xc02aaa39b223fe8d0a0e5c4f27ead9083c756cc2",
                "decimals": 18
            },
            {
                "address": "0xeeeeeeeeeeeeeeeeeeeeeeeeeeeeeeeeeeeeeeee",
                "decimals": 18
            }
        ]
    },
    "address_label": {
        "labels": [
            {
                "address": "0xeeeeeeeeeeeeeeeeeeeeeeeeeeeeeeeeeeeeeeee",
                "label": "Ether"
            },
            {
                "address": "0x95ad61b0a150d79219dcf64e1e6cc01f0b64c4ce",
                "label": "Shiba Inu: SHIB Token"
            },
            {
                "address": "0x0000000000000000000000000000000000000001",
                "label": "Precompiled"
            },
            {
                "address": "0x0000000000000000000000000000000000000002",
                "label": "Precompiled"
            },
            {
                "address": "0x0000000000000000000000000000000000000003",
                "label": "Precompiled"
            },
            {
                "address": "0x0000000000000000000000000000000000000004",
                "label": "Precompiled"
            }
        ]
    },
    "trace": {
        "accountLabels": null,
        "dataMap": {
            "-1": {
                "invocation": {
                    "address": "0xb7f830845e9f385372ae6fb160aa968908f5bfbc",
                    "callData": "",
                    "decodedMethod": null,
                    "errorInfo": "",
                    "fromAddress": "",
                    "gasUsed": 0,
                    "id": -1,
                    "methodDecoded": false,
                    "operation": "",
                    "output": "",
                    "revert": false,
                    "revertMessage": "",
                    "selector": "",
                    "status": false,
                    "value": ""
                },
                "nodeType": 0
            },
            "0": {
                "invocation": {
                    "address": "0x95ad61b0a150d79219dcf64e1e6cc01f0b64c4ce",
                    "callData": "0x0000000000000000000000003cc36cde4b5d6f8e2f164fad74db073f64c414a20000000000000000000000000000000000000000000148b964598d729bfcb000",
                    "decodedMethod": {
                        "callParams": [
                            {
                                "name": "recipient",
                                "type": "address",
                                "value": "0x3cc36cde4b5d6f8e2f164fad74db073f64c414a2"
                            },
                            {
                                "decimalAvailable": true,
                                "name": "amount",
                                "type": "uint256",
                                "value": "1,552,356,085,001,080,000,000,000"
                            }
                        ],
                        "constructorArguments": "",
                        "name": "transfer",
                        "returnParams": [
                            {
                                "name": "",
                                "type": "bool",
                                "value": true
                            }
                        ],
                        "signature": "transfer(address,uint256)"
                    },
                    "errorInfo": "",
                    "fromAddress": "0xb7f830845e9f385372ae6fb160aa968908f5bfbc",
                    "gasUsed": 34807,
                    "id": 0,
                    "methodDecoded": true,
                    "operation": "CALL",
                    "output": "0x0000000000000000000000000000000000000000000000000000000000000001",
                    "revert": false,
                    "revertMessage": "",
                    "selector": "0xa9059cbb",
                    "status": true,
                    "value": "0"
                },
                "nodeType": 0
            },
            "1": {
                "event": {
                    "contract": "0x95ad61b0a150d79219dcf64e1e6cc01f0b64c4ce",
                    "decodedLog": {
                        "name": "Transfer",
                        "params": [
                            {
                                "name": "from",
                                "type": "address",
                                "value": "0xb7f830845e9f385372ae6fb160aa968908f5bfbc"
                            },
                            {
                                "name": "to",
                                "type": "address",
                                "value": "0x3cc36cde4b5d6f8e2f164fad74db073f64c414a2"
                            },
                            {
                                "decimalAvailable": true,
                                "name": "value",
                                "type": "uint256",
                                "value": "1,552,356,085,001,080,000,000,000"
                            }
                        ],
                        "signature": "Transfer(address,address,uint256)"
                    },
                    "id": 1,
                    "logData": "0x0000000000000000000000000000000000000000000148b964598d729bfcb000",
                    "logDecoded": true,
                    "operation": "EVENT",
                    "revert": false,
                    "status": true,
                    "topics": [
                        "0xddf252ad1be2c89b69c2b068fc378daa952ba7f163c4a11628f55a4df523b3ef",
                        "0x000000000000000000000000b7f830845e9f385372ae6fb160aa968908f5bfbc",
                        "0x0000000000000000000000003cc36cde4b5d6f8e2f164fad74db073f64c414a2"
                    ]
                },
                "nodeType": 1
            }
        },
        "gasFlame": [
            {
                "children": [
                    {
                        "children": [
                            {
                                "children": [],
                                "depth": 0,
                                "name": "Initial Gas",
                                "value": 21680
                            },
                            {
                                "children": [],
                                "depth": 0,
                                "name": "Executed Gas",
                                "value": 13127
                            }
                        ],
                        "depth": -1,
                        "name": "Actual Gas Used",
                        "value": 34807
                    },
                    {
                        "children": [],
                        "depth": -1,
                        "name": "Refunded Gas",
                        "value": 0
                    }
                ],
                "depth": -2,
                "name": "Total Gas",
                "value": 34807
            }
        ],
        "isConfirmed": true,
        "mainTrace": [
            {
                "children": [
                    {
                        "children": [
                            {
                                "children": [],
                                "depth": 1,
                                "id": 1,
                                "order": 1
                            }
                        ],
                        "depth": 0,
                        "id": 0,
                        "order": 0
                    }
                ],
                "depth": -1,
                "id": -1,
                "order": -1
            }
        ],
        "mainTraceNodeCount": 2,
        "parentIdMap": {
            "0": -1,
            "1": 0
        },
        "tidyTrace": [
            {
                "children": [
                    {
                        "children": [
                            {
                                "children": [],
                                "depth": 1,
                                "id": 1,
                                "order": 1
                            }
                        ],
                        "depth": 0,
                        "id": 0,
                        "order": 0
                    }
                ],
                "depth": -1,
                "id": -1,
                "order": -1
            }
        ],
        "tidyTraceNodeCount": 2
    },
    "state_change": {
        "stateChanges": [
            {
                "address": "0x95ad61b0a150d79219dcf64e1e6cc01f0b64c4ce",
                "erc": "ERC-20",
                "slots": [
                    {
                        "current": "0x0000000000000000000000000000000000000000005bf020f1a2d48163037400",
                        "key": "0x4fb61ca843b26532b8f1c65c60c62580f7a27249f5ba9cab5610e6043422ebb9",
                        "prev": "0x0000000000000000000000000000000000000000005d38da55fc61f3ff002400"
                    },
                    {
                        "current": "0x000000000000000000000000000000000000000000034ba8f39a1fb1bd93d000",
                        "key": "0xbfe68826281e92196398d9bc35fe4664fcf02a1da8e3494000eeaf2a349fcd5a",
                        "prev": "0x0000000000000000000000000000000000000000000202ef8f40923f21972000"
                    }
                ],
                "storageVariables": [
                    {
                        "name": "_balances",
                        "type": "mapping(address => uint256)",
                        "value": {
                            "pairs": [
                                {
                                    "key": "0x3cc36cde4b5d6f8e2f164fad74db073f64c414a2",
                                    "value": {
                                        "current": "3984071551440840000000000",
                                        "prev": "2431715466439760000000000",
                                        "typeTag": 1
                                    }
                                },
                                {
                                    "key": "0xb7f830845e9f385372ae6fb160aa968908f5bfbc",
                                    "value": {
                                        "current": "111146225248343090000000000",
                                        "prev": "112698581333344170000000000",
                                        "typeTag": 1
                                    }
                                }
                            ],
                            "typeTag": 4
                        }
                    }
                ]
            }
        ]
    }
}