{
    "balance_change": {
        "balanceChanges": [
            {
                "account": "0xed112669fe72975d8623eb71442fb941256d3048",
                "assets": [
                    {
                        "address": "0xeeeeeeeeeeeeeeeeeeeeeeeeeeeeeeeeeeeeeeee",
                        "amount": "0.042013822435935468",
                        "iconUrl": "https://assets.blocksec.com/image/1663669189317-3.png",
                        "isERC1155": false,
                        "isERC721": false,
                        "sign": true,
                        "value": "144.44792195044090306"
                    },
                    {
                        "address": "0xb62132e35a6c13ee1ee0f84dc5d40bad8d815206",
                        "amount": "103.85054002",
                        "iconUrl": "https://assets.blocksec.com/icon/fea86f969d2759a2ee2f170e71fc014cd439e415f97fa60c37db575eb46dfac5.png",
                        "isERC1155": false,
                        "isERC721": false,
                        "sign": false,
                        "value": "145.39075599999999078"
                    }
                ]
            },
            {
                "account": "0xa69babef1ca67a37ffaf7a485dfff3382056e78c",
                "assets": [
                    {
                        "address": "0xb62132e35a6c13ee1ee0f84dc5d40bad8d815206",
                        "amount": "103.85054002",
                        "iconUrl": "https://assets.blocksec.com/icon/fea86f969d2759a2ee2f170e71fc014cd439e415f97fa60c37db575eb46dfac5.png",
                        "isERC1155": false,
                        "isERC721": false,
                        "sign": true,
                        "value": "145.39075599999999078"
                    },
                    {
                        "address": "0xc02aaa39b223fe8d0a0e5c4f27ead9083c756cc2",
                        "amount": "0.042384688459960119",
                        "iconUrl": "https://assets.blocksec.com/icon/f1cb2d02c471d545bbc7722daf3277fd852d98e63d118771af7047bd8256c516.png",
                        "isERC1155": false,
                        "isERC721": false,
                        "sign": false,
                        "value": "145.72299817059523984"
                    }
                ]
            },
            {
                "account": "0xc02aaa39b223fe8d0a0e5c4f27ead9083c756cc2",
                "assets": [
                    {
                        "address": "0xeeeeeeeeeeeeeeeeeeeeeeeeeeeeeeeeeeeeeeee",
                        "amount": "0.042384688459960119",
                        "iconUrl": "https://assets.blocksec.com/image/1663669189317-3.png",
                        "isERC1155": false,
                        "isERC721": false,
                        "sign": false,
                        "value": "145.72299817059523984"
                    },
                    {
                        "address": "0xc02aaa39b223fe8d0a0e5c4f27ead9083c756cc2",
                        "amount": "0.042384688459960119",
                        "iconUrl": "https://assets.blocksec.com/icon/f1cb2d02c471d545bbc7722daf3277fd852d98e63d118771af7047bd8256c516.png",
                        "isERC1155": false,
                        "isERC721": false,
                        "sign": true,
                        "value": "145.72299817059523984"
                    }
                ]
            },
            {
                "account": "0xf326e4de8f66a0bdc0970b79e0924e33c79f1915",
                "assets": [
                    {
                        "address": "0xeeeeeeeeeeeeeeeeeeeeeeeeeeeeeeeeeeeeeeee",
                        "amount": "0.000370866024024651",
                        "iconUrl": "https://assets.blocksec.com/image/1663669189317-3.png",
                        "isERC1155": false,
                        "isERC721": false,
                        "sign": true,
                        "value": "1.2750762339067557303"
                    }
                ]
            }
        ]
    },
    "profile": {
        "basic_info": {
            "baseFee": "40.045321374",
            "blockNumber": 19351846,
            "callData": "0x5f5755290000000000000000000000000000000000000000000000000000000000000080000000000000000000000000b62132e35a6c13ee1ee0f84dc5d40bad8d815206000000000000000000000000000000000000000000000005a1373beca896880000000000000000000000000000000000000000000000000000000000000000c0000000000000000000000000000000000000000000000000000000000000000f706d6d46656544796e616d6963763400000000000000000000000000000000000000000000000000000000000000000000000000000000000000000000000300000000000000000000000000b62132e35a6c13ee1ee0f84dc5d40bad8d8152060000000000000000000000000000000000000000000000000000000000000000000000000000000000000000000000000000000000000005a1373beca89688000000000000000000000000000000000000000000000000000092471f36b6157700000000000000000000000000000000000000000000000000000000000001200000000000000000000000000000000000000000000000000001514cf99f0a4b000000000000000000000000f326e4de8f66a0bdc0970b79e0924e33c79f1915000000000000000000000000000000000000000000000000000000000000000100000000000000000000000000000000000000000000000000000000000001e0000000000000000000000000c02aaa39b223fe8d0a0e5c4f27ead9083c756cc2000000000000000000000000b62132e35a6c13ee1ee0f84dc5d40bad8d815206000000000000000000000000000000000000000000000000009694a64b924f37000000000000000000000000000000000000000000000005a1373beca8968800000000000000000000000000a69babef1ca67a37ffaf7a485dfff3382056e78c00000000000000000000000074de5d4fcbf63e00296fd95d33236b9794016631000000000000000000000000ed112669fe72975d8623eb71442fb941256d304800000000000000000000000000000000000000000000000000000000000000000000000000000000000000000000000000000000000000000000000065e3e96e01ffffffffffffffffffffffffffffffffffffff1a92e19965e3e90a000000330000000000000000000000000000000000000000000000000000000000000003000000000000000000000000000000000000000000000000000000000000001b95884d119c47e656e82442276080030fdb949443c6414ff171e90103446632c64aeeaba608407c877aa6f64607bc71c4edb8ace1e2dd94a78b6180df4db80057000000000000000000000000000000000000000000000005a1373beca8968800003c",
            "debugEnable": true,
            "errorInfo": "",
            "eventCount": 8,
            "feeRecipient": "0x4838b106fce9647bdf1e7877bf73ce8b0bad5f97",
            "formatValue": "0",
            "gasLimit": 250546,
            "gasPrice": "40.046301374",
            "gasUsed": 196932,
            "intTxnCount": 18,
            "internalRevert": false,
            "internalRevertMessage": "",
            "isContractCreation": false,
            "isFlashloan": false,
            "maxFee": "57.615389931",
            "nonce": 12,
            "overwritedBlockNumber": -1,
            "priorityFee": "0.00098",
            "receiver": "0x881d40237659c251811cec9c364ef91dc08d300c",
            "revertMessage": "",
            "sender": "0xed112669fe72975d8623eb71442fb941256d3048",
            "simulationEnable": true,
            "sourceTxnHash": "0x7441168795042aaa3115f125e07e3101d1449bf6e8a645181d61ada785f9578a",
            "status": true,
            "timestamp": "2024-03-03T03:06:11Z",
            "transactionFee": "0.007886398222184568",
            "txnHash": "0x7441168795042aaa3115f125e07e3101d1449bf6e8a645181d61ada785f9578a",
            "txnIndex": 104,
            "type": 2,
            "value": "0"
        },
        "fund_flow": [
            {
                "amount": "103.85054002",
                "from": "0xed112669fe72975d8623eb71442fb941256d3048",
                "id": 1,
                "isERC1155": false,
                "isERC721": false,
                "isReverted": false,
                "order": 1,
                "to": "0x74de5d4fcbf63e00296fd95d33236b9794016631",
                "token": "0xb62132e35a6c13ee1ee0f84dc5d40bad8d815206"
            },
            {
                "amount": "103.85054002",
                "from": "0x74de5d4fcbf63e00296fd95d33236b9794016631",
                "id": 2,
                "isERC1155": false,
                "isERC721": false,
                "isReverted": false,
                "order": 2,
                "to": "0xa69babef1ca67a37ffaf7a485dfff3382056e78c",
                "token": "0xb62132e35a6c13ee1ee0f84dc5d40bad8d815206"
            },
            {
                "amount": "0.042384688459960119",
                "from": "0xa69babef1ca67a37ffaf7a485dfff3382056e78c",
                "id": 3,
                "isERC1155": false,
                "isERC721": false,
                "isReverted": false,
                "order": 3,
                "to": "0x74de5d4fcbf63e00296fd95d33236b9794016631",
                "token": "0xc02aaa39b223fe8d0a0e5c4f27ead9083c756cc2"
            },
            {
                "amount": "0.042384688459960119",
                "from": "0xc02aaa39b223fe8d0a0e5c4f27ead9083c756cc2",
                "id": 4,
                "isERC1155": false,
                "isERC721": false,
                "isReverted": false,
                "order": 4,
                "to": "0x74de5d4fcbf63e00296fd95d33236b9794016631",
                "token": "0xeeeeeeeeeeeeeeeeeeeeeeeeeeeeeeeeeeeeeeee"
            },
            {
                "amount": "0.042384688459960119",
                "from": "0x74de5d4fcbf63e00296fd95d33236b9794016631",
                "id": 5,
                "isERC1155": false,
                "isERC721": false,
                "isReverted": false,
                "order": 5,
                "to": "0xc02aaa39b223fe8d0a0e5c4f27ead9083c756cc2",
                "token": "0xc02aaa39b223fe8d0a0e5c4f27ead9083c756cc2"
            },
            {
                "amount": "0.000370866024024651",
                "from": "0x74de5d4fcbf63e00296fd95d33236b9794016631",
                "id": 6,
                "isERC1155": false,
                "isERC721": false,
                "isReverted": false,
                "order": 6,
                "to": "0xf326e4de8f66a0bdc0970b79e0924e33c79f1915",
                "token": "0xeeeeeeeeeeeeeeeeeeeeeeeeeeeeeeeeeeeeeeee"
            },
            {
                "amount": "0.042013822435935468",
                "from": "0x74de5d4fcbf63e00296fd95d33236b9794016631",
                "id": 7,
                "isERC1155": false,
                "isERC721": false,
                "isReverted": false,
                "order": 7,
                "to": "0xed112669fe72975d8623eb71442fb941256d3048",
                "token": "0xeeeeeeeeeeeeeeeeeeeeeeeeeeeeeeeeeeeeeeee"
            }
        ],
        "token_infos": [
            {
                "address": "0xeeeeeeeeeeeeeeeeeeeeeeeeeeeeeeeeeeeeeeee",
                "decimals": 18
            },
            {
                "address": "0xb62132e35a6c13ee1ee0f84dc5d40bad8d815206",
                "decimals": 18
            },
            {
                "address": "0xc02aaa39b223fe8d0a0e5c4f27ead9083c756cc2",
                "decimals": 18
            }
        ]
    },
    "address_label": {
        "labels": [
            {
                "address": "0x0000000000000000000000000000000000000001",
                "label": "Precompiled"
            },
            {
                "address": "0x0000000000000000000000000000000000000003",
                "label": "Precompiled"
            },
            {
                "address": "0xa69babef1ca67a37ffaf7a485dfff3382056e78c",
                "label": "MEV Bot: 0xA69...78C"
            },
            {
                "address": "0x881d40237659c251811cec9c364ef91dc08d300c",
                "label": "Metamask: Swap Router"
            },
            {
                "address": "0x0000000000000000000000000000000000000002",
                "label": "Precompiled"
            },
            {
                "address": "0x0000000000000000000000000000000000000004",
                "label": "Precompiled"
            },
            {
                "address": "0x74de5d4fcbf63e00296fd95d33236b9794016631",
                "label": "MetaMask: Swaps Spender"
            },
            {
                "address": "0x1fcc3e6f76f7a96cd2b9d09f1d3c041ca1403c57",
                "label": "NativeOrdersFeature"
            },
            {
                "address": "0xdef1c0ded9bec7f1a1670819833240f027b25eff",
                "label": "0x: Exchange Proxy"
            },
            {
                "address": "0xeeeeeeeeeeeeeeeeeeeeeeeeeeeeeeeeeeeeeeee",
                "label": "Ether"
            },
            {
                "address": "0xc02aaa39b223fe8d0a0e5c4f27ead9083c756cc2",
                "label": "Wrapped Ether (WETH)"
            },
            {
                "address": "0xd9db270c1b5e3bd161e8c8503c55ceabee709552",
                "label": "Safe: Singleton 1.3.0"
            },
            {
                "address": "0xb62132e35a6c13ee1ee0f84dc5d40bad8d815206",
                "label": "Nexo Token"
            },
            {
                "address": "0xf326e4de8f66a0bdc0970b79e0924e33c79f1915",
                "label": "MetaMask: DS Proxy"
            }
        ]
    },
    "trace": {
        "accountLabels": null,
        "dataMap": {
            "-1": {
                "invocation": {
                    "address": "0xed112669fe72975d8623eb71442fb941256d3048",
                    "callData": "",
                    "decodedMethod": null,
                    "errorInfo": "",
                    "fromAddress": "",
                    "gasUsed": 0,
                    "id": -1,
                    "methodDecoded": false,
                    "operation": "",
                    "output": "",
                    "revert": false,
                    "revertMessage": "",
                    "selector": "",
                    "status": false,
                    "value": ""
                },
                "nodeType": 0
            },
            "0": {
                "invocation": {
                    "address": "0x881d40237659c251811cec9c364ef91dc08d300c",
                    "callData": "0x0000000000000000000000000000000000000000000000000000000000000080000000000000000000000000b62132e35a6c13ee1ee0f84dc5d40bad8d815206000000000000000000000000000000000000000000000005a1373beca896880000000000000000000000000000000000000000000000000000000000000000c0000000000000000000000000000000000000000000000000000000000000000f706d6d46656544796e616d6963763400000000000000000000000000000000000000000000000000000000000000000000000000000000000000000000000300000000000000000000000000b62132e35a6c13ee1ee0f84dc5d40bad8d8152060000000000000000000000000000000000000000000000000000000000000000000000000000000000000000000000000000000000000005a1373beca89688000000000000000000000000000000000000000000000000000092471f36b6157700000000000000000000000000000000000000000000000000000000000001200000000000000000000000000000000000000000000000000001514cf99f0a4b000000000000000000000000f326e4de8f66a0bdc0970b79e0924e33c79f1915000000000000000000000000000000000000000000000000000000000000000100000000000000000000000000000000000000000000000000000000000001e0000000000000000000000000c02aaa39b223fe8d0a0e5c4f27ead9083c756cc2000000000000000000000000b62132e35a6c13ee1ee0f84dc5d40bad8d815206000000000000000000000000000000000000000000000000009694a64b924f37000000000000000000000000000000000000000000000005a1373beca8968800000000000000000000000000a69babef1ca67a37ffaf7a485dfff3382056e78c00000000000000000000000074de5d4fcbf63e00296fd95d33236b9794016631000000000000000000000000ed112669fe72975d8623eb71442fb941256d304800000000000000000000000000000000000000000000000000000000000000000000000000000000000000000000000000000000000000000000000065e3e96e01ffffffffffffffffffffffffffffffffffffff1a92e19965e3e90a000000330000000000000000000000000000000000000000000000000000000000000003000000000000000000000000000000000000000000000000000000000000001b95884d119c47e656e82442276080030fdb949443c6414ff171e90103446632c64aeeaba608407c877aa6f64607bc71c4edb8ace1e2dd94a78b6180df4db80057000000000000000000000000000000000000000000000005a1373beca8968800003c",
                    "decodedMethod": {
                        "callParams": [
                            {
                                "name": "aggregatorId",
                                "type": "string",
                                "value": "pmmFeeDynamicv4"
                            },
                            {
                                "name": "tokenFrom",
                                "type": "address",
                                "value": "0xb62132e35a6c13ee1ee0f84dc5d40bad8d815206"
                            },
                            {
                                "name": "amount",
                                "type": "uint256",
                                "value": "103,850,540,020,000,000,000"
                            },
                            {
                                "name": "data",
                                "type": "bytes",
                                "value": "0x000000000000000000000000b62132e35a6c13ee1ee0f84dc5d40bad8d8152060000000000000000000000000000000000000000000000000000000000000000000000000000000000000000000000000000000000000005a1373beca89688000000000000000000000000000000000000000000000000000092471f36b6157700000000000000000000000000000000000000000000000000000000000001200000000000000000000000000000000000000000000000000001514cf99f0a4b000000000000000000000000f326e4de8f66a0bdc0970b79e0924e33c79f1915000000000000000000000000000000000000000000000000000000000000000100000000000000000000000000000000000000000000000000000000000001e0000000000000000000000000c02aaa39b223fe8d0a0e5c4f27ead9083c756cc2000000000000000000000000b62132e35a6c13ee1ee0f84dc5d40bad8d815206000000000000000000000000000000000000000000000000009694a64b924f37000000000000000000000000000000000000000000000005a1373beca8968800000000000000000000000000a69babef1ca67a37ffaf7a485dfff3382056e78c00000000000000000000000074de5d4fcbf63e00296fd95d33236b9794016631000000000000000000000000ed112669fe72975d8623eb71442fb941256d304800000000000000000000000000000000000000000000000000000000000000000000000000000000000000000000000000000000000000000000000065e3e96e01ffffffffffffffffffffffffffffffffffffff1a92e19965e3e90a000000330000000000000000000000000000000000000000000000000000000000000003000000000000000000000000000000000000000000000000000000000000001b95884d119c47e656e82442276080030fdb949443c6414ff171e90103446632c64aeeaba608407c877aa6f64607bc71c4edb8ace1e2dd94a78b6180df4db80057000000000000000000000000000000000000000000000005a1373beca8968800"
                            }
                        ],
                        "constructorArguments": "",
                        "name": "swap",
                        "returnParams": [],
                        "signature": "swap(string,address,uint256,bytes)"
                    },
                    "errorInfo": "",
                    "fromAddress": "0xed112669fe72975d8623eb71442fb941256d3048",
                    "gasUsed": 196932,
                    "id": 0,
                    "methodDecoded": true,
                    "operation": "CALL",
                    "output": "",
                    "revert": false,
                    "revertMessage": "",
                    "selector": "0x5f575529",
                    "status": true,
                    "value": "0"
                },
                "nodeType": 0
            },
            "1": {
                "invocation": {
                    "address": "0xb62132e35a6c13ee1ee0f84dc5d40bad8d815206",
                    "callData": "0x000000000000000000000000ed112669fe72975d8623eb71442fb941256d304800000000000000000000000074de5d4fcbf63e00296fd95d33236b9794016631000000000000000000000000000000000000000000000005a1373beca8968800",
                    "decodedMethod": {
                        "callParams": [
                            {
                                "name": "_from",
                                "type": "address",
                                "value": "0xed112669fe72975d8623eb71442fb941256d3048"
                            },
                            {
                                "name": "_to",
                                "type": "address",
                                "value": "0x74de5d4fcbf63e00296fd95d33236b9794016631"
                            },
                            {
                                "decimalAvailable": true,
                                "name": "_value",
                                "type": "uint256",
                                "value": "103,850,540,020,000,000,000"
                            }
                        ],
                        "constructorArguments": "",
                        "name": "transferFrom",
                        "returnParams": [
                            {
                                "name": "success",
                                "type": "bool",
                                "value": true
                            }
                        ],
                        "signature": "transferFrom(address,address,uint256)"
                    },
                    "errorInfo": "",
                    "fromAddress": "0x881d40237659c251811cec9c364ef91dc08d300c",
                    "gasUsed": 35730,
                    "id": 1,
                    "methodDecoded": true,
                    "operation": "CALL",
                    "output": "0x0000000000000000000000000000000000000000000000000000000000000001",
                    "revert": false,
                    "revertMessage": "",
                    "selector": "0x23b872dd",
                    "status": true,
                    "value": "0"
                },
                "nodeType": 0
            },
            "10": {
                "event": {
                    "contract": "0xb62132e35a6c13ee1ee0f84dc5d40bad8d815206",
                    "decodedLog": {
                        "name": "Transfer",
                        "params": [
                            {
                                "name": "from",
                                "type": "address",
                                "value": "0x74de5d4fcbf63e00296fd95d33236b9794016631"
                            },
                            {
                                "name": "to",
                                "type": "address",
                                "value": "0xa69babef1ca67a37ffaf7a485dfff3382056e78c"
                            },
                            {
                                "decimalAvailable": true,
                                "name": "value",
                                "type": "uint256",
                                "value": "103,850,540,020,000,000,000"
                            }
                        ],
                        "signature": "Transfer(address,address,uint256)"
                    },
                    "id": 10,
                    "logData": "0x000000000000000000000000000000000000000000000005a1373beca8968800",
                    "logDecoded": true,
                    "operation": "EVENT",
                    "revert": false,
                    "status": true,
                    "topics": [
                        "0xddf252ad1be2c89b69c2b068fc378daa952ba7f163c4a11628f55a4df523b3ef",
                        "0x00000000000000000000000074de5d4fcbf63e00296fd95d33236b9794016631",
                        "0x000000000000000000000000a69babef1ca67a37ffaf7a485dfff3382056e78c"
                    ]
                },
                "nodeType": 1
            },
            "11": {
                "invocation": {
                    "address": "0xc02aaa39b223fe8d0a0e5c4f27ead9083c756cc2",
                    "callData": "0x000000000000000000000000a69babef1ca67a37ffaf7a485dfff3382056e78c00000000000000000000000074de5d4fcbf63e00296fd95d33236b9794016631000000000000000000000000000000000000000000000000009694a64b924f37",
                    "decodedMethod": {
                        "callParams": [
                            {
                                "name": "src",
                                "type": "address",
                                "value": "0xa69babef1ca67a37ffaf7a485dfff3382056e78c"
                            },
                            {
                                "name": "dst",
                                "type": "address",
                                "value": "0x74de5d4fcbf63e00296fd95d33236b9794016631"
                            },
                            {
                                "decimalAvailable": true,
                                "name": "wad",
                                "type": "uint256",
                                "value": "42,384,688,459,960,119"
                            }
                        ],
                        "constructorArguments": "",
                        "name": "transferFrom",
                        "returnParams": [
                            {
                                "name": "",
                                "type": "bool",
                                "value": true
                            }
                        ],
                        "signature": "transferFrom(address,address,uint256)"
                    },
                    "errorInfo": "",
                    "fromAddress": "0xdef1c0ded9bec7f1a1670819833240f027b25eff",
                    "gasUsed": 32125,
                    "id": 11,
                    "methodDecoded": true,
                    "operation": "CALL",
                    "output": "0x0000000000000000000000000000000000000000000000000000000000000001",
                    "revert": false,
                    "revertMessage": "",
                    "selector": "0x23b872dd",
                    "status": true,
                    "value": "0"
                },
                "nodeType": 0
            },
            "12": {
                "event": {
                    "contract": "0xc02aaa39b223fe8d0a0e5c4f27ead9083c756cc2",
                    "decodedLog": {
                        "name": "Transfer",
                        "params": [
                            {
                                "name": "src",
                                "type": "address",
                                "value": "0xa69babef1ca67a37ffaf7a485dfff3382056e78c"
                            },
                            {
                                "name": "dst",
                                "type": "address",
                                "value": "0x74de5d4fcbf63e00296fd95d33236b9794016631"
                            },
                            {
                                "decimalAvailable": true,
                                "name": "wad",
                                "type": "uint256",
                                "value": "42,384,688,459,960,119"
                            }
                        ],
                        "signature": "Transfer(address,address,uint256)"
                    },
                    "id": 12,
                    "logData": "0x000000000000000000000000000000000000000000000000009694a64b924f37",
                    "logDecoded": true,
                    "operation": "EVENT",
                    "revert": false,
                    "status": true,
                    "topics": [
                        "0xddf252ad1be2c89b69c2b068fc378daa952ba7f163c4a11628f55a4df523b3ef",
                        "0x000000000000000000000000a69babef1ca67a37ffaf7a485dfff3382056e78c",
                        "0x00000000000000000000000074de5d4fcbf63e00296fd95d33236b9794016631"
                    ]
                },
                "nodeType": 1
            },
            "13": {
                "event": {
                    "contract": "0xdef1c0ded9bec7f1a1670819833240f027b25eff",
                    "decodedLog": {
                        "name": "RfqOrderFilled",
                        "params": [
                            {
                                "name": "orderHash",
                                "type": "bytes32",
                                "value": "0xc6c79c56da8fb02d91f8a97f1d414de1b051cd25f026e77cc43526ebb73e753f"
                            },
                            {
                                "name": "maker",
                                "type": "address",
                                "value": "0xa69babef1ca67a37ffaf7a485dfff3382056e78c"
                            },
                            {
                                "name": "taker",
                                "type": "address",
                                "value": "0x74de5d4fcbf63e00296fd95d33236b9794016631"
                            },
                            {
                                "name": "makerToken",
                                "type": "address",
                                "value": "0xc02aaa39b223fe8d0a0e5c4f27ead9083c756cc2"
                            },
                            {
                                "name": "takerToken",
                                "type": "address",
                                "value": "0xb62132e35a6c13ee1ee0f84dc5d40bad8d815206"
                            },
                            {
                                "name": "takerTokenFilledAmount",
                                "type": "uint128",
                                "value": "103,850,540,020,000,000,000"
                            },
                            {
                                "name": "makerTokenFilledAmount",
                                "type": "uint128",
                                "value": "42,384,688,459,960,119"
                            },
                            {
                                "name": "pool",
                                "type": "bytes32",
                                "value": "0x0000000000000000000000000000000000000000000000000000000000000000"
                            }
                        ],
                        "signature": "RfqOrderFilled(bytes32,address,address,address,address,uint128,uint128,bytes32)"
                    },
                    "id": 13,
                    "logData": "0xc6c79c56da8fb02d91f8a97f1d414de1b051cd25f026e77cc43526ebb73e753f000000000000000000000000a69babef1ca67a37ffaf7a485dfff3382056e78c00000000000000000000000074de5d4fcbf63e00296fd95d33236b9794016631000000000000000000000000c02aaa39b223fe8d0a0e5c4f27ead9083c756cc2000000000000000000000000b62132e35a6c13ee1ee0f84dc5d40bad8d815206000000000000000000000000000000000000000000000005a1373beca8968800000000000000000000000000000000000000000000000000009694a64b924f370000000000000000000000000000000000000000000000000000000000000000",
                    "logDecoded": true,
                    "operation": "EVENT",
                    "revert": false,
                    "status": true,
                    "topics": [
                        "0x829fa99d94dc4636925b38632e625736a614c154d55006b7ab6bea979c210c32"
                    ]
                },
                "nodeType": 1
            },
            "14": {
                "invocation": {
                    "address": "0xc02aaa39b223fe8d0a0e5c4f27ead9083c756cc2",
                    "callData": "0x0000000000000000000000000000000000000000000000000001514cf99f0a4b",
                    "decodedMethod": {
                        "callParams": [
                            {
                                "name": "wad",
                                "type": "uint256",
                                "value": "370,866,024,024,651"
                            }
                        ],
                        "constructorArguments": "",
                        "name": "withdraw",
                        "returnParams": [],
                        "signature": "withdraw(uint256)"
                    },
                    "errorInfo": "",
                    "fromAddress": "0x74de5d4fcbf63e00296fd95d33236b9794016631",
                    "gasUsed": 9180,
                    "id": 14,
                    "methodDecoded": true,
                    "operation": "CALL",
                    "output": "",
                    "revert": false,
                    "revertMessage": "",
                    "selector": "0x2e1a7d4d",
                    "status": true,
                    "value": "0"
                },
                "nodeType": 0
            },
            "15": {
                "invocation": {
                    "address": "0x74de5d4fcbf63e00296fd95d33236b9794016631",
                    "callData": "0x",
                    "decodedMethod": null,
                    "errorInfo": "",
                    "fromAddress": "0xc02aaa39b223fe8d0a0e5c4f27ead9083c756cc2",
                    "gasUsed": 40,
                    "id": 15,
                    "methodDecoded": false,
                    "operation": "CALL",
                    "output": "",
                    "revert": false,
                    "revertMessage": "",
                    "selector": "fallback",
                    "status": true,
                    "value": "0.000370866024024651"
                },
                "nodeType": 0
            },
            "16": {
                "event": {
                    "contract": "0xc02aaa39b223fe8d0a0e5c4f27ead9083c756cc2",
                    "decodedLog": {
                        "name": "Withdrawal",
                        "params": [
                            {
                                "name": "src",
                                "type": "address",
                                "value": "0x74de5d4fcbf63e00296fd95d33236b9794016631"
                            },
                            {
                                "name": "wad",
                                "type": "uint256",
                                "value": "370,866,024,024,651"
                            }
                        ],
                        "signature": "Withdrawal(address,uint256)"
                    },
                    "id": 16,
                    "logData": "0x0000000000000000000000000000000000000000000000000001514cf99f0a4b",
                    "logDecoded": true,
                    "operation": "EVENT",
                    "revert": false,
                    "status": true,
                    "topics": [
                        "0x7fcf532c15f0a6db0bd6d0e038bea71d30d808c7d98cb3bf7268a95bf5081b65",
                        "0x00000000000000000000000074de5d4fcbf63e00296fd95d33236b9794016631"
                    ]
                },
                "nodeType": 1
            },
            "17": {
                "invocation": {
                    "address": "0xf326e4de8f66a0bdc0970b79e0924e33c79f1915",
                    "callData": "0x",
                    "decodedMethod": null,
                    "errorInfo": "",
                    "fromAddress": "0x74de5d4fcbf63e00296fd95d33236b9794016631",
                    "gasUsed": 6329,
                    "id": 17,
                    "methodDecoded": false,
                    "operation": "CALL",
                    "output": "",
                    "revert": false,
                    "revertMessage": "",
                    "selector": "fallback",
                    "status": true,
                    "value": "0.000370866024024651"
                },
                "nodeType": 0
            },
            "18": {
                "invocation": {
                    "address": "0xd9db270c1b5e3bd161e8c8503c55ceabee709552",
                    "callData": "0x",
                    "decodedMethod": null,
                    "errorInfo": "",
                    "fromAddress": "0xf326e4de8f66a0bdc0970b79e0924e33c79f1915",
                    "gasUsed": 1504,
                    "id": 18,
                    "methodDecoded": false,
                    "operation": "DELEGATECALL",
                    "output": "",
                    "revert": false,
                    "revertMessage": "",
                    "selector": "fallback",
                    "status": true,
                    "value": "0.000370866024024651"
                },
                "nodeType": 0
            },
            "19": {
                "event": {
                    "contract": "0xf326e4de8f66a0bdc0970b79e0924e33c79f1915",
                    "decodedLog": {
                        "name": "SafeReceived",
                        "params": [
                            {
                                "name": "sender",
                                "type": "address",
                                "value": "0x74de5d4fcbf63e00296fd95d33236b9794016631"
                            },
                            {
                                "name": "value",
                                "type": "uint256",
                                "value": "370,866,024,024,651"
                            }
                        ],
                        "signature": "SafeReceived(address,uint256)"
                    },
                    "id": 19,
                    "logData": "0x0000000000000000000000000000000000000000000000000001514cf99f0a4b",
                    "logDecoded": true,
                    "operation": "EVENT",
                    "revert": false,
                    "status": true,
                    "topics": [
                        "0x3d0ce9bfc3ed7d6862dbb28b2dea94561fe714a1b4d019aa8af39730d1ad7c3d",
                        "0x00000000000000000000000074de5d4fcbf63e00296fd95d33236b9794016631"
                    ]
                },
                "nodeType": 1
            },
            "2": {
                "event": {
                    "contract": "0xb62132e35a6c13ee1ee0f84dc5d40bad8d815206",
                    "decodedLog": {
                        "name": "Transfer",
                        "params": [
                            {
                                "name": "from",
                                "type": "address",
                                "value": "0xed112669fe72975d8623eb71442fb941256d3048"
                            },
                            {
                                "name": "to",
                                "type": "address",
                                "value": "0x74de5d4fcbf63e00296fd95d33236b9794016631"
                            },
                            {
                                "decimalAvailable": true,
                                "name": "value",
                                "type": "uint256",
                                "value": "103,850,540,020,000,000,000"
                            }
                        ],
                        "signature": "Transfer(address,address,uint256)"
                    },
                    "id": 2,
                    "logData": "0x000000000000000000000000000000000000000000000005a1373beca8968800",
                    "logDecoded": true,
                    "operation": "EVENT",
                    "revert": false,
                    "status": true,
                    "topics": [
                        "0xddf252ad1be2c89b69c2b068fc378daa952ba7f163c4a11628f55a4df523b3ef",
                        "0x000000000000000000000000ed112669fe72975d8623eb71442fb941256d3048",
                        "0x00000000000000000000000074de5d4fcbf63e00296fd95d33236b9794016631"
                    ]
                },
                "nodeType": 1
            },
            "20": {
                "invocation": {
                    "address": "0xb62132e35a6c13ee1ee0f84dc5d40bad8d815206",
                    "callData": "0x00000000000000000000000074de5d4fcbf63e00296fd95d33236b9794016631",
                    "decodedMethod": {
                        "callParams": [
                            {
                                "name": "_owner",
                                "type": "address",
                                "value": "0x74de5d4fcbf63e00296fd95d33236b9794016631"
                            }
                        ],
                        "constructorArguments": "",
                        "name": "balanceOf",
                        "returnParams": [
                            {
                                "decimalAvailable": true,
                                "name": "balance",
                                "type": "uint256",
                                "value": "0"
                            }
                        ],
                        "signature": "balanceOf(address)"
                    },
                    "errorInfo": "",
                    "fromAddress": "0x74de5d4fcbf63e00296fd95d33236b9794016631",
                    "gasUsed": 1053,
                    "id": 20,
                    "methodDecoded": true,
                    "operation": "STATICCALL",
                    "output": "0x0000000000000000000000000000000000000000000000000000000000000000",
                    "revert": false,
                    "revertMessage": "",
                    "selector": "0x70a08231",
                    "status": true,
                    "value": "0"
                },
                "nodeType": 0
            },
            "21": {
                "invocation": {
                    "address": "0xc02aaa39b223fe8d0a0e5c4f27ead9083c756cc2",
                    "callData": "0x00000000000000000000000074de5d4fcbf63e00296fd95d33236b9794016631",
                    "decodedMethod": {
                        "callParams": [
                            {
                                "name": "",
                                "type": "address",
                                "value": "0x74de5d4fcbf63e00296fd95d33236b9794016631"
                            }
                        ],
                        "constructorArguments": "",
                        "name": "balanceOf",
                        "returnParams": [
                            {
                                "decimalAvailable": true,
                                "name": "",
                                "type": "uint256",
                                "value": "42,013,822,435,935,468"
                            }
                        ],
                        "signature": "balanceOf(address)"
                    },
                    "errorInfo": "",
                    "fromAddress": "0x74de5d4fcbf63e00296fd95d33236b9794016631",
                    "gasUsed": 534,
                    "id": 21,
                    "methodDecoded": true,
                    "operation": "STATICCALL",
                    "output": "0x0000000000000000000000000000000000000000000000000095435951f344ec",
                    "revert": false,
                    "revertMessage": "",
                    "selector": "0x70a08231",
                    "status": true,
                    "value": "0"
                },
                "nodeType": 0
            },
            "22": {
                "invocation": {
                    "address": "0xc02aaa39b223fe8d0a0e5c4f27ead9083c756cc2",
                    "callData": "0x0000000000000000000000000000000000000000000000000095435951f344ec",
                    "decodedMethod": {
                        "callParams": [
                            {
                                "name": "wad",
                                "type": "uint256",
                                "value": "42,013,822,435,935,468"
                            }
                        ],
                        "constructorArguments": "",
                        "name": "withdraw",
                        "returnParams": [],
                        "signature": "withdraw(uint256)"
                    },
                    "errorInfo": "",
                    "fromAddress": "0x74de5d4fcbf63e00296fd95d33236b9794016631",
                    "gasUsed": 9180,
                    "id": 22,
                    "methodDecoded": true,
                    "operation": "CALL",
                    "output": "",
                    "revert": false,
                    "revertMessage": "",
                    "selector": "0x2e1a7d4d",
                    "status": true,
                    "value": "0"
                },
                "nodeType": 0
            },
            "23": {
                "invocation": {
                    "address": "0x74de5d4fcbf63e00296fd95d33236b9794016631",
                    "callData": "0x",
                    "decodedMethod": null,
                    "errorInfo": "",
                    "fromAddress": "0xc02aaa39b223fe8d0a0e5c4f27ead9083c756cc2",
                    "gasUsed": 40,
                    "id": 23,
                    "methodDecoded": false,
                    "operation": "CALL",
                    "output": "",
                    "revert": false,
                    "revertMessage": "",
                    "selector": "fallback",
                    "status": true,
                    "value": "0.042013822435935468"
                },
                "nodeType": 0
            },
            "24": {
                "event": {
                    "contract": "0xc02aaa39b223fe8d0a0e5c4f27ead9083c756cc2",
                    "decodedLog": {
                        "name": "Withdrawal",
                        "params": [
                            {
                                "name": "src",
                                "type": "address",
                                "value": "0x74de5d4fcbf63e00296fd95d33236b9794016631"
                            },
                            {
                                "name": "wad",
                                "type": "uint256",
                                "value": "42,013,822,435,935,468"
                            }
                        ],
                        "signature": "Withdrawal(address,uint256)"
                    },
                    "id": 24,
                    "logData": "0x0000000000000000000000000000000000000000000000000095435951f344ec",
                    "logDecoded": true,
                    "operation": "EVENT",
                    "revert": false,
                    "status": true,
                    "topics": [
                        "0x7fcf532c15f0a6db0bd6d0e038bea71d30d808c7d98cb3bf7268a95bf5081b65",
                        "0x00000000000000000000000074de5d4fcbf63e00296fd95d33236b9794016631"
                    ]
                },
                "nodeType": 1
            },
            "25": {
                "invocation": {
                    "address": "0xed112669fe72975d8623eb71442fb941256d3048",
                    "callData": "0x",
                    "decodedMethod": null,
                    "errorInfo": "",
                    "fromAddress": "0x74de5d4fcbf63e00296fd95d33236b9794016631",
                    "gasUsed": 0,
                    "id": 25,
                    "methodDecoded": false,
                    "operation": "CALL",
                    "output": "",
                    "revert": false,
                    "revertMessage": "",
                    "selector": "fallback",
                    "status": true,
                    "value": "0.042013822435935468"
                },
                "nodeType": 0
            },
            "26": {
                "event": {
                    "contract": "0x881d40237659c251811cec9c364ef91dc08d300c",
                    "decodedLog": {
                        "name": "Swap",
                        "params": [
                            {
                                "name": "aggregatorId",
                                "type": "string",
                                "value": "0x62db2e87ad4360c521a990935f97f7c44833c4f99a8f1c09129331715b07f525"
                            },
                            {
                                "name": "sender",
                                "type": "address",
                                "value": "0xed112669fe72975d8623eb71442fb941256d3048"
                            }
                        ],
                        "signature": "Swap(string,address)"
                    },
                    "id": 26,
                    "logData": "0x",
                    "logDecoded": true,
                    "operation": "EVENT",
                    "revert": false,
                    "status": true,
                    "topics": [
                        "0xbeee1e6e7fe307ddcf84b0a16137a4430ad5e2480fc4f4a8e250ab56ccd7630d",
                        "0x62db2e87ad4360c521a990935f97f7c44833c4f99a8f1c09129331715b07f525",
                        "0x000000000000000000000000ed112669fe72975d8623eb71442fb941256d3048"
                    ]
                },
                "nodeType": 1
            },
            "3": {
                "invocation": {
                    "address": "0x74de5d4fcbf63e00296fd95d33236b9794016631",
                    "callData": "0x0000000000000000000000007bba8bd42a19da78326be908e2cd52604399a7480000000000000000000000000000000000000000000000000000000000000040000000000000000000000000000000000000000000000000000000000000032492f5f037000000000000000000000000ed112669fe72975d8623eb71442fb941256d3048000000000000000000000000b62132e35a6c13ee1ee0f84dc5d40bad8d8152060000000000000000000000000000000000000000000000000000000000000000000000000000000000000000000000000000000000000005a1373beca89688000000000000000000000000000000000000000000000000000092471f36b6157700000000000000000000000000000000000000000000000000000000000001200000000000000000000000000000000000000000000000000001514cf99f0a4b000000000000000000000000f326e4de8f66a0bdc0970b79e0924e33c79f1915000000000000000000000000000000000000000000000000000000000000000100000000000000000000000000000000000000000000000000000000000001e0000000000000000000000000c02aaa39b223fe8d0a0e5c4f27ead9083c756cc2000000000000000000000000b62132e35a6c13ee1ee0f84dc5d40bad8d815206000000000000000000000000000000000000000000000000009694a64b924f37000000000000000000000000000000000000000000000005a1373beca8968800000000000000000000000000a69babef1ca67a37ffaf7a485dfff3382056e78c00000000000000000000000074de5d4fcbf63e00296fd95d33236b9794016631000000000000000000000000ed112669fe72975d8623eb71442fb941256d304800000000000000000000000000000000000000000000000000000000000000000000000000000000000000000000000000000000000000000000000065e3e96e01ffffffffffffffffffffffffffffffffffffff1a92e19965e3e90a000000330000000000000000000000000000000000000000000000000000000000000003000000000000000000000000000000000000000000000000000000000000001b95884d119c47e656e82442276080030fdb949443c6414ff171e90103446632c64aeeaba608407c877aa6f64607bc71c4edb8ace1e2dd94a78b6180df4db80057000000000000000000000000000000000000000000000005a1373beca896880000000000000000000000000000000000000000000000000000000000",
                    "decodedMethod": {
                        "callParams": [
                            {
                                "name": "adapter",
                                "type": "address",
                                "value": "0x7bba8bd42a19da78326be908e2cd52604399a748"
                            },
                            {
                                "name": "data",
                                "type": "bytes",
                                "value": "0x92f5f037000000000000000000000000ed112669fe72975d8623eb71442fb941256d3048000000000000000000000000b62132e35a6c13ee1ee0f84dc5d40bad8d8152060000000000000000000000000000000000000000000000000000000000000000000000000000000000000000000000000000000000000005a1373beca89688000000000000000000000000000000000000000000000000000092471f36b6157700000000000000000000000000000000000000000000000000000000000001200000000000000000000000000000000000000000000000000001514cf99f0a4b000000000000000000000000f326e4de8f66a0bdc0970b79e0924e33c79f1915000000000000000000000000000000000000000000000000000000000000000100000000000000000000000000000000000000000000000000000000000001e0000000000000000000000000c02aaa39b223fe8d0a0e5c4f27ead9083c756cc2000000000000000000000000b62132e35a6c13ee1ee0f84dc5d40bad8d815206000000000000000000000000000000000000000000000000009694a64b924f37000000000000000000000000000000000000000000000005a1373beca8968800000000000000000000000000a69babef1ca67a37ffaf7a485dfff3382056e78c00000000000000000000000074de5d4fcbf63e00296fd95d33236b9794016631000000000000000000000000ed112669fe72975d8623eb71442fb941256d304800000000000000000000000000000000000000000000000000000000000000000000000000000000000000000000000000000000000000000000000065e3e96e01ffffffffffffffffffffffffffffffffffffff1a92e19965e3e90a000000330000000000000000000000000000000000000000000000000000000000000003000000000000000000000000000000000000000000000000000000000000001b95884d119c47e656e82442276080030fdb949443c6414ff171e90103446632c64aeeaba608407c877aa6f64607bc71c4edb8ace1e2dd94a78b6180df4db80057000000000000000000000000000000000000000000000005a1373beca8968800"
                            }
                        ],
                        "constructorArguments": "",
                        "name": "swap",
                        "returnParams": [],
                        "signature": "swap(address,bytes)"
                    },
                    "errorInfo": "",
                    "fromAddress": "0x881d40237659c251811cec9c364ef91dc08d300c",
                    "gasUsed": 155893,
                    "id": 3,
                    "methodDecoded": true,
                    "operation": "CALL",
                    "output": "",
                    "revert": false,
                    "revertMessage": "",
                    "selector": "0xe3547335",
                    "status": true,
                    "value": "0"
                },
                "nodeType": 0
            },
            "4": {
                "invocation": {
                    "address": "0x7bba8bd42a19da78326be908e2cd52604399a748",
                    "callData": "0x000000000000000000000000ed112669fe72975d8623eb71442fb941256d3048000000000000000000000000b62132e35a6c13ee1ee0f84dc5d40bad8d8152060000000000000000000000000000000000000000000000000000000000000000000000000000000000000000000000000000000000000005a1373beca89688000000000000000000000000000000000000000000000000000092471f36b6157700000000000000000000000000000000000000000000000000000000000001200000000000000000000000000000000000000000000000000001514cf99f0a4b000000000000000000000000f326e4de8f66a0bdc0970b79e0924e33c79f1915000000000000000000000000000000000000000000000000000000000000000100000000000000000000000000000000000000000000000000000000000001e0000000000000000000000000c02aaa39b223fe8d0a0e5c4f27ead9083c756cc2000000000000000000000000b62132e35a6c13ee1ee0f84dc5d40bad8d815206000000000000000000000000000000000000000000000000009694a64b924f37000000000000000000000000000000000000000000000005a1373beca8968800000000000000000000000000a69babef1ca67a37ffaf7a485dfff3382056e78c00000000000000000000000074de5d4fcbf63e00296fd95d33236b9794016631000000000000000000000000ed112669fe72975d8623eb71442fb941256d304800000000000000000000000000000000000000000000000000000000000000000000000000000000000000000000000000000000000000000000000065e3e96e01ffffffffffffffffffffffffffffffffffffff1a92e19965e3e90a000000330000000000000000000000000000000000000000000000000000000000000003000000000000000000000000000000000000000000000000000000000000001b95884d119c47e656e82442276080030fdb949443c6414ff171e90103446632c64aeeaba608407c877aa6f64607bc71c4edb8ace1e2dd94a78b6180df4db80057000000000000000000000000000000000000000000000005a1373beca8968800",
                    "decodedMethod": null,
                    "errorInfo": "",
                    "fromAddress": "0x74de5d4fcbf63e00296fd95d33236b9794016631",
                    "gasUsed": 150062,
                    "id": 4,
                    "methodDecoded": false,
                    "operation": "DELEGATECALL",
                    "output": "",
                    "revert": false,
                    "revertMessage": "",
                    "selector": "0x92f5f037",
                    "status": true,
                    "value": "0"
                },
                "nodeType": 0
            },
            "5": {
                "invocation": {
                    "address": "0xb62132e35a6c13ee1ee0f84dc5d40bad8d815206",
                    "callData": "0x00000000000000000000000074de5d4fcbf63e00296fd95d33236b9794016631000000000000000000000000def1c0ded9bec7f1a1670819833240f027b25eff",
                    "decodedMethod": {
                        "callParams": [
                            {
                                "name": "_owner",
                                "type": "address",
                                "value": "0x74de5d4fcbf63e00296fd95d33236b9794016631"
                            },
                            {
                                "name": "_spender",
                                "type": "address",
                                "value": "0xdef1c0ded9bec7f1a1670819833240f027b25eff"
                            }
                        ],
                        "constructorArguments": "",
                        "name": "allowance",
                        "returnParams": [
                            {
                                "decimalAvailable": true,
                                "name": "remaining",
                                "type": "uint256",
                                "value": "115,792,089,237,316,195,423,570,985,008,687,907,853,269,984,665,640,558,036,746,478,331,345,150,891,726"
                            }
                        ],
                        "signature": "allowance(address,address)"
                    },
                    "errorInfo": "",
                    "fromAddress": "0x74de5d4fcbf63e00296fd95d33236b9794016631",
                    "gasUsed": 5860,
                    "id": 5,
                    "methodDecoded": true,
                    "operation": "STATICCALL",
                    "output": "0xfffffffffffffffffffffffffffffffffffffffffffb08e06100f9a53e8f56ce",
                    "revert": false,
                    "revertMessage": "",
                    "selector": "0xdd62ed3e",
                    "status": true,
                    "value": "0"
                },
                "nodeType": 0
            },
            "6": {
                "invocation": {
                    "address": "0xdef1c0ded9bec7f1a1670819833240f027b25eff",
                    "callData": "0x000000000000000000000000c02aaa39b223fe8d0a0e5c4f27ead9083c756cc2000000000000000000000000b62132e35a6c13ee1ee0f84dc5d40bad8d815206000000000000000000000000000000000000000000000000009694a64b924f37000000000000000000000000000000000000000000000005a1373beca8968800000000000000000000000000a69babef1ca67a37ffaf7a485dfff3382056e78c00000000000000000000000074de5d4fcbf63e00296fd95d33236b9794016631000000000000000000000000ed112669fe72975d8623eb71442fb941256d304800000000000000000000000000000000000000000000000000000000000000000000000000000000000000000000000000000000000000000000000065e3e96e01ffffffffffffffffffffffffffffffffffffff1a92e19965e3e90a000000330000000000000000000000000000000000000000000000000000000000000003000000000000000000000000000000000000000000000000000000000000001b95884d119c47e656e82442276080030fdb949443c6414ff171e90103446632c64aeeaba608407c877aa6f64607bc71c4edb8ace1e2dd94a78b6180df4db80057000000000000000000000000000000000000000000000005a1373beca8968800",
                    "decodedMethod": {
                        "callParams": [
                            {
                                "name": "order",
                                "type": "(address,address,uint128,uint128,address,address,address,bytes32,uint64,uint256)",
                                "value": [
                                    {
                                        "name": "makerToken",
                                        "type": "address",
                                        "value": "0xc02aaa39b223fe8d0a0e5c4f27ead9083c756cc2"
                                    },
                                    {
                                        "name": "takerToken",
                                        "type": "address",
                                        "value": "0xb62132e35a6c13ee1ee0f84dc5d40bad8d815206"
                                    },
                                    {
                                        "name": "makerAmount",
                                        "type": "uint128",
                                        "value": "42,384,688,459,960,119"
                                    },
                                    {
                                        "name": "takerAmount",
                                        "type": "uint128",
                                        "value": "103,850,540,020,000,000,000"
                                    },
                                    {
                                        "name": "maker",
                                        "type": "address",
                                        "value": "0xa69babef1ca67a37ffaf7a485dfff3382056e78c"
                                    },
                                    {
                                        "name": "taker",
                                        "type": "address",
                                        "value": "0x74de5d4fcbf63e00296fd95d33236b9794016631"
                                    },
                                    {
                                        "name": "txOrigin",
                                        "type": "address",
                                        "value": "0xed112669fe72975d8623eb71442fb941256d3048"
                                    },
                                    {
                                        "name": "pool",
                                        "type": "bytes32",
                                        "value": "0x0000000000000000000000000000000000000000000000000000000000000000"
                                    },
                                    {
                                        "name": "expiry",
                                        "type": "uint64",
                                        "value": "1,709,435,246"
                                    },
                                    {
                                        "name": "salt",
                                        "type": "uint256",
                                        "value": "904,625,697,166,532,776,746,648,320,380,374,280,103,671,755,129,312,922,831,169,202,109,066,248,243"
                                    }
                                ]
                            },
                            {
                                "name": "signature",
                                "type": "(uint8,uint8,bytes32,bytes32)",
                                "value": [
                                    {
                                        "name": "signatureType",
                                        "type": "uint8",
                                        "value": "3"
                                    },
                                    {
                                        "name": "v",
                                        "type": "uint8",
                                        "value": "27"
                                    },
                                    {
                                        "name": "r",
                                        "type": "bytes32",
                                        "value": "0x95884d119c47e656e82442276080030fdb949443c6414ff171e90103446632c6"
                                    },
                                    {
                                        "name": "s",
                                        "type": "bytes32",
                                        "value": "0x4aeeaba608407c877aa6f64607bc71c4edb8ace1e2dd94a78b6180df4db80057"
                                    }
                                ]
                            },
                            {
                                "name": "takerTokenFillAmount",
                                "type": "uint128",
                                "value": "103,850,540,020,000,000,000"
                            }
                        ],
                        "constructorArguments": "",
                        "name": "fillRfqOrder",
                        "returnParams": [
                            {
                                "name": "takerTokenFilledAmount",
                                "type": "uint128",
                                "value": "103,850,540,020,000,000,000"
                            },
                            {
                                "name": "makerTokenFilledAmount",
                                "type": "uint128",
                                "value": "42,384,688,459,960,119"
                            }
                        ],
                        "signature": "fillRfqOrder((address,address,uint128,uint128,address,address,address,bytes32,uint64,uint256),(uint8,uint8,bytes32,bytes32),uint128)"
                    },
                    "errorInfo": "",
                    "fromAddress": "0x74de5d4fcbf63e00296fd95d33236b9794016631",
                    "gasUsed": 93196,
                    "id": 6,
                    "methodDecoded": true,
                    "operation": "CALL",
                    "output": "0x000000000000000000000000000000000000000000000005a1373beca8968800000000000000000000000000000000000000000000000000009694a64b924f37",
                    "revert": false,
                    "revertMessage": "",
                    "selector": "0xaa77476c",
                    "status": true,
                    "value": "0"
                },
                "nodeType": 0
            },
            "7": {
                "invocation": {
                    "address": "0x1fcc3e6f76f7a96cd2b9d09f1d3c041ca1403c57",
                    "callData": "0x000000000000000000000000c02aaa39b223fe8d0a0e5c4f27ead9083c756cc2000000000000000000000000b62132e35a6c13ee1ee0f84dc5d40bad8d815206000000000000000000000000000000000000000000000000009694a64b924f37000000000000000000000000000000000000000000000005a1373beca8968800000000000000000000000000a69babef1ca67a37ffaf7a485dfff3382056e78c00000000000000000000000074de5d4fcbf63e00296fd95d33236b9794016631000000000000000000000000ed112669fe72975d8623eb71442fb941256d304800000000000000000000000000000000000000000000000000000000000000000000000000000000000000000000000000000000000000000000000065e3e96e01ffffffffffffffffffffffffffffffffffffff1a92e19965e3e90a000000330000000000000000000000000000000000000000000000000000000000000003000000000000000000000000000000000000000000000000000000000000001b95884d119c47e656e82442276080030fdb949443c6414ff171e90103446632c64aeeaba608407c877aa6f64607bc71c4edb8ace1e2dd94a78b6180df4db80057000000000000000000000000000000000000000000000005a1373beca8968800",
                    "decodedMethod": {
                        "callParams": [
                            {
                                "name": "order",
                                "type": "(address,address,uint128,uint128,address,address,address,bytes32,uint64,uint256)",
                                "value": [
                                    {
                                        "name": "makerToken",
                                        "type": "address",
                                        "value": "0xc02aaa39b223fe8d0a0e5c4f27ead9083c756cc2"
                                    },
                                    {
                                        "name": "takerToken",
                                        "type": "address",
                                        "value": "0xb62132e35a6c13ee1ee0f84dc5d40bad8d815206"
                                    },
                                    {
                                        "name": "makerAmount",
                                        "type": "uint128",
                                        "value": "42,384,688,459,960,119"
                                    },
                                    {
                                        "name": "takerAmount",
                                        "type": "uint128",
                                        "value": "103,850,540,020,000,000,000"
                                    },
                                    {
                                        "name": "maker",
                                        "type": "address",
                                        "value": "0xa69babef1ca67a37ffaf7a485dfff3382056e78c"
                                    },
                                    {
                                        "name": "taker",
                                        "type": "address",
                                        "value": "0x74de5d4fcbf63e00296fd95d33236b9794016631"
                                    },
                                    {
                                        "name": "txOrigin",
                                        "type": "address",
                                        "value": "0xed112669fe72975d8623eb71442fb941256d3048"
                                    },
                                    {
                                        "name": "pool",
                                        "type": "bytes32",
                                        "value": "0x0000000000000000000000000000000000000000000000000000000000000000"
                                    },
                                    {
                                        "name": "expiry",
                                        "type": "uint64",
                                        "value": "1,709,435,246"
                                    },
                                    {
                                        "name": "salt",
                                        "type": "uint256",
                                        "value": "904,625,697,166,532,776,746,648,320,380,374,280,103,671,755,129,312,922,831,169,202,109,066,248,243"
                                    }
                                ]
                            },
                            {
                                "name": "signature",
                                "type": "(uint8,uint8,bytes32,bytes32)",
                                "value": [
                                    {
                                        "name": "signatureType",
                                        "type": "uint8",
                                        "value": "3"
                                    },
                                    {
                                        "name": "v",
                                        "type": "uint8",
                                        "value": "27"
                                    },
                                    {
                                        "name": "r",
                                        "type": "bytes32",
                                        "value": "0x95884d119c47e656e82442276080030fdb949443c6414ff171e90103446632c6"
                                    },
                                    {
                                        "name": "s",
                                        "type": "bytes32",
                                        "value": "0x4aeeaba608407c877aa6f64607bc71c4edb8ace1e2dd94a78b6180df4db80057"
                                    }
                                ]
                            },
                            {
                                "name": "takerTokenFillAmount",
                                "type": "uint128",
                                "value": "103,850,540,020,000,000,000"
                            }
                        ],
                        "constructorArguments": "",
                        "name": "fillRfqOrder",
                        "returnParams": [
                            {
                                "name": "takerTokenFilledAmount",
                                "type": "uint128",
                                "value": "103,850,540,020,000,000,000"
                            },
                            {
                                "name": "makerTokenFilledAmount",
                                "type": "uint128",
                                "value": "42,384,688,459,960,119"
                            }
                        ],
                        "signature": "fillRfqOrder((address,address,uint128,uint128,address,address,address,bytes32,uint64,uint256),(uint8,uint8,bytes32,bytes32),uint128)"
                    },
                    "errorInfo": "",
                    "fromAddress": "0xdef1c0ded9bec7f1a1670819833240f027b25eff",
                    "gasUsed": 87366,
                    "id": 7,
                    "methodDecoded": true,
                    "operation": "DELEGATECALL",
                    "output": "0x000000000000000000000000000000000000000000000005a1373beca8968800000000000000000000000000000000000000000000000000009694a64b924f37",
                    "revert": false,
                    "revertMessage": "",
                    "selector": "0xaa77476c",
                    "status": true,
                    "value": "0"
                },
                "nodeType": 0
            },
            "8": {
                "invocation": {
                    "address": "0x0000000000000000000000000000000000000001",
                    "callData": "0x88e7978ffec701b9708bfef490941a81f81e8e68def4eb0813c2a0b3000000000000000000000000000000000000000000000000000000000000001b95884d119c47e656e82442276080030fdb949443c6414ff171e90103446632c64aeeaba608407c877aa6f64607bc71c4edb8ace1e2dd94a78b6180df4db80057",
                    "decodedMethod": {
                        "callParams": [
                            {
                                "name": "hash",
                                "type": "bytes32",
                                "value": "0x86f370c588e7978ffec701b9708bfef490941a81f81e8e68def4eb0813c2a0b3"
                            },
                            {
                                "name": "v",
                                "type": "uint256",
                                "value": "27"
                            },
                            {
                                "name": "r",
                                "type": "bytes32",
                                "value": "0x95884d119c47e656e82442276080030fdb949443c6414ff171e90103446632c6"
                            },
                            {
                                "name": "s",
                                "type": "bytes32",
                                "value": "0x4aeeaba608407c877aa6f64607bc71c4edb8ace1e2dd94a78b6180df4db80057"
                            }
                        ],
                        "constructorArguments": "",
                        "name": "ecrecover",
                        "returnParams": [
                            {
                                "name": "",
                                "type": "address",
                                "value": "0xb691f44f4ba2033d45e05e8a3c509ab776d4c90b"
                            }
                        ],
                        "signature": "ecrecover(bytes32,uint256,bytes32,bytes32)"
                    },
                    "errorInfo": "",
                    "fromAddress": "0xdef1c0ded9bec7f1a1670819833240f027b25eff",
                    "gasUsed": 3000,
                    "id": 8,
                    "methodDecoded": true,
                    "operation": "STATICCALL",
                    "output": "0x000000000000000000000000b691f44f4ba2033d45e05e8a3c509ab776d4c90b",
                    "revert": false,
                    "revertMessage": "",
                    "selector": "0x86f370c5",
                    "status": true,
                    "value": "0"
                },
                "nodeType": 0
            },
            "9": {
                "invocation": {
                    "address": "0xb62132e35a6c13ee1ee0f84dc5d40bad8d815206",
                    "callData": "0x00000000000000000000000074de5d4fcbf63e00296fd95d33236b9794016631000000000000000000000000a69babef1ca67a37ffaf7a485dfff3382056e78c000000000000000000000000000000000000000000000005a1373beca8968800",
                    "decodedMethod": {
                        "callParams": [
                            {
                                "name": "_from",
                                "type": "address",
                                "value": "0x74de5d4fcbf63e00296fd95d33236b9794016631"
                            },
                            {
                                "name": "_to",
                                "type": "address",
                                "value": "0xa69babef1ca67a37ffaf7a485dfff3382056e78c"
                            },
                            {
                                "decimalAvailable": true,
                                "name": "_value",
                                "type": "uint256",
                                "value": "103,850,540,020,000,000,000"
                            }
                        ],
                        "constructorArguments": "",
                        "name": "transferFrom",
                        "returnParams": [
                            {
                                "name": "success",
                                "type": "bool",
                                "value": true
                            }
                        ],
                        "signature": "transferFrom(address,address,uint256)"
                    },
                    "errorInfo": "",
                    "fromAddress": "0xdef1c0ded9bec7f1a1670819833240f027b25eff",
                    "gasUsed": 11830,
                    "id": 9,
                    "methodDecoded": true,
                    "operation": "CALL",
                    "output": "0x0000000000000000000000000000000000000000000000000000000000000001",
                    "revert": false,
                    "revertMessage": "",
                    "selector": "0x23b872dd",
                    "status": true,
                    "value": "0"
                },
                "nodeType": 0
            }
        },
        "gasFlame": [
            {
                "children": [
                    {
                        "children": [
                            {
                                "children": [],
                                "depth": 0,
                                "name": "Initial Gas",
                                "value": 29060
                            },
                            {
                                "children": [
                                    {
                                        "children": [],
                                        "depth": 1,
                                        "name": "transferFrom",
                                        "value": 35730
                                    },
                                    {
                                        "children": [
                                            {
                                                "children": [
                                                    {
                                                        "children": [],
                                                        "depth": 3,
                                                        "name": "allowance",
                                                        "value": 5860
                                                    },
                                                    {
                                                        "children": [
                                                            {
                                                                "children": [
                                                                    {
                                                                        "children": [],
                                                                        "depth": 5,
                                                                        "name": "ecrecover",
                                                                        "value": 3000
                                                                    },
                                                                    {
                                                                        "children": [],
                                                                        "depth": 5,
                                                                        "name": "transferFrom",
                                                                        "value": 11830
                                                                    },
                                                                    {
                                                                        "children": [],
                                                                        "depth": 5,
                                                                        "name": "transferFrom",
                                                                        "value": 32125
                                                                    }
                                                                ],
                                                                "depth": 4,
                                                                "name": "fillRfqOrder",
                                                                "value": 87366
                                                            }
                                                        ],
                                                        "depth": 3,
                                                        "name": "fillRfqOrder",
                                                        "value": 93196
                                                    },
                                                    {
                                                        "children": [
                                                            {
                                                                "children": [],
                                                                "depth": 4,
                                                                "name": "fallback",
                                                                "value": 40
                                                            }
                                                        ],
                                                        "depth": 3,
                                                        "name": "withdraw",
                                                        "value": 9180
                                                    },
                                                    {
                                                        "children": [
                                                            {
                                                                "children": [],
                                                                "depth": 4,
                                                                "name": "fallback",
                                                                "value": 1504
                                                            }
                                                        ],
                                                        "depth": 3,
                                                        "name": "fallback",
                                                        "value": 6329
                                                    },
                                                    {
                                                        "children": [],
                                                        "depth": 3,
                                                        "name": "balanceOf",
                                                        "value": 1053
                                                    },
                                                    {
                                                        "children": [],
                                                        "depth": 3,
                                                        "name": "balanceOf",
                                                        "value": 534
                                                    },
                                                    {
                                                        "children": [
                                                            {
                                                                "children": [],
                                                                "depth": 4,
                                                                "name": "fallback",
                                                                "value": 40
                                                            }
                                                        ],
                                                        "depth": 3,
                                                        "name": "withdraw",
                                                        "value": 9180
                                                    },
                                                    {
                                                        "children": [],
                                                        "depth": 3,
                                                        "name": "fallback",
                                                        "value": 0
                                                    }
                                                ],
                                                "depth": 2,
                                                "name": "0x92f5f037",
                                                "value": 150062
                                            }
                                        ],
                                        "depth": 1,
                                        "name": "swap",
                                        "value": 155893
                                    }
                                ],
                                "depth": 0,
                                "name": "Executed Gas",
                                "value": 215272
                            }
                        ],
                        "depth": -1,
                        "name": "Actual Gas Used",
                        "value": 196932
                    },
                    {
                        "children": [],
                        "depth": -1,
                        "name": "Refunded Gas",
                        "value": 47400
                    }
                ],
                "depth": -2,
                "name": "Total Gas",
                "value": 244332
            }
        ],
        "isConfirmed": true,
        "mainTrace": [
            {
                "children": [
                    {
                        "children": [
                            {
                                "children": [
                                    {
                                        "children": [],
                                        "depth": 2,
                                        "id": 2,
                                        "order": 2
                                    }
                                ],
                                "depth": 1,
                                "id": 1,
                                "order": 1
                            },
                            {
                                "children": [
                                    {
                                        "children": [
                                            {
                                                "children": [],
                                                "depth": 3,
                                                "id": 5,
                                                "order": 5
                                            },
                                            {
                                                "children": [
                                                    {
                                                        "children": [
                                                            {
                                                                "children": [],
                                                                "depth": 5,
                                                                "id": 8,
                                                                "order": 8
                                                            },
                                                            {
                                                                "children": [
                                                                    {
                                                                        "children": [],
                                                                        "depth": 6,
                                                                        "id": 10,
                                                                        "order": 10
                                                                    }
                                                                ],
                                                                "depth": 5,
                                                                "id": 9,
                                                                "order": 9
                                                            },
                                                            {
                                                                "children": [
                                                                    {
                                                                        "children": [],
                                                                        "depth": 6,
                                                                        "id": 12,
                                                                        "order": 12
                                                                    }
                                                                ],
                                                                "depth": 5,
                                                                "id": 11,
                                                                "order": 11
                                                            },
                                                            {
                                                                "children": [],
                                                                "depth": 5,
                                                                "id": 13,
                                                                "order": 13
                                                            }
                                                        ],
                                                        "depth": 4,
                                                        "id": 7,
                                                        "order": 7
                                                    }
                                                ],
                                                "depth": 3,
                                                "id": 6,
                                                "order": 6
                                            },
                                            {
                                                "children": [
                                                    {
                                                        "children": [],
                                                        "depth": 4,
                                                        "id": 15,
                                                        "order": 15
                                                    },
                                                    {
                                                        "children": [],
                                                        "depth": 4,
                                                        "id": 16,
                                                        "order": 16
                                                    }
                                                ],
                                                "depth": 3,
                                                "id": 14,
                                                "order": 14
                                            },
                                            {
                                                "children": [
                                                    {
                                                        "children": [
                                                            {
                                                                "children": [],
                                                                "depth": 5,
                                                                "id": 19,
                                                                "order": 19
                                                            }
                                                        ],
                                                        "depth": 4,
                                                        "id": 18,
                                                        "order": 18
                                                    }
                                                ],
                                                "depth": 3,
                                                "id": 17,
                                                "order": 17
                                            },
                                            {
                                                "children": [],
                                                "depth": 3,
                                                "id": 20,
                                                "order": 20
                                            },
                                            {
                                                "children": [],
                                                "depth": 3,
                                                "id": 21,
                                                "order": 21
                                            },
                                            {
                                                "children": [
                                                    {
                                                        "children": [],
                                                        "depth": 4,
                                                        "id": 23,
                                                        "order": 23
                                                    },
                                                    {
                                                        "children": [],
                                                        "depth": 4,
                                                        "id": 24,
                                                        "order": 24
                                                    }
                                                ],
                                                "depth": 3,
                                                "id": 22,
                                                "order": 22
                                            },
                                            {
                                                "children": [],
                                                "depth": 3,
                                                "id": 25,
                                                "order": 25
                                            }
                                        ],
                                        "depth": 2,
                                        "id": 4,
                                        "order": 4
                                    }
                                ],
                                "depth": 1,
                                "id": 3,
                                "order": 3
                            },
                            {
                                "children": [],
                                "depth": 1,
                                "id": 26,
                                "order": 26
                            }
                        ],
                        "depth": 0,
                        "id": 0,
                        "order": 0
                    }
                ],
                "depth": -1,
                "id": -1,
                "order": -1
            }
        ],
        "mainTraceNodeCount": 27,
        "parentIdMap": {
            "0": -1,
            "1": 0,
            "10": 9,
            "11": 7,
            "12": 11,
            "13": 7,
            "14": 4,
            "15": 14,
            "16": 14,
            "17": 4,
            "18": 17,
            "19": 18,
            "2": 1,
            "20": 4,
            "21": 4,
            "22": 4,
            "23": 22,
            "24": 22,
            "25": 4,
            "26": 0,
            "3": 0,
            "4": 3,
            "5": 4,
            "6": 4,
            "7": 6,
            "8": 7,
            "9": 7
        },
        "tidyTrace": [
            {
                "children": [
                    {
                        "children": [
                            {
                                "children": [
                                    {
                                        "children": [],
                                        "depth": 2,
                                        "id": 2,
                                        "order": 2
                                    }
                                ],
                                "depth": 1,
                                "id": 1,
                                "order": 1
                            },
                            {
                                "children": [
                                    {
                                        "children": [
                                            {
                                                "children": [
                                                    {
                                                        "children": [
                                                            {
                                                                "children": [
                                                                    {
                                                                        "children": [],
                                                                        "depth": 6,
                                                                        "id": 10,
                                                                        "order": 10
                                                                    }
                                                                ],
                                                                "depth": 5,
                                                                "id": 9,
                                                                "order": 9
                                                            },
                                                            {
                                                                "children": [
                                                                    {
                                                                        "children": [],
                                                                        "depth": 6,
                                                                        "id": 12,
                                                                        "order": 12
                                                                    }
                                                                ],
                                                                "depth": 5,
                                                                "id": 11,
                                                                "order": 11
                                                            },
                                                            {
                                                                "children": [],
                                                                "depth": 5,
                                                                "id": 13,
                                                                "order": 13
                                                            }
                                                        ],
                                                        "depth": 4,
                                                        "id": 7,
                                                        "order": 7
                                                    }
                                                ],
                                                "depth": 3,
                                                "id": 6,
                                                "order": 6
                                            },
                                            {
                                                "children": [
                                                    {
                                                        "children": [],
                                                        "depth": 4,
                                                        "id": 15,
                                                        "order": 15
                                                    },
                                                    {
                                                        "children": [],
                                                        "depth": 4,
                                                        "id": 16,
                                                        "order": 16
                                                    }
                                                ],
                                                "depth": 3,
                                                "id": 14,
                                                "order": 14
                                            },
                                            {
                                                "children": [
                                                    {
                                                        "children": [
                                                            {
                                                                "children": [],
                                                                "depth": 5,
                                                                "id": 19,
                                                                "order": 19
                                                            }
                                                        ],
                                                        "depth": 4,
                                                        "id": 18,
                                                        "order": 18
                                                    }
                                                ],
                                                "depth": 3,
                                                "id": 17,
                                                "order": 17
                                            },
                                            {
                                                "children": [
                                                    {
                                                        "children": [],
                                                        "depth": 4,
                                                        "id": 23,
                                                        "order": 23
                                                    },
                                                    {
                                                        "children": [],
                                                        "depth": 4,
                                                        "id": 24,
                                                        "order": 24
                                                    }
                                                ],
                                                "depth": 3,
                                                "id": 22,
                                                "order": 22
                                            },
                                            {
                                                "children": [],
                                                "depth": 3,
                                                "id": 25,
                                                "order": 25
                                            }
                                        ],
                                        "depth": 2,
                                        "id": 4,
                                        "order": 4
                                    }
                                ],
                                "depth": 1,
                                "id": 3,
                                "order": 3
                            },
                            {
                                "children": [],
                                "depth": 1,
                                "id": 26,
                                "order": 26
                            }
                        ],
                        "depth": 0,
                        "id": 0,
                        "order": 0
                    }
                ],
                "depth": -1,
                "id": -1,
                "order": -1
            }
        ],
        "tidyTraceNodeCount": 23
    },
    "state_change": {
        "stateChanges": [
            {
                "address": "0xb62132e35a6c13ee1ee0f84dc5d40bad8d815206",
                "erc": "ERC-20",
                "slots": [
                    {
                        "current": "0x0000000000000000000000000000000000000000000000000000000000000000",
                        "key": "0x30d105574b2eda317de47595e15f501754e848e13e4abf857ec26304dd9a3277",
                        "prev": "0x000000000000000000000000000000000000000000000005a1373beca8968800"
                    },
                    {
                        "current": "0x0000000000000000000000000000000000000000000005e30531d2f5bb5d61b9",
                        "key": "0x35d7fb7665514f774d2c2df607e197eb8674b6e63d2638472758647a2e67406a",
                        "prev": "0x0000000000000000000000000000000000000000000005dd63fa970912c6d9b9"
                    },
                    {
                        "current": "0xfffffffffffffffffffffffffffffffffffffffffffb08dabfc9bdb895f8cece",
                        "key": "0x163771690d4173c20aa187efb4db917b0cf4c480af56e564c94109287ee82fff",
                        "prev": "0xfffffffffffffffffffffffffffffffffffffffffffb08e06100f9a53e8f56ce"
                    },
                    {
                        "current": "0xffffffffffffffffffffffffffffffffffffffffffffffea1b72a98b2e3977ff",
                        "key": "0x8467b9b1efd7c6bf5a83465be48ed0139933718ab12981c13d94b55e55e9df77",
                        "prev": "0xffffffffffffffffffffffffffffffffffffffffffffffefbca9e577d6cfffff"
                    }
                ],
                "storageVariables": [
                    {
                        "name": "balances",
                        "type": "mapping(address => uint256)",
                        "value": {
                            "pairs": [
                                {
                                    "key": "0xa69babef1ca67a37ffaf7a485dfff3382056e78c",
                                    "value": {
                                        "current": "27799617631277195026873",
                                        "prev": "27695767091257195026873",
                                        "typeTag": 1
                                    }
                                },
                                {
                                    "key": "0xed112669fe72975d8623eb71442fb941256d3048",
                                    "value": {
                                        "current": "0",
                                        "prev": "103850540020000000000",
                                        "typeTag": 1
                                    }
                                }
                            ],
                            "typeTag": 4
                        }
                    },
                    {
                        "name": "allowed",
                        "type": "mapping(address => mapping(address => uint256))",
                        "value": {
                            "pairs": [
                                {
                                    "key": "0x74de5d4fcbf63e00296fd95d33236b9794016631",
                                    "value": {
                                        "pairs": [
                                            {
                                                "key": "0xdef1c0ded9bec7f1a1670819833240f027b25eff",
                                                "value": {
                                                    "current": "115792089237316195423570985008687907853269984665640558036642627791325150891726",
                                                    "prev": "115792089237316195423570985008687907853269984665640558036746478331345150891726",
                                                    "typeTag": 1
                                                }
                                            }
                                        ],
                                        "typeTag": 4
                                    }
                                },
                                {
                                    "key": "0xed112669fe72975d8623eb71442fb941256d3048",
                                    "value": {
                                        "pairs": [
                                            {
                                                "key": "0x881d40237659c251811cec9c364ef91dc08d300c",
                                                "value": {
                                                    "current": "115792089237316195423570985008687907853269984665640564039053733467893129639935",
                                                    "prev": "115792089237316195423570985008687907853269984665640564039157584007913129639935",
                                                    "typeTag": 1
                                                }
                                            }
                                        ],
                                        "typeTag": 4
                                    }
                                }
                            ],
                            "typeTag": 4
                        }
                    }
                ]
            },
            {
                "address": "0xc02aaa39b223fe8d0a0e5c4f27ead9083c756cc2",
                "erc": "ERC-20",
                "slots": [
                    {
                        "current": "0x00000000000000000000000000000000000000000000018162e3626a15c69a65",
                        "key": "0x75245230289a9f0bf73a6c59aef6651b98b3833a62a3c0bd9ab6b0dec8ed4d8f",
                        "prev": "0x0000000000000000000000000000000000000000000001816379f7106158e99c"
                    }
                ],
                "storageVariables": [
                    {
                        "name": "balanceOf",
                        "type": "mapping(address => uint256)",
                        "value": {
                            "pairs": [
                                {
                                    "key": "0xa69babef1ca67a37ffaf7a485dfff3382056e78c",
                                    "value": {
                                        "current": "7109122115621379021413",
                                        "prev": "7109164500309838981532",
                                        "typeTag": 1
                                    }
                                }
                            ],
                            "typeTag": 4
                        }
                    }
                ]
            },
            {
                "address": "0xdef1c0ded9bec7f1a1670819833240f027b25eff",
                "erc": "",
                "slots": [
                    {
                        "current": "0x000000000000000000000000000000000000000000000005a1373beca8968800",
                        "key": "0xaaae3f5de4af4b8fa5715d5f4430e3f7e0e3edc8ba73c82dd60402ad23c10af1",
                        "prev": "0x0000000000000000000000000000000000000000000000000000000000000000"
                    }
                ],
                "storageVariables": []
            }
        ]
    }
}