{
    "balance_change": {
        "balanceChanges": [
            {
                "account": "0xc3278ddb4596adad83d93410563151553460fa5e",
                "assets": [
                    {
                        "address": "0xeeeeeeeeeeeeeeeeeeeeeeeeeeeeeeeeeeeeeeee",
                        "amount": "0.000777",
                        "iconUrl": "https://assets.blocksec.com/image/1663669189317-3.png",
                        "isERC1155": false,
                        "isERC721": false,
                        "sign": false,
                        "value": "1.2765035300219999715"
                    },
                    {
                        "address": "0xd4307e0acd12cf46fd6cf93bc264f5d5d1598792",
                        "amount": "1",
                        "iconUrl": "https://assets.blocksec.com/nft/icon/nft_f324b448-8a90-4e5d-b0c3-eade465afe72.png",
                        "isERC1155": false,
                        "isERC721": true,
                        "sign": true,
                        "tokenID": "13244",
                        "value": ""
                    }
                ]
            },
            {
                "account": "0x0000000000000000000000000000000000000000",
                "assets": [
                    {
                        "address": "0xd4307e0acd12cf46fd6cf93bc264f5d5d1598792",
                        "amount": "1",
                        "iconUrl": "https://assets.blocksec.com/nft/icon/nft_f324b448-8a90-4e5d-b0c3-eade465afe72.png",
                        "isERC1155": false,
                        "isERC721": true,
                        "sign": false,
                        "tokenID": "13244",
                        "value": ""
                    }
                ]
            },
            {
                "account": "0xd1d1d4e36117ab794ec5d4c78cbd3a8904e691d0",
                "assets": [
                    {
                        "address": "0xeeeeeeeeeeeeeeeeeeeeeeeeeeeeeeeeeeeeeeee",
                        "amount": "0.000777",
                        "iconUrl": "https://assets.blocksec.com/image/1663669189317-3.png",
                        "isERC1155": false,
                        "isERC721": false,
                        "sign": true,
                        "value": "1.2765035300219999715"
                    }
                ]
            }
        ]
    },
    "profile": {
        "basic_info": {
            "baseFee": "68.462952155",
            "blockNumber": 16691974,
            "callData": "0xefef39a10000000000000000000000000000000000000000000000000000000000000001",
            "debugEnable": true,
            "errorInfo": "",
            "eventCount": 4,
            "feeRecipient": "0xdafea492d9c6733ae3d56b7ed1adb60692c98bc5",
            "formatValue": "0.000777",
            "gasLimit": 116900,
            "gasPrice": "68.962952155",
            "gasUsed": 110595,
            "intTxnCount": 3,
            "internalRevert": false,
            "internalRevertMessage": "",
            "isContractCreation": false,
            "isFlashloan": false,
            "maxFee": "93.616088503",
            "nonce": 33,
            "overwritedBlockNumber": -1,
            "priorityFee": "0.5",
            "receiver": "0xd4307e0acd12cf46fd6cf93bc264f5d5d1598792",
            "revertMessage": "",
            "sender": "0xc3278ddb4596adad83d93410563151553460fa5e",
            "simulationEnable": true,
            "sourceTxnHash": "0x75409a0dc475afa84a05acd21f780c6b3740e4f8562487554a50ba5f8a61b7ff",
            "status": true,
            "timestamp": "2023-02-23T15:25:47Z",
            "transactionFee": "0.007626957693582225",
            "txnHash": "0x75409a0dc475afa84a05acd21f780c6b3740e4f8562487554a50ba5f8a61b7ff",
            "txnIndex": 143,
            "type": 2,
            "value": "777000000000000"
        },
        "fund_flow": [
            {
                "amount": "0.000777",
                "from": "0xc3278ddb4596adad83d93410563151553460fa5e",
                "id": 1,
                "isERC1155": false,
                "isERC721": false,
                "isReverted": false,
                "order": 1,
                "to": "0xd4307e0acd12cf46fd6cf93bc264f5d5d1598792",
                "token": "0xeeeeeeeeeeeeeeeeeeeeeeeeeeeeeeeeeeeeeeee"
            },
            {
                "amount": "1",
                "from": "0x0000000000000000000000000000000000000000",
                "id": 2,
                "isERC1155": false,
                "isERC721": true,
                "isReverted": false,
                "order": 2,
                "to": "0xc3278ddb4596adad83d93410563151553460fa5e",
                "token": "0xd4307e0acd12cf46fd6cf93bc264f5d5d1598792",
                "tokenID": "13244"
            },
            {
                "amount": "0.000777",
                "from": "0xd4307e0acd12cf46fd6cf93bc264f5d5d1598792",
                "id": 3,
                "isERC1155": false,
                "isERC721": false,
                "isReverted": false,
                "order": 3,
                "to": "0xd1d1d4e36117ab794ec5d4c78cbd3a8904e691d0",
                "token": "0xeeeeeeeeeeeeeeeeeeeeeeeeeeeeeeeeeeeeeeee"
            }
        ],
        "token_infos": [
            {
                "address": "0xc02aaa39b223fe8d0a0e5c4f27ead9083c756cc2",
                "decimals": 18
            },
            {
                "address": "0xeeeeeeeeeeeeeeeeeeeeeeeeeeeeeeeeeeeeeeee",
                "decimals": 18
            }
        ]
    },
    "address_label": {
        "labels": [
            {
                "address": "0xeeeeeeeeeeeeeeeeeeeeeeeeeeeeeeeeeeeeeeee",
                "label": "Ether"
            },
            {
                "address": "0xd1d1d4e36117ab794ec5d4c78cbd3a8904e691d0",
                "label": "GnosisSafeProxy_d1d1_91d0"
            },
            {
                "address": "0xd4307e0acd12cf46fd6cf93bc264f5d5d1598792",
                "label": "Base: Base, Introduced Token"
            },
            {
                "address": "0x0000000000000000000000000000000000000002",
                "label": "Precompiled"
            },
            {
                "address": "0x0000000000000000000000000000000000000003",
                "label": "Precompiled"
            },
            {
                "address": "0xd9db270c1b5e3bd161e8c8503c55ceabee709552",
                "label": "Safe: Singleton 1.3.0"
            },
            {
                "address": "0x5eb5babcefea846b220c82f222f00df95934f5f0",
                "label": "ERC721Drop"
            },
            {
                "address": "0x0000000000000000000000000000000000000001",
                "label": "Precompiled"
            },
            {
                "address": "0x0000000000000000000000000000000000000004",
                "label": "Precompiled"
            }
        ]
    },
    "trace": {
        "accountLabels": null,
        "dataMap": {
            "-1": {
                "invocation": {
                    "address": "0xc3278ddb4596adad83d93410563151553460fa5e",
                    "callData": "",
                    "decodedMethod": null,
                    "errorInfo": "",
                    "fromAddress": "",
                    "gasUsed": 0,
                    "id": -1,
                    "methodDecoded": false,
                    "operation": "",
                    "output": "",
                    "revert": false,
                    "revertMessage": "",
                    "selector": "",
                    "status": false,
                    "value": ""
                },
                "nodeType": 0
            },
            "0": {
                "invocation": {
                    "address": "0xd4307e0acd12cf46fd6cf93bc264f5d5d1598792",
                    "callData": "0x0000000000000000000000000000000000000000000000000000000000000001",
                    "decodedMethod": {
                        "callParams": [
                            {
                                "name": "quantity",
                                "type": "uint256",
                                "value": "1"
                            }
                        ],
                        "constructorArguments": "",
                        "name": "purchase",
                        "returnParams": [
                            {
                                "name": "",
                                "type": "uint256",
                                "value": "13,243"
                            }
                        ],
                        "signature": "purchase(uint256)"
                    },
                    "errorInfo": "",
                    "fromAddress": "0xc3278ddb4596adad83d93410563151553460fa5e",
                    "gasUsed": 110595,
                    "id": 0,
                    "methodDecoded": true,
                    "operation": "CALL",
                    "output": "0x00000000000000000000000000000000000000000000000000000000000033bb",
                    "revert": false,
                    "revertMessage": "",
                    "selector": "0xefef39a1",
                    "status": true,
                    "value": "0.000777"
                },
                "nodeType": 0
            },
            "1": {
                "invocation": {
                    "address": "0x5eb5babcefea846b220c82f222f00df95934f5f0",
                    "callData": "0x0000000000000000000000000000000000000000000000000000000000000001",
                    "decodedMethod": {
                        "callParams": [
                            {
                                "name": "quantity",
                                "type": "uint256",
                                "value": "1"
                            }
                        ],
                        "constructorArguments": "",
                        "name": "purchase",
                        "returnParams": [
                            {
                                "name": "",
                                "type": "uint256",
                                "value": "13,243"
                            }
                        ],
                        "signature": "purchase(uint256)"
                    },
                    "errorInfo": "",
                    "fromAddress": "0xd4307e0acd12cf46fd6cf93bc264f5d5d1598792",
                    "gasUsed": 87305,
                    "id": 1,
                    "methodDecoded": true,
                    "operation": "DELEGATECALL",
                    "output": "0x00000000000000000000000000000000000000000000000000000000000033bb",
                    "revert": false,
                    "revertMessage": "",
                    "selector": "0xefef39a1",
                    "status": true,
                    "value": "0.000777"
                },
                "nodeType": 0
            },
            "2": {
                "event": {
                    "contract": "0xd4307e0acd12cf46fd6cf93bc264f5d5d1598792",
                    "decodedLog": {
                        "name": "Transfer",
                        "params": [
                            {
                                "name": "from",
                                "type": "address",
                                "value": "0x0000000000000000000000000000000000000000"
                            },
                            {
                                "name": "to",
                                "type": "address",
                                "value": "0xc3278ddb4596adad83d93410563151553460fa5e"
                            },
                            {
                                "decimalAvailable": true,
                                "name": "tokenId",
                                "type": "uint256",
                                "value": "13,244"
                            }
                        ],
                        "signature": "Transfer(address,address,uint256)"
                    },
                    "id": 2,
                    "logData": "0x",
                    "logDecoded": true,
                    "operation": "EVENT",
                    "revert": false,
                    "status": true,
                    "topics": [
                        "0xddf252ad1be2c89b69c2b068fc378daa952ba7f163c4a11628f55a4df523b3ef",
                        "0x0000000000000000000000000000000000000000000000000000000000000000",
                        "0x000000000000000000000000c3278ddb4596adad83d93410563151553460fa5e",
                        "0x00000000000000000000000000000000000000000000000000000000000033bc"
                    ]
                },
                "nodeType": 1
            },
            "3": {
                "invocation": {
                    "address": "0xd1d1d4e36117ab794ec5d4c78cbd3a8904e691d0",
                    "callData": "0x",
                    "decodedMethod": null,
                    "errorInfo": "",
                    "fromAddress": "0xd4307e0acd12cf46fd6cf93bc264f5d5d1598792",
                    "gasUsed": 6329,
                    "id": 3,
                    "methodDecoded": false,
                    "operation": "CALL",
                    "output": "",
                    "revert": false,
                    "revertMessage": "",
                    "selector": "fallback",
                    "status": true,
                    "value": "0.000777"
                },
                "nodeType": 0
            },
            "4": {
                "invocation": {
                    "address": "0xd9db270c1b5e3bd161e8c8503c55ceabee709552",
                    "callData": "0x",
                    "decodedMethod": null,
                    "errorInfo": "",
                    "fromAddress": "0xd1d1d4e36117ab794ec5d4c78cbd3a8904e691d0",
                    "gasUsed": 1504,
                    "id": 4,
                    "methodDecoded": false,
                    "operation": "DELEGATECALL",
                    "output": "",
                    "revert": false,
                    "revertMessage": "",
                    "selector": "fallback",
                    "status": true,
                    "value": "0.000777"
                },
                "nodeType": 0
            },
            "5": {
                "event": {
                    "contract": "0xd1d1d4e36117ab794ec5d4c78cbd3a8904e691d0",
                    "decodedLog": {
                        "name": "SafeReceived",
                        "params": [
                            {
                                "name": "sender",
                                "type": "address",
                                "value": "0xd4307e0acd12cf46fd6cf93bc264f5d5d1598792"
                            },
                            {
                                "name": "value",
                                "type": "uint256",
                                "value": "777,000,000,000,000"
                            }
                        ],
                        "signature": "SafeReceived(address,uint256)"
                    },
                    "id": 5,
                    "logData": "0x0000000000000000000000000000000000000000000000000002c2ad68fd9000",
                    "logDecoded": true,
                    "operation": "EVENT",
                    "revert": false,
                    "status": true,
                    "topics": [
                        "0x3d0ce9bfc3ed7d6862dbb28b2dea94561fe714a1b4d019aa8af39730d1ad7c3d",
                        "0x000000000000000000000000d4307e0acd12cf46fd6cf93bc264f5d5d1598792"
                    ]
                },
                "nodeType": 1
            },
            "6": {
                "event": {
                    "contract": "0xd4307e0acd12cf46fd6cf93bc264f5d5d1598792",
                    "decodedLog": {
                        "name": "MintFeePayout",
                        "params": [
                            {
                                "name": "mintFeeAmount",
                                "type": "uint256",
                                "value": "777,000,000,000,000"
                            },
                            {
                                "name": "mintFeeRecipient",
                                "type": "address",
                                "value": "0xd1d1d4e36117ab794ec5d4c78cbd3a8904e691d0"
                            },
                            {
                                "name": "success",
                                "type": "bool",
                                "value": true
                            }
                        ],
                        "signature": "MintFeePayout(uint256,address,bool)"
                    },
                    "id": 6,
                    "logData": "0x0000000000000000000000000000000000000000000000000002c2ad68fd9000000000000000000000000000d1d1d4e36117ab794ec5d4c78cbd3a8904e691d00000000000000000000000000000000000000000000000000000000000000001",
                    "logDecoded": true,
                    "operation": "EVENT",
                    "revert": false,
                    "status": true,
                    "topics": [
                        "0x6f8da53cfedb8cc4f7935c3629624e50b63053c93bb2cad246aa4d3a2ba7d4ce"
                    ]
                },
                "nodeType": 1
            },
            "7": {
                "event": {
                    "contract": "0xd4307e0acd12cf46fd6cf93bc264f5d5d1598792",
                    "decodedLog": {
                        "name": "Sale",
                        "params": [
                            {
                                "name": "to",
                                "type": "address",
                                "value": "0xc3278ddb4596adad83d93410563151553460fa5e"
                            },
                            {
                                "name": "quantity",
                                "type": "uint256",
                                "value": "1"
                            },
                            {
                                "name": "pricePerToken",
                                "type": "uint256",
                                "value": "0"
                            },
                            {
                                "name": "firstPurchasedTokenId",
                                "type": "uint256",
                                "value": "13,243"
                            }
                        ],
                        "signature": "Sale(address,uint256,uint256,uint256)"
                    },
                    "id": 7,
                    "logData": "0x00000000000000000000000000000000000000000000000000000000000033bb",
                    "logDecoded": true,
                    "operation": "EVENT",
                    "revert": false,
                    "status": true,
                    "topics": [
                        "0x4e26b0356a15833a75d497ecc40ebbb716b99466ed0dba9454f1fff451e25a90",
                        "0x000000000000000000000000c3278ddb4596adad83d93410563151553460fa5e",
                        "0x0000000000000000000000000000000000000000000000000000000000000001",
                        "0x0000000000000000000000000000000000000000000000000000000000000000"
                    ]
                },
                "nodeType": 1
            }
        },
        "gasFlame": [
            {
                "children": [
                    {
                        "children": [
                            {
                                "children": [],
                                "depth": 0,
                                "name": "Initial Gas",
                                "value": 21204
                            },
                            {
                                "children": [
                                    {
                                        "children": [
                                            {
                                                "children": [
                                                    {
                                                        "children": [],
                                                        "depth": 3,
                                                        "name": "fallback",
                                                        "value": 1504
                                                    }
                                                ],
                                                "depth": 2,
                                                "name": "fallback",
                                                "value": 6329
                                            }
                                        ],
                                        "depth": 1,
                                        "name": "purchase",
                                        "value": 87305
                                    }
                                ],
                                "depth": 0,
                                "name": "Executed Gas",
                                "value": 92191
                            }
                        ],
                        "depth": -1,
                        "name": "Actual Gas Used",
                        "value": 110595
                    },
                    {
                        "children": [],
                        "depth": -1,
                        "name": "Refunded Gas",
                        "value": 2800
                    }
                ],
                "depth": -2,
                "name": "Total Gas",
                "value": 113395
            }
        ],
        "isConfirmed": true,
        "mainTrace": [
            {
                "children": [
                    {
                        "children": [
                            {
                                "children": [
                                    {
                                        "children": [],
                                        "depth": 2,
                                        "id": 2,
                                        "order": 2
                                    },
                                    {
                                        "children": [
                                            {
                                                "children": [
                                                    {
                                                        "children": [],
                                                        "depth": 4,
                                                        "id": 5,
                                                        "order": 5
                                                    }
                                                ],
                                                "depth": 3,
                                                "id": 4,
                                                "order": 4
                                            }
                                        ],
                                        "depth": 2,
                                        "id": 3,
                                        "order": 3
                                    },
                                    {
                                        "children": [],
                                        "depth": 2,
                                        "id": 6,
                                        "order": 6
                                    },
                                    {
                                        "children": [],
                                        "depth": 2,
                                        "id": 7,
                                        "order": 7
                                    }
                                ],
                                "depth": 1,
                                "id": 1,
                                "order": 1
                            }
                        ],
                        "depth": 0,
                        "id": 0,
                        "order": 0
                    }
                ],
                "depth": -1,
                "id": -1,
                "order": -1
            }
        ],
        "mainTraceNodeCount": 8,
        "parentIdMap": {
            "0": -1,
            "1": 0,
            "2": 1,
            "3": 1,
            "4": 3,
            "5": 4,
            "6": 1,
            "7": 1
        },
        "tidyTrace": [
            {
                "children": [
                    {
                        "children": [
                            {
                                "children": [
                                    {
                                        "children": [],
                                        "depth": 2,
                                        "id": 2,
                                        "order": 2
                                    },
                                    {
                                        "children": [
                                            {
                                                "children": [
                                                    {
                                                        "children": [],
                                                        "depth": 4,
                                                        "id": 5,
                                                        "order": 5
                                                    }
                                                ],
                                                "depth": 3,
                                                "id": 4,
                                                "order": 4
                                            }
                                        ],
                                        "depth": 2,
                                        "id": 3,
                                        "order": 3
                                    },
                                    {
                                        "children": [],
                                        "depth": 2,
                                        "id": 6,
                                        "order": 6
                                    },
                                    {
                                        "children": [],
                                        "depth": 2,
                                        "id": 7,
                                        "order": 7
                                    }
                                ],
                                "depth": 1,
                                "id": 1,
                                "order": 1
                            }
                        ],
                        "depth": 0,
                        "id": 0,
                        "order": 0
                    }
                ],
                "depth": -1,
                "id": -1,
                "order": -1
            }
        ],
        "tidyTraceNodeCount": 8
    },
    "state_change": {
        "stateChanges": [
            {
                "address": "0xd4307e0acd12cf46fd6cf93bc264f5d5d1598792",
                "erc": "ERC-721",
                "slots": [
                    {
                        "current": "0x0000000000000000000000000000000000000000000000010000000000000001",
                        "key": "0x94e457fa98cdc1c0b161fc052278623bcca13ab8196aa67e8ffc7a8c9646b685",
                        "prev": "0x0000000000000000000000000000000000000000000000000000000000000000"
                    },
                    {
                        "current": "0x000000000000000063f7857bc3278ddb4596adad83d93410563151553460fa5e",
                        "key": "0xfab7935b6cb175f24606825ed262c137e97367b898c3fb501a1cfaaee7d2f976",
                        "prev": "0x0000000000000000000000000000000000000000000000000000000000000000"
                    },
                    {
                        "current": "0x00000000000000000000000000000000000000000000000000000000000033bd",
                        "key": "0x0000000000000000000000000000000000000000000000000000000000000065",
                        "prev": "0x00000000000000000000000000000000000000000000000000000000000033bc"
                    }
                ],
                "storageVariables": [
                    {
                        "name": "_addressData",
                        "type": "mapping(address => struct IERC721AUpgradeable.AddressData)",
                        "value": {
                            "pairs": [
                                {
                                    "key": "0xc3278ddb4596adad83d93410563151553460fa5e",
                                    "value": {
                                        "fields": [
                                            {
                                                "name": "balance",
                                                "type": "uint64",
                                                "value": {
                                                    "current": "1",
                                                    "prev": "0",
                                                    "typeTag": 1
                                                }
                                            },
                                            {
                                                "name": "numberMinted",
                                                "type": "uint64",
                                                "value": {
                                                    "current": "1",
                                                    "prev": "0",
                                                    "typeTag": 1
                                                }
                                            },
                                            {
                                                "name": "numberBurned",
                                                "type": "uint64",
                                                "value": {
                                                    "current": "0",
                                                    "prev": "0",
                                                    "typeTag": 1
                                                }
                                            },
                                            {
                                                "name": "aux",
                                                "type": "uint64",
                                                "value": {
                                                    "current": "0",
                                                    "prev": "0",
                                                    "typeTag": 1
                                                }
                                            }
                                        ],
                                        "typeTag": 3
                                    }
                                }
                            ],
                            "typeTag": 4
                        }
                    },
                    {
                        "name": "_ownerships",
                        "type": "mapping(uint256 => struct IERC721AUpgradeable.TokenOwnership)",
                        "value": {
                            "pairs": [
                                {
                                    "key": "13244",
                                    "value": {
                                        "fields": [
                                            {
                                                "name": "addr",
                                                "type": "address",
                                                "value": {
                                                    "current": "0xc3278ddb4596adad83d93410563151553460fa5e",
                                                    "prev": "0x0000000000000000000000000000000000000000",
                                                    "typeTag": 1
                                                }
                                            },
                                            {
                                                "name": "startTimestamp",
                                                "type": "uint64",
                                                "value": {
                                                    "current": "1677165947",
                                                    "prev": "0",
                                                    "typeTag": 1
                                                }
                                            },
                                            {
                                                "name": "burned",
                                                "type": "bool",
                                                "value": {
                                                    "current": "false",
                                                    "prev": "false",
                                                    "typeTag": 1
                                                }
                                            }
                                        ],
                                        "typeTag": 3
                                    }
                                }
                            ],
                            "typeTag": 4
                        }
                    },
                    {
                        "name": "_currentIndex",
                        "type": "uint256",
                        "value": {
                            "current": "13245",
                            "prev": "13244",
                            "typeTag": 1
                        }
                    }
                ]
            }
        ]
    }
}