{
    "balance_change": {
        "balanceChanges": [
            {
                "account": "0x58edf78281334335effa23101bbe3371b6a36a51",
                "assets": [
                    {
                        "address": "0xfaba6f8e4a5e8ab82f62fe7c39859fa577269be3",
                        "amount": "1,101.0126",
                        "iconUrl": "",
                        "isERC1155": false,
                        "isERC721": false,
                        "sign": false,
                        "value": "958.5415695600000445"
                    }
                ]
            },
            {
                "account": "0x61a6ebbd383685d609e624bcd19e851713853aac",
                "assets": [
                    {
                        "address": "0xfaba6f8e4a5e8ab82f62fe7c39859fa577269be3",
                        "amount": "1,101.0126",
                        "iconUrl": "",
                        "isERC1155": false,
                        "isERC721": false,
                        "sign": true,
                        "value": "958.5415695600000445"
                    }
                ]
            }
        ]
    },
    "profile": {
        "basic_info": {
            "baseFee": "21.404023304",
            "blockNumber": 19523964,
            "callData": "0xa9059cbb00000000000000000000000061a6ebbd383685d609e624bcd19e851713853aac00000000000000000000000000000000000000000000003baf9e8649053f8000",
            "debugEnable": true,
            "errorInfo": "",
            "eventCount": 1,
            "feeRecipient": "0x1f9090aae28b8a3dceadf281b0f12828e676c326",
            "formatValue": "0",
            "gasLimit": 100000,
            "gasPrice": "24.84895911",
            "gasUsed": 61553,
            "intTxnCount": 0,
            "internalRevert": false,
            "internalRevertMessage": "",
            "isContractCreation": false,
            "isFlashloan": false,
            "maxFee": "48",
            "nonce": 282128,
            "overwritedBlockNumber": -1,
            "priorityFee": "3.444935806",
            "receiver": "0xfaba6f8e4a5e8ab82f62fe7c39859fa577269be3",
            "revertMessage": "",
            "sender": "0x58edf78281334335effa23101bbe3371b6a36a51",
            "simulationEnable": true,
            "sourceTxnHash": "0x75d4d485aaf1b2ce92535dcaa170b9cf7904795ea170d51ff15f1a7abfd50927",
            "status": true,
            "timestamp": "2024-03-27T06:41:35Z",
            "transactionFee": "0.00152952798009783",
            "txnHash": "0x75d4d485aaf1b2ce92535dcaa170b9cf7904795ea170d51ff15f1a7abfd50927",
            "txnIndex": 147,
            "type": 2,
            "value": "0"
        },
        "fund_flow": [
            {
                "amount": "1,101.0126",
                "from": "0x58edf78281334335effa23101bbe3371b6a36a51",
                "id": 1,
                "isERC1155": false,
                "isERC721": false,
                "isReverted": false,
                "order": 1,
                "to": "0x61a6ebbd383685d609e624bcd19e851713853aac",
                "token": "0xfaba6f8e4a5e8ab82f62fe7c39859fa577269be3"
            }
        ],
        "token_infos": [
            {
                "address": "0xc02aaa39b223fe8d0a0e5c4f27ead9083c756cc2",
                "decimals": 18
            },
            {
                "address": "0xfaba6f8e4a5e8ab82f62fe7c39859fa577269be3",
                "decimals": 18
            },
            {
                "address": "0xeeeeeeeeeeeeeeeeeeeeeeeeeeeeeeeeeeeeeeee",
                "decimals": 18
            }
        ]
    },
    "address_label": {
        "labels": [
            {
                "address": "0x0000000000000000000000000000000000000002",
                "label": "Precompiled"
            },
            {
                "address": "0x0000000000000000000000000000000000000003",
                "label": "Precompiled"
            },
            {
                "address": "0x0000000000000000000000000000000000000004",
                "label": "Precompiled"
            },
            {
                "address": "0xeeeeeeeeeeeeeeeeeeeeeeeeeeeeeeeeeeeeeeee",
                "label": "Ether"
            },
            {
                "address": "0x58edf78281334335effa23101bbe3371b6a36a51",
                "label": "KuCoin 20"
            },
            {
                "address": "0xfaba6f8e4a5e8ab82f62fe7c39859fa577269be3",
                "label": "Ondo Finance: ONDO Token"
            },
            {
                "address": "0x0000000000000000000000000000000000000001",
                "label": "Precompiled"
            }
        ]
    },
    "trace": {
        "accountLabels": null,
        "dataMap": {
            "-1": {
                "invocation": {
                    "address": "0x58edf78281334335effa23101bbe3371b6a36a51",
                    "callData": "",
                    "decodedMethod": null,
                    "errorInfo": "",
                    "fromAddress": "",
                    "gasUsed": 0,
                    "id": -1,
                    "methodDecoded": false,
                    "operation": "",
                    "output": "",
                    "revert": false,
                    "revertMessage": "",
                    "selector": "",
                    "status": false,
                    "value": ""
                },
                "nodeType": 0
            },
            "0": {
                "invocation": {
                    "address": "0xfaba6f8e4a5e8ab82f62fe7c39859fa577269be3",
                    "callData": "0x00000000000000000000000061a6ebbd383685d609e624bcd19e851713853aac00000000000000000000000000000000000000000000003baf9e8649053f8000",
                    "decodedMethod": {
                        "callParams": [
                            {
                                "name": "dst",
                                "type": "address",
                                "value": "0x61a6ebbd383685d609e624bcd19e851713853aac"
                            },
                            {
                                "decimalAvailable": true,
                                "name": "rawAmount",
                                "type": "uint256",
                                "value": "1,101,012,600,000,000,000,000"
                            }
                        ],
                        "constructorArguments": "",
                        "name": "transfer",
                        "returnParams": [
                            {
                                "name": "",
                                "type": "bool",
                                "value": true
                            }
                        ],
                        "signature": "transfer(address,uint256)"
                    },
                    "errorInfo": "",
                    "fromAddress": "0x58edf78281334335effa23101bbe3371b6a36a51",
                    "gasUsed": 61553,
                    "id": 0,
                    "methodDecoded": true,
                    "operation": "CALL",
                    "output": "0x0000000000000000000000000000000000000000000000000000000000000001",
                    "revert": false,
                    "revertMessage": "",
                    "selector": "0xa9059cbb",
                    "status": true,
                    "value": "0"
                },
                "nodeType": 0
            },
            "1": {
                "event": {
                    "contract": "0xfaba6f8e4a5e8ab82f62fe7c39859fa577269be3",
                    "decodedLog": {
                        "name": "Transfer",
                        "params": [
                            {
                                "name": "from",
                                "type": "address",
                                "value": "0x58edf78281334335effa23101bbe3371b6a36a51"
                            },
                            {
                                "name": "to",
                                "type": "address",
                                "value": "0x61a6ebbd383685d609e624bcd19e851713853aac"
                            },
                            {
                                "decimalAvailable": true,
                                "name": "amount",
                                "type": "uint256",
                                "value": "1,101,012,600,000,000,000,000"
                            }
                        ],
                        "signature": "Transfer(address,address,uint256)"
                    },
                    "id": 1,
                    "logData": "0x00000000000000000000000000000000000000000000003baf9e8649053f8000",
                    "logDecoded": true,
                    "operation": "EVENT",
                    "revert": false,
                    "status": true,
                    "topics": [
                        "0xddf252ad1be2c89b69c2b068fc378daa952ba7f163c4a11628f55a4df523b3ef",
                        "0x00000000000000000000000058edf78281334335effa23101bbe3371b6a36a51",
                        "0x00000000000000000000000061a6ebbd383685d609e624bcd19e851713853aac"
                    ]
                },
                "nodeType": 1
            }
        },
        "gasFlame": [
            {
                "children": [
                    {
                        "children": [
                            {
                                "children": [],
                                "depth": 0,
                                "name": "Initial Gas",
                                "value": 21656
                            },
                            {
                                "children": [],
                                "depth": 0,
                                "name": "Executed Gas",
                                "value": 39897
                            }
                        ],
                        "depth": -1,
                        "name": "Actual Gas Used",
                        "value": 61553
                    },
                    {
                        "children": [],
                        "depth": -1,
                        "name": "Refunded Gas",
                        "value": 0
                    }
                ],
                "depth": -2,
                "name": "Total Gas",
                "value": 61553
            }
        ],
        "isConfirmed": true,
        "mainTrace": [
            {
                "children": [
                    {
                        "children": [
                            {
                                "children": [],
                                "depth": 1,
                                "id": 1,
                                "order": 1
                            }
                        ],
                        "depth": 0,
                        "id": 0,
                        "order": 0
                    }
                ],
                "depth": -1,
                "id": -1,
                "order": -1
            }
        ],
        "mainTraceNodeCount": 2,
        "parentIdMap": {
            "0": -1,
            "1": 0
        },
        "tidyTrace": [
            {
                "children": [
                    {
                        "children": [
                            {
                                "children": [],
                                "depth": 1,
                                "id": 1,
                                "order": 1
                            }
                        ],
                        "depth": 0,
                        "id": 0,
                        "order": 0
                    }
                ],
                "depth": -1,
                "id": -1,
                "order": -1
            }
        ],
        "tidyTraceNodeCount": 2
    },
    "state_change": {
        "stateChanges": [
            {
                "address": "0xfaba6f8e4a5e8ab82f62fe7c39859fa577269be3",
                "erc": "ERC-20",
                "slots": [
                    {
                        "current": "0x00000000000000000000000000000000000000000000003baf9e8649053f8000",
                        "key": "0xc54b445a90e967db564de616dd6c712ddfb6417d033fd3773679b1ad29deeda9",
                        "prev": "0x0000000000000000000000000000000000000000000000000000000000000000"
                    },
                    {
                        "current": "0x00000000000000000000000000000000000000000000010a2e0e61449589b5a0",
                        "key": "0xfeca26e811b00aff1aff87702d490816e787e1ea4b9000d5698a4174487150ea",
                        "prev": "0x000000000000000000000000000000000000000000000145ddace78d9ac935a0"
                    }
                ],
                "storageVariables": [
                    {
                        "name": "balances",
                        "type": "mapping(address => uint96)",
                        "value": {
                            "pairs": [
                                {
                                    "key": "0x58edf78281334335effa23101bbe3371b6a36a51",
                                    "value": {
                                        "current": "4910152620529353864608",
                                        "prev": "6011165220529353864608",
                                        "typeTag": 1
                                    }
                                },
                                {
                                    "key": "0x61a6ebbd383685d609e624bcd19e851713853aac",
                                    "value": {
                                        "current": "1101012600000000000000",
                                        "prev": "0",
                                        "typeTag": 1
                                    }
                                }
                            ],
                            "typeTag": 4
                        }
                    }
                ]
            }
        ]
    }
}