{
    "balance_change": {
        "balanceChanges": []
    },
    "profile": {
        "basic_info": {
            "baseFee": "30.444614572",
            "blockNumber": 15713758,
            "callData": "0x9ff054df0000000000000000000000000000000000000000000000000000000000000001",
            "debugEnable": true,
            "errorInfo": "",
            "eventCount": 1,
            "feeRecipient": "0x4675c7e5baafbffbca748158becba61ef3b0a263",
            "formatValue": "0",
            "gasLimit": 215935,
            "gasPrice": "31",
            "gasUsed": 179946,
            "intTxnCount": 2,
            "internalRevert": false,
            "internalRevertMessage": "",
            "isContractCreation": false,
            "isFlashloan": false,
            "maxFee": "31",
            "nonce": 0,
            "overwritedBlockNumber": -1,
            "priorityFee": "1.8",
            "receiver": "0x06450dee7fd2fb8e39061434babcfc05599a6fb8",
            "revertMessage": "",
            "sender": "0xa993d213d789177b05579e287678cd21a3de6f12",
            "simulationEnable": true,
            "sourceTxnHash": "0x759560c85b85b0b0cb639eec720f10eb93f029b040ac2391beb6b4c45a13b2df",
            "status": true,
            "timestamp": "2022-10-09T23:15:59Z",
            "transactionFee": "0.005578326",
            "txnHash": "0x759560c85b85b0b0cb639eec720f10eb93f029b040ac2391beb6b4c45a13b2df",
            "txnIndex": 226,
            "type": 2,
            "value": "0"
        },
        "fund_flow": [],
        "token_infos": [
            {
                "address": "0xc02aaa39b223fe8d0a0e5c4f27ead9083c756cc2",
                "decimals": 18
            },
            {
                "address": "0xeeeeeeeeeeeeeeeeeeeeeeeeeeeeeeeeeeeeeeee",
                "decimals": 18
            }
        ]
    },
    "address_label": {
        "labels": [
            {
                "address": "0x0000000000000000000000000000000000000004",
                "label": "Precompiled"
            },
            {
                "address": "0xeeeeeeeeeeeeeeeeeeeeeeeeeeeeeeeeeeeeeeee",
                "label": "Ether"
            },
            {
                "address": "0x06450dee7fd2fb8e39061434babcfc05599a6fb8",
                "label": "XEN Crypto: XEN Token"
            },
            {
                "address": "0x4bba9b6b49f3dfa6615f079e9d66b0aa68b04a4d",
                "label": "Math"
            },
            {
                "address": "0x0000000000000000000000000000000000000001",
                "label": "Precompiled"
            },
            {
                "address": "0x0000000000000000000000000000000000000002",
                "label": "Precompiled"
            },
            {
                "address": "0x0000000000000000000000000000000000000003",
                "label": "Precompiled"
            }
        ]
    },
    "trace": {
        "accountLabels": null,
        "dataMap": {
            "-1": {
                "invocation": {
                    "address": "0xa993d213d789177b05579e287678cd21a3de6f12",
                    "callData": "",
                    "decodedMethod": null,
                    "errorInfo": "",
                    "fromAddress": "",
                    "gasUsed": 0,
                    "id": -1,
                    "methodDecoded": false,
                    "operation": "",
                    "output": "",
                    "revert": false,
                    "revertMessage": "",
                    "selector": "",
                    "status": false,
                    "value": ""
                },
                "nodeType": 0
            },
            "0": {
                "invocation": {
                    "address": "0x06450dee7fd2fb8e39061434babcfc05599a6fb8",
                    "callData": "0x0000000000000000000000000000000000000000000000000000000000000001",
                    "decodedMethod": {
                        "callParams": [
                            {
                                "name": "term",
                                "type": "uint256",
                                "value": "1"
                            }
                        ],
                        "constructorArguments": "",
                        "name": "claimRank",
                        "returnParams": [],
                        "signature": "claimRank(uint256)"
                    },
                    "errorInfo": "",
                    "fromAddress": "0xa993d213d789177b05579e287678cd21a3de6f12",
                    "gasUsed": 179946,
                    "id": 0,
                    "methodDecoded": true,
                    "operation": "CALL",
                    "output": "",
                    "revert": false,
                    "revertMessage": "",
                    "selector": "0x9ff054df",
                    "status": true,
                    "value": "0"
                },
                "nodeType": 0
            },
            "1": {
                "invocation": {
                    "address": "0x4bba9b6b49f3dfa6615f079e9d66b0aa68b04a4d",
                    "callData": "0x0000000000000000000000000000000000000000000000000000000001ed11000000000000000000000000000000000000000000000000000000000005265c00",
                    "decodedMethod": {
                        "callParams": [
                            {
                                "name": "a",
                                "type": "uint256",
                                "value": "32,313,600"
                            },
                            {
                                "name": "b",
                                "type": "uint256",
                                "value": "86,400,000"
                            }
                        ],
                        "constructorArguments": "",
                        "name": "min",
                        "returnParams": [
                            {
                                "name": "",
                                "type": "uint256",
                                "value": "32,313,600"
                            }
                        ],
                        "signature": "min(uint256,uint256)"
                    },
                    "errorInfo": "",
                    "fromAddress": "0x06450dee7fd2fb8e39061434babcfc05599a6fb8",
                    "gasUsed": 349,
                    "id": 1,
                    "methodDecoded": true,
                    "operation": "DELEGATECALL",
                    "output": "0x0000000000000000000000000000000000000000000000000000000001ed1100",
                    "revert": false,
                    "revertMessage": "",
                    "selector": "0x7ae2b5c7",
                    "status": true,
                    "value": "0"
                },
                "nodeType": 0
            },
            "2": {
                "invocation": {
                    "address": "0x4bba9b6b49f3dfa6615f079e9d66b0aa68b04a4d",
                    "callData": "0x0000000000000000000000000000000000000000000000000000000000000bb70000000000000000000000000000000000000000000000000000000000000001",
                    "decodedMethod": {
                        "callParams": [
                            {
                                "name": "a",
                                "type": "uint256",
                                "value": "2,999"
                            },
                            {
                                "name": "b",
                                "type": "uint256",
                                "value": "1"
                            }
                        ],
                        "constructorArguments": "",
                        "name": "max",
                        "returnParams": [
                            {
                                "name": "",
                                "type": "uint256",
                                "value": "2,999"
                            }
                        ],
                        "signature": "max(uint256,uint256)"
                    },
                    "errorInfo": "",
                    "fromAddress": "0x06450dee7fd2fb8e39061434babcfc05599a6fb8",
                    "gasUsed": 340,
                    "id": 2,
                    "methodDecoded": true,
                    "operation": "DELEGATECALL",
                    "output": "0x0000000000000000000000000000000000000000000000000000000000000bb7",
                    "revert": false,
                    "revertMessage": "",
                    "selector": "0x6d5433e6",
                    "status": true,
                    "value": "0"
                },
                "nodeType": 0
            },
            "3": {
                "event": {
                    "contract": "0x06450dee7fd2fb8e39061434babcfc05599a6fb8",
                    "decodedLog": {
                        "name": "RankClaimed",
                        "params": [
                            {
                                "name": "user",
                                "type": "address",
                                "value": "0xa993d213d789177b05579e287678cd21a3de6f12"
                            },
                            {
                                "name": "term",
                                "type": "uint256",
                                "value": "1"
                            },
                            {
                                "name": "rank",
                                "type": "uint256",
                                "value": "325,653"
                            }
                        ],
                        "signature": "RankClaimed(address,uint256,uint256)"
                    },
                    "id": 3,
                    "logData": "0x0000000000000000000000000000000000000000000000000000000000000001000000000000000000000000000000000000000000000000000000000004f815",
                    "logDecoded": true,
                    "operation": "EVENT",
                    "revert": false,
                    "status": true,
                    "topics": [
                        "0xe9149e1b5059238baed02fa659dbf4bd932fbcf760a431330df4d934bc942f37",
                        "0x000000000000000000000000a993d213d789177b05579e287678cd21a3de6f12"
                    ]
                },
                "nodeType": 1
            }
        },
        "gasFlame": [
            {
                "children": [
                    {
                        "children": [
                            {
                                "children": [],
                                "depth": 0,
                                "name": "Initial Gas",
                                "value": 21204
                            },
                            {
                                "children": [
                                    {
                                        "children": [],
                                        "depth": 1,
                                        "name": "min",
                                        "value": 349
                                    },
                                    {
                                        "children": [],
                                        "depth": 1,
                                        "name": "max",
                                        "value": 340
                                    }
                                ],
                                "depth": 0,
                                "name": "Executed Gas",
                                "value": 158742
                            }
                        ],
                        "depth": -1,
                        "name": "Actual Gas Used",
                        "value": 179946
                    },
                    {
                        "children": [],
                        "depth": -1,
                        "name": "Refunded Gas",
                        "value": 0
                    }
                ],
                "depth": -2,
                "name": "Total Gas",
                "value": 179946
            }
        ],
        "isConfirmed": true,
        "mainTrace": [
            {
                "children": [
                    {
                        "children": [
                            {
                                "children": [],
                                "depth": 1,
                                "id": 1,
                                "order": 1
                            },
                            {
                                "children": [],
                                "depth": 1,
                                "id": 2,
                                "order": 2
                            },
                            {
                                "children": [],
                                "depth": 1,
                                "id": 3,
                                "order": 3
                            }
                        ],
                        "depth": 0,
                        "id": 0,
                        "order": 0
                    }
                ],
                "depth": -1,
                "id": -1,
                "order": -1
            }
        ],
        "mainTraceNodeCount": 4,
        "parentIdMap": {
            "0": -1,
            "1": 0,
            "2": 0,
            "3": 0
        },
        "tidyTrace": [
            {
                "children": [
                    {
                        "children": [
                            {
                                "children": [],
                                "depth": 1,
                                "id": 1,
                                "order": 1
                            },
                            {
                                "children": [],
                                "depth": 1,
                                "id": 2,
                                "order": 2
                            },
                            {
                                "children": [],
                                "depth": 1,
                                "id": 3,
                                "order": 3
                            }
                        ],
                        "depth": 0,
                        "id": 0,
                        "order": 0
                    }
                ],
                "depth": -1,
                "id": -1,
                "order": -1
            }
        ],
        "tidyTraceNodeCount": 4
    },
    "state_change": {
        "stateChanges": [
            {
                "address": "0x06450dee7fd2fb8e39061434babcfc05599a6fb8",
                "erc": "ERC-20",
                "slots": [
                    {
                        "current": "0x0000000000000000000000000000000000000000000000000000000000000bb7",
                        "key": "0x18a29955bef8a601ab25498d77261290fb41192c6178182341c673510a961b97",
                        "prev": "0x0000000000000000000000000000000000000000000000000000000000000000"
                    },
                    {
                        "current": "0x0000000000000000000000000000000000000000000000000000000000000061",
                        "key": "0x18a29955bef8a601ab25498d77261290fb41192c6178182341c673510a961b98",
                        "prev": "0x0000000000000000000000000000000000000000000000000000000000000000"
                    },
                    {
                        "current": "0x000000000000000000000000000000000000000000000000000000000004f248",
                        "key": "0x0000000000000000000000000000000000000000000000000000000000000006",
                        "prev": "0x000000000000000000000000000000000000000000000000000000000004f247"
                    },
                    {
                        "current": "0x000000000000000000000000000000000000000000000000000000000004f816",
                        "key": "0x0000000000000000000000000000000000000000000000000000000000000005",
                        "prev": "0x000000000000000000000000000000000000000000000000000000000004f815"
                    },
                    {
                        "current": "0x000000000000000000000000a993d213d789177b05579e287678cd21a3de6f12",
                        "key": "0x18a29955bef8a601ab25498d77261290fb41192c6178182341c673510a961b93",
                        "prev": "0x0000000000000000000000000000000000000000000000000000000000000000"
                    },
                    {
                        "current": "0x0000000000000000000000000000000000000000000000000000000000000001",
                        "key": "0x18a29955bef8a601ab25498d77261290fb41192c6178182341c673510a961b94",
                        "prev": "0x0000000000000000000000000000000000000000000000000000000000000000"
                    },
                    {
                        "current": "0x000000000000000000000000000000000000000000000000000000006344a7af",
                        "key": "0x18a29955bef8a601ab25498d77261290fb41192c6178182341c673510a961b95",
                        "prev": "0x0000000000000000000000000000000000000000000000000000000000000000"
                    },
                    {
                        "current": "0x000000000000000000000000000000000000000000000000000000000004f815",
                        "key": "0x18a29955bef8a601ab25498d77261290fb41192c6178182341c673510a961b96",
                        "prev": "0x0000000000000000000000000000000000000000000000000000000000000000"
                    }
                ],
                "storageVariables": [
                    {
                        "name": "userMints",
                        "type": "mapping(address => struct XENCrypto.MintInfo)",
                        "value": {
                            "pairs": [
                                {
                                    "key": "0xa993d213d789177b05579e287678cd21a3de6f12",
                                    "value": {
                                        "fields": [
                                            {
                                                "name": "user",
                                                "type": "address",
                                                "value": {
                                                    "current": "0xa993d213d789177b05579e287678cd21a3de6f12",
                                                    "prev": "0x0000000000000000000000000000000000000000",
                                                    "typeTag": 1
                                                }
                                            },
                                            {
                                                "name": "term",
                                                "type": "uint256",
                                                "value": {
                                                    "current": "1",
                                                    "prev": "0",
                                                    "typeTag": 1
                                                }
                                            },
                                            {
                                                "name": "maturityTs",
                                                "type": "uint256",
                                                "value": {
                                                    "current": "1665443759",
                                                    "prev": "0",
                                                    "typeTag": 1
                                                }
                                            },
                                            {
                                                "name": "rank",
                                                "type": "uint256",
                                                "value": {
                                                    "current": "325653",
                                                    "prev": "0",
                                                    "typeTag": 1
                                                }
                                            },
                                            {
                                                "name": "amplifier",
                                                "type": "uint256",
                                                "value": {
                                                    "current": "2999",
                                                    "prev": "0",
                                                    "typeTag": 1
                                                }
                                            },
                                            {
                                                "name": "eaaRate",
                                                "type": "uint256",
                                                "value": {
                                                    "current": "97",
                                                    "prev": "0",
                                                    "typeTag": 1
                                                }
                                            }
                                        ],
                                        "typeTag": 3
                                    }
                                }
                            ],
                            "typeTag": 4
                        }
                    },
                    {
                        "name": "activeMinters",
                        "type": "uint256",
                        "value": {
                            "current": "324168",
                            "prev": "324167",
                            "typeTag": 1
                        }
                    },
                    {
                        "name": "globalRank",
                        "type": "uint256",
                        "value": {
                            "current": "325654",
                            "prev": "325653",
                            "typeTag": 1
                        }
                    }
                ]
            }
        ]
    }
}