{
    "balance_change": {
        "balanceChanges": [
            {
                "account": "0x0000000000000000000000000000000000000000",
                "assets": [
                    {
                        "address": "0x06450dee7fd2fb8e39061434babcfc05599a6fb8",
                        "amount": "874,512",
                        "iconUrl": "https://assets.blocksec.com/icon/bfebae0534bdef52bef16dcfadd09b51dc489ab1144c9f2d6568357f9adb9ecd.png",
                        "isERC1155": false,
                        "isERC721": false,
                        "sign": false,
                        "value": ""
                    }
                ]
            },
            {
                "account": "0x1318fba089731549275532137f30ad878cea9e49",
                "assets": [
                    {
                        "address": "0x06450dee7fd2fb8e39061434babcfc05599a6fb8",
                        "amount": "874,512",
                        "iconUrl": "https://assets.blocksec.com/icon/bfebae0534bdef52bef16dcfadd09b51dc489ab1144c9f2d6568357f9adb9ecd.png",
                        "isERC1155": false,
                        "isERC721": false,
                        "sign": true,
                        "value": ""
                    }
                ]
            }
        ]
    },
    "profile": {
        "basic_info": {
            "baseFee": "6.855844097",
            "blockNumber": 15857659,
            "callData": "0x1c5603050000000000000000000000001318fba089731549275532137f30ad878cea9e490000000000000000000000000000000000000000000000000000000000000064",
            "debugEnable": true,
            "errorInfo": "",
            "eventCount": 3,
            "feeRecipient": "0x0000000000000000000000000000000000000000",
            "formatValue": "0",
            "gasLimit": 101246,
            "gasPrice": "7.2",
            "gasUsed": 73634,
            "intTxnCount": 2,
            "internalRevert": false,
            "internalRevertMessage": "",
            "isContractCreation": false,
            "isFlashloan": false,
            "maxFee": "7.2",
            "nonce": 1,
            "overwritedBlockNumber": -1,
            "priorityFee": "1",
            "receiver": "0x06450dee7fd2fb8e39061434babcfc05599a6fb8",
            "revertMessage": "",
            "sender": "0x6e9f544910f20ce256a1498de49080281d40c5b5",
            "simulationEnable": true,
            "sourceTxnHash": "0x75b4cba86406f3b3e3aea1179cdd331e535862ec842f10ec19c8832cd725417b",
            "status": true,
            "timestamp": "2022-10-30T01:42:11Z",
            "transactionFee": "0.0005301648",
            "txnHash": "0x75b4cba86406f3b3e3aea1179cdd331e535862ec842f10ec19c8832cd725417b",
            "txnIndex": 237,
            "type": 2,
            "value": "0"
        },
        "fund_flow": [
            {
                "amount": "0",
                "from": "0x0000000000000000000000000000000000000000",
                "id": 1,
                "isERC1155": false,
                "isERC721": false,
                "isReverted": false,
                "order": 1,
                "to": "0x6e9f544910f20ce256a1498de49080281d40c5b5",
                "token": "0x06450dee7fd2fb8e39061434babcfc05599a6fb8"
            },
            {
                "amount": "874,512",
                "from": "0x0000000000000000000000000000000000000000",
                "id": 2,
                "isERC1155": false,
                "isERC721": false,
                "isReverted": false,
                "order": 2,
                "to": "0x1318fba089731549275532137f30ad878cea9e49",
                "token": "0x06450dee7fd2fb8e39061434babcfc05599a6fb8"
            }
        ],
        "token_infos": [
            {
                "address": "0x06450dee7fd2fb8e39061434babcfc05599a6fb8",
                "decimals": 18
            },
            {
                "address": "0xc02aaa39b223fe8d0a0e5c4f27ead9083c756cc2",
                "decimals": 18
            },
            {
                "address": "0xeeeeeeeeeeeeeeeeeeeeeeeeeeeeeeeeeeeeeeee",
                "decimals": 18
            }
        ]
    },
    "address_label": {
        "labels": [
            {
                "address": "0x0000000000000000000000000000000000000001",
                "label": "Precompiled"
            },
            {
                "address": "0x0000000000000000000000000000000000000002",
                "label": "Precompiled"
            },
            {
                "address": "0x0000000000000000000000000000000000000003",
                "label": "Precompiled"
            },
            {
                "address": "0x0000000000000000000000000000000000000004",
                "label": "Precompiled"
            },
            {
                "address": "0xeeeeeeeeeeeeeeeeeeeeeeeeeeeeeeeeeeeeeeee",
                "label": "Ether"
            },
            {
                "address": "0x06450dee7fd2fb8e39061434babcfc05599a6fb8",
                "label": "XEN Crypto: XEN Token"
            },
            {
                "address": "0x4bba9b6b49f3dfa6615f079e9d66b0aa68b04a4d",
                "label": "Math"
            }
        ]
    },
    "trace": {
        "accountLabels": null,
        "dataMap": {
            "-1": {
                "invocation": {
                    "address": "0x6e9f544910f20ce256a1498de49080281d40c5b5",
                    "callData": "",
                    "decodedMethod": null,
                    "errorInfo": "",
                    "fromAddress": "",
                    "gasUsed": 0,
                    "id": -1,
                    "methodDecoded": false,
                    "operation": "",
                    "output": "",
                    "revert": false,
                    "revertMessage": "",
                    "selector": "",
                    "status": false,
                    "value": ""
                },
                "nodeType": 0
            },
            "0": {
                "invocation": {
                    "address": "0x06450dee7fd2fb8e39061434babcfc05599a6fb8",
                    "callData": "0x0000000000000000000000001318fba089731549275532137f30ad878cea9e490000000000000000000000000000000000000000000000000000000000000064",
                    "decodedMethod": {
                        "callParams": [
                            {
                                "name": "other",
                                "type": "address",
                                "value": "0x1318fba089731549275532137f30ad878cea9e49"
                            },
                            {
                                "name": "pct",
                                "type": "uint256",
                                "value": "100"
                            }
                        ],
                        "constructorArguments": "",
                        "name": "claimMintRewardAndShare",
                        "returnParams": [],
                        "signature": "claimMintRewardAndShare(address,uint256)"
                    },
                    "errorInfo": "",
                    "fromAddress": "0x6e9f544910f20ce256a1498de49080281d40c5b5",
                    "gasUsed": 73634,
                    "id": 0,
                    "methodDecoded": true,
                    "operation": "CALL",
                    "output": "",
                    "revert": false,
                    "revertMessage": "",
                    "selector": "0x1c560305",
                    "status": true,
                    "value": "0"
                },
                "nodeType": 0
            },
            "1": {
                "invocation": {
                    "address": "0x4bba9b6b49f3dfa6615f079e9d66b0aa68b04a4d",
                    "callData": "0x00000000000000000000000000000000000000000000000000000000000000000000000000000000000000000000000000000000000000000000000000000063",
                    "decodedMethod": {
                        "callParams": [
                            {
                                "name": "a",
                                "type": "uint256",
                                "value": "0"
                            },
                            {
                                "name": "b",
                                "type": "uint256",
                                "value": "99"
                            }
                        ],
                        "constructorArguments": "",
                        "name": "min",
                        "returnParams": [
                            {
                                "name": "",
                                "type": "uint256",
                                "value": "0"
                            }
                        ],
                        "signature": "min(uint256,uint256)"
                    },
                    "errorInfo": "",
                    "fromAddress": "0x06450dee7fd2fb8e39061434babcfc05599a6fb8",
                    "gasUsed": 349,
                    "id": 1,
                    "methodDecoded": true,
                    "operation": "DELEGATECALL",
                    "output": "0x0000000000000000000000000000000000000000000000000000000000000000",
                    "revert": false,
                    "revertMessage": "",
                    "selector": "0x7ae2b5c7",
                    "status": true,
                    "value": "0"
                },
                "nodeType": 0
            },
            "2": {
                "invocation": {
                    "address": "0x4bba9b6b49f3dfa6615f079e9d66b0aa68b04a4d",
                    "callData": "0x000000000000000000000000000000000000000000000000000000000008dbf30000000000000000000000000000000000000000000000000000000000000002",
                    "decodedMethod": {
                        "callParams": [
                            {
                                "name": "a",
                                "type": "uint256",
                                "value": "580,595"
                            },
                            {
                                "name": "b",
                                "type": "uint256",
                                "value": "2"
                            }
                        ],
                        "constructorArguments": "",
                        "name": "max",
                        "returnParams": [
                            {
                                "name": "",
                                "type": "uint256",
                                "value": "580,595"
                            }
                        ],
                        "signature": "max(uint256,uint256)"
                    },
                    "errorInfo": "",
                    "fromAddress": "0x06450dee7fd2fb8e39061434babcfc05599a6fb8",
                    "gasUsed": 340,
                    "id": 2,
                    "methodDecoded": true,
                    "operation": "DELEGATECALL",
                    "output": "0x000000000000000000000000000000000000000000000000000000000008dbf3",
                    "revert": false,
                    "revertMessage": "",
                    "selector": "0x6d5433e6",
                    "status": true,
                    "value": "0"
                },
                "nodeType": 0
            },
            "3": {
                "event": {
                    "contract": "0x06450dee7fd2fb8e39061434babcfc05599a6fb8",
                    "decodedLog": {
                        "name": "Transfer",
                        "params": [
                            {
                                "name": "from",
                                "type": "address",
                                "value": "0x0000000000000000000000000000000000000000"
                            },
                            {
                                "name": "to",
                                "type": "address",
                                "value": "0x6e9f544910f20ce256a1498de49080281d40c5b5"
                            },
                            {
                                "decimalAvailable": true,
                                "name": "value",
                                "type": "uint256",
                                "value": "0"
                            }
                        ],
                        "signature": "Transfer(address,address,uint256)"
                    },
                    "id": 3,
                    "logData": "0x0000000000000000000000000000000000000000000000000000000000000000",
                    "logDecoded": true,
                    "operation": "EVENT",
                    "revert": false,
                    "status": true,
                    "topics": [
                        "0xddf252ad1be2c89b69c2b068fc378daa952ba7f163c4a11628f55a4df523b3ef",
                        "0x0000000000000000000000000000000000000000000000000000000000000000",
                        "0x0000000000000000000000006e9f544910f20ce256a1498de49080281d40c5b5"
                    ]
                },
                "nodeType": 1
            },
            "4": {
                "event": {
                    "contract": "0x06450dee7fd2fb8e39061434babcfc05599a6fb8",
                    "decodedLog": {
                        "name": "Transfer",
                        "params": [
                            {
                                "name": "from",
                                "type": "address",
                                "value": "0x0000000000000000000000000000000000000000"
                            },
                            {
                                "name": "to",
                                "type": "address",
                                "value": "0x1318fba089731549275532137f30ad878cea9e49"
                            },
                            {
                                "decimalAvailable": true,
                                "name": "value",
                                "type": "uint256",
                                "value": "874,512,000,000,000,000,000,000"
                            }
                        ],
                        "signature": "Transfer(address,address,uint256)"
                    },
                    "id": 4,
                    "logData": "0x00000000000000000000000000000000000000000000b92f63f8acd8d6400000",
                    "logDecoded": true,
                    "operation": "EVENT",
                    "revert": false,
                    "status": true,
                    "topics": [
                        "0xddf252ad1be2c89b69c2b068fc378daa952ba7f163c4a11628f55a4df523b3ef",
                        "0x0000000000000000000000000000000000000000000000000000000000000000",
                        "0x0000000000000000000000001318fba089731549275532137f30ad878cea9e49"
                    ]
                },
                "nodeType": 1
            },
            "5": {
                "event": {
                    "contract": "0x06450dee7fd2fb8e39061434babcfc05599a6fb8",
                    "decodedLog": {
                        "name": "MintClaimed",
                        "params": [
                            {
                                "name": "user",
                                "type": "address",
                                "value": "0x6e9f544910f20ce256a1498de49080281d40c5b5"
                            },
                            {
                                "name": "rewardAmount",
                                "type": "uint256",
                                "value": "874,512,000,000,000,000,000,000"
                            }
                        ],
                        "signature": "MintClaimed(address,uint256)"
                    },
                    "id": 5,
                    "logData": "0x00000000000000000000000000000000000000000000b92f63f8acd8d6400000",
                    "logDecoded": true,
                    "operation": "EVENT",
                    "revert": false,
                    "status": true,
                    "topics": [
                        "0xd74752b13281df13701575f3a507e9b1242e0b5fb040143211c481c1fce573a6",
                        "0x0000000000000000000000006e9f544910f20ce256a1498de49080281d40c5b5"
                    ]
                },
                "nodeType": 1
            }
        },
        "gasFlame": [
            {
                "children": [
                    {
                        "children": [
                            {
                                "children": [],
                                "depth": 0,
                                "name": "Initial Gas",
                                "value": 21572
                            },
                            {
                                "children": [
                                    {
                                        "children": [],
                                        "depth": 1,
                                        "name": "min",
                                        "value": 349
                                    },
                                    {
                                        "children": [],
                                        "depth": 1,
                                        "name": "max",
                                        "value": 340
                                    }
                                ],
                                "depth": 0,
                                "name": "Executed Gas",
                                "value": 70470
                            }
                        ],
                        "depth": -1,
                        "name": "Actual Gas Used",
                        "value": 73634
                    },
                    {
                        "children": [],
                        "depth": -1,
                        "name": "Refunded Gas",
                        "value": 18408
                    }
                ],
                "depth": -2,
                "name": "Total Gas",
                "value": 92042
            }
        ],
        "isConfirmed": true,
        "mainTrace": [
            {
                "children": [
                    {
                        "children": [
                            {
                                "children": [],
                                "depth": 1,
                                "id": 1,
                                "order": 1
                            },
                            {
                                "children": [],
                                "depth": 1,
                                "id": 2,
                                "order": 2
                            },
                            {
                                "children": [],
                                "depth": 1,
                                "id": 3,
                                "order": 3
                            },
                            {
                                "children": [],
                                "depth": 1,
                                "id": 4,
                                "order": 4
                            },
                            {
                                "children": [],
                                "depth": 1,
                                "id": 5,
                                "order": 5
                            }
                        ],
                        "depth": 0,
                        "id": 0,
                        "order": 0
                    }
                ],
                "depth": -1,
                "id": -1,
                "order": -1
            }
        ],
        "mainTraceNodeCount": 6,
        "parentIdMap": {
            "0": -1,
            "1": 0,
            "2": 0,
            "3": 0,
            "4": 0,
            "5": 0
        },
        "tidyTrace": [
            {
                "children": [
                    {
                        "children": [
                            {
                                "children": [],
                                "depth": 1,
                                "id": 1,
                                "order": 1
                            },
                            {
                                "children": [],
                                "depth": 1,
                                "id": 2,
                                "order": 2
                            },
                            {
                                "children": [],
                                "depth": 1,
                                "id": 3,
                                "order": 3
                            },
                            {
                                "children": [],
                                "depth": 1,
                                "id": 4,
                                "order": 4
                            },
                            {
                                "children": [],
                                "depth": 1,
                                "id": 5,
                                "order": 5
                            }
                        ],
                        "depth": 0,
                        "id": 0,
                        "order": 0
                    }
                ],
                "depth": -1,
                "id": -1,
                "order": -1
            }
        ],
        "tidyTraceNodeCount": 6
    },
    "state_change": {
        "stateChanges": [
            {
                "address": "0x06450dee7fd2fb8e39061434babcfc05599a6fb8",
                "erc": "ERC-20",
                "slots": [
                    {
                        "current": "0x0000000000000000000000000000000000000000000000000000000000000000",
                        "key": "0xd8c1df21623622a807a47970c3443aa07a42f3830b70c72f44415edccdb01940",
                        "prev": "0x0000000000000000000000000000000000000000000000000000000000000bb1"
                    },
                    {
                        "current": "0x0000000000000000000000000000000000000000000000000000000000000000",
                        "key": "0xd8c1df21623622a807a47970c3443aa07a42f3830b70c72f44415edccdb01941",
                        "prev": "0x000000000000000000000000000000000000000000000000000000000000005a"
                    },
                    {
                        "current": "0x00000000000000000000000000000000000000025c00a2da8622c4a2c53aef3e",
                        "key": "0x0000000000000000000000000000000000000000000000000000000000000002",
                        "prev": "0x00000000000000000000000000000000000000025bffe9ab222a17c9eefaef3e"
                    },
                    {
                        "current": "0x0000000000000000000000000000000000000000000000000000000000000000",
                        "key": "0xd8c1df21623622a807a47970c3443aa07a42f3830b70c72f44415edccdb0193c",
                        "prev": "0x0000000000000000000000006e9f544910f20ce256a1498de49080281d40c5b5"
                    },
                    {
                        "current": "0x0000000000000000000000000000000000000000000f30e1240b0f1eba680000",
                        "key": "0x63f5dca84da2a36481af1496768a9cd9815f6cfd6d35d3f220699282e70aa54e",
                        "prev": "0x0000000000000000000000000000000000000000000e77b1c0126245e4280000"
                    },
                    {
                        "current": "0x0000000000000000000000000000000000000000000000000000000000000000",
                        "key": "0xd8c1df21623622a807a47970c3443aa07a42f3830b70c72f44415edccdb0193d",
                        "prev": "0x000000000000000000000000000000000000000000000000000000000000000e"
                    },
                    {
                        "current": "0x0000000000000000000000000000000000000000000000000000000000000000",
                        "key": "0xd8c1df21623622a807a47970c3443aa07a42f3830b70c72f44415edccdb0193e",
                        "prev": "0x00000000000000000000000000000000000000000000000000000000635dd61f"
                    },
                    {
                        "current": "0x0000000000000000000000000000000000000000000000000000000000000000",
                        "key": "0xd8c1df21623622a807a47970c3443aa07a42f3830b70c72f44415edccdb0193f",
                        "prev": "0x000000000000000000000000000000000000000000000000000000000010a631"
                    },
                    {
                        "current": "0x00000000000000000000000000000000000000000000000000000000000e8301",
                        "key": "0x0000000000000000000000000000000000000000000000000000000000000006",
                        "prev": "0x00000000000000000000000000000000000000000000000000000000000e8302"
                    }
                ],
                "storageVariables": [
                    {
                        "name": "userMints",
                        "type": "mapping(address => struct XENCrypto.MintInfo)",
                        "value": {
                            "pairs": [
                                {
                                    "key": "0x6e9f544910f20ce256a1498de49080281d40c5b5",
                                    "value": {
                                        "fields": [
                                            {
                                                "name": "user",
                                                "type": "address",
                                                "value": {
                                                    "current": "0x0000000000000000000000000000000000000000",
                                                    "prev": "0x6e9f544910f20ce256a1498de49080281d40c5b5",
                                                    "typeTag": 1
                                                }
                                            },
                                            {
                                                "name": "term",
                                                "type": "uint256",
                                                "value": {
                                                    "current": "0",
                                                    "prev": "14",
                                                    "typeTag": 1
                                                }
                                            },
                                            {
                                                "name": "maturityTs",
                                                "type": "uint256",
                                                "value": {
                                                    "current": "0",
                                                    "prev": "1667094047",
                                                    "typeTag": 1
                                                }
                                            },
                                            {
                                                "name": "rank",
                                                "type": "uint256",
                                                "value": {
                                                    "current": "0",
                                                    "prev": "1091121",
                                                    "typeTag": 1
                                                }
                                            },
                                            {
                                                "name": "amplifier",
                                                "type": "uint256",
                                                "value": {
                                                    "current": "0",
                                                    "prev": "2993",
                                                    "typeTag": 1
                                                }
                                            },
                                            {
                                                "name": "eaaRate",
                                                "type": "uint256",
                                                "value": {
                                                    "current": "0",
                                                    "prev": "90",
                                                    "typeTag": 1
                                                }
                                            }
                                        ],
                                        "typeTag": 3
                                    }
                                }
                            ],
                            "typeTag": 4
                        }
                    },
                    {
                        "name": "_totalSupply",
                        "type": "uint256",
                        "value": {
                            "current": "186929714986518358414637854526",
                            "prev": "186928840474518358414637854526",
                            "typeTag": 1
                        }
                    },
                    {
                        "name": "_balances",
                        "type": "mapping(address => uint256)",
                        "value": {
                            "pairs": [
                                {
                                    "key": "0x1318fba089731549275532137f30ad878cea9e49",
                                    "value": {
                                        "current": "18364714000000000000000000",
                                        "prev": "17490202000000000000000000",
                                        "typeTag": 1
                                    }
                                }
                            ],
                            "typeTag": 4
                        }
                    },
                    {
                        "name": "activeMinters",
                        "type": "uint256",
                        "value": {
                            "current": "951041",
                            "prev": "951042",
                            "typeTag": 1
                        }
                    }
                ]
            }
        ]
    }
}