{
    "balance_change": {
        "balanceChanges": [
            {
                "account": "0x36b959774572d4ec880ca317d36bdeb3655f30e6",
                "assets": [
                    {
                        "address": "0xeeeeeeeeeeeeeeeeeeeeeeeeeeeeeeeeeeeeeeee",
                        "amount": "0.0004",
                        "iconUrl": "https://assets.blocksec.com/image/1663669189317-3.png",
                        "isERC1155": false,
                        "isERC721": false,
                        "sign": true,
                        "value": "1.2240479999999999564"
                    }
                ]
            },
            {
                "account": "0x6774bcbd5cecef1336b5300fb5186a12ddd8b367",
                "assets": [
                    {
                        "address": "0xeeeeeeeeeeeeeeeeeeeeeeeeeeeeeeeeeeeeeeee",
                        "amount": "0.0004",
                        "iconUrl": "https://assets.blocksec.com/image/1663669189317-3.png",
                        "isERC1155": false,
                        "isERC721": false,
                        "sign": false,
                        "value": "1.2240479999999999564"
                    }
                ]
            }
        ]
    },
    "profile": {
        "basic_info": {
            "baseFee": "5.667942688",
            "blockNumber": 19696228,
            "callData": "0xc311b6fc00000000000000000000000036b959774572d4ec880ca317d36bdeb3655f30e600000000000000000000000036b959774572d4ec880ca317d36bdeb3655f30e600000000000000000000000000000000000000000000000000016bcc41e90000000000000000000000000000000000000000000000000000000000000001225600000000000000000000000000000000000000000000000000000000000000c000000000000000000000000000000000000000000000000000000000000000e00000000000000000000000000000000000000000000000000000000000000000000000000000000000000000000000000000000000000000000000000002786000000000000000000000000000000000000000000000000000000000000000400000000000000000000000000000000000000000000000000000000000000220c6d87129cb4e561a449b86efeb7c9cc9294c9a08505d34c79fc8282bcccf897c594c45fa0d324e5c79fa4daa83caa3f35b0b7063be949e1fb87e78d31d8aa520c6207986780e1ce9cb5f2d80b88c9ee5d787cd0ffb3833905c284418426cb1783de0097cc8c981b6f893d116dc360776f58c9ac804b16ab7c5921e71035770765ef46fc6e945fa9b182fcbc585a217ca457858f7da0d542dda03962367eb1c7d0eb01ebfc9ed27500cd4dfc979272d1f0913cc9f66540d7e8005811109e1cf2d43d44630bbf1298e71a44edf31650cf7900cea9a7de1803ca87d4271aaa9c7c9ffd70157e48063fc33c97a050f7f640233bf646cc98d9524c6b92bcf3ab56f839867cc5f7f196b93bae1e27e6320742445d290f2263827498b54fec539f756af2a01895b7fa536a1b39d05af6248a139f369977619847b14d9d4c02b7edeaef6f9dc3e7fe016e050eff260334f18a5d4fe391d82092319f5964f2e2eb7c1c3a5f8b13a49e282f609c317a833fb8d976d11517c571d1221a265d25af778ecf8923490c6ceeb450aecdc82e28293031d10c7d73bf85e57bf041a97360aa2c5d99c593ca799e9aadd3bd0b178488798b1240d72abfab76e18e7851db1788aa069e75c67add7c6caf302256adedf7ab114da0acfe870d449a3a489f781d659e8beccda7bce9f4e8618b6bd2f4132ce798cdc7a60e7e1460a7299e3c6342a579626d219e1247224601acd4539abf04aafffc01a991e1beb4f366962e810fc07ac794e",
            "debugEnable": true,
            "errorInfo": "",
            "eventCount": 1,
            "feeRecipient": "0xefa06f99dfecfc0236ed7398ce57656cab732780",
            "formatValue": "0",
            "gasLimit": 103870,
            "gasPrice": "7.167942688",
            "gasUsed": 99645,
            "intTxnCount": 6,
            "internalRevert": false,
            "internalRevertMessage": "",
            "isContractCreation": false,
            "isFlashloan": false,
            "maxFee": "9.623495178",
            "nonce": 1,
            "overwritedBlockNumber": -1,
            "priorityFee": "1.5",
            "receiver": "0x6774bcbd5cecef1336b5300fb5186a12ddd8b367",
            "revertMessage": "",
            "sender": "0x36b959774572d4ec880ca317d36bdeb3655f30e6",
            "simulationEnable": true,
            "sourceTxnHash": "0x76f5faf157f03e040a837d9aced62650a4eaa7401041c2bbd83ec6e2f921685b",
            "status": true,
            "timestamp": "2024-04-20T11:07:59Z",
            "transactionFee": "0.00071424964914576",
            "txnHash": "0x76f5faf157f03e040a837d9aced62650a4eaa7401041c2bbd83ec6e2f921685b",
            "txnIndex": 30,
            "type": 2,
            "value": "0"
        },
        "fund_flow": [
            {
                "amount": "0.0004",
                "from": "0x6774bcbd5cecef1336b5300fb5186a12ddd8b367",
                "id": 1,
                "isERC1155": false,
                "isERC721": false,
                "isReverted": false,
                "order": 1,
                "to": "0x36b959774572d4ec880ca317d36bdeb3655f30e6",
                "token": "0xeeeeeeeeeeeeeeeeeeeeeeeeeeeeeeeeeeeeeeee"
            }
        ],
        "token_infos": [
            {
                "address": "0xc02aaa39b223fe8d0a0e5c4f27ead9083c756cc2",
                "decimals": 18
            },
            {
                "address": "0xeeeeeeeeeeeeeeeeeeeeeeeeeeeeeeeeeeeeeeee",
                "decimals": 18
            }
        ]
    },
    "address_label": {
        "labels": [
            {
                "address": "0x72981fd00087ff4f60abfde9f353cb1912a37fb6",
                "label": "L1ScrollMessenger"
            },
            {
                "address": "0x0000000000000000000000000000000000000003",
                "label": "Precompiled"
            },
            {
                "address": "0x0000000000000000000000000000000000000004",
                "label": "Precompiled"
            },
            {
                "address": "0x0000000000000000000000000000000000000002",
                "label": "Precompiled"
            },
            {
                "address": "0xeeeeeeeeeeeeeeeeeeeeeeeeeeeeeeeeeeeeeeee",
                "label": "Ether"
            },
            {
                "address": "0xa13baf47339d63b743e7da8741db5456dac1e556",
                "label": "Scroll: L1 Scroll Chain Proxy"
            },
            {
                "address": "0x6774bcbd5cecef1336b5300fb5186a12ddd8b367",
                "label": "Scroll: L1 Scroll Messenger Proxy"
            },
            {
                "address": "0xfa148514d03420b7b1a13ec74da06d2ca875539c",
                "label": "ScrollChain"
            },
            {
                "address": "0x0000000000000000000000000000000000000001",
                "label": "Precompiled"
            }
        ]
    },
    "trace": {
        "accountLabels": null,
        "dataMap": {
            "-1": {
                "invocation": {
                    "address": "0x36b959774572d4ec880ca317d36bdeb3655f30e6",
                    "callData": "",
                    "decodedMethod": null,
                    "errorInfo": "",
                    "fromAddress": "",
                    "gasUsed": 0,
                    "id": -1,
                    "methodDecoded": false,
                    "operation": "",
                    "output": "",
                    "revert": false,
                    "revertMessage": "",
                    "selector": "",
                    "status": false,
                    "value": ""
                },
                "nodeType": 0
            },
            "0": {
                "invocation": {
                    "address": "0x6774bcbd5cecef1336b5300fb5186a12ddd8b367",
                    "callData": "0x00000000000000000000000036b959774572d4ec880ca317d36bdeb3655f30e600000000000000000000000036b959774572d4ec880ca317d36bdeb3655f30e600000000000000000000000000000000000000000000000000016bcc41e90000000000000000000000000000000000000000000000000000000000000001225600000000000000000000000000000000000000000000000000000000000000c000000000000000000000000000000000000000000000000000000000000000e00000000000000000000000000000000000000000000000000000000000000000000000000000000000000000000000000000000000000000000000000002786000000000000000000000000000000000000000000000000000000000000000400000000000000000000000000000000000000000000000000000000000000220c6d87129cb4e561a449b86efeb7c9cc9294c9a08505d34c79fc8282bcccf897c594c45fa0d324e5c79fa4daa83caa3f35b0b7063be949e1fb87e78d31d8aa520c6207986780e1ce9cb5f2d80b88c9ee5d787cd0ffb3833905c284418426cb1783de0097cc8c981b6f893d116dc360776f58c9ac804b16ab7c5921e71035770765ef46fc6e945fa9b182fcbc585a217ca457858f7da0d542dda03962367eb1c7d0eb01ebfc9ed27500cd4dfc979272d1f0913cc9f66540d7e8005811109e1cf2d43d44630bbf1298e71a44edf31650cf7900cea9a7de1803ca87d4271aaa9c7c9ffd70157e48063fc33c97a050f7f640233bf646cc98d9524c6b92bcf3ab56f839867cc5f7f196b93bae1e27e6320742445d290f2263827498b54fec539f756af2a01895b7fa536a1b39d05af6248a139f369977619847b14d9d4c02b7edeaef6f9dc3e7fe016e050eff260334f18a5d4fe391d82092319f5964f2e2eb7c1c3a5f8b13a49e282f609c317a833fb8d976d11517c571d1221a265d25af778ecf8923490c6ceeb450aecdc82e28293031d10c7d73bf85e57bf041a97360aa2c5d99c593ca799e9aadd3bd0b178488798b1240d72abfab76e18e7851db1788aa069e75c67add7c6caf302256adedf7ab114da0acfe870d449a3a489f781d659e8beccda7bce9f4e8618b6bd2f4132ce798cdc7a60e7e1460a7299e3c6342a579626d219e1247224601acd4539abf04aafffc01a991e1beb4f366962e810fc07ac794e",
                    "decodedMethod": {
                        "callParams": [
                            {
                                "name": "_from",
                                "type": "address",
                                "value": "0x36b959774572d4ec880ca317d36bdeb3655f30e6"
                            },
                            {
                                "name": "_to",
                                "type": "address",
                                "value": "0x36b959774572d4ec880ca317d36bdeb3655f30e6"
                            },
                            {
                                "name": "_value",
                                "type": "uint256",
                                "value": "400,000,000,000,000"
                            },
                            {
                                "name": "_nonce",
                                "type": "uint256",
                                "value": "74,326"
                            },
                            {
                                "name": "_message",
                                "type": "bytes",
                                "value": "0x"
                            },
                            {
                                "name": "_proof",
                                "type": "(uint256,bytes)",
                                "value": [
                                    {
                                        "name": "batchIndex",
                                        "type": "uint256",
                                        "value": "161,888"
                                    },
                                    {
                                        "name": "merkleProof",
                                        "type": "bytes",
                                        "value": "0xc6d87129cb4e561a449b86efeb7c9cc9294c9a08505d34c79fc8282bcccf897c594c45fa0d324e5c79fa4daa83caa3f35b0b7063be949e1fb87e78d31d8aa520c6207986780e1ce9cb5f2d80b88c9ee5d787cd0ffb3833905c284418426cb1783de0097cc8c981b6f893d116dc360776f58c9ac804b16ab7c5921e71035770765ef46fc6e945fa9b182fcbc585a217ca457858f7da0d542dda03962367eb1c7d0eb01ebfc9ed27500cd4dfc979272d1f0913cc9f66540d7e8005811109e1cf2d43d44630bbf1298e71a44edf31650cf7900cea9a7de1803ca87d4271aaa9c7c9ffd70157e48063fc33c97a050f7f640233bf646cc98d9524c6b92bcf3ab56f839867cc5f7f196b93bae1e27e6320742445d290f2263827498b54fec539f756af2a01895b7fa536a1b39d05af6248a139f369977619847b14d9d4c02b7edeaef6f9dc3e7fe016e050eff260334f18a5d4fe391d82092319f5964f2e2eb7c1c3a5f8b13a49e282f609c317a833fb8d976d11517c571d1221a265d25af778ecf8923490c6ceeb450aecdc82e28293031d10c7d73bf85e57bf041a97360aa2c5d99c593ca799e9aadd3bd0b178488798b1240d72abfab76e18e7851db1788aa069e75c67add7c6caf302256adedf7ab114da0acfe870d449a3a489f781d659e8beccda7bce9f4e8618b6bd2f4132ce798cdc7a60e7e1460a7299e3c6342a579626d219e1247224601acd4539abf04aafffc01a991e1beb4f366962e810fc07ac794e"
                                    }
                                ]
                            }
                        ],
                        "constructorArguments": "",
                        "name": "relayMessageWithProof",
                        "returnParams": [],
                        "signature": "relayMessageWithProof(address,address,uint256,uint256,bytes,(uint256,bytes))"
                    },
                    "errorInfo": "",
                    "fromAddress": "0x36b959774572d4ec880ca317d36bdeb3655f30e6",
                    "gasUsed": 99645,
                    "id": 0,
                    "methodDecoded": true,
                    "operation": "CALL",
                    "output": "",
                    "revert": false,
                    "revertMessage": "",
                    "selector": "0xc311b6fc",
                    "status": true,
                    "value": "0"
                },
                "nodeType": 0
            },
            "1": {
                "invocation": {
                    "address": "0x72981fd00087ff4f60abfde9f353cb1912a37fb6",
                    "callData": "0x00000000000000000000000036b959774572d4ec880ca317d36bdeb3655f30e600000000000000000000000036b959774572d4ec880ca317d36bdeb3655f30e600000000000000000000000000000000000000000000000000016bcc41e90000000000000000000000000000000000000000000000000000000000000001225600000000000000000000000000000000000000000000000000000000000000c000000000000000000000000000000000000000000000000000000000000000e00000000000000000000000000000000000000000000000000000000000000000000000000000000000000000000000000000000000000000000000000002786000000000000000000000000000000000000000000000000000000000000000400000000000000000000000000000000000000000000000000000000000000220c6d87129cb4e561a449b86efeb7c9cc9294c9a08505d34c79fc8282bcccf897c594c45fa0d324e5c79fa4daa83caa3f35b0b7063be949e1fb87e78d31d8aa520c6207986780e1ce9cb5f2d80b88c9ee5d787cd0ffb3833905c284418426cb1783de0097cc8c981b6f893d116dc360776f58c9ac804b16ab7c5921e71035770765ef46fc6e945fa9b182fcbc585a217ca457858f7da0d542dda03962367eb1c7d0eb01ebfc9ed27500cd4dfc979272d1f0913cc9f66540d7e8005811109e1cf2d43d44630bbf1298e71a44edf31650cf7900cea9a7de1803ca87d4271aaa9c7c9ffd70157e48063fc33c97a050f7f640233bf646cc98d9524c6b92bcf3ab56f839867cc5f7f196b93bae1e27e6320742445d290f2263827498b54fec539f756af2a01895b7fa536a1b39d05af6248a139f369977619847b14d9d4c02b7edeaef6f9dc3e7fe016e050eff260334f18a5d4fe391d82092319f5964f2e2eb7c1c3a5f8b13a49e282f609c317a833fb8d976d11517c571d1221a265d25af778ecf8923490c6ceeb450aecdc82e28293031d10c7d73bf85e57bf041a97360aa2c5d99c593ca799e9aadd3bd0b178488798b1240d72abfab76e18e7851db1788aa069e75c67add7c6caf302256adedf7ab114da0acfe870d449a3a489f781d659e8beccda7bce9f4e8618b6bd2f4132ce798cdc7a60e7e1460a7299e3c6342a579626d219e1247224601acd4539abf04aafffc01a991e1beb4f366962e810fc07ac794e",
                    "decodedMethod": {
                        "callParams": [
                            {
                                "name": "_from",
                                "type": "address",
                                "value": "0x36b959774572d4ec880ca317d36bdeb3655f30e6"
                            },
                            {
                                "name": "_to",
                                "type": "address",
                                "value": "0x36b959774572d4ec880ca317d36bdeb3655f30e6"
                            },
                            {
                                "name": "_value",
                                "type": "uint256",
                                "value": "400,000,000,000,000"
                            },
                            {
                                "name": "_nonce",
                                "type": "uint256",
                                "value": "74,326"
                            },
                            {
                                "name": "_message",
                                "type": "bytes",
                                "value": "0x"
                            },
                            {
                                "name": "_proof",
                                "type": "(uint256,bytes)",
                                "value": [
                                    {
                                        "name": "batchIndex",
                                        "type": "uint256",
                                        "value": "161,888"
                                    },
                                    {
                                        "name": "merkleProof",
                                        "type": "bytes",
                                        "value": "0xc6d87129cb4e561a449b86efeb7c9cc9294c9a08505d34c79fc8282bcccf897c594c45fa0d324e5c79fa4daa83caa3f35b0b7063be949e1fb87e78d31d8aa520c6207986780e1ce9cb5f2d80b88c9ee5d787cd0ffb3833905c284418426cb1783de0097cc8c981b6f893d116dc360776f58c9ac804b16ab7c5921e71035770765ef46fc6e945fa9b182fcbc585a217ca457858f7da0d542dda03962367eb1c7d0eb01ebfc9ed27500cd4dfc979272d1f0913cc9f66540d7e8005811109e1cf2d43d44630bbf1298e71a44edf31650cf7900cea9a7de1803ca87d4271aaa9c7c9ffd70157e48063fc33c97a050f7f640233bf646cc98d9524c6b92bcf3ab56f839867cc5f7f196b93bae1e27e6320742445d290f2263827498b54fec539f756af2a01895b7fa536a1b39d05af6248a139f369977619847b14d9d4c02b7edeaef6f9dc3e7fe016e050eff260334f18a5d4fe391d82092319f5964f2e2eb7c1c3a5f8b13a49e282f609c317a833fb8d976d11517c571d1221a265d25af778ecf8923490c6ceeb450aecdc82e28293031d10c7d73bf85e57bf041a97360aa2c5d99c593ca799e9aadd3bd0b178488798b1240d72abfab76e18e7851db1788aa069e75c67add7c6caf302256adedf7ab114da0acfe870d449a3a489f781d659e8beccda7bce9f4e8618b6bd2f4132ce798cdc7a60e7e1460a7299e3c6342a579626d219e1247224601acd4539abf04aafffc01a991e1beb4f366962e810fc07ac794e"
                                    }
                                ]
                            }
                        ],
                        "constructorArguments": "",
                        "name": "relayMessageWithProof",
                        "returnParams": [],
                        "signature": "relayMessageWithProof(address,address,uint256,uint256,bytes,(uint256,bytes))"
                    },
                    "errorInfo": "",
                    "fromAddress": "0x6774bcbd5cecef1336b5300fb5186a12ddd8b367",
                    "gasUsed": 63435,
                    "id": 1,
                    "methodDecoded": true,
                    "operation": "DELEGATECALL",
                    "output": "",
                    "revert": false,
                    "revertMessage": "",
                    "selector": "0xc311b6fc",
                    "status": true,
                    "value": "0"
                },
                "nodeType": 0
            },
            "2": {
                "invocation": {
                    "address": "0xa13baf47339d63b743e7da8741db5456dac1e556",
                    "callData": "0x0000000000000000000000000000000000000000000000000000000000027860",
                    "decodedMethod": {
                        "callParams": [
                            {
                                "name": "_batchIndex",
                                "type": "uint256",
                                "value": "161,888"
                            }
                        ],
                        "constructorArguments": "",
                        "name": "isBatchFinalized",
                        "returnParams": [
                            {
                                "name": "",
                                "type": "bool",
                                "value": true
                            }
                        ],
                        "signature": "isBatchFinalized(uint256)"
                    },
                    "errorInfo": "",
                    "fromAddress": "0x6774bcbd5cecef1336b5300fb5186a12ddd8b367",
                    "gasUsed": 9635,
                    "id": 2,
                    "methodDecoded": true,
                    "operation": "STATICCALL",
                    "output": "0x0000000000000000000000000000000000000000000000000000000000000001",
                    "revert": false,
                    "revertMessage": "",
                    "selector": "0x116a1f42",
                    "status": true,
                    "value": "0"
                },
                "nodeType": 0
            },
            "3": {
                "invocation": {
                    "address": "0xfa148514d03420b7b1a13ec74da06d2ca875539c",
                    "callData": "0x0000000000000000000000000000000000000000000000000000000000027860",
                    "decodedMethod": {
                        "callParams": [
                            {
                                "name": "_batchIndex",
                                "type": "uint256",
                                "value": "161,888"
                            }
                        ],
                        "constructorArguments": "",
                        "name": "isBatchFinalized",
                        "returnParams": [
                            {
                                "name": "",
                                "type": "bool",
                                "value": true
                            }
                        ],
                        "signature": "isBatchFinalized(uint256)"
                    },
                    "errorInfo": "",
                    "fromAddress": "0xa13baf47339d63b743e7da8741db5456dac1e556",
                    "gasUsed": 2496,
                    "id": 3,
                    "methodDecoded": true,
                    "operation": "DELEGATECALL",
                    "output": "0x0000000000000000000000000000000000000000000000000000000000000001",
                    "revert": false,
                    "revertMessage": "",
                    "selector": "0x116a1f42",
                    "status": true,
                    "value": "0"
                },
                "nodeType": 0
            },
            "4": {
                "invocation": {
                    "address": "0xa13baf47339d63b743e7da8741db5456dac1e556",
                    "callData": "0x0000000000000000000000000000000000000000000000000000000000027860",
                    "decodedMethod": {
                        "callParams": [
                            {
                                "name": "",
                                "type": "uint256",
                                "value": "161,888"
                            }
                        ],
                        "constructorArguments": "",
                        "name": "withdrawRoots",
                        "returnParams": [
                            {
                                "name": "",
                                "type": "bytes32",
                                "value": "0x9692f413a6e51849bb13eaa3961cfcea9464b51b3be1334e9b254ab6a157d201"
                            }
                        ],
                        "signature": "withdrawRoots(uint256)"
                    },
                    "errorInfo": "",
                    "fromAddress": "0x6774bcbd5cecef1336b5300fb5186a12ddd8b367",
                    "gasUsed": 3143,
                    "id": 4,
                    "methodDecoded": true,
                    "operation": "STATICCALL",
                    "output": "0x9692f413a6e51849bb13eaa3961cfcea9464b51b3be1334e9b254ab6a157d201",
                    "revert": false,
                    "revertMessage": "",
                    "selector": "0xea5f084f",
                    "status": true,
                    "value": "0"
                },
                "nodeType": 0
            },
            "5": {
                "invocation": {
                    "address": "0xfa148514d03420b7b1a13ec74da06d2ca875539c",
                    "callData": "0x0000000000000000000000000000000000000000000000000000000000027860",
                    "decodedMethod": {
                        "callParams": [
                            {
                                "name": "",
                                "type": "uint256",
                                "value": "161,888"
                            }
                        ],
                        "constructorArguments": "",
                        "name": "withdrawRoots",
                        "returnParams": [
                            {
                                "name": "",
                                "type": "bytes32",
                                "value": "0x9692f413a6e51849bb13eaa3961cfcea9464b51b3be1334e9b254ab6a157d201"
                            }
                        ],
                        "signature": "withdrawRoots(uint256)"
                    },
                    "errorInfo": "",
                    "fromAddress": "0xa13baf47339d63b743e7da8741db5456dac1e556",
                    "gasUsed": 2504,
                    "id": 5,
                    "methodDecoded": true,
                    "operation": "DELEGATECALL",
                    "output": "0x9692f413a6e51849bb13eaa3961cfcea9464b51b3be1334e9b254ab6a157d201",
                    "revert": false,
                    "revertMessage": "",
                    "selector": "0xea5f084f",
                    "status": true,
                    "value": "0"
                },
                "nodeType": 0
            },
            "6": {
                "invocation": {
                    "address": "0x36b959774572d4ec880ca317d36bdeb3655f30e6",
                    "callData": "0x",
                    "decodedMethod": null,
                    "errorInfo": "",
                    "fromAddress": "0x6774bcbd5cecef1336b5300fb5186a12ddd8b367",
                    "gasUsed": 0,
                    "id": 6,
                    "methodDecoded": false,
                    "operation": "CALL",
                    "output": "",
                    "revert": false,
                    "revertMessage": "",
                    "selector": "fallback",
                    "status": true,
                    "value": "0.0004"
                },
                "nodeType": 0
            },
            "7": {
                "event": {
                    "contract": "0x6774bcbd5cecef1336b5300fb5186a12ddd8b367",
                    "decodedLog": {
                        "name": "RelayedMessage",
                        "params": [
                            {
                                "name": "msgHash",
                                "type": "bytes32",
                                "value": "0x0ca97821b00e5b3132b74bb358d4ce192535882f9fe23b91cda5bde17577aa57"
                            }
                        ],
                        "signature": "RelayedMessage(bytes32)"
                    },
                    "id": 7,
                    "logData": "0x",
                    "logDecoded": true,
                    "operation": "EVENT",
                    "revert": false,
                    "status": true,
                    "topics": [
                        "0x4641df4a962071e12719d8c8c8e5ac7fc4d97b927346a3d7a335b1f7517e133c",
                        "0x0ca97821b00e5b3132b74bb358d4ce192535882f9fe23b91cda5bde17577aa57"
                    ]
                },
                "nodeType": 1
            }
        },
        "gasFlame": [
            {
                "children": [
                    {
                        "children": [
                            {
                                "children": [],
                                "depth": 0,
                                "name": "Initial Gas",
                                "value": 31720
                            },
                            {
                                "children": [
                                    {
                                        "children": [
                                            {
                                                "children": [
                                                    {
                                                        "children": [],
                                                        "depth": 3,
                                                        "name": "isBatchFinalized",
                                                        "value": 2496
                                                    }
                                                ],
                                                "depth": 2,
                                                "name": "isBatchFinalized",
                                                "value": 9635
                                            },
                                            {
                                                "children": [
                                                    {
                                                        "children": [],
                                                        "depth": 3,
                                                        "name": "withdrawRoots",
                                                        "value": 2504
                                                    }
                                                ],
                                                "depth": 2,
                                                "name": "withdrawRoots",
                                                "value": 3143
                                            },
                                            {
                                                "children": [],
                                                "depth": 2,
                                                "name": "fallback",
                                                "value": 0
                                            }
                                        ],
                                        "depth": 1,
                                        "name": "relayMessageWithProof",
                                        "value": 63435
                                    }
                                ],
                                "depth": 0,
                                "name": "Executed Gas",
                                "value": 70725
                            }
                        ],
                        "depth": -1,
                        "name": "Actual Gas Used",
                        "value": 99645
                    },
                    {
                        "children": [],
                        "depth": -1,
                        "name": "Refunded Gas",
                        "value": 2800
                    }
                ],
                "depth": -2,
                "name": "Total Gas",
                "value": 102445
            }
        ],
        "isConfirmed": true,
        "mainTrace": [
            {
                "children": [
                    {
                        "children": [
                            {
                                "children": [
                                    {
                                        "children": [
                                            {
                                                "children": [],
                                                "depth": 3,
                                                "id": 3,
                                                "order": 3
                                            }
                                        ],
                                        "depth": 2,
                                        "id": 2,
                                        "order": 2
                                    },
                                    {
                                        "children": [
                                            {
                                                "children": [],
                                                "depth": 3,
                                                "id": 5,
                                                "order": 5
                                            }
                                        ],
                                        "depth": 2,
                                        "id": 4,
                                        "order": 4
                                    },
                                    {
                                        "children": [],
                                        "depth": 2,
                                        "id": 6,
                                        "order": 6
                                    },
                                    {
                                        "children": [],
                                        "depth": 2,
                                        "id": 7,
                                        "order": 7
                                    }
                                ],
                                "depth": 1,
                                "id": 1,
                                "order": 1
                            }
                        ],
                        "depth": 0,
                        "id": 0,
                        "order": 0
                    }
                ],
                "depth": -1,
                "id": -1,
                "order": -1
            }
        ],
        "mainTraceNodeCount": 8,
        "parentIdMap": {
            "0": -1,
            "1": 0,
            "2": 1,
            "3": 2,
            "4": 1,
            "5": 4,
            "6": 1,
            "7": 1
        },
        "tidyTrace": [
            {
                "children": [
                    {
                        "children": [
                            {
                                "children": [
                                    {
                                        "children": [],
                                        "depth": 2,
                                        "id": 6,
                                        "order": 6
                                    },
                                    {
                                        "children": [],
                                        "depth": 2,
                                        "id": 7,
                                        "order": 7
                                    }
                                ],
                                "depth": 1,
                                "id": 1,
                                "order": 1
                            }
                        ],
                        "depth": 0,
                        "id": 0,
                        "order": 0
                    }
                ],
                "depth": -1,
                "id": -1,
                "order": -1
            }
        ],
        "tidyTraceNodeCount": 4
    },
    "state_change": {
        "stateChanges": [
            {
                "address": "0x6774bcbd5cecef1336b5300fb5186a12ddd8b367",
                "erc": "",
                "slots": [
                    {
                        "current": "0x0000000000000000000000000000000000000000000000000000000000000001",
                        "key": "0x3382eac566bda9b95c74b0ba476e8ff0072162640dd38e450657a5fd3947d80e",
                        "prev": "0x0000000000000000000000000000000000000000000000000000000000000000"
                    }
                ],
                "storageVariables": [
                    {
                        "name": "isL2MessageExecuted",
                        "type": "mapping(bytes32 => bool)",
                        "value": {
                            "pairs": [
                                {
                                    "key": "0x0ca97821b00e5b3132b74bb358d4ce192535882f9fe23b91cda5bde17577aa57",
                                    "value": {
                                        "current": "true",
                                        "prev": "false",
                                        "typeTag": 1
                                    }
                                }
                            ],
                            "typeTag": 4
                        }
                    }
                ]
            }
        ]
    }
}