{
    "balance_change": {
        "balanceChanges": [
            {
                "account": "0xb4e16d0168e52d35cacd2c6185b44281ec28c9dc",
                "assets": [
                    {
                        "address": "0xa0b86991c6218b36c1d19d4a2e9eb0ce3606eb48",
                        "amount": "115.722862",
                        "iconUrl": "https://assets.blocksec.com/icon/0347a86cc07dbd03fdc5db01a4e5ac7e1217f90e0b6e4bb0f75cbcca09160989.png",
                        "isERC1155": false,
                        "isERC721": false,
                        "sign": true,
                        "value": "115.7137199"
                    },
                    {
                        "address": "0xc02aaa39b223fe8d0a0e5c4f27ead9083c756cc2",
                        "amount": "0.040083074907495581",
                        "iconUrl": "https://assets.blocksec.com/icon/f1cb2d02c471d545bbc7722daf3277fd852d98e63d118771af7047bd8256c516.png",
                        "isERC1155": false,
                        "isERC721": false,
                        "sign": false,
                        "value": "129.51100969181506697"
                    }
                ]
            },
            {
                "account": "0xc02aaa39b223fe8d0a0e5c4f27ead9083c756cc2",
                "assets": [
                    {
                        "address": "0xc02aaa39b223fe8d0a0e5c4f27ead9083c756cc2",
                        "amount": "0.040083074907495581",
                        "iconUrl": "https://assets.blocksec.com/icon/f1cb2d02c471d545bbc7722daf3277fd852d98e63d118771af7047bd8256c516.png",
                        "isERC1155": false,
                        "isERC721": false,
                        "sign": true,
                        "value": "129.51100969181506697"
                    },
                    {
                        "address": "0xeeeeeeeeeeeeeeeeeeeeeeeeeeeeeeeeeeeeeeee",
                        "amount": "0.040083074907495581",
                        "iconUrl": "https://assets.blocksec.com/image/1663669189317-3.png",
                        "isERC1155": false,
                        "isERC721": false,
                        "sign": false,
                        "value": "129.51100969181506697"
                    }
                ]
            },
            {
                "account": "0xd294fdb0657feb5ea1865455427200476961e7f3",
                "assets": [
                    {
                        "address": "0xeeeeeeeeeeeeeeeeeeeeeeeeeeeeeeeeeeeeeeee",
                        "amount": "0.040083074907495581",
                        "iconUrl": "https://assets.blocksec.com/image/1663669189317-3.png",
                        "isERC1155": false,
                        "isERC721": false,
                        "sign": true,
                        "value": "129.51100969181506697"
                    },
                    {
                        "address": "0x77fba179c79de5b7653f68b5039af940ada60ce0",
                        "amount": "2.8062479406345862",
                        "iconUrl": "https://assets.blocksec.com/icon/04d60c651046f0d746ab782fbf53fa9cbfbe916c3b76ea54c3188fa12fd8a575.png",
                        "isERC1155": false,
                        "isERC721": false,
                        "sign": false,
                        "value": "115.7137199"
                    }
                ]
            },
            {
                "account": "0xeabf9f1122b1b73be246396cd525c244dd430a01",
                "assets": [
                    {
                        "address": "0x77fba179c79de5b7653f68b5039af940ada60ce0",
                        "amount": "2.8062479406345862",
                        "iconUrl": "https://assets.blocksec.com/icon/04d60c651046f0d746ab782fbf53fa9cbfbe916c3b76ea54c3188fa12fd8a575.png",
                        "isERC1155": false,
                        "isERC721": false,
                        "sign": true,
                        "value": "115.7137199"
                    },
                    {
                        "address": "0xa0b86991c6218b36c1d19d4a2e9eb0ce3606eb48",
                        "amount": "115.722862",
                        "iconUrl": "https://assets.blocksec.com/icon/0347a86cc07dbd03fdc5db01a4e5ac7e1217f90e0b6e4bb0f75cbcca09160989.png",
                        "isERC1155": false,
                        "isERC721": false,
                        "sign": false,
                        "value": "115.7137199"
                    }
                ]
            }
        ]
    },
    "profile": {
        "basic_info": {
            "baseFee": "",
            "blockNumber": 12353952,
            "callData": "0xee682473000000000000000000000000000000000000000000000000000000000000006000000000000000000000000000000000000000000000000000000000000002800000000000000000000000000000000000000000000000000005c15556e1358700000000000000000000000000000000000000000000000000000000000001e4fd6ac309000000000000000000000000d294fdb0657feb5ea1865455427200476961e7f30000000000000000000000007a250d5630b4cf539739df2c5dacb4c659f2488d00000000000000000000000000000000000000000000000000000000000000000000000000000000000000000000000000000000000000000000000000000080000000000000000000000000000000000000000000000000000000000000012418cbafe500000000000000000000000000000000000000000000000026f1cba245322c58000000000000000000000000000000000000000000000000008dae48d03f017800000000000000000000000000000000000000000000000000000000000000a0000000000000000000000000d294fdb0657feb5ea1865455427200476961e7f300000000000000000000000000000000000000000000000000000000608e7315000000000000000000000000000000000000000000000000000000000000000300000000000000000000000077fba179c79de5b7653f68b5039af940ada60ce0000000000000000000000000a0b86991c6218b36c1d19d4a2e9eb0ce3606eb48000000000000000000000000c02aaa39b223fe8d0a0e5c4f27ead9083c756cc200000000000000000000000000000000000000000000000000000000000000000000000000000000000000000000000000000000000000000000000000000000000000000000000000000000000000000000000000000041da9b066d62258e134eb0252912344fd5fe9077cc822fdfc6b91e7a5076ef0c4f4a60da0c3614248c644e2853dfbdfe428eb9ff93a8e49d3341484f4f6bb664141c00000000000000000000000000000000000000000000000000000000000000",
            "debugEnable": true,
            "errorInfo": "",
            "eventCount": 11,
            "feeRecipient": "0x99c85bb64564d9ef9a99621301f22c9993cb89e3",
            "formatValue": "0",
            "gasLimit": 474843,
            "gasPrice": "24",
            "gasUsed": 228199,
            "intTxnCount": 25,
            "internalRevert": false,
            "internalRevertMessage": "",
            "isContractCreation": false,
            "isFlashloan": false,
            "maxFee": "",
            "nonce": 2423,
            "overwritedBlockNumber": -1,
            "priorityFee": "",
            "receiver": "0xf9bb55b6a14acd32066182f0f5f0296073f5d054",
            "revertMessage": "",
            "sender": "0x0eb18600592871cfbf2620f24b764cde3ce4954d",
            "simulationEnable": true,
            "sourceTxnHash": "0x76af3c924e9e43aacb85de6bcb60d69c0355b657d4bc03658865b919969cfc9f",
            "status": true,
            "timestamp": "2021-05-02T09:27:30Z",
            "transactionFee": "0.005476776",
            "txnHash": "0x76af3c924e9e43aacb85de6bcb60d69c0355b657d4bc03658865b919969cfc9f",
            "txnIndex": 127,
            "type": 0,
            "value": "0"
        },
        "fund_flow": [
            {
                "amount": "2.8062479406345862",
                "from": "0xd294fdb0657feb5ea1865455427200476961e7f3",
                "id": 1,
                "isERC1155": false,
                "isERC721": false,
                "isReverted": false,
                "order": 1,
                "to": "0xeabf9f1122b1b73be246396cd525c244dd430a01",
                "token": "0x77fba179c79de5b7653f68b5039af940ada60ce0"
            },
            {
                "amount": "115.722862",
                "from": "0xeabf9f1122b1b73be246396cd525c244dd430a01",
                "id": 2,
                "isERC1155": false,
                "isERC721": false,
                "isReverted": false,
                "order": 2,
                "to": "0xb4e16d0168e52d35cacd2c6185b44281ec28c9dc",
                "token": "0xa0b86991c6218b36c1d19d4a2e9eb0ce3606eb48"
            },
            {
                "amount": "0.040083074907495581",
                "from": "0xb4e16d0168e52d35cacd2c6185b44281ec28c9dc",
                "id": 3,
                "isERC1155": false,
                "isERC721": false,
                "isReverted": false,
                "order": 3,
                "to": "0x7a250d5630b4cf539739df2c5dacb4c659f2488d",
                "token": "0xc02aaa39b223fe8d0a0e5c4f27ead9083c756cc2"
            },
            {
                "amount": "0.040083074907495581",
                "from": "0xc02aaa39b223fe8d0a0e5c4f27ead9083c756cc2",
                "id": 4,
                "isERC1155": false,
                "isERC721": false,
                "isReverted": false,
                "order": 4,
                "to": "0x7a250d5630b4cf539739df2c5dacb4c659f2488d",
                "token": "0xeeeeeeeeeeeeeeeeeeeeeeeeeeeeeeeeeeeeeeee"
            },
            {
                "amount": "0.040083074907495581",
                "from": "0x7a250d5630b4cf539739df2c5dacb4c659f2488d",
                "id": 5,
                "isERC1155": false,
                "isERC721": false,
                "isReverted": false,
                "order": 5,
                "to": "0xc02aaa39b223fe8d0a0e5c4f27ead9083c756cc2",
                "token": "0xc02aaa39b223fe8d0a0e5c4f27ead9083c756cc2"
            },
            {
                "amount": "0.040083074907495581",
                "from": "0x7a250d5630b4cf539739df2c5dacb4c659f2488d",
                "id": 6,
                "isERC1155": false,
                "isERC721": false,
                "isReverted": false,
                "order": 6,
                "to": "0xd294fdb0657feb5ea1865455427200476961e7f3",
                "token": "0xeeeeeeeeeeeeeeeeeeeeeeeeeeeeeeeeeeeeeeee"
            }
        ],
        "token_infos": [
            {
                "address": "0x77fba179c79de5b7653f68b5039af940ada60ce0",
                "decimals": 18
            },
            {
                "address": "0xa0b86991c6218b36c1d19d4a2e9eb0ce3606eb48",
                "decimals": 6
            },
            {
                "address": "0xc02aaa39b223fe8d0a0e5c4f27ead9083c756cc2",
                "decimals": 18
            },
            {
                "address": "0xeeeeeeeeeeeeeeeeeeeeeeeeeeeeeeeeeeeeeeee",
                "decimals": 18
            }
        ]
    },
    "address_label": {
        "labels": [
            {
                "address": "0xc02aaa39b223fe8d0a0e5c4f27ead9083c756cc2",
                "label": "Wrapped Ether (WETH)"
            },
            {
                "address": "0xa0b86991c6218b36c1d19d4a2e9eb0ce3606eb48",
                "label": "Circle: USDC Token"
            },
            {
                "address": "0xdf8ac96bc9198c610285b3d1b29de09621b04528",
                "label": "LogicManager"
            },
            {
                "address": "0x0000000000000000000000000000000000000004",
                "label": "Precompiled"
            },
            {
                "address": "0xadc92d1fd878580579716d944ef3460e241604b7",
                "label": "AccountStorage"
            },
            {
                "address": "0x0000000000000000000000000000000000000001",
                "label": "Precompiled"
            },
            {
                "address": "0x0000000000000000000000000000000000000002",
                "label": "Precompiled"
            },
            {
                "address": "0x0000000000000000000000000000000000000003",
                "label": "Precompiled"
            },
            {
                "address": "0x7a250d5630b4cf539739df2c5dacb4c659f2488d",
                "label": "Uniswap V2: Router 2"
            },
            {
                "address": "0xeabf9f1122b1b73be246396cd525c244dd430a01",
                "label": "Uniswap V2: FORTH-USDC"
            },
            {
                "address": "0xef004d954999eb9162aeb3989279eff2161d5095",
                "label": "Account"
            },
            {
                "address": "0xf9bb55b6a14acd32066182f0f5f0296073f5d054",
                "label": "DappLogic"
            },
            {
                "address": "0xeeeeeeeeeeeeeeeeeeeeeeeeeeeeeeeeeeeeeeee",
                "label": "Ether"
            },
            {
                "address": "0xa2327a938febf5fec13bacfb16ae10ecbc4cbdcf",
                "label": "FiatTokenV2_1"
            },
            {
                "address": "0x77fba179c79de5b7653f68b5039af940ada60ce0",
                "label": "Ampleforth Governance: FORTH Token"
            },
            {
                "address": "0xb4e16d0168e52d35cacd2c6185b44281ec28c9dc",
                "label": "Uniswap V2: USDC"
            },
            {
                "address": "0xd294fdb0657feb5ea1865455427200476961e7f3",
                "label": "AccountProxy"
            }
        ]
    },
    "trace": {
        "accountLabels": null,
        "dataMap": {
            "-1": {
                "invocation": {
                    "address": "0x0eb18600592871cfbf2620f24b764cde3ce4954d",
                    "callData": "",
                    "decodedMethod": null,
                    "errorInfo": "",
                    "fromAddress": "",
                    "gasUsed": 0,
                    "id": -1,
                    "methodDecoded": false,
                    "operation": "",
                    "output": "",
                    "revert": false,
                    "revertMessage": "",
                    "selector": "",
                    "status": false,
                    "value": ""
                },
                "nodeType": 0
            },
            "0": {
                "invocation": {
                    "address": "0xf9bb55b6a14acd32066182f0f5f0296073f5d054",
                    "callData": "0x000000000000000000000000000000000000000000000000000000000000006000000000000000000000000000000000000000000000000000000000000002800000000000000000000000000000000000000000000000000005c15556e1358700000000000000000000000000000000000000000000000000000000000001e4fd6ac309000000000000000000000000d294fdb0657feb5ea1865455427200476961e7f30000000000000000000000007a250d5630b4cf539739df2c5dacb4c659f2488d00000000000000000000000000000000000000000000000000000000000000000000000000000000000000000000000000000000000000000000000000000080000000000000000000000000000000000000000000000000000000000000012418cbafe500000000000000000000000000000000000000000000000026f1cba245322c58000000000000000000000000000000000000000000000000008dae48d03f017800000000000000000000000000000000000000000000000000000000000000a0000000000000000000000000d294fdb0657feb5ea1865455427200476961e7f300000000000000000000000000000000000000000000000000000000608e7315000000000000000000000000000000000000000000000000000000000000000300000000000000000000000077fba179c79de5b7653f68b5039af940ada60ce0000000000000000000000000a0b86991c6218b36c1d19d4a2e9eb0ce3606eb48000000000000000000000000c02aaa39b223fe8d0a0e5c4f27ead9083c756cc200000000000000000000000000000000000000000000000000000000000000000000000000000000000000000000000000000000000000000000000000000000000000000000000000000000000000000000000000000041da9b066d62258e134eb0252912344fd5fe9077cc822fdfc6b91e7a5076ef0c4f4a60da0c3614248c644e2853dfbdfe428eb9ff93a8e49d3341484f4f6bb664141c00000000000000000000000000000000000000000000000000000000000000",
                    "decodedMethod": {
                        "callParams": [
                            {
                                "name": "_data",
                                "type": "bytes",
                                "value": "0xfd6ac309000000000000000000000000d294fdb0657feb5ea1865455427200476961e7f30000000000000000000000007a250d5630b4cf539739df2c5dacb4c659f2488d00000000000000000000000000000000000000000000000000000000000000000000000000000000000000000000000000000000000000000000000000000080000000000000000000000000000000000000000000000000000000000000012418cbafe500000000000000000000000000000000000000000000000026f1cba245322c58000000000000000000000000000000000000000000000000008dae48d03f017800000000000000000000000000000000000000000000000000000000000000a0000000000000000000000000d294fdb0657feb5ea1865455427200476961e7f300000000000000000000000000000000000000000000000000000000608e7315000000000000000000000000000000000000000000000000000000000000000300000000000000000000000077fba179c79de5b7653f68b5039af940ada60ce0000000000000000000000000a0b86991c6218b36c1d19d4a2e9eb0ce3606eb48000000000000000000000000c02aaa39b223fe8d0a0e5c4f27ead9083c756cc200000000000000000000000000000000000000000000000000000000"
                            },
                            {
                                "name": "_signature",
                                "type": "bytes",
                                "value": "0xda9b066d62258e134eb0252912344fd5fe9077cc822fdfc6b91e7a5076ef0c4f4a60da0c3614248c644e2853dfbdfe428eb9ff93a8e49d3341484f4f6bb664141c"
                            },
                            {
                                "name": "_nonce",
                                "type": "uint256",
                                "value": "1,619,947,157,534,087"
                            }
                        ],
                        "constructorArguments": "",
                        "name": "enter",
                        "returnParams": [],
                        "signature": "enter(bytes,bytes,uint256)"
                    },
                    "errorInfo": "",
                    "fromAddress": "0x0eb18600592871cfbf2620f24b764cde3ce4954d",
                    "gasUsed": 228199,
                    "id": 0,
                    "methodDecoded": true,
                    "operation": "CALL",
                    "output": "",
                    "revert": false,
                    "revertMessage": "",
                    "selector": "0xee682473",
                    "status": true,
                    "value": "0"
                },
                "nodeType": 0
            },
            "1": {
                "invocation": {
                    "address": "0xadc92d1fd878580579716d944ef3460e241604b7",
                    "callData": "0x000000000000000000000000d294fdb0657feb5ea1865455427200476961e7f30000000000000000000000000000000000000000000000000000000000000003",
                    "decodedMethod": {
                        "callParams": [
                            {
                                "name": "_account",
                                "type": "address",
                                "value": "0xd294fdb0657feb5ea1865455427200476961e7f3"
                            },
                            {
                                "name": "_index",
                                "type": "uint256",
                                "value": "3"
                            }
                        ],
                        "constructorArguments": "",
                        "name": "getKeyStatus",
                        "returnParams": [
                            {
                                "name": "",
                                "type": "uint256",
                                "value": "0"
                            }
                        ],
                        "signature": "getKeyStatus(address,uint256)"
                    },
                    "errorInfo": "",
                    "fromAddress": "0xf9bb55b6a14acd32066182f0f5f0296073f5d054",
                    "gasUsed": 5077,
                    "id": 1,
                    "methodDecoded": true,
                    "operation": "STATICCALL",
                    "output": "0x0000000000000000000000000000000000000000000000000000000000000000",
                    "revert": false,
                    "revertMessage": "",
                    "selector": "0x43090116",
                    "status": true,
                    "value": "0"
                },
                "nodeType": 0
            },
            "10": {
                "invocation": {
                    "address": "0xb4e16d0168e52d35cacd2c6185b44281ec28c9dc",
                    "callData": "0x",
                    "decodedMethod": {
                        "callParams": [],
                        "constructorArguments": "",
                        "name": "getReserves",
                        "returnParams": [
                            {
                                "name": "_reserve0",
                                "type": "uint112",
                                "value": "211,755,887,330,176"
                            },
                            {
                                "name": "_reserve1",
                                "type": "uint112",
                                "value": "73,566,896,695,602,127,728,996"
                            },
                            {
                                "name": "_blockTimestampLast",
                                "type": "uint32",
                                "value": "1,619,947,650"
                            }
                        ],
                        "signature": "getReserves()"
                    },
                    "errorInfo": "",
                    "fromAddress": "0x7a250d5630b4cf539739df2c5dacb4c659f2488d",
                    "gasUsed": 2504,
                    "id": 10,
                    "methodDecoded": true,
                    "operation": "STATICCALL",
                    "output": "0x0000000000000000000000000000000000000000000000000000c09742718380000000000000000000000000000000000000000000000f9411c83286c732716400000000000000000000000000000000000000000000000000000000608e7082",
                    "revert": false,
                    "revertMessage": "",
                    "selector": "0x0902f1ac",
                    "status": true,
                    "value": "0"
                },
                "nodeType": 0
            },
            "11": {
                "invocation": {
                    "address": "0x77fba179c79de5b7653f68b5039af940ada60ce0",
                    "callData": "0x000000000000000000000000d294fdb0657feb5ea1865455427200476961e7f3000000000000000000000000eabf9f1122b1b73be246396cd525c244dd430a0100000000000000000000000000000000000000000000000026f1cba245322c58",
                    "decodedMethod": {
                        "callParams": [
                            {
                                "name": "src",
                                "type": "address",
                                "value": "0xd294fdb0657feb5ea1865455427200476961e7f3"
                            },
                            {
                                "name": "dst",
                                "type": "address",
                                "value": "0xeabf9f1122b1b73be246396cd525c244dd430a01"
                            },
                            {
                                "decimalAvailable": true,
                                "name": "rawAmount",
                                "type": "uint256",
                                "value": "2,806,247,940,634,586,200"
                            }
                        ],
                        "constructorArguments": "",
                        "name": "transferFrom",
                        "returnParams": [
                            {
                                "name": "",
                                "type": "bool",
                                "value": true
                            }
                        ],
                        "signature": "transferFrom(address,address,uint256)"
                    },
                    "errorInfo": "",
                    "fromAddress": "0x7a250d5630b4cf539739df2c5dacb4c659f2488d",
                    "gasUsed": 20487,
                    "id": 11,
                    "methodDecoded": true,
                    "operation": "CALL",
                    "output": "0x0000000000000000000000000000000000000000000000000000000000000001",
                    "revert": false,
                    "revertMessage": "",
                    "selector": "0x23b872dd",
                    "status": true,
                    "value": "0"
                },
                "nodeType": 0
            },
            "12": {
                "event": {
                    "contract": "0x77fba179c79de5b7653f68b5039af940ada60ce0",
                    "decodedLog": {
                        "name": "Transfer",
                        "params": [
                            {
                                "name": "from",
                                "type": "address",
                                "value": "0xd294fdb0657feb5ea1865455427200476961e7f3"
                            },
                            {
                                "name": "to",
                                "type": "address",
                                "value": "0xeabf9f1122b1b73be246396cd525c244dd430a01"
                            },
                            {
                                "decimalAvailable": true,
                                "name": "amount",
                                "type": "uint256",
                                "value": "2,806,247,940,634,586,200"
                            }
                        ],
                        "signature": "Transfer(address,address,uint256)"
                    },
                    "id": 12,
                    "logData": "0x00000000000000000000000000000000000000000000000026f1cba245322c58",
                    "logDecoded": true,
                    "operation": "EVENT",
                    "revert": false,
                    "status": true,
                    "topics": [
                        "0xddf252ad1be2c89b69c2b068fc378daa952ba7f163c4a11628f55a4df523b3ef",
                        "0x000000000000000000000000d294fdb0657feb5ea1865455427200476961e7f3",
                        "0x000000000000000000000000eabf9f1122b1b73be246396cd525c244dd430a01"
                    ]
                },
                "nodeType": 1
            },
            "13": {
                "invocation": {
                    "address": "0xeabf9f1122b1b73be246396cd525c244dd430a01",
                    "callData": "0x00000000000000000000000000000000000000000000000000000000000000000000000000000000000000000000000000000000000000000000000006e5ca6e000000000000000000000000b4e16d0168e52d35cacd2c6185b44281ec28c9dc00000000000000000000000000000000000000000000000000000000000000800000000000000000000000000000000000000000000000000000000000000000",
                    "decodedMethod": {
                        "callParams": [
                            {
                                "name": "amount0Out",
                                "type": "uint256",
                                "value": "0"
                            },
                            {
                                "name": "amount1Out",
                                "type": "uint256",
                                "value": "115,722,862"
                            },
                            {
                                "name": "to",
                                "type": "address",
                                "value": "0xb4e16d0168e52d35cacd2c6185b44281ec28c9dc"
                            },
                            {
                                "name": "data",
                                "type": "bytes",
                                "value": "0x"
                            }
                        ],
                        "constructorArguments": "",
                        "name": "swap",
                        "returnParams": [],
                        "signature": "swap(uint256,uint256,address,bytes)"
                    },
                    "errorInfo": "",
                    "fromAddress": "0x7a250d5630b4cf539739df2c5dacb4c659f2488d",
                    "gasUsed": 62680,
                    "id": 13,
                    "methodDecoded": true,
                    "operation": "CALL",
                    "output": "",
                    "revert": false,
                    "revertMessage": "",
                    "selector": "0x022c0d9f",
                    "status": true,
                    "value": "0"
                },
                "nodeType": 0
            },
            "14": {
                "invocation": {
                    "address": "0xa0b86991c6218b36c1d19d4a2e9eb0ce3606eb48",
                    "callData": "0x000000000000000000000000b4e16d0168e52d35cacd2c6185b44281ec28c9dc0000000000000000000000000000000000000000000000000000000006e5ca6e",
                    "decodedMethod": {
                        "callParams": [
                            {
                                "name": "to",
                                "type": "address",
                                "value": "0xb4e16d0168e52d35cacd2c6185b44281ec28c9dc"
                            },
                            {
                                "decimalAvailable": true,
                                "name": "value",
                                "type": "uint256",
                                "value": "115,722,862"
                            }
                        ],
                        "constructorArguments": "",
                        "name": "transfer",
                        "returnParams": [
                            {
                                "name": "",
                                "type": "bool",
                                "value": true
                            }
                        ],
                        "signature": "transfer(address,uint256)"
                    },
                    "errorInfo": "",
                    "fromAddress": "0xeabf9f1122b1b73be246396cd525c244dd430a01",
                    "gasUsed": 26917,
                    "id": 14,
                    "methodDecoded": true,
                    "operation": "CALL",
                    "output": "0x0000000000000000000000000000000000000000000000000000000000000001",
                    "revert": false,
                    "revertMessage": "",
                    "selector": "0xa9059cbb",
                    "status": true,
                    "value": "0"
                },
                "nodeType": 0
            },
            "15": {
                "invocation": {
                    "address": "0xa2327a938febf5fec13bacfb16ae10ecbc4cbdcf",
                    "callData": "0x000000000000000000000000b4e16d0168e52d35cacd2c6185b44281ec28c9dc0000000000000000000000000000000000000000000000000000000006e5ca6e",
                    "decodedMethod": {
                        "callParams": [
                            {
                                "name": "to",
                                "type": "address",
                                "value": "0xb4e16d0168e52d35cacd2c6185b44281ec28c9dc"
                            },
                            {
                                "decimalAvailable": true,
                                "name": "value",
                                "type": "uint256",
                                "value": "115,722,862"
                            }
                        ],
                        "constructorArguments": "",
                        "name": "transfer",
                        "returnParams": [
                            {
                                "name": "",
                                "type": "bool",
                                "value": true
                            }
                        ],
                        "signature": "transfer(address,uint256)"
                    },
                    "errorInfo": "",
                    "fromAddress": "0xa0b86991c6218b36c1d19d4a2e9eb0ce3606eb48",
                    "gasUsed": 19628,
                    "id": 15,
                    "methodDecoded": true,
                    "operation": "DELEGATECALL",
                    "output": "0x0000000000000000000000000000000000000000000000000000000000000001",
                    "revert": false,
                    "revertMessage": "",
                    "selector": "0xa9059cbb",
                    "status": true,
                    "value": "0"
                },
                "nodeType": 0
            },
            "16": {
                "event": {
                    "contract": "0xa0b86991c6218b36c1d19d4a2e9eb0ce3606eb48",
                    "decodedLog": {
                        "name": "Transfer",
                        "params": [
                            {
                                "name": "from",
                                "type": "address",
                                "value": "0xeabf9f1122b1b73be246396cd525c244dd430a01"
                            },
                            {
                                "name": "to",
                                "type": "address",
                                "value": "0xb4e16d0168e52d35cacd2c6185b44281ec28c9dc"
                            },
                            {
                                "decimalAvailable": true,
                                "name": "value",
                                "type": "uint256",
                                "value": "115,722,862"
                            }
                        ],
                        "signature": "Transfer(address,address,uint256)"
                    },
                    "id": 16,
                    "logData": "0x0000000000000000000000000000000000000000000000000000000006e5ca6e",
                    "logDecoded": true,
                    "operation": "EVENT",
                    "revert": false,
                    "status": true,
                    "topics": [
                        "0xddf252ad1be2c89b69c2b068fc378daa952ba7f163c4a11628f55a4df523b3ef",
                        "0x000000000000000000000000eabf9f1122b1b73be246396cd525c244dd430a01",
                        "0x000000000000000000000000b4e16d0168e52d35cacd2c6185b44281ec28c9dc"
                    ]
                },
                "nodeType": 1
            },
            "17": {
                "invocation": {
                    "address": "0x77fba179c79de5b7653f68b5039af940ada60ce0",
                    "callData": "0x000000000000000000000000eabf9f1122b1b73be246396cd525c244dd430a01",
                    "decodedMethod": {
                        "callParams": [
                            {
                                "name": "account",
                                "type": "address",
                                "value": "0xeabf9f1122b1b73be246396cd525c244dd430a01"
                            }
                        ],
                        "constructorArguments": "",
                        "name": "balanceOf",
                        "returnParams": [
                            {
                                "decimalAvailable": true,
                                "name": "",
                                "type": "uint256",
                                "value": "452,027,794,348,033,378,926"
                            }
                        ],
                        "signature": "balanceOf(address)"
                    },
                    "errorInfo": "",
                    "fromAddress": "0xeabf9f1122b1b73be246396cd525c244dd430a01",
                    "gasUsed": 625,
                    "id": 17,
                    "methodDecoded": true,
                    "operation": "STATICCALL",
                    "output": "0x000000000000000000000000000000000000000000000018812554037ddb0a6e",
                    "revert": false,
                    "revertMessage": "",
                    "selector": "0x70a08231",
                    "status": true,
                    "value": "0"
                },
                "nodeType": 0
            },
            "18": {
                "invocation": {
                    "address": "0xa0b86991c6218b36c1d19d4a2e9eb0ce3606eb48",
                    "callData": "0x000000000000000000000000eabf9f1122b1b73be246396cd525c244dd430a01",
                    "decodedMethod": {
                        "callParams": [
                            {
                                "name": "account",
                                "type": "address",
                                "value": "0xeabf9f1122b1b73be246396cd525c244dd430a01"
                            }
                        ],
                        "constructorArguments": "",
                        "name": "balanceOf",
                        "returnParams": [
                            {
                                "decimalAvailable": true,
                                "name": "",
                                "type": "uint256",
                                "value": "18,580,549,232"
                            }
                        ],
                        "signature": "balanceOf(address)"
                    },
                    "errorInfo": "",
                    "fromAddress": "0xeabf9f1122b1b73be246396cd525c244dd430a01",
                    "gasUsed": 1315,
                    "id": 18,
                    "methodDecoded": true,
                    "operation": "STATICCALL",
                    "output": "0x00000000000000000000000000000000000000000000000000000004537cae70",
                    "revert": false,
                    "revertMessage": "",
                    "selector": "0x70a08231",
                    "status": true,
                    "value": "0"
                },
                "nodeType": 0
            },
            "19": {
                "invocation": {
                    "address": "0xa2327a938febf5fec13bacfb16ae10ecbc4cbdcf",
                    "callData": "0x000000000000000000000000eabf9f1122b1b73be246396cd525c244dd430a01",
                    "decodedMethod": {
                        "callParams": [
                            {
                                "name": "account",
                                "type": "address",
                                "value": "0xeabf9f1122b1b73be246396cd525c244dd430a01"
                            }
                        ],
                        "constructorArguments": "",
                        "name": "balanceOf",
                        "returnParams": [
                            {
                                "decimalAvailable": true,
                                "name": "",
                                "type": "uint256",
                                "value": "18,580,549,232"
                            }
                        ],
                        "signature": "balanceOf(address)"
                    },
                    "errorInfo": "",
                    "fromAddress": "0xa0b86991c6218b36c1d19d4a2e9eb0ce3606eb48",
                    "gasUsed": 529,
                    "id": 19,
                    "methodDecoded": true,
                    "operation": "DELEGATECALL",
                    "output": "0x00000000000000000000000000000000000000000000000000000004537cae70",
                    "revert": false,
                    "revertMessage": "",
                    "selector": "0x70a08231",
                    "status": true,
                    "value": "0"
                },
                "nodeType": 0
            },
            "2": {
                "invocation": {
                    "address": "0xadc92d1fd878580579716d944ef3460e241604b7",
                    "callData": "0x000000000000000000000000d294fdb0657feb5ea1865455427200476961e7f30000000000000000000000000000000000000000000000000000000000000003",
                    "decodedMethod": {
                        "callParams": [
                            {
                                "name": "_account",
                                "type": "address",
                                "value": "0xd294fdb0657feb5ea1865455427200476961e7f3"
                            },
                            {
                                "name": "_index",
                                "type": "uint256",
                                "value": "3"
                            }
                        ],
                        "constructorArguments": "",
                        "name": "getKeyData",
                        "returnParams": [
                            {
                                "name": "",
                                "type": "address",
                                "value": "0x133f04db74eb41c43d8c36070aa66b06011d5ea1"
                            }
                        ],
                        "signature": "getKeyData(address,uint256)"
                    },
                    "errorInfo": "",
                    "fromAddress": "0xf9bb55b6a14acd32066182f0f5f0296073f5d054",
                    "gasUsed": 1169,
                    "id": 2,
                    "methodDecoded": true,
                    "operation": "STATICCALL",
                    "output": "0x000000000000000000000000133f04db74eb41c43d8c36070aa66b06011d5ea1",
                    "revert": false,
                    "revertMessage": "",
                    "selector": "0x8d431198",
                    "status": true,
                    "value": "0"
                },
                "nodeType": 0
            },
            "20": {
                "event": {
                    "contract": "0xeabf9f1122b1b73be246396cd525c244dd430a01",
                    "decodedLog": {
                        "name": "Sync",
                        "params": [
                            {
                                "name": "reserve0",
                                "type": "uint112",
                                "value": "452,027,794,348,033,378,926"
                            },
                            {
                                "name": "reserve1",
                                "type": "uint112",
                                "value": "18,580,549,232"
                            }
                        ],
                        "signature": "Sync(uint112,uint112)"
                    },
                    "id": 20,
                    "logData": "0x000000000000000000000000000000000000000000000018812554037ddb0a6e00000000000000000000000000000000000000000000000000000004537cae70",
                    "logDecoded": true,
                    "operation": "EVENT",
                    "revert": false,
                    "status": true,
                    "topics": [
                        "0x1c411e9a96e071241c2f21f7726b17ae89e3cab4c78be50e062b03a9fffbbad1"
                    ]
                },
                "nodeType": 1
            },
            "21": {
                "event": {
                    "contract": "0xeabf9f1122b1b73be246396cd525c244dd430a01",
                    "decodedLog": {
                        "name": "Swap",
                        "params": [
                            {
                                "name": "sender",
                                "type": "address",
                                "value": "0x7a250d5630b4cf539739df2c5dacb4c659f2488d"
                            },
                            {
                                "name": "to",
                                "type": "address",
                                "value": "0xb4e16d0168e52d35cacd2c6185b44281ec28c9dc"
                            },
                            {
                                "name": "amount0In",
                                "type": "uint256",
                                "value": "2,806,247,940,634,586,200"
                            },
                            {
                                "name": "amount1In",
                                "type": "uint256",
                                "value": "0"
                            },
                            {
                                "name": "amount0Out",
                                "type": "uint256",
                                "value": "0"
                            },
                            {
                                "name": "amount1Out",
                                "type": "uint256",
                                "value": "115,722,862"
                            }
                        ],
                        "signature": "Swap(address,uint256,uint256,uint256,uint256,address)"
                    },
                    "id": 21,
                    "logData": "0x00000000000000000000000000000000000000000000000026f1cba245322c58000000000000000000000000000000000000000000000000000000000000000000000000000000000000000000000000000000000000000000000000000000000000000000000000000000000000000000000000000000000000000006e5ca6e",
                    "logDecoded": true,
                    "operation": "EVENT",
                    "revert": false,
                    "status": true,
                    "topics": [
                        "0xd78ad95fa46c994b6551d0da85fc275fe613ce37657fb8d5e3d130840159d822",
                        "0x0000000000000000000000007a250d5630b4cf539739df2c5dacb4c659f2488d",
                        "0x000000000000000000000000b4e16d0168e52d35cacd2c6185b44281ec28c9dc"
                    ]
                },
                "nodeType": 1
            },
            "22": {
                "invocation": {
                    "address": "0xb4e16d0168e52d35cacd2c6185b44281ec28c9dc",
                    "callData": "0x0000000000000000000000000000000000000000000000000000000000000000000000000000000000000000000000000000000000000000008e6758215ddc9d0000000000000000000000007a250d5630b4cf539739df2c5dacb4c659f2488d00000000000000000000000000000000000000000000000000000000000000800000000000000000000000000000000000000000000000000000000000000000",
                    "decodedMethod": {
                        "callParams": [
                            {
                                "name": "amount0Out",
                                "type": "uint256",
                                "value": "0"
                            },
                            {
                                "name": "amount1Out",
                                "type": "uint256",
                                "value": "40,083,074,907,495,581"
                            },
                            {
                                "name": "to",
                                "type": "address",
                                "value": "0x7a250d5630b4cf539739df2c5dacb4c659f2488d"
                            },
                            {
                                "name": "data",
                                "type": "bytes",
                                "value": "0x"
                            }
                        ],
                        "constructorArguments": "",
                        "name": "swap",
                        "returnParams": [],
                        "signature": "swap(uint256,uint256,address,bytes)"
                    },
                    "errorInfo": "",
                    "fromAddress": "0x7a250d5630b4cf539739df2c5dacb4c659f2488d",
                    "gasUsed": 55218,
                    "id": 22,
                    "methodDecoded": true,
                    "operation": "CALL",
                    "output": "",
                    "revert": false,
                    "revertMessage": "",
                    "selector": "0x022c0d9f",
                    "status": true,
                    "value": "0"
                },
                "nodeType": 0
            },
            "23": {
                "invocation": {
                    "address": "0xc02aaa39b223fe8d0a0e5c4f27ead9083c756cc2",
                    "callData": "0x0000000000000000000000007a250d5630b4cf539739df2c5dacb4c659f2488d000000000000000000000000000000000000000000000000008e6758215ddc9d",
                    "decodedMethod": {
                        "callParams": [
                            {
                                "name": "dst",
                                "type": "address",
                                "value": "0x7a250d5630b4cf539739df2c5dacb4c659f2488d"
                            },
                            {
                                "decimalAvailable": true,
                                "name": "wad",
                                "type": "uint256",
                                "value": "40,083,074,907,495,581"
                            }
                        ],
                        "constructorArguments": "",
                        "name": "transfer",
                        "returnParams": [
                            {
                                "name": "",
                                "type": "bool",
                                "value": true
                            }
                        ],
                        "signature": "transfer(address,uint256)"
                    },
                    "errorInfo": "",
                    "fromAddress": "0xb4e16d0168e52d35cacd2c6185b44281ec28c9dc",
                    "gasUsed": 29962,
                    "id": 23,
                    "methodDecoded": true,
                    "operation": "CALL",
                    "output": "0x0000000000000000000000000000000000000000000000000000000000000001",
                    "revert": false,
                    "revertMessage": "",
                    "selector": "0xa9059cbb",
                    "status": true,
                    "value": "0"
                },
                "nodeType": 0
            },
            "24": {
                "event": {
                    "contract": "0xc02aaa39b223fe8d0a0e5c4f27ead9083c756cc2",
                    "decodedLog": {
                        "name": "Transfer",
                        "params": [
                            {
                                "name": "src",
                                "type": "address",
                                "value": "0xb4e16d0168e52d35cacd2c6185b44281ec28c9dc"
                            },
                            {
                                "name": "dst",
                                "type": "address",
                                "value": "0x7a250d5630b4cf539739df2c5dacb4c659f2488d"
                            },
                            {
                                "decimalAvailable": true,
                                "name": "wad",
                                "type": "uint256",
                                "value": "40,083,074,907,495,581"
                            }
                        ],
                        "signature": "Transfer(address,address,uint256)"
                    },
                    "id": 24,
                    "logData": "0x000000000000000000000000000000000000000000000000008e6758215ddc9d",
                    "logDecoded": true,
                    "operation": "EVENT",
                    "revert": false,
                    "status": true,
                    "topics": [
                        "0xddf252ad1be2c89b69c2b068fc378daa952ba7f163c4a11628f55a4df523b3ef",
                        "0x000000000000000000000000b4e16d0168e52d35cacd2c6185b44281ec28c9dc",
                        "0x0000000000000000000000007a250d5630b4cf539739df2c5dacb4c659f2488d"
                    ]
                },
                "nodeType": 1
            },
            "25": {
                "invocation": {
                    "address": "0xa0b86991c6218b36c1d19d4a2e9eb0ce3606eb48",
                    "callData": "0x000000000000000000000000b4e16d0168e52d35cacd2c6185b44281ec28c9dc",
                    "decodedMethod": {
                        "callParams": [
                            {
                                "name": "account",
                                "type": "address",
                                "value": "0xb4e16d0168e52d35cacd2c6185b44281ec28c9dc"
                            }
                        ],
                        "constructorArguments": "",
                        "name": "balanceOf",
                        "returnParams": [
                            {
                                "decimalAvailable": true,
                                "name": "",
                                "type": "uint256",
                                "value": "211,756,003,053,038"
                            }
                        ],
                        "signature": "balanceOf(address)"
                    },
                    "errorInfo": "",
                    "fromAddress": "0xb4e16d0168e52d35cacd2c6185b44281ec28c9dc",
                    "gasUsed": 1315,
                    "id": 25,
                    "methodDecoded": true,
                    "operation": "STATICCALL",
                    "output": "0x0000000000000000000000000000000000000000000000000000c09749574dee",
                    "revert": false,
                    "revertMessage": "",
                    "selector": "0x70a08231",
                    "status": true,
                    "value": "0"
                },
                "nodeType": 0
            },
            "26": {
                "invocation": {
                    "address": "0xa2327a938febf5fec13bacfb16ae10ecbc4cbdcf",
                    "callData": "0x000000000000000000000000b4e16d0168e52d35cacd2c6185b44281ec28c9dc",
                    "decodedMethod": {
                        "callParams": [
                            {
                                "name": "account",
                                "type": "address",
                                "value": "0xb4e16d0168e52d35cacd2c6185b44281ec28c9dc"
                            }
                        ],
                        "constructorArguments": "",
                        "name": "balanceOf",
                        "returnParams": [
                            {
                                "decimalAvailable": true,
                                "name": "",
                                "type": "uint256",
                                "value": "211,756,003,053,038"
                            }
                        ],
                        "signature": "balanceOf(address)"
                    },
                    "errorInfo": "",
                    "fromAddress": "0xa0b86991c6218b36c1d19d4a2e9eb0ce3606eb48",
                    "gasUsed": 529,
                    "id": 26,
                    "methodDecoded": true,
                    "operation": "DELEGATECALL",
                    "output": "0x0000000000000000000000000000000000000000000000000000c09749574dee",
                    "revert": false,
                    "revertMessage": "",
                    "selector": "0x70a08231",
                    "status": true,
                    "value": "0"
                },
                "nodeType": 0
            },
            "27": {
                "invocation": {
                    "address": "0xc02aaa39b223fe8d0a0e5c4f27ead9083c756cc2",
                    "callData": "0x000000000000000000000000b4e16d0168e52d35cacd2c6185b44281ec28c9dc",
                    "decodedMethod": {
                        "callParams": [
                            {
                                "name": "",
                                "type": "address",
                                "value": "0xb4e16d0168e52d35cacd2c6185b44281ec28c9dc"
                            }
                        ],
                        "constructorArguments": "",
                        "name": "balanceOf",
                        "returnParams": [
                            {
                                "decimalAvailable": true,
                                "name": "",
                                "type": "uint256",
                                "value": "73,566,856,612,527,220,233,415"
                            }
                        ],
                        "signature": "balanceOf(address)"
                    },
                    "errorInfo": "",
                    "fromAddress": "0xb4e16d0168e52d35cacd2c6185b44281ec28c9dc",
                    "gasUsed": 534,
                    "id": 27,
                    "methodDecoded": true,
                    "operation": "STATICCALL",
                    "output": "0x000000000000000000000000000000000000000000000f941139cb2ea5d494c7",
                    "revert": false,
                    "revertMessage": "",
                    "selector": "0x70a08231",
                    "status": true,
                    "value": "0"
                },
                "nodeType": 0
            },
            "28": {
                "event": {
                    "contract": "0xb4e16d0168e52d35cacd2c6185b44281ec28c9dc",
                    "decodedLog": {
                        "name": "Sync",
                        "params": [
                            {
                                "name": "reserve0",
                                "type": "uint112",
                                "value": "211,756,003,053,038"
                            },
                            {
                                "name": "reserve1",
                                "type": "uint112",
                                "value": "73,566,856,612,527,220,233,415"
                            }
                        ],
                        "signature": "Sync(uint112,uint112)"
                    },
                    "id": 28,
                    "logData": "0x0000000000000000000000000000000000000000000000000000c09749574dee000000000000000000000000000000000000000000000f941139cb2ea5d494c7",
                    "logDecoded": true,
                    "operation": "EVENT",
                    "revert": false,
                    "status": true,
                    "topics": [
                        "0x1c411e9a96e071241c2f21f7726b17ae89e3cab4c78be50e062b03a9fffbbad1"
                    ]
                },
                "nodeType": 1
            },
            "29": {
                "event": {
                    "contract": "0xb4e16d0168e52d35cacd2c6185b44281ec28c9dc",
                    "decodedLog": {
                        "name": "Swap",
                        "params": [
                            {
                                "name": "sender",
                                "type": "address",
                                "value": "0x7a250d5630b4cf539739df2c5dacb4c659f2488d"
                            },
                            {
                                "name": "to",
                                "type": "address",
                                "value": "0x7a250d5630b4cf539739df2c5dacb4c659f2488d"
                            },
                            {
                                "name": "amount0In",
                                "type": "uint256",
                                "value": "115,722,862"
                            },
                            {
                                "name": "amount1In",
                                "type": "uint256",
                                "value": "0"
                            },
                            {
                                "name": "amount0Out",
                                "type": "uint256",
                                "value": "0"
                            },
                            {
                                "name": "amount1Out",
                                "type": "uint256",
                                "value": "40,083,074,907,495,581"
                            }
                        ],
                        "signature": "Swap(address,uint256,uint256,uint256,uint256,address)"
                    },
                    "id": 29,
                    "logData": "0x0000000000000000000000000000000000000000000000000000000006e5ca6e00000000000000000000000000000000000000000000000000000000000000000000000000000000000000000000000000000000000000000000000000000000000000000000000000000000000000000000000000000000008e6758215ddc9d",
                    "logDecoded": true,
                    "operation": "EVENT",
                    "revert": false,
                    "status": true,
                    "topics": [
                        "0xd78ad95fa46c994b6551d0da85fc275fe613ce37657fb8d5e3d130840159d822",
                        "0x0000000000000000000000007a250d5630b4cf539739df2c5dacb4c659f2488d",
                        "0x0000000000000000000000007a250d5630b4cf539739df2c5dacb4c659f2488d"
                    ]
                },
                "nodeType": 1
            },
            "3": {
                "invocation": {
                    "address": "0x0000000000000000000000000000000000000001",
                    "callData": "0x7609f7e362c65c034e07dd33c6a78c1ab18368697fac86b0e78b22c9000000000000000000000000000000000000000000000000000000000000001cda9b066d62258e134eb0252912344fd5fe9077cc822fdfc6b91e7a5076ef0c4f4a60da0c3614248c644e2853dfbdfe428eb9ff93a8e49d3341484f4f6bb66414",
                    "decodedMethod": {
                        "callParams": [
                            {
                                "name": "hash",
                                "type": "bytes32",
                                "value": "0xff37be197609f7e362c65c034e07dd33c6a78c1ab18368697fac86b0e78b22c9"
                            },
                            {
                                "name": "v",
                                "type": "uint256",
                                "value": "28"
                            },
                            {
                                "name": "r",
                                "type": "bytes32",
                                "value": "0xda9b066d62258e134eb0252912344fd5fe9077cc822fdfc6b91e7a5076ef0c4f"
                            },
                            {
                                "name": "s",
                                "type": "bytes32",
                                "value": "0x4a60da0c3614248c644e2853dfbdfe428eb9ff93a8e49d3341484f4f6bb66414"
                            }
                        ],
                        "constructorArguments": "",
                        "name": "ecrecover",
                        "returnParams": [
                            {
                                "name": "",
                                "type": "address",
                                "value": "0x133f04db74eb41c43d8c36070aa66b06011d5ea1"
                            }
                        ],
                        "signature": "ecrecover(bytes32,uint256,bytes32,bytes32)"
                    },
                    "errorInfo": "",
                    "fromAddress": "0xf9bb55b6a14acd32066182f0f5f0296073f5d054",
                    "gasUsed": 3000,
                    "id": 3,
                    "methodDecoded": true,
                    "operation": "STATICCALL",
                    "output": "0x000000000000000000000000133f04db74eb41c43d8c36070aa66b06011d5ea1",
                    "revert": false,
                    "revertMessage": "",
                    "selector": "0xff37be19",
                    "status": true,
                    "value": "0"
                },
                "nodeType": 0
            },
            "30": {
                "invocation": {
                    "address": "0xc02aaa39b223fe8d0a0e5c4f27ead9083c756cc2",
                    "callData": "0x000000000000000000000000000000000000000000000000008e6758215ddc9d",
                    "decodedMethod": {
                        "callParams": [
                            {
                                "name": "wad",
                                "type": "uint256",
                                "value": "40,083,074,907,495,581"
                            }
                        ],
                        "constructorArguments": "",
                        "name": "withdraw",
                        "returnParams": [],
                        "signature": "withdraw(uint256)"
                    },
                    "errorInfo": "",
                    "fromAddress": "0x7a250d5630b4cf539739df2c5dacb4c659f2488d",
                    "gasUsed": 9223,
                    "id": 30,
                    "methodDecoded": true,
                    "operation": "CALL",
                    "output": "",
                    "revert": false,
                    "revertMessage": "",
                    "selector": "0x2e1a7d4d",
                    "status": true,
                    "value": "0"
                },
                "nodeType": 0
            },
            "31": {
                "invocation": {
                    "address": "0x7a250d5630b4cf539739df2c5dacb4c659f2488d",
                    "callData": "0x",
                    "decodedMethod": null,
                    "errorInfo": "",
                    "fromAddress": "0xc02aaa39b223fe8d0a0e5c4f27ead9083c756cc2",
                    "gasUsed": 83,
                    "id": 31,
                    "methodDecoded": false,
                    "operation": "CALL",
                    "output": "",
                    "revert": false,
                    "revertMessage": "",
                    "selector": "fallback",
                    "status": true,
                    "value": "0.040083074907495581"
                },
                "nodeType": 0
            },
            "32": {
                "event": {
                    "contract": "0xc02aaa39b223fe8d0a0e5c4f27ead9083c756cc2",
                    "decodedLog": {
                        "name": "Withdrawal",
                        "params": [
                            {
                                "name": "src",
                                "type": "address",
                                "value": "0x7a250d5630b4cf539739df2c5dacb4c659f2488d"
                            },
                            {
                                "name": "wad",
                                "type": "uint256",
                                "value": "40,083,074,907,495,581"
                            }
                        ],
                        "signature": "Withdrawal(address,uint256)"
                    },
                    "id": 32,
                    "logData": "0x000000000000000000000000000000000000000000000000008e6758215ddc9d",
                    "logDecoded": true,
                    "operation": "EVENT",
                    "revert": false,
                    "status": true,
                    "topics": [
                        "0x7fcf532c15f0a6db0bd6d0e038bea71d30d808c7d98cb3bf7268a95bf5081b65",
                        "0x0000000000000000000000007a250d5630b4cf539739df2c5dacb4c659f2488d"
                    ]
                },
                "nodeType": 1
            },
            "33": {
                "invocation": {
                    "address": "0xd294fdb0657feb5ea1865455427200476961e7f3",
                    "callData": "0x",
                    "decodedMethod": null,
                    "errorInfo": "",
                    "fromAddress": "0x7a250d5630b4cf539739df2c5dacb4c659f2488d",
                    "gasUsed": 2276,
                    "id": 33,
                    "methodDecoded": false,
                    "operation": "CALL",
                    "output": "",
                    "revert": false,
                    "revertMessage": "",
                    "selector": "fallback",
                    "status": true,
                    "value": "0.040083074907495581"
                },
                "nodeType": 0
            },
            "34": {
                "event": {
                    "contract": "0xd294fdb0657feb5ea1865455427200476961e7f3",
                    "decodedLog": {
                        "name": "Received",
                        "params": [
                            {
                                "name": "value",
                                "type": "uint256",
                                "value": "40,083,074,907,495,581"
                            },
                            {
                                "name": "sender",
                                "type": "address",
                                "value": "0x7a250d5630b4cf539739df2c5dacb4c659f2488d"
                            },
                            {
                                "name": "data",
                                "type": "bytes",
                                "value": "0x"
                            }
                        ],
                        "signature": "Received(uint256,address,bytes)"
                    },
                    "id": 34,
                    "logData": "0x00000000000000000000000000000000000000000000000000000000000000200000000000000000000000000000000000000000000000000000000000000000",
                    "logDecoded": true,
                    "operation": "EVENT",
                    "revert": false,
                    "status": true,
                    "topics": [
                        "0x606834f57405380c4fb88d1f4850326ad3885f014bab3b568dfbf7a041eef738",
                        "0x000000000000000000000000000000000000000000000000008e6758215ddc9d",
                        "0x0000000000000000000000007a250d5630b4cf539739df2c5dacb4c659f2488d"
                    ]
                },
                "nodeType": 1
            },
            "35": {
                "event": {
                    "contract": "0xd294fdb0657feb5ea1865455427200476961e7f3",
                    "decodedLog": {
                        "name": "Invoked",
                        "params": [
                            {
                                "name": "module",
                                "type": "address",
                                "value": "0xf9bb55b6a14acd32066182f0f5f0296073f5d054"
                            },
                            {
                                "name": "target",
                                "type": "address",
                                "value": "0x7a250d5630b4cf539739df2c5dacb4c659f2488d"
                            },
                            {
                                "name": "value",
                                "type": "uint256",
                                "value": "0"
                            },
                            {
                                "name": "data",
                                "type": "bytes",
                                "value": "0x18cbafe500000000000000000000000000000000000000000000000026f1cba245322c58000000000000000000000000000000000000000000000000008dae48d03f017800000000000000000000000000000000000000000000000000000000000000a0000000000000000000000000d294fdb0657feb5ea1865455427200476961e7f300000000000000000000000000000000000000000000000000000000608e7315000000000000000000000000000000000000000000000000000000000000000300000000000000000000000077fba179c79de5b7653f68b5039af940ada60ce0000000000000000000000000a0b86991c6218b36c1d19d4a2e9eb0ce3606eb48000000000000000000000000c02aaa39b223fe8d0a0e5c4f27ead9083c756cc2"
                            }
                        ],
                        "signature": "Invoked(address,address,uint256,bytes)"
                    },
                    "id": 35,
                    "logData": "0x0000000000000000000000000000000000000000000000000000000000000020000000000000000000000000000000000000000000000000000000000000012418cbafe500000000000000000000000000000000000000000000000026f1cba245322c58000000000000000000000000000000000000000000000000008dae48d03f017800000000000000000000000000000000000000000000000000000000000000a0000000000000000000000000d294fdb0657feb5ea1865455427200476961e7f300000000000000000000000000000000000000000000000000000000608e7315000000000000000000000000000000000000000000000000000000000000000300000000000000000000000077fba179c79de5b7653f68b5039af940ada60ce0000000000000000000000000a0b86991c6218b36c1d19d4a2e9eb0ce3606eb48000000000000000000000000c02aaa39b223fe8d0a0e5c4f27ead9083c756cc200000000000000000000000000000000000000000000000000000000",
                    "logDecoded": true,
                    "operation": "EVENT",
                    "revert": false,
                    "status": true,
                    "topics": [
                        "0x7d2476ab50663f025cff0be85655bcf355f62768615c0c478f3cd5293f807365",
                        "0x000000000000000000000000f9bb55b6a14acd32066182f0f5f0296073f5d054",
                        "0x0000000000000000000000007a250d5630b4cf539739df2c5dacb4c659f2488d",
                        "0x0000000000000000000000000000000000000000000000000000000000000000"
                    ]
                },
                "nodeType": 1
            },
            "36": {
                "event": {
                    "contract": "0xf9bb55b6a14acd32066182f0f5f0296073f5d054",
                    "decodedLog": {
                        "name": "DappLogicEntered",
                        "params": [
                            {
                                "name": "nonce",
                                "type": "uint256",
                                "value": "1,619,947,157,534,087"
                            },
                            {
                                "name": "data",
                                "type": "bytes",
                                "value": "0xfd6ac309000000000000000000000000d294fdb0657feb5ea1865455427200476961e7f30000000000000000000000007a250d5630b4cf539739df2c5dacb4c659f2488d00000000000000000000000000000000000000000000000000000000000000000000000000000000000000000000000000000000000000000000000000000080000000000000000000000000000000000000000000000000000000000000012418cbafe500000000000000000000000000000000000000000000000026f1cba245322c58000000000000000000000000000000000000000000000000008dae48d03f017800000000000000000000000000000000000000000000000000000000000000a0000000000000000000000000d294fdb0657feb5ea1865455427200476961e7f300000000000000000000000000000000000000000000000000000000608e7315000000000000000000000000000000000000000000000000000000000000000300000000000000000000000077fba179c79de5b7653f68b5039af940ada60ce0000000000000000000000000a0b86991c6218b36c1d19d4a2e9eb0ce3606eb48000000000000000000000000c02aaa39b223fe8d0a0e5c4f27ead9083c756cc200000000000000000000000000000000000000000000000000000000"
                            }
                        ],
                        "signature": "DappLogicEntered(bytes,uint256)"
                    },
                    "id": 36,
                    "logData": "0x000000000000000000000000000000000000000000000000000000000000002000000000000000000000000000000000000000000000000000000000000001e4fd6ac309000000000000000000000000d294fdb0657feb5ea1865455427200476961e7f30000000000000000000000007a250d5630b4cf539739df2c5dacb4c659f2488d00000000000000000000000000000000000000000000000000000000000000000000000000000000000000000000000000000000000000000000000000000080000000000000000000000000000000000000000000000000000000000000012418cbafe500000000000000000000000000000000000000000000000026f1cba245322c58000000000000000000000000000000000000000000000000008dae48d03f017800000000000000000000000000000000000000000000000000000000000000a0000000000000000000000000d294fdb0657feb5ea1865455427200476961e7f300000000000000000000000000000000000000000000000000000000608e7315000000000000000000000000000000000000000000000000000000000000000300000000000000000000000077fba179c79de5b7653f68b5039af940ada60ce0000000000000000000000000a0b86991c6218b36c1d19d4a2e9eb0ce3606eb48000000000000000000000000c02aaa39b223fe8d0a0e5c4f27ead9083c756cc20000000000000000000000000000000000000000000000000000000000000000000000000000000000000000000000000000000000000000",
                    "logDecoded": true,
                    "operation": "EVENT",
                    "revert": false,
                    "status": true,
                    "topics": [
                        "0x79fe4c2a6e16a232d5cec08cce7e3fd31c0535038f359907c16fbf8ca69e7e9b",
                        "0x0000000000000000000000000000000000000000000000000005c15556e13587"
                    ]
                },
                "nodeType": 1
            },
            "4": {
                "invocation": {
                    "address": "0xf9bb55b6a14acd32066182f0f5f0296073f5d054",
                    "callData": "0x000000000000000000000000d294fdb0657feb5ea1865455427200476961e7f30000000000000000000000007a250d5630b4cf539739df2c5dacb4c659f2488d00000000000000000000000000000000000000000000000000000000000000000000000000000000000000000000000000000000000000000000000000000080000000000000000000000000000000000000000000000000000000000000012418cbafe500000000000000000000000000000000000000000000000026f1cba245322c58000000000000000000000000000000000000000000000000008dae48d03f017800000000000000000000000000000000000000000000000000000000000000a0000000000000000000000000d294fdb0657feb5ea1865455427200476961e7f300000000000000000000000000000000000000000000000000000000608e7315000000000000000000000000000000000000000000000000000000000000000300000000000000000000000077fba179c79de5b7653f68b5039af940ada60ce0000000000000000000000000a0b86991c6218b36c1d19d4a2e9eb0ce3606eb48000000000000000000000000c02aaa39b223fe8d0a0e5c4f27ead9083c756cc200000000000000000000000000000000000000000000000000000000",
                    "decodedMethod": {
                        "callParams": [
                            {
                                "name": "_account",
                                "type": "address",
                                "value": "0xd294fdb0657feb5ea1865455427200476961e7f3"
                            },
                            {
                                "name": "_target",
                                "type": "address",
                                "value": "0x7a250d5630b4cf539739df2c5dacb4c659f2488d"
                            },
                            {
                                "name": "_value",
                                "type": "uint256",
                                "value": "0"
                            },
                            {
                                "name": "_methodData",
                                "type": "bytes",
                                "value": "0x18cbafe500000000000000000000000000000000000000000000000026f1cba245322c58000000000000000000000000000000000000000000000000008dae48d03f017800000000000000000000000000000000000000000000000000000000000000a0000000000000000000000000d294fdb0657feb5ea1865455427200476961e7f300000000000000000000000000000000000000000000000000000000608e7315000000000000000000000000000000000000000000000000000000000000000300000000000000000000000077fba179c79de5b7653f68b5039af940ada60ce0000000000000000000000000a0b86991c6218b36c1d19d4a2e9eb0ce3606eb48000000000000000000000000c02aaa39b223fe8d0a0e5c4f27ead9083c756cc2"
                            }
                        ],
                        "constructorArguments": "",
                        "name": "callContract",
                        "returnParams": [],
                        "signature": "callContract(address,address,uint256,bytes)"
                    },
                    "errorInfo": "",
                    "fromAddress": "0xf9bb55b6a14acd32066182f0f5f0296073f5d054",
                    "gasUsed": 210388,
                    "id": 4,
                    "methodDecoded": true,
                    "operation": "CALL",
                    "output": "",
                    "revert": false,
                    "revertMessage": "",
                    "selector": "0xfd6ac309",
                    "status": true,
                    "value": "0"
                },
                "nodeType": 0
            },
            "5": {
                "invocation": {
                    "address": "0xd294fdb0657feb5ea1865455427200476961e7f3",
                    "callData": "0x0000000000000000000000007a250d5630b4cf539739df2c5dacb4c659f2488d00000000000000000000000000000000000000000000000000000000000000000000000000000000000000000000000000000000000000000000000000000060000000000000000000000000000000000000000000000000000000000000012418cbafe500000000000000000000000000000000000000000000000026f1cba245322c58000000000000000000000000000000000000000000000000008dae48d03f017800000000000000000000000000000000000000000000000000000000000000a0000000000000000000000000d294fdb0657feb5ea1865455427200476961e7f300000000000000000000000000000000000000000000000000000000608e7315000000000000000000000000000000000000000000000000000000000000000300000000000000000000000077fba179c79de5b7653f68b5039af940ada60ce0000000000000000000000000a0b86991c6218b36c1d19d4a2e9eb0ce3606eb48000000000000000000000000c02aaa39b223fe8d0a0e5c4f27ead9083c756cc200000000000000000000000000000000000000000000000000000000",
                    "decodedMethod": {
                        "callParams": [
                            {
                                "name": "_target",
                                "type": "address",
                                "value": "0x7a250d5630b4cf539739df2c5dacb4c659f2488d"
                            },
                            {
                                "name": "_value",
                                "type": "uint256",
                                "value": "0"
                            },
                            {
                                "name": "_data",
                                "type": "bytes",
                                "value": "0x18cbafe500000000000000000000000000000000000000000000000026f1cba245322c58000000000000000000000000000000000000000000000000008dae48d03f017800000000000000000000000000000000000000000000000000000000000000a0000000000000000000000000d294fdb0657feb5ea1865455427200476961e7f300000000000000000000000000000000000000000000000000000000608e7315000000000000000000000000000000000000000000000000000000000000000300000000000000000000000077fba179c79de5b7653f68b5039af940ada60ce0000000000000000000000000a0b86991c6218b36c1d19d4a2e9eb0ce3606eb48000000000000000000000000c02aaa39b223fe8d0a0e5c4f27ead9083c756cc2"
                            }
                        ],
                        "constructorArguments": "",
                        "name": "invoke",
                        "returnParams": [
                            {
                                "name": "_res",
                                "type": "bytes",
                                "value": "0x0000000000000000000000000000000000000000000000000000000000000020000000000000000000000000000000000000000000000000000000000000000300000000000000000000000000000000000000000000000026f1cba245322c580000000000000000000000000000000000000000000000000000000006e5ca6e000000000000000000000000000000000000000000000000008e6758215ddc9d"
                            }
                        ],
                        "signature": "invoke(address,uint256,bytes)"
                    },
                    "errorInfo": "",
                    "fromAddress": "0xf9bb55b6a14acd32066182f0f5f0296073f5d054",
                    "gasUsed": 204986,
                    "id": 5,
                    "methodDecoded": true,
                    "operation": "CALL",
                    "output": "0x000000000000000000000000000000000000000000000000000000000000002000000000000000000000000000000000000000000000000000000000000000a00000000000000000000000000000000000000000000000000000000000000020000000000000000000000000000000000000000000000000000000000000000300000000000000000000000000000000000000000000000026f1cba245322c580000000000000000000000000000000000000000000000000000000006e5ca6e000000000000000000000000000000000000000000000000008e6758215ddc9d",
                    "revert": false,
                    "revertMessage": "",
                    "selector": "0x8f6f0332",
                    "status": true,
                    "value": "0"
                },
                "nodeType": 0
            },
            "6": {
                "invocation": {
                    "address": "0xef004d954999eb9162aeb3989279eff2161d5095",
                    "callData": "0x0000000000000000000000007a250d5630b4cf539739df2c5dacb4c659f2488d00000000000000000000000000000000000000000000000000000000000000000000000000000000000000000000000000000000000000000000000000000060000000000000000000000000000000000000000000000000000000000000012418cbafe500000000000000000000000000000000000000000000000026f1cba245322c58000000000000000000000000000000000000000000000000008dae48d03f017800000000000000000000000000000000000000000000000000000000000000a0000000000000000000000000d294fdb0657feb5ea1865455427200476961e7f300000000000000000000000000000000000000000000000000000000608e7315000000000000000000000000000000000000000000000000000000000000000300000000000000000000000077fba179c79de5b7653f68b5039af940ada60ce0000000000000000000000000a0b86991c6218b36c1d19d4a2e9eb0ce3606eb48000000000000000000000000c02aaa39b223fe8d0a0e5c4f27ead9083c756cc200000000000000000000000000000000000000000000000000000000",
                    "decodedMethod": {
                        "callParams": [
                            {
                                "name": "_target",
                                "type": "address",
                                "value": "0x7a250d5630b4cf539739df2c5dacb4c659f2488d"
                            },
                            {
                                "name": "_value",
                                "type": "uint256",
                                "value": "0"
                            },
                            {
                                "name": "_data",
                                "type": "bytes",
                                "value": "0x18cbafe500000000000000000000000000000000000000000000000026f1cba245322c58000000000000000000000000000000000000000000000000008dae48d03f017800000000000000000000000000000000000000000000000000000000000000a0000000000000000000000000d294fdb0657feb5ea1865455427200476961e7f300000000000000000000000000000000000000000000000000000000608e7315000000000000000000000000000000000000000000000000000000000000000300000000000000000000000077fba179c79de5b7653f68b5039af940ada60ce0000000000000000000000000a0b86991c6218b36c1d19d4a2e9eb0ce3606eb48000000000000000000000000c02aaa39b223fe8d0a0e5c4f27ead9083c756cc2"
                            }
                        ],
                        "constructorArguments": "",
                        "name": "invoke",
                        "returnParams": [
                            {
                                "name": "_res",
                                "type": "bytes",
                                "value": "0x0000000000000000000000000000000000000000000000000000000000000020000000000000000000000000000000000000000000000000000000000000000300000000000000000000000000000000000000000000000026f1cba245322c580000000000000000000000000000000000000000000000000000000006e5ca6e000000000000000000000000000000000000000000000000008e6758215ddc9d"
                            }
                        ],
                        "signature": "invoke(address,uint256,bytes)"
                    },
                    "errorInfo": "",
                    "fromAddress": "0xd294fdb0657feb5ea1865455427200476961e7f3",
                    "gasUsed": 200056,
                    "id": 6,
                    "methodDecoded": true,
                    "operation": "DELEGATECALL",
                    "output": "0x000000000000000000000000000000000000000000000000000000000000002000000000000000000000000000000000000000000000000000000000000000a00000000000000000000000000000000000000000000000000000000000000020000000000000000000000000000000000000000000000000000000000000000300000000000000000000000000000000000000000000000026f1cba245322c580000000000000000000000000000000000000000000000000000000006e5ca6e000000000000000000000000000000000000000000000000008e6758215ddc9d",
                    "revert": false,
                    "revertMessage": "",
                    "selector": "0x8f6f0332",
                    "status": true,
                    "value": "0"
                },
                "nodeType": 0
            },
            "7": {
                "invocation": {
                    "address": "0xdf8ac96bc9198c610285b3d1b29de09621b04528",
                    "callData": "0x000000000000000000000000f9bb55b6a14acd32066182f0f5f0296073f5d054",
                    "decodedMethod": {
                        "callParams": [
                            {
                                "name": "_logic",
                                "type": "address",
                                "value": "0xf9bb55b6a14acd32066182f0f5f0296073f5d054"
                            }
                        ],
                        "constructorArguments": "",
                        "name": "isAuthorized",
                        "returnParams": [
                            {
                                "name": "",
                                "type": "bool",
                                "value": true
                            }
                        ],
                        "signature": "isAuthorized(address)"
                    },
                    "errorInfo": "",
                    "fromAddress": "0xd294fdb0657feb5ea1865455427200476961e7f3",
                    "gasUsed": 2661,
                    "id": 7,
                    "methodDecoded": true,
                    "operation": "STATICCALL",
                    "output": "0x0000000000000000000000000000000000000000000000000000000000000001",
                    "revert": false,
                    "revertMessage": "",
                    "selector": "0xfe9fbb80",
                    "status": true,
                    "value": "0"
                },
                "nodeType": 0
            },
            "8": {
                "invocation": {
                    "address": "0x7a250d5630b4cf539739df2c5dacb4c659f2488d",
                    "callData": "0x00000000000000000000000000000000000000000000000026f1cba245322c58000000000000000000000000000000000000000000000000008dae48d03f017800000000000000000000000000000000000000000000000000000000000000a0000000000000000000000000d294fdb0657feb5ea1865455427200476961e7f300000000000000000000000000000000000000000000000000000000608e7315000000000000000000000000000000000000000000000000000000000000000300000000000000000000000077fba179c79de5b7653f68b5039af940ada60ce0000000000000000000000000a0b86991c6218b36c1d19d4a2e9eb0ce3606eb48000000000000000000000000c02aaa39b223fe8d0a0e5c4f27ead9083c756cc2",
                    "decodedMethod": {
                        "callParams": [
                            {
                                "name": "amountIn",
                                "type": "uint256",
                                "value": "2,806,247,940,634,586,200"
                            },
                            {
                                "name": "amountOutMin",
                                "type": "uint256",
                                "value": "39,879,599,470,870,904"
                            },
                            {
                                "name": "path",
                                "type": "address[]",
                                "value": [
                                    "0x77fba179c79de5b7653f68b5039af940ada60ce0",
                                    "0xa0b86991c6218b36c1d19d4a2e9eb0ce3606eb48",
                                    "0xc02aaa39b223fe8d0a0e5c4f27ead9083c756cc2"
                                ]
                            },
                            {
                                "name": "to",
                                "type": "address",
                                "value": "0xd294fdb0657feb5ea1865455427200476961e7f3"
                            },
                            {
                                "name": "deadline",
                                "type": "uint256",
                                "value": "1,619,948,309"
                            }
                        ],
                        "constructorArguments": "",
                        "name": "swapExactTokensForETH",
                        "returnParams": [
                            {
                                "name": "amounts",
                                "type": "uint256[]",
                                "value": [
                                    "2,806,247,940,634,586,200",
                                    "115,722,862",
                                    "40,083,074,907,495,581"
                                ]
                            }
                        ],
                        "signature": "swapExactTokensForETH(uint256,uint256,address[],address,uint256)"
                    },
                    "errorInfo": "",
                    "fromAddress": "0xd294fdb0657feb5ea1865455427200476961e7f3",
                    "gasUsed": 182849,
                    "id": 8,
                    "methodDecoded": true,
                    "operation": "CALL",
                    "output": "0x0000000000000000000000000000000000000000000000000000000000000020000000000000000000000000000000000000000000000000000000000000000300000000000000000000000000000000000000000000000026f1cba245322c580000000000000000000000000000000000000000000000000000000006e5ca6e000000000000000000000000000000000000000000000000008e6758215ddc9d",
                    "revert": false,
                    "revertMessage": "",
                    "selector": "0x18cbafe5",
                    "status": true,
                    "value": "0"
                },
                "nodeType": 0
            },
            "9": {
                "invocation": {
                    "address": "0xeabf9f1122b1b73be246396cd525c244dd430a01",
                    "callData": "0x",
                    "decodedMethod": {
                        "callParams": [],
                        "constructorArguments": "",
                        "name": "getReserves",
                        "returnParams": [
                            {
                                "name": "_reserve0",
                                "type": "uint112",
                                "value": "449,221,546,407,398,792,726"
                            },
                            {
                                "name": "_reserve1",
                                "type": "uint112",
                                "value": "18,696,272,094"
                            },
                            {
                                "name": "_blockTimestampLast",
                                "type": "uint32",
                                "value": "1,619,940,055"
                            }
                        ],
                        "signature": "getReserves()"
                    },
                    "errorInfo": "",
                    "fromAddress": "0x7a250d5630b4cf539739df2c5dacb4c659f2488d",
                    "gasUsed": 2504,
                    "id": 9,
                    "methodDecoded": true,
                    "operation": "STATICCALL",
                    "output": "0x0000000000000000000000000000000000000000000000185a33886138a8de16000000000000000000000000000000000000000000000000000000045a6278de00000000000000000000000000000000000000000000000000000000608e52d7",
                    "revert": false,
                    "revertMessage": "",
                    "selector": "0x0902f1ac",
                    "status": true,
                    "value": "0"
                },
                "nodeType": 0
            }
        },
        "gasFlame": [
            {
                "children": [
                    {
                        "children": [
                            {
                                "children": [],
                                "depth": 0,
                                "name": "Initial Gas",
                                "value": 26872
                            },
                            {
                                "children": [
                                    {
                                        "children": [],
                                        "depth": 1,
                                        "name": "getKeyStatus",
                                        "value": 5077
                                    },
                                    {
                                        "children": [],
                                        "depth": 1,
                                        "name": "getKeyData",
                                        "value": 1169
                                    },
                                    {
                                        "children": [],
                                        "depth": 1,
                                        "name": "ecrecover",
                                        "value": 3000
                                    },
                                    {
                                        "children": [
                                            {
                                                "children": [
                                                    {
                                                        "children": [
                                                            {
                                                                "children": [],
                                                                "depth": 4,
                                                                "name": "isAuthorized",
                                                                "value": 2661
                                                            },
                                                            {
                                                                "children": [
                                                                    {
                                                                        "children": [],
                                                                        "depth": 5,
                                                                        "name": "getReserves",
                                                                        "value": 2504
                                                                    },
                                                                    {
                                                                        "children": [],
                                                                        "depth": 5,
                                                                        "name": "getReserves",
                                                                        "value": 2504
                                                                    },
                                                                    {
                                                                        "children": [],
                                                                        "depth": 5,
                                                                        "name": "transferFrom",
                                                                        "value": 20487
                                                                    },
                                                                    {
                                                                        "children": [
                                                                            {
                                                                                "children": [
                                                                                    {
                                                                                        "children": [],
                                                                                        "depth": 7,
                                                                                        "name": "transfer",
                                                                                        "value": 19628
                                                                                    }
                                                                                ],
                                                                                "depth": 6,
                                                                                "name": "transfer",
                                                                                "value": 26917
                                                                            },
                                                                            {
                                                                                "children": [],
                                                                                "depth": 6,
                                                                                "name": "balanceOf",
                                                                                "value": 625
                                                                            },
                                                                            {
                                                                                "children": [
                                                                                    {
                                                                                        "children": [],
                                                                                        "depth": 7,
                                                                                        "name": "balanceOf",
                                                                                        "value": 529
                                                                                    }
                                                                                ],
                                                                                "depth": 6,
                                                                                "name": "balanceOf",
                                                                                "value": 1315
                                                                            }
                                                                        ],
                                                                        "depth": 5,
                                                                        "name": "swap",
                                                                        "value": 62680
                                                                    },
                                                                    {
                                                                        "children": [
                                                                            {
                                                                                "children": [],
                                                                                "depth": 6,
                                                                                "name": "transfer",
                                                                                "value": 29962
                                                                            },
                                                                            {
                                                                                "children": [
                                                                                    {
                                                                                        "children": [],
                                                                                        "depth": 7,
                                                                                        "name": "balanceOf",
                                                                                        "value": 529
                                                                                    }
                                                                                ],
                                                                                "depth": 6,
                                                                                "name": "balanceOf",
                                                                                "value": 1315
                                                                            },
                                                                            {
                                                                                "children": [],
                                                                                "depth": 6,
                                                                                "name": "balanceOf",
                                                                                "value": 534
                                                                            }
                                                                        ],
                                                                        "depth": 5,
                                                                        "name": "swap",
                                                                        "value": 55218
                                                                    },
                                                                    {
                                                                        "children": [
                                                                            {
                                                                                "children": [],
                                                                                "depth": 6,
                                                                                "name": "fallback",
                                                                                "value": 83
                                                                            }
                                                                        ],
                                                                        "depth": 5,
                                                                        "name": "withdraw",
                                                                        "value": 9223
                                                                    },
                                                                    {
                                                                        "children": [],
                                                                        "depth": 5,
                                                                        "name": "fallback",
                                                                        "value": 2276
                                                                    }
                                                                ],
                                                                "depth": 4,
                                                                "name": "swapExactTokensForETH",
                                                                "value": 182849
                                                            }
                                                        ],
                                                        "depth": 3,
                                                        "name": "invoke",
                                                        "value": 200056
                                                    }
                                                ],
                                                "depth": 2,
                                                "name": "invoke",
                                                "value": 204986
                                            }
                                        ],
                                        "depth": 1,
                                        "name": "callContract",
                                        "value": 210388
                                    }
                                ],
                                "depth": 0,
                                "name": "Executed Gas",
                                "value": 241827
                            }
                        ],
                        "depth": -1,
                        "name": "Actual Gas Used",
                        "value": 228199
                    },
                    {
                        "children": [],
                        "depth": -1,
                        "name": "Refunded Gas",
                        "value": 40500
                    }
                ],
                "depth": -2,
                "name": "Total Gas",
                "value": 268699
            }
        ],
        "isConfirmed": true,
        "mainTrace": [
            {
                "children": [
                    {
                        "children": [
                            {
                                "children": [],
                                "depth": 1,
                                "id": 1,
                                "order": 1
                            },
                            {
                                "children": [],
                                "depth": 1,
                                "id": 2,
                                "order": 2
                            },
                            {
                                "children": [],
                                "depth": 1,
                                "id": 3,
                                "order": 3
                            },
                            {
                                "children": [
                                    {
                                        "children": [
                                            {
                                                "children": [
                                                    {
                                                        "children": [],
                                                        "depth": 4,
                                                        "id": 7,
                                                        "order": 7
                                                    },
                                                    {
                                                        "children": [
                                                            {
                                                                "children": [],
                                                                "depth": 5,
                                                                "id": 9,
                                                                "order": 9
                                                            },
                                                            {
                                                                "children": [],
                                                                "depth": 5,
                                                                "id": 10,
                                                                "order": 10
                                                            },
                                                            {
                                                                "children": [
                                                                    {
                                                                        "children": [],
                                                                        "depth": 6,
                                                                        "id": 12,
                                                                        "order": 12
                                                                    }
                                                                ],
                                                                "depth": 5,
                                                                "id": 11,
                                                                "order": 11
                                                            },
                                                            {
                                                                "children": [
                                                                    {
                                                                        "children": [
                                                                            {
                                                                                "children": [
                                                                                    {
                                                                                        "children": [],
                                                                                        "depth": 8,
                                                                                        "id": 16,
                                                                                        "order": 16
                                                                                    }
                                                                                ],
                                                                                "depth": 7,
                                                                                "id": 15,
                                                                                "order": 15
                                                                            }
                                                                        ],
                                                                        "depth": 6,
                                                                        "id": 14,
                                                                        "order": 14
                                                                    },
                                                                    {
                                                                        "children": [],
                                                                        "depth": 6,
                                                                        "id": 17,
                                                                        "order": 17
                                                                    },
                                                                    {
                                                                        "children": [
                                                                            {
                                                                                "children": [],
                                                                                "depth": 7,
                                                                                "id": 19,
                                                                                "order": 19
                                                                            }
                                                                        ],
                                                                        "depth": 6,
                                                                        "id": 18,
                                                                        "order": 18
                                                                    },
                                                                    {
                                                                        "children": [],
                                                                        "depth": 6,
                                                                        "id": 20,
                                                                        "order": 20
                                                                    },
                                                                    {
                                                                        "children": [],
                                                                        "depth": 6,
                                                                        "id": 21,
                                                                        "order": 21
                                                                    }
                                                                ],
                                                                "depth": 5,
                                                                "id": 13,
                                                                "order": 13
                                                            },
                                                            {
                                                                "children": [
                                                                    {
                                                                        "children": [
                                                                            {
                                                                                "children": [],
                                                                                "depth": 7,
                                                                                "id": 24,
                                                                                "order": 24
                                                                            }
                                                                        ],
                                                                        "depth": 6,
                                                                        "id": 23,
                                                                        "order": 23
                                                                    },
                                                                    {
                                                                        "children": [
                                                                            {
                                                                                "children": [],
                                                                                "depth": 7,
                                                                                "id": 26,
                                                                                "order": 26
                                                                            }
                                                                        ],
                                                                        "depth": 6,
                                                                        "id": 25,
                                                                        "order": 25
                                                                    },
                                                                    {
                                                                        "children": [],
                                                                        "depth": 6,
                                                                        "id": 27,
                                                                        "order": 27
                                                                    },
                                                                    {
                                                                        "children": [],
                                                                        "depth": 6,
                                                                        "id": 28,
                                                                        "order": 28
                                                                    },
                                                                    {
                                                                        "children": [],
                                                                        "depth": 6,
                                                                        "id": 29,
                                                                        "order": 29
                                                                    }
                                                                ],
                                                                "depth": 5,
                                                                "id": 22,
                                                                "order": 22
                                                            },
                                                            {
                                                                "children": [
                                                                    {
                                                                        "children": [],
                                                                        "depth": 6,
                                                                        "id": 31,
                                                                        "order": 31
                                                                    },
                                                                    {
                                                                        "children": [],
                                                                        "depth": 6,
                                                                        "id": 32,
                                                                        "order": 32
                                                                    }
                                                                ],
                                                                "depth": 5,
                                                                "id": 30,
                                                                "order": 30
                                                            },
                                                            {
                                                                "children": [
                                                                    {
                                                                        "children": [],
                                                                        "depth": 6,
                                                                        "id": 34,
                                                                        "order": 34
                                                                    }
                                                                ],
                                                                "depth": 5,
                                                                "id": 33,
                                                                "order": 33
                                                            }
                                                        ],
                                                        "depth": 4,
                                                        "id": 8,
                                                        "order": 8
                                                    },
                                                    {
                                                        "children": [],
                                                        "depth": 4,
                                                        "id": 35,
                                                        "order": 35
                                                    }
                                                ],
                                                "depth": 3,
                                                "id": 6,
                                                "order": 6
                                            }
                                        ],
                                        "depth": 2,
                                        "id": 5,
                                        "order": 5
                                    }
                                ],
                                "depth": 1,
                                "id": 4,
                                "order": 4
                            },
                            {
                                "children": [],
                                "depth": 1,
                                "id": 36,
                                "order": 36
                            }
                        ],
                        "depth": 0,
                        "id": 0,
                        "order": 0
                    }
                ],
                "depth": -1,
                "id": -1,
                "order": -1
            }
        ],
        "mainTraceNodeCount": 37,
        "parentIdMap": {
            "0": -1,
            "1": 0,
            "10": 8,
            "11": 8,
            "12": 11,
            "13": 8,
            "14": 13,
            "15": 14,
            "16": 15,
            "17": 13,
            "18": 13,
            "19": 18,
            "2": 0,
            "20": 13,
            "21": 13,
            "22": 8,
            "23": 22,
            "24": 23,
            "25": 22,
            "26": 25,
            "27": 22,
            "28": 22,
            "29": 22,
            "3": 0,
            "30": 8,
            "31": 30,
            "32": 30,
            "33": 8,
            "34": 33,
            "35": 6,
            "36": 0,
            "4": 0,
            "5": 4,
            "6": 5,
            "7": 6,
            "8": 6,
            "9": 8
        },
        "tidyTrace": [
            {
                "children": [
                    {
                        "children": [
                            {
                                "children": [
                                    {
                                        "children": [
                                            {
                                                "children": [
                                                    {
                                                        "children": [
                                                            {
                                                                "children": [
                                                                    {
                                                                        "children": [],
                                                                        "depth": 6,
                                                                        "id": 12,
                                                                        "order": 12
                                                                    }
                                                                ],
                                                                "depth": 5,
                                                                "id": 11,
                                                                "order": 11
                                                            },
                                                            {
                                                                "children": [
                                                                    {
                                                                        "children": [
                                                                            {
                                                                                "children": [
                                                                                    {
                                                                                        "children": [],
                                                                                        "depth": 8,
                                                                                        "id": 16,
                                                                                        "order": 16
                                                                                    }
                                                                                ],
                                                                                "depth": 7,
                                                                                "id": 15,
                                                                                "order": 15
                                                                            }
                                                                        ],
                                                                        "depth": 6,
                                                                        "id": 14,
                                                                        "order": 14
                                                                    },
                                                                    {
                                                                        "children": [],
                                                                        "depth": 6,
                                                                        "id": 20,
                                                                        "order": 20
                                                                    },
                                                                    {
                                                                        "children": [],
                                                                        "depth": 6,
                                                                        "id": 21,
                                                                        "order": 21
                                                                    }
                                                                ],
                                                                "depth": 5,
                                                                "id": 13,
                                                                "order": 13
                                                            },
                                                            {
                                                                "children": [
                                                                    {
                                                                        "children": [
                                                                            {
                                                                                "children": [],
                                                                                "depth": 7,
                                                                                "id": 24,
                                                                                "order": 24
                                                                            }
                                                                        ],
                                                                        "depth": 6,
                                                                        "id": 23,
                                                                        "order": 23
                                                                    },
                                                                    {
                                                                        "children": [],
                                                                        "depth": 6,
                                                                        "id": 28,
                                                                        "order": 28
                                                                    },
                                                                    {
                                                                        "children": [],
                                                                        "depth": 6,
                                                                        "id": 29,
                                                                        "order": 29
                                                                    }
                                                                ],
                                                                "depth": 5,
                                                                "id": 22,
                                                                "order": 22
                                                            },
                                                            {
                                                                "children": [
                                                                    {
                                                                        "children": [],
                                                                        "depth": 6,
                                                                        "id": 31,
                                                                        "order": 31
                                                                    },
                                                                    {
                                                                        "children": [],
                                                                        "depth": 6,
                                                                        "id": 32,
                                                                        "order": 32
                                                                    }
                                                                ],
                                                                "depth": 5,
                                                                "id": 30,
                                                                "order": 30
                                                            },
                                                            {
                                                                "children": [
                                                                    {
                                                                        "children": [],
                                                                        "depth": 6,
                                                                        "id": 34,
                                                                        "order": 34
                                                                    }
                                                                ],
                                                                "depth": 5,
                                                                "id": 33,
                                                                "order": 33
                                                            }
                                                        ],
                                                        "depth": 4,
                                                        "id": 8,
                                                        "order": 8
                                                    },
                                                    {
                                                        "children": [],
                                                        "depth": 4,
                                                        "id": 35,
                                                        "order": 35
                                                    }
                                                ],
                                                "depth": 3,
                                                "id": 6,
                                                "order": 6
                                            }
                                        ],
                                        "depth": 2,
                                        "id": 5,
                                        "order": 5
                                    }
                                ],
                                "depth": 1,
                                "id": 4,
                                "order": 4
                            },
                            {
                                "children": [],
                                "depth": 1,
                                "id": 36,
                                "order": 36
                            }
                        ],
                        "depth": 0,
                        "id": 0,
                        "order": 0
                    }
                ],
                "depth": -1,
                "id": -1,
                "order": -1
            }
        ],
        "tidyTraceNodeCount": 25
    },
    "state_change": {
        "stateChanges": [
            {
                "address": "0x77fba179c79de5b7653f68b5039af940ada60ce0",
                "erc": "ERC-20",
                "slots": [
                    {
                        "current": "0x0000000000000000000000000000000000000000000000000000000000000000",
                        "key": "0xe02cd0c2ffe385da4885ef5cff463bcb4e7e4f8a4770758b24071766b6649564",
                        "prev": "0x00000000000000000000000000000000000000000000000026f1cba245322c58"
                    },
                    {
                        "current": "0x000000000000000000000000000000000000000000000018812554037ddb0a6e",
                        "key": "0xe2c10aeeb5b2976d7b2be15a2cf487bbfadc3264803d284bcefdd0a0d0be080a",
                        "prev": "0x0000000000000000000000000000000000000000000000185a33886138a8de16"
                    }
                ],
                "storageVariables": [
                    {
                        "name": "balances",
                        "type": "mapping(address => uint96)",
                        "value": {
                            "pairs": [
                                {
                                    "key": "0xd294fdb0657feb5ea1865455427200476961e7f3",
                                    "value": {
                                        "current": "0",
                                        "prev": "2806247940634586200",
                                        "typeTag": 1
                                    }
                                },
                                {
                                    "key": "0xeabf9f1122b1b73be246396cd525c244dd430a01",
                                    "value": {
                                        "current": "452027794348033378926",
                                        "prev": "449221546407398792726",
                                        "typeTag": 1
                                    }
                                }
                            ],
                            "typeTag": 4
                        }
                    }
                ]
            },
            {
                "address": "0xa0b86991c6218b36c1d19d4a2e9eb0ce3606eb48",
                "erc": "ERC-20",
                "slots": [
                    {
                        "current": "0x00000000000000000000000000000000000000000000000000000004537cae70",
                        "key": "0x2576a9a16a08f2066a549a2f7f25ee20326f3de026807714daea523dda5d47e9",
                        "prev": "0x000000000000000000000000000000000000000000000000000000045a6278de"
                    },
                    {
                        "current": "0x0000000000000000000000000000000000000000000000000000c09749574dee",
                        "key": "0x28c0947f463362aab09a2d7896ccc847fb7e52633a16b978fb2caf3db1a9b8f8",
                        "prev": "0x0000000000000000000000000000000000000000000000000000c09742718380"
                    }
                ],
                "storageVariables": [
                    {
                        "name": "balances",
                        "type": "mapping(address => uint256)",
                        "value": {
                            "pairs": [
                                {
                                    "key": "0xb4e16d0168e52d35cacd2c6185b44281ec28c9dc",
                                    "value": {
                                        "current": "211756003053038",
                                        "prev": "211755887330176",
                                        "typeTag": 1
                                    }
                                },
                                {
                                    "key": "0xeabf9f1122b1b73be246396cd525c244dd430a01",
                                    "value": {
                                        "current": "18580549232",
                                        "prev": "18696272094",
                                        "typeTag": 1
                                    }
                                }
                            ],
                            "typeTag": 4
                        }
                    }
                ]
            },
            {
                "address": "0xb4e16d0168e52d35cacd2c6185b44281ec28c9dc",
                "erc": "ERC-20",
                "slots": [
                    {
                        "current": "0x608e7082000000000f941139cb2ea5d494c70000000000000000c09749574dee",
                        "key": "0x0000000000000000000000000000000000000000000000000000000000000008",
                        "prev": "0x608e7082000000000f9411c83286c73271640000000000000000c09742718380"
                    }
                ],
                "storageVariables": [
                    {
                        "name": "reserve0",
                        "type": "uint112",
                        "value": {
                            "current": "211756003053038",
                            "prev": "211755887330176",
                            "typeTag": 1
                        }
                    },
                    {
                        "name": "reserve1",
                        "type": "uint112",
                        "value": {
                            "current": "73566856612527220233415",
                            "prev": "73566896695602127728996",
                            "typeTag": 1
                        }
                    },
                    {
                        "name": "blockTimestampLast",
                        "type": "uint32",
                        "value": {
                            "current": "1619947650",
                            "prev": "1619947650",
                            "typeTag": 1
                        }
                    }
                ]
            },
            {
                "address": "0xc02aaa39b223fe8d0a0e5c4f27ead9083c756cc2",
                "erc": "ERC-20",
                "slots": [
                    {
                        "current": "0x000000000000000000000000000000000000000000000f941139cb2ea5d494c7",
                        "key": "0xb374801ace2c02f5db0425ab5920a2b7ed1d5a00abbcd395fda7530ba1d666c0",
                        "prev": "0x000000000000000000000000000000000000000000000f9411c83286c7327164"
                    }
                ],
                "storageVariables": [
                    {
                        "name": "balanceOf",
                        "type": "mapping(address => uint256)",
                        "value": {
                            "pairs": [
                                {
                                    "key": "0xb4e16d0168e52d35cacd2c6185b44281ec28c9dc",
                                    "value": {
                                        "current": "73566856612527220233415",
                                        "prev": "73566896695602127728996",
                                        "typeTag": 1
                                    }
                                }
                            ],
                            "typeTag": 4
                        }
                    }
                ]
            },
            {
                "address": "0xeabf9f1122b1b73be246396cd525c244dd430a01",
                "erc": "ERC-20",
                "slots": [
                    {
                        "current": "0x000000000000000000000025b6e12f9bea8c1d7ba51616dbf10f841a72e903f5",
                        "key": "0x000000000000000000000000000000000000000000000000000000000000000a",
                        "prev": "0x00000000000000000000002510e87b9a9b8a0adede0a8f334111d56dba9b1f64"
                    },
                    {
                        "current": "0x608e708200000000000000000004537cae70000000000018812554037ddb0a6e",
                        "key": "0x0000000000000000000000000000000000000000000000000000000000000008",
                        "prev": "0x608e52d7000000000000000000045a6278de0000000000185a33886138a8de16"
                    },
                    {
                        "current": "0x0000000000000000000000000000000000000000fba0585af55c62685a28a64e",
                        "key": "0x0000000000000000000000000000000000000000000000000000000000000009",
                        "prev": "0x0000000000000000000000000000000000000000f652b68d2a38e31a16c6f45b"
                    }
                ],
                "storageVariables": [
                    {
                        "name": "price0CumulativeLast",
                        "type": "uint256",
                        "value": {
                            "current": "77874582842433526517989942862",
                            "prev": "76233306407992514416577279067",
                            "typeTag": 1
                        }
                    },
                    {
                        "name": "price1CumulativeLast",
                        "type": "uint256",
                        "value": {
                            "current": "55119618716535988693190570177237655059915008967669",
                            "prev": "54172088973884049719622372626164451192974719262564",
                            "typeTag": 1
                        }
                    },
                    {
                        "name": "reserve0",
                        "type": "uint112",
                        "value": {
                            "current": "452027794348033378926",
                            "prev": "449221546407398792726",
                            "typeTag": 1
                        }
                    },
                    {
                        "name": "reserve1",
                        "type": "uint112",
                        "value": {
                            "current": "18580549232",
                            "prev": "18696272094",
                            "typeTag": 1
                        }
                    },
                    {
                        "name": "blockTimestampLast",
                        "type": "uint32",
                        "value": {
                            "current": "1619947650",
                            "prev": "1619940055",
                            "typeTag": 1
                        }
                    }
                ]
            },
            {
                "address": "0xf9bb55b6a14acd32066182f0f5f0296073f5d054",
                "erc": "",
                "slots": [
                    {
                        "current": "0x0000000000000000000000000000000000000000000000000005c15556e13587",
                        "key": "0x62cbc8a831cda12a281ebea78043e95907c2bd4df18c648f4f67c4bcde13cdc6",
                        "prev": "0x0000000000000000000000000000000000000000000000000005c11adef2f6d6"
                    }
                ],
                "storageVariables": [
                    {
                        "name": "keyNonce",
                        "type": "mapping(address => uint256)",
                        "value": {
                            "pairs": [
                                {
                                    "key": "0x133f04db74eb41c43d8c36070aa66b06011d5ea1",
                                    "value": {
                                        "current": "1619947157534087",
                                        "prev": "1619696037328598",
                                        "typeTag": 1
                                    }
                                }
                            ],
                            "typeTag": 4
                        }
                    }
                ]
            }
        ]
    }
}