{
    "balance_change": {
        "balanceChanges": []
    },
    "profile": {
        "basic_info": {
            "baseFee": "",
            "blockNumber": 5228247,
            "callData": "0x11dd0cc00186003ed8aa347e647141d496c84edf617bfbbd76a910aa345e03766620c77e05fc86232c9e06d2a6245bbe078500de4e18def2e636daffd70719db6c23d9ac",
            "debugEnable": true,
            "errorInfo": "",
            "eventCount": 0,
            "feeRecipient": "0xea674fdde714fd979de3edf0f56aa9716b898ec8",
            "formatValue": "0",
            "gasLimit": 2039000,
            "gasPrice": "39.12878602",
            "gasUsed": 36022,
            "intTxnCount": 6,
            "internalRevert": true,
            "internalRevertMessage": "",
            "isContractCreation": false,
            "isFlashloan": false,
            "maxFee": "",
            "nonce": 3420,
            "overwritedBlockNumber": -1,
            "priorityFee": "",
            "receiver": "0xf8fb76b05fd854cc6f35d5088b9d241cbbf616c3",
            "revertMessage": "",
            "sender": "0xf36052b4a716e3a8479587c59a6b7b1167ecfce2",
            "simulationEnable": true,
            "sourceTxnHash": "0x76e42428f9fa372c46d40003a720b133d7019b87ed8664372ba3f33428612d4f",
            "status": true,
            "timestamp": "2018-03-10T04:16:17Z",
            "transactionFee": "0.00140949713001244",
            "txnHash": "0x76e42428f9fa372c46d40003a720b133d7019b87ed8664372ba3f33428612d4f",
            "txnIndex": 70,
            "type": 0,
            "value": "0"
        },
        "fund_flow": [],
        "token_infos": [
            {
                "address": "0xc02aaa39b223fe8d0a0e5c4f27ead9083c756cc2",
                "decimals": 18
            },
            {
                "address": "0xeeeeeeeeeeeeeeeeeeeeeeeeeeeeeeeeeeeeeeee",
                "decimals": 18
            }
        ]
    },
    "address_label": {
        "labels": [
            {
                "address": "0x06012c8cf97bead5deae237070f9587f8e7a266d",
                "label": "CryptoKitties: Core"
            },
            {
                "address": "0x0000000000000000000000000000000000000001",
                "label": "Precompiled"
            },
            {
                "address": "0x0000000000000000000000000000000000000002",
                "label": "Precompiled"
            },
            {
                "address": "0x0000000000000000000000000000000000000003",
                "label": "Precompiled"
            },
            {
                "address": "0x0000000000000000000000000000000000000004",
                "label": "Precompiled"
            },
            {
                "address": "0xeeeeeeeeeeeeeeeeeeeeeeeeeeeeeeeeeeeeeeee",
                "label": "Ether"
            }
        ]
    },
    "trace": {
        "accountLabels": null,
        "dataMap": {
            "-1": {
                "invocation": {
                    "address": "0xf36052b4a716e3a8479587c59a6b7b1167ecfce2",
                    "callData": "",
                    "decodedMethod": null,
                    "errorInfo": "",
                    "fromAddress": "",
                    "gasUsed": 0,
                    "id": -1,
                    "methodDecoded": false,
                    "operation": "",
                    "output": "",
                    "revert": false,
                    "revertMessage": "",
                    "selector": "",
                    "status": false,
                    "value": ""
                },
                "nodeType": 0
            },
            "0": {
                "invocation": {
                    "address": "0xf8fb76b05fd854cc6f35d5088b9d241cbbf616c3",
                    "callData": "0x0186003ed8aa347e647141d496c84edf617bfbbd76a910aa345e03766620c77e05fc86232c9e06d2a6245bbe078500de4e18def2e636daffd70719db6c23d9ac",
                    "decodedMethod": null,
                    "errorInfo": "",
                    "fromAddress": "0xf36052b4a716e3a8479587c59a6b7b1167ecfce2",
                    "gasUsed": 36022,
                    "id": 0,
                    "methodDecoded": false,
                    "operation": "CALL",
                    "output": "",
                    "revert": false,
                    "revertMessage": "",
                    "selector": "0x11dd0cc0",
                    "status": true,
                    "value": "0"
                },
                "nodeType": 0
            },
            "1": {
                "invocation": {
                    "address": "0x06012c8cf97bead5deae237070f9587f8e7a266d",
                    "callData": "0x0000000000000000000000000000000000000000000000000000000000093440",
                    "decodedMethod": {
                        "callParams": [
                            {
                                "name": "_matronId",
                                "type": "uint256",
                                "value": "603,200"
                            }
                        ],
                        "constructorArguments": "",
                        "name": "giveBirth",
                        "returnParams": [],
                        "signature": "giveBirth(uint256)"
                    },
                    "errorInfo": "execution reverted",
                    "fromAddress": "0xf8fb76b05fd854cc6f35d5088b9d241cbbf616c3",
                    "gasUsed": 3066,
                    "id": 1,
                    "methodDecoded": true,
                    "operation": "CALL",
                    "output": "",
                    "revert": true,
                    "revertMessage": "",
                    "selector": "0x88c2a0bf",
                    "status": false,
                    "value": "0"
                },
                "nodeType": 0
            },
            "2": {
                "invocation": {
                    "address": "0x06012c8cf97bead5deae237070f9587f8e7a266d",
                    "callData": "0x0000000000000000000000000000000000000000000000000000000000093424",
                    "decodedMethod": {
                        "callParams": [
                            {
                                "name": "_matronId",
                                "type": "uint256",
                                "value": "603,172"
                            }
                        ],
                        "constructorArguments": "",
                        "name": "giveBirth",
                        "returnParams": [],
                        "signature": "giveBirth(uint256)"
                    },
                    "errorInfo": "execution reverted",
                    "fromAddress": "0xf8fb76b05fd854cc6f35d5088b9d241cbbf616c3",
                    "gasUsed": 3066,
                    "id": 2,
                    "methodDecoded": true,
                    "operation": "CALL",
                    "output": "",
                    "revert": true,
                    "revertMessage": "",
                    "selector": "0x88c2a0bf",
                    "status": false,
                    "value": "0"
                },
                "nodeType": 0
            },
            "3": {
                "invocation": {
                    "address": "0x06012c8cf97bead5deae237070f9587f8e7a266d",
                    "callData": "0x0000000000000000000000000000000000000000000000000000000000093421",
                    "decodedMethod": {
                        "callParams": [
                            {
                                "name": "_matronId",
                                "type": "uint256",
                                "value": "603,169"
                            }
                        ],
                        "constructorArguments": "",
                        "name": "giveBirth",
                        "returnParams": [],
                        "signature": "giveBirth(uint256)"
                    },
                    "errorInfo": "execution reverted",
                    "fromAddress": "0xf8fb76b05fd854cc6f35d5088b9d241cbbf616c3",
                    "gasUsed": 3066,
                    "id": 3,
                    "methodDecoded": true,
                    "operation": "CALL",
                    "output": "",
                    "revert": true,
                    "revertMessage": "",
                    "selector": "0x88c2a0bf",
                    "status": false,
                    "value": "0"
                },
                "nodeType": 0
            },
            "4": {
                "invocation": {
                    "address": "0x06012c8cf97bead5deae237070f9587f8e7a266d",
                    "callData": "0x00000000000000000000000000000000000000000000000000000000000932ef",
                    "decodedMethod": {
                        "callParams": [
                            {
                                "name": "_matronId",
                                "type": "uint256",
                                "value": "602,863"
                            }
                        ],
                        "constructorArguments": "",
                        "name": "giveBirth",
                        "returnParams": [],
                        "signature": "giveBirth(uint256)"
                    },
                    "errorInfo": "execution reverted",
                    "fromAddress": "0xf8fb76b05fd854cc6f35d5088b9d241cbbf616c3",
                    "gasUsed": 3066,
                    "id": 4,
                    "methodDecoded": true,
                    "operation": "CALL",
                    "output": "",
                    "revert": true,
                    "revertMessage": "",
                    "selector": "0x88c2a0bf",
                    "status": false,
                    "value": "0"
                },
                "nodeType": 0
            },
            "5": {
                "invocation": {
                    "address": "0x06012c8cf97bead5deae237070f9587f8e7a266d",
                    "callData": "0x00000000000000000000000000000000000000000000000000000000000933b8",
                    "decodedMethod": {
                        "callParams": [
                            {
                                "name": "_matronId",
                                "type": "uint256",
                                "value": "603,064"
                            }
                        ],
                        "constructorArguments": "",
                        "name": "giveBirth",
                        "returnParams": [],
                        "signature": "giveBirth(uint256)"
                    },
                    "errorInfo": "execution reverted",
                    "fromAddress": "0xf8fb76b05fd854cc6f35d5088b9d241cbbf616c3",
                    "gasUsed": 3066,
                    "id": 5,
                    "methodDecoded": true,
                    "operation": "CALL",
                    "output": "",
                    "revert": true,
                    "revertMessage": "",
                    "selector": "0x88c2a0bf",
                    "status": false,
                    "value": "0"
                },
                "nodeType": 0
            },
            "6": {
                "invocation": {
                    "address": "0x06012c8cf97bead5deae237070f9587f8e7a266d",
                    "callData": "0x00000000000000000000000000000000000000000000000000000000000932e9",
                    "decodedMethod": {
                        "callParams": [
                            {
                                "name": "_matronId",
                                "type": "uint256",
                                "value": "602,857"
                            }
                        ],
                        "constructorArguments": "",
                        "name": "giveBirth",
                        "returnParams": [],
                        "signature": "giveBirth(uint256)"
                    },
                    "errorInfo": "execution reverted",
                    "fromAddress": "0xf8fb76b05fd854cc6f35d5088b9d241cbbf616c3",
                    "gasUsed": 3066,
                    "id": 6,
                    "methodDecoded": true,
                    "operation": "CALL",
                    "output": "",
                    "revert": true,
                    "revertMessage": "",
                    "selector": "0x88c2a0bf",
                    "status": false,
                    "value": "0"
                },
                "nodeType": 0
            }
        },
        "gasFlame": [
            {
                "children": [
                    {
                        "children": [
                            {
                                "children": [],
                                "depth": 0,
                                "name": "Initial Gas",
                                "value": 25496
                            },
                            {
                                "children": [
                                    {
                                        "children": [],
                                        "depth": 1,
                                        "name": "giveBirth",
                                        "value": 3066
                                    },
                                    {
                                        "children": [],
                                        "depth": 1,
                                        "name": "giveBirth",
                                        "value": 3066
                                    },
                                    {
                                        "children": [],
                                        "depth": 1,
                                        "name": "giveBirth",
                                        "value": 3066
                                    },
                                    {
                                        "children": [],
                                        "depth": 1,
                                        "name": "giveBirth",
                                        "value": 3066
                                    },
                                    {
                                        "children": [],
                                        "depth": 1,
                                        "name": "giveBirth",
                                        "value": 3066
                                    },
                                    {
                                        "children": [],
                                        "depth": 1,
                                        "name": "giveBirth",
                                        "value": 3066
                                    }
                                ],
                                "depth": 0,
                                "name": "Executed Gas",
                                "value": 40526
                            }
                        ],
                        "depth": -1,
                        "name": "Actual Gas Used",
                        "value": 36022
                    },
                    {
                        "children": [],
                        "depth": -1,
                        "name": "Refunded Gas",
                        "value": 30000
                    }
                ],
                "depth": -2,
                "name": "Total Gas",
                "value": 66022
            }
        ],
        "isConfirmed": true,
        "mainTrace": [
            {
                "children": [
                    {
                        "children": [
                            {
                                "children": [],
                                "depth": 1,
                                "id": 1,
                                "order": 1
                            },
                            {
                                "children": [],
                                "depth": 1,
                                "id": 2,
                                "order": 2
                            },
                            {
                                "children": [],
                                "depth": 1,
                                "id": 3,
                                "order": 3
                            },
                            {
                                "children": [],
                                "depth": 1,
                                "id": 4,
                                "order": 4
                            },
                            {
                                "children": [],
                                "depth": 1,
                                "id": 5,
                                "order": 5
                            },
                            {
                                "children": [],
                                "depth": 1,
                                "id": 6,
                                "order": 6
                            }
                        ],
                        "depth": 0,
                        "id": 0,
                        "order": 0
                    }
                ],
                "depth": -1,
                "id": -1,
                "order": -1
            }
        ],
        "mainTraceNodeCount": 7,
        "parentIdMap": {
            "0": -1,
            "1": 0,
            "2": 0,
            "3": 0,
            "4": 0,
            "5": 0,
            "6": 0
        },
        "tidyTrace": [
            {
                "children": [
                    {
                        "children": [
                            {
                                "children": [],
                                "depth": 1,
                                "id": 1,
                                "order": 1
                            },
                            {
                                "children": [],
                                "depth": 1,
                                "id": 2,
                                "order": 2
                            },
                            {
                                "children": [],
                                "depth": 1,
                                "id": 3,
                                "order": 3
                            },
                            {
                                "children": [],
                                "depth": 1,
                                "id": 4,
                                "order": 4
                            },
                            {
                                "children": [],
                                "depth": 1,
                                "id": 5,
                                "order": 5
                            },
                            {
                                "children": [],
                                "depth": 1,
                                "id": 6,
                                "order": 6
                            }
                        ],
                        "depth": 0,
                        "id": 0,
                        "order": 0
                    }
                ],
                "depth": -1,
                "id": -1,
                "order": -1
            }
        ],
        "tidyTraceNodeCount": 7
    },
    "state_change": {
        "stateChanges": [
            {
                "address": "0xf8fb76b05fd854cc6f35d5088b9d241cbbf616c3",
                "erc": "",
                "slots": [
                    {
                        "current": "0x0000000000000000000000000000000000000000000000000000000000000000",
                        "key": "0x00000000000000000000000000000000000000000000000000000000000119e4",
                        "prev": "0x0000000000000000000000000000000000000000000000000000000000000001"
                    },
                    {
                        "current": "0x0000000000000000000000000000000000000000000000000000000000000000",
                        "key": "0x00000000000000000000000000000000000000000000000000000000000119e3",
                        "prev": "0x0000000000000000000000000000000000000000000000000000000000000001"
                    },
                    {
                        "current": "0x00000000000000000000000000000000000000000000000000000000000119e2",
                        "key": "0x000000000000000000000000000000000000000000000000000000000000ffff",
                        "prev": "0x00000000000000000000000000000000000000000000000000000000000119e4"
                    }
                ],
                "storageVariables": []
            }
        ]
    }
}