{
    "balance_change": {
        "balanceChanges": [
            {
                "account": "0x91a39423b9d730964ceeb7ec4c051a6161179157",
                "assets": [
                    {
                        "address": "0xeeeeeeeeeeeeeeeeeeeeeeeeeeeeeeeeeeeeeeee",
                        "amount": "10,000",
                        "iconUrl": "https://assets.blocksec.com/image/1663669189317-3.png",
                        "isERC1155": false,
                        "isERC721": false,
                        "sign": false,
                        "value": ""
                    }
                ]
            },
            {
                "account": "0xf6230e7e98d2bbebf96d14888020e9c3e8c27d69",
                "assets": [
                    {
                        "address": "0xeeeeeeeeeeeeeeeeeeeeeeeeeeeeeeeeeeeeeeee",
                        "amount": "10,000",
                        "iconUrl": "https://assets.blocksec.com/image/1663669189317-3.png",
                        "isERC1155": false,
                        "isERC721": false,
                        "sign": true,
                        "value": ""
                    }
                ]
            }
        ]
    },
    "profile": {
        "basic_info": {
            "baseFee": "",
            "blockNumber": 1925533,
            "callData": "0x0f2c9329000000000000000000000000f6230e7e98d2bbebf96d14888020e9c3e8c27d69000000000000000000000000d5c2e7215fb9f83e4aa2eee5fb3e837a0aba539a",
            "debugEnable": true,
            "errorInfo": "",
            "eventCount": 0,
            "feeRecipient": "0x52bc44d5378309ee2abf1539bf71de1b7d7be3b5",
            "formatValue": "10000",
            "gasLimit": 470000,
            "gasPrice": "20",
            "gasUsed": 31567,
            "intTxnCount": 2,
            "internalRevert": false,
            "internalRevertMessage": "",
            "isContractCreation": false,
            "isFlashloan": false,
            "maxFee": "",
            "nonce": 13,
            "overwritedBlockNumber": -1,
            "priorityFee": "",
            "receiver": "0xfa81ef9d0b787326ed071e123d38fa9e81be3ab5",
            "revertMessage": "",
            "sender": "0x91a39423b9d730964ceeb7ec4c051a6161179157",
            "simulationEnable": true,
            "sourceTxnHash": "0x76835d75381afb76df2aa2d943c6712ea7b82875bf82b09f37ec3bd7679d90fb",
            "status": true,
            "timestamp": "2016-07-21T11:47:27Z",
            "transactionFee": "0.00063134",
            "txnHash": "0x76835d75381afb76df2aa2d943c6712ea7b82875bf82b09f37ec3bd7679d90fb",
            "txnIndex": 1,
            "type": 0,
            "value": "10000000000000000000000"
        },
        "fund_flow": [
            {
                "amount": "10,000",
                "from": "0x91a39423b9d730964ceeb7ec4c051a6161179157",
                "id": 1,
                "isERC1155": false,
                "isERC721": false,
                "isReverted": false,
                "order": 1,
                "to": "0xfa81ef9d0b787326ed071e123d38fa9e81be3ab5",
                "token": "0xeeeeeeeeeeeeeeeeeeeeeeeeeeeeeeeeeeeeeeee"
            },
            {
                "amount": "10,000",
                "from": "0xfa81ef9d0b787326ed071e123d38fa9e81be3ab5",
                "id": 2,
                "isERC1155": false,
                "isERC721": false,
                "isReverted": false,
                "order": 2,
                "to": "0xf6230e7e98d2bbebf96d14888020e9c3e8c27d69",
                "token": "0xeeeeeeeeeeeeeeeeeeeeeeeeeeeeeeeeeeeeeeee"
            }
        ],
        "token_infos": [
            {
                "address": "0xc02aaa39b223fe8d0a0e5c4f27ead9083c756cc2",
                "decimals": 18
            },
            {
                "address": "0xeeeeeeeeeeeeeeeeeeeeeeeeeeeeeeeeeeeeeeee",
                "decimals": 18
            }
        ]
    },
    "address_label": {
        "labels": [
            {
                "address": "0x2bd2326c993dfaef84f696526064ff22eba5b362",
                "label": "AmIOnTheFork"
            },
            {
                "address": "0xf6230e7e98d2bbebf96d14888020e9c3e8c27d69",
                "label": "Korbit 10"
            },
            {
                "address": "0xfa81ef9d0b787326ed071e123d38fa9e81be3ab5",
                "label": "ReplaySafeSplit"
            },
            {
                "address": "0x0000000000000000000000000000000000000001",
                "label": "Precompiled"
            },
            {
                "address": "0x0000000000000000000000000000000000000002",
                "label": "Precompiled"
            },
            {
                "address": "0x0000000000000000000000000000000000000003",
                "label": "Precompiled"
            },
            {
                "address": "0x0000000000000000000000000000000000000004",
                "label": "Precompiled"
            },
            {
                "address": "0xeeeeeeeeeeeeeeeeeeeeeeeeeeeeeeeeeeeeeeee",
                "label": "Ether"
            }
        ]
    },
    "trace": {
        "accountLabels": null,
        "dataMap": {
            "-1": {
                "invocation": {
                    "address": "0x91a39423b9d730964ceeb7ec4c051a6161179157",
                    "callData": "",
                    "decodedMethod": null,
                    "errorInfo": "",
                    "fromAddress": "",
                    "gasUsed": 0,
                    "id": -1,
                    "methodDecoded": false,
                    "operation": "",
                    "output": "",
                    "revert": false,
                    "revertMessage": "",
                    "selector": "",
                    "status": false,
                    "value": ""
                },
                "nodeType": 0
            },
            "0": {
                "invocation": {
                    "address": "0xfa81ef9d0b787326ed071e123d38fa9e81be3ab5",
                    "callData": "0x000000000000000000000000f6230e7e98d2bbebf96d14888020e9c3e8c27d69000000000000000000000000d5c2e7215fb9f83e4aa2eee5fb3e837a0aba539a",
                    "decodedMethod": {
                        "callParams": [
                            {
                                "name": "targetFork",
                                "type": "address",
                                "value": "0xf6230e7e98d2bbebf96d14888020e9c3e8c27d69"
                            },
                            {
                                "name": "targetNoFork",
                                "type": "address",
                                "value": "0xd5c2e7215fb9f83e4aa2eee5fb3e837a0aba539a"
                            }
                        ],
                        "constructorArguments": "",
                        "name": "split",
                        "returnParams": [
                            {
                                "name": "",
                                "type": "bool",
                                "value": true
                            }
                        ],
                        "signature": "split(address,address)"
                    },
                    "errorInfo": "",
                    "fromAddress": "0x91a39423b9d730964ceeb7ec4c051a6161179157",
                    "gasUsed": 31567,
                    "id": 0,
                    "methodDecoded": true,
                    "operation": "CALL",
                    "output": "0x0000000000000000000000000000000000000000000000000000000000000001",
                    "revert": false,
                    "revertMessage": "",
                    "selector": "0x0f2c9329",
                    "status": true,
                    "value": "10000"
                },
                "nodeType": 0
            },
            "1": {
                "invocation": {
                    "address": "0x2bd2326c993dfaef84f696526064ff22eba5b362",
                    "callData": "0x",
                    "decodedMethod": {
                        "callParams": [],
                        "constructorArguments": "",
                        "name": "forked",
                        "returnParams": [
                            {
                                "name": "",
                                "type": "bool",
                                "value": true
                            }
                        ],
                        "signature": "forked()"
                    },
                    "errorInfo": "",
                    "fromAddress": "0xfa81ef9d0b787326ed071e123d38fa9e81be3ab5",
                    "gasUsed": 197,
                    "id": 1,
                    "methodDecoded": true,
                    "operation": "CALL",
                    "output": "0x0000000000000000000000000000000000000000000000000000000000000001",
                    "revert": false,
                    "revertMessage": "",
                    "selector": "0x16c72721",
                    "status": true,
                    "value": "0"
                },
                "nodeType": 0
            },
            "2": {
                "invocation": {
                    "address": "0xf6230e7e98d2bbebf96d14888020e9c3e8c27d69",
                    "callData": "0x",
                    "decodedMethod": null,
                    "errorInfo": "",
                    "fromAddress": "0xfa81ef9d0b787326ed071e123d38fa9e81be3ab5",
                    "gasUsed": 0,
                    "id": 2,
                    "methodDecoded": false,
                    "operation": "CALL",
                    "output": "",
                    "revert": false,
                    "revertMessage": "",
                    "selector": "fallback",
                    "status": true,
                    "value": "10000"
                },
                "nodeType": 0
            }
        },
        "gasFlame": [
            {
                "children": [
                    {
                        "children": [
                            {
                                "children": [],
                                "depth": 0,
                                "name": "Initial Gas",
                                "value": 24088
                            },
                            {
                                "children": [
                                    {
                                        "children": [],
                                        "depth": 1,
                                        "name": "forked",
                                        "value": 197
                                    },
                                    {
                                        "children": [],
                                        "depth": 1,
                                        "name": "fallback",
                                        "value": 0
                                    }
                                ],
                                "depth": 0,
                                "name": "Executed Gas",
                                "value": 7479
                            }
                        ],
                        "depth": -1,
                        "name": "Actual Gas Used",
                        "value": 31567
                    },
                    {
                        "children": [],
                        "depth": -1,
                        "name": "Refunded Gas",
                        "value": 0
                    }
                ],
                "depth": -2,
                "name": "Total Gas",
                "value": 31567
            }
        ],
        "isConfirmed": true,
        "mainTrace": [
            {
                "children": [
                    {
                        "children": [
                            {
                                "children": [],
                                "depth": 1,
                                "id": 1,
                                "order": 1
                            },
                            {
                                "children": [],
                                "depth": 1,
                                "id": 2,
                                "order": 2
                            }
                        ],
                        "depth": 0,
                        "id": 0,
                        "order": 0
                    }
                ],
                "depth": -1,
                "id": -1,
                "order": -1
            }
        ],
        "mainTraceNodeCount": 3,
        "parentIdMap": {
            "0": -1,
            "1": 0,
            "2": 0
        },
        "tidyTrace": [
            {
                "children": [
                    {
                        "children": [
                            {
                                "children": [],
                                "depth": 1,
                                "id": 1,
                                "order": 1
                            },
                            {
                                "children": [],
                                "depth": 1,
                                "id": 2,
                                "order": 2
                            }
                        ],
                        "depth": 0,
                        "id": 0,
                        "order": 0
                    }
                ],
                "depth": -1,
                "id": -1,
                "order": -1
            }
        ],
        "tidyTraceNodeCount": 3
    },
    "state_change": {
        "stateChanges": []
    }
}