{
    "balance_change": {
        "balanceChanges": [
            {
                "account": "0x415f064168b8b38c7d4be22653ba1f2c12a3a533",
                "assets": [
                    {
                        "address": "0xa0b86991c6218b36c1d19d4a2e9eb0ce3606eb48",
                        "amount": "15",
                        "iconUrl": "https://assets.blocksec.com/icon/0347a86cc07dbd03fdc5db01a4e5ac7e1217f90e0b6e4bb0f75cbcca09160989.png",
                        "isERC1155": false,
                        "isERC721": false,
                        "sign": false,
                        "value": "15"
                    }
                ]
            },
            {
                "account": "0xc1ea99d2f08338324e9d63580a5c739ce9ada011",
                "assets": [
                    {
                        "address": "0xa0b86991c6218b36c1d19d4a2e9eb0ce3606eb48",
                        "amount": "15",
                        "iconUrl": "https://assets.blocksec.com/icon/0347a86cc07dbd03fdc5db01a4e5ac7e1217f90e0b6e4bb0f75cbcca09160989.png",
                        "isERC1155": false,
                        "isERC721": false,
                        "sign": true,
                        "value": "15"
                    }
                ]
            }
        ]
    },
    "profile": {
        "basic_info": {
            "baseFee": "9.191883887",
            "blockNumber": 20219997,
            "callData": "0xa9059cbb000000000000000000000000c1ea99d2f08338324e9d63580a5c739ce9ada0110000000000000000000000000000000000000000000000000000000000e4e1c0",
            "debugEnable": true,
            "errorInfo": "",
            "eventCount": 1,
            "feeRecipient": "0x3a25000bc93cc870b8e3b926f0f0c3c6f7e189d3",
            "formatValue": "0",
            "gasLimit": 81078,
            "gasPrice": "14",
            "gasUsed": 62248,
            "intTxnCount": 1,
            "internalRevert": false,
            "internalRevertMessage": "",
            "isContractCreation": false,
            "isFlashloan": false,
            "maxFee": "14",
            "nonce": 924,
            "overwritedBlockNumber": -1,
            "priorityFee": "4.881332101",
            "receiver": "0xa0b86991c6218b36c1d19d4a2e9eb0ce3606eb48",
            "revertMessage": "",
            "sender": "0x415f064168b8b38c7d4be22653ba1f2c12a3a533",
            "simulationEnable": true,
            "sourceTxnHash": "0x763f1249037758a37012f22d6dbe53306be7b1835f2b8dbbdd74be78892432fe",
            "status": true,
            "timestamp": "2024-07-02T16:23:35Z",
            "transactionFee": "0.000871472",
            "txnHash": "0x763f1249037758a37012f22d6dbe53306be7b1835f2b8dbbdd74be78892432fe",
            "txnIndex": 31,
            "type": 2,
            "value": "0"
        },
        "fund_flow": [
            {
                "amount": "15",
                "from": "0x415f064168b8b38c7d4be22653ba1f2c12a3a533",
                "id": 1,
                "isERC1155": false,
                "isERC721": false,
                "isReverted": false,
                "order": 1,
                "to": "0xc1ea99d2f08338324e9d63580a5c739ce9ada011",
                "token": "0xa0b86991c6218b36c1d19d4a2e9eb0ce3606eb48"
            }
        ],
        "token_infos": [
            {
                "address": "0xa0b86991c6218b36c1d19d4a2e9eb0ce3606eb48",
                "decimals": 6
            },
            {
                "address": "0xc02aaa39b223fe8d0a0e5c4f27ead9083c756cc2",
                "decimals": 18
            },
            {
                "address": "0xeeeeeeeeeeeeeeeeeeeeeeeeeeeeeeeeeeeeeeee",
                "decimals": 18
            }
        ]
    },
    "address_label": {
        "labels": [
            {
                "address": "0xeeeeeeeeeeeeeeeeeeeeeeeeeeeeeeeeeeeeeeee",
                "label": "Ether"
            },
            {
                "address": "0xa0b86991c6218b36c1d19d4a2e9eb0ce3606eb48",
                "label": "Circle: USDC Token"
            },
            {
                "address": "0x43506849d7c04f9138d1a2050bbf3a0c054402dd",
                "label": "FiatTokenV2_2"
            },
            {
                "address": "0x0000000000000000000000000000000000000001",
                "label": "Precompiled"
            },
            {
                "address": "0x0000000000000000000000000000000000000002",
                "label": "Precompiled"
            },
            {
                "address": "0x0000000000000000000000000000000000000003",
                "label": "Precompiled"
            },
            {
                "address": "0x0000000000000000000000000000000000000004",
                "label": "Precompiled"
            }
        ]
    },
    "trace": {
        "accountLabels": null,
        "dataMap": {
            "-1": {
                "invocation": {
                    "address": "0x415f064168b8b38c7d4be22653ba1f2c12a3a533",
                    "callData": "",
                    "decodedMethod": null,
                    "errorInfo": "",
                    "fromAddress": "",
                    "gasUsed": 0,
                    "id": -1,
                    "methodDecoded": false,
                    "operation": "",
                    "output": "",
                    "revert": false,
                    "revertMessage": "",
                    "selector": "",
                    "status": false,
                    "value": ""
                },
                "nodeType": 0
            },
            "0": {
                "invocation": {
                    "address": "0xa0b86991c6218b36c1d19d4a2e9eb0ce3606eb48",
                    "callData": "0x000000000000000000000000c1ea99d2f08338324e9d63580a5c739ce9ada0110000000000000000000000000000000000000000000000000000000000e4e1c0",
                    "decodedMethod": {
                        "callParams": [
                            {
                                "name": "to",
                                "type": "address",
                                "value": "0xc1ea99d2f08338324e9d63580a5c739ce9ada011"
                            },
                            {
                                "decimalAvailable": true,
                                "name": "value",
                                "type": "uint256",
                                "value": "15,000,000"
                            }
                        ],
                        "constructorArguments": "",
                        "name": "transfer",
                        "returnParams": [
                            {
                                "name": "",
                                "type": "bool",
                                "value": true
                            }
                        ],
                        "signature": "transfer(address,uint256)"
                    },
                    "errorInfo": "",
                    "fromAddress": "0x415f064168b8b38c7d4be22653ba1f2c12a3a533",
                    "gasUsed": 62248,
                    "id": 0,
                    "methodDecoded": true,
                    "operation": "CALL",
                    "output": "0x0000000000000000000000000000000000000000000000000000000000000001",
                    "revert": false,
                    "revertMessage": "",
                    "selector": "0xa9059cbb",
                    "status": true,
                    "value": "0"
                },
                "nodeType": 0
            },
            "1": {
                "invocation": {
                    "address": "0x43506849d7c04f9138d1a2050bbf3a0c054402dd",
                    "callData": "0x000000000000000000000000c1ea99d2f08338324e9d63580a5c739ce9ada0110000000000000000000000000000000000000000000000000000000000e4e1c0",
                    "decodedMethod": {
                        "callParams": [
                            {
                                "name": "to",
                                "type": "address",
                                "value": "0xc1ea99d2f08338324e9d63580a5c739ce9ada011"
                            },
                            {
                                "decimalAvailable": true,
                                "name": "value",
                                "type": "uint256",
                                "value": "15,000,000"
                            }
                        ],
                        "constructorArguments": "",
                        "name": "transfer",
                        "returnParams": [
                            {
                                "name": "",
                                "type": "bool",
                                "value": true
                            }
                        ],
                        "signature": "transfer(address,uint256)"
                    },
                    "errorInfo": "",
                    "fromAddress": "0xa0b86991c6218b36c1d19d4a2e9eb0ce3606eb48",
                    "gasUsed": 33363,
                    "id": 1,
                    "methodDecoded": true,
                    "operation": "DELEGATECALL",
                    "output": "0x0000000000000000000000000000000000000000000000000000000000000001",
                    "revert": false,
                    "revertMessage": "",
                    "selector": "0xa9059cbb",
                    "status": true,
                    "value": "0"
                },
                "nodeType": 0
            },
            "2": {
                "event": {
                    "contract": "0xa0b86991c6218b36c1d19d4a2e9eb0ce3606eb48",
                    "decodedLog": {
                        "name": "Transfer",
                        "params": [
                            {
                                "name": "from",
                                "type": "address",
                                "value": "0x415f064168b8b38c7d4be22653ba1f2c12a3a533"
                            },
                            {
                                "name": "to",
                                "type": "address",
                                "value": "0xc1ea99d2f08338324e9d63580a5c739ce9ada011"
                            },
                            {
                                "decimalAvailable": true,
                                "name": "value",
                                "type": "uint256",
                                "value": "15,000,000"
                            }
                        ],
                        "signature": "Transfer(address,address,uint256)"
                    },
                    "id": 2,
                    "logData": "0x0000000000000000000000000000000000000000000000000000000000e4e1c0",
                    "logDecoded": true,
                    "operation": "EVENT",
                    "revert": false,
                    "status": true,
                    "topics": [
                        "0xddf252ad1be2c89b69c2b068fc378daa952ba7f163c4a11628f55a4df523b3ef",
                        "0x000000000000000000000000415f064168b8b38c7d4be22653ba1f2c12a3a533",
                        "0x000000000000000000000000c1ea99d2f08338324e9d63580a5c739ce9ada011"
                    ]
                },
                "nodeType": 1
            }
        },
        "gasFlame": [
            {
                "children": [
                    {
                        "children": [
                            {
                                "children": [],
                                "depth": 0,
                                "name": "Initial Gas",
                                "value": 21596
                            },
                            {
                                "children": [
                                    {
                                        "children": [],
                                        "depth": 1,
                                        "name": "transfer",
                                        "value": 33363
                                    }
                                ],
                                "depth": 0,
                                "name": "Executed Gas",
                                "value": 40652
                            }
                        ],
                        "depth": -1,
                        "name": "Actual Gas Used",
                        "value": 62248
                    },
                    {
                        "children": [],
                        "depth": -1,
                        "name": "Refunded Gas",
                        "value": 0
                    }
                ],
                "depth": -2,
                "name": "Total Gas",
                "value": 62248
            }
        ],
        "isConfirmed": true,
        "mainTrace": [
            {
                "children": [
                    {
                        "children": [
                            {
                                "children": [
                                    {
                                        "children": [],
                                        "depth": 2,
                                        "id": 2,
                                        "order": 2
                                    }
                                ],
                                "depth": 1,
                                "id": 1,
                                "order": 1
                            }
                        ],
                        "depth": 0,
                        "id": 0,
                        "order": 0
                    }
                ],
                "depth": -1,
                "id": -1,
                "order": -1
            }
        ],
        "mainTraceNodeCount": 3,
        "parentIdMap": {
            "0": -1,
            "1": 0,
            "2": 1
        },
        "tidyTrace": [
            {
                "children": [
                    {
                        "children": [
                            {
                                "children": [
                                    {
                                        "children": [],
                                        "depth": 2,
                                        "id": 2,
                                        "order": 2
                                    }
                                ],
                                "depth": 1,
                                "id": 1,
                                "order": 1
                            }
                        ],
                        "depth": 0,
                        "id": 0,
                        "order": 0
                    }
                ],
                "depth": -1,
                "id": -1,
                "order": -1
            }
        ],
        "tidyTraceNodeCount": 3
    },
    "state_change": {
        "stateChanges": [
            {
                "address": "0xa0b86991c6218b36c1d19d4a2e9eb0ce3606eb48",
                "erc": "ERC-20",
                "slots": [
                    {
                        "current": "0x0000000000000000000000000000000000000000000000000000000000e4e1c0",
                        "key": "0x435da3bc2b3a45a2f96429178085cd4d3506d09e7d5cfeaa09353f6f3a8d59a1",
                        "prev": "0x0000000000000000000000000000000000000000000000000000000000000000"
                    },
                    {
                        "current": "0x00000000000000000000000000000000000000000000000000000000342db250",
                        "key": "0x194a04870fadf2a973bb6480c831dd896f526dc7b23b469b259d8066e914404e",
                        "prev": "0x0000000000000000000000000000000000000000000000000000000035129410"
                    }
                ],
                "storageVariables": [
                    {
                        "name": "balanceAndBlacklistStates",
                        "type": "mapping(address => uint256)",
                        "value": {
                            "pairs": [
                                {
                                    "key": "0x415f064168b8b38c7d4be22653ba1f2c12a3a533",
                                    "value": {
                                        "current": "875410000",
                                        "prev": "890410000",
                                        "typeTag": 1
                                    }
                                },
                                {
                                    "key": "0xc1ea99d2f08338324e9d63580a5c739ce9ada011",
                                    "value": {
                                        "current": "15000000",
                                        "prev": "0",
                                        "typeTag": 1
                                    }
                                }
                            ],
                            "typeTag": 4
                        }
                    }
                ]
            }
        ]
    }
}