{
    "balance_change": {
        "balanceChanges": [
            {
                "account": "0x007174732705604bbbf77038332dc52fd5a5000c",
                "assets": [
                    {
                        "address": "0xbb9bc244d798123fde783fcc1c72d3bb8c189413",
                        "amount": "20,000,000,000,000,000",
                        "iconUrl": "",
                        "isERC1155": false,
                        "isERC721": false,
                        "sign": false,
                        "value": ""
                    }
                ]
            },
            {
                "account": "0xd80c712a903e8ad770c45be18d4ed64ab447be8e",
                "assets": [
                    {
                        "address": "0xbb9bc244d798123fde783fcc1c72d3bb8c189413",
                        "amount": "20,000,000,000,000,000",
                        "iconUrl": "",
                        "isERC1155": false,
                        "isERC721": false,
                        "sign": true,
                        "value": ""
                    }
                ]
            }
        ]
    },
    "profile": {
        "basic_info": {
            "baseFee": "",
            "blockNumber": 1805925,
            "callData": "0xa9059cbb000000000000000000000000d80c712a903e8ad770c45be18d4ed64ab447be8e00000000000000000000000000000000000000000000000002c68af0bb140000",
            "debugEnable": true,
            "errorInfo": "",
            "eventCount": 1,
            "feeRecipient": "0x61c808d82a3ac53231750dadc13c777b59310bd9",
            "formatValue": "0",
            "gasLimit": 177714,
            "gasPrice": "20",
            "gasUsed": 77714,
            "intTxnCount": 0,
            "internalRevert": false,
            "internalRevertMessage": "",
            "isContractCreation": false,
            "isFlashloan": false,
            "maxFee": "",
            "nonce": 569,
            "overwritedBlockNumber": -1,
            "priorityFee": "",
            "receiver": "0xbb9bc244d798123fde783fcc1c72d3bb8c189413",
            "revertMessage": "",
            "sender": "0x007174732705604bbbf77038332dc52fd5a5000c",
            "simulationEnable": true,
            "sourceTxnHash": "0x767625635317877380d1dd3b6fa0c69ea31cc4903ceaa792244a06aee08bbe8f",
            "status": true,
            "timestamp": "2016-07-01T16:10:13Z",
            "transactionFee": "0.00155428",
            "txnHash": "0x767625635317877380d1dd3b6fa0c69ea31cc4903ceaa792244a06aee08bbe8f",
            "txnIndex": 0,
            "type": 0,
            "value": "0"
        },
        "fund_flow": [
            {
                "amount": "20,000,000,000,000,000",
                "from": "0x007174732705604bbbf77038332dc52fd5a5000c",
                "id": 1,
                "isERC1155": false,
                "isERC721": false,
                "isReverted": false,
                "order": 1,
                "to": "0xd80c712a903e8ad770c45be18d4ed64ab447be8e",
                "token": "0xbb9bc244d798123fde783fcc1c72d3bb8c189413"
            }
        ],
        "token_infos": [
            {
                "address": "0xeeeeeeeeeeeeeeeeeeeeeeeeeeeeeeeeeeeeeeee",
                "decimals": 18
            },
            {
                "address": "0xbb9bc244d798123fde783fcc1c72d3bb8c189413",
                "decimals": 1
            },
            {
                "address": "0xc02aaa39b223fe8d0a0e5c4f27ead9083c756cc2",
                "decimals": 18
            }
        ]
    },
    "address_label": {
        "labels": [
            {
                "address": "0x0000000000000000000000000000000000000004",
                "label": "Precompiled"
            },
            {
                "address": "0xeeeeeeeeeeeeeeeeeeeeeeeeeeeeeeeeeeeeeeee",
                "label": "Ether"
            },
            {
                "address": "0xbb9bc244d798123fde783fcc1c72d3bb8c189413",
                "label": "TheDAO Token"
            },
            {
                "address": "0x007174732705604bbbf77038332dc52fd5a5000c",
                "label": "BlockTrades Exchange"
            },
            {
                "address": "0x0000000000000000000000000000000000000001",
                "label": "Precompiled"
            },
            {
                "address": "0x0000000000000000000000000000000000000002",
                "label": "Precompiled"
            },
            {
                "address": "0x0000000000000000000000000000000000000003",
                "label": "Precompiled"
            }
        ]
    },
    "trace": {
        "accountLabels": null,
        "dataMap": {
            "-1": {
                "invocation": {
                    "address": "0x007174732705604bbbf77038332dc52fd5a5000c",
                    "callData": "",
                    "decodedMethod": null,
                    "errorInfo": "",
                    "fromAddress": "",
                    "gasUsed": 0,
                    "id": -1,
                    "methodDecoded": false,
                    "operation": "",
                    "output": "",
                    "revert": false,
                    "revertMessage": "",
                    "selector": "",
                    "status": false,
                    "value": ""
                },
                "nodeType": 0
            },
            "0": {
                "invocation": {
                    "address": "0xbb9bc244d798123fde783fcc1c72d3bb8c189413",
                    "callData": "0x000000000000000000000000d80c712a903e8ad770c45be18d4ed64ab447be8e00000000000000000000000000000000000000000000000002c68af0bb140000",
                    "decodedMethod": {
                        "callParams": [
                            {
                                "name": "_to",
                                "type": "address",
                                "value": "0xd80c712a903e8ad770c45be18d4ed64ab447be8e"
                            },
                            {
                                "decimalAvailable": true,
                                "name": "_value",
                                "type": "uint256",
                                "value": "200,000,000,000,000,000"
                            }
                        ],
                        "constructorArguments": "",
                        "name": "transfer",
                        "returnParams": [
                            {
                                "name": "success",
                                "type": "bool",
                                "value": true
                            }
                        ],
                        "signature": "transfer(address,uint256)"
                    },
                    "errorInfo": "",
                    "fromAddress": "0x007174732705604bbbf77038332dc52fd5a5000c",
                    "gasUsed": 77714,
                    "id": 0,
                    "methodDecoded": true,
                    "operation": "CALL",
                    "output": "0x0000000000000000000000000000000000000000000000000000000000000001",
                    "revert": false,
                    "revertMessage": "",
                    "selector": "0xa9059cbb",
                    "status": true,
                    "value": "0"
                },
                "nodeType": 0
            },
            "1": {
                "event": {
                    "contract": "0xbb9bc244d798123fde783fcc1c72d3bb8c189413",
                    "decodedLog": {
                        "name": "Transfer",
                        "params": [
                            {
                                "name": "_from",
                                "type": "address",
                                "value": "0x007174732705604bbbf77038332dc52fd5a5000c"
                            },
                            {
                                "name": "_to",
                                "type": "address",
                                "value": "0xd80c712a903e8ad770c45be18d4ed64ab447be8e"
                            },
                            {
                                "decimalAvailable": true,
                                "name": "_amount",
                                "type": "uint256",
                                "value": "200,000,000,000,000,000"
                            }
                        ],
                        "signature": "Transfer(address,address,uint256)"
                    },
                    "id": 1,
                    "logData": "0x00000000000000000000000000000000000000000000000002c68af0bb140000",
                    "logDecoded": true,
                    "operation": "EVENT",
                    "revert": false,
                    "status": true,
                    "topics": [
                        "0xddf252ad1be2c89b69c2b068fc378daa952ba7f163c4a11628f55a4df523b3ef",
                        "0x000000000000000000000000007174732705604bbbf77038332dc52fd5a5000c",
                        "0x000000000000000000000000d80c712a903e8ad770c45be18d4ed64ab447be8e"
                    ]
                },
                "nodeType": 1
            }
        },
        "gasFlame": [
            {
                "children": [
                    {
                        "children": [
                            {
                                "children": [],
                                "depth": 0,
                                "name": "Initial Gas",
                                "value": 23192
                            },
                            {
                                "children": [],
                                "depth": 0,
                                "name": "Executed Gas",
                                "value": 54522
                            }
                        ],
                        "depth": -1,
                        "name": "Actual Gas Used",
                        "value": 77714
                    },
                    {
                        "children": [],
                        "depth": -1,
                        "name": "Refunded Gas",
                        "value": 0
                    }
                ],
                "depth": -2,
                "name": "Total Gas",
                "value": 77714
            }
        ],
        "isConfirmed": true,
        "mainTrace": [
            {
                "children": [
                    {
                        "children": [
                            {
                                "children": [],
                                "depth": 1,
                                "id": 1,
                                "order": 1
                            }
                        ],
                        "depth": 0,
                        "id": 0,
                        "order": 0
                    }
                ],
                "depth": -1,
                "id": -1,
                "order": -1
            }
        ],
        "mainTraceNodeCount": 2,
        "parentIdMap": {
            "0": -1,
            "1": 0
        },
        "tidyTrace": [
            {
                "children": [
                    {
                        "children": [
                            {
                                "children": [],
                                "depth": 1,
                                "id": 1,
                                "order": 1
                            }
                        ],
                        "depth": 0,
                        "id": 0,
                        "order": 0
                    }
                ],
                "depth": -1,
                "id": -1,
                "order": -1
            }
        ],
        "tidyTraceNodeCount": 2
    },
    "state_change": {
        "stateChanges": [
            {
                "address": "0xbb9bc244d798123fde783fcc1c72d3bb8c189413",
                "erc": "ERC-20",
                "slots": [
                    {
                        "current": "0x0000000000000000000000000000000000000000000000000000000000dbb4d1",
                        "key": "0x456ab77f135fb60001cea025f73c99839dbb2f63561e63c24a773a6d83bd3683",
                        "prev": "0x0000000000000000000000000000000000000000000000000000000000dbbb02"
                    },
                    {
                        "current": "0x0000000000000000000000000000000000000000000000000000000000000631",
                        "key": "0x5cc30d08720a1e2d7b31bfa6b4d49fb6636b54365cad60ad28ecf0d4418ffbff",
                        "prev": "0x0000000000000000000000000000000000000000000000000000000000000000"
                    },
                    {
                        "current": "0x0000000000000000000000000000000000000000000000627d86b2d26d492caa",
                        "key": "0x4896d26367e439f6de29b44ba0dc5f1a6412bef5929f4705ef3d4f83c28ef9b1",
                        "prev": "0x000000000000000000000000000000000000000000000062804d3dc3285d2caa"
                    },
                    {
                        "current": "0x00000000000000000000000000000000000000000000000002c68af0bb140000",
                        "key": "0x50c7cdcf1661f71c5dbda8af8c0db685181fe99f75454087e5044d28973389d1",
                        "prev": "0x0000000000000000000000000000000000000000000000000000000000000000"
                    }
                ],
                "storageVariables": []
            }
        ]
    }
}