{
    "balance_change": {
        "balanceChanges": [
            {
                "account": "0x9eeeaa59cdbb0ac795c7a1e6ebebb42c0f0b89e7",
                "assets": [
                    {
                        "address": "0x6f259637dcd74c767781e37bc6133cd6a68aa161",
                        "amount": "1,999.9",
                        "iconUrl": "https://assets.blocksec.com/icon/9cff8868bd28b03ec07d965d7389bab3c0518db3a13bae24e5082460cf4d82f7.png",
                        "isERC1155": false,
                        "isERC721": false,
                        "sign": false,
                        "value": ""
                    }
                ]
            },
            {
                "account": "0x0d0707963952f2fba59dd06f2b425ace40b492fe",
                "assets": [
                    {
                        "address": "0x6f259637dcd74c767781e37bc6133cd6a68aa161",
                        "amount": "1,999.9",
                        "iconUrl": "https://assets.blocksec.com/icon/9cff8868bd28b03ec07d965d7389bab3c0518db3a13bae24e5082460cf4d82f7.png",
                        "isERC1155": false,
                        "isERC721": false,
                        "sign": true,
                        "value": ""
                    }
                ]
            }
        ]
    },
    "profile": {
        "basic_info": {
            "baseFee": "",
            "blockNumber": 8884064,
            "callData": "0xa9059cbb0000000000000000000000000d0707963952f2fba59dd06f2b425ace40b492fe00000000000000000000000000000000000000000000006c6a3016135fb60000",
            "debugEnable": true,
            "errorInfo": "",
            "eventCount": 1,
            "feeRecipient": "0x5a0b54d5dc17e0aadc383d2db43b0a0d3e029c4c",
            "formatValue": "0",
            "gasLimit": 110000,
            "gasPrice": "4.0002",
            "gasUsed": 21919,
            "intTxnCount": 0,
            "internalRevert": false,
            "internalRevertMessage": "",
            "isContractCreation": false,
            "isFlashloan": false,
            "maxFee": "",
            "nonce": 3,
            "overwritedBlockNumber": -1,
            "priorityFee": "",
            "receiver": "0x6f259637dcd74c767781e37bc6133cd6a68aa161",
            "revertMessage": "",
            "sender": "0x9eeeaa59cdbb0ac795c7a1e6ebebb42c0f0b89e7",
            "simulationEnable": true,
            "sourceTxnHash": "0x77f3c594a957a63af7fae0773fee084e61eb341859543a483c7076ec2e0f8d40",
            "status": true,
            "timestamp": "2019-11-06T13:21:53Z",
            "transactionFee": "0.0000876803838",
            "txnHash": "0x77f3c594a957a63af7fae0773fee084e61eb341859543a483c7076ec2e0f8d40",
            "txnIndex": 60,
            "type": 0,
            "value": "0"
        },
        "fund_flow": [
            {
                "amount": "1,999.9",
                "from": "0x9eeeaa59cdbb0ac795c7a1e6ebebb42c0f0b89e7",
                "id": 1,
                "isERC1155": false,
                "isERC721": false,
                "isReverted": false,
                "order": 1,
                "to": "0x0d0707963952f2fba59dd06f2b425ace40b492fe",
                "token": "0x6f259637dcd74c767781e37bc6133cd6a68aa161"
            }
        ],
        "token_infos": [
            {
                "address": "0x6f259637dcd74c767781e37bc6133cd6a68aa161",
                "decimals": 18
            },
            {
                "address": "0xc02aaa39b223fe8d0a0e5c4f27ead9083c756cc2",
                "decimals": 18
            },
            {
                "address": "0xeeeeeeeeeeeeeeeeeeeeeeeeeeeeeeeeeeeeeeee",
                "decimals": 18
            }
        ]
    },
    "address_label": {
        "labels": [
            {
                "address": "0xeeeeeeeeeeeeeeeeeeeeeeeeeeeeeeeeeeeeeeee",
                "label": "Ether"
            },
            {
                "address": "0x9eeeaa59cdbb0ac795c7a1e6ebebb42c0f0b89e7",
                "label": "GATE.IO"
            },
            {
                "address": "0x0d0707963952f2fba59dd06f2b425ace40b492fe",
                "label": "Gate.io"
            },
            {
                "address": "0x6f259637dcd74c767781e37bc6133cd6a68aa161",
                "label": "HTX Token"
            },
            {
                "address": "0x0000000000000000000000000000000000000001",
                "label": "Precompiled"
            },
            {
                "address": "0x0000000000000000000000000000000000000002",
                "label": "Precompiled"
            },
            {
                "address": "0x0000000000000000000000000000000000000003",
                "label": "Precompiled"
            },
            {
                "address": "0x0000000000000000000000000000000000000004",
                "label": "Precompiled"
            }
        ]
    },
    "trace": {
        "accountLabels": null,
        "dataMap": {
            "-1": {
                "invocation": {
                    "address": "0x9eeeaa59cdbb0ac795c7a1e6ebebb42c0f0b89e7",
                    "callData": "",
                    "decodedMethod": null,
                    "errorInfo": "",
                    "fromAddress": "",
                    "gasUsed": 0,
                    "id": -1,
                    "methodDecoded": false,
                    "operation": "",
                    "output": "",
                    "revert": false,
                    "revertMessage": "",
                    "selector": "",
                    "status": false,
                    "value": ""
                },
                "nodeType": 0
            },
            "0": {
                "invocation": {
                    "address": "0x6f259637dcd74c767781e37bc6133cd6a68aa161",
                    "callData": "0x0000000000000000000000000d0707963952f2fba59dd06f2b425ace40b492fe00000000000000000000000000000000000000000000006c6a3016135fb60000",
                    "decodedMethod": {
                        "callParams": [
                            {
                                "name": "_to",
                                "type": "address",
                                "value": "0x0d0707963952f2fba59dd06f2b425ace40b492fe"
                            },
                            {
                                "decimalAvailable": true,
                                "name": "_value",
                                "type": "uint256",
                                "value": "1,999,900,000,000,000,000,000"
                            }
                        ],
                        "constructorArguments": "",
                        "name": "transfer",
                        "returnParams": [
                            {
                                "name": "",
                                "type": "bool",
                                "value": true
                            }
                        ],
                        "signature": "transfer(address,uint256)"
                    },
                    "errorInfo": "",
                    "fromAddress": "0x9eeeaa59cdbb0ac795c7a1e6ebebb42c0f0b89e7",
                    "gasUsed": 21919,
                    "id": 0,
                    "methodDecoded": true,
                    "operation": "CALL",
                    "output": "0x0000000000000000000000000000000000000000000000000000000000000001",
                    "revert": false,
                    "revertMessage": "",
                    "selector": "0xa9059cbb",
                    "status": true,
                    "value": "0"
                },
                "nodeType": 0
            },
            "1": {
                "event": {
                    "contract": "0x6f259637dcd74c767781e37bc6133cd6a68aa161",
                    "decodedLog": {
                        "name": "Transfer",
                        "params": [
                            {
                                "name": "_from",
                                "type": "address",
                                "value": "0x9eeeaa59cdbb0ac795c7a1e6ebebb42c0f0b89e7"
                            },
                            {
                                "name": "_to",
                                "type": "address",
                                "value": "0x0d0707963952f2fba59dd06f2b425ace40b492fe"
                            },
                            {
                                "decimalAvailable": true,
                                "name": "_value",
                                "type": "uint256",
                                "value": "1,999,900,000,000,000,000,000"
                            }
                        ],
                        "signature": "Transfer(address,address,uint256)"
                    },
                    "id": 1,
                    "logData": "0x00000000000000000000000000000000000000000000006c6a3016135fb60000",
                    "logDecoded": true,
                    "operation": "EVENT",
                    "revert": false,
                    "status": true,
                    "topics": [
                        "0xddf252ad1be2c89b69c2b068fc378daa952ba7f163c4a11628f55a4df523b3ef",
                        "0x0000000000000000000000009eeeaa59cdbb0ac795c7a1e6ebebb42c0f0b89e7",
                        "0x0000000000000000000000000d0707963952f2fba59dd06f2b425ace40b492fe"
                    ]
                },
                "nodeType": 1
            }
        },
        "gasFlame": [
            {
                "children": [
                    {
                        "children": [
                            {
                                "children": [],
                                "depth": 0,
                                "name": "Initial Gas",
                                "value": 23256
                            },
                            {
                                "children": [],
                                "depth": 0,
                                "name": "Executed Gas",
                                "value": 13663
                            }
                        ],
                        "depth": -1,
                        "name": "Actual Gas Used",
                        "value": 21919
                    },
                    {
                        "children": [],
                        "depth": -1,
                        "name": "Refunded Gas",
                        "value": 15000
                    }
                ],
                "depth": -2,
                "name": "Total Gas",
                "value": 36919
            }
        ],
        "isConfirmed": true,
        "mainTrace": [
            {
                "children": [
                    {
                        "children": [
                            {
                                "children": [],
                                "depth": 1,
                                "id": 1,
                                "order": 1
                            }
                        ],
                        "depth": 0,
                        "id": 0,
                        "order": 0
                    }
                ],
                "depth": -1,
                "id": -1,
                "order": -1
            }
        ],
        "mainTraceNodeCount": 2,
        "parentIdMap": {
            "0": -1,
            "1": 0
        },
        "tidyTrace": [
            {
                "children": [
                    {
                        "children": [
                            {
                                "children": [],
                                "depth": 1,
                                "id": 1,
                                "order": 1
                            }
                        ],
                        "depth": 0,
                        "id": 0,
                        "order": 0
                    }
                ],
                "depth": -1,
                "id": -1,
                "order": -1
            }
        ],
        "tidyTraceNodeCount": 2
    },
    "state_change": {
        "stateChanges": [
            {
                "address": "0x6f259637dcd74c767781e37bc6133cd6a68aa161",
                "erc": "ERC-20",
                "slots": [
                    {
                        "current": "0x0000000000000000000000000000000000000000000000000000000000000000",
                        "key": "0x1825d1090758760a1ce9147b14e848023b5cad958bb6267e5949b3c33a480fe1",
                        "prev": "0x00000000000000000000000000000000000000000000006c6a3016135fb60000"
                    },
                    {
                        "current": "0x0000000000000000000000000000000000000000000056ecb87d62f05c378068",
                        "key": "0x5b55c21b899d40d6c00cc95facd1d867524bcacab0555e9145e418f6ce188620",
                        "prev": "0x0000000000000000000000000000000000000000000056804e4d4cdcfc818068"
                    }
                ],
                "storageVariables": [
                    {
                        "name": "balances",
                        "type": "mapping(address => uint256)",
                        "value": {
                            "pairs": [
                                {
                                    "key": "0x0d0707963952f2fba59dd06f2b425ace40b492fe",
                                    "value": {
                                        "current": "410490243018644488945768",
                                        "prev": "408490343018644488945768",
                                        "typeTag": 1
                                    }
                                },
                                {
                                    "key": "0x9eeeaa59cdbb0ac795c7a1e6ebebb42c0f0b89e7",
                                    "value": {
                                        "current": "0",
                                        "prev": "1999900000000000000000",
                                        "typeTag": 1
                                    }
                                }
                            ],
                            "typeTag": 4
                        }
                    }
                ]
            }
        ]
    }
}