{
    "balance_change": {
        "balanceChanges": [
            {
                "account": "0x2ed076d1628376532b6a2fea1e9302294d1c8729",
                "assets": [
                    {
                        "address": "0xcc8fa225d80b9c7d42f96e9570156c65d6caaa25",
                        "amount": "5,684",
                        "iconUrl": "https://assets.blocksec.com/icon/fc2a01d842c57a6a1fac3bd31569aeef596b047fed4623ea8486a1bc2aefb50d.png",
                        "isERC1155": false,
                        "isERC721": false,
                        "sign": true,
                        "value": "0.94412892"
                    }
                ]
            },
            {
                "account": "0x1a2a1c938ce3ec39b6d47113c7955baa9dd454f2",
                "assets": [
                    {
                        "address": "0xcc8fa225d80b9c7d42f96e9570156c65d6caaa25",
                        "amount": "2,077",
                        "iconUrl": "https://assets.blocksec.com/icon/fc2a01d842c57a6a1fac3bd31569aeef596b047fed4623ea8486a1bc2aefb50d.png",
                        "isERC1155": false,
                        "isERC721": false,
                        "sign": false,
                        "value": "0.37788533"
                    }
                ]
            },
            {
                "account": "0x0000000000000000000000000000000000000000",
                "assets": [
                    {
                        "address": "0xcc8fa225d80b9c7d42f96e9570156c65d6caaa25",
                        "amount": "3,607",
                        "iconUrl": "https://assets.blocksec.com/icon/fc2a01d842c57a6a1fac3bd31569aeef596b047fed4623ea8486a1bc2aefb50d.png",
                        "isERC1155": false,
                        "isERC721": false,
                        "sign": false,
                        "value": "0.56671107"
                    }
                ]
            }
        ]
    },
    "profile": {
        "basic_info": {
            "baseFee": "33.887014648",
            "blockNumber": 13021451,
            "callData": "0x993e1c4200000000000000000000000000000000000000000000000000000000000959190000000000000000000000002ed076d1628376532b6a2fea1e9302294d1c8729000000000000000000000000cc8fa225d80b9c7d42f96e9570156c65d6caaa25000000000000000000000000000000000000000000000000000000000000163400000000000000000000000000000000000000000000000000000000000000a0000000000000000000000000000000000000000000000000000000000000018c01a37c34895a9e44386844c50ab89de09303136586a292fa73e85dced829c4d70f5aff158db64b51304a8b028198720f97f2a2c42b9d43ec678c2565e98abb6eb51c0146cfdfe3a4a2282134eebe356ce57fdc2073208acd6a4f58c44d8ef4792fe9e7086fa0a9619aac29450144928093489f696d5ec7fcfdf0206a659fa7506273971c01db4542c9c35a46932bda8529fa971c590bc98abd6a1254e035fe8a8ba62a7d1b482897f0b2de6ba6252e0572bdcd8f7d80368944b4b8982c39e02fbbf17be5c91b0174416d92e81bd02658a7f0dca1854e84375aed09783f1fa4456b049b89379e192d4b47e6540eddf66bd6d46505b44d6e0ab4cc26608962de14e2d6f8d5a65ca01c010169fcdda513f0906b5de8438594809c55300db92867d73879a78099b856ba8359f57aa7c8fbdaf94784bc3e172673f0106b5faf9c6698cca9788a198f59d0571c01561a8af16d8d5c9b1ab40fdab63a04044943eba2580048b6bb5172c6ae13a7955dac825fe4ec5734ecb1f1d3e4b15459f8cddc88472c63d0da0b56edf2e80ada1c0000000000000000000000000000000000000000",
            "debugEnable": true,
            "errorInfo": "",
            "eventCount": 3,
            "feeRecipient": "0xea674fdde714fd979de3edf0f56aa9716b898ec8",
            "formatValue": "0",
            "gasLimit": 293908,
            "gasPrice": "35.699690243",
            "gasUsed": 218770,
            "intTxnCount": 22,
            "internalRevert": false,
            "internalRevertMessage": "",
            "isContractCreation": false,
            "isFlashloan": false,
            "maxFee": "",
            "nonce": 19,
            "overwritedBlockNumber": -1,
            "priorityFee": "",
            "receiver": "0x1a2a1c938ce3ec39b6d47113c7955baa9dd454f2",
            "revertMessage": "",
            "sender": "0x2ed076d1628376532b6a2fea1e9302294d1c8729",
            "simulationEnable": true,
            "sourceTxnHash": "0x77f820cffefef4620cbaebe21dcda7ba67b6282d270e71f14388841dde6173f7",
            "status": true,
            "timestamp": "2021-08-14T05:43:22Z",
            "transactionFee": "0.00781002123446111",
            "txnHash": "0x77f820cffefef4620cbaebe21dcda7ba67b6282d270e71f14388841dde6173f7",
            "txnIndex": 220,
            "type": 0,
            "value": "0"
        },
        "fund_flow": [
            {
                "amount": "3,607",
                "from": "0x0000000000000000000000000000000000000000",
                "id": 1,
                "isERC1155": false,
                "isERC721": false,
                "isReverted": false,
                "order": 1,
                "to": "0x1a2a1c938ce3ec39b6d47113c7955baa9dd454f2",
                "token": "0xcc8fa225d80b9c7d42f96e9570156c65d6caaa25"
            },
            {
                "amount": "5,684",
                "from": "0x1a2a1c938ce3ec39b6d47113c7955baa9dd454f2",
                "id": 2,
                "isERC1155": false,
                "isERC721": false,
                "isReverted": false,
                "order": 2,
                "to": "0x2ed076d1628376532b6a2fea1e9302294d1c8729",
                "token": "0xcc8fa225d80b9c7d42f96e9570156c65d6caaa25"
            }
        ],
        "token_infos": [
            {
                "address": "0xc02aaa39b223fe8d0a0e5c4f27ead9083c756cc2",
                "decimals": 18
            },
            {
                "address": "0xcc8fa225d80b9c7d42f96e9570156c65d6caaa25",
                "decimals": 0
            },
            {
                "address": "0xeeeeeeeeeeeeeeeeeeeeeeeeeeeeeeeeeeeeeeee",
                "decimals": 18
            }
        ]
    },
    "address_label": {
        "labels": [
            {
                "address": "0x0000000000000000000000000000000000000002",
                "label": "Precompiled"
            },
            {
                "address": "0x0000000000000000000000000000000000000003",
                "label": "Precompiled"
            },
            {
                "address": "0x0000000000000000000000000000000000000004",
                "label": "Precompiled"
            },
            {
                "address": "0xeeeeeeeeeeeeeeeeeeeeeeeeeeeeeeeeeeeeeeee",
                "label": "Ether"
            },
            {
                "address": "0xc02aaa39b223fe8d0a0e5c4f27ead9083c756cc2",
                "label": "Wrapped Ether (WETH)"
            },
            {
                "address": "0x8407dc57739bcda7aa53ca6f12f82f9d51c2f21e",
                "label": "MainchainGatewayManager"
            },
            {
                "address": "0x33e71e649abdc09f650ad44139674828a2075ad2",
                "label": "Registry"
            },
            {
                "address": "0x42b19dca30fd612b1757682c074497847f2b57e0",
                "label": "MainchainValidator"
            },
            {
                "address": "0x0000000000000000000000000000000000000001",
                "label": "Precompiled"
            },
            {
                "address": "0xcc8fa225d80b9c7d42f96e9570156c65d6caaa25",
                "label": "Axie Infinity: SLP Token"
            },
            {
                "address": "0x1a2a1c938ce3ec39b6d47113c7955baa9dd454f2",
                "label": "Axie Infinity: Ronin Bridge"
            }
        ]
    },
    "trace": {
        "accountLabels": null,
        "dataMap": {
            "-1": {
                "invocation": {
                    "address": "0x2ed076d1628376532b6a2fea1e9302294d1c8729",
                    "callData": "",
                    "decodedMethod": null,
                    "errorInfo": "",
                    "fromAddress": "",
                    "gasUsed": 0,
                    "id": -1,
                    "methodDecoded": false,
                    "operation": "",
                    "output": "",
                    "revert": false,
                    "revertMessage": "",
                    "selector": "",
                    "status": false,
                    "value": ""
                },
                "nodeType": 0
            },
            "0": {
                "invocation": {
                    "address": "0x1a2a1c938ce3ec39b6d47113c7955baa9dd454f2",
                    "callData": "0x00000000000000000000000000000000000000000000000000000000000959190000000000000000000000002ed076d1628376532b6a2fea1e9302294d1c8729000000000000000000000000cc8fa225d80b9c7d42f96e9570156c65d6caaa25000000000000000000000000000000000000000000000000000000000000163400000000000000000000000000000000000000000000000000000000000000a0000000000000000000000000000000000000000000000000000000000000018c01a37c34895a9e44386844c50ab89de09303136586a292fa73e85dced829c4d70f5aff158db64b51304a8b028198720f97f2a2c42b9d43ec678c2565e98abb6eb51c0146cfdfe3a4a2282134eebe356ce57fdc2073208acd6a4f58c44d8ef4792fe9e7086fa0a9619aac29450144928093489f696d5ec7fcfdf0206a659fa7506273971c01db4542c9c35a46932bda8529fa971c590bc98abd6a1254e035fe8a8ba62a7d1b482897f0b2de6ba6252e0572bdcd8f7d80368944b4b8982c39e02fbbf17be5c91b0174416d92e81bd02658a7f0dca1854e84375aed09783f1fa4456b049b89379e192d4b47e6540eddf66bd6d46505b44d6e0ab4cc26608962de14e2d6f8d5a65ca01c010169fcdda513f0906b5de8438594809c55300db92867d73879a78099b856ba8359f57aa7c8fbdaf94784bc3e172673f0106b5faf9c6698cca9788a198f59d0571c01561a8af16d8d5c9b1ab40fdab63a04044943eba2580048b6bb5172c6ae13a7955dac825fe4ec5734ecb1f1d3e4b15459f8cddc88472c63d0da0b56edf2e80ada1c0000000000000000000000000000000000000000",
                    "decodedMethod": {
                        "callParams": [
                            {
                                "name": "_withdrawalId",
                                "type": "uint256",
                                "value": "612,633"
                            },
                            {
                                "name": "_user",
                                "type": "address",
                                "value": "0x2ed076d1628376532b6a2fea1e9302294d1c8729"
                            },
                            {
                                "name": "_token",
                                "type": "address",
                                "value": "0xcc8fa225d80b9c7d42f96e9570156c65d6caaa25"
                            },
                            {
                                "name": "_amount",
                                "type": "uint256",
                                "value": "5,684"
                            },
                            {
                                "name": "_signatures",
                                "type": "bytes",
                                "value": "0x01a37c34895a9e44386844c50ab89de09303136586a292fa73e85dced829c4d70f5aff158db64b51304a8b028198720f97f2a2c42b9d43ec678c2565e98abb6eb51c0146cfdfe3a4a2282134eebe356ce57fdc2073208acd6a4f58c44d8ef4792fe9e7086fa0a9619aac29450144928093489f696d5ec7fcfdf0206a659fa7506273971c01db4542c9c35a46932bda8529fa971c590bc98abd6a1254e035fe8a8ba62a7d1b482897f0b2de6ba6252e0572bdcd8f7d80368944b4b8982c39e02fbbf17be5c91b0174416d92e81bd02658a7f0dca1854e84375aed09783f1fa4456b049b89379e192d4b47e6540eddf66bd6d46505b44d6e0ab4cc26608962de14e2d6f8d5a65ca01c010169fcdda513f0906b5de8438594809c55300db92867d73879a78099b856ba8359f57aa7c8fbdaf94784bc3e172673f0106b5faf9c6698cca9788a198f59d0571c01561a8af16d8d5c9b1ab40fdab63a04044943eba2580048b6bb5172c6ae13a7955dac825fe4ec5734ecb1f1d3e4b15459f8cddc88472c63d0da0b56edf2e80ada1c"
                            }
                        ],
                        "constructorArguments": "",
                        "name": "withdrawERC20For",
                        "returnParams": [],
                        "signature": "withdrawERC20For(uint256,address,address,uint256,bytes)"
                    },
                    "errorInfo": "",
                    "fromAddress": "0x2ed076d1628376532b6a2fea1e9302294d1c8729",
                    "gasUsed": 218770,
                    "id": 0,
                    "methodDecoded": true,
                    "operation": "CALL",
                    "output": "",
                    "revert": false,
                    "revertMessage": "",
                    "selector": "0x993e1c42",
                    "status": true,
                    "value": "0"
                },
                "nodeType": 0
            },
            "1": {
                "invocation": {
                    "address": "0x8407dc57739bcda7aa53ca6f12f82f9d51c2f21e",
                    "callData": "0x00000000000000000000000000000000000000000000000000000000000959190000000000000000000000002ed076d1628376532b6a2fea1e9302294d1c8729000000000000000000000000cc8fa225d80b9c7d42f96e9570156c65d6caaa25000000000000000000000000000000000000000000000000000000000000163400000000000000000000000000000000000000000000000000000000000000a0000000000000000000000000000000000000000000000000000000000000018c01a37c34895a9e44386844c50ab89de09303136586a292fa73e85dced829c4d70f5aff158db64b51304a8b028198720f97f2a2c42b9d43ec678c2565e98abb6eb51c0146cfdfe3a4a2282134eebe356ce57fdc2073208acd6a4f58c44d8ef4792fe9e7086fa0a9619aac29450144928093489f696d5ec7fcfdf0206a659fa7506273971c01db4542c9c35a46932bda8529fa971c590bc98abd6a1254e035fe8a8ba62a7d1b482897f0b2de6ba6252e0572bdcd8f7d80368944b4b8982c39e02fbbf17be5c91b0174416d92e81bd02658a7f0dca1854e84375aed09783f1fa4456b049b89379e192d4b47e6540eddf66bd6d46505b44d6e0ab4cc26608962de14e2d6f8d5a65ca01c010169fcdda513f0906b5de8438594809c55300db92867d73879a78099b856ba8359f57aa7c8fbdaf94784bc3e172673f0106b5faf9c6698cca9788a198f59d0571c01561a8af16d8d5c9b1ab40fdab63a04044943eba2580048b6bb5172c6ae13a7955dac825fe4ec5734ecb1f1d3e4b15459f8cddc88472c63d0da0b56edf2e80ada1c0000000000000000000000000000000000000000",
                    "decodedMethod": {
                        "callParams": [
                            {
                                "name": "_withdrawalId",
                                "type": "uint256",
                                "value": "612,633"
                            },
                            {
                                "name": "_user",
                                "type": "address",
                                "value": "0x2ed076d1628376532b6a2fea1e9302294d1c8729"
                            },
                            {
                                "name": "_token",
                                "type": "address",
                                "value": "0xcc8fa225d80b9c7d42f96e9570156c65d6caaa25"
                            },
                            {
                                "name": "_amount",
                                "type": "uint256",
                                "value": "5,684"
                            },
                            {
                                "name": "_signatures",
                                "type": "bytes",
                                "value": "0x01a37c34895a9e44386844c50ab89de09303136586a292fa73e85dced829c4d70f5aff158db64b51304a8b028198720f97f2a2c42b9d43ec678c2565e98abb6eb51c0146cfdfe3a4a2282134eebe356ce57fdc2073208acd6a4f58c44d8ef4792fe9e7086fa0a9619aac29450144928093489f696d5ec7fcfdf0206a659fa7506273971c01db4542c9c35a46932bda8529fa971c590bc98abd6a1254e035fe8a8ba62a7d1b482897f0b2de6ba6252e0572bdcd8f7d80368944b4b8982c39e02fbbf17be5c91b0174416d92e81bd02658a7f0dca1854e84375aed09783f1fa4456b049b89379e192d4b47e6540eddf66bd6d46505b44d6e0ab4cc26608962de14e2d6f8d5a65ca01c010169fcdda513f0906b5de8438594809c55300db92867d73879a78099b856ba8359f57aa7c8fbdaf94784bc3e172673f0106b5faf9c6698cca9788a198f59d0571c01561a8af16d8d5c9b1ab40fdab63a04044943eba2580048b6bb5172c6ae13a7955dac825fe4ec5734ecb1f1d3e4b15459f8cddc88472c63d0da0b56edf2e80ada1c"
                            }
                        ],
                        "constructorArguments": "",
                        "name": "withdrawERC20For",
                        "returnParams": [],
                        "signature": "withdrawERC20For(uint256,address,address,uint256,bytes)"
                    },
                    "errorInfo": "",
                    "fromAddress": "0x1a2a1c938ce3ec39b6d47113c7955baa9dd454f2",
                    "gasUsed": 189594,
                    "id": 1,
                    "methodDecoded": true,
                    "operation": "DELEGATECALL",
                    "output": "",
                    "revert": false,
                    "revertMessage": "",
                    "selector": "0x993e1c42",
                    "status": true,
                    "value": "0"
                },
                "nodeType": 0
            },
            "10": {
                "invocation": {
                    "address": "0x42b19dca30fd612b1757682c074497847f2b57e0",
                    "callData": "0x00000000000000000000000070bb1fb41c8c42f6ddd53a708e2b82209495e455",
                    "decodedMethod": {
                        "callParams": [
                            {
                                "name": "_addr",
                                "type": "address",
                                "value": "0x70bb1fb41c8c42f6ddd53a708e2b82209495e455"
                            }
                        ],
                        "constructorArguments": "",
                        "name": "isValidator",
                        "returnParams": [
                            {
                                "name": "",
                                "type": "bool",
                                "value": true
                            }
                        ],
                        "signature": "isValidator(address)"
                    },
                    "errorInfo": "",
                    "fromAddress": "0x1a2a1c938ce3ec39b6d47113c7955baa9dd454f2",
                    "gasUsed": 2545,
                    "id": 10,
                    "methodDecoded": true,
                    "operation": "STATICCALL",
                    "output": "0x0000000000000000000000000000000000000000000000000000000000000001",
                    "revert": false,
                    "revertMessage": "",
                    "selector": "0xfacd743b",
                    "status": true,
                    "value": "0"
                },
                "nodeType": 0
            },
            "11": {
                "invocation": {
                    "address": "0x0000000000000000000000000000000000000001",
                    "callData": "0xc23b5a6a9534f574603f150c9301526bb74f0362e2872a3e33d6d412000000000000000000000000000000000000000000000000000000000000001c74416d92e81bd02658a7f0dca1854e84375aed09783f1fa4456b049b89379e192d4b47e6540eddf66bd6d46505b44d6e0ab4cc26608962de14e2d6f8d5a65ca0",
                    "decodedMethod": {
                        "callParams": [
                            {
                                "name": "hash",
                                "type": "bytes32",
                                "value": "0x4be98e00c23b5a6a9534f574603f150c9301526bb74f0362e2872a3e33d6d412"
                            },
                            {
                                "name": "v",
                                "type": "uint256",
                                "value": "28"
                            },
                            {
                                "name": "r",
                                "type": "bytes32",
                                "value": "0x74416d92e81bd02658a7f0dca1854e84375aed09783f1fa4456b049b89379e19"
                            },
                            {
                                "name": "s",
                                "type": "bytes32",
                                "value": "0x2d4b47e6540eddf66bd6d46505b44d6e0ab4cc26608962de14e2d6f8d5a65ca0"
                            }
                        ],
                        "constructorArguments": "",
                        "name": "ecrecover",
                        "returnParams": [
                            {
                                "name": "",
                                "type": "address",
                                "value": "0x9d5d175c7d7dfdc7038420eb2725d4601a41b751"
                            }
                        ],
                        "signature": "ecrecover(bytes32,uint256,bytes32,bytes32)"
                    },
                    "errorInfo": "",
                    "fromAddress": "0x1a2a1c938ce3ec39b6d47113c7955baa9dd454f2",
                    "gasUsed": 3000,
                    "id": 11,
                    "methodDecoded": true,
                    "operation": "STATICCALL",
                    "output": "0x0000000000000000000000009d5d175c7d7dfdc7038420eb2725d4601a41b751",
                    "revert": false,
                    "revertMessage": "",
                    "selector": "0x4be98e00",
                    "status": true,
                    "value": "0"
                },
                "nodeType": 0
            },
            "12": {
                "invocation": {
                    "address": "0x42b19dca30fd612b1757682c074497847f2b57e0",
                    "callData": "0x0000000000000000000000009d5d175c7d7dfdc7038420eb2725d4601a41b751",
                    "decodedMethod": {
                        "callParams": [
                            {
                                "name": "_addr",
                                "type": "address",
                                "value": "0x9d5d175c7d7dfdc7038420eb2725d4601a41b751"
                            }
                        ],
                        "constructorArguments": "",
                        "name": "isValidator",
                        "returnParams": [
                            {
                                "name": "",
                                "type": "bool",
                                "value": true
                            }
                        ],
                        "signature": "isValidator(address)"
                    },
                    "errorInfo": "",
                    "fromAddress": "0x1a2a1c938ce3ec39b6d47113c7955baa9dd454f2",
                    "gasUsed": 2545,
                    "id": 12,
                    "methodDecoded": true,
                    "operation": "STATICCALL",
                    "output": "0x0000000000000000000000000000000000000000000000000000000000000001",
                    "revert": false,
                    "revertMessage": "",
                    "selector": "0xfacd743b",
                    "status": true,
                    "value": "0"
                },
                "nodeType": 0
            },
            "13": {
                "invocation": {
                    "address": "0x0000000000000000000000000000000000000001",
                    "callData": "0xc23b5a6a9534f574603f150c9301526bb74f0362e2872a3e33d6d412000000000000000000000000000000000000000000000000000000000000001c0169fcdda513f0906b5de8438594809c55300db92867d73879a78099b856ba8359f57aa7c8fbdaf94784bc3e172673f0106b5faf9c6698cca9788a198f59d057",
                    "decodedMethod": {
                        "callParams": [
                            {
                                "name": "hash",
                                "type": "bytes32",
                                "value": "0x4be98e00c23b5a6a9534f574603f150c9301526bb74f0362e2872a3e33d6d412"
                            },
                            {
                                "name": "v",
                                "type": "uint256",
                                "value": "28"
                            },
                            {
                                "name": "r",
                                "type": "bytes32",
                                "value": "0x0169fcdda513f0906b5de8438594809c55300db92867d73879a78099b856ba83"
                            },
                            {
                                "name": "s",
                                "type": "bytes32",
                                "value": "0x59f57aa7c8fbdaf94784bc3e172673f0106b5faf9c6698cca9788a198f59d057"
                            }
                        ],
                        "constructorArguments": "",
                        "name": "ecrecover",
                        "returnParams": [
                            {
                                "name": "",
                                "type": "address",
                                "value": "0xee11d2016e9f2fae606b2f12986811f4abbe6215"
                            }
                        ],
                        "signature": "ecrecover(bytes32,uint256,bytes32,bytes32)"
                    },
                    "errorInfo": "",
                    "fromAddress": "0x1a2a1c938ce3ec39b6d47113c7955baa9dd454f2",
                    "gasUsed": 3000,
                    "id": 13,
                    "methodDecoded": true,
                    "operation": "STATICCALL",
                    "output": "0x000000000000000000000000ee11d2016e9f2fae606b2f12986811f4abbe6215",
                    "revert": false,
                    "revertMessage": "",
                    "selector": "0x4be98e00",
                    "status": true,
                    "value": "0"
                },
                "nodeType": 0
            },
            "14": {
                "invocation": {
                    "address": "0x42b19dca30fd612b1757682c074497847f2b57e0",
                    "callData": "0x000000000000000000000000ee11d2016e9f2fae606b2f12986811f4abbe6215",
                    "decodedMethod": {
                        "callParams": [
                            {
                                "name": "_addr",
                                "type": "address",
                                "value": "0xee11d2016e9f2fae606b2f12986811f4abbe6215"
                            }
                        ],
                        "constructorArguments": "",
                        "name": "isValidator",
                        "returnParams": [
                            {
                                "name": "",
                                "type": "bool",
                                "value": true
                            }
                        ],
                        "signature": "isValidator(address)"
                    },
                    "errorInfo": "",
                    "fromAddress": "0x1a2a1c938ce3ec39b6d47113c7955baa9dd454f2",
                    "gasUsed": 2545,
                    "id": 14,
                    "methodDecoded": true,
                    "operation": "STATICCALL",
                    "output": "0x0000000000000000000000000000000000000000000000000000000000000001",
                    "revert": false,
                    "revertMessage": "",
                    "selector": "0xfacd743b",
                    "status": true,
                    "value": "0"
                },
                "nodeType": 0
            },
            "15": {
                "invocation": {
                    "address": "0x0000000000000000000000000000000000000001",
                    "callData": "0xc23b5a6a9534f574603f150c9301526bb74f0362e2872a3e33d6d412000000000000000000000000000000000000000000000000000000000000001c561a8af16d8d5c9b1ab40fdab63a04044943eba2580048b6bb5172c6ae13a7955dac825fe4ec5734ecb1f1d3e4b15459f8cddc88472c63d0da0b56edf2e80ada",
                    "decodedMethod": {
                        "callParams": [
                            {
                                "name": "hash",
                                "type": "bytes32",
                                "value": "0x4be98e00c23b5a6a9534f574603f150c9301526bb74f0362e2872a3e33d6d412"
                            },
                            {
                                "name": "v",
                                "type": "uint256",
                                "value": "28"
                            },
                            {
                                "name": "r",
                                "type": "bytes32",
                                "value": "0x561a8af16d8d5c9b1ab40fdab63a04044943eba2580048b6bb5172c6ae13a795"
                            },
                            {
                                "name": "s",
                                "type": "bytes32",
                                "value": "0x5dac825fe4ec5734ecb1f1d3e4b15459f8cddc88472c63d0da0b56edf2e80ada"
                            }
                        ],
                        "constructorArguments": "",
                        "name": "ecrecover",
                        "returnParams": [
                            {
                                "name": "",
                                "type": "address",
                                "value": "0xf224beff587362a88d859e899d0d80c080e1e812"
                            }
                        ],
                        "signature": "ecrecover(bytes32,uint256,bytes32,bytes32)"
                    },
                    "errorInfo": "",
                    "fromAddress": "0x1a2a1c938ce3ec39b6d47113c7955baa9dd454f2",
                    "gasUsed": 3000,
                    "id": 15,
                    "methodDecoded": true,
                    "operation": "STATICCALL",
                    "output": "0x000000000000000000000000f224beff587362a88d859e899d0d80c080e1e812",
                    "revert": false,
                    "revertMessage": "",
                    "selector": "0x4be98e00",
                    "status": true,
                    "value": "0"
                },
                "nodeType": 0
            },
            "16": {
                "invocation": {
                    "address": "0x42b19dca30fd612b1757682c074497847f2b57e0",
                    "callData": "0x000000000000000000000000f224beff587362a88d859e899d0d80c080e1e812",
                    "decodedMethod": {
                        "callParams": [
                            {
                                "name": "_addr",
                                "type": "address",
                                "value": "0xf224beff587362a88d859e899d0d80c080e1e812"
                            }
                        ],
                        "constructorArguments": "",
                        "name": "isValidator",
                        "returnParams": [
                            {
                                "name": "",
                                "type": "bool",
                                "value": true
                            }
                        ],
                        "signature": "isValidator(address)"
                    },
                    "errorInfo": "",
                    "fromAddress": "0x1a2a1c938ce3ec39b6d47113c7955baa9dd454f2",
                    "gasUsed": 2545,
                    "id": 16,
                    "methodDecoded": true,
                    "operation": "STATICCALL",
                    "output": "0x0000000000000000000000000000000000000000000000000000000000000001",
                    "revert": false,
                    "revertMessage": "",
                    "selector": "0xfacd743b",
                    "status": true,
                    "value": "0"
                },
                "nodeType": 0
            },
            "17": {
                "invocation": {
                    "address": "0x42b19dca30fd612b1757682c074497847f2b57e0",
                    "callData": "0x0000000000000000000000000000000000000000000000000000000000000006",
                    "decodedMethod": {
                        "callParams": [
                            {
                                "name": "_voteCount",
                                "type": "uint256",
                                "value": "6"
                            }
                        ],
                        "constructorArguments": "",
                        "name": "checkThreshold",
                        "returnParams": [
                            {
                                "name": "",
                                "type": "bool",
                                "value": true
                            }
                        ],
                        "signature": "checkThreshold(uint256)"
                    },
                    "errorInfo": "",
                    "fromAddress": "0x1a2a1c938ce3ec39b6d47113c7955baa9dd454f2",
                    "gasUsed": 6872,
                    "id": 17,
                    "methodDecoded": true,
                    "operation": "STATICCALL",
                    "output": "0x0000000000000000000000000000000000000000000000000000000000000001",
                    "revert": false,
                    "revertMessage": "",
                    "selector": "0xdafae408",
                    "status": true,
                    "value": "0"
                },
                "nodeType": 0
            },
            "18": {
                "invocation": {
                    "address": "0x33e71e649abdc09f650ad44139674828a2075ad2",
                    "callData": "0x",
                    "decodedMethod": {
                        "callParams": [],
                        "constructorArguments": "",
                        "name": "WETH_TOKEN",
                        "returnParams": [
                            {
                                "name": "",
                                "type": "string",
                                "value": "WETH_TOKEN"
                            }
                        ],
                        "signature": "WETH_TOKEN()"
                    },
                    "errorInfo": "",
                    "fromAddress": "0x1a2a1c938ce3ec39b6d47113c7955baa9dd454f2",
                    "gasUsed": 668,
                    "id": 18,
                    "methodDecoded": true,
                    "operation": "STATICCALL",
                    "output": "0x0000000000000000000000000000000000000000000000000000000000000020000000000000000000000000000000000000000000000000000000000000000a574554485f544f4b454e00000000000000000000000000000000000000000000",
                    "revert": false,
                    "revertMessage": "",
                    "selector": "0x37d277d4",
                    "status": true,
                    "value": "0"
                },
                "nodeType": 0
            },
            "19": {
                "invocation": {
                    "address": "0x33e71e649abdc09f650ad44139674828a2075ad2",
                    "callData": "0x0000000000000000000000000000000000000000000000000000000000000020000000000000000000000000000000000000000000000000000000000000000a574554485f544f4b454e00000000000000000000000000000000000000000000",
                    "decodedMethod": {
                        "callParams": [
                            {
                                "name": "_name",
                                "type": "string",
                                "value": "WETH_TOKEN"
                            }
                        ],
                        "constructorArguments": "",
                        "name": "getContract",
                        "returnParams": [
                            {
                                "name": "_address",
                                "type": "address",
                                "value": "0xc02aaa39b223fe8d0a0e5c4f27ead9083c756cc2"
                            }
                        ],
                        "signature": "getContract(string)"
                    },
                    "errorInfo": "",
                    "fromAddress": "0x1a2a1c938ce3ec39b6d47113c7955baa9dd454f2",
                    "gasUsed": 3205,
                    "id": 19,
                    "methodDecoded": true,
                    "operation": "STATICCALL",
                    "output": "0x000000000000000000000000c02aaa39b223fe8d0a0e5c4f27ead9083c756cc2",
                    "revert": false,
                    "revertMessage": "",
                    "selector": "0x35817773",
                    "status": true,
                    "value": "0"
                },
                "nodeType": 0
            },
            "2": {
                "invocation": {
                    "address": "0x33e71e649abdc09f650ad44139674828a2075ad2",
                    "callData": "0x000000000000000000000000cc8fa225d80b9c7d42f96e9570156c65d6caaa2500000000000000000000000000000000000000000000000000000000000000140000000000000000000000000000000000000000000000000000000000000001",
                    "decodedMethod": {
                        "callParams": [
                            {
                                "name": "_token",
                                "type": "address",
                                "value": "0xcc8fa225d80b9c7d42f96e9570156c65d6caaa25"
                            },
                            {
                                "name": "_standard",
                                "type": "uint32",
                                "value": "20"
                            },
                            {
                                "name": "_isMainchain",
                                "type": "bool",
                                "value": true
                            }
                        ],
                        "constructorArguments": "",
                        "name": "isTokenMapped",
                        "returnParams": [
                            {
                                "name": "",
                                "type": "bool",
                                "value": true
                            }
                        ],
                        "signature": "isTokenMapped(address,uint32,bool)"
                    },
                    "errorInfo": "",
                    "fromAddress": "0x1a2a1c938ce3ec39b6d47113c7955baa9dd454f2",
                    "gasUsed": 5215,
                    "id": 2,
                    "methodDecoded": true,
                    "operation": "STATICCALL",
                    "output": "0x0000000000000000000000000000000000000000000000000000000000000001",
                    "revert": false,
                    "revertMessage": "",
                    "selector": "0x3579e67a",
                    "status": true,
                    "value": "0"
                },
                "nodeType": 0
            },
            "20": {
                "invocation": {
                    "address": "0xcc8fa225d80b9c7d42f96e9570156c65d6caaa25",
                    "callData": "0x0000000000000000000000001a2a1c938ce3ec39b6d47113c7955baa9dd454f2",
                    "decodedMethod": {
                        "callParams": [
                            {
                                "name": "",
                                "type": "address",
                                "value": "0x1a2a1c938ce3ec39b6d47113c7955baa9dd454f2"
                            }
                        ],
                        "constructorArguments": "",
                        "name": "balanceOf",
                        "returnParams": [
                            {
                                "decimalAvailable": true,
                                "name": "",
                                "type": "uint256",
                                "value": "2,077"
                            }
                        ],
                        "signature": "balanceOf(address)"
                    },
                    "errorInfo": "",
                    "fromAddress": "0x1a2a1c938ce3ec39b6d47113c7955baa9dd454f2",
                    "gasUsed": 2447,
                    "id": 20,
                    "methodDecoded": true,
                    "operation": "STATICCALL",
                    "output": "0x000000000000000000000000000000000000000000000000000000000000081d",
                    "revert": false,
                    "revertMessage": "",
                    "selector": "0x70a08231",
                    "status": true,
                    "value": "0"
                },
                "nodeType": 0
            },
            "21": {
                "invocation": {
                    "address": "0xcc8fa225d80b9c7d42f96e9570156c65d6caaa25",
                    "callData": "0x0000000000000000000000001a2a1c938ce3ec39b6d47113c7955baa9dd454f20000000000000000000000000000000000000000000000000000000000000e17",
                    "decodedMethod": {
                        "callParams": [
                            {
                                "name": "_to",
                                "type": "address",
                                "value": "0x1a2a1c938ce3ec39b6d47113c7955baa9dd454f2"
                            },
                            {
                                "name": "_value",
                                "type": "uint256",
                                "value": "3,607"
                            }
                        ],
                        "constructorArguments": "",
                        "name": "mint",
                        "returnParams": [
                            {
                                "name": "_success",
                                "type": "bool",
                                "value": true
                            }
                        ],
                        "signature": "mint(address,uint256)"
                    },
                    "errorInfo": "",
                    "fromAddress": "0x1a2a1c938ce3ec39b6d47113c7955baa9dd454f2",
                    "gasUsed": 12776,
                    "id": 21,
                    "methodDecoded": true,
                    "operation": "CALL",
                    "output": "0x0000000000000000000000000000000000000000000000000000000000000001",
                    "revert": false,
                    "revertMessage": "",
                    "selector": "0x40c10f19",
                    "status": true,
                    "value": "0"
                },
                "nodeType": 0
            },
            "22": {
                "event": {
                    "contract": "0xcc8fa225d80b9c7d42f96e9570156c65d6caaa25",
                    "decodedLog": {
                        "name": "Transfer",
                        "params": [
                            {
                                "name": "_from",
                                "type": "address",
                                "value": "0x0000000000000000000000000000000000000000"
                            },
                            {
                                "name": "_to",
                                "type": "address",
                                "value": "0x1a2a1c938ce3ec39b6d47113c7955baa9dd454f2"
                            },
                            {
                                "decimalAvailable": true,
                                "name": "_value",
                                "type": "uint256",
                                "value": "3,607"
                            }
                        ],
                        "signature": "Transfer(address,address,uint256)"
                    },
                    "id": 22,
                    "logData": "0x0000000000000000000000000000000000000000000000000000000000000e17",
                    "logDecoded": true,
                    "operation": "EVENT",
                    "revert": false,
                    "status": true,
                    "topics": [
                        "0xddf252ad1be2c89b69c2b068fc378daa952ba7f163c4a11628f55a4df523b3ef",
                        "0x0000000000000000000000000000000000000000000000000000000000000000",
                        "0x0000000000000000000000001a2a1c938ce3ec39b6d47113c7955baa9dd454f2"
                    ]
                },
                "nodeType": 1
            },
            "23": {
                "invocation": {
                    "address": "0xcc8fa225d80b9c7d42f96e9570156c65d6caaa25",
                    "callData": "0x0000000000000000000000002ed076d1628376532b6a2fea1e9302294d1c87290000000000000000000000000000000000000000000000000000000000001634",
                    "decodedMethod": {
                        "callParams": [
                            {
                                "name": "_to",
                                "type": "address",
                                "value": "0x2ed076d1628376532b6a2fea1e9302294d1c8729"
                            },
                            {
                                "decimalAvailable": true,
                                "name": "_value",
                                "type": "uint256",
                                "value": "5,684"
                            }
                        ],
                        "constructorArguments": "",
                        "name": "transfer",
                        "returnParams": [
                            {
                                "name": "_success",
                                "type": "bool",
                                "value": true
                            }
                        ],
                        "signature": "transfer(address,uint256)"
                    },
                    "errorInfo": "",
                    "fromAddress": "0x1a2a1c938ce3ec39b6d47113c7955baa9dd454f2",
                    "gasUsed": 25151,
                    "id": 23,
                    "methodDecoded": true,
                    "operation": "CALL",
                    "output": "0x0000000000000000000000000000000000000000000000000000000000000001",
                    "revert": false,
                    "revertMessage": "",
                    "selector": "0xa9059cbb",
                    "status": true,
                    "value": "0"
                },
                "nodeType": 0
            },
            "24": {
                "event": {
                    "contract": "0xcc8fa225d80b9c7d42f96e9570156c65d6caaa25",
                    "decodedLog": {
                        "name": "Transfer",
                        "params": [
                            {
                                "name": "_from",
                                "type": "address",
                                "value": "0x1a2a1c938ce3ec39b6d47113c7955baa9dd454f2"
                            },
                            {
                                "name": "_to",
                                "type": "address",
                                "value": "0x2ed076d1628376532b6a2fea1e9302294d1c8729"
                            },
                            {
                                "decimalAvailable": true,
                                "name": "_value",
                                "type": "uint256",
                                "value": "5,684"
                            }
                        ],
                        "signature": "Transfer(address,address,uint256)"
                    },
                    "id": 24,
                    "logData": "0x0000000000000000000000000000000000000000000000000000000000001634",
                    "logDecoded": true,
                    "operation": "EVENT",
                    "revert": false,
                    "status": true,
                    "topics": [
                        "0xddf252ad1be2c89b69c2b068fc378daa952ba7f163c4a11628f55a4df523b3ef",
                        "0x0000000000000000000000001a2a1c938ce3ec39b6d47113c7955baa9dd454f2",
                        "0x0000000000000000000000002ed076d1628376532b6a2fea1e9302294d1c8729"
                    ]
                },
                "nodeType": 1
            },
            "25": {
                "event": {
                    "contract": "0x1a2a1c938ce3ec39b6d47113c7955baa9dd454f2",
                    "decodedLog": {
                        "name": "TokenWithdrew",
                        "params": [
                            {
                                "name": "_withdrawId",
                                "type": "uint256",
                                "value": "612,633"
                            },
                            {
                                "name": "_owner",
                                "type": "address",
                                "value": "0x2ed076d1628376532b6a2fea1e9302294d1c8729"
                            },
                            {
                                "name": "_tokenAddress",
                                "type": "address",
                                "value": "0xcc8fa225d80b9c7d42f96e9570156c65d6caaa25"
                            },
                            {
                                "name": "_tokenNumber",
                                "type": "uint256",
                                "value": "5,684"
                            }
                        ],
                        "signature": "TokenWithdrew(uint256,address,address,uint256)"
                    },
                    "id": 25,
                    "logData": "0x0000000000000000000000000000000000000000000000000000000000001634",
                    "logDecoded": true,
                    "operation": "EVENT",
                    "revert": false,
                    "status": true,
                    "topics": [
                        "0x86174ea401f083b9bb1bdebca3068f27fb023c7091365ed2a8a02b8d75cf0e52",
                        "0x0000000000000000000000000000000000000000000000000000000000095919",
                        "0x0000000000000000000000002ed076d1628376532b6a2fea1e9302294d1c8729",
                        "0x000000000000000000000000cc8fa225d80b9c7d42f96e9570156c65d6caaa25"
                    ]
                },
                "nodeType": 1
            },
            "3": {
                "invocation": {
                    "address": "0x33e71e649abdc09f650ad44139674828a2075ad2",
                    "callData": "0x",
                    "decodedMethod": {
                        "callParams": [],
                        "constructorArguments": "",
                        "name": "VALIDATOR",
                        "returnParams": [
                            {
                                "name": "",
                                "type": "string",
                                "value": "VALIDATOR"
                            }
                        ],
                        "signature": "VALIDATOR()"
                    },
                    "errorInfo": "",
                    "fromAddress": "0x1a2a1c938ce3ec39b6d47113c7955baa9dd454f2",
                    "gasUsed": 690,
                    "id": 3,
                    "methodDecoded": true,
                    "operation": "STATICCALL",
                    "output": "0x0000000000000000000000000000000000000000000000000000000000000020000000000000000000000000000000000000000000000000000000000000000956414c494441544f520000000000000000000000000000000000000000000000",
                    "revert": false,
                    "revertMessage": "",
                    "selector": "0x393df8cb",
                    "status": true,
                    "value": "0"
                },
                "nodeType": 0
            },
            "4": {
                "invocation": {
                    "address": "0x33e71e649abdc09f650ad44139674828a2075ad2",
                    "callData": "0x0000000000000000000000000000000000000000000000000000000000000020000000000000000000000000000000000000000000000000000000000000000956414c494441544f520000000000000000000000000000000000000000000000",
                    "decodedMethod": {
                        "callParams": [
                            {
                                "name": "_name",
                                "type": "string",
                                "value": "VALIDATOR"
                            }
                        ],
                        "constructorArguments": "",
                        "name": "getContract",
                        "returnParams": [
                            {
                                "name": "_address",
                                "type": "address",
                                "value": "0x42b19dca30fd612b1757682c074497847f2b57e0"
                            }
                        ],
                        "signature": "getContract(string)"
                    },
                    "errorInfo": "",
                    "fromAddress": "0x1a2a1c938ce3ec39b6d47113c7955baa9dd454f2",
                    "gasUsed": 3205,
                    "id": 4,
                    "methodDecoded": true,
                    "operation": "STATICCALL",
                    "output": "0x00000000000000000000000042b19dca30fd612b1757682c074497847f2b57e0",
                    "revert": false,
                    "revertMessage": "",
                    "selector": "0x35817773",
                    "status": true,
                    "value": "0"
                },
                "nodeType": 0
            },
            "5": {
                "invocation": {
                    "address": "0x0000000000000000000000000000000000000001",
                    "callData": "0xc23b5a6a9534f574603f150c9301526bb74f0362e2872a3e33d6d412000000000000000000000000000000000000000000000000000000000000001ca37c34895a9e44386844c50ab89de09303136586a292fa73e85dced829c4d70f5aff158db64b51304a8b028198720f97f2a2c42b9d43ec678c2565e98abb6eb5",
                    "decodedMethod": {
                        "callParams": [
                            {
                                "name": "hash",
                                "type": "bytes32",
                                "value": "0x4be98e00c23b5a6a9534f574603f150c9301526bb74f0362e2872a3e33d6d412"
                            },
                            {
                                "name": "v",
                                "type": "uint256",
                                "value": "28"
                            },
                            {
                                "name": "r",
                                "type": "bytes32",
                                "value": "0xa37c34895a9e44386844c50ab89de09303136586a292fa73e85dced829c4d70f"
                            },
                            {
                                "name": "s",
                                "type": "bytes32",
                                "value": "0x5aff158db64b51304a8b028198720f97f2a2c42b9d43ec678c2565e98abb6eb5"
                            }
                        ],
                        "constructorArguments": "",
                        "name": "ecrecover",
                        "returnParams": [
                            {
                                "name": "",
                                "type": "address",
                                "value": "0x11360eacdedd59bc433afad4fc8f0417d1fbebab"
                            }
                        ],
                        "signature": "ecrecover(bytes32,uint256,bytes32,bytes32)"
                    },
                    "errorInfo": "",
                    "fromAddress": "0x1a2a1c938ce3ec39b6d47113c7955baa9dd454f2",
                    "gasUsed": 3000,
                    "id": 5,
                    "methodDecoded": true,
                    "operation": "STATICCALL",
                    "output": "0x00000000000000000000000011360eacdedd59bc433afad4fc8f0417d1fbebab",
                    "revert": false,
                    "revertMessage": "",
                    "selector": "0x4be98e00",
                    "status": true,
                    "value": "0"
                },
                "nodeType": 0
            },
            "6": {
                "invocation": {
                    "address": "0x42b19dca30fd612b1757682c074497847f2b57e0",
                    "callData": "0x00000000000000000000000011360eacdedd59bc433afad4fc8f0417d1fbebab",
                    "decodedMethod": {
                        "callParams": [
                            {
                                "name": "_addr",
                                "type": "address",
                                "value": "0x11360eacdedd59bc433afad4fc8f0417d1fbebab"
                            }
                        ],
                        "constructorArguments": "",
                        "name": "isValidator",
                        "returnParams": [
                            {
                                "name": "",
                                "type": "bool",
                                "value": true
                            }
                        ],
                        "signature": "isValidator(address)"
                    },
                    "errorInfo": "",
                    "fromAddress": "0x1a2a1c938ce3ec39b6d47113c7955baa9dd454f2",
                    "gasUsed": 2545,
                    "id": 6,
                    "methodDecoded": true,
                    "operation": "STATICCALL",
                    "output": "0x0000000000000000000000000000000000000000000000000000000000000001",
                    "revert": false,
                    "revertMessage": "",
                    "selector": "0xfacd743b",
                    "status": true,
                    "value": "0"
                },
                "nodeType": 0
            },
            "7": {
                "invocation": {
                    "address": "0x0000000000000000000000000000000000000001",
                    "callData": "0xc23b5a6a9534f574603f150c9301526bb74f0362e2872a3e33d6d412000000000000000000000000000000000000000000000000000000000000001c46cfdfe3a4a2282134eebe356ce57fdc2073208acd6a4f58c44d8ef4792fe9e7086fa0a9619aac29450144928093489f696d5ec7fcfdf0206a659fa750627397",
                    "decodedMethod": {
                        "callParams": [
                            {
                                "name": "hash",
                                "type": "bytes32",
                                "value": "0x4be98e00c23b5a6a9534f574603f150c9301526bb74f0362e2872a3e33d6d412"
                            },
                            {
                                "name": "v",
                                "type": "uint256",
                                "value": "28"
                            },
                            {
                                "name": "r",
                                "type": "bytes32",
                                "value": "0x46cfdfe3a4a2282134eebe356ce57fdc2073208acd6a4f58c44d8ef4792fe9e7"
                            },
                            {
                                "name": "s",
                                "type": "bytes32",
                                "value": "0x086fa0a9619aac29450144928093489f696d5ec7fcfdf0206a659fa750627397"
                            }
                        ],
                        "constructorArguments": "",
                        "name": "ecrecover",
                        "returnParams": [
                            {
                                "name": "",
                                "type": "address",
                                "value": "0x1a15a5e25811fe1349d636a5053a0e59d53961c9"
                            }
                        ],
                        "signature": "ecrecover(bytes32,uint256,bytes32,bytes32)"
                    },
                    "errorInfo": "",
                    "fromAddress": "0x1a2a1c938ce3ec39b6d47113c7955baa9dd454f2",
                    "gasUsed": 3000,
                    "id": 7,
                    "methodDecoded": true,
                    "operation": "STATICCALL",
                    "output": "0x0000000000000000000000001a15a5e25811fe1349d636a5053a0e59d53961c9",
                    "revert": false,
                    "revertMessage": "",
                    "selector": "0x4be98e00",
                    "status": true,
                    "value": "0"
                },
                "nodeType": 0
            },
            "8": {
                "invocation": {
                    "address": "0x42b19dca30fd612b1757682c074497847f2b57e0",
                    "callData": "0x0000000000000000000000001a15a5e25811fe1349d636a5053a0e59d53961c9",
                    "decodedMethod": {
                        "callParams": [
                            {
                                "name": "_addr",
                                "type": "address",
                                "value": "0x1a15a5e25811fe1349d636a5053a0e59d53961c9"
                            }
                        ],
                        "constructorArguments": "",
                        "name": "isValidator",
                        "returnParams": [
                            {
                                "name": "",
                                "type": "bool",
                                "value": true
                            }
                        ],
                        "signature": "isValidator(address)"
                    },
                    "errorInfo": "",
                    "fromAddress": "0x1a2a1c938ce3ec39b6d47113c7955baa9dd454f2",
                    "gasUsed": 2545,
                    "id": 8,
                    "methodDecoded": true,
                    "operation": "STATICCALL",
                    "output": "0x0000000000000000000000000000000000000000000000000000000000000001",
                    "revert": false,
                    "revertMessage": "",
                    "selector": "0xfacd743b",
                    "status": true,
                    "value": "0"
                },
                "nodeType": 0
            },
            "9": {
                "invocation": {
                    "address": "0x0000000000000000000000000000000000000001",
                    "callData": "0xc23b5a6a9534f574603f150c9301526bb74f0362e2872a3e33d6d412000000000000000000000000000000000000000000000000000000000000001bdb4542c9c35a46932bda8529fa971c590bc98abd6a1254e035fe8a8ba62a7d1b482897f0b2de6ba6252e0572bdcd8f7d80368944b4b8982c39e02fbbf17be5c9",
                    "decodedMethod": {
                        "callParams": [
                            {
                                "name": "hash",
                                "type": "bytes32",
                                "value": "0x4be98e00c23b5a6a9534f574603f150c9301526bb74f0362e2872a3e33d6d412"
                            },
                            {
                                "name": "v",
                                "type": "uint256",
                                "value": "27"
                            },
                            {
                                "name": "r",
                                "type": "bytes32",
                                "value": "0xdb4542c9c35a46932bda8529fa971c590bc98abd6a1254e035fe8a8ba62a7d1b"
                            },
                            {
                                "name": "s",
                                "type": "bytes32",
                                "value": "0x482897f0b2de6ba6252e0572bdcd8f7d80368944b4b8982c39e02fbbf17be5c9"
                            }
                        ],
                        "constructorArguments": "",
                        "name": "ecrecover",
                        "returnParams": [
                            {
                                "name": "",
                                "type": "address",
                                "value": "0x70bb1fb41c8c42f6ddd53a708e2b82209495e455"
                            }
                        ],
                        "signature": "ecrecover(bytes32,uint256,bytes32,bytes32)"
                    },
                    "errorInfo": "",
                    "fromAddress": "0x1a2a1c938ce3ec39b6d47113c7955baa9dd454f2",
                    "gasUsed": 3000,
                    "id": 9,
                    "methodDecoded": true,
                    "operation": "STATICCALL",
                    "output": "0x00000000000000000000000070bb1fb41c8c42f6ddd53a708e2b82209495e455",
                    "revert": false,
                    "revertMessage": "",
                    "selector": "0x4be98e00",
                    "status": true,
                    "value": "0"
                },
                "nodeType": 0
            }
        },
        "gasFlame": [
            {
                "children": [
                    {
                        "children": [
                            {
                                "children": [],
                                "depth": 0,
                                "name": "Initial Gas",
                                "value": 28812
                            },
                            {
                                "children": [
                                    {
                                        "children": [
                                            {
                                                "children": [],
                                                "depth": 2,
                                                "name": "isTokenMapped",
                                                "value": 5215
                                            },
                                            {
                                                "children": [],
                                                "depth": 2,
                                                "name": "VALIDATOR",
                                                "value": 690
                                            },
                                            {
                                                "children": [],
                                                "depth": 2,
                                                "name": "getContract",
                                                "value": 3205
                                            },
                                            {
                                                "children": [],
                                                "depth": 2,
                                                "name": "ecrecover",
                                                "value": 3000
                                            },
                                            {
                                                "children": [],
                                                "depth": 2,
                                                "name": "isValidator",
                                                "value": 2545
                                            },
                                            {
                                                "children": [],
                                                "depth": 2,
                                                "name": "ecrecover",
                                                "value": 3000
                                            },
                                            {
                                                "children": [],
                                                "depth": 2,
                                                "name": "isValidator",
                                                "value": 2545
                                            },
                                            {
                                                "children": [],
                                                "depth": 2,
                                                "name": "ecrecover",
                                                "value": 3000
                                            },
                                            {
                                                "children": [],
                                                "depth": 2,
                                                "name": "isValidator",
                                                "value": 2545
                                            },
                                            {
                                                "children": [],
                                                "depth": 2,
                                                "name": "ecrecover",
                                                "value": 3000
                                            },
                                            {
                                                "children": [],
                                                "depth": 2,
                                                "name": "isValidator",
                                                "value": 2545
                                            },
                                            {
                                                "children": [],
                                                "depth": 2,
                                                "name": "ecrecover",
                                                "value": 3000
                                            },
                                            {
                                                "children": [],
                                                "depth": 2,
                                                "name": "isValidator",
                                                "value": 2545
                                            },
                                            {
                                                "children": [],
                                                "depth": 2,
                                                "name": "ecrecover",
                                                "value": 3000
                                            },
                                            {
                                                "children": [],
                                                "depth": 2,
                                                "name": "isValidator",
                                                "value": 2545
                                            },
                                            {
                                                "children": [],
                                                "depth": 2,
                                                "name": "checkThreshold",
                                                "value": 6872
                                            },
                                            {
                                                "children": [],
                                                "depth": 2,
                                                "name": "WETH_TOKEN",
                                                "value": 668
                                            },
                                            {
                                                "children": [],
                                                "depth": 2,
                                                "name": "getContract",
                                                "value": 3205
                                            },
                                            {
                                                "children": [],
                                                "depth": 2,
                                                "name": "balanceOf",
                                                "value": 2447
                                            },
                                            {
                                                "children": [],
                                                "depth": 2,
                                                "name": "mint",
                                                "value": 12776
                                            },
                                            {
                                                "children": [],
                                                "depth": 2,
                                                "name": "transfer",
                                                "value": 25151
                                            }
                                        ],
                                        "depth": 1,
                                        "name": "withdrawERC20For",
                                        "value": 189594
                                    }
                                ],
                                "depth": 0,
                                "name": "Executed Gas",
                                "value": 194758
                            }
                        ],
                        "depth": -1,
                        "name": "Actual Gas Used",
                        "value": 218770
                    },
                    {
                        "children": [],
                        "depth": -1,
                        "name": "Refunded Gas",
                        "value": 4800
                    }
                ],
                "depth": -2,
                "name": "Total Gas",
                "value": 223570
            }
        ],
        "isConfirmed": true,
        "mainTrace": [
            {
                "children": [
                    {
                        "children": [
                            {
                                "children": [
                                    {
                                        "children": [],
                                        "depth": 2,
                                        "id": 2,
                                        "order": 2
                                    },
                                    {
                                        "children": [],
                                        "depth": 2,
                                        "id": 3,
                                        "order": 3
                                    },
                                    {
                                        "children": [],
                                        "depth": 2,
                                        "id": 4,
                                        "order": 4
                                    },
                                    {
                                        "children": [],
                                        "depth": 2,
                                        "id": 5,
                                        "order": 5
                                    },
                                    {
                                        "children": [],
                                        "depth": 2,
                                        "id": 6,
                                        "order": 6
                                    },
                                    {
                                        "children": [],
                                        "depth": 2,
                                        "id": 7,
                                        "order": 7
                                    },
                                    {
                                        "children": [],
                                        "depth": 2,
                                        "id": 8,
                                        "order": 8
                                    },
                                    {
                                        "children": [],
                                        "depth": 2,
                                        "id": 9,
                                        "order": 9
                                    },
                                    {
                                        "children": [],
                                        "depth": 2,
                                        "id": 10,
                                        "order": 10
                                    },
                                    {
                                        "children": [],
                                        "depth": 2,
                                        "id": 11,
                                        "order": 11
                                    },
                                    {
                                        "children": [],
                                        "depth": 2,
                                        "id": 12,
                                        "order": 12
                                    },
                                    {
                                        "children": [],
                                        "depth": 2,
                                        "id": 13,
                                        "order": 13
                                    },
                                    {
                                        "children": [],
                                        "depth": 2,
                                        "id": 14,
                                        "order": 14
                                    },
                                    {
                                        "children": [],
                                        "depth": 2,
                                        "id": 15,
                                        "order": 15
                                    },
                                    {
                                        "children": [],
                                        "depth": 2,
                                        "id": 16,
                                        "order": 16
                                    },
                                    {
                                        "children": [],
                                        "depth": 2,
                                        "id": 17,
                                        "order": 17
                                    },
                                    {
                                        "children": [],
                                        "depth": 2,
                                        "id": 18,
                                        "order": 18
                                    },
                                    {
                                        "children": [],
                                        "depth": 2,
                                        "id": 19,
                                        "order": 19
                                    },
                                    {
                                        "children": [],
                                        "depth": 2,
                                        "id": 20,
                                        "order": 20
                                    },
                                    {
                                        "children": [
                                            {
                                                "children": [],
                                                "depth": 3,
                                                "id": 22,
                                                "order": 22
                                            }
                                        ],
                                        "depth": 2,
                                        "id": 21,
                                        "order": 21
                                    },
                                    {
                                        "children": [
                                            {
                                                "children": [],
                                                "depth": 3,
                                                "id": 24,
                                                "order": 24
                                            }
                                        ],
                                        "depth": 2,
                                        "id": 23,
                                        "order": 23
                                    },
                                    {
                                        "children": [],
                                        "depth": 2,
                                        "id": 25,
                                        "order": 25
                                    }
                                ],
                                "depth": 1,
                                "id": 1,
                                "order": 1
                            }
                        ],
                        "depth": 0,
                        "id": 0,
                        "order": 0
                    }
                ],
                "depth": -1,
                "id": -1,
                "order": -1
            }
        ],
        "mainTraceNodeCount": 26,
        "parentIdMap": {
            "0": -1,
            "1": 0,
            "10": 1,
            "11": 1,
            "12": 1,
            "13": 1,
            "14": 1,
            "15": 1,
            "16": 1,
            "17": 1,
            "18": 1,
            "19": 1,
            "2": 1,
            "20": 1,
            "21": 1,
            "22": 21,
            "23": 1,
            "24": 23,
            "25": 1,
            "3": 1,
            "4": 1,
            "5": 1,
            "6": 1,
            "7": 1,
            "8": 1,
            "9": 1
        },
        "tidyTrace": [
            {
                "children": [
                    {
                        "children": [
                            {
                                "children": [
                                    {
                                        "children": [
                                            {
                                                "children": [],
                                                "depth": 3,
                                                "id": 22,
                                                "order": 22
                                            }
                                        ],
                                        "depth": 2,
                                        "id": 21,
                                        "order": 21
                                    },
                                    {
                                        "children": [
                                            {
                                                "children": [],
                                                "depth": 3,
                                                "id": 24,
                                                "order": 24
                                            }
                                        ],
                                        "depth": 2,
                                        "id": 23,
                                        "order": 23
                                    },
                                    {
                                        "children": [],
                                        "depth": 2,
                                        "id": 25,
                                        "order": 25
                                    }
                                ],
                                "depth": 1,
                                "id": 1,
                                "order": 1
                            }
                        ],
                        "depth": 0,
                        "id": 0,
                        "order": 0
                    }
                ],
                "depth": -1,
                "id": -1,
                "order": -1
            }
        ],
        "tidyTraceNodeCount": 7
    },
    "state_change": {
        "stateChanges": [
            {
                "address": "0x1a2a1c938ce3ec39b6d47113c7955baa9dd454f2",
                "erc": "",
                "slots": [
                    {
                        "current": "0x0000000000000000000000002ed076d1628376532b6a2fea1e9302294d1c8729",
                        "key": "0x19e34b823e4694a8a3f7d32e44eb178228d70f19ed519cb4510044ecfd01b6f2",
                        "prev": "0x0000000000000000000000000000000000000000000000000000000000000000"
                    },
                    {
                        "current": "0x000000000000000000000000cc8fa225d80b9c7d42f96e9570156c65d6caaa25",
                        "key": "0x19e34b823e4694a8a3f7d32e44eb178228d70f19ed519cb4510044ecfd01b6f3",
                        "prev": "0x0000000000000000000000000000000000000000000000000000000000000000"
                    },
                    {
                        "current": "0x0000000000000000000000000000000000000000000000000000000000001634",
                        "key": "0x19e34b823e4694a8a3f7d32e44eb178228d70f19ed519cb4510044ecfd01b6f4",
                        "prev": "0x0000000000000000000000000000000000000000000000000000000000000000"
                    }
                ],
                "storageVariables": [
                    {
                        "name": "withdrawals",
                        "type": "mapping(uint256 => struct MainchainGatewayStorage.WithdrawalEntry)",
                        "value": {
                            "pairs": [
                                {
                                    "key": "612633",
                                    "value": {
                                        "fields": [
                                            {
                                                "name": "owner",
                                                "type": "address",
                                                "value": {
                                                    "current": "0x2ed076d1628376532b6a2fea1e9302294d1c8729",
                                                    "prev": "0x0000000000000000000000000000000000000000",
                                                    "typeTag": 1
                                                }
                                            },
                                            {
                                                "name": "tokenAddress",
                                                "type": "address",
                                                "value": {
                                                    "current": "0xcc8fa225d80b9c7d42f96e9570156c65d6caaa25",
                                                    "prev": "0x0000000000000000000000000000000000000000",
                                                    "typeTag": 1
                                                }
                                            },
                                            {
                                                "name": "tokenNumber",
                                                "type": "uint256",
                                                "value": {
                                                    "current": "5684",
                                                    "prev": "0",
                                                    "typeTag": 1
                                                }
                                            }
                                        ],
                                        "typeTag": 3
                                    }
                                }
                            ],
                            "typeTag": 4
                        }
                    }
                ]
            },
            {
                "address": "0xcc8fa225d80b9c7d42f96e9570156c65d6caaa25",
                "erc": "ERC-20",
                "slots": [
                    {
                        "current": "0x000000000000000000000000000000000000000000000000000000003de6bf28",
                        "key": "0x0000000000000000000000000000000000000000000000000000000000000003",
                        "prev": "0x000000000000000000000000000000000000000000000000000000003de6b111"
                    },
                    {
                        "current": "0x0000000000000000000000000000000000000000000000000000000000000000",
                        "key": "0x289df3907b8344a85ec86ea46c78c2dba862b17abb050488973a6c090d318cb7",
                        "prev": "0x000000000000000000000000000000000000000000000000000000000000081d"
                    },
                    {
                        "current": "0x0000000000000000000000000000000000000000000000000000000000001634",
                        "key": "0xd3ea1c070ce24ec62c4a39c58ead6f80deb8657d5bde679f622be1656200be06",
                        "prev": "0x0000000000000000000000000000000000000000000000000000000000000000"
                    }
                ],
                "storageVariables": [
                    {
                        "name": "balanceOf",
                        "type": "mapping(address => uint256)",
                        "value": {
                            "pairs": [
                                {
                                    "key": "0x1a2a1c938ce3ec39b6d47113c7955baa9dd454f2",
                                    "value": {
                                        "current": "0",
                                        "prev": "2077",
                                        "typeTag": 1
                                    }
                                },
                                {
                                    "key": "0x2ed076d1628376532b6a2fea1e9302294d1c8729",
                                    "value": {
                                        "current": "5684",
                                        "prev": "0",
                                        "typeTag": 1
                                    }
                                }
                            ],
                            "typeTag": 4
                        }
                    },
                    {
                        "name": "totalSupply",
                        "type": "uint256",
                        "value": {
                            "current": "1038532392",
                            "prev": "1038528785",
                            "typeTag": 1
                        }
                    }
                ]
            }
        ]
    }
}