{
    "balance_change": {
        "balanceChanges": [
            {
                "account": "0xb5d9dc5957fad91d4a934ce405d42fcf3c15a36f",
                "assets": [
                    {
                        "address": "0x931abd3732f7eada74190c8f89b46f8ba7103d54",
                        "amount": "200",
                        "iconUrl": "",
                        "isERC1155": false,
                        "isERC721": false,
                        "sign": false,
                        "value": ""
                    }
                ]
            },
            {
                "account": "0x4220444a5c4c7f4dc1dca60fe3574c7c11b07907",
                "assets": [
                    {
                        "address": "0x931abd3732f7eada74190c8f89b46f8ba7103d54",
                        "amount": "200",
                        "iconUrl": "",
                        "isERC1155": false,
                        "isERC721": false,
                        "sign": true,
                        "value": ""
                    }
                ]
            }
        ]
    },
    "profile": {
        "basic_info": {
            "baseFee": "",
            "blockNumber": 7753072,
            "callData": "0xa9059cbb0000000000000000000000004220444a5c4c7f4dc1dca60fe3574c7c11b0790700000000000000000000000000000000000000000000000ad78ebc5ac6200000",
            "debugEnable": true,
            "errorInfo": "",
            "eventCount": 1,
            "feeRecipient": "0x1b5b5906306c96b842dc03105e3b38636a4eda0b",
            "formatValue": "0",
            "gasLimit": 60000,
            "gasPrice": "12",
            "gasUsed": 51905,
            "intTxnCount": 0,
            "internalRevert": false,
            "internalRevertMessage": "",
            "isContractCreation": false,
            "isFlashloan": false,
            "maxFee": "",
            "nonce": 213,
            "overwritedBlockNumber": -1,
            "priorityFee": "",
            "receiver": "0x931abd3732f7eada74190c8f89b46f8ba7103d54",
            "revertMessage": "",
            "sender": "0xb5d9dc5957fad91d4a934ce405d42fcf3c15a36f",
            "simulationEnable": true,
            "sourceTxnHash": "0x772b4dc711a0a92679e4e6df06f80075dab89dba9033fc3f50981b1ab2ac862f",
            "status": true,
            "timestamp": "2019-05-13T16:30:44Z",
            "transactionFee": "0.00062286",
            "txnHash": "0x772b4dc711a0a92679e4e6df06f80075dab89dba9033fc3f50981b1ab2ac862f",
            "txnIndex": 139,
            "type": 0,
            "value": "0"
        },
        "fund_flow": [
            {
                "amount": "200",
                "from": "0xb5d9dc5957fad91d4a934ce405d42fcf3c15a36f",
                "id": 1,
                "isERC1155": false,
                "isERC721": false,
                "isReverted": false,
                "order": 1,
                "to": "0x4220444a5c4c7f4dc1dca60fe3574c7c11b07907",
                "token": "0x931abd3732f7eada74190c8f89b46f8ba7103d54"
            }
        ],
        "token_infos": [
            {
                "address": "0xeeeeeeeeeeeeeeeeeeeeeeeeeeeeeeeeeeeeeeee",
                "decimals": 18
            },
            {
                "address": "0x931abd3732f7eada74190c8f89b46f8ba7103d54",
                "decimals": 18
            },
            {
                "address": "0xc02aaa39b223fe8d0a0e5c4f27ead9083c756cc2",
                "decimals": 18
            }
        ]
    },
    "address_label": {
        "labels": [
            {
                "address": "0xeeeeeeeeeeeeeeeeeeeeeeeeeeeeeeeeeeeeeeee",
                "label": "Ether"
            },
            {
                "address": "0x931abd3732f7eada74190c8f89b46f8ba7103d54",
                "label": "FairDollars (FDS)"
            },
            {
                "address": "0x0000000000000000000000000000000000000001",
                "label": "Precompiled"
            },
            {
                "address": "0x0000000000000000000000000000000000000002",
                "label": "Precompiled"
            },
            {
                "address": "0x0000000000000000000000000000000000000003",
                "label": "Precompiled"
            },
            {
                "address": "0x0000000000000000000000000000000000000004",
                "label": "Precompiled"
            }
        ]
    },
    "trace": {
        "accountLabels": null,
        "dataMap": {
            "-1": {
                "invocation": {
                    "address": "0xb5d9dc5957fad91d4a934ce405d42fcf3c15a36f",
                    "callData": "",
                    "decodedMethod": null,
                    "errorInfo": "",
                    "fromAddress": "",
                    "gasUsed": 0,
                    "id": -1,
                    "methodDecoded": false,
                    "operation": "",
                    "output": "",
                    "revert": false,
                    "revertMessage": "",
                    "selector": "",
                    "status": false,
                    "value": ""
                },
                "nodeType": 0
            },
            "0": {
                "invocation": {
                    "address": "0x931abd3732f7eada74190c8f89b46f8ba7103d54",
                    "callData": "0x0000000000000000000000004220444a5c4c7f4dc1dca60fe3574c7c11b0790700000000000000000000000000000000000000000000000ad78ebc5ac6200000",
                    "decodedMethod": {
                        "callParams": [
                            {
                                "name": "to",
                                "type": "address",
                                "value": "0x4220444a5c4c7f4dc1dca60fe3574c7c11b07907"
                            },
                            {
                                "decimalAvailable": true,
                                "name": "value",
                                "type": "uint256",
                                "value": "200,000,000,000,000,000,000"
                            }
                        ],
                        "constructorArguments": "",
                        "name": "transfer",
                        "returnParams": [
                            {
                                "name": "",
                                "type": "bool",
                                "value": true
                            }
                        ],
                        "signature": "transfer(address,uint256)"
                    },
                    "errorInfo": "",
                    "fromAddress": "0xb5d9dc5957fad91d4a934ce405d42fcf3c15a36f",
                    "gasUsed": 51905,
                    "id": 0,
                    "methodDecoded": true,
                    "operation": "CALL",
                    "output": "0x0000000000000000000000000000000000000000000000000000000000000001",
                    "revert": false,
                    "revertMessage": "",
                    "selector": "0xa9059cbb",
                    "status": true,
                    "value": "0"
                },
                "nodeType": 0
            },
            "1": {
                "event": {
                    "contract": "0x931abd3732f7eada74190c8f89b46f8ba7103d54",
                    "decodedLog": {
                        "name": "Transfer",
                        "params": [
                            {
                                "name": "from",
                                "type": "address",
                                "value": "0xb5d9dc5957fad91d4a934ce405d42fcf3c15a36f"
                            },
                            {
                                "name": "to",
                                "type": "address",
                                "value": "0x4220444a5c4c7f4dc1dca60fe3574c7c11b07907"
                            },
                            {
                                "decimalAvailable": true,
                                "name": "value",
                                "type": "uint256",
                                "value": "200,000,000,000,000,000,000"
                            }
                        ],
                        "signature": "Transfer(address,address,uint256)"
                    },
                    "id": 1,
                    "logData": "0x00000000000000000000000000000000000000000000000ad78ebc5ac6200000",
                    "logDecoded": true,
                    "operation": "EVENT",
                    "revert": false,
                    "status": true,
                    "topics": [
                        "0xddf252ad1be2c89b69c2b068fc378daa952ba7f163c4a11628f55a4df523b3ef",
                        "0x000000000000000000000000b5d9dc5957fad91d4a934ce405d42fcf3c15a36f",
                        "0x0000000000000000000000004220444a5c4c7f4dc1dca60fe3574c7c11b07907"
                    ]
                },
                "nodeType": 1
            }
        },
        "gasFlame": [
            {
                "children": [
                    {
                        "children": [
                            {
                                "children": [],
                                "depth": 0,
                                "name": "Initial Gas",
                                "value": 23256
                            },
                            {
                                "children": [],
                                "depth": 0,
                                "name": "Executed Gas",
                                "value": 28649
                            }
                        ],
                        "depth": -1,
                        "name": "Actual Gas Used",
                        "value": 51905
                    },
                    {
                        "children": [],
                        "depth": -1,
                        "name": "Refunded Gas",
                        "value": 0
                    }
                ],
                "depth": -2,
                "name": "Total Gas",
                "value": 51905
            }
        ],
        "isConfirmed": true,
        "mainTrace": [
            {
                "children": [
                    {
                        "children": [
                            {
                                "children": [],
                                "depth": 1,
                                "id": 1,
                                "order": 1
                            }
                        ],
                        "depth": 0,
                        "id": 0,
                        "order": 0
                    }
                ],
                "depth": -1,
                "id": -1,
                "order": -1
            }
        ],
        "mainTraceNodeCount": 2,
        "parentIdMap": {
            "0": -1,
            "1": 0
        },
        "tidyTrace": [
            {
                "children": [
                    {
                        "children": [
                            {
                                "children": [],
                                "depth": 1,
                                "id": 1,
                                "order": 1
                            }
                        ],
                        "depth": 0,
                        "id": 0,
                        "order": 0
                    }
                ],
                "depth": -1,
                "id": -1,
                "order": -1
            }
        ],
        "tidyTraceNodeCount": 2
    },
    "state_change": {
        "stateChanges": [
            {
                "address": "0x931abd3732f7eada74190c8f89b46f8ba7103d54",
                "erc": "ERC-20",
                "slots": [
                    {
                        "current": "0x0000000000000000000000000000000000000000000053effba1ae5488b5c3fe",
                        "key": "0xda14b62182b14d6f2b68cd933d19e473f771a42501d23a0d27110069f20934b1",
                        "prev": "0x0000000000000000000000000000000000000000000053fad3306aaf4ed5c3fe"
                    },
                    {
                        "current": "0x00000000000000000000000000000000000000000000000ad78ebc5ac6200000",
                        "key": "0x76a9f8fa18a1abba9044e5ed62e8778f47d954cc3a60bf992b8945d8728cef74",
                        "prev": "0x0000000000000000000000000000000000000000000000000000000000000000"
                    }
                ],
                "storageVariables": [
                    {
                        "name": "_balances",
                        "type": "mapping(address => uint256)",
                        "value": {
                            "pairs": [
                                {
                                    "key": "0x4220444a5c4c7f4dc1dca60fe3574c7c11b07907",
                                    "value": {
                                        "current": "200000000000000000000",
                                        "prev": "0",
                                        "typeTag": 1
                                    }
                                },
                                {
                                    "key": "0xb5d9dc5957fad91d4a934ce405d42fcf3c15a36f",
                                    "value": {
                                        "current": "396383321877049999999998",
                                        "prev": "396583321877049999999998",
                                        "typeTag": 1
                                    }
                                }
                            ],
                            "typeTag": 4
                        }
                    }
                ]
            }
        ]
    }
}