{
    "balance_change": {
        "balanceChanges": [
            {
                "account": "0x95a9bd206ae52c4ba8eecfc93d18eacdd41c88cc",
                "assets": [
                    {
                        "address": "0x95ad61b0a150d79219dcf64e1e6cc01f0b64c4ce",
                        "amount": "2,856,268.93557622",
                        "iconUrl": "https://assets.blocksec.com/icon/56235cdcac277d59ed89deae8cb8e206f4c4384e75186903e74565b748deabf5.png",
                        "isERC1155": false,
                        "isERC721": false,
                        "sign": false,
                        "value": "43.92744658"
                    }
                ]
            },
            {
                "account": "0xf507f8da5024f29f7f01e74ba0faba56fb73d800",
                "assets": [
                    {
                        "address": "0x95ad61b0a150d79219dcf64e1e6cc01f0b64c4ce",
                        "amount": "2,856,268.93557622",
                        "iconUrl": "https://assets.blocksec.com/icon/56235cdcac277d59ed89deae8cb8e206f4c4384e75186903e74565b748deabf5.png",
                        "isERC1155": false,
                        "isERC721": false,
                        "sign": true,
                        "value": "43.92744658"
                    }
                ]
            }
        ]
    },
    "profile": {
        "basic_info": {
            "baseFee": "86.277665085",
            "blockNumber": 14765277,
            "callData": "0xa9059cbb000000000000000000000000f507f8da5024f29f7f01e74ba0faba56fb73d800000000000000000000000000000000000000000000025cd6a635c12c63171800",
            "debugEnable": true,
            "errorInfo": "",
            "eventCount": 1,
            "feeRecipient": "0x7f101fe45e6649a6fb8f3f8b43ed03d353f2b90c",
            "formatValue": "0",
            "gasLimit": 250000,
            "gasPrice": "89.277665085",
            "gasUsed": 34795,
            "intTxnCount": 0,
            "internalRevert": false,
            "internalRevertMessage": "",
            "isContractCreation": false,
            "isFlashloan": false,
            "maxFee": "144",
            "nonce": 1030385,
            "overwritedBlockNumber": -1,
            "priorityFee": "3",
            "receiver": "0x95ad61b0a150d79219dcf64e1e6cc01f0b64c4ce",
            "revertMessage": "",
            "sender": "0x95a9bd206ae52c4ba8eecfc93d18eacdd41c88cc",
            "simulationEnable": true,
            "sourceTxnHash": "0x77f2f7c4a1b5e6f113800d0f0c7bfb650717f079d557683b3dd52289a1e22b90",
            "status": true,
            "timestamp": "2022-05-13T04:34:51Z",
            "transactionFee": "0.003106416356632575",
            "txnHash": "0x77f2f7c4a1b5e6f113800d0f0c7bfb650717f079d557683b3dd52289a1e22b90",
            "txnIndex": 16,
            "type": 2,
            "value": "0"
        },
        "fund_flow": [
            {
                "amount": "2,856,268.93557622",
                "from": "0x95a9bd206ae52c4ba8eecfc93d18eacdd41c88cc",
                "id": 1,
                "isERC1155": false,
                "isERC721": false,
                "isReverted": false,
                "order": 1,
                "to": "0xf507f8da5024f29f7f01e74ba0faba56fb73d800",
                "token": "0x95ad61b0a150d79219dcf64e1e6cc01f0b64c4ce"
            }
        ],
        "token_infos": [
            {
                "address": "0x95ad61b0a150d79219dcf64e1e6cc01f0b64c4ce",
                "decimals": 18
            },
            {
                "address": "0xc02aaa39b223fe8d0a0e5c4f27ead9083c756cc2",
                "decimals": 18
            },
            {
                "address": "0xeeeeeeeeeeeeeeeeeeeeeeeeeeeeeeeeeeeeeeee",
                "decimals": 18
            }
        ]
    },
    "address_label": {
        "labels": [
            {
                "address": "0x0000000000000000000000000000000000000004",
                "label": "Precompiled"
            },
            {
                "address": "0xeeeeeeeeeeeeeeeeeeeeeeeeeeeeeeeeeeeeeeee",
                "label": "Ether"
            },
            {
                "address": "0x95ad61b0a150d79219dcf64e1e6cc01f0b64c4ce",
                "label": "Shiba Inu: SHIB Token"
            },
            {
                "address": "0x95a9bd206ae52c4ba8eecfc93d18eacdd41c88cc",
                "label": "Coinbase 13"
            },
            {
                "address": "0x0000000000000000000000000000000000000001",
                "label": "Precompiled"
            },
            {
                "address": "0x0000000000000000000000000000000000000002",
                "label": "Precompiled"
            },
            {
                "address": "0x0000000000000000000000000000000000000003",
                "label": "Precompiled"
            }
        ]
    },
    "trace": {
        "accountLabels": null,
        "dataMap": {
            "-1": {
                "invocation": {
                    "address": "0x95a9bd206ae52c4ba8eecfc93d18eacdd41c88cc",
                    "callData": "",
                    "decodedMethod": null,
                    "errorInfo": "",
                    "fromAddress": "",
                    "gasUsed": 0,
                    "id": -1,
                    "methodDecoded": false,
                    "operation": "",
                    "output": "",
                    "revert": false,
                    "revertMessage": "",
                    "selector": "",
                    "status": false,
                    "value": ""
                },
                "nodeType": 0
            },
            "0": {
                "invocation": {
                    "address": "0x95ad61b0a150d79219dcf64e1e6cc01f0b64c4ce",
                    "callData": "0x000000000000000000000000f507f8da5024f29f7f01e74ba0faba56fb73d800000000000000000000000000000000000000000000025cd6a635c12c63171800",
                    "decodedMethod": {
                        "callParams": [
                            {
                                "name": "recipient",
                                "type": "address",
                                "value": "0xf507f8da5024f29f7f01e74ba0faba56fb73d800"
                            },
                            {
                                "decimalAvailable": true,
                                "name": "amount",
                                "type": "uint256",
                                "value": "2,856,268,935,576,220,000,000,000"
                            }
                        ],
                        "constructorArguments": "",
                        "name": "transfer",
                        "returnParams": [
                            {
                                "name": "",
                                "type": "bool",
                                "value": true
                            }
                        ],
                        "signature": "transfer(address,uint256)"
                    },
                    "errorInfo": "",
                    "fromAddress": "0x95a9bd206ae52c4ba8eecfc93d18eacdd41c88cc",
                    "gasUsed": 34795,
                    "id": 0,
                    "methodDecoded": true,
                    "operation": "CALL",
                    "output": "0x0000000000000000000000000000000000000000000000000000000000000001",
                    "revert": false,
                    "revertMessage": "",
                    "selector": "0xa9059cbb",
                    "status": true,
                    "value": "0"
                },
                "nodeType": 0
            },
            "1": {
                "event": {
                    "contract": "0x95ad61b0a150d79219dcf64e1e6cc01f0b64c4ce",
                    "decodedLog": {
                        "name": "Transfer",
                        "params": [
                            {
                                "name": "from",
                                "type": "address",
                                "value": "0x95a9bd206ae52c4ba8eecfc93d18eacdd41c88cc"
                            },
                            {
                                "name": "to",
                                "type": "address",
                                "value": "0xf507f8da5024f29f7f01e74ba0faba56fb73d800"
                            },
                            {
                                "decimalAvailable": true,
                                "name": "value",
                                "type": "uint256",
                                "value": "2,856,268,935,576,220,000,000,000"
                            }
                        ],
                        "signature": "Transfer(address,address,uint256)"
                    },
                    "id": 1,
                    "logData": "0x000000000000000000000000000000000000000000025cd6a635c12c63171800",
                    "logDecoded": true,
                    "operation": "EVENT",
                    "revert": false,
                    "status": true,
                    "topics": [
                        "0xddf252ad1be2c89b69c2b068fc378daa952ba7f163c4a11628f55a4df523b3ef",
                        "0x00000000000000000000000095a9bd206ae52c4ba8eecfc93d18eacdd41c88cc",
                        "0x000000000000000000000000f507f8da5024f29f7f01e74ba0faba56fb73d800"
                    ]
                },
                "nodeType": 1
            }
        },
        "gasFlame": [
            {
                "children": [
                    {
                        "children": [
                            {
                                "children": [],
                                "depth": 0,
                                "name": "Initial Gas",
                                "value": 21668
                            },
                            {
                                "children": [],
                                "depth": 0,
                                "name": "Executed Gas",
                                "value": 13127
                            }
                        ],
                        "depth": -1,
                        "name": "Actual Gas Used",
                        "value": 34795
                    },
                    {
                        "children": [],
                        "depth": -1,
                        "name": "Refunded Gas",
                        "value": 0
                    }
                ],
                "depth": -2,
                "name": "Total Gas",
                "value": 34795
            }
        ],
        "isConfirmed": true,
        "mainTrace": [
            {
                "children": [
                    {
                        "children": [
                            {
                                "children": [],
                                "depth": 1,
                                "id": 1,
                                "order": 1
                            }
                        ],
                        "depth": 0,
                        "id": 0,
                        "order": 0
                    }
                ],
                "depth": -1,
                "id": -1,
                "order": -1
            }
        ],
        "mainTraceNodeCount": 2,
        "parentIdMap": {
            "0": -1,
            "1": 0
        },
        "tidyTrace": [
            {
                "children": [
                    {
                        "children": [
                            {
                                "children": [],
                                "depth": 1,
                                "id": 1,
                                "order": 1
                            }
                        ],
                        "depth": 0,
                        "id": 0,
                        "order": 0
                    }
                ],
                "depth": -1,
                "id": -1,
                "order": -1
            }
        ],
        "tidyTraceNodeCount": 2
    },
    "state_change": {
        "stateChanges": [
            {
                "address": "0x95ad61b0a150d79219dcf64e1e6cc01f0b64c4ce",
                "erc": "ERC-20",
                "slots": [
                    {
                        "current": "0x000000000000000000000000000000000000000f8b16e753d5d855d92efce087",
                        "key": "0x5d7884dd8ffa2d3dcdbcd8b260f24860b9e90621a85d23ecbf1177303595e841",
                        "prev": "0x000000000000000000000000000000000000000f8b19442a7c0e17059213f887"
                    },
                    {
                        "current": "0x00000000000000000000000000000000000000000031d3cfb2b4668d6eefb277",
                        "key": "0xa98162ec6d68a55b3bd9f34d4a81d023c7b36aafd81eac26b863327a6be5e4d9",
                        "prev": "0x0000000000000000000000000000000000000000002f76f90c7ea5610bd89a77"
                    }
                ],
                "storageVariables": [
                    {
                        "name": "_balances",
                        "type": "mapping(address => uint256)",
                        "value": {
                            "pairs": [
                                {
                                    "key": "0x95a9bd206ae52c4ba8eecfc93d18eacdd41c88cc",
                                    "value": {
                                        "current": "1231468542860310011820017246343",
                                        "prev": "1231471399129245588040017246343",
                                        "typeTag": 1
                                    }
                                },
                                {
                                    "key": "0xf507f8da5024f29f7f01e74ba0faba56fb73d800",
                                    "value": {
                                        "current": "60237615842055574774592119",
                                        "prev": "57381346906479354774592119",
                                        "typeTag": 1
                                    }
                                }
                            ],
                            "typeTag": 4
                        }
                    }
                ]
            }
        ]
    }
}