{
    "balance_change": {
        "balanceChanges": [
            {
                "account": "0x1bd658c933d592519d57fd728a1afb659f474d3b",
                "assets": [
                    {
                        "address": "0xa0b86991c6218b36c1d19d4a2e9eb0ce3606eb48",
                        "amount": "12,137.369505",
                        "iconUrl": "https://assets.blocksec.com/icon/0347a86cc07dbd03fdc5db01a4e5ac7e1217f90e0b6e4bb0f75cbcca09160989.png",
                        "isERC1155": false,
                        "isERC721": false,
                        "sign": true,
                        "value": "12137.36951"
                    }
                ]
            },
            {
                "account": "0x3ee18b2214aff97000d974cf647e7c347e8fa585",
                "assets": [
                    {
                        "address": "0xa0b86991c6218b36c1d19d4a2e9eb0ce3606eb48",
                        "amount": "12,137.369505",
                        "iconUrl": "https://assets.blocksec.com/icon/0347a86cc07dbd03fdc5db01a4e5ac7e1217f90e0b6e4bb0f75cbcca09160989.png",
                        "isERC1155": false,
                        "isERC721": false,
                        "sign": false,
                        "value": "12137.36951"
                    }
                ]
            }
        ]
    },
    "profile": {
        "basic_info": {
            "baseFee": "15.652006745",
            "blockNumber": 15991261,
            "callData": "0xc68785190000000000000000000000000000000000000000000000000000000000000020000000000000000000000000000000000000000000000000000000000000041801000000020d00053ec19f821f145ae891575a6e4bcc035013481d18529cd96b52b51269824f390548f1af347509d316027aa563f87d8cad49ca2ff6437fc1b5246a672d5870360001d378cc608109de73a97dc318792ceb0eaeddffead10f0dbf009100a45735e413762f6d97c0be4b85d7065f813a932bc5d2c338fa60e2a11dee270e6f2031ce2001021aed73f1e215cce3f0dceb42aeaf9511c0d08bff3c351dffb6ae2705ab9854281e8a1cb3f91ff6ee2b071a8e4c178fb283945cf153c6542ea22a804a2623247e01033eb6ef5eb0baee564641a30bdf9fbf2c2fd83a0d4b7d4422d3d25932b5e736a23c025d2cd45e7d92797e675edd7a28ee4d4c6b6e96d2061ba9394de7bea1ef600006abf6e8ecdc72c090e63a71dec0da1883ccc9ef31902de0227973d9401fb15de91df180745d931b330a7d878846aeeae1071f38d2785f45471204192aed4f02880008cc5ffd0c0afc20ae7c796c5fde053a481e22fd96e7190e6ffabe71cee0c5288537b0370d94801a65a958f557995557de4bc8006051e6191db400355f6e3866bb000a36cbbb2022cb7cceb3c5284bb0c5d998c9b4cd897b72fe21834f62549649280433bd98dc1f52766fa5243b0e333be521fc77f033ff0e204d3925c7a60a7c18c2000b7eeb878adf01d0935763048ffa769898ac75023e40b19418406010175a2d77ea5b1ea554db45fdf427292795e13dc30aa4436cbde40a9021d3e67e045ea1f67f000c3bcf3f8a4bb99b501138cb92254c1d1a6c66fad2d6345686c77214c5d1c90394355602adff1c6093efdb14a4d337d2f5c4bbf2f06924ec63073b7e078a9b1b2d000e189897c1bcb364bcb4c63480a0d1a3be9235512571433f7b4bd8d890372e1e9067587b016e623e5ad35e1e155b8fa75a6c4626d6563434a388e0a2c01eb9fe45010fec17e0145dca4e64d319299a1481690cf19760c74d74d7bd7de9d136fc49d1e77c7df54966423c07cfd164c710f7bd4816742021fea3ef8d99099f95d48aa86a01110593d476ffd08c34cfe6334f71d4ea2534c62402e7316daffa852cbc3ebfb11f4aefde70845e424eb66fc8a5ce1c938141cd2b0f46ef2b0fe7ed5b46b41f974801122228cdff7130c060d2d417433daf703842a4fc4cdcd3dce36b6a37e95a20759702cfb8f198e6f07f28b801e02e1b852c05b349bfe18e052093a19e861f14ad1c0163767004273c00000010000000000000000000000000b1731c586ca89a23809861c6103f0b96b3f57d920000000000000542010100000000000000000000000000000000000000000000000000000002d3718fa1000000000000000000000000a0b86991c6218b36c1d19d4a2e9eb0ce3606eb4800020000000000000000000000001bd658c933d592519d57fd728a1afb659f474d3b000200000000000000000000000000000000000000000000000000000000000000000000000000000000",
            "debugEnable": true,
            "errorInfo": "",
            "eventCount": 1,
            "feeRecipient": "0x95222290dd7278aa3ddd389cc1e1d165cc4bafe5",
            "formatValue": "0",
            "gasLimit": 270543,
            "gasPrice": "17.152006745",
            "gasUsed": 266993,
            "intTxnCount": 20,
            "internalRevert": false,
            "internalRevertMessage": "",
            "isContractCreation": false,
            "isFlashloan": false,
            "maxFee": "23.527024332",
            "nonce": 577,
            "overwritedBlockNumber": -1,
            "priorityFee": "1.5",
            "receiver": "0x3ee18b2214aff97000d974cf647e7c347e8fa585",
            "revertMessage": "",
            "sender": "0x1bd658c933d592519d57fd728a1afb659f474d3b",
            "simulationEnable": true,
            "sourceTxnHash": "0x77c4a1a1905dec0b1adb539f8fe7aeb140e6bd5fe58be519388b4b1b2411e5aa",
            "status": true,
            "timestamp": "2022-11-17T17:33:35Z",
            "transactionFee": "0.004579465736867785",
            "txnHash": "0x77c4a1a1905dec0b1adb539f8fe7aeb140e6bd5fe58be519388b4b1b2411e5aa",
            "txnIndex": 144,
            "type": 2,
            "value": "0"
        },
        "fund_flow": [
            {
                "amount": "12,137.369505",
                "from": "0x3ee18b2214aff97000d974cf647e7c347e8fa585",
                "id": 1,
                "isERC1155": false,
                "isERC721": false,
                "isReverted": false,
                "order": 1,
                "to": "0x1bd658c933d592519d57fd728a1afb659f474d3b",
                "token": "0xa0b86991c6218b36c1d19d4a2e9eb0ce3606eb48"
            }
        ],
        "token_infos": [
            {
                "address": "0xa0b86991c6218b36c1d19d4a2e9eb0ce3606eb48",
                "decimals": 6
            },
            {
                "address": "0xc02aaa39b223fe8d0a0e5c4f27ead9083c756cc2",
                "decimals": 18
            },
            {
                "address": "0xeeeeeeeeeeeeeeeeeeeeeeeeeeeeeeeeeeeeeeee",
                "decimals": 18
            }
        ]
    },
    "address_label": {
        "labels": [
            {
                "address": "0x98f3c9e6e3face36baad05fe09d375ef1464288b",
                "label": "Wormhole: Ethereum Core Bridge"
            },
            {
                "address": "0x299b4f6066d231521d11fae8331fb1a4fe794f58",
                "label": "BridgeImplementation"
            },
            {
                "address": "0xa0b86991c6218b36c1d19d4a2e9eb0ce3606eb48",
                "label": "Circle: USDC Token"
            },
            {
                "address": "0x0000000000000000000000000000000000000001",
                "label": "Precompiled"
            },
            {
                "address": "0x3c3d457f1522d3540ab3325aa5f1864e34cba9d0",
                "label": "Implementation"
            },
            {
                "address": "0xa2327a938febf5fec13bacfb16ae10ecbc4cbdcf",
                "label": "FiatTokenV2_1"
            },
            {
                "address": "0x0000000000000000000000000000000000000002",
                "label": "Precompiled"
            },
            {
                "address": "0x0000000000000000000000000000000000000003",
                "label": "Precompiled"
            },
            {
                "address": "0x0000000000000000000000000000000000000004",
                "label": "Precompiled"
            },
            {
                "address": "0xeeeeeeeeeeeeeeeeeeeeeeeeeeeeeeeeeeeeeeee",
                "label": "Ether"
            },
            {
                "address": "0x3ee18b2214aff97000d974cf647e7c347e8fa585",
                "label": "Wormhole: Portal Token Bridge"
            }
        ]
    },
    "trace": {
        "accountLabels": null,
        "dataMap": {
            "-1": {
                "invocation": {
                    "address": "0x1bd658c933d592519d57fd728a1afb659f474d3b",
                    "callData": "",
                    "decodedMethod": null,
                    "errorInfo": "",
                    "fromAddress": "",
                    "gasUsed": 0,
                    "id": -1,
                    "methodDecoded": false,
                    "operation": "",
                    "output": "",
                    "revert": false,
                    "revertMessage": "",
                    "selector": "",
                    "status": false,
                    "value": ""
                },
                "nodeType": 0
            },
            "0": {
                "invocation": {
                    "address": "0x3ee18b2214aff97000d974cf647e7c347e8fa585",
                    "callData": "0x0000000000000000000000000000000000000000000000000000000000000020000000000000000000000000000000000000000000000000000000000000041801000000020d00053ec19f821f145ae891575a6e4bcc035013481d18529cd96b52b51269824f390548f1af347509d316027aa563f87d8cad49ca2ff6437fc1b5246a672d5870360001d378cc608109de73a97dc318792ceb0eaeddffead10f0dbf009100a45735e413762f6d97c0be4b85d7065f813a932bc5d2c338fa60e2a11dee270e6f2031ce2001021aed73f1e215cce3f0dceb42aeaf9511c0d08bff3c351dffb6ae2705ab9854281e8a1cb3f91ff6ee2b071a8e4c178fb283945cf153c6542ea22a804a2623247e01033eb6ef5eb0baee564641a30bdf9fbf2c2fd83a0d4b7d4422d3d25932b5e736a23c025d2cd45e7d92797e675edd7a28ee4d4c6b6e96d2061ba9394de7bea1ef600006abf6e8ecdc72c090e63a71dec0da1883ccc9ef31902de0227973d9401fb15de91df180745d931b330a7d878846aeeae1071f38d2785f45471204192aed4f02880008cc5ffd0c0afc20ae7c796c5fde053a481e22fd96e7190e6ffabe71cee0c5288537b0370d94801a65a958f557995557de4bc8006051e6191db400355f6e3866bb000a36cbbb2022cb7cceb3c5284bb0c5d998c9b4cd897b72fe21834f62549649280433bd98dc1f52766fa5243b0e333be521fc77f033ff0e204d3925c7a60a7c18c2000b7eeb878adf01d0935763048ffa769898ac75023e40b19418406010175a2d77ea5b1ea554db45fdf427292795e13dc30aa4436cbde40a9021d3e67e045ea1f67f000c3bcf3f8a4bb99b501138cb92254c1d1a6c66fad2d6345686c77214c5d1c90394355602adff1c6093efdb14a4d337d2f5c4bbf2f06924ec63073b7e078a9b1b2d000e189897c1bcb364bcb4c63480a0d1a3be9235512571433f7b4bd8d890372e1e9067587b016e623e5ad35e1e155b8fa75a6c4626d6563434a388e0a2c01eb9fe45010fec17e0145dca4e64d319299a1481690cf19760c74d74d7bd7de9d136fc49d1e77c7df54966423c07cfd164c710f7bd4816742021fea3ef8d99099f95d48aa86a01110593d476ffd08c34cfe6334f71d4ea2534c62402e7316daffa852cbc3ebfb11f4aefde70845e424eb66fc8a5ce1c938141cd2b0f46ef2b0fe7ed5b46b41f974801122228cdff7130c060d2d417433daf703842a4fc4cdcd3dce36b6a37e95a20759702cfb8f198e6f07f28b801e02e1b852c05b349bfe18e052093a19e861f14ad1c0163767004273c00000010000000000000000000000000b1731c586ca89a23809861c6103f0b96b3f57d920000000000000542010100000000000000000000000000000000000000000000000000000002d3718fa1000000000000000000000000a0b86991c6218b36c1d19d4a2e9eb0ce3606eb4800020000000000000000000000001bd658c933d592519d57fd728a1afb659f474d3b000200000000000000000000000000000000000000000000000000000000000000000000000000000000",
                    "decodedMethod": {
                        "callParams": [
                            {
                                "name": "encodedVm",
                                "type": "bytes",
                                "value": "0x01000000020d00053ec19f821f145ae891575a6e4bcc035013481d18529cd96b52b51269824f390548f1af347509d316027aa563f87d8cad49ca2ff6437fc1b5246a672d5870360001d378cc608109de73a97dc318792ceb0eaeddffead10f0dbf009100a45735e413762f6d97c0be4b85d7065f813a932bc5d2c338fa60e2a11dee270e6f2031ce2001021aed73f1e215cce3f0dceb42aeaf9511c0d08bff3c351dffb6ae2705ab9854281e8a1cb3f91ff6ee2b071a8e4c178fb283945cf153c6542ea22a804a2623247e01033eb6ef5eb0baee564641a30bdf9fbf2c2fd83a0d4b7d4422d3d25932b5e736a23c025d2cd45e7d92797e675edd7a28ee4d4c6b6e96d2061ba9394de7bea1ef600006abf6e8ecdc72c090e63a71dec0da1883ccc9ef31902de0227973d9401fb15de91df180745d931b330a7d878846aeeae1071f38d2785f45471204192aed4f02880008cc5ffd0c0afc20ae7c796c5fde053a481e22fd96e7190e6ffabe71cee0c5288537b0370d94801a65a958f557995557de4bc8006051e6191db400355f6e3866bb000a36cbbb2022cb7cceb3c5284bb0c5d998c9b4cd897b72fe21834f62549649280433bd98dc1f52766fa5243b0e333be521fc77f033ff0e204d3925c7a60a7c18c2000b7eeb878adf01d0935763048ffa769898ac75023e40b19418406010175a2d77ea5b1ea554db45fdf427292795e13dc30aa4436cbde40a9021d3e67e045ea1f67f000c3bcf3f8a4bb99b501138cb92254c1d1a6c66fad2d6345686c77214c5d1c90394355602adff1c6093efdb14a4d337d2f5c4bbf2f06924ec63073b7e078a9b1b2d000e189897c1bcb364bcb4c63480a0d1a3be9235512571433f7b4bd8d890372e1e9067587b016e623e5ad35e1e155b8fa75a6c4626d6563434a388e0a2c01eb9fe45010fec17e0145dca4e64d319299a1481690cf19760c74d74d7bd7de9d136fc49d1e77c7df54966423c07cfd164c710f7bd4816742021fea3ef8d99099f95d48aa86a01110593d476ffd08c34cfe6334f71d4ea2534c62402e7316daffa852cbc3ebfb11f4aefde70845e424eb66fc8a5ce1c938141cd2b0f46ef2b0fe7ed5b46b41f974801122228cdff7130c060d2d417433daf703842a4fc4cdcd3dce36b6a37e95a20759702cfb8f198e6f07f28b801e02e1b852c05b349bfe18e052093a19e861f14ad1c0163767004273c00000010000000000000000000000000b1731c586ca89a23809861c6103f0b96b3f57d920000000000000542010100000000000000000000000000000000000000000000000000000002d3718fa1000000000000000000000000a0b86991c6218b36c1d19d4a2e9eb0ce3606eb4800020000000000000000000000001bd658c933d592519d57fd728a1afb659f474d3b00020000000000000000000000000000000000000000000000000000000000000000"
                            }
                        ],
                        "constructorArguments": "",
                        "name": "completeTransfer",
                        "returnParams": [],
                        "signature": "completeTransfer(bytes)"
                    },
                    "errorInfo": "",
                    "fromAddress": "0x1bd658c933d592519d57fd728a1afb659f474d3b",
                    "gasUsed": 266993,
                    "id": 0,
                    "methodDecoded": true,
                    "operation": "CALL",
                    "output": "",
                    "revert": false,
                    "revertMessage": "",
                    "selector": "0xc6878519",
                    "status": true,
                    "value": "0"
                },
                "nodeType": 0
            },
            "1": {
                "invocation": {
                    "address": "0x299b4f6066d231521d11fae8331fb1a4fe794f58",
                    "callData": "0x0000000000000000000000000000000000000000000000000000000000000020000000000000000000000000000000000000000000000000000000000000041801000000020d00053ec19f821f145ae891575a6e4bcc035013481d18529cd96b52b51269824f390548f1af347509d316027aa563f87d8cad49ca2ff6437fc1b5246a672d5870360001d378cc608109de73a97dc318792ceb0eaeddffead10f0dbf009100a45735e413762f6d97c0be4b85d7065f813a932bc5d2c338fa60e2a11dee270e6f2031ce2001021aed73f1e215cce3f0dceb42aeaf9511c0d08bff3c351dffb6ae2705ab9854281e8a1cb3f91ff6ee2b071a8e4c178fb283945cf153c6542ea22a804a2623247e01033eb6ef5eb0baee564641a30bdf9fbf2c2fd83a0d4b7d4422d3d25932b5e736a23c025d2cd45e7d92797e675edd7a28ee4d4c6b6e96d2061ba9394de7bea1ef600006abf6e8ecdc72c090e63a71dec0da1883ccc9ef31902de0227973d9401fb15de91df180745d931b330a7d878846aeeae1071f38d2785f45471204192aed4f02880008cc5ffd0c0afc20ae7c796c5fde053a481e22fd96e7190e6ffabe71cee0c5288537b0370d94801a65a958f557995557de4bc8006051e6191db400355f6e3866bb000a36cbbb2022cb7cceb3c5284bb0c5d998c9b4cd897b72fe21834f62549649280433bd98dc1f52766fa5243b0e333be521fc77f033ff0e204d3925c7a60a7c18c2000b7eeb878adf01d0935763048ffa769898ac75023e40b19418406010175a2d77ea5b1ea554db45fdf427292795e13dc30aa4436cbde40a9021d3e67e045ea1f67f000c3bcf3f8a4bb99b501138cb92254c1d1a6c66fad2d6345686c77214c5d1c90394355602adff1c6093efdb14a4d337d2f5c4bbf2f06924ec63073b7e078a9b1b2d000e189897c1bcb364bcb4c63480a0d1a3be9235512571433f7b4bd8d890372e1e9067587b016e623e5ad35e1e155b8fa75a6c4626d6563434a388e0a2c01eb9fe45010fec17e0145dca4e64d319299a1481690cf19760c74d74d7bd7de9d136fc49d1e77c7df54966423c07cfd164c710f7bd4816742021fea3ef8d99099f95d48aa86a01110593d476ffd08c34cfe6334f71d4ea2534c62402e7316daffa852cbc3ebfb11f4aefde70845e424eb66fc8a5ce1c938141cd2b0f46ef2b0fe7ed5b46b41f974801122228cdff7130c060d2d417433daf703842a4fc4cdcd3dce36b6a37e95a20759702cfb8f198e6f07f28b801e02e1b852c05b349bfe18e052093a19e861f14ad1c0163767004273c00000010000000000000000000000000b1731c586ca89a23809861c6103f0b96b3f57d920000000000000542010100000000000000000000000000000000000000000000000000000002d3718fa1000000000000000000000000a0b86991c6218b36c1d19d4a2e9eb0ce3606eb4800020000000000000000000000001bd658c933d592519d57fd728a1afb659f474d3b000200000000000000000000000000000000000000000000000000000000000000000000000000000000",
                    "decodedMethod": {
                        "callParams": [
                            {
                                "name": "encodedVm",
                                "type": "bytes",
                                "value": "0x01000000020d00053ec19f821f145ae891575a6e4bcc035013481d18529cd96b52b51269824f390548f1af347509d316027aa563f87d8cad49ca2ff6437fc1b5246a672d5870360001d378cc608109de73a97dc318792ceb0eaeddffead10f0dbf009100a45735e413762f6d97c0be4b85d7065f813a932bc5d2c338fa60e2a11dee270e6f2031ce2001021aed73f1e215cce3f0dceb42aeaf9511c0d08bff3c351dffb6ae2705ab9854281e8a1cb3f91ff6ee2b071a8e4c178fb283945cf153c6542ea22a804a2623247e01033eb6ef5eb0baee564641a30bdf9fbf2c2fd83a0d4b7d4422d3d25932b5e736a23c025d2cd45e7d92797e675edd7a28ee4d4c6b6e96d2061ba9394de7bea1ef600006abf6e8ecdc72c090e63a71dec0da1883ccc9ef31902de0227973d9401fb15de91df180745d931b330a7d878846aeeae1071f38d2785f45471204192aed4f02880008cc5ffd0c0afc20ae7c796c5fde053a481e22fd96e7190e6ffabe71cee0c5288537b0370d94801a65a958f557995557de4bc8006051e6191db400355f6e3866bb000a36cbbb2022cb7cceb3c5284bb0c5d998c9b4cd897b72fe21834f62549649280433bd98dc1f52766fa5243b0e333be521fc77f033ff0e204d3925c7a60a7c18c2000b7eeb878adf01d0935763048ffa769898ac75023e40b19418406010175a2d77ea5b1ea554db45fdf427292795e13dc30aa4436cbde40a9021d3e67e045ea1f67f000c3bcf3f8a4bb99b501138cb92254c1d1a6c66fad2d6345686c77214c5d1c90394355602adff1c6093efdb14a4d337d2f5c4bbf2f06924ec63073b7e078a9b1b2d000e189897c1bcb364bcb4c63480a0d1a3be9235512571433f7b4bd8d890372e1e9067587b016e623e5ad35e1e155b8fa75a6c4626d6563434a388e0a2c01eb9fe45010fec17e0145dca4e64d319299a1481690cf19760c74d74d7bd7de9d136fc49d1e77c7df54966423c07cfd164c710f7bd4816742021fea3ef8d99099f95d48aa86a01110593d476ffd08c34cfe6334f71d4ea2534c62402e7316daffa852cbc3ebfb11f4aefde70845e424eb66fc8a5ce1c938141cd2b0f46ef2b0fe7ed5b46b41f974801122228cdff7130c060d2d417433daf703842a4fc4cdcd3dce36b6a37e95a20759702cfb8f198e6f07f28b801e02e1b852c05b349bfe18e052093a19e861f14ad1c0163767004273c00000010000000000000000000000000b1731c586ca89a23809861c6103f0b96b3f57d920000000000000542010100000000000000000000000000000000000000000000000000000002d3718fa1000000000000000000000000a0b86991c6218b36c1d19d4a2e9eb0ce3606eb4800020000000000000000000000001bd658c933d592519d57fd728a1afb659f474d3b00020000000000000000000000000000000000000000000000000000000000000000"
                            }
                        ],
                        "constructorArguments": "",
                        "name": "completeTransfer",
                        "returnParams": [],
                        "signature": "completeTransfer(bytes)"
                    },
                    "errorInfo": "",
                    "fromAddress": "0x3ee18b2214aff97000d974cf647e7c347e8fa585",
                    "gasUsed": 225191,
                    "id": 1,
                    "methodDecoded": true,
                    "operation": "DELEGATECALL",
                    "output": "",
                    "revert": false,
                    "revertMessage": "",
                    "selector": "0xc6878519",
                    "status": true,
                    "value": "0"
                },
                "nodeType": 0
            },
            "10": {
                "invocation": {
                    "address": "0x0000000000000000000000000000000000000001",
                    "callData": "0x7ee70f4543e8b774f635e038085d551821e70156cbfbdc254cdcecd7000000000000000000000000000000000000000000000000000000000000001b36cbbb2022cb7cceb3c5284bb0c5d998c9b4cd897b72fe21834f62549649280433bd98dc1f52766fa5243b0e333be521fc77f033ff0e204d3925c7a60a7c18c2",
                    "decodedMethod": {
                        "callParams": [
                            {
                                "name": "hash",
                                "type": "bytes32",
                                "value": "0x3aff99817ee70f4543e8b774f635e038085d551821e70156cbfbdc254cdcecd7"
                            },
                            {
                                "name": "v",
                                "type": "uint256",
                                "value": "27"
                            },
                            {
                                "name": "r",
                                "type": "bytes32",
                                "value": "0x36cbbb2022cb7cceb3c5284bb0c5d998c9b4cd897b72fe21834f625496492804"
                            },
                            {
                                "name": "s",
                                "type": "bytes32",
                                "value": "0x33bd98dc1f52766fa5243b0e333be521fc77f033ff0e204d3925c7a60a7c18c2"
                            }
                        ],
                        "constructorArguments": "",
                        "name": "ecrecover",
                        "returnParams": [
                            {
                                "name": "",
                                "type": "address",
                                "value": "0xaf45ced136b9d9e24903464ae889f5c8a723fc14"
                            }
                        ],
                        "signature": "ecrecover(bytes32,uint256,bytes32,bytes32)"
                    },
                    "errorInfo": "",
                    "fromAddress": "0x98f3c9e6e3face36baad05fe09d375ef1464288b",
                    "gasUsed": 3000,
                    "id": 10,
                    "methodDecoded": true,
                    "operation": "STATICCALL",
                    "output": "0x000000000000000000000000af45ced136b9d9e24903464ae889f5c8a723fc14",
                    "revert": false,
                    "revertMessage": "",
                    "selector": "0x3aff9981",
                    "status": true,
                    "value": "0"
                },
                "nodeType": 0
            },
            "11": {
                "invocation": {
                    "address": "0x0000000000000000000000000000000000000001",
                    "callData": "0x7ee70f4543e8b774f635e038085d551821e70156cbfbdc254cdcecd7000000000000000000000000000000000000000000000000000000000000001b7eeb878adf01d0935763048ffa769898ac75023e40b19418406010175a2d77ea5b1ea554db45fdf427292795e13dc30aa4436cbde40a9021d3e67e045ea1f67f",
                    "decodedMethod": {
                        "callParams": [
                            {
                                "name": "hash",
                                "type": "bytes32",
                                "value": "0x3aff99817ee70f4543e8b774f635e038085d551821e70156cbfbdc254cdcecd7"
                            },
                            {
                                "name": "v",
                                "type": "uint256",
                                "value": "27"
                            },
                            {
                                "name": "r",
                                "type": "bytes32",
                                "value": "0x7eeb878adf01d0935763048ffa769898ac75023e40b19418406010175a2d77ea"
                            },
                            {
                                "name": "s",
                                "type": "bytes32",
                                "value": "0x5b1ea554db45fdf427292795e13dc30aa4436cbde40a9021d3e67e045ea1f67f"
                            }
                        ],
                        "constructorArguments": "",
                        "name": "ecrecover",
                        "returnParams": [
                            {
                                "name": "",
                                "type": "address",
                                "value": "0xf93124b7c738843cbb89e864c862c38cddcccf95"
                            }
                        ],
                        "signature": "ecrecover(bytes32,uint256,bytes32,bytes32)"
                    },
                    "errorInfo": "",
                    "fromAddress": "0x98f3c9e6e3face36baad05fe09d375ef1464288b",
                    "gasUsed": 3000,
                    "id": 11,
                    "methodDecoded": true,
                    "operation": "STATICCALL",
                    "output": "0x000000000000000000000000f93124b7c738843cbb89e864c862c38cddcccf95",
                    "revert": false,
                    "revertMessage": "",
                    "selector": "0x3aff9981",
                    "status": true,
                    "value": "0"
                },
                "nodeType": 0
            },
            "12": {
                "invocation": {
                    "address": "0x0000000000000000000000000000000000000001",
                    "callData": "0x7ee70f4543e8b774f635e038085d551821e70156cbfbdc254cdcecd7000000000000000000000000000000000000000000000000000000000000001b3bcf3f8a4bb99b501138cb92254c1d1a6c66fad2d6345686c77214c5d1c90394355602adff1c6093efdb14a4d337d2f5c4bbf2f06924ec63073b7e078a9b1b2d",
                    "decodedMethod": {
                        "callParams": [
                            {
                                "name": "hash",
                                "type": "bytes32",
                                "value": "0x3aff99817ee70f4543e8b774f635e038085d551821e70156cbfbdc254cdcecd7"
                            },
                            {
                                "name": "v",
                                "type": "uint256",
                                "value": "27"
                            },
                            {
                                "name": "r",
                                "type": "bytes32",
                                "value": "0x3bcf3f8a4bb99b501138cb92254c1d1a6c66fad2d6345686c77214c5d1c90394"
                            },
                            {
                                "name": "s",
                                "type": "bytes32",
                                "value": "0x355602adff1c6093efdb14a4d337d2f5c4bbf2f06924ec63073b7e078a9b1b2d"
                            }
                        ],
                        "constructorArguments": "",
                        "name": "ecrecover",
                        "returnParams": [
                            {
                                "name": "",
                                "type": "address",
                                "value": "0xd2cc37a4dc036a8d232b48f62cdd4731412f4890"
                            }
                        ],
                        "signature": "ecrecover(bytes32,uint256,bytes32,bytes32)"
                    },
                    "errorInfo": "",
                    "fromAddress": "0x98f3c9e6e3face36baad05fe09d375ef1464288b",
                    "gasUsed": 3000,
                    "id": 12,
                    "methodDecoded": true,
                    "operation": "STATICCALL",
                    "output": "0x000000000000000000000000d2cc37a4dc036a8d232b48f62cdd4731412f4890",
                    "revert": false,
                    "revertMessage": "",
                    "selector": "0x3aff9981",
                    "status": true,
                    "value": "0"
                },
                "nodeType": 0
            },
            "13": {
                "invocation": {
                    "address": "0x0000000000000000000000000000000000000001",
                    "callData": "0x7ee70f4543e8b774f635e038085d551821e70156cbfbdc254cdcecd7000000000000000000000000000000000000000000000000000000000000001c189897c1bcb364bcb4c63480a0d1a3be9235512571433f7b4bd8d890372e1e9067587b016e623e5ad35e1e155b8fa75a6c4626d6563434a388e0a2c01eb9fe45",
                    "decodedMethod": {
                        "callParams": [
                            {
                                "name": "hash",
                                "type": "bytes32",
                                "value": "0x3aff99817ee70f4543e8b774f635e038085d551821e70156cbfbdc254cdcecd7"
                            },
                            {
                                "name": "v",
                                "type": "uint256",
                                "value": "28"
                            },
                            {
                                "name": "r",
                                "type": "bytes32",
                                "value": "0x189897c1bcb364bcb4c63480a0d1a3be9235512571433f7b4bd8d890372e1e90"
                            },
                            {
                                "name": "s",
                                "type": "bytes32",
                                "value": "0x67587b016e623e5ad35e1e155b8fa75a6c4626d6563434a388e0a2c01eb9fe45"
                            }
                        ],
                        "constructorArguments": "",
                        "name": "ecrecover",
                        "returnParams": [
                            {
                                "name": "",
                                "type": "address",
                                "value": "0x71aa1be1d36cafe3867910f99c09e347899c19c3"
                            }
                        ],
                        "signature": "ecrecover(bytes32,uint256,bytes32,bytes32)"
                    },
                    "errorInfo": "",
                    "fromAddress": "0x98f3c9e6e3face36baad05fe09d375ef1464288b",
                    "gasUsed": 3000,
                    "id": 13,
                    "methodDecoded": true,
                    "operation": "STATICCALL",
                    "output": "0x00000000000000000000000071aa1be1d36cafe3867910f99c09e347899c19c3",
                    "revert": false,
                    "revertMessage": "",
                    "selector": "0x3aff9981",
                    "status": true,
                    "value": "0"
                },
                "nodeType": 0
            },
            "14": {
                "invocation": {
                    "address": "0x0000000000000000000000000000000000000001",
                    "callData": "0x7ee70f4543e8b774f635e038085d551821e70156cbfbdc254cdcecd7000000000000000000000000000000000000000000000000000000000000001cec17e0145dca4e64d319299a1481690cf19760c74d74d7bd7de9d136fc49d1e77c7df54966423c07cfd164c710f7bd4816742021fea3ef8d99099f95d48aa86a",
                    "decodedMethod": {
                        "callParams": [
                            {
                                "name": "hash",
                                "type": "bytes32",
                                "value": "0x3aff99817ee70f4543e8b774f635e038085d551821e70156cbfbdc254cdcecd7"
                            },
                            {
                                "name": "v",
                                "type": "uint256",
                                "value": "28"
                            },
                            {
                                "name": "r",
                                "type": "bytes32",
                                "value": "0xec17e0145dca4e64d319299a1481690cf19760c74d74d7bd7de9d136fc49d1e7"
                            },
                            {
                                "name": "s",
                                "type": "bytes32",
                                "value": "0x7c7df54966423c07cfd164c710f7bd4816742021fea3ef8d99099f95d48aa86a"
                            }
                        ],
                        "constructorArguments": "",
                        "name": "ecrecover",
                        "returnParams": [
                            {
                                "name": "",
                                "type": "address",
                                "value": "0x8192b6e7387ccd768277c17dab1b7a5027c0b3cf"
                            }
                        ],
                        "signature": "ecrecover(bytes32,uint256,bytes32,bytes32)"
                    },
                    "errorInfo": "",
                    "fromAddress": "0x98f3c9e6e3face36baad05fe09d375ef1464288b",
                    "gasUsed": 3000,
                    "id": 14,
                    "methodDecoded": true,
                    "operation": "STATICCALL",
                    "output": "0x0000000000000000000000008192b6e7387ccd768277c17dab1b7a5027c0b3cf",
                    "revert": false,
                    "revertMessage": "",
                    "selector": "0x3aff9981",
                    "status": true,
                    "value": "0"
                },
                "nodeType": 0
            },
            "15": {
                "invocation": {
                    "address": "0x0000000000000000000000000000000000000001",
                    "callData": "0x7ee70f4543e8b774f635e038085d551821e70156cbfbdc254cdcecd7000000000000000000000000000000000000000000000000000000000000001c0593d476ffd08c34cfe6334f71d4ea2534c62402e7316daffa852cbc3ebfb11f4aefde70845e424eb66fc8a5ce1c938141cd2b0f46ef2b0fe7ed5b46b41f9748",
                    "decodedMethod": {
                        "callParams": [
                            {
                                "name": "hash",
                                "type": "bytes32",
                                "value": "0x3aff99817ee70f4543e8b774f635e038085d551821e70156cbfbdc254cdcecd7"
                            },
                            {
                                "name": "v",
                                "type": "uint256",
                                "value": "28"
                            },
                            {
                                "name": "r",
                                "type": "bytes32",
                                "value": "0x0593d476ffd08c34cfe6334f71d4ea2534c62402e7316daffa852cbc3ebfb11f"
                            },
                            {
                                "name": "s",
                                "type": "bytes32",
                                "value": "0x4aefde70845e424eb66fc8a5ce1c938141cd2b0f46ef2b0fe7ed5b46b41f9748"
                            }
                        ],
                        "constructorArguments": "",
                        "name": "ecrecover",
                        "returnParams": [
                            {
                                "name": "",
                                "type": "address",
                                "value": "0x5e1487f35515d02a92753504a8d75471b9f49edb"
                            }
                        ],
                        "signature": "ecrecover(bytes32,uint256,bytes32,bytes32)"
                    },
                    "errorInfo": "",
                    "fromAddress": "0x98f3c9e6e3face36baad05fe09d375ef1464288b",
                    "gasUsed": 3000,
                    "id": 15,
                    "methodDecoded": true,
                    "operation": "STATICCALL",
                    "output": "0x0000000000000000000000005e1487f35515d02a92753504a8d75471b9f49edb",
                    "revert": false,
                    "revertMessage": "",
                    "selector": "0x3aff9981",
                    "status": true,
                    "value": "0"
                },
                "nodeType": 0
            },
            "16": {
                "invocation": {
                    "address": "0x0000000000000000000000000000000000000001",
                    "callData": "0x7ee70f4543e8b774f635e038085d551821e70156cbfbdc254cdcecd7000000000000000000000000000000000000000000000000000000000000001c2228cdff7130c060d2d417433daf703842a4fc4cdcd3dce36b6a37e95a20759702cfb8f198e6f07f28b801e02e1b852c05b349bfe18e052093a19e861f14ad1c",
                    "decodedMethod": {
                        "callParams": [
                            {
                                "name": "hash",
                                "type": "bytes32",
                                "value": "0x3aff99817ee70f4543e8b774f635e038085d551821e70156cbfbdc254cdcecd7"
                            },
                            {
                                "name": "v",
                                "type": "uint256",
                                "value": "28"
                            },
                            {
                                "name": "r",
                                "type": "bytes32",
                                "value": "0x2228cdff7130c060d2d417433daf703842a4fc4cdcd3dce36b6a37e95a207597"
                            },
                            {
                                "name": "s",
                                "type": "bytes32",
                                "value": "0x02cfb8f198e6f07f28b801e02e1b852c05b349bfe18e052093a19e861f14ad1c"
                            }
                        ],
                        "constructorArguments": "",
                        "name": "ecrecover",
                        "returnParams": [
                            {
                                "name": "",
                                "type": "address",
                                "value": "0x6fbebc898f403e4773e95feb15e80c9a99c8348d"
                            }
                        ],
                        "signature": "ecrecover(bytes32,uint256,bytes32,bytes32)"
                    },
                    "errorInfo": "",
                    "fromAddress": "0x98f3c9e6e3face36baad05fe09d375ef1464288b",
                    "gasUsed": 3000,
                    "id": 16,
                    "methodDecoded": true,
                    "operation": "STATICCALL",
                    "output": "0x0000000000000000000000006fbebc898f403e4773e95feb15e80c9a99c8348d",
                    "revert": false,
                    "revertMessage": "",
                    "selector": "0x3aff9981",
                    "status": true,
                    "value": "0"
                },
                "nodeType": 0
            },
            "17": {
                "invocation": {
                    "address": "0xa0b86991c6218b36c1d19d4a2e9eb0ce3606eb48",
                    "callData": "0x",
                    "decodedMethod": {
                        "callParams": [],
                        "constructorArguments": "",
                        "name": "decimals",
                        "returnParams": [
                            {
                                "name": "",
                                "type": "uint8",
                                "value": "6"
                            }
                        ],
                        "signature": "decimals()"
                    },
                    "errorInfo": "",
                    "fromAddress": "0x3ee18b2214aff97000d974cf647e7c347e8fa585",
                    "gasUsed": 9664,
                    "id": 17,
                    "methodDecoded": true,
                    "operation": "STATICCALL",
                    "output": "0x0000000000000000000000000000000000000000000000000000000000000006",
                    "revert": false,
                    "revertMessage": "",
                    "selector": "0x313ce567",
                    "status": true,
                    "value": "0"
                },
                "nodeType": 0
            },
            "18": {
                "invocation": {
                    "address": "0xa2327a938febf5fec13bacfb16ae10ecbc4cbdcf",
                    "callData": "0x",
                    "decodedMethod": {
                        "callParams": [],
                        "constructorArguments": "",
                        "name": "decimals",
                        "returnParams": [
                            {
                                "name": "",
                                "type": "uint8",
                                "value": "6"
                            }
                        ],
                        "signature": "decimals()"
                    },
                    "errorInfo": "",
                    "fromAddress": "0xa0b86991c6218b36c1d19d4a2e9eb0ce3606eb48",
                    "gasUsed": 2381,
                    "id": 18,
                    "methodDecoded": true,
                    "operation": "DELEGATECALL",
                    "output": "0x0000000000000000000000000000000000000000000000000000000000000006",
                    "revert": false,
                    "revertMessage": "",
                    "selector": "0x313ce567",
                    "status": true,
                    "value": "0"
                },
                "nodeType": 0
            },
            "19": {
                "invocation": {
                    "address": "0xa0b86991c6218b36c1d19d4a2e9eb0ce3606eb48",
                    "callData": "0x0000000000000000000000001bd658c933d592519d57fd728a1afb659f474d3b00000000000000000000000000000000000000000000000000000002d3718fa1",
                    "decodedMethod": {
                        "callParams": [
                            {
                                "name": "to",
                                "type": "address",
                                "value": "0x1bd658c933d592519d57fd728a1afb659f474d3b"
                            },
                            {
                                "decimalAvailable": true,
                                "name": "value",
                                "type": "uint256",
                                "value": "12,137,369,505"
                            }
                        ],
                        "constructorArguments": "",
                        "name": "transfer",
                        "returnParams": [
                            {
                                "name": "",
                                "type": "bool",
                                "value": true
                            }
                        ],
                        "signature": "transfer(address,uint256)"
                    },
                    "errorInfo": "",
                    "fromAddress": "0x3ee18b2214aff97000d974cf647e7c347e8fa585",
                    "gasUsed": 20417,
                    "id": 19,
                    "methodDecoded": true,
                    "operation": "CALL",
                    "output": "0x0000000000000000000000000000000000000000000000000000000000000001",
                    "revert": false,
                    "revertMessage": "",
                    "selector": "0xa9059cbb",
                    "status": true,
                    "value": "0"
                },
                "nodeType": 0
            },
            "2": {
                "invocation": {
                    "address": "0x98f3c9e6e3face36baad05fe09d375ef1464288b",
                    "callData": "0x0000000000000000000000000000000000000000000000000000000000000020000000000000000000000000000000000000000000000000000000000000041801000000020d00053ec19f821f145ae891575a6e4bcc035013481d18529cd96b52b51269824f390548f1af347509d316027aa563f87d8cad49ca2ff6437fc1b5246a672d5870360001d378cc608109de73a97dc318792ceb0eaeddffead10f0dbf009100a45735e413762f6d97c0be4b85d7065f813a932bc5d2c338fa60e2a11dee270e6f2031ce2001021aed73f1e215cce3f0dceb42aeaf9511c0d08bff3c351dffb6ae2705ab9854281e8a1cb3f91ff6ee2b071a8e4c178fb283945cf153c6542ea22a804a2623247e01033eb6ef5eb0baee564641a30bdf9fbf2c2fd83a0d4b7d4422d3d25932b5e736a23c025d2cd45e7d92797e675edd7a28ee4d4c6b6e96d2061ba9394de7bea1ef600006abf6e8ecdc72c090e63a71dec0da1883ccc9ef31902de0227973d9401fb15de91df180745d931b330a7d878846aeeae1071f38d2785f45471204192aed4f02880008cc5ffd0c0afc20ae7c796c5fde053a481e22fd96e7190e6ffabe71cee0c5288537b0370d94801a65a958f557995557de4bc8006051e6191db400355f6e3866bb000a36cbbb2022cb7cceb3c5284bb0c5d998c9b4cd897b72fe21834f62549649280433bd98dc1f52766fa5243b0e333be521fc77f033ff0e204d3925c7a60a7c18c2000b7eeb878adf01d0935763048ffa769898ac75023e40b19418406010175a2d77ea5b1ea554db45fdf427292795e13dc30aa4436cbde40a9021d3e67e045ea1f67f000c3bcf3f8a4bb99b501138cb92254c1d1a6c66fad2d6345686c77214c5d1c90394355602adff1c6093efdb14a4d337d2f5c4bbf2f06924ec63073b7e078a9b1b2d000e189897c1bcb364bcb4c63480a0d1a3be9235512571433f7b4bd8d890372e1e9067587b016e623e5ad35e1e155b8fa75a6c4626d6563434a388e0a2c01eb9fe45010fec17e0145dca4e64d319299a1481690cf19760c74d74d7bd7de9d136fc49d1e77c7df54966423c07cfd164c710f7bd4816742021fea3ef8d99099f95d48aa86a01110593d476ffd08c34cfe6334f71d4ea2534c62402e7316daffa852cbc3ebfb11f4aefde70845e424eb66fc8a5ce1c938141cd2b0f46ef2b0fe7ed5b46b41f974801122228cdff7130c060d2d417433daf703842a4fc4cdcd3dce36b6a37e95a20759702cfb8f198e6f07f28b801e02e1b852c05b349bfe18e052093a19e861f14ad1c0163767004273c00000010000000000000000000000000b1731c586ca89a23809861c6103f0b96b3f57d920000000000000542010100000000000000000000000000000000000000000000000000000002d3718fa1000000000000000000000000a0b86991c6218b36c1d19d4a2e9eb0ce3606eb4800020000000000000000000000001bd658c933d592519d57fd728a1afb659f474d3b000200000000000000000000000000000000000000000000000000000000000000000000000000000000",
                    "decodedMethod": {
                        "callParams": [
                            {
                                "name": "encodedVM",
                                "type": "bytes",
                                "value": "0x01000000020d00053ec19f821f145ae891575a6e4bcc035013481d18529cd96b52b51269824f390548f1af347509d316027aa563f87d8cad49ca2ff6437fc1b5246a672d5870360001d378cc608109de73a97dc318792ceb0eaeddffead10f0dbf009100a45735e413762f6d97c0be4b85d7065f813a932bc5d2c338fa60e2a11dee270e6f2031ce2001021aed73f1e215cce3f0dceb42aeaf9511c0d08bff3c351dffb6ae2705ab9854281e8a1cb3f91ff6ee2b071a8e4c178fb283945cf153c6542ea22a804a2623247e01033eb6ef5eb0baee564641a30bdf9fbf2c2fd83a0d4b7d4422d3d25932b5e736a23c025d2cd45e7d92797e675edd7a28ee4d4c6b6e96d2061ba9394de7bea1ef600006abf6e8ecdc72c090e63a71dec0da1883ccc9ef31902de0227973d9401fb15de91df180745d931b330a7d878846aeeae1071f38d2785f45471204192aed4f02880008cc5ffd0c0afc20ae7c796c5fde053a481e22fd96e7190e6ffabe71cee0c5288537b0370d94801a65a958f557995557de4bc8006051e6191db400355f6e3866bb000a36cbbb2022cb7cceb3c5284bb0c5d998c9b4cd897b72fe21834f62549649280433bd98dc1f52766fa5243b0e333be521fc77f033ff0e204d3925c7a60a7c18c2000b7eeb878adf01d0935763048ffa769898ac75023e40b19418406010175a2d77ea5b1ea554db45fdf427292795e13dc30aa4436cbde40a9021d3e67e045ea1f67f000c3bcf3f8a4bb99b501138cb92254c1d1a6c66fad2d6345686c77214c5d1c90394355602adff1c6093efdb14a4d337d2f5c4bbf2f06924ec63073b7e078a9b1b2d000e189897c1bcb364bcb4c63480a0d1a3be9235512571433f7b4bd8d890372e1e9067587b016e623e5ad35e1e155b8fa75a6c4626d6563434a388e0a2c01eb9fe45010fec17e0145dca4e64d319299a1481690cf19760c74d74d7bd7de9d136fc49d1e77c7df54966423c07cfd164c710f7bd4816742021fea3ef8d99099f95d48aa86a01110593d476ffd08c34cfe6334f71d4ea2534c62402e7316daffa852cbc3ebfb11f4aefde70845e424eb66fc8a5ce1c938141cd2b0f46ef2b0fe7ed5b46b41f974801122228cdff7130c060d2d417433daf703842a4fc4cdcd3dce36b6a37e95a20759702cfb8f198e6f07f28b801e02e1b852c05b349bfe18e052093a19e861f14ad1c0163767004273c00000010000000000000000000000000b1731c586ca89a23809861c6103f0b96b3f57d920000000000000542010100000000000000000000000000000000000000000000000000000002d3718fa1000000000000000000000000a0b86991c6218b36c1d19d4a2e9eb0ce3606eb4800020000000000000000000000001bd658c933d592519d57fd728a1afb659f474d3b00020000000000000000000000000000000000000000000000000000000000000000"
                            }
                        ],
                        "constructorArguments": "",
                        "name": "parseAndVerifyVM",
                        "returnParams": [
                            {
                                "name": "vm",
                                "type": "(uint8,uint32,uint32,uint16,bytes32,uint64,uint8,bytes,uint32,(bytes32,bytes32,uint8,uint8)[],bytes32)",
                                "value": [
                                    {
                                        "name": "version",
                                        "type": "uint8",
                                        "value": "1"
                                    },
                                    {
                                        "name": "timestamp",
                                        "type": "uint32",
                                        "value": "1,668,706,308"
                                    },
                                    {
                                        "name": "nonce",
                                        "type": "uint32",
                                        "value": "658,243,584"
                                    },
                                    {
                                        "name": "emitterChainId",
                                        "type": "uint16",
                                        "value": "16"
                                    },
                                    {
                                        "name": "emitterAddress",
                                        "type": "bytes32",
                                        "value": "0x000000000000000000000000b1731c586ca89a23809861c6103f0b96b3f57d92"
                                    },
                                    {
                                        "name": "sequence",
                                        "type": "uint64",
                                        "value": "1,346"
                                    },
                                    {
                                        "name": "consistencyLevel",
                                        "type": "uint8",
                                        "value": "1"
                                    },
                                    {
                                        "name": "payload",
                                        "type": "bytes",
                                        "value": "0x0100000000000000000000000000000000000000000000000000000002d3718fa1000000000000000000000000a0b86991c6218b36c1d19d4a2e9eb0ce3606eb4800020000000000000000000000001bd658c933d592519d57fd728a1afb659f474d3b00020000000000000000000000000000000000000000000000000000000000000000"
                                    },
                                    {
                                        "name": "guardianSetIndex",
                                        "type": "uint32",
                                        "value": "2"
                                    },
                                    {
                                        "name": "signatures",
                                        "type": "(bytes32,bytes32,uint8,uint8)[]",
                                        "value": [
                                            [
                                                {
                                                    "name": "r",
                                                    "type": "bytes32",
                                                    "value": "0x053ec19f821f145ae891575a6e4bcc035013481d18529cd96b52b51269824f39"
                                                },
                                                {
                                                    "name": "s",
                                                    "type": "bytes32",
                                                    "value": "0x0548f1af347509d316027aa563f87d8cad49ca2ff6437fc1b5246a672d587036"
                                                },
                                                {
                                                    "name": "v",
                                                    "type": "uint8",
                                                    "value": "27"
                                                },
                                                {
                                                    "name": "guardianIndex",
                                                    "type": "uint8",
                                                    "value": "0"
                                                }
                                            ],
                                            [
                                                {
                                                    "name": "r",
                                                    "type": "bytes32",
                                                    "value": "0xd378cc608109de73a97dc318792ceb0eaeddffead10f0dbf009100a45735e413"
                                                },
                                                {
                                                    "name": "s",
                                                    "type": "bytes32",
                                                    "value": "0x762f6d97c0be4b85d7065f813a932bc5d2c338fa60e2a11dee270e6f2031ce20"
                                                },
                                                {
                                                    "name": "v",
                                                    "type": "uint8",
                                                    "value": "28"
                                                },
                                                {
                                                    "name": "guardianIndex",
                                                    "type": "uint8",
                                                    "value": "1"
                                                }
                                            ],
                                            [
                                                {
                                                    "name": "r",
                                                    "type": "bytes32",
                                                    "value": "0x1aed73f1e215cce3f0dceb42aeaf9511c0d08bff3c351dffb6ae2705ab985428"
                                                },
                                                {
                                                    "name": "s",
                                                    "type": "bytes32",
                                                    "value": "0x1e8a1cb3f91ff6ee2b071a8e4c178fb283945cf153c6542ea22a804a2623247e"
                                                },
                                                {
                                                    "name": "v",
                                                    "type": "uint8",
                                                    "value": "28"
                                                },
                                                {
                                                    "name": "guardianIndex",
                                                    "type": "uint8",
                                                    "value": "2"
                                                }
                                            ],
                                            [
                                                {
                                                    "name": "r",
                                                    "type": "bytes32",
                                                    "value": "0x3eb6ef5eb0baee564641a30bdf9fbf2c2fd83a0d4b7d4422d3d25932b5e736a2"
                                                },
                                                {
                                                    "name": "s",
                                                    "type": "bytes32",
                                                    "value": "0x3c025d2cd45e7d92797e675edd7a28ee4d4c6b6e96d2061ba9394de7bea1ef60"
                                                },
                                                {
                                                    "name": "v",
                                                    "type": "uint8",
                                                    "value": "27"
                                                },
                                                {
                                                    "name": "guardianIndex",
                                                    "type": "uint8",
                                                    "value": "3"
                                                }
                                            ],
                                            [
                                                {
                                                    "name": "r",
                                                    "type": "bytes32",
                                                    "value": "0xabf6e8ecdc72c090e63a71dec0da1883ccc9ef31902de0227973d9401fb15de9"
                                                },
                                                {
                                                    "name": "s",
                                                    "type": "bytes32",
                                                    "value": "0x1df180745d931b330a7d878846aeeae1071f38d2785f45471204192aed4f0288"
                                                },
                                                {
                                                    "name": "v",
                                                    "type": "uint8",
                                                    "value": "27"
                                                },
                                                {
                                                    "name": "guardianIndex",
                                                    "type": "uint8",
                                                    "value": "6"
                                                }
                                            ],
                                            [
                                                {
                                                    "name": "r",
                                                    "type": "bytes32",
                                                    "value": "0xcc5ffd0c0afc20ae7c796c5fde053a481e22fd96e7190e6ffabe71cee0c52885"
                                                },
                                                {
                                                    "name": "s",
                                                    "type": "bytes32",
                                                    "value": "0x37b0370d94801a65a958f557995557de4bc8006051e6191db400355f6e3866bb"
                                                },
                                                {
                                                    "name": "v",
                                                    "type": "uint8",
                                                    "value": "27"
                                                },
                                                {
                                                    "name": "guardianIndex",
                                                    "type": "uint8",
                                                    "value": "8"
                                                }
                                            ],
                                            [
                                                {
                                                    "name": "r",
                                                    "type": "bytes32",
                                                    "value": "0x36cbbb2022cb7cceb3c5284bb0c5d998c9b4cd897b72fe21834f625496492804"
                                                },
                                                {
                                                    "name": "s",
                                                    "type": "bytes32",
                                                    "value": "0x33bd98dc1f52766fa5243b0e333be521fc77f033ff0e204d3925c7a60a7c18c2"
                                                },
                                                {
                                                    "name": "v",
                                                    "type": "uint8",
                                                    "value": "27"
                                                },
                                                {
                                                    "name": "guardianIndex",
                                                    "type": "uint8",
                                                    "value": "10"
                                                }
                                            ],
                                            [
                                                {
                                                    "name": "r",
                                                    "type": "bytes32",
                                                    "value": "0x7eeb878adf01d0935763048ffa769898ac75023e40b19418406010175a2d77ea"
                                                },
                                                {
                                                    "name": "s",
                                                    "type": "bytes32",
                                                    "value": "0x5b1ea554db45fdf427292795e13dc30aa4436cbde40a9021d3e67e045ea1f67f"
                                                },
                                                {
                                                    "name": "v",
                                                    "type": "uint8",
                                                    "value": "27"
                                                },
                                                {
                                                    "name": "guardianIndex",
                                                    "type": "uint8",
                                                    "value": "11"
                                                }
                                            ],
                                            [
                                                {
                                                    "name": "r",
                                                    "type": "bytes32",
                                                    "value": "0x3bcf3f8a4bb99b501138cb92254c1d1a6c66fad2d6345686c77214c5d1c90394"
                                                },
                                                {
                                                    "name": "s",
                                                    "type": "bytes32",
                                                    "value": "0x355602adff1c6093efdb14a4d337d2f5c4bbf2f06924ec63073b7e078a9b1b2d"
                                                },
                                                {
                                                    "name": "v",
                                                    "type": "uint8",
                                                    "value": "27"
                                                },
                                                {
                                                    "name": "guardianIndex",
                                                    "type": "uint8",
                                                    "value": "12"
                                                }
                                            ],
                                            [
                                                {
                                                    "name": "r",
                                                    "type": "bytes32",
                                                    "value": "0x189897c1bcb364bcb4c63480a0d1a3be9235512571433f7b4bd8d890372e1e90"
                                                },
                                                {
                                                    "name": "s",
                                                    "type": "bytes32",
                                                    "value": "0x67587b016e623e5ad35e1e155b8fa75a6c4626d6563434a388e0a2c01eb9fe45"
                                                },
                                                {
                                                    "name": "v",
                                                    "type": "uint8",
                                                    "value": "28"
                                                },
                                                {
                                                    "name": "guardianIndex",
                                                    "type": "uint8",
                                                    "value": "14"
                                                }
                                            ],
                                            [
                                                {
                                                    "name": "r",
                                                    "type": "bytes32",
                                                    "value": "0xec17e0145dca4e64d319299a1481690cf19760c74d74d7bd7de9d136fc49d1e7"
                                                },
                                                {
                                                    "name": "s",
                                                    "type": "bytes32",
                                                    "value": "0x7c7df54966423c07cfd164c710f7bd4816742021fea3ef8d99099f95d48aa86a"
                                                },
                                                {
                                                    "name": "v",
                                                    "type": "uint8",
                                                    "value": "28"
                                                },
                                                {
                                                    "name": "guardianIndex",
                                                    "type": "uint8",
                                                    "value": "15"
                                                }
                                            ],
                                            [
                                                {
                                                    "name": "r",
                                                    "type": "bytes32",
                                                    "value": "0x0593d476ffd08c34cfe6334f71d4ea2534c62402e7316daffa852cbc3ebfb11f"
                                                },
                                                {
                                                    "name": "s",
                                                    "type": "bytes32",
                                                    "value": "0x4aefde70845e424eb66fc8a5ce1c938141cd2b0f46ef2b0fe7ed5b46b41f9748"
                                                },
                                                {
                                                    "name": "v",
                                                    "type": "uint8",
                                                    "value": "28"
                                                },
                                                {
                                                    "name": "guardianIndex",
                                                    "type": "uint8",
                                                    "value": "17"
                                                }
                                            ],
                                            [
                                                {
                                                    "name": "r",
                                                    "type": "bytes32",
                                                    "value": "0x2228cdff7130c060d2d417433daf703842a4fc4cdcd3dce36b6a37e95a207597"
                                                },
                                                {
                                                    "name": "s",
                                                    "type": "bytes32",
                                                    "value": "0x02cfb8f198e6f07f28b801e02e1b852c05b349bfe18e052093a19e861f14ad1c"
                                                },
                                                {
                                                    "name": "v",
                                                    "type": "uint8",
                                                    "value": "28"
                                                },
                                                {
                                                    "name": "guardianIndex",
                                                    "type": "uint8",
                                                    "value": "18"
                                                }
                                            ]
                                        ]
                                    },
                                    {
                                        "name": "hash",
                                        "type": "bytes32",
                                        "value": "0x3aff99817ee70f4543e8b774f635e038085d551821e70156cbfbdc254cdcecd7"
                                    }
                                ]
                            },
                            {
                                "name": "valid",
                                "type": "bool",
                                "value": true
                            },
                            {
                                "name": "reason",
                                "type": "string",
                                "value": ""
                            }
                        ],
                        "signature": "parseAndVerifyVM(bytes)"
                    },
                    "errorInfo": "",
                    "fromAddress": "0x3ee18b2214aff97000d974cf647e7c347e8fa585",
                    "gasUsed": 134689,
                    "id": 2,
                    "methodDecoded": true,
                    "operation": "STATICCALL",
                    "output": "0x0000000000000000000000000000000000000000000000000000000000000060000000000000000000000000000000000000000000000000000000000000000100000000000000000000000000000000000000000000000000000000000009200000000000000000000000000000000000000000000000000000000000000001000000000000000000000000000000000000000000000000000000006376700400000000000000000000000000000000000000000000000000000000273c00000000000000000000000000000000000000000000000000000000000000000010000000000000000000000000b1731c586ca89a23809861c6103f0b96b3f57d92000000000000000000000000000000000000000000000000000000000000054200000000000000000000000000000000000000000000000000000000000000010000000000000000000000000000000000000000000000000000000000000160000000000000000000000000000000000000000000000000000000000000000200000000000000000000000000000000000000000000000000000000000002203aff99817ee70f4543e8b774f635e038085d551821e70156cbfbdc254cdcecd700000000000000000000000000000000000000000000000000000000000000850100000000000000000000000000000000000000000000000000000002d3718fa1000000000000000000000000a0b86991c6218b36c1d19d4a2e9eb0ce3606eb4800020000000000000000000000001bd658c933d592519d57fd728a1afb659f474d3b00020000000000000000000000000000000000000000000000000000000000000000000000000000000000000000000000000000000000000000000000000000000000000000000000000000000000000000000000000000000000000d053ec19f821f145ae891575a6e4bcc035013481d18529cd96b52b51269824f390548f1af347509d316027aa563f87d8cad49ca2ff6437fc1b5246a672d587036000000000000000000000000000000000000000000000000000000000000001b0000000000000000000000000000000000000000000000000000000000000000d378cc608109de73a97dc318792ceb0eaeddffead10f0dbf009100a45735e413762f6d97c0be4b85d7065f813a932bc5d2c338fa60e2a11dee270e6f2031ce20000000000000000000000000000000000000000000000000000000000000001c00000000000000000000000000000000000000000000000000000000000000011aed73f1e215cce3f0dceb42aeaf9511c0d08bff3c351dffb6ae2705ab9854281e8a1cb3f91ff6ee2b071a8e4c178fb283945cf153c6542ea22a804a2623247e000000000000000000000000000000000000000000000000000000000000001c00000000000000000000000000000000000000000000000000000000000000023eb6ef5eb0baee564641a30bdf9fbf2c2fd83a0d4b7d4422d3d25932b5e736a23c025d2cd45e7d92797e675edd7a28ee4d4c6b6e96d2061ba9394de7bea1ef60000000000000000000000000000000000000000000000000000000000000001b0000000000000000000000000000000000000000000000000000000000000003abf6e8ecdc72c090e63a71dec0da1883ccc9ef31902de0227973d9401fb15de91df180745d931b330a7d878846aeeae1071f38d2785f45471204192aed4f0288000000000000000000000000000000000000000000000000000000000000001b0000000000000000000000000000000000000000000000000000000000000006cc5ffd0c0afc20ae7c796c5fde053a481e22fd96e7190e6ffabe71cee0c5288537b0370d94801a65a958f557995557de4bc8006051e6191db400355f6e3866bb000000000000000000000000000000000000000000000000000000000000001b000000000000000000000000000000000000000000000000000000000000000836cbbb2022cb7cceb3c5284bb0c5d998c9b4cd897b72fe21834f62549649280433bd98dc1f52766fa5243b0e333be521fc77f033ff0e204d3925c7a60a7c18c2000000000000000000000000000000000000000000000000000000000000001b000000000000000000000000000000000000000000000000000000000000000a7eeb878adf01d0935763048ffa769898ac75023e40b19418406010175a2d77ea5b1ea554db45fdf427292795e13dc30aa4436cbde40a9021d3e67e045ea1f67f000000000000000000000000000000000000000000000000000000000000001b000000000000000000000000000000000000000000000000000000000000000b3bcf3f8a4bb99b501138cb92254c1d1a6c66fad2d6345686c77214c5d1c90394355602adff1c6093efdb14a4d337d2f5c4bbf2f06924ec63073b7e078a9b1b2d000000000000000000000000000000000000000000000000000000000000001b000000000000000000000000000000000000000000000000000000000000000c189897c1bcb364bcb4c63480a0d1a3be9235512571433f7b4bd8d890372e1e9067587b016e623e5ad35e1e155b8fa75a6c4626d6563434a388e0a2c01eb9fe45000000000000000000000000000000000000000000000000000000000000001c000000000000000000000000000000000000000000000000000000000000000eec17e0145dca4e64d319299a1481690cf19760c74d74d7bd7de9d136fc49d1e77c7df54966423c07cfd164c710f7bd4816742021fea3ef8d99099f95d48aa86a000000000000000000000000000000000000000000000000000000000000001c000000000000000000000000000000000000000000000000000000000000000f0593d476ffd08c34cfe6334f71d4ea2534c62402e7316daffa852cbc3ebfb11f4aefde70845e424eb66fc8a5ce1c938141cd2b0f46ef2b0fe7ed5b46b41f9748000000000000000000000000000000000000000000000000000000000000001c00000000000000000000000000000000000000000000000000000000000000112228cdff7130c060d2d417433daf703842a4fc4cdcd3dce36b6a37e95a20759702cfb8f198e6f07f28b801e02e1b852c05b349bfe18e052093a19e861f14ad1c000000000000000000000000000000000000000000000000000000000000001c00000000000000000000000000000000000000000000000000000000000000120000000000000000000000000000000000000000000000000000000000000000",
                    "revert": false,
                    "revertMessage": "",
                    "selector": "0xc0fd8bde",
                    "status": true,
                    "value": "0"
                },
                "nodeType": 0
            },
            "20": {
                "invocation": {
                    "address": "0xa2327a938febf5fec13bacfb16ae10ecbc4cbdcf",
                    "callData": "0x0000000000000000000000001bd658c933d592519d57fd728a1afb659f474d3b00000000000000000000000000000000000000000000000000000002d3718fa1",
                    "decodedMethod": {
                        "callParams": [
                            {
                                "name": "to",
                                "type": "address",
                                "value": "0x1bd658c933d592519d57fd728a1afb659f474d3b"
                            },
                            {
                                "decimalAvailable": true,
                                "name": "value",
                                "type": "uint256",
                                "value": "12,137,369,505"
                            }
                        ],
                        "constructorArguments": "",
                        "name": "transfer",
                        "returnParams": [
                            {
                                "name": "",
                                "type": "bool",
                                "value": true
                            }
                        ],
                        "signature": "transfer(address,uint256)"
                    },
                    "errorInfo": "",
                    "fromAddress": "0xa0b86991c6218b36c1d19d4a2e9eb0ce3606eb48",
                    "gasUsed": 19628,
                    "id": 20,
                    "methodDecoded": true,
                    "operation": "DELEGATECALL",
                    "output": "0x0000000000000000000000000000000000000000000000000000000000000001",
                    "revert": false,
                    "revertMessage": "",
                    "selector": "0xa9059cbb",
                    "status": true,
                    "value": "0"
                },
                "nodeType": 0
            },
            "21": {
                "event": {
                    "contract": "0xa0b86991c6218b36c1d19d4a2e9eb0ce3606eb48",
                    "decodedLog": {
                        "name": "Transfer",
                        "params": [
                            {
                                "name": "from",
                                "type": "address",
                                "value": "0x3ee18b2214aff97000d974cf647e7c347e8fa585"
                            },
                            {
                                "name": "to",
                                "type": "address",
                                "value": "0x1bd658c933d592519d57fd728a1afb659f474d3b"
                            },
                            {
                                "decimalAvailable": true,
                                "name": "value",
                                "type": "uint256",
                                "value": "12,137,369,505"
                            }
                        ],
                        "signature": "Transfer(address,address,uint256)"
                    },
                    "id": 21,
                    "logData": "0x00000000000000000000000000000000000000000000000000000002d3718fa1",
                    "logDecoded": true,
                    "operation": "EVENT",
                    "revert": false,
                    "status": true,
                    "topics": [
                        "0xddf252ad1be2c89b69c2b068fc378daa952ba7f163c4a11628f55a4df523b3ef",
                        "0x0000000000000000000000003ee18b2214aff97000d974cf647e7c347e8fa585",
                        "0x0000000000000000000000001bd658c933d592519d57fd728a1afb659f474d3b"
                    ]
                },
                "nodeType": 1
            },
            "3": {
                "invocation": {
                    "address": "0x3c3d457f1522d3540ab3325aa5f1864e34cba9d0",
                    "callData": "0x0000000000000000000000000000000000000000000000000000000000000020000000000000000000000000000000000000000000000000000000000000041801000000020d00053ec19f821f145ae891575a6e4bcc035013481d18529cd96b52b51269824f390548f1af347509d316027aa563f87d8cad49ca2ff6437fc1b5246a672d5870360001d378cc608109de73a97dc318792ceb0eaeddffead10f0dbf009100a45735e413762f6d97c0be4b85d7065f813a932bc5d2c338fa60e2a11dee270e6f2031ce2001021aed73f1e215cce3f0dceb42aeaf9511c0d08bff3c351dffb6ae2705ab9854281e8a1cb3f91ff6ee2b071a8e4c178fb283945cf153c6542ea22a804a2623247e01033eb6ef5eb0baee564641a30bdf9fbf2c2fd83a0d4b7d4422d3d25932b5e736a23c025d2cd45e7d92797e675edd7a28ee4d4c6b6e96d2061ba9394de7bea1ef600006abf6e8ecdc72c090e63a71dec0da1883ccc9ef31902de0227973d9401fb15de91df180745d931b330a7d878846aeeae1071f38d2785f45471204192aed4f02880008cc5ffd0c0afc20ae7c796c5fde053a481e22fd96e7190e6ffabe71cee0c5288537b0370d94801a65a958f557995557de4bc8006051e6191db400355f6e3866bb000a36cbbb2022cb7cceb3c5284bb0c5d998c9b4cd897b72fe21834f62549649280433bd98dc1f52766fa5243b0e333be521fc77f033ff0e204d3925c7a60a7c18c2000b7eeb878adf01d0935763048ffa769898ac75023e40b19418406010175a2d77ea5b1ea554db45fdf427292795e13dc30aa4436cbde40a9021d3e67e045ea1f67f000c3bcf3f8a4bb99b501138cb92254c1d1a6c66fad2d6345686c77214c5d1c90394355602adff1c6093efdb14a4d337d2f5c4bbf2f06924ec63073b7e078a9b1b2d000e189897c1bcb364bcb4c63480a0d1a3be9235512571433f7b4bd8d890372e1e9067587b016e623e5ad35e1e155b8fa75a6c4626d6563434a388e0a2c01eb9fe45010fec17e0145dca4e64d319299a1481690cf19760c74d74d7bd7de9d136fc49d1e77c7df54966423c07cfd164c710f7bd4816742021fea3ef8d99099f95d48aa86a01110593d476ffd08c34cfe6334f71d4ea2534c62402e7316daffa852cbc3ebfb11f4aefde70845e424eb66fc8a5ce1c938141cd2b0f46ef2b0fe7ed5b46b41f974801122228cdff7130c060d2d417433daf703842a4fc4cdcd3dce36b6a37e95a20759702cfb8f198e6f07f28b801e02e1b852c05b349bfe18e052093a19e861f14ad1c0163767004273c00000010000000000000000000000000b1731c586ca89a23809861c6103f0b96b3f57d920000000000000542010100000000000000000000000000000000000000000000000000000002d3718fa1000000000000000000000000a0b86991c6218b36c1d19d4a2e9eb0ce3606eb4800020000000000000000000000001bd658c933d592519d57fd728a1afb659f474d3b000200000000000000000000000000000000000000000000000000000000000000000000000000000000",
                    "decodedMethod": {
                        "callParams": [
                            {
                                "name": "encodedVM",
                                "type": "bytes",
                                "value": "0x01000000020d00053ec19f821f145ae891575a6e4bcc035013481d18529cd96b52b51269824f390548f1af347509d316027aa563f87d8cad49ca2ff6437fc1b5246a672d5870360001d378cc608109de73a97dc318792ceb0eaeddffead10f0dbf009100a45735e413762f6d97c0be4b85d7065f813a932bc5d2c338fa60e2a11dee270e6f2031ce2001021aed73f1e215cce3f0dceb42aeaf9511c0d08bff3c351dffb6ae2705ab9854281e8a1cb3f91ff6ee2b071a8e4c178fb283945cf153c6542ea22a804a2623247e01033eb6ef5eb0baee564641a30bdf9fbf2c2fd83a0d4b7d4422d3d25932b5e736a23c025d2cd45e7d92797e675edd7a28ee4d4c6b6e96d2061ba9394de7bea1ef600006abf6e8ecdc72c090e63a71dec0da1883ccc9ef31902de0227973d9401fb15de91df180745d931b330a7d878846aeeae1071f38d2785f45471204192aed4f02880008cc5ffd0c0afc20ae7c796c5fde053a481e22fd96e7190e6ffabe71cee0c5288537b0370d94801a65a958f557995557de4bc8006051e6191db400355f6e3866bb000a36cbbb2022cb7cceb3c5284bb0c5d998c9b4cd897b72fe21834f62549649280433bd98dc1f52766fa5243b0e333be521fc77f033ff0e204d3925c7a60a7c18c2000b7eeb878adf01d0935763048ffa769898ac75023e40b19418406010175a2d77ea5b1ea554db45fdf427292795e13dc30aa4436cbde40a9021d3e67e045ea1f67f000c3bcf3f8a4bb99b501138cb92254c1d1a6c66fad2d6345686c77214c5d1c90394355602adff1c6093efdb14a4d337d2f5c4bbf2f06924ec63073b7e078a9b1b2d000e189897c1bcb364bcb4c63480a0d1a3be9235512571433f7b4bd8d890372e1e9067587b016e623e5ad35e1e155b8fa75a6c4626d6563434a388e0a2c01eb9fe45010fec17e0145dca4e64d319299a1481690cf19760c74d74d7bd7de9d136fc49d1e77c7df54966423c07cfd164c710f7bd4816742021fea3ef8d99099f95d48aa86a01110593d476ffd08c34cfe6334f71d4ea2534c62402e7316daffa852cbc3ebfb11f4aefde70845e424eb66fc8a5ce1c938141cd2b0f46ef2b0fe7ed5b46b41f974801122228cdff7130c060d2d417433daf703842a4fc4cdcd3dce36b6a37e95a20759702cfb8f198e6f07f28b801e02e1b852c05b349bfe18e052093a19e861f14ad1c0163767004273c00000010000000000000000000000000b1731c586ca89a23809861c6103f0b96b3f57d920000000000000542010100000000000000000000000000000000000000000000000000000002d3718fa1000000000000000000000000a0b86991c6218b36c1d19d4a2e9eb0ce3606eb4800020000000000000000000000001bd658c933d592519d57fd728a1afb659f474d3b00020000000000000000000000000000000000000000000000000000000000000000"
                            }
                        ],
                        "constructorArguments": "",
                        "name": "parseAndVerifyVM",
                        "returnParams": [
                            {
                                "name": "vm",
                                "type": "(uint8,uint32,uint32,uint16,bytes32,uint64,uint8,bytes,uint32,(bytes32,bytes32,uint8,uint8)[],bytes32)",
                                "value": [
                                    {
                                        "name": "version",
                                        "type": "uint8",
                                        "value": "1"
                                    },
                                    {
                                        "name": "timestamp",
                                        "type": "uint32",
                                        "value": "1,668,706,308"
                                    },
                                    {
                                        "name": "nonce",
                                        "type": "uint32",
                                        "value": "658,243,584"
                                    },
                                    {
                                        "name": "emitterChainId",
                                        "type": "uint16",
                                        "value": "16"
                                    },
                                    {
                                        "name": "emitterAddress",
                                        "type": "bytes32",
                                        "value": "0x000000000000000000000000b1731c586ca89a23809861c6103f0b96b3f57d92"
                                    },
                                    {
                                        "name": "sequence",
                                        "type": "uint64",
                                        "value": "1,346"
                                    },
                                    {
                                        "name": "consistencyLevel",
                                        "type": "uint8",
                                        "value": "1"
                                    },
                                    {
                                        "name": "payload",
                                        "type": "bytes",
                                        "value": "0x0100000000000000000000000000000000000000000000000000000002d3718fa1000000000000000000000000a0b86991c6218b36c1d19d4a2e9eb0ce3606eb4800020000000000000000000000001bd658c933d592519d57fd728a1afb659f474d3b00020000000000000000000000000000000000000000000000000000000000000000"
                                    },
                                    {
                                        "name": "guardianSetIndex",
                                        "type": "uint32",
                                        "value": "2"
                                    },
                                    {
                                        "name": "signatures",
                                        "type": "(bytes32,bytes32,uint8,uint8)[]",
                                        "value": [
                                            [
                                                {
                                                    "name": "r",
                                                    "type": "bytes32",
                                                    "value": "0x053ec19f821f145ae891575a6e4bcc035013481d18529cd96b52b51269824f39"
                                                },
                                                {
                                                    "name": "s",
                                                    "type": "bytes32",
                                                    "value": "0x0548f1af347509d316027aa563f87d8cad49ca2ff6437fc1b5246a672d587036"
                                                },
                                                {
                                                    "name": "v",
                                                    "type": "uint8",
                                                    "value": "27"
                                                },
                                                {
                                                    "name": "guardianIndex",
                                                    "type": "uint8",
                                                    "value": "0"
                                                }
                                            ],
                                            [
                                                {
                                                    "name": "r",
                                                    "type": "bytes32",
                                                    "value": "0xd378cc608109de73a97dc318792ceb0eaeddffead10f0dbf009100a45735e413"
                                                },
                                                {
                                                    "name": "s",
                                                    "type": "bytes32",
                                                    "value": "0x762f6d97c0be4b85d7065f813a932bc5d2c338fa60e2a11dee270e6f2031ce20"
                                                },
                                                {
                                                    "name": "v",
                                                    "type": "uint8",
                                                    "value": "28"
                                                },
                                                {
                                                    "name": "guardianIndex",
                                                    "type": "uint8",
                                                    "value": "1"
                                                }
                                            ],
                                            [
                                                {
                                                    "name": "r",
                                                    "type": "bytes32",
                                                    "value": "0x1aed73f1e215cce3f0dceb42aeaf9511c0d08bff3c351dffb6ae2705ab985428"
                                                },
                                                {
                                                    "name": "s",
                                                    "type": "bytes32",
                                                    "value": "0x1e8a1cb3f91ff6ee2b071a8e4c178fb283945cf153c6542ea22a804a2623247e"
                                                },
                                                {
                                                    "name": "v",
                                                    "type": "uint8",
                                                    "value": "28"
                                                },
                                                {
                                                    "name": "guardianIndex",
                                                    "type": "uint8",
                                                    "value": "2"
                                                }
                                            ],
                                            [
                                                {
                                                    "name": "r",
                                                    "type": "bytes32",
                                                    "value": "0x3eb6ef5eb0baee564641a30bdf9fbf2c2fd83a0d4b7d4422d3d25932b5e736a2"
                                                },
                                                {
                                                    "name": "s",
                                                    "type": "bytes32",
                                                    "value": "0x3c025d2cd45e7d92797e675edd7a28ee4d4c6b6e96d2061ba9394de7bea1ef60"
                                                },
                                                {
                                                    "name": "v",
                                                    "type": "uint8",
                                                    "value": "27"
                                                },
                                                {
                                                    "name": "guardianIndex",
                                                    "type": "uint8",
                                                    "value": "3"
                                                }
                                            ],
                                            [
                                                {
                                                    "name": "r",
                                                    "type": "bytes32",
                                                    "value": "0xabf6e8ecdc72c090e63a71dec0da1883ccc9ef31902de0227973d9401fb15de9"
                                                },
                                                {
                                                    "name": "s",
                                                    "type": "bytes32",
                                                    "value": "0x1df180745d931b330a7d878846aeeae1071f38d2785f45471204192aed4f0288"
                                                },
                                                {
                                                    "name": "v",
                                                    "type": "uint8",
                                                    "value": "27"
                                                },
                                                {
                                                    "name": "guardianIndex",
                                                    "type": "uint8",
                                                    "value": "6"
                                                }
                                            ],
                                            [
                                                {
                                                    "name": "r",
                                                    "type": "bytes32",
                                                    "value": "0xcc5ffd0c0afc20ae7c796c5fde053a481e22fd96e7190e6ffabe71cee0c52885"
                                                },
                                                {
                                                    "name": "s",
                                                    "type": "bytes32",
                                                    "value": "0x37b0370d94801a65a958f557995557de4bc8006051e6191db400355f6e3866bb"
                                                },
                                                {
                                                    "name": "v",
                                                    "type": "uint8",
                                                    "value": "27"
                                                },
                                                {
                                                    "name": "guardianIndex",
                                                    "type": "uint8",
                                                    "value": "8"
                                                }
                                            ],
                                            [
                                                {
                                                    "name": "r",
                                                    "type": "bytes32",
                                                    "value": "0x36cbbb2022cb7cceb3c5284bb0c5d998c9b4cd897b72fe21834f625496492804"
                                                },
                                                {
                                                    "name": "s",
                                                    "type": "bytes32",
                                                    "value": "0x33bd98dc1f52766fa5243b0e333be521fc77f033ff0e204d3925c7a60a7c18c2"
                                                },
                                                {
                                                    "name": "v",
                                                    "type": "uint8",
                                                    "value": "27"
                                                },
                                                {
                                                    "name": "guardianIndex",
                                                    "type": "uint8",
                                                    "value": "10"
                                                }
                                            ],
                                            [
                                                {
                                                    "name": "r",
                                                    "type": "bytes32",
                                                    "value": "0x7eeb878adf01d0935763048ffa769898ac75023e40b19418406010175a2d77ea"
                                                },
                                                {
                                                    "name": "s",
                                                    "type": "bytes32",
                                                    "value": "0x5b1ea554db45fdf427292795e13dc30aa4436cbde40a9021d3e67e045ea1f67f"
                                                },
                                                {
                                                    "name": "v",
                                                    "type": "uint8",
                                                    "value": "27"
                                                },
                                                {
                                                    "name": "guardianIndex",
                                                    "type": "uint8",
                                                    "value": "11"
                                                }
                                            ],
                                            [
                                                {
                                                    "name": "r",
                                                    "type": "bytes32",
                                                    "value": "0x3bcf3f8a4bb99b501138cb92254c1d1a6c66fad2d6345686c77214c5d1c90394"
                                                },
                                                {
                                                    "name": "s",
                                                    "type": "bytes32",
                                                    "value": "0x355602adff1c6093efdb14a4d337d2f5c4bbf2f06924ec63073b7e078a9b1b2d"
                                                },
                                                {
                                                    "name": "v",
                                                    "type": "uint8",
                                                    "value": "27"
                                                },
                                                {
                                                    "name": "guardianIndex",
                                                    "type": "uint8",
                                                    "value": "12"
                                                }
                                            ],
                                            [
                                                {
                                                    "name": "r",
                                                    "type": "bytes32",
                                                    "value": "0x189897c1bcb364bcb4c63480a0d1a3be9235512571433f7b4bd8d890372e1e90"
                                                },
                                                {
                                                    "name": "s",
                                                    "type": "bytes32",
                                                    "value": "0x67587b016e623e5ad35e1e155b8fa75a6c4626d6563434a388e0a2c01eb9fe45"
                                                },
                                                {
                                                    "name": "v",
                                                    "type": "uint8",
                                                    "value": "28"
                                                },
                                                {
                                                    "name": "guardianIndex",
                                                    "type": "uint8",
                                                    "value": "14"
                                                }
                                            ],
                                            [
                                                {
                                                    "name": "r",
                                                    "type": "bytes32",
                                                    "value": "0xec17e0145dca4e64d319299a1481690cf19760c74d74d7bd7de9d136fc49d1e7"
                                                },
                                                {
                                                    "name": "s",
                                                    "type": "bytes32",
                                                    "value": "0x7c7df54966423c07cfd164c710f7bd4816742021fea3ef8d99099f95d48aa86a"
                                                },
                                                {
                                                    "name": "v",
                                                    "type": "uint8",
                                                    "value": "28"
                                                },
                                                {
                                                    "name": "guardianIndex",
                                                    "type": "uint8",
                                                    "value": "15"
                                                }
                                            ],
                                            [
                                                {
                                                    "name": "r",
                                                    "type": "bytes32",
                                                    "value": "0x0593d476ffd08c34cfe6334f71d4ea2534c62402e7316daffa852cbc3ebfb11f"
                                                },
                                                {
                                                    "name": "s",
                                                    "type": "bytes32",
                                                    "value": "0x4aefde70845e424eb66fc8a5ce1c938141cd2b0f46ef2b0fe7ed5b46b41f9748"
                                                },
                                                {
                                                    "name": "v",
                                                    "type": "uint8",
                                                    "value": "28"
                                                },
                                                {
                                                    "name": "guardianIndex",
                                                    "type": "uint8",
                                                    "value": "17"
                                                }
                                            ],
                                            [
                                                {
                                                    "name": "r",
                                                    "type": "bytes32",
                                                    "value": "0x2228cdff7130c060d2d417433daf703842a4fc4cdcd3dce36b6a37e95a207597"
                                                },
                                                {
                                                    "name": "s",
                                                    "type": "bytes32",
                                                    "value": "0x02cfb8f198e6f07f28b801e02e1b852c05b349bfe18e052093a19e861f14ad1c"
                                                },
                                                {
                                                    "name": "v",
                                                    "type": "uint8",
                                                    "value": "28"
                                                },
                                                {
                                                    "name": "guardianIndex",
                                                    "type": "uint8",
                                                    "value": "18"
                                                }
                                            ]
                                        ]
                                    },
                                    {
                                        "name": "hash",
                                        "type": "bytes32",
                                        "value": "0x3aff99817ee70f4543e8b774f635e038085d551821e70156cbfbdc254cdcecd7"
                                    }
                                ]
                            },
                            {
                                "name": "valid",
                                "type": "bool",
                                "value": true
                            },
                            {
                                "name": "reason",
                                "type": "string",
                                "value": ""
                            }
                        ],
                        "signature": "parseAndVerifyVM(bytes)"
                    },
                    "errorInfo": "",
                    "fromAddress": "0x98f3c9e6e3face36baad05fe09d375ef1464288b",
                    "gasUsed": 129247,
                    "id": 3,
                    "methodDecoded": true,
                    "operation": "DELEGATECALL",
                    "output": "0x0000000000000000000000000000000000000000000000000000000000000060000000000000000000000000000000000000000000000000000000000000000100000000000000000000000000000000000000000000000000000000000009200000000000000000000000000000000000000000000000000000000000000001000000000000000000000000000000000000000000000000000000006376700400000000000000000000000000000000000000000000000000000000273c00000000000000000000000000000000000000000000000000000000000000000010000000000000000000000000b1731c586ca89a23809861c6103f0b96b3f57d92000000000000000000000000000000000000000000000000000000000000054200000000000000000000000000000000000000000000000000000000000000010000000000000000000000000000000000000000000000000000000000000160000000000000000000000000000000000000000000000000000000000000000200000000000000000000000000000000000000000000000000000000000002203aff99817ee70f4543e8b774f635e038085d551821e70156cbfbdc254cdcecd700000000000000000000000000000000000000000000000000000000000000850100000000000000000000000000000000000000000000000000000002d3718fa1000000000000000000000000a0b86991c6218b36c1d19d4a2e9eb0ce3606eb4800020000000000000000000000001bd658c933d592519d57fd728a1afb659f474d3b00020000000000000000000000000000000000000000000000000000000000000000000000000000000000000000000000000000000000000000000000000000000000000000000000000000000000000000000000000000000000000d053ec19f821f145ae891575a6e4bcc035013481d18529cd96b52b51269824f390548f1af347509d316027aa563f87d8cad49ca2ff6437fc1b5246a672d587036000000000000000000000000000000000000000000000000000000000000001b0000000000000000000000000000000000000000000000000000000000000000d378cc608109de73a97dc318792ceb0eaeddffead10f0dbf009100a45735e413762f6d97c0be4b85d7065f813a932bc5d2c338fa60e2a11dee270e6f2031ce20000000000000000000000000000000000000000000000000000000000000001c00000000000000000000000000000000000000000000000000000000000000011aed73f1e215cce3f0dceb42aeaf9511c0d08bff3c351dffb6ae2705ab9854281e8a1cb3f91ff6ee2b071a8e4c178fb283945cf153c6542ea22a804a2623247e000000000000000000000000000000000000000000000000000000000000001c00000000000000000000000000000000000000000000000000000000000000023eb6ef5eb0baee564641a30bdf9fbf2c2fd83a0d4b7d4422d3d25932b5e736a23c025d2cd45e7d92797e675edd7a28ee4d4c6b6e96d2061ba9394de7bea1ef60000000000000000000000000000000000000000000000000000000000000001b0000000000000000000000000000000000000000000000000000000000000003abf6e8ecdc72c090e63a71dec0da1883ccc9ef31902de0227973d9401fb15de91df180745d931b330a7d878846aeeae1071f38d2785f45471204192aed4f0288000000000000000000000000000000000000000000000000000000000000001b0000000000000000000000000000000000000000000000000000000000000006cc5ffd0c0afc20ae7c796c5fde053a481e22fd96e7190e6ffabe71cee0c5288537b0370d94801a65a958f557995557de4bc8006051e6191db400355f6e3866bb000000000000000000000000000000000000000000000000000000000000001b000000000000000000000000000000000000000000000000000000000000000836cbbb2022cb7cceb3c5284bb0c5d998c9b4cd897b72fe21834f62549649280433bd98dc1f52766fa5243b0e333be521fc77f033ff0e204d3925c7a60a7c18c2000000000000000000000000000000000000000000000000000000000000001b000000000000000000000000000000000000000000000000000000000000000a7eeb878adf01d0935763048ffa769898ac75023e40b19418406010175a2d77ea5b1ea554db45fdf427292795e13dc30aa4436cbde40a9021d3e67e045ea1f67f000000000000000000000000000000000000000000000000000000000000001b000000000000000000000000000000000000000000000000000000000000000b3bcf3f8a4bb99b501138cb92254c1d1a6c66fad2d6345686c77214c5d1c90394355602adff1c6093efdb14a4d337d2f5c4bbf2f06924ec63073b7e078a9b1b2d000000000000000000000000000000000000000000000000000000000000001b000000000000000000000000000000000000000000000000000000000000000c189897c1bcb364bcb4c63480a0d1a3be9235512571433f7b4bd8d890372e1e9067587b016e623e5ad35e1e155b8fa75a6c4626d6563434a388e0a2c01eb9fe45000000000000000000000000000000000000000000000000000000000000001c000000000000000000000000000000000000000000000000000000000000000eec17e0145dca4e64d319299a1481690cf19760c74d74d7bd7de9d136fc49d1e77c7df54966423c07cfd164c710f7bd4816742021fea3ef8d99099f95d48aa86a000000000000000000000000000000000000000000000000000000000000001c000000000000000000000000000000000000000000000000000000000000000f0593d476ffd08c34cfe6334f71d4ea2534c62402e7316daffa852cbc3ebfb11f4aefde70845e424eb66fc8a5ce1c938141cd2b0f46ef2b0fe7ed5b46b41f9748000000000000000000000000000000000000000000000000000000000000001c00000000000000000000000000000000000000000000000000000000000000112228cdff7130c060d2d417433daf703842a4fc4cdcd3dce36b6a37e95a20759702cfb8f198e6f07f28b801e02e1b852c05b349bfe18e052093a19e861f14ad1c000000000000000000000000000000000000000000000000000000000000001c00000000000000000000000000000000000000000000000000000000000000120000000000000000000000000000000000000000000000000000000000000000",
                    "revert": false,
                    "revertMessage": "",
                    "selector": "0xc0fd8bde",
                    "status": true,
                    "value": "0"
                },
                "nodeType": 0
            },
            "4": {
                "invocation": {
                    "address": "0x0000000000000000000000000000000000000001",
                    "callData": "0x7ee70f4543e8b774f635e038085d551821e70156cbfbdc254cdcecd7000000000000000000000000000000000000000000000000000000000000001b053ec19f821f145ae891575a6e4bcc035013481d18529cd96b52b51269824f390548f1af347509d316027aa563f87d8cad49ca2ff6437fc1b5246a672d587036",
                    "decodedMethod": {
                        "callParams": [
                            {
                                "name": "hash",
                                "type": "bytes32",
                                "value": "0x3aff99817ee70f4543e8b774f635e038085d551821e70156cbfbdc254cdcecd7"
                            },
                            {
                                "name": "v",
                                "type": "uint256",
                                "value": "27"
                            },
                            {
                                "name": "r",
                                "type": "bytes32",
                                "value": "0x053ec19f821f145ae891575a6e4bcc035013481d18529cd96b52b51269824f39"
                            },
                            {
                                "name": "s",
                                "type": "bytes32",
                                "value": "0x0548f1af347509d316027aa563f87d8cad49ca2ff6437fc1b5246a672d587036"
                            }
                        ],
                        "constructorArguments": "",
                        "name": "ecrecover",
                        "returnParams": [
                            {
                                "name": "",
                                "type": "address",
                                "value": "0x58cc3ae5c097b213ce3c81979e1b9f9570746aa5"
                            }
                        ],
                        "signature": "ecrecover(bytes32,uint256,bytes32,bytes32)"
                    },
                    "errorInfo": "",
                    "fromAddress": "0x98f3c9e6e3face36baad05fe09d375ef1464288b",
                    "gasUsed": 3000,
                    "id": 4,
                    "methodDecoded": true,
                    "operation": "STATICCALL",
                    "output": "0x00000000000000000000000058cc3ae5c097b213ce3c81979e1b9f9570746aa5",
                    "revert": false,
                    "revertMessage": "",
                    "selector": "0x3aff9981",
                    "status": true,
                    "value": "0"
                },
                "nodeType": 0
            },
            "5": {
                "invocation": {
                    "address": "0x0000000000000000000000000000000000000001",
                    "callData": "0x7ee70f4543e8b774f635e038085d551821e70156cbfbdc254cdcecd7000000000000000000000000000000000000000000000000000000000000001cd378cc608109de73a97dc318792ceb0eaeddffead10f0dbf009100a45735e413762f6d97c0be4b85d7065f813a932bc5d2c338fa60e2a11dee270e6f2031ce20",
                    "decodedMethod": {
                        "callParams": [
                            {
                                "name": "hash",
                                "type": "bytes32",
                                "value": "0x3aff99817ee70f4543e8b774f635e038085d551821e70156cbfbdc254cdcecd7"
                            },
                            {
                                "name": "v",
                                "type": "uint256",
                                "value": "28"
                            },
                            {
                                "name": "r",
                                "type": "bytes32",
                                "value": "0xd378cc608109de73a97dc318792ceb0eaeddffead10f0dbf009100a45735e413"
                            },
                            {
                                "name": "s",
                                "type": "bytes32",
                                "value": "0x762f6d97c0be4b85d7065f813a932bc5d2c338fa60e2a11dee270e6f2031ce20"
                            }
                        ],
                        "constructorArguments": "",
                        "name": "ecrecover",
                        "returnParams": [
                            {
                                "name": "",
                                "type": "address",
                                "value": "0xff6cb952589bde862c25ef4392132fb9d4a42157"
                            }
                        ],
                        "signature": "ecrecover(bytes32,uint256,bytes32,bytes32)"
                    },
                    "errorInfo": "",
                    "fromAddress": "0x98f3c9e6e3face36baad05fe09d375ef1464288b",
                    "gasUsed": 3000,
                    "id": 5,
                    "methodDecoded": true,
                    "operation": "STATICCALL",
                    "output": "0x000000000000000000000000ff6cb952589bde862c25ef4392132fb9d4a42157",
                    "revert": false,
                    "revertMessage": "",
                    "selector": "0x3aff9981",
                    "status": true,
                    "value": "0"
                },
                "nodeType": 0
            },
            "6": {
                "invocation": {
                    "address": "0x0000000000000000000000000000000000000001",
                    "callData": "0x7ee70f4543e8b774f635e038085d551821e70156cbfbdc254cdcecd7000000000000000000000000000000000000000000000000000000000000001c1aed73f1e215cce3f0dceb42aeaf9511c0d08bff3c351dffb6ae2705ab9854281e8a1cb3f91ff6ee2b071a8e4c178fb283945cf153c6542ea22a804a2623247e",
                    "decodedMethod": {
                        "callParams": [
                            {
                                "name": "hash",
                                "type": "bytes32",
                                "value": "0x3aff99817ee70f4543e8b774f635e038085d551821e70156cbfbdc254cdcecd7"
                            },
                            {
                                "name": "v",
                                "type": "uint256",
                                "value": "28"
                            },
                            {
                                "name": "r",
                                "type": "bytes32",
                                "value": "0x1aed73f1e215cce3f0dceb42aeaf9511c0d08bff3c351dffb6ae2705ab985428"
                            },
                            {
                                "name": "s",
                                "type": "bytes32",
                                "value": "0x1e8a1cb3f91ff6ee2b071a8e4c178fb283945cf153c6542ea22a804a2623247e"
                            }
                        ],
                        "constructorArguments": "",
                        "name": "ecrecover",
                        "returnParams": [
                            {
                                "name": "",
                                "type": "address",
                                "value": "0x114de8460193bdf3a2fcf81f86a09765f4762fd1"
                            }
                        ],
                        "signature": "ecrecover(bytes32,uint256,bytes32,bytes32)"
                    },
                    "errorInfo": "",
                    "fromAddress": "0x98f3c9e6e3face36baad05fe09d375ef1464288b",
                    "gasUsed": 3000,
                    "id": 6,
                    "methodDecoded": true,
                    "operation": "STATICCALL",
                    "output": "0x000000000000000000000000114de8460193bdf3a2fcf81f86a09765f4762fd1",
                    "revert": false,
                    "revertMessage": "",
                    "selector": "0x3aff9981",
                    "status": true,
                    "value": "0"
                },
                "nodeType": 0
            },
            "7": {
                "invocation": {
                    "address": "0x0000000000000000000000000000000000000001",
                    "callData": "0x7ee70f4543e8b774f635e038085d551821e70156cbfbdc254cdcecd7000000000000000000000000000000000000000000000000000000000000001b3eb6ef5eb0baee564641a30bdf9fbf2c2fd83a0d4b7d4422d3d25932b5e736a23c025d2cd45e7d92797e675edd7a28ee4d4c6b6e96d2061ba9394de7bea1ef60",
                    "decodedMethod": {
                        "callParams": [
                            {
                                "name": "hash",
                                "type": "bytes32",
                                "value": "0x3aff99817ee70f4543e8b774f635e038085d551821e70156cbfbdc254cdcecd7"
                            },
                            {
                                "name": "v",
                                "type": "uint256",
                                "value": "27"
                            },
                            {
                                "name": "r",
                                "type": "bytes32",
                                "value": "0x3eb6ef5eb0baee564641a30bdf9fbf2c2fd83a0d4b7d4422d3d25932b5e736a2"
                            },
                            {
                                "name": "s",
                                "type": "bytes32",
                                "value": "0x3c025d2cd45e7d92797e675edd7a28ee4d4c6b6e96d2061ba9394de7bea1ef60"
                            }
                        ],
                        "constructorArguments": "",
                        "name": "ecrecover",
                        "returnParams": [
                            {
                                "name": "",
                                "type": "address",
                                "value": "0x107a0086b32d7a0977926a205131d8731d39cbeb"
                            }
                        ],
                        "signature": "ecrecover(bytes32,uint256,bytes32,bytes32)"
                    },
                    "errorInfo": "",
                    "fromAddress": "0x98f3c9e6e3face36baad05fe09d375ef1464288b",
                    "gasUsed": 3000,
                    "id": 7,
                    "methodDecoded": true,
                    "operation": "STATICCALL",
                    "output": "0x000000000000000000000000107a0086b32d7a0977926a205131d8731d39cbeb",
                    "revert": false,
                    "revertMessage": "",
                    "selector": "0x3aff9981",
                    "status": true,
                    "value": "0"
                },
                "nodeType": 0
            },
            "8": {
                "invocation": {
                    "address": "0x0000000000000000000000000000000000000001",
                    "callData": "0x7ee70f4543e8b774f635e038085d551821e70156cbfbdc254cdcecd7000000000000000000000000000000000000000000000000000000000000001babf6e8ecdc72c090e63a71dec0da1883ccc9ef31902de0227973d9401fb15de91df180745d931b330a7d878846aeeae1071f38d2785f45471204192aed4f0288",
                    "decodedMethod": {
                        "callParams": [
                            {
                                "name": "hash",
                                "type": "bytes32",
                                "value": "0x3aff99817ee70f4543e8b774f635e038085d551821e70156cbfbdc254cdcecd7"
                            },
                            {
                                "name": "v",
                                "type": "uint256",
                                "value": "27"
                            },
                            {
                                "name": "r",
                                "type": "bytes32",
                                "value": "0xabf6e8ecdc72c090e63a71dec0da1883ccc9ef31902de0227973d9401fb15de9"
                            },
                            {
                                "name": "s",
                                "type": "bytes32",
                                "value": "0x1df180745d931b330a7d878846aeeae1071f38d2785f45471204192aed4f0288"
                            }
                        ],
                        "constructorArguments": "",
                        "name": "ecrecover",
                        "returnParams": [
                            {
                                "name": "",
                                "type": "address",
                                "value": "0x54ce5b4d348fb74b958e8966e2ec3dbd4958a7cd"
                            }
                        ],
                        "signature": "ecrecover(bytes32,uint256,bytes32,bytes32)"
                    },
                    "errorInfo": "",
                    "fromAddress": "0x98f3c9e6e3face36baad05fe09d375ef1464288b",
                    "gasUsed": 3000,
                    "id": 8,
                    "methodDecoded": true,
                    "operation": "STATICCALL",
                    "output": "0x00000000000000000000000054ce5b4d348fb74b958e8966e2ec3dbd4958a7cd",
                    "revert": false,
                    "revertMessage": "",
                    "selector": "0x3aff9981",
                    "status": true,
                    "value": "0"
                },
                "nodeType": 0
            },
            "9": {
                "invocation": {
                    "address": "0x0000000000000000000000000000000000000001",
                    "callData": "0x7ee70f4543e8b774f635e038085d551821e70156cbfbdc254cdcecd7000000000000000000000000000000000000000000000000000000000000001bcc5ffd0c0afc20ae7c796c5fde053a481e22fd96e7190e6ffabe71cee0c5288537b0370d94801a65a958f557995557de4bc8006051e6191db400355f6e3866bb",
                    "decodedMethod": {
                        "callParams": [
                            {
                                "name": "hash",
                                "type": "bytes32",
                                "value": "0x3aff99817ee70f4543e8b774f635e038085d551821e70156cbfbdc254cdcecd7"
                            },
                            {
                                "name": "v",
                                "type": "uint256",
                                "value": "27"
                            },
                            {
                                "name": "r",
                                "type": "bytes32",
                                "value": "0xcc5ffd0c0afc20ae7c796c5fde053a481e22fd96e7190e6ffabe71cee0c52885"
                            },
                            {
                                "name": "s",
                                "type": "bytes32",
                                "value": "0x37b0370d94801a65a958f557995557de4bc8006051e6191db400355f6e3866bb"
                            }
                        ],
                        "constructorArguments": "",
                        "name": "ecrecover",
                        "returnParams": [
                            {
                                "name": "",
                                "type": "address",
                                "value": "0x74a3bf913953d695260d88bc1aa25a4eee363ef0"
                            }
                        ],
                        "signature": "ecrecover(bytes32,uint256,bytes32,bytes32)"
                    },
                    "errorInfo": "",
                    "fromAddress": "0x98f3c9e6e3face36baad05fe09d375ef1464288b",
                    "gasUsed": 3000,
                    "id": 9,
                    "methodDecoded": true,
                    "operation": "STATICCALL",
                    "output": "0x00000000000000000000000074a3bf913953d695260d88bc1aa25a4eee363ef0",
                    "revert": false,
                    "revertMessage": "",
                    "selector": "0x3aff9981",
                    "status": true,
                    "value": "0"
                },
                "nodeType": 0
            }
        },
        "gasFlame": [
            {
                "children": [
                    {
                        "children": [
                            {
                                "children": [],
                                "depth": 0,
                                "name": "Initial Gas",
                                "value": 36704
                            },
                            {
                                "children": [
                                    {
                                        "children": [
                                            {
                                                "children": [
                                                    {
                                                        "children": [
                                                            {
                                                                "children": [],
                                                                "depth": 4,
                                                                "name": "ecrecover",
                                                                "value": 3000
                                                            },
                                                            {
                                                                "children": [],
                                                                "depth": 4,
                                                                "name": "ecrecover",
                                                                "value": 3000
                                                            },
                                                            {
                                                                "children": [],
                                                                "depth": 4,
                                                                "name": "ecrecover",
                                                                "value": 3000
                                                            },
                                                            {
                                                                "children": [],
                                                                "depth": 4,
                                                                "name": "ecrecover",
                                                                "value": 3000
                                                            },
                                                            {
                                                                "children": [],
                                                                "depth": 4,
                                                                "name": "ecrecover",
                                                                "value": 3000
                                                            },
                                                            {
                                                                "children": [],
                                                                "depth": 4,
                                                                "name": "ecrecover",
                                                                "value": 3000
                                                            },
                                                            {
                                                                "children": [],
                                                                "depth": 4,
                                                                "name": "ecrecover",
                                                                "value": 3000
                                                            },
                                                            {
                                                                "children": [],
                                                                "depth": 4,
                                                                "name": "ecrecover",
                                                                "value": 3000
                                                            },
                                                            {
                                                                "children": [],
                                                                "depth": 4,
                                                                "name": "ecrecover",
                                                                "value": 3000
                                                            },
                                                            {
                                                                "children": [],
                                                                "depth": 4,
                                                                "name": "ecrecover",
                                                                "value": 3000
                                                            },
                                                            {
                                                                "children": [],
                                                                "depth": 4,
                                                                "name": "ecrecover",
                                                                "value": 3000
                                                            },
                                                            {
                                                                "children": [],
                                                                "depth": 4,
                                                                "name": "ecrecover",
                                                                "value": 3000
                                                            },
                                                            {
                                                                "children": [],
                                                                "depth": 4,
                                                                "name": "ecrecover",
                                                                "value": 3000
                                                            }
                                                        ],
                                                        "depth": 3,
                                                        "name": "parseAndVerifyVM",
                                                        "value": 129247
                                                    }
                                                ],
                                                "depth": 2,
                                                "name": "parseAndVerifyVM",
                                                "value": 134689
                                            },
                                            {
                                                "children": [
                                                    {
                                                        "children": [],
                                                        "depth": 3,
                                                        "name": "decimals",
                                                        "value": 2381
                                                    }
                                                ],
                                                "depth": 2,
                                                "name": "decimals",
                                                "value": 9664
                                            },
                                            {
                                                "children": [
                                                    {
                                                        "children": [],
                                                        "depth": 3,
                                                        "name": "transfer",
                                                        "value": 19628
                                                    }
                                                ],
                                                "depth": 2,
                                                "name": "transfer",
                                                "value": 20417
                                            }
                                        ],
                                        "depth": 1,
                                        "name": "completeTransfer",
                                        "value": 225191
                                    }
                                ],
                                "depth": 0,
                                "name": "Executed Gas",
                                "value": 230289
                            }
                        ],
                        "depth": -1,
                        "name": "Actual Gas Used",
                        "value": 266993
                    },
                    {
                        "children": [],
                        "depth": -1,
                        "name": "Refunded Gas",
                        "value": 0
                    }
                ],
                "depth": -2,
                "name": "Total Gas",
                "value": 266993
            }
        ],
        "isConfirmed": true,
        "mainTrace": [
            {
                "children": [
                    {
                        "children": [
                            {
                                "children": [
                                    {
                                        "children": [
                                            {
                                                "children": [
                                                    {
                                                        "children": [],
                                                        "depth": 4,
                                                        "id": 4,
                                                        "order": 4
                                                    },
                                                    {
                                                        "children": [],
                                                        "depth": 4,
                                                        "id": 5,
                                                        "order": 5
                                                    },
                                                    {
                                                        "children": [],
                                                        "depth": 4,
                                                        "id": 6,
                                                        "order": 6
                                                    },
                                                    {
                                                        "children": [],
                                                        "depth": 4,
                                                        "id": 7,
                                                        "order": 7
                                                    },
                                                    {
                                                        "children": [],
                                                        "depth": 4,
                                                        "id": 8,
                                                        "order": 8
                                                    },
                                                    {
                                                        "children": [],
                                                        "depth": 4,
                                                        "id": 9,
                                                        "order": 9
                                                    },
                                                    {
                                                        "children": [],
                                                        "depth": 4,
                                                        "id": 10,
                                                        "order": 10
                                                    },
                                                    {
                                                        "children": [],
                                                        "depth": 4,
                                                        "id": 11,
                                                        "order": 11
                                                    },
                                                    {
                                                        "children": [],
                                                        "depth": 4,
                                                        "id": 12,
                                                        "order": 12
                                                    },
                                                    {
                                                        "children": [],
                                                        "depth": 4,
                                                        "id": 13,
                                                        "order": 13
                                                    },
                                                    {
                                                        "children": [],
                                                        "depth": 4,
                                                        "id": 14,
                                                        "order": 14
                                                    },
                                                    {
                                                        "children": [],
                                                        "depth": 4,
                                                        "id": 15,
                                                        "order": 15
                                                    },
                                                    {
                                                        "children": [],
                                                        "depth": 4,
                                                        "id": 16,
                                                        "order": 16
                                                    }
                                                ],
                                                "depth": 3,
                                                "id": 3,
                                                "order": 3
                                            }
                                        ],
                                        "depth": 2,
                                        "id": 2,
                                        "order": 2
                                    },
                                    {
                                        "children": [
                                            {
                                                "children": [],
                                                "depth": 3,
                                                "id": 18,
                                                "order": 18
                                            }
                                        ],
                                        "depth": 2,
                                        "id": 17,
                                        "order": 17
                                    },
                                    {
                                        "children": [
                                            {
                                                "children": [
                                                    {
                                                        "children": [],
                                                        "depth": 4,
                                                        "id": 21,
                                                        "order": 21
                                                    }
                                                ],
                                                "depth": 3,
                                                "id": 20,
                                                "order": 20
                                            }
                                        ],
                                        "depth": 2,
                                        "id": 19,
                                        "order": 19
                                    }
                                ],
                                "depth": 1,
                                "id": 1,
                                "order": 1
                            }
                        ],
                        "depth": 0,
                        "id": 0,
                        "order": 0
                    }
                ],
                "depth": -1,
                "id": -1,
                "order": -1
            }
        ],
        "mainTraceNodeCount": 22,
        "parentIdMap": {
            "0": -1,
            "1": 0,
            "10": 3,
            "11": 3,
            "12": 3,
            "13": 3,
            "14": 3,
            "15": 3,
            "16": 3,
            "17": 1,
            "18": 17,
            "19": 1,
            "2": 1,
            "20": 19,
            "21": 20,
            "3": 2,
            "4": 3,
            "5": 3,
            "6": 3,
            "7": 3,
            "8": 3,
            "9": 3
        },
        "tidyTrace": [
            {
                "children": [
                    {
                        "children": [
                            {
                                "children": [
                                    {
                                        "children": [
                                            {
                                                "children": [
                                                    {
                                                        "children": [],
                                                        "depth": 4,
                                                        "id": 21,
                                                        "order": 21
                                                    }
                                                ],
                                                "depth": 3,
                                                "id": 20,
                                                "order": 20
                                            }
                                        ],
                                        "depth": 2,
                                        "id": 19,
                                        "order": 19
                                    }
                                ],
                                "depth": 1,
                                "id": 1,
                                "order": 1
                            }
                        ],
                        "depth": 0,
                        "id": 0,
                        "order": 0
                    }
                ],
                "depth": -1,
                "id": -1,
                "order": -1
            }
        ],
        "tidyTraceNodeCount": 5
    },
    "state_change": {
        "stateChanges": [
            {
                "address": "0x3ee18b2214aff97000d974cf647e7c347e8fa585",
                "erc": "",
                "slots": [
                    {
                        "current": "0x0000000000000000000000000000000000000000000000000000000000000001",
                        "key": "0xcba4e9c0f965b4e7dcf13274362e4ea8fc64557fa4b0179b2579b303bd8ff8b6",
                        "prev": "0x0000000000000000000000000000000000000000000000000000000000000000"
                    },
                    {
                        "current": "0x000000000000000000000000000000000000000000000000000021615d0b440d",
                        "key": "0x49f94b4a8474e5f2d79309e607b8ef752c9cd6053f7950596c1f47950b798b59",
                        "prev": "0x00000000000000000000000000000000000000000000000000002164307cd3ae"
                    }
                ],
                "storageVariables": [
                    {
                        "name": "_state",
                        "type": "struct BridgeStorage.State",
                        "value": {
                            "fields": [
                                {
                                    "name": "completedTransfers",
                                    "type": "mapping(bytes32 => bool)",
                                    "value": {
                                        "pairs": [
                                            {
                                                "key": "0x3aff99817ee70f4543e8b774f635e038085d551821e70156cbfbdc254cdcecd7",
                                                "value": {
                                                    "current": "true",
                                                    "prev": "false",
                                                    "typeTag": 1
                                                }
                                            }
                                        ],
                                        "typeTag": 4
                                    }
                                },
                                {
                                    "name": "outstandingBridged",
                                    "type": "mapping(address => uint256)",
                                    "value": {
                                        "pairs": [
                                            {
                                                "key": "0xa0b86991c6218b36c1d19d4a2e9eb0ce3606eb48",
                                                "value": {
                                                    "current": "36702056563725",
                                                    "prev": "36714193933230",
                                                    "typeTag": 1
                                                }
                                            }
                                        ],
                                        "typeTag": 4
                                    }
                                }
                            ],
                            "typeTag": 3
                        }
                    }
                ]
            },
            {
                "address": "0xa0b86991c6218b36c1d19d4a2e9eb0ce3606eb48",
                "erc": "ERC-20",
                "slots": [
                    {
                        "current": "0x000000000000000000000000000000000000000000000000000021619926fddd",
                        "key": "0x1fa55eace8dbeeb33c3c527324ce7119884d92e53fe5901c08fb48fe4712a7ae",
                        "prev": "0x000000000000000000000000000000000000000000000000000021646c988d7e"
                    },
                    {
                        "current": "0x0000000000000000000000000000000000000000000000000000000ab77ecb7a",
                        "key": "0xd7520a148292aed26369173c360374a569ffb36a1642d2746bb59ccf468045f9",
                        "prev": "0x00000000000000000000000000000000000000000000000000000007e40d3bd9"
                    }
                ],
                "storageVariables": [
                    {
                        "name": "balances",
                        "type": "mapping(address => uint256)",
                        "value": {
                            "pairs": [
                                {
                                    "key": "0x1bd658c933d592519d57fd728a1afb659f474d3b",
                                    "value": {
                                        "current": "46028213114",
                                        "prev": "33890843609",
                                        "typeTag": 1
                                    }
                                },
                                {
                                    "key": "0x3ee18b2214aff97000d974cf647e7c347e8fa585",
                                    "value": {
                                        "current": "36703065013725",
                                        "prev": "36715202383230",
                                        "typeTag": 1
                                    }
                                }
                            ],
                            "typeTag": 4
                        }
                    }
                ]
            }
        ]
    }
}