{
    "balance_change": {
        "balanceChanges": [
            {
                "account": "0xf9802f8cb1fa5ed8a947a62b3bb9cbc5a946bea9",
                "assets": [
                    {
                        "address": "0x1f7a8fc2427c86f551db4fdd04a60ab6c7bcb85b",
                        "amount": "229,400,200,000,000,000,000",
                        "iconUrl": "",
                        "isERC1155": false,
                        "isERC721": false,
                        "sign": false,
                        "value": ""
                    }
                ]
            },
            {
                "account": "0xeeee57f774113e1659e9258c47b1aa01ea2a89c8",
                "assets": [
                    {
                        "address": "0x1f7a8fc2427c86f551db4fdd04a60ab6c7bcb85b",
                        "amount": "229,400,200,000,000,000,000",
                        "iconUrl": "",
                        "isERC1155": false,
                        "isERC721": false,
                        "sign": true,
                        "value": ""
                    }
                ]
            }
        ]
    },
    "profile": {
        "basic_info": {
            "baseFee": "",
            "blockNumber": 6274881,
            "callData": "0xa9059cbb000000000000000000000000eeee57f774113e1659e9258c47b1aa01ea2a89c800000000000000000000000000000000000000000000000c6f913a7c53908000",
            "debugEnable": true,
            "errorInfo": "",
            "eventCount": 1,
            "feeRecipient": "0xb2930b35844a230f00e51431acae96fe543a0347",
            "formatValue": "0",
            "gasLimit": 60000,
            "gasPrice": "4",
            "gasUsed": 36609,
            "intTxnCount": 0,
            "internalRevert": false,
            "internalRevertMessage": "",
            "isContractCreation": false,
            "isFlashloan": false,
            "maxFee": "",
            "nonce": 96,
            "overwritedBlockNumber": -1,
            "priorityFee": "",
            "receiver": "0x1f7a8fc2427c86f551db4fdd04a60ab6c7bcb85b",
            "revertMessage": "",
            "sender": "0xf9802f8cb1fa5ed8a947a62b3bb9cbc5a946bea9",
            "simulationEnable": true,
            "sourceTxnHash": "0x7759906731ec0c34eafdac42dab00a9c61a9198eaf1f3328ad6ba4a21ad3b854",
            "status": true,
            "timestamp": "2018-09-05T06:54:27Z",
            "transactionFee": "0.000146436",
            "txnHash": "0x7759906731ec0c34eafdac42dab00a9c61a9198eaf1f3328ad6ba4a21ad3b854",
            "txnIndex": 13,
            "type": 0,
            "value": "0"
        },
        "fund_flow": [
            {
                "amount": "229,400,200,000,000,000,000",
                "from": "0xf9802f8cb1fa5ed8a947a62b3bb9cbc5a946bea9",
                "id": 1,
                "isERC1155": false,
                "isERC721": false,
                "isReverted": false,
                "order": 1,
                "to": "0xeeee57f774113e1659e9258c47b1aa01ea2a89c8",
                "token": "0x1f7a8fc2427c86f551db4fdd04a60ab6c7bcb85b"
            }
        ],
        "token_infos": [
            {
                "address": "0xc02aaa39b223fe8d0a0e5c4f27ead9083c756cc2",
                "decimals": 18
            },
            {
                "address": "0xeeeeeeeeeeeeeeeeeeeeeeeeeeeeeeeeeeeeeeee",
                "decimals": 18
            }
        ]
    },
    "address_label": {
        "labels": [
            {
                "address": "0x0000000000000000000000000000000000000002",
                "label": "Precompiled"
            },
            {
                "address": "0x0000000000000000000000000000000000000003",
                "label": "Precompiled"
            },
            {
                "address": "0x0000000000000000000000000000000000000004",
                "label": "Precompiled"
            },
            {
                "address": "0xeeeeeeeeeeeeeeeeeeeeeeeeeeeeeeeeeeeeeeee",
                "label": "Ether"
            },
            {
                "address": "0x1f7a8fc2427c86f551db4fdd04a60ab6c7bcb85b",
                "label": "HumanStandardToken"
            },
            {
                "address": "0x0000000000000000000000000000000000000001",
                "label": "Precompiled"
            }
        ]
    },
    "trace": {
        "accountLabels": null,
        "dataMap": {
            "-1": {
                "invocation": {
                    "address": "0xf9802f8cb1fa5ed8a947a62b3bb9cbc5a946bea9",
                    "callData": "",
                    "decodedMethod": null,
                    "errorInfo": "",
                    "fromAddress": "",
                    "gasUsed": 0,
                    "id": -1,
                    "methodDecoded": false,
                    "operation": "",
                    "output": "",
                    "revert": false,
                    "revertMessage": "",
                    "selector": "",
                    "status": false,
                    "value": ""
                },
                "nodeType": 0
            },
            "0": {
                "invocation": {
                    "address": "0x1f7a8fc2427c86f551db4fdd04a60ab6c7bcb85b",
                    "callData": "0x000000000000000000000000eeee57f774113e1659e9258c47b1aa01ea2a89c800000000000000000000000000000000000000000000000c6f913a7c53908000",
                    "decodedMethod": {
                        "callParams": [
                            {
                                "name": "_to",
                                "type": "address",
                                "value": "0xeeee57f774113e1659e9258c47b1aa01ea2a89c8"
                            },
                            {
                                "decimalAvailable": true,
                                "name": "_value",
                                "type": "uint256",
                                "value": "229,400,200,000,000,000,000"
                            }
                        ],
                        "constructorArguments": "",
                        "name": "transfer",
                        "returnParams": [
                            {
                                "name": "success",
                                "type": "bool",
                                "value": true
                            }
                        ],
                        "signature": "transfer(address,uint256)"
                    },
                    "errorInfo": "",
                    "fromAddress": "0xf9802f8cb1fa5ed8a947a62b3bb9cbc5a946bea9",
                    "gasUsed": 36609,
                    "id": 0,
                    "methodDecoded": true,
                    "operation": "CALL",
                    "output": "0x0000000000000000000000000000000000000000000000000000000000000001",
                    "revert": false,
                    "revertMessage": "",
                    "selector": "0xa9059cbb",
                    "status": true,
                    "value": "0"
                },
                "nodeType": 0
            },
            "1": {
                "event": {
                    "contract": "0x1f7a8fc2427c86f551db4fdd04a60ab6c7bcb85b",
                    "decodedLog": {
                        "name": "Transfer",
                        "params": [
                            {
                                "name": "_from",
                                "type": "address",
                                "value": "0xf9802f8cb1fa5ed8a947a62b3bb9cbc5a946bea9"
                            },
                            {
                                "name": "_to",
                                "type": "address",
                                "value": "0xeeee57f774113e1659e9258c47b1aa01ea2a89c8"
                            },
                            {
                                "decimalAvailable": true,
                                "name": "_value",
                                "type": "uint256",
                                "value": "229,400,200,000,000,000,000"
                            }
                        ],
                        "signature": "Transfer(address,address,uint256)"
                    },
                    "id": 1,
                    "logData": "0x00000000000000000000000000000000000000000000000c6f913a7c53908000",
                    "logDecoded": true,
                    "operation": "EVENT",
                    "revert": false,
                    "status": true,
                    "topics": [
                        "0xddf252ad1be2c89b69c2b068fc378daa952ba7f163c4a11628f55a4df523b3ef",
                        "0x000000000000000000000000f9802f8cb1fa5ed8a947a62b3bb9cbc5a946bea9",
                        "0x000000000000000000000000eeee57f774113e1659e9258c47b1aa01ea2a89c8"
                    ]
                },
                "nodeType": 1
            }
        },
        "gasFlame": [
            {
                "children": [
                    {
                        "children": [
                            {
                                "children": [],
                                "depth": 0,
                                "name": "Initial Gas",
                                "value": 23320
                            },
                            {
                                "children": [],
                                "depth": 0,
                                "name": "Executed Gas",
                                "value": 13289
                            }
                        ],
                        "depth": -1,
                        "name": "Actual Gas Used",
                        "value": 36609
                    },
                    {
                        "children": [],
                        "depth": -1,
                        "name": "Refunded Gas",
                        "value": 0
                    }
                ],
                "depth": -2,
                "name": "Total Gas",
                "value": 36609
            }
        ],
        "isConfirmed": true,
        "mainTrace": [
            {
                "children": [
                    {
                        "children": [
                            {
                                "children": [],
                                "depth": 1,
                                "id": 1,
                                "order": 1
                            }
                        ],
                        "depth": 0,
                        "id": 0,
                        "order": 0
                    }
                ],
                "depth": -1,
                "id": -1,
                "order": -1
            }
        ],
        "mainTraceNodeCount": 2,
        "parentIdMap": {
            "0": -1,
            "1": 0
        },
        "tidyTrace": [
            {
                "children": [
                    {
                        "children": [
                            {
                                "children": [],
                                "depth": 1,
                                "id": 1,
                                "order": 1
                            }
                        ],
                        "depth": 0,
                        "id": 0,
                        "order": 0
                    }
                ],
                "depth": -1,
                "id": -1,
                "order": -1
            }
        ],
        "tidyTraceNodeCount": 2
    },
    "state_change": {
        "stateChanges": [
            {
                "address": "0x1f7a8fc2427c86f551db4fdd04a60ab6c7bcb85b",
                "erc": "ERC-20",
                "slots": [
                    {
                        "current": "0x00000000000000000000000000000000000000000000201d1e5070f8f13c8000",
                        "key": "0x52f3a3542d19714a223dc34271926c0f096675ba43a9ee0521cc9f83c6296f15",
                        "prev": "0x0000000000000000000000000000000000000000000020298de1ab7544cd0000"
                    },
                    {
                        "current": "0x000000000000000000000000000000000000000000000031b19560d5f112c000",
                        "key": "0x4a8f177bef99259705744f65c7d045b4a03cad2f9b545f6ccd38d5686a15874e",
                        "prev": "0x000000000000000000000000000000000000000000000025420426599d824000"
                    }
                ],
                "storageVariables": []
            }
        ]
    }
}