{
    "balance_change": {
        "balanceChanges": [
            {
                "account": "0x0d53088208b8f523a534508f01ca79e3dac699ed",
                "assets": [
                    {
                        "address": "0x667102bd3413bfeaa3dffb48fa8288819e480a88",
                        "amount": "0.00004825",
                        "iconUrl": "",
                        "isERC1155": false,
                        "isERC721": false,
                        "sign": false,
                        "value": "0.0007762"
                    }
                ]
            },
            {
                "account": "0x6ef233756b4f941993b8726cd574342f57abc1b0",
                "assets": [
                    {
                        "address": "0x667102bd3413bfeaa3dffb48fa8288819e480a88",
                        "amount": "0.00004825",
                        "iconUrl": "",
                        "isERC1155": false,
                        "isERC721": false,
                        "sign": true,
                        "value": "0.0007762"
                    }
                ]
            }
        ]
    },
    "profile": {
        "basic_info": {
            "baseFee": "9.292619242",
            "blockNumber": 15856106,
            "callData": "0xa9059cbb0000000000000000000000006ef233756b4f941993b8726cd574342f57abc1b000000000000000000000000000000000000000000000000000000000000012d9",
            "debugEnable": true,
            "errorInfo": "",
            "eventCount": 1,
            "feeRecipient": "0x497a49648885f7aac3d761817f191ee1afaf399c",
            "formatValue": "0",
            "gasLimit": 77205,
            "gasPrice": "10.292619242",
            "gasUsed": 51470,
            "intTxnCount": 0,
            "internalRevert": false,
            "internalRevertMessage": "",
            "isContractCreation": false,
            "isFlashloan": false,
            "maxFee": "13.056567436",
            "nonce": 30,
            "overwritedBlockNumber": -1,
            "priorityFee": "1",
            "receiver": "0x667102bd3413bfeaa3dffb48fa8288819e480a88",
            "revertMessage": "",
            "sender": "0x0d53088208b8f523a534508f01ca79e3dac699ed",
            "simulationEnable": true,
            "sourceTxnHash": "0x7766e5ee6656a6d29d4eb887521ac5aeba42826b2d853c88b30c35310748b139",
            "status": true,
            "timestamp": "2022-10-29T20:30:11Z",
            "transactionFee": "0.00052976111238574",
            "txnHash": "0x7766e5ee6656a6d29d4eb887521ac5aeba42826b2d853c88b30c35310748b139",
            "txnIndex": 11,
            "type": 2,
            "value": "0"
        },
        "fund_flow": [
            {
                "amount": "0.00004825",
                "from": "0x0d53088208b8f523a534508f01ca79e3dac699ed",
                "id": 1,
                "isERC1155": false,
                "isERC721": false,
                "isReverted": false,
                "order": 1,
                "to": "0x6ef233756b4f941993b8726cd574342f57abc1b0",
                "token": "0x667102bd3413bfeaa3dffb48fa8288819e480a88"
            }
        ],
        "token_infos": [
            {
                "address": "0x667102bd3413bfeaa3dffb48fa8288819e480a88",
                "decimals": 8
            },
            {
                "address": "0xc02aaa39b223fe8d0a0e5c4f27ead9083c756cc2",
                "decimals": 18
            },
            {
                "address": "0xeeeeeeeeeeeeeeeeeeeeeeeeeeeeeeeeeeeeeeee",
                "decimals": 18
            }
        ]
    },
    "address_label": {
        "labels": [
            {
                "address": "0xeeeeeeeeeeeeeeeeeeeeeeeeeeeeeeeeeeeeeeee",
                "label": "Ether"
            },
            {
                "address": "0x667102bd3413bfeaa3dffb48fa8288819e480a88",
                "label": "TokenizeXchange Token"
            },
            {
                "address": "0x0000000000000000000000000000000000000001",
                "label": "Precompiled"
            },
            {
                "address": "0x0000000000000000000000000000000000000002",
                "label": "Precompiled"
            },
            {
                "address": "0x0000000000000000000000000000000000000003",
                "label": "Precompiled"
            },
            {
                "address": "0x0000000000000000000000000000000000000004",
                "label": "Precompiled"
            }
        ]
    },
    "trace": {
        "accountLabels": null,
        "dataMap": {
            "-1": {
                "invocation": {
                    "address": "0x0d53088208b8f523a534508f01ca79e3dac699ed",
                    "callData": "",
                    "decodedMethod": null,
                    "errorInfo": "",
                    "fromAddress": "",
                    "gasUsed": 0,
                    "id": -1,
                    "methodDecoded": false,
                    "operation": "",
                    "output": "",
                    "revert": false,
                    "revertMessage": "",
                    "selector": "",
                    "status": false,
                    "value": ""
                },
                "nodeType": 0
            },
            "0": {
                "invocation": {
                    "address": "0x667102bd3413bfeaa3dffb48fa8288819e480a88",
                    "callData": "0x0000000000000000000000006ef233756b4f941993b8726cd574342f57abc1b000000000000000000000000000000000000000000000000000000000000012d9",
                    "decodedMethod": {
                        "callParams": [
                            {
                                "name": "_to",
                                "type": "address",
                                "value": "0x6ef233756b4f941993b8726cd574342f57abc1b0"
                            },
                            {
                                "decimalAvailable": true,
                                "name": "_value",
                                "type": "uint256",
                                "value": "4,825"
                            }
                        ],
                        "constructorArguments": "",
                        "name": "transfer",
                        "returnParams": [
                            {
                                "name": "success",
                                "type": "bool",
                                "value": true
                            }
                        ],
                        "signature": "transfer(address,uint256)"
                    },
                    "errorInfo": "",
                    "fromAddress": "0x0d53088208b8f523a534508f01ca79e3dac699ed",
                    "gasUsed": 51470,
                    "id": 0,
                    "methodDecoded": true,
                    "operation": "CALL",
                    "output": "0x0000000000000000000000000000000000000000000000000000000000000001",
                    "revert": false,
                    "revertMessage": "",
                    "selector": "0xa9059cbb",
                    "status": true,
                    "value": "0"
                },
                "nodeType": 0
            },
            "1": {
                "event": {
                    "contract": "0x667102bd3413bfeaa3dffb48fa8288819e480a88",
                    "decodedLog": {
                        "name": "Transfer",
                        "params": [
                            {
                                "name": "_from",
                                "type": "address",
                                "value": "0x0d53088208b8f523a534508f01ca79e3dac699ed"
                            },
                            {
                                "name": "_to",
                                "type": "address",
                                "value": "0x6ef233756b4f941993b8726cd574342f57abc1b0"
                            },
                            {
                                "decimalAvailable": true,
                                "name": "_value",
                                "type": "uint256",
                                "value": "4,825"
                            }
                        ],
                        "signature": "Transfer(address,address,uint256)"
                    },
                    "id": 1,
                    "logData": "0x00000000000000000000000000000000000000000000000000000000000012d9",
                    "logDecoded": true,
                    "operation": "EVENT",
                    "revert": false,
                    "status": true,
                    "topics": [
                        "0xddf252ad1be2c89b69c2b068fc378daa952ba7f163c4a11628f55a4df523b3ef",
                        "0x0000000000000000000000000d53088208b8f523a534508f01ca79e3dac699ed",
                        "0x0000000000000000000000006ef233756b4f941993b8726cd574342f57abc1b0"
                    ]
                },
                "nodeType": 1
            }
        },
        "gasFlame": [
            {
                "children": [
                    {
                        "children": [
                            {
                                "children": [],
                                "depth": 0,
                                "name": "Initial Gas",
                                "value": 21584
                            },
                            {
                                "children": [],
                                "depth": 0,
                                "name": "Executed Gas",
                                "value": 29886
                            }
                        ],
                        "depth": -1,
                        "name": "Actual Gas Used",
                        "value": 51470
                    },
                    {
                        "children": [],
                        "depth": -1,
                        "name": "Refunded Gas",
                        "value": 0
                    }
                ],
                "depth": -2,
                "name": "Total Gas",
                "value": 51470
            }
        ],
        "isConfirmed": true,
        "mainTrace": [
            {
                "children": [
                    {
                        "children": [
                            {
                                "children": [],
                                "depth": 1,
                                "id": 1,
                                "order": 1
                            }
                        ],
                        "depth": 0,
                        "id": 0,
                        "order": 0
                    }
                ],
                "depth": -1,
                "id": -1,
                "order": -1
            }
        ],
        "mainTraceNodeCount": 2,
        "parentIdMap": {
            "0": -1,
            "1": 0
        },
        "tidyTrace": [
            {
                "children": [
                    {
                        "children": [
                            {
                                "children": [],
                                "depth": 1,
                                "id": 1,
                                "order": 1
                            }
                        ],
                        "depth": 0,
                        "id": 0,
                        "order": 0
                    }
                ],
                "depth": -1,
                "id": -1,
                "order": -1
            }
        ],
        "tidyTraceNodeCount": 2
    },
    "state_change": {
        "stateChanges": [
            {
                "address": "0x667102bd3413bfeaa3dffb48fa8288819e480a88",
                "erc": "ERC-20",
                "slots": [
                    {
                        "current": "0x0000000000000000000000000000000000000000000000000000000000471972",
                        "key": "0x6f755c7271a20b76c1ca891da72975350a2af3fc137826e007e7ea607bd3851b",
                        "prev": "0x0000000000000000000000000000000000000000000000000000000000472c4b"
                    },
                    {
                        "current": "0x00000000000000000000000000000000000000000000000000000000000012d9",
                        "key": "0xdc60abb2ec86881860fb564c62dece3858b8d12b9502869234d20dc72d0ec996",
                        "prev": "0x0000000000000000000000000000000000000000000000000000000000000000"
                    }
                ],
                "storageVariables": [
                    {
                        "name": "balances",
                        "type": "mapping(address => uint256)",
                        "value": {
                            "pairs": [
                                {
                                    "key": "0x0d53088208b8f523a534508f01ca79e3dac699ed",
                                    "value": {
                                        "current": "4659570",
                                        "prev": "4664395",
                                        "typeTag": 1
                                    }
                                },
                                {
                                    "key": "0x6ef233756b4f941993b8726cd574342f57abc1b0",
                                    "value": {
                                        "current": "4825",
                                        "prev": "0",
                                        "typeTag": 1
                                    }
                                }
                            ],
                            "typeTag": 4
                        }
                    }
                ]
            }
        ]
    }
}