{
    "balance_change": {
        "balanceChanges": [
            {
                "account": "0x7d45dfb5e1855360eac4f734c47dc2b728487e1a",
                "assets": [
                    {
                        "address": "0xeeeeeeeeeeeeeeeeeeeeeeeeeeeeeeeeeeeeeeee",
                        "amount": "0.0075",
                        "iconUrl": "https://assets.blocksec.com/image/1663669189317-3.png",
                        "isERC1155": false,
                        "isERC721": false,
                        "sign": false,
                        "value": "12.52697053"
                    },
                    {
                        "address": "0x5c400511fb292a50b4d81e601815f617db804302",
                        "amount": "1",
                        "iconUrl": "",
                        "isERC1155": false,
                        "isERC721": true,
                        "sign": true,
                        "tokenID": "2505",
                        "value": ""
                    }
                ]
            },
            {
                "account": "0x0000a26b00c1f0df003000390027140000faa719",
                "assets": [
                    {
                        "address": "0xeeeeeeeeeeeeeeeeeeeeeeeeeeeeeeeeeeeeeeee",
                        "amount": "0.0001875",
                        "iconUrl": "https://assets.blocksec.com/image/1663669189317-3.png",
                        "isERC1155": false,
                        "isERC721": false,
                        "sign": true,
                        "value": "0.31317426"
                    }
                ]
            },
            {
                "account": "0x74a4ea5e66d3f180a8c22be3d3e9b9ca2ddbab69",
                "assets": [
                    {
                        "address": "0x5c400511fb292a50b4d81e601815f617db804302",
                        "amount": "1",
                        "iconUrl": "",
                        "isERC1155": false,
                        "isERC721": true,
                        "sign": false,
                        "tokenID": "2505",
                        "value": ""
                    },
                    {
                        "address": "0xeeeeeeeeeeeeeeeeeeeeeeeeeeeeeeeeeeeeeeee",
                        "amount": "0.0069375",
                        "iconUrl": "https://assets.blocksec.com/image/1663669189317-3.png",
                        "isERC1155": false,
                        "isERC721": false,
                        "sign": true,
                        "value": "11.58744774"
                    }
                ]
            },
            {
                "account": "0xe154a7ad6e3a3af1ee3e0cc6b57135fa4ebc8ceb",
                "assets": [
                    {
                        "address": "0xeeeeeeeeeeeeeeeeeeeeeeeeeeeeeeeeeeeeeeee",
                        "amount": "0.000375",
                        "iconUrl": "https://assets.blocksec.com/image/1663669189317-3.png",
                        "isERC1155": false,
                        "isERC721": false,
                        "sign": true,
                        "value": "0.62634852"
                    }
                ]
            }
        ]
    },
    "profile": {
        "basic_info": {
            "baseFee": "11.147805992",
            "blockNumber": 15406264,
            "callData": "0x2504607100000000000000000000000000000000000000000000000000000000000000400000000000000000000000000000000000000000000000000000000000000001000000000000000000000000000000000000000000000000000000000000000100000000000000000000000000000000000000000000000000000000000000200000000000000000000000000000000000000000000000000000000000000003000000000000000000000000000000000000000000000000001aa535d3d0c00084c597568d68322457c0470064f602ea2d059193ded48c406bdfd97091a306c9000000000000000000000000000000000000000000000000000000000000008000000000000000000000000000000000000000000000000000000000000004a4b30f224900000000000000000000000000000000000000000000000000000000000000e00000000000000000000000007d45dfb5e1855360eac4f734c47dc2b728487e1a0000000000000000000000005c400511fb292a50b4d81e601815f617db80430200000000000000000000000000000000000000000000000000000000000009c90000000000000000000000000000000000000000000000000000000000000001000000000000000000000000000000000000000000000000000000000000000000000000000000000000000000000000000000000000000000000000000000000000000000000000000000000000000000000000000000000000000000000384fb0f3ee10000000000000000000000000000000000000000000000000000000000000020000000000000000000000000000000000000000000000000000000000000000000000000000000000000000000000000000000000000000000000000000000000000000000000000000000000000000000000000000000000018a59e9721180000000000000000000000000074a4ea5e66d3f180a8c22be3d3e9b9ca2ddbab69000000000000000000000000004c00500000ad104d7dbd00e3ae0a5c00560c000000000000000000000000005c400511fb292a50b4d81e601815f617db80430200000000000000000000000000000000000000000000000000000000000009c9000000000000000000000000000000000000000000000000000000000000000100000000000000000000000000000000000000000000000000000000000000020000000000000000000000000000000000000000000000000000000062ffe8640000000000000000000000000000000000000000000000000000000063d6a58d0000000000000000000000000000000000000000000000000000000000000000000000000000000000000000000000000000000000000000004464905901d6df0000007b02230091a7ed01230072f7006a004d60a8d4e71d599b8104250f00000000007b02230091a7ed01230072f7006a004d60a8d4e71d599b8104250f00000000000000000000000000000000000000000000000000000000000000000002000000000000000000000000000000000000000000000000000000000000024000000000000000000000000000000000000000000000000000000000000002e000000000000000000000000000000000000000000000000000000000000000020000000000000000000000000000000000000000000000000000aa87bee538000000000000000000000000000000a26b00c1f0df003000390027140000faa7190000000000000000000000000000000000000000000000000001550f7dca7000000000000000000000000000e154a7ad6e3a3af1ee3e0cc6b57135fa4ebc8ceb000000000000000000000000000000000000000000000000000000000000004130e33fe902dc6809dabe0172fcb928dcbb2160a0359edeea5821d269e2a4b0802845f3878f73c138d659724a0bd25cae5202610855e1f03ec9e8bc258748f1331c000000000000000000000000000000000000000000000000000000000000000000000000000000000000000000000000000000000000000000000000000000000000000000000000000000000000000000000000000000",
            "debugEnable": true,
            "errorInfo": "",
            "eventCount": 6,
            "feeRecipient": "0x0c7213bac2b9e7b99aba344243c9de84227911be",
            "formatValue": "0.0075",
            "gasLimit": 466693,
            "gasPrice": "12.647805992",
            "gasUsed": 246461,
            "intTxnCount": 13,
            "internalRevert": false,
            "internalRevertMessage": "",
            "isContractCreation": false,
            "isFlashloan": false,
            "maxFee": "13.932",
            "nonce": 26,
            "overwritedBlockNumber": -1,
            "priorityFee": "1.5",
            "receiver": "0x92701d42e1504ef9fce6d66a2054218b048dda43",
            "revertMessage": "",
            "sender": "0x7d45dfb5e1855360eac4f734c47dc2b728487e1a",
            "simulationEnable": true,
            "sourceTxnHash": "0x7893887e63839fcc63377f511c713a057d5294330f2189fcbb0549ffd92c8d45",
            "status": true,
            "timestamp": "2022-08-25T01:22:39Z",
            "transactionFee": "0.003117190912594312",
            "txnHash": "0x7893887e63839fcc63377f511c713a057d5294330f2189fcbb0549ffd92c8d45",
            "txnIndex": 5,
            "type": 2,
            "value": "7500000000000000"
        },
        "fund_flow": [
            {
                "amount": "0.0075",
                "from": "0x7d45dfb5e1855360eac4f734c47dc2b728487e1a",
                "id": 1,
                "isERC1155": false,
                "isERC721": false,
                "isReverted": false,
                "order": 1,
                "to": "0x92701d42e1504ef9fce6d66a2054218b048dda43",
                "token": "0xeeeeeeeeeeeeeeeeeeeeeeeeeeeeeeeeeeeeeeee"
            },
            {
                "amount": "0.0075",
                "from": "0x92701d42e1504ef9fce6d66a2054218b048dda43",
                "id": 2,
                "isERC1155": false,
                "isERC721": false,
                "isReverted": false,
                "order": 2,
                "to": "0xe92faed4a9a3df4eef72ad588d3936002c546bce",
                "token": "0xeeeeeeeeeeeeeeeeeeeeeeeeeeeeeeeeeeeeeeee"
            },
            {
                "amount": "0.0075",
                "from": "0xe92faed4a9a3df4eef72ad588d3936002c546bce",
                "id": 3,
                "isERC1155": false,
                "isERC721": false,
                "isReverted": false,
                "order": 3,
                "to": "0x00000000006c3852cbef3e08e8df289169ede581",
                "token": "0xeeeeeeeeeeeeeeeeeeeeeeeeeeeeeeeeeeeeeeee"
            },
            {
                "amount": "1",
                "from": "0x74a4ea5e66d3f180a8c22be3d3e9b9ca2ddbab69",
                "id": 4,
                "isERC1155": false,
                "isERC721": true,
                "isReverted": false,
                "order": 4,
                "to": "0xe92faed4a9a3df4eef72ad588d3936002c546bce",
                "token": "0x5c400511fb292a50b4d81e601815f617db804302",
                "tokenID": "2505"
            },
            {
                "amount": "0.0001875",
                "from": "0x00000000006c3852cbef3e08e8df289169ede581",
                "id": 5,
                "isERC1155": false,
                "isERC721": false,
                "isReverted": false,
                "order": 5,
                "to": "0x0000a26b00c1f0df003000390027140000faa719",
                "token": "0xeeeeeeeeeeeeeeeeeeeeeeeeeeeeeeeeeeeeeeee"
            },
            {
                "amount": "0.000375",
                "from": "0x00000000006c3852cbef3e08e8df289169ede581",
                "id": 6,
                "isERC1155": false,
                "isERC721": false,
                "isReverted": false,
                "order": 6,
                "to": "0xe154a7ad6e3a3af1ee3e0cc6b57135fa4ebc8ceb",
                "token": "0xeeeeeeeeeeeeeeeeeeeeeeeeeeeeeeeeeeeeeeee"
            },
            {
                "amount": "0.0069375",
                "from": "0x00000000006c3852cbef3e08e8df289169ede581",
                "id": 7,
                "isERC1155": false,
                "isERC721": false,
                "isReverted": false,
                "order": 7,
                "to": "0x74a4ea5e66d3f180a8c22be3d3e9b9ca2ddbab69",
                "token": "0xeeeeeeeeeeeeeeeeeeeeeeeeeeeeeeeeeeeeeeee"
            },
            {
                "amount": "1",
                "from": "0xe92faed4a9a3df4eef72ad588d3936002c546bce",
                "id": 8,
                "isERC1155": false,
                "isERC721": true,
                "isReverted": false,
                "order": 8,
                "to": "0x7d45dfb5e1855360eac4f734c47dc2b728487e1a",
                "token": "0x5c400511fb292a50b4d81e601815f617db804302",
                "tokenID": "2505"
            }
        ],
        "token_infos": [
            {
                "address": "0xc02aaa39b223fe8d0a0e5c4f27ead9083c756cc2",
                "decimals": 18
            },
            {
                "address": "0xeeeeeeeeeeeeeeeeeeeeeeeeeeeeeeeeeeeeeeee",
                "decimals": 18
            }
        ]
    },
    "address_label": {
        "labels": [
            {
                "address": "0x004c00500000ad104d7dbd00e3ae0a5c00560c00",
                "label": "OpenSea: Pausable Zone"
            },
            {
                "address": "0xe92faed4a9a3df4eef72ad588d3936002c546bce",
                "label": "SeaportAdapter"
            },
            {
                "address": "0x0000000000000000000000000000000000000000",
                "label": "Null Address"
            },
            {
                "address": "0x0000000000000000000000000000000000000004",
                "label": "Precompiled"
            },
            {
                "address": "0xeeeeeeeeeeeeeeeeeeeeeeeeeeeeeeeeeeeeeeee",
                "label": "Ether"
            },
            {
                "address": "0x1e0049783f008a0085193e00003d00cd54003c71",
                "label": "OpenSea: Conduit"
            },
            {
                "address": "0x00000000006c3852cbef3e08e8df289169ede581",
                "label": "Seaport 1.1"
            },
            {
                "address": "0x219d1fc3bad3df628c49350696a31281d392e6e8",
                "label": "MarketRegistry"
            },
            {
                "address": "0x0000000000000000000000000000000000000001",
                "label": "Precompiled"
            },
            {
                "address": "0x0000000000000000000000000000000000000002",
                "label": "Precompiled"
            },
            {
                "address": "0x92701d42e1504ef9fce6d66a2054218b048dda43",
                "label": "OwnedUpgradeabilityProxy"
            },
            {
                "address": "0x5c400511fb292a50b4d81e601815f617db804302",
                "label": "Superfuzz: The Good Guys (SFGG)"
            },
            {
                "address": "0x0000000000000000000000000000000000000003",
                "label": "Precompiled"
            },
            {
                "address": "0x0000a26b00c1f0df003000390027140000faa719",
                "label": "OpenSea: Fees 3"
            }
        ]
    },
    "trace": {
        "accountLabels": null,
        "dataMap": {
            "-1": {
                "invocation": {
                    "address": "0x7d45dfb5e1855360eac4f734c47dc2b728487e1a",
                    "callData": "",
                    "decodedMethod": null,
                    "errorInfo": "",
                    "fromAddress": "",
                    "gasUsed": 0,
                    "id": -1,
                    "methodDecoded": false,
                    "operation": "",
                    "output": "",
                    "revert": false,
                    "revertMessage": "",
                    "selector": "",
                    "status": false,
                    "value": ""
                },
                "nodeType": 0
            },
            "0": {
                "invocation": {
                    "address": "0x92701d42e1504ef9fce6d66a2054218b048dda43",
                    "callData": "0x00000000000000000000000000000000000000000000000000000000000000400000000000000000000000000000000000000000000000000000000000000001000000000000000000000000000000000000000000000000000000000000000100000000000000000000000000000000000000000000000000000000000000200000000000000000000000000000000000000000000000000000000000000003000000000000000000000000000000000000000000000000001aa535d3d0c00084c597568d68322457c0470064f602ea2d059193ded48c406bdfd97091a306c9000000000000000000000000000000000000000000000000000000000000008000000000000000000000000000000000000000000000000000000000000004a4b30f224900000000000000000000000000000000000000000000000000000000000000e00000000000000000000000007d45dfb5e1855360eac4f734c47dc2b728487e1a0000000000000000000000005c400511fb292a50b4d81e601815f617db80430200000000000000000000000000000000000000000000000000000000000009c90000000000000000000000000000000000000000000000000000000000000001000000000000000000000000000000000000000000000000000000000000000000000000000000000000000000000000000000000000000000000000000000000000000000000000000000000000000000000000000000000000000000000384fb0f3ee10000000000000000000000000000000000000000000000000000000000000020000000000000000000000000000000000000000000000000000000000000000000000000000000000000000000000000000000000000000000000000000000000000000000000000000000000000000000000000000000000018a59e9721180000000000000000000000000074a4ea5e66d3f180a8c22be3d3e9b9ca2ddbab69000000000000000000000000004c00500000ad104d7dbd00e3ae0a5c00560c000000000000000000000000005c400511fb292a50b4d81e601815f617db80430200000000000000000000000000000000000000000000000000000000000009c9000000000000000000000000000000000000000000000000000000000000000100000000000000000000000000000000000000000000000000000000000000020000000000000000000000000000000000000000000000000000000062ffe8640000000000000000000000000000000000000000000000000000000063d6a58d0000000000000000000000000000000000000000000000000000000000000000000000000000000000000000000000000000000000000000004464905901d6df0000007b02230091a7ed01230072f7006a004d60a8d4e71d599b8104250f00000000007b02230091a7ed01230072f7006a004d60a8d4e71d599b8104250f00000000000000000000000000000000000000000000000000000000000000000002000000000000000000000000000000000000000000000000000000000000024000000000000000000000000000000000000000000000000000000000000002e000000000000000000000000000000000000000000000000000000000000000020000000000000000000000000000000000000000000000000000aa87bee538000000000000000000000000000000a26b00c1f0df003000390027140000faa7190000000000000000000000000000000000000000000000000001550f7dca7000000000000000000000000000e154a7ad6e3a3af1ee3e0cc6b57135fa4ebc8ceb000000000000000000000000000000000000000000000000000000000000004130e33fe902dc6809dabe0172fcb928dcbb2160a0359edeea5821d269e2a4b0802845f3878f73c138d659724a0bd25cae5202610855e1f03ec9e8bc258748f1331c000000000000000000000000000000000000000000000000000000000000000000000000000000000000000000000000000000000000000000000000000000000000000000000000000000000000000000000000000000",
                    "decodedMethod": {
                        "callParams": [
                            {
                                "name": "tradeDetails",
                                "type": "(uint256,uint256,bytes32,bytes)[]",
                                "value": [
                                    [
                                        {
                                            "name": "marketId",
                                            "type": "uint256",
                                            "value": "3"
                                        },
                                        {
                                            "name": "value",
                                            "type": "uint256",
                                            "value": "7,500,000,000,000,000"
                                        },
                                        {
                                            "name": "orderHash",
                                            "type": "bytes32",
                                            "value": "0x84c597568d68322457c0470064f602ea2d059193ded48c406bdfd97091a306c9"
                                        },
                                        {
                                            "name": "tradeData",
                                            "type": "bytes",
                                            "value": "0xb30f224900000000000000000000000000000000000000000000000000000000000000e00000000000000000000000007d45dfb5e1855360eac4f734c47dc2b728487e1a0000000000000000000000005c400511fb292a50b4d81e601815f617db80430200000000000000000000000000000000000000000000000000000000000009c90000000000000000000000000000000000000000000000000000000000000001000000000000000000000000000000000000000000000000000000000000000000000000000000000000000000000000000000000000000000000000000000000000000000000000000000000000000000000000000000000000000000000384fb0f3ee10000000000000000000000000000000000000000000000000000000000000020000000000000000000000000000000000000000000000000000000000000000000000000000000000000000000000000000000000000000000000000000000000000000000000000000000000000000000000000000000000018a59e9721180000000000000000000000000074a4ea5e66d3f180a8c22be3d3e9b9ca2ddbab69000000000000000000000000004c00500000ad104d7dbd00e3ae0a5c00560c000000000000000000000000005c400511fb292a50b4d81e601815f617db80430200000000000000000000000000000000000000000000000000000000000009c9000000000000000000000000000000000000000000000000000000000000000100000000000000000000000000000000000000000000000000000000000000020000000000000000000000000000000000000000000000000000000062ffe8640000000000000000000000000000000000000000000000000000000063d6a58d0000000000000000000000000000000000000000000000000000000000000000000000000000000000000000000000000000000000000000004464905901d6df0000007b02230091a7ed01230072f7006a004d60a8d4e71d599b8104250f00000000007b02230091a7ed01230072f7006a004d60a8d4e71d599b8104250f00000000000000000000000000000000000000000000000000000000000000000002000000000000000000000000000000000000000000000000000000000000024000000000000000000000000000000000000000000000000000000000000002e000000000000000000000000000000000000000000000000000000000000000020000000000000000000000000000000000000000000000000000aa87bee538000000000000000000000000000000a26b00c1f0df003000390027140000faa7190000000000000000000000000000000000000000000000000001550f7dca7000000000000000000000000000e154a7ad6e3a3af1ee3e0cc6b57135fa4ebc8ceb000000000000000000000000000000000000000000000000000000000000004130e33fe902dc6809dabe0172fcb928dcbb2160a0359edeea5821d269e2a4b0802845f3878f73c138d659724a0bd25cae5202610855e1f03ec9e8bc258748f1331c0000000000000000000000000000000000000000000000000000000000000000000000000000000000000000000000000000000000000000000000"
                                        }
                                    ]
                                ]
                            },
                            {
                                "name": "isFailed",
                                "type": "bool",
                                "value": true
                            }
                        ],
                        "constructorArguments": "",
                        "name": "trade",
                        "returnParams": [],
                        "signature": "trade((uint256,uint256,bytes32,bytes)[],bool)"
                    },
                    "errorInfo": "",
                    "fromAddress": "0x7d45dfb5e1855360eac4f734c47dc2b728487e1a",
                    "gasUsed": 246461,
                    "id": 0,
                    "methodDecoded": true,
                    "operation": "CALL",
                    "output": "",
                    "revert": false,
                    "revertMessage": "",
                    "selector": "0x25046071",
                    "status": true,
                    "value": "0.0075"
                },
                "nodeType": 0
            },
            "1": {
                "invocation": {
                    "address": "0x418279505ae0633b0f443988abfeddad3c1d4116",
                    "callData": "0x00000000000000000000000000000000000000000000000000000000000000400000000000000000000000000000000000000000000000000000000000000001000000000000000000000000000000000000000000000000000000000000000100000000000000000000000000000000000000000000000000000000000000200000000000000000000000000000000000000000000000000000000000000003000000000000000000000000000000000000000000000000001aa535d3d0c00084c597568d68322457c0470064f602ea2d059193ded48c406bdfd97091a306c9000000000000000000000000000000000000000000000000000000000000008000000000000000000000000000000000000000000000000000000000000004a4b30f224900000000000000000000000000000000000000000000000000000000000000e00000000000000000000000007d45dfb5e1855360eac4f734c47dc2b728487e1a0000000000000000000000005c400511fb292a50b4d81e601815f617db80430200000000000000000000000000000000000000000000000000000000000009c90000000000000000000000000000000000000000000000000000000000000001000000000000000000000000000000000000000000000000000000000000000000000000000000000000000000000000000000000000000000000000000000000000000000000000000000000000000000000000000000000000000000000384fb0f3ee10000000000000000000000000000000000000000000000000000000000000020000000000000000000000000000000000000000000000000000000000000000000000000000000000000000000000000000000000000000000000000000000000000000000000000000000000000000000000000000000000018a59e9721180000000000000000000000000074a4ea5e66d3f180a8c22be3d3e9b9ca2ddbab69000000000000000000000000004c00500000ad104d7dbd00e3ae0a5c00560c000000000000000000000000005c400511fb292a50b4d81e601815f617db80430200000000000000000000000000000000000000000000000000000000000009c9000000000000000000000000000000000000000000000000000000000000000100000000000000000000000000000000000000000000000000000000000000020000000000000000000000000000000000000000000000000000000062ffe8640000000000000000000000000000000000000000000000000000000063d6a58d0000000000000000000000000000000000000000000000000000000000000000000000000000000000000000000000000000000000000000004464905901d6df0000007b02230091a7ed01230072f7006a004d60a8d4e71d599b8104250f00000000007b02230091a7ed01230072f7006a004d60a8d4e71d599b8104250f00000000000000000000000000000000000000000000000000000000000000000002000000000000000000000000000000000000000000000000000000000000024000000000000000000000000000000000000000000000000000000000000002e000000000000000000000000000000000000000000000000000000000000000020000000000000000000000000000000000000000000000000000aa87bee538000000000000000000000000000000a26b00c1f0df003000390027140000faa7190000000000000000000000000000000000000000000000000001550f7dca7000000000000000000000000000e154a7ad6e3a3af1ee3e0cc6b57135fa4ebc8ceb000000000000000000000000000000000000000000000000000000000000004130e33fe902dc6809dabe0172fcb928dcbb2160a0359edeea5821d269e2a4b0802845f3878f73c138d659724a0bd25cae5202610855e1f03ec9e8bc258748f1331c000000000000000000000000000000000000000000000000000000000000000000000000000000000000000000000000000000000000000000000000000000000000000000000000000000000000000000000000000000",
                    "decodedMethod": {
                        "callParams": [
                            {
                                "name": "tradeDetails",
                                "type": "(uint256,uint256,bytes32,bytes)[]",
                                "value": [
                                    [
                                        {
                                            "name": "marketId",
                                            "type": "uint256",
                                            "value": "3"
                                        },
                                        {
                                            "name": "value",
                                            "type": "uint256",
                                            "value": "7,500,000,000,000,000"
                                        },
                                        {
                                            "name": "orderHash",
                                            "type": "bytes32",
                                            "value": "0x84c597568d68322457c0470064f602ea2d059193ded48c406bdfd97091a306c9"
                                        },
                                        {
                                            "name": "tradeData",
                                            "type": "bytes",
                                            "value": "0xb30f224900000000000000000000000000000000000000000000000000000000000000e00000000000000000000000007d45dfb5e1855360eac4f734c47dc2b728487e1a0000000000000000000000005c400511fb292a50b4d81e601815f617db80430200000000000000000000000000000000000000000000000000000000000009c90000000000000000000000000000000000000000000000000000000000000001000000000000000000000000000000000000000000000000000000000000000000000000000000000000000000000000000000000000000000000000000000000000000000000000000000000000000000000000000000000000000000000384fb0f3ee10000000000000000000000000000000000000000000000000000000000000020000000000000000000000000000000000000000000000000000000000000000000000000000000000000000000000000000000000000000000000000000000000000000000000000000000000000000000000000000000000018a59e9721180000000000000000000000000074a4ea5e66d3f180a8c22be3d3e9b9ca2ddbab69000000000000000000000000004c00500000ad104d7dbd00e3ae0a5c00560c000000000000000000000000005c400511fb292a50b4d81e601815f617db80430200000000000000000000000000000000000000000000000000000000000009c9000000000000000000000000000000000000000000000000000000000000000100000000000000000000000000000000000000000000000000000000000000020000000000000000000000000000000000000000000000000000000062ffe8640000000000000000000000000000000000000000000000000000000063d6a58d0000000000000000000000000000000000000000000000000000000000000000000000000000000000000000000000000000000000000000004464905901d6df0000007b02230091a7ed01230072f7006a004d60a8d4e71d599b8104250f00000000007b02230091a7ed01230072f7006a004d60a8d4e71d599b8104250f00000000000000000000000000000000000000000000000000000000000000000002000000000000000000000000000000000000000000000000000000000000024000000000000000000000000000000000000000000000000000000000000002e000000000000000000000000000000000000000000000000000000000000000020000000000000000000000000000000000000000000000000000aa87bee538000000000000000000000000000000a26b00c1f0df003000390027140000faa7190000000000000000000000000000000000000000000000000001550f7dca7000000000000000000000000000e154a7ad6e3a3af1ee3e0cc6b57135fa4ebc8ceb000000000000000000000000000000000000000000000000000000000000004130e33fe902dc6809dabe0172fcb928dcbb2160a0359edeea5821d269e2a4b0802845f3878f73c138d659724a0bd25cae5202610855e1f03ec9e8bc258748f1331c0000000000000000000000000000000000000000000000000000000000000000000000000000000000000000000000000000000000000000000000"
                                        }
                                    ]
                                ]
                            },
                            {
                                "name": "isFailed",
                                "type": "bool",
                                "value": true
                            }
                        ],
                        "constructorArguments": "",
                        "name": "trade",
                        "returnParams": [],
                        "signature": "trade((uint256,uint256,bytes32,bytes)[],bool)"
                    },
                    "errorInfo": "",
                    "fromAddress": "0x92701d42e1504ef9fce6d66a2054218b048dda43",
                    "gasUsed": 267751,
                    "id": 1,
                    "methodDecoded": true,
                    "operation": "DELEGATECALL",
                    "output": "",
                    "revert": false,
                    "revertMessage": "",
                    "selector": "0x25046071",
                    "status": true,
                    "value": "0.0075"
                },
                "nodeType": 0
            },
            "10": {
                "event": {
                    "contract": "0x5c400511fb292a50b4d81e601815f617db804302",
                    "decodedLog": {
                        "name": "Approval",
                        "params": [
                            {
                                "name": "owner",
                                "type": "address",
                                "value": "0x74a4ea5e66d3f180a8c22be3d3e9b9ca2ddbab69"
                            },
                            {
                                "name": "approved",
                                "type": "address",
                                "value": "0x0000000000000000000000000000000000000000"
                            },
                            {
                                "decimalAvailable": true,
                                "name": "tokenId",
                                "type": "uint256",
                                "value": "2,505"
                            }
                        ],
                        "signature": "Approval(address,address,uint256)"
                    },
                    "id": 10,
                    "logData": "0x",
                    "logDecoded": true,
                    "operation": "EVENT",
                    "revert": false,
                    "status": true,
                    "topics": [
                        "0x8c5be1e5ebec7d5bd14f71427d1e84f3dd0314c0f7b2291e5b200ac8c7c3b925",
                        "0x00000000000000000000000074a4ea5e66d3f180a8c22be3d3e9b9ca2ddbab69",
                        "0x0000000000000000000000000000000000000000000000000000000000000000",
                        "0x00000000000000000000000000000000000000000000000000000000000009c9"
                    ]
                },
                "nodeType": 1
            },
            "11": {
                "event": {
                    "contract": "0x5c400511fb292a50b4d81e601815f617db804302",
                    "decodedLog": {
                        "name": "Transfer",
                        "params": [
                            {
                                "name": "from",
                                "type": "address",
                                "value": "0x74a4ea5e66d3f180a8c22be3d3e9b9ca2ddbab69"
                            },
                            {
                                "name": "to",
                                "type": "address",
                                "value": "0xe92faed4a9a3df4eef72ad588d3936002c546bce"
                            },
                            {
                                "decimalAvailable": true,
                                "name": "tokenId",
                                "type": "uint256",
                                "value": "2,505"
                            }
                        ],
                        "signature": "Transfer(address,address,uint256)"
                    },
                    "id": 11,
                    "logData": "0x",
                    "logDecoded": true,
                    "operation": "EVENT",
                    "revert": false,
                    "status": true,
                    "topics": [
                        "0xddf252ad1be2c89b69c2b068fc378daa952ba7f163c4a11628f55a4df523b3ef",
                        "0x00000000000000000000000074a4ea5e66d3f180a8c22be3d3e9b9ca2ddbab69",
                        "0x000000000000000000000000e92faed4a9a3df4eef72ad588d3936002c546bce",
                        "0x00000000000000000000000000000000000000000000000000000000000009c9"
                    ]
                },
                "nodeType": 1
            },
            "12": {
                "invocation": {
                    "address": "0x0000a26b00c1f0df003000390027140000faa719",
                    "callData": "0x",
                    "decodedMethod": null,
                    "errorInfo": "",
                    "fromAddress": "0x00000000006c3852cbef3e08e8df289169ede581",
                    "gasUsed": 85,
                    "id": 12,
                    "methodDecoded": false,
                    "operation": "CALL",
                    "output": "",
                    "revert": false,
                    "revertMessage": "",
                    "selector": "fallback",
                    "status": true,
                    "value": "0.0001875"
                },
                "nodeType": 0
            },
            "13": {
                "invocation": {
                    "address": "0xe154a7ad6e3a3af1ee3e0cc6b57135fa4ebc8ceb",
                    "callData": "0x",
                    "decodedMethod": null,
                    "errorInfo": "",
                    "fromAddress": "0x00000000006c3852cbef3e08e8df289169ede581",
                    "gasUsed": 0,
                    "id": 13,
                    "methodDecoded": false,
                    "operation": "CALL",
                    "output": "",
                    "revert": false,
                    "revertMessage": "",
                    "selector": "fallback",
                    "status": true,
                    "value": "0.000375"
                },
                "nodeType": 0
            },
            "14": {
                "invocation": {
                    "address": "0x74a4ea5e66d3f180a8c22be3d3e9b9ca2ddbab69",
                    "callData": "0x",
                    "decodedMethod": null,
                    "errorInfo": "",
                    "fromAddress": "0x00000000006c3852cbef3e08e8df289169ede581",
                    "gasUsed": 0,
                    "id": 14,
                    "methodDecoded": false,
                    "operation": "CALL",
                    "output": "",
                    "revert": false,
                    "revertMessage": "",
                    "selector": "fallback",
                    "status": true,
                    "value": "0.0069375"
                },
                "nodeType": 0
            },
            "15": {
                "invocation": {
                    "address": "0x5c400511fb292a50b4d81e601815f617db804302",
                    "callData": "0x80ac58cd00000000000000000000000000000000000000000000000000000000",
                    "decodedMethod": {
                        "callParams": [
                            {
                                "name": "interfaceId",
                                "type": "bytes4",
                                "value": "0x80ac58cd"
                            }
                        ],
                        "constructorArguments": "",
                        "name": "supportsInterface",
                        "returnParams": [
                            {
                                "name": "",
                                "type": "bool",
                                "value": true
                            }
                        ],
                        "signature": "supportsInterface(bytes4)"
                    },
                    "errorInfo": "",
                    "fromAddress": "0xe92faed4a9a3df4eef72ad588d3936002c546bce",
                    "gasUsed": 606,
                    "id": 15,
                    "methodDecoded": true,
                    "operation": "STATICCALL",
                    "output": "0x0000000000000000000000000000000000000000000000000000000000000001",
                    "revert": false,
                    "revertMessage": "",
                    "selector": "0x01ffc9a7",
                    "status": true,
                    "value": "0"
                },
                "nodeType": 0
            },
            "16": {
                "invocation": {
                    "address": "0x5c400511fb292a50b4d81e601815f617db804302",
                    "callData": "0x000000000000000000000000e92faed4a9a3df4eef72ad588d3936002c546bce0000000000000000000000007d45dfb5e1855360eac4f734c47dc2b728487e1a00000000000000000000000000000000000000000000000000000000000009c900000000000000000000000000000000000000000000000000000000000000800000000000000000000000000000000000000000000000000000000000000000",
                    "decodedMethod": {
                        "callParams": [
                            {
                                "name": "from",
                                "type": "address",
                                "value": "0xe92faed4a9a3df4eef72ad588d3936002c546bce"
                            },
                            {
                                "name": "to",
                                "type": "address",
                                "value": "0x7d45dfb5e1855360eac4f734c47dc2b728487e1a"
                            },
                            {
                                "name": "tokenId",
                                "type": "uint256",
                                "value": "2,505"
                            },
                            {
                                "name": "_data",
                                "type": "bytes",
                                "value": "0x"
                            }
                        ],
                        "constructorArguments": "",
                        "name": "safeTransferFrom",
                        "returnParams": [],
                        "signature": "safeTransferFrom(address,address,uint256,bytes)"
                    },
                    "errorInfo": "",
                    "fromAddress": "0xe92faed4a9a3df4eef72ad588d3936002c546bce",
                    "gasUsed": 53589,
                    "id": 16,
                    "methodDecoded": true,
                    "operation": "CALL",
                    "output": "",
                    "revert": false,
                    "revertMessage": "",
                    "selector": "0xb88d4fde",
                    "status": true,
                    "value": "0"
                },
                "nodeType": 0
            },
            "17": {
                "event": {
                    "contract": "0x5c400511fb292a50b4d81e601815f617db804302",
                    "decodedLog": {
                        "name": "Approval",
                        "params": [
                            {
                                "name": "owner",
                                "type": "address",
                                "value": "0xe92faed4a9a3df4eef72ad588d3936002c546bce"
                            },
                            {
                                "name": "approved",
                                "type": "address",
                                "value": "0x0000000000000000000000000000000000000000"
                            },
                            {
                                "decimalAvailable": true,
                                "name": "tokenId",
                                "type": "uint256",
                                "value": "2,505"
                            }
                        ],
                        "signature": "Approval(address,address,uint256)"
                    },
                    "id": 17,
                    "logData": "0x",
                    "logDecoded": true,
                    "operation": "EVENT",
                    "revert": false,
                    "status": true,
                    "topics": [
                        "0x8c5be1e5ebec7d5bd14f71427d1e84f3dd0314c0f7b2291e5b200ac8c7c3b925",
                        "0x000000000000000000000000e92faed4a9a3df4eef72ad588d3936002c546bce",
                        "0x0000000000000000000000000000000000000000000000000000000000000000",
                        "0x00000000000000000000000000000000000000000000000000000000000009c9"
                    ]
                },
                "nodeType": 1
            },
            "18": {
                "event": {
                    "contract": "0x5c400511fb292a50b4d81e601815f617db804302",
                    "decodedLog": {
                        "name": "Transfer",
                        "params": [
                            {
                                "name": "from",
                                "type": "address",
                                "value": "0xe92faed4a9a3df4eef72ad588d3936002c546bce"
                            },
                            {
                                "name": "to",
                                "type": "address",
                                "value": "0x7d45dfb5e1855360eac4f734c47dc2b728487e1a"
                            },
                            {
                                "decimalAvailable": true,
                                "name": "tokenId",
                                "type": "uint256",
                                "value": "2,505"
                            }
                        ],
                        "signature": "Transfer(address,address,uint256)"
                    },
                    "id": 18,
                    "logData": "0x",
                    "logDecoded": true,
                    "operation": "EVENT",
                    "revert": false,
                    "status": true,
                    "topics": [
                        "0xddf252ad1be2c89b69c2b068fc378daa952ba7f163c4a11628f55a4df523b3ef",
                        "0x000000000000000000000000e92faed4a9a3df4eef72ad588d3936002c546bce",
                        "0x0000000000000000000000007d45dfb5e1855360eac4f734c47dc2b728487e1a",
                        "0x00000000000000000000000000000000000000000000000000000000000009c9"
                    ]
                },
                "nodeType": 1
            },
            "19": {
                "event": {
                    "contract": "0x92701d42e1504ef9fce6d66a2054218b048dda43",
                    "decodedLog": {
                        "name": "MatchOrderResults",
                        "params": [
                            {
                                "name": "orderHashes",
                                "type": "bytes32[]",
                                "value": [
                                    "0x84c597568d68322457c0470064f602ea2d059193ded48c406bdfd97091a306c9"
                                ]
                            },
                            {
                                "name": "results",
                                "type": "bool[]",
                                "value": [
                                    true
                                ]
                            }
                        ],
                        "signature": "MatchOrderResults(bytes32[],bool[])"
                    },
                    "id": 19,
                    "logData": "0x00000000000000000000000000000000000000000000000000000000000000400000000000000000000000000000000000000000000000000000000000000080000000000000000000000000000000000000000000000000000000000000000184c597568d68322457c0470064f602ea2d059193ded48c406bdfd97091a306c900000000000000000000000000000000000000000000000000000000000000010000000000000000000000000000000000000000000000000000000000000001",
                    "logDecoded": true,
                    "operation": "EVENT",
                    "revert": false,
                    "status": true,
                    "topics": [
                        "0xa43f4bcf06b7e28c335ab6096cae3215c7ca0cedc6f3063a067950e5c2b49211"
                    ]
                },
                "nodeType": 1
            },
            "2": {
                "invocation": {
                    "address": "0x219d1fc3bad3df628c49350696a31281d392e6e8",
                    "callData": "0x0000000000000000000000000000000000000000000000000000000000000003",
                    "decodedMethod": {
                        "callParams": [
                            {
                                "name": "",
                                "type": "uint256",
                                "value": "3"
                            }
                        ],
                        "constructorArguments": "",
                        "name": "markets",
                        "returnParams": [
                            {
                                "name": "proxy",
                                "type": "address",
                                "value": "0xe92faed4a9a3df4eef72ad588d3936002c546bce"
                            },
                            {
                                "name": "isLib",
                                "type": "bool",
                                "value": false
                            },
                            {
                                "name": "isActive",
                                "type": "bool",
                                "value": true
                            }
                        ],
                        "signature": "markets(uint256)"
                    },
                    "errorInfo": "",
                    "fromAddress": "0x92701d42e1504ef9fce6d66a2054218b048dda43",
                    "gasUsed": 4747,
                    "id": 2,
                    "methodDecoded": true,
                    "operation": "STATICCALL",
                    "output": "0x000000000000000000000000e92faed4a9a3df4eef72ad588d3936002c546bce00000000000000000000000000000000000000000000000000000000000000000000000000000000000000000000000000000000000000000000000000000001",
                    "revert": false,
                    "revertMessage": "",
                    "selector": "0xb1283e77",
                    "status": true,
                    "value": "0"
                },
                "nodeType": 0
            },
            "3": {
                "invocation": {
                    "address": "0xe92faed4a9a3df4eef72ad588d3936002c546bce",
                    "callData": "0x00000000000000000000000000000000000000000000000000000000000000e00000000000000000000000007d45dfb5e1855360eac4f734c47dc2b728487e1a0000000000000000000000005c400511fb292a50b4d81e601815f617db80430200000000000000000000000000000000000000000000000000000000000009c90000000000000000000000000000000000000000000000000000000000000001000000000000000000000000000000000000000000000000000000000000000000000000000000000000000000000000000000000000000000000000000000000000000000000000000000000000000000000000000000000000000000000384fb0f3ee10000000000000000000000000000000000000000000000000000000000000020000000000000000000000000000000000000000000000000000000000000000000000000000000000000000000000000000000000000000000000000000000000000000000000000000000000000000000000000000000000018a59e9721180000000000000000000000000074a4ea5e66d3f180a8c22be3d3e9b9ca2ddbab69000000000000000000000000004c00500000ad104d7dbd00e3ae0a5c00560c000000000000000000000000005c400511fb292a50b4d81e601815f617db80430200000000000000000000000000000000000000000000000000000000000009c9000000000000000000000000000000000000000000000000000000000000000100000000000000000000000000000000000000000000000000000000000000020000000000000000000000000000000000000000000000000000000062ffe8640000000000000000000000000000000000000000000000000000000063d6a58d0000000000000000000000000000000000000000000000000000000000000000000000000000000000000000000000000000000000000000004464905901d6df0000007b02230091a7ed01230072f7006a004d60a8d4e71d599b8104250f00000000007b02230091a7ed01230072f7006a004d60a8d4e71d599b8104250f00000000000000000000000000000000000000000000000000000000000000000002000000000000000000000000000000000000000000000000000000000000024000000000000000000000000000000000000000000000000000000000000002e000000000000000000000000000000000000000000000000000000000000000020000000000000000000000000000000000000000000000000000aa87bee538000000000000000000000000000000a26b00c1f0df003000390027140000faa7190000000000000000000000000000000000000000000000000001550f7dca7000000000000000000000000000e154a7ad6e3a3af1ee3e0cc6b57135fa4ebc8ceb000000000000000000000000000000000000000000000000000000000000004130e33fe902dc6809dabe0172fcb928dcbb2160a0359edeea5821d269e2a4b0802845f3878f73c138d659724a0bd25cae5202610855e1f03ec9e8bc258748f1331c0000000000000000000000000000000000000000000000000000000000000000000000000000000000000000000000000000000000000000000000",
                    "decodedMethod": {
                        "callParams": [
                            {
                                "name": "_calldata",
                                "type": "bytes",
                                "value": "0xfb0f3ee10000000000000000000000000000000000000000000000000000000000000020000000000000000000000000000000000000000000000000000000000000000000000000000000000000000000000000000000000000000000000000000000000000000000000000000000000000000000000000000000000018a59e9721180000000000000000000000000074a4ea5e66d3f180a8c22be3d3e9b9ca2ddbab69000000000000000000000000004c00500000ad104d7dbd00e3ae0a5c00560c000000000000000000000000005c400511fb292a50b4d81e601815f617db80430200000000000000000000000000000000000000000000000000000000000009c9000000000000000000000000000000000000000000000000000000000000000100000000000000000000000000000000000000000000000000000000000000020000000000000000000000000000000000000000000000000000000062ffe8640000000000000000000000000000000000000000000000000000000063d6a58d0000000000000000000000000000000000000000000000000000000000000000000000000000000000000000000000000000000000000000004464905901d6df0000007b02230091a7ed01230072f7006a004d60a8d4e71d599b8104250f00000000007b02230091a7ed01230072f7006a004d60a8d4e71d599b8104250f00000000000000000000000000000000000000000000000000000000000000000002000000000000000000000000000000000000000000000000000000000000024000000000000000000000000000000000000000000000000000000000000002e000000000000000000000000000000000000000000000000000000000000000020000000000000000000000000000000000000000000000000000aa87bee538000000000000000000000000000000a26b00c1f0df003000390027140000faa7190000000000000000000000000000000000000000000000000001550f7dca7000000000000000000000000000e154a7ad6e3a3af1ee3e0cc6b57135fa4ebc8ceb000000000000000000000000000000000000000000000000000000000000004130e33fe902dc6809dabe0172fcb928dcbb2160a0359edeea5821d269e2a4b0802845f3878f73c138d659724a0bd25cae5202610855e1f03ec9e8bc258748f1331c00000000000000000000000000000000000000000000000000000000000000"
                            },
                            {
                                "name": "recipient",
                                "type": "address",
                                "value": "0x7d45dfb5e1855360eac4f734c47dc2b728487e1a"
                            },
                            {
                                "name": "tokenAddress",
                                "type": "address",
                                "value": "0x5c400511fb292a50b4d81e601815f617db804302"
                            },
                            {
                                "name": "tokenId",
                                "type": "uint256",
                                "value": "2,505"
                            },
                            {
                                "name": "amount",
                                "type": "uint256",
                                "value": "1"
                            },
                            {
                                "name": "payToken",
                                "type": "address",
                                "value": "0x0000000000000000000000000000000000000000"
                            },
                            {
                                "name": "payAmount",
                                "type": "uint256",
                                "value": "0"
                            }
                        ],
                        "constructorArguments": "",
                        "name": "seaportBuy",
                        "returnParams": [],
                        "signature": "seaportBuy(bytes,address,address,uint256,uint256,address,uint256)"
                    },
                    "errorInfo": "",
                    "fromAddress": "0x92701d42e1504ef9fce6d66a2054218b048dda43",
                    "gasUsed": 234744,
                    "id": 3,
                    "methodDecoded": true,
                    "operation": "CALL",
                    "output": "",
                    "revert": false,
                    "revertMessage": "",
                    "selector": "0xb30f2249",
                    "status": true,
                    "value": "0.0075"
                },
                "nodeType": 0
            },
            "4": {
                "invocation": {
                    "address": "0x00000000006c3852cbef3e08e8df289169ede581",
                    "callData": "0x0000000000000000000000000000000000000000000000000000000000000020000000000000000000000000000000000000000000000000000000000000000000000000000000000000000000000000000000000000000000000000000000000000000000000000000000000000000000000000000000000018a59e9721180000000000000000000000000074a4ea5e66d3f180a8c22be3d3e9b9ca2ddbab69000000000000000000000000004c00500000ad104d7dbd00e3ae0a5c00560c000000000000000000000000005c400511fb292a50b4d81e601815f617db80430200000000000000000000000000000000000000000000000000000000000009c9000000000000000000000000000000000000000000000000000000000000000100000000000000000000000000000000000000000000000000000000000000020000000000000000000000000000000000000000000000000000000062ffe8640000000000000000000000000000000000000000000000000000000063d6a58d0000000000000000000000000000000000000000000000000000000000000000000000000000000000000000000000000000000000000000004464905901d6df0000007b02230091a7ed01230072f7006a004d60a8d4e71d599b8104250f00000000007b02230091a7ed01230072f7006a004d60a8d4e71d599b8104250f00000000000000000000000000000000000000000000000000000000000000000002000000000000000000000000000000000000000000000000000000000000024000000000000000000000000000000000000000000000000000000000000002e000000000000000000000000000000000000000000000000000000000000000020000000000000000000000000000000000000000000000000000aa87bee538000000000000000000000000000000a26b00c1f0df003000390027140000faa7190000000000000000000000000000000000000000000000000001550f7dca7000000000000000000000000000e154a7ad6e3a3af1ee3e0cc6b57135fa4ebc8ceb000000000000000000000000000000000000000000000000000000000000004130e33fe902dc6809dabe0172fcb928dcbb2160a0359edeea5821d269e2a4b0802845f3878f73c138d659724a0bd25cae5202610855e1f03ec9e8bc258748f1331c00000000000000000000000000000000000000000000000000000000000000",
                    "decodedMethod": {
                        "callParams": [
                            {
                                "name": "parameters",
                                "type": "(address,uint256,uint256,address,address,address,uint256,uint256,uint8,uint256,uint256,bytes32,uint256,bytes32,bytes32,uint256,(uint256,address)[],bytes)",
                                "value": [
                                    {
                                        "name": "considerationToken",
                                        "type": "address",
                                        "value": "0x0000000000000000000000000000000000000000"
                                    },
                                    {
                                        "name": "considerationIdentifier",
                                        "type": "uint256",
                                        "value": "0"
                                    },
                                    {
                                        "name": "considerationAmount",
                                        "type": "uint256",
                                        "value": "6,937,500,000,000,000"
                                    },
                                    {
                                        "name": "offerer",
                                        "type": "address",
                                        "value": "0x74a4ea5e66d3f180a8c22be3d3e9b9ca2ddbab69"
                                    },
                                    {
                                        "name": "zone",
                                        "type": "address",
                                        "value": "0x004c00500000ad104d7dbd00e3ae0a5c00560c00"
                                    },
                                    {
                                        "name": "offerToken",
                                        "type": "address",
                                        "value": "0x5c400511fb292a50b4d81e601815f617db804302"
                                    },
                                    {
                                        "name": "offerIdentifier",
                                        "type": "uint256",
                                        "value": "2,505"
                                    },
                                    {
                                        "name": "offerAmount",
                                        "type": "uint256",
                                        "value": "1"
                                    },
                                    {
                                        "name": "basicOrderType",
                                        "type": "uint8",
                                        "value": "2"
                                    },
                                    {
                                        "name": "startTime",
                                        "type": "uint256",
                                        "value": "1,660,938,340"
                                    },
                                    {
                                        "name": "endTime",
                                        "type": "uint256",
                                        "value": "1,675,011,469"
                                    },
                                    {
                                        "name": "zoneHash",
                                        "type": "bytes32",
                                        "value": "0x0000000000000000000000000000000000000000000000000000000000000000"
                                    },
                                    {
                                        "name": "salt",
                                        "type": "uint256",
                                        "value": "19,250,869,547,685,599"
                                    },
                                    {
                                        "name": "offererConduitKey",
                                        "type": "bytes32",
                                        "value": "0x0000007b02230091a7ed01230072f7006a004d60a8d4e71d599b8104250f0000"
                                    },
                                    {
                                        "name": "fulfillerConduitKey",
                                        "type": "bytes32",
                                        "value": "0x0000007b02230091a7ed01230072f7006a004d60a8d4e71d599b8104250f0000"
                                    },
                                    {
                                        "name": "totalOriginalAdditionalRecipients",
                                        "type": "uint256",
                                        "value": "2"
                                    },
                                    {
                                        "name": "additionalRecipients",
                                        "type": "(uint256,address)[]",
                                        "value": [
                                            [
                                                {
                                                    "name": "amount",
                                                    "type": "uint256",
                                                    "value": "187,500,000,000,000"
                                                },
                                                {
                                                    "name": "recipient",
                                                    "type": "address",
                                                    "value": "0x0000a26b00c1f0df003000390027140000faa719"
                                                }
                                            ],
                                            [
                                                {
                                                    "name": "amount",
                                                    "type": "uint256",
                                                    "value": "375,000,000,000,000"
                                                },
                                                {
                                                    "name": "recipient",
                                                    "type": "address",
                                                    "value": "0xe154a7ad6e3a3af1ee3e0cc6b57135fa4ebc8ceb"
                                                }
                                            ]
                                        ]
                                    },
                                    {
                                        "name": "signature",
                                        "type": "bytes",
                                        "value": "0x30e33fe902dc6809dabe0172fcb928dcbb2160a0359edeea5821d269e2a4b0802845f3878f73c138d659724a0bd25cae5202610855e1f03ec9e8bc258748f1331c"
                                    }
                                ]
                            }
                        ],
                        "constructorArguments": "",
                        "name": "fulfillBasicOrder",
                        "returnParams": [
                            {
                                "name": "fulfilled",
                                "type": "bool",
                                "value": true
                            }
                        ],
                        "signature": "fulfillBasicOrder((address,uint256,uint256,address,address,address,uint256,uint256,uint8,uint256,uint256,bytes32,uint256,bytes32,bytes32,uint256,(uint256,address)[],bytes))"
                    },
                    "errorInfo": "",
                    "fromAddress": "0xe92faed4a9a3df4eef72ad588d3936002c546bce",
                    "gasUsed": 161548,
                    "id": 4,
                    "methodDecoded": true,
                    "operation": "CALL",
                    "output": "0x0000000000000000000000000000000000000000000000000000000000000001",
                    "revert": false,
                    "revertMessage": "",
                    "selector": "0xfb0f3ee1",
                    "status": true,
                    "value": "0.0075"
                },
                "nodeType": 0
            },
            "5": {
                "event": {
                    "contract": "0x00000000006c3852cbef3e08e8df289169ede581",
                    "decodedLog": {
                        "name": "OrderFulfilled",
                        "params": [
                            {
                                "name": "offerer",
                                "type": "address",
                                "value": "0x74a4ea5e66d3f180a8c22be3d3e9b9ca2ddbab69"
                            },
                            {
                                "name": "zone",
                                "type": "address",
                                "value": "0x004c00500000ad104d7dbd00e3ae0a5c00560c00"
                            },
                            {
                                "name": "orderHash",
                                "type": "bytes32",
                                "value": "0x84c597568d68322457c0470064f602ea2d059193ded48c406bdfd97091a306c9"
                            },
                            {
                                "name": "recipient",
                                "type": "address",
                                "value": "0xe92faed4a9a3df4eef72ad588d3936002c546bce"
                            },
                            {
                                "name": "offer",
                                "type": "(uint8,address,uint256,uint256)[]",
                                "value": [
                                    [
                                        {
                                            "name": "itemType",
                                            "type": "uint8",
                                            "value": "2"
                                        },
                                        {
                                            "name": "token",
                                            "type": "address",
                                            "value": "0x5c400511fb292a50b4d81e601815f617db804302"
                                        },
                                        {
                                            "name": "identifier",
                                            "type": "uint256",
                                            "value": "2,505"
                                        },
                                        {
                                            "name": "amount",
                                            "type": "uint256",
                                            "value": "1"
                                        }
                                    ]
                                ]
                            },
                            {
                                "name": "consideration",
                                "type": "(uint8,address,uint256,uint256,address)[]",
                                "value": [
                                    [
                                        {
                                            "name": "itemType",
                                            "type": "uint8",
                                            "value": "0"
                                        },
                                        {
                                            "name": "token",
                                            "type": "address",
                                            "value": "0x0000000000000000000000000000000000000000"
                                        },
                                        {
                                            "name": "identifier",
                                            "type": "uint256",
                                            "value": "0"
                                        },
                                        {
                                            "name": "amount",
                                            "type": "uint256",
                                            "value": "6,937,500,000,000,000"
                                        },
                                        {
                                            "name": "recipient",
                                            "type": "address",
                                            "value": "0x74a4ea5e66d3f180a8c22be3d3e9b9ca2ddbab69"
                                        }
                                    ],
                                    [
                                        {
                                            "name": "itemType",
                                            "type": "uint8",
                                            "value": "0"
                                        },
                                        {
                                            "name": "token",
                                            "type": "address",
                                            "value": "0x0000000000000000000000000000000000000000"
                                        },
                                        {
                                            "name": "identifier",
                                            "type": "uint256",
                                            "value": "0"
                                        },
                                        {
                                            "name": "amount",
                                            "type": "uint256",
                                            "value": "187,500,000,000,000"
                                        },
                                        {
                                            "name": "recipient",
                                            "type": "address",
                                            "value": "0x0000a26b00c1f0df003000390027140000faa719"
                                        }
                                    ],
                                    [
                                        {
                                            "name": "itemType",
                                            "type": "uint8",
                                            "value": "0"
                                        },
                                        {
                                            "name": "token",
                                            "type": "address",
                                            "value": "0x0000000000000000000000000000000000000000"
                                        },
                                        {
                                            "name": "identifier",
                                            "type": "uint256",
                                            "value": "0"
                                        },
                                        {
                                            "name": "amount",
                                            "type": "uint256",
                                            "value": "375,000,000,000,000"
                                        },
                                        {
                                            "name": "recipient",
                                            "type": "address",
                                            "value": "0xe154a7ad6e3a3af1ee3e0cc6b57135fa4ebc8ceb"
                                        }
                                    ]
                                ]
                            }
                        ],
                        "signature": "OrderFulfilled(bytes32,address,address,address,(uint8,address,uint256,uint256)[],(uint8,address,uint256,uint256,address)[])"
                    },
                    "id": 5,
                    "logData": "0x84c597568d68322457c0470064f602ea2d059193ded48c406bdfd97091a306c9000000000000000000000000e92faed4a9a3df4eef72ad588d3936002c546bce00000000000000000000000000000000000000000000000000000000000000800000000000000000000000000000000000000000000000000000000000000120000000000000000000000000000000000000000000000000000000000000000100000000000000000000000000000000000000000000000000000000000000020000000000000000000000005c400511fb292a50b4d81e601815f617db80430200000000000000000000000000000000000000000000000000000000000009c9000000000000000000000000000000000000000000000000000000000000000100000000000000000000000000000000000000000000000000000000000000030000000000000000000000000000000000000000000000000000000000000000000000000000000000000000000000000000000000000000000000000000000000000000000000000000000000000000000000000000000000000000000000000000000000000000000000000000000000000000000000000018a59e9721180000000000000000000000000074a4ea5e66d3f180a8c22be3d3e9b9ca2ddbab690000000000000000000000000000000000000000000000000000000000000000000000000000000000000000000000000000000000000000000000000000000000000000000000000000000000000000000000000000000000000000000000000000000000000000000000000000000000000000000000000000aa87bee538000000000000000000000000000000a26b00c1f0df003000390027140000faa7190000000000000000000000000000000000000000000000000000000000000000000000000000000000000000000000000000000000000000000000000000000000000000000000000000000000000000000000000000000000000000000000000000000000000000000000000000000000000000000000000001550f7dca7000000000000000000000000000e154a7ad6e3a3af1ee3e0cc6b57135fa4ebc8ceb",
                    "logDecoded": true,
                    "operation": "EVENT",
                    "revert": false,
                    "status": true,
                    "topics": [
                        "0x9d9af8e38d66c62e2c12f0225249fd9d721c54b83f48d9352c97c6cacdcb6f31",
                        "0x00000000000000000000000074a4ea5e66d3f180a8c22be3d3e9b9ca2ddbab69",
                        "0x000000000000000000000000004c00500000ad104d7dbd00e3ae0a5c00560c00"
                    ]
                },
                "nodeType": 1
            },
            "6": {
                "invocation": {
                    "address": "0x004c00500000ad104d7dbd00e3ae0a5c00560c00",
                    "callData": "0x84c597568d68322457c0470064f602ea2d059193ded48c406bdfd97091a306c9000000000000000000000000e92faed4a9a3df4eef72ad588d3936002c546bce00000000000000000000000074a4ea5e66d3f180a8c22be3d3e9b9ca2ddbab690000000000000000000000000000000000000000000000000000000000000000",
                    "decodedMethod": {
                        "callParams": [
                            {
                                "name": "orderHash",
                                "type": "bytes32",
                                "value": "0x84c597568d68322457c0470064f602ea2d059193ded48c406bdfd97091a306c9"
                            },
                            {
                                "name": "caller",
                                "type": "address",
                                "value": "0xe92faed4a9a3df4eef72ad588d3936002c546bce"
                            },
                            {
                                "name": "offerer",
                                "type": "address",
                                "value": "0x74a4ea5e66d3f180a8c22be3d3e9b9ca2ddbab69"
                            },
                            {
                                "name": "zoneHash",
                                "type": "bytes32",
                                "value": "0x0000000000000000000000000000000000000000000000000000000000000000"
                            }
                        ],
                        "constructorArguments": "",
                        "name": "isValidOrder",
                        "returnParams": [
                            {
                                "name": "validOrderMagicValue",
                                "type": "bytes4",
                                "value": "0x0e1d31dc"
                            }
                        ],
                        "signature": "isValidOrder(bytes32,address,address,bytes32)"
                    },
                    "errorInfo": "",
                    "fromAddress": "0x00000000006c3852cbef3e08e8df289169ede581",
                    "gasUsed": 257,
                    "id": 6,
                    "methodDecoded": true,
                    "operation": "STATICCALL",
                    "output": "0x0e1d31dc00000000000000000000000000000000000000000000000000000000",
                    "revert": false,
                    "revertMessage": "",
                    "selector": "0x0e1d31dc",
                    "status": true,
                    "value": "0"
                },
                "nodeType": 0
            },
            "7": {
                "invocation": {
                    "address": "0x0000000000000000000000000000000000000001",
                    "callData": "0x92dd4a67c561c93b0d9c3c53e8a2d6428e2a80fec70e6a1b100589ae000000000000000000000000000000000000000000000000000000000000001c30e33fe902dc6809dabe0172fcb928dcbb2160a0359edeea5821d269e2a4b0802845f3878f73c138d659724a0bd25cae5202610855e1f03ec9e8bc258748f133",
                    "decodedMethod": {
                        "callParams": [
                            {
                                "name": "hash",
                                "type": "bytes32",
                                "value": "0xd04d712c92dd4a67c561c93b0d9c3c53e8a2d6428e2a80fec70e6a1b100589ae"
                            },
                            {
                                "name": "v",
                                "type": "uint256",
                                "value": "28"
                            },
                            {
                                "name": "r",
                                "type": "bytes32",
                                "value": "0x30e33fe902dc6809dabe0172fcb928dcbb2160a0359edeea5821d269e2a4b080"
                            },
                            {
                                "name": "s",
                                "type": "bytes32",
                                "value": "0x2845f3878f73c138d659724a0bd25cae5202610855e1f03ec9e8bc258748f133"
                            }
                        ],
                        "constructorArguments": "",
                        "name": "ecrecover",
                        "returnParams": [
                            {
                                "name": "",
                                "type": "address",
                                "value": "0x74a4ea5e66d3f180a8c22be3d3e9b9ca2ddbab69"
                            }
                        ],
                        "signature": "ecrecover(bytes32,uint256,bytes32,bytes32)"
                    },
                    "errorInfo": "",
                    "fromAddress": "0x00000000006c3852cbef3e08e8df289169ede581",
                    "gasUsed": 3000,
                    "id": 7,
                    "methodDecoded": true,
                    "operation": "STATICCALL",
                    "output": "0x00000000000000000000000074a4ea5e66d3f180a8c22be3d3e9b9ca2ddbab69",
                    "revert": false,
                    "revertMessage": "",
                    "selector": "0xd04d712c",
                    "status": true,
                    "value": "0"
                },
                "nodeType": 0
            },
            "8": {
                "invocation": {
                    "address": "0x1e0049783f008a0085193e00003d00cd54003c71",
                    "callData": "0x0000000000000000000000000000000000000000000000000000000000000020000000000000000000000000000000000000000000000000000000000000000100000000000000000000000000000000000000000000000000000000000000020000000000000000000000005c400511fb292a50b4d81e601815f617db80430200000000000000000000000074a4ea5e66d3f180a8c22be3d3e9b9ca2ddbab69000000000000000000000000e92faed4a9a3df4eef72ad588d3936002c546bce00000000000000000000000000000000000000000000000000000000000009c90000000000000000000000000000000000000000000000000000000000000001",
                    "decodedMethod": {
                        "callParams": [
                            {
                                "name": "transfers",
                                "type": "(uint8,address,address,address,uint256,uint256)[]",
                                "value": [
                                    [
                                        {
                                            "name": "itemType",
                                            "type": "uint8",
                                            "value": "2"
                                        },
                                        {
                                            "name": "token",
                                            "type": "address",
                                            "value": "0x5c400511fb292a50b4d81e601815f617db804302"
                                        },
                                        {
                                            "name": "from",
                                            "type": "address",
                                            "value": "0x74a4ea5e66d3f180a8c22be3d3e9b9ca2ddbab69"
                                        },
                                        {
                                            "name": "to",
                                            "type": "address",
                                            "value": "0xe92faed4a9a3df4eef72ad588d3936002c546bce"
                                        },
                                        {
                                            "name": "identifier",
                                            "type": "uint256",
                                            "value": "2,505"
                                        },
                                        {
                                            "name": "amount",
                                            "type": "uint256",
                                            "value": "1"
                                        }
                                    ]
                                ]
                            }
                        ],
                        "constructorArguments": "",
                        "name": "execute",
                        "returnParams": [
                            {
                                "name": "magicValue",
                                "type": "bytes4",
                                "value": "0x4ce34aa2"
                            }
                        ],
                        "signature": "execute((uint8,address,address,address,uint256,uint256)[])"
                    },
                    "errorInfo": "",
                    "fromAddress": "0x00000000006c3852cbef3e08e8df289169ede581",
                    "gasUsed": 80322,
                    "id": 8,
                    "methodDecoded": true,
                    "operation": "CALL",
                    "output": "0x4ce34aa200000000000000000000000000000000000000000000000000000000",
                    "revert": false,
                    "revertMessage": "",
                    "selector": "0x4ce34aa2",
                    "status": true,
                    "value": "0"
                },
                "nodeType": 0
            },
            "9": {
                "invocation": {
                    "address": "0x5c400511fb292a50b4d81e601815f617db804302",
                    "callData": "0x00000000000000000000000074a4ea5e66d3f180a8c22be3d3e9b9ca2ddbab69000000000000000000000000e92faed4a9a3df4eef72ad588d3936002c546bce00000000000000000000000000000000000000000000000000000000000009c9",
                    "decodedMethod": {
                        "callParams": [
                            {
                                "name": "from",
                                "type": "address",
                                "value": "0x74a4ea5e66d3f180a8c22be3d3e9b9ca2ddbab69"
                            },
                            {
                                "name": "to",
                                "type": "address",
                                "value": "0xe92faed4a9a3df4eef72ad588d3936002c546bce"
                            },
                            {
                                "decimalAvailable": true,
                                "name": "tokenId",
                                "type": "uint256",
                                "value": "2,505"
                            }
                        ],
                        "constructorArguments": "",
                        "name": "transferFrom",
                        "returnParams": [],
                        "signature": "transferFrom(address,address,uint256)"
                    },
                    "errorInfo": "",
                    "fromAddress": "0x1e0049783f008a0085193e00003d00cd54003c71",
                    "gasUsed": 74206,
                    "id": 9,
                    "methodDecoded": true,
                    "operation": "CALL",
                    "output": "",
                    "revert": false,
                    "revertMessage": "",
                    "selector": "0x23b872dd",
                    "status": true,
                    "value": "0"
                },
                "nodeType": 0
            }
        },
        "gasFlame": [
            {
                "children": [
                    {
                        "children": [
                            {
                                "children": [],
                                "depth": 0,
                                "name": "Initial Gas",
                                "value": 31148
                            },
                            {
                                "children": [
                                    {
                                        "children": [
                                            {
                                                "children": [],
                                                "depth": 2,
                                                "name": "markets",
                                                "value": 4747
                                            },
                                            {
                                                "children": [
                                                    {
                                                        "children": [
                                                            {
                                                                "children": [],
                                                                "depth": 4,
                                                                "name": "isValidOrder",
                                                                "value": 257
                                                            },
                                                            {
                                                                "children": [],
                                                                "depth": 4,
                                                                "name": "ecrecover",
                                                                "value": 3000
                                                            },
                                                            {
                                                                "children": [
                                                                    {
                                                                        "children": [],
                                                                        "depth": 5,
                                                                        "name": "transferFrom",
                                                                        "value": 74206
                                                                    }
                                                                ],
                                                                "depth": 4,
                                                                "name": "execute",
                                                                "value": 80322
                                                            },
                                                            {
                                                                "children": [],
                                                                "depth": 4,
                                                                "name": "fallback",
                                                                "value": 85
                                                            },
                                                            {
                                                                "children": [],
                                                                "depth": 4,
                                                                "name": "fallback",
                                                                "value": 0
                                                            },
                                                            {
                                                                "children": [],
                                                                "depth": 4,
                                                                "name": "fallback",
                                                                "value": 0
                                                            }
                                                        ],
                                                        "depth": 3,
                                                        "name": "fulfillBasicOrder",
                                                        "value": 161548
                                                    },
                                                    {
                                                        "children": [],
                                                        "depth": 3,
                                                        "name": "supportsInterface",
                                                        "value": 606
                                                    },
                                                    {
                                                        "children": [],
                                                        "depth": 3,
                                                        "name": "safeTransferFrom",
                                                        "value": 53589
                                                    }
                                                ],
                                                "depth": 2,
                                                "name": "seaportBuy",
                                                "value": 234744
                                            }
                                        ],
                                        "depth": 1,
                                        "name": "trade",
                                        "value": 267751
                                    }
                                ],
                                "depth": 0,
                                "name": "Executed Gas",
                                "value": 273113
                            }
                        ],
                        "depth": -1,
                        "name": "Actual Gas Used",
                        "value": 246461
                    },
                    {
                        "children": [],
                        "depth": -1,
                        "name": "Refunded Gas",
                        "value": 57800
                    }
                ],
                "depth": -2,
                "name": "Total Gas",
                "value": 304261
            }
        ],
        "isConfirmed": true,
        "mainTrace": [
            {
                "children": [
                    {
                        "children": [
                            {
                                "children": [
                                    {
                                        "children": [],
                                        "depth": 2,
                                        "id": 2,
                                        "order": 2
                                    },
                                    {
                                        "children": [
                                            {
                                                "children": [
                                                    {
                                                        "children": [],
                                                        "depth": 4,
                                                        "id": 5,
                                                        "order": 5
                                                    },
                                                    {
                                                        "children": [],
                                                        "depth": 4,
                                                        "id": 6,
                                                        "order": 6
                                                    },
                                                    {
                                                        "children": [],
                                                        "depth": 4,
                                                        "id": 7,
                                                        "order": 7
                                                    },
                                                    {
                                                        "children": [
                                                            {
                                                                "children": [
                                                                    {
                                                                        "children": [],
                                                                        "depth": 6,
                                                                        "id": 10,
                                                                        "order": 10
                                                                    },
                                                                    {
                                                                        "children": [],
                                                                        "depth": 6,
                                                                        "id": 11,
                                                                        "order": 11
                                                                    }
                                                                ],
                                                                "depth": 5,
                                                                "id": 9,
                                                                "order": 9
                                                            }
                                                        ],
                                                        "depth": 4,
                                                        "id": 8,
                                                        "order": 8
                                                    },
                                                    {
                                                        "children": [],
                                                        "depth": 4,
                                                        "id": 12,
                                                        "order": 12
                                                    },
                                                    {
                                                        "children": [],
                                                        "depth": 4,
                                                        "id": 13,
                                                        "order": 13
                                                    },
                                                    {
                                                        "children": [],
                                                        "depth": 4,
                                                        "id": 14,
                                                        "order": 14
                                                    }
                                                ],
                                                "depth": 3,
                                                "id": 4,
                                                "order": 4
                                            },
                                            {
                                                "children": [],
                                                "depth": 3,
                                                "id": 15,
                                                "order": 15
                                            },
                                            {
                                                "children": [
                                                    {
                                                        "children": [],
                                                        "depth": 4,
                                                        "id": 17,
                                                        "order": 17
                                                    },
                                                    {
                                                        "children": [],
                                                        "depth": 4,
                                                        "id": 18,
                                                        "order": 18
                                                    }
                                                ],
                                                "depth": 3,
                                                "id": 16,
                                                "order": 16
                                            }
                                        ],
                                        "depth": 2,
                                        "id": 3,
                                        "order": 3
                                    },
                                    {
                                        "children": [],
                                        "depth": 2,
                                        "id": 19,
                                        "order": 19
                                    }
                                ],
                                "depth": 1,
                                "id": 1,
                                "order": 1
                            }
                        ],
                        "depth": 0,
                        "id": 0,
                        "order": 0
                    }
                ],
                "depth": -1,
                "id": -1,
                "order": -1
            }
        ],
        "mainTraceNodeCount": 20,
        "parentIdMap": {
            "0": -1,
            "1": 0,
            "10": 9,
            "11": 9,
            "12": 4,
            "13": 4,
            "14": 4,
            "15": 3,
            "16": 3,
            "17": 16,
            "18": 16,
            "19": 1,
            "2": 1,
            "3": 1,
            "4": 3,
            "5": 4,
            "6": 4,
            "7": 4,
            "8": 4,
            "9": 8
        },
        "tidyTrace": [
            {
                "children": [
                    {
                        "children": [
                            {
                                "children": [
                                    {
                                        "children": [
                                            {
                                                "children": [
                                                    {
                                                        "children": [],
                                                        "depth": 4,
                                                        "id": 5,
                                                        "order": 5
                                                    },
                                                    {
                                                        "children": [
                                                            {
                                                                "children": [
                                                                    {
                                                                        "children": [],
                                                                        "depth": 6,
                                                                        "id": 10,
                                                                        "order": 10
                                                                    },
                                                                    {
                                                                        "children": [],
                                                                        "depth": 6,
                                                                        "id": 11,
                                                                        "order": 11
                                                                    }
                                                                ],
                                                                "depth": 5,
                                                                "id": 9,
                                                                "order": 9
                                                            }
                                                        ],
                                                        "depth": 4,
                                                        "id": 8,
                                                        "order": 8
                                                    },
                                                    {
                                                        "children": [],
                                                        "depth": 4,
                                                        "id": 12,
                                                        "order": 12
                                                    },
                                                    {
                                                        "children": [],
                                                        "depth": 4,
                                                        "id": 13,
                                                        "order": 13
                                                    },
                                                    {
                                                        "children": [],
                                                        "depth": 4,
                                                        "id": 14,
                                                        "order": 14
                                                    }
                                                ],
                                                "depth": 3,
                                                "id": 4,
                                                "order": 4
                                            },
                                            {
                                                "children": [
                                                    {
                                                        "children": [],
                                                        "depth": 4,
                                                        "id": 17,
                                                        "order": 17
                                                    },
                                                    {
                                                        "children": [],
                                                        "depth": 4,
                                                        "id": 18,
                                                        "order": 18
                                                    }
                                                ],
                                                "depth": 3,
                                                "id": 16,
                                                "order": 16
                                            }
                                        ],
                                        "depth": 2,
                                        "id": 3,
                                        "order": 3
                                    },
                                    {
                                        "children": [],
                                        "depth": 2,
                                        "id": 19,
                                        "order": 19
                                    }
                                ],
                                "depth": 1,
                                "id": 1,
                                "order": 1
                            }
                        ],
                        "depth": 0,
                        "id": 0,
                        "order": 0
                    }
                ],
                "depth": -1,
                "id": -1,
                "order": -1
            }
        ],
        "tidyTraceNodeCount": 16
    },
    "state_change": {
        "stateChanges": [
            {
                "address": "0x00000000006c3852cbef3e08e8df289169ede581",
                "erc": "",
                "slots": [
                    {
                        "current": "0x0000000000000000000000000000010000000000000000000000000000010001",
                        "key": "0x66afbcff31670f6df1d6ac349a7a9ae0bd3d402acdf1d37efa14749ab45cbd38",
                        "prev": "0x0000000000000000000000000000000000000000000000000000000000000000"
                    }
                ],
                "storageVariables": [
                    {
                        "name": "_orderStatus",
                        "type": "mapping(bytes32 => struct OrderStatus)",
                        "value": {
                            "pairs": [
                                {
                                    "key": "0x84c597568d68322457c0470064f602ea2d059193ded48c406bdfd97091a306c9",
                                    "value": {
                                        "fields": [
                                            {
                                                "name": "isValidated",
                                                "type": "bool",
                                                "value": {
                                                    "current": "true",
                                                    "prev": "false",
                                                    "typeTag": 1
                                                }
                                            },
                                            {
                                                "name": "isCancelled",
                                                "type": "bool",
                                                "value": {
                                                    "current": "false",
                                                    "prev": "false",
                                                    "typeTag": 1
                                                }
                                            },
                                            {
                                                "name": "numerator",
                                                "type": "uint120",
                                                "value": {
                                                    "current": "1",
                                                    "prev": "0",
                                                    "typeTag": 1
                                                }
                                            },
                                            {
                                                "name": "denominator",
                                                "type": "uint120",
                                                "value": {
                                                    "current": "1",
                                                    "prev": "0",
                                                    "typeTag": 1
                                                }
                                            }
                                        ],
                                        "typeTag": 3
                                    }
                                }
                            ],
                            "typeTag": 4
                        }
                    }
                ]
            },
            {
                "address": "0x5c400511fb292a50b4d81e601815f617db804302",
                "erc": "ERC-721",
                "slots": [
                    {
                        "current": "0x0000000000000000000000000000000000000000000000000000000000000001",
                        "key": "0xb928383d548186bda1ee08e93b53d207dced1fe794b4df0988aa44f2f43429cb",
                        "prev": "0x0000000000000000000000000000000000000000000000000000000000000000"
                    },
                    {
                        "current": "0x0000000000000000000000000000000000000000000000000000000000000000",
                        "key": "0x2424c9d8c07e95326dea2db1efc0202da40f9e908fd701668214a10a89066bcb",
                        "prev": "0x00000000000000000000000000000000000000000000000000000000000009c9"
                    },
                    {
                        "current": "0x0000000000000000000000000000000000000000000000000000000000000000",
                        "key": "0xfa862ad2fe8e70308af0d011476b85f3310addabfc10228a0fc39793be2f7665",
                        "prev": "0x0000000000000000000000000000000000000000000000000000000000000001"
                    },
                    {
                        "current": "0x0000000000000000000000007d45dfb5e1855360eac4f734c47dc2b728487e1a",
                        "key": "0xb5187520fc3715c664fff8c19002b80a23ef5ff1e57d59ed491d0f033c165077",
                        "prev": "0x00000000000000000000000074a4ea5e66d3f180a8c22be3d3e9b9ca2ddbab69"
                    },
                    {
                        "current": "0x00000000000000000000000000000000000000000000000000000000000009c9",
                        "key": "0x3be9067a92548fc24f7d6de89c57c116b14713b1de438b80d7a8022f22da8bf1",
                        "prev": "0x0000000000000000000000000000000000000000000000000000000000000000"
                    }
                ],
                "storageVariables": [
                    {
                        "name": "_balances",
                        "type": "mapping(address => uint256)",
                        "value": {
                            "pairs": [
                                {
                                    "key": "0x74a4ea5e66d3f180a8c22be3d3e9b9ca2ddbab69",
                                    "value": {
                                        "current": "0",
                                        "prev": "1",
                                        "typeTag": 1
                                    }
                                },
                                {
                                    "key": "0x7d45dfb5e1855360eac4f734c47dc2b728487e1a",
                                    "value": {
                                        "current": "1",
                                        "prev": "0",
                                        "typeTag": 1
                                    }
                                }
                            ],
                            "typeTag": 4
                        }
                    },
                    {
                        "name": "_ownedTokens",
                        "type": "mapping(address => mapping(uint256 => uint256))",
                        "value": {
                            "pairs": [
                                {
                                    "key": "0x74a4ea5e66d3f180a8c22be3d3e9b9ca2ddbab69",
                                    "value": {
                                        "pairs": [
                                            {
                                                "key": "0",
                                                "value": {
                                                    "current": "0",
                                                    "prev": "2505",
                                                    "typeTag": 1
                                                }
                                            }
                                        ],
                                        "typeTag": 4
                                    }
                                },
                                {
                                    "key": "0x7d45dfb5e1855360eac4f734c47dc2b728487e1a",
                                    "value": {
                                        "pairs": [
                                            {
                                                "key": "0",
                                                "value": {
                                                    "current": "2505",
                                                    "prev": "0",
                                                    "typeTag": 1
                                                }
                                            }
                                        ],
                                        "typeTag": 4
                                    }
                                }
                            ],
                            "typeTag": 4
                        }
                    },
                    {
                        "name": "_owners",
                        "type": "mapping(uint256 => address)",
                        "value": {
                            "pairs": [
                                {
                                    "key": "2505",
                                    "value": {
                                        "current": "0x7d45dfb5e1855360eac4f734c47dc2b728487e1a",
                                        "prev": "0x74a4ea5e66d3f180a8c22be3d3e9b9ca2ddbab69",
                                        "typeTag": 1
                                    }
                                }
                            ],
                            "typeTag": 4
                        }
                    }
                ]
            }
        ]
    }
}