{
    "balance_change": {
        "balanceChanges": [
            {
                "account": "0x0000000000000000000000000000000000000000",
                "assets": [
                    {
                        "address": "0x52eb3ba8dded994a320fc2a365623eafadbab1db",
                        "amount": "1",
                        "iconUrl": "",
                        "isERC1155": false,
                        "isERC721": true,
                        "sign": false,
                        "tokenID": "531",
                        "value": ""
                    }
                ]
            },
            {
                "account": "0xce689bbbabd31e15b40712fac8969a004c711e8e",
                "assets": [
                    {
                        "address": "0x52eb3ba8dded994a320fc2a365623eafadbab1db",
                        "amount": "1",
                        "iconUrl": "",
                        "isERC1155": false,
                        "isERC721": true,
                        "sign": true,
                        "tokenID": "531",
                        "value": ""
                    }
                ]
            }
        ]
    },
    "profile": {
        "basic_info": {
            "baseFee": "14.353410964",
            "blockNumber": 16330923,
            "callData": "0xc01b37660000000000000000000000000000000000000000000000000000000000000040000000000000000000000000000000000000000000000000000000000000008000000000000000000000000000000000000000000000000000000000000000010000000000000000000000000000000000000000000000000000000000000b91000000000000000000000000000000000000000000000000000000000000000100000000000000000000000000000000000000000000000000000000000019e2",
            "debugEnable": true,
            "errorInfo": "",
            "eventCount": 1,
            "feeRecipient": "0xe6e30c2f98cd24f1abdf46f8d3fb933117f2de28",
            "formatValue": "0",
            "gasLimit": 178772,
            "gasPrice": "14.771550617",
            "gasUsed": 148977,
            "intTxnCount": 2,
            "internalRevert": false,
            "internalRevertMessage": "",
            "isContractCreation": false,
            "isFlashloan": false,
            "maxFee": "",
            "nonce": 18,
            "overwritedBlockNumber": -1,
            "priorityFee": "",
            "receiver": "0x52eb3ba8dded994a320fc2a365623eafadbab1db",
            "revertMessage": "",
            "sender": "0xce689bbbabd31e15b40712fac8969a004c711e8e",
            "simulationEnable": true,
            "sourceTxnHash": "0x78dd4d2f56acf4390cabd0eceff37d03f3595ed4f3cdcdae3e5276159cd9ad9f",
            "status": true,
            "timestamp": "2023-01-04T04:06:23Z",
            "transactionFee": "0.002200621296268809",
            "txnHash": "0x78dd4d2f56acf4390cabd0eceff37d03f3595ed4f3cdcdae3e5276159cd9ad9f",
            "txnIndex": 126,
            "type": 0,
            "value": "0"
        },
        "fund_flow": [
            {
                "amount": "1",
                "from": "0x0000000000000000000000000000000000000000",
                "id": 1,
                "isERC1155": false,
                "isERC721": true,
                "isReverted": false,
                "order": 1,
                "to": "0xce689bbbabd31e15b40712fac8969a004c711e8e",
                "token": "0x52eb3ba8dded994a320fc2a365623eafadbab1db",
                "tokenID": "531"
            }
        ],
        "token_infos": [
            {
                "address": "0xeeeeeeeeeeeeeeeeeeeeeeeeeeeeeeeeeeeeeeee",
                "decimals": 18
            },
            {
                "address": "0xc02aaa39b223fe8d0a0e5c4f27ead9083c756cc2",
                "decimals": 18
            }
        ]
    },
    "address_label": {
        "labels": [
            {
                "address": "0xeeeeeeeeeeeeeeeeeeeeeeeeeeeeeeeeeeeeeeee",
                "label": "Ether"
            },
            {
                "address": "0x52eb3ba8dded994a320fc2a365623eafadbab1db",
                "label": "Bad Bunny (BBUN)"
            },
            {
                "address": "0xe83dd605b70b47c8af86580bdd4fcb987ff36e60",
                "label": "BTFDRabbits: BTFD Token"
            },
            {
                "address": "0x87212aa99f65611f6d67e0fbad76d06478753704",
                "label": "BADDIES"
            },
            {
                "address": "0x0000000000000000000000000000000000000001",
                "label": "Precompiled"
            },
            {
                "address": "0x0000000000000000000000000000000000000002",
                "label": "Precompiled"
            },
            {
                "address": "0x0000000000000000000000000000000000000003",
                "label": "Precompiled"
            },
            {
                "address": "0x0000000000000000000000000000000000000004",
                "label": "Precompiled"
            }
        ]
    },
    "trace": {
        "accountLabels": null,
        "dataMap": {
            "-1": {
                "invocation": {
                    "address": "0xce689bbbabd31e15b40712fac8969a004c711e8e",
                    "callData": "",
                    "decodedMethod": null,
                    "errorInfo": "",
                    "fromAddress": "",
                    "gasUsed": 0,
                    "id": -1,
                    "methodDecoded": false,
                    "operation": "",
                    "output": "",
                    "revert": false,
                    "revertMessage": "",
                    "selector": "",
                    "status": false,
                    "value": ""
                },
                "nodeType": 0
            },
            "0": {
                "invocation": {
                    "address": "0x52eb3ba8dded994a320fc2a365623eafadbab1db",
                    "callData": "0x0000000000000000000000000000000000000000000000000000000000000040000000000000000000000000000000000000000000000000000000000000008000000000000000000000000000000000000000000000000000000000000000010000000000000000000000000000000000000000000000000000000000000b91000000000000000000000000000000000000000000000000000000000000000100000000000000000000000000000000000000000000000000000000000019e2",
                    "decodedMethod": {
                        "callParams": [
                            {
                                "name": "BADids",
                                "type": "uint256[]",
                                "value": [
                                    "2,961"
                                ]
                            },
                            {
                                "name": "BTFDids",
                                "type": "uint256[]",
                                "value": [
                                    "6,626"
                                ]
                            }
                        ],
                        "constructorArguments": "",
                        "name": "partnerClaim",
                        "returnParams": [],
                        "signature": "partnerClaim(uint256[],uint256[])"
                    },
                    "errorInfo": "",
                    "fromAddress": "0xce689bbbabd31e15b40712fac8969a004c711e8e",
                    "gasUsed": 148977,
                    "id": 0,
                    "methodDecoded": true,
                    "operation": "CALL",
                    "output": "",
                    "revert": false,
                    "revertMessage": "",
                    "selector": "0xc01b3766",
                    "status": true,
                    "value": "0"
                },
                "nodeType": 0
            },
            "1": {
                "invocation": {
                    "address": "0x87212aa99f65611f6d67e0fbad76d06478753704",
                    "callData": "0x0000000000000000000000000000000000000000000000000000000000000b91",
                    "decodedMethod": {
                        "callParams": [
                            {
                                "name": "tokenId",
                                "type": "uint256",
                                "value": "2,961"
                            }
                        ],
                        "constructorArguments": "",
                        "name": "ownerOf",
                        "returnParams": [
                            {
                                "name": "",
                                "type": "address",
                                "value": "0xce689bbbabd31e15b40712fac8969a004c711e8e"
                            }
                        ],
                        "signature": "ownerOf(uint256)"
                    },
                    "errorInfo": "",
                    "fromAddress": "0x52eb3ba8dded994a320fc2a365623eafadbab1db",
                    "gasUsed": 5239,
                    "id": 1,
                    "methodDecoded": true,
                    "operation": "STATICCALL",
                    "output": "0x000000000000000000000000ce689bbbabd31e15b40712fac8969a004c711e8e",
                    "revert": false,
                    "revertMessage": "",
                    "selector": "0x6352211e",
                    "status": true,
                    "value": "0"
                },
                "nodeType": 0
            },
            "2": {
                "invocation": {
                    "address": "0xe83dd605b70b47c8af86580bdd4fcb987ff36e60",
                    "callData": "0x00000000000000000000000000000000000000000000000000000000000019e2",
                    "decodedMethod": {
                        "callParams": [
                            {
                                "name": "tokenId",
                                "type": "uint256",
                                "value": "6,626"
                            }
                        ],
                        "constructorArguments": "",
                        "name": "ownerOf",
                        "returnParams": [
                            {
                                "name": "",
                                "type": "address",
                                "value": "0xce689bbbabd31e15b40712fac8969a004c711e8e"
                            }
                        ],
                        "signature": "ownerOf(uint256)"
                    },
                    "errorInfo": "",
                    "fromAddress": "0x52eb3ba8dded994a320fc2a365623eafadbab1db",
                    "gasUsed": 2962,
                    "id": 2,
                    "methodDecoded": true,
                    "operation": "STATICCALL",
                    "output": "0x000000000000000000000000ce689bbbabd31e15b40712fac8969a004c711e8e",
                    "revert": false,
                    "revertMessage": "",
                    "selector": "0x6352211e",
                    "status": true,
                    "value": "0"
                },
                "nodeType": 0
            },
            "3": {
                "event": {
                    "contract": "0x52eb3ba8dded994a320fc2a365623eafadbab1db",
                    "decodedLog": {
                        "name": "Transfer",
                        "params": [
                            {
                                "name": "from",
                                "type": "address",
                                "value": "0x0000000000000000000000000000000000000000"
                            },
                            {
                                "name": "to",
                                "type": "address",
                                "value": "0xce689bbbabd31e15b40712fac8969a004c711e8e"
                            },
                            {
                                "decimalAvailable": true,
                                "name": "tokenId",
                                "type": "uint256",
                                "value": "531"
                            }
                        ],
                        "signature": "Transfer(address,address,uint256)"
                    },
                    "id": 3,
                    "logData": "0x",
                    "logDecoded": true,
                    "operation": "EVENT",
                    "revert": false,
                    "status": true,
                    "topics": [
                        "0xddf252ad1be2c89b69c2b068fc378daa952ba7f163c4a11628f55a4df523b3ef",
                        "0x0000000000000000000000000000000000000000000000000000000000000000",
                        "0x000000000000000000000000ce689bbbabd31e15b40712fac8969a004c711e8e",
                        "0x0000000000000000000000000000000000000000000000000000000000000213"
                    ]
                },
                "nodeType": 1
            }
        },
        "gasFlame": [
            {
                "children": [
                    {
                        "children": [
                            {
                                "children": [],
                                "depth": 0,
                                "name": "Initial Gas",
                                "value": 21928
                            },
                            {
                                "children": [
                                    {
                                        "children": [],
                                        "depth": 1,
                                        "name": "ownerOf",
                                        "value": 5239
                                    },
                                    {
                                        "children": [],
                                        "depth": 1,
                                        "name": "ownerOf",
                                        "value": 2962
                                    }
                                ],
                                "depth": 0,
                                "name": "Executed Gas",
                                "value": 127049
                            }
                        ],
                        "depth": -1,
                        "name": "Actual Gas Used",
                        "value": 148977
                    },
                    {
                        "children": [],
                        "depth": -1,
                        "name": "Refunded Gas",
                        "value": 0
                    }
                ],
                "depth": -2,
                "name": "Total Gas",
                "value": 148977
            }
        ],
        "isConfirmed": true,
        "mainTrace": [
            {
                "children": [
                    {
                        "children": [
                            {
                                "children": [],
                                "depth": 1,
                                "id": 1,
                                "order": 1
                            },
                            {
                                "children": [],
                                "depth": 1,
                                "id": 2,
                                "order": 2
                            },
                            {
                                "children": [],
                                "depth": 1,
                                "id": 3,
                                "order": 3
                            }
                        ],
                        "depth": 0,
                        "id": 0,
                        "order": 0
                    }
                ],
                "depth": -1,
                "id": -1,
                "order": -1
            }
        ],
        "mainTraceNodeCount": 4,
        "parentIdMap": {
            "0": -1,
            "1": 0,
            "2": 0,
            "3": 0
        },
        "tidyTrace": [
            {
                "children": [
                    {
                        "children": [
                            {
                                "children": [],
                                "depth": 1,
                                "id": 3,
                                "order": 3
                            }
                        ],
                        "depth": 0,
                        "id": 0,
                        "order": 0
                    }
                ],
                "depth": -1,
                "id": -1,
                "order": -1
            }
        ],
        "tidyTraceNodeCount": 2
    },
    "state_change": {
        "stateChanges": [
            {
                "address": "0x52eb3ba8dded994a320fc2a365623eafadbab1db",
                "erc": "ERC-721",
                "slots": [
                    {
                        "current": "0x000000020000000063b4fb3fce689bbbabd31e15b40712fac8969a004c711e8e",
                        "key": "0x2802dac19f8aa893579d67f0bfe5b39d9490270df019d5dd4050b9bdfecee5cc",
                        "prev": "0x0000000000000000000000000000000000000000000000000000000000000000"
                    },
                    {
                        "current": "0x0000000000000000000000000000000000000000000000000000000000000214",
                        "key": "0x0000000000000000000000000000000000000000000000000000000000000000",
                        "prev": "0x0000000000000000000000000000000000000000000000000000000000000213"
                    },
                    {
                        "current": "0x0000000000000000000000000000000000000000000000000000000000000001",
                        "key": "0xbaa9396869042268c41299866f994c6876ad525457365b6f93cafd10387986fc",
                        "prev": "0x0000000000000000000000000000000000000000000000000000000000000000"
                    },
                    {
                        "current": "0x00000000000000000000000000000000000000000000000000000000000000ef",
                        "key": "0x0000000000000000000000000000000000000000000000000000000000000011",
                        "prev": "0x00000000000000000000000000000000000000000000000000000000000000ee"
                    },
                    {
                        "current": "0x0000000000000000000000000000000000000000000000000000000000000001",
                        "key": "0x7e7a9542d53de87c6fb118e422de8c92084a253cbe57d1f4f3088bffe3477b69",
                        "prev": "0x0000000000000000000000000000000000000000000000000000000000000000"
                    },
                    {
                        "current": "0x0000000000000000000000000000000000000000000000010000000000000001",
                        "key": "0xee39b218f0e13a3358b17fb90d4db84aed4c8fb23bf458a2e125e684935a444c",
                        "prev": "0x0000000000000000000000000000000000000000000000000000000000000000"
                    }
                ],
                "storageVariables": [
                    {
                        "name": "_currentIndex",
                        "type": "uint256",
                        "value": {
                            "current": "532",
                            "prev": "531",
                            "typeTag": 1
                        }
                    },
                    {
                        "name": "BTFDtracker",
                        "type": "mapping(uint256 => bool)",
                        "value": {
                            "pairs": [
                                {
                                    "key": "6626",
                                    "value": {
                                        "current": "true",
                                        "prev": "false",
                                        "typeTag": 1
                                    }
                                }
                            ],
                            "typeTag": 4
                        }
                    },
                    {
                        "name": "claimCounter",
                        "type": "uint256",
                        "value": {
                            "current": "239",
                            "prev": "238",
                            "typeTag": 1
                        }
                    },
                    {
                        "name": "BADtracker",
                        "type": "mapping(uint256 => bool)",
                        "value": {
                            "pairs": [
                                {
                                    "key": "2961",
                                    "value": {
                                        "current": "true",
                                        "prev": "false",
                                        "typeTag": 1
                                    }
                                }
                            ],
                            "typeTag": 4
                        }
                    },
                    {
                        "name": "_packedAddressData",
                        "type": "mapping(address => uint256)",
                        "value": {
                            "pairs": [
                                {
                                    "key": "0xce689bbbabd31e15b40712fac8969a004c711e8e",
                                    "value": {
                                        "current": "18446744073709551617",
                                        "prev": "0",
                                        "typeTag": 1
                                    }
                                }
                            ],
                            "typeTag": 4
                        }
                    },
                    {
                        "name": "_packedOwnerships",
                        "type": "mapping(uint256 => uint256)",
                        "value": {
                            "pairs": [
                                {
                                    "key": "531",
                                    "value": {
                                        "current": "53919893336746087104402535804236084721101212135861844485226351369870",
                                        "prev": "0",
                                        "typeTag": 1
                                    }
                                }
                            ],
                            "typeTag": 4
                        }
                    }
                ]
            }
        ]
    }
}