{
    "balance_change": {
        "balanceChanges": [
            {
                "account": "0x1d1bd550197c7c0787b9ad0aea9c1cca66ee0e90",
                "assets": [
                    {
                        "address": "0xb8c77482e45f1f44de1745f52c74426c631bdd52",
                        "amount": "12.3430863",
                        "iconUrl": "https://assets.blocksec.com/icon/83472e8a72b0d18c5a7dce7cfd6061e36458364fe4dbdde86ffdbe6a7302a8cd.png",
                        "isERC1155": false,
                        "isERC721": false,
                        "sign": false,
                        "value": ""
                    }
                ]
            },
            {
                "account": "0x046bcfa44669de56d52d8dce5cc94fd925a80dd6",
                "assets": [
                    {
                        "address": "0xb8c77482e45f1f44de1745f52c74426c631bdd52",
                        "amount": "12.3430863",
                        "iconUrl": "https://assets.blocksec.com/icon/83472e8a72b0d18c5a7dce7cfd6061e36458364fe4dbdde86ffdbe6a7302a8cd.png",
                        "isERC1155": false,
                        "isERC721": false,
                        "sign": true,
                        "value": ""
                    }
                ]
            }
        ]
    },
    "profile": {
        "basic_info": {
            "baseFee": "",
            "blockNumber": 7617799,
            "callData": "0xa9059cbb000000000000000000000000046bcfa44669de56d52d8dce5cc94fd925a80dd6000000000000000000000000000000000000000000000000ab4b7397e77d9800",
            "debugEnable": true,
            "errorInfo": "",
            "eventCount": 1,
            "feeRecipient": "0x829bd824b016326a401d083b33d092293333a830",
            "formatValue": "0",
            "gasLimit": 250000,
            "gasPrice": "3.3",
            "gasUsed": 52578,
            "intTxnCount": 0,
            "internalRevert": false,
            "internalRevertMessage": "",
            "isContractCreation": false,
            "isFlashloan": false,
            "maxFee": "",
            "nonce": 6879,
            "overwritedBlockNumber": -1,
            "priorityFee": "",
            "receiver": "0xb8c77482e45f1f44de1745f52c74426c631bdd52",
            "revertMessage": "",
            "sender": "0x1d1bd550197c7c0787b9ad0aea9c1cca66ee0e90",
            "simulationEnable": true,
            "sourceTxnHash": "0x78da166620dcdefdc5ed9997c9f36dd196f3bbb316a2b485e4f5ad91cbf176dd",
            "status": true,
            "timestamp": "2019-04-22T13:52:05Z",
            "transactionFee": "0.0001735074",
            "txnHash": "0x78da166620dcdefdc5ed9997c9f36dd196f3bbb316a2b485e4f5ad91cbf176dd",
            "txnIndex": 89,
            "type": 0,
            "value": "0"
        },
        "fund_flow": [
            {
                "amount": "12.3430863",
                "from": "0x1d1bd550197c7c0787b9ad0aea9c1cca66ee0e90",
                "id": 1,
                "isERC1155": false,
                "isERC721": false,
                "isReverted": false,
                "order": 1,
                "to": "0x046bcfa44669de56d52d8dce5cc94fd925a80dd6",
                "token": "0xb8c77482e45f1f44de1745f52c74426c631bdd52"
            }
        ],
        "token_infos": [
            {
                "address": "0xb8c77482e45f1f44de1745f52c74426c631bdd52",
                "decimals": 18
            },
            {
                "address": "0xc02aaa39b223fe8d0a0e5c4f27ead9083c756cc2",
                "decimals": 18
            },
            {
                "address": "0xeeeeeeeeeeeeeeeeeeeeeeeeeeeeeeeeeeeeeeee",
                "decimals": 18
            }
        ]
    },
    "address_label": {
        "labels": [
            {
                "address": "0x046bcfa44669de56d52d8dce5cc94fd925a80dd6",
                "label": "BINANCE"
            },
            {
                "address": "0x1d1bd550197c7c0787b9ad0aea9c1cca66ee0e90",
                "label": "Coinhako: Old Address 2"
            },
            {
                "address": "0x0000000000000000000000000000000000000001",
                "label": "Precompiled"
            },
            {
                "address": "0x0000000000000000000000000000000000000002",
                "label": "Precompiled"
            },
            {
                "address": "0x0000000000000000000000000000000000000003",
                "label": "Precompiled"
            },
            {
                "address": "0x0000000000000000000000000000000000000004",
                "label": "Precompiled"
            },
            {
                "address": "0xeeeeeeeeeeeeeeeeeeeeeeeeeeeeeeeeeeeeeeee",
                "label": "Ether"
            },
            {
                "address": "0xb8c77482e45f1f44de1745f52c74426c631bdd52",
                "label": "Binance: BNB Token"
            }
        ]
    },
    "trace": {
        "accountLabels": null,
        "dataMap": {
            "-1": {
                "invocation": {
                    "address": "0x1d1bd550197c7c0787b9ad0aea9c1cca66ee0e90",
                    "callData": "",
                    "decodedMethod": null,
                    "errorInfo": "",
                    "fromAddress": "",
                    "gasUsed": 0,
                    "id": -1,
                    "methodDecoded": false,
                    "operation": "",
                    "output": "",
                    "revert": false,
                    "revertMessage": "",
                    "selector": "",
                    "status": false,
                    "value": ""
                },
                "nodeType": 0
            },
            "0": {
                "invocation": {
                    "address": "0xb8c77482e45f1f44de1745f52c74426c631bdd52",
                    "callData": "0x000000000000000000000000046bcfa44669de56d52d8dce5cc94fd925a80dd6000000000000000000000000000000000000000000000000ab4b7397e77d9800",
                    "decodedMethod": {
                        "callParams": [
                            {
                                "name": "_to",
                                "type": "address",
                                "value": "0x046bcfa44669de56d52d8dce5cc94fd925a80dd6"
                            },
                            {
                                "decimalAvailable": true,
                                "name": "_value",
                                "type": "uint256",
                                "value": "12,343,086,300,000,000,000"
                            }
                        ],
                        "constructorArguments": "",
                        "name": "transfer",
                        "returnParams": [],
                        "signature": "transfer(address,uint256)"
                    },
                    "errorInfo": "",
                    "fromAddress": "0x1d1bd550197c7c0787b9ad0aea9c1cca66ee0e90",
                    "gasUsed": 52578,
                    "id": 0,
                    "methodDecoded": true,
                    "operation": "CALL",
                    "output": "",
                    "revert": false,
                    "revertMessage": "",
                    "selector": "0xa9059cbb",
                    "status": true,
                    "value": "0"
                },
                "nodeType": 0
            },
            "1": {
                "event": {
                    "contract": "0xb8c77482e45f1f44de1745f52c74426c631bdd52",
                    "decodedLog": {
                        "name": "Transfer",
                        "params": [
                            {
                                "name": "from",
                                "type": "address",
                                "value": "0x1d1bd550197c7c0787b9ad0aea9c1cca66ee0e90"
                            },
                            {
                                "name": "to",
                                "type": "address",
                                "value": "0x046bcfa44669de56d52d8dce5cc94fd925a80dd6"
                            },
                            {
                                "decimalAvailable": true,
                                "name": "value",
                                "type": "uint256",
                                "value": "12,343,086,300,000,000,000"
                            }
                        ],
                        "signature": "Transfer(address,address,uint256)"
                    },
                    "id": 1,
                    "logData": "0x000000000000000000000000000000000000000000000000ab4b7397e77d9800",
                    "logDecoded": true,
                    "operation": "EVENT",
                    "revert": false,
                    "status": true,
                    "topics": [
                        "0xddf252ad1be2c89b69c2b068fc378daa952ba7f163c4a11628f55a4df523b3ef",
                        "0x0000000000000000000000001d1bd550197c7c0787b9ad0aea9c1cca66ee0e90",
                        "0x000000000000000000000000046bcfa44669de56d52d8dce5cc94fd925a80dd6"
                    ]
                },
                "nodeType": 1
            }
        },
        "gasFlame": [
            {
                "children": [
                    {
                        "children": [
                            {
                                "children": [],
                                "depth": 0,
                                "name": "Initial Gas",
                                "value": 23256
                            },
                            {
                                "children": [],
                                "depth": 0,
                                "name": "Executed Gas",
                                "value": 29322
                            }
                        ],
                        "depth": -1,
                        "name": "Actual Gas Used",
                        "value": 52578
                    },
                    {
                        "children": [],
                        "depth": -1,
                        "name": "Refunded Gas",
                        "value": 0
                    }
                ],
                "depth": -2,
                "name": "Total Gas",
                "value": 52578
            }
        ],
        "isConfirmed": true,
        "mainTrace": [
            {
                "children": [
                    {
                        "children": [
                            {
                                "children": [],
                                "depth": 1,
                                "id": 1,
                                "order": 1
                            }
                        ],
                        "depth": 0,
                        "id": 0,
                        "order": 0
                    }
                ],
                "depth": -1,
                "id": -1,
                "order": -1
            }
        ],
        "mainTraceNodeCount": 2,
        "parentIdMap": {
            "0": -1,
            "1": 0
        },
        "tidyTrace": [
            {
                "children": [
                    {
                        "children": [
                            {
                                "children": [],
                                "depth": 1,
                                "id": 1,
                                "order": 1
                            }
                        ],
                        "depth": 0,
                        "id": 0,
                        "order": 0
                    }
                ],
                "depth": -1,
                "id": -1,
                "order": -1
            }
        ],
        "tidyTraceNodeCount": 2
    },
    "state_change": {
        "stateChanges": [
            {
                "address": "0xb8c77482e45f1f44de1745f52c74426c631bdd52",
                "erc": "",
                "slots": [
                    {
                        "current": "0x000000000000000000000000000000000000000000000007cff8729be9313400",
                        "key": "0x3aa1a4ce424b5b4b79b68c2931f2fdd95e40212008cf146575990fc11c7baff1",
                        "prev": "0x0000000000000000000000000000000000000000000000087b43e633d0aecc00"
                    },
                    {
                        "current": "0x000000000000000000000000000000000000000000000000ab4b7397e77d9800",
                        "key": "0x9eab92f038cf351e981861d9e2792da10b036b8f07eca72a58a66c949e52b5bc",
                        "prev": "0x0000000000000000000000000000000000000000000000000000000000000000"
                    }
                ],
                "storageVariables": [
                    {
                        "name": "balanceOf",
                        "type": "mapping(address => uint256)",
                        "value": {
                            "pairs": [
                                {
                                    "key": "0x046bcfa44669de56d52d8dce5cc94fd925a80dd6",
                                    "value": {
                                        "current": "12343086300000000000",
                                        "prev": "0",
                                        "typeTag": 1
                                    }
                                },
                                {
                                    "key": "0x1d1bd550197c7c0787b9ad0aea9c1cca66ee0e90",
                                    "value": {
                                        "current": "144113062290000000000",
                                        "prev": "156456148590000000000",
                                        "typeTag": 1
                                    }
                                }
                            ],
                            "typeTag": 4
                        }
                    }
                ]
            }
        ]
    }
}