{
    "balance_change": {
        "balanceChanges": []
    },
    "profile": {
        "basic_info": {
            "baseFee": "",
            "blockNumber": 6828131,
            "callData": "0x095bcdb6000000000000000000000000f3a95fb7cbbf612bd9982083934c7b5b29f7828b00800000000000960000000000000000000000000000000000000000000000de0000000000000000000000000000000000000000000000000000000000000001",
            "debugEnable": true,
            "errorInfo": "",
            "eventCount": 3,
            "feeRecipient": "0x1ca43b645886c98d7eb7d27ec16ea59f509cbe1a",
            "formatValue": "0",
            "gasLimit": 98985,
            "gasPrice": "17.3",
            "gasUsed": 82882,
            "intTxnCount": 10,
            "internalRevert": false,
            "internalRevertMessage": "",
            "isContractCreation": false,
            "isFlashloan": false,
            "maxFee": "",
            "nonce": 130,
            "overwritedBlockNumber": -1,
            "priorityFee": "",
            "receiver": "0x8562c38485b1e8ccd82e44f89823da76c98eb0ab",
            "revertMessage": "",
            "sender": "0x588a0bd42a9877683607ffb3e5f86afc351df009",
            "simulationEnable": true,
            "sourceTxnHash": "0x78b808e53671886842577fa54c09f9b80250cb2abba1fafa6dd7a5c2a3c30d3a",
            "status": true,
            "timestamp": "2018-12-05T02:57:58Z",
            "transactionFee": "0.0014338586",
            "txnHash": "0x78b808e53671886842577fa54c09f9b80250cb2abba1fafa6dd7a5c2a3c30d3a",
            "txnIndex": 36,
            "type": 0,
            "value": "0"
        },
        "fund_flow": [
            {
                "amount": "0",
                "from": "0x588a0bd42a9877683607ffb3e5f86afc351df009",
                "id": 1,
                "isERC1155": false,
                "isERC721": false,
                "isReverted": false,
                "order": 1,
                "to": "0x862e4dc54eceaada8a2574e0d5d5d730f692466f",
                "token": "0xf629cbd94d3791c9250152bd8dfbdf380e2a3b9c"
            }
        ],
        "token_infos": [
            {
                "address": "0xc02aaa39b223fe8d0a0e5c4f27ead9083c756cc2",
                "decimals": 18
            },
            {
                "address": "0xf629cbd94d3791c9250152bd8dfbdf380e2a3b9c",
                "decimals": 18
            },
            {
                "address": "0xeeeeeeeeeeeeeeeeeeeeeeeeeeeeeeeeeeeeeeee",
                "decimals": 18
            }
        ]
    },
    "address_label": {
        "labels": [
            {
                "address": "0x0000000000000000000000000000000000000003",
                "label": "Precompiled"
            },
            {
                "address": "0x0000000000000000000000000000000000000004",
                "label": "Precompiled"
            },
            {
                "address": "0xeeeeeeeeeeeeeeeeeeeeeeeeeeeeeeeeeeeeeeee",
                "label": "Ether"
            },
            {
                "address": "0xf629cbd94d3791c9250152bd8dfbdf380e2a3b9c",
                "label": "Enjin: ENJ Token"
            },
            {
                "address": "0x0000000000000000000000000000000000000001",
                "label": "Precompiled"
            },
            {
                "address": "0x0000000000000000000000000000000000000002",
                "label": "Precompiled"
            }
        ]
    },
    "trace": {
        "accountLabels": null,
        "dataMap": {
            "-1": {
                "invocation": {
                    "address": "0x588a0bd42a9877683607ffb3e5f86afc351df009",
                    "callData": "",
                    "decodedMethod": null,
                    "errorInfo": "",
                    "fromAddress": "",
                    "gasUsed": 0,
                    "id": -1,
                    "methodDecoded": false,
                    "operation": "",
                    "output": "",
                    "revert": false,
                    "revertMessage": "",
                    "selector": "",
                    "status": false,
                    "value": ""
                },
                "nodeType": 0
            },
            "0": {
                "invocation": {
                    "address": "0x8562c38485b1e8ccd82e44f89823da76c98eb0ab",
                    "callData": "0x000000000000000000000000f3a95fb7cbbf612bd9982083934c7b5b29f7828b00800000000000960000000000000000000000000000000000000000000000de0000000000000000000000000000000000000000000000000000000000000001",
                    "decodedMethod": {
                        "callParams": [
                            {
                                "name": "_to",
                                "type": "address",
                                "value": "0xf3a95fb7cbbf612bd9982083934c7b5b29f7828b"
                            },
                            {
                                "name": "_tokenId",
                                "type": "uint256",
                                "value": "226,156,424,291,634,135,751,922,388,097,208,145,394,331,419,950,041,641,992,882,263,370,632,265,950"
                            },
                            {
                                "name": "_salePrice",
                                "type": "uint256",
                                "value": "1"
                            }
                        ],
                        "constructorArguments": "",
                        "name": "transfer",
                        "returnParams": [],
                        "signature": "transfer(address,uint256,uint256)"
                    },
                    "errorInfo": "",
                    "fromAddress": "0x588a0bd42a9877683607ffb3e5f86afc351df009",
                    "gasUsed": 82882,
                    "id": 0,
                    "methodDecoded": true,
                    "operation": "CALL",
                    "output": "",
                    "revert": false,
                    "revertMessage": "",
                    "selector": "0x095bcdb6",
                    "status": true,
                    "value": "0"
                },
                "nodeType": 0
            },
            "1": {
                "invocation": {
                    "address": "0xe23e75c8ca2a1e6c24fbb509a9379b68c5a267a8",
                    "callData": "0x0000000000000000000000004e643a25a64952895f553f20252861258727174e000000000000000000000000f3a95fb7cbbf612bd9982083934c7b5b29f7828b00800000000000960000000000000000000000000000000000000000000000de0000000000000000000000000000000000000000000000000000000000000001",
                    "decodedMethod": null,
                    "errorInfo": "",
                    "fromAddress": "0x8562c38485b1e8ccd82e44f89823da76c98eb0ab",
                    "gasUsed": 72428,
                    "id": 1,
                    "methodDecoded": false,
                    "operation": "DELEGATECALL",
                    "output": "",
                    "revert": false,
                    "revertMessage": "",
                    "selector": "0x313144f7",
                    "status": true,
                    "value": "0"
                },
                "nodeType": 0
            },
            "10": {
                "event": {
                    "contract": "0xf629cbd94d3791c9250152bd8dfbdf380e2a3b9c",
                    "decodedLog": {
                        "name": "Transfer",
                        "params": [
                            {
                                "name": "_from",
                                "type": "address",
                                "value": "0x588a0bd42a9877683607ffb3e5f86afc351df009"
                            },
                            {
                                "name": "_to",
                                "type": "address",
                                "value": "0x862e4dc54eceaada8a2574e0d5d5d730f692466f"
                            },
                            {
                                "decimalAvailable": true,
                                "name": "_value",
                                "type": "uint256",
                                "value": "0"
                            }
                        ],
                        "signature": "Transfer(address,address,uint256)"
                    },
                    "id": 10,
                    "logData": "0x0000000000000000000000000000000000000000000000000000000000000000",
                    "logDecoded": true,
                    "operation": "EVENT",
                    "revert": false,
                    "status": true,
                    "topics": [
                        "0xddf252ad1be2c89b69c2b068fc378daa952ba7f163c4a11628f55a4df523b3ef",
                        "0x000000000000000000000000588a0bd42a9877683607ffb3e5f86afc351df009",
                        "0x000000000000000000000000862e4dc54eceaada8a2574e0d5d5d730f692466f"
                    ]
                },
                "nodeType": 1
            },
            "11": {
                "event": {
                    "contract": "0x8562c38485b1e8ccd82e44f89823da76c98eb0ab",
                    "decodedLog": null,
                    "id": 11,
                    "logData": "0x0000000000000000000000000000000000000000000000000000000000000000",
                    "logDecoded": false,
                    "operation": "EVENT",
                    "revert": false,
                    "status": true,
                    "topics": [
                        "0x298f4be3ff40398fb58555008f42eb86e257a96bba5c0f3c32814fa869535fc2",
                        "0x0080000000000096000000000000000000000000000000000000000000000000",
                        "0x000000000000000000000000588a0bd42a9877683607ffb3e5f86afc351df009",
                        "0x0000000000000000000000000000000000000000000000000000000000000000"
                    ]
                },
                "nodeType": 1
            },
            "12": {
                "invocation": {
                    "address": "0x4e643a25a64952895f553f20252861258727174e",
                    "callData": "0x00800000000000960000000000000000000000000000000000000000000000de000000000000000000000000588a0bd42a9877683607ffb3e5f86afc351df009000000000000000000000000f3a95fb7cbbf612bd9982083934c7b5b29f7828b",
                    "decodedMethod": null,
                    "errorInfo": "",
                    "fromAddress": "0x8562c38485b1e8ccd82e44f89823da76c98eb0ab",
                    "gasUsed": 19308,
                    "id": 12,
                    "methodDecoded": false,
                    "operation": "CALL",
                    "output": "",
                    "revert": false,
                    "revertMessage": "",
                    "selector": "0x95760fb9",
                    "status": true,
                    "value": "0"
                },
                "nodeType": 0
            },
            "13": {
                "event": {
                    "contract": "0x8562c38485b1e8ccd82e44f89823da76c98eb0ab",
                    "decodedLog": {
                        "name": "Transfer",
                        "params": [
                            {
                                "name": "tranche",
                                "type": "uint256",
                                "value": "226,156,424,291,634,135,751,922,388,097,208,145,394,331,419,950,041,641,992,882,263,370,632,265,950"
                            },
                            {
                                "name": "from",
                                "type": "address",
                                "value": "0x588a0bd42a9877683607ffb3e5f86afc351df009"
                            },
                            {
                                "name": "to",
                                "type": "address",
                                "value": "0xf3a95fb7cbbf612bd9982083934c7b5b29f7828b"
                            },
                            {
                                "name": "amount",
                                "type": "uint256",
                                "value": "1"
                            }
                        ],
                        "signature": "Transfer(uint256,address,address,uint256)"
                    },
                    "id": 13,
                    "logData": "0x0000000000000000000000000000000000000000000000000000000000000001",
                    "logDecoded": true,
                    "operation": "EVENT",
                    "revert": false,
                    "status": true,
                    "topics": [
                        "0xf2dbd98d79f00f7aff338b824931d607bfcc63d47307162470f25a055102d3b0",
                        "0x00800000000000960000000000000000000000000000000000000000000000de",
                        "0x000000000000000000000000588a0bd42a9877683607ffb3e5f86afc351df009",
                        "0x000000000000000000000000f3a95fb7cbbf612bd9982083934c7b5b29f7828b"
                    ]
                },
                "nodeType": 1
            },
            "2": {
                "invocation": {
                    "address": "0x4e643a25a64952895f553f20252861258727174e",
                    "callData": "0x0080000000000096000000000000000000000000000000000000000000000000000000000000000000000000588a0bd42a9877683607ffb3e5f86afc351df009000000000000000000000000f3a95fb7cbbf612bd9982083934c7b5b29f7828b",
                    "decodedMethod": null,
                    "errorInfo": "",
                    "fromAddress": "0x8562c38485b1e8ccd82e44f89823da76c98eb0ab",
                    "gasUsed": 1019,
                    "id": 2,
                    "methodDecoded": false,
                    "operation": "CALL",
                    "output": "0x0000000000000000000000000000000000000000000000000000000000000001",
                    "revert": false,
                    "revertMessage": "",
                    "selector": "0x270c373e",
                    "status": true,
                    "value": "0"
                },
                "nodeType": 0
            },
            "3": {
                "invocation": {
                    "address": "0x4e643a25a64952895f553f20252861258727174e",
                    "callData": "0x0080000000000096000000000000000000000000000000000000000000000000",
                    "decodedMethod": null,
                    "errorInfo": "",
                    "fromAddress": "0x8562c38485b1e8ccd82e44f89823da76c98eb0ab",
                    "gasUsed": 1582,
                    "id": 3,
                    "methodDecoded": false,
                    "operation": "CALL",
                    "output": "0x0000000000000000000000000000000000000000000000000000000000000001",
                    "revert": false,
                    "revertMessage": "",
                    "selector": "0x73007500",
                    "status": true,
                    "value": "0"
                },
                "nodeType": 0
            },
            "4": {
                "invocation": {
                    "address": "0x4e643a25a64952895f553f20252861258727174e",
                    "callData": "0x0080000000000096000000000000000000000000000000000000000000000000",
                    "decodedMethod": {
                        "callParams": [
                            {
                                "name": "tokenId",
                                "type": "uint256",
                                "value": "226,156,424,291,634,135,751,922,388,097,208,145,394,331,419,950,041,641,992,882,263,370,632,265,728"
                            }
                        ],
                        "constructorArguments": "",
                        "name": "getCreator",
                        "returnParams": [
                            {
                                "name": "",
                                "type": "address",
                                "value": "0x862e4dc54eceaada8a2574e0d5d5d730f692466f"
                            }
                        ],
                        "signature": "getCreator(uint256)"
                    },
                    "errorInfo": "",
                    "fromAddress": "0x8562c38485b1e8ccd82e44f89823da76c98eb0ab",
                    "gasUsed": 2897,
                    "id": 4,
                    "methodDecoded": true,
                    "operation": "CALL",
                    "output": "0x000000000000000000000000862e4dc54eceaada8a2574e0d5d5d730f692466f",
                    "revert": false,
                    "revertMessage": "",
                    "selector": "0xd48e638a",
                    "status": true,
                    "value": "0"
                },
                "nodeType": 0
            },
            "5": {
                "invocation": {
                    "address": "0x4e643a25a64952895f553f20252861258727174e",
                    "callData": "0x0080000000000096000000000000000000000000000000000000000000000000000000000000000000000000588a0bd42a9877683607ffb3e5f86afc351df0090000000000000000000000000000000000000000000000000000000000000004",
                    "decodedMethod": null,
                    "errorInfo": "",
                    "fromAddress": "0x8562c38485b1e8ccd82e44f89823da76c98eb0ab",
                    "gasUsed": 1550,
                    "id": 5,
                    "methodDecoded": false,
                    "operation": "CALL",
                    "output": "0x0000000000000000000000000000000000000000000000000000000000000000",
                    "revert": false,
                    "revertMessage": "",
                    "selector": "0x5dbc33e7",
                    "status": true,
                    "value": "0"
                },
                "nodeType": 0
            },
            "6": {
                "invocation": {
                    "address": "0x4e643a25a64952895f553f20252861258727174e",
                    "callData": "0x0080000000000096000000000000000000000000000000000000000000000000",
                    "decodedMethod": null,
                    "errorInfo": "",
                    "fromAddress": "0x8562c38485b1e8ccd82e44f89823da76c98eb0ab",
                    "gasUsed": 720,
                    "id": 6,
                    "methodDecoded": false,
                    "operation": "CALL",
                    "output": "0x0000000000000000000000000000000000000000000000000000000000000000",
                    "revert": false,
                    "revertMessage": "",
                    "selector": "0x20ec4a86",
                    "status": true,
                    "value": "0"
                },
                "nodeType": 0
            },
            "7": {
                "invocation": {
                    "address": "0x4e643a25a64952895f553f20252861258727174e",
                    "callData": "0x0080000000000096000000000000000000000000000000000000000000000000",
                    "decodedMethod": null,
                    "errorInfo": "",
                    "fromAddress": "0x8562c38485b1e8ccd82e44f89823da76c98eb0ab",
                    "gasUsed": 495,
                    "id": 7,
                    "methodDecoded": false,
                    "operation": "CALL",
                    "output": "0x0000000000000000000000000000000000000000000000000000000000000000",
                    "revert": false,
                    "revertMessage": "",
                    "selector": "0x0a432df0",
                    "status": true,
                    "value": "0"
                },
                "nodeType": 0
            },
            "8": {
                "invocation": {
                    "address": "0x4e643a25a64952895f553f20252861258727174e",
                    "callData": "0x",
                    "decodedMethod": null,
                    "errorInfo": "",
                    "fromAddress": "0x8562c38485b1e8ccd82e44f89823da76c98eb0ab",
                    "gasUsed": 3397,
                    "id": 8,
                    "methodDecoded": false,
                    "operation": "CALL",
                    "output": "0x000000000000000000000000f629cbd94d3791c9250152bd8dfbdf380e2a3b9c",
                    "revert": false,
                    "revertMessage": "",
                    "selector": "0xfed57875",
                    "status": true,
                    "value": "0"
                },
                "nodeType": 0
            },
            "9": {
                "invocation": {
                    "address": "0xf629cbd94d3791c9250152bd8dfbdf380e2a3b9c",
                    "callData": "0x000000000000000000000000588a0bd42a9877683607ffb3e5f86afc351df009000000000000000000000000862e4dc54eceaada8a2574e0d5d5d730f692466f0000000000000000000000000000000000000000000000000000000000000000",
                    "decodedMethod": {
                        "callParams": [
                            {
                                "name": "_from",
                                "type": "address",
                                "value": "0x588a0bd42a9877683607ffb3e5f86afc351df009"
                            },
                            {
                                "name": "_to",
                                "type": "address",
                                "value": "0x862e4dc54eceaada8a2574e0d5d5d730f692466f"
                            },
                            {
                                "decimalAvailable": true,
                                "name": "_value",
                                "type": "uint256",
                                "value": "0"
                            }
                        ],
                        "constructorArguments": "",
                        "name": "transferFrom",
                        "returnParams": [
                            {
                                "name": "success",
                                "type": "bool",
                                "value": true
                            }
                        ],
                        "signature": "transferFrom(address,address,uint256)"
                    },
                    "errorInfo": "",
                    "fromAddress": "0x8562c38485b1e8ccd82e44f89823da76c98eb0ab",
                    "gasUsed": 19237,
                    "id": 9,
                    "methodDecoded": true,
                    "operation": "CALL",
                    "output": "0x0000000000000000000000000000000000000000000000000000000000000001",
                    "revert": false,
                    "revertMessage": "",
                    "selector": "0x23b872dd",
                    "status": true,
                    "value": "0"
                },
                "nodeType": 0
            }
        },
        "gasFlame": [
            {
                "children": [
                    {
                        "children": [
                            {
                                "children": [],
                                "depth": 0,
                                "name": "Initial Gas",
                                "value": 23192
                            },
                            {
                                "children": [
                                    {
                                        "children": [
                                            {
                                                "children": [],
                                                "depth": 2,
                                                "name": "0x270c373e",
                                                "value": 1019
                                            },
                                            {
                                                "children": [],
                                                "depth": 2,
                                                "name": "0x73007500",
                                                "value": 1582
                                            },
                                            {
                                                "children": [],
                                                "depth": 2,
                                                "name": "getCreator",
                                                "value": 2897
                                            },
                                            {
                                                "children": [],
                                                "depth": 2,
                                                "name": "0x5dbc33e7",
                                                "value": 1550
                                            },
                                            {
                                                "children": [],
                                                "depth": 2,
                                                "name": "0x20ec4a86",
                                                "value": 720
                                            },
                                            {
                                                "children": [],
                                                "depth": 2,
                                                "name": "0x0a432df0",
                                                "value": 495
                                            },
                                            {
                                                "children": [],
                                                "depth": 2,
                                                "name": "0xfed57875",
                                                "value": 3397
                                            },
                                            {
                                                "children": [],
                                                "depth": 2,
                                                "name": "transferFrom",
                                                "value": 19237
                                            },
                                            {
                                                "children": [],
                                                "depth": 2,
                                                "name": "0x95760fb9",
                                                "value": 19308
                                            }
                                        ],
                                        "depth": 1,
                                        "name": "0x313144f7",
                                        "value": 72428
                                    }
                                ],
                                "depth": 0,
                                "name": "Executed Gas",
                                "value": 74690
                            }
                        ],
                        "depth": -1,
                        "name": "Actual Gas Used",
                        "value": 82882
                    },
                    {
                        "children": [],
                        "depth": -1,
                        "name": "Refunded Gas",
                        "value": 15000
                    }
                ],
                "depth": -2,
                "name": "Total Gas",
                "value": 97882
            }
        ],
        "isConfirmed": true,
        "mainTrace": [
            {
                "children": [
                    {
                        "children": [
                            {
                                "children": [
                                    {
                                        "children": [],
                                        "depth": 2,
                                        "id": 2,
                                        "order": 2
                                    },
                                    {
                                        "children": [],
                                        "depth": 2,
                                        "id": 3,
                                        "order": 3
                                    },
                                    {
                                        "children": [],
                                        "depth": 2,
                                        "id": 4,
                                        "order": 4
                                    },
                                    {
                                        "children": [],
                                        "depth": 2,
                                        "id": 5,
                                        "order": 5
                                    },
                                    {
                                        "children": [],
                                        "depth": 2,
                                        "id": 6,
                                        "order": 6
                                    },
                                    {
                                        "children": [],
                                        "depth": 2,
                                        "id": 7,
                                        "order": 7
                                    },
                                    {
                                        "children": [],
                                        "depth": 2,
                                        "id": 8,
                                        "order": 8
                                    },
                                    {
                                        "children": [
                                            {
                                                "children": [],
                                                "depth": 3,
                                                "id": 10,
                                                "order": 10
                                            }
                                        ],
                                        "depth": 2,
                                        "id": 9,
                                        "order": 9
                                    },
                                    {
                                        "children": [],
                                        "depth": 2,
                                        "id": 11,
                                        "order": 11
                                    },
                                    {
                                        "children": [],
                                        "depth": 2,
                                        "id": 12,
                                        "order": 12
                                    },
                                    {
                                        "children": [],
                                        "depth": 2,
                                        "id": 13,
                                        "order": 13
                                    }
                                ],
                                "depth": 1,
                                "id": 1,
                                "order": 1
                            }
                        ],
                        "depth": 0,
                        "id": 0,
                        "order": 0
                    }
                ],
                "depth": -1,
                "id": -1,
                "order": -1
            }
        ],
        "mainTraceNodeCount": 14,
        "parentIdMap": {
            "0": -1,
            "1": 0,
            "10": 9,
            "11": 1,
            "12": 1,
            "13": 1,
            "2": 1,
            "3": 1,
            "4": 1,
            "5": 1,
            "6": 1,
            "7": 1,
            "8": 1,
            "9": 1
        },
        "tidyTrace": [
            {
                "children": [
                    {
                        "children": [
                            {
                                "children": [
                                    {
                                        "children": [],
                                        "depth": 2,
                                        "id": 2,
                                        "order": 2
                                    },
                                    {
                                        "children": [],
                                        "depth": 2,
                                        "id": 3,
                                        "order": 3
                                    },
                                    {
                                        "children": [],
                                        "depth": 2,
                                        "id": 4,
                                        "order": 4
                                    },
                                    {
                                        "children": [],
                                        "depth": 2,
                                        "id": 5,
                                        "order": 5
                                    },
                                    {
                                        "children": [],
                                        "depth": 2,
                                        "id": 6,
                                        "order": 6
                                    },
                                    {
                                        "children": [],
                                        "depth": 2,
                                        "id": 7,
                                        "order": 7
                                    },
                                    {
                                        "children": [],
                                        "depth": 2,
                                        "id": 8,
                                        "order": 8
                                    },
                                    {
                                        "children": [
                                            {
                                                "children": [],
                                                "depth": 3,
                                                "id": 10,
                                                "order": 10
                                            }
                                        ],
                                        "depth": 2,
                                        "id": 9,
                                        "order": 9
                                    },
                                    {
                                        "children": [],
                                        "depth": 2,
                                        "id": 11,
                                        "order": 11
                                    },
                                    {
                                        "children": [],
                                        "depth": 2,
                                        "id": 12,
                                        "order": 12
                                    },
                                    {
                                        "children": [],
                                        "depth": 2,
                                        "id": 13,
                                        "order": 13
                                    }
                                ],
                                "depth": 1,
                                "id": 1,
                                "order": 1
                            }
                        ],
                        "depth": 0,
                        "id": 0,
                        "order": 0
                    }
                ],
                "depth": -1,
                "id": -1,
                "order": -1
            }
        ],
        "tidyTraceNodeCount": 14
    },
    "state_change": {
        "stateChanges": [
            {
                "address": "0x4e643a25a64952895f553f20252861258727174e",
                "erc": "",
                "slots": [
                    {
                        "current": "0x0000000000000000000000000000000000000000000000000000000000000000",
                        "key": "0x35e09987206ae66a67cfdfba0cf922f98e2c6dbac9664c45d45aebbbb130f5bb",
                        "prev": "0x0000000000000000000000000000000000000000000000000000000000000001"
                    },
                    {
                        "current": "0x0000000000000000000000000000000000000000000000000000000000000007",
                        "key": "0x57001926dff0a36b443fdfdcafad419da0c27d2158ef523bb9487f66eb87d655",
                        "prev": "0x0000000000000000000000000000000000000000000000000000000000000006"
                    },
                    {
                        "current": "0x000000000000000000000000f3a95fb7cbbf612bd9982083934c7b5b29f7828b",
                        "key": "0x0d62cf11dc7b3557cb29ffe2f74a85381e7cdca1b1212716d906330885f7f12b",
                        "prev": "0x000000000000000000000000588a0bd42a9877683607ffb3e5f86afc351df009"
                    }
                ],
                "storageVariables": []
            }
        ]
    }
}