{
    "balance_change": {
        "balanceChanges": []
    },
    "profile": {
        "basic_info": {
            "baseFee": "26.548090685",
            "blockNumber": 17799942,
            "callData": "0xc032dc300000000000000000000000000000000000000000000000000000000000017726000000000000000000000000dcc8f1485c3817549317eeee856c867d0869bf87",
            "debugEnable": true,
            "errorInfo": "execution reverted",
            "eventCount": 0,
            "feeRecipient": "0x1f9090aae28b8a3dceadf281b0f12828e676c326",
            "formatValue": "0.2",
            "gasLimit": 750000,
            "gasPrice": "26.848090685",
            "gasUsed": 73452,
            "intTxnCount": 2,
            "internalRevert": true,
            "internalRevertMessage": "",
            "isContractCreation": false,
            "isFlashloan": false,
            "maxFee": "45.437385191",
            "nonce": 13313,
            "overwritedBlockNumber": -1,
            "priorityFee": "0.3",
            "receiver": "0xf1a0b1dcda71826f507fb22a5419a9d97ef9e238",
            "revertMessage": "Max Spend.",
            "sender": "0x38f4498df2968f1560bc24626661713e2cac7ec0",
            "simulationEnable": true,
            "sourceTxnHash": "0x781f1de8d4a67129d755cc7326526a61026c5a89c233118a865c35f9253ec5e3",
            "status": false,
            "timestamp": "2023-07-29T16:39:35Z",
            "transactionFee": "0.00197204595699462",
            "txnHash": "0x781f1de8d4a67129d755cc7326526a61026c5a89c233118a865c35f9253ec5e3",
            "txnIndex": 138,
            "type": 2,
            "value": "200000000000000000"
        },
        "fund_flow": [],
        "token_infos": [
            {
                "address": "0xc02aaa39b223fe8d0a0e5c4f27ead9083c756cc2",
                "decimals": 18
            },
            {
                "address": "0xeeeeeeeeeeeeeeeeeeeeeeeeeeeeeeeeeeeeeeee",
                "decimals": 18
            }
        ]
    },
    "address_label": {
        "labels": [
            {
                "address": "0x7a250d5630b4cf539739df2c5dacb4c659f2488d",
                "label": "Uniswap V2: Router 2"
            },
            {
                "address": "0xc02aaa39b223fe8d0a0e5c4f27ead9083c756cc2",
                "label": "Wrapped Ether (WETH)"
            },
            {
                "address": "0x0000000000000000000000000000000000000001",
                "label": "Precompiled"
            },
            {
                "address": "0x0000000000000000000000000000000000000002",
                "label": "Precompiled"
            },
            {
                "address": "0x0000000000000000000000000000000000000003",
                "label": "Precompiled"
            },
            {
                "address": "0xeeeeeeeeeeeeeeeeeeeeeeeeeeeeeeeeeeeeeeee",
                "label": "Ether"
            },
            {
                "address": "0x26c8826fc9bb01e6660e202b1baf9442d5e1c8af",
                "label": "Uniswap V2: FIFO 3"
            },
            {
                "address": "0xf1a0b1dcda71826f507fb22a5419a9d97ef9e238",
                "label": "MEV Bot: 0xf1a...238"
            },
            {
                "address": "0xbb62a5ca15e657dbf85d78a49de11f2e127ca641",
                "label": "Fifo Bot (FIFO)"
            },
            {
                "address": "0x0000000000000000000000000000000000000004",
                "label": "Precompiled"
            }
        ]
    },
    "trace": {
        "accountLabels": null,
        "dataMap": {
            "-1": {
                "invocation": {
                    "address": "0x38f4498df2968f1560bc24626661713e2cac7ec0",
                    "callData": "",
                    "decodedMethod": null,
                    "errorInfo": "",
                    "fromAddress": "",
                    "gasUsed": 0,
                    "id": -1,
                    "methodDecoded": false,
                    "operation": "",
                    "output": "",
                    "revert": false,
                    "revertMessage": "",
                    "selector": "",
                    "status": false,
                    "value": ""
                },
                "nodeType": 0
            },
            "0": {
                "invocation": {
                    "address": "0xf1a0b1dcda71826f507fb22a5419a9d97ef9e238",
                    "callData": "0x0000000000000000000000000000000000000000000000000000000000017726000000000000000000000000dcc8f1485c3817549317eeee856c867d0869bf87",
                    "decodedMethod": {
                        "callParams": [
                            {
                                "name": "pointId",
                                "type": "uint256",
                                "value": "96,038"
                            },
                            {
                                "name": "addr",
                                "type": "address",
                                "value": "0xdcc8f1485c3817549317eeee856c867d0869bf87"
                            }
                        ],
                        "constructorArguments": "",
                        "name": "execute",
                        "returnParams": [],
                        "signature": "execute(uint256,address)"
                    },
                    "errorInfo": "execution reverted",
                    "fromAddress": "0x38f4498df2968f1560bc24626661713e2cac7ec0",
                    "gasUsed": 73452,
                    "id": 0,
                    "methodDecoded": true,
                    "operation": "CALL",
                    "output": "0x08c379a00000000000000000000000000000000000000000000000000000000000000020000000000000000000000000000000000000000000000000000000000000000a4d6178205370656e642e00000000000000000000000000000000000000000000",
                    "revert": true,
                    "revertMessage": "Max Spend.",
                    "selector": "0xc032dc30",
                    "status": false,
                    "value": "0.2"
                },
                "nodeType": 0
            },
            "1": {
                "invocation": {
                    "address": "0x7a250d5630b4cf539739df2c5dacb4c659f2488d",
                    "callData": "0x0000000000000000000000000000000000000000001075fd296021459d80000000000000000000000000000000000000000000000000000000000000000000400000000000000000000000000000000000000000000000000000000000000002000000000000000000000000c02aaa39b223fe8d0a0e5c4f27ead9083c756cc2000000000000000000000000bb62a5ca15e657dbf85d78a49de11f2e127ca641",
                    "decodedMethod": {
                        "callParams": [
                            {
                                "name": "amountOut",
                                "type": "uint256",
                                "value": "19,900,000,000,000,000,000,000,000"
                            },
                            {
                                "name": "path",
                                "type": "address[]",
                                "value": [
                                    "0xc02aaa39b223fe8d0a0e5c4f27ead9083c756cc2",
                                    "0xbb62a5ca15e657dbf85d78a49de11f2e127ca641"
                                ]
                            }
                        ],
                        "constructorArguments": "",
                        "name": "getAmountsIn",
                        "returnParams": [
                            {
                                "name": "amounts",
                                "type": "uint256[]",
                                "value": [
                                    "474,462,715,350,366,566",
                                    "19,900,000,000,000,000,000,000,000"
                                ]
                            }
                        ],
                        "signature": "getAmountsIn(uint256,address[])"
                    },
                    "errorInfo": "",
                    "fromAddress": "0xf1a0b1dcda71826f507fb22a5419a9d97ef9e238",
                    "gasUsed": 8652,
                    "id": 1,
                    "methodDecoded": true,
                    "operation": "STATICCALL",
                    "output": "0x000000000000000000000000000000000000000000000000000000000000002000000000000000000000000000000000000000000000000000000000000000020000000000000000000000000000000000000000000000000695a15367a039660000000000000000000000000000000000000000001075fd296021459d800000",
                    "revert": true,
                    "revertMessage": "",
                    "selector": "0x1f00ca74",
                    "status": true,
                    "value": "0"
                },
                "nodeType": 0
            },
            "2": {
                "invocation": {
                    "address": "0x26c8826fc9bb01e6660e202b1baf9442d5e1c8af",
                    "callData": "0x",
                    "decodedMethod": {
                        "callParams": [],
                        "constructorArguments": "",
                        "name": "getReserves",
                        "returnParams": [
                            {
                                "name": "_reserve0",
                                "type": "uint112",
                                "value": "190,339,328,008,698,945,490,850,098"
                            },
                            {
                                "name": "_reserve1",
                                "type": "uint112",
                                "value": "4,051,482,665,848,773,366"
                            },
                            {
                                "name": "_blockTimestampLast",
                                "type": "uint32",
                                "value": "1,690,648,775"
                            }
                        ],
                        "signature": "getReserves()"
                    },
                    "errorInfo": "",
                    "fromAddress": "0x7a250d5630b4cf539739df2c5dacb4c659f2488d",
                    "gasUsed": 2504,
                    "id": 2,
                    "methodDecoded": true,
                    "operation": "STATICCALL",
                    "output": "0x0000000000000000000000000000000000000000009d71eba5963336d7e711320000000000000000000000000000000000000000000000003839c204d7919af60000000000000000000000000000000000000000000000000000000064c540c7",
                    "revert": true,
                    "revertMessage": "",
                    "selector": "0x0902f1ac",
                    "status": true,
                    "value": "0"
                },
                "nodeType": 0
            }
        },
        "gasFlame": [
            {
                "children": [
                    {
                        "children": [
                            {
                                "children": [],
                                "depth": 0,
                                "name": "Initial Gas",
                                "value": 21596
                            },
                            {
                                "children": [
                                    {
                                        "children": [
                                            {
                                                "children": [],
                                                "depth": 2,
                                                "name": "getReserves",
                                                "value": 2504
                                            }
                                        ],
                                        "depth": 1,
                                        "name": "getAmountsIn",
                                        "value": 8652
                                    }
                                ],
                                "depth": 0,
                                "name": "Executed Gas",
                                "value": 51856
                            }
                        ],
                        "depth": -1,
                        "name": "Actual Gas Used",
                        "value": 73452
                    },
                    {
                        "children": [],
                        "depth": -1,
                        "name": "Refunded Gas",
                        "value": 0
                    }
                ],
                "depth": -2,
                "name": "Total Gas",
                "value": 73452
            }
        ],
        "isConfirmed": true,
        "mainTrace": [
            {
                "children": [
                    {
                        "children": [
                            {
                                "children": [
                                    {
                                        "children": [],
                                        "depth": 2,
                                        "id": 2,
                                        "order": 2
                                    }
                                ],
                                "depth": 1,
                                "id": 1,
                                "order": 1
                            }
                        ],
                        "depth": 0,
                        "id": 0,
                        "order": 0
                    }
                ],
                "depth": -1,
                "id": -1,
                "order": -1
            }
        ],
        "mainTraceNodeCount": 3,
        "parentIdMap": {
            "0": -1,
            "1": 0,
            "2": 1
        },
        "tidyTrace": [
            {
                "children": [
                    {
                        "children": [],
                        "depth": 0,
                        "id": 0,
                        "order": 0
                    }
                ],
                "depth": -1,
                "id": -1,
                "order": -1
            }
        ],
        "tidyTraceNodeCount": 1
    },
    "state_change": {
        "stateChanges": []
    }
}