{
    "balance_change": {
        "balanceChanges": [
            {
                "account": "0x2ab9f67a27f606272189b307052694d3a2b158ba",
                "assets": [
                    {
                        "address": "0xeeeeeeeeeeeeeeeeeeeeeeeeeeeeeeeeeeeeeeee",
                        "amount": "0.234352013434089038",
                        "iconUrl": "https://assets.blocksec.com/image/1663669189317-3.png",
                        "isERC1155": false,
                        "isERC721": false,
                        "sign": false,
                        "value": ""
                    }
                ]
            },
            {
                "account": "0x0f28120b0611bc4448bbb1ae3c92fbf092523f24",
                "assets": [
                    {
                        "address": "0xeeeeeeeeeeeeeeeeeeeeeeeeeeeeeeeeeeeeeeee",
                        "amount": "0.234352013434089038",
                        "iconUrl": "https://assets.blocksec.com/image/1663669189317-3.png",
                        "isERC1155": false,
                        "isERC721": false,
                        "sign": true,
                        "value": ""
                    }
                ]
            }
        ]
    },
    "profile": {
        "basic_info": {
            "baseFee": "",
            "blockNumber": 2248535,
            "callData": "0x38bbfa5083f1297b5f710dae10bb718f20e60bee90f2ad73327b29779fdaf8eee46c3289000000000000000000000000000000000000000000000000000000000000006000000000000000000000000000000000000000000000000000000000000000a00000000000000000000000000000000000000000000000000000000000000004343330350000000000000000000000000000000000000000000000000000000000000000000000000000000000000000000000000000000000000000000000221220b8f3563d8b8dc1faf7f363a737b6a8bebd4a5d770fdabe795ab8967884da9904000000000000000000000000000000000000000000000000000000000000",
            "debugEnable": true,
            "errorInfo": "",
            "eventCount": 1,
            "feeRecipient": "0xf3b9d2c81f2b24b0fa0acaaa865b7d9ced5fc2fb",
            "formatValue": "0",
            "gasLimit": 150000,
            "gasPrice": "20",
            "gasUsed": 85864,
            "intTxnCount": 3,
            "internalRevert": false,
            "internalRevertMessage": "",
            "isContractCreation": false,
            "isFlashloan": false,
            "maxFee": "",
            "nonce": 46399,
            "overwritedBlockNumber": -1,
            "priorityFee": "",
            "receiver": "0x2ab9f67a27f606272189b307052694d3a2b158ba",
            "revertMessage": "",
            "sender": "0x26588a9301b0428d95e6fc3a5024fce8bec12d51",
            "simulationEnable": true,
            "sourceTxnHash": "0x7839af14a72368d760fb5cf4f37d56764b5b2e0277e43b1925fbade3ff74326d",
            "status": true,
            "timestamp": "2016-09-12T23:32:12Z",
            "transactionFee": "0.00171728",
            "txnHash": "0x7839af14a72368d760fb5cf4f37d56764b5b2e0277e43b1925fbade3ff74326d",
            "txnIndex": 1,
            "type": 0,
            "value": "0"
        },
        "fund_flow": [
            {
                "amount": "0.234352013434089038",
                "from": "0x2ab9f67a27f606272189b307052694d3a2b158ba",
                "id": 1,
                "isERC1155": false,
                "isERC721": false,
                "isReverted": false,
                "order": 1,
                "to": "0x0f28120b0611bc4448bbb1ae3c92fbf092523f24",
                "token": "0xeeeeeeeeeeeeeeeeeeeeeeeeeeeeeeeeeeeeeeee"
            }
        ],
        "token_infos": [
            {
                "address": "0xeeeeeeeeeeeeeeeeeeeeeeeeeeeeeeeeeeeeeeee",
                "decimals": 18
            },
            {
                "address": "0xc02aaa39b223fe8d0a0e5c4f27ead9083c756cc2",
                "decimals": 18
            }
        ]
    },
    "address_label": {
        "labels": [
            {
                "address": "0x0000000000000000000000000000000000000003",
                "label": "Precompiled"
            },
            {
                "address": "0xeeeeeeeeeeeeeeeeeeeeeeeeeeeeeeeeeeeeeeee",
                "label": "Ether"
            },
            {
                "address": "0x26588a9301b0428d95e6fc3a5024fce8bec12d51",
                "label": "0x2658_Oraclize"
            },
            {
                "address": "0x2ab9f67a27f606272189b307052694d3a2b158ba",
                "label": "Dice"
            },
            {
                "address": "0x1d3b2638a7cc9f2cb3d298a3da7a90b67e5506ed",
                "label": "OraclizeAddrResolver"
            },
            {
                "address": "0x001a589dda0d6be37632925eaf1256986b2c6ad0",
                "label": "0x001a_Oraclize"
            },
            {
                "address": "0x0000000000000000000000000000000000000001",
                "label": "Precompiled"
            },
            {
                "address": "0x0000000000000000000000000000000000000002",
                "label": "Precompiled"
            },
            {
                "address": "0x0000000000000000000000000000000000000004",
                "label": "Precompiled"
            }
        ]
    },
    "trace": {
        "accountLabels": null,
        "dataMap": {
            "-1": {
                "invocation": {
                    "address": "0x26588a9301b0428d95e6fc3a5024fce8bec12d51",
                    "callData": "",
                    "decodedMethod": null,
                    "errorInfo": "",
                    "fromAddress": "",
                    "gasUsed": 0,
                    "id": -1,
                    "methodDecoded": false,
                    "operation": "",
                    "output": "",
                    "revert": false,
                    "revertMessage": "",
                    "selector": "",
                    "status": false,
                    "value": ""
                },
                "nodeType": 0
            },
            "0": {
                "invocation": {
                    "address": "0x2ab9f67a27f606272189b307052694d3a2b158ba",
                    "callData": "0x83f1297b5f710dae10bb718f20e60bee90f2ad73327b29779fdaf8eee46c3289000000000000000000000000000000000000000000000000000000000000006000000000000000000000000000000000000000000000000000000000000000a00000000000000000000000000000000000000000000000000000000000000004343330350000000000000000000000000000000000000000000000000000000000000000000000000000000000000000000000000000000000000000000000221220b8f3563d8b8dc1faf7f363a737b6a8bebd4a5d770fdabe795ab8967884da9904000000000000000000000000000000000000000000000000000000000000",
                    "decodedMethod": {
                        "callParams": [
                            {
                                "name": "myid",
                                "type": "bytes32",
                                "value": "0x83f1297b5f710dae10bb718f20e60bee90f2ad73327b29779fdaf8eee46c3289"
                            },
                            {
                                "name": "result",
                                "type": "string",
                                "value": "4305"
                            },
                            {
                                "name": "proof",
                                "type": "bytes",
                                "value": "0x1220b8f3563d8b8dc1faf7f363a737b6a8bebd4a5d770fdabe795ab8967884da9904"
                            }
                        ],
                        "constructorArguments": "",
                        "name": "__callback",
                        "returnParams": [],
                        "signature": "__callback(bytes32,string,bytes)"
                    },
                    "errorInfo": "",
                    "fromAddress": "0x26588a9301b0428d95e6fc3a5024fce8bec12d51",
                    "gasUsed": 85864,
                    "id": 0,
                    "methodDecoded": true,
                    "operation": "CALL",
                    "output": "",
                    "revert": false,
                    "revertMessage": "",
                    "selector": "0x38bbfa50",
                    "status": true,
                    "value": "0"
                },
                "nodeType": 0
            },
            "1": {
                "invocation": {
                    "address": "0x1d3b2638a7cc9f2cb3d298a3da7a90b67e5506ed",
                    "callData": "0x",
                    "decodedMethod": {
                        "callParams": [],
                        "constructorArguments": "",
                        "name": "getAddress",
                        "returnParams": [
                            {
                                "name": "oaddr",
                                "type": "address",
                                "value": "0x001a589dda0d6be37632925eaf1256986b2c6ad0"
                            }
                        ],
                        "signature": "getAddress()"
                    },
                    "errorInfo": "",
                    "fromAddress": "0x2ab9f67a27f606272189b307052694d3a2b158ba",
                    "gasUsed": 188,
                    "id": 1,
                    "methodDecoded": true,
                    "operation": "CALL",
                    "output": "0x000000000000000000000000001a589dda0d6be37632925eaf1256986b2c6ad0",
                    "revert": false,
                    "revertMessage": "",
                    "selector": "0x38cc4831",
                    "status": true,
                    "value": "0"
                },
                "nodeType": 0
            },
            "2": {
                "invocation": {
                    "address": "0x001a589dda0d6be37632925eaf1256986b2c6ad0",
                    "callData": "0x",
                    "decodedMethod": {
                        "callParams": [],
                        "constructorArguments": "",
                        "name": "cbAddress",
                        "returnParams": [
                            {
                                "name": "",
                                "type": "address",
                                "value": "0x26588a9301b0428d95e6fc3a5024fce8bec12d51"
                            }
                        ],
                        "signature": "cbAddress()"
                    },
                    "errorInfo": "",
                    "fromAddress": "0x2ab9f67a27f606272189b307052694d3a2b158ba",
                    "gasUsed": 769,
                    "id": 2,
                    "methodDecoded": true,
                    "operation": "CALL",
                    "output": "0x00000000000000000000000026588a9301b0428d95e6fc3a5024fce8bec12d51",
                    "revert": false,
                    "revertMessage": "",
                    "selector": "0xc281d19e",
                    "status": true,
                    "value": "0"
                },
                "nodeType": 0
            },
            "3": {
                "event": {
                    "contract": "0x2ab9f67a27f606272189b307052694d3a2b158ba",
                    "decodedLog": {
                        "name": "BetWon",
                        "params": [
                            {
                                "name": "playerAddress",
                                "type": "address",
                                "value": "0x0f28120b0611bc4448bbb1ae3c92fbf092523f24"
                            },
                            {
                                "name": "numberRolled",
                                "type": "uint256",
                                "value": "4,305"
                            },
                            {
                                "name": "amountWon",
                                "type": "uint256",
                                "value": "234,352,013,434,089,038"
                            }
                        ],
                        "signature": "BetWon(address,uint256,uint256)"
                    },
                    "id": 3,
                    "logData": "0x0000000000000000000000000f28120b0611bc4448bbb1ae3c92fbf092523f2400000000000000000000000000000000000000000000000000000000000010d1000000000000000000000000000000000000000000000000034095ea2122ee4e",
                    "logDecoded": true,
                    "operation": "EVENT",
                    "revert": false,
                    "status": true,
                    "topics": [
                        "0x8f25eec129b997ba51175c8f2583cafbfc0c076ef19e2c455869730f969ec44d"
                    ]
                },
                "nodeType": 1
            },
            "4": {
                "invocation": {
                    "address": "0x0f28120b0611bc4448bbb1ae3c92fbf092523f24",
                    "callData": "0x",
                    "decodedMethod": null,
                    "errorInfo": "",
                    "fromAddress": "0x2ab9f67a27f606272189b307052694d3a2b158ba",
                    "gasUsed": 0,
                    "id": 4,
                    "methodDecoded": false,
                    "operation": "CALL",
                    "output": "",
                    "revert": false,
                    "revertMessage": "",
                    "selector": "fallback",
                    "status": true,
                    "value": "0.234352013434089038"
                },
                "nodeType": 0
            }
        },
        "gasFlame": [
            {
                "children": [
                    {
                        "children": [
                            {
                                "children": [],
                                "depth": 0,
                                "name": "Initial Gas",
                                "value": 27032
                            },
                            {
                                "children": [
                                    {
                                        "children": [],
                                        "depth": 1,
                                        "name": "getAddress",
                                        "value": 188
                                    },
                                    {
                                        "children": [],
                                        "depth": 1,
                                        "name": "cbAddress",
                                        "value": 769
                                    },
                                    {
                                        "children": [],
                                        "depth": 1,
                                        "name": "fallback",
                                        "value": 0
                                    }
                                ],
                                "depth": 0,
                                "name": "Executed Gas",
                                "value": 58832
                            }
                        ],
                        "depth": -1,
                        "name": "Actual Gas Used",
                        "value": 85864
                    },
                    {
                        "children": [],
                        "depth": -1,
                        "name": "Refunded Gas",
                        "value": 0
                    }
                ],
                "depth": -2,
                "name": "Total Gas",
                "value": 85864
            }
        ],
        "isConfirmed": true,
        "mainTrace": [
            {
                "children": [
                    {
                        "children": [
                            {
                                "children": [],
                                "depth": 1,
                                "id": 1,
                                "order": 1
                            },
                            {
                                "children": [],
                                "depth": 1,
                                "id": 2,
                                "order": 2
                            },
                            {
                                "children": [],
                                "depth": 1,
                                "id": 3,
                                "order": 3
                            },
                            {
                                "children": [],
                                "depth": 1,
                                "id": 4,
                                "order": 4
                            }
                        ],
                        "depth": 0,
                        "id": 0,
                        "order": 0
                    }
                ],
                "depth": -1,
                "id": -1,
                "order": -1
            }
        ],
        "mainTraceNodeCount": 5,
        "parentIdMap": {
            "0": -1,
            "1": 0,
            "2": 0,
            "3": 0,
            "4": 0
        },
        "tidyTrace": [
            {
                "children": [
                    {
                        "children": [
                            {
                                "children": [],
                                "depth": 1,
                                "id": 1,
                                "order": 1
                            },
                            {
                                "children": [],
                                "depth": 1,
                                "id": 2,
                                "order": 2
                            },
                            {
                                "children": [],
                                "depth": 1,
                                "id": 3,
                                "order": 3
                            },
                            {
                                "children": [],
                                "depth": 1,
                                "id": 4,
                                "order": 4
                            }
                        ],
                        "depth": 0,
                        "id": 0,
                        "order": 0
                    }
                ],
                "depth": -1,
                "id": -1,
                "order": -1
            }
        ],
        "tidyTraceNodeCount": 5
    },
    "state_change": {
        "stateChanges": [
            {
                "address": "0x2ab9f67a27f606272189b307052694d3a2b158ba",
                "erc": "",
                "slots": [
                    {
                        "current": "0x00000000000000000000000000000000000000000000000000000000000010d1",
                        "key": "0xbe46669cda78cd55f9da5a126aaa62171dac94586b8a0c9177122d9fccbf9d1f",
                        "prev": "0x0000000000000000000000000000000000000000000000000000000000000000"
                    },
                    {
                        "current": "0x00000000000000000000000000000000000000000000000045af4438722e2557",
                        "key": "0x0000000000000000000000000000000000000000000000000000000000000017",
                        "prev": "0x000000000000000000000000000000000000000000000000456a8558c8b1221b"
                    },
                    {
                        "current": "0x00000000000000000000000000000000000000000000000b59fe56405aab92f4",
                        "key": "0x0000000000000000000000000000000000000000000000000000000000000015",
                        "prev": "0x00000000000000000000000000000000000000000000000b57027f35e305a7e2"
                    }
                ],
                "storageVariables": []
            }
        ]
    }
}