{
    "balance_change": {
        "balanceChanges": []
    },
    "profile": {
        "basic_info": {
            "baseFee": "2.503613535",
            "blockNumber": 20448805,
            "callData": "0x095ea7b30000000000000000000000001111111254eeb25477b68fb85ed929f73a96058200000000000000000000000000000000000000000000000045c6998091b77f2c",
            "debugEnable": true,
            "errorInfo": "",
            "eventCount": 1,
            "feeRecipient": "0x1f9090aae28b8a3dceadf281b0f12828e676c326",
            "formatValue": "0",
            "gasLimit": 100000,
            "gasPrice": "2.504613535",
            "gasUsed": 26401,
            "intTxnCount": 0,
            "internalRevert": false,
            "internalRevertMessage": "",
            "isContractCreation": false,
            "isFlashloan": false,
            "maxFee": "2.757884364",
            "nonce": 148,
            "overwritedBlockNumber": -1,
            "priorityFee": "0.001",
            "receiver": "0x87289ad614489a339d49937df6637478ce5aae5f",
            "revertMessage": "",
            "sender": "0xe43c9f5c05c4b4f248d9c712ea28d7a59a8517ec",
            "simulationEnable": true,
            "sourceTxnHash": "0x78d6c49bef31faf4c719f9b574453320146a4d318a2eac40c4108064eba26c3e",
            "status": true,
            "timestamp": "2024-08-03T15:06:59Z",
            "transactionFee": "0.000066124301937535",
            "txnHash": "0x78d6c49bef31faf4c719f9b574453320146a4d318a2eac40c4108064eba26c3e",
            "txnIndex": 131,
            "type": 2,
            "value": "0"
        },
        "fund_flow": [],
        "token_infos": [
            {
                "address": "0xc02aaa39b223fe8d0a0e5c4f27ead9083c756cc2",
                "decimals": 18
            },
            {
                "address": "0xeeeeeeeeeeeeeeeeeeeeeeeeeeeeeeeeeeeeeeee",
                "decimals": 18
            }
        ]
    },
    "address_label": {
        "labels": [
            {
                "address": "0x1111111254eeb25477b68fb85ed929f73a960582",
                "label": "Aggregation Router V5"
            },
            {
                "address": "0x87289ad614489a339d49937df6637478ce5aae5f",
                "label": "FINE"
            },
            {
                "address": "0x0000000000000000000000000000000000000001",
                "label": "Precompiled"
            },
            {
                "address": "0x0000000000000000000000000000000000000002",
                "label": "Precompiled"
            },
            {
                "address": "0x0000000000000000000000000000000000000003",
                "label": "Precompiled"
            },
            {
                "address": "0x0000000000000000000000000000000000000004",
                "label": "Precompiled"
            },
            {
                "address": "0xeeeeeeeeeeeeeeeeeeeeeeeeeeeeeeeeeeeeeeee",
                "label": "Ether"
            }
        ]
    },
    "trace": {
        "accountLabels": null,
        "dataMap": {
            "-1": {
                "invocation": {
                    "address": "0xe43c9f5c05c4b4f248d9c712ea28d7a59a8517ec",
                    "callData": "",
                    "decodedMethod": null,
                    "errorInfo": "",
                    "fromAddress": "",
                    "gasUsed": 0,
                    "id": -1,
                    "methodDecoded": false,
                    "operation": "",
                    "output": "",
                    "revert": false,
                    "revertMessage": "",
                    "selector": "",
                    "status": false,
                    "value": ""
                },
                "nodeType": 0
            },
            "0": {
                "invocation": {
                    "address": "0x87289ad614489a339d49937df6637478ce5aae5f",
                    "callData": "0x0000000000000000000000001111111254eeb25477b68fb85ed929f73a96058200000000000000000000000000000000000000000000000045c6998091b77f2c",
                    "decodedMethod": {
                        "callParams": [
                            {
                                "name": "spender",
                                "type": "address",
                                "value": "0x1111111254eeb25477b68fb85ed929f73a960582"
                            },
                            {
                                "decimalAvailable": true,
                                "name": "amount",
                                "type": "uint256",
                                "value": "5,027,874,811,485,323,052"
                            }
                        ],
                        "constructorArguments": "",
                        "name": "approve",
                        "returnParams": [
                            {
                                "name": "",
                                "type": "bool",
                                "value": true
                            }
                        ],
                        "signature": "approve(address,uint256)"
                    },
                    "errorInfo": "",
                    "fromAddress": "0xe43c9f5c05c4b4f248d9c712ea28d7a59a8517ec",
                    "gasUsed": 26401,
                    "id": 0,
                    "methodDecoded": true,
                    "operation": "CALL",
                    "output": "0x0000000000000000000000000000000000000000000000000000000000000001",
                    "revert": false,
                    "revertMessage": "",
                    "selector": "0x095ea7b3",
                    "status": true,
                    "value": "0"
                },
                "nodeType": 0
            },
            "1": {
                "event": {
                    "contract": "0x87289ad614489a339d49937df6637478ce5aae5f",
                    "decodedLog": {
                        "name": "Approval",
                        "params": [
                            {
                                "name": "owner",
                                "type": "address",
                                "value": "0xe43c9f5c05c4b4f248d9c712ea28d7a59a8517ec"
                            },
                            {
                                "name": "spender",
                                "type": "address",
                                "value": "0x1111111254eeb25477b68fb85ed929f73a960582"
                            },
                            {
                                "decimalAvailable": true,
                                "name": "value",
                                "type": "uint256",
                                "value": "5,027,874,811,485,323,052"
                            }
                        ],
                        "signature": "Approval(address,address,uint256)"
                    },
                    "id": 1,
                    "logData": "0x00000000000000000000000000000000000000000000000045c6998091b77f2c",
                    "logDecoded": true,
                    "operation": "EVENT",
                    "revert": false,
                    "status": true,
                    "topics": [
                        "0x8c5be1e5ebec7d5bd14f71427d1e84f3dd0314c0f7b2291e5b200ac8c7c3b925",
                        "0x000000000000000000000000e43c9f5c05c4b4f248d9c712ea28d7a59a8517ec",
                        "0x0000000000000000000000001111111254eeb25477b68fb85ed929f73a960582"
                    ]
                },
                "nodeType": 1
            }
        },
        "gasFlame": [
            {
                "children": [
                    {
                        "children": [
                            {
                                "children": [],
                                "depth": 0,
                                "name": "Initial Gas",
                                "value": 21656
                            },
                            {
                                "children": [],
                                "depth": 0,
                                "name": "Executed Gas",
                                "value": 4745
                            }
                        ],
                        "depth": -1,
                        "name": "Actual Gas Used",
                        "value": 26401
                    },
                    {
                        "children": [],
                        "depth": -1,
                        "name": "Refunded Gas",
                        "value": 0
                    }
                ],
                "depth": -2,
                "name": "Total Gas",
                "value": 26401
            }
        ],
        "isConfirmed": true,
        "mainTrace": [
            {
                "children": [
                    {
                        "children": [
                            {
                                "children": [],
                                "depth": 1,
                                "id": 1,
                                "order": 1
                            }
                        ],
                        "depth": 0,
                        "id": 0,
                        "order": 0
                    }
                ],
                "depth": -1,
                "id": -1,
                "order": -1
            }
        ],
        "mainTraceNodeCount": 2,
        "parentIdMap": {
            "0": -1,
            "1": 0
        },
        "tidyTrace": [
            {
                "children": [
                    {
                        "children": [
                            {
                                "children": [],
                                "depth": 1,
                                "id": 1,
                                "order": 1
                            }
                        ],
                        "depth": 0,
                        "id": 0,
                        "order": 0
                    }
                ],
                "depth": -1,
                "id": -1,
                "order": -1
            }
        ],
        "tidyTraceNodeCount": 2
    },
    "state_change": {
        "stateChanges": []
    }
}