{
    "balance_change": {
        "balanceChanges": [
            {
                "account": "0x1c727a55ea3c11b0ab7d3a361fe0f3c47ce6de5d",
                "assets": [
                    {
                        "address": "0x0001a500a6b18995b03f44bb040a5ffc28e45cb0",
                        "amount": "1,446.820108240423334307",
                        "iconUrl": "",
                        "isERC1155": false,
                        "isERC721": false,
                        "sign": false,
                        "value": "1155.491582"
                    }
                ]
            },
            {
                "account": "0x242a522f7584fa76e3750b29feabda3aab3b27d0",
                "assets": [
                    {
                        "address": "0x0001a500a6b18995b03f44bb040a5ffc28e45cb0",
                        "amount": "1,446.820108240423334307",
                        "iconUrl": "",
                        "isERC1155": false,
                        "isERC721": false,
                        "sign": true,
                        "value": "1155.491582"
                    }
                ]
            }
        ]
    },
    "profile": {
        "basic_info": {
            "baseFee": "0.978529875",
            "blockNumber": 20501545,
            "callData": "0xa9059cbb000000000000000000000000242a522f7584fa76e3750b29feabda3aab3b27d000000000000000000000000000000000000000000000004e6ea996dcfaa5b1a3",
            "debugEnable": true,
            "errorInfo": "",
            "eventCount": 1,
            "feeRecipient": "0x95222290dd7278aa3ddd389cc1e1d165cc4bafe5",
            "formatValue": "0",
            "gasLimit": 300000,
            "gasPrice": "1.035668203",
            "gasUsed": 34232,
            "intTxnCount": 0,
            "internalRevert": false,
            "internalRevertMessage": "",
            "isContractCreation": false,
            "isFlashloan": false,
            "maxFee": "",
            "nonce": 771958,
            "overwritedBlockNumber": -1,
            "priorityFee": "",
            "receiver": "0x0001a500a6b18995b03f44bb040a5ffc28e45cb0",
            "revertMessage": "",
            "sender": "0x1c727a55ea3c11b0ab7d3a361fe0f3c47ce6de5d",
            "simulationEnable": true,
            "sourceTxnHash": "0x78aadc7c59a1806b64f32b117df4288674c29d8319a0638fe9dce7a5e217b198",
            "status": true,
            "timestamp": "2024-08-10T23:37:35Z",
            "transactionFee": "0.000035452993925096",
            "txnHash": "0x78aadc7c59a1806b64f32b117df4288674c29d8319a0638fe9dce7a5e217b198",
            "txnIndex": 78,
            "type": 0,
            "value": "0"
        },
        "fund_flow": [
            {
                "amount": "1,446.820108240423334307",
                "from": "0x1c727a55ea3c11b0ab7d3a361fe0f3c47ce6de5d",
                "id": 1,
                "isERC1155": false,
                "isERC721": false,
                "isReverted": false,
                "order": 1,
                "to": "0x242a522f7584fa76e3750b29feabda3aab3b27d0",
                "token": "0x0001a500a6b18995b03f44bb040a5ffc28e45cb0"
            }
        ],
        "token_infos": [
            {
                "address": "0x0001a500a6b18995b03f44bb040a5ffc28e45cb0",
                "decimals": 18
            },
            {
                "address": "0xc02aaa39b223fe8d0a0e5c4f27ead9083c756cc2",
                "decimals": 18
            },
            {
                "address": "0xeeeeeeeeeeeeeeeeeeeeeeeeeeeeeeeeeeeeeeee",
                "decimals": 18
            }
        ]
    },
    "address_label": {
        "labels": [
            {
                "address": "0x0000000000000000000000000000000000000001",
                "label": "Precompiled"
            },
            {
                "address": "0x0000000000000000000000000000000000000002",
                "label": "Precompiled"
            },
            {
                "address": "0x0000000000000000000000000000000000000003",
                "label": "Precompiled"
            },
            {
                "address": "0x0000000000000000000000000000000000000004",
                "label": "Precompiled"
            },
            {
                "address": "0xeeeeeeeeeeeeeeeeeeeeeeeeeeeeeeeeeeeeeeee",
                "label": "Ether"
            },
            {
                "address": "0x1c727a55ea3c11b0ab7d3a361fe0f3c47ce6de5d",
                "label": "Uphold"
            },
            {
                "address": "0x0001a500a6b18995b03f44bb040a5ffc28e45cb0",
                "label": "Autonolas: OLAS Token"
            }
        ]
    },
    "trace": {
        "accountLabels": null,
        "dataMap": {
            "-1": {
                "invocation": {
                    "address": "0x1c727a55ea3c11b0ab7d3a361fe0f3c47ce6de5d",
                    "callData": "",
                    "decodedMethod": null,
                    "errorInfo": "",
                    "fromAddress": "",
                    "gasUsed": 0,
                    "id": -1,
                    "methodDecoded": false,
                    "operation": "",
                    "output": "",
                    "revert": false,
                    "revertMessage": "",
                    "selector": "",
                    "status": false,
                    "value": ""
                },
                "nodeType": 0
            },
            "0": {
                "invocation": {
                    "address": "0x0001a500a6b18995b03f44bb040a5ffc28e45cb0",
                    "callData": "0x000000000000000000000000242a522f7584fa76e3750b29feabda3aab3b27d000000000000000000000000000000000000000000000004e6ea996dcfaa5b1a3",
                    "decodedMethod": {
                        "callParams": [
                            {
                                "name": "to",
                                "type": "address",
                                "value": "0x242a522f7584fa76e3750b29feabda3aab3b27d0"
                            },
                            {
                                "decimalAvailable": true,
                                "name": "amount",
                                "type": "uint256",
                                "value": "1,446,820,108,240,423,334,307"
                            }
                        ],
                        "constructorArguments": "",
                        "name": "transfer",
                        "returnParams": [
                            {
                                "name": "",
                                "type": "bool",
                                "value": true
                            }
                        ],
                        "signature": "transfer(address,uint256)"
                    },
                    "errorInfo": "",
                    "fromAddress": "0x1c727a55ea3c11b0ab7d3a361fe0f3c47ce6de5d",
                    "gasUsed": 34232,
                    "id": 0,
                    "methodDecoded": true,
                    "operation": "CALL",
                    "output": "0x0000000000000000000000000000000000000000000000000000000000000001",
                    "revert": false,
                    "revertMessage": "",
                    "selector": "0xa9059cbb",
                    "status": true,
                    "value": "0"
                },
                "nodeType": 0
            },
            "1": {
                "event": {
                    "contract": "0x0001a500a6b18995b03f44bb040a5ffc28e45cb0",
                    "decodedLog": {
                        "name": "Transfer",
                        "params": [
                            {
                                "name": "from",
                                "type": "address",
                                "value": "0x1c727a55ea3c11b0ab7d3a361fe0f3c47ce6de5d"
                            },
                            {
                                "name": "to",
                                "type": "address",
                                "value": "0x242a522f7584fa76e3750b29feabda3aab3b27d0"
                            },
                            {
                                "decimalAvailable": true,
                                "name": "amount",
                                "type": "uint256",
                                "value": "1,446,820,108,240,423,334,307"
                            }
                        ],
                        "signature": "Transfer(address,address,uint256)"
                    },
                    "id": 1,
                    "logData": "0x00000000000000000000000000000000000000000000004e6ea996dcfaa5b1a3",
                    "logDecoded": true,
                    "operation": "EVENT",
                    "revert": false,
                    "status": true,
                    "topics": [
                        "0xddf252ad1be2c89b69c2b068fc378daa952ba7f163c4a11628f55a4df523b3ef",
                        "0x0000000000000000000000001c727a55ea3c11b0ab7d3a361fe0f3c47ce6de5d",
                        "0x000000000000000000000000242a522f7584fa76e3750b29feabda3aab3b27d0"
                    ]
                },
                "nodeType": 1
            }
        },
        "gasFlame": [
            {
                "children": [
                    {
                        "children": [
                            {
                                "children": [],
                                "depth": 0,
                                "name": "Initial Gas",
                                "value": 21668
                            },
                            {
                                "children": [],
                                "depth": 0,
                                "name": "Executed Gas",
                                "value": 12564
                            }
                        ],
                        "depth": -1,
                        "name": "Actual Gas Used",
                        "value": 34232
                    },
                    {
                        "children": [],
                        "depth": -1,
                        "name": "Refunded Gas",
                        "value": 0
                    }
                ],
                "depth": -2,
                "name": "Total Gas",
                "value": 34232
            }
        ],
        "isConfirmed": true,
        "mainTrace": [
            {
                "children": [
                    {
                        "children": [
                            {
                                "children": [],
                                "depth": 1,
                                "id": 1,
                                "order": 1
                            }
                        ],
                        "depth": 0,
                        "id": 0,
                        "order": 0
                    }
                ],
                "depth": -1,
                "id": -1,
                "order": -1
            }
        ],
        "mainTraceNodeCount": 2,
        "parentIdMap": {
            "0": -1,
            "1": 0
        },
        "tidyTrace": [
            {
                "children": [
                    {
                        "children": [
                            {
                                "children": [],
                                "depth": 1,
                                "id": 1,
                                "order": 1
                            }
                        ],
                        "depth": 0,
                        "id": 0,
                        "order": 0
                    }
                ],
                "depth": -1,
                "id": -1,
                "order": -1
            }
        ],
        "tidyTraceNodeCount": 2
    },
    "state_change": {
        "stateChanges": [
            {
                "address": "0x0001a500a6b18995b03f44bb040a5ffc28e45cb0",
                "erc": "ERC-20",
                "slots": [
                    {
                        "current": "0x00000000000000000000000000000000000000000000004f192d3a67b1355bd0",
                        "key": "0xcd4cd125a0f64a6f8674373f43fe5899b8e4f8ec7dd3ec59cb66666740701399",
                        "prev": "0x000000000000000000000000000000000000000000000000aa83a38ab68faa2d"
                    },
                    {
                        "current": "0x0000000000000000000000000000000000000000000000f4675c0be9846de1a1",
                        "key": "0x2b444f58fd6b9fa3b2a7de91ac4fc519e9d59133741027fc4fad818f66450165",
                        "prev": "0x000000000000000000000000000000000000000000000142d605a2c67f139344"
                    }
                ],
                "storageVariables": [
                    {
                        "name": "balanceOf",
                        "type": "mapping(address => uint256)",
                        "value": {
                            "pairs": [
                                {
                                    "key": "0x1c727a55ea3c11b0ab7d3a361fe0f3c47ce6de5d",
                                    "value": {
                                        "current": "4508453394966471631265",
                                        "prev": "5955273503206894965572",
                                        "typeTag": 1
                                    }
                                },
                                {
                                    "key": "0x242a522f7584fa76e3750b29feabda3aab3b27d0",
                                    "value": {
                                        "current": "1459106952264983862224",
                                        "prev": "12286844024560527917",
                                        "typeTag": 1
                                    }
                                }
                            ],
                            "typeTag": 4
                        }
                    }
                ]
            }
        ]
    }
}