{
    "balance_change": {
        "balanceChanges": [
            {
                "account": "0xbca0cdbdca5134df5d94d4dc7721fa5cf1ed1063",
                "assets": [
                    {
                        "address": "0x6b175474e89094c44da98b954eedeac495271d0f",
                        "amount": "10,000",
                        "iconUrl": "https://assets.blocksec.com/icon/39aead569b9c011cb6f69734d9abbc9ab6a80049fe93bbd12bb473a3e0e859a3.png",
                        "isERC1155": false,
                        "isERC721": false,
                        "sign": false,
                        "value": "10201.2494"
                    },
                    {
                        "address": "0x57ab1ec28d129707052df4df418d58a2d46d5f51",
                        "amount": "9,972.196873914185893514",
                        "iconUrl": "https://assets.blocksec.com/icon/f7990889db356265de48132657016a0bf24a223aca34117aaed181b3797cca7c.png",
                        "isERC1155": false,
                        "isERC721": false,
                        "sign": true,
                        "value": "10136.56825"
                    }
                ]
            },
            {
                "account": "0xa478c2975ab1ea89e8196811f51a7b7ade33eb11",
                "assets": [
                    {
                        "address": "0x6b175474e89094c44da98b954eedeac495271d0f",
                        "amount": "10,000",
                        "iconUrl": "https://assets.blocksec.com/icon/39aead569b9c011cb6f69734d9abbc9ab6a80049fe93bbd12bb473a3e0e859a3.png",
                        "isERC1155": false,
                        "isERC721": false,
                        "sign": true,
                        "value": "10201.2494"
                    },
                    {
                        "address": "0xc02aaa39b223fe8d0a0e5c4f27ead9083c756cc2",
                        "amount": "28.520415837608388828",
                        "iconUrl": "https://assets.blocksec.com/icon/f1cb2d02c471d545bbc7722daf3277fd852d98e63d118771af7047bd8256c516.png",
                        "isERC1155": false,
                        "isERC721": false,
                        "sign": false,
                        "value": "10205.1752"
                    }
                ]
            },
            {
                "account": "0xf80758ab42c3b07da84053fd88804bcb6baa4b5c",
                "assets": [
                    {
                        "address": "0xc02aaa39b223fe8d0a0e5c4f27ead9083c756cc2",
                        "amount": "28.520415837608388828",
                        "iconUrl": "https://assets.blocksec.com/icon/f1cb2d02c471d545bbc7722daf3277fd852d98e63d118771af7047bd8256c516.png",
                        "isERC1155": false,
                        "isERC721": false,
                        "sign": true,
                        "value": "10205.1752"
                    },
                    {
                        "address": "0x57ab1ec28d129707052df4df418d58a2d46d5f51",
                        "amount": "9,972.196873914185893514",
                        "iconUrl": "https://assets.blocksec.com/icon/f7990889db356265de48132657016a0bf24a223aca34117aaed181b3797cca7c.png",
                        "isERC1155": false,
                        "isERC721": false,
                        "sign": false,
                        "value": "10136.56825"
                    }
                ]
            }
        ]
    },
    "profile": {
        "basic_info": {
            "baseFee": "",
            "blockNumber": 10802092,
            "callData": "0x38ed173900000000000000000000000000000000000000000000021e19e0c9bab24000000000000000000000000000000000000000000000000002194bbb1772b4421caf00000000000000000000000000000000000000000000000000000000000000a0000000000000000000000000bca0cdbdca5134df5d94d4dc7721fa5cf1ed1063000000000000000000000000000000000000000000000000000000005f53ac4900000000000000000000000000000000000000000000000000000000000000030000000000000000000000006b175474e89094c44da98b954eedeac495271d0f000000000000000000000000c02aaa39b223fe8d0a0e5c4f27ead9083c756cc200000000000000000000000057ab1ec28d129707052df4df418d58a2d46d5f51",
            "debugEnable": true,
            "errorInfo": "",
            "eventCount": 7,
            "feeRecipient": "0x04668ec2f57cc15c381b461b9fedab5d451c8f7f",
            "formatValue": "0",
            "gasLimit": 273440,
            "gasPrice": "350",
            "gasUsed": 237172,
            "intTxnCount": 27,
            "internalRevert": false,
            "internalRevertMessage": "",
            "isContractCreation": false,
            "isFlashloan": false,
            "maxFee": "",
            "nonce": 230,
            "overwritedBlockNumber": -1,
            "priorityFee": "",
            "receiver": "0x7a250d5630b4cf539739df2c5dacb4c659f2488d",
            "revertMessage": "",
            "sender": "0xbca0cdbdca5134df5d94d4dc7721fa5cf1ed1063",
            "simulationEnable": true,
            "sourceTxnHash": "0x78e061f462f8639000373edb0f69b23d7aacaa9088d82e7a9decf65830824783",
            "status": true,
            "timestamp": "2020-09-05T14:59:45Z",
            "transactionFee": "0.0830102",
            "txnHash": "0x78e061f462f8639000373edb0f69b23d7aacaa9088d82e7a9decf65830824783",
            "txnIndex": 140,
            "type": 0,
            "value": "0"
        },
        "fund_flow": [
            {
                "amount": "10,000",
                "from": "0xbca0cdbdca5134df5d94d4dc7721fa5cf1ed1063",
                "id": 1,
                "isERC1155": false,
                "isERC721": false,
                "isReverted": false,
                "order": 1,
                "to": "0xa478c2975ab1ea89e8196811f51a7b7ade33eb11",
                "token": "0x6b175474e89094c44da98b954eedeac495271d0f"
            },
            {
                "amount": "28.520415837608388828",
                "from": "0xa478c2975ab1ea89e8196811f51a7b7ade33eb11",
                "id": 2,
                "isERC1155": false,
                "isERC721": false,
                "isReverted": false,
                "order": 2,
                "to": "0xf80758ab42c3b07da84053fd88804bcb6baa4b5c",
                "token": "0xc02aaa39b223fe8d0a0e5c4f27ead9083c756cc2"
            },
            {
                "amount": "9,972.196873914185893514",
                "from": "0xf80758ab42c3b07da84053fd88804bcb6baa4b5c",
                "id": 3,
                "isERC1155": false,
                "isERC721": false,
                "isReverted": false,
                "order": 3,
                "to": "0xbca0cdbdca5134df5d94d4dc7721fa5cf1ed1063",
                "token": "0x57ab1ec28d129707052df4df418d58a2d46d5f51"
            }
        ],
        "token_infos": [
            {
                "address": "0x57ab1ec28d129707052df4df418d58a2d46d5f51",
                "decimals": 18
            },
            {
                "address": "0x6b175474e89094c44da98b954eedeac495271d0f",
                "decimals": 18
            },
            {
                "address": "0xc02aaa39b223fe8d0a0e5c4f27ead9083c756cc2",
                "decimals": 18
            },
            {
                "address": "0xeeeeeeeeeeeeeeeeeeeeeeeeeeeeeeeeeeeeeeee",
                "decimals": 18
            }
        ]
    },
    "address_label": {
        "labels": [
            {
                "address": "0x545973f28950f50fc6c7f52aab4ad214a27c0564",
                "label": "Synthetix: Exchange State"
            },
            {
                "address": "0xc02aaa39b223fe8d0a0e5c4f27ead9083c756cc2",
                "label": "Wrapped Ether (WETH)"
            },
            {
                "address": "0x05a9cbe762b36632b3594da4f082340e0e5343e8",
                "label": "Synthetix: Token State sUSD"
            },
            {
                "address": "0x0000000000000000000000000000000000000004",
                "label": "Precompiled"
            },
            {
                "address": "0x6b175474e89094c44da98b954eedeac495271d0f",
                "label": "Sky: Dai Stablecoin"
            },
            {
                "address": "0xa478c2975ab1ea89e8196811f51a7b7ade33eb11",
                "label": "Uniswap V2: DAI"
            },
            {
                "address": "0xae38b81459d74a8c16eaa968c792207603d84480",
                "label": "Synthetix: Synth sUSD"
            },
            {
                "address": "0x0000000000000000000000000000000000000002",
                "label": "Precompiled"
            },
            {
                "address": "0x4534e92eefecc63c6105f53893d355c14aa129cf",
                "label": "Synthetix: Old System Status"
            },
            {
                "address": "0x7a250d5630b4cf539739df2c5dacb4c659f2488d",
                "label": "Uniswap V2: Router 2"
            },
            {
                "address": "0x57ab1ec28d129707052df4df418d58a2d46d5f51",
                "label": "Synthetix: Proxy sUSD Token"
            },
            {
                "address": "0x1d53a13d78766c0db6ef73ec0ae1138ea2b6f5d4",
                "label": "Exchanger"
            },
            {
                "address": "0xeeeeeeeeeeeeeeeeeeeeeeeeeeeeeeeeeeeeeeee",
                "label": "Ether"
            },
            {
                "address": "0xf80758ab42c3b07da84053fd88804bcb6baa4b5c",
                "label": "Uniswap V2: sUSD"
            },
            {
                "address": "0xc757acba3c0506218b3022266a9dc7f3612d85f5",
                "label": "Synthetix: Flexible Storage"
            },
            {
                "address": "0x0000000000000000000000000000000000000001",
                "label": "Precompiled"
            },
            {
                "address": "0x0000000000000000000000000000000000000003",
                "label": "Precompiled"
            }
        ]
    },
    "trace": {
        "accountLabels": null,
        "dataMap": {
            "-1": {
                "invocation": {
                    "address": "0xbca0cdbdca5134df5d94d4dc7721fa5cf1ed1063",
                    "callData": "",
                    "decodedMethod": null,
                    "errorInfo": "",
                    "fromAddress": "",
                    "gasUsed": 0,
                    "id": -1,
                    "methodDecoded": false,
                    "operation": "",
                    "output": "",
                    "revert": false,
                    "revertMessage": "",
                    "selector": "",
                    "status": false,
                    "value": ""
                },
                "nodeType": 0
            },
            "0": {
                "invocation": {
                    "address": "0x7a250d5630b4cf539739df2c5dacb4c659f2488d",
                    "callData": "0x00000000000000000000000000000000000000000000021e19e0c9bab24000000000000000000000000000000000000000000000000002194bbb1772b4421caf00000000000000000000000000000000000000000000000000000000000000a0000000000000000000000000bca0cdbdca5134df5d94d4dc7721fa5cf1ed1063000000000000000000000000000000000000000000000000000000005f53ac4900000000000000000000000000000000000000000000000000000000000000030000000000000000000000006b175474e89094c44da98b954eedeac495271d0f000000000000000000000000c02aaa39b223fe8d0a0e5c4f27ead9083c756cc200000000000000000000000057ab1ec28d129707052df4df418d58a2d46d5f51",
                    "decodedMethod": {
                        "callParams": [
                            {
                                "name": "amountIn",
                                "type": "uint256",
                                "value": "10,000,000,000,000,000,000,000"
                            },
                            {
                                "name": "amountOutMin",
                                "type": "uint256",
                                "value": "9,911,358,548,736,936,647,855"
                            },
                            {
                                "name": "path",
                                "type": "address[]",
                                "value": [
                                    "0x6b175474e89094c44da98b954eedeac495271d0f",
                                    "0xc02aaa39b223fe8d0a0e5c4f27ead9083c756cc2",
                                    "0x57ab1ec28d129707052df4df418d58a2d46d5f51"
                                ]
                            },
                            {
                                "name": "to",
                                "type": "address",
                                "value": "0xbca0cdbdca5134df5d94d4dc7721fa5cf1ed1063"
                            },
                            {
                                "name": "deadline",
                                "type": "uint256",
                                "value": "1,599,319,113"
                            }
                        ],
                        "constructorArguments": "",
                        "name": "swapExactTokensForTokens",
                        "returnParams": [
                            {
                                "name": "amounts",
                                "type": "uint256[]",
                                "value": [
                                    "10,000,000,000,000,000,000,000",
                                    "28,520,415,837,608,388,828",
                                    "9,972,196,873,914,185,893,514"
                                ]
                            }
                        ],
                        "signature": "swapExactTokensForTokens(uint256,uint256,address[],address,uint256)"
                    },
                    "errorInfo": "",
                    "fromAddress": "0xbca0cdbdca5134df5d94d4dc7721fa5cf1ed1063",
                    "gasUsed": 237172,
                    "id": 0,
                    "methodDecoded": true,
                    "operation": "CALL",
                    "output": "0x0000000000000000000000000000000000000000000000000000000000000020000000000000000000000000000000000000000000000000000000000000000300000000000000000000000000000000000000000000021e19e0c9bab24000000000000000000000000000000000000000000000000000018bccdf18bf12a8dc00000000000000000000000000000000000000000000021c98083ddc8be7468a",
                    "revert": false,
                    "revertMessage": "",
                    "selector": "0x38ed1739",
                    "status": true,
                    "value": "0"
                },
                "nodeType": 0
            },
            "1": {
                "invocation": {
                    "address": "0xa478c2975ab1ea89e8196811f51a7b7ade33eb11",
                    "callData": "0x",
                    "decodedMethod": {
                        "callParams": [],
                        "constructorArguments": "",
                        "name": "getReserves",
                        "returnParams": [
                            {
                                "name": "_reserve0",
                                "type": "uint112",
                                "value": "82,129,900,040,573,110,380,067,495"
                            },
                            {
                                "name": "_reserve1",
                                "type": "uint112",
                                "value": "234,971,238,756,695,702,021,849"
                            },
                            {
                                "name": "_blockTimestampLast",
                                "type": "uint32",
                                "value": "1,599,317,965"
                            }
                        ],
                        "signature": "getReserves()"
                    },
                    "errorInfo": "",
                    "fromAddress": "0x7a250d5630b4cf539739df2c5dacb4c659f2488d",
                    "gasUsed": 1204,
                    "id": 1,
                    "methodDecoded": true,
                    "operation": "STATICCALL",
                    "output": "0x00000000000000000000000000000000000000000043efaecd70a972a3d2faa70000000000000000000000000000000000000000000031c1d0fe0e3c899ca6d9000000000000000000000000000000000000000000000000000000005f53a7cd",
                    "revert": false,
                    "revertMessage": "",
                    "selector": "0x0902f1ac",
                    "status": true,
                    "value": "0"
                },
                "nodeType": 0
            },
            "10": {
                "event": {
                    "contract": "0xa478c2975ab1ea89e8196811f51a7b7ade33eb11",
                    "decodedLog": {
                        "name": "Sync",
                        "params": [
                            {
                                "name": "reserve0",
                                "type": "uint112",
                                "value": "82,139,900,040,573,110,380,067,495"
                            },
                            {
                                "name": "reserve1",
                                "type": "uint112",
                                "value": "234,942,718,340,858,093,633,021"
                            }
                        ],
                        "signature": "Sync(uint112,uint112)"
                    },
                    "id": 10,
                    "logData": "0x00000000000000000000000000000000000000000043f1cce751732d5612faa70000000000000000000000000000000000000000000031c045312f23ca89fdfd",
                    "logDecoded": true,
                    "operation": "EVENT",
                    "revert": false,
                    "status": true,
                    "topics": [
                        "0x1c411e9a96e071241c2f21f7726b17ae89e3cab4c78be50e062b03a9fffbbad1"
                    ]
                },
                "nodeType": 1
            },
            "11": {
                "event": {
                    "contract": "0xa478c2975ab1ea89e8196811f51a7b7ade33eb11",
                    "decodedLog": {
                        "name": "Swap",
                        "params": [
                            {
                                "name": "sender",
                                "type": "address",
                                "value": "0x7a250d5630b4cf539739df2c5dacb4c659f2488d"
                            },
                            {
                                "name": "to",
                                "type": "address",
                                "value": "0xf80758ab42c3b07da84053fd88804bcb6baa4b5c"
                            },
                            {
                                "name": "amount0In",
                                "type": "uint256",
                                "value": "10,000,000,000,000,000,000,000"
                            },
                            {
                                "name": "amount1In",
                                "type": "uint256",
                                "value": "0"
                            },
                            {
                                "name": "amount0Out",
                                "type": "uint256",
                                "value": "0"
                            },
                            {
                                "name": "amount1Out",
                                "type": "uint256",
                                "value": "28,520,415,837,608,388,828"
                            }
                        ],
                        "signature": "Swap(address,uint256,uint256,uint256,uint256,address)"
                    },
                    "id": 11,
                    "logData": "0x00000000000000000000000000000000000000000000021e19e0c9bab2400000000000000000000000000000000000000000000000000000000000000000000000000000000000000000000000000000000000000000000000000000000000000000000000000000000000000000000000000000000000018bccdf18bf12a8dc",
                    "logDecoded": true,
                    "operation": "EVENT",
                    "revert": false,
                    "status": true,
                    "topics": [
                        "0xd78ad95fa46c994b6551d0da85fc275fe613ce37657fb8d5e3d130840159d822",
                        "0x0000000000000000000000007a250d5630b4cf539739df2c5dacb4c659f2488d",
                        "0x000000000000000000000000f80758ab42c3b07da84053fd88804bcb6baa4b5c"
                    ]
                },
                "nodeType": 1
            },
            "12": {
                "invocation": {
                    "address": "0xf80758ab42c3b07da84053fd88804bcb6baa4b5c",
                    "callData": "0x00000000000000000000000000000000000000000000021c98083ddc8be7468a0000000000000000000000000000000000000000000000000000000000000000000000000000000000000000bca0cdbdca5134df5d94d4dc7721fa5cf1ed106300000000000000000000000000000000000000000000000000000000000000800000000000000000000000000000000000000000000000000000000000000000",
                    "decodedMethod": {
                        "callParams": [
                            {
                                "name": "amount0Out",
                                "type": "uint256",
                                "value": "9,972,196,873,914,185,893,514"
                            },
                            {
                                "name": "amount1Out",
                                "type": "uint256",
                                "value": "0"
                            },
                            {
                                "name": "to",
                                "type": "address",
                                "value": "0xbca0cdbdca5134df5d94d4dc7721fa5cf1ed1063"
                            },
                            {
                                "name": "data",
                                "type": "bytes",
                                "value": "0x"
                            }
                        ],
                        "constructorArguments": "",
                        "name": "swap",
                        "returnParams": [],
                        "signature": "swap(uint256,uint256,address,bytes)"
                    },
                    "errorInfo": "",
                    "fromAddress": "0x7a250d5630b4cf539739df2c5dacb4c659f2488d",
                    "gasUsed": 128413,
                    "id": 12,
                    "methodDecoded": true,
                    "operation": "CALL",
                    "output": "",
                    "revert": false,
                    "revertMessage": "",
                    "selector": "0x022c0d9f",
                    "status": true,
                    "value": "0"
                },
                "nodeType": 0
            },
            "13": {
                "invocation": {
                    "address": "0x57ab1ec28d129707052df4df418d58a2d46d5f51",
                    "callData": "0x000000000000000000000000bca0cdbdca5134df5d94d4dc7721fa5cf1ed106300000000000000000000000000000000000000000000021c98083ddc8be7468a",
                    "decodedMethod": {
                        "callParams": [
                            {
                                "name": "to",
                                "type": "address",
                                "value": "0xbca0cdbdca5134df5d94d4dc7721fa5cf1ed1063"
                            },
                            {
                                "decimalAvailable": true,
                                "name": "value",
                                "type": "uint256",
                                "value": "9,972,196,873,914,185,893,514"
                            }
                        ],
                        "constructorArguments": "",
                        "name": "transfer",
                        "returnParams": [
                            {
                                "name": "",
                                "type": "bool",
                                "value": true
                            }
                        ],
                        "signature": "transfer(address,uint256)"
                    },
                    "errorInfo": "",
                    "fromAddress": "0xf80758ab42c3b07da84053fd88804bcb6baa4b5c",
                    "gasUsed": 80801,
                    "id": 13,
                    "methodDecoded": true,
                    "operation": "CALL",
                    "output": "0x0000000000000000000000000000000000000000000000000000000000000001",
                    "revert": false,
                    "revertMessage": "",
                    "selector": "0xa9059cbb",
                    "status": true,
                    "value": "0"
                },
                "nodeType": 0
            },
            "14": {
                "invocation": {
                    "address": "0xae38b81459d74a8c16eaa968c792207603d84480",
                    "callData": "0x000000000000000000000000f80758ab42c3b07da84053fd88804bcb6baa4b5c",
                    "decodedMethod": {
                        "callParams": [
                            {
                                "name": "sender",
                                "type": "address",
                                "value": "0xf80758ab42c3b07da84053fd88804bcb6baa4b5c"
                            }
                        ],
                        "constructorArguments": "",
                        "name": "setMessageSender",
                        "returnParams": [],
                        "signature": "setMessageSender(address)"
                    },
                    "errorInfo": "",
                    "fromAddress": "0x57ab1ec28d129707052df4df418d58a2d46d5f51",
                    "gasUsed": 7837,
                    "id": 14,
                    "methodDecoded": true,
                    "operation": "CALL",
                    "output": "",
                    "revert": false,
                    "revertMessage": "",
                    "selector": "0xbc67f832",
                    "status": true,
                    "value": "0"
                },
                "nodeType": 0
            },
            "15": {
                "invocation": {
                    "address": "0xae38b81459d74a8c16eaa968c792207603d84480",
                    "callData": "0x000000000000000000000000bca0cdbdca5134df5d94d4dc7721fa5cf1ed106300000000000000000000000000000000000000000000021c98083ddc8be7468a",
                    "decodedMethod": {
                        "callParams": [
                            {
                                "name": "to",
                                "type": "address",
                                "value": "0xbca0cdbdca5134df5d94d4dc7721fa5cf1ed1063"
                            },
                            {
                                "decimalAvailable": true,
                                "name": "value",
                                "type": "uint256",
                                "value": "9,972,196,873,914,185,893,514"
                            }
                        ],
                        "constructorArguments": "",
                        "name": "transfer",
                        "returnParams": [
                            {
                                "name": "",
                                "type": "bool",
                                "value": true
                            }
                        ],
                        "signature": "transfer(address,uint256)"
                    },
                    "errorInfo": "",
                    "fromAddress": "0x57ab1ec28d129707052df4df418d58a2d46d5f51",
                    "gasUsed": 67347,
                    "id": 15,
                    "methodDecoded": true,
                    "operation": "CALL",
                    "output": "0x0000000000000000000000000000000000000000000000000000000000000001",
                    "revert": false,
                    "revertMessage": "",
                    "selector": "0xa9059cbb",
                    "status": true,
                    "value": "0"
                },
                "nodeType": 0
            },
            "16": {
                "invocation": {
                    "address": "0x1d53a13d78766c0db6ef73ec0ae1138ea2b6f5d4",
                    "callData": "0x000000000000000000000000f80758ab42c3b07da84053fd88804bcb6baa4b5c7355534400000000000000000000000000000000000000000000000000000000",
                    "decodedMethod": {
                        "callParams": [
                            {
                                "name": "account",
                                "type": "address",
                                "value": "0xf80758ab42c3b07da84053fd88804bcb6baa4b5c"
                            },
                            {
                                "name": "currencyKey",
                                "type": "bytes32",
                                "value": "0x7355534400000000000000000000000000000000000000000000000000000000"
                            }
                        ],
                        "constructorArguments": "",
                        "name": "maxSecsLeftInWaitingPeriod",
                        "returnParams": [
                            {
                                "name": "",
                                "type": "uint256",
                                "value": "0"
                            }
                        ],
                        "signature": "maxSecsLeftInWaitingPeriod(address,bytes32)"
                    },
                    "errorInfo": "",
                    "fromAddress": "0xae38b81459d74a8c16eaa968c792207603d84480",
                    "gasUsed": 9677,
                    "id": 16,
                    "methodDecoded": true,
                    "operation": "CALL",
                    "output": "0x0000000000000000000000000000000000000000000000000000000000000000",
                    "revert": false,
                    "revertMessage": "",
                    "selector": "0x059c29ec",
                    "status": true,
                    "value": "0"
                },
                "nodeType": 0
            },
            "17": {
                "invocation": {
                    "address": "0x545973f28950f50fc6c7f52aab4ad214a27c0564",
                    "callData": "0x000000000000000000000000f80758ab42c3b07da84053fd88804bcb6baa4b5c7355534400000000000000000000000000000000000000000000000000000000",
                    "decodedMethod": {
                        "callParams": [
                            {
                                "name": "account",
                                "type": "address",
                                "value": "0xf80758ab42c3b07da84053fd88804bcb6baa4b5c"
                            },
                            {
                                "name": "currencyKey",
                                "type": "bytes32",
                                "value": "0x7355534400000000000000000000000000000000000000000000000000000000"
                            }
                        ],
                        "constructorArguments": "",
                        "name": "getMaxTimestamp",
                        "returnParams": [
                            {
                                "name": "",
                                "type": "uint256",
                                "value": "0"
                            }
                        ],
                        "signature": "getMaxTimestamp(address,bytes32)"
                    },
                    "errorInfo": "",
                    "fromAddress": "0x1d53a13d78766c0db6ef73ec0ae1138ea2b6f5d4",
                    "gasUsed": 1619,
                    "id": 17,
                    "methodDecoded": true,
                    "operation": "STATICCALL",
                    "output": "0x0000000000000000000000000000000000000000000000000000000000000000",
                    "revert": false,
                    "revertMessage": "",
                    "selector": "0xf1406dc8",
                    "status": true,
                    "value": "0"
                },
                "nodeType": 0
            },
            "18": {
                "invocation": {
                    "address": "0xc757acba3c0506218b3022266a9dc7f3612d85f5",
                    "callData": "0x53797374656d53657474696e677300000000000000000000000000000000000077616974696e67506572696f6453656373000000000000000000000000000000",
                    "decodedMethod": {
                        "callParams": [
                            {
                                "name": "contractName",
                                "type": "bytes32",
                                "value": "0x53797374656d53657474696e6773000000000000000000000000000000000000"
                            },
                            {
                                "name": "record",
                                "type": "bytes32",
                                "value": "0x77616974696e67506572696f6453656373000000000000000000000000000000"
                            }
                        ],
                        "constructorArguments": "",
                        "name": "getUIntValue",
                        "returnParams": [
                            {
                                "name": "",
                                "type": "uint256",
                                "value": "300"
                            }
                        ],
                        "signature": "getUIntValue(bytes32,bytes32)"
                    },
                    "errorInfo": "",
                    "fromAddress": "0x1d53a13d78766c0db6ef73ec0ae1138ea2b6f5d4",
                    "gasUsed": 2168,
                    "id": 18,
                    "methodDecoded": true,
                    "operation": "STATICCALL",
                    "output": "0x000000000000000000000000000000000000000000000000000000000000012c",
                    "revert": false,
                    "revertMessage": "",
                    "selector": "0x23257c2b",
                    "status": true,
                    "value": "0"
                },
                "nodeType": 0
            },
            "19": {
                "invocation": {
                    "address": "0x1d53a13d78766c0db6ef73ec0ae1138ea2b6f5d4",
                    "callData": "0x000000000000000000000000f80758ab42c3b07da84053fd88804bcb6baa4b5c7355534400000000000000000000000000000000000000000000000000000000",
                    "decodedMethod": {
                        "callParams": [
                            {
                                "name": "account",
                                "type": "address",
                                "value": "0xf80758ab42c3b07da84053fd88804bcb6baa4b5c"
                            },
                            {
                                "name": "currencyKey",
                                "type": "bytes32",
                                "value": "0x7355534400000000000000000000000000000000000000000000000000000000"
                            }
                        ],
                        "constructorArguments": "",
                        "name": "settlementOwing",
                        "returnParams": [
                            {
                                "name": "reclaimAmount",
                                "type": "uint256",
                                "value": "0"
                            },
                            {
                                "name": "rebateAmount",
                                "type": "uint256",
                                "value": "0"
                            },
                            {
                                "name": "numEntries",
                                "type": "uint256",
                                "value": "0"
                            }
                        ],
                        "signature": "settlementOwing(address,bytes32)"
                    },
                    "errorInfo": "",
                    "fromAddress": "0xae38b81459d74a8c16eaa968c792207603d84480",
                    "gasUsed": 4850,
                    "id": 19,
                    "methodDecoded": true,
                    "operation": "CALL",
                    "output": "0x000000000000000000000000000000000000000000000000000000000000000000000000000000000000000000000000000000000000000000000000000000000000000000000000000000000000000000000000000000000000000000000000",
                    "revert": false,
                    "revertMessage": "",
                    "selector": "0x19d5c665",
                    "status": true,
                    "value": "0"
                },
                "nodeType": 0
            },
            "2": {
                "invocation": {
                    "address": "0xf80758ab42c3b07da84053fd88804bcb6baa4b5c",
                    "callData": "0x",
                    "decodedMethod": {
                        "callParams": [],
                        "constructorArguments": "",
                        "name": "getReserves",
                        "returnParams": [
                            {
                                "name": "_reserve0",
                                "type": "uint112",
                                "value": "27,041,495,471,281,935,022,803,640"
                            },
                            {
                                "name": "_reserve1",
                                "type": "uint112",
                                "value": "77,078,044,424,415,598,002,726"
                            },
                            {
                                "name": "_blockTimestampLast",
                                "type": "uint32",
                                "value": "1,599,317,919"
                            }
                        ],
                        "signature": "getReserves()"
                    },
                    "errorInfo": "",
                    "fromAddress": "0x7a250d5630b4cf539739df2c5dacb4c659f2488d",
                    "gasUsed": 1204,
                    "id": 2,
                    "methodDecoded": true,
                    "operation": "STATICCALL",
                    "output": "0x000000000000000000000000000000000000000000165e4268280b8d9313cab800000000000000000000000000000000000000000000105268bec3063daac226000000000000000000000000000000000000000000000000000000005f53a79f",
                    "revert": false,
                    "revertMessage": "",
                    "selector": "0x0902f1ac",
                    "status": true,
                    "value": "0"
                },
                "nodeType": 0
            },
            "20": {
                "invocation": {
                    "address": "0x545973f28950f50fc6c7f52aab4ad214a27c0564",
                    "callData": "0x000000000000000000000000f80758ab42c3b07da84053fd88804bcb6baa4b5c7355534400000000000000000000000000000000000000000000000000000000",
                    "decodedMethod": {
                        "callParams": [
                            {
                                "name": "account",
                                "type": "address",
                                "value": "0xf80758ab42c3b07da84053fd88804bcb6baa4b5c"
                            },
                            {
                                "name": "currencyKey",
                                "type": "bytes32",
                                "value": "0x7355534400000000000000000000000000000000000000000000000000000000"
                            }
                        ],
                        "constructorArguments": "",
                        "name": "getLengthOfEntries",
                        "returnParams": [
                            {
                                "name": "",
                                "type": "uint256",
                                "value": "0"
                            }
                        ],
                        "signature": "getLengthOfEntries(address,bytes32)"
                    },
                    "errorInfo": "",
                    "fromAddress": "0x1d53a13d78766c0db6ef73ec0ae1138ea2b6f5d4",
                    "gasUsed": 1510,
                    "id": 20,
                    "methodDecoded": true,
                    "operation": "STATICCALL",
                    "output": "0x0000000000000000000000000000000000000000000000000000000000000000",
                    "revert": false,
                    "revertMessage": "",
                    "selector": "0xb44e9753",
                    "status": true,
                    "value": "0"
                },
                "nodeType": 0
            },
            "21": {
                "invocation": {
                    "address": "0x05a9cbe762b36632b3594da4f082340e0e5343e8",
                    "callData": "0x000000000000000000000000f80758ab42c3b07da84053fd88804bcb6baa4b5c",
                    "decodedMethod": {
                        "callParams": [
                            {
                                "name": "",
                                "type": "address",
                                "value": "0xf80758ab42c3b07da84053fd88804bcb6baa4b5c"
                            }
                        ],
                        "constructorArguments": "",
                        "name": "balanceOf",
                        "returnParams": [
                            {
                                "decimalAvailable": true,
                                "name": "",
                                "type": "uint256",
                                "value": "27,041,495,471,281,935,022,803,640"
                            }
                        ],
                        "signature": "balanceOf(address)"
                    },
                    "errorInfo": "",
                    "fromAddress": "0xae38b81459d74a8c16eaa968c792207603d84480",
                    "gasUsed": 1197,
                    "id": 21,
                    "methodDecoded": true,
                    "operation": "CALL",
                    "output": "0x000000000000000000000000000000000000000000165e4268280b8d9313cab8",
                    "revert": false,
                    "revertMessage": "",
                    "selector": "0x70a08231",
                    "status": true,
                    "value": "0"
                },
                "nodeType": 0
            },
            "22": {
                "invocation": {
                    "address": "0x4534e92eefecc63c6105f53893d355c14aa129cf",
                    "callData": "0x7355534400000000000000000000000000000000000000000000000000000000",
                    "decodedMethod": {
                        "callParams": [
                            {
                                "name": "currencyKey",
                                "type": "bytes32",
                                "value": "0x7355534400000000000000000000000000000000000000000000000000000000"
                            }
                        ],
                        "constructorArguments": "",
                        "name": "requireSynthActive",
                        "returnParams": [],
                        "signature": "requireSynthActive(bytes32)"
                    },
                    "errorInfo": "",
                    "fromAddress": "0xae38b81459d74a8c16eaa968c792207603d84480",
                    "gasUsed": 2314,
                    "id": 22,
                    "methodDecoded": true,
                    "operation": "CALL",
                    "output": "",
                    "revert": false,
                    "revertMessage": "",
                    "selector": "0x42a28e21",
                    "status": true,
                    "value": "0"
                },
                "nodeType": 0
            },
            "23": {
                "invocation": {
                    "address": "0x05a9cbe762b36632b3594da4f082340e0e5343e8",
                    "callData": "0x000000000000000000000000f80758ab42c3b07da84053fd88804bcb6baa4b5c",
                    "decodedMethod": {
                        "callParams": [
                            {
                                "name": "",
                                "type": "address",
                                "value": "0xf80758ab42c3b07da84053fd88804bcb6baa4b5c"
                            }
                        ],
                        "constructorArguments": "",
                        "name": "balanceOf",
                        "returnParams": [
                            {
                                "decimalAvailable": true,
                                "name": "",
                                "type": "uint256",
                                "value": "27,041,495,471,281,935,022,803,640"
                            }
                        ],
                        "signature": "balanceOf(address)"
                    },
                    "errorInfo": "",
                    "fromAddress": "0xae38b81459d74a8c16eaa968c792207603d84480",
                    "gasUsed": 1197,
                    "id": 23,
                    "methodDecoded": true,
                    "operation": "CALL",
                    "output": "0x000000000000000000000000000000000000000000165e4268280b8d9313cab8",
                    "revert": false,
                    "revertMessage": "",
                    "selector": "0x70a08231",
                    "status": true,
                    "value": "0"
                },
                "nodeType": 0
            },
            "24": {
                "invocation": {
                    "address": "0x05a9cbe762b36632b3594da4f082340e0e5343e8",
                    "callData": "0x000000000000000000000000f80758ab42c3b07da84053fd88804bcb6baa4b5c000000000000000000000000000000000000000000165c25d01fcdb1072c842e",
                    "decodedMethod": {
                        "callParams": [
                            {
                                "name": "account",
                                "type": "address",
                                "value": "0xf80758ab42c3b07da84053fd88804bcb6baa4b5c"
                            },
                            {
                                "name": "value",
                                "type": "uint256",
                                "value": "27,031,523,274,408,020,836,910,126"
                            }
                        ],
                        "constructorArguments": "",
                        "name": "setBalanceOf",
                        "returnParams": [],
                        "signature": "setBalanceOf(address,uint256)"
                    },
                    "errorInfo": "",
                    "fromAddress": "0xae38b81459d74a8c16eaa968c792207603d84480",
                    "gasUsed": 6418,
                    "id": 24,
                    "methodDecoded": true,
                    "operation": "CALL",
                    "output": "",
                    "revert": false,
                    "revertMessage": "",
                    "selector": "0xb46310f6",
                    "status": true,
                    "value": "0"
                },
                "nodeType": 0
            },
            "25": {
                "invocation": {
                    "address": "0x05a9cbe762b36632b3594da4f082340e0e5343e8",
                    "callData": "0x000000000000000000000000bca0cdbdca5134df5d94d4dc7721fa5cf1ed1063",
                    "decodedMethod": {
                        "callParams": [
                            {
                                "name": "",
                                "type": "address",
                                "value": "0xbca0cdbdca5134df5d94d4dc7721fa5cf1ed1063"
                            }
                        ],
                        "constructorArguments": "",
                        "name": "balanceOf",
                        "returnParams": [
                            {
                                "decimalAvailable": true,
                                "name": "",
                                "type": "uint256",
                                "value": "9,977,171,061,653,716,356,068"
                            }
                        ],
                        "signature": "balanceOf(address)"
                    },
                    "errorInfo": "",
                    "fromAddress": "0xae38b81459d74a8c16eaa968c792207603d84480",
                    "gasUsed": 1197,
                    "id": 25,
                    "methodDecoded": true,
                    "operation": "CALL",
                    "output": "0x00000000000000000000000000000000000000000000021cdd101b4198b84be4",
                    "revert": false,
                    "revertMessage": "",
                    "selector": "0x70a08231",
                    "status": true,
                    "value": "0"
                },
                "nodeType": 0
            },
            "26": {
                "invocation": {
                    "address": "0x05a9cbe762b36632b3594da4f082340e0e5343e8",
                    "callData": "0x000000000000000000000000bca0cdbdca5134df5d94d4dc7721fa5cf1ed10630000000000000000000000000000000000000000000004397518591e249f926e",
                    "decodedMethod": {
                        "callParams": [
                            {
                                "name": "account",
                                "type": "address",
                                "value": "0xbca0cdbdca5134df5d94d4dc7721fa5cf1ed1063"
                            },
                            {
                                "name": "value",
                                "type": "uint256",
                                "value": "19,949,367,935,567,902,249,582"
                            }
                        ],
                        "constructorArguments": "",
                        "name": "setBalanceOf",
                        "returnParams": [],
                        "signature": "setBalanceOf(address,uint256)"
                    },
                    "errorInfo": "",
                    "fromAddress": "0xae38b81459d74a8c16eaa968c792207603d84480",
                    "gasUsed": 6418,
                    "id": 26,
                    "methodDecoded": true,
                    "operation": "CALL",
                    "output": "",
                    "revert": false,
                    "revertMessage": "",
                    "selector": "0xb46310f6",
                    "status": true,
                    "value": "0"
                },
                "nodeType": 0
            },
            "27": {
                "invocation": {
                    "address": "0x57ab1ec28d129707052df4df418d58a2d46d5f51",
                    "callData": "0x00000000000000000000000000000000000000000000000000000000000000c00000000000000000000000000000000000000000000000000000000000000003ddf252ad1be2c89b69c2b068fc378daa952ba7f163c4a11628f55a4df523b3ef000000000000000000000000f80758ab42c3b07da84053fd88804bcb6baa4b5c000000000000000000000000bca0cdbdca5134df5d94d4dc7721fa5cf1ed10630000000000000000000000000000000000000000000000000000000000000000000000000000000000000000000000000000000000000000000000000000002000000000000000000000000000000000000000000000021c98083ddc8be7468a",
                    "decodedMethod": {
                        "callParams": [
                            {
                                "name": "callData",
                                "type": "bytes",
                                "value": "0x00000000000000000000000000000000000000000000021c98083ddc8be7468a"
                            },
                            {
                                "name": "numTopics",
                                "type": "uint256",
                                "value": "3"
                            },
                            {
                                "name": "topic1",
                                "type": "bytes32",
                                "value": "0xddf252ad1be2c89b69c2b068fc378daa952ba7f163c4a11628f55a4df523b3ef"
                            },
                            {
                                "name": "topic2",
                                "type": "bytes32",
                                "value": "0x000000000000000000000000f80758ab42c3b07da84053fd88804bcb6baa4b5c"
                            },
                            {
                                "name": "topic3",
                                "type": "bytes32",
                                "value": "0x000000000000000000000000bca0cdbdca5134df5d94d4dc7721fa5cf1ed1063"
                            },
                            {
                                "name": "topic4",
                                "type": "bytes32",
                                "value": "0x0000000000000000000000000000000000000000000000000000000000000000"
                            }
                        ],
                        "constructorArguments": "",
                        "name": "_emit",
                        "returnParams": [],
                        "signature": "_emit(bytes,uint256,bytes32,bytes32,bytes32,bytes32)"
                    },
                    "errorInfo": "",
                    "fromAddress": "0xae38b81459d74a8c16eaa968c792207603d84480",
                    "gasUsed": 3406,
                    "id": 27,
                    "methodDecoded": true,
                    "operation": "CALL",
                    "output": "",
                    "revert": false,
                    "revertMessage": "",
                    "selector": "0x907dff97",
                    "status": true,
                    "value": "0"
                },
                "nodeType": 0
            },
            "28": {
                "event": {
                    "contract": "0x57ab1ec28d129707052df4df418d58a2d46d5f51",
                    "decodedLog": {
                        "name": "Transfer",
                        "params": [
                            {
                                "name": "from",
                                "type": "address",
                                "value": "0xf80758ab42c3b07da84053fd88804bcb6baa4b5c"
                            },
                            {
                                "name": "to",
                                "type": "address",
                                "value": "0xbca0cdbdca5134df5d94d4dc7721fa5cf1ed1063"
                            },
                            {
                                "decimalAvailable": true,
                                "name": "value",
                                "type": "uint256",
                                "value": "9,972,196,873,914,185,893,514"
                            }
                        ],
                        "signature": "Transfer(address,address,uint256)"
                    },
                    "id": 28,
                    "logData": "0x00000000000000000000000000000000000000000000021c98083ddc8be7468a",
                    "logDecoded": true,
                    "operation": "EVENT",
                    "revert": false,
                    "status": true,
                    "topics": [
                        "0xddf252ad1be2c89b69c2b068fc378daa952ba7f163c4a11628f55a4df523b3ef",
                        "0x000000000000000000000000f80758ab42c3b07da84053fd88804bcb6baa4b5c",
                        "0x000000000000000000000000bca0cdbdca5134df5d94d4dc7721fa5cf1ed1063"
                    ]
                },
                "nodeType": 1
            },
            "29": {
                "invocation": {
                    "address": "0x57ab1ec28d129707052df4df418d58a2d46d5f51",
                    "callData": "0x000000000000000000000000f80758ab42c3b07da84053fd88804bcb6baa4b5c",
                    "decodedMethod": {
                        "callParams": [
                            {
                                "name": "owner",
                                "type": "address",
                                "value": "0xf80758ab42c3b07da84053fd88804bcb6baa4b5c"
                            }
                        ],
                        "constructorArguments": "",
                        "name": "balanceOf",
                        "returnParams": [
                            {
                                "decimalAvailable": true,
                                "name": "",
                                "type": "uint256",
                                "value": "27,031,523,274,408,020,836,910,126"
                            }
                        ],
                        "signature": "balanceOf(address)"
                    },
                    "errorInfo": "",
                    "fromAddress": "0xf80758ab42c3b07da84053fd88804bcb6baa4b5c",
                    "gasUsed": 7355,
                    "id": 29,
                    "methodDecoded": true,
                    "operation": "STATICCALL",
                    "output": "0x000000000000000000000000000000000000000000165c25d01fcdb1072c842e",
                    "revert": false,
                    "revertMessage": "",
                    "selector": "0x70a08231",
                    "status": true,
                    "value": "0"
                },
                "nodeType": 0
            },
            "3": {
                "invocation": {
                    "address": "0x6b175474e89094c44da98b954eedeac495271d0f",
                    "callData": "0x000000000000000000000000bca0cdbdca5134df5d94d4dc7721fa5cf1ed1063000000000000000000000000a478c2975ab1ea89e8196811f51a7b7ade33eb1100000000000000000000000000000000000000000000021e19e0c9bab2400000",
                    "decodedMethod": {
                        "callParams": [
                            {
                                "name": "src",
                                "type": "address",
                                "value": "0xbca0cdbdca5134df5d94d4dc7721fa5cf1ed1063"
                            },
                            {
                                "name": "dst",
                                "type": "address",
                                "value": "0xa478c2975ab1ea89e8196811f51a7b7ade33eb11"
                            },
                            {
                                "decimalAvailable": true,
                                "name": "wad",
                                "type": "uint256",
                                "value": "10,000,000,000,000,000,000,000"
                            }
                        ],
                        "constructorArguments": "",
                        "name": "transferFrom",
                        "returnParams": [
                            {
                                "name": "",
                                "type": "bool",
                                "value": true
                            }
                        ],
                        "signature": "transferFrom(address,address,uint256)"
                    },
                    "errorInfo": "",
                    "fromAddress": "0x7a250d5630b4cf539739df2c5dacb4c659f2488d",
                    "gasUsed": 16418,
                    "id": 3,
                    "methodDecoded": true,
                    "operation": "CALL",
                    "output": "0x0000000000000000000000000000000000000000000000000000000000000001",
                    "revert": false,
                    "revertMessage": "",
                    "selector": "0x23b872dd",
                    "status": true,
                    "value": "0"
                },
                "nodeType": 0
            },
            "30": {
                "invocation": {
                    "address": "0xae38b81459d74a8c16eaa968c792207603d84480",
                    "callData": "0x000000000000000000000000f80758ab42c3b07da84053fd88804bcb6baa4b5c",
                    "decodedMethod": {
                        "callParams": [
                            {
                                "name": "account",
                                "type": "address",
                                "value": "0xf80758ab42c3b07da84053fd88804bcb6baa4b5c"
                            }
                        ],
                        "constructorArguments": "",
                        "name": "balanceOf",
                        "returnParams": [
                            {
                                "decimalAvailable": true,
                                "name": "",
                                "type": "uint256",
                                "value": "27,031,523,274,408,020,836,910,126"
                            }
                        ],
                        "signature": "balanceOf(address)"
                    },
                    "errorInfo": "",
                    "fromAddress": "0x57ab1ec28d129707052df4df418d58a2d46d5f51",
                    "gasUsed": 4431,
                    "id": 30,
                    "methodDecoded": true,
                    "operation": "CALL",
                    "output": "0x000000000000000000000000000000000000000000165c25d01fcdb1072c842e",
                    "revert": false,
                    "revertMessage": "",
                    "selector": "0x70a08231",
                    "status": true,
                    "value": "0"
                },
                "nodeType": 0
            },
            "31": {
                "invocation": {
                    "address": "0x05a9cbe762b36632b3594da4f082340e0e5343e8",
                    "callData": "0x000000000000000000000000f80758ab42c3b07da84053fd88804bcb6baa4b5c",
                    "decodedMethod": {
                        "callParams": [
                            {
                                "name": "",
                                "type": "address",
                                "value": "0xf80758ab42c3b07da84053fd88804bcb6baa4b5c"
                            }
                        ],
                        "constructorArguments": "",
                        "name": "balanceOf",
                        "returnParams": [
                            {
                                "decimalAvailable": true,
                                "name": "",
                                "type": "uint256",
                                "value": "27,031,523,274,408,020,836,910,126"
                            }
                        ],
                        "signature": "balanceOf(address)"
                    },
                    "errorInfo": "",
                    "fromAddress": "0xae38b81459d74a8c16eaa968c792207603d84480",
                    "gasUsed": 1197,
                    "id": 31,
                    "methodDecoded": true,
                    "operation": "CALL",
                    "output": "0x000000000000000000000000000000000000000000165c25d01fcdb1072c842e",
                    "revert": false,
                    "revertMessage": "",
                    "selector": "0x70a08231",
                    "status": true,
                    "value": "0"
                },
                "nodeType": 0
            },
            "32": {
                "invocation": {
                    "address": "0xc02aaa39b223fe8d0a0e5c4f27ead9083c756cc2",
                    "callData": "0x000000000000000000000000f80758ab42c3b07da84053fd88804bcb6baa4b5c",
                    "decodedMethod": {
                        "callParams": [
                            {
                                "name": "",
                                "type": "address",
                                "value": "0xf80758ab42c3b07da84053fd88804bcb6baa4b5c"
                            }
                        ],
                        "constructorArguments": "",
                        "name": "balanceOf",
                        "returnParams": [
                            {
                                "decimalAvailable": true,
                                "name": "",
                                "type": "uint256",
                                "value": "77,106,564,840,253,206,391,554"
                            }
                        ],
                        "signature": "balanceOf(address)"
                    },
                    "errorInfo": "",
                    "fromAddress": "0xf80758ab42c3b07da84053fd88804bcb6baa4b5c",
                    "gasUsed": 1234,
                    "id": 32,
                    "methodDecoded": true,
                    "operation": "STATICCALL",
                    "output": "0x000000000000000000000000000000000000000000001053f48ba21efcbd6b02",
                    "revert": false,
                    "revertMessage": "",
                    "selector": "0x70a08231",
                    "status": true,
                    "value": "0"
                },
                "nodeType": 0
            },
            "33": {
                "event": {
                    "contract": "0xf80758ab42c3b07da84053fd88804bcb6baa4b5c",
                    "decodedLog": {
                        "name": "Sync",
                        "params": [
                            {
                                "name": "reserve0",
                                "type": "uint112",
                                "value": "27,031,523,274,408,020,836,910,126"
                            },
                            {
                                "name": "reserve1",
                                "type": "uint112",
                                "value": "77,106,564,840,253,206,391,554"
                            }
                        ],
                        "signature": "Sync(uint112,uint112)"
                    },
                    "id": 33,
                    "logData": "0x000000000000000000000000000000000000000000165c25d01fcdb1072c842e000000000000000000000000000000000000000000001053f48ba21efcbd6b02",
                    "logDecoded": true,
                    "operation": "EVENT",
                    "revert": false,
                    "status": true,
                    "topics": [
                        "0x1c411e9a96e071241c2f21f7726b17ae89e3cab4c78be50e062b03a9fffbbad1"
                    ]
                },
                "nodeType": 1
            },
            "34": {
                "event": {
                    "contract": "0xf80758ab42c3b07da84053fd88804bcb6baa4b5c",
                    "decodedLog": {
                        "name": "Swap",
                        "params": [
                            {
                                "name": "sender",
                                "type": "address",
                                "value": "0x7a250d5630b4cf539739df2c5dacb4c659f2488d"
                            },
                            {
                                "name": "to",
                                "type": "address",
                                "value": "0xbca0cdbdca5134df5d94d4dc7721fa5cf1ed1063"
                            },
                            {
                                "name": "amount0In",
                                "type": "uint256",
                                "value": "0"
                            },
                            {
                                "name": "amount1In",
                                "type": "uint256",
                                "value": "28,520,415,837,608,388,828"
                            },
                            {
                                "name": "amount0Out",
                                "type": "uint256",
                                "value": "9,972,196,873,914,185,893,514"
                            },
                            {
                                "name": "amount1Out",
                                "type": "uint256",
                                "value": "0"
                            }
                        ],
                        "signature": "Swap(address,uint256,uint256,uint256,uint256,address)"
                    },
                    "id": 34,
                    "logData": "0x00000000000000000000000000000000000000000000000000000000000000000000000000000000000000000000000000000000000000018bccdf18bf12a8dc00000000000000000000000000000000000000000000021c98083ddc8be7468a0000000000000000000000000000000000000000000000000000000000000000",
                    "logDecoded": true,
                    "operation": "EVENT",
                    "revert": false,
                    "status": true,
                    "topics": [
                        "0xd78ad95fa46c994b6551d0da85fc275fe613ce37657fb8d5e3d130840159d822",
                        "0x0000000000000000000000007a250d5630b4cf539739df2c5dacb4c659f2488d",
                        "0x000000000000000000000000bca0cdbdca5134df5d94d4dc7721fa5cf1ed1063"
                    ]
                },
                "nodeType": 1
            },
            "4": {
                "event": {
                    "contract": "0x6b175474e89094c44da98b954eedeac495271d0f",
                    "decodedLog": {
                        "name": "Transfer",
                        "params": [
                            {
                                "name": "src",
                                "type": "address",
                                "value": "0xbca0cdbdca5134df5d94d4dc7721fa5cf1ed1063"
                            },
                            {
                                "name": "dst",
                                "type": "address",
                                "value": "0xa478c2975ab1ea89e8196811f51a7b7ade33eb11"
                            },
                            {
                                "decimalAvailable": true,
                                "name": "wad",
                                "type": "uint256",
                                "value": "10,000,000,000,000,000,000,000"
                            }
                        ],
                        "signature": "Transfer(address,address,uint256)"
                    },
                    "id": 4,
                    "logData": "0x00000000000000000000000000000000000000000000021e19e0c9bab2400000",
                    "logDecoded": true,
                    "operation": "EVENT",
                    "revert": false,
                    "status": true,
                    "topics": [
                        "0xddf252ad1be2c89b69c2b068fc378daa952ba7f163c4a11628f55a4df523b3ef",
                        "0x000000000000000000000000bca0cdbdca5134df5d94d4dc7721fa5cf1ed1063",
                        "0x000000000000000000000000a478c2975ab1ea89e8196811f51a7b7ade33eb11"
                    ]
                },
                "nodeType": 1
            },
            "5": {
                "invocation": {
                    "address": "0xa478c2975ab1ea89e8196811f51a7b7ade33eb11",
                    "callData": "0x00000000000000000000000000000000000000000000000000000000000000000000000000000000000000000000000000000000000000018bccdf18bf12a8dc000000000000000000000000f80758ab42c3b07da84053fd88804bcb6baa4b5c00000000000000000000000000000000000000000000000000000000000000800000000000000000000000000000000000000000000000000000000000000000",
                    "decodedMethod": {
                        "callParams": [
                            {
                                "name": "amount0Out",
                                "type": "uint256",
                                "value": "0"
                            },
                            {
                                "name": "amount1Out",
                                "type": "uint256",
                                "value": "28,520,415,837,608,388,828"
                            },
                            {
                                "name": "to",
                                "type": "address",
                                "value": "0xf80758ab42c3b07da84053fd88804bcb6baa4b5c"
                            },
                            {
                                "name": "data",
                                "type": "bytes",
                                "value": "0x"
                            }
                        ],
                        "constructorArguments": "",
                        "name": "swap",
                        "returnParams": [],
                        "signature": "swap(uint256,uint256,address,bytes)"
                    },
                    "errorInfo": "",
                    "fromAddress": "0x7a250d5630b4cf539739df2c5dacb4c659f2488d",
                    "gasUsed": 56721,
                    "id": 5,
                    "methodDecoded": true,
                    "operation": "CALL",
                    "output": "",
                    "revert": false,
                    "revertMessage": "",
                    "selector": "0x022c0d9f",
                    "status": true,
                    "value": "0"
                },
                "nodeType": 0
            },
            "6": {
                "invocation": {
                    "address": "0xc02aaa39b223fe8d0a0e5c4f27ead9083c756cc2",
                    "callData": "0x000000000000000000000000f80758ab42c3b07da84053fd88804bcb6baa4b5c0000000000000000000000000000000000000000000000018bccdf18bf12a8dc",
                    "decodedMethod": {
                        "callParams": [
                            {
                                "name": "dst",
                                "type": "address",
                                "value": "0xf80758ab42c3b07da84053fd88804bcb6baa4b5c"
                            },
                            {
                                "decimalAvailable": true,
                                "name": "wad",
                                "type": "uint256",
                                "value": "28,520,415,837,608,388,828"
                            }
                        ],
                        "constructorArguments": "",
                        "name": "transfer",
                        "returnParams": [
                            {
                                "name": "",
                                "type": "bool",
                                "value": true
                            }
                        ],
                        "signature": "transfer(address,uint256)"
                    },
                    "errorInfo": "",
                    "fromAddress": "0xa478c2975ab1ea89e8196811f51a7b7ade33eb11",
                    "gasUsed": 15162,
                    "id": 6,
                    "methodDecoded": true,
                    "operation": "CALL",
                    "output": "0x0000000000000000000000000000000000000000000000000000000000000001",
                    "revert": false,
                    "revertMessage": "",
                    "selector": "0xa9059cbb",
                    "status": true,
                    "value": "0"
                },
                "nodeType": 0
            },
            "7": {
                "event": {
                    "contract": "0xc02aaa39b223fe8d0a0e5c4f27ead9083c756cc2",
                    "decodedLog": {
                        "name": "Transfer",
                        "params": [
                            {
                                "name": "src",
                                "type": "address",
                                "value": "0xa478c2975ab1ea89e8196811f51a7b7ade33eb11"
                            },
                            {
                                "name": "dst",
                                "type": "address",
                                "value": "0xf80758ab42c3b07da84053fd88804bcb6baa4b5c"
                            },
                            {
                                "decimalAvailable": true,
                                "name": "wad",
                                "type": "uint256",
                                "value": "28,520,415,837,608,388,828"
                            }
                        ],
                        "signature": "Transfer(address,address,uint256)"
                    },
                    "id": 7,
                    "logData": "0x0000000000000000000000000000000000000000000000018bccdf18bf12a8dc",
                    "logDecoded": true,
                    "operation": "EVENT",
                    "revert": false,
                    "status": true,
                    "topics": [
                        "0xddf252ad1be2c89b69c2b068fc378daa952ba7f163c4a11628f55a4df523b3ef",
                        "0x000000000000000000000000a478c2975ab1ea89e8196811f51a7b7ade33eb11",
                        "0x000000000000000000000000f80758ab42c3b07da84053fd88804bcb6baa4b5c"
                    ]
                },
                "nodeType": 1
            },
            "8": {
                "invocation": {
                    "address": "0x6b175474e89094c44da98b954eedeac495271d0f",
                    "callData": "0x000000000000000000000000a478c2975ab1ea89e8196811f51a7b7ade33eb11",
                    "decodedMethod": {
                        "callParams": [
                            {
                                "name": "",
                                "type": "address",
                                "value": "0xa478c2975ab1ea89e8196811f51a7b7ade33eb11"
                            }
                        ],
                        "constructorArguments": "",
                        "name": "balanceOf",
                        "returnParams": [
                            {
                                "decimalAvailable": true,
                                "name": "",
                                "type": "uint256",
                                "value": "82,139,900,040,573,110,380,067,495"
                            }
                        ],
                        "signature": "balanceOf(address)"
                    },
                    "errorInfo": "",
                    "fromAddress": "0xa478c2975ab1ea89e8196811f51a7b7ade33eb11",
                    "gasUsed": 1302,
                    "id": 8,
                    "methodDecoded": true,
                    "operation": "STATICCALL",
                    "output": "0x00000000000000000000000000000000000000000043f1cce751732d5612faa7",
                    "revert": false,
                    "revertMessage": "",
                    "selector": "0x70a08231",
                    "status": true,
                    "value": "0"
                },
                "nodeType": 0
            },
            "9": {
                "invocation": {
                    "address": "0xc02aaa39b223fe8d0a0e5c4f27ead9083c756cc2",
                    "callData": "0x000000000000000000000000a478c2975ab1ea89e8196811f51a7b7ade33eb11",
                    "decodedMethod": {
                        "callParams": [
                            {
                                "name": "",
                                "type": "address",
                                "value": "0xa478c2975ab1ea89e8196811f51a7b7ade33eb11"
                            }
                        ],
                        "constructorArguments": "",
                        "name": "balanceOf",
                        "returnParams": [
                            {
                                "decimalAvailable": true,
                                "name": "",
                                "type": "uint256",
                                "value": "234,942,718,340,858,093,633,021"
                            }
                        ],
                        "signature": "balanceOf(address)"
                    },
                    "errorInfo": "",
                    "fromAddress": "0xa478c2975ab1ea89e8196811f51a7b7ade33eb11",
                    "gasUsed": 1234,
                    "id": 9,
                    "methodDecoded": true,
                    "operation": "STATICCALL",
                    "output": "0x0000000000000000000000000000000000000000000031c045312f23ca89fdfd",
                    "revert": false,
                    "revertMessage": "",
                    "selector": "0x70a08231",
                    "status": true,
                    "value": "0"
                },
                "nodeType": 0
            }
        },
        "gasFlame": [
            {
                "children": [
                    {
                        "children": [
                            {
                                "children": [],
                                "depth": 0,
                                "name": "Initial Gas",
                                "value": 23464
                            },
                            {
                                "children": [
                                    {
                                        "children": [],
                                        "depth": 1,
                                        "name": "getReserves",
                                        "value": 1204
                                    },
                                    {
                                        "children": [],
                                        "depth": 1,
                                        "name": "getReserves",
                                        "value": 1204
                                    },
                                    {
                                        "children": [],
                                        "depth": 1,
                                        "name": "transferFrom",
                                        "value": 16418
                                    },
                                    {
                                        "children": [
                                            {
                                                "children": [],
                                                "depth": 2,
                                                "name": "transfer",
                                                "value": 15162
                                            },
                                            {
                                                "children": [],
                                                "depth": 2,
                                                "name": "balanceOf",
                                                "value": 1302
                                            },
                                            {
                                                "children": [],
                                                "depth": 2,
                                                "name": "balanceOf",
                                                "value": 1234
                                            }
                                        ],
                                        "depth": 1,
                                        "name": "swap",
                                        "value": 56721
                                    },
                                    {
                                        "children": [
                                            {
                                                "children": [
                                                    {
                                                        "children": [],
                                                        "depth": 3,
                                                        "name": "setMessageSender",
                                                        "value": 7837
                                                    },
                                                    {
                                                        "children": [
                                                            {
                                                                "children": [
                                                                    {
                                                                        "children": [],
                                                                        "depth": 5,
                                                                        "name": "getMaxTimestamp",
                                                                        "value": 1619
                                                                    },
                                                                    {
                                                                        "children": [],
                                                                        "depth": 5,
                                                                        "name": "getUIntValue",
                                                                        "value": 2168
                                                                    }
                                                                ],
                                                                "depth": 4,
                                                                "name": "maxSecsLeftInWaitingPeriod",
                                                                "value": 9677
                                                            },
                                                            {
                                                                "children": [
                                                                    {
                                                                        "children": [],
                                                                        "depth": 5,
                                                                        "name": "getLengthOfEntries",
                                                                        "value": 1510
                                                                    }
                                                                ],
                                                                "depth": 4,
                                                                "name": "settlementOwing",
                                                                "value": 4850
                                                            },
                                                            {
                                                                "children": [],
                                                                "depth": 4,
                                                                "name": "balanceOf",
                                                                "value": 1197
                                                            },
                                                            {
                                                                "children": [],
                                                                "depth": 4,
                                                                "name": "requireSynthActive",
                                                                "value": 2314
                                                            },
                                                            {
                                                                "children": [],
                                                                "depth": 4,
                                                                "name": "balanceOf",
                                                                "value": 1197
                                                            },
                                                            {
                                                                "children": [],
                                                                "depth": 4,
                                                                "name": "setBalanceOf",
                                                                "value": 6418
                                                            },
                                                            {
                                                                "children": [],
                                                                "depth": 4,
                                                                "name": "balanceOf",
                                                                "value": 1197
                                                            },
                                                            {
                                                                "children": [],
                                                                "depth": 4,
                                                                "name": "setBalanceOf",
                                                                "value": 6418
                                                            },
                                                            {
                                                                "children": [],
                                                                "depth": 4,
                                                                "name": "_emit",
                                                                "value": 3406
                                                            }
                                                        ],
                                                        "depth": 3,
                                                        "name": "transfer",
                                                        "value": 67347
                                                    }
                                                ],
                                                "depth": 2,
                                                "name": "transfer",
                                                "value": 80801
                                            },
                                            {
                                                "children": [
                                                    {
                                                        "children": [
                                                            {
                                                                "children": [],
                                                                "depth": 4,
                                                                "name": "balanceOf",
                                                                "value": 1197
                                                            }
                                                        ],
                                                        "depth": 3,
                                                        "name": "balanceOf",
                                                        "value": 4431
                                                    }
                                                ],
                                                "depth": 2,
                                                "name": "balanceOf",
                                                "value": 7355
                                            },
                                            {
                                                "children": [],
                                                "depth": 2,
                                                "name": "balanceOf",
                                                "value": 1234
                                            }
                                        ],
                                        "depth": 1,
                                        "name": "swap",
                                        "value": 128413
                                    }
                                ],
                                "depth": 0,
                                "name": "Executed Gas",
                                "value": 222108
                            }
                        ],
                        "depth": -1,
                        "name": "Actual Gas Used",
                        "value": 237172
                    },
                    {
                        "children": [],
                        "depth": -1,
                        "name": "Refunded Gas",
                        "value": 8400
                    }
                ],
                "depth": -2,
                "name": "Total Gas",
                "value": 245572
            }
        ],
        "isConfirmed": true,
        "mainTrace": [
            {
                "children": [
                    {
                        "children": [
                            {
                                "children": [],
                                "depth": 1,
                                "id": 1,
                                "order": 1
                            },
                            {
                                "children": [],
                                "depth": 1,
                                "id": 2,
                                "order": 2
                            },
                            {
                                "children": [
                                    {
                                        "children": [],
                                        "depth": 2,
                                        "id": 4,
                                        "order": 4
                                    }
                                ],
                                "depth": 1,
                                "id": 3,
                                "order": 3
                            },
                            {
                                "children": [
                                    {
                                        "children": [
                                            {
                                                "children": [],
                                                "depth": 3,
                                                "id": 7,
                                                "order": 7
                                            }
                                        ],
                                        "depth": 2,
                                        "id": 6,
                                        "order": 6
                                    },
                                    {
                                        "children": [],
                                        "depth": 2,
                                        "id": 8,
                                        "order": 8
                                    },
                                    {
                                        "children": [],
                                        "depth": 2,
                                        "id": 9,
                                        "order": 9
                                    },
                                    {
                                        "children": [],
                                        "depth": 2,
                                        "id": 10,
                                        "order": 10
                                    },
                                    {
                                        "children": [],
                                        "depth": 2,
                                        "id": 11,
                                        "order": 11
                                    }
                                ],
                                "depth": 1,
                                "id": 5,
                                "order": 5
                            },
                            {
                                "children": [
                                    {
                                        "children": [
                                            {
                                                "children": [],
                                                "depth": 3,
                                                "id": 14,
                                                "order": 14
                                            },
                                            {
                                                "children": [
                                                    {
                                                        "children": [
                                                            {
                                                                "children": [],
                                                                "depth": 5,
                                                                "id": 17,
                                                                "order": 17
                                                            },
                                                            {
                                                                "children": [],
                                                                "depth": 5,
                                                                "id": 18,
                                                                "order": 18
                                                            }
                                                        ],
                                                        "depth": 4,
                                                        "id": 16,
                                                        "order": 16
                                                    },
                                                    {
                                                        "children": [
                                                            {
                                                                "children": [],
                                                                "depth": 5,
                                                                "id": 20,
                                                                "order": 20
                                                            }
                                                        ],
                                                        "depth": 4,
                                                        "id": 19,
                                                        "order": 19
                                                    },
                                                    {
                                                        "children": [],
                                                        "depth": 4,
                                                        "id": 21,
                                                        "order": 21
                                                    },
                                                    {
                                                        "children": [],
                                                        "depth": 4,
                                                        "id": 22,
                                                        "order": 22
                                                    },
                                                    {
                                                        "children": [],
                                                        "depth": 4,
                                                        "id": 23,
                                                        "order": 23
                                                    },
                                                    {
                                                        "children": [],
                                                        "depth": 4,
                                                        "id": 24,
                                                        "order": 24
                                                    },
                                                    {
                                                        "children": [],
                                                        "depth": 4,
                                                        "id": 25,
                                                        "order": 25
                                                    },
                                                    {
                                                        "children": [],
                                                        "depth": 4,
                                                        "id": 26,
                                                        "order": 26
                                                    },
                                                    {
                                                        "children": [
                                                            {
                                                                "children": [],
                                                                "depth": 5,
                                                                "id": 28,
                                                                "order": 28
                                                            }
                                                        ],
                                                        "depth": 4,
                                                        "id": 27,
                                                        "order": 27
                                                    }
                                                ],
                                                "depth": 3,
                                                "id": 15,
                                                "order": 15
                                            }
                                        ],
                                        "depth": 2,
                                        "id": 13,
                                        "order": 13
                                    },
                                    {
                                        "children": [
                                            {
                                                "children": [
                                                    {
                                                        "children": [],
                                                        "depth": 4,
                                                        "id": 31,
                                                        "order": 31
                                                    }
                                                ],
                                                "depth": 3,
                                                "id": 30,
                                                "order": 30
                                            }
                                        ],
                                        "depth": 2,
                                        "id": 29,
                                        "order": 29
                                    },
                                    {
                                        "children": [],
                                        "depth": 2,
                                        "id": 32,
                                        "order": 32
                                    },
                                    {
                                        "children": [],
                                        "depth": 2,
                                        "id": 33,
                                        "order": 33
                                    },
                                    {
                                        "children": [],
                                        "depth": 2,
                                        "id": 34,
                                        "order": 34
                                    }
                                ],
                                "depth": 1,
                                "id": 12,
                                "order": 12
                            }
                        ],
                        "depth": 0,
                        "id": 0,
                        "order": 0
                    }
                ],
                "depth": -1,
                "id": -1,
                "order": -1
            }
        ],
        "mainTraceNodeCount": 35,
        "parentIdMap": {
            "0": -1,
            "1": 0,
            "10": 5,
            "11": 5,
            "12": 0,
            "13": 12,
            "14": 13,
            "15": 13,
            "16": 15,
            "17": 16,
            "18": 16,
            "19": 15,
            "2": 0,
            "20": 19,
            "21": 15,
            "22": 15,
            "23": 15,
            "24": 15,
            "25": 15,
            "26": 15,
            "27": 15,
            "28": 27,
            "29": 12,
            "3": 0,
            "30": 29,
            "31": 30,
            "32": 12,
            "33": 12,
            "34": 12,
            "4": 3,
            "5": 0,
            "6": 5,
            "7": 6,
            "8": 5,
            "9": 5
        },
        "tidyTrace": [
            {
                "children": [
                    {
                        "children": [
                            {
                                "children": [
                                    {
                                        "children": [],
                                        "depth": 2,
                                        "id": 4,
                                        "order": 4
                                    }
                                ],
                                "depth": 1,
                                "id": 3,
                                "order": 3
                            },
                            {
                                "children": [
                                    {
                                        "children": [
                                            {
                                                "children": [],
                                                "depth": 3,
                                                "id": 7,
                                                "order": 7
                                            }
                                        ],
                                        "depth": 2,
                                        "id": 6,
                                        "order": 6
                                    },
                                    {
                                        "children": [],
                                        "depth": 2,
                                        "id": 10,
                                        "order": 10
                                    },
                                    {
                                        "children": [],
                                        "depth": 2,
                                        "id": 11,
                                        "order": 11
                                    }
                                ],
                                "depth": 1,
                                "id": 5,
                                "order": 5
                            },
                            {
                                "children": [
                                    {
                                        "children": [
                                            {
                                                "children": [],
                                                "depth": 3,
                                                "id": 14,
                                                "order": 14
                                            },
                                            {
                                                "children": [
                                                    {
                                                        "children": [],
                                                        "depth": 4,
                                                        "id": 16,
                                                        "order": 16
                                                    },
                                                    {
                                                        "children": [],
                                                        "depth": 4,
                                                        "id": 19,
                                                        "order": 19
                                                    },
                                                    {
                                                        "children": [],
                                                        "depth": 4,
                                                        "id": 21,
                                                        "order": 21
                                                    },
                                                    {
                                                        "children": [],
                                                        "depth": 4,
                                                        "id": 22,
                                                        "order": 22
                                                    },
                                                    {
                                                        "children": [],
                                                        "depth": 4,
                                                        "id": 23,
                                                        "order": 23
                                                    },
                                                    {
                                                        "children": [],
                                                        "depth": 4,
                                                        "id": 24,
                                                        "order": 24
                                                    },
                                                    {
                                                        "children": [],
                                                        "depth": 4,
                                                        "id": 25,
                                                        "order": 25
                                                    },
                                                    {
                                                        "children": [],
                                                        "depth": 4,
                                                        "id": 26,
                                                        "order": 26
                                                    },
                                                    {
                                                        "children": [
                                                            {
                                                                "children": [],
                                                                "depth": 5,
                                                                "id": 28,
                                                                "order": 28
                                                            }
                                                        ],
                                                        "depth": 4,
                                                        "id": 27,
                                                        "order": 27
                                                    }
                                                ],
                                                "depth": 3,
                                                "id": 15,
                                                "order": 15
                                            }
                                        ],
                                        "depth": 2,
                                        "id": 13,
                                        "order": 13
                                    },
                                    {
                                        "children": [],
                                        "depth": 2,
                                        "id": 33,
                                        "order": 33
                                    },
                                    {
                                        "children": [],
                                        "depth": 2,
                                        "id": 34,
                                        "order": 34
                                    }
                                ],
                                "depth": 1,
                                "id": 12,
                                "order": 12
                            }
                        ],
                        "depth": 0,
                        "id": 0,
                        "order": 0
                    }
                ],
                "depth": -1,
                "id": -1,
                "order": -1
            }
        ],
        "tidyTraceNodeCount": 24
    },
    "state_change": {
        "stateChanges": [
            {
                "address": "0x05a9cbe762b36632b3594da4f082340e0e5343e8",
                "erc": "",
                "slots": [
                    {
                        "current": "0x000000000000000000000000000000000000000000165c25d01fcdb1072c842e",
                        "key": "0x672e122ae4c3160618e5d4bb8a5bca6aa7642e09b9d68d2b2b890b82bbee5932",
                        "prev": "0x000000000000000000000000000000000000000000165e4268280b8d9313cab8"
                    },
                    {
                        "current": "0x0000000000000000000000000000000000000000000004397518591e249f926e",
                        "key": "0x2a81aae262319239eb289f241a0a40c4673416e631e158dfbc0124fcb7ebb0e0",
                        "prev": "0x00000000000000000000000000000000000000000000021cdd101b4198b84be4"
                    }
                ],
                "storageVariables": [
                    {
                        "name": "balanceOf",
                        "type": "mapping(address => uint256)",
                        "value": {
                            "pairs": [
                                {
                                    "key": "0xbca0cdbdca5134df5d94d4dc7721fa5cf1ed1063",
                                    "value": {
                                        "current": "19949367935567902249582",
                                        "prev": "9977171061653716356068",
                                        "typeTag": 1
                                    }
                                },
                                {
                                    "key": "0xf80758ab42c3b07da84053fd88804bcb6baa4b5c",
                                    "value": {
                                        "current": "27031523274408020836910126",
                                        "prev": "27041495471281935022803640",
                                        "typeTag": 1
                                    }
                                }
                            ],
                            "typeTag": 4
                        }
                    }
                ]
            },
            {
                "address": "0x6b175474e89094c44da98b954eedeac495271d0f",
                "erc": "ERC-20",
                "slots": [
                    {
                        "current": "0x0000000000000000000000000000000000000000000004f77fc161519d733675",
                        "key": "0x5d350f38a1566f73745e33c4ced67eea4be71bcf596dac7f32c51182f8dbb2dc",
                        "prev": "0x00000000000000000000000000000000000000000000071599a22b0c4fb33675"
                    },
                    {
                        "current": "0x00000000000000000000000000000000000000000043f1cce751732d5612faa7",
                        "key": "0xd86cc1e239204d48eb0055f151744c4bb3d2337612287be803ae8247e95a67d2",
                        "prev": "0x00000000000000000000000000000000000000000043efaecd70a972a3d2faa7"
                    }
                ],
                "storageVariables": [
                    {
                        "name": "balanceOf",
                        "type": "mapping(address => uint256)",
                        "value": {
                            "pairs": [
                                {
                                    "key": "0xa478c2975ab1ea89e8196811f51a7b7ade33eb11",
                                    "value": {
                                        "current": "82139900040573110380067495",
                                        "prev": "82129900040573110380067495",
                                        "typeTag": 1
                                    }
                                },
                                {
                                    "key": "0xbca0cdbdca5134df5d94d4dc7721fa5cf1ed1063",
                                    "value": {
                                        "current": "23455017463801323927157",
                                        "prev": "33455017463801323927157",
                                        "typeTag": 1
                                    }
                                }
                            ],
                            "typeTag": 4
                        }
                    }
                ]
            },
            {
                "address": "0xa478c2975ab1ea89e8196811f51a7b7ade33eb11",
                "erc": "ERC-20",
                "slots": [
                    {
                        "current": "0x0000000000000000000000000000000090e07ecc6ef29fa053bf7045f142d280",
                        "key": "0x0000000000000000000000000000000000000000000000000000000000000009",
                        "prev": "0x0000000000000000000000000000000090e07026807999129626992f5db1ef04"
                    },
                    {
                        "current": "0x0000000000000000000000000000a8debb488c9642865b80fd348f5d3a760ca5",
                        "key": "0x000000000000000000000000000000000000000000000000000000000000000a",
                        "prev": "0x0000000000000000000000000000a8de9ff9ea34dfbbd6d466c77d35d90d3c85"
                    },
                    {
                        "current": "0x5f53a7e10000000031c045312f23ca89fdfd00000043f1cce751732d5612faa7",
                        "key": "0x0000000000000000000000000000000000000000000000000000000000000008",
                        "prev": "0x5f53a7cd0000000031c1d0fe0e3c899ca6d900000043efaecd70a972a3d2faa7"
                    }
                ],
                "storageVariables": [
                    {
                        "name": "price0CumulativeLast",
                        "type": "uint256",
                        "value": {
                            "current": "192574477669831565049816525653267370624",
                            "prev": "192574180569646555762309673397848764164",
                            "typeTag": 1
                        }
                    },
                    {
                        "name": "price1CumulativeLast",
                        "type": "uint256",
                        "value": {
                            "current": "14710655664324197526624702871066033425616037",
                            "prev": "14710619366875690306263611084439525677415557",
                            "typeTag": 1
                        }
                    },
                    {
                        "name": "reserve0",
                        "type": "uint112",
                        "value": {
                            "current": "82139900040573110380067495",
                            "prev": "82129900040573110380067495",
                            "typeTag": 1
                        }
                    },
                    {
                        "name": "reserve1",
                        "type": "uint112",
                        "value": {
                            "current": "234942718340858093633021",
                            "prev": "234971238756695702021849",
                            "typeTag": 1
                        }
                    },
                    {
                        "name": "blockTimestampLast",
                        "type": "uint32",
                        "value": {
                            "current": "1599317985",
                            "prev": "1599317965",
                            "typeTag": 1
                        }
                    }
                ]
            },
            {
                "address": "0xae38b81459d74a8c16eaa968c792207603d84480",
                "erc": "ERC-20",
                "slots": [
                    {
                        "current": "0x000000000000000000000000f80758ab42c3b07da84053fd88804bcb6baa4b5c",
                        "key": "0x0000000000000000000000000000000000000000000000000000000000000006",
                        "prev": "0x000000000000000000000000ef6b465a5ea69b502433d960248b6c99023fbda9"
                    }
                ],
                "storageVariables": [
                    {
                        "name": "messageSender",
                        "type": "address",
                        "value": {
                            "current": "0xf80758ab42c3b07da84053fd88804bcb6baa4b5c",
                            "prev": "0xef6b465a5ea69b502433d960248b6c99023fbda9",
                            "typeTag": 1
                        }
                    }
                ]
            },
            {
                "address": "0xc02aaa39b223fe8d0a0e5c4f27ead9083c756cc2",
                "erc": "ERC-20",
                "slots": [
                    {
                        "current": "0x0000000000000000000000000000000000000000000031c045312f23ca89fdfd",
                        "key": "0xa535fbd0ab3e0ad4ee444570368f3d474545b71fcc49228fe96a6406676fc126",
                        "prev": "0x0000000000000000000000000000000000000000000031c1d0fe0e3c899ca6d9"
                    },
                    {
                        "current": "0x000000000000000000000000000000000000000000001053f48ba21efcbd6b02",
                        "key": "0x672e122ae4c3160618e5d4bb8a5bca6aa7642e09b9d68d2b2b890b82bbee5932",
                        "prev": "0x00000000000000000000000000000000000000000000105268bec3063daac226"
                    }
                ],
                "storageVariables": [
                    {
                        "name": "balanceOf",
                        "type": "mapping(address => uint256)",
                        "value": {
                            "pairs": [
                                {
                                    "key": "0xa478c2975ab1ea89e8196811f51a7b7ade33eb11",
                                    "value": {
                                        "current": "234942718340858093633021",
                                        "prev": "234971238756695702021849",
                                        "typeTag": 1
                                    }
                                },
                                {
                                    "key": "0xf80758ab42c3b07da84053fd88804bcb6baa4b5c",
                                    "value": {
                                        "current": "77106564840253206391554",
                                        "prev": "77078044424415598002726",
                                        "typeTag": 1
                                    }
                                }
                            ],
                            "typeTag": 4
                        }
                    }
                ]
            },
            {
                "address": "0xf80758ab42c3b07da84053fd88804bcb6baa4b5c",
                "erc": "ERC-20",
                "slots": [
                    {
                        "current": "0x5f53a7e1000000001053f48ba21efcbd6b02000000165c25d01fcdb1072c842e",
                        "key": "0x0000000000000000000000000000000000000000000000000000000000000008",
                        "prev": "0x5f53a79f00000000105268bec3063daac226000000165e4268280b8d9313cab8"
                    },
                    {
                        "current": "0x0000000000000000000000000000000087d8b26810aadce75014270badbaa81e",
                        "key": "0x0000000000000000000000000000000000000000000000000000000000000009",
                        "prev": "0x0000000000000000000000000000000087d8823f2dc541c7b6aeb111c1d62d42"
                    },
                    {
                        "current": "0x0000000000000000000000000000a4dce58d7881c3f871cdb93287f7415359e7",
                        "key": "0x000000000000000000000000000000000000000000000000000000000000000a",
                        "prev": "0x0000000000000000000000000000a4dc8b1a83db8c734081d14f619f9ad115d9"
                    }
                ],
                "storageVariables": [
                    {
                        "name": "price1CumulativeLast",
                        "type": "uint256",
                        "value": {
                            "current": "14361582141300348946484333843784328440666599",
                            "prev": "14361461913896809430121577029756862766061017",
                            "typeTag": 1
                        }
                    },
                    {
                        "name": "reserve0",
                        "type": "uint112",
                        "value": {
                            "current": "27031523274408020836910126",
                            "prev": "27041495471281935022803640",
                            "typeTag": 1
                        }
                    },
                    {
                        "name": "reserve1",
                        "type": "uint112",
                        "value": {
                            "current": "77106564840253206391554",
                            "prev": "77078044424415598002726",
                            "typeTag": 1
                        }
                    },
                    {
                        "name": "blockTimestampLast",
                        "type": "uint32",
                        "value": {
                            "current": "1599317985",
                            "prev": "1599317919",
                            "typeTag": 1
                        }
                    },
                    {
                        "name": "price0CumulativeLast",
                        "type": "uint256",
                        "value": {
                            "current": "180570934066203837824673513046089050142",
                            "prev": "180569957271195173191896642566741175618",
                            "typeTag": 1
                        }
                    }
                ]
            }
        ]
    }
}