{
    "balance_change": {
        "balanceChanges": [
            {
                "account": "0xcf7516ed568a094b5ccdc965c33cfc560ff9e3d7",
                "assets": [
                    {
                        "address": "0xeeeeeeeeeeeeeeeeeeeeeeeeeeeeeeeeeeeeeeee",
                        "amount": "0.1",
                        "iconUrl": "https://assets.blocksec.com/image/1663669189317-3.png",
                        "isERC1155": false,
                        "isERC721": false,
                        "sign": false,
                        "value": ""
                    }
                ]
            },
            {
                "account": "0xd1ceeeeee83f8bcf3bedad437202b6154e9f5405",
                "assets": [
                    {
                        "address": "0xeeeeeeeeeeeeeeeeeeeeeeeeeeeeeeeeeeeeeeee",
                        "amount": "0.1",
                        "iconUrl": "https://assets.blocksec.com/image/1663669189317-3.png",
                        "isERC1155": false,
                        "isERC721": false,
                        "sign": true,
                        "value": ""
                    }
                ]
            }
        ]
    },
    "profile": {
        "basic_info": {
            "baseFee": "",
            "blockNumber": 7509617,
            "callData": "0x5e83b463000000000000000000000000000000000000000000000000000000000000002f0000000000000000000000000000000000000000000000000000000000000064000000000000000000000000000000000000000000000000000000000072973739b561f211bf87d6a373b9734b82d107581a40fbe27f11eff5c6799d01d1f0e8687bd6d1b5285b4bffc10fcd4aefc4f53bd8a4c3a2f5a20f09cdec4c7384fdbcf1a0ad0bab78a36b0434f0f6566b0f3c5d355ba4c9a68ed7da30cbed467bc71d",
            "debugEnable": true,
            "errorInfo": "",
            "eventCount": 1,
            "feeRecipient": "0x2a65aca4d5fc5b5c859090a6c34d164135398226",
            "formatValue": "0.1",
            "gasLimit": 150000,
            "gasPrice": "9",
            "gasUsed": 82155,
            "intTxnCount": 1,
            "internalRevert": false,
            "internalRevertMessage": "",
            "isContractCreation": false,
            "isFlashloan": false,
            "maxFee": "",
            "nonce": 770,
            "overwritedBlockNumber": -1,
            "priorityFee": "",
            "receiver": "0xd1ceeeeee83f8bcf3bedad437202b6154e9f5405",
            "revertMessage": "",
            "sender": "0xcf7516ed568a094b5ccdc965c33cfc560ff9e3d7",
            "simulationEnable": true,
            "sourceTxnHash": "0x782ad743719db5639affd0082a5466cf70f59be9fdadc01f0b9c5dd217ad0561",
            "status": true,
            "timestamp": "2019-04-05T18:16:17Z",
            "transactionFee": "0.000739395",
            "txnHash": "0x782ad743719db5639affd0082a5466cf70f59be9fdadc01f0b9c5dd217ad0561",
            "txnIndex": 5,
            "type": 0,
            "value": "100000000000000000"
        },
        "fund_flow": [
            {
                "amount": "0.1",
                "from": "0xcf7516ed568a094b5ccdc965c33cfc560ff9e3d7",
                "id": 1,
                "isERC1155": false,
                "isERC721": false,
                "isReverted": false,
                "order": 1,
                "to": "0xd1ceeeeee83f8bcf3bedad437202b6154e9f5405",
                "token": "0xeeeeeeeeeeeeeeeeeeeeeeeeeeeeeeeeeeeeeeee"
            }
        ],
        "token_infos": [
            {
                "address": "0xc02aaa39b223fe8d0a0e5c4f27ead9083c756cc2",
                "decimals": 18
            },
            {
                "address": "0xeeeeeeeeeeeeeeeeeeeeeeeeeeeeeeeeeeeeeeee",
                "decimals": 18
            }
        ]
    },
    "address_label": {
        "labels": [
            {
                "address": "0xd1ceeeeee83f8bcf3bedad437202b6154e9f5405",
                "label": "Dice2Win"
            },
            {
                "address": "0x0000000000000000000000000000000000000001",
                "label": "Precompiled"
            },
            {
                "address": "0x0000000000000000000000000000000000000002",
                "label": "Precompiled"
            },
            {
                "address": "0x0000000000000000000000000000000000000003",
                "label": "Precompiled"
            },
            {
                "address": "0x0000000000000000000000000000000000000004",
                "label": "Precompiled"
            },
            {
                "address": "0xeeeeeeeeeeeeeeeeeeeeeeeeeeeeeeeeeeeeeeee",
                "label": "Ether"
            }
        ]
    },
    "trace": {
        "accountLabels": null,
        "dataMap": {
            "-1": {
                "invocation": {
                    "address": "0xcf7516ed568a094b5ccdc965c33cfc560ff9e3d7",
                    "callData": "",
                    "decodedMethod": null,
                    "errorInfo": "",
                    "fromAddress": "",
                    "gasUsed": 0,
                    "id": -1,
                    "methodDecoded": false,
                    "operation": "",
                    "output": "",
                    "revert": false,
                    "revertMessage": "",
                    "selector": "",
                    "status": false,
                    "value": ""
                },
                "nodeType": 0
            },
            "0": {
                "invocation": {
                    "address": "0xd1ceeeeee83f8bcf3bedad437202b6154e9f5405",
                    "callData": "0x000000000000000000000000000000000000000000000000000000000000002f0000000000000000000000000000000000000000000000000000000000000064000000000000000000000000000000000000000000000000000000000072973739b561f211bf87d6a373b9734b82d107581a40fbe27f11eff5c6799d01d1f0e8687bd6d1b5285b4bffc10fcd4aefc4f53bd8a4c3a2f5a20f09cdec4c7384fdbcf1a0ad0bab78a36b0434f0f6566b0f3c5d355ba4c9a68ed7da30cbed467bc71d",
                    "decodedMethod": {
                        "callParams": [
                            {
                                "name": "betMask",
                                "type": "uint256",
                                "value": "47"
                            },
                            {
                                "name": "modulo",
                                "type": "uint256",
                                "value": "100"
                            },
                            {
                                "name": "commitLastBlock",
                                "type": "uint256",
                                "value": "7,509,815"
                            },
                            {
                                "name": "commit",
                                "type": "uint256",
                                "value": "26,102,307,683,542,903,920,997,404,125,525,350,656,408,346,864,773,926,837,493,204,063,456,278,474,984"
                            },
                            {
                                "name": "r",
                                "type": "bytes32",
                                "value": "0x687bd6d1b5285b4bffc10fcd4aefc4f53bd8a4c3a2f5a20f09cdec4c7384fdbc"
                            },
                            {
                                "name": "s",
                                "type": "bytes32",
                                "value": "0xf1a0ad0bab78a36b0434f0f6566b0f3c5d355ba4c9a68ed7da30cbed467bc71d"
                            }
                        ],
                        "constructorArguments": "",
                        "name": "placeBet",
                        "returnParams": [],
                        "signature": "placeBet(uint256,uint256,uint256,uint256,bytes32,bytes32)"
                    },
                    "errorInfo": "",
                    "fromAddress": "0xcf7516ed568a094b5ccdc965c33cfc560ff9e3d7",
                    "gasUsed": 82155,
                    "id": 0,
                    "methodDecoded": true,
                    "operation": "CALL",
                    "output": "",
                    "revert": false,
                    "revertMessage": "",
                    "selector": "0x5e83b463",
                    "status": true,
                    "value": "0.1"
                },
                "nodeType": 0
            },
            "1": {
                "invocation": {
                    "address": "0x0000000000000000000000000000000000000001",
                    "callData": "0x51ea09baa4198a918e40704c70a2d9090beeb8b4a404367eb2b4102b000000000000000000000000000000000000000000000000000000000000001b687bd6d1b5285b4bffc10fcd4aefc4f53bd8a4c3a2f5a20f09cdec4c7384fdbcf1a0ad0bab78a36b0434f0f6566b0f3c5d355ba4c9a68ed7da30cbed467bc71d",
                    "decodedMethod": {
                        "callParams": [
                            {
                                "name": "hash",
                                "type": "bytes32",
                                "value": "0x5b74700251ea09baa4198a918e40704c70a2d9090beeb8b4a404367eb2b4102b"
                            },
                            {
                                "name": "v",
                                "type": "uint256",
                                "value": "27"
                            },
                            {
                                "name": "r",
                                "type": "bytes32",
                                "value": "0x687bd6d1b5285b4bffc10fcd4aefc4f53bd8a4c3a2f5a20f09cdec4c7384fdbc"
                            },
                            {
                                "name": "s",
                                "type": "bytes32",
                                "value": "0xf1a0ad0bab78a36b0434f0f6566b0f3c5d355ba4c9a68ed7da30cbed467bc71d"
                            }
                        ],
                        "constructorArguments": "",
                        "name": "ecrecover",
                        "returnParams": [
                            {
                                "name": "",
                                "type": "address",
                                "value": "0xb00b5ca7ec0502f2f269e99b91ebbccbce9cccec"
                            }
                        ],
                        "signature": "ecrecover(bytes32,uint256,bytes32,bytes32)"
                    },
                    "errorInfo": "",
                    "fromAddress": "0xd1ceeeeee83f8bcf3bedad437202b6154e9f5405",
                    "gasUsed": 3000,
                    "id": 1,
                    "methodDecoded": true,
                    "operation": "CALL",
                    "output": "0x000000000000000000000000b00b5ca7ec0502f2f269e99b91ebbccbce9cccec",
                    "revert": false,
                    "revertMessage": "",
                    "selector": "0x5b747002",
                    "status": true,
                    "value": "0"
                },
                "nodeType": 0
            },
            "2": {
                "event": {
                    "contract": "0xd1ceeeeee83f8bcf3bedad437202b6154e9f5405",
                    "decodedLog": {
                        "name": "Commit",
                        "params": [
                            {
                                "name": "commit",
                                "type": "uint256",
                                "value": "26,102,307,683,542,903,920,997,404,125,525,350,656,408,346,864,773,926,837,493,204,063,456,278,474,984"
                            }
                        ],
                        "signature": "Commit(uint256)"
                    },
                    "id": 2,
                    "logData": "0x39b561f211bf87d6a373b9734b82d107581a40fbe27f11eff5c6799d01d1f0e8",
                    "logDecoded": true,
                    "operation": "EVENT",
                    "revert": false,
                    "status": true,
                    "topics": [
                        "0x5bdd2fc99022530157777690475b670d3872f32262eb1d47d9ba8000dad58f87"
                    ]
                },
                "nodeType": 1
            }
        },
        "gasFlame": [
            {
                "children": [
                    {
                        "children": [
                            {
                                "children": [],
                                "depth": 0,
                                "name": "Initial Gas",
                                "value": 28504
                            },
                            {
                                "children": [
                                    {
                                        "children": [],
                                        "depth": 1,
                                        "name": "ecrecover",
                                        "value": 3000
                                    }
                                ],
                                "depth": 0,
                                "name": "Executed Gas",
                                "value": 53651
                            }
                        ],
                        "depth": -1,
                        "name": "Actual Gas Used",
                        "value": 82155
                    },
                    {
                        "children": [],
                        "depth": -1,
                        "name": "Refunded Gas",
                        "value": 0
                    }
                ],
                "depth": -2,
                "name": "Total Gas",
                "value": 82155
            }
        ],
        "isConfirmed": true,
        "mainTrace": [
            {
                "children": [
                    {
                        "children": [
                            {
                                "children": [],
                                "depth": 1,
                                "id": 1,
                                "order": 1
                            },
                            {
                                "children": [],
                                "depth": 1,
                                "id": 2,
                                "order": 2
                            }
                        ],
                        "depth": 0,
                        "id": 0,
                        "order": 0
                    }
                ],
                "depth": -1,
                "id": -1,
                "order": -1
            }
        ],
        "mainTraceNodeCount": 3,
        "parentIdMap": {
            "0": -1,
            "1": 0,
            "2": 0
        },
        "tidyTrace": [
            {
                "children": [
                    {
                        "children": [
                            {
                                "children": [],
                                "depth": 1,
                                "id": 1,
                                "order": 1
                            },
                            {
                                "children": [],
                                "depth": 1,
                                "id": 2,
                                "order": 2
                            }
                        ],
                        "depth": 0,
                        "id": 0,
                        "order": 0
                    }
                ],
                "depth": -1,
                "id": -1,
                "order": -1
            }
        ],
        "tidyTraceNodeCount": 3
    },
    "state_change": {
        "stateChanges": [
            {
                "address": "0xd1ceeeeee83f8bcf3bedad437202b6154e9f5405",
                "erc": "",
                "slots": [
                    {
                        "current": "0xcf7516ed568a094b5ccdc965c33cfc560ff9e3d7000000000000007296712f64",
                        "key": "0xa4d478be3858ae942bebd42dbc98327e9e29c864de4b60eef4631d23e98841f6",
                        "prev": "0x0000000000000000000000000000000000000000000000000000000000000000"
                    },
                    {
                        "current": "0x000000000000000007d3df178ab708580000000000000000024dc01ed8b70000",
                        "key": "0x0000000000000000000000000000000000000000000000000000000000000004",
                        "prev": "0x000000000000000004ef17c56b1490840000000000000000024a32a033f08000"
                    },
                    {
                        "current": "0x000000000000000000000000000000000000000000000000016345785d8a0000",
                        "key": "0xa4d478be3858ae942bebd42dbc98327e9e29c864de4b60eef4631d23e98841f5",
                        "prev": "0x0000000000000000000000000000000000000000000000000000000000000000"
                    }
                ],
                "storageVariables": [
                    {
                        "name": "bets",
                        "type": "mapping(uint256 => struct Dice2Win.Bet)",
                        "value": {
                            "pairs": [
                                {
                                    "key": "26102307683542903920997404125525350656408346864773926837493204063456278474984",
                                    "value": {
                                        "fields": [
                                            {
                                                "name": "amount",
                                                "type": "uint256",
                                                "value": {
                                                    "current": "100000000000000000",
                                                    "prev": "0",
                                                    "typeTag": 1
                                                }
                                            },
                                            {
                                                "name": "modulo",
                                                "type": "uint8",
                                                "value": {
                                                    "current": "100",
                                                    "prev": "0",
                                                    "typeTag": 1
                                                }
                                            },
                                            {
                                                "name": "rollUnder",
                                                "type": "uint8",
                                                "value": {
                                                    "current": "47",
                                                    "prev": "0",
                                                    "typeTag": 1
                                                }
                                            },
                                            {
                                                "name": "placeBlockNumber",
                                                "type": "uint40",
                                                "value": {
                                                    "current": "7509617",
                                                    "prev": "0",
                                                    "typeTag": 1
                                                }
                                            },
                                            {
                                                "name": "mask",
                                                "type": "uint40",
                                                "value": {
                                                    "current": "0",
                                                    "prev": "0",
                                                    "typeTag": 1
                                                }
                                            },
                                            {
                                                "name": "gambler",
                                                "type": "address",
                                                "value": {
                                                    "current": "0xcf7516ed568a094b5ccdc965c33cfc560ff9e3d7",
                                                    "prev": "0x0000000000000000000000000000000000000000",
                                                    "typeTag": 1
                                                }
                                            }
                                        ],
                                        "typeTag": 3
                                    }
                                }
                            ],
                            "typeTag": 4
                        }
                    },
                    {
                        "name": "jackpotSize",
                        "type": "uint128",
                        "value": {
                            "current": "166000000000000000",
                            "prev": "165000000000000000",
                            "typeTag": 1
                        }
                    },
                    {
                        "name": "lockedInBets",
                        "type": "uint128",
                        "value": {
                            "current": "564039670555936856",
                            "prev": "355529032258064516",
                            "typeTag": 1
                        }
                    }
                ]
            }
        ]
    }
}