{
    "balance_change": {
        "balanceChanges": [
            {
                "account": "0x625de3149ccfcdc0aaeea536ce4e8d8526957de1",
                "assets": [
                    {
                        "address": "0xa0b86991c6218b36c1d19d4a2e9eb0ce3606eb48",
                        "amount": "7,212.23",
                        "iconUrl": "https://assets.blocksec.com/icon/0347a86cc07dbd03fdc5db01a4e5ac7e1217f90e0b6e4bb0f75cbcca09160989.png",
                        "isERC1155": false,
                        "isERC721": false,
                        "sign": false,
                        "value": ""
                    }
                ]
            },
            {
                "account": "0x46a7c4bb3567cd2b6541868a3334c86ed6778680",
                "assets": [
                    {
                        "address": "0xa0b86991c6218b36c1d19d4a2e9eb0ce3606eb48",
                        "amount": "7,212.23",
                        "iconUrl": "https://assets.blocksec.com/icon/0347a86cc07dbd03fdc5db01a4e5ac7e1217f90e0b6e4bb0f75cbcca09160989.png",
                        "isERC1155": false,
                        "isERC721": false,
                        "sign": true,
                        "value": ""
                    }
                ]
            }
        ]
    },
    "profile": {
        "basic_info": {
            "baseFee": "",
            "blockNumber": 10036240,
            "callData": "0xa9059cbb00000000000000000000000046a7c4bb3567cd2b6541868a3334c86ed677868000000000000000000000000000000000000000000000000000000001ade1e570",
            "debugEnable": true,
            "errorInfo": "",
            "eventCount": 1,
            "feeRecipient": "0x5a0b54d5dc17e0aadc383d2db43b0a0d3e029c4c",
            "formatValue": "0",
            "gasLimit": 200000,
            "gasPrice": "47",
            "gasUsed": 58025,
            "intTxnCount": 1,
            "internalRevert": false,
            "internalRevertMessage": "",
            "isContractCreation": false,
            "isFlashloan": false,
            "maxFee": "",
            "nonce": 657,
            "overwritedBlockNumber": -1,
            "priorityFee": "",
            "receiver": "0xa0b86991c6218b36c1d19d4a2e9eb0ce3606eb48",
            "revertMessage": "",
            "sender": "0x625de3149ccfcdc0aaeea536ce4e8d8526957de1",
            "simulationEnable": true,
            "sourceTxnHash": "0x78c81a5daf810438dd5796974651e2a56855a86c8b89489f4f315b5ecd1a8166",
            "status": true,
            "timestamp": "2020-05-10T04:14:58Z",
            "transactionFee": "0.002727175",
            "txnHash": "0x78c81a5daf810438dd5796974651e2a56855a86c8b89489f4f315b5ecd1a8166",
            "txnIndex": 124,
            "type": 0,
            "value": "0"
        },
        "fund_flow": [
            {
                "amount": "7,212.23",
                "from": "0x625de3149ccfcdc0aaeea536ce4e8d8526957de1",
                "id": 1,
                "isERC1155": false,
                "isERC721": false,
                "isReverted": false,
                "order": 1,
                "to": "0x46a7c4bb3567cd2b6541868a3334c86ed6778680",
                "token": "0xa0b86991c6218b36c1d19d4a2e9eb0ce3606eb48"
            }
        ],
        "token_infos": [
            {
                "address": "0xeeeeeeeeeeeeeeeeeeeeeeeeeeeeeeeeeeeeeeee",
                "decimals": 18
            },
            {
                "address": "0xa0b86991c6218b36c1d19d4a2e9eb0ce3606eb48",
                "decimals": 6
            },
            {
                "address": "0xc02aaa39b223fe8d0a0e5c4f27ead9083c756cc2",
                "decimals": 18
            }
        ]
    },
    "address_label": {
        "labels": [
            {
                "address": "0x0000000000000000000000000000000000000003",
                "label": "Precompiled"
            },
            {
                "address": "0x0000000000000000000000000000000000000004",
                "label": "Precompiled"
            },
            {
                "address": "0xeeeeeeeeeeeeeeeeeeeeeeeeeeeeeeeeeeeeeeee",
                "label": "Ether"
            },
            {
                "address": "0x0882477e7895bdc5cea7cb1552ed914ab157fe56",
                "label": "FiatTokenV1"
            },
            {
                "address": "0xa0b86991c6218b36c1d19d4a2e9eb0ce3606eb48",
                "label": "Circle: USDC Token"
            },
            {
                "address": "0x0000000000000000000000000000000000000001",
                "label": "Precompiled"
            },
            {
                "address": "0x0000000000000000000000000000000000000002",
                "label": "Precompiled"
            }
        ]
    },
    "trace": {
        "accountLabels": null,
        "dataMap": {
            "-1": {
                "invocation": {
                    "address": "0x625de3149ccfcdc0aaeea536ce4e8d8526957de1",
                    "callData": "",
                    "decodedMethod": null,
                    "errorInfo": "",
                    "fromAddress": "",
                    "gasUsed": 0,
                    "id": -1,
                    "methodDecoded": false,
                    "operation": "",
                    "output": "",
                    "revert": false,
                    "revertMessage": "",
                    "selector": "",
                    "status": false,
                    "value": ""
                },
                "nodeType": 0
            },
            "0": {
                "invocation": {
                    "address": "0xa0b86991c6218b36c1d19d4a2e9eb0ce3606eb48",
                    "callData": "0x00000000000000000000000046a7c4bb3567cd2b6541868a3334c86ed677868000000000000000000000000000000000000000000000000000000001ade1e570",
                    "decodedMethod": {
                        "callParams": [
                            {
                                "name": "_to",
                                "type": "address",
                                "value": "0x46a7c4bb3567cd2b6541868a3334c86ed6778680"
                            },
                            {
                                "decimalAvailable": true,
                                "name": "_value",
                                "type": "uint256",
                                "value": "7,212,230,000"
                            }
                        ],
                        "constructorArguments": "",
                        "name": "transfer",
                        "returnParams": [
                            {
                                "name": "",
                                "type": "bool",
                                "value": true
                            }
                        ],
                        "signature": "transfer(address,uint256)"
                    },
                    "errorInfo": "",
                    "fromAddress": "0x625de3149ccfcdc0aaeea536ce4e8d8526957de1",
                    "gasUsed": 58025,
                    "id": 0,
                    "methodDecoded": true,
                    "operation": "CALL",
                    "output": "0x0000000000000000000000000000000000000000000000000000000000000001",
                    "revert": false,
                    "revertMessage": "",
                    "selector": "0xa9059cbb",
                    "status": true,
                    "value": "0"
                },
                "nodeType": 0
            },
            "1": {
                "invocation": {
                    "address": "0x0882477e7895bdc5cea7cb1552ed914ab157fe56",
                    "callData": "0x00000000000000000000000046a7c4bb3567cd2b6541868a3334c86ed677868000000000000000000000000000000000000000000000000000000001ade1e570",
                    "decodedMethod": {
                        "callParams": [
                            {
                                "name": "_to",
                                "type": "address",
                                "value": "0x46a7c4bb3567cd2b6541868a3334c86ed6778680"
                            },
                            {
                                "decimalAvailable": true,
                                "name": "_value",
                                "type": "uint256",
                                "value": "7,212,230,000"
                            }
                        ],
                        "constructorArguments": "",
                        "name": "transfer",
                        "returnParams": [
                            {
                                "name": "",
                                "type": "bool",
                                "value": true
                            }
                        ],
                        "signature": "transfer(address,uint256)"
                    },
                    "errorInfo": "",
                    "fromAddress": "0xa0b86991c6218b36c1d19d4a2e9eb0ce3606eb48",
                    "gasUsed": 33616,
                    "id": 1,
                    "methodDecoded": true,
                    "operation": "DELEGATECALL",
                    "output": "0x0000000000000000000000000000000000000000000000000000000000000001",
                    "revert": false,
                    "revertMessage": "",
                    "selector": "0xa9059cbb",
                    "status": true,
                    "value": "0"
                },
                "nodeType": 0
            },
            "2": {
                "event": {
                    "contract": "0xa0b86991c6218b36c1d19d4a2e9eb0ce3606eb48",
                    "decodedLog": {
                        "name": "Transfer",
                        "params": [
                            {
                                "name": "from",
                                "type": "address",
                                "value": "0x625de3149ccfcdc0aaeea536ce4e8d8526957de1"
                            },
                            {
                                "name": "to",
                                "type": "address",
                                "value": "0x46a7c4bb3567cd2b6541868a3334c86ed6778680"
                            },
                            {
                                "decimalAvailable": true,
                                "name": "value",
                                "type": "uint256",
                                "value": "7,212,230,000"
                            }
                        ],
                        "signature": "Transfer(address,address,uint256)"
                    },
                    "id": 2,
                    "logData": "0x00000000000000000000000000000000000000000000000000000001ade1e570",
                    "logDecoded": true,
                    "operation": "EVENT",
                    "revert": false,
                    "status": true,
                    "topics": [
                        "0xddf252ad1be2c89b69c2b068fc378daa952ba7f163c4a11628f55a4df523b3ef",
                        "0x000000000000000000000000625de3149ccfcdc0aaeea536ce4e8d8526957de1",
                        "0x00000000000000000000000046a7c4bb3567cd2b6541868a3334c86ed6778680"
                    ]
                },
                "nodeType": 1
            }
        },
        "gasFlame": [
            {
                "children": [
                    {
                        "children": [
                            {
                                "children": [],
                                "depth": 0,
                                "name": "Initial Gas",
                                "value": 21620
                            },
                            {
                                "children": [
                                    {
                                        "children": [],
                                        "depth": 1,
                                        "name": "transfer",
                                        "value": 33616
                                    }
                                ],
                                "depth": 0,
                                "name": "Executed Gas",
                                "value": 36405
                            }
                        ],
                        "depth": -1,
                        "name": "Actual Gas Used",
                        "value": 58025
                    },
                    {
                        "children": [],
                        "depth": -1,
                        "name": "Refunded Gas",
                        "value": 0
                    }
                ],
                "depth": -2,
                "name": "Total Gas",
                "value": 58025
            }
        ],
        "isConfirmed": true,
        "mainTrace": [
            {
                "children": [
                    {
                        "children": [
                            {
                                "children": [
                                    {
                                        "children": [],
                                        "depth": 2,
                                        "id": 2,
                                        "order": 2
                                    }
                                ],
                                "depth": 1,
                                "id": 1,
                                "order": 1
                            }
                        ],
                        "depth": 0,
                        "id": 0,
                        "order": 0
                    }
                ],
                "depth": -1,
                "id": -1,
                "order": -1
            }
        ],
        "mainTraceNodeCount": 3,
        "parentIdMap": {
            "0": -1,
            "1": 0,
            "2": 1
        },
        "tidyTrace": [
            {
                "children": [
                    {
                        "children": [
                            {
                                "children": [
                                    {
                                        "children": [],
                                        "depth": 2,
                                        "id": 2,
                                        "order": 2
                                    }
                                ],
                                "depth": 1,
                                "id": 1,
                                "order": 1
                            }
                        ],
                        "depth": 0,
                        "id": 0,
                        "order": 0
                    }
                ],
                "depth": -1,
                "id": -1,
                "order": -1
            }
        ],
        "tidyTraceNodeCount": 3
    },
    "state_change": {
        "stateChanges": [
            {
                "address": "0xa0b86991c6218b36c1d19d4a2e9eb0ce3606eb48",
                "erc": "ERC-20",
                "slots": [
                    {
                        "current": "0x000000000000000000000000000000000000000000000000000001c14e2dd363",
                        "key": "0x03ed05ebcb5d4ab8d7724301696e925d65b60b1a04212fc7042127642a33b2dd",
                        "prev": "0x000000000000000000000000000000000000000000000000000001c2fc0fb8d3"
                    },
                    {
                        "current": "0x00000000000000000000000000000000000000000000000000000001ade1e570",
                        "key": "0x18a7634370801d129b7b63b5f26bbeb06ea4ec4a6a765bd368a1bee9edbe096c",
                        "prev": "0x0000000000000000000000000000000000000000000000000000000000000000"
                    }
                ],
                "storageVariables": [
                    {
                        "name": "balances",
                        "type": "mapping(address => uint256)",
                        "value": {
                            "pairs": [
                                {
                                    "key": "0x46a7c4bb3567cd2b6541868a3334c86ed6778680",
                                    "value": {
                                        "current": "7212230000",
                                        "prev": "0",
                                        "typeTag": 1
                                    }
                                },
                                {
                                    "key": "0x625de3149ccfcdc0aaeea536ce4e8d8526957de1",
                                    "value": {
                                        "current": "1929751941987",
                                        "prev": "1936964171987",
                                        "typeTag": 1
                                    }
                                }
                            ],
                            "typeTag": 4
                        }
                    }
                ]
            }
        ]
    }
}