{
    "balance_change": {
        "balanceChanges": [
            {
                "account": "0x2c0d289333303f297912746009566bfecd175d64",
                "assets": [
                    {
                        "address": "0x111111f7e9b1fe072ade438f77e1ce861c7ee4e3",
                        "amount": "20,000,000,000,000,000,000",
                        "iconUrl": "",
                        "isERC1155": false,
                        "isERC721": false,
                        "sign": false,
                        "value": ""
                    }
                ]
            },
            {
                "account": "0xc764037abf711e6d02a03b9d73c97a47f85a2502",
                "assets": [
                    {
                        "address": "0x111111f7e9b1fe072ade438f77e1ce861c7ee4e3",
                        "amount": "20,000,000,000,000,000,000",
                        "iconUrl": "",
                        "isERC1155": false,
                        "isERC721": false,
                        "sign": true,
                        "value": ""
                    }
                ]
            }
        ]
    },
    "profile": {
        "basic_info": {
            "baseFee": "",
            "blockNumber": 4558550,
            "callData": "0xa9059cbb000000000000000000000000c764037abf711e6d02a03b9d73c97a47f85a2502000000000000000000000000000000000000000000000001158e460913d00000",
            "debugEnable": true,
            "errorInfo": "",
            "eventCount": 1,
            "feeRecipient": "0x829bd824b016326a401d083b33d092293333a830",
            "formatValue": "0",
            "gasLimit": 90000,
            "gasPrice": "2",
            "gasUsed": 37118,
            "intTxnCount": 0,
            "internalRevert": false,
            "internalRevertMessage": "",
            "isContractCreation": false,
            "isFlashloan": false,
            "maxFee": "",
            "nonce": 43,
            "overwritedBlockNumber": -1,
            "priorityFee": "",
            "receiver": "0x111111f7e9b1fe072ade438f77e1ce861c7ee4e3",
            "revertMessage": "",
            "sender": "0x2c0d289333303f297912746009566bfecd175d64",
            "simulationEnable": true,
            "sourceTxnHash": "0x78a55f8d11efc1b041fa3a272fec12a174ff83f3c4b572b44cc5f080936a5268",
            "status": true,
            "timestamp": "2017-11-15T17:37:43Z",
            "transactionFee": "0.000074236",
            "txnHash": "0x78a55f8d11efc1b041fa3a272fec12a174ff83f3c4b572b44cc5f080936a5268",
            "txnIndex": 107,
            "type": 0,
            "value": "0"
        },
        "fund_flow": [
            {
                "amount": "20,000,000,000,000,000,000",
                "from": "0x2c0d289333303f297912746009566bfecd175d64",
                "id": 1,
                "isERC1155": false,
                "isERC721": false,
                "isReverted": false,
                "order": 1,
                "to": "0xc764037abf711e6d02a03b9d73c97a47f85a2502",
                "token": "0x111111f7e9b1fe072ade438f77e1ce861c7ee4e3"
            }
        ],
        "token_infos": [
            {
                "address": "0xeeeeeeeeeeeeeeeeeeeeeeeeeeeeeeeeeeeeeeee",
                "decimals": 18
            },
            {
                "address": "0xc02aaa39b223fe8d0a0e5c4f27ead9083c756cc2",
                "decimals": 18
            }
        ]
    },
    "address_label": {
        "labels": [
            {
                "address": "0xeeeeeeeeeeeeeeeeeeeeeeeeeeeeeeeeeeeeeeee",
                "label": "Ether"
            },
            {
                "address": "0x111111f7e9b1fe072ade438f77e1ce861c7ee4e3",
                "label": "BitClave: Old Token"
            },
            {
                "address": "0x0000000000000000000000000000000000000001",
                "label": "Precompiled"
            },
            {
                "address": "0x0000000000000000000000000000000000000002",
                "label": "Precompiled"
            },
            {
                "address": "0x0000000000000000000000000000000000000003",
                "label": "Precompiled"
            },
            {
                "address": "0x0000000000000000000000000000000000000004",
                "label": "Precompiled"
            }
        ]
    },
    "trace": {
        "accountLabels": null,
        "dataMap": {
            "-1": {
                "invocation": {
                    "address": "0x2c0d289333303f297912746009566bfecd175d64",
                    "callData": "",
                    "decodedMethod": null,
                    "errorInfo": "",
                    "fromAddress": "",
                    "gasUsed": 0,
                    "id": -1,
                    "methodDecoded": false,
                    "operation": "",
                    "output": "",
                    "revert": false,
                    "revertMessage": "",
                    "selector": "",
                    "status": false,
                    "value": ""
                },
                "nodeType": 0
            },
            "0": {
                "invocation": {
                    "address": "0x111111f7e9b1fe072ade438f77e1ce861c7ee4e3",
                    "callData": "0x000000000000000000000000c764037abf711e6d02a03b9d73c97a47f85a2502000000000000000000000000000000000000000000000001158e460913d00000",
                    "decodedMethod": {
                        "callParams": [
                            {
                                "name": "_to",
                                "type": "address",
                                "value": "0xc764037abf711e6d02a03b9d73c97a47f85a2502"
                            },
                            {
                                "decimalAvailable": true,
                                "name": "_value",
                                "type": "uint256",
                                "value": "20,000,000,000,000,000,000"
                            }
                        ],
                        "constructorArguments": "",
                        "name": "transfer",
                        "returnParams": [
                            {
                                "name": "",
                                "type": "bool",
                                "value": true
                            }
                        ],
                        "signature": "transfer(address,uint256)"
                    },
                    "errorInfo": "",
                    "fromAddress": "0x2c0d289333303f297912746009566bfecd175d64",
                    "gasUsed": 37118,
                    "id": 0,
                    "methodDecoded": true,
                    "operation": "CALL",
                    "output": "0x0000000000000000000000000000000000000000000000000000000000000001",
                    "revert": false,
                    "revertMessage": "",
                    "selector": "0xa9059cbb",
                    "status": true,
                    "value": "0"
                },
                "nodeType": 0
            },
            "1": {
                "event": {
                    "contract": "0x111111f7e9b1fe072ade438f77e1ce861c7ee4e3",
                    "decodedLog": {
                        "name": "Transfer",
                        "params": [
                            {
                                "name": "from",
                                "type": "address",
                                "value": "0x2c0d289333303f297912746009566bfecd175d64"
                            },
                            {
                                "name": "to",
                                "type": "address",
                                "value": "0xc764037abf711e6d02a03b9d73c97a47f85a2502"
                            },
                            {
                                "decimalAvailable": true,
                                "name": "value",
                                "type": "uint256",
                                "value": "20,000,000,000,000,000,000"
                            }
                        ],
                        "signature": "Transfer(address,address,uint256)"
                    },
                    "id": 1,
                    "logData": "0x000000000000000000000000000000000000000000000001158e460913d00000",
                    "logDecoded": true,
                    "operation": "EVENT",
                    "revert": false,
                    "status": true,
                    "topics": [
                        "0xddf252ad1be2c89b69c2b068fc378daa952ba7f163c4a11628f55a4df523b3ef",
                        "0x0000000000000000000000002c0d289333303f297912746009566bfecd175d64",
                        "0x000000000000000000000000c764037abf711e6d02a03b9d73c97a47f85a2502"
                    ]
                },
                "nodeType": 1
            }
        },
        "gasFlame": [
            {
                "children": [
                    {
                        "children": [
                            {
                                "children": [],
                                "depth": 0,
                                "name": "Initial Gas",
                                "value": 23256
                            },
                            {
                                "children": [],
                                "depth": 0,
                                "name": "Executed Gas",
                                "value": 13862
                            }
                        ],
                        "depth": -1,
                        "name": "Actual Gas Used",
                        "value": 37118
                    },
                    {
                        "children": [],
                        "depth": -1,
                        "name": "Refunded Gas",
                        "value": 0
                    }
                ],
                "depth": -2,
                "name": "Total Gas",
                "value": 37118
            }
        ],
        "isConfirmed": true,
        "mainTrace": [
            {
                "children": [
                    {
                        "children": [
                            {
                                "children": [],
                                "depth": 1,
                                "id": 1,
                                "order": 1
                            }
                        ],
                        "depth": 0,
                        "id": 0,
                        "order": 0
                    }
                ],
                "depth": -1,
                "id": -1,
                "order": -1
            }
        ],
        "mainTraceNodeCount": 2,
        "parentIdMap": {
            "0": -1,
            "1": 0
        },
        "tidyTrace": [
            {
                "children": [
                    {
                        "children": [
                            {
                                "children": [],
                                "depth": 1,
                                "id": 1,
                                "order": 1
                            }
                        ],
                        "depth": 0,
                        "id": 0,
                        "order": 0
                    }
                ],
                "depth": -1,
                "id": -1,
                "order": -1
            }
        ],
        "tidyTraceNodeCount": 2
    },
    "state_change": {
        "stateChanges": [
            {
                "address": "0x111111f7e9b1fe072ade438f77e1ce861c7ee4e3",
                "erc": "ERC-20",
                "slots": [
                    {
                        "current": "0x000000000000000000000000000000000000000000000004563918244f400000",
                        "key": "0x90e130e62530fc1f7edf985b4949e925728668b39480fae938e712c5c8d2f657",
                        "prev": "0x00000000000000000000000000000000000000000000000340aad21b3b700000"
                    },
                    {
                        "current": "0x0000000000000000000000000000000000000000000001f11b506f41fc080000",
                        "key": "0x9f3da5ee79bdb7949e0b2b346551750295c1b2d71254b89fb5788c87496c0861",
                        "prev": "0x0000000000000000000000000000000000000000000001f230deb54b0fd80000"
                    }
                ],
                "storageVariables": [
                    {
                        "name": "balances",
                        "type": "mapping(address => uint256)",
                        "value": {
                            "pairs": [
                                {
                                    "key": "0x2c0d289333303f297912746009566bfecd175d64",
                                    "value": {
                                        "current": "9170000000000000000000",
                                        "prev": "9190000000000000000000",
                                        "typeTag": 1
                                    }
                                },
                                {
                                    "key": "0xc764037abf711e6d02a03b9d73c97a47f85a2502",
                                    "value": {
                                        "current": "80000000000000000000",
                                        "prev": "60000000000000000000",
                                        "typeTag": 1
                                    }
                                }
                            ],
                            "typeTag": 4
                        }
                    }
                ]
            }
        ]
    }
}