{
    "balance_change": {
        "balanceChanges": [
            {
                "account": "0x52f38c43da726cead47fea679314c148d9bf62ad",
                "assets": [
                    {
                        "address": "0xeeeeeeeeeeeeeeeeeeeeeeeeeeeeeeeeeeeeeeee",
                        "amount": "0.12",
                        "iconUrl": "https://assets.blocksec.com/image/1663669189317-3.png",
                        "isERC1155": false,
                        "isERC721": false,
                        "sign": false,
                        "value": "289.57082400000001143"
                    },
                    {
                        "address": "0x1d953c30a47d985df299420074a46bf54233011d",
                        "amount": "1,483,088.547508770836211273",
                        "iconUrl": "",
                        "isERC1155": false,
                        "isERC721": false,
                        "sign": true,
                        "value": "280.8473809"
                    }
                ]
            },
            {
                "account": "0xa90320250b9201758d43f24cf60d50fa34913d42",
                "assets": [
                    {
                        "address": "0xc02aaa39b223fe8d0a0e5c4f27ead9083c756cc2",
                        "amount": "0.12",
                        "iconUrl": "https://assets.blocksec.com/icon/f1cb2d02c471d545bbc7722daf3277fd852d98e63d118771af7047bd8256c516.png",
                        "isERC1155": false,
                        "isERC721": false,
                        "sign": true,
                        "value": "289.57082400000001143"
                    },
                    {
                        "address": "0x1d953c30a47d985df299420074a46bf54233011d",
                        "amount": "1,483,088.547508770836211273",
                        "iconUrl": "",
                        "isERC1155": false,
                        "isERC721": false,
                        "sign": false,
                        "value": "280.8473809"
                    }
                ]
            },
            {
                "account": "0xc02aaa39b223fe8d0a0e5c4f27ead9083c756cc2",
                "assets": [
                    {
                        "address": "0xeeeeeeeeeeeeeeeeeeeeeeeeeeeeeeeeeeeeeeee",
                        "amount": "0.12",
                        "iconUrl": "https://assets.blocksec.com/image/1663669189317-3.png",
                        "isERC1155": false,
                        "isERC721": false,
                        "sign": true,
                        "value": "289.57082400000001143"
                    },
                    {
                        "address": "0xc02aaa39b223fe8d0a0e5c4f27ead9083c756cc2",
                        "amount": "0.12",
                        "iconUrl": "https://assets.blocksec.com/icon/f1cb2d02c471d545bbc7722daf3277fd852d98e63d118771af7047bd8256c516.png",
                        "isERC1155": false,
                        "isERC721": false,
                        "sign": false,
                        "value": "289.57082400000001143"
                    }
                ]
            }
        ]
    },
    "profile": {
        "basic_info": {
            "baseFee": "1.718625106",
            "blockNumber": 20682569,
            "callData": "0xb6f9de950000000000000000000000000000000000000000000022f5b81ff43489dfa249000000000000000000000000000000000000000000000000000000000000008000000000000000000000000052f38c43da726cead47fea679314c148d9bf62ad0000000000000000000000000000000000000000000000000000000066d94f640000000000000000000000000000000000000000000000000000000000000002000000000000000000000000c02aaa39b223fe8d0a0e5c4f27ead9083c756cc20000000000000000000000001d953c30a47d985df299420074a46bf54233011d",
            "debugEnable": true,
            "errorInfo": "",
            "eventCount": 5,
            "feeRecipient": "0x95222290dd7278aa3ddd389cc1e1d165cc4bafe5",
            "formatValue": "0.12",
            "gasLimit": 350000,
            "gasPrice": "2.718625106",
            "gasUsed": 161187,
            "intTxnCount": 12,
            "internalRevert": false,
            "internalRevertMessage": "",
            "isContractCreation": false,
            "isFlashloan": false,
            "maxFee": "4.212179136",
            "nonce": 348,
            "overwritedBlockNumber": -1,
            "priorityFee": "1",
            "receiver": "0x80a64c6d7f12c47b7c66c5b4e20e72bc1fcd5d9e",
            "revertMessage": "",
            "sender": "0x52f38c43da726cead47fea679314c148d9bf62ad",
            "simulationEnable": true,
            "sourceTxnHash": "0x794487434c250fab2ced02139e028b543b027927fbf2a2c0af6b27126dec176f",
            "status": true,
            "timestamp": "2024-09-05T06:23:11Z",
            "transactionFee": "0.000438207024960822",
            "txnHash": "0x794487434c250fab2ced02139e028b543b027927fbf2a2c0af6b27126dec176f",
            "txnIndex": 66,
            "type": 2,
            "value": "120000000000000000"
        },
        "fund_flow": [
            {
                "amount": "0.12",
                "from": "0x52f38c43da726cead47fea679314c148d9bf62ad",
                "id": 1,
                "isERC1155": false,
                "isERC721": false,
                "isReverted": false,
                "order": 1,
                "to": "0x80a64c6d7f12c47b7c66c5b4e20e72bc1fcd5d9e",
                "token": "0xeeeeeeeeeeeeeeeeeeeeeeeeeeeeeeeeeeeeeeee"
            },
            {
                "amount": "0.12",
                "from": "0x80a64c6d7f12c47b7c66c5b4e20e72bc1fcd5d9e",
                "id": 2,
                "isERC1155": false,
                "isERC721": false,
                "isReverted": false,
                "order": 2,
                "to": "0xc02aaa39b223fe8d0a0e5c4f27ead9083c756cc2",
                "token": "0xeeeeeeeeeeeeeeeeeeeeeeeeeeeeeeeeeeeeeeee"
            },
            {
                "amount": "0.12",
                "from": "0xc02aaa39b223fe8d0a0e5c4f27ead9083c756cc2",
                "id": 3,
                "isERC1155": false,
                "isERC721": false,
                "isReverted": false,
                "order": 3,
                "to": "0x80a64c6d7f12c47b7c66c5b4e20e72bc1fcd5d9e",
                "token": "0xc02aaa39b223fe8d0a0e5c4f27ead9083c756cc2"
            },
            {
                "amount": "0.12",
                "from": "0x80a64c6d7f12c47b7c66c5b4e20e72bc1fcd5d9e",
                "id": 4,
                "isERC1155": false,
                "isERC721": false,
                "isReverted": false,
                "order": 4,
                "to": "0xa90320250b9201758d43f24cf60d50fa34913d42",
                "token": "0xc02aaa39b223fe8d0a0e5c4f27ead9083c756cc2"
            },
            {
                "amount": "1,483,088.547508770836211273",
                "from": "0xa90320250b9201758d43f24cf60d50fa34913d42",
                "id": 5,
                "isERC1155": false,
                "isERC721": false,
                "isReverted": false,
                "order": 5,
                "to": "0x52f38c43da726cead47fea679314c148d9bf62ad",
                "token": "0x1d953c30a47d985df299420074a46bf54233011d"
            }
        ],
        "token_infos": [
            {
                "address": "0x1d953c30a47d985df299420074a46bf54233011d",
                "decimals": 18
            },
            {
                "address": "0xc02aaa39b223fe8d0a0e5c4f27ead9083c756cc2",
                "decimals": 18
            },
            {
                "address": "0xeeeeeeeeeeeeeeeeeeeeeeeeeeeeeeeeeeeeeeee",
                "decimals": 18
            }
        ]
    },
    "address_label": {
        "labels": [
            {
                "address": "0xeeeeeeeeeeeeeeeeeeeeeeeeeeeeeeeeeeeeeeee",
                "label": "Ether"
            },
            {
                "address": "0x0000000000000000000000000000000000000002",
                "label": "Precompiled"
            },
            {
                "address": "0xc02aaa39b223fe8d0a0e5c4f27ead9083c756cc2",
                "label": "Wrapped Ether (WETH)"
            },
            {
                "address": "0x80a64c6d7f12c47b7c66c5b4e20e72bc1fcd5d9e",
                "label": "Maestro: Router 2"
            },
            {
                "address": "0x1d953c30a47d985df299420074a46bf54233011d",
                "label": "DEMURE"
            },
            {
                "address": "0xa90320250b9201758d43f24cf60d50fa34913d42",
                "label": "UNI-V2"
            },
            {
                "address": "0x0000000000000000000000000000000000000001",
                "label": "Precompiled"
            },
            {
                "address": "0x0000000000000000000000000000000000000003",
                "label": "Precompiled"
            },
            {
                "address": "0x0000000000000000000000000000000000000004",
                "label": "Precompiled"
            }
        ]
    },
    "trace": {
        "accountLabels": null,
        "dataMap": {
            "-1": {
                "invocation": {
                    "address": "0x52f38c43da726cead47fea679314c148d9bf62ad",
                    "callData": "",
                    "decodedMethod": null,
                    "errorInfo": "",
                    "fromAddress": "",
                    "gasUsed": 0,
                    "id": -1,
                    "methodDecoded": false,
                    "operation": "",
                    "output": "",
                    "revert": false,
                    "revertMessage": "",
                    "selector": "",
                    "status": false,
                    "value": ""
                },
                "nodeType": 0
            },
            "0": {
                "invocation": {
                    "address": "0x80a64c6d7f12c47b7c66c5b4e20e72bc1fcd5d9e",
                    "callData": "0x0000000000000000000000000000000000000000000022f5b81ff43489dfa249000000000000000000000000000000000000000000000000000000000000008000000000000000000000000052f38c43da726cead47fea679314c148d9bf62ad0000000000000000000000000000000000000000000000000000000066d94f640000000000000000000000000000000000000000000000000000000000000002000000000000000000000000c02aaa39b223fe8d0a0e5c4f27ead9083c756cc20000000000000000000000001d953c30a47d985df299420074a46bf54233011d",
                    "decodedMethod": {
                        "callParams": [
                            {
                                "name": "amountOutMin",
                                "type": "uint256",
                                "value": "165,093,180,307,160,522,793,545"
                            },
                            {
                                "name": "path",
                                "type": "address[]",
                                "value": [
                                    "0xc02aaa39b223fe8d0a0e5c4f27ead9083c756cc2",
                                    "0x1d953c30a47d985df299420074a46bf54233011d"
                                ]
                            },
                            {
                                "name": "to",
                                "type": "address",
                                "value": "0x52f38c43da726cead47fea679314c148d9bf62ad"
                            },
                            {
                                "name": "deadline",
                                "type": "uint256",
                                "value": "1,725,517,668"
                            }
                        ],
                        "constructorArguments": "",
                        "name": "swapExactETHForTokensSupportingFeeOnTransferTokens",
                        "returnParams": [],
                        "signature": "swapExactETHForTokensSupportingFeeOnTransferTokens(uint256,address[],address,uint256)"
                    },
                    "errorInfo": "",
                    "fromAddress": "0x52f38c43da726cead47fea679314c148d9bf62ad",
                    "gasUsed": 161187,
                    "id": 0,
                    "methodDecoded": true,
                    "operation": "CALL",
                    "output": "",
                    "revert": false,
                    "revertMessage": "",
                    "selector": "0xb6f9de95",
                    "status": true,
                    "value": "0.12"
                },
                "nodeType": 0
            },
            "1": {
                "invocation": {
                    "address": "0x46affe1b4f3fc41581fd20fbaf055daeab80a8b5",
                    "callData": "0x0000000000000000000000000000000000000000000022f5b81ff43489dfa249000000000000000000000000000000000000000000000000000000000000008000000000000000000000000052f38c43da726cead47fea679314c148d9bf62ad0000000000000000000000000000000000000000000000000000000066d94f640000000000000000000000000000000000000000000000000000000000000002000000000000000000000000c02aaa39b223fe8d0a0e5c4f27ead9083c756cc20000000000000000000000001d953c30a47d985df299420074a46bf54233011d",
                    "decodedMethod": {
                        "callParams": [
                            {
                                "name": "amountOutMin",
                                "type": "uint256",
                                "value": "165,093,180,307,160,522,793,545"
                            },
                            {
                                "name": "path",
                                "type": "address[]",
                                "value": [
                                    "0xc02aaa39b223fe8d0a0e5c4f27ead9083c756cc2",
                                    "0x1d953c30a47d985df299420074a46bf54233011d"
                                ]
                            },
                            {
                                "name": "to",
                                "type": "address",
                                "value": "0x52f38c43da726cead47fea679314c148d9bf62ad"
                            },
                            {
                                "name": "deadline",
                                "type": "uint256",
                                "value": "1,725,517,668"
                            }
                        ],
                        "constructorArguments": "",
                        "name": "swapExactETHForTokensSupportingFeeOnTransferTokens",
                        "returnParams": [],
                        "signature": "swapExactETHForTokensSupportingFeeOnTransferTokens(uint256,address[],address,uint256)"
                    },
                    "errorInfo": "",
                    "fromAddress": "0x80a64c6d7f12c47b7c66c5b4e20e72bc1fcd5d9e",
                    "gasUsed": 156157,
                    "id": 1,
                    "methodDecoded": true,
                    "operation": "DELEGATECALL",
                    "output": "",
                    "revert": false,
                    "revertMessage": "",
                    "selector": "0xb6f9de95",
                    "status": true,
                    "value": "0.12"
                },
                "nodeType": 0
            },
            "10": {
                "invocation": {
                    "address": "0x1d953c30a47d985df299420074a46bf54233011d",
                    "callData": "0x00000000000000000000000052f38c43da726cead47fea679314c148d9bf62ad000000000000000000000000000000000000000000013a0e64299b55b85a6649",
                    "decodedMethod": {
                        "callParams": [
                            {
                                "name": "recipient",
                                "type": "address",
                                "value": "0x52f38c43da726cead47fea679314c148d9bf62ad"
                            },
                            {
                                "decimalAvailable": true,
                                "name": "amount",
                                "type": "uint256",
                                "value": "1,483,088,547,508,770,836,211,273"
                            }
                        ],
                        "constructorArguments": "",
                        "name": "transfer",
                        "returnParams": [
                            {
                                "name": "",
                                "type": "bool",
                                "value": true
                            }
                        ],
                        "signature": "transfer(address,uint256)"
                    },
                    "errorInfo": "",
                    "fromAddress": "0xa90320250b9201758d43f24cf60d50fa34913d42",
                    "gasUsed": 63529,
                    "id": 10,
                    "methodDecoded": true,
                    "operation": "CALL",
                    "output": "0x0000000000000000000000000000000000000000000000000000000000000001",
                    "revert": false,
                    "revertMessage": "",
                    "selector": "0xa9059cbb",
                    "status": true,
                    "value": "0"
                },
                "nodeType": 0
            },
            "11": {
                "event": {
                    "contract": "0x1d953c30a47d985df299420074a46bf54233011d",
                    "decodedLog": {
                        "name": "Transfer",
                        "params": [
                            {
                                "name": "from",
                                "type": "address",
                                "value": "0xa90320250b9201758d43f24cf60d50fa34913d42"
                            },
                            {
                                "name": "to",
                                "type": "address",
                                "value": "0x52f38c43da726cead47fea679314c148d9bf62ad"
                            },
                            {
                                "decimalAvailable": true,
                                "name": "value",
                                "type": "uint256",
                                "value": "1,483,088,547,508,770,836,211,273"
                            }
                        ],
                        "signature": "Transfer(address,address,uint256)"
                    },
                    "id": 11,
                    "logData": "0x000000000000000000000000000000000000000000013a0e64299b55b85a6649",
                    "logDecoded": true,
                    "operation": "EVENT",
                    "revert": false,
                    "status": true,
                    "topics": [
                        "0xddf252ad1be2c89b69c2b068fc378daa952ba7f163c4a11628f55a4df523b3ef",
                        "0x000000000000000000000000a90320250b9201758d43f24cf60d50fa34913d42",
                        "0x00000000000000000000000052f38c43da726cead47fea679314c148d9bf62ad"
                    ]
                },
                "nodeType": 1
            },
            "12": {
                "invocation": {
                    "address": "0x1d953c30a47d985df299420074a46bf54233011d",
                    "callData": "0x000000000000000000000000a90320250b9201758d43f24cf60d50fa34913d42",
                    "decodedMethod": {
                        "callParams": [
                            {
                                "name": "account",
                                "type": "address",
                                "value": "0xa90320250b9201758d43f24cf60d50fa34913d42"
                            }
                        ],
                        "constructorArguments": "",
                        "name": "balanceOf",
                        "returnParams": [
                            {
                                "decimalAvailable": true,
                                "name": "",
                                "type": "uint256",
                                "value": "101,429,347,058,262,921,233,986,645"
                            }
                        ],
                        "signature": "balanceOf(address)"
                    },
                    "errorInfo": "",
                    "fromAddress": "0xa90320250b9201758d43f24cf60d50fa34913d42",
                    "gasUsed": 617,
                    "id": 12,
                    "methodDecoded": true,
                    "operation": "STATICCALL",
                    "output": "0x00000000000000000000000000000000000000000053e67febf5b1abef667455",
                    "revert": false,
                    "revertMessage": "",
                    "selector": "0x70a08231",
                    "status": true,
                    "value": "0"
                },
                "nodeType": 0
            },
            "13": {
                "invocation": {
                    "address": "0xc02aaa39b223fe8d0a0e5c4f27ead9083c756cc2",
                    "callData": "0x000000000000000000000000a90320250b9201758d43f24cf60d50fa34913d42",
                    "decodedMethod": {
                        "callParams": [
                            {
                                "name": "",
                                "type": "address",
                                "value": "0xa90320250b9201758d43f24cf60d50fa34913d42"
                            }
                        ],
                        "constructorArguments": "",
                        "name": "balanceOf",
                        "returnParams": [
                            {
                                "decimalAvailable": true,
                                "name": "",
                                "type": "uint256",
                                "value": "8,302,253,920,330,276,630"
                            }
                        ],
                        "signature": "balanceOf(address)"
                    },
                    "errorInfo": "",
                    "fromAddress": "0xa90320250b9201758d43f24cf60d50fa34913d42",
                    "gasUsed": 534,
                    "id": 13,
                    "methodDecoded": true,
                    "operation": "STATICCALL",
                    "output": "0x000000000000000000000000000000000000000000000000733787f40c615f16",
                    "revert": false,
                    "revertMessage": "",
                    "selector": "0x70a08231",
                    "status": true,
                    "value": "0"
                },
                "nodeType": 0
            },
            "14": {
                "event": {
                    "contract": "0xa90320250b9201758d43f24cf60d50fa34913d42",
                    "decodedLog": {
                        "name": "Sync",
                        "params": [
                            {
                                "name": "reserve0",
                                "type": "uint112",
                                "value": "101,429,347,058,262,921,233,986,645"
                            },
                            {
                                "name": "reserve1",
                                "type": "uint112",
                                "value": "8,302,253,920,330,276,630"
                            }
                        ],
                        "signature": "Sync(uint112,uint112)"
                    },
                    "id": 14,
                    "logData": "0x00000000000000000000000000000000000000000053e67febf5b1abef667455000000000000000000000000000000000000000000000000733787f40c615f16",
                    "logDecoded": true,
                    "operation": "EVENT",
                    "revert": false,
                    "status": true,
                    "topics": [
                        "0x1c411e9a96e071241c2f21f7726b17ae89e3cab4c78be50e062b03a9fffbbad1"
                    ]
                },
                "nodeType": 1
            },
            "15": {
                "event": {
                    "contract": "0xa90320250b9201758d43f24cf60d50fa34913d42",
                    "decodedLog": {
                        "name": "Swap",
                        "params": [
                            {
                                "name": "sender",
                                "type": "address",
                                "value": "0x80a64c6d7f12c47b7c66c5b4e20e72bc1fcd5d9e"
                            },
                            {
                                "name": "to",
                                "type": "address",
                                "value": "0x52f38c43da726cead47fea679314c148d9bf62ad"
                            },
                            {
                                "name": "amount0In",
                                "type": "uint256",
                                "value": "0"
                            },
                            {
                                "name": "amount1In",
                                "type": "uint256",
                                "value": "120,000,000,000,000,000"
                            },
                            {
                                "name": "amount0Out",
                                "type": "uint256",
                                "value": "1,483,088,547,508,770,836,211,273"
                            },
                            {
                                "name": "amount1Out",
                                "type": "uint256",
                                "value": "0"
                            }
                        ],
                        "signature": "Swap(address,uint256,uint256,uint256,uint256,address)"
                    },
                    "id": 15,
                    "logData": "0x000000000000000000000000000000000000000000000000000000000000000000000000000000000000000000000000000000000000000001aa535d3d0c0000000000000000000000000000000000000000000000013a0e64299b55b85a66490000000000000000000000000000000000000000000000000000000000000000",
                    "logDecoded": true,
                    "operation": "EVENT",
                    "revert": false,
                    "status": true,
                    "topics": [
                        "0xd78ad95fa46c994b6551d0da85fc275fe613ce37657fb8d5e3d130840159d822",
                        "0x00000000000000000000000080a64c6d7f12c47b7c66c5b4e20e72bc1fcd5d9e",
                        "0x00000000000000000000000052f38c43da726cead47fea679314c148d9bf62ad"
                    ]
                },
                "nodeType": 1
            },
            "16": {
                "invocation": {
                    "address": "0x1d953c30a47d985df299420074a46bf54233011d",
                    "callData": "0x00000000000000000000000052f38c43da726cead47fea679314c148d9bf62ad",
                    "decodedMethod": {
                        "callParams": [
                            {
                                "name": "account",
                                "type": "address",
                                "value": "0x52f38c43da726cead47fea679314c148d9bf62ad"
                            }
                        ],
                        "constructorArguments": "",
                        "name": "balanceOf",
                        "returnParams": [
                            {
                                "decimalAvailable": true,
                                "name": "",
                                "type": "uint256",
                                "value": "1,483,088,547,508,770,836,211,273"
                            }
                        ],
                        "signature": "balanceOf(address)"
                    },
                    "errorInfo": "",
                    "fromAddress": "0x80a64c6d7f12c47b7c66c5b4e20e72bc1fcd5d9e",
                    "gasUsed": 617,
                    "id": 16,
                    "methodDecoded": true,
                    "operation": "STATICCALL",
                    "output": "0x000000000000000000000000000000000000000000013a0e64299b55b85a6649",
                    "revert": false,
                    "revertMessage": "",
                    "selector": "0x70a08231",
                    "status": true,
                    "value": "0"
                },
                "nodeType": 0
            },
            "17": {
                "invocation": {
                    "address": "0x1d953c30a47d985df299420074a46bf54233011d",
                    "callData": "0x00000000000000000000000052f38c43da726cead47fea679314c148d9bf62ad",
                    "decodedMethod": {
                        "callParams": [
                            {
                                "name": "account",
                                "type": "address",
                                "value": "0x52f38c43da726cead47fea679314c148d9bf62ad"
                            }
                        ],
                        "constructorArguments": "",
                        "name": "balanceOf",
                        "returnParams": [
                            {
                                "decimalAvailable": true,
                                "name": "",
                                "type": "uint256",
                                "value": "1,483,088,547,508,770,836,211,273"
                            }
                        ],
                        "signature": "balanceOf(address)"
                    },
                    "errorInfo": "",
                    "fromAddress": "0x80a64c6d7f12c47b7c66c5b4e20e72bc1fcd5d9e",
                    "gasUsed": 617,
                    "id": 17,
                    "methodDecoded": true,
                    "operation": "STATICCALL",
                    "output": "0x000000000000000000000000000000000000000000013a0e64299b55b85a6649",
                    "revert": false,
                    "revertMessage": "",
                    "selector": "0x70a08231",
                    "status": true,
                    "value": "0"
                },
                "nodeType": 0
            },
            "2": {
                "invocation": {
                    "address": "0xc02aaa39b223fe8d0a0e5c4f27ead9083c756cc2",
                    "callData": "0x",
                    "decodedMethod": {
                        "callParams": [],
                        "constructorArguments": "",
                        "name": "deposit",
                        "returnParams": [],
                        "signature": "deposit()"
                    },
                    "errorInfo": "",
                    "fromAddress": "0x80a64c6d7f12c47b7c66c5b4e20e72bc1fcd5d9e",
                    "gasUsed": 23974,
                    "id": 2,
                    "methodDecoded": true,
                    "operation": "CALL",
                    "output": "",
                    "revert": false,
                    "revertMessage": "",
                    "selector": "0xd0e30db0",
                    "status": true,
                    "value": "0.12"
                },
                "nodeType": 0
            },
            "3": {
                "event": {
                    "contract": "0xc02aaa39b223fe8d0a0e5c4f27ead9083c756cc2",
                    "decodedLog": {
                        "name": "Deposit",
                        "params": [
                            {
                                "name": "dst",
                                "type": "address",
                                "value": "0x80a64c6d7f12c47b7c66c5b4e20e72bc1fcd5d9e"
                            },
                            {
                                "name": "wad",
                                "type": "uint256",
                                "value": "120,000,000,000,000,000"
                            }
                        ],
                        "signature": "Deposit(address,uint256)"
                    },
                    "id": 3,
                    "logData": "0x00000000000000000000000000000000000000000000000001aa535d3d0c0000",
                    "logDecoded": true,
                    "operation": "EVENT",
                    "revert": false,
                    "status": true,
                    "topics": [
                        "0xe1fffcc4923d04b559f4d29a8bfc6cda04eb5b0d3c460751c2402c5c5cc9109c",
                        "0x00000000000000000000000080a64c6d7f12c47b7c66c5b4e20e72bc1fcd5d9e"
                    ]
                },
                "nodeType": 1
            },
            "4": {
                "invocation": {
                    "address": "0xc02aaa39b223fe8d0a0e5c4f27ead9083c756cc2",
                    "callData": "0x000000000000000000000000a90320250b9201758d43f24cf60d50fa34913d4200000000000000000000000000000000000000000000000001aa535d3d0c0000",
                    "decodedMethod": {
                        "callParams": [
                            {
                                "name": "dst",
                                "type": "address",
                                "value": "0xa90320250b9201758d43f24cf60d50fa34913d42"
                            },
                            {
                                "decimalAvailable": true,
                                "name": "wad",
                                "type": "uint256",
                                "value": "120,000,000,000,000,000"
                            }
                        ],
                        "constructorArguments": "",
                        "name": "transfer",
                        "returnParams": [
                            {
                                "name": "",
                                "type": "bool",
                                "value": true
                            }
                        ],
                        "signature": "transfer(address,uint256)"
                    },
                    "errorInfo": "",
                    "fromAddress": "0x80a64c6d7f12c47b7c66c5b4e20e72bc1fcd5d9e",
                    "gasUsed": 8062,
                    "id": 4,
                    "methodDecoded": true,
                    "operation": "CALL",
                    "output": "0x0000000000000000000000000000000000000000000000000000000000000001",
                    "revert": false,
                    "revertMessage": "",
                    "selector": "0xa9059cbb",
                    "status": true,
                    "value": "0"
                },
                "nodeType": 0
            },
            "5": {
                "event": {
                    "contract": "0xc02aaa39b223fe8d0a0e5c4f27ead9083c756cc2",
                    "decodedLog": {
                        "name": "Transfer",
                        "params": [
                            {
                                "name": "src",
                                "type": "address",
                                "value": "0x80a64c6d7f12c47b7c66c5b4e20e72bc1fcd5d9e"
                            },
                            {
                                "name": "dst",
                                "type": "address",
                                "value": "0xa90320250b9201758d43f24cf60d50fa34913d42"
                            },
                            {
                                "decimalAvailable": true,
                                "name": "wad",
                                "type": "uint256",
                                "value": "120,000,000,000,000,000"
                            }
                        ],
                        "signature": "Transfer(address,address,uint256)"
                    },
                    "id": 5,
                    "logData": "0x00000000000000000000000000000000000000000000000001aa535d3d0c0000",
                    "logDecoded": true,
                    "operation": "EVENT",
                    "revert": false,
                    "status": true,
                    "topics": [
                        "0xddf252ad1be2c89b69c2b068fc378daa952ba7f163c4a11628f55a4df523b3ef",
                        "0x00000000000000000000000080a64c6d7f12c47b7c66c5b4e20e72bc1fcd5d9e",
                        "0x000000000000000000000000a90320250b9201758d43f24cf60d50fa34913d42"
                    ]
                },
                "nodeType": 1
            },
            "6": {
                "invocation": {
                    "address": "0x1d953c30a47d985df299420074a46bf54233011d",
                    "callData": "0x00000000000000000000000052f38c43da726cead47fea679314c148d9bf62ad",
                    "decodedMethod": {
                        "callParams": [
                            {
                                "name": "account",
                                "type": "address",
                                "value": "0x52f38c43da726cead47fea679314c148d9bf62ad"
                            }
                        ],
                        "constructorArguments": "",
                        "name": "balanceOf",
                        "returnParams": [
                            {
                                "decimalAvailable": true,
                                "name": "",
                                "type": "uint256",
                                "value": "0"
                            }
                        ],
                        "signature": "balanceOf(address)"
                    },
                    "errorInfo": "",
                    "fromAddress": "0x80a64c6d7f12c47b7c66c5b4e20e72bc1fcd5d9e",
                    "gasUsed": 2617,
                    "id": 6,
                    "methodDecoded": true,
                    "operation": "STATICCALL",
                    "output": "0x0000000000000000000000000000000000000000000000000000000000000000",
                    "revert": false,
                    "revertMessage": "",
                    "selector": "0x70a08231",
                    "status": true,
                    "value": "0"
                },
                "nodeType": 0
            },
            "7": {
                "invocation": {
                    "address": "0xa90320250b9201758d43f24cf60d50fa34913d42",
                    "callData": "0x",
                    "decodedMethod": {
                        "callParams": [],
                        "constructorArguments": "",
                        "name": "getReserves",
                        "returnParams": [
                            {
                                "name": "_reserve0",
                                "type": "uint112",
                                "value": "102,912,435,605,771,692,070,197,918"
                            },
                            {
                                "name": "_reserve1",
                                "type": "uint112",
                                "value": "8,182,253,920,330,276,630"
                            },
                            {
                                "name": "_blockTimestampLast",
                                "type": "uint32",
                                "value": "1,725,517,391"
                            }
                        ],
                        "signature": "getReserves()"
                    },
                    "errorInfo": "",
                    "fromAddress": "0x80a64c6d7f12c47b7c66c5b4e20e72bc1fcd5d9e",
                    "gasUsed": 2504,
                    "id": 7,
                    "methodDecoded": true,
                    "operation": "STATICCALL",
                    "output": "0x00000000000000000000000000000000000000000055208e501f4d01a7c0da9e000000000000000000000000000000000000000000000000718d3496cf555f160000000000000000000000000000000000000000000000000000000066d94e4f",
                    "revert": false,
                    "revertMessage": "",
                    "selector": "0x0902f1ac",
                    "status": true,
                    "value": "0"
                },
                "nodeType": 0
            },
            "8": {
                "invocation": {
                    "address": "0xc02aaa39b223fe8d0a0e5c4f27ead9083c756cc2",
                    "callData": "0x000000000000000000000000a90320250b9201758d43f24cf60d50fa34913d42",
                    "decodedMethod": {
                        "callParams": [
                            {
                                "name": "",
                                "type": "address",
                                "value": "0xa90320250b9201758d43f24cf60d50fa34913d42"
                            }
                        ],
                        "constructorArguments": "",
                        "name": "balanceOf",
                        "returnParams": [
                            {
                                "decimalAvailable": true,
                                "name": "",
                                "type": "uint256",
                                "value": "8,302,253,920,330,276,630"
                            }
                        ],
                        "signature": "balanceOf(address)"
                    },
                    "errorInfo": "",
                    "fromAddress": "0x80a64c6d7f12c47b7c66c5b4e20e72bc1fcd5d9e",
                    "gasUsed": 534,
                    "id": 8,
                    "methodDecoded": true,
                    "operation": "STATICCALL",
                    "output": "0x000000000000000000000000000000000000000000000000733787f40c615f16",
                    "revert": false,
                    "revertMessage": "",
                    "selector": "0x70a08231",
                    "status": true,
                    "value": "0"
                },
                "nodeType": 0
            },
            "9": {
                "invocation": {
                    "address": "0xa90320250b9201758d43f24cf60d50fa34913d42",
                    "callData": "0x000000000000000000000000000000000000000000013a0e64299b55b85a6649000000000000000000000000000000000000000000000000000000000000000000000000000000000000000052f38c43da726cead47fea679314c148d9bf62ad00000000000000000000000000000000000000000000000000000000000000800000000000000000000000000000000000000000000000000000000000000000",
                    "decodedMethod": {
                        "callParams": [
                            {
                                "name": "amount0Out",
                                "type": "uint256",
                                "value": "1,483,088,547,508,770,836,211,273"
                            },
                            {
                                "name": "amount1Out",
                                "type": "uint256",
                                "value": "0"
                            },
                            {
                                "name": "to",
                                "type": "address",
                                "value": "0x52f38c43da726cead47fea679314c148d9bf62ad"
                            },
                            {
                                "name": "data",
                                "type": "bytes",
                                "value": "0x"
                            }
                        ],
                        "constructorArguments": "",
                        "name": "swap",
                        "returnParams": [],
                        "signature": "swap(uint256,uint256,address,bytes)"
                    },
                    "errorInfo": "",
                    "fromAddress": "0x80a64c6d7f12c47b7c66c5b4e20e72bc1fcd5d9e",
                    "gasUsed": 85587,
                    "id": 9,
                    "methodDecoded": true,
                    "operation": "CALL",
                    "output": "",
                    "revert": false,
                    "revertMessage": "",
                    "selector": "0x022c0d9f",
                    "status": true,
                    "value": "0"
                },
                "nodeType": 0
            }
        },
        "gasFlame": [
            {
                "children": [
                    {
                        "children": [
                            {
                                "children": [],
                                "depth": 0,
                                "name": "Initial Gas",
                                "value": 22860
                            },
                            {
                                "children": [
                                    {
                                        "children": [
                                            {
                                                "children": [],
                                                "depth": 2,
                                                "name": "deposit",
                                                "value": 23974
                                            },
                                            {
                                                "children": [],
                                                "depth": 2,
                                                "name": "transfer",
                                                "value": 8062
                                            },
                                            {
                                                "children": [],
                                                "depth": 2,
                                                "name": "balanceOf",
                                                "value": 2617
                                            },
                                            {
                                                "children": [],
                                                "depth": 2,
                                                "name": "getReserves",
                                                "value": 2504
                                            },
                                            {
                                                "children": [],
                                                "depth": 2,
                                                "name": "balanceOf",
                                                "value": 534
                                            },
                                            {
                                                "children": [
                                                    {
                                                        "children": [],
                                                        "depth": 3,
                                                        "name": "transfer",
                                                        "value": 63529
                                                    },
                                                    {
                                                        "children": [],
                                                        "depth": 3,
                                                        "name": "balanceOf",
                                                        "value": 617
                                                    },
                                                    {
                                                        "children": [],
                                                        "depth": 3,
                                                        "name": "balanceOf",
                                                        "value": 534
                                                    }
                                                ],
                                                "depth": 2,
                                                "name": "swap",
                                                "value": 85587
                                            },
                                            {
                                                "children": [],
                                                "depth": 2,
                                                "name": "balanceOf",
                                                "value": 617
                                            },
                                            {
                                                "children": [],
                                                "depth": 2,
                                                "name": "balanceOf",
                                                "value": 617
                                            }
                                        ],
                                        "depth": 1,
                                        "name": "swapExactETHForTokensSupportingFeeOnTransferTokens",
                                        "value": 156157
                                    }
                                ],
                                "depth": 0,
                                "name": "Executed Gas",
                                "value": 161027
                            }
                        ],
                        "depth": -1,
                        "name": "Actual Gas Used",
                        "value": 161187
                    },
                    {
                        "children": [],
                        "depth": -1,
                        "name": "Refunded Gas",
                        "value": 22700
                    }
                ],
                "depth": -2,
                "name": "Total Gas",
                "value": 183887
            }
        ],
        "isConfirmed": true,
        "mainTrace": [
            {
                "children": [
                    {
                        "children": [
                            {
                                "children": [
                                    {
                                        "children": [
                                            {
                                                "children": [],
                                                "depth": 3,
                                                "id": 3,
                                                "order": 3
                                            }
                                        ],
                                        "depth": 2,
                                        "id": 2,
                                        "order": 2
                                    },
                                    {
                                        "children": [
                                            {
                                                "children": [],
                                                "depth": 3,
                                                "id": 5,
                                                "order": 5
                                            }
                                        ],
                                        "depth": 2,
                                        "id": 4,
                                        "order": 4
                                    },
                                    {
                                        "children": [],
                                        "depth": 2,
                                        "id": 6,
                                        "order": 6
                                    },
                                    {
                                        "children": [],
                                        "depth": 2,
                                        "id": 7,
                                        "order": 7
                                    },
                                    {
                                        "children": [],
                                        "depth": 2,
                                        "id": 8,
                                        "order": 8
                                    },
                                    {
                                        "children": [
                                            {
                                                "children": [
                                                    {
                                                        "children": [],
                                                        "depth": 4,
                                                        "id": 11,
                                                        "order": 11
                                                    }
                                                ],
                                                "depth": 3,
                                                "id": 10,
                                                "order": 10
                                            },
                                            {
                                                "children": [],
                                                "depth": 3,
                                                "id": 12,
                                                "order": 12
                                            },
                                            {
                                                "children": [],
                                                "depth": 3,
                                                "id": 13,
                                                "order": 13
                                            },
                                            {
                                                "children": [],
                                                "depth": 3,
                                                "id": 14,
                                                "order": 14
                                            },
                                            {
                                                "children": [],
                                                "depth": 3,
                                                "id": 15,
                                                "order": 15
                                            }
                                        ],
                                        "depth": 2,
                                        "id": 9,
                                        "order": 9
                                    },
                                    {
                                        "children": [],
                                        "depth": 2,
                                        "id": 16,
                                        "order": 16
                                    },
                                    {
                                        "children": [],
                                        "depth": 2,
                                        "id": 17,
                                        "order": 17
                                    }
                                ],
                                "depth": 1,
                                "id": 1,
                                "order": 1
                            }
                        ],
                        "depth": 0,
                        "id": 0,
                        "order": 0
                    }
                ],
                "depth": -1,
                "id": -1,
                "order": -1
            }
        ],
        "mainTraceNodeCount": 18,
        "parentIdMap": {
            "0": -1,
            "1": 0,
            "10": 9,
            "11": 10,
            "12": 9,
            "13": 9,
            "14": 9,
            "15": 9,
            "16": 1,
            "17": 1,
            "2": 1,
            "3": 2,
            "4": 1,
            "5": 4,
            "6": 1,
            "7": 1,
            "8": 1,
            "9": 1
        },
        "tidyTrace": [
            {
                "children": [
                    {
                        "children": [
                            {
                                "children": [
                                    {
                                        "children": [
                                            {
                                                "children": [],
                                                "depth": 3,
                                                "id": 3,
                                                "order": 3
                                            }
                                        ],
                                        "depth": 2,
                                        "id": 2,
                                        "order": 2
                                    },
                                    {
                                        "children": [
                                            {
                                                "children": [],
                                                "depth": 3,
                                                "id": 5,
                                                "order": 5
                                            }
                                        ],
                                        "depth": 2,
                                        "id": 4,
                                        "order": 4
                                    },
                                    {
                                        "children": [
                                            {
                                                "children": [
                                                    {
                                                        "children": [],
                                                        "depth": 4,
                                                        "id": 11,
                                                        "order": 11
                                                    }
                                                ],
                                                "depth": 3,
                                                "id": 10,
                                                "order": 10
                                            },
                                            {
                                                "children": [],
                                                "depth": 3,
                                                "id": 14,
                                                "order": 14
                                            },
                                            {
                                                "children": [],
                                                "depth": 3,
                                                "id": 15,
                                                "order": 15
                                            }
                                        ],
                                        "depth": 2,
                                        "id": 9,
                                        "order": 9
                                    }
                                ],
                                "depth": 1,
                                "id": 1,
                                "order": 1
                            }
                        ],
                        "depth": 0,
                        "id": 0,
                        "order": 0
                    }
                ],
                "depth": -1,
                "id": -1,
                "order": -1
            }
        ],
        "tidyTraceNodeCount": 11
    },
    "state_change": {
        "stateChanges": [
            {
                "address": "0x1d953c30a47d985df299420074a46bf54233011d",
                "erc": "ERC-20",
                "slots": [
                    {
                        "current": "0x0000000000000000000000000000000000000000000000000000000000000187",
                        "key": "0x000000000000000000000000000000000000000000000000000000000000000e",
                        "prev": "0x0000000000000000000000000000000000000000000000000000000000000186"
                    },
                    {
                        "current": "0x00000000000000000000000000000000000000000053e67febf5b1abef667455",
                        "key": "0xd19ee2452f67bb3a564e452694820adbcd157c1d42dd48c7e8051c7878d5f145",
                        "prev": "0x00000000000000000000000000000000000000000055208e501f4d01a7c0da9e"
                    },
                    {
                        "current": "0x000000000000000000000000000000000000000000013a0e64299b55b85a6649",
                        "key": "0x69023468deebe59cd18dab89c03aa83c998e8b230965c72db97d7637be2faecb",
                        "prev": "0x0000000000000000000000000000000000000000000000000000000000000000"
                    }
                ],
                "storageVariables": [
                    {
                        "name": "_buyCount",
                        "type": "uint256",
                        "value": {
                            "current": "391",
                            "prev": "390",
                            "typeTag": 1
                        }
                    },
                    {
                        "name": "_balances",
                        "type": "mapping(address => uint256)",
                        "value": {
                            "pairs": [
                                {
                                    "key": "0x52f38c43da726cead47fea679314c148d9bf62ad",
                                    "value": {
                                        "current": "1483088547508770836211273",
                                        "prev": "0",
                                        "typeTag": 1
                                    }
                                },
                                {
                                    "key": "0xa90320250b9201758d43f24cf60d50fa34913d42",
                                    "value": {
                                        "current": "101429347058262921233986645",
                                        "prev": "102912435605771692070197918",
                                        "typeTag": 1
                                    }
                                }
                            ],
                            "typeTag": 4
                        }
                    }
                ]
            },
            {
                "address": "0xa90320250b9201758d43f24cf60d50fa34913d42",
                "erc": "ERC-20",
                "slots": [
                    {
                        "current": "0x66d94e4f000000000000733787f40c615f1600000053e67febf5b1abef667455",
                        "key": "0x0000000000000000000000000000000000000000000000000000000000000008",
                        "prev": "0x66d94e4f000000000000718d3496cf555f1600000055208e501f4d01a7c0da9e"
                    }
                ],
                "storageVariables": [
                    {
                        "name": "reserve0",
                        "type": "uint112",
                        "value": {
                            "current": "101429347058262921233986645",
                            "prev": "102912435605771692070197918",
                            "typeTag": 1
                        }
                    },
                    {
                        "name": "reserve1",
                        "type": "uint112",
                        "value": {
                            "current": "8302253920330276630",
                            "prev": "8182253920330276630",
                            "typeTag": 1
                        }
                    },
                    {
                        "name": "blockTimestampLast",
                        "type": "uint32",
                        "value": {
                            "current": "1725517391",
                            "prev": "1725517391",
                            "typeTag": 1
                        }
                    }
                ]
            },
            {
                "address": "0xc02aaa39b223fe8d0a0e5c4f27ead9083c756cc2",
                "erc": "ERC-20",
                "slots": [
                    {
                        "current": "0x000000000000000000000000000000000000000000000000733787f40c615f16",
                        "key": "0x34514a11790753e873dbc4eb08c5add9920b95de4a7ebd1ea2e519e73d63ff0f",
                        "prev": "0x000000000000000000000000000000000000000000000000718d3496cf555f16"
                    }
                ],
                "storageVariables": [
                    {
                        "name": "balanceOf",
                        "type": "mapping(address => uint256)",
                        "value": {
                            "pairs": [
                                {
                                    "key": "0xa90320250b9201758d43f24cf60d50fa34913d42",
                                    "value": {
                                        "current": "8302253920330276630",
                                        "prev": "8182253920330276630",
                                        "typeTag": 1
                                    }
                                }
                            ],
                            "typeTag": 4
                        }
                    }
                ]
            }
        ]
    }
}