{
    "balance_change": {
        "balanceChanges": [
            {
                "account": "0xb5e8c25f34a84613229babf4d0899157d74568f9",
                "assets": [
                    {
                        "address": "0xdac17f958d2ee523a2206206994597c13d831ec7",
                        "amount": "270",
                        "iconUrl": "https://assets.blocksec.com/icon/fcea71f3193ce895be44bfdf941f7e4c9381dd587f273c2d1a27f1263d84e4ea.png",
                        "isERC1155": false,
                        "isERC721": false,
                        "sign": false,
                        "value": "270.1215"
                    }
                ]
            },
            {
                "account": "0xffacd619ac05713bdec138e7e7b3783767433822",
                "assets": [
                    {
                        "address": "0xdac17f958d2ee523a2206206994597c13d831ec7",
                        "amount": "270",
                        "iconUrl": "https://assets.blocksec.com/icon/fcea71f3193ce895be44bfdf941f7e4c9381dd587f273c2d1a27f1263d84e4ea.png",
                        "isERC1155": false,
                        "isERC721": false,
                        "sign": true,
                        "value": "270.1215"
                    }
                ]
            }
        ]
    },
    "profile": {
        "basic_info": {
            "baseFee": "",
            "blockNumber": 12004238,
            "callData": "0x0dcd7a6c000000000000000000000000ffacd619ac05713bdec138e7e7b3783767433822000000000000000000000000000000000000000000000000000000001017df80000000000000000000000000dac17f958d2ee523a2206206994597c13d831ec7000000000000000000000000000000000000000000000000000000006050a13f000000000000000000000000000000000000000000000000000000000000031e00000000000000000000000000000000000000000000000000000000000000c0000000000000000000000000000000000000000000000000000000000000004122bc5fef1b5d0662b385984e4e8fe21f79098cd441f199024bc011c8982776bf72add7c587a7b0193cfc33e7532530a3a301a551400092bde6eaab99c84026d41b00000000000000000000000000000000000000000000000000000000000000",
            "debugEnable": true,
            "errorInfo": "",
            "eventCount": 1,
            "feeRecipient": "0x5a0b54d5dc17e0aadc383d2db43b0a0d3e029c4c",
            "formatValue": "0",
            "gasLimit": 203336,
            "gasPrice": "157.3",
            "gasUsed": 103113,
            "intTxnCount": 2,
            "internalRevert": false,
            "internalRevertMessage": "",
            "isContractCreation": false,
            "isFlashloan": false,
            "maxFee": "",
            "nonce": 9922,
            "overwritedBlockNumber": -1,
            "priorityFee": "",
            "receiver": "0xb5e8c25f34a84613229babf4d0899157d74568f9",
            "revertMessage": "",
            "sender": "0x27d7f6147a8748454b88be685c2804f96bf69db1",
            "simulationEnable": true,
            "sourceTxnHash": "0x79305e6b0f4a52720868d042d2e29d5eca07ab19120d3b79cd893b6011fa830e",
            "status": true,
            "timestamp": "2021-03-09T12:15:09Z",
            "transactionFee": "0.0162196749",
            "txnHash": "0x79305e6b0f4a52720868d042d2e29d5eca07ab19120d3b79cd893b6011fa830e",
            "txnIndex": 1,
            "type": 0,
            "value": "0"
        },
        "fund_flow": [
            {
                "amount": "270",
                "from": "0xb5e8c25f34a84613229babf4d0899157d74568f9",
                "id": 1,
                "isERC1155": false,
                "isERC721": false,
                "isReverted": false,
                "order": 1,
                "to": "0xffacd619ac05713bdec138e7e7b3783767433822",
                "token": "0xdac17f958d2ee523a2206206994597c13d831ec7"
            }
        ],
        "token_infos": [
            {
                "address": "0xc02aaa39b223fe8d0a0e5c4f27ead9083c756cc2",
                "decimals": 18
            },
            {
                "address": "0xdac17f958d2ee523a2206206994597c13d831ec7",
                "decimals": 6
            },
            {
                "address": "0xeeeeeeeeeeeeeeeeeeeeeeeeeeeeeeeeeeeeeeee",
                "decimals": 18
            }
        ]
    },
    "address_label": {
        "labels": [
            {
                "address": "0xdac17f958d2ee523a2206206994597c13d831ec7",
                "label": "Tether: USDT Stablecoin"
            },
            {
                "address": "0xb5e8c25f34a84613229babf4d0899157d74568f9",
                "label": "Tokenize Xchange: MultiSig 4"
            },
            {
                "address": "0x0000000000000000000000000000000000000001",
                "label": "Precompiled"
            },
            {
                "address": "0x0000000000000000000000000000000000000002",
                "label": "Precompiled"
            },
            {
                "address": "0x0000000000000000000000000000000000000003",
                "label": "Precompiled"
            },
            {
                "address": "0x0000000000000000000000000000000000000004",
                "label": "Precompiled"
            },
            {
                "address": "0xeeeeeeeeeeeeeeeeeeeeeeeeeeeeeeeeeeeeeeee",
                "label": "Ether"
            }
        ]
    },
    "trace": {
        "accountLabels": null,
        "dataMap": {
            "-1": {
                "invocation": {
                    "address": "0x27d7f6147a8748454b88be685c2804f96bf69db1",
                    "callData": "",
                    "decodedMethod": null,
                    "errorInfo": "",
                    "fromAddress": "",
                    "gasUsed": 0,
                    "id": -1,
                    "methodDecoded": false,
                    "operation": "",
                    "output": "",
                    "revert": false,
                    "revertMessage": "",
                    "selector": "",
                    "status": false,
                    "value": ""
                },
                "nodeType": 0
            },
            "0": {
                "invocation": {
                    "address": "0xb5e8c25f34a84613229babf4d0899157d74568f9",
                    "callData": "0x000000000000000000000000ffacd619ac05713bdec138e7e7b3783767433822000000000000000000000000000000000000000000000000000000001017df80000000000000000000000000dac17f958d2ee523a2206206994597c13d831ec7000000000000000000000000000000000000000000000000000000006050a13f000000000000000000000000000000000000000000000000000000000000031e00000000000000000000000000000000000000000000000000000000000000c0000000000000000000000000000000000000000000000000000000000000004122bc5fef1b5d0662b385984e4e8fe21f79098cd441f199024bc011c8982776bf72add7c587a7b0193cfc33e7532530a3a301a551400092bde6eaab99c84026d41b00000000000000000000000000000000000000000000000000000000000000",
                    "decodedMethod": {
                        "callParams": [
                            {
                                "name": "toAddress",
                                "type": "address",
                                "value": "0xffacd619ac05713bdec138e7e7b3783767433822"
                            },
                            {
                                "name": "value",
                                "type": "uint256",
                                "value": "270,000,000"
                            },
                            {
                                "name": "tokenContractAddress",
                                "type": "address",
                                "value": "0xdac17f958d2ee523a2206206994597c13d831ec7"
                            },
                            {
                                "name": "expireTime",
                                "type": "uint256",
                                "value": "1,615,896,895"
                            },
                            {
                                "name": "sequenceId",
                                "type": "uint256",
                                "value": "798"
                            },
                            {
                                "name": "signature",
                                "type": "bytes",
                                "value": "0x22bc5fef1b5d0662b385984e4e8fe21f79098cd441f199024bc011c8982776bf72add7c587a7b0193cfc33e7532530a3a301a551400092bde6eaab99c84026d41b"
                            }
                        ],
                        "constructorArguments": "",
                        "name": "sendMultiSigToken",
                        "returnParams": [],
                        "signature": "sendMultiSigToken(address,uint256,address,uint256,uint256,bytes)"
                    },
                    "errorInfo": "",
                    "fromAddress": "0x27d7f6147a8748454b88be685c2804f96bf69db1",
                    "gasUsed": 103113,
                    "id": 0,
                    "methodDecoded": true,
                    "operation": "CALL",
                    "output": "",
                    "revert": false,
                    "revertMessage": "",
                    "selector": "0x0dcd7a6c",
                    "status": true,
                    "value": "0"
                },
                "nodeType": 0
            },
            "1": {
                "invocation": {
                    "address": "0x0000000000000000000000000000000000000001",
                    "callData": "0x828f69ecabaf7bc0f73ee6c4ffc9753c86177d567922dda21a77f662000000000000000000000000000000000000000000000000000000000000001b22bc5fef1b5d0662b385984e4e8fe21f79098cd441f199024bc011c8982776bf72add7c587a7b0193cfc33e7532530a3a301a551400092bde6eaab99c84026d4",
                    "decodedMethod": {
                        "callParams": [
                            {
                                "name": "hash",
                                "type": "bytes32",
                                "value": "0x519698fe828f69ecabaf7bc0f73ee6c4ffc9753c86177d567922dda21a77f662"
                            },
                            {
                                "name": "v",
                                "type": "uint256",
                                "value": "27"
                            },
                            {
                                "name": "r",
                                "type": "bytes32",
                                "value": "0x22bc5fef1b5d0662b385984e4e8fe21f79098cd441f199024bc011c8982776bf"
                            },
                            {
                                "name": "s",
                                "type": "bytes32",
                                "value": "0x72add7c587a7b0193cfc33e7532530a3a301a551400092bde6eaab99c84026d4"
                            }
                        ],
                        "constructorArguments": "",
                        "name": "ecrecover",
                        "returnParams": [
                            {
                                "name": "",
                                "type": "address",
                                "value": "0x2ce864984933f474d5efe42d2477a22f833b78e9"
                            }
                        ],
                        "signature": "ecrecover(bytes32,uint256,bytes32,bytes32)"
                    },
                    "errorInfo": "",
                    "fromAddress": "0xb5e8c25f34a84613229babf4d0899157d74568f9",
                    "gasUsed": 3000,
                    "id": 1,
                    "methodDecoded": true,
                    "operation": "CALL",
                    "output": "0x0000000000000000000000002ce864984933f474d5efe42d2477a22f833b78e9",
                    "revert": false,
                    "revertMessage": "",
                    "selector": "0x519698fe",
                    "status": true,
                    "value": "0"
                },
                "nodeType": 0
            },
            "2": {
                "invocation": {
                    "address": "0xdac17f958d2ee523a2206206994597c13d831ec7",
                    "callData": "0x000000000000000000000000ffacd619ac05713bdec138e7e7b3783767433822000000000000000000000000000000000000000000000000000000001017df80",
                    "decodedMethod": {
                        "callParams": [
                            {
                                "name": "_to",
                                "type": "address",
                                "value": "0xffacd619ac05713bdec138e7e7b3783767433822"
                            },
                            {
                                "decimalAvailable": true,
                                "name": "_value",
                                "type": "uint256",
                                "value": "270,000,000"
                            }
                        ],
                        "constructorArguments": "",
                        "name": "transfer",
                        "returnParams": [],
                        "signature": "transfer(address,uint256)"
                    },
                    "errorInfo": "",
                    "fromAddress": "0xb5e8c25f34a84613229babf4d0899157d74568f9",
                    "gasUsed": 19601,
                    "id": 2,
                    "methodDecoded": true,
                    "operation": "CALL",
                    "output": "",
                    "revert": false,
                    "revertMessage": "",
                    "selector": "0xa9059cbb",
                    "status": true,
                    "value": "0"
                },
                "nodeType": 0
            },
            "3": {
                "event": {
                    "contract": "0xdac17f958d2ee523a2206206994597c13d831ec7",
                    "decodedLog": {
                        "name": "Transfer",
                        "params": [
                            {
                                "name": "from",
                                "type": "address",
                                "value": "0xb5e8c25f34a84613229babf4d0899157d74568f9"
                            },
                            {
                                "name": "to",
                                "type": "address",
                                "value": "0xffacd619ac05713bdec138e7e7b3783767433822"
                            },
                            {
                                "decimalAvailable": true,
                                "name": "value",
                                "type": "uint256",
                                "value": "270,000,000"
                            }
                        ],
                        "signature": "Transfer(address,address,uint256)"
                    },
                    "id": 3,
                    "logData": "0x000000000000000000000000000000000000000000000000000000001017df80",
                    "logDecoded": true,
                    "operation": "EVENT",
                    "revert": false,
                    "status": true,
                    "topics": [
                        "0xddf252ad1be2c89b69c2b068fc378daa952ba7f163c4a11628f55a4df523b3ef",
                        "0x000000000000000000000000b5e8c25f34a84613229babf4d0899157d74568f9",
                        "0x000000000000000000000000ffacd619ac05713bdec138e7e7b3783767433822"
                    ]
                },
                "nodeType": 1
            }
        },
        "gasFlame": [
            {
                "children": [
                    {
                        "children": [
                            {
                                "children": [],
                                "depth": 0,
                                "name": "Initial Gas",
                                "value": 23736
                            },
                            {
                                "children": [
                                    {
                                        "children": [],
                                        "depth": 1,
                                        "name": "ecrecover",
                                        "value": 3000
                                    },
                                    {
                                        "children": [],
                                        "depth": 1,
                                        "name": "transfer",
                                        "value": 19601
                                    }
                                ],
                                "depth": 0,
                                "name": "Executed Gas",
                                "value": 79377
                            }
                        ],
                        "depth": -1,
                        "name": "Actual Gas Used",
                        "value": 103113
                    },
                    {
                        "children": [],
                        "depth": -1,
                        "name": "Refunded Gas",
                        "value": 0
                    }
                ],
                "depth": -2,
                "name": "Total Gas",
                "value": 103113
            }
        ],
        "isConfirmed": true,
        "mainTrace": [
            {
                "children": [
                    {
                        "children": [
                            {
                                "children": [],
                                "depth": 1,
                                "id": 1,
                                "order": 1
                            },
                            {
                                "children": [
                                    {
                                        "children": [],
                                        "depth": 2,
                                        "id": 3,
                                        "order": 3
                                    }
                                ],
                                "depth": 1,
                                "id": 2,
                                "order": 2
                            }
                        ],
                        "depth": 0,
                        "id": 0,
                        "order": 0
                    }
                ],
                "depth": -1,
                "id": -1,
                "order": -1
            }
        ],
        "mainTraceNodeCount": 4,
        "parentIdMap": {
            "0": -1,
            "1": 0,
            "2": 0,
            "3": 2
        },
        "tidyTrace": [
            {
                "children": [
                    {
                        "children": [
                            {
                                "children": [],
                                "depth": 1,
                                "id": 1,
                                "order": 1
                            },
                            {
                                "children": [
                                    {
                                        "children": [],
                                        "depth": 2,
                                        "id": 3,
                                        "order": 3
                                    }
                                ],
                                "depth": 1,
                                "id": 2,
                                "order": 2
                            }
                        ],
                        "depth": 0,
                        "id": 0,
                        "order": 0
                    }
                ],
                "depth": -1,
                "id": -1,
                "order": -1
            }
        ],
        "tidyTraceNodeCount": 4
    },
    "state_change": {
        "stateChanges": [
            {
                "address": "0xb5e8c25f34a84613229babf4d0899157d74568f9",
                "erc": "",
                "slots": [
                    {
                        "current": "0x000000000000000000000000000000000000000000000000000000000000031e",
                        "key": "0x0000000000000000000000000000000000000000000000000000000000000007",
                        "prev": "0x0000000000000000000000000000000000000000000000000000000000000314"
                    }
                ],
                "storageVariables": []
            },
            {
                "address": "0xdac17f958d2ee523a2206206994597c13d831ec7",
                "erc": "ERC-20",
                "slots": [
                    {
                        "current": "0x0000000000000000000000000000000000000000000000000000000eb2c1ed73",
                        "key": "0x8e4ac6cc839e108532c2ae221179fb7ff9e23d310de207c55f577c91fd5fff53",
                        "prev": "0x0000000000000000000000000000000000000000000000000000000ec2d9ccf3"
                    },
                    {
                        "current": "0x00000000000000000000000000000000000000000000000000000000660c4480",
                        "key": "0xf61b48d061c11f9023c89975d19b26449712e848d7bcd9056d69872d299ffd2c",
                        "prev": "0x0000000000000000000000000000000000000000000000000000000055f46500"
                    }
                ],
                "storageVariables": [
                    {
                        "name": "balances",
                        "type": "mapping(address => uint256)",
                        "value": {
                            "pairs": [
                                {
                                    "key": "0xb5e8c25f34a84613229babf4d0899157d74568f9",
                                    "value": {
                                        "current": "63128595827",
                                        "prev": "63398595827",
                                        "typeTag": 1
                                    }
                                },
                                {
                                    "key": "0xffacd619ac05713bdec138e7e7b3783767433822",
                                    "value": {
                                        "current": "1712080000",
                                        "prev": "1442080000",
                                        "typeTag": 1
                                    }
                                }
                            ],
                            "typeTag": 4
                        }
                    }
                ]
            }
        ]
    }
}