{
    "balance_change": {
        "balanceChanges": [
            {
                "account": "0x97f65059057e23e992d33ae6726cec2bbd0d1802",
                "assets": [
                    {
                        "address": "0xeeeeeeeeeeeeeeeeeeeeeeeeeeeeeeeeeeeeeeee",
                        "amount": "0.008",
                        "iconUrl": "https://assets.blocksec.com/image/1663669189317-3.png",
                        "isERC1155": false,
                        "isERC721": false,
                        "sign": false,
                        "value": "26.90888639999999941"
                    }
                ]
            },
            {
                "account": "0x40a50cf069e992aa4536211b23f286ef88752187",
                "assets": [
                    {
                        "address": "0xeeeeeeeeeeeeeeeeeeeeeeeeeeeeeeeeeeeeeeee",
                        "amount": "0.008",
                        "iconUrl": "https://assets.blocksec.com/image/1663669189317-3.png",
                        "isERC1155": false,
                        "isERC721": false,
                        "sign": true,
                        "value": "26.90888639999999941"
                    }
                ]
            }
        ]
    },
    "profile": {
        "basic_info": {
            "baseFee": "1.460655721",
            "blockNumber": 20201396,
            "callData": "0x322bba21000000000000000000000000073a3b3e890a3aaeb061e50e92fffdd31197870b00000000000000000000000097f65059057e23e992d33ae6726cec2bbd0d1802000000000000000000000000000000000000000000000000001c6bf5263400000000000000000000000000000000000000000000000000a9a59e1d86ab21d1e27d2071ba4cf65c4e58d9d983db00ab17bb02260812ee914a5c0ef66bcbccf68a0000000000000000000000000000000000000000000000000000000000000000000000000000000000000000000000000000000000000000000000006680c3e700000000000000000000000000000000000000000000000000000000000000000000000000000000000000000000000000000000000000000000000020b6bbbd",
            "debugEnable": true,
            "errorInfo": "",
            "eventCount": 1,
            "feeRecipient": "0x388c818ca8b9251b393131c08a736a67ccb19297",
            "formatValue": "0.008",
            "gasLimit": 68512,
            "gasPrice": "1.551444308",
            "gasUsed": 56288,
            "intTxnCount": 0,
            "internalRevert": false,
            "internalRevertMessage": "",
            "isContractCreation": false,
            "isFlashloan": false,
            "maxFee": "",
            "nonce": 266,
            "overwritedBlockNumber": -1,
            "priorityFee": "",
            "receiver": "0x40a50cf069e992aa4536211b23f286ef88752187",
            "revertMessage": "",
            "sender": "0x97f65059057e23e992d33ae6726cec2bbd0d1802",
            "simulationEnable": true,
            "sourceTxnHash": "0x796d036d7bf0958427381895f7d019fb90f1e61873b0deee9f286229e2938bdb",
            "status": true,
            "timestamp": "2024-06-30T02:03:35Z",
            "transactionFee": "0.000087327697208704",
            "txnHash": "0x796d036d7bf0958427381895f7d019fb90f1e61873b0deee9f286229e2938bdb",
            "txnIndex": 44,
            "type": 0,
            "value": "8000000000000000"
        },
        "fund_flow": [
            {
                "amount": "0.008",
                "from": "0x97f65059057e23e992d33ae6726cec2bbd0d1802",
                "id": 1,
                "isERC1155": false,
                "isERC721": false,
                "isReverted": false,
                "order": 1,
                "to": "0x40a50cf069e992aa4536211b23f286ef88752187",
                "token": "0xeeeeeeeeeeeeeeeeeeeeeeeeeeeeeeeeeeeeeeee"
            }
        ],
        "token_infos": [
            {
                "address": "0xc02aaa39b223fe8d0a0e5c4f27ead9083c756cc2",
                "decimals": 18
            },
            {
                "address": "0xeeeeeeeeeeeeeeeeeeeeeeeeeeeeeeeeeeeeeeee",
                "decimals": 18
            }
        ]
    },
    "address_label": {
        "labels": [
            {
                "address": "0x0000000000000000000000000000000000000004",
                "label": "Precompiled"
            },
            {
                "address": "0xeeeeeeeeeeeeeeeeeeeeeeeeeeeeeeeeeeeeeeee",
                "label": "Ether"
            },
            {
                "address": "0x40a50cf069e992aa4536211b23f286ef88752187",
                "label": "CoW Protocol: Eth Flow"
            },
            {
                "address": "0x073a3b3e890a3aaeb061e50e92fffdd31197870b",
                "label": "Jeffry: JEFFRY Token"
            },
            {
                "address": "0x388c818ca8b9251b393131c08a736a67ccb19297",
                "label": "LidoExecutionLayerRewardsVault"
            },
            {
                "address": "0x0000000000000000000000000000000000000001",
                "label": "Precompiled"
            },
            {
                "address": "0x0000000000000000000000000000000000000002",
                "label": "Precompiled"
            },
            {
                "address": "0x0000000000000000000000000000000000000003",
                "label": "Precompiled"
            }
        ]
    },
    "trace": {
        "accountLabels": null,
        "dataMap": {
            "-1": {
                "invocation": {
                    "address": "0x97f65059057e23e992d33ae6726cec2bbd0d1802",
                    "callData": "",
                    "decodedMethod": null,
                    "errorInfo": "",
                    "fromAddress": "",
                    "gasUsed": 0,
                    "id": -1,
                    "methodDecoded": false,
                    "operation": "",
                    "output": "",
                    "revert": false,
                    "revertMessage": "",
                    "selector": "",
                    "status": false,
                    "value": ""
                },
                "nodeType": 0
            },
            "0": {
                "invocation": {
                    "address": "0x40a50cf069e992aa4536211b23f286ef88752187",
                    "callData": "0x000000000000000000000000073a3b3e890a3aaeb061e50e92fffdd31197870b00000000000000000000000097f65059057e23e992d33ae6726cec2bbd0d1802000000000000000000000000000000000000000000000000001c6bf5263400000000000000000000000000000000000000000000000000a9a59e1d86ab21d1e27d2071ba4cf65c4e58d9d983db00ab17bb02260812ee914a5c0ef66bcbccf68a0000000000000000000000000000000000000000000000000000000000000000000000000000000000000000000000000000000000000000000000006680c3e700000000000000000000000000000000000000000000000000000000000000000000000000000000000000000000000000000000000000000000000020b6bbbd",
                    "decodedMethod": {
                        "callParams": [
                            {
                                "name": "order",
                                "type": "(address,address,uint256,uint256,bytes32,uint256,uint32,bool,int64)",
                                "value": [
                                    {
                                        "name": "buyToken",
                                        "type": "address",
                                        "value": "0x073a3b3e890a3aaeb061e50e92fffdd31197870b"
                                    },
                                    {
                                        "name": "receiver",
                                        "type": "address",
                                        "value": "0x97f65059057e23e992d33ae6726cec2bbd0d1802"
                                    },
                                    {
                                        "name": "sellAmount",
                                        "type": "uint256",
                                        "value": "8,000,000,000,000,000"
                                    },
                                    {
                                        "name": "buyAmount",
                                        "type": "uint256",
                                        "value": "3,129,433,756,983,726,559,714"
                                    },
                                    {
                                        "name": "appData",
                                        "type": "bytes32",
                                        "value": "0x7d2071ba4cf65c4e58d9d983db00ab17bb02260812ee914a5c0ef66bcbccf68a"
                                    },
                                    {
                                        "name": "feeAmount",
                                        "type": "uint256",
                                        "value": "0"
                                    },
                                    {
                                        "name": "validTo",
                                        "type": "uint32",
                                        "value": "1,719,714,791"
                                    },
                                    {
                                        "name": "partiallyFillable",
                                        "type": "bool",
                                        "value": false
                                    },
                                    {
                                        "name": "quoteId",
                                        "type": "int64",
                                        "value": "548,846,525"
                                    }
                                ]
                            }
                        ],
                        "constructorArguments": "",
                        "name": "createOrder",
                        "returnParams": [
                            {
                                "name": "orderHash",
                                "type": "bytes32",
                                "value": "0xcebcb9b3eff2b9668fbcb169eeb04c0b7406073e23fd376855d822ffa7a3855e"
                            }
                        ],
                        "signature": "createOrder((address,address,uint256,uint256,bytes32,uint256,uint32,bool,int64))"
                    },
                    "errorInfo": "",
                    "fromAddress": "0x97f65059057e23e992d33ae6726cec2bbd0d1802",
                    "gasUsed": 56288,
                    "id": 0,
                    "methodDecoded": true,
                    "operation": "CALL",
                    "output": "0xcebcb9b3eff2b9668fbcb169eeb04c0b7406073e23fd376855d822ffa7a3855e",
                    "revert": false,
                    "revertMessage": "",
                    "selector": "0x322bba21",
                    "status": true,
                    "value": "0.008"
                },
                "nodeType": 0
            },
            "1": {
                "event": {
                    "contract": "0x40a50cf069e992aa4536211b23f286ef88752187",
                    "decodedLog": {
                        "name": "OrderPlacement",
                        "params": [
                            {
                                "name": "sender",
                                "type": "address",
                                "value": "0x97f65059057e23e992d33ae6726cec2bbd0d1802"
                            },
                            {
                                "name": "order",
                                "type": "(address,address,address,uint256,uint256,uint32,bytes32,uint256,bytes32,bool,bytes32,bytes32)",
                                "value": [
                                    {
                                        "name": "sellToken",
                                        "type": "address",
                                        "value": "0xc02aaa39b223fe8d0a0e5c4f27ead9083c756cc2"
                                    },
                                    {
                                        "name": "buyToken",
                                        "type": "address",
                                        "value": "0x073a3b3e890a3aaeb061e50e92fffdd31197870b"
                                    },
                                    {
                                        "name": "receiver",
                                        "type": "address",
                                        "value": "0x97f65059057e23e992d33ae6726cec2bbd0d1802"
                                    },
                                    {
                                        "name": "sellAmount",
                                        "type": "uint256",
                                        "value": "8,000,000,000,000,000"
                                    },
                                    {
                                        "name": "buyAmount",
                                        "type": "uint256",
                                        "value": "3,129,433,756,983,726,559,714"
                                    },
                                    {
                                        "name": "validTo",
                                        "type": "uint32",
                                        "value": "4,294,967,295"
                                    },
                                    {
                                        "name": "appData",
                                        "type": "bytes32",
                                        "value": "0x7d2071ba4cf65c4e58d9d983db00ab17bb02260812ee914a5c0ef66bcbccf68a"
                                    },
                                    {
                                        "name": "feeAmount",
                                        "type": "uint256",
                                        "value": "0"
                                    },
                                    {
                                        "name": "kind",
                                        "type": "bytes32",
                                        "value": "0xf3b277728b3fee749481eb3e0b3b48980dbbab78658fc419025cb16eee346775"
                                    },
                                    {
                                        "name": "partiallyFillable",
                                        "type": "bool",
                                        "value": false
                                    },
                                    {
                                        "name": "sellTokenBalance",
                                        "type": "bytes32",
                                        "value": "0x5a28e9363bb942b639270062aa6bb295f434bcdfc42c97267bf003f272060dc9"
                                    },
                                    {
                                        "name": "buyTokenBalance",
                                        "type": "bytes32",
                                        "value": "0x5a28e9363bb942b639270062aa6bb295f434bcdfc42c97267bf003f272060dc9"
                                    }
                                ]
                            },
                            {
                                "name": "signature",
                                "type": "(uint8,bytes)",
                                "value": [
                                    {
                                        "name": "scheme",
                                        "type": "uint8",
                                        "value": "0"
                                    },
                                    {
                                        "name": "data",
                                        "type": "bytes",
                                        "value": "0x40a50cf069e992aa4536211b23f286ef88752187"
                                    }
                                ]
                            },
                            {
                                "name": "data",
                                "type": "bytes",
                                "value": "0x0000000020b6bbbd6680c3e7"
                            }
                        ],
                        "signature": "OrderPlacement(address,(address,address,address,uint256,uint256,uint32,bytes32,uint256,bytes32,bool,bytes32,bytes32),(uint8,bytes),bytes)"
                    },
                    "id": 1,
                    "logData": "0x000000000000000000000000c02aaa39b223fe8d0a0e5c4f27ead9083c756cc2000000000000000000000000073a3b3e890a3aaeb061e50e92fffdd31197870b00000000000000000000000097f65059057e23e992d33ae6726cec2bbd0d1802000000000000000000000000000000000000000000000000001c6bf5263400000000000000000000000000000000000000000000000000a9a59e1d86ab21d1e200000000000000000000000000000000000000000000000000000000ffffffff7d2071ba4cf65c4e58d9d983db00ab17bb02260812ee914a5c0ef66bcbccf68a0000000000000000000000000000000000000000000000000000000000000000f3b277728b3fee749481eb3e0b3b48980dbbab78658fc419025cb16eee34677500000000000000000000000000000000000000000000000000000000000000005a28e9363bb942b639270062aa6bb295f434bcdfc42c97267bf003f272060dc95a28e9363bb942b639270062aa6bb295f434bcdfc42c97267bf003f272060dc900000000000000000000000000000000000000000000000000000000000001c0000000000000000000000000000000000000000000000000000000000000024000000000000000000000000000000000000000000000000000000000000000000000000000000000000000000000000000000000000000000000000000000040000000000000000000000000000000000000000000000000000000000000001440a50cf069e992aa4536211b23f286ef88752187000000000000000000000000000000000000000000000000000000000000000000000000000000000000000c0000000020b6bbbd6680c3e70000000000000000000000000000000000000000",
                    "logDecoded": true,
                    "operation": "EVENT",
                    "revert": false,
                    "status": true,
                    "topics": [
                        "0xcf5f9de2984132265203b5c335b25727702ca77262ff622e136baa7362bf1da9",
                        "0x00000000000000000000000097f65059057e23e992d33ae6726cec2bbd0d1802"
                    ]
                },
                "nodeType": 1
            }
        },
        "gasFlame": [
            {
                "children": [
                    {
                        "children": [
                            {
                                "children": [],
                                "depth": 0,
                                "name": "Initial Gas",
                                "value": 23332
                            },
                            {
                                "children": [],
                                "depth": 0,
                                "name": "Executed Gas",
                                "value": 32956
                            }
                        ],
                        "depth": -1,
                        "name": "Actual Gas Used",
                        "value": 56288
                    },
                    {
                        "children": [],
                        "depth": -1,
                        "name": "Refunded Gas",
                        "value": 0
                    }
                ],
                "depth": -2,
                "name": "Total Gas",
                "value": 56288
            }
        ],
        "isConfirmed": true,
        "mainTrace": [
            {
                "children": [
                    {
                        "children": [
                            {
                                "children": [],
                                "depth": 1,
                                "id": 1,
                                "order": 1
                            }
                        ],
                        "depth": 0,
                        "id": 0,
                        "order": 0
                    }
                ],
                "depth": -1,
                "id": -1,
                "order": -1
            }
        ],
        "mainTraceNodeCount": 2,
        "parentIdMap": {
            "0": -1,
            "1": 0
        },
        "tidyTrace": [
            {
                "children": [
                    {
                        "children": [
                            {
                                "children": [],
                                "depth": 1,
                                "id": 1,
                                "order": 1
                            }
                        ],
                        "depth": 0,
                        "id": 0,
                        "order": 0
                    }
                ],
                "depth": -1,
                "id": -1,
                "order": -1
            }
        ],
        "tidyTraceNodeCount": 2
    },
    "state_change": {
        "stateChanges": [
            {
                "address": "0x40a50cf069e992aa4536211b23f286ef88752187",
                "erc": "",
                "slots": [
                    {
                        "current": "0x00000000000000006680c3e797f65059057e23e992d33ae6726cec2bbd0d1802",
                        "key": "0x8b5e831eb8ee99653bf6fd708090008205fa9e4bcef91e7131ccab919c9d846f",
                        "prev": "0x0000000000000000000000000000000000000000000000000000000000000000"
                    }
                ],
                "storageVariables": [
                    {
                        "name": "orders",
                        "type": "mapping(bytes32 => struct EthFlowOrder.OnchainData)",
                        "value": {
                            "pairs": [
                                {
                                    "key": "0xcebcb9b3eff2b9668fbcb169eeb04c0b7406073e23fd376855d822ffa7a3855e",
                                    "value": {
                                        "fields": [
                                            {
                                                "name": "owner",
                                                "type": "address",
                                                "value": {
                                                    "current": "0x97f65059057e23e992d33ae6726cec2bbd0d1802",
                                                    "prev": "0x0000000000000000000000000000000000000000",
                                                    "typeTag": 1
                                                }
                                            },
                                            {
                                                "name": "validTo",
                                                "type": "uint32",
                                                "value": {
                                                    "current": "1719714791",
                                                    "prev": "0",
                                                    "typeTag": 1
                                                }
                                            }
                                        ],
                                        "typeTag": 3
                                    }
                                }
                            ],
                            "typeTag": 4
                        }
                    }
                ]
            }
        ]
    }
}