{
    "balance_change": {
        "balanceChanges": []
    },
    "profile": {
        "basic_info": {
            "baseFee": "",
            "blockNumber": 4384845,
            "callData": "0x3fedcc31000000000000000000000000000000003b4ba05d791d44e797fa6852764c1879000000000000000000000000a36ae0f959046a18d109dc5b1fb8df655cf0aa81000000000000000000000000ad66ece9bf8c71870aecdaf01b06dcf4b3c2f579000000000000000000000000f77e0c2348bc119f30708343a8865d44e3cfb0b9000000000000000000000000000000000000000000000000016345785d8a000000000000000000000000000000000000000000000000000000000000000000e000000000000000000000000000000000000000000000000000000000000001600000000000000000000000000000000000000000000000000000000000000041324e67ff127ef83b36dc4804b6b1777543ad5a452c088ec54e863d7572f656ac69f8dc151e2ee82696e8b3b1e1ddb863c072a0216667c7816cb71a6b4137828f1c0000000000000000000000000000000000000000000000000000000000000000000000000000000000000000000000000000000000000000000000000000000000000000000000000000000000000000000000000000000000000000000000",
            "debugEnable": true,
            "errorInfo": "",
            "eventCount": 1,
            "feeRecipient": "0xea674fdde714fd979de3edf0f56aa9716b898ec8",
            "formatValue": "0",
            "gasLimit": 200000,
            "gasPrice": "25",
            "gasUsed": 74180,
            "intTxnCount": 2,
            "internalRevert": false,
            "internalRevertMessage": "",
            "isContractCreation": false,
            "isFlashloan": false,
            "maxFee": "",
            "nonce": 57425,
            "overwritedBlockNumber": -1,
            "priorityFee": "",
            "receiver": "0x7ddf4ed06fe5ecc646fad19d257cd3f05a884d70",
            "revertMessage": "",
            "sender": "0xf2015a9160c9c9381ff99f19fc18e5af57cac8ed",
            "simulationEnable": true,
            "sourceTxnHash": "0x79dc33540a7d2cf72e1610412b1b739f32e41fa677631e3e6b109445faa55e26",
            "status": true,
            "timestamp": "2017-10-18T19:03:02Z",
            "transactionFee": "0.0018545",
            "txnHash": "0x79dc33540a7d2cf72e1610412b1b739f32e41fa677631e3e6b109445faa55e26",
            "txnIndex": 6,
            "type": 0,
            "value": "0"
        },
        "fund_flow": [],
        "token_infos": [
            {
                "address": "0xc02aaa39b223fe8d0a0e5c4f27ead9083c756cc2",
                "decimals": 18
            },
            {
                "address": "0xeeeeeeeeeeeeeeeeeeeeeeeeeeeeeeeeeeeeeeee",
                "decimals": 18
            }
        ]
    },
    "address_label": {
        "labels": [
            {
                "address": "0xeeeeeeeeeeeeeeeeeeeeeeeeeeeeeeeeeeeeeeee",
                "label": "Ether"
            },
            {
                "address": "0xf2015a9160c9c9381ff99f19fc18e5af57cac8ed",
                "label": "Lykke: Deployer"
            },
            {
                "address": "0x0000000000000000000000000000000000000001",
                "label": "Precompiled"
            },
            {
                "address": "0x0000000000000000000000000000000000000002",
                "label": "Precompiled"
            },
            {
                "address": "0x0000000000000000000000000000000000000003",
                "label": "Precompiled"
            },
            {
                "address": "0x0000000000000000000000000000000000000004",
                "label": "Precompiled"
            }
        ]
    },
    "trace": {
        "accountLabels": null,
        "dataMap": {
            "-1": {
                "invocation": {
                    "address": "0xf2015a9160c9c9381ff99f19fc18e5af57cac8ed",
                    "callData": "",
                    "decodedMethod": null,
                    "errorInfo": "",
                    "fromAddress": "",
                    "gasUsed": 0,
                    "id": -1,
                    "methodDecoded": false,
                    "operation": "",
                    "output": "",
                    "revert": false,
                    "revertMessage": "",
                    "selector": "",
                    "status": false,
                    "value": ""
                },
                "nodeType": 0
            },
            "0": {
                "invocation": {
                    "address": "0x7ddf4ed06fe5ecc646fad19d257cd3f05a884d70",
                    "callData": "0x000000000000000000000000000000003b4ba05d791d44e797fa6852764c1879000000000000000000000000a36ae0f959046a18d109dc5b1fb8df655cf0aa81000000000000000000000000ad66ece9bf8c71870aecdaf01b06dcf4b3c2f579000000000000000000000000f77e0c2348bc119f30708343a8865d44e3cfb0b9000000000000000000000000000000000000000000000000016345785d8a000000000000000000000000000000000000000000000000000000000000000000e000000000000000000000000000000000000000000000000000000000000001600000000000000000000000000000000000000000000000000000000000000041324e67ff127ef83b36dc4804b6b1777543ad5a452c088ec54e863d7572f656ac69f8dc151e2ee82696e8b3b1e1ddb863c072a0216667c7816cb71a6b4137828f1c0000000000000000000000000000000000000000000000000000000000000000000000000000000000000000000000000000000000000000000000000000000000000000000000000000000000000000000000000000000000000000000000",
                    "decodedMethod": null,
                    "errorInfo": "",
                    "fromAddress": "0xf2015a9160c9c9381ff99f19fc18e5af57cac8ed",
                    "gasUsed": 74180,
                    "id": 0,
                    "methodDecoded": false,
                    "operation": "CALL",
                    "output": "",
                    "revert": false,
                    "revertMessage": "",
                    "selector": "0x3fedcc31",
                    "status": true,
                    "value": "0"
                },
                "nodeType": 0
            },
            "1": {
                "invocation": {
                    "address": "0x0000000000000000000000000000000000000001",
                    "callData": "0x006178dd020b4e4825e0afae191b8e5fb52f8549255ce71e20e76d59000000000000000000000000000000000000000000000000000000000000001c324e67ff127ef83b36dc4804b6b1777543ad5a452c088ec54e863d7572f656ac69f8dc151e2ee82696e8b3b1e1ddb863c072a0216667c7816cb71a6b4137828f",
                    "decodedMethod": {
                        "callParams": [
                            {
                                "name": "hash",
                                "type": "bytes32",
                                "value": "0x89488f6f006178dd020b4e4825e0afae191b8e5fb52f8549255ce71e20e76d59"
                            },
                            {
                                "name": "v",
                                "type": "uint256",
                                "value": "28"
                            },
                            {
                                "name": "r",
                                "type": "bytes32",
                                "value": "0x324e67ff127ef83b36dc4804b6b1777543ad5a452c088ec54e863d7572f656ac"
                            },
                            {
                                "name": "s",
                                "type": "bytes32",
                                "value": "0x69f8dc151e2ee82696e8b3b1e1ddb863c072a0216667c7816cb71a6b4137828f"
                            }
                        ],
                        "constructorArguments": "",
                        "name": "ecrecover",
                        "returnParams": [
                            {
                                "name": "",
                                "type": "address",
                                "value": "0xad66ece9bf8c71870aecdaf01b06dcf4b3c2f579"
                            }
                        ],
                        "signature": "ecrecover(bytes32,uint256,bytes32,bytes32)"
                    },
                    "errorInfo": "",
                    "fromAddress": "0x7ddf4ed06fe5ecc646fad19d257cd3f05a884d70",
                    "gasUsed": 3000,
                    "id": 1,
                    "methodDecoded": true,
                    "operation": "CALL",
                    "output": "0x000000000000000000000000ad66ece9bf8c71870aecdaf01b06dcf4b3c2f579",
                    "revert": false,
                    "revertMessage": "",
                    "selector": "0x89488f6f",
                    "status": true,
                    "value": "0"
                },
                "nodeType": 0
            },
            "2": {
                "invocation": {
                    "address": "0xa36ae0f959046a18d109dc5b1fb8df655cf0aa81",
                    "callData": "0x000000000000000000000000ad66ece9bf8c71870aecdaf01b06dcf4b3c2f579000000000000000000000000f77e0c2348bc119f30708343a8865d44e3cfb0b9000000000000000000000000000000000000000000000000016345785d8a0000",
                    "decodedMethod": {
                        "callParams": [
                            {
                                "name": "_contract",
                                "type": "address",
                                "value": "0xad66ece9bf8c71870aecdaf01b06dcf4b3c2f579"
                            },
                            {
                                "name": "_to",
                                "type": "address",
                                "value": "0xf77e0c2348bc119f30708343a8865d44e3cfb0b9"
                            },
                            {
                                "name": "_amount",
                                "type": "uint256",
                                "value": "100,000,000,000,000,000"
                            }
                        ],
                        "constructorArguments": "",
                        "name": "transferMultisig",
                        "returnParams": [],
                        "signature": "transferMultisig(address,address,uint256)"
                    },
                    "errorInfo": "",
                    "fromAddress": "0x7ddf4ed06fe5ecc646fad19d257cd3f05a884d70",
                    "gasUsed": 13610,
                    "id": 2,
                    "methodDecoded": true,
                    "operation": "CALL",
                    "output": "",
                    "revert": false,
                    "revertMessage": "",
                    "selector": "0x6ba2aefc",
                    "status": true,
                    "value": "0"
                },
                "nodeType": 0
            },
            "3": {
                "event": {
                    "contract": "0xa36ae0f959046a18d109dc5b1fb8df655cf0aa81",
                    "decodedLog": null,
                    "id": 3,
                    "logData": "0x0000000000000000000000007ddf4ed06fe5ecc646fad19d257cd3f05a884d70000000000000000000000000ad66ece9bf8c71870aecdaf01b06dcf4b3c2f579000000000000000000000000f77e0c2348bc119f30708343a8865d44e3cfb0b9000000000000000000000000000000000000000000000000016345785d8a0000",
                    "logDecoded": false,
                    "operation": "EVENT",
                    "revert": false,
                    "status": true,
                    "topics": [
                        "0xad61cab1dd9ce7c4095cf8876c832e5400db787afab09d55b74b8c75dcd6538c"
                    ]
                },
                "nodeType": 1
            }
        },
        "gasFlame": [
            {
                "children": [
                    {
                        "children": [
                            {
                                "children": [],
                                "depth": 0,
                                "name": "Initial Gas",
                                "value": 32600
                            },
                            {
                                "children": [
                                    {
                                        "children": [],
                                        "depth": 1,
                                        "name": "ecrecover",
                                        "value": 3000
                                    },
                                    {
                                        "children": [],
                                        "depth": 1,
                                        "name": "transferMultisig",
                                        "value": 13610
                                    }
                                ],
                                "depth": 0,
                                "name": "Executed Gas",
                                "value": 41580
                            }
                        ],
                        "depth": -1,
                        "name": "Actual Gas Used",
                        "value": 74180
                    },
                    {
                        "children": [],
                        "depth": -1,
                        "name": "Refunded Gas",
                        "value": 0
                    }
                ],
                "depth": -2,
                "name": "Total Gas",
                "value": 74180
            }
        ],
        "isConfirmed": true,
        "mainTrace": [
            {
                "children": [
                    {
                        "children": [
                            {
                                "children": [],
                                "depth": 1,
                                "id": 1,
                                "order": 1
                            },
                            {
                                "children": [
                                    {
                                        "children": [],
                                        "depth": 2,
                                        "id": 3,
                                        "order": 3
                                    }
                                ],
                                "depth": 1,
                                "id": 2,
                                "order": 2
                            }
                        ],
                        "depth": 0,
                        "id": 0,
                        "order": 0
                    }
                ],
                "depth": -1,
                "id": -1,
                "order": -1
            }
        ],
        "mainTraceNodeCount": 4,
        "parentIdMap": {
            "0": -1,
            "1": 0,
            "2": 0,
            "3": 2
        },
        "tidyTrace": [
            {
                "children": [
                    {
                        "children": [
                            {
                                "children": [],
                                "depth": 1,
                                "id": 1,
                                "order": 1
                            },
                            {
                                "children": [
                                    {
                                        "children": [],
                                        "depth": 2,
                                        "id": 3,
                                        "order": 3
                                    }
                                ],
                                "depth": 1,
                                "id": 2,
                                "order": 2
                            }
                        ],
                        "depth": 0,
                        "id": 0,
                        "order": 0
                    }
                ],
                "depth": -1,
                "id": -1,
                "order": -1
            }
        ],
        "tidyTraceNodeCount": 4
    },
    "state_change": {
        "stateChanges": [
            {
                "address": "0x7ddf4ed06fe5ecc646fad19d257cd3f05a884d70",
                "erc": "",
                "slots": [
                    {
                        "current": "0x0000000000000000000000000000000000000000000000000000000000000001",
                        "key": "0x07c37f8c67e5b7219b59896b5cf953268bb4db47461945b2a3a2916bdcc57328",
                        "prev": "0x0000000000000000000000000000000000000000000000000000000000000000"
                    }
                ],
                "storageVariables": []
            },
            {
                "address": "0xa36ae0f959046a18d109dc5b1fb8df655cf0aa81",
                "erc": "",
                "slots": [
                    {
                        "current": "0x0000000000000000000000000000000000000000000000914cc0b0f19ae24379",
                        "key": "0x06b5758ede2e050e1a210c5003ba90d9f1d9ecc8320b4d8f665ef200f04bd8b2",
                        "prev": "0x0000000000000000000000000000000000000000000000914e23f669f86c4379"
                    },
                    {
                        "current": "0x000000000000000000000000000000000000000000000000075af03122f50000",
                        "key": "0x027d5fd6aa1da09b18713987083ccbcb42a04d3ea70e0f68e265a7357b026896",
                        "prev": "0x00000000000000000000000000000000000000000000000005f7aab8c56b0000"
                    }
                ],
                "storageVariables": []
            }
        ]
    }
}