{
    "balance_change": {
        "balanceChanges": [
            {
                "account": "0x76eb7ff7810d67e6e885af95bc7449a49bd1db48",
                "assets": [
                    {
                        "address": "0x70447f1579ec2d6007f99753427794a466c16f4d",
                        "amount": "169.82361199999998",
                        "iconUrl": "",
                        "isERC1155": false,
                        "isERC721": false,
                        "sign": false,
                        "value": ""
                    }
                ]
            },
            {
                "account": "0xef91298e3b523778242bddc36a0438eea70c35ea",
                "assets": [
                    {
                        "address": "0x70447f1579ec2d6007f99753427794a466c16f4d",
                        "amount": "169.82361199999998",
                        "iconUrl": "",
                        "isERC1155": false,
                        "isERC721": false,
                        "sign": true,
                        "value": ""
                    }
                ]
            }
        ]
    },
    "profile": {
        "basic_info": {
            "baseFee": "",
            "blockNumber": 9809381,
            "callData": "0xa9059cbb000000000000000000000000ef91298e3b523778242bddc36a0438eea70c35ea00000000000000000000000000000000000000000000000934c6ab5995c371e0",
            "debugEnable": true,
            "errorInfo": "",
            "eventCount": 1,
            "feeRecipient": "0xea674fdde714fd979de3edf0f56aa9716b898ec8",
            "formatValue": "0",
            "gasLimit": 60000,
            "gasPrice": "11",
            "gasUsed": 51757,
            "intTxnCount": 0,
            "internalRevert": false,
            "internalRevertMessage": "",
            "isContractCreation": false,
            "isFlashloan": false,
            "maxFee": "",
            "nonce": 19357,
            "overwritedBlockNumber": -1,
            "priorityFee": "",
            "receiver": "0x70447f1579ec2d6007f99753427794a466c16f4d",
            "revertMessage": "",
            "sender": "0x76eb7ff7810d67e6e885af95bc7449a49bd1db48",
            "simulationEnable": true,
            "sourceTxnHash": "0x7986aed74bd700ae410e7e27442a412f6df351bbb7a34ef159fb6a84197b2a95",
            "status": true,
            "timestamp": "2020-04-05T02:39:19Z",
            "transactionFee": "0.000569327",
            "txnHash": "0x7986aed74bd700ae410e7e27442a412f6df351bbb7a34ef159fb6a84197b2a95",
            "txnIndex": 28,
            "type": 0,
            "value": "0"
        },
        "fund_flow": [
            {
                "amount": "169.82361199999998",
                "from": "0x76eb7ff7810d67e6e885af95bc7449a49bd1db48",
                "id": 1,
                "isERC1155": false,
                "isERC721": false,
                "isReverted": false,
                "order": 1,
                "to": "0xef91298e3b523778242bddc36a0438eea70c35ea",
                "token": "0x70447f1579ec2d6007f99753427794a466c16f4d"
            }
        ],
        "token_infos": [
            {
                "address": "0x70447f1579ec2d6007f99753427794a466c16f4d",
                "decimals": 18
            },
            {
                "address": "0xc02aaa39b223fe8d0a0e5c4f27ead9083c756cc2",
                "decimals": 18
            },
            {
                "address": "0xeeeeeeeeeeeeeeeeeeeeeeeeeeeeeeeeeeeeeeee",
                "decimals": 18
            }
        ]
    },
    "address_label": {
        "labels": [
            {
                "address": "0x0000000000000000000000000000000000000004",
                "label": "Precompiled"
            },
            {
                "address": "0xeeeeeeeeeeeeeeeeeeeeeeeeeeeeeeeeeeeeeeee",
                "label": "Ether"
            },
            {
                "address": "0x70447f1579ec2d6007f99753427794a466c16f4d",
                "label": "PCP (PCP)"
            },
            {
                "address": "0x0000000000000000000000000000000000000001",
                "label": "Precompiled"
            },
            {
                "address": "0x0000000000000000000000000000000000000002",
                "label": "Precompiled"
            },
            {
                "address": "0x0000000000000000000000000000000000000003",
                "label": "Precompiled"
            }
        ]
    },
    "trace": {
        "accountLabels": null,
        "dataMap": {
            "-1": {
                "invocation": {
                    "address": "0x76eb7ff7810d67e6e885af95bc7449a49bd1db48",
                    "callData": "",
                    "decodedMethod": null,
                    "errorInfo": "",
                    "fromAddress": "",
                    "gasUsed": 0,
                    "id": -1,
                    "methodDecoded": false,
                    "operation": "",
                    "output": "",
                    "revert": false,
                    "revertMessage": "",
                    "selector": "",
                    "status": false,
                    "value": ""
                },
                "nodeType": 0
            },
            "0": {
                "invocation": {
                    "address": "0x70447f1579ec2d6007f99753427794a466c16f4d",
                    "callData": "0x000000000000000000000000ef91298e3b523778242bddc36a0438eea70c35ea00000000000000000000000000000000000000000000000934c6ab5995c371e0",
                    "decodedMethod": {
                        "callParams": [
                            {
                                "name": "_to",
                                "type": "address",
                                "value": "0xef91298e3b523778242bddc36a0438eea70c35ea"
                            },
                            {
                                "decimalAvailable": true,
                                "name": "_value",
                                "type": "uint256",
                                "value": "169,823,611,999,999,980,000"
                            }
                        ],
                        "constructorArguments": "",
                        "name": "transfer",
                        "returnParams": [
                            {
                                "name": "success",
                                "type": "bool",
                                "value": true
                            }
                        ],
                        "signature": "transfer(address,uint256)"
                    },
                    "errorInfo": "",
                    "fromAddress": "0x76eb7ff7810d67e6e885af95bc7449a49bd1db48",
                    "gasUsed": 51757,
                    "id": 0,
                    "methodDecoded": true,
                    "operation": "CALL",
                    "output": "0x0000000000000000000000000000000000000000000000000000000000000001",
                    "revert": false,
                    "revertMessage": "",
                    "selector": "0xa9059cbb",
                    "status": true,
                    "value": "0"
                },
                "nodeType": 0
            },
            "1": {
                "event": {
                    "contract": "0x70447f1579ec2d6007f99753427794a466c16f4d",
                    "decodedLog": {
                        "name": "Transfer",
                        "params": [
                            {
                                "name": "_from",
                                "type": "address",
                                "value": "0x76eb7ff7810d67e6e885af95bc7449a49bd1db48"
                            },
                            {
                                "name": "_to",
                                "type": "address",
                                "value": "0xef91298e3b523778242bddc36a0438eea70c35ea"
                            },
                            {
                                "decimalAvailable": true,
                                "name": "_value",
                                "type": "uint256",
                                "value": "169,823,611,999,999,980,000"
                            }
                        ],
                        "signature": "Transfer(address,address,uint256)"
                    },
                    "id": 1,
                    "logData": "0x00000000000000000000000000000000000000000000000934c6ab5995c371e0",
                    "logDecoded": true,
                    "operation": "EVENT",
                    "revert": false,
                    "status": true,
                    "topics": [
                        "0xddf252ad1be2c89b69c2b068fc378daa952ba7f163c4a11628f55a4df523b3ef",
                        "0x00000000000000000000000076eb7ff7810d67e6e885af95bc7449a49bd1db48",
                        "0x000000000000000000000000ef91298e3b523778242bddc36a0438eea70c35ea"
                    ]
                },
                "nodeType": 1
            }
        },
        "gasFlame": [
            {
                "children": [
                    {
                        "children": [
                            {
                                "children": [],
                                "depth": 0,
                                "name": "Initial Gas",
                                "value": 21668
                            },
                            {
                                "children": [],
                                "depth": 0,
                                "name": "Executed Gas",
                                "value": 30089
                            }
                        ],
                        "depth": -1,
                        "name": "Actual Gas Used",
                        "value": 51757
                    },
                    {
                        "children": [],
                        "depth": -1,
                        "name": "Refunded Gas",
                        "value": 0
                    }
                ],
                "depth": -2,
                "name": "Total Gas",
                "value": 51757
            }
        ],
        "isConfirmed": true,
        "mainTrace": [
            {
                "children": [
                    {
                        "children": [
                            {
                                "children": [],
                                "depth": 1,
                                "id": 1,
                                "order": 1
                            }
                        ],
                        "depth": 0,
                        "id": 0,
                        "order": 0
                    }
                ],
                "depth": -1,
                "id": -1,
                "order": -1
            }
        ],
        "mainTraceNodeCount": 2,
        "parentIdMap": {
            "0": -1,
            "1": 0
        },
        "tidyTrace": [
            {
                "children": [
                    {
                        "children": [
                            {
                                "children": [],
                                "depth": 1,
                                "id": 1,
                                "order": 1
                            }
                        ],
                        "depth": 0,
                        "id": 0,
                        "order": 0
                    }
                ],
                "depth": -1,
                "id": -1,
                "order": -1
            }
        ],
        "tidyTraceNodeCount": 2
    },
    "state_change": {
        "stateChanges": [
            {
                "address": "0x70447f1579ec2d6007f99753427794a466c16f4d",
                "erc": "ERC-20",
                "slots": [
                    {
                        "current": "0x000000000000000000000000000000000000000000000ea289ea1c1e4187b874",
                        "key": "0xcf48206b7190ac336fbbea966edddf03ef406d149d086334fbb0aa18f18678f5",
                        "prev": "0x000000000000000000000000000000000000000000000eabbeb0c777d74b2a54"
                    },
                    {
                        "current": "0x00000000000000000000000000000000000000000000000934c6ab5995c371e0",
                        "key": "0x29569d276419c8cc8582985ac90ab04d95fde78ff06a895e5c3bc63f450e8ac7",
                        "prev": "0x0000000000000000000000000000000000000000000000000000000000000000"
                    }
                ],
                "storageVariables": []
            }
        ]
    }
}