{
    "balance_change": {
        "balanceChanges": [
            {
                "account": "0x63f59a1bc29125c7cbb953d6053fa101fb64fe78",
                "assets": [
                    {
                        "address": "0xdac17f958d2ee523a2206206994597c13d831ec7",
                        "amount": "20.77",
                        "iconUrl": "https://assets.blocksec.com/icon/fcea71f3193ce895be44bfdf941f7e4c9381dd587f273c2d1a27f1263d84e4ea.png",
                        "isERC1155": false,
                        "isERC721": false,
                        "sign": false,
                        "value": ""
                    }
                ]
            },
            {
                "account": "0xd7b9a9b2f665849c4071ad5af77d8c76aa30fb32",
                "assets": [
                    {
                        "address": "0xdac17f958d2ee523a2206206994597c13d831ec7",
                        "amount": "20.77",
                        "iconUrl": "https://assets.blocksec.com/icon/fcea71f3193ce895be44bfdf941f7e4c9381dd587f273c2d1a27f1263d84e4ea.png",
                        "isERC1155": false,
                        "isERC721": false,
                        "sign": true,
                        "value": ""
                    }
                ]
            }
        ]
    },
    "profile": {
        "basic_info": {
            "baseFee": "",
            "blockNumber": 9740231,
            "callData": "0xbeabacc8000000000000000000000000dac17f958d2ee523a2206206994597c13d831ec7000000000000000000000000d7b9a9b2f665849c4071ad5af77d8c76aa30fb3200000000000000000000000000000000000000000000000000000000013cecd0",
            "debugEnable": true,
            "errorInfo": "",
            "eventCount": 1,
            "feeRecipient": "0x04668ec2f57cc15c381b461b9fedab5d451c8f7f",
            "formatValue": "0",
            "gasLimit": 150000,
            "gasPrice": "10",
            "gasUsed": 29065,
            "intTxnCount": 1,
            "internalRevert": false,
            "internalRevertMessage": "",
            "isContractCreation": false,
            "isFlashloan": false,
            "maxFee": "",
            "nonce": 43378,
            "overwritedBlockNumber": -1,
            "priorityFee": "",
            "receiver": "0x63f59a1bc29125c7cbb953d6053fa101fb64fe78",
            "revertMessage": "",
            "sender": "0xeea5e6ea5998928352cf54425819436f80f95ae9",
            "simulationEnable": true,
            "sourceTxnHash": "0x7ac0451d37074e6d5464e70d82ada61b866511d261aacb184922270ccde3d37e",
            "status": true,
            "timestamp": "2020-03-25T11:36:59Z",
            "transactionFee": "0.00029065",
            "txnHash": "0x7ac0451d37074e6d5464e70d82ada61b866511d261aacb184922270ccde3d37e",
            "txnIndex": 42,
            "type": 0,
            "value": "0"
        },
        "fund_flow": [
            {
                "amount": "20.77",
                "from": "0x63f59a1bc29125c7cbb953d6053fa101fb64fe78",
                "id": 1,
                "isERC1155": false,
                "isERC721": false,
                "isReverted": false,
                "order": 1,
                "to": "0xd7b9a9b2f665849c4071ad5af77d8c76aa30fb32",
                "token": "0xdac17f958d2ee523a2206206994597c13d831ec7"
            }
        ],
        "token_infos": [
            {
                "address": "0xc02aaa39b223fe8d0a0e5c4f27ead9083c756cc2",
                "decimals": 18
            },
            {
                "address": "0xdac17f958d2ee523a2206206994597c13d831ec7",
                "decimals": 6
            },
            {
                "address": "0xeeeeeeeeeeeeeeeeeeeeeeeeeeeeeeeeeeeeeeee",
                "decimals": 18
            }
        ]
    },
    "address_label": {
        "labels": [
            {
                "address": "0xdac17f958d2ee523a2206206994597c13d831ec7",
                "label": "Tether: USDT Stablecoin"
            },
            {
                "address": "0x0000000000000000000000000000000000000001",
                "label": "Precompiled"
            },
            {
                "address": "0x0000000000000000000000000000000000000002",
                "label": "Precompiled"
            },
            {
                "address": "0x0000000000000000000000000000000000000003",
                "label": "Precompiled"
            },
            {
                "address": "0x0000000000000000000000000000000000000004",
                "label": "Precompiled"
            },
            {
                "address": "0xeeeeeeeeeeeeeeeeeeeeeeeeeeeeeeeeeeeeeeee",
                "label": "Ether"
            },
            {
                "address": "0xd7b9a9b2f665849c4071ad5af77d8c76aa30fb32",
                "label": "Exmo 2"
            }
        ]
    },
    "trace": {
        "accountLabels": null,
        "dataMap": {
            "-1": {
                "invocation": {
                    "address": "0xeea5e6ea5998928352cf54425819436f80f95ae9",
                    "callData": "",
                    "decodedMethod": null,
                    "errorInfo": "",
                    "fromAddress": "",
                    "gasUsed": 0,
                    "id": -1,
                    "methodDecoded": false,
                    "operation": "",
                    "output": "",
                    "revert": false,
                    "revertMessage": "",
                    "selector": "",
                    "status": false,
                    "value": ""
                },
                "nodeType": 0
            },
            "0": {
                "invocation": {
                    "address": "0x63f59a1bc29125c7cbb953d6053fa101fb64fe78",
                    "callData": "0x000000000000000000000000dac17f958d2ee523a2206206994597c13d831ec7000000000000000000000000d7b9a9b2f665849c4071ad5af77d8c76aa30fb3200000000000000000000000000000000000000000000000000000000013cecd0",
                    "decodedMethod": {
                        "callParams": [
                            {
                                "name": "_from",
                                "type": "address",
                                "value": "0xdac17f958d2ee523a2206206994597c13d831ec7"
                            },
                            {
                                "name": "_to",
                                "type": "address",
                                "value": "0xd7b9a9b2f665849c4071ad5af77d8c76aa30fb32"
                            },
                            {
                                "name": "_wad",
                                "type": "uint256",
                                "value": "20,770,000"
                            }
                        ],
                        "constructorArguments": "",
                        "name": "transfer",
                        "returnParams": [],
                        "signature": "transfer(address,address,uint256)"
                    },
                    "errorInfo": "",
                    "fromAddress": "0xeea5e6ea5998928352cf54425819436f80f95ae9",
                    "gasUsed": 29065,
                    "id": 0,
                    "methodDecoded": true,
                    "operation": "CALL",
                    "output": "0x0000000000000000000000000000000000000000000000000000000000000001",
                    "revert": false,
                    "revertMessage": "",
                    "selector": "0xbeabacc8",
                    "status": true,
                    "value": "0"
                },
                "nodeType": 0
            },
            "1": {
                "invocation": {
                    "address": "0xdac17f958d2ee523a2206206994597c13d831ec7",
                    "callData": "0x000000000000000000000000d7b9a9b2f665849c4071ad5af77d8c76aa30fb3200000000000000000000000000000000000000000000000000000000013cecd0",
                    "decodedMethod": {
                        "callParams": [
                            {
                                "name": "_to",
                                "type": "address",
                                "value": "0xd7b9a9b2f665849c4071ad5af77d8c76aa30fb32"
                            },
                            {
                                "decimalAvailable": true,
                                "name": "_value",
                                "type": "uint256",
                                "value": "20,770,000"
                            }
                        ],
                        "constructorArguments": "",
                        "name": "transfer",
                        "returnParams": [],
                        "signature": "transfer(address,uint256)"
                    },
                    "errorInfo": "",
                    "fromAddress": "0x63f59a1bc29125c7cbb953d6053fa101fb64fe78",
                    "gasUsed": 19601,
                    "id": 1,
                    "methodDecoded": true,
                    "operation": "CALL",
                    "output": "",
                    "revert": false,
                    "revertMessage": "",
                    "selector": "0xa9059cbb",
                    "status": true,
                    "value": "0"
                },
                "nodeType": 0
            },
            "2": {
                "event": {
                    "contract": "0xdac17f958d2ee523a2206206994597c13d831ec7",
                    "decodedLog": {
                        "name": "Transfer",
                        "params": [
                            {
                                "name": "from",
                                "type": "address",
                                "value": "0x63f59a1bc29125c7cbb953d6053fa101fb64fe78"
                            },
                            {
                                "name": "to",
                                "type": "address",
                                "value": "0xd7b9a9b2f665849c4071ad5af77d8c76aa30fb32"
                            },
                            {
                                "decimalAvailable": true,
                                "name": "value",
                                "type": "uint256",
                                "value": "20,770,000"
                            }
                        ],
                        "signature": "Transfer(address,address,uint256)"
                    },
                    "id": 2,
                    "logData": "0x00000000000000000000000000000000000000000000000000000000013cecd0",
                    "logDecoded": true,
                    "operation": "EVENT",
                    "revert": false,
                    "status": true,
                    "topics": [
                        "0xddf252ad1be2c89b69c2b068fc378daa952ba7f163c4a11628f55a4df523b3ef",
                        "0x00000000000000000000000063f59a1bc29125c7cbb953d6053fa101fb64fe78",
                        "0x000000000000000000000000d7b9a9b2f665849c4071ad5af77d8c76aa30fb32"
                    ]
                },
                "nodeType": 1
            }
        },
        "gasFlame": [
            {
                "children": [
                    {
                        "children": [
                            {
                                "children": [],
                                "depth": 0,
                                "name": "Initial Gas",
                                "value": 21976
                            },
                            {
                                "children": [
                                    {
                                        "children": [],
                                        "depth": 1,
                                        "name": "transfer",
                                        "value": 19601
                                    }
                                ],
                                "depth": 0,
                                "name": "Executed Gas",
                                "value": 22089
                            }
                        ],
                        "depth": -1,
                        "name": "Actual Gas Used",
                        "value": 29065
                    },
                    {
                        "children": [],
                        "depth": -1,
                        "name": "Refunded Gas",
                        "value": 15000
                    }
                ],
                "depth": -2,
                "name": "Total Gas",
                "value": 44065
            }
        ],
        "isConfirmed": true,
        "mainTrace": [
            {
                "children": [
                    {
                        "children": [
                            {
                                "children": [
                                    {
                                        "children": [],
                                        "depth": 2,
                                        "id": 2,
                                        "order": 2
                                    }
                                ],
                                "depth": 1,
                                "id": 1,
                                "order": 1
                            }
                        ],
                        "depth": 0,
                        "id": 0,
                        "order": 0
                    }
                ],
                "depth": -1,
                "id": -1,
                "order": -1
            }
        ],
        "mainTraceNodeCount": 3,
        "parentIdMap": {
            "0": -1,
            "1": 0,
            "2": 1
        },
        "tidyTrace": [
            {
                "children": [
                    {
                        "children": [
                            {
                                "children": [
                                    {
                                        "children": [],
                                        "depth": 2,
                                        "id": 2,
                                        "order": 2
                                    }
                                ],
                                "depth": 1,
                                "id": 1,
                                "order": 1
                            }
                        ],
                        "depth": 0,
                        "id": 0,
                        "order": 0
                    }
                ],
                "depth": -1,
                "id": -1,
                "order": -1
            }
        ],
        "tidyTraceNodeCount": 3
    },
    "state_change": {
        "stateChanges": [
            {
                "address": "0xdac17f958d2ee523a2206206994597c13d831ec7",
                "erc": "ERC-20",
                "slots": [
                    {
                        "current": "0x0000000000000000000000000000000000000000000000000000000000000000",
                        "key": "0xf21a788100683d5215682094af048625e891e0587a5a93be16f1395d5376185a",
                        "prev": "0x00000000000000000000000000000000000000000000000000000000013cecd0"
                    },
                    {
                        "current": "0x00000000000000000000000000000000000000000000000000000003bf95db08",
                        "key": "0xd9cc129676b1b304c34fae253e3fa28fe63d6c2e2cfc64b51b5aa2ae3b3d70e9",
                        "prev": "0x00000000000000000000000000000000000000000000000000000003be58ee38"
                    }
                ],
                "storageVariables": [
                    {
                        "name": "balances",
                        "type": "mapping(address => uint256)",
                        "value": {
                            "pairs": [
                                {
                                    "key": "0x63f59a1bc29125c7cbb953d6053fa101fb64fe78",
                                    "value": {
                                        "current": "0",
                                        "prev": "20770000",
                                        "typeTag": 1
                                    }
                                },
                                {
                                    "key": "0xd7b9a9b2f665849c4071ad5af77d8c76aa30fb32",
                                    "value": {
                                        "current": "16099171080",
                                        "prev": "16078401080",
                                        "typeTag": 1
                                    }
                                }
                            ],
                            "typeTag": 4
                        }
                    }
                ]
            }
        ]
    }
}