{
    "balance_change": {
        "balanceChanges": [
            {
                "account": "0x7da90089a73edd14c75b0c827cb54f4248d47ecc",
                "assets": [
                    {
                        "address": "0xeeeeeeeeeeeeeeeeeeeeeeeeeeeeeeeeeeeeeeee",
                        "amount": "0.263003280047732738",
                        "iconUrl": "https://assets.blocksec.com/image/1663669189317-3.png",
                        "isERC1155": false,
                        "isERC721": false,
                        "sign": false,
                        "value": ""
                    }
                ]
            },
            {
                "account": "0x5050c0cadc602314f9f411dd8573d5d0efcbd145",
                "assets": [
                    {
                        "address": "0xeeeeeeeeeeeeeeeeeeeeeeeeeeeeeeeeeeeeeeee",
                        "amount": "0.263003280047732738",
                        "iconUrl": "https://assets.blocksec.com/image/1663669189317-3.png",
                        "isERC1155": false,
                        "isERC721": false,
                        "sign": true,
                        "value": ""
                    }
                ]
            }
        ]
    },
    "profile": {
        "basic_info": {
            "baseFee": "",
            "blockNumber": 3018026,
            "callData": "0x38bbfa503efba10c91c3112cf25fdda636a64e6cbb8c650e5dadd5d9b69f57893963c66b000000000000000000000000000000000000000000000000000000000000006000000000000000000000000000000000000000000000000000000000000000a000000000000000000000000000000000000000000000000000000000000000043438373100000000000000000000000000000000000000000000000000000000000000000000000000000000000000000000000000000000000000000000002212202e2ca8e948f697d7870c72e4e4f390280894434e805e037738a97f086509bfa1000000000000000000000000000000000000000000000000000000000000",
            "debugEnable": true,
            "errorInfo": "",
            "eventCount": 2,
            "feeRecipient": "0x1e9939daaad6924ad004c2560e90804164900341",
            "formatValue": "0",
            "gasLimit": 177300,
            "gasPrice": "20",
            "gasUsed": 95968,
            "intTxnCount": 3,
            "internalRevert": false,
            "internalRevertMessage": "",
            "isContractCreation": false,
            "isFlashloan": false,
            "maxFee": "",
            "nonce": 54002,
            "overwritedBlockNumber": -1,
            "priorityFee": "",
            "receiver": "0x7da90089a73edd14c75b0c827cb54f4248d47ecc",
            "revertMessage": "",
            "sender": "0x26588a9301b0428d95e6fc3a5024fce8bec12d51",
            "simulationEnable": true,
            "sourceTxnHash": "0x7a17b2d538240b9f9f03724cde5b359a62bb932d55b9ae5a19768fb5a1744bbc",
            "status": true,
            "timestamp": "2017-01-18T09:39:44Z",
            "transactionFee": "0.00191936",
            "txnHash": "0x7a17b2d538240b9f9f03724cde5b359a62bb932d55b9ae5a19768fb5a1744bbc",
            "txnIndex": 2,
            "type": 0,
            "value": "0"
        },
        "fund_flow": [
            {
                "amount": "0.263003280047732738",
                "from": "0x7da90089a73edd14c75b0c827cb54f4248d47ecc",
                "id": 1,
                "isERC1155": false,
                "isERC721": false,
                "isReverted": false,
                "order": 1,
                "to": "0x5050c0cadc602314f9f411dd8573d5d0efcbd145",
                "token": "0xeeeeeeeeeeeeeeeeeeeeeeeeeeeeeeeeeeeeeeee"
            }
        ],
        "token_infos": [
            {
                "address": "0xeeeeeeeeeeeeeeeeeeeeeeeeeeeeeeeeeeeeeeee",
                "decimals": 18
            },
            {
                "address": "0xc02aaa39b223fe8d0a0e5c4f27ead9083c756cc2",
                "decimals": 18
            }
        ]
    },
    "address_label": {
        "labels": [
            {
                "address": "0xeeeeeeeeeeeeeeeeeeeeeeeeeeeeeeeeeeeeeeee",
                "label": "Ether"
            },
            {
                "address": "0x1d3b2638a7cc9f2cb3d298a3da7a90b67e5506ed",
                "label": "OraclizeAddrResolver"
            },
            {
                "address": "0x001a589dda0d6be37632925eaf1256986b2c6ad0",
                "label": "0x001a_Oraclize"
            },
            {
                "address": "0x7da90089a73edd14c75b0c827cb54f4248d47ecc",
                "label": "Dice"
            },
            {
                "address": "0x0000000000000000000000000000000000000003",
                "label": "Precompiled"
            },
            {
                "address": "0x0000000000000000000000000000000000000004",
                "label": "Precompiled"
            },
            {
                "address": "0x26588a9301b0428d95e6fc3a5024fce8bec12d51",
                "label": "0x2658_Oraclize"
            },
            {
                "address": "0x0000000000000000000000000000000000000001",
                "label": "Precompiled"
            },
            {
                "address": "0x0000000000000000000000000000000000000002",
                "label": "Precompiled"
            }
        ]
    },
    "trace": {
        "accountLabels": null,
        "dataMap": {
            "-1": {
                "invocation": {
                    "address": "0x26588a9301b0428d95e6fc3a5024fce8bec12d51",
                    "callData": "",
                    "decodedMethod": null,
                    "errorInfo": "",
                    "fromAddress": "",
                    "gasUsed": 0,
                    "id": -1,
                    "methodDecoded": false,
                    "operation": "",
                    "output": "",
                    "revert": false,
                    "revertMessage": "",
                    "selector": "",
                    "status": false,
                    "value": ""
                },
                "nodeType": 0
            },
            "0": {
                "invocation": {
                    "address": "0x7da90089a73edd14c75b0c827cb54f4248d47ecc",
                    "callData": "0x3efba10c91c3112cf25fdda636a64e6cbb8c650e5dadd5d9b69f57893963c66b000000000000000000000000000000000000000000000000000000000000006000000000000000000000000000000000000000000000000000000000000000a000000000000000000000000000000000000000000000000000000000000000043438373100000000000000000000000000000000000000000000000000000000000000000000000000000000000000000000000000000000000000000000002212202e2ca8e948f697d7870c72e4e4f390280894434e805e037738a97f086509bfa1000000000000000000000000000000000000000000000000000000000000",
                    "decodedMethod": {
                        "callParams": [
                            {
                                "name": "myid",
                                "type": "bytes32",
                                "value": "0x3efba10c91c3112cf25fdda636a64e6cbb8c650e5dadd5d9b69f57893963c66b"
                            },
                            {
                                "name": "result",
                                "type": "string",
                                "value": "4871"
                            },
                            {
                                "name": "proof",
                                "type": "bytes",
                                "value": "0x12202e2ca8e948f697d7870c72e4e4f390280894434e805e037738a97f086509bfa1"
                            }
                        ],
                        "constructorArguments": "",
                        "name": "__callback",
                        "returnParams": [],
                        "signature": "__callback(bytes32,string,bytes)"
                    },
                    "errorInfo": "",
                    "fromAddress": "0x26588a9301b0428d95e6fc3a5024fce8bec12d51",
                    "gasUsed": 95968,
                    "id": 0,
                    "methodDecoded": true,
                    "operation": "CALL",
                    "output": "",
                    "revert": false,
                    "revertMessage": "",
                    "selector": "0x38bbfa50",
                    "status": true,
                    "value": "0"
                },
                "nodeType": 0
            },
            "1": {
                "invocation": {
                    "address": "0x1d3b2638a7cc9f2cb3d298a3da7a90b67e5506ed",
                    "callData": "0x",
                    "decodedMethod": {
                        "callParams": [],
                        "constructorArguments": "",
                        "name": "getAddress",
                        "returnParams": [
                            {
                                "name": "oaddr",
                                "type": "address",
                                "value": "0x001a589dda0d6be37632925eaf1256986b2c6ad0"
                            }
                        ],
                        "signature": "getAddress()"
                    },
                    "errorInfo": "",
                    "fromAddress": "0x7da90089a73edd14c75b0c827cb54f4248d47ecc",
                    "gasUsed": 418,
                    "id": 1,
                    "methodDecoded": true,
                    "operation": "CALL",
                    "output": "0x000000000000000000000000001a589dda0d6be37632925eaf1256986b2c6ad0",
                    "revert": false,
                    "revertMessage": "",
                    "selector": "0x38cc4831",
                    "status": true,
                    "value": "0"
                },
                "nodeType": 0
            },
            "2": {
                "invocation": {
                    "address": "0x001a589dda0d6be37632925eaf1256986b2c6ad0",
                    "callData": "0x",
                    "decodedMethod": {
                        "callParams": [],
                        "constructorArguments": "",
                        "name": "cbAddress",
                        "returnParams": [
                            {
                                "name": "",
                                "type": "address",
                                "value": "0x26588a9301b0428d95e6fc3a5024fce8bec12d51"
                            }
                        ],
                        "signature": "cbAddress()"
                    },
                    "errorInfo": "",
                    "fromAddress": "0x7da90089a73edd14c75b0c827cb54f4248d47ecc",
                    "gasUsed": 1039,
                    "id": 2,
                    "methodDecoded": true,
                    "operation": "CALL",
                    "output": "0x00000000000000000000000026588a9301b0428d95e6fc3a5024fce8bec12d51",
                    "revert": false,
                    "revertMessage": "",
                    "selector": "0xc281d19e",
                    "status": true,
                    "value": "0"
                },
                "nodeType": 0
            },
            "3": {
                "event": {
                    "contract": "0x7da90089a73edd14c75b0c827cb54f4248d47ecc",
                    "decodedLog": {
                        "name": "LOG_BetWon",
                        "params": [
                            {
                                "name": "playerAddress",
                                "type": "address",
                                "value": "0x5050c0cadc602314f9f411dd8573d5d0efcbd145"
                            },
                            {
                                "name": "numberRolled",
                                "type": "uint256",
                                "value": "4,871"
                            },
                            {
                                "name": "amountWon",
                                "type": "uint256",
                                "value": "263,003,280,047,732,738"
                            }
                        ],
                        "signature": "LOG_BetWon(address,uint256,uint256)"
                    },
                    "id": 3,
                    "logData": "0x0000000000000000000000005050c0cadc602314f9f411dd8573d5d0efcbd145000000000000000000000000000000000000000000000000000000000000130700000000000000000000000000000000000000000000000003a66016fa01f802",
                    "logDecoded": true,
                    "operation": "EVENT",
                    "revert": false,
                    "status": true,
                    "topics": [
                        "0xa5acb022726d980b249ddc212f4992ad87f28c093550232fcc48bd8af803f2d5"
                    ]
                },
                "nodeType": 1
            },
            "4": {
                "invocation": {
                    "address": "0x5050c0cadc602314f9f411dd8573d5d0efcbd145",
                    "callData": "0x",
                    "decodedMethod": null,
                    "errorInfo": "",
                    "fromAddress": "0x7da90089a73edd14c75b0c827cb54f4248d47ecc",
                    "gasUsed": 0,
                    "id": 4,
                    "methodDecoded": false,
                    "operation": "CALL",
                    "output": "",
                    "revert": false,
                    "revertMessage": "",
                    "selector": "fallback",
                    "status": true,
                    "value": "0.263003280047732738"
                },
                "nodeType": 0
            },
            "5": {
                "event": {
                    "contract": "0x7da90089a73edd14c75b0c827cb54f4248d47ecc",
                    "decodedLog": {
                        "name": "LOG_SuccessfulSend",
                        "params": [
                            {
                                "name": "addr",
                                "type": "address",
                                "value": "0x5050c0cadc602314f9f411dd8573d5d0efcbd145"
                            },
                            {
                                "name": "amount",
                                "type": "uint256",
                                "value": "263,003,280,047,732,738"
                            }
                        ],
                        "signature": "LOG_SuccessfulSend(address,uint256)"
                    },
                    "id": 5,
                    "logData": "0x0000000000000000000000005050c0cadc602314f9f411dd8573d5d0efcbd14500000000000000000000000000000000000000000000000003a66016fa01f802",
                    "logDecoded": true,
                    "operation": "EVENT",
                    "revert": false,
                    "status": true,
                    "topics": [
                        "0xc7e416c5685d8971558840f05c5e63e02575b29997d8da6b9ba44dc10da6a370"
                    ]
                },
                "nodeType": 1
            }
        },
        "gasFlame": [
            {
                "children": [
                    {
                        "children": [
                            {
                                "children": [],
                                "depth": 0,
                                "name": "Initial Gas",
                                "value": 27032
                            },
                            {
                                "children": [
                                    {
                                        "children": [],
                                        "depth": 1,
                                        "name": "getAddress",
                                        "value": 418
                                    },
                                    {
                                        "children": [],
                                        "depth": 1,
                                        "name": "cbAddress",
                                        "value": 1039
                                    },
                                    {
                                        "children": [],
                                        "depth": 1,
                                        "name": "fallback",
                                        "value": 0
                                    }
                                ],
                                "depth": 0,
                                "name": "Executed Gas",
                                "value": 68936
                            }
                        ],
                        "depth": -1,
                        "name": "Actual Gas Used",
                        "value": 95968
                    },
                    {
                        "children": [],
                        "depth": -1,
                        "name": "Refunded Gas",
                        "value": 0
                    }
                ],
                "depth": -2,
                "name": "Total Gas",
                "value": 95968
            }
        ],
        "isConfirmed": true,
        "mainTrace": [
            {
                "children": [
                    {
                        "children": [
                            {
                                "children": [],
                                "depth": 1,
                                "id": 1,
                                "order": 1
                            },
                            {
                                "children": [],
                                "depth": 1,
                                "id": 2,
                                "order": 2
                            },
                            {
                                "children": [],
                                "depth": 1,
                                "id": 3,
                                "order": 3
                            },
                            {
                                "children": [],
                                "depth": 1,
                                "id": 4,
                                "order": 4
                            },
                            {
                                "children": [],
                                "depth": 1,
                                "id": 5,
                                "order": 5
                            }
                        ],
                        "depth": 0,
                        "id": 0,
                        "order": 0
                    }
                ],
                "depth": -1,
                "id": -1,
                "order": -1
            }
        ],
        "mainTraceNodeCount": 6,
        "parentIdMap": {
            "0": -1,
            "1": 0,
            "2": 0,
            "3": 0,
            "4": 0,
            "5": 0
        },
        "tidyTrace": [
            {
                "children": [
                    {
                        "children": [
                            {
                                "children": [],
                                "depth": 1,
                                "id": 1,
                                "order": 1
                            },
                            {
                                "children": [],
                                "depth": 1,
                                "id": 2,
                                "order": 2
                            },
                            {
                                "children": [],
                                "depth": 1,
                                "id": 3,
                                "order": 3
                            },
                            {
                                "children": [],
                                "depth": 1,
                                "id": 4,
                                "order": 4
                            },
                            {
                                "children": [],
                                "depth": 1,
                                "id": 5,
                                "order": 5
                            }
                        ],
                        "depth": 0,
                        "id": 0,
                        "order": 0
                    }
                ],
                "depth": -1,
                "id": -1,
                "order": -1
            }
        ],
        "tidyTraceNodeCount": 6
    },
    "state_change": {
        "stateChanges": [
            {
                "address": "0x7da90089a73edd14c75b0c827cb54f4248d47ecc",
                "erc": "",
                "slots": [
                    {
                        "current": "0x0000000000000000000000000000000000000000000000000000000000001307",
                        "key": "0xe6bc87e3bf8a7d440a4fa32aa41b55c81256acafb8a49ae85f608dfa3e1da472",
                        "prev": "0x0000000000000000000000000000000000000000000000000000000000000000"
                    },
                    {
                        "current": "0x0000000000000000000000000000000000000000000000004df56e0a101ca9ce",
                        "key": "0x000000000000000000000000000000000000000000000000000000000000000e",
                        "prev": "0x0000000000000000000000000000000000000000000000004da84792bc0e68b4"
                    }
                ],
                "storageVariables": []
            }
        ]
    }
}