{
    "balance_change": {
        "balanceChanges": [
            {
                "account": "0xdd87ae15f4be97e2739c9069ddef674f907d27a8",
                "assets": [
                    {
                        "address": "0x7c6e28b33fa22291f5e5fafc48555b922173ee8b",
                        "amount": "10,000",
                        "iconUrl": "",
                        "isERC1155": false,
                        "isERC721": false,
                        "sign": false,
                        "value": ""
                    }
                ]
            },
            {
                "account": "0x6a39b97100036a4cfb9df5af20088fe9aca0d7be",
                "assets": [
                    {
                        "address": "0x7c6e28b33fa22291f5e5fafc48555b922173ee8b",
                        "amount": "10,000",
                        "iconUrl": "",
                        "isERC1155": false,
                        "isERC721": false,
                        "sign": true,
                        "value": ""
                    }
                ]
            }
        ]
    },
    "profile": {
        "basic_info": {
            "baseFee": "",
            "blockNumber": 8675136,
            "callData": "0xa9059cbb0000000000000000000000006a39b97100036a4cfb9df5af20088fe9aca0d7be0000000000000000000000000000000000000000000000000000000000002710",
            "debugEnable": true,
            "errorInfo": "",
            "eventCount": 1,
            "feeRecipient": "0x5a0b54d5dc17e0aadc383d2db43b0a0d3e029c4c",
            "formatValue": "0",
            "gasLimit": 180000,
            "gasPrice": "30",
            "gasUsed": 52409,
            "intTxnCount": 0,
            "internalRevert": false,
            "internalRevertMessage": "",
            "isContractCreation": false,
            "isFlashloan": false,
            "maxFee": "",
            "nonce": 9043,
            "overwritedBlockNumber": -1,
            "priorityFee": "",
            "receiver": "0x7c6e28b33fa22291f5e5fafc48555b922173ee8b",
            "revertMessage": "",
            "sender": "0xdd87ae15f4be97e2739c9069ddef674f907d27a8",
            "simulationEnable": true,
            "sourceTxnHash": "0x7a3b006d9a42ac06151b1038222e6503730cd46f5de16d3707d1d4b55cdacfe5",
            "status": true,
            "timestamp": "2019-10-04T10:34:39Z",
            "transactionFee": "0.00157227",
            "txnHash": "0x7a3b006d9a42ac06151b1038222e6503730cd46f5de16d3707d1d4b55cdacfe5",
            "txnIndex": 61,
            "type": 0,
            "value": "0"
        },
        "fund_flow": [
            {
                "amount": "10,000",
                "from": "0xdd87ae15f4be97e2739c9069ddef674f907d27a8",
                "id": 1,
                "isERC1155": false,
                "isERC721": false,
                "isReverted": false,
                "order": 1,
                "to": "0x6a39b97100036a4cfb9df5af20088fe9aca0d7be",
                "token": "0x7c6e28b33fa22291f5e5fafc48555b922173ee8b"
            }
        ],
        "token_infos": [
            {
                "address": "0xc02aaa39b223fe8d0a0e5c4f27ead9083c756cc2",
                "decimals": 18
            },
            {
                "address": "0xeeeeeeeeeeeeeeeeeeeeeeeeeeeeeeeeeeeeeeee",
                "decimals": 18
            }
        ]
    },
    "address_label": {
        "labels": [
            {
                "address": "0xeeeeeeeeeeeeeeeeeeeeeeeeeeeeeeeeeeeeeeee",
                "label": "Ether"
            },
            {
                "address": "0x0000000000000000000000000000000000000001",
                "label": "Precompiled"
            },
            {
                "address": "0x0000000000000000000000000000000000000002",
                "label": "Precompiled"
            },
            {
                "address": "0x0000000000000000000000000000000000000003",
                "label": "Precompiled"
            },
            {
                "address": "0x0000000000000000000000000000000000000004",
                "label": "Precompiled"
            }
        ]
    },
    "trace": {
        "accountLabels": null,
        "dataMap": {
            "-1": {
                "invocation": {
                    "address": "0xdd87ae15f4be97e2739c9069ddef674f907d27a8",
                    "callData": "",
                    "decodedMethod": null,
                    "errorInfo": "",
                    "fromAddress": "",
                    "gasUsed": 0,
                    "id": -1,
                    "methodDecoded": false,
                    "operation": "",
                    "output": "",
                    "revert": false,
                    "revertMessage": "",
                    "selector": "",
                    "status": false,
                    "value": ""
                },
                "nodeType": 0
            },
            "0": {
                "invocation": {
                    "address": "0x7c6e28b33fa22291f5e5fafc48555b922173ee8b",
                    "callData": "0x0000000000000000000000006a39b97100036a4cfb9df5af20088fe9aca0d7be0000000000000000000000000000000000000000000000000000000000002710",
                    "decodedMethod": {
                        "callParams": [
                            {
                                "name": "_to",
                                "type": "address",
                                "value": "0x6a39b97100036a4cfb9df5af20088fe9aca0d7be"
                            },
                            {
                                "decimalAvailable": true,
                                "name": "_value",
                                "type": "uint256",
                                "value": "10,000"
                            }
                        ],
                        "constructorArguments": "",
                        "name": "transfer",
                        "returnParams": [],
                        "signature": "transfer(address,uint256)"
                    },
                    "errorInfo": "",
                    "fromAddress": "0xdd87ae15f4be97e2739c9069ddef674f907d27a8",
                    "gasUsed": 52409,
                    "id": 0,
                    "methodDecoded": true,
                    "operation": "CALL",
                    "output": "",
                    "revert": false,
                    "revertMessage": "",
                    "selector": "0xa9059cbb",
                    "status": true,
                    "value": "0"
                },
                "nodeType": 0
            },
            "1": {
                "event": {
                    "contract": "0x7c6e28b33fa22291f5e5fafc48555b922173ee8b",
                    "decodedLog": {
                        "name": "Transfer",
                        "params": [
                            {
                                "name": "from",
                                "type": "address",
                                "value": "0xdd87ae15f4be97e2739c9069ddef674f907d27a8"
                            },
                            {
                                "name": "to",
                                "type": "address",
                                "value": "0x6a39b97100036a4cfb9df5af20088fe9aca0d7be"
                            },
                            {
                                "decimalAvailable": true,
                                "name": "value",
                                "type": "uint256",
                                "value": "10,000"
                            }
                        ],
                        "signature": "Transfer(address,address,uint256)"
                    },
                    "id": 1,
                    "logData": "0x0000000000000000000000000000000000000000000000000000000000002710",
                    "logDecoded": true,
                    "operation": "EVENT",
                    "revert": false,
                    "status": true,
                    "topics": [
                        "0xddf252ad1be2c89b69c2b068fc378daa952ba7f163c4a11628f55a4df523b3ef",
                        "0x000000000000000000000000dd87ae15f4be97e2739c9069ddef674f907d27a8",
                        "0x0000000000000000000000006a39b97100036a4cfb9df5af20088fe9aca0d7be"
                    ]
                },
                "nodeType": 1
            }
        },
        "gasFlame": [
            {
                "children": [
                    {
                        "children": [
                            {
                                "children": [],
                                "depth": 0,
                                "name": "Initial Gas",
                                "value": 22872
                            },
                            {
                                "children": [],
                                "depth": 0,
                                "name": "Executed Gas",
                                "value": 29537
                            }
                        ],
                        "depth": -1,
                        "name": "Actual Gas Used",
                        "value": 52409
                    },
                    {
                        "children": [],
                        "depth": -1,
                        "name": "Refunded Gas",
                        "value": 0
                    }
                ],
                "depth": -2,
                "name": "Total Gas",
                "value": 52409
            }
        ],
        "isConfirmed": true,
        "mainTrace": [
            {
                "children": [
                    {
                        "children": [
                            {
                                "children": [],
                                "depth": 1,
                                "id": 1,
                                "order": 1
                            }
                        ],
                        "depth": 0,
                        "id": 0,
                        "order": 0
                    }
                ],
                "depth": -1,
                "id": -1,
                "order": -1
            }
        ],
        "mainTraceNodeCount": 2,
        "parentIdMap": {
            "0": -1,
            "1": 0
        },
        "tidyTrace": [
            {
                "children": [
                    {
                        "children": [
                            {
                                "children": [],
                                "depth": 1,
                                "id": 1,
                                "order": 1
                            }
                        ],
                        "depth": 0,
                        "id": 0,
                        "order": 0
                    }
                ],
                "depth": -1,
                "id": -1,
                "order": -1
            }
        ],
        "tidyTraceNodeCount": 2
    },
    "state_change": {
        "stateChanges": [
            {
                "address": "0x7c6e28b33fa22291f5e5fafc48555b922173ee8b",
                "erc": "",
                "slots": [
                    {
                        "current": "0x00000000000000000000000000000000000000000000000000000002375ed6c6",
                        "key": "0x0305e4cdc00343d85442f31e3603d71236782848ec884a93e640d4d022eb8124",
                        "prev": "0x00000000000000000000000000000000000000000000000000000002375efdd6"
                    },
                    {
                        "current": "0x0000000000000000000000000000000000000000000000000000000000002710",
                        "key": "0xfbcc63480167373bc8e5dcee491ff01beb3290aee625824c1c18633be99e677d",
                        "prev": "0x0000000000000000000000000000000000000000000000000000000000000000"
                    }
                ],
                "storageVariables": []
            }
        ]
    }
}