{
    "balance_change": {
        "balanceChanges": [
            {
                "account": "0x6238872a0bd9f0e19073695532a7ed77ce93c69e",
                "assets": [
                    {
                        "address": "0x473037de59cf9484632f4a27b509cfe8d4a31404",
                        "amount": "109",
                        "iconUrl": "",
                        "isERC1155": false,
                        "isERC721": false,
                        "sign": false,
                        "value": "30.03532111"
                    }
                ]
            },
            {
                "account": "0x216d3a5ec85faf95cfc08170219a29e4eb72875c",
                "assets": [
                    {
                        "address": "0x473037de59cf9484632f4a27b509cfe8d4a31404",
                        "amount": "109",
                        "iconUrl": "",
                        "isERC1155": false,
                        "isERC721": false,
                        "sign": true,
                        "value": "30.03532111"
                    }
                ]
            }
        ]
    },
    "profile": {
        "basic_info": {
            "baseFee": "2.222803487",
            "blockNumber": 15559051,
            "callData": "0xa9059cbb000000000000000000000000216d3a5ec85faf95cfc08170219a29e4eb72875c0000000000000000000000000000000000000000000000000000000289b0cd00",
            "debugEnable": true,
            "errorInfo": "",
            "eventCount": 1,
            "feeRecipient": "0xb64a30399f7f6b0c154c2e7af0a3ec7b0a5b131a",
            "formatValue": "0",
            "gasLimit": 100000,
            "gasPrice": "10",
            "gasUsed": 35247,
            "intTxnCount": 0,
            "internalRevert": false,
            "internalRevertMessage": "",
            "isContractCreation": false,
            "isFlashloan": false,
            "maxFee": "",
            "nonce": 171919,
            "overwritedBlockNumber": -1,
            "priorityFee": "",
            "receiver": "0x473037de59cf9484632f4a27b509cfe8d4a31404",
            "revertMessage": "",
            "sender": "0x6238872a0bd9f0e19073695532a7ed77ce93c69e",
            "simulationEnable": true,
            "sourceTxnHash": "0x7aadc4dc9ebb2eb308cc810d4609d7ca7df562504b15048b181cd5db7a5ade1b",
            "status": true,
            "timestamp": "2022-09-18T07:49:47Z",
            "transactionFee": "0.00035247",
            "txnHash": "0x7aadc4dc9ebb2eb308cc810d4609d7ca7df562504b15048b181cd5db7a5ade1b",
            "txnIndex": 1,
            "type": 0,
            "value": "0"
        },
        "fund_flow": [
            {
                "amount": "109",
                "from": "0x6238872a0bd9f0e19073695532a7ed77ce93c69e",
                "id": 1,
                "isERC1155": false,
                "isERC721": false,
                "isReverted": false,
                "order": 1,
                "to": "0x216d3a5ec85faf95cfc08170219a29e4eb72875c",
                "token": "0x473037de59cf9484632f4a27b509cfe8d4a31404"
            }
        ],
        "token_infos": [
            {
                "address": "0xc02aaa39b223fe8d0a0e5c4f27ead9083c756cc2",
                "decimals": 18
            },
            {
                "address": "0xeeeeeeeeeeeeeeeeeeeeeeeeeeeeeeeeeeeeeeee",
                "decimals": 18
            },
            {
                "address": "0x473037de59cf9484632f4a27b509cfe8d4a31404",
                "decimals": 8
            }
        ]
    },
    "address_label": {
        "labels": [
            {
                "address": "0x0000000000000000000000000000000000000001",
                "label": "Precompiled"
            },
            {
                "address": "0x0000000000000000000000000000000000000002",
                "label": "Precompiled"
            },
            {
                "address": "0x0000000000000000000000000000000000000003",
                "label": "Precompiled"
            },
            {
                "address": "0x0000000000000000000000000000000000000004",
                "label": "Precompiled"
            },
            {
                "address": "0xeeeeeeeeeeeeeeeeeeeeeeeeeeeeeeeeeeeeeeee",
                "label": "Ether"
            },
            {
                "address": "0x473037de59cf9484632f4a27b509cfe8d4a31404",
                "label": "GreenSatoshiToken (GST)"
            }
        ]
    },
    "trace": {
        "accountLabels": null,
        "dataMap": {
            "-1": {
                "invocation": {
                    "address": "0x6238872a0bd9f0e19073695532a7ed77ce93c69e",
                    "callData": "",
                    "decodedMethod": null,
                    "errorInfo": "",
                    "fromAddress": "",
                    "gasUsed": 0,
                    "id": -1,
                    "methodDecoded": false,
                    "operation": "",
                    "output": "",
                    "revert": false,
                    "revertMessage": "",
                    "selector": "",
                    "status": false,
                    "value": ""
                },
                "nodeType": 0
            },
            "0": {
                "invocation": {
                    "address": "0x473037de59cf9484632f4a27b509cfe8d4a31404",
                    "callData": "0x000000000000000000000000216d3a5ec85faf95cfc08170219a29e4eb72875c0000000000000000000000000000000000000000000000000000000289b0cd00",
                    "decodedMethod": {
                        "callParams": [
                            {
                                "name": "to",
                                "type": "address",
                                "value": "0x216d3a5ec85faf95cfc08170219a29e4eb72875c"
                            },
                            {
                                "decimalAvailable": true,
                                "name": "amount",
                                "type": "uint256",
                                "value": "10,900,000,000"
                            }
                        ],
                        "constructorArguments": "",
                        "name": "transfer",
                        "returnParams": [
                            {
                                "name": "",
                                "type": "bool",
                                "value": true
                            }
                        ],
                        "signature": "transfer(address,uint256)"
                    },
                    "errorInfo": "",
                    "fromAddress": "0x6238872a0bd9f0e19073695532a7ed77ce93c69e",
                    "gasUsed": 35247,
                    "id": 0,
                    "methodDecoded": true,
                    "operation": "CALL",
                    "output": "0x0000000000000000000000000000000000000000000000000000000000000001",
                    "revert": false,
                    "revertMessage": "",
                    "selector": "0xa9059cbb",
                    "status": true,
                    "value": "0"
                },
                "nodeType": 0
            },
            "1": {
                "event": {
                    "contract": "0x473037de59cf9484632f4a27b509cfe8d4a31404",
                    "decodedLog": {
                        "name": "Transfer",
                        "params": [
                            {
                                "name": "from",
                                "type": "address",
                                "value": "0x6238872a0bd9f0e19073695532a7ed77ce93c69e"
                            },
                            {
                                "name": "to",
                                "type": "address",
                                "value": "0x216d3a5ec85faf95cfc08170219a29e4eb72875c"
                            },
                            {
                                "decimalAvailable": true,
                                "name": "value",
                                "type": "uint256",
                                "value": "10,900,000,000"
                            }
                        ],
                        "signature": "Transfer(address,address,uint256)"
                    },
                    "id": 1,
                    "logData": "0x0000000000000000000000000000000000000000000000000000000289b0cd00",
                    "logDecoded": true,
                    "operation": "EVENT",
                    "revert": false,
                    "status": true,
                    "topics": [
                        "0xddf252ad1be2c89b69c2b068fc378daa952ba7f163c4a11628f55a4df523b3ef",
                        "0x0000000000000000000000006238872a0bd9f0e19073695532a7ed77ce93c69e",
                        "0x000000000000000000000000216d3a5ec85faf95cfc08170219a29e4eb72875c"
                    ]
                },
                "nodeType": 1
            }
        },
        "gasFlame": [
            {
                "children": [
                    {
                        "children": [
                            {
                                "children": [],
                                "depth": 0,
                                "name": "Initial Gas",
                                "value": 21608
                            },
                            {
                                "children": [],
                                "depth": 0,
                                "name": "Executed Gas",
                                "value": 13639
                            }
                        ],
                        "depth": -1,
                        "name": "Actual Gas Used",
                        "value": 35247
                    },
                    {
                        "children": [],
                        "depth": -1,
                        "name": "Refunded Gas",
                        "value": 0
                    }
                ],
                "depth": -2,
                "name": "Total Gas",
                "value": 35247
            }
        ],
        "isConfirmed": true,
        "mainTrace": [
            {
                "children": [
                    {
                        "children": [
                            {
                                "children": [],
                                "depth": 1,
                                "id": 1,
                                "order": 1
                            }
                        ],
                        "depth": 0,
                        "id": 0,
                        "order": 0
                    }
                ],
                "depth": -1,
                "id": -1,
                "order": -1
            }
        ],
        "mainTraceNodeCount": 2,
        "parentIdMap": {
            "0": -1,
            "1": 0
        },
        "tidyTrace": [
            {
                "children": [
                    {
                        "children": [
                            {
                                "children": [],
                                "depth": 1,
                                "id": 1,
                                "order": 1
                            }
                        ],
                        "depth": 0,
                        "id": 0,
                        "order": 0
                    }
                ],
                "depth": -1,
                "id": -1,
                "order": -1
            }
        ],
        "tidyTraceNodeCount": 2
    },
    "state_change": {
        "stateChanges": [
            {
                "address": "0x473037de59cf9484632f4a27b509cfe8d4a31404",
                "erc": "ERC-20",
                "slots": [
                    {
                        "current": "0x000000000000000000000000000000000000000000000000000763d2db8aee1f",
                        "key": "0x1868940a0642a14e921d7ff94d8b49b98c5092f90b0e22ba3ebb229e3ac3e512",
                        "prev": "0x000000000000000000000000000000000000000000000000000763d5653bbb1f"
                    },
                    {
                        "current": "0x000000000000000000000000000000000000000000000000000000028c1b9e1b",
                        "key": "0x95910b9185f4244512f01cf22bdd038f7fc103dfe0d7e942b83f96a49f819f84",
                        "prev": "0x00000000000000000000000000000000000000000000000000000000026ad11b"
                    }
                ],
                "storageVariables": [
                    {
                        "name": "_balances",
                        "type": "mapping(address => uint256)",
                        "value": {
                            "pairs": [
                                {
                                    "key": "0x216d3a5ec85faf95cfc08170219a29e4eb72875c",
                                    "value": {
                                        "current": "10940554779",
                                        "prev": "40554779",
                                        "typeTag": 1
                                    }
                                },
                                {
                                    "key": "0x6238872a0bd9f0e19073695532a7ed77ce93c69e",
                                    "value": {
                                        "current": "2080082114571807",
                                        "prev": "2080093014571807",
                                        "typeTag": 1
                                    }
                                }
                            ],
                            "typeTag": 4
                        }
                    }
                ]
            }
        ]
    }
}