{
    "balance_change": {
        "balanceChanges": [
            {
                "account": "0xb7bd981cac9f087177fe90fc4d6439d3f2782061",
                "assets": [
                    {
                        "address": "0x4156d3342d5c385a87d264f90653733592000581",
                        "amount": "1,312.24173915",
                        "iconUrl": "https://assets.blocksec.com/icon/7678d2440526c4cf0da23b60554b289b307ea3cf9926aaef2a40b38841230477.png",
                        "isERC1155": false,
                        "isERC721": false,
                        "sign": false,
                        "value": ""
                    }
                ]
            },
            {
                "account": "0xa3fd2538364c501e9bc79cb3b001258ca6537129",
                "assets": [
                    {
                        "address": "0x4156d3342d5c385a87d264f90653733592000581",
                        "amount": "1,312.24173915",
                        "iconUrl": "https://assets.blocksec.com/icon/7678d2440526c4cf0da23b60554b289b307ea3cf9926aaef2a40b38841230477.png",
                        "isERC1155": false,
                        "isERC721": false,
                        "sign": true,
                        "value": ""
                    }
                ]
            }
        ]
    },
    "profile": {
        "basic_info": {
            "baseFee": "",
            "blockNumber": 6380758,
            "callData": "0xa9059cbb000000000000000000000000a3fd2538364c501e9bc79cb3b001258ca65371290000000000000000000000000000000000000000000000000000001e8d91fd5b",
            "debugEnable": true,
            "errorInfo": "",
            "eventCount": 1,
            "feeRecipient": "0x4a071eee72bc8664c81b62836932ed0d246da82b",
            "formatValue": "0",
            "gasLimit": 120000,
            "gasPrice": "56.5",
            "gasUsed": 36522,
            "intTxnCount": 0,
            "internalRevert": false,
            "internalRevertMessage": "",
            "isContractCreation": false,
            "isFlashloan": false,
            "maxFee": "",
            "nonce": 85043,
            "overwritedBlockNumber": -1,
            "priorityFee": "",
            "receiver": "0x4156d3342d5c385a87d264f90653733592000581",
            "revertMessage": "",
            "sender": "0xb7bd981cac9f087177fe90fc4d6439d3f2782061",
            "simulationEnable": true,
            "sourceTxnHash": "0x7a2766e85dc5cdd850ad5a5a97d46f2eac4f23e0fda009cd23fc19e199a914e8",
            "status": true,
            "timestamp": "2018-09-22T20:58:50Z",
            "transactionFee": "0.002063493",
            "txnHash": "0x7a2766e85dc5cdd850ad5a5a97d46f2eac4f23e0fda009cd23fc19e199a914e8",
            "txnIndex": 4,
            "type": 0,
            "value": "0"
        },
        "fund_flow": [
            {
                "amount": "1,312.24173915",
                "from": "0xb7bd981cac9f087177fe90fc4d6439d3f2782061",
                "id": 1,
                "isERC1155": false,
                "isERC721": false,
                "isReverted": false,
                "order": 1,
                "to": "0xa3fd2538364c501e9bc79cb3b001258ca6537129",
                "token": "0x4156d3342d5c385a87d264f90653733592000581"
            }
        ],
        "token_infos": [
            {
                "address": "0x4156d3342d5c385a87d264f90653733592000581",
                "decimals": 8
            },
            {
                "address": "0xc02aaa39b223fe8d0a0e5c4f27ead9083c756cc2",
                "decimals": 18
            },
            {
                "address": "0xeeeeeeeeeeeeeeeeeeeeeeeeeeeeeeeeeeeeeeee",
                "decimals": 18
            }
        ]
    },
    "address_label": {
        "labels": [
            {
                "address": "0x0000000000000000000000000000000000000004",
                "label": "Precompiled"
            },
            {
                "address": "0xeeeeeeeeeeeeeeeeeeeeeeeeeeeeeeeeeeeeeeee",
                "label": "Ether"
            },
            {
                "address": "0x4156d3342d5c385a87d264f90653733592000581",
                "label": "Salt: SALT Token"
            },
            {
                "address": "0x0000000000000000000000000000000000000001",
                "label": "Precompiled"
            },
            {
                "address": "0x0000000000000000000000000000000000000002",
                "label": "Precompiled"
            },
            {
                "address": "0x0000000000000000000000000000000000000003",
                "label": "Precompiled"
            }
        ]
    },
    "trace": {
        "accountLabels": null,
        "dataMap": {
            "-1": {
                "invocation": {
                    "address": "0xb7bd981cac9f087177fe90fc4d6439d3f2782061",
                    "callData": "",
                    "decodedMethod": null,
                    "errorInfo": "",
                    "fromAddress": "",
                    "gasUsed": 0,
                    "id": -1,
                    "methodDecoded": false,
                    "operation": "",
                    "output": "",
                    "revert": false,
                    "revertMessage": "",
                    "selector": "",
                    "status": false,
                    "value": ""
                },
                "nodeType": 0
            },
            "0": {
                "invocation": {
                    "address": "0x4156d3342d5c385a87d264f90653733592000581",
                    "callData": "0x000000000000000000000000a3fd2538364c501e9bc79cb3b001258ca65371290000000000000000000000000000000000000000000000000000001e8d91fd5b",
                    "decodedMethod": {
                        "callParams": [
                            {
                                "name": "_to",
                                "type": "address",
                                "value": "0xa3fd2538364c501e9bc79cb3b001258ca6537129"
                            },
                            {
                                "decimalAvailable": true,
                                "name": "_value",
                                "type": "uint256",
                                "value": "131,224,173,915"
                            }
                        ],
                        "constructorArguments": "",
                        "name": "transfer",
                        "returnParams": [
                            {
                                "name": "success",
                                "type": "bool",
                                "value": true
                            }
                        ],
                        "signature": "transfer(address,uint256)"
                    },
                    "errorInfo": "",
                    "fromAddress": "0xb7bd981cac9f087177fe90fc4d6439d3f2782061",
                    "gasUsed": 36522,
                    "id": 0,
                    "methodDecoded": true,
                    "operation": "CALL",
                    "output": "0x0000000000000000000000000000000000000000000000000000000000000001",
                    "revert": false,
                    "revertMessage": "",
                    "selector": "0xa9059cbb",
                    "status": true,
                    "value": "0"
                },
                "nodeType": 0
            },
            "1": {
                "event": {
                    "contract": "0x4156d3342d5c385a87d264f90653733592000581",
                    "decodedLog": {
                        "name": "Transfer",
                        "params": [
                            {
                                "name": "_from",
                                "type": "address",
                                "value": "0xb7bd981cac9f087177fe90fc4d6439d3f2782061"
                            },
                            {
                                "name": "_to",
                                "type": "address",
                                "value": "0xa3fd2538364c501e9bc79cb3b001258ca6537129"
                            },
                            {
                                "decimalAvailable": true,
                                "name": "_value",
                                "type": "uint256",
                                "value": "131,224,173,915"
                            }
                        ],
                        "signature": "Transfer(address,address,uint256)"
                    },
                    "id": 1,
                    "logData": "0x0000000000000000000000000000000000000000000000000000001e8d91fd5b",
                    "logDecoded": true,
                    "operation": "EVENT",
                    "revert": false,
                    "status": true,
                    "topics": [
                        "0xddf252ad1be2c89b69c2b068fc378daa952ba7f163c4a11628f55a4df523b3ef",
                        "0x000000000000000000000000b7bd981cac9f087177fe90fc4d6439d3f2782061",
                        "0x000000000000000000000000a3fd2538364c501e9bc79cb3b001258ca6537129"
                    ]
                },
                "nodeType": 1
            }
        },
        "gasFlame": [
            {
                "children": [
                    {
                        "children": [
                            {
                                "children": [],
                                "depth": 0,
                                "name": "Initial Gas",
                                "value": 23128
                            },
                            {
                                "children": [],
                                "depth": 0,
                                "name": "Executed Gas",
                                "value": 13394
                            }
                        ],
                        "depth": -1,
                        "name": "Actual Gas Used",
                        "value": 36522
                    },
                    {
                        "children": [],
                        "depth": -1,
                        "name": "Refunded Gas",
                        "value": 0
                    }
                ],
                "depth": -2,
                "name": "Total Gas",
                "value": 36522
            }
        ],
        "isConfirmed": true,
        "mainTrace": [
            {
                "children": [
                    {
                        "children": [
                            {
                                "children": [],
                                "depth": 1,
                                "id": 1,
                                "order": 1
                            }
                        ],
                        "depth": 0,
                        "id": 0,
                        "order": 0
                    }
                ],
                "depth": -1,
                "id": -1,
                "order": -1
            }
        ],
        "mainTraceNodeCount": 2,
        "parentIdMap": {
            "0": -1,
            "1": 0
        },
        "tidyTrace": [
            {
                "children": [
                    {
                        "children": [
                            {
                                "children": [],
                                "depth": 1,
                                "id": 1,
                                "order": 1
                            }
                        ],
                        "depth": 0,
                        "id": 0,
                        "order": 0
                    }
                ],
                "depth": -1,
                "id": -1,
                "order": -1
            }
        ],
        "tidyTraceNodeCount": 2
    },
    "state_change": {
        "stateChanges": [
            {
                "address": "0x4156d3342d5c385a87d264f90653733592000581",
                "erc": "ERC-20",
                "slots": [
                    {
                        "current": "0x000000000000000000000000000000000000000000000000000004e183cf4425",
                        "key": "0x95179b5b5a2f84666f6314949846fc30d465f2850135d4d1901b1eecf2493945",
                        "prev": "0x0000000000000000000000000000000000000000000000000000050011614180"
                    },
                    {
                        "current": "0x000000000000000000000000000000000000000000000000000001cd330911ac",
                        "key": "0x9a1e72c32575d23e0fe9bfb999fe008bbb9d17e8f9a2ee45d2cab4ef3bdb3699",
                        "prev": "0x000000000000000000000000000000000000000000000000000001aea5771451"
                    }
                ],
                "storageVariables": []
            }
        ]
    }
}