{
    "balance_change": {
        "balanceChanges": [
            {
                "account": "0x0000000000000000000000000000000000000000",
                "assets": [
                    {
                        "address": "0x09a3ecafa817268f77be1283176b946c4ff2e608",
                        "amount": "0.2",
                        "iconUrl": "",
                        "isERC1155": false,
                        "isERC721": false,
                        "sign": false,
                        "value": "0.34625711"
                    }
                ]
            },
            {
                "account": "0x4010f514537affb15961c9568637c8688d97a086",
                "assets": [
                    {
                        "address": "0x09a3ecafa817268f77be1283176b946c4ff2e608",
                        "amount": "0.2",
                        "iconUrl": "",
                        "isERC1155": false,
                        "isERC721": false,
                        "sign": true,
                        "value": "0.34625711"
                    }
                ]
            }
        ]
    },
    "profile": {
        "basic_info": {
            "baseFee": "",
            "blockNumber": 11547471,
            "callData": "0x40c10f190000000000000000000000004010f514537affb15961c9568637c8688d97a08600000000000000000000000000000000000000000000000002c68af0bb140000",
            "debugEnable": true,
            "errorInfo": "",
            "eventCount": 1,
            "feeRecipient": "0x5a0b54d5dc17e0aadc383d2db43b0a0d3e029c4c",
            "formatValue": "0",
            "gasLimit": 100000,
            "gasPrice": "75",
            "gasUsed": 51887,
            "intTxnCount": 0,
            "internalRevert": false,
            "internalRevertMessage": "",
            "isContractCreation": false,
            "isFlashloan": false,
            "maxFee": "",
            "nonce": 3518,
            "overwritedBlockNumber": -1,
            "priorityFee": "",
            "receiver": "0x09a3ecafa817268f77be1283176b946c4ff2e608",
            "revertMessage": "",
            "sender": "0xc6821958f8d73ad0819502c35e383db8d3077ea2",
            "simulationEnable": true,
            "sourceTxnHash": "0x7a3610131d55d28fcab4da333f6097780376b18f086e37e5986d04e4d48516dc",
            "status": true,
            "timestamp": "2020-12-29T07:10:24Z",
            "transactionFee": "0.003891525",
            "txnHash": "0x7a3610131d55d28fcab4da333f6097780376b18f086e37e5986d04e4d48516dc",
            "txnIndex": 103,
            "type": 0,
            "value": "0"
        },
        "fund_flow": [
            {
                "amount": "0.2",
                "from": "0x0000000000000000000000000000000000000000",
                "id": 1,
                "isERC1155": false,
                "isERC721": false,
                "isReverted": false,
                "order": 1,
                "to": "0x4010f514537affb15961c9568637c8688d97a086",
                "token": "0x09a3ecafa817268f77be1283176b946c4ff2e608"
            }
        ],
        "token_infos": [
            {
                "address": "0x09a3ecafa817268f77be1283176b946c4ff2e608",
                "decimals": 18
            },
            {
                "address": "0xc02aaa39b223fe8d0a0e5c4f27ead9083c756cc2",
                "decimals": 18
            },
            {
                "address": "0xeeeeeeeeeeeeeeeeeeeeeeeeeeeeeeeeeeeeeeee",
                "decimals": 18
            }
        ]
    },
    "address_label": {
        "labels": [
            {
                "address": "0xc6821958f8d73ad0819502c35e383db8d3077ea2",
                "label": "Terra: Deployer"
            },
            {
                "address": "0x4010f514537affb15961c9568637c8688d97a086",
                "label": "COINONE"
            },
            {
                "address": "0x0000000000000000000000000000000000000001",
                "label": "Precompiled"
            },
            {
                "address": "0x0000000000000000000000000000000000000002",
                "label": "Precompiled"
            },
            {
                "address": "0x0000000000000000000000000000000000000003",
                "label": "Precompiled"
            },
            {
                "address": "0x0000000000000000000000000000000000000004",
                "label": "Precompiled"
            },
            {
                "address": "0xeeeeeeeeeeeeeeeeeeeeeeeeeeeeeeeeeeeeeeee",
                "label": "Ether"
            },
            {
                "address": "0x09a3ecafa817268f77be1283176b946c4ff2e608",
                "label": "Mirror Protocol: MIR Token"
            }
        ]
    },
    "trace": {
        "accountLabels": null,
        "dataMap": {
            "-1": {
                "invocation": {
                    "address": "0xc6821958f8d73ad0819502c35e383db8d3077ea2",
                    "callData": "",
                    "decodedMethod": null,
                    "errorInfo": "",
                    "fromAddress": "",
                    "gasUsed": 0,
                    "id": -1,
                    "methodDecoded": false,
                    "operation": "",
                    "output": "",
                    "revert": false,
                    "revertMessage": "",
                    "selector": "",
                    "status": false,
                    "value": ""
                },
                "nodeType": 0
            },
            "0": {
                "invocation": {
                    "address": "0x09a3ecafa817268f77be1283176b946c4ff2e608",
                    "callData": "0x0000000000000000000000004010f514537affb15961c9568637c8688d97a08600000000000000000000000000000000000000000000000002c68af0bb140000",
                    "decodedMethod": {
                        "callParams": [
                            {
                                "name": "account",
                                "type": "address",
                                "value": "0x4010f514537affb15961c9568637c8688d97a086"
                            },
                            {
                                "name": "amount",
                                "type": "uint256",
                                "value": "200,000,000,000,000,000"
                            }
                        ],
                        "constructorArguments": "",
                        "name": "mint",
                        "returnParams": [],
                        "signature": "mint(address,uint256)"
                    },
                    "errorInfo": "",
                    "fromAddress": "0xc6821958f8d73ad0819502c35e383db8d3077ea2",
                    "gasUsed": 51887,
                    "id": 0,
                    "methodDecoded": true,
                    "operation": "CALL",
                    "output": "",
                    "revert": false,
                    "revertMessage": "",
                    "selector": "0x40c10f19",
                    "status": true,
                    "value": "0"
                },
                "nodeType": 0
            },
            "1": {
                "event": {
                    "contract": "0x09a3ecafa817268f77be1283176b946c4ff2e608",
                    "decodedLog": {
                        "name": "Transfer",
                        "params": [
                            {
                                "name": "from",
                                "type": "address",
                                "value": "0x0000000000000000000000000000000000000000"
                            },
                            {
                                "name": "to",
                                "type": "address",
                                "value": "0x4010f514537affb15961c9568637c8688d97a086"
                            },
                            {
                                "decimalAvailable": true,
                                "name": "value",
                                "type": "uint256",
                                "value": "200,000,000,000,000,000"
                            }
                        ],
                        "signature": "Transfer(address,address,uint256)"
                    },
                    "id": 1,
                    "logData": "0x00000000000000000000000000000000000000000000000002c68af0bb140000",
                    "logDecoded": true,
                    "operation": "EVENT",
                    "revert": false,
                    "status": true,
                    "topics": [
                        "0xddf252ad1be2c89b69c2b068fc378daa952ba7f163c4a11628f55a4df523b3ef",
                        "0x0000000000000000000000000000000000000000000000000000000000000000",
                        "0x0000000000000000000000004010f514537affb15961c9568637c8688d97a086"
                    ]
                },
                "nodeType": 1
            }
        },
        "gasFlame": [
            {
                "children": [
                    {
                        "children": [
                            {
                                "children": [],
                                "depth": 0,
                                "name": "Initial Gas",
                                "value": 21632
                            },
                            {
                                "children": [],
                                "depth": 0,
                                "name": "Executed Gas",
                                "value": 30255
                            }
                        ],
                        "depth": -1,
                        "name": "Actual Gas Used",
                        "value": 51887
                    },
                    {
                        "children": [],
                        "depth": -1,
                        "name": "Refunded Gas",
                        "value": 0
                    }
                ],
                "depth": -2,
                "name": "Total Gas",
                "value": 51887
            }
        ],
        "isConfirmed": true,
        "mainTrace": [
            {
                "children": [
                    {
                        "children": [
                            {
                                "children": [],
                                "depth": 1,
                                "id": 1,
                                "order": 1
                            }
                        ],
                        "depth": 0,
                        "id": 0,
                        "order": 0
                    }
                ],
                "depth": -1,
                "id": -1,
                "order": -1
            }
        ],
        "mainTraceNodeCount": 2,
        "parentIdMap": {
            "0": -1,
            "1": 0
        },
        "tidyTrace": [
            {
                "children": [
                    {
                        "children": [
                            {
                                "children": [],
                                "depth": 1,
                                "id": 1,
                                "order": 1
                            }
                        ],
                        "depth": 0,
                        "id": 0,
                        "order": 0
                    }
                ],
                "depth": -1,
                "id": -1,
                "order": -1
            }
        ],
        "tidyTraceNodeCount": 2
    },
    "state_change": {
        "stateChanges": [
            {
                "address": "0x09a3ecafa817268f77be1283176b946c4ff2e608",
                "erc": "ERC-20",
                "slots": [
                    {
                        "current": "0x00000000000000000000000000000000000000000000000002c68af0bb140000",
                        "key": "0xb77071c686e37b118456cc30a11db188bc9e554c968ecf6ddfd3a3144c4b7c6d",
                        "prev": "0x0000000000000000000000000000000000000000000000000000000000000000"
                    },
                    {
                        "current": "0x0000000000000000000000000000000000000000005e4145344f2e01d69a805b",
                        "key": "0x0000000000000000000000000000000000000000000000000000000000000002",
                        "prev": "0x0000000000000000000000000000000000000000005e41453188a3111b86805b"
                    }
                ],
                "storageVariables": [
                    {
                        "name": "_balances",
                        "type": "mapping(address => uint256)",
                        "value": {
                            "pairs": [
                                {
                                    "key": "0x4010f514537affb15961c9568637c8688d97a086",
                                    "value": {
                                        "current": "200000000000000000",
                                        "prev": "0",
                                        "typeTag": 1
                                    }
                                }
                            ],
                            "typeTag": 4
                        }
                    },
                    {
                        "name": "_totalSupply",
                        "type": "uint256",
                        "value": {
                            "current": "113947257459784753883021403",
                            "prev": "113947257259784753883021403",
                            "typeTag": 1
                        }
                    }
                ]
            }
        ]
    }
}