{
    "balance_change": {
        "balanceChanges": [
            {
                "account": "0x9109be7459922f937f9ae039b0ac815c3100d62e",
                "assets": [
                    {
                        "address": "0xeeeeeeeeeeeeeeeeeeeeeeeeeeeeeeeeeeeeeeee",
                        "amount": "0.068551562302677287",
                        "iconUrl": "https://assets.blocksec.com/image/1663669189317-3.png",
                        "isERC1155": false,
                        "isERC721": false,
                        "sign": true,
                        "value": "153.7584121764080025"
                    },
                    {
                        "address": "0x14fee680690900ba0cccfc76ad70fd1b95d10e16",
                        "amount": "1,000",
                        "iconUrl": "",
                        "isERC1155": false,
                        "isERC721": false,
                        "sign": false,
                        "value": "158.90000000000001346"
                    }
                ]
            },
            {
                "account": "0x14fee680690900ba0cccfc76ad70fd1b95d10e16",
                "assets": [
                    {
                        "address": "0x14fee680690900ba0cccfc76ad70fd1b95d10e16",
                        "amount": "40",
                        "iconUrl": "",
                        "isERC1155": false,
                        "isERC721": false,
                        "sign": true,
                        "value": "6.3560000000000005382"
                    }
                ]
            },
            {
                "account": "0x2a6c340bcbb0a79d3deecd3bc5cbc2605ea9259f",
                "assets": [
                    {
                        "address": "0x14fee680690900ba0cccfc76ad70fd1b95d10e16",
                        "amount": "960",
                        "iconUrl": "",
                        "isERC1155": false,
                        "isERC721": false,
                        "sign": true,
                        "value": "152.54400000000001292"
                    },
                    {
                        "address": "0xc02aaa39b223fe8d0a0e5c4f27ead9083c756cc2",
                        "amount": "0.06875783581010761",
                        "iconUrl": "https://assets.blocksec.com/icon/f1cb2d02c471d545bbc7722daf3277fd852d98e63d118771af7047bd8256c516.png",
                        "isERC1155": false,
                        "isERC721": false,
                        "sign": false,
                        "value": "154.2210754083976025"
                    }
                ]
            },
            {
                "account": "0x96c195f6643a3d797cb90cb6ba0ae2776d51b5f3",
                "assets": [
                    {
                        "address": "0xeeeeeeeeeeeeeeeeeeeeeeeeeeeeeeeeeeeeeeee",
                        "amount": "0.000206273507430322",
                        "iconUrl": "https://assets.blocksec.com/image/1663669189317-3.png",
                        "isERC1155": false,
                        "isERC721": false,
                        "sign": true,
                        "value": "0.46266322615790400751"
                    }
                ]
            },
            {
                "account": "0xc02aaa39b223fe8d0a0e5c4f27ead9083c756cc2",
                "assets": [
                    {
                        "address": "0xeeeeeeeeeeeeeeeeeeeeeeeeeeeeeeeeeeeeeeee",
                        "amount": "0.06875783581010761",
                        "iconUrl": "https://assets.blocksec.com/image/1663669189317-3.png",
                        "isERC1155": false,
                        "isERC721": false,
                        "sign": false,
                        "value": "154.2210754083976025"
                    },
                    {
                        "address": "0xc02aaa39b223fe8d0a0e5c4f27ead9083c756cc2",
                        "amount": "0.06875783581010761",
                        "iconUrl": "https://assets.blocksec.com/icon/f1cb2d02c471d545bbc7722daf3277fd852d98e63d118771af7047bd8256c516.png",
                        "isERC1155": false,
                        "isERC721": false,
                        "sign": true,
                        "value": "154.2210754083976025"
                    }
                ]
            },
            {
                "account": "0xf081470f5c6fbccf48cc4e5b82dd926409dcdd67",
                "assets": [
                    {
                        "address": "0xeeeeeeeeeeeeeeeeeeeeeeeeeeeeeeeeeeeeeeee",
                        "amount": "0.000000000000000001",
                        "iconUrl": "https://assets.blocksec.com/image/1663669189317-3.png",
                        "isERC1155": false,
                        "isERC721": false,
                        "sign": true,
                        "value": "0.0000000000000022429600000000000363"
                    }
                ]
            }
        ]
    },
    "profile": {
        "basic_info": {
            "baseFee": "46.719694001",
            "blockNumber": 18710379,
            "callData": "0x8af033fb000000000000000000000000f081470f5c6fbccf48cc4e5b82dd926409dcdd67000000000000000000000000000000000000000000000000000000000000008000000000000000000000000000000000000000000000000000000000000002c0000000000000000000000000000000000000000000000000000000000000068000000000000000000000000014fee680690900ba0cccfc76ad70fd1b95d10e16000000000000000000000000eeeeeeeeeeeeeeeeeeeeeeeeeeeeeeeeeeeeeeee0000000000000000000000000000000000000000000000000000000000000160000000000000000000000000000000000000000000000000000000000000018000000000000000000000000000000000000000000000000000000000000001a000000000000000000000000000000000000000000000000000000000000001e00000000000000000000000009109be7459922f937f9ae039b0ac815c3100d62e000000000000000000000000000000000000000000000000000000e8d4a5100000000000000000000000000000000000000000000000000000f1837a97f173ae00000000000000000000000000000000000000000000000000000000000000e0000000000000000000000000000000000000000000000000000000000000022000000000000000000000000000000000000000000000000000000000000000000000000000000000000000000000000000000000000000000000000000000000000000000000000000000000000000000000000000000000000000000000000100000000000000000000000096c195f6643a3d797cb90cb6ba0ae2776d51b5f30000000000000000000000000000000000000000000000000000000000000001000000000000000000000000000000000000000000000000000000000000001e000000000000000000000000000000000000000000000000000000000000000000000000000000000000000000000000000000000000000000000000000003a0000000000000000000000000000000000000000000000000000000000000002000000000000000000000000000000000000000000000000000000000000000a000000000000000000000000000000000000000000000000000000000000000e0000000000000000000000000000000000000000000000000000000000000012000000000000000000000000000000000000000000000000000000000656d4eae000000000000000000000000000000000000000000000000000000000000034000000000000000000000000000000000000000000000000000000000000000010000000000000000000000002a6c340bcbb0a79d3deecd3bc5cbc2605ea9259f0000000000000000000000000000000000000000000000000000000000000001000000000000000000000000000000000000000000000000000000e8d4a510000000000000000000000000000000000000000000000000000000000000000001000000000000000000000000000000000000000000000000000000000000002000000000000000000000000000000000000000000000000000000000000001c00000000000000000000000000000000000000000000000000000000000000020000000000000000000000000000000000000000000000000000000000000000100000000000000000000000000000000000000000000000000000000000000200000000000000000000000000000000000000000000000000000000000000040593611990000000000000000000000000000000000000000000000000000000100000000000000000000000000000000000000000000000000000000000001000000000000000000000000002a6c340bcbb0a79d3deecd3bc5cbc2605ea9259f00000000000000000000000014fee680690900ba0cccfc76ad70fd1b95d10e16000000000000000000000000c02aaa39b223fe8d0a0e5c4f27ead9083c756cc2000000000000000000000000f081470f5c6fbccf48cc4e5b82dd926409dcdd670000000000000000000000000000000000000000000000000000000000000000000000000000000000000000000000000000000000000000000000000000001e000000000000000000000000000000000000000000000000000000000000271000000000000000000000000000000000000000000000000000000000000000320000000000000000000000000000000000000000000000000000000000000020000000000000000000000010ad0811e5000000000000000000fe74406314baf200000000000000000000000000000000000000000000000000000000000001ed7b22536f75726365223a22646578746f6f6c73222c22416d6f756e74496e555344223a223135362e383836222c22416d6f756e744f7574555344223a223135382e30373935383735353035303832222c22526566657272616c223a22222c22466c616773223a312c22496e74656772697479496e666f223a7b224b65794944223a2231222c225369676e6174757265223a22466f69585668586c35566147656a4d4834513742314d2b69774d5159384145713534537951364d36586f336c51636f4e7751576e7a6f4d6562566146425738556b512f6a6750586b6f6353314f4f2f69686742554e6b684439455a556f2b3745586c71544e52746451384a726676716e356a4b3577363248506c7379497750534b734a4e74326877506439414a7254527447756a6b4f4d6d484159626c6546564b6e6a7571423661506933385354364e75654e7664704434485733346e465a324e424f6e675530445a47774c5a524642566f4b416935574837536464377631616c5067666a5443717753546b6173725178726e72356e7a705a61797937557152466557433467413159545544494b787a7954614e6c437a4e5152754c305478484c45754a36765a4765476b664e4d73732f78636c48503750485079365330534279794f674b5367426869504f76684f3935382f7736673d3d227d7d00000000000000000000000000000000000000",
            "debugEnable": true,
            "errorInfo": "",
            "eventCount": 11,
            "feeRecipient": "0x77777a6c097a1ce65c61a96a49bd1100f660ec94",
            "formatValue": "0",
            "gasLimit": 271073,
            "gasPrice": "49.012724335",
            "gasUsed": 240830,
            "intTxnCount": 22,
            "internalRevert": false,
            "internalRevertMessage": "",
            "isContractCreation": false,
            "isFlashloan": false,
            "maxFee": "49.012724335",
            "nonce": 182,
            "overwritedBlockNumber": -1,
            "priorityFee": "49.012724335",
            "receiver": "0x6131b5fae19ea4f9d964eac0408e4408b66337b5",
            "revertMessage": "",
            "sender": "0x9109be7459922f937f9ae039b0ac815c3100d62e",
            "simulationEnable": true,
            "sourceTxnHash": "0x7bbc44ac6055cb820477925f715900c32e6a84940463208565257547e986dbeb",
            "status": true,
            "timestamp": "2023-12-04T03:39:59Z",
            "transactionFee": "0.01180373440159805",
            "txnHash": "0x7bbc44ac6055cb820477925f715900c32e6a84940463208565257547e986dbeb",
            "txnIndex": 34,
            "type": 2,
            "value": "0"
        },
        "fund_flow": [
            {
                "amount": "40",
                "from": "0x9109be7459922f937f9ae039b0ac815c3100d62e",
                "id": 1,
                "isERC1155": false,
                "isERC721": false,
                "isReverted": false,
                "order": 1,
                "to": "0x14fee680690900ba0cccfc76ad70fd1b95d10e16",
                "token": "0x14fee680690900ba0cccfc76ad70fd1b95d10e16"
            },
            {
                "amount": "960",
                "from": "0x9109be7459922f937f9ae039b0ac815c3100d62e",
                "id": 2,
                "isERC1155": false,
                "isERC721": false,
                "isReverted": false,
                "order": 2,
                "to": "0x2a6c340bcbb0a79d3deecd3bc5cbc2605ea9259f",
                "token": "0x14fee680690900ba0cccfc76ad70fd1b95d10e16"
            },
            {
                "amount": "0.06875783581010761",
                "from": "0x2a6c340bcbb0a79d3deecd3bc5cbc2605ea9259f",
                "id": 3,
                "isERC1155": false,
                "isERC721": false,
                "isReverted": false,
                "order": 3,
                "to": "0xf081470f5c6fbccf48cc4e5b82dd926409dcdd67",
                "token": "0xc02aaa39b223fe8d0a0e5c4f27ead9083c756cc2"
            },
            {
                "amount": "0.06875783581010761",
                "from": "0xc02aaa39b223fe8d0a0e5c4f27ead9083c756cc2",
                "id": 4,
                "isERC1155": false,
                "isERC721": false,
                "isReverted": false,
                "order": 4,
                "to": "0xf081470f5c6fbccf48cc4e5b82dd926409dcdd67",
                "token": "0xeeeeeeeeeeeeeeeeeeeeeeeeeeeeeeeeeeeeeeee"
            },
            {
                "amount": "0.06875783581010761",
                "from": "0xf081470f5c6fbccf48cc4e5b82dd926409dcdd67",
                "id": 5,
                "isERC1155": false,
                "isERC721": false,
                "isReverted": false,
                "order": 5,
                "to": "0xc02aaa39b223fe8d0a0e5c4f27ead9083c756cc2",
                "token": "0xc02aaa39b223fe8d0a0e5c4f27ead9083c756cc2"
            },
            {
                "amount": "0.068757835810107609",
                "from": "0xf081470f5c6fbccf48cc4e5b82dd926409dcdd67",
                "id": 6,
                "isERC1155": false,
                "isERC721": false,
                "isReverted": false,
                "order": 6,
                "to": "0x6131b5fae19ea4f9d964eac0408e4408b66337b5",
                "token": "0xeeeeeeeeeeeeeeeeeeeeeeeeeeeeeeeeeeeeeeee"
            },
            {
                "amount": "0.000206273507430322",
                "from": "0x6131b5fae19ea4f9d964eac0408e4408b66337b5",
                "id": 7,
                "isERC1155": false,
                "isERC721": false,
                "isReverted": false,
                "order": 7,
                "to": "0x96c195f6643a3d797cb90cb6ba0ae2776d51b5f3",
                "token": "0xeeeeeeeeeeeeeeeeeeeeeeeeeeeeeeeeeeeeeeee"
            },
            {
                "amount": "0.068551562302677287",
                "from": "0x6131b5fae19ea4f9d964eac0408e4408b66337b5",
                "id": 8,
                "isERC1155": false,
                "isERC721": false,
                "isReverted": false,
                "order": 8,
                "to": "0x9109be7459922f937f9ae039b0ac815c3100d62e",
                "token": "0xeeeeeeeeeeeeeeeeeeeeeeeeeeeeeeeeeeeeeeee"
            }
        ],
        "token_infos": [
            {
                "address": "0x14fee680690900ba0cccfc76ad70fd1b95d10e16",
                "decimals": 9
            },
            {
                "address": "0xc02aaa39b223fe8d0a0e5c4f27ead9083c756cc2",
                "decimals": 18
            },
            {
                "address": "0xeeeeeeeeeeeeeeeeeeeeeeeeeeeeeeeeeeeeeeee",
                "decimals": 18
            }
        ]
    },
    "address_label": {
        "labels": [
            {
                "address": "0xeeeeeeeeeeeeeeeeeeeeeeeeeeeeeeeeeeeeeeee",
                "label": "Ether"
            },
            {
                "address": "0x2a6c340bcbb0a79d3deecd3bc5cbc2605ea9259f",
                "label": "Uniswap V2: $PAAL"
            },
            {
                "address": "0x0000000000000000000000000000000000000003",
                "label": "Precompiled"
            },
            {
                "address": "0x0000000000000000000000000000000000000004",
                "label": "Precompiled"
            },
            {
                "address": "0xc02aaa39b223fe8d0a0e5c4f27ead9083c756cc2",
                "label": "Wrapped Ether (WETH)"
            },
            {
                "address": "0xf081470f5c6fbccf48cc4e5b82dd926409dcdd67",
                "label": "Kyber Network 0xf08147"
            },
            {
                "address": "0x14fee680690900ba0cccfc76ad70fd1b95d10e16",
                "label": "Paal AI: $PAAL Token"
            },
            {
                "address": "0x6131b5fae19ea4f9d964eac0408e4408b66337b5",
                "label": "KyberSwap: Meta Aggregation Router v2"
            },
            {
                "address": "0x0000000000000000000000000000000000000001",
                "label": "Precompiled"
            },
            {
                "address": "0x0000000000000000000000000000000000000002",
                "label": "Precompiled"
            }
        ]
    },
    "trace": {
        "accountLabels": null,
        "dataMap": {
            "-1": {
                "invocation": {
                    "address": "0x9109be7459922f937f9ae039b0ac815c3100d62e",
                    "callData": "",
                    "decodedMethod": null,
                    "errorInfo": "",
                    "fromAddress": "",
                    "gasUsed": 0,
                    "id": -1,
                    "methodDecoded": false,
                    "operation": "",
                    "output": "",
                    "revert": false,
                    "revertMessage": "",
                    "selector": "",
                    "status": false,
                    "value": ""
                },
                "nodeType": 0
            },
            "0": {
                "invocation": {
                    "address": "0x6131b5fae19ea4f9d964eac0408e4408b66337b5",
                    "callData": "0x000000000000000000000000f081470f5c6fbccf48cc4e5b82dd926409dcdd67000000000000000000000000000000000000000000000000000000000000008000000000000000000000000000000000000000000000000000000000000002c0000000000000000000000000000000000000000000000000000000000000068000000000000000000000000014fee680690900ba0cccfc76ad70fd1b95d10e16000000000000000000000000eeeeeeeeeeeeeeeeeeeeeeeeeeeeeeeeeeeeeeee0000000000000000000000000000000000000000000000000000000000000160000000000000000000000000000000000000000000000000000000000000018000000000000000000000000000000000000000000000000000000000000001a000000000000000000000000000000000000000000000000000000000000001e00000000000000000000000009109be7459922f937f9ae039b0ac815c3100d62e000000000000000000000000000000000000000000000000000000e8d4a5100000000000000000000000000000000000000000000000000000f1837a97f173ae00000000000000000000000000000000000000000000000000000000000000e0000000000000000000000000000000000000000000000000000000000000022000000000000000000000000000000000000000000000000000000000000000000000000000000000000000000000000000000000000000000000000000000000000000000000000000000000000000000000000000000000000000000000000100000000000000000000000096c195f6643a3d797cb90cb6ba0ae2776d51b5f30000000000000000000000000000000000000000000000000000000000000001000000000000000000000000000000000000000000000000000000000000001e000000000000000000000000000000000000000000000000000000000000000000000000000000000000000000000000000000000000000000000000000003a0000000000000000000000000000000000000000000000000000000000000002000000000000000000000000000000000000000000000000000000000000000a000000000000000000000000000000000000000000000000000000000000000e0000000000000000000000000000000000000000000000000000000000000012000000000000000000000000000000000000000000000000000000000656d4eae000000000000000000000000000000000000000000000000000000000000034000000000000000000000000000000000000000000000000000000000000000010000000000000000000000002a6c340bcbb0a79d3deecd3bc5cbc2605ea9259f0000000000000000000000000000000000000000000000000000000000000001000000000000000000000000000000000000000000000000000000e8d4a510000000000000000000000000000000000000000000000000000000000000000001000000000000000000000000000000000000000000000000000000000000002000000000000000000000000000000000000000000000000000000000000001c00000000000000000000000000000000000000000000000000000000000000020000000000000000000000000000000000000000000000000000000000000000100000000000000000000000000000000000000000000000000000000000000200000000000000000000000000000000000000000000000000000000000000040593611990000000000000000000000000000000000000000000000000000000100000000000000000000000000000000000000000000000000000000000001000000000000000000000000002a6c340bcbb0a79d3deecd3bc5cbc2605ea9259f00000000000000000000000014fee680690900ba0cccfc76ad70fd1b95d10e16000000000000000000000000c02aaa39b223fe8d0a0e5c4f27ead9083c756cc2000000000000000000000000f081470f5c6fbccf48cc4e5b82dd926409dcdd670000000000000000000000000000000000000000000000000000000000000000000000000000000000000000000000000000000000000000000000000000001e000000000000000000000000000000000000000000000000000000000000271000000000000000000000000000000000000000000000000000000000000000320000000000000000000000000000000000000000000000000000000000000020000000000000000000000010ad0811e5000000000000000000fe74406314baf200000000000000000000000000000000000000000000000000000000000001ed7b22536f75726365223a22646578746f6f6c73222c22416d6f756e74496e555344223a223135362e383836222c22416d6f756e744f7574555344223a223135382e30373935383735353035303832222c22526566657272616c223a22222c22466c616773223a312c22496e74656772697479496e666f223a7b224b65794944223a2231222c225369676e6174757265223a22466f69585668586c35566147656a4d4834513742314d2b69774d5159384145713534537951364d36586f336c51636f4e7751576e7a6f4d6562566146425738556b512f6a6750586b6f6353314f4f2f69686742554e6b684439455a556f2b3745586c71544e52746451384a726676716e356a4b3577363248506c7379497750534b734a4e74326877506439414a7254527447756a6b4f4d6d484159626c6546564b6e6a7571423661506933385354364e75654e7664704434485733346e465a324e424f6e675530445a47774c5a524642566f4b416935574837536464377631616c5067666a5443717753546b6173725178726e72356e7a705a61797937557152466557433467413159545544494b787a7954614e6c437a4e5152754c305478484c45754a36765a4765476b664e4d73732f78636c48503750485079365330534279794f674b5367426869504f76684f3935382f7736673d3d227d7d00000000000000000000000000000000000000",
                    "decodedMethod": {
                        "callParams": [
                            {
                                "name": "caller",
                                "type": "address",
                                "value": "0xf081470f5c6fbccf48cc4e5b82dd926409dcdd67"
                            },
                            {
                                "name": "desc",
                                "type": "(address,address,address[],uint256[],address[],uint256[],address,uint256,uint256,uint256,bytes)",
                                "value": [
                                    {
                                        "name": "srcToken",
                                        "type": "address",
                                        "value": "0x14fee680690900ba0cccfc76ad70fd1b95d10e16"
                                    },
                                    {
                                        "name": "dstToken",
                                        "type": "address",
                                        "value": "0xeeeeeeeeeeeeeeeeeeeeeeeeeeeeeeeeeeeeeeee"
                                    },
                                    {
                                        "name": "srcReceivers",
                                        "type": "address[]",
                                        "value": []
                                    },
                                    {
                                        "name": "srcAmounts",
                                        "type": "uint256[]",
                                        "value": []
                                    },
                                    {
                                        "name": "feeReceivers",
                                        "type": "address[]",
                                        "value": [
                                            "0x96c195f6643a3d797cb90cb6ba0ae2776d51b5f3"
                                        ]
                                    },
                                    {
                                        "name": "feeAmounts",
                                        "type": "uint256[]",
                                        "value": [
                                            "30"
                                        ]
                                    },
                                    {
                                        "name": "dstReceiver",
                                        "type": "address",
                                        "value": "0x9109be7459922f937f9ae039b0ac815c3100d62e"
                                    },
                                    {
                                        "name": "amount",
                                        "type": "uint256",
                                        "value": "1,000,000,000,000"
                                    },
                                    {
                                        "name": "minReturnAmount",
                                        "type": "uint256",
                                        "value": "67,980,031,945,700,270"
                                    },
                                    {
                                        "name": "flags",
                                        "type": "uint256",
                                        "value": "224"
                                    },
                                    {
                                        "name": "permit",
                                        "type": "bytes",
                                        "value": "0x"
                                    }
                                ]
                            },
                            {
                                "name": "executorData",
                                "type": "bytes",
                                "value": "0x000000000000000000000000000000000000000000000000000000000000002000000000000000000000000000000000000000000000000000000000000000a000000000000000000000000000000000000000000000000000000000000000e0000000000000000000000000000000000000000000000000000000000000012000000000000000000000000000000000000000000000000000000000656d4eae000000000000000000000000000000000000000000000000000000000000034000000000000000000000000000000000000000000000000000000000000000010000000000000000000000002a6c340bcbb0a79d3deecd3bc5cbc2605ea9259f0000000000000000000000000000000000000000000000000000000000000001000000000000000000000000000000000000000000000000000000e8d4a510000000000000000000000000000000000000000000000000000000000000000001000000000000000000000000000000000000000000000000000000000000002000000000000000000000000000000000000000000000000000000000000001c00000000000000000000000000000000000000000000000000000000000000020000000000000000000000000000000000000000000000000000000000000000100000000000000000000000000000000000000000000000000000000000000200000000000000000000000000000000000000000000000000000000000000040593611990000000000000000000000000000000000000000000000000000000100000000000000000000000000000000000000000000000000000000000001000000000000000000000000002a6c340bcbb0a79d3deecd3bc5cbc2605ea9259f00000000000000000000000014fee680690900ba0cccfc76ad70fd1b95d10e16000000000000000000000000c02aaa39b223fe8d0a0e5c4f27ead9083c756cc2000000000000000000000000f081470f5c6fbccf48cc4e5b82dd926409dcdd670000000000000000000000000000000000000000000000000000000000000000000000000000000000000000000000000000000000000000000000000000001e000000000000000000000000000000000000000000000000000000000000271000000000000000000000000000000000000000000000000000000000000000320000000000000000000000000000000000000000000000000000000000000020000000000000000000000010ad0811e5000000000000000000fe74406314baf2"
                            },
                            {
                                "name": "clientData",
                                "type": "bytes",
                                "value": "0x7b22536f75726365223a22646578746f6f6c73222c22416d6f756e74496e555344223a223135362e383836222c22416d6f756e744f7574555344223a223135382e30373935383735353035303832222c22526566657272616c223a22222c22466c616773223a312c22496e74656772697479496e666f223a7b224b65794944223a2231222c225369676e6174757265223a22466f69585668586c35566147656a4d4834513742314d2b69774d5159384145713534537951364d36586f336c51636f4e7751576e7a6f4d6562566146425738556b512f6a6750586b6f6353314f4f2f69686742554e6b684439455a556f2b3745586c71544e52746451384a726676716e356a4b3577363248506c7379497750534b734a4e74326877506439414a7254527447756a6b4f4d6d484159626c6546564b6e6a7571423661506933385354364e75654e7664704434485733346e465a324e424f6e675530445a47774c5a524642566f4b416935574837536464377631616c5067666a5443717753546b6173725178726e72356e7a705a61797937557152466557433467413159545544494b787a7954614e6c437a4e5152754c305478484c45754a36765a4765476b664e4d73732f78636c48503750485079365330534279794f674b5367426869504f76684f3935382f7736673d3d227d7d"
                            }
                        ],
                        "constructorArguments": "",
                        "name": "swapSimpleMode",
                        "returnParams": [
                            {
                                "name": "returnAmount",
                                "type": "uint256",
                                "value": "68,551,562,302,677,287"
                            },
                            {
                                "name": "gasUsed",
                                "type": "uint256",
                                "value": "203,259"
                            }
                        ],
                        "signature": "swapSimpleMode(address,(address,address,address[],uint256[],address[],uint256[],address,uint256,uint256,uint256,bytes),bytes,bytes)"
                    },
                    "errorInfo": "",
                    "fromAddress": "0x9109be7459922f937f9ae039b0ac815c3100d62e",
                    "gasUsed": 240830,
                    "id": 0,
                    "methodDecoded": true,
                    "operation": "CALL",
                    "output": "0x00000000000000000000000000000000000000000000000000f38b485fd9612700000000000000000000000000000000000000000000000000000000000319fb",
                    "revert": false,
                    "revertMessage": "",
                    "selector": "0x8af033fb",
                    "status": true,
                    "value": "0"
                },
                "nodeType": 0
            },
            "1": {
                "invocation": {
                    "address": "0x14fee680690900ba0cccfc76ad70fd1b95d10e16",
                    "callData": "0x0000000000000000000000009109be7459922f937f9ae039b0ac815c3100d62e",
                    "decodedMethod": {
                        "callParams": [
                            {
                                "name": "account",
                                "type": "address",
                                "value": "0x9109be7459922f937f9ae039b0ac815c3100d62e"
                            }
                        ],
                        "constructorArguments": "",
                        "name": "balanceOf",
                        "returnParams": [
                            {
                                "decimalAvailable": true,
                                "name": "",
                                "type": "uint256",
                                "value": "5,056,189,020,982"
                            }
                        ],
                        "signature": "balanceOf(address)"
                    },
                    "errorInfo": "",
                    "fromAddress": "0x6131b5fae19ea4f9d964eac0408e4408b66337b5",
                    "gasUsed": 2602,
                    "id": 1,
                    "methodDecoded": true,
                    "operation": "STATICCALL",
                    "output": "0x000000000000000000000000000000000000000000000000000004993c59bb36",
                    "revert": false,
                    "revertMessage": "",
                    "selector": "0x70a08231",
                    "status": true,
                    "value": "0"
                },
                "nodeType": 0
            },
            "10": {
                "invocation": {
                    "address": "0x14fee680690900ba0cccfc76ad70fd1b95d10e16",
                    "callData": "0x0000000000000000000000002a6c340bcbb0a79d3deecd3bc5cbc2605ea9259f",
                    "decodedMethod": {
                        "callParams": [
                            {
                                "name": "account",
                                "type": "address",
                                "value": "0x2a6c340bcbb0a79d3deecd3bc5cbc2605ea9259f"
                            }
                        ],
                        "constructorArguments": "",
                        "name": "balanceOf",
                        "returnParams": [
                            {
                                "decimalAvailable": true,
                                "name": "",
                                "type": "uint256",
                                "value": "10,140,895,021,970,881"
                            }
                        ],
                        "signature": "balanceOf(address)"
                    },
                    "errorInfo": "",
                    "fromAddress": "0xf081470f5c6fbccf48cc4e5b82dd926409dcdd67",
                    "gasUsed": 602,
                    "id": 10,
                    "methodDecoded": true,
                    "operation": "STATICCALL",
                    "output": "0x000000000000000000000000000000000000000000000000002407171d7d35c1",
                    "revert": false,
                    "revertMessage": "",
                    "selector": "0x70a08231",
                    "status": true,
                    "value": "0"
                },
                "nodeType": 0
            },
            "11": {
                "invocation": {
                    "address": "0xcde3eb49d53d932c605efbc1bc425c6affa5eac2",
                    "callData": "0x000000000000000000000000000000000000000000000000000000df84758000000000000000000000000000000000000000000000000000002406379907b5c10000000000000000000000000000000000000000000000277e064e32cb0230c400000000000000000000000000000000000000000000000000000000000000320000000000000000000000000000000000000000000000000000000000000032000000000000000000000000000000000000000000000000000000000000001e0000000000000000000000000000000000000000000000000000000000002710",
                    "decodedMethod": null,
                    "errorInfo": "",
                    "fromAddress": "0xf081470f5c6fbccf48cc4e5b82dd926409dcdd67",
                    "gasUsed": 1515,
                    "id": 11,
                    "methodDecoded": false,
                    "operation": "STATICCALL",
                    "output": "0x00000000000000000000000000000000000000000000000000f446e32afc70da",
                    "revert": false,
                    "revertMessage": "",
                    "selector": "0xf87576e8",
                    "status": true,
                    "value": "0"
                },
                "nodeType": 0
            },
            "12": {
                "invocation": {
                    "address": "0x2a6c340bcbb0a79d3deecd3bc5cbc2605ea9259f",
                    "callData": "0x000000000000000000000000000000000000000000000000000000000000000000000000000000000000000000000000000000000000000000f446e32afc70da000000000000000000000000f081470f5c6fbccf48cc4e5b82dd926409dcdd6700000000000000000000000000000000000000000000000000000000000000800000000000000000000000000000000000000000000000000000000000000000",
                    "decodedMethod": {
                        "callParams": [
                            {
                                "name": "amount0Out",
                                "type": "uint256",
                                "value": "0"
                            },
                            {
                                "name": "amount1Out",
                                "type": "uint256",
                                "value": "68,757,835,810,107,610"
                            },
                            {
                                "name": "to",
                                "type": "address",
                                "value": "0xf081470f5c6fbccf48cc4e5b82dd926409dcdd67"
                            },
                            {
                                "name": "data",
                                "type": "bytes",
                                "value": "0x"
                            }
                        ],
                        "constructorArguments": "",
                        "name": "swap",
                        "returnParams": [],
                        "signature": "swap(uint256,uint256,address,bytes)"
                    },
                    "errorInfo": "",
                    "fromAddress": "0xf081470f5c6fbccf48cc4e5b82dd926409dcdd67",
                    "gasUsed": 47821,
                    "id": 12,
                    "methodDecoded": true,
                    "operation": "CALL",
                    "output": "",
                    "revert": false,
                    "revertMessage": "",
                    "selector": "0x022c0d9f",
                    "status": true,
                    "value": "0"
                },
                "nodeType": 0
            },
            "13": {
                "invocation": {
                    "address": "0xc02aaa39b223fe8d0a0e5c4f27ead9083c756cc2",
                    "callData": "0x000000000000000000000000f081470f5c6fbccf48cc4e5b82dd926409dcdd6700000000000000000000000000000000000000000000000000f446e32afc70da",
                    "decodedMethod": {
                        "callParams": [
                            {
                                "name": "dst",
                                "type": "address",
                                "value": "0xf081470f5c6fbccf48cc4e5b82dd926409dcdd67"
                            },
                            {
                                "decimalAvailable": true,
                                "name": "wad",
                                "type": "uint256",
                                "value": "68,757,835,810,107,610"
                            }
                        ],
                        "constructorArguments": "",
                        "name": "transfer",
                        "returnParams": [
                            {
                                "name": "",
                                "type": "bool",
                                "value": true
                            }
                        ],
                        "signature": "transfer(address,uint256)"
                    },
                    "errorInfo": "",
                    "fromAddress": "0x2a6c340bcbb0a79d3deecd3bc5cbc2605ea9259f",
                    "gasUsed": 12862,
                    "id": 13,
                    "methodDecoded": true,
                    "operation": "CALL",
                    "output": "0x0000000000000000000000000000000000000000000000000000000000000001",
                    "revert": false,
                    "revertMessage": "",
                    "selector": "0xa9059cbb",
                    "status": true,
                    "value": "0"
                },
                "nodeType": 0
            },
            "14": {
                "event": {
                    "contract": "0xc02aaa39b223fe8d0a0e5c4f27ead9083c756cc2",
                    "decodedLog": {
                        "name": "Transfer",
                        "params": [
                            {
                                "name": "src",
                                "type": "address",
                                "value": "0x2a6c340bcbb0a79d3deecd3bc5cbc2605ea9259f"
                            },
                            {
                                "name": "dst",
                                "type": "address",
                                "value": "0xf081470f5c6fbccf48cc4e5b82dd926409dcdd67"
                            },
                            {
                                "decimalAvailable": true,
                                "name": "wad",
                                "type": "uint256",
                                "value": "68,757,835,810,107,610"
                            }
                        ],
                        "signature": "Transfer(address,address,uint256)"
                    },
                    "id": 14,
                    "logData": "0x00000000000000000000000000000000000000000000000000f446e32afc70da",
                    "logDecoded": true,
                    "operation": "EVENT",
                    "revert": false,
                    "status": true,
                    "topics": [
                        "0xddf252ad1be2c89b69c2b068fc378daa952ba7f163c4a11628f55a4df523b3ef",
                        "0x0000000000000000000000002a6c340bcbb0a79d3deecd3bc5cbc2605ea9259f",
                        "0x000000000000000000000000f081470f5c6fbccf48cc4e5b82dd926409dcdd67"
                    ]
                },
                "nodeType": 1
            },
            "15": {
                "invocation": {
                    "address": "0x14fee680690900ba0cccfc76ad70fd1b95d10e16",
                    "callData": "0x0000000000000000000000002a6c340bcbb0a79d3deecd3bc5cbc2605ea9259f",
                    "decodedMethod": {
                        "callParams": [
                            {
                                "name": "account",
                                "type": "address",
                                "value": "0x2a6c340bcbb0a79d3deecd3bc5cbc2605ea9259f"
                            }
                        ],
                        "constructorArguments": "",
                        "name": "balanceOf",
                        "returnParams": [
                            {
                                "decimalAvailable": true,
                                "name": "",
                                "type": "uint256",
                                "value": "10,140,895,021,970,881"
                            }
                        ],
                        "signature": "balanceOf(address)"
                    },
                    "errorInfo": "",
                    "fromAddress": "0x2a6c340bcbb0a79d3deecd3bc5cbc2605ea9259f",
                    "gasUsed": 602,
                    "id": 15,
                    "methodDecoded": true,
                    "operation": "STATICCALL",
                    "output": "0x000000000000000000000000000000000000000000000000002407171d7d35c1",
                    "revert": false,
                    "revertMessage": "",
                    "selector": "0x70a08231",
                    "status": true,
                    "value": "0"
                },
                "nodeType": 0
            },
            "16": {
                "invocation": {
                    "address": "0xc02aaa39b223fe8d0a0e5c4f27ead9083c756cc2",
                    "callData": "0x0000000000000000000000002a6c340bcbb0a79d3deecd3bc5cbc2605ea9259f",
                    "decodedMethod": {
                        "callParams": [
                            {
                                "name": "",
                                "type": "address",
                                "value": "0x2a6c340bcbb0a79d3deecd3bc5cbc2605ea9259f"
                            }
                        ],
                        "constructorArguments": "",
                        "name": "balanceOf",
                        "returnParams": [
                            {
                                "decimalAvailable": true,
                                "name": "",
                                "type": "uint256",
                                "value": "728,435,292,717,562,839,018"
                            }
                        ],
                        "signature": "balanceOf(address)"
                    },
                    "errorInfo": "",
                    "fromAddress": "0x2a6c340bcbb0a79d3deecd3bc5cbc2605ea9259f",
                    "gasUsed": 534,
                    "id": 16,
                    "methodDecoded": true,
                    "operation": "STATICCALL",
                    "output": "0x0000000000000000000000000000000000000000000000277d12074fa005bfea",
                    "revert": false,
                    "revertMessage": "",
                    "selector": "0x70a08231",
                    "status": true,
                    "value": "0"
                },
                "nodeType": 0
            },
            "17": {
                "event": {
                    "contract": "0x2a6c340bcbb0a79d3deecd3bc5cbc2605ea9259f",
                    "decodedLog": {
                        "name": "Sync",
                        "params": [
                            {
                                "name": "reserve0",
                                "type": "uint112",
                                "value": "10,140,895,021,970,881"
                            },
                            {
                                "name": "reserve1",
                                "type": "uint112",
                                "value": "728,435,292,717,562,839,018"
                            }
                        ],
                        "signature": "Sync(uint112,uint112)"
                    },
                    "id": 17,
                    "logData": "0x000000000000000000000000000000000000000000000000002407171d7d35c10000000000000000000000000000000000000000000000277d12074fa005bfea",
                    "logDecoded": true,
                    "operation": "EVENT",
                    "revert": false,
                    "status": true,
                    "topics": [
                        "0x1c411e9a96e071241c2f21f7726b17ae89e3cab4c78be50e062b03a9fffbbad1"
                    ]
                },
                "nodeType": 1
            },
            "18": {
                "event": {
                    "contract": "0x2a6c340bcbb0a79d3deecd3bc5cbc2605ea9259f",
                    "decodedLog": {
                        "name": "Swap",
                        "params": [
                            {
                                "name": "sender",
                                "type": "address",
                                "value": "0xf081470f5c6fbccf48cc4e5b82dd926409dcdd67"
                            },
                            {
                                "name": "to",
                                "type": "address",
                                "value": "0xf081470f5c6fbccf48cc4e5b82dd926409dcdd67"
                            },
                            {
                                "name": "amount0In",
                                "type": "uint256",
                                "value": "960,000,000,000"
                            },
                            {
                                "name": "amount1In",
                                "type": "uint256",
                                "value": "0"
                            },
                            {
                                "name": "amount0Out",
                                "type": "uint256",
                                "value": "0"
                            },
                            {
                                "name": "amount1Out",
                                "type": "uint256",
                                "value": "68,757,835,810,107,610"
                            }
                        ],
                        "signature": "Swap(address,uint256,uint256,uint256,uint256,address)"
                    },
                    "id": 18,
                    "logData": "0x000000000000000000000000000000000000000000000000000000df847580000000000000000000000000000000000000000000000000000000000000000000000000000000000000000000000000000000000000000000000000000000000000000000000000000000000000000000000000000000000000f446e32afc70da",
                    "logDecoded": true,
                    "operation": "EVENT",
                    "revert": false,
                    "status": true,
                    "topics": [
                        "0xd78ad95fa46c994b6551d0da85fc275fe613ce37657fb8d5e3d130840159d822",
                        "0x000000000000000000000000f081470f5c6fbccf48cc4e5b82dd926409dcdd67",
                        "0x000000000000000000000000f081470f5c6fbccf48cc4e5b82dd926409dcdd67"
                    ]
                },
                "nodeType": 1
            },
            "19": {
                "event": {
                    "contract": "0xf081470f5c6fbccf48cc4e5b82dd926409dcdd67",
                    "decodedLog": {
                        "name": "Exchange",
                        "params": [
                            {
                                "name": "pair",
                                "type": "address",
                                "value": "0x2a6c340bcbb0a79d3deecd3bc5cbc2605ea9259f"
                            },
                            {
                                "name": "amountOut",
                                "type": "uint256",
                                "value": "68,757,835,810,107,610"
                            },
                            {
                                "name": "output",
                                "type": "address",
                                "value": "0xc02aaa39b223fe8d0a0e5c4f27ead9083c756cc2"
                            }
                        ],
                        "signature": "Exchange(address,uint256,address)"
                    },
                    "id": 19,
                    "logData": "0x0000000000000000000000002a6c340bcbb0a79d3deecd3bc5cbc2605ea9259f00000000000000000000000000000000000000000000000000f446e32afc70da000000000000000000000000c02aaa39b223fe8d0a0e5c4f27ead9083c756cc2",
                    "logDecoded": true,
                    "operation": "EVENT",
                    "revert": false,
                    "status": true,
                    "topics": [
                        "0xddac40937f35385a34f721af292e5a83fc5b840f722bff57c2fc71adba708c48"
                    ]
                },
                "nodeType": 1
            },
            "2": {
                "invocation": {
                    "address": "0x14fee680690900ba0cccfc76ad70fd1b95d10e16",
                    "callData": "0x0000000000000000000000009109be7459922f937f9ae039b0ac815c3100d62e",
                    "decodedMethod": {
                        "callParams": [
                            {
                                "name": "account",
                                "type": "address",
                                "value": "0x9109be7459922f937f9ae039b0ac815c3100d62e"
                            }
                        ],
                        "constructorArguments": "",
                        "name": "balanceOf",
                        "returnParams": [
                            {
                                "decimalAvailable": true,
                                "name": "",
                                "type": "uint256",
                                "value": "5,056,189,020,982"
                            }
                        ],
                        "signature": "balanceOf(address)"
                    },
                    "errorInfo": "",
                    "fromAddress": "0x6131b5fae19ea4f9d964eac0408e4408b66337b5",
                    "gasUsed": 602,
                    "id": 2,
                    "methodDecoded": true,
                    "operation": "STATICCALL",
                    "output": "0x000000000000000000000000000000000000000000000000000004993c59bb36",
                    "revert": false,
                    "revertMessage": "",
                    "selector": "0x70a08231",
                    "status": true,
                    "value": "0"
                },
                "nodeType": 0
            },
            "20": {
                "invocation": {
                    "address": "0xf081470f5c6fbccf48cc4e5b82dd926409dcdd67",
                    "callData": "0x00000000000000000000000014fee680690900ba0cccfc76ad70fd1b95d10e16000000000000000000000000eeeeeeeeeeeeeeeeeeeeeeeeeeeeeeeeeeeeeeee0000000000000000000000006131b5fae19ea4f9d964eac0408e4408b66337b500000000000000000000000000000000000000000000000000000000000000800000000000000000000000000000000000000000000000000000000000000020000000000000000000000010ad0811e5000000000000000000fe74406314baf2",
                    "decodedMethod": null,
                    "errorInfo": "",
                    "fromAddress": "0x6131b5fae19ea4f9d964eac0408e4408b66337b5",
                    "gasUsed": 22921,
                    "id": 20,
                    "methodDecoded": false,
                    "operation": "CALL",
                    "output": "",
                    "revert": false,
                    "revertMessage": "",
                    "selector": "0x774b6b7e",
                    "status": true,
                    "value": "0"
                },
                "nodeType": 0
            },
            "21": {
                "invocation": {
                    "address": "0xc02aaa39b223fe8d0a0e5c4f27ead9083c756cc2",
                    "callData": "0x000000000000000000000000f081470f5c6fbccf48cc4e5b82dd926409dcdd67",
                    "decodedMethod": {
                        "callParams": [
                            {
                                "name": "",
                                "type": "address",
                                "value": "0xf081470f5c6fbccf48cc4e5b82dd926409dcdd67"
                            }
                        ],
                        "constructorArguments": "",
                        "name": "balanceOf",
                        "returnParams": [
                            {
                                "decimalAvailable": true,
                                "name": "",
                                "type": "uint256",
                                "value": "68,757,835,810,107,611"
                            }
                        ],
                        "signature": "balanceOf(address)"
                    },
                    "errorInfo": "",
                    "fromAddress": "0xf081470f5c6fbccf48cc4e5b82dd926409dcdd67",
                    "gasUsed": 534,
                    "id": 21,
                    "methodDecoded": true,
                    "operation": "STATICCALL",
                    "output": "0x00000000000000000000000000000000000000000000000000f446e32afc70db",
                    "revert": false,
                    "revertMessage": "",
                    "selector": "0x70a08231",
                    "status": true,
                    "value": "0"
                },
                "nodeType": 0
            },
            "22": {
                "invocation": {
                    "address": "0xc02aaa39b223fe8d0a0e5c4f27ead9083c756cc2",
                    "callData": "0x00000000000000000000000000000000000000000000000000f446e32afc70da",
                    "decodedMethod": {
                        "callParams": [
                            {
                                "name": "wad",
                                "type": "uint256",
                                "value": "68,757,835,810,107,610"
                            }
                        ],
                        "constructorArguments": "",
                        "name": "withdraw",
                        "returnParams": [],
                        "signature": "withdraw(uint256)"
                    },
                    "errorInfo": "",
                    "fromAddress": "0xf081470f5c6fbccf48cc4e5b82dd926409dcdd67",
                    "gasUsed": 9195,
                    "id": 22,
                    "methodDecoded": true,
                    "operation": "CALL",
                    "output": "",
                    "revert": false,
                    "revertMessage": "",
                    "selector": "0x2e1a7d4d",
                    "status": true,
                    "value": "0"
                },
                "nodeType": 0
            },
            "23": {
                "invocation": {
                    "address": "0xf081470f5c6fbccf48cc4e5b82dd926409dcdd67",
                    "callData": "0x",
                    "decodedMethod": null,
                    "errorInfo": "",
                    "fromAddress": "0xc02aaa39b223fe8d0a0e5c4f27ead9083c756cc2",
                    "gasUsed": 55,
                    "id": 23,
                    "methodDecoded": false,
                    "operation": "CALL",
                    "output": "",
                    "revert": false,
                    "revertMessage": "",
                    "selector": "fallback",
                    "status": true,
                    "value": "0.06875783581010761"
                },
                "nodeType": 0
            },
            "24": {
                "event": {
                    "contract": "0xc02aaa39b223fe8d0a0e5c4f27ead9083c756cc2",
                    "decodedLog": {
                        "name": "Withdrawal",
                        "params": [
                            {
                                "name": "src",
                                "type": "address",
                                "value": "0xf081470f5c6fbccf48cc4e5b82dd926409dcdd67"
                            },
                            {
                                "name": "wad",
                                "type": "uint256",
                                "value": "68,757,835,810,107,610"
                            }
                        ],
                        "signature": "Withdrawal(address,uint256)"
                    },
                    "id": 24,
                    "logData": "0x00000000000000000000000000000000000000000000000000f446e32afc70da",
                    "logDecoded": true,
                    "operation": "EVENT",
                    "revert": false,
                    "status": true,
                    "topics": [
                        "0x7fcf532c15f0a6db0bd6d0e038bea71d30d808c7d98cb3bf7268a95bf5081b65",
                        "0x000000000000000000000000f081470f5c6fbccf48cc4e5b82dd926409dcdd67"
                    ]
                },
                "nodeType": 1
            },
            "25": {
                "invocation": {
                    "address": "0x14fee680690900ba0cccfc76ad70fd1b95d10e16",
                    "callData": "0x000000000000000000000000f081470f5c6fbccf48cc4e5b82dd926409dcdd67",
                    "decodedMethod": {
                        "callParams": [
                            {
                                "name": "account",
                                "type": "address",
                                "value": "0xf081470f5c6fbccf48cc4e5b82dd926409dcdd67"
                            }
                        ],
                        "constructorArguments": "",
                        "name": "balanceOf",
                        "returnParams": [
                            {
                                "decimalAvailable": true,
                                "name": "",
                                "type": "uint256",
                                "value": "1"
                            }
                        ],
                        "signature": "balanceOf(address)"
                    },
                    "errorInfo": "",
                    "fromAddress": "0xf081470f5c6fbccf48cc4e5b82dd926409dcdd67",
                    "gasUsed": 2602,
                    "id": 25,
                    "methodDecoded": true,
                    "operation": "STATICCALL",
                    "output": "0x0000000000000000000000000000000000000000000000000000000000000001",
                    "revert": false,
                    "revertMessage": "",
                    "selector": "0x70a08231",
                    "status": true,
                    "value": "0"
                },
                "nodeType": 0
            },
            "26": {
                "invocation": {
                    "address": "0x6131b5fae19ea4f9d964eac0408e4408b66337b5",
                    "callData": "0x",
                    "decodedMethod": null,
                    "errorInfo": "",
                    "fromAddress": "0xf081470f5c6fbccf48cc4e5b82dd926409dcdd67",
                    "gasUsed": 55,
                    "id": 26,
                    "methodDecoded": false,
                    "operation": "CALL",
                    "output": "",
                    "revert": false,
                    "revertMessage": "",
                    "selector": "fallback",
                    "status": true,
                    "value": "0.068757835810107609"
                },
                "nodeType": 0
            },
            "27": {
                "invocation": {
                    "address": "0x96c195f6643a3d797cb90cb6ba0ae2776d51b5f3",
                    "callData": "0x",
                    "decodedMethod": null,
                    "errorInfo": "",
                    "fromAddress": "0x6131b5fae19ea4f9d964eac0408e4408b66337b5",
                    "gasUsed": 0,
                    "id": 27,
                    "methodDecoded": false,
                    "operation": "CALL",
                    "output": "",
                    "revert": false,
                    "revertMessage": "",
                    "selector": "fallback",
                    "status": true,
                    "value": "0.000206273507430322"
                },
                "nodeType": 0
            },
            "28": {
                "event": {
                    "contract": "0x6131b5fae19ea4f9d964eac0408e4408b66337b5",
                    "decodedLog": {
                        "name": "Fee",
                        "params": [
                            {
                                "name": "token",
                                "type": "address",
                                "value": "0xeeeeeeeeeeeeeeeeeeeeeeeeeeeeeeeeeeeeeeee"
                            },
                            {
                                "name": "totalAmount",
                                "type": "uint256",
                                "value": "68,757,835,810,107,609"
                            },
                            {
                                "name": "totalFee",
                                "type": "uint256",
                                "value": "206,273,507,430,322"
                            },
                            {
                                "name": "recipients",
                                "type": "address[]",
                                "value": [
                                    "0x96c195f6643a3d797cb90cb6ba0ae2776d51b5f3"
                                ]
                            },
                            {
                                "name": "amounts",
                                "type": "uint256[]",
                                "value": [
                                    "30"
                                ]
                            },
                            {
                                "name": "isBps",
                                "type": "bool",
                                "value": true
                            }
                        ],
                        "signature": "Fee(address,uint256,uint256,address[],uint256[],bool)"
                    },
                    "id": 28,
                    "logData": "0x000000000000000000000000eeeeeeeeeeeeeeeeeeeeeeeeeeeeeeeeeeeeeeee00000000000000000000000000000000000000000000000000f446e32afc70d90000000000000000000000000000000000000000000000000000bb9acb230fb200000000000000000000000000000000000000000000000000000000000000c000000000000000000000000000000000000000000000000000000000000001000000000000000000000000000000000000000000000000000000000000000001000000000000000000000000000000000000000000000000000000000000000100000000000000000000000096c195f6643a3d797cb90cb6ba0ae2776d51b5f30000000000000000000000000000000000000000000000000000000000000001000000000000000000000000000000000000000000000000000000000000001e",
                    "logDecoded": true,
                    "operation": "EVENT",
                    "revert": false,
                    "status": true,
                    "topics": [
                        "0x4c39b7ce5f4f514f45cb6f82b171b8b0b7f2cbf488ad28e4eff451588e2f014b"
                    ]
                },
                "nodeType": 1
            },
            "29": {
                "invocation": {
                    "address": "0x9109be7459922f937f9ae039b0ac815c3100d62e",
                    "callData": "0x",
                    "decodedMethod": null,
                    "errorInfo": "",
                    "fromAddress": "0x6131b5fae19ea4f9d964eac0408e4408b66337b5",
                    "gasUsed": 0,
                    "id": 29,
                    "methodDecoded": false,
                    "operation": "CALL",
                    "output": "",
                    "revert": false,
                    "revertMessage": "",
                    "selector": "fallback",
                    "status": true,
                    "value": "0.068551562302677287"
                },
                "nodeType": 0
            },
            "3": {
                "invocation": {
                    "address": "0x14fee680690900ba0cccfc76ad70fd1b95d10e16",
                    "callData": "0x0000000000000000000000009109be7459922f937f9ae039b0ac815c3100d62e0000000000000000000000002a6c340bcbb0a79d3deecd3bc5cbc2605ea9259f000000000000000000000000000000000000000000000000000000e8d4a51000",
                    "decodedMethod": {
                        "callParams": [
                            {
                                "name": "sender",
                                "type": "address",
                                "value": "0x9109be7459922f937f9ae039b0ac815c3100d62e"
                            },
                            {
                                "name": "recipient",
                                "type": "address",
                                "value": "0x2a6c340bcbb0a79d3deecd3bc5cbc2605ea9259f"
                            },
                            {
                                "decimalAvailable": true,
                                "name": "amount",
                                "type": "uint256",
                                "value": "1,000,000,000,000"
                            }
                        ],
                        "constructorArguments": "",
                        "name": "transferFrom",
                        "returnParams": [
                            {
                                "name": "",
                                "type": "bool",
                                "value": true
                            }
                        ],
                        "signature": "transferFrom(address,address,uint256)"
                    },
                    "errorInfo": "",
                    "fromAddress": "0x6131b5fae19ea4f9d964eac0408e4408b66337b5",
                    "gasUsed": 49515,
                    "id": 3,
                    "methodDecoded": true,
                    "operation": "CALL",
                    "output": "0x0000000000000000000000000000000000000000000000000000000000000001",
                    "revert": false,
                    "revertMessage": "",
                    "selector": "0x23b872dd",
                    "status": true,
                    "value": "0"
                },
                "nodeType": 0
            },
            "30": {
                "invocation": {
                    "address": "0x14fee680690900ba0cccfc76ad70fd1b95d10e16",
                    "callData": "0x0000000000000000000000009109be7459922f937f9ae039b0ac815c3100d62e",
                    "decodedMethod": {
                        "callParams": [
                            {
                                "name": "account",
                                "type": "address",
                                "value": "0x9109be7459922f937f9ae039b0ac815c3100d62e"
                            }
                        ],
                        "constructorArguments": "",
                        "name": "balanceOf",
                        "returnParams": [
                            {
                                "decimalAvailable": true,
                                "name": "",
                                "type": "uint256",
                                "value": "4,056,189,020,982"
                            }
                        ],
                        "signature": "balanceOf(address)"
                    },
                    "errorInfo": "",
                    "fromAddress": "0x6131b5fae19ea4f9d964eac0408e4408b66337b5",
                    "gasUsed": 602,
                    "id": 30,
                    "methodDecoded": true,
                    "operation": "STATICCALL",
                    "output": "0x000000000000000000000000000000000000000000000000000003b067b4ab36",
                    "revert": false,
                    "revertMessage": "",
                    "selector": "0x70a08231",
                    "status": true,
                    "value": "0"
                },
                "nodeType": 0
            },
            "31": {
                "event": {
                    "contract": "0x6131b5fae19ea4f9d964eac0408e4408b66337b5",
                    "decodedLog": {
                        "name": "Swapped",
                        "params": [
                            {
                                "name": "sender",
                                "type": "address",
                                "value": "0x9109be7459922f937f9ae039b0ac815c3100d62e"
                            },
                            {
                                "name": "srcToken",
                                "type": "address",
                                "value": "0x14fee680690900ba0cccfc76ad70fd1b95d10e16"
                            },
                            {
                                "name": "dstToken",
                                "type": "address",
                                "value": "0xeeeeeeeeeeeeeeeeeeeeeeeeeeeeeeeeeeeeeeee"
                            },
                            {
                                "name": "dstReceiver",
                                "type": "address",
                                "value": "0x9109be7459922f937f9ae039b0ac815c3100d62e"
                            },
                            {
                                "name": "spentAmount",
                                "type": "uint256",
                                "value": "1,000,000,000,000"
                            },
                            {
                                "name": "returnAmount",
                                "type": "uint256",
                                "value": "68,551,562,302,677,287"
                            }
                        ],
                        "signature": "Swapped(address,address,address,address,uint256,uint256)"
                    },
                    "id": 31,
                    "logData": "0x0000000000000000000000009109be7459922f937f9ae039b0ac815c3100d62e00000000000000000000000014fee680690900ba0cccfc76ad70fd1b95d10e16000000000000000000000000eeeeeeeeeeeeeeeeeeeeeeeeeeeeeeeeeeeeeeee0000000000000000000000009109be7459922f937f9ae039b0ac815c3100d62e000000000000000000000000000000000000000000000000000000e8d4a5100000000000000000000000000000000000000000000000000000f38b485fd96127",
                    "logDecoded": true,
                    "operation": "EVENT",
                    "revert": false,
                    "status": true,
                    "topics": [
                        "0xd6d4f5681c246c9f42c203e287975af1601f8df8035a9251f79aab5c8f09e2f8"
                    ]
                },
                "nodeType": 1
            },
            "32": {
                "event": {
                    "contract": "0x6131b5fae19ea4f9d964eac0408e4408b66337b5",
                    "decodedLog": {
                        "name": "Exchange",
                        "params": [
                            {
                                "name": "pair",
                                "type": "address",
                                "value": "0xf081470f5c6fbccf48cc4e5b82dd926409dcdd67"
                            },
                            {
                                "name": "amountOut",
                                "type": "uint256",
                                "value": "68,551,562,302,677,287"
                            },
                            {
                                "name": "output",
                                "type": "address",
                                "value": "0xc02aaa39b223fe8d0a0e5c4f27ead9083c756cc2"
                            }
                        ],
                        "signature": "Exchange(address,uint256,address)"
                    },
                    "id": 32,
                    "logData": "0x000000000000000000000000f081470f5c6fbccf48cc4e5b82dd926409dcdd6700000000000000000000000000000000000000000000000000f38b485fd96127000000000000000000000000c02aaa39b223fe8d0a0e5c4f27ead9083c756cc2",
                    "logDecoded": true,
                    "operation": "EVENT",
                    "revert": false,
                    "status": true,
                    "topics": [
                        "0xddac40937f35385a34f721af292e5a83fc5b840f722bff57c2fc71adba708c48"
                    ]
                },
                "nodeType": 1
            },
            "33": {
                "event": {
                    "contract": "0x6131b5fae19ea4f9d964eac0408e4408b66337b5",
                    "decodedLog": {
                        "name": "ClientData",
                        "params": [
                            {
                                "name": "clientData",
                                "type": "bytes",
                                "value": "0x7b22536f75726365223a22646578746f6f6c73222c22416d6f756e74496e555344223a223135362e383836222c22416d6f756e744f7574555344223a223135382e30373935383735353035303832222c22526566657272616c223a22222c22466c616773223a312c22496e74656772697479496e666f223a7b224b65794944223a2231222c225369676e6174757265223a22466f69585668586c35566147656a4d4834513742314d2b69774d5159384145713534537951364d36586f336c51636f4e7751576e7a6f4d6562566146425738556b512f6a6750586b6f6353314f4f2f69686742554e6b684439455a556f2b3745586c71544e52746451384a726676716e356a4b3577363248506c7379497750534b734a4e74326877506439414a7254527447756a6b4f4d6d484159626c6546564b6e6a7571423661506933385354364e75654e7664704434485733346e465a324e424f6e675530445a47774c5a524642566f4b416935574837536464377631616c5067666a5443717753546b6173725178726e72356e7a705a61797937557152466557433467413159545544494b787a7954614e6c437a4e5152754c305478484c45754a36765a4765476b664e4d73732f78636c48503750485079365330534279794f674b5367426869504f76684f3935382f7736673d3d227d7d"
                            }
                        ],
                        "signature": "ClientData(bytes)"
                    },
                    "id": 33,
                    "logData": "0x000000000000000000000000000000000000000000000000000000000000002000000000000000000000000000000000000000000000000000000000000001ed7b22536f75726365223a22646578746f6f6c73222c22416d6f756e74496e555344223a223135362e383836222c22416d6f756e744f7574555344223a223135382e30373935383735353035303832222c22526566657272616c223a22222c22466c616773223a312c22496e74656772697479496e666f223a7b224b65794944223a2231222c225369676e6174757265223a22466f69585668586c35566147656a4d4834513742314d2b69774d5159384145713534537951364d36586f336c51636f4e7751576e7a6f4d6562566146425738556b512f6a6750586b6f6353314f4f2f69686742554e6b684439455a556f2b3745586c71544e52746451384a726676716e356a4b3577363248506c7379497750534b734a4e74326877506439414a7254527447756a6b4f4d6d484159626c6546564b6e6a7571423661506933385354364e75654e7664704434485733346e465a324e424f6e675530445a47774c5a524642566f4b416935574837536464377631616c5067666a5443717753546b6173725178726e72356e7a705a61797937557152466557433467413159545544494b787a7954614e6c437a4e5152754c305478484c45754a36765a4765476b664e4d73732f78636c48503750485079365330534279794f674b5367426869504f76684f3935382f7736673d3d227d7d00000000000000000000000000000000000000",
                    "logDecoded": true,
                    "operation": "EVENT",
                    "revert": false,
                    "status": true,
                    "topics": [
                        "0x095e66fa4dd6a6f7b43fb8444a7bd0edb870508c7abf639bc216efb0bcff9779"
                    ]
                },
                "nodeType": 1
            },
            "4": {
                "event": {
                    "contract": "0x14fee680690900ba0cccfc76ad70fd1b95d10e16",
                    "decodedLog": {
                        "name": "Transfer",
                        "params": [
                            {
                                "name": "from",
                                "type": "address",
                                "value": "0x9109be7459922f937f9ae039b0ac815c3100d62e"
                            },
                            {
                                "name": "to",
                                "type": "address",
                                "value": "0x14fee680690900ba0cccfc76ad70fd1b95d10e16"
                            },
                            {
                                "decimalAvailable": true,
                                "name": "value",
                                "type": "uint256",
                                "value": "40,000,000,000"
                            }
                        ],
                        "signature": "Transfer(address,address,uint256)"
                    },
                    "id": 4,
                    "logData": "0x00000000000000000000000000000000000000000000000000000009502f9000",
                    "logDecoded": true,
                    "operation": "EVENT",
                    "revert": false,
                    "status": true,
                    "topics": [
                        "0xddf252ad1be2c89b69c2b068fc378daa952ba7f163c4a11628f55a4df523b3ef",
                        "0x0000000000000000000000009109be7459922f937f9ae039b0ac815c3100d62e",
                        "0x00000000000000000000000014fee680690900ba0cccfc76ad70fd1b95d10e16"
                    ]
                },
                "nodeType": 1
            },
            "5": {
                "event": {
                    "contract": "0x14fee680690900ba0cccfc76ad70fd1b95d10e16",
                    "decodedLog": {
                        "name": "Transfer",
                        "params": [
                            {
                                "name": "from",
                                "type": "address",
                                "value": "0x9109be7459922f937f9ae039b0ac815c3100d62e"
                            },
                            {
                                "name": "to",
                                "type": "address",
                                "value": "0x2a6c340bcbb0a79d3deecd3bc5cbc2605ea9259f"
                            },
                            {
                                "decimalAvailable": true,
                                "name": "value",
                                "type": "uint256",
                                "value": "960,000,000,000"
                            }
                        ],
                        "signature": "Transfer(address,address,uint256)"
                    },
                    "id": 5,
                    "logData": "0x000000000000000000000000000000000000000000000000000000df84758000",
                    "logDecoded": true,
                    "operation": "EVENT",
                    "revert": false,
                    "status": true,
                    "topics": [
                        "0xddf252ad1be2c89b69c2b068fc378daa952ba7f163c4a11628f55a4df523b3ef",
                        "0x0000000000000000000000009109be7459922f937f9ae039b0ac815c3100d62e",
                        "0x0000000000000000000000002a6c340bcbb0a79d3deecd3bc5cbc2605ea9259f"
                    ]
                },
                "nodeType": 1
            },
            "6": {
                "invocation": {
                    "address": "0x14fee680690900ba0cccfc76ad70fd1b95d10e16",
                    "callData": "0x0000000000000000000000009109be7459922f937f9ae039b0ac815c3100d62e",
                    "decodedMethod": {
                        "callParams": [
                            {
                                "name": "account",
                                "type": "address",
                                "value": "0x9109be7459922f937f9ae039b0ac815c3100d62e"
                            }
                        ],
                        "constructorArguments": "",
                        "name": "balanceOf",
                        "returnParams": [
                            {
                                "decimalAvailable": true,
                                "name": "",
                                "type": "uint256",
                                "value": "4,056,189,020,982"
                            }
                        ],
                        "signature": "balanceOf(address)"
                    },
                    "errorInfo": "",
                    "fromAddress": "0x6131b5fae19ea4f9d964eac0408e4408b66337b5",
                    "gasUsed": 602,
                    "id": 6,
                    "methodDecoded": true,
                    "operation": "STATICCALL",
                    "output": "0x000000000000000000000000000000000000000000000000000003b067b4ab36",
                    "revert": false,
                    "revertMessage": "",
                    "selector": "0x70a08231",
                    "status": true,
                    "value": "0"
                },
                "nodeType": 0
            },
            "7": {
                "invocation": {
                    "address": "0xf081470f5c6fbccf48cc4e5b82dd926409dcdd67",
                    "callData": "0x000000000000000000000000000000000000000000000000000000000000002000000000000000000000000000000000000000000000000000000000000001c00000000000000000000000000000000000000000000000000000000000000020000000000000000000000000000000000000000000000000000000000000000100000000000000000000000000000000000000000000000000000000000000200000000000000000000000000000000000000000000000000000000000000040593611990000000000000000000000000000000000000000000000000000000100000000000000000000000000000000000000000000000000000000000001000000000000000000000000002a6c340bcbb0a79d3deecd3bc5cbc2605ea9259f00000000000000000000000014fee680690900ba0cccfc76ad70fd1b95d10e16000000000000000000000000c02aaa39b223fe8d0a0e5c4f27ead9083c756cc2000000000000000000000000f081470f5c6fbccf48cc4e5b82dd926409dcdd670000000000000000000000000000000000000000000000000000000000000000000000000000000000000000000000000000000000000000000000000000001e00000000000000000000000000000000000000000000000000000000000027100000000000000000000000000000000000000000000000000000000000000032",
                    "decodedMethod": null,
                    "errorInfo": "",
                    "fromAddress": "0x6131b5fae19ea4f9d964eac0408e4408b66337b5",
                    "gasUsed": 75994,
                    "id": 7,
                    "methodDecoded": false,
                    "operation": "CALL",
                    "output": "",
                    "revert": false,
                    "revertMessage": "",
                    "selector": "0x8b674f5d",
                    "status": true,
                    "value": "0"
                },
                "nodeType": 0
            },
            "8": {
                "invocation": {
                    "address": "0x9f52c30f29bfc5514d79a587d61ace79ebde82da",
                    "callData": "0x0000000000000000000000000000000000000000000000000000000000000040000000010000000000000000000000000000000000000000000000000000000000000000000000000000000000000000000000000000000000000000000001000000000000000000000000002a6c340bcbb0a79d3deecd3bc5cbc2605ea9259f00000000000000000000000014fee680690900ba0cccfc76ad70fd1b95d10e16000000000000000000000000c02aaa39b223fe8d0a0e5c4f27ead9083c756cc2000000000000000000000000f081470f5c6fbccf48cc4e5b82dd926409dcdd670000000000000000000000000000000000000000000000000000000000000000000000000000000000000000000000000000000000000000000000000000001e00000000000000000000000000000000000000000000000000000000000027100000000000000000000000000000000000000000000000000000000000000032",
                    "decodedMethod": null,
                    "errorInfo": "",
                    "fromAddress": "0xf081470f5c6fbccf48cc4e5b82dd926409dcdd67",
                    "gasUsed": 63767,
                    "id": 8,
                    "methodDecoded": false,
                    "operation": "DELEGATECALL",
                    "output": "0x00000000000000000000000000000000000000000000000000f446e32afc70da",
                    "revert": false,
                    "revertMessage": "",
                    "selector": "0x59361199",
                    "status": true,
                    "value": "0"
                },
                "nodeType": 0
            },
            "9": {
                "invocation": {
                    "address": "0x2a6c340bcbb0a79d3deecd3bc5cbc2605ea9259f",
                    "callData": "0x",
                    "decodedMethod": {
                        "callParams": [],
                        "constructorArguments": "",
                        "name": "getReserves",
                        "returnParams": [
                            {
                                "name": "_reserve0",
                                "type": "uint112",
                                "value": "10,139,935,021,970,881"
                            },
                            {
                                "name": "_reserve1",
                                "type": "uint112",
                                "value": "728,504,050,553,372,946,628"
                            },
                            {
                                "name": "_blockTimestampLast",
                                "type": "uint32",
                                "value": "1,701,661,043"
                            }
                        ],
                        "signature": "getReserves()"
                    },
                    "errorInfo": "",
                    "fromAddress": "0xf081470f5c6fbccf48cc4e5b82dd926409dcdd67",
                    "gasUsed": 2504,
                    "id": 9,
                    "methodDecoded": true,
                    "operation": "STATICCALL",
                    "output": "0x000000000000000000000000000000000000000000000000002406379907b5c10000000000000000000000000000000000000000000000277e064e32cb0230c400000000000000000000000000000000000000000000000000000000656d4973",
                    "revert": false,
                    "revertMessage": "",
                    "selector": "0x0902f1ac",
                    "status": true,
                    "value": "0"
                },
                "nodeType": 0
            }
        },
        "gasFlame": [
            {
                "children": [
                    {
                        "children": [
                            {
                                "children": [],
                                "depth": 0,
                                "name": "Initial Gas",
                                "value": 39160
                            },
                            {
                                "children": [
                                    {
                                        "children": [],
                                        "depth": 1,
                                        "name": "balanceOf",
                                        "value": 2602
                                    },
                                    {
                                        "children": [],
                                        "depth": 1,
                                        "name": "balanceOf",
                                        "value": 602
                                    },
                                    {
                                        "children": [],
                                        "depth": 1,
                                        "name": "transferFrom",
                                        "value": 49515
                                    },
                                    {
                                        "children": [],
                                        "depth": 1,
                                        "name": "balanceOf",
                                        "value": 602
                                    },
                                    {
                                        "children": [
                                            {
                                                "children": [
                                                    {
                                                        "children": [],
                                                        "depth": 3,
                                                        "name": "getReserves",
                                                        "value": 2504
                                                    },
                                                    {
                                                        "children": [],
                                                        "depth": 3,
                                                        "name": "balanceOf",
                                                        "value": 602
                                                    },
                                                    {
                                                        "children": [],
                                                        "depth": 3,
                                                        "name": "0xf87576e8",
                                                        "value": 1515
                                                    },
                                                    {
                                                        "children": [
                                                            {
                                                                "children": [],
                                                                "depth": 4,
                                                                "name": "transfer",
                                                                "value": 12862
                                                            },
                                                            {
                                                                "children": [],
                                                                "depth": 4,
                                                                "name": "balanceOf",
                                                                "value": 602
                                                            },
                                                            {
                                                                "children": [],
                                                                "depth": 4,
                                                                "name": "balanceOf",
                                                                "value": 534
                                                            }
                                                        ],
                                                        "depth": 3,
                                                        "name": "swap",
                                                        "value": 47821
                                                    }
                                                ],
                                                "depth": 2,
                                                "name": "0x59361199",
                                                "value": 63767
                                            }
                                        ],
                                        "depth": 1,
                                        "name": "0x8b674f5d",
                                        "value": 75994
                                    },
                                    {
                                        "children": [
                                            {
                                                "children": [],
                                                "depth": 2,
                                                "name": "balanceOf",
                                                "value": 534
                                            },
                                            {
                                                "children": [
                                                    {
                                                        "children": [],
                                                        "depth": 3,
                                                        "name": "fallback",
                                                        "value": 55
                                                    }
                                                ],
                                                "depth": 2,
                                                "name": "withdraw",
                                                "value": 9195
                                            },
                                            {
                                                "children": [],
                                                "depth": 2,
                                                "name": "balanceOf",
                                                "value": 2602
                                            },
                                            {
                                                "children": [],
                                                "depth": 2,
                                                "name": "fallback",
                                                "value": 55
                                            }
                                        ],
                                        "depth": 1,
                                        "name": "0x774b6b7e",
                                        "value": 22921
                                    },
                                    {
                                        "children": [],
                                        "depth": 1,
                                        "name": "fallback",
                                        "value": 0
                                    },
                                    {
                                        "children": [],
                                        "depth": 1,
                                        "name": "fallback",
                                        "value": 0
                                    },
                                    {
                                        "children": [],
                                        "depth": 1,
                                        "name": "balanceOf",
                                        "value": 602
                                    }
                                ],
                                "depth": 0,
                                "name": "Executed Gas",
                                "value": 207270
                            }
                        ],
                        "depth": -1,
                        "name": "Actual Gas Used",
                        "value": 240830
                    },
                    {
                        "children": [],
                        "depth": -1,
                        "name": "Refunded Gas",
                        "value": 5600
                    }
                ],
                "depth": -2,
                "name": "Total Gas",
                "value": 246430
            }
        ],
        "isConfirmed": true,
        "mainTrace": [
            {
                "children": [
                    {
                        "children": [
                            {
                                "children": [],
                                "depth": 1,
                                "id": 1,
                                "order": 1
                            },
                            {
                                "children": [],
                                "depth": 1,
                                "id": 2,
                                "order": 2
                            },
                            {
                                "children": [
                                    {
                                        "children": [],
                                        "depth": 2,
                                        "id": 4,
                                        "order": 4
                                    },
                                    {
                                        "children": [],
                                        "depth": 2,
                                        "id": 5,
                                        "order": 5
                                    }
                                ],
                                "depth": 1,
                                "id": 3,
                                "order": 3
                            },
                            {
                                "children": [],
                                "depth": 1,
                                "id": 6,
                                "order": 6
                            },
                            {
                                "children": [
                                    {
                                        "children": [
                                            {
                                                "children": [],
                                                "depth": 3,
                                                "id": 9,
                                                "order": 9
                                            },
                                            {
                                                "children": [],
                                                "depth": 3,
                                                "id": 10,
                                                "order": 10
                                            },
                                            {
                                                "children": [],
                                                "depth": 3,
                                                "id": 11,
                                                "order": 11
                                            },
                                            {
                                                "children": [
                                                    {
                                                        "children": [
                                                            {
                                                                "children": [],
                                                                "depth": 5,
                                                                "id": 14,
                                                                "order": 14
                                                            }
                                                        ],
                                                        "depth": 4,
                                                        "id": 13,
                                                        "order": 13
                                                    },
                                                    {
                                                        "children": [],
                                                        "depth": 4,
                                                        "id": 15,
                                                        "order": 15
                                                    },
                                                    {
                                                        "children": [],
                                                        "depth": 4,
                                                        "id": 16,
                                                        "order": 16
                                                    },
                                                    {
                                                        "children": [],
                                                        "depth": 4,
                                                        "id": 17,
                                                        "order": 17
                                                    },
                                                    {
                                                        "children": [],
                                                        "depth": 4,
                                                        "id": 18,
                                                        "order": 18
                                                    }
                                                ],
                                                "depth": 3,
                                                "id": 12,
                                                "order": 12
                                            },
                                            {
                                                "children": [],
                                                "depth": 3,
                                                "id": 19,
                                                "order": 19
                                            }
                                        ],
                                        "depth": 2,
                                        "id": 8,
                                        "order": 8
                                    }
                                ],
                                "depth": 1,
                                "id": 7,
                                "order": 7
                            },
                            {
                                "children": [
                                    {
                                        "children": [],
                                        "depth": 2,
                                        "id": 21,
                                        "order": 21
                                    },
                                    {
                                        "children": [
                                            {
                                                "children": [],
                                                "depth": 3,
                                                "id": 23,
                                                "order": 23
                                            },
                                            {
                                                "children": [],
                                                "depth": 3,
                                                "id": 24,
                                                "order": 24
                                            }
                                        ],
                                        "depth": 2,
                                        "id": 22,
                                        "order": 22
                                    },
                                    {
                                        "children": [],
                                        "depth": 2,
                                        "id": 25,
                                        "order": 25
                                    },
                                    {
                                        "children": [],
                                        "depth": 2,
                                        "id": 26,
                                        "order": 26
                                    }
                                ],
                                "depth": 1,
                                "id": 20,
                                "order": 20
                            },
                            {
                                "children": [],
                                "depth": 1,
                                "id": 27,
                                "order": 27
                            },
                            {
                                "children": [],
                                "depth": 1,
                                "id": 28,
                                "order": 28
                            },
                            {
                                "children": [],
                                "depth": 1,
                                "id": 29,
                                "order": 29
                            },
                            {
                                "children": [],
                                "depth": 1,
                                "id": 30,
                                "order": 30
                            },
                            {
                                "children": [],
                                "depth": 1,
                                "id": 31,
                                "order": 31
                            },
                            {
                                "children": [],
                                "depth": 1,
                                "id": 32,
                                "order": 32
                            },
                            {
                                "children": [],
                                "depth": 1,
                                "id": 33,
                                "order": 33
                            }
                        ],
                        "depth": 0,
                        "id": 0,
                        "order": 0
                    }
                ],
                "depth": -1,
                "id": -1,
                "order": -1
            }
        ],
        "mainTraceNodeCount": 34,
        "parentIdMap": {
            "0": -1,
            "1": 0,
            "10": 8,
            "11": 8,
            "12": 8,
            "13": 12,
            "14": 13,
            "15": 12,
            "16": 12,
            "17": 12,
            "18": 12,
            "19": 8,
            "2": 0,
            "20": 0,
            "21": 20,
            "22": 20,
            "23": 22,
            "24": 22,
            "25": 20,
            "26": 20,
            "27": 0,
            "28": 0,
            "29": 0,
            "3": 0,
            "30": 0,
            "31": 0,
            "32": 0,
            "33": 0,
            "4": 3,
            "5": 3,
            "6": 0,
            "7": 0,
            "8": 7,
            "9": 8
        },
        "tidyTrace": [
            {
                "children": [
                    {
                        "children": [
                            {
                                "children": [
                                    {
                                        "children": [],
                                        "depth": 2,
                                        "id": 4,
                                        "order": 4
                                    },
                                    {
                                        "children": [],
                                        "depth": 2,
                                        "id": 5,
                                        "order": 5
                                    }
                                ],
                                "depth": 1,
                                "id": 3,
                                "order": 3
                            },
                            {
                                "children": [
                                    {
                                        "children": [
                                            {
                                                "children": [
                                                    {
                                                        "children": [
                                                            {
                                                                "children": [],
                                                                "depth": 5,
                                                                "id": 14,
                                                                "order": 14
                                                            }
                                                        ],
                                                        "depth": 4,
                                                        "id": 13,
                                                        "order": 13
                                                    },
                                                    {
                                                        "children": [],
                                                        "depth": 4,
                                                        "id": 17,
                                                        "order": 17
                                                    },
                                                    {
                                                        "children": [],
                                                        "depth": 4,
                                                        "id": 18,
                                                        "order": 18
                                                    }
                                                ],
                                                "depth": 3,
                                                "id": 12,
                                                "order": 12
                                            },
                                            {
                                                "children": [],
                                                "depth": 3,
                                                "id": 19,
                                                "order": 19
                                            }
                                        ],
                                        "depth": 2,
                                        "id": 8,
                                        "order": 8
                                    }
                                ],
                                "depth": 1,
                                "id": 7,
                                "order": 7
                            },
                            {
                                "children": [
                                    {
                                        "children": [
                                            {
                                                "children": [],
                                                "depth": 3,
                                                "id": 23,
                                                "order": 23
                                            },
                                            {
                                                "children": [],
                                                "depth": 3,
                                                "id": 24,
                                                "order": 24
                                            }
                                        ],
                                        "depth": 2,
                                        "id": 22,
                                        "order": 22
                                    },
                                    {
                                        "children": [],
                                        "depth": 2,
                                        "id": 26,
                                        "order": 26
                                    }
                                ],
                                "depth": 1,
                                "id": 20,
                                "order": 20
                            },
                            {
                                "children": [],
                                "depth": 1,
                                "id": 27,
                                "order": 27
                            },
                            {
                                "children": [],
                                "depth": 1,
                                "id": 28,
                                "order": 28
                            },
                            {
                                "children": [],
                                "depth": 1,
                                "id": 29,
                                "order": 29
                            },
                            {
                                "children": [],
                                "depth": 1,
                                "id": 31,
                                "order": 31
                            },
                            {
                                "children": [],
                                "depth": 1,
                                "id": 32,
                                "order": 32
                            },
                            {
                                "children": [],
                                "depth": 1,
                                "id": 33,
                                "order": 33
                            }
                        ],
                        "depth": 0,
                        "id": 0,
                        "order": 0
                    }
                ],
                "depth": -1,
                "id": -1,
                "order": -1
            }
        ],
        "tidyTraceNodeCount": 23
    },
    "state_change": {
        "stateChanges": [
            {
                "address": "0x14fee680690900ba0cccfc76ad70fd1b95d10e16",
                "erc": "ERC-20",
                "slots": [
                    {
                        "current": "0x000000000000000000000000000000000000000000000000000003b067b4ab36",
                        "key": "0xbcf14826ea2b14c0325ae1753c970692186e83f1c77b1fb03ff766a40196a486",
                        "prev": "0x000000000000000000000000000000000000000000000000000004993c59bb36"
                    },
                    {
                        "current": "0x000000000000000000000000000000000000000000000000000003b067b4ab36",
                        "key": "0x38de0798dda3fa21e4fb304ec9b0ad5fc905b9736df184c5998726d8d6b98e2a",
                        "prev": "0x000000000000000000000000000000000000000000000000000004993c59bb36"
                    },
                    {
                        "current": "0x000000000000000000000000000000000000000000000000000003313dcc2ca2",
                        "key": "0xe1f3481cc1cc08ca8b96f84bacacbfbef93dd199915348b58ef03e1eebfee0ac",
                        "prev": "0x00000000000000000000000000000000000000000000000000000327ed9c9ca2"
                    },
                    {
                        "current": "0x000000000000000000000000000000000000000000000000002407171d7d35c1",
                        "key": "0x171077983b0d94252738b0c9aee9d5d33901cbb8c3d538b9b66d6d86144a1d61",
                        "prev": "0x000000000000000000000000000000000000000000000000002406379907b5c1"
                    }
                ],
                "storageVariables": [
                    {
                        "name": "_tOwned",
                        "type": "mapping(address => uint256)",
                        "value": {
                            "pairs": [
                                {
                                    "key": "0x14fee680690900ba0cccfc76ad70fd1b95d10e16",
                                    "value": {
                                        "current": "3510025071778",
                                        "prev": "3470025071778",
                                        "typeTag": 1
                                    }
                                },
                                {
                                    "key": "0x2a6c340bcbb0a79d3deecd3bc5cbc2605ea9259f",
                                    "value": {
                                        "current": "10140895021970881",
                                        "prev": "10139935021970881",
                                        "typeTag": 1
                                    }
                                },
                                {
                                    "key": "0x9109be7459922f937f9ae039b0ac815c3100d62e",
                                    "value": {
                                        "current": "4056189020982",
                                        "prev": "5056189020982",
                                        "typeTag": 1
                                    }
                                }
                            ],
                            "typeTag": 4
                        }
                    },
                    {
                        "name": "_allowances",
                        "type": "mapping(address => mapping(address => uint256))",
                        "value": {
                            "pairs": [
                                {
                                    "key": "0x9109be7459922f937f9ae039b0ac815c3100d62e",
                                    "value": {
                                        "pairs": [
                                            {
                                                "key": "0x6131b5fae19ea4f9d964eac0408e4408b66337b5",
                                                "value": {
                                                    "current": "4056189020982",
                                                    "prev": "5056189020982",
                                                    "typeTag": 1
                                                }
                                            }
                                        ],
                                        "typeTag": 4
                                    }
                                }
                            ],
                            "typeTag": 4
                        }
                    }
                ]
            },
            {
                "address": "0x2a6c340bcbb0a79d3deecd3bc5cbc2605ea9259f",
                "erc": "ERC-20",
                "slots": [
                    {
                        "current": "0x656d4a0f0000000000277d12074fa005bfea000000000000002407171d7d35c1",
                        "key": "0x0000000000000000000000000000000000000000000000000000000000000008",
                        "prev": "0x656d49730000000000277e064e32cb0230c4000000000000002406379907b5c1"
                    },
                    {
                        "current": "0x000000000000000000000000004dba5d6664eec8f0cdc511aa6b4e6c3fd7f988",
                        "key": "0x0000000000000000000000000000000000000000000000000000000000000009",
                        "prev": "0x000000000000000000000000004db9b261d27cf40bdbc87c6a59a39f61aa7ea0"
                    },
                    {
                        "current": "0x0000000000000000000000000000000007a02cbd93355d563491babff7ad6714",
                        "key": "0x000000000000000000000000000000000000000000000000000000000000000a",
                        "prev": "0x0000000000000000000000000000000007a02c2f462bcb296c7ba0e302305af4"
                    }
                ],
                "storageVariables": [
                    {
                        "name": "reserve0",
                        "type": "uint112",
                        "value": {
                            "current": "10140895021970881",
                            "prev": "10139935021970881",
                            "typeTag": 1
                        }
                    },
                    {
                        "name": "reserve1",
                        "type": "uint112",
                        "value": {
                            "current": "728435292717562839018",
                            "prev": "728504050553372946628",
                            "typeTag": 1
                        }
                    },
                    {
                        "name": "blockTimestampLast",
                        "type": "uint32",
                        "value": {
                            "current": "1701661199",
                            "prev": "1701661043",
                            "typeTag": 1
                        }
                    },
                    {
                        "name": "price0CumulativeLast",
                        "type": "uint256",
                        "value": {
                            "current": "1733392047835617424609860977825259085396179336",
                            "prev": "1733333853473577840136068601260221353551363744",
                            "typeTag": 1
                        }
                    },
                    {
                        "name": "price1CumulativeLast",
                        "type": "uint256",
                        "value": {
                            "current": "10136270913564069682818199453581534996",
                            "prev": "10136259639323076277081181310663285492",
                            "typeTag": 1
                        }
                    }
                ]
            },
            {
                "address": "0xc02aaa39b223fe8d0a0e5c4f27ead9083c756cc2",
                "erc": "ERC-20",
                "slots": [
                    {
                        "current": "0x0000000000000000000000000000000000000000000000277d12074fa005bfea",
                        "key": "0x6502030e53436768c950066ada82ae089c1157a69c2a7f5ad1290400fac771a4",
                        "prev": "0x0000000000000000000000000000000000000000000000277e064e32cb0230c4"
                    }
                ],
                "storageVariables": [
                    {
                        "name": "balanceOf",
                        "type": "mapping(address => uint256)",
                        "value": {
                            "pairs": [
                                {
                                    "key": "0x2a6c340bcbb0a79d3deecd3bc5cbc2605ea9259f",
                                    "value": {
                                        "current": "728435292717562839018",
                                        "prev": "728504050553372946628",
                                        "typeTag": 1
                                    }
                                }
                            ],
                            "typeTag": 4
                        }
                    }
                ]
            }
        ]
    }
}