{
    "balance_change": {
        "balanceChanges": [
            {
                "account": "0xba423c2100a5327a621c2c004f043e797365ca43",
                "assets": [
                    {
                        "address": "0xeeeeeeeeeeeeeeeeeeeeeeeeeeeeeeeeeeeeeeee",
                        "amount": "0.500012720001484",
                        "iconUrl": "https://assets.blocksec.com/image/1663669189317-3.png",
                        "isERC1155": false,
                        "isERC721": false,
                        "sign": false,
                        "value": "1515.9985660224000363"
                    }
                ]
            },
            {
                "account": "0xd19d4b5d358258f05d7b411e21a1460d11b0876f",
                "assets": [
                    {
                        "address": "0xeeeeeeeeeeeeeeeeeeeeeeeeeeeeeeeeeeeeeeee",
                        "amount": "0.500012720001484",
                        "iconUrl": "https://assets.blocksec.com/image/1663669189317-3.png",
                        "isERC1155": false,
                        "isERC721": false,
                        "sign": true,
                        "value": "1515.9985660224000363"
                    }
                ]
            }
        ]
    },
    "profile": {
        "basic_info": {
            "baseFee": "3.177086579",
            "blockNumber": 19836931,
            "callData": "0x9f3ce55a000000000000000000000000ba423c2100a5327a621c2c004f043e797365ca4300000000000000000000000000000000000000000000000000000b919b2b84e000000000000000000000000000000000000000000000000000000000000000600000000000000000000000000000000000000000000000000000000000000000",
            "debugEnable": true,
            "errorInfo": "",
            "eventCount": 2,
            "feeRecipient": "0x1f9090aae28b8a3dceadf281b0f12828e676c326",
            "formatValue": "0.500012720001484",
            "gasLimit": 102426,
            "gasPrice": "3.187139837",
            "gasUsed": 67434,
            "intTxnCount": 1,
            "internalRevert": false,
            "internalRevertMessage": "",
            "isContractCreation": false,
            "isFlashloan": false,
            "maxFee": "4.328485161",
            "nonce": 59,
            "overwritedBlockNumber": -1,
            "priorityFee": "0.010053258",
            "receiver": "0xd19d4b5d358258f05d7b411e21a1460d11b0876f",
            "revertMessage": "",
            "sender": "0xba423c2100a5327a621c2c004f043e797365ca43",
            "simulationEnable": true,
            "sourceTxnHash": "0x7bbdc033873ac08f8262b15867c943878eeb49980d9b0347e9fc38b050a808a8",
            "status": true,
            "timestamp": "2024-05-10T03:23:23Z",
            "transactionFee": "0.000214921587768258",
            "txnHash": "0x7bbdc033873ac08f8262b15867c943878eeb49980d9b0347e9fc38b050a808a8",
            "txnIndex": 138,
            "type": 2,
            "value": "500012720001484000"
        },
        "fund_flow": [
            {
                "amount": "0.500012720001484",
                "from": "0xba423c2100a5327a621c2c004f043e797365ca43",
                "id": 1,
                "isERC1155": false,
                "isERC721": false,
                "isReverted": false,
                "order": 1,
                "to": "0xd19d4b5d358258f05d7b411e21a1460d11b0876f",
                "token": "0xeeeeeeeeeeeeeeeeeeeeeeeeeeeeeeeeeeeeeeee"
            }
        ],
        "token_infos": [
            {
                "address": "0xc02aaa39b223fe8d0a0e5c4f27ead9083c756cc2",
                "decimals": 18
            },
            {
                "address": "0xeeeeeeeeeeeeeeeeeeeeeeeeeeeeeeeeeeeeeeee",
                "decimals": 18
            }
        ]
    },
    "address_label": {
        "labels": [
            {
                "address": "0xd19d4b5d358258f05d7b411e21a1460d11b0876f",
                "label": "Linea: L1 Message Service"
            },
            {
                "address": "0x934dd4c63e285551cecef8459103554d0096c179",
                "label": "LineaRollup"
            },
            {
                "address": "0x0000000000000000000000000000000000000001",
                "label": "Precompiled"
            },
            {
                "address": "0x0000000000000000000000000000000000000002",
                "label": "Precompiled"
            },
            {
                "address": "0x0000000000000000000000000000000000000003",
                "label": "Precompiled"
            },
            {
                "address": "0x0000000000000000000000000000000000000004",
                "label": "Precompiled"
            },
            {
                "address": "0xeeeeeeeeeeeeeeeeeeeeeeeeeeeeeeeeeeeeeeee",
                "label": "Ether"
            }
        ]
    },
    "trace": {
        "accountLabels": null,
        "dataMap": {
            "-1": {
                "invocation": {
                    "address": "0xba423c2100a5327a621c2c004f043e797365ca43",
                    "callData": "",
                    "decodedMethod": null,
                    "errorInfo": "",
                    "fromAddress": "",
                    "gasUsed": 0,
                    "id": -1,
                    "methodDecoded": false,
                    "operation": "",
                    "output": "",
                    "revert": false,
                    "revertMessage": "",
                    "selector": "",
                    "status": false,
                    "value": ""
                },
                "nodeType": 0
            },
            "0": {
                "invocation": {
                    "address": "0xd19d4b5d358258f05d7b411e21a1460d11b0876f",
                    "callData": "0x000000000000000000000000ba423c2100a5327a621c2c004f043e797365ca4300000000000000000000000000000000000000000000000000000b919b2b84e000000000000000000000000000000000000000000000000000000000000000600000000000000000000000000000000000000000000000000000000000000000",
                    "decodedMethod": {
                        "callParams": [
                            {
                                "name": "_to",
                                "type": "address",
                                "value": "0xba423c2100a5327a621c2c004f043e797365ca43"
                            },
                            {
                                "name": "_fee",
                                "type": "uint256",
                                "value": "12,720,001,484,000"
                            },
                            {
                                "name": "_calldata",
                                "type": "bytes",
                                "value": "0x"
                            }
                        ],
                        "constructorArguments": "",
                        "name": "sendMessage",
                        "returnParams": [],
                        "signature": "sendMessage(address,uint256,bytes)"
                    },
                    "errorInfo": "",
                    "fromAddress": "0xba423c2100a5327a621c2c004f043e797365ca43",
                    "gasUsed": 67434,
                    "id": 0,
                    "methodDecoded": true,
                    "operation": "CALL",
                    "output": "",
                    "revert": false,
                    "revertMessage": "",
                    "selector": "0x9f3ce55a",
                    "status": true,
                    "value": "0.500012720001484"
                },
                "nodeType": 0
            },
            "1": {
                "invocation": {
                    "address": "0x934dd4c63e285551cecef8459103554d0096c179",
                    "callData": "0x000000000000000000000000ba423c2100a5327a621c2c004f043e797365ca4300000000000000000000000000000000000000000000000000000b919b2b84e000000000000000000000000000000000000000000000000000000000000000600000000000000000000000000000000000000000000000000000000000000000",
                    "decodedMethod": {
                        "callParams": [
                            {
                                "name": "_to",
                                "type": "address",
                                "value": "0xba423c2100a5327a621c2c004f043e797365ca43"
                            },
                            {
                                "name": "_fee",
                                "type": "uint256",
                                "value": "12,720,001,484,000"
                            },
                            {
                                "name": "_calldata",
                                "type": "bytes",
                                "value": "0x"
                            }
                        ],
                        "constructorArguments": "",
                        "name": "sendMessage",
                        "returnParams": [],
                        "signature": "sendMessage(address,uint256,bytes)"
                    },
                    "errorInfo": "",
                    "fromAddress": "0xd19d4b5d358258f05d7b411e21a1460d11b0876f",
                    "gasUsed": 38386,
                    "id": 1,
                    "methodDecoded": true,
                    "operation": "DELEGATECALL",
                    "output": "",
                    "revert": false,
                    "revertMessage": "",
                    "selector": "0x9f3ce55a",
                    "status": true,
                    "value": "0.500012720001484"
                },
                "nodeType": 0
            },
            "2": {
                "event": {
                    "contract": "0xd19d4b5d358258f05d7b411e21a1460d11b0876f",
                    "decodedLog": {
                        "name": "RollingHashUpdated",
                        "params": [
                            {
                                "name": "messageNumber",
                                "type": "uint256",
                                "value": "589,618"
                            },
                            {
                                "name": "rollingHash",
                                "type": "bytes32",
                                "value": "0x5e93db3d4ca82ade0f24c580c52ac15e9b52b3574e9e90203bd90568a8119c81"
                            },
                            {
                                "name": "messageHash",
                                "type": "bytes32",
                                "value": "0xef0e635dc6972985968dcc5c0eabc9fc9a424865b384dac7abba1ddc7c401415"
                            }
                        ],
                        "signature": "RollingHashUpdated(uint256,bytes32,bytes32)"
                    },
                    "id": 2,
                    "logData": "0x",
                    "logDecoded": true,
                    "operation": "EVENT",
                    "revert": false,
                    "status": true,
                    "topics": [
                        "0xea3b023b4c8680d4b4824f0143132c95476359a2bb70a81d6c5a36f6918f6339",
                        "0x000000000000000000000000000000000000000000000000000000000008ff32",
                        "0x5e93db3d4ca82ade0f24c580c52ac15e9b52b3574e9e90203bd90568a8119c81",
                        "0xef0e635dc6972985968dcc5c0eabc9fc9a424865b384dac7abba1ddc7c401415"
                    ]
                },
                "nodeType": 1
            },
            "3": {
                "event": {
                    "contract": "0xd19d4b5d358258f05d7b411e21a1460d11b0876f",
                    "decodedLog": {
                        "name": "MessageSent",
                        "params": [
                            {
                                "name": "_from",
                                "type": "address",
                                "value": "0xba423c2100a5327a621c2c004f043e797365ca43"
                            },
                            {
                                "name": "_to",
                                "type": "address",
                                "value": "0xba423c2100a5327a621c2c004f043e797365ca43"
                            },
                            {
                                "name": "_messageHash",
                                "type": "bytes32",
                                "value": "0xef0e635dc6972985968dcc5c0eabc9fc9a424865b384dac7abba1ddc7c401415"
                            },
                            {
                                "name": "_fee",
                                "type": "uint256",
                                "value": "12,720,001,484,000"
                            },
                            {
                                "name": "_value",
                                "type": "uint256",
                                "value": "500,000,000,000,000,000"
                            },
                            {
                                "name": "_nonce",
                                "type": "uint256",
                                "value": "589,618"
                            },
                            {
                                "name": "_calldata",
                                "type": "bytes",
                                "value": "0x"
                            }
                        ],
                        "signature": "MessageSent(address,address,uint256,uint256,uint256,bytes,bytes32)"
                    },
                    "id": 3,
                    "logData": "0x00000000000000000000000000000000000000000000000000000b919b2b84e000000000000000000000000000000000000000000000000006f05b59d3b20000000000000000000000000000000000000000000000000000000000000008ff3200000000000000000000000000000000000000000000000000000000000000800000000000000000000000000000000000000000000000000000000000000000",
                    "logDecoded": true,
                    "operation": "EVENT",
                    "revert": false,
                    "status": true,
                    "topics": [
                        "0xe856c2b8bd4eb0027ce32eeaf595c21b0b6b4644b326e5b7bd80a1cf8db72e6c",
                        "0x000000000000000000000000ba423c2100a5327a621c2c004f043e797365ca43",
                        "0x000000000000000000000000ba423c2100a5327a621c2c004f043e797365ca43",
                        "0xef0e635dc6972985968dcc5c0eabc9fc9a424865b384dac7abba1ddc7c401415"
                    ]
                },
                "nodeType": 1
            }
        },
        "gasFlame": [
            {
                "children": [
                    {
                        "children": [
                            {
                                "children": [],
                                "depth": 0,
                                "name": "Initial Gas",
                                "value": 21876
                            },
                            {
                                "children": [
                                    {
                                        "children": [],
                                        "depth": 1,
                                        "name": "sendMessage",
                                        "value": 38386
                                    }
                                ],
                                "depth": 0,
                                "name": "Executed Gas",
                                "value": 45558
                            }
                        ],
                        "depth": -1,
                        "name": "Actual Gas Used",
                        "value": 67434
                    },
                    {
                        "children": [],
                        "depth": -1,
                        "name": "Refunded Gas",
                        "value": 0
                    }
                ],
                "depth": -2,
                "name": "Total Gas",
                "value": 67434
            }
        ],
        "isConfirmed": true,
        "mainTrace": [
            {
                "children": [
                    {
                        "children": [
                            {
                                "children": [
                                    {
                                        "children": [],
                                        "depth": 2,
                                        "id": 2,
                                        "order": 2
                                    },
                                    {
                                        "children": [],
                                        "depth": 2,
                                        "id": 3,
                                        "order": 3
                                    }
                                ],
                                "depth": 1,
                                "id": 1,
                                "order": 1
                            }
                        ],
                        "depth": 0,
                        "id": 0,
                        "order": 0
                    }
                ],
                "depth": -1,
                "id": -1,
                "order": -1
            }
        ],
        "mainTraceNodeCount": 4,
        "parentIdMap": {
            "0": -1,
            "1": 0,
            "2": 1,
            "3": 1
        },
        "tidyTrace": [
            {
                "children": [
                    {
                        "children": [
                            {
                                "children": [
                                    {
                                        "children": [],
                                        "depth": 2,
                                        "id": 2,
                                        "order": 2
                                    },
                                    {
                                        "children": [],
                                        "depth": 2,
                                        "id": 3,
                                        "order": 3
                                    }
                                ],
                                "depth": 1,
                                "id": 1,
                                "order": 1
                            }
                        ],
                        "depth": 0,
                        "id": 0,
                        "order": 0
                    }
                ],
                "depth": -1,
                "id": -1,
                "order": -1
            }
        ],
        "tidyTraceNodeCount": 4
    },
    "state_change": {
        "stateChanges": [
            {
                "address": "0xd19d4b5d358258f05d7b411e21a1460d11b0876f",
                "erc": "",
                "slots": [
                    {
                        "current": "0x000000000000000000000000000000000000000000000000000000000008ff33",
                        "key": "0x00000000000000000000000000000000000000000000000000000000000000e4",
                        "prev": "0x000000000000000000000000000000000000000000000000000000000008ff32"
                    },
                    {
                        "current": "0x5e93db3d4ca82ade0f24c580c52ac15e9b52b3574e9e90203bd90568a8119c81",
                        "key": "0xed067a6ec4a21977d922211abe47fc1df93f6fa83d640ee13d41b9365f71cbe3",
                        "prev": "0x0000000000000000000000000000000000000000000000000000000000000000"
                    }
                ],
                "storageVariables": [
                    {
                        "name": "nextMessageNumber",
                        "type": "uint256",
                        "value": {
                            "current": "589619",
                            "prev": "589618",
                            "typeTag": 1
                        }
                    },
                    {
                        "name": "rollingHashes",
                        "type": "mapping(uint256 => bytes32)",
                        "value": {
                            "pairs": [
                                {
                                    "key": "589618",
                                    "value": {
                                        "current": "0x5e93db3d4ca82ade0f24c580c52ac15e9b52b3574e9e90203bd90568a8119c81",
                                        "prev": "0x0000000000000000000000000000000000000000000000000000000000000000",
                                        "typeTag": 1
                                    }
                                }
                            ],
                            "typeTag": 4
                        }
                    }
                ]
            }
        ]
    }
}