{
    "balance_change": {
        "balanceChanges": []
    },
    "profile": {
        "basic_info": {
            "baseFee": "57.562024087",
            "blockNumber": 17764476,
            "callData": "0x32309a780000000000000000000000000000000000000000000000000000000000000024",
            "debugEnable": true,
            "errorInfo": "",
            "eventCount": 0,
            "feeRecipient": "0x333333f332a06ecb5d20d35da44ba07986d6e203",
            "formatValue": "0",
            "gasLimit": 50433,
            "gasPrice": "57.656024087",
            "gasUsed": 40857,
            "intTxnCount": 0,
            "internalRevert": false,
            "internalRevertMessage": "",
            "isContractCreation": false,
            "isFlashloan": false,
            "maxFee": "60.65449585",
            "nonce": 137,
            "overwritedBlockNumber": -1,
            "priorityFee": "0.094",
            "receiver": "0x2290995bb9c481306f83bd8f549d9f1c41357444",
            "revertMessage": "",
            "sender": "0xd18dcaf7be147109d9ad132c351f924fa998eac2",
            "simulationEnable": true,
            "sourceTxnHash": "0x7b618dd2f0b433faeeb981217ec56bc2810740901cf9c41a8a983971043cf403",
            "status": true,
            "timestamp": "2023-07-24T17:33:11Z",
            "transactionFee": "0.002355652176122559",
            "txnHash": "0x7b618dd2f0b433faeeb981217ec56bc2810740901cf9c41a8a983971043cf403",
            "txnIndex": 129,
            "type": 2,
            "value": "0"
        },
        "fund_flow": [],
        "token_infos": [
            {
                "address": "0xc02aaa39b223fe8d0a0e5c4f27ead9083c756cc2",
                "decimals": 18
            },
            {
                "address": "0xeeeeeeeeeeeeeeeeeeeeeeeeeeeeeeeeeeeeeeee",
                "decimals": 18
            }
        ]
    },
    "address_label": {
        "labels": [
            {
                "address": "0x0000000000000000000000000000000000000003",
                "label": "Precompiled"
            },
            {
                "address": "0x0000000000000000000000000000000000000004",
                "label": "Precompiled"
            },
            {
                "address": "0xeeeeeeeeeeeeeeeeeeeeeeeeeeeeeeeeeeeeeeee",
                "label": "Ether"
            },
            {
                "address": "0x2290995bb9c481306f83bd8f549d9f1c41357444",
                "label": "Celestial: CLST Token"
            },
            {
                "address": "0x0000000000000000000000000000000000000001",
                "label": "Precompiled"
            },
            {
                "address": "0x0000000000000000000000000000000000000002",
                "label": "Precompiled"
            }
        ]
    },
    "trace": {
        "accountLabels": null,
        "dataMap": {
            "-1": {
                "invocation": {
                    "address": "0xd18dcaf7be147109d9ad132c351f924fa998eac2",
                    "callData": "",
                    "decodedMethod": null,
                    "errorInfo": "",
                    "fromAddress": "",
                    "gasUsed": 0,
                    "id": -1,
                    "methodDecoded": false,
                    "operation": "",
                    "output": "",
                    "revert": false,
                    "revertMessage": "",
                    "selector": "",
                    "status": false,
                    "value": ""
                },
                "nodeType": 0
            },
            "0": {
                "invocation": {
                    "address": "0x2290995bb9c481306f83bd8f549d9f1c41357444",
                    "callData": "0x0000000000000000000000000000000000000000000000000000000000000024",
                    "decodedMethod": {
                        "callParams": [
                            {
                                "name": "_tokenId",
                                "type": "uint256",
                                "value": "36"
                            }
                        ],
                        "constructorArguments": "",
                        "name": "upgradeToken",
                        "returnParams": [],
                        "signature": "upgradeToken(uint256)"
                    },
                    "errorInfo": "",
                    "fromAddress": "0xd18dcaf7be147109d9ad132c351f924fa998eac2",
                    "gasUsed": 40857,
                    "id": 0,
                    "methodDecoded": true,
                    "operation": "CALL",
                    "output": "",
                    "revert": false,
                    "revertMessage": "",
                    "selector": "0x32309a78",
                    "status": true,
                    "value": "0"
                },
                "nodeType": 0
            }
        },
        "gasFlame": [
            {
                "children": [
                    {
                        "children": [
                            {
                                "children": [],
                                "depth": 0,
                                "name": "Initial Gas",
                                "value": 21204
                            },
                            {
                                "children": [],
                                "depth": 0,
                                "name": "Executed Gas",
                                "value": 22453
                            }
                        ],
                        "depth": -1,
                        "name": "Actual Gas Used",
                        "value": 40857
                    },
                    {
                        "children": [],
                        "depth": -1,
                        "name": "Refunded Gas",
                        "value": 2800
                    }
                ],
                "depth": -2,
                "name": "Total Gas",
                "value": 43657
            }
        ],
        "isConfirmed": true,
        "mainTrace": [
            {
                "children": [
                    {
                        "children": [],
                        "depth": 0,
                        "id": 0,
                        "order": 0
                    }
                ],
                "depth": -1,
                "id": -1,
                "order": -1
            }
        ],
        "mainTraceNodeCount": 1,
        "parentIdMap": {
            "0": -1
        },
        "tidyTrace": [
            {
                "children": [
                    {
                        "children": [],
                        "depth": 0,
                        "id": 0,
                        "order": 0
                    }
                ],
                "depth": -1,
                "id": -1,
                "order": -1
            }
        ],
        "tidyTraceNodeCount": 1
    },
    "state_change": {
        "stateChanges": [
            {
                "address": "0x2290995bb9c481306f83bd8f549d9f1c41357444",
                "erc": "ERC-721",
                "slots": [
                    {
                        "current": "0x0000000000000000000000000000000000000000000000000000000000000015",
                        "key": "0x5d61e4093fee81efe8ea4f6a78de40f332d96aca4d4a8d90d60f04f05fcd0d1e",
                        "prev": "0x0000000000000000000000000000000000000000000000000000000000000014"
                    },
                    {
                        "current": "0x0000000000000000000000000000000000000000000000000000000064beb5d7",
                        "key": "0x540d467313b3ed798bba365eb00a4f35bcb79374a28e3583a293a515fee02bf8",
                        "prev": "0x0000000000000000000000000000000000000000000000000000000064ab3c73"
                    }
                ],
                "storageVariables": [
                    {
                        "name": "tokenLevels",
                        "type": "mapping(uint256 => uint256)",
                        "value": {
                            "pairs": [
                                {
                                    "key": "36",
                                    "value": {
                                        "current": "21",
                                        "prev": "20",
                                        "typeTag": 1
                                    }
                                }
                            ],
                            "typeTag": 4
                        }
                    },
                    {
                        "name": "tokenTransferredTimestamp",
                        "type": "mapping(uint256 => uint256)",
                        "value": {
                            "pairs": [
                                {
                                    "key": "36",
                                    "value": {
                                        "current": "1690219991",
                                        "prev": "1688943731",
                                        "typeTag": 1
                                    }
                                }
                            ],
                            "typeTag": 4
                        }
                    }
                ]
            }
        ]
    }
}