{
    "balance_change": {
        "balanceChanges": [
            {
                "account": "0xf16e9b0d03470827a95cdfd0cb8a8a3b46969b91",
                "assets": [
                    {
                        "address": "0x5b7533812759b45c2b44c19e320ba2cd2681b542",
                        "amount": "387.6192",
                        "iconUrl": "https://assets.blocksec.com/icon/f44f51cd1fc83a13b27bd7681d74f1f997012607855c370a318cd98669a4bbd6.png",
                        "isERC1155": false,
                        "isERC721": false,
                        "sign": false,
                        "value": "179.31264192000000433"
                    }
                ]
            },
            {
                "account": "0x74982beb4ecb2f35ca1eb1bd67349ff49f0d8977",
                "assets": [
                    {
                        "address": "0x5b7533812759b45c2b44c19e320ba2cd2681b542",
                        "amount": "387.6192",
                        "iconUrl": "https://assets.blocksec.com/icon/f44f51cd1fc83a13b27bd7681d74f1f997012607855c370a318cd98669a4bbd6.png",
                        "isERC1155": false,
                        "isERC721": false,
                        "sign": true,
                        "value": "179.31264192000000433"
                    }
                ]
            }
        ]
    },
    "profile": {
        "basic_info": {
            "baseFee": "14.985883501",
            "blockNumber": 16903926,
            "callData": "0xa9059cbb00000000000000000000000074982beb4ecb2f35ca1eb1bd67349ff49f0d8977000000000000000000000000000000000000000000000000000000090663f600",
            "debugEnable": true,
            "errorInfo": "",
            "eventCount": 1,
            "feeRecipient": "0x95222290dd7278aa3ddd389cc1e1d165cc4bafe5",
            "formatValue": "0",
            "gasLimit": 100000,
            "gasPrice": "16.013327071",
            "gasUsed": 53906,
            "intTxnCount": 0,
            "internalRevert": false,
            "internalRevertMessage": "",
            "isContractCreation": false,
            "isFlashloan": false,
            "maxFee": "33.4899005",
            "nonce": 1714407,
            "overwritedBlockNumber": -1,
            "priorityFee": "1.02744357",
            "receiver": "0x5b7533812759b45c2b44c19e320ba2cd2681b542",
            "revertMessage": "",
            "sender": "0xf16e9b0d03470827a95cdfd0cb8a8a3b46969b91",
            "simulationEnable": true,
            "sourceTxnHash": "0x7b1e9b3aac8fab329a85093f731dc586a56968d3c14ac6f54abddcf0e689eba3",
            "status": true,
            "timestamp": "2023-03-25T10:36:35Z",
            "transactionFee": "0.000863214409089326",
            "txnHash": "0x7b1e9b3aac8fab329a85093f731dc586a56968d3c14ac6f54abddcf0e689eba3",
            "txnIndex": 58,
            "type": 2,
            "value": "0"
        },
        "fund_flow": [
            {
                "amount": "387.6192",
                "from": "0xf16e9b0d03470827a95cdfd0cb8a8a3b46969b91",
                "id": 1,
                "isERC1155": false,
                "isERC721": false,
                "isReverted": false,
                "order": 1,
                "to": "0x74982beb4ecb2f35ca1eb1bd67349ff49f0d8977",
                "token": "0x5b7533812759b45c2b44c19e320ba2cd2681b542"
            }
        ],
        "token_infos": [
            {
                "address": "0xeeeeeeeeeeeeeeeeeeeeeeeeeeeeeeeeeeeeeeee",
                "decimals": 18
            },
            {
                "address": "0x5b7533812759b45c2b44c19e320ba2cd2681b542",
                "decimals": 8
            },
            {
                "address": "0xc02aaa39b223fe8d0a0e5c4f27ead9083c756cc2",
                "decimals": 18
            }
        ]
    },
    "address_label": {
        "labels": [
            {
                "address": "0xeeeeeeeeeeeeeeeeeeeeeeeeeeeeeeeeeeeeeeee",
                "label": "Ether"
            },
            {
                "address": "0xf16e9b0d03470827a95cdfd0cb8a8a3b46969b91",
                "label": "KuCoin 9"
            },
            {
                "address": "0x5b7533812759b45c2b44c19e320ba2cd2681b542",
                "label": "SingularityNET: AGIX Token"
            },
            {
                "address": "0x0000000000000000000000000000000000000001",
                "label": "Precompiled"
            },
            {
                "address": "0x0000000000000000000000000000000000000002",
                "label": "Precompiled"
            },
            {
                "address": "0x0000000000000000000000000000000000000003",
                "label": "Precompiled"
            },
            {
                "address": "0x0000000000000000000000000000000000000004",
                "label": "Precompiled"
            }
        ]
    },
    "trace": {
        "accountLabels": null,
        "dataMap": {
            "-1": {
                "invocation": {
                    "address": "0xf16e9b0d03470827a95cdfd0cb8a8a3b46969b91",
                    "callData": "",
                    "decodedMethod": null,
                    "errorInfo": "",
                    "fromAddress": "",
                    "gasUsed": 0,
                    "id": -1,
                    "methodDecoded": false,
                    "operation": "",
                    "output": "",
                    "revert": false,
                    "revertMessage": "",
                    "selector": "",
                    "status": false,
                    "value": ""
                },
                "nodeType": 0
            },
            "0": {
                "invocation": {
                    "address": "0x5b7533812759b45c2b44c19e320ba2cd2681b542",
                    "callData": "0x00000000000000000000000074982beb4ecb2f35ca1eb1bd67349ff49f0d8977000000000000000000000000000000000000000000000000000000090663f600",
                    "decodedMethod": {
                        "callParams": [
                            {
                                "name": "recipient",
                                "type": "address",
                                "value": "0x74982beb4ecb2f35ca1eb1bd67349ff49f0d8977"
                            },
                            {
                                "decimalAvailable": true,
                                "name": "amount",
                                "type": "uint256",
                                "value": "38,761,920,000"
                            }
                        ],
                        "constructorArguments": "",
                        "name": "transfer",
                        "returnParams": [
                            {
                                "name": "",
                                "type": "bool",
                                "value": true
                            }
                        ],
                        "signature": "transfer(address,uint256)"
                    },
                    "errorInfo": "",
                    "fromAddress": "0xf16e9b0d03470827a95cdfd0cb8a8a3b46969b91",
                    "gasUsed": 53906,
                    "id": 0,
                    "methodDecoded": true,
                    "operation": "CALL",
                    "output": "0x0000000000000000000000000000000000000000000000000000000000000001",
                    "revert": false,
                    "revertMessage": "",
                    "selector": "0xa9059cbb",
                    "status": true,
                    "value": "0"
                },
                "nodeType": 0
            },
            "1": {
                "event": {
                    "contract": "0x5b7533812759b45c2b44c19e320ba2cd2681b542",
                    "decodedLog": {
                        "name": "Transfer",
                        "params": [
                            {
                                "name": "from",
                                "type": "address",
                                "value": "0xf16e9b0d03470827a95cdfd0cb8a8a3b46969b91"
                            },
                            {
                                "name": "to",
                                "type": "address",
                                "value": "0x74982beb4ecb2f35ca1eb1bd67349ff49f0d8977"
                            },
                            {
                                "decimalAvailable": true,
                                "name": "value",
                                "type": "uint256",
                                "value": "38,761,920,000"
                            }
                        ],
                        "signature": "Transfer(address,address,uint256)"
                    },
                    "id": 1,
                    "logData": "0x000000000000000000000000000000000000000000000000000000090663f600",
                    "logDecoded": true,
                    "operation": "EVENT",
                    "revert": false,
                    "status": true,
                    "topics": [
                        "0xddf252ad1be2c89b69c2b068fc378daa952ba7f163c4a11628f55a4df523b3ef",
                        "0x000000000000000000000000f16e9b0d03470827a95cdfd0cb8a8a3b46969b91",
                        "0x00000000000000000000000074982beb4ecb2f35ca1eb1bd67349ff49f0d8977"
                    ]
                },
                "nodeType": 1
            }
        },
        "gasFlame": [
            {
                "children": [
                    {
                        "children": [
                            {
                                "children": [],
                                "depth": 0,
                                "name": "Initial Gas",
                                "value": 21608
                            },
                            {
                                "children": [],
                                "depth": 0,
                                "name": "Executed Gas",
                                "value": 32298
                            }
                        ],
                        "depth": -1,
                        "name": "Actual Gas Used",
                        "value": 53906
                    },
                    {
                        "children": [],
                        "depth": -1,
                        "name": "Refunded Gas",
                        "value": 0
                    }
                ],
                "depth": -2,
                "name": "Total Gas",
                "value": 53906
            }
        ],
        "isConfirmed": true,
        "mainTrace": [
            {
                "children": [
                    {
                        "children": [
                            {
                                "children": [],
                                "depth": 1,
                                "id": 1,
                                "order": 1
                            }
                        ],
                        "depth": 0,
                        "id": 0,
                        "order": 0
                    }
                ],
                "depth": -1,
                "id": -1,
                "order": -1
            }
        ],
        "mainTraceNodeCount": 2,
        "parentIdMap": {
            "0": -1,
            "1": 0
        },
        "tidyTrace": [
            {
                "children": [
                    {
                        "children": [
                            {
                                "children": [],
                                "depth": 1,
                                "id": 1,
                                "order": 1
                            }
                        ],
                        "depth": 0,
                        "id": 0,
                        "order": 0
                    }
                ],
                "depth": -1,
                "id": -1,
                "order": -1
            }
        ],
        "tidyTraceNodeCount": 2
    },
    "state_change": {
        "stateChanges": [
            {
                "address": "0x5b7533812759b45c2b44c19e320ba2cd2681b542",
                "erc": "ERC-20",
                "slots": [
                    {
                        "current": "0x00000000000000000000000000000000000000000000000000004c5c33f7eee6",
                        "key": "0xc185b7c3fae464ba8e1efbc901efa0ab96f071884e4cb2fe61774d1e6df142a4",
                        "prev": "0x00000000000000000000000000000000000000000000000000004c653a5be4e6"
                    },
                    {
                        "current": "0x000000000000000000000000000000000000000000000000000000090663f600",
                        "key": "0x823a4d49e579a0302a2d64de3560e1fb048cee048868a324134aee4ff1634ce2",
                        "prev": "0x0000000000000000000000000000000000000000000000000000000000000000"
                    }
                ],
                "storageVariables": [
                    {
                        "name": "_balances",
                        "type": "mapping(address => uint256)",
                        "value": {
                            "pairs": [
                                {
                                    "key": "0x74982beb4ecb2f35ca1eb1bd67349ff49f0d8977",
                                    "value": {
                                        "current": "38761920000",
                                        "prev": "0",
                                        "typeTag": 1
                                    }
                                },
                                {
                                    "key": "0xf16e9b0d03470827a95cdfd0cb8a8a3b46969b91",
                                    "value": {
                                        "current": "83958892588774",
                                        "prev": "83997654508774",
                                        "typeTag": 1
                                    }
                                }
                            ],
                            "typeTag": 4
                        }
                    }
                ]
            }
        ]
    }
}