{
    "balance_change": {
        "balanceChanges": [
            {
                "account": "0xc5acdaa2a5bd9246ea271cf4d64e208f9a84a95e",
                "assets": [
                    {
                        "address": "0xeeeeeeeeeeeeeeeeeeeeeeeeeeeeeeeeeeeeeeee",
                        "amount": "0.1",
                        "iconUrl": "https://assets.blocksec.com/image/1663669189317-3.png",
                        "isERC1155": false,
                        "isERC721": false,
                        "sign": false,
                        "value": ""
                    }
                ]
            },
            {
                "account": "0xd1ceeeeee83f8bcf3bedad437202b6154e9f5405",
                "assets": [
                    {
                        "address": "0xeeeeeeeeeeeeeeeeeeeeeeeeeeeeeeeeeeeeeeee",
                        "amount": "0.1",
                        "iconUrl": "https://assets.blocksec.com/image/1663669189317-3.png",
                        "isERC1155": false,
                        "isERC721": false,
                        "sign": true,
                        "value": ""
                    }
                ]
            }
        ]
    },
    "profile": {
        "basic_info": {
            "baseFee": "",
            "blockNumber": 7874861,
            "callData": "0x5e83b4630000000000000000000000000000000000000000000000000000000000000002000000000000000000000000000000000000000000000000000000000000000200000000000000000000000000000000000000000000000000000000007829f35c448a801b6668c4280521fbd478fe1dbdac65a216da3627021ae709e08be3d7e1e4dc67db41c7d8396a4a03d5d11152e921bb1025d87ea0c3851d9b0fc199c70031b0419712d77796cb2d11ecb7cf039f6efe19f76368edbe16f23ea97c5a7f",
            "debugEnable": true,
            "errorInfo": "",
            "eventCount": 1,
            "feeRecipient": "0x005e288d713a5fb3d7c9cf1b43810a98688c7223",
            "formatValue": "0.1",
            "gasLimit": 150000,
            "gasPrice": "11.1",
            "gasUsed": 82068,
            "intTxnCount": 1,
            "internalRevert": false,
            "internalRevertMessage": "",
            "isContractCreation": false,
            "isFlashloan": false,
            "maxFee": "",
            "nonce": 4170,
            "overwritedBlockNumber": -1,
            "priorityFee": "",
            "receiver": "0xd1ceeeeee83f8bcf3bedad437202b6154e9f5405",
            "revertMessage": "",
            "sender": "0xc5acdaa2a5bd9246ea271cf4d64e208f9a84a95e",
            "simulationEnable": true,
            "sourceTxnHash": "0x7b03c5e5f3efd85f3e542e659493ba503597015dc7836600421c95c39b3b3874",
            "status": true,
            "timestamp": "2019-06-01T16:54:37Z",
            "transactionFee": "0.0009109548",
            "txnHash": "0x7b03c5e5f3efd85f3e542e659493ba503597015dc7836600421c95c39b3b3874",
            "txnIndex": 96,
            "type": 0,
            "value": "100000000000000000"
        },
        "fund_flow": [
            {
                "amount": "0.1",
                "from": "0xc5acdaa2a5bd9246ea271cf4d64e208f9a84a95e",
                "id": 1,
                "isERC1155": false,
                "isERC721": false,
                "isReverted": false,
                "order": 1,
                "to": "0xd1ceeeeee83f8bcf3bedad437202b6154e9f5405",
                "token": "0xeeeeeeeeeeeeeeeeeeeeeeeeeeeeeeeeeeeeeeee"
            }
        ],
        "token_infos": [
            {
                "address": "0xc02aaa39b223fe8d0a0e5c4f27ead9083c756cc2",
                "decimals": 18
            },
            {
                "address": "0xeeeeeeeeeeeeeeeeeeeeeeeeeeeeeeeeeeeeeeee",
                "decimals": 18
            }
        ]
    },
    "address_label": {
        "labels": [
            {
                "address": "0x0000000000000000000000000000000000000004",
                "label": "Precompiled"
            },
            {
                "address": "0xeeeeeeeeeeeeeeeeeeeeeeeeeeeeeeeeeeeeeeee",
                "label": "Ether"
            },
            {
                "address": "0xd1ceeeeee83f8bcf3bedad437202b6154e9f5405",
                "label": "Dice2Win"
            },
            {
                "address": "0x0000000000000000000000000000000000000001",
                "label": "Precompiled"
            },
            {
                "address": "0x0000000000000000000000000000000000000002",
                "label": "Precompiled"
            },
            {
                "address": "0x0000000000000000000000000000000000000003",
                "label": "Precompiled"
            }
        ]
    },
    "trace": {
        "accountLabels": null,
        "dataMap": {
            "-1": {
                "invocation": {
                    "address": "0xc5acdaa2a5bd9246ea271cf4d64e208f9a84a95e",
                    "callData": "",
                    "decodedMethod": null,
                    "errorInfo": "",
                    "fromAddress": "",
                    "gasUsed": 0,
                    "id": -1,
                    "methodDecoded": false,
                    "operation": "",
                    "output": "",
                    "revert": false,
                    "revertMessage": "",
                    "selector": "",
                    "status": false,
                    "value": ""
                },
                "nodeType": 0
            },
            "0": {
                "invocation": {
                    "address": "0xd1ceeeeee83f8bcf3bedad437202b6154e9f5405",
                    "callData": "0x0000000000000000000000000000000000000000000000000000000000000002000000000000000000000000000000000000000000000000000000000000000200000000000000000000000000000000000000000000000000000000007829f35c448a801b6668c4280521fbd478fe1dbdac65a216da3627021ae709e08be3d7e1e4dc67db41c7d8396a4a03d5d11152e921bb1025d87ea0c3851d9b0fc199c70031b0419712d77796cb2d11ecb7cf039f6efe19f76368edbe16f23ea97c5a7f",
                    "decodedMethod": {
                        "callParams": [
                            {
                                "name": "betMask",
                                "type": "uint256",
                                "value": "2"
                            },
                            {
                                "name": "modulo",
                                "type": "uint256",
                                "value": "2"
                            },
                            {
                                "name": "commitLastBlock",
                                "type": "uint256",
                                "value": "7,875,059"
                            },
                            {
                                "name": "commit",
                                "type": "uint256",
                                "value": "41,733,883,564,820,028,951,954,613,312,757,922,119,978,455,386,924,511,072,440,392,769,567,957,181,399"
                            },
                            {
                                "name": "r",
                                "type": "bytes32",
                                "value": "0xe1e4dc67db41c7d8396a4a03d5d11152e921bb1025d87ea0c3851d9b0fc199c7"
                            },
                            {
                                "name": "s",
                                "type": "bytes32",
                                "value": "0x0031b0419712d77796cb2d11ecb7cf039f6efe19f76368edbe16f23ea97c5a7f"
                            }
                        ],
                        "constructorArguments": "",
                        "name": "placeBet",
                        "returnParams": [],
                        "signature": "placeBet(uint256,uint256,uint256,uint256,bytes32,bytes32)"
                    },
                    "errorInfo": "",
                    "fromAddress": "0xc5acdaa2a5bd9246ea271cf4d64e208f9a84a95e",
                    "gasUsed": 82068,
                    "id": 0,
                    "methodDecoded": true,
                    "operation": "CALL",
                    "output": "",
                    "revert": false,
                    "revertMessage": "",
                    "selector": "0x5e83b463",
                    "status": true,
                    "value": "0.1"
                },
                "nodeType": 0
            },
            "1": {
                "invocation": {
                    "address": "0x0000000000000000000000000000000000000001",
                    "callData": "0xec92b9369c427077932a82a1afa61ff46e90dfc51080006ec959c5d7000000000000000000000000000000000000000000000000000000000000001be1e4dc67db41c7d8396a4a03d5d11152e921bb1025d87ea0c3851d9b0fc199c70031b0419712d77796cb2d11ecb7cf039f6efe19f76368edbe16f23ea97c5a7f",
                    "decodedMethod": {
                        "callParams": [
                            {
                                "name": "hash",
                                "type": "bytes32",
                                "value": "0xed2cb25bec92b9369c427077932a82a1afa61ff46e90dfc51080006ec959c5d7"
                            },
                            {
                                "name": "v",
                                "type": "uint256",
                                "value": "27"
                            },
                            {
                                "name": "r",
                                "type": "bytes32",
                                "value": "0xe1e4dc67db41c7d8396a4a03d5d11152e921bb1025d87ea0c3851d9b0fc199c7"
                            },
                            {
                                "name": "s",
                                "type": "bytes32",
                                "value": "0x0031b0419712d77796cb2d11ecb7cf039f6efe19f76368edbe16f23ea97c5a7f"
                            }
                        ],
                        "constructorArguments": "",
                        "name": "ecrecover",
                        "returnParams": [
                            {
                                "name": "",
                                "type": "address",
                                "value": "0xb00b5ca7ec0502f2f269e99b91ebbccbce9cccec"
                            }
                        ],
                        "signature": "ecrecover(bytes32,uint256,bytes32,bytes32)"
                    },
                    "errorInfo": "",
                    "fromAddress": "0xd1ceeeeee83f8bcf3bedad437202b6154e9f5405",
                    "gasUsed": 3000,
                    "id": 1,
                    "methodDecoded": true,
                    "operation": "CALL",
                    "output": "0x000000000000000000000000b00b5ca7ec0502f2f269e99b91ebbccbce9cccec",
                    "revert": false,
                    "revertMessage": "",
                    "selector": "0xed2cb25b",
                    "status": true,
                    "value": "0"
                },
                "nodeType": 0
            },
            "2": {
                "event": {
                    "contract": "0xd1ceeeeee83f8bcf3bedad437202b6154e9f5405",
                    "decodedLog": {
                        "name": "Commit",
                        "params": [
                            {
                                "name": "commit",
                                "type": "uint256",
                                "value": "41,733,883,564,820,028,951,954,613,312,757,922,119,978,455,386,924,511,072,440,392,769,567,957,181,399"
                            }
                        ],
                        "signature": "Commit(uint256)"
                    },
                    "id": 2,
                    "logData": "0x5c448a801b6668c4280521fbd478fe1dbdac65a216da3627021ae709e08be3d7",
                    "logDecoded": true,
                    "operation": "EVENT",
                    "revert": false,
                    "status": true,
                    "topics": [
                        "0x5bdd2fc99022530157777690475b670d3872f32262eb1d47d9ba8000dad58f87"
                    ]
                },
                "nodeType": 1
            }
        },
        "gasFlame": [
            {
                "children": [
                    {
                        "children": [
                            {
                                "children": [],
                                "depth": 0,
                                "name": "Initial Gas",
                                "value": 28440
                            },
                            {
                                "children": [
                                    {
                                        "children": [],
                                        "depth": 1,
                                        "name": "ecrecover",
                                        "value": 3000
                                    }
                                ],
                                "depth": 0,
                                "name": "Executed Gas",
                                "value": 53628
                            }
                        ],
                        "depth": -1,
                        "name": "Actual Gas Used",
                        "value": 82068
                    },
                    {
                        "children": [],
                        "depth": -1,
                        "name": "Refunded Gas",
                        "value": 0
                    }
                ],
                "depth": -2,
                "name": "Total Gas",
                "value": 82068
            }
        ],
        "isConfirmed": true,
        "mainTrace": [
            {
                "children": [
                    {
                        "children": [
                            {
                                "children": [],
                                "depth": 1,
                                "id": 1,
                                "order": 1
                            },
                            {
                                "children": [],
                                "depth": 1,
                                "id": 2,
                                "order": 2
                            }
                        ],
                        "depth": 0,
                        "id": 0,
                        "order": 0
                    }
                ],
                "depth": -1,
                "id": -1,
                "order": -1
            }
        ],
        "mainTraceNodeCount": 3,
        "parentIdMap": {
            "0": -1,
            "1": 0,
            "2": 0
        },
        "tidyTrace": [
            {
                "children": [
                    {
                        "children": [
                            {
                                "children": [],
                                "depth": 1,
                                "id": 1,
                                "order": 1
                            },
                            {
                                "children": [],
                                "depth": 1,
                                "id": 2,
                                "order": 2
                            }
                        ],
                        "depth": 0,
                        "id": 0,
                        "order": 0
                    }
                ],
                "depth": -1,
                "id": -1,
                "order": -1
            }
        ],
        "tidyTraceNodeCount": 3
    },
    "state_change": {
        "stateChanges": [
            {
                "address": "0xd1ceeeeee83f8bcf3bedad437202b6154e9f5405",
                "erc": "",
                "slots": [
                    {
                        "current": "0x000000000000000010fa63d172368000000000000000000014c9f71031890000",
                        "key": "0x0000000000000000000000000000000000000000000000000000000000000004",
                        "prev": "0x00000000000000000e420edb4a3c8000000000000000000014c669918cc28000"
                    },
                    {
                        "current": "0x000000000000000000000000000000000000000000000000016345785d8a0000",
                        "key": "0x5ce8614e0746a2ac869256ae91f8bb6256799b7bd4131c98b52d736594280334",
                        "prev": "0x0000000000000000000000000000000000000000000000000000000000000000"
                    },
                    {
                        "current": "0xc5acdaa2a5bd9246ea271cf4d64e208f9a84a95e0000000002000078292d0102",
                        "key": "0x5ce8614e0746a2ac869256ae91f8bb6256799b7bd4131c98b52d736594280335",
                        "prev": "0x0000000000000000000000000000000000000000000000000000000000000000"
                    }
                ],
                "storageVariables": [
                    {
                        "name": "bets",
                        "type": "mapping(uint256 => struct Dice2Win.Bet)",
                        "value": {
                            "pairs": [
                                {
                                    "key": "41733883564820028951954613312757922119978455386924511072440392769567957181399",
                                    "value": {
                                        "fields": [
                                            {
                                                "name": "amount",
                                                "type": "uint256",
                                                "value": {
                                                    "current": "100000000000000000",
                                                    "prev": "0",
                                                    "typeTag": 1
                                                }
                                            },
                                            {
                                                "name": "modulo",
                                                "type": "uint8",
                                                "value": {
                                                    "current": "2",
                                                    "prev": "0",
                                                    "typeTag": 1
                                                }
                                            },
                                            {
                                                "name": "rollUnder",
                                                "type": "uint8",
                                                "value": {
                                                    "current": "1",
                                                    "prev": "0",
                                                    "typeTag": 1
                                                }
                                            },
                                            {
                                                "name": "placeBlockNumber",
                                                "type": "uint40",
                                                "value": {
                                                    "current": "7874861",
                                                    "prev": "0",
                                                    "typeTag": 1
                                                }
                                            },
                                            {
                                                "name": "mask",
                                                "type": "uint40",
                                                "value": {
                                                    "current": "2",
                                                    "prev": "0",
                                                    "typeTag": 1
                                                }
                                            },
                                            {
                                                "name": "gambler",
                                                "type": "address",
                                                "value": {
                                                    "current": "0xc5acdaa2a5bd9246ea271cf4d64e208f9a84a95e",
                                                    "prev": "0x0000000000000000000000000000000000000000",
                                                    "typeTag": 1
                                                }
                                            }
                                        ],
                                        "typeTag": 3
                                    }
                                }
                            ],
                            "typeTag": 4
                        }
                    },
                    {
                        "name": "jackpotSize",
                        "type": "uint128",
                        "value": {
                            "current": "1498000000000000000",
                            "prev": "1497000000000000000",
                            "typeTag": 1
                        }
                    },
                    {
                        "name": "lockedInBets",
                        "type": "uint128",
                        "value": {
                            "current": "1223400000000000000",
                            "prev": "1027400000000000000",
                            "typeTag": 1
                        }
                    }
                ]
            }
        ]
    }
}