{
    "balance_change": {
        "balanceChanges": [
            {
                "account": "0x0da9d9ecea7235c999764e34f08499ca424c0177",
                "assets": [
                    {
                        "address": "0xc02aaa39b223fe8d0a0e5c4f27ead9083c756cc2",
                        "amount": "131.907415952238462688",
                        "iconUrl": "https://assets.blocksec.com/icon/f1cb2d02c471d545bbc7722daf3277fd852d98e63d118771af7047bd8256c516.png",
                        "isERC1155": false,
                        "isERC721": false,
                        "sign": false,
                        "value": "311405.23375194239443"
                    }
                ]
            },
            {
                "account": "0x5050e08626c499411b5d0e0b5af0e83d3fd82edf",
                "assets": [
                    {
                        "address": "0xc02aaa39b223fe8d0a0e5c4f27ead9083c756cc2",
                        "amount": "131.907415952238462688",
                        "iconUrl": "https://assets.blocksec.com/icon/f1cb2d02c471d545bbc7722daf3277fd852d98e63d118771af7047bd8256c516.png",
                        "isERC1155": false,
                        "isERC721": false,
                        "sign": true,
                        "value": "311405.23375194239443"
                    }
                ]
            }
        ]
    },
    "profile": {
        "basic_info": {
            "baseFee": "4.513983866",
            "blockNumber": 20737206,
            "callData": "0x1cff79cd0000000000000000000000003376d7d055f5d7b83b0f03c886011b1dbafef27600000000000000000000000000000000000000000000000000000000000000400000000000000000000000000000000000000000000000000000000000000064f5537ede000000000000000000000000c02aaa39b223fe8d0a0e5c4f27ead9083c756cc20000000000000000000000005050e08626c499411b5d0e0b5af0e83d3fd82edf000000000000000000000000000000000000000000000007269547eee0de46e100000000000000000000000000000000000000000000000000000000",
            "debugEnable": true,
            "errorInfo": "",
            "eventCount": 1,
            "feeRecipient": "0x95222290dd7278aa3ddd389cc1e1d165cc4bafe5",
            "formatValue": "0",
            "gasLimit": 74356,
            "gasPrice": "4.532948887",
            "gasUsed": 40127,
            "intTxnCount": 2,
            "internalRevert": false,
            "internalRevertMessage": "",
            "isContractCreation": false,
            "isFlashloan": false,
            "maxFee": "5.642070929",
            "nonce": 11921,
            "overwritedBlockNumber": -1,
            "priorityFee": "0.018965021",
            "receiver": "0x0da9d9ecea7235c999764e34f08499ca424c0177",
            "revertMessage": "",
            "sender": "0x90f2de5fb236ee5e1980f5cdacec60792262b4da",
            "simulationEnable": true,
            "sourceTxnHash": "0x7b7a28919419368697455cdd566a625369273804f44101e8cefd2ad65d9805d8",
            "status": true,
            "timestamp": "2024-09-12T21:26:59Z",
            "transactionFee": "0.000181893639988649",
            "txnHash": "0x7b7a28919419368697455cdd566a625369273804f44101e8cefd2ad65d9805d8",
            "txnIndex": 104,
            "type": 2,
            "value": "0"
        },
        "fund_flow": [
            {
                "amount": "131.907415952238462688",
                "from": "0x0da9d9ecea7235c999764e34f08499ca424c0177",
                "id": 1,
                "isERC1155": false,
                "isERC721": false,
                "isReverted": false,
                "order": 1,
                "to": "0x5050e08626c499411b5d0e0b5af0e83d3fd82edf",
                "token": "0xc02aaa39b223fe8d0a0e5c4f27ead9083c756cc2"
            }
        ],
        "token_infos": [
            {
                "address": "0xc02aaa39b223fe8d0a0e5c4f27ead9083c756cc2",
                "decimals": 18
            },
            {
                "address": "0xeeeeeeeeeeeeeeeeeeeeeeeeeeeeeeeeeeeeeeee",
                "decimals": 18
            }
        ]
    },
    "address_label": {
        "labels": [
            {
                "address": "0x0000000000000000000000000000000000000002",
                "label": "Precompiled"
            },
            {
                "address": "0x0000000000000000000000000000000000000003",
                "label": "Precompiled"
            },
            {
                "address": "0x0000000000000000000000000000000000000004",
                "label": "Precompiled"
            },
            {
                "address": "0xeeeeeeeeeeeeeeeeeeeeeeeeeeeeeeeeeeeeeeee",
                "label": "Ether"
            },
            {
                "address": "0x5050e08626c499411b5d0e0b5af0e83d3fd82edf",
                "label": "MEV Bot: 0x50...EDF"
            },
            {
                "address": "0xc02aaa39b223fe8d0a0e5c4f27ead9083c756cc2",
                "label": "Wrapped Ether (WETH)"
            },
            {
                "address": "0x0000000000000000000000000000000000000001",
                "label": "Precompiled"
            }
        ]
    },
    "trace": {
        "accountLabels": null,
        "dataMap": {
            "-1": {
                "invocation": {
                    "address": "0x90f2de5fb236ee5e1980f5cdacec60792262b4da",
                    "callData": "",
                    "decodedMethod": null,
                    "errorInfo": "",
                    "fromAddress": "",
                    "gasUsed": 0,
                    "id": -1,
                    "methodDecoded": false,
                    "operation": "",
                    "output": "",
                    "revert": false,
                    "revertMessage": "",
                    "selector": "",
                    "status": false,
                    "value": ""
                },
                "nodeType": 0
            },
            "0": {
                "invocation": {
                    "address": "0x0da9d9ecea7235c999764e34f08499ca424c0177",
                    "callData": "0x0000000000000000000000003376d7d055f5d7b83b0f03c886011b1dbafef27600000000000000000000000000000000000000000000000000000000000000400000000000000000000000000000000000000000000000000000000000000064f5537ede000000000000000000000000c02aaa39b223fe8d0a0e5c4f27ead9083c756cc20000000000000000000000005050e08626c499411b5d0e0b5af0e83d3fd82edf000000000000000000000000000000000000000000000007269547eee0de46e100000000000000000000000000000000000000000000000000000000",
                    "decodedMethod": {
                        "callParams": [
                            {
                                "name": "_target",
                                "type": "address",
                                "value": "0x3376d7d055f5d7b83b0f03c886011b1dbafef276"
                            },
                            {
                                "name": "_data",
                                "type": "bytes",
                                "value": "0xf5537ede000000000000000000000000c02aaa39b223fe8d0a0e5c4f27ead9083c756cc20000000000000000000000005050e08626c499411b5d0e0b5af0e83d3fd82edf000000000000000000000000000000000000000000000007269547eee0de46e1"
                            }
                        ],
                        "constructorArguments": "",
                        "name": "execute",
                        "returnParams": [],
                        "signature": "execute(address,bytes)"
                    },
                    "errorInfo": "",
                    "fromAddress": "0x90f2de5fb236ee5e1980f5cdacec60792262b4da",
                    "gasUsed": 40127,
                    "id": 0,
                    "methodDecoded": true,
                    "operation": "CALL",
                    "output": "",
                    "revert": false,
                    "revertMessage": "",
                    "selector": "0x1cff79cd",
                    "status": true,
                    "value": "0"
                },
                "nodeType": 0
            },
            "1": {
                "invocation": {
                    "address": "0x3376d7d055f5d7b83b0f03c886011b1dbafef276",
                    "callData": "0x000000000000000000000000c02aaa39b223fe8d0a0e5c4f27ead9083c756cc20000000000000000000000005050e08626c499411b5d0e0b5af0e83d3fd82edf000000000000000000000000000000000000000000000007269547eee0de46e1",
                    "decodedMethod": {
                        "callParams": [
                            {
                                "name": "_from",
                                "type": "address",
                                "value": "0xc02aaa39b223fe8d0a0e5c4f27ead9083c756cc2"
                            },
                            {
                                "name": "_to",
                                "type": "address",
                                "value": "0x5050e08626c499411b5d0e0b5af0e83d3fd82edf"
                            },
                            {
                                "name": "_tokenId",
                                "type": "uint256",
                                "value": "131,907,415,952,238,462,689"
                            }
                        ],
                        "constructorArguments": "",
                        "name": "transferToken",
                        "returnParams": [],
                        "signature": "transferToken(address,address,uint256)"
                    },
                    "errorInfo": "",
                    "fromAddress": "0x0da9d9ecea7235c999764e34f08499ca424c0177",
                    "gasUsed": 16596,
                    "id": 1,
                    "methodDecoded": true,
                    "operation": "DELEGATECALL",
                    "output": "",
                    "revert": false,
                    "revertMessage": "",
                    "selector": "0xf5537ede",
                    "status": true,
                    "value": "0"
                },
                "nodeType": 0
            },
            "2": {
                "invocation": {
                    "address": "0xc02aaa39b223fe8d0a0e5c4f27ead9083c756cc2",
                    "callData": "0x0000000000000000000000005050e08626c499411b5d0e0b5af0e83d3fd82edf000000000000000000000000000000000000000000000007269547eee0de46e1",
                    "decodedMethod": {
                        "callParams": [
                            {
                                "name": "dst",
                                "type": "address",
                                "value": "0x5050e08626c499411b5d0e0b5af0e83d3fd82edf"
                            },
                            {
                                "decimalAvailable": true,
                                "name": "wad",
                                "type": "uint256",
                                "value": "131,907,415,952,238,462,689"
                            }
                        ],
                        "constructorArguments": "",
                        "name": "transfer",
                        "returnParams": [
                            {
                                "name": "",
                                "type": "bool",
                                "value": true
                            }
                        ],
                        "signature": "transfer(address,uint256)"
                    },
                    "errorInfo": "",
                    "fromAddress": "0x0da9d9ecea7235c999764e34f08499ca424c0177",
                    "gasUsed": 12862,
                    "id": 2,
                    "methodDecoded": true,
                    "operation": "CALL",
                    "output": "0x0000000000000000000000000000000000000000000000000000000000000001",
                    "revert": false,
                    "revertMessage": "",
                    "selector": "0xa9059cbb",
                    "status": true,
                    "value": "0"
                },
                "nodeType": 0
            },
            "3": {
                "event": {
                    "contract": "0xc02aaa39b223fe8d0a0e5c4f27ead9083c756cc2",
                    "decodedLog": {
                        "name": "Transfer",
                        "params": [
                            {
                                "name": "src",
                                "type": "address",
                                "value": "0x0da9d9ecea7235c999764e34f08499ca424c0177"
                            },
                            {
                                "name": "dst",
                                "type": "address",
                                "value": "0x5050e08626c499411b5d0e0b5af0e83d3fd82edf"
                            },
                            {
                                "decimalAvailable": true,
                                "name": "wad",
                                "type": "uint256",
                                "value": "131,907,415,952,238,462,689"
                            }
                        ],
                        "signature": "Transfer(address,address,uint256)"
                    },
                    "id": 3,
                    "logData": "0x000000000000000000000000000000000000000000000007269547eee0de46e1",
                    "logDecoded": true,
                    "operation": "EVENT",
                    "revert": false,
                    "status": true,
                    "topics": [
                        "0xddf252ad1be2c89b69c2b068fc378daa952ba7f163c4a11628f55a4df523b3ef",
                        "0x0000000000000000000000000da9d9ecea7235c999764e34f08499ca424c0177",
                        "0x0000000000000000000000005050e08626c499411b5d0e0b5af0e83d3fd82edf"
                    ]
                },
                "nodeType": 1
            }
        },
        "gasFlame": [
            {
                "children": [
                    {
                        "children": [
                            {
                                "children": [],
                                "depth": 0,
                                "name": "Initial Gas",
                                "value": 22860
                            },
                            {
                                "children": [
                                    {
                                        "children": [
                                            {
                                                "children": [],
                                                "depth": 2,
                                                "name": "transfer",
                                                "value": 12862
                                            }
                                        ],
                                        "depth": 1,
                                        "name": "transferToken",
                                        "value": 16596
                                    }
                                ],
                                "depth": 0,
                                "name": "Executed Gas",
                                "value": 22067
                            }
                        ],
                        "depth": -1,
                        "name": "Actual Gas Used",
                        "value": 40127
                    },
                    {
                        "children": [],
                        "depth": -1,
                        "name": "Refunded Gas",
                        "value": 4800
                    }
                ],
                "depth": -2,
                "name": "Total Gas",
                "value": 44927
            }
        ],
        "isConfirmed": true,
        "mainTrace": [
            {
                "children": [
                    {
                        "children": [
                            {
                                "children": [
                                    {
                                        "children": [
                                            {
                                                "children": [],
                                                "depth": 3,
                                                "id": 3,
                                                "order": 3
                                            }
                                        ],
                                        "depth": 2,
                                        "id": 2,
                                        "order": 2
                                    }
                                ],
                                "depth": 1,
                                "id": 1,
                                "order": 1
                            }
                        ],
                        "depth": 0,
                        "id": 0,
                        "order": 0
                    }
                ],
                "depth": -1,
                "id": -1,
                "order": -1
            }
        ],
        "mainTraceNodeCount": 4,
        "parentIdMap": {
            "0": -1,
            "1": 0,
            "2": 1,
            "3": 2
        },
        "tidyTrace": [
            {
                "children": [
                    {
                        "children": [
                            {
                                "children": [
                                    {
                                        "children": [
                                            {
                                                "children": [],
                                                "depth": 3,
                                                "id": 3,
                                                "order": 3
                                            }
                                        ],
                                        "depth": 2,
                                        "id": 2,
                                        "order": 2
                                    }
                                ],
                                "depth": 1,
                                "id": 1,
                                "order": 1
                            }
                        ],
                        "depth": 0,
                        "id": 0,
                        "order": 0
                    }
                ],
                "depth": -1,
                "id": -1,
                "order": -1
            }
        ],
        "tidyTraceNodeCount": 4
    },
    "state_change": {
        "stateChanges": [
            {
                "address": "0xc02aaa39b223fe8d0a0e5c4f27ead9083c756cc2",
                "erc": "ERC-20",
                "slots": [
                    {
                        "current": "0x0000000000000000000000000000000000000000000000000000000000000000",
                        "key": "0xa18c3ac1b7d90a76fbeb68acfa0653c6739e1e926e8fbb4325d0f7d5522f8269",
                        "prev": "0x000000000000000000000000000000000000000000000007269547eee0de46e1"
                    },
                    {
                        "current": "0x00000000000000000000000000000000000000000000000865013edd338277e4",
                        "key": "0x037115957c78e37f987a242ae6019b6d91ee5fe4035e6bd8dbead7487b2a0cdd",
                        "prev": "0x0000000000000000000000000000000000000000000000013e6bf6ee52a43103"
                    }
                ],
                "storageVariables": [
                    {
                        "name": "balanceOf",
                        "type": "mapping(address => uint256)",
                        "value": {
                            "pairs": [
                                {
                                    "key": "0x0da9d9ecea7235c999764e34f08499ca424c0177",
                                    "value": {
                                        "current": "0",
                                        "prev": "131907415952238462689",
                                        "typeTag": 1
                                    }
                                },
                                {
                                    "key": "0x5050e08626c499411b5d0e0b5af0e83d3fd82edf",
                                    "value": {
                                        "current": "154852120182256728036",
                                        "prev": "22944704230018265347",
                                        "typeTag": 1
                                    }
                                }
                            ],
                            "typeTag": 4
                        }
                    }
                ]
            }
        ]
    }
}