{
    "balance_change": {
        "balanceChanges": [
            {
                "account": "0x23254ce68c8d202d05e4985caa22506be8a8a4ce",
                "assets": [
                    {
                        "address": "0x67bc56caad630dc1719b14a540adc8e9968325c3",
                        "amount": "1,175.150000000000065536",
                        "iconUrl": "",
                        "isERC1155": false,
                        "isERC721": false,
                        "sign": false,
                        "value": ""
                    }
                ]
            },
            {
                "account": "0x9c5b9bba2c894147f6a6d7c7bd4c63eb5ff566ef",
                "assets": [
                    {
                        "address": "0x67bc56caad630dc1719b14a540adc8e9968325c3",
                        "amount": "1,175.150000000000065536",
                        "iconUrl": "",
                        "isERC1155": false,
                        "isERC721": false,
                        "sign": true,
                        "value": ""
                    }
                ]
            }
        ]
    },
    "profile": {
        "basic_info": {
            "baseFee": "",
            "blockNumber": 8410731,
            "callData": "0xa9059cbb0000000000000000000000009c5b9bba2c894147f6a6d7c7bd4c63eb5ff566ef00000000000000000000000000000000000000000000003fb47b7ac9d84c0000",
            "debugEnable": true,
            "errorInfo": "",
            "eventCount": 1,
            "feeRecipient": "0x829bd824b016326a401d083b33d092293333a830",
            "formatValue": "0",
            "gasLimit": 100000,
            "gasPrice": "12.1",
            "gasUsed": 36611,
            "intTxnCount": 0,
            "internalRevert": false,
            "internalRevertMessage": "",
            "isContractCreation": false,
            "isFlashloan": false,
            "maxFee": "",
            "nonce": 93518,
            "overwritedBlockNumber": -1,
            "priorityFee": "",
            "receiver": "0x67bc56caad630dc1719b14a540adc8e9968325c3",
            "revertMessage": "",
            "sender": "0x23254ce68c8d202d05e4985caa22506be8a8a4ce",
            "simulationEnable": true,
            "sourceTxnHash": "0x7bd34499498c428ffe53849ea415e6831a66fe881f77b9bc09f3eef62dbabd1a",
            "status": true,
            "timestamp": "2019-08-24T04:10:44Z",
            "transactionFee": "0.0004429931",
            "txnHash": "0x7bd34499498c428ffe53849ea415e6831a66fe881f77b9bc09f3eef62dbabd1a",
            "txnIndex": 141,
            "type": 0,
            "value": "0"
        },
        "fund_flow": [
            {
                "amount": "1,175.150000000000065536",
                "from": "0x23254ce68c8d202d05e4985caa22506be8a8a4ce",
                "id": 1,
                "isERC1155": false,
                "isERC721": false,
                "isReverted": false,
                "order": 1,
                "to": "0x9c5b9bba2c894147f6a6d7c7bd4c63eb5ff566ef",
                "token": "0x67bc56caad630dc1719b14a540adc8e9968325c3"
            }
        ],
        "token_infos": [
            {
                "address": "0x67bc56caad630dc1719b14a540adc8e9968325c3",
                "decimals": 18
            },
            {
                "address": "0xc02aaa39b223fe8d0a0e5c4f27ead9083c756cc2",
                "decimals": 18
            },
            {
                "address": "0xeeeeeeeeeeeeeeeeeeeeeeeeeeeeeeeeeeeeeeee",
                "decimals": 18
            }
        ]
    },
    "address_label": {
        "labels": [
            {
                "address": "0xeeeeeeeeeeeeeeeeeeeeeeeeeeeeeeeeeeeeeeee",
                "label": "Ether"
            },
            {
                "address": "0x67bc56caad630dc1719b14a540adc8e9968325c3",
                "label": "SPN Token (SPN)"
            },
            {
                "address": "0x9c5b9bba2c894147f6a6d7c7bd4c63eb5ff566ef",
                "label": "HUOBI"
            },
            {
                "address": "0x0000000000000000000000000000000000000001",
                "label": "Precompiled"
            },
            {
                "address": "0x0000000000000000000000000000000000000002",
                "label": "Precompiled"
            },
            {
                "address": "0x0000000000000000000000000000000000000003",
                "label": "Precompiled"
            },
            {
                "address": "0x0000000000000000000000000000000000000004",
                "label": "Precompiled"
            }
        ]
    },
    "trace": {
        "accountLabels": null,
        "dataMap": {
            "-1": {
                "invocation": {
                    "address": "0x23254ce68c8d202d05e4985caa22506be8a8a4ce",
                    "callData": "",
                    "decodedMethod": null,
                    "errorInfo": "",
                    "fromAddress": "",
                    "gasUsed": 0,
                    "id": -1,
                    "methodDecoded": false,
                    "operation": "",
                    "output": "",
                    "revert": false,
                    "revertMessage": "",
                    "selector": "",
                    "status": false,
                    "value": ""
                },
                "nodeType": 0
            },
            "0": {
                "invocation": {
                    "address": "0x67bc56caad630dc1719b14a540adc8e9968325c3",
                    "callData": "0x0000000000000000000000009c5b9bba2c894147f6a6d7c7bd4c63eb5ff566ef00000000000000000000000000000000000000000000003fb47b7ac9d84c0000",
                    "decodedMethod": {
                        "callParams": [
                            {
                                "name": "_to",
                                "type": "address",
                                "value": "0x9c5b9bba2c894147f6a6d7c7bd4c63eb5ff566ef"
                            },
                            {
                                "decimalAvailable": true,
                                "name": "_value",
                                "type": "uint256",
                                "value": "1,175,150,000,000,000,065,536"
                            }
                        ],
                        "constructorArguments": "",
                        "name": "transfer",
                        "returnParams": [
                            {
                                "name": "",
                                "type": "bool",
                                "value": true
                            }
                        ],
                        "signature": "transfer(address,uint256)"
                    },
                    "errorInfo": "",
                    "fromAddress": "0x23254ce68c8d202d05e4985caa22506be8a8a4ce",
                    "gasUsed": 36611,
                    "id": 0,
                    "methodDecoded": true,
                    "operation": "CALL",
                    "output": "0x0000000000000000000000000000000000000000000000000000000000000001",
                    "revert": false,
                    "revertMessage": "",
                    "selector": "0xa9059cbb",
                    "status": true,
                    "value": "0"
                },
                "nodeType": 0
            },
            "1": {
                "event": {
                    "contract": "0x67bc56caad630dc1719b14a540adc8e9968325c3",
                    "decodedLog": {
                        "name": "Transfer",
                        "params": [
                            {
                                "name": "from",
                                "type": "address",
                                "value": "0x23254ce68c8d202d05e4985caa22506be8a8a4ce"
                            },
                            {
                                "name": "to",
                                "type": "address",
                                "value": "0x9c5b9bba2c894147f6a6d7c7bd4c63eb5ff566ef"
                            },
                            {
                                "decimalAvailable": true,
                                "name": "value",
                                "type": "uint256",
                                "value": "1,175,150,000,000,000,065,536"
                            }
                        ],
                        "signature": "Transfer(address,address,uint256)"
                    },
                    "id": 1,
                    "logData": "0x00000000000000000000000000000000000000000000003fb47b7ac9d84c0000",
                    "logDecoded": true,
                    "operation": "EVENT",
                    "revert": false,
                    "status": true,
                    "topics": [
                        "0xddf252ad1be2c89b69c2b068fc378daa952ba7f163c4a11628f55a4df523b3ef",
                        "0x00000000000000000000000023254ce68c8d202d05e4985caa22506be8a8a4ce",
                        "0x0000000000000000000000009c5b9bba2c894147f6a6d7c7bd4c63eb5ff566ef"
                    ]
                },
                "nodeType": 1
            }
        },
        "gasFlame": [
            {
                "children": [
                    {
                        "children": [
                            {
                                "children": [],
                                "depth": 0,
                                "name": "Initial Gas",
                                "value": 23256
                            },
                            {
                                "children": [],
                                "depth": 0,
                                "name": "Executed Gas",
                                "value": 13355
                            }
                        ],
                        "depth": -1,
                        "name": "Actual Gas Used",
                        "value": 36611
                    },
                    {
                        "children": [],
                        "depth": -1,
                        "name": "Refunded Gas",
                        "value": 0
                    }
                ],
                "depth": -2,
                "name": "Total Gas",
                "value": 36611
            }
        ],
        "isConfirmed": true,
        "mainTrace": [
            {
                "children": [
                    {
                        "children": [
                            {
                                "children": [],
                                "depth": 1,
                                "id": 1,
                                "order": 1
                            }
                        ],
                        "depth": 0,
                        "id": 0,
                        "order": 0
                    }
                ],
                "depth": -1,
                "id": -1,
                "order": -1
            }
        ],
        "mainTraceNodeCount": 2,
        "parentIdMap": {
            "0": -1,
            "1": 0
        },
        "tidyTrace": [
            {
                "children": [
                    {
                        "children": [
                            {
                                "children": [],
                                "depth": 1,
                                "id": 1,
                                "order": 1
                            }
                        ],
                        "depth": 0,
                        "id": 0,
                        "order": 0
                    }
                ],
                "depth": -1,
                "id": -1,
                "order": -1
            }
        ],
        "tidyTraceNodeCount": 2
    },
    "state_change": {
        "stateChanges": [
            {
                "address": "0x67bc56caad630dc1719b14a540adc8e9968325c3",
                "erc": "ERC-20",
                "slots": [
                    {
                        "current": "0x000000000000000000000000000000000000000000085cf3aa5c68e0779fec00",
                        "key": "0xf5a627441616404ec06593a69758af4b51369456790dee08857542cfd8dc1ddf",
                        "prev": "0x000000000000000000000000000000000000000000085d335ed7e3aa4febec00"
                    },
                    {
                        "current": "0x0000000000000000000000000000000000000000000003968c031dcf94ba0a00",
                        "key": "0xad8924aad4661ceb7034deb29147885d6cd299a46e6ed364844a59d62f8603b6",
                        "prev": "0x000000000000000000000000000000000000000000000356d787a305bc6e0a00"
                    }
                ],
                "storageVariables": [
                    {
                        "name": "balances",
                        "type": "mapping(address => uint256)",
                        "value": {
                            "pairs": [
                                {
                                    "key": "0x23254ce68c8d202d05e4985caa22506be8a8a4ce",
                                    "value": {
                                        "current": "10110359107952949772413952",
                                        "prev": "10111534257952949772479488",
                                        "typeTag": 1
                                    }
                                },
                                {
                                    "key": "0x9c5b9bba2c894147f6a6d7c7bd4c63eb5ff566ef",
                                    "value": {
                                        "current": "16944200000032999082496",
                                        "prev": "15769050000032999016960",
                                        "typeTag": 1
                                    }
                                }
                            ],
                            "typeTag": 4
                        }
                    }
                ]
            }
        ]
    }
}