{
    "balance_change": {
        "balanceChanges": [
            {
                "account": "0xffec0067f5a79cff07527f63d83dd5462ccf8ba4",
                "assets": [
                    {
                        "address": "0xb62132e35a6c13ee1ee0f84dc5d40bad8d815206",
                        "amount": "10",
                        "iconUrl": "https://assets.blocksec.com/icon/fea86f969d2759a2ee2f170e71fc014cd439e415f97fa60c37db575eb46dfac5.png",
                        "isERC1155": false,
                        "isERC721": false,
                        "sign": false,
                        "value": ""
                    }
                ]
            },
            {
                "account": "0x351d25a51bf662077b2cd5e8759c9ce307eb7480",
                "assets": [
                    {
                        "address": "0xb62132e35a6c13ee1ee0f84dc5d40bad8d815206",
                        "amount": "10",
                        "iconUrl": "https://assets.blocksec.com/icon/fea86f969d2759a2ee2f170e71fc014cd439e415f97fa60c37db575eb46dfac5.png",
                        "isERC1155": false,
                        "isERC721": false,
                        "sign": true,
                        "value": ""
                    }
                ]
            }
        ]
    },
    "profile": {
        "basic_info": {
            "baseFee": "",
            "blockNumber": 9550133,
            "callData": "0xa9059cbb000000000000000000000000351d25a51bf662077b2cd5e8759c9ce307eb74800000000000000000000000000000000000000000000000008ac7230489e80000",
            "debugEnable": true,
            "errorInfo": "",
            "eventCount": 1,
            "feeRecipient": "0x829bd824b016326a401d083b33d092293333a830",
            "formatValue": "0",
            "gasLimit": 1600000,
            "gasPrice": "6.12152187",
            "gasUsed": 52663,
            "intTxnCount": 0,
            "internalRevert": false,
            "internalRevertMessage": "",
            "isContractCreation": false,
            "isFlashloan": false,
            "maxFee": "",
            "nonce": 66454,
            "overwritedBlockNumber": -1,
            "priorityFee": "",
            "receiver": "0xb62132e35a6c13ee1ee0f84dc5d40bad8d815206",
            "revertMessage": "",
            "sender": "0xffec0067f5a79cff07527f63d83dd5462ccf8ba4",
            "simulationEnable": true,
            "sourceTxnHash": "0x7bdb1918949eb5b700043cf9b2454339fdc333e628773b42fd64a48294d56eef",
            "status": true,
            "timestamp": "2020-02-25T03:16:39Z",
            "transactionFee": "0.00032237770623981",
            "txnHash": "0x7bdb1918949eb5b700043cf9b2454339fdc333e628773b42fd64a48294d56eef",
            "txnIndex": 132,
            "type": 0,
            "value": "0"
        },
        "fund_flow": [
            {
                "amount": "10",
                "from": "0xffec0067f5a79cff07527f63d83dd5462ccf8ba4",
                "id": 1,
                "isERC1155": false,
                "isERC721": false,
                "isReverted": false,
                "order": 1,
                "to": "0x351d25a51bf662077b2cd5e8759c9ce307eb7480",
                "token": "0xb62132e35a6c13ee1ee0f84dc5d40bad8d815206"
            }
        ],
        "token_infos": [
            {
                "address": "0xb62132e35a6c13ee1ee0f84dc5d40bad8d815206",
                "decimals": 18
            },
            {
                "address": "0xc02aaa39b223fe8d0a0e5c4f27ead9083c756cc2",
                "decimals": 18
            },
            {
                "address": "0xeeeeeeeeeeeeeeeeeeeeeeeeeeeeeeeeeeeeeeee",
                "decimals": 18
            }
        ]
    },
    "address_label": {
        "labels": [
            {
                "address": "0xb62132e35a6c13ee1ee0f84dc5d40bad8d815206",
                "label": "Nexo Token"
            },
            {
                "address": "0x0000000000000000000000000000000000000001",
                "label": "Precompiled"
            },
            {
                "address": "0x0000000000000000000000000000000000000002",
                "label": "Precompiled"
            },
            {
                "address": "0x0000000000000000000000000000000000000003",
                "label": "Precompiled"
            },
            {
                "address": "0x0000000000000000000000000000000000000004",
                "label": "Precompiled"
            },
            {
                "address": "0xeeeeeeeeeeeeeeeeeeeeeeeeeeeeeeeeeeeeeeee",
                "label": "Ether"
            },
            {
                "address": "0xffec0067f5a79cff07527f63d83dd5462ccf8ba4",
                "label": "Nexo 2"
            },
            {
                "address": "0x351d25a51bf662077b2cd5e8759c9ce307eb7480",
                "label": "HOTBIT"
            }
        ]
    },
    "trace": {
        "accountLabels": null,
        "dataMap": {
            "-1": {
                "invocation": {
                    "address": "0xffec0067f5a79cff07527f63d83dd5462ccf8ba4",
                    "callData": "",
                    "decodedMethod": null,
                    "errorInfo": "",
                    "fromAddress": "",
                    "gasUsed": 0,
                    "id": -1,
                    "methodDecoded": false,
                    "operation": "",
                    "output": "",
                    "revert": false,
                    "revertMessage": "",
                    "selector": "",
                    "status": false,
                    "value": ""
                },
                "nodeType": 0
            },
            "0": {
                "invocation": {
                    "address": "0xb62132e35a6c13ee1ee0f84dc5d40bad8d815206",
                    "callData": "0x000000000000000000000000351d25a51bf662077b2cd5e8759c9ce307eb74800000000000000000000000000000000000000000000000008ac7230489e80000",
                    "decodedMethod": {
                        "callParams": [
                            {
                                "name": "_to",
                                "type": "address",
                                "value": "0x351d25a51bf662077b2cd5e8759c9ce307eb7480"
                            },
                            {
                                "decimalAvailable": true,
                                "name": "_value",
                                "type": "uint256",
                                "value": "10,000,000,000,000,000,000"
                            }
                        ],
                        "constructorArguments": "",
                        "name": "transfer",
                        "returnParams": [
                            {
                                "name": "success",
                                "type": "bool",
                                "value": true
                            }
                        ],
                        "signature": "transfer(address,uint256)"
                    },
                    "errorInfo": "",
                    "fromAddress": "0xffec0067f5a79cff07527f63d83dd5462ccf8ba4",
                    "gasUsed": 52663,
                    "id": 0,
                    "methodDecoded": true,
                    "operation": "CALL",
                    "output": "0x0000000000000000000000000000000000000000000000000000000000000001",
                    "revert": false,
                    "revertMessage": "",
                    "selector": "0xa9059cbb",
                    "status": true,
                    "value": "0"
                },
                "nodeType": 0
            },
            "1": {
                "event": {
                    "contract": "0xb62132e35a6c13ee1ee0f84dc5d40bad8d815206",
                    "decodedLog": {
                        "name": "Transfer",
                        "params": [
                            {
                                "name": "from",
                                "type": "address",
                                "value": "0xffec0067f5a79cff07527f63d83dd5462ccf8ba4"
                            },
                            {
                                "name": "to",
                                "type": "address",
                                "value": "0x351d25a51bf662077b2cd5e8759c9ce307eb7480"
                            },
                            {
                                "decimalAvailable": true,
                                "name": "value",
                                "type": "uint256",
                                "value": "10,000,000,000,000,000,000"
                            }
                        ],
                        "signature": "Transfer(address,address,uint256)"
                    },
                    "id": 1,
                    "logData": "0x0000000000000000000000000000000000000000000000008ac7230489e80000",
                    "logDecoded": true,
                    "operation": "EVENT",
                    "revert": false,
                    "status": true,
                    "topics": [
                        "0xddf252ad1be2c89b69c2b068fc378daa952ba7f163c4a11628f55a4df523b3ef",
                        "0x000000000000000000000000ffec0067f5a79cff07527f63d83dd5462ccf8ba4",
                        "0x000000000000000000000000351d25a51bf662077b2cd5e8759c9ce307eb7480"
                    ]
                },
                "nodeType": 1
            }
        },
        "gasFlame": [
            {
                "children": [
                    {
                        "children": [
                            {
                                "children": [],
                                "depth": 0,
                                "name": "Initial Gas",
                                "value": 21632
                            },
                            {
                                "children": [],
                                "depth": 0,
                                "name": "Executed Gas",
                                "value": 31031
                            }
                        ],
                        "depth": -1,
                        "name": "Actual Gas Used",
                        "value": 52663
                    },
                    {
                        "children": [],
                        "depth": -1,
                        "name": "Refunded Gas",
                        "value": 0
                    }
                ],
                "depth": -2,
                "name": "Total Gas",
                "value": 52663
            }
        ],
        "isConfirmed": true,
        "mainTrace": [
            {
                "children": [
                    {
                        "children": [
                            {
                                "children": [],
                                "depth": 1,
                                "id": 1,
                                "order": 1
                            }
                        ],
                        "depth": 0,
                        "id": 0,
                        "order": 0
                    }
                ],
                "depth": -1,
                "id": -1,
                "order": -1
            }
        ],
        "mainTraceNodeCount": 2,
        "parentIdMap": {
            "0": -1,
            "1": 0
        },
        "tidyTrace": [
            {
                "children": [
                    {
                        "children": [
                            {
                                "children": [],
                                "depth": 1,
                                "id": 1,
                                "order": 1
                            }
                        ],
                        "depth": 0,
                        "id": 0,
                        "order": 0
                    }
                ],
                "depth": -1,
                "id": -1,
                "order": -1
            }
        ],
        "tidyTraceNodeCount": 2
    },
    "state_change": {
        "stateChanges": [
            {
                "address": "0xb62132e35a6c13ee1ee0f84dc5d40bad8d815206",
                "erc": "ERC-20",
                "slots": [
                    {
                        "current": "0x00000000000000000000000000000000000000000013262440f06efcf88ac800",
                        "key": "0xfa455e783309464d5431cbc34a05dd6d1bc65e28c7e7ef51d8d0166eb20e4db7",
                        "prev": "0x000000000000000000000000000000000000000000132624cbb792018272c800"
                    },
                    {
                        "current": "0x0000000000000000000000000000000000000000000000008ac7230489e80000",
                        "key": "0xeb99b9dc1b7d863d2fdc4491d15231bc3bf10031733770b1fc4615756813165d",
                        "prev": "0x0000000000000000000000000000000000000000000000000000000000000000"
                    }
                ],
                "storageVariables": [
                    {
                        "name": "balances",
                        "type": "mapping(address => uint256)",
                        "value": {
                            "pairs": [
                                {
                                    "key": "0x351d25a51bf662077b2cd5e8759c9ce307eb7480",
                                    "value": {
                                        "current": "10000000000000000000",
                                        "prev": "0",
                                        "typeTag": 1
                                    }
                                },
                                {
                                    "key": "0xffec0067f5a79cff07527f63d83dd5462ccf8ba4",
                                    "value": {
                                        "current": "23149709261175700000000000",
                                        "prev": "23149719261175700000000000",
                                        "typeTag": 1
                                    }
                                }
                            ],
                            "typeTag": 4
                        }
                    }
                ]
            }
        ]
    }
}