{
    "balance_change": {
        "balanceChanges": [
            {
                "account": "0x6d24ee40e6d598cbbe858998ae43d293fb97b8c2",
                "assets": [
                    {
                        "address": "0xeeeeeeeeeeeeeeeeeeeeeeeeeeeeeeeeeeeeeeee",
                        "amount": "0.005",
                        "iconUrl": "https://assets.blocksec.com/image/1663669189317-3.png",
                        "isERC1155": false,
                        "isERC721": false,
                        "sign": false,
                        "value": "12.43462178"
                    },
                    {
                        "address": "0x40986a85b4cfcdb054a6cbfb1210194fee51af88",
                        "amount": "1,250",
                        "iconUrl": "",
                        "isERC1155": false,
                        "isERC721": false,
                        "sign": false,
                        "value": "58.00163484"
                    }
                ]
            },
            {
                "account": "0x5c07c828fe2f50e8675f52f42a3974163cf326d0",
                "assets": [
                    {
                        "address": "0x40986a85b4cfcdb054a6cbfb1210194fee51af88",
                        "amount": "1,250",
                        "iconUrl": "",
                        "isERC1155": false,
                        "isERC721": false,
                        "sign": true,
                        "value": "58.00163484"
                    }
                ]
            },
            {
                "account": "0xbf515ff38d55737c56d62e8b6a8eea322ec38aa5",
                "assets": [
                    {
                        "address": "0xeeeeeeeeeeeeeeeeeeeeeeeeeeeeeeeeeeeeeeee",
                        "amount": "0.005",
                        "iconUrl": "https://assets.blocksec.com/image/1663669189317-3.png",
                        "isERC1155": false,
                        "isERC721": false,
                        "sign": true,
                        "value": "12.43462178"
                    }
                ]
            }
        ]
    },
    "profile": {
        "basic_info": {
            "baseFee": "",
            "blockNumber": 12541234,
            "callData": "0x81b34f1500000000000000000000000000000000000000000000000000000000000000380000000000000000000000006d24ee40e6d598cbbe858998ae43d293fb97b8c2000000000000000000000000000000000000000000000043c33c193756480000",
            "debugEnable": true,
            "errorInfo": "",
            "eventCount": 3,
            "feeRecipient": "0x249bdb4499bd7c683664c149276c1d86108e2137",
            "formatValue": "0.005",
            "gasLimit": 137008,
            "gasPrice": "18",
            "gasUsed": 120571,
            "intTxnCount": 9,
            "internalRevert": false,
            "internalRevertMessage": "",
            "isContractCreation": false,
            "isFlashloan": false,
            "maxFee": "",
            "nonce": 144,
            "overwritedBlockNumber": -1,
            "priorityFee": "",
            "receiver": "0x5c07c828fe2f50e8675f52f42a3974163cf326d0",
            "revertMessage": "",
            "sender": "0x6d24ee40e6d598cbbe858998ae43d293fb97b8c2",
            "simulationEnable": true,
            "sourceTxnHash": "0x7be9de5d29b252a48674f89dc11d68896fe717b3bf0117641a5fe7a77001161e",
            "status": true,
            "timestamp": "2021-05-31T09:02:55Z",
            "transactionFee": "0.002170278",
            "txnHash": "0x7be9de5d29b252a48674f89dc11d68896fe717b3bf0117641a5fe7a77001161e",
            "txnIndex": 273,
            "type": 0,
            "value": "5000000000000000"
        },
        "fund_flow": [
            {
                "amount": "0.005",
                "from": "0x6d24ee40e6d598cbbe858998ae43d293fb97b8c2",
                "id": 1,
                "isERC1155": false,
                "isERC721": false,
                "isReverted": false,
                "order": 1,
                "to": "0x5c07c828fe2f50e8675f52f42a3974163cf326d0",
                "token": "0xeeeeeeeeeeeeeeeeeeeeeeeeeeeeeeeeeeeeeeee"
            },
            {
                "amount": "0.005",
                "from": "0x5c07c828fe2f50e8675f52f42a3974163cf326d0",
                "id": 2,
                "isERC1155": false,
                "isERC721": false,
                "isReverted": false,
                "order": 2,
                "to": "0xbf515ff38d55737c56d62e8b6a8eea322ec38aa5",
                "token": "0xeeeeeeeeeeeeeeeeeeeeeeeeeeeeeeeeeeeeeeee"
            },
            {
                "amount": "1,250",
                "from": "0x6d24ee40e6d598cbbe858998ae43d293fb97b8c2",
                "id": 3,
                "isERC1155": false,
                "isERC721": false,
                "isReverted": false,
                "order": 3,
                "to": "0x5c07c828fe2f50e8675f52f42a3974163cf326d0",
                "token": "0x40986a85b4cfcdb054a6cbfb1210194fee51af88"
            }
        ],
        "token_infos": [
            {
                "address": "0x40986a85b4cfcdb054a6cbfb1210194fee51af88",
                "decimals": 18
            },
            {
                "address": "0xc02aaa39b223fe8d0a0e5c4f27ead9083c756cc2",
                "decimals": 18
            },
            {
                "address": "0xeeeeeeeeeeeeeeeeeeeeeeeeeeeeeeeeeeeeeeee",
                "decimals": 18
            }
        ]
    },
    "address_label": {
        "labels": [
            {
                "address": "0x0000000000000000000000000000000000000003",
                "label": "Precompiled"
            },
            {
                "address": "0x0000000000000000000000000000000000000004",
                "label": "Precompiled"
            },
            {
                "address": "0xec2c74c9e2457d328bc6216858280ea13e740e8a",
                "label": "TokenMapped"
            },
            {
                "address": "0x5c07c828fe2f50e8675f52f42a3974163cf326d0",
                "label": "InitializableProductProxy"
            },
            {
                "address": "0x0000000000000000000000000000000000000001",
                "label": "Precompiled"
            },
            {
                "address": "0x0000000000000000000000000000000000000002",
                "label": "Precompiled"
            },
            {
                "address": "0xeeeeeeeeeeeeeeeeeeeeeeeeeeeeeeeeeeeeeeee",
                "label": "Ether"
            },
            {
                "address": "0x40986a85b4cfcdb054a6cbfb1210194fee51af88",
                "label": "UniFarm: UFARM Token"
            },
            {
                "address": "0xbf515ff38d55737c56d62e8b6a8eea322ec38aa5",
                "label": "ChainSwap: Factory_Proxy"
            },
            {
                "address": "0x4e74b677202ed462c6a9b2e599f4699ad67a98bb",
                "label": "Factory"
            }
        ]
    },
    "trace": {
        "accountLabels": null,
        "dataMap": {
            "-1": {
                "invocation": {
                    "address": "0x6d24ee40e6d598cbbe858998ae43d293fb97b8c2",
                    "callData": "",
                    "decodedMethod": null,
                    "errorInfo": "",
                    "fromAddress": "",
                    "gasUsed": 0,
                    "id": -1,
                    "methodDecoded": false,
                    "operation": "",
                    "output": "",
                    "revert": false,
                    "revertMessage": "",
                    "selector": "",
                    "status": false,
                    "value": ""
                },
                "nodeType": 0
            },
            "0": {
                "invocation": {
                    "address": "0x5c07c828fe2f50e8675f52f42a3974163cf326d0",
                    "callData": "0x00000000000000000000000000000000000000000000000000000000000000380000000000000000000000006d24ee40e6d598cbbe858998ae43d293fb97b8c2000000000000000000000000000000000000000000000043c33c193756480000",
                    "decodedMethod": {
                        "callParams": [
                            {
                                "name": "toChainId",
                                "type": "uint256",
                                "value": "56"
                            },
                            {
                                "name": "to",
                                "type": "address",
                                "value": "0x6d24ee40e6d598cbbe858998ae43d293fb97b8c2"
                            },
                            {
                                "name": "volume",
                                "type": "uint256",
                                "value": "1,250,000,000,000,000,000,000"
                            }
                        ],
                        "constructorArguments": "",
                        "name": "send",
                        "returnParams": [
                            {
                                "name": "nonce",
                                "type": "uint256",
                                "value": "0"
                            }
                        ],
                        "signature": "send(uint256,address,uint256)"
                    },
                    "errorInfo": "",
                    "fromAddress": "0x6d24ee40e6d598cbbe858998ae43d293fb97b8c2",
                    "gasUsed": 120571,
                    "id": 0,
                    "methodDecoded": true,
                    "operation": "CALL",
                    "output": "0x0000000000000000000000000000000000000000000000000000000000000000",
                    "revert": false,
                    "revertMessage": "",
                    "selector": "0x81b34f15",
                    "status": true,
                    "value": "0.005"
                },
                "nodeType": 0
            },
            "1": {
                "invocation": {
                    "address": "0xbf515ff38d55737c56d62e8b6a8eea322ec38aa5",
                    "callData": "0x546f6b656e4d6170706564000000000000000000000000000000000000000000",
                    "decodedMethod": {
                        "callParams": [
                            {
                                "name": "",
                                "type": "bytes32",
                                "value": "0x546f6b656e4d6170706564000000000000000000000000000000000000000000"
                            }
                        ],
                        "constructorArguments": "",
                        "name": "productImplementations",
                        "returnParams": [
                            {
                                "name": "",
                                "type": "address",
                                "value": "0xec2c74c9e2457d328bc6216858280ea13e740e8a"
                            }
                        ],
                        "signature": "productImplementations(bytes32)"
                    },
                    "errorInfo": "",
                    "fromAddress": "0x5c07c828fe2f50e8675f52f42a3974163cf326d0",
                    "gasUsed": 10046,
                    "id": 1,
                    "methodDecoded": true,
                    "operation": "STATICCALL",
                    "output": "0x000000000000000000000000ec2c74c9e2457d328bc6216858280ea13e740e8a",
                    "revert": false,
                    "revertMessage": "",
                    "selector": "0x0b2bcd67",
                    "status": true,
                    "value": "0"
                },
                "nodeType": 0
            },
            "10": {
                "invocation": {
                    "address": "0x40986a85b4cfcdb054a6cbfb1210194fee51af88",
                    "callData": "0x0000000000000000000000006d24ee40e6d598cbbe858998ae43d293fb97b8c20000000000000000000000005c07c828fe2f50e8675f52f42a3974163cf326d0000000000000000000000000000000000000000000000043c33c193756480000",
                    "decodedMethod": {
                        "callParams": [
                            {
                                "name": "src",
                                "type": "address",
                                "value": "0x6d24ee40e6d598cbbe858998ae43d293fb97b8c2"
                            },
                            {
                                "name": "dst",
                                "type": "address",
                                "value": "0x5c07c828fe2f50e8675f52f42a3974163cf326d0"
                            },
                            {
                                "decimalAvailable": true,
                                "name": "rawAmount",
                                "type": "uint256",
                                "value": "1,250,000,000,000,000,000,000"
                            }
                        ],
                        "constructorArguments": "",
                        "name": "transferFrom",
                        "returnParams": [
                            {
                                "name": "",
                                "type": "bool",
                                "value": true
                            }
                        ],
                        "signature": "transferFrom(address,address,uint256)"
                    },
                    "errorInfo": "",
                    "fromAddress": "0x5c07c828fe2f50e8675f52f42a3974163cf326d0",
                    "gasUsed": 19785,
                    "id": 10,
                    "methodDecoded": true,
                    "operation": "CALL",
                    "output": "0x0000000000000000000000000000000000000000000000000000000000000001",
                    "revert": false,
                    "revertMessage": "",
                    "selector": "0x23b872dd",
                    "status": true,
                    "value": "0"
                },
                "nodeType": 0
            },
            "11": {
                "event": {
                    "contract": "0x40986a85b4cfcdb054a6cbfb1210194fee51af88",
                    "decodedLog": {
                        "name": "Transfer",
                        "params": [
                            {
                                "name": "from",
                                "type": "address",
                                "value": "0x6d24ee40e6d598cbbe858998ae43d293fb97b8c2"
                            },
                            {
                                "name": "to",
                                "type": "address",
                                "value": "0x5c07c828fe2f50e8675f52f42a3974163cf326d0"
                            },
                            {
                                "decimalAvailable": true,
                                "name": "amount",
                                "type": "uint256",
                                "value": "1,250,000,000,000,000,000,000"
                            }
                        ],
                        "signature": "Transfer(address,address,uint256)"
                    },
                    "id": 11,
                    "logData": "0x000000000000000000000000000000000000000000000043c33c193756480000",
                    "logDecoded": true,
                    "operation": "EVENT",
                    "revert": false,
                    "status": true,
                    "topics": [
                        "0xddf252ad1be2c89b69c2b068fc378daa952ba7f163c4a11628f55a4df523b3ef",
                        "0x0000000000000000000000006d24ee40e6d598cbbe858998ae43d293fb97b8c2",
                        "0x0000000000000000000000005c07c828fe2f50e8675f52f42a3974163cf326d0"
                    ]
                },
                "nodeType": 1
            },
            "12": {
                "event": {
                    "contract": "0x5c07c828fe2f50e8675f52f42a3974163cf326d0",
                    "decodedLog": {
                        "name": "Send",
                        "params": [
                            {
                                "name": "from",
                                "type": "address",
                                "value": "0x6d24ee40e6d598cbbe858998ae43d293fb97b8c2"
                            },
                            {
                                "name": "toChainId",
                                "type": "uint256",
                                "value": "56"
                            },
                            {
                                "name": "to",
                                "type": "address",
                                "value": "0x6d24ee40e6d598cbbe858998ae43d293fb97b8c2"
                            },
                            {
                                "name": "nonce",
                                "type": "uint256",
                                "value": "0"
                            },
                            {
                                "name": "volume",
                                "type": "uint256",
                                "value": "1,250,000,000,000,000,000,000"
                            }
                        ],
                        "signature": "Send(address,uint256,address,uint256,uint256)"
                    },
                    "id": 12,
                    "logData": "0x0000000000000000000000000000000000000000000000000000000000000000000000000000000000000000000000000000000000000043c33c193756480000",
                    "logDecoded": true,
                    "operation": "EVENT",
                    "revert": false,
                    "status": true,
                    "topics": [
                        "0x882df69720ac5a9356b84d2aaa32d0c105b24cab60e885ba3d69b77090ff05c6",
                        "0x0000000000000000000000006d24ee40e6d598cbbe858998ae43d293fb97b8c2",
                        "0x0000000000000000000000000000000000000000000000000000000000000038",
                        "0x0000000000000000000000006d24ee40e6d598cbbe858998ae43d293fb97b8c2"
                    ]
                },
                "nodeType": 1
            },
            "2": {
                "invocation": {
                    "address": "0x4e74b677202ed462c6a9b2e599f4699ad67a98bb",
                    "callData": "0x546f6b656e4d6170706564000000000000000000000000000000000000000000",
                    "decodedMethod": {
                        "callParams": [
                            {
                                "name": "",
                                "type": "bytes32",
                                "value": "0x546f6b656e4d6170706564000000000000000000000000000000000000000000"
                            }
                        ],
                        "constructorArguments": "",
                        "name": "productImplementations",
                        "returnParams": [
                            {
                                "name": "",
                                "type": "address",
                                "value": "0xec2c74c9e2457d328bc6216858280ea13e740e8a"
                            }
                        ],
                        "signature": "productImplementations(bytes32)"
                    },
                    "errorInfo": "",
                    "fromAddress": "0xbf515ff38d55737c56d62e8b6a8eea322ec38aa5",
                    "gasUsed": 2604,
                    "id": 2,
                    "methodDecoded": true,
                    "operation": "DELEGATECALL",
                    "output": "0x000000000000000000000000ec2c74c9e2457d328bc6216858280ea13e740e8a",
                    "revert": false,
                    "revertMessage": "",
                    "selector": "0x0b2bcd67",
                    "status": true,
                    "value": "0"
                },
                "nodeType": 0
            },
            "3": {
                "invocation": {
                    "address": "0xec2c74c9e2457d328bc6216858280ea13e740e8a",
                    "callData": "0x00000000000000000000000000000000000000000000000000000000000000380000000000000000000000006d24ee40e6d598cbbe858998ae43d293fb97b8c2000000000000000000000000000000000000000000000043c33c193756480000",
                    "decodedMethod": {
                        "callParams": [
                            {
                                "name": "toChainId",
                                "type": "uint256",
                                "value": "56"
                            },
                            {
                                "name": "to",
                                "type": "address",
                                "value": "0x6d24ee40e6d598cbbe858998ae43d293fb97b8c2"
                            },
                            {
                                "name": "volume",
                                "type": "uint256",
                                "value": "1,250,000,000,000,000,000,000"
                            }
                        ],
                        "constructorArguments": "",
                        "name": "send",
                        "returnParams": [
                            {
                                "name": "nonce",
                                "type": "uint256",
                                "value": "0"
                            }
                        ],
                        "signature": "send(uint256,address,uint256)"
                    },
                    "errorInfo": "",
                    "fromAddress": "0x5c07c828fe2f50e8675f52f42a3974163cf326d0",
                    "gasUsed": 93157,
                    "id": 3,
                    "methodDecoded": true,
                    "operation": "DELEGATECALL",
                    "output": "0x0000000000000000000000000000000000000000000000000000000000000000",
                    "revert": false,
                    "revertMessage": "",
                    "selector": "0x81b34f15",
                    "status": true,
                    "value": "0.005"
                },
                "nodeType": 0
            },
            "4": {
                "invocation": {
                    "address": "0xbf515ff38d55737c56d62e8b6a8eea322ec38aa5",
                    "callData": "0x6665650000000000000000000000000000000000000000000000000000000000",
                    "decodedMethod": {
                        "callParams": [
                            {
                                "name": "key",
                                "type": "bytes32",
                                "value": "0x6665650000000000000000000000000000000000000000000000000000000000"
                            }
                        ],
                        "constructorArguments": "",
                        "name": "getConfig",
                        "returnParams": [
                            {
                                "name": "",
                                "type": "uint256",
                                "value": "5,000,000,000,000,000"
                            }
                        ],
                        "signature": "getConfig(bytes32)"
                    },
                    "errorInfo": "",
                    "fromAddress": "0x5c07c828fe2f50e8675f52f42a3974163cf326d0",
                    "gasUsed": 3504,
                    "id": 4,
                    "methodDecoded": true,
                    "operation": "STATICCALL",
                    "output": "0x0000000000000000000000000000000000000000000000000011c37937e08000",
                    "revert": false,
                    "revertMessage": "",
                    "selector": "0x6dd5b69d",
                    "status": true,
                    "value": "0"
                },
                "nodeType": 0
            },
            "5": {
                "invocation": {
                    "address": "0x4e74b677202ed462c6a9b2e599f4699ad67a98bb",
                    "callData": "0x6665650000000000000000000000000000000000000000000000000000000000",
                    "decodedMethod": {
                        "callParams": [
                            {
                                "name": "key",
                                "type": "bytes32",
                                "value": "0x6665650000000000000000000000000000000000000000000000000000000000"
                            }
                        ],
                        "constructorArguments": "",
                        "name": "getConfig",
                        "returnParams": [
                            {
                                "name": "",
                                "type": "uint256",
                                "value": "5,000,000,000,000,000"
                            }
                        ],
                        "signature": "getConfig(bytes32)"
                    },
                    "errorInfo": "",
                    "fromAddress": "0xbf515ff38d55737c56d62e8b6a8eea322ec38aa5",
                    "gasUsed": 2562,
                    "id": 5,
                    "methodDecoded": true,
                    "operation": "DELEGATECALL",
                    "output": "0x0000000000000000000000000000000000000000000000000011c37937e08000",
                    "revert": false,
                    "revertMessage": "",
                    "selector": "0x6dd5b69d",
                    "status": true,
                    "value": "0"
                },
                "nodeType": 0
            },
            "6": {
                "invocation": {
                    "address": "0xbf515ff38d55737c56d62e8b6a8eea322ec38aa5",
                    "callData": "0x666565546f000000000000000000000000000000000000000000000000000000",
                    "decodedMethod": {
                        "callParams": [
                            {
                                "name": "key",
                                "type": "bytes32",
                                "value": "0x666565546f000000000000000000000000000000000000000000000000000000"
                            }
                        ],
                        "constructorArguments": "",
                        "name": "getConfig",
                        "returnParams": [
                            {
                                "name": "",
                                "type": "uint256",
                                "value": "1,092,231,956,132,077,843,581,392,735,619,386,827,940,833,757,861"
                            }
                        ],
                        "signature": "getConfig(bytes32)"
                    },
                    "errorInfo": "",
                    "fromAddress": "0x5c07c828fe2f50e8675f52f42a3974163cf326d0",
                    "gasUsed": 3504,
                    "id": 6,
                    "methodDecoded": true,
                    "operation": "STATICCALL",
                    "output": "0x000000000000000000000000bf515ff38d55737c56d62e8b6a8eea322ec38aa5",
                    "revert": false,
                    "revertMessage": "",
                    "selector": "0x6dd5b69d",
                    "status": true,
                    "value": "0"
                },
                "nodeType": 0
            },
            "7": {
                "invocation": {
                    "address": "0x4e74b677202ed462c6a9b2e599f4699ad67a98bb",
                    "callData": "0x666565546f000000000000000000000000000000000000000000000000000000",
                    "decodedMethod": {
                        "callParams": [
                            {
                                "name": "key",
                                "type": "bytes32",
                                "value": "0x666565546f000000000000000000000000000000000000000000000000000000"
                            }
                        ],
                        "constructorArguments": "",
                        "name": "getConfig",
                        "returnParams": [
                            {
                                "name": "",
                                "type": "uint256",
                                "value": "1,092,231,956,132,077,843,581,392,735,619,386,827,940,833,757,861"
                            }
                        ],
                        "signature": "getConfig(bytes32)"
                    },
                    "errorInfo": "",
                    "fromAddress": "0xbf515ff38d55737c56d62e8b6a8eea322ec38aa5",
                    "gasUsed": 2562,
                    "id": 7,
                    "methodDecoded": true,
                    "operation": "DELEGATECALL",
                    "output": "0x000000000000000000000000bf515ff38d55737c56d62e8b6a8eea322ec38aa5",
                    "revert": false,
                    "revertMessage": "",
                    "selector": "0x6dd5b69d",
                    "status": true,
                    "value": "0"
                },
                "nodeType": 0
            },
            "8": {
                "invocation": {
                    "address": "0xbf515ff38d55737c56d62e8b6a8eea322ec38aa5",
                    "callData": "0x",
                    "decodedMethod": null,
                    "errorInfo": "",
                    "fromAddress": "0x5c07c828fe2f50e8675f52f42a3974163cf326d0",
                    "gasUsed": 302,
                    "id": 8,
                    "methodDecoded": false,
                    "operation": "CALL",
                    "output": "",
                    "revert": false,
                    "revertMessage": "",
                    "selector": "fallback",
                    "status": true,
                    "value": "0.005"
                },
                "nodeType": 0
            },
            "9": {
                "event": {
                    "contract": "0x5c07c828fe2f50e8675f52f42a3974163cf326d0",
                    "decodedLog": {
                        "name": "ChargeFee",
                        "params": [
                            {
                                "name": "from",
                                "type": "address",
                                "value": "0x6d24ee40e6d598cbbe858998ae43d293fb97b8c2"
                            },
                            {
                                "name": "to",
                                "type": "address",
                                "value": "0xbf515ff38d55737c56d62e8b6a8eea322ec38aa5"
                            },
                            {
                                "name": "value",
                                "type": "uint256",
                                "value": "5,000,000,000,000,000"
                            }
                        ],
                        "signature": "ChargeFee(address,address,uint256)"
                    },
                    "id": 9,
                    "logData": "0x0000000000000000000000000000000000000000000000000011c37937e08000",
                    "logDecoded": true,
                    "operation": "EVENT",
                    "revert": false,
                    "status": true,
                    "topics": [
                        "0xc0d39cf3434f9dede81e427dbbccd901073df1b746711cb6cb7db1b27ddd6927",
                        "0x0000000000000000000000006d24ee40e6d598cbbe858998ae43d293fb97b8c2",
                        "0x000000000000000000000000bf515ff38d55737c56d62e8b6a8eea322ec38aa5"
                    ]
                },
                "nodeType": 1
            }
        },
        "gasFlame": [
            {
                "children": [
                    {
                        "children": [
                            {
                                "children": [],
                                "depth": 0,
                                "name": "Initial Gas",
                                "value": 21784
                            },
                            {
                                "children": [
                                    {
                                        "children": [
                                            {
                                                "children": [],
                                                "depth": 2,
                                                "name": "productImplementations",
                                                "value": 2604
                                            }
                                        ],
                                        "depth": 1,
                                        "name": "productImplementations",
                                        "value": 10046
                                    },
                                    {
                                        "children": [
                                            {
                                                "children": [
                                                    {
                                                        "children": [],
                                                        "depth": 3,
                                                        "name": "getConfig",
                                                        "value": 2562
                                                    }
                                                ],
                                                "depth": 2,
                                                "name": "getConfig",
                                                "value": 3504
                                            },
                                            {
                                                "children": [
                                                    {
                                                        "children": [],
                                                        "depth": 3,
                                                        "name": "getConfig",
                                                        "value": 2562
                                                    }
                                                ],
                                                "depth": 2,
                                                "name": "getConfig",
                                                "value": 3504
                                            },
                                            {
                                                "children": [],
                                                "depth": 2,
                                                "name": "fallback",
                                                "value": 302
                                            },
                                            {
                                                "children": [],
                                                "depth": 2,
                                                "name": "transferFrom",
                                                "value": 19785
                                            }
                                        ],
                                        "depth": 1,
                                        "name": "send",
                                        "value": 93157
                                    }
                                ],
                                "depth": 0,
                                "name": "Executed Gas",
                                "value": 113787
                            }
                        ],
                        "depth": -1,
                        "name": "Actual Gas Used",
                        "value": 120571
                    },
                    {
                        "children": [],
                        "depth": -1,
                        "name": "Refunded Gas",
                        "value": 15000
                    }
                ],
                "depth": -2,
                "name": "Total Gas",
                "value": 135571
            }
        ],
        "isConfirmed": true,
        "mainTrace": [
            {
                "children": [
                    {
                        "children": [
                            {
                                "children": [
                                    {
                                        "children": [],
                                        "depth": 2,
                                        "id": 2,
                                        "order": 2
                                    }
                                ],
                                "depth": 1,
                                "id": 1,
                                "order": 1
                            },
                            {
                                "children": [
                                    {
                                        "children": [
                                            {
                                                "children": [],
                                                "depth": 3,
                                                "id": 5,
                                                "order": 5
                                            }
                                        ],
                                        "depth": 2,
                                        "id": 4,
                                        "order": 4
                                    },
                                    {
                                        "children": [
                                            {
                                                "children": [],
                                                "depth": 3,
                                                "id": 7,
                                                "order": 7
                                            }
                                        ],
                                        "depth": 2,
                                        "id": 6,
                                        "order": 6
                                    },
                                    {
                                        "children": [],
                                        "depth": 2,
                                        "id": 8,
                                        "order": 8
                                    },
                                    {
                                        "children": [],
                                        "depth": 2,
                                        "id": 9,
                                        "order": 9
                                    },
                                    {
                                        "children": [
                                            {
                                                "children": [],
                                                "depth": 3,
                                                "id": 11,
                                                "order": 11
                                            }
                                        ],
                                        "depth": 2,
                                        "id": 10,
                                        "order": 10
                                    },
                                    {
                                        "children": [],
                                        "depth": 2,
                                        "id": 12,
                                        "order": 12
                                    }
                                ],
                                "depth": 1,
                                "id": 3,
                                "order": 3
                            }
                        ],
                        "depth": 0,
                        "id": 0,
                        "order": 0
                    }
                ],
                "depth": -1,
                "id": -1,
                "order": -1
            }
        ],
        "mainTraceNodeCount": 13,
        "parentIdMap": {
            "0": -1,
            "1": 0,
            "10": 3,
            "11": 10,
            "12": 3,
            "2": 1,
            "3": 0,
            "4": 3,
            "5": 4,
            "6": 3,
            "7": 6,
            "8": 3,
            "9": 3
        },
        "tidyTrace": [
            {
                "children": [
                    {
                        "children": [
                            {
                                "children": [
                                    {
                                        "children": [],
                                        "depth": 2,
                                        "id": 8,
                                        "order": 8
                                    },
                                    {
                                        "children": [],
                                        "depth": 2,
                                        "id": 9,
                                        "order": 9
                                    },
                                    {
                                        "children": [
                                            {
                                                "children": [],
                                                "depth": 3,
                                                "id": 11,
                                                "order": 11
                                            }
                                        ],
                                        "depth": 2,
                                        "id": 10,
                                        "order": 10
                                    },
                                    {
                                        "children": [],
                                        "depth": 2,
                                        "id": 12,
                                        "order": 12
                                    }
                                ],
                                "depth": 1,
                                "id": 3,
                                "order": 3
                            }
                        ],
                        "depth": 0,
                        "id": 0,
                        "order": 0
                    }
                ],
                "depth": -1,
                "id": -1,
                "order": -1
            }
        ],
        "tidyTraceNodeCount": 7
    },
    "state_change": {
        "stateChanges": [
            {
                "address": "0x40986a85b4cfcdb054a6cbfb1210194fee51af88",
                "erc": "ERC-20",
                "slots": [
                    {
                        "current": "0x0000000000000000000000000000000000000000000000000000000000000000",
                        "key": "0x9d96e9bfc77066c30bb49da6837b4e9a2f6dcf569ba1563e5185e21a29a73812",
                        "prev": "0x000000000000000000000000000000000000000000000043c33c193756480000"
                    },
                    {
                        "current": "0x0000000000000000000000000000000000000000000dd9af07b3575699356000",
                        "key": "0xc79f4a02c3c98e5b71a5deb87d3e9a1956579c0995a6c6714b9a789e010f7b17",
                        "prev": "0x0000000000000000000000000000000000000000000dd96b44773e1f42ed6000"
                    }
                ],
                "storageVariables": [
                    {
                        "name": "balances",
                        "type": "mapping(address => uint256)",
                        "value": {
                            "pairs": [
                                {
                                    "key": "0x5c07c828fe2f50e8675f52f42a3974163cf326d0",
                                    "value": {
                                        "current": "16744017916869000000004096",
                                        "prev": "16742767916869000000004096",
                                        "typeTag": 1
                                    }
                                },
                                {
                                    "key": "0x6d24ee40e6d598cbbe858998ae43d293fb97b8c2",
                                    "value": {
                                        "current": "0",
                                        "prev": "1250000000000000000000",
                                        "typeTag": 1
                                    }
                                }
                            ],
                            "typeTag": 4
                        }
                    }
                ]
            },
            {
                "address": "0x5c07c828fe2f50e8675f52f42a3974163cf326d0",
                "erc": "",
                "slots": [
                    {
                        "current": "0x0000000000000000000000000000000000000000000000000000000000000001",
                        "key": "0x4ea43e41a45fe667777a524691580ac3e6118332db2d2ce8be139909a3e82e60",
                        "prev": "0x0000000000000000000000000000000000000000000000000000000000000000"
                    },
                    {
                        "current": "0x000000000000000000000000000000000000000000000043c33c193756480000",
                        "key": "0xdb342e4a2761865ae06578efa6589c60fa5275bdfe073e23615563c5d0cd83eb",
                        "prev": "0x0000000000000000000000000000000000000000000000000000000000000000"
                    }
                ],
                "storageVariables": []
            }
        ]
    }
}