{
    "balance_change": {
        "balanceChanges": [
            {
                "account": "0xdfd5293d8e347dfe59e90efd55b2956a1343963d",
                "assets": [
                    {
                        "address": "0x6b175474e89094c44da98b954eedeac495271d0f",
                        "amount": "6,817.989903",
                        "iconUrl": "https://assets.blocksec.com/icon/39aead569b9c011cb6f69734d9abbc9ab6a80049fe93bbd12bb473a3e0e859a3.png",
                        "isERC1155": false,
                        "isERC721": false,
                        "sign": false,
                        "value": "6820.222658"
                    }
                ]
            },
            {
                "account": "0x48c04ed5691981c42154c6167398f95e8f38a7ff",
                "assets": [
                    {
                        "address": "0x6b175474e89094c44da98b954eedeac495271d0f",
                        "amount": "6,817.989903",
                        "iconUrl": "https://assets.blocksec.com/icon/39aead569b9c011cb6f69734d9abbc9ab6a80049fe93bbd12bb473a3e0e859a3.png",
                        "isERC1155": false,
                        "isERC721": false,
                        "sign": true,
                        "value": "6820.222658"
                    }
                ]
            }
        ]
    },
    "profile": {
        "basic_info": {
            "baseFee": "99.51653388",
            "blockNumber": 13944536,
            "callData": "0xa9059cbb00000000000000000000000048c04ed5691981c42154c6167398f95e8f38a7ff0000000000000000000000000000000000000000000001719a9dfd8512fbf000",
            "debugEnable": true,
            "errorInfo": "",
            "eventCount": 1,
            "feeRecipient": "0x829bd824b016326a401d083b33d092293333a830",
            "formatValue": "0",
            "gasLimit": 207128,
            "gasPrice": "115",
            "gasUsed": 34742,
            "intTxnCount": 0,
            "internalRevert": false,
            "internalRevertMessage": "",
            "isContractCreation": false,
            "isFlashloan": false,
            "maxFee": "",
            "nonce": 2660274,
            "overwritedBlockNumber": -1,
            "priorityFee": "",
            "receiver": "0x6b175474e89094c44da98b954eedeac495271d0f",
            "revertMessage": "",
            "sender": "0xdfd5293d8e347dfe59e90efd55b2956a1343963d",
            "simulationEnable": true,
            "sourceTxnHash": "0x7b5602770ae805b356101152e68513396c426b0edc771f1bf10a96f5e3635cd9",
            "status": true,
            "timestamp": "2022-01-05T09:05:24Z",
            "transactionFee": "0.00399533",
            "txnHash": "0x7b5602770ae805b356101152e68513396c426b0edc771f1bf10a96f5e3635cd9",
            "txnIndex": 57,
            "type": 0,
            "value": "0"
        },
        "fund_flow": [
            {
                "amount": "6,817.989903",
                "from": "0xdfd5293d8e347dfe59e90efd55b2956a1343963d",
                "id": 1,
                "isERC1155": false,
                "isERC721": false,
                "isReverted": false,
                "order": 1,
                "to": "0x48c04ed5691981c42154c6167398f95e8f38a7ff",
                "token": "0x6b175474e89094c44da98b954eedeac495271d0f"
            }
        ],
        "token_infos": [
            {
                "address": "0x6b175474e89094c44da98b954eedeac495271d0f",
                "decimals": 18
            },
            {
                "address": "0xc02aaa39b223fe8d0a0e5c4f27ead9083c756cc2",
                "decimals": 18
            },
            {
                "address": "0xeeeeeeeeeeeeeeeeeeeeeeeeeeeeeeeeeeeeeeee",
                "decimals": 18
            }
        ]
    },
    "address_label": {
        "labels": [
            {
                "address": "0x0000000000000000000000000000000000000002",
                "label": "Precompiled"
            },
            {
                "address": "0x0000000000000000000000000000000000000003",
                "label": "Precompiled"
            },
            {
                "address": "0x0000000000000000000000000000000000000004",
                "label": "Precompiled"
            },
            {
                "address": "0xeeeeeeeeeeeeeeeeeeeeeeeeeeeeeeeeeeeeeeee",
                "label": "Ether"
            },
            {
                "address": "0xdfd5293d8e347dfe59e90efd55b2956a1343963d",
                "label": "Binance 16"
            },
            {
                "address": "0x6b175474e89094c44da98b954eedeac495271d0f",
                "label": "Sky: Dai Stablecoin"
            },
            {
                "address": "0x48c04ed5691981c42154c6167398f95e8f38a7ff",
                "label": "ChangeNOW 3"
            },
            {
                "address": "0x0000000000000000000000000000000000000001",
                "label": "Precompiled"
            }
        ]
    },
    "trace": {
        "accountLabels": null,
        "dataMap": {
            "-1": {
                "invocation": {
                    "address": "0xdfd5293d8e347dfe59e90efd55b2956a1343963d",
                    "callData": "",
                    "decodedMethod": null,
                    "errorInfo": "",
                    "fromAddress": "",
                    "gasUsed": 0,
                    "id": -1,
                    "methodDecoded": false,
                    "operation": "",
                    "output": "",
                    "revert": false,
                    "revertMessage": "",
                    "selector": "",
                    "status": false,
                    "value": ""
                },
                "nodeType": 0
            },
            "0": {
                "invocation": {
                    "address": "0x6b175474e89094c44da98b954eedeac495271d0f",
                    "callData": "0x00000000000000000000000048c04ed5691981c42154c6167398f95e8f38a7ff0000000000000000000000000000000000000000000001719a9dfd8512fbf000",
                    "decodedMethod": {
                        "callParams": [
                            {
                                "name": "dst",
                                "type": "address",
                                "value": "0x48c04ed5691981c42154c6167398f95e8f38a7ff"
                            },
                            {
                                "decimalAvailable": true,
                                "name": "wad",
                                "type": "uint256",
                                "value": "6,817,989,903,000,000,000,000"
                            }
                        ],
                        "constructorArguments": "",
                        "name": "transfer",
                        "returnParams": [
                            {
                                "name": "",
                                "type": "bool",
                                "value": true
                            }
                        ],
                        "signature": "transfer(address,uint256)"
                    },
                    "errorInfo": "",
                    "fromAddress": "0xdfd5293d8e347dfe59e90efd55b2956a1343963d",
                    "gasUsed": 34742,
                    "id": 0,
                    "methodDecoded": true,
                    "operation": "CALL",
                    "output": "0x0000000000000000000000000000000000000000000000000000000000000001",
                    "revert": false,
                    "revertMessage": "",
                    "selector": "0xa9059cbb",
                    "status": true,
                    "value": "0"
                },
                "nodeType": 0
            },
            "1": {
                "event": {
                    "contract": "0x6b175474e89094c44da98b954eedeac495271d0f",
                    "decodedLog": {
                        "name": "Transfer",
                        "params": [
                            {
                                "name": "src",
                                "type": "address",
                                "value": "0xdfd5293d8e347dfe59e90efd55b2956a1343963d"
                            },
                            {
                                "name": "dst",
                                "type": "address",
                                "value": "0x48c04ed5691981c42154c6167398f95e8f38a7ff"
                            },
                            {
                                "decimalAvailable": true,
                                "name": "wad",
                                "type": "uint256",
                                "value": "6,817,989,903,000,000,000,000"
                            }
                        ],
                        "signature": "Transfer(address,address,uint256)"
                    },
                    "id": 1,
                    "logData": "0x0000000000000000000000000000000000000000000001719a9dfd8512fbf000",
                    "logDecoded": true,
                    "operation": "EVENT",
                    "revert": false,
                    "status": true,
                    "topics": [
                        "0xddf252ad1be2c89b69c2b068fc378daa952ba7f163c4a11628f55a4df523b3ef",
                        "0x000000000000000000000000dfd5293d8e347dfe59e90efd55b2956a1343963d",
                        "0x00000000000000000000000048c04ed5691981c42154c6167398f95e8f38a7ff"
                    ]
                },
                "nodeType": 1
            }
        },
        "gasFlame": [
            {
                "children": [
                    {
                        "children": [
                            {
                                "children": [],
                                "depth": 0,
                                "name": "Initial Gas",
                                "value": 21668
                            },
                            {
                                "children": [],
                                "depth": 0,
                                "name": "Executed Gas",
                                "value": 13074
                            }
                        ],
                        "depth": -1,
                        "name": "Actual Gas Used",
                        "value": 34742
                    },
                    {
                        "children": [],
                        "depth": -1,
                        "name": "Refunded Gas",
                        "value": 0
                    }
                ],
                "depth": -2,
                "name": "Total Gas",
                "value": 34742
            }
        ],
        "isConfirmed": true,
        "mainTrace": [
            {
                "children": [
                    {
                        "children": [
                            {
                                "children": [],
                                "depth": 1,
                                "id": 1,
                                "order": 1
                            }
                        ],
                        "depth": 0,
                        "id": 0,
                        "order": 0
                    }
                ],
                "depth": -1,
                "id": -1,
                "order": -1
            }
        ],
        "mainTraceNodeCount": 2,
        "parentIdMap": {
            "0": -1,
            "1": 0
        },
        "tidyTrace": [
            {
                "children": [
                    {
                        "children": [
                            {
                                "children": [],
                                "depth": 1,
                                "id": 1,
                                "order": 1
                            }
                        ],
                        "depth": 0,
                        "id": 0,
                        "order": 0
                    }
                ],
                "depth": -1,
                "id": -1,
                "order": -1
            }
        ],
        "tidyTraceNodeCount": 2
    },
    "state_change": {
        "stateChanges": [
            {
                "address": "0x6b175474e89094c44da98b954eedeac495271d0f",
                "erc": "ERC-20",
                "slots": [
                    {
                        "current": "0x00000000000000000000000000000000000000000005dfd2d534bfb0a3082c00",
                        "key": "0xa3b88bef8df2f6096822c988ffd14e98b0513d518130e72efa1debea259cbf43",
                        "prev": "0x00000000000000000000000000000000000000000005e1446fd2bd35b6041c00"
                    },
                    {
                        "current": "0x0000000000000000000000000000000000000000000002cb796ab3f625bd39a0",
                        "key": "0xd9293a630e28d3a5e61462a4f5cf955d155ff86ed3ab041ecb0533dc126b3efe",
                        "prev": "0x000000000000000000000000000000000000000000000159deccb67112c149a0"
                    }
                ],
                "storageVariables": [
                    {
                        "name": "balanceOf",
                        "type": "mapping(address => uint256)",
                        "value": {
                            "pairs": [
                                {
                                    "key": "0x48c04ed5691981c42154c6167398f95e8f38a7ff",
                                    "value": {
                                        "current": "13198171015798226500000",
                                        "prev": "6380181112798226500000",
                                        "typeTag": 1
                                    }
                                },
                                {
                                    "key": "0xdfd5293d8e347dfe59e90efd55b2956a1343963d",
                                    "value": {
                                        "current": "7101606003123550000000000",
                                        "prev": "7108423993026550000000000",
                                        "typeTag": 1
                                    }
                                }
                            ],
                            "typeTag": 4
                        }
                    }
                ]
            }
        ]
    }
}