{
    "balance_change": {
        "balanceChanges": [
            {
                "account": "0xb6d5af73e2965e75fbaf1b41c5640e19bac59e8f",
                "assets": [
                    {
                        "address": "0xeeeeeeeeeeeeeeeeeeeeeeeeeeeeeeeeeeeeeeee",
                        "amount": "0.345",
                        "iconUrl": "https://assets.blocksec.com/image/1663669189317-3.png",
                        "isERC1155": false,
                        "isERC721": false,
                        "sign": false,
                        "value": "418.78514999999996235"
                    },
                    {
                        "address": "0x07ce82f414a42d9a73b0bd9ec23c249d446a0109",
                        "amount": "1",
                        "iconUrl": "",
                        "isERC1155": false,
                        "isERC721": true,
                        "sign": true,
                        "tokenID": "917",
                        "value": ""
                    }
                ]
            },
            {
                "account": "0x0000a26b00c1f0df003000390027140000faa719",
                "assets": [
                    {
                        "address": "0xeeeeeeeeeeeeeeeeeeeeeeeeeeeeeeeeeeeeeeee",
                        "amount": "0.008625",
                        "iconUrl": "https://assets.blocksec.com/image/1663669189317-3.png",
                        "isERC1155": false,
                        "isERC721": false,
                        "sign": true,
                        "value": "10.469628749999999058"
                    }
                ]
            },
            {
                "account": "0x078ca0b8b10891887c4c8f1bc064f766565a9787",
                "assets": [
                    {
                        "address": "0xeeeeeeeeeeeeeeeeeeeeeeeeeeeeeeeeeeeeeeee",
                        "amount": "0.31257",
                        "iconUrl": "https://assets.blocksec.com/image/1663669189317-3.png",
                        "isERC1155": false,
                        "isERC721": false,
                        "sign": true,
                        "value": "379.41934589999996588"
                    },
                    {
                        "address": "0x07ce82f414a42d9a73b0bd9ec23c249d446a0109",
                        "amount": "1",
                        "iconUrl": "",
                        "isERC1155": false,
                        "isERC721": true,
                        "sign": false,
                        "tokenID": "917",
                        "value": ""
                    }
                ]
            },
            {
                "account": "0x987270bde0db9b9e280360c0c0025afdcce1a856",
                "assets": [
                    {
                        "address": "0xeeeeeeeeeeeeeeeeeeeeeeeeeeeeeeeeeeeeeeee",
                        "amount": "0.023805",
                        "iconUrl": "https://assets.blocksec.com/image/1663669189317-3.png",
                        "isERC1155": false,
                        "isERC721": false,
                        "sign": true,
                        "value": "28.896175349999997402"
                    }
                ]
            }
        ]
    },
    "profile": {
        "basic_info": {
            "baseFee": "16.845732787",
            "blockNumber": 16270314,
            "callData": "0xa294ae6400000000000000000000000000000000000000000000000000000000000000e0000000000000000000000000000000000000000000000000000000000000000500000000000000000000000007ce82f414a42d9a73b0bd9ec23c249d446a01090000000000000000000000000000000000000000000000000000000000000395000000000000000000000000b6d5af73e2965e75fbaf1b41c5640e19bac59e8f000000000000000000000000000000000000000000000000000000000000000000000000000000000000000000000000000000000000000000000000000000000000000000000000000000000000000000000000000000000000000000000664e7acab24000000000000000000000000000000000000000000000000000000000000008000000000000000000000000000000000000000000000000000000000000006400000000000000000000000000000000000000000000000000000000000000000000000000000000000000000b6d5af73e2965e75fbaf1b41c5640e19bac59e8f00000000000000000000000000000000000000000000000000000000000000a000000000000000000000000000000000000000000000000000000000000000010000000000000000000000000000000000000000000000000000000000000001000000000000000000000000000000000000000000000000000000000000052000000000000000000000000000000000000000000000000000000000000005a0000000000000000000000000078ca0b8b10891887c4c8f1bc064f766565a9787000000000000000000000000004c00500000ad104d7dbd00e3ae0a5c00560c000000000000000000000000000000000000000000000000000000000000000160000000000000000000000000000000000000000000000000000000000000022000000000000000000000000000000000000000000000000000000000000000020000000000000000000000000000000000000000000000000000000063a9d4290000000000000000000000000000000000000000000000000000000063d2b1a30000000000000000000000000000000000000000000000000000000000000000360c6ebe000000000000000000000000000000000000000049d9a0b2fc0ff34c0000007b02230091a7ed01230072f7006a004d60a8d4e71d599b8104250f000000000000000000000000000000000000000000000000000000000000000000030000000000000000000000000000000000000000000000000000000000000001000000000000000000000000000000000000000000000000000000000000000200000000000000000000000007ce82f414a42d9a73b0bd9ec23c249d446a01090000000000000000000000000000000000000000000000000000000000000395000000000000000000000000000000000000000000000000000000000000000100000000000000000000000000000000000000000000000000000000000000010000000000000000000000000000000000000000000000000000000000000003000000000000000000000000000000000000000000000000000000000000000000000000000000000000000000000000000000000000000000000000000000000000000000000000000000000000000000000000000000000000000000000000000000000000000000000000000000000000000000000000045678c24971a000000000000000000000000000000000000000000000000000045678c24971a000000000000000000000000000078ca0b8b10891887c4c8f1bc064f766565a9787000000000000000000000000000000000000000000000000000000000000000000000000000000000000000000000000000000000000000000000000000000000000000000000000000000000000000000000000000000000000000000000000000000000000000000000000000000000000000000000000001ea4644d301000000000000000000000000000000000000000000000000000001ea4644d3010000000000000000000000000000000a26b00c1f0df003000390027140000faa7190000000000000000000000000000000000000000000000000000000000000000000000000000000000000000000000000000000000000000000000000000000000000000000000000000000000000000000000000000000000000000000000000000000000000000000000000000000000000000000000000054928578e0d0000000000000000000000000000000000000000000000000000054928578e0d000000000000000000000000000987270bde0db9b9e280360c0c0025afdcce1a85600000000000000000000000000000000000000000000000000000000000000411c42dc3ae9711d82d7774a188e135d6ca1457fe3324b0b4f9cecf2e95347907c317bf8f369c74f6abf22a4da562f473f2a45e8bdcd962444f22695dbe11c4c8f1c000000000000000000000000000000000000000000000000000000000000000000000000000000000000000000000000000000000000000000000000000000000000000000000000000000000000000000000000000000000000000000000000000000000000000000000000000000000000000000000000000000",
            "debugEnable": true,
            "errorInfo": "",
            "eventCount": 3,
            "feeRecipient": "0xdafea492d9c6733ae3d56b7ed1adb60692c98bc5",
            "formatValue": "0.345",
            "gasLimit": 500000,
            "gasPrice": "18.845732787",
            "gasUsed": 184598,
            "intTxnCount": 8,
            "internalRevert": false,
            "internalRevertMessage": "",
            "isContractCreation": false,
            "isFlashloan": false,
            "maxFee": "27.25",
            "nonce": 4445,
            "overwritedBlockNumber": -1,
            "priorityFee": "2",
            "receiver": "0x114e54a100a0415abf9727234c92c83dbcc59abf",
            "revertMessage": "",
            "sender": "0xb6d5af73e2965e75fbaf1b41c5640e19bac59e8f",
            "simulationEnable": true,
            "sourceTxnHash": "0x7cbc27c0b89ea5b27da91293dfda38dbab299c08c822332f8824798158d08ce4",
            "status": true,
            "timestamp": "2022-12-26T17:07:23Z",
            "transactionFee": "0.003478884581014626",
            "txnHash": "0x7cbc27c0b89ea5b27da91293dfda38dbab299c08c822332f8824798158d08ce4",
            "txnIndex": 48,
            "type": 2,
            "value": "345000000000000000"
        },
        "fund_flow": [
            {
                "amount": "0.345",
                "from": "0xb6d5af73e2965e75fbaf1b41c5640e19bac59e8f",
                "id": 1,
                "isERC1155": false,
                "isERC721": false,
                "isReverted": false,
                "order": 1,
                "to": "0x114e54a100a0415abf9727234c92c83dbcc59abf",
                "token": "0xeeeeeeeeeeeeeeeeeeeeeeeeeeeeeeeeeeeeeeee"
            },
            {
                "amount": "0.345",
                "from": "0x114e54a100a0415abf9727234c92c83dbcc59abf",
                "id": 2,
                "isERC1155": false,
                "isERC721": false,
                "isReverted": false,
                "order": 2,
                "to": "0x00000000006c3852cbef3e08e8df289169ede581",
                "token": "0xeeeeeeeeeeeeeeeeeeeeeeeeeeeeeeeeeeeeeeee"
            },
            {
                "amount": "0.31257",
                "from": "0x00000000006c3852cbef3e08e8df289169ede581",
                "id": 3,
                "isERC1155": false,
                "isERC721": false,
                "isReverted": false,
                "order": 3,
                "to": "0x078ca0b8b10891887c4c8f1bc064f766565a9787",
                "token": "0xeeeeeeeeeeeeeeeeeeeeeeeeeeeeeeeeeeeeeeee"
            },
            {
                "amount": "0.008625",
                "from": "0x00000000006c3852cbef3e08e8df289169ede581",
                "id": 4,
                "isERC1155": false,
                "isERC721": false,
                "isReverted": false,
                "order": 4,
                "to": "0x0000a26b00c1f0df003000390027140000faa719",
                "token": "0xeeeeeeeeeeeeeeeeeeeeeeeeeeeeeeeeeeeeeeee"
            },
            {
                "amount": "0.023805",
                "from": "0x00000000006c3852cbef3e08e8df289169ede581",
                "id": 5,
                "isERC1155": false,
                "isERC721": false,
                "isReverted": false,
                "order": 5,
                "to": "0x987270bde0db9b9e280360c0c0025afdcce1a856",
                "token": "0xeeeeeeeeeeeeeeeeeeeeeeeeeeeeeeeeeeeeeeee"
            },
            {
                "amount": "1",
                "from": "0x078ca0b8b10891887c4c8f1bc064f766565a9787",
                "id": 6,
                "isERC1155": false,
                "isERC721": true,
                "isReverted": false,
                "order": 6,
                "to": "0xb6d5af73e2965e75fbaf1b41c5640e19bac59e8f",
                "token": "0x07ce82f414a42d9a73b0bd9ec23c249d446a0109",
                "tokenID": "917"
            }
        ],
        "token_infos": [
            {
                "address": "0xc02aaa39b223fe8d0a0e5c4f27ead9083c756cc2",
                "decimals": 18
            },
            {
                "address": "0xeeeeeeeeeeeeeeeeeeeeeeeeeeeeeeeeeeeeeeee",
                "decimals": 18
            }
        ]
    },
    "address_label": {
        "labels": [
            {
                "address": "0x0000000000000000000000000000000000000003",
                "label": "Precompiled"
            },
            {
                "address": "0xeeeeeeeeeeeeeeeeeeeeeeeeeeeeeeeeeeeeeeee",
                "label": "Ether"
            },
            {
                "address": "0x0000a26b00c1f0df003000390027140000faa719",
                "label": "OpenSea: Fees 3"
            },
            {
                "address": "0x004c00500000ad104d7dbd00e3ae0a5c00560c00",
                "label": "OpenSea: Pausable Zone"
            },
            {
                "address": "0x00000000006c3852cbef3e08e8df289169ede581",
                "label": "Seaport 1.1"
            },
            {
                "address": "0x0000000000000000000000000000000000000001",
                "label": "Precompiled"
            },
            {
                "address": "0x0000000000000000000000000000000000000002",
                "label": "Precompiled"
            },
            {
                "address": "0x07ce82f414a42d9a73b0bd9ec23c249d446a0109",
                "label": "NonFungibleArcade Arcade Pass: NFA-PASS Token"
            },
            {
                "address": "0x1e0049783f008a0085193e00003d00cd54003c71",
                "label": "OpenSea: Conduit"
            },
            {
                "address": "0x0000000000000000000000000000000000000000",
                "label": "Null Address"
            },
            {
                "address": "0x0000000000000000000000000000000000000004",
                "label": "Precompiled"
            }
        ]
    },
    "trace": {
        "accountLabels": null,
        "dataMap": {
            "-1": {
                "invocation": {
                    "address": "0xb6d5af73e2965e75fbaf1b41c5640e19bac59e8f",
                    "callData": "",
                    "decodedMethod": null,
                    "errorInfo": "",
                    "fromAddress": "",
                    "gasUsed": 0,
                    "id": -1,
                    "methodDecoded": false,
                    "operation": "",
                    "output": "",
                    "revert": false,
                    "revertMessage": "",
                    "selector": "",
                    "status": false,
                    "value": ""
                },
                "nodeType": 0
            },
            "0": {
                "invocation": {
                    "address": "0x114e54a100a0415abf9727234c92c83dbcc59abf",
                    "callData": "0x00000000000000000000000000000000000000000000000000000000000000e0000000000000000000000000000000000000000000000000000000000000000500000000000000000000000007ce82f414a42d9a73b0bd9ec23c249d446a01090000000000000000000000000000000000000000000000000000000000000395000000000000000000000000b6d5af73e2965e75fbaf1b41c5640e19bac59e8f000000000000000000000000000000000000000000000000000000000000000000000000000000000000000000000000000000000000000000000000000000000000000000000000000000000000000000000000000000000000000000000664e7acab24000000000000000000000000000000000000000000000000000000000000008000000000000000000000000000000000000000000000000000000000000006400000000000000000000000000000000000000000000000000000000000000000000000000000000000000000b6d5af73e2965e75fbaf1b41c5640e19bac59e8f00000000000000000000000000000000000000000000000000000000000000a000000000000000000000000000000000000000000000000000000000000000010000000000000000000000000000000000000000000000000000000000000001000000000000000000000000000000000000000000000000000000000000052000000000000000000000000000000000000000000000000000000000000005a0000000000000000000000000078ca0b8b10891887c4c8f1bc064f766565a9787000000000000000000000000004c00500000ad104d7dbd00e3ae0a5c00560c000000000000000000000000000000000000000000000000000000000000000160000000000000000000000000000000000000000000000000000000000000022000000000000000000000000000000000000000000000000000000000000000020000000000000000000000000000000000000000000000000000000063a9d4290000000000000000000000000000000000000000000000000000000063d2b1a30000000000000000000000000000000000000000000000000000000000000000360c6ebe000000000000000000000000000000000000000049d9a0b2fc0ff34c0000007b02230091a7ed01230072f7006a004d60a8d4e71d599b8104250f000000000000000000000000000000000000000000000000000000000000000000030000000000000000000000000000000000000000000000000000000000000001000000000000000000000000000000000000000000000000000000000000000200000000000000000000000007ce82f414a42d9a73b0bd9ec23c249d446a01090000000000000000000000000000000000000000000000000000000000000395000000000000000000000000000000000000000000000000000000000000000100000000000000000000000000000000000000000000000000000000000000010000000000000000000000000000000000000000000000000000000000000003000000000000000000000000000000000000000000000000000000000000000000000000000000000000000000000000000000000000000000000000000000000000000000000000000000000000000000000000000000000000000000000000000000000000000000000000000000000000000000000000045678c24971a000000000000000000000000000000000000000000000000000045678c24971a000000000000000000000000000078ca0b8b10891887c4c8f1bc064f766565a9787000000000000000000000000000000000000000000000000000000000000000000000000000000000000000000000000000000000000000000000000000000000000000000000000000000000000000000000000000000000000000000000000000000000000000000000000000000000000000000000000001ea4644d301000000000000000000000000000000000000000000000000000001ea4644d3010000000000000000000000000000000a26b00c1f0df003000390027140000faa7190000000000000000000000000000000000000000000000000000000000000000000000000000000000000000000000000000000000000000000000000000000000000000000000000000000000000000000000000000000000000000000000000000000000000000000000000000000000000000000000000054928578e0d0000000000000000000000000000000000000000000000000000054928578e0d000000000000000000000000000987270bde0db9b9e280360c0c0025afdcce1a85600000000000000000000000000000000000000000000000000000000000000411c42dc3ae9711d82d7774a188e135d6ca1457fe3324b0b4f9cecf2e95347907c317bf8f369c74f6abf22a4da562f473f2a45e8bdcd962444f22695dbe11c4c8f1c000000000000000000000000000000000000000000000000000000000000000000000000000000000000000000000000000000000000000000000000000000000000000000000000000000000000000000000000000000000000000000000000000000000000000000000000000000000000000000000000000000",
                    "decodedMethod": null,
                    "errorInfo": "",
                    "fromAddress": "0xb6d5af73e2965e75fbaf1b41c5640e19bac59e8f",
                    "gasUsed": 184598,
                    "id": 0,
                    "methodDecoded": false,
                    "operation": "CALL",
                    "output": "",
                    "revert": false,
                    "revertMessage": "",
                    "selector": "0xa294ae64",
                    "status": true,
                    "value": "0.345"
                },
                "nodeType": 0
            },
            "1": {
                "invocation": {
                    "address": "0x00000000006c3852cbef3e08e8df289169ede581",
                    "callData": "0x000000000000000000000000000000000000000000000000000000000000008000000000000000000000000000000000000000000000000000000000000006400000000000000000000000000000000000000000000000000000000000000000000000000000000000000000b6d5af73e2965e75fbaf1b41c5640e19bac59e8f00000000000000000000000000000000000000000000000000000000000000a000000000000000000000000000000000000000000000000000000000000000010000000000000000000000000000000000000000000000000000000000000001000000000000000000000000000000000000000000000000000000000000052000000000000000000000000000000000000000000000000000000000000005a0000000000000000000000000078ca0b8b10891887c4c8f1bc064f766565a9787000000000000000000000000004c00500000ad104d7dbd00e3ae0a5c00560c000000000000000000000000000000000000000000000000000000000000000160000000000000000000000000000000000000000000000000000000000000022000000000000000000000000000000000000000000000000000000000000000020000000000000000000000000000000000000000000000000000000063a9d4290000000000000000000000000000000000000000000000000000000063d2b1a30000000000000000000000000000000000000000000000000000000000000000360c6ebe000000000000000000000000000000000000000049d9a0b2fc0ff34c0000007b02230091a7ed01230072f7006a004d60a8d4e71d599b8104250f000000000000000000000000000000000000000000000000000000000000000000030000000000000000000000000000000000000000000000000000000000000001000000000000000000000000000000000000000000000000000000000000000200000000000000000000000007ce82f414a42d9a73b0bd9ec23c249d446a01090000000000000000000000000000000000000000000000000000000000000395000000000000000000000000000000000000000000000000000000000000000100000000000000000000000000000000000000000000000000000000000000010000000000000000000000000000000000000000000000000000000000000003000000000000000000000000000000000000000000000000000000000000000000000000000000000000000000000000000000000000000000000000000000000000000000000000000000000000000000000000000000000000000000000000000000000000000000000000000000000000000000000000045678c24971a000000000000000000000000000000000000000000000000000045678c24971a000000000000000000000000000078ca0b8b10891887c4c8f1bc064f766565a9787000000000000000000000000000000000000000000000000000000000000000000000000000000000000000000000000000000000000000000000000000000000000000000000000000000000000000000000000000000000000000000000000000000000000000000000000000000000000000000000000001ea4644d301000000000000000000000000000000000000000000000000000001ea4644d3010000000000000000000000000000000a26b00c1f0df003000390027140000faa7190000000000000000000000000000000000000000000000000000000000000000000000000000000000000000000000000000000000000000000000000000000000000000000000000000000000000000000000000000000000000000000000000000000000000000000000000000000000000000000000000054928578e0d0000000000000000000000000000000000000000000000000000054928578e0d000000000000000000000000000987270bde0db9b9e280360c0c0025afdcce1a85600000000000000000000000000000000000000000000000000000000000000411c42dc3ae9711d82d7774a188e135d6ca1457fe3324b0b4f9cecf2e95347907c317bf8f369c74f6abf22a4da562f473f2a45e8bdcd962444f22695dbe11c4c8f1c0000000000000000000000000000000000000000000000000000000000000000000000000000000000000000000000000000000000000000000000000000000000000000000000000000000000000000000000000000000000000000000000",
                    "decodedMethod": {
                        "callParams": [
                            {
                                "name": "advancedOrder",
                                "type": "((address,address,(uint8,address,uint256,uint256,uint256)[],(uint8,address,uint256,uint256,uint256,address)[],uint8,uint256,uint256,bytes32,uint256,bytes32,uint256),uint120,uint120,bytes,bytes)",
                                "value": [
                                    {
                                        "name": "parameters",
                                        "type": "(address,address,(uint8,address,uint256,uint256,uint256)[],(uint8,address,uint256,uint256,uint256,address)[],uint8,uint256,uint256,bytes32,uint256,bytes32,uint256)",
                                        "value": [
                                            {
                                                "name": "offerer",
                                                "type": "address",
                                                "value": "0x078ca0b8b10891887c4c8f1bc064f766565a9787"
                                            },
                                            {
                                                "name": "zone",
                                                "type": "address",
                                                "value": "0x004c00500000ad104d7dbd00e3ae0a5c00560c00"
                                            },
                                            {
                                                "name": "offer",
                                                "type": "(uint8,address,uint256,uint256,uint256)[]",
                                                "value": [
                                                    [
                                                        {
                                                            "name": "itemType",
                                                            "type": "uint8",
                                                            "value": "2"
                                                        },
                                                        {
                                                            "name": "token",
                                                            "type": "address",
                                                            "value": "0x07ce82f414a42d9a73b0bd9ec23c249d446a0109"
                                                        },
                                                        {
                                                            "name": "identifierOrCriteria",
                                                            "type": "uint256",
                                                            "value": "917"
                                                        },
                                                        {
                                                            "name": "startAmount",
                                                            "type": "uint256",
                                                            "value": "1"
                                                        },
                                                        {
                                                            "name": "endAmount",
                                                            "type": "uint256",
                                                            "value": "1"
                                                        }
                                                    ]
                                                ]
                                            },
                                            {
                                                "name": "consideration",
                                                "type": "(uint8,address,uint256,uint256,uint256,address)[]",
                                                "value": [
                                                    [
                                                        {
                                                            "name": "itemType",
                                                            "type": "uint8",
                                                            "value": "0"
                                                        },
                                                        {
                                                            "name": "token",
                                                            "type": "address",
                                                            "value": "0x0000000000000000000000000000000000000000"
                                                        },
                                                        {
                                                            "name": "identifierOrCriteria",
                                                            "type": "uint256",
                                                            "value": "0"
                                                        },
                                                        {
                                                            "name": "startAmount",
                                                            "type": "uint256",
                                                            "value": "312,570,000,000,000,000"
                                                        },
                                                        {
                                                            "name": "endAmount",
                                                            "type": "uint256",
                                                            "value": "312,570,000,000,000,000"
                                                        },
                                                        {
                                                            "name": "recipient",
                                                            "type": "address",
                                                            "value": "0x078ca0b8b10891887c4c8f1bc064f766565a9787"
                                                        }
                                                    ],
                                                    [
                                                        {
                                                            "name": "itemType",
                                                            "type": "uint8",
                                                            "value": "0"
                                                        },
                                                        {
                                                            "name": "token",
                                                            "type": "address",
                                                            "value": "0x0000000000000000000000000000000000000000"
                                                        },
                                                        {
                                                            "name": "identifierOrCriteria",
                                                            "type": "uint256",
                                                            "value": "0"
                                                        },
                                                        {
                                                            "name": "startAmount",
                                                            "type": "uint256",
                                                            "value": "8,625,000,000,000,000"
                                                        },
                                                        {
                                                            "name": "endAmount",
                                                            "type": "uint256",
                                                            "value": "8,625,000,000,000,000"
                                                        },
                                                        {
                                                            "name": "recipient",
                                                            "type": "address",
                                                            "value": "0x0000a26b00c1f0df003000390027140000faa719"
                                                        }
                                                    ],
                                                    [
                                                        {
                                                            "name": "itemType",
                                                            "type": "uint8",
                                                            "value": "0"
                                                        },
                                                        {
                                                            "name": "token",
                                                            "type": "address",
                                                            "value": "0x0000000000000000000000000000000000000000"
                                                        },
                                                        {
                                                            "name": "identifierOrCriteria",
                                                            "type": "uint256",
                                                            "value": "0"
                                                        },
                                                        {
                                                            "name": "startAmount",
                                                            "type": "uint256",
                                                            "value": "23,805,000,000,000,000"
                                                        },
                                                        {
                                                            "name": "endAmount",
                                                            "type": "uint256",
                                                            "value": "23,805,000,000,000,000"
                                                        },
                                                        {
                                                            "name": "recipient",
                                                            "type": "address",
                                                            "value": "0x987270bde0db9b9e280360c0c0025afdcce1a856"
                                                        }
                                                    ]
                                                ]
                                            },
                                            {
                                                "name": "orderType",
                                                "type": "uint8",
                                                "value": "2"
                                            },
                                            {
                                                "name": "startTime",
                                                "type": "uint256",
                                                "value": "1,672,074,281"
                                            },
                                            {
                                                "name": "endTime",
                                                "type": "uint256",
                                                "value": "1,674,752,419"
                                            },
                                            {
                                                "name": "zoneHash",
                                                "type": "bytes32",
                                                "value": "0x0000000000000000000000000000000000000000000000000000000000000000"
                                            },
                                            {
                                                "name": "salt",
                                                "type": "uint256",
                                                "value": "24,446,860,302,761,739,304,752,683,030,156,737,591,518,664,810,215,442,929,805,704,149,560,560,972,620"
                                            },
                                            {
                                                "name": "conduitKey",
                                                "type": "bytes32",
                                                "value": "0x0000007b02230091a7ed01230072f7006a004d60a8d4e71d599b8104250f0000"
                                            },
                                            {
                                                "name": "totalOriginalConsiderationItems",
                                                "type": "uint256",
                                                "value": "3"
                                            }
                                        ]
                                    },
                                    {
                                        "name": "numerator",
                                        "type": "uint120",
                                        "value": "1"
                                    },
                                    {
                                        "name": "denominator",
                                        "type": "uint120",
                                        "value": "1"
                                    },
                                    {
                                        "name": "signature",
                                        "type": "bytes",
                                        "value": "0x1c42dc3ae9711d82d7774a188e135d6ca1457fe3324b0b4f9cecf2e95347907c317bf8f369c74f6abf22a4da562f473f2a45e8bdcd962444f22695dbe11c4c8f1c"
                                    },
                                    {
                                        "name": "extraData",
                                        "type": "bytes",
                                        "value": "0x"
                                    }
                                ]
                            },
                            {
                                "name": "criteriaResolvers",
                                "type": "(uint256,uint8,uint256,uint256,bytes32[])[]",
                                "value": []
                            },
                            {
                                "name": "fulfillerConduitKey",
                                "type": "bytes32",
                                "value": "0x0000000000000000000000000000000000000000000000000000000000000000"
                            },
                            {
                                "name": "recipient",
                                "type": "address",
                                "value": "0xb6d5af73e2965e75fbaf1b41c5640e19bac59e8f"
                            }
                        ],
                        "constructorArguments": "",
                        "name": "fulfillAdvancedOrder",
                        "returnParams": [
                            {
                                "name": "fulfilled",
                                "type": "bool",
                                "value": true
                            }
                        ],
                        "signature": "fulfillAdvancedOrder(((address,address,(uint8,address,uint256,uint256,uint256)[],(uint8,address,uint256,uint256,uint256,address)[],uint8,uint256,uint256,bytes32,uint256,bytes32,uint256),uint120,uint120,bytes,bytes),(uint256,uint8,uint256,uint256,bytes32[])[],bytes32,address)"
                    },
                    "errorInfo": "",
                    "fromAddress": "0x114e54a100a0415abf9727234c92c83dbcc59abf",
                    "gasUsed": 143049,
                    "id": 1,
                    "methodDecoded": true,
                    "operation": "CALL",
                    "output": "0x0000000000000000000000000000000000000000000000000000000000000001",
                    "revert": false,
                    "revertMessage": "",
                    "selector": "0xe7acab24",
                    "status": true,
                    "value": "0.345"
                },
                "nodeType": 0
            },
            "10": {
                "event": {
                    "contract": "0x07ce82f414a42d9a73b0bd9ec23c249d446a0109",
                    "decodedLog": {
                        "name": "Transfer",
                        "params": [
                            {
                                "name": "from",
                                "type": "address",
                                "value": "0x078ca0b8b10891887c4c8f1bc064f766565a9787"
                            },
                            {
                                "name": "to",
                                "type": "address",
                                "value": "0xb6d5af73e2965e75fbaf1b41c5640e19bac59e8f"
                            },
                            {
                                "decimalAvailable": true,
                                "name": "tokenId",
                                "type": "uint256",
                                "value": "917"
                            }
                        ],
                        "signature": "Transfer(address,address,uint256)"
                    },
                    "id": 10,
                    "logData": "0x",
                    "logDecoded": true,
                    "operation": "EVENT",
                    "revert": false,
                    "status": true,
                    "topics": [
                        "0xddf252ad1be2c89b69c2b068fc378daa952ba7f163c4a11628f55a4df523b3ef",
                        "0x000000000000000000000000078ca0b8b10891887c4c8f1bc064f766565a9787",
                        "0x000000000000000000000000b6d5af73e2965e75fbaf1b41c5640e19bac59e8f",
                        "0x0000000000000000000000000000000000000000000000000000000000000395"
                    ]
                },
                "nodeType": 1
            },
            "11": {
                "event": {
                    "contract": "0x00000000006c3852cbef3e08e8df289169ede581",
                    "decodedLog": {
                        "name": "OrderFulfilled",
                        "params": [
                            {
                                "name": "offerer",
                                "type": "address",
                                "value": "0x078ca0b8b10891887c4c8f1bc064f766565a9787"
                            },
                            {
                                "name": "zone",
                                "type": "address",
                                "value": "0x004c00500000ad104d7dbd00e3ae0a5c00560c00"
                            },
                            {
                                "name": "orderHash",
                                "type": "bytes32",
                                "value": "0x7e3d683e404382b93ba73b7b626e75e8b478f6df97b52f4a48da868e5dff2a4a"
                            },
                            {
                                "name": "recipient",
                                "type": "address",
                                "value": "0xb6d5af73e2965e75fbaf1b41c5640e19bac59e8f"
                            },
                            {
                                "name": "offer",
                                "type": "(uint8,address,uint256,uint256)[]",
                                "value": [
                                    [
                                        {
                                            "name": "itemType",
                                            "type": "uint8",
                                            "value": "2"
                                        },
                                        {
                                            "name": "token",
                                            "type": "address",
                                            "value": "0x07ce82f414a42d9a73b0bd9ec23c249d446a0109"
                                        },
                                        {
                                            "name": "identifier",
                                            "type": "uint256",
                                            "value": "917"
                                        },
                                        {
                                            "name": "amount",
                                            "type": "uint256",
                                            "value": "1"
                                        }
                                    ]
                                ]
                            },
                            {
                                "name": "consideration",
                                "type": "(uint8,address,uint256,uint256,address)[]",
                                "value": [
                                    [
                                        {
                                            "name": "itemType",
                                            "type": "uint8",
                                            "value": "0"
                                        },
                                        {
                                            "name": "token",
                                            "type": "address",
                                            "value": "0x0000000000000000000000000000000000000000"
                                        },
                                        {
                                            "name": "identifier",
                                            "type": "uint256",
                                            "value": "0"
                                        },
                                        {
                                            "name": "amount",
                                            "type": "uint256",
                                            "value": "312,570,000,000,000,000"
                                        },
                                        {
                                            "name": "recipient",
                                            "type": "address",
                                            "value": "0x078ca0b8b10891887c4c8f1bc064f766565a9787"
                                        }
                                    ],
                                    [
                                        {
                                            "name": "itemType",
                                            "type": "uint8",
                                            "value": "0"
                                        },
                                        {
                                            "name": "token",
                                            "type": "address",
                                            "value": "0x0000000000000000000000000000000000000000"
                                        },
                                        {
                                            "name": "identifier",
                                            "type": "uint256",
                                            "value": "0"
                                        },
                                        {
                                            "name": "amount",
                                            "type": "uint256",
                                            "value": "8,625,000,000,000,000"
                                        },
                                        {
                                            "name": "recipient",
                                            "type": "address",
                                            "value": "0x0000a26b00c1f0df003000390027140000faa719"
                                        }
                                    ],
                                    [
                                        {
                                            "name": "itemType",
                                            "type": "uint8",
                                            "value": "0"
                                        },
                                        {
                                            "name": "token",
                                            "type": "address",
                                            "value": "0x0000000000000000000000000000000000000000"
                                        },
                                        {
                                            "name": "identifier",
                                            "type": "uint256",
                                            "value": "0"
                                        },
                                        {
                                            "name": "amount",
                                            "type": "uint256",
                                            "value": "23,805,000,000,000,000"
                                        },
                                        {
                                            "name": "recipient",
                                            "type": "address",
                                            "value": "0x987270bde0db9b9e280360c0c0025afdcce1a856"
                                        }
                                    ]
                                ]
                            }
                        ],
                        "signature": "OrderFulfilled(bytes32,address,address,address,(uint8,address,uint256,uint256)[],(uint8,address,uint256,uint256,address)[])"
                    },
                    "id": 11,
                    "logData": "0x7e3d683e404382b93ba73b7b626e75e8b478f6df97b52f4a48da868e5dff2a4a000000000000000000000000b6d5af73e2965e75fbaf1b41c5640e19bac59e8f000000000000000000000000000000000000000000000000000000000000008000000000000000000000000000000000000000000000000000000000000001200000000000000000000000000000000000000000000000000000000000000001000000000000000000000000000000000000000000000000000000000000000200000000000000000000000007ce82f414a42d9a73b0bd9ec23c249d446a0109000000000000000000000000000000000000000000000000000000000000039500000000000000000000000000000000000000000000000000000000000000010000000000000000000000000000000000000000000000000000000000000003000000000000000000000000000000000000000000000000000000000000000000000000000000000000000000000000000000000000000000000000000000000000000000000000000000000000000000000000000000000000000000000000000000000000000000000000000000000000000000000000045678c24971a000000000000000000000000000078ca0b8b10891887c4c8f1bc064f766565a9787000000000000000000000000000000000000000000000000000000000000000000000000000000000000000000000000000000000000000000000000000000000000000000000000000000000000000000000000000000000000000000000000000000000000000000000000000000000000000000000000001ea4644d3010000000000000000000000000000000a26b00c1f0df003000390027140000faa7190000000000000000000000000000000000000000000000000000000000000000000000000000000000000000000000000000000000000000000000000000000000000000000000000000000000000000000000000000000000000000000000000000000000000000000000000000000000000000000000000054928578e0d000000000000000000000000000987270bde0db9b9e280360c0c0025afdcce1a856",
                    "logDecoded": true,
                    "operation": "EVENT",
                    "revert": false,
                    "status": true,
                    "topics": [
                        "0x9d9af8e38d66c62e2c12f0225249fd9d721c54b83f48d9352c97c6cacdcb6f31",
                        "0x000000000000000000000000078ca0b8b10891887c4c8f1bc064f766565a9787",
                        "0x000000000000000000000000004c00500000ad104d7dbd00e3ae0a5c00560c00"
                    ]
                },
                "nodeType": 1
            },
            "2": {
                "invocation": {
                    "address": "0x004c00500000ad104d7dbd00e3ae0a5c00560c00",
                    "callData": "0x7e3d683e404382b93ba73b7b626e75e8b478f6df97b52f4a48da868e5dff2a4a000000000000000000000000114e54a100a0415abf9727234c92c83dbcc59abf000000000000000000000000078ca0b8b10891887c4c8f1bc064f766565a97870000000000000000000000000000000000000000000000000000000000000000",
                    "decodedMethod": {
                        "callParams": [
                            {
                                "name": "orderHash",
                                "type": "bytes32",
                                "value": "0x7e3d683e404382b93ba73b7b626e75e8b478f6df97b52f4a48da868e5dff2a4a"
                            },
                            {
                                "name": "caller",
                                "type": "address",
                                "value": "0x114e54a100a0415abf9727234c92c83dbcc59abf"
                            },
                            {
                                "name": "offerer",
                                "type": "address",
                                "value": "0x078ca0b8b10891887c4c8f1bc064f766565a9787"
                            },
                            {
                                "name": "zoneHash",
                                "type": "bytes32",
                                "value": "0x0000000000000000000000000000000000000000000000000000000000000000"
                            }
                        ],
                        "constructorArguments": "",
                        "name": "isValidOrder",
                        "returnParams": [
                            {
                                "name": "validOrderMagicValue",
                                "type": "bytes4",
                                "value": "0x0e1d31dc"
                            }
                        ],
                        "signature": "isValidOrder(bytes32,address,address,bytes32)"
                    },
                    "errorInfo": "",
                    "fromAddress": "0x00000000006c3852cbef3e08e8df289169ede581",
                    "gasUsed": 257,
                    "id": 2,
                    "methodDecoded": true,
                    "operation": "STATICCALL",
                    "output": "0x0e1d31dc00000000000000000000000000000000000000000000000000000000",
                    "revert": false,
                    "revertMessage": "",
                    "selector": "0x0e1d31dc",
                    "status": true,
                    "value": "0"
                },
                "nodeType": 0
            },
            "3": {
                "invocation": {
                    "address": "0x0000000000000000000000000000000000000001",
                    "callData": "0xef4d026a7e5711781731a1865bdfdbdd410854516e502977f53e55bb000000000000000000000000000000000000000000000000000000000000001c1c42dc3ae9711d82d7774a188e135d6ca1457fe3324b0b4f9cecf2e95347907c317bf8f369c74f6abf22a4da562f473f2a45e8bdcd962444f22695dbe11c4c8f",
                    "decodedMethod": {
                        "callParams": [
                            {
                                "name": "hash",
                                "type": "bytes32",
                                "value": "0xcd021ccbef4d026a7e5711781731a1865bdfdbdd410854516e502977f53e55bb"
                            },
                            {
                                "name": "v",
                                "type": "uint256",
                                "value": "28"
                            },
                            {
                                "name": "r",
                                "type": "bytes32",
                                "value": "0x1c42dc3ae9711d82d7774a188e135d6ca1457fe3324b0b4f9cecf2e95347907c"
                            },
                            {
                                "name": "s",
                                "type": "bytes32",
                                "value": "0x317bf8f369c74f6abf22a4da562f473f2a45e8bdcd962444f22695dbe11c4c8f"
                            }
                        ],
                        "constructorArguments": "",
                        "name": "ecrecover",
                        "returnParams": [
                            {
                                "name": "",
                                "type": "address",
                                "value": "0x078ca0b8b10891887c4c8f1bc064f766565a9787"
                            }
                        ],
                        "signature": "ecrecover(bytes32,uint256,bytes32,bytes32)"
                    },
                    "errorInfo": "",
                    "fromAddress": "0x00000000006c3852cbef3e08e8df289169ede581",
                    "gasUsed": 3000,
                    "id": 3,
                    "methodDecoded": true,
                    "operation": "STATICCALL",
                    "output": "0x000000000000000000000000078ca0b8b10891887c4c8f1bc064f766565a9787",
                    "revert": false,
                    "revertMessage": "",
                    "selector": "0xcd021ccb",
                    "status": true,
                    "value": "0"
                },
                "nodeType": 0
            },
            "4": {
                "invocation": {
                    "address": "0x078ca0b8b10891887c4c8f1bc064f766565a9787",
                    "callData": "0x",
                    "decodedMethod": null,
                    "errorInfo": "",
                    "fromAddress": "0x00000000006c3852cbef3e08e8df289169ede581",
                    "gasUsed": 0,
                    "id": 4,
                    "methodDecoded": false,
                    "operation": "CALL",
                    "output": "",
                    "revert": false,
                    "revertMessage": "",
                    "selector": "fallback",
                    "status": true,
                    "value": "0.31257"
                },
                "nodeType": 0
            },
            "5": {
                "invocation": {
                    "address": "0x0000a26b00c1f0df003000390027140000faa719",
                    "callData": "0x",
                    "decodedMethod": null,
                    "errorInfo": "",
                    "fromAddress": "0x00000000006c3852cbef3e08e8df289169ede581",
                    "gasUsed": 85,
                    "id": 5,
                    "methodDecoded": false,
                    "operation": "CALL",
                    "output": "",
                    "revert": false,
                    "revertMessage": "",
                    "selector": "fallback",
                    "status": true,
                    "value": "0.008625"
                },
                "nodeType": 0
            },
            "6": {
                "invocation": {
                    "address": "0x987270bde0db9b9e280360c0c0025afdcce1a856",
                    "callData": "0x",
                    "decodedMethod": null,
                    "errorInfo": "",
                    "fromAddress": "0x00000000006c3852cbef3e08e8df289169ede581",
                    "gasUsed": 0,
                    "id": 6,
                    "methodDecoded": false,
                    "operation": "CALL",
                    "output": "",
                    "revert": false,
                    "revertMessage": "",
                    "selector": "fallback",
                    "status": true,
                    "value": "0.023805"
                },
                "nodeType": 0
            },
            "7": {
                "invocation": {
                    "address": "0x1e0049783f008a0085193e00003d00cd54003c71",
                    "callData": "0x00000000000000000000000000000000000000000000000000000000000000200000000000000000000000000000000000000000000000000000000000000001000000000000000000000000000000000000000000000000000000000000000200000000000000000000000007ce82f414a42d9a73b0bd9ec23c249d446a0109000000000000000000000000078ca0b8b10891887c4c8f1bc064f766565a9787000000000000000000000000b6d5af73e2965e75fbaf1b41c5640e19bac59e8f00000000000000000000000000000000000000000000000000000000000003950000000000000000000000000000000000000000000000000000000000000001",
                    "decodedMethod": {
                        "callParams": [
                            {
                                "name": "transfers",
                                "type": "(uint8,address,address,address,uint256,uint256)[]",
                                "value": [
                                    [
                                        {
                                            "name": "itemType",
                                            "type": "uint8",
                                            "value": "2"
                                        },
                                        {
                                            "name": "token",
                                            "type": "address",
                                            "value": "0x07ce82f414a42d9a73b0bd9ec23c249d446a0109"
                                        },
                                        {
                                            "name": "from",
                                            "type": "address",
                                            "value": "0x078ca0b8b10891887c4c8f1bc064f766565a9787"
                                        },
                                        {
                                            "name": "to",
                                            "type": "address",
                                            "value": "0xb6d5af73e2965e75fbaf1b41c5640e19bac59e8f"
                                        },
                                        {
                                            "name": "identifier",
                                            "type": "uint256",
                                            "value": "917"
                                        },
                                        {
                                            "name": "amount",
                                            "type": "uint256",
                                            "value": "1"
                                        }
                                    ]
                                ]
                            }
                        ],
                        "constructorArguments": "",
                        "name": "execute",
                        "returnParams": [
                            {
                                "name": "magicValue",
                                "type": "bytes4",
                                "value": "0x4ce34aa2"
                            }
                        ],
                        "signature": "execute((uint8,address,address,address,uint256,uint256)[])"
                    },
                    "errorInfo": "",
                    "fromAddress": "0x00000000006c3852cbef3e08e8df289169ede581",
                    "gasUsed": 49812,
                    "id": 7,
                    "methodDecoded": true,
                    "operation": "CALL",
                    "output": "0x4ce34aa200000000000000000000000000000000000000000000000000000000",
                    "revert": false,
                    "revertMessage": "",
                    "selector": "0x4ce34aa2",
                    "status": true,
                    "value": "0"
                },
                "nodeType": 0
            },
            "8": {
                "invocation": {
                    "address": "0x07ce82f414a42d9a73b0bd9ec23c249d446a0109",
                    "callData": "0x000000000000000000000000078ca0b8b10891887c4c8f1bc064f766565a9787000000000000000000000000b6d5af73e2965e75fbaf1b41c5640e19bac59e8f0000000000000000000000000000000000000000000000000000000000000395",
                    "decodedMethod": {
                        "callParams": [
                            {
                                "name": "from",
                                "type": "address",
                                "value": "0x078ca0b8b10891887c4c8f1bc064f766565a9787"
                            },
                            {
                                "name": "to",
                                "type": "address",
                                "value": "0xb6d5af73e2965e75fbaf1b41c5640e19bac59e8f"
                            },
                            {
                                "decimalAvailable": true,
                                "name": "tokenId",
                                "type": "uint256",
                                "value": "917"
                            }
                        ],
                        "constructorArguments": "",
                        "name": "transferFrom",
                        "returnParams": [],
                        "signature": "transferFrom(address,address,uint256)"
                    },
                    "errorInfo": "",
                    "fromAddress": "0x1e0049783f008a0085193e00003d00cd54003c71",
                    "gasUsed": 43696,
                    "id": 8,
                    "methodDecoded": true,
                    "operation": "CALL",
                    "output": "",
                    "revert": false,
                    "revertMessage": "",
                    "selector": "0x23b872dd",
                    "status": true,
                    "value": "0"
                },
                "nodeType": 0
            },
            "9": {
                "event": {
                    "contract": "0x07ce82f414a42d9a73b0bd9ec23c249d446a0109",
                    "decodedLog": {
                        "name": "Approval",
                        "params": [
                            {
                                "name": "owner",
                                "type": "address",
                                "value": "0x078ca0b8b10891887c4c8f1bc064f766565a9787"
                            },
                            {
                                "name": "approved",
                                "type": "address",
                                "value": "0x0000000000000000000000000000000000000000"
                            },
                            {
                                "decimalAvailable": true,
                                "name": "tokenId",
                                "type": "uint256",
                                "value": "917"
                            }
                        ],
                        "signature": "Approval(address,address,uint256)"
                    },
                    "id": 9,
                    "logData": "0x",
                    "logDecoded": true,
                    "operation": "EVENT",
                    "revert": false,
                    "status": true,
                    "topics": [
                        "0x8c5be1e5ebec7d5bd14f71427d1e84f3dd0314c0f7b2291e5b200ac8c7c3b925",
                        "0x000000000000000000000000078ca0b8b10891887c4c8f1bc064f766565a9787",
                        "0x0000000000000000000000000000000000000000000000000000000000000000",
                        "0x0000000000000000000000000000000000000000000000000000000000000395"
                    ]
                },
                "nodeType": 1
            }
        },
        "gasFlame": [
            {
                "children": [
                    {
                        "children": [
                            {
                                "children": [],
                                "depth": 0,
                                "name": "Initial Gas",
                                "value": 32884
                            },
                            {
                                "children": [
                                    {
                                        "children": [
                                            {
                                                "children": [],
                                                "depth": 2,
                                                "name": "isValidOrder",
                                                "value": 257
                                            },
                                            {
                                                "children": [],
                                                "depth": 2,
                                                "name": "ecrecover",
                                                "value": 3000
                                            },
                                            {
                                                "children": [],
                                                "depth": 2,
                                                "name": "fallback",
                                                "value": 0
                                            },
                                            {
                                                "children": [],
                                                "depth": 2,
                                                "name": "fallback",
                                                "value": 85
                                            },
                                            {
                                                "children": [],
                                                "depth": 2,
                                                "name": "fallback",
                                                "value": 0
                                            },
                                            {
                                                "children": [
                                                    {
                                                        "children": [],
                                                        "depth": 3,
                                                        "name": "transferFrom",
                                                        "value": 43696
                                                    }
                                                ],
                                                "depth": 2,
                                                "name": "execute",
                                                "value": 49812
                                            }
                                        ],
                                        "depth": 1,
                                        "name": "fulfillAdvancedOrder",
                                        "value": 143049
                                    }
                                ],
                                "depth": 0,
                                "name": "Executed Gas",
                                "value": 162114
                            }
                        ],
                        "depth": -1,
                        "name": "Actual Gas Used",
                        "value": 184598
                    },
                    {
                        "children": [],
                        "depth": -1,
                        "name": "Refunded Gas",
                        "value": 10400
                    }
                ],
                "depth": -2,
                "name": "Total Gas",
                "value": 194998
            }
        ],
        "isConfirmed": true,
        "mainTrace": [
            {
                "children": [
                    {
                        "children": [
                            {
                                "children": [
                                    {
                                        "children": [],
                                        "depth": 2,
                                        "id": 2,
                                        "order": 2
                                    },
                                    {
                                        "children": [],
                                        "depth": 2,
                                        "id": 3,
                                        "order": 3
                                    },
                                    {
                                        "children": [],
                                        "depth": 2,
                                        "id": 4,
                                        "order": 4
                                    },
                                    {
                                        "children": [],
                                        "depth": 2,
                                        "id": 5,
                                        "order": 5
                                    },
                                    {
                                        "children": [],
                                        "depth": 2,
                                        "id": 6,
                                        "order": 6
                                    },
                                    {
                                        "children": [
                                            {
                                                "children": [
                                                    {
                                                        "children": [],
                                                        "depth": 4,
                                                        "id": 9,
                                                        "order": 9
                                                    },
                                                    {
                                                        "children": [],
                                                        "depth": 4,
                                                        "id": 10,
                                                        "order": 10
                                                    }
                                                ],
                                                "depth": 3,
                                                "id": 8,
                                                "order": 8
                                            }
                                        ],
                                        "depth": 2,
                                        "id": 7,
                                        "order": 7
                                    },
                                    {
                                        "children": [],
                                        "depth": 2,
                                        "id": 11,
                                        "order": 11
                                    }
                                ],
                                "depth": 1,
                                "id": 1,
                                "order": 1
                            }
                        ],
                        "depth": 0,
                        "id": 0,
                        "order": 0
                    }
                ],
                "depth": -1,
                "id": -1,
                "order": -1
            }
        ],
        "mainTraceNodeCount": 12,
        "parentIdMap": {
            "0": -1,
            "1": 0,
            "10": 8,
            "11": 1,
            "2": 1,
            "3": 1,
            "4": 1,
            "5": 1,
            "6": 1,
            "7": 1,
            "8": 7,
            "9": 8
        },
        "tidyTrace": [
            {
                "children": [
                    {
                        "children": [
                            {
                                "children": [
                                    {
                                        "children": [],
                                        "depth": 2,
                                        "id": 4,
                                        "order": 4
                                    },
                                    {
                                        "children": [],
                                        "depth": 2,
                                        "id": 5,
                                        "order": 5
                                    },
                                    {
                                        "children": [],
                                        "depth": 2,
                                        "id": 6,
                                        "order": 6
                                    },
                                    {
                                        "children": [
                                            {
                                                "children": [
                                                    {
                                                        "children": [],
                                                        "depth": 4,
                                                        "id": 9,
                                                        "order": 9
                                                    },
                                                    {
                                                        "children": [],
                                                        "depth": 4,
                                                        "id": 10,
                                                        "order": 10
                                                    }
                                                ],
                                                "depth": 3,
                                                "id": 8,
                                                "order": 8
                                            }
                                        ],
                                        "depth": 2,
                                        "id": 7,
                                        "order": 7
                                    },
                                    {
                                        "children": [],
                                        "depth": 2,
                                        "id": 11,
                                        "order": 11
                                    }
                                ],
                                "depth": 1,
                                "id": 1,
                                "order": 1
                            }
                        ],
                        "depth": 0,
                        "id": 0,
                        "order": 0
                    }
                ],
                "depth": -1,
                "id": -1,
                "order": -1
            }
        ],
        "tidyTraceNodeCount": 10
    },
    "state_change": {
        "stateChanges": [
            {
                "address": "0x00000000006c3852cbef3e08e8df289169ede581",
                "erc": "",
                "slots": [
                    {
                        "current": "0x0000000000000000000000000000010000000000000000000000000000010001",
                        "key": "0xb11e9d37ee3168d0bead19640d50014fbc4b3ca473ca4a735250fe1345cddab6",
                        "prev": "0x0000000000000000000000000000000000000000000000000000000000000000"
                    }
                ],
                "storageVariables": [
                    {
                        "name": "_orderStatus",
                        "type": "mapping(bytes32 => struct OrderStatus)",
                        "value": {
                            "pairs": [
                                {
                                    "key": "0x7e3d683e404382b93ba73b7b626e75e8b478f6df97b52f4a48da868e5dff2a4a",
                                    "value": {
                                        "fields": [
                                            {
                                                "name": "isValidated",
                                                "type": "bool",
                                                "value": {
                                                    "current": "true",
                                                    "prev": "false",
                                                    "typeTag": 1
                                                }
                                            },
                                            {
                                                "name": "isCancelled",
                                                "type": "bool",
                                                "value": {
                                                    "current": "false",
                                                    "prev": "false",
                                                    "typeTag": 1
                                                }
                                            },
                                            {
                                                "name": "numerator",
                                                "type": "uint120",
                                                "value": {
                                                    "current": "1",
                                                    "prev": "0",
                                                    "typeTag": 1
                                                }
                                            },
                                            {
                                                "name": "denominator",
                                                "type": "uint120",
                                                "value": {
                                                    "current": "1",
                                                    "prev": "0",
                                                    "typeTag": 1
                                                }
                                            }
                                        ],
                                        "typeTag": 3
                                    }
                                }
                            ],
                            "typeTag": 4
                        }
                    }
                ]
            },
            {
                "address": "0x07ce82f414a42d9a73b0bd9ec23c249d446a0109",
                "erc": "ERC-721",
                "slots": [
                    {
                        "current": "0x0000000000000000000000000000000000000000000000000000000000000001",
                        "key": "0xce84f19b4ca065412b17808087f847579f8b816a3f305f8d73506245e90edc00",
                        "prev": "0x0000000000000000000000000000000000000000000000000000000000000000"
                    },
                    {
                        "current": "0x000000000000000000000000b6d5af73e2965e75fbaf1b41c5640e19bac59e8f",
                        "key": "0xc2eb8ee4583219a5d951a19d518eedc52f962b7bddeb310078133ffdc26b2e2d",
                        "prev": "0x000000000000000000000000078ca0b8b10891887c4c8f1bc064f766565a9787"
                    },
                    {
                        "current": "0x0000000000000000000000000000000000000000000000000000000000000000",
                        "key": "0x6aa8565171e9a75735bd144071c4f343816cd0702bbd11ffc6efa16bfbf62666",
                        "prev": "0x0000000000000000000000000000000000000000000000000000000000000001"
                    }
                ],
                "storageVariables": [
                    {
                        "name": "_owners",
                        "type": "mapping(uint256 => address)",
                        "value": {
                            "pairs": [
                                {
                                    "key": "917",
                                    "value": {
                                        "current": "0xb6d5af73e2965e75fbaf1b41c5640e19bac59e8f",
                                        "prev": "0x078ca0b8b10891887c4c8f1bc064f766565a9787",
                                        "typeTag": 1
                                    }
                                }
                            ],
                            "typeTag": 4
                        }
                    },
                    {
                        "name": "_balances",
                        "type": "mapping(address => uint256)",
                        "value": {
                            "pairs": [
                                {
                                    "key": "0x078ca0b8b10891887c4c8f1bc064f766565a9787",
                                    "value": {
                                        "current": "0",
                                        "prev": "1",
                                        "typeTag": 1
                                    }
                                },
                                {
                                    "key": "0xb6d5af73e2965e75fbaf1b41c5640e19bac59e8f",
                                    "value": {
                                        "current": "1",
                                        "prev": "0",
                                        "typeTag": 1
                                    }
                                }
                            ],
                            "typeTag": 4
                        }
                    }
                ]
            }
        ]
    }
}