{
    "balance_change": {
        "balanceChanges": []
    },
    "profile": {
        "basic_info": {
            "baseFee": "15.82717029",
            "blockNumber": 15366506,
            "callData": "0x7c02520000000000000000000000000027239549dd40e1d60f5b80b0c4196923745b1fd200000000000000000000000000000000000000000000000000000000000000600000000000000000000000000000000000000000000000000000000000000180000000000000000000000000eeeeeeeeeeeeeeeeeeeeeeeeeeeeeeeeeeeeeeee0000000000000000000000004fabb145d64652a948d72533023f6e7a623c7c5300000000000000000000000027239549dd40e1d60f5b80b0c4196923745b1fd20000000000000000000000006e0ebd61bba609d973107ce9ca956c0fae22d8d300000000000000000000000000000000000000000000000000d2100b39399f00000000000000000000000000000000000000000000000005c249253023eea67600000000000000000000000000000000000000000000000000000000000000000000000000000000000000000000000000000000000000000000000000000100000000000000000000000000000000000000000000000000000000000000000000000000000000000000000000000000000000000000000000000000000003000000000000000000000000000000000000000000000000000000000000000020000000000000000000000000000000000000000000000000000000000000000200000000000000000000000000000000000000000000000000000000000000400000000000000000000000000000000000000000000000000000000000000100000000000000000000000000c02aaa39b223fe8d0a0e5c4f27ead9083c756cc2000000000000000000000000000000000000000000000000000000000000000000000000000000000000000000000000000000000000000000d2100b39399f0000000000000000000000000000000000000000000000000000000000000000800000000000000000000000000000000000000000000000000000000000000004d0e30db0000000000000000000000000000000000000000000000000000000008000000000000000000000004ff7e1e713e30b0d1fb9cd00477cef399ff9d4930000000000000000000000000000000000000000000000000000000000000000000000000000000000000000000000000000000000000000000000000000000000000000000000000000000000000000000000000000000000000000000000800000000000000000000000000000000000000000000000000000000000000104128acb080000000000000000000000006e0ebd61bba609d973107ce9ca956c0fae22d8d3000000000000000000000000000000000000000000000000000000000000000000000000000000000000000000000000000000000000000000d2100b39399f00000000000000000000000000fffd8963efd1fc6a506488495d951d5263988d2500000000000000000000000000000000000000000000000000000000000000a000000000000000000000000000000000000000000000000000000000000000400000000000000000000000004fabb145d64652a948d72533023f6e7a623c7c53000000000000000000000000c02aaa39b223fe8d0a0e5c4f27ead9083c756cc2000000000000000000000000000000000000000000000000000000000bd34b36",
            "debugEnable": true,
            "errorInfo": "execution reverted",
            "eventCount": 4,
            "feeRecipient": "0xea674fdde714fd979de3edf0f56aa9716b898ec8",
            "formatValue": "0.0591273855",
            "gasLimit": 900000,
            "gasPrice": "16.239528212",
            "gasUsed": 184451,
            "intTxnCount": 13,
            "internalRevert": true,
            "internalRevertMessage": "",
            "isContractCreation": false,
            "isFlashloan": false,
            "maxFee": "16.239528212",
            "nonce": 3,
            "overwritedBlockNumber": -1,
            "priorityFee": "1.098643368",
            "receiver": "0x11111112542d85b3ef69ae05771c2dccff4faa26",
            "revertMessage": "Return amount is not enough",
            "sender": "0x6e0ebd61bba609d973107ce9ca956c0fae22d8d3",
            "simulationEnable": true,
            "sourceTxnHash": "0x7cff50705e6b1ae3765524427b1bdb0da7eb972b8ff21925b3733230573d1f9a",
            "status": false,
            "timestamp": "2022-08-18T18:17:06Z",
            "transactionFee": "0.002995397218231612",
            "txnHash": "0x7cff50705e6b1ae3765524427b1bdb0da7eb972b8ff21925b3733230573d1f9a",
            "txnIndex": 123,
            "type": 2,
            "value": "59127385500000000"
        },
        "fund_flow": [],
        "token_infos": [
            {
                "address": "0x4fabb145d64652a948d72533023f6e7a623c7c53",
                "decimals": 18
            },
            {
                "address": "0xc02aaa39b223fe8d0a0e5c4f27ead9083c756cc2",
                "decimals": 18
            },
            {
                "address": "0xeeeeeeeeeeeeeeeeeeeeeeeeeeeeeeeeeeeeeeee",
                "decimals": 18
            }
        ]
    },
    "address_label": {
        "labels": [
            {
                "address": "0xc02aaa39b223fe8d0a0e5c4f27ead9083c756cc2",
                "label": "Wrapped Ether (WETH)"
            },
            {
                "address": "0x4fabb145d64652a948d72533023f6e7a623c7c53",
                "label": "Paxos: BUSD Token"
            },
            {
                "address": "0x4ff7e1e713e30b0d1fb9cd00477cef399ff9d493",
                "label": "Uniswap V3: BUSD 2"
            },
            {
                "address": "0x0000000000000000000000000000000000000002",
                "label": "Precompiled"
            },
            {
                "address": "0x0000000000000000000000000000000000000003",
                "label": "Precompiled"
            },
            {
                "address": "0x0000000000000000000000000000000000000004",
                "label": "Precompiled"
            },
            {
                "address": "0xeeeeeeeeeeeeeeeeeeeeeeeeeeeeeeeeeeeeeeee",
                "label": "Ether"
            },
            {
                "address": "0x11111112542d85b3ef69ae05771c2dccff4faa26",
                "label": "1inch v3: Aggregation Router"
            },
            {
                "address": "0x5864c777697bf9881220328bf2f16908c9afcd7e",
                "label": "Binance USD (BUSD)"
            },
            {
                "address": "0x0000000000000000000000000000000000000001",
                "label": "Precompiled"
            }
        ]
    },
    "trace": {
        "accountLabels": null,
        "dataMap": {
            "-1": {
                "invocation": {
                    "address": "0x6e0ebd61bba609d973107ce9ca956c0fae22d8d3",
                    "callData": "",
                    "decodedMethod": null,
                    "errorInfo": "",
                    "fromAddress": "",
                    "gasUsed": 0,
                    "id": -1,
                    "methodDecoded": false,
                    "operation": "",
                    "output": "",
                    "revert": false,
                    "revertMessage": "",
                    "selector": "",
                    "status": false,
                    "value": ""
                },
                "nodeType": 0
            },
            "0": {
                "invocation": {
                    "address": "0x11111112542d85b3ef69ae05771c2dccff4faa26",
                    "callData": "0x00000000000000000000000027239549dd40e1d60f5b80b0c4196923745b1fd200000000000000000000000000000000000000000000000000000000000000600000000000000000000000000000000000000000000000000000000000000180000000000000000000000000eeeeeeeeeeeeeeeeeeeeeeeeeeeeeeeeeeeeeeee0000000000000000000000004fabb145d64652a948d72533023f6e7a623c7c5300000000000000000000000027239549dd40e1d60f5b80b0c4196923745b1fd20000000000000000000000006e0ebd61bba609d973107ce9ca956c0fae22d8d300000000000000000000000000000000000000000000000000d2100b39399f00000000000000000000000000000000000000000000000005c249253023eea67600000000000000000000000000000000000000000000000000000000000000000000000000000000000000000000000000000000000000000000000000000100000000000000000000000000000000000000000000000000000000000000000000000000000000000000000000000000000000000000000000000000000003000000000000000000000000000000000000000000000000000000000000000020000000000000000000000000000000000000000000000000000000000000000200000000000000000000000000000000000000000000000000000000000000400000000000000000000000000000000000000000000000000000000000000100000000000000000000000000c02aaa39b223fe8d0a0e5c4f27ead9083c756cc2000000000000000000000000000000000000000000000000000000000000000000000000000000000000000000000000000000000000000000d2100b39399f0000000000000000000000000000000000000000000000000000000000000000800000000000000000000000000000000000000000000000000000000000000004d0e30db0000000000000000000000000000000000000000000000000000000008000000000000000000000004ff7e1e713e30b0d1fb9cd00477cef399ff9d4930000000000000000000000000000000000000000000000000000000000000000000000000000000000000000000000000000000000000000000000000000000000000000000000000000000000000000000000000000000000000000000000800000000000000000000000000000000000000000000000000000000000000104128acb080000000000000000000000006e0ebd61bba609d973107ce9ca956c0fae22d8d3000000000000000000000000000000000000000000000000000000000000000000000000000000000000000000000000000000000000000000d2100b39399f00000000000000000000000000fffd8963efd1fc6a506488495d951d5263988d2500000000000000000000000000000000000000000000000000000000000000a000000000000000000000000000000000000000000000000000000000000000400000000000000000000000004fabb145d64652a948d72533023f6e7a623c7c53000000000000000000000000c02aaa39b223fe8d0a0e5c4f27ead9083c756cc2000000000000000000000000000000000000000000000000000000000bd34b36",
                    "decodedMethod": {
                        "callParams": [
                            {
                                "name": "caller",
                                "type": "address",
                                "value": "0x27239549dd40e1d60f5b80b0c4196923745b1fd2"
                            },
                            {
                                "name": "desc",
                                "type": "(address,address,address,address,uint256,uint256,uint256,bytes)",
                                "value": [
                                    {
                                        "name": "srcToken",
                                        "type": "address",
                                        "value": "0xeeeeeeeeeeeeeeeeeeeeeeeeeeeeeeeeeeeeeeee"
                                    },
                                    {
                                        "name": "dstToken",
                                        "type": "address",
                                        "value": "0x4fabb145d64652a948d72533023f6e7a623c7c53"
                                    },
                                    {
                                        "name": "srcReceiver",
                                        "type": "address",
                                        "value": "0x27239549dd40e1d60f5b80b0c4196923745b1fd2"
                                    },
                                    {
                                        "name": "dstReceiver",
                                        "type": "address",
                                        "value": "0x6e0ebd61bba609d973107ce9ca956c0fae22d8d3"
                                    },
                                    {
                                        "name": "amount",
                                        "type": "uint256",
                                        "value": "59,127,385,500,000,000"
                                    },
                                    {
                                        "name": "minReturnAmount",
                                        "type": "uint256",
                                        "value": "106,233,482,173,897,156,214"
                                    },
                                    {
                                        "name": "flags",
                                        "type": "uint256",
                                        "value": "0"
                                    },
                                    {
                                        "name": "permit",
                                        "type": "bytes",
                                        "value": "0x"
                                    }
                                ]
                            },
                            {
                                "name": "data",
                                "type": "bytes",
                                "value": "0x0000000000000000000000000000000000000000000000000000000000000020000000000000000000000000000000000000000000000000000000000000000200000000000000000000000000000000000000000000000000000000000000400000000000000000000000000000000000000000000000000000000000000100000000000000000000000000c02aaa39b223fe8d0a0e5c4f27ead9083c756cc2000000000000000000000000000000000000000000000000000000000000000000000000000000000000000000000000000000000000000000d2100b39399f0000000000000000000000000000000000000000000000000000000000000000800000000000000000000000000000000000000000000000000000000000000004d0e30db0000000000000000000000000000000000000000000000000000000008000000000000000000000004ff7e1e713e30b0d1fb9cd00477cef399ff9d4930000000000000000000000000000000000000000000000000000000000000000000000000000000000000000000000000000000000000000000000000000000000000000000000000000000000000000000000000000000000000000000000800000000000000000000000000000000000000000000000000000000000000104128acb080000000000000000000000006e0ebd61bba609d973107ce9ca956c0fae22d8d3000000000000000000000000000000000000000000000000000000000000000000000000000000000000000000000000000000000000000000d2100b39399f00000000000000000000000000fffd8963efd1fc6a506488495d951d5263988d2500000000000000000000000000000000000000000000000000000000000000a000000000000000000000000000000000000000000000000000000000000000400000000000000000000000004fabb145d64652a948d72533023f6e7a623c7c53000000000000000000000000c02aaa39b223fe8d0a0e5c4f27ead9083c756cc200000000000000000000000000000000000000000000000000000000"
                            }
                        ],
                        "constructorArguments": "",
                        "name": "swap",
                        "returnParams": [],
                        "signature": "swap(address,(address,address,address,address,uint256,uint256,uint256,bytes),bytes)"
                    },
                    "errorInfo": "execution reverted",
                    "fromAddress": "0x6e0ebd61bba609d973107ce9ca956c0fae22d8d3",
                    "gasUsed": 184451,
                    "id": 0,
                    "methodDecoded": true,
                    "operation": "CALL",
                    "output": "0x08c379a00000000000000000000000000000000000000000000000000000000000000020000000000000000000000000000000000000000000000000000000000000001b52657475726e20616d6f756e74206973206e6f7420656e6f7567680000000000",
                    "revert": true,
                    "revertMessage": "Return amount is not enough",
                    "selector": "0x7c025200",
                    "status": false,
                    "value": "0.0591273855"
                },
                "nodeType": 0
            },
            "1": {
                "invocation": {
                    "address": "0x4fabb145d64652a948d72533023f6e7a623c7c53",
                    "callData": "0x0000000000000000000000006e0ebd61bba609d973107ce9ca956c0fae22d8d3",
                    "decodedMethod": {
                        "callParams": [
                            {
                                "name": "_addr",
                                "type": "address",
                                "value": "0x6e0ebd61bba609d973107ce9ca956c0fae22d8d3"
                            }
                        ],
                        "constructorArguments": "",
                        "name": "balanceOf",
                        "returnParams": [
                            {
                                "decimalAvailable": true,
                                "name": "",
                                "type": "uint256",
                                "value": "0"
                            }
                        ],
                        "signature": "balanceOf(address)"
                    },
                    "errorInfo": "",
                    "fromAddress": "0x11111112542d85b3ef69ae05771c2dccff4faa26",
                    "gasUsed": 10115,
                    "id": 1,
                    "methodDecoded": true,
                    "operation": "STATICCALL",
                    "output": "0x0000000000000000000000000000000000000000000000000000000000000000",
                    "revert": true,
                    "revertMessage": "",
                    "selector": "0x70a08231",
                    "status": true,
                    "value": "0"
                },
                "nodeType": 0
            },
            "10": {
                "invocation": {
                    "address": "0xc02aaa39b223fe8d0a0e5c4f27ead9083c756cc2",
                    "callData": "0x0000000000000000000000004ff7e1e713e30b0d1fb9cd00477cef399ff9d493",
                    "decodedMethod": {
                        "callParams": [
                            {
                                "name": "",
                                "type": "address",
                                "value": "0x4ff7e1e713e30b0d1fb9cd00477cef399ff9d493"
                            }
                        ],
                        "constructorArguments": "",
                        "name": "balanceOf",
                        "returnParams": [
                            {
                                "decimalAvailable": true,
                                "name": "",
                                "type": "uint256",
                                "value": "1,231,808,403,035,078,023"
                            }
                        ],
                        "signature": "balanceOf(address)"
                    },
                    "errorInfo": "",
                    "fromAddress": "0x4ff7e1e713e30b0d1fb9cd00477cef399ff9d493",
                    "gasUsed": 2534,
                    "id": 10,
                    "methodDecoded": true,
                    "operation": "STATICCALL",
                    "output": "0x00000000000000000000000000000000000000000000000011184337563f3d87",
                    "revert": true,
                    "revertMessage": "",
                    "selector": "0x70a08231",
                    "status": true,
                    "value": "0"
                },
                "nodeType": 0
            },
            "11": {
                "invocation": {
                    "address": "0x27239549dd40e1d60f5b80b0c4196923745b1fd2",
                    "callData": "0xfffffffffffffffffffffffffffffffffffffffffffffffa5c8c9737557efbc600000000000000000000000000000000000000000000000000d2100b39399f00000000000000000000000000000000000000000000000000000000000000006000000000000000000000000000000000000000000000000000000000000000400000000000000000000000004fabb145d64652a948d72533023f6e7a623c7c53000000000000000000000000c02aaa39b223fe8d0a0e5c4f27ead9083c756cc2",
                    "decodedMethod": {
                        "callParams": [
                            {
                                "name": "amount0Delta",
                                "type": "int256",
                                "value": "-104,011,593,030,115,066,938"
                            },
                            {
                                "name": "amount1Delta",
                                "type": "int256",
                                "value": "59,127,385,500,000,000"
                            },
                            {
                                "name": "data",
                                "type": "bytes",
                                "value": "0x0000000000000000000000004fabb145d64652a948d72533023f6e7a623c7c53000000000000000000000000c02aaa39b223fe8d0a0e5c4f27ead9083c756cc2"
                            }
                        ],
                        "constructorArguments": "",
                        "name": "uniswapV3SwapCallback",
                        "returnParams": [],
                        "signature": "uniswapV3SwapCallback(int256,int256,bytes)"
                    },
                    "errorInfo": "",
                    "fromAddress": "0x4ff7e1e713e30b0d1fb9cd00477cef399ff9d493",
                    "gasUsed": 8236,
                    "id": 11,
                    "methodDecoded": true,
                    "operation": "CALL",
                    "output": "",
                    "revert": true,
                    "revertMessage": "",
                    "selector": "0xfa461e33",
                    "status": true,
                    "value": "0"
                },
                "nodeType": 0
            },
            "12": {
                "invocation": {
                    "address": "0xc02aaa39b223fe8d0a0e5c4f27ead9083c756cc2",
                    "callData": "0x0000000000000000000000004ff7e1e713e30b0d1fb9cd00477cef399ff9d49300000000000000000000000000000000000000000000000000d2100b39399f00",
                    "decodedMethod": {
                        "callParams": [
                            {
                                "name": "dst",
                                "type": "address",
                                "value": "0x4ff7e1e713e30b0d1fb9cd00477cef399ff9d493"
                            },
                            {
                                "decimalAvailable": true,
                                "name": "wad",
                                "type": "uint256",
                                "value": "59,127,385,500,000,000"
                            }
                        ],
                        "constructorArguments": "",
                        "name": "transfer",
                        "returnParams": [
                            {
                                "name": "",
                                "type": "bool",
                                "value": true
                            }
                        ],
                        "signature": "transfer(address,uint256)"
                    },
                    "errorInfo": "",
                    "fromAddress": "0x27239549dd40e1d60f5b80b0c4196923745b1fd2",
                    "gasUsed": 6062,
                    "id": 12,
                    "methodDecoded": true,
                    "operation": "CALL",
                    "output": "0x0000000000000000000000000000000000000000000000000000000000000001",
                    "revert": true,
                    "revertMessage": "",
                    "selector": "0xa9059cbb",
                    "status": true,
                    "value": "0"
                },
                "nodeType": 0
            },
            "13": {
                "event": {
                    "contract": "0xc02aaa39b223fe8d0a0e5c4f27ead9083c756cc2",
                    "decodedLog": {
                        "name": "Transfer",
                        "params": [
                            {
                                "name": "src",
                                "type": "address",
                                "value": "0x27239549dd40e1d60f5b80b0c4196923745b1fd2"
                            },
                            {
                                "name": "dst",
                                "type": "address",
                                "value": "0x4ff7e1e713e30b0d1fb9cd00477cef399ff9d493"
                            },
                            {
                                "decimalAvailable": true,
                                "name": "wad",
                                "type": "uint256",
                                "value": "59,127,385,500,000,000"
                            }
                        ],
                        "signature": "Transfer(address,address,uint256)"
                    },
                    "id": 13,
                    "logData": "0x00000000000000000000000000000000000000000000000000d2100b39399f00",
                    "logDecoded": true,
                    "operation": "EVENT",
                    "revert": true,
                    "status": false,
                    "topics": [
                        "0xddf252ad1be2c89b69c2b068fc378daa952ba7f163c4a11628f55a4df523b3ef",
                        "0x00000000000000000000000027239549dd40e1d60f5b80b0c4196923745b1fd2",
                        "0x0000000000000000000000004ff7e1e713e30b0d1fb9cd00477cef399ff9d493"
                    ]
                },
                "nodeType": 1
            },
            "14": {
                "invocation": {
                    "address": "0xc02aaa39b223fe8d0a0e5c4f27ead9083c756cc2",
                    "callData": "0x0000000000000000000000004ff7e1e713e30b0d1fb9cd00477cef399ff9d493",
                    "decodedMethod": {
                        "callParams": [
                            {
                                "name": "",
                                "type": "address",
                                "value": "0x4ff7e1e713e30b0d1fb9cd00477cef399ff9d493"
                            }
                        ],
                        "constructorArguments": "",
                        "name": "balanceOf",
                        "returnParams": [
                            {
                                "decimalAvailable": true,
                                "name": "",
                                "type": "uint256",
                                "value": "1,290,935,788,535,078,023"
                            }
                        ],
                        "signature": "balanceOf(address)"
                    },
                    "errorInfo": "",
                    "fromAddress": "0x4ff7e1e713e30b0d1fb9cd00477cef399ff9d493",
                    "gasUsed": 534,
                    "id": 14,
                    "methodDecoded": true,
                    "operation": "STATICCALL",
                    "output": "0x00000000000000000000000000000000000000000000000011ea53428f78dc87",
                    "revert": true,
                    "revertMessage": "",
                    "selector": "0x70a08231",
                    "status": true,
                    "value": "0"
                },
                "nodeType": 0
            },
            "15": {
                "event": {
                    "contract": "0x4ff7e1e713e30b0d1fb9cd00477cef399ff9d493",
                    "decodedLog": {
                        "name": "Swap",
                        "params": [
                            {
                                "name": "sender",
                                "type": "address",
                                "value": "0x27239549dd40e1d60f5b80b0c4196923745b1fd2"
                            },
                            {
                                "name": "recipient",
                                "type": "address",
                                "value": "0x6e0ebd61bba609d973107ce9ca956c0fae22d8d3"
                            },
                            {
                                "name": "amount0",
                                "type": "int256",
                                "value": "-104,011,593,030,115,066,938"
                            },
                            {
                                "name": "amount1",
                                "type": "int256",
                                "value": "59,127,385,500,000,000"
                            },
                            {
                                "name": "sqrtPriceX96",
                                "type": "uint160",
                                "value": "1,997,480,243,423,872,297,122,703,351"
                            },
                            {
                                "name": "liquidity",
                                "type": "uint128",
                                "value": "20,258,697,616,893,406,971"
                            },
                            {
                                "name": "tick",
                                "type": "int24",
                                "value": "-73,613"
                            }
                        ],
                        "signature": "Swap(address,address,int256,int256,uint160,uint128,int24)"
                    },
                    "id": 15,
                    "logData": "0xfffffffffffffffffffffffffffffffffffffffffffffffa5c8c9737557efbc600000000000000000000000000000000000000000000000000d2100b39399f000000000000000000000000000000000000000000067446e4f889bed6010ca7f700000000000000000000000000000000000000000000000119255a25bafbeefbfffffffffffffffffffffffffffffffffffffffffffffffffffffffffffee073",
                    "logDecoded": true,
                    "operation": "EVENT",
                    "revert": true,
                    "status": false,
                    "topics": [
                        "0xc42079f94a6350d7e6235f29174924f928cc2ac818eb64fed8004e115fbcca67",
                        "0x00000000000000000000000027239549dd40e1d60f5b80b0c4196923745b1fd2",
                        "0x0000000000000000000000006e0ebd61bba609d973107ce9ca956c0fae22d8d3"
                    ]
                },
                "nodeType": 1
            },
            "16": {
                "invocation": {
                    "address": "0x4fabb145d64652a948d72533023f6e7a623c7c53",
                    "callData": "0x0000000000000000000000006e0ebd61bba609d973107ce9ca956c0fae22d8d3",
                    "decodedMethod": {
                        "callParams": [
                            {
                                "name": "_addr",
                                "type": "address",
                                "value": "0x6e0ebd61bba609d973107ce9ca956c0fae22d8d3"
                            }
                        ],
                        "constructorArguments": "",
                        "name": "balanceOf",
                        "returnParams": [
                            {
                                "decimalAvailable": true,
                                "name": "",
                                "type": "uint256",
                                "value": "104,011,593,030,115,066,938"
                            }
                        ],
                        "signature": "balanceOf(address)"
                    },
                    "errorInfo": "",
                    "fromAddress": "0x11111112542d85b3ef69ae05771c2dccff4faa26",
                    "gasUsed": 1615,
                    "id": 16,
                    "methodDecoded": true,
                    "operation": "STATICCALL",
                    "output": "0x000000000000000000000000000000000000000000000005a37368c8aa81043a",
                    "revert": true,
                    "revertMessage": "",
                    "selector": "0x70a08231",
                    "status": true,
                    "value": "0"
                },
                "nodeType": 0
            },
            "17": {
                "invocation": {
                    "address": "0x5864c777697bf9881220328bf2f16908c9afcd7e",
                    "callData": "0x0000000000000000000000006e0ebd61bba609d973107ce9ca956c0fae22d8d3",
                    "decodedMethod": {
                        "callParams": [
                            {
                                "name": "_addr",
                                "type": "address",
                                "value": "0x6e0ebd61bba609d973107ce9ca956c0fae22d8d3"
                            }
                        ],
                        "constructorArguments": "",
                        "name": "balanceOf",
                        "returnParams": [
                            {
                                "decimalAvailable": true,
                                "name": "",
                                "type": "uint256",
                                "value": "104,011,593,030,115,066,938"
                            }
                        ],
                        "signature": "balanceOf(address)"
                    },
                    "errorInfo": "",
                    "fromAddress": "0x4fabb145d64652a948d72533023f6e7a623c7c53",
                    "gasUsed": 836,
                    "id": 17,
                    "methodDecoded": true,
                    "operation": "DELEGATECALL",
                    "output": "0x000000000000000000000000000000000000000000000005a37368c8aa81043a",
                    "revert": true,
                    "revertMessage": "",
                    "selector": "0x70a08231",
                    "status": true,
                    "value": "0"
                },
                "nodeType": 0
            },
            "2": {
                "invocation": {
                    "address": "0x5864c777697bf9881220328bf2f16908c9afcd7e",
                    "callData": "0x0000000000000000000000006e0ebd61bba609d973107ce9ca956c0fae22d8d3",
                    "decodedMethod": {
                        "callParams": [
                            {
                                "name": "_addr",
                                "type": "address",
                                "value": "0x6e0ebd61bba609d973107ce9ca956c0fae22d8d3"
                            }
                        ],
                        "constructorArguments": "",
                        "name": "balanceOf",
                        "returnParams": [
                            {
                                "decimalAvailable": true,
                                "name": "",
                                "type": "uint256",
                                "value": "0"
                            }
                        ],
                        "signature": "balanceOf(address)"
                    },
                    "errorInfo": "",
                    "fromAddress": "0x4fabb145d64652a948d72533023f6e7a623c7c53",
                    "gasUsed": 2836,
                    "id": 2,
                    "methodDecoded": true,
                    "operation": "DELEGATECALL",
                    "output": "0x0000000000000000000000000000000000000000000000000000000000000000",
                    "revert": true,
                    "revertMessage": "",
                    "selector": "0x70a08231",
                    "status": true,
                    "value": "0"
                },
                "nodeType": 0
            },
            "3": {
                "invocation": {
                    "address": "0x27239549dd40e1d60f5b80b0c4196923745b1fd2",
                    "callData": "0x0000000000000000000000000000000000000000000000000000000000000020000000000000000000000000000000000000000000000000000000000000000200000000000000000000000000000000000000000000000000000000000000400000000000000000000000000000000000000000000000000000000000000100000000000000000000000000c02aaa39b223fe8d0a0e5c4f27ead9083c756cc2000000000000000000000000000000000000000000000000000000000000000000000000000000000000000000000000000000000000000000d2100b39399f0000000000000000000000000000000000000000000000000000000000000000800000000000000000000000000000000000000000000000000000000000000004d0e30db0000000000000000000000000000000000000000000000000000000008000000000000000000000004ff7e1e713e30b0d1fb9cd00477cef399ff9d4930000000000000000000000000000000000000000000000000000000000000000000000000000000000000000000000000000000000000000000000000000000000000000000000000000000000000000000000000000000000000000000000800000000000000000000000000000000000000000000000000000000000000104128acb080000000000000000000000006e0ebd61bba609d973107ce9ca956c0fae22d8d3000000000000000000000000000000000000000000000000000000000000000000000000000000000000000000000000000000000000000000d2100b39399f00000000000000000000000000fffd8963efd1fc6a506488495d951d5263988d2500000000000000000000000000000000000000000000000000000000000000a000000000000000000000000000000000000000000000000000000000000000400000000000000000000000004fabb145d64652a948d72533023f6e7a623c7c53000000000000000000000000c02aaa39b223fe8d0a0e5c4f27ead9083c756cc200000000000000000000000000000000000000000000000000000000",
                    "decodedMethod": {
                        "callParams": [
                            {
                                "name": "callerCallData",
                                "type": "bytes",
                                "value": "0x0000"
                            }
                        ],
                        "constructorArguments": "",
                        "name": "callBytes",
                        "returnParams": [],
                        "signature": "callBytes(bytes)"
                    },
                    "errorInfo": "",
                    "fromAddress": "0x11111112542d85b3ef69ae05771c2dccff4faa26",
                    "gasUsed": 126223,
                    "id": 3,
                    "methodDecoded": true,
                    "operation": "CALL",
                    "output": "",
                    "revert": true,
                    "revertMessage": "",
                    "selector": "0xd9c45357",
                    "status": true,
                    "value": "0.0591273855"
                },
                "nodeType": 0
            },
            "4": {
                "invocation": {
                    "address": "0xc02aaa39b223fe8d0a0e5c4f27ead9083c756cc2",
                    "callData": "0x",
                    "decodedMethod": {
                        "callParams": [],
                        "constructorArguments": "",
                        "name": "deposit",
                        "returnParams": [],
                        "signature": "deposit()"
                    },
                    "errorInfo": "",
                    "fromAddress": "0x27239549dd40e1d60f5b80b0c4196923745b1fd2",
                    "gasUsed": 23974,
                    "id": 4,
                    "methodDecoded": true,
                    "operation": "CALL",
                    "output": "",
                    "revert": true,
                    "revertMessage": "",
                    "selector": "0xd0e30db0",
                    "status": true,
                    "value": "0.0591273855"
                },
                "nodeType": 0
            },
            "5": {
                "event": {
                    "contract": "0xc02aaa39b223fe8d0a0e5c4f27ead9083c756cc2",
                    "decodedLog": {
                        "name": "Deposit",
                        "params": [
                            {
                                "name": "dst",
                                "type": "address",
                                "value": "0x27239549dd40e1d60f5b80b0c4196923745b1fd2"
                            },
                            {
                                "name": "wad",
                                "type": "uint256",
                                "value": "59,127,385,500,000,000"
                            }
                        ],
                        "signature": "Deposit(address,uint256)"
                    },
                    "id": 5,
                    "logData": "0x00000000000000000000000000000000000000000000000000d2100b39399f00",
                    "logDecoded": true,
                    "operation": "EVENT",
                    "revert": true,
                    "status": false,
                    "topics": [
                        "0xe1fffcc4923d04b559f4d29a8bfc6cda04eb5b0d3c460751c2402c5c5cc9109c",
                        "0x00000000000000000000000027239549dd40e1d60f5b80b0c4196923745b1fd2"
                    ]
                },
                "nodeType": 1
            },
            "6": {
                "invocation": {
                    "address": "0x4ff7e1e713e30b0d1fb9cd00477cef399ff9d493",
                    "callData": "0x0000000000000000000000006e0ebd61bba609d973107ce9ca956c0fae22d8d3000000000000000000000000000000000000000000000000000000000000000000000000000000000000000000000000000000000000000000d2100b39399f00000000000000000000000000fffd8963efd1fc6a506488495d951d5263988d2500000000000000000000000000000000000000000000000000000000000000a000000000000000000000000000000000000000000000000000000000000000400000000000000000000000004fabb145d64652a948d72533023f6e7a623c7c53000000000000000000000000c02aaa39b223fe8d0a0e5c4f27ead9083c756cc2",
                    "decodedMethod": {
                        "callParams": [
                            {
                                "name": "recipient",
                                "type": "address",
                                "value": "0x6e0ebd61bba609d973107ce9ca956c0fae22d8d3"
                            },
                            {
                                "name": "zeroForOne",
                                "type": "bool",
                                "value": false
                            },
                            {
                                "name": "amountSpecified",
                                "type": "int256",
                                "value": "59,127,385,500,000,000"
                            },
                            {
                                "name": "sqrtPriceLimitX96",
                                "type": "uint160",
                                "value": "1,461,446,703,485,210,103,287,273,052,203,988,822,378,723,970,341"
                            },
                            {
                                "name": "data",
                                "type": "bytes",
                                "value": "0x0000000000000000000000004fabb145d64652a948d72533023f6e7a623c7c53000000000000000000000000c02aaa39b223fe8d0a0e5c4f27ead9083c756cc2"
                            }
                        ],
                        "constructorArguments": "",
                        "name": "swap",
                        "returnParams": [
                            {
                                "name": "amount0",
                                "type": "int256",
                                "value": "-104,011,593,030,115,066,938"
                            },
                            {
                                "name": "amount1",
                                "type": "int256",
                                "value": "59,127,385,500,000,000"
                            }
                        ],
                        "signature": "swap(address,bool,int256,uint160,bytes)"
                    },
                    "errorInfo": "",
                    "fromAddress": "0x27239549dd40e1d60f5b80b0c4196923745b1fd2",
                    "gasUsed": 88184,
                    "id": 6,
                    "methodDecoded": true,
                    "operation": "CALL",
                    "output": "0xfffffffffffffffffffffffffffffffffffffffffffffffa5c8c9737557efbc600000000000000000000000000000000000000000000000000d2100b39399f00",
                    "revert": true,
                    "revertMessage": "",
                    "selector": "0x128acb08",
                    "status": true,
                    "value": "0"
                },
                "nodeType": 0
            },
            "7": {
                "invocation": {
                    "address": "0x4fabb145d64652a948d72533023f6e7a623c7c53",
                    "callData": "0x0000000000000000000000006e0ebd61bba609d973107ce9ca956c0fae22d8d3000000000000000000000000000000000000000000000005a37368c8aa81043a",
                    "decodedMethod": {
                        "callParams": [
                            {
                                "name": "_to",
                                "type": "address",
                                "value": "0x6e0ebd61bba609d973107ce9ca956c0fae22d8d3"
                            },
                            {
                                "decimalAvailable": true,
                                "name": "_value",
                                "type": "uint256",
                                "value": "104,011,593,030,115,066,938"
                            }
                        ],
                        "constructorArguments": "",
                        "name": "transfer",
                        "returnParams": [
                            {
                                "name": "",
                                "type": "bool",
                                "value": true
                            }
                        ],
                        "signature": "transfer(address,uint256)"
                    },
                    "errorInfo": "",
                    "fromAddress": "0x4ff7e1e713e30b0d1fb9cd00477cef399ff9d493",
                    "gasUsed": 36179,
                    "id": 7,
                    "methodDecoded": true,
                    "operation": "CALL",
                    "output": "0x0000000000000000000000000000000000000000000000000000000000000001",
                    "revert": true,
                    "revertMessage": "",
                    "selector": "0xa9059cbb",
                    "status": true,
                    "value": "0"
                },
                "nodeType": 0
            },
            "8": {
                "invocation": {
                    "address": "0x5864c777697bf9881220328bf2f16908c9afcd7e",
                    "callData": "0x0000000000000000000000006e0ebd61bba609d973107ce9ca956c0fae22d8d3000000000000000000000000000000000000000000000005a37368c8aa81043a",
                    "decodedMethod": {
                        "callParams": [
                            {
                                "name": "_to",
                                "type": "address",
                                "value": "0x6e0ebd61bba609d973107ce9ca956c0fae22d8d3"
                            },
                            {
                                "decimalAvailable": true,
                                "name": "_value",
                                "type": "uint256",
                                "value": "104,011,593,030,115,066,938"
                            }
                        ],
                        "constructorArguments": "",
                        "name": "transfer",
                        "returnParams": [
                            {
                                "name": "",
                                "type": "bool",
                                "value": true
                            }
                        ],
                        "signature": "transfer(address,uint256)"
                    },
                    "errorInfo": "",
                    "fromAddress": "0x4fabb145d64652a948d72533023f6e7a623c7c53",
                    "gasUsed": 35397,
                    "id": 8,
                    "methodDecoded": true,
                    "operation": "DELEGATECALL",
                    "output": "0x0000000000000000000000000000000000000000000000000000000000000001",
                    "revert": true,
                    "revertMessage": "",
                    "selector": "0xa9059cbb",
                    "status": true,
                    "value": "0"
                },
                "nodeType": 0
            },
            "9": {
                "event": {
                    "contract": "0x4fabb145d64652a948d72533023f6e7a623c7c53",
                    "decodedLog": {
                        "name": "Transfer",
                        "params": [
                            {
                                "name": "from",
                                "type": "address",
                                "value": "0x4ff7e1e713e30b0d1fb9cd00477cef399ff9d493"
                            },
                            {
                                "name": "to",
                                "type": "address",
                                "value": "0x6e0ebd61bba609d973107ce9ca956c0fae22d8d3"
                            },
                            {
                                "decimalAvailable": true,
                                "name": "value",
                                "type": "uint256",
                                "value": "104,011,593,030,115,066,938"
                            }
                        ],
                        "signature": "Transfer(address,address,uint256)"
                    },
                    "id": 9,
                    "logData": "0x000000000000000000000000000000000000000000000005a37368c8aa81043a",
                    "logDecoded": true,
                    "operation": "EVENT",
                    "revert": true,
                    "status": false,
                    "topics": [
                        "0xddf252ad1be2c89b69c2b068fc378daa952ba7f163c4a11628f55a4df523b3ef",
                        "0x0000000000000000000000004ff7e1e713e30b0d1fb9cd00477cef399ff9d493",
                        "0x0000000000000000000000006e0ebd61bba609d973107ce9ca956c0fae22d8d3"
                    ]
                },
                "nodeType": 1
            }
        },
        "gasFlame": [
            {
                "children": [
                    {
                        "children": [
                            {
                                "children": [],
                                "depth": 0,
                                "name": "Initial Gas",
                                "value": 29104
                            },
                            {
                                "children": [
                                    {
                                        "children": [
                                            {
                                                "children": [],
                                                "depth": 2,
                                                "name": "balanceOf",
                                                "value": 2836
                                            }
                                        ],
                                        "depth": 1,
                                        "name": "balanceOf",
                                        "value": 10115
                                    },
                                    {
                                        "children": [
                                            {
                                                "children": [],
                                                "depth": 2,
                                                "name": "deposit",
                                                "value": 23974
                                            },
                                            {
                                                "children": [
                                                    {
                                                        "children": [
                                                            {
                                                                "children": [],
                                                                "depth": 4,
                                                                "name": "transfer",
                                                                "value": 35397
                                                            }
                                                        ],
                                                        "depth": 3,
                                                        "name": "transfer",
                                                        "value": 36179
                                                    },
                                                    {
                                                        "children": [],
                                                        "depth": 3,
                                                        "name": "balanceOf",
                                                        "value": 2534
                                                    },
                                                    {
                                                        "children": [
                                                            {
                                                                "children": [],
                                                                "depth": 4,
                                                                "name": "transfer",
                                                                "value": 6062
                                                            }
                                                        ],
                                                        "depth": 3,
                                                        "name": "uniswapV3SwapCallback",
                                                        "value": 8236
                                                    },
                                                    {
                                                        "children": [],
                                                        "depth": 3,
                                                        "name": "balanceOf",
                                                        "value": 534
                                                    }
                                                ],
                                                "depth": 2,
                                                "name": "swap",
                                                "value": 88184
                                            }
                                        ],
                                        "depth": 1,
                                        "name": "callBytes",
                                        "value": 126223
                                    },
                                    {
                                        "children": [
                                            {
                                                "children": [],
                                                "depth": 2,
                                                "name": "balanceOf",
                                                "value": 836
                                            }
                                        ],
                                        "depth": 1,
                                        "name": "balanceOf",
                                        "value": 1615
                                    }
                                ],
                                "depth": 0,
                                "name": "Executed Gas",
                                "value": 155347
                            }
                        ],
                        "depth": -1,
                        "name": "Actual Gas Used",
                        "value": 184451
                    },
                    {
                        "children": [],
                        "depth": -1,
                        "name": "Refunded Gas",
                        "value": 0
                    }
                ],
                "depth": -2,
                "name": "Total Gas",
                "value": 184451
            }
        ],
        "isConfirmed": true,
        "mainTrace": [
            {
                "children": [
                    {
                        "children": [
                            {
                                "children": [
                                    {
                                        "children": [],
                                        "depth": 2,
                                        "id": 2,
                                        "order": 2
                                    }
                                ],
                                "depth": 1,
                                "id": 1,
                                "order": 1
                            },
                            {
                                "children": [
                                    {
                                        "children": [
                                            {
                                                "children": [],
                                                "depth": 3,
                                                "id": 5,
                                                "order": 5
                                            }
                                        ],
                                        "depth": 2,
                                        "id": 4,
                                        "order": 4
                                    },
                                    {
                                        "children": [
                                            {
                                                "children": [
                                                    {
                                                        "children": [
                                                            {
                                                                "children": [],
                                                                "depth": 5,
                                                                "id": 9,
                                                                "order": 9
                                                            }
                                                        ],
                                                        "depth": 4,
                                                        "id": 8,
                                                        "order": 8
                                                    }
                                                ],
                                                "depth": 3,
                                                "id": 7,
                                                "order": 7
                                            },
                                            {
                                                "children": [],
                                                "depth": 3,
                                                "id": 10,
                                                "order": 10
                                            },
                                            {
                                                "children": [
                                                    {
                                                        "children": [
                                                            {
                                                                "children": [],
                                                                "depth": 5,
                                                                "id": 13,
                                                                "order": 13
                                                            }
                                                        ],
                                                        "depth": 4,
                                                        "id": 12,
                                                        "order": 12
                                                    }
                                                ],
                                                "depth": 3,
                                                "id": 11,
                                                "order": 11
                                            },
                                            {
                                                "children": [],
                                                "depth": 3,
                                                "id": 14,
                                                "order": 14
                                            },
                                            {
                                                "children": [],
                                                "depth": 3,
                                                "id": 15,
                                                "order": 15
                                            }
                                        ],
                                        "depth": 2,
                                        "id": 6,
                                        "order": 6
                                    }
                                ],
                                "depth": 1,
                                "id": 3,
                                "order": 3
                            },
                            {
                                "children": [
                                    {
                                        "children": [],
                                        "depth": 2,
                                        "id": 17,
                                        "order": 17
                                    }
                                ],
                                "depth": 1,
                                "id": 16,
                                "order": 16
                            }
                        ],
                        "depth": 0,
                        "id": 0,
                        "order": 0
                    }
                ],
                "depth": -1,
                "id": -1,
                "order": -1
            }
        ],
        "mainTraceNodeCount": 18,
        "parentIdMap": {
            "0": -1,
            "1": 0,
            "10": 6,
            "11": 6,
            "12": 11,
            "13": 12,
            "14": 6,
            "15": 6,
            "16": 0,
            "17": 16,
            "2": 1,
            "3": 0,
            "4": 3,
            "5": 4,
            "6": 3,
            "7": 6,
            "8": 7,
            "9": 8
        },
        "tidyTrace": [
            {
                "children": [
                    {
                        "children": [
                            {
                                "children": [
                                    {
                                        "children": [
                                            {
                                                "children": [],
                                                "depth": 3,
                                                "id": 5,
                                                "order": 5
                                            }
                                        ],
                                        "depth": 2,
                                        "id": 4,
                                        "order": 4
                                    },
                                    {
                                        "children": [
                                            {
                                                "children": [
                                                    {
                                                        "children": [
                                                            {
                                                                "children": [],
                                                                "depth": 5,
                                                                "id": 9,
                                                                "order": 9
                                                            }
                                                        ],
                                                        "depth": 4,
                                                        "id": 8,
                                                        "order": 8
                                                    }
                                                ],
                                                "depth": 3,
                                                "id": 7,
                                                "order": 7
                                            },
                                            {
                                                "children": [
                                                    {
                                                        "children": [
                                                            {
                                                                "children": [],
                                                                "depth": 5,
                                                                "id": 13,
                                                                "order": 13
                                                            }
                                                        ],
                                                        "depth": 4,
                                                        "id": 12,
                                                        "order": 12
                                                    }
                                                ],
                                                "depth": 3,
                                                "id": 11,
                                                "order": 11
                                            },
                                            {
                                                "children": [],
                                                "depth": 3,
                                                "id": 15,
                                                "order": 15
                                            }
                                        ],
                                        "depth": 2,
                                        "id": 6,
                                        "order": 6
                                    }
                                ],
                                "depth": 1,
                                "id": 3,
                                "order": 3
                            }
                        ],
                        "depth": 0,
                        "id": 0,
                        "order": 0
                    }
                ],
                "depth": -1,
                "id": -1,
                "order": -1
            }
        ],
        "tidyTraceNodeCount": 12
    },
    "state_change": {
        "stateChanges": []
    }
}