{
    "balance_change": {
        "balanceChanges": [
            {
                "account": "0x6046c33e88d6db26885a63718a8e4a7c410e113c",
                "assets": [
                    {
                        "address": "0x8ce9137d39326ad0cd6491fb5cc0cba0e089b6a9",
                        "amount": "23.084691",
                        "iconUrl": "https://assets.blocksec.com/icon/c68b883f9349347d4da9eb968ec35cf721ee7e3f33954751ef5cf0c53af48d85.png",
                        "isERC1155": false,
                        "isERC721": false,
                        "sign": false,
                        "value": ""
                    }
                ]
            },
            {
                "account": "0x1d18a832343651709bb5ddf4030de4512c50690e",
                "assets": [
                    {
                        "address": "0x8ce9137d39326ad0cd6491fb5cc0cba0e089b6a9",
                        "amount": "23.084691",
                        "iconUrl": "https://assets.blocksec.com/icon/c68b883f9349347d4da9eb968ec35cf721ee7e3f33954751ef5cf0c53af48d85.png",
                        "isERC1155": false,
                        "isERC721": false,
                        "sign": true,
                        "value": ""
                    }
                ]
            }
        ]
    },
    "profile": {
        "basic_info": {
            "baseFee": "",
            "blockNumber": 9268628,
            "callData": "0xa9059cbb0000000000000000000000001d18a832343651709bb5ddf4030de4512c50690e000000000000000000000000000000000000000000000001405d4c2814a83000",
            "debugEnable": true,
            "errorInfo": "",
            "eventCount": 1,
            "feeRecipient": "0xea674fdde714fd979de3edf0f56aa9716b898ec8",
            "formatValue": "0",
            "gasLimit": 100000,
            "gasPrice": "30",
            "gasUsed": 38138,
            "intTxnCount": 0,
            "internalRevert": false,
            "internalRevertMessage": "",
            "isContractCreation": false,
            "isFlashloan": false,
            "maxFee": "",
            "nonce": 1330,
            "overwritedBlockNumber": -1,
            "priorityFee": "",
            "receiver": "0x8ce9137d39326ad0cd6491fb5cc0cba0e089b6a9",
            "revertMessage": "",
            "sender": "0x6046c33e88d6db26885a63718a8e4a7c410e113c",
            "simulationEnable": true,
            "sourceTxnHash": "0x7c0b59038742d2d046d32f64d8f8aff4323288ab69362c19f7187c2689a53d48",
            "status": true,
            "timestamp": "2020-01-12T21:44:42Z",
            "transactionFee": "0.00114414",
            "txnHash": "0x7c0b59038742d2d046d32f64d8f8aff4323288ab69362c19f7187c2689a53d48",
            "txnIndex": 0,
            "type": 0,
            "value": "0"
        },
        "fund_flow": [
            {
                "amount": "23.084691",
                "from": "0x6046c33e88d6db26885a63718a8e4a7c410e113c",
                "id": 1,
                "isERC1155": false,
                "isERC721": false,
                "isReverted": false,
                "order": 1,
                "to": "0x1d18a832343651709bb5ddf4030de4512c50690e",
                "token": "0x8ce9137d39326ad0cd6491fb5cc0cba0e089b6a9"
            }
        ],
        "token_infos": [
            {
                "address": "0x8ce9137d39326ad0cd6491fb5cc0cba0e089b6a9",
                "decimals": 18
            },
            {
                "address": "0xc02aaa39b223fe8d0a0e5c4f27ead9083c756cc2",
                "decimals": 18
            },
            {
                "address": "0xeeeeeeeeeeeeeeeeeeeeeeeeeeeeeeeeeeeeeeee",
                "decimals": 18
            }
        ]
    },
    "address_label": {
        "labels": [
            {
                "address": "0xeeeeeeeeeeeeeeeeeeeeeeeeeeeeeeeeeeeeeeee",
                "label": "Ether"
            },
            {
                "address": "0x8ce9137d39326ad0cd6491fb5cc0cba0e089b6a9",
                "label": "Swipe: SXP Token"
            },
            {
                "address": "0x0000000000000000000000000000000000000001",
                "label": "Precompiled"
            },
            {
                "address": "0x0000000000000000000000000000000000000002",
                "label": "Precompiled"
            },
            {
                "address": "0x0000000000000000000000000000000000000003",
                "label": "Precompiled"
            },
            {
                "address": "0x0000000000000000000000000000000000000004",
                "label": "Precompiled"
            }
        ]
    },
    "trace": {
        "accountLabels": null,
        "dataMap": {
            "-1": {
                "invocation": {
                    "address": "0x6046c33e88d6db26885a63718a8e4a7c410e113c",
                    "callData": "",
                    "decodedMethod": null,
                    "errorInfo": "",
                    "fromAddress": "",
                    "gasUsed": 0,
                    "id": -1,
                    "methodDecoded": false,
                    "operation": "",
                    "output": "",
                    "revert": false,
                    "revertMessage": "",
                    "selector": "",
                    "status": false,
                    "value": ""
                },
                "nodeType": 0
            },
            "0": {
                "invocation": {
                    "address": "0x8ce9137d39326ad0cd6491fb5cc0cba0e089b6a9",
                    "callData": "0x0000000000000000000000001d18a832343651709bb5ddf4030de4512c50690e000000000000000000000000000000000000000000000001405d4c2814a83000",
                    "decodedMethod": {
                        "callParams": [
                            {
                                "name": "to",
                                "type": "address",
                                "value": "0x1d18a832343651709bb5ddf4030de4512c50690e"
                            },
                            {
                                "decimalAvailable": true,
                                "name": "tokens",
                                "type": "uint256",
                                "value": "23,084,691,000,000,000,000"
                            }
                        ],
                        "constructorArguments": "",
                        "name": "transfer",
                        "returnParams": [
                            {
                                "name": "success",
                                "type": "bool",
                                "value": true
                            }
                        ],
                        "signature": "transfer(address,uint256)"
                    },
                    "errorInfo": "",
                    "fromAddress": "0x6046c33e88d6db26885a63718a8e4a7c410e113c",
                    "gasUsed": 38138,
                    "id": 0,
                    "methodDecoded": true,
                    "operation": "CALL",
                    "output": "0x0000000000000000000000000000000000000000000000000000000000000001",
                    "revert": false,
                    "revertMessage": "",
                    "selector": "0xa9059cbb",
                    "status": true,
                    "value": "0"
                },
                "nodeType": 0
            },
            "1": {
                "event": {
                    "contract": "0x8ce9137d39326ad0cd6491fb5cc0cba0e089b6a9",
                    "decodedLog": {
                        "name": "Transfer",
                        "params": [
                            {
                                "name": "from",
                                "type": "address",
                                "value": "0x6046c33e88d6db26885a63718a8e4a7c410e113c"
                            },
                            {
                                "name": "to",
                                "type": "address",
                                "value": "0x1d18a832343651709bb5ddf4030de4512c50690e"
                            },
                            {
                                "decimalAvailable": true,
                                "name": "tokens",
                                "type": "uint256",
                                "value": "23,084,691,000,000,000,000"
                            }
                        ],
                        "signature": "Transfer(address,address,uint256)"
                    },
                    "id": 1,
                    "logData": "0x000000000000000000000000000000000000000000000001405d4c2814a83000",
                    "logDecoded": true,
                    "operation": "EVENT",
                    "revert": false,
                    "status": true,
                    "topics": [
                        "0xddf252ad1be2c89b69c2b068fc378daa952ba7f163c4a11628f55a4df523b3ef",
                        "0x0000000000000000000000006046c33e88d6db26885a63718a8e4a7c410e113c",
                        "0x0000000000000000000000001d18a832343651709bb5ddf4030de4512c50690e"
                    ]
                },
                "nodeType": 1
            }
        },
        "gasFlame": [
            {
                "children": [
                    {
                        "children": [
                            {
                                "children": [],
                                "depth": 0,
                                "name": "Initial Gas",
                                "value": 21656
                            },
                            {
                                "children": [],
                                "depth": 0,
                                "name": "Executed Gas",
                                "value": 16482
                            }
                        ],
                        "depth": -1,
                        "name": "Actual Gas Used",
                        "value": 38138
                    },
                    {
                        "children": [],
                        "depth": -1,
                        "name": "Refunded Gas",
                        "value": 0
                    }
                ],
                "depth": -2,
                "name": "Total Gas",
                "value": 38138
            }
        ],
        "isConfirmed": true,
        "mainTrace": [
            {
                "children": [
                    {
                        "children": [
                            {
                                "children": [],
                                "depth": 1,
                                "id": 1,
                                "order": 1
                            }
                        ],
                        "depth": 0,
                        "id": 0,
                        "order": 0
                    }
                ],
                "depth": -1,
                "id": -1,
                "order": -1
            }
        ],
        "mainTraceNodeCount": 2,
        "parentIdMap": {
            "0": -1,
            "1": 0
        },
        "tidyTrace": [
            {
                "children": [
                    {
                        "children": [
                            {
                                "children": [],
                                "depth": 1,
                                "id": 1,
                                "order": 1
                            }
                        ],
                        "depth": 0,
                        "id": 0,
                        "order": 0
                    }
                ],
                "depth": -1,
                "id": -1,
                "order": -1
            }
        ],
        "tidyTraceNodeCount": 2
    },
    "state_change": {
        "stateChanges": [
            {
                "address": "0x8ce9137d39326ad0cd6491fb5cc0cba0e089b6a9",
                "erc": "ERC-20",
                "slots": [
                    {
                        "current": "0x000000000000000000000000000000000000000000000001756be3ebac23b000",
                        "key": "0xcef166da9e35ca6472b1e53b12659e876d67e15a70e7107a20fc9b63723a235d",
                        "prev": "0x000000000000000000000000000000000000000000000002b5c93013c0cbe000"
                    },
                    {
                        "current": "0x00000000000000000000000000000000000000000000000c16f05ea28cd3e000",
                        "key": "0x0bcdfe61ad45c57836cc2bcdb565bee410aee62e40ef914f416f5e033ccbf49c",
                        "prev": "0x00000000000000000000000000000000000000000000000ad693127a782bb000"
                    }
                ],
                "storageVariables": [
                    {
                        "name": "balances",
                        "type": "mapping(address => uint256)",
                        "value": {
                            "pairs": [
                                {
                                    "key": "0x1d18a832343651709bb5ddf4030de4512c50690e",
                                    "value": {
                                        "current": "223013854000000000000",
                                        "prev": "199929163000000000000",
                                        "typeTag": 1
                                    }
                                },
                                {
                                    "key": "0x6046c33e88d6db26885a63718a8e4a7c410e113c",
                                    "value": {
                                        "current": "26907851000000000000",
                                        "prev": "49992542000000000000",
                                        "typeTag": 1
                                    }
                                }
                            ],
                            "typeTag": 4
                        }
                    }
                ]
            }
        ]
    }
}