{
    "balance_change": {
        "balanceChanges": [
            {
                "account": "0xa21342f796996954284b8dc6aae7ecbf8f83a9e4",
                "assets": [
                    {
                        "address": "0xa342f5d851e866e18ff98f351f2c6637f4478db5",
                        "amount": "1",
                        "iconUrl": "",
                        "isERC1155": true,
                        "isERC721": false,
                        "sign": false,
                        "tokenID": "55464657044963196816950587289035428064568320970692304673817341489689200171009",
                        "value": ""
                    }
                ]
            },
            {
                "account": "0x8fe6d952d2b4fd448d20d459f14415c3dd6d8b88",
                "assets": [
                    {
                        "address": "0xa342f5d851e866e18ff98f351f2c6637f4478db5",
                        "amount": "1",
                        "iconUrl": "",
                        "isERC1155": true,
                        "isERC721": false,
                        "sign": true,
                        "tokenID": "55464657044963196816950587289035428064568320970692304673817341489689200171009",
                        "value": ""
                    }
                ]
            }
        ]
    },
    "profile": {
        "basic_info": {
            "baseFee": "13.130949908",
            "blockNumber": 16894952,
            "callData": "0x25839ca7ad528e0cb93901a8ae8b3010ba11195286ef65e3e2e518c7889aec57f3012ea9000000000000000000000000000000000000000000000000000000000000006000000000000000000000000000000000000000000000000000000000000002c00000000000000000000000008fe6d952d2b4fd448d20d459f14415c3dd6d8b8800000000000000000000000000000000000000000000000000000000000000a000000000000000000000000000000000000000000000000000000000000001c000000000000000000000000000000000000000000000000000000000000001e03561022c7ac1abe74fb039c4516b9cd1305c45084f961ef649e686b1d105169900000000000000000000000000000000000000000000000000000000000000010000000000000000000000000000000000000000000000000000000000000020000000000000000000000000000000000000000000000000000000000000006000000000000000000000000000000000000000000000000000000000000000a0000000000000000000000000a342f5d851e866e18ff98f351f2c6637f4478db500000000000000000000000000000000000000000000000000000000000000017a9fe22691c811ea339d9b73150e6911a5343dca00000000000000006c0018010000000000000000000000000000000000000000000000000000000000000001000000000000000000000000000000000000000000000000000000000000000100000000000000000000000000000000000000000000000000000000000000000000000000000000000000000000000000000000000000000000000000000040000000000000000000000000000000000000000000000000000000000000006000000000000000000000000000000000000000000000000000000000000000000000000000000000000000000000000000000000000000000000000000000000000000000000000000000000000000000000000000000000000000000000000ef5dfbfe1eb492b39cc20d6120647cc546712a6e7e65c81051fc7b7fc0464ab8dee03bc563de0a346a09fb9fcd547d934f2a5858be95cb7c6ca4e9a070af78d31407577bf81b7ecbc3dc1430581029fcaaa5ea2c7b6b2c9aba85c658076bdbc8e2165316928ba83b3a8cfb7bb78ffb33af38d0082349ab4f98fdea702eddbb9d43eb19c508029349a43d14a90329973f373fa0796f7ab3499ff10a9088c9d6a8c569391383020e1838f7750209eda170a49bd690d76028017c3f09fdb2c7d22752ff50e408aa0dbe91477ec5c1189b2587f5e2ca8adc3b7f1a9c44e7035b90f8d2b1d76fc9eeabc33666056b8a90ab4081e62d2664e147cd0f2275f50f49048e4b83ce09ec6f4ee6c4b4378e66bcbd7e1b36cb5db1c1b0461be02ee2fc1a746effa141373f77baeb11929a2f46f643de9f6da9048d92a5a88a0686e3276333046f694b3aaedda222811912c9d91bc9bd194d9c17d413232aeda014fc536fae00c154371d516afbb2634409fadafaf9361f49a74effceb05622f65f916f9d980f59e92300dc91df97c9090ad3176580e7ac78307a2f894a8a3cab3d3bb84d53fef910fe82b52d57859807e186c5cc4153cf6afd10120964d2f534b5d7763841bdc",
            "debugEnable": true,
            "errorInfo": "",
            "eventCount": 2,
            "feeRecipient": "0x690b9a9e9aa1c9db991c7721a92d351db4fac990",
            "formatValue": "0",
            "gasLimit": 188044,
            "gasPrice": "13.230949908",
            "gasUsed": 125363,
            "intTxnCount": 2,
            "internalRevert": false,
            "internalRevertMessage": "",
            "isContractCreation": false,
            "isFlashloan": false,
            "maxFee": "17.621622878",
            "nonce": 67,
            "overwritedBlockNumber": -1,
            "priorityFee": "0.1",
            "receiver": "0xa21342f796996954284b8dc6aae7ecbf8f83a9e4",
            "revertMessage": "",
            "sender": "0x8fe6d952d2b4fd448d20d459f14415c3dd6d8b88",
            "simulationEnable": true,
            "sourceTxnHash": "0x7c28d5fe8de11d123863ec8738f3b1990096ae256c6e1ba7b5ed913aed2cdd54",
            "status": true,
            "timestamp": "2023-03-24T04:21:47Z",
            "transactionFee": "0.001658671573316604",
            "txnHash": "0x7c28d5fe8de11d123863ec8738f3b1990096ae256c6e1ba7b5ed913aed2cdd54",
            "txnIndex": 114,
            "type": 2,
            "value": "0"
        },
        "fund_flow": [
            {
                "amount": "1",
                "from": "0xa21342f796996954284b8dc6aae7ecbf8f83a9e4",
                "id": 1,
                "isERC1155": true,
                "isERC721": false,
                "isReverted": false,
                "order": 1,
                "to": "0x8fe6d952d2b4fd448d20d459f14415c3dd6d8b88",
                "token": "0xa342f5d851e866e18ff98f351f2c6637f4478db5",
                "tokenID": "55464657044963196816950587289035428064568320970692304673817341489689200171009"
            }
        ],
        "token_infos": [
            {
                "address": "0xc02aaa39b223fe8d0a0e5c4f27ead9083c756cc2",
                "decimals": 18
            },
            {
                "address": "0xeeeeeeeeeeeeeeeeeeeeeeeeeeeeeeeeeeeeeeee",
                "decimals": 18
            }
        ]
    },
    "address_label": {
        "labels": [
            {
                "address": "0x0000000000000000000000000000000000000001",
                "label": "Precompiled"
            },
            {
                "address": "0x0000000000000000000000000000000000000002",
                "label": "Precompiled"
            },
            {
                "address": "0x0000000000000000000000000000000000000003",
                "label": "Precompiled"
            },
            {
                "address": "0x0000000000000000000000000000000000000004",
                "label": "Precompiled"
            },
            {
                "address": "0xeeeeeeeeeeeeeeeeeeeeeeeeeeeeeeeeeeeeeeee",
                "label": "Ether"
            },
            {
                "address": "0x7fbf5c9af42a6d146dcc18762f515692cd5f853b",
                "label": "Sandbox&#39;s ASSETs (ASSET)"
            },
            {
                "address": "0xa21342f796996954284b8dc6aae7ecbf8f83a9e4",
                "label": "MultiGiveaway"
            },
            {
                "address": "0xa342f5d851e866e18ff98f351f2c6637f4478db5",
                "label": "The Sandbox: ASSET Token"
            }
        ]
    },
    "trace": {
        "accountLabels": null,
        "dataMap": {
            "-1": {
                "invocation": {
                    "address": "0x8fe6d952d2b4fd448d20d459f14415c3dd6d8b88",
                    "callData": "",
                    "decodedMethod": null,
                    "errorInfo": "",
                    "fromAddress": "",
                    "gasUsed": 0,
                    "id": -1,
                    "methodDecoded": false,
                    "operation": "",
                    "output": "",
                    "revert": false,
                    "revertMessage": "",
                    "selector": "",
                    "status": false,
                    "value": ""
                },
                "nodeType": 0
            },
            "0": {
                "invocation": {
                    "address": "0xa21342f796996954284b8dc6aae7ecbf8f83a9e4",
                    "callData": "0xad528e0cb93901a8ae8b3010ba11195286ef65e3e2e518c7889aec57f3012ea9000000000000000000000000000000000000000000000000000000000000006000000000000000000000000000000000000000000000000000000000000002c00000000000000000000000008fe6d952d2b4fd448d20d459f14415c3dd6d8b8800000000000000000000000000000000000000000000000000000000000000a000000000000000000000000000000000000000000000000000000000000001c000000000000000000000000000000000000000000000000000000000000001e03561022c7ac1abe74fb039c4516b9cd1305c45084f961ef649e686b1d105169900000000000000000000000000000000000000000000000000000000000000010000000000000000000000000000000000000000000000000000000000000020000000000000000000000000000000000000000000000000000000000000006000000000000000000000000000000000000000000000000000000000000000a0000000000000000000000000a342f5d851e866e18ff98f351f2c6637f4478db500000000000000000000000000000000000000000000000000000000000000017a9fe22691c811ea339d9b73150e6911a5343dca00000000000000006c0018010000000000000000000000000000000000000000000000000000000000000001000000000000000000000000000000000000000000000000000000000000000100000000000000000000000000000000000000000000000000000000000000000000000000000000000000000000000000000000000000000000000000000040000000000000000000000000000000000000000000000000000000000000006000000000000000000000000000000000000000000000000000000000000000000000000000000000000000000000000000000000000000000000000000000000000000000000000000000000000000000000000000000000000000000000000ef5dfbfe1eb492b39cc20d6120647cc546712a6e7e65c81051fc7b7fc0464ab8dee03bc563de0a346a09fb9fcd547d934f2a5858be95cb7c6ca4e9a070af78d31407577bf81b7ecbc3dc1430581029fcaaa5ea2c7b6b2c9aba85c658076bdbc8e2165316928ba83b3a8cfb7bb78ffb33af38d0082349ab4f98fdea702eddbb9d43eb19c508029349a43d14a90329973f373fa0796f7ab3499ff10a9088c9d6a8c569391383020e1838f7750209eda170a49bd690d76028017c3f09fdb2c7d22752ff50e408aa0dbe91477ec5c1189b2587f5e2ca8adc3b7f1a9c44e7035b90f8d2b1d76fc9eeabc33666056b8a90ab4081e62d2664e147cd0f2275f50f49048e4b83ce09ec6f4ee6c4b4378e66bcbd7e1b36cb5db1c1b0461be02ee2fc1a746effa141373f77baeb11929a2f46f643de9f6da9048d92a5a88a0686e3276333046f694b3aaedda222811912c9d91bc9bd194d9c17d413232aeda014fc536fae00c154371d516afbb2634409fadafaf9361f49a74effceb05622f65f916f9d980f59e92300dc91df97c9090ad3176580e7ac78307a2f894a8a3cab3d3bb84d53fef910fe82b52d57859807e186c5cc4153cf6afd10120964d2f534b5d7763841bdc",
                    "decodedMethod": {
                        "callParams": [
                            {
                                "name": "merkleRoot",
                                "type": "bytes32",
                                "value": "0xad528e0cb93901a8ae8b3010ba11195286ef65e3e2e518c7889aec57f3012ea9"
                            },
                            {
                                "name": "claim",
                                "type": "(address,(uint256[],uint256[],address)[],(uint256[],address)[],(uint256[],address[]),bytes32)",
                                "value": [
                                    {
                                        "name": "to",
                                        "type": "address",
                                        "value": "0x8fe6d952d2b4fd448d20d459f14415c3dd6d8b88"
                                    },
                                    {
                                        "name": "erc1155",
                                        "type": "(uint256[],uint256[],address)[]",
                                        "value": [
                                            [
                                                {
                                                    "name": "ids",
                                                    "type": "uint256[]",
                                                    "value": [
                                                        "55,464,657,044,963,196,816,950,587,289,035,428,064,568,320,970,692,304,673,817,341,489,689,200,171,009"
                                                    ]
                                                },
                                                {
                                                    "name": "values",
                                                    "type": "uint256[]",
                                                    "value": [
                                                        "1"
                                                    ]
                                                },
                                                {
                                                    "name": "contractAddress",
                                                    "type": "address",
                                                    "value": "0xa342f5d851e866e18ff98f351f2c6637f4478db5"
                                                }
                                            ]
                                        ]
                                    },
                                    {
                                        "name": "erc721",
                                        "type": "(uint256[],address)[]",
                                        "value": []
                                    },
                                    {
                                        "name": "erc20",
                                        "type": "(uint256[],address[])",
                                        "value": [
                                            {
                                                "name": "amounts",
                                                "type": "uint256[]",
                                                "value": []
                                            },
                                            {
                                                "name": "contractAddresses",
                                                "type": "address[]",
                                                "value": []
                                            }
                                        ]
                                    },
                                    {
                                        "name": "salt",
                                        "type": "bytes32",
                                        "value": "0x3561022c7ac1abe74fb039c4516b9cd1305c45084f961ef649e686b1d1051699"
                                    }
                                ]
                            },
                            {
                                "name": "proof",
                                "type": "bytes32[]",
                                "value": [
                                    "0xf5dfbfe1eb492b39cc20d6120647cc546712a6e7e65c81051fc7b7fc0464ab8d",
                                    "0xee03bc563de0a346a09fb9fcd547d934f2a5858be95cb7c6ca4e9a070af78d31",
                                    "0x407577bf81b7ecbc3dc1430581029fcaaa5ea2c7b6b2c9aba85c658076bdbc8e",
                                    "0x2165316928ba83b3a8cfb7bb78ffb33af38d0082349ab4f98fdea702eddbb9d4",
                                    "0x3eb19c508029349a43d14a90329973f373fa0796f7ab3499ff10a9088c9d6a8c",
                                    "0x569391383020e1838f7750209eda170a49bd690d76028017c3f09fdb2c7d2275",
                                    "0x2ff50e408aa0dbe91477ec5c1189b2587f5e2ca8adc3b7f1a9c44e7035b90f8d",
                                    "0x2b1d76fc9eeabc33666056b8a90ab4081e62d2664e147cd0f2275f50f49048e4",
                                    "0xb83ce09ec6f4ee6c4b4378e66bcbd7e1b36cb5db1c1b0461be02ee2fc1a746ef",
                                    "0xfa141373f77baeb11929a2f46f643de9f6da9048d92a5a88a0686e3276333046",
                                    "0xf694b3aaedda222811912c9d91bc9bd194d9c17d413232aeda014fc536fae00c",
                                    "0x154371d516afbb2634409fadafaf9361f49a74effceb05622f65f916f9d980f5",
                                    "0x9e92300dc91df97c9090ad3176580e7ac78307a2f894a8a3cab3d3bb84d53fef",
                                    "0x910fe82b52d57859807e186c5cc4153cf6afd10120964d2f534b5d7763841bdc"
                                ]
                            }
                        ],
                        "constructorArguments": "",
                        "name": "claimMultipleTokens",
                        "returnParams": [],
                        "signature": "claimMultipleTokens(bytes32,(address,(uint256[],uint256[],address)[],(uint256[],address)[],(uint256[],address[]),bytes32),bytes32[])"
                    },
                    "errorInfo": "",
                    "fromAddress": "0x8fe6d952d2b4fd448d20d459f14415c3dd6d8b88",
                    "gasUsed": 125363,
                    "id": 0,
                    "methodDecoded": true,
                    "operation": "CALL",
                    "output": "",
                    "revert": false,
                    "revertMessage": "",
                    "selector": "0x25839ca7",
                    "status": true,
                    "value": "0"
                },
                "nodeType": 0
            },
            "1": {
                "invocation": {
                    "address": "0xa342f5d851e866e18ff98f351f2c6637f4478db5",
                    "callData": "0x000000000000000000000000a21342f796996954284b8dc6aae7ecbf8f83a9e40000000000000000000000008fe6d952d2b4fd448d20d459f14415c3dd6d8b8800000000000000000000000000000000000000000000000000000000000000a000000000000000000000000000000000000000000000000000000000000000e0000000000000000000000000000000000000000000000000000000000000012000000000000000000000000000000000000000000000000000000000000000017a9fe22691c811ea339d9b73150e6911a5343dca00000000000000006c001801000000000000000000000000000000000000000000000000000000000000000100000000000000000000000000000000000000000000000000000000000000010000000000000000000000000000000000000000000000000000000000000000",
                    "decodedMethod": {
                        "callParams": [
                            {
                                "name": "from",
                                "type": "address",
                                "value": "0xa21342f796996954284b8dc6aae7ecbf8f83a9e4"
                            },
                            {
                                "name": "to",
                                "type": "address",
                                "value": "0x8fe6d952d2b4fd448d20d459f14415c3dd6d8b88"
                            },
                            {
                                "name": "ids",
                                "type": "uint256[]",
                                "value": [
                                    "55,464,657,044,963,196,816,950,587,289,035,428,064,568,320,970,692,304,673,817,341,489,689,200,171,009"
                                ]
                            },
                            {
                                "name": "values",
                                "type": "uint256[]",
                                "value": [
                                    "1"
                                ]
                            },
                            {
                                "name": "data",
                                "type": "bytes",
                                "value": "0x"
                            }
                        ],
                        "constructorArguments": "",
                        "name": "safeBatchTransferFrom",
                        "returnParams": [],
                        "signature": "safeBatchTransferFrom(address,address,uint256[],uint256[],bytes)"
                    },
                    "errorInfo": "",
                    "fromAddress": "0xa21342f796996954284b8dc6aae7ecbf8f83a9e4",
                    "gasUsed": 44875,
                    "id": 1,
                    "methodDecoded": true,
                    "operation": "CALL",
                    "output": "",
                    "revert": false,
                    "revertMessage": "",
                    "selector": "0x2eb2c2d6",
                    "status": true,
                    "value": "0"
                },
                "nodeType": 0
            },
            "2": {
                "invocation": {
                    "address": "0x7fbf5c9af42a6d146dcc18762f515692cd5f853b",
                    "callData": "0x000000000000000000000000a21342f796996954284b8dc6aae7ecbf8f83a9e40000000000000000000000008fe6d952d2b4fd448d20d459f14415c3dd6d8b8800000000000000000000000000000000000000000000000000000000000000a000000000000000000000000000000000000000000000000000000000000000e0000000000000000000000000000000000000000000000000000000000000012000000000000000000000000000000000000000000000000000000000000000017a9fe22691c811ea339d9b73150e6911a5343dca00000000000000006c001801000000000000000000000000000000000000000000000000000000000000000100000000000000000000000000000000000000000000000000000000000000010000000000000000000000000000000000000000000000000000000000000000",
                    "decodedMethod": {
                        "callParams": [
                            {
                                "name": "from",
                                "type": "address",
                                "value": "0xa21342f796996954284b8dc6aae7ecbf8f83a9e4"
                            },
                            {
                                "name": "to",
                                "type": "address",
                                "value": "0x8fe6d952d2b4fd448d20d459f14415c3dd6d8b88"
                            },
                            {
                                "name": "ids",
                                "type": "uint256[]",
                                "value": [
                                    "55,464,657,044,963,196,816,950,587,289,035,428,064,568,320,970,692,304,673,817,341,489,689,200,171,009"
                                ]
                            },
                            {
                                "name": "values",
                                "type": "uint256[]",
                                "value": [
                                    "1"
                                ]
                            },
                            {
                                "name": "data",
                                "type": "bytes",
                                "value": "0x"
                            }
                        ],
                        "constructorArguments": "",
                        "name": "safeBatchTransferFrom",
                        "returnParams": [],
                        "signature": "safeBatchTransferFrom(address,address,uint256[],uint256[],bytes)"
                    },
                    "errorInfo": "",
                    "fromAddress": "0xa342f5d851e866e18ff98f351f2c6637f4478db5",
                    "gasUsed": 37551,
                    "id": 2,
                    "methodDecoded": true,
                    "operation": "DELEGATECALL",
                    "output": "",
                    "revert": false,
                    "revertMessage": "",
                    "selector": "0x2eb2c2d6",
                    "status": true,
                    "value": "0"
                },
                "nodeType": 0
            },
            "3": {
                "event": {
                    "contract": "0xa342f5d851e866e18ff98f351f2c6637f4478db5",
                    "decodedLog": {
                        "name": "TransferBatch",
                        "params": [
                            {
                                "name": "operator",
                                "type": "address",
                                "value": "0xa21342f796996954284b8dc6aae7ecbf8f83a9e4"
                            },
                            {
                                "name": "from",
                                "type": "address",
                                "value": "0xa21342f796996954284b8dc6aae7ecbf8f83a9e4"
                            },
                            {
                                "name": "to",
                                "type": "address",
                                "value": "0x8fe6d952d2b4fd448d20d459f14415c3dd6d8b88"
                            },
                            {
                                "name": "ids",
                                "type": "uint256[]",
                                "value": [
                                    "55,464,657,044,963,196,816,950,587,289,035,428,064,568,320,970,692,304,673,817,341,489,689,200,171,009"
                                ]
                            },
                            {
                                "name": "values",
                                "type": "uint256[]",
                                "value": [
                                    "1"
                                ]
                            }
                        ],
                        "signature": "TransferBatch(address,address,address,uint256[],uint256[])"
                    },
                    "id": 3,
                    "logData": "0x0000000000000000000000000000000000000000000000000000000000000040000000000000000000000000000000000000000000000000000000000000008000000000000000000000000000000000000000000000000000000000000000017a9fe22691c811ea339d9b73150e6911a5343dca00000000000000006c00180100000000000000000000000000000000000000000000000000000000000000010000000000000000000000000000000000000000000000000000000000000001",
                    "logDecoded": true,
                    "operation": "EVENT",
                    "revert": false,
                    "status": true,
                    "topics": [
                        "0x4a39dc06d4c0dbc64b70af90fd698a233a518aa5d07e595d983b8c0526c8f7fb",
                        "0x000000000000000000000000a21342f796996954284b8dc6aae7ecbf8f83a9e4",
                        "0x000000000000000000000000a21342f796996954284b8dc6aae7ecbf8f83a9e4",
                        "0x0000000000000000000000008fe6d952d2b4fd448d20d459f14415c3dd6d8b88"
                    ]
                },
                "nodeType": 1
            },
            "4": {
                "event": {
                    "contract": "0xa21342f796996954284b8dc6aae7ecbf8f83a9e4",
                    "decodedLog": {
                        "name": "ClaimedMultipleTokens",
                        "params": [
                            {
                                "name": "to",
                                "type": "address",
                                "value": "0x8fe6d952d2b4fd448d20d459f14415c3dd6d8b88"
                            },
                            {
                                "name": "erc1155",
                                "type": "(uint256[],uint256[],address)[]",
                                "value": [
                                    [
                                        {
                                            "name": "ids",
                                            "type": "uint256[]",
                                            "value": [
                                                "55,464,657,044,963,196,816,950,587,289,035,428,064,568,320,970,692,304,673,817,341,489,689,200,171,009"
                                            ]
                                        },
                                        {
                                            "name": "values",
                                            "type": "uint256[]",
                                            "value": [
                                                "1"
                                            ]
                                        },
                                        {
                                            "name": "contractAddress",
                                            "type": "address",
                                            "value": "0xa342f5d851e866e18ff98f351f2c6637f4478db5"
                                        }
                                    ]
                                ]
                            },
                            {
                                "name": "erc721",
                                "type": "(uint256[],address)[]",
                                "value": []
                            },
                            {
                                "name": "erc20",
                                "type": "(uint256[],address[])",
                                "value": [
                                    {
                                        "name": "amounts",
                                        "type": "uint256[]",
                                        "value": []
                                    },
                                    {
                                        "name": "contractAddresses",
                                        "type": "address[]",
                                        "value": []
                                    }
                                ]
                            }
                        ],
                        "signature": "ClaimedMultipleTokens(address,(uint256[],uint256[],address)[],(uint256[],address)[],(uint256[],address[]))"
                    },
                    "id": 4,
                    "logData": "0x0000000000000000000000008fe6d952d2b4fd448d20d459f14415c3dd6d8b88000000000000000000000000000000000000000000000000000000000000008000000000000000000000000000000000000000000000000000000000000001a000000000000000000000000000000000000000000000000000000000000001c000000000000000000000000000000000000000000000000000000000000000010000000000000000000000000000000000000000000000000000000000000020000000000000000000000000000000000000000000000000000000000000006000000000000000000000000000000000000000000000000000000000000000a0000000000000000000000000a342f5d851e866e18ff98f351f2c6637f4478db500000000000000000000000000000000000000000000000000000000000000017a9fe22691c811ea339d9b73150e6911a5343dca00000000000000006c0018010000000000000000000000000000000000000000000000000000000000000001000000000000000000000000000000000000000000000000000000000000000100000000000000000000000000000000000000000000000000000000000000000000000000000000000000000000000000000000000000000000000000000040000000000000000000000000000000000000000000000000000000000000006000000000000000000000000000000000000000000000000000000000000000000000000000000000000000000000000000000000000000000000000000000000",
                    "logDecoded": true,
                    "operation": "EVENT",
                    "revert": false,
                    "status": true,
                    "topics": [
                        "0xdbf330cc6723e4f92690af8e3d5103c1b06d58e85b16421cc981f407535d2f27"
                    ]
                },
                "nodeType": 1
            }
        },
        "gasFlame": [
            {
                "children": [
                    {
                        "children": [
                            {
                                "children": [],
                                "depth": 0,
                                "name": "Initial Gas",
                                "value": 32904
                            },
                            {
                                "children": [
                                    {
                                        "children": [
                                            {
                                                "children": [],
                                                "depth": 2,
                                                "name": "safeBatchTransferFrom",
                                                "value": 37551
                                            }
                                        ],
                                        "depth": 1,
                                        "name": "safeBatchTransferFrom",
                                        "value": 44875
                                    }
                                ],
                                "depth": 0,
                                "name": "Executed Gas",
                                "value": 92459
                            }
                        ],
                        "depth": -1,
                        "name": "Actual Gas Used",
                        "value": 125363
                    },
                    {
                        "children": [],
                        "depth": -1,
                        "name": "Refunded Gas",
                        "value": 0
                    }
                ],
                "depth": -2,
                "name": "Total Gas",
                "value": 125363
            }
        ],
        "isConfirmed": true,
        "mainTrace": [
            {
                "children": [
                    {
                        "children": [
                            {
                                "children": [
                                    {
                                        "children": [
                                            {
                                                "children": [],
                                                "depth": 3,
                                                "id": 3,
                                                "order": 3
                                            }
                                        ],
                                        "depth": 2,
                                        "id": 2,
                                        "order": 2
                                    }
                                ],
                                "depth": 1,
                                "id": 1,
                                "order": 1
                            },
                            {
                                "children": [],
                                "depth": 1,
                                "id": 4,
                                "order": 4
                            }
                        ],
                        "depth": 0,
                        "id": 0,
                        "order": 0
                    }
                ],
                "depth": -1,
                "id": -1,
                "order": -1
            }
        ],
        "mainTraceNodeCount": 5,
        "parentIdMap": {
            "0": -1,
            "1": 0,
            "2": 1,
            "3": 2,
            "4": 0
        },
        "tidyTrace": [
            {
                "children": [
                    {
                        "children": [
                            {
                                "children": [
                                    {
                                        "children": [
                                            {
                                                "children": [],
                                                "depth": 3,
                                                "id": 3,
                                                "order": 3
                                            }
                                        ],
                                        "depth": 2,
                                        "id": 2,
                                        "order": 2
                                    }
                                ],
                                "depth": 1,
                                "id": 1,
                                "order": 1
                            },
                            {
                                "children": [],
                                "depth": 1,
                                "id": 4,
                                "order": 4
                            }
                        ],
                        "depth": 0,
                        "id": 0,
                        "order": 0
                    }
                ],
                "depth": -1,
                "id": -1,
                "order": -1
            }
        ],
        "tidyTraceNodeCount": 5
    },
    "state_change": {
        "stateChanges": [
            {
                "address": "0xa21342f796996954284b8dc6aae7ecbf8f83a9e4",
                "erc": "",
                "slots": [
                    {
                        "current": "0x0000000000000000000000000000000000000000000000000000000000000001",
                        "key": "0xccdffefcd1ae52c935c4585a29344e79aa97a7494afce91de838753526c5a725",
                        "prev": "0x0000000000000000000000000000000000000000000000000000000000000000"
                    }
                ],
                "storageVariables": [
                    {
                        "name": "claimed",
                        "type": "mapping(address => mapping(bytes32 => bool))",
                        "value": {
                            "pairs": [
                                {
                                    "key": "0x8fe6d952d2b4fd448d20d459f14415c3dd6d8b88",
                                    "value": {
                                        "pairs": [
                                            {
                                                "key": "0xad528e0cb93901a8ae8b3010ba11195286ef65e3e2e518c7889aec57f3012ea9",
                                                "value": {
                                                    "current": "true",
                                                    "prev": "false",
                                                    "typeTag": 1
                                                }
                                            }
                                        ],
                                        "typeTag": 4
                                    }
                                }
                            ],
                            "typeTag": 4
                        }
                    }
                ]
            },
            {
                "address": "0xa342f5d851e866e18ff98f351f2c6637f4478db5",
                "erc": "ERC-721",
                "slots": [
                    {
                        "current": "0x0000218600002191000000c40000000000000000000000000000000000000000",
                        "key": "0xae46be2ba9b9bf0ca94669c3751e60cf692ab1766a1bfce80a77c0b89ced9111",
                        "prev": "0x0000218600002192000000c40000000000000000000000000000000000000000"
                    },
                    {
                        "current": "0x0000000000000001000000000000000000000000000000000000000000000000",
                        "key": "0x2b1edbbbb423464c50f525aa6deaeff201ac25deb4fa3ffcad0b9e4b033e6543",
                        "prev": "0x0000000000000000000000000000000000000000000000000000000000000000"
                    }
                ],
                "storageVariables": [
                    {
                        "name": "_packedTokenBalance",
                        "type": "mapping(address => mapping(uint256 => uint256))",
                        "value": {
                            "pairs": [
                                {
                                    "key": "0x8fe6d952d2b4fd448d20d459f14415c3dd6d8b88",
                                    "value": {
                                        "pairs": [
                                            {
                                                "key": "148389401871403776518961008276621407293501957334161285040199873247490081536",
                                                "value": {
                                                    "current": "6277101735386680763835789423207666416102355444464034512896",
                                                    "prev": "0",
                                                    "typeTag": 1
                                                }
                                            }
                                        ],
                                        "typeTag": 4
                                    }
                                },
                                {
                                    "key": "0xa21342f796996954284b8dc6aae7ecbf8f83a9e4",
                                    "value": {
                                        "pairs": [
                                            {
                                                "key": "148389401871403776518961008276621407293501957334161285040199873247490081536",
                                                "value": {
                                                    "current": "231370262351425925930296525601360265926745373175023124838963194506510336",
                                                    "prev": "231370262351432203032031912282124101716168580841439227194407658541023232",
                                                    "typeTag": 1
                                                }
                                            }
                                        ],
                                        "typeTag": 4
                                    }
                                }
                            ],
                            "typeTag": 4
                        }
                    }
                ]
            }
        ]
    }
}