{
    "balance_change": {
        "balanceChanges": [
            {
                "account": "0xd64137f743432392538a8f84e8e571fa09f21c37",
                "assets": [
                    {
                        "address": "0xc02aaa39b223fe8d0a0e5c4f27ead9083c756cc2",
                        "amount": "3",
                        "iconUrl": "https://assets.blocksec.com/icon/f1cb2d02c471d545bbc7722daf3277fd852d98e63d118771af7047bd8256c516.png",
                        "isERC1155": false,
                        "isERC721": false,
                        "sign": false,
                        "value": "4635.299999999999727"
                    }
                ]
            },
            {
                "account": "0x2ff2e3b3afaefa8dea19ec9afac95bef4d8af4df",
                "assets": [
                    {
                        "address": "0x6dea81c8171d0ba574754ef6f8b412f2ed88c54d",
                        "amount": "7,404.575121835293098517",
                        "iconUrl": "",
                        "isERC1155": false,
                        "isERC721": false,
                        "sign": true,
                        "value": "4478.084629"
                    }
                ]
            },
            {
                "account": "0xd1d5a4c0ea98971894772dcd6d2f1dc71083c44e",
                "assets": [
                    {
                        "address": "0x6dea81c8171d0ba574754ef6f8b412f2ed88c54d",
                        "amount": "7,404.575121835293098517",
                        "iconUrl": "",
                        "isERC1155": false,
                        "isERC721": false,
                        "sign": false,
                        "value": "4478.084629"
                    },
                    {
                        "address": "0xc02aaa39b223fe8d0a0e5c4f27ead9083c756cc2",
                        "amount": "3",
                        "iconUrl": "https://assets.blocksec.com/icon/f1cb2d02c471d545bbc7722daf3277fd852d98e63d118771af7047bd8256c516.png",
                        "isERC1155": false,
                        "isERC721": false,
                        "sign": true,
                        "value": "4635.299999999999727"
                    }
                ]
            }
        ]
    },
    "profile": {
        "basic_info": {
            "baseFee": "28.423085746",
            "blockNumber": 16413011,
            "callData": "0x7f59f14a000000000000000000000000000000000000000000000000000000000000002000000000000000000000000000000000000000000000000000000000000000a00000000000000000000000000000000000000000051ff22d83f6ded8a75429700000000000000000000000002ff2e3b3afaefa8dea19ec9afac95bef4d8af4df00000000000000000000000000000000000000000000000029a2241af62c0000000000000000000000000000000000000000000000000191005cfc58bdb7486a800000000000000000000000d1d5a4c0ea98971894772dcd6d2f1dc71083c44e",
            "debugEnable": true,
            "errorInfo": "",
            "eventCount": 3,
            "feeRecipient": "0x95222290dd7278aa3ddd389cc1e1d165cc4bafe5",
            "formatValue": "0",
            "gasLimit": 250000,
            "gasPrice": "50.14855376",
            "gasUsed": 139323,
            "intTxnCount": 10,
            "internalRevert": false,
            "internalRevertMessage": "",
            "isContractCreation": false,
            "isFlashloan": false,
            "maxFee": "72.274531986",
            "nonce": 4663,
            "overwritedBlockNumber": -1,
            "priorityFee": "21.725468014",
            "receiver": "0x499d1b178b4643c12e3cf99d5b0244e9a754ee2d",
            "revertMessage": "",
            "sender": "0xd64137f743432392538a8f84e8e571fa09f21c37",
            "simulationEnable": true,
            "sourceTxnHash": "0x7c5ed2cb0a9395af1a1747c97072c53ae81327f9c71af3151b7934d267cf8d3b",
            "status": true,
            "timestamp": "2023-01-15T15:11:23Z",
            "transactionFee": "0.00698684695550448",
            "txnHash": "0x7c5ed2cb0a9395af1a1747c97072c53ae81327f9c71af3151b7934d267cf8d3b",
            "txnIndex": 8,
            "type": 2,
            "value": "0"
        },
        "fund_flow": [
            {
                "amount": "7,404.575121835293098517",
                "from": "0xd1d5a4c0ea98971894772dcd6d2f1dc71083c44e",
                "id": 1,
                "isERC1155": false,
                "isERC721": false,
                "isReverted": false,
                "order": 1,
                "to": "0x2ff2e3b3afaefa8dea19ec9afac95bef4d8af4df",
                "token": "0x6dea81c8171d0ba574754ef6f8b412f2ed88c54d"
            },
            {
                "amount": "3",
                "from": "0xd64137f743432392538a8f84e8e571fa09f21c37",
                "id": 2,
                "isERC1155": false,
                "isERC721": false,
                "isReverted": false,
                "order": 2,
                "to": "0xd1d5a4c0ea98971894772dcd6d2f1dc71083c44e",
                "token": "0xc02aaa39b223fe8d0a0e5c4f27ead9083c756cc2"
            }
        ],
        "token_infos": [
            {
                "address": "0x6dea81c8171d0ba574754ef6f8b412f2ed88c54d",
                "decimals": 18
            },
            {
                "address": "0xc02aaa39b223fe8d0a0e5c4f27ead9083c756cc2",
                "decimals": 18
            },
            {
                "address": "0xeeeeeeeeeeeeeeeeeeeeeeeeeeeeeeeeeeeeeeee",
                "decimals": 18
            }
        ]
    },
    "address_label": {
        "labels": [
            {
                "address": "0x0000000000000000000000000000000000000004",
                "label": "Precompiled"
            },
            {
                "address": "0xeeeeeeeeeeeeeeeeeeeeeeeeeeeeeeeeeeeeeeee",
                "label": "Ether"
            },
            {
                "address": "0xc02aaa39b223fe8d0a0e5c4f27ead9083c756cc2",
                "label": "Wrapped Ether (WETH)"
            },
            {
                "address": "0xd1d5a4c0ea98971894772dcd6d2f1dc71083c44e",
                "label": "Uniswap V3: LQTY"
            },
            {
                "address": "0x6dea81c8171d0ba574754ef6f8b412f2ed88c54d",
                "label": "LQTY (LQTY)"
            },
            {
                "address": "0x0000000000000000000000000000000000000001",
                "label": "Precompiled"
            },
            {
                "address": "0x0000000000000000000000000000000000000002",
                "label": "Precompiled"
            },
            {
                "address": "0x0000000000000000000000000000000000000003",
                "label": "Precompiled"
            }
        ]
    },
    "trace": {
        "accountLabels": null,
        "dataMap": {
            "-1": {
                "invocation": {
                    "address": "0xd64137f743432392538a8f84e8e571fa09f21c37",
                    "callData": "",
                    "decodedMethod": null,
                    "errorInfo": "",
                    "fromAddress": "",
                    "gasUsed": 0,
                    "id": -1,
                    "methodDecoded": false,
                    "operation": "",
                    "output": "",
                    "revert": false,
                    "revertMessage": "",
                    "selector": "",
                    "status": false,
                    "value": ""
                },
                "nodeType": 0
            },
            "0": {
                "invocation": {
                    "address": "0x499d1b178b4643c12e3cf99d5b0244e9a754ee2d",
                    "callData": "0x000000000000000000000000000000000000000000000000000000000000002000000000000000000000000000000000000000000000000000000000000000a00000000000000000000000000000000000000000051ff22d83f6ded8a75429700000000000000000000000002ff2e3b3afaefa8dea19ec9afac95bef4d8af4df00000000000000000000000000000000000000000000000029a2241af62c0000000000000000000000000000000000000000000000000191005cfc58bdb7486a800000000000000000000000d1d5a4c0ea98971894772dcd6d2f1dc71083c44e",
                    "decodedMethod": null,
                    "errorInfo": "",
                    "fromAddress": "0xd64137f743432392538a8f84e8e571fa09f21c37",
                    "gasUsed": 139323,
                    "id": 0,
                    "methodDecoded": false,
                    "operation": "CALL",
                    "output": "0x000000000000000000000000000000000000000000000191671f523057674215",
                    "revert": false,
                    "revertMessage": "",
                    "selector": "0x7f59f14a",
                    "status": true,
                    "value": "0"
                },
                "nodeType": 0
            },
            "1": {
                "invocation": {
                    "address": "0xd1d5a4c0ea98971894772dcd6d2f1dc71083c44e",
                    "callData": "0x",
                    "decodedMethod": {
                        "callParams": [],
                        "constructorArguments": "",
                        "name": "slot0",
                        "returnParams": [
                            {
                                "name": "sqrtPriceX96",
                                "type": "uint160",
                                "value": "1,586,045,401,816,149,304,452,327,792"
                            },
                            {
                                "name": "tick",
                                "type": "int24",
                                "value": "-78,226"
                            },
                            {
                                "name": "observationIndex",
                                "type": "uint16",
                                "value": "2,678"
                            },
                            {
                                "name": "observationCardinality",
                                "type": "uint16",
                                "value": "7,200"
                            },
                            {
                                "name": "observationCardinalityNext",
                                "type": "uint16",
                                "value": "7,200"
                            },
                            {
                                "name": "feeProtocol",
                                "type": "uint8",
                                "value": "0"
                            },
                            {
                                "name": "unlocked",
                                "type": "bool",
                                "value": true
                            }
                        ],
                        "signature": "slot0()"
                    },
                    "errorInfo": "",
                    "fromAddress": "0x499d1b178b4643c12e3cf99d5b0244e9a754ee2d",
                    "gasUsed": 696,
                    "id": 1,
                    "methodDecoded": true,
                    "operation": "STATICCALL",
                    "output": "0x0000000000000000000000000000000000000000051ff22d83f6ded8a7542970fffffffffffffffffffffffffffffffffffffffffffffffffffffffffffece6e0000000000000000000000000000000000000000000000000000000000000a760000000000000000000000000000000000000000000000000000000000001c200000000000000000000000000000000000000000000000000000000000001c2000000000000000000000000000000000000000000000000000000000000000000000000000000000000000000000000000000000000000000000000000000001",
                    "revert": false,
                    "revertMessage": "",
                    "selector": "0x3850c7bd",
                    "status": true,
                    "value": "0"
                },
                "nodeType": 0
            },
            "10": {
                "invocation": {
                    "address": "0xc02aaa39b223fe8d0a0e5c4f27ead9083c756cc2",
                    "callData": "0x000000000000000000000000d64137f743432392538a8f84e8e571fa09f21c37000000000000000000000000d1d5a4c0ea98971894772dcd6d2f1dc71083c44e00000000000000000000000000000000000000000000000029a2241af62c0000",
                    "decodedMethod": {
                        "callParams": [
                            {
                                "name": "src",
                                "type": "address",
                                "value": "0xd64137f743432392538a8f84e8e571fa09f21c37"
                            },
                            {
                                "name": "dst",
                                "type": "address",
                                "value": "0xd1d5a4c0ea98971894772dcd6d2f1dc71083c44e"
                            },
                            {
                                "decimalAvailable": true,
                                "name": "wad",
                                "type": "uint256",
                                "value": "3,000,000,000,000,000,000"
                            }
                        ],
                        "constructorArguments": "",
                        "name": "transferFrom",
                        "returnParams": [
                            {
                                "name": "",
                                "type": "bool",
                                "value": true
                            }
                        ],
                        "signature": "transferFrom(address,address,uint256)"
                    },
                    "errorInfo": "",
                    "fromAddress": "0x499d1b178b4643c12e3cf99d5b0244e9a754ee2d",
                    "gasUsed": 9025,
                    "id": 10,
                    "methodDecoded": true,
                    "operation": "CALL",
                    "output": "0x0000000000000000000000000000000000000000000000000000000000000001",
                    "revert": false,
                    "revertMessage": "",
                    "selector": "0x23b872dd",
                    "status": true,
                    "value": "0"
                },
                "nodeType": 0
            },
            "11": {
                "event": {
                    "contract": "0xc02aaa39b223fe8d0a0e5c4f27ead9083c756cc2",
                    "decodedLog": {
                        "name": "Transfer",
                        "params": [
                            {
                                "name": "src",
                                "type": "address",
                                "value": "0xd64137f743432392538a8f84e8e571fa09f21c37"
                            },
                            {
                                "name": "dst",
                                "type": "address",
                                "value": "0xd1d5a4c0ea98971894772dcd6d2f1dc71083c44e"
                            },
                            {
                                "decimalAvailable": true,
                                "name": "wad",
                                "type": "uint256",
                                "value": "3,000,000,000,000,000,000"
                            }
                        ],
                        "signature": "Transfer(address,address,uint256)"
                    },
                    "id": 11,
                    "logData": "0x00000000000000000000000000000000000000000000000029a2241af62c0000",
                    "logDecoded": true,
                    "operation": "EVENT",
                    "revert": false,
                    "status": true,
                    "topics": [
                        "0xddf252ad1be2c89b69c2b068fc378daa952ba7f163c4a11628f55a4df523b3ef",
                        "0x000000000000000000000000d64137f743432392538a8f84e8e571fa09f21c37",
                        "0x000000000000000000000000d1d5a4c0ea98971894772dcd6d2f1dc71083c44e"
                    ]
                },
                "nodeType": 1
            },
            "12": {
                "invocation": {
                    "address": "0xc02aaa39b223fe8d0a0e5c4f27ead9083c756cc2",
                    "callData": "0x000000000000000000000000d1d5a4c0ea98971894772dcd6d2f1dc71083c44e",
                    "decodedMethod": {
                        "callParams": [
                            {
                                "name": "",
                                "type": "address",
                                "value": "0xd1d5a4c0ea98971894772dcd6d2f1dc71083c44e"
                            }
                        ],
                        "constructorArguments": "",
                        "name": "balanceOf",
                        "returnParams": [
                            {
                                "decimalAvailable": true,
                                "name": "",
                                "type": "uint256",
                                "value": "169,336,387,090,672,436,455"
                            }
                        ],
                        "signature": "balanceOf(address)"
                    },
                    "errorInfo": "",
                    "fromAddress": "0xd1d5a4c0ea98971894772dcd6d2f1dc71083c44e",
                    "gasUsed": 534,
                    "id": 12,
                    "methodDecoded": true,
                    "operation": "STATICCALL",
                    "output": "0x0000000000000000000000000000000000000000000000092e03b2e05792c4e7",
                    "revert": false,
                    "revertMessage": "",
                    "selector": "0x70a08231",
                    "status": true,
                    "value": "0"
                },
                "nodeType": 0
            },
            "13": {
                "event": {
                    "contract": "0xd1d5a4c0ea98971894772dcd6d2f1dc71083c44e",
                    "decodedLog": {
                        "name": "Swap",
                        "params": [
                            {
                                "name": "sender",
                                "type": "address",
                                "value": "0x499d1b178b4643c12e3cf99d5b0244e9a754ee2d"
                            },
                            {
                                "name": "recipient",
                                "type": "address",
                                "value": "0x2ff2e3b3afaefa8dea19ec9afac95bef4d8af4df"
                            },
                            {
                                "name": "amount0",
                                "type": "int256",
                                "value": "-7,404,575,121,835,293,098,517"
                            },
                            {
                                "name": "amount1",
                                "type": "int256",
                                "value": "3,000,000,000,000,000,000"
                            },
                            {
                                "name": "sqrtPriceX96",
                                "type": "uint160",
                                "value": "1,598,573,637,413,335,208,566,680,982"
                            },
                            {
                                "name": "liquidity",
                                "type": "uint128",
                                "value": "19,126,329,543,438,658,830,158"
                            },
                            {
                                "name": "tick",
                                "type": "int24",
                                "value": "-78,069"
                            }
                        ],
                        "signature": "Swap(address,address,int256,int256,uint160,uint128,int24)"
                    },
                    "id": 13,
                    "logData": "0xfffffffffffffffffffffffffffffffffffffffffffffe6e98e0adcfa898bdeb00000000000000000000000000000000000000000000000029a2241af62c00000000000000000000000000000000000000000000052a4f2287303a6c75bb6d9600000000000000000000000000000000000000000000040cd724981ed869ff4efffffffffffffffffffffffffffffffffffffffffffffffffffffffffffecf0b",
                    "logDecoded": true,
                    "operation": "EVENT",
                    "revert": false,
                    "status": true,
                    "topics": [
                        "0xc42079f94a6350d7e6235f29174924f928cc2ac818eb64fed8004e115fbcca67",
                        "0x000000000000000000000000499d1b178b4643c12e3cf99d5b0244e9a754ee2d",
                        "0x0000000000000000000000002ff2e3b3afaefa8dea19ec9afac95bef4d8af4df"
                    ]
                },
                "nodeType": 1
            },
            "2": {
                "invocation": {
                    "address": "0xd1d5a4c0ea98971894772dcd6d2f1dc71083c44e",
                    "callData": "0x0000000000000000000000002ff2e3b3afaefa8dea19ec9afac95bef4d8af4df000000000000000000000000000000000000000000000000000000000000000000000000000000000000000000000000000000000000000029a2241af62c0000000000000000000000000000fffd8963efd1fc6a506488495d951d5263988d2500000000000000000000000000000000000000000000000000000000000000a00000000000000000000000000000000000000000000000000000000000000020000000000000000000000000d64137f743432392538a8f84e8e571fa09f21c37",
                    "decodedMethod": {
                        "callParams": [
                            {
                                "name": "recipient",
                                "type": "address",
                                "value": "0x2ff2e3b3afaefa8dea19ec9afac95bef4d8af4df"
                            },
                            {
                                "name": "zeroForOne",
                                "type": "bool",
                                "value": false
                            },
                            {
                                "name": "amountSpecified",
                                "type": "int256",
                                "value": "3,000,000,000,000,000,000"
                            },
                            {
                                "name": "sqrtPriceLimitX96",
                                "type": "uint160",
                                "value": "1,461,446,703,485,210,103,287,273,052,203,988,822,378,723,970,341"
                            },
                            {
                                "name": "data",
                                "type": "bytes",
                                "value": "0x000000000000000000000000d64137f743432392538a8f84e8e571fa09f21c37"
                            }
                        ],
                        "constructorArguments": "",
                        "name": "swap",
                        "returnParams": [
                            {
                                "name": "amount0",
                                "type": "int256",
                                "value": "-7,404,575,121,835,293,098,517"
                            },
                            {
                                "name": "amount1",
                                "type": "int256",
                                "value": "3,000,000,000,000,000,000"
                            }
                        ],
                        "signature": "swap(address,bool,int256,uint160,bytes)"
                    },
                    "errorInfo": "",
                    "fromAddress": "0x499d1b178b4643c12e3cf99d5b0244e9a754ee2d",
                    "gasUsed": 72733,
                    "id": 2,
                    "methodDecoded": true,
                    "operation": "CALL",
                    "output": "0xfffffffffffffffffffffffffffffffffffffffffffffe6e98e0adcfa898bdeb00000000000000000000000000000000000000000000000029a2241af62c0000",
                    "revert": false,
                    "revertMessage": "",
                    "selector": "0x128acb08",
                    "status": true,
                    "value": "0"
                },
                "nodeType": 0
            },
            "3": {
                "invocation": {
                    "address": "0x6dea81c8171d0ba574754ef6f8b412f2ed88c54d",
                    "callData": "0x0000000000000000000000002ff2e3b3afaefa8dea19ec9afac95bef4d8af4df000000000000000000000000000000000000000000000191671f523057674215",
                    "decodedMethod": {
                        "callParams": [
                            {
                                "name": "recipient",
                                "type": "address",
                                "value": "0x2ff2e3b3afaefa8dea19ec9afac95bef4d8af4df"
                            },
                            {
                                "decimalAvailable": true,
                                "name": "amount",
                                "type": "uint256",
                                "value": "7,404,575,121,835,293,098,517"
                            }
                        ],
                        "constructorArguments": "",
                        "name": "transfer",
                        "returnParams": [
                            {
                                "name": "",
                                "type": "bool",
                                "value": true
                            }
                        ],
                        "signature": "transfer(address,uint256)"
                    },
                    "errorInfo": "",
                    "fromAddress": "0xd1d5a4c0ea98971894772dcd6d2f1dc71083c44e",
                    "gasUsed": 9302,
                    "id": 3,
                    "methodDecoded": true,
                    "operation": "CALL",
                    "output": "0x0000000000000000000000000000000000000000000000000000000000000001",
                    "revert": false,
                    "revertMessage": "",
                    "selector": "0xa9059cbb",
                    "status": true,
                    "value": "0"
                },
                "nodeType": 0
            },
            "4": {
                "event": {
                    "contract": "0x6dea81c8171d0ba574754ef6f8b412f2ed88c54d",
                    "decodedLog": {
                        "name": "Transfer",
                        "params": [
                            {
                                "name": "from",
                                "type": "address",
                                "value": "0xd1d5a4c0ea98971894772dcd6d2f1dc71083c44e"
                            },
                            {
                                "name": "to",
                                "type": "address",
                                "value": "0x2ff2e3b3afaefa8dea19ec9afac95bef4d8af4df"
                            },
                            {
                                "decimalAvailable": true,
                                "name": "value",
                                "type": "uint256",
                                "value": "7,404,575,121,835,293,098,517"
                            }
                        ],
                        "signature": "Transfer(address,address,uint256)"
                    },
                    "id": 4,
                    "logData": "0x000000000000000000000000000000000000000000000191671f523057674215",
                    "logDecoded": true,
                    "operation": "EVENT",
                    "revert": false,
                    "status": true,
                    "topics": [
                        "0xddf252ad1be2c89b69c2b068fc378daa952ba7f163c4a11628f55a4df523b3ef",
                        "0x000000000000000000000000d1d5a4c0ea98971894772dcd6d2f1dc71083c44e",
                        "0x0000000000000000000000002ff2e3b3afaefa8dea19ec9afac95bef4d8af4df"
                    ]
                },
                "nodeType": 1
            },
            "5": {
                "invocation": {
                    "address": "0xc02aaa39b223fe8d0a0e5c4f27ead9083c756cc2",
                    "callData": "0x000000000000000000000000d1d5a4c0ea98971894772dcd6d2f1dc71083c44e",
                    "decodedMethod": {
                        "callParams": [
                            {
                                "name": "",
                                "type": "address",
                                "value": "0xd1d5a4c0ea98971894772dcd6d2f1dc71083c44e"
                            }
                        ],
                        "constructorArguments": "",
                        "name": "balanceOf",
                        "returnParams": [
                            {
                                "decimalAvailable": true,
                                "name": "",
                                "type": "uint256",
                                "value": "166,336,387,090,672,436,455"
                            }
                        ],
                        "signature": "balanceOf(address)"
                    },
                    "errorInfo": "",
                    "fromAddress": "0xd1d5a4c0ea98971894772dcd6d2f1dc71083c44e",
                    "gasUsed": 534,
                    "id": 5,
                    "methodDecoded": true,
                    "operation": "STATICCALL",
                    "output": "0x00000000000000000000000000000000000000000000000904618ec56166c4e7",
                    "revert": false,
                    "revertMessage": "",
                    "selector": "0x70a08231",
                    "status": true,
                    "value": "0"
                },
                "nodeType": 0
            },
            "6": {
                "invocation": {
                    "address": "0x499d1b178b4643c12e3cf99d5b0244e9a754ee2d",
                    "callData": "0xfffffffffffffffffffffffffffffffffffffffffffffe6e98e0adcfa898bdeb00000000000000000000000000000000000000000000000029a2241af62c000000000000000000000000000000000000000000000000000000000000000000600000000000000000000000000000000000000000000000000000000000000020000000000000000000000000d64137f743432392538a8f84e8e571fa09f21c37",
                    "decodedMethod": {
                        "callParams": [
                            {
                                "name": "amount0Delta",
                                "type": "int256",
                                "value": "-7,404,575,121,835,293,098,517"
                            },
                            {
                                "name": "amount1Delta",
                                "type": "int256",
                                "value": "3,000,000,000,000,000,000"
                            },
                            {
                                "name": "data",
                                "type": "bytes",
                                "value": "0x000000000000000000000000d64137f743432392538a8f84e8e571fa09f21c37"
                            }
                        ],
                        "constructorArguments": "",
                        "name": "uniswapV3SwapCallback",
                        "returnParams": [],
                        "signature": "uniswapV3SwapCallback(int256,int256,bytes)"
                    },
                    "errorInfo": "",
                    "fromAddress": "0xd1d5a4c0ea98971894772dcd6d2f1dc71083c44e",
                    "gasUsed": 11683,
                    "id": 6,
                    "methodDecoded": true,
                    "operation": "CALL",
                    "output": "",
                    "revert": false,
                    "revertMessage": "",
                    "selector": "0xfa461e33",
                    "status": true,
                    "value": "0"
                },
                "nodeType": 0
            },
            "7": {
                "invocation": {
                    "address": "0xd1d5a4c0ea98971894772dcd6d2f1dc71083c44e",
                    "callData": "0x",
                    "decodedMethod": {
                        "callParams": [],
                        "constructorArguments": "",
                        "name": "token0",
                        "returnParams": [
                            {
                                "name": "",
                                "type": "address",
                                "value": "0x6dea81c8171d0ba574754ef6f8b412f2ed88c54d"
                            }
                        ],
                        "signature": "token0()"
                    },
                    "errorInfo": "",
                    "fromAddress": "0x499d1b178b4643c12e3cf99d5b0244e9a754ee2d",
                    "gasUsed": 266,
                    "id": 7,
                    "methodDecoded": true,
                    "operation": "STATICCALL",
                    "output": "0x0000000000000000000000006dea81c8171d0ba574754ef6f8b412f2ed88c54d",
                    "revert": false,
                    "revertMessage": "",
                    "selector": "0x0dfe1681",
                    "status": true,
                    "value": "0"
                },
                "nodeType": 0
            },
            "8": {
                "invocation": {
                    "address": "0xd1d5a4c0ea98971894772dcd6d2f1dc71083c44e",
                    "callData": "0x",
                    "decodedMethod": {
                        "callParams": [],
                        "constructorArguments": "",
                        "name": "token1",
                        "returnParams": [
                            {
                                "name": "",
                                "type": "address",
                                "value": "0xc02aaa39b223fe8d0a0e5c4f27ead9083c756cc2"
                            }
                        ],
                        "signature": "token1()"
                    },
                    "errorInfo": "",
                    "fromAddress": "0x499d1b178b4643c12e3cf99d5b0244e9a754ee2d",
                    "gasUsed": 308,
                    "id": 8,
                    "methodDecoded": true,
                    "operation": "STATICCALL",
                    "output": "0x000000000000000000000000c02aaa39b223fe8d0a0e5c4f27ead9083c756cc2",
                    "revert": false,
                    "revertMessage": "",
                    "selector": "0xd21220a7",
                    "status": true,
                    "value": "0"
                },
                "nodeType": 0
            },
            "9": {
                "invocation": {
                    "address": "0xd1d5a4c0ea98971894772dcd6d2f1dc71083c44e",
                    "callData": "0x",
                    "decodedMethod": {
                        "callParams": [],
                        "constructorArguments": "",
                        "name": "fee",
                        "returnParams": [
                            {
                                "name": "",
                                "type": "uint24",
                                "value": "3,000"
                            }
                        ],
                        "signature": "fee()"
                    },
                    "errorInfo": "",
                    "fromAddress": "0x499d1b178b4643c12e3cf99d5b0244e9a754ee2d",
                    "gasUsed": 251,
                    "id": 9,
                    "methodDecoded": true,
                    "operation": "STATICCALL",
                    "output": "0x0000000000000000000000000000000000000000000000000000000000000bb8",
                    "revert": false,
                    "revertMessage": "",
                    "selector": "0xddca3f43",
                    "status": true,
                    "value": "0"
                },
                "nodeType": 0
            }
        },
        "gasFlame": [
            {
                "children": [
                    {
                        "children": [
                            {
                                "children": [],
                                "depth": 0,
                                "name": "Initial Gas",
                                "value": 62800
                            },
                            {
                                "children": [
                                    {
                                        "children": [],
                                        "depth": 1,
                                        "name": "slot0",
                                        "value": 696
                                    },
                                    {
                                        "children": [
                                            {
                                                "children": [],
                                                "depth": 2,
                                                "name": "transfer",
                                                "value": 9302
                                            },
                                            {
                                                "children": [],
                                                "depth": 2,
                                                "name": "balanceOf",
                                                "value": 534
                                            },
                                            {
                                                "children": [
                                                    {
                                                        "children": [],
                                                        "depth": 3,
                                                        "name": "token0",
                                                        "value": 266
                                                    },
                                                    {
                                                        "children": [],
                                                        "depth": 3,
                                                        "name": "token1",
                                                        "value": 308
                                                    },
                                                    {
                                                        "children": [],
                                                        "depth": 3,
                                                        "name": "fee",
                                                        "value": 251
                                                    },
                                                    {
                                                        "children": [],
                                                        "depth": 3,
                                                        "name": "transferFrom",
                                                        "value": 9025
                                                    }
                                                ],
                                                "depth": 2,
                                                "name": "uniswapV3SwapCallback",
                                                "value": 11683
                                            },
                                            {
                                                "children": [],
                                                "depth": 2,
                                                "name": "balanceOf",
                                                "value": 534
                                            }
                                        ],
                                        "depth": 1,
                                        "name": "swap",
                                        "value": 72733
                                    }
                                ],
                                "depth": 0,
                                "name": "Executed Gas",
                                "value": 76523
                            }
                        ],
                        "depth": -1,
                        "name": "Actual Gas Used",
                        "value": 139323
                    },
                    {
                        "children": [],
                        "depth": -1,
                        "name": "Refunded Gas",
                        "value": 0
                    }
                ],
                "depth": -2,
                "name": "Total Gas",
                "value": 139323
            }
        ],
        "isConfirmed": true,
        "mainTrace": [
            {
                "children": [
                    {
                        "children": [
                            {
                                "children": [],
                                "depth": 1,
                                "id": 1,
                                "order": 1
                            },
                            {
                                "children": [
                                    {
                                        "children": [
                                            {
                                                "children": [],
                                                "depth": 3,
                                                "id": 4,
                                                "order": 4
                                            }
                                        ],
                                        "depth": 2,
                                        "id": 3,
                                        "order": 3
                                    },
                                    {
                                        "children": [],
                                        "depth": 2,
                                        "id": 5,
                                        "order": 5
                                    },
                                    {
                                        "children": [
                                            {
                                                "children": [],
                                                "depth": 3,
                                                "id": 7,
                                                "order": 7
                                            },
                                            {
                                                "children": [],
                                                "depth": 3,
                                                "id": 8,
                                                "order": 8
                                            },
                                            {
                                                "children": [],
                                                "depth": 3,
                                                "id": 9,
                                                "order": 9
                                            },
                                            {
                                                "children": [
                                                    {
                                                        "children": [],
                                                        "depth": 4,
                                                        "id": 11,
                                                        "order": 11
                                                    }
                                                ],
                                                "depth": 3,
                                                "id": 10,
                                                "order": 10
                                            }
                                        ],
                                        "depth": 2,
                                        "id": 6,
                                        "order": 6
                                    },
                                    {
                                        "children": [],
                                        "depth": 2,
                                        "id": 12,
                                        "order": 12
                                    },
                                    {
                                        "children": [],
                                        "depth": 2,
                                        "id": 13,
                                        "order": 13
                                    }
                                ],
                                "depth": 1,
                                "id": 2,
                                "order": 2
                            }
                        ],
                        "depth": 0,
                        "id": 0,
                        "order": 0
                    }
                ],
                "depth": -1,
                "id": -1,
                "order": -1
            }
        ],
        "mainTraceNodeCount": 14,
        "parentIdMap": {
            "0": -1,
            "1": 0,
            "10": 6,
            "11": 10,
            "12": 2,
            "13": 2,
            "2": 0,
            "3": 2,
            "4": 3,
            "5": 2,
            "6": 2,
            "7": 6,
            "8": 6,
            "9": 6
        },
        "tidyTrace": [
            {
                "children": [
                    {
                        "children": [
                            {
                                "children": [
                                    {
                                        "children": [
                                            {
                                                "children": [],
                                                "depth": 3,
                                                "id": 4,
                                                "order": 4
                                            }
                                        ],
                                        "depth": 2,
                                        "id": 3,
                                        "order": 3
                                    },
                                    {
                                        "children": [
                                            {
                                                "children": [
                                                    {
                                                        "children": [],
                                                        "depth": 4,
                                                        "id": 11,
                                                        "order": 11
                                                    }
                                                ],
                                                "depth": 3,
                                                "id": 10,
                                                "order": 10
                                            }
                                        ],
                                        "depth": 2,
                                        "id": 6,
                                        "order": 6
                                    },
                                    {
                                        "children": [],
                                        "depth": 2,
                                        "id": 13,
                                        "order": 13
                                    }
                                ],
                                "depth": 1,
                                "id": 2,
                                "order": 2
                            }
                        ],
                        "depth": 0,
                        "id": 0,
                        "order": 0
                    }
                ],
                "depth": -1,
                "id": -1,
                "order": -1
            }
        ],
        "tidyTraceNodeCount": 8
    },
    "state_change": {
        "stateChanges": [
            {
                "address": "0x6dea81c8171d0ba574754ef6f8b412f2ed88c54d",
                "erc": "ERC-20",
                "slots": [
                    {
                        "current": "0x000000000000000000000000000000000000000000000435f3a65962ee30e4c5",
                        "key": "0x86ea9b8a927f2ecadcccf4b885373b29ce7aac8ff720935d649fcf7f8d92af0b",
                        "prev": "0x0000000000000000000000000000000000000000000002a48c87073296c9a2b0"
                    },
                    {
                        "current": "0x00000000000000000000000000000000000000000000d1710d36d19d35f86c09",
                        "key": "0x26ce9735349d982da55f447226bff79b0d829bf2b261bb6d9f14dc2e7902ea31",
                        "prev": "0x00000000000000000000000000000000000000000000d302745623cd8d5fae1e"
                    }
                ],
                "storageVariables": [
                    {
                        "name": "_balances",
                        "type": "mapping(address => uint256)",
                        "value": {
                            "pairs": [
                                {
                                    "key": "0x2ff2e3b3afaefa8dea19ec9afac95bef4d8af4df",
                                    "value": {
                                        "current": "19884700185863975396549",
                                        "prev": "12480125064028682298032",
                                        "typeTag": 1
                                    }
                                },
                                {
                                    "key": "0xd1d5a4c0ea98971894772dcd6d2f1dc71083c44e",
                                    "value": {
                                        "current": "989060029178929409977353",
                                        "prev": "996464604300764703075870",
                                        "typeTag": 1
                                    }
                                }
                            ],
                            "typeTag": 4
                        }
                    }
                ]
            },
            {
                "address": "0xc02aaa39b223fe8d0a0e5c4f27ead9083c756cc2",
                "erc": "ERC-20",
                "slots": [
                    {
                        "current": "0x0000000000000000000000000000000000000000000000092e03b2e05792c4e7",
                        "key": "0x4c53040cebec771172731fb12a2e3e3baefa059302ce3d5cdcd34492df33e9a8",
                        "prev": "0x00000000000000000000000000000000000000000000000904618ec56166c4e7"
                    },
                    {
                        "current": "0x0000000000000000000000000000000000000000000000028c418afbbb5c0000",
                        "key": "0x596e06c3e121e71f94de09c4f8af843c7995cf31d45f937b2684100afc84d4b2",
                        "prev": "0x000000000000000000000000000000000000000000000002b5e3af16b1880000"
                    }
                ],
                "storageVariables": [
                    {
                        "name": "balanceOf",
                        "type": "mapping(address => uint256)",
                        "value": {
                            "pairs": [
                                {
                                    "key": "0xd1d5a4c0ea98971894772dcd6d2f1dc71083c44e",
                                    "value": {
                                        "current": "169336387090672436455",
                                        "prev": "166336387090672436455",
                                        "typeTag": 1
                                    }
                                },
                                {
                                    "key": "0xd64137f743432392538a8f84e8e571fa09f21c37",
                                    "value": {
                                        "current": "47000000000000000000",
                                        "prev": "50000000000000000000",
                                        "typeTag": 1
                                    }
                                }
                            ],
                            "typeTag": 4
                        }
                    }
                ]
            },
            {
                "address": "0xd1d5a4c0ea98971894772dcd6d2f1dc71083c44e",
                "erc": "",
                "slots": [
                    {
                        "current": "0x010000000000000000013677c1bb0cf2f8a0011092fffcac6c8698f063c4179b",
                        "key": "0x0000000000000000000000000000000000000000000000000000000000000a7f",
                        "prev": "0x010000000000000000013650b8088df9fb64dc0315fffd9e39915aba62f2509d"
                    },
                    {
                        "current": "0x00000000000000000000000000000000000000000000040cd724981ed869ff4e",
                        "key": "0x0000000000000000000000000000000000000000000000000000000000000004",
                        "prev": "0x0000000000000000000000000000000000000000000003e5412f2f15c70963c3"
                    },
                    {
                        "current": "0x000000000000000000000000000000000565817cea61002e5add813c52d9f593",
                        "key": "0x0000000000000000000000000000000000000000000000000000000000000002",
                        "prev": "0x0000000000000000000000000000000005657981504e98f0cc416688a5a355a4"
                    },
                    {
                        "current": "0x0001001c201c200a77fecf0b0000000000000000052a4f2287303a6c75bb6d96",
                        "key": "0x0000000000000000000000000000000000000000000000000000000000000000",
                        "prev": "0x0001001c201c200a76fece6e0000000000000000051ff22d83f6ded8a7542970"
                    },
                    {
                        "current": "0x0000000000000000000000000000000d11d771436181d411cf5cfc7c419d8cba",
                        "key": "0xaa10ec12ce22f0f126af54829b13cef770f43f19c5a21460c48ec856ca0d97aa",
                        "prev": "0x00000000000000000000000000000000073286b248391eb624f74a1ce220e205"
                    },
                    {
                        "current": "0x000000000000000000000000000000000564b6c40d1d3979537dcb8c4d518cc7",
                        "key": "0xaa10ec12ce22f0f126af54829b13cef770f43f19c5a21460c48ec856ca0d97ab",
                        "prev": "0x000000000000000000000000000000000000c50cb7687207d02e82b2179263b0"
                    },
                    {
                        "current": "0x0163c184af000000000000000001367726fa44ada328400965fffcaf7b726e2c",
                        "key": "0xaa10ec12ce22f0f126af54829b13cef770f43f19c5a21460c48ec856ca0d97ac",
                        "prev": "0x01000292ec00000000000000000000009ac0c8455577c1072dfffffcf1142ac4"
                    }
                ],
                "storageVariables": []
            }
        ]
    }
}