{
    "balance_change": {
        "balanceChanges": [
            {
                "account": "0xd551234ae421e3bcba99a0da6d736074f22192ff",
                "assets": [
                    {
                        "address": "0xe41d2489571d322189246dafa5ebde1f4699f498",
                        "amount": "1,068.285",
                        "iconUrl": "https://assets.blocksec.com/icon/6c4cfed2c799afeb85b9e6ad087e66bdd588f8169e94dcf9e90f3048ceb6c6f3.png",
                        "isERC1155": false,
                        "isERC721": false,
                        "sign": false,
                        "value": ""
                    }
                ]
            },
            {
                "account": "0x548d500e7d1584aff5c4e51d49bc52cbe35dc80f",
                "assets": [
                    {
                        "address": "0xe41d2489571d322189246dafa5ebde1f4699f498",
                        "amount": "1,068.285",
                        "iconUrl": "https://assets.blocksec.com/icon/6c4cfed2c799afeb85b9e6ad087e66bdd588f8169e94dcf9e90f3048ceb6c6f3.png",
                        "isERC1155": false,
                        "isERC721": false,
                        "sign": true,
                        "value": ""
                    }
                ]
            }
        ]
    },
    "profile": {
        "basic_info": {
            "baseFee": "",
            "blockNumber": 6709685,
            "callData": "0xa9059cbb000000000000000000000000548d500e7d1584aff5c4e51d49bc52cbe35dc80f000000000000000000000000000000000000000000000039e96ebb7bc62c8000",
            "debugEnable": true,
            "errorInfo": "",
            "eventCount": 1,
            "feeRecipient": "0xea674fdde714fd979de3edf0f56aa9716b898ec8",
            "formatValue": "0",
            "gasLimit": 104340,
            "gasPrice": "30",
            "gasUsed": 52170,
            "intTxnCount": 0,
            "internalRevert": false,
            "internalRevertMessage": "",
            "isContractCreation": false,
            "isFlashloan": false,
            "maxFee": "",
            "nonce": 1110794,
            "overwritedBlockNumber": -1,
            "priorityFee": "",
            "receiver": "0xe41d2489571d322189246dafa5ebde1f4699f498",
            "revertMessage": "",
            "sender": "0xd551234ae421e3bcba99a0da6d736074f22192ff",
            "simulationEnable": true,
            "sourceTxnHash": "0x7ca2fd0cb81de002e7d15aa3c0f32b0e546479b3eeb528a7e2b04aa6985a6fa8",
            "status": true,
            "timestamp": "2018-11-15T15:06:39Z",
            "transactionFee": "0.0015651",
            "txnHash": "0x7ca2fd0cb81de002e7d15aa3c0f32b0e546479b3eeb528a7e2b04aa6985a6fa8",
            "txnIndex": 111,
            "type": 0,
            "value": "0"
        },
        "fund_flow": [
            {
                "amount": "1,068.285",
                "from": "0xd551234ae421e3bcba99a0da6d736074f22192ff",
                "id": 1,
                "isERC1155": false,
                "isERC721": false,
                "isReverted": false,
                "order": 1,
                "to": "0x548d500e7d1584aff5c4e51d49bc52cbe35dc80f",
                "token": "0xe41d2489571d322189246dafa5ebde1f4699f498"
            }
        ],
        "token_infos": [
            {
                "address": "0xeeeeeeeeeeeeeeeeeeeeeeeeeeeeeeeeeeeeeeee",
                "decimals": 18
            },
            {
                "address": "0xc02aaa39b223fe8d0a0e5c4f27ead9083c756cc2",
                "decimals": 18
            },
            {
                "address": "0xe41d2489571d322189246dafa5ebde1f4699f498",
                "decimals": 18
            }
        ]
    },
    "address_label": {
        "labels": [
            {
                "address": "0xeeeeeeeeeeeeeeeeeeeeeeeeeeeeeeeeeeeeeeee",
                "label": "Ether"
            },
            {
                "address": "0xe41d2489571d322189246dafa5ebde1f4699f498",
                "label": "0x: ZRX Token"
            },
            {
                "address": "0xd551234ae421e3bcba99a0da6d736074f22192ff",
                "label": "Binance 2"
            },
            {
                "address": "0x0000000000000000000000000000000000000001",
                "label": "Precompiled"
            },
            {
                "address": "0x0000000000000000000000000000000000000002",
                "label": "Precompiled"
            },
            {
                "address": "0x0000000000000000000000000000000000000003",
                "label": "Precompiled"
            },
            {
                "address": "0x0000000000000000000000000000000000000004",
                "label": "Precompiled"
            }
        ]
    },
    "trace": {
        "accountLabels": null,
        "dataMap": {
            "-1": {
                "invocation": {
                    "address": "0xd551234ae421e3bcba99a0da6d736074f22192ff",
                    "callData": "",
                    "decodedMethod": null,
                    "errorInfo": "",
                    "fromAddress": "",
                    "gasUsed": 0,
                    "id": -1,
                    "methodDecoded": false,
                    "operation": "",
                    "output": "",
                    "revert": false,
                    "revertMessage": "",
                    "selector": "",
                    "status": false,
                    "value": ""
                },
                "nodeType": 0
            },
            "0": {
                "invocation": {
                    "address": "0xe41d2489571d322189246dafa5ebde1f4699f498",
                    "callData": "0x000000000000000000000000548d500e7d1584aff5c4e51d49bc52cbe35dc80f000000000000000000000000000000000000000000000039e96ebb7bc62c8000",
                    "decodedMethod": {
                        "callParams": [
                            {
                                "name": "_to",
                                "type": "address",
                                "value": "0x548d500e7d1584aff5c4e51d49bc52cbe35dc80f"
                            },
                            {
                                "decimalAvailable": true,
                                "name": "_value",
                                "type": "uint256",
                                "value": "1,068,285,000,000,000,000,000"
                            }
                        ],
                        "constructorArguments": "",
                        "name": "transfer",
                        "returnParams": [
                            {
                                "name": "",
                                "type": "bool",
                                "value": true
                            }
                        ],
                        "signature": "transfer(address,uint256)"
                    },
                    "errorInfo": "",
                    "fromAddress": "0xd551234ae421e3bcba99a0da6d736074f22192ff",
                    "gasUsed": 52170,
                    "id": 0,
                    "methodDecoded": true,
                    "operation": "CALL",
                    "output": "0x0000000000000000000000000000000000000000000000000000000000000001",
                    "revert": false,
                    "revertMessage": "",
                    "selector": "0xa9059cbb",
                    "status": true,
                    "value": "0"
                },
                "nodeType": 0
            },
            "1": {
                "event": {
                    "contract": "0xe41d2489571d322189246dafa5ebde1f4699f498",
                    "decodedLog": {
                        "name": "Transfer",
                        "params": [
                            {
                                "name": "_from",
                                "type": "address",
                                "value": "0xd551234ae421e3bcba99a0da6d736074f22192ff"
                            },
                            {
                                "name": "_to",
                                "type": "address",
                                "value": "0x548d500e7d1584aff5c4e51d49bc52cbe35dc80f"
                            },
                            {
                                "decimalAvailable": true,
                                "name": "_value",
                                "type": "uint256",
                                "value": "1,068,285,000,000,000,000,000"
                            }
                        ],
                        "signature": "Transfer(address,address,uint256)"
                    },
                    "id": 1,
                    "logData": "0x000000000000000000000000000000000000000000000039e96ebb7bc62c8000",
                    "logDecoded": true,
                    "operation": "EVENT",
                    "revert": false,
                    "status": true,
                    "topics": [
                        "0xddf252ad1be2c89b69c2b068fc378daa952ba7f163c4a11628f55a4df523b3ef",
                        "0x000000000000000000000000d551234ae421e3bcba99a0da6d736074f22192ff",
                        "0x000000000000000000000000548d500e7d1584aff5c4e51d49bc52cbe35dc80f"
                    ]
                },
                "nodeType": 1
            }
        },
        "gasFlame": [
            {
                "children": [
                    {
                        "children": [
                            {
                                "children": [],
                                "depth": 0,
                                "name": "Initial Gas",
                                "value": 23320
                            },
                            {
                                "children": [],
                                "depth": 0,
                                "name": "Executed Gas",
                                "value": 28850
                            }
                        ],
                        "depth": -1,
                        "name": "Actual Gas Used",
                        "value": 52170
                    },
                    {
                        "children": [],
                        "depth": -1,
                        "name": "Refunded Gas",
                        "value": 0
                    }
                ],
                "depth": -2,
                "name": "Total Gas",
                "value": 52170
            }
        ],
        "isConfirmed": true,
        "mainTrace": [
            {
                "children": [
                    {
                        "children": [
                            {
                                "children": [],
                                "depth": 1,
                                "id": 1,
                                "order": 1
                            }
                        ],
                        "depth": 0,
                        "id": 0,
                        "order": 0
                    }
                ],
                "depth": -1,
                "id": -1,
                "order": -1
            }
        ],
        "mainTraceNodeCount": 2,
        "parentIdMap": {
            "0": -1,
            "1": 0
        },
        "tidyTrace": [
            {
                "children": [
                    {
                        "children": [
                            {
                                "children": [],
                                "depth": 1,
                                "id": 1,
                                "order": 1
                            }
                        ],
                        "depth": 0,
                        "id": 0,
                        "order": 0
                    }
                ],
                "depth": -1,
                "id": -1,
                "order": -1
            }
        ],
        "tidyTraceNodeCount": 2
    },
    "state_change": {
        "stateChanges": [
            {
                "address": "0xe41d2489571d322189246dafa5ebde1f4699f498",
                "erc": "ERC-20",
                "slots": [
                    {
                        "current": "0x000000000000000000000000000000000000000000015c749dec282d3941b000",
                        "key": "0xd8a2d997c829e5fb34fd28799da940d8710277910bb394057710bcdfe67feb2f",
                        "prev": "0x000000000000000000000000000000000000000000015cae875ae3a8ff6e3000"
                    },
                    {
                        "current": "0x000000000000000000000000000000000000000000000039e96ebb7bc62c8000",
                        "key": "0xeb02287f23584022a5f456b8cf7ade067b512456d58500e0de03f083ffdf9324",
                        "prev": "0x0000000000000000000000000000000000000000000000000000000000000000"
                    }
                ],
                "storageVariables": []
            }
        ]
    }
}