{
    "balance_change": {
        "balanceChanges": [
            {
                "account": "0x98c3d3183c4b8a650614ad179a1a98be0a8d6b8e",
                "assets": [
                    {
                        "address": "0x77777feddddffc19ff86db637967013e6c6a116c",
                        "amount": "3,548.9",
                        "iconUrl": "https://assets.blocksec.com/icon/fc8aa6591dd634272674bfdaac899fc4a82e4ce8fdeae9688de68d0850123a11.png",
                        "isERC1155": false,
                        "isERC721": false,
                        "sign": false,
                        "value": "10149.853999999999559"
                    }
                ]
            },
            {
                "account": "0x193f65e898d60a4c3d89f8aef11ba35d1bda4e47",
                "assets": [
                    {
                        "address": "0x77777feddddffc19ff86db637967013e6c6a116c",
                        "amount": "3,548.9",
                        "iconUrl": "https://assets.blocksec.com/icon/fc8aa6591dd634272674bfdaac899fc4a82e4ce8fdeae9688de68d0850123a11.png",
                        "isERC1155": false,
                        "isERC721": false,
                        "sign": true,
                        "value": "10149.853999999999559"
                    }
                ]
            }
        ]
    },
    "profile": {
        "basic_info": {
            "baseFee": "11.362286964",
            "blockNumber": 18091756,
            "callData": "0xef61a6db00000000000000000000000077777feddddffc19ff86db637967013e6c6a116c0000000000000000000000000000000000000000000000c062e1931f37ca0000",
            "debugEnable": true,
            "errorInfo": "",
            "eventCount": 1,
            "feeRecipient": "0x4838b106fce9647bdf1e7877bf73ce8b0bad5f97",
            "formatValue": "0",
            "gasLimit": 400000,
            "gasPrice": "15.362286964",
            "gasUsed": 64220,
            "intTxnCount": 2,
            "internalRevert": false,
            "internalRevertMessage": "",
            "isContractCreation": false,
            "isFlashloan": false,
            "maxFee": "28.382557718",
            "nonce": 31102,
            "overwritedBlockNumber": -1,
            "priorityFee": "4",
            "receiver": "0x98c3d3183c4b8a650614ad179a1a98be0a8d6b8e",
            "revertMessage": "",
            "sender": "0x5a16d47bfd662ba92774e4cbf221beb9aff92220",
            "simulationEnable": true,
            "sourceTxnHash": "0x7cd08ace150a745e7f083f1e43270328ada40a6b036362bffb5f73354e835873",
            "status": true,
            "timestamp": "2023-09-08T12:40:11Z",
            "transactionFee": "0.00098656606882808",
            "txnHash": "0x7cd08ace150a745e7f083f1e43270328ada40a6b036362bffb5f73354e835873",
            "txnIndex": 28,
            "type": 2,
            "value": "0"
        },
        "fund_flow": [
            {
                "amount": "3,548.9",
                "from": "0x98c3d3183c4b8a650614ad179a1a98be0a8d6b8e",
                "id": 1,
                "isERC1155": false,
                "isERC721": false,
                "isReverted": false,
                "order": 1,
                "to": "0x193f65e898d60a4c3d89f8aef11ba35d1bda4e47",
                "token": "0x77777feddddffc19ff86db637967013e6c6a116c"
            }
        ],
        "token_infos": [
            {
                "address": "0x77777feddddffc19ff86db637967013e6c6a116c",
                "decimals": 18
            },
            {
                "address": "0xc02aaa39b223fe8d0a0e5c4f27ead9083c756cc2",
                "decimals": 18
            },
            {
                "address": "0xeeeeeeeeeeeeeeeeeeeeeeeeeeeeeeeeeeeeeeee",
                "decimals": 18
            }
        ]
    },
    "address_label": {
        "labels": [
            {
                "address": "0x0000000000000000000000000000000000000004",
                "label": "Precompiled"
            },
            {
                "address": "0xeeeeeeeeeeeeeeeeeeeeeeeeeeeeeeeeeeeeeeee",
                "label": "Ether"
            },
            {
                "address": "0x98c3d3183c4b8a650614ad179a1a98be0a8d6b8e",
                "label": "MEV Bot: 0x98c...b8e"
            },
            {
                "address": "0x193f65e898d60a4c3d89f8aef11ba35d1bda4e47",
                "label": "BINANCE"
            },
            {
                "address": "0x77777feddddffc19ff86db637967013e6c6a116c",
                "label": "Tornado.Cash: TORN Token"
            },
            {
                "address": "0x0000000000000000000000000000000000000001",
                "label": "Precompiled"
            },
            {
                "address": "0x0000000000000000000000000000000000000002",
                "label": "Precompiled"
            },
            {
                "address": "0x0000000000000000000000000000000000000003",
                "label": "Precompiled"
            }
        ]
    },
    "trace": {
        "accountLabels": null,
        "dataMap": {
            "-1": {
                "invocation": {
                    "address": "0x5a16d47bfd662ba92774e4cbf221beb9aff92220",
                    "callData": "",
                    "decodedMethod": null,
                    "errorInfo": "",
                    "fromAddress": "",
                    "gasUsed": 0,
                    "id": -1,
                    "methodDecoded": false,
                    "operation": "",
                    "output": "",
                    "revert": false,
                    "revertMessage": "",
                    "selector": "",
                    "status": false,
                    "value": ""
                },
                "nodeType": 0
            },
            "0": {
                "invocation": {
                    "address": "0x98c3d3183c4b8a650614ad179a1a98be0a8d6b8e",
                    "callData": "0x00000000000000000000000077777feddddffc19ff86db637967013e6c6a116c0000000000000000000000000000000000000000000000c062e1931f37ca0000",
                    "decodedMethod": null,
                    "errorInfo": "",
                    "fromAddress": "0x5a16d47bfd662ba92774e4cbf221beb9aff92220",
                    "gasUsed": 64220,
                    "id": 0,
                    "methodDecoded": false,
                    "operation": "CALL",
                    "output": "",
                    "revert": false,
                    "revertMessage": "",
                    "selector": "0xef61a6db",
                    "status": true,
                    "value": "0"
                },
                "nodeType": 0
            },
            "1": {
                "invocation": {
                    "address": "0x77777feddddffc19ff86db637967013e6c6a116c",
                    "callData": "0x00000000000000000000000098c3d3183c4b8a650614ad179a1a98be0a8d6b8e",
                    "decodedMethod": {
                        "callParams": [
                            {
                                "name": "account",
                                "type": "address",
                                "value": "0x98c3d3183c4b8a650614ad179a1a98be0a8d6b8e"
                            }
                        ],
                        "constructorArguments": "",
                        "name": "balanceOf",
                        "returnParams": [
                            {
                                "decimalAvailable": true,
                                "name": "",
                                "type": "uint256",
                                "value": "7,530,277,722,822,671,692,145"
                            }
                        ],
                        "signature": "balanceOf(address)"
                    },
                    "errorInfo": "",
                    "fromAddress": "0x98c3d3183c4b8a650614ad179a1a98be0a8d6b8e",
                    "gasUsed": 2678,
                    "id": 1,
                    "methodDecoded": true,
                    "operation": "STATICCALL",
                    "output": "0x0000000000000000000000000000000000000000000001983798abc932c57171",
                    "revert": false,
                    "revertMessage": "",
                    "selector": "0x70a08231",
                    "status": true,
                    "value": "0"
                },
                "nodeType": 0
            },
            "2": {
                "invocation": {
                    "address": "0x77777feddddffc19ff86db637967013e6c6a116c",
                    "callData": "0x000000000000000000000000193f65e898d60a4c3d89f8aef11ba35d1bda4e470000000000000000000000000000000000000000000000c062e1931f37ca0000",
                    "decodedMethod": {
                        "callParams": [
                            {
                                "name": "recipient",
                                "type": "address",
                                "value": "0x193f65e898d60a4c3d89f8aef11ba35d1bda4e47"
                            },
                            {
                                "decimalAvailable": true,
                                "name": "amount",
                                "type": "uint256",
                                "value": "3,548,900,000,000,000,000,000"
                            }
                        ],
                        "constructorArguments": "",
                        "name": "transfer",
                        "returnParams": [
                            {
                                "name": "",
                                "type": "bool",
                                "value": true
                            }
                        ],
                        "signature": "transfer(address,uint256)"
                    },
                    "errorInfo": "",
                    "fromAddress": "0x98c3d3183c4b8a650614ad179a1a98be0a8d6b8e",
                    "gasUsed": 30518,
                    "id": 2,
                    "methodDecoded": true,
                    "operation": "CALL",
                    "output": "0x0000000000000000000000000000000000000000000000000000000000000001",
                    "revert": false,
                    "revertMessage": "",
                    "selector": "0xa9059cbb",
                    "status": true,
                    "value": "0"
                },
                "nodeType": 0
            },
            "3": {
                "event": {
                    "contract": "0x77777feddddffc19ff86db637967013e6c6a116c",
                    "decodedLog": {
                        "name": "Transfer",
                        "params": [
                            {
                                "name": "from",
                                "type": "address",
                                "value": "0x98c3d3183c4b8a650614ad179a1a98be0a8d6b8e"
                            },
                            {
                                "name": "to",
                                "type": "address",
                                "value": "0x193f65e898d60a4c3d89f8aef11ba35d1bda4e47"
                            },
                            {
                                "decimalAvailable": true,
                                "name": "value",
                                "type": "uint256",
                                "value": "3,548,900,000,000,000,000,000"
                            }
                        ],
                        "signature": "Transfer(address,address,uint256)"
                    },
                    "id": 3,
                    "logData": "0x0000000000000000000000000000000000000000000000c062e1931f37ca0000",
                    "logDecoded": true,
                    "operation": "EVENT",
                    "revert": false,
                    "status": true,
                    "topics": [
                        "0xddf252ad1be2c89b69c2b068fc378daa952ba7f163c4a11628f55a4df523b3ef",
                        "0x00000000000000000000000098c3d3183c4b8a650614ad179a1a98be0a8d6b8e",
                        "0x000000000000000000000000193f65e898d60a4c3d89f8aef11ba35d1bda4e47"
                    ]
                },
                "nodeType": 1
            }
        },
        "gasFlame": [
            {
                "children": [
                    {
                        "children": [
                            {
                                "children": [],
                                "depth": 0,
                                "name": "Initial Gas",
                                "value": 21644
                            },
                            {
                                "children": [
                                    {
                                        "children": [],
                                        "depth": 1,
                                        "name": "balanceOf",
                                        "value": 2678
                                    },
                                    {
                                        "children": [],
                                        "depth": 1,
                                        "name": "transfer",
                                        "value": 30518
                                    }
                                ],
                                "depth": 0,
                                "name": "Executed Gas",
                                "value": 42576
                            }
                        ],
                        "depth": -1,
                        "name": "Actual Gas Used",
                        "value": 64220
                    },
                    {
                        "children": [],
                        "depth": -1,
                        "name": "Refunded Gas",
                        "value": 0
                    }
                ],
                "depth": -2,
                "name": "Total Gas",
                "value": 64220
            }
        ],
        "isConfirmed": true,
        "mainTrace": [
            {
                "children": [
                    {
                        "children": [
                            {
                                "children": [],
                                "depth": 1,
                                "id": 1,
                                "order": 1
                            },
                            {
                                "children": [
                                    {
                                        "children": [],
                                        "depth": 2,
                                        "id": 3,
                                        "order": 3
                                    }
                                ],
                                "depth": 1,
                                "id": 2,
                                "order": 2
                            }
                        ],
                        "depth": 0,
                        "id": 0,
                        "order": 0
                    }
                ],
                "depth": -1,
                "id": -1,
                "order": -1
            }
        ],
        "mainTraceNodeCount": 4,
        "parentIdMap": {
            "0": -1,
            "1": 0,
            "2": 0,
            "3": 2
        },
        "tidyTrace": [
            {
                "children": [
                    {
                        "children": [
                            {
                                "children": [
                                    {
                                        "children": [],
                                        "depth": 2,
                                        "id": 3,
                                        "order": 3
                                    }
                                ],
                                "depth": 1,
                                "id": 2,
                                "order": 2
                            }
                        ],
                        "depth": 0,
                        "id": 0,
                        "order": 0
                    }
                ],
                "depth": -1,
                "id": -1,
                "order": -1
            }
        ],
        "tidyTraceNodeCount": 3
    },
    "state_change": {
        "stateChanges": [
            {
                "address": "0x77777feddddffc19ff86db637967013e6c6a116c",
                "erc": "ERC-20",
                "slots": [
                    {
                        "current": "0x0000000000000000000000000000000000000000000000d7d4b718a9fafb7171",
                        "key": "0xf4e54bb51e10c9ff52102ae731b015539d4e9d60e64768267b59846a24141fd7",
                        "prev": "0x0000000000000000000000000000000000000000000001983798abc932c57171"
                    },
                    {
                        "current": "0x0000000000000000000000000000000000000000000000c062e1931f37ca0000",
                        "key": "0x116ac1cfcbac847100ade317de58007517509526dec35a0eabfa784bd1b74420",
                        "prev": "0x0000000000000000000000000000000000000000000000000000000000000000"
                    }
                ],
                "storageVariables": [
                    {
                        "name": "_balances",
                        "type": "mapping(address => uint256)",
                        "value": {
                            "pairs": [
                                {
                                    "key": "0x193f65e898d60a4c3d89f8aef11ba35d1bda4e47",
                                    "value": {
                                        "current": "3548900000000000000000",
                                        "prev": "0",
                                        "typeTag": 1
                                    }
                                },
                                {
                                    "key": "0x98c3d3183c4b8a650614ad179a1a98be0a8d6b8e",
                                    "value": {
                                        "current": "3981377722822671692145",
                                        "prev": "7530277722822671692145",
                                        "typeTag": 1
                                    }
                                }
                            ],
                            "typeTag": 4
                        }
                    }
                ]
            }
        ]
    }
}