{
    "balance_change": {
        "balanceChanges": [
            {
                "account": "0x0000000000000000000000000000000000000000",
                "assets": [
                    {
                        "address": "0xd8971bd47b0320b46a89bc45394056a2a3af02a1",
                        "amount": "1",
                        "iconUrl": "",
                        "isERC1155": false,
                        "isERC721": true,
                        "sign": false,
                        "tokenID": "278",
                        "value": ""
                    }
                ]
            },
            {
                "account": "0x8a0c17db41577f792625db42618819be88ccdfb9",
                "assets": [
                    {
                        "address": "0xd8971bd47b0320b46a89bc45394056a2a3af02a1",
                        "amount": "1",
                        "iconUrl": "",
                        "isERC1155": false,
                        "isERC721": true,
                        "sign": true,
                        "tokenID": "278",
                        "value": ""
                    }
                ]
            }
        ]
    },
    "profile": {
        "basic_info": {
            "baseFee": "15.367011558",
            "blockNumber": 14994307,
            "callData": "0xa0712d680000000000000000000000000000000000000000000000000000000000000001",
            "debugEnable": true,
            "errorInfo": "",
            "eventCount": 1,
            "feeRecipient": "0x829bd824b016326a401d083b33d092293333a830",
            "formatValue": "0",
            "gasLimit": 75835,
            "gasPrice": "16.367011558",
            "gasUsed": 75835,
            "intTxnCount": 0,
            "internalRevert": false,
            "internalRevertMessage": "",
            "isContractCreation": false,
            "isFlashloan": false,
            "maxFee": "17.778025966",
            "nonce": 17,
            "overwritedBlockNumber": -1,
            "priorityFee": "1",
            "receiver": "0xd8971bd47b0320b46a89bc45394056a2a3af02a1",
            "revertMessage": "",
            "sender": "0x8a0c17db41577f792625db42618819be88ccdfb9",
            "simulationEnable": true,
            "sourceTxnHash": "0x7c50c4a6516045ed11a426d888de7c1f7ba43803b376fc42a6d4172da528eb18",
            "status": true,
            "timestamp": "2022-06-20T03:17:04Z",
            "transactionFee": "0.00124119232150093",
            "txnHash": "0x7c50c4a6516045ed11a426d888de7c1f7ba43803b376fc42a6d4172da528eb18",
            "txnIndex": 72,
            "type": 2,
            "value": "0"
        },
        "fund_flow": [
            {
                "amount": "1",
                "from": "0x0000000000000000000000000000000000000000",
                "id": 1,
                "isERC1155": false,
                "isERC721": true,
                "isReverted": false,
                "order": 1,
                "to": "0x8a0c17db41577f792625db42618819be88ccdfb9",
                "token": "0xd8971bd47b0320b46a89bc45394056a2a3af02a1",
                "tokenID": "278"
            }
        ],
        "token_infos": [
            {
                "address": "0xc02aaa39b223fe8d0a0e5c4f27ead9083c756cc2",
                "decimals": 18
            },
            {
                "address": "0xeeeeeeeeeeeeeeeeeeeeeeeeeeeeeeeeeeeeeeee",
                "decimals": 18
            }
        ]
    },
    "address_label": {
        "labels": [
            {
                "address": "0x0000000000000000000000000000000000000004",
                "label": "Precompiled"
            },
            {
                "address": "0xeeeeeeeeeeeeeeeeeeeeeeeeeeeeeeeeeeeeeeee",
                "label": "Ether"
            },
            {
                "address": "0x8a0c17db41577f792625db42618819be88ccdfb9",
                "label": "tissuehow.nft"
            },
            {
                "address": "0xd8971bd47b0320b46a89bc45394056a2a3af02a1",
                "label": "RoboCosmic: RBC Token"
            },
            {
                "address": "0x0000000000000000000000000000000000000001",
                "label": "Precompiled"
            },
            {
                "address": "0x0000000000000000000000000000000000000002",
                "label": "Precompiled"
            },
            {
                "address": "0x0000000000000000000000000000000000000003",
                "label": "Precompiled"
            }
        ]
    },
    "trace": {
        "accountLabels": null,
        "dataMap": {
            "-1": {
                "invocation": {
                    "address": "0x8a0c17db41577f792625db42618819be88ccdfb9",
                    "callData": "",
                    "decodedMethod": null,
                    "errorInfo": "",
                    "fromAddress": "",
                    "gasUsed": 0,
                    "id": -1,
                    "methodDecoded": false,
                    "operation": "",
                    "output": "",
                    "revert": false,
                    "revertMessage": "",
                    "selector": "",
                    "status": false,
                    "value": ""
                },
                "nodeType": 0
            },
            "0": {
                "invocation": {
                    "address": "0xd8971bd47b0320b46a89bc45394056a2a3af02a1",
                    "callData": "0x0000000000000000000000000000000000000000000000000000000000000001",
                    "decodedMethod": {
                        "callParams": [
                            {
                                "name": "quantity",
                                "type": "uint256",
                                "value": "1"
                            }
                        ],
                        "constructorArguments": "",
                        "name": "mint",
                        "returnParams": [],
                        "signature": "mint(uint256)"
                    },
                    "errorInfo": "",
                    "fromAddress": "0x8a0c17db41577f792625db42618819be88ccdfb9",
                    "gasUsed": 75835,
                    "id": 0,
                    "methodDecoded": true,
                    "operation": "CALL",
                    "output": "",
                    "revert": false,
                    "revertMessage": "",
                    "selector": "0xa0712d68",
                    "status": true,
                    "value": "0"
                },
                "nodeType": 0
            },
            "1": {
                "event": {
                    "contract": "0xd8971bd47b0320b46a89bc45394056a2a3af02a1",
                    "decodedLog": {
                        "name": "Transfer",
                        "params": [
                            {
                                "name": "from",
                                "type": "address",
                                "value": "0x0000000000000000000000000000000000000000"
                            },
                            {
                                "name": "to",
                                "type": "address",
                                "value": "0x8a0c17db41577f792625db42618819be88ccdfb9"
                            },
                            {
                                "decimalAvailable": true,
                                "name": "tokenId",
                                "type": "uint256",
                                "value": "278"
                            }
                        ],
                        "signature": "Transfer(address,address,uint256)"
                    },
                    "id": 1,
                    "logData": "0x",
                    "logDecoded": true,
                    "operation": "EVENT",
                    "revert": false,
                    "status": true,
                    "topics": [
                        "0xddf252ad1be2c89b69c2b068fc378daa952ba7f163c4a11628f55a4df523b3ef",
                        "0x0000000000000000000000000000000000000000000000000000000000000000",
                        "0x0000000000000000000000008a0c17db41577f792625db42618819be88ccdfb9",
                        "0x0000000000000000000000000000000000000000000000000000000000000116"
                    ]
                },
                "nodeType": 1
            }
        },
        "gasFlame": [
            {
                "children": [
                    {
                        "children": [
                            {
                                "children": [],
                                "depth": 0,
                                "name": "Initial Gas",
                                "value": 21204
                            },
                            {
                                "children": [],
                                "depth": 0,
                                "name": "Executed Gas",
                                "value": 54631
                            }
                        ],
                        "depth": -1,
                        "name": "Actual Gas Used",
                        "value": 75835
                    },
                    {
                        "children": [],
                        "depth": -1,
                        "name": "Refunded Gas",
                        "value": 0
                    }
                ],
                "depth": -2,
                "name": "Total Gas",
                "value": 75835
            }
        ],
        "isConfirmed": true,
        "mainTrace": [
            {
                "children": [
                    {
                        "children": [
                            {
                                "children": [],
                                "depth": 1,
                                "id": 1,
                                "order": 1
                            }
                        ],
                        "depth": 0,
                        "id": 0,
                        "order": 0
                    }
                ],
                "depth": -1,
                "id": -1,
                "order": -1
            }
        ],
        "mainTraceNodeCount": 2,
        "parentIdMap": {
            "0": -1,
            "1": 0
        },
        "tidyTrace": [
            {
                "children": [
                    {
                        "children": [
                            {
                                "children": [],
                                "depth": 1,
                                "id": 1,
                                "order": 1
                            }
                        ],
                        "depth": 0,
                        "id": 0,
                        "order": 0
                    }
                ],
                "depth": -1,
                "id": -1,
                "order": -1
            }
        ],
        "tidyTraceNodeCount": 2
    },
    "state_change": {
        "stateChanges": [
            {
                "address": "0xd8971bd47b0320b46a89bc45394056a2a3af02a1",
                "erc": "ERC-721",
                "slots": [
                    {
                        "current": "0x000000000000000062afe6b08a0c17db41577f792625db42618819be88ccdfb9",
                        "key": "0x838be1210017d8553c9962fdc0c20e464174fab6822087237ea9a93dafce2e77",
                        "prev": "0x0000000000000000000000000000000000000000000000000000000000000000"
                    },
                    {
                        "current": "0x0000000000000000000000000000000000000000000000000000000000000117",
                        "key": "0x0000000000000000000000000000000000000000000000000000000000000000",
                        "prev": "0x0000000000000000000000000000000000000000000000000000000000000116"
                    },
                    {
                        "current": "0x0000000000000000000000000000000000000000000000010000000000000001",
                        "key": "0xb3f2bdcfc0519da53171d28b09e68c6cc506d5d83bb76a2113196c986f5221f4",
                        "prev": "0x0000000000000000000000000000000000000000000000000000000000000000"
                    }
                ],
                "storageVariables": [
                    {
                        "name": "_ownerships",
                        "type": "mapping(uint256 => struct IERC721A.TokenOwnership)",
                        "value": {
                            "pairs": [
                                {
                                    "key": "278",
                                    "value": {
                                        "fields": [
                                            {
                                                "name": "addr",
                                                "type": "address",
                                                "value": {
                                                    "current": "0x8a0c17db41577f792625db42618819be88ccdfb9",
                                                    "prev": "0x0000000000000000000000000000000000000000",
                                                    "typeTag": 1
                                                }
                                            },
                                            {
                                                "name": "startTimestamp",
                                                "type": "uint64",
                                                "value": {
                                                    "current": "1655695024",
                                                    "prev": "0",
                                                    "typeTag": 1
                                                }
                                            },
                                            {
                                                "name": "burned",
                                                "type": "bool",
                                                "value": {
                                                    "current": "false",
                                                    "prev": "false",
                                                    "typeTag": 1
                                                }
                                            }
                                        ],
                                        "typeTag": 3
                                    }
                                }
                            ],
                            "typeTag": 4
                        }
                    },
                    {
                        "name": "_currentIndex",
                        "type": "uint256",
                        "value": {
                            "current": "279",
                            "prev": "278",
                            "typeTag": 1
                        }
                    },
                    {
                        "name": "_addressData",
                        "type": "mapping(address => struct IERC721A.AddressData)",
                        "value": {
                            "pairs": [
                                {
                                    "key": "0x8a0c17db41577f792625db42618819be88ccdfb9",
                                    "value": {
                                        "fields": [
                                            {
                                                "name": "balance",
                                                "type": "uint64",
                                                "value": {
                                                    "current": "1",
                                                    "prev": "0",
                                                    "typeTag": 1
                                                }
                                            },
                                            {
                                                "name": "numberMinted",
                                                "type": "uint64",
                                                "value": {
                                                    "current": "1",
                                                    "prev": "0",
                                                    "typeTag": 1
                                                }
                                            },
                                            {
                                                "name": "numberBurned",
                                                "type": "uint64",
                                                "value": {
                                                    "current": "0",
                                                    "prev": "0",
                                                    "typeTag": 1
                                                }
                                            },
                                            {
                                                "name": "aux",
                                                "type": "uint64",
                                                "value": {
                                                    "current": "0",
                                                    "prev": "0",
                                                    "typeTag": 1
                                                }
                                            }
                                        ],
                                        "typeTag": 3
                                    }
                                }
                            ],
                            "typeTag": 4
                        }
                    }
                ]
            }
        ]
    }
}