{
    "balance_change": {
        "balanceChanges": [
            {
                "account": "0x4ca09d44a050cef65f48e0d61bf74e2d684af339",
                "assets": [
                    {
                        "address": "0xeeeeeeeeeeeeeeeeeeeeeeeeeeeeeeeeeeeeeeee",
                        "amount": "0.05",
                        "iconUrl": "https://assets.blocksec.com/image/1663669189317-3.png",
                        "isERC1155": false,
                        "isERC721": false,
                        "sign": false,
                        "value": "19.841"
                    }
                ]
            },
            {
                "account": "0x4e70779a7b07f7c068bd8d3632b76e860dc97472",
                "assets": [
                    {
                        "address": "0xeeeeeeeeeeeeeeeeeeeeeeeeeeeeeeeeeeeeeeee",
                        "amount": "0.025",
                        "iconUrl": "https://assets.blocksec.com/image/1663669189317-3.png",
                        "isERC1155": false,
                        "isERC721": false,
                        "sign": true,
                        "value": "9.9205"
                    }
                ]
            },
            {
                "account": "0x6cc48752e63e6d65352f13a45b1aaed5ec4c9fe0",
                "assets": [
                    {
                        "address": "0xeeeeeeeeeeeeeeeeeeeeeeeeeeeeeeeeeeeeeeee",
                        "amount": "0.025",
                        "iconUrl": "https://assets.blocksec.com/image/1663669189317-3.png",
                        "isERC1155": false,
                        "isERC721": false,
                        "sign": true,
                        "value": "9.9205"
                    }
                ]
            }
        ]
    },
    "profile": {
        "basic_info": {
            "baseFee": "",
            "blockNumber": 10750512,
            "callData": "0x797eee240000000000000000000000006cc48752e63e6d65352f13a45b1aaed5ec4c9fe0",
            "debugEnable": true,
            "errorInfo": "",
            "eventCount": 4,
            "feeRecipient": "0xea674fdde714fd979de3edf0f56aa9716b898ec8",
            "formatValue": "0.05",
            "gasLimit": 441828,
            "gasPrice": "143",
            "gasUsed": 339868,
            "intTxnCount": 2,
            "internalRevert": false,
            "internalRevertMessage": "",
            "isContractCreation": false,
            "isFlashloan": false,
            "maxFee": "",
            "nonce": 0,
            "overwritedBlockNumber": -1,
            "priorityFee": "",
            "receiver": "0x5acc84a3e955bdd76467d3348077d003f00ffb97",
            "revertMessage": "",
            "sender": "0x4ca09d44a050cef65f48e0d61bf74e2d684af339",
            "simulationEnable": true,
            "sourceTxnHash": "0x7c15efd7f6427158f0a7556ee89b132aaf887773fd6cc28b4ab4262fc01c254e",
            "status": true,
            "timestamp": "2020-08-28T17:24:53Z",
            "transactionFee": "0.048601124",
            "txnHash": "0x7c15efd7f6427158f0a7556ee89b132aaf887773fd6cc28b4ab4262fc01c254e",
            "txnIndex": 14,
            "type": 0,
            "value": "50000000000000000"
        },
        "fund_flow": [
            {
                "amount": "0.05",
                "from": "0x4ca09d44a050cef65f48e0d61bf74e2d684af339",
                "id": 1,
                "isERC1155": false,
                "isERC721": false,
                "isReverted": false,
                "order": 1,
                "to": "0x5acc84a3e955bdd76467d3348077d003f00ffb97",
                "token": "0xeeeeeeeeeeeeeeeeeeeeeeeeeeeeeeeeeeeeeeee"
            },
            {
                "amount": "0.025",
                "from": "0x5acc84a3e955bdd76467d3348077d003f00ffb97",
                "id": 2,
                "isERC1155": false,
                "isERC721": false,
                "isReverted": false,
                "order": 2,
                "to": "0x6cc48752e63e6d65352f13a45b1aaed5ec4c9fe0",
                "token": "0xeeeeeeeeeeeeeeeeeeeeeeeeeeeeeeeeeeeeeeee"
            },
            {
                "amount": "0.025",
                "from": "0x5acc84a3e955bdd76467d3348077d003f00ffb97",
                "id": 3,
                "isERC1155": false,
                "isERC721": false,
                "isReverted": false,
                "order": 3,
                "to": "0x4e70779a7b07f7c068bd8d3632b76e860dc97472",
                "token": "0xeeeeeeeeeeeeeeeeeeeeeeeeeeeeeeeeeeeeeeee"
            }
        ],
        "token_infos": [
            {
                "address": "0xc02aaa39b223fe8d0a0e5c4f27ead9083c756cc2",
                "decimals": 18
            },
            {
                "address": "0xeeeeeeeeeeeeeeeeeeeeeeeeeeeeeeeeeeeeeeee",
                "decimals": 18
            }
        ]
    },
    "address_label": {
        "labels": [
            {
                "address": "0xeeeeeeeeeeeeeeeeeeeeeeeeeeeeeeeeeeeeeeee",
                "label": "Ether"
            },
            {
                "address": "0x5acc84a3e955bdd76467d3348077d003f00ffb97",
                "label": "Forsage.io"
            },
            {
                "address": "0x0000000000000000000000000000000000000001",
                "label": "Precompiled"
            },
            {
                "address": "0x0000000000000000000000000000000000000002",
                "label": "Precompiled"
            },
            {
                "address": "0x0000000000000000000000000000000000000003",
                "label": "Precompiled"
            },
            {
                "address": "0x0000000000000000000000000000000000000004",
                "label": "Precompiled"
            }
        ]
    },
    "trace": {
        "accountLabels": null,
        "dataMap": {
            "-1": {
                "invocation": {
                    "address": "0x4ca09d44a050cef65f48e0d61bf74e2d684af339",
                    "callData": "",
                    "decodedMethod": null,
                    "errorInfo": "",
                    "fromAddress": "",
                    "gasUsed": 0,
                    "id": -1,
                    "methodDecoded": false,
                    "operation": "",
                    "output": "",
                    "revert": false,
                    "revertMessage": "",
                    "selector": "",
                    "status": false,
                    "value": ""
                },
                "nodeType": 0
            },
            "0": {
                "invocation": {
                    "address": "0x5acc84a3e955bdd76467d3348077d003f00ffb97",
                    "callData": "0x0000000000000000000000006cc48752e63e6d65352f13a45b1aaed5ec4c9fe0",
                    "decodedMethod": {
                        "callParams": [
                            {
                                "name": "referrerAddress",
                                "type": "address",
                                "value": "0x6cc48752e63e6d65352f13a45b1aaed5ec4c9fe0"
                            }
                        ],
                        "constructorArguments": "",
                        "name": "registrationExt",
                        "returnParams": [],
                        "signature": "registrationExt(address)"
                    },
                    "errorInfo": "",
                    "fromAddress": "0x4ca09d44a050cef65f48e0d61bf74e2d684af339",
                    "gasUsed": 339868,
                    "id": 0,
                    "methodDecoded": true,
                    "operation": "CALL",
                    "output": "",
                    "revert": false,
                    "revertMessage": "",
                    "selector": "0x797eee24",
                    "status": true,
                    "value": "0.05"
                },
                "nodeType": 0
            },
            "1": {
                "event": {
                    "contract": "0x5acc84a3e955bdd76467d3348077d003f00ffb97",
                    "decodedLog": {
                        "name": "NewUserPlace",
                        "params": [
                            {
                                "name": "user",
                                "type": "address",
                                "value": "0x4ca09d44a050cef65f48e0d61bf74e2d684af339"
                            },
                            {
                                "name": "referrer",
                                "type": "address",
                                "value": "0x6cc48752e63e6d65352f13a45b1aaed5ec4c9fe0"
                            },
                            {
                                "name": "matrix",
                                "type": "uint8",
                                "value": "1"
                            },
                            {
                                "name": "level",
                                "type": "uint8",
                                "value": "1"
                            },
                            {
                                "name": "place",
                                "type": "uint8",
                                "value": "2"
                            }
                        ],
                        "signature": "NewUserPlace(address,address,uint8,uint8,uint8)"
                    },
                    "id": 1,
                    "logData": "0x000000000000000000000000000000000000000000000000000000000000000100000000000000000000000000000000000000000000000000000000000000010000000000000000000000000000000000000000000000000000000000000002",
                    "logDecoded": true,
                    "operation": "EVENT",
                    "revert": false,
                    "status": true,
                    "topics": [
                        "0x68062c5925c4317adf3a7095478d28b33fd8b41458bc7620b61bc46bf1b24d82",
                        "0x0000000000000000000000004ca09d44a050cef65f48e0d61bf74e2d684af339",
                        "0x0000000000000000000000006cc48752e63e6d65352f13a45b1aaed5ec4c9fe0"
                    ]
                },
                "nodeType": 1
            },
            "2": {
                "invocation": {
                    "address": "0x6cc48752e63e6d65352f13a45b1aaed5ec4c9fe0",
                    "callData": "0x",
                    "decodedMethod": null,
                    "errorInfo": "",
                    "fromAddress": "0x5acc84a3e955bdd76467d3348077d003f00ffb97",
                    "gasUsed": 0,
                    "id": 2,
                    "methodDecoded": false,
                    "operation": "CALL",
                    "output": "",
                    "revert": false,
                    "revertMessage": "",
                    "selector": "fallback",
                    "status": true,
                    "value": "0.025"
                },
                "nodeType": 0
            },
            "3": {
                "event": {
                    "contract": "0x5acc84a3e955bdd76467d3348077d003f00ffb97",
                    "decodedLog": {
                        "name": "NewUserPlace",
                        "params": [
                            {
                                "name": "user",
                                "type": "address",
                                "value": "0x4ca09d44a050cef65f48e0d61bf74e2d684af339"
                            },
                            {
                                "name": "referrer",
                                "type": "address",
                                "value": "0x6cc48752e63e6d65352f13a45b1aaed5ec4c9fe0"
                            },
                            {
                                "name": "matrix",
                                "type": "uint8",
                                "value": "2"
                            },
                            {
                                "name": "level",
                                "type": "uint8",
                                "value": "1"
                            },
                            {
                                "name": "place",
                                "type": "uint8",
                                "value": "2"
                            }
                        ],
                        "signature": "NewUserPlace(address,address,uint8,uint8,uint8)"
                    },
                    "id": 3,
                    "logData": "0x000000000000000000000000000000000000000000000000000000000000000200000000000000000000000000000000000000000000000000000000000000010000000000000000000000000000000000000000000000000000000000000002",
                    "logDecoded": true,
                    "operation": "EVENT",
                    "revert": false,
                    "status": true,
                    "topics": [
                        "0x68062c5925c4317adf3a7095478d28b33fd8b41458bc7620b61bc46bf1b24d82",
                        "0x0000000000000000000000004ca09d44a050cef65f48e0d61bf74e2d684af339",
                        "0x0000000000000000000000006cc48752e63e6d65352f13a45b1aaed5ec4c9fe0"
                    ]
                },
                "nodeType": 1
            },
            "4": {
                "event": {
                    "contract": "0x5acc84a3e955bdd76467d3348077d003f00ffb97",
                    "decodedLog": {
                        "name": "NewUserPlace",
                        "params": [
                            {
                                "name": "user",
                                "type": "address",
                                "value": "0x4ca09d44a050cef65f48e0d61bf74e2d684af339"
                            },
                            {
                                "name": "referrer",
                                "type": "address",
                                "value": "0x4e70779a7b07f7c068bd8d3632b76e860dc97472"
                            },
                            {
                                "name": "matrix",
                                "type": "uint8",
                                "value": "2"
                            },
                            {
                                "name": "level",
                                "type": "uint8",
                                "value": "1"
                            },
                            {
                                "name": "place",
                                "type": "uint8",
                                "value": "6"
                            }
                        ],
                        "signature": "NewUserPlace(address,address,uint8,uint8,uint8)"
                    },
                    "id": 4,
                    "logData": "0x000000000000000000000000000000000000000000000000000000000000000200000000000000000000000000000000000000000000000000000000000000010000000000000000000000000000000000000000000000000000000000000006",
                    "logDecoded": true,
                    "operation": "EVENT",
                    "revert": false,
                    "status": true,
                    "topics": [
                        "0x68062c5925c4317adf3a7095478d28b33fd8b41458bc7620b61bc46bf1b24d82",
                        "0x0000000000000000000000004ca09d44a050cef65f48e0d61bf74e2d684af339",
                        "0x0000000000000000000000004e70779a7b07f7c068bd8d3632b76e860dc97472"
                    ]
                },
                "nodeType": 1
            },
            "5": {
                "invocation": {
                    "address": "0x4e70779a7b07f7c068bd8d3632b76e860dc97472",
                    "callData": "0x",
                    "decodedMethod": null,
                    "errorInfo": "",
                    "fromAddress": "0x5acc84a3e955bdd76467d3348077d003f00ffb97",
                    "gasUsed": 0,
                    "id": 5,
                    "methodDecoded": false,
                    "operation": "CALL",
                    "output": "",
                    "revert": false,
                    "revertMessage": "",
                    "selector": "fallback",
                    "status": true,
                    "value": "0.025"
                },
                "nodeType": 0
            },
            "6": {
                "event": {
                    "contract": "0x5acc84a3e955bdd76467d3348077d003f00ffb97",
                    "decodedLog": {
                        "name": "Registration",
                        "params": [
                            {
                                "name": "user",
                                "type": "address",
                                "value": "0x4ca09d44a050cef65f48e0d61bf74e2d684af339"
                            },
                            {
                                "name": "referrer",
                                "type": "address",
                                "value": "0x6cc48752e63e6d65352f13a45b1aaed5ec4c9fe0"
                            },
                            {
                                "name": "userId",
                                "type": "uint256",
                                "value": "918,496"
                            },
                            {
                                "name": "referrerId",
                                "type": "uint256",
                                "value": "721,666"
                            }
                        ],
                        "signature": "Registration(address,address,uint256,uint256)"
                    },
                    "id": 6,
                    "logData": "0x00000000000000000000000000000000000000000000000000000000000b0302",
                    "logDecoded": true,
                    "operation": "EVENT",
                    "revert": false,
                    "status": true,
                    "topics": [
                        "0x309bb360e8b69c23937ccc5fb01f9aeeead1c95a99604e175113ff82f2b1723a",
                        "0x0000000000000000000000004ca09d44a050cef65f48e0d61bf74e2d684af339",
                        "0x0000000000000000000000006cc48752e63e6d65352f13a45b1aaed5ec4c9fe0",
                        "0x00000000000000000000000000000000000000000000000000000000000e03e0"
                    ]
                },
                "nodeType": 1
            }
        },
        "gasFlame": [
            {
                "children": [
                    {
                        "children": [
                            {
                                "children": [],
                                "depth": 0,
                                "name": "Initial Gas",
                                "value": 21432
                            },
                            {
                                "children": [
                                    {
                                        "children": [],
                                        "depth": 1,
                                        "name": "fallback",
                                        "value": 0
                                    },
                                    {
                                        "children": [],
                                        "depth": 1,
                                        "name": "fallback",
                                        "value": 0
                                    }
                                ],
                                "depth": 0,
                                "name": "Executed Gas",
                                "value": 318436
                            }
                        ],
                        "depth": -1,
                        "name": "Actual Gas Used",
                        "value": 339868
                    },
                    {
                        "children": [],
                        "depth": -1,
                        "name": "Refunded Gas",
                        "value": 0
                    }
                ],
                "depth": -2,
                "name": "Total Gas",
                "value": 339868
            }
        ],
        "isConfirmed": true,
        "mainTrace": [
            {
                "children": [
                    {
                        "children": [
                            {
                                "children": [],
                                "depth": 1,
                                "id": 1,
                                "order": 1
                            },
                            {
                                "children": [],
                                "depth": 1,
                                "id": 2,
                                "order": 2
                            },
                            {
                                "children": [],
                                "depth": 1,
                                "id": 3,
                                "order": 3
                            },
                            {
                                "children": [],
                                "depth": 1,
                                "id": 4,
                                "order": 4
                            },
                            {
                                "children": [],
                                "depth": 1,
                                "id": 5,
                                "order": 5
                            },
                            {
                                "children": [],
                                "depth": 1,
                                "id": 6,
                                "order": 6
                            }
                        ],
                        "depth": 0,
                        "id": 0,
                        "order": 0
                    }
                ],
                "depth": -1,
                "id": -1,
                "order": -1
            }
        ],
        "mainTraceNodeCount": 7,
        "parentIdMap": {
            "0": -1,
            "1": 0,
            "2": 0,
            "3": 0,
            "4": 0,
            "5": 0,
            "6": 0
        },
        "tidyTrace": [
            {
                "children": [
                    {
                        "children": [
                            {
                                "children": [],
                                "depth": 1,
                                "id": 1,
                                "order": 1
                            },
                            {
                                "children": [],
                                "depth": 1,
                                "id": 2,
                                "order": 2
                            },
                            {
                                "children": [],
                                "depth": 1,
                                "id": 3,
                                "order": 3
                            },
                            {
                                "children": [],
                                "depth": 1,
                                "id": 4,
                                "order": 4
                            },
                            {
                                "children": [],
                                "depth": 1,
                                "id": 5,
                                "order": 5
                            },
                            {
                                "children": [],
                                "depth": 1,
                                "id": 6,
                                "order": 6
                            }
                        ],
                        "depth": 0,
                        "id": 0,
                        "order": 0
                    }
                ],
                "depth": -1,
                "id": -1,
                "order": -1
            }
        ],
        "tidyTraceNodeCount": 7
    },
    "state_change": {
        "stateChanges": [
            {
                "address": "0x5acc84a3e955bdd76467d3348077d003f00ffb97",
                "erc": "",
                "slots": [
                    {
                        "current": "0x0000000000000000000000000000000000000000000000000000000000000001",
                        "key": "0x297a5b60816925fc2926d7e926696e3c045e8b17412ff762383837660274e83f",
                        "prev": "0x0000000000000000000000000000000000000000000000000000000000000000"
                    },
                    {
                        "current": "0x0000000000000000000000004ca09d44a050cef65f48e0d61bf74e2d684af339",
                        "key": "0x3985e02cff202865f2cda343ffd770327bd138f1678c419ccb28a75813363515",
                        "prev": "0x0000000000000000000000000000000000000000000000000000000000000000"
                    },
                    {
                        "current": "0x0000000000000000000000006cc48752e63e6d65352f13a45b1aaed5ec4c9fe0",
                        "key": "0x80d1060dc320a38766946b5f6679df1ab0ae374acc0d94ffe865b3275b7596d2",
                        "prev": "0x0000000000000000000000000000000000000000000000000000000000000000"
                    },
                    {
                        "current": "0x0000000000000000000000000000000000000000000000000000000000000002",
                        "key": "0xb17ef3d0753a536821c314c32bc876ea812d3a16f72f2451942d68dd328fc266",
                        "prev": "0x0000000000000000000000000000000000000000000000000000000000000001"
                    },
                    {
                        "current": "0x0000000000000000000000004ca09d44a050cef65f48e0d61bf74e2d684af339",
                        "key": "0x7376e30a80b9fd38a20e47403b5bf3468f40db342b55a31d78c74b26fa4d3eb5",
                        "prev": "0x0000000000000000000000000000000000000000000000000000000000000000"
                    },
                    {
                        "current": "0x0000000000000000000000004ca09d44a050cef65f48e0d61bf74e2d684af339",
                        "key": "0xf7941c24bb9153ac6ebb773aa4ee3e0fe1b0d0547c2188c74ef9bffccaf1c71b",
                        "prev": "0x0000000000000000000000000000000000000000000000000000000000000000"
                    },
                    {
                        "current": "0x0000000000000000000000000000000000000000000000000000000000000002",
                        "key": "0x1b8866f878d4876bd3e71d137d6d94ee167287cc756d7e555a2ec59413725d1a",
                        "prev": "0x0000000000000000000000000000000000000000000000000000000000000001"
                    },
                    {
                        "current": "0x00000000000000000000000000000000000000000000000000000000000e03e0",
                        "key": "0x2950ab1cb3533f5ad97a7c348b0a593c46f57696a4ac39852876cfc5d7a63e3b",
                        "prev": "0x0000000000000000000000000000000000000000000000000000000000000000"
                    },
                    {
                        "current": "0x0000000000000000000000004ca09d44a050cef65f48e0d61bf74e2d684af339",
                        "key": "0x12913a7fad85a905bffea3fb99f7a4df055be0937fa9da5fe6d411a9fd9687aa",
                        "prev": "0x0000000000000000000000000000000000000000000000000000000000000000"
                    },
                    {
                        "current": "0x0000000000000000000000000000000000000000000000000000000000000001",
                        "key": "0x9e3935c0138636bad2931965d3d6c118ce101da363628d54293d52338cd51f02",
                        "prev": "0x0000000000000000000000000000000000000000000000000000000000000000"
                    },
                    {
                        "current": "0x00000000000000000000000000000000000000000000000000000000000e03e1",
                        "key": "0x0000000000000000000000000000000000000000000000000000000000000004",
                        "prev": "0x00000000000000000000000000000000000000000000000000000000000e03e0"
                    },
                    {
                        "current": "0x0000000000000000000000000000000000000000000000000000000000000003",
                        "key": "0x00f8b1e3c4735854af79aeb267aca803b25654a0107ccbeb15aa6a8935bcf9f1",
                        "prev": "0x0000000000000000000000000000000000000000000000000000000000000002"
                    },
                    {
                        "current": "0x0000000000000000000000006cc48752e63e6d65352f13a45b1aaed5ec4c9fe0",
                        "key": "0x2950ab1cb3533f5ad97a7c348b0a593c46f57696a4ac39852876cfc5d7a63e3c",
                        "prev": "0x0000000000000000000000000000000000000000000000000000000000000000"
                    },
                    {
                        "current": "0x0000000000000000000000006cc48752e63e6d65352f13a45b1aaed5ec4c9fe0",
                        "key": "0x3b8650e1dae73e1b54cc3deffd70d7cc954544cbc664dd7372ca8c6b11e9581d",
                        "prev": "0x0000000000000000000000000000000000000000000000000000000000000000"
                    },
                    {
                        "current": "0x0000000000000000000000000000000000000000000000000000000000000002",
                        "key": "0x318f1f0a71d629beb234946e2e2a6a0b5578742d67a74409e0ab193f77a395bb",
                        "prev": "0x0000000000000000000000000000000000000000000000000000000000000001"
                    },
                    {
                        "current": "0x0000000000000000000000004ca09d44a050cef65f48e0d61bf74e2d684af339",
                        "key": "0x3217b73c8b95d2ff06e1d547bde4f1f533430442d10b2f046672d07238997c3f",
                        "prev": "0x0000000000000000000000000000000000000000000000000000000000000000"
                    }
                ],
                "storageVariables": [
                    {
                        "name": "userIds",
                        "type": "mapping(uint256 => address)",
                        "value": {
                            "pairs": [
                                {
                                    "key": "918496",
                                    "value": {
                                        "current": "0x4ca09d44a050cef65f48e0d61bf74e2d684af339",
                                        "prev": "0x0000000000000000000000000000000000000000",
                                        "typeTag": 1
                                    }
                                }
                            ],
                            "typeTag": 4
                        }
                    },
                    {
                        "name": "idToAddress",
                        "type": "mapping(uint256 => address)",
                        "value": {
                            "pairs": [
                                {
                                    "key": "918496",
                                    "value": {
                                        "current": "0x4ca09d44a050cef65f48e0d61bf74e2d684af339",
                                        "prev": "0x0000000000000000000000000000000000000000",
                                        "typeTag": 1
                                    }
                                }
                            ],
                            "typeTag": 4
                        }
                    },
                    {
                        "name": "users",
                        "type": "mapping(address => struct SmartMatrixForsage.User)",
                        "value": {
                            "pairs": [
                                {
                                    "key": "0x4ca09d44a050cef65f48e0d61bf74e2d684af339",
                                    "value": {
                                        "fields": [
                                            {
                                                "name": "id",
                                                "type": "uint256",
                                                "value": {
                                                    "current": "918496",
                                                    "prev": "0",
                                                    "typeTag": 1
                                                }
                                            },
                                            {
                                                "name": "referrer",
                                                "type": "address",
                                                "value": {
                                                    "current": "0x6cc48752e63e6d65352f13a45b1aaed5ec4c9fe0",
                                                    "prev": "0x0000000000000000000000000000000000000000",
                                                    "typeTag": 1
                                                }
                                            },
                                            {
                                                "name": "activeX3Levels",
                                                "type": "mapping(uint8 => bool)",
                                                "value": {
                                                    "pairs": [
                                                        {
                                                            "key": "1",
                                                            "value": {
                                                                "current": "true",
                                                                "prev": "false",
                                                                "typeTag": 1
                                                            }
                                                        }
                                                    ],
                                                    "typeTag": 4
                                                }
                                            },
                                            {
                                                "name": "activeX6Levels",
                                                "type": "mapping(uint8 => bool)",
                                                "value": {
                                                    "pairs": [
                                                        {
                                                            "key": "1",
                                                            "value": {
                                                                "current": "true",
                                                                "prev": "false",
                                                                "typeTag": 1
                                                            }
                                                        }
                                                    ],
                                                    "typeTag": 4
                                                }
                                            },
                                            {
                                                "name": "x3Matrix",
                                                "type": "mapping(uint8 => struct SmartMatrixForsage.X3)",
                                                "value": {
                                                    "pairs": [
                                                        {
                                                            "key": "1",
                                                            "value": {
                                                                "fields": [
                                                                    {
                                                                        "name": "currentReferrer",
                                                                        "type": "address",
                                                                        "value": {
                                                                            "current": "0x6cc48752e63e6d65352f13a45b1aaed5ec4c9fe0",
                                                                            "prev": "0x0000000000000000000000000000000000000000",
                                                                            "typeTag": 1
                                                                        }
                                                                    }
                                                                ],
                                                                "typeTag": 3
                                                            }
                                                        }
                                                    ],
                                                    "typeTag": 4
                                                }
                                            },
                                            {
                                                "name": "x6Matrix",
                                                "type": "mapping(uint8 => struct SmartMatrixForsage.X6)",
                                                "value": {
                                                    "pairs": [
                                                        {
                                                            "key": "1",
                                                            "value": {
                                                                "fields": [
                                                                    {
                                                                        "name": "currentReferrer",
                                                                        "type": "address",
                                                                        "value": {
                                                                            "current": "0x6cc48752e63e6d65352f13a45b1aaed5ec4c9fe0",
                                                                            "prev": "0x0000000000000000000000000000000000000000",
                                                                            "typeTag": 1
                                                                        }
                                                                    }
                                                                ],
                                                                "typeTag": 3
                                                            }
                                                        }
                                                    ],
                                                    "typeTag": 4
                                                }
                                            }
                                        ],
                                        "typeTag": 3
                                    }
                                },
                                {
                                    "key": "0x4e70779a7b07f7c068bd8d3632b76e860dc97472",
                                    "value": {
                                        "fields": [
                                            {
                                                "name": "x6Matrix",
                                                "type": "mapping(uint8 => struct SmartMatrixForsage.X6)",
                                                "value": {
                                                    "pairs": [
                                                        {
                                                            "key": "1",
                                                            "value": {
                                                                "fields": [
                                                                    {
                                                                        "name": "secondLevelReferrals",
                                                                        "type": "address[]",
                                                                        "value": {
                                                                            "elemType": "address",
                                                                            "elems": [
                                                                                {
                                                                                    "index": 2,
                                                                                    "value": {
                                                                                        "current": "0x4ca09d44a050cef65f48e0d61bf74e2d684af339",
                                                                                        "prev": "0x0000000000000000000000000000000000000000",
                                                                                        "typeTag": 1
                                                                                    }
                                                                                }
                                                                            ],
                                                                            "typeTag": 2
                                                                        }
                                                                    }
                                                                ],
                                                                "typeTag": 3
                                                            }
                                                        }
                                                    ],
                                                    "typeTag": 4
                                                }
                                            }
                                        ],
                                        "typeTag": 3
                                    }
                                },
                                {
                                    "key": "0x6cc48752e63e6d65352f13a45b1aaed5ec4c9fe0",
                                    "value": {
                                        "fields": [
                                            {
                                                "name": "partnersCount",
                                                "type": "uint256",
                                                "value": {
                                                    "current": "2",
                                                    "prev": "1",
                                                    "typeTag": 1
                                                }
                                            },
                                            {
                                                "name": "x3Matrix",
                                                "type": "mapping(uint8 => struct SmartMatrixForsage.X3)",
                                                "value": {
                                                    "pairs": [
                                                        {
                                                            "key": "1",
                                                            "value": {
                                                                "fields": [
                                                                    {
                                                                        "name": "referrals",
                                                                        "type": "address[]",
                                                                        "value": {
                                                                            "elemType": "address",
                                                                            "elems": [
                                                                                {
                                                                                    "index": 1,
                                                                                    "value": {
                                                                                        "current": "0x4ca09d44a050cef65f48e0d61bf74e2d684af339",
                                                                                        "prev": "0x0000000000000000000000000000000000000000",
                                                                                        "typeTag": 1
                                                                                    }
                                                                                }
                                                                            ],
                                                                            "typeTag": 2
                                                                        }
                                                                    }
                                                                ],
                                                                "typeTag": 3
                                                            }
                                                        }
                                                    ],
                                                    "typeTag": 4
                                                }
                                            },
                                            {
                                                "name": "x6Matrix",
                                                "type": "mapping(uint8 => struct SmartMatrixForsage.X6)",
                                                "value": {
                                                    "pairs": [
                                                        {
                                                            "key": "1",
                                                            "value": {
                                                                "fields": [
                                                                    {
                                                                        "name": "firstLevelReferrals",
                                                                        "type": "address[]",
                                                                        "value": {
                                                                            "elemType": "address",
                                                                            "elems": [
                                                                                {
                                                                                    "index": 1,
                                                                                    "value": {
                                                                                        "current": "0x4ca09d44a050cef65f48e0d61bf74e2d684af339",
                                                                                        "prev": "0x0000000000000000000000000000000000000000",
                                                                                        "typeTag": 1
                                                                                    }
                                                                                }
                                                                            ],
                                                                            "typeTag": 2
                                                                        }
                                                                    }
                                                                ],
                                                                "typeTag": 3
                                                            }
                                                        }
                                                    ],
                                                    "typeTag": 4
                                                }
                                            }
                                        ],
                                        "typeTag": 3
                                    }
                                }
                            ],
                            "typeTag": 4
                        }
                    },
                    {
                        "name": "lastUserId",
                        "type": "uint256",
                        "value": {
                            "current": "918497",
                            "prev": "918496",
                            "typeTag": 1
                        }
                    }
                ]
            }
        ]
    }
}